
Source Code


000002:                                                                                                  ## Copyright:   Public domain.
000003:                                                                                                  ## Filename:    FLAGWORD_ASSIGNMENTS.agc
000004:                                                                                                  ## Purpose:     Part of the source code for Luminary 1A build 099.
000005:                                                                                                  ##              It is part of the source code for the Lunar Module's (LM)
000006:                                                                                                  ##              Apollo Guidance Computer (AGC), for Apollo 11.
000007:                                                                                                  ## Assembler:   yaYUL
000008:                                                                                                  ## Contact:     Onno Hommes <ohommes@cmu.edu>.
000009:                                                                                                  ## Website:     www.ibiblio.org/apollo.
000010:                                                                                                  ## Pages:       0061-0089
000011:                                                                                                  ## Mod history: 2009-05-15 OH   Transcribed from page images.
000012:                                                                                                  ##              2009-05-17 RSB  Extended to (blank) p. 89.
000013:                                                                                                  ##              2010-12-31 JL   Fixed page number comment.
000014:                                                                                                  ##              2016-12-13 RSB  Proofed text comments with octopus/ProoferComments
000015:                                                                                                  ##                              and corrected the errors found.
000016:                                                                                                  ##              2017-03-02 RSB  Comment-text fixes identified whilst
000017:                                                                                                  ##                              proofing Luminary 116.
000018:                                                                                                  ##              2017-03-15 RSB  Comment-text fixes identified in 5-way
000019:                                                                                                  ##                              side-by-side diff of Luminary 69/99/116/131/210.
000020:                                                                                                  ##              2017-08-14 MAS  Fixed a typo found while transcribing Zerlina 56.
000021:
000022:                                                                                                  ## This source code has been transcribed or otherwise adapted from
000023:                                                                                                  ## digitized images of a hardcopy from the MIT Museum.  The digitization
000024:                                                                                                  ## was performed by Paul Fjeld, and arranged for by Deborah Douglas of
000025:                                                                                                  ## the Museum.  Many thanks to both.  The images (with suitable reduction
000026:                                                                                                  ## in storage size and consequent reduction in image quality as well) are
000027:                                                                                                  ## available online at www.ibiblio.org/apollo.  If for some reason you
000028:                                                                                                  ## find that the images are illegible, contact me at info@sandroid.org
000029:                                                                                                  ## about getting access to the (much) higher-quality images which Paul
000030:                                                                                                  ## actually created.
000031:                                                                                                  ##
000032:                                                                                                  ## Notations on the hardcopy document read, in part:
000033:                                                                                                  ##
000034:                                                                                                  ##      Assemble revision 001 of AGC program LMY99 by NASA 2021112-61
000035:                                                                                                  ##      16:27 JULY 14, 1969
000036:
000037:


000039:                                                                                                  #  FLAGWORDS 0-11        ARE DOWNLINKED AND CAN BE SET AND CLEARED BY UP-FLAG AND DOWN-FLAG INSTRUCTIONS IN THE
000040:                                                                                                  #                        INTERPRETER.  THESE WERE PREVIOUSLY LISTED UNDER "INTERPRETIVE SWITCH BIT ASSIGNMENTS" IN
000041:                                                                                                  #                        THE ERASABLE LOG SECTION.  FLAGWORDS 12 & 13 WERE PREVIOUSLY RADMODES AND DAPBOOLS AND
000042:                                                                                                  #                        ARE STILL DOWNLINKED UNDER THOSE NAMES.
000043:
000044:                                                                                                  #                ALPHABETICAL LIST OF FLAGWORDS
000045:
000046:
000047:                                                                                                  #  FLAGWORD      DEC. NUMBER     BIT AND FLAG            BIT NAME
000048:
000049:                                                                                                  #  ACCOKFLG      207             BIT  3 FLAG 13          ACCSOKAY
000050:                                                                                                  #  ACC4-2FL      199             BIT 11 FLAG 13          ACC4OR2X
000051:                                                                                                  #  ACMODFLG      032             BIT 13 FLAG  2          ACMODBIT
000052:                                                                                                  #  ALTSCALE      186             BIT  9 FLAG 12          ALTSCBIT
000053:                                                                                                  #  ANTENFLG      183             BIT 12 FLAG 12          ANTENBIT
000054:                                                                                                  #  AORBSFLG      205             BIT  5 FLAG 13          AORBSYST
000055:                                                                                                  #  AORBTFLG      200             BIT 10 FLAG 13          AORBTRAN
000056:                                                                                                  #  APSESW        130             BIT  5 FLAG  8          APSESBIT
000057:                                                                                                  #  APSFLAG       152             BIT 13 FLAG 10          APSFLBIT
000058:                                                                                                  #  ASTNFLAG      108             BIT 12 FLAG  7          ASTNBIT
000059:                                                                                                  #  ATTFLAG       104             BIT  1 FLAG  6          ATTFLBIT
000060:                                                                                                  #  AUTOMODE      193             BIT  2 FLAG 12          AUTOMBIT
000061:                                                                                                  #  AUTR1FLG      209             BIT  1 FLAG 13          AUTRATE1
000062:                                                                                                  #  AUTR2FLG      208             BIT  2 FLAG 13          AUTRATE2
000063:                                                                                                  #  AUXFLAG       103             BIT  2 FLAG  6          AUXFLBIT
000064:                                                                                                  #  AVEGFLAG      115             BIT  5 FLAG  7          AVEGFBIT
000065:                                                                                                  #  AVEMIDSW      149             BIT  1 FLAG  9          AVEMDBIT
000066:                                                                                                  #  AVFLAG        040             BIT  5 FLAG  2          AVFLBIT
000067:                                                                                                  #  CALCMAN2      043             BIT  2 FLAG  2          CALC2BIT
000068:                                                                                                  #  CALCMAN3      042             BIT  3 FLAG  2          CALC3BIT
000069:                                                                                                  #  CDESFLAG      180             BIT 15 FLAG 12          CDESBIT
000070:                                                                                                  #  CMOONFLG      123             BIT 12 FLAG  8          CMOONBIT
000071:                                                                                                  #  COGAFLAG      131             BIT  4 FLAG  8          COGAFBIT
000072:                                                                                                  #  CSMDKFLG      197             BIT 13 FLAG 13          CSMDOCKD
000073:                                                                                                  #  CULTFLAG      053             BIT  7 FLAG  3          CULTBIT
000074:                                                                                                  #  DAPBOOLS                      FLGWRD13
000075:                                                                                                  #  DBSELFLG      206             BIT  4 FLAG 13          DBSELECT
000076:                                                                                                  #  DESIGFLG      185             BIT 10 FLAG 12          DESIGBIT
000077:                                                                                                  #  DIDFLAG       016             BIT 14 FLAG             DIDFLBIT
000078:                                                                                                  #  DIMOFLAG      059             BIT  1 FLAG  3          DIMOBIT
000079:                                                                                                  #  DMENFLG       081             BIT  9 FLAG  5          DMENFBIT
000080:                                                                                                  #  DRIFTDFL      202             BIT  8 FLAG 13          DRIFTBIT
000081:                                                                                                  #  DRIFTFLG      030             BIT 15 FLAG  2          DRFTBIT
000082:                                                                                                  #  DSKYFLAG      075             BIT 15 FLAG  5          DSKYFBIT


000084:                                                                                                  #  D6OR9FLG      058             BIT  2 FLAG  3          D6OR9BIT
000085:                                                                                                  #  ENGONFLG      083             BIT  7 FLAG  5          ENGONBIT
000086:                                                                                                  #  ERADFLAG      017             BIT 13 FLAG  1          ERADFBIT
000087:                                                                                                  #  ETPIFLAG      038             BIT  7 FLAG  2          ETPIBIT         EQUIVALENT FLAG NAME: OPTNSW
000088:                                                                                                  #  FINALFLG      039             BIT  6 FLAG  2          FINALBIT
000089:                                                                                                  #  FLAGWRD0      (000-014)       (STATE +0)
000090:                                                                                                  #  FLAGWRD1      (015-029)       (STATE +1)
000091:                                                                                                  #  FLAGWRD2      (030-044)       (STATE +2)
000092:                                                                                                  #  FLAGWRD3      (045-059)       (STATE +3)
000093:                                                                                                  #  FLAGWRD4      (060-074)       (STATE +4)
000094:                                                                                                  #  FLAGWRD5      (075-089)       (STATE +5)
000095:                                                                                                  #  FLAGWRD6      (090-104)       (STATE +6)
000096:                                                                                                  #  FLAGWRD7      (105-119)       (STATE +7)
000097:                                                                                                  #  FLAGWRD8      (120-134)       (STATE +8D)
000098:                                                                                                  #  FLAGWRD9      (135-149)       (STATE +9D)
000099:                                                                                                  #  FLAP          142             BIT  8 FLAG  9          FLAPBIT
000100:                                                                                                  #  FLGWRD10      (150-164)       (STATE +10D)
000101:                                                                                                  #  FLGWRD11      (165-179)       (STATE +11D)
000102:                                                                                                  #  FLGWRD12      (180-194)       (STATE +12D)
000103:                                                                                                  #  FLGWRD13      (195-209)       (STATE +13D)
000104:                                                                                                  #  FLPC          138             BIT 12 FLAG  9          FLPCBIT
000105:                                                                                                  #  FLPI          139             BIT 11 FLAG  9          FLPIBIT
000106:                                                                                                  #  FLRCS         149             BIT 10 FLAG  9          FLRCSBIT
000107:                                                                                                  #  FLUNDISP      125             BIT 10 FLAG  8          FLUNDBIT
000108:                                                                                                  #  FLVR          136             BIT 14 FLAG  9          FLVRBIT
000109:                                                                                                  #  FREEFLAG      012             BIT  3 FLAG  0          FREEFBIT
000110:                                                                                                  #  FSPASFLG      005             BIT 10 FLAG  0          FSPASBIT
000111:                                                                                                  #  GLOKFAIL      046             BIT 14 FLAG  3          GLOKFBIT
000112:                                                                                                  #  GMBDRVSW      095             BIT 10 FLAG  6          GMBDRBIT
000113:                                                                                                  #  GUESSW        028             BIT  2 FLAG  1          GUESSBIT
000114:                                                                                                  #  HFLSHFLG      179             BIT  1 FLAG 11          HFLSHBIT
000115:                                                                                                  #  IDLEFLAG      113             BIT  7 FLAG  7          IDLEFBIT
000116:                                                                                                  #  IGNFLAG       107             BIT 13 FLAG  7          IGNFLBIT
000117:                                                                                                  #  IMPULSW       036             BIT  9 FLAG  2          IMPULBIT
000118:                                                                                                  #  IMUSE         007             BIT  8 FLAG  0          IMUSEBIT
000119:                                                                                                  #  INFINFLG      128             BIT  7 FLAG  8          INFINBIT
000120:                                                                                                  #  INITALGN      133             BIT  2 FLAG  8          INITABIT
000121:                                                                                                  #  INTFLAG       151             BIT 14 FLAG 10          INTFLBIT
000122:                                                                                                  #  INTYPFLG      056             BIT  4 FLAG  3          INTYPBIT
000123:                                                                                                  #  ITSWICH       105             BIT 15 FLAG  7          ITSWBIT
000124:                                                                                                  #  JSWITCH       001             BIT 14 FLAG  0          JSWCHBIT
000125:                                                                                                  #  LETABORT      141             BIT  9 FLAG  9          LETABBIT
000126:                                                                                                  #  LMOONFLG      124             BIT 11 FLAG  8          LMOONBIT
000127:                                                                                                  #  LOKONSW       010             BIT  5 FLAG  0          LOKONBIT
000128:                                                                                                  #  LOSCMFLG      033             BIT 12 FLAG  2          LOSCMBIT
000129:                                                                                                  #  LRALTFLG      190             BIT  5 FLAG 12          LRALTBIT
000130:                                                                                                  #  LRBYPASS      165             BIT 15 FLAG 11          LRBYBIT
000131:                                                                                                  #  LRINH         172             BIT  8 FLAG 11          LRINHBIT
000132:                                                                                                  #  LRPOSFLG      189             BIT  6 FLAG 12          LRPOSBIT
000133:                                                                                                  #  LRVELFLG      187             BIT  8 FLAG 12          LRVELBIT


000135:                                                                                                  #  LUNAFLAG      048             BIT 12 FLAG  3          LUNABIT
000136:                                                                                                  #  MANUFLAG      106             BIT 14 FLAG  7          MANUFBIT
000137:                                                                                                  #  MGLVFLAG      088             BIT  2 FLAG  5          MGLVFBIT
000138:                                                                                                  #  MIDAVFLG      148             BIT  2 FLAG  9          MIDAVBIT
000139:                                                                                                  #  MIDFLAG       002             BIT 13 FLAG  0          MIDFLBIT
000140:                                                                                                  #  MID1FLAG      147             BIT  3 FLAG  9          MID1BIT
000141:                                                                                                  #  MKOVFLAG      072             BIT  3 FLAG  4          MKOVBIT
000142:                                                                                                  #  MOONFLAG      003             BIT 12 FLAG  0          MOONBIT
000143:                                                                                                  #  MRKIDFLG      060             BIT 15 FLAG  4          MRKIDBIT
000144:                                                                                                  #  MRKNVFLG      066             BIT  9 FLAG  4          MRKNVBIT
000145:                                                                                                  #  MRUPTFLG      070             BIT  5 FLAG  4          MRUPTBIT
000146:                                                                                                  #  MUNFLAG       097             BIT  8 FLAG  6          MUNFLBIT
000147:                                                                                                  #  MWAITFLG      064             BIT 11 FLAG  4          MWAITBIT
000148:                                                                                                  #  NEEDLFLG      011             BIT  4 FLAG  0          NEEDLBIT
000149:                                                                                                  #  NEWIFLG       122             BIT 13 FLAG  8          NEWIBIT
000150:                                                                                                  #  NJETSFLG      015             BIT 15 FLAG             NJETSBIT
000151:                                                                                                  #  NODOFLAG      044             BIT  1 FLAG  2          NODOBIT
000152:                                                                                                  #  NOLRREAD      170             BIT 10 FLAG 11          NOLRRBIT
000153:                                                                                                  #  NORMSW        110             BIT 10 FLAG  7          NORMSBIT
000154:                                                                                                  #  NORRMON       086             BIT  4 FLAG  5          NORRMBIT
000155:                                                                                                  #  NOR29FLG      049             BIT 11 FLAG  3          NR29FBIT
000156:                                                                                                  #  NOTHROTL      078             BIT 12 FLAG  5          NOTHRBIT
000157:                                                                                                  #  NOUPFLAG      024             BIT  6 FLAG  1          NOUPFBIT
000158:                                                                                                  #  NRMNVFLG      067             BIT  8 FLAG  4          NRMNVBIT
000159:                                                                                                  #  NRMIDFLG      062             BIT 13 FLAG  4          NRMIDBIT
000160:                                                                                                  #  NRUPTFLG      071             BIT  4 FLAG  4          NRUPTBIT
000161:                                                                                                  #  NTARGFLG      102             BIT  3 FLAG  6          NTARGBIT
000162:                                                                                                  #  NWAITFLG      065             BIT 10 FLAG  4          NWAITBIT
000163:                                                                                                  #  OLDESFLG      014             BIT  1 FLAG  0          OLDESBIT
000164:                                                                                                  #  OPTNSW        038             BIT  7 FLAG  2          OPTNBIT         EQUIVALENT FLAG NAME: ETPIFLAG
000165:                                                                                                  #  ORBWFLAG      054             BIT  6 FLAG  3          ORBWFBIT
000166:                                                                                                  #  ORDERSW       129             BIT  6 FLAG  8          ORDERBIT
000167:                                                                                                  #  OURRCFLG      198             BIT 12 FLAG 13          OURRCBIT
000168:                                                                                                  #  PDSPFLAG      063             BIT 12 FLAG  4          PDSPFBIT
000169:                                                                                                  #  PFRATFLG      041             BIT  4 FLAG  2          PFRATBIT
000170:                                                                                                  #  PINBRFLG      069             BIT  6 FLAG  4          PINBRBIT
000171:                                                                                                  #  PRECIFLG      052             BIT  8 FLAG  3          PRECIBIT
000172:                                                                                                  #  PRIODFLG      061             BIT 14 FLAG  1          PRIODBIT
000173:                                                                                                  #  PRONVFLG      068             BIT  7 FLAG  4          PRONVBIT
000174:                                                                                                  #  PSTHIGAT      169             BIT 11 FLAG 11          PSTHIBIT
000175:                                                                                                  #  PULSEFLG      195             BIT 15 FLAG 13          PULSES
000176:                                                                                                  #  P21FLAG       004             BIT 11 FLAG  0          P21FLBIT
000177:                                                                                                  #  P25FLAG       006             BIT  9 FLAG  0          P25FLBIT
000178:                                                                                                  #  P39/79SW      126             BIT  9 FLAG  8          P39SWBIT
000179:                                                                                                  #  QUITFLAG      145             BIT 5 FLAG 9            QUITBIT
000180:                                                                                                  #  RADMODES                      FLGWRD12
000181:                                                                                                  #  RASFLAG                       FLGWRD10
000182:                                                                                                  #  RCDUFAIL      188             BIT  7 FLAG 12          RCDUFBIT
000183:                                                                                                  #  RCDU0FLG      182             BIT 13 FLAG 12          RCDU0BIT
000184:                                                                                                  #  READLR        174             BIT  6 FLAG 11          READLBIT


000186:                                                                                                  #  READRFLG      051             BIT  9 FLAG  3          READRBIT        EQUIVALENT FLAG NAME:  R04FLAG
000187:                                                                                                  #  READVEL       175             BIT  5 FLAG 11          READVBIT
000188:                                                                                                  #  REDFLAG       099             BIT  6 FLAG  6          REDFLBIT
000189:                                                                                                  #  REFSMFLG      047             BIT 13 FLAG  3          REFSMBIT
000190:                                                                                                  #  REINTFLG      158             BIT  7 FLAG 10          REINTBIT
000191:                                                                                                  #  REMODFLG      181             BIT 14 FLAG 12          REMODBIT
000192:                                                                                                  #  RENDWFLG      089             BIT  1 FLAG  5          RENDWBIT
000193:                                                                                                  #  REPOSMON      184             BIT 11 FLAG 12          REPOSBIT
000194:                                                                                                  #  RHCSCFLG      203             BIT  7 FLAG 13          RHCSCALE
000195:                                                                                                  #  RNDVZFLG      008             BIT  7 FLAG  0          RNDVZBIT
000196:                                                                                                  #  RNGEDATA      176             BIT  4 FLAG 11          RNGEDBIT
000197:                                                                                                  #  RNGSCFLG      080             BIT 10 FLAG  5          RNGSCBIT
000198:                                                                                                  #  RODFLAG       018             BIT 12 FLAG  1          RODFLBIT
000199:                                                                                                  #  ROTFLAG       144             BIT  6 FLAG  9          ROTFLBIT
000200:                                                                                                  #  RPQFLAG       120             BIT 15 FLAG  8          RPQFLBIT
000201:                                                                                                  #  RRDATAFL      191             BIT  4 FLAG 12          RRDATABT
000202:                                                                                                  #  RRNBSW        009             BIT  6 FLAG  0          RRNBBIT
000203:                                                                                                  #  RRRSFLAG      192             BIT  3 FLAG 12          RRRSBIT
000204:                                                                                                  #  RVSW          111             BIT  9 FLAG  7          RVSWBIT
000205:                                                                                                  #  R04FLAG       051             BIT  9 FLAG  3          R04FLBIT        EQUIVALENT FLAG NAME:  READRFLG
000206:                                                                                                  #  R10FLAG       013             BIT  2 FLAG  0          R10FLBIT
000207:                                                                                                  #  R61FLAG       020             BIT 10 FLAG  1          R61FLBIT
000208:                                                                                                  #  R77FLAG       079             BIT 11 FLAG  5          R77FLBIT
000209:                                                                                                  #  SCALBAD       177             BIT  3 FLAG 11          SCABBIT
000210:                                                                                                  #  SLOPESW       027             BIT  3 FLAG  1          SLOPEBIT
000211:                                                                                                  #  SNUFFER       077             BIT 13 FLAG  5          SNUFFBIT
000212:                                                                                                  #  SOLNSW        087             BIT  3 FLAG  5          SOLNSBIT
000213:                                                                                                  #  SRCHOPTN      031             BIT 14 FLAG  2          SRCHOBIT
000214:                                                                                                  #  STATEFLG      055             BIT  5 FLAG  3          STATEBIT
000215:                                                                                                  #  STEERSW       034             BIT 11 FLAG  2          STEERBIT
000216:                                                                                                  #  SURFFLAG      127             BIT  8 FLAG  8          SURFFBIT
000217:                                                                                                  #  SWANDISP      109             BIT 11 FLAG  7          SWANDBIT
000218:                                                                                                  #  S32.1F1       090             BIT 15 FLAG  6          S32BIT1
000219:                                                                                                  #  S32.1F2       092             BIT 14 FLAG  6          S32BIT2
000220:                                                                                                  #  S32.1F3A      092             BIT 13 FLAG  6          S32BIT3A
000221:                                                                                                  #  S32.1S3B      093             BIT 12 FLAG  6          S32BIT3B
000222:                                                                                                  #  TFFSW         119             BIT  1 FLAG  7          TFFSWBIT
000223:                                                                                                  #  TRACKFLG      025             BIT  5 FLAG  1          TRACKBIT
000224:                                                                                                  #  TURNONFL      194             BIT  1 FLAG 12          TURNONBT
000225:                                                                                                  #  ULLAGFLG      204             BIT  6 FLAG 13          ULLAGER
000226:                                                                                                  #  UPDATFLG      023             BIT  7 FLAG  1          UPDATBIT
000227:                                                                                                  #  UPLOCKFL      116             BIT  4 FLAG 7           UPLOCBIT
000228:                                                                                                  #  USEQRFLG      196             BIT 14 FLAG 13          USEQRJTS
000229:                                                                                                  #  VEHUPFLG      022             BIT  8 FLAG  1          VEHUPBIT
000230:                                                                                                  #  VELDATA       173             BIT  7 FLAG 11          VELDABIT
000231:                                                                                                  #  VERIFLAG      117             BIT  3 FLAG  7          VERIFBIT
000232:                                                                                                  #  VFLAG         050             BIT 10 FLAG  3          VFLAGBIT
000233:                                                                                                  #  VFLSHFLG      178             BIT  2 FLAG 11          VFLSHBIT
000234:                                                                                                  #  VINTFLAG      057             BIT  3 FLAG  3          VINTFBIT
000235:                                                                                                  #  VXINH         168             BIT 12 FLAG 11          VXINHBIT


000237:                                                                                                  #  V37FLAG       114             BIT  6 FLAG  7          V37FLBIT
000238:                                                                                                  #  V67FLAG       112             BIT  8 FLAG  7          V67FLBIT
000239:                                                                                                  #  V82EMFLG      118             BIT  2 FLAG  7          V82EMBIT
000240:                                                                                                  #  XDELVFLG      037             BIT  8 FLAG  2          XDELVBIT
000241:                                                                                                  #  XDSPFLAG      074             BIT  1 FLAG  4          XDSPBIT
000242:                                                                                                  #  XORFLG        171             BIT  9 FLAG 11          XORFLBIT
000243:                                                                                                  #  XOVINFLG      201             BIT  9 FLAG 13          XOVINHIB
000244:                                                                                                  #  3AXISFLG      084             BIT  6 FLAG  5          3AXISBIT
000245:                                                                                                  #  360SW         134             BIT  1 FLAG  8          360SWBIT
000246:
000247:                                                                                                  #  ASSIGNMENT AND DESCRIPTION OF FLAGWORDS
000248:
000249: 26,2022     0074               FLAGWRD0           =        STATE      +0                         #  (000-014)
000250:
000251:                                                                                                  #        (SET)                   (RESET)
000252:
000253:                                                                                                  #  BIT 15 FLAG 0 (S)
000254:                                                                                                  #                =       000D
000255:                                                                                                  #                =       BIT15
000256:
000257:                                                                                                  #  BIT 14 FLAG 0 (S)
000258: 26,2022                        JSWITCH            =        001D                                  #        INTEGRATION OF W        INTEGRATION OF STATE
000259: 26,2022     4736               JSWCHBIT           =        BIT14                                 #        MATRIX                  VECTOR
000260:
000261:                                                                                                  #  BIT 13 FLAG 0 (S)
000262: 26,2022                        MIDFLAG            =        002D                                  #        INTEGRATION WITH        INTEGRATION WITHOUT
000263:                                                                                                  #        SECONDARY BODY AND      SOLAR PERTURBATIONS
000264: 26,2022     4737               MIDFLBIT           =        BIT13                                 #        SOLAR PERTURBATIONS
000265:
000266:                                                                                                  #  BIT 12 FLAG 0 (L)
000267: 26,2022                        MOONFLAG           =        003D                                  #        MOON IS SPHERE OF       EARTH IS SPHERE OF
000268: 26,2022     4740               MOONBIT            =        BIT12                                 #        INFLUENCE               INFLUENCE
000269:
000270:                                                                                                  #  BIT 11 FLAG 0
000271: 26,2022                        P21FLAG            =        004D                                  #        USE BASE VECTORS        1ST PASS -- CALC-
000272: 26,2022     4741               P21FLBIT           =        BIT11                                 #        ALREADY CALCULATED      ULATE BASE VECTORS
000273:
000274:                                                                                                  #  BIT 10 FLAG 0
000275: 26,2022                        FSPASFLG           =        005D                                  #        FIRST PASS THROUGH      NOT FIRST PASS THRU
000276: 26,2022     4742               FSPASBIT           =        BIT10                                 #        REPOSITION ROUTINE      REPOSITION ROUTINE
000277:


000279:                                                                                                  #  BIT 9 FLAG 0  (S)
000280: 26,2022                        P25FLAG            =        006D                                  #        P25 OPERATING           P25 NOT OPERATING
000281: 26,2022     4743               P25FLBIT           =        BIT9
000282:
000283:                                                                                                  #  BIT 8 FLAG 0  (S)
000284: 26,2022                        IMUSE              =        007D                                  #        IMU IN USE              IMU NOT IN USE
000285: 26,2022     4744               IMUSEBIT           =        BIT8
000286:
000287:                                                                                                  #  BIT 7 FLAG 0  (S)
000288: 26,2022                        RNDVZFLG           =        008D                                  #        P20 RUNNING (RADAR      P20 NOT RUNNING
000289: 26,2022     4745               RNDVZBIT           =        BIT7                                  #        IN USE)
000290:
000291:                                                                                                  #  BIT 6 FLAG 0  (S)
000292: 26,2022                        RRNBSW             =        009D                                  #        RADAR TARGET IN         RADAR TARGET IN
000293: 26,2022     4746               RRNBBIT            =        BIT6                                  #        NB COORDINATES          SM COORDINATES
000294:
000295:                                                                                                  #  BIT 5 FLAG 0  (S)
000296: 26,2022                        LOKONSW            =        010D                                  #        RADAR LOCK-ON           RADAR LOCK-ON NOT
000297: 26,2022     4747               LOKONBIT           =        BIT5                                  #        DESIRED                 DESIRED
000298:
000299:                                                                                                  #  BIT 4 FLAG 0  (S)
000300: 26,2022                        NEEDLFLG           =        011D                                  #        TOTAL ATTITUDE          A/P FOLLOWING
000301: 26,2022     4750               NEEDLBIT           =        BIT4                                  #        ERROR DISPLAYED         ERROR DISPLAYED
000302:
000303:                                                                                                  #  BIT 3 FLAG 0
000304: 26,2022                        FREEFLAG           =        012D                                  #  (USED BY P51-53 TEMP IN MANY DIFFERENT
000305:                                                                                                  #  ROUTINES & BY LUNAR + SOLAR EPHEMERIDES)
000306: 26,2022     4751               FREEFBIT           =        BIT3
000307:
000308:                                                                                                  #  BIT 2 FLAG 0
000309: 26,2022                        R10FLAG            =        013D                                  #        R10 OUTPUTS DATA TO     BESIDES OUTPUT WHEN
000310: 26,2022     4752               R10FLBIT           =        BIT2                                  #        ALTITUDE & ALTITUDE     SET, R10 ALSO OUTPUT
000311:                                                                                                  #        RATE METERS ONLY        TO FORWARD & LATERAL
000312:                                                                                                  #                                VELOCITY CROSSPOINTR
000313:
000314:                                                                                                  #  BIT 1 FLAG 0  (L)
000315: 26,2022                        OLDESFLG           =        014D                                  #        R29 GYRO CMD LOOP       R29 GYRO CMD LOOP
000316: 26,2022     4753               OLDESBIT           =        BIT1                                  #        REQUESTED               NOT REQUESTED
000317:
000318:
000319: 26,2022     0075               FLAGWRD1           =        STATE      +1                         #  (015-029)
000320:


000322:                                                                                                  #        (SET)                   (RESET)
000323:
000324:                                                                                                  #  BIT 15 FLAG 1 (S)
000325: 26,2022                        NJETSFLG           =        015D                                  #        TWO JET RCS BURN        FOUR JET RCS BURN
000326: 26,2022     4735               NJETSBIT           =        BIT15
000327:
000328:                                                                                                  #  BIT 14 FLAG 1 (L)
000329: 26,2022                        DIDFLAG            =        016D                                  #        INERTIAL DATA IS        PERFORM DATA DISPLAY
000330: 26,2022     4736               DIDFLBIT           =        BIT14                                 #        AVAILABLE               INITIALIZATION FUNCS
000331:
000332:                                                                                                  #  BIT 13 FLAG 1 (S)
000333: 26,2022                        ERADFLAG           =        017D                                  #        COMPUTE REARTH          USE CONSTANT REARTH
000334: 26,2022     4737               ERADFBIT           =        BIT13                                 #        FISCHER ELLIPSOID       PAD RADIUS
000335:
000336:                                                                                                  #  BIT 12 FLAG 1
000337: 26,2022                        RODFLAG            =        018D                                  #        IF IN P66, NORMAL       IF IN P66, RE-INIT-
000338: 26,2022     4740               RODFLBIT           =        BIT12                                 #        OPERATION CONTINUES.    IALIZATION IS PER-
000339:                                                                                                  #        RESTART CLEARS FLAG     FORMED AND FLAG IS
000340:
000341:                                                                                                  #  BIT 11 FLAG 1
000342:                                                                                                  #                =       019D
000343:                                                                                                  #                =       BIT11
000344:
000345:                                                                                                  #  BIT 10 FLAG 1 (L)
000346: 26,2022                        R61FLAG            =        020D                                  #        RUN R61 LEM             RUN R65 LEM
000347: 26,2022     4742               R61FLBIT           =        BIT10
000348:
000349:                                                                                                  #  BIT 9 FLAG 1
000350:                                                                                                  #                =       021D
000351:                                                                                                  #                =       BIT9
000352:
000353:                                                                                                  #  BIT 8 FLAG 1  (S)
000354: 26,2022                        VEHUPFLG           =        022D                                  #        CSM STATE VECTOR        LEM STATE VECTOR
000355: 26,2022     4744               VEHUPBIT           =        BIT8                                  #        BEING UPDATED           BEING UPDATED
000356:
000357:                                                                                                  #  BIT 7 FLAG 1  (S)
000358: 26,2022                        UPDATFLG           =        023D                                  #        UPDATING BY MARKS       UPDATING BY MARKS
000359: 26,2022     4745               UPDATBIT           =        BIT7                                  #        ALLOWED                 NOT ALLOWED
000360:
000361:                                                                                                  #  BIT 6 FLAG 1  (S)
000362: 26,2022                        NOUPFLAG           =        024D                                  #        NEITHER CSM             EITHER STATE
000363:                                                                                                  #        NOR LM STATE VECTOR     VECTOR MAY BE
000364: 26,2022     4746               NOUPFBIT           =        BIT6                                  #        MAY BE UPDATED          UPDATED
000365:


000367:                                                                                                  #  BIT 5 FLAG 1  (S)
000368: 26,2022                        TRACKFLG           =        025D                                  #        TRACKING ALLOWED        TRACKING NOT ALLOWED
000369: 26,2022     4747               TRACKBIT           =        BIT5
000370:
000371:                                                                                                  #  BIT 4 FLAG 1
000372:                                                                                                  #                =       026D
000373:                                                                                                  #                =       BIT4
000374:
000375:                                                                                                  #  BIT 3 FLAG 1  (S)
000376: 26,2022                        SLOPESW            =        027D                                  #        ITERATE WITH BIAS       ITERATE WITH REGULAR
000377:                                                                                                  #        METHOD IN ITERATOR      FALSI METHOD IN
000378: 26,2022     4751               SLOPEBIT           =        BIT3                                  #                                ITERATOR
000379:
000380:                                                                                                  #  BIT 2 FLAG 1  (S)
000381: 26,2022                        GUESSW             =        028D                                  #        NO STARTING VALUE       STARTING VALUE FOR
000382: 26,2022     4752               GUESSBIT           =        BIT2                                  #        FOR ITERATION           ITERATION EXISTS
000383:
000384:                                                                                                  #  BIT 1 FLAG 1
000385:                                                                                                  #                =       029D
000386:
000387: 26,2022     0076               FLAGWRD2           =        STATE      +2                         #  (030-044)
000388:
000389:                                                                                                  #        (SET)                   (RESET)
000390:
000391:                                                                                                  #  BIT 15 FLAG 2 (S)
000392: 26,2022                        DRIFTFLG           =        030D                                  #        T3RUPT CALLS GYRO       T3RUPT DOES NO GYRO
000393: 26,2022     4735               DRFTBIT            =        BIT15                                 #        COMPENSATION            COMPENSATION
000394:
000395:                                                                                                  #  BIT 14 FLAG 2 (S)
000396: 26,2022                        SRCHOPTN           =        031D                                  #        RADAR IN AUTOMATIC      RADAR NOT IN AUTO-
000397: 26,2022     4736               SRCHOBIT           =        BIT14                                 #        SEARCH OPTION (R24)     MATIC SEARCH OPTION
000398:
000399:                                                                                                  #  BIT 13 FLAG 2 (S)
000400: 26,2022                        ACMODFLG           =        032D                                  #        MANUAL ACQUISITION      AUTO ACQUISITION
000401: 26,2022     4737               ACMODBIT           =        BIT13                                 #        BY RENDESVOUS RADAR     BY RENDESVOUS RADAR
000402:
000403:                                                                                                  #  BIT 12 FLAG 2 (S)
000404: 26,2022                        LOSCMFLG           =        033D                                  #        LINE OF SIGHT BEING     LINE OF SIGHT NOT
000405:                                                                                                  #        COMPUTED (R21)          BEING COMPUTED
000406: 26,2022     4740               LOSCMBIT           =        BIT12
000407:


000409:                                                                                                  #        IN R29 (L): RR GYRO     IN R29 (L): RR GYRO
000410:                                                                                                  #        CMD LOOP RUNNING        CMD LOOP OFF
000411:
000412:                                                                                                  #  BIT 11 FLAG 2 (S)
000413: 26,2022                        STEERSW            =        034D                                  #        SUFFICIENT THRUST       INSUFFICIENT THRUST
000414: 26,2022     4741               STEERBIT           =        BIT11                                 #        IS PRESENT              IS PRESENT
000415:
000416:                                                                                                  #  BIT 10 FLAG 2 (S)
000417:
000418:                                                                                                  #  BIT 9 FLAG 2 (S)
000419: 26,2022                        IMPULSW            =        036D                                  #        MINIMUM IMPULSE         STEERING BURN (NO
000420:                                                                                                  #        BURN (CUTOFF TIME       CUTOFF TIME YET
000421: 26,2022     4743               IMPULBIT           =        BIT9                                  #        SPECIFIED)              AVAILABLE)
000422:
000423:                                                                                                  #  BIT 8 FLAG 2 (S)
000424: 26,2022                        XDELVFLG           =        037D                                  #        EXTERNAL DELTAV VG      LAMBERT (AIMPOINT)
000425: 26,2022     4744               XDELVBIT           =        BIT8                                  #        COMPUTATION             VG COMPUTATION
000426:
000427:                                                                                                  #  BIT 7 FLAG 2 (S)
000428: 26,2022                        ETPIFLAG           =        038D                                  #        ELEVATION ANGLE         TPI TIME SUPPLIED
000429:                                                                                                  #        SUPPLIED FOR            FOR P34,74 TO COMPUT
000430: 26,2022     4745               ETPIBIT            =        BIT7                                  #        P34,74                  ELEVATION
000431:
000432:                                                                                                  #  BIT 7 FLAG 2 (L)
000433: 26,2022  0000046               OPTNSW             =        ETPIFLAG                              #        SOI PHASE OF P38/78     SOR PHASE OF P38/78
000434: 26,2022     4745               OPTNBIT            =        BIT7
000435:
000436:                                                                                                  #  BIT 6 FLAG 2 (S)
000437: 26,2022                        FINALFLG           =        039D                                  #        LAST PASS THROUGH       INTERIM PASS THROUGH
000438:                                                                                                  #        RENDEZVOUS PROGRAM      RENDEZVOUS PROGRAM
000439: 26,2022     4746               FINALBIT           =        BIT6                                  #        COMPUTATIONS            COMPUTATIONS
000440:
000441:                                                                                                  #  BIT 5 FLAG 2 (S)
000442: 26,2022                        AVFLAG             =        040D                                  #        LEM IS ACTIVE           CSM IS ACTIVE
000443: 26,2022     4747               AVFLBIT            =        BIT5                                  #        VEHICLE                 VEHICLE
000444:
000445:                                                                                                  #  BIT 4 FLAG 2 (S)
000446: 26,2022                        PFRATFLG           =        041D                                  #        PREFERRED ATTITUDE      PREFERRED ATTITUDE
000447: 26,2022     4750               PFRATBIT           =        BIT4                                  #        COMPUTED                NOT COMPUTED
000448:
000449:                                                                                                  #  BIT 3 FLAG 2 (S)
000450:


000452: 26,2022                        CALCMAN3           =        042D                                  #        NO FINAL ROLL           FINAL ROLL IS
000453: 26,2022     4751               CALC3BIT           =        BIT3                                  #                                NECESSARY
000454:
000455:                                                                                                  #  BIT 2 FLAG 2 (S)
000456: 26,2022                        CALCMAN2           =        043D                                  #        PERFORM MANEUVER        BYPASS STARTING
000457: 26,2022     4752               CALC2BIT           =        BIT2                                  #        STARTING PROCEDURE      PROCEDURE
000458:
000459:                                                                                                  #  BIT 1 FLAG 2 (S)
000460: 26,2022                        NODOFLAG           =        044D                                  #        V37 NOT PERMITTED       V37 PERMITTED
000461: 26,2022     4753               NODOBIT            =        BIT1
000462:
000463: 26,2022     0077               FLAGWRD3           =        STATE      +3                         #  (045-059)
000464:
000465:                                                                                                  #        (SET)                   (RESET)
000466:
000467:                                                                                                  #  BIT 15 FLAG 3
000468:                                                                                                  #                =       045D
000469:
000470:                                                                                                  #  BIT 14 FLAG 3 (S)
000471: 26,2022                        GLOKFAIL           =        046D                                  #        GIMBAL LOCK HAS         NOT IN GIMBAL LOCK
000472: 26,2022     4736               GLOKFBIT           =        BIT14                                 #        OCCURRED
000473:
000474:                                                                                                  #  BIT 13 FLAG 3 *** PROTECTED FROM FRESH START ***
000475: 26,2022                        REFSMFLG           =        047D                                  #        REFSMMAT GOOD           REFSMMAT NO GOOD
000476: 26,2022     4737               REFSMBIT           =        BIT13
000477:
000478:                                                                                                  #  BIT 12 FLAG 3 (S)
000479: 26,2022                        LUNAFLAG           =        048D                                  #        LUNAR LAT-LONG          EARTH LAT-LONG
000480: 26,2022     4740               LUNABIT            =        BIT12
000481:
000482:                                                                                                  #  BIT 11 FLAG 3 (L)
000483: 26,2022                        NOR29FLG           =        049D                                  #        R29 NOT ALLOWED         R29 ALOWED (RR DES-
000484: 26,2022     4741               NR29FBIT           =        BIT11                                 #                                IGNATE, POWERED FLT)
000485:
000486:                                                                                                  #  BIT 10 FLAG 3 (S)
000487: 26,2022                        VFLAG              =        050D                                  #        LESS THAN TWO STARS     TWO STARS IN FIELD
000488: 26,2022     4742               VFLAGBIT           =        BIT10                                 #        IN FIELD OF VIEW        OF VIEW
000489:
000490:                                                                                                  #  BIT 9 FLAG 3  (S)
000491: 26,2022                        R04FLAG            =        051D                                  #        ALARM 521               ALARM 521 ALLOWED
000492:                                                                                                  #        SUPPRESSED


000494: 26,2022     4743               R04FLBIT           =        BIT9
000495:
000496:                                                                                                  #  BIT 9 FLAG 3  (L)
000497: 26,2022  0000063               READRFLG           =        R04FLAG                               #        READING RR DATA         NOT READING RR DATA
000498: 26,2022     4743               READRBIT           =        BIT9                                  #        PURSUANT TO R29         PURSUANT TO R29
000499:
000500:                                                                                                  #  BIT 8 FLAG 3  (S)
000501: 26,2022                        PRECIFLG           =        052D                                  #        NORMAL INTEGRATION      ENGAGES 4-TIME STEP
000502:                                                                                                  #        IN POO                  (POO) LOGIC IN INTE-
000503: 26,2022     4744               PRECIBIT           =        BIT8                                  #                                GRATION
000504:
000505:                                                                                                  #  BIT 7 FLAG 3  (S)
000506: 26,2022                        CULTFLAG           =        053D                                  #        STAR OCCULTED           STAR NOT OCCULTED
000507: 26,2022     4745               CULTBIT            =        BIT7
000508:
000509:                                                                                                  #  BIT 6 FLAG 3  (S)
000510: 26,2022                        ORBWFLAG           =        054D                                  #        W MATRIX VALID FOR      W MATRIX INVALID FOR
000511: 26,2022     4746               ORBWFBIT           =        BIT6                                  #        ORBITAL NAVIGATION      ORBITAL NAVIGATION
000512:
000513:                                                                                                  #  BIT 5 FLAG 3  (S)
000514: 26,2022                        STATEFLG           =        055D                                  #        PERMANENT STATE         PERMANENT STATE
000515: 26,2022     4747               STATEBIT           =        BIT5                                  #        VECTOR UPDATED          VECTOR NOT UPDATED
000516:
000517:                                                                                                  #  BIT 4 FLAG 3  (S)
000518: 26,2022                        INTYPFLG           =        056D                                  #        CONIC INTEGRATION       ENCKE INTEGRATION
000519: 26,2022     4750               INTYPBIT           =        BIT4
000520:
000521:                                                                                                  #  BIT 3 FLAG 3  (S)
000522: 26,2022                        VINTFLAG           =        057D                                  #        CSM STATE VECTOR        LEM STATE VECTOR
000523: 26,2022     4751               VINTFBIT           =        BIT3                                  #        BEING INTEGRATED        BEING INTEGRATED
000524:
000525:                                                                                                  #  BIT 2 FLAG 3 (S)
000526: 26,2022                        D6OR9FLG           =        058D                                  #        DIMENSION OF W IS 9     DIMENSION OF W IS 6
000527: 26,2022     4752               D6OR9BIT           =        BIT2                                  #        FOR INTEGRATION         FOR INTEGRATION
000528:
000529:                                                                                                  #  BIT 1 FLAG 3  (S)
000530: 26,2022                        DIM0FLAG           =        059D                                  #        W MATRIX IS TO BE       W MATRIX IS NOT TO
000531: 26,2022     4753               DIM0BIT            =        BIT1                                  #        USED                    BE USED
000532:
000533: 26,2022     0100               FLAGWRD4           =        STATE      +4                         #  (060-074)
000534:


000536:                                                                                                  #        (SET)                   (RESET)
000537:
000538:                                                                                                  #  BIT 15 FLAG 4 (S)
000539: 26,2022                        MRKIDFLG           =        060D                                  #        MARK DISPLAY IN         NO MARK DISPLAY IN
000540: 26,2022     4735               MRKIDBIT           =        BIT15                                 #        ENDIDLE                 ENDIDLE
000541:
000542:                                                                                                  #  BIT 14 FLAG 4 (S)
000543: 26,2022                        PRIODFLG           =        061D                                  #        PRIORITY DISPLAY IN     NO PRIORITY DISPLAY
000544: 26,2022     4736               PRIODBIT           =        BIT14                                 #        ENDIDLE                 IN ENDIDLE
000545:
000546:                                                                                                  #  BIT 13 FLAG 4 (S)
000547: 26,2022                        NRMIDFLG           =        062D                                  #        NORMAL DISPLAY IN       NO NORMAL DISPLAY
000548: 26,2022     4737               NRMIDBIT           =        BIT13                                 #        ENDIDLE                 IN ENDIDLE
000549:
000550:                                                                                                  #  BIT 12 FLAG 4 (S)
000551: 26,2022                        PDSPFLAG           =        063D                                  #        P20 SETS SO AS TO       LEAVE AS NORMAL DISP
000552:                                                                                                  #        TURN A NORMAL DIS-
000553: 26,2022     4740               PDSPFBIT           =        BIT12                                 #        PLAY INTO A PRIORITY
000554:                                                                                                  #        DISPLAY IN R60
000555:
000556:                                                                                                  #  BIT 11 FLAG 4 (S)
000557: 26,2022                        MWAITFLG           =        064D                                  #        HIGHER PRIORITY         NO HIGHER PRIORITY
000558:                                                                                                  #        DISPLAY OPERATING       DISPLAY OPERATING
000559: 26,2022     4741               MWAITBIT           =        BIT11                                 #        WHEN MARK DISPLAY       WHEN MARK DISPLAY
000560:                                                                                                  #        INITIATED               INITIATED
000561:
000562:                                                                                                  #  BIT 10 FLAG 4 (S)
000563: 26,2022                        NWAITFLG           =        065D                                  #        HIGHER PRIORITY         NO HIGHER PRIORITY
000564:                                                                                                  #        DISPLAY OPERATING       DISPLAY OPERATING
000565: 26,2022     4742               NWAITBIT           =        BIT10                                 #        WHEN NORMAL             WHEN NORMAL DISPLAY
000566:                                                                                                  #        DISPLAY INITIATED       INITIATED
000567:
000568:                                                                                                  #  BIT 9 FLAG 4  (S)
000569: 26,2022                        MRKNVFLG           =        066D                                  #        ASTRONAUT USING         ASTRONAUT NOT USING
000570:                                                                                                  #        KEYBOARD WHEN MARK      KEYBOARD WHEN MARK
000571: 26,2022     4743               MRKNVBIT           =        BIT9                                  #        DISPLAY INITIATED       DISPLAY INITIATED
000572:
000573:                                                                                                  #  BIT 8 FLAG 4  (S)
000574: 26,2022                        NRMNVFLG           =        067D                                  #        ASTRONAUT USING         ASTRONAUT NOT USING
000575:                                                                                                  #        KEYBOARD WHEN           KEYBOARD WHEN
000576: 26,2022     4744               NRMNVBIT           =        BIT8                                  #        NORMAL DISPLAY          NORMAL DISPLAY
000577:                                                                                                  #        INITIATED               INITIATED
000578:
000579:                                                                                                  #  BIT 7 FLAG 4  (S)
000580: 26,2022                        PRONVFLG           =        068D                                  #        ASTRONAUT USING         ASTRONAUT NOT USING
000581:


000583:                                                                                                  #        KEYBOARD WHEN           KEYBOARD WHEN
000584: 26,2022     4745               PRONVBIT           =        BIT7                                  #        PRIORITY DISPLAY        PRIORITY DISPLAY
000585:                                                                                                  #        INITIATED               INITIATED
000586:
000587:                                                                                                  #  BIT 6 FLAG 4  (S)
000588: 26,2022                        PINBRFLG           =        069D                                  #        ASTRONAUT HAS           ASTRONAUT HAS NOT
000589:                                                                                                  #        INTERFERED WITH         INTERFERED WITH
000590: 26,2022     4746               PINBRBIT           =        BIT6                                  #        EXISTING DISPLAY        EXISTING DISPLAY
000591:
000592:                                                                                                  #  BIT 5 FLAG 4  (S)
000593: 26,2022                        MRUPTFLG           =        070D                                  #        MARK DISPLAY            MARK DISPLAY NOT
000594:                                                                                                  #        INTERRUPTED BY          INTERRUPTED BY
000595: 26,2022     4747               MRUPTBIT           =        BIT5                                  #        PRIORITY DISPLAY        PRIORITY DISPLAY
000596:
000597:                                                                                                  #  BIT 4 FLAG 4  (S)
000598: 26,2022                        NRUPTFLG           =        071D                                  #        NORMAL DISPLAY          NORMAL DISPLAY NOT
000599:                                                                                                  #        INTERRUPTED BY          INTERRUPTED BY
000600: 26,2022     4750               NRUPTBIT           =        BIT4                                  #        PRIORITY OR MARK        PRIORITY OR MARK
000601:                                                                                                  #        DISPLAY                 DISPLAY
000602:
000603:                                                                                                  #  BIT 3 FLAG 4  (S)
000604: 26,2022                        MKOVFLAG           =        072D                                  #        MARK DISPLAY OVER       NO MARK DISPLAY OVER
000605: 26,2022     4751               MKOVBIT            =        BIT3                                  #        NORMAL                  NORMAL
000606:
000607:                                                                                                  #  BIT 2 FLAG 4
000608:                                                                                                  #                =       073D
000609:
000610:
000611:                                                                                                  #  BIT 1 FLAG 4  (S)
000612: 26,2022                        XDSPFLAG           =        074D                                  #        MARK DISPLAY NOT        NO SPECIAL MARK
000613: 26,2022     4753               XDSPBIT            =        BIT1                                  #        TO BE INTERRUPTED       INFORMATION
000614:
000615: 26,2022     0101               FLAGWRD5           =        STATE      +5                         #  (075-089)
000616:
000617:                                                                                                  #        (SET)                   (RESET)
000618:
000619:                                                                                                  #  BIT 15 FLAG 5 (S)
000620: 26,2022                        DSKYFLAG           =        075D                                  #        DISPLAYS SENT TO        NO DISPLAYS TO DSKY
000621: 26,2022     4735               DSKYFBIT           =        BIT15                                 #        DSKY
000622:
000623:                                                                                                  #  BIT 14 FLAG 5
000624:                                                                                                  #                =       076D
000625:                                                                                                  #                =       BIT14
000626:


000628:                                                                                                  #  BIT 13 FLAG 5 (S,L)
000629: 26,2022                        SNUFFER            =        077D                                  #        U,V JETS DISABLED       U,V JETS ENABLED
000630:                                                                                                  #        DURING DPS              DURING DPS
000631: 26,2022     4737               SNUFFBIT           =        BIT13                                 #        BURNS (V65)             BURNS (V75)
000632:
000633:                                                                                                  #  BIT 12 FLAG 5 (S)
000634: 26,2022                        NOTHROTL           =        078D                                  #        INHIBIT FULL            PERMIT FULL THROTTLE
000635: 26,2022     4740               NOTHRBIT           =        BIT12                                 #        THROTTLE
000636:
000637:                                                                                                  #  BIT 11 FLAG 5 (S,L)
000638: 26,2022                        R77FLAG            =        079D                                  #        R77 IS ON,              R77 IS NOT ON.
000639:                                                                                                  #        SUPPRESS ALL RADAR
000640:                                                                                                  #        ALARMS AND TRACKER
000641: 26,2022     4741               R77FLBIT           =        BIT11                                 #        FAILS
000642:
000643:                                                                                                  #  BIT 10 FLAG 5 (S)
000644: 26,2022                        RNGSCFLG           =        080D                                  #        SCALE CHANGE HAS        NO SCALE CHANGE HAS
000645:                                                                                                  #        OCCURRED DURING         OCCURRED DURING
000646: 26,2022     4742               RNGSCBIT           =        BIT10                                 #        RR READING              RR READING
000647:
000648:                                                                                                  #  BIT 9 FLAG 5  (S)
000649: 26,2022                        DMENFLG            =        081D                                  #        DIMENSION OF W IS 9     DIMENSION OF W IS 6
000650: 26,2022     4743               DMENFBIT           =        BIT9                                  #        FOR INCORPORATION       FOR INCORPORATION
000651:
000652:                                                                                                  #  BIT 8 FLAG 5  (S)
000653:                                                                                                  #                =       082D
000654:                                                                                                  #                =       BIT8
000655:
000656:                                                                                                  #  BIT 7 FLAG 5  (S)
000657: 26,2022                        ENGONFLG           =        083D                                  #        ENGINE TURNED ON        ENGINE TURNED OFF
000658: 26,2022     4745               ENGONBIT           =        BIT7                                  #
000659:
000660:                                                                                                  #  BIT 6 FLAG 5  (S)
000661: 26,2022                        3AXISFLG           =        084D                                  #        MANEUVER SPECIFIED      MANEUVER SPECIFIED
000662:                                                                                                  #        BY THREE AXES           BY ONE AXIS; R60
000663: 26,2022     4746               3AXISBIT           =        BIT6                                  #                                CALLS VECPOINT.
000664:
000665:                                                                                                  #  BIT 5 FLAG 5
000666:                                                                                                  #                =       085D
000667:
000668:                                                                                                  #  BIT 4 FLAG 5  (S)
000669:


000671: 26,2022                        NORRMON            =        086D                                  #        BYPASS RR GIMBAL        PERFORM
000672: 26,2022     4750               NORRMBIT           =        BIT4                                  #        MONITOR                 RR GIMBAL MONITOR
000673:
000674:                                                                                                  #  BIT 3 FLAG 5  (S)
000675: 26,2022                        SOLNSW             =        087D                                  #        LAMBERT DOES NOT        LAMBERT CONVERGES OR
000676:                                                                                                  #        CONVERGE, OR TIME-RAD   TIME-RADIUS NON
000677: 26,2022     4751               SOLNSBIT           =        BIT3                                  #        NEARLY CIRCULAR         CIRCULAR
000678:
000679:                                                                                                  #  BIT 2 FLAG 5  (S)
000680: 26,2022                        MGLVFLAG           =        088D                                  #        LOCAL VERTICAL          MIDDLE GIMBAL ANGLE
000681:                                                                                                  #        COORDINATES             COMPUTED
000682: 26,2022     4752               MGLVFBIT           =        BIT2                                  #        COMPUTED
000683:
000684:                                                                                                  #  BIT 1 FLAG 5  (S)
000685: 26,2022                        RENDWFLG           =        089D                                  #        W MATRIX VALID          W MATRIX INVALID
000686:                                                                                                  #        FOR RENDEZVOUS          FOR RENDEZVOUS
000687: 26,2022     4753               RENDWBIT           =        BIT1                                  #        NAVIGATION              NAVIGATION
000688:
000689:
000690: 26,2022     0102               FLAGWRD6           =        STATE      +6                         #  (090-104)
000691:
000692:                                                                                                  #        (SET)                   (RESET)
000693:
000694:                                                                                                  #  BIT 15 FLAG 6 (S)
000695: 26,2022                        S32.1F1            =        090D                                  #        DELTA V AT CSI TIME     DVT1 LESS THEN MAX
000696: 26,2022     4735               S32BIT1            =        BIT15                                 #        ONE EXCEEDS MAX
000697:
000698:                                                                                                  #  BIT 14 FLAG 6 (S)
000699: 26,2022                        S32.1F2            =        091D                                  #        FIRST PASS OF           REITERATION OF
000700: 26,2022     4736               S32BIT2            =        BIT14                                 #        NEWTON ITERATION        NEWTON
000701:
000702:                                                                                                  #  BIT 13 FLAG 6 (S)
000703: 26,2022                        S32.1F3A           =        092D                                  #  BIT 13 AND BIT 12 FUNCTION AS AN ORDERED
000704: 26,2022     4737               S32BIT3A           =        BIT13                                 #  PAIR (13,12) INDICATING THE POSSIBLE OC-
000705:                                                                                                  #  CURRANCE OF 2NEWTON ITERATIONS FOR S32.1
000706:                                                                                                  #  IN THE PROGRAM IN THE FOLLOWING ORDER:
000707:                                                                                                  #  BIT 12 FLAG 6                                   (0,1) (I.E. BIT 13 RESET, BIT 12 SET)
000708: 26,2022                        S32.1F3B           =        093D                                  #       = FIRST NEWTON ITERATION BEING DONE
000709: 26,2022     4740               S32BIT3B           =        BIT12                                 #  (0,0)= FIRST PASS OF SECOND NEWT.ITERAT.
000710:                                                                                                  #  (1,1)= 50 FT/SEC STAGE OF SEC. NEWT.ITER
000711:                                                                                                  #  (1,0)= REMAINDER OF SECOND NEWTON ITERA.
000712:                                                                                                  #  BIT 11 FLAG 6 (S)
000713:


000715:                                                                                                  #  BIT 10 FLAG 6 (S)
000716: 26,2022                        GMBDRVSW           =        095D                                  #        TRIMGIMB OVER           TRIMGIMB NOT OVER
000717: 26,2022     4742               GMBDRBIT           =        BIT10                                 #
000718:
000719:                                                                                                  #  BIT 9 FLAG 6
000720:                                                                                                  #                =       096D
000721:                                                                                                  #                =       BIT9
000722:
000723:                                                                                                  #  BIT 8 FLAG 6  (S)
000724: 26,2022                        MUNFLAG            =        097D                                  #        SERVICER CALLS          SERVICER CALLS
000725: 26,2022     4744               MUNFLBIT           =        BIT8                                  #        MUNRVG                  CALCRVG
000726:
000727:                                                                                                  #  BIT 7 FLAG 6  (L)
000728:
000729:
000730:                                                                                                  #  BIT 6 FLAG 6  (L)
000731: 26,2022                        REDFLAG            =        099D                                  #        LANDING SITE            LANDING SITE
000732:                                                                                                  #        REDESIGNATION           REDESIGNATION NOT
000733: 26,2022     4746               REDFLBIT           =        BIT6                                  #        PERMITTED               PERMITTED
000734:
000735:                                                                                                  #  BIT 5 FLAG 6
000736:                                                                                                  #                =       100D
000737:
000738:                                                                                                  #  BIT 4 FLAG 6
000739:                                                                                                  #                =       101D
000740:
000741:                                                                                                  #  BIT 3 FLAG 6  (S)
000742: 26,2022                        NTARGFLG           =        102D                                  #        ASTRONAUT DID           ASTRONAUT DID NOT
000743:                                                                                                  #        OVERWRITE DELTA         OVERWRITE DELTA
000744: 26,2022     4751               NTARGBIT           =        BIT3                                  #        VELOCITY AT TPI         VELOCITY
000745:                                                                                                  #        OR TPM (P34,35)
000746:
000747:                                                                                                  #  BIT 2 FLAG 6
000748: 26,2022                        AUXFLAG            =        103D                                  #        PROVIDING IDLEFLAG      SERVICER WILL SKIP
000749: 26,2022     4752               AUXFLBIT           =        BIT2                                  #        IS NOT SET, SERV-       DVMON ON ITS NEXT
000750:                                                                                                  #        ICER WILL EXERCISE      PASS EVEN IF THE
000751:                                                                                                  #        DVMON ON ITS NEXT       IDLEFLAG IS NOT SET.
000752:                                                                                                  #        PASS.                   IT WILL THEN SET
000753:                                                                                                  #                                AUXFLAG.
000754:
000755:                                                                                                  #  BIT 1 FLAG 6  (L)
000756: 26,2022                        ATTFLAG            =        104D                                  #        LEM ATTITUDE EXISTS     NO LEM ATTITUDE
000757:                                                                                                  #        IN MOON-FIXED           AVAILABLE IN MOON-
000758:


000760: 26,2022     4753               ATTFLBIT           =        BIT1                                  #        COORDINATES             FIXED COORDINATES
000761:
000762: 26,2022     0103               FLAGWRD7           =        STATE      +7                         #  (105-119)
000763:
000764:                                                                                                  #        (SET)                   (RESET)
000765:
000766:                                                                                                  #  BIT 15 FLAG 7 (S)
000767: 26,2022                        ITSWICH            =        105D                                  #        P34;TPI TIME TO BE      TPI HAS BEEN
000768: 26,2022     4735               ITSWBIT            =        BIT15                                 #        COMPUTED                COMPUTED
000769:
000770:                                                                                                  #  BIT 14 FLAG 7 (S)
000771: 26,2022                        MANUFLAG           =        106D                                  #        ATTITUDE MANEUVER       NO ATTITUDE MANEUVER
000772:                                                                                                  #        GOING DURING RR         DURING RR SEARCH
000773: 26,2022     4736               MANUFBIT           =        BIT14                                 #        SEARCH
000774:
000775:                                                                                                  #  BIT 13 FLAG 7 (S)
000776: 26,2022                        IGNFLAG            =        107D                                  #        TIG HAS ARRIVED         TIG HAS NOT ARRIVED
000777: 26,2022     4737               IGNFLBIT           =        BIT13                                 #
000778:
000779:                                                                                                  #  BIT 12 FLAG 7 (S)
000780: 26,2022                        ASTNFLAG           =        108D                                  #        ASTRONAUT HAS           ASTRONAUT HAS NOT
000781: 26,2022     4740               ASTNBIT            =        BIT12                                 #        OKAYED IGNITION         OKAYED IGNITION
000782:
000783:                                                                                                  #  BIT 11 FLAG 7 (L)
000784: 26,2022                        SWANDISP           =        109D                                  #        LANDING ANALOG          LANDING ANALOG
000785: 26,2022     4741               SWANDBIT           =        BIT11                                 #        DISPLAYS ENABLED        DISPLAYS SUPPRESSED
000786:
000787:                                                                                                  #  BIT 10 FLAG 7 (S)
000788: 26,2022                        NORMSW             =        110D                                  #        UNIT NORMAL INPUT       LAMBERT COMPUTES ITS
000789: 26,2022     4742               NORMSBIT           =        BIT10                                 #        TO LAMBERT              OWN UNIT NORMAL
000790:
000791:                                                                                                  #  BIT 9 FLAG 7  (S)
000792: 26,2022                        RVSW               =        111D                                  #        DO NOT COMPUTE          COMPUTE FINAL STATE
000793:                                                                                                  #        FINAL STATE VECTOR      VECTOR IN TIME-THETA
000794: 26,2022     4743               RVSWBIT            =        BIT9                                  #        IN TIME-THETA
000795:
000796:                                                                                                  #  BIT 8 FLAG 7  (S)
000797: 26,2022                        V67FLAG            =        112D                                  #        ASTRONAUT OVERWRITE     ASTRONAUT DOES NOT
000798:                                                                                                  #        W-MATRIX INITIAL        OVERWRITE W-MATRIX
000799: 26,2022     4744               V67FLBIT           =        BIT8                                  #        VALUES                  INITIAL VALUES
000800:


000802:                                                                                                  #  BIT 7 FLAG 7  (S)
000803: 26,2022                        IDLEFLAG           =        113D                                  #        NO DV MONITOR           CONNECT DV MONITOR
000804: 26,2022     4745               IDLEFBIT           =        BIT7                                  #
000805:
000806:                                                                                                  #  BIT 6 FLAG 7  (S)
000807: 26,2022                        V37FLAG            =        114D                                  #        AVERAGEG (SERVICER)     AVERAGEG (SERVICER)
000808: 26,2022     4746               V37FLBIT           =        BIT6                                  #        RUNNING                 OFF
000809:
000810:                                                                                                  #  BIT 5 FLAG 7  (S)
000811: 26,2022                        AVEGFLAG           =        115D                                  #        AVERAGEG (SERVICER)     AVERAGEG (SERVICER)
000812: 26,2022     4747               AVEGFBIT           =        BIT5                                  #        DESIRED                 NOT DESIRED
000813:
000814:                                                                                                  #  BIT 4 FLAG 7  (S)
000815: 26,2022                        UPLOCKFL           =        116D                                  #        K-KBAR-K FAIL           NO K-KBAR-K FAIL
000816: 26,2022     4750               UPLOCBIT           =        BIT4                                  #
000817:
000818:                                                                                                  #  BIT 3 FLAG 7  (S)
000819: 26,2022                        VERIFLAG           =        117D                                  #  CHANGED WHEN V33E OCCURS AT END OF P27
000820: 26,2022     4751               VERIFBIT           =        BIT3                                  #
000821:
000822:                                                                                                  #  BIT 2 FLAG 7  (L,C)
000823: 26,2022                        V82EMFLG           =        118D                                  #        MOON VICINITY           EARTH VICINITY
000824: 26,2022     4752               V82EMBIT           =        BIT2                                  #
000825:
000826:                                                                                                  #  BIT 1 FLAG 7  (S)
000827: 26,2022                        TFFSW              =        119D                                  #        CALCULATE TPERIGEE      CALCULATE TFF
000828: 26,2022     4753               TFFSWBIT           =        BIT1                                  #
000829:
000830:
000831: 26,2022     0104               FLAGWRD8           =        STATE      +8D                        #  (120-134)
000832:
000833:                                                                                                  #        (SET)                   (RESET)
000834:
000835:                                                                                                  #  BIT 15 FLAG 8 (S)
000836: 26,2022                        RPQFLAG            =        120D                                  #        RPQ NOT COMPUTED        RPQ COMPUTED
000837:                                                                                                  #        (RPQ = VECTOR BE-
000838: 26,2022     4735               RPQFLBIT           =        BIT15                                 #        TWEEN SECONDARY BODY
000839:                                                                                                  #        AND PRIMARY BODY
000840:
000841:                                                                                                  #  BIT 14 FLAG 8
000842:                                                                                                  #                =       121D
000843:                                                                                                  #                =       BIT14
000844:


000846:                                                                                                  #  BIT 13 FLAG 8 (S)
000847: 26,2022                        NEWIFLG            =        122D                                  #        FIRST PASS THROUGH      SUCCEEDING ITERATION
000848: 26,2022     4737               NEWIBIT            =        BIT13                                 #        INTEGRATION             OF INTEGRATION
000849:
000850:                                                                                                  #  BIT 12 FLAG 8 *** PROTECTED FROM FRESH START ***
000851: 26,2022                        CMOONFLG           =        123D                                  #        PERMANENT CSM STATE     PERMANENT CSM STATE
000852: 26,2022     4740               CMOONBIT           =        BIT12                                 #        IN LUNAR SPHERE         IN EARTH SPHERE
000853:
000854:                                                                                                  #  BIT 11 FLAG 8 *** PROTECTED FROM FRESH START ***
000855: 26,2022                        LMOONFLG           =        124D                                  #        PERMANENT LM STATE      PERMANENT LM STATE
000856: 26,2022     4741               LMOONBIT           =        BIT11                                 #        IN LUNAR SPHERE         IN EARTH SPHERE
000857:
000858:                                                                                                  #  BIT 10 FLAG 8 (L)
000859: 26,2022                        FLUNDISP           =        125D                                  #        CURRENT GUIDANCE        CURRENT GUIDANCE
000860: 26,2022     4742               FLUNDBIT           =        BIT10                                 #        DISPLAYS INHIBITED      DISPLAYS PERMITTED
000861:
000862:                                                                                                  #  BIT 9 FLAG 8  (L)
000863: 26,2022                        P39/79SW           =        126D                                  #        P39/79 OPERATING        P38/P78 OPERATING
000864: 26,2022     4743               P39SWBIT           =        BIT9                                  #
000865:
000866:                                                                                                  #  BIT 8 FLAG 8  *** PROTECTED FROM FRESH START ***
000867: 26,2022                        SURFFLAG           =        127D                                  #        LM ON LUNAR SURFACE     LM NOT ON LUNAR
000868: 26,2022     4744               SURFFBIT           =        BIT8                                  #                                SURFACE
000869:
000870:                                                                                                  #  BIT 7 FLAG 8  (S)
000871: 26,2022                        INFINFLG           =        128D                                  #        NO CONIC SOLUTION       CONIC SOLUTION
000872:                                                                                                  #        (CLOSURE THROUGH        EXISTS
000873: 26,2022     4745               INFINBIT           =        BIT7                                  #        INFINITY REQUIRED)
000874:
000875:                                                                                                  #  BIT 6 FLAG 8  (S)
000876: 26,2022                        ORDERSW            =        129D                                  #        ITERATOR USES 2ND       ITERATOR USES 1ST
000877: 26,2022     4746               ORDERBIT           =        BIT6                                  #        ORDER MINIMUM MODE      ORDER STANDARD MODE
000878:
000879:                                                                                                  #  BIT 5 FLAG 8  (S)
000880: 26,2022                        APSESW             =        130D                                  #        RDESIRED OUTSIDE        RDESIRED INSIDE
000881:                                                                                                  #        PERICENTER-APOCENTER    PERICENTER-APOCENTER
000882: 26,2022     4747               APSESBIT           =        BIT5                                  #        RANGE IN TIME-RADI      RANGE IN TIME-RADIUS
000883:
000884:                                                                                                  #  BIT 4 FLAG 8  (S)
000885: 26,2022                        COGAFLAG           =        131D                                  #        NO CONIC SOLUTION -     CONIC SOLUTION
000886:                                                                                                  #        TOO CLOSE TO RECTI-     EXISTS(COGA DOES NOT
000887:


000889: 26,2022     4750               COGAFBIT           =        BIT4                                  #        LINEAR (COGA OVRFLWS)   OVERFLOW)
000890:
000891:                                                                                                  #  BIT 3 FLAG 8
000892:                                                                                                  #                =       132D
000893:
000894:                                                                                                  #  BIT 2 FLAG 8  (L)
000895: 26,2022                        INITALGN           =        133D                                  #        INITIAL PASS THRU       SECOND PASS THRU P57
000896: 26,2022     4752               INITABIT           =        BIT2                                  #        P57                     (CHECK RESET-MILLARD)
000897:
000898:                                                                                                  #  BIT 1 FLAG 8  (S)
000899: 26,2022                        360SW              =        134D                                  #        TRANSFER ANGLE NEAR     TRANSFER ANGLE NOT
000900: 26,2022     4753               360SWBIT           =        BIT1                                  #        360 DEGREES             NEAR 360 DEGREES
000901:
000902:
000903: 26,2022     0105               FLAGWRD9           =        STATE      +9D                        #  (135-149)
000904:
000905:                                                                                                  #        (SET)                   (RESET)
000906:
000907:                                                                                                  #  BIT 15 FLAG 9
000908:                                                                                                  #                =       135D
000909:                                                                                                  #                =       BIT15
000910:
000911:                                                                                                  #  BIT 14 FLAG 9 (L)
000912: 26,2022                        FLVR               =        136D                                  #        VERTICAL RISE           NON-VERTICAL RISE
000913: 26,2022     4736               FLVRBIT            =        BIT14                                 #        (ASCENT GUIDANCE)
000914:
000915:                                                                                                  #  BIT 13 FLAG 9
000916:                                                                                                  #                =       137D
000917:
000918:                                                                                                  #  BIT 12 FLAG 9 (L)
000919: 26,2022                        FLPC               =        138D                                  #        NO POSITION CONTROL     POSITION CONTROL
000920: 26,2022     4740               FLPCBIT            =        BIT12                                 #        (ASCENT GUIDANCE)
000921:
000922:                                                                                                  #  BIT 11 FLAG 9 (L)
000923: 26,2022                        FLPI               =        139D                                  #        PRE-IGNITION PHASE      REGULAR GUIDANCE
000924: 26,2022     4741               FLPIBIT            =        BIT11                                 #        (ASCENT GUIDANCE)
000925:
000926:                                                                                                  #  BIT 10 FLAG 9 (L)
000927: 26,2022                        FLRCS              =        140D                                  #        RCS INJECTION MODE      MAIN ENGINE MODE
000928: 26,2022     4742               FLRCSBIT           =        BIT10                                 #        (ASCENT GUIDANCE)
000929:
000930:                                                                                                  #  BIT 9 FLAG 9  (L)
000931:


000933: 26,2022                        LETABORT           =        141D                                  #        ABORT PROGRAMS          ABORT PROGRAMS
000934: 26,2022     4743               LETABBIT           =        BIT9                                  #        ARE ENABLED             ARE NOT ENABLED
000935:
000936:                                                                                                  #  BIT 8 FLAG 9  (L)
000937: 26,2022                        FLAP               =        142D                                  #        APS CONTINUED ABORT     APS ABORT IS NOT A
000938:                                                                                                  #        AFTER DPS STAGING       CONTINUATION
000939: 26,2022     4744               FLAPBIT            =        BIT8                                  #        (ASCENT GUIDANCE)
000940:
000941:                                                                                                  #  BIT 7 FLAG 9  (L)
000942:                                                                                                  #                =       143D
000943:
000944:
000945:                                                                                                  #  BIT 6 FLAG 9  (L)
000946: 26,2022                        ROTFLAG            =        144D                                  #        P70 AND P71 WILL        P70 AND P71 WILL NOT
000947: 26,2022     4746               ROTFLBIT           =        BIT6                                  #        FORCE VEHICLE           FORCE VEHICLE
000948:                                                                                                  #        ROTATION IN THE         ROTATION IN THE
000949:                                                                                                  #        PREFERRED DIRECTION.    PREFERRED DIRECTION
000950:
000951:                                                                                                  #  BIT 5 FLAG 9  (S)
000952: 26,2022                        QUITFLAG           =        145D                                  #        DISCONTINUE INTEGR.     CONTINUE INTEGRATION
000953: 26,2022     4747               QUITBIT            =        BIT5                                  #
000954:
000955:                                                                                                  #  BIT 4 FLAG 9
000956:                                                                                                  #                =       146D
000957:                                                                                                  #                =       BIT4
000958:
000959:                                                                                                  #  BIT 3 FLAG 9  (L)
000960: 26,2022                        MID1FLAG           =        147D                                  #        INTEGRATE TO TDEC       INTEGRATE TO THE
000961: 26,2022     4751               MID1FBIT           =        BIT3                                  #                                THEN-PRESENT TIME
000962:
000963:                                                                                                  #  BIT 2 FLAG 9  (L)
000964: 26,2022                        MIDAVFLG           =        148D                                  #        INTEGRATION ENTERED     INTEGRATION WAS
000965:                                                                                                  #        FROM ONE OF MIDTOAV     NOT ENTERED VIA
000966: 26,2022     4752               MIDAVBIT           =        BIT2                                  #        PORTALS                 MIDTOAV
000967:
000968:                                                                                                  #  BIT 1 FLAG 9  (S)
000969: 26,2022                        AVEMIDSW           =        149D                                  #        AVETOMID CALLING        NO AVETOMID W INTEGR
000970:                                                                                                  #        FOR W.MATRIX INTEGR     ALLOW SET UP RM,VN.
000971: 26,2022     4753               AVEMDBIT           =        BIT1                                  #        DONT WRITE OVER RN,     PIPTIME
000972:                                                                                                  #        VN,PIPTIME
000973:
000974:
000975: 26,2022     0106               RASFLAG            EQUALS   FLGWRD10                              #  WAS ONLY AN INSTALL-ERASTALL FLAG
000976:


000978: 26,2022     0106               FLGWRD10           =        STATE      +10D                       #  (150-164)
000979:
000980:                                                                                                  #        (SET)                   (RESET)
000981:
000982:                                                                                                  #  BIT 15 FLAG 10
000983:                                                                                                  #                =       150D
000984:
000985:                                                                                                  #  BIT 14 FLAG 10 (L,C)
000986: 26,2022                        INTFLAG            =        151D                                  #        INTEGRATION IN          INTEGRATION NOT IN
000987: 26,2022     4736               INTFLBIT           =        BIT14                                 #        PROGRESS                PROGRESS
000988:
000989:                                                                                                  #  BIT 13 FLAG 10 (S,L)
000990: 26,2022                        APSFLAG            =        152D                                  #        ASCENT STAGE            DESCENT STAGE
000991: 26,2022     4737               APSFLBIT           =        BIT13                                 #         *** PROTECTED FROM FRESH START ***
000992:
000993:                                                                                                  #  BIT 12 FLAG 10
000994:                                                                                                  #                =       153D
000995:
000996:                                                                                                  #  BIT 11 FLAG 10
000997:                                                                                                  #                =       154D
000998:
000999:                                                                                                  #  BIT 10 FLAG 10
001000:                                                                                                  #                =       155D
001001:
001002:                                                                                                  #  BIT 9 FLAG 10
001003:                                                                                                  #                =       156D
001004:
001005:                                                                                                  #  BIT 8 FLAG 10
001006:                                                                                                  #                =       157D
001007:
001008:                                                                                                  #  BIT 7 FLAG 10 (L,C)
001009: 26,2022                        REINTFLG           =        158D                                  #        INTEGRATION ROUTINE     INTEGRATION ROUTINE
001010: 26,2022     4745               REINTBIT           =        BIT7                                  #        TO BE RESTARTED         NOT TO BE RESTARTED
001011:
001012:                                                                                                  #  BIT 6 FLAG 10
001013:                                                                                                  #                =       159D
001014:
001015:                                                                                                  #  BIT 5 FLAG 10
001016:                                                                                                  #                =       160D
001017:


001019:                                                                                                  #  BIT 4 FLAG 10
001020:                                                                                                  #                =       161D
001021:
001022:                                                                                                  #  BIT 3 FLAG 10
001023:                                                                                                  #                =       162D
001024:
001025:                                                                                                  #  BIT 2 FLAG 10
001026:                                                                                                  #                =       163D
001027:
001028:                                                                                                  #  BIT 1 FLAG 10
001029:                                                                                                  #                =       164D
001030:
001031:
001032:
001033: 26,2022     0107               FLGWRD11           =        STATE      +11D                       #  (165-179)
001034:
001035:                                                                                                  #        (SET)                   (RESET)
001036:
001037:                                                                                                  #  BIT 15 FLAG 11 (L)(R12)
001038: 26,2022                        LRBYPASS           =        165D                                  #        BYPASS ALL LANDING      DO NOT BYPASS LR
001039: 26,2022     4735               LRBYBIT            =        BIT15                                 #        RADAR UPDATES           UPDATES
001040:
001041:                                                                                                  #  BIT 14 FLAG 11
001042:                                                                                                  #                =       166D
001043:                                                                                                  #                =       BIT14
001044:
001045:                                                                                                  #                =       BIT 13 FLAG 11
001046:                                                                                                  #                =       167D
001047:                                                                                                  #                =       BIT13
001048:
001049:                                                                                                  #  BIT 12 FLAG 11 (L)(R12)
001050: 26,2022                        VXINH              =        168D                                  #        IF Z VELOCITY DATA      UPDATE X AXIS
001051:                                                                                                  #        UNREASONABLE,           VELOCITY
001052: 26,2022     4740               VXINHBIT           =        BIT12                                 #        BYPASS X VELOCITY
001053:                                                                                                  #        UPDATE ON NEXT PASS
001054:
001055:                                                                                                  #  BIT 11 FLAG 11 (L)(R12)
001056: 26,2022                        PSTHIGAT           =        169D                                  #        PAST HIGATE             PREHIGATE
001057: 26,2022     4741               PSTHIBIT           =        BIT11                                 #
001058:
001059:                                                                                                  #  BIT 10 FLAG 11 (L)(R12)
001060:


001062: 26,2022                        NOLRREAD           =        170D                                  #        LANDING RADAR           LR NOT REPOSITIONING
001063:                                                                                                  #        REPOSITIONING;
001064: 26,2022     4742               NOLRRBIT           =        BIT10                                 #        BYPASS UPDATE
001065:
001066:                                                                                                  #  BIT 9 FLAG 11 (L)(R12)
001067: 26,2022                        XORFLG             =        171D                                  #        BELOW LIMIT             ABOVE LIMIT DO
001068:                                                                                                  #        INHIBIT X AXIS          NOT INHIBIT
001069: 26,2022     4743               XORFLBIT           =        BIT9                                  #        OVERRIDE
001070:
001071:                                                                                                  #  BIT 8 FLAG 11
001072: 26,2022                        LRINH              =        172D                                  #        LANDING RADAR UP-       LR UPDATES INHIBITED
001073: 26,2022     4744               LRINHBIT           =        BIT8                                  #        DATES PERMITTED         BY ASTRONAUT
001074:                                                                                                  #        BY ASTRONAUT
001075:
001076:                                                                                                  #  BIT 7 FLAG 11 (L)(R12)
001077: 26,2022                        VELDATA            =        173D                                  #        LR VELOCITY             LR VELOCITY MEASURE
001078: 26,2022     4745               VELDABIT           =        BIT7                                  #        MEASUREMENT MADE        NOT MADE
001079:
001080:                                                                                                  #  BIT 6 FLAG 11 (L)(R12)
001081: 26,2022                        READLR             =        174D                                  #        OK TO READ LR           DO NOT READ LR RANGE
001082: 26,2022     4746               READLBIT           =        BIT6                                  #        RANGE DATA              DATA
001083:
001084:                                                                                                  #  BIT 5 FLAG 11 (L)(R12)
001085: 26,2022                        READVEL            =        175D                                  #        OK TO READ LR           DO NOT READ LR
001086: 26,2022     4747               READVBIT           =        BIT5                                  #        VELOCITY DATA           VELOCITY DATA
001087:
001088:                                                                                                  #  BIT 4 FLAG 11 (L)(R12)
001089: 26,2022                        RNGEDATA           =        176D                                  #        LR ALTITUDE             LR ALTITUDE MEASURE
001090: 26,2022     4750               RNGEDBIT           =        BIT4                                  #        MEASUREMENT MADE        NOT MADE
001091:
001092:                                                                                                  #  BIT 3 FLAG 11
001093: 26,2022                        SCALBAD            =        177D                                  #        LR LOW SCALE DIS-       LR SCALE DISCRETE
001094: 26,2022     4751               SCABBIT            =        BIT3                                  #        CRETE NOT PRESENT       APPEARS OK
001095:                                                                                                  #        WHEN IT SHOULD BE
001096:
001097:                                                                                                  #  BIT 2 FLAG 11 (L)(R12)
001098: 26,2022                        VFLSHFLG           =        178D                                  #        LR VELOCITY FAIL        LR VEL FAIL LAMP
001099:                                                                                                  #        LAMP SHOULD BE          SHOULDN'T FLASH
001100: 26,2022     4752               VFLSHBIT           =        BIT2                                  #        FLASHING
001101:
001102:                                                                                                  #  BIT 1 FLAG 11 (L)(R12)


001104: 26,2022                        HFLSHFLG           =        179D                                  #        LR ALTITUDE FAIL        LR ALTITUDE FAIL
001105: 26,2022     4753               HFLSHBIT           =        BIT1                                  #        LAMP SHOULD BE          LAMP SHOULD NOT BE
001106:                                                                                                  #        FLASHING                FLASHING
001107:
001108: 26,2022     0110               RADMODES           EQUALS   FLGWRD12                              #  RADAR FLAG WORD
001109:
001110: 26,2022     0110               FLGWRD12           =        STATE      +12D                       #  (180-194)             WAS RADMODES
001111:
001112:                                                                                                  #        (SET)                   (RESET)
001113:
001114:                                                                                                  #  BIT 15 FLAG 12
001115: 26,2022                        CDESFLAG           =        180D                                  #        CONTINUOUS DESIG-       LGC CHECKS FOR LOCK-
001116: 26,2022     4735               CDESBIT            =        BIT15                                 #        NATE. LGC COMMANDS      ON WHEN ANTENNA
001117:                                                                                                  #        RR REGARDLESS OF        BEING DESIGNATED
001118:                                                                                                  #        LOCK-ON
001119:
001120:                                                                                                  #  BIT 14 FLAG 12
001121: 26,2022                        REMODFLG           =        181D                                  #        CHANGE IN ANTENNA       NO REMODE REQUESTED
001122: 26,2022     4736               REMODBIT           =        BIT14                                 #        MODE BEEN REQUESTED     OR OCCURRING
001123:                                                                                                  #        I.E., REMODE
001124:
001125:                                                                                                  #  BIT 13 FLAG 12
001126: 26,2022                        RCDU0FLG           =        182D                                  #        RR CDU'S BEING          RR CDU'S NOT BEING
001127: 26,2022     4737               RCDU0BIT           =        BIT13                                 #        ZEROED                  ZEROED
001128:
001129:                                                                                                  #  BIT 12 FLAG 12
001130: 26,2022                        ANTENFLG           =        183D                                  #        RR ANTENNA MODE IS      RR ANTENNA IN MODE 1
001131: 26,2022     4740               ANTENBIT           =        BIT12                                 #        MODE 2
001132:
001133:                                                                                                  #  BIT 11 FLAG 12
001134: 26,2022                        REPOSMON           =        184D                                  #        REPOSITION MONITOR.     NO REPOSITION TAKING
001135: 26,2022     4741               REPOSBIT           =        BIT11                                 #        RR REPOSITION IS        PLACE
001136:                                                                                                  #        TAKING PLACE
001137:
001138:                                                                                                  #  BIT 10 FLAG 12
001139: 26,2022                        DESIGFLG           =        185D                                  #        RR DESIGNATE            RR DESIGNATE NOT
001140: 26,2022     4742               DESIGBIT           =        BIT10                                 #        REQUESTED OR IN         REQUESTED OR IN
001141:                                                                                                  #        PROGRESS                PROGRESS
001142:
001143:                                                                                                  #  BIT 9 FLAG 12
001144: 26,2022                        ALTSCALE           =        186D                                  #        LR ALTITUDE READING     LR ALTITUDE READING
001145: 26,2022     4743               ALTSCBIT           =        BIT9                                  #        IS ON HIGH SCALE        IS ON LOW SCALE
001146:


001148:                                                                                                  #  BIT 8 FLAG 12
001149: 26,2022                        LRVELFLG           =        187D                                  #        LR VELOCITY DATA        NO LR VELOCITY DATA
001150: 26,2022     4744               LRVELBIT           =        BIT8                                  #        FAIL                    FAIL
001151:
001152:                                                                                                  #  BIT 7 FLAG 12
001153: 26,2022                        RCDUFAIL           =        188D                                  #        RR CDU FAIL HAS         RR CDU FAIL OCCURRED
001154: 26,2022     4745               RCDUFBIT           =        BIT7                                  #        NOT OCCURRED
001155:
001156:                                                                                                  #  BIT 6 FLAG 12
001157: 26,2022                        LRPOSFLG           =        189D                                  #        LANDING RADAR           LR POSITION 1
001158: 26,2022     4746               LRPOSBIT           =        BIT6                                  #        POSITION 2
001159:
001160:                                                                                                  #  BIT 5 FLAG 12
001161: 26,2022                        LRALTFLG           =        190D                                  #        LR ALTITUDE DATA        NO LR ALTITUDE DATA
001162: 26,2022     4747               LRALTBIT           =        BIT5                                  #        FAIL.  COULD NOT BE     FAIL
001163:                                                                                                  #        READ SUCCESSFULLY.
001164:
001165:                                                                                                  #  BIT 4 FLAG 12
001166: 26,2022                        RRDATAFL           =        191D                                  #        RR DATA FAIL.           NO RR DATA FAIL.
001167: 26,2022     4750               RRDATABT           =        BIT4                                  #        DATA COULD NOT BE
001168:                                                                                                  #        READ SUCCESSFULLY
001169:
001170:                                                                                                  #  BIT 3 FLAG 12
001171: 26,2022                        RRRSFLAG           =        192D                                  #        RR RANGE READING        RR RANGE READING ON
001172: 26,2022     4751               RRRSBIT            =        BIT3                                  #        ON THE HIGH SCALE       THE LOW SCALE
001173:
001174:                                                                                                  #  BIT 2 FLAG 12
001175: 26,2022                        AUTOMODE           =        193D                                  #        RR NOT IN AUTO MODE.    RR IN AUTO MODE
001176: 26,2022     4752               AUTOMBIT           =        BIT2                                  #        AUTO MODE DISCRETE
001177:                                                                                                  #        IS NOT PRESENT
001178:
001179:                                                                                                  #  BIT 1 FLAG 12
001180: 26,2022                        TURNONFL           =        194D                                  #        RR TURN-ON SEQUENCE     NO RR TURN-ON
001181: 26,2022     4753               TURNONBT           =        BIT1                                  #        IN PROGRESS.  (ZERO     SEQUENCE IN PROGRESS
001182:                                                                                                  #        CDU'S, FIX ANTENNA
001183:                                                                                                  #        MODE)
001184:
001185: 26,2022     0111               DAPBOOLS           EQUALS   FLGWRD13                              #  DIGITAL AUTOPILOT FLAGWORD
001186:


001188: 26,2022     0111               FLGWRD13           =        STATE      +13D                       #  (195-209)     WAS DAPBOOLS
001189:
001190:                                                                                                  #        (SET)                   (RESET)
001191:
001192:                                                                                                  #  BIT 15 FLAG 13
001193: 26,2022                        PULSEFLG           =        195D                                  #        MINIMUM IMPULSE         NOT IN MINIMUM
001194: 26,2022     4735               PULSES             =        BIT15                                 #        COMMAND MODE IN         IMPULSE COMMAND MODE
001195:                                                                                                  #        "ATT HOLD" (V76)        (V77)
001196:
001197:                                                                                                  #  BIT 14 FLAG 13
001198: 26,2022                        USEQRFLG           =        196D                                  #        GIMBAL UNUSABLE.        TRIM GIMBAL MAY BE
001199: 26,2022     4736               USEQRJTS           =        BIT14                                 #        USE JETS ONLY.          USED.
001200:
001201:                                                                                                  #  BIT 13 FLAG 13
001202: 26,2022                        CSMDKFLG           =        197D                                  #        CSM DOCKED.  USE        CSM NOT DOCKED TO LM
001203: 26,2022     4737               CSMDOCKD           =        BIT13                                 #        BACKUP DAP
001204:
001205:                                                                                                  #  BIT 12 FLAG 13
001206: 26,2022                        OURRCFLG           =        198D                                  #        CURRENT DAP PASS        CURRENT DAP PASS IS
001207: 26,2022     4740               OURRCBIT           =        BIT12                                 #        IS RATE COMMAND         NOT RATE COMMAND
001208:
001209:                                                                                                  #  BIT 11 FLAG 13
001210: 26,2022                        ACC4-2FL           =        199D                                  #        4 JET X-AXIS TRANS-     2 JET X-AXIS TRANS-
001211: 26,2022     4741               ACC4OR2X           =        BIT11                                 #        LATION REQUESTED        LATION REQUESTED
001212:
001213:                                                                                                  #  BIT 10 FLAG 13
001214: 26,2022                        AORBTFLG           =        200D                                  #        B SYSTEM FOR X-         A SYSTEM FOR X-
001215: 26,2022     4742               AORBTRAN           =        BIT10                                 #        TRANSLATION             TRANSLATION PREFER'D
001216:
001217:                                                                                                  #  BIT 9 FLAG 13
001218: 26,2022                        XOVINFLG           =        201D                                  #        X-AXIS OVERRIDE         X-AXIS OVERRIDE OKAY
001219: 26,2022     4743               XOVINHIB           =        BIT9                                  #        LOCKED OUT
001220:
001221:                                                                                                  #  BIT 8 FLAG 13
001222: 26,2022                        DRIFTDFL           =        202D                                  #        ASSUME 0 OFFSET         USE OFFSET ACCELERA-
001223: 26,2022     4744               DRIFTBIT           =        BIT8                                  #        DRIFTING FLIGHT.        TION ESTIMATE
001224:
001225:                                                                                                  #  BIT 7 FLAG 13
001226: 26,2022                        RHCSCFLG           =        203D                                  #        NORMAL RHC SCALING      FINE RHC SCALING
001227: 26,2022     4745               RHCSCALE           =        BIT7                                  #        REQUESTED               REQUESTED
001228:


001230:                                                                                                  #  BIT 6 FLAG 13
001231: 26,2022                        ULLAGFLG           =        204D                                  #        ULLAGE REQUEST BY       NO INTERNAL ULLAGE
001232: 26,2022     4746               ULLAGER            =        BIT6                                  #        MISSION PROGRAM         REQUEST
001233:
001234:                                                                                                  #  BIT 5 FLAG 13
001235: 26,2022                        AORBSFLG           =        205D                                  #        P-AXIS COUPLES 7.15     P-AXIS COUPLES 4.12
001236: 26,2022     4747               AORBSYST           =        BIT5                                  #        AND 8,16 PREFERRED      AND 3,11 PREFERRED
001237:
001238:                                                                                                  #  BIT 4 FLAG 13
001239: 26,2022                        DBSELFLG           =        206D                                  #        MAX DB SELECTED         MIN DB SELECTED BY
001240: 26,2022     4750               DBSELECT           =        BIT4                                  #        BY CREW (5 DEG)         CREW (0.3 DEG)
001241:
001242:                                                                                                  #  BIT 3 FLAG 13
001243: 26,2022                        ACCOKFLG           =        207D                                  #        CONTROL AUTHORITY       RESTART OR FRESH ST.
001244: 26,2022     4751               ACCSOKAY           =        BIT3                                  #        VALUES FROM 1/ACCS      SINCE LAST 1/ACCS;
001245:                                                                                                  #        USABLE                  OUTPUTS SUSPECT.
001246:
001247:                                                                                                  #  BIT 2 FLAG 13
001248: 26,2022                        AUTR2FLG           =        208D                                  #  THESE FLAGS ARE USED TOGETHER TO INDICAT
001249: 26,2022     4752               AUTRATE2           =        BIT2                                  #  ASTRONAUT-CHOSEN KALCMANU MANEUVER RATES
001250:                                                                                                  #  (0,0)=(BIT2,BIT1)=    0.2 DEG/SEC
001251:                                                                                                  #  (0,1)=                0.5 DEG/SEC
001252:                                                                                                  #  BIT 1 FLAG 13
001253: 26,2022                        AUTR1FLG           =        209D                                  #  (1,0)=                2.0 DEG/SEC
001254: 26,2022     4753               AUTRATE1           =        BIT1                                  #  (1,1)=               10.0 DEG/SEC
001255:


001258:

End of include-file FLAGWORD_ASSIGNMENTS.agc.  Parent file is MAIN.agc


