
Source Code


000002:                                                                                                  #  Copyright:    Public domain.
000003:                                                                                                  #  Filename:     GROUND_TRACKING_DETERMINATION_PROGRAM.agc
000004:                                                                                                  #  Purpose:      Part of the source code for Luminary 1A build 099.
000005:                                                                                                  #                It is part of the source code for the Lunar Module's (LM)
000006:                                                                                                  #                Apollo Guidance Computer (AGC), for Apollo 11.
000007:                                                                                                  #  Assembler:    yaYUL
000008:                                                                                                  #  Contact:      Ron Burkey <info@sandroid.org>.
000009:                                                                                                  #  Website:      www.ibiblio.org/apollo.
000010:                                                                                                  #  Pages:        654-657
000011:                                                                                                  #  Mod history:  2009-05-18 RSB  Adapted from the corresponding
000012:                                                                                                  #                                Luminary131 file, using page
000013:                                                                                                  #                                images from Luminary 1A.
000014:
000015:                                                                                                  #  This source code has been transcribed or otherwise adapted from
000016:                                                                                                  #  digitized images of a hardcopy from the MIT Museum.  The digitization
000017:                                                                                                  #  was performed by Paul Fjeld, and arranged for by Deborah Douglas of
000018:                                                                                                  #  the Museum.  Many thanks to both.  The images (with suitable reduction
000019:                                                                                                  #  in storage size and consequent reduction in image quality as well) are
000020:                                                                                                  #  available online at www.ibiblio.org/apollo.  If for some reason you
000021:                                                                                                  #  find that the images are illegible, contact me at info@sandroid.org
000022:                                                                                                  #  about getting access to the (much) higher-quality images which Paul
000023:                                                                                                  #  actually created.
000024:
000025:                                                                                                  #  Notations on the hardcopy document read, in part:
000026:
000027:                                                                                                  #        Assemble revision 001 of AGC program LMY99 by NASA 2021112-61
000028:                                                                                                  #        16:27 JULY 14, 1969
000029:


000031:                                                                                                  #  GROUND TRACKING DETERMINATION PROGRAM -- P21
000032:                                                                                                  #  PROGRAM DESCRIPTION
000033:                                                                                                  #        MOD NO -- 1
000034:                                                                                                  #        MOD BY -- N. M. NEVILLE
000035:
000036:                                                                                                  #  FUNCTIONAL DESCRIPTION --
000037:                                                                                                  #        TO PROVIDE THE ASTRONAUT DETAILS OF THE LM OR CSM GROUND TRACK WITHOUT
000038:                                                                                                  #        THE NEED FOR GROUND COMMUNICATION (REQUESTED BY DSKY).
000039:
000040:                                                                                                  #  CALLING SEQUENCE --
000041:                                                                                                  #        ASTRONAUT REQUEST THROUGH DSKY V37E21E
000042:
000043:                                                                                                  #  SUBROUTINES CALLED --
000044:                                                                                                  #        GOPERF4
000045:                                                                                                  #        GOFLASH
000046:                                                                                                  #        THISPREC
000047:                                                                                                  #        OTHPREC
000048:                                                                                                  #        LAT-LONG
000049:
000050:                                                                                                  #  NORMAL EXIT MODES --
000051:                                                                                                  #        ASTRONAUT REQUEST THROUGH DSKY TO TERMINATE PROGRAM V34E
000052:
000053:                                                                                                  #  ALARM OR ABORT EXIT MODES --
000054:                                                                                                  #        NONE
000055:
000056:                                                                                                  #  OUTPUT --
000057:                                                                                                  #        OCTAL DISPLAY OF OPTION CODE AND VEHICLE WHOSE GROUND TRACK IS TO BE
000058:                                                                                                  #        COMPUTED
000059:                                                                                                  #                OPTION CODE     00002
000060:                                                                                                  #                THIS            00001
000061:                                                                                                  #                OTHER           00002
000062:                                                                                                  #        DECIMAL DISPLAY OF TIME TO BE INTEGRATED TO HOURS, MINUTES, SECONDS
000063:                                                                                                  #        DECIMAL DISPLAY OF LAT,LONG,ALT
000064:
000065:                                                                                                  #  ERASABLE INITIALIZATION REQUIRED
000066:                                                                                                  #        AX0             2DEC    4.652459653 E-5 RADIANS         $68-69 CONSTANTS*
000067:                                                                                                  #        -AY0            2DEC    2.137535898 E-5 RADIANS
000068:                                                                                                  #        AZ0             2DEC    .7753206164     REVOLUTIONS
000069:                                                                                                  #        FOR LUNAR ORBITS 504LM VECTOR IS NEEDED:
000070:                                                                                                  #        504LM           2DEC    -2.700340600 E-5 RADIANS
000071:                                                                                                  #        504LM _2        2DEC    -7.514128400 E-4 RADIANS
000072:                                                                                                  #        504LM _4        2DEC    _2.553198641 E-4 RADIANS
000073:
000074:                                                                                                  #        NONE
000075:
000076:                                                                                                  #  DEBRIS


000078:                                                                                                  #        CENTRALS -- A,Q,L
000079:                                                                                                  #        OTHER -- THOSE USED BY THE ABOVE LISTED SUBROUTINES
000080:                                                                                                  #        SEE LEMPREC, LAT-LONG
000081:
000082: 35,2545  30,2000                                  SBANK=   LOWSUPER                              #  FOR LOW 2CADR'S.
000083:
000084: 33,2200                                           BANK     33
000085: 24,2000                                           SETLOC   P20S
000086: 24,2000                                           BANK
000087:
000088: 24,3505  E7,1762                                  EBANK=   P21TIME
000089: 24,3505                                           COUNT*   $$/P21
000090: 24,3505           34753        PROG21             CAF      ONE
000091: 24,3506           55145                           TS       OPTION2                               #  ASSUMED VEHICLE IS LM, R2 = 00001
000092: 24,3507           34752                           CAF      BIT2                                  #  OPTION 2
000093: 24,3510           04616                           TC       BANKCALL
000094: 24,3511           20633                           CADR     GOPERF4
000095: 24,3512           06001                           TC       GOTOP00H                              #  TERMINATE
000096: 24,3513           03515                           TC       +2                                    #  PROCEED VALUE OF ASSUMED VEHICLE OK
000097: 24,3514           03507                           TC       -5                                    #  R2 LOADED THROUGH DSKY
000098: 24,3515           33665        P21PROG1           CAF      V6N34                                 #  LOAD DESIRED TIME OF LAT-LONG.
000099: 24,3516           04616                           TC       BANKCALL
000100: 24,3517           20476                           CADR     GOFLASH
000101: 24,3520           06001                           TC       GOTOP00H                              #  TERM
000102: 24,3521           03523                           TC       +2                                    #  PROCEED VALUES OK
000103: 24,3522           03515                           TC       -5                                    #  TIME LOADED THROUGH DSKY
000104: 24,3523           06037                           TC       INTPRET
000105: 24,3524           77745                           DLOAD
000106: 24,3525           01046                                    DSPTEM1
000107: 24,3526           34041                           STCALL   TDEC1                                 #  INTEG TO TIME SPECIFIED IN TDEC
000108: 24,3527           27414                                    INTSTALL
000109: 24,3530           43014                           BON      CLEAR
000110: 24,3531           00304                                    P21FLAG
000111: 24,3532           51550                                    P21CONT                               #  ON -- RECYCLE USING BASE VECTOR
000112: 24,3533           01674                                    VINTFLAG                              #  OFF -- 1ST PASS CALL BASE VECTOR
000113: 24,3534           70535                           SLOAD    SR1
000114: 24,3535           01146                                    OPTION2
000115: 24,3536           43030                           BHIZ     SET
000116: 24,3537           51541                                    +2                                    #  ZERO -- THIS VEHICLE (LM)
000117: 24,3540           01474                                    VINTFLAG                              #  ONE -- OTHER VEHICLE (CM)
000118: 24,3541           43014                           CLEAR    CLEAR
000119: 24,3542           01676                                    DIM0FLAG
000120: 24,3543           01673                                    INTYPFLG                              #  PRECISION
000121: 24,3544           77624                           CALL
000122: 24,3545           27134                                    INTEGRV                               #     CALCULATE
000123: 24,3546           77650                           GOTO                                           #        AND
000124: 24,3547           51571                                    P21VSAVE                              #  SAVE BASE VECTOR
000125: 24,3550           77775        P21CONT            VLOAD
000126: 24,3551           03676                                    P21BASER                              #  RECYCLE -- INTEG FROM BASE VECTOR
000127: 24,3552           25535                           STOVL    RCV                                   #  --POS


000129: 24,3553           03704                                    P21BASEV
000130: 24,3554           15543                           STODL    VCV                                   #  --VEL
000131: 24,3555           03763                                    P21TIME
000132: 24,3556           01517                           STORE    TET                                   #  --TIME
000133: 24,3557           43014                           CLEAR    CLEAR
000134: 24,3560           01676                                    DIM0FLAG
000135: 24,3561           00263                                    MOONFLAG
000136: 24,3562           53135                           SLOAD    BZE
000137: 24,3563           01164                                    P21ORIG
000138: 24,3564           51567                                    +3                                    #  ZERO = EARTH
000139: 24,3565           77614                           SET                                            #  ---2 = MOON
000140: 24,3566           00063                                    MOONFLAG
000141: 24,3567           77624                 +3        CALL
000142: 24,3570           27107                                    INTEGRVS
000143: 24,3571           77745        P21VSAVE           DLOAD                                          #  SAVE CURRENT BASE VECTOR
000144: 24,3572           00015                                    TAT
000145: 24,3573           27763                           STOVL    P21TIME                               #  --TIME
000146: 24,3574           00017                                    RATT1
000147: 24,3575           27676                           STOVL    P21BASER                              #  --POS B-29 OR B-27
000148: 24,3576           00025                                    VATT1
000149: 24,3577           03704                           STORE    P21BASEV                              #  --VEL B-07 OR B-05
000150: 24,3600           53646                           ABVAL    SL*
000151: 24,3601           57576                                    0,2
000152: 24,3602           27712                           STOVL    P21VEL                                #  VEL/ FOR N91 DISP
000153: 24,3603           00001                                    RATT
000154: 24,3604           50256                           UNIT     DOT
000155: 24,3605           00007                                    VATT                                  #  U(R).V
000156: 24,3606           67471                           DDV      ASIN                                  #  U(R).U(V)
000157: 24,3607           03712                                    P21VEL
000158: 24,3610           03714                           STORE    P21GAM                                #  SIN-1 U(R).U(V) , -90 TO +90
000159: 24,3611           67334                           SXA,2    SLOAD
000160: 24,3612           01163                                    P21ORIG                               #  0 = EARTH
000161: 24,3613           01146                                    OPTION2
000162: 24,3614           46142                           SR1      BHIZ
000163: 24,3615           51620                                    +3
000164: 24,3616           77650                           GOTO
000165: 24,3617           51623                                    +4
000166: 24,3620           77614                 +3        BON
000167: 24,3621           04307                                    SURFFLAG
000168: 24,3622           51625                                    P21DSP
000169: 24,3623           77614                 +4        SET
000170: 24,3624           00064                                    P21FLAG
000171: 24,3625           67214        P21DSP             CLEAR    SLOAD                                 #  GENERATE DISPLAY DATA
000172: 24,3626           01663                                    LUNAFLAG
000173: 24,3627           00050                                    X2
000174: 24,3630           43054                           BZE      SET
000175: 24,3631           51633                                    +2                                    #  0 = EARTH
000176: 24,3632           01463                                    LUNAFLAG
000177: 24,3633           77775                           VLOAD
000178: 24,3634           00001                                    RATT


000180: 24,3635           16032                           STODL    ALPHAV
000181: 24,3636           00015                                    TAT
000182: 24,3637           45014                           CLEAR    CALL
000183: 24,3640           00662                                    ERADFLAG
000184: 24,3641           26351                                    LAT-LONG
000185: 24,3642           77605                           DMP                                            #  MPAC = ALT, METERS B-29
000186: 24,3643           11667                                    K.01
000187: 24,3644           03716                           STORE    P21ALT                                #  ALT/100 FOR N91 DISP
000188: 24,3645           77776                           EXIT
000189: 24,3646           33664                           CAF      V06N43                                #  DISPLAY LAT, LONG, ALT
000190: 24,3647           04616                           TC       BANKCALL                              #  LAT, LONG = 1/2 REVS B0
000191: 24,3650           20476                           CADR     GOFLASH                               #  ALT = KM B14
000192: 24,3651           06001                           TC       GOTOP00H                              #  TERM
000193: 24,3652           06001                           TC       GOTOP00H
000194: 24,3653           06037                           TC       INTPRET                               #  V32E RECYCLE
000195: 24,3654           43345                           DLOAD    DAD
000196: 24,3655           03763                                    P21TIME
000197: 24,3656           11663                                    600SEC                                #  600 SECONDS OR 10 MIN
000198: 24,3657           01046                           STORE    DSPTEM1
000199: 24,3660           77634                           RTB
000200: 24,3661           51515                                    P21PROG1
000201: 24,3662           00003 25140  600SEC             2DEC     60000      B-28                       #  10 MIN
000202:
000203: 24,3664           01453        V06N43             VN       00643
000204: 24,3665           01442        V6N34              VN       00634
000205: 24,3666           00243 32703  K.01               2DEC     .01
000206:

End of include-file GROUND_TRACKING_DETERMINATION_PROGRAM.agc.  Parent file is MAIN.agc


