
Source Code


000002:                                                                                                  ## Copyright:   Public domain.
000003:                                                                                                  ## Filename:    IMU_MODE_SWITCHING_ROUTINES.agc
000004:                                                                                                  ## Purpose:     Part of the source code for Luminary 1A build 099.
000005:                                                                                                  ##              It is part of the source code for the Lunar Module's (LM)
000006:                                                                                                  ##              Apollo Guidance Computer (AGC), for Apollo 11.
000007:                                                                                                  ## Assembler:   yaYUL
000008:                                                                                                  ## Contact:     Onno Hommes <ohommes@cmu.edu>.
000009:                                                                                                  ## Website:     www.ibiblio.org/apollo.
000010:                                                                                                  ## Pages:       1309-1337
000011:                                                                                                  ## Mod history: 2009-05-28 OH   Transcribed from page images.
000012:                                                                                                  ##              2009-06-05 RSB  Fixed a typo.
000013:                                                                                                  ##              2011-01-06 JL   Fixed pseudo-label indentation.
000014:                                                                                                  ##              2011-05-08 JL   Removed workaround. Flagged SBANK=
000015:                                                                                                  ##                              workaround for future removal.
000016:
000017:                                                                                                  ## This source code has been transcribed or otherwise adapted from
000018:                                                                                                  ## digitized images of a hardcopy from the MIT Museum.  The digitization
000019:                                                                                                  ## was performed by Paul Fjeld, and arranged for by Deborah Douglas of
000020:                                                                                                  ## the Museum.  Many thanks to both.  The images (with suitable reduction
000021:                                                                                                  ## in storage size and consequent reduction in image quality as well) are
000022:                                                                                                  ## available online at www.ibiblio.org/apollo.  If for some reason you
000023:                                                                                                  ## find that the images are illegible, contact me at info@sandroid.org
000024:                                                                                                  ## about getting access to the (much) higher-quality images which Paul
000025:                                                                                                  ## actually created.
000026:                                                                                                  ##
000027:                                                                                                  ## Notations on the hardcopy document read, in part:
000028:                                                                                                  ##
000029:                                                                                                  ##      Assemble revision 001 of AGC program LMY99 by NASA 2021112-61
000030:                                                                                                  ##      16:27 JULY 14, 1969
000031:
000032:


000034:    5457                                           BLOCK    02
000035:    4000                                           SETLOC   FFTAG3
000036:    4000                                           BANK
000037:
000038:    5457  E3,1471                                  EBANK=   COMMAND
000039:
000040:                                                                                                  #  FIXED-FIXED ROUTINES
000041:
000042:    5457                                           COUNT*   $$/IMODE
000043:    5457           34755        ZEROICDU           CAF      ZERO                                  #  ZERO ICDU COUNTERS.
000044:    5460           54032                           TS       CDUX
000045:    5461           54033                           TS       CDUY
000046:    5462           54034                           TS       CDUZ
000047:    5463           00002                           TC       Q
000048:
000049:    5464     4743               SPSCODE            =        BIT9
000050:


000052:                                                                                                  #  IMU ZEROING ROUTINES
000053:
000054: 11,3776                                           BANK     11
000055: 07,2000                                           SETLOC   MODESW
000056: 07,2000                                           BANK
000057:
000058: 07,2714                                           COUNT*   $$/IMODE
000059: 07,2714           00004        IMUZERO            INHINT                                         #  ROUTINE TO ZERO ICDUS.
000060: 07,2715           41036                           CS       DSPTAB     +11D                       #  DON'T ZERO CDUS IS IMU IN GIMBAL LOCK AND
000061: 07,2716           74771                           MASK     BITS4&6                               #  COARSE ALIGN (GIMBAL RUNAWAY PROTECTION)
000062: 07,2717           10000                           CCS      A
000063: 07,2720           12724                           TCF      IMUZEROA
000064:
000065: 07,2721           05567                           TC       ALARM                                 #  IF SO.
000066: 07,2722           00206                           OCT      00206
000067:
000068: 07,2723           13657                           TCF      CAGETSTJ   +4                         #  IMMEDIATE FAILURE.
000069:
000070: 07,2724           03653        IMUZEROA           TC       CAGETSTJ
000071:
000072: 07,2725           41303                           CS       IMODES33                              #  DISABLE DAP AUTO AND HOLD MODES
000073: 07,2726           74773                           MASK     SUPER011                              #        BIT5 FOR GROUND
000074: 07,2727           27303                           ADS      IMODES33
000075:
000076: 07,2730           41302                           CS       IMODES30                              #  INHIBIT ICDUFAIL AND IMUFAIL (IN CASE WE
000077: 07,2731           75751                           MASK     BITS3&4                               #  JUST CAME OUT OF COARSE ALIGN).
000078: 07,2732           27302                           ADS      IMODES30
000079:
000080: 07,2733           44771                           CS       BITS4&6                               #  SEND ZERO ENCODE WITH COARSE AND ERROR
000081: 07,2734           00006                           EXTEND                                         #  COUNTER DISABLED.
000082: 07,2735           03012                           WAND     CHAN12
000083:
000084: 07,2736           03266                           TC       NOATTOFF                              #  TURN OFF NO ATT LAMP.
000085:
000086: 07,2737           34747                           CAF      BIT5
000087: 07,2740           00006                           EXTEND
000088: 07,2741           05012                           WOR      CHAN12
000089:
000090: 07,2742           05457                           TC       ZEROICDU
000091: 07,2743           34746                           CAF      BIT6                                  #  WAIT 320 MS TO GIVE AGS ADEQUATE TIME TO
000092: 07,2744           05203                           TC       WAITLIST                              #  RECEIVE ITS PULSE TRAIN.
000093: 07,2745  E3,1474                                  EBANK=   CDUIND
000094: 07,2745           02757 16103                     2CADR    IMUZERO2
000095:
000096: 07,2747           41302                           CS       IMODES30                              #  SEE IF IMU OPERATING AND ALARM IF NOT.
000097: 07,2750           74743                           MASK     BIT9
000098: 07,2751           10000                           CCS      A
000099: 07,2752           12755                           TCF      MODEEXIT


000101: 07,2753           05567                           TC       ALARM
000102: 07,2754           00210                           OCT      210
000103:
000104: 07,2755           00003        MODEEXIT           RELINT                                         #  GENERAL MODE-SWITCHING EXIT.
000105: 07,2756           14631                           TCF      SWRETURN
000106:
000107: 07,2757           03641        IMUZERO2           TC       CAGETEST
000108: 07,2760           05457                           TC       ZEROICDU                              #  ZERO CDUX, CDUY, CDUZ
000109:
000110: 07,2761           44747                           CS       BIT5                                  #  REMOVE ZERO DISCRETE.
000111: 07,2762           00006                           EXTEND
000112: 07,2763           03012                           WAND     CHAN12
000113:
000114: 07,2764           34741                           CAF      BIT11                                 #  WAIT 10 SECS FOR CTRS TO FIND GIMBALS
000115: 07,2765           05224                           TC       VARDELAY
000116:
000117: 07,2766           03641        IMUZERO3           TC       CAGETEST
000118: 07,2767           45751                           CS       BITS3&4                               #  REMOVE IMUFAIL AND ICDUFAIL INHIBIT.
000119: 07,2770           71302                           MASK     IMODES30
000120: 07,2771           55302                           TS       IMODES30
000121:
000122: 07,2772           44773                           CS       SUPER011                              #  ENABLE DAP AUTO AND HOLD MODES
000123: 07,2773           71303                           MASK     IMODES33                              #        BIT5 FOR GROUND
000124: 07,2774           55303                           TS       IMODES33
000125:
000126: 07,2775           04674                           TC       IBNKCALL                              #  SET ISS WARNING IF EITHER OF ABOVE ARE
000127: 07,2776           14703                           CADR     SETISSW                               #  PRESENT.
000128:
000129: 07,2777           13631                           TCF      ENDIMU
000130:


000132:                                                                                                  #  IMU COARSE ALIGN MODE.
000133:
000134: 07,3000           00004        IMUCOARS           INHINT
000135: 07,3001           03653                           TC       CAGETSTJ
000136: 07,3002           03144                           TC       SETCOARS
000137:
000138: 07,3003           36242                           CAF      SIX
000139: 07,3004           05203                           TC       WAITLIST
000140: 07,3005  E3,1474                                  EBANK=   CDUIND
000141: 07,3005           03010 16103                     2CADR    COARS
000142:
000143: 07,3007           12755                           TCF      MODEEXIT
000144:
000145: 07,3010           03641        COARS              TC       CAGETEST
000146: 07,3011           34746                           CAF      BIT6                                  #  ENABLE ALL THREE ISS CDU ERROR COUNTERS
000147: 07,3012           00006                           EXTEND
000148: 07,3013           05012                           WOR      CHAN12
000149:
000150: 07,3014           34752                           CAF      TWO                                   #  SET CDU INDICATOR
000151: 07,3015           55474        COARS1             TS       CDUIND
000152:
000153: 07,3016           51474                           INDEX    CDUIND                                #  COMPUTE THETAD -- THETAA IN 1'S
000154: 07,3017           30321                           CA       THETAD                                #        COMPLEMENT FORM
000155: 07,3020           00006                           EXTEND
000156: 07,3021           51474                           INDEX    CDUIND
000157: 07,3022           20032                           MSU      CDUX
000158: 07,3023           00006                           EXTEND
000159: 07,3024           74737                           MP       BIT13                                 #  SHIFT RIGHT 2
000160: 07,3025           56001                           XCH      L                                     #  ROUND
000161: 07,3026           60000                           DOUBLE
000162: 07,3027           54061                           TS       ITEMP1
000163: 07,3030           13032                           TCF      +2
000164: 07,3031           26001                           ADS      L
000165:
000166: 07,3032           51474                           INDEX    CDUIND                                #  DIFFERENCE TO BE COMPUTED
000167: 07,3033           23471                           LXCH     COMMAND
000168: 07,3034           11474                           CCS      CDUIND
000169: 07,3035           03015                           TC       COARS1
000170:
000171: 07,3036           34752                           CAF      TWO                                   #  MINIMUM OF 4 MS WAIT
000172: 07,3037           05224                           TC       VARDELAY
000173:


000175: 07,3040           03641        COARS2             TC       CAGETEST                              #  DON'T CONTINUE IF CAGED.
000176: 07,3041           54061                           TS       ITEMP1                                #  SET TO +0.
000177: 07,3042           34752                           CAF      TWO                                   #  SET CDU INDICATOR.
000178: 07,3043           55474                 +3        TS       CDUIND
000179:
000180: 07,3044           51474                           INDEX    CDUIND
000181: 07,3045           11471                           CCS      COMMAND                               #  NUMBER OF PULSES REQUIRED
000182: 07,3046           03052                           TC       COMPOS                                #  GREATER THAN MAX ALLOWED
000183: 07,3047           03061                           TC       NEXTCDU    +1
000184: 07,3050           03117                           TC       COMNEG
000185: 07,3051           03061                           TC       NEXTCDU    +1
000186:
000187: 07,3052           63745        COMPOS             AD       -COMMAX                               #  COMMAX = MAX NUMBER OF PULSES ALLOWED
000188: 07,3053           00006                           EXTEND                                         #        MINUS ONE
000189: 07,3054           63127                           BZMF     COMZERO
000190: 07,3055           51474                           INDEX    CDUIND
000191: 07,3056           55471                           TS       COMMAND                               #  REDUCE COMMAND BY MAX NUMBER OF PULSES
000192: 07,3057           43746                           CS       -COMMAX-                              #        ALLOWED
000193:
000194: 07,3060           24061        NEXTCDU            INCR     ITEMP1
000195: 07,3061           64754                           AD       NEG0
000196: 07,3062           51474                           INDEX    CDUIND
000197: 07,3063           54050                           TS       CDUXCMD                               #  SET UP COMMAND REGISTER.
000198:
000199: 07,3064           11474                           CCS      CDUIND
000200: 07,3065           03043                           TC       COARS2     +3
000201:
000202: 07,3066           10061                           CCS      ITEMP1                                #  SEE IF ANY PULSES TO GO OUT.
000203: 07,3067           13133                           TCF      SENDPULS
000204:
000205: 07,3070           05221                           TC       FIXDELAY                              #  WAIT FOR GIMBALS TO SETTLE.
000206: 07,3071           00226                           DEC      150        B-14
000207:
000208: 07,3072           34752                           CAF      TWO                                   #  AT END OF COMMAND, CHECK TO SEE THAT
000209: 07,3073           54061        CHKCORS            TS       ITEMP1                                #  GIMBALS ARE WITHIN 2 DEGREES OF THETAD.
000210: 07,3074           50000                           INDEX    A
000211: 07,3075           30032                           CA       CDUX
000212: 07,3076           00006                           EXTEND
000213: 07,3077           50061                           INDEX    ITEMP1
000214: 07,3100           20321                           MSU      THETAD
000215: 07,3101           10000                           CCS      A
000216: 07,3102           13110                           TCF      COARSERR
000217: 07,3103           13105                           TCF      CORSCHK2
000218: 07,3104           13110                           TCF      COARSERR
000219:


000221: 07,3105           10061        CORSCHK2           CCS      ITEMP1
000222: 07,3106           13073                           TCF      CHKCORS
000223: 07,3107           13631                           TCF      ENDIMU                                #  END OF COARSE ALIGNMENT
000224:
000225: 07,3110           63116        COARSERR           AD       COARSTOL                              #  2 DEGREES.
000226: 07,3111           00006                           EXTEND
000227: 07,3112           63105                           BZMF     CORSCHK2
000228:
000229: 07,3113           05567                           TC       ALARM                                 #  COARSE ALIGN ERROR.
000230: 07,3114           00211                           OCT      211
000231:
000232: 07,3115           13637                           TCF      IMUBAD
000233:
000234: 07,3116           77511        COARSTOL           DEC      -.01111                               #  2 DEGREES SCALED AT HALF-REVOLUTIONS
000235:
000236: 07,3117           63745        COMNEG             AD       -COMMAX
000237: 07,3120           00006                           EXTEND
000238: 07,3121           63127                           BZMF     COMZERO
000239: 07,3122           40000                           COM
000240: 07,3123           51474                           INDEX    CDUIND
000241: 07,3124           55471                           TS       COMMAND
000242: 07,3125           33746                           CA       -COMMAX-
000243: 07,3126           03060                           TC       NEXTCDU
000244:
000245: 07,3127           34755        COMZERO            CAF      ZERO
000246: 07,3130           51474                           INDEX    CDUIND
000247: 07,3131           57471                           XCH      COMMAND
000248: 07,3132           03060                           TC       NEXTCDU
000249:
000250: 07,3133           37740        SENDPULS           CAF      13,14,15
000251: 07,3134           00006                           EXTEND
000252: 07,3135           05014                           WOR      CHAN14
000253: 07,3136           33747                           CAF      600MS
000254: 07,3137           13037                           TCF      COARS2     -1                         #  THEN TO VARDELAY
000255:
000256: 07,3140           34746        CA+ECE             CAF      BIT6                                  #  ENABLE ALL THREE ISS CDU ERROR COUNTERS
000257: 07,3141           00006                           EXTEND
000258: 07,3142           05012                           WOR      CHAN12
000259: 07,3143           05261                           TC       TASKOVER
000260:


000262: 07,3144           34750        SETCOARS           CAF      BIT4                                  #  BYPASS IF ALREADY IN COARSE ALIGN
000263: 07,3145           00006                           EXTEND
000264: 07,3146           02012                           RAND     CHAN12
000265: 07,3147           10000                           CCS      A
000266: 07,3150           00002                           TC       Q
000267:
000268: 07,3151           44746                           CS       BIT6                                  #  CLEAR ISS ERROR COUNTERS
000269: 07,3152           00006                           EXTEND
000270: 07,3153           03012                           WAND     CHAN12
000271:
000272: 07,3154           44742                           CS       BIT10                                 #  KNOCK DOWN GYRO ACTIVITY
000273: 07,3155           00006                           EXTEND
000274: 07,3156           03014                           WAND     CHAN14
000275: 07,3157           44755                           CS       ZERO
000276: 07,3160           54047                           TS       GYROCMD
000277:
000278: 07,3161           34750                           CAF      BIT4                                  #  PUT ISS IN COARSE ALIGN
000279: 07,3162           00006                           EXTEND
000280: 07,3163           05012                           WOR      CHAN12
000281:
000282: 07,3164           41036                           CS       DSPTAB     +11D                       #  TURN ON NO ATT LAMP
000283: 07,3165           73207                           MASK     OCT40010
000284: 07,3166           27036                           ADS      DSPTAB     +11D
000285:
000286: 07,3167           41303                           CS       IMODES33                              #  DISABLE DAP AUTO AND HOLD MODES
000287: 07,3170           74746                           MASK     BIT6
000288: 07,3171           27303                           ADS      IMODES33
000289:
000290: 07,3172           41302                           CS       IMODES30                              #  DISABLE IMUFAIL
000291: 07,3173           74750                           MASK     BIT4
000292: 07,3174           27302                           ADS      IMODES30
000293:
000294: 07,3175           44747        RNDREFDR           CS       TRACKBIT                              #  CLEAR TRACK FLAG
000295: 07,3176           70075                           MASK     FLAGWRD1
000296: 07,3177           54075                           TS       FLAGWRD1
000297:
000298: 07,3200           44735                           CS       DRFTBIT                               #  CLEAR DRIFT FLAG
000299: 07,3201           70076                           MASK     FLAGWRD2
000300: 07,3202           54076                           TS       FLAGWRD2
000301:
000302: 07,3203           44737                           CS       REFSMBIT                              #  CLEAR REFSMMAT FLAG
000303: 07,3204           70077                           MASK     FLAGWRD3
000304: 07,3205           54077                           TS       FLAGWRD3
000305:
000306: 07,3206           00002                           TC       Q
000307:
000308: 07,3207           40010        OCT40010           OCT      40010
000309:


000311:                                                                                                  #  IMU FINE ALIGN MODE SWITCH.
000312:
000313: 07,3210           00004        IMUFINE            INHINT
000314: 07,3211           03653                           TC       CAGETSTJ                              #  SEE IF IMU BEING CAGED.
000315:
000316: 07,3212           43744                           CS       BITS4-5                               #  RESET ZERO AND COARSE
000317: 07,3213           00006                           EXTEND
000318: 07,3214           03012                           WAND     CHAN12
000319:
000320: 07,3215           44746                           CS       BIT6                                  #  INSURE DAP AUTO AND HOLD MODES ENABLED
000321: 07,3216           71303                           MASK     IMODES33
000322: 07,3217           55303                           TS       IMODES33
000323:
000324: 07,3220           03266                           TC       NOATTOFF
000325:
000326: 07,3221           34742                           CAF      BIT10                                 #  IMU FAIL WAS INHIBITED DURING THE
000327: 07,3222           05203                           TC       WAITLIST                              #  PRESUMABLY PRECEDING COARSE ALIGN.  LEAVE
000328: 07,3223  E3,1474                                  EBANK=   CDUIND
000329: 07,3223           03234 16103                     2CADR    IFAILOK                               #  IT ON FOR THE FIRST 5 SECS OF FINE ALIGN
000330:
000331: 07,3225           35000                           CAF      2SECS
000332: 07,3226           05203                           TC       WAITLIST
000333: 07,3227  E3,1474                                  EBANK=   CDUIND
000334: 07,3227           03232 16103                     2CADR    IMUFINED
000335:
000336: 07,3231           12755                           TCF      MODEEXIT
000337:
000338: 07,3232           03641        IMUFINED           TC       CAGETEST                              #  SEE THAT NO ONE HAS CAGED THE IMU.
000339: 07,3233           13631                           TCF      ENDIMU
000340:


000342: 07,3234           03646        IFAILOK            TC       CAGETSTQ                              #  ENABLE IMU FAIL UNLESS IMU BEING CAGED.
000343: 07,3235           15261                           TCF      TASKOVER                              #  IT IS.
000344:
000345: 07,3236           34750                           CAF      BIT4                                  #  DON'T RESET IMU FAIL INHIBIT IF SOMEONE
000346: 07,3237           00006                           EXTEND                                         #  HAS GONE INTO COARSE ALIGN.
000347: 07,3240           02012                           RAND     CHAN12
000348: 07,3241           10000                           CCS      A
000349: 07,3242           15261                           TCF      TASKOVER
000350:
000351: 07,3243           41302                           CS       IMODES30                              #  RESET IMUFAIL.
000352: 07,3244           74737                           MASK     BIT13
000353: 07,3245           27302                           ADS      IMODES30
000354: 07,3246           44750                           CS       BIT4
000355: 07,3247           71302        PFAILOK2           MASK     IMODES30
000356: 07,3250           55302                           TS       IMODES30
000357: 07,3251           04674                           TC       IBNKCALL                              #  THE ISS WARNING LIGHT MAY COME ON NOW
000358: 07,3252           14703                           CADR     SETISSW                               #  THAT THE INHIBIT WAS BEEN REMOVED.
000359: 07,3253           15261                           TCF      TASKOVER
000360:
000361: 07,3254           03646        PFAILOK            TC       CAGETSTQ                              #  ENABLE PIP FAIL PROG ALARM.
000362: 07,3255           15261                           TCF      TASKOVER
000363:
000364: 07,3256           41302                           CS       IMODES30                              #  RESET IMU AND PIPA FAIL BITS.
000365: 07,3257           74742                           MASK     BIT10
000366: 07,3260           27302                           ADS      IMODES30
000367:
000368: 07,3261           41303                           CS       IMODES33
000369: 07,3262           74737                           MASK     BIT13
000370: 07,3263           27303                           ADS      IMODES33
000371:
000372: 07,3264           44747                           CS       BIT5
000373: 07,3265           13247                           TCF      PFAILOK2
000374:
000375: 07,3266           43207        NOATTOFF           CS       OCT40010                              #  SUBROUTINE TO TURN OFF NO ATT LAMP.
000376: 07,3267           71036                           MASK     DSPTAB     +11D
000377: 07,3270           64735                           AD       BIT15
000378: 07,3271           55036                           TS       DSPTAB     +11D
000379: 07,3272           00002                           TC       Q
000380:


000382:                                                                                                  #  ROUTINES TO INITIATE AND TERMINATE PROGRAM USE OF THE PIPAS.  NO IMUSTALL REQUIRED IN EITHER CASE.
000383:
000384: 07,3273           44755        PIPUSE             CS       ZERO
000385: 07,3274           54037                           TS       PIPAX
000386: 07,3275           54040                           TS       PIPAY
000387: 07,3276           54041                           TS       PIPAZ
000388:
000389: 07,3277           03646        PIPUSE1            TC       CAGETSTQ                              #  DO NOT ENABLE PIPA FAIL IF IMU IS CAGED
000390: 07,3300           14631                           TCF      SWRETURN
000391:
000392: 07,3301           00004                           INHINT
000393: 07,3302           44753                           CS       BIT1                                  #  IF PIPA FAILS FROM NOW ON (UNTIL
000394: 07,3303           71302                           MASK     IMODES30                              #  PIPFREE), LIGHT ISS WARNING.
000395: 07,3304           55302                           TS       IMODES30
000396:
000397: 07,3305           04674        PIPFREE2           TC       IBNKCALL                              #  ISS WARNING MIGHT COME ON NOW.
000398: 07,3306           14703                           CADR     SETISSW                               #  (OR GO OFF ON PIPFREE).
000399:
000400: 07,3307           12755                           TCF      MODEEXIT
000401:
000402: 07,3310           00004        PIPFREE            INHINT                                         #  PROGRAM DONE WITH PIPAS.  DON'T LIGHT
000403: 07,3311           41302                           CS       IMODES30                              #  ISS WARNING.
000404: 07,3312           74753                           MASK     BIT1
000405: 07,3313           27302                           ADS      IMODES30
000406:
000407: 07,3314           74742                           MASK     BIT10                                 #  IF PIP FAIL ON, DO PROG ALARM AND RESET
000408: 07,3315           10000                           CCS      A                                     #  ISS WARNING.
000409: 07,3316           12755                           TCF      MODEEXIT
000410:
000411: 07,3317           05567                           TC       ALARM
000412: 07,3320           00212                           OCT      212
000413:
000414: 07,3321           00004                           INHINT
000415:
000416: 07,3322           13305                           TCF      PIPFREE2
000417:


000419:                                                                                                  #  THE FOLLOWING ROUTINE TORQUES THE IRIGS ACCORDING TO DOUBLE PRECISION INPUTS IN THE SIXE REGISTERS
000420:                                                                                                  #  BEGINNING AT THE ECADR ARRIVING IN A.  THE MINIMUM SIZE OF ANY PULSE TRAIN IS 16 PULSES (.25 CDU COUNTS).  THE
000421:                                                                                                  #  UNSENT PORTION OF THE COMMAND IS LEFT INTACT AT THE INPUT COMMAND REGISTERS.
000422:
000423: 07,3323  E3,1400                                  EBANK=   1400                                  #  VARIABLE, ACTUALLY.
000424:
000425: 07,3323           54161        IMUPULSE           TS       MPAC       +5                         #  SAVE ARRIVING ECADR.
000426: 07,3324           03653                           TC       CAGETSTJ                              #  DON'T PROCEED IF IMU BEING CAGED.
000427:
000428: 07,3325           11314                           CCS      LGYRO                                 #  SEE IF GYROS BUSY.
000429: 07,3326           03367                           TC       GYROBUSY                              #  SLEEP.
000430:
000431: 07,3327           54156                           TS       MPAC       +2
000432: 07,3330           34746                           CAF      BIT6                                  #  ENABLE THE POWER SUPPLY.
000433: 07,3331           00006                           EXTEND
000434: 07,3332           05014                           WOR      CHAN14
000435:
000436: 07,3333           34751                           CAF      FOUR
000437: 07,3334           05203        GWAKE2             TC       WAITLIST                              #  (IF A JOB WAS PUT TO SLEEP, THE POWER
000438: 07,3335  E3,1474                                  EBANK=   CDUIND                                #  SUPPLY IS LEFT ON BY THE WAKING JOB).
000439: 07,3335           03405 16103                     2CADR    STRTGYRO
000440:
000441: 07,3337           30161                           CA       MPAC       +5                         #  SET UP EBANK, SAVING CALLER'S EBANK FOR
000442: 07,3340           56003                           XCH      EBANK                                 #  RESTORATION ON RETURN.
000443: 07,3341           56161                           XCH      MPAC       +5
000444: 07,3342           55314                           TS       LGYRO                                 #  RESERVES GYROS.
000445: 07,3343           74357                           MASK     LOW8
000446: 07,3344           54061                           TS       ITEMP1
000447:
000448: 07,3345           34752                           CAF      TWO                                   #  FORCE SIGN AGREEMENT ON INPUTS.
000449: 07,3346           54157        GYROAGRE           TS       MPAC       +3
000450: 07,3347           60000                           DOUBLE
000451: 07,3350           60061                           AD       ITEMP1
000452: 07,3351           54160                           TS       MPAC       +4
000453: 07,3352           00006                           EXTEND
000454: 07,3353           50000                           INDEX    A
000455: 07,3354           31401                           DCA      1400
000456: 07,3355           52155                           DXCH     MPAC
000457: 07,3356           07257                           TC       TPAGREE
000458: 07,3357           52155                           DXCH     MPAC
000459: 07,3360           50160                           INDEX    MPAC       +4
000460: 07,3361           53401                           DXCH     1400
000461:
000462: 07,3362           10157                           CCS      MPAC       +3
000463: 07,3363           13346                           TCF      GYROAGRE
000464:
000465: 07,3364           30161                           CA       MPAC       +5                         #  RESTORE CALLER'S EBANK.
000466: 07,3365           54003                           TS       EBANK
000467: 07,3366           12755                           TCF      MODEEXIT
000468:


000470:                                                                                                  #  ROUTINES TO ALLOW TORQUING ONLY ONE JOB AT A TIME.
000471:
000472: 07,3367           00006        GYROBUSY           EXTEND                                         #  SAVE RETURN 2FCADR.
000473: 07,3370           30134                           DCA      BUF2
000474: 07,3371           52155                           DXCH     MPAC
000475: 07,3372           33404        REGSLEEP           CAF      LGWAKE
000476: 07,3373           15133                           TCF      JOBSLEEP
000477:
000478: 07,3374           11314        GWAKE              CCS      LGYRO                                 #  WHEN AWAKENED, SEE IF GYROS STILL BUSY.
000479: 07,3375           13372                           TCF      REGSLEEP                              #  IF SO, SLEEP SOME MORE.
000480:
000481: 07,3376           54156                           TS       MPAC       +2
000482: 07,3377           00006                           EXTEND
000483: 07,3400           30155                           DCA      MPAC
000484: 07,3401           52134                           DXCH     BUF2                                  #  RESTORE SWRETURN INFO.
000485: 07,3402           34753                           CAF      ONE
000486: 07,3403           13334                           TCF      GWAKE2
000487:
000488: 07,3404           17374        LGWAKE             CADR     GWAKE
000489:


000491:                                                                                                  #  GYRO-TORQUING WAITLIST TASKS.
000492:
000493: 07,3405           43626        STRTGYRO           CS       GDESELCT                              #  DE-SELECT LAST GYRO.
000494: 07,3406           00006                           EXTEND
000495: 07,3407           03014                           WAND     CHAN14
000496:
000497: 07,3410           03641                           TC       CAGETEST
000498:
000499: 07,3411           31314        STRTGYR2           CA       LGYRO                                 #  JUMP ON PHASE COUNTER IN BITS 13-14.
000500: 07,3412           00006                           EXTEND
000501: 07,3413           74750                           MP       BIT4
000502: 07,3414           50000                           INDEX    A
000503: 07,3415           13416                           TCF      +1
000504: 07,3416           03433                           TC       GSELECT                               #  =0.  DO Y GYRO.
000505: 07,3417           00202                           OCT      00202
000506:
000507: 07,3420           03433                           TC       GSELECT                               #  =1.  DO Z GYRO.
000508: 07,3421           00302                           OCT      00302
000509:
000510: 07,3422           03431                           TC       GSELECT    -2                         #  =2.  DO X GYRO.
000511: 07,3423           00100                           OCT      00100
000512:
000513: 07,3424           34755                           CAF      ZERO                                  #  =3.  DONE
000514: 07,3425           55314                           TS       LGYRO
000515: 07,3426           33404                           CAF      LGWAKE                                #  WAKE A POSSIBLE SLEEPING JOB.
000516: 07,3427           05137                           TC       JOBWAKE
000517:
000518: 07,3430           13232        NORESET            TCF      IMUFINED                              #  DO NOT RESET POWER SUPPLY.


000520: 07,3431           44751                 -2        CS       FOUR                                  #  SPECIAL ENTRY TO REGRESS LGYRO FOR X.
000521: 07,3432           27314                           ADS      LGYRO
000522:
000523: 07,3433           50002        GSELECT            INDEX    Q                                     #  SELECT GYRO.
000524: 07,3434           30000                           CAF      0                                     #  PACKED WORD CONTAINS GYRO SELECT BITS
000525: 07,3435           54064                           TS       ITEMP4                                #  AND INCREMENT TO LGYRO.
000526: 07,3436           74757                           MASK     SEVEN
000527: 07,3437           64737                           AD       BIT13
000528: 07,3440           27314                           ADS      LGYRO
000529: 07,3441           54003                           TS       EBANK
000530: 07,3442           74357                           MASK     LOW8
000531: 07,3443           54061                           TS       ITEMP1
000532:
000533: 07,3444           44757                           CS       SEVEN
000534: 07,3445           70064                           MASK     ITEMP4
000535: 07,3446           54064                           TS       ITEMP4
000536:
000537: 07,3447           00006                           EXTEND                                         #  MOVE DP COMMAND TO RUPTREGS FOR TESTING.
000538: 07,3450           50061                           INDEX    ITEMP1
000539: 07,3451           31401                           DCA      1400
000540: 07,3452           52071                           DXCH     RUPTREG1
000541:
000542: 07,3453           10070                           CCS      RUPTREG1
000543: 07,3454           13467                           TCF      MAJ+
000544: 07,3455           13457                           TCF      +2
000545: 07,3456           13607                           TCF      MAJ-
000546:
000547: 07,3457           10071                           CCS      RUPTREG2
000548: 07,3460           13464                           TCF      MIN+
000549: 07,3461           13411                           TCF      STRTGYR2
000550: 07,3462           13604                           TCF      MIN-
000551: 07,3463           13411                           TCF      STRTGYR2
000552:


000554: 07,3464           63520        MIN+               AD       -GYROMIN                              #  SMALL POSITIVE COMMAND.  SEE IF AT LEAST
000555: 07,3465           00006                           EXTEND                                         #  16 GYRO PULSES.
000556: 07,3466           63411                           BZMF     STRTGYR2
000557:
000558: 07,3467           00006        MAJ+               EXTEND                                         #  DEFINITE POSITIVE OUTPUT.
000559: 07,3470           33630                           DCA      GYROFRAC
000560: 07,3471           20071                           DAS      RUPTREG1
000561:
000562: 07,3472           30064                           CA       ITEMP4                                #  SELECT POSITIVE TORQUING FOR THIS GYRO.
000563: 07,3473           00006                           EXTEND
000564: 07,3474           05014                           WOR      CHAN14
000565:
000566: 07,3475           36074                           CAF      LOW7                                  #  LEAVE NUMBER OF POSSIBLE 8192 AUGMENTS
000567: 07,3476           70071                           MASK     RUPTREG2                              #  TO INITIAL COMMAND IN MAJOR PART OF LONG
000568: 07,3477           56071                           XCH      RUPTREG2                              #  TERM STORAGE AND TRUNCATED FRACTION
000569: 07,3500           00006        GMERGE             EXTEND                                         #  IN MINOR PART.  THE MAJOR PART WILL BE
000570: 07,3501           74744                           MP       BIT8                                  #  COUNTED DOWN TO ZERO IN THE COURSE OF
000571: 07,3502           54062                           TS       ITEMP2                                #  PUTTING OUT THE ENTIRE COMMAND.
000572: 07,3503           30070                           CA       RUPTREG1
000573: 07,3504           00006                           EXTEND
000574: 07,3505           74743                           MP       BIT9
000575: 07,3506           54070                           TS       RUPTREG1
000576: 07,3507           30001                           CA       L
000577: 07,3510           00006                           EXTEND
000578: 07,3511           74736                           MP       BIT14
000579: 07,3512           26062                           ADS      ITEMP2                                #  INITIAL COMMAND.
000580:
000581: 07,3513           00006                           EXTEND                                         #  SEE IF MORE THAN ONE PULSE TRAIN NEEDED
000582: 07,3514           30071                           DCA      RUPTREG1                              #  (MORE THAN 16383 PULSES).
000583: 07,3515           67747                           AD       MINUS1
000584: 07,3516           10000                           CCS      A
000585: 07,3517           13543                           TCF      LONGGYRO
000586: 07,3520           77601        -GYROMIN           OCT      -176                                  #  MAY BE ADJUSTED TO SPECIFY MINIMUM CMD
000587: 07,3521           13525                           TCF      +4
000588:
000589: 07,3522           34736                           CAF      BIT14
000590: 07,3523           26062                           ADS      ITEMP2
000591: 07,3524           34755                           CAF      ZERO
000592:
000593: 07,3525           50061                 +4        INDEX    ITEMP1
000594: 07,3526           53401                           DXCH     1400


000596: 07,3527           30062                           CA       ITEMP2                                #  ENTIRE COMMAND.
000597: 07,3530           54047        LASTSEG            TS       GYROCMD
000598: 07,3531           00006                           EXTEND
000599: 07,3532           74742                           MP       BIT10                                 #  WAITLIST DT
000600: 07,3533           66245                           AD       THREE                                 #  TRUNCATION AND PHASE UNCERTAINTIES.
000601: 07,3534           05203                           TC       WAITLIST
000602: 07,3535  E3,1474                                  EBANK=   CDUIND
000603: 07,3535           03405 16103                     2CADR    STRTGYRO
000604:
000605: 07,3537           34742        GYROEXIT           CAF      BIT10
000606: 07,3540           00006                           EXTEND
000607: 07,3541           05014                           WOR      CHAN14
000608: 07,3542           15261                           TCF      TASKOVER
000609:
000610: 07,3543           50061        LONGGYRO           INDEX    ITEMP1
000611: 07,3544           53401                           DXCH     1400                                  #  INITIAL COMMAND OUT PLUS N AUGMENTS OF
000612: 07,3545           34736                           CAF      BIT14                                 #  8192.  INITIAL COMMAND IS AT LEAST 8192.
000613: 07,3546           60062                           AD       ITEMP2
000614: 07,3547           54047                           TS       GYROCMD
000615:
000616: 07,3550           00006        AUG3               EXTEND                                         #  GET WAITLIST DT TO TIME WHEN TRAIN IS
000617: 07,3551           74742                           MP       BIT10                                 #  ALMOST OUT.
000618: 07,3552           67745                           AD       NEG3
000619: 07,3553           05203                           TC       WAITLIST
000620: 07,3554  E3,1474                                  EBANK=   CDUIND
000621: 07,3554           03557 16103                     2CADR    8192AUG
000622:
000623: 07,3556           13537                           TCF      GYROEXIT
000624:
000625: 07,3557           03641        8192AUG            TC       CAGETEST
000626:
000627: 07,3560           34750                           CAF      BIT4
000628: 07,3561           00006                           EXTEND
000629: 07,3562           02012                           RAND     CHAN12
000630: 07,3563           10000                           CCS      A
000631: 07,3564           13637                           TCF      IMUBAD
000632: 07,3565           31314                           CA       LGYRO                                 #  ADD 8192 PULSES TO GYROCMD
000633: 07,3566           54003                           TS       EBANK
000634: 07,3567           74357                           MASK     LOW8
000635: 07,3570           54061                           TS       ITEMP1
000636:
000637: 07,3571           50061                           INDEX    ITEMP1                                #  SEE IF THIS IS THE LAST AUG.
000638: 07,3572           11400                           CCS      1400
000639: 07,3573           13577                           TCF      AUG2                                  #  MORE TO COME.
000640:
000641: 07,3574           34736                           CAF      BIT14
000642: 07,3575           26047                           ADS      GYROCMD
000643: 07,3576           13531                           TCF      LASTSEG    +1
000644:


000646: 07,3577           50061        AUG2               INDEX    ITEMP1
000647: 07,3600           55400                           TS       1400
000648: 07,3601           34736                           CAF      BIT14
000649: 07,3602           26047                           ADS      GYROCMD
000650: 07,3603           13550                           TCF      AUG3                                  #  COMPUTE DT.
000651:


000653: 07,3604           63520        MIN-               AD       -GYROMIN                              #  POSSIBLE NEGATIVE OUTPUT.
000654: 07,3605           00006                           EXTEND
000655: 07,3606           63411                           BZMF     STRTGYR2
000656:
000657: 07,3607           00006        MAJ-               EXTEND                                         #  DEFINITE NEGATIVE OUTPUT.
000658: 07,3610           43630                           DCS      GYROFRAC
000659: 07,3611           20071                           DAS      RUPTREG1
000660:
000661: 07,3612           30064                           CA       ITEMP4                                #  SELECT NEGATIVE TORQUING FOR THIS GYRO.
000662: 07,3613           64743                           AD       BIT9
000663: 07,3614           00006                           EXTEND
000664: 07,3615           05014                           WOR      CHAN14
000665:
000666: 07,3616           40070                           CS       RUPTREG1                              #  SET UP RUPTREGS TO FALL INTO GMERGE.
000667: 07,3617           54070                           TS       RUPTREG1                              #  ALL NUMBERS PUT INTO GYROCMD ARE
000668: 07,3620           40071                           CS       RUPTREG2                              #  POSITIVE -- BIT9 OF CHAN 14 DETERMINES
000669: 07,3621           76074                           MASK     LOW7                                  #  THE SIGN OF THE COMMAND.
000670: 07,3622           40000                           COM
000671: 07,3623           56071                           XCH      RUPTREG2
000672: 07,3624           40000                           COM
000673: 07,3625           13500                           TCF      GMERGE
000674:
000675: 07,3626           01700        GDESELCT           OCT      1700                                  #  TURN OFF SELECT AND ACTIVITY BITS.
000676:
000677: 07,3627           00000 00034  GYROFRAC           2DEC     .215       B-21
000678:


000680:                                                                                                  #  IMU MODE SWITCHING ROUTINES COME HERE WHEN ACTION COMPLETE.
000681:
000682: 07,3631           00006        ENDIMU             EXTEND                                         #  MODE IS BAD IF CAGE HAS OCCURRED OR IF
000683: 07,3632           00011                           READ     DSALMOUT                              #  ISS WARNING IS ON.
000684: 07,3633           74753                           MASK     BIT1
000685: 07,3634           10000                           CCS      A
000686: 07,3635           13637                           TCF      IMUBAD
000687:
000688: 07,3636           13665        IMUGOOD            TCF      GOODEND                               #  WITH C(A) = 0.
000689:
000690: 07,3637           34755        IMUBAD             CAF      ZERO
000691: 07,3640           13662                           TCF      BADEND
000692:
000693: 07,3641           34746        CAGETEST           CAF      BIT6                                  #  SUBROUTINE TO TERMINATE IMU MODE
000694: 07,3642           71302                           MASK     IMODES30                              #  SWITCH IF IMU HAS BEEN CAGED.
000695: 07,3643           10000                           CCS      A
000696: 07,3644           13637                           TCF      IMUBAD                                #  DIRECTLY.
000697: 07,3645           00002                           TC       Q                                     #  WITH C(A) = +0.
000698:
000699: 07,3646           41302        CAGETSTQ           CS       IMODES30                              #  SKIP IF IMU NOT BEING CAGED.
000700: 07,3647           74746                           MASK     BIT6
000701: 07,3650           10000                           CCS      A
000702: 07,3651           24002                           INCR     Q
000703: 07,3652           00002                           TC       Q
000704:
000705: 07,3653           41302        CAGETSTJ           CS       IMODES30                              #  IF DURING MODE SWITCH INITIALIZATION.
000706: 07,3654           74746                           MASK     BIT6                                  #  IT IS FOUND THAT THE IMU IS BEING CAGED.
000707: 07,3655           10000                           CCS      A                                     #  SET IMUCADR TO -0 TO INDICATE OPERATION
000708: 07,3656           00002                           TC       Q                                     #  COMPLETE BUT FAILED.  RETURN IMMEDIATELY
000709:
000710: 07,3657           44755                           CS       ZERO                                  #  TO SWRETURN.
000711: 07,3660           55304                           TS       IMUCADR
000712: 07,3661           12755                           TCF      MODEEXIT
000713:


000715:                                                                                                  #  GENERALIZED MODE SWITCHING TERMINATION.  ENTER AT GOODEND FOR SUCCESSFUL COMPLETION OF AN I/O OPERATION
000716:                                                                                                  #  OR AT BADEND FOR AN UNSUCCESSFUL ONE.  C(A) OR ARRIVAL =0 FOR IMU, 1 FOR OPTICS.
000717:
000718: 07,3662           54071        BADEND             TS       RUPTREG2                              #  DEVICE INDEX.
000719: 07,3663           44755                           CS       ZERO                                  #  FOR FAILURE.
000720: 07,3664           13667                           TCF      GOODEND    +2
000721:
000722: 07,3665           54071        GOODEND            TS       RUPTREG2
000723: 07,3666           44753                           CS       ONE                                   #  FOR SUCCESS.
000724:
000725: 07,3667           54072                           TS       RUPTREG3
000726: 07,3670           50071                           INDEX    RUPTREG2                              #  SEE IF USING PROGRAM ASLEEP.
000727: 07,3671           11304                           CCS      MODECADR
000728: 07,3672           13676                           TCF      +4                                    #  YES -- WAKE IT UP.
000729: 07,3673           13706                           TCF      ENDMODE                               #  IF 0, PROGRAM NOT IN YET.
000730:
000731: 07,3674           00006                           EXTEND
000732: 07,3675           13707                           BZF      ENDMODE    +1                         #  BZF = TCF IF MODECADR = -0.
000733:
000734: 07,3676           34755                           CAF      ZERO                                  #  WAKE SLEEPING PROGRAM.
000735: 07,3677           50071                           INDEX    RUPTREG2
000736: 07,3700           57304                           XCH      MODECADR
000737: 07,3701           05137                           TC       JOBWAKE
000738:
000739: 07,3702           40072                           CS       RUPTREG3                              #  ADVANCE LOC IF SUCCESSFUL.
000740: 07,3703           50064                           INDEX    LOCCTR
000741: 07,3704           26164                           ADS      LOC
000742:
000743: 07,3705           15261                           TCF      TASKOVER
000744:
000745: 07,3706           30072        ENDMODE            CA       RUPTREG3                              #  -0 INDICATES OPERATION COMPLETE BUT
000746: 07,3707           50071                 +1        INDEX    RUPTREG2                              #  UNSUCCESSFUL:  -1 INDICATES COMPLETE AND
000747: 07,3710           55304                           TS       MODECADR                              #  SUCCESSFUL.
000748: 07,3711           15261                           TCF      TASKOVER
000749:


000751:                                                                                                  #  GENERAL STALLING ROUTINE.  USING PROGRAMS COME HERE TO WAIT FOR I/O COMPLETION.
000752:
000753:                                                                                                  #  PROGRAM DESCRIPTION                           DATE -- 21 FEB 1967
000754:                                                                                                  #                                                LOG SECTION IMU MODE SWITCHING
000755:                                                                                                  #  MOD BY -- R. MELANSON TO ADD DOCUMENTATION    ASSEMBLY SUNDISK REV. 82
000756:
000757:                                                                                                  #  FUNCTIONAL DESCRIPTION --
000758:                                                                                                  #        TO DELAY FURTHER EXECUTION OF THE CALLING ROUTINE UNTIL ITS SELECTED
000759:                                                                                                  #        I/O FUNCTION IS COMPLETE.  THE FOLLOWING CHECKS ON THE CALLING ROUTINES
000760:                                                                                                  #        MODEECADR ARE MADE AND ACTED UPON.
000761:                                                                                                  #        1) +0 INDICATES INCOMPLETE I/O OPERATION.  CALLING ROUTINE IS PUT TO
000762:                                                                                                  #           SLEEP.
000763:                                                                                                  #        2) -1 INDICATES COMPLETED I/O OPERATION.  STALL BYPASSES JOBSLEEP
000764:                                                                                                  #           CALL AND RETURNS TO CALLING ROUTINE AT L+3.
000765:                                                                                                  #        3) -0 INDICATES COMPLETED I/O WITH FAILURE.  STALL CLEARS MODECADR
000766:                                                                                                  #           AND RETURNS TO CALLING ROUTINE AT L+2.
000767:                                                                                                  #        4) VALUE GREATER THAN 0 INDICATES TWO ROUTINES CALLING FOR USE OF
000768:                                                                                                  #           SAME DEVICE.  STALL EXITS TO ABORT WHICH EXECUTES A PROGRAM
000769:                                                                                                  #           RESTART WHICH IN TURN CLEARS ALL MODECADR REGISTERS.
000770:
000771:                                                                                                  #  CALLING SEQUENCE --
000772:                                                                                                  #        L       TC      BANKCALL
000773:                                                                                                  #        L+1     CADR    (ONE OF 5 STALL ADDRESSES.  I.E., IMUSTALL, OPTSTALL, RADSTALL,
000774:                                                                                                  #                        AOTSTALL, OR ATTSTALL)
000775:
000776:                                                                                                  #  NORMAL-EXIT MODE --
000777:                                                                                                  #        TCF JOBSLEEP    OR      TCF MODEXIT
000778:
000779:                                                                                                  #  ALARM OR ABORT EXIT MODE --
000780:                                                                                                  #        TC      ABORT
000781:
000782:                                                                                                  #  OUTPUT --
000783:                                                                                                  #        MODECADR=CADR   IF JOBSLEEP
000784:                                                                                                  #        MODECADR=+0     IF I/O COMPLETE
000785:                                                                                                  #        BUF2=L+3        IF I/O COMPLETE AND GOOD.
000786:                                                                                                  #        BUF2=L+2        IF I/O COMPLETE BUT FAILED.
000787:
000788:                                                                                                  #  ERASABLE INITIALIZATION --
000789:                                                                                                  #        BUF2 CONTAINS RETURN ADDRESS PLUS 1,(L+2)
000790:                                                                                                  #        BUF2+1 CONTAINS FBANK VALUE OF CALLING ROUTINE.
000791:                                                                                                  #        MODECADR OF CALLING ROUTINE CONTAINS +0,-1,-0 OR CADR RETURN ADDRESS.
000792:
000793:                                                                                                  #  DEBRIS --
000794:                                                                                                  #        RUPTREG2 AND CALLING ROUTINE MODECADR.
000795:


000797: 07,3712  30,2000                                  SBANK=   LOWSUPER


000799:
000800: 07,3712           34753        AOTSTALL           CAF      ONE                                   #  AOT.
000801: 07,3713           03717                           TC       STALL
000802:
000803: 07,3714           34752        RADSTALL           CAF      TWO
000804: 07,3715           13717                           TCF      STALL
000805:


000807: 07,3716  07,3712               OPTSTALL           EQUALS   AOTSTALL
000808:
000809: 07,3716           34755        IMUSTALL           CAF      ZERO                                  #  IMU.
000810:
000811: 07,3717           00004        STALL              INHINT
000812: 07,3720           54071                           TS       RUPTREG2                              #  SAVE DEVICE INDEX.
000813: 07,3721           50000                           INDEX    A                                     #  SEE IF OPERATION COMPLETE.
000814: 07,3722           11304                           CCS      MODECADR
000815: 07,3723           13741                           TCF      MODABORT                              #  ALLOWABLE STATES ARE +0, -1, AND -0.
000816: 07,3724           13735                           TCF      MODESLP                               #  OPERATION INCOMPLETE.
000817: 07,3725           13731                           TCF      MODEGOOD                              #  COMPLETE AND GOOD IF = -1.
000818:
000819: 07,3726           50071        MG2                INDEX    RUPTREG2                              #  COMPLETE FAILED IF -0.  RESET TO +0.
000820: 07,3727           55304                           TS       MODECADR                              #  RETURN TO CALLER.
000821: 07,3730           12755                           TCF      MODEEXIT
000822:
000823: 07,3731           10000        MODEGOOD           CCS      A                                     #  MAKE SURE INITIAL STATE -1.
000824: 07,3732           13741                           TCF      MODABORT
000825:
000826: 07,3733           24133                           INCR     BUF2                                  #  IF SO, INCREMENT RETURN ADDRESS AND
000827: 07,3734           13726                           TCF      MG2                                   #  RETURN IMMEDIATELY, SETTIN CADR = +0.
000828:
000829: 07,3735           04645        MODESLP            TC       MAKECADR                              #  CALL FROM SWITCHABLE FIXED ONLY.
000830: 07,3736           50071                           INDEX    RUPTREG2
000831: 07,3737           55304                           TS       MODECADR
000832: 07,3740           15133                           TCF      JOBSLEEP
000833:
000834: 07,3741           52134        MODABORT           DXCH     BUF2
000835: 07,3742           05716                           TC       BAILOUT1                              #  TWO PROGRAMS USING THE SAME DEVICE.
000836: 07,3743           01210                           OCT      1210
000837:


000839:                                                                                                  #  CONSTANTS FOR MODE SWITCHING ROUTINES
000840:
000841: 07,3744     5751               BITS3&4            =        OCT14
000842: 07,3744     4771               BITS4&6            =        OCT50
000843: 07,3744           00030        BITS4-5            OCT      00030
000844: 07,3745     4744               IMUSEFLG           EQUALS   BIT8                                  #  INTERPRETER SWITCH 7.
000845: 07,3745           77500        -COMMAX            DEC      -191       B-14
000846: 07,3746           77477        -COMMAX-           DEC      -192       B-14
000847: 07,3747           00074        600MS              DEC      60         B-14
000848: 07,3750  07,3210               IMUFIN20           =        IMUFINE
000849: 07,3750           31307        GOMANUR            CA       ATTCADR                               #  IS KALCMANU FREE
000850: 07,3751           00006                           EXTEND
000851: 07,3752           13755                           BZF      +3
000852:
000853: 07,3753           05652                           TC       P00DOO                                #  NO
000854: 07,3754           01210                           OCT      1210                                  #  2 TRYING TO USE SAME DEVICE
000855:
000856: 07,3755           00006                 +3        EXTEND
000857: 07,3756           30134                           DCA      BUF2
000858: 07,3757           53310                           DXCH     ATTCADR                               #  SAVE FINAL RETURN FOR KALCMAN3
000859:
000860: 07,3760           30006                           CA       BBANK
000861: 07,3761           74757                           MASK     SEVEN
000862: 07,3762           27310                           ADS      ATTCADR    +1
000863:
000864: 07,3763           30167                           CA       PRIORITY
000865: 07,3764           77725                           MASK     PRIO37
000866: 07,3765           55311                           TS       ATTPRIO                               #  SAVE USER'S PRIO
000867:
000868: 07,3766           33772                           CAF      KALEBCON                              #  SET EBANK FOR KALCMAN3
000869: 07,3767           54003                           TS       EBANK
000870: 07,3770           04635                           TC       POSTJUMP
000871: 07,3771           44004                           CADR     KALCMAN3
000872: 07,3772           03276        KALEBCON           ECADR    BCDU
000873:


000875:                                                                                                  #  PROGRAM DESCRIPTION
000876:                                                                                                  #  IMU STATUS CHECK ROUTINE R02 (SUBROUTINE UTILITY)
000877:                                                                                                  #  MOD NO -- 1
000878:                                                                                                  #  MOD BY -- N.BRODEUR
000879:
000880:                                                                                                  #  FUNCTIONAL DESCRIPTION
000881:                                                                                                  #        TO CHECK WHETHER IMU IS ON AND IF ON WHETHER IT IS ALIGNED TO AN
000882:                                                                                                  #        ORIENTATION KNOWN BY THE CMC.  TO REQUEST SELECTION OF THE APPROPRIATE
000883:                                                                                                  #        PROGRAM IF THE IMU IS OFF OR NOT ALIGNED TO AN ORIENTATION KNOWN BY THE
000884:                                                                                                  #        CMC.  CALLED THROUGH BANKCALL
000885:
000886:                                                                                                  #  CALLING SEQUENCE --
000887:                                                                                                  #        L       TC      BANKCALL
000888:                                                                                                  #        L+1     CADR    R02BOTH
000889:
000890:                                                                                                  #  SUBROUTINES CALLED
000891:                                                                                                  #        VARALARM
000892:                                                                                                  #        FLAGUP
000893:
000894:                                                                                                  #  NORMAL EXIT MODES
000895:                                                                                                  #        AT L+2 OF CALLING SEQUENCE
000896:
000897:                                                                                                  #  ALARM OR ABORT EXIT MODES
000898:                                                                                                  #        GOTOP00H, WITH ALARM
000899:
000900:                                                                                                  #  ERASABLE INITIALIZATION REQUIRED
000901:                                                                                                  #        NONE
000902:
000903:                                                                                                  #  DEBRIS
000904:                                                                                                  #        CENTRALS -- A,Q,L
000905:
000906: 34,3775                                           BANK     34
000907: 04,2000                                           SETLOC   R02
000908: 04,2000                                           BANK
000909: 04,3253                                           COUNT*   $$/R02
000910: 04,3253           00063        DEC51              DEC      51         B-14
000911: 04,3254           34737        R02BOTH            CAF      REFSMBIT
000912: 04,3255           70077                           MASK     FLAGWRD3
000913: 04,3256           10000                           CCS      A
000914: 04,3257           03270                           TC       R02ZERO                               #  ZERO IMUS
000915:
000916: 04,3260           31302                           CA       IMODES30
000917: 04,3261           74743                           MASK     BIT9                                  #  IS ISS INITIALIZED
000918: 04,3262           00006                           EXTEND
000919: 04,3263           13265                           BZF      +2
000920: 04,3264           44750                           CS       BIT4                                  #  SEND IMU ALARM CODE 210
000921: 04,3265           63273                           AD       OCT220                                #  SEND REFSMM ALARM
000922: 04,3266           05744                           TC       VARALARM
000923:
000924: 04,3267           06001                           TC       GOTOP00H
000925:
000926: 04,3270           05504        R02ZERO            TC       UPFLAG


000928: 04,3271           00007                           ADRES    IMUSE
000929: 04,3272           14631                           TCF      SWRETURN
000930: 04,3273           00220        OCT220             OCT      220
000931:


000933:                                                                                                  #  PROGRAM DESCRIPTION:  P06             10 FEB 67
000934:
000935:                                                                                                  #  TRANSFER THE ISS/CMC FROM THE OPERATE TO THE STANDBY CONDITION.
000936:
000937:                                                                                                  #  THE NORMAL CONDITION OF READINESS OF THE GNCS WHEN NOT IN USE IS STANDBY.  IN THIS CONDITION THE IMU
000938:                                                                                                  #  HEATER POWER IS ON.  THE IMU OPERATE POWER IS OFF.  THE COMPUTER POWER IS ON.  THE OPTICS POWER IS OFF.  THE
000939:                                                                                                  #  CMC STANDBY ON THE MAIN AND LEB DISKYS IS ON.
000940:
000941:                                                                                                  #  CALLING SEQUENCE:
000942:                                                                                                  #        ASTRONAUT REQUEST THROUGH DSKY  V37E 06E.
000943:
000944:                                                                                                  #  SUBROUTINES CALLED:
000945:                                                                                                  #        GOPERF1
000946:                                                                                                  #        BANKCALL
000947:                                                                                                  #        FLAGDOWN
000948:


000950:                                                                                                  #  PRESTAND PREPARES FOR STANDBY BY SNAPSHOTTING THE SCALER AND TIME1 TIME2.
000951:                                                                                                  #  THE LOW 5 BITS OF THE SCALER ARE INSPECTED TO INSURE COMPATIBILITY
000952:                                                                                                  #  BETWEEN THE SCALER READING AND THE TIME1 TIME2 READING.
000953:
000954: 37,2000                                           SETLOC   P05P06
000955: 37,2000                                           BANK
000956:
000957: 37,3655     0314                                  EBANK=   TIME2SAV
000958: 37,3655                                           COUNT*   $$/P06
000959:
000960: 37,3655           05504        P06                TC       UPFLAG                                #  SET NODOV37 BIT
000961: 37,3656           00054                           ADRES    NODOFLAG
000962:
000963: 37,3657           00004        PRESTAND           INHINT
000964: 37,3660           00006                           EXTEND
000965: 37,3661           30025                           DCA      TIME2                                 #  SNAPSHOT TIME1 TIME2
000966: 37,3662           52315                           DXCH     TIME2SAV
000967: 37,3663           03714                           TC       SCALPREP
000968: 37,3664           03657                           TC       PRESTAND                              #  T1,T2,SCALER NOT COMPATIBLE
000969: 37,3665           52155                           DXCH     MPAC                                  #  T1,T2 AND SCALER OK
000970: 37,3666           52317                           DXCH     SCALSAVE                              #  STORE SCALER
000971: 37,3667           00004                           INHINT
000972: 37,3670           04616                           TC       BANKCALL
000973: 37,3671           17175                           CADR     RNDREFDR                              #  REFSMM, DRIFT, TRACK FLAGS DOWN
000974:
000975: 37,3672           05516                           TC       DOWNFLAG
000976: 37,3673           00007                           ADRES    IMUSE                                 #  IMUSE DOWN
000977: 37,3674           05516                           TC       DOWNFLAG
000978: 37,3675           00010                           ADRES    RNDVZFLG                              #  RNDVZFLG DOWN
000979:
000980: 37,3676           34741                           CAF      BIT11
000981: 37,3677           00006                           EXTEND
000982: 37,3700           05013                           WOR      CHAN13                                #  SET STANDBY ENABLE BIT
000983:
000984: 37,3701           05353                           TC       PHASCHNG                              #  SET RESTART TO POSTAND WHEN STANDBY
000985: 37,3702           07024                           OCT      07024                                 #        RECOVERS
000986: 37,3703           20000                           OCT      20000
000987: 37,3704     0316                                  EBANK=   SCALSAVE
000988: 37,3704           03734 76060                     2CADR    POSTAND
000989:
000990: 37,3706           34774                           CAF      OCT62
000991: 37,3707           04616                           TC       BANKCALL
000992: 37,3710           20623                           CADR     GOPERF1
000993: 37,3711           13706                           TCF      -3
000994: 37,3712           13706                           TCF      -4
000995: 37,3713           13706                           TCF      -5
000996:
000997: 37,3714     4774               OCT62              EQUALS   .5SEC                                 #  DEC 50 = OCT 62
000998:
000999:                                                                                                  #  THE LOW 5 BITS OF THE SCALER READS 10000 FOR THE FIRST INTERVAL AFTER A


001001:                                                                                                  #  T1 INCREMENT.  IF SCALPREP DETECTS THIS INTERVAL THE T1,T2 AND SCALER
001002:                                                                                                  #  DATA ARE NOT COMPATIBLE AND RETURN IS TO L+1 FOR ANOTHER READING OF THE
001003:                                                                                                  #  DATA.  OTHERWISE, THE RETURN IS TO L+2 TO PROCEED.  ROUTINE ALSO PREPARES
001004:                                                                                                  #  THE SCALER READING FOR COMPUTATION OF THE INCREMENT TO UPDATE T1T2.  (THE
001005:                                                                                                  #  10 MS BIT (BIT 6) OF THE SCALER IS INCREMENTED 5 MS OUT OF PHASE FROM
001006:                                                                                                  #  T1.0 ADDITION OF 5 MS (BIT 5) TO THE SCALER READING HAS THE EFFECT OF
001007:                                                                                                  #  ADJUSTING BIT 6 IN THE SCALER TO BE IN PHASE WITH BIT 1 OF T1.  THE LOW 5
001008:                                                                                                  #  BITS OF THE SCALER READING ARE THEN SET TO ZERO, TO TRUNCATE THE SCALER
001009:                                                                                                  #  DATA TO 10 MS.  RESULTS ARE STORED IN MPAC, +1.
001010:
001011: 37,3714           00006        SCALPREP           EXTEND
001012: 37,3715           22156                           QXCH     MPAC       +2
001013: 37,3716           04103                           TC       FINETIME   +1
001014: 37,3717           00003                           RELINT
001015: 37,3720           52155                           DXCH     MPAC
001016: 37,3721           34747                           CA       BIT5                                  #  ADD 5 MS TO THE SCALER READING.
001017: 37,3722           54001                           TS       L
001018: 37,3723           34755                           CA       ZERO
001019: 37,3724           20155                           DAS      MPAC
001020: 37,3725           44346                           CS       LOW5                                  #  SET LOW 5 BITS OF (SCALER+5MS) TO ZERO
001021: 37,3726           70155                           MASK     MPAC       +1                         #  AND STORE RESULTS IN MPAC,+1.
001022: 37,3727           56155                           XCH      MPAC       +1
001023: 37,3730           74346                           MASK     LOW5                                  #  TEST LOW 5 BITS OF SCALER FOR THE FIRST
001024:                                                                                                  #  INTERVAL AFTER THE T1 INCREMENT
001025:                                                                                                  #  (NOW = 00000, SINCE BIT 5 ADDED).
001026: 37,3731           10000                           CCS      A                                     #  IS IT 1ST INTERVAL AFTER T1 INCREMENT
001027: 37,3732           24156                           INCR     MPAC       +2                         #  NO
001028: 37,3733           00156                           TC       MPAC       +2                         #  YES
001029:
001030:                                                                                                  #  POSTAND RECOVERS TIME AFTER STANDBY.  THE SCALER IS SNAPSHOTTED AND THE
001031:                                                                                                  #  TIME1 TIME2 COUNTER IS SET TO ZERO.  THE LOW 5 BITS OF THE SCALER ARE
001032:                                                                                                  #  INSPECTED TO INSURE COMPATIBILITY BETWEEN THE SCALER READING AND THE
001033:                                                                                                  #  CLEARING OF THE TIME COUNTER.  IT THEN COMPUTES THE DIFFERENCE IN SCALER
001034:                                                                                                  #  VALUES (IN DP) AND ADDS THIS TO THE PREVIOUSLY SNAPSHOTTED VALUES OF
001035:                                                                                                  #  TIME1 TIME2 AND PLACES THIS NEW TIME INTO THE TIME1 TIME2 COUNTER.
001036:
001037: 37,3734                                           COUNT*   $$/P05
001038:
001039: 37,3734           44741        POSTAND            CS       BIT11                                 #  RECOVER TIME AFTER STANDBY
001040: 37,3735           00006                           EXTEND
001041: 37,3736           03013                           WAND     CHAN13                                #  CLEAR STANDBY ENABLE BIT
001042: 37,3737           00004                           INHINT
001043: 37,3740           34755                           CA       ZERO
001044: 37,3741           54001                           TS       L
001045: 37,3742           52025                           DXCH     TIME2                                 #  CLEAR TIME1 TIME2
001046: 37,3743           03714                           TC       SCALPREP                              #  STORE SCALER IN MPAC, MPAC+1
001047: 37,3744           03737                           TC       POSTAND    +3                         #  T1,T2,SCALER NOT COMPATIBLE
001048: 37,3745           00006                           EXTEND                                         #  T1,T2 AND SCALER OK
001049: 37,3746           40317                           DCS      SCALSAVE
001050: 37,3747           20155                           DAS      MPAC                                  #  FORM DP DIFFERENCE OF POST-STANDBY SCALER


001052: 37,3750           34742                           CAF      BIT10                                 #  MINUS PRE-STANDBY SCALER AND SHIFT RIGHT
001053: 37,3751           07307                           TC       SHORTMP                               #  5 TO ALIGN BITS WITH TIME1 TIME2.
001054: 37,3752           34755                           CAF      ZERO
001055: 37,3753           54156                           TS       MPAC       +2                         #  NEEDED FOR TP AGREE
001056: 37,3754           07257                           TC       TPAGREE                               #  MAKE DP DIFF AGREE
001057: 37,3755           10154                           CCS      MPAC
001058: 37,3756           03763                           TC       POSTCOM                               #  IF DP DIFF NET +, NO SCALER OVERFLOW
001059: 37,3757           03763                           TC       POSTCOM                               #  BETWEEN PRE AND POST STANDBY.
001060: 37,3760           03761                           TC       +1                                    #  IF DP DIFF NET -, SCALER OVERFLOWED.  ADD
001061: 37,3761           34742                           CAF      BIT10                                 #  BIT 10 TO HIGH DIFF TO CORRECT.
001062: 37,3762           26154                           ADS      MPAC
001063: 37,3763           00006        POSTCOM            EXTEND                                         #  C(MPAC,+1) IS MAGNITUDE OF DELTA SCALER.
001064: 37,3764           30315                           DCA      TIME2SAV                              #  PRE-STANDBY TIME1 TIME2
001065: 37,3765           20155                           DAS      MPAC
001066: 37,3766           07257                           TC       TPAGREE                               #  FORCE SIGN AGREEMENT
001067: 37,3767           52155                           DXCH     MPAC                                  #  UPDATED VALUE FOR T1,T2.
001068: 37,3770           20025                           DAS      TIME2                                 #  LOAD UPDATED VALUE INTO T1,T2, WITH
001069: 37,3771           05516                           TC       DOWNFLAG                              #  CLEAR NODOFLAG
001070: 37,3772           00054                           ADRES    NODOFLAG
001071:
001072: 37,3773           06001                           TC       GOTOP00H
001073:

End of include-file IMU_MODE_SWITCHING_ROUTINES.agc.  Parent file is MAIN.agc


