
Source Code


000002:                                                                                                  ## Copyright:   Public domain.
000003:                                                                                                  ## Filename:    IMU_MODE_SWITCHING_ROUTINES.agc
000004:                                                                                                  ## Purpose:     Part of the source code for Luminary 1A build 099.
000005:                                                                                                  ##              It is part of the source code for the Lunar Module's (LM)
000006:                                                                                                  ##              Apollo Guidance Computer (AGC), for Apollo 11.
000007:                                                                                                  ## Assembler:   yaYUL
000008:                                                                                                  ## Contact:     Onno Hommes <ohommes@cmu.edu>.
000009:                                                                                                  ## Website:     www.ibiblio.org/apollo.
000010:                                                                                                  ## Pages:       1309-1337
000011:                                                                                                  ## Mod history: 2009-05-28 OH   Transcribed from page images.
000012:                                                                                                  ##              2009-06-05 RSB  Fixed a typo.
000013:                                                                                                  ##              2011-01-06 JL   Fixed pseudo-label indentation.
000014:                                                                                                  ##              2011-05-08 JL   Removed workaround. Flagged SBANK=
000015:                                                                                                  ##                              workaround for future removal.
000016:                                                                                                  ##              2016-12-13 RSB  GOTOP00H -> GOTOPOOH
000017:                                                                                                  ##              2016-12-18 RSB  Proofed text comments with octopus/ProoferComments
000018:                                                                                                  ##                              and corrected the errors found.
000019:                                                                                                  ##              2017-01-18 RRB  Found typo while updating for Luminary 69.
000020:                                                                                                  ##              2017-01-28 RSB  Comment-text fixes identified for Luminary 69.
000021:                                                                                                  ##              2017-03-13 RSB  Comment-text fixes noted in proofing Luminary 116.
000022:                                                                                                  ##              2017-03-15 RSB  Comment-text fixes identified in 6-way
000023:                                                                                                  ##                              side-by-side diff of Sunburst 120 and Luminary
000024:                                                                                                  ##                              69/99/116/131/210.
000025:
000026:                                                                                                  ## This source code has been transcribed or otherwise adapted from
000027:                                                                                                  ## digitized images of a hardcopy from the MIT Museum.  The digitization
000028:                                                                                                  ## was performed by Paul Fjeld, and arranged for by Deborah Douglas of
000029:                                                                                                  ## the Museum.  Many thanks to both.  The images (with suitable reduction
000030:                                                                                                  ## in storage size and consequent reduction in image quality as well) are
000031:                                                                                                  ## available online at www.ibiblio.org/apollo.  If for some reason you
000032:                                                                                                  ## find that the images are illegible, contact me at info@sandroid.org
000033:                                                                                                  ## about getting access to the (much) higher-quality images which Paul
000034:                                                                                                  ## actually created.
000035:                                                                                                  ##
000036:                                                                                                  ## Notations on the hardcopy document read, in part:
000037:                                                                                                  ##
000038:                                                                                                  ##      Assemble revision 001 of AGC program LMY99 by NASA 2021112-61
000039:                                                                                                  ##      16:27 JULY 14, 1969
000040:
000041:


000043:    5457                                           BLOCK    02
000044:    4000                                           SETLOC   FFTAG3
000045:    4000                                           BANK
000046:
000047:    5457  E3,1471                                  EBANK=   COMMAND
000048:
000049:                                                                                                  #  FIXED-FIXED ROUTINES.
000050:
000051:    5457                                           COUNT*   $$/IMODE
000052:    5457           34755        ZEROICDU           CAF      ZERO                                  #  ZERO ICDU COUNTERS.
000053:    5460           54032                           TS       CDUX
000054:    5461           54033                           TS       CDUY
000055:    5462           54034                           TS       CDUZ
000056:    5463           00002                           TC       Q
000057:
000058:    5464     4743               SPSCODE            =        BIT9
000059:


000061:                                                                                                  #  IMU ZEROING ROUTINE.
000062:
000063: 11,3776                                           BANK     11
000064: 07,2000                                           SETLOC   MODESW
000065: 07,2000                                           BANK
000066:
000067: 07,2714                                           COUNT*   $$/IMODE
000068: 07,2714           00004        IMUZERO            INHINT                                         #  ROUTINE TO ZERO ICDUS.
000069: 07,2715           41036                           CS       DSPTAB     +11D                       #  DONT ZERO CDUS IF IMU IN GIMBAL LOCK AND
000070: 07,2716           74771                           MASK     BITS4&6                               #  COARSE ALIGN (GIMBAL RUNAWAY PROTECTION)
000071: 07,2717           10000                           CCS      A
000072: 07,2720           12724                           TCF      IMUZEROA
000073:
000074: 07,2721           05567                           TC       ALARM                                 #  IF SO.
000075: 07,2722           00206                           OCT      00206
000076:
000077: 07,2723           13657                           TCF      CAGETSTJ   +4                         #  IMMEDIATE FAILURE.
000078:
000079: 07,2724           03653        IMUZEROA           TC       CAGETSTJ
000080:                                                                                                  #  DELETE
000081: 07,2725           41303                           CS       IMODES33                              #  DISABLE DAP AUTO AND HOLD MODES
000082: 07,2726           74773                           MASK     SUPER011                              #        BIT5 FOR GROUND
000083: 07,2727           27303                           ADS      IMODES33
000084:
000085: 07,2730           41302                           CS       IMODES30                              #  INHIBIT ICDUFAIL AND IMUFAIL (IN CASE WE
000086: 07,2731           75751                           MASK     BITS3&4                               #  JUST CAME OUT OF COARSE ALIGN).
000087: 07,2732           27302                           ADS      IMODES30
000088:
000089: 07,2733           44771                           CS       BITS4&6                               #  SEND ZERO ENCODE WITH COARSE AND ERROR
000090: 07,2734           00006                           EXTEND                                         #  COUNTER DISABLED.
000091: 07,2735           03012                           WAND     CHAN12
000092:
000093: 07,2736           03266                           TC       NOATTOFF                              #  TURN OFF NO ATT LAMP.
000094:
000095: 07,2737           34747                           CAF      BIT5
000096: 07,2740           00006                           EXTEND
000097: 07,2741           05012                           WOR      CHAN12
000098:
000099: 07,2742           05457                           TC       ZEROICDU
000100: 07,2743           34746                           CAF      BIT6                                  #  WAIT 320 MS TO GIVE AGS ADEQUATE TIME TO
000101: 07,2744           05203                           TC       WAITLIST                              #  RECEIVE ITS PULSE TRAIN.
000102: 07,2745  E3,1474                                  EBANK=   CDUIND
000103: 07,2745           02757 16103                     2CADR    IMUZERO2
000104:
000105: 07,2747           41302                           CS       IMODES30                              #  SEE IF IMU OPERATING AND ALARM IF NOT.
000106: 07,2750           74743                           MASK     BIT9
000107: 07,2751           10000                           CCS      A
000108: 07,2752           12755                           TCF      MODEEXIT


000110: 07,2753           05567                           TC       ALARM
000111: 07,2754           00210                           OCT      210
000112:
000113: 07,2755           00003        MODEEXIT           RELINT                                         #  GENERAL MODE-SWITCHING EXIT.
000114: 07,2756           14631                           TCF      SWRETURN
000115:
000116: 07,2757           03641        IMUZERO2           TC       CAGETEST
000117: 07,2760           05457                           TC       ZEROICDU                              #  ZERO CDUX, CDUY, CDUZ
000118:
000119: 07,2761           44747                           CS       BIT5                                  #  REMOVE ZERO DISCRETE.
000120: 07,2762           00006                           EXTEND
000121: 07,2763           03012                           WAND     CHAN12
000122:
000123: 07,2764           34741                           CAF      BIT11                                 #  WAIT 10 SECS FOR CTRS TO FIND GIMBALS
000124: 07,2765           05224                           TC       VARDELAY
000125:
000126: 07,2766           03641        IMUZERO3           TC       CAGETEST
000127: 07,2767           45751                           CS       BITS3&4                               #  REMOVE IMUFAIL AND ICDUFAIL INHIBIT.
000128: 07,2770           71302                           MASK     IMODES30
000129: 07,2771           55302                           TS       IMODES30
000130:
000131: 07,2772           44773                           CS       SUPER011                              #  ENABLE DAP AUTO AND HOLD MODES
000132: 07,2773           71303                           MASK     IMODES33                              #        BIT5 FOR GROUND
000133: 07,2774           55303                           TS       IMODES33
000134:
000135: 07,2775           04674                           TC       IBNKCALL                              #  SET ISS WARNING IF EITHER OF ABOVE ARE
000136: 07,2776           14703                           CADR     SETISSW                               #  PRESENT.
000137:
000138: 07,2777           13631                           TCF      ENDIMU
000139:


000141:                                                                                                  #  IMU COARSE ALIGN MODE.
000142:
000143: 07,3000           00004        IMUCOARS           INHINT
000144: 07,3001           03653                           TC       CAGETSTJ
000145: 07,3002           03144                           TC       SETCOARS
000146:
000147: 07,3003           36242                           CAF      SIX
000148: 07,3004           05203                           TC       WAITLIST
000149: 07,3005  E3,1474                                  EBANK=   CDUIND
000150: 07,3005           03010 16103                     2CADR    COARS
000151:
000152: 07,3007           12755                           TCF      MODEEXIT
000153:
000154: 07,3010           03641        COARS              TC       CAGETEST
000155: 07,3011           34746                           CAF      BIT6                                  #  ENABLE ALL THREE ISS CDU ERROR COUNTERS
000156: 07,3012           00006                           EXTEND
000157: 07,3013           05012                           WOR      CHAN12
000158:
000159: 07,3014           34752                           CAF      TWO                                   #  SET CDU INDICATOR
000160: 07,3015           55474        COARS1             TS       CDUIND
000161:
000162: 07,3016           51474                           INDEX    CDUIND                                #  COMPUTE THETAD - THETAA IN 1:S
000163: 07,3017           30321                           CA       THETAD                                #        COMPLEMENT FORM
000164: 07,3020           00006                           EXTEND
000165: 07,3021           51474                           INDEX    CDUIND
000166: 07,3022           20032                           MSU      CDUX
000167: 07,3023           00006                           EXTEND
000168: 07,3024           74737                           MP       BIT13                                 #  SHIFT RIGHT 2
000169: 07,3025           56001                           XCH      L                                     #  ROUND
000170: 07,3026           60000                           DOUBLE
000171: 07,3027           54061                           TS       ITEMP1
000172: 07,3030           13032                           TCF      +2
000173: 07,3031           26001                           ADS      L
000174:
000175: 07,3032           51474                           INDEX    CDUIND                                #  DIFFERENCE TO BE COMPUTED
000176: 07,3033           23471                           LXCH     COMMAND
000177: 07,3034           11474                           CCS      CDUIND
000178: 07,3035           03015                           TC       COARS1
000179:
000180: 07,3036           34752                           CAF      TWO                                   #  MINIMUM OF 4 MS WAIT
000181: 07,3037           05224                           TC       VARDELAY
000182:


000184: 07,3040           03641        COARS2             TC       CAGETEST                              #  DONT CONTINUE IF CAGED.
000185: 07,3041           54061                           TS       ITEMP1                                #  SETS TO +0.
000186: 07,3042           34752                           CAF      TWO                                   #  SET CDU INDICATOR
000187: 07,3043           55474                 +3        TS       CDUIND
000188:
000189: 07,3044           51474                           INDEX    CDUIND
000190: 07,3045           11471                           CCS      COMMAND                               #  NUMBER OF PULSES REQUIRED
000191: 07,3046           03052                           TC       COMPOS                                #  GREATER THAN MAX ALLOWED
000192: 07,3047           03061                           TC       NEXTCDU    +1
000193: 07,3050           03117                           TC       COMNEG
000194: 07,3051           03061                           TC       NEXTCDU    +1
000195:
000196: 07,3052           63745        COMPOS             AD       -COMMAX                               #  COMMAX = MAX NUMBER OF PULSES ALLOWED
000197: 07,3053           00006                           EXTEND                                         #        MINUS ONE
000198: 07,3054           63127                           BZMF     COMZERO
000199: 07,3055           51474                           INDEX    CDUIND
000200: 07,3056           55471                           TS       COMMAND                               #  REDUCE COMMAND BY MAX NUMBER OF PULSES
000201: 07,3057           43746                           CS       -COMMAX-                              #        ALLOWED
000202:
000203: 07,3060           24061        NEXTCDU            INCR     ITEMP1
000204: 07,3061           64754                           AD       NEG0
000205: 07,3062           51474                           INDEX    CDUIND
000206: 07,3063           54050                           TS       CDUXCMD                               #  SET UP COMMAND REGISTER.
000207:
000208: 07,3064           11474                           CCS      CDUIND
000209: 07,3065           03043                           TC       COARS2     +3
000210:
000211: 07,3066           10061                           CCS      ITEMP1                                #  SEE IF ANY PULSES TO GO OUT.
000212: 07,3067           13133                           TCF      SENDPULS
000213:
000214: 07,3070           05221                           TC       FIXDELAY                              #  WAIT FOR GIMBALS TO SETTLE.
000215: 07,3071           00226                           DEC      150        B-14
000216:
000217: 07,3072           34752                           CAF      TWO                                   #  AT END OF COMMAND, CHECK TO SEE THAT
000218: 07,3073           54061        CHKCORS            TS       ITEMP1                                #  GIMBALS ARE WITHIN 2 DEGREES OF THETAD.
000219: 07,3074           50000                           INDEX    A
000220: 07,3075           30032                           CA       CDUX
000221: 07,3076           00006                           EXTEND
000222: 07,3077           50061                           INDEX    ITEMP1
000223: 07,3100           20321                           MSU      THETAD
000224: 07,3101           10000                           CCS      A
000225: 07,3102           13110                           TCF      COARSERR
000226: 07,3103           13105                           TCF      CORSCHK2
000227: 07,3104           13110                           TCF      COARSERR
000228:


000230: 07,3105           10061        CORSCHK2           CCS      ITEMP1
000231: 07,3106           13073                           TCF      CHKCORS
000232: 07,3107           13631                           TCF      ENDIMU                                #  END OF COARSE ALIGNMENT.
000233:
000234: 07,3110           63116        COARSERR           AD       COARSTOL                              #  2 DEGREES.
000235: 07,3111           00006                           EXTEND
000236: 07,3112           63105                           BZMF     CORSCHK2
000237:
000238: 07,3113           05567                           TC       ALARM                                 #  COARSE ALIGN ERROR.
000239: 07,3114           00211                           OCT      211
000240:
000241: 07,3115           13637                           TCF      IMUBAD
000242:
000243: 07,3116           77511        COARSTOL           DEC      -.01111                               #  2 DEGREES SCALED AT HALF-REVOLUTIONS
000244:
000245: 07,3117           63745        COMNEG             AD       -COMMAX
000246: 07,3120           00006                           EXTEND
000247: 07,3121           63127                           BZMF     COMZERO
000248: 07,3122           40000                           COM
000249: 07,3123           51474                           INDEX    CDUIND
000250: 07,3124           55471                           TS       COMMAND
000251: 07,3125           33746                           CA       -COMMAX-
000252: 07,3126           03060                           TC       NEXTCDU
000253:
000254: 07,3127           34755        COMZERO            CAF      ZERO
000255: 07,3130           51474                           INDEX    CDUIND
000256: 07,3131           57471                           XCH      COMMAND
000257: 07,3132           03060                           TC       NEXTCDU
000258:
000259: 07,3133           37740        SENDPULS           CAF      13,14,15
000260: 07,3134           00006                           EXTEND
000261: 07,3135           05014                           WOR      CHAN14
000262: 07,3136           33747                           CAF      600MS
000263: 07,3137           13037                           TCF      COARS2     -1                         #  THEN TO VARDELAY
000264:
000265: 07,3140           34746        CA+ECE             CAF      BIT6                                  #  ENABLE ALL THREE ISS CDU ERROR COUNTERS
000266: 07,3141           00006                           EXTEND
000267: 07,3142           05012                           WOR      CHAN12
000268: 07,3143           05261                           TC       TASKOVER
000269:


000271: 07,3144           34750        SETCOARS           CAF      BIT4                                  #  BYPASS IF ALREADY IN COARSE ALIGN
000272: 07,3145           00006                           EXTEND
000273: 07,3146           02012                           RAND     CHAN12
000274: 07,3147           10000                           CCS      A
000275: 07,3150           00002                           TC       Q
000276:
000277: 07,3151           44746                           CS       BIT6                                  #  CLEAR ISS ERROR COUNTERS
000278: 07,3152           00006                           EXTEND
000279: 07,3153           03012                           WAND     CHAN12
000280:
000281: 07,3154           44742                           CS       BIT10                                 #  KNOCK DOWN GYRO ACTIVITY
000282: 07,3155           00006                           EXTEND
000283: 07,3156           03014                           WAND     CHAN14
000284: 07,3157           44755                           CS       ZERO
000285: 07,3160           54047                           TS       GYROCMD
000286:
000287: 07,3161           34750                           CAF      BIT4                                  #  PUT ISS IN COARSE ALIGN
000288: 07,3162           00006                           EXTEND
000289: 07,3163           05012                           WOR      CHAN12
000290:
000291: 07,3164           41036                           CS       DSPTAB     +11D                       #  TURN ON NO ATT LAMP
000292: 07,3165           73207                           MASK     OCT40010
000293: 07,3166           27036                           ADS      DSPTAB     +11D
000294:
000295: 07,3167           41303                           CS       IMODES33                              #  DISABLE DAP AUTO AND HOLD MODES
000296: 07,3170           74746                           MASK     BIT6
000297: 07,3171           27303                           ADS      IMODES33
000298:
000299: 07,3172           41302                           CS       IMODES30                              #  DISABLE IMUFAIL
000300: 07,3173           74750                           MASK     BIT4
000301: 07,3174           27302                           ADS      IMODES30
000302:
000303: 07,3175           44747        RNDREFDR           CS       TRACKBIT                              #  CLEAR TRACK FLAG
000304: 07,3176           70075                           MASK     FLAGWRD1
000305: 07,3177           54075                           TS       FLAGWRD1
000306:
000307: 07,3200           44735                           CS       DRFTBIT                               #  CLEAR DRIFT FLAG
000308: 07,3201           70076                           MASK     FLAGWRD2
000309: 07,3202           54076                           TS       FLAGWRD2
000310:
000311: 07,3203           44737                           CS       REFSMBIT                              #  CLEAR REFSMMAT FLAG
000312: 07,3204           70077                           MASK     FLAGWRD3
000313: 07,3205           54077                           TS       FLAGWRD3
000314:
000315: 07,3206           00002                           TC       Q
000316:
000317: 07,3207           40010        OCT40010           OCT      40010
000318:


000320:                                                                                                  #  IMU FINE ALIGN MODE SWITCH.
000321:
000322: 07,3210           00004        IMUFINE            INHINT
000323: 07,3211           03653                           TC       CAGETSTJ                              #  SEE IF IMU BEING CAGED.
000324:
000325: 07,3212           43744                           CS       BITS4-5                               #  RESET ZERO AND COARSE
000326: 07,3213           00006                           EXTEND
000327: 07,3214           03012                           WAND     CHAN12
000328:
000329: 07,3215           44746                           CS       BIT6                                  #  INSURE DAP AUTO AND HOLD MODES ENABLED
000330: 07,3216           71303                           MASK     IMODES33
000331: 07,3217           55303                           TS       IMODES33
000332:
000333: 07,3220           03266                           TC       NOATTOFF
000334:
000335: 07,3221           34742                           CAF      BIT10                                 #  IMU FAIL WAS INHIBITED DURING THE
000336: 07,3222           05203                           TC       WAITLIST                              #  PRESUMABLY PRECEDING COARSE ALIGN.  LEAVE
000337: 07,3223  E3,1474                                  EBANK=   CDUIND
000338: 07,3223           03234 16103                     2CADR    IFAILOK                               #  IT ON FOR THE FIRST 5 SECS OF FINE ALIGN
000339:
000340: 07,3225           35000                           CAF      2SECS
000341: 07,3226           05203                           TC       WAITLIST
000342: 07,3227  E3,1474                                  EBANK=   CDUIND
000343: 07,3227           03232 16103                     2CADR    IMUFINED
000344:
000345: 07,3231           12755                           TCF      MODEEXIT
000346:
000347: 07,3232           03641        IMUFINED           TC       CAGETEST                              #  SEE THAT NO ONE HAS CAGED THE IMU.
000348: 07,3233           13631                           TCF      ENDIMU
000349:


000351: 07,3234           03646        IFAILOK            TC       CAGETSTQ                              #  ENABLE IMU FIAL UNLESS IMU BEING CAGED.
000352: 07,3235           15261                           TCF      TASKOVER                              #  IT IS.
000353:
000354: 07,3236           34750                           CAF      BIT4                                  #  DONT RESET IMU FAIL INHIBIT IF SOMEONE
000355: 07,3237           00006                           EXTEND                                         #  HAS GONE INTO COARSE ALIGN.
000356: 07,3240           02012                           RAND     CHAN12
000357: 07,3241           10000                           CCS      A
000358: 07,3242           15261                           TCF      TASKOVER
000359:
000360: 07,3243           41302                           CS       IMODES30                              #  RESET IMUFAIL.
000361: 07,3244           74737                           MASK     BIT13
000362: 07,3245           27302                           ADS      IMODES30
000363: 07,3246           44750                           CS       BIT4
000364: 07,3247           71302        PFAILOK2           MASK     IMODES30
000365: 07,3250           55302                           TS       IMODES30
000366: 07,3251           04674                           TC       IBNKCALL                              #  THE ISS WARNING LIGHT MAY COME ON NOW
000367: 07,3252           14703                           CADR     SETISSW                               #  THAT THE INHIBIT HAS BEEN REMOVED.
000368: 07,3253           15261                           TCF      TASKOVER
000369:
000370: 07,3254           03646        PFAILOK            TC       CAGETSTQ                              #  ENABLE PIP FAIL PROG ALARM.
000371: 07,3255           15261                           TCF      TASKOVER
000372:
000373: 07,3256           41302                           CS       IMODES30                              #  RESET IMU AND PIPA FAIL BITS.
000374: 07,3257           74742                           MASK     BIT10
000375: 07,3260           27302                           ADS      IMODES30
000376:
000377: 07,3261           41303                           CS       IMODES33
000378: 07,3262           74737                           MASK     BIT13
000379: 07,3263           27303                           ADS      IMODES33
000380:
000381: 07,3264           44747                           CS       BIT5
000382: 07,3265           13247                           TCF      PFAILOK2
000383:
000384: 07,3266           43207        NOATTOFF           CS       OCT40010                              #  SUBROUTINE TO TURN OFF NO ATT LAMP.
000385: 07,3267           71036                           MASK     DSPTAB     +11D
000386: 07,3270           64735                           AD       BIT15
000387: 07,3271           55036                           TS       DSPTAB     +11D
000388: 07,3272           00002                           TC       Q
000389:


000391:                                                                                                  #  ROUITNES TO INITIATE AND TERMINATE PROGRAM USE OF THE PIPAS.  NO IMUSTALL REQUIRED IN EITHER CASE.
000392:
000393: 07,3273           44755        PIPUSE             CS       ZERO
000394: 07,3274           54037                           TS       PIPAX
000395: 07,3275           54040                           TS       PIPAY
000396: 07,3276           54041                           TS       PIPAZ
000397:
000398: 07,3277           03646        PIPUSE1            TC       CAGETSTQ                              #  DO NOT ENABLE PIPA FAIL IF IMU IS CAGED
000399: 07,3300           14631                           TCF      SWRETURN
000400:
000401: 07,3301           00004                           INHINT
000402: 07,3302           44753                           CS       BIT1                                  #  IF PIPA FAILS FROM NOW ON (UNTIL
000403: 07,3303           71302                           MASK     IMODES30                              #  PIPFREE), LIGHT ISS WARNING.
000404: 07,3304           55302                           TS       IMODES30
000405:
000406: 07,3305           04674        PIPFREE2           TC       IBNKCALL                              #  ISS WARNING MIGHT COME ON NOW.
000407: 07,3306           14703                           CADR     SETISSW                               #  (OR GO OFF ON PIPFREE).
000408:
000409: 07,3307           12755                           TCF      MODEEXIT
000410:
000411: 07,3310           00004        PIPFREE            INHINT                                         #  PROGRAM DONE WITH PIPAS.  DONT LIGHT
000412: 07,3311           41302                           CS       IMODES30                              #  ISS WARNING.
000413: 07,3312           74753                           MASK     BIT1
000414: 07,3313           27302                           ADS      IMODES30
000415:
000416: 07,3314           74742                           MASK     BIT10                                 #  IF PIP FAIL ON, DO PROG ALSRM AND RESET
000417: 07,3315           10000                           CCS      A                                     #  ISS WARNING.
000418: 07,3316           12755                           TCF      MODEEXIT
000419:
000420: 07,3317           05567                           TC       ALARM
000421: 07,3320           00212                           OCT      212
000422:
000423: 07,3321           00004                           INHINT
000424:
000425: 07,3322           13305                           TCF      PIPFREE2
000426:


000428:                                                                                                  #  THE FOLLOWING ROUTINE TORQUES THE IRIGS ACCORDING TO DOUBLE PRECISION INPUTS IN THE SIX REGISTERS
000429:                                                                                                  #  BEGINNING AT THE ECADR ARRIVING IN A.  THE MINIMUM SIZE OF ANY PULSE TRAIN IS 16 PULSES (.25 CDU COUNTS).  THE
000430:                                                                                                  #  UNSENT PORTION OF THE COMMAND IS LEFT INTACT IN THE INPUT COMMAND REGISTERS.
000431:
000432: 07,3323  E3,1400                                  EBANK=   1400                                  #  VARIABLE, ACTUALLY.
000433:
000434: 07,3323           54161        IMUPULSE           TS       MPAC       +5                         #  SAVE ARRIVING ECADR.
000435: 07,3324           03653                           TC       CAGETSTJ                              #  DONT PROCEED IF IMU BEING CAGED.
000436:
000437: 07,3325           11314                           CCS      LGYRO                                 #  SEE IF GYROS BUSY.
000438: 07,3326           03367                           TC       GYROBUSY                              #  SLEEP.
000439:
000440: 07,3327           54156                           TS       MPAC       +2
000441: 07,3330           34746                           CAF      BIT6                                  #  ENABLE THE POWER SUPPLY.
000442: 07,3331           00006                           EXTEND
000443: 07,3332           05014                           WOR      CHAN14
000444:
000445: 07,3333           34751                           CAF      FOUR
000446: 07,3334           05203        GWAKE2             TC       WAITLIST                              #  (IF A JOB WAS PUT TO SLEEP, THE POWER
000447: 07,3335  E3,1474                                  EBANK=   CDUIND                                #  SUPPLY IS LEFT ON BY THE WAKING JOB).
000448: 07,3335           03405 16103                     2CADR    STRTGYRO
000449:
000450: 07,3337           30161                           CA       MPAC       +5                         #  SET UP EBANK, SAVING CALLER'S EBANK FOR
000451: 07,3340           56003                           XCH      EBANK                                 #  RESTORATION ON RETURN.
000452: 07,3341           56161                           XCH      MPAC       +5
000453: 07,3342           55314                           TS       LGYRO                                 #  RESERVES GYROS.
000454: 07,3343           74357                           MASK     LOW8
000455: 07,3344           54061                           TS       ITEMP1
000456:
000457: 07,3345           34752                           CAF      TWO                                   #  FORCE SIGN AGREEMENT ON INPUTS.
000458: 07,3346           54157        GYROAGRE           TS       MPAC       +3
000459: 07,3347           60000                           DOUBLE
000460: 07,3350           60061                           AD       ITEMP1
000461: 07,3351           54160                           TS       MPAC       +4
000462: 07,3352           00006                           EXTEND
000463: 07,3353           50000                           INDEX    A
000464: 07,3354           31401                           DCA      1400
000465: 07,3355           52155                           DXCH     MPAC
000466: 07,3356           07257                           TC       TPAGREE
000467: 07,3357           52155                           DXCH     MPAC
000468: 07,3360           50160                           INDEX    MPAC       +4
000469: 07,3361           53401                           DXCH     1400
000470:
000471: 07,3362           10157                           CCS      MPAC       +3
000472: 07,3363           13346                           TCF      GYROAGRE
000473:
000474: 07,3364           30161                           CA       MPAC       +5                         #  RESTORE CALLER'S EBANK.
000475: 07,3365           54003                           TS       EBANK
000476: 07,3366           12755                           TCF      MODEEXIT
000477:


000479:                                                                                                  #  ROUTINES TO ALLOW TORQUING BY ONLY ONE JOB AT A TIME.
000480:
000481: 07,3367           00006        GYROBUSY           EXTEND                                         #  SAVE RETURN 2FCADR.
000482: 07,3370           30134                           DCA      BUF2
000483: 07,3371           52155                           DXCH     MPAC
000484: 07,3372           33404        REGSLEEP           CAF      LGWAKE
000485: 07,3373           15133                           TCF      JOBSLEEP
000486:
000487: 07,3374           11314        GWAKE              CCS      LGYRO                                 #  WHEN AWAKENED, SEE IF GYROS STILL BUSY.
000488: 07,3375           13372                           TCF      REGSLEEP                              #  IF SO, SLEEP SOME MORE.
000489:
000490: 07,3376           54156                           TS       MPAC       +2
000491: 07,3377           00006                           EXTEND
000492: 07,3400           30155                           DCA      MPAC
000493: 07,3401           52134                           DXCH     BUF2                                  #  RESTORE SWRETURN INFO.
000494: 07,3402           34753                           CAF      ONE
000495: 07,3403           13334                           TCF      GWAKE2
000496:
000497: 07,3404           17374        LGWAKE             CADR     GWAKE
000498:


000500:                                                                                                  #  GYRO-TORQUING WAITLIST TASKS.
000501:
000502: 07,3405           43626        STRTGYRO           CS       GDESELCT                              #  DE-SELECT LAST GYRO.
000503: 07,3406           00006                           EXTEND
000504: 07,3407           03014                           WAND     CHAN14
000505:
000506: 07,3410           03641                           TC       CAGETEST
000507:
000508: 07,3411           31314        STRTGYR2           CA       LGYRO                                 #  JUMP ON PHASE COUNTER IN BITS 13-14.
000509: 07,3412           00006                           EXTEND
000510: 07,3413           74750                           MP       BIT4
000511: 07,3414           50000                           INDEX    A
000512: 07,3415           13416                           TCF      +1
000513: 07,3416           03433                           TC       GSELECT                               #  =0.  DO Y GYRO.
000514: 07,3417           00202                           OCT      00202
000515:
000516: 07,3420           03433                           TC       GSELECT                               #  =1.  DO Z GYRO.
000517: 07,3421           00302                           OCT      00302
000518:
000519: 07,3422           03431                           TC       GSELECT    -2                         #  =2.  DO X GYRO.
000520: 07,3423           00100                           OCT      00100
000521:
000522: 07,3424           34755                           CAF      ZERO                                  #  =3.  DONE
000523: 07,3425           55314                           TS       LGYRO
000524: 07,3426           33404                           CAF      LGWAKE                                #  WAKE A POSSIBLE SLEEPING JOB.
000525: 07,3427           05137                           TC       JOBWAKE
000526:
000527: 07,3430           13232        NORESET            TCF      IMUFINED                              #  DO NOT RESET POWER SUPPLY


000529: 07,3431           44751                 -2        CS       FOUR                                  #  SPECIAL ENTRY TO REGRESS LGYRO FOR X.
000530: 07,3432           27314                           ADS      LGYRO
000531:
000532: 07,3433           50002        GSELECT            INDEX    Q                                     #  SELECT GYRO.
000533: 07,3434           30000                           CAF      0                                     #  PACKED WORD CONTAINS GYRO SELECT BITS
000534: 07,3435           54064                           TS       ITEMP4                                #  AND INCREMENT TO LGYRO.
000535: 07,3436           74757                           MASK     SEVEN
000536: 07,3437           64737                           AD       BIT13
000537: 07,3440           27314                           ADS      LGYRO
000538: 07,3441           54003                           TS       EBANK
000539: 07,3442           74357                           MASK     LOW8
000540: 07,3443           54061                           TS       ITEMP1
000541:
000542: 07,3444           44757                           CS       SEVEN
000543: 07,3445           70064                           MASK     ITEMP4
000544: 07,3446           54064                           TS       ITEMP4
000545:
000546: 07,3447           00006                           EXTEND                                         #  MOVE DP COMMAND TO RUPTREGS FOR TESTING.
000547: 07,3450           50061                           INDEX    ITEMP1
000548: 07,3451           31401                           DCA      1400
000549: 07,3452           52071                           DXCH     RUPTREG1
000550:
000551: 07,3453           10070                           CCS      RUPTREG1
000552: 07,3454           13467                           TCF      MAJ+
000553: 07,3455           13457                           TCF      +2
000554: 07,3456           13607                           TCF      MAJ-
000555:
000556: 07,3457           10071                           CCS      RUPTREG2
000557: 07,3460           13464                           TCF      MIN+
000558: 07,3461           13411                           TCF      STRTGYR2
000559: 07,3462           13604                           TCF      MIN-
000560: 07,3463           13411                           TCF      STRTGYR2
000561:


000563: 07,3464           63520        MIN+               AD       -GYROMIN                              #  SMALL POSITIVE COMMAND.  SEE IF AT LEAST
000564: 07,3465           00006                           EXTEND                                         #  16 GYRO PULSES.
000565: 07,3466           63411                           BZMF     STRTGYR2
000566:
000567: 07,3467           00006        MAJ+               EXTEND                                         #  DEFINITE POSITIVE OUTPUT.
000568: 07,3470           33630                           DCA      GYROFRAC
000569: 07,3471           20071                           DAS      RUPTREG1
000570:
000571: 07,3472           30064                           CA       ITEMP4                                #  SELECT POSITIVE TORQUING FOR THIS GYRO.
000572: 07,3473           00006                           EXTEND
000573: 07,3474           05014                           WOR      CHAN14
000574:
000575: 07,3475           36074                           CAF      LOW7                                  #  LEAVE NUMBER OF POSSIBLE 8192 AUGMENTS
000576: 07,3476           70071                           MASK     RUPTREG2                              #  TO INITIAL COMMAND IN MAJOR PART OF LONG
000577: 07,3477           56071                           XCH      RUPTREG2                              #  TERM STORAGE AND TRUNCATED FRACTION
000578: 07,3500           00006        GMERGE             EXTEND                                         #  IN MINOR PART.  THE MAJOR PART WILL BE
000579: 07,3501           74744                           MP       BIT8                                  #  COUNTED DOWN TO ZERO IN THE COURSE OF
000580: 07,3502           54062                           TS       ITEMP2                                #  PUTTING OUT THE ENTIRE COMMAND.
000581: 07,3503           30070                           CA       RUPTREG1
000582: 07,3504           00006                           EXTEND
000583: 07,3505           74743                           MP       BIT9
000584: 07,3506           54070                           TS       RUPTREG1
000585: 07,3507           30001                           CA       L
000586: 07,3510           00006                           EXTEND
000587: 07,3511           74736                           MP       BIT14
000588: 07,3512           26062                           ADS      ITEMP2                                #  INITIAL COMMAND.
000589:
000590: 07,3513           00006                           EXTEND                                         #  SEE IF MORE THAN ONE PULSE TRAIN NEEDED
000591: 07,3514           30071                           DCA      RUPTREG1                              #  (MORE THAN 16383 PULSES).
000592: 07,3515           67747                           AD       MINUS1
000593: 07,3516           10000                           CCS      A
000594: 07,3517           13543                           TCF      LONGGYRO
000595: 07,3520           77601        -GYROMIN           OCT      -176                                  #  MAY BE ADJUSTED TO SPECIFY MINIMUM CMD
000596: 07,3521           13525                           TCF      +4
000597:
000598: 07,3522           34736                           CAF      BIT14
000599: 07,3523           26062                           ADS      ITEMP2
000600: 07,3524           34755                           CAF      ZERO
000601:
000602: 07,3525           50061                 +4        INDEX    ITEMP1
000603: 07,3526           53401                           DXCH     1400


000605: 07,3527           30062                           CA       ITEMP2                                #  ENTIRE COMMAND.
000606: 07,3530           54047        LASTSEG            TS       GYROCMD
000607: 07,3531           00006                           EXTEND
000608: 07,3532           74742                           MP       BIT10                                 #  WAITLIST DT
000609: 07,3533           66245                           AD       THREE                                 #  TRUNCATION AND PHASE UNCERTAINTIES.
000610: 07,3534           05203                           TC       WAITLIST
000611: 07,3535  E3,1474                                  EBANK=   CDUIND
000612: 07,3535           03405 16103                     2CADR    STRTGYRO
000613:
000614: 07,3537           34742        GYROEXIT           CAF      BIT10
000615: 07,3540           00006                           EXTEND
000616: 07,3541           05014                           WOR      CHAN14
000617: 07,3542           15261                           TCF      TASKOVER
000618:
000619: 07,3543           50061        LONGGYRO           INDEX    ITEMP1
000620: 07,3544           53401                           DXCH     1400                                  #  INITIAL COMMAND OUT PLUS N AUGMENTS OF
000621: 07,3545           34736                           CAF      BIT14                                 #  8192.  INITIAL COMMAND IS AT LEAST 8192.
000622: 07,3546           60062                           AD       ITEMP2
000623: 07,3547           54047                           TS       GYROCMD
000624:
000625: 07,3550           00006        AUG3               EXTEND                                         #  GET WAITLIST DT TO TIME WHEN TRAIN IS
000626: 07,3551           74742                           MP       BIT10                                 #  ALMOST OUT.
000627: 07,3552           67745                           AD       NEG3
000628: 07,3553           05203                           TC       WAITLIST
000629: 07,3554  E3,1474                                  EBANK=   CDUIND
000630: 07,3554           03557 16103                     2CADR    8192AUG
000631:
000632: 07,3556           13537                           TCF      GYROEXIT
000633:
000634: 07,3557           03641        8192AUG            TC       CAGETEST
000635:
000636: 07,3560           34750                           CAF      BIT4
000637: 07,3561           00006                           EXTEND
000638: 07,3562           02012                           RAND     CHAN12
000639: 07,3563           10000                           CCS      A
000640: 07,3564           13637                           TCF      IMUBAD
000641: 07,3565           31314                           CA       LGYRO                                 #  ADD 8192 PULSES TO GYROCMD
000642: 07,3566           54003                           TS       EBANK
000643: 07,3567           74357                           MASK     LOW8
000644: 07,3570           54061                           TS       ITEMP1
000645:
000646: 07,3571           50061                           INDEX    ITEMP1                                #  SEE IF THIS IS THE LAST AUG.
000647: 07,3572           11400                           CCS      1400
000648: 07,3573           13577                           TCF      AUG2                                  #  MORE TO COME.
000649:
000650: 07,3574           34736                           CAF      BIT14
000651: 07,3575           26047                           ADS      GYROCMD
000652: 07,3576           13531                           TCF      LASTSEG    +1
000653:


000655: 07,3577           50061        AUG2               INDEX    ITEMP1
000656: 07,3600           55400                           TS       1400
000657: 07,3601           34736                           CAF      BIT14
000658: 07,3602           26047                           ADS      GYROCMD
000659: 07,3603           13550                           TCF      AUG3                                  #  COMPUTE DT.
000660:


000662: 07,3604           63520        MIN-               AD       -GYROMIN                              #  POSSIBLE NEGATIVE OUTPUT.
000663: 07,3605           00006                           EXTEND
000664: 07,3606           63411                           BZMF     STRTGYR2
000665:
000666: 07,3607           00006        MAJ-               EXTEND                                         #  DEFINITE NEGATIVE OUTPUT.
000667: 07,3610           43630                           DCS      GYROFRAC
000668: 07,3611           20071                           DAS      RUPTREG1
000669:
000670: 07,3612           30064                           CA       ITEMP4                                #  SELECT NEGATIVE TORQUING FOR THIS GYRO.
000671: 07,3613           64743                           AD       BIT9
000672: 07,3614           00006                           EXTEND
000673: 07,3615           05014                           WOR      CHAN14
000674:
000675: 07,3616           40070                           CS       RUPTREG1                              #  SET UP RUPTREGS TO FALL INTO GMERGE.
000676: 07,3617           54070                           TS       RUPTREG1                              #  ALL NUMBERS PUT INTO GYROCMD ARE
000677: 07,3620           40071                           CS       RUPTREG2                              #  POSITIVE - BIT9 OF CHAN 14 DETERMINES
000678: 07,3621           76074                           MASK     LOW7                                  #  THE SIGN OF THE COMMAND.
000679: 07,3622           40000                           COM
000680: 07,3623           56071                           XCH      RUPTREG2
000681: 07,3624           40000                           COM
000682: 07,3625           13500                           TCF      GMERGE
000683:
000684: 07,3626           01700        GDESELCT           OCT      1700                                  #  TURN OFF SELECT AND ACTIVITY BITS.
000685:
000686: 07,3627           00000 00034  GYROFRAC           2DEC     .215       B-21
000687:


000689:                                                                                                  #  IMU MODE SWITCHING ROUTINES COME HERE WHEN ACTION COMPLETE.
000690:
000691: 07,3631           00006        ENDIMU             EXTEND                                         #  MODE IS BAD IF CAGE HAS OCCURED OR IF
000692: 07,3632           00011                           READ     DSALMOUT                              #  ISS WARNING IS ON.
000693: 07,3633           74753                           MASK     BIT1
000694: 07,3634           10000                           CCS      A
000695: 07,3635           13637                           TCF      IMUBAD
000696:
000697: 07,3636           13665        IMUGOOD            TCF      GOODEND                               #  WITH C(A) = 0.
000698:
000699: 07,3637           34755        IMUBAD             CAF      ZERO
000700: 07,3640           13662                           TCF      BADEND
000701:
000702: 07,3641           34746        CAGETEST           CAF      BIT6                                  #  SUBROUTINE TO TERMINATE IMU MODE
000703: 07,3642           71302                           MASK     IMODES30                              #  SWITCH IF IMU HAS BEEN CAGED.
000704: 07,3643           10000                           CCS      A
000705: 07,3644           13637                           TCF      IMUBAD                                #  DIRECTLY.
000706: 07,3645           00002                           TC       Q                                     #  WITH C(A) = +0.
000707:
000708: 07,3646           41302        CAGETSTQ           CS       IMODES30                              #  SKIP IF IMU NOT BEING CAGED.
000709: 07,3647           74746                           MASK     BIT6
000710: 07,3650           10000                           CCS      A
000711: 07,3651           24002                           INCR     Q
000712: 07,3652           00002                           TC       Q
000713:
000714: 07,3653           41302        CAGETSTJ           CS       IMODES30                              #  IF DURING MODE SWITCH INITIALIZATION
000715: 07,3654           74746                           MASK     BIT6                                  #  IT IS FOUND THAT THE IMU IS BEING CAGED,
000716: 07,3655           10000                           CCS      A                                     #  SET IMUCADR TO -0 TO INDICATE OPERATION
000717: 07,3656           00002                           TC       Q                                     #  COMPLETE BUT FAILED.  RETURN IMMEDIATELY
000718:
000719: 07,3657           44755                           CS       ZERO                                  #  TO SWRETURN.
000720: 07,3660           55304                           TS       IMUCADR
000721: 07,3661           12755                           TCF      MODEEXIT
000722:


000724:                                                                                                  #  GENERALIZED MODE SWITCHING TERMINATION.  ENTER AT GOODEND FOR SUCCESSFUL COMPLETION OF AN I/O OPERATION
000725:                                                                                                  #  OR AT BADEND FOR AN UNSUCCESSFUL ONE.  C(A) OR ARRIVAL =0 FOR IMU, 1 FOR OPTICS.
000726:
000727: 07,3662           54071        BADEND             TS       RUPTREG2                              #  DEVICE INDEX.
000728: 07,3663           44755                           CS       ZERO                                  #  FOR FAILURE.
000729: 07,3664           13667                           TCF      GOODEND    +2
000730:
000731: 07,3665           54071        GOODEND            TS       RUPTREG2
000732: 07,3666           44753                           CS       ONE                                   #  FOR SUCCESS.
000733:
000734: 07,3667           54072                           TS       RUPTREG3
000735: 07,3670           50071                           INDEX    RUPTREG2                              #  SEE IF USING PROGRAM ASLEEP.
000736: 07,3671           11304                           CCS      MODECADR
000737: 07,3672           13676                           TCF      +4                                    #  YES - WAKE IT UP.
000738: 07,3673           13706                           TCF      ENDMODE                               #  IF 0, PROGRAM NOT IN YET.
000739:
000740: 07,3674           00006                           EXTEND
000741: 07,3675           13707                           BZF      ENDMODE    +1                         #  BZF = TCF IF MODECADR = -0.
000742:
000743: 07,3676           34755                           CAF      ZERO                                  #  WAKE SLEEPING PROGRAM.
000744: 07,3677           50071                           INDEX    RUPTREG2
000745: 07,3700           57304                           XCH      MODECADR
000746: 07,3701           05137                           TC       JOBWAKE
000747:
000748: 07,3702           40072                           CS       RUPTREG3                              #  ADVANCE LOC IF SUCCESSFUL.
000749: 07,3703           50064                           INDEX    LOCCTR
000750: 07,3704           26164                           ADS      LOC
000751:
000752: 07,3705           15261                           TCF      TASKOVER
000753:
000754: 07,3706           30072        ENDMODE            CA       RUPTREG3                              #  -0 INDICATES OPERATION COMPLETE BUT
000755: 07,3707           50071                 +1        INDEX    RUPTREG2                              #  UNSUCCESSFUL:  -1 INDICATES COMPLETE AND
000756: 07,3710           55304                           TS       MODECADR                              #  SUCCESSFUL.
000757: 07,3711           15261                           TCF      TASKOVER
000758:


000760:                                                                                                  #  GENERAL STALLING ROUTINE.  USING PROGRAMS COME HERE TO WAIT FOR I/O COMPLETION.
000761:
000762:                                                                                                  #  PROGRAM DESCRIPTION                           DATE - 21 FEB 1967
000763:                                                                                                  #                                                LOG SECTION IMU MODE SWITCHING
000764:                                                                                                  #  MOD BY - R. MELANSON TO ADD DOCUMENTATION     ASSEMBLY SUNDISK REV. 82
000765:
000766:                                                                                                  #  FUNCTIONAL DESCRIPTION -
000767:                                                                                                  #        TO DELAY FURTHER EXECUTION OF THE CALLING ROUTINE UNTIL ITS SELECTED
000768:                                                                                                  #        I/O FUNCTION IS COMPLETE.  THE FOLLOWING CHECKS ON THE CALLING ROUTINE:S
000769:                                                                                                  #        MODECADR ARE MADE AND ACTED UPON.
000770:                                                                                                  #        1) +0 INDICATES INCOMPLETE I/O OPERATION.  CALLING ROUTINE IS PUT TO
000771:                                                                                                  #           SLEEP.
000772:                                                                                                  #        2) -1 INDICATES COMPLETED I/O OPERATION.  STALL BYPASSES JOBSLEEP
000773:                                                                                                  #           CALL AND RETURNS TO CALLING ROUTINE AT L+3
000774:                                                                                                  #        3) -0 INDICATES COMPLETED I/O WITH FAILURE.  STALL CLEARS MODECADR
000775:                                                                                                  #           AND RETURNS TO CALLING ROUTINE AT L+2.
000776:                                                                                                  #        4) VALUE GREATER THAN 0 INDICATES TWO ROUTINES CALLING FOR USE OF
000777:                                                                                                  #           SAME DEVICE.  STALL EXITS TO ABORT WHICH EXECUTES A PROGRAM
000778:                                                                                                  #           RESTART WHICH IN TURN CLEARS ALL MODECADR REGISTERS.
000779:
000780:                                                                                                  #  CALLING SEQUENCE -
000781:                                                                                                  #        L       TC      BANKCALL
000782:                                                                                                  #        L+1     CADR    (ONE OF 5 STALL ADDRESSES I.E. IMUSTALL, OPTSTALL, RADSTALL,
000783:                                                                                                  #                        AOTSTALL, OR ATTSTALL)
000784:
000785:                                                                                                  #  NORMAL-EXIT MODE -
000786:                                                                                                  #        TCF JOBSLEEP    OR      TCF MODEXIT
000787:
000788:                                                                                                  #  ALARM OR ABORT EXIT MODE -
000789:                                                                                                  #        TC      ABORT
000790:
000791:                                                                                                  #  OUTPUT -
000792:                                                                                                  #        MODECADR=CADR   IF JOBSLEEP
000793:                                                                                                  #        MODECADR=+0     IF I/O COMPLETE
000794:                                                                                                  #        BUF2=L+3        IF I/O COMPLETE AND GOOD.
000795:                                                                                                  #        BUF2=L+2        IF I/O COMPLETE BUT FAILED.
000796:
000797:                                                                                                  #  ERASABLE INITIALIZATION -
000798:                                                                                                  #        BUF2 CONTAINS RETURN ADDRESS PLUS 1,(L+2)
000799:                                                                                                  #        BUF2+1 CONTAINS FBANK VALUE OF CALLING ROUTINE.
000800:                                                                                                  #        MODECADR OF CALLING ROUTINE CONTAINS +0,-1,-0 OR CADR RETURN ADDRESS.
000801:
000802:                                                                                                  #  DEBRIS -
000803:                                                                                                  #        RUPTREG2 AND CALLING ROUTINE MODECADR.
000804:


000806: 07,3712  30,2000                                  SBANK=   LOWSUPER
000807:
000808: 07,3712           34753        AOTSTALL           CAF      ONE                                   #  AOT.
000809: 07,3713           03717                           TC       STALL
000810:
000811: 07,3714           34752        RADSTALL           CAF      TWO
000812: 07,3715           13717                           TCF      STALL
000813:


000815: 07,3716  07,3712               OPTSTALL           EQUALS   AOTSTALL
000816:
000817: 07,3716           34755        IMUSTALL           CAF      ZERO                                  #  IMU.
000818:
000819: 07,3717           00004        STALL              INHINT
000820: 07,3720           54071                           TS       RUPTREG2                              #  SAVE DEVICE INDEX.
000821: 07,3721           50000                           INDEX    A                                     #  SEE IF OPERATION COMPLETE.
000822: 07,3722           11304                           CCS      MODECADR
000823: 07,3723           13741                           TCF      MODABORT                              #  ALLOWABLE STATES ARE +0, -1, AND -0.
000824: 07,3724           13735                           TCF      MODESLP                               #  OPERATION INCOMPLETE.
000825: 07,3725           13731                           TCF      MODEGOOD                              #  COMPLETE AND GOOD IF = -1.
000826:
000827: 07,3726           50071        MG2                INDEX    RUPTREG2                              #  COMPLETE AND FAILED IF -0.  RESET TO +0.
000828: 07,3727           55304                           TS       MODECADR                              #  RETURN TO CALLER.
000829: 07,3730           12755                           TCF      MODEEXIT
000830:
000831: 07,3731           10000        MODEGOOD           CCS      A                                     #  MAKE SURE INITIAL STATE -1.
000832: 07,3732           13741                           TCF      MODABORT
000833:
000834: 07,3733           24133                           INCR     BUF2                                  #  IF SO, INCREMENT RETURN ADDRESS AND
000835: 07,3734           13726                           TCF      MG2                                   #  RETURN IMMEDIATELY, SETTING CADR = +0.
000836:
000837: 07,3735           04645        MODESLP            TC       MAKECADR                              #  CALL FROM SWITCHABLE FIXED ONLY.
000838: 07,3736           50071                           INDEX    RUPTREG2
000839: 07,3737           55304                           TS       MODECADR
000840: 07,3740           15133                           TCF      JOBSLEEP
000841:
000842: 07,3741           52134        MODABORT           DXCH     BUF2
000843: 07,3742           05716                           TC       BAILOUT1                              #  TWO PROGRAMS USING THE SAME DEVICE.
000844: 07,3743           01210                           OCT      1210
000845:


000847:                                                                                                  #  CONSTANTS FOR MODE SWITCHING ROUTINES
000848:
000849: 07,3744     5751               BITS3&4            =        OCT14
000850: 07,3744     4771               BITS4&6            =        OCT50
000851: 07,3744           00030        BITS4-5            OCT      00030
000852: 07,3745     4744               IMUSEFLG           EQUALS   BIT8                                  #  INTERPRETER SWITCH 7.
000853: 07,3745           77500        -COMMAX            DEC      -191       B-14
000854: 07,3746           77477        -COMMAX-           DEC      -192       B-14
000855: 07,3747           00074        600MS              DEC      60         B-14
000856: 07,3750  07,3210               IMUFIN20           =        IMUFINE
000857: 07,3750           31307        GOMANUR            CA       ATTCADR                               #  IS KALCMANU FREE
000858: 07,3751           00006                           EXTEND
000859: 07,3752           13755                           BZF      +3
000860:
000861: 07,3753           05652                           TC       POODOO                                #  NO
000862: 07,3754           01210                           OCT      1210                                  #  2 TRYING TO USE SAME DEVICE
000863:
000864: 07,3755           00006                 +3        EXTEND
000865: 07,3756           30134                           DCA      BUF2
000866: 07,3757           53310                           DXCH     ATTCADR                               #  SAVE FINAL RETURN FOR KALCMAN3
000867:
000868: 07,3760           30006                           CA       BBANK
000869: 07,3761           74757                           MASK     SEVEN
000870: 07,3762           27310                           ADS      ATTCADR    +1
000871:
000872: 07,3763           30167                           CA       PRIORITY
000873: 07,3764           77725                           MASK     PRIO37
000874: 07,3765           55311                           TS       ATTPRIO                               #  SAVE USERS PRIO
000875:
000876: 07,3766           33772                           CAF      KALEBCON                              #  SET EBANK FOR KALCMAN3
000877: 07,3767           54003                           TS       EBANK
000878: 07,3770           04635                           TC       POSTJUMP
000879: 07,3771           44004                           CADR     KALCMAN3
000880: 07,3772           03276        KALEBCON           ECADR    BCDU
000881:


000883:                                                                                                  #  PROGRAM DESCRIPTION
000884:                                                                                                  #  IMU STATUS CHECK ROUTINE R02 (SUBROUTINE UTILITY)
000885:                                                                                                  #  MOD NO - 1
000886:                                                                                                  #  MOD BY - N.BRODEUR
000887:
000888:                                                                                                  #  FUNCTIONAL DESCRIPTION
000889:                                                                                                  #        TO CHECK WHETHER IMU IS ON AND IF ON WHETHER IT IS ALIGNED TO AN
000890:                                                                                                  #        ORIENTATION KNOWN BY THE CMC.  TO REQUEST SELECTION OF THE APPROPRIATE
000891:                                                                                                  #        PROGRAM IF THE IMU IS OFF OR NOT ALIGNED TO AN ORIENTATION KNOWN BY THE
000892:                                                                                                  #        CMC.  CALLED THROUGH BANKCALL
000893:
000894:                                                                                                  #  CALLING SEQUENCE -
000895:                                                                                                  #        L       TC      BANKCALL
000896:                                                                                                  #        L+1     CADR    R02BOTH
000897:
000898:                                                                                                  #  SUBROUTINES CALLED
000899:                                                                                                  #        VARALARM
000900:                                                                                                  #        FLAGUP
000901:
000902:                                                                                                  #  NORMAL EXIT MODES
000903:                                                                                                  #        AT L+2 OF CALLING SEQUENCE
000904:
000905:                                                                                                  #  ALARM OR ABORT EXIT MODES
000906:                                                                                                  #        GOTOPOOH, WITH ALARM
000907:
000908:                                                                                                  #  ERASABLE INITIALIZATION REQUIRED
000909:                                                                                                  #        NONE
000910:
000911:                                                                                                  #  DEBRIS
000912:                                                                                                  #        CENTRALS - A,Q,L
000913:
000914: 34,3775                                           BANK     34
000915: 04,2000                                           SETLOC   R02
000916: 04,2000                                           BANK
000917: 04,3253                                           COUNT*   $$/R02
000918: 04,3253           00063        DEC51              DEC      51         B-14
000919: 04,3254           34737        R02BOTH            CAF      REFSMBIT
000920: 04,3255           70077                           MASK     FLAGWRD3
000921: 04,3256           10000                           CCS      A
000922: 04,3257           03270                           TC       R02ZERO                               #  ZERO IMUS
000923:
000924: 04,3260           31302                           CA       IMODES30
000925: 04,3261           74743                           MASK     BIT9                                  #  IS ISS INITIALIZED
000926: 04,3262           00006                           EXTEND
000927: 04,3263           13265                           BZF      +2
000928: 04,3264           44750                           CS       BIT4                                  #  SEND IMU ALARM CODE 210
000929: 04,3265           63273                           AD       OCT220                                #  SEND REFSMM ALARM
000930: 04,3266           05744                           TC       VARALARM
000931:
000932: 04,3267           06001                           TC       GOTOPOOH
000933:
000934: 04,3270           05504        R02ZERO            TC       UPFLAG


000936: 04,3271           00007                           ADRES    IMUSE
000937: 04,3272           14631                           TCF      SWRETURN
000938: 04,3273           00220        OCT220             OCT      220
000939:


000941:                                                                                                  #  PROGRAM DESCRIPTION           P06             10 FEB 67
000942:
000943:                                                                                                  #  TRANSFER THE ISS/CMC FROM THE OPERATE TO THE STANDBY CONDITION.
000944:
000945:                                                                                                  #  THE NORMAL CONDITION OF READINESS OF THE GNCS WHEN NOT IN USE IS STANDBY.  IN THIS CONDITION THE IMU
000946:                                                                                                  #  HEATER POWER IS ON.  THE IMU OPERATE POWER IS OFF.  THE COMPUTER POWER IS ON.  THE OPTICS POWER IS OFF.  THE
000947:                                                                                                  #  CMC STANDBY ON THE MAIN AND LEB DISKYS IS ON.
000948:
000949:                                                                                                  #  CALLING SEQUENCE:
000950:                                                                                                  #        ASTRONAUT REQUEST THROUGH DSKY  V37E 06E.
000951:
000952:                                                                                                  #  SUBROUTINES CALLED:
000953:                                                                                                  #        GOPERF1
000954:                                                                                                  #        BANKCALL
000955:                                                                                                  #        FLAGDOWN
000956:


000958:                                                                                                  #  PRESTAND PREPARES FOR STANDBY BY SNAPSHOTTING THE SCALER AND TIME1 TIME2
000959:                                                                                                  #  THE LOW 5 BITS OF THE SCALER ARE INSPECTED TO INSURE COMPATABILITY
000960:                                                                                                  #  BETWEEN THE SCALER READING AND THE TIME1 TIME2 READING.
000961:
000962: 37,2000                                           SETLOC   P05P06
000963: 37,2000                                           BANK
000964:
000965: 37,3655     0314                                  EBANK=   TIME2SAV
000966: 37,3655                                           COUNT*   $$/P06
000967:
000968: 37,3655           05504        P06                TC       UPFLAG                                #  SET NODOV37 BIT
000969: 37,3656           00054                           ADRES    NODOFLAG
000970:
000971: 37,3657           00004        PRESTAND           INHINT
000972: 37,3660           00006                           EXTEND
000973: 37,3661           30025                           DCA      TIME2                                 #  SNAPSHOT TIME1 TIME2
000974: 37,3662           52315                           DXCH     TIME2SAV
000975: 37,3663           03714                           TC       SCALPREP
000976: 37,3664           03657                           TC       PRESTAND                              #  T1,T2,SCALER NOT COMPATIBLE
000977: 37,3665           52155                           DXCH     MPAC                                  #  T1,T2 AND SCALER OK
000978: 37,3666           52317                           DXCH     SCALSAVE                              #  STORE SCALER
000979: 37,3667           00004                           INHINT
000980: 37,3670           04616                           TC       BANKCALL
000981: 37,3671           17175                           CADR     RNDREFDR                              #  REFSMM, DRIFT, TRACK FLAGS DOWN
000982:
000983: 37,3672           05516                           TC       DOWNFLAG
000984: 37,3673           00007                           ADRES    IMUSE                                 #  IMUSE DOWN
000985: 37,3674           05516                           TC       DOWNFLAG
000986: 37,3675           00010                           ADRES    RNDVZFLG                              #  RNDVZFLG DOWN
000987:
000988: 37,3676           34741                           CAF      BIT11
000989: 37,3677           00006                           EXTEND
000990: 37,3700           05013                           WOR      CHAN13                                #  SET STANDBY ENABLE BIT
000991:
000992: 37,3701           05353                           TC       PHASCHNG                              #  SET RESTART TO POSTAND WHEN STANDBY
000993: 37,3702           07024                           OCT      07024                                 #        RECOVERS
000994: 37,3703           20000                           OCT      20000
000995: 37,3704     0316                                  EBANK=   SCALSAVE
000996: 37,3704           03734 76060                     2CADR    POSTAND
000997:
000998: 37,3706           34774                           CAF      OCT62
000999: 37,3707           04616                           TC       BANKCALL
001000: 37,3710           20623                           CADR     GOPERF1
001001: 37,3711           13706                           TCF      -3
001002: 37,3712           13706                           TCF      -4
001003: 37,3713           13706                           TCF      -5
001004:
001005: 37,3714     4774               OCT62              EQUALS   .5SEC                                 #  DEC 50 = OCT 62
001006:
001007:                                                                                                  #  THE LOW 5 BITS OF THE SCALER READS 10000 FOR THE FIRST INTERVAL AFTER A


001009:                                                                                                  #  T1 INCREMENT.  IF SCALPREP DETECTS THIS INTERVAL THE T1,T2 AND SCALER
001010:                                                                                                  #  DATA ARE NOT COMPATABLE AND RETURN IS TO L+1 FOR ANOTHER READING OF THE
001011:                                                                                                  #  DATA.  OTHERWISE, THE RETURN IS TO L+2 TO PROCEED.  ROUTINE ALSO PREPARES
001012:                                                                                                  #  THE SCALER READING FOR COMPUTATION OF THE INCREMENT TO UPDATE T1T2.  (THE
001013:                                                                                                  #  10 MS BIT (BIT 6) OF THE SCALER IS INCREMENTED 5 MS OUT OF PHASE FROM
001014:                                                                                                  #  T1.) ADDITION OF 5 MS (BIT 5) TO THE SCALER READING HAS THE EFFECT OF
001015:                                                                                                  #  ADJUSTING BIT 6 IN THE SCALER TO BE IN PHASE WITH BIT 1 OF T1.  THE LOW 5
001016:                                                                                                  #  BITS OF THE SCALER READING ARE THEN SET TO ZERO, TO TRUNCATE THE SCALER
001017:                                                                                                  #  DATA TO 10 MS.  RESULTS ARE STORED IN MPAC, +1.
001018:
001019: 37,3714           00006        SCALPREP           EXTEND
001020: 37,3715           22156                           QXCH     MPAC       +2
001021: 37,3716           04103                           TC       FINETIME   +1
001022: 37,3717           00003                           RELINT
001023: 37,3720           52155                           DXCH     MPAC
001024: 37,3721           34747                           CA       BIT5                                  #  ADD 5 MS TO THE SCALER READING.
001025: 37,3722           54001                           TS       L
001026: 37,3723           34755                           CA       ZERO
001027: 37,3724           20155                           DAS      MPAC
001028: 37,3725           44346                           CS       LOW5                                  #  SET LOW 5 BITS OF (SCALER+5MS) TO ZERO
001029: 37,3726           70155                           MASK     MPAC       +1                         #  AND STORE RESULTS IN MPAC,+1.
001030: 37,3727           56155                           XCH      MPAC       +1
001031: 37,3730           74346                           MASK     LOW5                                  #  TEST LOW 5 BITS OF SCALER FOR THE FIRST
001032:                                                                                                  #  INTERVAL AFTER THE T1 INCREMENT
001033:                                                                                                  #  (NOW = 00000, SINCE BIT 5 ADDED).
001034: 37,3731           10000                           CCS      A                                     #  IS IT 1ST INTERVAL AFTER T1 INCREMENT
001035: 37,3732           24156                           INCR     MPAC       +2                         #  NO
001036: 37,3733           00156                           TC       MPAC       +2                         #  YES
001037:
001038:                                                                                                  #  POSTAND RECOVERS TIME AFTER STANDBY.  THE SCALER IS SNAPSHOTTED AND THE
001039:                                                                                                  #  TIME1 TIME2 COUNTER IS SET TO ZERO.  THE LOW 5 BITS OF THE SCALER ARE
001040:                                                                                                  #  INSPECTED TO INSURE COMPATABILITY BETWEEN THE SCALER READING AND THE
001041:                                                                                                  #  CLEARING OF THE TIME COUNTER.  IT THEN COMPUTES THE DIFFERENCE IN SCALER
001042:                                                                                                  #  VALUES (IN DP) AND ADDS THIS TO THE PREVIOUSLY SNAPSHOTTED VALUES OF
001043:                                                                                                  #  TIME1 TIME2 AND PLACES THIS NEW TIME INTO THE TIME1 TIME2 COUNTER.
001044:
001045: 37,3734                                           COUNT*   $$/P05
001046:
001047: 37,3734           44741        POSTAND            CS       BIT11                                 #  RECOVER TIME AFTER STANDBY.
001048: 37,3735           00006                           EXTEND
001049: 37,3736           03013                           WAND     CHAN13                                #  CLEAR STANDBY ENABLE BIT
001050: 37,3737           00004                           INHINT
001051: 37,3740           34755                           CA       ZERO
001052: 37,3741           54001                           TS       L
001053: 37,3742           52025                           DXCH     TIME2                                 #  CLEAR TIME1TIME2
001054: 37,3743           03714                           TC       SCALPREP                              #  STORE SCALER IN MPAC, MPAC+1
001055: 37,3744           03737                           TC       POSTAND    +3                         #  T1,T2,SCALER NOT COMPATIBLE
001056: 37,3745           00006                           EXTEND                                         #  T1,T2 AND SCALER OK
001057: 37,3746           40317                           DCS      SCALSAVE
001058: 37,3747           20155                           DAS      MPAC                                  #  FORM DP DIFFERENCE OF POSTSTANDBY SCALER


001060: 37,3750           34742                           CAF      BIT10                                 #  MINUS PRESTANDBY SCALER AND SHIFT RIGHT
001061: 37,3751           07307                           TC       SHORTMP                               #  5 TO ALIGN BITS WITH TIME1 TIME2.
001062: 37,3752           34755                           CAF      ZERO
001063: 37,3753           54156                           TS       MPAC       +2                         #  NEEDED FOR TP AGREE
001064: 37,3754           07257                           TC       TPAGREE                               #  MAKE DP DIFF AGREE
001065: 37,3755           10154                           CCS      MPAC
001066: 37,3756           03763                           TC       POSTCOM                               #  IF DP DIFF NET +, NO SCALER OVERFLOW
001067: 37,3757           03763                           TC       POSTCOM                               #  BETWEEN PRE AND POST STANDBY.
001068: 37,3760           03761                           TC       +1                                    #  IF DP DIFF NET -, SCALER OVERFLOWED.  ADD
001069: 37,3761           34742                           CAF      BIT10                                 #  BIT 10 TO HIGH DIFF TO CORRECT.
001070: 37,3762           26154                           ADS      MPAC
001071: 37,3763           00006        POSTCOM            EXTEND                                         #  C(MPAC,+1) IS MAGNITUDE OF DELTA SCALER.
001072: 37,3764           30315                           DCA      TIME2SAV                              #  PRESTANDBY TIME1TIME2
001073: 37,3765           20155                           DAS      MPAC
001074: 37,3766           07257                           TC       TPAGREE                               #  FORCE SIGN AGREEMENT
001075: 37,3767           52155                           DXCH     MPAC                                  #  UPDATED VALUE FOR T1,T2.
001076: 37,3770           20025                           DAS      TIME2                                 #  LOAD UPDATED VALUE INTO T1,T2, WITH
001077: 37,3771           05516                           TC       DOWNFLAG                              #  CLEAR NODOFLAG
001078: 37,3772           00054                           ADRES    NODOFLAG
001079:
001080: 37,3773           06001                           TC       GOTOPOOH
001081:

End of include-file IMU_MODE_SWITCHING_ROUTINES.agc.  Parent file is MAIN.agc


