
Source Code


000002:                                                                                                  ## Copyright:   Public domain.
000003:                                                                                                  ## Filename:    INFLIGHT_ALIGNMENT_ROUTINES.agc
000004:                                                                                                  ## Purpose:     Part of the source code for Luminary 1A build 099.
000005:                                                                                                  ##              It is part of the source code for the Lunar Module's (LM)
000006:                                                                                                  ##              Apollo Guidance Computer (AGC), for Apollo 11.
000007:                                                                                                  ## Assembler:   yaYUL
000008:                                                                                                  ## Contact:     Ron Burkey <info@sandroid.org>.
000009:                                                                                                  ## Website:     www.ibiblio.org/apollo.
000010:                                                                                                  ## Pages:       1249-1258
000011:                                                                                                  ## Mod history: 2009-05-26 RSB  Adapted from the corresponding
000012:                                                                                                  ##                              Luminary131 file, using page
000013:                                                                                                  ##                              images from Luminary 1A.
000014:                                                                                                  ##
000015:                                                                                                  ## This source code has been transcribed or otherwise adapted from
000016:                                                                                                  ## digitized images of a hardcopy from the MIT Museum.  The digitization
000017:                                                                                                  ## was performed by Paul Fjeld, and arranged for by Deborah Douglas of
000018:                                                                                                  ## the Museum.  Many thanks to both.  The images (with suitable reduction
000019:                                                                                                  ## in storage size and consequent reduction in image quality as well) are
000020:                                                                                                  ## available online at www.ibiblio.org/apollo.  If for some reason you
000021:                                                                                                  ## find that the images are illegible, contact me at info@sandroid.org
000022:                                                                                                  ## about getting access to the (much) higher-quality images which Paul
000023:                                                                                                  ## actually created.
000024:                                                                                                  ##
000025:                                                                                                  ## Notations on the hardcopy document read, in part:
000026:                                                                                                  ##
000027:                                                                                                  ##      Assemble revision 001 of AGC program LMY99 by NASA 2021112-61
000028:                                                                                                  ##      16:27 JULY 14, 1969
000029:


000031: 22,3773                                           BANK     22
000032: 23,2000                                           SETLOC   INFLIGHT
000033: 23,2000                                           BANK
000034:
000035: 23,3247  E5,1642                                  EBANK=   XSM
000036:
000037:                                                                                                  #  CALCGTA COMPUTES THE GYRO TORQUE ANGLES REQUIRED TO BRING THE STABLE MEMBER INTO THE DESIRED ORIENTATION.
000038:
000039:                                                                                                  #  THE INPUT IS THE DESIRED STABLE MEMBER COORDINATES REFERRED TO PRESENT STABLE MEMBER COORDINATES.  THE THREE
000040:                                                                                                  #  HALF-UNIT VECTORS ARE STORED AT XDC, YDC, AND ZDC.
000041:
000042:                                                                                                  #  THE OUTPUTS ARE THE THREE GYRO TORQUE ANGLES TO BE APPLIED TO THE Y, Z, AND X GYROS AND ARE STORED DP AT IGC,
000043:                                                                                                  #  MGC, AND OGC RESPECTIVELY.
000044:
000045: 23,3247                                           COUNT*   $$/INFLT
000046: 23,3247           71220        CALCGTA            ITA      DLOAD                                 #  PUSHDOWN 00-03, 16D-27D, 34D-37D
000047: 23,3250           00051                                    S2                                    #  XDC = (XD1 XD2 XD3)
000048: 23,3251           02665                                    XDC                                   #  YDC = (YD1 YD2 YD3)
000049: 23,3252           65325                           PDDL     PDDL                                  #  ZDC = (ZD1 ZD2 ZD3)
000050: 23,3253           06522                                    HI6ZEROS
000051: 23,3254           02671                                    XDC        +4
000052: 23,3255           55476                           DCOMP    VDEF
000053: 23,3256           77656                           UNIT
000054: 23,3257           14027                           STODL    ZPRIME                                #  ZP = UNIT(-XD3 0 XD1) = (ZP1 ZP2 ZP3)
000055: 23,3260           00027                                    ZPRIME
000056:
000057: 23,3261           77742                           SR1
000058: 23,3262           14023                           STODL    SINTH                                 #  SIN(IGC) = ZP1
000059: 23,3263           00033                                    ZPRIME     +4
000060: 23,3264           77742                           SR1
000061: 23,3265           34021                           STCALL   COSTH                                 #  COS(IGC) = ZP3
000062: 23,3266           47320                                    ARCTRIG
000063:
000064: 23,3267           16742                           STODL    IGC                                   #  Y GYRO TORQUING ANGLE   FRACTION OF REV.
000065: 23,3270           02667                                    XDC        +2
000066: 23,3271           77742                           SR1
000067: 23,3272           14023                           STODL    SINTH                                 #  SIN(MGC) = XD2
000068: 23,3273           00027                                    ZPRIME
000069:
000070: 23,3274           65205                           DMP      PDDL
000071: 23,3275           02671                                    XDC        +4                         #  PD00 = (ZP1)(XD3)
000072: 23,3276           00033                                    ZPRIME     +4
000073:
000074: 23,3277           45205                           DMP      DSU
000075: 23,3300           02665                                    XDC                                   #  MPAC = (ZP3)(XD1)
000076: 23,3301           77626                           STADR
000077: 23,3302           43756                           STCALL   COSTH                                 #  COS(MGC) = MPAC - PD00
000078: 23,3303           47320                                    ARCTRIG


000080: 23,3304           26744                           STOVL    MGC                                   #  Z GYRO TORQUING ANGLE   FRACTION OF REV.
000081: 23,3305           00027                                    ZPRIME
000082: 23,3306           77641                           DOT
000083: 23,3307           02701                                    ZDC
000084: 23,3310           24021                           STOVL    COSTH                                 #  COS(OGC) = ZP . ZDC
000085: 23,3311           00027                                    ZPRIME
000086: 23,3312           77641                           DOT
000087: 23,3313           02673                                    YDC
000088: 23,3314           34023                           STCALL   SINTH                                 #  SIN(OGC) = ZP . YDC
000089: 23,3315           47320                                    ARCTRIG
000090:
000091: 23,3316           36740                           STCALL   OGC                                   #  X GYRO TORQUING ANGLE   FRACTION OF REV.
000092: 23,3317           00051                                    S2
000093:


000095:                                                                                                  #  ARCTRIG COMPUTES AN ANGLE GIVEN THE SINE AND COSINE OF THIS ANGLE.
000096:
000097:                                                                                                  #  THE INPUTS ARE SIN/4 AND COS/4 STORED UP AT SINTH AND COSTH.
000098:
000099:                                                                                                  #  THE OUTPUT IS THE CALCULATED ANGLE BETWEEN +.5 AND -.5 REVOLUTIONS AND STORED AT THETA.  THE OUTPUT IS ALSO
000100:                                                                                                  #  AVAILABLE AT MPAC.
000101:
000102: 23,3320           51545        ARCTRIG            DLOAD    ABS                                   #  PUSHDOWN  16D-21D
000103: 23,3321           00023                                    SINTH
000104: 23,3322           50025                           DSU      BMN
000105: 23,3323           07534                                    QTSN45                                #  ABS(SIN/4) - SIN(45)/4
000106: 23,3324           47333                                    TRIG1                                 #  IF (-45,45) OR (135,-135)
000107:
000108: 23,3325           72545                           DLOAD    SL1                                   #  (45,135) OR (-135,-45)
000109: 23,3326           00021                                    COSTH
000110: 23,3327           75326                           ACOS     SIGN
000111: 23,3330           00023                                    SINTH
000112: 23,3331           00025                           STORE    THETA                                 #  X = ARCCOS(COS) WITH SIGN(SIN)
000113: 23,3332           77616                           RVQ
000114:
000115: 23,3333           72545        TRIG1              DLOAD    SL1                                   #  (-45,45) OR (135,-135)
000116: 23,3334           00023                                    SINTH
000117: 23,3335           77736                           ASIN
000118: 23,3336           14025                           STODL    THETA                                 #  X = ARCSIN(SIN) WITH SIGN(SIN)
000119: 23,3337           00021                                    COSTH
000120: 23,3340           77640                           BMN
000121: 23,3341           47344                                    TRIG2                                 #  IF (135,-135)
000122:
000123: 23,3342           43545                           DLOAD    RVQ
000124: 23,3343           00025                                    THETA                                 #  X = ARCSIN(SIN)   (-45,45)
000125:
000126: 23,3344           75345        TRIG2              DLOAD    SIGN                                  #  (135,-135)
000127: 23,3345           06520                                    HIDPHALF
000128: 23,3346           00023                                    SINTH
000129: 23,3347           77625                           DSU
000130: 23,3350           00025                                    THETA
000131: 23,3351           00025                           STORE    THETA                                 #  X = .5 WITH SIGN(SIN) - ARCSIN(SIN)
000132: 23,3352           77616                           RVQ                                            #        (+) - (+) OR (-) - (-)
000133:


000135:                                                                                                  #  SMNB, NBSM, AND AXISROT, WHICH USED TO APPEAR HERE, HAVE BEEN
000136:                                                                                                  #  COMBINED IN A ROUTINE CALLED AX*SR*T, WHICH APPEARS AMONG THE POWERED
000137:                                                                                                  #  FLIGHT SUBROUTINES.
000138:


000140:                                                                                                  #  CALCGA COMPUTES THE CDU DRIVING ANGLES REQUIRED TO BRING THE STABLE MEMBER INTO THE DESIRED ORIENTATION.
000141:
000142:                                                                                                  #  THE INPUTS ARE  1) THE NAVIGATION BASE COORDINATES REFERRED TO ANY COORDINATE SYSTEM.  THE THREE HALF-UNIT
000143:                                                                                                  #  VECTORS ARE STORED AT XNB, YNB, AND ZNB.  2) THE DESIRED STABLE MEMBER COORDINATES REFERRED TO THE SAME
000144:                                                                                                  #  COORDINATE SYSTEM ARE STORED AT XSM, YSM, AND ZSM.
000145:
000146:                                                                                                  #  THE OUTPUTS ARE THE THREE CDU DRIVING ANGLES AND ARE STORED SP AT THETAD, THETAD +1, AND THETAD +2.
000147:
000148: 23,3353           77601        CALCGA             SETPD                                          #  PUSHDOWN 00-05, 16D-21D, 34D-37D
000149: 23,3354           00001                                    0
000150: 23,3355           47375                           VLOAD    VXV
000151: 23,3356           02665                                    XNB                                   #  XNB = OGA (OUTER GIMBAL AXIS)
000152: 23,3357           02651                                    YSM                                   #  YSM = IGA (INNER GIMBAL AXIS)
000153: 23,3360           41456                           UNIT     PUSH                                  #  PD0 = UNIT(OGA X IGA) = MGA
000154:
000155: 23,3361           44041                           DOT      ITA
000156: 23,3362           02701                                    ZNB
000157: 23,3363           00051                                    S2
000158: 23,3364           24021                           STOVL    COSTH                                 #  COS(OG) = MGA . ZNB
000159: 23,3365           00001                                    0
000160: 23,3366           77641                           DOT
000161: 23,3367           02673                                    YNB
000162: 23,3370           34023                           STCALL   SINTH                                 #  SIN(OG) = MGA . YNB
000163: 23,3371           47320                                    ARCTRIG
000164: 23,3372           26740                           STOVL    OGC
000165: 23,3373           00001                                    0
000166:
000167: 23,3374           50235                           VXV      DOT                                   #  PROVISION FOR MG ANGLE OF 90 DEGREES
000168: 23,3375           02665                                    XNB
000169: 23,3376           02651                                    YSM
000170: 23,3377           77752                           SL1
000171: 23,3400           24021                           STOVL    COSTH                                 #  COS(MG) = IGA . (MGA X OGA)
000172: 23,3401           02651                                    YSM
000173: 23,3402           77641                           DOT
000174: 23,3403           02665                                    XNB
000175: 23,3404           34023                           STCALL   SINTH                                 #  SIN(MG) = IGA . OGA
000176: 23,3405           47320                                    ARCTRIG
000177: 23,3406           02744                           STORE    MGC
000178:
000179: 23,3407           45246                           ABS      DSU
000180: 23,3410           07536                                    .166...
000181: 23,3411           77644                           BPL
000182: 23,3412           47431                                    GIMLOCK1                              #  IF ANGLE GREATER THAN 60 DEGREES
000183:
000184: 23,3413           50375        CALCGA1            VLOAD    DOT
000185: 23,3414           02657                                    ZSM
000186: 23,3415           00001                                    0
000187: 23,3416           24021                           STOVL    COSTH                                 #  COS(IG) = ZSM . MGA
000188: 23,3417           02643                                    XSM


000190: 23,3420           45441                           DOT      STADR
000191: 23,3421           43754                           STCALL   SINTH                                 #  SIN(IG) = XSM . MGA
000192: 23,3422           47320                                    ARCTRIG
000193:
000194: 23,3423           26742                           STOVL    IGC
000195: 23,3424           02740                                    OGC
000196: 23,3425           77634                           RTB
000197: 23,3426           21620                                    V1STO2S
000198: 23,3427           34322                           STCALL   THETAD
000199: 23,3430           00051                                    S2
000200:
000201: 23,3431           77776        GIMLOCK1           EXIT
000202: 23,3432           05567                           TC       ALARM
000203: 23,3433           00401                           OCT      00401
000204: 23,3434           05504                           TC       UPFLAG                                #  GIMBAL LOCK HAS OCCURRED
000205: 23,3435           00056                           ADRES    GLOKFAIL
000206:
000207: 23,3436           06037                           TC       INTPRET
000208: 23,3437           77650                           GOTO
000209: 23,3440           47413                                    CALCGA1
000210:


000212:                                                                                                  #  AXISGEN COMPUTES THE COORDINATES OF ONE COORDINATE SYSTEM REFERRED TO ANOTHER COORDINATE SYSTEM.
000213:
000214:                                                                                                  #  THE INPUTS ARE  1) THE STAR1 VECTOR REFERRED TO COORDINATE SYSTEM A STORED AT STARAD.  2) THE STAR2 VECTOR
000215:                                                                                                  #  REFERRED TO COORDINATE SYSTEM A STORED AT STARAD +6.  3) THE STAR1 VECTOR REFERRED TO COORDINATE SYSTEM B STORED
000216:                                                                                                  #  AT LOCATION 6 OF THE VAC AREA.  4) THE STAR2 VECTOR REFERRED TO COORDINATE SYSTEM B STORED AT LOCATION 12D OF
000217:                                                                                                  #  THE VAC AREA.
000218:
000219:                                                                                                  #  THE OUTPUT DEFINES COORDINATE SYSTEM A REFERRED TO COORDINATE SYSTEM B.  THE THREE HALF-UNIT VECTORS ARE STORED
000220:                                                                                                  #  AT LOCATIONS XDC, XDC +6, XDC +12D, AND STARAD, STARAD +6, STARAD +12D.
000221:
000222: 23,3441           66370        AXISGEN            AXT,1    SSP                                   #  PUSHDOWN 00-30D, 34D-37D
000223: 23,3442           02714                                    STARAD     +6
000224: 23,3443           00051                                    S1
000225: 23,3444           02700                                    STARAD     -6
000226:
000227: 23,3445           77601                           SETPD
000228: 23,3446           00001                                    0
000229: 23,3447           46773        AXISGEN1           VLOAD*   VXV*                                  #  06D   UA = S1
000230: 23,3450           02723                                    STARAD     +12D,1                     #        STARAD +00D     UB = S1
000231: 23,3451           02731                                    STARAD     +18D,1
000232: 23,3452           77656                           UNIT                                           #  12D   VA = UNIT(S1 X S2)
000233: 23,3453           06731                           STORE    STARAD     +18D,1                     #        STARAD +06D     VB = UNIT(S1 X S2)
000234: 23,3454           77773                           VLOAD*
000235: 23,3455           02723                                    STARAD     +12D,1
000236:
000237: 23,3456           76433                           VXV*     VSL1
000238: 23,3457           02731                                    STARAD     +18D,1                     #  18D   WA = UA X VA
000239: 23,3460           06737                           STORE    STARAD     +24D,1                     #        STARAD +12D     WB = UB X VB
000240:
000241: 23,3461           77700                           TIX,1
000242: 23,3462           47447                                    AXISGEN1
000243:
000244: 23,3463           66160                           AXC,1    SXA,1
000245: 23,3464           00006                                    6
000246: 23,3465           00036                                    30D
000247:
000248: 23,3466           66370                           AXT,1    SSP
000249: 23,3467           00022                                    18D
000250: 23,3470           00051                                    S1
000251: 23,3471           00006                                    6
000252:
000253: 23,3472           66374                           AXT,2    SSP
000254: 23,3473           00006                                    6
000255: 23,3474           00052                                    S2
000256: 23,3475           00002                                    2
000257:
000258: 23,3476           76720        AXISGEN2           XCHX,1   VLOAD*
000259: 23,3477           00036                                    30D                                   #  X1=-6 X2=+6   X1=-6 X2=+4     X1=-6 X2=+2
000260: 23,3500           00001                                    0,1
000261:


000263: 23,3501           62757                           VXSC*    PDVL*                                 #  J=(UA)(UB1)   J=(UA)(UB2)     J=(UA)(UB3)
000264: 23,3502           75062                                    STARAD     +6,2
000265: 23,3503           00007                                    6,1
000266: 23,3504           77757                           VXSC*
000267: 23,3505           75054                                    STARAD     +12D,2
000268: 23,3506           30031                           STOVL*   24D                                   #  K=(VA)(VB1)   J=(VA)(VB2)     J=(VA)(VB3)
000269: 23,3507           00015                                    12D,1
000270:
000271: 23,3510           53357                           VXSC*    VAD
000272: 23,3511           75046                                    STARAD     +18D,2                     #  L=(WA)(WB1)   J=(WA)(WB2)     J=(WA)(WB3)
000273: 23,3512           76455                           VAD      VSL1
000274: 23,3513           00031                                    24D
000275: 23,3514           53520                           XCHX,1   UNIT
000276: 23,3515           00036                                    30D
000277: 23,3516           06707                           STORE    XDC        +18D,1                     #  XDC = L+J+K   YDC = L+J+K     ZDC = L+J+K
000278:
000279: 23,3517           77700                           TIX,1
000280: 23,3520           47521                                    AXISGEN3
000281:
000282: 23,3521           77704        AXISGEN3           TIX,2
000283: 23,3522           47476                                    AXISGEN2
000284:
000285: 23,3523           77775                           VLOAD
000286: 23,3524           02665                                    XDC
000287: 23,3525           26707                           STOVL    STARAD
000288: 23,3526           02673                                    YDC
000289: 23,3527           26715                           STOVL    STARAD     +6
000290: 23,3530           02701                                    ZDC
000291: 23,3531           02723                           STORE    STARAD     +12D
000292:
000293: 23,3532           77616                           RVQ
000294:


000296: 23,3533           05520 26075  QTSN45             2DEC     .1768
000297:
000298: 23,3535           05252 25253  .166...            2DEC     .1666666667
000299:


000301:

End of include-file INFLIGHT_ALIGNMENT_ROUTINES.agc.  Parent file is MAIN.agc


