
Source Code
000001:                                                                                                 #  Copyright:     Public domain.
000002:                                                                                                 #  Filename:      INTERRUT_LEAD_INS.agc
000003:                                                                                                 #  Purpose:       Part of the source code for Luminary 1A build 099.
000004:                                                                                                 #                 It is part of the source code for the Lunar Module's (LM)
000005:                                                                                                 #                 Apollo Guidance Computer (AGC), for Apollo 11.
000006:                                                                                                 #  Assembler:     yaYUL
000007:                                                                                                 #  Contact:       Onno Hommes <ohommes@cmu.edu>.
000008:                                                                                                 #  Website:       www.ibiblio.org/apollo.
000009:                                                                                                 #  Pages: 0153-0154
000010:                                                                                                 #  Mod history:   2009-05-14 OH   Transcribed from page images.
000011:
000012:                                                                                                 #  This source code has been transcribed or otherwise adapted from
000013:                                                                                                 #  digitized images of a hardcopy from the MIT Museum.  The digitization
000014:                                                                                                 #  was performed by Paul Fjeld, and arranged for by Deborah Douglas of
000015:                                                                                                 #  the Museum.  Many thanks to both.  The images (with suitable reduction
000016:                                                                                                 #  in storage size and consequent reduction in image quality as well) are
000017:                                                                                                 #  available online at www.ibiblio.org/apollo.  If for some reason you
000018:                                                                                                 #  find that the images are illegible, contact me at info@sandroid.org
000019:                                                                                                 #  about getting access to the (much) higher-quality images which Paul
000020:                                                                                                 #  actually created.
000021:
000022:                                                                                                 #  Notations on the hardcopy document read, in part:
000023:
000024:                                                                                                 #         Assemble revision 001 of AGC program LMY99 by NASA 2021112-61
000025:                                                                                                 #         16:27 JULY 14, 1969
000026:
000027:
000028:                                                                                                 #  Page 153
000029:    4000                                          SETLOC   4000
000030:
000031:    4000                                          COUNT*   $$/RUPTS                              #  FIX-FIX LEAD INS
000032:    4000           00004                          INHINT                                         #  GO
000033:    4001           34054                          CAF      GOBB
000034:    4002           56006                          XCH      BBANK
000035:    4003           12667                          TCF      GOPROG
000036:
000037:    4004           52011                          DXCH     ARUPT                                 #  T6RUPT
000038:    4005           00006                          EXTEND
000039:    4006           34056                          DCA      T6ADR
000040:    4007           52006                          DTCB
000041:
000042:    4010           52011                          DXCH     ARUPT                                 #  T5RUPT -- AUTOPILOT
000043:    4011           00006                          EXTEND
000044:    4012           31275                          DCA      T5ADR
000045:    4013           52006                          DTCB
000046:
000047:    4014           52011                          DXCH     ARUPT                                 #  T3RUPT
000048:    4015           34057                          CAF      T3RPTBB
000049:    4016           56006                          XCH      BBANK
000050:    4017           13407                          TCF      T3RUPT
000051:
000052:    4020           52011                          DXCH     ARUPT                                 #  T4RUPT
000053:    4021           34064                          CAF      T4RPTBB
000054:    4022           56006                          XCH      BBANK
000055:    4023           12000                          TCF      T4RUPT
000056:
000057:    4024           52011                          DXCH     ARUPT                                 #  KEYRUPT1
000058:    4025           34060                          CAF      KEYRPTBB
000059:    4026           56006                          XCH      BBANK
000060:    4027           13274                          TCF      KEYRUPT1
000061:
000062:    4030           52011                          DXCH     ARUPT                                 #  KEYRUPT2
000063:    4031           34061                          CAF      MKRUPTBB
000064:    4032           56006                          XCH      BBANK
000065:    4033           12332                          TCF      MARKRUPT
000066:
000067:    4034           52011                          DXCH     ARUPT                                 #  UPRUPT
000068:    4035           34060                          CAF      UPRPTBB
000069:    4036           56006                          XCH      BBANK
000070:    4037           13317                          TCF      UPRUPT
000071:
000072:    4040           52011                          DXCH     ARUPT                                 #  DOWNRUPT
000073:    4041           34062                          CAF      DWNRPTBB
000074:    4042           56006                          XCH      BBANK
000075:    4043           13506                          TCF      DODOWNTM
000076:
000077:    4044           52011                          DXCH     ARUPT                                 #  RADAR RUPT
000078:    4045           34063                          CAF      RDRPTBB
000079:                                                                                                 #  Page 154
000080:    4046           56006                          XCH      BBANK
000081:    4047           13150                          TCF      RADAREAD
000082:
000083:    4050           52011                          DXCH     ARUPT                                 #  RUPT10 IS USED ONLY BY LANDING GUIDANCE
000084:    4051           34065                          CA       RUPT10BB
000085:    4052           56006                          XCH      BBANK
000086:    4053           12275                          TCF      PITFALL
000087:
000088:
000089:    4054  E3,1400                                 EBANK=   LST1                                  #  RESTART USES E0, E3
000090:    4054           12103        GOBB              BBCON    GOPROG
000091:
000092:    4055  E6,1464                                 EBANK=   PERROR
000093:    4055           02065 36106  T6ADR             2CADR    DOT6RUPT
000094:
000095:    4057  E3,1400                                 EBANK=   LST1
000096:    4057           02103        T3RPTBB           BBCON    T3RUPT
000097:
000098:    4060     0073                                 EBANK=   KEYTEMP1
000099:    4060           10100        KEYRPTBB          BBCON    KEYRUPT1
000100:
000101:    4061  E7,1404                                 EBANK=   AOTAZ
000102:    4061           16107        MKRUPTBB          BBCON    MARKRUPT
000103:
000104:    4062     4060               UPRPTBB           =        KEYRPTBB
000105:
000106:    4062     0340                                 EBANK=   DNTMBUFF
000107:    4062           12100        DWNRPTBB          BBCON    DODOWNTM
000108:
000109:    4063     0110                                 EBANK=   RADMODES
000110:    4063           52100        RDRPTBB           BBCON    RADAREAD
000111:
000112:    4064  E6,1414                                 EBANK=   M11
000113:    4064           14106        T4RPTBB           BBCON    T4RUPT
000114:
000115:    4065     1265                                 EBANK=   ELVIRA
000116:    4065           22102        RUPT10BB          BBCON    PITFALL
000117:

End of include-file INTERRUPT_LEAD_INS.agc.  Parent file is MAIN.agc


