
Source Code


000002:                                                                                                  #  Copyright:    Public domain.
000003:                                                                                                  #  Filename:     INTERRUT_LEAD_INS.agc
000004:                                                                                                  #  Purpose:      Part of the source code for Luminary 1A build 099.
000005:                                                                                                  #                It is part of the source code for the Lunar Module's (LM)
000006:                                                                                                  #                Apollo Guidance Computer (AGC), for Apollo 11.
000007:                                                                                                  #  Assembler:    yaYUL
000008:                                                                                                  #  Contact:      Onno Hommes <ohommes@cmu.edu>.
000009:                                                                                                  #  Website:      www.ibiblio.org/apollo.
000010:                                                                                                  #  Pages:        0153-0154
000011:                                                                                                  #  Mod history:  2009-05-14 OH   Transcribed from page images.
000012:
000013:                                                                                                  #  This source code has been transcribed or otherwise adapted from
000014:                                                                                                  #  digitized images of a hardcopy from the MIT Museum.  The digitization
000015:                                                                                                  #  was performed by Paul Fjeld, and arranged for by Deborah Douglas of
000016:                                                                                                  #  the Museum.  Many thanks to both.  The images (with suitable reduction
000017:                                                                                                  #  in storage size and consequent reduction in image quality as well) are
000018:                                                                                                  #  available online at www.ibiblio.org/apollo.  If for some reason you
000019:                                                                                                  #  find that the images are illegible, contact me at info@sandroid.org
000020:                                                                                                  #  about getting access to the (much) higher-quality images which Paul
000021:                                                                                                  #  actually created.
000022:
000023:                                                                                                  #  Notations on the hardcopy document read, in part:
000024:
000025:                                                                                                  #        Assemble revision 001 of AGC program LMY99 by NASA 2021112-61
000026:                                                                                                  #        16:27 JULY 14, 1969
000027:
000028:
000029:                                                                                                  #  Page 153
000030:    4000                                           SETLOC   4000
000031:
000032:    4000                                           COUNT*   $$/RUPTS                              #  FIX-FIX LEAD INS
000033:    4000           00004                           INHINT                                         #  GO
000034:    4001           34054                           CAF      GOBB
000035:    4002           56006                           XCH      BBANK
000036:    4003           12667                           TCF      GOPROG
000037:
000038:    4004           52011                           DXCH     ARUPT                                 #  T6RUPT
000039:    4005           00006                           EXTEND
000040:    4006           34056                           DCA      T6ADR
000041:    4007           52006                           DTCB
000042:
000043:    4010           52011                           DXCH     ARUPT                                 #  T5RUPT -- AUTOPILOT
000044:    4011           00006                           EXTEND
000045:    4012           31275                           DCA      T5ADR
000046:    4013           52006                           DTCB
000047:
000048:    4014           52011                           DXCH     ARUPT                                 #  T3RUPT
000049:    4015           34057                           CAF      T3RPTBB
000050:    4016           56006                           XCH      BBANK
000051:    4017           13407                           TCF      T3RUPT
000052:
000053:    4020           52011                           DXCH     ARUPT                                 #  T4RUPT
000054:    4021           34064                           CAF      T4RPTBB
000055:    4022           56006                           XCH      BBANK
000056:    4023           12000                           TCF      T4RUPT
000057:
000058:    4024           52011                           DXCH     ARUPT                                 #  KEYRUPT1
000059:    4025           34060                           CAF      KEYRPTBB
000060:    4026           56006                           XCH      BBANK
000061:    4027           13274                           TCF      KEYRUPT1
000062:
000063:    4030           52011                           DXCH     ARUPT                                 #  KEYRUPT2
000064:    4031           34061                           CAF      MKRUPTBB
000065:    4032           56006                           XCH      BBANK
000066:    4033           12332                           TCF      MARKRUPT
000067:
000068:    4034           52011                           DXCH     ARUPT                                 #  UPRUPT
000069:    4035           34060                           CAF      UPRPTBB
000070:    4036           56006                           XCH      BBANK
000071:    4037           13317                           TCF      UPRUPT
000072:
000073:    4040           52011                           DXCH     ARUPT                                 #  DOWNRUPT
000074:    4041           34062                           CAF      DWNRPTBB
000075:    4042           56006                           XCH      BBANK
000076:    4043           13506                           TCF      DODOWNTM
000077:
000078:    4044           52011                           DXCH     ARUPT                                 #  RADAR RUPT
000079:    4045           34063                           CAF      RDRPTBB
000080:                                                                                                  #  Page 154
000081:    4046           56006                           XCH      BBANK
000082:    4047           13150                           TCF      RADAREAD
000083:
000084:    4050           52011                           DXCH     ARUPT                                 #  RUPT10 IS USED ONLY BY LANDING GUIDANCE
000085:    4051           34065                           CA       RUPT10BB
000086:    4052           56006                           XCH      BBANK
000087:    4053           12275                           TCF      PITFALL
000088:
000089:
000090:    4054  E3,1400                                  EBANK=   LST1                                  #  RESTART USES E0, E3
000091:    4054           12103        GOBB               BBCON    GOPROG
000092:
000093:    4055  E6,1464                                  EBANK=   PERROR
000094:    4055           02065 36106  T6ADR              2CADR    DOT6RUPT
000095:
000096:    4057  E3,1400                                  EBANK=   LST1
000097:    4057           02103        T3RPTBB            BBCON    T3RUPT
000098:
000099:    4060     0073                                  EBANK=   KEYTEMP1
000100:    4060           10100        KEYRPTBB           BBCON    KEYRUPT1
000101:
000102:    4061  E7,1404                                  EBANK=   AOTAZ
000103:    4061           16107        MKRUPTBB           BBCON    MARKRUPT
000104:
000105:    4062     4060               UPRPTBB            =        KEYRPTBB
000106:
000107:    4062     0340                                  EBANK=   DNTMBUFF
000108:    4062           12100        DWNRPTBB           BBCON    DODOWNTM
000109:
000110:    4063     0110                                  EBANK=   RADMODES
000111:    4063           52100        RDRPTBB            BBCON    RADAREAD
000112:
000113:    4064  E6,1414                                  EBANK=   M11
000114:    4064           14106        T4RPTBB            BBCON    T4RUPT
000115:
000116:    4065     1265                                  EBANK=   ELVIRA
000117:    4065           22102        RUPT10BB           BBCON    PITFALL
000118:

End of include-file INTERRUPT_LEAD_INS.agc.  Parent file is MAIN.agc


