
Source Code


000002:                                                                                                  ## Copyright:   Public domain.
000003:                                                                                                  ## Filename:    INTERRUT_LEAD_INS.agc
000004:                                                                                                  ## Purpose:     Part of the source code for Luminary 1A build 099.
000005:                                                                                                  ##              It is part of the source code for the Lunar Module's (LM)
000006:                                                                                                  ##              Apollo Guidance Computer (AGC), for Apollo 11.
000007:                                                                                                  ## Assembler:   yaYUL
000008:                                                                                                  ## Contact:     Onno Hommes <ohommes@cmu.edu>.
000009:                                                                                                  ## Website:     www.ibiblio.org/apollo.
000010:                                                                                                  ## Pages:       0153-0154
000011:                                                                                                  ## Mod history: 2009-05-14 OH   Transcribed from page images.
000012:                                                                                                  ##              2016-12-13 RSB  Proofed text comments with octopus/ProoferComments
000013:                                                                                                  ##                              and corrected the errors found.
000014:                                                                                                  ##
000015:                                                                                                  ## This source code has been transcribed or otherwise adapted from
000016:                                                                                                  ## digitized images of a hardcopy from the MIT Museum.  The digitization
000017:                                                                                                  ## was performed by Paul Fjeld, and arranged for by Deborah Douglas of
000018:                                                                                                  ## the Museum.  Many thanks to both.  The images (with suitable reduction
000019:                                                                                                  ## in storage size and consequent reduction in image quality as well) are
000020:                                                                                                  ## available online at www.ibiblio.org/apollo.  If for some reason you
000021:                                                                                                  ## find that the images are illegible, contact me at info@sandroid.org
000022:                                                                                                  ## about getting access to the (much) higher-quality images which Paul
000023:                                                                                                  ## actually created.
000024:                                                                                                  ##
000025:                                                                                                  ## Notations on the hardcopy document read, in part:
000026:                                                                                                  ##
000027:                                                                                                  ##      Assemble revision 001 of AGC program LMY99 by NASA 2021112-61
000028:                                                                                                  ##      16:27 JULY 14, 1969
000029:
000030:


000032:    4000                                           SETLOC   4000
000033:
000034:    4000                                           COUNT*   $$/RUPTS                              #  FIX-FIX LEAD INS
000035:    4000           00004                           INHINT                                         #  GO
000036:    4001           34054                           CAF      GOBB
000037:    4002           56006                           XCH      BBANK
000038:    4003           12667                           TCF      GOPROG
000039:
000040:    4004           52011                           DXCH     ARUPT                                 #  T6RUPT
000041:    4005           00006                           EXTEND
000042:    4006           34056                           DCA      T6ADR
000043:    4007           52006                           DTCB
000044:
000045:    4010           52011                           DXCH     ARUPT                                 #  T5RUPT - AUTOPILOT
000046:    4011           00006                           EXTEND
000047:    4012           31275                           DCA      T5ADR
000048:    4013           52006                           DTCB
000049:
000050:    4014           52011                           DXCH     ARUPT                                 #  T3RUPT
000051:    4015           34057                           CAF      T3RPTBB
000052:    4016           56006                           XCH      BBANK
000053:    4017           13407                           TCF      T3RUPT
000054:
000055:    4020           52011                           DXCH     ARUPT                                 #  T4RUPT
000056:    4021           34064                           CAF      T4RPTBB
000057:    4022           56006                           XCH      BBANK
000058:    4023           12000                           TCF      T4RUPT
000059:
000060:    4024           52011                           DXCH     ARUPT                                 #  KEYRUPT1
000061:    4025           34060                           CAF      KEYRPTBB
000062:    4026           56006                           XCH      BBANK
000063:    4027           13274                           TCF      KEYRUPT1
000064:
000065:    4030           52011                           DXCH     ARUPT                                 #  KEYRUPT2
000066:    4031           34061                           CAF      MKRUPTBB
000067:    4032           56006                           XCH      BBANK
000068:    4033           12332                           TCF      MARKRUPT
000069:
000070:    4034           52011                           DXCH     ARUPT                                 #  UPRUPT
000071:    4035           34060                           CAF      UPRPTBB
000072:    4036           56006                           XCH      BBANK
000073:    4037           13317                           TCF      UPRUPT
000074:
000075:    4040           52011                           DXCH     ARUPT                                 #  DOWNRUPT
000076:    4041           34062                           CAF      DWNRPTBB
000077:    4042           56006                           XCH      BBANK
000078:    4043           13506                           TCF      DODOWNTM
000079:
000080:    4044           52011                           DXCH     ARUPT                                 #  RADAR RUPT
000081:    4045           34063                           CAF      RDRPTBB


000083:    4046           56006                           XCH      BBANK
000084:    4047           13150                           TCF      RADAREAD
000085:
000086:    4050           52011                           DXCH     ARUPT                                 #  RUPT10 IS USED ONLY BY LANDING GUIDANCE
000087:    4051           34065                           CA       RUPT10BB
000088:    4052           56006                           XCH      BBANK
000089:    4053           12275                           TCF      PITFALL
000090:
000091:
000092:    4054  E3,1400                                  EBANK=   LST1                                  #  RESTART USES E0, E3
000093:    4054           12103        GOBB               BBCON    GOPROG
000094:
000095:    4055  E6,1464                                  EBANK=   PERROR
000096:    4055           02065 36106  T6ADR              2CADR    DOT6RUPT
000097:
000098:    4057  E3,1400                                  EBANK=   LST1
000099:    4057           02103        T3RPTBB            BBCON    T3RUPT
000100:
000101:    4060     0073                                  EBANK=   KEYTEMP1
000102:    4060           10100        KEYRPTBB           BBCON    KEYRUPT1
000103:
000104:    4061  E7,1404                                  EBANK=   AOTAZ
000105:    4061           16107        MKRUPTBB           BBCON    MARKRUPT
000106:
000107:    4062     4060               UPRPTBB            =        KEYRPTBB
000108:
000109:    4062     0340                                  EBANK=   DNTMBUFF
000110:    4062           12100        DWNRPTBB           BBCON    DODOWNTM
000111:
000112:    4063     0110                                  EBANK=   RADMODES
000113:    4063           52100        RDRPTBB            BBCON    RADAREAD
000114:
000115:    4064  E6,1414                                  EBANK=   M11
000116:    4064           14106        T4RPTBB            BBCON    T4RUPT
000117:
000118:    4065     1265                                  EBANK=   ELVIRA
000119:    4065           22102        RUPT10BB           BBCON    PITFALL
000120:

End of include-file INTERRUPT_LEAD_INS.agc.  Parent file is MAIN.agc


