
Source Code


000002:                                                                                                  ## Copyright:   Public domain.
000003:                                                                                                  ## Filename:    INTER-BANK_COMMUNICATION.agc
000004:                                                                                                  ## Purpose:     Part of the source code for Luminary 1A build 099.
000005:                                                                                                  ##              It is part of the source code for the Lunar Module's (LM)
000006:                                                                                                  ##              Apollo Guidance Computer (AGC), for Apollo 11.
000007:                                                                                                  ## Assembler:   yaYUL
000008:                                                                                                  ## Contact:     Ron Burkey <info@sandroid.org>.
000009:                                                                                                  ## Website:     www.ibiblio.org/apollo.
000010:                                                                                                  ## Pages:       998-1001
000011:                                                                                                  ## Mod history: 2009-05-24 RSB  Adapted from the corresponding
000012:                                                                                                  ##                              Luminary131 file, using page
000013:                                                                                                  ##                              images from Luminary 1A.
000014:                                                                                                  ##              2011-05-08 JL   Removed workaround.
000015:                                                                                                  ##              2016-12-17 RSB  Proofed text comments with octopus/ProoferComments
000016:                                                                                                  ##                              and corrected the errors found.
000017:                                                                                                  ##              2017-03-13 RSB  Comment-text fixes noted in proofing Luminary 116.
000018:                                                                                                  ##              2017-03-17 RSB  Comment-text fixes identified in diff'ing
000019:                                                                                                  ##                              Luminary 99 vs Comanche 55.
000020:
000021:                                                                                                  ## This source code has been transcribed or otherwise adapted from
000022:                                                                                                  ## digitized images of a hardcopy from the MIT Museum.  The digitization
000023:                                                                                                  ## was performed by Paul Fjeld, and arranged for by Deborah Douglas of
000024:                                                                                                  ## the Museum.  Many thanks to both.  The images (with suitable reduction
000025:                                                                                                  ## in storage size and consequent reduction in image quality as well) are
000026:                                                                                                  ## available online at www.ibiblio.org/apollo.  If for some reason you
000027:                                                                                                  ## find that the images are illegible, contact me at info@sandroid.org
000028:                                                                                                  ## about getting access to the (much) higher-quality images which Paul
000029:                                                                                                  ## actually created.
000030:                                                                                                  ##
000031:                                                                                                  ## Notations on the hardcopy document read, in part:
000032:                                                                                                  ##
000033:                                                                                                  ##      Assemble revision 001 of AGC program LMY99 by NASA 2021112-61
000034:                                                                                                  ##      16:27 JULY 14, 1969
000035:


000037:                                                                                                  #  THE FOLLOWING ROUTINE CAN BE USED TO CALL A SUBROUTINE IN ANOTHER BANK. IN THE BANKCALL VERSION, THE
000038:                                                                                                  #  CADR OF THE SUBROUTINE IMMEDIATELY FOLLOWS THE TC BANKCALL INSTRUCTION, WITH C(A) AND C(L) PRESERVED.
000039:
000040:    4616                                           BLOCK    02
000041:    4616                                           COUNT*   $$/BANK
000042:    4616           52134        BANKCALL           DXCH     BUF2                                  #  SAVE INCOMING A,L.
000043:    4617           50002                           INDEX    Q                                     #  PICK UP CADR.
000044:    4620           30000                           CA       0
000045:    4621           24002                           INCR     Q                                     #  SO WE RETURN TO THE LOC. AFTER THE CADR.
000046:
000047:                                                                                                  #  SWCALL IS  IDENTICAL TO BANKCALL, EXCEPT THAT THE CADR ARRIVES IN A.
000048:
000049:    4622           54001        SWCALL             TS       L
000050:    4623           22004                           LXCH     FBANK                                 #  SWITCH BANKS, SAVING RETURN.
000051:    4624           75012                           MASK     LOW10                                 #  GET SUB-ADDRESS OF CADR.
000052:    4625           56002                           XCH      Q                                     #  A,L NOW CONTAINS DP RETURN.
000053:    4626           52134                           DXCH     BUF2                                  #  RESTORING INPUTS IF THIS IS A BANKCALL.
000054:    4627           50002                           INDEX    Q
000055:    4630           02000                           TC       10000                                 #  SETTING Q TO SWRETURN.
000056:
000057:    4631           56134        SWRETURN           XCH      BUF2       +1                         #  COMES HERE TO RETURN TO CALLER. C(A,L)
000058:    4632           56004                           XCH      FBANK                                 #  ARE PRESERVED FOR RETURN.
000059:    4633           56134                           XCH      BUF2       +1
000060:    4634           00133                           TC       BUF2
000061:
000062:                                                                                                  #  THE FOLLOWING ROUTINE CAN BE USED AS A UNILATERAL JUMP WITH C(A,L) PRESERVED AND THE CADR IMMEDIATELY
000063:                                                                                                  #  FOLLOWING THE TC POSTJUMP INSTRUCTION.
000064:
000065:    4635           56002        POSTJUMP           XCH      Q                                     #  SAVE INCOMING C(A).
000066:    4636           50000                           INDEX    A                                     #  GET CADR.
000067:    4637           30000                           CA       0
000068:
000069:                                                                                                  #  BANKJUMP IS THE SAME AS POSTJUMP, EXCEPT THAT THE CADR ARRIVES IN A.
000070:
000071:    4640           54004        BANKJUMP           TS       FBANK
000072:    4641           75012                           MASK     LOW10
000073:    4642           56002                           XCH      Q                                     #  RESTORING INPUT C(A) IF THIS WAS A
000074:    4643           50002        Q+10000            INDEX    Q                                     #  POSTJUMP.
000075:    4644           12000        PRIO12             TCF      10000                                 #  PRIO12 = TCF  10000 = 12000
000076:


000078:                                                                                                  #  THE FOLLOWING ROUTINE GETS THE RETURN CADR SAVED BY SWCALL OR BANKCALL AND LEAVES IT IN A.
000079:
000080:    4645           35012        MAKECADR           CAF      LOW10
000081:    4646           70133                           MASK     BUF2
000082:    4647           60134                           AD       BUF2       +1
000083:    4650           00002                           TC       Q
000084:
000085:    4651           54135        SUPDACAL           TS       MPTEMP
000086:    4652           56004                           XCH      FBANK                                 #  SET FBANK FOR DATA.
000087:    4653           00006                           EXTEND
000088:    4654           04007                           ROR      SUPERBNK                              #  SAVE FBANK IN BITS 15-11, AND
000089:    4655           56135                           XCH      MPTEMP                                #  SUPERBANK IN BITS 7-5.
000090:    4656           75012                           MASK     LOW10
000091:    4657           56001                           XCH      L                                     #  SAVE REL. ADR. IN BANK, FETCH SUPERBITS.
000092:    4660           00004                           INHINT                                         #  BECAUSE RUPT DOES NOT SAVE SUPERBANK.
000093:    4661           00006                           EXTEND
000094:    4662           01007                           WRITE    SUPERBNK                              #  SET SUPERBANK FOR DATA.
000095:    4663           50001                           INDEX    L
000096:    4664           32000                           CA       10000                                 #  PINBALL (FIX MEM DISP) PREVENTS DCA HERE
000097:    4665           56135                           XCH      MPTEMP                                #  SAVE 1ST WD, FETCH OLD FBANK AND SBANK.
000098:    4666           00006                           EXTEND
000099:    4667           01007                           WRITE    SUPERBNK                              #  RESTORE SUPERBANK.
000100:    4670           00003                           RELINT
000101:    4671           54004                           TS       FBANK                                 #  RESTORE FBANK.
000102:    4672           30135                           CA       MPTEMP                                #  RECOVER FIRST WORD OF DATA.
000103:    4673           00002                           RETURN                                         #  24 WDS. DATACALL 516 MU, SUPDACAL 432 MU
000104:


000106:                                                                                                  #  THE FOLLOWING ROUTINES ARE IDENTICAL TO BANKCALL AND SWCALL EXCEPT THAT THEY ARE USED IN INTERRUPT.
000107:
000108:    4674           52073        IBNKCALL           DXCH     RUPTREG3                              #  USES RUPTREG3,4 FOR DP RETURN ADDRESS.
000109:    4675           50002                           INDEX    Q
000110:    4676           30000                           CAF      0
000111:    4677           24002                           INCR     Q
000112:
000113:    4700           54001        ISWCALLL           TS       L
000114:    4701           22004                           LXCH     FBANK
000115:    4702           75012                           MASK     LOW10
000116:    4703           56002                           XCH      Q
000117:    4704           52073                           DXCH     RUPTREG3
000118:    4705           50002                           INDEX    Q
000119:    4706           02000                           TC       10000
000120:
000121:    4707           56073        ISWRETRN           XCH      RUPTREG4
000122:    4710           56004                           XCH      FBANK
000123:    4711           56073                           XCH      RUPTREG4
000124:    4712           00072                           TC       RUPTREG3
000125:
000126:                                                                                                  #  2. USPRCADR ACCESSES INTERPRETIVE CODING IN OTHER THAN THE USER'S FBANK.  THE CALLING SEQUENCE IS AS FOLLOWS:
000127:                                                                                                  #        L       TC      USPRCADR
000128:                                                                                                  #        L+1     CADR    INTPRETX        INTPRETX IS THE INTERPRETIVE CODING
000129:                                                                                                  #                                        RETURN IS TO L+2
000130:
000131:    4713           54164        USPRCADR           TS       LOC                                   #  SAVE A
000132:    4714           34744                           CA       BIT8
000133:    4715           54023                           TS       EDOP                                  #  EXIT INSTRUCTION TO EDOP
000134:    4716           30006                           CA       BBANK
000135:    4717           54165                           TS       BANKSET                               #  USER'S BBANK TO BANKSET
000136:    4720           50002                           INDEX    Q
000137:    4721           30000                           CA       0
000138:    4722           54004                           TS       FBANK                                 #  INTERPRETIVE BANK TO FBANK
000139:    4723           75012                           MASK     LOW10                                 #  YIELDS INTERPRETIVE RELATIVE ADDRESS
000140:    4724           56002                           XCH      Q                                     #  INTERPRETIVE ADDRESS TO Q, FETCHING L+1
000141:    4725           56164                           XCH      LOC                                   #  L+1 TO LOC, RETRIEVING ORIGINAL A
000142:    4726           14643                           TCF      Q+10000
000143:


000145:                                                                                                  #  THERE ARE FOUR POSSIBLE SETTINGS FOR CHANNEL 07.  (CHANNEL 07 CONTAINS THE SUPERBANK SETTING.)
000146:
000147:                                                                                                  #                                        PSEUDO-FIXED      OCTAL PSEUDO
000148:                                                                                                  #  SUPERBANK     SETTING S-REG. VALUE    BANK NUMBERS      ADDRESSES
000149:                                                                                                  #  ----------    ------- ------------     ------------      ------------
000150:                                                                                                  #  SUPERBANK 3     0XX    2000 - 3777       30 - 37       70000 - 107777         (WHERE XX CAN BE ANYTHING AND
000151:                                                                                                  #                                                                                WILL USUALLY BE SEEN AS 11)
000152:                                                                                                  #  SUPERBANK 4     100    2000 - 3777       40 - 47      110000 - 127777         (AS FAR AS IT CAN BE SEEN,
000153:                                                                                                  #                                                                                ONLY BANKS 40-43 WILL EVER BE
000154:                                                                                                  #                                                                                AND ARE PRESENTLY AVAILABLE)
000155:                                                                                                  #  SUPERBANK 5     101    2000 - 3777       50 - 57      130000 - 147777         (PRESENTLY NOT AVAILABLE TO
000156:                                                                                                  #                                                                                THE USER)
000157:                                                                                                  #  SUPERBANK 6     110    2000 - 3777       60 - 67      150000 - 167777         (PRESENTLY NOT AVAILABLE TO
000158:                                                                                                  #                                                                                THE USER)
000159:                                                                                                  #  *** THIS ROUTINE MAY BE CALLED BY ANY PROGRAM LOCATED IN BANKS 00 - 27.  I.E., NO PROGRAM LIVING IN ANY
000160:                                                                                                  #  SUPERBANK SHOULD USE SUPERSW. ***
000161:
000162:                                                                                                  #  SUPERSW MAY BE CALLED IN THIS FASHION:
000163:                                                                                                  #        CAF     ABBCON          WHERE  --  ABBCON   BBCON  SOMETHIN --
000164:                                                                                                  #        TCR     SUPERSW         (THE SUPERBNK BITS ARE IN THE BBCON)
000165:                                                                                                  #        ...       ...
000166:                                                                                                  #         .         .
000167:                                                                                                  #         .         .
000168:                                                                                                  #  OR IN THIS FASHION:
000169:                                                                                                  #        CAF     SUPERSET        WHERE SUPERSET IS ONE OF THE FOUR AVAILABLE
000170:                                                                                                  #        TCR     SUPERSW         SUPERBANK BIT CONSTANTS:
000171:                                                                                                  #        ...       ...                                   SUPER011 OCTAL  60
000172:                                                                                                  #         .         .                                    SUPER100 OCTAL 100
000173:                                                                                                  #         .         .                                    SUPER101 OCTAL 120
000174:                                                                                                  #                                                        SUPER110 OCTAL 140
000175:
000176:    4727           00006        SUPERSW            EXTEND
000177:    4730           01007                           WRITE    SUPERBNK                              #  WRITE BITS 7-6-5 OF THE ACCUMULATOR INTO
000178:                                                                                                  #  CHANNEL 07
000179:    4731           00002                           TC       Q                                     #  TC TO INSTRUCTION FOLLOWING
000180:                                                                                                  #        TC SUPERSW
000181:

End of include-file INTER-BANK_COMMUNICATION.agc.  Parent file is MAIN.agc


