
Source Code
000001:                                                                                                 #  Copyright:     Public domain.
000002:                                                                                                 #  Filename:      INTERPRETIVE_CONSTANT.agc
000003:                                                                                                 #  Purpose:       Part of the source code for Luminary 1A build 099.
000004:                                                                                                 #                 It is part of the source code for the Lunar Module's (LM)
000005:                                                                                                 #                 Apollo Guidance Computer (AGC), for Apollo 11.
000006:                                                                                                 #  Assembler:     yaYUL
000007:                                                                                                 #  Contact:       Ron Burkey <info@sandroid.org>.
000008:                                                                                                 #  Website:       www.ibiblio.org/apollo.
000009:                                                                                                 #  Pages: 1100-1101
000010:                                                                                                 #  Mod history:   2009-05-25 RSB  Adapted from the corresponding
000011:                                                                                                 #                                 Luminary131 file, using page
000012:                                                                                                 #                                 images from Luminary 1A.
000013:
000014:                                                                                                 #  This source code has been transcribed or otherwise adapted from
000015:                                                                                                 #  digitized images of a hardcopy from the MIT Museum.  The digitization
000016:                                                                                                 #  was performed by Paul Fjeld, and arranged for by Deborah Douglas of
000017:                                                                                                 #  the Museum.  Many thanks to both.  The images (with suitable reduction
000018:                                                                                                 #  in storage size and consequent reduction in image quality as well) are
000019:                                                                                                 #  available online at www.ibiblio.org/apollo.  If for some reason you
000020:                                                                                                 #  find that the images are illegible, contact me at info@sandroid.org
000021:                                                                                                 #  about getting access to the (much) higher-quality images which Paul
000022:                                                                                                 #  actually created.
000023:
000024:                                                                                                 #  Notations on the hardcopy document read, in part:
000025:
000026:                                                                                                 #         Assemble revision 001 of AGC program LMY99 by NASA 2021112-61
000027:                                                                                                 #         16:27 JULY 14, 1969
000028:
000029:                                                                                                 #  Page 1100
000030: 23,2000                                          SETLOC   INTPRET1
000031: 23,2000                                          BANK
000032:
000033: 23,2511                                          COUNT*   $$/ICONS
000034: 23,2511           10000 00000  DP1/4TH           2DEC     .25
000035:
000036: 23,2513           00000 00000  UNITZ             2DEC     0          B-28
000037:
000038: 23,2515           00000 00000  UNITY             2DEC     0          B-28
000039:
000040: 23,2517           20000 00000  UNITX             2DEC     .5
000041:
000042: 23,2521           00000 00000  ZEROVECS          2DEC     0          B-28
000043:
000044: 23,2523           00000 00000                    2DEC     0          B-28
000045:
000046: 23,2525           00000 00000                    2DEC     0          B-28
000047:
000048: 23,2527  23,2517               DPHALF            =        UNITX
000049: 23,2527           37777        DPPOSMAX          OCT      37777
000050: 23,2530           37777                          OCT      37777
000051:
000052:                                                                                                 #  Page 1101
000053:                                                                                                 #  INTERPRETIVE CONSTANTS IN THE OTHER HALF-MEMORY
000054:
000055: 12,2000                                          SETLOC   INTPRET2
000056: 12,2000                                          BANK
000057:
000058: 12,2000                                          COUNT*   $$/ICONS
000059: 12,2000           00000 00000  ZUNIT             2DEC     0          B-28
000060:
000061: 12,2002           00000 00000  YUNIT             2DEC     0          B-28
000062:
000063: 12,2004           20000 00000  XUNIT             2DEC     .5
000064:
000065: 12,2006           00000 00000  ZEROVEC           2DEC     0          B-28
000066:
000067: 12,2010           00000 00000                    2DEC     0          B-28
000068:
000069: 12,2012           00000 00000                    2DEC     0          B-28
000070:
000071: 12,2014           77777                          OCT      77777                                 #  -0, -6, -12 MUST REMAIN IN THIS ORDER
000072: 12,2015           77771        DFC-6             DEC      -6         B-14
000073: 12,2016           77763        DFC-12            DEC      -12        B-14
000074: 12,2017           37777 37777  LODPMAX           2OCT     3777737777                            #  THESE TWO CONSTANTS MUST REMAIN
000075:
000076: 12,2021           37777 37777  LODPMAX1          2OCT     3777737777                            #  ADJACENT AND THE SAME FOR INTEGRATION
000077:
000078: 12,2023  12,2006               ZERODP            =        ZEROVEC
000079: 12,2023  12,2004               HALFDP            =        XUNIT
000080:
000081:

End of include-file INTERPRETIVE_CONSTANT.agc.  Parent file is MAIN.agc


