
Source Code


000002:                                                                                                  ## Copyright:   Public domain.
000003:                                                                                                  ## Filename:    INTEGRATION_INITIALIZATION.agc
000004:                                                                                                  ## Purpose:     Part of the source code for Luminary 1A build 099.
000005:                                                                                                  ##              It is part of the source code for the Lunar Module's (LM)
000006:                                                                                                  ##              Apollo Guidance Computer (AGC), for Apollo 11.
000007:                                                                                                  ## Assembler:   yaYUL
000008:                                                                                                  ## Contact:     Ron Burkey <info@sandroid.org>.
000009:                                                                                                  ## Website:     www.ibiblio.org/apollo.
000010:                                                                                                  ## Pages:       1205-1226
000011:                                                                                                  ## Mod history: 2009-05-26 RSB  Adapted from the corresponding
000012:                                                                                                  ##                              Luminary131 file, using page
000013:                                                                                                  ##                              images from Luminary 1A.
000014:                                                                                                  ##              2011-01-06 JL   Fixed pseudo-label indentation.
000015:                                                                                                  ##              2016-12-17 RSB  Proofed text comments with octopus/ProoferComments
000016:                                                                                                  ##                              and corrected the errors found.
000017:                                                                                                  ##              2017-01-22 MAS  Fixed some lingering comment errors.
000018:                                                                                                  ##
000019:                                                                                                  ## This source code has been transcribed or otherwise adapted from
000020:                                                                                                  ## digitized images of a hardcopy from the MIT Museum.  The digitization
000021:                                                                                                  ## was performed by Paul Fjeld, and arranged for by Deborah Douglas of
000022:                                                                                                  ## the Museum.  Many thanks to both.  The images (with suitable reduction
000023:                                                                                                  ## in storage size and consequent reduction in image quality as well) are
000024:                                                                                                  ## available online at www.ibiblio.org/apollo.  If for some reason you
000025:                                                                                                  ## find that the images are illegible, contact me at info@sandroid.org
000026:                                                                                                  ## about getting access to the (much) higher-quality images which Paul
000027:                                                                                                  ## actually created.
000028:                                                                                                  ##
000029:                                                                                                  ## Notations on the hardcopy document read, in part:
000030:                                                                                                  ##
000031:                                                                                                  ##      Assemble revision 001 of AGC program LMY99 by NASA 2021112-61
000032:                                                                                                  ##      16:27 JULY 14, 1969
000033:


000035:                                                                                                  #  1.0 INTRODUCTION
000036:                                                                                                  #  ----------------
000037:
000038:                                                                                                  #  FROM A USERS POINT OF VIEW, ORBITAL INTEGRATION IS ESSENTIALLY THE SAME AS THE 278 INTEGRATION
000039:                                                                                                  #  PROGRAM.  THE SAME ENTRANCES TO THE PROGRAM WILL BE MAINTAINED, THE SAME STALLING ROUTINE WILL BE USED AND
000040:                                                                                                  #  OUTPUT WILL STILL BE VIA THE PUSHLIST.  THE PRIMARY DIFFERENCES TO A USER INVOLVE THE ADDED CAPABILITY OF
000041:                                                                                                  #  TERMINATING INTEGRATION AT A SPECIFIC FINAL RADIUS AND THE DIFFERENCE IN STATE VECTOR SCALING INSIDE AND OUT-
000042:                                                                                                  #  SIDE THE LUNAR SPHERE OF INFLUENCE.
000043:
000044:                                                                                                  #  IN ORDER TO MAKE THE CSM(LEM)PREC AND CSM(LEM)CONIC ENTRANCES SIMILAR TO FLIGHT 278, THE INTEGRATION PROGRAM
000045:                                                                                                  #  WILL ITSELF SET THE FINAL RADIUS (RFINAL) TO 0 SO THAT REACHING THE DESIRED TIME ONLY WILL TERMINATE
000046:                                                                                                  #  INTEGRATION.  THE DP REGISTER RFINAL MUST BE SET BY USERS OF INTEGRVS AND INTEGRV, AND MUST BE DONE AFTER THE
000047:                                                                                                  #  CALL TC INTSTALL.
000048:
000049:                                                                                                  #  WHEN THE LM IS ON THE LUNAR SURFACE (INDICATED BY LUNAR SURFACE FLAG SET) CALLS TO LEMCONIC, LEMPREC, AND
000050:                                                                                                  #  INTEGRV WITH VINFLAG = 0 WILL RESULT IN THE USE OF THE PLANETARY INERTIAL ORIENTATION SUBROUTINES TO PROVIDE
000051:                                                                                                  #  BOTH THE LMS POSITION AND VELOCITY IN THE REFERENCE COORDINATE SYSTEM.
000052:                                                                                                  #  THE PROGRAM WILL PROVIDE OUTPUT AS IF INTEGRATION WAS USED.  THAT IS, THE PUSHLIST WILL BE SET AS NOTED BELOW AND
000053:                                                                                                  #  THE PERMANENT STATE VECTOR UPDATED WHEN SPECIFIED BY AN INTEGRV CALL.
000054:
000055:                                                                                                  #  USERS OF INTEGRVS DESIRING INTEGRATION (INTYPFLG = 0) SHOULD NOTE THAT THE OBLATENESS PERTURBATION COMPUTATION
000056:                                                                                                  #  IN LUNAR ORBIT IS TIME DEPENDENT.  THEREFORE, THE USER SHOULD SUPPLY AN INITIAL STATE VECTOR VALID AT SOME REAL
000057:                                                                                                  #  TIME AND THE DESIRED TIME (TDEC1) ALSO AT SOME REAL TIME.  FOR CONIC ,,INTEGRATION,, THE USER MAY STILL USE ZERO
000058:                                                                                                  #  AS THE INITIAL TIME AND DELTA TIME AS THE DESIRED TIME.
000059:
000060:                                                                                                  #  2.0 GENERAL DESCRIPTION
000061:                                                                                                  #  -----------------------
000062:
000063:                                                                                                  #  THE INTEGRATION PROGRAM OPERATES AS A CLOSED INTERPRETIVE SUBROUTINE AND PERFORMS THESE FUNCTIONS ---
000064:                                                                                                  #        1) INTEGRATES (PRECISION OR CONIC) EITHER CSM OR LM STATE VECTOR
000065:                                                                                                  #        2) INTEGRATES THE W-MATRIX
000066:                                                                                                  #        3) PERMANENT OR TEMPORARY UPDATE OF THE STATE VECTOR
000067:
000068:                                                                                                  #  THERE ARE SIX ENTRANCES TO THE INTEGRATION PROGRAM.  FOUR OF THESE (CSMPREC, LEMPREC, CSMCONIC, LEMCONIC) SET
000069:                                                                                                  #  ALL THE FLAGS REQUIRED IN THE INTEGRATION PROGRAM ITSELF TO CAUSE THE PRECISION OR CONIC INTEGRATION (KEPLER) OF
000070:                                                                                                  #  THE LM OR CSM STATE VECTOR, AS THE NAMES SUGGEST.  ONE ENTRANCE (INTEGRVS) PERMITS THE CALLING PROGRAM TO
000071:                                                                                                  #  PROVIDE A STATE VECTOR TO BE INTEGRATED.  THE CALLING PROGRAM MUST SET THE FLAGS INDICATING (1) PRECISION OR
000072:                                                                                                  #  CONIC INTEGRATION, (2) IN OR OUT OF LUNAR SPHERE, (3) MIDCOURSE OR NOT, AND THE INTEGRATION PROGRAM COMPLETES
000073:                                                                                                  #  THE FLAG SETTING TO BYPASS W-MATRIX INTEGRATION.  THE LAST ENTRANCE (INTEGRV, USED IN GENERAL BY THE
000074:                                                                                                  #  NAVIGATION PROGRAMS) PERMITS THE CALLER TO SET FIVE FLAGS (NOT MOONFLAG OR MIDFLAG) BUT NOT TO INPUT A STATE
000075:                                                                                                  #  VECTOR.  ANY PROGRAM WHICH CALLS INTEGRVS OR INTEGRV MUST CALL INTSTALL BEFORE IT SETS THE INTEGRATION FLAGS
000076:                                                                                                  #  AND/OR STATE VECTOR.
000077:
000078:                                                                                                  #  THREE SETS OF 42 REGISTERS AND 2 FLAGS ARE USED FOR THE STATE VECTORS.  TWO SETS, WHICH MAY NOT BE OVERLAYED, ARE
000079:                                                                                                  #  USED FOR THE PERMANENT STATE VECTORS FOR THE CSM AND LM.  THE THIRD SET, WHICH MAY BE OVERLAYED WHEN INTEGRATION
000080:                                                                                                  #  IS NOT BEING DONE, IS USED IN THE COMPUTATIONS.
000081:
000082:                                                                                                  #  THE PERMANENT STATE VECTORS WILL BE PERIODICALLY UPDATED SO THAT THE VECTORS WILL NOT BE OLDER THAN 4 TIMESTEPS.
000083:                                                                                                  #  THE PERMANENT STATE VECTORS WILL ALSO BE UPDATED WHENEVER THE W-MATRIX IS INTEGRATED OR WHEN A CALLER OF INTEGRV
000084:                                                                                                  #  SETS STATEFLG (THE NAVIGATION PROGRAMS P20, P22.)
000085:


000087:                                                                                                  #  APPENDIX B OF THE USERS GUIDE LISTS THE STATE VECTOR QUANTITIES.
000088:
000089:                                                                                                  #  2.1 RESTARTS
000090:
000091:                                                                                                  #  PHASE CHANGES WILL BE MADE IN THE INTEGRATION PROGRAM ONLY FOR THE INTEGRV ENTRANCE (I.E., WHEN THE W-MATRIX IS
000092:                                                                                                  #  INTEGRATED OR PERMANENT STATE VECTOR IS UPDATED.)  THE GROUP NUMBER USED WILL BE THAT FOR THE P20-25 PROGRAMS
000093:                                                                                                  #  (I.E., GROUP2) SINCE THE INTEGRV ENTRANCE WILL ONLY BE USED BY THESE PROGRAMS.  IF A RESTART OCCURS DURING AN
000094:                                                                                                  #  INTEGRATION OF THE STATE VECTOR ONLY, THE RECOVERY WILL BE TO THE LAST PHASE IN THE CALLING PROGRAM.  CALLING
000095:                                                                                                  #  PROGRAMS WHICH USE THE INTEGRV OR INTEGRVS ENTRANCE OF INTEGRATION SHOULD ENSURE THAT IF PHASE CHANGING IS DONE
000096:                                                                                                  #  THAT IT IS PRIOR TO SETTING THE INTEGRATION INPUTS IN THE PUSHLIST.
000097:                                                                                                  #  THIS IS BECAUSE THE PUSHLIST IS LOST DURING A RESTART.
000098:
000099:                                                                                                  #  2.2 SCALING
000100:
000101:                                                                                                  #  THE INTEGRATION ROUTINE WILL MAINTAIN THE PERMANENT MEMORY STATE VECTORS IN THE SCALING AND UNITS DEFINED IN
000102:                                                                                                  #  APPENDIX B OF THE USERS GUIDE.  THE SCALING OF THE OUTPUT POSITION VECTOR DEPENDS ON THE ORIGIN OF THE COORDINATE
000103:                                                                                                  #  SYSTEM AT THE DESIRED INTEGRATION TIME.  THE COORDINATE SYSTEM TRANSFORMATION WILL BE DONE AUTOMATICALLY ON
000104:                                                                                                  #  MULTIPLE TIMESTEP ENCKE INTEGRATION ONLY.  THUS IT IS POSSIBLE TO HAVE OUTPUT FROM SUCCESSIVE INTEGRATIONS IN
000105:                                                                                                  #  DIFFERENT SCALING.
000106:                                                                                                  #  HOWEVER, RATT, VATT WILL ALWAYS BE SCALED THE SAME.
000107:
000108:                                                                                                  #  3.0 INPUT/OUTPUT
000109:                                                                                                  #  ----------------
000110:
000111:                                                                                                  #  PROGRAM INPUTS ARE THE FLAGS DESCRIBED IN APPENDIX A AND THE PERMANENT STATE VECTOR QUANTITIES DESCRIBED IN AP-
000112:                                                                                                  #  PENDIX B OF THE USERS GUIDE, PLUS THE DESIRED TIME TO INTEGRATE TO IN TDEC1 (A PUSH LIST LOCATION).
000113:                                                                                                  #  FOR INTEGRVS, THE RCV,VCV,TET OF THE TEMPORARY STATE VECTOR MUST BE SET, PLUS MOONFLAG AND MIDFLAG
000114:
000115:                                                                                                  #  FOR SIMULATION THE FOLLOWING QUANTITIES MUST BE PRESET ---
000116:                                                                                                  #                                                                                EARTH   MOON
000117:                                                                                                  #                                                                                 29      27
000118:                                                                                                  #        RRECTCSM(LEM)   -       RECTIFIED POSITION VECTOR       METERS          2       2
000119:
000120:                                                                                                  #                                                                                 7       5
000121:                                                                                                  #        VRECTCSM(LEM)   -       RECTIFIED VELOCITY VECTOR       M/CSEC          2       2
000122:
000123:                                                                                                  #                                                                                 28      28
000124:                                                                                                  #        TETCSM(LEM)     -       TIME STATE VECTOR IS VALID      CSEC            2       2
000125:                                                                                                  #                                CUSTOMARILY 0, BUT NOTE LUNAR
000126:                                                                                                  #                                ORBIT DEPENDENCE ON REAL TIME.
000127:
000128:                                                                                                  #                                                                                 22      18
000129:                                                                                                  #        DELTAVCSM(LEM)  -       POSITION DEVIATION              METERS          2       2
000130:                                                                                                  #                                0 IF TCCSM(LEM) = 0
000131:
000132:                                                                                                  #                                                                                 3       -1
000133:                                                                                                  #        NUVCSM(LEM)     -       VELOCITY DEVIATION              M/CSEC          2       2
000134:                                                                                                  #                                0 IF TCCSM(LEM) = 0


000136:                                                                                                  #                                                                                 29      27
000137:                                                                                                  #        RCVCSM(LEM)     -       CONIC POSITION                  METERS          2       2
000138:                                                                                                  #                                EQUALS RRECTCSM(LEM) IF
000139:                                                                                                  #                                TCCSM(LEM) = 0
000140:
000141:                                                                                                  #                                                                                 7       5
000142:                                                                                                  #        VCVCSM(LEM)     -       CONIC VELOCITY                  M/CSEC          2       2
000143:                                                                                                  #                                EQUALS VRECTCSM(LEM) IF
000144:                                                                                                  #                                TCCSM(LEM) = 0
000145:
000146:                                                                                                  #                                                                                 28      28
000147:                                                                                                  #        TCCSM(LEM)      -       TIME SINCE RECTIFICATION        CSECS           2       2
000148:                                                                                                  #                                CUSTOMARILY 0
000149:
000150:                                                                                                  #                                                                 1/2             17      16
000151:                                                                                                  #        XKEPCSM(LEM)    -       ROOT OF KEPLERS EQUATION        M               2       2
000152:                                                                                                  #                                0 IF TCCSM(LEM) = 0
000153:
000154:                                                                                                  #        CMOONFLG        -       PERMANENT FLAGS CORRESPONDING                   0       0
000155:                                                                                                  #        OMIDFLAG                TO MOONFLAG AND MIDFLAG                         0,1     0,1
000156:                                                                                                  #        LMOONFLG                C = CSM, L = LM                                 0       0
000157:                                                                                                  #        LMIDFLG                                                                 0,1     0,1
000158:
000159:                                                                                                  #        SURFFLAG        -       LUNAR SURFACE FLAG                              0,1     0,1
000160:
000161:                                                                                                  #  IN ADDITION, IF (L)CMIDFLAG IS SET, THE INITIAL INPUT VALUES FOR LUNAR
000162:                                                                                                  #  SOLAR EPHEMERIDES SUBROUTINE AND PLANETARY INERTIAL ORIENTATION SUB-
000163:                                                                                                  #  ROUTINE MUST BE PRESET.
000164:
000165:                                                                                                  #  OUTPUT
000166:                                                                                                  #        AFTER EVERY CALL TO INTEGRATION
000167:                                                                                                  #                                                                        EARTH   MOON
000168:                                                                                                  #                                                                         29      29
000169:                                                                                                  #        0D      RATT    POSITION                        METERS          2       2
000170:
000171:                                                                                                  #                                                                         7       7
000172:                                                                                                  #        6D      VATT    VELOCITY                        M/CSEC          2       2
000173:
000174:                                                                                                  #                                                                         28      28
000175:                                                                                                  #        12D     TAT     TIME                                            2       2
000176:
000177:                                                                                                  #                                                                         29      27
000178:                                                                                                  #        14D     RATT1   POSITION                        METERS          2       2
000179:
000180:                                                                                                  #                                                                         7       5
000181:                                                                                                  #        20D     VATT1   VELOCITY                        M/CSEC          2       2
000182:
000183:                                                                                                  #                                                         3   2           36      30
000184:                                                                                                  #        26D     MU(P)   MU                              M /CS           2       2
000185:
000186:                                                                                                  #        X1              MUTABLE ENTRY                                   -2      -10D
000187:
000188:                                                                                                  #        X2              COORDINT
000189:                                                                                                  #        X2              COORDINATE SYSTEM ORIGEN                        0       2
000190:                                                                                                  #                        (THIS, NOT MOONFLAG, SHOULD BE


000192:                                                                                                  #                        USED TO DETERMINE ORIGIN.)
000193:
000194:                                                                                                  #  IN ADDITION TO THE ABOVE, THE PERMANENT STATE VECTOR IS UPDATED WHENEVER
000195:                                                                                                  #  STATEFLG WAS SET AND WHENEVER A W-MATRIX IS TO BE INTEGRATED.  THE PUSH
000196:                                                                                                  #  COUNTER IS SET TO 0 AND OVERFLOW IS CLEARED BEFORE RETURNING TO THE
000197:                                                                                                  #  CALLING PROGRAM.
000198:
000199:                                                                                                  #  4.0 CALLING SEQUENCES AND SAMPLE CODE
000200:                                                                                                  #  -------------------------------------
000201:
000202:                                                                                                  #        A) PRECISION ORBITAL INTEGRATION.  CSMPREC, LEMPREC ENTRANCES
000203:                                                                                                  #                L-X     STORE TIME TO 95T5791T5 T 95 PUS L9ST (T4531)
000204:                                                                                                  #                L       CALL
000205:                                                                                                  #                L+1             CSMPREC (OR LEMPREC)
000206:                                                                                                  #                L+2     RETURN
000207:                                                                                                  #           INPUT                                                           28
000208:                                                                                                  #                TDEC1 (PD 32D) TIME TO INTEGRATE TO...CENTISECONDS SCALED 2
000209:                                                                                                  #           OUTPUT
000210:                                                                                                  #                THE DATA LISTED IN SECTION 3.0 PLUS
000211:                                                                                                  #                RQVV    POSITION VECTOR OF VEHICLE WITH RESPECT TO SECONDARY
000212:                                                                                                  #                BODY... METERS B-29 ONLY IF MIDFLAG = DIM0FLAG = 1
000213:                                                                                                  #        B) CONIC INTEGRATION.  CSMCONIC, LEMCONIC ENTRANCES
000214:                                                                                                  #                L-X     STORE TIME IN PUSH LIST (TDEC1)
000215:                                                                                                  #                L       CALL
000216:                                                                                                  #                L+1             CSMCONIC (OR LEMCONIC)
000217:                                                                                                  #           INPUT/OUTPUT
000218:                                                                                                  #                SAME AS PRECISION INTEGRATION, EXCEPT RQVV NOT SET
000219:                                                                                                  #        C) INTEGRATE GIVEN STATE VECTOR.  INTEGRVS ENTRANCE
000220:                                                                                                  #                CALL
000221:                                                                                                  #                                INTSTALL
000222:                                                                                                  #                VLOAD
000223:                                                                                                  #                                POSITION VECTOR
000224:                                                                                                  #                STOVL           RCV
000225:                                                                                                  #                                VELOCITY VECTOR
000226:                                                                                                  #                STODL           VCV
000227:                                                                                                  #                                TIME STATE VECTOR VALID
000228:                                                                                                  #                STODL           TET
000229:                                                                                                  #                                FINAL RADIUS
000230:                                                                                                  #                STORE           RFINAL
000231:                                                                                                  #                SET(CLEAR)      SET(CLEAR)
000232:                                                                                                  #                                INTYPFLAG
000233:                                                                                                  #                                MOONFLAG
000234:                                                                                                  #                SET(CLEAR)      DLOAD
000235:                                                                                                  #                                DESIRED TIME
000236:                                                                                                  #                STCALL          TDEC1
000237:                                                                                                  #                                INTEGRVS
000238:                                                                                                  #          INPUT
000239:                                                                                                  #                RCV     POSITION VECTOR                 METERS
000240:                                                                                                  #                VCV     VELOCITY VECTOR                 M/CSEC
000241:                                                                                                  #                TET     TIME OF STATE VECTOR (MAY = 0)  CSEC B-28


000243:                                                                                                  #                TDEC1   TIME TO INTEGRATE TO            CSEC B-28 (PD 32D)
000244:                                                                                                  #                        (MAY BE INCREMENT IF TET=0)
000245:                                                                                                  #          OUTPUT
000246:                                                                                                  #                SAME AS FOR PRECISION OR CONIC INTEGRATION,
000247:                                                                                                  #                DEPENDING ON INTYPFLG.
000248:                                                                                                  #        D) INTEGRATE STATE VECTOR.  INTGRV ENTRANCE
000249:                                                                                                  #                L-X     STORE TIME IN PUSH LIST (TDEC1) (MAY BE DONE AFTER CALL TO INTSTALL)
000250:                                                                                                  #                L-8     CALL
000251:                                                                                                  #                L-7
000252:                                                                                                  #                L-6     SET(CLEAR)      SET(CLEAR)
000253:                                                                                                  #                L-5                     VINTFLAG        1=CSM, 0=LM
000254:                                                                                                  #                L-4                     INTYPFLAG       1=CONIC, 0=PRECISION
000255:                                                                                                  #                L-3     SET(CLEAR)      SET(CLEAR)
000256:                                                                                                  #                L-2                     DIM0FLAG        1=W-MATRIX, 0=NO W-MATRIX
000257:                                                                                                  #                L-1                     D6OR9FLG        1=9X9, 0=6X6
000258:                                                                                                  #                L       SET             DLOAD
000259:                                                                                                  #                L+1                     STATEFLG        DESIRE PERMANENT UPDATE
000260:                                                                                                  #                L+2                     FINAL RAD.      OF STATE VECTOR
000261:                                                                                                  #                L+3     STCALL          RFINAL
000262:                                                                                                  #                L+4                     INTEGRV
000263:                                                                                                  #                L       CALL                            NORMAL USE -- WILL UPDATE STATE
000264:                                                                                                  #                L+1                     INTEGRV         VECTOR IF DIM0FLAG=1. (STATEFLG IS
000265:                                                                                                  #                L+2     RETURN                          ALWAYS RESET IN INTEGRATION AFTER
000266:                                                                                                  #                                                        IT IS USED.)
000267:                                                                                                  #          INPUT
000268:                                                                                                  #                TDEC1 (PD 32D) TIME TO INTEGRATE TO     CSEC B-28
000269:                                                                                                  #          OUTPUT
000270:                                                                                                  #                SAME AS FOR PRECISION OR CONIC INTEGRATION
000271:                                                                                                  #          THE PROGRAM WILL SET MOONFLAG, MIDFLAG DEPENDING ON
000272:                                                                                                  #          THE PERMANENT STATE VECTOR REPRESENTATION.
000273:
000274: 11,2376                                           BANK     11
000275: 13,2000                                           SETLOC   INTINIT
000276: 13,2000                                           BANK
000277: 13,2604  E3,1554                                  EBANK=   RRECTCSM
000278: 13,2604                                           COUNT*   $$/INTIN
000279: 13,2604           05353        STATEINT           TC       PHASCHNG
000280: 13,2605           00052                           OCT      00052
000281: 13,2606           35017                           CAF      PRIO5
000282: 13,2607           05105                           TC       FINDVAC
000283: 13,2610  E3,1554                                  EBANK=   RRECTCSM
000284: 13,2610           02613 26063                     2CADR    STATINT1
000285:
000286: 13,2612           05261                           TC       TASKOVER
000287: 13,2613           06037        STATINT1           TC       INTPRET
000288: 13,2614           47014                           BON      RTB
000289: 13,2615           04712                                    QUITFLAG                              #  KILL INTEGRATION UNTIL NEXT P00.
000290: 13,2616           26653                                    NOINT
000291: 13,2617           21573                                    LOADTIME
000292: 13,2620           00041                           STORE    TDEC1


000294: 13,2621           77624                           CALL
000295: 13,2622           27414                                    INTSTALL
000296: 13,2623           45014                           SET      CALL
000297: 13,2624           01076                                    NODOFLAG
000298: 13,2625           26644                                    SETIFLGS
000299: 13,2626           77650                           GOTO
000300: 13,2627           26026                                    STATEUP
000301: 13,2630           00003 25140  600SECS            2DEC     60000      B-28
000302:
000303: 13,2632           77414        ENDINT             CLEAR    EXIT
000304: 13,2633           01672                                    STATEFLG
000305: 13,2634           05353                           TC       PHASCHNG
000306: 13,2635           20032                           OCT      20032
000307: 13,2636           00006                           EXTEND
000308: 13,2637           32631                           DCA      600SECS
000309: 13,2640           05277                           TC       LONGCALL
000310: 13,2641  E3,1626                                  EBANK=   RRECTHIS
000311: 13,2641           02604 26063                     2CADR    STATEINT
000312:
000313: 13,2643           05155                           TC       ENDOFJOB
000314: 13,2644           43014        SETIFLGS           SET      CLEAR
000315: 13,2645           01472                                    STATEFLG
000316: 13,2646           01673                                    INTYPFLG
000317: 13,2647           43014                           CLEAR    CLEAR
000318: 13,2650           01676                                    DIM0FLAG
000319: 13,2651           01675                                    D6OR9FLG
000320: 13,2652           77616                           RVQ
000321: 13,2653           77776        NOINT              EXIT
000322: 13,2654           05353                           TC       PHASCHNG
000323: 13,2655           00002                           OCT      00002
000324:
000325: 13,2656           05516                           TC       DOWNFLAG
000326: 13,2657           00221                           ADRES    QUITFLAG
000327: 13,2660           05155                           TC       ENDOFJOB
000328:
000329:                                                                                                  #  ATOPCSM TRANSFERS RRECT TO RRECT +41 TO RRECTCSM TO RRECTCSM +41
000330:
000331:                                                                                                  #  CALLING SEQUENCE
000332:                                                                                                  #        L       CALL
000333:                                                                                                  #        L+1             ATOPCSM
000334:
000335:                                                                                                  #  NORMAL EXIT AT L+2
000336:
000337: 13,2661           47020        ATOPCSM            STQ      RTB
000338: 13,2662           00051                                    S2
000339: 13,2663           26674                                    MOVEACSM
000340: 13,2664           45014                           SET      CALL
000341: 13,2665           04063                                    CMOONFLG
000342: 13,2666           26114                                    SVDWN1
000343: 13,2667           43014                           BON      CLRGO


000345: 13,2670           00303                                    MOONFLAG
000346: 13,2671           00051                                    S2
000347: 13,2672           04223                                    CMOONFLG
000348: 13,2673           00051                                    S2
000349: 13,2674           03036        MOVEACSM           TC       SETBANK
000350: 13,2675           55500                           TS       DIFEQCNT                              #  INITIALIZE INDEX
000351: 13,2676           51500                           INDEX    DIFEQCNT
000352: 13,2677           31502                           CA       RRECT
000353: 13,2700           51500                           INDEX    DIFEQCNT
000354: 13,2701           55554                           TS       RRECTCSM
000355: 13,2702           11500                           CCS      DIFEQCNT                              #  IS TRANSFER COMPLETE
000356: 13,2703           12675                           TCF      MOVEACSM   +1                         #  NO-LOOP
000357: 13,2704           06061                           TC       DANZIG                                #  COMPLETE - RETURN
000358:
000359:                                                                                                  #  PTOACSM TRANSFERS RRECTCSM TO RRECTCSM +41 TO RRECT TO RRECT +41
000360:
000361:                                                                                                  #  CALLING SEQUENCE
000362:                                                                                                  #        L       CALL
000363:                                                                                                  #                        PTOACSM
000364:
000365:                                                                                                  #  NORMAL EXIT AT L+2
000366:
000367: 13,2705           43034        PTOACSM            RTB      BON
000368: 13,2706           26723                                    MOVEPCSM
000369: 13,2707           04303                                    CMOONFLG
000370: 13,2710           26716                                    SETMOON
000371: 13,2711           66214        CLRMOON            CLEAR    SSP
000372: 13,2712           00263                                    MOONFLAG
000373: 13,2713           02031                                    PBODY
000374: 13,2714           00000                                    0
000375: 13,2715           77616                           RVQ
000376: 13,2716           66214        SETMOON            SET      SSP
000377: 13,2717           00063                                    MOONFLAG
000378: 13,2720           02031                                    PBODY
000379: 13,2721           00002                                    2
000380: 13,2722           77616                           RVQ
000381: 13,2723           03036        MOVEPCSM           TC       SETBANK
000382: 13,2724           55500                           TS       DIFEQCNT
000383: 13,2725           51500                           INDEX    DIFEQCNT
000384: 13,2726           31554                           CA       RRECTCSM
000385: 13,2727           51500                           INDEX    DIFEQCNT
000386: 13,2730           55502                           TS       RRECT
000387: 13,2731           11500                           CCS      DIFEQCNT
000388: 13,2732           12724                           TCF      MOVEPCSM   +1
000389: 13,2733           06061                           TC       DANZIG
000390:
000391:                                                                                                  #  ATOPLEM TRANSFERS RRECT TO RRECT +41 TO RRECTLEM TO RRECTLEM +41
000392: 13,2734           47020        ATOPLEM            STQ      RTB


000394: 13,2735           00051                                    S2
000395: 13,2736           26747                                    MOVEALEM
000396: 13,2737           45014                           SET      CALL
000397: 13,2740           04064                                    LMOONFLG
000398: 13,2741           26070                                    SVDWN2
000399: 13,2742           43014                           BON      CLRGO
000400: 13,2743           00303                                    MOONFLAG
000401: 13,2744           00051                                    S2
000402: 13,2745           04224                                    LMOONFLG
000403: 13,2746           00051                                    S2
000404: 13,2747           03036        MOVEALEM           TC       SETBANK
000405: 13,2750           55500                           TS       DIFEQCNT
000406: 13,2751           51500                           INDEX    DIFEQCNT
000407: 13,2752           31502                           CA       RRECT
000408: 13,2753           51500                           INDEX    DIFEQCNT
000409: 13,2754           55626                           TS       RRECTLEM
000410: 13,2755           11500                           CCS      DIFEQCNT
000411: 13,2756           12750                           TCF      MOVEALEM   +1
000412: 13,2757           06061                           TC       DANZIG
000413:
000414:                                                                                                  #  PTOALEM TRANSFERS RRECTLEM TO RRECTLEM +41 TO RRECT TO RRECT +41
000415:
000416: 13,2760           47014        PTOALEM            BON      RTB
000417: 13,2761           04307                                    SURFFLAG
000418: 13,2762           27001                                    USEPIOS
000419: 13,2763           26770                                    MOVEPLEM
000420: 13,2764           52014                           BON      GOTO
000421: 13,2765           04304                                    LMOONFLG
000422: 13,2766           26716                                    SETMOON
000423: 13,2767           26711                                    CLRMOON
000424: 13,2770           03036        MOVEPLEM           TC       SETBANK
000425: 13,2771           55500                           TS       DIFEQCNT
000426: 13,2772           51500                           INDEX    DIFEQCNT
000427: 13,2773           31626                           CA       RRECTLEM
000428: 13,2774           51500                           INDEX    DIFEQCNT
000429: 13,2775           55502                           TS       RRECT
000430: 13,2776           11500                           CCS      DIFEQCNT
000431: 13,2777           12771                           TCF      MOVEPLEM   +1
000432: 13,3000           06061                           TC       DANZIG
000433:
000434: 13,3001           77201        USEPIOS            SETPD    VLOAD
000435: 13,3002           00001                                    0
000436: 13,3003           02023                                    RLS
000437: 13,3004           41525                           PDDL     PUSH
000438: 13,3005           00041                                    TDEC1
000439: 13,3006           15517                           STODL    TET
000440: 13,3007           27712                                    5/8
000441: 13,3010           77624                           CALL


000443: 13,3011           55716                                    RP-TO-R
000444: 13,3012           25535                           STOVL    RCV
000445: 13,3013           24001                                    ZUNIT
000446: 13,3014           14001                           STODL    0D
000447: 13,3015           01517                                    TET
000448: 13,3016           14007                           STODL    6D
000449: 13,3017           27712                                    5/8
000450: 13,3020           45014                           SET      CALL                                  #  NEEDED FOR SETTING X1 ON EXIT
000451: 13,3021           00063                                    MOONFLAG
000452: 13,3022           55716                                    RP-TO-R
000453: 13,3023           74235                           VXV      VXSC
000454: 13,3024           01535                                    RCV
000455: 13,3025           26001                                    OMEGMOON
000456: 13,3026           25543                           STOVL    VCV
000457: 13,3027           24007                                    ZEROVEC
000458: 13,3030           01521                           STORE    TDELTAV
000459: 13,3031           67174                           AXT,2    SXA,2
000460: 13,3032           00002                                    2
000461: 13,3033           02030                                    PBODY
000462: 13,3034           35527                           STCALL   TNUV
000463: 13,3035           27157                                    A-PCHK
000464: 13,3036           33042        SETBANK            CAF      INTBANK
000465: 13,3037           54006                           TS       BBANK
000466: 13,3040           33452                           CAF      FORTYONE
000467: 13,3041           00002                           TC       Q
000468: 13,3042  E3,1554                                  EBANK=   RRECTCSM
000469: 13,3042           26063        INTBANK            BBCON    INTEGRV
000470:
000471:                                                                                                  #  SPECIAL PURPOSE ENTRIES TO ORBITAL INTEGRATION.  THESE ROUTINES PROVIDE ENTRANCES TO INTEGRATION WITH
000472:                                                                                                  #  APPROPRIATE SWITCHES SET OR CLEARED FOR THE DESIRED INTEGRATION.
000473:
000474:                                                                                                  #  CSMPREC AND LEMPREC PERFORM ORBIT INTEGRATION BY THE ENCKE METHOD TO THE TIME INDICATED IN TDEC1
000475:                                                                                                  #  ACCELERATIONS DUE TO OBLATENESS ARE INCLUDED.  NO W-MATRIX INT. IS DONE.
000476:                                                                                                  #  THE PERMANENT STATE VECTOR IS NOT UPDATED.
000477:
000478:                                                                                                  #  CSMCONIC AND LEMCONIC PERFORM ORBIT INTEG. BY KEPLERS METHOD TO THE TIME INDICATED IN TDEC1
000479:                                                                                                  #  NO DISTURBING ACCELERATIONS ARE INCLUDED.  IN THE PROGRAM FLOW THE GIVEN
000480:                                                                                                  #  STATE VECTOR IS RECTIFIED BEFORE SOLUTION OF KEPLERS EQUATION
000481:
000482:                                                                                                  #  THE ROUTINES ASSUME THAT THE CSM (LEM) STATE VECTOR IN P-MEM IS VALID.
000483:                                                                                                  #  SWITCHES SET PRIOR TO ENTRY TO THE MAIN INTEG. PROG ARE AS FOLLOWS
000484:                                                                                                  #                        CSMPREC         CSMCONIC        LEMPREC         LEMCONIC
000485:                                                                                                  #        VINTFLAG        SET             SET             CLEAR           CLEAR
000486:                                                                                                  #        INTYPFLG        CLEAR           SET             CLEAR           SET
000487:                                                                                                  #        DIM0FLAG        CLEAR           CLEAR           CLEAR           CLEAR
000488:
000489:                                                                                                  #  CALLING SEQUENCE
000490:                                                                                                  #        L-X     STORE   TDEC1
000491:                                                                                                  #        L       CALL                    (STCALL TDEC1)


000493:                                                                                                  #        L+1             CSMPREC         (CSMCONIC, LEMPREC, LEMCONIC)
000494:
000495:                                                                                                  #  NORMAL EXIT TO L+2
000496:
000497:                                                                                                  #  SUBROUTINES CALLED
000498:                                                                                                  #        INTEGRV1
000499:                                                                                                  #        PRECOUT FOR CSMPREC AND LEMPREC
000500:                                                                                                  #        CONICOUT FOR CSMCONIC AND LEMCONIC
000501:
000502:                                                                                                  #  OUTPUT - SEE PAGE 2 OF THIS LOG SECTION
000503:
000504:                                                                                                  #  INPUT
000505:                                                                                                  #        TDEC1           TIME TO INTEGRATE TO.  CSECS B-28
000506:
000507: 13,3043           45020        CSMPREC            STQ      CALL
000508: 13,3044           00046                                    X1
000509: 13,3045           27414                                    INTSTALL
000510: 13,3046           43130                           SXA,1    SET
000511: 13,3047           02102                                    IRETURN
000512: 13,3050           01474                                    VINTFLAG
000513:
000514: 13,3051           43014        IFLAGP             SET      CLEAR
000515: 13,3052           01467                                    PRECIFLG
000516: 13,3053           01676                                    DIM0FLAG
000517: 13,3054           77614                           CLRGO
000518: 13,3055           01633                                    INTYPFLG
000519: 13,3056           27136                                    INTEGRV1
000520: 13,3057           45020        LEMPREC            STQ      CALL
000521: 13,3060           00046                                    X1
000522: 13,3061           27414                                    INTSTALL
000523: 13,3062           43130                           SXA,1    CLRGO
000524: 13,3063           02102                                    IRETURN
000525: 13,3064           01634                                    VINTFLAG
000526: 13,3065           27051                                    IFLAGP
000527:
000528: 13,3066           45020        CSMCONIC           STQ      CALL
000529: 13,3067           00046                                    X1
000530: 13,3070           27414                                    INTSTALL
000531: 13,3071           43130                           SXA,1    SET
000532: 13,3072           02102                                    IRETURN
000533: 13,3073           01474                                    VINTFLAG
000534: 13,3074           43014        IFLAGC             CLEAR    SETGO
000535: 13,3075           01676                                    DIM0FLAG
000536: 13,3076           01433                                    INTYPFLG
000537: 13,3077           27136                                    INTEGRV1
000538: 13,3100           45020        LEMCONIC           STQ      CALL
000539: 13,3101           00046                                    X1
000540: 13,3102           27414                                    INTSTALL
000541: 13,3103           43130                           SXA,1    CLRGO
000542: 13,3104           02102                                    IRETURN


000544: 13,3105           01634                                    VINTFLAG
000545: 13,3106           27074                                    IFLAGC
000546:
000547: 13,3107           66214        INTEGRVS           SET      SSP
000548: 13,3110           01467                                    PRECIFLG
000549: 13,3111           02031                                    PBODY
000550: 13,3112           00000                                    0
000551: 13,3113           66214                           BOF      SSP
000552: 13,3114           00343                                    MOONFLAG
000553: 13,3115           27120                                    +3
000554: 13,3116           02031                                    PBODY
000555: 13,3117           00002                                    2
000556: 13,3120           77220                           STQ      VLOAD
000557: 13,3121           02102                                    IRETURN
000558: 13,3122           24007                                    ZEROVEC
000559: 13,3123           01521                           STORE    TDELTAV
000560: 13,3124           35527                           STCALL   TNUV
000561: 13,3125           23441                                    RECTIFY
000562: 13,3126           43014                           CLEAR    SET
000563: 13,3127           01676                                    DIM0FLAG
000564: 13,3130           04062                                    NEWIFLG
000565: 13,3131           77614                           SETGO
000566: 13,3132           04020                                    RPQFLAG
000567: 13,3133           27150                                    ALOADED
000568:
000569:                                                                                                  #  INTEGRV IS AN ENTRY TO ORBIT INTEGRATION WHICH PERMITS THE CALLER,
000570:                                                                                                  #  NORMALLY THE NAVIGATION PROGRAM, TO SET THE INTEG. FLAGS.  THE ROUTINE
000571:                                                                                                  #  IS ENTERED AT INTEGRV1 BY CSMPREC ET. AL. AND AT ALOADED BY INTEGRVS.
000572:                                                                                                  #  THE ROUTINE SETS UP A-MEMORY IF ENTERED AT INTEGRV,1 AND SETS THE INTEG.
000573:                                                                                                  #  PROGRAM FOR PRECISION OR CONIC
000574:
000575:                                                                                                  #  THE CALLER MUST FIRST CALL INTSTALL TO CHECK IF INTEG. IS IN USE BEFORE
000576:                                                                                                  #  SETTING ANY FLAGS.
000577:
000578:                                                                                                  #  THE FLAGS WHICH SHOULD BE SET OR CLEARED ARE
000579:                                                                                                  #        VINTFLAG        (IGNORED WHEN ENTERED FROM INTEGRVS)
000580:                                                                                                  #        INTYPFLG
000581:                                                                                                  #        DIM0FLAG
000582:                                                                                                  #        D6OR9FLG
000583:
000584:                                                                                                  #  CALLING SEQUENCE
000585:                                                                                                  #        L-X     CALL
000586:                                                                                                  #        L-Y             INTSTALL
000587:                                                                                                  #        L-1     SET OR CLEAR ALL FOUR FLAGS.  ALSO CAN SET STATEFLG IF DESIRED
000588:                                                                                                  #                AND DIM0FLAG IS CLEAR.
000589:                                                                                                  #        L       CALL
000590:                                                                                                  #        L+1             INTEGRV
000591:
000592:                                                                                                  #  INITIALIZATION
000593:                                                                                                  #        FLAGS AS ABOVE
000594:                                                                                                  #        STORE TIME TO INTEGRATE TO IN TDEC1
000595:
000596:                                                                                                  #  OUTPUT
000597:                                                                                                  #        RATT    AS
000598:                                                                                                  #        VATT          DEFINED


000600:                                                                                                  #        TAT                     BEFORE
000601:
000602: 13,3134           77620        INTEGRV            STQ
000603: 13,3135           02102                                    IRETURN
000604: 13,3136           43014        INTEGRV1           SET      SET
000605: 13,3137           04060                                    RPQFLAG
000606: 13,3140           04062                                    NEWIFLG
000607: 13,3141           77731        INTEGRV2           SSP
000608: 13,3142           00053                                    QPRET
000609: 13,3143           27150                                    ALOADED
000610: 13,3144           52014                           BON      GOTO
000611: 13,3145           01714                                    VINTFLAG
000612: 13,3146           26705                                    PTOACSM
000613: 13,3147           26760                                    PTOALEM
000614: 13,3150           77745        ALOADED            DLOAD
000615: 13,3151           00041                                    TDEC1
000616: 13,3152           01116                           STORE    TDEC
000617: 13,3153           52014                           BOFF     GOTO
000618: 13,3154           01753                                    INTYPFLG
000619: 13,3155           27257                                    TESTLOOP
000620: 13,3156           27243                                    RVCON
000621: 13,3157           77414        A-PCHK             BOF      EXIT
000622: 13,3160           01752                                    STATEFLG
000623: 13,3161           27200                                    RECTOUT
000624: 13,3162           05353                           TC       PHASCHNG
000625: 13,3163           04022                           OCT      04022
000626: 13,3164           05504                           TC       UPFLAG                                #  PHASE CHANGE HAS OCCURRED BETWEEN
000627: 13,3165           00236                           ADRES    REINTFLG                              #  INTSTALL AND INTWAKE
000628: 13,3166           06037                           TC       INTPRET
000629: 13,3167           77731                           SSP
000630: 13,3170           00053                                    QPRET
000631: 13,3171           27176                                    PHEXIT
000632: 13,3172           52014                           BON      GOTO
000633: 13,3173           01714                                    VINTFLAG
000634: 13,3174           26661                                    ATOPCSM
000635: 13,3175           26734                                    ATOPLEM
000636: 13,3176           77624        PHEXIT             CALL
000637: 13,3177           11244                                    GRP2PC
000638: 13,3200           45001        RECTOUT            SETPD    CALL
000639: 13,3201           00001                                    0
000640: 13,3202           23441                                    RECTIFY
000641: 13,3203           53775                           VLOAD    VSL*
000642: 13,3204           01503                                    RRECT
000643: 13,3205           57576                                    0,2
000644: 13,3206           53715                           PDVL     VSL*                                  #  RATT TO PD0
000645: 13,3207           01511                                    VRECT
000646: 13,3210           57576                                    0,2
000647: 13,3211           63325                           PDDL     PDVL                                  #  VATT TO PD6   TAT TO PD12
000648: 13,3212           01517                                    TET


000650: 13,3213           01503                                    RRECT
000651: 13,3214           64715                           PDVL     PDDL*
000652: 13,3215           01511                                    VRECT
000653: 13,3216           51770                                    MUEARTH,2
000654: 13,3217           76006                           PUSH     AXT,1
000655: 13,3220           77765                           DEC      -10        B-14
000656: 13,3221           76014                           BON      AXT,1
000657: 13,3222           00303                                    MOONFLAG
000658: 13,3223           27225                                    +2
000659: 13,3224           77775                           DEC      -2         B-14
000660: 13,3225           40001        INTEXIT            SETPD    BOV
000661: 13,3226           00001                                    0
000662: 13,3227           27230                                    +1
000663: 13,3230           43014                           CLEAR    CLEAR
000664: 13,3231           04676                                    AVEMIDSW                              #  ALLOW UPDATE OF DOWNLINK STATE VECTOR
000665: 13,3232           01667                                    PRECIFLG
000666: 13,3233           77614                           CLEAR
000667: 13,3234           01672                                    STATEFLG
000668: 13,3235           77535                           SLOAD    EXIT
000669: 13,3236           02103                                    IRETURN
000670: 13,3237           30154                           CA       MPAC
000671: 13,3240           50120                           INDEX    FIXLOC
000672: 13,3241           54052                           TS       QPRET
000673: 13,3242           03425                           TC       INTWAKE
000674:
000675:                                                                                                  #  RVCON SETS UP ORBIT INTEGRATION TO DO A CONIC SOLUTION FOR POSITION AND
000676:                                                                                                  #  VELOCITY FOR THE INTERVAL (TET-TDEC)
000677:
000678: 13,3243           45345        RVCON              DLOAD    DSU
000679: 13,3244           01116                                    TDEC
000680: 13,3245           01517                                    TET
000681: 13,3246           36074                           STCALL   TAU.
000682: 13,3247           23441                                    RECTIFY
000683: 13,3250           77624                           CALL
000684: 13,3251           22376                                    KEPPREP
000685: 13,3252           43345                           DLOAD    DAD
000686: 13,3253           01551                                    TC
000687: 13,3254           01517                                    TET
000688: 13,3255           35517                           STCALL   TET
000689: 13,3256           27200                                    RECTOUT
000690:


000692:                                                                                                  #  TESTLOOP
000693:
000694: 13,3257           43014        TESTLOOP           BOF      CLRGO
000695: 13,3260           04752                                    QUITFLAG
000696: 13,3261           27264                                    +3
000697: 13,3262           01632                                    STATEFLG
000698: 13,3263           27225                                    INTEXIT                               #  STOP INTEGRATION
000699: 13,3264           73001                 +3        SETPD    LXA,2
000700: 13,3265           00013                                    10D
000701: 13,3266           02030                                    PBODY
000702: 13,3267           51575                           VLOAD    ABVAL
000703: 13,3270           01535                                    RCV
000704: 13,3271           43006                           PUSH     CLEAR                                 #  RC TO 10D
000705: 13,3272           00262                                    MIDFLAG
000706: 13,3273           50023                           DSU*     BMN                                   #  MIDFLAG=0 IF R G.T. RMP
000707: 13,3274           53755                                    RME,2
000708: 13,3275           27300                                    +3
000709: 13,3276           77614                           SET
000710: 13,3277           00062                                    MIDFLAG
000711: 13,3300           41345        NORFINAL           DLOAD    DMP
000712: 13,3301           00013                                    10D
000713: 13,3302           00043                                    34D
000714: 13,3303           55762                           SR1R     DDV*
000715: 13,3304           51770                                    MUEARTH,2
000716: 13,3305           41366                           SQRT     DMP
000717: 13,3306           25752                                    .3D
000718: 13,3307           40442                           SR3      SR4                                   #  DT IS TRUNCATED TO A MULTIPLE
000719: 13,3310           54345                           DLOAD    SL
000720: 13,3311           00155                                    MPAC
000721: 13,3312           20220                                    15D                                   #        OF 128 CSECS.
000722: 13,3313           40006                           PUSH     BOV
000723: 13,3314           27341                                    MAXDT
000724: 13,3315           50021                           BDSU     BMN
000725: 13,3316           27413                                    DT/2MAX
000726: 13,3317           27341                                    MAXDT
000727: 13,3320           45345        DT/2COMP           DLOAD    DSU
000728: 13,3321           01116                                    TDEC
000729: 13,3322           01517                                    TET
000730: 13,3323           54234                           RTB      SL
000731: 13,3324           21612                                    SGNAGREE
000732: 13,3325           20211                                    8D
000733: 13,3326           02076                           STORE    DT/2                                  #  B-19
000734: 13,3327           51400                           BOV      ABS
000735: 13,3330           27345                                    GETMAXDT
000736: 13,3331           50025                           DSU      BMN                                   #  IS TIME TO INTEG. TO GR THAN MAXTIME
000737: 13,3332           00015                                    12D
000738: 13,3333           27351                                    P00HCHK
000739: 13,3334           75345        USEMAXDT           DLOAD    SIGN
000740: 13,3335           00015                                    12D
000741: 13,3336           02076                                    DT/2


000743: 13,3337           36076                           STCALL   DT/2
000744: 13,3340           27351                                    P00HCHK
000745: 13,3341           65345        MAXDT              DLOAD    PDDL                                  #  EXCHANGE DT/2MAX WITH COMPUTED MAX.
000746: 13,3342           27413                                    DT/2MAX
000747: 13,3343           77650                           GOTO
000748: 13,3344           27320                                    DT/2COMP
000749: 13,3345           77634        GETMAXDT           RTB
000750: 13,3346           21712                                    SIGNMPAC
000751: 13,3347           36076                           STCALL   DT/2
000752: 13,3350           27334                                    USEMAXDT
000753: 13,3351           51545        P00HCHK            DLOAD    ABS
000754: 13,3352           02076                                    DT/2
000755: 13,3353           50025                           DSU      BMN
000756: 13,3354           27411                                    DT/2MIN
000757: 13,3355           27157                                    A-PCHK
000758: 13,3356           46135                           SLOAD    BHIZ
000759: 13,3357           01012                                    MODREG
000760: 13,3360           27363                                    +3
000761: 13,3361           77650                           GOTO
000762: 13,3362           23252                                    TIMESTEP
000763: 13,3363           77614                           BON                                            #  WAS THIS CALL VIA CSM(LEM)PREC
000764: 13,3364           01707                                    PRECIFLG
000765: 13,3365           23252                                    TIMESTEP                              #  YES
000766: 13,3366           45345                           DLOAD    DSU
000767: 13,3367           02076                                    DT/2
000768: 13,3370           00015                                    12D
000769: 13,3371           43040                           BMN      BOFCLR
000770: 13,3372           27157                                    A-PCHK
000771: 13,3373           04242                                    NEWIFLG
000772: 13,3374           23252                                    TIMESTEP
000773: 13,3375           45345                           DLOAD    DSU
000774: 13,3376           01116                                    TDEC
000775: 13,3377           01517                                    TET
000776: 13,3400           77640                           BMN                                            #  NO BACKWARD INTEGRATION
000777: 13,3401           27225                                    INTEXIT
000778: 13,3402           40525                           PDDL     SR4
000779: 13,3403           02076                                    DT/2                                  #  IS 4(DT) LS (TDEC - TET)
000780: 13,3404           44322                           SR2R     BDSU                                  #  NO
000781: 13,3405           52040                           BMN      GOTO
000782: 13,3406           27225                                    INTEXIT
000783: 13,3407           23252                                    TIMESTEP
000784: 13,3410           00000 01400  DT/2MIN            2DEC     3          B-20
000785:
000786: 13,3412           14152 00000  DT/2MAX            2DEC     4000       E2         B-20
000787:
000788: 13,3414           77776        INTSTALL           EXIT
000789: 13,3415           30106                           CA       RASFLAG
000790: 13,3416           73466                           MASK     INTBITAB                              #  IS THIS STALL AREA FREE
000791: 13,3417           00006                           EXTEND
000792: 13,3420           13460                           BZF      OKTOGRAB                              #  YES


000794: 13,3421           33465                           CAF      WAKESTAL
000795: 13,3422           05133                           TC       JOBSLEEP
000796: 13,3423           77776        INTWAKE0           EXIT
000797: 13,3424           13445                           TCF      INTWAKE1
000798:
000799: 13,3425           40106        INTWAKE            CS       RASFLAG                               #  IS THIS INTSTALLED ROUTINE TO BE
000800: 13,3426           74745                           MASK     REINTBIT                              #        RESTARTED
000801: 13,3427           10000                           CCS      A
000802: 13,3430           03445                           TC       INTWAKE1                              #  NO
000803:
000804: 13,3431           50120                           INDEX    FIXLOC
000805: 13,3432           30052                           CA       QPRET
000806: 13,3433           55055                           TS       TBASE2                                #  YES, DONT RESTART WITH SOMEONE ELSES Q
000807:
000808: 13,3434           05353                           TC       PHASCHNG
000809: 13,3435           04022                           OCT      04022
000810:
000811: 13,3436           31055                           CA       TBASE2
000812: 13,3437           50120                           INDEX    FIXLOC
000813: 13,3440           54052                           TS       QPRET
000814:
000815: 13,3441           34745                           CAF      REINTBIT
000816: 13,3442           70106                           MASK     RASFLAG
000817: 13,3443           00006                           EXTEND
000818: 13,3444           13463                           BZF      GOBAC                                 #  DONT INTWAKE IF WE CAME HERE VIA RESTART
000819:
000820: 13,3445           33465        INTWAKE1           CAF      WAKESTAL
000821: 13,3446           00004                           INHINT
000822: 13,3447           05137                           TC       JOBWAKE
000823: 13,3450           10064                           CCS      LOCCTR
000824: 13,3451           13445                           TCF      INTWAKE1
000825: 13,3452           00051        FORTYONE           DEC      41         B-14
000826: 13,3453           43466                           CS       INTBITAB
000827: 13,3454           70106                           MASK     RASFLAG
000828: 13,3455           54106                           TS       RASFLAG                               #  RELEASE STALL AREA
000829: 13,3456           00003                           RELINT
000830: 13,3457           13463                           TCF      GOBAC
000831: 13,3460           34736        OKTOGRAB           CAF      INTFLBIT
000832: 13,3461           00004                           INHINT
000833: 13,3462           26106                           ADS      RASFLAG
000834: 13,3463           06037        GOBAC              TC       INTPRET
000835: 13,3464           77616                           RVQ
000836: 13,3465           27415        WAKESTAL           CADR     INTSTALL   +1
000837: 13,3466           20100        INTBITAB           OCT      20100
000838:


000840:                                                                                                  #  AVETOMID
000841:
000842:                                                                                                  #  THIS ROUTINE PERFORMS THE TRANSITION FROM A THRUSTING PHASE TO THE COAST
000843:                                                                                                  #  PHASE BY INITIALIZING THIS VEHICLES PERMANENT STATE VECTOR WITH THE
000844:                                                                                                  #  VALUES LEFT BY THE AVERAGEG ROUTINE IN RN,VN,PIPTIME.
000845:
000846:                                                                                                  #  BEFORE THIS IS DONE THE W-MATRIX, IF ITS VALID (OR WFLAG OR RENDWFLG IS
000847:                                                                                                  #  SET) IS INTEGRATED FORWARD TO PIPTIME WITH THE PRE-THRUST STATE VECTOR.
000848:
000849:                                                                                                  #  IN ADDITION, THE OTHER VEHICLE IS INTEGRATED (PERMANENT) TO PIPTIME.
000850:
000851:                                                                                                  #  FINALLY TRKMKCNT IS ZEROED
000852:
000853: 13,2000                                           SETLOC   INTINIT
000854: 13,2000                                           BANK
000855:
000856: 13,3467                                           COUNT*   $$/INTIN
000857: 13,3467           43020        AVETOMID           STQ      BON
000858: 13,3470           02772                                    EGRESS
000859: 13,3471           02716                                    RENDWFLG
000860: 13,3472           27536                                    INT/W                                 #  W-MATRIX VALID, GO INTEGRATE IT
000861: 13,3473           77614                           BON
000862: 13,3474           01711                                    ORBWFLAG
000863: 13,3475           27536                                    INT/W                                 #  W-MATRIX VALID, GO INTEGRATE IT
000864:
000865: 13,3476           45145        OTHERS             DLOAD    CALL                                  #  GET SET FOR OTHER VEHICLE INTEGRATION
000866: 13,3477           01235                                    PIPTIME                               #  DESIRED TIME
000867: 13,3500           27414                                    INTSTALL
000868: 13,3501           45014                           SET      CALL
000869: 13,3502           01474                                    VINTFLAG                              #  CM
000870: 13,3503           26644                                    SETIFLGS                              #  SETS UP NONE W-MAT. PERMANENT INTEG.
000871: 13,3504           34041                           STCALL   TDEC1
000872: 13,3505           27134                                    INTEGRV
000873:
000874: 13,3506           45174                           AXT,2    CALL                                  #  NOW MOVE PROPERLY SCALE RN,UN AS WELL AS
000875: 13,3507           00002                                    2                                     #  PIPTIME TO INTEGRATION ERASABLES.
000876: 13,3510           27414                                    INTSTALL
000877: 13,3511           77014                           BON      AXT,2
000878: 13,3512           04304                                    MOONTHIS
000879: 13,3513           27515                                    +2
000880: 13,3514           00000                                    0
000881: 13,3515           53775                           VLOAD    VSR*
000882: 13,3516           01221                                    RN
000883: 13,3517           57176                                    0,2
000884: 13,3520           01503                           STORE    RRECT
000885: 13,3521           15535                           STODL    RCV
000886: 13,3522           01235                                    PIPTIME
000887: 13,3523           25517                           STOVL    TET
000888: 13,3524           01227                                    VN


000890: 13,3525           45057                           VSR*     CALL
000891: 13,3526           57176                                    0,2
000892: 13,3527           23455                                    MINIRECT                              #  FINISH SETTING UP STATE VECTOR
000893: 13,3530           66234                           RTB      SSP
000894: 13,3531           26747                                    MOVATHIS                              #  PUT TEMP STATE VECTOR INTO PERMANENT
000895: 13,3532           03463                                    TRKMKCNT
000896: 13,3533           00000                                    0
000897: 13,3534           77650                           GOTO
000898: 13,3535           47226                                    FAZAB5
000899:
000900: 13,3536           45145        INT/W              DLOAD    CALL
000901: 13,3537           01235                                    PIPTIME                               #  INTEGRATE W THRU BURN
000902: 13,3540           27414                                    INTSTALL
000903: 13,3541           43014                           SET      SET
000904: 13,3542           01476                                    DIM0FLAG                              #  DO W-MATRIX
000905: 13,3543           04476                                    AVEMIDSW                              #  SO WONT CLOBBER RN,VN,PIPTIME
000906: 13,3544           43014                           SET      CLEAR
000907: 13,3545           01475                                    D6OR9FLG                              #  9X9 FOR LM
000908: 13,3546           01674                                    VINTFLAG                              #  LM
000909: 13,3547           34041                           STCALL   TDEC1
000910: 13,3550           27134                                    INTEGRV
000911: 13,3551           77650                           GOTO
000912: 13,3552           27476                                    OTHERS                                #  NOW GO DO THE OTHER VEHICLE
000913:


000915:                                                                                                  #  MIDTOAV1
000916:
000917:                                                                                                  #  THIS ROUTINE INTEGRATES (PRECISION) TO THE TIME SPECIFIED IN TDEC1.
000918:                                                                                                  #  IF, AT THE END OF AN INTEGRATION TIME STEP, CURRENT TIME PLUS A DELTA
000919:                                                                                                  #  TIME (SEE TIMEDELT.....BASED ON THE COMPUTATUON TIME FOR ONE TIME STEP)
000920:                                                                                                  #  IS GREATER THAN THE DESIRED TIME, ALARM 1703 IS SET AND THE INTEGRATION
000921:                                                                                                  #  IS DONE TO THE CURRENT TIME.
000922:                                                                                                  #  RETURN IS IN BASIC TO THE RETURN ADDRESS PLUS ONE.
000923:
000924:                                                                                                  #  IF THE INTEGRATION IS FINISHED TO THE DESIRED TIME, RETURN IS IN BASIC
000925:                                                                                                  #  TO THE RETURN ADDRESS
000926:
000927:                                                                                                  #  IN EITHER CASE, BEFORE RETURNING, THE EXTRAPOLATED STATE VECTOR IS TRAN
000928:                                                                                                  #  FERRED FROM R,VATT TO R,VN1-PIPTIME1 IS SET TO THE FINISHING INTEGRA-
000929:                                                                                                  #  TION TIME AND MPAC IS SET TO THE DELTA TIME ---
000930:                                                                                                  #                        TAT MINUS CURRENT TIME.
000931:
000932:                                                                                                  #  MIDTOAV2
000933:
000934:                                                                                                  #  THIS ROUTINE INTEGRATES THIS VEHICLES STATE VECTOR TO THE CURRENT TIME.
000935:                                                                                                  #  NO INPUTS ARE REQUIRED OF THE CALLER.  RETURN IS IN BASIC TO THE RETURN
000936:                                                                                                  #  ADDRESS WITH THE ABOVE TRANSFERS TO R,VN1-PIPTIME1-AND MPAC DONE
000937:
000938: 13,3553  E7,1744                                  EBANK=   IRETURN1
000939: 13,3553           43020        MIDTOAV2           STQ      CLRGO                                 #  INTEGRATE TO PRESENT TIME PLUS TIMEDELT
000940: 13,3554           03744                                    IRETURN1
000941: 13,3555           04634                                    MID1FLAG
000942: 13,3556           27572                                    ENTMID2
000943:
000944: 13,3557           43020        MIDTOAV1           STQ      SET                                   #  INTEGRATE TO TDEC1
000945: 13,3560           03744                                    IRETURN1
000946: 13,3561           04474                                    MID1FLAG
000947: 13,3562           43234                           RTB      DAD                                   #  INITIAL CHECK, IS TDEC1 IN THE FUTURE
000948: 13,3563           21573                                    LOADTIME
000949: 13,3564           27674                                    TIMEDELT
000950: 13,3565           51021                           BDSU     BPL
000951: 13,3566           00041                                    TDEC1
000952: 13,3567           27576                                    ENTMID1                               #  Y5S
000953: 13,3570           77624                           CALL
000954: 13,3571           27662                                    NOTIME                                #  NO, SET ALARM, SWITCH TO MIDTOAV2
000955:
000956: 13,3572           43234        ENTMID2            RTB      DAD
000957: 13,3573           21573                                    LOADTIME
000958: 13,3574           27674                                    TIMEDELT
000959: 13,3575           00041                           STORE    TDEC1
000960:
000961: 13,3576           77624        ENTMID1            CALL
000962: 13,3577           27414                                    INTSTALL
000963: 13,3600           45014                           CLEAR    CALL


000965: 13,3601           01676                                    DIM0FLAG                              #  NO W-MATRIX
000966: 13,3602           26066                                    THISVINT
000967: 13,3603           43014                           CLEAR    SET
000968: 13,3604           01673                                    INTYPFLG
000969: 13,3605           04475                                    MIDAVFLG                              #  LET INTEG. KNOW THE CALL IS FOR MIDTOAV.
000970: 13,3606           77624                           CALL
000971: 13,3607           27134                                    INTEGRV                               #  GO INTEGRATE
000972: 13,3610           77214                           CLEAR    VLOAD
000973: 13,3611           04675                                    MIDAVFLG
000974: 13,3612           00001                                    RATT
000975: 13,3613           27545                           STOVL    RN1
000976: 13,3614           00007                                    VATT
000977: 13,3615           17553                           STODL    VN1
000978: 13,3616           00015                                    TAT
000979: 13,3617           03561                           STORE    PIPTIME1
000980: 13,3620           66134                           SXA,2    SXA,1
000981: 13,3621           02777                                    RTX2
000982: 13,3622           02776                                    RTX1
000983: 13,3623           77776                           EXIT
000984:
000985: 13,3624           00004                           INHINT
000986: 13,3625           00006                           EXTEND
000987: 13,3626           40025                           DCS      TIME2
000988: 13,3627           20155                           DAS      MPAC
000989: 13,3630           07257                           TC       TPAGREE
000990:
000991: 13,3631           31744                           CA       IRETURN1
000992: 13,3632           04640                           TC       BANKJUMP
000993: 13,3633           47014        CKMID2             BOF      RTB
000994: 13,3634           04754                                    MID1FLAG
000995: 13,3635           27652                                    MID2
000996: 13,3636           21573                                    LOADTIME
000997: 13,3637           44215                           DAD      BDSU
000998: 13,3640           27674                                    TIMEDELT
000999: 13,3641           01116                                    TDEC
001000: 13,3642           45044                           BPL      CALL
001001: 13,3643           27257                                    TESTLOOP                              #  YES
001002: 13,3644           27662                                    NOTIME
001003:
001004: 13,3645           43234        TIMEINC            RTB      DAD
001005: 13,3646           21573                                    LOADTIME
001006: 13,3647           27674                                    TIMEDELT
001007: 13,3650           35116                           STCALL   TDEC
001008: 13,3651           27257                                    TESTLOOP
001009:
001010: 13,3652           45345        MID2               DLOAD    DSU
001011: 13,3653           01116                                    TDEC
001012: 13,3654           01517                                    TET
001013: 13,3655           45246                           ABS      DSU
001014: 13,3656           27672                                    3CSECS
001015:


001017: 13,3657           52040                           BMN      GOTO
001018: 13,3660           27157                                    A-PCHK
001019: 13,3661           27645                                    TIMEINC
001020:
001021: 13,3662           77414        NOTIME             CLEAR    EXIT                                  #  TOO LATE
001022: 13,3663           04674                                    MID1FLAG
001023: 13,3664           25744                           INCR     IRETURN1                              #  SET ERROR EXIT (CALLOC +2)
001024: 13,3665           05567                           TC       ALARM                                 #  INSUFFICIENT TIME FOR INTEGRATION --
001025: 13,3666           01703                           OCT      1703                                  #        TIG WILL BE SLIPPED...
001026: 13,3667           06037                           TC       INTPRET
001027: 13,3670           77616                           RVQ
001028:
001029: 13,3671           00000 00003  3CSECS             2DEC     3          B-28
001030:
001031: 13,3673           00000 03720  TIMEDELT           2DEC     2000       B-28
001032:
001033: 27,3360                                           BANK     27
001034: 04,2000                                           SETLOC   UPDATE2
001035: 04,2000                                           BANK
001036: 04,3165     1167                                  EBANK=   INTWAKUQ
001037:
001038: 04,3165                                           COUNT*   $$/INTIN
001039:
001040: 04,3165     1167               INTWAKUQ           =        INTWAK1Q                              #  TEMPORARY UNTIL NAME OF INTWAK1Q IS CHNG
001041:
001042: 04,3165           00003        INTWAKEU           RELINT
001043: 04,3166           00006                           EXTEND
001044: 04,3167           23167                           QXCH     INTWAKUQ                              #  SAVE Q FOR RETURN
001045:
001046: 04,3170           06037                           TC       INTPRET
001047:
001048: 04,3171           53135                           SLOAD    BZE                                   #  IS THIS A CSM/LEM STATE VECTOR UPDATE
001049: 04,3172           01502                                    UPSVFLAG                              #  REQUEST.  IF NOT GO TO INTWAKUP.
001050: 04,3173           11232                                    INTWAKUP
001051:
001052: 04,3174           77775                           VLOAD                                          #  MOVE PRECT(6) AND VRECT(6) INTO
001053: 04,3175           01503                                    RRECT                                 #        RCV(6) AND VCV(6) RESPECTIVELY.
001054: 04,3176           25535                           STOVL    RCV
001055: 04,3177           01511                                    VRECT                                 #  NOW GO TO 'RECTIFY +13D' TO
001056: 04,3200           77624                           CALL                                           #  STORE VRECT INTO VCV AND ZERO OUT
001057: 04,3201           23456                                    RECTIFY    +13D                       #  TDELTAV(6),TNUV(6),TC(2) AND XKEP(2)
001058: 04,3202           51535                           SLOAD    ABS                                   #  COMPARE ABSOLUTE VALUE OF 'UPSVFLAG'
001059: 04,3203           01502                                    UPSVFLAG                              #  TO 'UPDATE MOON STATE VECTOR CODE'
001060: 04,3204           53025                           DSU      BZE                                   #  TO DETERMINE WHETHER THE STATE VECTOR TO
001061: 04,3205           11243                                    UPMNSVCD                              #  BE UPDATED IS IN THE EARTH OR LUNAR
001062: 04,3206           11213                                    INTWAKEM                              #  SPHERE OF INFLUENCE.........
001063: 04,3207           43174                           AXT,2    CLRGO                                 #  EARTH SPHERE OF INFLUENCE.
001064: 04,3210           00000                           DEC      0          B-14
001065: 04,3211           00223                                    MOONFLAG


001067: 04,3212           11216                                    INTWAKEC
001068: 04,3213           43174        INTWAKEM           AXT,2    SET                                   #  LUNAR SPHERE OF INFLUENCE.
001069: 04,3214           00002                           DEC      2          B-14
001070: 04,3215           00063                                    MOONFLAG
001071: 04,3216           50135        INTWAKEC           SLOAD    BMN                                   #  COMMON CODING AFTER X2 INITIALIZED AND
001072:                                                                                                  #  MOONFLAG SET (OR CLEARED).
001073: 04,3217           01502                                    UPSVFLAG                              #  IS THIS A REQUEST FOR A LEM OR CSM
001074: 04,3220           11226                                    INTWAKLM                              #        STATE VECTOR UPDATE......
001075: 04,3221           77624                           CALL                                           #  UPDATE CSM STATE VECTOR
001076: 04,3222           26661                                    ATOPCSM
001077:
001078: 04,3223           52014                           CLEAR    GOTO
001079: 04,3224           01671                                    ORBWFLAG
001080: 04,3225           11230                                    INTWAKEX
001081:
001082: 04,3226           77624        INTWAKLM           CALL                                           #  UPDATE LM STATE VECTOR
001083: 04,3227           26734                                    ATOPLEM
001084:
001085: 04,3230           77614        INTWAKEX           CLEAR
001086: 04,3231           02676                                    RENDWFLG
001087:
001088: 04,3232           45131        INTWAKUP           SSP      CALL                                  #  REMOVE :UPDATE STATE VECTOR INDICATOR:
001089: 04,3233           01502                                    UPSVFLAG
001090: 04,3234           00000                                    0
001091: 04,3235           27423                                    INTWAKE0                              #  RELEASE :GRAB: OF ORBIT INTEG
001092: 04,3236           77776                           EXIT
001093:
001094: 04,3237           05353                           TC       PHASCHNG
001095: 04,3240           04026                           OCT      04026
001096: 04,3241           01167                           TC       INTWAKUQ
001097:
001098: 04,3242           00002        UPMNSVCD           OCT      2
001099: 04,3243           00000                           OCT      0
001100:
001101: 04,3244           77420        GRP2PC             STQ      EXIT
001102: 04,3245           02711                                    GRP2SVQ
001103: 04,3246           05353                           TC       PHASCHNG
001104: 04,3247           04022                           OCT      04022
001105: 04,3250           06037                           TC       INTPRET
001106: 04,3251           77650                           GOTO
001107: 04,3252           02711                                    GRP2SVQ
001108:

End of include-file INTEGRATION_INITIALIZATION.agc.  Parent file is MAIN.agc


