
Source Code
000001:                                                                                                 #  Copyright:     Public domain.
000002:                                                                                                 #  Filename:      INTER-BANK_COMMUNICATION.agc
000003:                                                                                                 #  Purpose:       Part of the source code for Luminary 1A build 099.
000004:                                                                                                 #                 It is part of the source code for the Lunar Module's (LM)
000005:                                                                                                 #                 Apollo Guidance Computer (AGC), for Apollo 11.
000006:                                                                                                 #  Assembler:     yaYUL
000007:                                                                                                 #  Contact:       Ron Burkey <info@sandroid.org>.
000008:                                                                                                 #  Website:       www.ibiblio.org/apollo.
000009:                                                                                                 #  Pages: 998-1001
000010:                                                                                                 #  Mod history:   2009-05-24 RSB  Adapted from the corresponding
000011:                                                                                                 #                                 Luminary131 file, using page
000012:                                                                                                 #                                 images from Luminary 1A.
000013:
000014:                                                                                                 #  This source code has been transcribed or otherwise adapted from
000015:                                                                                                 #  digitized images of a hardcopy from the MIT Museum.  The digitization
000016:                                                                                                 #  was performed by Paul Fjeld, and arranged for by Deborah Douglas of
000017:                                                                                                 #  the Museum.  Many thanks to both.  The images (with suitable reduction
000018:                                                                                                 #  in storage size and consequent reduction in image quality as well) are
000019:                                                                                                 #  available online at www.ibiblio.org/apollo.  If for some reason you
000020:                                                                                                 #  find that the images are illegible, contact me at info@sandroid.org
000021:                                                                                                 #  about getting access to the (much) higher-quality images which Paul
000022:                                                                                                 #  actually created.
000023:
000024:                                                                                                 #  Notations on the hardcopy document read, in part:
000025:
000026:                                                                                                 #         Assemble revision 001 of AGC program LMY99 by NASA 2021112-61
000027:                                                                                                 #         16:27 JULY 14, 1969
000028:
000029:                                                                                                 #  Page 998
000030:                                                                                                 #  THE FOLLOWING ROUTINE CAN BE USED TO CALL A SUBROUTINE IN ANOTHER BANK. IN THE BANKCALL VERSION, THE
000031:                                                                                                 #  CADR OF THE SUBROUTINE IMMEDIATELY FOLLOWS THE TC BANKCALL INSTRUCTION, WITH C(A) AND C(L) PRESERVED.
000032:
000033:    4616                                          BLOCK    02
000034:    4616                                          COUNT*   $$/BANK
000035:    4616           52134        BANKCALL          DXCH     BUF2                                  #  SAVE INCOMING A,L.
000036:    4617           50002                          INDEX    Q                                     #  PICK UP CADR.
000037:    4620           30000                          CA       0
000038:    4621           24002                          INCR     Q                                     #  SO WE RETURN TO THE LOC. AFTER THE CADR.
000039:
000040:                                                                                                 #  SWCALL IS  IDENTICAL TO BANKCALL, EXCEPT THAT THE CADR ARRIVES IN A.
000041:
000042:    4622           54001        SWCALL            TS       L
000043:    4623           22004                          LXCH     FBANK                                 #  SWITCH BANKS, SAVING RETURN.
000044:    4624           75012                          MASK     LOW10                                 #  GET SUB-ADDRESS OF CADR.
000045:    4625           56002                          XCH      Q                                     #  A,L NOW CONTAINS DP RETURN.
000046:    4626           52134                          DXCH     BUF2                                  #  RESTORING INPUTS IF THIS IS A BANKCALL.
000047:    4627           50002                          INDEX    Q
000048:    4630           02000                          TC       10000                                 #  SETTING Q TO SWRETURN.
000049:
000050:    4631           56134        SWRETURN          XCH      BUF2       +1                         #  COMES HERE TO RETURN TO CALLER. C(A,L)
000051:    4632           56004                          XCH      FBANK                                 #  ARE PRESERVED FOR RETURN.
000052:    4633           56134                          XCH      BUF2       +1
000053:    4634           00133                          TC       BUF2
000054:
000055:                                                                                                 #  THE FOLLOWING ROUTINE CAN BE USED AS A UNILATERAL JUMP WITH C(A,L) PRESERVED AND THE CADR IMMEDIATELY
000056:                                                                                                 #  FOLLOWING THE TC POSTJUMP INSTRUCTION.
000057:
000058:    4635           56002        POSTJUMP          XCH      Q                                     #  SAVE INCOMING C(A).
000059:    4636           50000                          INDEX    A                                     #  GET CADR.
000060:    4637           30000                          CA       0
000061:
000062:                                                                                                 #  BANKJUMP IS THE SAME AS POSTJUMP, EXCEPT THAT THE CADR ARRIVES IN A.
000063:
000064:    4640           54004        BANKJUMP          TS       FBANK
000065:    4641           75012                          MASK     LOW10
000066:    4642           56002                          XCH      Q                                     #  RESTORING INPUT C(A) IF THIS WAS A
000067:    4643           50002        Q+10000           INDEX    Q                                     #  POSTJUMP.
000068:    4644           12000        PRIO12            TCF      10000                                 #  PRIO12 = TCF   10000 = 12000
000069:
000070:                                                                                                 #  Page 999
000071:                                                                                                 #  THE FOLLOWING ROUTINE GETS THE RETURN CADR SAVED BY SWCALL OR BANKCALL AND LEAVES IT IN A.
000072:
000073:    4645           35012        MAKECADR          CAF      LOW10
000074:    4646           70133                          MASK     BUF2
000075:    4647           60134                          AD       BUF2       +1
000076:    4650           00002                          TC       Q
000077:
000078:    4651           54135        SUPDACAL          TS       MPTEMP
000079:    4652           56004                          XCH      FBANK                                 #  SET FBANK FOR DATA.
000080:    4653           00006                          EXTEND
000081:    4654           04007                          ROR      SUPERBNK                              #  SAVE FBANK IN BITS 15-11, AND
000082:    4655           56135                          XCH      MPTEMP                                #  SUPERBANK IN BITS 7-5.
000083:    4656           75012                          MASK     LOW10
000084:    4657           56001                          XCH      L                                     #  SAVE REL. ADR. IN BANK, FETCH SUPERBITS
000085:    4660           00004                          INHINT                                         #  BECAUSE RUPT DOES NOT SAVE SUPERBANK.
000086:    4661           00006                          EXTEND
000087:    4662           01007                          WRITE    SUPERBNK                              #  SET SUPERBANK FOR DATA.
000088:    4663           50001                          INDEX    L
000089:    4664           32000                          CA       10000                                 #  PINBALL (FIX MEM DISP) PREVENTS DCA HERE
000090:    4665           56135                          XCH      MPTEMP                                #  SAVE 1ST WD, FETCH OLD FBANK AND SBANK.
000091:    4666           00006                          EXTEND
000092:    4667           01007                          WRITE    SUPERBNK                              #  RESTORE SUPERBANK.
000093:    4670           00003                          RELINT
000094:    4671           54004                          TS       FBANK                                 #  RESTORE FBANK.
000095:    4672           30135                          CA       MPTEMP                                #  RECOVER FIRST WORD OF DATA.
000096:    4673           00002                          RETURN                                         #  24 WDS. DATACALL 516 MU, SUPDACAL 432 MU
000097:
000098:                                                                                                 #  Page 1000
000099:                                                                                                 #  THE FOLLOWING ROUTINES ARE IDENTICAL TO BANKCALL AND SWCALL EXCEPT THAT THEY ARE USED IN INTERRUPT.
000100:
000101:    4674           52073        IBNKCALL          DXCH     RUPTREG3                              #  USES RUPTREG3,4 FOR DP RETURN ADDRESS.
000102:    4675           50002                          INDEX    Q
000103:                                                                                                 #  Was CAF --- RSB 2009
000104:    4676           30000                          CA       0
000105:    4677           24002                          INCR     Q
000106:
000107:    4700           54001        ISWCALLL          TS       L
000108:    4701           22004                          LXCH     FBANK
000109:    4702           75012                          MASK     LOW10
000110:    4703           56002                          XCH      Q
000111:    4704           52073                          DXCH     RUPTREG3
000112:    4705           50002                          INDEX    Q
000113:    4706           02000                          TC       10000
000114:
000115:    4707           56073        ISWRETRN          XCH      RUPTREG4
000116:    4710           56004                          XCH      FBANK
000117:    4711           56073                          XCH      RUPTREG4
000118:    4712           00072                          TC       RUPTREG3
000119:
000120:                                                                                                 #  2. USPRCADR ACCESSES INTERPRETIVE CODING IN OTHER THAN THE USER'S FBANK.  THE CALLING SEQUENCE IS AS FOLLOWS:
000121:                                                                                                 #         L       TC      USPRCADR
000122:                                                                                                 #         L+1     CADR    INTPRETX        # INTPRETX IS THE INTERPRETIVE CODING
000123:                                                                                                 #                                         # RETURN IS TO L+2
000124:
000125:    4713           54164        USPRCADR          TS       LOC                                   #  SAVE A
000126:    4714           34744                          CA       BIT8
000127:    4715           54023                          TS       EDOP                                  #  EXIT INSTRUCTION TO EDOP
000128:    4716           30006                          CA       BBANK
000129:    4717           54165                          TS       BANKSET                               #  USER'S BBANK TO BANKSET
000130:    4720           50002                          INDEX    Q
000131:    4721           30000                          CA       0
000132:    4722           54004                          TS       FBANK                                 #  INTERPRETIVE BANK TO FBANK
000133:    4723           75012                          MASK     LOW10                                 #  YIELDS INTERPRETIVE RELATIVE ADDRESS
000134:    4724           56002                          XCH      Q                                     #  INTERPRETIVE ADDRESS TO Q, FETCHING L+1
000135:    4725           56164                          XCH      LOC                                   #  L+1 TO LOC, RETRIEVING ORIGINAL A
000136:    4726           14643                          TCF      Q+10000
000137:
000138:                                                                                                 #  Page 1001
000139:                                                                                                 #  THERE ARE FOUR POSSIBLE SETTINGS FOR CHANNEL 07.  (CHANNEL 07 CONTAINS SUPERBANK SETTING.)
000140:
000141:                                                                                                 #                                         PSEUDO-FIXED      OCTAL PSEUDO
000142:                                                                                                 #  SUPERBANK      SETTING S-REG. VALUE    BANK NUMBERS       ADDRESSES
000143:                                                                                                 #  ---------      ------- ------------    ------------       ---------
000144:                                                                                                 #  SUPERBANK 3      OXX    2000 - 3777       30 - 37       70000 - 107777         (WHERE XX CAN BE ANYTHING AND
000145:                                                                                                 #                                                                                 WILL USUALLY BE SEEN AS 11)
000146:                                                                                                 #  SUPERBANK 4      100    2000 - 3777       40 - 47      110000 - 127777         (AS FAR AS IT CAN BE SEEN,
000147:                                                                                                 #                                                                                 ONLY BANKS 40-43 WILL EVER BE
000148:                                                                                                 #                                                                                 AND ARE PRESENTLY AVAILABLE)
000149:                                                                                                 #  SUPERBANK 5      101    2000 - 3777       50 - 57      130000 - 147777         (PRESENTLY NOT AVAILABLE TO
000150:                                                                                                 #                                                                                 THE USER)
000151:                                                                                                 #  SUPERBANK 6      110    2000 - 3777       60 - 67      150000 - 167777         (PRESENTLY NOT AVAILABLE TO
000152:                                                                                                 #                                                                                 THE USER)
000153:                                                                                                 #  *** THIS ROUTINE MAY BE CALLED BY ANY PROGRAM LOCATED IN BANKS 00 - 27.  I.E., NO PROGRAM LIVING IN ANY
000154:                                                                                                 #  SUPERBANK SHOULD USE SUPERSW. ***
000155:
000156:                                                                                                 #  SUPERSW MAY BE CALLED IN THIS FASHION:
000157:                                                                                                 #         CAF     ABBCON          WHERE -- ABBCON  BBCON  SOMETHING --
000158:                                                                                                 #         TCR     SUPERSW         (THE SUPERBNK BITS ARE IN THE BBCON)
000159:                                                                                                 #         ...       ...
000160:                                                                                                 #          .         .
000161:                                                                                                 #          .         .
000162:                                                                                                 #  OR IN THIS FASHION:
000163:                                                                                                 #         CAF     SUPERSET        WHERE SUPERSET IS ONE OF THE FOUR AVAILABLE
000164:                                                                                                 #         TCR     SUPERSW         SUPERBANK BIT CONSTANTS:
000165:                                                                                                 #         ...       ...                   SUPER011 OCTAL  60
000166:                                                                                                 #          .         .                    SUPER100 OCTAL 100
000167:                                                                                                 #          .         .                    SUPER101 OCTAL 120
000168:                                                                                                 #                                         SUPER110 OCTAL 140
000169:
000170:    4727           00006        SUPERSW           EXTEND
000171:    4730           01007                          WRITE    SUPERBNK                              #  WRITE BITS 7-6-5 OF THE ACCUMULATOR INTO
000172:                                                                                                 #  CHANNEL 07
000173:    4731           00002                          TC       Q                                     #  TC TO INSTRUCTION FOLLOWING
000174:                                                                                                 #         TC SUPERSW
000175:

End of include-file INTER-BANK_COMMUNICATION.agc.  Parent file is MAIN.agc


