
Source Code


000002:                                                                                                  #  Copyright:    Public domain.
000003:                                                                                                  #  Filename:     INTERPRETIVE_CONSTANT.agc
000004:                                                                                                  #  Purpose:      Part of the source code for Luminary 1A build 099.
000005:                                                                                                  #                It is part of the source code for the Lunar Module's (LM)
000006:                                                                                                  #                Apollo Guidance Computer (AGC), for Apollo 11.
000007:                                                                                                  #  Assembler:    yaYUL
000008:                                                                                                  #  Contact:      Ron Burkey <info@sandroid.org>.
000009:                                                                                                  #  Website:      www.ibiblio.org/apollo.
000010:                                                                                                  #  Pages:        1100-1101
000011:                                                                                                  #  Mod history:  2009-05-25 RSB  Adapted from the corresponding
000012:                                                                                                  #                                Luminary131 file, using page
000013:                                                                                                  #                                images from Luminary 1A.
000014:
000015:                                                                                                  #  This source code has been transcribed or otherwise adapted from
000016:                                                                                                  #  digitized images of a hardcopy from the MIT Museum.  The digitization
000017:                                                                                                  #  was performed by Paul Fjeld, and arranged for by Deborah Douglas of
000018:                                                                                                  #  the Museum.  Many thanks to both.  The images (with suitable reduction
000019:                                                                                                  #  in storage size and consequent reduction in image quality as well) are
000020:                                                                                                  #  available online at www.ibiblio.org/apollo.  If for some reason you
000021:                                                                                                  #  find that the images are illegible, contact me at info@sandroid.org
000022:                                                                                                  #  about getting access to the (much) higher-quality images which Paul
000023:                                                                                                  #  actually created.
000024:
000025:                                                                                                  #  Notations on the hardcopy document read, in part:
000026:
000027:                                                                                                  #        Assemble revision 001 of AGC program LMY99 by NASA 2021112-61
000028:                                                                                                  #        16:27 JULY 14, 1969
000029:


000031: 23,2000                                           SETLOC   INTPRET1
000032: 23,2000                                           BANK
000033:
000034: 23,2511                                           COUNT*   $$/ICONS
000035: 23,2511           10000 00000  DP1/4TH            2DEC     .25
000036:
000037: 23,2513           00000 00000  UNITZ              2DEC     0          B-28
000038:
000039: 23,2515           00000 00000  UNITY              2DEC     0          B-28
000040:
000041: 23,2517           20000 00000  UNITX              2DEC     .5
000042:
000043: 23,2521           00000 00000  ZEROVECS           2DEC     0          B-28
000044:
000045: 23,2523           00000 00000                     2DEC     0          B-28
000046:
000047: 23,2525           00000 00000                     2DEC     0          B-28
000048:
000049: 23,2527  23,2517               DPHALF             =        UNITX
000050: 23,2527           37777        DPPOSMAX           OCT      37777
000051: 23,2530           37777                           OCT      37777
000052:


000054:                                                                                                  #  INTERPRETIVE CONSTANTS IN THE OTHER HALF-MEMORY
000055:
000056: 12,2000                                           SETLOC   INTPRET2
000057: 12,2000                                           BANK
000058:
000059: 12,2000                                           COUNT*   $$/ICONS
000060: 12,2000           00000 00000  ZUNIT              2DEC     0          B-28
000061:
000062: 12,2002           00000 00000  YUNIT              2DEC     0          B-28
000063:
000064: 12,2004           20000 00000  XUNIT              2DEC     .5
000065:
000066: 12,2006           00000 00000  ZEROVEC            2DEC     0          B-28
000067:
000068: 12,2010           00000 00000                     2DEC     0          B-28
000069:
000070: 12,2012           00000 00000                     2DEC     0          B-28
000071:
000072: 12,2014           77777                           OCT      77777                                 #  -0, -6, -12 MUST REMAIN IN THIS ORDER
000073: 12,2015           77771        DFC-6              DEC      -6         B-14
000074: 12,2016           77763        DFC-12             DEC      -12        B-14
000075: 12,2017           37777 37777  LODPMAX            2OCT     3777737777                            #  THESE TWO CONSTANTS MUST REMAIN
000076:
000077: 12,2021           37777 37777  LODPMAX1           2OCT     3777737777                            #  ADJACENT AND THE SAME FOR INTEGRATION
000078:
000079: 12,2023  12,2006               ZERODP             =        ZEROVEC
000080: 12,2023  12,2004               HALFDP             =        XUNIT
000081:
000082:

End of include-file INTERPRETIVE_CONSTANT.agc.  Parent file is MAIN.agc


