
Source Code


000002:                                                                                                  ## Copyright:   Public domain.
000003:                                                                                                  ## Filename:    INTER-BANK_COMMUNICATION.agc
000004:                                                                                                  ## Purpose:     Part of the source code for Luminary 1A build 099.
000005:                                                                                                  ##              It is part of the source code for the Lunar Module's (LM)
000006:                                                                                                  ##              Apollo Guidance Computer (AGC), for Apollo 11.
000007:                                                                                                  ## Assembler:   yaYUL
000008:                                                                                                  ## Contact:     Ron Burkey <info@sandroid.org>.
000009:                                                                                                  ## Website:     www.ibiblio.org/apollo.
000010:                                                                                                  ## Pages:       998-1001
000011:                                                                                                  ## Mod history: 2009-05-24 RSB  Adapted from the corresponding
000012:                                                                                                  ##                              Luminary131 file, using page
000013:                                                                                                  ##                              images from Luminary 1A.
000014:                                                                                                  ##              2011-05-08 JL   Removed workaround.
000015:                                                                                                  ##              2016-12-17 RSB  Proofed text comments with octopus/ProoferComments
000016:                                                                                                  ##                              and corrected the errors found.
000017:                                                                                                  ##              2017-03-13 RSB  Comment-text fixes noted in proofing Luminary 116.
000018:                                                                                                  ##              2017-03-17 RSB  Comment-text fixes identified in diff'ing
000019:                                                                                                  ##                              Luminary 99 vs Comanche 55.
000020:                                                                                                  ##              2021-05-30 ABS  ISWCALLL -> ISWCALL
000021:
000022:                                                                                                  ## This source code has been transcribed or otherwise adapted from
000023:                                                                                                  ## digitized images of a hardcopy from the MIT Museum.  The digitization
000024:                                                                                                  ## was performed by Paul Fjeld, and arranged for by Deborah Douglas of
000025:                                                                                                  ## the Museum.  Many thanks to both.  The images (with suitable reduction
000026:                                                                                                  ## in storage size and consequent reduction in image quality as well) are
000027:                                                                                                  ## available online at www.ibiblio.org/apollo.  If for some reason you
000028:                                                                                                  ## find that the images are illegible, contact me at info@sandroid.org
000029:                                                                                                  ## about getting access to the (much) higher-quality images which Paul
000030:                                                                                                  ## actually created.
000031:                                                                                                  ##
000032:                                                                                                  ## Notations on the hardcopy document read, in part:
000033:                                                                                                  ##
000034:                                                                                                  ##      Assemble revision 001 of AGC program LMY99 by NASA 2021112-61
000035:                                                                                                  ##      16:27 JULY 14, 1969
000036:


000038:                                                                                                  #  THE FOLLOWING ROUTINE CAN BE USED TO CALL A SUBROUTINE IN ANOTHER BANK. IN THE BANKCALL VERSION, THE
000039:                                                                                                  #  CADR OF THE SUBROUTINE IMMEDIATELY FOLLOWS THE TC BANKCALL INSTRUCTION, WITH C(A) AND C(L) PRESERVED.
000040:
000041:    4616                                           BLOCK    02
000042:    4616                                           COUNT*   $$/BANK
000043:    4616           52134        BANKCALL           DXCH     BUF2                                  #  SAVE INCOMING A,L.
000044:    4617           50002                           INDEX    Q                                     #  PICK UP CADR.
000045:    4620           30000                           CA       0
000046:    4621           24002                           INCR     Q                                     #  SO WE RETURN TO THE LOC. AFTER THE CADR.
000047:
000048:                                                                                                  #  SWCALL IS  IDENTICAL TO BANKCALL, EXCEPT THAT THE CADR ARRIVES IN A.
000049:
000050:    4622           54001        SWCALL             TS       L
000051:    4623           22004                           LXCH     FBANK                                 #  SWITCH BANKS, SAVING RETURN.
000052:    4624           75012                           MASK     LOW10                                 #  GET SUB-ADDRESS OF CADR.
000053:    4625           56002                           XCH      Q                                     #  A,L NOW CONTAINS DP RETURN.
000054:    4626           52134                           DXCH     BUF2                                  #  RESTORING INPUTS IF THIS IS A BANKCALL.
000055:    4627           50002                           INDEX    Q
000056:    4630           02000                           TC       10000                                 #  SETTING Q TO SWRETURN.
000057:
000058:    4631           56134        SWRETURN           XCH      BUF2       +1                         #  COMES HERE TO RETURN TO CALLER. C(A,L)
000059:    4632           56004                           XCH      FBANK                                 #  ARE PRESERVED FOR RETURN.
000060:    4633           56134                           XCH      BUF2       +1
000061:    4634           00133                           TC       BUF2
000062:
000063:                                                                                                  #  THE FOLLOWING ROUTINE CAN BE USED AS A UNILATERAL JUMP WITH C(A,L) PRESERVED AND THE CADR IMMEDIATELY
000064:                                                                                                  #  FOLLOWING THE TC POSTJUMP INSTRUCTION.
000065:
000066:    4635           56002        POSTJUMP           XCH      Q                                     #  SAVE INCOMING C(A).
000067:    4636           50000                           INDEX    A                                     #  GET CADR.
000068:    4637           30000                           CA       0
000069:
000070:                                                                                                  #  BANKJUMP IS THE SAME AS POSTJUMP, EXCEPT THAT THE CADR ARRIVES IN A.
000071:
000072:    4640           54004        BANKJUMP           TS       FBANK
000073:    4641           75012                           MASK     LOW10
000074:    4642           56002                           XCH      Q                                     #  RESTORING INPUT C(A) IF THIS WAS A
000075:    4643           50002        Q+10000            INDEX    Q                                     #  POSTJUMP.
000076:    4644           12000        PRIO12             TCF      10000                                 #  PRIO12 = TCF  10000 = 12000
000077:


000079:                                                                                                  #  THE FOLLOWING ROUTINE GETS THE RETURN CADR SAVED BY SWCALL OR BANKCALL AND LEAVES IT IN A.
000080:
000081:    4645           35012        MAKECADR           CAF      LOW10
000082:    4646           70133                           MASK     BUF2
000083:    4647           60134                           AD       BUF2       +1
000084:    4650           00002                           TC       Q
000085:
000086:    4651           54135        SUPDACAL           TS       MPTEMP
000087:    4652           56004                           XCH      FBANK                                 #  SET FBANK FOR DATA.
000088:    4653           00006                           EXTEND
000089:    4654           04007                           ROR      SUPERBNK                              #  SAVE FBANK IN BITS 15-11, AND
000090:    4655           56135                           XCH      MPTEMP                                #  SUPERBANK IN BITS 7-5.
000091:    4656           75012                           MASK     LOW10
000092:    4657           56001                           XCH      L                                     #  SAVE REL. ADR. IN BANK, FETCH SUPERBITS.
000093:    4660           00004                           INHINT                                         #  BECAUSE RUPT DOES NOT SAVE SUPERBANK.
000094:    4661           00006                           EXTEND
000095:    4662           01007                           WRITE    SUPERBNK                              #  SET SUPERBANK FOR DATA.
000096:    4663           50001                           INDEX    L
000097:    4664           32000                           CA       10000                                 #  PINBALL (FIX MEM DISP) PREVENTS DCA HERE
000098:    4665           56135                           XCH      MPTEMP                                #  SAVE 1ST WD, FETCH OLD FBANK AND SBANK.
000099:    4666           00006                           EXTEND
000100:    4667           01007                           WRITE    SUPERBNK                              #  RESTORE SUPERBANK.
000101:    4670           00003                           RELINT
000102:    4671           54004                           TS       FBANK                                 #  RESTORE FBANK.
000103:    4672           30135                           CA       MPTEMP                                #  RECOVER FIRST WORD OF DATA.
000104:    4673           00002                           RETURN                                         #  24 WDS. DATACALL 516 MU, SUPDACAL 432 MU
000105:


000107:                                                                                                  #  THE FOLLOWING ROUTINES ARE IDENTICAL TO BANKCALL AND SWCALL EXCEPT THAT THEY ARE USED IN INTERRUPT.
000108:
000109:    4674           52073        IBNKCALL           DXCH     RUPTREG3                              #  USES RUPTREG3,4 FOR DP RETURN ADDRESS.
000110:    4675           50002                           INDEX    Q
000111:    4676           30000                           CAF      0
000112:    4677           24002                           INCR     Q
000113:
000114:    4700           54001        ISWCALL            TS       L
000115:    4701           22004                           LXCH     FBANK
000116:    4702           75012                           MASK     LOW10
000117:    4703           56002                           XCH      Q
000118:    4704           52073                           DXCH     RUPTREG3
000119:    4705           50002                           INDEX    Q
000120:    4706           02000                           TC       10000
000121:
000122:    4707           56073        ISWRETRN           XCH      RUPTREG4
000123:    4710           56004                           XCH      FBANK
000124:    4711           56073                           XCH      RUPTREG4
000125:    4712           00072                           TC       RUPTREG3
000126:
000127:                                                                                                  #  2. USPRCADR ACCESSES INTERPRETIVE CODING IN OTHER THAN THE USER'S FBANK.  THE CALLING SEQUENCE IS AS FOLLOWS:
000128:                                                                                                  #        L       TC      USPRCADR
000129:                                                                                                  #        L+1     CADR    INTPRETX        INTPRETX IS THE INTERPRETIVE CODING
000130:                                                                                                  #                                        RETURN IS TO L+2
000131:
000132:    4713           54164        USPRCADR           TS       LOC                                   #  SAVE A
000133:    4714           34744                           CA       BIT8
000134:    4715           54023                           TS       EDOP                                  #  EXIT INSTRUCTION TO EDOP
000135:    4716           30006                           CA       BBANK
000136:    4717           54165                           TS       BANKSET                               #  USER'S BBANK TO BANKSET
000137:    4720           50002                           INDEX    Q
000138:    4721           30000                           CA       0
000139:    4722           54004                           TS       FBANK                                 #  INTERPRETIVE BANK TO FBANK
000140:    4723           75012                           MASK     LOW10                                 #  YIELDS INTERPRETIVE RELATIVE ADDRESS
000141:    4724           56002                           XCH      Q                                     #  INTERPRETIVE ADDRESS TO Q, FETCHING L+1
000142:    4725           56164                           XCH      LOC                                   #  L+1 TO LOC, RETRIEVING ORIGINAL A
000143:    4726           14643                           TCF      Q+10000
000144:


000146:                                                                                                  #  THERE ARE FOUR POSSIBLE SETTINGS FOR CHANNEL 07.  (CHANNEL 07 CONTAINS THE SUPERBANK SETTING.)
000147:
000148:                                                                                                  #                                        PSEUDO-FIXED      OCTAL PSEUDO
000149:                                                                                                  #  SUPERBANK     SETTING S-REG. VALUE    BANK NUMBERS      ADDRESSES
000150:                                                                                                  #  ----------    ------- ------------     ------------      ------------
000151:                                                                                                  #  SUPERBANK 3     0XX    2000 - 3777       30 - 37       70000 - 107777         (WHERE XX CAN BE ANYTHING AND
000152:                                                                                                  #                                                                                WILL USUALLY BE SEEN AS 11)
000153:                                                                                                  #  SUPERBANK 4     100    2000 - 3777       40 - 47      110000 - 127777         (AS FAR AS IT CAN BE SEEN,
000154:                                                                                                  #                                                                                ONLY BANKS 40-43 WILL EVER BE
000155:                                                                                                  #                                                                                AND ARE PRESENTLY AVAILABLE)
000156:                                                                                                  #  SUPERBANK 5     101    2000 - 3777       50 - 57      130000 - 147777         (PRESENTLY NOT AVAILABLE TO
000157:                                                                                                  #                                                                                THE USER)
000158:                                                                                                  #  SUPERBANK 6     110    2000 - 3777       60 - 67      150000 - 167777         (PRESENTLY NOT AVAILABLE TO
000159:                                                                                                  #                                                                                THE USER)
000160:                                                                                                  #  *** THIS ROUTINE MAY BE CALLED BY ANY PROGRAM LOCATED IN BANKS 00 - 27.  I.E., NO PROGRAM LIVING IN ANY
000161:                                                                                                  #  SUPERBANK SHOULD USE SUPERSW. ***
000162:
000163:                                                                                                  #  SUPERSW MAY BE CALLED IN THIS FASHION:
000164:                                                                                                  #        CAF     ABBCON          WHERE  --  ABBCON   BBCON  SOMETHIN --
000165:                                                                                                  #        TCR     SUPERSW         (THE SUPERBNK BITS ARE IN THE BBCON)
000166:                                                                                                  #        ...       ...
000167:                                                                                                  #         .         .
000168:                                                                                                  #         .         .
000169:                                                                                                  #  OR IN THIS FASHION:
000170:                                                                                                  #        CAF     SUPERSET        WHERE SUPERSET IS ONE OF THE FOUR AVAILABLE
000171:                                                                                                  #        TCR     SUPERSW         SUPERBANK BIT CONSTANTS:
000172:                                                                                                  #        ...       ...                                   SUPER011 OCTAL  60
000173:                                                                                                  #         .         .                                    SUPER100 OCTAL 100
000174:                                                                                                  #         .         .                                    SUPER101 OCTAL 120
000175:                                                                                                  #                                                        SUPER110 OCTAL 140
000176:
000177:    4727           00006        SUPERSW            EXTEND
000178:    4730           01007                           WRITE    SUPERBNK                              #  WRITE BITS 7-6-5 OF THE ACCUMULATOR INTO
000179:                                                                                                  #  CHANNEL 07
000180:    4731           00002                           TC       Q                                     #  TC TO INSTRUCTION FOLLOWING
000181:                                                                                                  #        TC SUPERSW
000182:

End of include-file INTER-BANK_COMMUNICATION.agc.  Parent file is MAIN.agc


