
Source Code


000002:                                                                                                  ## Copyright:   Public domain.
000003:                                                                                                  ## Filename:    INTER-BANK_COMMUNICATION.agc
000004:                                                                                                  ## Purpose:     Part of the source code for Luminary 1A build 099.
000005:                                                                                                  ##              It is part of the source code for the Lunar Module's (LM)
000006:                                                                                                  ##              Apollo Guidance Computer (AGC), for Apollo 11.
000007:                                                                                                  ## Assembler:   yaYUL
000008:                                                                                                  ## Contact:     Ron Burkey <info@sandroid.org>.
000009:                                                                                                  ## Website:     www.ibiblio.org/apollo.
000010:                                                                                                  ## Pages:       998-1001
000011:                                                                                                  ## Mod history: 2009-05-24 RSB  Adapted from the corresponding
000012:                                                                                                  ##                              Luminary131 file, using page
000013:                                                                                                  ##                              images from Luminary 1A.
000014:                                                                                                  ##              2011-05-08 JL   Removed workaround.
000015:                                                                                                  ##              2016-12-17 RSB  Proofed text comments with octopus/ProoferComments
000016:                                                                                                  ##                              and corrected the errors found.
000017:
000018:                                                                                                  ## This source code has been transcribed or otherwise adapted from
000019:                                                                                                  ## digitized images of a hardcopy from the MIT Museum.  The digitization
000020:                                                                                                  ## was performed by Paul Fjeld, and arranged for by Deborah Douglas of
000021:                                                                                                  ## the Museum.  Many thanks to both.  The images (with suitable reduction
000022:                                                                                                  ## in storage size and consequent reduction in image quality as well) are
000023:                                                                                                  ## available online at www.ibiblio.org/apollo.  If for some reason you
000024:                                                                                                  ## find that the images are illegible, contact me at info@sandroid.org
000025:                                                                                                  ## about getting access to the (much) higher-quality images which Paul
000026:                                                                                                  ## actually created.
000027:                                                                                                  ##
000028:                                                                                                  ## Notations on the hardcopy document read, in part:
000029:                                                                                                  ##
000030:                                                                                                  ##      Assemble revision 001 of AGC program LMY99 by NASA 2021112-61
000031:                                                                                                  ##      16:27 JULY 14, 1969
000032:


000034:                                                                                                  #  THE FOLLOWING ROUTINE CAN BE USED TO CALL A SUBROUTINE IN ANOTHER BANK. IN THE BANKCALL VERSION, THE
000035:                                                                                                  #  CADR OF THE SUBROUTINE IMMEDIATELY FOLLOWS THE TC BANKCALL INSTRUCTION, WITH C(A) AND C(L) PRESERVED.
000036:
000037:    4616                                           BLOCK    02
000038:    4616                                           COUNT*   $$/BANK
000039:    4616           52134        BANKCALL           DXCH     BUF2                                  #  SAVE INCOMING A,L.
000040:    4617           50002                           INDEX    Q                                     #  PICK UP CADR.
000041:    4620           30000                           CA       0
000042:    4621           24002                           INCR     Q                                     #  SO WE RETURN TO THE LOC. AFTER THE CADR.
000043:
000044:                                                                                                  #  SWCALL IS  IDENTICAL TO BANKCALL, EXCEPT THAT THE CADR ARRIVES IN A.
000045:
000046:    4622           54001        SWCALL             TS       L
000047:    4623           22004                           LXCH     FBANK                                 #  SWITCH BANKS, SAVING RETURN.
000048:    4624           75012                           MASK     LOW10                                 #  GET SUB-ADDRESS OF CADR.
000049:    4625           56002                           XCH      Q                                     #  A,L NOW CONTAINS DP RETURN.
000050:    4626           52134                           DXCH     BUF2                                  #  RESTORING INPUTS IF THIS IS A BANKCALL.
000051:    4627           50002                           INDEX    Q
000052:    4630           02000                           TC       10000                                 #  SETTING Q TO SWRETURN.
000053:
000054:    4631           56134        SWRETURN           XCH      BUF2       +1                         #  COMES HERE TO RETURN TO CALLER. C(A,L)
000055:    4632           56004                           XCH      FBANK                                 #  ARE PRESERVED FOR RETURN.
000056:    4633           56134                           XCH      BUF2       +1
000057:    4634           00133                           TC       BUF2
000058:
000059:                                                                                                  #  THE FOLLOWING ROUTINE CAN BE USED AS A UNILATERAL JUMP WITH C(A,L) PRESERVED AND THE CADR IMMEDIATELY
000060:                                                                                                  #  FOLLOWING THE TC POSTJUMP INSTRUCTION.
000061:
000062:    4635           56002        POSTJUMP           XCH      Q                                     #  SAVE INCOMING C(A).
000063:    4636           50000                           INDEX    A                                     #  GET CADR.
000064:    4637           30000                           CA       0
000065:
000066:                                                                                                  #  BANKJUMP IS THE SAME AS POSTJUMP, EXCEPT THAT THE CADR ARRIVES IN A.
000067:
000068:    4640           54004        BANKJUMP           TS       FBANK
000069:    4641           75012                           MASK     LOW10
000070:    4642           56002                           XCH      Q                                     #  RESTORING INPUT C(A) IF THIS WAS A
000071:    4643           50002        Q+10000            INDEX    Q                                     #  POSTJUMP.
000072:    4644           12000        PRIO12             TCF      10000                                 #  PRIO12 = TCF  10000 = 12000
000073:


000075:                                                                                                  #  THE FOLLOWING ROUTINE GETS THE RETURN CADR SAVED BY SWCALL OR BANKCALL AND LEAVES IT IN A.
000076:
000077:    4645           35012        MAKECADR           CAF      LOW10
000078:    4646           70133                           MASK     BUF2
000079:    4647           60134                           AD       BUF2       +1
000080:    4650           00002                           TC       Q
000081:
000082:    4651           54135        SUPDACAL           TS       MPTEMP
000083:    4652           56004                           XCH      FBANK                                 #  SET FBANK FOR DATA.
000084:    4653           00006                           EXTEND
000085:    4654           04007                           ROR      SUPERBNK                              #  SAVE FBANK IN BITS 15-11, AND
000086:    4655           56135                           XCH      MPTEMP                                #  SUPERBANK IN BITS 7-5.
000087:    4656           75012                           MASK     LOW10
000088:    4657           56001                           XCH      L                                     #  SAVE REL. ADR. IN BANK, FETCH SUPERBITS.
000089:    4660           00004                           INHINT                                         #  BECAUSE RUPT DOES NOT SAVE SUPERBANK.
000090:    4661           00006                           EXTEND
000091:    4662           01007                           WRITE    SUPERBNK                              #  SET SUPERBANK FOR DATA.
000092:    4663           50001                           INDEX    L
000093:    4664           32000                           CA       10000                                 #  PINBALL (FIX MEM DISP) PREVENTS DCA HERE
000094:    4665           56135                           XCH      MPTEMP                                #  SAVE 1ST WD, FETCH OLD FBANK AND SBANK.
000095:    4666           00006                           EXTEND
000096:    4667           01007                           WRITE    SUPERBNK                              #  RESTORE SUPERBANK.
000097:    4670           00003                           RELINT
000098:    4671           54004                           TS       FBANK                                 #  RESTORE FBANK.
000099:    4672           30135                           CA       MPTEMP                                #  RECOVER FIRST WORD OF DATA.
000100:    4673           00002                           RETURN                                         #  24 WDS. DATACALL 516 MU, SUPDACAL 432 MU
000101:


000103:                                                                                                  #  THE FOLLOWING ROUTINES ARE IDENTICAL TO BANKCALL AND SWCALL EXCEPT THAT THEY ARE USED IN INTERRUPT.
000104:
000105:    4674           52073        IBNKCALL           DXCH     RUPTREG3                              #  USES RUPTREG3,4 FOR DP RETURN ADDRESS.
000106:    4675           50002                           INDEX    Q
000107:    4676           30000                           CAF      0
000108:    4677           24002                           INCR     Q
000109:
000110:    4700           54001        ISWCALLL           TS       L
000111:    4701           22004                           LXCH     FBANK
000112:    4702           75012                           MASK     LOW10
000113:    4703           56002                           XCH      Q
000114:    4704           52073                           DXCH     RUPTREG3
000115:    4705           50002                           INDEX    Q
000116:    4706           02000                           TC       10000
000117:
000118:    4707           56073        ISWRETRN           XCH      RUPTREG4
000119:    4710           56004                           XCH      FBANK
000120:    4711           56073                           XCH      RUPTREG4
000121:    4712           00072                           TC       RUPTREG3
000122:
000123:                                                                                                  #  2. USPRCADR ACCESSES INTERPRETIVE CODING IN OTHER THAN THE USER'S FBANK.  THE CALLING SEQUENCE IS AS FOLLOWS:
000124:                                                                                                  #        L       TC      USPRCADR
000125:                                                                                                  #        L+1     CADR    INTPRETX        INTPRETX IS THE INTERPRETIVE CODING
000126:                                                                                                  #                                        RETURN IS TO L+2
000127:
000128:    4713           54164        USPRCADR           TS       LOC                                   #  SAVE A
000129:    4714           34744                           CA       BIT8
000130:    4715           54023                           TS       EDOP                                  #  EXIT INSTRUCTION TO EDOP
000131:    4716           30006                           CA       BBANK
000132:    4717           54165                           TS       BANKSET                               #  USER'S BBANK TO BANKSET
000133:    4720           50002                           INDEX    Q
000134:    4721           30000                           CA       0
000135:    4722           54004                           TS       FBANK                                 #  INTERPRETIVE BANK TO FBANK
000136:    4723           75012                           MASK     LOW10                                 #  YIELDS INTERPRETIVE RELATIVE ADDRESS
000137:    4724           56002                           XCH      Q                                     #  INTERPRETIVE ADDRESS TO Q, FETCHING L+1
000138:    4725           56164                           XCH      LOC                                   #  L+1 TO LOC, RETRIEVING ORIGINAL A
000139:    4726           14643                           TCF      Q+10000
000140:


000142:                                                                                                  #  THERE ARE FOUR POSSIBLE SETTINGS FOR CHANNEL 07.  (CHANNEL 07 CONTAINS THE SUPERBANK SETTING.)
000143:
000144:                                                                                                  #                                        PSEUDO-FIXED      OCTAL PSEUDO
000145:                                                                                                  #  SUPERBANK     SETTING S-REG. VALUE    BANK NUMBERS      ADDRESSES
000146:                                                                                                  #  ----------    ------- ------------     ------------      ------------
000147:                                                                                                  #  SUPERBANK 3     OXX    2000 - 3777       30 - 37       70000 - 107777         (WHERE XX CAN BE ANYTHING AND
000148:                                                                                                  #                                                                                WILL USUALLY BE SEEN AS 11)
000149:                                                                                                  #  SUPERBANK 4     100    2000 - 3777       40 - 47      110000 - 127777         (AS FAR AS IT CAN BE SEEN,
000150:                                                                                                  #                                                                                ONLY BANKS 40-43 WILL EVER BE
000151:                                                                                                  #                                                                                AND ARE PRESENTLY AVAILABLE)
000152:                                                                                                  #  SUPERBANK 5     101    2000 - 3777       50 - 57      130000 - 147777         (PRESENTLY NOT AVAILABLE TO
000153:                                                                                                  #                                                                                THE USER)
000154:                                                                                                  #  SUPERBANK 6     110    2000 - 3777       60 - 67      150000 - 167777         (PRESENTLY NOT AVAILABLE TO
000155:                                                                                                  #                                                                                THE USER)
000156:                                                                                                  #  *** THIS ROUTINE MAY BE CALLED BY ANY PROGRAM LOCATED IN BANKS 00 - 27.  I.E., NO PROGRAM LIVING IN ANY
000157:                                                                                                  #  SUPERBANK SHOULD USE SUPERSW. ***
000158:
000159:                                                                                                  #  SUPERSW MAY BE CALLED IN THIS FASHION:
000160:                                                                                                  #        CAF     ABBCON          WHERE      ABBCON   BBCON  SOMETHIN
000161:                                                                                                  #        TCR     SUPERSW         (THE SUPERBNK BITS ARE IN THE BBCON)
000162:                                                                                                  #        ...       ...
000163:                                                                                                  #         .         .
000164:                                                                                                  #         .         .
000165:                                                                                                  #  OR IN THIS FASHION:
000166:                                                                                                  #        CAF     SUPERSET        WHERE SUPERSET IS ONE OF THE FOUR AVAILABLE
000167:                                                                                                  #        TCR     SUPERSW         SUPERBANK BIT CONSTANTS:
000168:                                                                                                  #        ...       ...                                   SUPER011 OCTAL  60
000169:                                                                                                  #         .         .                                    SUPER100 OCTAL 100
000170:                                                                                                  #         .         .                                    SUPER101 OCTAL 120
000171:                                                                                                  #                                                        SUPER110 OCTAL 140
000172:
000173:    4727           00006        SUPERSW            EXTEND
000174:    4730           01007                           WRITE    SUPERBNK                              #  WRITE BITS 7-6-5 OF THE ACCUMULATOR INTO
000175:                                                                                                  #  CHANNEL 07
000176:    4731           00002                           TC       Q                                     #  TC TO INSTRUCTION FOLLOWING
000177:                                                                                                  #        TC SUPERSW
000178:

End of include-file INTER-BANK_COMMUNICATION.agc.  Parent file is MAIN.agc


