
Source Code
000001:                                                                                                 #  Copyright:     Public domain.
000002:                                                                                                 #  Filename:      KALMAN_FILTER.agc
000003:                                                                                                 #  Purpose:       Part of the source code for Luminary 1A build 099.
000004:                                                                                                 #                 It is part of the source code for the Lunar Module's (LM)
000005:                                                                                                 #                 Apollo Guidance Computer (AGC), for Apollo 11.
000006:                                                                                                 #  Assembler:     yaYUL
000007:                                                                                                 #  Contact:       Ron Burkey <info@sandroid.org>.
000008:                                                                                                 #  Website:       www.ibiblio.org/apollo.
000009:                                                                                                 #  Pages: 1470-1471
000010:                                                                                                 #  Mod history:   2009-05-27 RSB  Adapted from the corresponding
000011:                                                                                                 #                                 Luminary131 file, using page
000012:                                                                                                 #                                 images from Luminary 1A.
000013:
000014:                                                                                                 #  This source code has been transcribed or otherwise adapted from
000015:                                                                                                 #  digitized images of a hardcopy from the MIT Museum.  The digitization
000016:                                                                                                 #  was performed by Paul Fjeld, and arranged for by Deborah Douglas of
000017:                                                                                                 #  the Museum.  Many thanks to both.  The images (with suitable reduction
000018:                                                                                                 #  in storage size and consequent reduction in image quality as well) are
000019:                                                                                                 #  available online at www.ibiblio.org/apollo.  If for some reason you
000020:                                                                                                 #  find that the images are illegible, contact me at info@sandroid.org
000021:                                                                                                 #  about getting access to the (much) higher-quality images which Paul
000022:                                                                                                 #  actually created.
000023:
000024:                                                                                                 #  Notations on the hardcopy document read, in part:
000025:
000026:                                                                                                 #         Assemble revision 001 of AGC program LMY99 by NASA 2021112-61
000027:                                                                                                 #         16:27 JULY 14, 1969
000028:
000029:                                                                                                 #  Page 1470
000030: 17,3744  E6,1522                                 EBANK=   NO.UJETS
000031: 16,3641                                          BANK     16
000032: 16,2000                                          SETLOC   DAPS1
000033: 16,2000                                          BANK
000034:
000035: 16,3641                                          COUNT*   $$/DAP
000036:
000037: 16,3641           34752        RATELOOP          CA       TWO
000038: 16,3642           55744                          TS       DAPTEMP6
000039: 16,3643           60000                          DOUBLE
000040: 16,3644           54002                          TS       Q
000041: 16,3645           51744                          INDEX    DAPTEMP6
000042: 16,3646           11524                          CCS      TJP
000043: 16,3647           13651                          TCF      +2
000044: 16,3650           13670                          TCF      LOOPRATE
000045: 16,3651           63731                          AD       -100MST6
000046: 16,3652           00006                          EXTEND
000047: 16,3653           63707                          BZMF     SMALLTJU
000048: 16,3654           51744                          INDEX    DAPTEMP6
000049: 16,3655           11524                          CCS      TJP
000050: 16,3656           33731                          CA       -100MST6
000051: 16,3657           13661                          TCF      +2
000052: 16,3660           43731                          CS       -100MST6
000053: 16,3661           51744                          INDEX    DAPTEMP6
000054: 16,3662           27524                          ADS      TJP
000055: 16,3663           51744                          INDEX    DAPTEMP6
000056: 16,3664           11524                          CCS      TJP
000057: 16,3665           43615                          CS       -100MS                                #  0.1 AT 1
000058: 16,3666           13670                          TCF      +2
000059: 16,3667           33615                          CA       -100MS
000060: 16,3670           00006        LOOPRATE          EXTEND
000061: 16,3671           51744                          INDEX    DAPTEMP6
000062: 16,3672           71521                          MP       NO.PJETS
000063: 16,3673           30001                          CA       L
000064: 16,3674           51744                          INDEX    DAPTEMP6
000065: 16,3675           55737                          TS       DAPTEMP1                              #  SIGNED TORQUE AT 1 JET-SEC FOR FILTER
000066: 16,3676           00006                          EXTEND
000067: 16,3677           74742                          MP       BIT10                                 #  RESCALE TO 32; ONE BIT ABOUT 2 JET-MSEC
000068: 16,3700           00006                          EXTEND
000069: 16,3701           63732                          BZMF     NEGTORK
000070: 16,3702           50002        STORTORK          INDEX    Q                                     #  INCREMENT DOWNLIST REGISTER.
000071: 16,3703           27513                          ADS      DOWNTORK                              #         NOTE:  NOT INITIALIZED; OVERFLOWS.
000072:
000073: 16,3704           11744                          CCS      DAPTEMP6
000074: 16,3705           13642                          TCF      RATELOOP   +1
000075: 16,3706           13716                          TCF      ROTORQUE
000076: 16,3707           34755        SMALLTJU          CA       ZERO
000077: 16,3710           51744                          INDEX    DAPTEMP6
000078: 16,3711           57524                          XCH      TJP
000079: 16,3712           00006                          EXTEND
000080:                                                                                                 #  Page 1471
000081: 16,3713           74760                          MP       ELEVEN                                #  10.24 PLUS
000082: 16,3714           30001                          CA       L
000083: 16,3715           13670                          TCF      LOOPRATE
000084: 16,3716           31740        ROTORQUE          CA       DAPTEMP2
000085: 16,3717           61741                          AD       DAPTEMP3
000086: 16,3720           00006                          EXTEND
000087: 16,3721           71532                          MP       1JACCR
000088: 16,3722           55747                          TS       JETRATER
000089: 16,3723           41741                          CS       DAPTEMP3
000090: 16,3724           61740                          AD       DAPTEMP2
000091: 16,3725           00006                          EXTEND
000092: 16,3726           71531                          MP       1JACCQ
000093: 16,3727           55746                          TS       JETRATEQ
000094: 16,3730           12316                          TCF      BACKP
000095: 16,3731           77537        -100MST6          DEC      -160       B-14
000096:
000097: 16,3732           40000        NEGTORK           COM
000098: 16,3733           24002                          INCR     Q
000099: 16,3734           13702                          TCF      STORTORK
000100:
000101:

End of include-file KALMAN_FILTER.agc.  Parent file is MAIN.agc


