
Source Code


000002:                                                                                                  ## Copyright:   Public domain.
000003:                                                                                                  ## Filename:    KALMAN_FILTER.agc
000004:                                                                                                  ## Purpose:     Part of the source code for Luminary 1A build 099.
000005:                                                                                                  ##              It is part of the source code for the Lunar Module's (LM)
000006:                                                                                                  ##              Apollo Guidance Computer (AGC), for Apollo 11.
000007:                                                                                                  ## Assembler:   yaYUL
000008:                                                                                                  ## Contact:     Ron Burkey <info@sandroid.org>.
000009:                                                                                                  ## Website:     www.ibiblio.org/apollo.
000010:                                                                                                  ## Pages:       1470-1471
000011:                                                                                                  ## Mod history: 2009-05-27 RSB  Adapted from the corresponding
000012:                                                                                                  ##                              Luminary131 file, using page
000013:                                                                                                  ##                              images from Luminary 1A.
000014:                                                                                                  ##              2016-12-18 RSB  Proofed text comments with octopus/ProoferComments
000015:                                                                                                  ##                              but no errors found.
000016:                                                                                                  ##
000017:                                                                                                  ## This source code has been transcribed or otherwise adapted from
000018:                                                                                                  ## digitized images of a hardcopy from the MIT Museum.  The digitization
000019:                                                                                                  ## was performed by Paul Fjeld, and arranged for by Deborah Douglas of
000020:                                                                                                  ## the Museum.  Many thanks to both.  The images (with suitable reduction
000021:                                                                                                  ## in storage size and consequent reduction in image quality as well) are
000022:                                                                                                  ## available online at www.ibiblio.org/apollo.  If for some reason you
000023:                                                                                                  ## find that the images are illegible, contact me at info@sandroid.org
000024:                                                                                                  ## about getting access to the (much) higher-quality images which Paul
000025:                                                                                                  ## actually created.
000026:                                                                                                  ##
000027:                                                                                                  ## Notations on the hardcopy document read, in part:
000028:                                                                                                  ##
000029:                                                                                                  ##      Assemble revision 001 of AGC program LMY99 by NASA 2021112-61
000030:                                                                                                  ##      16:27 JULY 14, 1969
000031:


000033: 17,3744  E6,1522                                  EBANK=   NO.UJETS
000034: 16,3641                                           BANK     16
000035: 16,2000                                           SETLOC   DAPS1
000036: 16,2000                                           BANK
000037:
000038: 16,3641                                           COUNT*   $$/DAP
000039:
000040: 16,3641           34752        RATELOOP           CA       TWO
000041: 16,3642           55744                           TS       DAPTEMP6
000042: 16,3643           60000                           DOUBLE
000043: 16,3644           54002                           TS       Q
000044: 16,3645           51744                           INDEX    DAPTEMP6
000045: 16,3646           11524                           CCS      TJP
000046: 16,3647           13651                           TCF      +2
000047: 16,3650           13670                           TCF      LOOPRATE
000048: 16,3651           63731                           AD       -100MST6
000049: 16,3652           00006                           EXTEND
000050: 16,3653           63707                           BZMF     SMALLTJU
000051: 16,3654           51744                           INDEX    DAPTEMP6
000052: 16,3655           11524                           CCS      TJP
000053: 16,3656           33731                           CA       -100MST6
000054: 16,3657           13661                           TCF      +2
000055: 16,3660           43731                           CS       -100MST6
000056: 16,3661           51744                           INDEX    DAPTEMP6
000057: 16,3662           27524                           ADS      TJP
000058: 16,3663           51744                           INDEX    DAPTEMP6
000059: 16,3664           11524                           CCS      TJP
000060: 16,3665           43615                           CS       -100MS                                #  0.1 AT 1
000061: 16,3666           13670                           TCF      +2
000062: 16,3667           33615                           CA       -100MS
000063: 16,3670           00006        LOOPRATE           EXTEND
000064: 16,3671           51744                           INDEX    DAPTEMP6
000065: 16,3672           71521                           MP       NO.PJETS
000066: 16,3673           30001                           CA       L
000067: 16,3674           51744                           INDEX    DAPTEMP6
000068: 16,3675           55737                           TS       DAPTEMP1                              #  SIGNED TORQUE AT 1 JET-SEC FOR FILTER
000069: 16,3676           00006                           EXTEND
000070: 16,3677           74742                           MP       BIT10                                 #  RESCALE TO 32; ONE BIT ABOUT 2 JET-MSEC
000071: 16,3700           00006                           EXTEND
000072: 16,3701           63732                           BZMF     NEGTORK
000073: 16,3702           50002        STORTORK           INDEX    Q                                     #  INCREMENT DOWNLIST REGISTER.
000074: 16,3703           27513                           ADS      DOWNTORK                              #        NOTE:  NOT INITIALIZED; OVERFLOWS.
000075:
000076: 16,3704           11744                           CCS      DAPTEMP6
000077: 16,3705           13642                           TCF      RATELOOP   +1
000078: 16,3706           13716                           TCF      ROTORQUE
000079: 16,3707           34755        SMALLTJU           CA       ZERO
000080: 16,3710           51744                           INDEX    DAPTEMP6
000081: 16,3711           57524                           XCH      TJP
000082: 16,3712           00006                           EXTEND


000084: 16,3713           74760                           MP       ELEVEN                                #  10.24 PLUS
000085: 16,3714           30001                           CA       L
000086: 16,3715           13670                           TCF      LOOPRATE
000087: 16,3716           31740        ROTORQUE           CA       DAPTEMP2
000088: 16,3717           61741                           AD       DAPTEMP3
000089: 16,3720           00006                           EXTEND
000090: 16,3721           71532                           MP       1JACCR
000091: 16,3722           55747                           TS       JETRATER
000092: 16,3723           41741                           CS       DAPTEMP3
000093: 16,3724           61740                           AD       DAPTEMP2
000094: 16,3725           00006                           EXTEND
000095: 16,3726           71531                           MP       1JACCQ
000096: 16,3727           55746                           TS       JETRATEQ
000097: 16,3730           12316                           TCF      BACKP
000098: 16,3731           77537        -100MST6           DEC      -160       B-14
000099:
000100: 16,3732           40000        NEGTORK            COM
000101: 16,3733           24002                           INCR     Q
000102: 16,3734           13702                           TCF      STORTORK
000103:
000104:

End of include-file KALMAN_FILTER.agc.  Parent file is MAIN.agc


