
Source Code


000002:                                                                                                  ## Copyright:   Public domain.
000003:                                                                                                  ## Filename:    KEYRUPT_UPRUPT.agc
000004:                                                                                                  ## Purpose:     Part of the source code for Luminary 1A build 099.
000005:                                                                                                  ##              It is part of the source code for the Lunar Module's (LM)
000006:                                                                                                  ##              Apollo Guidance Computer (AGC), for Apollo 11.
000007:                                                                                                  ## Assembler:   yaYUL
000008:                                                                                                  ## Contact:     Ron Burkey <info@sandroid.org>.
000009:                                                                                                  ## Website:     www.ibiblio.org/apollo.
000010:                                                                                                  ## Pages:       1338-1340
000011:                                                                                                  ## Mod history: 2009-05-27 RSB  Adapted from the corresponding
000012:                                                                                                  ##                              Luminary131 file, using page
000013:                                                                                                  ##                              images from Luminary 1A.
000014:                                                                                                  ##              2016-12-18 RSB  Proofed text comments with octopus/ProoferComments
000015:                                                                                                  ##                              and corrected the errors found.
000016:                                                                                                  ##
000017:                                                                                                  ## This source code has been transcribed or otherwise adapted from
000018:                                                                                                  ## digitized images of a hardcopy from the MIT Museum.  The digitization
000019:                                                                                                  ## was performed by Paul Fjeld, and arranged for by Deborah Douglas of
000020:                                                                                                  ## the Museum.  Many thanks to both.  The images (with suitable reduction
000021:                                                                                                  ## in storage size and consequent reduction in image quality as well) are
000022:                                                                                                  ## available online at www.ibiblio.org/apollo.  If for some reason you
000023:                                                                                                  ## find that the images are illegible, contact me at info@sandroid.org
000024:                                                                                                  ## about getting access to the (much) higher-quality images which Paul
000025:                                                                                                  ## actually created.
000026:                                                                                                  ##
000027:                                                                                                  ## Notations on the hardcopy document read, in part:
000028:                                                                                                  ##
000029:                                                                                                  ##      Assemble revision 001 of AGC program LMY99 by NASA 2021112-61
000030:                                                                                                  ##      16:27 JULY 14, 1969
000031:


000033: 14,3774                                           BANK     14
000034: 04,2000                                           SETLOC   KEYRUPT
000035: 04,2000                                           BANK
000036: 04,3274                                           COUNT*   $$/KEYUP
000037:
000038: 04,3274           54016        KEYRUPT1           TS       BANKRUPT
000039: 04,3275           56002                           XCH      Q
000040: 04,3276           54012                           TS       QRUPT
000041: 04,3277           04400                           TC       LODSAMPT                              #  TIME IS SNATCHED IN RUPT FOR NOUN 65.
000042: 04,3300           34346                           CAF      LOW5
000043: 04,3301           00006                           EXTEND
000044: 04,3302           02015                           RAND     MNKEYIN                               #  CHECK IF KEYS 5M-1M ON
000045: 04,3303           54073        KEYCOM             TS       RUPTREG4
000046: 04,3304           40101                           CS       FLAGWRD5
000047: 04,3305           74735                           MASK     DSKYFBIT
000048: 04,3306           26101                           ADS      FLAGWRD5
000049:
000050: 04,3307           34355        ACCEPTUP           CAF      CHRPRIO                               #  (NOTE: RUPTREG4 = KEYTEMP1)
000051: 04,3310           05072                           TC       NOVAC
000052: 04,3311     0777                                  EBANK=   DSPCOUNT
000053: 04,3311           02077 60101                     2CADR    CHARIN
000054:
000055: 04,3313           30073                           CA       RUPTREG4
000056: 04,3314           50064                           INDEX    LOCCTR
000057: 04,3315           54154                           TS       MPAC                                  #  LEAVE 5 BIT KEY CDE IN MPAC FOR CHARIN
000058: 04,3316           05270                           TC       RESUME
000059:


000061:                                                                                                  #  UPRUPT PROGRAM
000062:
000063: 04,3317           54016        UPRUPT             TS       BANKRUPT
000064: 04,3320           56002                           XCH      Q
000065: 04,3321           54012                           TS       QRUPT
000066: 04,3322           04400                           TC       LODSAMPT                              #  TIME IS SNATCHED IN RUPT FOR NOUN 65.
000067: 04,3323           34755                           CAF      ZERO
000068: 04,3324           56045                           XCH      INLINK
000069: 04,3325           54073                           TS       KEYTEMP1
000070: 04,3326           34751                           CAF      BIT3                                  #  TURN ON UPACT LIGHT
000071: 04,3327           00006                           EXTEND                                         #  (BIT 3 OF CHANNEL 11)
000072: 04,3330           05011                           WOR      DSALMOUT
000073: 04,3331           34346        UPRPT1             CAF      LOW5                                  #  TEST FOR TRIPLE CHAR REDUNDANCY
000074: 04,3332           70073                           MASK     KEYTEMP1                              #  LOW5 OF WORD
000075: 04,3333           56073                           XCH      KEYTEMP1                              #  LOW5 INTO KEYTEMP1
000076: 04,3334           00006                           EXTEND
000077: 04,3335           74742                           MP       BIT10                                 #  SHIFT RIGHT 5
000078: 04,3336           54734                           TS       KEYTEMP2
000079: 04,3337           74346                           MASK     LOW5                                  #  MID 5
000080: 04,3340           63374                           AD       HI10
000081: 04,3341           03371                           TC       UPTEST
000082: 04,3342           34742                           CAF      BIT10
000083: 04,3343           00006                           EXTEND
000084: 04,3344           70734                           MP       KEYTEMP2                              #  SHIFT RIGHT 5
000085: 04,3345           74346                           MASK     LOW5                                  #  HIGH 5
000086: 04,3346           40000                           COM
000087: 04,3347           03371                           TC       UPTEST
000088:
000089: 04,3350           43377        UPCK               CS       ELRCODE                               #  CODE IS GOOD.  IF CODE = 'ERROR RESET',
000090: 04,3351           60073                           AD       KEYTEMP1                              #  CLEAR UPLOCKFL (SET BIT4 OF FLAGWRD7 = 0)
000091: 04,3352           00006                           EXTEND                                         #  IF CODE DOES NOT = 'ERROR RESET', ACCEPT
000092: 04,3353           13361                           BZF      CLUPLOCK                              #  CODE ONLY IF UPLOCKFL IS CLEAR (=0).
000093:
000094: 04,3354           34750                           CAF      UPLOCBIT                              #  TEST UPLOCKFL FOR 0 OR 1
000095: 04,3355           70103                           MASK     FLAGWRD7
000096: 04,3356           10000                           CCS      A
000097: 04,3357           05270                           TC       RESUME                                #  UPLOCKFL = 1
000098: 04,3360           03307                           TC       ACCEPTUP                              #  UPLOCKFL = 0
000099:
000100: 04,3361           44750        CLUPLOCK           CS       UPLOCBIT                              #  CLEAR UPLOCKFL (I.E., SET BIT 4 OF )
000101: 04,3362           70103                           MASK     FLAGWRD7                              #  FLAGWRD7 = 0)
000102: 04,3363           54103                           TS       FLAGWRD7
000103: 04,3364           03307                           TC       ACCEPTUP
000104:
000105:                                                                                                  #  CODE IS BAD
000106: 04,3365           40103        TMFAIL2            CS       FLAGWRD7                              #  LOCK OUT FURTHER UPLINK ACTIVITY
000107: 04,3366           74750                           MASK     UPLOCBIT                              #  (BY SETTING UPLOCKFL = 1) UNTIL
000108: 04,3367           26103                           ADS      FLAGWRD7                              #  'ERROR RESET' IS SENT VIA UPLINK.
000109: 04,3370           05270                           TC       RESUME
000110: 04,3371           60073        UPTEST             AD       KEYTEMP1


000112: 04,3372           10000                           CCS      A
000113: 04,3373           03365                           TC       TMFAIL2
000114: 04,3374           77740        HI10               OCT      77740
000115: 04,3375           03365                           TC       TMFAIL2
000116: 04,3376           00002                           TC       Q
000117:
000118: 04,3377           00022        ELRCODE            OCT      22
000119:
000120:                                                                                                  #  'UPLINK ACTIVITY LIGHT' IS TURNED OFF BY .....
000121:                                                                                                  #        1.      VBRELDSP
000122:                                                                                                  #        2.      ERROR RESET
000123:                                                                                                  #        3.      UPDATE PROGRAM (P27) ENTERED BY V70,V71,V72, AND V73.
000124:                                                                                                  #                                     -
000125:                                                                                                  #  THE RECEPTION OF A BAD CODE (I.E  CCC FAILURE) LOCKS OUT FURTHER UPLINK ACTIVITY BY SETTING BIT4 OF FLAGWRD7 = 1.
000126:                                                                                                  #  THIS INDICATION WILL BE TRANSFERRED TO THE GROUND BY THE DOWNLINK WHICH DOWNLINKS ALL FLAGWORDS.
000127:                                                                                                  #  WHEN UPLINK ACTIVITY IS LOCKED OUT, IT CAN BE ALLOWED WHEN THE GROUND UPLINKS AND 'ERROR RESET' CODE.
000128:                                                                                                  #  (IT IS RECOMMENDED THAT THE 'ERROR LIGHT RESET' CODE IS PRECEEDED BY 16 BITS THE FIRST OF WHICH IS 1 FOLLOWED
000129:                                                                                                  #  BY 15 ZEROES.  THIS WILL ELIMINATE EXTRANEOUS BITS FROM INLINK WHICH MAY HAVE BEEN LEFT OVER FROM THE ORIGINAL
000130:                                                                                                  #  FAILURE)
000131:
000132:                                                                                                  #  UPLINK ACTIVITY IS ALSO ALLOWED (UNLOCKED) DURING FRESH START WHEN FRESH START SETS BIT4 OF FLAGWRD7 = 0.
000133:
000134: 04,3400           44753                           CS       XDSPBIT
000135:

End of include-file KEYRUPT,_UPRUPT.agc.  Parent file is MAIN.agc


