
Source Code


000002:                                                                                                  ## Copyright:   Public domain.
000003:                                                                                                  ## Filename:    LAMBERT_AIMPOINT_GUIDANCE.agc
000004:                                                                                                  ## Purpose:     Part of the source code for Luminary 1A build 099.
000005:                                                                                                  ##              It is part of the source code for the Lunar Module's (LM)
000006:                                                                                                  ##              Apollo Guidance Computer (AGC), for Apollo 11.
000007:                                                                                                  ## Assembler:   yaYUL
000008:                                                                                                  ## Contact:     Ron Burkey <info@sandroid.org>.
000009:                                                                                                  ## Website:     www.ibiblio.org/apollo.
000010:                                                                                                  ## Pages:       651-653
000011:                                                                                                  ## Mod history: 2009-05-18 RSB  Transcribed from Luminary 099
000012:                                                                                                  ##                              page images.
000013:                                                                                                  ##              2009-06-05 RSB  Corrected 4 typos.
000014:                                                                                                  ##              2009-06-07 RSB  Fixed a typo.
000015:                                                                                                  ##              2016-12-14 RSB  VNP00H -> VNPOOH.
000016:                                                                                                  ##              2016-12-14 RSB  Proofed text comments with octopus/ProoferComments
000017:                                                                                                  ##                              and corrected the errors found.
000018:                                                                                                  ##
000019:                                                                                                  ## This source code has been transcribed or otherwise adapted from
000020:                                                                                                  ## digitized images of a hardcopy from the MIT Museum.  The digitization
000021:                                                                                                  ## was performed by Paul Fjeld, and arranged for by Deborah Douglas of
000022:                                                                                                  ## the Museum.  Many thanks to both.  The images (with suitable reduction
000023:                                                                                                  ## in storage size and consequent reduction in image quality as well) are
000024:                                                                                                  ## available online at www.ibiblio.org/apollo.  If for some reason you
000025:                                                                                                  ## find that the images are illegible, contact me at info@sandroid.org
000026:                                                                                                  ## about getting access to the (much) higher-quality images which Paul
000027:                                                                                                  ## actually created.
000028:                                                                                                  ##
000029:                                                                                                  ## Notations on the hardcopy document read, in part:
000030:                                                                                                  ##
000031:                                                                                                  ##      Assemble revision 001 of AGC program LMY99 by NASA 2021112-61
000032:                                                                                                  ##      16:27 JULY 14, 1969
000033:


000035:
000036:                                                                                                  #  GENERAL LAMBERT AIMPOINT GUIDANCE **
000037:                                                                                                  #  WRITTEN BY RAMA M AIYAWAR
000038:
000039:                                                                                                  #  PROGRAM P-31 DESCRIPTION **
000040:
000041:                                                                                                  #  1.    TO ACCEPT TARGETING PARAMETERS OBTAINED FROM A SOURCE EXTERNAL
000042:                                                                                                  #        TO THE LEM AND COMPUTE THERE FROM THE REQUIRED-VELOCITY AND
000043:                                                                                                  #        OTHER INITIAL CONDITIONS REQUIRED BY LM FOR DESIRED MANEUVER.
000044:                                                                                                  #        THE TARGETING PARAMETERS ARE TIG (TIME OF IGNITION), TARGET
000045:                                                                                                  #        VECTOR (RTARG), AND THE TIME FROM TIG UNTIL THE TARGET IS
000046:                                                                                                  #        REACHED (DELLT4), DESIRED TIME OF FLIGHT FROM RINIT TO RTARG..
000047:
000048:                                                                                                  #  ASSUMPTIONS **
000049:
000050:                                                                                                  #  1.    THE TARGET PARAMETERS MAY HAVE BEEN LOADED PRIOR TO THE
000051:                                                                                                  #        EXECUTION OF THIS PROGRAM.
000052:                                                                                                  #  2.    THIS PROGRAM IS APPLICABLE IN EITHER EARTH OR LUNAR ORBIT.
000053:                                                                                                  #  3.    THIS PROGRAM IS DESIGNED FOR ONE-MAN OPERATION, AND SHOULD
000054:                                                                                                  #        BE SELECTED BY THE ASTRONAUT BY DSKY ENTRY V37 E31.
000055:
000056:                                                                                                  #  SUBROUTINES USED **
000057:                                                                                                  #
000058:                                                                                                  #  MANUPARM, TTG/N35, R02BOTH, MIDGIM, DISPMGA, FLAGDOWN, BANKCALL,
000059:                                                                                                  #  GOTOPOOH, ENDOFJOB, PHASCHNG, GOFLASHR, GOFLASH.
000060:
000061:                                                                                                  #  MANUPARM      CALCULATES APOGEE, PERIGEE ALTITUDES AND DELTAV DESIRED
000062:                                                                                                  #                FOR THE MANEUVER.
000063:
000064:                                                                                                  #  TTG/N35       CLOCKTASK - UPDATES CLOCK.
000065:
000066:                                                                                                  #  MIDGIM        CALCULATES MIDDLE GIMBAL ANGLE FOR DISPLAY.
000067:
000068:                                                                                                  #  R02BOTH       IMU - STATUS CHECK ROUTINE.
000069:
000070:                                                                                                  #  DISPLAYS USED IN P-31LM **
000071:
000072:                                                                                                  #  V06N33        DISPLAY SOTRED TIG (IN HRS. MINS. SECS)
000073:                                                                                                  #  V06N42        DISPLAY APOGEE, PERIGEE, DELTAV.
000074:                                                                                                  #  V16N35        DISPLAY TIME FROM TIG.
000075:                                                                                                  #  V06N45        TIME FROM IGNITION AND MIDDLE GIMBAL ANGLE.
000076:
000077:                                                                                                  #  ERASABLE INITIALIZATION REQUIRED **
000078:
000079:                                                                                                  #  TIG           TIME OF IGNITION                DP      (B+28) CS.
000080:
000081:                                                                                                  #  DELLT4        DESIRED TIME OF FLIGHT          DP      (B+28) CS
000082:                                                                                                  #                FROM RINIT TO RTARG.
000083:
000084:                                                                                                  #  RTARG         RADIUS VECTOR OF TARGET POSITION VECTOR
000085:                                                                                                  #                RADIUS VECTOR SCALED TO (B+29)METERS IF EARTH ORBIT


000087:                                                                                                  #                RADIUS VECTOR SCALED TO (B+27)METERS IF MOON ORBIT
000088:
000089:                                                                                                  #  OUTPUT **
000090:
000091:                                                                                                  #  HAPO          APOGEE ALTITUDE
000092:                                                                                                  #  HPER          PERIGEE ALTITUDE
000093:                                                                                                  #  VGDISP        MAG. OF DELTAV FOR DISPLAY, SCALING     B+7 M/CS EARTH
000094:                                                                                                  #                MAG. OF DELTAV FOR DISPLAY, SCALING     B+5 M/CS MOON
000095:                                                                                                  #  MIDGIM        MIDDLE GIMBAL ANGLE
000096:                                                                                                  #  XDELVFLG      RESETS XDELVFLG FOR LAMBERT VG COMPUTATIONS
000097:
000098:                                                                                                  #  ALARMS OR ABORTS      NONE **
000099:
000100:                                                                                                  #  RESTARTS ARE VIA GROUP 4 **
000101:
000102: 35,2000                                           SETLOC   GLM
000103: 35,2000                                           BANK
000104:
000105: 35,2450  E7,1470                                  EBANK=   SUBEXIT
000106:
000107: 35,2450                                           COUNT*   $$/P31
000108: 35,2450           02361        P31                TC       P20FLGON
000109: 35,2451           32025                           CAF      V06N33                                #  TIG
000110: 35,2452           03712                           TC       VNPOOH
000111: 35,2453           06037                           TC       INTPRET
000112: 35,2454           71214                           CLEAR    DLOAD
000113: 35,2455           00670                                    UPDATFLG
000114: 35,2456           03442                                    TIG
000115: 35,2457           34041                           STCALL   TDEC1                                 #  INTEGRATE STATE VECTORS TO TIG
000116: 35,2460           27057                                    LEMPREC
000117: 35,2461           40375                           VLOAD    SETPD
000118: 35,2462           00001                                    RATT
000119: 35,2463           00001                                    0D
000120: 35,2464           03642                           STORE    RTIG
000121: 35,2465           26323                           STOVL    RINIT
000122: 35,2466           00007                                    VATT
000123: 35,2467           03650                           STORE    VTIG
000124: 35,2470           16331                           STODL    VINIT
000125: 35,2471           32420                                    P30ZERO
000126: 35,2472           65206                           PUSH     PDDL                                  #  E4 AND NUMIT = 0
000127: 35,2473           03452                                    DELLT4
000128: 35,2474           66015                           DAD      SXA,1
000129: 35,2475           03442                                    TIG
000130: 35,2476           02776                                    RTX1
000131: 35,2477           03631                           STORE    TPASS4
000132: 35,2500           45134                           SXA,2    CALL
000133: 35,2501           02777                                    RTX2
000134: 35,2502           22000                                    INITVEL
000135: 35,2503           41575                           VLOAD    PUSH


000137: 35,2504           02366                                    DELVEET3
000138: 35,2505           03656                           STORE    DELVSIN
000139: 35,2506           43046                           ABVAL    CLEAR
000140: 35,2507           01267                                    XDELVFLG
000141: 35,2510           37664                           STCALL   VGDISP
000142: 35,2511           15733                                    GET.LVC
000143: 35,2512           63375                           VLOAD    PDVL
000144: 35,2513           03642                                    RTIG
000145: 35,2514           02337                                    VIPRIME
000146: 35,2515           77624                           CALL
000147: 35,2516           46316                                    PERIAPO1
000148: 35,2517           77624                           CALL
000149: 35,2520           46426                                    SHIFTR1
000150: 35,2521           77624                           CALL                                           #  LIMIT DISPLAY TO 9999.9 N. MI.
000151: 35,2522           45636                                    MAXCHK
000152: 35,2523           16321                           STODL    HPER
000153: 35,2524           00005                                    4D
000154: 35,2525           77624                           CALL
000155: 35,2526           46426                                    SHIFTR1
000156: 35,2527           77624                           CALL                                           #  LIMIT DISPLAY TO 9999.9 N. MI.
000157: 35,2530           45636                                    MAXCHK
000158: 35,2531           02317                           STORE    HAPO
000159: 35,2532           77776                           EXIT
000160: 35,2533           33727                           CAF      V06N81                                #  DELVLVC
000161: 35,2534           03712                           TC       VNPOOH
000162: 35,2535           32026                           CAF      V06N42                                #  HAPO, HPER, VGDISP
000163: 35,2536           03712                           TC       VNPOOH
000164: 35,2537           06037                           TC       INTPRET
000165: 35,2540           45014        REVN1645           SET      CALL                                  #  TRKMKCNT, TTOGO, +MGA
000166: 35,2541           01071                                    FINALFLG
000167: 35,2542           73606                                    VN1645
000168: 35,2543           77650                           GOTO
000169: 35,2544           72540                                    REVN1645
000170:

End of include-file LAMBERT_AIMPOINT_GUIDANCE.agc.  Parent file is MAIN.agc


