
Source Code


000002:                                                                                                  #  Copyright:    Public domain.
000003:                                                                                                  #  Filename:     LAMBERT_AIMPOINT_GUIDANCE.agc
000004:                                                                                                  #  Purpose:      Part of the source code for Luminary 1A build 099.
000005:                                                                                                  #                It is part of the source code for the Lunar Module's (LM)
000006:                                                                                                  #                Apollo Guidance Computer (AGC), for Apollo 11.
000007:                                                                                                  #  Assembler:    yaYUL
000008:                                                                                                  #  Contact:      Ron Burkey <info@sandroid.org>.
000009:                                                                                                  #  Website:      www.ibiblio.org/apollo.
000010:                                                                                                  #  Pages:        651-653
000011:                                                                                                  #  Mod history:  2009-05-18 RSB  Transcribed from Luminary 099
000012:                                                                                                  #                                page images.
000013:                                                                                                  #                2009-06-05 RSB  Corrected 4 typos.
000014:                                                                                                  #                2009-06-07 RSB  Fixed a typo.
000015:
000016:                                                                                                  #  This source code has been transcribed or otherwise adapted from
000017:                                                                                                  #  digitized images of a hardcopy from the MIT Museum.  The digitization
000018:                                                                                                  #  was performed by Paul Fjeld, and arranged for by Deborah Douglas of
000019:                                                                                                  #  the Museum.  Many thanks to both.  The images (with suitable reduction
000020:                                                                                                  #  in storage size and consequent reduction in image quality as well) are
000021:                                                                                                  #  available online at www.ibiblio.org/apollo.  If for some reason you
000022:                                                                                                  #  find that the images are illegible, contact me at info@sandroid.org
000023:                                                                                                  #  about getting access to the (much) higher-quality images which Paul
000024:                                                                                                  #  actually created.
000025:
000026:                                                                                                  #  Notations on the hardcopy document read, in part:
000027:
000028:                                                                                                  #        Assemble revision 001 of AGC program LMY99 by NASA 2021112-61
000029:                                                                                                  #        16:27 JULY 14, 1969
000030:
000031:                                                                                                  #  Page 651
000032:
000033:                                                                                                  #  GENERAL LAMBERT AIMPOINT GUIDANCE **
000034:                                                                                                  #  WRITTEN BY RAMA M AIYAWAR
000035:
000036:                                                                                                  #  PROGRAM P-31 DESCRIPTION **
000037:
000038:                                                                                                  #  1.    TO ACCEPT TARGETING PARAMETERS OBTAINED FROM A SOURCE EXTERNAL
000039:                                                                                                  #        TO THE LEM AND COMPUTE THERE FROM THE REQUIRED-VELOCITY AND
000040:                                                                                                  #        OTHER INITIAL CONDITIONS REQUIRED BY LM FOR DESIRED MANEUVER.
000041:                                                                                                  #        THE TARGETING PARAMETERS ARE TIG (TIME OF IGNITION), TARGET
000042:                                                                                                  #        VECTOR (RTARG), AND THE TIME FROM TIG UNTIL THE TARGET IS
000043:                                                                                                  #        REACHED (DELLT4), DESIRED TIME OF FLIGHT FROM RINIT TO RTARG.
000044:
000045:                                                                                                  #  ASSUMPTIONS **
000046:
000047:                                                                                                  #  1.    THE TARGET PARAMETERS MAY HAVE BEEN LOADED PRIOR TO THE
000048:                                                                                                  #        EXECUTION OF THIS PROGRAM.
000049:                                                                                                  #  2.    THIS PROGRAM IS APPLICABLE IN EITHER EARTH OR LUNAR ORBIT.
000050:                                                                                                  #  3.    THIS PROGRAM IS DESIGNED FOR ONE-MAN OPERATION, AND SHOULD
000051:                                                                                                  #        BE SELECTED BY THE ASTRONAUT BY DSKY ENTRY V37 E31.
000052:
000053:                                                                                                  #  SUBROUTINES USED **
000054:                                                                                                  #
000055:                                                                                                  #  MANUPARM, TTG/N35, R02BOTH, MIDGIM, DISPMGA, FLAGDOWN, BANKCALL,
000056:                                                                                                  #  GOTOPOOH, ENDOFJOB, PHASCHNG, GOFLASHR, GOFLASH.
000057:
000058:                                                                                                  #  MANUPARM      CALCULATES APOGEE, PERIGEE ALTITUDES AND DELTAV DESIRED
000059:                                                                                                  #                FOR THE MANEUVER.
000060:
000061:                                                                                                  #  TTG/N35       CLOCKTASK - UPDATES CLOCK.
000062:
000063:                                                                                                  #  MIDGIM        CALCULATES MIDDLE GIMBAL ANGLE FOR DISPLAY.
000064:
000065:                                                                                                  #  R02BOTH       IMU - STATUS CHECK ROUTINE.
000066:
000067:                                                                                                  #  DISPLAYS USED IN P-31LM **
000068:
000069:                                                                                                  #  V06N33        DISPLAY SOTRED TIG (IN HRS. MINS. SECS.)
000070:                                                                                                  #  V06N42        DISPLAY APOGEE, PERIGEE, DELTAV.
000071:                                                                                                  #  V16N35        DISPLAY TIME FROM TIG.
000072:                                                                                                  #  V06N45        TIME FROM IGNITION AND MIDDLE GIMBAL ANGLE.
000073:
000074:                                                                                                  #  ERASABLE INITIALIZATION REQUIRED **
000075:
000076:                                                                                                  #  TIG           TIME OF IGNITION                DP      (B+28) CS.
000077:
000078:                                                                                                  #  DELLT4        DESIRED TIME OF FLIGHT          DP      (B+28) CS
000079:                                                                                                  #                FROM RINIT TO RTARG.
000080:
000081:                                                                                                  #  RTARG         RADIUS VECTOR OF TARGET POSITION VECTOR
000082:                                                                                                  #                RADIUS VECTOR SCALED TO (B+29)METERS IF EARTH ORBIT
000083:                                                                                                  #  Page 652
000084:                                                                                                  #                RADIUS VECTOR SCALED TO (B+27)METERS IF MOON ORBIT
000085:
000086:                                                                                                  #  OUTPUT **
000087:
000088:                                                                                                  #  HAPO          APOGEE ALTITUDE
000089:                                                                                                  #  HPER          PERIGEE ALTITUDE
000090:                                                                                                  #  VGDISP        MAG. OF DELTAV FOR DISPLAY, SCALING     B+7 M/CS EARTH
000091:                                                                                                  #                MAG. OF DELTAV FOR DISPLAY, SCALING     B+5 M/CS MOON
000092:                                                                                                  #  MIDGIM        MIDDLE GIMBAL ANGLE
000093:                                                                                                  #  XDELVFLG      RESETS XDELVFLG FOR LAMBERT VG COMPUTATIONS
000094:
000095:                                                                                                  #  ALARMS OR ABORTS      NONE **
000096:
000097:                                                                                                  #  RESTARTS ARE VIA GROUP 4 **
000098:
000099: 35,2000                                           SETLOC   GLM
000100: 35,2000                                           BANK
000101:
000102: 35,2450  E7,1470                                  EBANK=   SUBEXIT
000103:
000104: 35,2450                                           COUNT*   $$/P31
000105: 35,2450           02361        P31                TC       P20FLGON
000106: 35,2451           32025                           CAF      V06N33                                #  T16
000107: 35,2452           03712                           TC       VNP00H
000108: 35,2453           06037                           TC       INTPRET
000109: 35,2454           71214                           CLEAR    DLOAD
000110: 35,2455           00670                                    UPDATFLG
000111: 35,2456           03442                                    TIG
000112: 35,2457           34041                           STCALL   TDEC1                                 #  INTEGRATE STATE VECTORS TO TIG
000113: 35,2460           27057                                    LEMPREC
000114: 35,2461           40375                           VLOAD    SETPD
000115: 35,2462           00001                                    RATT
000116: 35,2463           00001                                    0D
000117: 35,2464           03642                           STORE    RTIG
000118: 35,2465           26323                           STOVL    RINIT
000119: 35,2466           00007                                    VATT
000120: 35,2467           03650                           STORE    VTIG
000121: 35,2470           16331                           STODL    VINIT
000122: 35,2471           32420                                    P30ZERO
000123: 35,2472           65206                           PUSH     PDDL                                  #  E4 AND NUMIT = 0
000124: 35,2473           03452                                    DELLT4
000125: 35,2474           66015                           DAD      SXA,1
000126: 35,2475           03442                                    TIG
000127: 35,2476           02776                                    RTX1
000128: 35,2477           03631                           STORE    TPASS4
000129: 35,2500           45134                           SXA,2    CALL
000130: 35,2501           02777                                    RTX2
000131: 35,2502           22000                                    INITVEL
000132: 35,2503           41575                           VLOAD    PUSH
000133:                                                                                                  #  Page 653
000134: 35,2504           02366                                    DELVEET3
000135: 35,2505           03656                           STORE    DELVSIN
000136: 35,2506           43046                           ABVAL    CLEAR
000137: 35,2507           01267                                    XDELVFLG
000138: 35,2510           37664                           STCALL   VGDISP
000139: 35,2511           15733                                    GET.LVC
000140: 35,2512           63375                           VLOAD    PDVL
000141: 35,2513           03642                                    RTIG
000142: 35,2514           02337                                    VIPRIME
000143: 35,2515           77624                           CALL
000144: 35,2516           46316                                    PERIAPO1
000145: 35,2517           77624                           CALL
000146: 35,2520           46426                                    SHIFTR1
000147: 35,2521           77624                           CALL                                           #  LIMIT DISPLAY TO 9999.9 N. MI.
000148: 35,2522           45636                                    MAXCHK
000149: 35,2523           16321                           STODL    HPER
000150: 35,2524           00005                                    4D
000151: 35,2525           77624                           CALL
000152: 35,2526           46426                                    SHIFTR1
000153: 35,2527           77624                           CALL                                           #  LIMIT DISPLAY TO 9999.9 N. MI.
000154: 35,2530           45636                                    MAXCHK
000155: 35,2531           02317                           STORE    HAPO
000156: 35,2532           77776                           EXIT
000157: 35,2533           33727                           CAF      V06N81                                #  DELVLVC
000158: 35,2534           03712                           TC       VNP00H
000159: 35,2535           32026                           CAF      V06N42                                #  HAPO, HPER, VGDISP
000160: 35,2536           03712                           TC       VNP00H
000161: 35,2537           06037                           TC       INTPRET
000162: 35,2540           45014        REVN1645           SET      CALL                                  #  TRKMKCNT, TTOGO, +MGA
000163: 35,2541           01071                                    FINALFLG
000164: 35,2542           73606                                    VN1645
000165: 35,2543           77650                           GOTO
000166: 35,2544           72540                                    REVN1645
000167:
000168:
000169:                                                                                                  #  *** END OF LEMP30S .103 ***
000170:

End of include-file LAMBERT_AIMPOINT_GUIDANCE.agc.  Parent file is MAIN.agc


