
Source Code
000001:                                                                                                 #  Copyright:     Public domain.
000002:                                                                                                 #  Filename:      LATITUDE_LONGITUDE_SUBROUTINES.agc
000003:                                                                                                 #  Purpose:       Part of the source code for Luminary 1A build 099.
000004:                                                                                                 #                 It is part of the source code for the Lunar Module's (LM)
000005:                                                                                                 #                 Apollo Guidance Computer (AGC), for Apollo 11.
000006:
000007:                                                                                                 #  Assembler:     yaYUL
000008:                                                                                                 #  Contact:       Jim Lawton <jim.lawton@gmail.com>
000009:                                                                                                 #  Website:       www.ibiblio.org/apollo.
000010:                                                                                                 #  Pages: 1133-1139
000011:                                                                                                 #  Mod history:   2009-05-28      JVL     Updated from page images.
000012:
000013:                                                                                                 #  This source code has been transcribed or otherwise adapted from digitized
000014:                                                                                                 #  images of a hardcopy from the MIT Museum.  The digitization was performed
000015:                                                                                                 #  by Paul Fjeld, and arranged for by Deborah Douglas of the Museum.  Many
000016:                                                                                                 #  thanks to both.  The images (with suitable reduction in storage size and
000017:                                                                                                 #  consequent reduction in image quality as well) are available online at
000018:                                                                                                 #  www.ibiblio.org/apollo.  If for some reason you find that the images are
000019:                                                                                                 #  illegible, contact me at info@sandroid.org about getting access to the
000020:                                                                                                 #  (much) higher-quality images which Paul actually created.
000021:
000022:                                                                                                 #  Notations on the hardcopy document read, in part:
000023:
000024:                                                                                                 #     Assemble revision 001 of AGC program LMY99 by NASA 2021112-061
000025:                                                                                                 #     16:27 JULY 14, 1969
000026:
000027:                                                                                                 #  Page 1133
000028:                                                                                                 #  SUBROUTINE TO CONVERT RAD VECTOR AT GIVEN TIME TO LAT,LONG AND ALT
000029:
000030:                                                                                                 #  CALLING SEQUENCE
000031:                                                                                                 #         L-1     CALL
000032:                                                                                                 #         L               LAT-LONG
000033:
000034:                                                                                                 #  SUBROUTINES USED
000035:                                                                                                 #         R-TO-RP, ARCTAN, SFTGAMMA, SETRE
000036:
000037:                                                                                                 #  ERASABLE INIT. REQ.
000038:                                                                                                 #         AXO, -AYO, AZO, TEPHEM (SET AT LAUNCH TIME)
000039:                                                                                                 #         ALPHAV = POSITION VECTOR METERS B-29
000040:                                                                                                 #         MPAC -- TIME (CSECS B-28)
000041:                                                                                                 #         ERADFLAG =1, TO COMPUTE EARTH RADIUS, =0 FOR FIXED EARTH RADIUS
000042:                                                                                                 #         LUNAFLAG=0 FOR EARTH, 1 FOR MOON
000043:
000044:                                                                                                 #  OUTPUT
000045:                                                                                                 #         LATITUDE IN LAT         (REVS. B-0)
000046:                                                                                                 #         LONGITUDE IN LONG       (REVS. B-0)
000047:                                                                                                 #         ALTITUDE IN ALT         METERS B-29
000048:
000049: 30,3775                                          BANK     30
000050: 13,2000                                          SETLOC   LATLONG
000051: 13,2000                                          BANK
000052:
000053: 13,2351                                          COUNT*   $$/LT-LG
000054: 13,2351  E4,1431                                 EBANK=   ALPHAV
000055: 13,2351           40220        LAT-LONG          STQ      SETPD
000056: 13,2352           03674                                   INCORPEX
000057: 13,2353           00001                                   0D
000058: 13,2354           24007                          STOVL    6D                                    #  SAVE TIME IN 6-7D FOR R-TO-RP
000059: 13,2355           02032                                   ALPHAV
000060: 13,2356           51406                          PUSH     ABVAL                                 #  0-5D= R FOR R-TO-RP
000061: 13,2357           16070                          STODL    ALPHAM                                #  ABS. VALUE OF R FOR ALT FORMULA BELOW
000062: 13,2360           24007                                   ZEROVEC                               #  SET MPAC=0 FOR EARTH, NON-ZERO FOR MOON
000063: 13,2361           71414                          BOFF     COS                                   #  USE COS(0) TO GET NON-ZERO IN MPAC
000064: 13,2362           01743                                   LUNAFLAG                              #  0=EARTH, 1=MOON
000065: 13,2363           26364                                   CALLRTRP
000066: 13,2364           77624        CALLRTRP          CALL
000067: 13,2365           51670                                   R-TO-RP                               #  RP VECTOR CONVERTED FROM R B-29
000068: 13,2366           77656                          UNIT                                           #  UNIT RP B-1
000069: 13,2367           36032                          STCALL   ALPHAV                                #  U2= 1/2 SINL FOR SETRE SUBR BELOW
000070: 13,2370           26550                                   SETGAMMA                              #         SET GAMMA=B2/A2 FOR EARTH, =1 FOR MOON
000071: 13,2371           77624                          CALL                                           #         SCALED B-1
000072: 13,2372           26560                                   SETRE                                 #  CALC RE METERS B-29
000073: 13,2373           63545                          DLOAD    DSQ
000074: 13,2374           02032                                   ALPHAV
000075: 13,2375           63525                          PDDL     DSQ
000076: 13,2376           02034                                   ALPHAV     +2
000077: 13,2377           75415                          DAD      SQRT
000078:                                                                                                 #  Page 1134
000079: 13,2400           76405                          DMP      SL1R
000080: 13,2401           00011                                   GAMRP
000081: 13,2402           14021                          STODL    COSTH                                 #  COS(LAT) B-1
000082: 13,2403           02036                                   ALPHAV     +4
000083: 13,2404           34023                          STCALL   SINTH                                 #  SIN(LAT) B-1
000084: 13,2405           26510                                   ARCTAN
000085: 13,2406           15121                          STODL    LAT                                   #  LAT B0
000086: 13,2407           02032                                   ALPHAV
000087: 13,2410           14021                          STODL    COSTH                                 #  COS(LONG) B-1
000088: 13,2411           02034                                   ALPHAV     +2
000089: 13,2412           34023                          STCALL   SINTH                                 #  SIN(LONG) B-1
000090: 13,2413           26510                                   ARCTAN
000091: 13,2414           15123                          STODL    LONG                                  #  LONG. REVS B-0 IN RANGE -1/2 TO 1/2
000092: 13,2415           02070                                   ALPHAM
000093: 13,2416           77625                          DSU                                            #  ALT= R-RE METERS B-29
000094: 13,2417           03673                                   ERADM
000095: 13,2420           35125                          STCALL   ALT                                   #  EXIT WITH ALT METERS B-29
000096: 13,2421           03674                                   INCORPEX
000097:                                                                                                 #  Page 1135
000098:                                                                                                 #  SUBROUTINE TO CONVERT LAT,LONG.ALT AT GIVEN TIME TO RADIUS VECTOR
000099:
000100:                                                                                                 #  CALLING SEQUENCE
000101:                                                                                                 #         L-1     CALL
000102:                                                                                                 #         L               LALOTORV
000103:
000104:                                                                                                 #  SUBROUTINES USED
000105:                                                                                                 #         SETGAMMA, SETRE, RP-TO-R
000106:
000107:                                                                                                 #  ERASABLE INIT. REQ.
000108:                                                                                                 #         AXO, AYO, AZO, TEPHEM SET AT LAUNCH TIME
000109:                                                                                                 #         LAT -- LATITUDE         (REVS B0)
000110:                                                                                                 #         LONG -- LONGITUDE       (REVS B0)
000111:                                                                                                 #         ALT -- ALTITUDE         (METERS) B-29
000112:                                                                                                 #         MPAC -- TIME            (CSECS B-28)
000113:                                                                                                 #         ERADFLAG =1 TO COMPUTE EARTH RADIUS, =0 FOR FIXED EARTH RADIUS
000114:                                                                                                 #         LUNAFLAG=0 FOR EARTH, 1 FOR MOON
000115:
000116:                                                                                                 #  OUTPUT
000117:                                                                                                 #         R-VECTOR IN ALPHAV      (METERS B-29)
000118:
000119: 13,2422           40220        LALOTORV          STQ      SETPD                                 #  LAT,LONG,ALT TO R VECTOR
000120: 13,2423           03674                                   INCORPEX
000121: 13,2424           00001                                   0D
000122: 13,2425           34007                          STCALL   6D                                    #  6-7D= TIME FOR RP-TO-R
000123: 13,2426           26550                                   SETGAMMA                              #  GAMMA=B2/A2 FOR EARTH, 1 FOR MOON B-1
000124: 13,2427           73545                          DLOAD    SIN                                   #                 COS(LONG)COS(LAT) IN MPAC
000125: 13,2430           01121                                   LAT                                   #      UNIT RP =  SIN(LONG)COS(LAT)    2-3D
000126: 13,2431           65275                          DMPR     PDDL                                  #  PD 2           GAMMA*SIN(LAT)       0-1D
000127: 13,2432           00011                                   GAMRP
000128: 13,2433           01121                                   LAT                                   #          0-1D = GAMMA*SIN(LAT) B-2
000129: 13,2434           65346                          COS      PDDL                                  #  PD4     2-3D = COS(LAT) B-1 TEMPORARILY
000130: 13,2435           01123                                   LONG
000131: 13,2436           57356                          SIN      DMPR                                  #  PD 2
000132: 13,2437           71525                          PDDL     COS                                   #  PD 4    2-3D = SIN(LONG)COS(LAT) B-2
000133: 13,2440           01121                                   LAT
000134: 13,2441           71525                          PDDL     COS                                   #  PD 6    4-5D = COS(LAT) B-1 TEMPORARILY
000135: 13,2442           01123                                   LONG
000136: 13,2443           55475                          DMPR     VDEF                                  #  PD 4    MPAC = COS(LONG)COS(LAT) B-2
000137: 13,2444           41456                          UNIT     PUSH                                  #  0-5D= UNIT RP FOR RP-TO-R SUBR.
000138: 13,2445           36032                          STCALL   ALPHAV                                #  ALPHAV +4= SINL FOR SETRE SUBR.
000139: 13,2446           26560                                   SETRE                                 #  RE METERS B-29
000140: 13,2447           43145                          DLOAD    BOFF                                  #  SET MPAC=0 FOR EARTH, NON-ZERO FOR MOON
000141: 13,2450           24007                                   ZEROVEC
000142: 13,2451           01743                                   LUNAFLAG
000143: 13,2452           26454                                   CALLRPRT
000144: 13,2453           77746                          COS                                            #  USE COS(0) TO GET NON-ZERO IN MPAC
000145: 13,2454           77624        CALLRPRT          CALL
000146: 13,2455           55716                                   RP-TO-R                               #  EXIT WITH UNIT R VECTOR IN MPAC
000147: 13,2456           16032                          STODL    ALPHAV
000148: 13,2457           03673                                   ERADM
000149:                                                                                                 #  Page 1136
000150: 13,2460           74215                          DAD      VXSC                                  #  (RE + ALT)(UNIT R) METERS B-30
000151: 13,2461           01125                                   ALT
000152: 13,2462           02032                                   ALPHAV
000153: 13,2463           77772                          VSL1                                           #  R METERS B-29
000154: 13,2464           36032                          STCALL   ALPHAV                                #  EXIT WITH R IN METERS B-29
000155: 13,2465           03674                                   INCORPEX
000156:
000157:                                                                                                 #  SUBROUTINE TO COMPUTE EARTH RADIUS
000158:
000159:                                                                                                 #  INPUT
000160:                                                                                                 #         1/2 SIN LAT IN ALPHAV +4
000161:
000162:                                                                                                 #  OUTPUT
000163:                                                                                                 #         EARTH RADIUS IN ERADM AND MPAC (METERS B-29)
000164:
000165: 13,2466           63545        GETERAD           DLOAD    DSQ
000166: 13,2467           02036                                   ALPHAV     +4                         #  SIN**2(L)
000167: 13,2470           44352                          SL1      BDSU
000168: 13,2471           24005                                   DP1/2                                 #  COS**2(L)
000169: 13,2472           44275                          DMPR     BDSU
000170: 13,2473           26507                                   EE
000171: 13,2474           24005                                   DP1/2
000172: 13,2475           75465                          BDDV     SQRT
000173: 13,2476           26503                                   B2XSC
000174: 13,2477           77622                          SR4R
000175: 13,2500           03673                          STORE    ERADM
000176: 13,2501           77616                          RVQ
000177:
000178:                                                                                                 #  THE FOLLOWING CONSTANTS WERE COMPUTED WITH A=6378166, B=6356784 METERS
000179:                                                                                                 #  B2XSC = B**2 SCALED B-51
000180:                                                                                                 #  B2/A2 = B**2/A**2 SCALED B-1
000181:                                                                                                 #  EE = (1-B**2/A**2) SCALED B-0
000182:
000183: 13,2502           00446 00305  B2XSC             2DEC     .0179450689                            #  B**2 SCALED B-51
000184: 13,2504  12,2004               DP1/2             =        XUNIT
000185: 13,2504           17711 05254  B2/A2             2DEC     .9933064884 B-1                        #  GAMMA= B**2/A**2 B-1
000186: 13,2506           00155 25250  EE                2DEC     6.6935116  E-3                        #  (1-B**2/A**2) B-0
000187:
000188:                                                                                                 #  Page 1137
000189:                                                                                                 #  ARCTAN SUBROUTINE
000190:
000191:                                                                                                 #  CALLING SEQUENCE
000192:                                                                                                 #         SIN THETA IN SINTH B-1
000193:                                                                                                 #         COS THETA IN COSTH B-1
000194:                                                                                                 #         CALL ARCTAN
000195:
000196:                                                                                                 #  OUTPUT
000197:                                                                                                 #         ARCTAN THETA IN MPAC AND THETA B-0 IN RANGE -1/2 TO +1/2
000198:
000199: 13,2510           77600        ARCTAN            BOV
000200: 13,2511           26512                                   CLROVFLW
000201: 13,2512           63545        CLROVFLW          DLOAD    DSQ
000202: 13,2513           00023                                   SINTH
000203: 13,2514           63525                          PDDL     DSQ
000204: 13,2515           00021                                   COSTH
000205: 13,2516           77615                          DAD
000206: 13,2517           75454                          BZE      SQRT
000207: 13,2520           26536                                   ARCTANXX                              #  ATAN=0/0  SET THETA=0
000208: 13,2521           40065                          BDDV     BOV
000209: 13,2522           00023                                   SINTH
000210: 13,2523           26543                                   ATAN=90
000211: 13,2524           67542                          SR1      ASIN
000212: 13,2525           00025                          STORE    THETA
000213: 13,2526           50125                          PDDL     BMN
000214: 13,2527           00021                                   COSTH
000215: 13,2530           26532                                   NEGCOS
000216: 13,2531           43545                          DLOAD    RVQ
000217: 13,2532           57545        NEGCOS            DLOAD    DCOMP
000218: 13,2533           43244                          BPL      DAD
000219: 13,2534           26540                                   NEGOUT
000220: 13,2535           24005                                   DP1/2
000221: 13,2536           00025        ARCTANXX          STORE    THETA
000222: 13,2537           77616                          RVQ
000223:
000224: 13,2540           52025        NEGOUT            DSU      GOTO
000225: 13,2541           24005                                   DP1/2
000226: 13,2542           26536                                   ARCTANXX
000227: 13,2543           75345        ATAN=90           DLOAD    SIGN
000228: 13,2544           11037                                   LODP1/4
000229: 13,2545           00023                                   SINTH
000230: 13,2546           00025                          STORE    THETA
000231: 13,2547           77616                          RVQ
000232:
000233: 13,2550  12,2006               2DZERO            =        DPZERO
000234:
000235:                                                                                                 #  Page 1138
000236:                                                                                                 #  ***** SETGAMMA SUBROUTINE *****
000237:                                                                                                 #  SUBROUTINE TO SET GAMMA FOR THE LAT-LONG AND LALOTORV SUBROUTINES
000238:
000239:                                                                                                 #  GAMMA = B**2/A**2 FOR EARTH (B-1)
000240:                                                                                                 #  GAMMA = 1 FOR MOON (B-1)
000241:
000242:                                                                                                 #  CALLING SEQUENCE
000243:                                                                                                 #         L       CALL
000244:                                                                                                 #         L+1             SETGAMMA
000245:
000246:                                                                                                 #  INPUT
000247:                                                                                                 #         LUNAFLAG=0 FOR EARTH, =1 FOR MOON
000248:
000249:                                                                                                 #  OUTPUT
000250:                                                                                                 #         GAMMA IN GAMRP (B-1)
000251:
000252: 13,2550           43145        SETGAMMA          DLOAD    BOFF                                  #  BRANCH FOR EARTH
000253: 13,2551           26505                                   B2/A2                                 #  EARTH GAMMA
000254: 13,2552           01743                                   LUNAFLAG
000255: 13,2553           26556                                   SETGMEX
000256: 13,2554           77735                          SLOAD
000257: 13,2555           24005                                   1B1                                   #  MOON GAMMA
000258: 13,2556           00011        SETGMEX           STORE    GAMRP
000259: 13,2557           77616                          RVQ
000260: 13,2560                        GAMRP             =        8D
000261:
000262:                                                                                                 #  Page 1139
000263:                                                                                                 #  ***** SETRE SUBROUTINE *****
000264:                                                                                                 #  SUBROUTINE TO SET RE (EARTH OR MOON RADIUS)
000265:
000266:                                                                                                 #         RE = RM FOR MOON
000267:                                                                                                 #         RE = RREF FOR FIXED EARTH RADIUS OR COMPUTED RF FOR FISCHER ELLIPSOID
000268:
000269:                                                                                                 #  CALLING SEQUENCE
000270:                                                                                                 #         L       CALL
000271:                                                                                                 #         L+1             SETRE
000272:
000273:                                                                                                 #  SUBROUTINES USED
000274:                                                                                                 #         GETERAD
000275:
000276:                                                                                                 #  INPUT
000277:                                                                                                 #         ERADFLAG = 0 FOR FIXED RE, 1 FOR COMPUTED RE
000278:                                                                                                 #         ALPHAV +4 = 1/2 SINL IF GETERAD IS CALLED
000279:                                                                                                 #         LUNAFLAG = 0 FOR EARTH, =1 FOR MOON
000280:
000281:                                                                                                 #  OUTPUT
000282:                                                                                                 #         ERADM = 504RM FOR MOON (METERS B-29)
000283:                                                                                                 #         ERADM = ERAD OR COMPUTED RE FOR EARTH (METERS B-29)
000284:
000285: 13,2560           71220        SETRE             STQ      DLOAD
000286: 13,2561           00051                                   SETREX
000287: 13,2562           10003                                   504RM
000288: 13,2563           71214                          BON      DLOAD                                 #  BRANCH FOR MOON
000289: 13,2564           01703                                   LUNAFLAG
000290: 13,2565           26575                                   TSTRLSRM
000291: 13,2566           10001                                   ERAD
000292: 13,2567           45014                          BOFF     CALL                                  #  ERADFLAG=0 FOR FIXED RE, 1 FOR COMPUTED
000293: 13,2570           00742                                   ERADFLAG
000294: 13,2571           26573                                   SETRXX
000295: 13,2572           26466                                   GETERAD
000296: 13,2573           37673        SETRXX            STCALL   ERADM                                 #  EXIT WITH RE OR RM METERS B-29
000297: 13,2574           00051                                   SETREX
000298: 13,2575           77214        TSTRLSRM          BON      VLOAD                                 #  ERADFLAG=0, SET R0=RLS
000299: 13,2576           00702                                   ERADFLAG                              #          =1      R0=RM
000300: 13,2577           26573                                   SETRXX
000301: 13,2600           02023                                   RLS
000302: 13,2601           64446                          ABVAL    SR2R                                  #  SCALE FROM B-27 TO B-29
000303: 13,2602           77650                          GOTO
000304: 13,2603           26573                                   SETRXX
000305: 13,2604  0000051               SETREX            =        S2
000306:
000307:

End of include-file LATITUDE_LONGITUDE_SUBROUTINES.agc.  Parent file is MAIN.agc


