
Source Code


000002:                                                                                                  #  Copyright:    Public domain.
000003:                                                                                                  #  Filename:     LEM_GEOMETRY.agc
000004:                                                                                                  #  Purpose:      Part of the source code for Luminary 1A build 099.
000005:                                                                                                  #                It is part of the source code for the Lunar Module's (LM)
000006:                                                                                                  #                Apollo Guidance Computer (AGC), for Apollo 11.
000007:                                                                                                  #  Assembler:    yaYUL
000008:                                                                                                  #  Contact:      Ron Burkey <info@sandroid.org>.
000009:                                                                                                  #  Website:      www.ibiblio.org/apollo.
000010:                                                                                                  #  Pages:        320-325
000011:                                                                                                  #  Mod history:  2009-05-16 RSB  Adapted from the corresponding
000012:                                                                                                  #                                Luminary131 file, using page
000013:                                                                                                  #                                images from Luminary 1A.
000014:
000015:                                                                                                  #  This source code has been transcribed or otherwise adapted from
000016:                                                                                                  #  digitized images of a hardcopy from the MIT Museum.  The digitization
000017:                                                                                                  #  was performed by Paul Fjeld, and arranged for by Deborah Douglas of
000018:                                                                                                  #  the Museum.  Many thanks to both.  The images (with suitable reduction
000019:                                                                                                  #  in storage size and consequent reduction in image quality as well) are
000020:                                                                                                  #  available online at www.ibiblio.org/apollo.  If for some reason you
000021:                                                                                                  #  find that the images are illegible, contact me at info@sandroid.org
000022:                                                                                                  #  about getting access to the (much) higher-quality images which Paul
000023:                                                                                                  #  actually created.
000024:
000025:                                                                                                  #  Notations on the hardcopy document read, in part:
000026:
000027:                                                                                                  #        Assemble revision 001 of AGC program LMY99 by NASA 2021112-61
000028:                                                                                                  #        16:27 JULY 14, 1969
000029:
000030:                                                                                                  #  Page 320
000031: 23,2041                                           BANK     23
000032: 13,2000                                           SETLOC   LEMGEOM
000033: 13,2000                                           BANK
000034:
000035: 13,2070  30,2000                                  SBANK=   LOWSUPER
000036: 13,2070  E5,1642                                  EBANK=   XSM
000037:
000038:                                                                                                  #  THESE TWO ROUTINES COMPUTE THE ACTUAL STATE VECTOR FOR LM,CSM BY ADDING
000039:                                                                                                  #  THE CONIC R,V AND THE DEVIATIONS R,V.  THE STATE VECTORS ARE CONVERTED TO
000040:                                                                                                  #  METERS B-29 AND METERS/CSEC B-7 AND STORED APPROPIRATELY IN RN,VN OR
000041:                                                                                                  #  R-OTHER,V-OTHER FOR DOWNLINK.  THE ROUTINES' NAMES ARE SWITCHED IN THE
000042:                                                                                                  #  OTHER VEHICLE'S COMPUTER.
000043:
000044:                                                                                                  #  INPUT
000045:                                                                                                  #        STATE VECTOR IN TEMPORARY STORAGE AREA
000046:                                                                                                  #        IF STATE VECTOR IS SCALED POS B27 AND VEL B5
000047:                                                                                                  #                SET X2 TO +2
000048:                                                                                                  #        IF STATE VECTOR IS SCALED POS B29 AND VEL B7
000049:                                                                                                  #                SET X2 TO 0
000050:
000051:                                                                                                  #  OUTPUT
000052:                                                                                                  #        R(T) IN RN, V(T) IN VN, T IN PIPTIME
000053:                                                                                                  #  OR
000054:                                                                                                  #        R(T) IN R-OTHER, V(T) IN V-OTHER        (T IS DEFINED BY T-OTHER)
000055:
000056: 13,2070                                           COUNT*   $$/GEOM
000057: 13,2070           43414        SVDWN2             BOF      RVQ                                   #  SW=1=AVETOMID DOING W-MATRIX INTEG.
000058: 13,2071           04756                                    AVEMIDSW
000059: 13,2072           26073                                    +1
000060: 13,2073           53775                           VLOAD    VSL*
000061: 13,2074           01521                                    TDELTAV
000062: 13,2075           57605                                    0          -7,2
000063: 13,2076           53655                           VAD      VSL*
000064: 13,2077           01535                                    RCV
000065: 13,2100           57576                                    0,2
000066: 13,2101           25221                           STOVL    RN
000067: 13,2102           01527                                    TNUV
000068: 13,2103           53257                           VSL*     VAD
000069: 13,2104           57602                                    0          -4,2
000070: 13,2105           01543                                    VCV
000071: 13,2106           77657                           VSL*
000072: 13,2107           57576                                    0,2
000073: 13,2110           15227                           STODL    VN
000074: 13,2111           01517                                    TET
000075: 13,2112           01235                           STORE    PIPTIME
000076: 13,2113           77616                           RVQ
000077:                                                                                                  #  Page 321
000078: 13,2114           53775        SVDWN1             VLOAD    VSL*
000079: 13,2115           01521                                    TDELTAV
000080: 13,2116           57605                                    0          -7,2
000081: 13,2117           53655                           VAD      VSL*
000082: 13,2120           01535                                    RCV
000083: 13,2121           57576                                    0,2
000084: 13,2122           25720                           STOVL    R-OTHER
000085: 13,2123           01527                                    TNUV
000086: 13,2124           53257                           VSL*     VAD
000087: 13,2125           57602                                    0          -4,2
000088: 13,2126           01543                                    VCV
000089: 13,2127           77657                           VSL*
000090: 13,2130           57576                                    0,2
000091: 13,2131           01726                           STORE    V-OTHER
000092: 13,2132           77616                           RVQ
000093:
000094:                                                                                                  #  Page 322
000095:                                                                                                  #  THE FOLLOWING ROUTINE TAKES A HALF UNIT TARGET VECTOR REFERRED TO NAV BASE COORDINATES AND FINDS BOTH
000096:                                                                                                  #  GIMBAL ORIENTATIONS AT WHICH THE RR MIGHT SIGHT THE TARGET.  THE GIMBAL ANGLES CORRESPONDING TO THE PRESENT MODE
000097:                                                                                                  #  ARE LEFT IN MODEA AND THOSE WHICH WOULD BE USED AFTER A REMODE IN MODEB.  THIS ROUTINE ASSUMES MODE 1 IS TRUNNION
000098:                                                                                                  #  ANGLE LESS THAN 90 DEGS IN ABS VALUE WITH ARBITRARY SHAFT, WITH A CORRESPONDING DEFINITION FOR MODE 2.  MODE
000099:                                                                                                  #  SELECTION AND LIMIT CHECKING ARE DONE ELSEWHERE.
000100:
000101:                                                                                                  #  THE MODE 1 CONFIGURATION IS CALCULATED FROM THE VECTOR AND THEN MODE 2 IS FOUND USING THE RELATIONS
000102:
000103:                                                                                                  #        S(2) = 180 + S(1)
000104:                                                                                                  #        T(2) = 180 - T(1)
000105:
000106:                                                                                                  #  THE VECTOR ARRIVES IN MPAC WHERE TRG*SMNG OR *SMNB* WILL HAVE LEFT IT.
000107:
000108: 13,2133           00041        RRANGLES           STORE    32D
000109: 13,2134           57545                           DLOAD    DCOMP                                 #  SINCE WE WILL FIND THE MODE 1 SHAFT
000110: 13,2135           00043                                    34D                                   #  ANGLE LATER, WE CAN FIND THE MODE 1
000111: 13,2136           67401                           SETPD    ASIN                                  #  TRUNNION BY SIMPLY TAKING THE ARCSIN OF
000112: 13,2137           00001                                    0                                     #  THE Y COMPONENT, THE ASIN GIVIN AN
000113: 13,2140           44206                           PUSH     BDSU                                  #  ANSWER WHOSE ABS VAL IS LESS THAN 90 DEG.
000114: 13,2141           24005                                    LODPHALF
000115: 13,2142           14005                           STODL    4                                     #  MODE 2 TRUNNION TO 4.
000116:
000117: 13,2143           24007                                    LO6ZEROS
000118: 13,2144           24043                           STOVL    34D                                   #  UNIT THE PROJECTION OF THE VECTOR
000119: 13,2145           00041                                    32D                                   #        IN THE X-Z PLANE
000120: 13,2146           41056                           UNIT     BOVB                                  #  IF OVERFLOW, TARGET VECTOR IS ALONG Y
000121: 13,2147           52421                                    LUNDESCH                              #  CALL FOR MANEUVER UNLESS ON LUNAR SURF
000122: 13,2150           14041                           STODL    32D                                   #  PROJECTION VECTOR.
000123: 13,2151           00041                                    32D
000124: 13,2152           44142                           SR1      STQ
000125: 13,2153           00051                                    S2
000126: 13,2154           14023                           STODL    SINTH                                 #  USE ARCTRIG SINCE SHAFT COULD BE ARB.
000127: 13,2155           00045                                    36D
000128: 13,2156           77742                           SR1
000129: 13,2157           34021                           STCALL   COSTH
000130: 13,2160           47320                                    ARCTRIG
000131:                                                                                                  #  Page 323
000132: 13,2161           43206                           PUSH     DAD                                   #  MODE 1 SHAFT TO 2.
000133: 13,2162           24005                                    LODPHALF
000134: 13,2163           24007                           STOVL    6
000135: 13,2164           00005                                    4
000136: 13,2165           77634                           RTB                                            #  FIND MODE 2 CDU ANGLES.
000137: 13,2166           21635                                    2V1STO2S
000138: 13,2167           25112                           STOVL    MODEB
000139: 13,2170           00001                                    0
000140: 13,2171           77634                           RTB                                            #  MODE 1 ANGLES TO MODE A.
000141: 13,2172           21635                                    2V1STO2S
000142: 13,2173           01110                           STORE    MODEA
000143: 13,2174           77776                           EXIT
000144:
000145: 13,2175           40110                           CS       RADMODES                              #  SWAP MODEA AND MODEB IF RR IN MODE 2.
000146: 13,2176           74740                           MASK     ANTENBIT
000147: 13,2177           10000                           CCS      A
000148: 13,2200           12204                           TCF      +4
000149:
000150: 13,2201           53110                           DXCH     MODEA
000151: 13,2202           53112                           DXCH     MODEB
000152: 13,2203           53110                           DXCH     MODEA
000153:
000154: 13,2204           06037                           TC       INTPRET
000155: 13,2205           77650                           GOTO
000156: 13,2206           00051                                    S2
000157:                                                                                                  #  Page 324
000158:                                                                                                  #  GIVEN RR TRUNNION AND SHAFT (T,S) IN TANGNB,+1, FIND THE ASSOCIATED
000159:                                                                                                  #  LINE OF SIGHT IN NAV BASE AXES.  THE HALF UNIT VECTOR, .5(SIN(S)COS(T),
000160:                                                                                                  #  -SIN(T),COS(S)COS(T)) IS LEFT IN MPAC AND 32D.
000161:
000162: 23,2000                                           SETLOC   INFLIGHT
000163: 23,2000                                           BANK
000164:
000165: 23,2041                                           COUNT*   $$/GEOM
000166:
000167: 23,2041           47135        RRNB               SLOAD    RTB
000168: 23,2042           03753                                    TANGNB
000169: 23,2043           21576                                    CDULOGIC
000170: 23,2044           41401                           SETPD    PUSH                                  #  TRUNNION ANGLE TO 0
000171: 23,2045           00001                                    0
000172: 23,2046           57556                           SIN      DCOMP
000173: 23,2047           14043                           STODL    34D                                   #  Y COMPONENT
000174:
000175: 23,2050           41546                           COS      PUSH                                  #  .5 COS(T) TO 0
000176: 23,2051           47135                           SLOAD    RTB
000177: 23,2052           03754                                    TANGNB     +1
000178: 23,2053           21576                                    CDULOGIC
000179: 23,2054           71406        RRNB1              PUSH     COS                                   #  SHAFT ANGLE TO 2
000180: 23,2055           72405                           DMP      SL1
000181: 23,2056           00001                                    0
000182: 23,2057           14045                           STODL    36D                                   #  Z COMPONENT
000183:
000184: 23,2060           41356                           SIN      DMP
000185: 23,2061           77752                           SL1
000186: 23,2062           24041                           STOVL    32D
000187: 23,2063           00041                                    32D
000188: 23,2064           77616                           RVQ
000189:
000190:                                                                                                  #  THIS ENTRY TO RRNB REQUIRES THE TRUNNION AND SHAFT ANGLES IN MPAC AND MPAC +1 RESPECTIVELY
000191:
000192: 23,2065           14025        RRNBMPAC           STODL    20D                                   #  SAVE SHAFT CDU IN 21.
000193: 23,2066           00155                                    MPAC                                  #  SET MODE TO DP.  (THE PRECEEDING STORE
000194:                                                                                                  #  MAY BE DP, TP OR VECTOR.)
000195: 23,2067           40234                           RTB      SETPD
000196: 23,2070           21576                                    CDULOGIC
000197: 23,2071           00001                                    0
000198: 23,2072           73406                           PUSH     SIN                                   #  TRUNNION ANGLE TO 0
000199: 23,2073           77676                           DCOMP
000200: 23,2074           14043                           STODL    34D                                   #  Y COMPONENT
000201: 23,2075           41546                           COS      PUSH                                  #  .5COS(T) TO 0
000202: 23,2076           47135                           SLOAD    RTB                                   #  PICK UP CDU'S.
000203: 23,2077           00026                                    21D
000204: 23,2100           21576                                    CDULOGIC
000205: 23,2101           77650                           GOTO
000206: 23,2102           46054                                    RRNB1
000207:                                                                                                  #  Page 325
000208:                                                                                                  #  (This page has nothing on it.)
000209:
000210:

End of include-file LEM_GEOMETRY.agc.  Parent file is MAIN.agc


