
Source Code


000002:                                                                                                  ## Copyright:   Public domain.
000003:                                                                                                  ## Filename:    LUNAR_LANDING_GUIDANCE_EQUATIONS.agc
000004:                                                                                                  ## Purpose:     Part of the source code for Luminary 1A build 099.
000005:                                                                                                  ##              It is part of the source code for the Lunar Module's (LM)
000006:                                                                                                  ##              Apollo Guidance Computer (AGC), for Apollo 11.
000007:                                                                                                  ## Assembler:   yaYUL
000008:                                                                                                  ## Contact:     HARTMUTH GUTSCHE <hgutsche@xplornet.com>.
000009:                                                                                                  ## Website:     www.ibiblio.org/apollo.
000010:                                                                                                  ## Pages:       798-828
000011:                                                                                                  ## Mod history: 2009-05-23 HG   Transcribed from page images.
000012:                                                                                                  ##              2009-06-05 RSB  Fixed a goofy thing that was apparently
000013:                                                                                                  ##                              legal in GAP but not in yaYUL.  Eliminated
000014:                                                                                                  ##                              a couple of lines of code that shouldn't
000015:                                                                                                  ##                              have survived from Luminary 131 to here.
000016:                                                                                                  ##              2009-06-07 RSB  Fixed a typo.
000017:                                                                                                  ##              2011-01-06 JL   Fixed pseudo-labels which were incorrectly real labels.
000018:                                                                                                  ##              2011-05-07 JL   Removed workaround.
000019:                                                                                                  ##              2016-12-13 RSB  GOTOP00H -> GOTOPOOH
000020:                                                                                                  ##              2016-12-16 RSB  Proofed text comments with octopus/ProoferComments
000021:                                                                                                  ##                              and corrected the errors found.
000022:
000023:                                                                                                  ## This source code has been transcribed or otherwise adapted from
000024:                                                                                                  ## digitized images of a hardcopy from the MIT Museum.  The digitization
000025:                                                                                                  ## was performed by Paul Fjeld, and arranged for by Deborah Douglas of
000026:                                                                                                  ## the Museum.  Many thanks to both.  The images (with suitable reduction
000027:                                                                                                  ## in storage size and consequent reduction in image quality as well) are
000028:                                                                                                  ## available online at www.ibiblio.org/apollo.  If for some reason you
000029:                                                                                                  ## find that the images are illegible, contact me at info@sandroid.org
000030:                                                                                                  ## about getting access to the (much) higher-quality images which Paul
000031:                                                                                                  ## actually created.
000032:                                                                                                  ##
000033:                                                                                                  ## Notations on the hardcopy document read, in part:
000034:                                                                                                  ##
000035:                                                                                                  ##      Assemble revision 001 of AGC program LMY99 by NASA 2021112-61
000036:                                                                                                  ##      16:27 JULY 14, 1969
000037:


000039: 31,2420  E7,1621                                  EBANK=   E2DPS
000040: 31,2420                                           COUNT*   $$/F2DPS
000041:
000042:                                                                                                  #  ****************************************************************************************************************
000043:                                                                                                  #  LUNAR LANDING FLIGHT SEQUENCE TABLES
000044:                                                                                                  #  ****************************************************************************************************************
000045:
000046:                                                                                                  #  FLIGHT SEQUENCE TABLES ARE ARRANGED BY FUNCTION.   THEY ARE REFERENCED USING AS AN INDEX THE REGISTER WCHPHASE:
000047:                                                                                                  #        WCHPHASE = -1 ---> IGNALG
000048:                                                                                                  #        WCHPHASE =  0 ---> BRAKQUAD
000049:                                                                                                  #        WCHPHASE =  1 ---> APPRQUAD
000050:                                                                                                  #        WCHPHASE =  2 ---> VERTICAL
000051:
000052:                                                                                                  # ****************************************************************************************************************
000053:
000054:                                                                                                  #  ROUTINES FOR STARTING NEW GUIDANCE PHASES:
000055:
000056: 31,2420           12641                           TCF      TTFINCR                               #  IGNALG
000057: 31,2421           12641        NEWPHASE           TCF      TTFINCR                               #  BRAKQUAD
000058: 31,2422           12630                           TCF      STARTP64                              #  APPRQUAD
000059: 31,2423           12621                           TCF      P65START                              #  VERTICAL
000060:
000061:                                                                                                  #  PRE-GUIDANCE COMPUTATIONS:
000062:
000063: 31,2424           13003                           TCF      CALCRGVG                              #  IGNALG
000064: 31,2425           13013        PREGUIDE           TCF      RGVGCALC                              #  BRAKQUAD
000065: 31,2426           12704                           TCF      REDESIG                               #  APPRQUAD
000066: 31,2427           13013                           TCF      RGVGCALC                              #  VERTICAL
000067:
000068:                                                                                                  #  GUIDANCE EQUATIONS:
000069:
000070: 31,2430           13061                           TCF      TTF/8CL                               #  IGNALG
000071: 31,2431           13061        WHATGUID           TCF      TTF/8CL                               #  BRAKQUAD
000072: 31,2432           13061                           TCF      TTF/8CL                               #  APPRQUAD
000073: 31,2433           13531                           TCF      VERTGUID                              #  VERTICAL
000074:
000075:                                                                                                  #  POST GUIDANCE EQUATION COMPUTATIONS:
000076:
000077: 31,2434           13245                           TCF      CGCALC                                #  IGNALG
000078: 31,2435           13245        AFTRGUID           TCF      CGCALC                                #  BRAKQUAD
000079: 31,2436           13245                           TCF      CGCALC                                #  APPRQUAD
000080: 31,2437           13432                           TCF      STEER?                                #  VERTICAL
000081:


000083:                                                                                                  #  WINDOW VECTOR COMPUTATIONS:
000084:
000085: 31,2440           13331                           TCF      EXGSUB                                #  IGNALG
000086: 31,2441           13352        WHATEXIT           TCF      EXBRAK                                #  BRAKQUAD
000087: 31,2442           13360                           TCF      EXNORM                                #  APPRQUAD
000088:
000089:                                                                                                  #  DISPLAY ROUTINES:
000090:
000091: 31,2443           13473        WHATDISP           TCF      P63DISPS                              #  BRAKQUAD
000092: 31,2444           13477                           TCF      P64DISPS                              #  APPRQUAD
000093: 31,2445           13527                           TCF      VERTDISP                              #  VERTICAL
000094:
000095:                                                                                                  #  ALARM ROUTINE FOR TTF COMPUTATION:
000096:
000097: 31,2446           13733                           TCF      1406P00                               #  IGNALG
000098: 31,2447           13735        WHATALM            TCF      1406ALM                               #  BRAKQUAD
000099: 31,2450           13735                           TCF      1406ALM                               #  APPRQUAD
000100:
000101:                                                                                                  #  INDICES FOR REFERENCING TARGET PARAMETERS:
000102:
000103: 31,2451           00000                           OCT      0                                     #  IGNALG
000104: 31,2452           00000        TARGTDEX           OCT      0                                     #  BRAKQUAD
000105: 31,2453           00034                           OCT      34                                    #  APPRQUAD
000106:
000107:                                                                                                  # ****************************************************************************************************************
000108:                                                                                                  #  ENTRY POINTS:  ?GUIDSUB FOR THE IGNITION ALGORITHM, LUNLAND FOR SERVOUT
000109:                                                                                                  # ****************************************************************************************************************
000110:
000111:                                                                                                  #  IGNITION ALGORITHM ENTRY:  DELIVERS N PASSES OF QUADRATIC GUIDANCE
000112:
000113: 31,2454           77776        ?GUIDSUB           EXIT
000114: 31,2455           34752                           CAF      TWO                                   #  N = 3
000115: 31,2456           55647                           TS       NGUIDSUB
000116: 31,2457           12603                           TCF      GUILDRET   +2
000117:
000118: 31,2460           55647        GUIDSUB            TS       NGUIDSUB                              #  ON SUCEEDING PASSES SKIP TTFINCR
000119: 31,2461           13003                           TCF      CALCRGVG
000120:
000121:                                                                                                  #  NORMAL ENTRY:  CONTROL COMES HERE FROM SERVOUT
000122:
000123: 31,2462           05353        LUNLAND            TC       PHASCHNG
000124: 31,2463           00035                           OCT      00035                                 #  GROUP 5:  RETAIN ONLY PIPA TASK
000125: 31,2464           05353                           TC       PHASCHNG
000126: 31,2465           05023                           OCT      05023                                 #  GROUP 3:  PROTECT GUIDANCE WITH PRIO 21
000127: 31,2466           21000                           OCT      21000                                 #        JUST HIGHER THAN SERVICER'S PRIORITY
000128:


000130:                                                                                                  # ****************************************************************************************************************
000131:                                                                                                  #  GUILDENSTERN:  AUTO-MODES MONITOR (R13)
000132:                                                                                                  # ****************************************************************************************************************
000133:
000134: 31,2467                                           COUNT*   $$/R13
000135:
000136:                                                                                                  #  HERE IS THE PHILOSOPHY OF GUILDENSTERN:       ON EVERY APPEARANCE OR DISAPPEARANCE OF THE MANUAL THROTTLE
000137:                                                                                                  #  DISCRETE TO SELECT P67 OR P66 RESPECTIVELY:   ON EVERY APPEARANCE OF THE ATTITUDE-HOLD DISCRETE TO SELECT P66
000138:                                                                                                  #  UNLESS THE CURRENT PROGRAM IS P67 IN WHICH CASE THERE IS NO CHANGE.
000139:
000140: 31,2467           00006        GUILDEN            EXTEND                                         #  IS UN-AUTO-THROTTLE DISCRETE PRESENT?
000141: 31,2470           00030                           READ     CHAN30
000142: 31,2471           74747                           MASK     BIT5
000143: 31,2472           10000                           CCS      A
000144: 31,2473           12551                           TCF      STARTP67                              #  YES
000145: 31,2474           05321        P67NOW?            TC       CHECKMM                               #  NO:  ARE WE IN P67 NOW?
000146: 31,2475           00103                           DEC      67         B-14
000147: 31,2476           12557                           TCF      STABL?                                #  NO
000148: 31,2477           03740        STARTP66           TC       FASTCHNG                              #  YES
000149: 31,2500           05311                           TC       NEWMODEX
000150: 31,2501           00102        DEC66              DEC      66         B-14
000151: 31,2502           00006                           EXTEND
000152: 31,2503           31474                           DCA      HDOTDISP                              #  SET DESIRED ALTITUDE RATE = CURRENT
000153: 31,2504           53645                           DXCH     VDGVERT                               #        ALTITUDE RATE.
000154: 31,2505           06037        STRTP66A           TC       INTPRET
000155: 31,2506           41535                           SLOAD    PUSH
000156: 31,2507           01457                                    PBIASZ
000157: 31,2510           41535                           SLOAD    PUSH
000158: 31,2511           01455                                    PBIASY
000159: 31,2512           55535                           SLOAD    VDEF
000160: 31,2513           01453                                    PBIASX
000161: 31,2514           43161                           VXSC     SET
000162: 31,2515           25537                                    BIASFACT
000163: 31,2516           00463                                    RODFLAG
000164: 31,2517           26631                           STOVL    VBIAS
000165: 31,2520           01255                                    TEMX
000166: 31,2521           77676                           VCOMP
000167: 31,2522           27764                           STOVL    OLDPIPAX
000168: 31,2523           06522                                    ZEROVECS
000169: 31,2524           17767                           STODL    DELVROD
000170: 31,2525           02540                                    RODSCALE
000171: 31,2526           17757                           STODL    RODSCAL1
000172: 31,2527           01235                                    PIPTIME
000173: 31,2530           03760                           STORE    LASTTPIP
000174: 31,2531           77776                           EXIT
000175: 31,2532           34755                           CAF      ZERO
000176: 31,2533           55620                           TS       FCOLD
000177: 31,2534           55610                           TS       FWEIGHT
000178: 31,2535           55611                           TS       FWEIGHT    +1
000179: 31,2536           55647        VRTSTART           TS       WCHVERT


000181: 31,2537           34752                           CAF      TWO                                   #  WCHPHASE = 2 ---> VERTICAL: P65,P66,P67
000182: 31,2540           55621                           TS       WCHPHOLD
000183: 31,2541           55351                           TS       WCHPHASE
000184: 31,2542           04616                           TC       BANKCALL                              #  TEMPORARY, I HOPE HOPE HOPE
000185: 31,2543           40165                           CADR     STOPRATE                              #  TEMPORARY, I HOPE HOPE HOPE
000186: 31,2544           05516                           TC       DOWNFLAG                              #  PERMIT X-AXIS OVERRIDE
000187: 31,2545           00311                           ADRES    XOVINFLG
000188: 31,2546           05516                           TC       DOWNFLAG
000189: 31,2547           00143                           ADRES    REDFLAG
000190: 31,2550           13531                           TCF      VERTGUID
000191:
000192: 31,2551           05311        STARTP67           TC       NEWMODEX                              #  NO HARM IN "STARTING" P67 OVER AND OVER
000193: 31,2552           00103                           DEC      67         B-14                       #  SO NO NEED FOR A FASTCHNG AND NO NEED
000194: 31,2553           34755                           CAF      ZERO                                  #  TO SEE IF ALREADY IN P67.
000195: 31,2554           55746                           TS       RODCOUNT
000196: 31,2555           34363                           CAF      TEN
000197: 31,2556           12536                           TCF      VRTSTART
000198:
000199: 31,2557           34737        STABL?             CAF      BIT13                                 #  IS UN-ATTITUDE-HOLD DISCRETE PRESENT?
000200: 31,2560           00006                           EXTEND
000201: 31,2561           02031                           RAND     CHAN31
000202: 31,2562           10000                           CCS      A
000203: 31,2563           12601                           TCF      GUILDRET                              #  YES: ALL'S WELL
000204:
000205: 31,2564           41011        P66NOW?            CS       MODREG
000206: 31,2565           62501                           AD       DEC66
000207: 31,2566           00006                           EXTEND
000208: 31,2567           12574                           BZF      RESTART?
000209:
000210: 31,2570           31746                           CA       RODCOUNT                              #  NO. HAS THE ROD SWITCH BEEN "CLICKED"?
000211: 31,2571           00006                           EXTEND
000212: 31,2572           12601                           BZF      GUILDRET                              #  NO. CONTINUE WITH AUTOMATIC LANDING.
000213: 31,2573           12477                           TCF      STARTP66                              #  YES. SWITCH INTO THE ROD MODE.
000214:
000215: 31,2574           30075        RESTART?           CA       FLAGWRD1                              #  HAS THERE BEEN A RESTART?
000216: 31,2575           74740                           MASK     RODFLBIT
000217: 31,2576           00006                           EXTEND
000218: 31,2577           12505                           BZF      STRTP66A                              #  YES.  REINITIALIZE BUT LEAVE VDGVERT AS
000219:                                                                                                  #        IS.
000220:
000221: 31,2600           13531                           TCF      VERTGUID                              #  NO: CONTINUE WITH R.O.D.
000222:
000223:                                                                                                  #  ****************************************************************************************************************
000224:                                                                                                  #  INITIALIZATION FOR THIS PASS
000225:                                                                                                  #  ****************************************************************************************************************
000226:
000227: 31,2601                                           COUNT*   $$/F2DPS
000228:
000229: 31,2601           34755        GUILDRET           CAF      ZERO
000230: 31,2602           55746                           TS       RODCOUNT
000231:


000233: 31,2603           00006                 +2        EXTEND
000234: 31,2604           31625                           DCA      TPIP
000235: 31,2605           53574                           DXCH     TPIPOLD
000236:
000237: 31,2606           03740                           TC       FASTCHNG
000238:
000239: 31,2607           00006                           EXTEND
000240: 31,2610           31561                           DCA      PIPTIME1
000241: 31,2611           53625                           DXCH     TPIP
000242:
000243: 31,2612           00006                           EXTEND
000244: 31,2613           31643                           DCA      TTF/8
000245: 31,2614           53553                           DXCH     TTF/8TMP
000246:
000247: 31,2615           11623                           CCS      FLPASS0
000248: 31,2616           12641                           TCF      TTFINCR
000249:
000250: 31,2617           51351        BRSPOT1            INDEX    WCHPHASE
000251: 31,2620           12421                           TCF      NEWPHASE
000252:
000253:                                                                                                  #  ****************************************************************************************************************
000254:                                                                                                  #  ROUTINES TO START NEW PHASES
000255:                                                                                                  #  ****************************************************************************************************************
000256:
000257: 31,2621           05311        P65START           TC       NEWMODEX
000258: 31,2622           00101                           DEC      65         B-14
000259: 31,2623           44752                           CS       TWO
000260: 31,2624           55647                           TS       WCHVERT
000261: 31,2625           05516                           TC       DOWNFLAG                              #  PERMIT X-AXIS OVERRIDE
000262: 31,2626           00311                           ADRES    XOVINFLG
000263: 31,2627           12641                           TCF      TTFINCR
000264:
000265: 31,2630           05311        STARTP64           TC       NEWMODEX
000266: 31,2631           00100                           DEC      64         B-14
000267: 31,2632           31425                           CA       DELTTFAP                              #  AUGMENT TTF/8
000268: 31,2633           27552                           ADS      TTF/8TMP
000269: 31,2634           34740                           CA       BIT12                                 #  ENABLE RUPT10
000270: 31,2635           00006                           EXTEND
000271: 31,2636           05013                           WOR      CHAN13
000272: 31,2637           05516                           TC       DOWNFLAG                              #  INITIALIZE REDESIGNATION FLAG
000273: 31,2640           00143                           ADRES    REDFLAG
000274:
000275:
000276:                                                                                                  #                (CONTINUE TO TTFINCR)
000277:
000278:                                                                                                  #  ****************************************************************************************************************
000279:                                                                                                  #  INCREMENT TTF/8, UPDATE LAND FOR LUNAR ROTATION, DO OTHER USEFUL THINGS
000280:                                                                                                  #  ****************************************************************************************************************
000281:
000282:                                                                                                  #        TTFINCR COMPUTATIONS ARE AS FOLLOWS:-


000284:                                                                                                  #                TTF/8 UPDATED FOR TIME SINCE LAST PASS:
000285:                                                                                                  #                        TTF/8 = TTF/8 + (TPIP - TPIPOLD)/8
000286:                                                                                                  #                LANDING SITE VECTOR UPDATED FOR LUNAR ROTATION:
000287:                                                                                                  #                        -       -          -                             -
000288:                                                                                                  #                        LAND = /LAND/ UNIT(LAND - LAND(TPIP - TPIPOLD) * WM)
000289:                                                                                                  #                SLANT RANGE TO LANDING SITE, FOR DISPLAY:
000290:                                                                                                  #                                         -      -
000291:                                                                                                  #                        RANGEDSP = ABVAL(LAND - R)
000292:
000293: 31,2641           06037        TTFINCR            TC       INTPRET
000294: 31,2642           45345                           DLOAD    DSU
000295: 31,2643           03625                                    TPIP
000296: 31,2644           03574                                    TPIPOLD
000297: 31,2645           41461                           SLR      PUSH                                  #  SHIFT SCALES DELTA TIME TO 2(17) CSECS
000298: 31,2646           21214                                    11D
000299: 31,2647           47361                           VXSC     VXV
000300: 31,2650           03635                                    LAND
000301: 31,2651           02325                                    WM
000302: 31,2652           47045                           BVSU     RTB
000303: 31,2653           03635                                    LAND
000304: 31,2654           21726                                    NORMUNIT
000305: 31,2655           76561                           VXSC     VSL1
000306: 31,2656           02333                                    /LAND/
000307: 31,2657           17545                           STODL    LANDTEMP
000308: 31,2660           77776                           EXIT
000309:
000310: 31,2661           52155                           DXCH     MPAC
000311: 31,2662           21553                           DAS      TTF/8TMP                              #  NOW HAVE INCREMENTED TTF/8 IN TTF/8TMP
000312:
000313: 31,2663           03740                           TC       FASTCHNG
000314:
000315: 31,2664           00006                           EXTEND
000316: 31,2665           31553                           DCA      TTF/8TMP
000317: 31,2666           53643                           DXCH     TTF/8
000318:
000319: 31,2667           00006                           EXTEND
000320: 31,2670           31545                           DCA      LANDTEMP
000321: 31,2671           53635                           DXCH     LAND
000322: 31,2672           00006                           EXTEND
000323: 31,2673           31547                           DCA      LANDTEMP   +2
000324: 31,2674           53637                           DXCH     LAND       +2
000325: 31,2675           00006                           EXTEND
000326: 31,2676           31551                           DCA      LANDTEMP   +4
000327: 31,2677           53641                           DXCH     LAND       +4
000328:


000330: 31,2700           03704                           TC       TDISPSET
000331: 31,2701           03740                           TC       FASTCHNG                              #  SINCE REDESIG MAY CHANGE LANDTEMP
000332:
000333: 31,2702           51351        BRSPOT2            INDEX    WCHPHASE
000334: 31,2703           12425                           TCF      PREGUIDE
000335:
000336:                                                                                                  #  ****************************************************************************************************************
000337:                                                                                                  #  LANDING SITE PERTURBATION EQUATIONS
000338:                                                                                                  #  ****************************************************************************************************************
000339:
000340: 31,2704           30102        REDESIG            CA       FLAGWRD6                              #  IS REDFLAG SET?
000341: 31,2705           74746                           MASK     REDFLBIT
000342: 31,2706           00006                           EXTEND
000343: 31,2707           13013                           BZF      RGVGCALC                              #  NO:  SKIP REDESIGNATION LOGIC
000344:
000345: 31,2710           31666                           CA       TREDES                                #  YES:  HAS TREDES REACHED ZERO?
000346: 31,2711           00006                           EXTEND
000347: 31,2712           13013                           BZF      RGVGCALC                              #  YES:  SKIP REDESIGNATION LOGIC
000348:
000349: 31,2713           00004                           INHINT
000350: 31,2714           31267                           CA       ELINCR1
000351: 31,2715           55554                           TS       ELINCR
000352: 31,2716           31266                           CA       AZINCR1
000353: 31,2717           55556                           TS       AZINCR
000354: 31,2720           03740                           TC       FASTCHNG
000355:
000356: 31,2721           34755                           CA       ZERO
000357: 31,2722           55267                           TS       ELINCR1
000358: 31,2723           55266                           TS       AZINCR1
000359: 31,2724           55555                           TS       ELINCR     +1
000360: 31,2725           55557                           TS       AZINCR     +1
000361:
000362: 31,2726           30120                           CA       FIXLOC                                #  SET PD TO 0
000363: 31,2727           54166                           TS       PUSHLOC
000364:
000365: 31,2730           06037                           TC       INTPRET
000366: 31,2731           52375                           VLOAD    VSU
000367: 31,2732           03635                                    LAND
000368: 31,2733           03521                                    R                                     #                  -      -
000369: 31,2734           41434                           RTB      PUSH                                  #  PUSH DOWN UNIT (LAND - R)
000370: 31,2735           21726                                    NORMUNIT
000371: 31,2736           76435                           VXV      VSL1
000372: 31,2737           02154                                    YNBPIP                                #                     -          -      -
000373: 31,2740           65361                           VXSC     PDDL                                  #  PUSH DOWN - ELINCR(YNB * UNIT(LAND - R))
000374: 31,2741           03555                                    ELINCR
000375: 31,2742           03557                                    AZINCR
000376: 31,2743           52361                           VXSC     VSU
000377: 31,2744           02154                                    YNBPIP
000378: 31,2745           41455                           VAD      PUSH                                  #  RESULTING VECTOR IS 1/2 REAL SIZE
000379:


000381:
000382: 31,2746           45345                           DLOAD    DSU                                   #  MAKE SURE REDESIGNATION IS NOT
000383: 31,2747           00001                                    0                                     #        TOO CLOSE TO THE HORIZON
000384: 31,2750           05660                                    DEPRCRIT
000385: 31,2751           71240                           BMN      DLOAD
000386: 31,2752           62755                                    REDES1
000387: 31,2753           05660                                    DEPRCRIT
000388: 31,2754           00001                           STORE    0
000389: 31,2755           45345        REDES1             DLOAD    DSU
000390: 31,2756           03635                                    LAND
000391: 31,2757           03521                                    R
000392: 31,2760           74271                           DDV      VXSC
000393: 31,2761           00001                                    0
000394: 31,2762           53455                           VAD      UNIT
000395: 31,2763           03521                                    R
000396: 31,2764           76561                           VXSC     VSL1
000397: 31,2765           02333                                    /LAND/
000398: 31,2766           03545                           STORE    LANDTEMP
000399: 31,2767           77776                           EXIT                                           #  LOOKANGL WILL BE COMPUTED AT RGVGCALC
000400:
000401: 31,2770           03740                           TC       FASTCHNG
000402:
000403: 31,2771           00006                           EXTEND
000404: 31,2772           31545                           DCA      LANDTEMP
000405: 31,2773           53635                           DXCH     LAND
000406: 31,2774           00006                           EXTEND
000407: 31,2775           31547                           DCA      LANDTEMP   +2
000408: 31,2776           53637                           DXCH     LAND       +2
000409: 31,2777           00006                           EXTEND
000410: 31,3000           31551                           DCA      LANDTEMP   +4
000411: 31,3001           53641                           DXCH     LAND       +4
000412:
000413: 31,3002           13013                           TCF      RGVGCALC
000414:
000415:                                                                                                  #  ****************************************************************************************************************
000416:                                                                                                  #  COMPUTE STATE IN GUIDANCE COORDINATES
000417:                                                                                                  #  ****************************************************************************************************************
000418:
000419:                                                                                                  #        RGVGCALC COMPUTATIONS ARE AS FOLLOWS:-
000420:                                                                                                  #        VELOCITY RELATIVE TO THE SURFACE:
000421:                                                                                                  #                -         -   -   -
000422:                                                                                                  #                ANGTERM = V + R * WM
000423:
000424:                                                                                                  #        STATE IN GUIDANCE COORDINATES:
000425:                                                                                                  #                -     *   -   -
000426:                                                                                                  #                RGU = CG (R - LAND)
000427:                                                                                                  #                -     *   -   -    -


000429:                                                                                                  #                VGU = CG (V - WM * R)
000430:
000431:                                                                                                  #        HORIZONTAL VELOCITY FOR DISPLAY:
000432:
000433:                                                                                                  #                VHORIZ = 8 ABVAL (0, VG , VG )
000434:                                                                                                  #                                       2    1
000435:                                                                                                  #        DEPRESSION ANGLE FOR DISPLAY:
000436:                                                                                                  #                                       -   -     -
000437:                                                                                                  #                LOOKANGL = ARCSIN(UNIT(R - LAND).XMBPIP)
000438:
000439: 31,3003           06037        CALCRGVG           TC       INTPRET                               #  IN IGNALG, COMPUTE V FROM INTEGRATION
000440: 31,3004           64375                           VLOAD    MXV                                   #        OUTPUT AND TRIM CORRECTION TERM
000441: 31,3005           00025                                    VATT1                                 #        COMPUTED LAST PASS AND LEFT IN UNFC/2
000442: 31,3006           01734                                    REFSMMAT
000443: 31,3007           53362                           VSR1     VAD
000444: 31,3010           03254                                    UNFC/2
000445: 31,3011           03527                           STORE    V
000446: 31,3012           77776                           EXIT
000447:
000448: 31,3013           06037        RGVGCALC           TC       INTPRET                               #  ENTER HERE TO RECOMPUTE RG AND VG
000449: 31,3014           47375                           VLOAD    VXV
000450: 31,3015           03521                                    R
000451: 31,3016           02325                                    WM
000452: 31,3017           70455                           VAD      VSR2                                  #  RESCALE TO UNITS OF 2(9) M/CS
000453: 31,3020           03527                                    V
000454: 31,3021           02265                           STORE    ANGTERM
000455: 31,3022           77721                           MXV
000456: 31,3023           02603                                    CG                                    #  NO SHIFT SINCE ANGTERM IS DOUBLE SIZED
000457: 31,3024           03627                           STORE    VGU
000458: 31,3025           55525                           PDDL     VDEF                                  #  FORM (0,VG ,VG ) IN UNITS OF 2(10) M/CS
000459: 31,3026           06522                                    ZEROVECS                              #            2   1
000460: 31,3027           52446                           ABVAL    SL3
000461: 31,3030           26263                           STOVL    VHORIZ                                #  VHORIZ FOR DISPLAY DURING P65.
000462: 31,3031           03521                                    R                                     #            -   -
000463: 31,3032           41451                           VSU      PUSH                                  #  PUSH DOWN R - LAND
000464: 31,3033           03635                                    LAND
000465: 31,3034           76521                           MXV      VSL1
000466: 31,3035           02603                                    CG
000467: 31,3036           02637                           STORE    RGU
000468: 31,3037           77646                           ABVAL
000469: 31,3040           26625                           STOVL    RANGEDSP
000470: 31,3041           50234                           RTB      DOT                                   #  NOW IN MPAC IS SINE(LOOKANGL)/4
000471: 31,3042           21726                                    NORMUNIT
000472: 31,3043           02146                                    XNBPIP
000473: 31,3044           77776                           EXIT
000474:
000475: 31,3045           30120                           CA       FIXLOC                                #  RESET PUSH DOWN POINTER
000476: 31,3046           54166                           TS       PUSHLOC
000477:


000479: 31,3047           30154                           CA       MPAC                                  #  COMPUTE LOOKANGL ITSELF
000480: 31,3050           60000                           DOUBLE
000481: 31,3051           04616                           TC       BANKCALL
000482: 31,3052           61672                           CADR     SPARCSIN   -1
000483: 31,3053           63753                           AD       1/2DEG
000484: 31,3054           00006                           EXTEND
000485: 31,3055           73752                           MP       180DEGS
000486: 31,3056           55667                           TS       LOOKANGL                              #  LOOKANGL FOR DISPLAY DURING P64
000487:
000488: 31,3057           51351        BRSPOT3            INDEX    WCHPHASE
000489: 31,3060           12431                           TCF      WHATGUID
000490:
000491:                                                                                                  #  ****************************************************************************************************************
000492:                                                                                                  #  TTF/8 COMPUTATION
000493:                                                                                                  #  ****************************************************************************************************************
000494:
000495: 31,3061           03677        TTF/8CL            TC       INTPRETX
000496: 31,3062           77743                           DLOAD*
000497: 31,3063           02431                                    JDG2TTF,1
000498: 31,3064           23571                           STODL*   TABLTTF    +6                         #  A(3) = 8 JDG  TO TABLTTF
000499: 31,3065           02427                                    ADG2TTF,1                             #              2
000500: 31,3066           17567                           STODL    TABLTTF    +4                         #  A(2) = 6 ADG  TO TABLTTF
000501: 31,3067           03633                                    VGU        +4                         #              2
000502: 31,3070           42605                           DMP      DAD*
000503: 31,3071           05656                                    3/4DP
000504: 31,3072           02425                                    VDG2TTF,1
000505: 31,3073           23565                           STODL*   TABLTTF    +2                         #  A(1) = (6 VGU  + 18 VDG )/8 TO TABLTTF
000506: 31,3074           02407                                    RDG        +4,1                       #               2         2
000507: 31,3075           41225                           DSU      DMP
000508: 31,3076           02643                                    RGU        +4
000509: 31,3077           05654                                    3/8DP
000510: 31,3100           03563                           STORE    TABLTTF                               #  A(0) = -24 (RGU  - RDG )/64 TO TABLTTF
000511: 31,3101           77776                           EXIT                                           #                 2      2
000512:
000513: 31,3102           34744                           CA       BIT8
000514: 31,3103           55572                           TS       TABLTTF    +10                        #  FRACTIONAL PRECISION FOR TTF TO TABLE
000515:
000516: 31,3104           00006                           EXTEND
000517: 31,3105           31643                           DCA      TTF/8
000518: 31,3106           52155                           DXCH     MPAC                                  #  LOADS TTF/8 (INITIAL GUESS) INTO MPAC
000519: 31,3107           34752                           CAF      TWO                                   #  DEGREE - ONE
000520: 31,3110           54001                           TS       L
000521: 31,3111           33746                           CAF      TABLTTFL
000522: 31,3112           03553                           TC       ROOTPSRS                              #  YIELDS TTF/8 IN MPAC
000523: 31,3113           51351                           INDEX    WCHPHASE
000524: 31,3114           12447                           TCF      WHATALM
000525:
000526: 31,3115           00006                           EXTEND                                         #  GOOD RETURN
000527: 31,3116           30155                           DCA      MPAC                                  #  FETCH TTF/8 KEEPING IT IN MPAC
000528: 31,3117           53643                           DXCH     TTF/8                                 #  CORRECTED TTF/8
000529:


000531: 31,3120           03704                           TC       TDISPSET
000532:
000533:                                                                                                  #                (CONTINUE TO QUADGUID)
000534:
000535:                                                                                                  #  ***************************************************************************************************************
000536:                                                                                                  #  MAIN GUIDANCE EQUATION
000537:                                                                                                  #  ***************************************************************************************************************
000538:
000539:                                                                                                  #        AS PUBLISHED:-
000540:                                                                                                  #                              -     -        -     -
000541:                                                                                                  #                -     -     6(VDG + VG)   12(RDG - RG)
000542:                                                                                                  #                ACG = ADG + ----------- + ------------
000543:                                                                                                  #                                TTF        (TTF)(TTF)
000544:                                                                                                  #        AS HERE PROGRAMMED:-
000545:                                                                                                  #                             -     -
000546:                                                                                                  #                      3 (1/4(RDG - RG)   -     - )
000547:                                                                                                  #                      - (------------- + VDG + VG)
000548:                                                                                                  #                -     4 (    TTF/8               )   -
000549:                                                                                                  #                ACG = ---------------------------- + ADG
000550:                                                                                                  #                                  TTF/8
000551:
000552: 31,3121           41642        QUADGUID           CS       TTF/8
000553: 31,3122           61426                           AD       LEADTIME                              #  LEADTIME IS A NEGATIVE NUMBER
000554: 31,3123           64733                           AD       POSMAX                                #  SAFEGUARD THE COMPUTATIONS THAT FOLLOW
000555: 31,3124           54001                           TS       L                                     #        BY FORCING -TTF*LEADTIME > OR = ZERO
000556: 31,3125           40001                           CS       L
000557: 31,3126           60001                           AD       L
000558: 31,3127           22007                           ZL
000559: 31,3130           00006                           EXTEND
000560: 31,3131           11642                           DV       TTF/8
000561: 31,3132           54130                           TS       BUF                                   #  - RATIO OF LAG-DIMINISHED TTF TO TTF
000562: 31,3133           00006                           EXTEND
000563: 31,3134           70000                           SQUARE
000564: 31,3135           54131                           TS       BUF        +1
000565: 31,3136           60130                           AD       BUF
000566: 31,3137           56131                           XCH      BUF        +1                         #  RATIO SQUARED - RATIO
000567: 31,3140           60131                           AD       BUF        +1
000568: 31,3141           54154                           TS       MPAC                                  #  COEFFICIENT FOR VGU TERM
000569: 31,3142           60131                           AD       BUF        +1
000570: 31,3143           50120                           INDEX    FIXLOC
000571: 31,3144           54032                           TS       26D                                   #  COEFFICIENT FOR RDG-RGU TERM
000572: 31,3145           60131                           AD       BUF        +1
000573: 31,3146           50120                           INDEX    FIXLOC
000574: 31,3147           54034                           TS       28D                                   #  COEFFICIENT FOR VDG TERM
000575: 31,3150           60130                           AD       BUF
000576: 31,3151           64733                           AD       POSMAX


000578: 31,3152           60131                           AD       BUF        +1
000579: 31,3153           60131                           AD       BUF        +1
000580: 31,3154           50120                           INDEX    FIXLOC
000581: 31,3155           54036                           TS       30D                                   #  COEFFICIENT FOR ADG TERM
000582:
000583: 31,3156           34755                           CAF      ZERO
000584: 31,3157           54163                           TS       MODE
000585:
000586: 31,3160           03677                           TC       INTPRETX
000587: 31,3161           65361                           VXSC     PDDL
000588: 31,3162           03627                                    VGU
000589: 31,3163           00035                                    28D
000590: 31,3164           62757                           VXSC*    PDVL*
000591: 31,3165           02411                                    VDG,1
000592: 31,3166           02403                                    RDG,1
000593: 31,3167           70251                           VSU      V/SC
000594: 31,3170           02637                                    RGU
000595: 31,3171           03643                                    TTF/8
000596: 31,3172           74342                           VSR2     VXSC
000597: 31,3173           00033                                    26D
000598: 31,3174           53255                           VAD      VAD
000599: 31,3175           74341                           V/SC     VXSC
000600: 31,3176           03643                                    TTF/8
000601: 31,3177           05656                                    3/4DP
000602: 31,3200           73725                           PDDL     VXSC*
000603: 31,3201           00037                                    30D
000604: 31,3202           02417                                    ADG,1
000605: 31,3203           77655                           VAD
000606: 31,3204           76505        AFCCALC1           VXM      VSL1                                  #  VERTGUID COMES HERE
000607: 31,3205           02603                                    CG
000608: 31,3206           70315                           PDVL     V/SC
000609: 31,3207           01237                                    GDT/2
000610: 31,3210           05652                                    GSCALE
000611: 31,3211           45445                           BVSU     STADR
000612: 31,3212           74523                           STORE    UNFC/2                                #  UNFC/2 NEED NOT BE UNITIZED
000613: 31,3213           77646                           ABVAL
000614: 31,3214           17464        AFCCALC2           STODL    /AFC/                                 #  MAGNITUDE OF AFC FOR THROTTLE
000615: 31,3215           03254                                    UNFC/2                                #  VERTICAL COMPONENT
000616: 31,3216           65316                           DSQ      PDDL
000617: 31,3217           03256                                    UNFC/2     +2                         #  OUT-OF-PLANE
000618: 31,3220           65316                           DSQ      PDDL
000619: 31,3221           05650                                    HIGHESTF
000620: 31,3222           63471                           DDV      DSQ
000621: 31,3223           01245                                    MASS                                  #                         2    2    2
000622: 31,3224           45225                           DSU      DSU                                   #  AMAXHORIZ = SQRT(ATOTAL - A  - A  )
000623: 31,3225           71244                           BPL      DLOAD                                 #                             1    0
000624: 31,3226           63230                                    AFCCALC3
000625: 31,3227           06522                                    ZEROVECS
000626: 31,3230           43366        AFCCALC3           SQRT     DAD
000627: 31,3231           03260                                    UNFC/2     +4


000629: 31,3232           44244                           BPL      BDSU
000630: 31,3233           63236                                    AFCCLEND
000631: 31,3234           03260                                    UNFC/2     +4
000632: 31,3235           03260                           STORE    UNFC/2     +4
000633: 31,3236           77776        AFCCLEND           EXIT
000634: 31,3237           03740                           TC       FASTCHNG
000635:
000636: 31,3240           31351                           CA       WCHPHASE                              #  PREPARE FOR PHASE SWITCHING LOGIC
000637: 31,3241           55621                           TS       WCHPHOLD
000638: 31,3242           25623                           INCR     FLPASS0                               #  INCREMENT PASS COUNTER
000639:
000640: 31,3243           51351        BRSPOT4            INDEX    WCHPHASE
000641: 31,3244           12435                           TCF      AFTRGUID
000642:
000643:                                                                                                  #  ***************************************************************************************************************
000644:                                                                                                  #  ERECT GUIDANCE-STABLE MEMBER TRANSFORMATION MATRIX
000645:                                                                                                  #  ***************************************************************************************************************
000646:
000647: 31,3245           35014        CGCALC             CAF      EBANK5
000648: 31,3246           54003                           TS       EBANK
000649: 31,3247  E5,1435                                  EBANK=   TCGIBRAK
000650: 31,3247           00006                           EXTEND
000651: 31,3250           51351                           INDEX    WCHPHASE
000652: 31,3251           52452                           INDEX    TARGTDEX
000653: 31,3252           31435                           DCA      TCGFBRAK
000654: 31,3253           24006                           INCR     BBANK
000655: 31,3254           24006                           INCR     BBANK
000656: 31,3255  E7,1642                                  EBANK=   TTF/8
000657: 31,3255           61642                           AD       TTF/8
000658: 31,3256           56001                           XCH      L
000659: 31,3257           61642                           AD       TTF/8
000660: 31,3260           10000                           CCS      A
000661: 31,3261           10001                           CCS      L
000662: 31,3262           13313                           TCF      EXTLOGIC
000663: 31,3263           13313                           TCF      EXTLOGIC
000664: 31,3264           13265                           NOOP
000665:
000666: 31,3265           03677                           TC       INTPRETX
000667: 31,3266           53575                           VLOAD    UNIT
000668: 31,3267           03635                                    LAND
000669: 31,3270           16603                           STODL    CG
000670: 31,3271           03643                                    TTF/8
000671: 31,3272           74203                           DMP*     VXSC
000672: 31,3273           02433                                    GAINBRAK,1                            #  NUMERO MYSTERIOSO
000673: 31,3274           02265                                    ANGTERM
000674: 31,3275           77655                           VAD
000675: 31,3276           03635                                    LAND
000676: 31,3277           47051                           VSU      RTB
000677: 31,3300           03521                                    R
000678: 31,3301           21726                                    NORMUNIT


000680: 31,3302           47035                           VXV      RTB
000681: 31,3303           03635                                    LAND
000682: 31,3304           21726                                    NORMUNIT
000683: 31,3305           26611                           STOVL    CG         +6                         #  SECOND ROW
000684: 31,3306           02603                                    CG
000685: 31,3307           76435                           VXV      VSL1
000686: 31,3310           02611                                    CG         +6
000687: 31,3311           02617                           STORE    CG         +14
000688: 31,3312           77776                           EXIT
000689:
000690:                                                                                                  #                (CONTINUE TO EXTLOGIC)
000691:
000692:                                                                                                  #  ****************************************************************************************************************
000693:                                                                                                  #  PREPARE TO EXIT
000694:                                                                                                  #  ****************************************************************************************************************
000695:
000696:                                                                                                  #  DECIDE (1) HOW TO EXIT, AND (2) WHETHER TO SWITCH PHASES
000697:
000698: 31,3313           51351        EXTLOGIC           INDEX    WCHPHASE                              #  WCHPHASE = 1   APPRQUAD
000699: 31,3314           31423                           CA       TENDBRAK                              #  WCHPHASE = 0   BRAKQUAD
000700: 31,3315           61642                           AD       TTF/8
000701:
000702: 31,3316           00006        EXSPOT1            EXTEND
000703: 31,3317           51351                           INDEX    WCHPHASE
000704: 31,3320           62441                           BZMF     WHATEXIT
000705:
000706: 31,3321           03740                           TC       FASTCHNG
000707:
000708: 31,3322           31621                           CA       WCHPHOLD
000709: 31,3323           64753                           AD       ONE
000710: 31,3324           55351                           TS       WCHPHASE
000711: 31,3325           34755                           CA       ZERO
000712: 31,3326           55623                           TS       FLPASS0                               #  RESET FLPASS0
000713:
000714: 31,3327           51621                           INDEX    WCHPHOLD
000715: 31,3330           12441                           TCF      WHATEXIT
000716:
000717:                                                                                                  #  ****************************************************************************************************************
000718:                                                                                                  #  ROUTINES FOR EXITING FROM LANDING GUIDANCE
000719:                                                                                                  #  ****************************************************************************************************************
000720:
000721:                                                                                                  #  1.    EXGSUB IS THE RETURN WHEN GUIDSUB IS CALLED BY THE IGNITION ALGORITHM.
000722:                                                                                                  #  2.    EXBRAK IN THE EXIT USED DURING THE BRAKING PHASE.  IN THIS CASE UNIT(R) IS THE WINDOW POINTING VECTOR.
000723:                                                                                                  #  3.    EXNORM IS THE EXIT USED AT OTHER TIMES DURING THE BURN.
000724:                                                                                                  #  (EXOVFLOW IS A SUBROUTINE OF EXBRAK AND EXNORM CALLED WHEN OVERFLOW OCCURRED ANYWHERE IN GUIDANCE.)
000725:
000726: 31,3331           06037        EXGSUB             TC       INTPRET                               #  COMPUTE TRIM VELOCITY CORRECTION TERM


000728: 31,3332           47175                           VLOAD    RTB
000729: 31,3333           03254                                    UNFC/2
000730: 31,3334           21726                                    NORMUNIT
000731: 31,3335           74361                           VXSC     VXSC
000732: 31,3336           03423                                    ZOOMTIME
000733: 31,3337           22001                                    TRIMACCL
000734: 31,3340           03254                           STORE    UNFC/2
000735: 31,3341           77776                           EXIT
000736:
000737: 31,3342           11647                           CCS      NGUIDSUB
000738: 31,3343           12460                           TCF      GUIDSUB
000739: 31,3344           11646                           CCS      NIGNLOOP
000740: 31,3345           13350                           TCF      +3
000741: 31,3346           05567                           TC       ALARM
000742: 31,3347           01412                           OCT      01412
000743:
000744: 31,3350           04635                 +3        TC       POSTJUMP
000745: 31,3351           65102                           CADR     DDUMCALC
000746:
000747: 31,3352           06037        EXBRAK             TC       INTPRET
000748: 31,3353           77775                           VLOAD
000749: 31,3354           03537                                    UNIT/R/
000750: 31,3355           03262                           STORE    UNWC/2
000751: 31,3356           77776                           EXIT
000752: 31,3357           13432                           TCF      STEER?
000753:
000754: 31,3360           06037        EXNORM             TC       INTPRET
000755: 31,3361           52375                           VLOAD    VSU
000756: 31,3362           03635                                    LAND
000757: 31,3363           03521                                    R
000758: 31,3364           77634                           RTB
000759: 31,3365           21726                                    NORMUNIT
000760: 31,3366           03262                           STORE    UNWC/2                                #  UNIT(LAND - R) IS TENTATIVE CHOICE
000761: 31,3367           50235                           VXV      DOT
000762: 31,3370           02146                                    XNBPIP
000763: 31,3371           02611                                    CG         +6
000764: 31,3372           77776                           EXIT                                           #  WITH PROJ IN MPAC 1/8 REAL SIZE
000765:
000766: 31,3373           40154                           CS       MPAC                                  #  GET COEFFICIENT FOR CG +14
000767: 31,3374           63754                           AD       PROJMAX
000768: 31,3375           64733                           AD       POSMAX
000769: 31,3376           54130                           TS       BUF
000770: 31,3377           40130                           CS       BUF
000771: 31,3400           26130                           ADS      BUF                                   #  RESULT IS 0 IF PROJMAX - PROJ NEGATIVE
000772:
000773: 31,3401           43755                           CS       PROJMIN                               #  GET COEFFICIENT FOR UNIT(LAND - R)
000774: 31,3402           60154                           AD       MPAC
000775: 31,3403           64733                           AD       POSMAX
000776: 31,3404           54131                           TS       BUF        +1
000777: 31,3405           40131                           CS       BUF        +1


000779: 31,3406           26131                           ADS      BUF        +1                         #  RESULT IS 0 IF PROJ - PROJMIN NEGATIVE
000780:
000781: 31,3407           34751                           CAF      FOUR
000782: 31,3410           76242        UNWCLOOP           MASK     SIX
000783: 31,3411           54002                           TS       Q
000784: 31,3412           35014                           CA       EBANK5
000785: 31,3413           54003                           TS       EBANK
000786: 31,3414  E5,1602                                  EBANK=   CG
000787: 31,3414           30130                           CA       BUF
000788: 31,3415           00006                           EXTEND
000789: 31,3416           50002                           INDEX    Q
000790: 31,3417           71616                           MP       CG         +14
000791: 31,3420           24006                           INCR     BBANK
000792: 31,3421  E6,1661                                  EBANK=   UNWC/2
000793: 31,3421           50002                           INDEX    Q
000794: 31,3422           53662                           DXCH     UNWC/2
000795: 31,3423           00006                           EXTEND
000796: 31,3424           70131                           MP       BUF        +1
000797: 31,3425           50002                           INDEX    Q
000798: 31,3426           21662                           DAS      UNWC/2
000799: 31,3427           10002                           CCS      Q
000800: 31,3430           13410                           TCF      UNWCLOOP
000801:
000802: 31,3431           24006                           INCR     BBANK
000803: 31,3432  E7,1612                                  EBANK=   PIF
000804:
000805: 31,3432           30076        STEER?             CA       FLAGWRD2                              #  IF STEERSW DOWN NO OUTPUTS
000806: 31,3433           74741                           MASK     STEERBIT
000807: 31,3434           00006                           EXTEND
000808: 31,3435           13443                           BZF      RATESTOP
000809:
000810: 31,3436           30121        EXVERT             CA       OVFIND                                #  IF OVERFLOW ANYWHERE IN GUIDANCE
000811: 31,3437           00006                           EXTEND                                         #        DON'T CALL THROTTLE OR FINDCDUW
000812: 31,3440           13453                           BZF      +13
000813:
000814: 31,3441           05567        EXOVFLOW           TC       ALARM                                 #  SOUND THE ALARM NON-ABORTIVELY.
000815: 31,3442           01410                           OCT      01410
000816:
000817: 31,3443           34737        RATESTOP           CAF      BIT13                                 #  ARE WE IN ATTITUDE-HOLD?
000818: 31,3444           00006                           EXTEND
000819: 31,3445           02031                           RAND     CHAN31
000820: 31,3446           00006                           EXTEND
000821: 31,3447           13460                           BZF      DISPEXIT                              #  YES
000822:
000823: 31,3450           04616                           TC       BANKCALL                              #  NO:  DO A STOPRATE
000824: 31,3451           40165                           CADR     STOPRATE
000825:
000826: 31,3452           13460                           TCF      DISPEXIT
000827:
000828: 31,3453           02216        GDUMP1             TC       THROTTLE


000830: 31,3454           06037                           TC       INTPRET
000831: 31,3455           77624                           CALL
000832: 31,3456           61111                                    FINDCDUW   -2
000833: 31,3457           77776                           EXIT
000834:
000835:                                                                                                  #                (CONTINUE TO DISPEXIT)
000836:
000837:                                                                                                  #  ****************************************************************************************************************
000838:                                                                                                  #  GUIDANCE LOOP DISPLAYS
000839:                                                                                                  #  ****************************************************************************************************************
000840:
000841: 31,3460           00006        DISPEXIT           EXTEND                                         #  KILL GROUP 3:  DISPLAYS WILL BE
000842: 31,3461           34755                           DCA      NEG0                                  #        RESTORED BY NEXT GUIDANCE CYCLE
000843: 31,3462           52757                           DXCH     -PHASE3
000844:
000845: 31,3463           40104                 +3        CS       FLAGWRD8                              #  IF FLUNDISP IS SET, NO DISPLAY THIS PASS
000846: 31,3464           74742                           MASK     FLUNDBIT
000847: 31,3465           00006                           EXTEND
000848: 31,3466           13476                           BZF      ENDLLJOB                              #  TO PICK UP THE TAG
000849:
000850: 31,3467           51621                           INDEX    WCHPHOLD
000851: 31,3470           12443                           TCF      WHATDISP
000852:
000853: 31,3471           05353                 -2        TC       PHASCHNG                              #  KILL GROUP 5
000854: 31,3472           00035                           OCT      00035
000855:
000856: 31,3473           33756        P63DISPS           CAF      V06N63
000857: 31,3474           04616        DISPCOMN           TC       BANKCALL
000858: 31,3475           20470                           CADR     REGODSPR
000859:
000860: 31,3476           15155        ENDLLJOB           TCF      ENDOFJOB
000861:
000862: 31,3477           31666        P64DISPS           CA       TREDES                                #  HAS TREDES REACHED ZERO?
000863: 31,3500           00006                           EXTEND
000864: 31,3501           13523                           BZF      RED-OVER                              #  YES: CLEAR REDESIGNATION FLAG
000865:
000866: 31,3502           40102                           CS       FLAGWRD6                              #  NO:  IS REDFLAG SET?
000867: 31,3503           74746                           MASK     REDFLBIT
000868: 31,3504           00006                           EXTEND
000869: 31,3505           13525                           BZF      REDES-OK                              #  YES:  DO STATIC DISPLAY
000870:
000871: 31,3506           33757                           CAF      V06N64                                #  OTHERWISE USE FLASHING DISPLAY
000872: 31,3507           04616                           TC       BANKCALL
000873: 31,3510           20462                           CADR     REFLASHR
000874: 31,3511           16001                           TCF      GOTOPOOH                              #  TERMINATE
000875: 31,3512           13515                           TCF      P64CEED                               #  PROCEED       PERMIT REDESIGNATIONS
000876: 31,3513           13477                           TCF      P64DISPS                              #  RECYCLE


000878: 31,3514           13476                           TCF      ENDLLJOB                              #  TO PICK UP THE TAG
000879:
000880: 31,3515           34755        P64CEED            CAF      ZERO
000881: 31,3516           55267                           TS       ELINCR1
000882: 31,3517           55266                           TS       AZINCR1
000883:
000884: 31,3520           05504                           TC       UPFLAG                                #  ENABLE REDESIGNATION LOGIC
000885: 31,3521           00143                           ADRES    REDFLAG
000886:
000887: 31,3522           15155                           TCF      ENDOFJOB
000888:
000889: 31,3523           05516        RED-OVER           TC       DOWNFLAG
000890: 31,3524           00143                           ADRES    REDFLAG
000891: 31,3525           33757        REDES-OK           CAF      V06N64
000892: 31,3526           13474                           TCF      DISPCOMN
000893:
000894:
000895: 31,3527           33760        VERTDISP           CAF      V06N60
000896: 31,3530           13474                           TCF      DISPCOMN
000897:
000898:
000899:                                                                                                  #  ****************************************************************************************************************
000900:                                                                                                  #  GUIDANCE FOR P65
000901:                                                                                                  #  ****************************************************************************************************************
000902:
000903: 31,3531           11647        VERTGUID           CCS      WCHVERT
000904: 31,3532           13545                           TCF      P67VERT                               #  POSITIVE NON-ZERO ---> P67
000905: 31,3533           13543                           TCF      P66VERT                               #  +0
000906:
000907:                                                                                                  #        THE P65 GUIDANCE EQUATION IS AS FOLLOWS:-
000908:                                                                                                  #                      -      -
000909:                                                                                                  #                      V2FG - VGU
000910:                                                                                                  #                ACG = ----------
000911:                                                                                                  #                        TAUVERT
000912:
000913: 31,3534           06037        P65VERT            TC       INTPRET
000914: 31,3535           52375                           VLOAD    VSU
000915: 31,3536           02511                                    V2FG
000916: 31,3537           03627                                    VGU
000917: 31,3540           52141                           V/SC     GOTO
000918: 31,3541           02517                                    TAUVERT
000919: 31,3542           63204                                    AFCCALC1


000921:                                                                                                  #  ****************************************************************************************************************
000922:                                                                                                  #  GUIDANCE FOR P66
000923:                                                                                                  #  ****************************************************************************************************************
000924:
000925: 31,3543           04635        P66VERT            TC       POSTJUMP
000926: 31,3544           65270                           CADR     P66VERTA
000927:
000928: 31,3545           05353        P67VERT            TC       PHASCHNG                              #  TERMINATE GROUP 3
000929: 31,3546           00003                           OCT      00003
000930:
000931: 31,3547           06037                           TC       INTPRET
000932: 31,3550           52175                           VLOAD    GOTO
000933: 31,3551           03527                                    V
000934: 31,3552           65517                                    VHORCOMP
000935:
000936: 32,2000                                           SETLOC   P66LOC
000937: 32,2000                                           BANK
000938: 32,3263                                           COUNT*   $$/F2DPS
000939:
000940: 32,3263           37710        RODTASK            CAF      PRIO22
000941: 32,3264           05105                           TC       FINDVAC
000942: 32,3265  E7,1515                                  EBANK=   DVCNTR
000943: 32,3265           03275 64067                     2CADR    RODCOMP
000944:
000945: 32,3267           15261                           TCF      TASKOVER
000946:
000947: 32,3270           05353        P66VERTA           TC       PHASCHNG                              #  TERMINATE GROUP 3.
000948: 32,3271           00003                           OCT      00003
000949:
000950: 32,3272           34777                           CAF      1SEC
000951: 32,3273           05173                           TC       TWIDDLE
000952: 32,3274           03263                           ADRES    RODTASK
000953:
000954: 32,3275           00004        RODCOMP            INHINT
000955: 32,3276           34755                           CAF      ZERO
000956: 32,3277           57746                           XCH      RODCOUNT
000957: 32,3300           00006                           EXTEND
000958: 32,3301           71756                           MP       RODSCAL1
000959: 32,3302           21645                           DAS      VDGVERT                               #  UPDATE DESIRED ALTITUDE RATE.
000960:
000961: 32,3303           00006                           EXTEND                                         #  SET OLDPIPAX,Y,Z = PIPAX,Y,Z
000962: 32,3304           30040                           DCA      PIPAX
000963: 32,3305           53764                           DXCH     OLDPIPAX
000964: 32,3306           52071                           DXCH     RUPTREG1                              #  SET RUPTREG1,2,3 = OLDPIPAX,Y,Z
000965: 32,3307           30041                           CA       PIPAZ
000966: 32,3310           57765                           XCH      OLDPIPAZ
000967: 32,3311           56072                           XCH      RUPTREG3
000968:
000969: 32,3312           00006                           EXTEND                                         #  SHAPSHOT TIME OF PIPA READING.
000970: 32,3313           30025                           DCA      TIME2


000972: 32,3314           53762                           DXCH     THISTPIP
000973:
000974: 32,3315           31763                           CA       OLDPIPAX
000975: 32,3316           61160                           AD       PIPATMPX
000976: 32,3317           54154                           TS       MPAC                                  #  MPAC(X) = PIPAX + PIPATMPX
000977: 32,3320           31764                           CA       OLDPIPAY
000978: 32,3321           61161                           AD       PIPATMPY
000979: 32,3322           54157                           TS       MPAC       +3                         #  MPAC(Y) = PIPAY + PIPATMPY
000980: 32,3323           31765                           CA       OLDPIPAZ
000981: 32,3324           61162                           AD       PIPATMPZ
000982: 32,3325           54161                           TS       MPAC       +5                         #  MPAC(Z) = PIPAZ + PIPATMPZ
000983:
000984: 32,3326           41763                           CS       OLDPIPAX
000985: 32,3327           61254                           AD       TEMX
000986: 32,3330           60070                           AD       RUPTREG1
000987: 32,3331           55766                           TS       DELVROD
000988: 32,3332           41764                           CS       OLDPIPAY
000989: 32,3333           61255                           AD       TEMY
000990: 32,3334           60071                           AD       RUPTREG2
000991: 32,3335           55770                           TS       DELVROD    +2
000992: 32,3336           41765                           CS       OLDPIPAZ
000993: 32,3337           61256                           AD       TEMZ
000994: 32,3340           60072                           AD       RUPTREG3
000995: 32,3341           55772                           TS       DELVROD    +4
000996:
000997: 32,3342           34755                           CAF      ZERO
000998: 32,3343           54155                           TS       MPAC       +1                         #  ZERO LO-ORDER MPAC COMPONENTS
000999: 32,3344           54160                           TS       MPAC       +4
001000: 32,3345           54162                           TS       MPAC       +6
001001: 32,3346           55254                           TS       TEMX                                  #  ZERO TEMX, TEMY, AND TEMZ SO WE WILL
001002: 32,3347           55255                           TS       TEMY                                  #        KNOW WHEN READACCS CHANGES THEM.
001003: 32,3350           55256                           TS       TEMZ
001004: 32,3351           44753                           CS       ONE
001005: 32,3352           54163                           TS       MODE
001006: 32,3353           06037                           TC       INTPRET
001007: 32,3354           65361        ITRPNT1            VXSC     PDDL                                  #  SCALE MPAC TO M/CS *2(-7) AND PUSH    (6)
001008: 32,3355           26022                                    KPIP1
001009: 32,3356           03762                                    THISTPIP
001010: 32,3357           77625                           DSU
001011: 32,3360           01235                                    PIPTIME
001012: 32,3361           00037                           STORE    30D                                   #  30-31D CONTAINS TIME IN CS SINCE PIPTIME
001013: 32,3362           63271                           DDV      PDVL                                  #                                        (8)
001014: 32,3363           27153                                    4SEC(28)
001015: 32,3364           01237                                    GDT/2
001016: 32,3365           74251                           VSU      VXSC                                  #                                        (6)
001017: 32,3366           02631                                    VBIAS
001018: 32,3367           53352                           VSL2     VAD
001019: 32,3370           03527                                    V
001020: 32,3371           45455                           VAD      STADR                                 #                                        (0)
001021: 32,3372           53746                           STOVL    24D                                   #  STORE UPDATED VELOCITY IN 24-29D


001023: 32,3373           03521                                    R
001024: 32,3374           77656                           UNIT
001025: 32,3375           00017                           STORE    14D
001026: 32,3376           72441                           DOT      SL1
001027: 32,3377           00031                                    24D
001028: 32,3400           17474                           STODL    HDOTDISP                              #  UPDATE HDOTDISP FOR NOUN 63.
001029: 32,3401           00037                                    30D
001030: 32,3402           41261                           SL       DMP
001031: 32,3403           20214                                    11D
001032: 32,3404           03474                                    HDOTDISP
001033: 32,3405           45215                           DAD      DSU
001034: 32,3406           00045                                    36D
001035: 32,3407           02333                                    /LAND/
001036: 32,3410           17775                           STODL    HCALC1                                #  UPDATE HCALC1 FOR NOUN 63.
001037: 32,3411           03474                                    HDOTDISP
001038: 32,3412           56221                           BDSU     DDV
001039: 32,3413           03645                                    VDGVERT
001040: 32,3414           02541                                    TAUROD
001041: 32,3415           51515                           PDVL     ABVAL                                 #                                (2)
001042: 32,3416           01237                                    GDT/2
001043: 32,3417           60471                           DDV      SR2
001044: 32,3420           05652                                    GSCALE
001045: 32,3421           00025                           STORE    20D
001046: 32,3422           77615                           DAD                                            #                                (0)
001047: 32,3423           45115                           PDVL     CALL                                  #                                (2)
001048: 32,3424           06520                                    UNITX
001049: 32,3425           47661                                    CDU*NBSM
001050: 32,3426           77641                           DOT
001051: 32,3427           00017                                    14D
001052: 32,3430           00027                           STORE    22D
001053: 32,3431           45465                           BDDV     STADR                                 #                                (0)
001054: 32,3432           50313                           STOVL    /AFC/
001055: 32,3433           03767                                    DELVROD
001056: 32,3434           53361                           VXSC     VAD
001057: 32,3435           26022                                    KPIP1
001058: 32,3436           02631                                    VBIAS
001059: 32,3437           65246                           ABVAL    PDDL                                  #                                (2)
001060: 32,3440           03762                                    THISTPIP
001061: 32,3441           65225                           DSU      PDDL                                  #                                (4)
001062: 32,3442           03760                                    LASTTPIP
001063: 32,3443           03762                                    THISTPIP
001064: 32,3444           17760                           STODL    LASTTPIP                              #                                (2)
001065: 32,3445           55271                           DDV      BDDV                                  #                                (0)
001066: 32,3446           25535                                    SHFTFACT
001067: 32,3447           41325                           PDDL     DMP                                   #                                (2)
001068: 32,3450           03611                                    FWEIGHT
001069: 32,3451           25534                                    BIT1H
001070: 32,3452           56271                           DDV      DDV
001071: 32,3453           01245                                    MASS
001072: 32,3454           22006                                    SCALEFAC


001074: 32,3455           65215                           DAD      PDDL                                  #                                (4)
001075: 32,3456           00001                                    0D
001076: 32,3457           00025                                    20D
001077: 32,3460           45271                           DDV      DSU                                   #                                (2)
001078: 32,3461           00027                                    22D
001079: 32,3462           43205                           DMP      DAD
001080: 32,3463           02543                                    LAG/TAU
001081: 32,3464           03464                                    /AFC/
001082: 32,3465           56325                           PDDL     DDV                                   #                                (4)
001083: 32,3466           02547                                    MAXFORCE
001084: 32,3467           01245                                    MASS
001085: 32,3470           56325                           PDDL     DDV                                   #                                (6)
001086: 32,3471           02545                                    MINFORCE
001087: 32,3472           01245                                    MASS
001088: 32,3473           44206                           PUSH     BDSU                                  #                                (8)
001089: 32,3474           00003                                    2D
001090: 32,3475           71240                           BMN      DLOAD                                 #                                (6)
001091: 32,3476           65504                                    AFCSPOT
001092: 32,3477           41545                           DLOAD    PUSH                                  #                                (6)
001093: 32,3500           51021                           BDSU     BPL
001094: 32,3501           00003                                    2D
001095: 32,3502           65504                                    AFCSPOT
001096: 32,3503           77745                           DLOAD                                          #                                (4)
001097: 32,3504           77745        AFCSPOT            DLOAD                                          #                                (2), (4), OR (6)
001098: 32,3505           77601                           SETPD                                          #                                (2)
001099: 32,3506           00003                                    2D
001100: 32,3507           17464                           STODL    /AFC/                                 #                                (0)
001101: 32,3510           77776        ITRPNT2            EXIT
001102: 32,3511           52155                           DXCH     MPAC                                  #  MPAC = MEASURED ACCELERATION.
001103: 32,3512           04616                           TC       BANKCALL
001104: 32,3513           62221                           CADR     THROTTLE   +3
001105: 32,3514           06037                           TC       INTPRET
001106: 32,3515           77775                           VLOAD                                          #  PICK UP UPDATED VELOCITY VECTOR.
001107: 32,3516           00031                                    24D
001108: 32,3517           53352        VHORCOMP           VSL2     VAD
001109: 32,3520           03734                                    DELVS
001110: 32,3521           63342                           VSR2     PDVL                                  #                                (6)
001111: 32,3522           03521                                    R
001112: 32,3523           74256                           UNIT     VXSC
001113: 32,3524           03474                                    HDOTDISP
001114: 32,3525           51372                           VSL1     BVSU                                  #                                (0)
001115: 32,3526           77646                           ABVAL
001116: 32,3527           02263                           STORE    VHORIZ
001117: 32,3530           77776                           EXIT
001118: 32,3531           04616                           TC       BANKCALL                              #  PUT UP V06N60 DISPLAY BUT AVOID PHASCHNG
001119: 32,3532           63463                           CADR     DISPEXIT   +3
001120:
001121: 32,3533           00001        BIT1H              OCT      00001
001122: 32,3534           00000 04000  SHFTFACT           2DEC     1          B-17


001124: 32,3536           00000 01217  BIASFACT           2DEC     655.36     B-28
001125:
001126:                                                                                                  #  ****************************************************************************************************************
001127:                                                                                                  #  REDESIGNATOR TRAP
001128:                                                                                                  #  ****************************************************************************************************************
001129:
001130: 11,2275                                           BANK     11
001131: 11,2000                                           SETLOC   F2DPS*11
001132: 11,2000                                           BANK
001133:
001134: 11,2275                                           COUNT*   $$/F2DPS
001135:
001136: 11,2275           56016        PITFALL            XCH      BANKRUPT
001137: 11,2276           00006                           EXTEND
001138: 11,2277           22012                           QXCH     QRUPT
001139:
001140: 11,2300           05321                           TC       CHECKMM                               #  IF NOT IN P64, NO REASON TO CONTINUE
001141: 11,2301           00100                           DEC      64         B-14
001142: 11,2302           15270                           TCF      RESUME
001143:
001144: 11,2303           00006                           EXTEND
001145: 11,2304           00031                           READ     CHAN31
001146: 11,2305           40000                           COM
001147: 11,2306           72373                           MASK     ALL4BITS
001148: 11,2307           55265                           TS       ELVIRA
001149: 11,2310           34752                           CAF      TWO
001150: 11,2311           55264                           TS       ZERLINA
001151: 11,2312           34756                           CAF      FIVE
001152: 11,2313           05173                           TC       TWIDDLE
001153: 11,2314           02321                           ADRES    REDESMON
001154: 11,2315           15270                           TCF      RESUME
001155:
001156:                                                                                                  #  REDESIGNATION MONITOR (INITIATED BY PITFALL)
001157:
001158: 11,2316           55264        PREMON1            TS       ZERLINA
001159: 11,2317           34757        PREMON2            CAF      SEVEN
001160: 11,2320           05224                           TC       VARDELAY
001161: 11,2321           00006        REDESMON           EXTEND
001162: 11,2322           00031                           READ     31
001163: 11,2323           40000                           COM
001164: 11,2324           72373                           MASK     ALL4BITS
001165: 11,2325           57265                           XCH      ELVIRA
001166: 11,2326           54001                           TS       L
001167: 11,2327           11265                           CCS      ELVIRA                                #  DO ANY BITS APPEAR THIS PASS?
001168: 11,2330           12317                           TCF      PREMON2                               #  Y:    CONTINUE MONITOR
001169:
001170: 11,2331           10001                           CCS      L                                     #  N:    ANY LAST PASS?
001171: 11,2332           12341                           TCF      COUNT'EM                              #        Y:      COUNT 'EM, RESET RUPT, TERMINATE


001173: 11,2333           11264                           CCS      ZERLINA                               #        N:      HAS ZERLINA REACHED ZERO YET?
001174: 11,2334           12316                           TCF      PREMON1                               #                N:      DIMINISH ZERLINA, CONTINUE
001175: 11,2335           34740        RESETRPT           CAF      BIT12                                 #                Y:      RESET RUPT. TERMINATE
001176: 11,2336           00006                           EXTEND
001177: 11,2337           05013                           WOR      CHAN13
001178: 11,2340           15261                           TCF      TASKOVER
001179:
001180: 11,2341           34737        COUNT'EM           CAF      BIT13                                 #  ARE WE IN ATTITUDE-HOLD?
001181: 11,2342           00006                           EXTEND
001182: 11,2343           02031                           RAND     CHAN31
001183: 11,2344           00006                           EXTEND
001184: 11,2345           12335                           BZF      RESETRPT                              #  YES: SKIP REDESIGNATION LOGIC.
001185:
001186: 11,2346           30001                           CA       L                                     #  NO
001187: 11,2347           74746                           MASK     -AZBIT
001188: 11,2350           10000                           CCS      A
001189: 11,2351           42374        -AZ                CS       AZEACH
001190: 11,2352           27266                           ADS      AZINCR1
001191: 11,2353           30001                           CA       L
001192: 11,2354           74747                           MASK     +AZBIT
001193: 11,2355           10000                           CCS      A
001194: 11,2356           32374        +AZ                CA       AZEACH
001195: 11,2357           27266                           ADS      AZINCR1
001196: 11,2360           30001                           CA       L
001197: 11,2361           74753                           MASK     -ELBIT
001198: 11,2362           10000                           CCS      A
001199: 11,2363           42375        -EL                CS       ELEACH
001200: 11,2364           27267                           ADS      ELINCR1
001201: 11,2365           30001                           CA       L
001202: 11,2366           74752                           MASK     +ELBIT
001203: 11,2367           10000                           CCS      A
001204: 11,2370           32375        +EL                CA       ELEACH
001205: 11,2371           27267                           ADS      ELINCR1
001206: 11,2372           12335                           TCF      RESETRPT
001207:
001208:                                                                                                  #  THESE EQUIVALENCIES ARE BASED ON GSOP CHAPTER 4, REVISION 16 OF P64LM
001209:
001210: 11,2373     4752               +ELBIT             =        BIT2                                  #  -PITCH
001211: 11,2373     4753               -ELBIT             =        BIT1                                  #  +PITCH
001212: 11,2373     4747               +AZBIT             =        BIT5
001213: 11,2373     4746               -AZBIT             =        BIT6
001214:


001216: 11,2373           00063        ALL4BITS           OCT      00063
001217: 11,2374           01074        AZEACH             DEC      .03491                                #  2 DEGREES
001218: 11,2375           00217        ELEACH             DEC      .00873                                #  1/2 DEGREE
001219:
001220:                                                                                                  #  ****************************************************************************************************************
001221:                                                                                                  #  R.O.D. TRAP
001222:                                                                                                  #  ************************************************************************
001223:
001224: 20,2115                                           BANK     20
001225: 20,2000                                           SETLOC   RODTRAP
001226: 20,2000                                           BANK
001227: 20,2115                                           COUNT*   $$/F2DPS                              #  ****************************************
001228:
001229: 20,2115           74745        DESCBITS           MASK     BIT7                                  #  COME HERE FROM MARKRUPT CODING WITH BIT
001230: 20,2116           10000                           CCS      A                                     #        7 OR 6 OF CHANNEL 16 IN A; BIT 7 MEANS
001231: 20,2117           44752                           CS       TWO                                   #        - RATE INCREMENT, BIT 6 + INCREMENT
001232: 20,2120           64753                           AD       ONE
001233: 20,2121           27746                           ADS      RODCOUNT
001234: 20,2122           15270                           TCF      RESUME                                #  TRAP IS RESET WHEN SWITCH IS RELEASED
001235:
001236: 31,3553                                           BANK     31
001237: 31,2000                                           SETLOC   F2DPS*31
001238: 31,2000                                           BANK
001239:
001240: 31,3553                                           COUNT*   $$/F2DPS
001241:
001242:                                                                                                  #  ****************************************************************************************************************
001243:                                                                                                  #  DOUBLE PRECISION ROOT FINDER SUBROUTINE (BY ALLAN KLUMPP)
001244:                                                                                                  #  ****************************************************************************************************************
001245:
001246:                                                                                                  #                                                       N        N-1
001247:                                                                                                  #        ROOTPSRS FINDS ONE ROOT OF THE POWER SERIES A X  + A   X    + ... + A X + A
001248:                                                                                                  #                                                     N      N-1              1     0
001249:                                                                                                  #  USING NEWTON'S METHOD STARTING WITH AN INITIAL GUESS FOR THE ROOT.  THE ENTERING DATA MUST BE AS FOLLOWS:
001250:                                                                                                  #        A       SP      LOC-3           ADRES FOR REFERENCING PWR COF TABL
001251:                                                                                                  #        L       SP      N-1             N IS THE DEGREE OF THE POWER SERIES
001252:                                                                                                  #        MPAC    DP      X               INITIAL GUESS FOR ROOT
001253:
001254:                                                                                                  #        LOC-2N  DP      A(0)
001255:                                                                                                  #                ...
001256:                                                                                                  #        LOC     DP      A(N)
001257:                                                                                                  #        LOC+2   SP      PRECROOT         PREC RQD OF ROOT (AS FRACT OF 1ST GUESS)
001258:


001260:                                                                                                  #  THE DP RESULT IS LEFT IN MPAC UPON EXIT, AND A SP COUNT OF THE ITERATIONS TO CONVERGENCE IS LEFT IN MPAC+2.
001261:                                                                                                  #  RETURN IS NORMALLY TO LOC(TC ROOTPSRS)+3.  IF ROOTPSRS FAILS TO CONVERGE IN 8 PASSES, RETURN IS TO LOC+1 AND
001262:                                                                                                  #  OUTPUTS ARE NOT TO BE TRUSTED.
001263:
001264:                                                                                                  #  PRECAUTION:  ROOTPSRS MAKES NO CHECKS FOR OVERFLOW OR FOR IMPROPER USAGE.  IMPROPER USAGE COULD
001265:                                                                                                  #  PRECLUDE CONVERGENCE OR REQUIRE EXCESSIVE ITERATIONS.  AS A SPECIFIC EXAMPLE, ROOTPSRS FORMS A DERIVATIVE
001266:                                                                                                  #  COEFFICIENT TABLE BY MULTIPLYING EACH A(I) BY I, WHERE I RANGES FROM 1 TO N.  IF AN ELEMENT OF THE DERIVATIVE
001267:                                                                                                  #  COEFFICIENT TABLE = 1 OR >1 IN MAGNITUDE, ONLY THE EXCESS IS RETAINED.  ROOTPSRS MAY CONVERGE ON THE CORRECT
001268:                                                                                                  #  ROOT NONETHELESS, BUT IT MAY TAKE AN EXCESSIVE NUMBER OF ITERATIONS.  THEREFORE THE USER SHOULD RECOGNIZE:
001269:                                                                                                  #        1.  USER'S RESPONSIBILITY TO ASSURE THAT I X A(I) < 1 IN MAGNITUDE FOR ALL I.
001270:                                                                                                  #        2.  USER'S RESPONSIBILITY TO ASSURE OVERFLOW WILL NOT OCCUR IN EVALUATING EITHER THE RESIDUAL OR THE DERIVATIVE
001271:                                                                                                  #            POWER SERIES.  THIS OVERFLOW WOULD BE PRODUCED BY SUBROUTINE POWRSERS, CALLED BY ROOTPSRS, AND MIGHT NOT
001272:                                                                                                  #            PRECLUDE EVENTUAL CONVERGENCE.
001273:                                                                                                  #        3.  AT PRESENT, ERASABLE LOCATIONS ARE RESERVED ONLY FOR N UP TO 5.  AN N IN EXCESS OF 5 WILL PRODUCE CHAOS.
001274:                                                                                                  #            ALL ERASABLES USED BY ROOTPSRS ARE UNSWITCHED LOCATED IN THE REGION FROM MPAC-33 OCT TO MPAC+7.
001275:                                                                                                  #        4.  THE ITERATION COUNT RETURNED IN MPAC+2 MAY BE USED TO DETECT ABNORMAL PERFORMANCE.
001276:
001277:                                                                                                  #  STORE ENTERING DATA, INITLIZE ERASABLES
001278: 31,3553           00006        ROOTPSRS           EXTEND
001279: 31,3554           22132                           QXCH     RETROOT                               #  RETURN ADRES
001280: 31,3555           54117                           TS       PWRPTR                                #  PWR TABL POINTER
001281: 31,3556           52160                           DXCH     MPAC       +3                         #  PWR TABL ADRES, N-1
001282: 31,3557           33676                           CA       DERTABLL
001283: 31,3560           54141                           TS       DERPTR                                #  DER TABL POINTER
001284: 31,3561           54161                           TS       MPAC       +5                         #  DER TABL ADRES
001285: 31,3562           10160                           CCS      MPAC       +4                         #  NO POWER SERIES OF DEGREE 1 OR LESS
001286: 31,3563           54162                           TS       MPAC       +6                         #  N-2
001287: 31,3564           34755                           CA       ZERO                                  #  MODE USED AS ITERATION COUNTER.  MODE
001288: 31,3565           54163                           TS       MODE                                  #  MUST BE POS SO ABS WON'T COMP MPAC+3 ETC
001289:
001290:                                                                                                  #  COMPUTE CRITERION TO STOP ITERATING
001291: 31,3566           00006                           EXTEND
001292: 31,3567           30155                           DCA      MPAC                                  #  FETCH ROOT GUESS, KEEPING IT IN MPAC
001293: 31,3570           52127                           DXCH     ROOTPS                                #  AND IN ROOTPS
001294: 31,3571           50157                           INDEX    MPAC       +3                         #  PWR TABL ADRES
001295: 31,3572           30005                           CA       5                                     #  PRECROOT TO A
001296: 31,3573           07307                           TC       SHORTMP                               #  YIELDS DP PRODUCT IN MPAC
001297: 31,3574           04713                           TC       USPRCADR
001298: 31,3575           01226                           CADR     ABS                                   #  YIELDS ABVAL OF CRITERION ON DX IN MPAC
001299: 31,3576           52155                           DXCH     MPAC
001300: 31,3577           52125                           DXCH     DXCRIT                                #  CRITERION
001301:
001302:                                                                                                  #  SET UP DER COF TABL


001304: 31,3600           00006                           EXTEND
001305: 31,3601           50117                           INDEX    PWRPTR
001306: 31,3602           30004                           DCA      3
001307: 31,3603           52155                           DXCH     MPAC                                  #  A(N) TO MPAC
001308:
001309: 31,3604           30160                           CA       MPAC       +4                         #  N-1 TO A
001310:
001311: 31,3605           54140        DERCLOOP           TS       PWRCNT                                #  LOOP COUNTER
001312: 31,3606           64753                           AD       ONE
001313: 31,3607           07316                           TC       DMPNSUB                               #  YIELDS DERCOF = I X A(I) IN MPAC
001314: 31,3610           00006                           EXTEND
001315: 31,3611           50117                           INDEX    PWRPTR
001316: 31,3612           30002                           DCA      1
001317: 31,3613           52155                           DXCH     MPAC                                  #  A(I-1) TO MPAC, FETCHING DERCOF
001318: 31,3614           50141                           INDEX    DERPTR
001319: 31,3615           52004                           DXCH     3                                     #  DERCOF TO DER TABL
001320: 31,3616           44752                           CS       TWO
001321: 31,3617           26117                           ADS      PWRPTR                                #  DECREMENT PWR POINTER
001322: 31,3620           44752                           CS       TWO
001323: 31,3621           26141                           ADS      DERPTR                                #  DECREMENT DER POINTER
001324: 31,3622           10140                           CCS      PWRCNT
001325: 31,3623           13605                           TCF      DERCLOOP
001326:
001327:                                                                                                  #  CONVERGE ON ROOT
001328: 31,3624           00006        ROOTLOOP           EXTEND
001329: 31,3625           30127                           DCA      ROOTPS                                #  FETCH CURRENT ROOT
001330: 31,3626           52155                           DXCH     MPAC                                  #  LEAVE IN MPAC
001331: 31,3627           00006                           EXTEND
001332: 31,3630           30162                           DCA      MPAC       +5                         #  LOAD A, L WITH DER TABL ADRES, N-2
001333: 31,3631           07215                           TC       POWRSERS                              #  YIELDS DERIVATIVE IN MPAC
001334:
001335: 31,3632           00006                           EXTEND
001336: 31,3633           30127                           DCA      ROOTPS
001337: 31,3634           52155                           DXCH     MPAC                                  #  CURRENT ROOT TO MPAC, FETCHING DERIVTIVE
001338: 31,3635           52131                           DXCH     BUF                                   #  LEAVE DERIVATIVE IN BUF AS DIVISOR
001339: 31,3636           00006                           EXTEND
001340: 31,3637           30160                           DCA      MPAC       +3                         #  LOAD A, L WITH PWR TABL ADRES, N-1
001341: 31,3640           07215                           TC       POWRSERS                              #  YIELDS RESIDUAL IN MPAC
001342:
001343: 31,3641           04713                           TC       USPRCADR
001344: 31,3642           00353                           CADR     DDV/BDDV                              #  YIELDS -DX IN MPAC
001345:
001346: 31,3643           00006                           EXTEND
001347: 31,3644           40155                           DCS      MPAC                                  #  FETCH DX, LEAVING -DX IN MPAC
001348: 31,3645           20127                           DAS      ROOTPS                                #  CORRECTED ROOT NOW IN ROOTPS
001349:
001350: 31,3646           04713                           TC       USPRCADR
001351: 31,3647           01226                           CADR     ABS                                   #  YIELDS ABS(DX) IN MPAC
001352: 31,3650           00006                           EXTEND


001354: 31,3651           40125                           DCS      DXCRIT
001355: 31,3652           20155                           DAS      MPAC                                  #  ABS(DX)-ABS(DXCRIT) IN MPAC
001356:
001357: 31,3653           30163                           CA       MODE
001358: 31,3654           74750                           MASK     BIT4                                  #  KLUMPP SAYS GIVE UP AFTER EIGHT PASSES
001359: 31,3655           10000                           CCS      A
001360: 31,3656           00132        BADROOT            TC       RETROOT
001361:
001362: 31,3657           24163                           INCR     MODE                                  #  INCREMENT ITERATION COUNTER
001363: 31,3660           10154                           CCS      MPAC                                  #  TEST HI ORDER DX
001364: 31,3661           13624                           TCF      ROOTLOOP
001365: 31,3662           13664                           TCF      TESTLODX
001366: 31,3663           13670                           TCF      ROOTSTOR
001367: 31,3664           10155        TESTLODX           CCS      MPAC       +1                         #  TEST LO ORDER DX
001368: 31,3665           13624                           TCF      ROOTLOOP
001369: 31,3666           13670                           TCF      ROOTSTOR
001370: 31,3667           13670                           TCF      ROOTSTOR
001371: 31,3670           52127        ROOTSTOR           DXCH     ROOTPS
001372: 31,3671           52155                           DXCH     MPAC
001373: 31,3672           30163                           CA       MODE
001374: 31,3673           54156                           TS       MPAC       +2                         #  STORE SP ITERATION COUNT IN MPAC+2
001375: 31,3674           50132                           INDEX    RETROOT
001376: 31,3675           10002                           TCF      2
001377:
001378: 31,3676           00147        DERTABLL           ADRES    DERCOFN    -3
001379:
001380:                                                                                                  #  *****************************************************************************************************************
001381:                                                                                                  #  TRASHY LITTLE SUBROUTINES
001382:                                                                                                  #  *****************************************************************************************************************
001383:
001384: 31,3677           51351        INTPRETX           INDEX    WCHPHASE                              #  SET X1 ON THE WAY TO THE INTERPRETER
001385: 31,3700           42452                           CS       TARGTDEX
001386: 31,3701           50120                           INDEX    FIXLOC
001387: 31,3702           54046                           TS       X1
001388: 31,3703           16037                           TCF      INTPRET
001389:
001390: 31,3704           31642        TDISPSET           CA       TTF/8
001391: 31,3705           00006                           EXTEND
001392: 31,3706           74750                           MP       TSCALINV
001393: 31,3707           53476                           DXCH     TTFDISP
001394:
001395: 31,3710           35014                           CA       EBANK5                                #  TREDES BECOMES ZERO TWO PASSES
001396: 31,3711           54003                           TS       EBANK                                 #        BEFORE TCGFAPPR IS REACHED
001397: 31,3712  E5,1470                                  EBANK=   TCGFAPPR
001398: 31,3712           31470                           CA       TCGFAPPR
001399: 31,3713           24006                           INCR     BBANK
001400: 31,3714           24006                           INCR     BBANK
001401: 31,3715  E7,1642                                  EBANK=   TTF/8


001403: 31,3715           61642                           AD       TTF/8
001404: 31,3716           00006                           EXTEND
001405: 31,3717           73751                           MP       TREDESCL
001406: 31,3720           63747                           AD       -DEC103
001407: 31,3721           64735                           AD       NEGMAX
001408: 31,3722           54001                           TS       L
001409: 31,3723           40001                           CS       L
001410: 31,3724           60001                           AD       L
001411: 31,3725           63750                           AD       +DEC99
001412: 31,3726           64733                           AD       POSMAX
001413: 31,3727           55666                           TS       TREDES
001414: 31,3730           41666                           CS       TREDES
001415: 31,3731           27666                           ADS      TREDES
001416: 31,3732           00002                           TC       Q
001417:
001418: 31,3733           05652        1406P00            TC       POODOO
001419: 31,3734           01406                           OCT      01406
001420: 31,3735           05567        1406ALM            TC       ALARM
001421: 31,3736           01406                           OCT      01406
001422: 31,3737           13443                           TCF      RATESTOP
001423:
001424:                                                                                                  #  ****************************************************************************************************************
001425:                                                                                                  #  SPECIALIZED "PHASCHNG" SUBROUTINE
001426:                                                                                                  #  ****************************************************************************************************************
001427:
001428: 31,3740  E3,1440                                  EBANK=   PHSNAME2
001429: 31,3740           35007        FASTCHNG           CA       EBANK3                                #  SPECIALIZED 'PHASCHNG' ROUTINE
001430: 31,3741           56003                           XCH      EBANK
001431: 31,3742           52002                           DXCH     L
001432: 31,3743           55442                           TS       PHSNAME3
001433: 31,3744           22003                           LXCH     EBANK
001434: 31,3745  E7,1621                                  EBANK=   E2DPS
001435: 31,3745           00000                           TC       A
001436:
001437:                                                                                                  #  ****************************************************************************************************************
001438:                                                                                                  #  PARAMETER TABLE INDIRECT ADDRESSES
001439:                                                                                                  #  ****************************************************************************************************************
001440:
001441: 31,3746  E5,1402               RDG                =        RBRFG
001442: 31,3746  E5,1410               VDG                =        VBRFG
001443: 31,3746  E5,1416               ADG                =        ABRFG
001444: 31,3746  E5,1424               VDG2TTF            =        VBRFG*
001445: 31,3746  E5,1426               ADG2TTF            =        ABRFG*
001446: 31,3746  E5,1430               JDG2TTF            =        JBRFG*
001447:
001448:                                                                                                  #  ****************************************************************************************************************
001449:                                                                                                  #  LUNAR LANDING CONSTANTS
001450:                                                                                                  #  ***************************************************************************************************************
001451:


001453: 31,3746           01565        TABLTTFL           ADRES    TABLTTF    +3                         #  ADDRESS FOR REFERENCING TTF TABLE
001454: 31,3747     4740               TTFSCALE           =        BIT12
001455: 31,3747     4750               TSCALINV           =        BIT4
001456: 31,3747           77630        -DEC103            DEC      -103       B-14
001457: 31,3750           00143        +DEC99             DEC      +99        B-14
001458: 31,3751           75340        TREDESCL           DEC      -.08
001459: 31,3752           00264        180DEGS            DEC      +180       B-14
001460: 31,3753           00056        1/2DEG             DEC      +.00278
001461: 31,3754           01542        PROJMAX            DEC      .42262     B-3                        #  SIN(25')/8 TO COMPARE WITH PROJ
001462: 31,3755           01022        PROJMIN            DEC      .25882     B-3                        #  SIN(15')/8 TO COMPARE WITH PROJ
001463: 31,3756           01477        V06N63             VN       0663                                  #  P63
001464: 31,3757           01500        V06N64             VN       0664                                  #  P64
001465: 31,3760           01474        V06N60             VN       0660                                  #  P65, P66, P67
001466:
001467: 22,3647                                           BANK     22
001468: 22,2000                                           SETLOC   LANDCNST
001469: 22,2000                                           BANK
001470: 22,3647                                           COUNT*   $$/F2DPS
001471:
001472: 22,3647           00021 14161  HIGHESTF           2DEC     4.34546769 B-12
001473: 22,3651           01440 00000  GSCALE             2DEC     100        B-11
001474: 22,3653           14000 00000  3/8DP              2DEC     .375
001475: 22,3655           30000 00000  3/4DP              2DEC     .750
001476: 22,3657           77534 45074  DEPRCRIT           2DEC     -.02       B-1
001477:


001479:                                                                                                  #  ****************************************************************************************************************
001480:                                                                                                  #  ****************************************************************************************************************

End of include-file LUNAR_LANDING_GUIDANCE_EQUATIONS.agc.  Parent file is MAIN.agc


