
Source Code


000002:                                                                                                  #  Copyright:    Public domain.
000003:                                                                                                  #  Filename:     LUNAR_AND_SOLAR_EPHEMERIDES_SUBROUTINES.agc
000004:                                                                                                  #  Purpose:      Part of the source code for Luminary 1A build 099.
000005:                                                                                                  #                It is part of the source code for the Lunar Module's (LM)
000006:                                                                                                  #                Apollo Guidance Computer (AGC), for Apollo 11.
000007:                                                                                                  #  Assembler:    yaYUL
000008:                                                                                                  #  Contact:      Hartmuth Gutsche <hgutsche@xplornet.com>.
000009:                                                                                                  #  Website:      www.ibiblio.org/apollo.
000010:                                                                                                  #  Pages:        984-987
000011:                                                                                                  #  Mod history:  2009-05-24 HG   Transcribed from page images.
000012:
000013:                                                                                                  #  This source code has been transcribed or otherwise adapted from
000014:                                                                                                  #  digitized images of a hardcopy from the MIT Museum.  The digitization
000015:                                                                                                  #  was performed by Paul Fjeld, and arranged for by Deborah Douglas of
000016:                                                                                                  #  the Museum.  Many thanks to both.  The images (with suitable reduction
000017:                                                                                                  #  in storage size and consequent reduction in image quality as well) are
000018:                                                                                                  #  available online at www.ibiblio.org/apollo.  If for some reason you
000019:                                                                                                  #  find that the images are illegible, contact me at info@sandroid.org
000020:                                                                                                  #  about getting access to the (much) higher-quality images which Paul
000021:                                                                                                  #  actually created.
000022:
000023:                                                                                                  #  Notations on the hardcopy document read, in part:
000024:
000025:                                                                                                  #        Assemble revision 001 of AGC program LMY99 by NASA 2021112-61
000026:                                                                                                  #        16:27 JULY 14, 1969
000027:
000028:                                                                                                  #  Page 984
000029:                                                                                                  #  NAME -- LSPOS -- LOCATE SUN AND MOON                  DATE -- 25 OCT 67
000030:                                                                                                  #  MOD NO. 1
000031:                                                                                                  #  MOD BY NEVILLE                                        ASSEMBLY SUNDANCE
000032:
000033:                                                                                                  #  FUNCTIONAL DESCRIPTION
000034:
000035:                                                                                                  #  COMPUTES UNIT POSITION VECTOR OF THE SUN AND MOON IN THE BASIC REFERENCE SYSTEM.  THE SUN VECTOR S IS
000036:                                                                                                  #  LOCATED VIA TWO ANGLES.  THE FIRST ANGLE (OBLIQUITY) IS THE ANGLE BETWEEN THE EARTH EQUATOR AND THE ECLIPTIC.  THE
000037:                                                                                                  #  POSITION VECTOR OF THE SUN IS
000038:                                                                                                  #        _
000039:                                                                                                  #        S = (COS(LOS), COS(OBL)*SIN(LOS), SIN(OBL)*SIN(LOS)), WHERE
000040:
000041:                                                                                                  #        LOS = LOS +LOS *T-(C *SIN(2PI*T)/365.24 +C *COS(2PI*T)/365.24)
000042:                                                                                                  #                 0    R     0                     1
000043:                                                                                                  #        LOS  (RAD) IS THE LONGITUDE OF THE SUN FOR MIGNIGHT JUNE 30TH OF THE PARTICULAR YEAR.
000044:                                                                                                  #           0
000045:                                                                                                  #        LOS  (RAD/DAY) IS THE MEAN RATE FOR THE PARTICULAR YEAR.
000046:                                                                                                  #           R
000047:
000048:                                                                                                  #  LOS  AND LOS  ARE STORED AS LOSC AND LOSR IN RATESP.
000049:                                                                                                  #     0        R
000050:                                                                                                  #  COS(OBL) AND SIN(OBL) ARE STORED IN THE MATRIX KONMAT.
000051:
000052:                                                                                                  #  T, TIME MEASURED IN DAYS (24 HOURS) IS STORED IN TIMEP.
000053:
000054:                                                                                                  #  C  AND C  ARE FUDGE FACTORS TO MINIMIZE THE DEVIATION.  THEY ARE STORED AS ONE CONSTANT (CMOD), SINCE
000055:                                                                                                  #   0      1                               2  2 1/2
000056:                                                                                                  #  C *SIN(X)+C *COS(X) CAN BE WRITTEN AS (C +C )   *SIN(X+PHI), WHERE PHI=ARCTAN(C /C ).
000057:                                                                                                  #                                          0  1                                   1  0
000058:
000059:                                                                                                  #  THE MOON IS LOCATED VIA FOUR ANGLES, THE FIRST IS THE OBLIQUITY. THE SECOND IS THE MEAN LONGITUDE OF THE MOON,
000060:                                                                                                  #  MEASURED IN THE ECLIPTIC FROM THE MEAN EQUINOX TO THE MEAN ASCENDING NODE OF THE LUNAR ORBIT, AND THEN ALONG THE
000061:                                                                                                  #  ORBIT.  THE THIRD ANGLE IS THE ANGLE BETWEEN THE ECLIPTIC AND THE LUNAR ORBIT.  THE FOURTH ANGLE IS THE LONGITUDE
000062:                                                                                                  #  OF THE NODE OF THE MOON, MEASURED IN THE LUNAR ORBIT.  LET THESE ANGLES BE OBL,LOM,IM, AND LON RESPECTIVELY.
000063:
000064:                                                                                                  #  THE SIMPLIFIED POSITION VECTOR OF THE MOON IS
000065:                                                                                                  #        _
000066:                                                                                                  #        M=(COS(LOM), COS(OBL)*SIN(LOM)-SIN(OBL)*SIN(IM)*SIN(LOM-LON), SIN(OBL)*SIN(LOM)+COS(OBL)*SIN(IM)*SIN(LOM-LON))
000067:
000068:                                                                                                  #  WHERE
000069:                                                                                                  #        LOM=LOM +LOM *T-(A *SIN(2PI*T/27.5545)+A *COS(2PI*T/27.5545)+B *SIN(2PI*T/32)+B *COS(2PI*T/32)), AND
000070:                                                                                                  #               0    R     0                     1                     0                     1
000071:                                                                                                  #        LON=LON +LON
000072:                                                                                                  #               0    R
000073:                                                                                                  #  A , A , B  AND B  ARE STORE AS AMOD AND BMOD (SEE DESCRIPTION OF CMOD, ABOVE).  COS(OBL), SIN(OBL)*SIN(IM),
000074:                                                                                                  #   0   1   0      1
000075:                                                                                                  #  SIN(OBL), AND COS(OBL)*SIN(IM) ARE STORED IN KONMAT AS K1, K2, K3, AND K4, RESPECTIVELY.  LOM , LOM , LON , LON
000076:                                                                                                  #                                                                                               0     R     0     R
000077:                                                                                                  #  ARE STORED AS LOM0, LOMR, LON0, AND LONR IN RATESP.
000078:
000079:                                                                                                  #  THE THREE PHIS ARE STORED AS AARG, BARG, AND CARG(SUN).  ALL CONSTANTS ARE UPDATED BY YEAR.
000080:
000081:                                                                                                  #  CALLING SEQUENCE
000082:                                                                                                  #  Page 985
000083:                                                                                                  #        CALL LSPOS.  RETURN IS VIA CPRET.
000084:
000085:                                                                                                  #  ALARMS OR ABORTS
000086:                                                                                                  #        NONE
000087:
000088:                                                                                                  #  ERASABLE INITIALIZATION REQUIRED
000089:                                                                                                  #        TEPHEM -- TIME FROM MIGNIGHT 1 JULY PRECEDING THE LAUNCH TO THE TIME OF THE LAUNCH (WHEN THE AGC CLOCK WENT
000090:                                                                                                  #        TO ZERO).  TEPHEM IS TP WITH UNITS OF CENTI-SECONDS.
000091:
000092:                                                                                                  #        TIME2 AND TIME1 ARE IN MPAC AND MPAC +1 WHEN PROGRAM IS CALLED.
000093:
000094:                                                                                                  #  OUTPUT
000095:                                                                                                  #        UNIT POSITIONAL VECTOR OF SUN IN VSUN.  (SCALED B-1)
000096:                                                                                                  #        UNIT POSITIONAL VECTOR OF MOON IN VMOON.  (SCALED B-1)
000097:
000098:                                                                                                  #  SUBROUTINES USED
000099:                                                                                                  #        NONE
000100:
000101:                                                                                                  #  DEBRIS
000102:                                                                                                  #        CURRENT CORE SET, WORK AREA AND FREEFLAG
000103:
000104: 04,3027                                           BANK     04
000105: 15,2000                                           SETLOC   EPHEM
000106: 15,2000                                           BANK
000107:
000108: 15,3664  E5,1714                                  EBANK=   VSUN
000109: 15,3664                                           COUNT*   $$/EPHEM
000110: 15,3664  15,3664               LUNPOS             EQUALS   LSPOS
000111:
000112: 15,3664           54201        LSPOS              SETPD    SR
000113: 15,3665           00001                                    0
000114: 15,3666           20617                                    14D                                   #  TP
000115: 15,3667           56371                           TAD      DDV
000116:                                                                                                  #  HG comments in [...] are hand written comments in original listing
000117: 15,3670           01707                                    TEPHEM                                #  TIME OF LAUNCH [IN CENTISEC B 42]
000118: 15,3671           12024                                    CSTODAY                               #  24 HOURS -- 8640000 CENTI-SECS/DAY B-33
000119: 15,3672           00031                           STORE    TIMEP                                 #  T IN DAYS [@ B 9 = 512 DAYS]
000120: 15,3673           77170                           AXT,1    AXT,2                                 #            [GRANULRITY = 0.164 SEC]
000121: 15,3674           00000                                    0
000122: 15,3675           00000                                    0
000123: 15,3676           77614                           CLEAR
000124: 15,3677           00274                                    FREEFLAG                              #  SWITCH BIT
000125: 15,3700           77745        POSITA             DLOAD
000126: 15,3701           12004                                    KONMAT     +2                         #  ZEROS
000127: 15,3702           00027                           STORE    GTMP
000128: 15,3703           40745        POSITB             DLOAD    DMP*
000129: 15,3704           00031                                    TIMEP                                 #  T
000130: 15,3705           12050                                    VAL67      +4,1                       #  1/27 OR 1/32 OR 1/365
000131:                                                                                                  #  Page 986
000132: 15,3706           42661                           SL       DAD*
000133: 15,3707           20211                                    8D
000134: 15,3710           12046                                    VAL67      +2,1                       #  AARG
000135: 15,3711           40756                           SIN      DMP*                                  #  SIN(T/27+PHI) OR T/32 OR T/365
000136: 15,3712           12044                                    VAL67,1                               #  (A0**2+A1**2)**1/2 SIN(X+PHIA)
000137: 15,3713           62015                           DAD      INCR,1                                #  PLUS
000138: 15,3714           00027                                    GTMP                                  #  (B0**2+B1**2)**1/2 SIN(X+PHIB)
000139: 15,3715           77771                           DEC      -6         B-14
000140: 15,3716           00027                           STORE    GTMP                                  #  OR (C0**2+C1**2)**1/2 SIN(X+PHIC)
000141: 15,3717           77614                           BOFSET
000142: 15,3720           00054                                    FREEFLAG
000143: 15,3721           33703                                    POSITB
000144: 15,3722           40745        POSITD             DLOAD    DMP*
000145: 15,3723           00031                                    TIMEP                                 #  T
000146: 15,3724           65747                                    RATESP,2                              #  LOMR,LOSR,LONR
000147: 15,3725           42661                           SL       DAD*
000148: 15,3726           20206                                    5D
000149: 15,3727           65741                                    RATESP     +6,2                       #  LOM0,LOS0,LON0
000150: 15,3730           77625                           DSU
000151: 15,3731           00027                                    GTMP
000152: 15,3732           10021                           STORE    STMP,2                                #  LOM,LOS,LON
000153: 15,3733           63135                           SLOAD    INCR,2
000154: 15,3734           00050                                    X2
000155: 15,3735           77775                           DEC      -2         B-14
000156: 15,3736           53015                           DAD      BZE
000157: 15,3737           12026                                    RCB-13                                #  PLUS 2
000158: 15,3740           33770                                    POSITE                                #  2ND
000159: 15,3741           77644                           BPL
000160: 15,3742           33700                                    POSITA                                #  1ST
000161: 15,3743           45345        POSITF             DLOAD    DSU                                   #  3RD
000162: 15,3744           00021                                    STMP                                  #  LOM
000163: 15,3745           00025                                    STMP       +4                         #  LON
000164: 15,3746           65356                           SIN      PDDL                                  #  SIN(LOM-LON)
000165: 15,3747           00021                                    STMP
000166: 15,3750           65356                           SIN      PDDL                                  #  SIN LOM
000167: 15,3751           00021                                    STMP
000168: 15,3752           55546                           COS      VDEF                                  #  COS LOM
000169: 15,3753           53521                           MXV      UNIT
000170: 15,3754           12002                                    KONMAT                                #  K1,K2,K3,K4,
000171: 15,3755           02723                           STORE    VMOON
000172: 15,3756           65345                           DLOAD    PDDL
000173: 15,3757           12004                                    KONMAT     +2                         #  ZERO
000174: 15,3760           00023                                    STMP       +2
000175: 15,3761           65356                           SIN      PDDL                                  #  SIN LOS
000176: 15,3762           00023                                    STMP       +2
000177: 15,3763           55546                           COS      VDEF                                  #  COS LOS
000178: 15,3764           53521                           MXV      UNIT
000179: 15,3765           12002                                    KONMAT
000180: 15,3766           02715                           STORE    VSUN
000181: 15,3767           77616                           RVQ
000182:                                                                                                  #  Page 987
000183: 15,3770           77745        POSITE             DLOAD
000184: 15,3771           12004                                    KONMAT     +2                         #  ZEROS
000185: 15,3772           00027                           STORE    GTMP
000186: 15,3773           77650                           GOTO
000187: 15,3774           33722                                    POSITD
000188: 15,3775           77616        LUNVEL             RVQ
000189: 05,2000                                           SETLOC   EPHEM1
000190: 05,2000                                           BANK
000191:
000192: 05,3506                                           COUNT*   $$/EPHEM
000193: 05,3506                        STMP               EQUALS   16D
000194: 05,3506                        GTMP               EQUALS   22D
000195: 05,3506                        TIMEP              EQUALS   24D
000196:
000197:                                                                                                  #  *** END OF LEMP50S .115 ***

End of include-file LUNAR_AND_SOLAR_EPHEMERIDES_SUBROUTINES.agc.  Parent file is MAIN.agc


