
Source Code


000002:                                                                                                  ## Copyright:   Public domain.
000003:                                                                                                  ## Filename:    MEASUREMENT_INCORPORATION.agc
000004:                                                                                                  ## Purpose:     Part of the source code for Luminary 1A build 099.
000005:                                                                                                  ##              It is part of the source code for the Lunar Module's (LM)
000006:                                                                                                  ##              Apollo Guidance Computer (AGC), for Apollo 11.
000007:                                                                                                  ##
000008:                                                                                                  ## Assembler:   yaYUL
000009:                                                                                                  ## Contact:     Jim Lawton <jim DOT lawton AT gmail DOT com>
000010:                                                                                                  ## Website:     www.ibiblio.org/apollo.
000011:                                                                                                  ## Pages:       1149-1158
000012:                                                                                                  ## Mod history: 2009-05-28 JL   Updated from page images.
000013:                                                                                                  ##              2011-01-06 JL   Fixed pseudo-label indentation.
000014:                                                                                                  ##
000015:                                                                                                  ## This source code has been transcribed or otherwise adapted from digitized
000016:                                                                                                  ## images of a hardcopy from the MIT Museum.  The digitization was performed
000017:                                                                                                  ## by Paul Fjeld, and arranged for by Deborah Douglas of the Museum.  Many
000018:                                                                                                  ## thanks to both.  The images (with suitable reduction in storage size and
000019:                                                                                                  ## consequent reduction in image quality as well) are available online at
000020:                                                                                                  ## www.ibiblio.org/apollo.  If for some reason you find that the images are
000021:                                                                                                  ## illegible, contact me at info@sandroid.org about getting access to the
000022:                                                                                                  ## (much) higher-quality images which Paul actually created.
000023:                                                                                                  ##
000024:                                                                                                  ## Notations on the hardcopy document read, in part:
000025:                                                                                                  ##
000026:                                                                                                  ##    Assemble revision 001 of AGC program LMY99 by NASA 2021112-061
000027:                                                                                                  ##    16:27 JULY 14, 1969
000028:


000030:                                                                                                  #  INCORP1 -- PERFORMS THE SIX DIMENSIONAL STATE VECTOR DEVIATION FOR POSITION
000031:                                                                                                  #  AND VELOCITY OR THE NINE-DIMENSIONAL DEVIATION OF POSITION, VELOCITY, AND
000032:                                                                                                  #  RADAR OR LANDMARK BIAS. THE OUTPUT OF THE BVECTOR ROUTINE ALONG WITH THE
000033:                                                                                                  #  ERROR TRANSITION MATRIX (W) ARE USED AS INPU TO THE ROUTINE. THE DEVIATION
000034:                                                                                                  #  IS OBTAINED BY COMPUTING AN ESTIMATED TRACKING MEASUREMENT FROM THE
000035:                                                                                                  #  CURRENT STATE VECTOR AND COMPARING IT WITH AN ACTUAL TRACKING MEASUREMENT
000036:                                                                                                  #  AND APPLYING A STATISTICAL WEIGHTING VECTOR.
000037:
000038:                                                                                                  #  INPUT
000039:                                                                                                  #         DMENFLG = 0 (6-DIMENSIONAL BVECTOR), =1 (9-DIMENSIONAL)
000040:                                                                                                  #               W = ERROR TRANSITION MATRIX 6X6 OR 9X9
000041:                                                                                                  #        VARIANCE = VARIANCE (SCALAR)
000042:                                                                                                  #          DELTAQ = MEASURED DEVIATION (SCALAR)
000043:                                                                                                  #         BVECTOR = 6 OR 9 DIMENSIONAL BVECTOR
000044:
000045:                                                                                                  #  OUTPUT
000046:                                                                                                  #          DELTAX = STATE VECTOR DEVIATIONS 6 OR 9 DIMENSIONAL
000047:                                                                                                  #              ZI = VECTOR USED FOR THE INCORPORATION 6 OR 9 DIMENSIONAL
000048:                                                                                                  #           GAMMA = SCALAR
000049:                                                                                                  #           OMEGA = OMEGA WEIGHTING VECTOR 6 OR 9 DIMENSIONAL
000050:
000051:                                                                                                  #  CALLING SEQUENCE
000052:                                                                                                  #        L       CALL    INCORP1
000053:
000054:                                                                                                  #  NORMAL EXIT
000055:                                                                                                  #        L+1 OF CALLING SEQUENCE
000056:
000057: 37,3655                                           BANK     37
000058: 23,2000                                           SETLOC   MEASINC
000059: 23,2000                                           BANK
000060:
000061: 23,2531                                           COUNT*   $$/INCOR
000062:
000063: 23,2531  E5,1400                                  EBANK=   W
000064:
000065: 23,2531           77620        INCORP1            STQ
000066: 23,2532           02772                                    EGRESS
000067: 23,2533           66370                           AXT,1    SSP
000068: 23,2534           00066                                    54D
000069: 23,2535           00051                                    S1
000070: 23,2536           00022                                    18D                                   #  IX1 = 54      S1= 18
000071: 23,2537           66374                           AXT,2    SSP
000072: 23,2540           00022                                    18D
000073: 23,2541           00052                                    S2
000074: 23,2542           00006                                    6                                     #  IX2 = 18      S2=6
000075: 23,2543           63775        Z123               VLOAD    MXV*
000076: 23,2544           03525                                    BVECTOR                               #  BVECTOR (0)
000077: 23,2545           02467                                    W          +54D,1
000078: 23,2546           12665                           STORE    ZI         +18D,2
000079: 23,2547           77775                           VLOAD
000080: 23,2550           03533                                    BVECTOR    +6                         #  BVECTOR (1)


000082: 23,2551           52717                           MXV*     VAD*
000083: 23,2552           02555                                    W          +108D,1
000084: 23,2553           75112                                    ZI         +18D,2
000085: 23,2554           12665                           STORE    ZI         +18D,2
000086: 23,2555           77775                           VLOAD
000087: 23,2556           03541                                    BVECTOR    +12D                       #  BVECTOR (2)
000088: 23,2557           52717                           MXV*     VAD*
000089: 23,2560           02643                                    W          +162D,1
000090: 23,2561           75112                                    ZI         +18D,2                     #  B(0)*W+B(1)*(W+54)+B(2)*(W+108) FIRST PASS
000091: 23,2562           12665                           STORE    ZI         +18D,2                     #  ZI THEN Z2 THEN Z3
000092: 23,2563           77700                           TIX,1
000093: 23,2564           46565                                    INCOR1
000094: 23,2565           43104        INCOR1             TIX,2    BON
000095: 23,2566           46543                                    Z123                                  #  LOOP FOR Z1,Z2,Z3
000096: 23,2567           02706                                    DMENFLG
000097: 23,2570           46574                                    INCOR1A
000098: 23,2571           77775                           VLOAD
000099: 23,2572           06522                                    ZEROVECS
000100: 23,2573           02657                           STORE    ZI         +12D
000101: 23,2574           77201        INCOR1A            SETPD    VLOAD
000102: 23,2575           00001                                    0
000103: 23,2576           02643                                    ZI
000104: 23,2577           47036                           VSQ      RTB
000105: 23,2600           21633                                    TPMODE
000106: 23,2601           47515                           PDVL     VSQ
000107: 23,2602           02651                                    ZI         +6
000108: 23,2603           76234                           RTB      TAD
000109: 23,2604           21633                                    TPMODE
000110: 23,2605           47515                           PDVL     VSQ
000111: 23,2606           02657                                    ZI         +12D
000112: 23,2607           76234                           RTB      TAD
000113: 23,2610           21633                                    TPMODE
000114: 23,2611           77171                           TAD      AXT,2
000115: 23,2612           02707                                    VARIANCE
000116: 23,2613           00000                                    0
000117: 23,2614           02665                           STORE    TRIPA                                 #  ZI*2 + Z2*2 + Z3*2 + VARIANCE
000118: 23,2615           40151                           TLOAD    BOV
000119: 23,2616           02707                                    VARIANCE                              #  CLEAR OVFIND
000120: 23,2617           46620                                    +1
000121: 23,2620           02670                           STORE    TEMPVAR                               #  TEMP STORAGE FOR VARIANCE
000122: 23,2621           77654                           BZE
000123: 23,2622           46631                                    INCOR1C
000124: 23,2623           40112        INCOR1B            SL2      BOV
000125: 23,2624           46631                                    INCOR1C
000126: 23,2625           02670                           STORE    TEMPVAR
000127: 23,2626           52114                           INCR,2   GOTO
000128: 23,2627           00001                           DEC      1          B-14
000129: 23,2630           46623                                    INCOR1B
000130: 23,2631           61551        INCOR1C            TLOAD    ROUND
000131: 23,2632           02665                                    TRIPA


000133: 23,2633           75405                           DMP      SQRT
000134: 23,2634           02670                                    TEMPVAR
000135: 23,2635           76257                           SL*      TAD
000136: 23,2636           57576                                    0,2
000137: 23,2637           02665                                    TRIPA
000138: 23,2640           63101                           NORM     INCR,2
000139: 23,2641           00050                                    X2
000140: 23,2642           77775                           DEC      -2         B-14
000141: 23,2643           77134                           SXA,2    AXT,2
000142: 23,2644           02103                                    NORMGAM                               #  NORMALIZATION COUNT -2 FOR GAMMA
000143: 23,2645           00242                                    162D
000144: 23,2646           40265                           BDDV     SETPD
000145: 23,2647           06512                                    DP1/4TH
000146: 23,2650           00001                                    0
000147: 23,2651           03500                           STORE    GAMMA
000148: 23,2652           60351                           TLOAD    NORM
000149: 23,2653           02665                                    TRIPA
000150: 23,2654           00047                                    X1
000151: 23,2655           65345                           DLOAD    PDDL                                  #  PD 0-1 = NORM (A)
000152: 23,2656           00155                                    MPAC
000153: 23,2657           03547                                    DELTAQ
000154: 23,2660           77701                           NORM
000155: 23,2661           00051                                    S1
000156: 23,2662           70460                           XSU,1    SR1
000157: 23,2663           00050                                    S1
000158: 23,2664           41471                           DDV      PUSH                                  #  PD 0-1 = DELTAQ/A
000159: 23,2665           77650                           GOTO
000160: 23,2666           45711                                    NEWZCOMP
000161: 23,2667           77731                 -3        SSP
000162: 23,2670           00052                                    S2
000163: 23,2671           00066                                    54D
000164: 23,2672           60775        INCOR2             VLOAD    VXM*                                  #  COMPUT OMEGA1,2,3
000165: 23,2673           02643                                    ZI
000166: 23,2674           75134                                    W          +162D,2
000167: 23,2675           77206                           PUSH     VLOAD
000168: 23,2676           02651                                    ZI         +6
000169: 23,2677           53303                           VXM*     VAD
000170: 23,2700           75112                                    W          +180D,2
000171: 23,2701           77206                           PUSH     VLOAD
000172: 23,2702           02657                                    ZI         +12D
000173: 23,2703           53303                           VXM*     VAD
000174: 23,2704           75070                                    W          +198D,2
000175: 23,2705           61006                           PUSH     TIX,2                                 #  PD 2-7=OMEGA1, 8-13=OMEGA2, 14-19=OMEGA3
000176: 23,2706           46672                                    INCOR2
000177: 23,2707           45575                           VLOAD    STADR
000178: 23,2710           74260                           STORE    OMEGA      +12D
000179: 23,2711           45575                           VLOAD    STADR
000180: 23,2712           74266                           STORE    OMEGA      +6
000181: 23,2713           45575                           VLOAD    STADR
000182: 23,2714           74274                           STORE    OMEGA


000184: 23,2715           77214                           BON      VLOAD
000185: 23,2716           02706                                    DMENFLG
000186: 23,2717           46722                                    INCOR2AB
000187: 23,2720           06522                                    ZEROVECS
000188: 23,2721           03517                           STORE    OMEGA      +12D
000189: 23,2722           66374        INCOR2AB           AXT,2    SSP
000190: 23,2723           00022                                    18D
000191: 23,2724           00052                                    S2
000192: 23,2725           00006                                    6
000193: 23,2726           77773        INCOR3             VLOAD*
000194: 23,2727           74252                                    OMEGA      +18D,2
000195: 23,2730           53761                           VXSC     VSL*
000196: 23,2731           00001                                    0                                     #  DELTAQ/A
000197: 23,2732           20201                                    0,1
000198: 23,2733           12707                           STORE    DELTAX     +18D,2
000199: 23,2734           77304                           TIX,2    VLOAD
000200: 23,2735           46726                                    INCOR3
000201: 23,2736           02673                                    DELTAX     +6
000202: 23,2737           77732                           VSL3
000203: 23,2740           02673                           STORE    DELTAX     +6
000204: 23,2741           77650                           GOTO
000205: 23,2742           02772                                    EGRESS
000206:


000208:                                                                                                  #  INCORP2 - INCORPORATES THE COMPUTED STATE VECTOR DEVIATIONS INTO THE
000209:                                                                                                  #  ESTIMATED STATE VECTOR. THE STATE VECTOR UPDATED MAY BE FOR EITHER THE
000210:                                                                                                  #  LEM OR THE CSM. DETERMINED BY FLAG VEHUPFLG. (ZERO = LEM) (1 = CSM)
000211:
000212:                                                                                                  #  INPUT
000213:                                                                                                  #        PERMANENT STATE VECTOR FOR EITHER THE LEM OR CSM
000214:                                                                                                  #        VEHUPFLG = UPDATE VEHICLE 0=LEM  1=CSM
000215:                                                                                                  #        W = ERROR TRANSITION MATRIX
000216:                                                                                                  #        DELTAX = COMPUTED STATE VECTOR DEVIATIONS
000217:                                                                                                  #        DMENFLG = SIZE OF W MATRIX (ZERO=6X6) (1=9X9)
000218:                                                                                                  #        GAMMA = SCALAR FOR INCORPORATION
000219:                                                                                                  #        ZI = VECTOR USED IN INCORPORATION
000220:                                                                                                  #        OMEGA = WEIGHTING VECTOR
000221:
000222:                                                                                                  #  OUTPUT
000223:                                                                                                  #        UPDATED PERMANENT STATE VECTOR
000224:
000225:                                                                                                  #  CALLING SEQUENCE
000226:                                                                                                  #        L       CALL    INCORP2
000227:
000228:                                                                                                  #  NORMAL EXIT
000229:                                                                                                  #        L+1 OF CALLING SEQUENCE
000230:
000231:
000232: 23,2000                                           SETLOC   MEASINC1
000233: 23,2000                                           BANK
000234:
000235: 23,2743                                           COUNT*   $$/INCOR
000236:
000237: 23,2743           45020        INCORP2            STQ      CALL
000238: 23,2744           02772                                    EGRESS
000239: 23,2745           27414                                    INTSTALL
000240: 23,2746           74375                           VLOAD    VXSC                                  #  CALC. GAMMA * OMEGA1,2,3
000241: 23,2747           03503                                    OMEGA
000242: 23,2750           03500                                    GAMMA
000243: 23,2751           26713                           STOVL    OMEGAM1
000244: 23,2752           03511                                    OMEGA      +6
000245: 23,2753           77761                           VXSC
000246: 23,2754           03500                                    GAMMA
000247: 23,2755           26721                           STOVL    OMEGAM2
000248: 23,2756           03517                                    OMEGA      +12D
000249: 23,2757           77761                           VXSC
000250: 23,2760           03500                                    GAMMA
000251: 23,2761           02727                           STORE    OMEGAM3
000252: 23,2762           77776                           EXIT
000253: 23,2763           33244                           CAF      54DD                                  #  INITIAL IX 1 SETTING FOR W MATRIX
000254: 23,2764           55320                           TS       WIXA
000255: 23,2765           55321                           TS       WIXB
000256: 23,2766           34755                           CAF      ZERO
000257: 23,2767           55322                           TS       ZIXA                                  #  INITIAL IX 2 SETTING FOR Z COMPONENT
000258: 23,2770           55323                           TS       ZIXB
000259: 23,2771           05353        FAZA               TC       PHASCHNG


000261: 23,2772           04022                           OCT      04022
000262: 23,2773           05504                           TC       UPFLAG
000263: 23,2774           00236                           ADRES    REINTFLG
000264: 23,2775           31321        FAZA1              CA       WIXB                                  #  START FIRST PHASE OF INCORP2
000265: 23,2776           55320                           TS       WIXA                                  #  TO UPDATE 6 OR 9 DIM. W MATRIX IN TEMP
000266: 23,2777           31323                           CA       ZIXB
000267: 23,3000           55322                           TS       ZIXA
000268: 23,3001           06037                           TC       INTPRET
000269: 23,3002           73150                           LXA,1    LXA,2
000270: 23,3003           01320                                    WIXA
000271: 23,3004           01322                                    ZIXA
000272: 23,3005           70731                           SSP      DLOAD*
000273: 23,3006           00051                                    S1
000274: 23,3007           00006                                    6
000275: 23,3010           75134                                    ZI,2
000276: 23,3011           60276                           DCOMP    NORM                                  #  CALC UPPER 3X9 PARTITION OF W MATRIX
000277: 23,3012           00052                                    S2
000278: 23,3013           65161                           VXSC     XCHX,2
000279: 23,3014           02713                                    OMEGAM1
000280: 23,3015           00051                                    S2
000281: 23,3016           57144                           LXC,2    XAD,2
000282: 23,3017           00047                                    X2
000283: 23,3020           02103                                    NORMGAM
000284: 23,3021           65057                           VSL*     XCHX,2
000285: 23,3022           57576                                    0,2
000286: 23,3023           00051                                    S2
000287: 23,3024           77653                           VAD*
000288: 23,3025           02467                                    W          +54D,1
000289: 23,3026           02735                           STORE    HOLDW
000290: 23,3027           57543                           DLOAD*   DCOMP                                 #  CALC MIDDLE 3X9 PARTITION OF W MATRIX
000291: 23,3030           75134                                    ZI,2
000292: 23,3031           74301                           NORM     VXSC
000293: 23,3032           00052                                    S2
000294: 23,3033           02721                                    OMEGAM2
000295: 23,3034           71124                           XCHX,2   LXC,2
000296: 23,3035           00051                                    S2
000297: 23,3036           00047                                    X2
000298: 23,3037           53674                           XAD,2    VSL*
000299: 23,3040           02103                                    NORMGAM
000300: 23,3041           57576                                    0,2
000301: 23,3042           52724                           XCHX,2   VAD*
000302: 23,3043           00051                                    S2
000303: 23,3044           02555                                    W          +108D,1
000304: 23,3045           02743                           STORE    HOLDW      +6
000305: 23,3046           77614                           BOFF
000306: 23,3047           02746                                    DMENFLG                               #  BRANCH IF 6 DIMENSIONAL
000307: 23,3050           47070                                    FAZB
000308: 23,3051           57543                           DLOAD*   DCOMP                                 #  CALC LOWER 3X9 PARTITION OF W MATRIX
000309: 23,3052           75134                                    ZI,2
000310: 23,3053           74301                           NORM     VXSC


000312: 23,3054           00052                                    S2
000313: 23,3055           02727                                    OMEGAM3
000314: 23,3056           71124                           XCHX,2   LXC,2
000315: 23,3057           00051                                    S2
000316: 23,3060           00047                                    X2
000317: 23,3061           53674                           XAD,2    VSL*
000318: 23,3062           02103                                    NORMGAM
000319: 23,3063           57576                                    0,2
000320: 23,3064           52724                           XCHX,2   VAD*
000321: 23,3065           00051                                    S2
000322: 23,3066           02643                                    W          +162D,1
000323: 23,3067           02751                           STORE    HOLDW      +12D
000324: 23,3070           77624        FAZB               CALL
000325: 23,3071           11244                                    GRP2PC
000326: 23,3072           77776                           EXIT
000327: 23,3073           31320        FAZB1              CA       WIXA                                  #  START 2ND PHASE OF INCORP2 TO TRANSFER
000328: 23,3074           63245                           AD       6DD                                   #        TEMP REG TO PERM W MATRIX
000329: 23,3075           55321                           TS       WIXB
000330: 23,3076           31322                           CA       ZIXA
000331: 23,3077           67746                           AD       MINUS2
000332: 23,3100           55323                           TS       ZIXB
000333: 23,3101           06037                           TC       INTPRET
000334: 23,3102           66350                           LXA,1    SSP
000335: 23,3103           01320                                    WIXA
000336: 23,3104           00051                                    S1
000337: 23,3105           00006                                    6
000338: 23,3106           77775                           VLOAD
000339: 23,3107           02735                                    HOLDW
000340: 23,3110           06467                           STORE    W          +54D,1
000341: 23,3111           77775                           VLOAD
000342: 23,3112           02743                                    HOLDW      +6
000343: 23,3113           06555                           STORE    W          +108D,1
000344: 23,3114           77214                           BOFF     VLOAD
000345: 23,3115           02746                                    DMENFLG
000346: 23,3116           47126                                    FAZB5
000347: 23,3117           02751                                    HOLDW      +12D
000348: 23,3120           06643                           STORE    W          +162D,1
000349: 23,3121           52100        FAZB2              TIX,1    GOTO
000350: 23,3122           47124                                    +2
000351: 23,3123           47134                                    FAZC                                  #  DONE WITH W MATRIX.  UPDATE STATE VECTOR
000352: 23,3124           77634                           RTB
000353: 23,3125           46771                                    FAZA
000354: 23,3126           43335        FAZB5              SLOAD    DAD
000355: 23,3127           01324                                    ZIXB
000356: 23,3130           07247                                    12DD
000357: 23,3131           52030                           BHIZ     GOTO
000358: 23,3132           47134                                    FAZC
000359: 23,3133           47121                                    FAZB2
000360: 23,3134           77624        FAZC               CALL
000361: 23,3135           11244                                    GRP2PC


000363: 23,3136           53375                           VLOAD    VAD                                   #  START 3RD PHASE OF INCORP2
000364: 23,3137           01701                                    X789                                  #  7TH, 8TH, 9TH COMPONENT OF STATE VECTOR
000365: 23,3140           02701                                    DELTAX     +12D                       #  INCORPORATION FOR X789
000366: 23,3141           03472                           STORE    TX789
000367: 23,3142           47014                           BON      RTB
000368: 23,3143           00707                                    VEHUPFLG
000369: 23,3144           47234                                    DOCSM
000370: 23,3145           26770                                    MOVEPLEM
000371: 23,3146           77004        FAZAB              BOVB     AXT,2
000372: 23,3147           57753                                    TCDANZIG
000373: 23,3150           00000                                    0
000374: 23,3151           77014                           BOFF     AXT,2
000375: 23,3152           04344                                    MOONTHIS
000376: 23,3153           47155                                    +2
000377: 23,3154           00002                                    2
000378: 23,3155           53775                           VLOAD    VSR*
000379: 23,3156           02665                                    DELTAX                                #  B27 IF MOON ORBIT, B29 IF EARTH
000380: 23,3157           57205                                    0          -7,2
000381: 23,3160           40055                           VAD      BOV
000382: 23,3161           01521                                    TDELTAV
000383: 23,3162           47174                                    FAZAB1
000384: 23,3163           25521                           STOVL    TDELTAV
000385: 23,3164           02673                                    DELTAX     +6                         #  B5 IF MOON ORBIT, B7 IF EARTH
000386: 23,3165           53257                           VSR*     VAD
000387: 23,3166           57202                                    0          -4,2
000388: 23,3167           01527                                    TNUV
000389: 23,3170           77600                           BOV
000390: 23,3171           47200                                    FAZAB2
000391: 23,3172           35527                           STCALL   TNUV
000392: 23,3173           47207                                    FAZAB3
000393: 23,3174           53375        FAZAB1             VLOAD    VAD
000394: 23,3175           01535                                    RCV
000395: 23,3176           02665                                    DELTAX
000396: 23,3177           01535                           STORE    RCV
000397: 23,3200           53375        FAZAB2             VLOAD    VAD
000398: 23,3201           01543                                    VCV
000399: 23,3202           02673                                    DELTAX     +6
000400: 23,3203           01543                           STORE    VCV
000401: 23,3204           45134                           SXA,2    CALL
000402: 23,3205           02030                                    PBODY
000403: 23,3206           23441                                    RECTIFY
000404: 23,3207           77624        FAZAB3             CALL
000405: 23,3210           11244                                    GRP2PC
000406: 23,3211           47014                           BON      RTB
000407: 23,3212           00707                                    VEHUPFLG
000408: 23,3213           47237                                    DOCSM1
000409: 23,3214           26747                                    MOVEALEM
000410: 23,3215           77624                           CALL
000411: 23,3216           26070                                    SVDWN2                                #  STORE DOWNLINK STATE VECTOR
000412: 23,3217           77624        FAZAB4             CALL


000414: 23,3220           11244                                    GRP2PC                                #  PHASE CHANGE
000415: 23,3221           77214                           BOFF     VLOAD
000416: 23,3222           02746                                    DMENFLG
000417: 23,3223           47226                                    FAZAB5                                #  6 DIMENSIONAL
000418: 23,3224           03472                                    TX789                                 #  9 DIMENSIONAL
000419: 23,3225           01701                           STORE    X789
000420: 23,3226           66150        FAZAB5             LXA,1    SXA,1
000421: 23,3227           02772                                    EGRESS
000422: 23,3230           00052                                    QPRET
000423: 23,3231           77776                           EXIT
000424: 23,3232           04635                           TC       POSTJUMP                              #  EXIT
000425: 23,3233           27425                           CADR     INTWAKE
000426: 23,3234           52034        DOCSM              RTB      GOTO
000427: 23,3235           26723                                    MOVEPCSM
000428: 23,3236           47146                                    FAZAB
000429: 23,3237           45034        DOCSM1             RTB      CALL
000430: 23,3240           26674                                    MOVEACSM
000431: 23,3241           26114                                    SVDWN1                                #  STORE DOWNLINK STATE VECTOR
000432: 23,3242           77650                           GOTO
000433: 23,3243           47217                                    FAZAB4
000434: 23,3244  23,2521               ZEROD              =        ZEROVECS
000435: 23,3244           00066        54DD               DEC      54         B-14
000436: 23,3245           77771        6DD                DEC      -6         B-14
000437: 23,3246           00014        12DD               DEC      12         B-14
000438:
000439: 22,2000                                           SETLOC   RENDEZ
000440: 22,2000                                           BANK
000441: 22,3711                                           COUNT*   $$/INCOR
000442:
000443: 22,3711           51575        NEWZCOMP           VLOAD    ABVAL
000444: 22,3712           02643                                    ZI
000445: 22,3713           24045                           STOVL    NORMZI
000446: 22,3714           02651                                    ZI         +6
000447: 22,3715           41446                           ABVAL    PUSH
000448: 22,3716           50025                           DSU      BMN
000449: 22,3717           00045                                    NORMZI
000450: 22,3720           45723                                    +3
000451: 22,3721           45545                           DLOAD    STADR
000452: 22,3722           77732                           STORE    NORMZI
000453: 22,3723           51575                           VLOAD    ABVAL
000454: 22,3724           02657                                    ZI         +12D
000455: 22,3725           45206                           PUSH     DSU
000456: 22,3726           00045                                    NORMZI
000457: 22,3727           71240                           BMN      DLOAD
000458: 22,3730           45733                                    +3
000459: 22,3731           77626                           STADR
000460: 22,3732           77732                           STORE    NORMZI                                #  LARGEST ABVAL
000461: 22,3733           66145                           DLOAD    SXA,1
000462: 22,3734           00045                                    NORMZI
000463: 22,3735           00044                                    NORMZI                                #  SAVE X1
000464: 22,3736           62101                           NORM     INCR,1


000466: 22,3737           00047                                    X1
000467: 22,3740           00002                           DEC      2          B-14
000468: 22,3741           53775                           VLOAD    VSL*
000469: 22,3742           02643                                    ZI
000470: 22,3743           20201                                    0,1
000471: 22,3744           26643                           STOVL    ZI
000472: 22,3745           02651                                    ZI         +6
000473: 22,3746           77657                           VSL*
000474: 22,3747           20201                                    0,1
000475: 22,3750           26651                           STOVL    ZI         +6
000476: 22,3751           02657                                    ZI         +12D
000477: 22,3752           66057                           VSL*     SXA,1
000478: 22,3753           20201                                    0,1
000479: 22,3754           00045                                    NORMZI     +1                         #  SAVE SHIFT
000480: 22,3755           02657                           STORE    ZI         +12D
000481: 22,3756           54150                           LXA,1    XSU,1
000482: 22,3757           02103                                    NORMGAM
000483: 22,3760           00045                                    NORMZI     +1
000484: 22,3761           77660                           XSU,1
000485: 22,3762           00045                                    NORMZI     +1
000486: 22,3763           70130                           SXA,1    LXC,1
000487: 22,3764           02103                                    NORMGAM
000488: 22,3765           00045                                    NORMZI     +1
000489: 22,3766           40270                           XAD,1    SETPD
000490: 22,3767           00044                                    NORMZI
000491: 22,3770           00003                                    2D
000492: 22,3771           77650                           GOTO
000493: 22,3772           46667                                    INCOR2     -3
000494: 22,3773                        NORMZI             =        36D
000495:
000496:

End of include-file MEASUREMENT_INCORPORATION.agc.  Parent file is MAIN.agc


