
Source Code


000002:                                                                                                  #  Copyright:    Public domain.
000003:                                                                                                  #  Filename:     ORBITAL_INTEGRATION.agc
000004:                                                                                                  #  Purpose:      Part of the source code for Luminary 1A build 099.
000005:                                                                                                  #                It is part of the source code for the Lunar Module's (LM)
000006:                                                                                                  #                Apollo Guidance Computer (AGC), for Apollo 11.
000007:                                                                                                  #  Assembler:    yaYUL
000008:                                                                                                  #  Contact:      Ron Burkey <info@sandroid.org>.
000009:                                                                                                  #  Website:      www.ibiblio.org/apollo.
000010:                                                                                                  #  Pages:        1227-1248
000011:                                                                                                  #  Mod history:  2009-05-26 RSB  Adapted from the corresponding
000012:                                                                                                  #                                Luminary131 file, using page
000013:                                                                                                  #                                images from Luminary 1A.
000014:                                                                                                  #                2009-06-05 RSB  Fixed 3 typos.
000015:                                                                                                  #                2009-06-06 RSB  Page 1248 was missing entirely for some reason.
000016:                                                                                                  #                2009-06-07 RSB  Corrected a typo.
000017:
000018:                                                                                                  #  This source code has been transcribed or otherwise adapted from
000019:                                                                                                  #  digitized images of a hardcopy from the MIT Museum.  The digitization
000020:                                                                                                  #  was performed by Paul Fjeld, and arranged for by Deborah Douglas of
000021:                                                                                                  #  the Museum.  Many thanks to both.  The images (with suitable reduction
000022:                                                                                                  #  in storage size and consequent reduction in image quality as well) are
000023:                                                                                                  #  available online at www.ibiblio.org/apollo.  If for some reason you
000024:                                                                                                  #  find that the images are illegible, contact me at info@sandroid.org
000025:                                                                                                  #  about getting access to the (much) higher-quality images which Paul
000026:                                                                                                  #  actually created.
000027:
000028:                                                                                                  #  Notations on the hardcopy document read, in part:
000029:
000030:                                                                                                  #        Assemble revision 001 of AGC program LMY99 by NASA 2021112-61
000031:                                                                                                  #        16:27 JULY 14, 1969
000032:


000034:                                                                                                  #  ORBITAL INTEGRATION
000035:
000036:                                                                                                  #  DELETE
000037: 13,3675                                           BANK     13
000038: 11,2000                                           SETLOC   ORBITAL
000039: 11,2000                                           BANK
000040: 11,2376                                           COUNT*   $$/ORBIT
000041:
000042:                                                                                                  #  DELETE
000043: 11,2376           40354        KEPPREP            LXA,2    SETPD
000044: 11,2377           02030                                    PBODY
000045: 11,2400           00001                                    0
000046: 11,2401           75543                           DLOAD*   SQRT                                  #  SQRT(MU) (+18 OR +15)         0D      PL 2D
000047: 11,2402           51770                                    MUEARTH,2
000048: 11,2403           53515                           PDVL     UNIT                                  #                                        PL 8D
000049: 11,2404           01535                                    RCV
000050: 11,2405           60325                           PDDL     NORM                                  #  NORM R (+29 OR +27 - N1)      2D      PL 4D
000051: 11,2406           00045                                    36D
000052: 11,2407           00047                                    X1
000053: 11,2410           77715                           PDVL
000054: 11,2411           65241                           DOT      PDDL                                  #  F*SQRT(MU) (+7 OR +5)         4D      PL 6D
000055: 11,2412           01543                                    VCV
000056: 11,2413           02074                                    TAU.                                  #  (+28)
000057: 11,2414           60225                           DSU      NORM
000058: 11,2415           01551                                    TC
000059: 11,2416           00051                                    S1
000060: 11,2417           77742                           SR1
000061: 11,2420           65271                           DDV      PDDL
000062: 11,2421           00003                                    2D
000063: 11,2422           41405                           DMP      PUSH                                  #  FS (+6 +N1-N2)                6D      PL 8D
000064: 11,2423           00005                                    4D
000065: 11,2424           65316                           DSQ      PDDL                                  #  (FS)SQ (+12 +2(N1-N2))        8D      PL 10D
000066: 11,2425           00005                                    4D
000067: 11,2426           64716                           DSQ      PDDL*                                 #  SSQ/MU (-20R +2(N1-N2))       10D     PL 12D
000068: 11,2427           51770                                    MUEARTH,2
000069: 11,2430           40442                           SR3      SR4
000070: 11,2431           47515                           PDVL     VSQ                                   #  PREALIGN MU (+43 OR +37)      12D     PL 14D
000071: 11,2432           01543                                    VCV
000072: 11,2433           44205                           DMP      BDSU                                  #                                        PL 12D
000073: 11,2434           00045                                    36D
000074: 11,2435           41271                           DDV      DMP                                   #                                        PL 10D
000075: 11,2436           00003                                    2D                                    #  -(1/R-ALPHA) (+12 +3N1-2N2)
000076: 11,2437           53605                           DMP      SL*
000077: 11,2440           25774                                    DP2/3
000078: 11,2441           20176                                    0          -3,1                       #  10L(1/R-ALPHA) (+13 +2(N1-N2))
000079: 11,2442           43260                           XSU,1    DAD                                   #  2(FS)SQ - ETCETERA                    PL 8D
000080: 11,2443           00050                                    S1                                    #  X1 = N2-N1
000081: 11,2444           45257                           SL*      DSU                                   #  -FS+2(FS)SQ ETC (+6 +N1-N2)           PL 6D
000082: 11,2445           20211                                    8D,1
000083: 11,2446           41205                           DMP      DMP
000084: 11,2447           00001                                    0D
000085: 11,2450           00005                                    4D
000086: 11,2451           53657                           SL*      SL*


000088: 11,2452           20211                                    8D,1
000089: 11,2453           20201                                    0,1                                   #  S(-FS(1-2FS)-1/6...) (+17 OR +16)
000090: 11,2454           65215                           DAD      PDDL                                  #                                        PL 6D
000091: 11,2455           01553                                    XKEP
000092: 11,2456           53605                           DMP      SL*                                   #  S(+17 OR +16)
000093: 11,2457           00001                                    0D
000094: 11,2460           20202                                    1,1
000095: 11,2461           43204                           BOVB     DAD
000096: 11,2462           57753                                    TCDANZIG
000097: 11,2463           77626                           STADR
000098: 11,2464           75647                           STORE    XKEPNEW
000099: 11,2465           74020                           STQ      AXC,1
000100: 11,2466           02112                                    KEPRTN
000101: 11,2467           00012                           DEC      10         B-14
000102: 11,2470           74014                           BON      AXC,1
000103: 11,2471           00303                                    MOONFLAG
000104: 11,2472           24023                                    KEPLERN
000105: 11,2473           00002                           DEC      2          B-14
000106: 11,2474           77650                           GOTO
000107: 11,2475           24023                                    KEPLERN
000108:


000110: 11,2476           66350        FBR3               LXA,1    SSP
000111: 11,2477           01500                                    DIFEQCNT
000112: 11,2500           00051                                    S1
000113: 11,2501           77762                           DEC      -13        B-14
000114: 11,2502           54345                           DLOAD    SR
000115: 11,2503           02076                                    DT/2
000116: 11,2504           20612                                    9D
000117: 11,2505           61500                           TIX,1    ROUND
000118: 11,2506           22507                                    +1
000119: 11,2507           43206                           PUSH     DAD
000120: 11,2510           01551                                    TC
000121: 11,2511           16074                           STODL    TAU.
000122: 11,2512           77615                           DAD
000123: 11,2513           01517                                    TET
000124: 11,2514           35517                           STCALL   TET
000125: 11,2515           22376                                    KEPPREP
000126:


000128:                                                                                                  #  AGC ROUTINE TO COMPUTE ACCELERATION COMPONENTS.
000129:
000130: 11,2516           73150        ACCOMP             LXA,1    LXA,2
000131: 11,2517           02030                                    PBODY
000132: 11,2520           02030                                    PBODY
000133: 11,2521           77775                           VLOAD
000134: 11,2522           24007                                    ZEROVEC
000135: 11,2523           26062                           STOVL    FV
000136: 11,2524           02032                                    ALPHAV
000137: 11,2525           53257                           VSL*     VAD
000138: 11,2526           57605                                    0          -7,2
000139: 11,2527           01535                                    RCV
000140: 11,2530           02040                           STORE    BETAV
000141: 11,2531           65014                           BOF      XCHX,2
000142: 11,2532           01756                                    DIM0FLAG
000143: 11,2533           22540                                    +5
000144: 11,2534           01500                                    DIFEQCNT
000145: 11,2535           12132                           STORE    VECTAB,2
000146: 11,2536           77724                           XCHX,2
000147: 11,2537           01500                                    DIFEQCNT
000148: 11,2540           53575                           VLOAD    UNIT
000149: 11,2541           02032                                    ALPHAV
000150: 11,2542           16032                           STODL    ALPHAV
000151: 11,2543           00045                                    36D
000152: 11,2544           02070                           STORE    ALPHAM
000153: 11,2545           77624                           CALL
000154: 11,2546           22650                                    GAMCOMP
000155: 11,2547           66175                           VLOAD    SXA,1
000156: 11,2550           02040                                    BETAV
000157: 11,2551           00051                                    S2
000158: 11,2552           16032                           STODL    ALPHAV
000159: 11,2553           02072                                    BETAM
000160: 11,2554           02070                           STORE    ALPHAM
000161: 11,2555           71214                           BOF      DLOAD
000162: 11,2556           00342                                    MIDFLAG
000163: 11,2557           23022                                    OBLATE
000164: 11,2560           01517                                    TET
000165: 11,2561           77624                           CALL
000166: 11,2562           33664                                    LSPOS
000167: 11,2563           72174                           AXT,2    LXA,1
000168: 11,2564           00002                                    2
000169: 11,2565           00051                                    S2
000170: 11,2566           77614                           BOF
000171: 11,2567           00343                                    MOONFLAG
000172: 11,2570           22573                                    +3
000173: 11,2571           77076                           VCOMP    AXT,2
000174: 11,2572           00000                                    0
000175: 11,2573           02040                           STORE    BETAV
000176: 11,2574           26105                           STOVL    RPQV


000178: 11,2575           00003                                    2D
000179: 11,2576           02122                           STORE    RPSV
000180: 11,2577           45335                           SLOAD    DSU
000181: 11,2600           01012                                    MODREG
000182: 11,2601           25776                                    OCT27
000183: 11,2602           43030                           BHIZ     BOF
000184: 11,2603           22606                                    +3
000185: 11,2604           01756                                    DIM0FLAG
000186: 11,2605           22622                                    GETRPSV
000187: 11,2606           74375                           VLOAD    VXSC
000188: 11,2607           02032                                    ALPHAV
000189: 11,2610           02070                                    ALPHAM
000190: 11,2611           52257                           VSR*     VSU
000191: 11,2612           57175                                    1,2
000192: 11,2613           02040                                    BETAV
000193: 11,2614           77724                           XCHX,2
000194: 11,2615           01500                                    DIFEQCNT
000195: 11,2616           12140                           STORE    VECTAB     +6,2
000196: 11,2617           02114                           STORE    RQVV
000197: 11,2620           77724                           XCHX,2
000198: 11,2621           01500                                    DIFEQCNT
000199: 11,2622           62175        GETRPSV            VLOAD    INCR,1
000200: 11,2623           02105                                    RPQV
000201: 11,2624           00004                                    4
000202: 11,2625           43014                           CLEAR    BOF
000203: 11,2626           04260                                    RPQFLAG
000204: 11,2627           00343                                    MOONFLAG
000205: 11,2630           22635                                    +5
000206: 11,2631           53261                           VSR      VAD
000207: 11,2632           20612                                    9D
000208: 11,2633           02122                                    RPSV
000209: 11,2634           02122                           STORE    RPSV
000210: 11,2635           77624                           CALL
000211: 11,2636           22650                                    GAMCOMP
000212: 11,2637           62174                           AXT,2    INCR,1
000213: 11,2640           00004                                    4
000214: 11,2641           00004                                    4
000215: 11,2642           77775                           VLOAD
000216: 11,2643           02122                                    RPSV
000217: 11,2644           36040                           STCALL   BETAV
000218: 11,2645           22650                                    GAMCOMP
000219: 11,2646           77650                           GOTO
000220: 11,2647           23022                                    OBLATE
000221: 11,2650           74575        GAMCOMP            VLOAD    VSR1
000222: 11,2651           02040                                    BETAV
000223: 11,2652           40236                           VSQ      SETPD
000224: 11,2653           00001                                    0
000225: 11,2654           61501                           NORM     ROUND
000226: 11,2655           00040                                    31D
000227: 11,2656           60325                           PDDL     NORM                                  #  NORMED B SQUARED TO PD LIST


000229: 11,2657           02070                                    ALPHAM                                #  NORMALIZE (LESS ONE) LENGTH OF ALPHA
000230: 11,2660           00041                                    32D                                   #  SAVING NORM SCALE FACTOR IN X1
000231: 11,2661           63342                           SR1      PDVL
000232: 11,2662           02040                                    BETAV                                 #  C(PDL+2) = ALMOST NORMED ALPHA
000233: 11,2663           77656                           UNIT
000234: 11,2664           16040                           STODL    BETAV
000235: 11,2665           00045                                    36D
000236: 11,2666           02072                           STORE    BETAM
000237: 11,2667           55301                           NORM     BDDV                                  #  FORM NORMALIZE QUOTIEN ALPHAM/BETAM
000238: 11,2670           00042                                    33D
000239: 11,2671           41562                           SR1R     PUSH                                  #  C(PDL+2) = ALMOST NORMALIZE RHO.
000240: 11,2672           77743                           DLOAD*
000241: 11,2673           27710                                    ASCALE,1
000242: 11,2674           00051                           STORE    S1
000243: 11,2675           57124                           XCHX,2   XAD,2
000244: 11,2676           00050                                    S1
000245: 11,2677           00040                                    32D
000246: 11,2700           71264                           XSU,2    DLOAD
000247: 11,2701           00041                                    33D
000248: 11,2702           00003                                    2D
000249: 11,2703           65057                           SR*      XCHX,2
000250: 11,2704           57177                                    0          -1,2
000251: 11,2705           00050                                    S1
000252: 11,2706           74406                           PUSH     SR1R                                  #  RHO/4 TO 4D
000253: 11,2707           50315                           PDVL     DOT
000254: 11,2710           02032                                    ALPHAV
000255: 11,2711           02040                                    BETAV
000256: 11,2712           44372                           SL1R     BDSU                                  #  (RHO/4) - 2(ALPHAV/2.BETAV/2)
000257: 11,2713           57206                           PUSH     DMPR                                  #  TO PDL+6
000258: 11,2714           00005                                    4
000259: 11,2715           77752                           SL1
000260: 11,2716           43206                           PUSH     DAD
000261: 11,2717           25756                                    DQUARTER
000262: 11,2720           75406                           PUSH     SQRT
000263: 11,2721           41475                           DMPR     PUSH
000264: 11,2722           00013                                    10D
000265: 11,2723           43352                           SL1      DAD
000266: 11,2724           25756                                    DQUARTER
000267: 11,2725           43325                           PDDL     DAD                                   #  (1/4)+2((Q+1)/4)      TO PD+14D
000268: 11,2726           00013                                    10D
000269: 11,2727           24005                                    HALFDP
000270: 11,2730           72475                           DMPR     SL1
000271: 11,2731           00011                                    8D
000272: 11,2732           56215                           DAD      DDV
000273: 11,2733           25750                                    THREE/8
000274: 11,2734           00017                                    14D
000275: 11,2735           74275                           DMPR     VXSC
000276: 11,2736           00007                                    6
000277: 11,2737           02040                                    BETAV                                 #                _
000278: 11,2740           64515                           PDVL     VSR3                                  #  (G/2)(C(PD+4))B/2 TO PD+16D


000280: 11,2741           02032                                    ALPHAV
000281: 11,2742           41455                           VAD      PUSH                                  #  A12 + C(PD+16D) TO PD+16D
000282: 11,2743           41345                           DLOAD    DMP
000283: 11,2744           00001                                    0
000284: 11,2745           00015                                    12D
000285: 11,2746           61501                           NORM     ROUND
000286: 11,2747           00037                                    30D
000287: 11,2750           40665                           BDDV     DMP*
000288: 11,2751           00003                                    2
000289: 11,2752           51770                                    MUEARTH,2
000290: 11,2753           74276                           DCOMP    VXSC
000291: 11,2754           57124                           XCHX,2   XAD,2
000292: 11,2755           00050                                    S1
000293: 11,2756           00051                                    S2
000294: 11,2757           55064                           XSU,2    XSU,2
000295: 11,2760           00036                                    30D
000296: 11,2761           00037                                    31D
000297: 11,2762           77600                           BOV                                            #  CLEAR OVIND
000298: 11,2763           22764                                    +1
000299: 11,2764           65057                           VSR*     XCHX,2
000300: 11,2765           57177                                    0          -1,2
000301: 11,2766           00050                                    S1
000302: 11,2767           77655                           VAD
000303: 11,2770           02062                                    FV
000304: 11,2771           02062                           STORE    FV
000305: 11,2772           43400                           BOV      RVQ                                   #  RETURN IF NO OVERFLOW
000306: 11,2773           22774                                    +1
000307: 11,2774           51575        GOBAQUE            VLOAD    ABVAL
000308: 11,2775           01521                                    TDELTAV
000309: 11,2776           77654                           BZE
000310: 11,2777           23017                                    INT-ABRT
000311: 11,3000           54345                           DLOAD    SR
000312: 11,3001           02100                                    H
000313: 11,3002           20612                                    9D
000314: 11,3003           44206                           PUSH     BDSU
000315: 11,3004           01551                                    TC
000316: 11,3005           16074                           STODL    TAU.
000317: 11,3006           01517                                    TET
000318: 11,3007           45425                           DSU      STADR
000319: 11,3010           42260                           STCALL   TET
000320: 11,3011           22376                                    KEPPREP
000321: 11,3012           77624                           CALL
000322: 11,3013           23441                                    RECTIFY
000323: 11,3014           77614                           SETGO
000324: 11,3015           04020                                    RPQFLAG
000325: 11,3016           27257                                    TESTLOOP
000326:
000327: 11,3017           77776        INT-ABRT           EXIT
000328: 11,3020           05652                           TC       P00DOO
000329: 11,3021           00430                           OCT      00430
000330:


000332:                                                                                                  #  THE OBLATE ROUTINE COMPUTES THE ACCELERATION DUE TO OBLATENESS.  IT USES THE UNIT OF THE VEHICLE
000333:                                                                                                  #  POSITION VECTOR FOUND IN ALPHAV AND THE DISTANCE TO THE CENTER IN ALPHAM.  THIS IS ADDED TO THE SUM OF THE
000334:                                                                                                  #  DISTURBING ACCELERATIONS IN FV AND THE PROPER DIFEQ STAGE IS CALLED VIA X1.
000335:
000336: 11,3022           71354        OBLATE             LXA,2    DLOAD
000337: 11,3023           02030                                    PBODY
000338: 11,3024           02070                                    ALPHAM
000339: 11,3025           44601                           SETPD    DSU*
000340: 11,3026           00001                                    0
000341: 11,3027           50053                                    RDE,2
000342: 11,3030           43044                           BPL      BOF                                   #  GET URPV
000343: 11,3031           23232                                    NBRANCH
000344: 11,3032           00343                                    MOONFLAG
000345: 11,3033           23241                                    COSPHIE
000346: 11,3034           65375                           VLOAD    PDDL
000347: 11,3035           02032                                    ALPHAV
000348: 11,3036           01517                                    TET
000349: 11,3037           45125                           PDDL     CALL
000350: 11,3040           25746                                    3/5
000351: 11,3041           51670                                    R-TO-RP
000352: 11,3042           00017                           STORE    URPV
000353: 11,3043           47375                           VLOAD    VXV
000354: 11,3044           02013                                    504LM
000355: 11,3045           24001                                    ZUNIT
000356: 11,3046           61255                           VAD      VXM
000357: 11,3047           24001                                    ZUNIT
000358: 11,3050           00025                                    MMATRIX
000359: 11,3051           77656                           UNIT                                           #  POSSIBLY UNNECESSARY
000360: 11,3052           00025        COMTERM            STORE    UZ
000361: 11,3053           57345                           DLOAD    DMPR
000362: 11,3054           00023                                    COSPHI/2
000363: 11,3055           25760                                    3/32
000364: 11,3056           63525                           PDDL     DSQ                                   #  P2/64 TO PD0
000365: 11,3057           00023                                    COSPHI/2
000366: 11,3060           45275                           DMPR     DSU
000367: 11,3061           25762                                    15/16
000368: 11,3062           25754                                    3/64
000369: 11,3063           57206                           PUSH     DMPR                                  #  P3/32 TO PD2
000370: 11,3064           00023                                    COSPHI/2
000371: 11,3065           76405                           DMP      SL1R
000372: 11,3066           25766                                    7/12
000373: 11,3067           57325                           PDDL     DMPR
000374: 11,3070           00001                                    0
000375: 11,3071           25774                                    2/3
000376: 11,3072           41421                           BDSU     PUSH                                  #  P4/128 TO PD4
000377: 11,3073           57275                           DMPR     DMPR
000378: 11,3074           00023                                    COSPHI/2                              #  BEGIN COMPUTING P5/1024
000379: 11,3075           25770                                    9/16
000380: 11,3076           57325                           PDDL     DMPR
000381: 11,3077           00003                                    2
000382: 11,3100           25772                                    5/128


000384: 11,3101           77621                           BDSU
000385: 11,3102           77603                           DMP*
000386: 11,3103           51764                                    J4REQ/J3,2
000387: 11,3104           43271                           DDV      DAD                                   #               -3
000388: 11,3105           02070                                    ALPHAM                                #  (((P5/256)B 2  /R+P4/32)  /R+P3/8)ALPHAV
000389: 11,3106           00005                                    4                                     #             4             3
000390: 11,3107           56273                           DMPR*    DDV
000391: 11,3110           51760                                    2J3RE/J2,2
000392: 11,3111           02070                                    ALPHAM
000393: 11,3112           74215                           DAD      VXSC
000394: 11,3113           00003                                    2
000395: 11,3114           02032                                    ALPHAV
000396: 11,3115           14033                           STODL    TVEC
000397: 11,3116           70403                           DMP*     SR1
000398: 11,3117           51764                                    J4REQ/J3,2
000399: 11,3120           43271                           DDV      DAD
000400: 11,3121           02070                                    ALPHAM
000401: 11,3122           50473                           DMPR*    SR3
000402: 11,3123           51760                                    2J3RE/J2,2
000403: 11,3124           43271                           DDV      DAD
000404: 11,3125           02070                                    ALPHAM
000405: 11,3126           76561                           VXSC     VSL1
000406: 11,3127           00025                                    UZ
000407: 11,3130           77645                           BVSU
000408: 11,3131           00033                                    TVEC
000409: 11,3132           14033                           STODL    TVEC
000410: 11,3133           02070                                    ALPHAM
000411: 11,3134           63501                           NORM     DSQ
000412: 11,3135           00047                                    X1
000413: 11,3136           60316                           DSQ      NORM
000414: 11,3137           00051                                    S1                                    #          4
000415: 11,3140           54606                           PUSH     BDDV*                                 #  NORMED R  TO 0D
000416: 11,3141           51754                                    J2REQSQ,2
000417: 11,3142           40161                           VXSC     BOV
000418: 11,3143           00033                                    TVEC
000419: 11,3144           23145                                    +1                                    #  (RESET OVERFLOW INDICATOR)
000420: 11,3145           56070                           XAD,1    XAD,1
000421: 11,3146           00046                                    X1
000422: 11,3147           00046                                    X1
000423: 11,3150           53670                           XAD,1    VSL*
000424: 11,3151           00050                                    S1
000425: 11,3152           20153                                    0          -22D,1
000426: 11,3153           40055                           VAD      BOV
000427: 11,3154           02062                                    FV
000428: 11,3155           22774                                    GOBAQUE
000429: 11,3156           36062                           STCALL   FV
000430: 11,3157           27725                                    QUALITY1
000431:
000432: 11,3160           77716        QUALITY3           DSQ                                            #  J22 TERM X R**4 IN 2D, SCALED B61
000433:                                                                                                  #  AS VECTOR.


000435: 11,3161           41206                           PUSH     DMP                                   #  STORE COSPHI**2 SCALED B2 IN 8D
000436: 11,3162           27712                                    5/8                                   #  5 SCALED B3
000437: 11,3163           60525                           PDDL     SR2                                   #  PUT 5 COSPHI**2, D5, IN 8D.  GET
000438:                                                                                                  #  COSPHI**2 D2 FROM 8D
000439: 11,3164           44215                           DAD      BDSU                                  #  END UP WITH (1-7 COSPHI**2), B5
000440: 11,3165           00011                                    8D                                    #  ADDING COSPHI**2 B4 SAME AS COSPHI**2
000441:                                                                                                  #  X 2 D5
000442: 11,3166           11043                                    D1/32                                 #  1 SCALED B5
000443: 11,3167           41205                           DMP      DMP
000444: 11,3170           00017                                    URPV                                  #  X COMPONENT
000445: 11,3171           27712                                    5/8                                   #  5 SCALED B3
000446: 11,3172           56561                           VXSC     VSL5                                  #  AFTER SHIFT, SCALED B5
000447: 11,3173           00017                                    URPV                                  #  VECTOR, B1.
000448: 11,3174           77725                           PDDL                                           #  VECTOR INTO 8D, 10D, 12D, SCALED B5.
000449:                                                                                                  #  GET 5 COSPHI**2 OUT OF 8D
000450: 11,3175           43225                           DSU      DAD
000451: 11,3176           11043                                    D1/32                                 #  1 B5
000452: 11,3177           00011                                    8D                                    #  X COMPONENT (SAME AS MULTIPLYING
000453:                                                                                                  #  BY UNITX)
000454: 11,3200           14011                           STODL    8D
000455: 11,3201           00017                                    URPV                                  #  X COMPONENT
000456: 11,3202           41205                           DMP      DMP
000457: 11,3203           00023                                    URPV       +4                         #  Z COMPONENT
000458: 11,3204           27712                                    5/8                                   #  5 B3 ANSWER B5
000459: 11,3205           43352                           SL1      DAD                                   #  FROM 12D FOR Z COMPONENT (SL1 GIVES 10
000460:                                                                                                  #  INSTEAD OF 5 FOR COEFFICIENT)
000461: 11,3206           60325                           PDDL     NORM                                  #  BACK INTO 12D FOR Z COMPNENT.
000462: 11,3207           02070                                    ALPHAM                                #  SCALED B27 FOR MOON
000463: 11,3210           00050                                    X2
000464: 11,3211           67206                           PUSH     SLOAD                                 #  STORE IN 14D, DESTROYING URPV
000465:                                                                                                  #  X COMPONENT
000466: 11,3212           01354                                    E32C31RM
000467: 11,3213           74271                           DDV      VXSC                                  #  IF X2 = 0, DIVISION GIVES B53, VXSC
000468:                                                                                                  #  OUT OF 8D B5 GIVES B58
000469: 11,3214           53257                           VSL*     VAD                                   #  SHIFT MAKES B61, FOR ADDITION OF
000470:                                                                                                  #  VECTOR IN 2D
000471: 11,3215           57601                                    0          -3,2
000472: 11,3216           70257                           VSL*     V/SC                                  #  OPERAND FROM 0D.  B108 FOR X1 = 0
000473: 11,3217           20146                                    0          -27D,1                     #  FOR X1 = 0, MAKES B88, GIVING B-20
000474:                                                                                                  #  FOR RESULT.
000475: 11,3220           65325                           PDDL     PDDL
000476: 11,3221           01517                                    TET
000477: 11,3222           27712                                    5/8                                   #  ANY NON-ZERO CONSTANT
000478: 11,3223           45154                           LXA,2    CALL                                  #  POSITION IN 0D, TIME IN 6D.  X2 LEFT
000479:                                                                                                  #  ALONE.
000480: 11,3224           02030                                    PBODY
000481: 11,3225           55716                                    RP-TO-R
000482: 11,3226           40055                           VAD      BOV                                   #  OVERFLOW INDICATOR RESET IN "RP-TO-R"
000483: 11,3227           02062                                    FV
000484: 11,3230           22774                                    GOBAQUE


000486: 11,3231           02062                           STORE    FV
000487: 11,3232           72135        NBRANCH            SLOAD    LXA,1
000488: 11,3233           01501                                    DIFEQCNT
000489: 11,3234           00154                                    MPAC
000490: 11,3235           73205                           DMP      CGOTO
000491: 11,3236           27714                                    -1/12
000492: 11,3237           00155                                    MPAC
000493: 11,3240           23247                                    DIFEQTAB
000494: 11,3241           77745        COSPHIE            DLOAD
000495: 11,3242           02036                                    ALPHAV     +4
000496: 11,3243           24023                           STOVL    COSPHI/2
000497: 11,3244           24001                                    ZUNIT
000498: 11,3245           77650                           GOTO
000499: 11,3246           23052                                    COMTERM
000500: 11,3247           23466        DIFEQTAB           CADR     DIFEQ+0
000501: 11,3250           23472                           CADR     DIFEQ+1
000502: 11,3251           23503                           CADR     DIFEQ+2
000503: 11,3252           77214        TIMESTEP           BOF      VLOAD
000504: 11,3253           00342                                    MIDFLAG
000505: 11,3254           23303                                    RECTEST
000506: 11,3255           01535                                    RCV
000507: 11,3256           41241                           DOT      DMP
000508: 11,3257           01543                                    VCV
000509: 11,3260           02076                                    DT/2                                  #  (R.V) X (DELTA T)
000510: 11,3261           77640                           BMN
000511: 11,3262           23303                                    RECTEST
000512: 11,3263           43014                           BON      BOF
000513: 11,3264           00303                                    MOONFLAG
000514: 11,3265           23360                                    LUNSPH
000515: 11,3266           04340                                    RPQFLAG
000516: 11,3267           23355                                    EARSPH
000517: 11,3270           45145                           DLOAD    CALL
000518: 11,3271           01517                                    TET
000519: 11,3272           33664                                    LSPOS                                 #  RPQV IN MPAC
000520: 11,3273           02105                           STORE    RPQV                                  #  RPQV
000521: 11,3274           77754                           LXA,2
000522: 11,3275           02030                                    PBODY
000523: 11,3276           51445        INLUNCHK           BVSU     ABVAL
000524: 11,3277           01535                                    RCV
000525: 11,3300           50025                           DSU      BMN
000526: 11,3301           27720                                    RSPHERE
000527: 11,3302           23375                                    DOSWITCH
000528: 11,3303           51575        RECTEST            VLOAD    ABVAL                                 #  RECTIFY IF
000529: 11,3304           01521                                    TDELTAV
000530: 11,3305           77600                           BOV
000531: 11,3306           23331                                    CALLRECT
000532: 11,3307           51025                           DSU      BPL                                   #        1) EITHER TDELTAV OR TNUV EQUALS OR
000533: 11,3310           25764                                    3/4                                   #           EXCEEDS 3/4 IN MAGNITUDE
000534: 11,3311           23331                                    CALLRECT
000535: 11,3312           53615                           DAD      SL*                                   #                        OR


000537: 11,3313           25764                                    3/4
000538: 11,3314           57605                                    0          -7,2                       #        2) ABVAL(TDELTAV) EQUALS OR EXCEEDS
000539: 11,3315           45271                           DDV      DSU                                   #           .01(ABVAL(RCV))
000540: 11,3316           00013                                    10D
000541: 11,3317           27716                                    RECRATIO
000542: 11,3320           77244                           BPL      VLOAD
000543: 11,3321           23331                                    CALLRECT
000544: 11,3322           01527                                    TNUV
000545: 11,3323           45246                           ABVAL    DSU
000546: 11,3324           25764                                    3/4
000547: 11,3325           77600                           BOV
000548: 11,3326           23331                                    CALLRECT
000549: 11,3327           77640                           BMN
000550: 11,3330           23333                                    INTGRATE
000551: 11,3331           77624        CALLRECT           CALL
000552: 11,3332           23441                                    RECTIFY
000553: 11,3333           77775        INTGRATE           VLOAD
000554: 11,3334           01527                                    TNUV
000555: 11,3335           25135                           STOVL    ZV
000556: 11,3336           01521                                    TDELTAV
000557: 11,3337           01127                           STORE    YV
000558: 11,3340           77614                           CLEAR
000559: 11,3341           00261                                    JSWITCH
000560: 11,3342           66375        DIFEQ0             VLOAD    SSP
000561: 11,3343           01127                                    YV
000562: 11,3344           01501                                    DIFEQCNT
000563: 11,3345           00000                                    0
000564: 11,3346           16032                           STODL    ALPHAV
000565: 11,3347           24007                                    DPZERO
000566: 11,3350           02100                           STORE    H                                     #  START H AT ZERO.  GOES 0(DELT/2)DELT.
000567: 11,3351           52014                           BON      GOTO
000568: 11,3352           00301                                    JSWITCH
000569: 11,3353           23705                                    DOW..
000570: 11,3354           22516                                    ACCOMP
000571: 11,3355           52175        EARSPH             VLOAD    GOTO
000572: 11,3356           02105                                    RPQV
000573: 11,3357           23276                                    INLUNCHK
000574: 11,3360           60545        LUNSPH             DLOAD    SR2
000575: 11,3361           00013                                    10D
000576: 11,3362           50025                           DSU      BMN
000577: 11,3363           27720                                    RSPHERE
000578: 11,3364           23303                                    RECTEST
000579: 11,3365           71214                           BOF      DLOAD
000580: 11,3366           04340                                    RPQFLAG
000581: 11,3367           23375                                    DOSWITCH
000582: 11,3370           01517                                    TET
000583: 11,3371           77624                           CALL
000584: 11,3372           33664                                    LUNPOS
000585: 11,3373           77676                           VCOMP
000586: 11,3374           02105                           STORE    RPQV


000588: 11,3375           77624        DOSWITCH           CALL
000589: 11,3376           23401                                    ORIGCHNG
000590: 11,3377           77650                           GOTO
000591: 11,3400           23333                                    INTGRATE
000592: 11,3401           45020        ORIGCHNG           STQ      CALL
000593: 11,3402           02112                                    ORIGEX
000594: 11,3403           23441                                    RECTIFY
000595: 11,3404           53775                           VLOAD    VSL*
000596: 11,3405           01535                                    RCV
000597: 11,3406           57576                                    0,2
000598: 11,3407           53651                           VSU      VSL*
000599: 11,3410           02105                                    RPQV
000600: 11,3411           57574                                    2,2
000601: 11,3412           01503                           STORE    RRECT
000602: 11,3413           15535                           STODL    RCV
000603: 11,3414           01517                                    TET
000604: 11,3415           77624                           CALL
000605: 11,3416           33775                                    LUNVEL
000606: 11,3417           57414                           BOF      VCOMP
000607: 11,3420           00343                                    MOONFLAG
000608: 11,3421           23422                                    +1
000609: 11,3422           53715                           PDVL     VSL*
000610: 11,3423           01543                                    VCV
000611: 11,3424           57576                                    0,2
000612: 11,3425           77651                           VSU
000613: 11,3426           77657                           VSL*
000614: 11,3427           57574                                    0          +2,2
000615: 11,3430           01511                           STORE    VRECT
000616: 11,3431           01543                           STORE    VCV
000617: 11,3432           67154                           LXA,2    SXA,2
000618: 11,3433           02112                                    ORIGEX
000619: 11,3434           00052                                    QPRET
000620: 11,3435           52014                           BON      GOTO
000621: 11,3436           00303                                    MOONFLAG
000622: 11,3437           26711                                    CLRMOON
000623: 11,3440           26716                                    SETMOON


000625:                                                                                                  #  THE RECTIFY SUBROUTINE IS CALLED BY THE INTEGRATION PROGRAM AND OCCASIONALLY BY THE MEASUREMENT INCORPORATION
000626:                                                                                                  #  ROUTINES TO ESTABLISH A NEW CONIC.
000627:
000628: 11,3441           77354        RECTIFY            LXA,2    VLOAD
000629: 11,3442           02030                                    PBODY
000630: 11,3443           01521                                    TDELTAV
000631: 11,3444           53257                           VSL*     VAD
000632: 11,3445           57605                                    0          -7,2
000633: 11,3446           01535                                    RCV
000634: 11,3447           01503                           STORE    RRECT
000635: 11,3450           25535                           STOVL    RCV
000636: 11,3451           01527                                    TNUV
000637: 11,3452           53257                           VSL*     VAD
000638: 11,3453           57602                                    0          -4,2
000639: 11,3454           01543                                    VCV
000640: 11,3455           01511        MINIRECT           STORE    VRECT
000641: 11,3456           25543                           STOVL    VCV
000642: 11,3457           24007                                    ZEROVEC
000643: 11,3460           01521                           STORE    TDELTAV
000644: 11,3461           15527                           STODL    TNUV
000645: 11,3462           24007                                    ZEROVEC
000646: 11,3463           01551                           STORE    TC
000647: 11,3464           01553                           STORE    XKEP
000648: 11,3465           77616                           RVQ
000649:


000651:                                                                                                  #  THE THREE DIFEQ ROUTINES -- DIFEQ+0, DIFEQ+12, DIFEQ+24 -- ARE ENTERED TO PROCESS THE CONTRIBUTIONS AT THE
000652:                                                                                                  #  BEGINNING, MIDDLE, AND END OF THE TIMESTEP, RESPECTIVELY.  THE UPDATING IS DONE BY THE NYSTROM METHOD.
000653:
000654: 11,3466           64575        DIFEQ+0            VLOAD    VSR3
000655: 11,3467           02062                                    FV
000656: 11,3470           36046                           STCALL   PHIV
000657: 11,3471           23646                                    DIFEQCOM
000658: 11,3472           74575        DIFEQ+1            VLOAD    VSR1
000659: 11,3473           02062                                    FV
000660: 11,3474           53206                           PUSH     VAD
000661: 11,3475           02046                                    PHIV
000662: 11,3476           26054                           STOVL    PSIV
000663: 11,3477           53362                           VSR1     VAD
000664: 11,3500           02046                                    PHIV
000665: 11,3501           36046                           STCALL   PHIV
000666: 11,3502           23646                                    DIFEQCOM
000667: 11,3503           57345        DIFEQ+2            DLOAD    DMPR
000668: 11,3504           02100                                    H
000669: 11,3505           25774                                    DP2/3
000670: 11,3506           74206                           PUSH     VXSC
000671: 11,3507           02046                                    PHIV
000672: 11,3510           53372                           VSL1     VAD
000673: 11,3511           01135                                    ZV
000674: 11,3512           53361                           VXSC     VAD
000675: 11,3513           02100                                    H
000676: 11,3514           01127                                    YV
000677: 11,3515           25127                           STOVL    YV
000678: 11,3516           02062                                    FV
000679: 11,3517           53322                           VSR3     VAD
000680: 11,3520           02054                                    PSIV
000681: 11,3521           76561                           VXSC     VSL1
000682: 11,3522           77655                           VAD
000683: 11,3523           01135                                    ZV
000684: 11,3524           01135                           STORE    ZV
000685: 11,3525           45014                           BOFF     CALL
000686: 11,3526           00341                                    JSWITCH
000687: 11,3527           23577                                    ENDSTATE
000688: 11,3530           11244                                    GRP2PC
000689: 11,3531           77354                           LXA,2    VLOAD
000690: 11,3532           01117                                    COLREG
000691: 11,3533           01135                                    ZV
000692: 11,3534           77732                           VSL3                                           #  ADJUST W-POSITION FOR STORAGE
000693: 11,3535           12467                           STORE    W          +54D,2
000694: 11,3536           77775                           VLOAD
000695: 11,3537           01127                                    YV
000696: 11,3540           40132                           VSL3     BOV
000697: 11,3541           23671                                    WMATEND
000698: 11,3542           12401                           STORE    W,2
000699:
000700: 11,3543           77624                           CALL
000701: 11,3544           11244                                    GRP2PC


000703: 11,3545           66354                           LXA,2    SSP
000704: 11,3546           01117                                    COLREG
000705: 11,3547           00052                                    S2
000706: 11,3550           00000                                    0
000707: 11,3551           67114                           INCR,2   SXA,2
000708: 11,3552           00006                                    6
000709: 11,3553           01126                                    YV
000710: 11,3554           45104                           TIX,2    CALL
000711: 11,3555           23642                                    RELOADSV
000712: 11,3556           11244                                    GRP2PC
000713: 11,3557           67154                           LXA,2    SXA,2
000714: 11,3560           01126                                    YV
000715: 11,3561           01117                                    COLREG
000716:
000717: 11,3562           77624        NEXTCOL            CALL
000718: 11,3563           11244                                    GRP2PC
000719: 11,3564           76754                           LXA,2    VLOAD*
000720: 11,3565           01117                                    COLREG
000721: 11,3566           75376                                    W,2
000722: 11,3567           77722                           VSR3                                           #  ADJUST W-POSITION FOR INTEGRATION
000723: 11,3570           01127                           STORE    YV
000724: 11,3571           76173                           VLOAD*   AXT,1
000725: 11,3572           75310                                    W          +54D,2
000726: 11,3573           00000                                    0
000727: 11,3574           77722                           VSR3                                           #  ADJUST W-VELOCITY FOR INTEGRATION
000728: 11,3575           35135                           STCALL   ZV
000729: 11,3576           23342                                    DIFEQ0
000730:
000731: 11,3577           77200        ENDSTATE           BOV      VLOAD
000732: 11,3600           22774                                    GOBAQUE
000733: 11,3601           01135                                    ZV
000734: 11,3602           25527                           STOVL    TNUV
000735: 11,3603           01127                                    YV
000736: 11,3604           01521                           STORE    TDELTAV
000737: 11,3605           43014                           BON      BOFF
000738: 11,3606           04715                                    MIDAVFLG
000739: 11,3607           27633                                    CKMID2                                #  CHECK FOR MID2 BEFORE GOING TO TIMEINC
000740: 11,3610           01756                                    DIM0FLAG
000741: 11,3611           27257                                    TESTLOOP
000742: 11,3612           77776                           EXIT
000743: 11,3613           05353                           TC       PHASCHNG
000744: 11,3614           04022                           OCT      04022                                 #  PHASE 1
000745: 11,3615           05504                           TC       UPFLAG                                #  PHASE CHANGE HAS OCCURRED BETWEEN
000746: 11,3616           00236                           ADRES    REINTFLG                              #  INSTALL AND INTWAKE
000747: 11,3617           06037                           TC       INTPRET
000748: 11,3620           77731                           SSP
000749: 11,3621           00053                                    QPRET
000750: 11,3622           23627                                    AMOVED
000751: 11,3623           52014                           BON      GOTO
000752: 11,3624           01714                                    VINTFLAG


000754: 11,3625           26661                                    ATOPCSM
000755: 11,3626           26734                                    ATOPLEM
000756: 11,3627           66214        AMOVED             SET      SSP
000757: 11,3630           00061                                    JSWITCH
000758: 11,3631           01120                                    COLREG
000759: 11,3632           77741                           DEC      -30        B-14
000760: 11,3633           66214                           BOFF     SSP
000761: 11,3634           01755                                    D6OR9FLG
000762: 11,3635           23562                                    NEXTCOL
000763: 11,3636           01120                                    COLREG
000764: 11,3637           77717                           DEC      -48        B-14
000765: 11,3640           77650                           GOTO
000766: 11,3641           23562                                    NEXTCOL
000767:
000768: 11,3642           77745        RELOADSV           DLOAD                                          #  RELOAD TEMPORARY STATE VECTOR
000769: 11,3643           01116                                    TDEC                                  #  FROM PERMANENT IN CASE OF
000770: 11,3644           34041                           STCALL   TDEC1
000771: 11,3645           27141                                    INTEGRV2                              #  BY STARTING AT INTEGRV2.
000772: 11,3646           43345        DIFEQCOM           DLOAD    DAD                                   #  INCREMENT H AND DIFEQCNT.
000773: 11,3647           02076                                    DT/2
000774: 11,3650           02100                                    H
000775: 11,3651           66110                           INCR,1   SXA,1
000776: 11,3652           77763                           DEC      -12        B-14
000777: 11,3653           01500                                    DIFEQCNT                              #  DIFEQCNT SET FOR NEXT ENTRY.
000778: 11,3654           02100                           STORE    H
000779: 11,3655           74561                           VXSC     VSR1
000780: 11,3656           02062                                    FV
000781: 11,3657           74255                           VAD      VXSC
000782: 11,3660           01135                                    ZV
000783: 11,3661           02100                                    H
000784: 11,3662           77655                           VAD
000785: 11,3663           01127                                    YV
000786: 11,3664           02032                           STORE    ALPHAV
000787: 11,3665           52014                           BON      GOTO
000788: 11,3666           00301                                    JSWITCH
000789: 11,3667           23705                                    DOW..
000790: 11,3670           22476                                    FBR3
000791:
000792: 11,3671           43014        WMATEND            CLEAR    CLEAR
000793: 11,3672           01676                                    DIM0FLAG                              #  DON'T INTEGRATE W THIS TIME
000794: 11,3673           01671                                    ORBWFLAG                              #  INVALIDATE W
000795: 11,3674           77614                           CLEAR
000796: 11,3675           02676                                    RENDWFLG
000797: 11,3676           77414                           SET      EXIT
000798: 11,3677           01472                                    STATEFLG                              #  PICK UP STATE VECTOR UPDATE
000799: 11,3700           05567                           TC       ALARM
000800: 11,3701           00421                           OCT      421
000801: 11,3702           06037                           TC       INTPRET


000803: 11,3703           77650                           GOTO
000804: 11,3704           27257                                    TESTLOOP                              #  FINISH INTEGRATING STATE VECTOR
000805:


000807:                                                                                                  #  ORBITAL ROUTINE FOR EXTRAPOLATION OF THE W MATRIX.  IT COMPUTES THE SECOND DERIVATIVE OF EACH COLUMN POSITION
000808:                                                                                                  #  VECTOR OF THE MATRIX AND CALLS THE NYSTROM INTEGRATION ROUTINES TO SOLVE THE DIFFERENTIAL EQUATIONS.  THE PROGRAM
000809:                                                                                                  #  USES A TABLE OF VEHICLE POSITION VECTORS COMPUTED DURING THE INTEGRATION OF THE VEHICLE'S POSITION AND VELOCITY.
000810:
000811: 11,3705           70754        DOW..              LXA,2    DLOAD*
000812: 11,3706           02030                                    PBODY
000813: 11,3707           51770                                    MUEARTH,2
000814: 11,3710           36072                           STCALL   BETAM
000815: 11,3711           23733                                    DOW..1
000816: 11,3712           02062                           STORE    FV
000817: 11,3713           62014                           BOF      INCR,1
000818: 11,3714           00342                                    MIDFLAG
000819: 11,3715           23232                                    NBRANCH
000820: 11,3716           77771                           DEC      -6         B-14
000821: 11,3717           70744                           LXC,2    DLOAD*
000822: 11,3720           02030                                    PBODY
000823: 11,3721           51772                                    MUEARTH    -2,2
000824: 11,3722           36072                           STCALL   BETAM
000825: 11,3723           23733                                    DOW..1
000826: 11,3724           50414                           BON      VSR6
000827: 11,3725           00303                                    MOONFLAG
000828: 11,3726           23727                                    +1
000829: 11,3727           77655                           VAD
000830: 11,3730           02062                                    FV
000831: 11,3731           36062                           STCALL   FV
000832: 11,3732           23232                                    NBRANCH
000833: 11,3733           60575        DOW..1             VLOAD    VSR4
000834: 11,3734           02032                                    ALPHAV
000835: 11,3735           53513                           PDVL*    UNIT
000836: 11,3736           02132                                    VECTAB,1
000837: 11,3737           46315                           PDVL     VPROJ
000838: 11,3740           02032                                    ALPHAV
000839: 11,3741           52361                           VXSC     VSU
000840: 11,3742           25764                                    3/4
000841: 11,3743           60325                           PDDL     NORM
000842: 11,3744           00045                                    36D
000843: 11,3745           00052                                    S2
000844: 11,3746           63406                           PUSH     DSQ
000845: 11,3747           77605                           DMP
000846: 11,3750           65301                           NORM     PDDL
000847: 11,3751           00043                                    34D
000848: 11,3752           02072                                    BETAM
000849: 11,3753           56342                           SR1      DDV
000850: 11,3754           77761                           VXSC
000851: 11,3755           57154                           LXA,2    XAD,2
000852: 11,3756           00051                                    S2
000853: 11,3757           00051                                    S2
000854: 11,3760           57074                           XAD,2    XAD,2
000855: 11,3761           00051                                    S2
000856: 11,3762           00042                                    34D
000857: 11,3763           43457                           VSL*     RVQ


000859: 11,3764           57606                                    0          -8D,2
000860:
000861:                                                                                                  #  ********************************************************************************
000862:                                                                                                  #  ********************************************************************************
000863: 11,3765           43131        SETITCTR           SSP      BOFF                                  #  SET ITERCTR FOR LAMBERT CALLS.  THIS
000864: 11,3766           00027                                    ITERCTR                               #  CODING BELONGS IN INITVEL AND IS HERE
000865: 11,3767           00024                                    20D                                   #  FOR PURPOSES OF A ONE-MODULE
000866: 11,3770           03752                                    AVEGFLAG                              #  REMANUFACTURE ONLY.  CODING SHOULD
000867: 11,3771           25212                                    LAMBERT                               #  BE MOVED BACK TO INITVEL FOR LUMINARY 1B
000868: 11,3772           52131                           SSP      GOTO
000869: 11,3773           00027                                    ITERCTR
000870: 11,3774           00005                                    5
000871: 11,3775           25212                                    LAMBERT
000872:                                                                                                  #  ********************************************************************************
000873:                                                                                                  #  ********************************************************************************
000874:
000875: 12,2000                                           SETLOC   ORBITAL1
000876: 12,2000                                           BANK
000877:
000878: 12,3745           04631 23146  3/5                2DEC     .6         B-2
000879:
000880: 12,3747           14000 00000  THREE/8            2DEC     .375
000881:
000882: 12,3751           02314 31463  .3D                2DEC     .3         B-2
000883:
000884: 12,3753           01400 00000  3/64               2DEC     3          B-6
000885:
000886: 12,3755           10000 00000  DP1/4              2DEC     .25
000887:
000888: 12,3757  12,3755               DQUARTER           EQUALS   DP1/4
000889: 12,3757  12,3755               POS1/4             EQUALS   DP1/4
000890: 12,3757           03000 00000  3/32               2DEC     3          B-5
000891:
000892: 12,3761           36000 00000  15/16              2DEC     15.        B-4
000893:
000894: 12,3763           30000 00000  3/4                2DEC     3.0        B-2
000895:
000896: 12,3765           22525 12525  7/12               2DEC     .5833333333
000897:
000898: 12,3767           22000 00000  9/16               2DEC     9          B-4
000899:
000900: 12,3771           01200 00000  5/128              2DEC     5          B-7
000901:
000902: 12,3773  12,2006               DPZERO             EQUALS   ZEROVEC
000903: 12,3773           25252 25253  DP2/3              2DEC     .6666666667
000904:
000905: 12,3775  12,3773               2/3                EQUALS   DP2/3
000906: 12,3775           00027        OCT27              OCT      27
000907:


000909: 13,3675                                           BANK     13
000910: 13,2000                                           SETLOC   ORBITAL2
000911: 13,2000                                           BANK
000912:                                                                                                  #  IT IS VITAL THAT THE FOLLOWING CONSTANTS NOT BE SHUFFLED
000913: 13,3675           77764                           DEC      -11        B-14
000914: 13,3676           77775                           DEC      -2         B-14
000915: 13,3677           77766                           DEC      -9         B-14
000916: 13,3700           77771                           DEC      -6         B-14
000917: 13,3701           77775                           DEC      -2         B-14
000918: 13,3702           77775                           DEC      -2         B-14
000919: 13,3703           00000                           DEC      0          B-14
000920: 13,3704           77763                           DEC      -12        B-14
000921: 13,3705           77766                           DEC      -9         B-14
000922: 13,3706           77773                           DEC      -4         B-14
000923: 13,3707           77770        ASCALE             DEC      -7         B-14
000924: 13,3710           77771                           DEC      -6         B-14
000925: 13,3711           24000 00000  5/8                2DEC     5          B-3
000926:
000927: 13,3713           74631 63145  -1/12              2DEC     -.1
000928:
000929: 13,3715           00243 32703  RECRATIO           2DEC     .01
000930:
000931: 13,3717           03654 21000  RSPHERE            2DEC     64373.76   E3         B-29
000932:
000933: 13,3721           03654 21000  RDM                2DEC     16093.44   E3         B-27
000934:
000935: 13,3723           04627 25200  RDE                2DEC     80467.20   E3         B-29
000936:
000937: 13,3725                        RATT               EQUALS   00
000938: 13,3725                        VATT               EQUALS   6D
000939: 13,3725                        TAT                EQUALS   12D
000940: 13,3725                        RATT1              EQUALS   14D
000941: 13,3725                        VATT1              EQUALS   20D
000942: 13,3725                        MU(P)              EQUALS   26D
000943: 13,3725                        TDEC1              EQUALS   32D
000944: 13,3725                        URPV               EQUALS   14D
000945: 13,3725  0000022               COSPHI/2           EQUALS   URPV       +4
000946: 13,3725                        UZ                 EQUALS   20D
000947: 13,3725                        TVEC               EQUALS   26D
000948:
000949: 13,3725           71214        QUALITY1           BOF      DLOAD
000950: 13,3726           00343                                    MOONFLAG
000951: 13,3727           23232                                    NBRANCH
000952: 13,3730           00017                                    URPV
000953: 13,3731           77716                           DSQ
000954: 13,3732           63525        QUALITY2           PDDL     DSQ                                   #  SQUARE INTO 2D, B2
000955: 13,3733           00021                                    URPV       +2                         #  Y COMPONENT, B1
000956: 13,3734           77625                           DSU
000957: 13,3735           74205                           DMP      VXSC                                  #  5(Y**2-X**2)UR
000958: 13,3736           27712                                    5/8                                   #  CONSTANT, 5B3
000959: 13,3737           00017                                    URPV                                  #  VECTOR.  RESULT MAXIMUM IS 5, SCALING


000961:                                                                                                  #  HERE B6
000962: 13,3740           65332                           VSL3     PDDL                                  #  STORE SCALED B3 IN 2D, 4D, 6D FOR XYZ
000963: 13,3741           00017                                    URPV                                  #  X COMPONENT, B1
000964: 13,3742           43342                           SR1      DAD                                   #  2 X X COMPONENT FOR B3 SCALING
000965: 13,3743           00003                                    2D                                    #  ADD TO VECTOR X COMPONENT OF ANSWER,
000966:                                                                                                  #  SAME AS MULTIPLYING BY UNITX.  MAX IS 7.
000967: 13,3744           14003                           STODL    2D
000968: 13,3745           00021                                    URPV       +2                         #  Y COMPONENT, B1
000969: 13,3746           44342                           SR1      BDSU                                  #  2 X Y COMPONENT FOR B3 SCALING
000970: 13,3747           00005                                    4D                                    #  SUBTRACT FROM VECTOR Y COMPONENT OF
000971:                                                                                                  #  ANSWER, SAME AS MULTIPLYING BY UNITY.
000972:                                                                                                  #  MAX IS 7.
000973: 13,3750           00005                           STORE    4D                                    #  2D HAS VECTOR, B3.
000974: 13,3751           74335                           SLOAD    VXSC                                  #  MULTIPLY COEFFICIENT TIMES VECTOR IN 2D
000975: 13,3752           01353                                    E3J22R2M
000976: 13,3753           43525                           PDDL     RVQ                                   #  J22 TERM X R**4 IN 2D, SCALED B61
000977: 13,3754           00023                                    COSPHI/2                              #  SAME AS URPV +4  Z COMPONENT
000978:

End of include-file ORBITAL_INTEGRATION.agc.  Parent file is MAIN.agc


