
Source Code


000002:                                                                                                  ## Copyright:   Public domain.
000003:                                                                                                  ## Filename:    P-AXIS_RCS_AUTOPILOT.agc
000004:                                                                                                  ## Purpose:     Part of the source code for Luminary 1A build 099.
000005:                                                                                                  ##              It is part of the source code for the Lunar Module's (LM)
000006:                                                                                                  ##              Apollo Guidance Computer (AGC), for Apollo 11.
000007:                                                                                                  ## Assembler:   yaYUL
000008:                                                                                                  ## Contact:     Ron Burkey <info@sandroid.org>.
000009:                                                                                                  ## Website:     www.ibiblio.org/apollo.
000010:                                                                                                  ## Pages:       1421-1441
000011:                                                                                                  ## Mod history: 2009-05-27 RSB  Adapted from the corresponding
000012:                                                                                                  ##                              Luminary131 file, using page
000013:                                                                                                  ##                              images from Luminary 1A.
000014:                                                                                                  ##              2009-06-05 RSB  Corrected a relative jump from
000015:                                                                                                  ##                              +8 to +8D.
000016:                                                                                                  ##              2009-06-07 RSB  Corrected a typo.
000017:                                                                                                  ##              2011-01-06 JL   Fixed pseudo-label indentation.
000018:                                                                                                  ##              2011-01-06 JL   Added missing comment characters.
000019:                                                                                                  ##
000020:                                                                                                  ## This source code has been transcribed or otherwise adapted from
000021:                                                                                                  ## digitized images of a hardcopy from the MIT Museum.  The digitization
000022:                                                                                                  ## was performed by Paul Fjeld, and arranged for by Deborah Douglas of
000023:                                                                                                  ## the Museum.  Many thanks to both.  The images (with suitable reduction
000024:                                                                                                  ## in storage size and consequent reduction in image quality as well) are
000025:                                                                                                  ## available online at www.ibiblio.org/apollo.  If for some reason you
000026:                                                                                                  ## find that the images are illegible, contact me at info@sandroid.org
000027:                                                                                                  ## about getting access to the (much) higher-quality images which Paul
000028:                                                                                                  ## actually created.
000029:                                                                                                  ##
000030:                                                                                                  ## Notations on the hardcopy document read, in part:
000031:                                                                                                  ##
000032:                                                                                                  ##      Assemble revision 001 of AGC program LMY99 by NASA 2021112-61
000033:                                                                                                  ##      16:27 JULY 14, 1969
000034:


000036: 16,2213                                           BANK     16
000037: 16,2000                                           SETLOC   DAPS1
000038: 16,2000                                           BANK
000039:
000040: 16,2213  E6,1464                                  EBANK=   PERROR
000041: 16,2213                                           COUNT*   $$/DAPP
000042:
000043:                                                                                                  #  THE FOLLOWING T5RUPT ENTRY BEGINS THE PROGRAM WHICH CONTROLS THE P-AXIS ACTION OF THE LEM USING THE RCS JETS.
000044:                                                                                                  #  THE NOMINAL TIME BETWEEN THE P-AXIS RUPTS IS 100 MS IN ALL NON-IDLING MODES OF THE DAP.
000045:
000046: 16,2213           37727        PAXIS              CA       MS100
000047: 16,2214           26030                           ADS      TIME5                                 #  *** NECESSARY IN ORDER TO ALLOW
000048:                                                                                                  #  SYNCHRONIZATION WITH OTHER INTERRUPTS ***
000049:
000050: 16,2215           22016                           LXCH     BANKRUPT                              #  INTERRUPT LEAD IN (CONTINUED)
000051: 16,2216           00006                           EXTEND
000052: 16,2217           22012                           QXCH     QRUPT
000053:
000054:                                                                                                  #  CHECK IF DAP PASS IS PERMISSIBLE
000055:
000056: 16,2220           11757                           CCS      DAPZRUPT                              #  IF DAPZRUPT POSITIVE, DAP (JASK) IS
000057: 16,2221           05634                           TC       BAILOUT                               #  STILL IN PROGRESS AND A RESTART IS
000058: 16,2222           02000                           OCT      02000                                 #  CALLED FOR.  IT IS NEVER ZERO
000059:
000060: 16,2223           02000                           TC       CHEKBITS                              #  RETURN IS TC I+1 IF DAP SHOULD STAY ON.
000061:
000062: 16,2224           30032                           CA       CDUX                                  #  READ AND STORE CDU'S
000063: 16,2225           55750                           TS       DAPTREG4
000064: 16,2226           30033                           CA       CDUY
000065: 16,2227           55751                           TS       DAPTREG5
000066: 16,2230           30034                           CA       CDUZ
000067: 16,2231           55752                           TS       DAPTREG6
000068:
000069:                                                                                                  #  ***** KALCMANU-DAP AND "RATE-HOLD"-DAP INTERFACE *****
000070:
000071:                                                                                                  #  THE FOLLOWING SECTION IS EXECUTED EVERY 100 MS (10 TIMES A SECOND) WITHIN THE P-AXIS REACTION CONTROL SYSTEM
000072:                                                                                                  #  AUTOPILOT (WHENEVER THE DAP IS IN OPERATION).
000073:
000074: 16,2232           31635                           CA       CDUXD
000075: 16,2233           00006                           EXTEND
000076: 16,2234           21640                           MSU      DELCDUX
000077: 16,2235           02256                           TC       1STOTWOS
000078: 16,2236           55635                           TS       CDUXD
000079: 16,2237           31636                           CA       CDUYD
000080: 16,2240           00006                           EXTEND
000081: 16,2241           21641                           MSU      DELCDUY
000082: 16,2242           02256                           TC       1STOTWOS
000083: 16,2243           55636                           TS       CDUYD
000084: 16,2244           31637                           CA       CDUZD
000085: 16,2245           00006                           EXTEND
000086: 16,2246           21642                           MSU      DELCDUZ


000088: 16,2247           02256                           TC       1STOTWOS
000089: 16,2250           55637                           TS       CDUZD
000090: 16,2251           00006                           EXTEND                                         #  DIMINISH MANUAL CONTROL DIRECT RATE
000091: 16,2252           27445                           DIM      TCP                                   #  TIME COUNTERS.
000092: 16,2253           00006                           EXTEND
000093: 16,2254           27457                           DIM      TCQR
000094:
000095:                                                                                                  #  RATFLOOP COMPUTES JETRATEQ, JRATER, AND 1JACC*NO. PJEETS IN ITEMP1.
000096:                                                                                                  #  RETURNS TO BACKP.
000097:
000098:                                                                                                  #  JETRATE = 1JACC*NO.PJETS*TJP          (NOTE TJ IS THE TIME FIRED DURING CSP)
000099:                                                                                                  #  JETRATEQ = 1JACCQ(TJU*NO.UJETS - TJV*NO.VJETS)
000100:                                                                                                  #  JETRATER = 1JACCR(TJU*NO.UJETS + TJV*NO.VJETS)
000101:
000102: 16,2255           12647                           TCF      PAXFILT                               #  PROCEEDS TO RATELOOP AFTER SUPERJOB
000103: 16,2256           10000        1STOTWOS           CCS      A
000104: 16,2257           64753                           AD       ONE
000105: 16,2260           00002                           TC       Q
000106: 16,2261           40000                           CS       A
000107: 16,2262           00002                           TC       Q
000108: 16,2263           00006        SUBDIVDE           EXTEND                                         #  OVERFLOW PROTECTION ROUTINE TO GIVE
000109: 16,2264           71741                           MP       DAPTEMP3                              #  POSMAX OR NEGMAX IF THE DIVIDE WOULD
000110: 16,2265           21427                           DAS      OMEGAU                                #  OVERFLOW
000111:
000112: 16,2266           00006                 +3        EXTEND
000113: 16,2267           31427                           DCA      OMEGAU
000114: 16,2270           53744                           DXCH     DAPTEMP5
000115: 16,2271           11426                           CCS      OMEGAU
000116: 16,2272           12274                           TCF      +2
000117: 16,2273           12304                           TCF      DIVIDER
000118: 16,2274           62315                           AD       -OCT630
000119: 16,2275           00006                           EXTEND
000120: 16,2276           62304                           BZMF     DIVIDER
000121:
000122: 16,2277           11426                           CCS      OMEGAU
000123: 16,2300           34733                           CA       POSMAX                                #  45 DEG/SEC
000124: 16,2301           00002                           TC       Q
000125: 16,2302           44733                           CS       POSMAX
000126: 16,2303           00002                           TC       Q
000127:
000128: 16,2304           53427        DIVIDER            DXCH     OMEGAU
000129: 16,2305           00006                           EXTEND
000130: 16,2306           11750                           DV       DAPTREG4
000131: 16,2307           00002                           TC       Q
000132:
000133: 16,2310           54007        OVERSUB            TS       7                                     #  RETURNS A UNCHANGED OR LIMITED TO
000134: 16,2311           00002                           TC       Q                                     #  POSMAX OR NEGMAX IF A HAS OVERFLOW
000135: 16,2312           50000                           INDEX    A
000136: 16,2313           44734                           CS       BIT15      -1


000138: 16,2314           00002                           TC       Q
000139:
000140: 16,2315           77147        -OCT630            OCT      77147
000141:
000142: 16,2316           31737        BACKP              CA       DAPTEMP1
000143: 16,2317           00006                           EXTEND
000144: 16,2320           71530                           MP       1JACC
000145: 16,2321           55745                           TS       JETRATE
000146:
000147:                                                                                                  #  BEGINNING OF THE RATE DERIVATION
000148:                                                                                                  #        OMEGAP,Q,R      BODY RATES SCALED AT PI/4
000149:                                                                                                  #        TRAPEDP,Q,R     BODY ANGLE ERRORS FROM PREDICTED ANGLE (PI/40)
000150:                                                                                                  #        NP(QR)TRAPS     NUMBER OF TIMES ANGLE ERROR HAS BEEN ACCUMULATED
000151:                                                                                                  #        AOSQ(R)TERM     CHANGE IN RATE DUE TO OFFSET ACCELERATION.  (PI/4)
000152:                                                                                                  #        JETRATE,Q,R     CHANGE IN RATE DUE TO  JET   ACCELERATION.  (PI/4)
000153:                                                                                                  #        TRAPSIZE        NEGATIVE LIMIT OF MAGNITUDE OF TRAPEDP, ETC.
000154:                                                                                                  #        OMEGAU          DP-TEMPORARY STORAGE
000155:                                                                                                  #  OMEGA = OMEGA + JETRATE + AOSTERM (+TRAPED/NTRAPS IF TRAPED BIG)
000156:
000157: 16,2322           31750                           CAE      DAPTREG4                              #  CDUX IS STORED HERE
000158: 16,2323           54001                           TS       L
000159: 16,2324           00006                           EXTEND
000160: 16,2325           21440                           MSU      OLDXFORP                              #  SCALED AT PI
000161: 16,2326           23440                           LXCH     OLDXFORP
000162: 16,2327           55737                           TS       DAPTEMP1
000163: 16,2330           33620                           CA       1/40
000164: 16,2331           55750                           TS       DAPTREG4
000165: 16,2332           41745                           CS       JETRATE
000166: 16,2333           00006                           EXTEND
000167: 16,2334           74736                           MP       BIT14
000168: 16,2335           27430                           ADS      TRAPEDP
000169: 16,2336           31746                           CA       JETRATEQ
000170: 16,2337           61545                           AD       AOSQTERM
000171: 16,2340           00006                           EXTEND
000172: 16,2341           77736                           MP       -BIT14
000173: 16,2342           27431                           ADS      TRAPEDQ
000174: 16,2343           31747                           CA       JETRATER
000175: 16,2344           61546                           AD       AOSRTERM
000176: 16,2345           00006                           EXTEND
000177: 16,2346           77736                           MP       -BIT14
000178: 16,2347           27432                           ADS      TRAPEDR
000179:
000180: 16,2350           31751                           CA       DAPTREG5                              #  CDUY IS STORED HERE
000181: 16,2351           54001                           TS       L
000182: 16,2352           00006                           EXTEND
000183: 16,2353           21441                           MSU      OLDYFORP                              #  SCALED AT PI
000184: 16,2354           23441                           LXCH     OLDYFORP
000185: 16,2355           55740                           TS       DAPTEMP2
000186: 16,2356           00006                           EXTEND
000187: 16,2357           71414                           MP       M11                                   #  M11 SCALED AT 1


000189: 16,2360           61737                           AD       DAPTEMP1
000190: 16,2361           53427                           DXCH     OMEGAU
000191:
000192: 16,2362           02266                           TC       SUBDIVDE   +3                         #  RETURNS WITH CDU-RATE AT PI/4
000193:
000194: 16,2363           00006                           EXTEND
000195: 16,2364           61421                           SU       OMEGAP
000196: 16,2365           27430                           ADS      TRAPEDP
000197: 16,2366           02310                           TC       OVERSUB
000198: 16,2367           55430                           TS       TRAPEDP
000199: 16,2370           00006                           EXTEND
000200: 16,2371           31744                           DCA      DAPTEMP5
000201: 16,2372           21447                           DAS      DXERROR
000202: 16,2373           41454                           CS       PLAST
000203: 16,2374           00006                           EXTEND
000204: 16,2375           73620                           MP       1/40
000205: 16,2376           21447                           DAS      DXERROR                               #  MANUAL MODE X-ATTITUDE ERROR (DP)
000206: 16,2377           31752                           CA       DAPTREG6                              #  CDUZ IS STORED HERE
000207: 16,2400           54001                           TS       L
000208: 16,2401           00006                           EXTEND
000209: 16,2402           21442                           MSU      OLDZFORQ
000210: 16,2403           55741                           TS       DAPTEMP3
000211: 16,2404           23442                           LXCH     OLDZFORQ
000212: 16,2405           31415                           CA       M21
000213: 16,2406           00006                           EXTEND
000214: 16,2407           71740                           MP       DAPTEMP2
000215: 16,2410           53427                           DXCH     OMEGAU
000216: 16,2411           31417                           CA       M22
000217: 16,2412           02263                           TC       SUBDIVDE
000218:
000219: 16,2413           00006                           EXTEND
000220: 16,2414           61422                           SU       OMEGAQ
000221: 16,2415           27431                           ADS      TRAPEDQ
000222: 16,2416           02310                           TC       OVERSUB
000223: 16,2417           55431                           TS       TRAPEDQ
000224: 16,2420           00006                           EXTEND
000225: 16,2421           31744                           DCA      DAPTEMP5
000226: 16,2422           21451                           DAS      DYERROR
000227: 16,2423           41455                           CS       QLAST
000228: 16,2424           00006                           EXTEND
000229: 16,2425           73620                           MP       1/40
000230: 16,2426           21451                           DAS      DYERROR                               #  MANUAL MODE Y-ATTITUDE ERROR (DP)
000231: 16,2427           31416                           CA       M31
000232: 16,2430           00006                           EXTEND
000233: 16,2431           71740                           MP       DAPTEMP2
000234: 16,2432           53427                           DXCH     OMEGAU
000235: 16,2433           31420                           CA       M32
000236:
000237: 16,2434           02263                           TC       SUBDIVDE


000239: 16,2435           00006                           EXTEND
000240: 16,2436           61423                           SU       OMEGAR
000241: 16,2437           27432                           ADS      TRAPEDR
000242: 16,2440           02310                           TC       OVERSUB
000243: 16,2441           55432                           TS       TRAPEDR                               #  TRAPEDS HAVE ALL BEEN COMPUTED
000244:
000245: 16,2442           00006                           EXTEND
000246: 16,2443           31744                           DCA      DAPTEMP5
000247: 16,2444           21453                           DAS      DZERROR
000248: 16,2445           41456                           CS       RLAST
000249: 16,2446           00006                           EXTEND
000250: 16,2447           73620                           MP       1/40
000251: 16,2450           21453                           DAS      DZERROR                               #  MANUAL MODE Z-ATTITUDE ERROR (DP)
000252: 16,2451           30111                           CA       DAPBOOLS                              #  PICK UP PAD LOADED STATE ESTIMATOR GAINS
000253: 16,2452           74737                           MASK     CSMDOCKD
000254: 16,2453           00006                           EXTEND
000255: 16,2454           12462                           BZF      LMONLY
000256: 16,2455           00006                           EXTEND                                         #  DOCKED
000257: 16,2456           31405                           DCA      DKOMEGAN
000258: 16,2457           53751                           DXCH     DAPTREG4
000259: 16,2460           31403                           CA       DKTRAP
000260: 16,2461           12466                           TCF      +5
000261: 16,2462           00006        LMONLY             EXTEND                                         #  UNDOCKED
000262: 16,2463           31410                           DCA      LMOMEGAN
000263: 16,2464           53751                           DXCH     DAPTREG4
000264: 16,2465           31406                           CA       LMTRAP
000265: 16,2466           55752                 +5        TS       DAPTREG6
000266: 16,2467           11430                           CCS      TRAPEDP
000267: 16,2470           12472                           TCF      +2
000268: 16,2471           12507                           TCF      SMALPDIF
000269: 16,2472           61752                           AD       DAPTREG6                              #  TRAPSIZE > ABOUT 77001 %-1.4DEG/SEC"
000270: 16,2473           00006                           EXTEND
000271: 16,2474           62507                           BZMF     SMALPDIF
000272: 16,2475           22007                           ZL
000273: 16,2476           23430                           LXCH     TRAPEDP
000274: 16,2477           34755                           CA       ZERO
000275: 16,2500           00006                           EXTEND
000276: 16,2501           11433                           DV       NPTRAPS
000277: 16,2502           27421                           ADS      OMEGAP
000278: 16,2503           02310                           TC       OVERSUB
000279: 16,2504           55421                           TS       OMEGAP
000280: 16,2505           31750                           CA       DAPTREG4                              #  ABOUT 10 OR 0 FOR DOCKED OR UNDOCKED
000281: 16,2506           55433                           TS       NPTRAPS
000282: 16,2507           25433        SMALPDIF           INCR     NPTRAPS
000283: 16,2510           31745        P-RATE             CA       JETRATE
000284: 16,2511           27421                           ADS      OMEGAP
000285: 16,2512           02310                           TC       OVERSUB
000286: 16,2513           55421                           TS       OMEGAP
000287:
000288: 16,2514           11431                           CCS      TRAPEDQ


000290: 16,2515           12517                           TCF      +2
000291: 16,2516           12544                           TCF      Q-RATE
000292: 16,2517           61752                           AD       DAPTREG6                              #  TRAPSIZE > ABOUT 77001 %-1.4DEG/SEC"
000293: 16,2520           00006                           EXTEND
000294: 16,2521           62544                           BZMF     Q-RATE
000295: 16,2522           22007                           ZL
000296: 16,2523           23431                           LXCH     TRAPEDQ
000297: 16,2524           34755                           CA       ZERO
000298: 16,2525           00006                           EXTEND
000299: 16,2526           11434                           DV       NQTRAPS
000300: 16,2527           55737                           TS       DAPTEMP1                              #  SAVE FOR OFFSET ESTIMATE
000301: 16,2530           27422                           ADS      OMEGAQ
000302: 16,2531           02310                           TC       OVERSUB
000303: 16,2532           55422                           TS       OMEGAQ
000304: 16,2533           31750                           CA       DAPTREG4                              #  ABOUT 10 OR 0 FOR DOCKED OR UNDOCKED
000305: 16,2534           57434                           XCH      NQTRAPS
000306: 16,2535           61751                           AD       DAPTREG5                              #  KAOS > ABOUT 60D %N/N_60"
000307: 16,2536           57737                           XCH      DAPTEMP1
000308: 16,2537           00006                           EXTEND
000309: 16,2540           74756                           MP       FIVE
000310: 16,2541           00006                           EXTEND
000311: 16,2542           11737                           DV       DAPTEMP1
000312: 16,2543           27537                           ADS      AOSQ
000313: 16,2544           25434        Q-RATE             INCR     NQTRAPS
000314: 16,2545           31746                           CA       JETRATEQ
000315: 16,2546           61545                           AD       AOSQTERM
000316: 16,2547           27422                           ADS      OMEGAQ
000317: 16,2550           02310                           TC       OVERSUB
000318: 16,2551           55422                           TS       OMEGAQ
000319:
000320: 16,2552           11432                           CCS      TRAPEDR
000321: 16,2553           12555                           TCF      +2
000322: 16,2554           12602                           TCF      R-RATE
000323: 16,2555           61752                           AD       DAPTREG6                              #  TRAPSIZE > ABOUT 77001 %-1.4DEG/SEC"
000324: 16,2556           00006                           EXTEND
000325: 16,2557           62602                           BZMF     R-RATE
000326: 16,2560           22007                           ZL
000327: 16,2561           23432                           LXCH     TRAPEDR
000328: 16,2562           34755                           CA       ZERO
000329: 16,2563           00006                           EXTEND
000330: 16,2564           11435                           DV       NRTRAPS
000331: 16,2565           55740                           TS       DAPTEMP2                              #  SAVE FOR OFFSET ESTIMATE
000332: 16,2566           27423                           ADS      OMEGAR
000333: 16,2567           02310                           TC       OVERSUB
000334: 16,2570           55423                           TS       OMEGAR
000335: 16,2571           31750                           CA       DAPTREG4                              #  ABOUT 10 OR 0 FOR DOCKED OR UNDOCKED
000336: 16,2572           57435                           XCH      NRTRAPS
000337: 16,2573           61751                           AD       DAPTREG5                              #  KAOS > ABOUT 60D %N/N_60"
000338: 16,2574           57740                           XCH      DAPTEMP2
000339: 16,2575           00006                           EXTEND


000341: 16,2576           74756                           MP       FIVE
000342: 16,2577           00006                           EXTEND
000343: 16,2600           11740                           DV       DAPTEMP2
000344: 16,2601           27541                           ADS      AOSR
000345: 16,2602           25435        R-RATE             INCR     NRTRAPS
000346: 16,2603           31747                           CA       JETRATER
000347: 16,2604           61546                           AD       AOSRTERM
000348: 16,2605           27423                           ADS      OMEGAR
000349: 16,2606           02310                           TC       OVERSUB
000350: 16,2607           55423                           TS       OMEGAR
000351:
000352:                                                                                                  #  END OF RATE DERIVATION
000353:                                                                                                  #        BEGIN OFFSET ESTIMATER
000354:                                                                                                  #                IN POWERED FLIGHT, AOSTASK WILL BE CALLED EVERY 2 SECONDS.
000355:                                                                                                  #                        AOS = AOS + K*SUMRATE
000356:
000357: 16,2610           40111                           CS       DAPBOOLS
000358: 16,2611           74744                           MASK     DRIFTBIT
000359: 16,2612           10000                           CCS      A
000360: 16,2613           12624                           TCF      WORKTIME
000361: 16,2614           55424                           TS       ALPHAQ                                #  ZERO THE OFFSET ACCELERATION VALUES.
000362: 16,2615           55425                           TS       ALPHAR
000363: 16,2616           55545                           TS       AOSQTERM
000364: 16,2617           55546                           TS       AOSRTERM
000365: 16,2620           55537                           TS       AOSQ
000366: 16,2621           55541                           TS       AOSR
000367: 16,2622           12667                           TCF      PRETIMCK
000368: 16,2623           00074        KAOS               DEC      60         B-14
000369: 16,2624           31510        WORKTIME           CA       QACCDOT
000370: 16,2625           00006                           EXTEND
000371: 16,2626           74766                           MP       CALLCODE                              #  OCTAL 00032 IS DECIMAL .1 AT 2(6).
000372: 16,2627           21540                           DAS      AOSQ
000373: 16,2630           31537                           CA       AOSQ
000374: 16,2631           55424                           TS       ALPHAQ
000375: 16,2632           00006                           EXTEND
000376: 16,2633           73616                           MP       200MS                                 #  .2 AT 1
000377: 16,2634           55545                           TS       AOSQTERM
000378: 16,2635           31512                           CA       RACCDOT
000379: 16,2636           00006                           EXTEND
000380: 16,2637           74766                           MP       CALLCODE                              #  OCTAL 00032 IS DECIMAL .1 AT 2(6).
000381: 16,2640           21542                           DAS      AOSR
000382: 16,2641           31541                           CA       AOSR
000383: 16,2642           55425                           TS       ALPHAR
000384: 16,2643           00006                           EXTEND
000385: 16,2644           73616                           MP       200MS                                 #  .2 AT 1
000386: 16,2645           55546                           TS       AOSRTERM
000387: 16,2646           12667                           TCF      PRETIMCK
000388:


000390: 16,2647           34747        PAXFILT            CA       CALLGMBL                              #  EXECUTE ACDT+C12, IF NEEDED.
000391: 16,2650           71273                           MASK     RCSFLAGS
000392: 16,2651           10000                           CCS      A                                     #  CALLGMBL IS NOT BIT15, SO THIS TEST IS
000393: 16,2652           03736                           TC       ACDT+C12                              #  VALID.
000394:
000395: 16,2653           52011                           DXCH     ARUPT
000396: 16,2654           53754                           DXCH     DAPARUPT
000397: 16,2655           32666                           CA       SUPERJOB                              #  SETTING UP THE SUPERJOB
000398: 16,2656           56017                           XCH      BRUPT
000399: 16,2657           22012                           LXCH     QRUPT
000400: 16,2660           53756                           DXCH     DAPBQRPT
000401: 16,2661           32665                           CA       SUPERADR
000402: 16,2662           52016                           DXCH     ZRUPT
000403: 16,2663           53760                           DXCH     DAPZRUPT
000404: 16,2664           15275                           TCF      NOQBRSM    +1                         #  RELINT (JUST IN CASE) AND RESUME, IN THE
000405:                                                                                                  #        FORM OF A JASK, AT SUPERJOB.
000406:
000407: 16,2665           02667        SUPERADR           GENADR   SUPERJOB   +1
000408:
000409:                                                                                                  #  COUNT DOWN GIMBAL DRIVE TIMERS AND TURN OFF DRIVES IF REQUIRED.
000410:
000411: 16,2666           13641        SUPERJOB           TCF      RATELOOP
000412: 16,2667           11632        PRETIMCK           CCS      QGIMTIMR
000413: 16,2670           12710                           TCF      DECQTIMR                              #  POSITIVE -- COUNTING DOWN
000414: 16,2671           12714                           TCF      TURNOFFQ                              #  NEGATIVE -- DRIVE SHOULD BE ENDED
000415: 16,2672           11634        CHKRTIMR           CCS      RGIMTIMR                              #  NEGATIVE -- INACTIVE
000416: 16,2673           12712                           TCF      DECRTIMR                              #  (NEG ZERO -- IMPOSSIBLE)
000417: 16,2674           12724                           TCF      TURNOFFR                              #  REPEATED (ABOVE) FOR R AXIS.
000418:
000419: 16,2675           00006                           EXTEND                                         #  DECREMENT DOCKED JET INHIBITION COUNTERS
000420: 16,2676           27767                           DIM      PJETCTR
000421: 16,2677           00006                           EXTEND
000422: 16,2700           27770                           DIM      UJETCTR
000423: 16,2701           00006                           EXTEND
000424: 16,2702           27771                           DIM      VJETCTR
000425: 16,2703           34740                           CA       BIT12
000426: 16,2704           71273                           MASK     RCSFLAGS
000427: 16,2705           00006                           EXTEND
000428: 16,2706           12734                           BZF      SKIPPAXS
000429: 16,2707           02740                           TC       CHKVISFZ
000430: 16,2710           55632        DECQTIMR           TS       QGIMTIMR                              #  COUNT TIMERS DOWN TO POS ZERO.
000431: 16,2711           12672                           TCF      CHKRTIMR
000432: 16,2712           55634        DECRTIMR           TS       RGIMTIMR
000433: 16,2713           12675                           TCF      CHKRTIMR   +3
000434:
000435: 16,2714           55501        TURNOFFQ           TS       NEGUQ                                 #  HALT DRIVES.
000436: 16,2715           55510                           TS       QACCDOT
000437: 16,2716           45007                           CS       QGIMBITS
000438: 16,2717           00006                           EXTEND


000440: 16,2720           03012                           WAND     CHAN12
000441: 16,2721           34735                           CAF      NEGMAX
000442: 16,2722           55632                           TS       QGIMTIMR
000443: 16,2723           12672                           TCF      CHKRTIMR
000444: 16,2724           55503        TURNOFFR           TS       NEGUR
000445: 16,2725           55512                           TS       RACCDOT
000446: 16,2726           45020                           CS       RGIMBITS
000447: 16,2727           00006                           EXTEND
000448: 16,2730           03012                           WAND     CHAN12
000449: 16,2731           34735                           CAF      NEGMAX
000450: 16,2732           55634                           TS       RGIMTIMR
000451: 16,2733           12675                           TCF      CHKRTIMR   +3
000452: 16,2734     5007               QGIMBITS           EQUALS   OCT1400                               #  BITS 9 AND 10 (OF CHANNEL 12).
000453: 16,2734     5020               RGIMBITS           EQUALS   PRIO6                                 #  BITS 11 AND 12 (OF CHANNEL 12).
000454:
000455: 16,2734           41273        SKIPPAXS           CS       RCSFLAGS
000456: 16,2735           74740                           MASK     BIT12
000457: 16,2736           27273                           ADS      RCSFLAGS                              #  BIT 12 SET TO 1.
000458: 16,2737           13624                           TCF      QRAXIS                                #  GO TO QRAXIS OR TO CTS.
000459:
000460:                                                                                                  #  Y-X TRANSLATION
000461:
000462:                                                                                                  #  INPUT:        BITS 9-12 OF CH31 (FROM TRANSLATION CONTROLLER)
000463:
000464:                                                                                                  #  OUTPUT:       NEXTP
000465:
000466:                                                                                                  #                NEXTP IS THE CHANNEL 6 CODE OF JETS FOR THE DESIRED TRANSLATION.
000467:                                                                                                  #                IF THERE ARE FAILURES IN THE DESIRED POLICY, THEN
000468:                                                                                                  #                (1) FOR DIAGONAL TRANS:         UNFAILED PAIR
000469:                                                                                                  #                                                ALARM (IF NO PAIR)
000470:                                                                                                  #                (2) FOR PRINCIPAL TRANS:        TRY TO TACK WITH DIAGONAL PAIRS
000471:                                                                                                  #                                                ALARM (IF DIAGONAL PAIRS ARE FAILED)
000472:
000473: 16,2740           00006        CHKVISFZ           EXTEND
000474: 16,2741           00031                           READ     CHAN31
000475: 16,2742           40000                           CS       A
000476: 16,2743           73613                           MASK     07400OCT
000477: 16,2744           00006                           EXTEND
000478: 16,2745           13014                           BZF      TSNEXTP
000479: 16,2746           00006                           EXTEND
000480: 16,2747           74745                           MP       BIT7
000481: 16,2750           50000                           INDEX    A
000482: 16,2751           33572                           CA       INDXYZ
000483: 16,2752           55744                           TS       ROTINDEX
000484: 16,2753           36242        TRYUORV            CA       SIX
000485: 16,2754           03551                           TC       SELECTYZ
000486: 16,2755           46242                           CS       SIX
000487: 16,2756           61743                           AD       NUMBERT
000488: 16,2757           00006                           EXTEND


000490: 16,2760           13013                           BZF      TSNEXTP    -1
000491: 16,2761           44756                           CS       FIVE
000492: 16,2762           61744                           AD       ROTINDEX
000493: 16,2763           00006                           EXTEND
000494: 16,2764           63002                           BZMF     ALTERYZ
000495: 16,2765           41743                           CS       NUMBERT
000496: 16,2766           64751                           AD       FOUR
000497: 16,2767           00006                           EXTEND
000498: 16,2770           63013                           BZMF     TSNEXTP    -1
000499: 16,2771           05567        ABORTYZ            TC       ALARM
000500: 16,2772           02001                           OCT      02001
000501: 16,2773           34753                           CA       BIT1                                  #  INVERT BIT 1 OF RCSFLAGS.
000502: 16,2774           23273                           LXCH     RCSFLAGS
000503: 16,2775           00006                           EXTEND
000504: 16,2776           06001                           RXOR     1
000505: 16,2777           55273                           TS       RCSFLAGS
000506: 16,3000           34755                           CA       ZERO
000507: 16,3001           13014                           TCF      TSNEXTP
000508: 16,3002           34753        ALTERYZ            CA       BIT1                                  #  INVERT BIT 1 OF RCSFLAGS.
000509: 16,3003           23273                           LXCH     RCSFLAGS
000510: 16,3004           00006                           EXTEND
000511: 16,3005           06001                           RXOR     1
000512: 16,3006           55273                           TS       RCSFLAGS
000513: 16,3007           74753                           MASK     BIT1
000514: 16,3010           64751                           AD       FOUR
000515: 16,3011           27744                           ADS      ROTINDEX
000516: 16,3012           12753                           TCF      TRYUORV
000517: 16,3013           31741                           CA       POLYTEMP
000518: 16,3014           55472        TSNEXTP            TS       NEXTP
000519:
000520:                                                                                                  #  STATE LOGIC
000521:                                                                                                  #        CHECK IN ORDER:         IF ON
000522:                                                                                                  #        LPDPHASE                GO TO PURGENCY
000523:                                                                                                  #        PULSES                  MINIMUM PULSE LOTIC
000524:                                                                                                  #        DETENT(BIT15 CH31)      RATE COMMAND
000525:                                                                                                  #        GOTO TO PURGENCY
000526:
000527: 16,3015           34737                           CA       BIT13                                 #  CHECK STICK IF IN ATT. HOLD.
000528: 16,3016           00006                           EXTEND
000529: 16,3017           02031                           RAND     CHAN31
000530: 16,3020           00006                           EXTEND
000531: 16,3021           13027                           BZF      MANMODE
000532:
000533: 16,3022           30111                           CA       DAPBOOLS
000534: 16,3023           74743                           MASK     XOVINHIB
000535: 16,3024           10000                           CCS      A
000536: 16,3025           13463                           TCF      PURGENCY                              #  ATTITUDE STEER DURING VISIBILITY PHASE
000537:
000538: 16,3026           13071                           TCF      DETENTCK
000539: 16,3027           34735        MANMODE            CA       PULSES                                #  PULSES IS ONE FOR PULSE MODE
000540: 16,3030           70111                           MASK     DAPBOOLS


000542: 16,3031           00006                           EXTEND
000543: 16,3032           13071                           BZF      DETENTCK                              #  BRANCH FOR RATE COMMAND
000544:
000545: 16,3033           34755                           CA       ZERO
000546: 16,3034           55464                           TS       PERROR
000547:
000548:                                                                                                  #  MINIMUM IMPULSE MODE
000549:
000550: 16,3035           30032                           CA       CDUX
000551: 16,3036           55635                           TS       CDUXD
000552:
000553: 16,3037           11460                           CCS      OLDPMIN
000554: 16,3040           13054                           TCF      CHECKP
000555:
000556: 16,3041           34751        FIREP              CA       BIT3
000557: 16,3042           00006                           EXTEND
000558: 16,3043           02031                           RAND     CHAN31
000559: 16,3044           00006                           EXTEND
000560: 16,3045           13064                           BZF      +XMIN
000561:
000562: 16,3046           34750                           CA       BIT4
000563: 16,3047           00006                           EXTEND
000564: 16,3050           02031                           RAND     CHAN31
000565: 16,3051           00006                           EXTEND
000566: 16,3052           13062                           BZF      -XMIN
000567:
000568: 16,3053           13442                           TCF      JETSOFF
000569:
000570: 16,3054           00006        CHECKP             EXTEND
000571: 16,3055           00031                           READ     CHAN31
000572: 16,3056           40000                           CS       A
000573: 16,3057           75751                           MASK     OCT14
000574: 16,3060           55460                           TS       OLDPMIN
000575: 16,3061           13442                           TCF      JETSOFF
000576:
000577: 16,3062           44363        -XMIN              CS       TEN                                   #  ANYTHING LESS THAN 14MS. CORRECTED
000578: 16,3063           13065                           TCF      +2                                    #        IN JET SELECTION ROUTINE
000579: 16,3064           34363        +XMIN              CA       TEN
000580: 16,3065           55524                           TS       TJP
000581: 16,3066           34753                           CA       ONE
000582: 16,3067           55460                           TS       OLDPMIN
000583: 16,3070           13350                           TCF      PJETSLEC   -6
000584:
000585:                                                                                                  #                                        MANUAL RATE COMMAND MODE
000586:                                                                                                  #                                        ========================
000587:                                                                                                  #                                          BY ROBERT F. STENGEL
000588:
000589:                                                                                                  #  THIS MODE PROVIDES RCAH MANUAL CONTROL THRU 2 CONTROL LAWS:  1) DIRECT RATE AND 2) PSEUDO-AUTO.
000590:                                                                                                  #  THE DIRECT RATE MODE AFFORDS IMMEDIATE CONTROL WITHOUT OVERSHOOT.  THE PSEUDO-AUTO MODE PROVIDES PRECISE
000591:                                                                                                  #  RATE CONTROL AND ATTITUDE HOLD.
000592:


000594:                                                                                                  #  IN DIRECT RATE, JETS ARE FIRED WHEN STICK POSITION CHANGES BY A FIXED NUMBER OF INCREMENTS IN ONE DAP CYCLE.
000595:                                                                                                  #  THE `BREAKOUT LEVEL' IS .6 D/S FOR LM-ONLY AND .3 D/S FOR CSM-DOCKED.  THIS LAW NULLS THE RATE ERROR TO WITHIN
000596:                                                                                                  #  THE `TARGET DEADBAND', WHICH EQUALS THE BREAKOUT LEVEL.
000597:
000598:                                                                                                  #  IN PSEUDO-AUTO, BODY-FIXED RATE AND ATTITUDE ERRORS ARE SUPPLIED TO TJETLAW, WHICH EXERCISES CONTROL.
000599:                                                                                                  #  CONTROL SWITCHES FROM DIRECT RATE TO PSEUDO-AUTO IF THE TARGET DB IS ACHIEVED OR IF TIME IN (1) EXCEEDS 4 SEC.
000600:                                                                                                  #  IF THE INITIAL COMMAND DOES NOT EXCEED THE BREAKOUT LEVEL, CONTROL GOES TO PSEUDO-AUTO IMMEDIATELY.
000601:
000602:                                                                                                  #  SINCE P-AXIS CONTROL IS SEPARATE FROM Q,R AXES CONTROL, IT IS POSSIBLE TO USE (1) IN P-AXIS AND (2) IN Q,R AXES,
000603:                                                                                                  #  OR VICE VERSA.  THIS ALLOWS A DEGREE OF ATTITUDE HOLD IN UNCONTROLLED AXES.  DUE TO U,V CONTROL, HOWEVER, Q AND
000604:                                                                                                  #  R AXES ARE COUPLED AND MUST USE THE SAME CONTROL LAW.
000605:
000606:                                                                                                  #  HAND CONTROLLER COMMANDS ARE SCALED BY A LINEAR/QUADRATIC LAW.  FOR THE LM-ALONE, MAXIMUM COMMANDED RATES ARE 20
000607:                                                                                                  #  AND 4 D/S IN NORMAL AND FINE SCALING; HOWEVER, STICK SENSITIVITY AT ZERO COUNTS (OBTAINED AT A STICK DEFLECTION
000608:                                                                                                  #  OF 2 DEGREES FROM THE CENTERED POSITION) IS .5 OR .1 D/S PER DEGREE.  NORMAL AND FINE SCALINGS FOR THE CSM-DOCKED
000609:                                                                                                  #  CASE IS AUTOMATICALLY SET TO 1/10 THE ABOVE VALUES.  SCALING IS DETERMINED IN ROUTINE 3.
000610:
000611:                                                                                                  #  ZEROENBL      ENABLES COUNTERS SO THEY CAN BE READ NEXT TIME
000612:                                                                                                  #  JUSTOUT       FIRST DETECTION OF OUT OF DETENT (BY OURRCBIT)
000613:
000614: 16,3071           00006        DETENTCK           EXTEND
000615: 16,3072           00031                           READ     CHAN31
000616: 16,3073           55443                           TS       CH31TEMP
000617: 16,3074           74735                           MASK     BIT15                                 #  CHECK OUT-OF-DETENT BIT.
000618: 16,3075           00006                           EXTEND
000619: 16,3076           13223                           BZF      RHCMOVED                              #  BRANCH IF OUT OF DETENT.
000620: 16,3077           34740                           CAF      OURRCBIT                              #  IN DETENT.  CHECK THE RATE COMMAND BIT.
000621: 16,3100           70111                           MASK     DAPBOOLS
000622: 16,3101           00006                           EXTEND
000623: 16,3102           13463                           BZF      PURGENCY                              #  BRANCH IF NOT IN RATE COMMAND LAST PASS.
000624:
000625:                                                                                                  #  ................................................................................
000626:
000627: 16,3103           34743                           CA       BIT9                                  #  JUST IN DETENT??
000628: 16,3104           71273                           MASK     RCSFLAGS
000629: 16,3105           00006                           EXTEND
000630: 16,3106           13120                           BZF      RUTH
000631: 16,3107           34737                           CAF      BIT13                                 #  CHECK FOR ATTITUDE HOLD.
000632: 16,3110           00006                           EXTEND
000633: 16,3111           02031                           RAND     CHAN31
000634: 16,3112           00006                           EXTEND
000635: 16,3113           13220                           BZF      RATEDAMP                              #  BRANCH IF IN ATTITUDE HOLD.
000636:
000637: 16,3114           45014                           CS       BITS9,11                              #  IN AUTO.
000638: 16,3115           71273                           MASK     RCSFLAGS                              #  (X-AXIS OVERRIDE)
000639: 16,3116           55273                           TS       RCSFLAGS                              #  ZERO ORBIT (BIT 11) AND JUST-IN BIT (9).
000640: 16,3117           13220                           TCF      RATEDAMP
000641:
000642: 16,3120           31273        RUTH               CA       RCSFLAGS
000643: 16,3121           74742                           MASK     PBIT                                  #  IN ATTITUDE HOLD.
000644: 16,3122           00006                           EXTEND
000645: 16,3123           13125                           BZF      +2                                    #  BRANCH IF P-RATE DAMPING IS FINISHED.
000646: 16,3124           13220                           TCF      RATEDAMP
000647:


000649: 16,3125           31273                           CA       RCSFLAGS
000650: 16,3126           74741                           MASK     QRBIT
000651: 16,3127           00006                           EXTEND
000652: 16,3130           13136                           BZF      RATEDONE                              #  BRANCH IF Q,R RATE DAMPING IS FINISHED.
000653: 16,3131           13220                           TCF      RATEDAMP
000654:
000655:                                                                                                  #  ============================================
000656:
000657: 16,3132           00001        1/10SEC            OCT      1
000658: 16,3133           00050        40CYC              OCT      50
000659: 16,3134           74777        PQRBIT             OCT      74777
000660: 16,3135     5014               BITS9,11           EQUALS   EBANK5
000661: 16,3135           00056        LINRATP            DEC      46         B-14
000662:
000663:                                                                                                  #  ============================================
000664:
000665: 16,3136           44740        RATEDONE           CS       OURRCBIT                              #  MANUAL COMMAND AND DAMPING COMPLETED IN
000666: 16,3137           00004                           INHINT                                         #  ALL AXES.
000667: 16,3140           70111                           MASK     DAPBOOLS
000668: 16,3141           54111                           TS       DAPBOOLS
000669:
000670:                                                                                                  #  READ CDUS INTO CDU DESIRED REGISTERS
000671:
000672: 16,3142           34737                           CAF      BIT13
000673: 16,3143           00006                           EXTEND
000674: 16,3144           02031                           RAND     CHAN31
000675: 16,3145           00006                           EXTEND
000676: 16,3146           13152                           BZF      +4
000677: 16,3147           30032                           CA       CDUX                                  #  (X-AXIS OVERRIDE)
000678: 16,3150           55635                           TS       CDUXD
000679: 16,3151           03154                           TC       +3
000680: 16,3152           04674                           TC       IBNKCALL
000681: 16,3153           40153                           FCADR    ZATTEROR
000682: 16,3154           00003                           RELINT
000683: 16,3155           13463                           TCF      PURGENCY
000684:
000685: 16,3156           55464                           TS       PERROR
000686: 16,3157           34740        JUSTOUT            CA       OURRCBIT                              #  INITIALIZATION -- FIRST MANUAL PASS.
000687: 16,3160           26111                           ADS      DAPBOOLS
000688: 16,3161           34755                           CA       ZERO
000689: 16,3162           55446                           TS       DXERROR
000690: 16,3163           55447                           TS       DXERROR    +1
000691: 16,3164           55450                           TS       DYERROR
000692: 16,3165           55451                           TS       DYERROR    +1
000693: 16,3166           55452                           TS       DZERROR
000694: 16,3167           55453                           TS       DZERROR    +1
000695: 16,3170           55454                           TS       PLAST
000696: 16,3171           55455                           TS       QLAST
000697: 16,3172           55456                           TS       RLAST
000698: 16,3173           54042                           TS       Q-RHCCTR
000699: 16,3174           54044                           TS       R-RHCCTR
000700: 16,3175           33134                           CA       PQRBIT
000701: 16,3176           71273                           MASK     RCSFLAGS
000702: 16,3177           55273                           TS       RCSFLAGS                              #  BITS 10 AND 11 OF RCSFLAGS ARE 0.


000704: 16,3200           41273                           CS       RCSFLAGS                              #  SET 'JUST-IN' BIT TO 1.
000705: 16,3201           74743                           MASK     BIT9
000706: 16,3202           27273                           ADS      RCSFLAGS
000707: 16,3203           03205                           TC       ZEROENBL
000708: 16,3204           13442                           TCF      JETSOFF
000709: 16,3205           22044        ZEROENBL           LXCH     R-RHCCTR
000710: 16,3206           30042                           CA       Q-RHCCTR
000711: 16,3207           53463                           DXCH     SAVEHAND
000712: 16,3210           34755                           CA       ZERO
000713: 16,3211           54043                           TS       P-RHCCTR
000714: 16,3212           54042                           TS       Q-RHCCTR
000715: 16,3213           54044                           TS       R-RHCCTR
000716: 16,3214           33617                           CA       BITS8,9
000717: 16,3215           00006                           EXTEND
000718: 16,3216           05013                           WOR      CHAN13                                #  COUNTERS ZEROED AND ENABLED
000719: 16,3217           00002                           TC       Q
000720: 16,3220           34755        RATEDAMP           CA       ZERO
000721: 16,3221           54043                           TS       P-RHCCTR
000722: 16,3222           13227                           TCF      RATERROR
000723:
000724: 16,3223           34740        RHCMOVED           CA       OURRCBIT                              #  P CONTROL
000725: 16,3224           70111                           MASK     DAPBOOLS
000726: 16,3225           00006                           EXTEND
000727: 16,3226           13156                           BZF      JUSTOUT    -1
000728: 16,3227           30032        RATERROR           CA       CDUX                                  #  FINDCDUW REQUIRES THAT CDUXD=CDUX DURING
000729: 16,3230           55635                           TS       CDUXD                                 #  X-AXIS OVERRIDE
000730: 16,3231           10043                           CCS      P-RHCCTR
000731: 16,3232           13235                           TCF      +3
000732: 16,3233           13235                           TCF      +2
000733: 16,3234           13235                           TCF      +1
000734: 16,3235           60000                           DOUBLE                                         #  LINEAR/QUADRATIC CONTROLLER SCALING
000735: 16,3236           60000                           DOUBLE                                         #  (SEE EXPLANATION OF Q,R-AXES RCS
000736: 16,3237           63135                           AD       LINRATP                               #  AUTOPILOT)
000737: 16,3240           00006                           EXTEND
000738: 16,3241           70043                           MP       P-RHCCTR
000739: 16,3242           30001                           CA       L
000740: 16,3243           00006                           EXTEND
000741: 16,3244           71444                           MP       STIKSENS
000742: 16,3245           57454                           XCH      PLAST
000743: 16,3246           40000                           COM
000744: 16,3247           61454                           AD       PLAST
000745: 16,3250           55737                           TS       DAPTEMP1
000746: 16,3251           03205                           TC       ZEROENBL                              #  INTERVAL.  ZERO AND ENABLE ACA COUNTERS.
000747: 16,3252           41454                           CS       PLAST
000748: 16,3253           61421                           AD       OMEGAP
000749: 16,3254           55427                           TS       EDOTP
000750: 16,3255           11737                           CCS      DAPTEMP1                              #  IF P COMMAND CHANGE EXCEEDS BREAKOUT
000751: 16,3256           13261                           TCF      +3                                    #  LEVEL, GO TO DIRECT RATE CONTROL.  IF NOT
000752: 16,3257           13267                           TCF      +8D                                   #  CHECK FOR DIRECT RATE CONTROL LAST TIME.
000753: 16,3260           13261                           TCF      +1


000755: 16,3261           61476                           AD       -RATEDB
000756: 16,3262           00006                           EXTEND
000757: 16,3263           63267                           BZMF     +4
000758: 16,3264           33133                           CA       40CYC
000759: 16,3265           55445                           TS       TCP
000760: 16,3266           03300                           TC       PEGI
000761: 16,3267           31273                           CA       RCSFLAGS                              #  CHECK FOR DIRECT RATE COMMAND LAST TIME.
000762: 16,3270           74742                           MASK     PBIT
000763: 16,3271           00006                           EXTEND
000764: 16,3272           13274                           BZF      +2
000765: 16,3273           03300                           TC       PEGI                                  #  TO PURE RATE COMMAND
000766: 16,3274           31446                           CA       DXERROR                               #  PSEUDO-AUTO CONTROL.
000767: 16,3275           55752                           TS       E                                     #  X-ATTITUDE ERROR (SP)
000768: 16,3276           55464                           TS       PERROR                                #  LOAD P-AXIS ERROR FOR MODE1 FDAI DISPLAY
000769: 16,3277           03467                           TC       PURGENCY   +4
000770: 16,3300           30032        PEGI               CA       CDUX                                  #  DIRECT RATE CONTROL.
000771: 16,3301           55635                           TS       CDUXD
000772: 16,3302           34755                           CA       ZERO
000773: 16,3303           55446                           TS       DXERROR
000774: 16,3304           55447                           TS       DXERROR    +1
000775: 16,3305           55464                           TS       PERROR                                #  ZERO P-AXIS ERROR FOR MODE1 FDAI DISPLAY
000776: 16,3306           11427                           CCS      EDOTP
000777: 16,3307           03312                           TC       +3
000778: 16,3310           03312                           TC       +2
000779: 16,3311           03312                           TC       +1
000780: 16,3312           55737                           TS       ABSEDOTP
000781: 16,3313           61476                           AD       TARGETDB
000782: 16,3314           00006                           EXTEND                                         #  IF RATE ERROR IS LESS THAN DEADBANK,
000783: 16,3315           63325                           BZMF     LAST                                  #  FIRE, AN SWITCH TO PSEUDO-AUTO.
000784: 16,3316           31445                           CA       TCP
000785: 16,3317           00006                           EXTEND                                         #  IF TIME IN RATE COMMAND EXCEEDS 4 SEC.
000786: 16,3320           63325                           BZMF     LAST
000787: 16,3321           41273                           CS       RCSFLAGS
000788: 16,3322           74742                           MASK     PBIT
000789: 16,3323           27273                           ADS      RCSFLAGS                              #  BIT 10 IS 1.
000790: 16,3324           13330                           TCF      +4
000791: 16,3325           44742        LAST               CS       PBIT
000792: 16,3326           71273                           MASK     RCSFLAGS
000793: 16,3327           55273                           TS       RCSFLAGS                              #  BIT 10 IS 0.
000794: 16,3330           41427                           CS       EDOTP
000795: 16,3331           00006                           EXTEND
000796: 16,3332           71551                           MP       1/ANETP                               #  1/2JTACC SCALED AT 2EXP(7)/PI
000797: 16,3333           20001                           DAS      A
000798: 16,3334           02310                           TC       OVERSUB
000799: 16,3335           00006                           EXTEND
000800: 16,3336           77716                           MP       25/32                                 #  A CONTAINS TJET SCALED AT 2EXP(4)(16/25)
000801: 16,3337           55524                           TS       TJP                                   #  4.JET TIME
000802: 16,3340           31737                           CA       ABSEDOTP
000803: 16,3341           61475                           AD       -2JETLIM                              #  COMPARING DELTA RATE WITH 2 JET LIMIT
000804: 16,3342           00006                           EXTEND


000806: 16,3343           63346                           BZMF     +3
000807:
000808: 16,3344           36242                           CA       SIX
000809: 16,3345           13355                           TCF      +8D
000810: 16,3346           31524                           CA       TJP
000811: 16,3347           27524                           ADS      TJP
000812:
000813:                                                                                                  #  GOES TO PJETSLEC FOR TWO JETS
000814:                                                                                                  #  P-JET-SELECTION-ROUTINE (ROTATION)
000815:
000816:                                                                                                  #  INPUT:        NUMBERT         4,5,6 FOR WHICH PAIR OR 4 JETS
000817:                                                                                                  #                TJP             + FOR +P ROTATION
000818:
000819:                                                                                                  #  OUTPUT:       CHANNEL 6
000820:                                                                                                  #                PJUMPADR        FOR P-AXIS SKIP
000821:                                                                                                  #                (JTLST CALL)    (SMALL TJP)
000822:
000823:                                                                                                  #  ORDER OF POLICIES TRIED IN CASE OF FAILURE.
000824:                                                                                                  #        +P      -P
000825:                                                                                                  #        7,15    8,16
000826:                                                                                                  #        4,12    3,11
000827:                                                                                                  #        4,7     8,11
000828:                                                                                                  #        7,12    11,16
000829:                                                                                                  #        12,15   3,16
000830:                                                                                                  #        4,15    3,8
000831:                                                                                                  #        ALARM   ALARM
000832:
000833: 16,3350           34747                           CA       AORBSYST
000834: 16,3351           70111                           MASK     DAPBOOLS
000835: 16,3352           10000                           CCS      A
000836: 16,3353           34753                           CA       ONE
000837: 16,3354           64751                           AD       FOUR
000838: 16,3355           55743                           TS       NUMBERT
000839: 16,3356           34753        PJETSLEC           CA       ONE
000840: 16,3357           54001                           TS       L
000841: 16,3360           11524                           CCS      TJP
000842: 16,3361           13366                           TCF      +5
000843: 16,3362           13442                           TCF      JETSOFF
000844: 16,3363           13365                           TCF      +2
000845: 16,3364           13442                           TCF      JETSOFF
000846: 16,3365           22007                           ZL
000847: 16,3366           64753                           AD       ONE
000848: 16,3367           55737                           TS       ABSTJ
000849: 16,3370           23744                           LXCH     ROTINDEX
000850: 16,3371           03531                           TC       SELECTP
000851: 16,3372           46242                           CS       SIX
000852: 16,3373           61743                           AD       NUMBERT
000853: 16,3374           00006                           EXTEND
000854: 16,3375           13377                           BZF      +2
000855:
000856: 16,3376           44752                           CS       TWO
000857:


000859: 16,3377           64751                           AD       FOUR
000860: 16,3400           55521                           TS       NO.PJETS
000861: 16,3401           31741                           CA       POLYTEMP
000862: 16,3402           05754                           TC       WRITEP
000863: 16,3403           41737                           CS       ABSTJ
000864: 16,3404           63612                           AD       +150MST6
000865: 16,3405           00006                           EXTEND
000866: 16,3406           63624                           BZMF     QRAXIS                                #  GO TO QRAXIS OR TO GTS.
000867:
000868: 16,3407           63572                           AD       -136MST6
000869: 16,3410           00006                           EXTEND
000870: 16,3411           63416                           BZMF     +5
000871:
000872: 16,3412           27737                           ADS      ABSTJ
000873: 16,3413           51744                           INDEX    ROTINDEX
000874: 16,3414           33621                           CA       MINTIMES
000875: 16,3415           55524                           TS       TJP
000876:
000877: 16,3416           31737                           CA       ABSTJ
000878: 16,3417           22007                           ZL
000879: 16,3420           00004                           INHINT
000880: 16,3421           53471                           DXCH     T6FURTHA
000881: 16,3422           04674                           TC       IBNKCALL
000882: 16,3423           37114                           CADR     JTLST
000883: 16,3424           44740                           CS       BIT12
000884: 16,3425           71273                           MASK     RCSFLAGS
000885: 16,3426           55273                           TS       RCSFLAGS                              #  BIT 12 SET TO 0.
000886: 16,3427           03431                           TC       ALTSYST
000887: 16,3430           13624                           TCF      QRAXIS
000888:
000889: 16,3431           30111        ALTSYST            CA       DAPBOOLS                              #  ALTERNATE P-AXIS JETS
000890: 16,3432           54001                           TS       L
000891: 16,3433           34747                           CA       AORBSYST
000892: 16,3434           00006                           EXTEND
000893: 16,3435           06001                           RXOR     LCHAN
000894: 16,3436           54111                           TS       DAPBOOLS
000895: 16,3437           00003                           RELINT
000896: 16,3440           00002                           TC       Q
000897:
000898: 16,3441           03431        DKALT              TC       ALTSYST
000899:
000900: 16,3442           05753        JETSOFF            TC       WRITEP     -1
000901: 16,3443           34755                           CA       ZERO
000902: 16,3444           55524                           TS       TJP
000903: 16,3445           13624                           TCF      QRAXIS
000904:
000905:                                                                                                  #  (NOTE -- M13 = 1 IDENTICALLY IMPLIES NULL MULTIPLICATION.)
000906:
000907: 16,3446           30033        CALCPERR           CA       CDUY                                  #  P-ERROR CALCULATION.
000908: 16,3447           00006                           EXTEND
000909: 16,3450           21636                           MSU      CDUYD                                 #  CDU VALUE -- ANGLE DESIRED (Y-AXIS)


000911: 16,3451           00006                           EXTEND
000912: 16,3452           71414                           MP       M11                                   #  (CDUY-CDUYD)M11 SCALED AT PI RADIANS
000913: 16,3453           57752                           XCH      E                                     #  SAVE FIRST TERM (OF TWO)
000914: 16,3454           30032                           CA       CDUX                                  #  THIRD COMPONENT
000915: 16,3455           00006                           EXTEND
000916: 16,3456           21635                           MSU      CDUXD                                 #  CDU VALUE -- ANGLE DESIRED (X-AXIS)
000917:                                                                                                  #                EXTEND
000918:                                                                                                  #                MP      M13
000919: 16,3457           61277                           AD       DELPEROR                              #  KALCMANU INTERFACE ERROR.
000920: 16,3460           27752                           ADS      E                                     #  SAVE SUM OF TERMS.  COULD BE OVERFLOW.
000921: 16,3461           57464                           XCH      PERROR                                #  SAVE P-ERROR FOR EIGHT-BALL DISPLAY.
000922: 16,3462           00002                           TC       Q                                     #  RETURN TO CALLER
000923:
000924:                                                                                                  #  P-AXIS URGENCY FUNCTION CALCULATION.
000925:
000926: 16,3463           03446        PURGENCY           TC       CALCPERR                              #  CALCULATE P-AXIS ERRORS.
000927: 16,3464           41643                           CS       OMEGAPD                               #  THIS CODING IS COMMON TO BOTH LM DAP AND
000928: 16,3465           61421                           AD       OMEGAP                                #  SPS-BACKUP MODE.
000929: 16,3466           55427                           TS       EDOTP                                 #  EDOTP = OMEGAP - OMEGAPD AT PI/4 RAD/SEC
000930:
000931: 16,3467           44753                           CS       ONE
000932: 16,3470           55505                           TS       AXISCTR
000933: 16,3471           30111                           CA       DAPBOOLS
000934: 16,3472           74737                           MASK     CSMDOCKD
000935: 16,3473           00006                           EXTEND
000936: 16,3474           13505                           BZF      HEADTJET
000937: 16,3475           00004                           INHINT                                         #  IF CSMDOCKD = 1, GOT TO DOCKED RCS LOGIC
000938: 16,3476           04674                           TC       IBNKCALL
000939: 16,3477           43727                           CADR     SPSRCS
000940:
000941: 16,3500           31524                           CA       TJP
000942: 16,3501           00006                           EXTEND
000943: 16,3502           13441                           BZF      DKALT                                 #  IF TJP = ZERO, CHANGE AORBSYST.
000944: 16,3503           00003                           RELINT
000945: 16,3504           13350                           TCF      PJETSLEC   -6                         #  SELECT AORBSYST AND USE TWO JETS.
000946: 16,3505           34755        HEADTJET           CA       ZERO
000947: 16,3506           55500                           TS       SENSETYP
000948: 16,3507           00004                           INHINT
000949: 16,3510           04674                           TC       IBNKCALL
000950: 16,3511           37252                           CADR     TJETLAW
000951: 16,3512           00003                           RELINT
000952:
000953: 16,3513           41741                           CS       FIREFCT
000954: 16,3514           63530                           AD       -FOURDEG
000955: 16,3515           00006                           EXTEND
000956: 16,3516           63350                           BZMF     PJETSLEC   -6
000957: 16,3517           11524                           CCS      TJP
000958: 16,3520           13522                           TCF      +2
000959: 16,3521           13442                           TCF      JETSOFF


000961: 16,3522           63527                           AD       -160MST6
000962: 16,3523           00006                           EXTEND
000963: 16,3524           63350                           BZMF     PJETSLEC   -6
000964: 16,3525           36242                           CA       SIX
000965: 16,3526           13355                           TCF      PJETSLEC   -1
000966: 16,3527           77377        -160MST6           DEC      -256       B-14
000967: 16,3530           75117        -FOURDEG           DEC      -.08888
000968:


000970:                                                                                                  #  JET POLICY CONTSTRUCTION SUBROUTINE
000971:
000972:                                                                                                  #  INPUT:        ROTINDEX, NUMBERT
000973:
000974:                                                                                                  #  OUTPUT:       POLYTEMP (JET POLICY)
000975:
000976:                                                                                                  #  THIS SUBROUTINE SELECT A SUBSET OF THE DESIRED JETS WHICH HAS NO FAILURE
000977:
000978: 16,3531           36242        SELECTP            CA       SIX
000979: 16,3532           55742                           TS       TEMPNUM
000980: 16,3533           51743                           INDEX    NUMBERT
000981: 16,3534           33563                           CA       TYPEP
000982: 16,3535           51744                           INDEX    ROTINDEX
000983: 16,3536           73554                           MASK     JETSALL
000984: 16,3537           55741                           TS       POLYTEMP
000985: 16,3540           71263                           MASK     CH6MASK
000986: 16,3541           10000                           CCS      A
000987: 16,3542           13544                           TCF      +2
000988: 16,3543           00002                           TC       Q
000989: 16,3544           11742                           CCS      TEMPNUM
000990: 16,3545           13551                           TCF      +4
000991: 16,3546           05567                           TC       ALARM
000992: 16,3547           02003                           OCT      02003
000993: 16,3550           13442                           TCF      JETSOFF                               #  ********** TCF ALARMJET **********
000994: 16,3551           55743        SELECTYZ           TS       NUMBERT
000995: 16,3552           13532                           TCF      SELECTP    +1
000996: 16,3553           12773                 -1        TCF      ABORTYZ    +2
000997: 16,3554           00252        JETSALL            OCT      00252
000998: 16,3555           00125                           OCT      00125                                 #  +P
000999: 16,3556           00140                           OCT      00140                                 #  -Y
001000: 16,3557           00006                           OCT      00006                                 #  -Z
001001: 16,3560           00220                           OCT      00220                                 #  +Y
001002: 16,3561           00011                           OCT      00011                                 #  +Z
001003: 16,3562           00151                           OCT      00151                                 #  +V
001004: 16,3563           00146        TYPEP              OCT      00146                                 #  -U
001005: 16,3564           00226                           OCT      00226                                 #  -V
001006: 16,3565           00231                           OCT      00231                                 #  +U
001007: 16,3566           00151                           OCT      00151                                 #  +V
001008: 16,3567           00132                           OCT      00132                                 #  1-3
001009: 16,3570           00245                           OCT      00245                                 #  2-4
001010: 16,3571           00377                           OCT      00377                                 #  ALL
001011: 16,3572  16,3572               INDXYZ             =        -136MST6
001012: 16,3572           77445        -136MST6           DEC      -218       B-14
001013: 16,3573           00004                           DEC      4          B-14
001014: 16,3574           00002                           DEC      2          B-14
001015: 16,3575           07776                           OCT      07776
001016: 16,3576           00005                           DEC      5          B-14
001017: 16,3577           00011                           DEC      9          B-14
001018: 16,3600           00012                           DEC      10         B-14
001019: 16,3601           07776                           OCT      07776
001020: 16,3602           00003                           DEC      3          B-14


001022: 16,3603           00010                           DEC      8          B-14
001023: 16,3604           00007                           DEC      7          B-14
001024: 16,3605           07776                           OCT      07776                                 #  THESE INDEXES OF MASK JETSALL WILL
001025: 16,3606           07776                           OCT      07776                                 #  CHANGE THE INSTRUCTION AT SELECTP +4
001026: 16,3607           07776                           OCT      07776                                 #  TO BE         TC JETSALL -1
001027: 16,3610           07776                           OCT      07776                                 #  ONLY USED FOR TRANSLATION FAILURE
001028: 16,3611           07776                           OCT      07776
001029: 16,3612           00360        +150MST6           DEC      240        B-14
001030: 16,3613           07400        07400OCT           OCT      07400
001031:
001032:                                                                                                  #  T-JET LAW FIXED CONSTANTS
001033:
001034: 16,3614           00266        NORMSCL            OCT      266
001035: 16,3615           74631        -100MS             DEC      -.1
001036: 16,3616           06315        200MS              DEC      .2
001037: 16,3617     7716               25/32              =        PRIO31                                #  (DEC .78125)
001038: 16,3617           00600        BITS8,9            OCTAL    00600
001039: 16,3620           00632        1/40               DEC      .02500
001040: 16,3621           77751        MINTIMES           DEC      -22        B-14
001041: 16,3622           00026                           DEC      22         B-14
001042: 16,3623           02734        PSKIPADR           GENADR   SKIPPAXS
001043:
001044:                                                                                                  #  GOES TO Q,R-AXES RCS AUTOPILOT
001045:
001046: 16,3624           41645        QRAXIS             CS       OMEGARD
001047: 16,3625           61423                           AD       OMEGAR
001048: 16,3626           02310                           TC       OVERSUB
001049: 16,3627           55437                           TS       EDOTR
001050: 16,3630           41644                           CS       OMEGAQD
001051: 16,3631           61422                           AD       OMEGAQ
001052: 16,3632           02310                           TC       OVERSUB
001053: 16,3633           55436                           TS       EDOTQ
001054: 16,3634           00006                           EXTEND
001055: 16,3635           33640                           DCA      QERRCALL
001056: 16,3636           52006                           DTCB
001057:
001058: 16,3637  E6,1537                                  EBANK=   AOSQ
001059: 16,3637           02072 36106  QERRCALL           2CADR    CALLQERR

End of include-file P-AXIS_RCS_AUTOPILOT.agc.  Parent file is MAIN.agc


