
Source Code


000002:                                                                                                  ## Copyright:   Public domain.
000003:                                                                                                  ## Filename:    P20-P25.agc
000004:                                                                                                  ## Purpose:     Part of the source code for Luminary 1A build 099.
000005:                                                                                                  ##              It is part of the source code for the Lunar Module's (LM)
000006:                                                                                                  ##              Apollo Guidance Computer (AGC), for Apollo 11.
000007:                                                                                                  ## Assembler:   yaYUL
000008:                                                                                                  ## Contact:     Onno Hommes <ohommes@cmu.edu>.
000009:                                                                                                  ## Website:     www.ibiblio.org/apollo.
000010:                                                                                                  ## Pages:       0492-0613
000011:                                                                                                  ## Mod history: 2009-05-26 OH   Transcribed from page images.
000012:                                                                                                  ##              2009-06-05 RSB  Corrected a typos.
000013:                                                                                                  ##              2009-06-06 RSB  Added a missing instruction, and a block
000014:                                                                                                  ##                              of 3 missing instructions.
000015:                                                                                                  ##              2009-06-07 RSB  Fixed a misprint.
000016:                                                                                                  ##              2009-06-07 RSB  Changed the construct "2DEC E-6 B12"
000017:                                                                                                  ##                              (which isn't legal in yaYUL) to
000018:                                                                                                  ##                              "2DEC 1.0 E-6 B12".
000019:                                                                                                  ##              2011-05-07 JL   Removed workarounds.
000020:
000021:                                                                                                  ## This source code has been transcribed or otherwise adapted from
000022:                                                                                                  ## digitized images of a hardcopy from the MIT Museum.  The digitization
000023:                                                                                                  ## was performed by Paul Fjeld, and arranged for by Deborah Douglas of
000024:                                                                                                  ## the Museum.  Many thanks to both.  The images (with suitable reduction
000025:                                                                                                  ## in storage size and consequent reduction in image quality as well) are
000026:                                                                                                  ## available online at www.ibiblio.org/apollo.  If for some reason you
000027:                                                                                                  ## find that the images are illegible, contact me at info@sandroid.org
000028:                                                                                                  ## about getting access to the (much) higher-quality images which Paul
000029:                                                                                                  ## actually created.
000030:                                                                                                  ##
000031:                                                                                                  ## Notations on the hardcopy document read, in part:
000032:                                                                                                  ##
000033:                                                                                                  ##      Assemble revision 001 of AGC program LMY99 by NASA 2021112-61
000034:                                                                                                  ##      16:27 JULY 14, 1969
000035:


000037:                                                                                                  #  RENDEZVOUS NAVIGATION PROGRAM 20
000038:
000039:                                                                                                  #  PROGRAM DESCRIPTION
000040:
000041:                                                                                                  #        MOD NO -- 2
000042:                                                                                                  #        BY P. VOLANTE
000043:
000044:                                                                                                  #  FUNCTIONAL DESCRIPTION
000045:
000046:                                                                                                  #        THE PURPOSE OF THIS PROGRAM IS TO CONTROL THE RENDEZVOUS RADAR FROM
000047:                                                                                                  #        STARTUP THROUGH ACQUISITION AND LOCKON TO THE CSM AND TO UPDATE EITHER
000048:                                                                                                  #        THE LM OR CSM STATE VECTOR (AS SPECIFIED BY THE ASTRONAUT BY DSKY ENTRY)
000049:                                                                                                  #        ON THE BASIS OF THE RR TRACKING DATA.
000050:
000051:                                                                                                  #  CALLING SEQUENCE --
000052:
000053:                                                                                                  #        ASTRONAUT REQUEST THROUGH DSKY V37E20E
000054:
000055:                                                                                                  #  SUBROUTINES CALLED
000056:
000057:                                                                                                  #        R02BOTH (IMU STATUS CHECK)                      FLAGUP
000058:                                                                                                  #        GOFLASH (PINBALL-DISPLAY)                       FLAGDOWN
000059:                                                                                                  #        R23LEM  (MANUAL ACQUISITION)                    BANKCALL
000060:                                                                                                  #        LS201   (LOS DETERMINATION)                     TASKOVER
000061:                                                                                                  #        LS202   (RANGE LIMIT TEST)
000062:                                                                                                  #        R61LEM  (PREFERRED TRACKING ATTITUDE)
000063:                                                                                                  #        R21LEM  (RR DESIGNATE)                          ENDOFJOB
000064:                                                                                                  #        R22LEM  (DATA READ)                             GOPERF1
000065:                                                                                                  #        R31LEM  (RENDEZVOUS PARAMETER DISPLAY)
000066:                                                                                                  #        PRIOLARM (PRIORITY DISPLAY)
000067:
000068:                                                                                                  #  NORMAL EXIT MODES --
000069:
000070:                                                                                                  #        P20 MAY BE TERMINATED IN TWO WAYS -- ASTRONAUT SELECTION OF IDLING
000071:                                                                                                  #        PROGRAM (P00) BY KEYING V37E00E OR BY KEYING IN V56E
000072:
000073:                                                                                                  #  ALARM OR ABORT EXIT MODES --
000074:
000075:                                                                                                  #        RANGE GREATER THAN 400 NM DISPLAY
000076:
000077:                                                                                                  #  OUTPUT
000078:
000079:                                                                                                  #        TRKMKCNT = NO OF RENDEZVOUS TRACKING MARKS TAKEN (COUNTER)
000080:
000081:                                                                                                  #  ERASABLE INITIALIZATION REQUIRED
000082:
000083:                                                                                                  #  FLAGS SET + RESET
000084:
000085:                                                                                                  #        SRCHOPT, RNDVZFLG, ACMODFLG, VEHUPFLG, UPDATFLG, TRACKFLG
000086:
000087:                                                                                                  #  DEBRIS
000088:
000089:                                                                                                  #        CENTRALS -- A,Q,L
000090:
000091: 25,2062  30,2000                                  SBANK=   LOWSUPER                              #  FOR LOW 2CADR'S.
000092:
000093: 33,2045                                           BANK     33
000094: 24,2000                                           SETLOC   P20S
000095: 24,2000                                           BANK
000096:
000097: 24,2000  E7,1456                                  EBANK=   LOSCOUNT
000098: 24,2000                                           COUNT*   $$/P20
000099: 24,2000  24,2000               PROG22             =        PROG20
000100: 24,2000           05327        PROG20             TC       2PHSCHNG
000101: 24,2001           00004                           OCT      4
000102: 24,2002           05022                           OCT      05022
000103: 24,2003           26000                           OCT      26000                                 #  PRIORITY 26
000104: 24,2004           02667                           TC       LUNSFCHK                              #  CHECK IF ON LUNAR SURFACE


000106: 24,2005           02007                           TC       ORBCHGO                               #  YES
000107: 24,2006           02036                           TC       PROG20A    -2                         #  NO -- CONTINUE WITH P20
000108: 24,2007           05504        ORBCHGO            TC       UPFLAG                                #  SET VEHUPFLG -- CSM STATE
000109: 24,2010           00026                           ADRES    VEHUPFLG                              #  VECTOR TO BE UPDATED
000110: 24,2011           34753                           CAF      ONE                                   #  SET R2 FOR OPTION CSM WILL NOT
000111: 24,2012           55145                           TS       OPTION2                               #  CHANGE PRESENT ORBIT
000112: 24,2013           32311                           CAF      OCT00012
000113: 24,2014           04616                           TC       BANKCALL                              #  DISPLAY ASSUMED CSM ORBIT OPTION
000114: 24,2015           20633                           CADR     GOPERF4
000115: 24,2016           06001                           TC       GOTOP00H                              #  TERMINATE
000116: 24,2017           02021                           TC       ORBCHG1                               #  PROCEED VALUE OF ASSUMED OPTION OK
000117: 24,2020           02013                           TC       -5                                    #  R2 LOADED THRU DSKY
000118: 24,2021           42312        ORBCHG1            CS       P22ONE
000119: 24,2022           61145                           AD       OPTION2
000120: 24,2023           00006                           EXTEND
000121: 24,2024           12040                           BZF      PROG20A
000122: 24,2025           32315                           CAF      V06N33*
000123: 24,2026           04616                           TC       BANKCALL                              #  FLASH VERB-NOUN TO REQUEST ESTIMATED
000124: 24,2027           20476                           CADR     GOFLASH                               #  TIME OF LAUNCH
000125: 24,2030           06001                           TC       GOTOP00H                              #  TERMINATE
000126: 24,2031           02033                           TC       ORBCHG2                               #  PROCEED VALUES OK
000127: 24,2032           02025                           TC       -5                                    #  TIME LOADED THRU DSKY
000128: 24,2033           06037        ORBCHG2            TC       INTPRET
000129: 24,2034           77650                           GOTO
000130: 24,2035           64217                                    ORBCHG3
000131: 32,2217                                           BANK     32
000132: 32,2000                                           SETLOC   P20S4
000133: 32,2000                                           BANK
000134: 32,2217                                           COUNT*   $$/P20
000135:
000136: 32,2217           77624        ORBCHG3            CALL
000137: 32,2220           27414                                    INTSTALL
000138: 32,2221           77745                           DLOAD
000139: 32,2222           03442                                    TIG
000140: 32,2223           03661                           STORE    LNCHTM
000141: 32,2224           00041                           STORE    TDEC1                                 #  ESTIMATED LAUNCH TIME
000142: 32,2225           43014                           CLEAR    CLEAR
000143: 32,2226           01674                                    VINTFLAG                              #  LM INTEGRATION
000144: 32,2227           01673                                    INTYPFLG                              #  PRECISION -- ENCKE
000145: 32,2230           43014                           CLEAR    CLEAR
000146: 32,2231           01676                                    DIM0FLAG                              #  NO W-MATRIX
000147: 32,2232           01675                                    D6OR9FLG
000148: 32,2233           77624                           CALL
000149: 32,2234           27134                                    INTEGRV                               #  PLANETARY INERTIAL ORIENTATION
000150: 32,2235           77624                           CALL
000151: 32,2236           11244                                    GRP2PC
000152: 32,2237           77775                           VLOAD
000153: 32,2240           00017                                    RATT1
000154: 32,2241           17631                           STODL    RSUBL                                 #  SAVE LM POSITION
000155: 32,2242           00015                                    TAT


000157: 32,2243           34041                           STCALL   TDEC1
000158: 32,2244           27414                                    INTSTALL
000159: 32,2245           43014                           SET      CLEAR
000160: 32,2246           01474                                    VINTFLAG                              #  CSM INTEGRATION
000161: 32,2247           01673                                    INTYPFLG
000162: 32,2250           43014                           CLEAR    BOFF
000163: 32,2251           01676                                    DIM0FLAG
000164: 32,2252           02756                                    RENDWFLG                              #  W MATRIX VALID
000165: 32,2253           64257                                    NOWMATX                               #  NO
000166: 32,2254           43014                           SET      SET                                   #  YES -- SET FOR W MATRIX
000167: 32,2255           01476                                    DIM0FLAG
000168: 32,2256           01475                                    D6OR9FLG
000169: 32,2257           77624        NOWMATX            CALL
000170: 32,2260           27134                                    INTEGRV                               #  CSM INTEGRATION
000171: 32,2261           77624                           CALL
000172: 32,2262           11244                                    GRP2PC
000173: 32,2263           77775                           VLOAD
000174: 32,2264           00025                                    VATT1
000175: 32,2265           25761                           STOVL    VSUBC                                 #  SAVE CSM POSITION
000176: 32,2266           00017                                    RATT1
000177: 32,2267           01102                           STORE    RSUBC                                 #  SAVE CSM POSITION
000178: 32,2270           53435                           VXV      UNIT                                  #  COMPUTE NORMAL TO CSM ORBITAL PLANE
000179: 32,2271           01761                                    VSUBC                                 #  NSUB1=UNIT(R(CM) CROSS V(CM))
000180: 32,2272           24025                           STOVL    20D                                   #  SAVE NSUB1
000181: 32,2273           03631                                    RSUBL                                 #  COMPUTE ESTIMATED ORBITAL
000182: 32,2274           53435                           VXV      UNIT                                  #  PLANE CHANGE
000183: 32,2275           00025                                    20D                                   #  UCSM = UNIT(R(LM) CROSS NSUB1)
000184: 32,2276           27637                           STOVL    UCSM
000185: 32,2277           01102                                    RSUBC                                 #  COMPUTE ANGLE BETWEEN UCSM
000186: 32,2300           50256                           UNIT     DOT                                   #  AND RSUBC
000187: 32,2301           03637                                    UCSM                                  #  COS A = UCSM DOT UNIT (R(CM))
000188: 32,2302           77752                           SL1
000189: 32,2303           02732                           STORE    CSTH                                  #  SAVE DOE TIME-THETA SUBROUTINE
000190: 32,2304           44316                           DSQ      BDSU                                  #  COMPUTE SINE A
000191: 32,2305           10314                                    ONEB-2
000192: 32,2306           77766                           SQRT
000193: 32,2307           26730                           STOVL    SNTH                                  #  SAVE FOR TIME-THETA SUBROUTINE
000194: 32,2310           01102                                    RSUBC                                 #  POSITION OF CSM AT EST. LAUNCH
000195: 32,2311           26655                           STOVL    RVEC                                  #  TIME FOR TIME-THETHA  B-27
000196: 32,2312           01761                                    VSUBC                                 #  VELOCITY OF CSM AT EST. LAUNCH.
000197: 32,2313           77676                           VCOMP
000198: 32,2314           02744                           STORE    VVEC                                  #  TIME FOR TIME THETA   B-5
000199: 32,2315           45014                           CLEAR    CALL
000200: 32,2316           03666                                    RVSW
000201: 32,2317           24732                                    TIMETHET
000202: 32,2320           77676                           VCOMP
000203: 32,2321           03645                           STORE    NEWVEL                                #  TERMINAL VELOCITY OF CSM
000204: 32,2322           77745                           DLOAD
000205: 32,2323           00037                                    T
000206: 32,2324           27663                           STOVL    TRANSTM                               #  TRANSFER TIME


000208: 32,2325           03645                                    NEWVEL
000209: 32,2326           77646                           ABVAL
000210: 32,2327           24025                           STOVL    20D
000211: 32,2330           00001                                    0D
000212: 32,2331           03653                           STORE    NEWPOS                                #  TERMINAL POSITION OF CSM
000213: 32,2332           53435                           VXV      UNIT                                  #  COMPUTE NORMAL TO SCM ORBITAL PLANE
000214: 32,2333           03631                                    RSUBL                                 #  NSUB2 = UNIT(NEWPOS CROSS R(LM))
000215: 32,2334           53435                           VXV      UNIT                                  #  ROTATE TERMINAL VEL INTO DESIRED
000216: 32,2335           03653                                    NEWPOS                                #  ORBITAL PLANE
000217: 32,2336           76561                           VXSC     VSL1                                  #  VSUBC = ABVAL(NEWVEL) $ UNIT (NSUB2
000218: 32,2337           00025                                    20D
000219: 32,2340           37665                           STCALL   NCSMVEL                               #  NEW CSM VELOCITY
000220: 32,2341           11244                                    GRP2PC
000221: 32,2342           77624                           CALL
000222: 32,2343           27414                                    INTSTALL
000223: 32,2344           44345                           DLOAD    BDSU
000224: 32,2345           03663                                    TRANSTM                               #  LAUNCH TIME -- TRANSFER TIME
000225: 32,2346           03661                                    LNCHTM
000226: 32,2347           25517                           STOVL    TET
000227: 32,2350           03653                                    NEWPOS
000228: 32,2351           01535                           STORE    RCV
000229: 32,2352           25503                           STOVL    RRECT
000230: 32,2353           03665                                    NCSMVEL
000231: 32,2354           35511                           STCALL   VRECT
000232: 32,2355           23455                                    MINIRECT
000233: 32,2356           45174                           AXT,2    CALL
000234: 32,2357           00002                                    2
000235: 32,2360           26661                                    ATOPCSM
000236: 32,2361           77624                           CALL
000237: 32,2362           27423                                    INTWAKE0
000238: 32,2363           77776                           EXIT
000239: 32,2364           04616                           TC       BANKCALL
000240: 32,2365           50040                           CADR     PROG20A
000241:
000242: 24,2036                                           BANK     24
000243: 24,2000                                           SETLOC   P20S
000244: 24,2000                                           BANK
000245: 24,2036                                           COUNT*   $$/P20
000246:
000247: 24,2036           05516                           TC       DOWNFLAG                              #  RESET VEHUPFLG -- LM STATE VECTOR
000248: 24,2037           00026                           ADRES    VEHUPFLG                              #  TO BE UPDATED
000249: 24,2040           04616        PROG20A            TC       BANKCALL
000250: 24,2041           11254                           CADR     R02BOTH
000251: 24,2042           05504                           TC       UPFLAG
000252: 24,2043           00027                           ADRES    UPDATFLG                              #  SET UPDATE FLAG
000253: 24,2044           05504                           TC       UPFLAG
000254: 24,2045           00031                           ADRES    TRACKFLG                              #  SET TRACK FLAG
000255: 24,2046           05504                           TC       UPFLAG
000256: 24,2047           00010                           ADRES    RNDVZFLG                              #  SET RENDEZVOUS FLAG
000257: 24,2050           05516                           TC       DOWNFLAG
000258: 24,2051           00037                           ADRES    SRCHOPTN                              #  INSURE SEARCH OPTION OFF


000260: 24,2052           05516                           TC       DOWNFLAG                              #  ALSO MANUAL ACQUISITION FLAG RESET
000261: 24,2053           00040                           ADRES    ACMODFLG
000262: 24,2054           05516                           TC       DOWNFLAG                              #  TURN OFF R04FLAG TO ENSURE GETTING
000263: 24,2055           00063                           ADRES    R04FLAG                               #  ALARM 521 IF CAN'T READ RADAR
000264: 24,2056           05516                           TC       DOWNFLAG                              #  ENSURE R25 GIMBAL MONITOR IS ENABLED
000265: 24,2057           00126                           ADRES    NORRMON                               #  (RESET NORRMON FLAG)
000266: 24,2060           05516                           TC       DOWNFLAG                              #  RESET LOS BEING COMPUTED FLAG
000267: 24,2061           00041                           ADRES    LOSCMFLG
000268: 24,2062           06011                           TC       CLRADMOD
000269: 24,2063           05353        P20LEM1            TC       PHASCHNG
000270: 24,2064           04022                           OCT      04022
000271: 24,2065           34755                           CAF      ZERO                                  #  ZERO MARK COUNTER
000272: 24,2066           55462                           TS       MARKCTR
000273: 24,2067           06037                           TC       INTPRET                               #  LOS DETERMINATION ROUTINE
000274: 24,2070           77634                           RTB
000275: 24,2071           21573                                    LOADTIME
000276: 24,2072           34041                           STCALL   TDEC1
000277: 24,2073           51255                                    LPS20.1
000278: 24,2074           77624                           CALL
000279: 24,2075           53565                                    LPS20.2                               #  TEST RANGE R/UTINE
000280: 24,2076           77776                           EXIT
000281: 24,2077           50154                           INDEX    MPAC
000282: 24,2100           02101                           TC       +1
000283: 24,2101           02111                           TC       P20LEMA                               #  NORMAL RETURN WITHIN 400 N M
000284: 24,2102           32305        526ALARM           CAF      ALRM526                               #  ERROR EXIT -- RANGE > 400 N. MI.
000285: 24,2103           04616                           TC       BANKCALL
000286: 24,2104           21562                           CADR     PRIOLARM
000287: 24,2105           06022                           TC       GOTOV56                               #  TERMINATE EXITS P20 VIA V56 CODING
000288: 24,2106           02102                           TC       -4                                    #  PROC (ILLEGAL)
000289: 24,2107           02063                           TC       P20LEM1                               #  ENTER RECYCLE
000290: 24,2110           05155                           TC       ENDOFJOB
000291:
000292: 24,2111           05353        P20LEMA            TC       PHASCHNG
000293: 24,2112           04022                           OCT      04022
000294: 24,2113           02667                           TC       LUNSFCHK                              #  CHECK LUNAR SURFACE FLAG (P22 FLAG)
000295: 24,2114           02117                           TC       P20LEMB
000296: 24,2115           04616                           TC       BANKCALL
000297: 24,2116           46116                           CADR     R61LEM                                #  PREFERRED TRACKING ATTITUDE ROUTINE
000298: 24,2117           05353        P20LEMB            TC       PHASCHNG
000299: 24,2120           05022                           OCT      05022                                 #  RESTART AT PRIORITY 10 TO ALLOW V37
000300: 24,2121           10000                           OCT      10000                                 #  REQUESTED PROGRAM TO RUN FIRST
000301: 24,2122           37714                           CAF      PRIO26                                #  RESTORE PRIORITY 26
000302: 24,2123           05146                           TC       PRIOCHNG
000303: 24,2124           30075                           CA       FLAGWRD1                              #  IS THE TRACK FLAG SET
000304: 24,2125           74747                           MASK     TRACKBIT
000305: 24,2126           00006                           EXTEND
000306: 24,2127           12232                           BZF      P20LEMWT                              #  BRANCH -- NO -- WAIT FOR IT TO BE SET
000307: 24,2130           34752        P20LEMB7           CAF      BIT2                                  #  IS RR AUTO MODE DISCRETE PRESENT
000308: 24,2131           00006                           EXTEND


000310: 24,2132           02033                           RAND     CHAN33
000311: 24,2133           00006                           EXTEND
000312: 24,2134           12170                           BZF      P20LEMB3                              #  YES -- DO AUTOMATIC ACQUISITION (R21)
000313:
000314: 24,2135           46007        P20LEMB5           CS       OCT24                                 #  RADAR NOT IN AUTO CHECK IF
000315: 24,2136           61011                           AD       MODREG                                #  MAJOR MODE IS 20
000316: 24,2137           00006                           EXTEND
000317: 24,2140           12153                           BZF      P20LEMB6                              #  BRANCH -- YES -- OKAY TO DO PLEASE PERFORM
000318:
000319: 24,2141           67746                           AD       NEG2                                  #  ALSO CHECK FOR P22
000320: 24,2142           00006                           EXTEND
000321: 24,2143           12153                           BZF      P20LEMB6                              #  BRANCH -- YES OK TO DO PLEASE PERFORM
000322: 24,2144           32307                           CAF      ALRM514                               #  TRACK FLAG SET -- FLASH PRIORITY ALARM 514 --
000323: 24,2145           04616                           TC       BANKCALL                              #  RADAR GOES OUT OF AUTO MODE WHILE IN USE
000324: 24,2146           21562                           CADR     PRIOLARM
000325: 24,2147           06022                           TC       GOTOV56                               #  TERMINATE EXITS VIA V56
000326: 24,2150           02117                           TC       P20LEMB                               #  PROCEED AND ENTER BOTH GO BACK
000327: 24,2151           02117                           TC       P20LEMB                               #  TO CHECK AUTO MODE AGAIN
000328: 24,2152           05155                           TC       ENDOFJOB
000329: 24,2153           32306        P20LEMB6           CAF      OCT201                                #  REQUEST RR AUTO MODE SELECTION
000330: 24,2154           04616                           TC       BANKCALL
000331: 24,2155           20623                           CADR     GOPERF1
000332: 24,2156           06022                           TC       GOTOV56                               #  TERMINATE EXITS P20 VIA V56 CODING
000333: 24,2157           02117                           TC       P20LEMB                               #  PROCEED CHECKS AUTO MODE DISCRETE AGAIN
000334: 24,2160           02667                           TC       LUNSFCHK                              #  ENTER INDICATES MANUAL ACQUISITION (R23)
000335: 24,2161           02166                           TC       P20LEMB2                              #  YES -- R23 NOT ALLOWED -- TURN ON OPR ERROR
000336: 24,2162           03135                           TC       R23LEM                                #  NO -- DO MANUAL ACQUISITION
000337:
000338: 24,2163           05504        P20LEMB1           TC       UPFLAG                                #  RETURN FROM R23 -- LOCKON ACHIEVED
000339: 24,2164           00040                           ADRES    ACMODFLG                              #  SET MANUAL FLAG AND GO BACK TO CHECK
000340: 24,2165           02117                           TC       P20LEMB                               #  RR AUTO MODE
000341:
000342: 24,2166           04364        P20LEMB2           TC       FALTON                                #  TURNS ON OPERATOR ERROR LIGHT ON DSKY
000343: 24,2167           02117                           TC       P20LEMB                               #  AND GOES BACK TO CHECK AUTO MODE
000344:
000345: 24,2170           40110        P20LEMB3           CS       RADMODES                              #  ARE RR CDUS BEING ZEROED
000346: 24,2171           74737                           MASK     RCDU0BIT
000347: 24,2172           00006                           EXTEND
000348: 24,2173           12205                           BZF      P20LEMB4                              #  BRANCH -- YES -- WAIT
000349: 24,2174           34355                           CAF      BIT13-14                              #  IS SEARCH OR MANUAL ACQUISITION FLAG SET
000350: 24,2175           70076                           MASK     FLAGWRD2
000351: 24,2176           00006                           EXTEND
000352: 24,2177           12211                           BZF      P20LEMC3                              #  ZERO MEANS AUTOMATIC RR ACQUISITION
000353: 24,2200           05516                           TC       DOWNFLAG                              #  RESET TO AUTO MODE
000354: 24,2201           00037                           ADRES    SRCHOPTN


000356: 24,2202           05516                           TC       DOWNFLAG
000357: 24,2203           00040                           ADRES    ACMODFLG
000358: 24,2204           02232                           TC       P20LEMWT                              #  WAIT 2.5 SECONDS THEN GO TO RR DATA READ
000359:
000360: 24,2205           32304        P20LEMB4           CAF      250DEC
000361: 24,2206           04616                           TC       BANKCALL                              #  WAIT 2.5 SECONDS WHILE RR CDUS ARE BEING
000362: 24,2207           01735                           CADR     DELAYJOB                              #  ZEROED -- THEN GO BACK AND CHECK AGAIN
000363: 24,2210           02170                           TC       P20LEMB3
000364:
000365: 24,2211           06037        P20LEMC3           TC       INTPRET
000366: 24,2212           77634                           RTB
000367: 24,2213           21573                                    LOADTIME
000368: 24,2214           34041                           STCALL   TDEC1
000369: 24,2215           50316                                    UPPSV
000370: 24,2216           77776        P20LEMC4           EXIT
000371: 24,2217           05353        P20LEMC            TC       PHASCHNG
000372: 24,2220           04022                           OCT      04022
000373: 24,2221           30074                           CAE      FLAGWRD0                              #  IS THE RENDEZVOUS FLAG SET
000374: 24,2222           74745                           MASK     RNDVZBIT
000375: 24,2223           00006                           EXTEND
000376: 24,2224           15155                           BZF      ENDOFJOB                              #  NO -- EXIT P20
000377: 24,2225           30075                           CAE      FLAGWRD1                              #  IS TRACK FLAG SET (BIT 5 FLAGWORD 1)
000378: 24,2226           74747                           MASK     TRACKBIT
000379: 24,2227           00006                           EXTEND
000380: 24,2230           12264                           BZF      P20LEMD                               #  BRANCH -- TRACK FLAG NOT ON -- WAIT 15 SECONDS
000381: 24,2231           02674        P20LEMF            TC       R21LEM
000382:
000383: 24,2232           32304        P20LEMWT           CAF      250DEC
000384: 24,2233           05173                           TC       TWIDDLE                               #  USE INSTEAD OF WAITLIST SINCE SAME BANK
000385: 24,2234           02244                           ADRES    P20LEMC1                              #  WAIT 2.5 SECONDS
000386: 24,2235           30075                           CAE      FLAGWRD1                              #  IS TRACK FLAG SET
000387: 24,2236           74747                           MASK     TRACKBIT
000388: 24,2237           00006                           EXTEND
000389: 24,2240           15155                           BZF      ENDOFJOB                              #  NO -- EXIT WITHOUT DOING 2.7 PHASE CHANGE
000390: 24,2241           05353        P20LMWT1           TC       PHASCHNG
000391: 24,2242           40072                           OCT      40072
000392: 24,2243           05155                           TC       ENDOFJOB
000393:
000394: 24,2244           30074        P20LEMC1           CAE      FLAGWRD0                              #  IS RENDEZVOUS FLAG SET
000395: 24,2245           74745                           MASK     RNDVZBIT
000396: 24,2246           00006                           EXTEND
000397: 24,2247           15261                           BZF      TASKOVER                              #  NO -- EXIT P20/R22
000398: 24,2250           30075                           CAE      FLAGWRD1                              #  IS TRACK FLAG SET
000399: 24,2251           74747                           MASK     TRACKBIT
000400: 24,2252           00006                           EXTEND
000401: 24,2253           12261                           BZF      P20LEMC2                              #  NO -- DON'T SCHEDULE R22 JOB


000403: 24,2254           37714                           CAF      PRIO26                                #  YES -- SCHEDULE R22 JOB (RR DATA READ)
000404: 24,2255           05105                           TC       FINDVAC
000405: 24,2256  E7,1456                                  EBANK=   LOSCOUNT
000406: 24,2256           02627 50067                     2CADR    R22LEM42
000407:
000408: 24,2260           05261                           TC       TASKOVER
000409:
000410: 24,2261           05221        P20LEMC2           TC       FIXDELAY                              #  TRACK FLAG NOT SET, WAIT 15 SECONDS
000411: 24,2262           02734                           DEC      1500       B-14                       #  AND CHECK AGAIN
000412:
000413: 24,2263           02244                           TC       P20LEMC1
000414:
000415: 24,2264           32666        P20LEMD            CAF      1500DEC
000416: 24,2265           05173                           TC       TWIDDLE                               #  WAITLIST FOR 15 SECONDS
000417: 24,2266           02270                           ADRES    P20LEMD1
000418: 24,2267           05155                           TC       ENDOFJOB
000419:
000420: 24,2270           30075        P20LEMD1           CAE      FLAGWRD1                              #  IS TRACK FLAG SET
000421: 24,2271           74747                           MASK     TRACKBIT
000422: 24,2272           10000                           CCS      A
000423: 24,2273           12277                           TCF      P20LEMD2                              #  YES -- SCHEDULE DESIGNATE JOB
000424: 24,2274           05221                           TC       FIXDELAY                              #  NO -- WAIT 15 SECONDS
000425: 24,2275           02734                           DEC      1500       B-14
000426: 24,2276           02270                           TC       P20LEMD1
000427:
000428: 24,2277           37714        P20LEMD2           CAF      PRIO26                                #  SCHEDULE JOB TO DO R21
000429: 24,2300           05105                           TC       FINDVAC
000430: 24,2301  E7,1456                                  EBANK=   LOSCOUNT
000431: 24,2301           02211 50067                     2CADR    P20LEMC3                              #  START AT PERM.  MEMORY INTEGRATION
000432:
000433: 24,2303           05261                           TC       TASKOVER
000434:
000435: 24,2304           00372        250DEC             DEC      250        B-14
000436: 24,2305           00526        ALRM526            OCT      00526
000437: 24,2306           00201        OCT201             OCT      00201
000438: 24,2307           00514        ALRM514            OCT      514
000439: 24,2310           00074        MAXTRIES           DEC      60         B-14
000440: 24,2311           00012        OCT00012           OCT      00012
000441: 24,2312           00001        P22ONE             OCT      00001
000442: 24,2313           10000 00000  ONEB-2             2DEC     1.0        B-2
000443:
000444: 24,2315           01441        V06N33*            VN       0633
000445: 24,2316           45020        UPPSV              STQ      CALL                                  #  UPDATES PERMANENT STATE VECTORS
000446: 24,2317           01757                                    LS21X                                 #        TO PRESENT TIME
000447: 24,2320           27414                                    INTSTALL
000448: 24,2321           77624                           CALL


000450: 24,2322           26644                                    SETIFLGS
000451: 24,2323           43014                           BOF      SET                                   #  IF W-MATRIX INVALID, DON'T INTEGRATE IT
000452: 24,2324           02756                                    RENDWFLG
000453: 24,2325           50336                                    UPPSV1
000454: 24,2326           01476                                    DIM0FLAG                              #  SET DIM0FLAG TO INTEGRATE W-MATRIX
000455: 24,2327           43014                           BON      SET
000456: 24,2330           04307                                    SURFFLAG                              #  IF ON LUNAR SURFACE W IS 6X6
000457: 24,2331           50333                                    UPPSV5
000458: 24,2332           01475                                    D6OR9FLG                              #  OTHERWISE 9X9
000459: 24,2333           77614        UPPSV5             BOF
000460: 24,2334           00747                                    VEHUPFLG
000461: 24,2335           50370                                    UPPSV3
000462: 24,2336           77614        UPPSV1             SET
000463: 24,2337           01474                                    VINTFLAG
000464: 24,2340           77624                           CALL
000465: 24,2341           27134                                    INTEGRV
000466: 24,2342           77624                           CALL                                           #  GROUP 2 PHASE CHANGE
000467: 24,2343           11244                                    GRP2PC                                #  TO PROTECT INTEGRATION
000468: 24,2344           77624                           CALL
000469: 24,2345           27414                                    INTSTALL
000470: 24,2346           43145                           DLOAD    CLEAR                                 #  GET TETCSM TO STORE IN TDEC FOR LM INT.
000471: 24,2347           01571                                    TETCSM
000472: 24,2350           01674                                    VINTFLAG
000473: 24,2351           77624        UPPSV4             CALL                                           #  INTEGRATE OTHER VEHICLE
000474: 24,2352           26644                                    SETIFLGS                              #        WITHOUT W-MATRIX
000475: 24,2353           34041                           STCALL   TDEC1
000476: 24,2354           27134                                    INTEGRV
000477: 24,2355           77214                           BOFF     VLOAD
000478: 24,2356           04347                                    SURFFLAG
000479: 24,2357           50216                                    P20LEMC4
000480: 24,2360           01661                                    RCVLEM
000481: 24,2361           77742                           VSR2
000482: 24,2362           26352                           STOVL    LMPOS
000483: 24,2363           01667                                    VCVLEM
000484: 24,2364           77742                           VSR2
000485: 24,2365           02360                           STORE    LMVEL
000486: 24,2366           77650                           GOTO
000487: 24,2367           01757                                    LS21X
000488:
000489: 24,2370           45014        UPPSV3             CLEAR    CALL
000490: 24,2371           01674                                    VINTFLAG
000491: 24,2372           27134                                    INTEGRV
000492: 24,2373           77624                           CALL
000493: 24,2374           11244                                    GRP2PC
000494: 24,2375           77624                           CALL
000495: 24,2376           27414                                    INTSTALL
000496: 24,2377           71214                           SET      DLOAD
000497: 24,2400           01474                                    VINTFLAG
000498: 24,2401           01643                                    TETLEM                                #  GET TETLEM TO STORE IN TDEC FOR CSM INT.


000500: 24,2402           77650                           GOTO
000501: 24,2403           50351                                    UPPSV4
000502: 24,2404  E7,1456                                  EBANK=   LOSCOUNT
000503: 24,2404                                           COUNT*   $$/P22
000504:


000506:                                                                                                  #  PROGRAM DESCRIPTION
000507:
000508:                                                                                                  #        PREFERRED TRACKING ATTITUDE PROGRAM P25
000509:                                                                                                  #        MOD NO -- 3
000510:                                                                                                  #        BY P. VOLANTE
000511:
000512:                                                                                                  #  FUNCTIONAL DESCRIPTION
000513:
000514:                                                                                                  #        THE PURPOSE OF THIS PROGRAM IS TO COMPUTE THE PREFERRED TRACKING
000515:                                                                                                  #        ATTITUDE OF THE LM TO CONTINUOUSLY POINT THE LM TRTACKING BEACON AT THE
000516:                                                                                                  #        CSM AND TO PERFORM THE MANEUVER TO THE PREFERRED TRACKING ATTITUDE AND
000517:                                                                                                  #        CONTINUOUSLY MAINTAIN THIS ATTITUDE WITHIN PRESCRIBED LIMITS.
000518:
000519:                                                                                                  #  CALLING SEQUENCE --
000520:
000521:                                                                                                  #        ASTRONAUT REQUEST THROUGH DSKY V37E25E
000522:
000523:                                                                                                  #  SUBROUTINES CALLED --
000524:
000525:                                                                                                  #        BANKCALL                                        FLAGUP
000526:                                                                                                  #        R02BOTH (IMU STATUS CHECK)                      ENDOFJOB
000527:                                                                                                  #        R61LEM  (PREF TRK ATT ROUT)                     WAITLIST
000528:                                                                                                  #        TASKOVER                                        FINDVAC
000529:
000530:                                                                                                  #  NORMAL EXIT MODES --
000531:
000532:                                                                                                  #        P25 MAY BE TERMINATED IN TWO WAYS -- ASTRONAUT SELECTION OF IDLING
000533:                                                                                                  #        PROGRAM (P00) BY KEYING V37E00E OR BY KEYING IN V56E
000534:
000535:                                                                                                  #  ALARM OR ABORT EXIT MODES --
000536:
000537:                                                                                                  #        NONE
000538:
000539:                                                                                                  #  OUTPUT
000540:
000541:                                                                                                  #  ERASABLE INITIALIZATION REQUIRED
000542:
000543:                                                                                                  #  FLAGS SET + RESET
000544:
000545:                                                                                                  #        TRACKFLG, P25FLAG
000546:
000547:                                                                                                  #  DEBRIS
000548:
000549:                                                                                                  #        NONE
000550:
000551: 24,2404  E7,1456                                  EBANK=   LOSCOUNT
000552: 24,2404                                           COUNT*   $$/P25
000553: 24,2404           05327        PROG25             TC       2PHSCHNG
000554: 24,2405           00004                           OCT      4                                     #  MAKE GROUP 4 INACTIVE (VERB 37)
000555: 24,2406           05022                           OCT      05022
000556: 24,2407           26000                           OCT      26000                                 #  PRIORITY 26
000557:
000558: 24,2410           04616                           TC       BANKCALL
000559: 24,2411           11254                           CADR     R02BOTH                               #  IMU STATUS CHECK
000560: 24,2412           05504                           TC       UPFLAG
000561: 24,2413           00031                           ADRES    TRACKFLG                              #  SET TRACK FLAG
000562: 24,2414           05504                           TC       UPFLAG
000563: 24,2415           00006                           ADRES    P25FLAG                               #  SET P25FLAG
000564: 24,2416           05353        P25LEM1            TC       PHASCHNG
000565: 24,2417           04022                           OCT      04022
000566: 24,2420           34743                           CAF      P25FLBIT
000567: 24,2421           70074                           MASK     STATE                                 #  IS P25FLAG SET
000568: 24,2422           00006                           EXTEND
000569: 24,2423           15155                           BZF      ENDOFJOB
000570: 24,2424           34747                           CAF      TRACKBIT                              #  IS TRACKFLAG SET?
000571: 24,2425           70075                           MASK     STATE      +1
000572: 24,2426           00006                           EXTEND


000574: 24,2427           12437                           BZF      P25LMWT1                              #  NO -- SKIP PHASE CHANGE AND WAIT 1 MINUTE
000575: 24,2430           34757                           CAF      SEVEN                                 #  CALL R65 -- FINE PREFERRED
000576: 24,2431           55745                           TS       R65CNTR
000577: 24,2432           04616                           TC       BANKCALL                              #  TRACKING ATTITUDE ROUTINE
000578: 24,2433           46123                           CADR     R65LEM
000579: 24,2434           02416                           TC       P25LEM1                               #  THEN GO CHECK FLAGS
000580: 24,2435           05353        P25LEMWT           TC       PHASCHNG
000581: 24,2436           00112                           OCT      00112
000582: 24,2437           32450        P25LMWT1           CAF      60SCNDS
000583: 24,2440           05173                           TC       TWIDDLE                               #  WAIT ONE MINUTE THEN CHECK AGAIN
000584: 24,2441           02443                           ADRES    P25LEM2
000585: 24,2442           05155                           TC       ENDOFJOB
000586: 24,2443           35024        P25LEM2            CAF      PRIO14
000587: 24,2444           05105                           TC       FINDVAC
000588: 24,2445  E7,1456                                  EBANK=   LOSCOUNT
000589: 24,2445           02416 50067                     2CADR    P25LEM1
000590:
000591: 24,2447           05261                           TC       TASKOVER
000592: 24,2450           13560        60SCNDS            DEC      6000       B-14
000593:


000595:                                                                                                  #  DATA READ ROUTINE 22 (LEM)
000596:                                                                                                  #  PROGRAM DESCRIPTION
000597:
000598:                                                                                                  #        MOD NO -- 2
000599:                                                                                                  #        BY P. VOLANTE
000600:
000601:                                                                                                  #  FUNCTIONAL DESCRIPTION
000602:
000603:                                                                                                  #        TO PROCESS AUTOMATIC RR MARK DATA TO UPDATE THE STATE VECTOR OF EITHER
000604:                                                                                                  #        LM OR CSM AS DEFINED IN THE RENDEZVOUS NAVIGATION PROGRAM (P20)
000605:
000606:                                                                                                  #  CALLING SEQUENCE --
000607:
000608:                                                                                                  #        TC      BANKCALL
000609:                                                                                                  #        CADR    R22LEM
000610:
000611:                                                                                                  #  SUBROUTINES CALLED --
000612:
000613:                                                                                                  #        LSR22.1         GOFLASH         WAITLIST
000614:                                                                                                  #        LSR22.2         PRIOLARM        BANKCALL
000615:                                                                                                  #        LSR22.3         R61LEM
000616:
000617:                                                                                                  #  NORMAL EXIT MODES --
000618:
000619:                                                                                                  #        R22 WILL CONTINUE TO RECYCLE, UPDATING STATE VECTORS WITH RADAR DATA
000620:                                                                                                  #        UNTIL P20 CEASES TO OPERATE (RENDEZVOUS FLAG SET TO ZERO) AT WHICH TIME
000621:                                                                                                  #        R22 WILL TERMINATE SELF.
000622:
000623:                                                                                                  #  ALARM OR ABORT EXIT MODES --
000624:
000625:                                                                                                  #        PRIORITY ALARM
000626:                                                                                                  #        PRIORITY ALARM 525 LOS NOT WITHIN 3 DEGREE LIMIT
000627:
000628:                                                                                                  #  OUTPUT
000629:
000630:                                                                                                  #        SEE OUTPUT FROM LSR22.3
000631:
000632:                                                                                                  #  ERASABLE INITIALIZATION REQUIRED
000633:
000634:                                                                                                  #        SEE LSR22.1, LSR22.2, LSR22.3
000635:
000636:                                                                                                  #  FLAGS SET + RESET
000637:
000638:                                                                                                  #        NOANGFLG
000639:
000640:                                                                                                  #  DEBRIS
000641:
000642:                                                                                                  #        SEE LSR22.1, LSR22.2, LSR22.3
000643:
000644: 24,2451  E7,1737                                  EBANK=   LRS22.1X
000645: 24,2451                                           COUNT*   $$/R22
000646: 24,2451           05353        R22LEM             TC       PHASCHNG
000647: 24,2452           04022                           OCT      04022
000648: 24,2453           34745                           CAF      RNDVZBIT                              #  IS RENDEZVOUS FLAG SET?
000649: 24,2454           70074                           MASK     STATE
000650: 24,2455           00006                           EXTEND
000651: 24,2456           15155                           BZF      ENDOFJOB                              #  NO -- EXIT R22 AND P20
000652: 24,2457           34747                           CAF      TRACKBIT                              #  IS TRACKFLAG SET?
000653: 24,2460           70075                           MASK     STATE      +1
000654: 24,2461           00006                           EXTEND
000655: 24,2462           12636                           BZF      R22WAIT                               #  NO WAIT
000656: 24,2463           34736        R22LEM12           CAF      BIT14                                 #  IS RR AUTO TRACK ENABLE DISCRETE STILL
000657: 24,2464           00006                           EXTEND                                         #  ON (A MONITOR REPOSITION BY R25 CLEARS IT)
000658: 24,2465           02012                           RAND     CHAN12
000659: 24,2466           00006                           EXTEND
000660: 24,2467           12111                           BZF      P20LEMA                               #  NO -- RETURN TO P20
000661: 24,2470           34752                           CAF      BIT2                                  #  YES
000662: 24,2471           00006                           EXTEND                                         #  IS RR AUTO MODE DISCRETE PRESENT
000663: 24,2472           02033                           RAND     CHAN33


000665: 24,2473           00006                           EXTEND
000666: 24,2474           12476                           BZF      +2                                    #  YES CONTINUE
000667: 24,2475           02135                           TC       P20LEMB5                              #  NO -- SET IT
000668: 24,2476           40110                           CS       RADMODES                              #  ARE RR CDUS BEING ZEROED
000669: 24,2477           74737                           MASK     RCDU0BIT
000670: 24,2500           00006                           EXTEND
000671: 24,2501           12627                           BZF      R22LEM42                              #  CDUS BEING ZEROED
000672: 24,2502           05353                           TC       PHASCHNG                              #  IF A RESTART OCCURS, AND EXTRA RADAR
000673: 24,2503           00152                           OCT      00152                                 #  READING IS TAKEN, SO BAD DATA ISN'T USED
000674: 24,2504           04616                           TC       BANKCALL                              #  YES READ DATA + CALCULATE LOS
000675: 24,2505           64366                           CADR     LRS22.1                               #  DATA READ SUBROUTINE
000676: 24,2506           50154                           INDEX    MPAC
000677: 24,2507           02510                           TC       +1
000678: 24,2510           02531                           TC       R22LEM2                               #  NORMAL RETURN (GOOD DATA)
000679: 24,2511           02217                           TC       P20LEMC                               #  COULD NOT READ RADAR -- TRY TO REDESIGNATE
000680: 24,2512           32663                           CAF      ALRM525                               #  RR LOS NOT WITHIN 3 DEGREES (ALARM)
000681: 24,2513           04616                           TC       BANKCALL
000682: 24,2514           21562                           CADR     PRIOLARM
000683: 24,2515           06022                           TC       GOTOV56                               #  TERMINATE EXITS P20 VIA V56 CODING
000684: 24,2516           02521                           TC       R22LEM1                               #  PROC (DISPLAY DELTA THETA)
000685: 24,2517           02512                           TC       -5                                    #  ENTER (ILLEGAL OPTION)
000686: 24,2520           05155                           TC       ENDOFJOB
000687:
000688: 24,2521           05353        R22LEM1            TC       PHASCHNG
000689: 24,2522           04022                           OCT      04022
000690: 24,2523           32664                           CAF      V06N05                                #  DISPLAY DELTA THETA
000691: 24,2524           04616                           TC       BANKCALL
000692: 24,2525           20507                           CADR     PRIODSP
000693: 24,2526           06022                           TC       GOTOV56                               #  TERMINATE EXITS P20 VIA V56 CODING
000694: 24,2527           02531                           TC       R22LEM2                               #  PROC (OK CONTINUE)
000695: 24,2530           02217                           TC       P20LEMC                               #  ENTER (RECYCLE)
000696: 24,2531           05353        R22LEM2            TC       PHASCHNG
000697: 24,2532           04022                           OCT      04022
000698: 24,2533           02667                           TC       LUNSFCHK                              #  CHECK IF ON LUNAR SURFACE (P22FLAG SET)
000699: 24,2534           02551                           TC       R22LEM3                               #  YES -- BYPASS FLAG CHECKS AND LRS22.2
000700: 24,2535           30075                           CA       FLAGWRD1                              #  IS TRACK FLAG SET
000701: 24,2536           74747                           MASK     TRACKBIT
000702: 24,2537           00006                           EXTEND
000703: 24,2540           12636                           BZF      R22WAIT                               #  NO -- WAIT
000704: 24,2541           04616                           TC       BANKCALL                              #  YES
000705: 24,2542           51333                           CADR     LRS22.2                               #  CHECKS RR BORESIGHT WITHIN 30 DEG OF +Z
000706: 24,2543           50154                           INDEX    MPAC
000707: 24,2544           02545                           TC       +1
000708: 24,2545           02551                           TC       R22LEM3                               #  NORMAL RETURN (LOS WITHIN 30 OF Z-AXIS)
000709: 24,2546           04616                           TC       BANKCALL
000710: 24,2547           46116                           CADR     R61LEM
000711: 24,2550           02636                           TC       R22WAIT                               #  NOT WITHIN 30 DEG OF Z-AXIS
000712: 24,2551           40075        R22LEM3            CS       FLAGWRD1                              #  SHOULD WE BYPASS STATE VECTOR UPDATE
000713: 24,2552           74746                           MASK     NOUPFBIT                              #  (IS NO UPDATE FLAG SET?)


000715: 24,2553           00006                           EXTEND
000716: 24,2554           12627                           BZF      R22LEM42                              #  BRANCH -- YES
000717: 24,2555           30075                           CA       FLAGWRD1                              #  IS UPDATE FLAG SET
000718: 24,2556           74745                           MASK     UPDATBIT
000719: 24,2557           00006                           EXTEND
000720: 24,2560           12627                           BZF      R22LEM42                              #  UPDATE FLAG NOT SET
000721: 24,2561           37714                           CAF      PRIO26                                #  INSURE HIGH PRIO IN RESTART
000722: 24,2562           55056                           TS       PHSPRDT2
000723:
000724: 24,2563           06037                           TC       INTPRET
000725: 24,2564           77650                           GOTO
000726: 24,2565           54412                                    LSR22.3
000727: 24,2566           77776        R22LEM93           EXIT                                           #  NORMAL EXIT FROM LSR22.3
000728: 24,2567           05353                           TC       PHASCHNG                              #  PHASE CHANGE TO PROTECT AGAINST
000729: 24,2570           04022                           OCT      04022                                 #  CONFLICT WITH GRP2PC ERASEABLE
000730: 24,2571           12622                           TCF      R22LEM44
000731: 24,2572           77776        R22LEM96           EXIT
000732: 24,2573           34755                           CAF      ZERO                                  #  SET N49FLAG = ZERO TO INDICATE
000733: 24,2574           55746                           TS       N49FLAG                               #  V06 N49 DISPLAY HASN'T BEEN ANSWERED
000734: 24,2575           05353                           TC       PHASCHNG
000735: 24,2576           04022                           OCT      04022                                 #  TO PROTECT DISPLAY
000736: 24,2577           37715                           CAF      PRIO27                                #  PROTECT DISPLAY
000737: 24,2600           05072                           TC       NOVAC
000738: 24,2601  E7,1746                                  EBANK=   N49FLAG
000739: 24,2601           02644 50067                     2CADR    N49DSP
000740:
000741: 24,2603           06037                           TC       INTPRET
000742: 24,2604           77735                           SLOAD
000743: 24,2605           03747                                    N49FLAG
000744: 24,2606           50054                           BZE      BMN                                   #  LOOP TO CHECK IF FLAG
000745: 24,2607           50604                                    -3                                    #  SETTING CHANGED -- BRANCH -- NO
000746: 24,2610           50616                                    R22LEM7                               #  PROCEED
000747: 24,2611           77776                           EXIT                                           #  DISPLAY ANSERED BY RECYCLE
000748: 24,2612           02667                           TC       LUNSFCHK                              #  ARE WE ON LUNAR SURFACE
000749: 24,2613           02636                           TC       R22WAIT                               #  YES -- 15 SECOND DELAY
000750: 24,2614           34755                           CA       ZERO                                  #  NO -- SET R65COUNTER = 0, DO FINE
000751: 24,2615           02632                           TC       R22LEM45                              #  TRACKING TAKE ANOTHER RADAR READING
000752: 24,2616           77624        R22LEM7            CALL                                           #  PROCEED
000753: 24,2617           11244                                    GRP2PC                                #  PHASE CHANGE AND
000754: 24,2620           77650                           GOTO                                           #  GO TO INCOPORATE DATA.
000755: 24,2621           55431                                    ASTOK
000756: 24,2622           25462        R22LEM44           INCR     MARKCTR                               #  INCREMENT COUNT OF MARKS INCORPORATED.
000757: 24,2623           02667                           TC       LUNSFCHK                              #  ARE WE ON LUNAR SURFACE
000758: 24,2624           02640                           TC       R22LEM46                              #  YES -- WAIT 2 SECONDS
000759: 24,2625           34756                           CA       FIVE                                  #  NOT ON LUNAR SURFACE
000760: 24,2626           02632                           TC       R22LEM45                              #  R65COUNTER = 5
000761: 24,2627           02667        R22LEM42           TC       LUNSFCHK                              #  CHECK IF ON LUNAR SURFACE (P22FLAG SET)
000762: 24,2630           02640                           TC       R22LEM46                              #  YES -- WAIT 2 SECONDS
000763: 24,2631           34752                           CA       TWO                                   #  NO -- SET R65COUNTER = 2
000764: 24,2632           55745        R22LEM45           TS       R65CNTR


000766: 24,2633           04616                           TC       BANKCALL
000767: 24,2634           46123                           CADR     R65LEM                                #  FINE PREFERRED TRACKING ATTITUDE
000768: 24,2635           02451                           TC       R22LEM
000769: 24,2636           32666        R22WAIT            CAF      1500DEC
000770: 24,2637           02233                           TC       P20LEMWT   +1
000771:
000772: 24,2640           35000        R22LEM46           CAF      2SECS
000773: 24,2641           04616                           TC       BANKCALL                              #  WAIT 2 SECONDS AND TAKE ANOTHER MARK
000774: 24,2642           01735                           CADR     DELAYJOB
000775: 24,2643           02451                           TC       R22LEM
000776:
000777: 24,2644           32665        N49DSP             CAF      V06N49NB
000778: 24,2645           04616                           TC       BANKCALL                              #  EXCESSIVE STATE VECTOR UPDATE -- FLASH
000779: 24,2646           20507                           CADR     PRIODSP                               #  VERB 06 NOUN 49 R1=DELTA R, R2=DELTA V
000780: 24,2647           06022                           TC       GOTOV56                               #  TERMINATE -- EXIT R22 AND P20
000781: 24,2650           44753                           CS       ONE                                   #  PROCEED -- N49FLAG = -1
000782: 24,2651           55746                           TS       N49FLAG                               #  RECYCLE -- N49FLAG = + VALUE
000783: 24,2652           05155                           TC       ENDOFJOB
000784: 24,2653           05353        R22RSTRT           TC       PHASCHNG                              #  IF A RESTART OCCURS WHILE READING RADAR
000785: 24,2654           00152                           OCT      00152                                 #  COME HERE TO TAKE A RANGE-RATE READING
000786: 24,2655           04616                           TC       BANKCALL                              #  WHICH ISN'T USED TO PREVENT TAKING A BAD
000787: 24,2656           53103                           CADR     RRRDOT                                #  READING AND TRYING TO INCORPORATE THE
000788: 24,2657           04616                           TC       BANKCALL                              #  BAD DATA
000789: 24,2660           17714                           CADR     RADSTALL                              #  WAIT FOR READ COMPLETE
000790: 24,2661           02217                           TC       P20LEMC                               #  COULD NOT READ RADAR -- TRY TO REDISGNATE
000791: 24,2662           02451                           TC       R22LEM                                #  READ SUCCESSFUL -- CONTINUE AT R22
000792:
000793: 24,2663           00525        ALRM525            OCT      00525
000794: 24,2664           01405        V06N05             VN       00605
000795: 24,2665           01461        V06N49NB           VN       00649
000796: 24,2666           02734        1500DEC            DEC      1500       B-14
000797:
000798:                                                                                                  #  LUNSFCHECK -- CLOSED SUBROUTINE TO CHECK IF ON LUNAR SURFACE (P22FLAG)
000799:                                                                                                  #        RETURNS TO CALLER +1 IF P22FLAG SET
000800:                                                                                                  #                TO CALLER +2 IF P22FLAG NOT SET
000801:
000802: 24,2667                                           COUNT*   $$/P22
000803: 24,2667           40104        LUNSFCHK           CS       FLAGWRD8                              #  CHECK IF ON LUNAR SURFACE
000804: 24,2670           74744                           MASK     SURFFBIT                              #  IS SURFFLAG SET?
000805: 24,2671           10000                           CCS      A                                     #  BRANCH -- P22FLAG SET
000806: 24,2672           24002                           INCR     Q                                     #  NOT SET
000807: 24,2673           00002                           TC       Q                                     #  RETURN
000808:


000810:                                                                                                  #  RR DESIGNATE ROUTINE (R21LEM)
000811:                                                                                                  #  PROGRAM DESCRIPTION
000812:
000813:                                                                                                  #        MOD NO -- 2
000814:                                                                                                  #        BY P. VOLANTE
000815:
000816:                                                                                                  #  FUNCTIONAL DESCRIPTION
000817:
000818:                                                                                                  #        TO POINT THE RENDEZVOUS RADAR AT THE CSM UNTIL AUTOMATIC ACQUISITION
000819:                                                                                                  #        OF THE CSM IS ACCOMPLISHED BY THE RADAR.  ROUTINE IS CALLED BY P20.
000820:
000821:                                                                                                  #  CALLING SEQUENCE --
000822:
000823:                                                                                                  #        TC      BANKCALL
000824:                                                                                                  #        CADR    R21LEM
000825:
000826:                                                                                                  #  SUBROUTINES CALLED --
000827:
000828:                                                                                                  #        FINDVAC         FLAGUP          ENDOFJOB        PRIOLARM
000829:                                                                                                  #        NOVAC           INTPRET         LPS20.1         PHASCHNG
000830:                                                                                                  #        WAITLIST        JOBSLEEP        JOBWAKE         FLAGDOWN
000831:                                                                                                  #        TASKOVER        BANKCALL        RADSTALL        RRDESSM
000832:
000833:                                                                                                  #  NORMAL EXIT MODES
000834:                                                                                                  #
000835:                                                                                                  #        WHEN LOCK-ON IS ACHIEVED, BRANCH WILL BE TO P20 WHERE R22 (DATA READ
000836:                                                                                                  #        WILL BE SELECTED OR A NEED FOR A MANEUVER (BRANCH TO P20LEMA)
000837:
000838:                                                                                                  #  ALARM OR ABORT EXIT MODES --
000839:
000840:                                                                                                  #        PRIORITY ALARM 503 WHEN LOCK-ON HASN'T BEEN ACHIEVED AFTER 30SECS --
000841:                                                                                                  #        THIS REQUIRES ASTRONAUT INTERFACE: SELECTION OF SEARCH OPTION OF
000842:                                                                                                  #        ACQUISITION
000843:
000844:                                                                                                  #  OUTPUT
000845:
000846:                                                                                                  #        SEE LPS20.1, RRDESSM
000847:
000848:                                                                                                  #  ERASABLE INITIALIZATION REQUIRED
000849:
000850:                                                                                                  #        RRTARGET, RADMODES ARE USED BY LPS20.1 AND RRDESSM
000851:
000852:                                                                                                  #  FLAGS SET + RESET
000853:
000854:                                                                                                  #        LOSCMFLG        LOKONSW
000855:
000856:                                                                                                  #  DEBRIS
000857:
000858:                                                                                                  #        SEE LPS20.1, RRSESSM
000859:
000860: 24,2674  E7,1456                                  EBANK=   LOSCOUNT
000861: 24,2674                                           COUNT*   $$/R21
000862: 24,2674           44736        R21LEM             CS       BIT14                                 #  REMOVE RR SELF TRACK ENABLE
000863: 24,2675           00006                           EXTEND
000864: 24,2676           03012                           WAND     CHAN12
000865: 24,2677           02667                           TC       LUNSFCHK
000866: 24,2700           02705                           TC       R21LEM5
000867: 24,2701           34755                           CAF      ZERO                                  #  COMMAND ANTENNA TO MODE CENTER
000868: 24,2702           55107                           TS       TANG                                  #  IF NOT ON SURFACE -- MODE 1 -- (T=0,S=0)
000869: 24,2703           55110                           TS       TANG       +1
000870: 24,2704           02715                           TC       R21LEM6
000871: 24,2705           34740        R21LEM5            CAF      BIT12
000872: 24,2706           70110                           MASK     RADMODES
000873: 24,2707           10000                           CCS      A
000874: 24,2710           02725                           TC       R21LEM10
000875: 24,2711           34735                           CAF      BIT15
000876: 24,2712           55107                           TS       TANG
000877: 24,2713           44736                           CS       HALF
000878: 24,2714           55110                           TS       TANG       +1
000879:


000881: 24,2715           05516        R21LEM6            TC       DOWNFLAG
000882: 24,2716           00012                           ADRES    LOKONSW
000883: 24,2717           04616                           TC       BANKCALL
000884: 24,2720           52475                           CADR     RRDESNB
000885: 24,2721           02722                           TC       +1
000886: 24,2722           04616                           TC       BANKCALL
000887: 24,2723           17714                           CADR     RADSTALL
000888: 24,2724           02760                           TC       R21-503                               #  BAD RETURN FROM DESIGNATE -- ISSUE ALARM
000889: 24,2725           05504        R21LEM10           TC       UPFLAG
000890: 24,2726           00041                           ADRES    LOSCMFLG                              #  EVERY FOURTH PASS THRU DODES
000891: 24,2727           32310                           CAF      MAXTRIES                              #  ALLOW 60 PASSES (APPROX 45 SECONDS)
000892: 24,2730           55114                           TS       DESCOUNT                              #  TO DESIGNATE AND LOCK ON
000893: 24,2731           36245        R21LEM2            CAF      THREE
000894: 24,2732           55456                           TS       LOSCOUNT
000895: 24,2733           06037        R21LEM1            TC       INTPRET
000896: 24,2734           43234                           RTB      DAD
000897: 24,2735           21573                                    LOADTIME
000898: 24,2736           11120                                    HALFSEC                               #  EXTRAPOLATE TO PRESENT TIME + .5 SEC.
000899: 24,2737           34041                           STCALL   TDEC1                                 #  LOS DETERMINATION ROUTINE
000900: 24,2740           51255                                    LPS20.1
000901: 24,2741           77776                           EXIT
000902: 24,2742           05504        R21LEM3            TC       UPFLAG                                #  SET LOKONSW TO RADAR -- ON DESIRED
000903: 24,2743           00012                           ADRES    LOKONSW
000904: 24,2744           05516                           TC       DOWNFLAG
000905: 24,2745           00126                           ADRES    NORRMON
000906: 24,2746           06037                           TC       INTPRET
000907: 24,2747           77624                           CALL                                           #  INPUT (RRTARGET UPDATED BY LPS20.1)
000908: 24,2750           52373                                    RRDESSM                               #  DESIGNATE ROUTINE
000909: 24,2751           77776                           EXIT
000910: 24,2752           02777                           TC       R21LEM4                               #  LOS NOT IN MODE 2 COVERAGE
000911:                                                                                                  #  ON LUNAR SURFACE
000912: 24,2753           02111                           TC       P20LEMA                               #  VEHICLE MANEUVER REQUIRED.
000913: 24,2754           04616                           TC       BANKCALL                              #  NO VEHICLE MANEUVER REQUIRED
000914: 24,2755           17714                           CADR     RADSTALL                              #  WAIT FOR DESIGNATE COMPLETE -- LOCKON OR
000915: 24,2756           02760                           TC       +2                                    #  BAD END -- LOCKON NOT ACHIEVED IN 60 TRIES
000916: 24,2757           02767                           TC       R21END                                #  EXIT ROUTINE RETURN TO P20 (LOCK-ON)
000917: 24,2760           32775        R21-503            CAF      ALRM503                               #  ISSUE ALARM 503
000918: 24,2761           04616                           TC       BANKCALL
000919: 24,2762           21562                           CADR     PRIOLARM
000920: 24,2763           06022                           TC       GOTOV56                               #  TERMINATE EXITS P20 VIA V56 CODING
000921: 24,2764           02772                           TC       R21SRCH                               #  PROC
000922: 24,2765           02211                           TC       P20LEMC3
000923: 24,2766           05155                           TC       ENDOFJOB
000924: 24,2767           05516        R21END             TC       DOWNFLAG
000925: 24,2770           00041                           ADRES    LOSCMFLG                              #  RESET LOSCMFLG
000926: 24,2771           03121                           TC       R21DISP                               #  PUT UP VERIFY MAIN LOBE LOCKON DISPLAY
000927: 24,2772           05353        R21SRCH            TC       PHASCHNG
000928: 24,2773           04022                           OCT      04022
000929: 24,2774           03206                           TC       R24LEM                                #  SEARCH ROUTINE
000930: 24,2775           00503        ALRM503            OCT      00503


000932: 24,2776           00527        ALRM527            OCT      527
000933:
000934: 24,2777           32310        R21LEM4            CAF      MAXTRIES                              #  SET UP COUNTER FOR
000935: 24,3000           55423                           TS       REPOSCNT                              #  60 PASSES (APPROX 600 SECS.)
000936: 24,3001           05504                           TC       UPFLAG
000937: 24,3002           00005                           ADRES    FSPASFLG                              #  SET FIRST PASS FLAG
000938: 24,3003           05516                           TC       DOWNFLAG                              #  RESET LOS BEING
000939: 24,3004           00041                           ADRES    LOSCMFLG                              #  COMPUTED FLAG
000940: 24,3005           06037                           TC       INTPRET
000941: 24,3006           77634        R21LEM12           RTB
000942: 24,3007           21573                                    LOADTIME
000943: 24,3010           77615                           DAD
000944: 24,3011           11116                                    TENSEC                                #  TIME T = T + 10 SECS.
000945: 24,3012           03425                           STORE    REPOSTM                               #  SAVE FOR LONGCALL AND UPPSV
000946: 24,3013           34041                           STCALL   TDEC1
000947: 24,3014           51255                                    LPS20.1                               #  COMPUTE LOS AT TIME T
000948: 24,3015           77624                           CALL
000949: 24,3016           52373                                    RRDESSM
000950: 24,3017           77776                           EXIT
000951: 24,3020           03033                           TC       R21LEM13                              #  LOS NOT IN MODE 2 COVERAGE
000952: 24,3021           05155                           TC       ENDOFJOB                              #  VEHICLE MANEUVER REQUIRED
000953: 24,3022           06027                           TC       KILLTASK
000954: 24,3023           52573                           CADR     BEGDES
000955: 24,3024           06037                           TC       INTPRET
000956: 24,3025           77614                           BOF
000957: 24,3026           00345                                    FSPASFLG                              #  FIRST PASS THRU REPOSITION
000958: 24,3027           51043                                    R21LEMB                               #  NO -- GO TO CONTINUOUS DESIGNATE
000959: 24,3030           77614                           CLRGO
000960: 24,3031           00225                                    FSPASFLG                              #  YES -- RESET FIRST PASS FLAG
000961: 24,3032           51037                                    R21LEM7    +1
000962: 24,3033           11423        R21LEM13           CCS      REPOSCNT                              #  HAVE WE TRIED 60 TIMES?
000963: 24,3034           03036                           TC       R21LEM7                               #  NO -- ADD 10 SECS.  RECOMPUTE LOS
000964: 24,3035           03105                           TC       R21LEM11                              #  YES -- PUT OUT ALARM 530
000965: 24,3036           55423        R21LEM7            TS       REPOSCNT
000966: 24,3037           06037                           TC       INTPRET
000967: 24,3040           52145                           DLOAD    GOTO
000968: 24,3041           03425                                    REPOSTM
000969: 24,3042           51010                                    R21LEM12   +2
000970: 24,3043           77745        R21LEMB            DLOAD
000971: 24,3044           03425                                    REPOSTM
000972: 24,3045           34041                           STCALL   TDEC1
000973: 24,3046           50316                                    UPPSV
000974: 24,3047           77776                           EXIT
000975: 24,3050           05504                           TC       UPFLAG                                #  SET RADMODES BIT 15 FOR
000976: 24,3051           00264                           ADRES    CDESFLAG                              #  CONTINUOUS DESIGNATION
000977: 24,3052           05516                           TC       DOWNFLAG
000978: 24,3053           00012                           ADRES    LOKONSW
000979: 24,3054           05504                           TC       UPFLAG
000980: 24,3055           00126                           ADRES    NORRMON


000982: 24,3056           04616                           TC       BANKCALL
000983: 24,3057           52475                           CADR     RRDESNB
000984: 24,3060           03061                           TC       +1
000985: 24,3061           06037                           TC       INTPRET
000986: 24,3062           44234                           RTB      BDSU
000987: 24,3063           21573                                    LOADTIME                              #  COMPUTE DELTA TIME
000988: 24,3064           03425                                    REPOSTM                               #  FOR LONGCALL
000989: 24,3065           03427                           STORE    DELTATM
000990: 24,3066           77776                           EXIT
000991: 24,3067           00006                           EXTEND
000992: 24,3070           31427                           DCA      DELTATM
000993: 24,3071           05277                           TC       LONGCALL
000994: 24,3072  E7,1456                                  EBANK=   LOSCOUNT
000995: 24,3072           03075 50067                     2CADR    R21LEM9
000996:
000997: 24,3074           05155                           TC       ENDOFJOB
000998: 24,3075           06027        R21LEM9            TC       KILLTASK
000999: 24,3076           52602                           CADR     STDESIG
001000: 24,3077           06011                           TC       CLRADMOD
001001: 24,3100           37714                           CAF      PRIO26
001002: 24,3101           05105                           TC       FINDVAC
001003: 24,3102  E7,1456                                  EBANK=   LOSCOUNT
001004: 24,3102           02725 50067                     2CADR    R21LEM10
001005:
001006: 24,3104           05261                           TC       TASKOVER
001007: 24,3105           33114        R21LEM11           CAF      ALRM530                               #  ALARM 530 -- LOS NOT IN COVERAGE
001008: 24,3106           04616                           TC       BANKCALL                              #  AFTER TRYING TO DESIGNATE FOR
001009: 24,3107           21562                           CADR     PRIOLARM                              #  600 SECS.
001010: 24,3110           06022                           TC       GOTOV56
001011: 24,3111           06022                           TC       GOTOV56
001012: 24,3112           06022                           TC       GOTOV56
001013: 24,3113           05155                           TC       ENDOFJOB
001014: 24,3114           00530        ALRM530            OCT      00530
001015: 24,3115           00000 01750  TENSEC             2DEC     1000       B-28
001016:
001017: 24,3117           00000 00062  HALFSEC            2DEC     50         B-28
001018:
001019: 24,3121           05353        R21DISP            TC       PHASCHNG
001020: 24,3122           04022                           OCT      04022
001021: 24,3123           33134                           CAF      V06N72PV                              #  FLASH V 50 N 72 -- PLEASE PERFORM RR
001022: 24,3124           04616                           TC       BANKCALL                              #  MAIN LOBE LOCKON VERIFICATION
001023: 24,3125           20710                           CADR     GOPERF2R
001024: 24,3126           06022                           TC       GOTOV56                               #  TERMINATE EXITS VIA V 56
001025: 24,3127           02232                           TC       P20LEMWT                              #  PROCEED CONTINUES TO R22
001026: 24,3130           03123                           TC       -5                                    #  ENTER ILLEGAL
001027: 24,3131           34745                           CAF      BIT7
001028: 24,3132           05464                           TC       LINUS                                 #  SET BITS TO MAKE THIS A PRIORITY DISPLAY
001029: 24,3133           05155                           TC       ENDOFJOB
001030:


001032: 24,3134           01510        V06N72PV           VN       00672
001033:


001035:                                                                                                  #  MANUAL ACQUISITION ROUTINE R23LEM
001036:                                                                                                  #  PROGRAM DESCRIPTION
001037:
001038:                                                                                                  #        MOD NO -- 2
001039:                                                                                                  #        BY P. VOLANTE
001040:
001041:                                                                                                  #  FUNCTIONAL DESCRIPTION
001042:
001043:                                                                                                  #        TO ACQUIRE THE CSM BY MANUAL OPERATION OF THE RENDEZVOUS RADAR
001044:
001045:                                                                                                  #  CALLING SEQUENCE --
001046:
001047:                                                                                                  #        TC      R23LEM
001048:
001049:                                                                                                  #  SUBROUTINES CALLED
001050:
001051:                                                                                                  #        BANKCALL        R61LEM
001052:                                                                                                  #        SETMINDB        GOPERF1
001053:
001054:                                                                                                  #  NORMAL EXIT MODES --
001055:
001056:                                                                                                  #        IN RESPONSE TO THE GOPERF1,     SELECTION OF ENTER WILL RECYCLE R23
001057:                                                                                                  #                                        SELECTION OF PROC WILL CONTINUE R23
001058:                                                                                                  #                                        SELECTION OF TERM WILL TERMINATE R23 + P20
001059:
001060:                                                                                                  #  ALARM OR ABORT EXIT MODES --
001061:
001062:                                                                                                  #        SEE NORMAL EXIT MODES ABOVE
001063:
001064:                                                                                                  #  OUTPUT
001065:
001066:                                                                                                  #        N.A.
001067:
001068:                                                                                                  #  ERASABLE INITIALIZATION REQUIRED --
001069:
001070:                                                                                                  #        ACMODFLG MUST BE SET TO 1 (MANUAL MODE)
001071:
001072: 24,3135     1143                                  EBANK=   GENRET
001073: 24,3135                                           COUNT*   $$/R23
001074: 24,3135           05504        R23LEM             TC       UPFLAG                                #  SET NO ANGLE MONITOR FLAG
001075: 24,3136           00126                           ADRES    NORRMON
001076: 24,3137           00004                           INHINT
001077: 24,3140           04674                           TC       IBNKCALL                              #  SELECT MINIMUM DEADBAND
001078: 24,3141           40140                           CADR     SETMINDB
001079: 24,3142           00003                           RELINT
001080: 24,3143           34736        R23LEM1            CAF      BIT14                                 #  ENABLE TRACKER
001081: 24,3144           00006                           EXTEND
001082: 24,3145           05012                           WOR      CHAN12
001083: 24,3146           33205                           CAF      OCT205
001084: 24,3147           04616                           TC       BANKCALL
001085: 24,3150           20623                           CADR     GOPERF1
001086: 24,3151           03176                           TC       R23LEM2                               #  TERMINATE
001087: 24,3152           03154                           TC       R23LEM11                              #  PROCEDE
001088: 24,3153           03201                           TC       R23LEM3                               #  ENTER -- DO ANOTHER MANEUVER
001089: 24,3154           00004        R23LEM11           INHINT
001090: 24,3155           04523                           TC       RRLIMCHK                              #  YES -- CHECK IF ANTENNA IS WITHIN LIMITS
001091: 24,3156           00035                           ADRES    CDUT
001092: 24,3157           03166                           TC       OUTOFLIM                              #  NOT WITHIN LIMITS
001093: 24,3160           04674                           TC       IBNKCALL                              #  RESTORE DEADBAND TO
001094: 24,3161           40123                           CADR     RESTORDB                              #  ASTRONAUT SELECTED VALUE
001095: 24,3162           00003                           RELINT
001096: 24,3163           05516                           TC       DOWNFLAG                              #  CLEAR NO ANGLE MONITOR FLAG
001097: 24,3164           00126                           ADRES    NORRMON
001098: 24,3165           02163                           TC       P20LEMB1                              #  RADAR IS LOCKED ON CONTINUE IN P20
001099: 24,3166           00003        OUTOFLIM           RELINT


001101: 24,3167           33204                           CAF      OCT501PV
001102: 24,3170           04616                           TC       BANKCALL                              #  ISSUE ALARM -- RR ANTENNA NOT WITHIN
001103: 24,3171           21562                           CADR     PRIOLARM                              #  LIMITS
001104: 24,3172           03176                           TC       R23LEM2                               #  TERMINATE -- EXIT R23 TO R00 (GO TO P00H)
001105: 24,3173           03167                           TC       OUTOFLIM   +1                         #  PROCEED ILLEGAL
001106: 24,3174           03201                           TC       R23LEM3                               #  RECYCLE -- TO ANOTHER MANEUVER
001107: 24,3175           05155                           TC       ENDOFJOB
001108: 24,3176           05516        R23LEM2            TC       DOWNFLAG                              #  CLEAR NO ANGLE MONITOR FLAG
001109: 24,3177           00126                           ADRES    NORRMON
001110: 24,3200           06022                           TC       GOTOV56                               #  AND EXIT VIA V56
001111: 24,3201           04616        R23LEM3            TC       BANKCALL
001112: 24,3202           46116                           CADR     R61LEM
001113: 24,3203           03143                           TC       R23LEM1
001114:
001115: 24,3204           00501        OCT501PV           OCT      501
001116: 24,3205           00205        OCT205             OCT      205
001117:


001119:                                                                                                  #  SEARCH ROUTINE R24LEM
001120:                                                                                                  #  PROGRAM DESCRIPTION
001121:
001122:                                                                                                  #        MOD NO -- 2
001123:                                                                                                  #        BY P. VOLANTE
001124:
001125:                                                                                                  #  FUNCTIONAL DESCRIPTION
001126:
001127:                                                                                                  #        TO ACQUIRE THE CSM BY A SEARCH PATTERN WHEN THE RENDEZVOUS RADAR HAS
001128:                                                                                                  #        FAILED TO ACQUIRE TEH CSM IN THE AUTOMATIC TRACKING MODE AND TO ALLOW
001129:                                                                                                  #        THE ASTRONAUT TO CONFIRM THAT REACQUISITION HAS NOT BEEN IN SIDELOBE.
001130:
001131:                                                                                                  #  CALLING SEQUENCE
001132:
001133:                                                                                                  #        CAF     PRIONN
001134:                                                                                                  #        TC      FINDVAC
001135:                                                                                                  #        EBANK=  DATAGOOD
001136:                                                                                                  #        2CADR   R24LEM
001137:
001138:                                                                                                  #  SUBROUTINES CALLED
001139:
001140:                                                                                                  #        FLAGUP          FLAGDOWN        BANKCALL
001141:                                                                                                  #        R61LEM          GOFLASHR        FINDVAC
001142:                                                                                                  #        ENDOFJOB        NOVAC           LSR24.1
001143:
001144:                                                                                                  #  NORMAL EXIT MODES --
001145:
001146:                                                                                                  #        ASTRONAUT RESPONSE TO DISPLAY OF OMEGA AND DATAGOOD.  HE CAN EITHER
001147:                                                                                                  #        REJECT BY TERMINATING (SEARCH OPTION AND RESELECTING P20) OR ACCEPT BY
001148:                                                                                                  #        PROCEEDING (EXIT ROUTINE AND RETURN TO AUTO MODE IN P20)
001149:
001150:                                                                                                  #  ALARM OR ABORT EXIT MODES --
001151:
001152:                                                                                                  #        SEE NORMAL EXIT MODES ABOVE
001153:
001154:                                                                                                  #  OUTPUT --
001155:
001156:                                                                                                  #        SEE OUTPUT FROM LSR24.1 + R61LEM
001157:
001158:                                                                                                  #  ERASABLE INITIALIZATION REQUIRED
001159:
001160:                                                                                                  #        SET INPUT FOR LSR24.1
001161:
001162:                                                                                                  #  FLAGS SET + RESET
001163:
001164:                                                                                                  #        SRCHOPT, ACMODFLG
001165:
001166: 24,3206  E7,1733                                  EBANK=   DATAGOOD
001167: 24,3206                                           COUNT*   $$/R24
001168: 24,3206           05504        R24LEM             TC       UPFLAG
001169: 24,3207           00037                           ADRES    SRCHOPTN                              #  SET SRCHOPT FLAG
001170: 24,3210           05516                           TC       DOWNFLAG                              #  RESET LOS BEING COMPUTED FLAG TO MAKE
001171: 24,3211           00041                           ADRES    LOSCMFLG                              #  SURE DODES DOESN'T GO TO R21
001172: 24,3212           34755        R24LEM1            CAF      ZERO
001173: 24,3213           55733                           TS       DATAGOOD                              #  ZERO OUT DATA INDICATOR
001174: 24,3214           55734                           TS       OMEGAD                                #  ZERO OMEGA DISPLAY REGS
001175: 24,3215           55735                           TS       OMEGAD     +1                         #  ZERO OMEGA DISPLAY REGS
001176: 24,3216           05353        R24LEM2            TC       PHASCHNG
001177: 24,3217           04022                           OCT      04022
001178: 24,3220           33254                           CAF      V16N80
001179: 24,3221           04616                           TC       BANKCALL
001180: 24,3222           20504                           CADR     PRIODSPR
001181: 24,3223           06022                           TC       GOTOV56
001182: 24,3224           03230                           TC       R24END                                #  PROCEED EXIT R24 TO P20LEM1
001183:
001184: 24,3225           03234                           TC       R24LEM3                               #  RECYCLE -- CALL R61 TO MANEUVER S/C


001186: 24,3226           04616                           TC       BANKCALL
001187: 24,3227           55442                           CADR     LRS24.1
001188: 24,3230           06027        R24END             TC       KILLTASK
001189: 24,3231           55643                           CADR     CALLDGCH
001190: 24,3232           06011                           TC       CLRADMOD                              #  CLEAR BITS 10 & 15 OF RADMODES.
001191: 24,3233           12063                           TCF      P20LEM1                               #  AND GO TO 400 MI. RANGE CHECK IN P20
001192:
001193:    6011                                           BLOCK    3
001194:    6000                                           SETLOC   FFTAG6
001195:    6000                                           BANK
001196:    6011                                           COUNT*   $$/R24
001197:
001198:    6011           46021        CLRADMOD           CS       BIT10+15
001199:    6012           00004                           INHINT
001200:    6013           70110                           MASK     RADMODES
001201:    6014           54110                           TS       RADMODES
001202:    6015           44752                           CS       BIT2                                  #  DISABLE RR ERROR COUNTERS
001203:    6016           00006                           EXTEND
001204:    6017           03012                           WAND     CHAN12                                #  USER WILL RELINT
001205:
001206:    6020           00002                           TC       Q
001207:
001208:    6021           41000        BIT10+15           OCT      41000
001209: 24,3234                                           BANK     24
001210: 24,2000                                           SETLOC   P20S
001211: 24,2000                                           BANK
001212: 24,3234                                           COUNT*   $$/R24
001213:
001214: 24,3234           05353        R24LEM3            TC       PHASCHNG
001215: 24,3235           04022                           OCT      04022
001216: 24,3236           06027                           TC       KILLTASK
001217: 24,3237           55643                           CADR     CALLDGCH                              #  KILL WAITLIST FOR NEXT POINT IN PATTERN
001218: 24,3240           06011                           TC       CLRADMOD                              #  CLEAR BITS 10 + 15 OF RADMODES TO KILL
001219: 24,3241           00003                           RELINT                                         #  HALF SECOND DESIGNATE LOOP
001220: 24,3242           34774                           CAF      .5SEC
001221: 24,3243           04616                           TC       BANKCALL                              #  WAIT FOR DESIGNATE LOOP TO DIE
001222: 24,3244           01735                           CADR     DELAYJOB
001223: 24,3245           02667                           TC       LUNSFCHK                              #  CHECK IF ON LUNAR SURFACE
001224: 24,3246           03251                           TC       R24LEM4                               #  YES -- DON'T DO ATTITUDE MANEUVER
001225: 24,3247           04616                           TC       BANKCALL                              #  CALL R61 TO DO PREFERRED TRACKING
001226: 24,3250           46116                           CADR     R61LEM                                #  ATTITUDE MANEUVER
001227: 24,3251           34755        R24LEM4            CAF      ZERO                                  #  ZERO OUT RADCADR (WHICH WAS SET BY
001228: 24,3252           55306                           TS       RADCADR                               #  ENDRADAR WHEN DESIGNATE STOPPED) SO THAT
001229:                                                                                                  #  RRDESSM WILL RETURN TO CALLER
001230: 24,3253           03216                           TC       R24LEM2                               #  AND GO BACK TO PUT UP V16 N80 DISPLAY
001231:
001232: 24,3254           04120        V16N80             VN       01680
001233:


001235:                                                                                                  #  PREFERRED TRACKING ATTITUDE ROUTINE R61LEM
001236:                                                                                                  #  PROGRAM DESCRIPTION
001237:
001238:                                                                                                  #        MOD NO: 3               DATE: 4-11-67
001239:                                                                                                  #        MOD BY: P. VOLANTE, SDC
001240:
001241:                                                                                                  #  FUNCTIONAL DESCRIPTION --
001242:
001243:                                                                                                  #        TO COMPUTE THE PREFERRED TRACKING ATTITUDE OF THE LM TO ENABLE RR
001244:                                                                                                  #        TRACKING OF THE CSM AND TO PERFORM THE MANEUVER TO THE PREFERRED
001245:                                                                                                  #        ATTITUDE.
001246:
001247:                                                                                                  #  CALLING SEQUENCE --
001248:
001249:                                                                                                  #        TC      BANKCALL
001250:                                                                                                  #        CADR    R61LEM
001251:
001252:                                                                                                  #  SUBROUTINES CALLED
001253:
001254:                                                                                                  #        LPS20.1         VECPOINT
001255:                                                                                                  #        KALCMAN3
001256:
001257:                                                                                                  #  NORMAL EXIT MODES --
001258:
001259:                                                                                                  #        NORMAL RETURN IS TO CALLER + 1
001260:
001261:                                                                                                  #  ALARM OR ABORT EXIT MODES --
001262:
001263:                                                                                                  #        TERMINATE P20 + R61 BY BRANCHING TO P20END IF BOTH TRACKFLAG +
001264:                                                                                                  #        RENDEZVOUS FLAG ARE NOT SET.
001265:
001266:                                                                                                  #  OUTPUT --
001267:
001268:                                                                                                  #        SEE OUTPUT FOR LPS20.1 + ATTITUDE MANEUVER ROUTINE (R60)
001269:
001270:                                                                                                  #  ERASABLE INITIALIZATION REQUIRED
001271:
001272:                                                                                                  #        GENRET USED TO SAVE Q FOR RETURN
001273:
001274:                                                                                                  #  FLAGS SET + RESET
001275:
001276:                                                                                                  #        3AXISFLG
001277:
001278:                                                                                                  #  DEBRIS
001279:
001280:                                                                                                  #        SEE SUBROUTINES
001281:
001282: 23,2000                                           SETLOC   R61
001283: 23,2000                                           BANK
001284: 23,2116  E7,1456                                  EBANK=   LOSCOUNT
001285: 23,2116                                           COUNT*   $$/R61
001286: 23,2116           04645        R61LEM             TC       MAKECADR
001287: 23,2117           55143                           TS       GENRET
001288: 23,2120           05504                           TC       UPFLAG                                #  SET R61 FLAG
001289: 23,2121           00024                           ADRES    R61FLAG
001290: 23,2122           02127                           TC       R61C+L01
001291: 23,2123           04645        R65LEM             TC       MAKECADR
001292: 23,2124           55143                           TS       GENRET
001293: 23,2125           05516                           TC       DOWNFLAG                              #  RESET R61 FLAG
001294: 23,2126           00024                           ADRES    R61FLAG
001295: 23,2127           34747        R61C+L01           CAF      TRACKBIT                              #  TRACKFLAG
001296: 23,2130           70075                           MASK     STATE      +1
001297: 23,2131           00006                           EXTEND
001298: 23,2132           12271                           BZF      R65WAIT                               #  NOT SET
001299: 23,2133           06037        R61C+L03           TC       INTPRET
001300: 23,2134           77775                           VLOAD


001302: 23,2135           06514                                    HIUNITZ
001303: 23,2136           03765                           STORE    SCAXIS                                #  TRACK AXIS UNIT VECTOR
001304: 23,2137           43234        R61LEM1            RTB      DAD
001305: 23,2140           21573                                    LOADTIME                              #  EXTRAPOLATE FORWARD TO CENTER
001306: 23,2141           15712                                    3SECONDS                              #  SIX SECOND PERIOD.
001307: 23,2142           34041                           STCALL   TDEC1
001308: 23,2143           51255                                    LPS20.1                               #  LOS DETERMINATION + VEH ATTITUDE
001309: 23,2144           77775                           VLOAD
001310: 23,2145           01102                                    RRTARGET
001311: 23,2146           03773                           STORE    POINTVSM
001312: 23,2147           45034                           RTB      CALL                                  #  GET DESIRED CDU'S FOR VECPNT1
001313: 23,2150           46277                                    READCDUD
001314: 23,2151           56032                                    VECPNT1                               #  COMPUTES FINAL ANGLES FROM PRESENT CDUDS
001315: 23,2152           00322                           STORE    CPHI                                  #  STORE FINAL ANGLES -- CPHI, CTHETA, CPSI
001316: 23,2153           77776                           EXIT
001317: 23,2154           05353                           TC       PHASCHNG
001318: 23,2155           04022                           OCT      04022
001319: 23,2156           34747                           CAF      TRACKBIT                              #  IS TRACK FLAG SET
001320: 23,2157           70075                           MASK     FLAGWRD1
001321: 23,2160           00006                           EXTEND
001322: 23,2161           12271                           BZF      R65WAIT
001323: 23,2162           04616                           TC       BANKCALL
001324: 23,2163           54255                           CADR     G+N,AUTO                              #  CHECK FOR AUTO MODE
001325: 23,2164           10000                           CCS      A
001326: 23,2165           02257                           TC       R61C+L04                              #  NOT IN AUTO
001327: 23,2166           06037                           TC       INTPRET
001328: 23,2167           45175                           VLOAD    CALL
001329: 23,2170           01102                                    RRTARGET
001330: 23,2171           47646                                    CDU*SMNB
001331: 23,2172           45345                           DLOAD    DSU                                   #  GET PHI -- ARCCOS OF Z-COMPONENT OF LOS
001332: 23,2173           00162                                    MPAC       +5
001333: 23,2174           06275                                    COS15DEG
001334: 23,2175           77440        R61LEM2            BMN      EXIT                                  #  BRANCH -- PHI > 15 DEGREES
001335: 23,2176           46213                                    R61C+L05                              #  PHI GRE 10DEG
001336: 23,2177  E6,1635                                  EBANK=   CDUXD
001337: 23,2177           35015                           CAF      EBANK6
001338: 23,2200           54003                           TS       EBANK
001339: 23,2201           00004                           INHINT
001340: 23,2202           00006                           EXTEND
001341: 23,2203           30322                           DCA      CPHI
001342: 23,2204           53636                           DXCH     CDUXD
001343: 23,2205           30323                           CA       CPSI
001344: 23,2206           55637                           TS       CDUZD
001345: 23,2207           00003                           RELINT
001346: 23,2210  E7,1456                                  EBANK=   LOSCOUNT
001347: 23,2210           35016                           CAF      EBANK7
001348: 23,2211           54003                           TS       EBANK
001349: 23,2212           02236                           TC       R61C+L06
001350: 23,2213           77776        R61C+L05           EXIT
001351: 23,2214           00004                           INHINT


001353: 23,2215           04674                           TC       IBNKCALL
001354: 23,2216           40153                           FCADR    ZATTEROR
001355: 23,2217           04674                           TC       IBNKCALL
001356: 23,2220           40140                           FCADR    SETMINDB                              #  REDUCE ATTITUDE ERROR
001357: 23,2221           05516                           TC       DOWNFLAG
001358: 23,2222           00124                           ADRES    3AXISFLG
001359: 23,2223           05504                           TC       UPFLAG
001360: 23,2224           00077                           ADRES    PDSPFLAG                              #  SET PRIORITY DISPLAY FLAG
001361: 23,2225           04616                           TC       BANKCALL
001362: 23,2226           54123                           CADR     R60LEM
001363: 23,2227           00004                           INHINT
001364: 23,2230           04674                           TC       IBNKCALL
001365: 23,2231           40123                           FCADR    RESTORDB
001366: 23,2232           05353                           TC       PHASCHNG
001367: 23,2233           04022                           OCT      04022
001368: 23,2234           05516                           TC       DOWNFLAG
001369: 23,2235           00077                           ADRES    PDSPFLAG                              #  RESET PRIORITY DISPLAY FLAG
001370: 23,2236           30075        R61C+L06           CA       FLAGWRD1
001371: 23,2237           74742                           MASK     R61FLBIT
001372: 23,2240           10000                           CCS      A
001373: 23,2241           02262                           TC       R61C+L4
001374: 23,2242           11745                           CCS      R65CNTR
001375: 23,2243           02245                           TC       +2
001376: 23,2244           02262                           TC       R61C+L4                               #  R65CNTR = 0 - EXIT ROUTINE
001377: 23,2245           55745                           TS       R65CNTR
001378: 23,2246           32276                           CAF      06SEC
001379: 23,2247           05173                           TC       TWIDDLE
001380: 23,2250           02252                           ADRES    R61C+L2
001381: 23,2251           05155                           TC       ENDOFJOB
001382: 23,2252           37714        R61C+L2            CAF      PRIO26
001383: 23,2253           05105                           TC       FINDVAC
001384: 23,2254  E7,1456                                  EBANK=   LOSCOUNT
001385: 23,2254           02127 46067                     2CADR    R61C+L01
001386:
001387: 23,2256           05261                           TC       TASKOVER
001388: 23,2257           04616        R61C+L04           TC       BANKCALL                              #  TO CONVERT ANGLES TO FDAI
001389: 23,2260           54266                           CADR     BALLANGS
001390: 23,2261           02236                           TC       R61C+L06
001391: 23,2262           31143        R61C+L4            CAE      GENRET
001392: 23,2263           14640                           TCF      BANKJUMP                              #  EXIT R61
001393: 23,2264           32273        R61C+L1            CAF      BIT7+9PV                              #  IS RENDEZVOUS OR P25FLAG SET
001394: 23,2265           70074                           MASK     STATE
001395: 23,2266           00006                           EXTEND
001396: 23,2267           15155                           BZF      ENDOFJOB                              #  NO -- EXIT ROUTINE AND PROGRAM.
001397: 23,2270           02236                           TC       R61C+L06                              #  YES EXIT ROUTINE
001398: 23,2271           04635        R65WAIT            TC       POSTJUMP
001399: 23,2272           50232                           CADR     P20LEMWT
001400:
001401: 23,2273           00500        BIT7+9PV           OCT      00500


001403: 23,2274           17350 34602  COS15DEG           2DEC     0.96593    B-1
001404:
001405: 23,2276           01130        06SEC              DEC      600        B-14
001406: 23,2277                        PHI                EQUALS   20D
001407: 23,2277           00004        READCDUD           INHINT                                         #  READS DESIRED CDU'S AND STORES IN
001408: 23,2300           35015                           CAF      EBANK6                                #  MPAC TP EXITS WITH MODE SET TO TP
001409: 23,2301           56003                           XCH      EBANK
001410: 23,2302           54070                           TS       RUPTREG1
001411: 23,2303  E6,1635                                  EBANK=   CDUXD
001412: 23,2303           31635                           CA       CDUXD
001413: 23,2304           54154                           TS       MPAC
001414: 23,2305           00006                           EXTEND
001415: 23,2306           31637                           DCA      CDUYD
001416: 23,2307           52156                           DXCH     MPAC       +1
001417: 23,2310           30070                           CA       RUPTREG1
001418: 23,2311           54003                           TS       EBANK
001419: 23,2312           00003                           RELINT
001420: 23,2313           16477                           TCF      TMODE
001421:    4512                                           BLOCK    02
001422:    4000                                           SETLOC   RADARFF
001423:    4000                                           BANK
001424:
001425:    4512  E7,1456                                  EBANK=   LOSCOUNT
001426:    4512                                           COUNT*   $$/RRSUB
001427:


001429:                                                                                                  #  THE FOLLOWING SUBROUTINE RETURNS TO CALLER +2 IF THE ABSOLUTE VALUE OF VALUE OF C(A) IS GREATER THAN THE
001430:                                                                                                  #  NEGATIVE OF THE NUMBER AT CALLER +1.  OTHERWISE IT RETURNS TO CALLER +3.  MAY BE CALLED IN RUPT OR UNDER EXEC.
001431:
001432:    4512           00006        MAGSUB             EXTEND
001433:    4513           64515                           BZMF     +2
001434:    4514           14516                           TCF      +2
001435:    4515           40000                           COM
001436:
001437:    4516           50002                           INDEX    Q
001438:    4517           60000                           AD       0
001439:    4520           00006                           EXTEND
001440:    4521           66741                           BZMF     Q+2                                   #  ABS(A) <= CONST GO TO L+3
001441:    4522           16737                           TCF      Q+1                                   #  ABS(A) > CONST GO TO L+2
001442:


001444:                                                                                                  #  PROGRAM NAME: RRLIMCHK
001445:
001446:                                                                                                  #  FUNCTIONAL DESCRIPTION:
001447:
001448:                                                                                                  #        RRLIMCHK CHECKS RR DESIRED GIMBAL ANGLES TO SEE IF THEY ARE WITHIN
001449:                                                                                                  #        THE LIMITS OF THE CURRENT MODE.  INITIALLY THE DESIRED TRUNNION AND
001450:                                                                                                  #        SHAFT ANGLES ARE STORED IN ITEMP1 AND ITEMP2.  THE CURRENT RR
001451:                                                                                                  #        ANTENNAE MODE (RADMODES BIT 12) IS CHECKED WHICH IS = 0 FOR
001452:                                                                                                  #        MODE 1 AND =1 FOR MODE 2.
001453:
001454:                                                                                                  #        MODE 1 -- THE TRUNNION ANGLE IS CHECKED AT MAGSUB TO SEE IF IT IS
001455:                                                                                                  #        BETWEEN -55 AND +55 DEGREES.  IF NOT, RETURN TO L +2.  IF WITHIN LIMITS,
001456:                                                                                                  #        THE SHAFT ANGLE IS CHECKED TO SEE IF IT IS BETWEEN -70 AND +59 DEGREES.
001457:                                                                                                  #        IF NOT, RETURN TO L +2.  IF IN LIMITS, RETURN TO L +3.
001458:
001459:                                                                                                  #        MODE 2 -- THE SHAFT ANGLE IS CHECKED AT MAGSUB TO SEE IF IT IS
001460:                                                                                                  #        BETWEEN -139 AND -25 DEGREES.  IF NOT, RETURN TO L +2.  IF WITHIN
001461:                                                                                                  #        LIMITS, THE TRUNNION ANGLE IS CHECKED TO SEE IF IT IS BETWEEN +125
001462:                                                                                                  #        AND -125 (+235) DEGREES.  IF NOT, RETURN TO L +2.  IF IN LIMITS, RETURN
001463:                                                                                                  #        TO L +3.
001464:
001465:                                                                                                  #  CALLING SEQUENCE:
001466:
001467:                                                                                                  #        L  TC  RLIMCHK (WITH INTERRUPT INHIBITED)
001468:                                                                                                  #        L  +1  ADRES  T,S  (DESIRED TRUNNION ANGLE ADDRESS)
001469:
001470:                                                                                                  #  ERASABLE INITIALIZATION REQUIRED:
001471:
001472:                                                                                                  #        RADMODES, MODEA, MODEB (OR DESIRED TRUNNION AND SHAFT
001473:                                                                                                  #        ANGLES ELSEWHERE IN CONSECUTIVE LOCATIONS -- UNSWITCHED ERASABLE OR
001474:                                                                                                  #        CURRENT EBANK).
001475:
001476:                                                                                                  #  SUBROUTINES CALLED:   MAGSUB
001477:
001478:                                                                                                  #  JOBS OR TASKS INITIATED:  NONE
001479:
001480:                                                                                                  #  ALARMS:  NONE
001481:
001482:                                                                                                  #  EXIT:         L + 2   (EITHER OR BOTH ANGLES NOT WITHIN LIMITS OF CURRENT MODE)
001483:                                                                                                  #                L + 3   (BOTH ANGLES WITHIN LIMITS OF CURRENT MODE)
001484:
001485:    4523           00006        RRLIMCHK           EXTEND
001486:    4524           50002                           INDEX    Q
001487:    4525           50000                           INDEX    0
001488:    4526           30001                           DCA      0
001489:    4527           24002                           INCR     Q
001490:    4530           52062                           DXCH     ITEMP1
001491:    4531           22002                           LXCH     Q                                     #  L(CALLER +2) TO L.
001492:
001493:    4532           34740                           CAF      ANTENBIT                              #  SEE WHICH MODE RR IS IN.
001494:    4533           70110                           MASK     RADMODES
001495:    4534           10000                           CCS      A
001496:    4535           14550                           TCF      MODE2CHK
001497:
001498:    4536           30061                           CA       ITEMP1                                #  MODE 1 IS DEFINED AS


001500:    4537           04512                           TC       MAGSUB                                #        1. ABS(T) L 55 DEGS.
001501:    4540           66161                           DEC      -.30555                               #        2. ABS(S + 5.5 DEGS) L 64.5 DEGS
001502:    4541           00001                           TC       L                                     #                (SHAFT LIMITS AT +59, -70 DEGS)
001503:
001504:    4542           34562                           CAF      5.5DEGS
001505:    4543           60062                           AD       ITEMP2
001506:    4544           04512                           TC       MAGSUB
001507:    4545           64420                           DEC      -.35833                               #  64.5 DEGS
001508:    4546           00001                           TC       L
001509:    4547           04560                           TC       RRLIMOK                               #  IN LIMITS.
001510:
001511:    4550           34563        MODE2CHK           CAF      82DEGS                                #  MODE 2 IS DEFINED AS
001512:    4551           60062                           AD       ITEMP2                                #        1. ABS(T) G 125 DEGS.
001513:    4552           04512                           TC       MAGSUB                                #        2. ABS(S + 82 DEGS) L 57 DEGS
001514:    4553           65673                           DEC      -.31667                               #                (SHAFT LIMITS AT -25, -139 DEGS)
001515:    4554           00001                           TC       L
001516:
001517:    4555           30061                           CA       ITEMP1
001518:    4556           04512                           TC       MAGSUB
001519:    4557           51615                           DEC      -.69444                               #  125 DEGS
001520:
001521:    4560           50001        RRLIMOK            INDEX    L
001522:    4561           00001                           TC       L                                     #  ( = TC 1 )
001523:
001524:    4562           00765        5.5DEGS            DEC      .03056
001525:    4563           16450        82DEGS             DEC      .45556
001526:


001528:                                                                                                  #  PROGRAM NAME: SETTRKF
001529:
001530:                                                                                                  #  FUNCTIONAL DESCRIPTION:
001531:
001532:                                                                                                  #        SETTRKF UPDATES THE TRACKER FAIL LAMP ON THE DSKY.
001533:                                                                                                  #        INITIALLY THE LAMP TEST FLAG (IMODES33 BIT 1) IS CHECKED.
001534:                                                                                                  #        IF A LAMP TEST IS IN PROGRESS, THE PROGRAM EXITS TO L +1.
001535:                                                                                                  #        IF NO LAMP TEST THE FOLLOWING IS CHECKED SEQUENTIALLY:
001536:                                                                                                  #                1) RR CDU'S BEING ZEROED, RR CDU OK, AND RR NOT IN
001537:                                                                                                  #                   AUTO MODE (RADMODES BITS 13, 7, 2).
001538:                                                                                                  #                2) LR VEL DATA FAIL AND NO LR POS DATA (RADMODES BITS
001539:                                                                                                  #                   8,5)
001540:                                                                                                  #                3) NO RR DATA (RADMODES BIT 4)
001541:                                                                                                  #        THE ABSENCE OF ALL THREE SIMULTANEOUSLY IN (1), THE PRESENCE OF BOTH
001542:                                                                                                  #        IN (2), AND THE PRESENCE OF (3) RESULTS IN EITHER THE TRACKER FAIL
001543:                                                                                                  #        LAMP (DSPTAB +11D BIT 8) BEING TURNED OFF OR IS LEFT OFF.  THEREFORE, THE
001544:                                                                                                  #        TRACKER FAIL LAMP IS TURN ON IF:
001545:                                                                                                  #                A) RR CDU FAILED WITH RR IN AUTO MODE AND RR CDU'S NOT BEING ZEROED
001546:                                                                                                  #                B) N SAMPLES OF LR DATA COULD NOT BE TAKEN IN 2N TRIES WITH
001547:                                                                                                  #                   EITHER THE ALT OR VEL INFORMATION
001548:                                                                                                  #                C) N SAMPLES OF RR DATA COULD NOT BE OBTAINED FROM 2N TRIES
001549:                                                                                                  #                   WITH EITHER THE AL
001550:
001551:                                                                                                  #  CALLING SEQUENCE:
001552:
001553:                                                                                                  #        L       TC      SETTRKF
001554:
001555:                                                                                                  #  ERASABLE INITIALIZATION REQUIRED:  IMODES33, RADMODES, DSPTAB +11D
001556:
001557:                                                                                                  #  SUBROUTINES CALLED:  NONE
001558:
001559:                                                                                                  #  JOBS OR TASKS INITIATED:  NONE
001560:
001561:                                                                                                  #  ALARMS:  TRACKER FAIL LAMP
001562:
001563:                                                                                                  #  EXIT:  L +1 (ALWAYS)
001564:
001565:    4564           34753        SETTRKF            CAF      BIT1                                  #  NO ACTION IF DURING LAMP TEST
001566:    4565           71303                           MASK     IMODES33
001567:    4566           10000                           CCS      A
001568:    4567           00002                           TC       Q
001569:
001570:    4570           34744        RRTRKF             CA       BIT8
001571:    4571           54001                           TS       L
001572:
001573:    4572           34615                           CAF      13,7,2                                #  SEE IF CDU FAILED.
001574:    4573           70110                           MASK     RADMODES
001575:    4574           00006                           EXTEND
001576:    4575           14601                           BZF      TRKFLON                               #  CONDITION 3 ABOVE.
001577:
001578:    4576           34750        RRCHECK            CAF      RRDATABT                              #  SEE IF RR DATA FAILED.
001579:    4577           70110                           MASK     RADMODES


001581:    4600           10000                           CCS      A
001582:    4601           30001        TRKFLON            CA       L
001583:    4602           61036                           AD       DSPTAB     +11D                       #  HALF ADD DESIRED AND PRESENT STATES.
001584:    4603           70001                           MASK     L
001585:    4604           00006                           EXTEND
001586:    4605           16742                           BZF      TCQ                                   #  NO CHANGE.
001587:
001588:    4606           31036        FLIP               CA       DSPTAB     +11D                       #  CAN'T USE LXCH DSPTAB +11D (RESTART PROB)
001589:    4607           00006                           EXTEND
001590:    4610           06001                           RXOR     LCHAN
001591:    4611           74733                           MASK     POSMAX
001592:    4612           64735                           AD       BIT15
001593:    4613           55036                           TS       DSPTAB     +11D
001594:    4614           00002                           TC       Q
001595:
001596:    4615           10102        13,7,2             OCT      10102
001597:    4616                        ENDRMODF           EQUALS
001598:


001600:                                                                                                  #  PROGRAM NAME:  RRTURNON
001601:
001602:                                                                                                  #  FUNCTIONAL DESCRIPTION:
001603:
001604:                                                                                                  #        RRTURNON IS THE TURN-ON SEQUENCE WHICH, ALONG WTIH
001605:                                                                                                  #        RRZEROSB, ZEROES THE CDU'S AND DETERMINES THE RR MODE.
001606:                                                                                                  #        INITIALLY, CONTROL IS TRANSFERRED TO RRZEROSB FOR THE
001607:                                                                                                  #        ACTUAL TURN-ON SEQUENCE.  UPON RETURN THE PROGRAM
001608:                                                                                                  #        WAITS 1 SECOND BEFORE REMOVING THE TURN-ON FLAG
001609:                                                                                                  #        (RADMODES BIT1) SO THE REPOSITION ROUTINE WON'T
001610:                                                                                                  #        INITIATE PROGRAM ALARM 00501.  A CHECK IS THEN MADE
001611:                                                                                                  #        TO SEE IF A PROGRAM IS USING THE RR (STATE BIT 7).  IF
001612:                                                                                                  #        SO, THE PROGRAM EXITS TO ENDRADAR SO THAT THE RR CDU
001613:                                                                                                  #        FAIL FLAG (RADMODES BIT 7) CAN BE CHECKED BEFORE
001614:                                                                                                  #        RETURNING TO THE WAITING PROGRAM.  IF NOT, THE PROGRAM EXITS
001615:                                                                                                  #        TO TASKOVER.
001616:
001617:                                                                                                  #  CALLING SEQUENCE:  WAITLIST TASK FROM RRAUTCHK IF THE RR POWER-ON AUTO
001618:                                                                                                  #  BIT (CHAN 33 BIT 2) CHANGES TO 0 AND NO PROGRAM WAS USING
001619:                                                                                                  #  THE RR (STATE BIT 7).
001620:
001621:                                                                                                  #  ERASABLE INITIALIZATION REQUIRED:
001622:
001623:                                                                                                  #        RADMODES, STATE
001624:
001625:                                                                                                  #  SUBROUTINES CALLED:  RRZEROSB, FIXDELAY, TASKOVER, ENDRADAR
001626:
001627:                                                                                                  #  JOBS OR TASKS INITIATED:
001628:                                                                                                  #
001629:                                                                                                  #        NONE
001630:
001631:                                                                                                  #  ALARMS:  NONE (SEE RRZEROSB)
001632:
001633:                                                                                                  #  EXIT:  TASKOVER, ENDRADAR (WAITING PROGRAM)
001634:
001635: 24,3255                                           BANK     24
001636: 25,2000                                           SETLOC   P20S1
001637: 25,2000                                           BANK
001638:
001639: 25,2062  E7,1456                                  EBANK=   LOSCOUNT
001640: 25,2062                                           COUNT*   $$/RSUB
001641: 25,2062           02071        RRTURNON           TC       RRZEROSB
001642: 25,2063           05221                           TC       FIXDELAY                              #  WAIT 1 SEC BEFORE REMOVING TURN ON FLAG
001643: 25,2064           00144                           DEC      100        B-14                       #  SO A MONITOR REPOSITION WON'T ALARM.
001644: 25,2065           44753                           CS       TURNONBT
001645: 25,2066           70110                           MASK     RADMODES
001646: 25,2067           54110                           TS       RADMODES
001647: 25,2070           15261                           TCF      TASKOVER


001649:                                                                                                  #  PROGRAM NAME:  RRZEROSB
001650:
001651:                                                                                                  #  FUNCTIONAL DESCRIPTION:
001652:
001653:                                                                                                  #        RRZEROSB IS A CLOSED SUBROUTINE TO ZERO THE RR CDU'S,
001654:                                                                                                  #        DETERMINE THE RR MODE, AND TURN ON THE TRACKER FAIL
001655:                                                                                                  #        LAMP IF REQUIRED.  INITIALLY THE RR CDU ZERO BIT (CHAN 12
001656:                                                                                                  #        BIT 1) IS SET.  FOLLOWING A 20 MILLISECOND WAIT, THE LGC
001657:                                                                                                  #        RR CDU COUNTERS (OPTY, OPTX) ARE SET = 0 AFTER
001658:                                                                                                  #        WHICH THE RR CDU ZERO DISCRETE (CHAN 12 BIT 1) IS
001659:                                                                                                  #        REMOVED.  A 4 SECOND WAIT IS SET TO ALL THE RR CDU'S
001660:                                                                                                  #        TO REPEAT THE ACTUAL TRUNNION AND SHAFT ANGLES.  THE
001661:                                                                                                  #        RR CDU ZERO FLAG (RADMODES BIT 13) IS REMOVED.  THE
001662:                                                                                                  #        CONTENTS OF OPTY IS THEN CHECKED TO SEE IF THE TRUNNION
001663:                                                                                                  #        ANGLE IS LESS THAN 90 DEGREES.  IF NOT, BIT 12 OF
001664:                                                                                                  #        RADMODES IS SET = 1 TO INDICATE RR ANTENNA MODE 2.
001665:                                                                                                  #        IF LESS THAN 90 DEGREES, BIT 12 OF RADMODES IS SET = 0 TO
001666:                                                                                                  #        INDICATE RR ANTENNA MODE 1.  SETTRKF IS THEN CALLED TO
001667:                                                                                                  #        SEE IF THE TRACKER FAIL LAMP SHOULD BE TURNED ON.
001668:
001669:                                                                                                  #  CALLING SEQUENCE:  L  TC  RRZEROSB  (FROM RRTURNON AND RRZERO)
001670:
001671:                                                                                                  #  ERASABLE INITIALIZATION REQUIRED:
001672:
001673:                                                                                                  #        RADMODES (BIT 13 SET), DSPTAB +11D
001674:
001675:                                                                                                  #  SUBROUTINES CALLED:  FIXDELAY, MAGSUB, SETTRKF
001676:
001677:                                                                                                  #  JOBS OR TASKS INITIATED:
001678:
001679:                                                                                                  #        NONE
001680:
001681:                                                                                                  #  ALARMS:  TRAKCER FAIL
001682:
001683:                                                                                                  #  EXIT:  L +1 (ALWAYS)
001684:
001685: 25,2071           00006        RRZEROSB           EXTEND
001686: 25,2072           23315                           QXCH     RRRET
001687: 25,2073           34753                           CAF      BIT1                                  #  BIT 13 OF RADMODES MUST BE SET BEFORE
001688: 25,2074           00006                           EXTEND                                         #  COMING HERE.
001689: 25,2075           05012                           WOR      CHAN12                                #  TURN ON ZERO RR CDU
001690: 25,2076           05221                           TC       FIXDELAY
001691: 25,2077           00002                           DEC      2          B-14
001692:
001693: 25,2100           34755                           CAF      ZERO
001694: 25,2101           54035                           TS       CDUT
001695: 25,2102           54036                           TS       CDUS
001696: 25,2103           44753                           CS       ONE                                   #  REMOVE ZEROING BIT.
001697: 25,2104           00006                           EXTEND
001698: 25,2105           03012                           WAND     CHAN12
001699: 25,2106           05221                           TC       FIXDELAY
001700: 25,2107           01750                           DEC      1000       B-14                       #  RESET FAIL INHIBIT IN 10 SECS. -- D.281
001701:
001702: 25,2110           44737                           CS       RCDU0BIT                              #  REMOVE ZEROING IN PROCESS BIT


001704: 25,2111           70110                           MASK     RADMODES
001705: 25,2112           54110                           TS       RADMODES
001706:
001707: 25,2113           30035                           CA       CDUT
001708: 25,2114           04512                           TC       MAGSUB
001709: 25,2115           57777                           DEC      -.5
001710: 25,2116           12121                           TCF      +3                                    #  IF MODE 2.
001711:
001712: 25,2117           34755                           CAF      ZERO
001713: 25,2120           12122                           TCF      +2
001714: 25,2121           34740                           CAF      ANTENBIT
001715: 25,2122           56110                           XCH      RADMODES
001716: 25,2123           77741                           MASK     -BIT12
001717: 25,2124           26110                           ADS      RADMODES
001718:
001719: 25,2125           04564                           TC       SETTRKF                               #  TRACKER LAMP MIGHT GO ON NOW.
001720:
001721: 25,2126           01315                           TC       RRRET                                 #  DONE.
001722:
001723: 25,2127     7741               -BIT12             EQUALS   -1/8                                  #  IN SPROOT
001724:


001726:                                                                                                  #  PROGRAM NAME:  DORREPOS
001727:
001728:                                                                                                  #  FUNCTIONAL DESCRIPTION:
001729:
001730:                                                                                                  #        DORREPOS IS A SEQUENCE OF TASKS TO DRIVE THE RENDEZVOUS RADAR
001731:                                                                                                  #        TO A SAFE POSITION.  INIITALLY SETRRECR IS CALLED WHERE THE RR
001732:                                                                                                  #        ERROR COUNTERS (CHAN 12 BIT 2) ARE ENABLED AND LASTYCMD
001733:                                                                                                  #        AND LASTXCMD SET = 0 TO INDICATE THE DIFFERENCE BETWEEN THE
001734:                                                                                                  #        DESIRED STATE AND PRESENT STATE OF THE COMMANDS.  THE RR
001735:                                                                                                  #        TURN-ON FLAG (RADMODES BIT 1) IS CHECKED AND IF NOT PRESENT,
001736:                                                                                                  #        PROGRAM ALARM 00501 IS REQUESTED BEFORE CONTINUING.  IN EITHER
001737:                                                                                                  #        CASE, FOLLOWING A 20 MILLISECOND WAIT THE PROGRAM CHECKS THE CURRENT
001738:                                                                                                  #        RR ANTENNA MODE (RADMODES BIT 12).  RRTONLY IS THEN CALLED
001739:                                                                                                  #        TO DRIVE THE TRUNNION ANGLE TO 0 DEGREES IF IN MODE 1 AND TO 180
001740:                                                                                                  #        DEGREES IF IN MODE 2.  UPON RETURN, THE CURRENT RR ANTENNA
001741:                                                                                                  #        MODE (RADMODES BIT 12) IS AGAIN CHECKED.  RRSONLY IS THEN
001742:                                                                                                  #        CALLED TO DRIVE THE SHAFT ANGLE TO 0 DEGREES IF IN MODE 1 AND TO
001743:                                                                                                  #        -90 DEGREES IF IN MODE 2.  IF DURING RRTONLY OR RRSONLY A
001744:                                                                                                  #        REMODE HAS BEEN REQUESTED (RADMODES BIT 14), AND ALWAYS
001745:                                                                                                  #        FOLLOWING COMPLETION OF RRSONLY, CONTROL IS TRANFERRED TO
001746:                                                                                                  #        REPOSRPT.  HERE THE REPOSITION FLAG (RADMODES BIT 11) IS
001747:                                                                                                  #        REMOVED.  A CHECK IS THEN MADE ON THE DESIGNATE FLAG (RADMODES
001748:                                                                                                  #        BIT 10).  IF PRESENT, CONTROL IS TRANSFERRED TO BEGDES.  IF NOT PRESENT
001749:                                                                                                  #        INDICATING NO FURTHER ANTENNA CONTROL REQUIRED, THE RR ERROR
001750:                                                                                                  #        COUNTER BIT (CHAN 12 BIT 2) IS REMOVED AND THE ROUTINE EXITS TO
001751:                                                                                                  #        TASKOVER.
001752:
001753:                                                                                                  #  CALLING SEQUENCE:
001754:
001755:                                                                                                  #        WAITLIST CALL FROM RRGIMON IF TRUNNION AND SHAFT CDU ANGLES
001756:                                                                                                  #        NOT WITHIN LIMITS OF CURRENT MODE.
001757:
001758:                                                                                                  #  ERASABLE INITIALIZATION REQUIRED:
001759:
001760:                                                                                                  #        RADMODES
001761:
001762:                                                                                                  #  SUBROUTINES CALLED
001763:
001764:                                                                                                  #        RRTONLY, RRSONLY, BEGDES (EXIT)
001765:
001766:                                                                                                  #  JOBS OR TASKS INITIATED:
001767:
001768:                                                                                                  #        NONE
001769:
001770:                                                                                                  #  ALARMS:  NONE
001771:
001772:                                                                                                  #  EXIT:  TASKOVER, BEGDES
001773:
001774: 25,2127           02156        DORREPOS           TC       SETRRECR                              #  SET UP RR CDU ERROR COUNTERS.
001775:
001776:                                                                                                  #  ALARM 501 DELETED IN DANCE 279 PER PCR 97.
001777:
001778: 25,2130           05221                           TC       FIXDELAY
001779: 25,2131           00002                           DEC      2          B-14
001780:
001781: 25,2132           34740                           CAF      ANTENBIT                              #  MANEUVER TRUNNION ANGLE TO NOMINAL POS.


001783: 25,2133           70110                           MASK     RADMODES
001784: 25,2134           10000                           CCS      A
001785: 25,2135           34735                           CAF      BIT15                                 #  0 FOR MODE 1 AND 180 FOR MODE 2.
001786: 25,2136           02241                           TC       RRTONLY
001787:
001788: 25,2137           34740                           CAF      ANTENBIT                              #  NOT PUT SHAFT IN RIGHT POSITION
001789: 25,2140           70110                           MASK     RADMODES
001790: 25,2141           10000                           CCS      A
001791: 25,2142           44736                           CS       HALF                                  #  -90 FOR MODE 2.
001792: 25,2143           02244                           TC       RRSONLY
001793:
001794: 25,2144           44741        REPOSRPT           CS       REPOSBIT                              #  RETURNS HERE FROM RR1AXIS IN REMODE
001795:                                                                                                  #  REQUESTED DURING REPOSITION.
001796: 25,2145           70110                           MASK     RADMODES                              #  REMOVE REPOSITION BIT.
001797: 25,2146           54110                           TS       RADMODES
001798: 25,2147           74742                           MASK     DESIGBIT                              #  SEE IF SOMEONE IS WAITING TO DESIGNATE.
001799: 25,2150           10000                           CCS      A
001800: 25,2151           12573                           TCF      BEGDES
001801: 25,2152           44752                           CS       BIT2                                  #  IF NO FURTHER ANTENNA CONTROL REQUIRED,
001802: 25,2153           00006                           EXTEND                                         #  REMOVE ERROR COUNTER ENABLE.
001803: 25,2154           03012                           WAND     CHAN12
001804: 25,2155           15261                           TCF      TASKOVER
001805:
001806: 25,2156           34752        SETRRECR           CAF      BIT2                                  #  SET UP RR ERROR COUNTERS
001807: 25,2157           00006                           EXTEND
001808: 25,2160           02012                           RAND     CHAN12
001809: 25,2161           10000                           CCS      A                                     #  DO NOT CLEAR LAST COMMAND IF
001810: 25,2162           00002                           TC       Q                                     #  ERROR COUNTERS ARE ENABLED
001811:
001812: 25,2163           54112                           TS       LASTYCMD
001813: 25,2164           54113                           TS       LASTXCMD
001814: 25,2165           34752                           CAF      BIT2
001815: 25,2166           00006                           EXTEND
001816: 25,2167           05012                           WOR      CHAN12                                #  ENABLE RR CDU ERROR COUNTERS.
001817: 25,2170           00002                           TC       Q


001819:                                                                                                  #  PROGRAM NAME:  REMODE
001820:
001821:                                                                                                  #  FUNCTIONAL DESCRIPTION
001822:
001823:                                                                                                  #        REMODE IS THE GENERAL REMODING SUBROUTINE.  IT DRIVES THE
001824:                                                                                                  #        TRUNNION ANGLE TO 0 DEGREES IF THE CURRENT MODE IS MODE 1,
001825:                                                                                                  #        180 DEGREES FOR MODE 2, THEN DRIVES THE SHAFT ANGLE TO -45
001826:                                                                                                  #        DEGREES, AND FINALLY DRIVES THE TRUNNION ANGLE TO -130 DEGREES,
001827:                                                                                                  #        TO PLACE THE RR IN MODE 2, -50 DEGREES FOR MODE 1, BEFORE
001828:                                                                                                  #        INITIATING 2-AXIS CONTROL.  ALL REMODING IS DONE WITH SINGLE
001829:                                                                                                  #        AXIS ROTATIONS (RR1AXIS).  INITIALLY THE RR ANTENNA MODE FLAG
001830:                                                                                                  #        (RADMODES BIT 12) IS CHECKED.  CONTROL IS THEN TRANSFERRED TO
001831:                                                                                                  #        RRTONLY TO DRIVE THR TRUNNION ANGLE TO 0 DEGREES IF IN MODE 1
001832:                                                                                                  #        OR 180 DEGREES IF IN MODE 2.  RRSONLY IS THEN CALLED TO DRIVE
001833:                                                                                                  #        THE SHAFT ANGLE TO -45 DEGREES. THE RR ANTENNA MODE FLAG
001834:                                                                                                  #        (RADMODES BIT 12) IS CHECKED AGAIN.  CONTROL IS AGAIN
001835:                                                                                                  #        TRANSFERRED TO RRTONLY TO DRIVE THE TRUNNION ANGLE TO -130
001836:                                                                                                  #        DEGREES TO PLACE THE RR IN MODE 2 IF CURRENTLY IN MODE 1 OR TO
001837:                                                                                                  #        -50 DEGREES IF IN MODE 2 TO PLACE THE RR IN MODE 1.  RMODINV
001838:                                                                                                  #        IS THEN CALLED TO SET RADMODES BIT 12 TO INDICATE THE NEW
001839:                                                                                                  #        RR ANTENNA MODE.  THE REMODE FLAG (RADMODES BIT 14)
001840:                                                                                                  #        IS REMOVED TO INDICATE THAT REMODING IS COMPLETE.  THE PROGRAM
001841:                                                                                                  #        THEN EXITS TO STDESIG TO BEGIN 2-AXIS CONTROL.
001842:
001843:                                                                                                  #  CALLIN SEQUENCE:
001844:
001845:                                                                                                  #        FROM BEGDES WHEN REMODE FLAG (RADMODES BIT 14) IS SET.
001846:                                                                                                  #        THIS FLAG MAY BE SET IN RRDESSM AND RRDESNB IF RRLIMCHK
001847:                                                                                                  #        DETERMINES THAT THE DESIRED ANGLES ARE WITHIN THE LIMITS OF THE
001848:                                                                                                  #        OTHER MODE.
001849:
001850:                                                                                                  #  ERASABLE INIITIALIZATION REQUIRED:
001851:
001852:                                                                                                  #        RADMODES
001853:
001854:                                                                                                  #  SUBROUTINES CALLED:
001855:
001856:                                                                                                  #        RRTONLY, RRSONL, RMODINV (ACTUALLY PART OF)
001857:
001858:                                                                                                  #  JOBS OR TASKS INITIATED:
001859:
001860:                                                                                                  #        NONE
001861:
001862:                                                                                                  #  ALARMS:  NONE
001863:
001864:                                                                                                  #  EXIT:  STDESIG
001865:
001866: 25,2171           34740        REMODE             CAF      ANTENBIT                              #  DRIVE TRUNNION TO 0 (180)
001867: 25,2172           70110                           MASK     RADMODES                              #  (ERROR COUNTER ALREADY ENABLED)
001868: 25,2173           10000                           CCS      A
001869: 25,2174           34735                           CAF      BIT15
001870: 25,2175           02241                           TC       RRTONLY
001871:
001872: 25,2176           37740                           CAF      -45DEGSR
001873: 25,2177           02244                           TC       RRSONLY


001875: 25,2200           40110                           CS       RADMODES
001876: 25,2201           74740                           MASK     ANTENBIT
001877: 25,2202           10000                           CCS      A
001878: 25,2203           32232                           CAF      -80DEGSR                              #  GO TO T = -130 (-50).
001879: 25,2204           62231                           AD       -50DEGSR
001880: 25,2205           02241                           TC       RRTONLY
001881:
001882: 25,2206           40110                           CS       RADMODES
001883: 25,2207           74740                           MASK     ANTENBIT
001884: 25,2210           10000                           CCS      A
001885: 25,2211           34735                           CAF      BIT15                                 #  GO TO T = -180 (+0).
001886: 25,2212           02241                           TC       RRTONLY
001887:
001888: 25,2213           40110                           CS       RADMODES                              #  GO TO S = -90 (+0).
001889: 25,2214           74740                           MASK     ANTENBIT
001890: 25,2215           10000                           CCS      A
001891: 25,2216           44736                           CS       HALF
001892: 25,2217           02244                           TC       RRSONLY
001893:
001894: 25,2220           02233                           TC       RMODINV
001895:
001896: 25,2221           44736                           CS       REMODBIT                              #  END OF REMODE.
001897: 25,2222           70110                           MASK     RADMODES
001898: 25,2223           54110                           TS       RADMODES
001899:
001900: 25,2224           34742                           CAF      DESIGBIT                              #  WAS REMODE CALLED DURING DESIGNATE?
001901: 25,2225           70110                           MASK     RADMODES                              #  (BIT10 RADMODES = 1)
001902: 25,2226           00006                           EXTEND
001903: 25,2227           13555                           BZF      RGOODEND                              #  NO -- RETURN TO CALLER WAITING IN RADSTALL
001904: 25,2230           02602                           TC       STDESIG                               #  YES -- RETURN TO DESIGNATE
001905: 25,2231     7740               -45DEGSR           =        13,14,15
001906: 25,2231           67070        -50DEGSR           DEC      -.27778
001907: 25,2232           61615        -80DEGSR           DEC      -.44444
001908:
001909: 25,2233           22110        RMODINV            LXCH     RADMODES                              #  INVERT THE MODE STATUS.
001910: 25,2234           34740                           CAF      ANTENBIT
001911: 25,2235           00006                           EXTEND
001912: 25,2236           06001                           RXOR     LCHAN
001913: 25,2237           54110                           TS       RADMODES
001914: 25,2240           00002                           TC       Q
001915:


001917:                                                                                                  #  PROGRAM NAMES:        RRTONLY, RRSONLY
001918:
001919:                                                                                                  #  FUNCTIONAL DESCRIPTION:
001920:
001921:                                                                                                  #        RRTONLY AND RRSONLY ARE SUBROUTINES FOR DOING SINGLE AXIS
001922:                                                                                                  #        RR MANEUVERS FOR REMODE AND REPOSITION.  IT DRIVES TO
001923:                                                                                                  #        WITHIN 1 DEGREE.  INITIALLY, AT RR1AX2, THE REMODE AND REPOSITION
001924:                                                                                                  #        FLAGS (RADMODES BITS 14, 11) ARE CHECKED.  IF BOTH EXIST,
001925:                                                                                                  #        THE PROGRAM EXITS TO REPOSRPT (SEE DORREPOS).  THIS INDICATES
001926:                                                                                                  #        THAT SOMEONE POSSIBLY REQUESTED A DESIGNATE (RADMODES BIT 10)
001927:                                                                                                  #        WHICH REQUIRES A REMODE (RADMODES BIT 14) AND THAT A
001928:                                                                                                  #        REPOSITION IS IN PROGRESS (RADMODES BIT 11).  IF NONE
001929:                                                                                                  #        OR ONLY ONE OF THE FLAGS EXIST, REMODE OR REPOSITION, MAGSUB
001930:                                                                                                  #        IS CALLED TO SEE IF THE APPROPRIATE ANGLE IS WITHIN 1 DEGREE.  IF YES,
001931:                                                                                                  #        CONTROL RETURNS TO THE CALLING ROUTINE.  IF NOT, CONTROL IS
001932:                                                                                                  #        TRANSFERRED TO RROUT FOR SINGLE AXIS MANEUVERS WITH THE OTHER
001933:                                                                                                  #        ANGLE SET = 0.  FOLLOWING A .5 SECOND WAIT, THE ABOVE PROCEDURE IS
001934:                                                                                                  #        REPEATED.
001935:
001936:                                                                                                  #  CALLING SEQUENCE:     L-1     CAF     *ANGLE*         (DESIRED ANGLE SCALED PI)
001937:                                                                                                  #                        L       TC      RRTONLY         (TRUNNION ONLY)
001938:                                                                                                  #                        RRSONLY                         (SHAFT ONLY)
001939:                                                                                                  #                        RRTONLY IS CALLED BY PREPOS29;
001940:                                                                                                  #                        RRTONLY AND RRSONLY ARE CALLED BY DORREPOS AND REMODE
001941:
001942:                                                                                                  #  ERASABLE INITIALIZATION REQUIRED:
001943:
001944:                                                                                                  #        C(A) = DESIRED ANGLE, RADMODES
001945:
001946:                                                                                                  #  SUBROUTINES CALLED:
001947:
001948:                                                                                                  #        FIXDELAY, REPOSRPT, MAGSUB, RROUT
001949:
001950:                                                                                                  #  JOBS OR TASKS INITIATED:
001951:
001952:                                                                                                  #        NONE
001953:
001954:                                                                                                  #  ALARMS:  NONE
001955:
001956:                                                                                                  #  EXIT: REPOSRPT (REMODE AND REPOSITION FLAGS PRESENT -- RADMODES
001957:                                                                                                  #        BITS 14, 11)
001958:                                                                                                  #        L+1 (ANGLE WITHIN ONE DEGREE OR RR OUT OF AUTO MODE)
001959:
001960: 25,2241           55316        RRTONLY            TS       RDES                                  #  DESIRED TRUNNION ANGLE.
001961: 25,2242           34755                           CAF      ZERO
001962: 25,2243           12246                           TCF      RR1AXIS
001963:
001964: 25,2244           55316        RRSONLY            TS       RDES                                  #  SHAFT COMMANDS ARE UNRESOLVED SINCE THIS
001965: 25,2245           34753                           CAF      ONE                                   #  ROUTINE ENTERED ONLY WHEN T = 0 OR 180.
001966:
001967: 25,2246           55317        RR1AXIS            TS       RRINDEX
001968: 25,2247           00006                           EXTEND
001969: 25,2250           23315                           QXCH     RRRET
001970: 25,2251           12254                           TCF      RR1AX2
001971:


001973: 25,2252           05221        NXTRR1AX           TC       FIXDELAY
001974: 25,2253           00062                           DEC      50         B-14                       #  2 SAMPLES PER SECOND.
001975:
001976: 25,2254           40110        RR1AX2             CS       RADMODES                              #  IF SOMEONE REQUESTS A DESIGNATE WHICH
001977: 25,2255           77710                           MASK     PRIO22                                #  REQUIRES A REMODE AND A REPOSITION IS IN
001978: 25,2256           00006                           EXTEND                                         #  PROGRESS, INTERRUPT IT AND START THE
001979: 25,2257           12144                           BZF      REPOSRPT                              #  REMODE IMMEDIATELY.
001980:
001981: 25,2260           31316                           CA       RDES
001982: 25,2261           00006                           EXTEND
001983: 25,2262           51317                           INDEX    RRINDEX
001984: 25,2263           20035                           MSU      CDUT
001985: 25,2264           54061                           TS       ITEMP1                                #  SAVE ERROR SIGNAL.
001986: 25,2265           00006                           EXTEND
001987: 25,2266           72305                           MP       RRSPGAIN                              #  TRIES TO NULL .7 OF ERROR OVER NEXT .5
001988: 25,2267           54001                           TS       L
001989: 25,2270           30110                           CA       RADMODES
001990: 25,2271           74752                           MASK     AUTOMBIT
001991: 25,2272           56061                           XCH      ITEMP1                                #  STORE RR-OUT-OF-AUTO-MODE BIT.
001992: 25,2273           04512                           TC       MAGSUB                                #  SEE IF WITHIN ONE DEGREE.
001993: 25,2274           77644                           DEC      -.00555                               #  SCALED IN HALF-REVS.
001994:
001995: 25,2275           10061                           CCS      ITEMP1                                #  NO.  IF RR OUT OF AUTO MODE, EXIT.
001996: 25,2276           01315                           TC       RRRET                                 #  RETURN TO CALLER.
001997:
001998: 25,2277           11317                           CCS      RRINDEX                               #  COMMAND FOR OTHER AXIS IS ZERO.
001999: 25,2300           12302                           TCF      +2                                    #  SETTING A TO 0.
002000: 25,2301           56001                           XCH      L
002001: 25,2302           53110                           DXCH     TANG
002002:
002003: 25,2303           02306                           TC       RROUT
002004:
002005: 25,2304           12252                           TCF      NXTRR1AX                              #  COME BACK IN .5 SECONDS.
002006:
002007: 25,2305           22715        RRSPGAIN           DEC      .59062                                #  NULL .7 ERROR IN .5 SEC.
002008:


002010:                                                                                                  #  PROGRAM NAME:  RROUT
002011:
002012:                                                                                                  #  FUNCTIONAL DESCRIPTION:
002013:
002014:                                                                                                  #        RROUT RECEIVES RR GYRO COMMANDS IN TANG, TANG +1 IN RR
002015:                                                                                                  #        ERROR COUNTER SCALING.  RROUT THEN LIMITS THEM AND
002016:                                                                                                  #        GENERATES COMMANDS TO THE CDU TO ADJUST THE ERROR COUNTERS
002017:                                                                                                  #        TO THE DESIRED VALUES.  INITIALLY MAGSUB CHECKS THE MAGNITUDE OF
002018:                                                                                                  #        THE COMMAND (SHAFT ON 1ST PASS) TO SEE IF IT IS GREATER THAN
002019:                                                                                                  #        384 PULSES.  IF NOT, CONTROL IS TRANFERRED TO RROUTLIM TO
002020:                                                                                                  #        LIMIT THE COMMAND TO +384 OR -384 PULSES.  THE DIFFERENCE IS
002021:                                                                                                  #        THEN CALCULATED BETWEEN THE DESIRED STATE AND TEH PRESENT STATE OF
002022:                                                                                                  #        THE ERROR COUNTER AS RECORDED IN LASTYCMD AND LASTXCMD.
002023:                                                                                                  #        THE RESULT IS STORED IN OPTXCMD (1ST PASS) AND OPTYCMD (2ND
002024:                                                                                                  #        PASS).  FOLLOWING THE SECOND PASS, FOR THE TRUNNION COMMAND, THE
002025:                                                                                                  #        OCDUT AND OCDUS ERROR COUNTER DRIVE BITS (CHAN 14 BITS 12, 11)
002026:                                                                                                  #        ARE SET.  THIS PROGRAM THEN EXITS TO THE CALLING PROGRAM.
002027:
002028:                                                                                                  #  CALLING SEQUENCE:
002029:                                                                                                  #
002030:                                                                                                  #        L TC RROUT (WITH RUPT INHIBITED) RROUT IS CALLED BY
002031:                                                                                                  #        RRTONLY, RRSONLY, AND DODES
002032:
002033:                                                                                                  #  ERASABLE INITIALIZATION REQURIED:
002034:
002035:                                                                                                  #        TANG, TANG +1 (DESIRED COMMANDS), LASTYCMD, LASTXCMD
002036:                                                                                                  #        (1ST PASS = 0), RR ERROR COUNTER ENAGLE SET (CHAN 12 BIT 2).
002037:
002038:                                                                                                  #  SUBROUTINES CALLED:
002039:
002040:                                                                                                  #        MAGSUB
002041:
002042:                                                                                                  #  JOBS OR TASKS INITIATED:
002043:
002044:                                                                                                  #        NONE
002045:
002046:                                                                                                  #  ALARMS:  NONE
002047:
002048:                                                                                                  #  EXIT:  L+1 (ALWAYS)
002049:
002050: 25,2306           22002        RROUT              LXCH     Q                                     #  SAVE RETURN
002051: 25,2307           34753                           CAF      ONE                                   #  LOOP TWICE.
002052: 25,2310           54062        RROUT2             TS       ITEMP2
002053: 25,2311           50000                           INDEX    A
002054: 25,2312           31107                           CA       TANG
002055: 25,2313           54061                           TS       ITEMP1                                #  SAVE SIGN COMMAND FOR LIMITING.
002056:
002057: 25,2314           04512                           TC       MAGSUB                                #  SEE IF WITHIN LIMITS.
002058: 25,2315           77177        -RRLIMIT           DEC      -384       B-14
002059: 25,2316           12335                           TCF      RROUTLIM                              #  LIMIT COMMAND TO MAG OF 384.
002060:
002061: 25,2317           30061        SETRRCTR           CA       ITEMP1                                #  COUNT OUT DIFFERENCE BETWEEN DESIRED
002062: 25,2320           50062                           INDEX    ITEMP2                                #  STATE AND PRESENT STATE AS RECORDED IN
002063: 25,2321           56112                           XCH      LASTYCMD                              #  LASTYCMD AND LASTXCMD
002064: 25,2322           40000                           COM


002066: 25,2323           60061                           AD       ITEMP1
002067: 25,2324           64754                           AD       NEG0                                  #  PREVENT +0 IN OUTCOUNTER
002068: 25,2325           50062                           INDEX    ITEMP2
002069: 25,2326           54053                           TS       CDUTCMD
002070:
002071: 25,2327           10062                           CCS      ITEMP2                                #  PROCESS BOTH INPUTS.
002072: 25,2330           12310                           TCF      RROUT2
002073:
002074: 25,2331           35020                           CAF      PRIO6                                 #  ENABLE COUNTERS.
002075: 25,2332           00006                           EXTEND
002076: 25,2333           05014                           WOR      CHAN14                                #  PUT ON CDU DRIVES S AND T
002077: 25,2334           00001                           TC       L                                     #  RETURN.
002078:
002079: 25,2335           10061        RROUTLIM           CCS      ITEMP1                                #  LIMIT COMMAND TO ABS VAL OF 384.
002080: 25,2336           42315                           CS       -RRLIMIT
002081: 25,2337           12341                           TCF      +2
002082: 25,2340           32315                           CA       -RRLIMIT
002083: 25,2341           54061                           TS       ITEMP1
002084: 25,2342           12320                           TCF      SETRRCTR   +1
002085:


002087:                                                                                                  #  ROUTINE TO ZERO THE RR CDUS AND DETERMINE THE ANTENNA MODE.
002088:
002089: 25,2343           32372        RRZERO             CAF      BIT11+1                               #  SEE IF MONITOR REPOSITION OR NOT IN AUTO
002090: 25,2344           70110                           MASK     RADMODES                              #  IF SO, DON'T RE-ZERO CDUS.
002091: 25,2345           10000                           CCS      A
002092: 25,2346           13530                           TCF      RADNOOP                               #  (IMMEDIATE TASK TO RGOODEND).
002093:
002094: 25,2347           00004                           INHINT
002095: 25,2350           44737                           CS       RCDU0BIT                              #  SET FLAG TO SHOW ZEROING IN PROGRESS.
002096: 25,2351           70110                           MASK     RADMODES
002097: 25,2352           64737                           AD       RCDU0BIT
002098: 25,2353           54110                           TS       RADMODES
002099:
002100: 25,2354           34753                           CAF      ONE
002101: 25,2355           05203                           TC       WAITLIST
002102: 25,2356  E7,1456                                  EBANK=   LOSCOUNT
002103: 25,2356           02370 52067                     2CADR    RRZ2
002104:
002105: 25,2360           40110                           CS       RADMODES                              #  SEE IF IN AUTO MODE.
002106: 25,2361           74752                           MASK     AUTOMBIT
002107: 25,2362           10000                           CCS      A
002108: 25,2363           12366                           TCF      ROADBACK
002109: 25,2364           05567                           TC       ALARM                                 #  AUTO DISCRETE NOT PRESENT -- TRYING
002110: 25,2365           00510                           OCT      510
002111: 25,2366           00003        ROADBACK           RELINT
002112: 25,2367           14631                           TCF      SWRETURN
002113:
002114: 25,2370           02071        RRZ2               TC       RRZEROSB                              #  COMMON TO TURNON AND RRZERO.
002115: 25,2371           13546                           TCF      ENDRADAR
002116:
002117: 25,2372           02001        BIT11+1            OCT      02001
002118:


002120:                                                                                                  #  PROGRAM NAME:  RRDESSM
002121:
002122:                                                                                                  #  FUNCTIONAL DESCRIPTION:
002123:
002124:                                                                                                  #        THIS INTERPRETIVE ROUTINE WILL DESIGNATE, IF DESIRED ANGLES ARE
002125:                                                                                                  #        WITHIN THE LIMITS OF EITHER MODE, TO A LINE-OF-SIGHT (LOS) VECTOR
002126:                                                                                                  #        (HALF-UNIT) KNOWN WITH RESPECT TO THE STABLE MEMBER PRESENT
002127:                                                                                                  #        ORIENTATION.  INITIALLY THE IMU CDU'S ARE READ AND CONTROL
002128:                                                                                                  #        TRANSFERRED TO SMNB TO TRANSFORM THE LOS VECTOR FROM STABLE
002129:                                                                                                  #        MEMBER TO NAVIGATION BASE COORDINATES (SEE STG MEMO 699)
002130:                                                                                                  #        RRANGLES IS THEN CALLED TO CALCULATE THE RR GIMBAL ANGLES,
002131:                                                                                                  #        TRUNNION AND SHAFT, FOR BOT THE PRESENT AND ALTERNATE MODE.
002132:                                                                                                  #        RRLIMCHK IS CALLED TO SEE IF THE ANGLES CALCULATED FOR THE
002133:                                                                                                  #        PRESENT MODE ARE WITHIN LIMITS.  IF WITHIN LIMITS, THE RETUREN
002134:                                                                                                  #        LOCATION IS INCREMENTED, INASMUCH AS NO VEHICLE MANEUVER IS
002135:                                                                                                  #        REQUIRED, BEFORE EXITING TO STARTDES.  IF NOT WITHIN THE LIMITS OF THE
002136:                                                                                                  #        CURRENT MODE, TRYSWS IS CALLED.  FOLLOWING INVERTING OF THE RR
002137:                                                                                                  #        ANTENNA MODE FLAG (RADMODES BIT 12), RRLIMCHK IS CALLED
002138:                                                                                                  #        TO SEE IF THE ANGLES CALCULATED FOR THE ALTERNATE MODE ARE WITHIN
002139:                                                                                                  #        LIMITS.  IF YES, THE RR ANTENNA MODE FLAG IS AGAIN INVERTED,
002140:                                                                                                  #        THE REMODE FLAG (RADMODES BIT 14) SET, AND THE RETURN LOCATION
002141:                                                                                                  #        INCREMENTED, TO INDICATE NO VEHICLE MANEUVER IS REQUIRED, BEFORE
002142:                                                                                                  #        EXITING TO STARTDES.  IF THESE ANGLES ARE NOT WITHIN LIMITS
002143:                                                                                                  #        OF THE ALTERNATE MODE, THE RR ANTENNA MODE FLAG (RADMODES
002144:                                                                                                  #        BIT 12) IS INVERTED BEFORE RETURNING DIRECTLY TO THE CALLING PROGRAM
002145:                                                                                                  #        TO INDICATE THAT A VEHICLE MANEUVER IS REQUIRED.
002146:
002147:                                                                                                  #  CALLING SEQUENCE:
002148:
002149:                                                                                                  #        L       STCALL  RRTARGET        (LOS HALF-UNIT VECTOR IN SM COORDINATES)
002150:                                                                                                  #        L+1     RRDESM
002151:                                                                                                  #        L+2     BASIC                   (VEHICLE MANEUVER REQUIRED)
002152:                                                                                                  #        L+3     BASIC                   (NO VEHICLE MANEUVER REQUIRED)
002153:
002154:                                                                                                  #  ERASABLE INITIALIZATION REQUIRED:
002155:
002156:                                                                                                  #        RRTARGET, RADMODES
002157:
002158:                                                                                                  #  SUBROUTINES CALLED:
002159:
002160:                                                                                                  #        READCDUS, SMNB, RRANGLES, RRLIMCHK, TRYSWS (ACTUALLY
002161:                                                                                                  #        PART OF), RMODINV
002162:
002163:                                                                                                  #  JOBS OR TASKS INITIATED:
002164:
002165:                                                                                                  #        NONE
002166:
002167:                                                                                                  #  ALARMS:  NONE
002168:
002169:                                                                                                  #  EXIT:  L+2 (NEITHER SET OF ANGLES ARE WITHIN LIMITS OF RELATED MODE)
002170:                                                                                                  #  STARTDES (DESIGNATE POSSIBLE AT PRESENT VEHICLES ATTITUDE -- RETURNS
002171:                                                                                                  #  TO L+3 FROM STARTDES)
002172:
002173: 25,2373           43020        RRDESSM            STQ      CLEAR
002174: 25,2374           01113                                    DESRET


002176: 25,2375           00271                                    RRNBSW
002177: 25,2376           77624                           CALL                                           #  COMPUTES SINES AND COSINES, ORDER Y Z X
002178: 25,2377           47537                                    CDUTRIG
002179: 25,2400           45175                           VLOAD    CALL                                  #  LOAD VECTOR AND CALL TRANSFORMATION
002180: 25,2401           01102                                    RRTARGET
002181: 25,2402           47671                                    *SMNB*
002182:
002183: 25,2403           77624                           CALL                                           #  GET RR GIMBAL ANGLES IN PRESENT AND
002184: 25,2404           26133                                    RRANGLES                              #  ALTERNATE MODE.
002185: 25,2405           77776                           EXIT
002186:
002187: 25,2406           00004                           INHINT
002188: 25,2407           04523                           TC       RRLIMCHK
002189: 25,2410           01107                           ADRES    MODEA                                 #  CONFIGURATION FOR CURRENT MODE.
002190: 25,2411           02414                           TC       +3                                    #  NOT IN CURRENT MODE
002191: 25,2412           25113        OKDESSM            INCR     DESRET                                #  INCREMENT SAYS NO VEHICLE MANEUVER REQ.
002192: 25,2413           02432                           TC       STARTDES                              #  SHOW DESIGNATE REQUIRED
002193: 25,2414           40104                           CS       FLAGWRD8
002194: 25,2415           74744                           MASK     SURFFBIT                              #  CHECK IF ON LUNAR SURFACE (SURFFLAG=P22F)
002195: 25,2416           00006                           EXTEND
002196: 25,2417           12456                           BZF      NORDSTAL                              #  BRANCH -- YES -- CANNOT DESIGNATE IN MODE 2
002197: 25,2420           02461                           TC       TRYSWS
002198:
002199: 25,2421           40104        LUNDESCH           CS       FLAGWRD8                              #  OVERFLOW RETURN FROM RRANGLES
002200: 25,2422           74744                           MASK     SURFFBIT                              #  CHECK IF ON LUNAR SURFACE
002201: 25,2423           00006                           EXTEND
002202: 25,2424           12456                           BZF      NORDSTAL                              #  BRANCH -- YES -- RETURN TO CALLER -- ALARM 527
002203: 25,2425           30074                           CA       STATE
002204: 25,2426           74745                           MASK     RNDVZBIT
002205: 25,2427           10000                           CCS      A                                     #  TEST RNDVZFLG
002206: 25,2430           02471                           TC       NODESSM                               #  NOT ON MOON -- CALL FOR ATTITUDE MANEUVER
002207: 25,2431           15155                           TCF      ENDOFJOB                              #  ... BUT NOT IN R29.
002208:


002210:                                                                                                  #  PROGRAM NAME:  STARTDES
002211:
002212:                                                                                                  #  FUNCTIONAL DESCRIPTION:
002213:
002214:                                                                                                  #        STARTDES IS ENTERED WHEN WE ARE READY TO BEGIN DESIGNATION.
002215:                                                                                                  #        BIT 14 OF RADMODES IS ALREADY SET IF A REMODE IS REQUIRED.
002216:                                                                                                  #        AT THIS TIME, THE RR ANTENNA MAY BE IN A REPOSITON
002217:                                                                                                  #        OPERATION.  IN THIS CASE, IF A REMODE IS REQUIRED IT MAY HAVE
002218:                                                                                                  #        ALREADY BEGUN BUT IN ANY CASE THE REPOSITION WILL BE INTERRUPTED.
002219:                                                                                                  #        OTHERWISE, THE REPOSITION WILL BE COMPLETED BEFORE 2-AXIS
002220:                                                                                                  #        DESIGNATION BEGINS.  INITIALLY DESCOUNT IS SET = 60 TO INDICATE
002221:                                                                                                  #        THAT 30 SECONDS WILL BE ALLOWED FOR THE RR DATA GOOD INBIT
002222:                                                                                                  #        (CHAN 33 BIT 4) IF LOCK-ON IS DESIRED (STATE BIT 5).  BIT 10
002223:                                                                                                  #        OF RADMODES IS SET TO SHOW THAT A DESIGNATE IS REQUIRED.
002224:                                                                                                  #        THE REPOSITON FLAG (RADMODES BIT 11) IS CHECKED.  IF SET,
002225:                                                                                                  #        THE PROGRAM EXITS TO L+3 OF THE CALLING PROGRAM (SEE RRDESSM
002226:                                                                                                  #        AND RRDESNB).  THE PROGRAM WILL BEGIN DESIGNATING TO THE DESIRED
002227:                                                                                                  #        ANGLES FOLLOWING THE REPOSITON OR REMODE IF ONE WAS
002228:                                                                                                  #        REQUESTED.  IF THE REPOSITON FLAG IS NOT SET, SETRRECR IS CALLED
002229:                                                                                                  #        WITH SETS THE RR ERROR COUNTER ENABLE BIT (CHAN 12 BIT 2)
002230:                                                                                                  #        AND SETS LASTYCMD AND LASTXCMD = 0 TO INDICATE THE
002231:                                                                                                  #        DIFFERENCE BETWEEN THE PRESENT AND DESIRED STATE OF THE ERROR
002232:                                                                                                  #        COUNTERS.  A 20 MILLISECOND WAITLIST CALL IS SET FOR BEGDES
002233:                                                                                                  #        AFTER WHICH THE PROGRAM EXITS TO L+3 OF TEH CALLING PROGRAM.
002234:
002235:                                                                                                  #  CALLING SEQUENCE:
002236:
002237:                                                                                                  #        FROM RRDESSM AND RRDESNB WHEN ANGLES WITHIN LIMITS.
002238:
002239:                                                                                                  #  ERASABLE INITIALIZATION REQUIRED:
002240:
002241:                                                                                                  #        RADMODES, (SEE DODES)
002242:
002243:                                                                                                  #  SUBROUTINES CALLED
002244:
002245:                                                                                                  #        SETRRECR, WAITLIST
002246:
002247:                                                                                                  #  JOBS OR TASKS INITIATED:
002248:
002249:                                                                                                  #        BEGDES
002250:
002251:                                                                                                  #  ALARMS:  NONE
002252:
002253:                                                                                                  #  EXIT: L+3 OF CALLING PROGRAM (SEE RRDESSM)
002254:                                                                                                  #        L+2 OF CALLING PROGRAM (SEE RRDESNB)
002255:
002256: 25,2432           25113        STARTDES           INCR     DESRET
002257: 25,2433           40110                           CS       RADMODES
002258: 25,2434           74742                           MASK     DESIGBIT
002259: 25,2435           26110                           ADS      RADMODES
002260: 25,2436           74741                           MASK     REPOSBIT                              #  SEE IF REPOSITIONING IN PROGRESS.
002261: 25,2437           10000                           CCS      A
002262: 25,2440           12446                           TCF      DESRETRN                              #  ECTR ALREADY SET UP.
002263:
002264: 25,2441           02156                           TC       SETRRECR                              #  SET UP ERROR COUNTERS.


002266: 25,2442           34752                           CAF      TWO
002267: 25,2443           05203                           TC       WAITLIST
002268: 25,2444  E7,1456                                  EBANK=   LOSCOUNT
002269: 25,2444           02573 52067                     2CADR    BEGDES
002270:
002271: 25,2446           31306        DESRETRN           CA       RADCADR                               #  FIRST PASS THRU DESIGNATE
002272: 25,2447           00006                           EXTEND
002273: 25,2450           12452                           BZF      DESRTRN                               #  YES   SET EXIT
002274: 25,2451           05155                           TC       ENDOFJOB                              #  NO
002275: 25,2452           00003        DESRTRN            RELINT
002276: 25,2453           25113                           INCR     DESRET
002277: 25,2454           31113                           CA       DESRET
002278: 25,2455           14640                           TCF      BANKJUMP
002279:
002280: 25,2456           34755        NORDSTAL           CAF      ZERO                                  #  ZERO RADCADR TO WIPE OUT ANYONE
002281: 25,2457           55306                           TS       RADCADR                               #  WAITING IN RADSTALL SINCE WE ARE NOW
002282: 25,2460           12452                           TCF      DESRTRN                               #  RETURNING TO P20 AND MAY DO NEW RADSTALL
002283:


002285:                                                                                                  #  SEE IF RRDESSM CAN BE ACCOMPLISHED AFTER A REMODE.
002286:
002287: 25,2461           02233        TRYSWS             TC       RMODINV                               #  (NOTE RUPT INHIBIT)
002288: 25,2462           04523                           TC       RRLIMCHK                              #  TRY DIFFERENT MODE.
002289: 25,2463           01111                           ADRES    MODEB
002290: 25,2464           12471                           TCF      NODESSM                               #  VEHICLE MANEUVER REQUIRED
002291:
002292: 25,2465           02233                           TC       RMODINV                               #  RESET BIT12
002293: 25,2466           34736                           CAF      REMODBIT                              #  SET FLAG FOR REMODE.
002294: 25,2467           26110                           ADS      RADMODES
002295:
002296: 25,2470           12412                           TCF      OKDESSM
002297:
002298: 25,2471           02233        NODESSM            TC       RMODINV                               #  RE-INVERT MODE AND RETURN
002299: 25,2472           25113                           INCR     DESRET                                #  TO CALLER +2
002300: 25,2473           12456                           TCF      NORDSTAL
002301:
002302: 25,2474           00074        MAXTRYS            DEC      60         B-14
002303:


002305:                                                                                                  #  DESIGNATE TO SPECIFIC RR GIMBAL ANGLES (INDEPENDENT OF VEHICLE MOTION).  ENTER WITH DESIRED ANGLES IN
002306:                                                                                                  #  TANG AND TANG +1.
002307:
002308: 25,2475           04645        RRDESNB            TC       MAKECADR
002309: 25,2476           55113                           TS       DESRET
002310:
002311: 25,2477           05516                           TC       DOWNFLAG                              #  RESET FLAG TO PREVENT DODES FROM GOING
002312: 25,2500           00041                           ADRES    LOSCMFLG                              #  BACK TO R21
002313: 25,2501           32474                           CA       MAXTRYS                               #  SET TIME LIMIT COUNTER
002314: 25,2502           55114                           TS       DESCOUNT                              #  FOR DESIGNATE
002315: 25,2503           00004                           INHINT                                         #  SEE IF CURRENT MODE OK.
002316: 25,2504           02540                           TC       RRLIMNB                               #  DO SPECIAL V41 LIMIT CHECK
002317: 25,2505           01107                           ADRES    TANG
002318: 25,2506           12523                           TCF      TRYSWN                                #  SEE IF IN OTHER MODE.
002319:
002320: 25,2507           00003        OKDESNB            RELINT
002321: 25,2510           00006                           EXTEND
002322: 25,2511           31110                           DCA      TANG
002323: 25,2512           53753                           DXCH     TANGNB
002324: 25,2513           06037                           TC       INTPRET
002325:
002326: 25,2514           77624                           CALL                                           #  GET LOS IN NB COORDS.
002327: 25,2515           46041                                    RRNB
002328: 25,2516           01102                           STORE    RRTARGET
002329:
002330: 25,2517           77414                           SET      EXIT
002331: 25,2520           00071                                    RRNBSW
002332:
002333: 25,2521           00004                           INHINT
002334: 25,2522           12433                           TCF      STARTDES   +1
002335: 25,2523           02233        TRYSWN             TC       RMODINV                               #  SEE IF OTHER MODE WILL DO.
002336: 25,2524           02540                           TC       RRLIMNB                               #  DO SPECIAL V41 LIMIT CHECK
002337: 25,2525           01107                           ADRES    TANG
002338: 25,2526           12533                           TCF      NODESNB                               #  NOT POSSIBLE.
002339:
002340: 25,2527           02233                           TC       RMODINV
002341: 25,2530           34736                           CAF      REMODBIT                              #  CALL FOR REMODE.
002342: 25,2531           26110                           ADS      RADMODES
002343: 25,2532           12507                           TCF      OKDESNB
002344:
002345: 25,2533           02233        NODESNB            TC       RMODINV                               #  REINVERT MODE BIT.
002346: 25,2534           05567                           TC       ALARM                                 #  BAD INPUT ANGLES.
002347: 25,2535           00502                           OCT      502
002348: 25,2536           06011                           TC       CLRADMOD
002349: 25,2537           05155                           TC       ENDOFJOB                              #  AVOID 503 ALARM.
002350:
002351: 25,2540           50002        RRLIMNB            INDEX    Q                                     #  THIS ROUTINE IS IDENTICAL TO RRLIMCHK
002352: 25,2541           30000                           CAF      0                                     #  EXCEPT THAT THE MODE 1 SHAFT LOWER
002353: 25,2542           24002                           INCR     Q                                     #  LIMIT IS -85 INSTEAD OF -70 DEGREES
002354: 25,2543           00006                           EXTEND


002356: 25,2544           50000                           INDEX    A                                     #  READ GIMBAL ANGLES INTO ITEMP STORAGE
002357: 25,2545           30001                           DCA      0
002358: 25,2546           52062                           DXCH     ITEMP1
002359: 25,2547           22002                           LXCH     Q                                     #  L(CALLER +2) TO L
002360:
002361: 25,2550           34740                           CAF      ANTENBIT                              #  SEE WHICH MODE RR IS IN
002362: 25,2551           70110                           MASK     RADMODES
002363: 25,2552           10000                           CCS      A
002364: 25,2553           14550                           TCF      MODE2CHK                              #  MODE 2 CAN USE RRLIMCHK CODING
002365: 25,2554           30061                           CA       ITEMP1
002366: 25,2555           04512                           TC       MAGSUB                                #  MODE 1 IS DEFINED AS
002367: 25,2556           66161                           DEC      -.30555                               #  1     ABS(T) L 55 DEGS
002368: 25,2557           00001                           TC       L                                     #  2     SHAFT LIMITS AT +59, -85 DEGS
002369:
002370: 25,2560           30062                           CA       ITEMP2                                #  LOAD SHAFT ANGLE
002371: 25,2561           00006                           EXTEND
002372: 25,2562           62570                           BZMF     NEGSHAFT                              #  IF NEGATIVE SHAFT ANGLE, ADD 20.5 DEGS
002373: 25,2563           64562                           AD       5.5DEGS
002374: 25,2564           04512        SHAFTLIM           TC       MAGSUB
002375: 25,2565           64420                           DEC      -.35833                               #  64.5 DEGREES
002376: 25,2566           00001                           TC       L                                     #  NOT IN LIMITS
002377: 25,2567           04560                           TC       RRLIMOK                               #  IN LIMITS
002378: 25,2570           62572        NEGSHAFT           AD       20.5DEGS                              #  MAKE NEGATIVE SHAFT LIMIT -85 DEGREES
002379: 25,2571           12564                           TCF      SHAFTLIM
002380:
002381: 25,2572           03512        20.5DEGS           DEC      .11389
002382:


002384:                                                                                                  #  PROGRAM NAME:  BEGDES
002385:
002386:                                                                                                  #  FUNCTIONAL DESCRIPTION:
002387:
002388:                                                                                                  #        BEGDES CHECKS VARIOUS DESIGNATE REQUESTS AND REQUESTS THE
002389:                                                                                                  #        ACTUAL RR DESIGNATION.  INITIALLY A CHECK IS MADE TO SEE IF A
002390:                                                                                                  #        REMODE (RADMODES BIT 14) IS REQUESTED OR IN PROGRESS.  IF SO,
002391:                                                                                                  #        CONTROL IS TRANFERRED TO STDESIG AFTER ROUTINE REMODE IS
002392:                                                                                                  #        EXECUTED.  IF NO REMODE, STDESIG IS IMMEDIATELY CALLED WHERE
002393:                                                                                                  #        FIRST THE REPOSITION FLAG (RADMODES BIT 11) IS CHECKED.  IF
002394:                                                                                                  #        PRESENT, THE DESIGNATE FLAG (RADMODES BIT 10) IS REMOVED
002395:                                                                                                  #        AFTER WHICH THE PROGRAM EXITS TO RDBADEND.  IF THE REPOSITION
002396:                                                                                                  #        FLAG IS NOT PRESET, THE CONTINUOUS DESIGNATE FLAG (RADMODES
002397:                                                                                                  #        BIT 15) IS CHECKED.  IF PRESENT, AN EXECUTIVE CALL IS IMMEDIATELY
002398:                                                                                                  #        MADE FOR DODES AFTER WHICH A .5 SECOND WAIT IS INITIATED BEFORE
002399:                                                                                                  #        REPEATING AT STDESIG.  IF THE RR SEARCH ROUTINE (LRS24.1) IS DESIGNATING
002400:                                                                                                  #        TO A NEW POINT (NEWPTFLG SET) THE CURRENT DESIGNATE TASK IS TERMINATED.
002401:                                                                                                  #        IF CONTINUOUS DESIGNATE IS NOT WANTED, THE DESIGNATE FLAG (RADMODES
002402:                                                                                                  #        BIT 10) IS CHECKED.  IF NOT PRESENT, THE PROGRAM EXITS TO ENDRADAR TO
002403:                                                                                                  #        CHECK RR CDU FAIL BEFORE RETURNING TO THE CALLING PROGRAM.  IF DESIGNATE
002404:                                                                                                  #        IS STILL REQUIRED, DESCOUNT IS CHECKED TO SEE IF THE 30 SECONDS HAS
002405:                                                                                                  #        EXPIRED BEFORE RECEIVING THE RR DATA GOOD (CHAN 33 BIT 4)
002406:                                                                                                  #        SIGNAL.  IF OUT OF TIME, PROGRAM ALARM 00503 IS REQUESTED, THE
002407:                                                                                                  #        RR AUTO TRACKER ENABLE AND RR ERROR COUNTER ENABLE
002408:                                                                                                  #        (CHAN 12 BITS 14,2) BITS REMOVED, AND THE DESIGNATE FLAG
002409:                                                                                                  #        (RADMODES BIT 10) REMOVED BEFORE EEXITING TO RDBADEND.  IF
002410:                                                                                                  #        TIME HAS NOT EXPIRED, DESCOUNT IS DECREMENTED, THE
002411:                                                                                                  #        EXECUTIVE CALL MADE FOR DODES, AND A .5 SECOND WAIT INITIATED
002412:                                                                                                  #        BEFORE REPEATING THIS PROCEDURE AT STDESIG.
002413:
002414:                                                                                                  #  CALLING SEQUENCE:
002415:
002416:                                                                                                  #        WAITLIST CALL FROM STARTDES
002417:                                                                                                  #        TCF BEGDES FROM DORREPOS
002418:                                                                                                  #        TC STDESIG RETURNING, FROM REMODE
002419:
002420:                                                                                                  #  ERASABLE INITIALIZATION REQUIRED:
002421:
002422:                                                                                                  #        DESCOUNT, FINDVAC
002423:
002424:                                                                                                  #  JOBS OR TASKS INITIATED:  DODES
002425:
002426:                                                                                                  #  ALARMS:  PROGRAM ALARM 00503 (30 SECONDS HAVE EXPIRED) WITH NO RR DATA
002427:                                                                                                  #  GOOD (CHAN 33 BIT 4) RECEIVED WHEN LOCK-ON (STATE BIT 5) WAS REQUESTED.
002428:
002429:                                                                                                  #  EXIT:         TASKOVER (SEARCH PATTERN DESIGNATING TO NEW POINT)
002430:                                                                                                  #                ENDRADAR (NO DESIGNATE -- RADMODES BIT 10)
002431:                                                                                                  #                RDBADEND (REPOSITION OR 30 SECONDS EXPIRED)
002432:
002433: 25,2573           40110        BEGDES             CS       RADMODES


002435: 25,2574           74736                           MASK     REMODBIT
002436: 25,2575           10000                           CCS      A
002437: 25,2576           02602                           TC       STDESIG
002438: 25,2577           02171                           TC       REMODE
002439: 25,2600           05221        DESLOOP            TC       FIXDELAY                              #  2 SAMPLES PER SECOND.
002440: 25,2601           00062                           DEC      50         B-14
002441:
002442: 25,2602           34741        STDESIG            CAF      REPOSBIT
002443: 25,2603           70110                           MASK     RADMODES                              #  SEE IF GIMBAL LIMIT MONITOR HAS FOUND US
002444: 25,2604           10000                           CCS      A                                     #  OUT OF BOUNDS.  IF SO, THIS BIT SHOWS A
002445: 25,2605           12623                           TCF      BADDES                                #  REPOSITION TO BE IN PROGRESS.
002446:
002447: 25,2606           10110                           CCS      RADMODES                              #  SEE IF CONTINUOUS DESIGNATE WANTED.
002448: 25,2607           12612                           TCF      +3                                    #  IF SO, DON'T CHECK BIT 10 TO SEE IF IN
002449: 25,2610           12612                           TCF      +2                                    #  LIMITS BUT GO RIGHT TO FINDVAC ENTRY.
002450: 25,2611           12630                           TCF      MOREDES    +1
002451:
002452: 25,2612           40110                           CS       RADMODES                              #  IF NON-CONTINUOUS, SEE IF END OF
002453: 25,2613           74742                           MASK     DESIGBIT                              #  PROBLEM (DATA GOOD IF LOCK-ON WANTED OR
002454: 25,2614           10000                           CCS      A                                     #  WITHIN LIMITS IF NOT).  IF SO, EXIT AFTER
002455: 25,2615           13546                           TCF      ENDRADAR                              #  CHECKING RR CDU FAIL.
002456:
002457: 25,2616           11114        STDESIG1           CCS      DESCOUNT                              #  SEE IF THE TIME LIMIT HAS EXPIRED
002458: 25,2617           12627                           TCF      MOREDES
002459:
002460: 25,2620           42635                           CS       B14+B2                                #  IF OUT OF TIME, REMOVE ECR ENABLE + TRKR
002461: 25,2621           00006                           EXTEND
002462: 25,2622           03012                           WAND     CHAN12
002463: 25,2623           44742        BADDES             CS       DESIGBIT                              #  REMOVE DESIGNATE FLAG
002464: 25,2624           70110                           MASK     RADMODES
002465: 25,2625           54110                           TS       RADMODES
002466: 25,2626           13562                           TCF      RDBADEND
002467:
002468: 25,2627           55114        MOREDES            TS       DESCOUNT
002469: 25,2630           37714                           CAF      PRIO26                                #  UPDATE GYRO TORQUE COMMANDS.
002470: 25,2631           05105                           TC       FINDVAC
002471: 25,2632  E7,1456                                  EBANK=   LOSCOUNT
002472: 25,2632           02636 52067                     2CADR    DODES
002473:
002474: 25,2634           12600                           TCF      DESLOOP
002475:
002476: 25,2635           20002        B14+B2             OCT      20002
002477:


002479:                                                                                                  #  PROGRAM NAME:  DODES
002480:
002481:                                                                                                  #  FUNCTIONAL DESCRIPTION:
002482:
002483:                                                                                                  #        DODES CALCULATES AND REQUESTS ISSUANCE OF RR GYRO TORQUE
002484:                                                                                                  #        COMMANDS.  INITIALLY THE CURRENT RR CDU ANGLES ARE STORED AND
002485:                                                                                                  #        THE LOS HALF-UNIT VECTOR TRANSFORMED FROM STABLE MEMBER TO
002486:                                                                                                  #        NAVIGATION BASE COORDINATES VIA SMNB IF NECESSARY.  THE
002487:                                                                                                  #        SHAFT AND TRUNNION COMMANDS ARE THEN CALCULATED AS FOLLOWS:
002488:                                                                                                  #                + SHAFT = LOS . (COS(S), 0, -SIN(S))  (DOT PRODUCT)
002489:                                                                                                  #                - TRUNNION = LOS . (SIN(T)SIN(S), COS(T), SIN(T)COS(S))
002490:                                                                                                  #        THE SIGN OF THE SHAFT COMMAND IS THEN REVERSED IF IN MODE 2
002491:                                                                                                  #        (RADMODES BIT 12) BECAUSE A RELAY IN THE RR REVERSES THE
002492:                                                                                                  #        POLARITY OF THE COMMAND.  AT RRSCALUP EACH COMMAND IS
002493:                                                                                                  #        SCALED AND IF EITHER, OR BOTH, OF THE COMMANDS IS GREATER THAN
002494:                                                                                                  #        .5 DEGREES, MPAC +1 IS SET POSITIVE.  IF A CONTINUOUS DESIGNATE
002495:                                                                                                  #        (RADMODES BIT 15) IS DESIRED AND THE SEARCH ROUTINE IS NOT OPERATING,
002496:                                                                                                  #        THE RR AUTO TRACKER ENABLE BIT (CHAN 12 BIT 14) IS CLEARED AND RROUT
002497:                                                                                                  #        CALLED TO PUT OUT THE COMMANDS PROVIDED NO REPOSITION (RADMODES BIT 11)
002498:                                                                                                  #        IS IN PROGRESS.  IF A CONTINUOUS DESIGNATE AND THE SEARCH ROUTINE IS
002499:                                                                                                  #        OPERATING (SRCHOPT FLAT SET) THE TRACK ENABLE IS NOT CLEARED.  IF NO
002500:                                                                                                  #        CONTINUOUS DESIGNATE AND BOTH COMMANDS ARE NOT LESS THAN .5 DEGREES AS
002501:                                                                                                  #        INDICATED BY MPAC +1, THE RR AUTO TRACKER ENABLE BIT (CHAN 12 BIT 14) IS
002502:                                                                                                  #        CLEARED AND RROUT CALLED TO PUT OUT THE COMMANDS PROVIDED NO REPOSITON
002503:                                                                                                  #        (RADMODES BIT 11) IS IN PROGRESS.  IF BOTH COMMANDS ARE LESS THAN .5
002504:                                                                                                  #        DEGREES AS INDICATED BY MPAC+1, THE RR AUTO TRACKER ENABLE BIT
002505:                                                                                                  #        (CHAN 12 BIT 14) IS CLEARED AND RROUT CALLED TO PUT OUT THE
002506:                                                                                                  #        COMMANDS PROVIDED NO REPOSITION (RADMODES BIT 11) IS IN
002507:                                                                                                  #        PROGRESS.  IF BOTH COMMANDS ARE LESS THAN .5 DEGREES, THE
002508:                                                                                                  #        LOCK-ON FLAG (STATE BIT 5) IS CHECKED.  IF NOT PRESETN, THE
002509:                                                                                                  #        DESIGNATE FLAG (RADMODES BIT 10) IS CLEARED, AND ENDOFJOB
002510:                                                                                                  #        CALLED.  IF LOCK-ON IS DESIRED, THE RR AUTO TRACKER (CHAN 12
002511:                                                                                                  #        BIT 14) IS ENABLED FOLLOWED BY A CHECK OF THE RECEIPT OF THE
002512:                                                                                                  #        RR DATA GOOD (CHAN 33 BIT 4) SIGNAL.  IF RR DATA GOOD
002513:                                                                                                  #        PRESENT, THE DESIGNATE FLAG (RADMODES BIT 10) IS CLEARED,
002514:                                                                                                  #        THE RR ERROR COUNTER ENABLE BIT (CHAN 12 BIT 2) IS CLEARED,
002515:                                                                                                  #        AND ENDOFJOB CALLED.  IF RR DATA GOOD IS NOT PRESENT, RROUT
002516:                                                                                                  #        IS CALLED TO PUT OUT THE COMMANDS PROVIDED NO REPOSITION
002517:                                                                                                  #        (RADMODES BIT 11) IS IN PROGRESS AFTER WHICH THE JOB IS TERMINATED
002518:                                                                                                  #        VIA ENDOFJOB.
002519:
002520:                                                                                                  #  CALLING SEQUENCE:
002521:
002522:                                                                                                  #        EXECUTIVE CALL EVERY .5 SECONDS FROM BEGDES.
002523:
002524:                                                                                                  #  ERASABLE INITIALIZATION REQUIRED:
002525:
002526:                                                                                                  #        RRTARGET (HALF-UNIT LOS VECTOR IN EITHER SM OR NB COORDINATES),
002527:                                                                                                  #        LOKONSW (STATE BIT 5), RRNBSW (STATE BIT 6), RADMODES
002528:
002529:                                                                                                  #  SUBROUTINES CALLED:
002530:
002531:                                                                                                  #        READCDUS, SMNB, CDULOGIC, MAGSUB, RROUT


002533:
002534:                                                                                                  #  JOBS OR TASKS INITIATED:
002535:
002536:                                                                                                  #        NONE
002537:
002538:                                                                                                  #  ALARMS:  NONE
002539:
002540:                                                                                                  #  EXIT:  ENDOFJOB (ALWAYS)
002541:
002542: 25,2636           00006        DODES              EXTEND
002543: 25,2637           30036                           DCA      CDUT
002544: 25,2640           53110                           DXCH     TANG
002545:
002546: 25,2641           06037                           TC       INTPRET
002547:
002548: 25,2642           77201                           SETPD    VLOAD
002549: 25,2643           00001                                    0
002550: 25,2644           01102                                    RRTARGET
002551: 25,2645           74214                           BON      VXSC
002552: 25,2646           00311                                    RRNBSW
002553: 25,2647           52661                                    DONBRD                                #  TARGET IN NAV-BASE COORDINATES
002554: 25,2650           01767                                    MLOSV                                 #  MULTIPLY UNIT LOS BY MAGNITUDE
002555: 25,2651           63372                           VSL1     PDVL
002556: 25,2652           01761                                    LOSVEL
002557: 25,2653           53361                           VXSC     VAD                                   #  ADD ONE SECOND RELATIVE VELOCITY TO LOS
002558: 25,2654           13072                                    MCTOMS
002559: 25,2655           45056                           UNIT     CALL
002560: 25,2656           47537                                    CDUTRIG
002561: 25,2657           77624                           CALL
002562: 25,2660           47671                                    *SMNB*
002563:
002564: 25,2661           14041        DONBRD             STODL    32D
002565: 25,2662           01111                                    TANG       +1
002566: 25,2663           41434                           RTB      PUSH                                  #  SHAFT COMMAND = V(32D).(COS(S), 0,
002567: 25,2664           21576                                    CDULOGIC                              #        -SIN(S)).
002568: 25,2665           65356                           SIN      PDDL                                  #  SIN(S) TO 0 AND COS(S) TO 2.
002569: 25,2666           41546                           COS      PUSH
002570: 25,2667           65205                           DMP      PDDL
002571: 25,2670           00041                                    32D
002572: 25,2671           00045                                    36D
002573: 25,2672           44205                           DMP      BDSU
002574: 25,2673           00001                                    0
002575: 25,2674           77626                           STADR
002576: 25,2675           76666                           STORE    TANG       +1                         #  SHAFT COMMAND
002577:
002578: 25,2676           47135                           SLOAD    RTB
002579: 25,2677           01110                                    TANG
002580: 25,2700           21576                                    CDULOGIC
002581: 25,2701           71406                           PUSH     COS                                   #  COS(T) TO 4.
002582: 25,2702           73525                           PDDL     SIN
002583: 25,2703           41206                           PUSH     DMP                                   #  SIN(T) TO 6.
002584: 25,2704           00003                                    2


002586: 25,2705           65352                           SL1      PDDL                                  #  DEFINE VECTOR U =     [SIN(T)SIN(S)]
002587: 25,2706           00005                                    4                                     #                        [   COS(T)   ]
002588: 25,2707           41325                           PDDL     DMP                                   #                        [SIN(T)COS(S)]
002589: 25,2710           00007                                    6
002590: 25,2711           00001                                    0
002591: 25,2712           55552                           SL1      VDEF
002592: 25,2713           77441                           DOT      EXIT                                  #  DOT U WITH LOS TO GET TRUNNION COMMAND.
002593: 25,2714           00041                                    32D
002594:


002596:                                                                                                  #  AT THIS POINT WE HAVE A ROTATION VECTOR IN DISH AXES LYING IN THE TS PLANE.  CONVERT THIS TO A
002597:                                                                                                  #  COMMANDED RATE AND ENABLE THE TRACKER IF WE ARE WITHIN .5 DEGREES OF THE TARGET.
002598:
002599: 25,2715           40154                           CS       MPAC                                  #  DOT WAS NEGATIVE OF DESREG ANGLE.
002600: 25,2716           00006                           EXTEND
002601: 25,2717           73066                           MP       RDESGAIN                              #  SCALING ON INPUT ANGLE WAS 4 RADIANS.
002602: 25,2720           55107                           TS       TANG                                  #  TRUNNION COMMAND.
002603: 25,2721           40110                           CS       RADMODES                              #  A RELAY IN THE RR REVERSES POLARITY OF
002604: 25,2722           74740                           MASK     BIT12                                 #  THE SHAFT COMMANDS IN MODE 2 SO THAT A
002605: 25,2723           00006                           EXTEND                                         #  POSITIVE TORQUE APPLIED TO THE SHAFT
002606: 25,2724           12727                           BZF      +3                                    #  GYRO CAUSES A POSITIVE CHANGE IN THE
002607: 25,2725           31110                           CA       TANG       +1                         #  SHAFT ANGLE.  COMPENSATE FOR THIS SWITCH
002608: 25,2726           12730                           TCF      +2                                    #  BY CHANGING THE POLARITY OF OUR COMMAND.
002609: 25,2727           41110                 +3        CS       TANG       +1
002610: 25,2730           00006                           EXTEND
002611: 25,2731           73066                           MP       RDESGAIN                              #  SCALING ON INPUT ANGLE WAS 4 RADIANS.
002612: 25,2732           55110                           TS       TANG       +1                         #  SHAFT COMMAND FOR RROUT
002613: 25,2733           06037                           TC       INTPRET
002614:
002615: 25,2734           41345                           DLOAD    DMP
002616: 25,2735           00003                                    2                                     #  COS(S).
002617: 25,2736           00005                                    4                                     #  COS(T).
002618: 25,2737           65352                           SL1      PDDL                                  #  Z COMPONENT OF URR.
002619: 25,2740           65276                           DCOMP    PDDL                                  #  Y COMPONENT = -SIN(T)
002620: 25,2741           00001                                    0                                     #  SIN(S).
002621: 25,2742           72405                           DMP      SL1
002622: 25,2743           00005                                    4                                     #  COS(T).
002623: 25,2744           43066                           VDEF     BON                                   #  FORM URR IN NB AXES.
002624: 25,2745           00311                                    RRNBSW                                #  BYPASS NBSM CONVERSION IN VERB 41
002625: 25,2746           52751                                    +3
002626: 25,2747           77624                           CALL
002627: 25,2750           47673                                    *NBSM*                                #  GET URR IN SM AXES.
002628: 25,2751           77441                           DOT      EXIT
002629: 25,2752           01102                                    RRTARGET                              #  GET COSIN OF ANGLE BETWEEN RR AND LOS
002630:
002631: 25,2753           00006                           EXTEND
002632: 25,2754           43070                           DCS      COS1/2DG
002633: 25,2755           20155                           DAS      MPAC                                  #  DIFFERENCE OF COSINES, SCALED B-2.
002634: 25,2756           10154                           CCS      MPAC
002635: 25,2757           34755                           CA       ZERO                                  #  IF COS ERROR BIGGER, ERROR IS SMALLER
002636: 25,2760           12762                           TCF      +2
002637: 25,2761           34753                           CA       ONE
002638: 25,2762           54155                           TS       MPAC       +1                         #  ZERO IF RR IS POINTED OK, ONE IF NOT.


002640:                                                                                                  #  SEE IF TRACKER SHOULD BE ENABLED OR DISABLED.
002641:
002642: 25,2763           10110                           CCS      RADMODES                              #  IF CONTINUOUS DESIGNATE WANTED, PUT OUT
002643: 25,2764           12767                           TCF      SIGNLCHK                              #  COMMANDS WITHOUT CHECKING MAGNITUDE OF
002644: 25,2765           12767                           TCF      SIGNLCHK                              #  ERROR SIGNALS
002645: 25,2766           13017                           TCF      DORROUT
002646: 25,2767           10155        SIGNLCHK           CCS      MPAC       +1                         #  SEE IF BOTH AXES WERE WITHIN .5 DEGS.
002647: 25,2770           13000                           TCF      DGOODCHK
002648: 25,2771           40074                           CS       STATE                                 #  IF WITHIN LIMITS AND NO LOCK-ON WANTED,
002649: 25,2772           74747                           MASK     LOKONBIT                              #  PROBLEM IS FINISHED.
002650: 25,2773           10000                           CCS      A
002651: 25,2774           13005                           TCF      RRDESDUN
002652:
002653: 25,2775           34736                           CAF      BIT14                                 #  ENABLE THE TRACKER
002654: 25,2776           00006                           EXTEND
002655: 25,2777           05012                           WOR      CHAN12
002656:
002657: 25,3000           34750        DGOODCHK           CAF      BIT4                                  #  SEE IF DATA GOOD RECEIVED YET
002658: 25,3001           00006                           EXTEND
002659: 25,3002           02033                           RAND     CHAN33
002660: 25,3003           10000                           CCS      A
002661: 25,3004           13017                           TCF      DORROUT
002662:
002663: 25,3005           44742        RRDESDUN           CS       BIT10                                 #  WHEN PROBLEM DONE, REMOVE BIT 10 SO NEXT
002664: 25,3006           70110                           MASK     RADMODES                              #  WAITLIST TASK WE WILL GO TO RGOODEND.
002665: 25,3007           00004                           INHINT
002666: 25,3010           54110                           TS       RADMODES
002667:
002668: 25,3011           05516                           TC       DOWNFLAG                              #  RESET LOSCMFLG TO PREENT A
002669: 25,3012           00041                           ADRES    LOSCMFLG                              #  RECOMPUTATION OF LOS AFTER DATA GOOD
002670: 25,3013           44752                           CS       BIT2                                  #  TURN OFF ENABLE RR ERROR COUNTER
002671: 25,3014           00006                           EXTEND
002672: 25,3015           03012                           WAND     CHAN12
002673: 25,3016           15155                           TCF      ENDOFJOB                              #  WITH ECTR DISABLED.
002674:
002675: 25,3017           30076        DORROUT            CA       FLAGWRD2                              #  IF BOTH LOSCMFLAG AND SEARCH FLAG ARE
002676: 25,3020           77712                           MASK     BIT12,14                              #  ZERO, BYPASS VELOCITY ADJUSTMENT TO LOS
002677: 25,3021           00006                           EXTEND
002678: 25,3022           13041                           BZF      NOTP20
002679: 25,3023           06037                           TC       INTPRET
002680: 25,3024           74375                           VLOAD    VXSC                                  #  MULTIPLY UNIT LOS BY MAGNITUDE
002681: 25,3025           01102                                    RRTARGET
002682: 25,3026           01767                                    MLOSV
002683: 25,3027           41572                           VSL1     PUSH
002684: 25,3030           74375                           VLOAD    VXSC                                  #  ADD .5 SEC. OF VELOCITY
002685: 25,3031           01761                                    LOSVEL                                #  TO LOS VECTOR
002686: 25,3032           13072                                    MCTOMS
002687: 25,3033           53362                           VSR1     VAD
002688: 25,3034           77656                           UNIT
002689: 25,3035           15102                           STODL    RRTARGET                              #  STORE VELOCITY-CORRECTED LOS (UNIT)


002691: 25,3036           00045                                    36D
002692: 25,3037           01767                           STORE    MLOSV                                 #  AND STORE MAGNITUDE
002693: 25,3040           77776                           EXIT
002694: 25,3041           00004        NOTP20             INHINT
002695: 25,3042           40110                           CS       RADMODES                              #  PUT OUT COMMAND UNLESS MONITOR
002696: 25,3043           74741                           MASK     REPOSBIT                              #  REPOSITION HAS TAKEN OVER
002697: 25,3044           10000                           CCS      A
002698: 25,3045           02306                           TC       RROUT
002699:
002700: 25,3046           30076                           CA       FLAGWRD2
002701: 25,3047           74740                           MASK     LOSCMBIT                              #  IF LOSCMFLG NOT SET, DON'T TEST
002702: 25,3050           00006                           EXTEND                                         #  LOS COUNTER
002703: 25,3051           15155                           BZF      ENDOFJOB
002704: 25,3052           11456                           CCS      LOSCOUNT                              #  TEST LOS COUNTER TO SEE IF TIME TO GET
002705: 25,3053           03064                           TC       DODESEND                              #  A NEW LOS
002706: 25,3054           00004                           INHINT
002707: 25,3055           06027                           TC       KILLTASK                              #  YES -- KILL TASK WHICH SCHEDULES DODES
002708: 25,3056           52602                           CADR     DESLOOP    +2
002709: 25,3057           00003                           RELINT
002710: 25,3060           10067                           CCS      NEWJOB
002711: 25,3061           05122                           TC       CHANG1
002712: 25,3062           04616                           TC       BANKCALL
002713: 25,3063           50731                           CADR     R21LEM2
002714:
002715: 25,3064           55456        DODESEND           TS       LOSCOUNT
002716: 25,3065           05155                           TC       ENDOFJOB
002717:
002718: 25,3066           21122        RDESGAIN           DEC      .53624                                #  TRIES TO NULL .5 ERROR IN .5 SEC.
002719: 25,3067     7712               BIT12,14           EQUALS   PRIO24                                #  OCT 24000
002720: 25,3067           07777 33005  COS1/2DG           2DEC     .999961923 B-2                        #  COSINE OF 0.5 DEGREES.
002721: 25,3071           00310 00000  MCTOMS             2DEC     100        B-13
002722:


002724:                                                                                                  #  RADAR READ INITIALIZATION
002725:
002726:                                                                                                  #  RADAR DATA READ BY A BANKCALL FOR THE APPROPRIATE LEAD-IN BELOW.
002727:
002728: 25,3073           03113        LRALT              TC       INITREAD   -1                         #  ONE SAMPLE PER READING.
002729: 25,3074           00017        ALLREAD            OCT      17
002730:
002731: 25,3075           03114        LRVELZ             TC       INITREAD
002732: 25,3076           00016                           OCT      16
002733:
002734: 25,3077           03114        LRVELY             TC       INITREAD
002735: 25,3100           00015                           OCT      15
002736:
002737: 25,3101           03114        LRVELX             TC       INITREAD
002738: 25,3102           00014                           OCT      14
002739:
002740: 25,3103           03113        RRRDOT             TC       INITREAD   -1
002741: 25,3104           00012                           OCT      12
002742:
002743: 25,3105           03113        RRRANGE            TC       INITREAD   -1
002744: 25,3106           00011                           OCT      11
002745:
002746:                                                                                                  #  LRVEL IS THE ENTRY TO THE LR VELOCITY READ ROUTINE WHEN 5 SAMPLES ARE
002747:                                                                                                  #  WANTED.  ENTER WITH C(A)= 0,2,4 FOR LRVELZ,LRVELY,LRVELX RESP.
002748:
002749: 25,3107           55105        LRVEL              TS       TIMEHOLD                              #  STORE VBEAM INDEX HERE MOMENTARILY
002750: 25,3110           34756                           CAF      FIVE                                  #  SPECIFY FIVE SAMPLES
002751: 25,3111           51105                           INDEX    TIMEHOLD
002752: 25,3112           13075                           TCF      LRVELZ
002753:


002755: 25,3113           34753                 -1        CAF      ONE                                   #  ENTRY TO TAKE ONLY 1 SAMPLE
002756: 25,3114           00004        INITREAD           INHINT
002757:
002758: 25,3115           55105                           TS       TIMEHOLD                              #  GET DT OF MIDPOINT OF NOMINAL SAMPLING
002759: 25,3116           00006                           EXTEND                                         #  INTERVAL (ASSUMES NO BAD SAMPLES WILL BE
002760: 25,3117           74751                           MP       BIT3                                  #  ENCOUNTERED).
002761: 25,3120           53106                           DXCH     TIMEHOLD
002762:
002763: 25,3121           10000                           CCS      A
002764: 25,3122           55111                           TS       NSAMP
002765: 25,3123           64753                           AD       ONE
002766:                                                                                                  #  INSERT FOLLOWING INSTRUCTION TO GET 2N TRIES FOR N SAMPLES.
002767:                                                                                                  #                DOUBLE
002768: 25,3124           55100                           TS       SAMPLIM
002769:
002770: 25,3125           33147                           CAF      DGBITS                                #  READ CURRENT VALUE OF DATA GOOD BITS.
002771: 25,3126           00006                           EXTEND
002772: 25,3127           02033                           RAND     CHAN33
002773: 25,3130           55113                           TS       OLDATAGD
002774:
002775: 25,3131           43074                           CS       ALLREAD
002776: 25,3132           00006                           EXTEND
002777: 25,3133           03013                           WAND     CHAN13                                #  REMOVE ALL RADAR BITS
002778:
002779: 25,3134           50002                           INDEX    Q
002780: 25,3135           30000                           CAF      0
002781: 25,3136           00006                           EXTEND
002782: 25,3137           05013                           WOR      CHAN13                                #  SET NEW RADAR BITS
002783:
002784: 25,3140           00006                           EXTEND
002785: 25,3141           30025                           DCA      TIME2
002786: 25,3142           21106                           DAS      TIMEHOLD                              #  TIME OF NOMINAL MIDPOINT
002787:
002788: 25,3143           34755                           CAF      ZERO
002789: 25,3144           54001                           TS       L
002790: 25,3145           53102                           DXCH     SAMPLSUM
002791: 25,3146           12366                           TCF      ROADBACK
002792:
002793: 25,3147           00230        DGBITS             OCT      230
002794:


002796:                                                                                                  #  RADAR RUPT READER
002797:
002798:                                                                                                  #  THIS ROUTINE STARTS FROM A RADARUPT.  IT READS THE DATA & LOTS MORE.
002799:
002800: 25,2000                                           SETLOC   RADARUPT
002801: 25,2000                                           BANK
002802:
002803: 25,3150                                           COUNT*   $$/RRUPT
002804: 25,3150           00006        RADAREAD           EXTEND                                         #  MUST SAVE SBANK BECAUSE OF RUPT EXITS
002805: 25,3151           04007                           ROR      SUPERBNK                              #  VIA TASKOVER (BADEND OR GOODEND).
002806: 25,3152           54016                           TS       BANKRUPT
002807: 25,3153           00006                           EXTEND
002808: 25,3154           22012                           QXCH     QRUPT
002809:
002810: 25,3155           34757                           CAF      SEVEN
002811: 25,3156           00006                           EXTEND
002812: 25,3157           02013                           RAND     CHAN13
002813: 25,3160           55335                           TS       DNINDEX
002814: 25,3161           00006                           EXTEND                                         #  IF RADAR SELECT BITS ZERO, DO NOT STORE
002815: 25,3162           13166                           BZF      TRYCOUNT                              #  DATA FOR DOWNLIST (ERASABLE PROBLEMS)
002816: 25,3163           30046                           CA       RNRAD
002817: 25,3164           51335                           INDEX    DNINDEX
002818: 25,3165           55332                           TS       DNRRANGE   -1
002819: 25,3166           11100        TRYCOUNT           CCS      SAMPLIM
002820: 25,3167           13211                           TCF      PLENTY
002821: 25,3170           13174                           TCF      NOMORE
002822: 25,3171           05567                           TC       ALARM
002823: 25,3172           00520                           OCT      520
002824: 25,3173           05270                           TC       RESUME
002825:
002826: 25,3174           30107        NOMORE             CA       FLGWRD11                              #  IS LRBYPASS SET?
002827: 25,3175           74735                           MASK     LRBYBIT
002828: 25,3176           00006                           EXTEND
002829: 25,3177           13206                           BZF      BADRAD                                #  NO.  R12 IS ON -- BYPASS 521 ALARM.
002830:
002831: 25,3200           40077                           CS       FLAGWRD3                              #  CHECK R04FLAG.
002832: 25,3201           74743                           MASK     R04FLBIT                              #  IF 1, R04 IS RUNNING.  DO NOT ALARM
002833: 25,3202           00006                           EXTEND
002834: 25,3203           13206                           BZF      BADRAD
002835:
002836: 25,3204           05567                           TC       ALARM                                 #  P20 WANTS THE ALARM.
002837: 25,3205           00521                           OCT      521
002838: 25,3206           44753        BADRAD             CS       ONE
002839: 25,3207           55100                           TS       SAMPLIM
002840: 25,3210           03560                           TC       RDBADEND   -2
002841: 25,3211           55100        PLENTY             TS       SAMPLIM
002842: 25,3212           34751                           CAF      BIT3
002843: 25,3213           00006                           EXTEND
002844: 25,3214           02013                           RAND     CHAN13                                #  TO FIND OUT WHICH RADAR
002845: 25,3215           00006                           EXTEND


002847: 25,3216           13276                           BZF      RENDRAD
002848:
002849: 25,3217           03364                           TC       R77CHECK                              #  R77 QUITS HERE.
002850: 25,3220           30110        LRPOSCHK           CA       RADMODES                              #  SEE IF LR IN DESIRED POSITION
002851: 25,3221           00006                           EXTEND
002852: 25,3222           06033                           RXOR     CHAN33
002853: 25,3223           74746                           MASK     BIT6
002854: 25,3224           00006                           EXTEND
002855: 25,3225           13231                           BZF      VELCHK
002856:
002857: 25,3226           05567                           TC       ALARM
002858: 25,3227           00522                           OCT      522
002859: 25,3230           03206                           TC       BADRAD
002860:
002861: 25,3231           36245        VELCHK             CAF      BIN3                                  #  = 00003 OCT
002862: 25,3232           00006                           EXTEND
002863: 25,3233           06013                           RXOR     CHAN13                                #  RESET ACTIVITY BIT
002864: 25,3234           76245                           MASK     BIN3
002865: 25,3235           00006                           EXTEND
002866: 25,3236           13272                           BZF      LRHEIGHT                              #  TAKE A LR RANGE READING
002867:
002868: 25,3237           34733                           CAF      POSMAX
002869: 25,3240           70046                           MASK     RNRAD
002870: 25,3241           62000                           AD       LVELBIAS
002871: 25,3242           54001                           TS       L
002872: 25,3243           30046                           CAE      RNRAD
002873: 25,3244           60000                           DOUBLE
002874: 25,3245           74753                           MASK     BIT1
002875: 25,3246           52064                           DXCH     ITEMP3
002876:
002877: 25,3247           34744                           CAF      BIT8                                  #  DATA GOOD ISN'T CHECKED UNTIL AFTER READ-
002878: 25,3250           03442                           TC       DGCHECK                               #  ING DATA SO SOME RADAR TESTS WILL WORK
002879:                                                                                                  #  INDEPENDENT OF DATA GOOD.
002880:
002881: 25,3251           11111                           CCS      NSAMP
002882: 25,3252           03262                           TC       NOEND
002883: 25,3253           44753        GOODRAD            CS       ONE
002884: 25,3254           55100                           TS       SAMPLIM
002885: 25,3255           40061                           CS       ITEMP1                                #  WHEN ENOUGH GOOD DATA HAS BEEN GATHERED,
002886: 25,3256           70110                           MASK     RADMODES                              #  RESET DATA FAIL FLAGS FOR SETTRKF.
002887: 25,3257           54110                           TS       RADMODES
002888: 25,3260           03616                           TC       RADLITES                              #  LAMPS MAY GO OFF IF DATA JUST GOOD.
002889: 25,3261           03553                           TC       RGOODEND   -2
002890:
002891: 25,3262           55111        NOEND              TS       NSAMP
002892: 25,3263           11100        RESAMPLE           CCS      SAMPLIM                               #  SEE IF ANY MORE TRIES SHOULD BE MADE.
002893: 25,3264           13266                           TCF      +2
002894: 25,3265           13461                           TCF      DATAFAIL                              #  N SAMPLES NOT AVAILABLE.
002895: 25,3266           34750                           CAF      BIT4                                  #  RESET ACTIVITY BIT.
002896: 25,3267           00006                           EXTEND


002898: 25,3270           05013                           WOR      CHAN13                                #  RESET ACTIVITY BIT
002899: 25,3271           05270                           TC       RESUME
002900:
002901:
002902: 25,3272           34747        LRHEIGHT           CAF      BIT5
002903: 25,3273           54061                           TS       ITEMP1                                #  (POSITION OF DATA GOOD BIT IN CHAN 33)
002904:
002905: 25,3274           34743                           CAF      BIT9
002906: 25,3275           03320                           TC       SCALECHK   -1
002907:
002908: 25,3276           34741        RENDRAD            CAF      REPOSBIT                              #  MAKE SURE ANTENNA HAS NOT GONE OUT OF
002909: 25,3277           70110                           MASK     RADMODES                              #  LIMITS.
002910: 25,3300           10000                           CCS      A
002911: 25,3301           13206                           TCF      BADRAD
002912:
002913: 25,3302           40110                           CS       RADMODES                              #  BE SURE RR CDU HASN'T FAILED.
002914: 25,3303           74745                           MASK     RCDUFBIT
002915: 25,3304           10000                           CCS      A
002916: 25,3305           13206                           TCF      BADRAD
002917:
002918: 25,3306           34750                           CAF      BIT4                                  #  SEE IF DATA HAS BEEN GOOD.
002919: 25,3307           54061                           TS       ITEMP1                                #  (POSITION OF DATA GOOD BIT IN CHAN 33)
002920:
002921: 25,3310           34753                           CAF      BIT1                                  #  SEE IF RR RDOT.
002922: 25,3311           00006                           EXTEND
002923: 25,3312           02013                           RAND     CHAN13
002924: 25,3313           54002                           TS       Q                                     #  FOR LATER TESTING.
002925: 25,3314           10000                           CCS      A
002926: 25,3315           13317                           TCF      +2
002927: 25,3316           13331                           TCF      RADIN                                 #  NO SCALE CHECK FOR RR RDOT.
002928: 25,3317           34751                           CAF      BIT3
002929: 25,3320           54001                           TS       L
002930:
002931: 25,3321           00006        SCALECHK           EXTEND
002932: 25,3322           02033                           RAND     CHAN33                                #  SCALE STATUS NOW
002933: 25,3323           56001                           XCH      L
002934: 25,3324           70110                           MASK     RADMODES                              #  SCALE STATUS BEFORE
002935: 25,3325           00006                           EXTEND
002936: 25,3326           06001                           RXOR     LCHAN                                 #  SEE IF THEY DIFFER
002937: 25,3327           10000                           CCS      A
002938: 25,3330           03350                           TC       SCALCHNG                              #  THEY DIFFER.
002939:
002940: 25,3331           34733        RADIN              CAF      POSMAX
002941: 25,3332           70046                           MASK     RNRAD
002942: 25,3333           54064                           TS       ITEMP4
002943:
002944: 25,3334           30046                           CAE      RNRAD
002945: 25,3335           60000                           DOUBLE
002946: 25,3336           74753                           MASK     BIT1
002947: 25,3337           54063                           TS       ITEMP3


002949: 25,3340           10002                           CCS      Q                                     #  SEE IF RR RDOT.
002950: 25,3341           13402                           TCF      SCALADJ                               #  NO, BUT SCALE CHANGING MAY BE NEEDED.
002951:
002952: 25,3342           00006                           EXTEND                                         #  IF RR RANGE RATE, THROW OUT BIAS
002953: 25,3343           42002                           DCS      RDOTBIAS
002954: 25,3344           20064        DASAMPL            DAS      ITEMP3
002955: 25,3345           30061        DGCHECK2           CA       ITEMP1                                #  SEE THAT DATA HAS BEEN GOOD BEFORE AND
002956: 25,3346           03443                           TC       DGCHECK    +1                         #  AFTER TAKING SAMPLE.
002957: 25,3347           03253                           TC       GOODRAD
002958:
002959: 25,3350           22110        SCALCHNG           LXCH     RADMODES
002960: 25,3351           64753                           AD       BIT1
002961: 25,3352           00006                           EXTEND
002962: 25,3353           06001                           RXOR     LCHAN
002963: 25,3354           54110                           TS       RADMODES
002964: 25,3355           33147                           CAF      DGBITS                                #  UPDATE LAST VALUE OF DATA GOOD BITS.
002965: 25,3356           00006                           EXTEND
002966: 25,3357           02033                           RAND     CHAN33
002967: 25,3360           55113                           TS       OLDATAGD
002968: 25,3361           05504                           TC       UPFLAG                                #  SET RNGSCFLG
002969: 25,3362           00120                           ADRES    RNGSCFLG                              #  FOR LRS24.1
002970: 25,3363           13206                           TCF      BADRAD
002971:
002972:                                                                                                  #  R77 MUST IGNORE DATA FAILS SO AS NOT TO DISTURB THE ASTRONAUT.
002973:
002974: 25,3364           40101        R77CHECK           CS       FLAGWRD5
002975: 25,3365           74741                           MASK     R77FLBIT
002976: 25,3366           10000                           CCS      A
002977: 25,3367           00002                           TC       Q                                     #  NOT R77
002978: 25,3370           43401                           CS       BITS5,8                               #  UPDATE LR DATA GOOD BITS IN RADMODES
002979: 25,3371           70110                           MASK     RADMODES
002980: 25,3372           54001                           TS       L
002981: 25,3373           33401                           CA       BITS5,8
002982: 25,3374           00006                           EXTEND
002983: 25,3375           02033                           RAND     CHAN33
002984: 25,3376           60001                           AD       L
002985: 25,3377           54110                           TS       RADMODES
002986: 25,3400           03553                           TC       RGOODEND   -2
002987: 25,3401           00220        BITS5,8            OCT      220
002988:


002990:                                                                                                  #  THE FOLLOWING ROUTINE INCORPORATES RR RANGE AND LR ALT SCALE INFORMATION AND LEAVES DATA AT LO SCALE.
002991:
002992: 25,3402           10001        SCALADJ            CCS      L                                     #  L HAS SCALE INBIT FOR THIS RADAR.
002993: 25,3403           13405                           TCF      +2                                    #  ON HIGH SCALE.
002994: 25,3404           13345                           TCF      DGCHECK2
002995:
002996: 25,3405           31335                           CA       DNINDEX
002997: 25,3406           74751                           MASK     BIT3
002998: 25,3407           10000                           CCS      A
002999: 25,3410           13417                           TCF      LRSCK
003000:
003001: 25,3411           52064                           DXCH     ITEMP3
003002: 25,3412           20001                           DDOUBL
003003: 25,3413           20001                           DDOUBL
003004: 25,3414           20001                           DDOUBL
003005: 25,3415           52064                           DXCH     ITEMP3
003006:
003007: 25,3416           13345                           TCF      DGCHECK2
003008:
003009: 25,3417           10063        LRSCK              CCS      ITEMP3
003010: 25,3420           13431                           TCF      +11
003011: 25,3421           40064                           CS       ITEMP4
003012: 25,3422           63441                           AD       HISCALIM
003013: 25,3423           00006                           EXTEND
003014: 25,3424           63431                           BZMF     +5
003015:
003016: 25,3425           40107                           CS       FLGWRD11
003017: 25,3426           74751                           MASK     SCABBIT
003018: 25,3427           26107                           ADS      FLGWRD11
003019: 25,3430           13434                           TCF      +4
003020:
003021: 25,3431           44751                           CS       SCABBIT
003022: 25,3432           70107                           MASK     FLGWRD11
003023: 25,3433           54107                           TS       FLGWRD11
003024:
003025: 25,3434           00006                           EXTEND
003026: 25,3435           30064                           DCA      ITEMP3
003027: 25,3436           20001                           DDOUBL
003028: 25,3437           20001                           DDOUBL
003029: 25,3440           13344                           TCF      DASAMPL
003030:
003031: 25,3441           00714        HISCALIM           DEC      460        B-14                       #  2481.7 FT ******************************


003033: 25,3442           54061        DGCHECK            TS       ITEMP1                                #  UPDATE DATA GOOD BIT IN OLDATAGD AND
003034: 25,3443           00006                           EXTEND                                         #  MAKE SURE IT WAS ON BEFORE AND AFTER THE
003035: 25,3444           02033                           RAND     CHAN33                                #  SAMPLE WAS TAKEN BEFORE RETURNING.  IF
003036: 25,3445           54001                           TS       L                                     #  NOT, GOES TO RESAMPLE TO TRY AGAIN.  IF
003037: 25,3446           40061                           CS       ITEMP1                                #  MAX NUMBER OF TRIES HAS BEEN REACHED,
003038: 25,3447           71113                           MASK     OLDATAGD                              #  THE BIT CORRESPONDING TO THE DATA GOOD
003039: 25,3450           60001                           AD       L                                     #  WHICH FAILED TO APPEAR IS IN ITEMP1 AND
003040: 25,3451           57113                           XCH      OLDATAGD                              #  CAN BE USED TO SET RADMODES WHICH VIA
003041: 25,3452           70061                           MASK     ITEMP1                                #  SETTRKF SETS THE TRACKER FAIL LAMP.
003042: 25,3453           60001                           AD       L
003043: 25,3454           10000                           CCS      A                                     #  SHOULD BOTH BE ZERO.
003044: 25,3455           03263                           TC       RESAMPLE
003045: 25,3456           52064                           DXCH     ITEMP3                                #  IF DATA GOOD BEFORE AND AFTER, ADD TO
003046: 25,3457           21102                           DAS      SAMPLSUM                              #  ACCUMULATION.
003047: 25,3460           00002                           TC       Q
003048:
003049: 25,3461           40061        DATAFAIL           CS       ITEMP1                                #  IN THE ABOVE CASE, SET RADMODES BIT
003050: 25,3462           70110                           MASK     RADMODES                              #  SHOWING SOME RADAR DATA FAILED.
003051: 25,3463           60061                           AD       ITEMP1
003052: 25,3464           54110                           TS       RADMODES
003053:
003054: 25,3465           52064                           DXCH     ITEMP3                                #  IF WE HAVE BEEN UNABLE TO GATHER N
003055: 25,3466           53102                           DXCH     SAMPLSUM                              #  SAMPLES, USE LAST ONE ONLY.
003056: 25,3467           03616                           TC       RADLITES
003057: 25,3470           13174                           TCF      NOMORE


003059:                                                                                                  #  THIS ROUTINE CHANGES THE LR POSITION, AND CHECKS THAT IT GOT THERE.
003060:
003061: 25,2000                                           SETLOC   P20S1
003062: 25,2000                                           BANK
003063:
003064: 25,3471                                           COUNT*   $$/RSUB
003065: 25,3471           00004        LRPOS2             INHINT
003066:
003067: 25,3472           40110                           CS       RADMODES
003068: 25,3473           74746                           MASK     LRPOSBIT                              #  SHOW DESIRED LR POSITION IS 2
003069: 25,3474           26110                           ADS      RADMODES
003070:
003071: 25,3475           34745                           CAF      BIT7
003072: 25,3476           00006                           EXTEND
003073: 25,3477           02033                           RAND     CHAN33                                #  SEE IF ALREADY THERE.
003074: 25,3500           00006                           EXTEND
003075: 25,3501           13530                           BZF      RADNOOP
003076:
003077: 25,3502           34737                           CAF      BIT13
003078: 25,3503           00006                           EXTEND
003079: 25,3504           05012                           WOR      CHAN12                                #  COMMAND TO POSITION 2
003080: 25,3505           33545                           CAF      6SECS                                 #  START SCANNING FOR INBIT AFTER 7 SECS.
003081: 25,3506           05203                           TC       WAITLIST
003082: 25,3507  E7,1456                                  EBANK=   LOSCOUNT
003083: 25,3507           03543 52067                     2CADR    LRPOSCAN
003084:
003085: 25,3511           02366                           TC       ROADBACK
003086:
003087: 25,3512           55100        LRPOSNXT           TS       SAMPLIM
003088: 25,3513           05221                           TC       FIXDELAY                              #  SCAN ONCE PER SECOND 15 TIMES MAX AFTER
003089: 25,3514           00144                           DEC      100        B-14                       #  INITIAL DELAY OF 7 SECONDS.
003090:
003091: 25,3515           34745                           CAF      BIT7                                  #  SEE IF LR POS2 IS ON
003092: 25,3516           00006                           EXTEND
003093: 25,3517           02033                           RAND     CHAN33
003094: 25,3520           00006                           EXTEND
003095: 25,3521           13535                           BZF      LASTLRDT                              #  IF THERE, WAIT FINAL SECOND FOR BOUNCE.
003096:
003097: 25,3522           11100                           CCS      SAMPLIM                               #  SEE IF MAX TIME UP.
003098: 25,3523           13512                           TCF      LRPOSNXT
003099:
003100: 25,3524           44737                           CS       BIT13                                 #  IF TIME UP, DISABLE COMMAND AND ALARM.
003101: 25,3525           00006                           EXTEND
003102: 25,3526           03012                           WAND     CHAN12
003103: 25,3527           13562                           TCF      RDBADEND
003104:
003105: 25,3530           34753        RADNOOP            CAF      ONE                                   #  NO FURTHER ACTION REQUESTED.
003106: 25,3531           05203                           TC       WAITLIST
003107: 25,3532  E7,1456                                  EBANK=   LOSCOUNT
003108: 25,3532           03555 52067                     2CADR    RGOODEND


003110: 25,3534           02366                           TC       ROADBACK
003111:
003112: 25,3535           35000        LASTLRDT           CA       2SECS                                 #  WAIT TWO SECONDS AFTER RECEIPT OF INBIT
003113: 25,3536           05224                           TC       VARDELAY                              #  TO WAIT FOR ANTENNA BOUNCE TO DIE OUT.
003114:
003115: 25,3537           44737                           CS       BIT13                                 #  REMOVE COMMAND
003116: 25,3540           00006                           EXTEND
003117: 25,3541           03012                           WAND     CHAN12
003118: 25,3542           13555                           TCF      RGOODEND
003119:
003120: 25,3543           34317        LRPOSCAN           CAF      FOURTEEN                              #  SET UP FOR 15 SAMPLES.
003121: 25,3544           13512                           TCF      LRPOSNXT
003122: 25,3545           01130        6SECS              DEC      600        B-14


003124:                                                                                                  #  SEQUENCES TO TERMINATE RR OPERATIONS.
003125:
003126: 25,3546           34745        ENDRADAR           CAF      RCDUFBIT                              #  PROLOG TO CHECK RR CDU FAIL BEFORE END.
003127: 25,3547           70110                           MASK     RADMODES
003128: 25,3550           10000                           CCS      A
003129: 25,3551           13555                           TCF      RGOODEND
003130: 25,3552           13562                           TCF      RDBADEND
003131: 25,3553           44755                 -2        CS       ZERO                                  #  RGOODEND WHEN NOT UNDER WAITLIST CONTROL
003132: 25,3554           54734                           TS       RUPTAGN
003133:
003134: 25,3555           34752        RGOODEND           CAF      TWO
003135: 25,3556           04635                           TC       POSTJUMP
003136: 25,3557           17665                           CADR     GOODEND
003137:
003138: 25,3560           44755                 -2        CS       ZERO                                  #  RDBADEND WHEN NOT UNDER WIATLIST.
003139: 25,3561           54734                           TS       RUPTAGN
003140: 25,3562           34752        RDBADEND           CAF      TWO
003141: 25,3563           04635                           TC       POSTJUMP
003142: 25,3564           17662                           CADR     BADEND
003143:
003144: 25,3565     6245               BIN3               EQUALS   THREE
003145:


003147:                                                                                                  #  PROGRAM NAME:  LPS20.1 VECTOR EXTRAPOLATION AND LOS COMPUTATION
003148:                                                                                                  #  MOD. NO. 2    BY J.D. COYNE   SDC     DATE 12-7-66
003149:
003150:                                                                                                  #  FUNCTIONAL DESCRPIPTION:
003151:                                                                                                  #        1)      EXTRAPOLATE THE LEM AND CSM VECTORS IN ACCORDANCE WITH THE TIME REFERRED TO IN CALLER + 1.
003152:                                                                                                  #        2)      COMPUTES THE LOS VECTOR TO THE CSM, CONVERTS IT TO STABLE MEMBER COORDINATES AND STORES IT IN RRTARGET.
003153:                                                                                                  #        3)      COMPUTES THE MAGNITUDE OF TEH LOS VECTOR AND STORES IT IN MLOSV
003154:
003155:                                                                                                  #  CALLING SEQUENCE:     CALL
003156:                                                                                                  #                                LPS20.1
003157:
003158:                                                                                                  #  SUBROUTINES CALLED:
003159:                                                                                                  #        LEMPREC, CSMPREC
003160:
003161:                                                                                                  #  NORMAL EXIT:  RETURN TO CALLER + 2.
003162:
003163:                                                                                                  #  ERROR EXITS:  NONE
003164:
003165:                                                                                                  #  ALARMS:  NONE
003166:
003167:                                                                                                  #  OUTPUT:
003168:                                                                                                  #        LOS VECTOR (HALF UNIT) IN SM COORDINATES STORED IN RRTARGET
003169:                                                                                                  #        MAGNITUDE OF TEH LOS VECTOR (METERS SCALED B-29) STORED IN MSLOV
003170:                                                                                                  #        RRNBSW CLEARED.
003171:
003172:                                                                                                  #  INITIALIZED ERASABLE
003173:                                                                                                  #        TDEC1 MUST CONTAIN THE TIME FOR EXTRAPOLATION
003174:                                                                                                  #        SEE ORBITAL INTEGRATION ROUTINE
003175:
003176:                                                                                                  #  DEBRIS:
003177:                                                                                                  #        MPAC DESTROYED BY THE ROUTINE
003178:
003179: 23,2314                                           BANK     23
003180: 24,2000                                           SETLOC   P20S
003181: 24,2000                                           BANK


003183: 24,3255                                           COUNT*   $$/LPS20
003184:
003185: 24,3255           43020        LPS20.1            STQ      BOFF
003186: 24,3256           01757                                    LS21X
003187: 24,3257           01343                                    LOSCMFLG                              #  LOSCMFLG = 0 MEANS NOT CALLED BY R21
003188: 24,3260           51264                                    LMINT                                 #  SO CALL LEMCONIC TO GET LM STATE
003189: 24,3261           77614                           BON                                            #  IF IN R21 AND ON LUNAR SURFACE
003190: 24,3262           04307                                    SURFFLAG                              #  DON'T CALL LEMCONIC
003191: 24,3263           51274                                    CSMINT
003192: 24,3264           77624        LMINT              CALL
003193: 24,3265           27100                                    LEMCONIC                              #  EXTRAPOLATE LEM
003194: 24,3266           77775                           VLOAD
003195: 24,3267           00001                                    RATT
003196: 24,3270           26352                           STOVL    LMPOS                                 #  SAVE LM POSITION B-29
003197: 24,3271           00007                                    VATT
003198: 24,3272           16360                           STODL    LMVEL                                 #  SAVE LM VELOCITY B-7
003199: 24,3273           00015                                    TAT
003200: 24,3274           34041        CSMINT             STCALL   TDEC1
003201: 24,3275           27066                                    CSMCONIC                              #  EXTRAPOLATE CSM
003202: 24,3276           52375                           VLOAD    VSU                                   #  COMPUTE RELATIVE VELOCITY V(CSM) - V(LM)
003203: 24,3277           00007                                    VATT
003204: 24,3300           02360                                    LMVEL
003205: 24,3301           76521                           MXV      VSL1
003206: 24,3302           01734                                    REFSMMAT
003207: 24,3303           77776                           EXIT
003208: 24,3304           06027                           TC       KILLTASK                              #  KILL THE TASK WHICH CALLS DODES SINCE
003209: 24,3305           52602                           CADR     DESLOOP    +2                         #  STORING INTO ERASEABLES DODES USES
003210: 24,3306           06037                           TC       INTPRET
003211: 24,3307           25761                           STOVL    LOSVEL
003212: 24,3310           00001                                    RATT
003213: 24,3311           43051                           VSU      BOFF
003214: 24,3312           02352                                    LMPOS
003215: 24,3313           00350                                    RNDVZFLG
003216: 24,3314           51321                                    NOTSHIFT
003217: 24,3315           77604                           BOVB
003218: 24,3316           57753                                    TCDANZIG
003219: 24,3317           77661                           VSL
003220: 24,3320           20212                                    9D
003221: 24,3321           41056        NOTSHIFT           UNIT     BOVB                                  #  IF OVERFLOW, RANGE MUST BE GREATER
003222: 24,3322           50102                                    526ALARM                              #  THAN 400 N. M.
003223: 24,3323           76521                           MXV      VSL1
003224: 24,3324           01734                                    REFSMMAT                              #  CONVERT TO STABLE MEMBER
003225: 24,3325           15102                           STODL    RRTARGET
003226: 24,3326           00045                                    36D                                   #  SAVE MAGNITUDE OF LOS VECTOR FOR
003227: 24,3327           01767                           STORE    MLOSV                                 #  VELOCITY CORRECTION IN DESIGNATE
003228: 24,3330           77614                           CLRGO
003229: 24,3331           00231                                    RRNBSW
003230: 24,3332           01757                                    LS21X
003231:


003233:                                                                                                  #  PROGRAM NAME:  LPS20.2  400 NM RANGE CHECK
003234:                                                                                                  #  MOD. NO. 2    BY J.D. COYNE   SDC     DATE 12-7-66
003235:
003236:                                                                                                  #  FUNCTIONAL DESCRIPTION:
003237:                                                                                                  #        COMPARES THE MAGNITUDE OF THE LOS VECTOR TO 400 NM.
003238:
003239:                                                                                                  #  CALLING SEQUENCE:     CALL
003240:                                                                                                  #                                LPS20.2
003241:
003242:                                                                                                  #  SUBROUTINES CALLED:  NONE
003243:
003244:                                                                                                  #  NORMAL EXIT:  RETURN TO CALLER +1, MPAC EQ 0 (RANGE 400NM OR LESS.)
003245:
003246:                                                                                                  #  ERROR EXITS:  RETURN TO CALLER +1, MPAC EQ 1 (RANGE GREATER THAN 400NM)
003247:
003248:                                                                                                  #  ALARMS:  NONE
003249:
003250:                                                                                                  #  OUTPUT:  NONE
003251:
003252:                                                                                                  #  INITIALIZED ERASEABLE:
003253:                                                                                                  #        PDL 36D MUST CONTAIN THE MAGNITUDE OF THE VECTOR
003254:
003255:                                                                                                  #  DEBRIS:
003256:                                                                                                  #        MPAC DESTROYED BY THIS ROUTINE
003257:
003258: 25,2000                                           SETLOC   P20S1
003259: 25,2000                                           BANK
003260: 25,3565                                           COUNT*   $$/LPS20
003261:
003262: 25,3565           45345        LPS20.2            DLOAD    DSU
003263: 25,3566           01767                                    MLOSV                                 #  MAGNITUDE OF LOS
003264: 25,3567           13600                                    FHNM                                  #  OVER 400NM
003265: 25,3570           77644                           BPL
003266: 25,3571           53574                                    TOFAR
003267: 25,3572           43535                           SLOAD    RVQ
003268: 25,3573           06522                                    ZERO/SP
003269: 25,3574           43535        TOFAR              SLOAD    RVQ
003270: 25,3575           13577                                    ONE/SP
003271: 25,3576           00001        ONE/SP             DEC      1          B-14


003273: 25,3577           26467 00000  FHNM               2DEC     740800     B-20                       #  400 NAUTICAL MILES IN METERS B-20
003274:


003276:                                                                                                  #  PROGRAM NAME:  LRS22.1 (DATA READ SUBROUTINE 1)
003277:                                                                                                  #  MOD. NO.: 1           BY: P. VOLANTE  SDC             DATE:  11-15-66
003278:
003279:                                                                                                  #  FUNCTIONAL DESCRIPTION:
003280:                                                                                                  #        1)      READS RENDEZVOUS RADAR RANGE AND RANGE-RATE, TRUNNION AND SHAFT ANGLES, THREE CDU VALUES AND TIME.  CONVERTS THIS
003281:                                                                                                  #                DATA AND LEAVES IT FOR THE MEASUREMENT INCORPORATION ROUTINE (LSR22.3).  CHECKS FOR THE RR DATA GOOD DISCRETE, FOR
003282:                                                                                                  #                RR REPOSITION AND RR CDU FAIL
003283:                                                                                                  #        2)      COMPARES RADAR LOS WITH LOS COMPUTED FROM STATE VECTORS TO SEE IF THEY ARE WITHIN THREE DEGREES
003284:
003285:                                                                                                  #  CALLING SEQUENCE:  BANKCALL FOR LRS22.1
003286:
003287:                                                                                                  #  SUBROUTINES CALLED:
003288:                                                                                                  #        RRDOT           LPS20.1
003289:                                                                                                  #        RRRANGE         BANKCALL
003290:                                                                                                  #        RADSTALL        CDULOGIC
003291:                                                                                                  #        RRNB            SMNB
003292:
003293:                                                                                                  #  NORMAL EXIT:  RETURN TO CALLER+1 WITH MPAC SET TO +0
003294:
003295:                                                                                                  #  ERROR EXITS:  RETURN TO CALLER+1 WITH ERROR CODE STORED IN MPAC AS FOLLOWS:
003296:                                                                                                  #        00001 -- ERROR EXIT 1 -- RR DATA NO GOOD (NO RR DATA GOOD DISCRETE OR RR CDU FAIL OR RR REPOSITION)
003297:                                                                                                  #        00002 -- ERROR EXIT 2 -- RR LOS NOT WITHIN THREE DEGREES OF LOS COMPUTED FROM STATE VECTORS
003298:
003299:                                                                                                  #  ALARMS:  521 -- COULD NOT READ RADAR DATA (RR DATA GOOD DISCRETE NOT PRESENT BEFORE AND AFTER READING THE RADAR)
003300:                                                                                                  #        (THIS ALARM IS ISSUED BY RADARREAD SUBROUTINE WHICH IS ENTERED FROM A RADARUPT)
003301:
003302:                                                                                                  #  OUTPUT:  RRLOSVEC -- THE RR LINE-OF-SIGHT VECTOR (USED BY LRS22.2) -- A HALF-UNIT VECTOR
003303:                                                                                                  #        RM -- THE RR RANGE READING (TO THE CSM) DP, IN METERS SCALED BY B-29 (USED BY LRS22.2 AND LRS22.3)
003304:
003305:                                                                                                  #        ALL OF THE FOLLOWING OUTPUTS ARE USED BY LRS22.3:
003306:                                                                                                  #                RDOTM -- THE RR RANGE-RATE READING, DP, IN METERS PER CENTISECOND, SCALED BY B-7
003307:                                                                                                  #                RRTRUN -- THE RR TRUNNION ANGLE, DP, IN REVOLUTIONS, SCALED B0
003308:                                                                                                  #                RRSHAFT -- RR SHAFT ANGLE, DP, IN REVOLUTIONS, SCALED B0
003309:                                                                                                  #                AIG,AMG,AOG -- THE CDU ANGLES, THREE SP WORDS
003310:                                                                                                  #                MKTIME -- THE TIME OF THE RR READING, DP, IN CENTISECONDS
003311:
003312:                                                                                                  #  ERASABLE INITIALIZATION REQUIRED:
003313:                                                                                                  #        RNRAD, THE RADAR READ COUNTER FROM WHICH IS OBTAINED:


003315:                                                                                                  #                1) RR RANGE SCALED 9.38 FT. PER BIT ON THE LOW SCALE AND 75.04 FT. PER BIT ON THE HIGH SCALE
003316:                                                                                                  #                2) RR RANGE RATE, SCALED .6278 FT./SEC. PER BIT
003317:                                                                                                  #        THE CDU ANGLES FROM CDUX, CDUY, CDUZ, AND TIME1 AND TIME2
003318:
003319:                                                                                                  #  DEBRIS:  LRS22.1X, A, L, Q, PUSHLIST
003320:
003321: 32,2366                                           BANK     32
003322: 32,2000                                           SETLOC   LRS22
003323: 32,2000                                           BANK
003324: 32,2366                                           COUNT*   $$/LRS22
003325:
003326: 32,2366           04645        LRS22.1            TC       MAKECADR
003327: 32,2367           55737                           TS       LRS22.1X
003328: 32,2370           05516                           TC       DOWNFLAG
003329: 32,2371           00120                           ADRES    RNGSCFLG
003330: 32,2372           00004                           INHINT
003331: 32,2373           34751                           CAF      BIT3
003332: 32,2374           00006                           EXTEND                                         #  GET RR RANGE SCALE
003333: 32,2375           02033                           RAND     CHAN33                                #  FROM CHANNEL 33 BIT 3
003334: 32,2376           54001                           TS       L
003335: 32,2377           44751                           CS       RRRSBIT
003336: 32,2400           70110                           MASK     RADMODES
003337: 32,2401           60001                           AD       L
003338: 32,2402           54110                           TS       RADMODES
003339: 32,2403           00003                           RELINT
003340: 32,2404           04616        READRDOT           TC       BANKCALL
003341: 32,2405           53103                           CADR     RRRDOT                                #  READ RANGE-RATE (ONE SAMPLE)
003342: 32,2406           04616                           TC       BANKCALL
003343: 32,2407           17714                           CADR     RADSTALL                              #  WAIT FOR DATA READ COMPLETION
003344: 32,2410           12542                           TCF      EREXIT1                               #  COULD NOT READ RADAR-ERROR EXIT 1
003345:
003346: 32,2411           00004                           INHINT                                         #  NO INTERRUPTS WHILE READING TIME AND CDU
003347: 32,2412           53106                           DXCH     TIMEHOLD                              #  SET MARK TIME EQUAL TO THE MID-POINT
003348: 32,2413           52162                           DXCH     MPAC       +5                         #  TEMP BUFFER FOR DOWNLINK
003349: 32,2414           53102                           DXCH     SAMPLSUM                              #  SAVE RANGE-RATE READING
003350: 32,2415           53747                           DXCH     RDOTMSAV
003351: 32,2416           00006                           EXTEND
003352: 32,2417           30034                           DCA      CDUY                                  #  SAVE ICDU ANGLES
003353: 32,2420           52160                           DXCH     MPAC       +3                         #  TEMP BUFFER FOR DOWNLINK
003354: 32,2421           30032                           CA       CDUX
003355: 32,2422           54156                           TS       MPAC       +2                         #  TEMP BUFFER FOR DOWNLINK
003356: 32,2423           00006                           EXTEND
003357: 32,2424           30025                           DCA      TIME2                                 #  SAVE TIME
003358: 32,2425           52155                           DXCH     MPAC                                  #  SAVE TIME OF CDUY READINGS IN MPAC
003359: 32,2426           00006                           EXTEND
003360: 32,2427           30036                           DCA      CDUT                                  #  SAVE TRUNNION AND SHAFT ANGLES FOR RRNB
003361: 32,2430           53110                           DXCH     TANG


003363: 32,2431           00003                           RELINT
003364: 32,2432           04616                           TC       BANKCALL
003365: 32,2433           53105                           CADR     RRRANGE                               #  READ RR RANGE (ONE SAMPLE)
003366: 32,2434           04616                           TC       BANKCALL
003367: 32,2435           17714                           CADR     RADSTALL                              #  WAIT FOR READ COMPLETE
003368: 32,2436           02536                           TC       CHEXERR                               #  CHECK FOR ERRORS DURING READ
003369: 32,2437           00004                           INHINT                                         #  COPY CYCLE FOR MARK DATA ON DOWNLINK
003370: 32,2440           53334                           DXCH     DNRRANGE                              #  RANGE, RANGE RATE (RAW DATA)
003371: 32,2441           53761                           DXCH     RANGRDOT
003372: 32,2442           52162                           DXCH     MPAC       +5
003373: 32,2443           53755                           DXCH     MKTIME                                #  MARK TIME
003374: 32,2444           52160                           DXCH     MPAC       +3
003375: 32,2445           53460                           DXCH     AIG                                   #  CDUY, CDUZ
003376: 32,2446           00006                           EXTEND
003377: 32,2447           31110                           DCA      TANG                                  #  PRESERVE TANG
003378: 32,2450           53753                           DXCH     TANGNB                                #  TRUNNION AND SHAFT ANGLES
003379: 32,2451           30156                           CA       MPAC       +2
003380: 32,2452           55461                           TS       AOG                                   #  CDUX
003381: 32,2453           06037                           TC       INTPRET
003382: 32,2454           14025                           STODL    20D                                   #  SAVE TIME OF CDU READINGS IN 20D
003383: 32,2455           03747                                    RDOTMSAV                              #  CONVERT RDOT UNITS AND SCALING
003384: 32,2456           57261                           SL       DMPR                                  #  START WITH READING SCALED B-28, -.6278
003385: 32,2457           20217                                    14D                                   #  FT./SECOND PER BIT
003386: 32,2460           24002                                    RDOTCONV                              #  END WITH METERS/CENTISECOND, B-7
003387: 32,2461           03751                           STORE    RDOTM
003388: 32,2462           47135                           SLOAD    RTB
003389: 32,2463           01110                                    TANG                                  #  GET TRUNNION ANGLE
003390: 32,2464           21576                                    CDULOGIC                              #  CONVERT TO DP ONES COMP. IN REVOLUTIOINS
003391: 32,2465           03734                           STORE    RRTRUN                                #  AND SAVE FOR TMI ROUTINE (LSR22.3)
003392: 32,2466           47135                           SLOAD    RTB
003393: 32,2467           01111                                    TANG       +1                         #  DITTO FOR SHAFT ANGLE
003394: 32,2470           21576                                    CDULOGIC
003395: 32,2471           17736                           STODL    RRSHAFT
003396: 32,2472           01102                                    SAMPLSUM
003397: 32,2473           66405                           DMP      SL2R                                  #  CONVERT UNITS AND SCALING DP RANGE
003398: 32,2474           24004                                    RANGCONV                              #  PER BIT, END WITH METERS, SCALED -29
003399: 32,2475           37757                           STCALL   RM
003400: 32,2476           46041                                    RRNB                                  #  COMPUTE RADAR LOS USING RRNB
003401: 32,2477           17741                           STODL    RRBORSIT                              #  AND SAVE
003402: 32,2500           00025                                    20D
003403: 32,2501           34041                           STCALL   TDEC1                                 #  GET STATE VECTOR LOS AT TIME OF CDU READ
003404: 32,2502           51255                                    LPS20.1
003405: 32,2503           77776                           EXIT
003406: 32,2504           31457                           CA       AIG                                   #  STORE IMU CDU ANGLES AT MARKTIME
003407: 32,2505           54766                           TS       CDUSPOT                               #  IN CDUSPOT FOR TRG*SMNB
003408: 32,2506           31460                           CA       AMG
003409: 32,2507           54770                           TS       CDUSPOT    +2
003410: 32,2510           31461                           CA       AOG
003411: 32,2511           54772                           TS       CDUSPOT    +4
003412: 32,2512           06037                           TC       INTPRET


003414: 32,2513           45175                           VLOAD    CALL                                  #  LOAD VECTOR AND CALL TRANSFORMATION
003415: 32,2514           01102                                    RRTARGET
003416: 32,2515           47651                                    TRG*SMNB                              #  ROTATE LOS AT MARKTIME FROM SM TO NB.
003417: 32,2516           77641                           DOT                                            #  DOT WITH RADAR LOS TO GET ANGLE
003418: 32,2517           03741                                    RRBORSIT
003419: 32,2520           65552                           SL1      ACOS                                  #  BETWEEN THEM
003420: 32,2521           01046                           STORE    DSPTEM1                               #  STORE FOR POSSIBLE DISPLAY
003421: 32,2522           50025                           DSU      BMN                                   #  IS IT LESS THAN 3 DEGREES
003422: 32,2523           24546                                    THREEDEG
003423: 32,2524           64531                                    NORMEXIT                              #  YES -- NORMAL EXIT
003424:
003425: 32,2525           77776                           EXIT                                           #  ERROR EXIT 2
003426: 32,2526           34752                           CAF      BIT2                                  #  SET ERROR CODE
003427: 32,2527           54154                           TS       MPAC
003428: 32,2530           12534                           TCF      OUT22.1
003429:
003430: 32,2531           77776        NORMEXIT           EXIT                                           #  NORMAL EXIT -- SET MPAC EQUAL ZERO
003431: 32,2532           34755                           CAF      ZERO
003432: 32,2533           54154                           TS       MPAC
003433: 32,2534           31737        OUT22.1            CAE      LRS22.1X                              #  EXIT FROM LRS22.1
003434: 32,2535           04640                           TC       BANKJUMP
003435: 32,2536           30101        CHEXERR            CAE      FLAGWRD5
003436: 32,2537           74742                           MASK     RNGSCBIT
003437: 32,2540           10000                           CCS      A                                     #  CHECK IF RANGE SCALE CHANGED
003438: 32,2541           12404                           TCF      READRDOT                              #  YES -- TAKE ANOTHER READING
003439:
003440: 32,2542           34753        EREXIT1            CA       BIT1                                  #  SET ERROR CODE
003441: 32,2543           54154                           TS       MPAC
003442: 32,2544           02534                           TC       OUT22.1
003443: 32,2545           00210 21042  THREEDEG           2DEC     .008333333                            #  THREE DEGREES, SCALED REVS, B0
003444:
003445: 32,2547     1101               RRLOSVEC           EQUALS   RRTARGET
003446:


003448:                                                                                                  #  PROGRAM NAME -- LRS22.2 (DATA READ SUBROUTINE 2)
003449:                                                                                                  #  MOD. NO.: 1           BY: P. VOLANTE  SDC             DATE: 4-11-67
003450:
003451:                                                                                                  #  FUNCTIONAL DESCRIPTION:
003452:                                                                                                  #        (Yes, I know point #1 is missing.  It is missing from the program listing -- RSB 2003)
003453:                                                                                                  #        2)  CHECKS IF THE RR LOS (I.E., THE RADAR BORESIGHT VECTOR) IS WITHIN 30 DEGREES OF THE LM +Z AXIS
003454:
003455:                                                                                                  #  CALLING SEQUENCE:  BANKCALL FOR LRS22.2
003456:
003457:                                                                                                  #  SUBROUTINES CALLED:  G+N, AUTO, SETMAXDB
003458:
003459:                                                                                                  #  NORMAL EXIT:  RETURN TO CALLER WITH MPAC SET TO +0 (VIA SWRETURN)
003460:
003461:                                                                                                  #  ERROR EXIT:  RETURN TO CALLER WITH MPAC SET TO 00001 -- RADAR LOS NOT WITHIN 30 DEGREES OF LM +Z AXIS.
003462:
003463:                                                                                                  #  ALARMS:  NONE
003464:
003465:                                                                                                  #  ERASABLE INITIALIZATION REQUIRED:
003466:                                                                                                  #        RRLOSVEC -- THE RR LINE-OF-SIGHT VECTOR -- A HALF UNIT VECTOR COMPUTED BY LRS22.1
003467:                                                                                                  #        RM -- RR RANGE, METERS B-29, FROM LRS22.1
003468:                                                                                                  #        BIT 14 CHANNEL 31 -- INDICATES AUTOPILOT IS IN AUTO MODE
003469:
003470:                                                                                                  #  DEBRIS -- A,L,Q,MPAC -- PUSHLIST AND PUSHLOC ARE NOT CHANGED BY THIS ROUTINE
003471:
003472: 24,2000                                           SETLOC   P20S
003473: 24,2000                                           BANK
003474: 24,3333           04645        LRS22.2            TC       MAKECADR
003475: 24,3334           55737                           TS       LRS22.1X
003476: 24,3335           06037                           TC       INTPRET
003477:                                                                                                  #  CHECK IF RR LOS IS WITHIN 30 DEG OF
003478: 24,3336           65545        30DEGCHK           DLOAD    ACOS                                  #  THE SPACECRAFT +Z AXIT
003479: 24,3337           03745                                    RRBORSIT   +4                         #  BY TAKING ARCCOS OF Z-COMP. OF THE RR
003480:                                                                                                  #  LOS VECTOR, A HALF UNIT VECTOR
003481:                                                                                                  #  IN NAV BASE AXES)
003482: 24,3340           50025                           DSU      BMN
003483: 24,3341           11355                                    30DEG
003484: 24,3342           51347                                    OKEXIT                                #  NORMAL EXIT -- WITHIN 30 DEG.
003485: 24,3343           77776                           EXIT                                           #  ERROR EXIT -- NOT WITHIN 30 DEG.
003486: 24,3344           34753                           CAF      BIT1                                  #  SETS ERROR CODE IN MPAC
003487: 24,3345           54154                           TS       MPAC
003488: 24,3346           13352                           TCF      OUT22.2
003489: 24,3347           77776        OKEXIT             EXIT                                           #  NORMAL EXIT -- SET MPAC = ZERO
003490:


003492: 24,3350           34755                           CAF      ZERO
003493: 24,3351           54154                           TS       MPAC
003494: 24,3352           31737        OUT22.2            CAE      LRS22.1X
003495: 24,3353           04640                           TC       BANKJUMP
003496:
003497: 24,3354           02525 12525  30DEG              2DEC     .083333333                            #  THIRTY DEGREES, SCALED REVS, B0
003498:


003500:                                                                                                  #  PROGRAM NAME -- LSR22.3                               DATE -- 29 MAY 1967
003501:                                                                                                  #  MOD. NO 3                                             LOG SECTION -- P20-P25
003502:                                                                                                  #  MOD. BY -- DANFORTH                                   ASSEMBLY LEMP20S REV 10
003503:
003504:                                                                                                  #  FUNCTIONAL DESCRIPTION:
003505:                                                                                                  #        THIS ROUTINE COMPUTES THE B-VECTORS ADN DELTA Q FOR EACH OF THE QUANTITIES MEASURED BY THE RENDEZVOUS
003506:                                                                                                  #        RADAR.  (RANGE, RANGE RATE, SHAFT AND TRUNNION ANGLES).  THE ROUTINE CALLS THE INCORP1 AND INCORP2 ROUTINES
003507:                                                                                                  #        WHICH COMPUTE THE DEVIATIONS AND CORRECT THE STATE VECTOR.
003508:
003509:                                                                                                  #  CALLING SEQUENCE:
003510:                                                                                                  #        THIS ROUTINE IS PART OF P20 RENDEZVOUS NAVIGATION FOR THE LM COMPUTER ONLY.  THE ROUTINE IS ENTERED FROM
003511:                                                                                                  #        R22 LEM ONLY AND RETURNS DIRECTLY TO R22LEM FOLLOWING SUCCESSFUL INCORPORATION OF MEASURED DATA.  IF THE
003512:                                                                                                  #        COMPUTED STATE VECTOR DEVATIONS EXCEED THE MAXIMUM PERMITTED.  THE ROUTINE RETURNS TO R22LEM TO DISPLAY
003513:                                                                                                  #        THE DEVIATIONS.  IF THE ASTRONAUT ACCEPTS THE DATA R22LEM RETURNS TO LSR22.3 TO INCORPORATE THE
003514:                                                                                                  #        DEVIATIONS INTO THE STATE VECTOR.  IF THE ASTRONAUT REJECTS THE DEVIATIONS, NO MORE MEASUREMENTS ARE
003515:                                                                                                  #        PROCESSED FOR THIS MARK, I.E.,  R22LEM GETS THE NEXT MARK.
003516:
003517:                                                                                                  #  SUBROUTINES CALLED:
003518:                                                                                                  #        WLINIT          LGCUPDTE        INTEGRV         INCORP1         ARCTAN
003519:                                                                                                  #        GETULC          RADARANG        INCORP2         NBSM            INTSTALL
003520:
003521:                                                                                                  #  OUTPUT:
003522:                                                                                                  #        CORRECTED LM OR CSM STATE VECTOR (PERMANENT)
003523:                                                                                                  #        NUMBER OF MARKS INCORPORATED IN MARKCTR
003524:                                                                                                  #        MAGNITUDE OF POSITION DEVIATION (FOR DISPLAY) IN R22DISP METERS B-29
003525:                                                                                                  #        MAGNITUDE OF VELOCITY DEVIATION (FOR DISPLAY) IN R22DISP +2 M/CSEC B-7
003526:                                                                                                  #        UPDATED W-MATRIX
003527:
003528:                                                                                                  #  ERASABLE INITIALIZATION REQUIRED:
003529:                                                                                                  #        LM AND CSM STATE VECTORS
003530:                                                                                                  #        W-MATRIX
003531:                                                                                                  #        MARK TIME IN MKTIME
003532:                                                                                                  #        RADAR RANGE IN RM METERS B-29
003533:                                                                                                  #                RANGE RATE IN RDOTM METERS/CSES B-7
003534:                                                                                                  #                SHAFT ANGLE IN RRSHAFT REVS. B0
003535:                                                                                                  #                TRUNNION ANGLE IN RRTRUN REVS. B0
003536:                                                                                                  #        GIMBAL ANGLES   INNER IN AIG
003537:                                                                                                  #                        MIDDLE IN AMG
003538:                                                                                                  #                        OUTER IN ACG
003539:                                                                                                  #        REFSMMAT
003540:                                                                                                  #        RENDWFLG
003541:                                                                                                  #        NOANGFLG
003542:                                                                                                  #        VEHUPFLG
003543:
003544:                                                                                                  #  DEBRIS:
003545:                                                                                                  #        PUSHLIST -- ALL
003546:                                                                                                  #        MX, MY, MZ (VECTORS)


003548:                                                                                                  #        ULC, RXZ, SINTHETA, LGRET, RDRET, BVECTOR, W.IND, X78T
003549:
003550: 13,2207                                           BANK     13
003551: 26,2000                                           SETLOC   P20S3
003552: 26,2000                                           BANK
003553:
003554: 26,2412  E7,1456                                  EBANK=   LOSCOUNT
003555: 26,2412                                           COUNT*   $$/LSR22
003556: 26,2412           77624        LSR22.3            CALL
003557: 26,2413           11244                                    GRP2PC
003558: 26,2414           43014                           BON      SET
003559: 26,2415           04307                                    SURFFLAG                              #  ARE WE ON LUNAR SURFACE
003560: 26,2416           55200                                    LSR22.4                               #  YES
003561: 26,2417           02466                                    DMENFLG
003562: 26,2420           45014                           BOFF     CALL
003563: 26,2421           00747                                    VEHUPFLG
003564: 26,2422           54454                                    DOLEM
003565: 26,2423           27414                                    INTSTALL
003566: 26,2424           45014                           CLEAR    CALL                                  #  LM PRECISION INTEGRATION
003567: 26,2425           01674                                    VINTFLAG
003568: 26,2426           26644                                    SETIFLGS
003569: 26,2427           77624                           CALL
003570: 26,2430           55242                                    INTGRCAL
003571: 26,2431           77624                           CALL
003572: 26,2432           11244                                    GRP2PC
003573: 26,2433           77624                           CALL
003574: 26,2434           27414                                    INTSTALL
003575: 26,2435           43014                           CLEAR    BOFF
003576: 26,2436           01676                                    DIM0FLAG
003577: 26,2437           02756                                    RENDWFLG
003578: 26,2440           54444                                    NOTWCSM
003579: 26,2441           43014                           SET      SET                                   #  CSM WITH W-MATRIX INTEGRATION
003580: 26,2442           01476                                    DIM0FLAG
003581: 26,2443           01475                                    D6OR9FLG
003582: 26,2444           43014        NOTWCSM            SET      CLEAR
003583: 26,2445           01474                                    VINTFLAG
003584: 26,2446           01673                                    INTYPFLG
003585: 26,2447           45014                           SET      CALL
003586: 26,2450           01472                                    STATEFLG
003587: 26,2451           55242                                    INTGRCAL
003588: 26,2452           77650                           GOTO
003589: 26,2453           54504                                    MARKTEST
003590: 26,2454           77624        DOLEM              CALL
003591: 26,2455           27414                                    INTSTALL
003592: 26,2456           45014                           SET      CALL
003593: 26,2457           01474                                    VINTFLAG
003594: 26,2460           26644                                    SETIFLGS
003595: 26,2461           77624                           CALL
003596: 26,2462           55242                                    INTGRCAL


003598: 26,2463           77624                           CALL
003599: 26,2464           11244                                    GRP2PC
003600: 26,2465           77624                           CALL
003601: 26,2466           27414                                    INTSTALL
003602: 26,2467           43014                           CLEAR    BOFF
003603: 26,2470           01676                                    DIM0FLAG
003604: 26,2471           02756                                    RENDWFLG
003605: 26,2472           54476                                    NOTWLEM
003606: 26,2473           43014                           SET      SET                                   #  LM WITH W-MATRIX INTEGRATION
003607: 26,2474           01476                                    DIM0FLAG
003608: 26,2475           01475                                    D6OR9FLG
003609: 26,2476           43014        NOTWLEM            CLEAR    CLEAR
003610: 26,2477           01673                                    INTYPFLG
003611: 26,2500           01674                                    VINTFLAG
003612: 26,2501           45014                           SET      CALL
003613: 26,2502           01472                                    STATEFLG
003614: 26,2503           55242                                    INTGRCAL
003615: 26,2504           45014        MARKTEST           BON      CALL                                  #  HAS W-MATRIX BEEN INVALIDATED
003616: 26,2505           02716                                    RENDWFLG                              #  HAS W-MATRIX BEEN INVALIDATED
003617: 26,2506           54510                                    RANGEBQ
003618: 26,2507           55251                                    WLINIT                                #  YES -- REINITIALIZE
003619: 26,2510           77414        RANGEBQ            BON      EXIT                                  #  DON'T CALL R65 IF ON SURFACE
003620: 26,2511           04307                                    SURFFLAG
003621: 26,2512           54520                                    RANGEBQ1
003622: 26,2513           34755                           CA       ZERO
003623: 26,2514           55745                           TS       R65CNTR
003624: 26,2515           04616                           TC       BANKCALL
003625: 26,2516           46123                           CADR     R65LEM
003626: 26,2517           06037                           TC       INTPRET
003627: 26,2520           43174        RANGEBQ1           AXT,2    BON                                   #  CLEAR X2
003628: 26,2521           00000                                    0
003629: 26,2522           04304                                    LMOONFLG                              #  IS MOON SPHERE OF INFLUENCE
003630: 26,2523           54526                                    SETX2                                 #  YES.  STORE ZERO IN SCALSHFT REGISTER
003631: 26,2524           77714                           INCR,2
003632: 26,2525           00002                                    2
003633: 26,2526           45134        SETX2              SXA,2    CALL
003634: 26,2527           03720                                    SCALSHFT                              #  0 -- MOON.  2 -- EARTH.
003635: 26,2530           11244                                    GRP2PC
003636: 26,2531           66170                           AXT,1    SXA,1                                 #  STORE RANGE CODE (1) FOR R3 IN NOUN 49
003637: 26,2532           00001                                    1
003638: 26,2533           03745                                    WHCHREAD
003639: 26,2534           54335                           SLOAD    SR                                    #  GET SINGLE PRECISION RVARMIN (B-12)
003640: 26,2535           01775                                    RVARMIN                               #  SHIFT TO TRIPLE PRECISION (B-40)
003641: 26,2536           20635                                    28D
003642: 26,2537           77634                           RTB
003643: 26,2540           21633                                    TPMODE                                #  AND SAVE IN 20D
003644: 26,2541           00025                           STORE    20D
003645: 26,2542           77624                           CALL                                           #  BEGIN COMPUTING THE B-VECTORS, DELTAQ
003646: 26,2543           55333                                    GETULC                                #  B-VECTORS FOR RANGE
003647: 26,2544           57414                           BON      VCOMP                                 #  B0, COMP. IF LM BEING CORRECTED


003649: 26,2545           00707                                    VEHUPFLG
003650: 26,2546           54547                                    +1
003651: 26,2547           27525                           STOVL    BVECTOR
003652: 26,2550           06522                                    ZEROVECS
003653: 26,2551           03533                           STORE    BVECTOR    +6                         #  B1
003654: 26,2552           17541                           STODL    BVECTOR    +12D                       #  B2
003655: 26,2553           00045                                    36D
003656: 26,2554           44257                           SRR*     BDSU
003657: 26,2555           56174                                    2,2                                   #  SHIFT FROM EARTH/MOON SPHERE TO B-29
003658: 26,2556           03757                                    RM                                    #  RM - (MAGNITUDE RCSM-RLM)
003659: 26,2557           77657                           SLR*
003660: 26,2560           56574                                    2,2                                   #  SHIFT TO EARTH/MOON SPHERE
003661: 26,2561           17547                           STODL    DELTAQ                                #  EARTH B-29.  MOON B-27
003662: 26,2562           00045                                    36D                                   #  RLC B-29/B-27
003663: 26,2563           63501                           NORM     DSQ                                   #  NORMALIZE AND SQUARE
003664: 26,2564           00047                                    X1
003665: 26,2565           53605                           DMP      SR*
003666: 26,2566           01771                                    RANGEVAR                              #  MULTIPLY BY RANGEVAR (B12) THEN
003667: 26,2567           20577                                    0          -2,1                       #  UNNORMALIZE
003668: 26,2570           53657                           SR*      SR*
003669: 26,2571           20601                                    0,1
003670: 26,2572           57176                                    0,2
003671: 26,2573           47057                           SR*      RTB
003672: 26,2574           57176                                    0,2
003673: 26,2575           21633                                    TPMODE
003674: 26,2576           02707                           STORE    VARIANCE                              #  B-40
003675: 26,2577           76276                           DCOMP    TAD
003676: 26,2600           00025                                    20D                                   #  B-40
003677: 26,2601           72240                           BMN      TLOAD
003678: 26,2602           54605                                    QOK
003679: 26,2603           00025                                    20D                                   #  B-40
003680: 26,2604           02707                           STORE    VARIANCE
003681: 26,2605           77624        QOK                CALL
003682: 26,2606           55401                                    LGCUPDTE
003683:
003684: 26,2607           45131                           SSP      CALL
003685: 26,2610           03746                                    WHCHREAD
003686: 26,2611           00002                           DEC      2          B-14                       #  STORE R-RATE CODE (2) FOR R3 IN NOUN 49
003687: 26,2612           11244                                    GRP2PC
003688: 26,2613           77624                           CALL                                           #  B-VECTOR, DELTAQ FOR RANGE RATE
003689: 26,2614           55333                                    GETULC
003690: 26,2615           53725                           PDDL     SR*                                   #  GET RLC SCALED B-29/B-27
003691: 26,2616           00045                                    36D                                   #  AND SHIFT TO B-23
003692: 26,2617           57202                                    0          -4,2
003693: 26,2620           24045                           STOVL    36D                                   #  THEN STORE BACK IN 36D
003694: 26,2621           57414                           BON      VCOMP                                 #  B1, COMP. IF LM BEING CORRECTED
003695: 26,2622           00707                                    VEHUPFLG
003696: 26,2623           54624                                    +1
003697: 26,2624           77761                           VXSC
003698: 26,2625           00045                                    36D                                   #  B1 = RLC (B-24/B-22)


003700: 26,2626           27533                           STOVL    BVECTOR    +6
003701: 26,2627           01653                                    NUVLEM
003702: 26,2630           53257                           VSR*     VAD
003703: 26,2631           57170                                    6,2                                   #  SHIFT FOR EARTH/MOON SPHERE
003704: 26,2632           01667                                    VCVLEM                                #  EARTH B-7. MOON B-5
003705: 26,2633           53715                           PDVL     VSR*                                  #  VL TO PD6
003706: 26,2634           01601                                    NUVCSM
003707: 26,2635           57170                                    6,2                                   #  SHIFT FOR EARTH/MOON SPHERE
003708: 26,2636           52255                           VAD      VSU
003709: 26,2637           01615                                    VCVCSM
003710: 26,2640           50315                           PDVL     DOT                                   #  VC - VL = VLC TO PD6
003711: 26,2641           00001                                    0
003712: 26,2642           00007                                    6
003713: 26,2643           53606                           PUSH     SRR*                                  #  RDOT B-8/B-6 TO PD12
003714: 26,2644           56174                                    2,2                                   #  SHIFT FROM EARTH/MOON SPHERE TO B-8
003715: 26,2645           57316                           DSQ      DMPR                                  #  RDOT**2 B-16 X RATEVAR B12
003716: 26,2646           01773                                    RATEVAR
003717: 26,2647           02707                           STORE    VARIANCE
003718: 26,2650           54335                           SLOAD    SR
003719: 26,2651           01776                                    VVARMIN                               #  GET SINGLE PRECISION VVARMIN (B+12)
003720: 26,2652           20621                                    16D                                   #  SHIFT TO DP (B-4)
003721: 26,2653           00031                           STORE    24D                                   #  AND SAVE IN 24D
003722: 26,2654           50025                           DSU      BMN                                   #  IS MIN. VARIANCE > COMPUTED VARIANCE
003723: 26,2655           02707                                    VARIANCE
003724: 26,2656           54662                                    VOK                                   #  BRANCH -- NO
003725: 26,2657           77745                           DLOAD                                          #  YES -- USE MINIMUM VARIANCE
003726: 26,2660           00031                                    24D
003727: 26,2661           02707                           STORE    VARIANCE
003728: 26,2662           60545        VOK                DLOAD    SR2                                   #  RDOT (PD12) FROM B-8/B-6
003729: 26,2663           53725                           PDDL     SLR*                                  #  TO B-10/B-8
003730: 26,2664           03751                                    RDOTM                                 #  SHIFT TO EARTH/MOON SPHERE
003731: 26,2665           56577                                    0          -1,2                       #  B-7 TO B-10/B-8
003732: 26,2666           77625                           DSU
003733: 26,2667           77675                           DMPR
003734: 26,2670           00045                                    36D
003735: 26,2671           27547                           STOVL    DELTAQ                                #  B-33
003736: 26,2672           00001                                    0                                     #  NOW GET B0
003737: 26,2673           47235                           VXV      VXV                                   #  (ULC X VLC) X ULC
003738: 26,2674           57414                           BON      VCOMP                                 #  B0, COMP. IF LM BEING CORRECTED
003739: 26,2675           00707                                    VEHUPFLG
003740: 26,2676           54677                                    +1
003741: 26,2677           77657                           VSR*
003742: 26,2700           57200                                    0          -2,2                       #  SCALED B-5
003743: 26,2701           27525                           STOVL    BVECTOR
003744: 26,2702           06522                                    ZEROVECS
003745: 26,2703           00025                           STORE    20D                                   #  ZERO OUT 20 TO 25 IN PUSHLIST
003746: 26,2704           27541                           STOVL    BVECTOR    +12D
003747: 26,2705           03525                                    BVECTOR
003748: 26,2706           60246                           ABVAL    NORM                                  #  LOAD B0, GET MAGNITUDE AND NORMALIZE
003749: 26,2707           00025                                    20D                                   #  SHIFT COUNT IN 20D


003751: 26,2710           51575                           VLOAD    ABVAL
003752: 26,2711           03533                                    BVECTOR    +6D                        #  LOAD B1, GET MAGNITUDE AND NORMALIZE
003753: 26,2712           71301                           NORM     DLOAD
003754: 26,2713           00027                                    22D                                   #  SHIFT COUNT IN 22D
003755: 26,2714           00027                                    22D                                   #  FIND WHICH SHIFT IS SMALLER
003756: 26,2715           50025                           DSU      BMN                                   #  BRANCH -- B0 HAS A SMALLER SHIFT COUNT
003757: 26,2716           00025                                    20D
003758: 26,2717           54723                                    VOK1
003759: 26,2720           52150                           LXA,1    GOTO
003760: 26,2721           00026                                    22D                                   #  LOAD X2 WITH THE SMALLER SHIFT COUNT
003761: 26,2722           54725                                    VOK2
003762: 26,2723           77750        VOK1               LXA,1
003763: 26,2724           00024                                    20D
003764: 26,2725           53775        VOK2               VLOAD    VSL*                                  #  THEN ADJUST B0, B1, DELTAQ AND VARIANCE
003765: 26,2726           03525                                    BVECTOR                               #  WITH THI SSHIFT COUNT
003766: 26,2727           20201                                    0,1
003767: 26,2730           27525                           STOVL    BVECTOR
003768: 26,2731           03533                                    BVECTOR    +6
003769: 26,2732           77657                           VSL*
003770: 26,2733           20201                                    0,1
003771: 26,2734           17533                           STODL    BVECTOR    +6
003772: 26,2735           03547                                    DELTAQ
003773: 26,2736           77657                           SL*
003774: 26,2737           20201                                    0,1
003775: 26,2740           03547                           STORE    DELTAQ
003776: 26,2741           53745                           DLOAD    SL*                                   #  GET RLC AND ADJUST FOR SCALE SHIFT
003777: 26,2742           00045                                    36D
003778: 26,2743           20200                                    0          -1,1
003779: 26,2744           41316                           DSQ      DMP                                   #  MULTIPLY RLC**2 BY VARIANCE
003780: 26,2745           02707                                    VARIANCE
003781: 26,2746           47012                           SL4      RTB                                   #  SHIFT TO CONFORM TO BVECTORS AND DELTAQ
003782: 26,2747           21633                                    TPMODE
003783: 26,2750           36707                           STCALL   VARIANCE                              #  AND STORE TP VARIANCE
003784: 26,2751           55401                                    LGCUPDTE
003785:
003786: 26,2752           77624                           CALL
003787: 26,2753           11244                                    GRP2PC
003788: 26,2754           77414                           BON      EXIT                                  #  ARE ANGLES TO BE DONE
003789: 26,2755           04307                                    SURFFLAG
003790: 26,2756           55176                                    RENDEND                               #  NO
003791: 26,2757  E7,1457                                  EBANK=   AIG
003792: 26,2757           33332        MXMYMZ             CAF      AIGBANK
003793: 26,2760           54006                           TS       BBANK
003794: 26,2761           31457                           CA       AIG                                   #  YES, COMPUTE  MX, MY, MZ
003795: 26,2762           54766                           TS       CDUSPOT
003796: 26,2763           31460                           CA       AMG
003797: 26,2764           54770                           TS       CDUSPOT    +2
003798: 26,2765           31461                           CA       AOG
003799: 26,2766           54772                           TS       CDUSPOT    +4                         #  GIMBAL ANGLES NOW IN CDUSPOT FOR TRG*NBSM
003800: 26,2767           06037                           TC       INTPRET


003802: 26,2770           45175                           VLOAD    CALL
003803: 26,2771           06520                                    UNITX
003804: 26,2772           47664                                    TRG*NBSM
003805: 26,2773           76505                           VXM      VSL1
003806: 26,2774           01734                                    REFSMMAT
003807: 26,2775           27677                           STOVL    MX
003808: 26,2776           06516                                    UNITY
003809: 26,2777           77624                           CALL
003810: 26,3000           47673                                    *NBSM*
003811: 26,3001           76505                           VXM      VSL1
003812: 26,3002           01734                                    REFSMMAT
003813: 26,3003           27705                           STOVL    MY
003814: 26,3004           06514                                    UNITZ
003815: 26,3005           77624                           CALL
003816: 26,3006           47673                                    *NBSM*
003817: 26,3007           76505                           VXM      VSL1
003818: 26,3010           01734                                    REFSMMAT
003819: 26,3011           37713        SHAFTBQ            STCALL   MZ
003820: 26,3012           55361                                    RADARANG
003821: 26,3013           45131                           SSP      CALL                                  #  STORE SHAFT CODE (3) FOR R3 IN NOUN 49
003822: 26,3014           03746                                    WHCHREAD
003823: 26,3015           00003                           DEC      3          B-14
003824: 26,3016           11244                                    GRP2PC
003825: 26,3017           50375                           VLOAD    DOT                                   #  COMPUTE DELTAQ,B VECTORS FOR SHAFT ANG.
003826: 26,3020           03724                                    ULC
003827: 26,3021           03677                                    MX
003828: 26,3022           77752                           SL1
003829: 26,3023           24023                           STOVL    SINTH                                 #  18D
003830: 26,3024           03724                                    ULC
003831: 26,3025           72441                           DOT      SL1
003832: 26,3026           03713                                    MZ
003833: 26,3027           34021                           STCALL   COSTH                                 #  16D
003834: 26,3030           26510                                    ARCTAN
003835: 26,3031           41221                           BDSU     DMP
003836: 26,3032           03736                                    RRSHAFT
003837: 26,3033           15441                                    2PI/8
003838: 26,3034           41472                           SL3R     PUSH
003839: 26,3035           52545                           DLOAD    SL3
003840: 26,3036           01701                                    X789
003841: 26,3037           44257                           SRR*     BDSU                                  #  SHIFT FROM -5/-3 TO B0
003842: 26,3040           56176                                    0,2
003843: 26,3041           53605                           DMP      SRR*
003844: 26,3042           03722                                    RXZ
003845: 26,3043           21601                                    0,1                                   #  SHIFT TO EARTH/MOON SPHERE
003846: 26,3044           27547                           STOVL    DELTAQ                                #  EARTH B-29.  MOON B-27
003847: 26,3045           03724                                    ULC
003848: 26,3046           76435                           VXV      VSL1
003849: 26,3047           03705                                    MY
003850: 26,3050           77656                           UNIT
003851: 26,3051           57414                           BOFF     VCOMP                                 #  B0, COMP. IF CSM BEING CORRECTED


003853: 26,3052           00747                                    VEHUPFLG
003854: 26,3053           55054                                    +1
003855: 26,3054           27525                           STOVL    BVECTOR
003856: 26,3055           06522                                    ZEROVECS
003857: 26,3056           03533                           STORE    BVECTOR    +6
003858: 26,3057           17541                           STODL    BVECTOR    +12D
003859: 26,3060           03722                                    RXZ
003860: 26,3061           53657                           SR*      SRR*                                  #  SHIFT FROM EARTH/MOON SPHERE TO B-25
003861: 26,3062           20577                                    0          -2,1
003862: 26,3063           56176                                    0,2
003863: 26,3064           03541                           STORE    BVECTOR    +12D
003864: 26,3065           77735                           SLOAD
003865: 26,3066           02011                                    SHAFTVAR
003866: 26,3067           41215                           DAD      DMP
003867: 26,3070           15436                                    IMUVAR                                #  RAD**2 B12
003868: 26,3071           03722                                    RXZ
003869: 26,3072           41257                           SRR*     DMP
003870: 26,3073           21601                                    0,1                                   #  SHIFT TO EARTH/MOON SPHERE
003871: 26,3074           03722                                    RXZ
003872: 26,3075           53657                           SR*      SR*
003873: 26,3076           20577                                    0          -2,1
003874: 26,3077           57176                                    0,2
003875: 26,3100           47057                           SR*      RTB
003876: 26,3101           57176                                    0,2
003877: 26,3102           21633                                    TPMODE                                #  STORE VARIANCE TRIPLE PRECISION
003878: 26,3103           36707                           STCALL   VARIANCE                              #  B-40
003879: 26,3104           55401                                    LGCUPDTE
003880:
003881: 26,3105           77624                           CALL
003882: 26,3106           11244                                    GRP2PC
003883: 26,3107           77624        TRUNBQ             CALL
003884: 26,3110           55361                                    RADARANG
003885: 26,3111           45131                           SSP      CALL                                  #  STORE TRUNNION CODE (4) FOR R3 IN N49
003886: 26,3112           03746                                    WHCHREAD
003887: 26,3113           00004                           DEC      4          B-14
003888: 26,3114           11244                                    GRP2PC
003889: 26,3115           47375                           VLOAD    VXV
003890: 26,3116           03724                                    ULC
003891: 26,3117           03705                                    MY
003892: 26,3120           47372                           VSL1     VXV
003893: 26,3121           03724                                    ULC
003894: 26,3122           77772                           VSL1                                           #  (ULC X MY) X ULC
003895: 26,3123           57414                           BOFF     VCOMP                                 #  B0, COMP. IF CSM BEING CORRECTED
003896: 26,3124           00747                                    VEHUPFLG
003897: 26,3125           55126                                    +1
003898: 26,3126           27525                           STOVL    BVECTOR
003899: 26,3127           06522                                    ZEROVECS
003900: 26,3130           03533                           STORE    BVECTOR    +6
003901: 26,3131           17541                           STODL    BVECTOR    +12D
003902: 26,3132           03722                                    RXZ


003904: 26,3133           53657                           SR*      SRR*                                  #  SHIFT FROM EARTH/MOON SPHERE TO B-25
003905: 26,3134           20577                                    0          -2,1
003906: 26,3135           56176                                    0,2
003907: 26,3136           03543                           STORE    BVECTOR    +14D
003908: 26,3137           77735                           SLOAD
003909: 26,3140           02012                                    TRUNVAR
003910: 26,3141           41215                           DAD      DMP
003911: 26,3142           15436                                    IMUVAR
003912: 26,3143           03722                                    RXZ
003913: 26,3144           41257                           SRR*     DMP
003914: 26,3145           21601                                    0,1                                   #  SHIFT TO EARTH/MOON SPHERE
003915: 26,3146           03722                                    RXZ
003916: 26,3147           53657                           SR*      SR*
003917: 26,3150           20577                                    0          -2,1
003918: 26,3151           57176                                    0,2
003919: 26,3152           47057                           SR*      RTB
003920: 26,3153           57176                                    0,2
003921: 26,3154           21633                                    TPMODE                                #  STORE VARIANCE TRIPLE PRECISION
003922: 26,3155           16707                           STODL    VARIANCE
003923: 26,3156           03732                                    SINTHETA
003924: 26,3157           44336                           ASIN     BDSU                                  #  SIN THETA IN PD6
003925: 26,3160           03734                                    RRTRUN
003926: 26,3161           56405                           DMP      SL3R
003927: 26,3162           15441                                    2PI/8
003928: 26,3163           52525                           PDDL     SL3
003929: 26,3164           01703                                    X789       +2
003930: 26,3165           44257                           SRR*     BDSU                                  #  SHIFT FROM -5/-3 TO B0
003931: 26,3166           56176                                    0,2
003932: 26,3167           53605                           DMP      SRR*
003933: 26,3170           03722                                    RXZ
003934: 26,3171           21601                                    0,1
003935: 26,3172           37547                           STCALL   DELTAQ                                #  EARTH B-29.  MOON B-27
003936: 26,3173           55401                                    LGCUPDTE
003937: 26,3174           77624                           CALL
003938: 26,3175           11244                                    GRP2PC
003939: 26,3176           77650        RENDEND            GOTO
003940: 26,3177           50566                                    R22LEM93
003941:
003942:                                                                                                  #  FUNCTIONAL DESCRIPTION:
003943:                                                                                                  #        LSR22.4 IS THE ENTRY TO PERFORM LUNAR SURFACE NAVIGATION FOR THE LM
003944:                                                                                                  #        COMPUTER ONLY.  THIS ROUTINE COMPUTES THE BE-VECTORS AND DELTA Q FOR RANGE
003945:                                                                                                  #        AND RANGE RATE MEASURED BY THE RENDEZVOUS RADAR
003946:
003947:                                                                                                  #  SUBROUTINES CALLED:
003948:                                                                                                  #        INTSTALL        LGCUPDTE        INCORP1         RP-TO-R
003949:                                                                                                  #        INTEGRV         GETULC          INCORP2
003950:
003951:                                                                                                  #  OUTPUT
003952:                                                                                                  #        CORRECTED CSM STATE VECTOR (PERMANENT)
003953:                                                                                                  #        NUMBER OF MARKS INCORPORATED IN MARKCTR


003955:                                                                                                  #        MAGNITUDE OF POSITION DEVIATION (FOR DISPLAY) IN R22 DISP METERS B-29
003956:                                                                                                  #        MAGNITUDE OF VELOCITY DEVIATION (FOR DISPLAY) IN R22DISP +2 M/CSEC B-7
003957:                                                                                                  #        UPDATED W-MATRIX
003958:
003959:                                                                                                  #  ERASABLE INITIALIZATION REQUIRED
003960:                                                                                                  #        LM AND CSM STATE VECTORS
003961:                                                                                                  #        W-MATRIX
003962:                                                                                                  #        MARK TIME IN MKTIME
003963:                                                                                                  #        RADAR RANGE IN RM METERS B-29
003964:                                                                                                  #        RANGE RATE IN RDOTM METERS/CSEC B-7
003965:                                                                                                  #        VEHUPFLG
003966:
003967: 26,3200           77624        LSR22.4            CALL
003968: 26,3201           27414                                    INTSTALL
003969: 26,3202           43014                           SET      CLEAR
003970: 26,3203           01472                                    STATEFLG
003971: 26,3204           01674                                    VINTFLAG                              #  CALL TO GET LM POS + VEL IN REF COORD.
003972: 26,3205           77624                           CALL
003973: 26,3206           55242                                    INTGRCAL
003974: 26,3207           77624                           CALL
003975: 26,3210           11244                                    GRP2PC
003976: 26,3211           45014                           CLEAR    CALL
003977: 26,3212           02666                                    DMENFLG                               #  SET MATRIX SIZE TO 6X6 FOR INCORP
003978: 26,3213           27414                                    INTSTALL
003979: 26,3214           46145                           DLOAD    BHIZ                                  #  IS THIS FIRST TIME THROUGH
003980: 26,3215           03463                                    MARKCTR
003981: 26,3216           55231                                    INITWMX6                              #  YES, INITIALIZE 6X6 W-MATRIX
003982: 26,3217           43014                           CLEAR    SET
003983: 26,3220           01675                                    D6OR9FLG
003984: 26,3221           01476                                    DIM0FLAG
003985: 26,3222           43014                           SET      CLEAR
003986: 26,3223           01474                                    VINTFLAG
003987: 26,3224           01673                                    INTYPFLG
003988: 26,3225           77624                           CALL
003989: 26,3226           55242                                    INTGRCAL
003990: 26,3227           77650                           GOTO
003991: 26,3230           54510                                    RANGEBQ
003992:
003993: 26,3231           77624        INITWMX6           CALL
003994: 26,3232           55251                                    WLINIT                                #  INITIALIZE W-MATRIX
003995: 26,3233           45014                           SET      CALL
003996: 26,3234           01474                                    VINTFLAG
003997: 26,3235           26644                                    SETIFLGS
003998: 26,3236           77624                           CALL
003999: 26,3237           55242                                    INTGRCAL
004000: 26,3240           77650                           GOTO
004001: 26,3241           54510                                    RANGEBQ
004002:
004003:                                                                                                  #  THIS ROUTINE CLEARS RFINAL (DP) AND CALLS INTEGRV


004005: 26,3242           71220        INTGRCAL           STQ      DLOAD
004006: 26,3243           03675                                    IGRET
004007: 26,3244           03755                                    MKTIME
004008: 26,3245           34041                           STCALL   TDEC1
004009: 26,3246           27134                                    INTEGRV
004010: 26,3247           77650                           GOTO
004011: 26,3250           03675                                    IGRET
004012:
004013:                                                                                                  #  THIS ROUTINE INITIALIZES THE W-MATRIX BY ZEROING ALL W THEN SETTING
004014:                                                                                                  #  DIAGONAL ELEMENTS TO INITIAL STORED VALUES.
004015:
004016: 26,3251  E5,1400                                  EBANK=   W
004017: 26,3251           77776        WLINIT             EXIT
004018: 26,3252           33331                           CAF      WBANK
004019: 26,3253           54006                           TS       BBANK
004020: 26,3254           33437                           CAF      WSIZE
004021: 26,3255           55257                           TS       W.IND
004022: 26,3256           34755                           CAF      ZERO
004023: 26,3257           51257                           INDEX    W.IND
004024: 26,3260           55400                           TS       W
004025: 26,3261           11257                           CCS      W.IND
004026: 26,3262           03255                           TC       -5
004027: 26,3263           33332                           CAF      AIGBANK                               #  RESTORE EBANK 7
004028: 26,3264           54006                           TS       BBANK
004029: 26,3265           06037                           TC       INTPRET
004030: 26,3266           67214                           BON      SLOAD                                 #  IF ON LUNAR SURFACE, INITIALIZE WITH
004031: 26,3267           04307                                    SURFFLAG                              #  WSURFPOS AND WSURFVEL INSTEAD OF
004032: 26,3270           55274                                    WLSRFPOS                              #  WRENDPOS AND WRENDVEL
004033: 26,3271           02001                                    WRENDPOS
004034: 26,3272           77650                           GOTO
004035: 26,3273           55276                                    WPOSTORE
004036: 26,3274           77735        WLSRFPOS           SLOAD
004037: 26,3275           02007                                    WSURFPOS
004038: 26,3276           77661        WPOSTORE           SR                                             #  SHIFT TO B-19 SCALE
004039: 26,3277           20606                                    5
004040: 26,3300           02401                           STORE    W
004041: 26,3301           02411                           STORE    W          +8D
004042: 26,3302           02421                           STORE    W          +16D
004043: 26,3303           67214                           BON      SLOAD
004044: 26,3304           04307                                    SURFFLAG
004045: 26,3305           55311                                    WLSRFVEL
004046: 26,3306           02002                                    WRENDVEL
004047: 26,3307           77650                           GOTO
004048: 26,3310           55313                                    WVELSTOR
004049: 26,3311           77735        WLSRFVEL           SLOAD
004050: 26,3312           02010                                    WSURFVEL
004051: 26,3313           02511        WVELSTOR           STORE    W          +72D
004052: 26,3314           02521                           STORE    W          +80D
004053: 26,3315           02531                           STORE    W          +88D
004054: 26,3316           77735                           SLOAD


004056: 26,3317           02003                                    WSHAFT
004057: 26,3320           02621                           STORE    W          +144D
004058: 26,3321           77735                           SLOAD
004059: 26,3322           02004                                    WTRUN
004060: 26,3323           02631                           STORE    W          +152D
004061: 26,3324           66214                           SET      SSP                                   #  SET RENDWFLG -- W-MATRIX VALID
004062: 26,3325           02476                                    RENDWFLG
004063: 26,3326           03463                                    MARKCTR                               #  SET MARK COUNTER EQUAL ZERO
004064: 26,3327           00000                                    0
004065: 26,3330           77616                           RVQ
004066:
004067: 26,3331  E5,1400                                  EBANK=   W
004068: 26,3331           54065        WBANK              BBCON    WLINIT
004069: 26,3332  E7,1457                                  EBANK=   AIG
004070: 26,3332           54067        AIGBANK            BBCON    LSR22.3
004071:
004072:                                                                                                  #  GETULC
004073:
004074:                                                                                                  #  THIS SUBROUTINE COMPUTES THE RELATIVE POSITION VECTOR BETWEEN THE CSM
004075:                                                                                                  #  AND THE LM, LEAVING THE UNIT VECTOR IN THE PUSHLIST AND MPAC AND THE
004076:                                                                                                  #  MAGNITUDE IN 36D.
004077:
004078: 26,3333           77201        GETULC             SETPD    VLOAD
004079: 26,3334           00001                                    0
004080: 26,3335           01645                                    DELTALEM
004081: 26,3336           77754                           LXA,2
004082: 26,3337           03720                                    SCALSHFT                              #  LOAD X2 WITH SCALE SHIFT
004083: 26,3340           53257                           VSR*     VAD
004084: 26,3341           57165                                    9D,2                                  #  SHIFT FOR EARTH/MOON SPHERE
004085: 26,3342           01661                                    RCVLEM
004086: 26,3343           53715                           PDVL     VSR*
004087: 26,3344           01573                                    DELTACSM
004088: 26,3345           57165                                    9D,2                                  #  SHIFT FOR EARTH/MOON SPHERE
004089: 26,3346           52255                           VAD      VSU
004090: 26,3347           01607                                    RCVCSM
004091: 26,3350           41434                           RTB      PUSH                                  #  USE NORMUNIT TO PRESERVE ACCURACY
004092: 26,3351           21724                                    NORMUNX1
004093: 26,3352           17724                           STODL    ULC
004094: 26,3353           00045                                    36D
004095: 26,3354           77657                           SL*                                            #  ADJUST MAGNITUDE FROM NORMUNIT
004096: 26,3355           20201                                    0,1
004097: 26,3356           24045                           STOVL    36D                                   #  ULC IN PD0 AND MPAC,RLC IN 36D
004098: 26,3357           03724                                    ULC
004099: 26,3360           77616                           RVQ
004100:
004101:                                                                                                  #  RADARANG
004102:
004103:                                                                                                  #  THIS SUBROUTINE COMPUTS SINTHETA = -ULC DOT MY
004104:                                                                                                  #  RXZ = (SQRT (1-SINTHETA**2))RLC
004105:                                                                                                  #  OUTPUT
004106:                                                                                                  #        ULC IN ULC, PD0


004108:                                                                                                  #        RLC IN PD36D
004109:                                                                                                  #        SIN THETA IN SINTHETA AND PD6
004110:                                                                                                  #        RXZ NORM IN RXZ (N IN X1)
004111:
004112: 26,3361           45020        RADARANG           STQ      CALL
004113: 26,3362           03675                                    RDRET
004114: 26,3363           55333                                    GETULC
004115: 26,3364           50276                           VCOMP    DOT
004116: 26,3365           03705                                    MY
004117: 26,3366           41572                           SL1R     PUSH                                  #  SIN THETA TO PD6
004118: 26,3367           03732                           STORE    SINTHETA
004119: 26,3370           44316                           DSQ      BDSU
004120: 26,3371           06512                                    DP1/4TH                               #  1-(SIN THETA)**2
004121: 26,3372           41366                           SQRT     DMP
004122: 26,3373           00045                                    36D
004123: 26,3374           60352                           SL1      NORM
004124: 26,3375           00047                                    X1                                    #  SET SHIFT COUNTER IN X1
004125: 26,3376           03722                           STORE    RXZ
004126: 26,3377           77650                           GOTO                                           #  EXIT
004127: 26,3400           03675                                    RDRET
004128: 26,3401           45020        LGCUPDTE           STQ      CALL
004129: 26,3402           03675                                    LGRET
004130: 26,3403           46531                                    INCORP1
004131: 26,3404           51575                           VLOAD    ABVAL
004132: 26,3405           02673                                    DELTAX     +6
004133: 26,3406           53754                           LXA,2    SRR*
004134: 26,3407           03720                                    SCALSHFT                              #  0 -- MOON.  2 -- EARTH
004135: 26,3410           56174                                    2,2                                   #  SET VEL DISPLAY TO B-7
004136: 26,3411           24317                           STOVL    R22DISP    +2
004137: 26,3412           02665                                    DELTAX
004138: 26,3413           53646                           ABVAL    SRR*
004139: 26,3414           56174                                    2,2                                   #  SET POS DISPLAY TO B-29
004140: 26,3415           00315                           STORE    R22DISP
004141: 26,3416           54335                           SLOAD    SR
004142: 26,3417           02005                                    RMAX
004143: 26,3420           20613                                    10D
004144: 26,3421           50025                           DSU      BMN
004145: 26,3422           00315                                    R22DISP
004146: 26,3423           50572                                    R22LEM96                              #  GO DISPLAY
004147: 26,3424           45335                           SLOAD    DSU
004148: 26,3425           02006                                    VMAX
004149: 26,3426           00317                                    R22DISP    +2                         #  VMAX MINUS VEL. DEVIATION
004150: 26,3427           77640                           BMN
004151: 26,3430           50572                                    R22LEM96                              #  GO DISPLAY
004152: 26,3431           77624        ASTOK              CALL
004153: 26,3432           46743                                    INCORP2
004154: 26,3433           77650                           GOTO
004155: 26,3434           03675                                    LGRET
004156: 26,3435           00103 03370  IMUVAR             2DEC     E-6        B12                        #  RAD**2
004157:
004158: 26,3437           00241        WSIZE              DEC      161        B-14


004160: 26,3440           31103 36652  2PI/8              2DEC     3.141592653 B-2
004161:
004162: 26,3442  E7,1456                                  EBANK=   LOSCOUNT


004164:
004165:                                                                                                  #  PROGRAM NAME LRS24.1          RR SEARCH ROUTINE
004166:                                                                                                  #  MCD NO. 0                     BY P. VOLANTE, SDC              DATE 1-15-67
004167:
004168:                                                                                                  #  FUNCTIONAL DESCRIPTION
004169:
004170:                                                                                                  #  DRIVES THE RENDEZVOUS RADAR IN A HEXAGONAL SEARCH PATTERN ABOUT THE LOS TO THE CSM (COMPUTED FROM THE CSM AND LM
004171:                                                                                                  #  STATE VECTORS) CHECKING FOR THE DATA GOOD DISCRETE AND MONITORING THE ANGLE BETWEEN THE RADAR BORESIGHT AND THE
004172:                                                                                                  #  LM +Z AXIS.  IF THIS ANGLE EXCEEDS 30 DEGREES THE PREFERRED TRACKING ATTITUDE ROUTINE IS CALLED TO PERFORM AN
004173:                                                                                                  #  ATTITUDE MANEUVER.
004174:
004175:                                                                                                  #  CALLING SEQUENCE -- BANKCALL FOR LRS24.1
004176:
004177:                                                                                                  #  SUBROUTINES CALLED
004178:
004179:                                                                                                  #        LEMCONIC        R61LEM
004180:                                                                                                  #        CSMCONIC        RRDESSM
004181:                                                                                                  #        JOBDELAY        FLAGDOWN
004182:                                                                                                  #        WAITLIST        FLAGUP
004183:                                                                                                  #        RRNB            BANKCALL
004184:
004185:                                                                                                  #  EXIT -- TO ENDOFJOB WHEN THE SEARCH FLAG (SRCHOPT) IS NOT SET
004186:
004187:                                                                                                  #  OUTPUT
004188:
004189:                                                                                                  #        DATAGOOD (SP) -- FOR DISPLAY IN R1 --   00000 INDICATES NO LOCKON
004190:                                                                                                  #                                                11111 INDICATES LOCKON ACHIEVED
004191:                                                                                                  #        OMEGAD (SP)   -- FOR DISPLAY IN R2 --   ANGLE BETWEEN RR BORESIGNT VECTOR AND THE SPACECRAFT +Z AXIS
004192:
004193:                                                                                                  #  ERASABLE INITIALIZATION REQUIRED:
004194:
004195:                                                                                                  #        SEARCH FLAG MUST BE SET
004196:                                                                                                  #        LM AND CSM STATE VECTORS AND REFSMMAT MATRIX
004197:
004198:                                                                                                  #  DEBRIS
004199:
004200:                                                                                                  #        RLMSRCH         UXVECT
004201:                                                                                                  #        VXRLM           UYVECT
004202:                                                                                                  #        LOSDESRD        NSRCHPNT
004203:                                                                                                  #        DATAGOOD        OMEGAD
004204:                                                                                                  #        MPAC            PUSHLIST
004205:
004206: 26,3442                                           COUNT*   $$/LRS24
004207: 26,3442           34755        LRS24.1            CAF      ZERO
004208: 26,3443           55736                           TS       NSRCHPNT                              #  SET SEARCH PATTERN POINT COUNTER TO ZERO
004209: 26,3444           34736        CHKSRCH            CAF      BIT14                                 #  ISSUE AUTO TRACK ENABLE TO RADAR
004210: 26,3445           00006                           EXTEND


004212: 26,3446           05012                           WOR      CHAN12
004213: 26,3447           34736                           CAF      SRCHOBIT                              #  CHECK IF SEARCH STILL REQUESTED
004214: 26,3450           70076                           MASK     FLAGWRD2                              #  (SRCHOPT FLAG SET)
004215: 26,3451           00006                           EXTEND
004216: 26,3452           15155                           BZF      ENDOFJOB                              #  NO-TERMINATE JOB
004217:
004218: 26,3453           33713                           CAF      6SECONDS                              #  SCHEDULE TASK TO DRIVE RADAR TO NEXT PT.
004219: 26,3454           00004                           INHINT
004220: 26,3455           05203                           TC       WAITLIST                              #  IN 6 SECONDS
004221: 26,3456  E7,1456                                  EBANK=   LOSCOUNT
004222: 26,3456           03643 54067                     2CADR    CALLDGCH
004223:
004224: 26,3460           00003                           RELINT
004225: 26,3461           40110                           CS       RADMODES                              #  IS REMODE IN PROGRESS
004226: 26,3462           74736                           MASK     REMODBIT
004227: 26,3463           00006                           EXTEND
004228: 26,3464           15155                           BZF      ENDOFJOB                              #  YES -- WAIT SIX SECONDS
004229: 26,3465           06037                           TC       INTPRET
004230:
004231: 26,3466           43234                           RTB      DAD                                   #  COMPUTE LOS AT PRESENT TIME + 1.5 SEC.
004232: 26,3467           21573                                    LOADTIME
004233: 26,3470           15715                                    1.5SECS
004234: 26,3471           34041        LRS24.11           STCALL   TDEC1
004235: 26,3472           27100                                    LEMCONIC                              #  EXTRAPOLATE LM STATE VECTOR
004236: 26,3473           77775                           VLOAD
004237: 26,3474           00001                                    RATT
004238: 26,3475           27676                           STOVL    RLMSRCH                               #  SAVE LEM POSITION
004239: 26,3476           00007                                    VATT
004240: 26,3477           17740                           STODL    SAVLEMV                               #  SAVE LEM VELOCITY
004241: 26,3500           00015                                    TAT
004242: 26,3501           34041                           STCALL   TDEC1                                 #  EXTRAPOLATE CSM STATE VECTOR
004243: 26,3502           27066                                    CSMCONIC                              #  EXTRAPOLATE CSM STATE VECTOR
004244: 26,3503           52375                           VLOAD    VSU                                   #  LOS VECTOR = R(CSM) - R(LM)
004245: 26,3504           00001                                    RATT
004246: 26,3505           03676                                    RLMSRCH
004247: 26,3506           77656                           UNIT
004248: 26,3507           27712                           STOVL    LOSDESRD                              #  STORE DESIRED LOS
004249: 26,3510           00007                                    VATT                                  #  COMPUTE UNIT(V(CM) CROSS R(CM))
004250: 26,3511           47256                           UNIT     VXV
004251: 26,3512           00001                                    RATT
004252: 26,3513           77656                           UNIT
004253: 26,3514           03704                           STORE    VXRCM
004254: 26,3515           52375                           VLOAD    VSU
004255: 26,3516           00007                                    VATT
004256: 26,3517           03740                                    SAVLEMV
004257: 26,3520           76521                           MXV      VSL1                                  #  CONVERT FROM REFERENCE TO STABLE MEMBER
004258: 26,3521           01734                                    REFSMMAT
004259: 26,3522           03740                           STORE    SAVLEMV                               #  VLC = V(CSM) - V(LM)
004260: 26,3523           53135                           SLOAD    BZE                                   #  CHECK IF N=0


004262: 26,3524           03737                                    NSRCHPNT
004263: 26,3525           55636                                    DESGLOS                               #  YES -- DESIGNATE ALONG LOS
004264: 26,3526           53025                           DSU      BZE                                   #  IS N=1
004265: 26,3527           15711                                    ONEOCT                                #  YES -- CALCULATE X AND Y AXES OF
004266: 26,3530           55623                                    CALCXY                                #  SEARCH PATTERN COORDINATE SYSTEM
004267: 26,3531           77775                           VLOAD                                          #  NO -- ROTATE X-Y AXES TO NEXT SEARCH POINT
004268: 26,3532           03720                                    UXVECT
004269: 26,3533           24015                           STOVL    UXVECTPR                              #  SAVE ORIGINAL X AND Y VECTORS
004270: 26,3534           03726                                    UYVECT                                #  UXPRIME = ORIGINAL UX
004271: 26,3535           00023                           STORE    UYVECTPR                              #  UYPRIME = ORIGINAL UY
004272: 26,3536           77761                           VXSC
004273: 26,3537           15705                                    SIN60DEG                              #  UX = (COS 60)UXPR + (SIN 60)UYPR
004274: 26,3540           27720                           STOVL    UXVECT
004275: 26,3541           00015                                    UXVECTPR
004276: 26,3542           53361                           VXSC     VAD
004277: 26,3543           06520                                    COS60DEG
004278: 26,3544           03720                                    UXVECT
004279: 26,3545           77656                           UNIT
004280: 26,3546           27720                           STOVL    UXVECT
004281: 26,3547           00015                                    UXVECTPR                              #  UY = (-SIN 60)UXPR + (COS 60)UYPR
004282: 26,3550           77761                           VXSC
004283: 26,3551           15705                                    SIN60DEG
004284: 26,3552           27726                           STOVL    UYVECT
004285: 26,3553           00023                                    UYVECTPR
004286: 26,3554           52361                           VXSC     VSU
004287: 26,3555           06520                                    COS60DEG
004288: 26,3556           03726                                    UYVECT
004289: 26,3557           77656                           UNIT
004290: 26,3560           03726                           STORE    UYVECT
004291: 26,3561           53361        OFFCALC            VXSC     VAD                                   #  OFFSET VECTOR = K(UY)
004292: 26,3562           15707                                    OFFSTFAC                              #  LOS VECTOR + OFFSET VECTOR DEFINES
004293: 26,3563           03712                                    LOSDESRD                              #  DESIRED POINT IN SEARCH PATTERN
004294: 26,3564           64256                           UNIT     MXV
004295: 26,3565           01734                                    REFSMMAT                              #  CONVERT TO STABLE MEMBER COORDINATES
004296: 26,3566           77772                           VSL1
004297: 26,3567           25102        CONTDESG           STOVL    RRTARGET
004298: 26,3570           03740                                    SAVLEMV
004299: 26,3571           01761                           STORE    LOSVEL
004300: 26,3572           77776                           EXIT
004301: 26,3573           00004                           INHINT
004302: 26,3574           06027                           TC       KILLTASK                              #  KILL ANY PRESENTLY WAITLISTED TASK
004303: 26,3575           52602                           CADR     DESLOOP    +2                         #  WHICH WOULD DESIGNATE TO THE LAST
004304:                                                                                                  #  POINT IN THE PATTERN
004305: 26,3576           44735        CONTDES2           CS       CDESBIT
004306: 26,3577           70110                           MASK     RADMODES                              #  SET BIT 15 OF RADMODES TO INDICATE
004307: 26,3600           64735                           AD       CDESBIT                               #  A CONTINUOUS DESIGNATE WANTED.
004308: 26,3601           54110                           TS       RADMODES
004309: 26,3602           06037                           TC       INTPRET
004310:
004311: 26,3603           77624                           CALL


004313: 26,3604           52373                                    RRDESSM                               #  DESIGNATE RADAR TO RRTARGET VECTOR
004314:
004315: 26,3605           77776                           EXIT
004316: 26,3606           03675                           TC       LIMALARM                              #  LOS NOT IN MODE 2 COVERAGE (P22)
004317: 26,3607           03675                           TC       LIMALARM                              #  VEHICLE MANEUVER REQUIRED (P20)
004318:
004319:                                                                                                  #  COMPUTE OMEGA,ANGLE BETWEEN RR LOS AND
004320:                                                                                                  #  SPACECRAFT +Z AXIS
004321: 26,3610           00006        OMEGCALC           EXTEND
004322: 26,3611           30036                           DCA      CDUT
004323: 26,3612           53753                           DXCH     TANGNB
004324: 26,3613           06037                           TC       INTPRET
004325: 26,3614           77624                           CALL
004326: 26,3615           46041                                    RRNB
004327: 26,3616           65545                           DLOAD    ACOS                                  #  OMEGA IS ARCCOSINE OF Z-COMPONENT OF
004328: 26,3617           00045                                    36D                                   #  VECTOR COMPUTED BY RRNB (LEFT AT 32D)
004329: 26,3620           03735                           STORE    OMEGDISP                              #  STORE FOR DISPLAY IN R2
004330: 26,3621           77776                           EXIT
004331: 26,3622           05155                           TC       ENDOFJOB


004333:                                                                                                  #  CALCULATE X AND Y VECTORS FOR SEARCH PATTERN COORDINATE SYSTEM.
004334:
004335: 26,3623           47375        CALCXY             VLOAD    VXV
004336: 26,3624           03704                                    VXRCM
004337: 26,3625           03712                                    LOSDESRD
004338: 26,3626           77656                           UNIT
004339: 26,3627           27720                           STOVL    UXVECT                                #  UX = (VLM X RLM) X LOS
004340: 26,3630           03712                                    LOSDESRD
004341: 26,3631           53435                           VXV      UNIT
004342: 26,3632           03720                                    UXVECT
004343: 26,3633           03726                           STORE    UYVECT                                #  UY = LOS X UX
004344: 26,3634           77650                           GOTO
004345: 26,3635           55561                                    OFFCALC
004346:
004347: 26,3636           64375        DESGLOS            VLOAD    MXV                                   #  WHEN N= 0,DESIGNATE ALONG LOS
004348: 26,3637           03712                                    LOSDESRD
004349: 26,3640           01734                                    REFSMMAT                              #  CONVERT LOS FROM REFERENCE TO SM COORDS
004350: 26,3641           52172                           VSL1     GOTO
004351: 26,3642           55567                                    CONTDESG
004352:
004353: 26,3643           30074        CALLDGCH           CAE      FLAGWRD0                              #  IS RENDEZVOUS FLAG SET
004354: 26,3644           74745                           MASK     RNDVZBIT
004355: 26,3645           00006                           EXTEND
004356: 26,3646           15261                           BZF      TASKOVER                              #  NO -- EXIT R24
004357: 26,3647           37713                           CAF      PRIO25                                #  YES -- SCHEDULE JOB TO DRIVE RADAR TO NEXT
004358: 26,3650           05105                           TC       FINDVAC                               #  PONT IN SEARCH PATTERN
004359: 26,3651  E7,1675                                  EBANK=   RLMSRCH
004360: 26,3651           03654 54067                     2CADR    DATGDCHK
004361:
004362: 26,3653           05261                           TC       TASKOVER
004363:
004364: 26,3654           34750        DATGDCHK           CAF      BIT4
004365: 26,3655           00006                           EXTEND                                         #  CHECK IF DATA GOOD DISCRETE PRESENT
004366: 26,3656           02033                           RAND     CHAN33
004367: 26,3657           00006                           EXTEND
004368: 26,3660           13667                           BZF      STORE1S                               #  YES -- GO TO STORE 11111 FOR DISPLAY IN R1
004369: 26,3661           46242                           CS       SIX
004370: 26,3662           61736                           AD       NSRCHPNT                              #  IS N GREATER THAN 6
004371: 26,3663           00006                           EXTEND
004372: 26,3664           13442                           BZF      LRS24.1                               #  YES -- RESET N = 0 AND START AROUND AGAIN
004373: 26,3665           25736                           INCR     NSRCHPNT                              #  NO -- SET N = N+1 AND GO TO
004374: 26,3666           13444                           TCF      CHKSRCH                               #  NEXT POINT IN PATTERN
004375:
004376: 26,3667           33703        STORE1S            CAF      ALL1S                                 #  STORE 11111 FOR DISPLAY IN R1
004377: 26,3670           55733                           TS       DATAGOOD


004379: 26,3671           00004                           INHINT
004380: 26,3672           06027                           TC       KILLTASK                              #  DELETE DESIGNATE TASK FROM
004381: 26,3673           52602                           CADR     DESLOOP    +2                         #  WAITLIST USING KILLTASK
004382: 26,3674           05155                           TC       ENDOFJOB
004383:
004384: 26,3675           05567        LIMALARM           TC       ALARM                                 #  ISSUE ALARM 527 -- LOS NOT IN MODE2
004385: 26,3676           00527                           OCT      527                                   #  COVERAGE IN P22 OR VEHICLE MANEUVER
004386: 26,3677           00004                           INHINT                                         #  REQUIRED IN P20
004387: 26,3700           06027                           TC       KILLTASK                              #  KILL WAITLIST CALL FOR NEXT
004388: 26,3701           55643                           CADR     CALLDGCH                              #  POINT IN SEARCH PATTERN
004389: 26,3702           05155                           TC       ENDOFJOB
004390:
004391: 26,3703           25547        ALL1S              DEC      11111      B-14
004392: 26,3704           33555 01106  SIN60DEG           2DEC     .86603
004393: 26,3706  23,2517               COS60DEG           =        DPHALF                                #  (2DEC .50)
004394: 26,3706                        UXVECTPR           EQUALS   12D                                   #  PREVIOUS
004395: 26,3706                        UYVECTPR           EQUALS   18D
004396: 26,3706                        RLMUNIT            EQUALS   12D
004397: 26,3706           01642 11045  OFFSTFAC           2DEC     0.05678                               #  TANGENT OF 3.25 DEGREES
004398:
004399: 26,3710           00001        ONEOCT             OCT      00001                                 #  **** NOTE -- THESE TWO CONSTANTS MUST ****
004400: 26,3711           00000 00454  3SECONDS           2DEC     300        B-28                       #  **** BE IN THIS ORDER BECAUSE         ****
004401:
004402:                                                                                                  #  **** ONEOCT NEEDS A LOWER ORDER       ****
004403:                                                                                                  #  **** WORD OF ZEROES                   ****
004404: 26,3713           01130        6SECONDS           DEC      600        B-14
004405: 26,3714           00000 00226  1.5SECS            2DEC     150        B-28
004406:
004407: 26,3716  23,2521               ZERO/SP            EQUALS   HI6ZEROS
004408:
004409:    4616                                           BLOCK    02
004410:    6000                                           SETLOC   FFTAG5
004411:    6000                                           BANK
004412:    6022                                           COUNT*   $$/P20
004413:    6022           00006        GOTOV56            EXTEND                                         #  P20 TERMINATES BY GOTOV56 INSTEAD OF
004414:    6023           36026                           DCA      VB56CADR                              #  GOTOP00H
004415:    6024           15165                           TCF      SUPDXCHZ
004416:    6025  E7,1471                                  EBANK=   WHOCARES
004417:    6025           03024 66107  VB56CADR           2CADR    TRMTRACK
004418:


004420:                                                                                                  #  PROGRAM NAME: R29     (RENDEZVOUS RADAR DESIGNATE DURING POWERED FLIGHT)
004421:                                                                                                  #  MOD NO. 2     BY H. BLAIR-SMITH       JULY 2, 1968
004422:
004423:                                                                                                  #  FUNCTIONAL DESCRIPTION:
004424:
004425:                                                                                                  #        DESIGNATES THE RENDEZVOUS RADAR TOWARD THE COMPUTES LOS TO THE CSM, WITH THE CHIEF OBJECTIVE OF OBTAINING RANGE
004426:                                                                                                  #        AND RANGE RATE DATA AT 2-SECOND INTERVALS FOR TRANSMISSION TO THE GROUND.  WHEN THE RR IS WITHIN .5 DEGREE OF
004427:                                                                                                  #        THE COMPUTED LOS, TRACKING IS ENABLED, AND DESIGNATION CONTINUES UNTIL THE DATA-GOOD DISCRETE IS RECEIVED.  AT
004428:                                                                                                  #        THAT POINT, DESIGNATION CEASES AND A RADAR-READING ROUTINE TAKES OVER, PREPARING A CONSISTENT SET OF DATA FOR
004429:                                                                                                  #        DOWN TELEMETRY.  THE SET INCLUDES RANGE, RANGE RATE, MARK TIME, TWO RR CDU ANGLES, THREE IMUCDU ANGLES, AND AN
004430:                                                                                                  #        INDICATOR WHICH IS 1 WHEN THE SET IS CONSISTENT AND 0 OTHERWISE.  THE INDICATOR IS IN TRKMKCNT.
004431:
004432:                                                                                                  #  CALLING SEQUENCE:  BEGUN EVERY 2 SECONDS AS AN INTEGRAL PART OF SERVICER
004433:
004434:                                                                                                  #  SUBROUTINES CALLED:
004435:
004436:                                                                                                  #        REMODE          RRPONLY
004437:                                                                                                  #        UNIT            MPACVBUF
004438:                                                                                                  #        QUICTRIG        AX*SR*T
004439:                                                                                                  #        SPSIN           SPCOS
004440:                                                                                                  #        SETRRECR        RROUT
004441:                                                                                                  #        RRRDOT          RRRANGE
004442:
004443:                                                                                                  #  EXIT:  TO NOR29NOW, IN SERVICER.
004444:
004445:                                                                                                  #  OUTPUT:  (ALL FOR DOWNLINK)
004446:
004447:                                                                                                  #        RM              RDOTM           (RAW)
004448:                                                                                                  #        AIG             AMG
004449:                                                                                                  #        AOG             TRKMKCNT        TRKMKCNT = 00001 IF SET IS CONSISTENT,
004450:                                                                                                  #        TANGNB          TANGNB +1       OTHERWISE TRKMKCNT = 00000.
004451:                                                                                                  #        MKTIME


004453:
004454:                                                                                                  #  ERASABLE INITIALIZATION REQUIRED:
004455:
004456:                                                                                                  #        NOR29FLG        READRFLG                (TO 1 AND 0 BY FRESH START) (RESET NOR29FLG TO LET SERVICER RUN R29)
004457:                                                                                                  #        PIPTIME         RADMODES (BIT 10)       (BIT SET TO 0 BY FRESH START)
004458:                                                                                                  #        R(CSM)          V(CSM)
004459:                                                                                                  #        R               V                       (PIPTIME THRU V BY AVE G IN SERVICER)
004460:
004461:                                                                                                  #  DEBRIS:
004462:
004463:                                                                                                  #        RADMODES (BIT 10)
004464:                                                                                                  #        LOSSM           LOSVDT/4                (= RRTARGET & LOSVEL)
004465:                                                                                                  #        SAVECDUT        OLDESFLG                (SAVECDUT = MLOSV)
004466:                                                                                                  #        LOSCMFLG        READRFLG
004467:
004468:                                                                                                  #  ALARMS:  NONE.
004469:
004470:                                                                                                  #  COMPONENT JOBS AND TASKS:
004471:
004472:                                                                                                  #        INITIALIZING, IF RR IS FOUND TO BE IN MODE 1:  JOB R29REMOJ AND TASK REMODE:  ALWAYS: TASK PREPOS29.
004473:                                                                                                  #        DESIGNATING:  TASK BEGDES29 & JOB R29DODES.
004474:                                                                                                  #        RADAR READING:  TASK R29READ AND JOB R29RDJOB.  ALL JOBS ARE NOVAC TYPE.
004475:
004476: 33,2045                                           BANK     33
004477: 33,2000                                           SETLOC   R29/SERV
004478: 33,2000                                           BANK
004479:
004480: 33,2045                                           COUNT*   $$/r29
004481:
004482: 33,2045     5014               NR29&RDR           EQUALS   EBANK5
004483:


004485:                                                                                                  #  SERVICER COMES TO R29 FROM "R29?" IF NOR29FLG, READRFLG, RRREMODE, RRCDUZRO, RRREPOS, AND DISPLAY-INERTIAL-DATA
004486:                                                                                                  #  ARE ALL RESET, AND THE RR IS IN LGC MODE (OFTEN CONFUSINGLY CALLED AUTO MODE).
004487:
004488: 33,2045           40110        R29                CS       RADMODES
004489: 33,2046           74742                           MASK     DESIGBIT
004490: 33,2047           00006                           EXTEND
004491: 33,2050           12123                           BZF      R29.LOS                               #  BRANCH IF DESIGNATION IS ALREADY ON.
004492:
004493: 33,2051           00004                           INHINT
004494: 33,2052           26110                           ADS      RADMODES                              #  SHOW THAT DESIGNATION IS NOW ON.
004495: 33,2053           44736                           CS       BIT14
004496: 33,2054           00006                           EXTEND
004497: 33,2055           03012                           WAND     CHAN12                                #  REMOVE RR TRACK ENABLE DISCRETE.
004498: 33,2056           44740                           CS       LOSCMBIT
004499: 33,2057           70076                           MASK     FLAGWRD2
004500: 33,2060           54076                           TS       FLAGWRD2                              #  CLEAR LOSCMFLG TO SHOW DES. LOOP IS OFF.
004501: 33,2061           44753                           CS       OLDESBIT
004502: 33,2062           70074                           MASK     STATE
004503: 33,2063           54074                           TS       STATE                                 #  SHOW THAT DES. LOOP IS NOT REQUESTED.
004504: 33,2064           04616                           TC       BANKCALL
004505: 33,2065           52156                           CADR     SETRRECR                              #  ENABLE RR ERROR COUNTERS.
004506: 33,2066           34740                           CA       ANTENBIT
004507: 33,2067           70110                           MASK     RADMODES
004508: 33,2070           10000                           CCS      A                                     #  TEST RR MODE BIT.
004509: 33,2071           12104                           TCF      SETPRPOS                              #  MODE 2.
004510:
004511: 33,2072           35031                           CA       PRIO21                                #  MODE 1:  MUST REMODE.
004512: 33,2073           05072                           TC       NOVAC
004513: 33,2074  E7,1456                                  EBANK=   LOSCOUNT
004514: 33,2074           02113 66067                     2CADR    R29REM0J                              #  NEEDS OWN JOB TO RADSTALL IN.
004515:
004516: 33,2076           44742                           CS       DESIGBIT
004517: 33,2077           70110                           MASK     RADMODES                              #  CLEAR DESIGNATE FLAG IN RADMODES
004518: 33,2100           54110                           TS       RADMODES                              #  BEFORE CALLING REMODE
004519: 33,2101           34736                           CA       REMODBIT
004520: 33,2102           26110                           ADS      RADMODES                              #  SHOW THAT REMODING IS ON.
004521: 33,2103           12570                           TCF      NOR29NOW                              #  CONTINUE SERVICER FUNCTIONS.
004522:
004523: 33,2104           34753        SETPRPOS           CA       ONE
004524: 33,2105           05203                           TC       WAITLIST
004525: 33,2106  E7,1456                                  EBANK=   LOSCOUNT
004526: 33,2106           03601 52067                     2CADR    PREPOS29                              #  TASK TO SET TRUNNION ANGLE TO 180 DEG.
004527:
004528: 33,2110           34741                           CA       REPOSBIT
004529: 33,2111           26110                           ADS      RADMODES                              #  SHOW THAT REPOSITIONING IS ON.
004530: 33,2112           12570                           TCF      NOR29NOW
004531:


004533:                                                                                                  #  FORCE RENDEZVOUS RADAR INTO MODE 2.
004534:
004535: 33,2113           34753        R29REM0J           CA       ONE
004536: 33,2114           05203                           TC       WAITLIST
004537: 33,2115  E7,1456                                  EBANK=   LOSCOUNT
004538: 33,2115           02171 52067                     2CADR    REMODE                                #  REMODE MUST RUN AS A TASK.
004539:
004540: 33,2117           04616                           TC       BANKCALL                              #  WAIT FOR END OF REMODING
004541: 33,2120           17714                           CADR     RADSTALL
004542:
004543: 33,2121           15155                           TCF      ENDOFJOB                              #  BAD EXIT CAN'T HAPPEN.
004544: 33,2122           15155                           TCF      ENDOFJOB
004545:
004546:                                                                                                  #  TASK TO PREPOSITION THE RR TRUNNION ANGLE TO -180 DEG.
004547:
004548: 25,2000                                           SETLOC   R29S1
004549: 25,2000                                           BANK
004550:
004551: 25,3601           34735        PREPOS29           CA       NEGMAX                                #  -180 DEG.
004552: 25,3602           02241                           TC       RRTONLY                               #  DRIVE TRUNNION CDU.
004553: 25,3603           44741                           CS       REPOSBIT                              #  SHOW THAT REPOSITIONING IS OFF.
004554: 25,3604           70110                           MASK     RADMODES
004555: 25,3605           54110                           TS       RADMODES
004556: 25,3606           15261                           TCF      TASKOVER
004557:
004558:                                                                                                  #  COMPUTE THE LINE-OF-SIGHT AND LOS VELOCITY, AND PASS THEM TO THE R29DODES LOOP.
004559:
004560: 33,2045                                           SETLOC   R29
004561: 33,2045                                           BANK
004562:
004563: 33,2123           00006        R29.LOS            EXTEND
004564: 33,2124           41235                           DCS      PIPTIME
004565: 33,2125           52155                           DXCH     MPAC
004566: 33,2126           00006                           EXTEND
004567: 33,2127           30025                           DCA      TIME2
004568: 33,2130           20155                           DAS      MPAC                                  #  (MPAC) = T-PIPTIME, SCALED B-28.
004569: 33,2131           54163                           TS       MODE                                  #  SET MODE TO DOUBLE PRECISION.
004570: 33,2132           30155                           CA       MPAC       +1
004571: 33,2133           00006                           EXTEND
004572: 33,2134           74740                           MP       BIT12
004573: 33,2135           52155                           DXCH     MPAC                                  #  T-PIPTIME NOW SCALED B-17.
004574: 33,2136           06037                           TC       INTPRET


004576:                                                                                                  #  LOSCMFLG = 0 MEANS THAT THE DESIGNATION IS READY FOR NEW DATA.  SETTING LOSCMFLG MAKES IT GO AWAY SO SETUP29D CAN
004577:                                                                                                  #  START IT UP WHEN THE DATA IS IN PLACE.
004578:
004579: 33,2137           52315                           PDVL     VSU                                   #  PUSH DOWN T-PIPTIME
004580: 33,2140           01726                                    V(CSM)
004581: 33,2141           03527                                    V                                     #  LOSVEL = V(CSM) - V
004582: 33,2142           74325                           PDDL     VXSC                                  #  SWAP LOSVEL FOR T-PIPTIME, MULTIPLY THEM
004583: 33,2143           52255                           VAD      VSU                                   #        AND ADD THE RESULT TO R(CSM) - R TO GET
004584: 33,2144           01720                                    R(CSM)                                #        AN UP-TO-DATE LOS VECTOR IN SM AXES.
004585: 33,2145           03521                                    R
004586: 33,2146           77414                           BOFSET   EXIT                                  #  (BOFSET DOES ITS THING INHINTED.)
004587: 33,2147           01043                                    LOSCMFLG                              #  IF DESIGNATE LOOP IS OFF, CHANGE LOSCM-
004588: 33,2150           66152                                    SETUP29D                              #  FLG TO ON AND GO TO SET UP NEW DATA.
004589: 33,2151           12570                           TCF      NOR29NOW                              #  IF DES. LOOP IS ON, LET IT USE OLD DATA.
004590:
004591: 33,2152           25102        SETUP29D           STOVL    LOSSM                                 #  LINE-OF-SIGHT VECTOR, STABLE MEMBER AXES
004592: 33,2153           00001                                    0
004593: 33,2154           77761                           VXSC
004594: 33,2155           26177                                    .5SECB17
004595: 33,2156           01761                           STORE    LOSVDT/4                              #  1/2 SECOND'S WORTH OF LOS VELOCITY.
004596: 33,2157           77414                           CLEAR    EXIT
004597: 33,2160           01263                                    LOSCMFLG                              #  LET R29DLOOP USE NEW DATA.
004598:
004599: 33,2161           40074                           CS       STATE
004600: 33,2162           74753                           MASK     OLDESBIT
004601: 33,2163           00006                           EXTEND
004602: 33,2164           12570                           BZF      NOR29NOW                              #  BRANCH IF R29 DES. LOOP IS REQUESTED.
004603: 33,2165           00004                           INHINT
004604: 33,2166           26074                           ADS      STATE                                 #  OTHERWISE REQUEST IT NOW.
004605:
004606: 33,2167           11056                           CCS      PIPCTR                                #  SEE IF TASK SHOULD BE OFFSET ONE SECOND.
004607: 33,2170           44776                           CS       SUPER110                              #  -96D +100D = 4.
004608: 33,2171           64777                           AD       1SEC                                  #  0 +100D = 100D.
004609: 33,2172           05203                           TC       WAITLIST
004610: 33,2173  E7,1456                                  EBANK=   LOSCOUNT
004611: 33,2173           03356 50067                     2CADR    BEGDES29                              #  START BEGDES29 TASK ASAP.
004612:
004613: 33,2175           12570                           TCF      NOR29NOW                              #  RELINT AND CONTINUE SERVICER FUNCTIONS.
004614:
004615: 33,2176           00006 10000  .5SECB17           2DEC     50         B-17
004616:


004618:                                                                                                  #  R29 DESIGNATE JOB AND TASK MACHINERY.  TASK RECURS EVERY .5 SEC UNTIL DESIGNATE IS CALLED OFF; IT MAY WAIT FOR A
004619:                                                                                                  #  CENTISECOND OR TWO IF IT COMES UP WHILE SETUP29D IS SUPPLYING NEW DATA.
004620:
004621: 24,3356                                           BANK     24
004622: 24,2000                                           SETLOC   P20S
004623: 24,2000                                           BANK
004624:
004625: 24,3356                                           COUNT*   $$/R29
004626:
004627: 24,3356           35031        BEGDES29           CAF      PRIO21
004628: 24,3357           05072                           TC       NOVAC
004629: 24,3360  E3,1760                                  EBANK=   LOSVDT/4
004630: 24,3360           02547 64063                     2CADR    R29DODES                              #  START R29DODES JOB TWICE A SECOND.
004631:
004632: 24,3362           34774        R29DLOOP           CAF      .5SEC
004633: 24,3363           05224                           TC       VARDELAY
004634:
004635: 24,3364           40110                           CS       RADMODES
004636: 24,3365           74742                           MASK     DESIGBIT
004637: 24,3366           10000                           CCS      A
004638: 24,3367           15261                           TCF      TASKOVER                              #  QUIT IF DESIGNATION IS CALLED OFF.
004639:
004640: 24,3370           40076                           CS       FLAGWRD2
004641: 24,3371           74740                           MASK     LOSCMBIT
004642: 24,3372           00006                           EXTEND
004643: 24,3373           13376                           BZF      +3                                    #  BRANCH IF SETUP29D'S SUPPLYING NEW DATA.
004644: 24,3374           26076                           ADS      FLAGWRD2                              #  SET LOSCMFLG:  SHOW THAT DES. LOOP IS ON.
004645: 24,3375           13356                           TCF      BEGDES29
004646:
004647: 24,3376           34753                           CA       ONE
004648: 24,3377           13363                           TCF      R29DLOOP   +1                         #  WAIT A CENTISECOND FOR NEW DATA.


004650:                                                                                                  #  R29DODES:  RR DESIGNATION LOOP FOR R29
004651:
004652:                                                                                                  #  THIS ROUTINE DOES MUCH THE SAME THING AS DODES, BUT A GREAT DEAL FASTER.  IT TAKES THE NON-UNITIZED LOS VECTOR
004653:                                                                                                  #  IN STABLE MEMBER COORDINATES (LOSSM) AND A DELTA-LOS IN SM AXES (LOSVDT/4) WHICH IS 1/2 SEC TIMES LOS VELOCITY,
004654:                                                                                                  #  AND DEVELOPS THE SHAFT AND TRUNNION COMMANDS USING SINGLE PRECISION AS MUCH AS POSSIBLE, AND INTERPRETIVE NOT AT
004655:                                                                                                  #  ALL.  THE UNIT(LOSM + LOSVEL * 1 SEC) IS COMPUTED IN DP AND TRANSFORMED TO NAV BASE COORDINATES IN DOUBLE PRE-
004656:                                                                                                  #  CISION (USING SP SINES AND COSINES OF CDU ANGLES), AND THE REST IS DONE IN SP.
004657:
004658:                                                                                                  #  THE FUNCTIONAL DIFFERENCE IS THAT R29DODES ALWAYS CLEARS LOSCMFLG WHEN IT ENDS, AND IT STARTS UP THE R29READ
004659:                                                                                                  #  TASK WHEN LOCK-ON IS ACHIEVED.
004660:
004661: 32,2547                                           BANK     32
004662: 32,2000                                           SETLOC   F2DPS*32
004663: 32,2000                                           BANK
004664:
004665: 32,2547                                           COUNT*   $$/R29
004666: 32,2547  E3,1760                                  EBANK=   LOSVDT/4
004667:
004668: 32,2547           34753        R29DODES           CA       ONE
004669: 32,2550           55107                           TS       TANG                                  #  INDICATE 1ST PASS THRU VECTOR LOOP.
004670: 32,2551           34756                           CA       FIVE
004671:
004672: 32,2552           10000        R29DVBEG           CCS      A                                     #  COUNT DOWN BY TWO'S IN VECTOR LOOP.
004673: 32,2553           54002                           TS       Q
004674: 32,2554           11107                           CCS      TANG
004675: 32,2555           12563                           TCF      R29DPAS1                              #  DO THIS ON 1ST PASS THRU LOOP.
004676:
004677: 32,2556           00006                           EXTEND                                         #  (A "PASS" HERE MEANS 3 TIMES AROUND).
004678: 32,2557           50002                           INDEX    Q
004679: 32,2560           31761                           DCA      LOSVDT/4
004680: 32,2561           50002                           INDEX    Q
004681: 32,2562           21102                           DAS      LOSSM                                 #  ADVANCE LOS VECTOR 1/2 SECOND.
004682:
004683: 32,2563           00006        R29DPAS1           EXTEND
004684: 32,2564           50002                           INDEX    Q
004685: 32,2565           31102                           DCA      LOSSM
004686: 32,2566           50002                           INDEX    Q                                     #  MOVE CURRENT LOS (1ST PASS) OR LOS PRO-
004687: 32,2567           52156                           DXCH     MPAC       +1                         #  JECTED 1/2 SEC AHEAD (2ND PASS).
004688: 32,2570           11107                           CCS      TANG
004689: 32,2571           12577                           TCF      R29DVEND                              #  BUG OUT HERE IN 1ST PASS.
004690:
004691: 32,2572           00006                           EXTEND
004692: 32,2573           50002                           INDEX    Q
004693: 32,2574           31761                           DCA      LOSVDT/4
004694: 32,2575           50002                           INDEX    Q
004695: 32,2576           20156                           DAS      MPAC       +1                         #  PROJECT LOS 1 SECOND AHEAD (2ND PASS).
004696:
004697: 32,2577           10002        R29DVEND           CCS      Q
004698: 32,2600           12552                           TCF      R29DVBEG                              #  BRANCH TO CONTINUE VECTOR LOOP.
004699:


004701:                                                                                                  #  UNITIZE AND TRANSFORM TO NAV BASE AXES THE PRESENT LOS (1ST PASS) OR THE 1-SEC PROJECTED LOS (2ND PASS).
004702:
004703: 32,2601           52156                           DXCH     MPAC       +1
004704: 32,2602           52155                           DXCH     MPAC
004705: 32,2603           32774                           CA       R29FXLOC                              #  = ADRES INTB15 + -34D
004706: 32,2604           54120                           TS       FIXLOC
004707: 32,2605           04713                           TC       USPRCADR                              #  WITH FIXLOC ARMED FOR LENGTH AND LENGTH
004708: 32,2606           01023                           CADR     UNIT                                  #  SQUARED, BORROW UNITIZING ROUTINE.
004709: 32,2607           07532                           TC       MPACVBUF                              #  MOVE UNIT(LOS) TO AX*SR*T ARG AREA.
004710:
004711: 32,2610           11107                           CCS      TANG
004712: 32,2611           12613                           TCF      +2
004713: 32,2612           12627                           TCF      GOTANGLS                              #  GET CDU ANGLES ONLY AFTER 1ST PASS.
004714: 32,2613           00004                           INHINT                                         #  ENSURE CONSISTENT CDU READINGS.
004715: 32,2614           00006                           EXTEND
004716: 32,2615           30036                           DCA      CDUT
004717: 32,2616           53767                           DXCH     SAVECDUT                              #  TRUNNION AND SHAFT ANGLES.
004718: 32,2617           30033                           CA       CDUY
004719: 32,2620           54766                           TS       CDUSPOT
004720: 32,2621           30034                           CA       CDUZ
004721: 32,2622           54770                           TS       CDUSPOT    +2
004722: 32,2623           30032                           CA       CDUX
004723: 32,2624           54772                           TS       CDUSPOT    +4                         #  CDU ANGLES IN FUNNY ORDER FOR AX*SR*T.
004724: 32,2625           04616                           TC       BANKCALL
004725: 32,2626           47615                           CADR     QUICTRIG                              #  GET SINES AND COSINES OF CDU ANGLES.
004726:
004727: 32,2627           46245        GOTANGLS           CS       THREE
004728: 32,2630           04616                           TC       BANKCALL
004729: 32,2631           47675                           CADR     AX*SR*T                               #  TRANSFORM UNIT LOS TO NB AXES (ULOSNB).
004730:
004731: 32,2632           11107                           CCS      TANG
004732: 32,2633           12635                           TCF      +2
004733: 32,2634           12702                           TCF      R29DPAS2                              #  GO TO RR COMMAND COMP. AFTER 2ND PASS.
004734:


004736:                                                                                                  #  COMPUTE COSINE OF THE ANGLE BETWEEN THE PRESENT LOS AND THE RR BORESIGHT VECTOR, AND SET THE SELFTRACK ENABLE IF
004737:                                                                                                  #  THE COSINE IS APPROXIMATELY COS(.5 DEG) OR GREATER (I.E., SMALLER ANGLE).
004738:
004739: 32,2635           00004                           INHINT
004740: 32,2636           55107                           TS       TANG                                  #  INDICATE 2ND PASS THRU VECTOR LOOP.
004741: 32,2637           31766                           CA       SAVECDUT
004742: 32,2640           05032                           TC       SPCOS
004743: 32,2641           54166                           TS       PUSHLOC                               #  PUSHLOC = COS T.
004744: 32,2642           41766                           CS       SAVECDUT
004745: 32,2643           05033                           TC       SPSIN
004746: 32,2644           54163                           TS       MODE                                  #  MODE = -SIN T.
004747: 32,2645           00006                           EXTEND
004748: 32,2646           70124                           MP       VBUF       +2                         #  FORM - SIN T ULOSNBY.
004749: 32,2647           52155                           DXCH     MPAC
004750: 32,2650           31767                           CA       SAVECDUT   +1
004751: 32,2651           05033                           TC       SPSIN
004752: 32,2652           55766                           TS       SAVECDUT                              #  SAVECDUT NOW = SIN S.
004753: 32,2653           00006                           EXTEND
004754: 32,2654           70166                           MP       PUSHLOC
004755: 32,2655           00006                           EXTEND
004756: 32,2656           70122                           MP       VBUF                                  #  FORM SIN S COS T ULOSNBX.
004757: 32,2657           20155                           DAS      MPAC
004758: 32,2660           31767                           CA       SAVECDUT   +1
004759: 32,2661           05032                           TC       SPCOS
004760: 32,2662           55767                           TS       SAVECDUT   +1                         #  SAVECDUT +1 NOW = COS S.
004761: 32,2663           00006                           EXTEND
004762: 32,2664           70166                           MP       PUSHLOC
004763: 32,2665           00006                           EXTEND
004764: 32,2666           70126                           MP       VBUF       +4                         #  FORM COS S COS T ULOSNBZ.
004765: 32,2667           20155                           DAS      MPAC                                  #  COS(ERROR) = ULOSNB . (SIN S COS T,
004766: 32,2670           00006                           EXTEND                                         #  -SIN T, COS S COS T).
004767: 32,2671           30155                           DCA      MPAC
004768: 32,2672           20155        TESTCOS            DAS      MPAC                                  #  (ULOSNB IN VBUF WAS A HALF-UNIT VECTOR).
004769: 32,2673           10000                           CCS      A                                     #  TEST FOR + OVERFLOW, NONE, OR MINUS.
004770: 32,2674           34736                           CA       BIT14
004771: 32,2675           12676                           NOOP
004772: 32,2676           00006                           EXTEND
004773: 32,2677           05012                           WOR      CHAN12                                #  IF PLUS OVERFLOW, SET SELFTRACK ENABLE.
004774: 32,2700           00003                           RELINT
004775: 32,2701           12551                           TCF      R29DVBEG   -1                         #  MAKE 2ND PASS THRU VECTOR LOOP.
004776:


004778:                                                                                                  #  COMPUTE SHAFT AND TRUNNION COMMANDS TO NULL HAVE THE ERROR IN HALF A SECOND.
004779:
004780: 32,2702           31767        R29DPAS2           CA       SAVECDUT   +1
004781: 32,2703           00006                           EXTEND
004782: 32,2704           70122                           MP       VBUF                                  #  FORM COS S ULOSNB'X.
004783: 32,2705           53110                           DXCH     TANG
004784: 32,2706           41766                           CS       SAVECDUT
004785: 32,2707           00006                           EXTEND
004786: 32,2710           70126                           MP       VBUF       +4                         #  FORM - SIN S ULOSNB'Z.
004787: 32,2711           21110                           DAS      TANG                                  #  RAW SHAFT CMD = ULOSNB' . (COS S, 0,
004788: 32,2712           40163                           CS       MODE                                  #  - SIN S)
004789: 32,2713           00006                           EXTEND
004790: 32,2714           71766                           MP       SAVECDUT
004791: 32,2715           00006                           EXTEND
004792: 32,2716           70122                           MP       VBUF                                  #  FORM SIN T SIN S ULOSNB'X.
004793: 32,2717           52155                           DXCH     MPAC
004794: 32,2720           30166                           CA       PUSHLOC
004795: 32,2721           00006                           EXTEND
004796: 32,2722           70124                           MP       VBUF       +2                         #  FORM COS T ULOSNB'Y.
004797: 32,2723           20155                           DAS      MPAC
004798: 32,2724           40163                           CS       MODE
004799: 32,2725           00006                           EXTEND
004800: 32,2726           71767                           MP       SAVECDUT   +1
004801: 32,2727           00006                           EXTEND
004802: 32,2730           70126                           MP       VBUF       +4                         #  FORM SIN T COS S ULOSNB'Z.
004803: 32,2731           20155                           DAS      MPAC                                  #  RAW TRUNNION CMD = ULOSNB'.
004804: 32,2732           30154                           CA       MPAC                                  #  (SIN S SIN T, COS T, SIN S COS T).
004805: 32,2733           00006                           EXTEND
004806: 32,2734           72775                           MP       RR29GAIN
004807: 32,2735           57107                           XCH      TANG                                  #  STORE REFINED T CMD, GET RAW S CMD.
004808: 32,2736           00006                           EXTEND
004809: 32,2737           72775                           MP       RR29GAIN
004810: 32,2740           55110                           TS       TANG       +1                         #  STORE REFINED S CMD.
004811:


004813:                                                                                                  #  WHETHER OR NOT TRACKING WAS ENABLED THIS TIME, CHECK ON RR DATA-GOOD.  IF PRESENT, STOP DESIGNATING AND START
004814:                                                                                                  #  READING DATA FROM THE RENDEZVOUS RADAR.
004815:
004816: 32,2741           34750        DGOOD?             CAF      BIT4
004817: 32,2742           00006                           EXTEND
004818: 32,2743           02033                           RAND     CHAN33                                #  GET RR DATA-GOOD BIT.
004819: 32,2744           00004                           INHINT                                         #  (MAINLY FOR RROUT).
004820: 32,2745           00006                           EXTEND
004821: 32,2746           12752                           BZF      R29LOKON                              #  BRANCH IF DATA-GOOD IS PRESENT.
004822:
004823: 32,2747           04616                           TC       BANKCALL
004824: 32,2750           52306                           CADR     RROUT                                 #  DATA-GOOD IS ABSENT, SO SEND COMMANDS.
004825: 32,2751           12770                           TCF      END29DOD
004826:
004827: 32,2752           44742        R29LOKON           CS       DESIGBIT
004828: 32,2753           70110                           MASK     RADMODES
004829: 32,2754           54110                           TS       RADMODES                              #  SHOW THAT DESIGNATION IS OVER.
004830: 32,2755           44752                           CS       BIT2
004831: 32,2756           00006                           EXTEND
004832: 32,2757           03012                           WAND     CHAN12                                #  DISABLE RR ERROR COUNTERS.
004833: 32,2760           34743                           CA       READRBIT
004834: 32,2761           26077                           ADS      FLAGWRD3                              #  SHOW THAT READING HAS BEEN REQUESTED.
004835: 32,2762           11056                           CCS      PIPCTR                                #  SEE IF TASK SHOULD BE OFFSET 1 SEC.
004836: 32,2763           44776                           CS       SUPER110                              #  -96D + 100D = 4.
004837: 32,2764           64777                           AD       1SEC                                  #  0 + 100D = 100D.
004838: 32,2765           05203                           TC       WAITLIST
004839: 32,2766  E7,1456                                  EBANK=   LOSCOUNT
004840: 32,2766           03400 50067                     2CADR    R29READ                               #  START READING TASK AND JOB.
004841:
004842: 32,2770           44740        END29DOD           CS       LOSCMBIT
004843: 32,2771           70076                           MASK     FLAGWRD2
004844: 32,2772           54076                           TS       FLAGWRD2                              #  ALWAYS CLEAR LOSCMFLG.
004845: 32,2773           15155                           TCF      ENDOFJOB
004846:
004847: 32,2774           00052        R29FXLOC           ADRES    INTB15+    -34D
004848: 32,2775           56655        RR29GAIN           DEC      -.53624
004849: 32,2776  E3,1760               LOSVDT/4           EQUALS   LOSVEL
004850: 32,2776     1101               LOSSM              EQUALS   RRTARGET
004851: 32,2776  E3,1766               SAVECDUT           EQUALS   MLOSV
004852:


004854:                                                                                                  #  RR READING IS SET UP BY R29DODES WHEN IT DETECTS RR LOCK-ON
004855:
004856: 24,3400                                           BANK     24
004857: 24,2000                                           SETLOC   P20S
004858: 24,2000                                           BANK
004859:
004860: 24,3400                                           COUNT*   $$/R29
004861:
004862: 24,3400  E7,1456                                  EBANK=   LOSCOUNT
004863:
004864: 24,3400           37714        R29READ            CAF      PRIO26                                #  CALLED BY WAITLIST
004865: 24,3401           05072                           TC       NOVAC
004866: 24,3402  E7,1456                                  EBANK=   LOSCOUNT
004867: 24,3402           03413 50067                     2CADR    R29RDJOB                              #  START JOB TO READ AND DOWNLINK FOR R29.
004868:
004869: 24,3404           35000                           CA       2SECS
004870: 24,3405           05224                           TC       VARDELAY
004871:
004872: 24,3406           30077                           CA       FLAGWRD3                              #  2 SECONDS LATER, SEE IF READING IS STILL
004873: 24,3407           74743                           MASK     READRBIT                              #  ALLOWED (NO TRACKER FAIL ETC.)
004874: 24,3410           10000                           CCS      A
004875: 24,3411           13400                           TCF      R29READ                               #  IT'S OK:  CALL IT AGAIN.
004876: 24,3412           15261                           TCF      TASKOVER                              #  IT AIN'T:  WAIT FOR REDESIGNATE.
004877:
004878: 24,3413           30077        R29RDJOB           CA       FLAGWRD3                              #  CALLED VIA NOVAC.
004879: 24,3414           74741                           MASK     NR29FBIT
004880: 24,3415           10000                           CCS      A                                     #  TEST "NOR29FLG".
004881: 24,3416           13475                           TCF      ENDRRD29                              #  R29 IS NOW OVER, STOP AT ONCE.
004882:
004883: 24,3417           30110                           CA       RADMODES
004884: 24,3420           74752                           MASK     AUTOMBIT
004885: 24,3421           10000                           CCS      A                                     #  TEST RR-NOT-IN-AUTO-MODE BIT.
004886: 24,3422           13475                           TCF      ENDRRD29                              #  ASTRO TOOK RR OUT OF AUTO MODE.
004887:
004888: 24,3423           04616                           TC       BANKCALL
004889: 24,3424           53103                           CADR     RRRDOT                                #  INITIATE READING OF RANGE RATE.
004890: 24,3425           04616                           TC       BANKCALL
004891: 24,3426           17714                           CADR     RADSTALL                              #  GOT TO SLEEP UNTIL IT'S READY.
004892: 24,3427           13475                           TCF      ENDRRD29                              #  BAD READ; REDESIGNATE.
004893:


004895:                                                                                                  #  R29 RADAR READING CONTINUED.
004896:
004897: 24,3430           53106                           DXCH     TIMEHOLD
004898: 24,3431           52155                           DXCH     MPAC                                  #  TIME OF RR READING, FOR DOWNLINK.
004899: 24,3432           00004                           INHINT                                         #  BE SURE OF 5 CONSISTENT CDU ANGLES.
004900: 24,3433           00006                           EXTEND
004901: 24,3434           30036                           DCA      CDUT
004902: 24,3435           52157                           DXCH     MPAC       +2                         #  RRCDU ANGLES AT RR READ, FOR DOWNLINK.
004903: 24,3436           00006                           EXTEND
004904: 24,3437           30034                           DCA      CDUY
004905: 24,3440           52161                           DXCH     MPAC       +4                         #  MPAC'S 7 WORDS ARE BUFFERED FOR COPYCYCLE.
004906: 24,3441           30032                           CA       CDUX
004907: 24,3442           54162                           TS       MPAC       +6                         #  IMUCDU ANGLES AT RR READ, FOR DOWNLINK.
004908:
004909: 24,3443           04616        R29RANGE           TC       BANKCALL
004910: 24,3444           53105                           CADR     RRRANGE                               #  INITIATE READING OF RR RANGE.
004911: 24,3445           04616                           TC       BANKCALL
004912: 24,3446           17714                           CADR     RADSTALL                              #  GO TO SLEEP UNTIL IT'S READY.
004913: 24,3447           13466                           TCF      R29RRR?                               #  BAD READ OR SCALE CHANGE ... WHICH?
004914:
004915: 24,3450           00004                           INHINT
004916: 24,3451           53334                           DXCH     DNRRANGE                              #  COPYCYCLE TO LAY OUT NEW R29 DOWNLINK.
004917: 24,3452           53757                           DXCH     RM
004918: 24,3453           52155                           DXCH     MPAC
004919: 24,3454           53755                           DXCH     MKTIME
004920: 24,3455           52157                           DXCH     MPAC       +2
004921: 24,3456           53753                           DXCH     TANGNB
004922: 24,3457           52161                           DXCH     MPAC       +4
004923: 24,3460           53460                           DXCH     AIG
004924: 24,3461           30162                           CA       MPAC       +6
004925: 24,3462           55461                           TS       AOG
004926: 24,3463           34753                           CA       ONE
004927: 24,3464           55462                           TS       TRKMKCNT                              #  SHOW THAT DOWNLINK DATA IS CONSISTENT.
004928: 24,3465           15155                           TCF      ENDOFJOB
004929:
004930: 24,3466           40101        R29RRR?            CS       FLAGWRD5
004931: 24,3467           74742                           MASK     BIT10
004932: 24,3470           10000                           CCS      A                                     #  WAS IT A SCALE CHANGE (REAL OR PHONY)?
004933: 24,3471           13475                           TCF      ENDRRD29                              #  NO, A BAD READ; REDESIGNATE.
004934: 24,3472           05516                           TC       DOWNFLAG
004935: 24,3473           00120                           ADRES    RNGSCFLG
004936: 24,3474           13443                           TCF      R29RANGE                              #  YES; CLEAR FLAG AND READ AGAIN.
004937:
004938: 24,3475           34755        ENDRRD29           CA       ZERO                                  #  TROUBLE MADE US COME HERE TO LEAVE THE
004939: 24,3476           55462                           TS       TRKMKCNT                              #  RR-READING MODE.  DISCREDIT DOWNTEL.
004940: 24,3477           05516                           TC       DOWNFLAG
004941: 24,3500           00063                           ADRES    READRFLG
004942: 24,3501           44736                           CS       BIT14
004943: 24,3502           00006                           EXTEND


004945: 24,3503           03012                           WAND     CHAN12                                #  REMOVE TRACK-ENABLE DISCRETE.
004946: 24,3504           15155                           TCF      ENDOFJOB
004947:


004949:                                                                                                  #  W-MATRIX MONITOR
004950:
004951: 31,2007                                           BANK     31
004952: 31,2000                                           SETLOC   VB67
004953: 31,2000                                           BANK
004954: 31,2007                                           COUNT*   $$/EXTVB
004955:
004956: 31,2007  E4,1600                                  EBANK=   WWPOS
004957:
004958: 31,2007           06037        V67CALL            TC       INTPRET
004959: 31,2010           77624                           CALL
004960: 31,2011           62120                                    V67WW
004961: 31,2012           77776                           EXIT
004962: 31,2013           00006                           EXTEND                                         #  SAVE THE PRESENT N99 VALUES FOR
004963: 31,2014           31601                           DCA      WWPOS                                 #  COMPARISON AFTER THE DISPLAY
004964: 31,2015           53607                           DXCH     WWBIAS     +2
004965: 31,2016           00006                           EXTEND
004966: 31,2017           31603                           DCA      WWVEL
004967: 31,2020           53611                           DXCH     WWBIAS     +4
004968: 31,2021           00006                           EXTEND
004969: 31,2022           31605                           DCA      WWBIAS
004970: 31,2023           53613                           DXCH     WWBIAS     +6
004971: 31,2024           32143        V06N99DS           CAF      V06N99
004972: 31,2025           04616                           TC       BANKCALL
004973: 31,2026           20334                           CADR     GOXDSPF
004974: 31,2027           15472                           TCF      ENDEXT
004975: 31,2030           12032                           TCF      V6N99PRO
004976: 31,2031           12024                           TCF      V06N99DS
004977: 31,2032           22007        V6N99PRO           ZL
004978: 31,2033           34756                           CA       FIVE
004979: 31,2034           54002        N99LOOP            TS       Q
004980: 31,2035           50002                           INDEX    Q
004981: 31,2036           41600                           CS       WWPOS
004982: 31,2037           50002                           INDEX    Q
004983: 31,2040           61606                           AD       WWPOS      +6
004984: 31,2041           26001                           ADS      L
004985: 31,2042           10002                           CCS      Q                                     #  THE SUM OF ALL DIFFERENCES MUST BE ZERO.
004986: 31,2043           12034                           TCF      N99LOOP
004987: 31,2044           22000                           LXCH     A
004988: 31,2045           00006                           EXTEND
004989: 31,2046           12051                           BZF      V06N9933
004990: 31,2047           05504                           TC       UPFLAG
004991: 31,2050           00160                           ADRES    V67FLAG
004992:
004993: 31,2051           06037        V06N9933           TC       INTPRET
004994: 31,2052           77414                           BON      EXIT
004995: 31,2053           03707                                    V67FLAG
004996: 31,2054           62056                                    +2
004997: 31,2055           15472                           TCF      ENDEXT
004998: 31,2056           77745                           DLOAD


005000: 31,2057           02201                                    WWPOS
005001: 31,2060           72412                           SL4      SL1
005002: 31,2061           14001                           STODL    0D
005003: 31,2062           02203                                    WWVEL
005004: 31,2063           14003                           STODL    2D
005005: 31,2064           02205                                    WWBIAS
005006: 31,2065           77661                           SL                                             #  SHIFT FROM NOUN SCALING (B-5) TO
005007: 31,2066           20213                                    10D                                   #  INTERNAL SCALING (B+5)
005008: 31,2067           00005                           STORE    4D
005009: 31,2070           72014                           BON      LXA,1
005010: 31,2071           04307                                    SURFFLAG
005011: 31,2072           62102                                    V67SURF
005012: 31,2073           00000                                    0D
005013: 31,2074           72130                           SXA,1    LXA,1
005014: 31,2075           02000                                    WRENDPOS
005015: 31,2076           00002                                    2D
005016: 31,2077           52130                           SXA,1    GOTO
005017: 31,2100           02001                                    WRENDVEL
005018: 31,2101           62110                                    V67CLRF
005019: 31,2102           66150        V67SURF            LXA,1    SXA,1
005020: 31,2103           00000                                    0D
005021: 31,2104           02006                                    WSURFPOS
005022: 31,2105           66150                           LXA,1    SXA,1
005023: 31,2106           00002                                    2D
005024: 31,2107           02007                                    WSURFVEL
005025: 31,2110           66150        V67CLRF            LXA,1    SXA,1
005026: 31,2111           00004                                    4D
005027: 31,2112           02003                                    WTRUN
005028: 31,2113           77730                           SXA,1
005029: 31,2114           02002                                    WSHAFT
005030: 31,2115           77414                           CLEAR    EXIT
005031: 31,2116           02676                                    RENDWFLG
005032: 31,2117           15472                           TCF      ENDEXT
005033: 31,2120           40020        V67WW              STQ      BOV
005034: 31,2121           00051                                    S2
005035: 31,2122           62123                                    +1
005036: 31,2123           45014                           CLEAR    CALL
005037: 31,2124           03667                                    V67FLAG
005038: 31,2125           27414                                    INTSTALL
005039: 31,2126           71331                           SSP      DLOAD
005040: 31,2127           00051                                    S1
005041: 31,2130           00006                           DEC      6          B-14
005042: 31,2131           06522                                    ZEROVECS
005043: 31,2132           02201                           STORE    WWPOS
005044: 31,2133           02203                           STORE    WWVEL
005045: 31,2134           02205                           STORE    WWBIAS
005046: 31,2135           77770                           AXT,1
005047: 31,2136           00066                           DEC      54         B-14
005048: 31,2137           47573        NXPOSVEL           VLOAD*   VSQ
005049: 31,2140           02467                                    W          +54D,1


005051: 31,2141           77650                           GOTO
005052: 31,2142           60002                                    ADDPOS
005053: 31,2143           01543        V06N99             VN       0699
005054:
005055: 30,2000                                           SETLOC   VB67A
005056: 30,2000                                           BANK
005057: 30,2002                                           COUNT*   $$/EXTVB
005058:
005059: 30,2002           77615        ADDPOS             DAD
005060: 30,2003           02201                                    WWPOS
005061: 30,2004           02201                           STORE    WWPOS
005062: 30,2005           47573                           VLOAD*   VSQ
005063: 30,2006           02555                                    W          +108D,1
005064: 30,2007           77615                           DAD
005065: 30,2010           02203                                    WWVEL
005066: 30,2011           02203                           STORE    WWVEL
005067: 30,2012           47573                           VLOAD*   VSQ
005068: 30,2013           02643                                    W          +162D,1
005069: 30,2014           77615                           DAD
005070: 30,2015           02205                                    WWBIAS
005071: 30,2016           02205                           STORE    WWBIAS
005072: 30,2017           75500                           TIX,1    SQRT
005073: 30,2020           62137                                    NXPOSVEL
005074: 30,2021           77661                           SR                                             #  SHIFT FROM INTERNAL SCALING (B+5) TO
005075: 30,2022           20613                                    10D                                   #  NOUN SCALING (B-5)
005076: 30,2023           16205                           STODL    WWBIAS
005077: 30,2024           02203                                    WWVEL
005078: 30,2025           77766                           SQRT
005079: 30,2026           16203                           STODL    WWVEL
005080: 30,2027           02201                                    WWPOS
005081: 30,2030           77766                           SQRT
005082: 30,2031           02201                           STORE    WWPOS
005083: 30,2032           52000                           BOV      GOTO
005084: 30,2033           60035                                    +2
005085: 30,2034           60042                                    V67XXX
005086: 30,2035           77745                           DLOAD
005087: 30,2036           06530                                    DPPOSMAX
005088: 30,2037           02201                           STORE    WWPOS
005089: 30,2040           02203                           STORE    WWVEL
005090: 30,2041           02205                           STORE    WWBIAS
005091: 30,2042           45345        V67XXX             DLOAD    DSU
005092: 30,2043           02201                                    WWPOS
005093: 30,2044           20060                                    FT99999
005094: 30,2045           71240                           BMN      DLOAD
005095: 30,2046           60051                                    +3
005096: 30,2047           20060                                    FT99999
005097: 30,2050           02201                           STORE    WWPOS
005098: 30,2051           66150                           LXA,1    SXA,1
005099: 30,2052           00051                                    S2
005100: 30,2053           00052                                    QPRET


005102: 30,2054           77776                           EXIT
005103: 30,2055           04635                           TC       POSTJUMP
005104: 30,2056           27425                           CADR     INTWAKE
005105:
005106: 30,2057           01670 17000  FT99999            2DEC     30479      B-19
005107:


005109: 25,3607                                           BANK     25
005110: 25,2000                                           SETLOC   RADARUPT
005111: 25,2000                                           BANK
005112: 25,3607                                           COUNT*   $$/RRUPT
005113:
005114: 25,3607  E7,1456                                  EBANK=   LOSCOUNT
005115:
005116: 25,3607           34753        R12LITES           CA       ONE
005117: 25,3610           71303                           MASK     IMODES33
005118: 25,3611           10000                           CCS      A
005119: 25,3612           14707                           TCF      ISWRETRN
005120:
005121: 25,3613           03630                           TC       HLIGHT
005122: 25,3614           03625                           TC       HLIGHT     -3
005123: 25,3615           14707                           TCF      ISWRETRN
005124:
005125: 25,3616           34753        RADLITES           CA       BIT1
005126: 25,3617           71303                           MASK     IMODES33
005127: 25,3620           10000                           CCS      A
005128: 25,3621           00002                           TC       Q
005129:
005130: 25,3622           44747                           CS       BIT5
005131: 25,3623           60061                           AD       ITEMP1
005132: 25,3624           10000                           CCS      A
005133: 25,3625           44753                           CS       ONE
005134: 25,3626           13664                           TCF      VLIGHT
005135:
005136: 25,3627           14570                           TCF      RRTRKF
005137:
005138: 25,3630           54065        HLIGHT             TS       ITEMP5                                #  ZERO ITEMP5 FOR H INDEX
005139:
005140: 25,3631           34747                           CA       HLITE
005141: 25,3632           54001                           TS       L
005142:
005143: 25,3633           30107                           CA       FLGWRD11
005144: 25,3634           74751                           MASK     SCABBIT
005145: 25,3635           10000                           CCS      A
005146: 25,3636           13656                           TCF      ONLITES
005147: 25,3637           34747                           CA       LRALTBIT
005148: 25,3640           70110        BOTHLITS           MASK     RADMODES
005149: 25,3641           10000                           CCS      A
005150: 25,3642           13656                           TCF      ONLITES
005151:
005152: 25,3643           30107                           CA       FLGWRD11
005153: 25,3644           50065                           INDEX    ITEMP5
005154: 25,3645           74753                           MASK     HFLSHBIT
005155: 25,3646           10000                           CCS      A
005156: 25,3647           14570                           TCF      RRTRKF


005158: 25,3650           00006        LITIT              EXTEND
005159: 25,3651           22066                           QXCH     ITEMP6
005160: 25,3652           04602                           TC       TRKFLON    +1
005161:
005162: 25,3653           00006                           EXTEND
005163: 25,3654           22066                           QXCH     ITEMP6
005164: 25,3655           14570                           TCF      RRTRKF
005165:
005166:
005167: 25,3656           50065        ONLITES            INDEX    ITEMP5
005168: 25,3657           44753                           CS       HFLSHBIT
005169: 25,3660           70107                           MASK     FLGWRD11
005170: 25,3661           54107                           TS       FLGWRD11
005171:
005172: 25,3662           30001                           CA       L
005173: 25,3663           13650                           TCF      LITIT
005174: 25,3664           54065        VLIGHT             TS       ITEMP5
005175: 25,3665           34751                           CA       VLITE
005176: 25,3666           54001                           TS       L
005177: 25,3667           34744                           CA       BIT8
005178: 25,3670           13640                           TCF      BOTHLITS
005179:
005180: 25,3671     4747               HLITE              EQUALS   BIT5
005181: 25,3671     4751               VLITE              EQUALS   BIT3
005182:
005183:                                                                                                  #  *** END OF LEMP20S .127 ***

End of include-file P20-P25.agc.  Parent file is MAIN.agc


