
Source Code


000002:                                                                                                  ## Copyright:   Public domain.
000003:                                                                                                  ## Filename:    P20-P25.agc
000004:                                                                                                  ## Purpose:     Part of the source code for Luminary 1A build 099.
000005:                                                                                                  ##              It is part of the source code for the Lunar Module's (LM)
000006:                                                                                                  ##              Apollo Guidance Computer (AGC), for Apollo 11.
000007:                                                                                                  ## Assembler:   yaYUL
000008:                                                                                                  ## Contact:     Onno Hommes <ohommes@cmu.edu>.
000009:                                                                                                  ## Website:     www.ibiblio.org/apollo.
000010:                                                                                                  ## Pages:       0492-0613
000011:                                                                                                  ## Mod history: 2009-05-26 OH   Transcribed from page images.
000012:                                                                                                  ##              2009-06-05 RSB  Corrected a typos.
000013:                                                                                                  ##              2009-06-06 RSB  Added a missing instruction, and a block
000014:                                                                                                  ##                              of 3 missing instructions.
000015:                                                                                                  ##              2009-06-07 RSB  Fixed a misprint.
000016:                                                                                                  ##              2009-06-07 RSB  Changed the construct "2DEC E-6 B12"
000017:                                                                                                  ##                              (which isn't legal in yaYUL) to
000018:                                                                                                  ##                              "2DEC 1.0 E-6 B12".
000019:                                                                                                  ##              2011-05-07 JL   Removed workarounds.
000020:                                                                                                  ##              2016-12-13 RSB  GOTOP00H -> GOTOPOOH
000021:                                                                                                  ##              2016-12-14 RSB  Proofed text comments with octopus/ProoferComments
000022:                                                                                                  ##                              and corrected the errors found.
000023:                                                                                                  ##              2017-01-28 RSB  WTIH -> WITH.
000024:                                                                                                  ##              2017-03-13 RSB  Comment-text fixes noted in proofing Luminary 116.
000025:                                                                                                  ##              2017-03-16 RSB  Comment-text fixes identified in 5-way
000026:                                                                                                  ##                              side-by-side diff of Luminary 69/99/116/131/210.
000027:
000028:                                                                                                  ## This source code has been transcribed or otherwise adapted from
000029:                                                                                                  ## digitized images of a hardcopy from the MIT Museum.  The digitization
000030:                                                                                                  ## was performed by Paul Fjeld, and arranged for by Deborah Douglas of
000031:                                                                                                  ## the Museum.  Many thanks to both.  The images (with suitable reduction
000032:                                                                                                  ## in storage size and consequent reduction in image quality as well) are
000033:                                                                                                  ## available online at www.ibiblio.org/apollo.  If for some reason you
000034:                                                                                                  ## find that the images are illegible, contact me at info@sandroid.org
000035:                                                                                                  ## about getting access to the (much) higher-quality images which Paul
000036:                                                                                                  ## actually created.
000037:                                                                                                  ##
000038:                                                                                                  ## Notations on the hardcopy document read, in part:
000039:                                                                                                  ##
000040:                                                                                                  ##      Assemble revision 001 of AGC program LMY99 by NASA 2021112-61
000041:                                                                                                  ##      16:27 JULY 14, 1969
000042:


000044:                                                                                                  #  RENDEZVOUS NAVIGATION PROGRAM 20
000045:
000046:                                                                                                  #  PROGRAM DESCRIPTION
000047:
000048:                                                                                                  #        MOD NO - 2
000049:                                                                                                  #        BY P. VOLANTE
000050:
000051:                                                                                                  #  FUNCTIONAL DESCRIPTION
000052:
000053:                                                                                                  #        THE PURPOSE OF THIS PROGRAM IS TO CONTROL THE RENDEZVOUS RADAR FROM
000054:                                                                                                  #        STARTUP THROUGH ACQUISITION AND LOCKON TO THE CSM AND TO UPDATE EITHER
000055:                                                                                                  #        THE LM OR CSM STATE VECTOR (AS SPECIFIED BY THE ASTRONAUT BY DSKY ENTRY)
000056:                                                                                                  #        ON THE BASIS OF THE RR TRACKING DATA.
000057:
000058:                                                                                                  #  CALLING SEQUENCE -
000059:
000060:                                                                                                  #        ASTRONAUT REQUEST THROUGH DSKY V37E20E
000061:
000062:                                                                                                  #  SUBROUTINES CALLED
000063:
000064:                                                                                                  #        R02BOTH (IMU STATUS CHECK)                      FLAGUP
000065:                                                                                                  #        GOFLASH (PINBALL-DISPLAY)                       FLAGDOWN
000066:                                                                                                  #        R23LEM  (MANUAL ACQUISITION)                    BANKCALL
000067:                                                                                                  #        LS201   (LOS DETERMINATION)                     TASKOVER
000068:                                                                                                  #        LS202   (RANGE LIMIT TEST)
000069:                                                                                                  #        R61LEM  (PREFERRED TRACKING ATTITUDE)
000070:                                                                                                  #        R21LEM  (RR DESIGNATE)                          ENDOFJOB
000071:                                                                                                  #        R22LEM  (DATA READ)                             GOPERF1
000072:                                                                                                  #        R31LEM  (RENDEZVOUS PARAMETER DISPLAY)
000073:                                                                                                  #        PRIOLARM (PRIORITY DISPLAY)
000074:
000075:                                                                                                  #  NORMAL EXIT MODES -
000076:
000077:                                                                                                  #        P20 MAY BE TERMINATED IN TWO WAYS - ASTRONAUT SELECTION OF IDLING
000078:                                                                                                  #        PROGRAM (P00) BY KEYING V37E00E OR BY KEYING IN V56E
000079:
000080:                                                                                                  #  ALARM OR ABORT EXIT MODES -
000081:
000082:                                                                                                  #        RANGE GREATER THAN 400 NM DISPLAY
000083:
000084:                                                                                                  #  OUTPUT
000085:
000086:                                                                                                  #        TRKMKCNT = NO OF RENDEZVOUS TRACKING MARKS TAKEN (COUNTER)
000087:
000088:                                                                                                  #  ERASABLE INITIALIZATION REQUIRED
000089:
000090:                                                                                                  #  FLAGS SET + RESET
000091:
000092:                                                                                                  #        SRCHOPT, RNDVZFLG, ACMODFLG, VEHUPFLG, UPDATFLG, TRACKFLG,
000093:
000094:                                                                                                  #  DEBRIS
000095:
000096:                                                                                                  #        CENTRALS - A,Q,L
000097:
000098: 25,2062  30,2000                                  SBANK=   LOWSUPER                              #  FOR LOW 2CADR'S.
000099:
000100: 33,2045                                           BANK     33
000101: 24,2000                                           SETLOC   P20S
000102: 24,2000                                           BANK
000103:
000104: 24,2000  E7,1456                                  EBANK=   LOSCOUNT
000105: 24,2000                                           COUNT*   $$/P20
000106: 24,2000  24,2000               PROG22             =        PROG20
000107: 24,2000           05327        PROG20             TC       2PHSCHNG
000108: 24,2001           00004                           OCT      4
000109: 24,2002           05022                           OCT      05022
000110: 24,2003           26000                           OCT      26000                                 #  PRIORITY 26
000111: 24,2004           02667                           TC       LUNSFCHK                              #  CHECK IF ON LUNAR SURFACE


000113: 24,2005           02007                           TC       ORBCHGO                               #  YES
000114: 24,2006           02036                           TC       PROG20A    -2                         #  NO - CONTINUE WITH P20
000115: 24,2007           05504        ORBCHGO            TC       UPFLAG                                #  SET VEHUPFLG - CSM STATE
000116: 24,2010           00026                           ADRES    VEHUPFLG                              #  VECTOR TO BE UPDATED
000117: 24,2011           34753                           CAF      ONE                                   #  SET R2 FOR OPTION CSM WILL NOT
000118: 24,2012           55145                           TS       OPTION2                               #  CHANGE PRESENT ORBIT
000119: 24,2013           32311                           CAF      OCT00012
000120: 24,2014           04616                           TC       BANKCALL                              #  DISPLAY ASSUMED CSM ORBIT OPTION
000121: 24,2015           20633                           CADR     GOPERF4
000122: 24,2016           06001                           TC       GOTOPOOH                              #  TERMINATE
000123: 24,2017           02021                           TC       ORBCHG1                               #  PROCEED VALUE OF ASSUMED OPTION OK
000124: 24,2020           02013                           TC       -5                                    #  R2 LOADED THRU DSKY
000125: 24,2021           42312        ORBCHG1            CS       P22ONE
000126: 24,2022           61145                           AD       OPTION2
000127: 24,2023           00006                           EXTEND
000128: 24,2024           12040                           BZF      PROG20A
000129: 24,2025           32315                           CAF      V06N33*
000130: 24,2026           04616                           TC       BANKCALL                              #  FLASH VERB-NOUN TO REQUEST ESTIMATED
000131: 24,2027           20476                           CADR     GOFLASH                               #  TIME OF LAUNCH
000132: 24,2030           06001                           TC       GOTOPOOH                              #  TERMINATE
000133: 24,2031           02033                           TC       ORBCHG2                               #  PROCEED VALUES OK
000134: 24,2032           02025                           TC       -5                                    #  TIME LOADED THRU DSKY
000135: 24,2033           06037        ORBCHG2            TC       INTPRET
000136: 24,2034           77650                           GOTO
000137: 24,2035           64217                                    ORBCHG3
000138: 32,2217                                           BANK     32
000139: 32,2000                                           SETLOC   P20S4
000140: 32,2000                                           BANK
000141: 32,2217                                           COUNT*   $$/P20
000142:
000143: 32,2217           77624        ORBCHG3            CALL
000144: 32,2220           27414                                    INTSTALL
000145: 32,2221           77745                           DLOAD
000146: 32,2222           03442                                    TIG
000147: 32,2223           03661                           STORE    LNCHTM
000148: 32,2224           00041                           STORE    TDEC1                                 #  ESTIMATED LAUNCH TIME
000149: 32,2225           43014                           CLEAR    CLEAR
000150: 32,2226           01674                                    VINTFLAG                              #  LM INTEGRATION
000151: 32,2227           01673                                    INTYPFLG                              #  PRECISION - ENCKE
000152: 32,2230           43014                           CLEAR    CLEAR
000153: 32,2231           01676                                    DIM0FLAG                              #  NO W-MATRIX
000154: 32,2232           01675                                    D6OR9FLG
000155: 32,2233           77624                           CALL
000156: 32,2234           27134                                    INTEGRV                               #  PLANETARY INERTIAL ORIENTATION
000157: 32,2235           77624                           CALL
000158: 32,2236           11244                                    GRP2PC
000159: 32,2237           77775                           VLOAD
000160: 32,2240           00017                                    RATT1
000161: 32,2241           17631                           STODL    RSUBL                                 #  SAVE LM POSITION
000162: 32,2242           00015                                    TAT


000164: 32,2243           34041                           STCALL   TDEC1
000165: 32,2244           27414                                    INTSTALL
000166: 32,2245           43014                           SET      CLEAR
000167: 32,2246           01474                                    VINTFLAG                              #  CSM INTEGRATION
000168: 32,2247           01673                                    INTYPFLG
000169: 32,2250           43014                           CLEAR    BOFF
000170: 32,2251           01676                                    DIM0FLAG
000171: 32,2252           02756                                    RENDWFLG                              #  W MATRIX VALID
000172: 32,2253           64257                                    NOWMATX                               #  NO
000173: 32,2254           43014                           SET      SET                                   #  YES - SET FOR W MATRIX
000174: 32,2255           01476                                    DIM0FLAG
000175: 32,2256           01475                                    D6OR9FLG
000176: 32,2257           77624        NOWMATX            CALL
000177: 32,2260           27134                                    INTEGRV                               #  CSM INTEGRATION
000178: 32,2261           77624                           CALL
000179: 32,2262           11244                                    GRP2PC
000180: 32,2263           77775                           VLOAD
000181: 32,2264           00025                                    VATT1
000182: 32,2265           25761                           STOVL    VSUBC                                 #  SAVE CSM VELOCITY
000183: 32,2266           00017                                    RATT1
000184: 32,2267           01102                           STORE    RSUBC                                 #  SAVE CSM POSITION
000185: 32,2270           53435                           VXV      UNIT                                  #  COMPUTE NORMAL TO CSM ORBITAL PLANE
000186: 32,2271           01761                                    VSUBC                                 #  NSUB1=UNIT(R(CM) CROSS V(CM)
000187: 32,2272           24025                           STOVL    20D                                   #  SAVE NSUB1
000188: 32,2273           03631                                    RSUBL                                 #  COMPUTE ESTIMATED ORBITAL
000189: 32,2274           53435                           VXV      UNIT                                  #  PLANE CHANGE
000190: 32,2275           00025                                    20D                                   #  UCSM = UNIT(R(LM) CROSS NSUB1)
000191: 32,2276           27637                           STOVL    UCSM
000192: 32,2277           01102                                    RSUBC                                 #  COMPUTE ANGLE BETWEEN UCSM
000193: 32,2300           50256                           UNIT     DOT                                   #  AND RSUBC
000194: 32,2301           03637                                    UCSM                                  #  COS A = UCSM DOT UNIT (R(CM))
000195: 32,2302           77752                           SL1
000196: 32,2303           02732                           STORE    CSTH                                  #  SAVE DOE TIME-THETA SUBROUTINE
000197: 32,2304           44316                           DSQ      BDSU                                  #  COMPUTE SINE A
000198: 32,2305           10314                                    ONEB-2
000199: 32,2306           77766                           SQRT
000200: 32,2307           26730                           STOVL    SNTH                                  #  SAVE FOR TIME-THETA SUBROUTINE
000201: 32,2310           01102                                    RSUBC                                 #  POSITION OF CSM AT EST. LAUNCH
000202: 32,2311           26655                           STOVL    RVEC                                  #  TIME FOR TIME-THETA   B-27
000203: 32,2312           01761                                    VSUBC                                 #  VELOCITY OF CSM AT EST. LAUNCH
000204: 32,2313           77676                           VCOMP
000205: 32,2314           02744                           STORE    VVEC                                  #  TIME FOR TIME THETA   B-5
000206: 32,2315           45014                           CLEAR    CALL
000207: 32,2316           03666                                    RVSW
000208: 32,2317           24732                                    TIMETHET
000209: 32,2320           77676                           VCOMP
000210: 32,2321           03645                           STORE    NEWVEL                                #  TERMINAL VELOCITY OF CSM
000211: 32,2322           77745                           DLOAD
000212: 32,2323           00037                                    T
000213: 32,2324           27663                           STOVL    TRANSTM                               #  TRANSFER TIME


000215: 32,2325           03645                                    NEWVEL
000216: 32,2326           77646                           ABVAL
000217: 32,2327           24025                           STOVL    20D
000218: 32,2330           00001                                    0D
000219: 32,2331           03653                           STORE    NEWPOS                                #  TERMINAL POSITION OF CSM
000220: 32,2332           53435                           VXV      UNIT                                  #  COMPUTE NORMAL TO CSM ORBITAL PLANE
000221: 32,2333           03631                                    RSUBL                                 #  NSUB2 = UNIT(NEWPOS CROSS R(LM))
000222: 32,2334           53435                           VXV      UNIT                                  #  ROTATE TERMINAL VEL INTO DESIRED
000223: 32,2335           03653                                    NEWPOS                                #  ORBITAL PLANE
000224: 32,2336           76561                           VXSC     VSL1                                  #  VSUBC = ABVAL(NEWVEL) $ UNIT (NSUB2
000225: 32,2337           00025                                    20D
000226: 32,2340           37665                           STCALL   NCSMVEL                               #  NEW CSM VELOCITY
000227: 32,2341           11244                                    GRP2PC
000228: 32,2342           77624                           CALL
000229: 32,2343           27414                                    INTSTALL
000230: 32,2344           44345                           DLOAD    BDSU
000231: 32,2345           03663                                    TRANSTM                               #  LAUNCH TIME - TRANSFER TIME
000232: 32,2346           03661                                    LNCHTM
000233: 32,2347           25517                           STOVL    TET
000234: 32,2350           03653                                    NEWPOS
000235: 32,2351           01535                           STORE    RCV
000236: 32,2352           25503                           STOVL    RRECT
000237: 32,2353           03665                                    NCSMVEL
000238: 32,2354           35511                           STCALL   VRECT
000239: 32,2355           23455                                    MINIRECT
000240: 32,2356           45174                           AXT,2    CALL
000241: 32,2357           00002                                    2
000242: 32,2360           26661                                    ATOPCSM
000243: 32,2361           77624                           CALL
000244: 32,2362           27423                                    INTWAKE0
000245: 32,2363           77776                           EXIT
000246: 32,2364           04616                           TC       BANKCALL
000247: 32,2365           50040                           CADR     PROG20A
000248:
000249: 24,2036                                           BANK     24
000250: 24,2000                                           SETLOC   P20S
000251: 24,2000                                           BANK
000252: 24,2036                                           COUNT*   $$/P20
000253:
000254: 24,2036           05516                           TC       DOWNFLAG                              #  RESET VEHUPFLG - LM STATE VECTOR
000255: 24,2037           00026                           ADRES    VEHUPFLG                              #  TO BE UPDATED
000256: 24,2040           04616        PROG20A            TC       BANKCALL
000257: 24,2041           11254                           CADR     R02BOTH
000258: 24,2042           05504                           TC       UPFLAG
000259: 24,2043           00027                           ADRES    UPDATFLG                              #  SET UPDATE FLAG
000260: 24,2044           05504                           TC       UPFLAG
000261: 24,2045           00031                           ADRES    TRACKFLG                              #  SET TRACK FLAG
000262: 24,2046           05504                           TC       UPFLAG
000263: 24,2047           00010                           ADRES    RNDVZFLG                              #  SET RENDEZVOUS FLAG
000264: 24,2050           05516                           TC       DOWNFLAG
000265: 24,2051           00037                           ADRES    SRCHOPTN                              #  INSURE SEARCH OPTION OFF


000267: 24,2052           05516                           TC       DOWNFLAG                              #  ALSO MANUAL ACQUISITION FLAG RESET
000268: 24,2053           00040                           ADRES    ACMODFLG
000269: 24,2054           05516                           TC       DOWNFLAG                              #  TURN OFF R04FLAG TO ENSURE GETTING
000270: 24,2055           00063                           ADRES    R04FLAG                               #  ALARM 521 IF CANT READ RADAR
000271: 24,2056           05516                           TC       DOWNFLAG                              #  ENSURE R25 GIMBAL MONITOR IS ENABLED
000272: 24,2057           00126                           ADRES    NORRMON                               #  (RESET NORRMON FLAG)
000273: 24,2060           05516                           TC       DOWNFLAG                              #  RESET LOS BEING COMPUTED FLAG
000274: 24,2061           00041                           ADRES    LOSCMFLG
000275: 24,2062           06011                           TC       CLRADMOD
000276: 24,2063           05353        P20LEM1            TC       PHASCHNG
000277: 24,2064           04022                           OCT      04022
000278: 24,2065           34755                           CAF      ZERO                                  #  ZERO MARK COUNTER
000279: 24,2066           55462                           TS       MARKCTR
000280: 24,2067           06037                           TC       INTPRET                               #  LOS DETERMINATION ROUTINE
000281: 24,2070           77634                           RTB
000282: 24,2071           21573                                    LOADTIME
000283: 24,2072           34041                           STCALL   TDEC1
000284: 24,2073           51255                                    LPS20.1
000285: 24,2074           77624                           CALL
000286: 24,2075           53565                                    LPS20.2                               #  TEST RANGE R/UTINE
000287: 24,2076           77776                           EXIT
000288: 24,2077           50154                           INDEX    MPAC
000289: 24,2100           02101                           TC       +1
000290: 24,2101           02111                           TC       P20LEMA                               #  NORMAL RETURN WITHIN 400 N M
000291: 24,2102           32305        526ALARM           CAF      ALRM526                               #  ERROR EXIT - RANGE > 400 N. MI.
000292: 24,2103           04616                           TC       BANKCALL
000293: 24,2104           21562                           CADR     PRIOLARM
000294: 24,2105           06022                           TC       GOTOV56                               #  TERMINATE EXITS P20 VIA V56 CODING
000295: 24,2106           02102                           TC       -4                                    #  PROC (ILLEGAL
000296: 24,2107           02063                           TC       P20LEM1                               #  ENTER RECYCLE
000297: 24,2110           05155                           TC       ENDOFJOB
000298:
000299: 24,2111           05353        P20LEMA            TC       PHASCHNG
000300: 24,2112           04022                           OCT      04022
000301: 24,2113           02667                           TC       LUNSFCHK                              #  CHECK LUNAR SURFACE FLAG (P22 FLAG)
000302: 24,2114           02117                           TC       P20LEMB
000303: 24,2115           04616                           TC       BANKCALL
000304: 24,2116           46116                           CADR     R61LEM                                #  PREFERRED TRACKING ATTITUDE ROUTINE
000305: 24,2117           05353        P20LEMB            TC       PHASCHNG
000306: 24,2120           05022                           OCT      05022                                 #  RESTART AT PRIORITY 10 TO ALLOW V37
000307: 24,2121           10000                           OCT      10000                                 #  REQUESTED PROGRAM TO RUN FIRST
000308: 24,2122           37714                           CAF      PRIO26                                #  RESTORE PRIORITY 26
000309: 24,2123           05146                           TC       PRIOCHNG
000310: 24,2124           30075                           CA       FLAGWRD1                              #  IS THE TRACK FLAG SET
000311: 24,2125           74747                           MASK     TRACKBIT
000312: 24,2126           00006                           EXTEND
000313: 24,2127           12232                           BZF      P20LEMWT                              #  BRANCH - NO - WAIT FOR IT TO BE SET
000314: 24,2130           34752        P20LEMB7           CAF      BIT2                                  #  IS RR AUTO MODE DISCRETE PRESENT
000315: 24,2131           00006                           EXTEND


000317: 24,2132           02033                           RAND     CHAN33
000318: 24,2133           00006                           EXTEND
000319: 24,2134           12170                           BZF      P20LEMB3                              #  YES - DO AUTOMATIC ACQUISITION (R21)
000320:
000321: 24,2135           46007        P20LEMB5           CS       OCT24                                 #  RADAR NOT IN AUTO CHECK IF
000322: 24,2136           61011                           AD       MODREG                                #  MAJOR MODE IS 20
000323: 24,2137           00006                           EXTEND
000324: 24,2140           12153                           BZF      P20LEMB6                              #  BRANCH - YES - OK TO DO PLEASE PERFORM
000325:
000326: 24,2141           67746                           AD       NEG2                                  #  ALSO CHECK FOR P22
000327: 24,2142           00006                           EXTEND
000328: 24,2143           12153                           BZF      P20LEMB6                              #  BRANCH - YES OK TO DO PLEASE PERFORM
000329: 24,2144           32307                           CAF      ALRM514                               #  TRACK FLAG SET - FLASH PRIORITY ALARM 514 -
000330: 24,2145           04616                           TC       BANKCALL                              #  RADAR GOES OUT OF AUTO MODE WHILE IN USE
000331: 24,2146           21562                           CADR     PRIOLARM
000332: 24,2147           06022                           TC       GOTOV56                               #  TERMINATE EXITS VIA V56
000333: 24,2150           02117                           TC       P20LEMB                               #  PROCEED AND ENTER BOTH GO BACK
000334: 24,2151           02117                           TC       P20LEMB                               #  TO CHECK AUTO MODE AGAIN
000335: 24,2152           05155                           TC       ENDOFJOB
000336: 24,2153           32306        P20LEMB6           CAF      OCT201                                #  REQUEST RR AUTO MODE SELECTION
000337: 24,2154           04616                           TC       BANKCALL
000338: 24,2155           20623                           CADR     GOPERF1
000339: 24,2156           06022                           TC       GOTOV56                               #  TERMINATE EXITS P20 VIA V56 CODING
000340: 24,2157           02117                           TC       P20LEMB                               #  PROCEED CHECKS AUTO MODE DISCRETE AGAIN
000341: 24,2160           02667                           TC       LUNSFCHK                              #  ENTER INDICATES MANUAL ACQUISITION (R23)
000342: 24,2161           02166                           TC       P20LEMB2                              #  YES - R23 NOT ALLOWED - TURN ON OPR ERROR
000343: 24,2162           03135                           TC       R23LEM                                #  NO - DO MANUAL ACQUISITION
000344:
000345: 24,2163           05504        P20LEMB1           TC       UPFLAG                                #  RETURN FROM R23 - LOCKON ACHIEVED
000346: 24,2164           00040                           ADRES    ACMODFLG                              #  SET MANUAL FLAG AND GO BACK TO CHECK
000347: 24,2165           02117                           TC       P20LEMB                               #  RR AUTO MODE
000348:
000349: 24,2166           04364        P20LEMB2           TC       FALTON                                #  TURNS ON OPERATOR ERROR LIGHT ON DSKY
000350: 24,2167           02117                           TC       P20LEMB                               #  AND GOES BACK TO CHECK AUTO MODE
000351:
000352: 24,2170           40110        P20LEMB3           CS       RADMODES                              #  ARE RR CDUS BEING ZEROED
000353: 24,2171           74737                           MASK     RCDU0BIT
000354: 24,2172           00006                           EXTEND
000355: 24,2173           12205                           BZF      P20LEMB4                              #  BRANCH - YES - WAIT
000356: 24,2174           34355                           CAF      BIT13-14                              #  IS SEARCH OR MANUAL ACQUISITION FLAG SET
000357: 24,2175           70076                           MASK     FLAGWRD2
000358: 24,2176           00006                           EXTEND
000359: 24,2177           12211                           BZF      P20LEMC3                              #  ZERO MEANS AUTOMATIC RR ACQUISTION
000360: 24,2200           05516                           TC       DOWNFLAG                              #  RESET TO AUTO MODE
000361: 24,2201           00037                           ADRES    SRCHOPTN


000363: 24,2202           05516                           TC       DOWNFLAG
000364: 24,2203           00040                           ADRES    ACMODFLG
000365: 24,2204           02232                           TC       P20LEMWT                              #  WAIT 2.5 SECONDS THEN GO TO RR DATA READ
000366:
000367: 24,2205           32304        P20LEMB4           CAF      250DEC
000368: 24,2206           04616                           TC       BANKCALL                              #  WAIT 2.5 SECONDS WHILE RR CDUS ARE BEING
000369: 24,2207           01735                           CADR     DELAYJOB                              #  ZEROED - THEN GO BACK AND CHECK AGAIN
000370: 24,2210           02170                           TC       P20LEMB3
000371:
000372: 24,2211           06037        P20LEMC3           TC       INTPRET
000373: 24,2212           77634                           RTB
000374: 24,2213           21573                                    LOADTIME
000375: 24,2214           34041                           STCALL   TDEC1
000376: 24,2215           50316                                    UPPSV
000377: 24,2216           77776        P20LEMC4           EXIT
000378: 24,2217           05353        P20LEMC            TC       PHASCHNG
000379: 24,2220           04022                           OCT      04022
000380: 24,2221           30074                           CAE      FLAGWRD0                              #  IS THE RENDEZVOUS FLAG SET
000381: 24,2222           74745                           MASK     RNDVZBIT
000382: 24,2223           00006                           EXTEND
000383: 24,2224           15155                           BZF      ENDOFJOB                              #  NO - EXIT P20
000384: 24,2225           30075                           CAE      FLAGWRD1                              #  IS TRACK FLAG SET (BIT 5 FLAGWORD 1)
000385: 24,2226           74747                           MASK     TRACKBIT
000386: 24,2227           00006                           EXTEND
000387: 24,2230           12264                           BZF      P20LEMD                               #  BRANCH - TRACK FLAG NOT ON - WAIT 15 SECONDS
000388: 24,2231           02674        P20LEMF            TC       R21LEM
000389:
000390: 24,2232           32304        P20LEMWT           CAF      250DEC
000391: 24,2233           05173                           TC       TWIDDLE                               #  USE INSTEAD OF WAITLIST SINCE SAME BANK
000392: 24,2234           02244                           ADRES    P20LEMC1                              #  WAIT 2.5 SECONDS
000393: 24,2235           30075                           CAE      FLAGWRD1                              #  IS TRACK FLAG SET
000394: 24,2236           74747                           MASK     TRACKBIT
000395: 24,2237           00006                           EXTEND
000396: 24,2240           15155                           BZF      ENDOFJOB                              #  NO - EXIT WITHOUT DOING 2.7 PHASE CHANGE
000397: 24,2241           05353        P20LMWT1           TC       PHASCHNG
000398: 24,2242           40072                           OCT      40072
000399: 24,2243           05155                           TC       ENDOFJOB
000400:
000401: 24,2244           30074        P20LEMC1           CAE      FLAGWRD0                              #  IS RENDEZVOUS FLAG SET
000402: 24,2245           74745                           MASK     RNDVZBIT
000403: 24,2246           00006                           EXTEND
000404: 24,2247           15261                           BZF      TASKOVER                              #  NO - EXIT P20/R22
000405: 24,2250           30075                           CAE      FLAGWRD1                              #  IS TRACK FLAG SET
000406: 24,2251           74747                           MASK     TRACKBIT
000407: 24,2252           00006                           EXTEND
000408: 24,2253           12261                           BZF      P20LEMC2                              #  NO - DONT SCHEDULE R22 JOB


000410: 24,2254           37714                           CAF      PRIO26                                #  YES - SCHEDULE R22 JOB (RR DATA READ)
000411: 24,2255           05105                           TC       FINDVAC
000412: 24,2256  E7,1456                                  EBANK=   LOSCOUNT
000413: 24,2256           02627 50067                     2CADR    R22LEM42
000414:
000415: 24,2260           05261                           TC       TASKOVER
000416:
000417: 24,2261           05221        P20LEMC2           TC       FIXDELAY                              #  TRACK FLAG NOT SET, WAIT 15 SECONDS
000418: 24,2262           02734                           DEC      1500       B-14                       #  AND CHECK AGAIN
000419:
000420: 24,2263           02244                           TC       P20LEMC1
000421:
000422: 24,2264           32666        P20LEMD            CAF      1500DEC
000423: 24,2265           05173                           TC       TWIDDLE                               #  WAITLIST FOR 15 SECONDS
000424: 24,2266           02270                           ADRES    P20LEMD1
000425: 24,2267           05155                           TC       ENDOFJOB
000426:
000427: 24,2270           30075        P20LEMD1           CAE      FLAGWRD1                              #  IS TRACK FLAG SET
000428: 24,2271           74747                           MASK     TRACKBIT
000429: 24,2272           10000                           CCS      A
000430: 24,2273           12277                           TCF      P20LEMD2                              #  YES - SCHEDULE DESIGNATE JOB
000431: 24,2274           05221                           TC       FIXDELAY                              #  NO - WAIT 15 SECONDS
000432: 24,2275           02734                           DEC      1500       B-14
000433: 24,2276           02270                           TC       P20LEMD1
000434:
000435: 24,2277           37714        P20LEMD2           CAF      PRIO26                                #  SCHEDULE JOB TO DO R21
000436: 24,2300           05105                           TC       FINDVAC
000437: 24,2301  E7,1456                                  EBANK=   LOSCOUNT
000438: 24,2301           02211 50067                     2CADR    P20LEMC3                              #  START AT PERM.  MEMORY INTEGRATION
000439:
000440: 24,2303           05261                           TC       TASKOVER
000441:
000442: 24,2304           00372        250DEC             DEC      250        B-14
000443: 24,2305           00526        ALRM526            OCT      00526
000444: 24,2306           00201        OCT201             OCT      00201
000445: 24,2307           00514        ALRM514            OCT      514
000446: 24,2310           00074        MAXTRIES           DEC      60         B-14
000447: 24,2311           00012        OCT00012           OCT      00012
000448: 24,2312           00001        P22ONE             OCT      00001
000449: 24,2313           10000 00000  ONEB-2             2DEC     1.0        B-2
000450:
000451: 24,2315           01441        V06N33*            VN       0633
000452: 24,2316           45020        UPPSV              STQ      CALL                                  #  UPDATES PERMANENT STATE VECTORS
000453: 24,2317           01757                                    LS21X                                 #        TO PRESENT TIME
000454: 24,2320           27414                                    INTSTALL
000455: 24,2321           77624                           CALL


000457: 24,2322           26644                                    SETIFLGS
000458: 24,2323           43014                           BOF      SET                                   #  IF W-MATRIX INVALID, DONT INTEGRATE IT
000459: 24,2324           02756                                    RENDWFLG
000460: 24,2325           50336                                    UPPSV1
000461: 24,2326           01476                                    DIM0FLAG                              #  SET DIMOFLAG TO INTEGRATE W-MATRIX
000462: 24,2327           43014                           BON      SET
000463: 24,2330           04307                                    SURFFLAG                              #  IF ON LUNAR SURFACE W IS 6X6
000464: 24,2331           50333                                    UPPSV5
000465: 24,2332           01475                                    D6OR9FLG                              #  OTHERWISE 9X9
000466: 24,2333           77614        UPPSV5             BOF
000467: 24,2334           00747                                    VEHUPFLG
000468: 24,2335           50370                                    UPPSV3
000469: 24,2336           77614        UPPSV1             SET
000470: 24,2337           01474                                    VINTFLAG
000471: 24,2340           77624                           CALL
000472: 24,2341           27134                                    INTEGRV
000473: 24,2342           77624                           CALL                                           #  GROUP 2 PHASE CHANGE
000474: 24,2343           11244                                    GRP2PC                                #  TO PROTECT INTEGRATION
000475: 24,2344           77624                           CALL
000476: 24,2345           27414                                    INTSTALL
000477: 24,2346           43145                           DLOAD    CLEAR                                 #  GET TETCSM TO STORE IN TDEC FOR LM INT.
000478: 24,2347           01571                                    TETCSM
000479: 24,2350           01674                                    VINTFLAG
000480: 24,2351           77624        UPPSV4             CALL                                           #  INTEGRATE OTHER VEHICLE
000481: 24,2352           26644                                    SETIFLGS                              #        WITHOUT W-MATRIX
000482: 24,2353           34041                           STCALL   TDEC1
000483: 24,2354           27134                                    INTEGRV
000484: 24,2355           77214                           BOFF     VLOAD
000485: 24,2356           04347                                    SURFFLAG
000486: 24,2357           50216                                    P20LEMC4
000487: 24,2360           01661                                    RCVLEM
000488: 24,2361           77742                           VSR2
000489: 24,2362           26352                           STOVL    LMPOS
000490: 24,2363           01667                                    VCVLEM
000491: 24,2364           77742                           VSR2
000492: 24,2365           02360                           STORE    LMVEL
000493: 24,2366           77650                           GOTO
000494: 24,2367           01757                                    LS21X
000495:
000496: 24,2370           45014        UPPSV3             CLEAR    CALL
000497: 24,2371           01674                                    VINTFLAG
000498: 24,2372           27134                                    INTEGRV
000499: 24,2373           77624                           CALL
000500: 24,2374           11244                                    GRP2PC
000501: 24,2375           77624                           CALL
000502: 24,2376           27414                                    INTSTALL
000503: 24,2377           71214                           SET      DLOAD
000504: 24,2400           01474                                    VINTFLAG
000505: 24,2401           01643                                    TETLEM                                #  GET TETLEM TO STORE IN TDEC FOR CSM INT.


000507: 24,2402           77650                           GOTO
000508: 24,2403           50351                                    UPPSV4
000509: 24,2404  E7,1456                                  EBANK=   LOSCOUNT
000510: 24,2404                                           COUNT*   $$/P22
000511:


000513:                                                                                                  #  PROGRAM DESCRIPTION
000514:
000515:                                                                                                  #        PREFERRED TRACKING ATTITUDE PROGRAM P25
000516:                                                                                                  #        MOD NO - 3
000517:                                                                                                  #        BY P. VOLANTE
000518:
000519:                                                                                                  #  FUNCTIONAL DESCRIPTION
000520:
000521:                                                                                                  #        THE PURPOSE OF THIS PROGRAM IS TO COMPUTE THE PREFERRED TRACKING
000522:                                                                                                  #        ATTITUDE OF THE LM TO CONTINUOUSLY POINT THE LM TRACKING BEACON AT THE
000523:                                                                                                  #        CSM AND TO PERFORM THE MANEUVER TO THE PREFERRED TRACKING ATTITUDE AND
000524:                                                                                                  #        CONTINUOUSLY MAINTAIN THIS ATTITUDE WITHIN PRESCRIBED LIMITS
000525:
000526:                                                                                                  #  CALLING SEQUENCE -
000527:
000528:                                                                                                  #        ASTRONAUT REQUEST THROUGH DSKY V37E25E
000529:
000530:                                                                                                  #  SUBROUTINES CALLED -
000531:
000532:                                                                                                  #        BANKCALL                                        FLAGUP
000533:                                                                                                  #        R02BOTH (IMU STATUS CHECK)                      ENDOFJOB
000534:                                                                                                  #        R61LEM  (PREF TRK ATT ROUT)                     WAITLIST
000535:                                                                                                  #        TASKOVER                                        FINDVAC
000536:
000537:                                                                                                  #  NORMAL EXIT MODES -
000538:
000539:                                                                                                  #        P25 MAY BE TERMINATED IN TWO WAYS - ASTRONAUT SELECTION OF IDLING
000540:                                                                                                  #        PROGRAM (P00) BY KEYING V37E00E OR BY KEYING IN V56E
000541:
000542:                                                                                                  #  ALARM OR ABORT EXIT MODES -
000543:
000544:                                                                                                  #        NONE
000545:
000546:                                                                                                  #  OUTPUT
000547:
000548:                                                                                                  #  ERASABLE INITIALIZATION REQUIRED
000549:
000550:                                                                                                  #  FLAGS SET + RESET
000551:
000552:                                                                                                  #        TRACKFLG, P25FLAG
000553:
000554:                                                                                                  #  DEBRIS
000555:
000556:                                                                                                  #        NONE
000557:
000558: 24,2404  E7,1456                                  EBANK=   LOSCOUNT
000559: 24,2404                                           COUNT*   $$/P25
000560: 24,2404           05327        PROG25             TC       2PHSCHNG
000561: 24,2405           00004                           OCT      4                                     #  MAKE GROUP 4 INACTIVE (VERB 37)
000562: 24,2406           05022                           OCT      05022
000563: 24,2407           26000                           OCT      26000                                 #  PRIORITY 26
000564:
000565: 24,2410           04616                           TC       BANKCALL
000566: 24,2411           11254                           CADR     R02BOTH                               #  IMU STATUS CHECK
000567: 24,2412           05504                           TC       UPFLAG
000568: 24,2413           00031                           ADRES    TRACKFLG                              #  SET TRACK FLAG
000569: 24,2414           05504                           TC       UPFLAG
000570: 24,2415           00006                           ADRES    P25FLAG                               #  SET P25FLAG
000571: 24,2416           05353        P25LEM1            TC       PHASCHNG
000572: 24,2417           04022                           OCT      04022
000573: 24,2420           34743                           CAF      P25FLBIT
000574: 24,2421           70074                           MASK     STATE                                 #  IS P25FLAG SET
000575: 24,2422           00006                           EXTEND
000576: 24,2423           15155                           BZF      ENDOFJOB
000577: 24,2424           34747                           CAF      TRACKBIT                              #  IS TRACKFLAG SET?
000578: 24,2425           70075                           MASK     STATE      +1
000579: 24,2426           00006                           EXTEND


000581: 24,2427           12437                           BZF      P25LMWT1                              #  NO - SKIP PHASE CHANGE AND WAIT 1 MINUTE
000582: 24,2430           34757                           CAF      SEVEN                                 #  CALL R65 - FINE PREFERRED
000583: 24,2431           55745                           TS       R65CNTR
000584: 24,2432           04616                           TC       BANKCALL                              #  TRACKING ATTITUDE ROUTINE
000585: 24,2433           46123                           CADR     R65LEM
000586: 24,2434           02416                           TC       P25LEM1                               #  THEN GO CHECK FLAGS
000587: 24,2435           05353        P25LEMWT           TC       PHASCHNG
000588: 24,2436           00112                           OCT      00112
000589: 24,2437           32450        P25LMWT1           CAF      60SCNDS
000590: 24,2440           05173                           TC       TWIDDLE                               #  WAIT ONE MINUTE THEN CHECK AGAIN
000591: 24,2441           02443                           ADRES    P25LEM2
000592: 24,2442           05155                           TC       ENDOFJOB
000593: 24,2443           35024        P25LEM2            CAF      PRIO14
000594: 24,2444           05105                           TC       FINDVAC
000595: 24,2445  E7,1456                                  EBANK=   LOSCOUNT
000596: 24,2445           02416 50067                     2CADR    P25LEM1
000597:
000598: 24,2447           05261                           TC       TASKOVER
000599: 24,2450           13560        60SCNDS            DEC      6000       B-14
000600:


000602:                                                                                                  #  DATA READ ROUTINE 22 (LEM)
000603:                                                                                                  #  PROGRAM DESCRIPTION
000604:
000605:                                                                                                  #        MOD NO - 2
000606:                                                                                                  #        BY P VOLANTE
000607:
000608:                                                                                                  #  FUNCTIONAL DESCRIPTION
000609:
000610:                                                                                                  #        TO PROCESS AUTOMATIC RR MARK DATA TO UPDATE THE STATE VECTOR OF EITHER
000611:                                                                                                  #        LM OR CSM AS DEFINED IN THE RENDEZVOUS NAVIGATION PROGRAM (P20)
000612:
000613:                                                                                                  #  CALLING SEQUENCE -
000614:
000615:                                                                                                  #        TC      BANKCALL
000616:                                                                                                  #        CADR    R22LEM
000617:
000618:                                                                                                  #  SUBROUTINES CALLED -
000619:
000620:                                                                                                  #        LSR22.1         GOFLASH         WAITLIST
000621:                                                                                                  #        LSR22.2         PRIOLARM        BANKCALL
000622:                                                                                                  #        LSR22.3         R61LEM
000623:
000624:                                                                                                  #  NORMAL EXIT MODES -
000625:
000626:                                                                                                  #        R22 WILL CONTINUE TO RECYCLE, UPDATING STATE VECTORS WITH RADAR DATA
000627:                                                                                                  #        UNTIL P20 CEASES TO OPERATE (RENDEZVOUS FLAG SET TO ZERO) AT WHICH TIME
000628:                                                                                                  #        R22 WILL TERMINATE SELF.
000629:
000630:                                                                                                  #  ALARM OR ABORT EXIT MODES -
000631:
000632:                                                                                                  #        PRIORITY ALARM
000633:                                                                                                  #        PRIORITY ALARM 525 LOS NOT WITHIN 3 DEGREE LIMIT
000634:
000635:                                                                                                  #  OUTPUT
000636:
000637:                                                                                                  #        SEE OUTPUT FROM LSR22.3
000638:
000639:                                                                                                  #  ERASABLE INITIALIZATION REQUIRED
000640:
000641:                                                                                                  #        SEE LSR22.1, LSR22.2, LSR22.3
000642:
000643:                                                                                                  #  FLAGS SET + RESET
000644:
000645:                                                                                                  #        NOANGFLG
000646:
000647:                                                                                                  #  DEBRIS
000648:
000649:                                                                                                  #        SEE LSR22.1, LSR22.2, LSR22.3
000650:
000651: 24,2451  E7,1737                                  EBANK=   LRS22.1X
000652: 24,2451                                           COUNT*   $$/R22
000653: 24,2451           05353        R22LEM             TC       PHASCHNG
000654: 24,2452           04022                           OCT      04022
000655: 24,2453           34745                           CAF      RNDVZBIT                              #  IS RENDESVOUS FLAG SET?
000656: 24,2454           70074                           MASK     STATE
000657: 24,2455           00006                           EXTEND
000658: 24,2456           15155                           BZF      ENDOFJOB                              #  NO - EXIT R22 AND P20
000659: 24,2457           34747                           CAF      TRACKBIT                              #  IS TRACKFLAG SET?
000660: 24,2460           70075                           MASK     STATE      +1
000661: 24,2461           00006                           EXTEND
000662: 24,2462           12636                           BZF      R22WAIT                               #  NO WAIT
000663: 24,2463           34736        R22LEM12           CAF      BIT14                                 #  IS RR AUTO TRACK ENABLE DISCRETE STILL
000664: 24,2464           00006                           EXTEND                                         #  ON (A MONITOR REPOSITION BY R25 CLEARSIT
000665: 24,2465           02012                           RAND     CHAN12
000666: 24,2466           00006                           EXTEND
000667: 24,2467           12111                           BZF      P20LEMA                               #  NO - RETURN TO P20
000668: 24,2470           34752                           CAF      BIT2                                  #  YES
000669: 24,2471           00006                           EXTEND                                         #  IS RR AUTO MODE DISCRETE PRESENT
000670: 24,2472           02033                           RAND     CHAN33


000672: 24,2473           00006                           EXTEND
000673: 24,2474           12476                           BZF      +2                                    #  YES CONTINUE
000674: 24,2475           02135                           TC       P20LEMB5                              #  NO - SET IT
000675: 24,2476           40110                           CS       RADMODES                              #  ARE RR CDUS BEING ZEROED
000676: 24,2477           74737                           MASK     RCDU0BIT
000677: 24,2500           00006                           EXTEND
000678: 24,2501           12627                           BZF      R22LEM42                              #  CDUS BEING ZEROED
000679: 24,2502           05353                           TC       PHASCHNG                              #  IF A RESTART OCCURS, AN EXTRA RADAR
000680: 24,2503           00152                           OCT      00152                                 #  READING IS TAKEN, SO BAD DATA ISN'T USED
000681: 24,2504           04616                           TC       BANKCALL                              #  YES READ DATA + CALCULATE LOS
000682: 24,2505           64366                           CADR     LRS22.1                               #  DATA READ SUBROUTINE
000683: 24,2506           50154                           INDEX    MPAC
000684: 24,2507           02510                           TC       +1
000685: 24,2510           02531                           TC       R22LEM2                               #  NORMAL RETURN (GOOD DATA)
000686: 24,2511           02217                           TC       P20LEMC                               #  COULD NOT READ RADAR - TRY TO REDESIGNATE
000687: 24,2512           32663                           CAF      ALRM525                               #  RR LOS NOT WITHIN 3 DEGREES (ALARM)
000688: 24,2513           04616                           TC       BANKCALL
000689: 24,2514           21562                           CADR     PRIOLARM
000690: 24,2515           06022                           TC       GOTOV56                               #  TERMINATE EXITS P20 VIA V56 CODING
000691: 24,2516           02521                           TC       R22LEM1                               #  PROC (DISPLAY DELTA THETA)
000692: 24,2517           02512                           TC       -5                                    #  ENTER (ILLEGAL OPTION)
000693: 24,2520           05155                           TC       ENDOFJOB
000694:
000695: 24,2521           05353        R22LEM1            TC       PHASCHNG
000696: 24,2522           04022                           OCT      04022
000697: 24,2523           32664                           CAF      V06N05                                #  DISPLAY DELTA THETA
000698: 24,2524           04616                           TC       BANKCALL
000699: 24,2525           20507                           CADR     PRIODSP
000700: 24,2526           06022                           TC       GOTOV56                               #  TERMINATE EXITS P20 VIA V56 CODING
000701: 24,2527           02531                           TC       R22LEM2                               #  PROC (OK CONTINUE)
000702: 24,2530           02217                           TC       P20LEMC                               #  ENTER (RECYCLE)
000703: 24,2531           05353        R22LEM2            TC       PHASCHNG
000704: 24,2532           04022                           OCT      04022
000705: 24,2533           02667                           TC       LUNSFCHK                              #  CHECK IF ON LUNAR SURFACE (P22FLAG SET)
000706: 24,2534           02551                           TC       R22LEM3                               #  YES - BYPASS FLAG CHECKS AND LRS22.2
000707: 24,2535           30075                           CA       FLAGWRD1                              #  IS TRACK FLAG SET
000708: 24,2536           74747                           MASK     TRACKBIT
000709: 24,2537           00006                           EXTEND
000710: 24,2540           12636                           BZF      R22WAIT                               #  NO - WAIT
000711: 24,2541           04616                           TC       BANKCALL                              #  YES
000712: 24,2542           51333                           CADR     LRS22.2                               #  CHECKS RR BORESIGHT WITHIN 30 DEG OF +Z
000713: 24,2543           50154                           INDEX    MPAC
000714: 24,2544           02545                           TC       +1
000715: 24,2545           02551                           TC       R22LEM3                               #  NORMAL RETURN (LOS WITHIN 30 OF Z-AXIS)
000716: 24,2546           04616                           TC       BANKCALL
000717: 24,2547           46116                           CADR     R61LEM
000718: 24,2550           02636                           TC       R22WAIT                               #  NOT WITHIN 30 DEG OF Z-AXIS
000719: 24,2551           40075        R22LEM3            CS       FLAGWRD1                              #  SHOULD WE BYPASS STATE VECTOR UPDATE
000720: 24,2552           74746                           MASK     NOUPFBIT                              #  (IS NO UPDATE FLAG SET?)


000722: 24,2553           00006                           EXTEND
000723: 24,2554           12627                           BZF      R22LEM42                              #  BRANCH - YES
000724: 24,2555           30075                           CA       FLAGWRD1                              #  IS UPDATE FLAG SET
000725: 24,2556           74745                           MASK     UPDATBIT
000726: 24,2557           00006                           EXTEND
000727: 24,2560           12627                           BZF      R22LEM42                              #  UPDATE FLAG NOT SET
000728: 24,2561           37714                           CAF      PRIO26                                #  INSURE HIGH PRIO IN RESTART
000729: 24,2562           55056                           TS       PHSPRDT2
000730:
000731: 24,2563           06037                           TC       INTPRET
000732: 24,2564           77650                           GOTO
000733: 24,2565           54412                                    LSR22.3
000734: 24,2566           77776        R22LEM93           EXIT                                           #  NORMAL EXIT FROM LSR22.3
000735: 24,2567           05353                           TC       PHASCHNG                              #  PHASE CHANGE TO PROTECT AGAINST
000736: 24,2570           04022                           OCT      04022                                 #  CONFLICT WITH GRP2PC ERASEABLE
000737: 24,2571           12622                           TCF      R22LEM44
000738: 24,2572           77776        R22LEM96           EXIT
000739: 24,2573           34755                           CAF      ZERO                                  #  SET N49FLAG = ZERO TO INDICATE
000740: 24,2574           55746                           TS       N49FLAG                               #  V06 N49 DISPLAY HASNT BEEN ANSWERED
000741: 24,2575           05353                           TC       PHASCHNG
000742: 24,2576           04022                           OCT      04022                                 #  TO PROTECT DISPLAY
000743: 24,2577           37715                           CAF      PRIO27                                #  PROTECT DISPLAY
000744: 24,2600           05072                           TC       NOVAC
000745: 24,2601  E7,1746                                  EBANK=   N49FLAG
000746: 24,2601           02644 50067                     2CADR    N49DSP
000747:
000748: 24,2603           06037                           TC       INTPRET
000749: 24,2604           77735                           SLOAD
000750: 24,2605           03747                                    N49FLAG
000751: 24,2606           50054                           BZE      BMN                                   #  LOOP TO CHECK IF FLAG
000752: 24,2607           50604                                    -3                                    #  SETTING CHANGED - BRANCH - NO
000753: 24,2610           50616                                    R22LEM7                               #  PROCEED
000754: 24,2611           77776                           EXIT                                           #  DISPLAY ANSWERED BY RECYCLE
000755: 24,2612           02667                           TC       LUNSFCHK                              #  ARE WE ON LUNAR SURFACE
000756: 24,2613           02636                           TC       R22WAIT                               #  YES - 15 SECOND DELAY
000757: 24,2614           34755                           CA       ZERO                                  #  NO - SET R65COUNTER = 0, DO FINE
000758: 24,2615           02632                           TC       R22LEM45                              #  TRACKING TAKE ANOTHER RADAR READING
000759: 24,2616           77624        R22LEM7            CALL                                           #  PROCEED
000760: 24,2617           11244                                    GRP2PC                                #  PHASE CHANGE AND
000761: 24,2620           77650                           GOTO                                           #  GO TO INCORPORATE DATA.
000762: 24,2621           55431                                    ASTOK
000763: 24,2622           25462        R22LEM44           INCR     MARKCTR                               #  INCREMENT COUNT OF MARKS INCORPORATED.
000764: 24,2623           02667                           TC       LUNSFCHK                              #  ARE WE ON LUNAR SURFACE
000765: 24,2624           02640                           TC       R22LEM46                              #  YES - WAIT 2 SECONDS
000766: 24,2625           34756                           CA       FIVE                                  #  NOT ON LUNAR SURFACE
000767: 24,2626           02632                           TC       R22LEM45                              #  R65COUNTER = 5
000768: 24,2627           02667        R22LEM42           TC       LUNSFCHK                              #  CHECK IF ON LUNAR SURFACE (P22FLAG SET)
000769: 24,2630           02640                           TC       R22LEM46                              #  YES - WAIT 2 SECONDS
000770: 24,2631           34752                           CA       TWO                                   #  NO - SET R65COUNTER = 2
000771: 24,2632           55745        R22LEM45           TS       R65CNTR


000773: 24,2633           04616                           TC       BANKCALL
000774: 24,2634           46123                           CADR     R65LEM                                #  FINE PREFERRED TRACKING ATTITUDE
000775: 24,2635           02451                           TC       R22LEM
000776: 24,2636           32666        R22WAIT            CAF      1500DEC
000777: 24,2637           02233                           TC       P20LEMWT   +1
000778:
000779: 24,2640           35000        R22LEM46           CAF      2SECS
000780: 24,2641           04616                           TC       BANKCALL                              #  WAIT 2 SECONDS AND TAKE ANOTHER MARK
000781: 24,2642           01735                           CADR     DELAYJOB
000782: 24,2643           02451                           TC       R22LEM
000783:
000784: 24,2644           32665        N49DSP             CAF      V06N49NB
000785: 24,2645           04616                           TC       BANKCALL                              #  EXCESSIVE STATE VECTOR UPDATE - FLASH
000786: 24,2646           20507                           CADR     PRIODSP                               #  VERB 06 NOUN 49 R1=DELTA R, R2=DELTA V
000787: 24,2647           06022                           TC       GOTOV56                               #  TERMINATE - EXIT R22 AND P20
000788: 24,2650           44753                           CS       ONE                                   #  PROCEED - N49FLAG = -1
000789: 24,2651           55746                           TS       N49FLAG                               #  RECYCLE - N49FLAG = + VALUE
000790: 24,2652           05155                           TC       ENDOFJOB
000791: 24,2653           05353        R22RSTRT           TC       PHASCHNG                              #  IF A RESTART OCCURS WHILE READING RADAR
000792: 24,2654           00152                           OCT      00152                                 #  COME HERE TO TAKE A RANGE-RATE READING
000793: 24,2655           04616                           TC       BANKCALL                              #  WHICH ISNT USED TO PREVENT TAKING A BAD
000794: 24,2656           53103                           CADR     RRRDOT                                #  READING AND TRYING TO INCORPORATE THE
000795: 24,2657           04616                           TC       BANKCALL                              #  BAD DATA
000796: 24,2660           17714                           CADR     RADSTALL                              #  WAIT FOR READ COMPLETE
000797: 24,2661           02217                           TC       P20LEMC                               #  COULD NOT READ RADAR - TRY TO REDESIGNATE
000798: 24,2662           02451                           TC       R22LEM                                #  READ SUCCESSFUL - CONTINUE AT R22
000799:
000800: 24,2663           00525        ALRM525            OCT      00525
000801: 24,2664           01405        V06N05             VN       00605
000802: 24,2665           01461        V06N49NB           VN       00649
000803: 24,2666           02734        1500DEC            DEC      1500       B-14
000804:
000805:                                                                                                  #  LUNSFCHK - CLOSED SUBROUTINE TO CHECK IF ON LUNAR SURFACE (P22FLAG)
000806:                                                                                                  #        RETURNS TO CALLER +1 IF P22FLAG SET
000807:                                                                                                  #                TO CALLER +2 IF P22FLAG NOT SET
000808:
000809: 24,2667                                           COUNT*   $$/P22
000810: 24,2667           40104        LUNSFCHK           CS       FLAGWRD8                              #  CHECK IF ON LUNAR SURFACE
000811: 24,2670           74744                           MASK     SURFFBIT                              #  IS SURFFLAG SET?
000812: 24,2671           10000                           CCS      A                                     #  BRANCH - P22FLAG SET
000813: 24,2672           24002                           INCR     Q                                     #  NOT SET
000814: 24,2673           00002                           TC       Q                                     #  RETURN
000815:


000817:                                                                                                  #  RR DESIGNATE ROUTINE (R21LEM)
000818:                                                                                                  #  PROGRAM DESCRIPTION
000819:
000820:                                                                                                  #        MOD NO - 2
000821:                                                                                                  #        BY P VOLANTE
000822:
000823:                                                                                                  #  FUNCTIONAL DESCRIPTION
000824:
000825:                                                                                                  #        TO POINT THE RENDEZVOUS RADAR AT THE CSM UNTIL AUTOMATIC ACQUISITION
000826:                                                                                                  #        OF THE CSM IS ACCOMPLISHED BY THE RADAR.  ROUTINE IS CALLED BY P20.
000827:
000828:                                                                                                  #  CALLING SEQUENCE -
000829:
000830:                                                                                                  #        TC      BANKCALL
000831:                                                                                                  #        CADR    R21LEM
000832:
000833:                                                                                                  #  SUBROUTINES CALLED -
000834:
000835:                                                                                                  #        FINDVAC         FLAGUP          ENDOFJOB        PRIOLARM
000836:                                                                                                  #        NOVAC           INTPRET         LPS20.1         PHASCHNG
000837:                                                                                                  #        WAITLIST        JOBSLEEP        JOBWAKE         FLAGDOWN
000838:                                                                                                  #        TASKOVER        BANKCALL        RADSTALL        RRDESSM
000839:
000840:                                                                                                  #  NORMAL EXIT MODES
000841:                                                                                                  #
000842:                                                                                                  #        WHEN LOCK-ON IS ACHIEVED, BRANCH WILL BE TO P20 WHERE R22 (DATA READ
000843:                                                                                                  #        WILL BE SELECTED OR A NEED FOR A MANEUVER (BRANCH TO P20LEMA)
000844:
000845:                                                                                                  #  ALARM OR ABORT EXIT MODES -
000846:
000847:                                                                                                  #        PRIORITY ALARM 503 WHEN LOCK-ON HASN:T BEEN ACHIEVED AFTER 30SECS -
000848:                                                                                                  #        THIS REQUIRES ASTRONAUT INTERFACE- SELECTION OF SEARCH OPTION OF
000849:                                                                                                  #        ACQUISITION
000850:
000851:                                                                                                  #  OUTPUT
000852:
000853:                                                                                                  #        SEE LPS20.1, RRDESSM
000854:
000855:                                                                                                  #  ERASABLE INITIALIZATION REQUIRED
000856:
000857:                                                                                                  #        RRTARGET, RADMODES ARE USED BY LPS20.1 AND RRDESSM
000858:
000859:                                                                                                  #  FLAGS SET + RESET
000860:
000861:                                                                                                  #        LOSCMFLG        LOKONSW
000862:
000863:                                                                                                  #  DEBRIS
000864:
000865:                                                                                                  #        SEE LPS20.1, RRDESSM
000866:
000867: 24,2674  E7,1456                                  EBANK=   LOSCOUNT
000868: 24,2674                                           COUNT*   $$/R21
000869: 24,2674           44736        R21LEM             CS       BIT14                                 #  REMOVE RR SELF TRACK ENABLE
000870: 24,2675           00006                           EXTEND
000871: 24,2676           03012                           WAND     CHAN12
000872: 24,2677           02667                           TC       LUNSFCHK
000873: 24,2700           02705                           TC       R21LEM5
000874: 24,2701           34755                           CAF      ZERO                                  #  COMMAND ANTENNA TO MODE CENTER
000875: 24,2702           55107                           TS       TANG                                  #  IF NOT ON SURFACE - MODE 1 - (T=0,S=0)
000876: 24,2703           55110                           TS       TANG       +1
000877: 24,2704           02715                           TC       R21LEM6
000878: 24,2705           34740        R21LEM5            CAF      BIT12
000879: 24,2706           70110                           MASK     RADMODES
000880: 24,2707           10000                           CCS      A
000881: 24,2710           02725                           TC       R21LEM10
000882: 24,2711           34735                           CAF      BIT15
000883: 24,2712           55107                           TS       TANG
000884: 24,2713           44736                           CS       HALF
000885: 24,2714           55110                           TS       TANG       +1
000886:


000888: 24,2715           05516        R21LEM6            TC       DOWNFLAG
000889: 24,2716           00012                           ADRES    LOKONSW
000890: 24,2717           04616                           TC       BANKCALL
000891: 24,2720           52475                           CADR     RRDESNB
000892: 24,2721           02722                           TC       +1
000893: 24,2722           04616                           TC       BANKCALL
000894: 24,2723           17714                           CADR     RADSTALL
000895: 24,2724           02760                           TC       R21-503                               #  BAD RETURN FROM DESIGNATE - ISSUE ALARM
000896: 24,2725           05504        R21LEM10           TC       UPFLAG
000897: 24,2726           00041                           ADRES    LOSCMFLG                              #  EVERY FOURTH PASS THRU DODES
000898: 24,2727           32310                           CAF      MAXTRIES                              #  ALLOW 60 PASSES (APPROX 45 SECONDS)
000899: 24,2730           55114                           TS       DESCOUNT                              #  TO DESIGNATE AND LOCK ON
000900: 24,2731           36245        R21LEM2            CAF      THREE
000901: 24,2732           55456                           TS       LOSCOUNT
000902: 24,2733           06037        R21LEM1            TC       INTPRET
000903: 24,2734           43234                           RTB      DAD
000904: 24,2735           21573                                    LOADTIME
000905: 24,2736           11120                                    HALFSEC                               #  EXTRAPOLATE TO PRESENT TIME + .5 SEC.
000906: 24,2737           34041                           STCALL   TDEC1                                 #  LOS DETERMINATION ROUTINE
000907: 24,2740           51255                                    LPS20.1
000908: 24,2741           77776                           EXIT
000909: 24,2742           05504        R21LEM3            TC       UPFLAG                                #  SET LOKONSW TO RADAR - ON DESIRED
000910: 24,2743           00012                           ADRES    LOKONSW
000911: 24,2744           05516                           TC       DOWNFLAG
000912: 24,2745           00126                           ADRES    NORRMON
000913: 24,2746           06037                           TC       INTPRET
000914: 24,2747           77624                           CALL                                           #  INPUT (RRTARGET UPDATED BY LPS20.1)
000915: 24,2750           52373                                    RRDESSM                               #  DESIGNATE ROUTINE
000916: 24,2751           77776                           EXIT
000917: 24,2752           02777                           TC       R21LEM4                               #  LOS NOT IN MODE 2 COVERAGE
000918:                                                                                                  #  ON LUNAR SURFACE
000919: 24,2753           02111                           TC       P20LEMA                               #  VEHICLE MANEUVER REQUIRED.
000920: 24,2754           04616                           TC       BANKCALL                              #  NO VEHICLE MANEUVER REQUIRED
000921: 24,2755           17714                           CADR     RADSTALL                              #  WAIT FOR DESIGNATE COMPLETE - LOCKON OR
000922: 24,2756           02760                           TC       +2                                    #  BAD END - LOCKON NOT ACHIEVED IN 60 TRIES
000923: 24,2757           02767                           TC       R21END                                #  EXIT ROUTINE RETURN TO P20 (LOCK-ON)
000924: 24,2760           32775        R21-503            CAF      ALRM503                               #  ISSUE ALARM 503
000925: 24,2761           04616                           TC       BANKCALL
000926: 24,2762           21562                           CADR     PRIOLARM
000927: 24,2763           06022                           TC       GOTOV56                               #  TERMINATE EXITS P20 VIA V56 CODING
000928: 24,2764           02772                           TC       R21SRCH                               #  PROC
000929: 24,2765           02211                           TC       P20LEMC3
000930: 24,2766           05155                           TC       ENDOFJOB
000931: 24,2767           05516        R21END             TC       DOWNFLAG
000932: 24,2770           00041                           ADRES    LOSCMFLG                              #  RESET LOSCMFLG
000933: 24,2771           03121                           TC       R21DISP                               #  PUT UP VERIFY MAIN LOBE LOCKON DISPLAY
000934: 24,2772           05353        R21SRCH            TC       PHASCHNG
000935: 24,2773           04022                           OCT      04022
000936: 24,2774           03206                           TC       R24LEM                                #  SEARCH ROUTINE
000937: 24,2775           00503        ALRM503            OCT      00503


000939: 24,2776           00527        ALRM527            OCT      527
000940:
000941: 24,2777           32310        R21LEM4            CAF      MAXTRIES                              #  SET UP COUNTER FOR
000942: 24,3000           55423                           TS       REPOSCNT                              #  60 PASSES (APPROX 600 SECS.)
000943: 24,3001           05504                           TC       UPFLAG
000944: 24,3002           00005                           ADRES    FSPASFLG                              #  SET FIRST PASS FLAG
000945: 24,3003           05516                           TC       DOWNFLAG                              #  RESET LOS BEING
000946: 24,3004           00041                           ADRES    LOSCMFLG                              #  COMPUTED FLAG
000947: 24,3005           06037                           TC       INTPRET
000948: 24,3006           77634        R21LEM12           RTB
000949: 24,3007           21573                                    LOADTIME
000950: 24,3010           77615                           DAD
000951: 24,3011           11116                                    TENSEC                                #  TIME T = T + 10 SECS.
000952: 24,3012           03425                           STORE    REPOSTM                               #  SAVE FOR LONGCALL AND UPPSV
000953: 24,3013           34041                           STCALL   TDEC1
000954: 24,3014           51255                                    LPS20.1                               #  COMPUTE LOS AT TIME T
000955: 24,3015           77624                           CALL
000956: 24,3016           52373                                    RRDESSM
000957: 24,3017           77776                           EXIT
000958: 24,3020           03033                           TC       R21LEM13                              #  LOS NOT IN MODE 2 COVERAGE
000959: 24,3021           05155                           TC       ENDOFJOB                              #  VEHICLE MANEUVER REQUIRED
000960: 24,3022           06027                           TC       KILLTASK
000961: 24,3023           52573                           CADR     BEGDES
000962: 24,3024           06037                           TC       INTPRET
000963: 24,3025           77614                           BOF
000964: 24,3026           00345                                    FSPASFLG                              #  FIRST PASS THRU REPOSITION
000965: 24,3027           51043                                    R21LEMB                               #  NO - GO TO CONTINUOUS DESIGNATE
000966: 24,3030           77614                           CLRGO
000967: 24,3031           00225                                    FSPASFLG                              #  YES - RESET FIRST PASS FLAG
000968: 24,3032           51037                                    R21LEM7    +1
000969: 24,3033           11423        R21LEM13           CCS      REPOSCNT                              #  HAVE WE TRIED 60 TIMES?
000970: 24,3034           03036                           TC       R21LEM7                               #  NO - ADD 10 SECS.  RECOMPUTE LOS
000971: 24,3035           03105                           TC       R21LEM11                              #  YES - PUT OUT ALARM 530
000972: 24,3036           55423        R21LEM7            TS       REPOSCNT
000973: 24,3037           06037                           TC       INTPRET
000974: 24,3040           52145                           DLOAD    GOTO
000975: 24,3041           03425                                    REPOSTM
000976: 24,3042           51010                                    R21LEM12   +2
000977: 24,3043           77745        R21LEMB            DLOAD
000978: 24,3044           03425                                    REPOSTM
000979: 24,3045           34041                           STCALL   TDEC1
000980: 24,3046           50316                                    UPPSV
000981: 24,3047           77776                           EXIT
000982: 24,3050           05504                           TC       UPFLAG                                #  SET RADMODES BIT 15 FOR
000983: 24,3051           00264                           ADRES    CDESFLAG                              #  CONTINUOUS DESIGNATION
000984: 24,3052           05516                           TC       DOWNFLAG
000985: 24,3053           00012                           ADRES    LOKONSW
000986: 24,3054           05504                           TC       UPFLAG
000987: 24,3055           00126                           ADRES    NORRMON


000989: 24,3056           04616                           TC       BANKCALL
000990: 24,3057           52475                           CADR     RRDESNB
000991: 24,3060           03061                           TC       +1
000992: 24,3061           06037                           TC       INTPRET
000993: 24,3062           44234                           RTB      BDSU
000994: 24,3063           21573                                    LOADTIME                              #  COMPUTE DELTA TIME
000995: 24,3064           03425                                    REPOSTM                               #  FOR LONGCALL
000996: 24,3065           03427                           STORE    DELTATM
000997: 24,3066           77776                           EXIT
000998: 24,3067           00006                           EXTEND
000999: 24,3070           31427                           DCA      DELTATM
001000: 24,3071           05277                           TC       LONGCALL
001001: 24,3072  E7,1456                                  EBANK=   LOSCOUNT
001002: 24,3072           03075 50067                     2CADR    R21LEM9
001003:
001004: 24,3074           05155                           TC       ENDOFJOB
001005: 24,3075           06027        R21LEM9            TC       KILLTASK
001006: 24,3076           52602                           CADR     STDESIG
001007: 24,3077           06011                           TC       CLRADMOD
001008: 24,3100           37714                           CAF      PRIO26
001009: 24,3101           05105                           TC       FINDVAC
001010: 24,3102  E7,1456                                  EBANK=   LOSCOUNT
001011: 24,3102           02725 50067                     2CADR    R21LEM10
001012:
001013: 24,3104           05261                           TC       TASKOVER
001014: 24,3105           33114        R21LEM11           CAF      ALRM530                               #  ALARM 530 - LOS NOT IN COVERAGE
001015: 24,3106           04616                           TC       BANKCALL                              #  AFTER TRYING TO DESIGNATE FOR
001016: 24,3107           21562                           CADR     PRIOLARM                              #  600 SECS.
001017: 24,3110           06022                           TC       GOTOV56
001018: 24,3111           06022                           TC       GOTOV56
001019: 24,3112           06022                           TC       GOTOV56
001020: 24,3113           05155                           TC       ENDOFJOB
001021: 24,3114           00530        ALRM530            OCT      00530
001022: 24,3115           00000 01750  TENSEC             2DEC     1000       B-28
001023:
001024: 24,3117           00000 00062  HALFSEC            2DEC     50         B-28
001025:
001026: 24,3121           05353        R21DISP            TC       PHASCHNG
001027: 24,3122           04022                           OCT      04022
001028: 24,3123           33134                           CAF      V06N72PV                              #  FLASH V 50 N 72 - PLEASE PERFORM RR
001029: 24,3124           04616                           TC       BANKCALL                              #  MAIN LOBE LOCKON VERIFICATION
001030: 24,3125           20710                           CADR     GOPERF2R
001031: 24,3126           06022                           TC       GOTOV56                               #  TERMINATE EXITS VIA V 56
001032: 24,3127           02232                           TC       P20LEMWT                              #  PROCEED CONTINUES TO R22
001033: 24,3130           03123                           TC       -5                                    #  ENTER ILLEGAL
001034: 24,3131           34745                           CAF      BIT7
001035: 24,3132           05464                           TC       LINUS                                 #  SET BITS TO MAKE THIS A PRIORITY DISPLAY
001036: 24,3133           05155                           TC       ENDOFJOB
001037:


001039: 24,3134           01510        V06N72PV           VN       00672
001040:


001042:                                                                                                  #  MANUAL ACQUISITION ROUTINE R23LEM
001043:                                                                                                  #  PROGRAM DESCRIPTION
001044:
001045:                                                                                                  #        MOD NO - 2
001046:                                                                                                  #        BY P VOLANTE
001047:
001048:                                                                                                  #  FUNCTIONAL DESCRIPTION
001049:
001050:                                                                                                  #        TO ACQUIRE THE CSM BY MANUAL OPERATION OF THE RENDEZVOUS RADAR
001051:
001052:                                                                                                  #  CALLING SEQUENCE -
001053:
001054:                                                                                                  #        TC      R23LEM
001055:
001056:                                                                                                  #  SUBROUTINES CALLED
001057:
001058:                                                                                                  #        BANKCALL        R61LEM
001059:                                                                                                  #        SETMINDB        GOPERF1
001060:
001061:                                                                                                  #  NORMAL EXIT MODES -
001062:
001063:                                                                                                  #        IN RESPONSE TO THE GOPERF1      ,SELECTION OF ENTER WILL RECYCLE R23
001064:                                                                                                  #                                        ,SELECTION OF PROC WILL CONTINUE R23
001065:                                                                                                  #                                        ,SELECTION OF TERM WILL TERMINATE R23 +P20
001066:
001067:                                                                                                  #  ALARM OR ABORT EXIT MODES -
001068:
001069:                                                                                                  #        SEE NORMAL EXIT MODES ABOVE
001070:
001071:                                                                                                  #  OUTPUT
001072:
001073:                                                                                                  #        N.A.
001074:
001075:                                                                                                  #  ERASABLE INITIALIZATION REQUIRED -
001076:
001077:                                                                                                  #        ACMODFLG MUST BE SET TO 1 (MANUAL MODE)
001078:
001079: 24,3135     1143                                  EBANK=   GENRET
001080: 24,3135                                           COUNT*   $$/R23
001081: 24,3135           05504        R23LEM             TC       UPFLAG                                #  SET NO ANGLE MONITOR FLAG
001082: 24,3136           00126                           ADRES    NORRMON
001083: 24,3137           00004                           INHINT
001084: 24,3140           04674                           TC       IBNKCALL                              #  SELECT MINIMUM DEADBAND
001085: 24,3141           40140                           CADR     SETMINDB
001086: 24,3142           00003                           RELINT
001087: 24,3143           34736        R23LEM1            CAF      BIT14                                 #  ENABLE TRACKER
001088: 24,3144           00006                           EXTEND
001089: 24,3145           05012                           WOR      CHAN12
001090: 24,3146           33205                           CAF      OCT205
001091: 24,3147           04616                           TC       BANKCALL
001092: 24,3150           20623                           CADR     GOPERF1
001093: 24,3151           03176                           TC       R23LEM2                               #  TERMINATE
001094: 24,3152           03154                           TC       R23LEM11                              #  PROCEDE
001095: 24,3153           03201                           TC       R23LEM3                               #  ENTER - DO ANOTHER MANUVER
001096: 24,3154           00004        R23LEM11           INHINT
001097: 24,3155           04523                           TC       RRLIMCHK                              #  YES - CHECK IF ANTENNA IS WITHIN LIMITS
001098: 24,3156           00035                           ADRES    CDUT
001099: 24,3157           03166                           TC       OUTOFLIM                              #  NOT WITHIN LIMITS
001100: 24,3160           04674                           TC       IBNKCALL                              #  RESTORE DEADBAND TO
001101: 24,3161           40123                           CADR     RESTORDB                              #  ASTRONAUT SELECTED VALUE
001102: 24,3162           00003                           RELINT
001103: 24,3163           05516                           TC       DOWNFLAG                              #  CLEAR NO ANGLE MONITOR FLAG
001104: 24,3164           00126                           ADRES    NORRMON
001105: 24,3165           02163                           TC       P20LEMB1                              #  RADAR IS LOCKED ON CONTINUE IN P20
001106: 24,3166           00003        OUTOFLIM           RELINT


001108: 24,3167           33204                           CAF      OCT501PV
001109: 24,3170           04616                           TC       BANKCALL                              #  ISSUE ALARM - RR ANTENNA NOT WITHIN
001110: 24,3171           21562                           CADR     PRIOLARM                              #  LIMITS
001111: 24,3172           03176                           TC       R23LEM2                               #  TERMINATE - EXIT R23 TO R00 (GO TO POOH)
001112: 24,3173           03167                           TC       OUTOFLIM   +1                         #  PROCEED ILLEGAL
001113: 24,3174           03201                           TC       R23LEM3                               #  RECYCLE - DO ANOTHER MANUVER
001114: 24,3175           05155                           TC       ENDOFJOB
001115: 24,3176           05516        R23LEM2            TC       DOWNFLAG                              #  CLEAR NO ANGLE MONITOR FLAG
001116: 24,3177           00126                           ADRES    NORRMON
001117: 24,3200           06022                           TC       GOTOV56                               #  AND EXIT VIA V56
001118: 24,3201           04616        R23LEM3            TC       BANKCALL
001119: 24,3202           46116                           CADR     R61LEM
001120: 24,3203           03143                           TC       R23LEM1
001121:
001122: 24,3204           00501        OCT501PV           OCT      501
001123: 24,3205           00205        OCT205             OCT      205
001124:


001126:                                                                                                  #  SEARCH ROUTINE R24LEM
001127:                                                                                                  #  PROGRAM DESCRIPTION
001128:
001129:                                                                                                  #        MOD NO - 2
001130:                                                                                                  #        BY P. VOLANTE
001131:
001132:                                                                                                  #  FUNCTIONAL DESCRIPTION
001133:
001134:                                                                                                  #        TO ACQUIRE THE CSM BY A SEARCH PATTERN WHEN THE RENDEZVOUS RADAR HAS
001135:                                                                                                  #        FAILED TO ACQUIRE THE CSM IN THE AUTOMATIC TRACKING MODE AND TO ALLOW
001136:                                                                                                  #        THE ASTRONAUT TO CONFIRM THAT REACQUISITION HAS NOT BEEN BY SIDELOBE.
001137:
001138:                                                                                                  #  CALLING SEQUENCE
001139:
001140:                                                                                                  #        CAF     PRIONN
001141:                                                                                                  #        TC      FINDVAC
001142:                                                                                                  #        EBANK=  DATAGOOD
001143:                                                                                                  #        2CADR   R24LEM
001144:
001145:                                                                                                  #  SUBROUTINES CALLED
001146:
001147:                                                                                                  #        FLAGUP          FLAGDOWN        BANKCALL
001148:                                                                                                  #        R61LEM          GOFLASHR        FINDVAC
001149:                                                                                                  #        ENDOFJOB        NOVAC           LSR24.1
001150:
001151:                                                                                                  #  NORMAL EXIT MODES -
001152:
001153:                                                                                                  #        ASTRONAUT RESPONSE TO DISPLAY OF OMEGA AND DATAGOOD.  HE CAN EITHER
001154:                                                                                                  #        REJECT BY TERMINATING (SEARCH OPTION AND RESELECTING P20) OR ACCEPT BY
001155:                                                                                                  #        PROCEEDING (EXIT ROUTINE AND RETURN TO AUTO MODE IN P20)
001156:
001157:                                                                                                  #  ALARM OR ABORT EXIT MODES -
001158:
001159:                                                                                                  #        SEE NORMAL EXIT MODES ABOVE
001160:
001161:                                                                                                  #  OUTPUT -
001162:
001163:                                                                                                  #        SEE OUTPUT FROM LSR24.1 + R61LEM
001164:
001165:                                                                                                  #  ERASABLE INITIALIZATION REQUIRED
001166:
001167:                                                                                                  #        SEE INPUT FOR LSR24.1
001168:
001169:                                                                                                  #  FLAGS SET + RESET
001170:
001171:                                                                                                  #        SRCHOPT, ACMODFLG
001172:
001173: 24,3206  E7,1733                                  EBANK=   DATAGOOD
001174: 24,3206                                           COUNT*   $$/R24
001175: 24,3206           05504        R24LEM             TC       UPFLAG
001176: 24,3207           00037                           ADRES    SRCHOPTN                              #  SET SRCHOPT FLAG
001177: 24,3210           05516                           TC       DOWNFLAG                              #  RESET LOS BEING COMPUTED FLAG TO MAKE
001178: 24,3211           00041                           ADRES    LOSCMFLG                              #  SURE DODES DOESN'T GO TO R21
001179: 24,3212           34755        R24LEM1            CAF      ZERO
001180: 24,3213           55733                           TS       DATAGOOD                              #  ZERO OUT DATA INDICATOR
001181: 24,3214           55734                           TS       OMEGAD                                #  ZERO OMEGA DISPLAY REGS
001182: 24,3215           55735                           TS       OMEGAD     +1                         #  ZERO OMEGA DISPLAY REGS
001183: 24,3216           05353        R24LEM2            TC       PHASCHNG
001184: 24,3217           04022                           OCT      04022
001185: 24,3220           33254                           CAF      V16N80
001186: 24,3221           04616                           TC       BANKCALL
001187: 24,3222           20504                           CADR     PRIODSPR
001188: 24,3223           06022                           TC       GOTOV56
001189: 24,3224           03230                           TC       R24END                                #  PROCEED EXIT R24 TO P20LEM1
001190:
001191: 24,3225           03234                           TC       R24LEM3                               #  RECYCLE - CALL R61 TO MANEUVER S/C


001193: 24,3226           04616                           TC       BANKCALL
001194: 24,3227           55442                           CADR     LRS24.1
001195: 24,3230           06027        R24END             TC       KILLTASK
001196: 24,3231           55643                           CADR     CALLDGCH
001197: 24,3232           06011                           TC       CLRADMOD                              #  CLEAR BITS 10 & 15 OF RADMODES.
001198: 24,3233           12063                           TCF      P20LEM1                               #  AND GO TO 400 MI. RANGE CHECK IN P20.
001199:
001200:    6011                                           BLOCK    3
001201:    6000                                           SETLOC   FFTAG6
001202:    6000                                           BANK
001203:    6011                                           COUNT*   $$/R24
001204:
001205:    6011           46021        CLRADMOD           CS       BIT10+15
001206:    6012           00004                           INHINT
001207:    6013           70110                           MASK     RADMODES
001208:    6014           54110                           TS       RADMODES
001209:    6015           44752                           CS       BIT2                                  #  DISABLE RR ERROR COUNTERS
001210:    6016           00006                           EXTEND
001211:    6017           03012                           WAND     CHAN12                                #  USER WILL RELINT
001212:
001213:    6020           00002                           TC       Q
001214:
001215:    6021           41000        BIT10+15           OCT      41000
001216: 24,3234                                           BANK     24
001217: 24,2000                                           SETLOC   P20S
001218: 24,2000                                           BANK
001219: 24,3234                                           COUNT*   $$/R24
001220:
001221: 24,3234           05353        R24LEM3            TC       PHASCHNG
001222: 24,3235           04022                           OCT      04022
001223: 24,3236           06027                           TC       KILLTASK
001224: 24,3237           55643                           CADR     CALLDGCH                              #  KILL WAITLIST FOR NEXT POINT IN PATTERN
001225: 24,3240           06011                           TC       CLRADMOD                              #  CLEAR BITS 10 + 15 OF RADMODES TO KILL
001226: 24,3241           00003                           RELINT                                         #  HALF SECOND DESIGNATE LOOP
001227: 24,3242           34774                           CAF      .5SEC
001228: 24,3243           04616                           TC       BANKCALL                              #  WAIT FOR DESIGNATE LOOP TO DIE
001229: 24,3244           01735                           CADR     DELAYJOB
001230: 24,3245           02667                           TC       LUNSFCHK                              #  CHECK IF ON LUNAR SURFACE
001231: 24,3246           03251                           TC       R24LEM4                               #  YES - DONT DO ATTITUDE MANEUVER
001232: 24,3247           04616                           TC       BANKCALL                              #  CALL R61 TO DO PREFERRED TRACKING
001233: 24,3250           46116                           CADR     R61LEM                                #  ATTITUDE MANEUVER
001234: 24,3251           34755        R24LEM4            CAF      ZERO                                  #  ZERO OUT RADCADR (WHICH WAS SET BY
001235: 24,3252           55306                           TS       RADCADR                               #  ENDRADAR WHEN DESIGNATE STOPPED) SO THAT
001236:                                                                                                  #  RRDESSM WILL RETURN TO CALLER
001237: 24,3253           03216                           TC       R24LEM2                               #  AND GO BACK TO PUT UP V16 N80 DISPLAY
001238:
001239: 24,3254           04120        V16N80             VN       01680
001240:


001242:                                                                                                  #  PREFERRED TRACKING ATTITUDE ROUTINE R61LEM
001243:                                                                                                  #  PROGRAM DESCRIPTION
001244:
001245:                                                                                                  #        MOD NO: 3               DATE: 4-11-67
001246:                                                                                                  #        MOD BY: P VOLANTE   SDC
001247:
001248:                                                                                                  #  FUNCTIONAL DESCRIPTION -
001249:
001250:                                                                                                  #        TO COMPUTE THE PREFERRED TRACKING ATTITUDE OF THE LM TO ENABLE RR
001251:                                                                                                  #        TRACKING OF THE CSM AND TO PERFORM THE MANEUVER TO THE PREFERRED
001252:                                                                                                  #        ATTITUDE.
001253:
001254:                                                                                                  #  CALLING SEQUENCE -
001255:
001256:                                                                                                  #        TC      BANKCALL
001257:                                                                                                  #        CADR    R61LEM
001258:
001259:                                                                                                  #  SUBROUTINES CALLED
001260:
001261:                                                                                                  #        LPS20.1         VECPOINT
001262:                                                                                                  #        KALCMAN3
001263:
001264:                                                                                                  #  NORMAL EXIT MODES -
001265:
001266:                                                                                                  #        NORMAL RETURN IS TO CALLER + 1
001267:
001268:                                                                                                  #  ALARM OR ABORT EXIT MODES -
001269:
001270:                                                                                                  #        TERMINATE P20 + R61 BY BRANCHING TO P20END IF BOTH TRACKFLAG +
001271:                                                                                                  #        RENDEZVOUS FLAG ARE NOT SET.
001272:
001273:                                                                                                  #  OUTPUT -
001274:
001275:                                                                                                  #        SEE OUTPUT FOR LPS20.1 + ATTITUDE MANEUVER ROUTINE (R60)
001276:
001277:                                                                                                  #  ERASABLE INITIALIZATION REQUIRED
001278:
001279:                                                                                                  #        GENRET USED TO SAVE Q FOR RETURN
001280:
001281:                                                                                                  #  FLAGS SET + RESET
001282:
001283:                                                                                                  #        3AXISFLG
001284:
001285:                                                                                                  #  DEBRIS
001286:
001287:                                                                                                  #        SEE SUBROUTINES
001288:
001289: 23,2000                                           SETLOC   R61
001290: 23,2000                                           BANK
001291: 23,2116  E7,1456                                  EBANK=   LOSCOUNT
001292: 23,2116                                           COUNT*   $$/R61
001293: 23,2116           04645        R61LEM             TC       MAKECADR
001294: 23,2117           55143                           TS       GENRET
001295: 23,2120           05504                           TC       UPFLAG                                #  SET R61 FLAG
001296: 23,2121           00024                           ADRES    R61FLAG
001297: 23,2122           02127                           TC       R61C+L01
001298: 23,2123           04645        R65LEM             TC       MAKECADR
001299: 23,2124           55143                           TS       GENRET
001300: 23,2125           05516                           TC       DOWNFLAG                              #  RESET R61 FLAG
001301: 23,2126           00024                           ADRES    R61FLAG
001302: 23,2127           34747        R61C+L01           CAF      TRACKBIT                              #  TRACKFLAG
001303: 23,2130           70075                           MASK     STATE      +1
001304: 23,2131           00006                           EXTEND
001305: 23,2132           12271                           BZF      R65WAIT                               #  NOT SET
001306: 23,2133           06037        R61C+L03           TC       INTPRET
001307: 23,2134           77775                           VLOAD


001309: 23,2135           06514                                    HIUNITZ
001310: 23,2136           03765                           STORE    SCAXIS                                #  TRACK AXIS UNIT VECTOR
001311: 23,2137           43234        R61LEM1            RTB      DAD
001312: 23,2140           21573                                    LOADTIME                              #  EXTRAPOLATE FORWARD TO CENTER
001313: 23,2141           15712                                    3SECONDS                              #  SIX SECOND PERIOD.
001314: 23,2142           34041                           STCALL   TDEC1
001315: 23,2143           51255                                    LPS20.1                               #  LOS DETERMINATION + VEH ATTITUDE
001316: 23,2144           77775                           VLOAD
001317: 23,2145           01102                                    RRTARGET
001318: 23,2146           03773                           STORE    POINTVSM
001319: 23,2147           45034                           RTB      CALL                                  #  GET DESIRED CDU'S FOR VECPNT1
001320: 23,2150           46277                                    READCDUD
001321: 23,2151           56032                                    VECPNT1                               #  COMPUTES FINAL ANGLES FROM PRESENT CDUDS
001322: 23,2152           00322                           STORE    CPHI                                  #  STORE FINAL ANGLES - CPHI, CTHETA, CPSI
001323: 23,2153           77776                           EXIT
001324: 23,2154           05353                           TC       PHASCHNG
001325: 23,2155           04022                           OCT      04022
001326: 23,2156           34747                           CAF      TRACKBIT                              #  IS TRACK FLAG SET
001327: 23,2157           70075                           MASK     FLAGWRD1
001328: 23,2160           00006                           EXTEND
001329: 23,2161           12271                           BZF      R65WAIT
001330: 23,2162           04616                           TC       BANKCALL
001331: 23,2163           54255                           CADR     G+N,AUTO                              #  CHECK FOR AUTO MODE
001332: 23,2164           10000                           CCS      A
001333: 23,2165           02257                           TC       R61C+L04                              #  NOT IN AUTO
001334: 23,2166           06037                           TC       INTPRET
001335: 23,2167           45175                           VLOAD    CALL
001336: 23,2170           01102                                    RRTARGET
001337: 23,2171           47646                                    CDU*SMNB
001338: 23,2172           45345                           DLOAD    DSU                                   #  GET PHI - ARCCOS OF Z-COMPONENT OF LOS
001339: 23,2173           00162                                    MPAC       +5
001340: 23,2174           06275                                    COS15DEG
001341: 23,2175           77440        R61LEM2            BMN      EXIT                                  #  BRANCH - PHI > 15 DEGREES
001342: 23,2176           46213                                    R61C+L05                              #  PHI GRE 10DEG
001343: 23,2177  E6,1635                                  EBANK=   CDUXD
001344: 23,2177           35015                           CAF      EBANK6
001345: 23,2200           54003                           TS       EBANK
001346: 23,2201           00004                           INHINT
001347: 23,2202           00006                           EXTEND
001348: 23,2203           30322                           DCA      CPHI
001349: 23,2204           53636                           DXCH     CDUXD
001350: 23,2205           30323                           CA       CPSI
001351: 23,2206           55637                           TS       CDUZD
001352: 23,2207           00003                           RELINT
001353: 23,2210  E7,1456                                  EBANK=   LOSCOUNT
001354: 23,2210           35016                           CAF      EBANK7
001355: 23,2211           54003                           TS       EBANK
001356: 23,2212           02236                           TC       R61C+L06
001357: 23,2213           77776        R61C+L05           EXIT
001358: 23,2214           00004                           INHINT


001360: 23,2215           04674                           TC       IBNKCALL
001361: 23,2216           40153                           FCADR    ZATTEROR
001362: 23,2217           04674                           TC       IBNKCALL
001363: 23,2220           40140                           FCADR    SETMINDB                              #  REDUCE ATTITUDE ERROR
001364: 23,2221           05516                           TC       DOWNFLAG
001365: 23,2222           00124                           ADRES    3AXISFLG
001366: 23,2223           05504                           TC       UPFLAG
001367: 23,2224           00077                           ADRES    PDSPFLAG                              #  SET PRIORITY DISPLAY FLAG
001368: 23,2225           04616                           TC       BANKCALL
001369: 23,2226           54123                           CADR     R60LEM
001370: 23,2227           00004                           INHINT
001371: 23,2230           04674                           TC       IBNKCALL
001372: 23,2231           40123                           FCADR    RESTORDB
001373: 23,2232           05353                           TC       PHASCHNG
001374: 23,2233           04022                           OCT      04022
001375: 23,2234           05516                           TC       DOWNFLAG
001376: 23,2235           00077                           ADRES    PDSPFLAG                              #  RESET PRIORITY DISPLAY FLAG
001377: 23,2236           30075        R61C+L06           CA       FLAGWRD1
001378: 23,2237           74742                           MASK     R61FLBIT
001379: 23,2240           10000                           CCS      A
001380: 23,2241           02262                           TC       R61C+L4
001381: 23,2242           11745                           CCS      R65CNTR
001382: 23,2243           02245                           TC       +2
001383: 23,2244           02262                           TC       R61C+L4                               #  R65CNTR = 0 - EXIT ROUTINE
001384: 23,2245           55745                           TS       R65CNTR
001385: 23,2246           32276                           CAF      06SEC
001386: 23,2247           05173                           TC       TWIDDLE
001387: 23,2250           02252                           ADRES    R61C+L2
001388: 23,2251           05155                           TC       ENDOFJOB
001389: 23,2252           37714        R61C+L2            CAF      PRIO26
001390: 23,2253           05105                           TC       FINDVAC
001391: 23,2254  E7,1456                                  EBANK=   LOSCOUNT
001392: 23,2254           02127 46067                     2CADR    R61C+L01
001393:
001394: 23,2256           05261                           TC       TASKOVER
001395: 23,2257           04616        R61C+L04           TC       BANKCALL                              #  TO CONVERT ANGLES TO FDAI
001396: 23,2260           54266                           CADR     BALLANGS
001397: 23,2261           02236                           TC       R61C+L06
001398: 23,2262           31143        R61C+L4            CAE      GENRET
001399: 23,2263           14640                           TCF      BANKJUMP                              #  EXIT R61
001400: 23,2264           32273        R61C+L1            CAF      BIT7+9PV                              #  IS RENDEZVOUS OR P25FLAG SET
001401: 23,2265           70074                           MASK     STATE
001402: 23,2266           00006                           EXTEND
001403: 23,2267           15155                           BZF      ENDOFJOB                              #  NO - EXIT ROUTINE AND PROGRAM.
001404: 23,2270           02236                           TC       R61C+L06                              #  YES EXIT ROUTINE
001405: 23,2271           04635        R65WAIT            TC       POSTJUMP
001406: 23,2272           50232                           CADR     P20LEMWT
001407:
001408: 23,2273           00500        BIT7+9PV           OCT      00500


001410: 23,2274           17350 34602  COS15DEG           2DEC     0.96593    B-1
001411:
001412: 23,2276           01130        06SEC              DEC      600        B-14
001413: 23,2277                        PHI                EQUALS   20D
001414: 23,2277           00004        READCDUD           INHINT                                         #  READS DESIRED CDU'S AND STORES IN
001415: 23,2300           35015                           CAF      EBANK6                                #  MPAC TP EXITS WITH MODE SET TO TP
001416: 23,2301           56003                           XCH      EBANK
001417: 23,2302           54070                           TS       RUPTREG1
001418: 23,2303  E6,1635                                  EBANK=   CDUXD
001419: 23,2303           31635                           CA       CDUXD
001420: 23,2304           54154                           TS       MPAC
001421: 23,2305           00006                           EXTEND
001422: 23,2306           31637                           DCA      CDUYD
001423: 23,2307           52156                           DXCH     MPAC       +1
001424: 23,2310           30070                           CA       RUPTREG1
001425: 23,2311           54003                           TS       EBANK
001426: 23,2312           00003                           RELINT
001427: 23,2313           16477                           TCF      TMODE
001428:    4512                                           BLOCK    02
001429:    4000                                           SETLOC   RADARFF
001430:    4000                                           BANK
001431:
001432:    4512  E7,1456                                  EBANK=   LOSCOUNT
001433:    4512                                           COUNT*   $$/RRSUB
001434:


001436:                                                                                                  #  THE FOLLOWING SUBROUTINE RETURNS TO CALLER +2 IF THE ABSOLUTE VALUE OF VALUE OF C(A) IS GREATER THAN THE
001437:                                                                                                  #  NEGATIVE OF THE NUMBER AT CALLER +1.  OTHERWISE IT RETURNS TO CALLER +3.  MAY BE CALLED IN RUPT OR UNDER EXEC.
001438:
001439:    4512           00006        MAGSUB             EXTEND
001440:    4513           64515                           BZMF     +2
001441:    4514           14516                           TCF      +2
001442:    4515           40000                           COM
001443:
001444:    4516           50002                           INDEX    Q
001445:    4517           60000                           AD       0
001446:    4520           00006                           EXTEND
001447:    4521           66741                           BZMF     Q+2                                   #  ABS(A) <= CONST GO TO L+3
001448:    4522           16737                           TCF      Q+1                                   #  ABS(A) > CONST GO TO L+2
001449:


001451:                                                                                                  #  PROGRAM NAME_ RRLIMCHK                                                        ARE IN THE LIMITS OF THE CURRENT MODE.
001452:
001453:                                                                                                  #  FUNCTIONAL DESCRIPTION_
001454:
001455:                                                                                                  #        RRLIMCHK CHECKS RR DESIRED GIMBAL ANGLES TO SEE IF THEY ARE WITHIN
001456:                                                                                                  #        THE LIMITS OF THE CURRENT MODE.  INITIALLY THE DESIRED TRUNNION AND
001457:                                                                                                  #        SHAFT ANGLES ARE STORED IN ITEMP1 AND ITEMP2.  THE CURRENT RR
001458:                                                                                                  #        ANTENNAE MODE (RADMODES BIT 12) IS CHECKED WHICH IS = 0 FOR
001459:                                                                                                  #        MODE 1 AND =1 FOR MODE 2.
001460:
001461:                                                                                                  #        MODE 1 - THE TRUNNION ANGLE IS CHECKED AT MAGSUB TO SEE IF IT IS
001462:                                                                                                  #        BETWEEN -55 AND +55 DEGREES.  IF NOT, RETURN TO L +2.  IF WITHIN LIMITS,
001463:                                                                                                  #        THE SHAFT ANGLE IS CHECKED TO SEE IF IT IS BETWEEN -70 AND +59 DEGREES.
001464:                                                                                                  #        IF NOT, RETURN TO L +2.  IF IN LIMITS, RETURN TO L +3.
001465:
001466:                                                                                                  #        MODE 2 - THE SHAFT ANGLE IS CHECKED AT MAGSUB TO SEE IF IT IS
001467:                                                                                                  #        BETWEEN -139 AND -25 DEGREES.  IF NOT, RETURN TO L +2.  IF WITHIN
001468:                                                                                                  #        LIMITS, THE TRUNNION ANGLE IS CHECKED TO SEE IF IT IS BETWEEN +125
001469:                                                                                                  #        AND -125 (+235) DEGREES.  IF NOT, RETURN TO L +2.  IF IN LIMITS, RETURN
001470:                                                                                                  #        TO L +3.
001471:
001472:                                                                                                  #  CALLING SEQUENCE:
001473:
001474:                                                                                                  #        L  TC  RRLIMCHK (WITH INTERRUPT INHIBITED)
001475:                                                                                                  #        L  +1  ADRES  T,S  (DESIRED TRUNNION ANGLE ADDRESS)
001476:
001477:                                                                                                  #  ERASABLE INITIALIZATION REQUIRED:
001478:
001479:                                                                                                  #        RADMODES, MODEA, MODEB (OR DESIRED TRUNNION AND SHAFT
001480:                                                                                                  #        ANGLES ELSEWHERE IN CONSECUTIVE LOCATIONS - UNSWITCHED ERASABLE OR
001481:                                                                                                  #        CURRENT EBANK).
001482:
001483:                                                                                                  #  SUBROUTINES CALLED_   MAGSUB
001484:
001485:                                                                                                  #  JOBS OR TASKS INITIATED_  NONE
001486:
001487:                                                                                                  #  ALARMS_  NONE
001488:
001489:                                                                                                  #  EXIT_         L + 2   (EITHER OR BOTH ANGLES NOT WITHIN LIMITS OF CURRENT MODE)
001490:                                                                                                  #                L + 3   (BOTH ANGLES WITHIN LIMITS OF CURRENT MODE)
001491:
001492:    4523           00006        RRLIMCHK           EXTEND
001493:    4524           50002                           INDEX    Q
001494:    4525           50000                           INDEX    0
001495:    4526           30001                           DCA      0
001496:    4527           24002                           INCR     Q
001497:    4530           52062                           DXCH     ITEMP1
001498:    4531           22002                           LXCH     Q                                     #  L(CALLER +2) TO L.
001499:
001500:    4532           34740                           CAF      ANTENBIT                              #  SEE WHICH MODE RR IS IN.
001501:    4533           70110                           MASK     RADMODES
001502:    4534           10000                           CCS      A
001503:    4535           14550                           TCF      MODE2CHK
001504:
001505:    4536           30061                           CA       ITEMP1                                #  MODE 1 IS DEFINED AS


001507:    4537           04512                           TC       MAGSUB                                #        1. ABS(T) L 55 DEGS.
001508:    4540           66161                           DEC      -.30555                               #        2. ABS(S + 5.5 DEGS) L 64.5 DEGS
001509:    4541           00001                           TC       L                                     #                (SHAFT LIMITS AT +59, -70 DEGS)
001510:
001511:    4542           34562                           CAF      5.5DEGS
001512:    4543           60062                           AD       ITEMP2                                #  S
001513:    4544           04512                           TC       MAGSUB
001514:    4545           64420                           DEC      -.35833                               #  64.5 DEGS
001515:    4546           00001                           TC       L
001516:    4547           04560                           TC       RRLIMOK                               #  IN LIMITS.
001517:
001518:    4550           34563        MODE2CHK           CAF      82DEGS                                #  MODE 2 IS DEFINED AS
001519:    4551           60062                           AD       ITEMP2                                #        1. ABS(T) G 125 DEGS.
001520:    4552           04512                           TC       MAGSUB                                #        2. ABS(S + 82 DEGS) L 57 DEGS
001521:    4553           65673                           DEC      -.31667                               #                (SHAFT LIMITS AT -25, -139 DEGS)
001522:    4554           00001                           TC       L
001523:
001524:    4555           30061                           CA       ITEMP1
001525:    4556           04512                           TC       MAGSUB
001526:    4557           51615                           DEC      -.69444                               #  125 DEGS
001527:
001528:    4560           50001        RRLIMOK            INDEX    L
001529:    4561           00001                           TC       L                                     #  ( = TC 1 )
001530:
001531:    4562           00765        5.5DEGS            DEC      .03056
001532:    4563           16450        82DEGS             DEC      .45556
001533:


001535:                                                                                                  #  PROGRAM NAME_ SETTRKF                                                         . IF EITHER:
001536:
001537:                                                                                                  #  FUNCTIONAL DESCRIPTION_
001538:                                                                                                  #        SETTRKF UPDATES THE TRACKER FAIL LAMP ON THE DSKY.                      HER THE ALT OR VEL INFORMATION.
001539:                                                                                                  #        INITIALLY THE LAMP TEST FLAG (IMODES33 BIT 1) IS CHECKED.
001540:                                                                                                  #        IF A LAMP TEST IS IN PROGRESS, THE PROGRAM EXITS TO L +1.
001541:                                                                                                  #        IF NO LAMP TEST THE FOLLOWING IS CHECKED SEQUENTIALLY_
001542:                                                                                                  #                1) RR CDU:S BEING ZEROED, RR CDU OK, AND RR NOT IN
001543:                                                                                                  #                   AUTO MODE (RADMODES BITS 13, 7, 2).
001544:                                                                                                  #                2) LR VEL DATA FAIL AND NO LR POS DATA (RADMODES BITS
001545:                                                                                                  #                   8,5)
001546:                                                                                                  #                3) NO RR DATA (RADMODES BIT 4)
001547:                                                                                                  #        THE ABSENCE OF ALL THREE SIMULTANEOUSLY IN (1), THE PRESENCE OF BOTH
001548:                                                                                                  #        IN (2), AND THE PRESENCE OF (3) RESULTS IN EITHER THE TRACKER FAIL
001549:                                                                                                  #        LAMP (DSPTAB +11D BIT 8) BEING TURNED ON OR LEFT ON. OTHERWISE,
001550:                                                                                                  #        THE TRACKER FAIL LAMP IS TURNED OFF OR IS LEFT OFF. THEREFORE, THE
001551:                                                                                                  #        TRACKER FAIL LAMP IS TURNED ON IF_
001552:                                                                                                  #                A) RR CDU FAILED WITH RR IN AUTO MODE AND RR CDU:S NOT BEING ZEROED.
001553:                                                                                                  #                B) N SAMPLES OF LR DATA COULD NOT BE TAKEN IN 2N TRIES WITH
001554:                                                                                                  #                   EITHER THE ALT OR VEL INFORMATION
001555:                                                                                                  #                C) N SAMPLES OF RR DATA COULD NOT BE OBTAINED FROM 2N TRIES
001556:                                                                                                  #                   WITH EITHER THE AL
001557:
001558:                                                                                                  #  CALLING SEQUENCE:
001559:
001560:                                                                                                  #        L       TC      SETTRKF
001561:
001562:                                                                                                  #  ERASABLE INITIALIZATION REQUIRED:  IMODES33, RADMODES, DSPTAB +11D
001563:
001564:                                                                                                  #  SUBROUTINES CALLED_  NONE
001565:
001566:                                                                                                  #  JOBS OR TASKS INITIATED_  NONE
001567:
001568:                                                                                                  #  ALARMS_  TRACKER FAIL LAMP
001569:
001570:                                                                                                  #  EXIT_  L +1 (ALWAYS)                                                          ED.
001571:
001572:    4564           34753        SETTRKF            CAF      BIT1                                  #  NO ACTION IF DURING LAMP TEST.
001573:    4565           71303                           MASK     IMODES33
001574:    4566           10000                           CCS      A
001575:    4567           00002                           TC       Q
001576:
001577:    4570           34744        RRTRKF             CA       BIT8
001578:    4571           54001                           TS       L
001579:
001580:    4572           34615                           CAF      13,7,2                                #  SEE IF CDU FAILED.
001581:    4573           70110                           MASK     RADMODES
001582:    4574           00006                           EXTEND
001583:    4575           14601                           BZF      TRKFLON                               #  CONDITION 3 ABOVE.
001584:
001585:    4576           34750        RRCHECK            CAF      RRDATABT                              #  SEE IF RR DATA FAILED.
001586:    4577           70110                           MASK     RADMODES


001588:    4600           10000                           CCS      A
001589:    4601           30001        TRKFLON            CA       L
001590:    4602           61036                           AD       DSPTAB     +11D                       #  HALF ADD DESIRED AND PRESENT STATES.
001591:    4603           70001                           MASK     L
001592:    4604           00006                           EXTEND
001593:    4605           16742                           BZF      TCQ                                   #  NO CHANGE.
001594:
001595:    4606           31036        FLIP               CA       DSPTAB     +11D                       #  CANT USE LXCH DSPTAB +11D (RESTART PROB)
001596:    4607           00006                           EXTEND
001597:    4610           06001                           RXOR     LCHAN
001598:    4611           74733                           MASK     POSMAX
001599:    4612           64735                           AD       BIT15
001600:    4613           55036                           TS       DSPTAB     +11D
001601:    4614           00002                           TC       Q
001602:
001603:    4615           10102        13,7,2             OCT      10102
001604:    4616                        ENDRMODF           EQUALS
001605:


001607:                                                                                                  #  PROGRAM NAME_  RRTURNON
001608:
001609:                                                                                                  #  FUNCTIONAL DESCRIPTION_
001610:
001611:                                                                                                  #        RRTURNON IS THE TURN-ON SEQUENCE WHICH, ALONG WITH
001612:                                                                                                  #        RRZEROSB, ZEROS THE CDU:S AND DETERMINES THE RR MODE.
001613:                                                                                                  #        INITIALLY, CONTROL IS TRANSFERRED TO RRZEROSB FOR THE
001614:                                                                                                  #        ACTUAL TURN-ON SEQUENCE.  UPON RETURN THE PROGRAM
001615:                                                                                                  #        WAITS 1 SECOND BEFORE REMOVING THE TURN-ON FLAG
001616:                                                                                                  #        (RADMODES BIT1) SO THE REPOSITION ROUTINE WON:T
001617:                                                                                                  #        INITIATE PROGRAM ALARM 00501.  A CHECK IS THEN MADE
001618:                                                                                                  #        TO SEE IF A PROGRAM IS USING THE RR (STATE BIT 7).  IF
001619:                                                                                                  #        SO, THE PROGRAM EXITS TO ENDRADAR SO THAT THE RR CDU
001620:                                                                                                  #        FAIL FLAG (RADMODES BIT 7) CAN BE CHECKED BEFORE
001621:                                                                                                  #        RETURNING TO THE WAITING PROGRAM.  IF NOT, THE PROGRAM EXITS
001622:                                                                                                  #        TO TASKOVER.
001623:
001624:                                                                                                  #  CALLING SEQUENCE:  WAITLIST TASK FROM RRAUTCHK IF THE RR POWER ON AUTO
001625:                                                                                                  #  BIT (CHAN 33 BIT 2) CHANGES TO 0 AND NO PROGRAM WAS USING
001626:                                                                                                  #  THE RR (STATE BIT 7).
001627:
001628:                                                                                                  #  ERASABLE INITIALIZATION REQUIRED:
001629:
001630:                                                                                                  #        RADMODES, STATE
001631:
001632:                                                                                                  #  SUBROUTINES CALLED_  RRZEROSB, FIXDELAY, TASKOVER, ENDRADAR
001633:
001634:                                                                                                  #  JOBS OR TASKS INITIATED_
001635:                                                                                                  #
001636:                                                                                                  #        NONE
001637:
001638:                                                                                                  #  ALARMS_  NONE (SEE RRZEROSB)
001639:
001640:                                                                                                  #  EXIT_  TASKOVER, ENDRADAR (WAITING PROGRAM)
001641:
001642: 24,3255                                           BANK     24
001643: 25,2000                                           SETLOC   P20S1
001644: 25,2000                                           BANK
001645:
001646: 25,2062  E7,1456                                  EBANK=   LOSCOUNT
001647: 25,2062                                           COUNT*   $$/RSUB
001648: 25,2062           02071        RRTURNON           TC       RRZEROSB
001649: 25,2063           05221                           TC       FIXDELAY                              #  WAIT 1 SEC BEFORE REMOVING TURN ON FLAG
001650: 25,2064           00144                           DEC      100        B-14                       #  SO A MONITOR REPOSITION WONT ALARM.
001651: 25,2065           44753                           CS       TURNONBT
001652: 25,2066           70110                           MASK     RADMODES
001653: 25,2067           54110                           TS       RADMODES
001654: 25,2070           15261                           TCF      TASKOVER


001656:                                                                                                  #  PROGRAM NAME_  RRZEROSB
001657:
001658:                                                                                                  #  FUNCTIONAL DESCRIPTION_
001659:                                                                                                  #        RRZEROSB IS A CLOSED SUBROUTINE TO ZERO THE RR CDU:S,
001660:                                                                                                  #        DETERMINE THE RR MODE, AND TURNS ON THE TRACKER FAIL
001661:                                                                                                  #        LAMP IF REQUIRED.  INITIALLY THE RR CDU ZERO BIT (CHAN 12
001662:                                                                                                  #        BIT 1) IS SET.  FOLLOWING A 20 MILLISECOND WAIT, THE LGC
001663:                                                                                                  #        RR CDU COUNTERS (OPTY, OPTX) ARE SET = 0 AFTER
001664:                                                                                                  #        WHICH THE RR CDU ZERO DISCRETE (CHAN 12 BIT 1) IS
001665:                                                                                                  #        REMOVED.  A 4 SECOND WAIT IS SET TO ALL THE RR CDU:S
001666:                                                                                                  #        TO REPEAT THE ACTUAL TRUNNION AND SHAFT ANGLES.  THE
001667:                                                                                                  #        RR CDU ZERO FLAG (RADMODES BIT 13) IS REMOVED.  THE
001668:                                                                                                  #        CONTENTS OF OPTY IS THEN CHECKED TO SEE IF THE TRUNNION
001669:                                                                                                  #        ANGLE IS LESS THAN 90 DEGREES.  IF NOT, BIT 12 OF
001670:                                                                                                  #        RADMODES IS SET = 1 TO INDICATE RR ANTENNA MODE 2.
001671:                                                                                                  #        IF LESS THAN 90 DEGREES, BIT 12 OF RADMODES IS SET = 0 TO
001672:                                                                                                  #        INDICATE RR ANTENNA MODE 1.  SETTRKF IS THEN CALLED TO
001673:                                                                                                  #        SEE IF THE TRACKER FAIL LAMP SHOULD BE TURNED ON.
001674:
001675:                                                                                                  #  CALLING SEQUENCE:  L  TC  RRZEROSB  (FROM RRTURNON AND RRZERO)
001676:
001677:                                                                                                  #  ERASABLE INITIALIZATION REQUIRED:
001678:
001679:                                                                                                  #        RADMODES (BIT 13 SET), DSPTAB +11D
001680:
001681:                                                                                                  #  SUBROUTINES CALLED_  FIXDELAY, MAGSUB, SETTRKF
001682:
001683:                                                                                                  #  JOBS OR TASKS INITIATED_
001684:
001685:                                                                                                  #        NONE
001686:
001687:                                                                                                  #  ALARMS_  TRACKER FAIL
001688:
001689:                                                                                                  #  EXIT_  L +1 (ALWAYS)
001690:
001691: 25,2071           00006        RRZEROSB           EXTEND
001692: 25,2072           23315                           QXCH     RRRET
001693: 25,2073           34753                           CAF      BIT1                                  #  BIT 13 OF RADMODES MUST BE SET BEFORE
001694: 25,2074           00006                           EXTEND                                         #  COMING HERE.
001695: 25,2075           05012                           WOR      CHAN12                                #  TURN ON ZERO RR CDU
001696: 25,2076           05221                           TC       FIXDELAY
001697: 25,2077           00002                           DEC      2          B-14
001698:
001699: 25,2100           34755                           CAF      ZERO
001700: 25,2101           54035                           TS       CDUT
001701: 25,2102           54036                           TS       CDUS
001702: 25,2103           44753                           CS       ONE                                   #  REMOVE ZEROING BIT.
001703: 25,2104           00006                           EXTEND
001704: 25,2105           03012                           WAND     CHAN12
001705: 25,2106           05221                           TC       FIXDELAY
001706: 25,2107           01750                           DEC      1000       B-14                       #  RESET FAIL INHIBIT IN 10 SECS - D.281
001707:
001708: 25,2110           44737                           CS       RCDU0BIT                              #  REMOVE ZEROING IN PROCESS BIT.


001710: 25,2111           70110                           MASK     RADMODES
001711: 25,2112           54110                           TS       RADMODES
001712:
001713: 25,2113           30035                           CA       CDUT
001714: 25,2114           04512                           TC       MAGSUB
001715: 25,2115           57777                           DEC      -.5
001716: 25,2116           12121                           TCF      +3                                    #  IF MODE 2.
001717:
001718: 25,2117           34755                           CAF      ZERO
001719: 25,2120           12122                           TCF      +2
001720: 25,2121           34740                           CAF      ANTENBIT
001721: 25,2122           56110                           XCH      RADMODES
001722: 25,2123           77741                           MASK     -BIT12
001723: 25,2124           26110                           ADS      RADMODES
001724:
001725: 25,2125           04564                           TC       SETTRKF                               #  TRACKER LAMP MIGHT GO ON NOW.
001726:
001727: 25,2126           01315                           TC       RRRET                                 #  DONE.
001728:
001729: 25,2127     7741               -BIT12             EQUALS   -1/8                                  #  IN SPROOT
001730:


001732:                                                                                                  #  PROGRAM NAME_  DORREPOS
001733:
001734:                                                                                                  #  FUNCTIONAL DESCRIPTION_
001735:
001736:                                                                                                  #        DORREPOS IS A SEQUENCE OF TASKS TO DRIVE THE RENDEZVOUS RADAR
001737:                                                                                                  #        TO A SAFE POSITION.  INITIALLY SETRRECR IS CALLED WHERE THE RR
001738:                                                                                                  #        ERROR COUNTERS (CHAN 12 BIT 2) ARE ENABLED AND LASTYCMD
001739:                                                                                                  #        AND LASTXCMD SET = 0 TO INDICATE THE DIFFERENCE BETWEEN THE
001740:                                                                                                  #        DESIRED STATE AND PRESENT STATE OF THE COMMANDS.  THE RR
001741:                                                                                                  #        TURN-ON FLAG (RADMODES BIT 1) IS CHECKED AND IF NOT PRESENT,
001742:                                                                                                  #        PROGRAM ALARM 00501 IS REQUESTED BEFORE CONTINUING.  IN EITHER
001743:                                                                                                  #        CASE, FOLLOWING A 20 MILLISECOND WAIT THE PROGRAM CHECKS THE CURRENT
001744:                                                                                                  #        RR ANTENNA MODE (RADMODES BIT 12).  RRTONLY IS THEN CALLED
001745:                                                                                                  #        TO DRIVE THE TRUNNION ANGLE TO 0 DEGREES IF IN MODE 1 AND TO 180
001746:                                                                                                  #        DEGREES IF IN MODE 2.  UPON RETURN, THE CURRENT RR ANTENNA
001747:                                                                                                  #        MODE (RADMODES BIT 12) IS AGAIN CHECKED.  RRSONLY IS THEN
001748:                                                                                                  #        CALLED TO DRIVE THE SHAFT ANGLE TO 0 DEGREES IF IN MODE 1 AND TO
001749:                                                                                                  #        -90 DEGREES IF IN MODE 2.  IF DURING RRTONLY OR RRSONLY A
001750:                                                                                                  #        REMODE HAS BEEN REQUESTED (RADMODES BIT 14), AND ALWAYS
001751:                                                                                                  #        FOLLOWING COMPLETION OF RRSONLY, CONTROL IS TRANSFERRED TO
001752:                                                                                                  #        REPOSRPT.  HERE THE REPOSITION FLAG (RADMODES BIT 11) IS
001753:                                                                                                  #        REMOVED.  A CHECK IS THEN MADE ON THE DESIGNATE FLAG (RADMODES
001754:                                                                                                  #        BIT 10).  IF PRESENT, CONTROL IS TRANSFERRED TO BEGDES.  IF NOT PRESENT
001755:                                                                                                  #        INDICATING NO FURTHER ANTENNA CONTROL REQUIRED, THE RR ERROR
001756:                                                                                                  #        COUNTER BIT (CHAN 12 BIT 2) IS REMOVED AND THE ROUTINE EXITS TO
001757:                                                                                                  #        TASKOVER.
001758:
001759:                                                                                                  #  CALLING SEQUENCE:
001760:
001761:                                                                                                  #        WAITLIST CALL FROM RRGIMON IF TRUNNION AND SHAFT CDU ANGLES
001762:                                                                                                  #        NOT WITHIN LIMITS OF CURRENT MODE.
001763:
001764:                                                                                                  #  ERASABLE INITIALIZATION REQUIRED:
001765:
001766:                                                                                                  #        RADMODES
001767:
001768:                                                                                                  #  SUBROUTINES CALLED_
001769:
001770:                                                                                                  #        RRTONLY, RRSONLY, BEGDES (EXIT)
001771:
001772:                                                                                                  #  JOBS OR TASKS INITIATED_
001773:
001774:                                                                                                  #        NONE
001775:
001776:                                                                                                  #  ALARMS-  NONE
001777:
001778:                                                                                                  #  EXIT_  TASKOVER, BEGDES
001779:
001780: 25,2127           02156        DORREPOS           TC       SETRRECR                              #  SET UP RR CDU ERROR COUNTERS.
001781:
001782:                                                                                                  #  ALARM 501 DELETED IN DANCE 279 PER PCR 97.
001783:
001784: 25,2130           05221                           TC       FIXDELAY
001785: 25,2131           00002                           DEC      2          B-14
001786:
001787: 25,2132           34740                           CAF      ANTENBIT                              #  MANEUVER TRUNNION ANGLE TO NOMINAL POS.


001789: 25,2133           70110                           MASK     RADMODES
001790: 25,2134           10000                           CCS      A
001791: 25,2135           34735                           CAF      BIT15                                 #  0 FOR MODE 1 AND 180 FOR MODE 2.
001792: 25,2136           02241                           TC       RRTONLY
001793:
001794: 25,2137           34740                           CAF      ANTENBIT                              #  NOW PUT SHAFT IN RIGHT POSITION
001795: 25,2140           70110                           MASK     RADMODES
001796: 25,2141           10000                           CCS      A
001797: 25,2142           44736                           CS       HALF                                  #  -90 FOR MODE 2.
001798: 25,2143           02244                           TC       RRSONLY
001799:
001800: 25,2144           44741        REPOSRPT           CS       REPOSBIT                              #  RETURNS HERE FROM RR1AXIS IF REMODE
001801:                                                                                                  #  REQUESTED DURING REPOSITION.
001802: 25,2145           70110                           MASK     RADMODES                              #  REMOVE REPOSITION BIT.
001803: 25,2146           54110                           TS       RADMODES
001804: 25,2147           74742                           MASK     DESIGBIT                              #  SEE IF SOMEONE IS WAITING TO DESIGNATE.
001805: 25,2150           10000                           CCS      A
001806: 25,2151           12573                           TCF      BEGDES
001807: 25,2152           44752                           CS       BIT2                                  #  IF NO FURTHER ANTENNA CONTROL REQUIRED,
001808: 25,2153           00006                           EXTEND                                         #  REMOVE ERROR COUNTER ENABLE.
001809: 25,2154           03012                           WAND     CHAN12
001810: 25,2155           15261                           TCF      TASKOVER
001811:
001812: 25,2156           34752        SETRRECR           CAF      BIT2                                  #  SET UP RR ERROR COUNTERS.
001813: 25,2157           00006                           EXTEND
001814: 25,2160           02012                           RAND     CHAN12
001815: 25,2161           10000                           CCS      A                                     #  DO NOT CLEAR LAST COMMAND IF
001816: 25,2162           00002                           TC       Q                                     #  ERROR COUNTERS ARE ENABLED.
001817:
001818: 25,2163           54112                           TS       LASTYCMD
001819: 25,2164           54113                           TS       LASTXCMD
001820: 25,2165           34752                           CAF      BIT2
001821: 25,2166           00006                           EXTEND
001822: 25,2167           05012                           WOR      CHAN12                                #  ENABLE RR CDU ERROR COUNTERS.
001823: 25,2170           00002                           TC       Q


001825:                                                                                                  #  PROGRAM NAME_  REMODE                                                         IVES SHAFT TO -45, AND FINALLY DRIVES
001826:
001827:                                                                                                  #  FUNCTIONAL DESCRIPTION_                                                       S DONE WITH SINGLE AXIS ROTATIONS (SEE
001828:                                                                                                  #        REMODE IS THE GENERAL REMODING SUBROUTINE.  IT DRIVES THE
001829:                                                                                                  #        TRUNNION ANGLE TO 0 DEGREES IF THE CURRENT MODE IS MODE 1,
001830:                                                                                                  #        180 DEGREES FOR MODE 2, THEN DRIVES THE SHAFT ANGLE TO -45
001831:                                                                                                  #        DEGREES, AND FINALLY DRIVES THE TRUNNION ANGLE TO -130 DEGREES,
001832:                                                                                                  #        TO PLACE THE RR IN MODE 2, -50 DEGREES FOR MODE 1, BEFORE
001833:                                                                                                  #        INITIATING 2-AXIS CONTROL.  ALL REMODING IS DONE WITH SINGLE
001834:                                                                                                  #        AXIS ROTATIONS (RR1AXIS).  INITIALLY THE RR ANTENNA MODE FLAG
001835:                                                                                                  #        (RADMODES BIT 12) IS CHECKED.  CONTROL IS THEN TRANSFERRED TO
001836:                                                                                                  #        RRTONLY TO DRIVE THR TRUNNION ANGLE TO 0 DEGREES IF IN MODE 1
001837:                                                                                                  #        OR 180 DEGREES IF IN MODE 2.  RRSONLY IS THEN CALLED TO DRIVE
001838:                                                                                                  #        THE SHAFT ANGLE TO -45 DEGREES. THE RR ANTENNA MODE FLAG
001839:                                                                                                  #        (RADMODES BIT 12) IS CHECKED AGAIN.  CONTROL IS AGAIN
001840:                                                                                                  #        TRANSFERRED TO RRTONLY TO DRIVE THE TRUNNION ANGLE TO -130
001841:                                                                                                  #        DEGREES TO PLACE THE RR IN MODE 2 IF CURRENTLY IN MODE 1 OR TO
001842:                                                                                                  #        -50 DEGREES IF IN MODE 2 TO PLACE THE RR IN MODE 1.  RMODINV
001843:                                                                                                  #        IS THEN CALLED TO SET RADMODES BIT 12 TO INDICATE THE NEW
001844:                                                                                                  #        RR ANTENNA MODE.  THE REMODE FLAG (RADMODES BIT 14)
001845:                                                                                                  #        IS REMOVED TO INDICATE THAT REMODING IS COMPLETE.  THE PROGRAM
001846:                                                                                                  #        THEN EXITS TO STDESIG TO BEGIN 2-AXIS CONTROL.
001847:
001848:                                                                                                  #  CALLING SEQUENCE:
001849:
001850:                                                                                                  #        FROM BEGDES WHEN REMODE FLAG (RADMODES BIT 14) IS SET.
001851:                                                                                                  #        THIS FLAG MAY BE SET IN RRDESSM AND RRDESNB IF RRLIMCHK
001852:                                                                                                  #        DETERMINES THAT THE DESIRED ANGLES ARE WITHIN THE LIMITS OF THE
001853:                                                                                                  #        OTHER MODE.
001854:
001855:                                                                                                  #  ERASABLE INITIALIZATION REQUIRED:
001856:
001857:                                                                                                  #        RADMODES
001858:
001859:                                                                                                  #  SUBROUTINES CALLED_
001860:
001861:                                                                                                  #        RRTONLY, RRSONLY, RMODINV (ACTUALLY PART OF)
001862:
001863:                                                                                                  #  JOBS OR TASKS INITIATED_
001864:
001865:                                                                                                  #        NONE
001866:
001867:                                                                                                  #  ALARMS_  NONE
001868:
001869:                                                                                                  #  EXIT_  STDESIG
001870:
001871: 25,2171           34740        REMODE             CAF      ANTENBIT                              #  DRIVE TRUNNION TO 0 (180)
001872: 25,2172           70110                           MASK     RADMODES                              #  (ERROR COUNTER ALREADY ENABLED)
001873: 25,2173           10000                           CCS      A
001874: 25,2174           34735                           CAF      BIT15
001875: 25,2175           02241                           TC       RRTONLY
001876:
001877: 25,2176           37740                           CAF      -45DEGSR
001878: 25,2177           02244                           TC       RRSONLY


001880: 25,2200           40110                           CS       RADMODES
001881: 25,2201           74740                           MASK     ANTENBIT
001882: 25,2202           10000                           CCS      A
001883: 25,2203           32232                           CAF      -80DEGSR                              #  GO TO T = -130 (-50).
001884: 25,2204           62231                           AD       -50DEGSR
001885: 25,2205           02241                           TC       RRTONLY
001886:
001887: 25,2206           40110                           CS       RADMODES
001888: 25,2207           74740                           MASK     ANTENBIT
001889: 25,2210           10000                           CCS      A
001890: 25,2211           34735                           CAF      BIT15                                 #  GO TO T = -180 (+0).
001891: 25,2212           02241                           TC       RRTONLY
001892:
001893: 25,2213           40110                           CS       RADMODES                              #  GO TO S = -90 (+0).
001894: 25,2214           74740                           MASK     ANTENBIT
001895: 25,2215           10000                           CCS      A
001896: 25,2216           44736                           CS       HALF
001897: 25,2217           02244                           TC       RRSONLY
001898:
001899: 25,2220           02233                           TC       RMODINV
001900:
001901: 25,2221           44736                           CS       REMODBIT                              #  END OF REMODE.
001902: 25,2222           70110                           MASK     RADMODES
001903: 25,2223           54110                           TS       RADMODES
001904:
001905: 25,2224           34742                           CAF      DESIGBIT                              #  WAS REMODE CALLED DURING DESIGNATE?
001906: 25,2225           70110                           MASK     RADMODES                              #  (BIT10 RADMODES = 1)
001907: 25,2226           00006                           EXTEND
001908: 25,2227           13555                           BZF      RGOODEND                              #  NO - RETURN TO CALLER WAITING IN RADSTALL
001909: 25,2230           02602                           TC       STDESIG                               #  YES - RETURN TO DESIGNATE
001910: 25,2231     7740               -45DEGSR           =        13,14,15
001911: 25,2231           67070        -50DEGSR           DEC      -.27778
001912: 25,2232           61615        -80DEGSR           DEC      -.44444
001913:
001914: 25,2233           22110        RMODINV            LXCH     RADMODES                              #  INVERT THE MODE STATUS.
001915: 25,2234           34740                           CAF      ANTENBIT
001916: 25,2235           00006                           EXTEND
001917: 25,2236           06001                           RXOR     LCHAN
001918: 25,2237           54110                           TS       RADMODES
001919: 25,2240           00002                           TC       Q
001920:


001922:                                                                                                  #  PROGRAM NAMES_        RRTONLY, RRSONLY
001923:
001924:                                                                                                  #  FUNCTIONAL DESCRIPTION_
001925:
001926:                                                                                                  #        RRTONLY AND RRSONLY ARE SUBROUTINES FOR DOING SINGLE AXIS
001927:                                                                                                  #        RR MANEUVERS FOR REMODE AND REPOSITION.  IT DRIVES TO
001928:                                                                                                  #        WITHIN 1 DEGREE.  INITIALLY, AT RR1AX2, THE REMODE AND REPOSITION
001929:                                                                                                  #        FLAGS (RADMODES BITS 14, 11) ARE CHECKED.  IF BOTH EXIST,
001930:                                                                                                  #        THE PROGRAM EXITS TO REPOSRPT (SEE DORREPOS).  THIS INDICATES
001931:                                                                                                  #        THAT SOMEONE POSSIBLY REQUESTED A DESIGNATE (RADMODES BIT 10)
001932:                                                                                                  #        WHICH REQUIRES A REMODE (RADMODES BIT 14) AND THAT A
001933:                                                                                                  #        REPOSITION IS IN PROGRESS (RADMODES BIT 11).  IF NONE
001934:                                                                                                  #        OR ONLY ONE OF THE FLAGS EXIST, REMODE OR REPOSITION, MAGSUB
001935:                                                                                                  #        IS CALLED TO SEE IF THE APPROPRIATE ANGLE IS WITHIN 1 DEGREE.  IF YES,
001936:                                                                                                  #        CONTROL RETURNS TO THE CALLING ROUTINE.  IF NOT, CONTROL IS
001937:                                                                                                  #        TRANSFERRED TO RROUT FOR SINGLE AXIS MANEUVERS WITH THE OTHER
001938:                                                                                                  #        ANGLE SET = 0.  FOLLOWING A .5 SECOND WAIT, THE ABOVE PROCEDURE IS
001939:                                                                                                  #        REPEATED.
001940:
001941:                                                                                                  #  CALLING SEQUENCE:     L-1     CAF     *ANGLE*         (DESIRED ANGLE SCALED PI)
001942:                                                                                                  #                        L       TC      RRTONLY         (TRUNNION ONLY)
001943:                                                                                                  #                        RRSONLY                         (SHAFT ONLY)
001944:                                                                                                  #                        RRTONLY IS CALLED BY PREPOS29;
001945:                                                                                                  #                        RRTONLY AND RRSONLY ARE CALLED BY DORREPOS AND REMODE
001946:
001947:                                                                                                  #  ERASABLE INITIALIZATION REQUIRED:
001948:
001949:                                                                                                  #        C(A) = DESIRED ANGLE, RADMODES
001950:
001951:                                                                                                  #  SUBROUTINES CALLED_
001952:
001953:                                                                                                  #        FIXDELAY, REPOSRPT, MAGSUB, RROUT
001954:
001955:                                                                                                  #  JOBS OR TASKS INITIATED_
001956:
001957:                                                                                                  #        NONE
001958:
001959:                                                                                                  #  ALARMS_  NONE
001960:
001961:                                                                                                  #  EXIT_ REPOSRPT (REMODE AND REPOSITION FLAGS PRESENT - RADMODES
001962:                                                                                                  #        BITS 14, 11)
001963:                                                                                                  #        L+1 (ANGLE WITHIN ONE DEGREE OR RR OUT OF AUTO MODE)
001964:
001965: 25,2241           55316        RRTONLY            TS       RDES                                  #  DESIRED TRUNION ANGLE.
001966: 25,2242           34755                           CAF      ZERO
001967: 25,2243           12246                           TCF      RR1AXIS
001968:
001969: 25,2244           55316        RRSONLY            TS       RDES                                  #  SHAFT COMMANDS ARE UNRESOLVED SINCE THIS
001970: 25,2245           34753                           CAF      ONE                                   #  ROUTINE ENTERED ONLY WHEN T = 0 OR 180.
001971:
001972: 25,2246           55317        RR1AXIS            TS       RRINDEX
001973: 25,2247           00006                           EXTEND
001974: 25,2250           23315                           QXCH     RRRET
001975: 25,2251           12254                           TCF      RR1AX2
001976:


001978: 25,2252           05221        NXTRR1AX           TC       FIXDELAY
001979: 25,2253           00062                           DEC      50         B-14                       #  2 SAMPLES PER SECOND.
001980:
001981: 25,2254           40110        RR1AX2             CS       RADMODES                              #  IF SOMEONE REQUESTES AS DESIGNATE WHICH
001982: 25,2255           77710                           MASK     PRIO22                                #  REQUIRES A REMODE AND A REPOSITION IS IN
001983: 25,2256           00006                           EXTEND                                         #  PROGRESS, INTERRUPT IT AND START THE
001984: 25,2257           12144                           BZF      REPOSRPT                              #  REMODE IMMEDIATELY.
001985:
001986: 25,2260           31316                           CA       RDES
001987: 25,2261           00006                           EXTEND
001988: 25,2262           51317                           INDEX    RRINDEX
001989: 25,2263           20035                           MSU      CDUT
001990: 25,2264           54061                           TS       ITEMP1                                #  SAVE ERROR SIGNAL.
001991: 25,2265           00006                           EXTEND
001992: 25,2266           72305                           MP       RRSPGAIN                              #  TRIES TO NULL .7 OF ERROR OVER NEXT .5
001993: 25,2267           54001                           TS       L
001994: 25,2270           30110                           CA       RADMODES
001995: 25,2271           74752                           MASK     AUTOMBIT
001996: 25,2272           56061                           XCH      ITEMP1                                #  STORE RR-OUT-OF-AUTO-MODE BIT.
001997: 25,2273           04512                           TC       MAGSUB                                #  SEE IF WITHIN ONE DEGREE.
001998: 25,2274           77644                           DEC      -.00555                               #  SCALED IN HALF-REVS.
001999:
002000: 25,2275           10061                           CCS      ITEMP1                                #  NO.  IF RR OUT OF AUTO MODE, EXIT.
002001: 25,2276           01315                           TC       RRRET                                 #  RETURN TO CALLER.
002002:
002003: 25,2277           11317                           CCS      RRINDEX                               #  COMMAND FOR OTHER AXIS IS ZERO.
002004: 25,2300           12302                           TCF      +2                                    #  SETTING A TO 0.
002005: 25,2301           56001                           XCH      L
002006: 25,2302           53110                           DXCH     TANG
002007:
002008: 25,2303           02306                           TC       RROUT
002009:
002010: 25,2304           12252                           TCF      NXTRR1AX                              #  COME BACK IN .5 SECONDS.
002011:
002012: 25,2305           22715        RRSPGAIN           DEC      .59062                                #  NULL .7 ERROR IN .5 SEC.
002013:


002015:                                                                                                  #  PROGRAM NAME_  RROUT                                                          RROR COUNTER SCALING. RROUT LIMITS THEM
002016:
002017:                                                                                                  #  FUNCTIONAL DESCRIPTION_
002018:
002019:                                                                                                  #        RROUT RECEIVES RR GYRO COMMANDS IN TANG, TANG +1 IN RR
002020:                                                                                                  #        ERROR COUNTER SCALING.  RROUT THEN LIMITS THEM AND
002021:                                                                                                  #        GENERATES COMMANDS TO THE CDU TO ADJUST THE ERROR COUNTERS
002022:                                                                                                  #        TO THE DESIRED VALUES.  INITIALLY MAGSUB CHECKS THE MAGNITUDE OF
002023:                                                                                                  #        THE COMMAND (SHAFT ON 1ST PASS) TO SEE IF IT IS GREATER THAN
002024:                                                                                                  #        384 PULSES.  IF NOT, CONTROL IS TRANSFERRED TO RROUTLIM TO
002025:                                                                                                  #        LIMIT THE COMMAND TO +384 OR -384 PULSES.  THE DIFFERENCE IS
002026:                                                                                                  #        THEN CALCULATED BETWEEN THE DESIRED STATE AND THE PRESENT STATE OF
002027:                                                                                                  #        THE ERROR COUNTER AS RECORDED IN LASTYCMD AND LASTXCMD.
002028:                                                                                                  #        THE RESULT IS STORED IN OPTXCMD (1ST PASS) AND OPTYCMD (2ND
002029:                                                                                                  #        PASS).  FOLLOWING THE SECOND PASS, FOR THE TRUNNION COMMAND, THE
002030:                                                                                                  #        OCDUT AND OCDUS ERROR COUNTER DRIVE BITS (CHAN 14 BITS 12, 11)
002031:                                                                                                  #        ARE SET.  THIS PROGRAM THEN EXITS TO THE CALLING PROGRAM.
002032:
002033:                                                                                                  #  CALLING SEQUENCE:
002034:                                                                                                  #
002035:                                                                                                  #        L TC RROUT (WITH RUPT INHIBITED) RROUT IS CALLED BY
002036:                                                                                                  #        RRTONLY, RRSONLY, AND DODES
002037:
002038:                                                                                                  #  ERASABLE INITIALIZATION REQUIRED:
002039:
002040:                                                                                                  #        TANG, TANG +1 (DESIRED COMMANDS), LASTYCMD, LASTXCMD
002041:                                                                                                  #        (1ST PASS = 0), RR ERROR COUNTER ENABLE SET (CHAN 12 BIT 2).
002042:
002043:                                                                                                  #  SUBROUTINES CALLED_
002044:
002045:                                                                                                  #        MAGSUB
002046:
002047:                                                                                                  #  JOBS OR TASKS INITIATED_
002048:
002049:                                                                                                  #        NONE
002050:
002051:                                                                                                  #  ALARMS_  NONE
002052:
002053:                                                                                                  #  EXIT_  L+1 (ALWAYS)                                                           SIRED VALUES. RUPT MUST BE INHIBITED.
002054:
002055: 25,2306           22002        RROUT              LXCH     Q                                     #  SAVE RETURN.
002056: 25,2307           34753                           CAF      ONE                                   #  LOOP TWICE.
002057: 25,2310           54062        RROUT2             TS       ITEMP2
002058: 25,2311           50000                           INDEX    A
002059: 25,2312           31107                           CA       TANG
002060: 25,2313           54061                           TS       ITEMP1                                #  SAVE SIGN OF COMMAND FOR LIMITING.
002061:
002062: 25,2314           04512                           TC       MAGSUB                                #  SEE IF WITHIN LMITS.
002063: 25,2315           77177        -RRLIMIT           DEC      -384       B-14
002064: 25,2316           12335                           TCF      RROUTLIM                              #  LIMIT COMMAND TO MAG OF 384.
002065:
002066: 25,2317           30061        SETRRCTR           CA       ITEMP1                                #  COUNT OUT DIFFERENCE BETWEEN DESIRED
002067: 25,2320           50062                           INDEX    ITEMP2                                #  STATE AND PRESENT STATE AS RECORDED IN
002068: 25,2321           56112                           XCH      LASTYCMD                              #  LASTYCMD AND LASTXCMD
002069: 25,2322           40000                           COM


002071: 25,2323           60061                           AD       ITEMP1
002072: 25,2324           64754                           AD       NEG0                                  #  PREVENT +0 IN OUTCOUNTER
002073: 25,2325           50062                           INDEX    ITEMP2
002074: 25,2326           54053                           TS       CDUTCMD
002075:
002076: 25,2327           10062                           CCS      ITEMP2                                #  PROCESS BOTH INPUTS.
002077: 25,2330           12310                           TCF      RROUT2
002078:
002079: 25,2331           35020                           CAF      PRIO6                                 #  ENABLE COUNTERS.
002080: 25,2332           00006                           EXTEND
002081: 25,2333           05014                           WOR      CHAN14                                #  PUT ON CDU DRIVES S AND T
002082: 25,2334           00001                           TC       L                                     #  RETURN.
002083:
002084: 25,2335           10061        RROUTLIM           CCS      ITEMP1                                #  LIMIT COMMAND TO ABS VAL OF 384.
002085: 25,2336           42315                           CS       -RRLIMIT
002086: 25,2337           12341                           TCF      +2
002087: 25,2340           32315                           CA       -RRLIMIT
002088: 25,2341           54061                           TS       ITEMP1
002089: 25,2342           12320                           TCF      SETRRCTR   +1
002090:


002092:                                                                                                  #  ROUTINE TO ZERO THE RR CDUS AND DETERMINE THE ANTENNA MODE.
002093:
002094: 25,2343           32372        RRZERO             CAF      BIT11+1                               #  SEE IF MONITOR REPOSITION OR NOT IN AUTO
002095: 25,2344           70110                           MASK     RADMODES                              #  IF SO, DONT RE-ZERO CDUS.
002096: 25,2345           10000                           CCS      A
002097: 25,2346           13530                           TCF      RADNOOP                               #  (IMMEDIATE TASK TO RGOODEND).
002098:
002099: 25,2347           00004                           INHINT
002100: 25,2350           44737                           CS       RCDU0BIT                              #  SET FLAG TO SHOW ZEROING IN PROGRESS.
002101: 25,2351           70110                           MASK     RADMODES
002102: 25,2352           64737                           AD       RCDU0BIT
002103: 25,2353           54110                           TS       RADMODES
002104:
002105: 25,2354           34753                           CAF      ONE
002106: 25,2355           05203                           TC       WAITLIST
002107: 25,2356  E7,1456                                  EBANK=   LOSCOUNT
002108: 25,2356           02370 52067                     2CADR    RRZ2
002109:
002110: 25,2360           40110                           CS       RADMODES                              #  SEE IF IN AUTO MODE.
002111: 25,2361           74752                           MASK     AUTOMBIT
002112: 25,2362           10000                           CCS      A
002113: 25,2363           12366                           TCF      ROADBACK
002114: 25,2364           05567                           TC       ALARM                                 #  AUTO DISCRETE NOT PRESENT - TRYING
002115: 25,2365           00510                           OCT      510
002116: 25,2366           00003        ROADBACK           RELINT
002117: 25,2367           14631                           TCF      SWRETURN
002118:
002119: 25,2370           02071        RRZ2               TC       RRZEROSB                              #  COMMON TO TURNON AND RRZERO.
002120: 25,2371           13546                           TCF      ENDRADAR
002121:
002122: 25,2372           02001        BIT11+1            OCT      02001
002123:


002125:                                                                                                  #  PROGRAM NAME_  RRDESSM                                                        R (HALF-UNIT) IN RRTARGET. REMODES IF
002126:
002127:                                                                                                  #  FUNCTIONAL DESCRIPTION_
002128:
002129:                                                                                                  #        THIS INTERPRETIVE ROUTINE WILL DESIGNATE, IF DESIRED ANGLES ARE
002130:                                                                                                  #        WITHIN THE LIMITS OF EITHER MODE, TO A LINE-OF SIGHT (LOS) VECTOR
002131:                                                                                                  #        (HALF-UNIT) KNOWN WITH RESPECT TO THE STABLE MEMBER PRESENT
002132:                                                                                                  #        ORIENTATION.  INITIALLY THE IMU CDU:S ARE READ AND CONTROL
002133:                                                                                                  #        TRANSFERRED TO SMNB TO TRANSFORM THE LOS VECTOR FROM STABLE
002134:                                                                                                  #        MEMBER TO NAVIGATION BASE COORDINATES (SEE STG MEMO -699)
002135:                                                                                                  #        RRANGLES IS THEN CALLED TO CALCULATE THE RR GIMBAL ANGLES,
002136:                                                                                                  #        TRUNNION AND SHAFT, FOR BOTH THE PRESENT AND ALTERNATE MODE.
002137:                                                                                                  #        RRLIMCHK IS CALLED TO SEE IF THE ANGLES CALCULATED FOR THE
002138:                                                                                                  #        PRESENT MODE ARE WITHIN LIMITS.  IF WITHIN LIMITS, THE RETURN
002139:                                                                                                  #        LOCATION IS INCREMENTED, INASMUCH AS NO VEHICLE MANEUVER IS
002140:                                                                                                  #        REQUIRED, BEFORE EXITING TO STARTDES.  IF NOT WITHIN LIMITS OF THE
002141:                                                                                                  #        CURRENT MODE, TRYSWS IS CALLED.  FOLLOWING INVERTING OF THE RR
002142:                                                                                                  #        ANTENNA MODE FLAG (RADMODES BIT 12), RRLIMCHK IS CALLED
002143:                                                                                                  #        TO SEE IF THE ANGLES CALCULATED FOR THE ALTERNATE MODE ARE WITHIN
002144:                                                                                                  #        LIMITS.  IF YES, THE RR ANTENNA MODE FLAG IS AGAIN INVERTED,
002145:                                                                                                  #        THE REMODE FLAG (RADMODES BIT 14) SET, AND THE RETURN LOCATION
002146:                                                                                                  #        INCREMENTED, TO INDICATE NO VEHICLE MANEUVER IS REQUIRED, BEFORE
002147:                                                                                                  #        EXITING TO STARTDES.  IF THESE ANGLES ARE NOT WITHIN LIMITS
002148:                                                                                                  #        OF THE ALTERNATE MODE, THE RR ANTENNA MODE FLAG (RADMODES
002149:                                                                                                  #        BIT 12) IS INVERTED BEFORE RETURNING DIRECTLY TO THE CALLING PROGRAM
002150:                                                                                                  #        TO INDICATE THAT A VEHICLE MANEUVER IS REQUIRED.
002151:
002152:                                                                                                  #  CALLING SEQUENCE:
002153:
002154:                                                                                                  #        L       STCALL  RRTARGET        (LOS HALF-UNIT VECTOR IN SM COORDINATES)
002155:                                                                                                  #        L+1     RRDESSM
002156:                                                                                                  #        L+2     BASIC                   (VEHICLE MANEUVER REQUIRED)
002157:                                                                                                  #        L+3     BASIC                   (NO VEHICLE MANEUVER REQUIRED)
002158:
002159:                                                                                                  #  ERASABLE INITIALIZATION REQUIRED:
002160:
002161:                                                                                                  #        RRTARGET, RADMODES
002162:
002163:                                                                                                  #  SUBROUTINES CALLED_
002164:
002165:                                                                                                  #        READCDUS, SMNB, RRANGLES, RRLIMCHK, TRYSWS (ACTUALLY
002166:                                                                                                  #        PART OF), RMODINV
002167:
002168:                                                                                                  #  JOBS OR TASKS INITIATED_
002169:
002170:                                                                                                  #        NONE
002171:
002172:                                                                                                  #  ALARMS_  NONE
002173:
002174:                                                                                                  #  EXIT_  L+2 (NEITHER SET OF ANGLES ARE WITHIN LIMITS OF RELATED MODE)
002175:                                                                                                  #  STARTDES (DESIGNATE POSSIBLE AT PRESENT VEHICLE ATTITUDE - RETURNS
002176:                                                                                                  #  TO L+3 FROM STARTDES)                                                         CAN BE DONE IN PRESENT VEH ATTITUDE.
002177:
002178: 25,2373           43020        RRDESSM            STQ      CLEAR
002179: 25,2374           01113                                    DESRET


002181: 25,2375           00271                                    RRNBSW
002182: 25,2376           77624                           CALL                                           #  COMPUTES SINES AND COSINES, ORDER Y Z X
002183: 25,2377           47537                                    CDUTRIG
002184: 25,2400           45175                           VLOAD    CALL                                  #  LOAD VECTOR AND CALL TRANSFORMATION
002185: 25,2401           01102                                    RRTARGET
002186: 25,2402           47671                                    *SMNB*
002187:
002188: 25,2403           77624                           CALL                                           #  GET RR GIMBAL ANGLES IN PRESENT AND
002189: 25,2404           26133                                    RRANGLES                              #  ALTERNATE MODE.
002190: 25,2405           77776                           EXIT
002191:
002192: 25,2406           00004                           INHINT
002193: 25,2407           04523                           TC       RRLIMCHK
002194: 25,2410           01107                           ADRES    MODEA                                 #  CONFIGURATION FOR CURRENT MODE.
002195: 25,2411           02414                           TC       +3                                    #  NOT IN CURRENT MODE
002196: 25,2412           25113        OKDESSM            INCR     DESRET                                #  INCREMENT SAYS NO VEHICLE MANEUVER REQ.
002197: 25,2413           02432                           TC       STARTDES                              #  SHOW DESIGNATE REQUIRED
002198: 25,2414           40104                           CS       FLAGWRD8
002199: 25,2415           74744                           MASK     SURFFBIT                              #  CHECK IF ON LUNAR SURFACE (SURFFLAG=P22F
002200: 25,2416           00006                           EXTEND
002201: 25,2417           12456                           BZF      NORDSTAL                              #  BRANCH - YES - CANNOT DESIGNATE IN MODE 2
002202: 25,2420           02461                           TC       TRYSWS
002203:
002204: 25,2421           40104        LUNDESCH           CS       FLAGWRD8                              #  OVERFLOW RETURN FROM RRANGLES
002205: 25,2422           74744                           MASK     SURFFBIT                              #  CHECK IF ON LUNAR SURFACE
002206: 25,2423           00006                           EXTEND
002207: 25,2424           12456                           BZF      NORDSTAL                              #  BRANCH - YES - RETURN TO CALLER - ALARM 527
002208: 25,2425           30074                           CA       STATE
002209: 25,2426           74745                           MASK     RNDVZBIT
002210: 25,2427           10000                           CCS      A                                     #  TEST RNDVZFLG.
002211: 25,2430           02471                           TC       NODESSM                               #  NOT ON MOON - CALL FOR ATTITUDE MANEUVER
002212: 25,2431           15155                           TCF      ENDOFJOB                              #  ... BUT NOT IN R29.
002213:


002215:                                                                                                  #  PROGRAM NAME_  STARTDES                                                       STORED AS A HALF-UNIT VECTOR IN RRTARGET
002216:
002217:                                                                                                  #  FUNCTIONAL DESCRIPTION_                                                       CKON IS DESIRED. BIT14 OF RADMODES IS
002218:                                                                                                  #        STARTDES IS ENTERED WHEN WE ARE READY TO BEGIN DESIGNATION.             OR REPOSITION OPERATION. IN THIS
002219:                                                                                                  #        BIT 14 OF RADMODES IS ALREADY SET IF A REMODE IS REQUIRED.              THE REPOSITION WILL BE INTERRUPTED.
002220:                                                                                                  #        AT THIS TIME, THE RR ANTENNA MAY BE IN A REPOSITION                     GINS.
002221:                                                                                                  #        OPERATION.  IN THIS CASE, IF A REMODE IS REQUIRED IT MAY HAVE
002222:                                                                                                  #        ALREADY BEGUN BUT IN ANY CASE THE REPOSITION WILL BE INTERRUPTED.
002223:                                                                                                  #        OTHERWISE, THE REPOSITION WILL BE COMPLETED BEFORE 2-AXIS
002224:                                                                                                  #        DESIGNATION BEGINS.  INITIALLY DESCOUNT IS SET = 60 TO INDICATE
002225:                                                                                                  #        THAT 30 SECONDS WILL BE ALLOWED FOR THE RR DATA GOOD INBIT
002226:                                                                                                  #        (CHAN 33 BIT 4) IF LOCK-ON IS DESIRED (STATE BIT 5).  BIT 10
002227:                                                                                                  #        OF RADMODES IS SET TO SHOW THAT A DESIGNATE IS REQUIRED.
002228:                                                                                                  #        THE REPOSITION FLAG (RADMODES BIT 11) IS CHECKED.  IF SET,
002229:                                                                                                  #        THE PROGRAM EXITS TO L+3 OF THE CALLING PROGRAM (SEE RRDESSM
002230:                                                                                                  #        AND RRDESNB).  THE PROGRAM WILL BEGIN DESIGNATING TO THE DESIRED
002231:                                                                                                  #        ANGLES FOLLOWING THE REPOSITION OR REMODE IF ONE WAS
002232:                                                                                                  #        REQUESTED.  IF THE REPOSITION FLAG IS NOT SET, SETRRECR IS CALLED
002233:                                                                                                  #        WHICH SETS THE RR ERROR COUNTER ENABLE BIT (CHAN 12 BIT 2)
002234:                                                                                                  #        AND SETS LASTYCMD AND LASTXCMD = 0 TO INDICATE THE
002235:                                                                                                  #        DIFFERENCE BETWEEN THE PRESENT AND DESIRED STATE OF THE ERROR
002236:                                                                                                  #        COUNTERS.  A 20 MILLISECOND WAITLIST CALL IS SET FOR BEGDES
002237:                                                                                                  #        AFTER WHICH THE PROGRAM EXITS TO L+3 OF THE CALLING PROGRAM.
002238:
002239:                                                                                                  #  CALLING SEQUENCE:
002240:
002241:                                                                                                  #        FROM RRDESSM AND RRDESNB WHEN ANGLES WITHIN LIMITS.
002242:
002243:                                                                                                  #  ERASABLE INITIALIZATION REQUIRED:
002244:
002245:                                                                                                  #        RADMODES, (SEE DODES)
002246:
002247:                                                                                                  #  SUBROUTINES CALLED_
002248:
002249:                                                                                                  #        SETRRECR, WAITLIST
002250:
002251:                                                                                                  #  JOBS OR TASKS INITIATED_
002252:
002253:                                                                                                  #        BEGDES
002254:
002255:                                                                                                  #  ALARMS_  NONE
002256:
002257:                                                                                                  #  EXIT_ L+3 OF CALLING PROGRAM (SEE RRDESSM)
002258:                                                                                                  #        L+2 OF CALLING PROGRAM (SEE RRDESNB)
002259:
002260: 25,2432           25113        STARTDES           INCR     DESRET
002261: 25,2433           40110                           CS       RADMODES
002262: 25,2434           74742                           MASK     DESIGBIT
002263: 25,2435           26110                           ADS      RADMODES
002264: 25,2436           74741                           MASK     REPOSBIT                              #  SEE IF REPOSITIONING IN PROGRESS.
002265: 25,2437           10000                           CCS      A
002266: 25,2440           12446                           TCF      DESRETRN                              #  ECTR ALREADY SET UP.
002267:
002268: 25,2441           02156                           TC       SETRRECR                              #  SET UP ERROR COUNTERS.


002270: 25,2442           34752                           CAF      TWO
002271: 25,2443           05203                           TC       WAITLIST
002272: 25,2444  E7,1456                                  EBANK=   LOSCOUNT
002273: 25,2444           02573 52067                     2CADR    BEGDES
002274:
002275: 25,2446           31306        DESRETRN           CA       RADCADR                               #  FIRST PASS THRU DESIGNATE
002276: 25,2447           00006                           EXTEND
002277: 25,2450           12452                           BZF      DESRTRN                               #  YES   SET EXIT
002278: 25,2451           05155                           TC       ENDOFJOB                              #  NO
002279: 25,2452           00003        DESRTRN            RELINT
002280: 25,2453           25113                           INCR     DESRET
002281: 25,2454           31113                           CA       DESRET
002282: 25,2455           14640                           TCF      BANKJUMP
002283:
002284: 25,2456           34755        NORDSTAL           CAF      ZERO                                  #  ZERO RADCADR TO WIPE OUT ANYONE
002285: 25,2457           55306                           TS       RADCADR                               #  WAITING IN RADSTALL SINCE WE ARE NOW
002286: 25,2460           12452                           TCF      DESRTRN                               #  RETURNING TO P20 AND MAY DO NEW RADSTALL
002287:


002289:                                                                                                  #  SEE IF RRDESSM CAN BE ACCOMPLISHED AFTER A REMODE.
002290:
002291: 25,2461           02233        TRYSWS             TC       RMODINV                               #  (NOTE RUPT INHIBIT)
002292: 25,2462           04523                           TC       RRLIMCHK                              #  TRY DIFFERENT MODE.
002293: 25,2463           01111                           ADRES    MODEB
002294: 25,2464           12471                           TCF      NODESSM                               #  VEHICLE MANEUVER REQUIRED.
002295:
002296: 25,2465           02233                           TC       RMODINV                               #  RESET BIT12
002297: 25,2466           34736                           CAF      REMODBIT                              #  SET FLAG FOR REMODE.
002298: 25,2467           26110                           ADS      RADMODES
002299:
002300: 25,2470           12412                           TCF      OKDESSM
002301:
002302: 25,2471           02233        NODESSM            TC       RMODINV                               #  RE-INVERT MODE AND RETURN
002303: 25,2472           25113                           INCR     DESRET                                #  TO CALLER +2
002304: 25,2473           12456                           TCF      NORDSTAL
002305:
002306: 25,2474           00074        MAXTRYS            DEC      60         B-14
002307:


002309:                                                                                                  #  DESIGNATE TO SPECIFIC RR GIMBAL ANGLES (INDEPENDENT OF VEHICLE MOTION).  ENTER WITH DESIRED ANGLES IN
002310:                                                                                                  #  TANG AND TANG +1.
002311:
002312: 25,2475           04645        RRDESNB            TC       MAKECADR
002313: 25,2476           55113                           TS       DESRET
002314:
002315: 25,2477           05516                           TC       DOWNFLAG                              #  RESET FLAG TO PREVENT DODES FROM GOING
002316: 25,2500           00041                           ADRES    LOSCMFLG                              #  BACK TO R21
002317: 25,2501           32474                           CA       MAXTRYS                               #  SET TIME LIMIT COUNTER
002318: 25,2502           55114                           TS       DESCOUNT                              #  FOR DESIGNATE
002319: 25,2503           00004                           INHINT                                         #  SEE IF CURRENT MODE OK.
002320: 25,2504           02540                           TC       RRLIMNB                               #  DO SPECIAL V41 LIMIT CHECK
002321: 25,2505           01107                           ADRES    TANG
002322: 25,2506           12523                           TCF      TRYSWN                                #  SEE IF IN OTHER MODE.
002323:
002324: 25,2507           00003        OKDESNB            RELINT
002325: 25,2510           00006                           EXTEND
002326: 25,2511           31110                           DCA      TANG
002327: 25,2512           53753                           DXCH     TANGNB
002328: 25,2513           06037                           TC       INTPRET
002329:
002330: 25,2514           77624                           CALL                                           #  GET LOS IN NB COORDS.
002331: 25,2515           46041                                    RRNB
002332: 25,2516           01102                           STORE    RRTARGET
002333:
002334: 25,2517           77414                           SET      EXIT
002335: 25,2520           00071                                    RRNBSW
002336:
002337: 25,2521           00004                           INHINT
002338: 25,2522           12433                           TCF      STARTDES   +1
002339: 25,2523           02233        TRYSWN             TC       RMODINV                               #  SEE IF OTHER MODE WILL DO.
002340: 25,2524           02540                           TC       RRLIMNB                               #  DO SPECIAL V41 LIMIT CHECK
002341: 25,2525           01107                           ADRES    TANG
002342: 25,2526           12533                           TCF      NODESNB                               #  NOT POSSIBLE.
002343:
002344: 25,2527           02233                           TC       RMODINV
002345: 25,2530           34736                           CAF      REMODBIT                              #  CALL FOR REMODE.
002346: 25,2531           26110                           ADS      RADMODES
002347: 25,2532           12507                           TCF      OKDESNB
002348:
002349: 25,2533           02233        NODESNB            TC       RMODINV                               #  REINVERT MODE BIT.
002350: 25,2534           05567                           TC       ALARM                                 #  BAD INPUT ANGLES.
002351: 25,2535           00502                           OCT      502
002352: 25,2536           06011                           TC       CLRADMOD
002353: 25,2537           05155                           TC       ENDOFJOB                              #  AVOID 503 ALARM.
002354:
002355: 25,2540           50002        RRLIMNB            INDEX    Q                                     #  THIS ROUTINE IS IDENTICAL TO RRLIMCHK
002356: 25,2541           30000                           CAF      0                                     #  EXCEPT THAT THE MODE 1 SHAFT LOWER
002357: 25,2542           24002                           INCR     Q                                     #  LIMIT IS -85 INSTEAD OF -70 DEGREES
002358: 25,2543           00006                           EXTEND


002360: 25,2544           50000                           INDEX    A                                     #  READ GIMBAL ANGLES INTO ITEMP STORAGE
002361: 25,2545           30001                           DCA      0
002362: 25,2546           52062                           DXCH     ITEMP1
002363: 25,2547           22002                           LXCH     Q                                     #  L(CALLER +2) TO L
002364:
002365: 25,2550           34740                           CAF      ANTENBIT                              #  SEE WHICH MODE RR IS IN.
002366: 25,2551           70110                           MASK     RADMODES
002367: 25,2552           10000                           CCS      A
002368: 25,2553           14550                           TCF      MODE2CHK                              #  MODE 2 CAN USE RRLIMCHK CODING
002369: 25,2554           30061                           CA       ITEMP1
002370: 25,2555           04512                           TC       MAGSUB                                #  MODE 1 IS DEFINED AS
002371: 25,2556           66161                           DEC      -.30555                               #  1.    ABS(T) L 55 DEGS
002372: 25,2557           00001                           TC       L                                     #  2     SHAFT LIMITS AT +59, -85 DEGS
002373:
002374: 25,2560           30062                           CA       ITEMP2                                #  LOAD SHAFT ANGLE
002375: 25,2561           00006                           EXTEND
002376: 25,2562           62570                           BZMF     NEGSHAFT                              #  IF NEGATIVE SHAFT ANGLE, ADD 20.5 DEGS
002377: 25,2563           64562                           AD       5.5DEGS
002378: 25,2564           04512        SHAFTLIM           TC       MAGSUB
002379: 25,2565           64420                           DEC      -.35833                               #  64.5 DEGREES
002380: 25,2566           00001                           TC       L                                     #  NOT IN LIMITS
002381: 25,2567           04560                           TC       RRLIMOK                               #  IN LIMITS
002382: 25,2570           62572        NEGSHAFT           AD       20.5DEGS                              #  MAKE NEGATIVE SHAFT LIMIT -85 DEGREES
002383: 25,2571           12564                           TCF      SHAFTLIM
002384:
002385: 25,2572           03512        20.5DEGS           DEC      .11389
002386:


002388:                                                                                                  #  PROGRAM NAME_  BEGDES
002389:
002390:                                                                                                  #  FUNCTIONAL DESCRIPTION_
002391:
002392:                                                                                                  #        BEGDES CHECKS VARIOUS DESIGNATE REQUESTS AND REQUESTS THE
002393:                                                                                                  #        ACTUAL RR DESIGNATION.  INITIALLY A CHECK IS MADE TO SEE IF A
002394:                                                                                                  #        REMODE (RADMODES BIT 14) IS REQUESTED OR IN PROGRESS.  IF SO,
002395:                                                                                                  #        CONTROL IS TRANSFERRED TO STDESIG AFTER ROUTINE REMODE IS
002396:                                                                                                  #        EXECUTED.  IF NO REMODE, STDESIG IS IMMEDIATELY CALLED WHERE
002397:                                                                                                  #        FIRST THE REPOSITION FLAG (RADMODES BIT 11) IS CHECKED.  IF
002398:                                                                                                  #        PRESENT, THE DESIGNATE FLAG (RADMODES BIT 10) IS REMOVED
002399:                                                                                                  #        AFTER WHICH THE PROGRAM EXITS TO RDBADEND.  IF THE REPOSITION
002400:                                                                                                  #        FLAG IS NOT PRESENT, THE CONTINUOUS DESIGNATE FLAG (RADMODES
002401:                                                                                                  #        BIT 15) IS CHECKED.  IF PRESENT, ON EXECUTIVE CALL IS IMMEDIATELY
002402:                                                                                                  #        MADE FOR DODES AFTER WHICH A .5 SECOND WAIT IS INITIATED BEFORE
002403:                                                                                                  #        REPEATING AT STDESIG.  IF THE RR SEARCH ROUTINE (LRS24.1) IS DESIGNATING
002404:                                                                                                  #        TO A NEW POINT (NEWPTFLG SET) THE CURRENT DESIGNATE TASK IS TERMINATED.
002405:                                                                                                  #        IF CONTINUOUS DESIGNATE IS NOT WANTED, THE DESIGNATE FLAG (RADMODES
002406:                                                                                                  #        BIT 10) IS CHECKED.  IF NOT PRESENT, THE PROGRAM EXITS TO ENDRADAR TO
002407:                                                                                                  #        CHECK RR CDU FAIL BEFORE RETURNING TO THE CALLING PROGRAM.  IF DESIGNATE
002408:                                                                                                  #        IS STILL REQUIRED, DESCOUNT IS CHECKED TO SEE IF THE 30 SECONDS HAS
002409:                                                                                                  #        EXPIRED BEFORE RECEIVING THE RR DATA GOOD (CHAN 33 BIT 4)
002410:                                                                                                  #        SIGNAL.  IF OUT OF TIME, PROGRAM ALARM 00503 IS REQUESTED, THE
002411:                                                                                                  #        RR AUTO TRACKER ENABLE AND RR ERROR COUNTER ENABLE
002412:                                                                                                  #        (CHAN 12 BITS 14,2) BITS REMOVED, AND THE DESIGNATE FLAG
002413:                                                                                                  #        (RADMODES BIT 10) REMOVED BEFORE EXITING TO RDBADEND.  IF
002414:                                                                                                  #        TIME HAS NOT EXPIRED, DESCOUNT IS DECREMENTED, THE
002415:                                                                                                  #        EXECUTIVE CALL MADE FOR DODES, AND A .5 SECOND WAIT INITIATED
002416:                                                                                                  #        BEFORE REPEATING THIS PROCEDURE AT STDESIG.
002417:
002418:                                                                                                  #  CALLING SEQUENCE:
002419:
002420:                                                                                                  #        WAITLIST CALL FROM STARTDES
002421:                                                                                                  #        TCF BEGDES FROM DORREPOS
002422:                                                                                                  #        TC STDESIG RETURNING, FROM REMODE
002423:
002424:                                                                                                  #  ERASABLE INITIALIZATION REQUIRED:
002425:                                                                                                  #        DESCOUNT, RADMODES
002426:
002427:                                                                                                  #  SUBROUTINES CALLED_
002428:                                                                                                  #        ENDRADAR, FINDVAC
002429:
002430:                                                                                                  #  JOBS OR TASKS INITIATED_  DODES
002431:
002432:                                                                                                  #  ALARMS_  PROGRAM ALARM 00503 (30 SECONDS HAVE EXPIRED) WITH NO RR DATA
002433:                                                                                                  #  GOOD (CHAN 33 BIT 4) RECEIVED WHEN LOCK-ON (STATE BIT 5) WAS REQUESTED.
002434:
002435:                                                                                                  #  EXIT_         TASKOVER (SEARCH PATTERN DESIGNATING TO NEW POINT)
002436:                                                                                                  #                ENDRADAR (NO DESIGNATE - RADMODES BIT 10)
002437:                                                                                                  #                RDBADEND (REPOSITION OR 30 SECONDS EXPIRED)
002438:
002439: 25,2573           40110        BEGDES             CS       RADMODES


002441: 25,2574           74736                           MASK     REMODBIT
002442: 25,2575           10000                           CCS      A
002443: 25,2576           02602                           TC       STDESIG
002444: 25,2577           02171                           TC       REMODE
002445: 25,2600           05221        DESLOOP            TC       FIXDELAY                              #  2 SAMPLES PER SECOND.
002446: 25,2601           00062                           DEC      50         B-14
002447:
002448: 25,2602           34741        STDESIG            CAF      REPOSBIT
002449: 25,2603           70110                           MASK     RADMODES                              #  SEE IF GIMBAL LIMIT MONITOR HAS FOUND US
002450: 25,2604           10000                           CCS      A                                     #  OUT OF BOUNDS.  IF SO, THIS BIT SHOWS A
002451: 25,2605           12623                           TCF      BADDES                                #  REPOSITION TO BE IN PROGRESS.
002452:
002453: 25,2606           10110                           CCS      RADMODES                              #  SEE IF CONTINUOUS DESIGNATE WANTED.
002454: 25,2607           12612                           TCF      +3                                    #  IF SO, DONT CHECK BIT 10 TO SEE IF IN
002455: 25,2610           12612                           TCF      +2                                    #  LIMITS BUT GO RIGHT TO FINDVAC ENTRY.
002456: 25,2611           12630                           TCF      MOREDES    +1
002457:
002458: 25,2612           40110                           CS       RADMODES                              #  IF NON-CONTINUOUS, SEE IF END OF
002459: 25,2613           74742                           MASK     DESIGBIT                              #  PROBLEM (DATA GOOD IF LOCK-ON WANTED OR
002460: 25,2614           10000                           CCS      A                                     #  WITHIN LIMITS IF NOT).  IF SO, EXIT AFTER
002461: 25,2615           13546                           TCF      ENDRADAR                              #  CHECKING RR CDU FAIL.
002462:
002463: 25,2616           11114        STDESIG1           CCS      DESCOUNT                              #  SEE IF THE TINE LIMIT HAS EXPIRED
002464: 25,2617           12627                           TCF      MOREDES
002465:
002466: 25,2620           42635                           CS       B14+B2                                #  IF OUT OF TIME, REMOVE ECR ENABLE + TRKR
002467: 25,2621           00006                           EXTEND
002468: 25,2622           03012                           WAND     CHAN12
002469: 25,2623           44742        BADDES             CS       DESIGBIT                              #  REMOVE DESIGNATE FLAG
002470: 25,2624           70110                           MASK     RADMODES
002471: 25,2625           54110                           TS       RADMODES
002472: 25,2626           13562                           TCF      RDBADEND
002473:
002474: 25,2627           55114        MOREDES            TS       DESCOUNT
002475: 25,2630           37714                           CAF      PRIO26                                #  UPDATE GYRO TORQUE COMMANDS.
002476: 25,2631           05105                           TC       FINDVAC
002477: 25,2632  E7,1456                                  EBANK=   LOSCOUNT
002478: 25,2632           02636 52067                     2CADR    DODES
002479:
002480: 25,2634           12600                           TCF      DESLOOP
002481:
002482: 25,2635           20002        B14+B2             OCT      20002
002483:


002485:                                                                                                  #  PROGRAM NAME_  DODES
002486:
002487:                                                                                                  #  FUNCTIONAL DESCRIPTION_
002488:
002489:                                                                                                  #        DODES CALCULATES AND REQUESTS ISSUANCE OF RR GYRO TORQUE
002490:                                                                                                  #        COMMANDS.  INITIALLY THE CURRENT RR CDU ANGLES ARE STORED AND
002491:                                                                                                  #        THE LOS HALF-UNIT VECTOR TRANSFORMED FROM STABLE MEMBER TO
002492:                                                                                                  #        NAVIGATION BASE COORDINATES VIA SMNB IF NECESSARY.  THE
002493:                                                                                                  #        SHAFT AND TRUNNION COMMANDS ARE THEN CALCULATED AS FOLLOWS_
002494:                                                                                                  #                + SHAFT = LOS . (COS(S), 0, -SIN(S))  (DOT PRODUCT)
002495:                                                                                                  #                - TRUNNION = LOS . (SIN(T)SIN(S), COS(T), SIN(T)COS(S))
002496:                                                                                                  #        THE SIGN OF THE SHAFT COMMAND IS THEN REVERSED IF IN MODE 2
002497:                                                                                                  #        (RADMODES BIT 12) BECAUSE A RELAY IN THE RR REVERSES THE
002498:                                                                                                  #        POLARITY OF THE COMMAND.  AT RRSCALUP EACH COMMAND IS
002499:                                                                                                  #        SCALED AND IF EITHER, OR BOTH, OF THE COMMANDS IS GREATER THAN
002500:                                                                                                  #        .5 DEGREES, MPAC +1 IS SET POSITIVE.  IF A CONTINUOUS DESIGNATE
002501:                                                                                                  #        (RADMODES BIT 15) IS DESIRED AND THE SEARCH ROUTINE IS NOT OPERATING,
002502:                                                                                                  #        THE RR AUTO TRACKER ENABLE BIT (CHAN 12 BIT 14) IS CLEARED AND RROUT
002503:                                                                                                  #        CALLED TO PUT OUT THE COMMANDS PROVIDED NO REPOSITION (RADMODES BIT 11)
002504:                                                                                                  #        IS IN PROGRESS.  IF A CONTINUOUS DESIGNATE AND THE SEARCH ROUTINE IS
002505:                                                                                                  #        OPERATING (SRCHOPT FLAG SET) THE TRACK ENABLE IS NOT CLEARED.  IF NO
002506:                                                                                                  #        CONTINUOUS DESIGNATE AND BOTH COMMANDS ARE NOT LESS THAN .5 DEGREES AS
002507:                                                                                                  #        INDICATED BY MPAC +1, THE RR AUTO TRACKER ENABLE BIT (CHAN 12 BIT 14) IS
002508:                                                                                                  #        CLEARED AND RROUT CALLED TO PUT OUT THE COMMANDS PROVIDED NO REPOSITION
002509:                                                                                                  #        (RADMODES BIT 11) IS IN PROGRESS.  IF BOTH COMMANDS ARE LESS THAN .5
002510:                                                                                                  #        DEGREES AS INDICATED BY MPAC+1, THE RR AUTO TRACKER ENABLE BIT
002511:                                                                                                  #        (CHAN 12 BIT 14) IS CLEARED AND RROUT CALLED TO PUT OUT THE
002512:                                                                                                  #        COMMANDS PROVIDED NO REPOSITION (RADMODES BIT 11) IS IN
002513:                                                                                                  #        PROGRESS.  IF BOTH COMMANDS ARE LESS THAN .5 DEGREES, THE
002514:                                                                                                  #        LOCK-ON FLAG (STATE BIT 5) IS CHECKED.  IF NOT PRESENT, THE
002515:                                                                                                  #        DESIGNATE FLAG (RADMODES BIT 10) IS CLEARED, THE RR ERROR
002516:                                                                                                  #        COUNTER ENABLE BIT (CHAN 12 BIT 2) IS CLEARED, AND ENDOFJOB
002517:                                                                                                  #        CALLED. IF LOCK-ON IS DESIRED, THE RR AUTO TRACKER (CHAN 12
002518:                                                                                                  #        BIT 14) IS ENABLED FOLLOWED BY A CHECK OF THE RECEIPT OF THE
002519:                                                                                                  #        RR DATA GOOD (CHAN 33 BIT 4) SIGNAL.  IF RR DATA GOOD
002520:                                                                                                  #        PRESENT, THE DESIGNATE FLAG (RADMODES BIT 10) IS CLEARED,
002521:                                                                                                  #        THE RR ERROR COUNTER ENABLE BIT (CHAN 12 BIT 2) IS CLEARED,
002522:                                                                                                  #        AND ENDOFJOB CALLED.  IF RR DATA GOOD IS NOT PRESENT, RROUT
002523:                                                                                                  #        IS CALLED TO PUT OUT THE COMMANDS PROVIDED NO REPOSITION
002524:                                                                                                  #        (RADMODES BIT 11) IS IN PROGRESS AFTER WHICH THE JOB IS TERMINATED
002525:                                                                                                  #        VIA ENDOFJOB.
002526:
002527:                                                                                                  #  CALLING SEQUENCE:
002528:
002529:                                                                                                  #        EXECUTIVE CALL EVERY .5 SECONDS FROM BEGDES.
002530:
002531:                                                                                                  #  ERASABLE INITIALIZATION REQUIRED:
002532:
002533:                                                                                                  #        RRTARGET (HALF-UNIT LOS VECTOR IN EITHER SM OR NB COORDINATES),
002534:                                                                                                  #        LOKONSW (STATE BIT 5), RRNBSW (STATE BIT 6), RADMODES
002535:
002536:                                                                                                  #  SUBROUTINES CALLED_
002537:
002538:                                                                                                  #        READCDUS, SMNB, CDULOGIC, MAGSUB, RROUT


002540:
002541:                                                                                                  #  JOBS OR TASKS INITIATED_
002542:
002543:                                                                                                  #        NONE
002544:
002545:                                                                                                  #  ALARMS_  NONE
002546:
002547:                                                                                                  #  EXIT_  ENDOFJOB (ALWAYS)
002548:
002549: 25,2636           00006        DODES              EXTEND
002550: 25,2637           30036                           DCA      CDUT
002551: 25,2640           53110                           DXCH     TANG
002552:
002553: 25,2641           06037                           TC       INTPRET
002554:
002555: 25,2642           77201                           SETPD    VLOAD
002556: 25,2643           00001                                    0
002557: 25,2644           01102                                    RRTARGET
002558: 25,2645           74214                           BON      VXSC
002559: 25,2646           00311                                    RRNBSW
002560: 25,2647           52661                                    DONBRD                                #  TARGET IN NAV-BASE COORDINATES
002561: 25,2650           01767                                    MLOSV                                 #  MULTIPLY UNIT LOS BY MAGNITUDE
002562: 25,2651           63372                           VSL1     PDVL
002563: 25,2652           01761                                    LOSVEL
002564: 25,2653           53361                           VXSC     VAD                                   #  ADD ONE SECOND RELATIVE VELOCITY TO LOS
002565: 25,2654           13072                                    MCTOMS
002566: 25,2655           45056                           UNIT     CALL
002567: 25,2656           47537                                    CDUTRIG
002568: 25,2657           77624                           CALL
002569: 25,2660           47671                                    *SMNB*
002570:
002571: 25,2661           14041        DONBRD             STODL    32D
002572: 25,2662           01111                                    TANG       +1
002573: 25,2663           41434                           RTB      PUSH                                  #  SHAFT COMMAND = V(32D).(COS(S), 0,
002574: 25,2664           21576                                    CDULOGIC                              #        (-SIN(S)).
002575: 25,2665           65356                           SIN      PDDL                                  #  SIN(S) TO 0 AND COS(S) TO 2.
002576: 25,2666           41546                           COS      PUSH
002577: 25,2667           65205                           DMP      PDDL
002578: 25,2670           00041                                    32D
002579: 25,2671           00045                                    36D
002580: 25,2672           44205                           DMP      BDSU
002581: 25,2673           00001                                    0
002582: 25,2674           77626                           STADR
002583: 25,2675           76666                           STORE    TANG       +1                         #  SHAFT COMMAND
002584:
002585: 25,2676           47135                           SLOAD    RTB
002586: 25,2677           01110                                    TANG
002587: 25,2700           21576                                    CDULOGIC
002588: 25,2701           71406                           PUSH     COS                                   #  COS(T) TO 4.
002589: 25,2702           73525                           PDDL     SIN
002590: 25,2703           41206                           PUSH     DMP                                   #  SIN(T) TO 6.
002591: 25,2704           00003                                    2


002593: 25,2705           65352                           SL1      PDDL                                  #  DEFINE VECTOR U =     (SIN(T)SIN(S))
002594: 25,2706           00005                                    4                                     #                        (   COS(T)   )
002595: 25,2707           41325                           PDDL     DMP                                   #                        (SIN(T)COS(S))
002596: 25,2710           00007                                    6
002597: 25,2711           00001                                    0
002598: 25,2712           55552                           SL1      VDEF
002599: 25,2713           77441                           DOT      EXIT                                  #  DOT U WITH LOS TO GET TRUNNION COMMAND.
002600: 25,2714           00041                                    32D
002601:


002603:                                                                                                  #  AT THIS POINT WE HAVE A ROTATION VECTOR IN DISH AXES LYING IN THE TS PLANE.  CONVERT THIS TO A
002604:                                                                                                  #  COMMANDED RATE AND ENABLE THE TRACKER IF WE ARE WITHIN .5 DEGREES OF THE TARGET.
002605:
002606: 25,2715           40154                           CS       MPAC                                  #  DOT WAS NEGATIVE OF DESIRED ANGLE.
002607: 25,2716           00006                           EXTEND
002608: 25,2717           73066                           MP       RDESGAIN                              #  SCALING ON INPUT ANGLE WAS 4 RADIANS.
002609: 25,2720           55107                           TS       TANG                                  #  TRUNNION COMMAND.
002610: 25,2721           40110                           CS       RADMODES                              #  A RELAY IN THE RR REVERSES POLARITY OF
002611: 25,2722           74740                           MASK     BIT12                                 #  THE SHAFT COMMANDS IN MODE 2 SO THAT A
002612: 25,2723           00006                           EXTEND                                         #  POSITIVE TORQUE APPLIED TO THE SHAFT
002613: 25,2724           12727                           BZF      +3                                    #  GYRO CAUSES A POSITIVE CHANGE IN THE
002614: 25,2725           31110                           CA       TANG       +1                         #  SHAFT ANGLE.  COMPENSATE FOR THIS SWITCH
002615: 25,2726           12730                           TCF      +2                                    #  BY CHANGING THE POLARITY OF OUR COMMAND.
002616: 25,2727           41110                 +3        CS       TANG       +1
002617: 25,2730           00006                           EXTEND
002618: 25,2731           73066                           MP       RDESGAIN                              #  SCALING ON INPUT ANGLE WAS 4 RADIANS.
002619: 25,2732           55110                           TS       TANG       +1                         #  SHAFT COMMAND.
002620: 25,2733           06037                           TC       INTPRET
002621:
002622: 25,2734           41345                           DLOAD    DMP
002623: 25,2735           00003                                    2                                     #  COS(S).
002624: 25,2736           00005                                    4                                     #  COS(T).
002625: 25,2737           65352                           SL1      PDDL                                  #  Z COMPONENT OF URR.
002626: 25,2740           65276                           DCOMP    PDDL                                  #  Y COMPONENT = -SIN(T).
002627: 25,2741           00001                                    0                                     #  SIN(S).
002628: 25,2742           72405                           DMP      SL1
002629: 25,2743           00005                                    4                                     #  COS(T).
002630: 25,2744           43066                           VDEF     BON                                   #  FORM URR IN NB AXES.
002631: 25,2745           00311                                    RRNBSW                                #  BYPASS NBSM CONVERSION IN VERB 41.
002632: 25,2746           52751                                    +3
002633: 25,2747           77624                           CALL
002634: 25,2750           47673                                    *NBSM*                                #  GET URR IN SM AXES.
002635: 25,2751           77441                           DOT      EXIT
002636: 25,2752           01102                                    RRTARGET                              #  GET COSINE OF ANGLE BETWEEN RR AND LOS.
002637:
002638: 25,2753           00006                           EXTEND
002639: 25,2754           43070                           DCS      COS1/2DG
002640: 25,2755           20155                           DAS      MPAC                                  #  DIFFERENCE OF COSINES, SCALED B-2.
002641: 25,2756           10154                           CCS      MPAC
002642: 25,2757           34755                           CA       ZERO                                  #  IF COS ERROR BIGGER, ERROR IS SMALLER.
002643: 25,2760           12762                           TCF      +2
002644: 25,2761           34753                           CA       ONE
002645: 25,2762           54155                           TS       MPAC       +1                         #  ZERO IF RR IS POINTED OK, ONE IF NOT.


002647:                                                                                                  #  SEE IF TRACKER SHOULD BE ENABLED OR DISABLED.
002648:
002649: 25,2763           10110                           CCS      RADMODES                              #  IF CONTINUOUS DESIGNATE WANTED, PUT OUT
002650: 25,2764           12767                           TCF      SIGNLCHK                              #  COMMANDS WITHOUT CHECKING MAGNITUDE OF
002651: 25,2765           12767                           TCF      SIGNLCHK                              #  ERROR SIGNALS
002652: 25,2766           13017                           TCF      DORROUT
002653: 25,2767           10155        SIGNLCHK           CCS      MPAC       +1                         #  SEE IF BOTH AXES WERE WITHIN .5 DEGS.
002654: 25,2770           13000                           TCF      DGOODCHK
002655: 25,2771           40074                           CS       STATE                                 #  IF WITHIN LIMITS AND NO LOCK-ON WANTED,
002656: 25,2772           74747                           MASK     LOKONBIT                              #  PROBLEM IS FINISHED.
002657: 25,2773           10000                           CCS      A
002658: 25,2774           13005                           TCF      RRDESDUN
002659:
002660: 25,2775           34736                           CAF      BIT14                                 #  ENABLE THE TRACKER.
002661: 25,2776           00006                           EXTEND
002662: 25,2777           05012                           WOR      CHAN12
002663:
002664: 25,3000           34750        DGOODCHK           CAF      BIT4                                  #  SEE IF DATA GOOD RECEIVED YET
002665: 25,3001           00006                           EXTEND
002666: 25,3002           02033                           RAND     CHAN33
002667: 25,3003           10000                           CCS      A
002668: 25,3004           13017                           TCF      DORROUT
002669:
002670: 25,3005           44742        RRDESDUN           CS       BIT10                                 #  WHEN PROBLEM DONE, REMOVE BIT 10 SO NEXT
002671: 25,3006           70110                           MASK     RADMODES                              #  WAITLIST TASK WE WILL GO TO RGOODEND.
002672: 25,3007           00004                           INHINT
002673: 25,3010           54110                           TS       RADMODES
002674:
002675: 25,3011           05516                           TC       DOWNFLAG                              #  RESET LOSCMFLG TO PREVENT A
002676: 25,3012           00041                           ADRES    LOSCMFLG                              #  RECOMPUTATION OF LOS AFTER DATA GOOD
002677: 25,3013           44752                           CS       BIT2                                  #  TURN OFF ENABLE RR ERROR COUNTER
002678: 25,3014           00006                           EXTEND
002679: 25,3015           03012                           WAND     CHAN12
002680: 25,3016           15155                           TCF      ENDOFJOB                              #  WITH ECTR DISABLED.
002681:
002682: 25,3017           30076        DORROUT            CA       FLAGWRD2                              #  IF BOTH LOSCMFLAG AND SEARCH FLAG ARE
002683: 25,3020           77712                           MASK     BIT12,14                              #  ZERO, BYPASS VELOCITY ADJUSTMENT TO LOS
002684: 25,3021           00006                           EXTEND
002685: 25,3022           13041                           BZF      NOTP20
002686: 25,3023           06037                           TC       INTPRET
002687: 25,3024           74375                           VLOAD    VXSC                                  #  MULTIPLY UNIT LOS BY MAGNITUDE
002688: 25,3025           01102                                    RRTARGET
002689: 25,3026           01767                                    MLOSV
002690: 25,3027           41572                           VSL1     PUSH
002691: 25,3030           74375                           VLOAD    VXSC                                  #  ADD .5 SEC. OF VELOCITY
002692: 25,3031           01761                                    LOSVEL                                #  TO LOS VECTOR
002693: 25,3032           13072                                    MCTOMS
002694: 25,3033           53362                           VSR1     VAD
002695: 25,3034           77656                           UNIT
002696: 25,3035           15102                           STODL    RRTARGET                              #  STORE VELOCITY-CORRECTED LOS (UNIT)


002698: 25,3036           00045                                    36D
002699: 25,3037           01767                           STORE    MLOSV                                 #  AND STORE MAGNITUDE
002700: 25,3040           77776                           EXIT
002701: 25,3041           00004        NOTP20             INHINT
002702: 25,3042           40110                           CS       RADMODES                              #  PUT OUT COMMAND UNLESS MONITOR
002703: 25,3043           74741                           MASK     REPOSBIT                              #  REPOSITION HAS TAKEN OVER.
002704: 25,3044           10000                           CCS      A
002705: 25,3045           02306                           TC       RROUT
002706:
002707: 25,3046           30076                           CA       FLAGWRD2
002708: 25,3047           74740                           MASK     LOSCMBIT                              #  IF LOSCMFLG NOT SET, DON'T TEST
002709: 25,3050           00006                           EXTEND                                         #  LOS COUNTER
002710: 25,3051           15155                           BZF      ENDOFJOB
002711: 25,3052           11456                           CCS      LOSCOUNT                              #  TEST LOS COUNTER TO SEE IF TIME TO GET
002712: 25,3053           03064                           TC       DODESEND                              #  A NEW LOS
002713: 25,3054           00004                           INHINT
002714: 25,3055           06027                           TC       KILLTASK                              #  YES - KILL TASK WHICH SCHEDULES DODES
002715: 25,3056           52602                           CADR     DESLOOP    +2
002716: 25,3057           00003                           RELINT
002717: 25,3060           10067                           CCS      NEWJOB
002718: 25,3061           05122                           TC       CHANG1
002719: 25,3062           04616                           TC       BANKCALL
002720: 25,3063           50731                           CADR     R21LEM2
002721:
002722: 25,3064           55456        DODESEND           TS       LOSCOUNT
002723: 25,3065           05155                           TC       ENDOFJOB
002724:
002725: 25,3066           21122        RDESGAIN           DEC      .53624                                #  TRIES TO NULL .5 ERROR IN .5 SEC.
002726: 25,3067     7712               BIT12,14           EQUALS   PRIO24                                #  OCT 24000
002727: 25,3067           07777 33005  COS1/2DG           2DEC     .999961923 B-2                        #  COSINE OF 0.5 DEGREES.
002728: 25,3071           00310 00000  MCTOMS             2DEC     100        B-13
002729:


002731:                                                                                                  #  RADAR READ INITIALIZATION
002732:
002733:                                                                                                  #  RADAR DATA ARE READ BY A BANKCALL FOR THE APPROPRIATE LEAD-IN BELOW.
002734:
002735: 25,3073           03113        LRALT              TC       INITREAD   -1                         #  ONE SAMPLE PER READING.
002736: 25,3074           00017        ALLREAD            OCT      17
002737:
002738: 25,3075           03114        LRVELZ             TC       INITREAD
002739: 25,3076           00016                           OCT      16
002740:
002741: 25,3077           03114        LRVELY             TC       INITREAD
002742: 25,3100           00015                           OCT      15
002743:
002744: 25,3101           03114        LRVELX             TC       INITREAD
002745: 25,3102           00014                           OCT      14
002746:
002747: 25,3103           03113        RRRDOT             TC       INITREAD   -1
002748: 25,3104           00012                           OCT      12
002749:
002750: 25,3105           03113        RRRANGE            TC       INITREAD   -1
002751: 25,3106           00011                           OCT      11
002752:
002753:                                                                                                  #  LRVEL IS THE ENTRY TO THE LR VELOCITY READ ROUTINE WHEN 5 SAMPLES ARE
002754:                                                                                                  #  WANTED.  ENTER WITH C(A)= 0,2,4 FOR LRVELZ,LRVELY,LRVELX RESP.
002755:
002756: 25,3107           55105        LRVEL              TS       TIMEHOLD                              #  STORE VBEAM INDEX HERE MOMEMTARILY
002757: 25,3110           34756                           CAF      FIVE                                  #  SPECIFY FIVE SAMPLES
002758: 25,3111           51105                           INDEX    TIMEHOLD
002759: 25,3112           13075                           TCF      LRVELZ
002760:


002762: 25,3113           34753                 -1        CAF      ONE                                   #  ENTRY TO TAKE ONLY 1 SAMPLE.
002763: 25,3114           00004        INITREAD           INHINT
002764:
002765: 25,3115           55105                           TS       TIMEHOLD                              #  GET DT OF MIDPOINT OF NOMINAL SAMPLING
002766: 25,3116           00006                           EXTEND                                         #  INTERVAL (ASSUMES NO BAD SAMPLES WILL BE
002767: 25,3117           74751                           MP       BIT3                                  #  ENCOUNTERED).
002768: 25,3120           53106                           DXCH     TIMEHOLD
002769:
002770: 25,3121           10000                           CCS      A
002771: 25,3122           55111                           TS       NSAMP
002772: 25,3123           64753                           AD       ONE
002773:                                                                                                  #  INSERT FOLLOWING INSTRUCTION TO GET 2N TRIES FOR N SAMPLES.
002774:                                                                                                  #                DOUBLE
002775: 25,3124           55100                           TS       SAMPLIM
002776:
002777: 25,3125           33147                           CAF      DGBITS                                #  READ CURRENT VALUE OF DATA GOOD BITS.
002778: 25,3126           00006                           EXTEND
002779: 25,3127           02033                           RAND     CHAN33
002780: 25,3130           55113                           TS       OLDATAGD
002781:
002782: 25,3131           43074                           CS       ALLREAD
002783: 25,3132           00006                           EXTEND
002784: 25,3133           03013                           WAND     CHAN13                                #  REMOVE ALL RADAR BITS
002785:
002786: 25,3134           50002                           INDEX    Q
002787: 25,3135           30000                           CAF      0
002788: 25,3136           00006                           EXTEND
002789: 25,3137           05013                           WOR      CHAN13                                #  SET NEW RADAR BITS
002790:
002791: 25,3140           00006                           EXTEND
002792: 25,3141           30025                           DCA      TIME2
002793: 25,3142           21106                           DAS      TIMEHOLD                              #  TIME OF NOMINAL MIDPOINT.
002794:
002795: 25,3143           34755                           CAF      ZERO
002796: 25,3144           54001                           TS       L
002797: 25,3145           53102                           DXCH     SAMPLSUM
002798: 25,3146           12366                           TCF      ROADBACK
002799:
002800: 25,3147           00230        DGBITS             OCT      230
002801:


002803:                                                                                                  #  RADAR RUPT READER
002804:
002805:                                                                                                  #  THIS ROUTINE STARTS FROM A RADARUPT.  IT READS THE DATA $ LOTS MORE.
002806:
002807: 25,2000                                           SETLOC   RADARUPT
002808: 25,2000                                           BANK
002809:
002810: 25,3150                                           COUNT*   $$/RRUPT
002811: 25,3150           00006        RADAREAD           EXTEND                                         #  MUST SAVE SBANK BECAUSE OF RUPT EXITS
002812: 25,3151           04007                           ROR      SUPERBNK                              #  VIA TASKOVER (BADEND OR GOODEND.
002813: 25,3152           54016                           TS       BANKRUPT
002814: 25,3153           00006                           EXTEND
002815: 25,3154           22012                           QXCH     QRUPT
002816:
002817: 25,3155           34757                           CAF      SEVEN
002818: 25,3156           00006                           EXTEND
002819: 25,3157           02013                           RAND     CHAN13
002820: 25,3160           55335                           TS       DNINDEX
002821: 25,3161           00006                           EXTEND                                         #  IF RADAR SELECT BITS ZERO, DO NOT STORE
002822: 25,3162           13166                           BZF      TRYCOUNT                              #  DATA FOR DOWNLIST (ERASABLE PROBLEMS)
002823: 25,3163           30046                           CA       RNRAD
002824: 25,3164           51335                           INDEX    DNINDEX
002825: 25,3165           55332                           TS       DNRRANGE   -1
002826: 25,3166           11100        TRYCOUNT           CCS      SAMPLIM
002827: 25,3167           13211                           TCF      PLENTY
002828: 25,3170           13174                           TCF      NOMORE
002829: 25,3171           05567                           TC       ALARM
002830: 25,3172           00520                           OCT      520
002831: 25,3173           05270                           TC       RESUME
002832:
002833: 25,3174           30107        NOMORE             CA       FLGWRD11                              #  IS LRBYPASS SET?
002834: 25,3175           74735                           MASK     LRBYBIT
002835: 25,3176           00006                           EXTEND
002836: 25,3177           13206                           BZF      BADRAD                                #  NO.  R12 IS ON -- BYPASS 521 ALARM.
002837:
002838: 25,3200           40077                           CS       FLAGWRD3                              #  CHECK R04FLAG.
002839: 25,3201           74743                           MASK     R04FLBIT                              #  IF 1, R04 IS RUNNING.  DO NOT ALARM-
002840: 25,3202           00006                           EXTEND
002841: 25,3203           13206                           BZF      BADRAD
002842:
002843: 25,3204           05567                           TC       ALARM                                 #  P20 WANTS THE ALARM.
002844: 25,3205           00521                           OCT      521
002845: 25,3206           44753        BADRAD             CS       ONE
002846: 25,3207           55100                           TS       SAMPLIM
002847: 25,3210           03560                           TC       RDBADEND   -2
002848: 25,3211           55100        PLENTY             TS       SAMPLIM
002849: 25,3212           34751                           CAF      BIT3
002850: 25,3213           00006                           EXTEND
002851: 25,3214           02013                           RAND     CHAN13                                #  TO FIND OUT WHICH RADAR
002852: 25,3215           00006                           EXTEND


002854: 25,3216           13276                           BZF      RENDRAD
002855:
002856: 25,3217           03364                           TC       R77CHECK                              #  R77 QUITS HERE.
002857: 25,3220           30110        LRPOSCHK           CA       RADMODES                              #  SEE IF LR IN DESIRED POSITION.
002858: 25,3221           00006                           EXTEND
002859: 25,3222           06033                           RXOR     CHAN33
002860: 25,3223           74746                           MASK     BIT6
002861: 25,3224           00006                           EXTEND
002862: 25,3225           13231                           BZF      VELCHK
002863:
002864: 25,3226           05567                           TC       ALARM
002865: 25,3227           00522                           OCT      522
002866: 25,3230           03206                           TC       BADRAD
002867:
002868: 25,3231           36245        VELCHK             CAF      BIN3                                  #  = 00003 OCT
002869: 25,3232           00006                           EXTEND
002870: 25,3233           06013                           RXOR     CHAN13                                #  RESET ACTIVITY BIT
002871: 25,3234           76245                           MASK     BIN3
002872: 25,3235           00006                           EXTEND
002873: 25,3236           13272                           BZF      LRHEIGHT                              #  TAKE A LR RANGE READING
002874:
002875: 25,3237           34733                           CAF      POSMAX
002876: 25,3240           70046                           MASK     RNRAD
002877: 25,3241           62000                           AD       LVELBIAS
002878: 25,3242           54001                           TS       L
002879: 25,3243           30046                           CAE      RNRAD
002880: 25,3244           60000                           DOUBLE
002881: 25,3245           74753                           MASK     BIT1
002882: 25,3246           52064                           DXCH     ITEMP3
002883:
002884: 25,3247           34744                           CAF      BIT8                                  #  DATA GOOD ISNT CHECKED UNTIL AFTER READ-
002885: 25,3250           03442                           TC       DGCHECK                               #  ING DATA SO SOME RADAR TESTS WILL WORK
002886:                                                                                                  #  INDEPENDENT OF DATA GOOD.
002887:
002888: 25,3251           11111                           CCS      NSAMP
002889: 25,3252           03262                           TC       NOEND
002890: 25,3253           44753        GOODRAD            CS       ONE
002891: 25,3254           55100                           TS       SAMPLIM
002892: 25,3255           40061                           CS       ITEMP1                                #  WHEN ENOUGH GOOD DATA HAS BEEN GATHERED,
002893: 25,3256           70110                           MASK     RADMODES                              #  RESET DATA FAIL FLAGS FOR SETTRKF.
002894: 25,3257           54110                           TS       RADMODES
002895: 25,3260           03616                           TC       RADLITES                              #  LAMPS MAY GO OFF IF DATA JUST GOOD.
002896: 25,3261           03553                           TC       RGOODEND   -2
002897:
002898: 25,3262           55111        NOEND              TS       NSAMP
002899: 25,3263           11100        RESAMPLE           CCS      SAMPLIM                               #  SEE IF ANY MORE TRIES SHOULD BE MADE.
002900: 25,3264           13266                           TCF      +2
002901: 25,3265           13461                           TCF      DATAFAIL                              #  N SAMPLES NOT AVAILABLE.
002902: 25,3266           34750                           CAF      BIT4                                  #  RESET ACTIVITY BIT.
002903: 25,3267           00006                           EXTEND


002905: 25,3270           05013                           WOR      CHAN13                                #  RESET ACTIVITY BIT
002906: 25,3271           05270                           TC       RESUME
002907:
002908:
002909: 25,3272           34747        LRHEIGHT           CAF      BIT5
002910: 25,3273           54061                           TS       ITEMP1                                #  (POSITION OF DATA GOOD BIT IN CHAN 33)
002911:
002912: 25,3274           34743                           CAF      BIT9
002913: 25,3275           03320                           TC       SCALECHK   -1
002914:
002915: 25,3276           34741        RENDRAD            CAF      REPOSBIT                              #  MAKE SURE ANTENNA HAS NOT GONE OUT OF
002916: 25,3277           70110                           MASK     RADMODES                              #  LIMITS.
002917: 25,3300           10000                           CCS      A
002918: 25,3301           13206                           TCF      BADRAD
002919:
002920: 25,3302           40110                           CS       RADMODES                              #  BE SURE RR CDU HASNT FAILED.
002921: 25,3303           74745                           MASK     RCDUFBIT
002922: 25,3304           10000                           CCS      A
002923: 25,3305           13206                           TCF      BADRAD
002924:
002925: 25,3306           34750                           CAF      BIT4                                  #  SEE IF DATA HAS BEEN GOOD.
002926: 25,3307           54061                           TS       ITEMP1                                #  (POSITION OF DATA GOOD BIT IN CHAN 33)
002927:
002928: 25,3310           34753                           CAF      BIT1                                  #  SEE IF RR RDOT.
002929: 25,3311           00006                           EXTEND
002930: 25,3312           02013                           RAND     CHAN13
002931: 25,3313           54002                           TS       Q                                     #  FOR LATER TESTING.
002932: 25,3314           10000                           CCS      A
002933: 25,3315           13317                           TCF      +2
002934: 25,3316           13331                           TCF      RADIN                                 #  NO SCALE CHECK FOR RR RDOT.
002935: 25,3317           34751                           CAF      BIT3
002936: 25,3320           54001                           TS       L
002937:
002938: 25,3321           00006        SCALECHK           EXTEND
002939: 25,3322           02033                           RAND     CHAN33                                #  SCALE STATUS NOW
002940: 25,3323           56001                           XCH      L
002941: 25,3324           70110                           MASK     RADMODES                              #  SCALE STATUS BEFORE
002942: 25,3325           00006                           EXTEND
002943: 25,3326           06001                           RXOR     LCHAN                                 #  SEE IF THEY DIFFER
002944: 25,3327           10000                           CCS      A
002945: 25,3330           03350                           TC       SCALCHNG                              #  THEY DIFFER
002946:
002947: 25,3331           34733        RADIN              CAF      POSMAX
002948: 25,3332           70046                           MASK     RNRAD
002949: 25,3333           54064                           TS       ITEMP4
002950:
002951: 25,3334           30046                           CAE      RNRAD
002952: 25,3335           60000                           DOUBLE
002953: 25,3336           74753                           MASK     BIT1
002954: 25,3337           54063                           TS       ITEMP3


002956: 25,3340           10002                           CCS      Q                                     #  SEE IF RR RDOT.
002957: 25,3341           13402                           TCF      SCALADJ                               #  NO, BUT SCALE CHANGING MAY BE NEEDED.
002958:
002959: 25,3342           00006                           EXTEND                                         #  IF RR RANGE RATE, THROW OUT BIAS.
002960: 25,3343           42002                           DCS      RDOTBIAS
002961: 25,3344           20064        DASAMPL            DAS      ITEMP3
002962: 25,3345           30061        DGCHECK2           CA       ITEMP1                                #  SEE THAT DATA HAS BEEN GOOD BEFORE AND
002963: 25,3346           03443                           TC       DGCHECK    +1                         #  AFTER TAKING SAMPLE.
002964: 25,3347           03253                           TC       GOODRAD
002965:
002966: 25,3350           22110        SCALCHNG           LXCH     RADMODES
002967: 25,3351           64753                           AD       BIT1
002968: 25,3352           00006                           EXTEND
002969: 25,3353           06001                           RXOR     LCHAN
002970: 25,3354           54110                           TS       RADMODES
002971: 25,3355           33147                           CAF      DGBITS                                #  UPDATE LAST VALUE OF DATA GOOD BITS.
002972: 25,3356           00006                           EXTEND
002973: 25,3357           02033                           RAND     CHAN33
002974: 25,3360           55113                           TS       OLDATAGD
002975: 25,3361           05504                           TC       UPFLAG                                #  SET RNGSCFLG
002976: 25,3362           00120                           ADRES    RNGSCFLG                              #  FOR LRS24.1
002977: 25,3363           13206                           TCF      BADRAD
002978:
002979:                                                                                                  #  R77 MUST IGNORE DATA FAILS SO AS NOT TO DISTURB THE ASTRONAUT.
002980:
002981: 25,3364           40101        R77CHECK           CS       FLAGWRD5
002982: 25,3365           74741                           MASK     R77FLBIT
002983: 25,3366           10000                           CCS      A
002984: 25,3367           00002                           TC       Q                                     #  NOT R77
002985: 25,3370           43401                           CS       BITS5,8                               #  UPDATE LR DATA GOOD BITS IN RADMODES
002986: 25,3371           70110                           MASK     RADMODES
002987: 25,3372           54001                           TS       L
002988: 25,3373           33401                           CA       BITS5,8
002989: 25,3374           00006                           EXTEND
002990: 25,3375           02033                           RAND     CHAN33
002991: 25,3376           60001                           AD       L
002992: 25,3377           54110                           TS       RADMODES
002993: 25,3400           03553                           TC       RGOODEND   -2
002994: 25,3401           00220        BITS5,8            OCT      220
002995:


002997:                                                                                                  #  THE FOLLOWING ROUTINE INCORPORATES RR RANGE AND LR ALT SCALE INFORMATION AND LEAVES DATA AT LO SCALE.
002998:
002999: 25,3402           10001        SCALADJ            CCS      L                                     #  L HAS SCALE INBIT FOR THIS RADAR.
003000: 25,3403           13405                           TCF      +2                                    #  ON HIGH SCALE.
003001: 25,3404           13345                           TCF      DGCHECK2
003002:
003003: 25,3405           31335                           CA       DNINDEX
003004: 25,3406           74751                           MASK     BIT3
003005: 25,3407           10000                           CCS      A
003006: 25,3410           13417                           TCF      LRSCK
003007:
003008: 25,3411           52064                           DXCH     ITEMP3
003009: 25,3412           20001                           DDOUBL
003010: 25,3413           20001                           DDOUBL
003011: 25,3414           20001                           DDOUBL
003012: 25,3415           52064                           DXCH     ITEMP3
003013:
003014: 25,3416           13345                           TCF      DGCHECK2
003015:
003016: 25,3417           10063        LRSCK              CCS      ITEMP3
003017: 25,3420           13431                           TCF      +11
003018: 25,3421           40064                           CS       ITEMP4
003019: 25,3422           63441                           AD       HISCALIM
003020: 25,3423           00006                           EXTEND
003021: 25,3424           63431                           BZMF     +5
003022:
003023: 25,3425           40107                           CS       FLGWRD11
003024: 25,3426           74751                           MASK     SCABBIT
003025: 25,3427           26107                           ADS      FLGWRD11
003026: 25,3430           13434                           TCF      +4
003027:
003028: 25,3431           44751                           CS       SCABBIT
003029: 25,3432           70107                           MASK     FLGWRD11
003030: 25,3433           54107                           TS       FLGWRD11
003031:
003032: 25,3434           00006                           EXTEND
003033: 25,3435           30064                           DCA      ITEMP3
003034: 25,3436           20001                           DDOUBL
003035: 25,3437           20001                           DDOUBL
003036: 25,3440           13344                           TCF      DASAMPL
003037:
003038: 25,3441           00714        HISCALIM           DEC      460        B-14                       #  2481.7 FT *****************************


003040: 25,3442           54061        DGCHECK            TS       ITEMP1                                #  UPDATE DATA GOOD BIT IN OLDATAGD AND
003041: 25,3443           00006                           EXTEND                                         #  MAKE SURE IT WAS ON BEFORE AND AFTER THE
003042: 25,3444           02033                           RAND     CHAN33                                #  SAMPLE WAS TAKEN BEFORE RETURNING.  IF
003043: 25,3445           54001                           TS       L                                     #  NOT, GOES TO RESAMPLE TO TRY AGAIN.  IF
003044: 25,3446           40061                           CS       ITEMP1                                #  MAX NUMBER OF TRIES HAS BEEN REACHED,
003045: 25,3447           71113                           MASK     OLDATAGD                              #  THE BIT CORRESPONDING TO THE DATA GOOD
003046: 25,3450           60001                           AD       L                                     #  WHICH FAILED TO APPEAR IS IN ITEMP1 AND
003047: 25,3451           57113                           XCH      OLDATAGD                              #  CAN BE USED TO SET RADMODES WHICH VIA
003048: 25,3452           70061                           MASK     ITEMP1                                #  SETTRKF SETS THE TRACKER FAIL LAMP.
003049: 25,3453           60001                           AD       L
003050: 25,3454           10000                           CCS      A                                     #  SHOULD BOTH BE ZERO.
003051: 25,3455           03263                           TC       RESAMPLE
003052: 25,3456           52064                           DXCH     ITEMP3                                #  IF DATA GOOD BEFORE AND AFTER, ADD TO
003053: 25,3457           21102                           DAS      SAMPLSUM                              #  ACCUMULATION.
003054: 25,3460           00002                           TC       Q
003055:
003056: 25,3461           40061        DATAFAIL           CS       ITEMP1                                #  IN THE ABOVE CASE, SET RADMODES BIT
003057: 25,3462           70110                           MASK     RADMODES                              #  SHOWING SOME RADAR DATA FAILED.
003058: 25,3463           60061                           AD       ITEMP1
003059: 25,3464           54110                           TS       RADMODES
003060:
003061: 25,3465           52064                           DXCH     ITEMP3                                #  IF WE HAVE BEEN UNABLE TO GATHER N
003062: 25,3466           53102                           DXCH     SAMPLSUM                              #  SAMPLES, USE LAST ONE ONLY.
003063: 25,3467           03616                           TC       RADLITES
003064: 25,3470           13174                           TCF      NOMORE


003066:                                                                                                  #  THIS ROUTINE CHANGES THE LR POSITION, AND CHECKS THAT IT GOT THERE.
003067:
003068: 25,2000                                           SETLOC   P20S1
003069: 25,2000                                           BANK
003070:
003071: 25,3471                                           COUNT*   $$/RSUB
003072: 25,3471           00004        LRPOS2             INHINT
003073:
003074: 25,3472           40110                           CS       RADMODES
003075: 25,3473           74746                           MASK     LRPOSBIT                              #  SHOW DESIRED LR POSITION IS 2
003076: 25,3474           26110                           ADS      RADMODES
003077:
003078: 25,3475           34745                           CAF      BIT7
003079: 25,3476           00006                           EXTEND
003080: 25,3477           02033                           RAND     CHAN33                                #  SEE IF ALREADY THERE.
003081: 25,3500           00006                           EXTEND
003082: 25,3501           13530                           BZF      RADNOOP
003083:
003084: 25,3502           34737                           CAF      BIT13
003085: 25,3503           00006                           EXTEND
003086: 25,3504           05012                           WOR      CHAN12                                #  COMMAND TO POSITION 2
003087: 25,3505           33545                           CAF      6SECS                                 #  START SCANNING FOR INBIT AFTER 7 SECS.
003088: 25,3506           05203                           TC       WAITLIST
003089: 25,3507  E7,1456                                  EBANK=   LOSCOUNT
003090: 25,3507           03543 52067                     2CADR    LRPOSCAN
003091:
003092: 25,3511           02366                           TC       ROADBACK
003093:
003094: 25,3512           55100        LRPOSNXT           TS       SAMPLIM
003095: 25,3513           05221                           TC       FIXDELAY                              #  SCAN ONCE PER SECOND 15 TIMES MAX AFTER
003096: 25,3514           00144                           DEC      100        B-14                       #  INITIAL DELAY OF 7 SECONDS.
003097:
003098: 25,3515           34745                           CAF      BIT7                                  #  SEE IF LR POS2 IS ON
003099: 25,3516           00006                           EXTEND
003100: 25,3517           02033                           RAND     CHAN33
003101: 25,3520           00006                           EXTEND
003102: 25,3521           13535                           BZF      LASTLRDT                              #  IF THERE, WAIT FINAL SECOND FOR BOUNCE.
003103:
003104: 25,3522           11100                           CCS      SAMPLIM                               #  SEE IF MAX TIME UP.
003105: 25,3523           13512                           TCF      LRPOSNXT
003106:
003107: 25,3524           44737                           CS       BIT13                                 #  IF TIME UP, DISABLE COMMAND AND ALARM.
003108: 25,3525           00006                           EXTEND
003109: 25,3526           03012                           WAND     CHAN12
003110: 25,3527           13562                           TCF      RDBADEND
003111:
003112: 25,3530           34753        RADNOOP            CAF      ONE                                   #  NO FURTHER ACTION REQUESTED.
003113: 25,3531           05203                           TC       WAITLIST
003114: 25,3532  E7,1456                                  EBANK=   LOSCOUNT
003115: 25,3532           03555 52067                     2CADR    RGOODEND


003117: 25,3534           02366                           TC       ROADBACK
003118:
003119: 25,3535           35000        LASTLRDT           CA       2SECS                                 #  WAIT TWO SECONDS AFTER RECEIPT OF INBIT
003120: 25,3536           05224                           TC       VARDELAY                              #  TO WAIT FOR ANTENNA BOUNCE TO DIE OUT.
003121:
003122: 25,3537           44737                           CS       BIT13                                 #  REMOVE COMMAND
003123: 25,3540           00006                           EXTEND
003124: 25,3541           03012                           WAND     CHAN12
003125: 25,3542           13555                           TCF      RGOODEND
003126:
003127: 25,3543           34317        LRPOSCAN           CAF      FOURTEEN                              #  SET UP FOR 15 SAMPLES.
003128: 25,3544           13512                           TCF      LRPOSNXT
003129: 25,3545           01130        6SECS              DEC      600        B-14


003131:                                                                                                  #  SEQUENCES TO TERMINATE RR OPERATIONS.
003132:
003133: 25,3546           34745        ENDRADAR           CAF      RCDUFBIT                              #  PROLOG TO CHECK RR CDU FAIL BEFORE END.
003134: 25,3547           70110                           MASK     RADMODES
003135: 25,3550           10000                           CCS      A
003136: 25,3551           13555                           TCF      RGOODEND
003137: 25,3552           13562                           TCF      RDBADEND
003138: 25,3553           44755                 -2        CS       ZERO                                  #  RGOODEND WHEN NOT UNDER WAITLIST CONTROL
003139: 25,3554           54734                           TS       RUPTAGN
003140:
003141: 25,3555           34752        RGOODEND           CAF      TWO
003142: 25,3556           04635                           TC       POSTJUMP
003143: 25,3557           17665                           CADR     GOODEND
003144:
003145: 25,3560           44755                 -2        CS       ZERO                                  #  RDBADEND WHEN NOT UNDER WAITLIST.
003146: 25,3561           54734                           TS       RUPTAGN
003147: 25,3562           34752        RDBADEND           CAF      TWO
003148: 25,3563           04635                           TC       POSTJUMP
003149: 25,3564           17662                           CADR     BADEND
003150:
003151: 25,3565     6245               BIN3               EQUALS   THREE
003152:


003154:                                                                                                  #  PROGRAM NAME_  LPS20.1 VECTOR EXTRAPOLATION AND LOS COMPUTATION
003155:                                                                                                  #  MOD. NO. 2    BY J.D. COYNE   SDC     DATE 12-7-66
003156:
003157:                                                                                                  #  FUNCTIONAL DESCRIPTION_
003158:                                                                                                  #        1)      EXTRAPOLATE THE LEM AND CSM VECTORS IN ACCORDANCE WITH THE TIME REFERED TO IN CALLER + 1.
003159:                                                                                                  #        2)      COMPUTES THE LOS VECTOR TO THE CSM, CONVERTS IT TO STABLE MEMBER COORDINATES AND STORES IT IN RRTARGET.
003160:                                                                                                  #        3)      COMPUTES THE MAGNITUDE OF THE LOS VECTOR AND STORES IT IN MLOSV
003161:
003162:                                                                                                  #  CALLING SEQUENCE      CALL
003163:                                                                                                  #                                LPS20.1
003164:
003165:                                                                                                  #  SUBROUTINES CALLED_
003166:                                                                                                  #        LEMPREC, CSMPREC
003167:
003168:                                                                                                  #  NORMAL EXIT_  RETURN TO CALLER + 2
003169:
003170:                                                                                                  #  ERROR EXITS_  NONE
003171:
003172:                                                                                                  #  ALARMS_  NONE
003173:
003174:                                                                                                  #  OUTPUT_
003175:                                                                                                  #        LOS VECTOR (HALF UNIT) IN SM COORDINATES STORED IN RRTARGET
003176:                                                                                                  #        MAGNITUDE OF THE LOS VECTOR (METERS SCALED B-29) STORED IN MSLOV
003177:                                                                                                  #        RRNBSW CLEARED
003178:
003179:                                                                                                  #  INITIALIZED ERASEABLE
003180:                                                                                                  #        TDEC1 MUST CONTAIN THE TIME FOR EXTRAPOLATION
003181:                                                                                                  #        SEE ORBITAL INTEGRATION ROUTINE
003182:
003183:                                                                                                  #  DEBRIS_
003184:                                                                                                  #        MPAC DESTROYED BY THIS ROUTINE
003185:
003186: 23,2314                                           BANK     23
003187: 24,2000                                           SETLOC   P20S
003188: 24,2000                                           BANK


003190: 24,3255                                           COUNT*   $$/LPS20
003191:
003192: 24,3255           43020        LPS20.1            STQ      BOFF
003193: 24,3256           01757                                    LS21X
003194: 24,3257           01343                                    LOSCMFLG                              #  LOSCMFLG = 0 MEANS NOT CALLED BY R21
003195: 24,3260           51264                                    LMINT                                 #  SO CALL LEMCONIC TO GET LM STATE
003196: 24,3261           77614                           BON                                            #  IF IN R21 AND ON LUNAR SURFACE
003197: 24,3262           04307                                    SURFFLAG                              #  DON'T CALL LEMCONIC
003198: 24,3263           51274                                    CSMINT
003199: 24,3264           77624        LMINT              CALL
003200: 24,3265           27100                                    LEMCONIC                              #  EXTRAPOLATE LEM
003201: 24,3266           77775                           VLOAD
003202: 24,3267           00001                                    RATT
003203: 24,3270           26352                           STOVL    LMPOS                                 #  SAVE LM POSITION B-29
003204: 24,3271           00007                                    VATT
003205: 24,3272           16360                           STODL    LMVEL                                 #  SAVE LM VELOCITY B-7
003206: 24,3273           00015                                    TAT
003207: 24,3274           34041        CSMINT             STCALL   TDEC1
003208: 24,3275           27066                                    CSMCONIC                              #  EXTRAPOLATE CSM
003209: 24,3276           52375                           VLOAD    VSU                                   #  COMPUTE RELATIVE VELOCITY V(CSM) - V(LM)
003210: 24,3277           00007                                    VATT
003211: 24,3300           02360                                    LMVEL
003212: 24,3301           76521                           MXV      VSL1
003213: 24,3302           01734                                    REFSMMAT
003214: 24,3303           77776                           EXIT
003215: 24,3304           06027                           TC       KILLTASK                              #  KILL THE TASK WHICH CALLS DODES SINCE
003216: 24,3305           52602                           CADR     DESLOOP    +2                         #  STORING INTO ERASEABLES DODES USES
003217: 24,3306           06037                           TC       INTPRET
003218: 24,3307           25761                           STOVL    LOSVEL
003219: 24,3310           00001                                    RATT
003220: 24,3311           43051                           VSU      BOFF
003221: 24,3312           02352                                    LMPOS
003222: 24,3313           00350                                    RNDVZFLG
003223: 24,3314           51321                                    NOTSHIFT
003224: 24,3315           77604                           BOVB
003225: 24,3316           57753                                    TCDANZIG
003226: 24,3317           77661                           VSL
003227: 24,3320           20212                                    9D
003228: 24,3321           41056        NOTSHIFT           UNIT     BOVB                                  #  IF OVERFLOW, RANGE MUST BE GREATER
003229: 24,3322           50102                                    526ALARM                              #  THAN 400 N. M.
003230: 24,3323           76521                           MXV      VSL1
003231: 24,3324           01734                                    REFSMMAT                              #  CONVERT TO STABLE MEMBER
003232: 24,3325           15102                           STODL    RRTARGET
003233: 24,3326           00045                                    36D                                   #  SAVE MAGNITUDE OF LOS VECTOR FOR
003234: 24,3327           01767                           STORE    MLOSV                                 #  VELOCITY CORRECTION IN DESIGNATE
003235: 24,3330           77614                           CLRGO
003236: 24,3331           00231                                    RRNBSW
003237: 24,3332           01757                                    LS21X
003238:


003240:                                                                                                  #  PROGRAM NAME_  LPS20.2  400 NM RANGE CHECK
003241:                                                                                                  #  MOD. NO. 2    BY J.D. COYNE   SDC     DATE 12-7-66
003242:
003243:                                                                                                  #  FUNCTIONAL DESCRIPTION_
003244:                                                                                                  #        COMPARES THE MAGNITUDE OF THE LOS VECTOR TO 400 NM
003245:
003246:                                                                                                  #  CALLING SEQUENCE      CALL
003247:                                                                                                  #                                LPS20.2
003248:
003249:                                                                                                  #  SUBROUTINES CALLED_  NONE
003250:
003251:                                                                                                  #  NORMAL EXIT_  RETURN TO CALLER +1, MPAC EQ 0 (RANGE 400NM OR LESS.)
003252:
003253:                                                                                                  #  ERROR EXITS_  RETURN TO CALLER +1, MPAC EQ 1 (RANGE GREATER THAN 400NM)
003254:
003255:                                                                                                  #  ALARMS_  NONE
003256:
003257:                                                                                                  #  OUTPUT_  NONE
003258:
003259:                                                                                                  #  INITIALIZED ERASEABLE_
003260:                                                                                                  #        PDL 36D MUST CONTAIN THE MAGNITUDE OF THE VECTOR
003261:
003262:                                                                                                  #  DEBRIS
003263:                                                                                                  #        MPAC DESTROYED BY THIS ROUTINE
003264:
003265: 25,2000                                           SETLOC   P20S1
003266: 25,2000                                           BANK
003267: 25,3565                                           COUNT*   $$/LPS20
003268:
003269: 25,3565           45345        LPS20.2            DLOAD    DSU
003270: 25,3566           01767                                    MLOSV                                 #  MAGNITUDE OF LOS
003271: 25,3567           13600                                    FHNM                                  #  OVER 400NM  _
003272: 25,3570           77644                           BPL
003273: 25,3571           53574                                    TOFAR
003274: 25,3572           43535                           SLOAD    RVQ
003275: 25,3573           06522                                    ZERO/SP
003276: 25,3574           43535        TOFAR              SLOAD    RVQ
003277: 25,3575           13577                                    ONE/SP
003278: 25,3576           00001        ONE/SP             DEC      1          B-14


003280: 25,3577           26467 00000  FHNM               2DEC     740800     B-20                       #  400 NAUTICAL MILES IN METERS B-20
003281:


003283:                                                                                                  #  PROGRAM NAME:  LRS22.1 (DATA READ SUBROUTINE 1)
003284:                                                                                                  #  MOD. NO.: 1           BY: P. VOLANTE  SDC             DATE:  11-15-66
003285:
003286:                                                                                                  #  FUNCTIONAL DESCRIPTION
003287:                                                                                                  #        1)      READS RENDEZVOUS RADAR RANGE AND RANGE-RATE, TRUNION AND SHAFT ANGLES, THREE CDU VALUES AND TIME.  CONVERTS THIS
003288:                                                                                                  #                DATA AND LEAVES IT FOR THE MEASUREMENT INCORPORATION ROUTINE (LSR22.3).  CHECKS FOR THE RR DATA GOOD DISCRETE, FOR
003289:                                                                                                  #                RR REPOSITION AND RR CDU FAIL
003290:                                                                                                  #        2)      COMPARES RADAR LOS WITH LOS COMPUTED FROM STATE VECTORS TO SEE IF THEY ARE WITHIN THREE DEGREES
003291:
003292:                                                                                                  #  CALLING SEQUENCE:  BANKCALL FOR LRS22.1
003293:
003294:                                                                                                  #  SUBROUTINES CALLED:
003295:                                                                                                  #        RRRDOT          LPS20.1
003296:                                                                                                  #        RRRANGE         BANKCALL
003297:                                                                                                  #        RADSTALL        CDULOGIC
003298:                                                                                                  #        RRNB            SMNB
003299:
003300:                                                                                                  #  NORMAL EXIT:  RETURN TO CALLER+1 WITH MPAC SET TO +0
003301:
003302:                                                                                                  #  ERROR EXITS:  RETURN TO CALLER+1 WITH ERROR CODE STORED IN MPAC AS FOLLOWS:
003303:                                                                                                  #        00001 - ERROR EXIT 1 - RR DATA NO GOOD (NO RR DATA GOOD DISCRETE OR RR CDU FAIL OR RR REPOSITION)
003304:                                                                                                  #        00002 - ERROR EXIT 2 - RR LOS NOT WITHIN THREE DEGREES OF LOS COMPUTED FROM STATE VECTORS
003305:
003306:                                                                                                  #  ALARMS:  521 - COULD NOT READ RADAR DATA (RR DATA GOOD DISCRETE NOT PRESENT BEFORE AND AFTER READING THE RADAR)
003307:                                                                                                  #        (THIS ALARM IS ISSUED BY THE RADAREAD SUBROUTINE WHICH IS ENTERED FROM A RADARUPT)
003308:
003309:                                                                                                  #  OUTPUT:  RRLOSVEC - THE RR LINE-OF-SIGHT VECTOR (USED BY LRS22.2) - A HALF-UNIT VECTOR
003310:                                                                                                  #        RM - THE RR RANGE READING (TO THE CSM) DP, IN METERS SCALED B-29 (USED BY LRS22.2 AND LRS22.3)
003311:
003312:                                                                                                  #        ALL OF THE FOLLOWING OUTPUTS ARE USED BY LRS22.3:
003313:                                                                                                  #                RDOTM - THE RR RANGE-RATE READING, DP, IN METERS PER CENTISECOND, SCALED B-7
003314:                                                                                                  #                RRTRUN - RR TRUNION ANGLE, DP, IN REVOLUTIONS, SCALED B0
003315:                                                                                                  #                RRSHAFT - RR SHAFT ANGLE, DP, IN REVOLUTIONS, SCALED B0
003316:                                                                                                  #                AIG,AMG,AOG - THE CDU ANGLES, THREE SP WORDS
003317:                                                                                                  #                MKTIME - THE TIME OF THE RR READING, DP, IN CENTISECONDS
003318:
003319:                                                                                                  #  ERASABLE INITIALIZATION REQUIRED:
003320:                                                                                                  #        RNRAD, THE RADAR READ COUNTER FROM WHICH IS OBTAINED:


003322:                                                                                                  #                1) RR RANGE SCALED 9.38 FT. PER BIT ON THE LOW SCALE AND 75.04 FT. PER BIT ON THE HIGH SCALE
003323:                                                                                                  #                2) RR RANGE RATE, SCALED .6278 FT./SEC. PER BIT
003324:                                                                                                  #        THE CDU ANGLES FROM CDUX, CDUY, CDUZ AND TIME1 AND TIME2
003325:
003326:                                                                                                  #  DEBRIS:  LRS22.1X, A, L, Q, PUSHLIST
003327:
003328: 32,2366                                           BANK     32
003329: 32,2000                                           SETLOC   LRS22
003330: 32,2000                                           BANK
003331: 32,2366                                           COUNT*   $$/LRS22
003332:
003333: 32,2366           04645        LRS22.1            TC       MAKECADR
003334: 32,2367           55737                           TS       LRS22.1X
003335: 32,2370           05516                           TC       DOWNFLAG
003336: 32,2371           00120                           ADRES    RNGSCFLG
003337: 32,2372           00004                           INHINT
003338: 32,2373           34751                           CAF      BIT3
003339: 32,2374           00006                           EXTEND                                         #  GET RR RANGE SCALE
003340: 32,2375           02033                           RAND     CHAN33                                #  FROM CHANNEL 33 BIT 3
003341: 32,2376           54001                           TS       L
003342: 32,2377           44751                           CS       RRRSBIT
003343: 32,2400           70110                           MASK     RADMODES
003344: 32,2401           60001                           AD       L
003345: 32,2402           54110                           TS       RADMODES
003346: 32,2403           00003                           RELINT
003347: 32,2404           04616        READRDOT           TC       BANKCALL
003348: 32,2405           53103                           CADR     RRRDOT                                #  READ RANGE-RATE (ONE SAMPLE)
003349: 32,2406           04616                           TC       BANKCALL
003350: 32,2407           17714                           CADR     RADSTALL                              #  WAIT FOR DATA READ COMPLETION
003351: 32,2410           12542                           TCF      EREXIT1                               #  COULD NOT READ RADAR-ERROR EXIT 1
003352:
003353: 32,2411           00004                           INHINT                                         #  NO INTERRUPTS WHILE READING TIME AND CDU
003354: 32,2412           53106                           DXCH     TIMEHOLD                              #  SET MARK TIME EQUAL TO THE MID-POINT
003355: 32,2413           52162                           DXCH     MPAC       +5                         #  TEMP BUFFER FOR DOWNLINK
003356: 32,2414           53102                           DXCH     SAMPLSUM                              #  SAVE RANGE-RATE READING
003357: 32,2415           53747                           DXCH     RDOTMSAV
003358: 32,2416           00006                           EXTEND
003359: 32,2417           30034                           DCA      CDUY                                  #  SAVE ICDU ANGLES
003360: 32,2420           52160                           DXCH     MPAC       +3                         #  TEMP BUFFER FOR DOWNLINK
003361: 32,2421           30032                           CA       CDUX
003362: 32,2422           54156                           TS       MPAC       +2                         #  TEMP BUFFER FOR DOWNLINK
003363: 32,2423           00006                           EXTEND
003364: 32,2424           30025                           DCA      TIME2                                 #  SAVE TIME
003365: 32,2425           52155                           DXCH     MPAC                                  #  SAVE TIME OF CDY READINGS IN MPAC
003366: 32,2426           00006                           EXTEND
003367: 32,2427           30036                           DCA      CDUT                                  #  SAVE TRUNION AND SHAFT ANGLES FOR RRNB
003368: 32,2430           53110                           DXCH     TANG


003370: 32,2431           00003                           RELINT
003371: 32,2432           04616                           TC       BANKCALL
003372: 32,2433           53105                           CADR     RRRANGE                               #  READ RR RANGE (ONE SAMPLE)
003373: 32,2434           04616                           TC       BANKCALL
003374: 32,2435           17714                           CADR     RADSTALL                              #  WAIT FOR READ COMPLETE
003375: 32,2436           02536                           TC       CHEXERR                               #  CHECK FOR ERRORS DURING READ
003376: 32,2437           00004                           INHINT                                         #  COPY CYCLE FOR MARK DATA ON DOWNLINK
003377: 32,2440           53334                           DXCH     DNRRANGE                              #  RANGE, RANGE RATE (RAW DATA)
003378: 32,2441           53761                           DXCH     RANGRDOT
003379: 32,2442           52162                           DXCH     MPAC       +5
003380: 32,2443           53755                           DXCH     MKTIME                                #  MARK TIME
003381: 32,2444           52160                           DXCH     MPAC       +3
003382: 32,2445           53460                           DXCH     AIG                                   #  CDUY, CDUZ
003383: 32,2446           00006                           EXTEND
003384: 32,2447           31110                           DCA      TANG                                  #  PRESERVE TANG
003385: 32,2450           53753                           DXCH     TANGNB                                #  TRUNNION AND SHAFT ANGLES
003386: 32,2451           30156                           CA       MPAC       +2
003387: 32,2452           55461                           TS       AOG                                   #  CDUX
003388: 32,2453           06037                           TC       INTPRET
003389: 32,2454           14025                           STODL    20D                                   #  SAVE TIME OF CDU READINGS IN 20D
003390: 32,2455           03747                                    RDOTMSAV                              #  CONVERT RDOT UNITS AND SCALING
003391: 32,2456           57261                           SL       DMPR                                  #  START WITH READING SCALED B-28, -.6278
003392: 32,2457           20217                                    14D                                   #  FT./SECOND PER BIT
003393: 32,2460           24002                                    RDOTCONV                              #  END WITH METERS/CENTISECOND, B-7
003394: 32,2461           03751                           STORE    RDOTM
003395: 32,2462           47135                           SLOAD    RTB
003396: 32,2463           01110                                    TANG                                  #  GET TRUNION ANGLE
003397: 32,2464           21576                                    CDULOGIC                              #  CONVERT TO DP ONES COMP. IN REVOLUTIONS
003398: 32,2465           03734                           STORE    RRTRUN                                #  AND SAVE FOR TMI ROUTINE (LSR22.3)
003399: 32,2466           47135                           SLOAD    RTB
003400: 32,2467           01111                                    TANG       +1                         #  DITTO FOR SHAFT ANGLE
003401: 32,2470           21576                                    CDULOGIC
003402: 32,2471           17736                           STODL    RRSHAFT
003403: 32,2472           01102                                    SAMPLSUM
003404: 32,2473           66405                           DMP      SL2R                                  #  CONVERT UNITS AND SCALING OF RANGE
003405: 32,2474           24004                                    RANGCONV                              #  PER BIT, END WITH METERS, SCALED -29
003406: 32,2475           37757                           STCALL   RM
003407: 32,2476           46041                                    RRNB                                  #  COMPUTE RADAR LOS USING RRNB
003408: 32,2477           17741                           STODL    RRBORSIT                              #  AND SAVE
003409: 32,2500           00025                                    20D
003410: 32,2501           34041                           STCALL   TDEC1                                 #  GET STATE VECTOR LOS AT TIME OF CDU READ
003411: 32,2502           51255                                    LPS20.1
003412: 32,2503           77776                           EXIT
003413: 32,2504           31457                           CA       AIG                                   #  STORE IMU CDU ANGLES AT MARKTIME
003414: 32,2505           54766                           TS       CDUSPOT                               #  IN CDUSPOT FOR TRG*SMNB
003415: 32,2506           31460                           CA       AMG
003416: 32,2507           54770                           TS       CDUSPOT    +2
003417: 32,2510           31461                           CA       AOG
003418: 32,2511           54772                           TS       CDUSPOT    +4
003419: 32,2512           06037                           TC       INTPRET


003421: 32,2513           45175                           VLOAD    CALL                                  #  LOAD VECTOR AND CALL TRANSFORMATION
003422: 32,2514           01102                                    RRTARGET
003423: 32,2515           47651                                    TRG*SMNB                              #  ROTATE LOS AT MARKTIME FROM SM TO NB.
003424: 32,2516           77641                           DOT                                            #  DOT WITH RADAR LOS TO GET ANGLE
003425: 32,2517           03741                                    RRBORSIT
003426: 32,2520           65552                           SL1      ACOS                                  #  BETWEEN THEM
003427: 32,2521           01046                           STORE    DSPTEM1                               #  STORE FOR POSSIBLE DISPLAY
003428: 32,2522           50025                           DSU      BMN                                   #  IS IT LESS THAN 3 DEGREES
003429: 32,2523           24546                                    THREEDEG
003430: 32,2524           64531                                    NORMEXIT                              #  YES - NORMAL EXIT
003431:
003432: 32,2525           77776                           EXIT                                           #  ERROR EXIT 2
003433: 32,2526           34752                           CAF      BIT2                                  #  SET ERROR CODE
003434: 32,2527           54154                           TS       MPAC
003435: 32,2530           12534                           TCF      OUT22.1
003436:
003437: 32,2531           77776        NORMEXIT           EXIT                                           #  NORMAL EXIT - SET MPAC EQUAL ZERO
003438: 32,2532           34755                           CAF      ZERO
003439: 32,2533           54154                           TS       MPAC
003440: 32,2534           31737        OUT22.1            CAE      LRS22.1X                              #  EXIT FROM LRS22.1
003441: 32,2535           04640                           TC       BANKJUMP
003442: 32,2536           30101        CHEXERR            CAE      FLAGWRD5
003443: 32,2537           74742                           MASK     RNGSCBIT
003444: 32,2540           10000                           CCS      A                                     #  CHECK IF RANGE SCALE CHANGED
003445: 32,2541           12404                           TCF      READRDOT                              #  YES - TAKE ANOTHER READING
003446:
003447: 32,2542           34753        EREXIT1            CA       BIT1                                  #  SET ERROR CODE
003448: 32,2543           54154                           TS       MPAC
003449: 32,2544           02534                           TC       OUT22.1
003450: 32,2545           00210 21042  THREEDEG           2DEC     .008333333                            #  THREE DEGREES, SCALED REVS, B0
003451:
003452: 32,2547     1101               RRLOSVEC           EQUALS   RRTARGET
003453:


003455:                                                                                                  #  PROGRAM NAME - LRS22.2 (DATA READ SUBROUTINE 2)
003456:                                                                                                  #  MOD. NO.: 1           BY: P VOLANTE  SDC              DATE   4-11-67
003457:
003458:                                                                                                  #  FUNCTIONAL DESCRIPTION-


003460:                                                                                                  #        2)  CHECKS IF THE RR LOS (I.E. THE RADAR BORESIGHT VECTOR) IS WITHIN 30 DEGREES OF THE LM +Z AXIS
003461:
003462:                                                                                                  #  CALLING SEQUENCE-  BANKCALL FOR LRS22.2
003463:
003464:                                                                                                  #  SUBROUTINES CALLED:  G+N, AUTO   SETMAXDB
003465:
003466:                                                                                                  #  NORMAL EXIT-  RETURN TO CALLER WITH MPAC SET TO +0 (VIA SWRETURN)
003467:
003468:                                                                                                  #  ERROR EXIT-  RETURN TO CALLER WITH MPAC SET TO 00001 - RADAR LOS NOT WITHIN 30 DEGREES OF LM +Z AXIS
003469:
003470:                                                                                                  #  ALARMS-  NONE                                                             IN THE AUTO MODE
003471:
003472:                                                                                                  #  ERASABLE INITIALIZATION REQUIRED -
003473:                                                                                                  #        RRLOSVEC - THE RR LINE-OF-SIGHT VECTOR - A HALF UNIT VECTOR COMPUTED BY LRS22.1
003474:                                                                                                  #        RM - RR RANGE, METERS B-29, FROM LRS22.1
003475:                                                                                                  #        BIT 14 CHANNEL 31 - INDICATES AUTOPILOT IS IN AUTO MODE
003476:
003477:                                                                                                  #  DEBRIS - A,L,Q MPAC - PUSHLIST AND PUSHLOC ARE NOT CHANGED BY THIS ROUTINE
003478:
003479: 24,2000                                           SETLOC   P20S
003480: 24,2000                                           BANK
003481: 24,3333           04645        LRS22.2            TC       MAKECADR
003482: 24,3334           55737                           TS       LRS22.1X
003483: 24,3335           06037                           TC       INTPRET
003484:                                                                                                  #  CHECK IF RR LOS IS WITHIN 30 DEG OF
003485: 24,3336           65545        30DEGCHK           DLOAD    ACOS                                  #  THE SPACECRAFT +Z AXIS
003486: 24,3337           03745                                    RRBORSIT   +4                         #  BY TAKING ARCCOS OF Z-COMP. OF THE RR
003487:                                                                                                  #  LOS VECTOR, A HALF UNIT VECTOR
003488:                                                                                                  #  IN NAV BASE AXES)
003489: 24,3340           50025                           DSU      BMN
003490: 24,3341           11355                                    30DEG
003491: 24,3342           51347                                    OKEXIT                                #  NORMAL EXIT - WITHIN 30 DEG.
003492: 24,3343           77776                           EXIT                                           #  ERROR EXIT - NOT WITHIN 30 DEG.
003493: 24,3344           34753                           CAF      BIT1                                  #  SET ERROR CODE IN MPAC
003494: 24,3345           54154                           TS       MPAC
003495: 24,3346           13352                           TCF      OUT22.2
003496: 24,3347           77776        OKEXIT             EXIT                                           #  NORMAL EXIT - SET MPAC = ZERO
003497:


003499: 24,3350           34755                           CAF      ZERO
003500: 24,3351           54154                           TS       MPAC
003501: 24,3352           31737        OUT22.2            CAE      LRS22.1X
003502: 24,3353           04640                           TC       BANKJUMP
003503:
003504: 24,3354           02525 12525  30DEG              2DEC     .083333333                            #  THIRTY DEGREES, SCALED REVS, B0
003505:


003507:                                                                                                  #  PROGRAM NAME - LSR22.3                                DATE - 29 MAY 1967
003508:                                                                                                  #  MOD. NO 3                                             LOG SECTION - P20-25
003509:                                                                                                  #  MOD. BY - DANFORTH                                    ASSEMBLY LEMP20S REV 10
003510:
003511:                                                                                                  #  FUNCTIONAL DESCRIPTION
003512:                                                                                                  #        THIS ROUTINE COMPUTES THE B-VECTORS AND DELTA Q FOR EACH OF THE QUANTITIES MEASURED BY THE RENDEZVOUS
003513:                                                                                                  #        RADAR.  (RANGE, RANGE RATE, SHAFT AND TRUNNION ANGLES).  THE ROUTINE CALLS THE INCORP1 AND INCORP2 ROUTINES
003514:                                                                                                  #        WHICH COMPUTE THE DEVIATIONS AND CORRECT THE STATE VECTOR.
003515:
003516:                                                                                                  #  CALLING SEQUENCE
003517:                                                                                                  #        THIS ROUTINE IS PART OF P20 RENDEZVOUS NAVIGATION FOR THE LM COMPUTER ONLY.  THE ROUTINE IS ENTERED FROM
003518:                                                                                                  #        R22 LEM ONLY AND RETURNS DIRECTLY TO R22LEM FOLLOWING SUCCESSFUL INCORPORATION OF MEASURED DATA.  IF THE
003519:                                                                                                  #        COMPUTED STATE VECTOR DEVIATIONS EXCEED THE MAXIMUM PERMITTED.  THE ROUTINE RETURNS TO R22LEM TO DISPLAY
003520:                                                                                                  #        THE DEVIATIONS.  IF THE ASTRONAUT ACCEPTS THE DATA R22LEM RETURNS TO LSR22.3 TO INCORPORATE THE
003521:                                                                                                  #        DEVIATIONS INTO THE STATE VECTOR.  IF THE ASTRONAUT REJECTS THE DEVIATIONS, NO MORE MEASUREMENTS ARE
003522:                                                                                                  #        PROCESSED FOR THIS MARK, I.E.,  R22LEM GETS THE NEXT MARK.
003523:
003524:                                                                                                  #  SUBROUTINES CALLED
003525:                                                                                                  #        WLINIT          LGCUPDTE        INTEGRV         INCORP1         ARCTAN
003526:                                                                                                  #        GETULC          RARARANG        INCORP2         NBSM            INTSTALL
003527:
003528:                                                                                                  #  OUTPUT
003529:                                                                                                  #        CORRECTED LM OR CSM STATE VECTOR (PERMANENT)
003530:                                                                                                  #        NUMBER OF MARKS INCORPORATED IN MARKCTR
003531:                                                                                                  #        MAGNITUDE OF POSITION DEVIATION (FOR DISPLAY) IN R22DISP METERS B-29
003532:                                                                                                  #        MAGNITUDE OF VELOCITY DEVIATION (FOR DISPLAY) IN R22DISP +2 M/CSEC B-7
003533:                                                                                                  #        UPDATED W-MATRIX
003534:
003535:                                                                                                  #  ERASABLE INITIALIZATION REQUIRED
003536:                                                                                                  #        LM AND CSM STATE VECTORS
003537:                                                                                                  #        W-MATRIX
003538:                                                                                                  #        MARK TIME IN MKTIME
003539:                                                                                                  #        RADAR RANGE IN RM METERS B-29
003540:                                                                                                  #                RANGE RATE IN RDOTM METERS/CSES B-7
003541:                                                                                                  #                SHAFT ANGLE IN RRSHAFT REVS. B0
003542:                                                                                                  #                TRUNNION ANGLE IN RRTRUN REVS. B0
003543:                                                                                                  #        GIMBAL ANGLES   INNER IN AIG
003544:                                                                                                  #                        MIDDLE IN AMG
003545:                                                                                                  #                        OUTER IN AOG
003546:                                                                                                  #        REFSMMAT
003547:                                                                                                  #        RENDWFLG
003548:                                                                                                  #        NOANGFLG
003549:                                                                                                  #        VEHUPFLG
003550:
003551:                                                                                                  #  DEBRIS
003552:                                                                                                  #        PUSHLIST -- ALL
003553:                                                                                                  #        MX, MY, MZ (VECTORS)


003555:                                                                                                  #        ULC, RXZ, SINTHETA, LGRET, RDRET, BVECTOR, W.IND, X78T
003556:
003557: 13,2207                                           BANK     13
003558: 26,2000                                           SETLOC   P20S3
003559: 26,2000                                           BANK
003560:
003561: 26,2412  E7,1456                                  EBANK=   LOSCOUNT
003562: 26,2412                                           COUNT*   $$/LSR22
003563: 26,2412           77624        LSR22.3            CALL
003564: 26,2413           11244                                    GRP2PC
003565: 26,2414           43014                           BON      SET
003566: 26,2415           04307                                    SURFFLAG                              #  ARE WE ON LUNAR SURFACE
003567: 26,2416           55200                                    LSR22.4                               #  YES
003568: 26,2417           02466                                    DMENFLG
003569: 26,2420           45014                           BOFF     CALL
003570: 26,2421           00747                                    VEHUPFLG
003571: 26,2422           54454                                    DOLEM
003572: 26,2423           27414                                    INTSTALL
003573: 26,2424           45014                           CLEAR    CALL                                  #  LM PRECISION INTEGRATION
003574: 26,2425           01674                                    VINTFLAG
003575: 26,2426           26644                                    SETIFLGS
003576: 26,2427           77624                           CALL
003577: 26,2430           55242                                    INTGRCAL
003578: 26,2431           77624                           CALL
003579: 26,2432           11244                                    GRP2PC
003580: 26,2433           77624                           CALL
003581: 26,2434           27414                                    INTSTALL
003582: 26,2435           43014                           CLEAR    BOFF
003583: 26,2436           01676                                    DIM0FLAG
003584: 26,2437           02756                                    RENDWFLG
003585: 26,2440           54444                                    NOTWCSM
003586: 26,2441           43014                           SET      SET                                   #  CSM WITH W-MATRIX INTEGRATION
003587: 26,2442           01476                                    DIM0FLAG
003588: 26,2443           01475                                    D6OR9FLG
003589: 26,2444           43014        NOTWCSM            SET      CLEAR
003590: 26,2445           01474                                    VINTFLAG
003591: 26,2446           01673                                    INTYPFLG
003592: 26,2447           45014                           SET      CALL
003593: 26,2450           01472                                    STATEFLG
003594: 26,2451           55242                                    INTGRCAL
003595: 26,2452           77650                           GOTO
003596: 26,2453           54504                                    MARKTEST
003597: 26,2454           77624        DOLEM              CALL
003598: 26,2455           27414                                    INTSTALL
003599: 26,2456           45014                           SET      CALL
003600: 26,2457           01474                                    VINTFLAG
003601: 26,2460           26644                                    SETIFLGS
003602: 26,2461           77624                           CALL
003603: 26,2462           55242                                    INTGRCAL


003605: 26,2463           77624                           CALL
003606: 26,2464           11244                                    GRP2PC
003607: 26,2465           77624                           CALL
003608: 26,2466           27414                                    INTSTALL
003609: 26,2467           43014                           CLEAR    BOFF
003610: 26,2470           01676                                    DIM0FLAG
003611: 26,2471           02756                                    RENDWFLG
003612: 26,2472           54476                                    NOTWLEM
003613: 26,2473           43014                           SET      SET                                   #  LM WITH W-MATRIX INTEGRATION
003614: 26,2474           01476                                    DIM0FLAG
003615: 26,2475           01475                                    D6OR9FLG
003616: 26,2476           43014        NOTWLEM            CLEAR    CLEAR
003617: 26,2477           01673                                    INTYPFLG
003618: 26,2500           01674                                    VINTFLAG
003619: 26,2501           45014                           SET      CALL
003620: 26,2502           01472                                    STATEFLG
003621: 26,2503           55242                                    INTGRCAL
003622: 26,2504           45014        MARKTEST           BON      CALL                                  #  HAS W-MATRIX BEEN INVALIDATED
003623: 26,2505           02716                                    RENDWFLG                              #  HAS W-MATRIX BEEN INVALIDATED
003624: 26,2506           54510                                    RANGEBQ
003625: 26,2507           55251                                    WLINIT                                #  YES - REINITIALIZE
003626: 26,2510           77414        RANGEBQ            BON      EXIT                                  #  DON'T CALL R65 IF ON SURFACE
003627: 26,2511           04307                                    SURFFLAG
003628: 26,2512           54520                                    RANGEBQ1
003629: 26,2513           34755                           CA       ZERO
003630: 26,2514           55745                           TS       R65CNTR
003631: 26,2515           04616                           TC       BANKCALL
003632: 26,2516           46123                           CADR     R65LEM
003633: 26,2517           06037                           TC       INTPRET
003634: 26,2520           43174        RANGEBQ1           AXT,2    BON                                   #  CLEAR X2
003635: 26,2521           00000                                    0
003636: 26,2522           04304                                    LMOONFLG                              #  IS MOON SPHERE OF INFLUENCE
003637: 26,2523           54526                                    SETX2                                 #  YES.  STORE ZERO IN SCALSHFT REGISTER
003638: 26,2524           77714                           INCR,2
003639: 26,2525           00002                                    2
003640: 26,2526           45134        SETX2              SXA,2    CALL
003641: 26,2527           03720                                    SCALSHFT                              #  0 - MOON.  2 - EARTH
003642: 26,2530           11244                                    GRP2PC
003643: 26,2531           66170                           AXT,1    SXA,1                                 #  STORE RANGE CODE (1) FOR R3 IN NOUN 49
003644: 26,2532           00001                                    1
003645: 26,2533           03745                                    WHCHREAD
003646: 26,2534           54335                           SLOAD    SR                                    #  GET SINGLE PRECISION RVARMIN (B-12)
003647: 26,2535           01775                                    RVARMIN                               #  SHIFT TO TRIPLE PRECISION (B-40)
003648: 26,2536           20635                                    28D
003649: 26,2537           77634                           RTB
003650: 26,2540           21633                                    TPMODE                                #  AND SAVE IN 20D
003651: 26,2541           00025                           STORE    20D
003652: 26,2542           77624                           CALL                                           #  BEGIN COMPUTING THE B-VECTORS, DELTAQ
003653: 26,2543           55333                                    GETULC                                #  B-VECTORS FOR RANGE
003654: 26,2544           57414                           BON      VCOMP                                 #  B0, COMP. IF LM BEING CORRECTED


003656: 26,2545           00707                                    VEHUPFLG
003657: 26,2546           54547                                    +1
003658: 26,2547           27525                           STOVL    BVECTOR
003659: 26,2550           06522                                    ZEROVECS
003660: 26,2551           03533                           STORE    BVECTOR    +6                         #  B1
003661: 26,2552           17541                           STODL    BVECTOR    +12D                       #  B2
003662: 26,2553           00045                                    36D
003663: 26,2554           44257                           SRR*     BDSU
003664: 26,2555           56174                                    2,2                                   #  SHIFT FROM EARTH/MOON SPHERE TO B-29
003665: 26,2556           03757                                    RM                                    #  RM - (MAGNITUDE RCSM-RLM)
003666: 26,2557           77657                           SLR*
003667: 26,2560           56574                                    2,2                                   #  SHIFT TO EARTH/MOON SPHERE
003668: 26,2561           17547                           STODL    DELTAQ                                #  EARTH B-29.  MOON B-27
003669: 26,2562           00045                                    36D                                   #  RLC B-29/B-27
003670: 26,2563           63501                           NORM     DSQ                                   #  NORMALIZE AND SQUARE
003671: 26,2564           00047                                    X1
003672: 26,2565           53605                           DMP      SR*
003673: 26,2566           01771                                    RANGEVAR                              #  MULTIPLY BY RANGEVAR (B12) THEN
003674: 26,2567           20577                                    0          -2,1                       #  UNNORMALIZE
003675: 26,2570           53657                           SR*      SR*
003676: 26,2571           20601                                    0,1
003677: 26,2572           57176                                    0,2
003678: 26,2573           47057                           SR*      RTB
003679: 26,2574           57176                                    0,2
003680: 26,2575           21633                                    TPMODE
003681: 26,2576           02707                           STORE    VARIANCE                              #  B-40
003682: 26,2577           76276                           DCOMP    TAD
003683: 26,2600           00025                                    20D                                   #  B-40
003684: 26,2601           72240                           BMN      TLOAD
003685: 26,2602           54605                                    QOK
003686: 26,2603           00025                                    20D                                   #  B-40
003687: 26,2604           02707                           STORE    VARIANCE
003688: 26,2605           77624        QOK                CALL
003689: 26,2606           55401                                    LGCUPDTE
003690:
003691: 26,2607           45131                           SSP      CALL
003692: 26,2610           03746                                    WHCHREAD
003693: 26,2611           00002                           DEC      2          B-14                       #  STORE R-RATE CODE (2) FOR R3 IN NOUN 49
003694: 26,2612           11244                                    GRP2PC
003695: 26,2613           77624                           CALL                                           #  B-VECTOR, DELTAQ FOR RANGE RATE
003696: 26,2614           55333                                    GETULC
003697: 26,2615           53725                           PDDL     SR*                                   #  GET RLC SCALED B-29/B-27
003698: 26,2616           00045                                    36D                                   #  AND SHIFT TO B-23
003699: 26,2617           57202                                    0          -4,2
003700: 26,2620           24045                           STOVL    36D                                   #  THEN STORE BACK IN 36D
003701: 26,2621           57414                           BON      VCOMP                                 #  B1, COMP. IF LM BEING CORRECTED
003702: 26,2622           00707                                    VEHUPFLG
003703: 26,2623           54624                                    +1
003704: 26,2624           77761                           VXSC
003705: 26,2625           00045                                    36D                                   #  B1 = RLC (B-24/B-22)


003707: 26,2626           27533                           STOVL    BVECTOR    +6
003708: 26,2627           01653                                    NUVLEM
003709: 26,2630           53257                           VSR*     VAD
003710: 26,2631           57170                                    6,2                                   #  SHIFT FOR EARTH/MOON SPHERE
003711: 26,2632           01667                                    VCVLEM                                #  EARTH B-7. MOON B-5
003712: 26,2633           53715                           PDVL     VSR*                                  #  VL TO PD6
003713: 26,2634           01601                                    NUVCSM
003714: 26,2635           57170                                    6,2                                   #  SHIFT FOR EARTH/MOON SPHERE
003715: 26,2636           52255                           VAD      VSU
003716: 26,2637           01615                                    VCVCSM
003717: 26,2640           50315                           PDVL     DOT                                   #  VC - VL = VLC TO PD6
003718: 26,2641           00001                                    0
003719: 26,2642           00007                                    6
003720: 26,2643           53606                           PUSH     SRR*                                  #  RDOT B-8/B-6 TO PD12
003721: 26,2644           56174                                    2,2                                   #  SHIFT FROM EARTH/MOON SPHERE TO B-8
003722: 26,2645           57316                           DSQ      DMPR                                  #  RDOT**2 B-16 X RATEVAR B12
003723: 26,2646           01773                                    RATEVAR
003724: 26,2647           02707                           STORE    VARIANCE
003725: 26,2650           54335                           SLOAD    SR
003726: 26,2651           01776                                    VVARMIN                               #  GET SINGLE PRECISION VVARMIN (B+12)
003727: 26,2652           20621                                    16D                                   #  SHIFT TO DP (B-4)
003728: 26,2653           00031                           STORE    24D                                   #  AND SAVE IN 24D
003729: 26,2654           50025                           DSU      BMN                                   #  IS MIN. VARIANCE > COMPUTED VARIANCE
003730: 26,2655           02707                                    VARIANCE
003731: 26,2656           54662                                    VOK                                   #  BRANCH - NO
003732: 26,2657           77745                           DLOAD                                          #  YES - USE MINIMUM VARIANCE
003733: 26,2660           00031                                    24D
003734: 26,2661           02707                           STORE    VARIANCE
003735: 26,2662           60545        VOK                DLOAD    SR2                                   #  RDOT (PD12) FROM B-8/B-6
003736: 26,2663           53725                           PDDL     SLR*                                  #  TO B-10/B-8
003737: 26,2664           03751                                    RDOTM                                 #  SHIFT TO EARTH/MOON SPHERE
003738: 26,2665           56577                                    0          -1,2                       #  B-7 TO B-10/B-8
003739: 26,2666           77625                           DSU
003740: 26,2667           77675                           DMPR
003741: 26,2670           00045                                    36D
003742: 26,2671           27547                           STOVL    DELTAQ                                #  B-33
003743: 26,2672           00001                                    0                                     #  NOW GET B0
003744: 26,2673           47235                           VXV      VXV                                   #  (ULC X VLC) X ULC
003745: 26,2674           57414                           BON      VCOMP                                 #  B0, COMP. IF LM BEING CORRECTED
003746: 26,2675           00707                                    VEHUPFLG
003747: 26,2676           54677                                    +1
003748: 26,2677           77657                           VSR*
003749: 26,2700           57200                                    0          -2,2                       #  SCALED B-5
003750: 26,2701           27525                           STOVL    BVECTOR
003751: 26,2702           06522                                    ZEROVECS
003752: 26,2703           00025                           STORE    20D                                   #  ZERO OUT 20 TO 25 IN PUSHLIST
003753: 26,2704           27541                           STOVL    BVECTOR    +12D
003754: 26,2705           03525                                    BVECTOR
003755: 26,2706           60246                           ABVAL    NORM                                  #  LOAD B0, GET MAGNITUDE AND NORMALIZE
003756: 26,2707           00025                                    20D                                   #  SHIFT COUNT IN 20D


003758: 26,2710           51575                           VLOAD    ABVAL
003759: 26,2711           03533                                    BVECTOR    +6D                        #  LOAD B1, GET MAGNITUDE AND NORMALIZE
003760: 26,2712           71301                           NORM     DLOAD
003761: 26,2713           00027                                    22D                                   #  SHIFT COUNT IN 22D
003762: 26,2714           00027                                    22D                                   #  FIND WHICH SHIFT IS SMALLER
003763: 26,2715           50025                           DSU      BMN                                   #  BRANCH - B0 HAS SMALLER SHIFT COUNT
003764: 26,2716           00025                                    20D
003765: 26,2717           54723                                    VOK1
003766: 26,2720           52150                           LXA,1    GOTO
003767: 26,2721           00026                                    22D                                   #  LOAD X2 WITH THE SMALLER SHIFT COUNT
003768: 26,2722           54725                                    VOK2
003769: 26,2723           77750        VOK1               LXA,1
003770: 26,2724           00024                                    20D
003771: 26,2725           53775        VOK2               VLOAD    VSL*                                  #  THEN ADJUST B0, B1, DELTAQ AND VARIANCE
003772: 26,2726           03525                                    BVECTOR                               #  WITH THI SSHIFT COUNT
003773: 26,2727           20201                                    0,1
003774: 26,2730           27525                           STOVL    BVECTOR
003775: 26,2731           03533                                    BVECTOR    +6
003776: 26,2732           77657                           VSL*
003777: 26,2733           20201                                    0,1
003778: 26,2734           17533                           STODL    BVECTOR    +6
003779: 26,2735           03547                                    DELTAQ
003780: 26,2736           77657                           SL*
003781: 26,2737           20201                                    0,1
003782: 26,2740           03547                           STORE    DELTAQ
003783: 26,2741           53745                           DLOAD    SL*                                   #  GET RLC AND ADJUST FOR SCALE SHIFT
003784: 26,2742           00045                                    36D
003785: 26,2743           20200                                    0          -1,1
003786: 26,2744           41316                           DSQ      DMP                                   #  MULTIPLY RLC**2 BY VARIANCE
003787: 26,2745           02707                                    VARIANCE
003788: 26,2746           47012                           SL4      RTB                                   #  SHIFT TO CONFORM TO BVECTORS AND DELTAQ
003789: 26,2747           21633                                    TPMODE
003790: 26,2750           36707                           STCALL   VARIANCE                              #  AND STORE TP VARIANCE
003791: 26,2751           55401                                    LGCUPDTE
003792:
003793: 26,2752           77624                           CALL
003794: 26,2753           11244                                    GRP2PC
003795: 26,2754           77414                           BON      EXIT                                  #  ARE ANGLES TO BE DONE
003796: 26,2755           04307                                    SURFFLAG
003797: 26,2756           55176                                    RENDEND                               #  NO
003798: 26,2757  E7,1457                                  EBANK=   AIG
003799: 26,2757           33332        MXMYMZ             CAF      AIGBANK
003800: 26,2760           54006                           TS       BBANK
003801: 26,2761           31457                           CA       AIG                                   #  YES, COMPUTE  MX, MY, MZ
003802: 26,2762           54766                           TS       CDUSPOT
003803: 26,2763           31460                           CA       AMG
003804: 26,2764           54770                           TS       CDUSPOT    +2
003805: 26,2765           31461                           CA       AOG
003806: 26,2766           54772                           TS       CDUSPOT    +4                         #  GIMBL ANGLES NOW IN CDUSPOT FOR TRG*NBSM
003807: 26,2767           06037                           TC       INTPRET


003809: 26,2770           45175                           VLOAD    CALL
003810: 26,2771           06520                                    UNITX
003811: 26,2772           47664                                    TRG*NBSM
003812: 26,2773           76505                           VXM      VSL1
003813: 26,2774           01734                                    REFSMMAT
003814: 26,2775           27677                           STOVL    MX
003815: 26,2776           06516                                    UNITY
003816: 26,2777           77624                           CALL
003817: 26,3000           47673                                    *NBSM*
003818: 26,3001           76505                           VXM      VSL1
003819: 26,3002           01734                                    REFSMMAT
003820: 26,3003           27705                           STOVL    MY
003821: 26,3004           06514                                    UNITZ
003822: 26,3005           77624                           CALL
003823: 26,3006           47673                                    *NBSM*
003824: 26,3007           76505                           VXM      VSL1
003825: 26,3010           01734                                    REFSMMAT
003826: 26,3011           37713        SHAFTBQ            STCALL   MZ
003827: 26,3012           55361                                    RADARANG
003828: 26,3013           45131                           SSP      CALL                                  #  STORE SHAFT CODE (3) FOR R3 IN NOUN 49
003829: 26,3014           03746                                    WHCHREAD
003830: 26,3015           00003                           DEC      3          B-14
003831: 26,3016           11244                                    GRP2PC
003832: 26,3017           50375                           VLOAD    DOT                                   #  COMPUTE DELTAQ,B VECTORS FOR SHAFT ANG.
003833: 26,3020           03724                                    ULC
003834: 26,3021           03677                                    MX
003835: 26,3022           77752                           SL1
003836: 26,3023           24023                           STOVL    SINTH                                 #  18D
003837: 26,3024           03724                                    ULC
003838: 26,3025           72441                           DOT      SL1
003839: 26,3026           03713                                    MZ
003840: 26,3027           34021                           STCALL   COSTH                                 #  16D
003841: 26,3030           26510                                    ARCTAN
003842: 26,3031           41221                           BDSU     DMP
003843: 26,3032           03736                                    RRSHAFT
003844: 26,3033           15441                                    2PI/8
003845: 26,3034           41472                           SL3R     PUSH
003846: 26,3035           52545                           DLOAD    SL3
003847: 26,3036           01701                                    X789
003848: 26,3037           44257                           SRR*     BDSU                                  #  SHIFT FROM -5/-3 TO B0
003849: 26,3040           56176                                    0,2
003850: 26,3041           53605                           DMP      SRR*
003851: 26,3042           03722                                    RXZ
003852: 26,3043           21601                                    0,1                                   #  SHIFT TO EARTH/MOON SPHERE
003853: 26,3044           27547                           STOVL    DELTAQ                                #  EARTH B-29.  MOON B-27
003854: 26,3045           03724                                    ULC
003855: 26,3046           76435                           VXV      VSL1
003856: 26,3047           03705                                    MY
003857: 26,3050           77656                           UNIT
003858: 26,3051           57414                           BOFF     VCOMP                                 #  B0, COMP. IF CSM BEING CORRECTED


003860: 26,3052           00747                                    VEHUPFLG
003861: 26,3053           55054                                    +1
003862: 26,3054           27525                           STOVL    BVECTOR
003863: 26,3055           06522                                    ZEROVECS
003864: 26,3056           03533                           STORE    BVECTOR    +6
003865: 26,3057           17541                           STODL    BVECTOR    +12D
003866: 26,3060           03722                                    RXZ
003867: 26,3061           53657                           SR*      SRR*                                  #  SHIFT FROM EARTH/MOON SPHERE TO B-25
003868: 26,3062           20577                                    0          -2,1
003869: 26,3063           56176                                    0,2
003870: 26,3064           03541                           STORE    BVECTOR    +12D
003871: 26,3065           77735                           SLOAD
003872: 26,3066           02011                                    SHAFTVAR
003873: 26,3067           41215                           DAD      DMP
003874: 26,3070           15436                                    IMUVAR                                #  RAD**2 B12
003875: 26,3071           03722                                    RXZ
003876: 26,3072           41257                           SRR*     DMP
003877: 26,3073           21601                                    0,1                                   #  SHIFT TO EARTH/MOON SPHERE
003878: 26,3074           03722                                    RXZ
003879: 26,3075           53657                           SR*      SR*
003880: 26,3076           20577                                    0          -2,1
003881: 26,3077           57176                                    0,2
003882: 26,3100           47057                           SR*      RTB
003883: 26,3101           57176                                    0,2
003884: 26,3102           21633                                    TPMODE                                #  STORE VARIANCE TRIPLE PRECISION
003885: 26,3103           36707                           STCALL   VARIANCE                              #  B-40
003886: 26,3104           55401                                    LGCUPDTE
003887:
003888: 26,3105           77624                           CALL
003889: 26,3106           11244                                    GRP2PC
003890: 26,3107           77624        TRUNBQ             CALL
003891: 26,3110           55361                                    RADARANG
003892: 26,3111           45131                           SSP      CALL                                  #  STORE TRUNNION CODE (4) FOR R3 IN N49
003893: 26,3112           03746                                    WHCHREAD
003894: 26,3113           00004                           DEC      4          B-14
003895: 26,3114           11244                                    GRP2PC
003896: 26,3115           47375                           VLOAD    VXV
003897: 26,3116           03724                                    ULC
003898: 26,3117           03705                                    MY
003899: 26,3120           47372                           VSL1     VXV
003900: 26,3121           03724                                    ULC
003901: 26,3122           77772                           VSL1                                           #  (ULC X MY) X ULC
003902: 26,3123           57414                           BOFF     VCOMP                                 #  B0, COMP. IF CSM BEING CORRECTED
003903: 26,3124           00747                                    VEHUPFLG
003904: 26,3125           55126                                    +1
003905: 26,3126           27525                           STOVL    BVECTOR
003906: 26,3127           06522                                    ZEROVECS
003907: 26,3130           03533                           STORE    BVECTOR    +6
003908: 26,3131           17541                           STODL    BVECTOR    +12D
003909: 26,3132           03722                                    RXZ


003911: 26,3133           53657                           SR*      SRR*                                  #  SHIFT FROM EARTH/MOON SPHERE TO B-25
003912: 26,3134           20577                                    0          -2,1
003913: 26,3135           56176                                    0,2
003914: 26,3136           03543                           STORE    BVECTOR    +14D
003915: 26,3137           77735                           SLOAD
003916: 26,3140           02012                                    TRUNVAR
003917: 26,3141           41215                           DAD      DMP
003918: 26,3142           15436                                    IMUVAR
003919: 26,3143           03722                                    RXZ
003920: 26,3144           41257                           SRR*     DMP
003921: 26,3145           21601                                    0,1                                   #  SHIFT TO EARTH/MOON SPHERE
003922: 26,3146           03722                                    RXZ
003923: 26,3147           53657                           SR*      SR*
003924: 26,3150           20577                                    0          -2,1
003925: 26,3151           57176                                    0,2
003926: 26,3152           47057                           SR*      RTB
003927: 26,3153           57176                                    0,2
003928: 26,3154           21633                                    TPMODE                                #  STORE VARIANCE TRIPLE PRECISION
003929: 26,3155           16707                           STODL    VARIANCE
003930: 26,3156           03732                                    SINTHETA
003931: 26,3157           44336                           ASIN     BDSU                                  #  SIN THETA IN PD6
003932: 26,3160           03734                                    RRTRUN
003933: 26,3161           56405                           DMP      SL3R
003934: 26,3162           15441                                    2PI/8
003935: 26,3163           52525                           PDDL     SL3
003936: 26,3164           01703                                    X789       +2
003937: 26,3165           44257                           SRR*     BDSU                                  #  SHIFT FROM -5/-3 TO B0
003938: 26,3166           56176                                    0,2
003939: 26,3167           53605                           DMP      SRR*
003940: 26,3170           03722                                    RXZ
003941: 26,3171           21601                                    0,1
003942: 26,3172           37547                           STCALL   DELTAQ                                #  EARTH B-29.  MOON B-27
003943: 26,3173           55401                                    LGCUPDTE
003944: 26,3174           77624                           CALL
003945: 26,3175           11244                                    GRP2PC
003946: 26,3176           77650        RENDEND            GOTO
003947: 26,3177           50566                                    R22LEM93
003948:
003949:                                                                                                  #  FUNCTIONAL DESCRIPTION
003950:                                                                                                  #        LSR22.4 IS THE ENTRY TO PERFORM LUNAR SURFACE NAVIGATION FOR THE LM
003951:                                                                                                  #        COMPUTER ONLY.  THIS ROUTINE COMPUTES THE B-VECTORS AND DELTA Q FOR RANGE
003952:                                                                                                  #        AND RANGE RATE MEASURED BY THE RENDEZVOUS RADAR
003953:
003954:                                                                                                  #  SUBROUTINES CALLED
003955:                                                                                                  #        INSTALL         LGCUPDTE        INCORP1         RP-TO-R
003956:                                                                                                  #        INTEGRV         GETULC          INCORP2
003957:
003958:                                                                                                  #  OUTPUT
003959:                                                                                                  #        CORRECTED CSM STATE VECTOR (PERMANENT)
003960:                                                                                                  #        NUMBER OF MARKS INCORPORATED IN MARKCTR


003962:                                                                                                  #        MAGNITUDE OF POSITION DEVIATION (FOR DISPLAY) IN R22 DISP METERS B-29
003963:                                                                                                  #        MAGNITUDE OF VELOCITY DEVIATION (FOR DISPLAY) IN R22DISP +2 M/CSEC B-7
003964:                                                                                                  #        UPDATED W-MATRIX
003965:
003966:                                                                                                  #  ERASABLE INITIALIZATION REQUIRED
003967:                                                                                                  #        LM AND CSM STATE VECTORS
003968:                                                                                                  #        W-MATRIX
003969:                                                                                                  #        MARK TIME IN MKTIME
003970:                                                                                                  #        RADAR RANGE IN RM METERS B-29
003971:                                                                                                  #        RANGE RATE IN RDOTM METERS/CSEC B-7
003972:                                                                                                  #        VEHUPFLG
003973:
003974: 26,3200           77624        LSR22.4            CALL
003975: 26,3201           27414                                    INTSTALL
003976: 26,3202           43014                           SET      CLEAR
003977: 26,3203           01472                                    STATEFLG
003978: 26,3204           01674                                    VINTFLAG                              #  CALL TO GET LM POS + VEL IN REF COORD.
003979: 26,3205           77624                           CALL
003980: 26,3206           55242                                    INTGRCAL
003981: 26,3207           77624                           CALL
003982: 26,3210           11244                                    GRP2PC
003983: 26,3211           45014                           CLEAR    CALL
003984: 26,3212           02666                                    DMENFLG                               #  SET MATRIX SIZE TO 6X6 FOR INCORP
003985: 26,3213           27414                                    INTSTALL
003986: 26,3214           46145                           DLOAD    BHIZ                                  #  IS THIS FIRST TIME THROUGH
003987: 26,3215           03463                                    MARKCTR
003988: 26,3216           55231                                    INITWMX6                              #  YES. INITIALIZE 6X6 W-MATRIX
003989: 26,3217           43014                           CLEAR    SET
003990: 26,3220           01675                                    D6OR9FLG
003991: 26,3221           01476                                    DIM0FLAG
003992: 26,3222           43014                           SET      CLEAR
003993: 26,3223           01474                                    VINTFLAG
003994: 26,3224           01673                                    INTYPFLG
003995: 26,3225           77624                           CALL
003996: 26,3226           55242                                    INTGRCAL
003997: 26,3227           77650                           GOTO
003998: 26,3230           54510                                    RANGEBQ
003999:
004000: 26,3231           77624        INITWMX6           CALL
004001: 26,3232           55251                                    WLINIT                                #  INITIALIZE W-MATRIX
004002: 26,3233           45014                           SET      CALL
004003: 26,3234           01474                                    VINTFLAG
004004: 26,3235           26644                                    SETIFLGS
004005: 26,3236           77624                           CALL
004006: 26,3237           55242                                    INTGRCAL
004007: 26,3240           77650                           GOTO
004008: 26,3241           54510                                    RANGEBQ
004009:
004010:                                                                                                  #  THIS ROUTINE CLEARS RFINAL (DP) AND CALLS INTEGRV


004012: 26,3242           71220        INTGRCAL           STQ      DLOAD
004013: 26,3243           03675                                    IGRET
004014: 26,3244           03755                                    MKTIME
004015: 26,3245           34041                           STCALL   TDEC1
004016: 26,3246           27134                                    INTEGRV
004017: 26,3247           77650                           GOTO
004018: 26,3250           03675                                    IGRET
004019:
004020:                                                                                                  #  THIS ROUTINE INITIALIZES THE W-MATRIX BY ZEROING ALL W THEN SETTING
004021:                                                                                                  #  DIAGONAL ELEMENTS TO INITIAL STORED VALUES.
004022:
004023: 26,3251  E5,1400                                  EBANK=   W
004024: 26,3251           77776        WLINIT             EXIT
004025: 26,3252           33331                           CAF      WBANK
004026: 26,3253           54006                           TS       BBANK
004027: 26,3254           33437                           CAF      WSIZE
004028: 26,3255           55257                           TS       W.IND
004029: 26,3256           34755                           CAF      ZERO
004030: 26,3257           51257                           INDEX    W.IND
004031: 26,3260           55400                           TS       W
004032: 26,3261           11257                           CCS      W.IND
004033: 26,3262           03255                           TC       -5
004034: 26,3263           33332                           CAF      AIGBANK                               #  RESTORE EBANK 7
004035: 26,3264           54006                           TS       BBANK
004036: 26,3265           06037                           TC       INTPRET
004037: 26,3266           67214                           BON      SLOAD                                 #  IF ON LUNAR SURFACE, INITIALIZE WITH
004038: 26,3267           04307                                    SURFFLAG                              #  WSURFPOS AND WSURFVEL INSTEAD OF
004039: 26,3270           55274                                    WLSRFPOS                              #  WRENDPOS AND WRENDVEL
004040: 26,3271           02001                                    WRENDPOS
004041: 26,3272           77650                           GOTO
004042: 26,3273           55276                                    WPOSTORE
004043: 26,3274           77735        WLSRFPOS           SLOAD
004044: 26,3275           02007                                    WSURFPOS
004045: 26,3276           77661        WPOSTORE           SR                                             #  SHIFT TO B-19 SCALE
004046: 26,3277           20606                                    5
004047: 26,3300           02401                           STORE    W
004048: 26,3301           02411                           STORE    W          +8D
004049: 26,3302           02421                           STORE    W          +16D
004050: 26,3303           67214                           BON      SLOAD
004051: 26,3304           04307                                    SURFFLAG
004052: 26,3305           55311                                    WLSRFVEL
004053: 26,3306           02002                                    WRENDVEL
004054: 26,3307           77650                           GOTO
004055: 26,3310           55313                                    WVELSTOR
004056: 26,3311           77735        WLSRFVEL           SLOAD
004057: 26,3312           02010                                    WSURFVEL
004058: 26,3313           02511        WVELSTOR           STORE    W          +72D
004059: 26,3314           02521                           STORE    W          +80D
004060: 26,3315           02531                           STORE    W          +88D
004061: 26,3316           77735                           SLOAD


004063: 26,3317           02003                                    WSHAFT
004064: 26,3320           02621                           STORE    W          +144D
004065: 26,3321           77735                           SLOAD
004066: 26,3322           02004                                    WTRUN
004067: 26,3323           02631                           STORE    W          +152D
004068: 26,3324           66214                           SET      SSP                                   #  SET RENDWFLG - W-MATRIX VALID
004069: 26,3325           02476                                    RENDWFLG
004070: 26,3326           03463                                    MARKCTR                               #  SET MARK COUNTER EQUAL ZERO
004071: 26,3327           00000                                    0
004072: 26,3330           77616                           RVQ
004073:
004074: 26,3331  E5,1400                                  EBANK=   W
004075: 26,3331           54065        WBANK              BBCON    WLINIT
004076: 26,3332  E7,1457                                  EBANK=   AIG
004077: 26,3332           54067        AIGBANK            BBCON    LSR22.3
004078:
004079:                                                                                                  #  GETULC
004080:
004081:                                                                                                  #  THIS SUBROUTINE COMPUTES THE RELATIVE POSITION VECTOR BETWEEN THE CSM
004082:                                                                                                  #  AND THE LM, LEAVING THE UNIT VECTOR IN THE PUSHLIST AND MPAC AND THE
004083:                                                                                                  #  MAGNITUDE IN 36D.
004084:
004085: 26,3333           77201        GETULC             SETPD    VLOAD
004086: 26,3334           00001                                    0
004087: 26,3335           01645                                    DELTALEM
004088: 26,3336           77754                           LXA,2
004089: 26,3337           03720                                    SCALSHFT                              #  LOAD X2 WITH SCALE SHIFT
004090: 26,3340           53257                           VSR*     VAD
004091: 26,3341           57165                                    9D,2                                  #  SHIFT FOR EARTH/MOON SPHERE
004092: 26,3342           01661                                    RCVLEM
004093: 26,3343           53715                           PDVL     VSR*
004094: 26,3344           01573                                    DELTACSM
004095: 26,3345           57165                                    9D,2                                  #  SHIFT FOR EARTH/MOON SPHERE
004096: 26,3346           52255                           VAD      VSU
004097: 26,3347           01607                                    RCVCSM
004098: 26,3350           41434                           RTB      PUSH                                  #  USE NORMUNIT TO PRESERVE ACCURACY
004099: 26,3351           21724                                    NORMUNX1
004100: 26,3352           17724                           STODL    ULC
004101: 26,3353           00045                                    36D
004102: 26,3354           77657                           SL*                                            #  ADJUST MAGNITUDE FROM NORMUNIT
004103: 26,3355           20201                                    0,1
004104: 26,3356           24045                           STOVL    36D                                   #  ULC IN PD0 AND MPAC,RLC IN 36D
004105: 26,3357           03724                                    ULC
004106: 26,3360           77616                           RVQ
004107:
004108:                                                                                                  #  RADARANG
004109:
004110:                                                                                                  #  THIS SUBROUTINE COMPUTES SINTHETA = -ULC DOT MY
004111:                                                                                                  #  RXZ = (SQRT (1-SINTHETA**2))RLC
004112:                                                                                                  #  OUTPUT
004113:                                                                                                  #        ULC IN ULC, PD0


004115:                                                                                                  #        RLC IN PD36D
004116:                                                                                                  #        SIN THETA IN SINTHETA AND PD6
004117:                                                                                                  #        RXZ NORM IN RXZ (N IN X1)
004118:
004119: 26,3361           45020        RADARANG           STQ      CALL
004120: 26,3362           03675                                    RDRET
004121: 26,3363           55333                                    GETULC
004122: 26,3364           50276                           VCOMP    DOT
004123: 26,3365           03705                                    MY
004124: 26,3366           41572                           SL1R     PUSH                                  #  SIN THETA TO PD6
004125: 26,3367           03732                           STORE    SINTHETA
004126: 26,3370           44316                           DSQ      BDSU
004127: 26,3371           06512                                    DP1/4TH                               #  1-(SIN THETA)**2
004128: 26,3372           41366                           SQRT     DMP
004129: 26,3373           00045                                    36D
004130: 26,3374           60352                           SL1      NORM
004131: 26,3375           00047                                    X1                                    #  SET SHIFT COUNTER IN X1
004132: 26,3376           03722                           STORE    RXZ
004133: 26,3377           77650                           GOTO                                           #  EXIT
004134: 26,3400           03675                                    RDRET
004135: 26,3401           45020        LGCUPDTE           STQ      CALL
004136: 26,3402           03675                                    LGRET
004137: 26,3403           46531                                    INCORP1
004138: 26,3404           51575                           VLOAD    ABVAL
004139: 26,3405           02673                                    DELTAX     +6
004140: 26,3406           53754                           LXA,2    SRR*
004141: 26,3407           03720                                    SCALSHFT                              #  0 - MOON.  2 - EARTH
004142: 26,3410           56174                                    2,2                                   #  SET VEL DISPLAY TO B-7
004143: 26,3411           24317                           STOVL    R22DISP    +2
004144: 26,3412           02665                                    DELTAX
004145: 26,3413           53646                           ABVAL    SRR*
004146: 26,3414           56174                                    2,2                                   #  SET POS DISPLAY TO B-29
004147: 26,3415           00315                           STORE    R22DISP
004148: 26,3416           54335                           SLOAD    SR
004149: 26,3417           02005                                    RMAX
004150: 26,3420           20613                                    10D
004151: 26,3421           50025                           DSU      BMN
004152: 26,3422           00315                                    R22DISP
004153: 26,3423           50572                                    R22LEM96                              #  GO DISPLAY
004154: 26,3424           45335                           SLOAD    DSU
004155: 26,3425           02006                                    VMAX
004156: 26,3426           00317                                    R22DISP    +2                         #  VMAX MINUS VEL. DEVIATION
004157: 26,3427           77640                           BMN
004158: 26,3430           50572                                    R22LEM96                              #  GO DISPLAY
004159: 26,3431           77624        ASTOK              CALL
004160: 26,3432           46743                                    INCORP2
004161: 26,3433           77650                           GOTO
004162: 26,3434           03675                                    LGRET
004163: 26,3435           00103 03370  IMUVAR             2DEC     E-6        B12                        #  RAD**2
004164:
004165: 26,3437           00241        WSIZE              DEC      161        B-14


004167: 26,3440           31103 36652  2PI/8              2DEC     3.141592653 B-2
004168:
004169: 26,3442  E7,1456                                  EBANK=   LOSCOUNT


004171:
004172:                                                                                                  #  PROGRAM NAME LRS24.1          RR SEARCH ROUTINE
004173:                                                                                                  #  MOD NO 0                      BY P VOLANTE   SDC              DATE 1-15-67
004174:
004175:                                                                                                  #  FUNCTIONAL DESCRIPTION
004176:
004177:                                                                                                  #  DRIVES THE RENDEZVOUS RADAR IN A HEXAGONAL SEARCH PATTERN ABOUT THE LOS TO THE CSM (COMPUTED FROM THE CSM AND LM
004178:                                                                                                  #  STATE VECTORS) CHECKING FOR THE DATA GOOD DISCRETE AND MONITORING THE ANGLE BETWEEN THE RADAR BORESIGHT AND THE
004179:                                                                                                  #  LM +Z AXIS.  IF THIS ANGLE EXCEEDS 30 DEGREES THE PREFERRED TRACKING ATTITUDE ROUTINE IS CALLED TO PERFORM AN
004180:                                                                                                  #  ATTITUDE MANEUVER.
004181:
004182:                                                                                                  #  CALLING SEQUENCE - BANKCALL FOR LRS24.1
004183:
004184:                                                                                                  #  SUBROUTINES CALLED
004185:
004186:                                                                                                  #        LEMCONIC        R61LEM
004187:                                                                                                  #        CSMCONIC        RRDESSM
004188:                                                                                                  #        JOBDELAY        FLAGDOWN
004189:                                                                                                  #        WAITLIST        FLAGUP
004190:                                                                                                  #        RRNB            BANKCALL
004191:
004192:                                                                                                  #  EXIT - TO ENDOFJOB WHEN THE SEARCH FLAG (SRCHOPT) IS NOT SET
004193:
004194:                                                                                                  #  OUTPUT
004195:
004196:                                                                                                  #        DATAGOOD (SP) - FOR DISPLAY IN R1 -     00000 INDICATES NO LOCKON
004197:                                                                                                  #                                                11111 INDICATES LOCKON ACHIEVED
004198:                                                                                                  #        OMEGAD (SP)   - FOR DISPLAY IN R2 -     ANGLE BETWEEN RR BORESIGHT VECTOR AND THE SPACECRAFT +Z AXIS
004199:
004200:                                                                                                  #  ERASABLE INITIALIZATION REQUIRED
004201:
004202:                                                                                                  #        SEARCH FLAG MUST BE SET
004203:                                                                                                  #        LM AND CSM STATE VECTORS AND REFSMMAT MATRIX
004204:
004205:                                                                                                  #  DEBRIS
004206:
004207:                                                                                                  #        RLMSRCH         UXVECT
004208:                                                                                                  #        VXRLM           UYVECT
004209:                                                                                                  #        LOSDESRD        NSRCHPNT
004210:                                                                                                  #        DATAGOOD        OMEGAD
004211:                                                                                                  #        MPAC            PUSHLIST
004212:
004213: 26,3442                                           COUNT*   $$/LRS24
004214: 26,3442           34755        LRS24.1            CAF      ZERO
004215: 26,3443           55736                           TS       NSRCHPNT                              #  SET SEARCH PATTERN POINT COUNTER TO ZERO
004216: 26,3444           34736        CHKSRCH            CAF      BIT14                                 #  ISSUE AUTO TRACK ENABLE TO RADAR
004217: 26,3445           00006                           EXTEND


004219: 26,3446           05012                           WOR      CHAN12
004220: 26,3447           34736                           CAF      SRCHOBIT                              #  CHECK IF SEARCH STILL REQUESTED
004221: 26,3450           70076                           MASK     FLAGWRD2                              #  (SRCHOPT FLAG SET)
004222: 26,3451           00006                           EXTEND
004223: 26,3452           15155                           BZF      ENDOFJOB                              #  NO-TERMINATE JOB
004224:
004225: 26,3453           33713                           CAF      6SECONDS                              #  SCHEDULE TASK TO DRIVE RADAR TO NEXT PT.
004226: 26,3454           00004                           INHINT
004227: 26,3455           05203                           TC       WAITLIST                              #  IN 6 SECONDS
004228: 26,3456  E7,1456                                  EBANK=   LOSCOUNT
004229: 26,3456           03643 54067                     2CADR    CALLDGCH
004230:
004231: 26,3460           00003                           RELINT
004232: 26,3461           40110                           CS       RADMODES                              #  IS REMODE IN PROGRESS
004233: 26,3462           74736                           MASK     REMODBIT
004234: 26,3463           00006                           EXTEND
004235: 26,3464           15155                           BZF      ENDOFJOB                              #  YES - WAIT SIX SECONDS
004236: 26,3465           06037                           TC       INTPRET
004237:
004238: 26,3466           43234                           RTB      DAD                                   #  COMPUTE LOS AT PRESENT TIME + 1.5 SEC.
004239: 26,3467           21573                                    LOADTIME
004240: 26,3470           15715                                    1.5SECS
004241: 26,3471           34041        LRS24.11           STCALL   TDEC1
004242: 26,3472           27100                                    LEMCONIC                              #  EXTRAPOLATE LM STATE VECTOR
004243: 26,3473           77775                           VLOAD
004244: 26,3474           00001                                    RATT
004245: 26,3475           27676                           STOVL    RLMSRCH                               #  SAVE LEM POSITION
004246: 26,3476           00007                                    VATT
004247: 26,3477           17740                           STODL    SAVLEMV                               #  SAVE LEM VELOCITY
004248: 26,3500           00015                                    TAT
004249: 26,3501           34041                           STCALL   TDEC1                                 #  EXTRAPOLATE CSM STATE VECTOR
004250: 26,3502           27066                                    CSMCONIC                              #  EXTRAPOLATE CSM STATE VECTOR
004251: 26,3503           52375                           VLOAD    VSU                                   #  LOS VECTOR = R(CSM) - R(LM)
004252: 26,3504           00001                                    RATT
004253: 26,3505           03676                                    RLMSRCH
004254: 26,3506           77656                           UNIT
004255: 26,3507           27712                           STOVL    LOSDESRD                              #  STORE DESIRED LOS
004256: 26,3510           00007                                    VATT                                  #  COMPUTE UNIT(V(CM) CROSS R(CM))
004257: 26,3511           47256                           UNIT     VXV
004258: 26,3512           00001                                    RATT
004259: 26,3513           77656                           UNIT
004260: 26,3514           03704                           STORE    VXRCM
004261: 26,3515           52375                           VLOAD    VSU
004262: 26,3516           00007                                    VATT
004263: 26,3517           03740                                    SAVLEMV
004264: 26,3520           76521                           MXV      VSL1                                  #  CONVERT FROM REFERENCE TO STABLE MEMBER
004265: 26,3521           01734                                    REFSMMAT
004266: 26,3522           03740                           STORE    SAVLEMV                               #  VLC = V(CSM) - V(LM)
004267: 26,3523           53135                           SLOAD    BZE                                   #  CHECK IF N=0


004269: 26,3524           03737                                    NSRCHPNT
004270: 26,3525           55636                                    DESGLOS                               #  YES - DESIGNATE ALONG LOS
004271: 26,3526           53025                           DSU      BZE                                   #  IS N=1
004272: 26,3527           15711                                    ONEOCT                                #  YES - CALCULATE X AND Y AXES OF
004273: 26,3530           55623                                    CALCXY                                #  SEARCH PATTERN COORDINATE SYSTEM
004274: 26,3531           77775                           VLOAD                                          #  NO - ROTATE X-Y AXES TO NEXT SEARCH POINT
004275: 26,3532           03720                                    UXVECT
004276: 26,3533           24015                           STOVL    UXVECTPR                              #  SAVE ORIGINAL X AND Y VECTORS
004277: 26,3534           03726                                    UYVECT                                #  UXPRIME = ORIGINAL UX
004278: 26,3535           00023                           STORE    UYVECTPR                              #  UYPRIME = ORIGINAL UY
004279: 26,3536           77761                           VXSC
004280: 26,3537           15705                                    SIN60DEG                              #  UX = (COS 60)UXPR + (SIN 60)UYPR
004281: 26,3540           27720                           STOVL    UXVECT
004282: 26,3541           00015                                    UXVECTPR
004283: 26,3542           53361                           VXSC     VAD
004284: 26,3543           06520                                    COS60DEG
004285: 26,3544           03720                                    UXVECT
004286: 26,3545           77656                           UNIT
004287: 26,3546           27720                           STOVL    UXVECT
004288: 26,3547           00015                                    UXVECTPR                              #  UY = (-SIN 60)UXPR + (COS 60)UYPR
004289: 26,3550           77761                           VXSC
004290: 26,3551           15705                                    SIN60DEG
004291: 26,3552           27726                           STOVL    UYVECT
004292: 26,3553           00023                                    UYVECTPR
004293: 26,3554           52361                           VXSC     VSU
004294: 26,3555           06520                                    COS60DEG
004295: 26,3556           03726                                    UYVECT
004296: 26,3557           77656                           UNIT
004297: 26,3560           03726                           STORE    UYVECT
004298: 26,3561           53361        OFFCALC            VXSC     VAD                                   #  OFFSET VECTOR = K(UY)
004299: 26,3562           15707                                    OFFSTFAC                              #  LOS VECTOR + OFFSET VECTOR DEFINES
004300: 26,3563           03712                                    LOSDESRD                              #  DESIRED POINT IN SEARCH PATTERN
004301: 26,3564           64256                           UNIT     MXV
004302: 26,3565           01734                                    REFSMMAT                              #  CONVERT TO STABLE MEMBER COORDINATES
004303: 26,3566           77772                           VSL1
004304: 26,3567           25102        CONTDESG           STOVL    RRTARGET
004305: 26,3570           03740                                    SAVLEMV
004306: 26,3571           01761                           STORE    LOSVEL
004307: 26,3572           77776                           EXIT
004308: 26,3573           00004                           INHINT
004309: 26,3574           06027                           TC       KILLTASK                              #  KILL ANY PRESENTLY WAITLISTED TASK
004310: 26,3575           52602                           CADR     DESLOOP    +2                         #  WHICH WOULD DESIGNATE TO THE LAST
004311:                                                                                                  #  POINT IN THE PATTERN
004312: 26,3576           44735        CONTDES2           CS       CDESBIT
004313: 26,3577           70110                           MASK     RADMODES                              #  SET BIT 15 OF RADMODES TO INDICATE
004314: 26,3600           64735                           AD       CDESBIT                               #  A CONTINUOUS DESIGNATE WANTED.
004315: 26,3601           54110                           TS       RADMODES
004316: 26,3602           06037                           TC       INTPRET
004317:
004318: 26,3603           77624                           CALL


004320: 26,3604           52373                                    RRDESSM                               #  DESIGNATE RADAR TO RRTARGET VECTOR
004321:
004322: 26,3605           77776                           EXIT
004323: 26,3606           03675                           TC       LIMALARM                              #  LOS NOT IN MODE 2 COVERAGE (P22)
004324: 26,3607           03675                           TC       LIMALARM                              #  VEHICLE MANEUVER REQUIRED (P20)
004325:
004326:                                                                                                  #  COMPUTE OMEGA,ANGLE BETWEEN RR LOS AND
004327:                                                                                                  #  SPACECRAFT +Z AXIS
004328: 26,3610           00006        OMEGCALC           EXTEND
004329: 26,3611           30036                           DCA      CDUT
004330: 26,3612           53753                           DXCH     TANGNB
004331: 26,3613           06037                           TC       INTPRET
004332: 26,3614           77624                           CALL
004333: 26,3615           46041                                    RRNB
004334: 26,3616           65545                           DLOAD    ACOS                                  #  OMEGA IS ARCCOSINE OF Z-COMPONENT OF
004335: 26,3617           00045                                    36D                                   #  VECTOR COMPUTED BY RRNB (LEFT AT 32D)
004336: 26,3620           03735                           STORE    OMEGDISP                              #  STORE FOR DISPLAY IN R2
004337: 26,3621           77776                           EXIT
004338: 26,3622           05155                           TC       ENDOFJOB


004340:                                                                                                  #  CALCULATE X AND Y VECTORS FOR SEARCH PATTERN COORDINATE SYSTEM
004341:
004342: 26,3623           47375        CALCXY             VLOAD    VXV
004343: 26,3624           03704                                    VXRCM
004344: 26,3625           03712                                    LOSDESRD
004345: 26,3626           77656                           UNIT
004346: 26,3627           27720                           STOVL    UXVECT                                #  UX = (VLM X RLM) X LOS
004347: 26,3630           03712                                    LOSDESRD
004348: 26,3631           53435                           VXV      UNIT
004349: 26,3632           03720                                    UXVECT
004350: 26,3633           03726                           STORE    UYVECT                                #  UY = LOS X UX
004351: 26,3634           77650                           GOTO
004352: 26,3635           55561                                    OFFCALC
004353:
004354: 26,3636           64375        DESGLOS            VLOAD    MXV                                   #  WHEN N= 0,DESIGNATE ALONG LOS
004355: 26,3637           03712                                    LOSDESRD
004356: 26,3640           01734                                    REFSMMAT                              #  CONVERT LOS FROM REFERENCE TO SM COORDS
004357: 26,3641           52172                           VSL1     GOTO
004358: 26,3642           55567                                    CONTDESG
004359:
004360: 26,3643           30074        CALLDGCH           CAE      FLAGWRD0                              #  IS RENDEZVOUS FLAG SET
004361: 26,3644           74745                           MASK     RNDVZBIT
004362: 26,3645           00006                           EXTEND
004363: 26,3646           15261                           BZF      TASKOVER                              #  NO - EXIT R24
004364: 26,3647           37713                           CAF      PRIO25                                #  YES - SCHEDULE JOB TO DRIVE RADAR TO NEXT
004365: 26,3650           05105                           TC       FINDVAC                               #  POINT IN SEARCH PATTERN
004366: 26,3651  E7,1675                                  EBANK=   RLMSRCH
004367: 26,3651           03654 54067                     2CADR    DATGDCHK
004368:
004369: 26,3653           05261                           TC       TASKOVER
004370:
004371: 26,3654           34750        DATGDCHK           CAF      BIT4
004372: 26,3655           00006                           EXTEND                                         #  CHECK IF DATA GOOD DISCRETE PRESENT
004373: 26,3656           02033                           RAND     CHAN33
004374: 26,3657           00006                           EXTEND
004375: 26,3660           13667                           BZF      STORE1S                               #  YES - GO TO STORE 11111 FOR DISPLAY IN R1
004376: 26,3661           46242                           CS       SIX
004377: 26,3662           61736                           AD       NSRCHPNT                              #  IS N GREATER THAN 6
004378: 26,3663           00006                           EXTEND
004379: 26,3664           13442                           BZF      LRS24.1                               #  YES - RESET N = 0 AND START AROUND AGAIN
004380: 26,3665           25736                           INCR     NSRCHPNT                              #  NO-SET N = N+1 AN GO TO
004381: 26,3666           13444                           TCF      CHKSRCH                               #  NEXT POINT IN PATTERN
004382:
004383: 26,3667           33703        STORE1S            CAF      ALL1S                                 #  STORE 11111 FOR DISPLAY IN R1
004384: 26,3670           55733                           TS       DATAGOOD


004386: 26,3671           00004                           INHINT
004387: 26,3672           06027                           TC       KILLTASK                              #  DELETE DESIGNATE TASK FROM
004388: 26,3673           52602                           CADR     DESLOOP    +2                         #  WAITLIST USING KILLTASK
004389: 26,3674           05155                           TC       ENDOFJOB
004390:
004391: 26,3675           05567        LIMALARM           TC       ALARM                                 #  ISSUE ALARM 527 - LOS NOT IN MODE2
004392: 26,3676           00527                           OCT      527                                   #  COVERAGE IN P22 OR VEHICLE MANEUVER
004393: 26,3677           00004                           INHINT                                         #  REQUIRED IN P20
004394: 26,3700           06027                           TC       KILLTASK                              #  KILL WAITLIST CALL FOR NEXT
004395: 26,3701           55643                           CADR     CALLDGCH                              #  POINT IN SEARCH PATTERN
004396: 26,3702           05155                           TC       ENDOFJOB
004397:
004398: 26,3703           25547        ALL1S              DEC      11111      B-14
004399: 26,3704           33555 01106  SIN60DEG           2DEC     .86603
004400: 26,3706  23,2517               COS60DEG           =        DPHALF                                #  (2DEC .50)
004401: 26,3706                        UXVECTPR           EQUALS   12D                                   #  PREVIOUS
004402: 26,3706                        UYVECTPR           EQUALS   18D
004403: 26,3706                        RLMUNIT            EQUALS   12D
004404: 26,3706           01642 11045  OFFSTFAC           2DEC     0.05678                               #  TANGENT OF 3.25 DEGREES
004405:
004406: 26,3710           00001        ONEOCT             OCT      00001                                 #  **** NOTE - THESE TWO CONSTANTS MUST ****
004407: 26,3711           00000 00454  3SECONDS           2DEC     300        B-28                       #  **** BE IN THIS ORDER BECAUSE         ****
004408:
004409:                                                                                                  #  **** ONEOCT NEEDS A LOWER ORDER       ****
004410:                                                                                                  #  **** WORD OF ZEROES                   ****
004411: 26,3713           01130        6SECONDS           DEC      600        B-14
004412: 26,3714           00000 00226  1.5SECS            2DEC     150        B-28
004413:
004414: 26,3716  23,2521               ZERO/SP            EQUALS   HI6ZEROS
004415:
004416:    4616                                           BLOCK    02
004417:    6000                                           SETLOC   FFTAG5
004418:    6000                                           BANK
004419:    6022                                           COUNT*   $$/P20
004420:    6022           00006        GOTOV56            EXTEND                                         #  P20 TERMINATES BY GOTOV56 INSTEAD OF
004421:    6023           36026                           DCA      VB56CADR                              #  GOTOPOOH
004422:    6024           15165                           TCF      SUPDXCHZ
004423:    6025  E7,1471                                  EBANK=   WHOCARES
004424:    6025           03024 66107  VB56CADR           2CADR    TRMTRACK
004425:


004427:                                                                                                  #  PROGRAM NAME: R29     (RENDEZVOUS RADAR DESIGNATE DURING POWERED FLIGHT)
004428:                                                                                                  #  MOD NO. 2     BY H. BLAIR-SMITH       JULY 2, 1968.
004429:
004430:                                                                                                  #  FUNCTIONAL DESCRIPTION:
004431:
004432:                                                                                                  #        DESIGNATES THE RENDEZVOUS RADAR TOWARD THE COMPUTED LOS TO THE CSM, WITH THE CHIEF OBJECTIVE OF OBTAINING RANGE
004433:                                                                                                  #        AND RANGE RATE DATA AT 2-SECOND INTERVALS FOR TRANSMISSION TO THE GROUND.  WHEN THE RR IS WITHIN .5 DEGREE OF
004434:                                                                                                  #        THE COMPUTED LOS, TRACKING IS ENABLED, AND DESIGNATION CONTINUES UNTIL THE DATA-GOOD DISCRETE IS RECEIVED.  AT
004435:                                                                                                  #        THAT POINT, DESIGNATION CEASES AND A RADAR-READING ROUTINE TAKES OVER, PREPARING A CONSISTENT SET OF DATA FOR
004436:                                                                                                  #        DOWN TELEMETRY.  THE SET INCLUDES RANGE, RANGE RATE, MARK TIME, TWO RR CDU ANGLES, THREE IMUCDU ANGLES, AND AN
004437:                                                                                                  #        INDICATOR WHICH IS 1 WHEN THE SET IS CONSISTENT AND 0 OTHERWISE.  THE INDICATOR IS IN TRKMKCNT.
004438:
004439:                                                                                                  #  CALLING SEQUENCE:  BEGUN EVERY 2 SECONDS AS AN INTEGRAL PART OF SERVICER
004440:
004441:                                                                                                  #  SUBROUTINES CALLED:
004442:
004443:                                                                                                  #        REMODE          RRTONLY
004444:                                                                                                  #        UNIT            MPACVBUF
004445:                                                                                                  #        QUICTRIG        AX*SR*T
004446:                                                                                                  #        SPSIN           SPCOS
004447:                                                                                                  #        SETRRECR        RROUT
004448:                                                                                                  #        RRRDOT          RRRANGE
004449:
004450:                                                                                                  #  EXIT:  TO NOR29NOW, IN SERVICER.
004451:
004452:                                                                                                  #  OUTPUT:  (ALL FOR DOWNLINK)
004453:
004454:                                                                                                  #        RM              RDOTM           (RAW)
004455:                                                                                                  #        AIG             AMG
004456:                                                                                                  #        AOG             TRKMKCNT        TRKMKCNT = 00001 IF SET IS CONSISTENT,
004457:                                                                                                  #        TANGNB          TANGNB +1       OTHERWISE TRKMKCNT = 00000.
004458:                                                                                                  #        MKTIME


004460:
004461:                                                                                                  #  ERASABLE INITIALIZATION REQUIRED:
004462:
004463:                                                                                                  #        NOR29FLG        READRFLG                (TO 1 AND 0 BY FRESH START) (RESET NOR29FLG TO LET SERVICER RUN R29)
004464:                                                                                                  #        PIPTIME         RADMODES (BIT 10)       (BIT SET TO 0 BY FRESH START)
004465:                                                                                                  #        R(CSM)          V(CSM)
004466:                                                                                                  #        R               V                       (PIPTIME THRU V BY AVE G IN SERVICER)
004467:
004468:                                                                                                  #  DEBRIS:
004469:
004470:                                                                                                  #        RADMODES (BIT 10)
004471:                                                                                                  #        LOSSM           LOSVDT/4                (= RRTARGET & LOSVEL)
004472:                                                                                                  #        SAVECDUT        OLDESFLG                (SAVECDUT = MLOSV)
004473:                                                                                                  #        LOSCMFLG        READRFLG
004474:
004475:                                                                                                  #  ALARMS:  NONE.
004476:
004477:                                                                                                  #  COMPONENT JOBS AND TASKS:
004478:
004479:                                                                                                  #        INITIALIZING, IF RR IS FOUND TO BE IN MODE 1:  JOB R29REMOJ AND TASK REMODE;  ALWAYS: TASK PREPOS29.
004480:                                                                                                  #        DESIGNATING:  TASK BEGDES29 & JOB R29DODES.
004481:                                                                                                  #        RADAR READING:  TASK R29READ AND JOB R29RDJOB.  ALL JOBS ARE NOVAC TYPE.
004482:
004483: 33,2045                                           BANK     33
004484: 33,2000                                           SETLOC   R29/SERV
004485: 33,2000                                           BANK
004486:
004487: 33,2045                                           COUNT*   $$/r29
004488:
004489: 33,2045     5014               NR29&RDR           EQUALS   EBANK5
004490:


004492:                                                                                                  #  SERVICER COMES TO R29 FROM "R29?" IF NOR29FLG, READRFLG, RRREMODE, RRCDUZRO, RRREPOS, AND DISPLAY-INERTIAL-DATA
004493:                                                                                                  #  ARE ALL RESET, AND THE RR IS IN LGC MODE (OFTEN CONFUSINGLY CALLED AUTO MODE).
004494:
004495: 33,2045           40110        R29                CS       RADMODES
004496: 33,2046           74742                           MASK     DESIGBIT
004497: 33,2047           00006                           EXTEND
004498: 33,2050           12123                           BZF      R29.LOS                               #  BRANCH IF DESIGNATION IS ALREADY ON.
004499:
004500: 33,2051           00004                           INHINT
004501: 33,2052           26110                           ADS      RADMODES                              #  SHOW THAT DESIGNATION IS NOW ON.
004502: 33,2053           44736                           CS       BIT14
004503: 33,2054           00006                           EXTEND
004504: 33,2055           03012                           WAND     CHAN12                                #  REMOVE RR TRACK ENABLE DISCRETE.
004505: 33,2056           44740                           CS       LOSCMBIT
004506: 33,2057           70076                           MASK     FLAGWRD2
004507: 33,2060           54076                           TS       FLAGWRD2                              #  CLEAR LOSCMFLG TO SHOW DES. LOOP IS OFF.
004508: 33,2061           44753                           CS       OLDESBIT
004509: 33,2062           70074                           MASK     STATE
004510: 33,2063           54074                           TS       STATE                                 #  SHOW THAT DES. LOOP IS NOT REQUESTED.
004511: 33,2064           04616                           TC       BANKCALL
004512: 33,2065           52156                           CADR     SETRRECR                              #  ENABLE RR ERROR COUNTERS.
004513: 33,2066           34740                           CA       ANTENBIT
004514: 33,2067           70110                           MASK     RADMODES
004515: 33,2070           10000                           CCS      A                                     #  TEST RR MODE BIT.
004516: 33,2071           12104                           TCF      SETPRPOS                              #  MODE 2.
004517:
004518: 33,2072           35031                           CA       PRIO21                                #  MODE 1;  MUST REMODE.
004519: 33,2073           05072                           TC       NOVAC
004520: 33,2074  E7,1456                                  EBANK=   LOSCOUNT
004521: 33,2074           02113 66067                     2CADR    R29REM0J                              #  NEEDS OWN JOB TO RADSTALL IN.
004522:
004523: 33,2076           44742                           CS       DESIGBIT
004524: 33,2077           70110                           MASK     RADMODES                              #  CLEAR DESIGNATE FLAG IN RADMODES
004525: 33,2100           54110                           TS       RADMODES                              #  BEFORE CALLING REMODE
004526: 33,2101           34736                           CA       REMODBIT
004527: 33,2102           26110                           ADS      RADMODES                              #  SHOW THAT REMODING IS ON.
004528: 33,2103           12570                           TCF      NOR29NOW                              #  CONTINUE SERVICER FUNCTIONS.
004529:
004530: 33,2104           34753        SETPRPOS           CA       ONE
004531: 33,2105           05203                           TC       WAITLIST
004532: 33,2106  E7,1456                                  EBANK=   LOSCOUNT
004533: 33,2106           03601 52067                     2CADR    PREPOS29                              #  TASK TO SET TRUNNION ANGLE TO -180 DEG.
004534:
004535: 33,2110           34741                           CA       REPOSBIT
004536: 33,2111           26110                           ADS      RADMODES                              #  SHOW THAT REPOSITIONING IS ON.
004537: 33,2112           12570                           TCF      NOR29NOW
004538:


004540:                                                                                                  #  FORCE RENDEZVOUS RADAR INTO MODE 2.
004541:
004542: 33,2113           34753        R29REM0J           CA       ONE
004543: 33,2114           05203                           TC       WAITLIST
004544: 33,2115  E7,1456                                  EBANK=   LOSCOUNT
004545: 33,2115           02171 52067                     2CADR    REMODE                                #  REMODE MUST RUN AS A TASK.
004546:
004547: 33,2117           04616                           TC       BANKCALL                              #  WAIT FOR END OF REMODING.
004548: 33,2120           17714                           CADR     RADSTALL
004549:
004550: 33,2121           15155                           TCF      ENDOFJOB                              #  BAD EXIT CAN'T HAPPEN.
004551: 33,2122           15155                           TCF      ENDOFJOB
004552:
004553:                                                                                                  #  TASK TO PREPOSITION THE RR TRUNNION ANGLE TO -180 DEG.
004554:
004555: 25,2000                                           SETLOC   R29S1
004556: 25,2000                                           BANK
004557:
004558: 25,3601           34735        PREPOS29           CA       NEGMAX                                #  -180 DEG.
004559: 25,3602           02241                           TC       RRTONLY                               #  DRIVE TRUNNION CDU.
004560: 25,3603           44741                           CS       REPOSBIT                              #  SHOW THAT REPOSITIONING IS OFF.
004561: 25,3604           70110                           MASK     RADMODES
004562: 25,3605           54110                           TS       RADMODES
004563: 25,3606           15261                           TCF      TASKOVER
004564:
004565:                                                                                                  #  COMPUTE LINE-OF-SIGHT AND LOS VELOCITY, AND PASS THEM TO THE R29DODES LOOP.
004566:
004567: 33,2045                                           SETLOC   R29
004568: 33,2045                                           BANK
004569:
004570: 33,2123           00006        R29.LOS            EXTEND
004571: 33,2124           41235                           DCS      PIPTIME
004572: 33,2125           52155                           DXCH     MPAC
004573: 33,2126           00006                           EXTEND
004574: 33,2127           30025                           DCA      TIME2
004575: 33,2130           20155                           DAS      MPAC                                  #  (MPAC) = T-PIPTIME, SCALED B-28.
004576: 33,2131           54163                           TS       MODE                                  #  SET MODE TO DOUBLE PRECISION.
004577: 33,2132           30155                           CA       MPAC       +1
004578: 33,2133           00006                           EXTEND
004579: 33,2134           74740                           MP       BIT12
004580: 33,2135           52155                           DXCH     MPAC                                  #  T-PIPTIME NOW SCALED B-17.
004581: 33,2136           06037                           TC       INTPRET


004583:                                                                                                  #  LOSCMFLG = 0 MEANS THAT THE DESIGNATION IS READY FOR NEW DATA.  SETTING LOSCMFLG MAKES IT GO AWAY SO SETUP29D CAN
004584:                                                                                                  #  START IT UP WHEN THE DATA IS IN PLACE.
004585:
004586: 33,2137           52315                           PDVL     VSU                                   #  PUSH DOWN T-PIPTIME.
004587: 33,2140           01726                                    V(CSM)
004588: 33,2141           03527                                    V                                     #  LOSVEL = V(CSM) - V.
004589: 33,2142           74325                           PDDL     VXSC                                  #  SWAP LOSVEL FOR T-PIPTIME, MULTIPLY THEM
004590: 33,2143           52255                           VAD      VSU                                   #        AND ADD THE RESULT TO R(CSM) - R TO GET
004591: 33,2144           01720                                    R(CSM)                                #        AN UP-TO-DATE LOS VECTOR IN SM AXES.
004592: 33,2145           03521                                    R
004593: 33,2146           77414                           BOFSET   EXIT                                  #  (BOFSET DOES ITS THING INHINTED.)
004594: 33,2147           01043                                    LOSCMFLG                              #  IF DESIGNATE LOOP IS OFF, CHANGE LOSCM-
004595: 33,2150           66152                                    SETUP29D                              #  FLG TO ON AND GO TO SET UP NEW DATA.
004596: 33,2151           12570                           TCF      NOR29NOW                              #  IF DES. LOOP IS ON, LET IT USE OLD DATA.
004597:
004598: 33,2152           25102        SETUP29D           STOVL    LOSSM                                 #  LINE-OF-SIGHT VECTOR, STABLE MEMBER AXES
004599: 33,2153           00001                                    0
004600: 33,2154           77761                           VXSC
004601: 33,2155           26177                                    .5SECB17
004602: 33,2156           01761                           STORE    LOSVDT/4                              #  1/2 SECOND'S WORTH OF LOS VELOCITY.
004603: 33,2157           77414                           CLEAR    EXIT
004604: 33,2160           01263                                    LOSCMFLG                              #  LET R29DLOOP USE NEW DATA.
004605:
004606: 33,2161           40074                           CS       STATE
004607: 33,2162           74753                           MASK     OLDESBIT
004608: 33,2163           00006                           EXTEND
004609: 33,2164           12570                           BZF      NOR29NOW                              #  BRANCH IF R29 DES. LOOP IS REQUESTED.
004610: 33,2165           00004                           INHINT
004611: 33,2166           26074                           ADS      STATE                                 #  OTHERWISE REQUEST IT NOW.
004612:
004613: 33,2167           11056                           CCS      PIPCTR                                #  SEE IF TASK SHOULD BE OFFSET ONE SECOND.
004614: 33,2170           44776                           CS       SUPER110                              #  -96D +100D = 4.
004615: 33,2171           64777                           AD       1SEC                                  #  0 +100D = 100D.
004616: 33,2172           05203                           TC       WAITLIST
004617: 33,2173  E7,1456                                  EBANK=   LOSCOUNT
004618: 33,2173           03356 50067                     2CADR    BEGDES29                              #  START BEGDES29 TASK ASAP.
004619:
004620: 33,2175           12570                           TCF      NOR29NOW                              #  RELINT AND CONTINUE SERVICER FUNCTIONS.
004621:
004622: 33,2176           00006 10000  .5SECB17           2DEC     50         B-17
004623:


004625:                                                                                                  #  R29 DESIGNATE JOB AND TASK MACHINERY.  TASK RECURS EVERY .5 SEC UNTIL DESIGNATE IS CALLED OFF; IT MAY WAIT FOR A
004626:                                                                                                  #  CENTISECOND OR TWO IF IT COMES UP WHILE SETUP29D IS SUPPLYING NEW DATA.
004627:
004628: 24,3356                                           BANK     24
004629: 24,2000                                           SETLOC   P20S
004630: 24,2000                                           BANK
004631:
004632: 24,3356                                           COUNT*   $$/R29
004633:
004634: 24,3356           35031        BEGDES29           CAF      PRIO21
004635: 24,3357           05072                           TC       NOVAC
004636: 24,3360  E3,1760                                  EBANK=   LOSVDT/4
004637: 24,3360           02547 64063                     2CADR    R29DODES                              #  START R29DODES JOB TWICE A SECOND.
004638:
004639: 24,3362           34774        R29DLOOP           CAF      .5SEC
004640: 24,3363           05224                           TC       VARDELAY
004641:
004642: 24,3364           40110                           CS       RADMODES
004643: 24,3365           74742                           MASK     DESIGBIT
004644: 24,3366           10000                           CCS      A
004645: 24,3367           15261                           TCF      TASKOVER                              #  QUIT IF DESIGNATION IS CALLED OFF.
004646:
004647: 24,3370           40076                           CS       FLAGWRD2
004648: 24,3371           74740                           MASK     LOSCMBIT
004649: 24,3372           00006                           EXTEND
004650: 24,3373           13376                           BZF      +3                                    #  BRANCH IF SETUP29D'S SUPPLYING NEW DATA.
004651: 24,3374           26076                           ADS      FLAGWRD2                              #  SET LOSCMFLG:  SHOW THAT DES. LOOP IS ON.
004652: 24,3375           13356                           TCF      BEGDES29
004653:
004654: 24,3376           34753                           CA       ONE
004655: 24,3377           13363                           TCF      R29DLOOP   +1                         #  WAIT A CENTISECOND FOR NEW DATA.


004657:                                                                                                  #  R29DODES:  RR DESIGNATION LOOP FOR R29
004658:
004659:                                                                                                  #  THIS ROUTINE DOES MUCH THE SAME THING AS DODES, BUT A GREAT DEAL FASTER.  IT TAKES THE NON-UNITIZED LOS VECTOR
004660:                                                                                                  #  IN STABLE MEMBER COORDINATES (LOSSM) AND A DELTA-LOS IN SM AXES (LOSVDT/4) WHICH IS 1/2 SEC TIMES LOS VELOCITY,
004661:                                                                                                  #  AND DEVELOPS THE SHAFT AND TRUNNION COMMANDS USING SINGLE PRECISION AS MUCH AS POSSIBLE, AND INTERPRETIVE NOT AT
004662:                                                                                                  #  ALL.  THE UNIT(LOSSM + LOSVEL * 1 SEC) IS COMPUTED IN DP AND TRANSFORMED TO NAV BASE COORDINATES IN DOUBLE PRE-
004663:                                                                                                  #  CISION (USING SP SINES AND COSINES OF CDU ANGLES), AND THE REST IS DONE IN SP.
004664:
004665:                                                                                                  #  THE FUNCTIONAL DIFFERENCE IS THAT R29DODES ALWAYS CLEARS LOSCMFLG WHEN IT ENDS, AND IT STARTS UP THE R29READ
004666:                                                                                                  #  TASK WHEN LOCK-ON IS ACHIEVED.
004667:
004668: 32,2547                                           BANK     32
004669: 32,2000                                           SETLOC   F2DPS*32
004670: 32,2000                                           BANK
004671:
004672: 32,2547                                           COUNT*   $$/R29
004673: 32,2547  E3,1760                                  EBANK=   LOSVDT/4
004674:
004675: 32,2547           34753        R29DODES           CA       ONE
004676: 32,2550           55107                           TS       TANG                                  #  INDICATE 1ST PASS THRU VECTOR LOOP.
004677: 32,2551           34756                           CA       FIVE
004678:
004679: 32,2552           10000        R29DVBEG           CCS      A                                     #  COUNT DOWN BY TWOS IN VECTOR LOOP.
004680: 32,2553           54002                           TS       Q
004681: 32,2554           11107                           CCS      TANG
004682: 32,2555           12563                           TCF      R29DPAS1                              #  DO THIS ON 1ST PASS THRU LOOP.
004683:
004684: 32,2556           00006                           EXTEND                                         #  (A "PASS" HERE MEANS 3 TIMES AROUND).
004685: 32,2557           50002                           INDEX    Q
004686: 32,2560           31761                           DCA      LOSVDT/4
004687: 32,2561           50002                           INDEX    Q
004688: 32,2562           21102                           DAS      LOSSM                                 #  ADVANCE LOS VECTOR 1/2 SECOND.
004689:
004690: 32,2563           00006        R29DPAS1           EXTEND
004691: 32,2564           50002                           INDEX    Q
004692: 32,2565           31102                           DCA      LOSSM
004693: 32,2566           50002                           INDEX    Q                                     #  MOVE CURRENT LOS (1ST PASS) OR LOS PRO-
004694: 32,2567           52156                           DXCH     MPAC       +1                         #  JECTED 1/2 SEC AHEAD (2ND PASS).
004695: 32,2570           11107                           CCS      TANG
004696: 32,2571           12577                           TCF      R29DVEND                              #  BUG OUT HERE IN 1ST PASS.
004697:
004698: 32,2572           00006                           EXTEND
004699: 32,2573           50002                           INDEX    Q
004700: 32,2574           31761                           DCA      LOSVDT/4
004701: 32,2575           50002                           INDEX    Q
004702: 32,2576           20156                           DAS      MPAC       +1                         #  PROJECT LOS 1 SECOND AHEAD (2ND PASS).
004703:
004704: 32,2577           10002        R29DVEND           CCS      Q
004705: 32,2600           12552                           TCF      R29DVBEG                              #  BRANCH TO CONTINUE VECTOR LOOP.
004706:


004708:                                                                                                  #  UNITIZE AND TRANSFORM TO NAV BASE AXES THE PRESENT LOS (1ST PASS) OR THE 1-SEC PROJECTED LOS (2ND PASS).
004709:
004710: 32,2601           52156                           DXCH     MPAC       +1
004711: 32,2602           52155                           DXCH     MPAC
004712: 32,2603           32774                           CA       R29FXLOC                              #  = ADRES INTB15 + -34D
004713: 32,2604           54120                           TS       FIXLOC
004714: 32,2605           04713                           TC       USPRCADR                              #  WITH FIXLOC ARMED FOR LENGTH AND LENGTH
004715: 32,2606           01023                           CADR     UNIT                                  #  SQUARED, BORROW UNITIZING ROUTINE.
004716: 32,2607           07532                           TC       MPACVBUF                              #  MOVE UNIT(LOS) TO AX*SR*T ARG AREA.
004717:
004718: 32,2610           11107                           CCS      TANG
004719: 32,2611           12613                           TCF      +2
004720: 32,2612           12627                           TCF      GOTANGLS                              #  GET CDU ANGLES ONLY AFTER 1ST PASS.
004721: 32,2613           00004                           INHINT                                         #  ENSURE CONSISTENT CDU READINGS.
004722: 32,2614           00006                           EXTEND
004723: 32,2615           30036                           DCA      CDUT
004724: 32,2616           53767                           DXCH     SAVECDUT                              #  TRUNNION AND SHAFT ANGLES.
004725: 32,2617           30033                           CA       CDUY
004726: 32,2620           54766                           TS       CDUSPOT
004727: 32,2621           30034                           CA       CDUZ
004728: 32,2622           54770                           TS       CDUSPOT    +2
004729: 32,2623           30032                           CA       CDUX
004730: 32,2624           54772                           TS       CDUSPOT    +4                         #  CDU ANGLES IN FUNNY ORDER FOR AX*SR*T.
004731: 32,2625           04616                           TC       BANKCALL
004732: 32,2626           47615                           CADR     QUICTRIG                              #  GET SINES AND COSINES OF CDU ANGLES.
004733:
004734: 32,2627           46245        GOTANGLS           CS       THREE
004735: 32,2630           04616                           TC       BANKCALL
004736: 32,2631           47675                           CADR     AX*SR*T                               #  TRANSFORM UNIT LOS TO NB AXES (ULOSNB).
004737:
004738: 32,2632           11107                           CCS      TANG
004739: 32,2633           12635                           TCF      +2
004740: 32,2634           12702                           TCF      R29DPAS2                              #  GO TO RR COMMAND COMP. AFTER 2ND PASS.
004741:


004743:                                                                                                  #  COMPUTE COSINE OF THE ANGLE BETWEEN THE PRESENT LOS AND THE RR BORESIGHT VECTOR, AND SET THE SELFTRACK ENABLE IF
004744:                                                                                                  #  THE COSINE IS APPROXIMATELY COS(.5 DEG) OR GREATER (I.E. SMALLER ANGLE).
004745:
004746: 32,2635           00004                           INHINT
004747: 32,2636           55107                           TS       TANG                                  #  INDICATE 2ND PASS THRU VECTOR LOOP.
004748: 32,2637           31766                           CA       SAVECDUT
004749: 32,2640           05032                           TC       SPCOS
004750: 32,2641           54166                           TS       PUSHLOC                               #  PUSHLOC = COS T.
004751: 32,2642           41766                           CS       SAVECDUT
004752: 32,2643           05033                           TC       SPSIN
004753: 32,2644           54163                           TS       MODE                                  #  MODE = -SIN T.
004754: 32,2645           00006                           EXTEND
004755: 32,2646           70124                           MP       VBUF       +2                         #  FORM - SIN T ULOSNBY.
004756: 32,2647           52155                           DXCH     MPAC
004757: 32,2650           31767                           CA       SAVECDUT   +1
004758: 32,2651           05033                           TC       SPSIN
004759: 32,2652           55766                           TS       SAVECDUT                              #  SAVECDUT NOW = SIN S.
004760: 32,2653           00006                           EXTEND
004761: 32,2654           70166                           MP       PUSHLOC
004762: 32,2655           00006                           EXTEND
004763: 32,2656           70122                           MP       VBUF                                  #  FORM SIN S COS T ULOSNBX.
004764: 32,2657           20155                           DAS      MPAC
004765: 32,2660           31767                           CA       SAVECDUT   +1
004766: 32,2661           05032                           TC       SPCOS
004767: 32,2662           55767                           TS       SAVECDUT   +1                         #  SAVECDUT +1 NOW = COS S.
004768: 32,2663           00006                           EXTEND
004769: 32,2664           70166                           MP       PUSHLOC
004770: 32,2665           00006                           EXTEND
004771: 32,2666           70126                           MP       VBUF       +4                         #  FORM COS S COS T ULOSNBZ.
004772: 32,2667           20155                           DAS      MPAC                                  #  COS(ERROR) = ULOSNB . (SIN S COS T,
004773: 32,2670           00006                           EXTEND                                         #  -SIN T, COS S COS T).
004774: 32,2671           30155                           DCA      MPAC
004775: 32,2672           20155        TESTCOS            DAS      MPAC                                  #  (ULOSNB IN VBUF WAS A HALF-UNIT VECTOR).
004776: 32,2673           10000                           CCS      A                                     #  TEST FOR + OVERFLOW, NONE, OR MINUS.
004777: 32,2674           34736                           CA       BIT14
004778: 32,2675           12676                           NOOP
004779: 32,2676           00006                           EXTEND
004780: 32,2677           05012                           WOR      CHAN12                                #  IF PLUS OVERFLOW, SET SELFTRACK ENABLE.
004781: 32,2700           00003                           RELINT
004782: 32,2701           12551                           TCF      R29DVBEG   -1                         #  MAKE 2ND PASS THRU VECTOR LOOP.
004783:


004785:                                                                                                  #  COMPUTE SHAFT AND TRUNNION COMMANDS TO NULL HALF THE ERROR IN HALF A SECOND.
004786:
004787: 32,2702           31767        R29DPAS2           CA       SAVECDUT   +1
004788: 32,2703           00006                           EXTEND
004789: 32,2704           70122                           MP       VBUF                                  #  FORM COS S ULOSNB'X.
004790: 32,2705           53110                           DXCH     TANG
004791: 32,2706           41766                           CS       SAVECDUT
004792: 32,2707           00006                           EXTEND
004793: 32,2710           70126                           MP       VBUF       +4                         #  FORM - SIN S ULOSNB'Z.
004794: 32,2711           21110                           DAS      TANG                                  #  RAW SHAFT CMD = ULOSNB' . (COS S, 0,
004795: 32,2712           40163                           CS       MODE                                  #  - SIN S)
004796: 32,2713           00006                           EXTEND
004797: 32,2714           71766                           MP       SAVECDUT
004798: 32,2715           00006                           EXTEND
004799: 32,2716           70122                           MP       VBUF                                  #  FORM SIN T SIN S ULOSNB'X.
004800: 32,2717           52155                           DXCH     MPAC
004801: 32,2720           30166                           CA       PUSHLOC
004802: 32,2721           00006                           EXTEND
004803: 32,2722           70124                           MP       VBUF       +2                         #  FORM COS T ULOSNB'Y.
004804: 32,2723           20155                           DAS      MPAC
004805: 32,2724           40163                           CS       MODE
004806: 32,2725           00006                           EXTEND
004807: 32,2726           71767                           MP       SAVECDUT   +1
004808: 32,2727           00006                           EXTEND
004809: 32,2730           70126                           MP       VBUF       +4                         #  FORM SIN T COS S ULOSNB'Z.
004810: 32,2731           20155                           DAS      MPAC                                  #  RAW TRUNNION CMD = ULOSNB'.
004811: 32,2732           30154                           CA       MPAC                                  #  (SIN S SIN T, COS T, SIN S COS T).
004812: 32,2733           00006                           EXTEND
004813: 32,2734           72775                           MP       RR29GAIN
004814: 32,2735           57107                           XCH      TANG                                  #  STORE REFINED T CMD, GET RAW S CMD.
004815: 32,2736           00006                           EXTEND
004816: 32,2737           72775                           MP       RR29GAIN
004817: 32,2740           55110                           TS       TANG       +1                         #  STORE REFINED S CMD.
004818:


004820:                                                                                                  #  WHETHER OR NOT TRACKING WAS ENABLED THIS TIME, CHECK ON RR DATA-GOOD.  IF PRESENT, STOP DESIGNATING AND START
004821:                                                                                                  #  READING DATA FROM THE RENDEZVOUS RADAR.
004822:
004823: 32,2741           34750        DGOOD?             CAF      BIT4
004824: 32,2742           00006                           EXTEND
004825: 32,2743           02033                           RAND     CHAN33                                #  GET RR DATA-GOOD BIT.
004826: 32,2744           00004                           INHINT                                         #  (MAINLY FOR RROUT).
004827: 32,2745           00006                           EXTEND
004828: 32,2746           12752                           BZF      R29LOKON                              #  BRANCH IF DATA-GOOD IS PRESENT.
004829:
004830: 32,2747           04616                           TC       BANKCALL
004831: 32,2750           52306                           CADR     RROUT                                 #  DATA-GOOD IS ABSENT, SO SEND COMMANDS.
004832: 32,2751           12770                           TCF      END29DOD
004833:
004834: 32,2752           44742        R29LOKON           CS       DESIGBIT
004835: 32,2753           70110                           MASK     RADMODES
004836: 32,2754           54110                           TS       RADMODES                              #  SHOW THAT DESIGNATION IS OVER.
004837: 32,2755           44752                           CS       BIT2
004838: 32,2756           00006                           EXTEND
004839: 32,2757           03012                           WAND     CHAN12                                #  DISABLE RR ERROR COUNTERS.
004840: 32,2760           34743                           CA       READRBIT
004841: 32,2761           26077                           ADS      FLAGWRD3                              #  SHOW THAT READING HAS BEEN REQUESTED.
004842: 32,2762           11056                           CCS      PIPCTR                                #  SEE IF TASK SHOULD BE OFFSET 1 SEC.
004843: 32,2763           44776                           CS       SUPER110                              #  -96D + 100D = 4.
004844: 32,2764           64777                           AD       1SEC                                  #  0 + 100D = 100D.
004845: 32,2765           05203                           TC       WAITLIST
004846: 32,2766  E7,1456                                  EBANK=   LOSCOUNT
004847: 32,2766           03400 50067                     2CADR    R29READ                               #  START READING TASK AND JOB.
004848:
004849: 32,2770           44740        END29DOD           CS       LOSCMBIT
004850: 32,2771           70076                           MASK     FLAGWRD2
004851: 32,2772           54076                           TS       FLAGWRD2                              #  ALWAYS CLEAR LOSCMFLG.
004852: 32,2773           15155                           TCF      ENDOFJOB
004853:
004854: 32,2774           00052        R29FXLOC           ADRES    INTB15+    -34D
004855: 32,2775           56655        RR29GAIN           DEC      -.53624
004856: 32,2776  E3,1760               LOSVDT/4           EQUALS   LOSVEL
004857: 32,2776     1101               LOSSM              EQUALS   RRTARGET
004858: 32,2776  E3,1766               SAVECDUT           EQUALS   MLOSV
004859:


004861:                                                                                                  #  RR READING IS SET UP BY R29DODES WHEN IT DETECTS RR LOCK-ON.
004862:
004863: 24,3400                                           BANK     24
004864: 24,2000                                           SETLOC   P20S
004865: 24,2000                                           BANK
004866:
004867: 24,3400                                           COUNT*   $$/R29
004868:
004869: 24,3400  E7,1456                                  EBANK=   LOSCOUNT
004870:
004871: 24,3400           37714        R29READ            CAF      PRIO26                                #  CALLED BY WAITLIST.
004872: 24,3401           05072                           TC       NOVAC
004873: 24,3402  E7,1456                                  EBANK=   LOSCOUNT
004874: 24,3402           03413 50067                     2CADR    R29RDJOB                              #  START JOB TO READ AND DOWNLINK FOR R29.
004875:
004876: 24,3404           35000                           CA       2SECS
004877: 24,3405           05224                           TC       VARDELAY
004878:
004879: 24,3406           30077                           CA       FLAGWRD3                              #  2 SECONDS LATER, SEE IF READING IS STILL
004880: 24,3407           74743                           MASK     READRBIT                              #  ALLOWED (NO TRACKER FAIL ETC.)
004881: 24,3410           10000                           CCS      A
004882: 24,3411           13400                           TCF      R29READ                               #  IT'S OK;  CALL IT AGAIN.
004883: 24,3412           15261                           TCF      TASKOVER                              #  IT AIN'T;  WAIT FOR REDESIGNATE.
004884:
004885: 24,3413           30077        R29RDJOB           CA       FLAGWRD3                              #  CALLED VIA NOVAC.
004886: 24,3414           74741                           MASK     NR29FBIT
004887: 24,3415           10000                           CCS      A                                     #  TEST "NOR29FLG".
004888: 24,3416           13475                           TCF      ENDRRD29                              #  R29 IS NOW OVER, STOP AT ONCE.
004889:
004890: 24,3417           30110                           CA       RADMODES
004891: 24,3420           74752                           MASK     AUTOMBIT
004892: 24,3421           10000                           CCS      A                                     #  TEST RR-NOT-IN-AUTO-MODE BIT.
004893: 24,3422           13475                           TCF      ENDRRD29                              #  ASTRO TOOK RR OUT OF AUTO MODE.
004894:
004895: 24,3423           04616                           TC       BANKCALL
004896: 24,3424           53103                           CADR     RRRDOT                                #  INITIATE READING OF RANGE RATE.
004897: 24,3425           04616                           TC       BANKCALL
004898: 24,3426           17714                           CADR     RADSTALL                              #  GO TO SLEEP UNTIL IT'S READY.
004899: 24,3427           13475                           TCF      ENDRRD29                              #  BAD READ; REDESIGNATE.
004900:


004902:                                                                                                  #  R29 RADAR READING CONTINUED.
004903:
004904: 24,3430           53106                           DXCH     TIMEHOLD
004905: 24,3431           52155                           DXCH     MPAC                                  #  TIME OF RR READING, FOR DOWNLINK.
004906: 24,3432           00004                           INHINT                                         #  BE SURE OF 5 CONSISTENT CDU ANGLES.
004907: 24,3433           00006                           EXTEND
004908: 24,3434           30036                           DCA      CDUT
004909: 24,3435           52157                           DXCH     MPAC       +2                         #  RRCDU ANGLES AT RR READ, FOR DOWNLINK.
004910: 24,3436           00006                           EXTEND
004911: 24,3437           30034                           DCA      CDUY
004912: 24,3440           52161                           DXCH     MPAC       +4                         #  MPAC'S 7 WORDS ARE BUFFER FOR COPYCYCLE.
004913: 24,3441           30032                           CA       CDUX
004914: 24,3442           54162                           TS       MPAC       +6                         #  IMUCDU ANGLES AT RR READ, FOR DOWNLINK.
004915:
004916: 24,3443           04616        R29RANGE           TC       BANKCALL
004917: 24,3444           53105                           CADR     RRRANGE                               #  INITIATE READING OF RR RANGE.
004918: 24,3445           04616                           TC       BANKCALL
004919: 24,3446           17714                           CADR     RADSTALL                              #  GO TO SLEEP UNTIL IT'S READY.
004920: 24,3447           13466                           TCF      R29RRR?                               #  BAD READ OR SCALE CHANGE ... WHICH?
004921:
004922: 24,3450           00004                           INHINT
004923: 24,3451           53334                           DXCH     DNRRANGE                              #  COPYCYCLE TO LAY OUT NEW R29 DOWNLINK.
004924: 24,3452           53757                           DXCH     RM
004925: 24,3453           52155                           DXCH     MPAC
004926: 24,3454           53755                           DXCH     MKTIME
004927: 24,3455           52157                           DXCH     MPAC       +2
004928: 24,3456           53753                           DXCH     TANGNB
004929: 24,3457           52161                           DXCH     MPAC       +4
004930: 24,3460           53460                           DXCH     AIG
004931: 24,3461           30162                           CA       MPAC       +6
004932: 24,3462           55461                           TS       AOG
004933: 24,3463           34753                           CA       ONE
004934: 24,3464           55462                           TS       TRKMKCNT                              #  SHOW THAT DOWNLINK DATA IS CONSISTENT.
004935: 24,3465           15155                           TCF      ENDOFJOB
004936:
004937: 24,3466           40101        R29RRR?            CS       FLAGWRD5
004938: 24,3467           74742                           MASK     BIT10
004939: 24,3470           10000                           CCS      A                                     #  WAS IT A SCALE CHANGE (REAL OR PHONY)?
004940: 24,3471           13475                           TCF      ENDRRD29                              #  NO, A BAD READ; REDESIGNATE.
004941: 24,3472           05516                           TC       DOWNFLAG
004942: 24,3473           00120                           ADRES    RNGSCFLG
004943: 24,3474           13443                           TCF      R29RANGE                              #  YES; CLEAR FLAG AND READ AGAIN.
004944:
004945: 24,3475           34755        ENDRRD29           CA       ZERO                                  #  TROUBLE MADE US COME HERE TO LEAVE THE
004946: 24,3476           55462                           TS       TRKMKCNT                              #  RR-READING MODE.  DISCREDIT DOWNTEL.
004947: 24,3477           05516                           TC       DOWNFLAG
004948: 24,3500           00063                           ADRES    READRFLG
004949: 24,3501           44736                           CS       BIT14
004950: 24,3502           00006                           EXTEND


004952: 24,3503           03012                           WAND     CHAN12                                #  REMOVE TRACK-ENABLE DISCRETE.
004953: 24,3504           15155                           TCF      ENDOFJOB
004954:


004956:                                                                                                  #  W-MATRIX MONITOR
004957:
004958: 31,2007                                           BANK     31
004959: 31,2000                                           SETLOC   VB67
004960: 31,2000                                           BANK
004961: 31,2007                                           COUNT*   $$/EXTVB
004962:
004963: 31,2007  E4,1600                                  EBANK=   WWPOS
004964:
004965: 31,2007           06037        V67CALL            TC       INTPRET
004966: 31,2010           77624                           CALL
004967: 31,2011           62120                                    V67WW
004968: 31,2012           77776                           EXIT
004969: 31,2013           00006                           EXTEND                                         #  SAVE THE PRESENT N99 VALUES FOR
004970: 31,2014           31601                           DCA      WWPOS                                 #  COMPARISON AFTER THE DISPLAY
004971: 31,2015           53607                           DXCH     WWBIAS     +2
004972: 31,2016           00006                           EXTEND
004973: 31,2017           31603                           DCA      WWVEL
004974: 31,2020           53611                           DXCH     WWBIAS     +4
004975: 31,2021           00006                           EXTEND
004976: 31,2022           31605                           DCA      WWBIAS
004977: 31,2023           53613                           DXCH     WWBIAS     +6
004978: 31,2024           32143        V06N99DS           CAF      V06N99
004979: 31,2025           04616                           TC       BANKCALL
004980: 31,2026           20334                           CADR     GOXDSPF
004981: 31,2027           15472                           TCF      ENDEXT
004982: 31,2030           12032                           TCF      V6N99PRO
004983: 31,2031           12024                           TCF      V06N99DS
004984: 31,2032           22007        V6N99PRO           ZL
004985: 31,2033           34756                           CA       FIVE
004986: 31,2034           54002        N99LOOP            TS       Q
004987: 31,2035           50002                           INDEX    Q
004988: 31,2036           41600                           CS       WWPOS
004989: 31,2037           50002                           INDEX    Q
004990: 31,2040           61606                           AD       WWPOS      +6
004991: 31,2041           26001                           ADS      L
004992: 31,2042           10002                           CCS      Q                                     #  THE SUM OF ALL DIFFERENCES MUST BE ZERO.
004993: 31,2043           12034                           TCF      N99LOOP
004994: 31,2044           22000                           LXCH     A
004995: 31,2045           00006                           EXTEND
004996: 31,2046           12051                           BZF      V06N9933
004997: 31,2047           05504                           TC       UPFLAG
004998: 31,2050           00160                           ADRES    V67FLAG
004999:
005000: 31,2051           06037        V06N9933           TC       INTPRET
005001: 31,2052           77414                           BON      EXIT
005002: 31,2053           03707                                    V67FLAG
005003: 31,2054           62056                                    +2
005004: 31,2055           15472                           TCF      ENDEXT
005005: 31,2056           77745                           DLOAD


005007: 31,2057           02201                                    WWPOS
005008: 31,2060           72412                           SL4      SL1
005009: 31,2061           14001                           STODL    0D
005010: 31,2062           02203                                    WWVEL
005011: 31,2063           14003                           STODL    2D
005012: 31,2064           02205                                    WWBIAS
005013: 31,2065           77661                           SL                                             #  SHIFT FROM NOUN SCALING (B-5) TO
005014: 31,2066           20213                                    10D                                   #  INTERNAL SCALING (B+5)
005015: 31,2067           00005                           STORE    4D
005016: 31,2070           72014                           BON      LXA,1
005017: 31,2071           04307                                    SURFFLAG
005018: 31,2072           62102                                    V67SURF
005019: 31,2073           00000                                    0D
005020: 31,2074           72130                           SXA,1    LXA,1
005021: 31,2075           02000                                    WRENDPOS
005022: 31,2076           00002                                    2D
005023: 31,2077           52130                           SXA,1    GOTO
005024: 31,2100           02001                                    WRENDVEL
005025: 31,2101           62110                                    V67CLRF
005026: 31,2102           66150        V67SURF            LXA,1    SXA,1
005027: 31,2103           00000                                    0D
005028: 31,2104           02006                                    WSURFPOS
005029: 31,2105           66150                           LXA,1    SXA,1
005030: 31,2106           00002                                    2D
005031: 31,2107           02007                                    WSURFVEL
005032: 31,2110           66150        V67CLRF            LXA,1    SXA,1
005033: 31,2111           00004                                    4D
005034: 31,2112           02003                                    WTRUN
005035: 31,2113           77730                           SXA,1
005036: 31,2114           02002                                    WSHAFT
005037: 31,2115           77414                           CLEAR    EXIT
005038: 31,2116           02676                                    RENDWFLG
005039: 31,2117           15472                           TCF      ENDEXT
005040: 31,2120           40020        V67WW              STQ      BOV
005041: 31,2121           00051                                    S2
005042: 31,2122           62123                                    +1
005043: 31,2123           45014                           CLEAR    CALL
005044: 31,2124           03667                                    V67FLAG
005045: 31,2125           27414                                    INTSTALL
005046: 31,2126           71331                           SSP      DLOAD
005047: 31,2127           00051                                    S1
005048: 31,2130           00006                           DEC      6          B-14
005049: 31,2131           06522                                    ZEROVECS
005050: 31,2132           02201                           STORE    WWPOS
005051: 31,2133           02203                           STORE    WWVEL
005052: 31,2134           02205                           STORE    WWBIAS
005053: 31,2135           77770                           AXT,1
005054: 31,2136           00066                           DEC      54         B-14
005055: 31,2137           47573        NXPOSVEL           VLOAD*   VSQ
005056: 31,2140           02467                                    W          +54D,1


005058: 31,2141           77650                           GOTO
005059: 31,2142           60002                                    ADDPOS
005060: 31,2143           01543        V06N99             VN       0699
005061:
005062: 30,2000                                           SETLOC   VB67A
005063: 30,2000                                           BANK
005064: 30,2002                                           COUNT*   $$/EXTVB
005065:
005066: 30,2002           77615        ADDPOS             DAD
005067: 30,2003           02201                                    WWPOS
005068: 30,2004           02201                           STORE    WWPOS
005069: 30,2005           47573                           VLOAD*   VSQ
005070: 30,2006           02555                                    W          +108D,1
005071: 30,2007           77615                           DAD
005072: 30,2010           02203                                    WWVEL
005073: 30,2011           02203                           STORE    WWVEL
005074: 30,2012           47573                           VLOAD*   VSQ
005075: 30,2013           02643                                    W          +162D,1
005076: 30,2014           77615                           DAD
005077: 30,2015           02205                                    WWBIAS
005078: 30,2016           02205                           STORE    WWBIAS
005079: 30,2017           75500                           TIX,1    SQRT
005080: 30,2020           62137                                    NXPOSVEL
005081: 30,2021           77661                           SR                                             #  SHIFT FROM INTERNAL SCALING (B+5) TO
005082: 30,2022           20613                                    10D                                   #  NOUN SCALING (B-5)
005083: 30,2023           16205                           STODL    WWBIAS
005084: 30,2024           02203                                    WWVEL
005085: 30,2025           77766                           SQRT
005086: 30,2026           16203                           STODL    WWVEL
005087: 30,2027           02201                                    WWPOS
005088: 30,2030           77766                           SQRT
005089: 30,2031           02201                           STORE    WWPOS
005090: 30,2032           52000                           BOV      GOTO
005091: 30,2033           60035                                    +2
005092: 30,2034           60042                                    V67XXX
005093: 30,2035           77745                           DLOAD
005094: 30,2036           06530                                    DPPOSMAX
005095: 30,2037           02201                           STORE    WWPOS
005096: 30,2040           02203                           STORE    WWVEL
005097: 30,2041           02205                           STORE    WWBIAS
005098: 30,2042           45345        V67XXX             DLOAD    DSU
005099: 30,2043           02201                                    WWPOS
005100: 30,2044           20060                                    FT99999
005101: 30,2045           71240                           BMN      DLOAD
005102: 30,2046           60051                                    +3
005103: 30,2047           20060                                    FT99999
005104: 30,2050           02201                           STORE    WWPOS
005105: 30,2051           66150                           LXA,1    SXA,1
005106: 30,2052           00051                                    S2
005107: 30,2053           00052                                    QPRET


005109: 30,2054           77776                           EXIT
005110: 30,2055           04635                           TC       POSTJUMP
005111: 30,2056           27425                           CADR     INTWAKE
005112:
005113: 30,2057           01670 17000  FT99999            2DEC     30479      B-19
005114:


005116: 25,3607                                           BANK     25
005117: 25,2000                                           SETLOC   RADARUPT
005118: 25,2000                                           BANK
005119: 25,3607                                           COUNT*   $$/RRUPT
005120:
005121: 25,3607  E7,1456                                  EBANK=   LOSCOUNT
005122:
005123: 25,3607           34753        R12LITES           CA       ONE
005124: 25,3610           71303                           MASK     IMODES33
005125: 25,3611           10000                           CCS      A
005126: 25,3612           14707                           TCF      ISWRETRN
005127:
005128: 25,3613           03630                           TC       HLIGHT
005129: 25,3614           03625                           TC       HLIGHT     -3
005130: 25,3615           14707                           TCF      ISWRETRN
005131:
005132: 25,3616           34753        RADLITES           CA       BIT1
005133: 25,3617           71303                           MASK     IMODES33
005134: 25,3620           10000                           CCS      A
005135: 25,3621           00002                           TC       Q
005136:
005137: 25,3622           44747                           CS       BIT5
005138: 25,3623           60061                           AD       ITEMP1
005139: 25,3624           10000                           CCS      A
005140: 25,3625           44753                           CS       ONE
005141: 25,3626           13664                           TCF      VLIGHT
005142:
005143: 25,3627           14570                           TCF      RRTRKF
005144:
005145: 25,3630           54065        HLIGHT             TS       ITEMP5                                #  ZERO ITEMP5 FOR H INDEX
005146:
005147: 25,3631           34747                           CA       HLITE
005148: 25,3632           54001                           TS       L
005149:
005150: 25,3633           30107                           CA       FLGWRD11
005151: 25,3634           74751                           MASK     SCABBIT
005152: 25,3635           10000                           CCS      A
005153: 25,3636           13656                           TCF      ONLITES
005154: 25,3637           34747                           CA       LRALTBIT
005155: 25,3640           70110        BOTHLITS           MASK     RADMODES
005156: 25,3641           10000                           CCS      A
005157: 25,3642           13656                           TCF      ONLITES
005158:
005159: 25,3643           30107                           CA       FLGWRD11
005160: 25,3644           50065                           INDEX    ITEMP5
005161: 25,3645           74753                           MASK     HFLSHBIT
005162: 25,3646           10000                           CCS      A
005163: 25,3647           14570                           TCF      RRTRKF


005165: 25,3650           00006        LITIT              EXTEND
005166: 25,3651           22066                           QXCH     ITEMP6
005167: 25,3652           04602                           TC       TRKFLON    +1
005168:
005169: 25,3653           00006                           EXTEND
005170: 25,3654           22066                           QXCH     ITEMP6
005171: 25,3655           14570                           TCF      RRTRKF
005172:
005173:
005174: 25,3656           50065        ONLITES            INDEX    ITEMP5
005175: 25,3657           44753                           CS       HFLSHBIT
005176: 25,3660           70107                           MASK     FLGWRD11
005177: 25,3661           54107                           TS       FLGWRD11
005178:
005179: 25,3662           30001                           CA       L
005180: 25,3663           13650                           TCF      LITIT
005181: 25,3664           54065        VLIGHT             TS       ITEMP5
005182: 25,3665           34751                           CA       VLITE
005183: 25,3666           54001                           TS       L
005184: 25,3667           34744                           CA       BIT8
005185: 25,3670           13640                           TCF      BOTHLITS
005186:
005187: 25,3671     4747               HLITE              EQUALS   BIT5
005188: 25,3671     4751               VLITE              EQUALS   BIT3
005189:

End of include-file P20-P25.agc.  Parent file is MAIN.agc


