
Source Code


000002:                                                                                                  ## Copyright:   Public domain.
000003:                                                                                                  ## Filename:    P30_P37.agc
000004:                                                                                                  ## Purpose:     Part of the source code for Luminary 1A build 099.
000005:                                                                                                  ##              It is part of the source code for the Lunar Module's (LM)
000006:                                                                                                  ##              Apollo Guidance Computer (AGC), for Apollo 11.
000007:                                                                                                  ## Assembler:   yaYUL
000008:                                                                                                  ## Contact:     Ron Burkey <info@sandroid.org>.
000009:                                                                                                  ## Website:     www.ibiblio.org/apollo.
000010:                                                                                                  ## Pages:       614-617
000011:                                                                                                  ## Mod history: 2009-05-17 RSB  Adapted from the corresponding
000012:                                                                                                  ##                              Luminary131 file, using page
000013:                                                                                                  ##                              images from Luminary 1A.
000014:                                                                                                  ##              2009-06-05 RSB  Removed 4 lines of code that shouldn't
000015:                                                                                                  ##                              have survived from Luminary 131.
000016:                                                                                                  ##              2016-12-13 RSB  GOTOP00H -> GOTOPOOH
000017:                                                                                                  ##              2016-12-14 RSB  VNP00H -> VNPOOH.
000018:                                                                                                  ##              2016-12-14 RSB  Proofed text comments with octopus/ProoferComments
000019:                                                                                                  ##                              and corrected the errors found.
000020:                                                                                                  ##
000021:                                                                                                  ## This source code has been transcribed or otherwise adapted from
000022:                                                                                                  ## digitized images of a hardcopy from the MIT Museum.  The digitization
000023:                                                                                                  ## was performed by Paul Fjeld, and arranged for by Deborah Douglas of
000024:                                                                                                  ## the Museum.  Many thanks to both.  The images (with suitable reduction
000025:                                                                                                  ## in storage size and consequent reduction in image quality as well) are
000026:                                                                                                  ## available online at www.ibiblio.org/apollo.  If for some reason you
000027:                                                                                                  ## find that the images are illegible, contact me at info@sandroid.org
000028:                                                                                                  ## about getting access to the (much) higher-quality images which Paul
000029:                                                                                                  ## actually created.
000030:                                                                                                  ##
000031:                                                                                                  ## Notations on the hardcopy document read, in part:
000032:                                                                                                  ##
000033:                                                                                                  ##      Assemble revision 001 of AGC program LMY99 by NASA 2021112-61
000034:                                                                                                  ##      16:27 JULY 14, 1969
000035:


000037:                                                                                                  #  PROGRAM DESCRIPTION P30       DATE 3-6-67
000038:
000039:                                                                                                  #  MOD.1 BY RAMA AIYAWAR
000040:
000041:                                                                                                  #  FUNCTIONAL DESCRIPTION
000042:                                                                                                  #        ACCEPT ASTRONAUT INPUTS OF TIG,DELV(LV)
000043:                                                                                                  #        CALL IMU STATUS CHECK ROUTINE (R02)
000044:                                                                                                  #        DISPLAY TIME TO GO, APOGEE, PERIGEE, DELV(MAG), MGA AT IGN
000045:                                                                                                  #        REQUEST BURN PROGRAM
000046:
000047:                                                                                                  #  CALLING SEQUENCE VIA JOB FROM V37
000048:
000049:                                                                                                  #  EXIT VIA V37 CALL OR TO GOTOPOOH (V34E)
000050:
000051:                                                                                                  #  SUBROUTINE CALLS -    FLAGUP, PHASCHNG, BANKCALL, ENDOFJOB, GOFLASH, GOFLASHR
000052:                                                                                                  #                        GOPERF3R, INTPRET, BLANKET, GOTOPOOH, R02BOTH, S30.1,
000053:                                                                                                  #                        TTG/N35, MIDGIM, DISPMGA
000054:
000055:                                                                                                  #  ERASABLE INITIALIZATION - STATE VECTOR
000056:
000057:                                                                                                  #  OUTPUT -      RINIT, VINIT, +MGA, VTIG, RTIG, DELVSIN, DELVSAB, DELVSLV, HAPO,
000058:                                                                                                  #                HPER, TTOGO
000059:
000060:                                                                                                  #  DEBRIS - A, L, MPAC, PUSHLIST
000061:
000062: 32,2776                                           BANK     32
000063: 35,2000                                           SETLOC   P30S
000064: 35,2000                                           BANK
000065: 35,2000  E4,1652                                  EBANK=   +MGA
000066: 35,2000                                           COUNT*   $$/P30
000067: 35,2000           05504        P30                TC       UPFLAG                                #  SET UPDATE FLAG
000068: 35,2001           00027                           ADRES    UPDATFLG
000069: 35,2002           05504                           TC       UPFLAG                                #  SET TRACK FLAG
000070: 35,2003           00031                           ADRES    TRACKFLG
000071:
000072: 35,2004           32025        P30N33             CAF      V06N33                                #  T OF IGN
000073: 35,2005           03712                           TC       VNPOOH                                #  RETURNS ON PROCEED, POOH ON TERMINATE
000074:
000075: 35,2006           33727                           CAF      V06N81                                #  DISPLAY DELTA V (LV)
000076: 35,2007           03712                           TC       VNPOOH                                #        REDISPLAY ON RECYCLE
000077:
000078: 35,2010           05516                           TC       DOWNFLAG                              #  RESET UPDATE FLAG
000079: 35,2011           00027                           ADRES    UPDATFLG
000080: 35,2012           06037                           TC       INTPRET
000081: 35,2013           77624                           CALL
000082: 35,2014           70000                                    S30.1
000083: 35,2015           77414                           SET      EXIT
000084: 35,2016           00470                                    UPDATFLG
000085: 35,2017           32026        PARAM30            CAF      V06N42                                #  DISPLAY APOGEE,PERIGEE,DELTA V
000086: 35,2020           03712                           TC       VNPOOH


000088:
000089: 35,2021           06037                           TC       INTPRET
000090: 35,2022           77614                           SETGO
000091: 35,2023           01027                                    XDELVFLG                              #  FOR P40'S: EXTERNAL DELTA-V GUIDANCE.
000092: 35,2024           72540                                    REVN1645                              #  TRKMKCNT, TGO, +MGA  DISPLAY
000093:
000094: 35,2025           01441        V06N33             VN       0633
000095: 35,2026           01452        V06N42             VN       0642
000096:


000098:                                                                                                  #  PROGRAM DESCRIPTION S30.1     DATE 9NOV66
000099:                                                                                                  #  MOD NO 1                      LOG SECTION P30,P37
000100:                                                                                                  #  MOD BY RAMA AIYAWAR **
000101:
000102:                                                                                                  #  FUNCTIONAL DESCRIPTION
000103:                                                                                                  #        BASED ON STORED TARGET PARAMETERS (R OF IGNITION (RTIG), V OF
000104:                                                                                                  #        IGNITION (VTIG), TIME OF IGNITION (TIG)), COMPUTE PERIGEE ALTITUDE
000105:                                                                                                  #        APOGEE ALTITUDE AND DELTAV REQUIRED (DELVSIN).
000106:
000107:                                                                                                  #  CALLING SEQUENCE
000108:                                                                                                  #        L       CALL
000109:                                                                                                  #        L+1             S30.1
000110:
000111:                                                                                                  #  NORMAL EXIT MODE
000112:                                                                                                  #        AT L+2 OR CALLING SEQUENCE (GOTO L+2)
000113:
000114:                                                                                                  #  SUBROUTINES CALLED
000115:                                                                                                  #        LEMPREC
000116:                                                                                                  #        PERIAPO
000117:
000118:                                                                                                  #  ALARM OR ABORT EXIT MODES
000119:                                                                                                  #        NONE
000120:
000121:                                                                                                  #  ERASABLE INITIALIZATION REQUIRED
000122:                                                                                                  #        TIG             TIME OF IGNITION        DP B28CS
000123:                                                                                                  #        DELVSLV         SPECIFIED DELTA-V IN LOCAL VERT.
000124:                                                                                                  #                        COORDS. OF ACTIVE VEHICLE AT
000125:                                                                                                  #                        TIME OF IGNITION        VECTOR B+7 METERS/CS
000126:
000127:                                                                                                  #  OUTPUT
000128:                                                                                                  #        RTIG            POSITION AT TIG         VECTOR B+29 METERS
000129:                                                                                                  #        VTIG            VELOCITY AT TIG         VECTOR B+29 METERS/CS
000130:                                                                                                  #        PDL 4D          APOGEE ALTITUDE         DP B+29 M, B+27 METERS.
000131:                                                                                                  #        HAPO            APOGEE ALTITUDE         DP B+29 METERS
000132:                                                                                                  #        PDL 8D          PERIGEE ALTITUDE        DP B+29 M, B+27 METERS.
000133:                                                                                                  #        HPER            PERIGEE ALTITUDE        DP B+29 METERS
000134:                                                                                                  #        DELVSIN         SPECIFIED DELTA-V IN INERTIAL
000135:                                                                                                  #                        COORD. OF ACTIVE VEHICLE AT
000136:                                                                                                  #                        TIME OF IGNITION        VECTOR B+7 METERS/CS
000137:                                                                                                  #        DELVSAB         MAG. OF DELVSIN         VECTOR B+7 METERS/CS
000138:
000139:                                                                                                  #  DEBRIS        QTEMP   TEMP.ERASABLE
000140:                                                                                                  #                QPRET, MPAC
000141:                                                                                                  #                PUSHLIST
000142:
000143: 34,2000                                           SETLOC   P30S1
000144: 34,2000                                           BANK
000145:
000146: 34,2000                                           COUNT*   $$/S30S
000147:
000148: 34,2000           71220        S30.1              STQ      DLOAD
000149: 34,2001           03632                                    QTEMP
000150: 34,2002           03442                                    TIG                                   #  TIME IGNITION SCALED AT 2(+28)CS
000151: 34,2003           34041                           STCALL   TDEC1
000152: 34,2004           27057                                    LEMPREC                               #  ENCKE ROUTINE FOR LEM
000153:
000154: 34,2005           67175                           VLOAD    SXA,2


000156: 34,2006           00001                                    RATT
000157: 34,2007           02777                                    RTX2
000158: 34,2010           03642                           STORE    RTIG                                  #  RADIUS VECTOR AT IGNITION TIME
000159: 34,2011           57456                           UNIT     VCOMP
000160: 34,2012           27656                           STOVL    DELVSIN                               #  ZRF/LV IN DELVSIN SCALED AT 2
000161: 34,2013           00007                                    VATT                                  #  VELOCITY VECTOR AT TIG, SCALED 2(7) M/CS
000162: 34,2014           03650                           STORE    VTIG
000163: 34,2015           53435                           VXV      UNIT
000164: 34,2016           03642                                    RTIG
000165: 34,2017           66001                           SETPD    SXA,1
000166: 34,2020           00001                                    0
000167: 34,2021           02776                                    RTX1
000168: 34,2022           47206                           PUSH     VXV                                   #  YRF/LV PDL 0 SCALED AT 2
000169: 34,2023           03656                                    DELVSIN
000170: 34,2024           63372                           VSL1     PDVL
000171: 34,2025           63315                           PDVL     PDVL                                  #  YRF/LV PDL 6 SCALED AT 2
000172: 34,2026           03656                                    DELVSIN                               #  ZRF/LV PDL 12D SCALED AT 2
000173: 34,2027           03434                                    DELVSLV
000174: 34,2030           76505                           VXM      VSL1
000175: 34,2031           00001                                    0
000176: 34,2032           03656                           STORE    DELVSIN                               #  DELTAV IN INERT. COOR. SCALED TO B+7M/CS
000177: 34,2033           77646                           ABVAL
000178: 34,2034           27664                           STOVL    DELVSAB                               #  DELTA V MAG.
000179: 34,2035           03642                                    RTIG                                  #  (FOR PERIAPO)
000180: 34,2036           53315                           PDVL     VAD                                   #  VREQUIRED = VTIG + DELVSIN (FOR PERIAPO)
000181: 34,2037           03650                                    VTIG
000182: 34,2040           03656                                    DELVSIN
000183: 34,2041           77624                           CALL
000184: 34,2042           46316                                    PERIAPO1
000185: 34,2043           77624                           CALL
000186: 34,2044           46426                                    SHIFTR1                               #  RESCALE IF NEEDED
000187: 34,2045           77624                           CALL                                           #  LIMIT DISPLAY TO 9999.9 N. MI.
000188: 34,2046           45636                                    MAXCHK
000189: 34,2047           16321                           STODL    HPER                                  #  PERIGEE ALT 2(29) METERS, FOR DISPLAY
000190: 34,2050           00005                                    4D
000191: 34,2051           77624                           CALL
000192: 34,2052           46426                                    SHIFTR1                               #  RESCALE IF NEEDED
000193: 34,2053           77624                           CALL                                           #  LIMIT DISPLAY TO 9999.9 N. MI.
000194: 34,2054           45636                                    MAXCHK
000195: 34,2055           36317                           STCALL   HAPO                                  #  APOGEE ALT 2(29) METERS, FOR DISPLAY
000196: 34,2056           03632                                    QTEMP
000197:
000198:

End of include-file P30,P37.agc.  Parent file is MAIN.agc


