
Source Code


000002:                                                                                                  ## Copyright:   Public domain.
000003:                                                                                                  ## Filename:    P30_P37.agc
000004:                                                                                                  ## Purpose:     Part of the source code for Luminary 1A build 099.
000005:                                                                                                  ##              It is part of the source code for the Lunar Module's (LM)
000006:                                                                                                  ##              Apollo Guidance Computer (AGC), for Apollo 11.
000007:                                                                                                  ## Assembler:   yaYUL
000008:                                                                                                  ## Contact:     Ron Burkey <info@sandroid.org>.
000009:                                                                                                  ## Website:     www.ibiblio.org/apollo.
000010:                                                                                                  ## Pages:       614-617
000011:                                                                                                  ## Mod history: 2009-05-17 RSB  Adapted from the corresponding
000012:                                                                                                  ##                              Luminary131 file, using page
000013:                                                                                                  ##                              images from Luminary 1A.
000014:                                                                                                  ##              2009-06-05 RSB  Removed 4 lines of code that shouldn't
000015:                                                                                                  ##                              have survived from Luminary 131.
000016:                                                                                                  ##
000017:                                                                                                  ## This source code has been transcribed or otherwise adapted from
000018:                                                                                                  ## digitized images of a hardcopy from the MIT Museum.  The digitization
000019:                                                                                                  ## was performed by Paul Fjeld, and arranged for by Deborah Douglas of
000020:                                                                                                  ## the Museum.  Many thanks to both.  The images (with suitable reduction
000021:                                                                                                  ## in storage size and consequent reduction in image quality as well) are
000022:                                                                                                  ## available online at www.ibiblio.org/apollo.  If for some reason you
000023:                                                                                                  ## find that the images are illegible, contact me at info@sandroid.org
000024:                                                                                                  ## about getting access to the (much) higher-quality images which Paul
000025:                                                                                                  ## actually created.
000026:                                                                                                  ##
000027:                                                                                                  ## Notations on the hardcopy document read, in part:
000028:                                                                                                  ##
000029:                                                                                                  ##      Assemble revision 001 of AGC program LMY99 by NASA 2021112-61
000030:                                                                                                  ##      16:27 JULY 14, 1969
000031:


000033:                                                                                                  #  PROGRAM DESCRIPTION P30       DATE 3-6-67
000034:
000035:                                                                                                  #  MOD.1 BY RAMA AIYAWAR
000036:
000037:                                                                                                  #  FUNCTIONAL DESCRIPTIONS
000038:                                                                                                  #        ACCEPT ASTRONAUT INPUTS OF TIG,DELV(LV)
000039:                                                                                                  #        CALL IMU STATUS CHECK ROUTINE (R02)
000040:                                                                                                  #        DISPLAY TIME TO GO, APOGEE, PERIGEE, DELV(MAG), MGA AT IGN
000041:                                                                                                  #        REQUEST BURN PROGRAM
000042:
000043:                                                                                                  #  CALLING SEQUENCE VIA JOB FROM V37
000044:
000045:                                                                                                  #  EXIT VIA V37 CALL OR TO GOTOP00H (V34E)
000046:
000047:                                                                                                  #  SUBROUTINE CALLS --   FLAGUP, PHASCHNG, BANKCALL, ENDOFJOB, GOFLASH, GOFLASHR
000048:                                                                                                  #                        GOPERF3R, INTPRET, BLANKET, GOTOP00H, R02BOTH, S30.1,
000049:                                                                                                  #                        TIG/N35, MIDGIM, DISPMGA
000050:
000051:                                                                                                  #  ERASABLE INITIALIZATION -- STATE VECTOR
000052:
000053:                                                                                                  #  OUTPUT --     RINIT, VINIT, +MGA, VTIG, RTIG, DELVSIN, DELVSAB, DELVSLV, HAPO,
000054:                                                                                                  #                HPER, TTOGO
000055:
000056:                                                                                                  #  DEBRIS -- A, L, MPAC, PUSHLIST
000057:
000058: 32,2776                                           BANK     32
000059: 35,2000                                           SETLOC   P30S
000060: 35,2000                                           BANK
000061: 35,2000  E4,1652                                  EBANK=   +MGA
000062: 35,2000                                           COUNT*   $$/P30
000063: 35,2000           05504        P30                TC       UPFLAG                                #  SET UPDATE FLAG
000064: 35,2001           00027                           ADRES    UPDATFLG
000065: 35,2002           05504                           TC       UPFLAG                                #  SET TRACK FLAG
000066: 35,2003           00031                           ADRES    TRACKFLG
000067:
000068: 35,2004           32025        P30N33             CAF      V06N33                                #  T OF IGN
000069: 35,2005           03712                           TC       VNP00H                                #  RETURN ON PROCEED, P00H ON TERMINATE
000070:
000071: 35,2006           33727                           CAF      V06N81                                #  DISPLAY DELTA V (LV)
000072: 35,2007           03712                           TC       VNP00H                                #        REDISPLAY ON RECYCLE
000073:
000074: 35,2010           05516                           TC       DOWNFLAG                              #  RESET UPDATE FLAG
000075: 35,2011           00027                           ADRES    UPDATFLG
000076: 35,2012           06037                           TC       INTPRET
000077: 35,2013           77624                           CALL
000078: 35,2014           70000                                    S30.1
000079: 35,2015           77414                           SET      EXIT
000080: 35,2016           00470                                    UPDATFLG
000081: 35,2017           32026        PARAM30            CAF      V06N42                                #  DISPLAY APOGEE,PERIGEE,DELTA V
000082: 35,2020           03712                           TC       VNP00H


000084:
000085: 35,2021           06037                           TC       INTPRET
000086: 35,2022           77614                           SETGO
000087: 35,2023           01027                                    XDELVFLG                              #  FOR P40'S: EXTERNAL DELTA-V GUIDANCE.
000088: 35,2024           72540                                    REVN1645                              #  TRKMKCNT, T60, +MGA  DISPLAY
000089:
000090: 35,2025           01441        V06N33             VN       0633
000091: 35,2026           01452        V06N42             VN       0642
000092:


000094:                                                                                                  #  PROGRAM DESCRPTION S30.1      DATE 9NOV66
000095:                                                                                                  #  MOD NO 1                      LOG SECTION P30,P37
000096:                                                                                                  #  MOD BY RAMA AIYAWAR **
000097:
000098:                                                                                                  #  FUNCTIONAL DESCRIPTION
000099:                                                                                                  #        BASED ON STORED TARGET PARAMETERS (R OF IGNITION (RTIG), V OF
000100:                                                                                                  #        IGNITION (VTIG), TIME OF IGNITION (TIG)), COMPUTE PERIGEE ALTITUDE
000101:                                                                                                  #        APOGEE ALTITUDE AND DELTAV REQUIRED (DELVSIN).
000102:
000103:                                                                                                  #  CALLING SEQUENCE
000104:                                                                                                  #        L       CALL
000105:                                                                                                  #        L+1             s30.1
000106:
000107:                                                                                                  #  NORMAL EXIT MODE
000108:                                                                                                  #        AT L+2 OR CALLING SEQUENCE (GOTO L+2)
000109:
000110:                                                                                                  #  SUBROUTINES CALLED
000111:                                                                                                  #        LEMPREC
000112:                                                                                                  #        PERIAPO
000113:
000114:                                                                                                  #  ALARM OR ABORT EXIT MODES
000115:                                                                                                  #        NONE
000116:
000117:                                                                                                  #  ERASABLE INITIALIZATION REQUIRED
000118:                                                                                                  #        TIG             TIME OF IGNITION        DP B28CS
000119:                                                                                                  #        DELVSLV         SPECIFIED DELTA-V IN LOCAL VERT.
000120:                                                                                                  #                        COORDS. OF ACTIVE VEHICLE AT
000121:                                                                                                  #                        TIME OF IGNITION        VECTOR B+7 METERS/CS
000122:
000123:                                                                                                  #  OUTPUT
000124:                                                                                                  #        RTIG            POSITION AT TIG         VECTOR B+29 METERS
000125:                                                                                                  #        VTIG            VELOCITY AT TIG         VECTOR B+29 METERS/CS
000126:                                                                                                  #        PDL 4D          APOGEE ALTITUDE         DP B+29 M, B+27 METERS.
000127:                                                                                                  #        HAPO            APOGEE ALTITUDE         DP B+29 METERS
000128:                                                                                                  #        PDL 8D          PERIGEE ALTITUDE        DP B+29 M, B+27 METERS.
000129:                                                                                                  #        HPER            PERIGEE ALTITUDE        DP B+29 METERS
000130:                                                                                                  #        DELVSIN         SPECIFIED DELTA-V IN INTERTIAL
000131:                                                                                                  #                        COORD. OF ACTIVE VEHICLE AT
000132:                                                                                                  #                        TIME OF IGNITION        VECTOR B+7 METERS/CS
000133:                                                                                                  #        DELVSAB         MAG. OF DELVSIN         VECTOR B+7 METERS/CS
000134:
000135:                                                                                                  #  DEBRIS        QTEMP   TEMP.ERASABLE
000136:                                                                                                  #                QPRET, MPAC
000137:                                                                                                  #                PUSHLIST
000138:
000139: 34,2000                                           SETLOC   P30S1
000140: 34,2000                                           BANK
000141:
000142: 34,2000                                           COUNT*   $$/S30S
000143:
000144: 34,2000           71220        S30.1              STQ      DLOAD
000145: 34,2001           03632                                    QTEMP
000146: 34,2002           03442                                    TIG                                   #  TIME IGNITION SCALED AT 2(+28)CS
000147: 34,2003           34041                           STCALL   TDEC1
000148: 34,2004           27057                                    LEMPREC                               #  ENCKE ROUTINE FOR LEM
000149:
000150: 34,2005           67175                           VLOAD    SXA,2


000152: 34,2006           00001                                    RATT
000153: 34,2007           02777                                    RTX2
000154: 34,2010           03642                           STORE    RTIG                                  #  RADIUS VECTOR AT IGNITION TIME
000155: 34,2011           57456                           UNIT     VCOMP
000156: 34,2012           27656                           STOVL    DELVSIN                               #  ZRF/LV IN DELVSIN SCALED AT 2
000157: 34,2013           00007                                    VATT                                  #  VELOCITY VECTOR AT TIG, SCALED 2(7) M/CS
000158: 34,2014           03650                           STORE    VTIG
000159: 34,2015           53435                           VXV      UNIT
000160: 34,2016           03642                                    RTIG
000161: 34,2017           66001                           SETPD    SXA,1
000162: 34,2020           00001                                    0
000163: 34,2021           02776                                    RTX1
000164: 34,2022           47206                           PUSH     VXV                                   #  YRF/LV PDL 0 SCALED AT 2
000165: 34,2023           03656                                    DELVSIN
000166: 34,2024           63372                           VSL1     PDVL
000167: 34,2025           63315                           PDVL     PDVL                                  #  YRF/LV PDL 6 SCALED AT 2
000168: 34,2026           03656                                    DELVSIN                               #  ZRF/LV PDL 12D SCALED AT 2
000169: 34,2027           03434                                    DELVSLV
000170: 34,2030           76505                           VXM      VSL1
000171: 34,2031           00001                                    0
000172: 34,2032           03656                           STORE    DELVSIN                               #  DELTAV IN INERT. COOR. SCALED TO B+7M/CS
000173: 34,2033           77646                           ABVAL
000174: 34,2034           27664                           STOVL    DELVSAB                               #  DELTA V MAG.
000175: 34,2035           03642                                    RTIG                                  #  (FOR PERIAPO)
000176: 34,2036           53315                           PDVL     VAD                                   #  VREQUIRED = VTIG + DELVSIN (FOR PERIAPO)
000177: 34,2037           03650                                    VTIG
000178: 34,2040           03656                                    DELVSIN
000179: 34,2041           77624                           CALL
000180: 34,2042           46316                                    PERIAPO1
000181: 34,2043           77624                           CALL
000182: 34,2044           46426                                    SHIFTR1                               #  RESCALE IF NEEDED
000183: 34,2045           77624                           CALL                                           #  LIMIT DISPLAY TO 9999.9 N. MI.
000184: 34,2046           45636                                    MAXCHK
000185: 34,2047           16321                           STODL    HPER                                  #  PERIGEE ALT 2(29) METERS FOR DISPLAY
000186: 34,2050           00005                                    4D
000187: 34,2051           77624                           CALL
000188: 34,2052           46426                                    SHIFTR1                               #  RESCALE IF NEEDED
000189: 34,2053           77624                           CALL                                           #  LIMIT DISPLAY TO 9999.9 N. MI.
000190: 34,2054           45636                                    MAXCHK
000191: 34,2055           36317                           STCALL   HAPO                                  #  APOGEE ALT 2(29) METERS FOR DISPLAY
000192: 34,2056           03632                                    QTEMP
000193:
000194:

End of include-file P30_P37.agc.  Parent file is MAIN.agc


