
Source Code
000001:                                                                                                 #  Copyright:     Public domain.
000002:                                                                                                 #  Filename:      P30_P37.agc
000003:                                                                                                 #  Purpose:       Part of the source code for Luminary 1A build 099.
000004:                                                                                                 #                 It is part of the source code for the Lunar Module's (LM)
000005:                                                                                                 #                 Apollo Guidance Computer (AGC), for Apollo 11.
000006:                                                                                                 #  Assembler:     yaYUL
000007:                                                                                                 #  Contact:       Ron Burkey <info@sandroid.org>.
000008:                                                                                                 #  Website:       www.ibiblio.org/apollo.
000009:                                                                                                 #  Pages: 614-617
000010:                                                                                                 #  Mod history:   2009-05-17 RSB  Adapted from the corresponding
000011:                                                                                                 #                                 Luminary131 file, using page
000012:                                                                                                 #                                 images from Luminary 1A.
000013:                                                                                                 #                 2009-06-05 RSB  Removed 4 lines of code that shouldn't
000014:                                                                                                 #                                 have survived from Luminary 131.
000015:
000016:                                                                                                 #  This source code has been transcribed or otherwise adapted from
000017:                                                                                                 #  digitized images of a hardcopy from the MIT Museum.  The digitization
000018:                                                                                                 #  was performed by Paul Fjeld, and arranged for by Deborah Douglas of
000019:                                                                                                 #  the Museum.  Many thanks to both.  The images (with suitable reduction
000020:                                                                                                 #  in storage size and consequent reduction in image quality as well) are
000021:                                                                                                 #  available online at www.ibiblio.org/apollo.  If for some reason you
000022:                                                                                                 #  find that the images are illegible, contact me at info@sandroid.org
000023:                                                                                                 #  about getting access to the (much) higher-quality images which Paul
000024:                                                                                                 #  actually created.
000025:
000026:                                                                                                 #  Notations on the hardcopy document read, in part:
000027:
000028:                                                                                                 #         Assemble revision 001 of AGC program LMY99 by NASA 2021112-61
000029:                                                                                                 #         16:27 JULY 14, 1969
000030:
000031:                                                                                                 #  Page 614
000032:                                                                                                 #  PROGRAM DESCRIPTION P30        DATE 3-6-67
000033:
000034:                                                                                                 #  MOD.1 BY RAMA AIYAWAR
000035:
000036:                                                                                                 #  FUNCTIONAL DESCRIPTIONS
000037:                                                                                                 #         ACCEPT ASTRONAUT INPUTS OF TIG,DELV(LV)
000038:                                                                                                 #         CALL IMU STATUS CHECK ROUTINE (R02)
000039:                                                                                                 #         DISPLAY TIME TO GO, APOGEE, PERIGEE, DELV(MAG), MGA AT IGN
000040:                                                                                                 #         REQUEST BURN PROGRAM
000041:
000042:                                                                                                 #  CALLING SEQUENCE VIA JOB FROM V37
000043:
000044:                                                                                                 #  EXIT VIA V37 CALL OR TO GOTOP00H (V34E)
000045:
000046:                                                                                                 #  SUBROUTINE CALLS --    FLAGUP, PHASCHNG, BANKCALL, ENDOFJOB, GOFLASH, GOFLASHR
000047:                                                                                                 #                         GOPERF3R, INTPRET, BLANKET, GOTOP00H, R02BOTH, S30.1,
000048:                                                                                                 #                         TIG/N35, MIDGIM, DISPMGA
000049:
000050:                                                                                                 #  ERASABLE INITIALIZATION -- STATE VECTOR
000051:
000052:                                                                                                 #  OUTPUT --      RINIT, VINIT, +MGA, VTIG, RTIG, DELVSIN, DELVSAB, DELVSLV, HAPO,
000053:                                                                                                 #                 HPER, TTOGO
000054:
000055:                                                                                                 #  DEBRIS -- A, L, MPAC, PUSHLIST
000056:
000057: 32,2776                                          BANK     32
000058: 35,2000                                          SETLOC   P30S
000059: 35,2000                                          BANK
000060: 35,2000  E4,1652                                 EBANK=   +MGA
000061: 35,2000                                          COUNT*   $$/P30
000062: 35,2000           05504        P30               TC       UPFLAG                                #  SET UPDATE FLAG
000063: 35,2001           00027                          ADRES    UPDATFLG
000064: 35,2002           05504                          TC       UPFLAG                                #  SET TRACK FLAG
000065: 35,2003           00031                          ADRES    TRACKFLG
000066:
000067: 35,2004           32025        P30N33            CAF      V06N33                                #  T OF IGN
000068: 35,2005           03712                          TC       VNP00H                                #  RETURN ON PROCEED, P00H ON TERMINATE
000069:
000070: 35,2006           33727                          CAF      V06N81                                #  DISPLAY DELTA V (LV)
000071: 35,2007           03712                          TC       VNP00H                                #         REDISPLAY ON RECYCLE
000072:
000073: 35,2010           05516                          TC       DOWNFLAG                              #  RESET UPDATE FLAG
000074: 35,2011           00027                          ADRES    UPDATFLG
000075: 35,2012           06037                          TC       INTPRET
000076: 35,2013           77624                          CALL
000077: 35,2014           70000                                   S30.1
000078: 35,2015           77414                          SET      EXIT
000079: 35,2016           00470                                   UPDATFLG
000080: 35,2017           32026        PARAM30           CAF      V06N42                                #  DISPLAY APOGEE,PERIGEE,DELTA V
000081: 35,2020           03712                          TC       VNP00H
000082:                                                                                                 #  Page 615
000083:
000084: 35,2021           06037                          TC       INTPRET
000085: 35,2022           77614                          SETGO
000086: 35,2023           01027                                   XDELVFLG                              #  FOR P40'S: EXTERNAL DELTA-V GUIDANCE.
000087: 35,2024           72540                                   REVN1645                              #  TRKMKCNT, T60, +MGA  DISPLAY
000088:
000089: 35,2025           01441        V06N33            VN       0633
000090: 35,2026           01452        V06N42            VN       0642
000091:
000092:                                                                                                 #  Page 616
000093:                                                                                                 #  PROGRAM DESCRPTION S30.1       DATE 9NOV66
000094:                                                                                                 #  MOD NO 1                       LOG SECTION P30,P37
000095:                                                                                                 #  MOD BY RAMA AIYAWAR **
000096:
000097:                                                                                                 #  FUNCTIONAL DESCRIPTION
000098:                                                                                                 #         BASED ON STORED TARGET PARAMETERS (R OF IGNITION (RTIG), V OF
000099:                                                                                                 #         IGNITION (VTIG), TIME OF IGNITION (TIG)), COMPUTE PERIGEE ALTITUDE
000100:                                                                                                 #         APOGEE ALTITUDE AND DELTAV REQUIRED (DELVSIN).
000101:
000102:                                                                                                 #  CALLING SEQUENCE
000103:                                                                                                 #         L       CALL
000104:                                                                                                 #         L+1             s30.1
000105:
000106:                                                                                                 #  NORMAL EXIT MODE
000107:                                                                                                 #         AT L+2 OR CALLING SEQUENCE (GOTO L+2)
000108:
000109:                                                                                                 #  SUBROUTINES CALLED
000110:                                                                                                 #         LEMPREC
000111:                                                                                                 #         PERIAPO
000112:
000113:                                                                                                 #  ALARM OR ABORT EXIT MODES
000114:                                                                                                 #         NONE
000115:
000116:                                                                                                 #  ERASABLE INITIALIZATION REQUIRED
000117:                                                                                                 #         TIG             TIME OF IGNITION        DP B28CS
000118:                                                                                                 #         DELVSLV         SPECIFIED DELTA-V IN LOCAL VERT.
000119:                                                                                                 #                         COORDS. OF ACTIVE VEHICLE AT
000120:                                                                                                 #                         TIME OF IGNITION        VECTOR B+7 METERS/CS
000121:
000122:                                                                                                 #  OUTPUT
000123:                                                                                                 #         RTIG            POSITION AT TIG         VECTOR B+29 METERS
000124:                                                                                                 #         VTIG            VELOCITY AT TIG         VECTOR B+29 METERS/CS
000125:                                                                                                 #         PDL 4D          APOGEE ALTITUDE         DP B+29 M, B+27 METERS.
000126:                                                                                                 #         HAPO            APOGEE ALTITUDE         DP B+29 METERS
000127:                                                                                                 #         PDL 8D          PERIGEE ALTITUDE        DP B+29 M, B+27 METERS.
000128:                                                                                                 #         HPER            PERIGEE ALTITUDE        DP B+29 METERS
000129:                                                                                                 #         DELVSIN         SPECIFIED DELTA-V IN INTERTIAL
000130:                                                                                                 #                         COORD. OF ACTIVE VEHICLE AT
000131:                                                                                                 #                         TIME OF IGNITION        VECTOR B+7 METERS/CS
000132:                                                                                                 #         DELVSAB         MAG. OF DELVSIN         VECTOR B+7 METERS/CS
000133:
000134:                                                                                                 #  DEBRIS QTEMP   TEMP.ERASABLE
000135:                                                                                                 #                 QPRET, MPAC
000136:                                                                                                 #                 PUSHLIST
000137:
000138: 34,2000                                          SETLOC   P30S1
000139: 34,2000                                          BANK
000140:
000141: 34,2000                                          COUNT*   $$/S30S
000142:
000143: 34,2000           71220        S30.1             STQ      DLOAD
000144: 34,2001           03632                                   QTEMP
000145: 34,2002           03442                                   TIG                                   #  TIME IGNITION SCALED AT 2(+28)CS
000146: 34,2003           34041                          STCALL   TDEC1
000147: 34,2004           27057                                   LEMPREC                               #  ENCKE ROUTINE FOR LEM
000148:
000149: 34,2005           67175                          VLOAD    SXA,2
000150:                                                                                                 #  Page 617
000151: 34,2006           00001                                   RATT
000152: 34,2007           02777                                   RTX2
000153: 34,2010           03642                          STORE    RTIG                                  #  RADIUS VECTOR AT IGNITION TIME
000154: 34,2011           57456                          UNIT     VCOMP
000155: 34,2012           27656                          STOVL    DELVSIN                               #  ZRF/LV IN DELVSIN SCALED AT 2
000156: 34,2013           00007                                   VATT                                  #  VELOCITY VECTOR AT TIG, SCALED 2(7) M/CS
000157: 34,2014           03650                          STORE    VTIG
000158: 34,2015           53435                          VXV      UNIT
000159: 34,2016           03642                                   RTIG
000160: 34,2017           66001                          SETPD    SXA,1
000161: 34,2020           00001                                   0
000162: 34,2021           02776                                   RTX1
000163: 34,2022           47206                          PUSH     VXV                                   #  YRF/LV PDL 0 SCALED AT 2
000164: 34,2023           03656                                   DELVSIN
000165: 34,2024           63372                          VSL1     PDVL
000166: 34,2025           63315                          PDVL     PDVL                                  #  YRF/LV PDL 6 SCALED AT 2
000167: 34,2026           03656                                   DELVSIN                               #  ZRF/LV PDL 12D SCALED AT 2
000168: 34,2027           03434                                   DELVSLV
000169: 34,2030           76505                          VXM      VSL1
000170: 34,2031           00001                                   0
000171: 34,2032           03656                          STORE    DELVSIN                               #  DELTAV IN INERT. COOR. SCALED TO B+7M/CS
000172: 34,2033           77646                          ABVAL
000173: 34,2034           27664                          STOVL    DELVSAB                               #  DELTA V MAG.
000174: 34,2035           03642                                   RTIG                                  #  (FOR PERIAPO)
000175: 34,2036           53315                          PDVL     VAD                                   #  VREQUIRED = VTIG + DELVSIN (FOR PERIAPO)
000176: 34,2037           03650                                   VTIG
000177: 34,2040           03656                                   DELVSIN
000178: 34,2041           77624                          CALL
000179: 34,2042           46316                                   PERIAPO1
000180: 34,2043           77624                          CALL
000181: 34,2044           46426                                   SHIFTR1                               #  RESCALE IF NEEDED
000182: 34,2045           77624                          CALL                                           #  LIMIT DISPLAY TO 9999.9 N. MI.
000183: 34,2046           45636                                   MAXCHK
000184: 34,2047           16321                          STODL    HPER                                  #  PERIGEE ALT 2(29) METERS FOR DISPLAY
000185: 34,2050           00005                                   4D
000186: 34,2051           77624                          CALL
000187: 34,2052           46426                                   SHIFTR1                               #  RESCALE IF NEEDED
000188: 34,2053           77624                          CALL                                           #  LIMIT DISPLAY TO 9999.9 N. MI.
000189: 34,2054           45636                                   MAXCHK
000190: 34,2055           36317                          STCALL   HAPO                                  #  APOGEE ALT 2(29) METERS FOR DISPLAY
000191: 34,2056           03632                                   QTEMP
000192:
000193:

End of include-file P30_P37.agc.  Parent file is MAIN.agc


