
Source Code


000002:                                                                                                  ## Copyright:   Public domain.
000003:                                                                                                  ## Filename:    P51-P53.agc
000004:                                                                                                  ## Purpose:     Part of the source code for Luminary 1A build 099.
000005:                                                                                                  ##              It is part of the source code for the Lunar Module's (LM)
000006:                                                                                                  ##              Apollo Guidance Computer (AGC), for Apollo 11.
000007:                                                                                                  ## Assembler:   yaYUL
000008:                                                                                                  ## Contact:     Hartmuth Gutsche <hgutsche@xplornet.com>.
000009:                                                                                                  ## Website:     www.ibiblio.org/apollo.
000010:                                                                                                  ## Pages:       926-983
000011:                                                                                                  ## Mod history: 2009-05-31 HG   Transcribed from page images.
000012:                                                                                                  ##              2009-06-07 RSB  Corrected a typo.
000013:                                                                                                  ##              2016-12-13 RSB  GOTOP00H -> GOTOPOOH
000014:                                                                                                  ##              2016-12-17 RSB  Proofed text comments with octopus/ProoferComments
000015:                                                                                                  ##                              and corrected the errors found.
000016:                                                                                                  ##
000017:                                                                                                  ## This source code has been transcribed or otherwise adapted from
000018:                                                                                                  ## digitized images of a hardcopy from the MIT Museum.  The digitization
000019:                                                                                                  ## was performed by Paul Fjeld, and arranged for by Deborah Douglas of
000020:                                                                                                  ## the Museum.  Many thanks to both.  The images (with suitable reduction
000021:                                                                                                  ## in storage size and consequent reduction in image quality as well) are
000022:                                                                                                  ## available online at www.ibiblio.org/apollo.  If for some reason you
000023:                                                                                                  ## find that the images are illegible, contact me at info@sandroid.org
000024:                                                                                                  ## about getting access to the (much) higher-quality images which Paul
000025:                                                                                                  ## actually created.
000026:                                                                                                  ##
000027:                                                                                                  ## Notations on the hardcopy document read, in part:
000028:                                                                                                  ##
000029:                                                                                                  ##      Assemble revision 001 of AGC program LMY99 by NASA 2021112-61
000030:                                                                                                  ##      16:27 JULY 14, 1969
000031:


000033:                                                                                                  #  PROGRAM NAME - PROG52                 DATE - JAN 9, 1967
000034:                                                                                                  #  MOD NO - 0                                    LOG SECTION - P51-P53
000035:                                                                                                  #  MODIFICATION BY - LONSKE                      ASSEMBLY - SUNDANCE REV 46
000036:
000037:                                                                                                  #  FUNCTIONAL DESCRIPTION -
000038:
000039:                                                                                                  #        ALIGNS THE IMU TO ONE OF THREE ORIENTATIONS SELECTED BY THE ASTRONAUT.  THE PRESENT IMU ORIENTATION IS KNOWN
000040:                                                                                                  #        AND IS STORED IN REFSMMAT.  THE THREE POSSIBLE ORIENTATIONS MAY BE_
000041:
000042:                                                                                                  #        (A)     PREFERRED ORIENTATION
000043:
000044:                                                                                                  #                AN OPTIMUM ORIENTATION FOR A PREVIOUSLY CALCULATED MANUEVER.  THIS ORIENTATION MUST BE CALCULATED AND
000045:                                                                                                  #                STORED BY A PREVIOUSLY SELECTED PROGRAM.
000046:
000047:                                                                                                  #        (B)     NOMINAL ORIENTATION
000048:
000049:                                                                                                  #                X   = UNIT ( R )
000050:                                                                                                  #                -SM
000051:
000052:                                                                                                  #                Y   = UNIT (V X R)
000053:                                                                                                  #                 SM
000054:
000055:                                                                                                  #                Z   = UNIT (X   X Y  )
000056:                                                                                                  #                 SM          SM    SM
000057:
000058:                                                                                                  #                WHERE_
000059:
000060:                                                                                                  #                R = THE GEOCENTRIC RADIUS VECTOR AT TIME T(ALIGN) SELECTED BY THE ASTRONAUT
000061:                                                                                                  #                -
000062:
000063:                                                                                                  #                V = THE INERTIAL VELOCITY VECTOR AT TIME T(ALIGN) SELECTED BY THE ASTRONAUT
000064:                                                                                                  #                -
000065:
000066:                                                                                                  #        (C)     REFSMMAT ORIENTATION
000067:
000068:                                                                                                  #        (D)     LANDING SITE - THIS IS NOT AVAILIBLE IN SUNDANCE
000069:
000070:                                                                                                  #        THIS SELECTION CORRECTS THE PRESENT IMU ORIENTATION.  THE PRESENT ORIENTATION DIFFERS FROM THAT TO WHICH IT
000071:                                                                                                  #        WAS LAST ALIGNED ONLY DUE TO GYRO DRIFT (I.E. NEITHER GIMBAL LOCK NOR IMU POWER INTERRUPTION HAS OCCURED
000072:                                                                                                  #        SINCE THE LAST ALIGNMENT).
000073:
000074:                                                                                                  #        AFTER A IMU ORIENTATION HAS BEEN SELECTED ROUTINE S52.2 IS OPEPATED TO COMPUTE THE GIMBAL ANGLES USING THE
000075:                                                                                                  #        NEW ORIENTATION AND THE PRESENT VEHICLE ATTITUDE.  CAL52A THEN USES THESE ANGLES, STORED IN THETAD,+1,+2, TO
000076:                                                                                                  #        COARSE ALIGN THE IMU.  THE STAR SELECTION ROUTINE, R56, IS THEN OPERATED.  IF 2 STARS ARE NOT AVAILABLE AN ALARM
000077:                                                                                                  #        IS FLASHED TO NOTIFY THE ASTRONAUT.  AT THIS POINT THE ASTRONAUT WILL MANUEVER THE VEHICLE AND SELECT 2 STARS
000078:                                                                                                  #        EITHER MANUALLY OR AUTOMATICALLY.  AFTER 2 STARS HAVE BEEN SELECTED THE IMU IS FINE ALIGNED USING ROUTINE R51.  IF
000079:                                                                                                  #        THE RENDEZVOUS NAVIGATION PROCESS IS OPERATING (INDICATED BY RNDVZFLG) P20 IS DISPLAYED.  OTHERWISE P00 IS
000080:                                                                                                  #        REQUESTED.
000081:
000082:                                                                                                  #  CALLING SEQUENCE -
000083:


000085:                                                                                                  #        THE PROGRAM IS CALLED BY THE ASTRONAUT BY DSKY ENTRY.
000086:
000087:                                                                                                  #  SUBROUTINES CALLED -
000088:
000089:                                                                                                  #        1. FLAGDOWN              7. S52.2               13. NEWMODEX
000090:                                                                                                  #        2. R02BOTH               8. CAL53A              14. PRIOLARM
000091:                                                                                                  #        3. GOPERF4               9. FLAGUP
000092:                                                                                                  #        4. MATMOVE              10. R56
000093:                                                                                                  #        5. GOFLASH              11. R51
000094:                                                                                                  #        6. S52.3                12. GOPERF3
000095:
000096:                                                                                                  #  NORMAL EXIT MODES -
000097:
000098:                                                                                                  #        EXITS TO ENDOFJOB
000099:
000100:                                                                                                  #  ALARM OR ABORT EXIT MODES -
000101:
000102:                                                                                                  #        NONE
000103:
000104:                                                                                                  #  OUTPUT -
000105:
000106:                                                                                                  #        THE FOLLOWING MAY BE FLASHED ON THE DSKY
000107:                                                                                                  #                1. IMU ORIENTATION CODE
000108:                                                                                                  #                2. ALARM CODE 215 - PREFERRED IMU ORIENTATION NOT SPECIFIED
000109:                                                                                                  #                3. TIME OF NEXT IGNITION
000110:                                                                                                  #                4. GIMBAL ANGLES
000111:                                                                                                  #                5. ALARM CODE 405 - TWO STARS NOT AVAILABLE
000112:                                                                                                  #                6. PLEASE PERFORM P00
000113:                                                                                                  #        THE MODE DISPLAY MAY BE CHANGED TO 20
000114:
000115:                                                                                                  #  ERASABLE INITIALIZATION REQUIRED -
000116:
000117:                                                                                                  #        PFRATFLG SHOULD BE SET IF A PREFERRED ORIENTATION HAS BEEN COMPUTED.  IF IT HAS BEEN COMPUTED IT IS STORED IN
000118:                                                                                                  #        XSMD, YSMD, ZSMD.
000119:
000120:                                                                                                  #        RNDVZFLG INDICATES WHETHER THE RENDEZVOUS NAVIGATION PROCESS IS OPERATING.
000121:
000122:                                                                                                  #  DEBRIS -
000123:
000124:                                                                                                  #        WORK AREA
000125:
000126: 33,3777                                           BANK     33
000127: 15,2000                                           SETLOC   P50S
000128: 15,2000                                           BANK
000129:
000130: 15,2050  E5,1755                                  EBANK=   BESTI
000131: 15,2050                                           COUNT*   $$/P52
000132: 15,2050           04616        PROG52             TC       BANKCALL
000133: 15,2051           11254                           CADR     R02BOTH                               #  IMU STATUS CHECK
000134: 15,2052           34750                           CAF      PFRATBIT
000135: 15,2053           70076                           MASK     FLAGWRD2                              #  IS PFRATFLG SET?
000136: 15,2054           10000                           CCS      A


000138: 15,2055           02060                           TC       P52A                                  #  YES
000139: 15,2056           34752                           CAF      BIT2                                  #  NO
000140: 15,2057           02061                           TC       P52A       +1
000141: 15,2060           34753        P52A               CAF      BIT1
000142: 15,2061           55145                           TS       OPTION2
000143: 15,2062           34753        P52B               CAF      BIT1
000144: 15,2063           04616                           TC       BANKCALL                              #  FLASH OPTION CODE AND ORIENTATION CODE
000145: 15,2064           20713                           CADR     GOPERF4R                              #  FLASH V04N06
000146: 15,2065           06001                           TC       GOTOPOOH
000147: 15,2066           12073                           TCF      +5                                    #  V33 - PROCEED
000148: 15,2067           02062                           TC       P52B                                  #  NEW CODE - NEW ORIENTATION CODE INPUT
000149: 15,2070           05353                           TC       PHASCHNG                              #  DISPLAY RETURN
000150: 15,2071           00014                           OCT      00014
000151: 15,2072           05155                           TC       ENDOFJOB
000152:
000153: 15,2073           31145                           CA       OPTION2
000154: 15,2074           76245                           MASK     THREE
000155: 15,2075           50000                           INDEX    A
000156: 15,2076           02077                           TC       +1
000157: 15,2077           12105                           TCF      OPT4                                  #  OPTION 4 LANDING SITE
000158: 15,2100           12153                           TCF      P52H                                  #  OPTION 1 PREFERRED
000159: 15,2101           12110                           TCF      P52T                                  #  OPTION 2 NOMINAL
000160: 15,2102           06037        P52E               TC       INTPRET                               #  OPTION 3 REFSMMAT
000161: 15,2103           77650                           GOTO
000162: 15,2104           32164                                    P52F                                  #  GO DO R51
000163:
000164: 15,2105           00006        OPT4               EXTEND
000165: 15,2106           31401                           DCA      TLAND                                 #  IF OPTION 4 DISPLAY TLAND
000166: 15,2107           12112                           TCF      P52T       +2
000167:
000168: 15,2110           00006        P52T               EXTEND
000169: 15,2111           34755                           DCA      NEG0
000170: 15,2112           53046                           DXCH     DSPTEM1
000171: 15,2113           32170                           CAF      V06N34*
000172: 15,2114           04616                           TC       BANKCALL
000173: 15,2115           20476                           CADR     GOFLASH
000174: 15,2116           06001                           TC       GOTOPOOH
000175: 15,2117           02121                           TC       +2
000176: 15,2120           02113                           TC       -5
000177: 15,2121           53046                           DXCH     DSPTEM1
000178: 15,2122           00006                           EXTEND
000179: 15,2123           62125                           BZMF     +2                                    #  IF TIME ZERO OR NEG USE TIME2
000180: 15,2124           12127                           TCF      +3
000181: 15,2125           00006                           EXTEND
000182: 15,2126           30025                           DCA      TIME2
000183: 15,2127           53775                           DXCH     TALIGN
000184: 15,2130           31145        P52V               CA       OPTION2
000185: 15,2131           74752                           MASK     BIT2
000186: 15,2132           10000                           CCS      A
000187: 15,2133           02137                           TC       P52W


000189: 15,2134           06037                           TC       INTPRET                               #  OPTION 4 - GET LS ORIENTATION
000190: 15,2135           77650                           GOTO
000191: 15,2136           32220                                    P52LS
000192:


000194:                                                                                                  #  START ALIGNMENT
000195:
000196: 15,2137           06037        P52W               TC       INTPRET
000197: 15,2140           45145                           DLOAD    CALL                                  #  PICK UP ALIGN TIME
000198: 15,2141           02775                                    TALIGN                                #  COMPUTE NOMINAL IMU
000199: 15,2142           31650                                    S52.3                                 #        ORIENTATION
000200: 15,2143           77624        P52D               CALL                                           #  READ VEHICLE ATTITUDE AND
000201: 15,2144           31617                                    S52.2                                 #        COMPUTE GIMBAL ANGLES
000202: 15,2145           77776                           EXIT
000203: 15,2146           35010                           CAF      V06N22
000204: 15,2147           04616                           TC       BANKCALL                              #  DISPLAY GIMBAL ANGLES
000205: 15,2150           20476                           CADR     GOFLASH
000206: 15,2151           06001                           TC       GOTOPOOH
000207: 15,2152           12171                           TCF      COARSTYP                              #  V33 - PROCEED, SEE IF GYRO TORQUE COARSE
000208: 15,2153           06037        P52H               TC       INTPRET
000209: 15,2154           77650                           GOTO
000210: 15,2155           32143                                    P52D
000211: 15,2156           06037        REGCOARS           TC       INTPRET
000212: 15,2157           77624                           CALL                                           #  DO COARSE ALIGN
000213: 15,2160           31327                                    CAL53A                                #        ROUTINE
000214: 15,2161           43014        COARSRET           SET      CLEAR
000215: 15,2162           01462                                    REFSMFLG
000216: 15,2163           01273                                    PFRATFLG
000217: 15,2164           77624        P52F               CALL
000218: 15,2165           31015                                    R51
000219: 15,2166           77776        P52OUT             EXIT
000220: 15,2167           06001                           TC       GOTOPOOH
000221: 15,2170     5006               VB05N09            =        V05N09
000222: 15,2170           01442        V06N34*            VN       634
000223:


000225:                                                                                                  #  CHECK FOR GRRO TORQUE COARSE ALIGNMENT
000226:
000227: 15,2171           32217        COARSTYP           CAF      OCT13
000228: 15,2172           04616                           TC       BANKCALL                              #  DISPLAY V 50N25 WITH COARSE ALIGN OPTION
000229: 15,2173           20623                           CADR     GOPERF1
000230: 15,2174           16001                           TCF      GOTOPOOH                              #  V34 - TERMIN&OE
000231: 15,2175           12156                           TCF      REGCOARS                              #  V33 - NORMAL COARSE
000232: 15,2176           06037                           TC       INTPRET                               #  V32 - GYRO TORQUE COARSE
000233: 15,2177           64375                           VLOAD    MXV
000234: 15,2200           03607                                    XSMD                                  #  GET SM(DESIRED) WRT SM(PRESENT)
000235: 15,2201           01734                                    REFSMMAT
000236: 15,2202           77656                           UNIT
000237: 15,2203           26665                           STOVL    XDC
000238: 15,2204           03615                                    YSMD
000239: 15,2205           53521                           MXV      UNIT
000240: 15,2206           01734                                    REFSMMAT
000241: 15,2207           26673                           STOVL    YDC
000242: 15,2210           03623                                    ZSMD
000243: 15,2211           53521                           MXV      UNIT
000244: 15,2212           01734                                    REFSMMAT
000245: 15,2213           36701                           STCALL   ZDC
000246: 15,2214           31164                                    GYCOARS
000247: 15,2215           77650                           GOTO
000248: 15,2216           32166                                    P52OUT
000249: 15,2217           00013        OCT13              OCT      13
000250:


000252:                                                                                                  #  COMPUTE LANDING ORIENTATION FOR OPTION 4
000253:
000254: 15,2220           43014        P52LS              SET      CLEAR                                 #  GET LANDING SITE ORIENTATION
000255: 15,2221           01463                                    LUNAFLAG
000256: 15,2222           00662                                    ERADFLAG                              #  TO PICK UP RLS
000257: 15,2223           77201                           SETPD    VLOAD
000258: 15,2224           00001                                    0
000259: 15,2225           02023                                    RLS                                   #  PICK UP LANDING SITE VEC IN MF
000260: 15,2226           41525                           PDDL     PUSH                                  #  RLS PD 0-5
000261: 15,2227           02775                                    TALIGN
000262: 15,2230           36401                           STCALL   TLAND                                 #  JAM ALIGN TIME IN TLAND FOR OPTION 4
000263: 15,2231           55716                                    RP-TO-R                               #  TRANS RLS TO REF
000264: 15,2232           77742                           VSR2
000265: 15,2233           16032                           STODL    ALPHAV                                #  INPUT TO LAT-LONG
000266: 15,2234           02775                                    TALIGN
000267: 15,2235           77624                           CALL
000268: 15,2236           30446                                    N89DISP
000269: 15,2237           53575                           VLOAD    UNIT                                  #  COMPUTE LANDING SITE ORIENT (XSMD)
000270: 15,2240           02032                                    ALPHAV
000271: 15,2241           37607                           STCALL   XSMD
000272: 15,2242           11013                                    LSORIENT
000273: 15,2243           77650                           GOTO
000274: 15,2244           32143                                    P52D                                  #  NOW GO COMPUTE GIMBAL ANGLES
000275:


000277:                                                                                                  #  SUBROUTINE TO CALCULATE AND DISPLAY THE LUNAR LANDING SITE
000278:
000279: 14,2000                                           SETLOC   P50S1
000280: 14,2000                                           BANK
000281: 14,2446  E5,1642                                  EBANK=   XSM
000282:
000283: 14,2446           77620        N89DISP            STQ
000284: 14,2447           02746                                    QMAJ
000285: 14,2450           35243                           STCALL   GDT/2      +4                         #  TEMP STORE TIME
000286: 14,2451           26351                                    LAT-LONG
000287: 14,2452           70545                           DLOAD    SR1
000288: 14,2453           01123                                    LONG
000289: 14,2454           16711                           STODL    LANDLONG
000290: 14,2455           01125                                    ALT
000291: 14,2456           16713                           STODL    LANDALT
000292: 14,2457           01121                                    LAT
000293: 14,2460           16707                           STODL    LANDLAT
000294: 14,2461           77776                           EXIT
000295:
000296: 14,2462           32505        LSDISP             CAF      V06N89*                               #  DISPLAY LAT,LONG/2,ALT
000297: 14,2463           04616                           TC       BANKCALL
000298: 14,2464           20476                           CADR     GOFLASH
000299: 14,2465           16001                           TCF      GOTOPOOH                              #  V34 - TERMINATE - EXIT P57
000300: 14,2466           12470                           TCF      +2                                    #  V33 - PROCEED - ACCEPT LS DATA
000301: 14,2467           12462                           TCF      LSDISP                                #  V32 OR E - LOOK AGAIN AND/OR LOAD NEW LS
000302:
000303: 14,2470           06037                           TC       INTPRET
000304: 14,2471           72545                           DLOAD    SL1
000305: 14,2472           02711                                    LANDLONG
000306: 14,2473           15123                           STODL    LONG
000307: 14,2474           02713                                    LANDALT
000308: 14,2475           15125                           STODL    ALT
000309: 14,2476           02707                                    LANDLAT
000310: 14,2477           15121                           STODL    LAT
000311: 14,2500           01243                                    GDT/2      +4                         #  PICK UP TIME
000312: 14,2501           77624                           CALL                                           #  GET RLS BACK FROM LAT,LONG,ALT
000313: 14,2502           26422                                    LALOTORV                              #  RLS B-29 IN MPAC AND ALPHAV
000314: 14,2503           77650                           GOTO
000315: 14,2504           02746                                    QMAJ
000316: 14,2505           01531        V06N89*            VN       689
000317:


000319:                                                                                                  #  NAME - S50 ALIAS LOCSAM
000320:                                                                                                  #  BY
000321:                                                                                                  #  VINCENT
000322:
000323:                                                                                                  #  FUNCTION - COMPUTE INPUTS FOR PICAPAR AND PLANET
000324:
000325:                                                                                                  #        DEFINE
000326:
000327:                                                                                                  #        U   = UNIT( SUN WRT EARTH )
000328:                                                                                                  #         ES
000329:
000330:                                                                                                  #        U   = UNIT( MOON WRT EARTH )
000331:                                                                                                  #         EM
000332:
000333:                                                                                                  #        R   = POSITION VECTOR OF LEM
000334:                                                                                                  #         L
000335:
000336:                                                                                                  #        R   = MEAN DISTANCE (384402KM) BETWEEN EARTH AND MOON
000337:                                                                                                  #         EM
000338:
000339:                                                                                                  #        P   = RATIO R  /(DISTANCE SUN TO EARTH) > .00257125
000340:                                                                                                  #                     EM
000341:
000342:                                                                                                  #        R   = EQUATORIAL RADIUSS (6378.166KM) OF EARTH
000343:                                                                                                  #         E
000344:
000345:                                                                                                  #        LOCSAM COMPUTES IN EARTH INFLUENCE
000346:
000347:                                                                                                  #        VSUN = U
000348:                                                                                                  #                ES
000349:
000350:                                                                                                  #        VEARTH = -UNIT( R  )
000351:                                                                                                  #                         L
000352:
000353:                                                                                                  #        VMOON = UNIT(R  .U   - R  )
000354:                                                                                                  #                      EM  EM    L
000355:
000356:                                                                                                  #        CSUN = COS 90
000357:
000358:                                                                                                  #        CEARTH = COS(5 + ARCSIN(R /MAG(R )))
000359:                                                                                                  #                                 E      L
000360:
000361:                                                                                                  #        CMOON   = COS 5
000362:
000363:                                                                                                  #  INPUT - TIME IN MPAC
000364:
000365:                                                                                                  #  OUTPUT - LISTED ABOVE
000366:
000367:                                                                                                  #  SUBROUTINES - LSPOS, LEMPREC
000368:
000369:                                                                                                  #  DEBRIS - VAC AREA, TSIGHT
000370:


000372: 14,2506                                           COUNT*   $$/LOSAM
000373:
000374: 14,2506  14,2506               S50                =        LOCSAM
000375: 14,2506           77620        LOCSAM             STQ
000376: 14,2507           02745                                    QMIN
000377: 14,2510           37562                           STCALL   TSIGHT
000378: 14,2511           33664                                    LSPOS
000379: 14,2512           77745                           DLOAD
000380: 14,2513           03562                                    TSIGHT
000381: 14,2514           34041                           STCALL   TDEC1
000382: 14,2515           27057                                    LEMPREC
000383: 14,2516           61131                           SSP      TIX,2
000384: 14,2517           00052                                    S2
000385: 14,2520           00000                                    0
000386: 14,2521           30543                                    MOONCNTR
000387: 14,2522           74375        EARTCNTR           VLOAD    VXSC
000388: 14,2523           02723                                    VMOON
000389: 14,2524           30001                                    RSUBEM
000390: 14,2525           52372                           VSL1     VSU
000391: 14,2526           00001                                    RATT
000392: 14,2527           77656                           UNIT
000393: 14,2530           26723                           STOVL    VMOON
000394: 14,2531           00001                                    RATT
000395: 14,2532           57456                           UNIT     VCOMP
000396: 14,2533           16707                           STODL    VEARTH
000397: 14,2534           30005                                    RSUBE
000398: 14,2535           77624                           CALL
000399: 14,2536           30575                                    OCCOS
000400: 14,2537           14017                           STODL    CEARTH
000401: 14,2540           30604                                    CSS5
000402: 14,2541           34023                           STCALL   CMOON
000403: 14,2542           30570                                    ENDSAM
000404: 14,2543           74375        MOONCNTR           VLOAD    VXSC
000405: 14,2544           02723                                    VMOON
000406: 14,2545           30007                                    ROE
000407: 14,2546           53445                           BVSU     UNIT
000408: 14,2547           02715                                    VSUN
000409: 14,2550           26715                           STOVL    VSUN
000410: 14,2551           02723                                    VMOON
000411: 14,2552           53361                           VXSC     VAD
000412: 14,2553           30001                                    RSUBEM
000413: 14,2554           00001                                    RATT
000414: 14,2555           57456                           UNIT     VCOMP
000415: 14,2556           26707                           STOVL    VEARTH
000416: 14,2557           00001                                    RATT
000417: 14,2560           57456                           UNIT     VCOMP
000418: 14,2561           16723                           STODL    VMOON
000419: 14,2562           30003                                    RSUBM
000420: 14,2563           77624                           CALL
000421: 14,2564           30575                                    OCCOS


000423: 14,2565           14023                           STODL    CMOON
000424: 14,2566           30604                                    CSS5
000425: 14,2567           00017                           STORE    CEARTH
000426: 14,2570           77745        ENDSAM             DLOAD
000427: 14,2571           30606                                    CSSUN
000428: 14,2572           00021                           STORE    CSUN
000429: 14,2573           77650                           GOTO
000430: 14,2574           02745                                    QMIN
000431: 14,2575           70471        OCCOS              DDV      SR1
000432: 14,2576           00045                                    36D
000433: 14,2577           43336                           ASIN     DAD
000434: 14,2600           30610                                    5DEGREES
000435: 14,2601           70546                           COS      SR1
000436: 14,2602           77616                           RVQ
000437: 14,2603                        CEARTH             =        14D
000438: 14,2603                        CSUN               =        16D
000439: 14,2603                        CMOON              =        18D
000440: 14,2603           07760 14473  CSS5               2DEC     .2490475                              #  (COS 5)/4
000441: 14,2605           04000 00000  CSSUN              2DEC     .125                                  #  (COS 60)/4
000442: 14,2607           00343 21616  5DEGREES           2DEC     .013888889                            #  SCALED IN REVS
000443:


000445:                                                                                                  #  PROGRAM NAME - R56            DATE  DEC 20 66
000446:                                                                                                  #  MOD 1                         LOG SECTION P51-P53
000447:                                                                                                  #                                ASSEMBLY   SUNDISK REV4G
000448:                                                                                                  #  BY KEN VINCENT
000449:
000450:                                                                                                  #  FUNCTION
000451:                                                                                                  #        THIS PROGRAM READ THE IMU-CDUS AND COMPUTES THE VEHICLE ORIENTATION
000452:                                                                                                  #        WITH RESPECT TO INERTIAL SPACE.  IT THEN COMPUTES THE SHAFT AXIS (SAX)
000453:                                                                                                  #        WITH RESPECT TO REFERENCE INERTIAL.  EACH STAR IN THE CATALOG IS TESTED
000454:                                                                                                  #        TO DETERMINE IF IT IS OCCULTED BY EITHER THE EARTH, SUN OR MOON.  IF A
000455:                                                                                                  #        STAR IS NOT OCCULTED THEN IT IS PAIRED WITH ALL STAR OF LOWER INDEX.
000456:                                                                                                  #        THE PAIRED STAR IS TESTED FOR OCCULTATION.  PAIRS OF STARS THAT PASS
000457:                                                                                                  #        THE OCCULTATION TESTS ARE TESTED FOR GOOD SEPARATION.  A PAIR OF STARS
000458:                                                                                                  #        HAVE GOOD SEPERATION IF THE ANGLE BETWEEN THEM IS LESS THAN 100 DEGREES
000459:                                                                                                  #        AND MORE THAN 50 DEGREES.  THOSE PAIRS WITH GOOD SEPARATION
000460:                                                                                                  #        ARE THEN TESTED TO SEE IF THEY LIE IN CURRENT FIELD OF VIEW.  (WITHIN
000461:                                                                                                  #        50 DEGREES OF SAX).  THE PAIR WITH MAX SEPARATION IS CHOSEN FROM
000462:                                                                                                  #        THOSE WITH GOOD SEPARATION, AND IN FIELD OF VIEW.
000463:
000464:                                                                                                  #  CALLING SEQUENCE
000465:                                                                                                  #        L       TC      BANKCALL
000466:                                                                                                  #        L+1     CADR    R56
000467:                                                                                                  #        L+2     ERROR RETURN - NO STARS IN FIELD OF VIEW
000468:                                                                                                  #        L+3     NORMAL RETURN
000469:
000470:                                                                                                  #  OUTPUT
000471:                                                                                                  #        BESTI, BESTJ - SINGLE PREC, INTEGERS, STAR NUMBERS TIMES 6
000472:                                                                                                  #        VFLAG - FLAG BIT SET IMPLIES NO STARS IN FIELD OF VIEW
000473:
000474:                                                                                                  #  INITIALIZATION
000475:                                                                                                  #        1)      A CALL TO LOCSAM MUST BE MADE
000476:
000477:                                                                                                  #  DEBRIS
000478:                                                                                                  #        WORKAREA
000479:                                                                                                  #        X,Y,ZNB
000480:                                                                                                  #        SINCDU, COSCDU
000481:                                                                                                  #        STARAD - STAR +5
000482:
000483: 14,2611  14,2611               R56                =        PICAPAR
000484: 14,2611                                           COUNT*   $$/R56
000485: 14,2611           04645        PICAPAR            TC       MAKECADR
000486: 14,2612           55745                           TS       QMIN
000487: 14,2613           06037                           TC       INTPRET
000488: 14,2614           77624                           CALL
000489: 14,2615           47537                                    CDUTRIG
000490: 14,2616           77624                           CALL
000491: 14,2617           20030                                    CALCSMSC
000492: 14,2620           77601                           SETPD
000493: 14,2621           00001                                    0
000494: 14,2622           71214                           SET      DLOAD                                 #  VFLAG = 1
000495: 14,2623           01465                                    VFLAG


000497: 14,2624           24007                                    DPZERO
000498: 14,2625           26756                           STOVL    BESTI
000499: 14,2626           02665                                    XNB
000500: 14,2627           63361                           VXSC     PDVL
000501: 14,2630           24005                                    HALFDP
000502: 14,2631           02701                                    ZNB
000503: 14,2632           74370                           AXT,1    VXSC
000504: 14,2633           00344                                    228D                                  #  X1 = 37 X 6 + 6
000505: 14,2634           24005                                    HALFDP
000506: 14,2635           77655                           VAD
000507: 14,2636           53505                           VXM      UNIT
000508: 14,2637           01734                                    REFSMMAT
000509: 14,2640           02731                           STORE    SAX                                   #  SAX = SHAFT AXIS
000510: 14,2641           66331                           SSP      SSP                                   #  S1 = S2 = 6
000511: 14,2642           00051                                    S1
000512: 14,2643           00006                                    6
000513: 14,2644           00052                                    S2
000514: 14,2645           00006                                    6
000515: 14,2646           52100        PIC1               TIX,1    GOTO                                  #  MAJOR STAR
000516: 14,2647           30651                                    PIC2
000517: 14,2650           30766                                    PICEND
000518: 14,2651           50373        PIC2               VLOAD*   DOT
000519: 14,2652           30347                                    CATLOG,1
000520: 14,2653           02731                                    SAX
000521: 14,2654           50025                           DSU      BMN
000522: 14,2655           30765                                    CSS33
000523: 14,2656           30646                                    PIC1
000524: 14,2657           77754                           LXA,2
000525: 14,2660           00046                                    X1
000526: 14,2661           52104        PIC3               TIX,2    GOTO
000527: 14,2662           30664                                    PIC4
000528: 14,2663           30646                                    PIC1
000529: 14,2664           50373        PIC4               VLOAD*   DOT
000530: 14,2665           47430                                    CATLOG,2
000531: 14,2666           02731                                    SAX
000532: 14,2667           50025                           DSU      BMN
000533: 14,2670           30765                                    CSS33
000534: 14,2671           30661                                    PIC3
000535: 14,2672           47773                           VLOAD*   DOT*
000536: 14,2673           30347                                    CATLOG,1
000537: 14,2674           47430                                    CATLOG,2
000538: 14,2675           51025                           DSU      BPL
000539: 14,2676           30763                                    CSS40
000540: 14,2677           30661                                    PIC3
000541: 14,2700           45173                           VLOAD*   CALL
000542: 14,2701           30347                                    CATLOG,1
000543: 14,2702           30740                                    OCCULT
000544: 14,2703           77614                           BON
000545: 14,2704           01710                                    CULTFLAG
000546: 14,2705           30646                                    PIC1


000548: 14,2706           45173                           VLOAD*   CALL
000549: 14,2707           47430                                    CATLOG,2
000550: 14,2710           30740                                    OCCULT
000551: 14,2711           77614                           BON
000552: 14,2712           01710                                    CULTFLAG
000553: 14,2713           30661                                    PIC3
000554: 14,2714           77614        STRATGY            BONCLR
000555: 14,2715           01605                                    VFLAG
000556: 14,2716           30733                                    NEWPAR
000557: 14,2717           65120                           XCHX,1   XCHX,2
000558: 14,2720           02755                                    BESTI
000559: 14,2721           02756                                    BESTJ
000560: 14,2722           47773        STRAT              VLOAD*   DOT*
000561: 14,2723           30347                                    CATLOG,1
000562: 14,2724           47430                                    CATLOG,2
000563: 14,2725           43006                           PUSH     BOFINV
000564: 14,2726           01545                                    VFLAG
000565: 14,2727           30717                                    STRAT      -3
000566: 14,2730           45345                           DLOAD    DSU
000567: 14,2731           77644                           BPL
000568: 14,2732           30661                                    PIC3
000569: 14,2733           67130        NEWPAR             SXA,1    SXA,2
000570: 14,2734           02755                                    BESTI
000571: 14,2735           02756                                    BESTJ
000572: 14,2736           77650                           GOTO
000573: 14,2737           30661                                    PIC3
000574: 14,2740           51321        OCCULT             MXV      BVSU
000575: 14,2741           02707                                    CULTRIX
000576: 14,2742           00017                                    CSS
000577: 14,2743           77654                           BZE
000578: 14,2744           30757                                    CULTED
000579: 14,2745           75240                           BMN      SIGN
000580: 14,2746           30757                                    CULTED
000581: 14,2747           00160                                    MPAC       +3
000582: 14,2750           75240                           BMN      SIGN
000583: 14,2751           30757                                    CULTED
000584: 14,2752           00162                                    MPAC       +5
000585: 14,2753           43040                           BMN      CLRGO
000586: 14,2754           30757                                    CULTED
000587: 14,2755           01630                                    CULTFLAG
000588: 14,2756           00052                                    QPRET
000589: 14,2757           77614        CULTED             SETGO
000590: 14,2760           01430                                    CULTFLAG
000591: 14,2761           00052                                    QPRET
000592: 14,2762  0000016               CSS                =        CEARTH
000593: 14,2762           05110 35052  CSS40              2DEC     .16070                                #  COS 50 / 4
000594: 14,2764           05110 35052  CSS33              2DEC     .16070                                #  COS 50 / 4
000595: 14,2766           77414        PICEND             BOFF     EXIT
000596:


000598: 14,2767           01745                                    VFLAG
000599: 14,2770           30772                                    PICGXT
000600: 14,2771           03013                           TC       PICBXT
000601: 14,2772           73150        PICGXT             LXA,1    LXA,2
000602: 14,2773           02755                                    BESTI
000603: 14,2774           02756                                    BESTJ
000604: 14,2775           47775                           VLOAD    DOT*
000605: 14,2776           02731                                    SAX
000606: 14,2777           30347                                    CATLOG,1
000607: 14,3000           47715                           PDVL     DOT*
000608: 14,3001           02731                                    SAX
000609: 14,3002           47430                                    CATLOG,2
000610: 14,3003           77625                           DSU
000611: 14,3004           66044                           BPL      SXA,1
000612: 14,3005           31011                                    PICNSWP
000613: 14,3006           02756                                    BESTJ
000614: 14,3007           77734                           SXA,2
000615: 14,3010           02755                                    BESTI
000616: 14,3011           77776        PICNSWP            EXIT
000617: 14,3012           25745                           INCR     QMIN
000618: 14,3013           31745        PICBXT             CA       QMIN
000619: 14,3014           04622                           TC       SWCALL
000620: 14,3015                        VPD                =        0D
000621: 14,3015                        V0                 =        6D
000622: 14,3015                        V1                 =        12D
000623: 14,3015                        V2                 =        18D
000624: 14,3015                        V3                 =        24D
000625: 14,3015                        DP0                =        30D
000626: 14,3015                        DP1                =        32D
000627:


000629:                                                                                                  #  NAME - R51    FINE ALIGN
000630:                                                                                                  #  FUNCTION - TO ALIGN THE STABLE MEMBER TO REFSMMAT
000631:                                                                                                  #  CALLING SEQ - CALL R51
000632:                                                                                                  #  INPUT - REFSMMAT
000633:                                                                                                  #  OUTPUT - GYRO TORQUE PULSES
000634:                                                                                                  #  SUBROUTINES - LOCSAM, PICAPAR, R52, R53, R54, R55
000635:
000636: 14,3015                                           COUNT*   $$/R51
000637: 14,3015           77620        R51                STQ
000638: 14,3016           02746                                    QMAJ
000639: 14,3017           77776        R51.1              EXIT
000640: 14,3020           05353                           TC       PHASCHNG
000641: 14,3021           04024                           OCT      04024
000642:
000643: 14,3022           34761        R51C               CAF      OCT15
000644: 14,3023           04616                           TC       BANKCALL
000645: 14,3024           20623                           CADR     GOPERF1
000646: 14,3025           06001                           TC       GOTOPOOH
000647: 14,3026           03030                           TC       +2                                    #  V33E
000648: 14,3027           03053                           TC       R51E                                  #  ENTER
000649: 14,3030           06037                           TC       INTPRET
000650: 14,3031           43234                           RTB      DAD
000651: 14,3032           21573                                    LOADTIME
000652: 14,3033           31163                                    TSIGHT1
000653: 14,3034           77624                           CALL
000654: 14,3035           30506                                    LOCSAM
000655: 14,3036           77776                           EXIT
000656: 14,3037           04616                           TC       BANKCALL
000657: 14,3040           30611                           CADR     R56
000658: 14,3041           03043                           TC       R51I
000659: 14,3042           03053        R51F               TC       R51E
000660: 14,3043           05567        R51I               TC       ALARM
000661: 14,3044           00405                           OCT      405
000662: 14,3045           35006                           CAF      VB05N09
000663: 14,3046           04616                           TC       BANKCALL
000664: 14,3047           20476                           CADR     GOFLASH
000665: 14,3050           06001                           TC       GOTOPOOH
000666: 14,3051           03053                           TC       R51E
000667: 14,3052           03022                           TC       R51C
000668: 14,3053           34755        R51E               CAF      ZERO
000669: 14,3054           55757                           TS       STARIND
000670: 14,3055           06037        R51.2              TC       INTPRET
000671: 14,3056           77776        R51.3              EXIT
000672: 14,3057           05353                           TC       PHASCHNG
000673: 14,3060           04024                           OCT      04024
000674:
000675: 14,3061           06037                           TC       INTPRET
000676: 14,3062           77624                           CALL
000677: 14,3063           31670                                    R52                                   #  AOP WILL MAKE CALLS TO SIGHTING
000678: 14,3064           77776                           EXIT
000679: 14,3065           04616                           TC       BANKCALL


000681: 14,3066           16000                           CADR     AOTMARK
000682: 14,3067           04616                           TC       BANKCALL
000683: 14,3070           17712                           CADR     OPTSTALL
000684: 14,3071           05711                           TC       CURTAINS
000685: 14,3072           11757                           CCS      STARIND
000686: 14,3073           13075                           TCF      +2
000687: 14,3074           03145                           TC       R51.4
000688: 14,3075           06037                           TC       INTPRET
000689: 14,3076           77775                           VLOAD
000690: 14,3077           02715                                    STARAD     +6
000691: 14,3100           02767                           STORE    STARSAV2
000692: 14,3101           77776                           EXIT
000693: 14,3102           05353                           TC       PHASCHNG
000694: 14,3103           04024                           OCT      04024
000695:
000696: 14,3104           06037                           TC       INTPRET
000697: 14,3105           45145                           DLOAD    CALL
000698: 14,3106           03562                                    TSIGHT
000699: 14,3107           32472                                    PLANET
000700: 14,3110           53521                           MXV      UNIT
000701: 14,3111           01734                                    REFSMMAT
000702: 14,3112           26715                           STOVL    STARAD     +6
000703: 14,3113           03554                                    PLANVEC
000704: 14,3114           53521                           MXV      UNIT
000705: 14,3115           01734                                    REFSMMAT
000706: 14,3116           26707                           STOVL    STARAD
000707: 14,3117           02761                                    STARSAV1
000708: 14,3120           24007                           STOVL    6D
000709: 14,3121           02767                                    STARSAV2
000710: 14,3122           34015                           STCALL   12D
000711: 14,3123           31256                                    R54                                   #  STAR DATA TEST
000712: 14,3124           45014                           BOFF     CALL
000713: 14,3125           00354                                    FREEFLAG
000714: 14,3126           31134                                    R51K
000715: 14,3127           47441                                    AXISGEN
000716: 14,3130           77624                           CALL
000717: 14,3131           31224                                    R55                                   #  GYRO TORQUE
000718: 14,3132           77614                           CLEAR
000719: 14,3133           01273                                    PFRATFLG
000720: 14,3134           77776        R51K               EXIT
000721: 14,3135           35751        R51P63             CAF      OCT14
000722: 14,3136           04616                           TC       BANKCALL
000723: 14,3137           20623                           CADR     GOPERF1
000724: 14,3140           06001                           TC       GOTOPOOH
000725: 14,3141           03022                           TC       R51C
000726: 14,3142           06037                           TC       INTPRET
000727: 14,3143           77650                           GOTO
000728: 14,3144           02746                                    QMAJ
000729: 14,3145           06037        R51.4              TC       INTPRET
000730: 14,3146           77775                           VLOAD


000732: 14,3147           02715                                    STARAD     +6
000733: 14,3150           02761                           STORE    STARSAV1
000734: 14,3151           45145                           DLOAD    CALL
000735: 14,3152           03562                                    TSIGHT
000736: 14,3153           32472                                    PLANET
000737: 14,3154           03554                           STORE    PLANVEC
000738: 14,3155           77731                           SSP
000739: 14,3156           02760                                    STARIND
000740: 14,3157           00001                                    1
000741: 14,3160           77650                           GOTO
000742: 14,3161           31056                                    R51.3
000743: 14,3162           00002 06240  TSIGHT1            2DEC     36000      B-28                       #  6 MIN TO MARKING
000744:


000746:                                                                                                  #  GYRO TORQUE COARSE ALIGNMENT
000747:
000748: 14,3164           45020        GYCOARS            STQ      CALL
000749: 14,3165           02746                                    QMAJ
000750: 14,3166           47247                                    CALCGTA
000751: 14,3167           43014                           CLEAR    CLEAR
000752: 14,3170           01260                                    DRIFTFLG
000753: 14,3171           01662                                    REFSMFLG
000754: 14,3172           77776                           EXIT
000755: 14,3173           33223                           CAF      V16N20                                #  MONITOR GIMBALS
000756: 14,3174           04616                           TC       BANKCALL
000757: 14,3175           20451                           CADR     GODSPR
000758: 14,3176           33255                           CA       R55CDR
000759: 14,3177           04616                           TC       BANKCALL
000760: 14,3200           17323                           CADR     IMUPULSE
000761: 14,3201           04616                           TC       BANKCALL
000762: 14,3202           17716                           CADR     IMUSTALL
000763: 14,3203           05711                           TC       CURTAINS
000764: 14,3204           05353                           TC       PHASCHNG
000765: 14,3205           04024                           OCT      04024
000766:
000767: 14,3206           06037                           TC       INTPRET
000768: 14,3207           75160                           AXC,1    AXC,2
000769: 14,3210           03606                                    XSMD
000770: 14,3211           01733                                    REFSMMAT
000771: 14,3212           77624                           CALL                                           #  STORE DESIRED REFSMMAT
000772: 14,3213           31377                                    MATMOVE
000773: 14,3214           43014                           CLEAR    SET
000774: 14,3215           01273                                    PFRATFLG
000775: 14,3216           01462                                    REFSMFLG
000776: 14,3217           77624                           CALL
000777: 14,3220           31602                                    NCOARSE                               #  SET DRIFT AND INITIALIZE 1/PIPADT
000778: 14,3221           77650                           GOTO
000779: 14,3222           31134                                    R51K
000780: 14,3223           04024        V16N20             VN       1620
000781:


000783:                                                                                                  #  R55   GYRO TORQUE
000784:                                                                                                  #  FUNCTION - COMPUTE AND SEND GYRO PULSES
000785:                                                                                                  #  CALLING SEQ - CALL R55
000786:                                                                                                  #  INPUT - X,Y,ZDC - REFSMMAT WRT PRESENT STABLE MEMBER
000787:                                                                                                  #  OUTPUT - GYRO PULSES
000788:                                                                                                  #  SUBROUTINES - CALCGTA, GOFLASH, GODSPR, IMUFINE, IMUPULSE, GOPERF1
000789:
000790: 14,3224                                           COUNT*   $$/R55
000791: 14,3224           77620        R55                STQ
000792: 14,3225           02745                                    QMIN
000793: 14,3226           77624                           CALL
000794: 14,3227           47247                                    CALCGTA
000795: 14,3230           77776        PULSEM             EXIT
000796: 14,3231           33254        R55.1              CAF      V06N93
000797: 14,3232           04616                           TC       BANKCALL
000798: 14,3233           20476                           CADR     GOFLASH
000799: 14,3234           06001                           TC       GOTOPOOH
000800: 14,3235           03237                           TC       R55.2
000801: 14,3236           03251                           TC       R55RET
000802: 14,3237           05353        R55.2              TC       PHASCHNG
000803: 14,3240           00214                           OCT      00214
000804: 14,3241           33255                           CA       R55CDR
000805: 14,3242           04616                           TC       BANKCALL
000806: 14,3243           17323                           CADR     IMUPULSE
000807: 14,3244           04616                           TC       BANKCALL
000808: 14,3245           17716                           CADR     IMUSTALL
000809: 14,3246           05711                           TC       CURTAINS
000810: 14,3247           05353                           TC       PHASCHNG
000811: 14,3250           04024                           OCT      04024
000812:
000813: 14,3251           06037        R55RET             TC       INTPRET
000814: 14,3252           77650                           GOTO
000815: 14,3253           02745                                    QMIN
000816: 14,3254           01535        V06N93             VN       0693
000817: 14,3255           02737        R55CDR             ECADR    OGC
000818: 14,3256  14,3256               R54                =        CHKSDATA
000819:
000820:                                                                                                  #  ROUTINE NAME - CHKSDATA               DATE - JAN 9, 1967
000821:                                                                                                  #  MOD NO - 0                            LOG SECTION - P51-P53
000822:                                                                                                  #  MODIFICATION BY - LONSKE              ASSEMBLY -
000823:
000824:                                                                                                  #  FUNCTIONAL DESCRIPTION - CHECKS THE VALIDITY OF A PAIR OF STAR SIGHTINGS.  WHEN A PAIR OF STAR SIGHTINGS ARE MADE
000825:                                                                                                  #  BY THE ASTRONAUT THIS ROUTINE OPERATES AND CHECKS THE OBSERVED SIGHTINGS AGAINST STORED STAR VECTORS IN THE
000826:                                                                                                  #  COMPUTER TO INSURE A PROPER SIGHTING WAS MADE.  THE FOLLOWING COMPUTATIONS ARE PERFORMED -
000827:                                                                                                  #        OS1     =       OBSERVED STAR 1 VECTOR
000828:                                                                                                  #        OS2     =       OBSERVED STAR 2 VECTOR
000829:                                                                                                  #        SS1     =       STORED STAR 1 VECTOR
000830:                                                                                                  #        SS2     =       STORED STAR 2 VECTOR
000831:                                                                                                  #         A1     =       ARCCOS(OS1 - OS2)
000832:                                                                                                  #         A2     =       ARCCOS(SS1 - SS2)
000833:                                                                                                  #          A     =       ABS(2(A1 - A2))


000835:                                                                                                  #  THE ANGULAR DIFFERENCE IS DISPLAYED FOR ASTRONAUT ACCEPTENCE
000836:
000837:                                                                                                  #  EXIT MODE     1. FREEFLAG SET IMPLIES ASTRONAUT WANTS TO PROCEED
000838:                                                                                                  #                2. FREEFLAG RESET IMPLIES ASTRONAUT WANTS TO RECYCLE            ERANCE)
000839:
000840:                                                                                                  #  OUTPUT -      1. VERB 6,NOUN 3 - DISPLAYS ANGULAR DIFFERENCE BETWEEN 2 SETS OF STARS.
000841:                                                                                                  #                2. STAR VECTORS FROM STAR CATALOG ARE LEFT IN 6D AND 12D.
000842:
000843:                                                                                                  #  ERASABLE INITIALIZATION REQUIRED -
000844:                                                                                                  #                1. MARK VECTORS ARE STORED IN STARAD AND STARAD +6.
000845:                                                                                                  #                2. CATALOG VECTORS ARE STORED IN 6D AND 12D.
000846:
000847:                                                                                                  #  DEBRIS -
000848:
000849: 14,3256                                           COUNT*   $$/R54
000850: 14,3256           43020        CHKSDATA           STQ      SET
000851: 14,3257           02745                                    QMIN
000852: 14,3260           00074                                    FREEFLAG
000853: 14,3261           77760        CHKSAB             AXC,1                                          #  SET X1 TO STORE EPHEMERIS DATA
000854: 14,3262           02706                                    STARAD
000855:
000856: 14,3263           47773        CHKSB              VLOAD*   DOT*                                  #  CAL. ANGLE THETA
000857: 14,3264           00001                                    0,1
000858: 14,3265           00007                                    6,1
000859: 14,3266           65552                           SL1      ACOS
000860: 14,3267           00025                           STORE    THETA
000861: 14,3270           43014                           BOFF     INVERT                                #  BRANCH TO CHKSD IF THIS IS 2ND PASS
000862: 14,3271           00354                                    FREEFLAG
000863: 14,3272           31302                                    CHKSD
000864: 14,3273           00174                                    FREEFLAG                              #  CLEAR FREEFLAG
000865: 14,3274           71360                           AXC,1    DLOAD                                 #  SET X1 TO MARK ANGLES
000866: 14,3275           00006                                    6D
000867: 14,3276           00025                                    THETA
000868: 14,3277           00023                           STORE    18D
000869: 14,3300           77650                           GOTO
000870: 14,3301           31263                                    CHKSB                                 #  RETURN TO CAL. 2ND ANGLE
000871: 14,3302           45345        CHKSD              DLOAD    DSU
000872: 14,3303           00025                                    THETA
000873: 14,3304           00023                                    18D
000874: 14,3305           47046                           ABS      RTB                                   #  COMPUTE POS DIFF
000875: 14,3306           21612                                    SGNAGREE
000876: 14,3307           01046                           STORE    NORMTEM1
000877: 14,3310           77414                           SET      EXIT
000878: 14,3311           00074                                    FREEFLAG
000879: 14,3312           33326                           CAF      VB6N5
000880: 14,3313           04616                           TC       BANKCALL
000881: 14,3314           20476                           CADR     GOFLASH
000882: 14,3315           16001                           TCF      GOTOPOOH
000883: 14,3316           03323                           TC       CHKSDA                                #  PROCEED
000884: 14,3317           06037                           TC       INTPRET
000885: 14,3320           52014                           CLEAR    GOTO
000886: 14,3321           00274                                    FREEFLAG
000887: 14,3322           02745                                    QMIN
000888: 14,3323           06037        CHKSDA             TC       INTPRET


000890: 14,3324           77650                           GOTO
000891: 14,3325           02745                                    QMIN
000892: 14,3326           01405        VB6N5              VN       605
000893:
000894:                                                                                                  #  NAME - CAL53A
000895:                                                                                                  #  FUNCTION - COMPUTE DESIRED GIMBAL ANGLES AND COARSE ALIGN IF NECESSARY
000896:                                                                                                  #  CALLING SEQUENCE - CALL CAL53A
000897:                                                                                                  #  INPUT - X,Y,ZSMD, CDUX,Y,Z
000898:                                                                                                  #           DESIRED GIMBAL ANGLES - THETAD,+1,+2
000899:                                                                                                  #  OUTPUT - THE IMU COORDINATES ARE STORED IN REFSMMAT
000900:                                                                                                  #  SUBROUTINES - S52.2, IMUCOARSE, IMUFINE
000901:
000902: 14,3327                                           COUNT*   $$/R50
000903: 14,3327           77624        CAL53A             CALL
000904: 14,3330           31617                                    S52.2                                 #  MAKE ONE FINAL COMP OF GIMBALE ANGLES
000905: 14,3331           66234                           RTB      SSP
000906: 14,3332           31413                                    RDCDUS                                #  READ CDUS
000907: 14,3333           00051                                    S1
000908: 14,3334           00001                                    1
000909: 14,3335           40370                           AXT,1    SETPD
000910: 14,3336           00003                                    3
000911: 14,3337           00005                                    4
000912: 14,3340           70543        CALOOP             DLOAD*   SR1
000913: 14,3341           00325                                    THETAD     +3D,1
000914: 14,3342           70523                           PDDL*    SR1
000915: 14,3343           00005                                    4,1
000916: 14,3344           51425                           DSU      ABS
000917: 14,3345           45206                           PUSH     DSU
000918: 14,3346           31412                                    DEGREE1
000919: 14,3347           71240                           BMN      DLOAD
000920: 14,3350           31366                                    CALOOP1
000921: 14,3351           51025                           DSU      BPL
000922: 14,3352           31413                                    DEG359
000923: 14,3353           31366                                    CALOOP1
000924: 14,3354           77776                           EXIT
000925: 14,3355           05353                           TC       PHASCHNG
000926: 14,3356           04024                           OCT      04024
000927:
000928: 14,3357           06037                           TC       INTPRET
000929: 14,3360           77624        COARFINE           CALL
000930: 14,3361           31565                                    COARSE
000931: 14,3362           77624                           CALL
000932: 14,3363           31602                                    NCOARSE
000933: 14,3364           77650                           GOTO
000934: 14,3365           31370                                    FINEONLY
000935: 14,3366           77700        CALOOP1            TIX,1
000936: 14,3367           31340                                    CALOOP
000937: 14,3370           75160        FINEONLY           AXC,1    AXC,2
000938: 14,3371           02642                                    XSM
000939: 14,3372           01733                                    REFSMMAT
000940: 14,3373           77624                           CALL
000941: 14,3374           31377                                    MATMOVE


000943: 14,3375           77650                           GOTO
000944: 14,3376           32161                                    COARSRET
000945: 14,3377           77773        MATMOVE            VLOAD*                                         #  TRANSFER MATRIX
000946: 14,3400           00001                                    0,1
000947: 14,3401           10001                           STORE    0,2
000948: 14,3402           77773                           VLOAD*
000949: 14,3403           00007                                    6D,1
000950: 14,3404           10007                           STORE    6D,2
000951: 14,3405           77773                           VLOAD*
000952: 14,3406           00015                                    12D,1
000953: 14,3407           10015                           STORE    12D,2
000954: 14,3410           77616                           RVQ
000955: 14,3411           00056        DEGREE1            DEC      46         B-14                       #  1 DEG SCALED CDU/2
000956: 14,3412           37722        DEG359             DEC      16338      B-14                       #  359 DEG SCALED CDU/2
000957: 14,3413           00004        RDCDUS             INHINT                                         #  READ CDUS
000958: 14,3414           30032                           CA       CDUX
000959: 14,3415           50120                           INDEX    FIXLOC
000960: 14,3416           54001                           TS       1
000961: 14,3417           30033                           CA       CDUY
000962: 14,3420           50120                           INDEX    FIXLOC
000963: 14,3421           54002                           TS       2
000964: 14,3422           30034                           CA       CDUZ
000965: 14,3423           50120                           INDEX    FIXLOC
000966: 14,3424           54003                           TS       3
000967: 14,3425           00003                           RELINT
000968: 14,3426           06061                           TC       DANZIG
000969: 14,3427                                           COUNT*   $$/INFLT
000970:


000972:                                                                                                  #  NAME - P51 - IMU ORIENTATION DETERMINATION
000973:                                                                                                  #  MOD. NO. 1    23 JAN 67                               LOG SECTION - P51-P53
000974:                                                                                                  #  MOD BY STURLAUGSON                                    ASSEMBLY SUNDANCE REV56
000975:
000976:                                                                                                  #  FUNCTIONAL DESCRIPTION
000977:                                                                                                  #        DETERMINES THE INERTIAL ORIENTATION OF THE IMU.  THE PROGRAM IS SELECTED BY DSKY ENTRY.  THE SIGHTING
000978:                                                                                                  #        (AOTMARK) ROUTINE IS CALLED TO COLLECT AND PROCESS MARKED-STAR DATA.  AOTMARK (R53) RETURNS THE STAR NUMBER AND THE
000979:                                                                                                  #        STAR LOS VECTOR IN STARAD +6.  TWO STARS ARE THUS SIGHTED.  THE ANGLE BETWEEN THE TWO STARS IS THEN CHECKED AT
000980:                                                                                                  #        CHKSDATA (R54).  REFSMMAT IS THEN COMPUTED AT AXISGEN.
000981:
000982:                                                                                                  #  CALLING SEQUENCE
000983:                                                                                                  #        THE PROGRAM IS CALLED BY THE ASTRONAUT BY DSKY ENTRY.
000984:
000985:                                                                                                  #  SUBROUTINES CALLED.
000986:                                                                                                  #        GOPERF3
000987:                                                                                                  #        GOPERF1
000988:                                                                                                  #        GODSPR
000989:                                                                                                  #        IMUCOARS
000990:                                                                                                  #        IMUFIN20
000991:                                                                                                  #        AOTMARK (R53)
000992:                                                                                                  #        CHKSDATA (R54)
000993:                                                                                                  #        MKRELEAS
000994:                                                                                                  #        AXISGEN
000995:                                                                                                  #        MATMOVE
000996:
000997:                                                                                                  #  ALARMS
000998:                                                                                                  #        NONE.
000999:
001000:                                                                                                  #  ERASABLE INITIALIZATION
001001:                                                                                                  #        IMU ZERO FLAG SHOULD BE SET.
001002:
001003:                                                                                                  #  OUTPUT
001004:                                                                                                  #        REFSMMAT
001005:                                                                                                  #        REFSMFLG
001006:
001007:                                                                                                  #  DEBRIS
001008:                                                                                                  #        WORK AREA
001009:                                                                                                  #        STARAD
001010:                                                                                                  #        STARIND
001011:                                                                                                  #        BESTI
001012:                                                                                                  #        BESTJ
001013:
001014: 14,3427                                           COUNT*   $$/P51


001016: 14,3427           04616        P51                TC       BANKCALL                              #  IS ISS ON - IF NOT, IMUCHK WILL SEND
001017: 14,3430           33652                           CADR     IMUCHK                                #  ALARM CODE 210 AND EXIT VIA GOTOPOOH.
001018:
001019: 14,3431           34761                           CAF      OCT15
001020: 14,3432           04616                           TC       BANKCALL
001021: 14,3433           20623                           CADR     GOPERF1
001022: 14,3434           06001                           TC       GOTOPOOH                              #  TERM.
001023: 14,3435           13461                           TCF      P51B                                  #  V33
001024: 14,3436           05353                           TC       PHASCHNG
001025: 14,3437           04024                           OCT      04024
001026:
001027: 14,3440           34755                           CAF      ZERO
001028: 14,3441           54321                           TS       THETAD                                #  ZERO THE GIMBALS
001029: 14,3442           54322                           TS       THETAD     +1
001030: 14,3443           54323                           TS       THETAD     +2
001031: 14,3444           35010                           CAF      V06N22
001032: 14,3445           04616                           TC       BANKCALL
001033: 14,3446           20446                           CADR     GODSPRET
001034: 14,3447           33564                           CAF      V41K                                  #  NOW DISPLAY COARSE ALIGN VERB 41
001035: 14,3450           04616                           TC       BANKCALL
001036: 14,3451           20446                           CADR     GODSPRET
001037: 14,3452           06037                           TC       INTPRET
001038: 14,3453           77624                           CALL
001039: 14,3454           31565                                    COARSE
001040: 14,3455           77776                           EXIT
001041: 14,3456           05353                           TC       PHASCHNG
001042: 14,3457           04024                           OCT      04024
001043: 14,3460           13431                           TCF      P51        +2
001044:
001045: 14,3461           05353        P51B               TC       PHASCHNG
001046: 14,3462           00014                           OCT      00014
001047: 14,3463           06037                           TC       INTPRET
001048: 14,3464           77624                           CALL
001049: 14,3465           31602                                    NCOARSE
001050: 14,3466           40331                           SSP      SETPD
001051: 14,3467           02760                                    STARIND                               #  INDEX - STAR 1 OR 2
001052: 14,3470           00000                                    0
001053: 14,3471           00001                                    0
001054: 14,3472           77776        P51C               EXIT
001055: 14,3473           05353                           TC       PHASCHNG
001056: 14,3474           04024                           OCT      04024
001057:
001058: 14,3475           04616                           TC       BANKCALL
001059: 14,3476           16000                           CADR     AOTMARK                               #  R53
001060: 14,3477           04616                           TC       BANKCALL
001061: 14,3500           17712                           CADR     AOTSTALL
001062: 14,3501           05711                           TC       CURTAINS
001063: 14,3502           11757                           CCS      STARIND
001064: 14,3503           13511                           TCF      P51D       +1
001065: 14,3504           06037                           TC       INTPRET


001067: 14,3505           77775                           VLOAD
001068: 14,3506           02715                                    STARAD     +6
001069: 14,3507           02761                           STORE    STARSAV1
001070: 14,3510           77776        P51D               EXIT
001071: 14,3511           05353                           TC       PHASCHNG
001072: 14,3512           04024                           OCT      04024
001073:
001074: 14,3513           11757                           CCS      STARIND
001075: 14,3514           13530                           TCF      P51E
001076: 14,3515           05353                           TC       PHASCHNG
001077: 14,3516           04024                           OCT      04024
001078:
001079: 14,3517           06037                           TC       INTPRET
001080: 14,3520           45145                           DLOAD    CALL
001081: 14,3521           03562                                    TSIGHT
001082: 14,3522           32472                                    PLANET
001083: 14,3523           03554                           STORE    PLANVEC
001084: 14,3524           77776                           EXIT
001085: 14,3525           34753                           CAF      BIT1
001086: 14,3526           55757                           TS       STARIND
001087: 14,3527           13473                           TCF      P51C       +1                         #  DO SECOND STAR
001088: 14,3530           05353        P51E               TC       PHASCHNG
001089: 14,3531           04024                           OCT      04024
001090:
001091: 14,3532           06037                           TC       INTPRET
001092: 14,3533           45145                           DLOAD    CALL
001093: 14,3534           03562                                    TSIGHT
001094: 14,3535           32472                                    PLANET
001095: 14,3536           24015                           STOVL    12D
001096: 14,3537           03554                                    PLANVEC
001097: 14,3540           24007                           STOVL    6D
001098: 14,3541           02761                                    STARSAV1
001099: 14,3542           26707                           STOVL    STARAD
001100: 14,3543           02767                                    STARSAV2
001101: 14,3544           36715                           STCALL   STARAD     +6
001102: 14,3545           31256                                    CHKSDATA                              #  CHECK STAR ANGLES IN STARAD AND
001103: 14,3546           77414                           BON      EXIT
001104: 14,3547           00314                                    FREEFLAG
001105: 14,3550           31552                                    P51G
001106: 14,3551           03431                           TC       P51        +2
001107: 14,3552           77624        P51G               CALL
001108: 14,3553           47441                                    AXISGEN                               #  COME BACK WITH REFSMMAT IN XDC
001109: 14,3554           75160                           AXC,1    AXC,2
001110: 14,3555           02664                                    XDC
001111: 14,3556           01733                                    REFSMMAT
001112: 14,3557           77624                           CALL
001113: 14,3560           31377                                    MATMOVE
001114: 14,3561           77414                           SET      EXIT
001115: 14,3562           01462                                    REFSMFLG
001116: 14,3563           06001                           TC       GOTOPOOH                              #  FINIS


001118: 14,3564           12200        V41K               VN       4100
001119: 14,3565           77776        COARSE             EXIT
001120: 14,3566           04616                           TC       BANKCALL
001121: 14,3567           17000                           CADR     IMUCOARS
001122: 14,3570           04616                           TC       BANKCALL
001123: 14,3571           17716                           CADR     IMUSTALL
001124: 14,3572           05711                           TC       CURTAINS
001125: 14,3573           04616                           TC       BANKCALL
001126: 14,3574           17210                           CADR     IMUFINE
001127: 14,3575           04616                           TC       BANKCALL
001128: 14,3576           17716                           CADR     IMUSTALL
001129: 14,3577           05711                           TC       CURTAINS
001130: 14,3600           06037                           TC       INTPRET
001131: 14,3601           77616                           RVQ
001132: 14,3602           77776        NCOARSE            EXIT
001133: 14,3603           30025                           CA       TIME1
001134: 14,3604           55075                           TS       1/PIPADT
001135: 14,3605           44755                           CS       ZERO
001136: 14,3606           54037                           TS       PIPAX
001137: 14,3607           54040                           TS       PIPAY
001138: 14,3610           54041                           TS       PIPAZ
001139: 14,3611           06037                           TC       INTPRET
001140: 14,3612           77775                           VLOAD
001141: 14,3613           24007                                    ZEROVEC
001142: 14,3614           01472                           STORE    GCOMP
001143: 14,3615           43414                           SET      RVQ
001144: 14,3616           01060                                    DRIFTFLG
001145:


001147:                                                                                                  #  NAME - S52.2
001148:                                                                                                  #  FUNCTION - COMPUTE GIMBAL ANGLES FOR DESIRED SM AND PRESENT VEHICLE
001149:                                                                                                  #  CALL - CALL S52.2
001150:                                                                                                  #  INPUT - X,Y,ZSMD
001151:                                                                                                  #  OUTPUT - OGC,IGC,MGC,THETAD,+1,+2
001152:                                                                                                  #  SUBROUTINES - CDUTRIG, CALCSMSC, MATMOVE, CALCGA
001153:
001154: 14,3617                                           COUNT*   $$/S52.1
001155: 14,3617           45020        S52.2              STQ      CALL
001156: 14,3620           02746                                    QMAJ
001157: 14,3621           47537                                    CDUTRIG
001158: 14,3622           77624                           CALL
001159: 14,3623           20030                                    CALCSMSC
001160: 14,3624           66370                           AXT,1    SSP
001161: 14,3625           00022                                    18D
001162: 14,3626           00051                                    S1
001163: 14,3627           00006                                    6D
001164: 14,3630           61373        S52.2A             VLOAD*   VXM
001165: 14,3631           02707                                    XNB        +18D,1
001166: 14,3632           01734                                    REFSMMAT
001167: 14,3633           77656                           UNIT
001168: 14,3634           06707                           STORE    XNB        +18D,1
001169: 14,3635           77700                           TIX,1
001170: 14,3636           31630                                    S52.2A
001171: 14,3637           75160        S52.2.1            AXC,1    AXC,2
001172: 14,3640           03606                                    XSMD
001173: 14,3641           02642                                    XSM
001174: 14,3642           77624                           CALL
001175: 14,3643           31377                                    MATMOVE
001176: 14,3644           77624                           CALL
001177: 14,3645           47353                                    CALCGA
001178: 14,3646           77650                           GOTO
001179: 14,3647           02746                                    QMAJ
001180:


001182:                                                                                                  #  NAME - S52.3
001183:                                                                                                  #  FUNCTION      XSMD= UNIT R
001184:                                                                                                  #                YSMD= UNIT(V X R)
001185:                                                                                                  #                ZSMD= UNIT(XSMD X YSMD)
001186:                                                                                                  #  CALL          DLOAD   CALL
001187:                                                                                                  #                        TALIGN
001188:                                                                                                  #                        S52.3
001189:                                                                                                  #  INPUT -       TIME OF ALIGNMENT IN MPAC
001190:                                                                                                  #  OUTPUT -      X,Y,ZSMD
001191:                                                                                                  #  SUBROUTINES - CSMCONIC
001192:
001193: 14,3650                                           COUNT*   $$/S52.3
001194: 14,3650           77620        S52.3              STQ
001195: 14,3651           02746                                    QMAJ
001196: 14,3652           34041                           STCALL   TDEC1
001197: 14,3653           27100                                    LEMCONIC
001198: 14,3654           53575                           VLOAD    UNIT
001199: 14,3655           00001                                    RATT
001200: 14,3656           27607                           STOVL    XSMD
001201: 14,3657           00007                                    VATT
001202: 14,3660           53435                           VXV      UNIT
001203: 14,3661           00001                                    RATT
001204: 14,3662           27615                           STOVL    YSMD
001205: 14,3663           03607                                    XSMD
001206: 14,3664           53435                           VXV      UNIT
001207: 14,3665           03615                                    YSMD
001208: 14,3666           37623                           STCALL   ZSMD
001209: 14,3667           02746                                    QMAJ
001210:


001212:                                                                                                  #  NAME - R52 (AUTOMATIC OPTICS POSITIONING ROUTINE)
001213:
001214:                                                                                                  #  FUNCTION - POINT THE AOT OPTIC AXIS BY MANEUVERING THE LEM TO A NAVIGATION
001215:                                                                                                  #  STAR SELECTED BY ALIGNMENT PROGRAMS OR DSKY INPUT
001216:
001217:                                                                                                  #  CALLING - CALL R52
001218:
001219:                                                                                                  #  INPUT - BESTI AND BESTJ (STAR CODES TIMES 6)
001220:
001221:                                                                                                  #  OUTPUT - STAR CODE IN BITS 1-6, DETENT CODE IN BITS 7-9
001222:                                                                                                  #  (NO CHECK IS MADE TO INSURE THE DETENT CODE TO BE VALID)
001223:                                                                                                  #  POINTVSM-1/2 UNIT NAV STAR VEC IN SM
001224:                                                                                                  #  SCAXIS-AOT OPTIC AXIS VEC IN NB X-Z PLANE
001225:
001226:                                                                                                  #  SUBROUT - R60LEM
001227:
001228: 14,3670                                           COUNT*   $$/R52
001229: 14,3670           77420        R52                STQ      EXIT
001230: 14,3671           03665                                    SAVQR52
001231: 14,3672           51757                           INDEX    STARIND
001232: 14,3673           31755                           CA       BESTI                                 #  PICK UP STARCODE DETERMINED BY R56
001233: 14,3674           00006                           EXTEND
001234: 14,3675           73771                           MP       1/6TH
001235: 14,3676           64744                           AD       BIT8                                  #  SET DETENT POSITION 2
001236: 14,3677           54735                           TS       STARCODE                              #  SCALE AND STORE IN STARCODE
001237:
001238: 14,3700           33772        R52A               CAF      V01N70
001239: 14,3701           04616                           TC       BANKCALL
001240: 14,3702           20476                           CADR     GOFLASH                               #  DISPLAY STARCODE AND WAIT FOR RESPONSE
001241: 14,3703           06001                           TC       GOTOPOOH                              #  V34 - TERMINATE
001242: 14,3704           13706                           TCF      R52B                                  #  V33 - PROCEED TO ORIENT LEM
001243: 14,3705           13700                           TCF      R52A                                  #  ENTER - SELECT NEW STARCODE - RECYCLE
001244:
001245: 14,3706           05516        R52B               TC       DOWNFLAG
001246: 14,3707           00124                           ADRES    3AXISFLG                              #  BIT6 OF FLAGWRD5 ZERO TO ALLOW VECPOINT
001247: 14,3710           30735                           CA       STARCODE                              #  GRAB DETENT CODE
001248: 14,3711           77744                           MASK     HIGH9
001249: 14,3712           00006                           EXTEND
001250: 14,3713           74743                           MP       BIT9
001251: 14,3714           54001                           TS       L                                     #  TEMP STORE DETENT
001252:
001253: 14,3715           00006                           EXTEND
001254: 14,3716           63734                           BZMF     GETAZEL                               #  CODE 0, COAS CALIBRATION
001255:
001256: 14,3717           65660                           AD       NEG7
001257: 14,3720           00006                           EXTEND
001258: 14,3721           13734                           BZF      GETAZEL                               #  CODE 7, COAS SIGHTING
001259:
001260: 14,3722  E7,1551                                  EBANK=   XYMARK
001261: 14,3722           35016                           CA       EBANK7
001262: 14,3723           54003                           TS       EBANK


001264: 14,3724           50001                           INDEX    L
001265: 14,3725           31403                           CA       AOTAZ      -1                         #  PICK UP AZ CORRESPONDING TO DETENT
001266: 14,3726           54001                           TS       L
001267: 14,3727  E5,1642                                  EBANK=   XSM
001268: 14,3727           35014                           CA       EBANK5                                #  CHANGE TO EBANK5 BUT DONT DISTURB L
001269: 14,3730           54003                           TS       EBANK
001270: 14,3731           34737                           CA       BIT13                                 #  SET ELV TO 45 DEG
001271: 14,3732           56001                           XCH      L                                     #  SET C(A)=AZ, C(L)=45 DEG
001272: 14,3733           13744                           TCF      AZEL                                  #  GO COMP OPTIC AXIS
001273:
001274: 14,3734           33773        GETAZEL            CAF      V06N87                                #  CODE 0 OR 7, GET AZ AND EL KEY IN
001275: 14,3735           04616                           TC       BANKCALL
001276: 14,3736           20476                           CADR     GOFLASH
001277: 14,3737           06001                           TC       GOTOPOOH                              #  V34 - TERMINATE
001278: 14,3740           13742                           TCF      +2                                    #  PROCEED - CALC OPTIC AXIS
001279: 14,3741           13734                           TCF      GETAZEL                               #  ENTER - RECYCLE
001280:
001281: 14,3742           00006                           EXTEND
001282: 14,3743           31350                           DCA      AZ                                    #  PICK UP AZ AND EL IN SP 2S COMP
001283: 14,3744           50120        AZEL               INDEX    FIXLOC                                #  JAM AZ AND EL IN 8 AND 9 OF VAC
001284: 14,3745           52011                           DXCH     8D
001285: 14,3746           06037                           TC       INTPRET
001286: 14,3747           77624                           CALL                                           #  GO COMPUTE OPTIC AXIS AND STORE IN
001287: 14,3750           10536                                    OANB                                  #  SCAXIS IN NB COORDS
001288: 14,3751           45034                           RTB      CALL
001289: 14,3752           21573                                    LOADTIME
001290: 14,3753           32472                                    PLANET
001291: 14,3754           53521                           MXV      UNIT
001292: 14,3755           01734                                    REFSMMAT
001293: 14,3756           03773                           STORE    POINTVSM                              #  STORE FOR VECPOINT
001294:
001295: 14,3757           77776                           EXIT
001296: 14,3760           04616                           TC       BANKCALL
001297: 14,3761           54123                           CADR     R60LEM                                #  GO TORQUE LEM OPTIC AXIS TO STAR LOS
001298:
001299: 14,3762           37744                           CAF      HIGH9                                 #  IF COAS CALIBRATION CODE 0.  RECYCLE
001300: 14,3763           70735                           MASK     STARCODE
001301: 14,3764           00006                           EXTEND
001302: 14,3765           13700                           BZF      R52A
001303:
001304: 14,3766           06037                           TC       INTPRET                               #  RETURN FROM KALCMANU
001305: 14,3767           77650                           GOTO
001306: 14,3770           03665                                    SAVQR52                               #  RETURN TO CALLER
001307:
001308: 14,3771           05253        1/6TH              DEC      .1666667
001309: 14,3772           00306        V01N70             VN       0170
001310: 14,3773           01527        V06N87             VN       687
001311:


001313:                                                                                                  #  LUNAR SURFACE STAR AQUISITION
001314:
001315: 15,2245                                           BANK     15
001316: 15,2000                                           SETLOC   P50S
001317: 15,2000                                           BANK
001318: 15,2245                                           COUNT*   $$/R59
001319:
001320: 15,2245           40077        R59                CS       FLAGWRD3
001321: 15,2246           74737                           MASK     REFSMBIT                              #  IF REFSMMAT FLAG CLEAR BYPASS STAR AQUIR
001322: 15,2247           10000                           CCS      A
001323: 15,2250           12455                           TCF      R59OUT                                #  NO REFSMMAT GO TO AOTMARK
001324:
001325: 15,2251           32463                           CAF      V01N70*                               #  SELECT STAR CODE FOR ACQUISITION
001326: 15,2252           04616                           TC       BANKCALL
001327: 15,2253           20476                           CADR     GOFLASH
001328: 15,2254           06001                           TC       GOTOPOOH                              #  V34 - TERMINATE
001329: 15,2255           12257                           TCF      R59A                                  #  V33 - PROCEED
001330: 15,2256           12245                           TCF      R59                                   #  V32 - RECYCLE
001331:
001332: 15,2257           47744        R59A               CS       HIGH9                                 #  GRAB STARCODE FOR INDEX
001333: 15,2260           70735                           MASK     AOTCODE
001334: 15,2261           00006                           EXTEND
001335: 15,2262           76242                           MP       REVCNT                                #  JUST 6
001336: 15,2263           56001                           XCH      L
001337: 15,2264           51757                           INDEX    STARIND
001338: 15,2265           55755                           TS       BESTI
001339: 15,2266           50120                           INDEX    FIXLOC
001340: 15,2267           54046                           TS       X1                                    #  CODE X 6 FOR CATLOG STAR INDEX
001341: 15,2270           00006                           EXTEND
001342: 15,2271           12455                           BZF      R59OUT                                #  BYPASS AQUISITION IF NOT CATLOG STAR
001343: 15,2272           40000                           COM
001344: 15,2273           62561                           AD       DEC227
001345: 15,2274           00006                           EXTEND
001346: 15,2275           62455                           BZMF     R59OUT
001347:
001348: 15,2276           06037                           TC       INTPRET
001349: 15,2277           64373                           VLOAD*   MXV
001350: 15,2300           30347                                    CATLOG,1                              #  GRAB STAR VECTOR
001351: 15,2301           01734                                    REFSMMAT                              #  TRANSFORM TO SM
001352: 15,2302           45056                           UNIT     CALL
001353: 15,2303           47646                                    CDU*SMNB
001354: 15,2304           02731                           STORE    STAR                                  #  TEMP STORE STAR VEC(NB)
001355: 15,2305           77776                           EXIT
001356:
001357: 15,2306           34753                           CAF      BIT1                                  #  INITIALIZE AZ POSITION CODE TO 1 (-60)
001358: 15,2307           55242                           TS       POSCODE
001359:
001360: 15,2310  E7,1551                                  EBANK=   XYMARK
001361: 15,2310           35016        INCAZ              CA       EBANK7
001362: 15,2311           54003                           TS       EBANK
001363:


001365: 15,2312           51242                           INDEX    POSCODE
001366: 15,2313           31403                           CA       AOTAZ      -1                         #  PICK UP AZ CORRESPONDING TO POSCODE
001367: 15,2314           54001                           TS       L
001368:
001369: 15,2315  E5,1642                                  EBANK=   XSM
001370: 15,2315           35014                           CA       EBANK5
001371: 15,2316           54003                           TS       EBANK
001372:
001373: 15,2317           34737                           CA       BIT13                                 #  SET ELV TO 45 DEG
001374: 15,2320           56001                           XCH      L                                     #  SET C(A)=AZ, C(L)=45 DEG
001375: 15,2321           55745                           TS       QMIN                                  #  STORE QMIN=AZ FOR LATER
001376: 15,2322           50120                           INDEX    FIXLOC
001377: 15,2323           52011                           DXCH     8D                                    #  JAM AZ IN 8D, 45 DEG IN 9D FOR OANB
001378:
001379: 15,2324           06037                           TC       INTPRET
001380: 15,2325           77624                           CALL
001381: 15,2326           10536                                    OANB                                  #  GO CALC OPTIC AXIS WRT NB
001382: 15,2327           50375                           VLOAD    DOT
001383: 15,2330           02731                                    STAR                                  #  DOT STAR WITH OA
001384: 15,2331           03765                                    SCAXIS
001385: 15,2332           65552                           SL1      ARCCOS
001386: 15,2333           00031                           STORE    24D                                   #  TEMP STORE ARCCOS(STAR.OPTAXIS)
001387:
001388: 15,2334           51025                           DSU      BPL
001389: 15,2335           32466                                    DEG30                                 #  SEE IF STAR IN AOT FIELD-OF-VIEW
001390: 15,2336           32420                                    NXAX                                  #  NOT IN FIELD - TRY NEXT POSITION
001391: 15,2337           45345                           DLOAD    DSU                                   #  SEE IF STAR AT FIELD CENTER
001392: 15,2340           00031                                    24D
001393: 15,2341           32470                                    DEG.5
001394: 15,2342           71240                           BMN      DLOAD                                 #  CALC SPIRAL AND CURSOR
001395: 15,2343           32413                                    ZSPCR                                 #  GO ZERO CURSOR AND SPIRAL
001396: 15,2344           00031                                    24D                                   #  GET SPIRAL
001397: 15,2345           42405                           DMP      SL4
001398: 15,2346           25764                                    3/4                                   #  12 SCALED AT 16
001399: 15,2347           24031                           STOVL    24D                                   #  12(ARCCOS(AO.STAR)) SCALED IN REVS
001400:
001401: 15,2350           03765                                    SCAXIS                                #  OA
001402: 15,2351           53435                           VXV      UNIT
001403: 15,2352           24005                                    XUNIT
001404: 15,2353           47206                           PUSH     VXV                                   #  OA X UNITX    PD 0-5
001405: 15,2354           03765                                    SCAXIS
001406: 15,2355           77676                           VCOMP
001407: 15,2356           63256                           UNIT     PDVL                                  #  UNIT(OA X (OA X UNITX))       PD 6-11
001408: 15,2357           03765                                    SCAXIS
001409: 15,2360           53435                           VXV      UNIT
001410: 15,2361           02731                                    STAR
001411: 15,2362           50206                           PUSH     DOT                                   #  1/2(OA X STAR)        PD 12-17
001412: 15,2363           00001                                    0                                     #  DOT WITH 1/2(OA X UNITX) FOR YROT
001413: 15,2364           65552                           SL1      ARCCOS
001414: 15,2365           24033                           STOVL    26D                                   #  STORE THET SCALED IN REVS


001416: 15,2366           77641                           DOT                                            #  UP 12-17, UP 6-11 FOR C2
001417: 15,2367           71244                           BPL      DLOAD                                 #  IF THET NEG - GET 360-THET
001418: 15,2370           32375                                    R59D
001419: 15,2371           32047                                    ABOUTONE
001420: 15,2372           77625                           DSU
001421: 15,2373           00033                                    26D
001422: 15,2374           00033                           STORE    26D                                   #  360-THET SCALED IN REVS
001423:
001424: 15,2375           70535        R59D               SLOAD    SR1
001425: 15,2376           02746                                    QMIN                                  #  RESCALE AZ(N) TO REVS
001426: 15,2377           41415                           DAD      PUSH                                  #  PUSH YROT + AZ(N) REVS
001427: 15,2400           00033                                    26D
001428: 15,2401           77634                           RTB
001429: 15,2402           21614                                    1STO2S
001430: 15,2403           15237                           STODL    CURSOR                                #  YROT IN 1/2 REVS
001431: 15,2404           00031                                    24D                                   #  LOAD SROT IN REVS
001432: 15,2405           77615                           DAD                                            #  12(SEP) + YROT
001433: 15,2406           77634                           RTB
001434: 15,2407           21614                                    1STO2S
001435: 15,2410           01241                           STORE    SPIRAL                                #  SROT IN 1/2 REVS
001436: 15,2411           77776                           EXIT
001437: 15,2412           12437                           TCF      79DISP                                #  GO DISPLAY CURSOR-SPIRAL-POS CODE
001438:
001439: 15,2413           77776        ZSPCR              EXIT
001440: 15,2414           34755                           CAF      ZERO                                  #  STAR ALMOST OPTIC AXIS, ZERO CURSOR
001441: 15,2415           55236                           TS       CURSOR                                #  AND SPIRAL ANGLES
001442: 15,2416           55240                           TS       SPIRAL
001443: 15,2417           12437                           TCF      79DISP
001444:
001445: 15,2420           77776        NXAX               EXIT
001446: 15,2421           25242                           INCR     POSCODE
001447: 15,2422           41242                           CS       POSCODE
001448: 15,2423           64757                           AD       SEVEN
001449: 15,2424           00006                           EXTEND
001450: 15,2425           62427                           BZMF     R59ALM                                #  THIS STAR NOT AT ANY POSITION
001451: 15,2426           12310                           TCF      INCAZ
001452:
001453: 15,2427           05567        R59ALM             TC       ALARM                                 #  THIS STAR CANT BE LOCATED IN AOT FIELD
001454: 15,2430           00404                           OCT      404
001455: 15,2431           35006                           CAF      VB05N09                               #  DISPLAY ALARM
001456: 15,2432           04616                           TC       BANKCALL
001457: 15,2433           20476                           CADR     GOFLASH
001458: 15,2434           16001                           TCF      GOTOPOOH                              #  VB34 - TERMINATE
001459: 15,2435           12455                           TCF      R59OUT                                #  VB33 - PROCEED, GO WITHOUT AQUIRE
001460: 15,2436           12245                           TCF      R59                                   #  VB32 - RECYCLE AND TRY ANOTHER STAR
001461:
001462: 15,2437           32464        79DISP             CAF      V06N79                                #  DISPLAY CURSOR, SPIRAL AND POS CODE
001463: 15,2440           04616                           TC       BANKCALL
001464: 15,2441           20476                           CADR     GOFLASH
001465: 15,2442           16001                           TCF      GOTOPOOH                              #  V34 - TERMINATE


001467: 15,2443           12445                           TCF      R59E                                  #  V33 - PROCEED TO MARK ROUTINE
001468: 15,2444           12245                           TCF      R59                                   #  V32 - RECYCLE TO TOP OF R59 AGAIN
001469:
001470: 15,2445           34757        R59E               CAF      SEVEN                                 #  GET DETENT CODE CORRESPONDING TO POSCODE
001471: 15,2446           71242                           MASK     POSCODE
001472: 15,2447           00006                           EXTEND
001473: 15,2450           74745                           MP       BIT7                                  #  DETENT CODE NOW IN L
001474: 15,2451           47744                           CS       HIGH9
001475: 15,2452           70735                           MASK     AOTCODE                               #  ISOLATE STAR NO IN BIT 1-6
001476: 15,2453           60001                           AD       L
001477: 15,2454           54735                           TS       AOTCODE                               #  STORE DETENT 7-9
001478:
001479: 15,2455           04616        R59OUT             TC       BANKCALL                              #  GO TO AOTMARK FOR SIGHTING
001480: 15,2456           16000                           CADR     AOTMARK
001481: 15,2457           04616                           TC       BANKCALL
001482: 15,2460           17712                           CADR     AOTSTALL                              #  SLEEP TILL SIGHTING DONE
001483: 15,2461           05711                           TC       CURTAINS                              #  BADEND RETURN FROM AOTMARK
001484: 15,2462           13054                           TCF      R59RET                                #  RETURN TO 1 STAR OR 2STAR
001485:
001486: 15,2463           00306        V01N70*            VN       170
001487: 15,2464           01517        V06N79             VN       679
001488: 15,2465           02525 12525  DEG30              2DEC     .083333333                            #  30 DEGRESS
001489: 15,2467           00026 30131  DEG.5              2DEC     .00138888                             #  .5 DEGRESS SCALED IN REVS
001490: 15,2471           12525        DEG60              OCT      12525                                 #  60 DEG CDU SCALING
001491: 15,2472     1236               CURSOR             EQUALS   GDT/2
001492: 15,2472     1240               SPIRAL             EQUALS   GDT/2      +2
001493: 15,2472     1242               POSCODE            EQUALS   GDT/2      +4
001494:


001496:                                                                                                  #  NAME -        PLANET
001497:                                                                                                  #  FUNCTION -    TO PROVIDE THE REFERENCE VECTOR FOR THE SIGHTED CELESTIAL
001498:                                                                                                  #                BODY.  STARS ARE FETCHED FROM THE CATALOG, SUN, EARTH AND
001499:                                                                                                  #                MOON ARE COMPUTED BY LOCSAM, PLANET VECTORS ARE ENTERED
001500:                                                                                                  #                BY DSDY INPUT
001501:                                                                                                  #  CALL          CALL
001502:                                                                                                  #                        PLANET
001503:                                                                                                  #  INPUT -       TIME IN MPAC
001504:                                                                                                  #  OUTPUT -      VECTOR IN MPAC
001505:                                                                                                  #  SUBROUTINES - LOCSAM
001506:                                                                                                  #  DEBRIS -      VAC, STARAD - STARAD +17
001507:
001508: 15,2000                                           SETLOC   P50S
001509: 15,2000                                           BANK
001510: 15,2472                                           COUNT*   $$/P51
001511:
001512: 15,2472           27562        PLANET             STOVL    TSIGHT
001513: 15,2473           24007                                    ZEROVEC                               #  ZERO N88 DISPLAY VEC
001514: 15,2474           02707                           STORE    STARAD
001515: 15,2475           77420                           STQ      EXIT
001516: 15,2476           02736                                    GCTR
001517: 15,2477           47744                           CS       HIGH9
001518: 15,2500           70735                           MASK     AOTCODE
001519: 15,2501           00006                           EXTEND
001520: 15,2502           76242                           MP       REVCNT
001521: 15,2503           56001                           XCH      L
001522: 15,2504           51757                           INDEX    STARIND
001523: 15,2505           55755                           TS       BESTI
001524: 15,2506           10000                           CCS      A
001525: 15,2507           12523                           TCF      NOTPLAN
001526: 15,2510           32562                           CAF      VNPLANV
001527: 15,2511           04616                           TC       BANKCALL
001528: 15,2512           20476                           CADR     GOFLASH
001529: 15,2513           02510                           TC       -3
001530: 15,2514           02516                           TC       +2
001531: 15,2515           02510                           TC       -5
001532: 15,2516           06037                           TC       INTPRET
001533: 15,2517           53575                           VLOAD    UNIT
001534: 15,2520           02707                                    STARAD
001535: 15,2521           77650                           GOTO
001536: 15,2522           02736                                    GCTR
001537: 15,2523           40000        NOTPLAN            CS       A
001538: 15,2524           62561                           AD       DEC227
001539: 15,2525           00006                           EXTEND
001540: 15,2526           62537                           BZMF     CALSAM1
001541: 15,2527           51757                           INDEX    STARIND
001542: 15,2530           31755                           CA       BESTI
001543: 15,2531           50120                           INDEX    FIXLOC
001544: 15,2532           54046                           TS       X1
001545: 15,2533           06037                           TC       INTPRET


001547: 15,2534           52173                           VLOAD*   GOTO
001548: 15,2535           30347                                    CATLOG,1
001549: 15,2536           02736                                    GCTR
001550: 15,2537           06037        CALSAM1            TC       INTPRET
001551: 15,2540           45145        CALSAM             DLOAD    CALL
001552: 15,2541           03562                                    TSIGHT
001553: 15,2542           30506                                    LOCSAM
001554: 15,2543           77340                           LXC,1    VLOAD
001555: 15,2544           02757                                    STARIND
001556: 15,2545           02707                                    VEARTH
001557: 15,2546           24001                           STOVL    0D
001558: 15,2547           02715                                    VSUN
001559: 15,2550           26707                           STOVL    VEARTH
001560: 15,2551           00001                                    0D
001561: 15,2552           02715                           STORE    VSUN
001562: 15,2553           70143                           DLOAD*   LXC,1
001563: 15,2554           02756                                    BESTI,1
001564: 15,2555           00154                                    MPAC
001565: 15,2556           52173                           VLOAD*   GOTO
001566: 15,2557           02343                                    STARAD     -228D,1
001567: 15,2560           02736                                    GCTR
001568: 15,2561           00343        DEC227             DEC      227        B-14
001569: 15,2562           01530        VNPLANV            VN       0688
001570: 15,2563  37,3544               PIPSRINE           =        PIPASR     +3                         #  EBANK NOT 4 SO DONT LOAD PIPTIME1
001571:


001573:                                                                                                  #  GRAVITY VECTOR DETERMINATION ROUTINE
001574:                                                                                                  #  BY KEN VINCENT
001575:
001576:                                                                                                  #  FOR DETAILED DESCRIPTION SEE 504GSOP 5.6.3.2.5
001577:
001578:                                                                                                  #  THIS PROGRAM FINDS THE DIRECTION OF THE MOONS GRAVITY
001579:                                                                                                  #  WHILE THE LM IS ON THE MOONS SURFACE.  IT WILL BE USED
001580:                                                                                                  #  FOR LUNAR SURFACE ALIGNMENT.  THE GRAVITY VECTOR IS
001581:                                                                                                  #  DETERMINED BY READING THE PIPAS WITH THE IMU AT TWO
001582:                                                                                                  #  PARTICULAR ORIONTATIONS.  THE TWO READINGS ARE AVERAGED
001583:                                                                                                  #  AND UNITIZED AND TRANSFORMED TO NB COORDINATES.  THE TWO
001584:                                                                                                  #  ORIENTATION WERE CHOSEN TO REDUCE BIAS ERRORS IN THE
001585:                                                                                                  #  READINGS.
001586:
001587:                                                                                                  #  CALL -
001588:                                                                                                  #        TC      BANKCALL
001589:                                                                                                  #        CADR    GVDETER
001590:
001591:                                                                                                  #  INPUTS -
001592:                                                                                                  #        PIPAS, CDUS
001593:
001594:                                                                                                  #  OUTPUTS -
001595:                                                                                                  #        STARSAV1 = UNIT GRAVITY
001596:                                                                                                  #        GSAV     = DITTO
001597:                                                                                                  #        GRAVBIT  = 1
001598:
001599:                                                                                                  #  SUBROUTINES -
001600:                                                                                                  #        PIPASR, IMUCOARS, IMUFINE, IMUSTALL, 1/PIPA, DELAYJOB, CDUTRIG,
001601:                                                                                                  #        *NBSM*, *SNMB*, CALCGA, FOFLASH
001602:
001603:                                                                                                  #  DEBRIS -
001604:                                                                                                  #        VAC, SAC, STARAD, XSM, XNB, THETAD, DELV, COSCDU, SINCDU
001605:
001606: 15,2563           32772        GVDETER            CAF      42DEG
001607: 15,2564           54321                           TS       THETAD
001608: 15,2565           40000                           COM
001609: 15,2566           54322                           TS       THETAD     +1
001610: 15,2567           32773                           CAF      35DEG
001611: 15,2570           54323                           TS       THETAD     +2
001612: 15,2571           06037                           TC       INTPRET
001613: 15,2572           45014                           CLEAR    CALL
001614: 15,2573           01662                                    REFSMFLG
001615: 15,2574           32670                                    LUNG
001616:
001617:                                                                                                  #  FIND GIMBAL ANGLES WHICH ROTATE SM 180 DEG ABOUT G VEC
001618:
001619:                                                                                                  #        DEFINE G COOR SYS
001620:                                                                                                  #                      -
001621:                                                                                                  #                      X          UNIT G
001622:                                                                                                  #                *     -                  -
001623:                                                                                                  #                M =   Y   =   UNITEZSM * X )
001624:                                                                                                  #                      -            -     -
001625:                                                                                                  #                      Z       UNIT(X   * Y )
001626:
001627:                                                                                                  #        THEN ROTATED SM WRT PRESENT IS
001628:
001629:                                                                                                  #                             1,  0,  0
001630:                                                                                                  #                 *      *T               *             *      *


001632:                                                                                                  #                XSM =   M    0, -1,  0   M  =  2 (X X ) - 1/2 I  *
001633:                                                                                                  #                                                   I J
001634:                                                                                                  #                             0,  0, -1
001635:
001636:                                                                                                  #        ALSO NB WRT PRES SM IS
001637:
001638:                                                                                                  #                 *      *  *
001639:                                                                                                  #                XNB = NBSM I
001640:                                                                                                  #                                 *    *
001641:                                                                                                  #        GIMBAL ANGLES = CALCGA( XSM, XNB )
001642:
001643: 15,2000                                           SETLOC   P50S
001644: 15,2000                                           BANK
001645: 15,2575                                           COUNT*   $$/P57
001646: 15,2575           66370                           AXT,1    SSP                                   #  X1=18
001647: 15,2576           00022                                    18D                                   #  S1=6
001648: 15,2577           00051                                    S1                                    #  X2, -2
001649: 15,2600           00006                                    6D
001650: 15,2601           77744                           LXC,2
001651: 15,2602           00050                                    S1
001652: 15,2603           45173        GRAVEL             VLOAD*   CALL
001653: 15,2604           54000                                    XUNIT      -6,2
001654: 15,2605           47673                                    *NBSM*                                #  SIN AND COS COMPUTED IN LUNG
001655: 15,2606           06707                           STORE    XNB        +18D,1
001656: 15,2607           77775                           VLOAD
001657: 15,2610           02731                                    STAR
001658: 15,2611           73744                           LXC,2    VXSC*                                 #  COMPLEMENT - UNITX ARE BACKWARD -
001659: 15,2612           00047                                    X2
001660: 15,2613           75040                                    STAR       +6,2                       #  OUTER PRODUCT
001661: 15,2614           71152                           VSL2     LXC,2
001662: 15,2615           00047                                    X2
001663: 15,2616           63047                           VSU*     INCR,2
001664: 15,2617           54000                                    XUNIT      -6,2
001665: 15,2620           00002                                    2D
001666: 15,2621           06665                           STORE    XSM        +18D,1
001667: 15,2622           45100                           TIX,1    CALL
001668: 15,2623           32603                                    GRAVEL
001669: 15,2624           47353                                    CALCGA
001670: 15,2625           74575                           VLOAD    VSR1
001671: 15,2626           02715                                    GOUT
001672: 15,2627           36723                           STCALL   STARAD     +12D
001673: 15,2630           32670                                    LUNG
001674: 15,2631           74575                           VLOAD    VSR1
001675: 15,2632           02715                                    GOUT
001676: 15,2633           53455                           VAD      UNIT
001677: 15,2634           02723                                    STARAD     +12D
001678: 15,2635           02761                           STORE    STARSAV1
001679: 15,2636           77641                           DOT
001680: 15,2637           02231                                    GSAV
001681: 15,2640           65552                           SL1      ACOS


001683: 15,2641           01046                           STORE    DSPTEM1
001684: 15,2642           77776                           EXIT
001685: 15,2643           05516                           TC       DOWNFLAG                              #  CLEAR FREEFLAG IN CASE OF RECYCLE
001686: 15,2644           00014                           ADRES    FREEFLAG
001687:
001688: 15,2645           32771                           CA       DISGRVER
001689: 15,2646           04616                           TC       BANKCALL
001690: 15,2647           20476                           CADR     GOFLASH
001691: 15,2650           06001                           TC       GOTOPOOH
001692: 15,2651           12654                           TCF      PROGRAV                               #  VB33 - PROCEED
001693: 15,2652           05504                           TC       UPFLAG                                #  VB32 - RECYCLE - STORE GRAV AND DO IT AGAIN
001694: 15,2653           00014                           ADRES    FREEFLAG                              #  AND SET FREEFLAG TO SHOW RECYCLE
001695:
001696: 15,2654           05353        PROGRAV            TC       PHASCHNG
001697: 15,2655           04024                           OCT      04024
001698:
001699: 15,2656           06037                           TC       INTPRET
001700: 15,2657           77775                           VLOAD
001701: 15,2660           02761                                    STARSAV1
001702: 15,2661           02231                           STORE    GSAV
001703: 15,2662           77776                           EXIT
001704: 15,2663           34751                           CAF      FREEFBIT                              #  IF FREEFLAG SET, RE-COMPUTE GRAVITY.
001705: 15,2664           70074                           MASK     FLAGWRD0
001706: 15,2665           10000                           CCS      A
001707: 15,2666           12563                           TCF      GVDETER                               #  SET
001708: 15,2667           13553                           TCF      ATTCHK                                #  EXIT FROM GVDETER
001709:
001710: 15,2670           77220        LUNG               STQ      VLOAD
001711: 15,2671           02745                                    QMIN
001712: 15,2672           24007                                    ZEROVEC
001713: 15,2673           02707                           STORE    GACC
001714: 15,2674           77776                           EXIT
001715: 15,2675           05353                           TC       PHASCHNG
001716: 15,2676           04024                           OCT      04024
001717:
001718: 15,2677           04616                           TC       BANKCALL
001719: 15,2700           17000                           CADR     IMUCOARS
001720: 15,2701           04616                           TC       BANKCALL
001721: 15,2702           17716                           CADR     IMUSTALL
001722: 15,2703           05711                           TC       CURTAINS
001723: 15,2704           04616                           TC       BANKCALL
001724: 15,2705           17210                           CADR     IMUFINE
001725: 15,2706           04616                           TC       BANKCALL
001726: 15,2707           17716                           CADR     IMUSTALL
001727: 15,2710           05711                           TC       CURTAINS
001728: 15,2711           32770                           CA       T/2SEC
001729: 15,2712           55736                           TS       GCTR
001730: 15,2713           37716                           CA       PRIO31
001731: 15,2714           55075                           TS       1/PIPADT
001732: 15,2715           04616                           TC       BANKCALL


001734: 15,2716           15701                           CADR     GCOMPZER                              #  INITIALIZE COMPENSATION
001735: 15,2717           05353                           TC       PHASCHNG
001736: 15,2720           04024                           OCT      04024
001737:
001738: 15,2721           04616                           TC       BANKCALL                              #  DONT NEED TO INHINY   THIS USED TO
001739: 15,2722           77544                           CADR     PIPSRINE                              #  INITIALIZE PIPAS  DONT USE DATA
001740: 15,2723           06037                           TC       INTPRET
001741: 15,2724           77776        GREED              EXIT                                           #  = MASK 7776 IN BASIC SO DONT CARE
001742: 15,2725           35000                           CAF      2SECS
001743: 15,2726           05173                           TC       TWIDDLE                               #  SET UP 2 SEC TASK TO READ PIPAS
001744: 15,2727           02731                           ADRES    GRABGRAV
001745:
001746: 15,2730           05155                           TC       ENDOFJOB
001747:
001748: 15,2731           04674        GRABGRAV           TC       IBNKCALL
001749: 15,2732           77544                           CADR     PIPSRINE
001750: 15,2733           35023                           CAF      PRIO13                                #  RE-ESTABLISH MAINLINE JOB
001751: 15,2734           05105                           TC       FINDVAC
001752: 15,2735  E5,1706                                  EBANK=   STARAD
001753: 15,2735           02740 32065                     2CADR    ADDGRAV
001754:
001755: 15,2737           05261                           TC       TASKOVER
001756:
001757: 15,2740           04616        ADDGRAV            TC       BANKCALL
001758: 15,2741           15263                           CADR     1/PIPA
001759: 15,2742           25736                           INCR     GCTR
001760: 15,2743           06037                           TC       INTPRET
001761: 15,2744           53375                           VLOAD    VAD
001762: 15,2745           00325                                    DELV
001763: 15,2746           02707                                    GACC
001764: 15,2747           02707                           STORE    GACC                                  #  ACCUMULATE G VECTOR
001765: 15,2750           50135                           SLOAD    BMN
001766: 15,2751           02737                                    GCTR
001767: 15,2752           32724                                    GREED
001768: 15,2753           53575                           VLOAD    UNIT
001769: 15,2754           02707                                    GACC
001770: 15,2755           36731                           STCALL   STAR
001771: 15,2756           47537                                    CDUTRIG                               #  TRANSFORM IN NB COOR AND STORE
001772: 15,2757           77624                           CALL                                           #        IN OUTPUT
001773: 15,2760           47671                                    *SMNB*
001774: 15,2761           02715                           STORE    GOUT
001775: 15,2762           77776                           EXIT
001776: 15,2763           05353                           TC       PHASCHNG
001777: 15,2764           04024                           OCT      04024
001778:
001779: 15,2765           06037        QMINEXIT           TC       INTPRET
001780: 15,2766           77650                           GOTO
001781: 15,2767           02745                                    QMIN
001782: 15,2770           77753        T/2SEC             DEC      -20        B-14


001784: 15,2771           01404        DISGRVER           VN       0604
001785: 15,2772           07357        42DEG              OCT      07357
001786: 15,2773           06211        35DEG              OCT      06211
001787:


001789:                                                                                                  #  NAME  GYROTRIM
001790:
001791:                                                                                                  #  THIS PROGRAM COMPUTES AND SENDS GYRO COMMANDS WHICH CAUSE THE CDUS
001792:                                                                                                  #  TO ATTAIN A PRESCRIBED SET OF ANGLES.  THIS ROUTINE ASSUMES THE
001793:                                                                                                  #  VEHICLES ATTITUDE REMAINS STATIONARY DURING ITS OPERATION.
001794:
001795:                                                                                                  #  CALL          CALL
001796:                                                                                                  #                        GYROTRIM
001797:
001798:                                                                                                  #  INPUT         THETAD,+1,+2 = DESIRED CDU ANGLES
001799:                                                                                                  #                CDUX,CDUY,CDUZ
001800:
001801:                                                                                                  #  OUTPUT -      GYRO TORQUE PULSES
001802:
001803:                                                                                                  #  SUBROUTINES - TRG*NBSM, *NBSM*, CDUTRIG, AXISGEN, CALCGTA, IMUFINE
001804:                                                                                                  #                IMPULSE, IMUSTALL
001805:                                                                                                  #                -        -       -          *          *   -
001806:                                                                                                  #  DEBRIS -      CDUSPOT, SINCDU, COSCDU, STARAD, VAC, XDC, OGC
001807:
001808: 15,2774                                           COUNT*   $$/P57
001809: 15,2774           71220        GYROTRIM           STQ      DLOAD
001810: 15,2775           02745                                    QMIN
001811: 15,2776           00322                                    THETAD
001812: 15,2777           65325                           PDDL     PDDL
001813: 15,3000           00324                                    THETAD     +2
001814: 15,3001           00323                                    THETAD     +1
001815: 15,3002           77666                           VDEF
001816: 15,3003           24767                           STOVL    CDUSPOT
001817: 15,3004           24005                                    XUNIT
001818: 15,3005           77624                           CALL
001819: 15,3006           47664                                    TRG*NBSM
001820: 15,3007           26707                           STOVL    STARAD
001821: 15,3010           24003                                    YUNIT
001822: 15,3011           77624                           CALL
001823: 15,3012           47673                                    *NBSM*
001824: 15,3013           36715                           STCALL   STARAD     +6
001825: 15,3014           47537                                    CDUTRIG
001826: 15,3015           77624                           CALL
001827: 15,3016           20030                                    CALCSMSC
001828: 15,3017           77775                           VLOAD
001829: 15,3020           02665                                    XNB
001830: 15,3021           24007                           STOVL    6D
001831: 15,3022           02673                                    YNB
001832: 15,3023           34015                           STCALL   12D
001833: 15,3024           47441                                    AXISGEN
001834: 15,3025           77624                           CALL
001835: 15,3026           47247                                    CALCGTA
001836: 15,3027           77776        JUSTTRIM           EXIT
001837: 15,3030           04616                           TC       BANKCALL
001838: 15,3031           17210                           CADR     IMUFINE
001839: 15,3032           04616                           TC       BANKCALL


001841: 15,3033           17716                           CADR     IMUSTALL
001842: 15,3034           05711                           TC       CURTAINS
001843: 15,3035           33044                           CA       GYRCDR
001844: 15,3036           04616                           TC       BANKCALL
001845: 15,3037           17323                           CADR     IMUPULSE
001846: 15,3040           04616                           TC       BANKCALL
001847: 15,3041           17716                           CADR     IMUSTALL
001848: 15,3042           05711                           TC       CURTAINS
001849: 15,3043           12765                           TCF      QMINEXIT
001850:
001851: 15,3044           02737        GYRCDR             ECADR    OGC
001852:


001854:                                                                                                  #  PERFORM STAR AQUISITION AND STAR SIGHTINGS
001855:
001856: 15,3045           34755        2STARS             CAF      ZERO                                  #  INITALIZE STARIND
001857: 15,3046           13050                           TCF      +2                                    #  ZERO FOR 1ST STAR, ONE FOR 2ND STAR
001858: 15,3047           34753        1STAR              CAF      BIT1
001859: 15,3050           55757                           TS       STARIND
001860:
001861: 15,3051           05353                           TC       PHASCHNG
001862: 15,3052           04024                           OCT      04024
001863:
001864: 15,3053           12245                           TCF      R59                                   #  GO DO STAR AQUIRE AND AOTMARK
001865:
001866: 15,3054           31757        R59RET             CA       STARIND                               #  BACK FROM SURFACE MARKING
001867: 15,3055           00006                           EXTEND
001868: 15,3056           13067                           BZF      ASTAR                                 #  1ST STAR MARKED
001869:
001870: 15,3057           05353                           TC       PHASCHNG
001871: 15,3060           04024                           OCT      04024
001872:
001873: 15,3061           06037                           TC       INTPRET
001874: 15,3062           45145                           DLOAD    CALL
001875: 15,3063           03562                                    TSIGHT                                #  TIME OF 2ND MARK
001876: 15,3064           32472                                    PLANET
001877: 15,3065           36731                           STCALL   VEC2                                  #  STORE 2ND CATALOG VEC (REF)
001878: 15,3066           33101                                    SURFLINE
001879:
001880: 15,3067           06037        ASTAR              TC       INTPRET
001881: 15,3070           77775                           VLOAD
001882: 15,3071           02715                                    STARAD     +6
001883: 15,3072           02761                           STORE    STARSAV1                              #  1ST OBSERVED STAR (SM)
001884: 15,3073           45145                           DLOAD    CALL
001885: 15,3074           03562                                    TSIGHT                                #  TIME OF 1ST MARK
001886: 15,3075           32472                                    PLANET
001887: 15,3076           02723                           STORE    VEC1                                  #  STORE 1ST CATALOG VEC (REF)
001888: 15,3077           77776                           EXIT
001889: 15,3100           13047                           TCF      1STAR                                 #  GO GET 2ND STAR SIGHTING
001890:


001892:                                                                                                  #  DO FINE OR COARSE ALIGNMENT OF IMU
001893:
001894: 15,3101           77131        SURFLINE           SSP      AXT,2
001895: 15,3102           00052                                    S2
001896: 15,3103           00006                                    6
001897: 15,3104           00014                                    12D
001898: 15,3105           64373        WRTDESIR           VLOAD*   MXV
001899: 15,3106           75040                                    VEC1       +12D,2                     #  PICK UP VEC IN REF, TRANS TO DESIRED SH
001900: 15,3107           03607                                    XSMD
001901: 15,3110           77656                           UNIT
001902: 15,3111           12723                           STORE    STARAD     +12D,2                     #  VEC IN SM
001903: 15,3112           77773                           VLOAD*
001904: 15,3113           75002                                    STARSAV1   +12D,2                     #  PICK UP VEC IN PRESENT SM
001905: 15,3114           10023                           STORE    18D,2
001906: 15,3115           43104                           TIX,2    BON
001907: 15,3116           33105                                    WRTDESIR
001908: 15,3117           04315                                    INITALGN                              #  IF INITIAL PASS (OPTION 0) BYPASS R54
001909: 15,3120           33126                                    INITBY
001910: 15,3121           77624        DOALIGN            CALL
001911: 15,3122           31256                                    R54                                   #  DO CHKSDATA
001912: 15,3123           77614                           BOFF
001913: 15,3124           00354                                    FREEFLAG
001914: 15,3125           33206                                    P57POST                               #  ASTRO DOES NOT LIKE DATA TEST RESULTS
001915: 15,3126           77624        INITBY             CALL
001916: 15,3127           47441                                    AXISGEN                               #  GET DESIRED ORIENT WRT PRES. XDC,YDC,ZDC
001917: 15,3130           77624                           CALL
001918: 15,3131           47247                                    CALCGTA                               #  GET GYRO TORQ ANGLES, OGC,IGC,MGC
001919: 15,3132           77776                           EXIT
001920: 15,3133           34752                           CAF      INITABIT                              #  IF INITIAL PASS BYPASS NOUN 93 DISPLAY
001921: 15,3134           70104                           MASK     FLAGWRD8
001922: 15,3135           10000                           CCS      A
001923: 15,3136           13145                           TCF      5DEGTEST
001924: 15,3137           33313                           CAF      DISPGYRO                              #  DISPLAY GYRO TORQ ANGLES V 06N93
001925: 15,3140           04616                           TC       BANKCALL
001926: 15,3141           20476                           CADR     GOFLASH
001927: 15,3142           06001                           TC       GOTOPOOH                              #  V34 - TERMINATE
001928: 15,3143           13145                           TCF      5DEGTEST                              #  VB33 - PROCEED TO COARSE OR FINE
001929: 15,3144           13207                           TCF      P57POST    +1                         #  VB32 - RECYCLE, MAYBE RE-ALIGN
001930:
001931: 15,3145           06037        5DEGTEST           TC       INTPRET                               #  IF ANGLES GREATER THAN 5 DEGS, DO COARSE
001932: 15,3146           40175                           VLOAD    BOV
001933: 15,3147           02740                                    OGC
001934: 15,3150           33151                                    SURFSUP
001935: 15,3151           02750        SURFSUP            STORE    OGCT
001936: 15,3152           40141                           V/SC     BOV
001937: 15,3153           30610                                    5DEGREES
001938: 15,3154           33254                                    COATRIM
001939: 15,3155           52131                           SSP      GOTO
001940: 15,3156           02746                                    QMIN
001941: 15,3157           33161                                    SURFDISP


001943: 15,3160           33027                                    JUSTTRIM                              #  ANGLES LESS THAN 5 DEG, DO GYRO TORQ
001944:
001945: 15,3161           77776        SURFDISP           EXIT
001946: 15,3162           05353                           TC       PHASCHNG
001947: 15,3163           04024                           OCT      04024
001948:
001949: 15,3164           06037                           TC       INTPRET
001950: 15,3165           75160                           AXC,1    AXC,2
001951: 15,3166           03606                                    XSMD
001952: 15,3167           01733                                    REFSMMAT
001953: 15,3170           45014                           SET      CALL
001954: 15,3171           01462                                    REFSMFLG
001955: 15,3172           31377                                    MATMOVE
001956: 15,3173           77776                           EXIT
001957: 15,3174           11145                           CCS      OPTION2                               #  IF OPTION ZERO DO FINISH
001958: 15,3175           13177                           TCF      B2F8
001959: 15,3176           13207                           TCF      P57POST    +1
001960:
001961: 15,3177           34752        B2F8               CAF      INITABIT                              #  IF INITIAL FLAG SET, RE-CYCLE.
001962: 15,3200           70104                           MASK     FLAGWRD8
001963: 15,3201           10000                           CCS      A
001964: 15,3202           13561                           TCF      P57JUMP                               #  ITS SET
001965: 15,3203           06037                           TC       INTPRET
001966: 15,3204           77624                           CALL
001967: 15,3205           33506                                    REFMF                                 #  GO GET ATTITUDE VEC IN MF(YNBSAV,XNBSAV)
001968: 15,3206           77776        P57POST            EXIT
001969: 15,3207           35751                           CAF      OCT14                                 #  DISPLAY V50N25 CHK CODE 14
001970: 15,3210           04616                           TC       BANKCALL
001971: 15,3211           20623                           CADR     GOPERF1
001972: 15,3212           16001                           TCF      GOTOPOOH                              #  VB34 - TERMINATE
001973: 15,3213           13561                           TCF      P57JUMP                               #  VB33 - PROCEED TO RE-ALIGN
001974: 15,3214           44752                           CS       BIT2                                  #  TEST TO SE IF ALIGNED BY OPTION 2
001975: 15,3215           61145                           AD       OPTION2
001976: 15,3216           00006                           EXTEND
001977: 15,3217           13221                           BZF      +2                                    #  YES - GO CALCULATE LANDING SITE
001978: 15,3220           16001                           TCF      GOTOPOOH                              #  NO - EXIT P57
001979: 15,3221           05353                           TC       PHASCHNG                              #  RESTART PLACE
001980: 15,3222           04024                           OCT      04024
001981: 15,3223           06037                           TC       INTPRET
001982: 15,3224           45175                           VLOAD    CALL                                  #  USE GNB
001983: 15,3225           02231                                    GSAV
001984: 15,3226           47661                                    CDU*NBSM                              #  GO TO SM COORDS
001985: 15,3227           43105                           VXM      SET                                   #        ON MOON SO SET LUNAFLAG
001986: 15,3230           01734                                    REFSMMAT                              #        G(REF) = (REFSMMAT)T (NBSM)GNB
001987: 15,3231           01463                                    LUNAFLAG
001988: 15,3232           51515                           PDVL     ABVAL
001989: 15,3233           02023                                    RLS
001990: 15,3234           45561                           VXSC     STADR
001991: 15,3235           75745                           STORE    ALPHAV                                #  ALPHAV = RLSMAG * G(REF)
001992: 15,3236           47014                           CLEAR    RTB


001994: 15,3237           00662                                    ERADFLAG
001995: 15,3240           21573                                    LOADTIME
001996: 15,3241           77624                           CALL
001997: 15,3242           30446                                    N89DISP                               #  SUBROUTINE TO CALC LS AND GIVE RLS BACK
001998: 15,3243           01221                           STORE    RN                                    #  RN=RLS B-29 = LM POSITION
001999: 15,3244           65352                           VSL2     PDDL                                  #  R-TO-RP GETS RLS B-27 AT 0-50 IN PDLIST
002000: 15,3245           01243                                    GDT/2      +4                         #  TIME TEMP STORED IN N89DISP
002001: 15,3246           77606                           PUSH                                           #  TIME AT 6-7 IN PDLIST
002002: 15,3247           35235                           STCALL   PIPTIME                               #  PIPTIME = LM STATE TIME
002003: 15,3250           51670                                    R-TO-RP
002004: 15,3251           02023                           STORE    RLS                                   #  RLS IN MOON-FIXED COORDS
002005: 15,3252           77776                           EXIT
002006: 15,3253           16001                           TCF      GOTOPOOH                              #  EXIT P57
002007:


002009:                                                                                                  #  COARSE AND FINE ALIGN IMU
002010:
002011: 15,3254           75160        COATRIM            AXC,1    AXC,2
002012: 15,3255           02664                                    XDC
002013: 15,3256           02642                                    XSM
002014: 15,3257           77624                           CALL
002015: 15,3260           31377                                    MATMOVE
002016: 15,3261           77624                           CALL
002017: 15,3262           47537                                    CDUTRIG
002018: 15,3263           77624                           CALL
002019: 15,3264           20030                                    CALCSMSC
002020: 15,3265           77624                           CALL
002021: 15,3266           47353                                    CALCGA
002022: 15,3267           77414                           BOFF     EXIT
002023: 15,3270           04355                                    INITALGN                              #  IF INITIAL ALGNMENT DISPLAY FINAL
002024: 15,3271           33303                                    CORSIT                                #  GIMBAL ANGLES IF COARSE ANGLES GREATER
002025: 15,3272           35010                           CAF      V06N22                                #  THAN 5 DEGREES
002026: 15,3273           04616                           TC       BANKCALL
002027: 15,3274           20476                           CADR     GOFLASH
002028: 15,3275           06001                           TC       GOTOPOOH
002029: 15,3276           13300                           TCF      +2
002030: 15,3277           13272                           TCF      -5
002031: 15,3300           05353                           TC       PHASCHNG
002032: 15,3301           04024                           OCT      04024
002033:
002034: 15,3302           06037                           TC       INTPRET
002035: 15,3303           77624        CORSIT             CALL
002036: 15,3304           31565                                    COARSE
002037: 15,3305           77624                           CALL
002038: 15,3306           31602                                    NCOARSE
002039: 15,3307           77624                           CALL
002040: 15,3310           32774                                    GYROTRIM
002041: 15,3311           77650                           GOTO
002042: 15,3312           33161                                    SURFDISP
002043: 15,3313           01535        DISPGYRO           VN       0693
002044:


002046:                                                                                                  #  LUNAR SURFACE IMU ALIGNMENT PROGRAM
002047:
002048: 15,3314           04616        P57                TC       BANKCALL                              #  IS ISS ON - IF NOT, IMUCHK WILL SEND
002049: 15,3315           33652                           CADR     IMUCHK                                #  ALARM CODE 210 AND EXIT VIA GOTOPOOH
002050:
002051: 15,3316           36245                           CAF      THREE                                 #  JAM REFSMMAT OPTION 3 FOR INITIAL DISP.
002052: 15,3317           55145                           TS       OPTION2
002053: 15,3320           34753        P57OPT             CAF      BIT1
002054: 15,3321           04616                           TC       BANKCALL
002055: 15,3322           20713                           CADR     GOPERF4R                              #  FLASH V04N06 FOR ALIGNMENT CODE
002056: 15,3323           06001                           TC       GOTOPOOH                              #  V34 TERMINATE
002057: 15,3324           13331                           TCF      ALIGNOPT                              #  V33 PROCEED
002058: 15,3325           13320                           TCF      P57OPT                                #  V32 RECYCLE
002059:
002060: 15,3326           05353                           TC       PHASCHNG
002061: 15,3327           00014                           OCT      00014
002062: 15,3330           05155                           TC       ENDOFJOB
002063:
002064: 15,3331           31145        ALIGNOPT           CA       OPTION2
002065: 15,3332           76245                           MASK     THREE
002066: 15,3333           50000                           INDEX    A
002067: 15,3334           13335                           TCF      +1
002068: 15,3335           13350                           TCF      TDISP                                 #  OPTION 4 LS ORIENTATION
002069: 15,3336           13411                           TCF      PACKOPTN                              #  OPTION 1 PREFERRED
002070: 15,3337           13320                           TCF      P57OPT                                #  OPTION 2 INVALID IN P57, RECYCLE
002071: 15,3340           06037                           TC       INTPRET                               #  OPTION 3 REFSMMAT
002072: 15,3341           75160                           AXC,1    AXC,2                                 #  JAM REFSMMAT IN XSMD LOC
002073: 15,3342           01733                                    REFSMMAT
002074: 15,3343           03606                                    XSMD
002075: 15,3344           77624                           CALL
002076: 15,3345           31377                                    MATMOVE
002077: 15,3346           77650                           GOTO
002078: 15,3347           33410                                    PACKOPTN   -1
002079:
002080: 15,3350           06037        TDISP              TC       INTPRET
002081: 15,3351           77745                           DLOAD
002082: 15,3352           03442                                    TIG                                   #  LOAD ASCENT TIME FOR DISPLAY
002083: 15,3353           01046        P57A               STORE    DSPTEM1
002084: 15,3354           77776                           EXIT
002085: 15,3355           32170        P57AA              CAF      V06N34*                               #  DISPLAY TALIGN, TALIGN : DSPTEM1
002086: 15,3356           04616                           TC       BANKCALL
002087: 15,3357           20476                           CADR     GOFLASH
002088: 15,3360           16001                           TCF      GOTOPOOH                              #  V34 - TERMINATE
002089: 15,3361           13363                           TCF      +2
002090: 15,3362           13355                           TCF      P57AA                                 #  VB32 - RECYCLE
002091:
002092: 15,3363           06037                           TC       INTPRET
002093: 15,3364           65234                           RTB      PDDL
002094: 15,3365           21573                                    LOADTIME                              #  PUSH CURRENT TIME AND PICK UP KEY IN
002095: 15,3366           01046                                    DSPTEM1


002097: 15,3367           65254                           BZE      PDDL
002098: 15,3370           33400                                    P57C                                  #  IF KEY IN TIME ZERO - TALIGN=CURRENT TIME
002099: 15,3371           51025                           DSU      BPL                                   #  NOT ZERO SO EXCHANGE PD WITH DSPTEM1
002100: 15,3372           01046                                    DSPTEM1
002101: 15,3373           33400                                    P57C
002102: 15,3374           45545                           DLOAD    STADR                                 #  IF KEYIN TIME GREATER THAN CURRENT TIME
002103: 15,3375           74335                           STORE    TIG                                   #  STORE IT IN TIG
002104: 15,3376           36775                           STCALL   TALIGN
002105: 15,3377           33402                                    P57D
002106: 15,3400           45545        P57C               DLOAD    STADR
002107: 15,3401           75002                           STORE    TALIGN
002108: 15,3402           34041        P57D               STCALL   TDEC1
002109: 15,3403           27057                                    LEMPREC                               #  COMPUTE DESIRED IMU ORIENTATION STORE
002110: 15,3404           53575                           VLOAD    UNIT                                  #  IN X,Y,ZSMD
002111: 15,3405           00001                                    RATT
002112: 15,3406           37607                           STCALL   XSMD
002113: 15,3407           11013                                    LSORIENT
002114: 15,3410           77776                           EXIT
002115: 15,3411           34755        PACKOPTN           CAF      ZERO                                  #  PACK FLAG BITS FOR OPTION DISPLAY
002116: 15,3412           55145                           TS       OPTION1    +1                         #  JAM ZERO IN ALIGNMENT OPTION
002117: 15,3413           55146                           TS       OPTION1    +2                         #  INITIALIZE FLAG BIT CONFIGURATION
002118: 15,3414           34737                           CAF      REFSMBIT
002119: 15,3415           70077                           MASK     FLAGWRD3                              #  REFSMFLG
002120: 15,3416           10000                           CCS      A
002121: 15,3417           34745                           CAF      BIT7                                  #  SET
002122: 15,3420           27146                           ADS      OPTION1    +2                         #  CLEAR - JUST ZERO
002123: 15,3421           34753                           CAF      ATTFLBIT
002124: 15,3422           70102                           MASK     FLAGWRD6                              #  ATTFLG
002125: 15,3423           10000                           CCS      A
002126: 15,3424           34750                           CAF      BIT4                                  #  SET
002127: 15,3425           27146                           ADS      OPTION1    +2                         #  CLEAR - ZERO IN A
002128: 15,3426           34750                           CAF      BIT4
002129: 15,3427           55144                           TS       OPTION1                               #  JAM 00010 IN OPTION1 FOR CHECK LIST
002130:
002131: 15,3430           33651        DSPOPTN            CAF      VB05N06                               #  DISPLAY OPTION CODE AND FLAG BITS
002132: 15,3431           04616                           TC       BANKCALL
002133: 15,3432           20476                           CADR     GOFLASH
002134: 15,3433           16001                           TCF      GOTOPOOH                              #  VB34 - TERMINATE
002135: 15,3434           13436                           TCF      +2                                    #  V33 - PROCEED
002136: 15,3435           13430                           TCF      DSPOPTN                               #  V32 - RECYCLE
002137:
002138: 15,3436           34737                           CAF      REFSMBIT
002139: 15,3437           70077                           MASK     FLAGWRD3
002140: 15,3440           10000                           CCS      A
002141: 15,3441           13541                           TCF      GETLMATT                              #  SET, GO COMPUTE LM ATTITUDE
002142: 15,3442           34753                           CAF      ATTFLBIT                              #  CLEAR - CHECK ATTFLAG FOR STORED ATTITUDE.
002143: 15,3443           70102                           MASK     FLAGWRD6
002144: 15,3444           10000                           CCS      A
002145: 15,3445           13545                           TCF      BYLMATT                               #  ALLFLG SET, CHK OPTION FOR GRAVITY COMP
002146: 15,3446           34752                           CAF      BIT2                                  #  SEE IF OPTION 2 OR 3


002148: 15,3447           71145                           MASK     OPTION2
002149: 15,3450           10000                           CCS      A
002150: 15,3451           13545                           TCF      BYLMATT                               #  OPTION 2 OR 3 BUT DONT HAVE ATTITUDE
002151: 15,3452           05567                           TC       ALARM                                 #  OPTION INCONSISTANT WITH FLAGS - ALARM 701
002152: 15,3453           00701                           OCT      701
002153: 15,3454           35006                           CAF      VB05N09                               #  DISPLAY ALARM FOR ACTION
002154: 15,3455           04616                           TC       BANKCALL
002155: 15,3456           20476                           CADR     GOFLASH
002156: 15,3457           16001                           TCF      GOTOPOOH                              #  VB34 - TERMINATE
002157: 15,3460           13430                           TCF      DSPOPTN                               #  V33 - PROCEED ********TEMPORARY
002158: 15,3461           13430                           TCF      DSPOPTN                               #  VB32 - RECYCLE TO OPTION DISPLAY V 05N06
002159:


002161:                                                                                                  #  TRANSFORM VEC1,2 FROM MOON FIXED TO REF AND JAM BACK IN VEC1,2
002162:
002163: 15,3462           40220        MFREF              STQ      SETPD
002164: 15,3463           02746                                    QMAJ
002165: 15,3464           00001                                    0
002166: 15,3465           77634                           RTB
002167: 15,3466           21573                                    LOADTIME
002168: 15,3467           27562                           STOVL    TSIGHT
002169: 15,3470           02723                                    VEC1
002170: 15,3471           41525                           PDDL     PUSH
002171: 15,3472           03562                                    TSIGHT
002172: 15,3473           77624                           CALL
002173: 15,3474           55716                                    RP-TO-R
002174: 15,3475           26723                           STOVL    VEC1
002175: 15,3476           02731                                    VEC2
002176: 15,3477           65201                           SETPD    PDDL
002177: 15,3500           00001                                    0
002178: 15,3501           03562                                    TSIGHT
002179: 15,3502           45006                           PUSH     CALL
002180: 15,3503           55716                                    RP-TO-R
002181: 15,3504           36731                           STCALL   VEC2
002182: 15,3505           02746                                    QMAJ
002183:


002185:                                                                                                  #  COMPUTE LM ATTITUDE IN MOON FIXED COORDINATES USING REFSMMAT AND
002186:                                                                                                  #  STORE IN YNBSAV AND ZNBSAV
002187:
002188: 15,3506           45020        REFMF              STQ      CALL
002189: 15,3507           02746                                    QMAJ
002190: 15,3510           47537                                    CDUTRIG                               #  GET SIN AND COS OF CDUS
002191: 15,3511           40234                           RTB      SETPD
002192: 15,3512           21573                                    LOADTIME
002193: 15,3513           00001                                    0
002194: 15,3514           37562                           STCALL   TSIGHT
002195: 15,3515           20030                                    CALCSMSC                              #  GET YNB IN SM
002196: 15,3516           61375                           VLOAD    VXM
002197: 15,3517           02673                                    YNB
002198: 15,3520           01734                                    REFSMMAT                              #  YNB TO REF
002199: 15,3521           65256                           UNIT     PDDL
002200: 15,3522           03562                                    TSIGHT
002201: 15,3523           45006                           PUSH     CALL
002202: 15,3524           51670                                    R-TO-RP
002203: 15,3525           26237                           STOVL    YNBSAV                                #  YNB TO MF
002204: 15,3526           02701                                    ZNB
002205: 15,3527           53505                           VXM      UNIT
002206: 15,3530           01734                                    REFSMMAT                              #  ZNB TO REF
002207: 15,3531           41525                           PDDL     PUSH
002208: 15,3532           03562                                    TSIGHT
002209: 15,3533           77624                           CALL
002210: 15,3534           51670                                    R-TO-RP                               #  ZNB TO MF
002211: 15,3535           02245                           STORE    ZNBSAV
002212: 15,3536           77614                           SETGO
002213: 15,3537           03036                                    ATTFLAG
002214: 15,3540           02746                                    QMAJ
002215:


002217:                                                                                                  #  BRANCH TO ALIGNMENT OPTION
002218:
002219: 15,3541           06037        GETLMATT           TC       INTPRET
002220: 15,3542           77624                           CALL
002221: 15,3543           33506                                    REFMF                                 #  GO TRANSFORM TO MF IN YNBSAV, ZNBSAV
002222: 15,3544           77776                           EXIT
002223:
002224: 15,3545           05504        BYLMATT            TC       UPFLAG                                #  SET INITIAL ALIGN FLAG
002225: 15,3546           00205                           ADRES    INITALGN
002226: 15,3547           34753                           CAF      BIT1
002227: 15,3550           71145                           MASK     OPTION2                               #  SEE IF OPTION 1 OR 3
002228: 15,3551           10000                           CCS      A
002229: 15,3552           12563                           TCF      GVDETER                               #  OPTION 1 OR 2, GET GRAVITY
002230:
002231: 15,3553           05353        ATTCHK             TC       PHASCHNG
002232: 15,3554           04024                           OCT      04024
002233:
002234: 15,3555           34753                           CAF      ATTFLBIT                              #  NOT 1 OR 3, CHECK ATTFLAG
002235: 15,3556           70102                           MASK     FLAGWRD6
002236: 15,3557           10000                           CCS      A
002237: 15,3560           13575                           TCF      P57OPT0                               #  GET ALIGNMENT VECS FOR OPTION 0
002238: 15,3561           05353        P57JUMP            TC       PHASCHNG
002239: 15,3562           04024                           OCT      04024
002240:
002241: 15,3563           05516                           TC       DOWNFLAG                              #  ATTFLG CLEAR - RESET INTALIGN FLAG
002242: 15,3564           00205                           ADRES    INITALGN
002243: 15,3565           36245                           CAF      THREE
002244: 15,3566           71145                           MASK     OPTION2                               #  BRANCH ON OPTION CODE
002245: 15,3567           50000                           INDEX    A
002246: 15,3570           13571                           TCF      +1
002247: 15,3571           13575                           TCF      P57OPT0                               #  OPTION IS 0
002248: 15,3572           13616                           TCF      P57OPT1                               #  OPTION IS 1
002249: 15,3573           13634                           TCF      P57OPT2                               #  OPTION IS 2
002250: 15,3574           13635                           TCF      P57OPT3                               #  OPTION IS 3
002251:


002253:                                                                                                  #  OPTION 0, GET TWO ATTITUDE VECS
002254:
002255: 15,3575           06037        P57OPT0            TC       INTPRET
002256: 15,3576           77775                           VLOAD
002257: 15,3577           02237                                    YNBSAV                                #  Y AND Z ATTITUDE WILL BE PUT IN REF
002258: 15,3600           26723                           STOVL    VEC1
002259: 15,3601           02245                                    ZNBSAV
002260: 15,3602           36731                           STCALL   VEC2
002261: 15,3603           47537                                    CDUTRIG
002262: 15,3604           77624                           CALL
002263: 15,3605           20030                                    CALCSMSC                              #  COMPUTE SC AXIS WRT PRESENT SM
002264: 15,3606           77775                           VLOAD
002265: 15,3607           02673                                    YNB
002266: 15,3610           26761        SAMETYP            STOVL    STARSAV1                              #  Y SC AXIS WRT PRESENT SM
002267: 15,3611           02701                                    ZNB
002268: 15,3612           36767                           STCALL   STARSAV2                              #  Z SC AXIS WRT PRESENT SM
002269: 15,3613           33462                                    MFREF                                 #  TRANSFORM VEC1,2 FROM MF TO REF
002270: 15,3614           77650                           GOTO
002271: 15,3615           33101                                    SURFLINE
002272:
002273:                                                                                                  #  OPTION 1, GET LANDING SITE AND Z-ATTITUDE VEC
002274:
002275: 15,3616           06037        P57OPT1            TC       INTPRET
002276: 15,3617           53575                           VLOAD    UNIT
002277: 15,3620           02023                                    RLS                                   #  LANDING SITE VEC
002278: 15,3621           26723                           STOVL    VEC1
002279: 15,3622           02245                                    ZNBSAV                                #  Z ATTITUDE VEC
002280: 15,3623           36731                           STCALL   VEC2
002281: 15,3624           47537                                    CDUTRIG
002282: 15,3625           77624                           CALL
002283: 15,3626           20030                                    CALCSMSC                              #  GET ZNB AXIS WRT PRES SM FOR STARSAV2
002284: 15,3627           45175                           VLOAD    CALL
002285: 15,3630           02231                                    GSAV                                  #  TRANS GSAV FROM NB TO SM FOR STARSAV1
002286: 15,3631           47661                                    CDU*NBSM
002287: 15,3632           77650                           GOTO
002288: 15,3633           33610                                    SAMETYP                               #  NOW DO SAME AS OPTION 0
002289:


002291:                                                                                                  #  OPTION 2, GET TWO STAR SIGHTINGS
002292:
002293: 15,3634           13045        P57OPT2            TCF      2STARS                                #  DO SIGHTING ON 2 STARS
002294:
002295:                                                                                                  #  OPTION 3, GET LANDING SITE VEC AND ONE STAR SIGHTING
002296:
002297: 15,3635           06037        P57OPT3            TC       INTPRET
002298: 15,3636           53575                           VLOAD    UNIT
002299: 15,3637           02023                                    RLS                                   #  LANDING SITE VEC
002300: 15,3640           02723                           STORE    VEC1
002301: 15,3641           26731                           STOVL    VEC2                                  #  DUMMY VEC2 FOR 2ND CATALOG STAR
002302: 15,3642           02231                                    GSAV                                  #  GRAVITY VEC NB
002303: 15,3643           77624                           CALL
002304: 15,3644           47661                                    CDU*NBSM                              #  TRANS GSAV FROM NB TO SM FOR STARSAV1
002305: 15,3645           36761                           STCALL   STARSAV1
002306: 15,3646           33462                                    MFREF                                 #  STARSAV2 IS STORED AS 2ND OBSERVED STAR
002307: 15,3647           77776                           EXIT
002308: 15,3650           13047                           TCF      1STAR                                 #  1STAR GET VEC2, STARSAV2, GOES TO SURFLINE
002309:
002310: 15,3651           01206        VB05N06            VN       506
002311:


002313:                                                                                                  #  CHECK IMODES30 TO VARIFY IMU IS ON
002314:
002315: 15,3652           41302        IMUCHK             CS       IMODES30
002316: 15,3653           74743                           MASK     BIT9
002317: 15,3654           10000                           CCS      A                                     #  IS IMU ON
002318: 15,3655           13661                           TCF      +4                                    #  YES
002319:
002320: 15,3656           05567                           TC       ALARM                                 #  NO, SEND ALARM AND EXIT
002321: 15,3657           00210                           OCT      210
002322: 15,3660           06001                           TC       GOTOPOOH
002323:
002324: 15,3661           05504                           TC       UPFLAG
002325: 15,3662           00007                           ADRES    IMUSE                                 #  SET IMUSE FLAG
002326:
002327: 15,3663           04631                           TC       SWRETURN
002328:
002329: 04,3013                                           BANK     04
002330: 04,2000                                           SETLOC   AOTMARK2
002331: 04,2000                                           BANK
002332: 04,3013                                           COUNT*   $$/P57
002333:
002334: 04,3013           77220        LSORIENT           STQ      VLOAD
002335: 04,3014           02746                                    QMAJ
002336: 04,3015           01555                                    RRECTCSM
002337: 04,3016           47235                           VXV      VXV
002338: 04,3017           01563                                    VRECTCSM
002339: 04,3020           03607                                    XSMD
002340: 04,3021           77656                           UNIT
002341: 04,3022           03623                           STORE    ZSMD
002342: 04,3023           53435                           VXV      UNIT
002343: 04,3024           03607                                    XSMD
002344: 04,3025           37615                           STCALL   YSMD
002345: 04,3026           02746                                    QMAJ
002346:

End of include-file P51-P53.agc.  Parent file is MAIN.agc


