
Source Code


000002:                                                                                                  #  Copyright:    Public domain.
000003:                                                                                                  #  Filename:     P76.agc
000004:                                                                                                  #  Purpose:      Part of the source code for Luminary 1A build 099.
000005:                                                                                                  #                It is part of the source code for the Lunar Module's (LM)
000006:                                                                                                  #                Apollo Guidance Computer (AGC), for Apollo 11.
000007:                                                                                                  #  Assembler:    yaYUL
000008:                                                                                                  #  Contact:      Ron Burkey <info@sandroid.org>.
000009:                                                                                                  #  Website:      www.ibiblio.org/apollo.
000010:                                                                                                  #  Pages:        709-711
000011:                                                                                                  #  Mod history:  2009-05-19 RSB  Adapted from the corresponding
000012:                                                                                                  #                                Luminary131 file, using page
000013:                                                                                                  #                                images from Luminary 1A.
000014:
000015:                                                                                                  #  This source code has been transcribed or otherwise adapted from
000016:                                                                                                  #  digitized images of a hardcopy from the MIT Museum.  The digitization
000017:                                                                                                  #  was performed by Paul Fjeld, and arranged for by Deborah Douglas of
000018:                                                                                                  #  the Museum.  Many thanks to both.  The images (with suitable reduction
000019:                                                                                                  #  in storage size and consequent reduction in image quality as well) are
000020:                                                                                                  #  available online at www.ibiblio.org/apollo.  If for some reason you
000021:                                                                                                  #  find that the images are illegible, contact me at info@sandroid.org
000022:                                                                                                  #  about getting access to the (much) higher-quality images which Paul
000023:                                                                                                  #  actually created.
000024:
000025:                                                                                                  #  Notations on the hardcopy document read, in part:
000026:
000027:                                                                                                  #        Assemble revision 001 of AGC program LMY99 by NASA 2021112-61
000028:                                                                                                  #        16:27 JULY 14, 1969
000029:
000030:                                                                                                  #  Page 709
000031:                                                                                                  #  1)    PROGRAM NAME -- TARGET DELTA V PROGRAM (P76).
000032:                                                                                                  #  2)    FUNCTIONAL DESCRIPTION -- UPON ENTRY BY ASTRONAUT ACTION, P76 FLASHES DSKY REQUESTS TO THE ASTRONAUT
000033:                                                                                                  #        TO PROVIDE VIA DSKY (1) THE DELTA V TO BE APPLIED TO THE OTHER VEHICLE STATE VECTOR AND (2) THE
000034:                                                                                                  #        TIME (TIG) AT WHICH THE OTHER VEHICLE VELOCITY WAS CHANGED BY EXECUTION OF A THRUSTING MANEUVER. THE
000035:                                                                                                  #        OTHER VEHICLE STATE VECTOR IS INTEGRATED TO TIG AND UPDATED BY THE ADDITION OF DELTA V (DELTA V HAVING
000036:                                                                                                  #        BEEN TRANSFORMED FROM LV TO REF COSYS).  USING INTEGRVS, THE PROGRAM THEN INTEGRATES THE OTHER
000037:                                                                                                  #        VEHICLE STATE VECTOR TO THE STATE VECTOR OF THIS VEHICLE, THUS INSURING THAT THE W-MATRIX AND BOTH VEHICLE
000038:                                                                                                  #        STATES CORRESPOND TO THE SAME TIME.
000039:                                                                                                  #  3)    ERASABLE INIITIALIZATION REQUIRED -- NONE.
000040:                                                                                                  #  4)    CALLING SEQUENCES AND EXIT MODES -- CALLED BY ASTRONAUT REQUEST THRU DSKY V 37 E 76E.
000041:                                                                                                  #        EXITS BY TCF ENDOFJOB.
000042:                                                                                                  #  5)    OUTPUT -- OTHER VEHICLE STATE VECTOR INTEGRATED TO TIG AND INCREMENTED BY DELTA V IN REF COSYS.
000043:                                                                                                  #        THE PUSHLIST CONTAINS THE MATRIX BY WHICH THE INPUT DELTA V MUST BE POST-MULTIPLIED TO CONVERT FROM LV
000044:                                                                                                  #        TO REF COSYS.
000045:                                                                                                  #  6)    DEBRIS -- OTHER VEHICLE STATE VECTOR.
000046:                                                                                                  #  7)    SUBROUTINES CALLED -- BANKCALL, GOXDSPF, CSMPREC (OR LEMPREC), ATOPCSM (OR ATOPLEM), INTSTALL, INTWAKE, PHASCHNG
000047:                                                                                                  #        INTPRET, INTEGRVS, AND MINIRECT.
000048:                                                                                                  #  8)    FLAG USE -- MOONFLAG, CMOONFLG, INTYPFLG, RASFLAG, AND MARKCTR.
000049:
000050: 30,2061                                           BANK     30
000051: 13,2000                                           SETLOC   P76LOC
000052: 13,2000                                           BANK
000053:
000054: 13,2207                                           COUNT*   $$/P76
000055:
000056: 13,2207  E7,1441                                  EBANK=   TIG
000057:
000058: 13,2207           05504        P76                TC       UPFLAG
000059: 13,2210           00031                           ADRES    TRACKFLG
000060:
000061: 13,2211           06037                           TC       INTPRET
000062: 13,2212           77775                           VLOAD
000063: 13,2213           03434                                    DELVLVC
000064: 13,2214           02223                           STORE    DELVOV
000065: 13,2215           77776                           EXIT
000066:
000067: 13,2216           32336                           CAF      V06N84                                #  FLASH LAST DELTA V,
000068: 13,2217           04616                           TC       BANKCALL                              #  AND WAIT FOR KEYBOARD ACTION.
000069: 13,2220           20476                           CADR     GOFLASH
000070: 13,2221           12333                           TCF      ENDP76
000071: 13,2222           02224                           TC       +2                                    #  PROCEED
000072: 13,2223           02216                           TC       -5                                    #  STORE DATA AND REPEAT FLASHING
000073: 13,2224           32337                           CAF      V06N84     +1                         #  FLASH VERB 06 NOUN 33, DISPLAY LAST TIG,
000074: 13,2225           04616                           TC       BANKCALL                              #  AND WAIT FOR KEYBOARD ACTION.
000075: 13,2226           20476                           CADR     GOFLASH
000076: 13,2227           12333                           TCF      ENDP76
000077: 13,2230           02232                           TC       +2
000078: 13,2231           02224                           TC       -5
000079: 13,2232           06037                           TC       INTPRET                               #  RETURN TO INTERPRETIVE CODE
000080:                                                                                                  #  Page 710
000081: 13,2233           77745                           DLOAD                                          #  SET D(MPAC)=TIG IN CSEC B28
000082: 13,2234           03442                                    TIG
000083: 13,2235           34041                           STCALL   TDEC1                                 #  SET TDEC1=TIG FOR ORBITAL INTEGRATION
000084: 13,2236           27043                                    OTHPREC
000085: 13,2237           53575        COMPMAT            VLOAD    UNIT
000086: 13,2240           00001                                    RATT
000087: 13,2241           77676                           VCOMP                                          #  U(-R)
000088: 13,2242           00031                           STORE    24D                                   #  U(-R) TO 24D
000089: 13,2243           53435                           VXV      UNIT                                  #  U(-R) X V = U(V X R)
000090: 13,2244           00007                                    VATT
000091: 13,2245           00023                           STORE    18D
000092: 13,2246           53435                           VXV      UNIT                                  #  U(V X R) X U(-R) = U((R X V) X R)
000093: 13,2247           00031                                    24D
000094: 13,2250           24015                           STOVL    12D
000095: 13,2251           02223                                    DELVOV
000096: 13,2252           76505                           VXM      VSL1                                  #  V(MPAC)=DELTA V IN REFCOSYS
000097: 13,2253           00015                                    12D
000098: 13,2254           77655                           VAD
000099: 13,2255           00007                                    VATT
000100: 13,2256           00007                           STORE    6                                     #  V(PD6)=VATT + DELTA V
000101: 13,2257           77624                           CALL                                           #  PRESENT WOULD-BE USER OF ORBITAL
000102: 13,2260           27414                                    INTSTALL                              #  INTEG FROM INTERFERING WITH UPDATING
000103: 13,2261           77624                           CALL
000104: 13,2262           26340                                    P76SUB1
000105: 13,2263           53775                           VLOAD    VSR*
000106: 13,2264           00007                                    6
000107: 13,2265           57176                                    0,2
000108: 13,2266           25543                           STOVL    VCV
000109: 13,2267           00001                                    RATT
000110: 13,2270           77657                           VSR*
000111: 13,2271           57176                                    0,2
000112: 13,2272           15535                           STODL    RCV
000113: 13,2273           03442                                    TIG
000114: 13,2274           01517                           STORE    TET
000115: 13,2275           71214                           CLEAR    DLOAD
000116: 13,2276           01673                                    INTYPFLG
000117: 13,2277           01643                                    TETTHIS
000118: 13,2300           34041        INTOTHIS           STCALL   TDEC1
000119: 13,2301           27107                                    INTEGRVS
000120: 13,2302           77624                           CALL
000121: 13,2303           27414                                    INTSTALL
000122: 13,2304           77775                           VLOAD
000123: 13,2305           00017                                    RATT1
000124: 13,2306           01503                           STORE    RRECT
000125: 13,2307           15535                           STODL    RCV
000126: 13,2310           00015                                    TAT
000127: 13,2311           25517                           STOVL    TET
000128: 13,2312           00025                                    VATT1
000129: 13,2313           77624                           CALL
000130: 13,2314           23455                                    MINIRECT
000131:                                                                                                  #  Page 711
000132: 13,2315           77776                           EXIT
000133: 13,2316           05353                           TC       PHASCHNG
000134: 13,2317           04024                           OCT      04024
000135:
000136: 13,2320           05504                           TC       UPFLAG
000137: 13,2321           00236                           ADRES    REINTFLG
000138:
000139: 13,2322           06037                           TC       INTPRET
000140: 13,2323           77624                           CALL
000141: 13,2324           26661                                    ATOPOTH
000142: 13,2325           77531                           SSP      EXIT
000143: 13,2326           00053                                    QPRET
000144: 13,2327           26332                                    OUT
000145: 13,2330           04616                           TC       BANKCALL                              #  PERMIT USE OF ORBITAL INTEGRATION
000146: 13,2331           27445                           CADR     INTWAKE1
000147: 13,2332           77776        OUT                EXIT
000148: 13,2333           34755        ENDP76             CAF      ZERO
000149: 13,2334           55462                           TS       MARKCTR                               #  CLEAR RR TRACKING MARK COUNTER
000150: 13,2335           16001                           TCF      GOTOP00H
000151:
000152: 13,2336           01524        V06N84             NV       0684
000153: 13,2337           01441                           NV       0633
000154: 13,2340           43174        P76SUB1            AXT,2    SET
000155: 13,2341           00002                                    2
000156: 13,2342           00063                                    MOONFLAG                              #  SET MEANS MOON IS SPHERE OF INFLUENCE.
000157: 13,2343           77014                           BON      AXT,2
000158: 13,2344           04303                                    CMOONFLG                              #  SET MEANS PERM CM STATE IN LUNAR SPHERE.
000159: 13,2345           00052                                    QPRET
000160: 13,2346           00000                                    0
000161: 13,2347           43414                           CLEAR    RVQ
000162: 13,2350           00263                                    MOONFLAG
000163:
000164:
000165:

End of include-file P76.agc.  Parent file is MAIN.agc


