
Source Code
000001:                                                                                                 #  Copyright:     Public domain.
000002:                                                                                                 #  Filename:      PHASE_TABLE_MAINTENANCE.agc
000003:                                                                                                 #  Purpose:       Part of the source code for Luminary 1A build 099.
000004:                                                                                                 #                 It is part of the source code for the Lunar Module's (LM)
000005:                                                                                                 #                 Apollo Guidance Computer (AGC), for Apollo 11.
000006:                                                                                                 #  Assembler:     yaYUL
000007:                                                                                                 #  Contact:       Onno Hommes <ohommes@cmu.edu>.
000008:                                                                                                 #  Website:       www.ibiblio.org/apollo.
000009:                                                                                                 #  Pages: 1294-1302
000010:                                                                                                 #  Mod history:   2009-05-26 OH   Transcribed from page images.
000011:                                                                                                 #                 2009-06-05 RSB  A few lines at the bottom of page image
000012:                                                                                                 #                                 1294 were truncated.  I've fixed the page
000013:                                                                                                 #                                 image and added those missing lines here.
000014:
000015:                                                                                                 #  This source code has been transcribed or otherwise adapted from
000016:                                                                                                 #  digitized images of a hardcopy from the MIT Museum.  The digitization
000017:                                                                                                 #  was performed by Paul Fjeld, and arranged for by Deborah Douglas of
000018:                                                                                                 #  the Museum.  Many thanks to both.  The images (with suitable reduction
000019:                                                                                                 #  in storage size and consequent reduction in image quality as well) are
000020:                                                                                                 #  available online at www.ibiblio.org/apollo.  If for some reason you
000021:                                                                                                 #  find that the images are illegible, contact me at info@sandroid.org
000022:                                                                                                 #  about getting access to the (much) higher-quality images which Paul
000023:                                                                                                 #  actually created.
000024:
000025:                                                                                                 #  Notations on the hardcopy document read, in part:
000026:
000027:                                                                                                 #         Assemble revision 001 of AGC program LMY99 by NASA 2021112-61
000028:                                                                                                 #         16:27 JULY 14, 1969
000029:
000030:                                                                                                 #  Page 1294
000031:                                                                                                 #  SUBROUTINE TO UPDATE THE PROGRAM NUMBER DISPLAY ON THE DSKY.
000032:
000033: 43,3724                                          COUNT*   $$/PHASE
000034:    5311                                          BLOCK    02
000035:    4000                                          SETLOC   FFTAG1
000036:    4000                                          BANK
000037:
000038:    5311           50002        NEWMODEX          INDEX    Q                                     #  UPDATE MODREG.  ENTRY FOR MODE IN FIXED.
000039:                                                                                                 #  Was CAF --- RSB 2004. Still CAF in LMY99 OH 2009
000040:    5312           30000                          CA       0
000041:    5313           24002                          INCR     Q
000042:
000043:    5314           55011        NEWMODEA          TS       MODREG                                #  ENTRY FOR MODE IN A.
000044:    5315           35320        MMDSPLAY          CAF      +3                                    #  DISPLAY MAJOR MODE.
000045:    5316           22006        PREBJUMP          LXCH     BBANK                                 #  PUTS BBANK IN L
000046:    5317           14640                          TCF      BANKJUMP                              #  PUTS Q INTO A
000047:    5320           20213                          CADR     SETUPDSP
000048:
000049:                                                                                                 #  RETURN TO CALLER +3 IF MODE = THAT AT CALLER +1.  OTHERWISE RETURN TO CALLER +2.
000050:
000051:    5321           50002        CHECKMM           INDEX    Q
000052:    5322           40000                          CS       0
000053:    5323           61011                          AD       MODREG
000054:    5324           00006                          EXTEND
000055:    5325           16741                          BZF      Q+2
000056:    5326           16737                          TCF      Q+1                                   #  NO MATCH
000057:
000058:    5327     6742               TCQ               =        Q+2        +1
000059:
000060: 14,3774                                          BANK     14
000061: 10,2000                                          SETLOC   PHASETAB
000062: 10,2000                                          BANK
000063:
000064: 10,2213                                          COUNT*   $$/PHASE
000065: 10,2213           00004        SETUPDSP          INHINT
000066: 10,2214           52071                          DXCH     RUPTREG1                              #  SAVE CALLER'S RETURN 2CADR
000067: 10,2215           34355                          CAF      PRIO30                                #         EITHER A TASK OR JOB CAN COME TO
000068: 10,2216           05072                          TC       NOVAC                                 #         NEWMODE X
000069: 10,2217     1011                                 EBANK=   MODREG
000070: 10,2217           03534 60102                    2CADR    DSPMMJOB
000071:
000072: 10,2221           52071                          DXCH     RUPTREG1
000073: 10,2222           00003                          RELINT
000074: 10,2223           52006                          DXCH     Z                                     #  RETURN
000075:
000076: 10,2224  40,3534               DSPMMJOB          EQUALS   DSPMMJB
000077:
000078:    5327                                          BLOCK    02
000079:    4000                                          SETLOC   FFTAG1
000080:    4000                                          BANK
000081:
000082:                                                                                                 #  Page 1295
000083:                                                                                                 #  PHASCHNG IS THE MAIN WAY OF MAKING PHASE CHANGES FOR RESTARTS.  THERE ARE THREE FORMS OF PHASCHNG, KNOWN AS TYPE
000084:                                                                                                 #  A, TYPE B, AND TYPE C.  THEY ARE ALL CALLED AS FOLLOWS, WHERE OCT XXXXX CONTAINS THE PHASE INFORMATION,
000085:                                                                                                 #                 TC      PHASCHNG
000086:                                                                                                 #                 OCT     XXXXX
000087:                                                                                                 #  TYPE A IS CONCERNED WITH FIXED PHASE CHANGES, THAT IS, PHASE INFORMATION THAT IS STORED PERMANENTLY.  THESE
000088:                                                                                                 #  OPTIONS ARE, WHERE G STANDS FOR A GROUP AND .X FOR THE PHASE,
000089:                                                                                                 #         G.0             INACTIVE, WILL NOT PERMIT A GROUP G RESTART
000090:                                                                                                 #         G.1             WILL CAUSE THE LAST DISPLAY TO BE REACTIVATED, USED MAINLY IN MANNED FLIGHTS
000091:                                                                                                 #         G.EVEN          A DOUBLE TABLE RESTART, CAN CAUSE ANY COMBINATION OF TWO JOBS, TASKS, AND/OR
000092:                                                                                                 #                         LONGCALL TO BE RESTARTED.
000093:                                                                                                 #         G.ODD NOT .1    A SINGLE TABLE RESTART, CAN CAUSE EITHER A JOB, TASK, OR LONGCALL RESTART.
000094:
000095:                                                                                                 #  THIS INFORMATION IS PUT INTO THE OCTAL WORD AFTER TC PHASCHNG AS FOLLOWS
000096:                                                                                                 #         TL0 00P PPP PPP GGG
000097:                                                                                                 #  WHERE EACH LETTER OR NUMBER STANTS FOR A BIT.  THE G'S STAND FOR THE GROUP, OCTAL 1-7, THE P'S FOR THE PHASE,
000098:                                                                                                 #  OCTAL 0 - 127.  0'S MUST BE 0.  IF ONE WISHES TO HAVE THE TBASE OF GROUP G TO BE SET AT THIS TIME,
000099:                                                                                                 #  T IS SET TO 1, OTHERWISE IT IS SET TO 0.  SIMILARLY IF ONE WISHES TO SET LONGBASE, THEN L IS SET TO 1, OTHERWISE
000100:                                                                                                 #  IT IS SET TO 0.  SOME EXAMPLES,
000101:                                                                                                 #                 TC      PHASCHNG        # THIS WILL CAUSE GROUP 3 TO BE SET TO 0,
000102:                                                                                                 #                 OCT     00003           # MAKING GROUP 3 INACTIVE
000103:
000104:                                                                                                 #                 TC      PHASCHNG        # IF A RESTART OCCURS THIS WOULD CAUSE
000105:                                                                                                 #                 OCT     00012           # GROUP 2 TO RESTART THE LAST DISPLAY
000106:
000107:                                                                                                 #                 TC      PHASCHNG        # THIS SETS THE TBASE OF GROUP 4 AND IN
000108:                                                                                                 #                 OCT     40064           # CASE OF A RESTART WOULD START UP THE TWO
000109:                                                                                                 #                                         # THINGS LOCATED IN THE DOUBLE 4.6 RESTART
000110:                                                                                                 #                                         # LOCATION.
000111:
000112:                                                                                                 #                 TC      PHASCHNG        # THIS SETS LONGBASE AND UPON A RESTART
000113:                                                                                                 #                 OCT     20135           # CAUSES 5.13 TO BE RESTARTED (SINCE
000114:                                                                                                 #                                         # LONGBASE WAS SET THIS SINGLE ENTRY
000115:                                                                                                 #                                         # SHOULD BE A LONGCALL)
000116:
000117:                                                                                                 #                 TC      PHASCHNG        # SINCE BOTH TBASE4 AND LONGBASE ARE SET,
000118:                                                                                                 #                 OCT     60124           # 4.12 SHOULD CONTAIN BOTH A TASK AND A
000119:                                                                                                 #                                         # LONGCALL TO BE RESTARTED
000120:
000121:                                                                                                 #  TYPE C PHASCHNG CONTAINS THE VARIABLE TYPE OF PHASCHNG INFORMATION.  INSTEAD OF THE INFORMATION BEING IN A
000122:                                                                                                 #  PERMANENT FORM, ONE STORES THE DESIRED RESTART INFORMATION IN A VARIABLE LOCATION.  THE BITS ARE AS FOLLOWS,
000123:                                                                                                 #         TL0 1AD XXX CJW GGG
000124:                                                                                                 #  WHERE EACH LETTER OR NUMBER STANDS FOR A BIT.  THE G'S STAND FOR THE GROUP, OCTAL 1 - 7.  IF THE RESTART IS TO
000125:                                                                                                 #  BE BY WAITLIST, W IS SET TO 1, IF IT IS A JOB, J IS SET TO 1, IF IT IS A LONGCALL, C IS SET TO 1.  ONLY ONE OF
000126:                                                                                                 #  THESE THREE BITS MAY BE SET.  X'S ARE IGNORED, 1 MUST BE 1, AND 0 MUST BE 0.  AGAIN T STANDS FOR THE TBASE,
000127:                                                                                                 #  Page 1296
000128:                                                                                                 #  AND L FOR LONGBASE.  THE BITS A AND D ARE CONCERNED WITH THE VARIABLE INFORMATION.  IF D IS SET TO 1, A PRIORITY
000129:                                                                                                 #  OR DELTA TIME WILL BE READ FROM THE NEXT LOCATION AFTER THE OCTAL INFORMATION., IF THIS IS TO BE INDIRECT, THAT
000130:                                                                                                 #  IS, THE NAME OF A LOCATION CONTAINING THE INFORMATION (DELTA TIME ONLY), THEN THIS IS GIVEN AS THE -GENADR OF
000131:                                                                                                 #  THAT LOCATION WHICH CONTAINS THE DELTA TIME.  IF THE OLD PRIORITY OR DELTA TIME IS TO BE USED, THAT WHICH IS
000132:                                                                                                 #  ALREADY IN THE VARIABLE STORAGE, THEN D IS SET TO 0.  NEXT THE A BIT IS USED.  IF IT IS SET TO 0, THE ADDRESS
000133:                                                                                                 #  THAT WOULD BE RESTARTED DURING A RESTART IS THE NEXT LOCATION AFTER THE PHASE INFORMATION, THAT IS, EITHER
000134:                                                                                                 #  (TC PHASCHNG) +2 OR +3, DEPENDING ON WHETHER D HAD BEEN SET OR NOT.  IF A IS SET TO 1, THEN THE ADDRESS THAT
000135:                                                                                                 #  WOULD BE RESTARTED IS THE 2CADR THAT IS READ FROM THE NEXT TWO LOCATION.  EXAMPLES,
000136:                                                                                                 #         AD      TC      PHASCHNG        # THIS WOULD CAUSE LOCATION AD +3 TO BE
000137:                                                                                                 #         AD+1    OCT     05023           # RESTARTED BY GROUP THREE WITH A PRIORITY
000138:                                                                                                 #         AD+2    OCT     23000           # OF 23.  NOTE UPON RETURNING IT WOULD
000139:                                                                                                 #         AD+3                            # ALSO GO TO AD+3
000140:
000141:                                                                                                 #         AD      TC      PHASCHNG        # GROUP 1 WOULD CAUSE CALLCALL TO BE
000142:                                                                                                 #         AD+1    OCT     27441           # BE STARTED AS A LONGCALL FROM THE TIME
000143:                                                                                                 #         AD+2    -GENADR DELTIME         # STORED IN LONGBASE (LONGBASE WAS SET) BY
000144:                                                                                                 #         AD+3    2CADR   CALLCALL        # A DELTA TIME STORED IN DELTIME.  THE
000145:                                                                                                 #         AD+4                            # BBCON OF THE 2CADR SHOULD CONTAIN THE E
000146:                                                                                                 #         AD+5                            # BANK OF DELTIME.  PHASCHNG RETURNS TO
000147:                                                                                                 #                                         # LOCATION AD+5
000148:
000149:                                                                                                 #  NOTE THAT IF A VARIABLE PRIORITY IS GIVEN FOR A JOB, THE JOB WILL BE RESTARTED AS A NOVAC IF THE PRIORITY IS
000150:                                                                                                 #  NEGATIVE, AS A FINDVAC IF TEH PRIORITY IS POSITIVE.
000151:
000152:                                                                                                 #  TYPE B PHASCHNG IS A COMBINATION OF VARIABLE AND FIXED PHASE CHANGES.  IT WILL START UP A JOB AS INDICATED
000153:                                                                                                 #  BELOW AND ALSO START UP ONE FIXED RESTART, THAT IS EITHER AN G.1 OR A G.ODD OR THE FIRST ENTRY OF G.EVEN
000154:                                                                                                 #  DOUBLE ENTRY.  THE BIT INFORMATION IS AS FOLLOW,
000155:                                                                                                 #         TL1 DAP PPP PPP GGG
000156:                                                                                                 #  WHERE EACH LETTER OR NUMBER STANDS FOR A BIT.  THE G'S STAND FOR THE GROUP, OCTAL 1 - 7, THE P'S FOR THE FIXED
000157:                                                                                                 #  PHASE INFORMATION, OCTAL 0 - 127.  1 MUST BE 1.  AND AGAIN T STANDS FOR THE TBASE AND L FOR LONGBASE.  D THIS
000158:                                                                                                 #  TIME STANDS ONLY FOR PRIORITY SINCE THIS WILL BE CONSIDERED A JOB, AND IT MUST BE GIVEN DIRECTLY IF GIVEN.
000159:                                                                                                 #  AGAIN A STANDS FOR THE ADDRESS OF THE LOCATION TO BE RESTARTED, 1 IF THE 2CADR IS GIVEN, OR 0 IF IT IS TO BE
000160:                                                                                                 #  THE NEXT LOCATION.  (THE RETURN LOCATION OF PHASCHNG) EXAMPLES,
000161:                                                                                                 #         AD      TC      PHASCHNG        # TBASE IS SET AND A RESTART CAUSE GROUP 3
000162:                                                                                                 #         AD+1    OCT     56043           # TO START THE JOB AJOBAJOB WITH PRIORITY
000163:                                                                                                 #         AD+2    OCT     31000           # 31 AND THE FIRST ENTRY OF 3.4SPOT (WE CAN
000164:                                                                                                 #         AD+3    2CADR   AJOBAJOB        # ASSUME IT IS A TASK SINCE WE SET TBASE3)
000165:                                                                                                 #         AD+4                            # UPON RETURN FROM PHASCHNG CONTROL WOULD
000166:                                                                                                 #         AD+5                            # GO TO AD+5
000167:
000168:                                                                                                 #         AD      TC      PHASCHNG        # UPON A RESTART THE LAST DISPLAY WOULD BE
000169:                                                                                                 #         AD+1    OCT     10015           # RESTARTED AND A JOB WITH THE PREVIOUSLY
000170:                                                                                                 #         AD+2                            # STORED PRIORITY WOULD BE BEGUN AT AD+2
000171:                                                                                                 #                                         # BY MEANS OF GROUP 5
000172:                                                                                                 #  Page 1297
000173:                                                                                                 #  THE NOVAC-FINDVAC CHOICE FOR JOBS HOLDS HERE ALSO -- NEGATIVE PRIORITY CAUSES A NOVAC CALL, POSITIVE A FINDVAC.
000174:
000175:                                                                                                 #  SUMMARY OF BITS:
000176:                                                                                                 #         TYPE A          TL0 00P PPP PPP GGG
000177:                                                                                                 #         TYPE B          TL1 DAP PPP PPP GGG
000178:                                                                                                 #         TYPE C          TL0 1AD XXX CJW GGG
000179:
000180:                                                                                                 #  Page 1298
000181:                                                                                                 #  2PHSCHNG IS USED WHEN ONE WISHES TO START UP A GROUP OR CHANGE A GROUP WHILE UNDER THE CONTROL OF A DIFFERENT
000182:                                                                                                 #  GROUP.  FOR EXAMPLE, CHANGE THE PHASE OF GROUP 3 WHILE THE PORTION OF THE PROGRAM IS UNDER GROUP 5.  ALL 2PHSCHNG
000183:                                                                                                 #  CALLS ARE MADE IN THE FOLLOWING MANNER,
000184:                                                                                                 #                 TC      2PHSCHNG
000185:                                                                                                 #                 OCT     XXXXX
000186:                                                                                                 #                 OCT     YYYYY
000187:                                                                                                 #  WHERE OCT XXXXX MUST BE OF TYPE A AND OCT YYYYY MAY BE OF EITHER TYPE A OR TYPE B OR TYPE C.  THERE IS ONE
000188:                                                                                                 #  DIFFERENCE --- NOTE: IF LONGBASE IS TO BE SET THIS INFORMATION IS GIVEN IN THE OCT YYYYY INFORMATION, IT WILL
000189:                                                                                                 #  BE DISREGARDED IF GIVEN WITH THE OCT XXXXX INFORMATION.  A COUPLE OF EXAMPLES MAY HELP,
000190:                                                                                                 #         AD      TC      2PHACHNG        # SET TBASE3 AND IF A RESTART OCCURS START
000191:                                                                                                 #         AD+1    OCT     40083           # THE TWO ENTRIES IN 3.8 TABLE LOCATION
000192:                                                                                                 #         AD+2    OCT     05025           # THIS IS OF TYPE C, SET THE JOB TO BE
000193:                                                                                                 #         AD+3    OCT     18000           # TO BE LOCATION AD+4, WITH A PRIORITY 18,
000194:                                                                                                 #         AD+4                            # FOR GROUP 5 PHASE INFORMATION.
000195:
000196:    5327  40,2000                                 SBANK=   PINSUPER                              #  RSB 2004. OH 2009 Not in LMY99
000197:
000198:    5327                                          COUNT*   $$/PHASE
000199:    5327           00004        2PHSCHNG          INHINT                                         #  THE ENTRY FOR A DOUBLE PHASE CHANGE
000200:    5330           50002                          NDX      Q
000201:    5331           30000                          CA       0
000202:    5332           24002                          INCR     Q
000203:    5333           54072                          TS       TEMPP2
000204:
000205:    5334           74757                          MASK     OCT7
000206:    5335           60000                          DOUBLE
000207:    5336           54071                          TS       TEMPG2
000208:
000209:    5337           30072                          CA       TEMPP2
000210:    5340           75030                          MASK     OCT17770                              #  NEED ONLY 1770, BUT WHY GET A NEW CONST.
000211:    5341           00006                          EXTEND
000212:    5342           74740                          MP       BIT12
000213:    5343           56072                          XCH      TEMPP2
000214:
000215:    5344           74735                          MASK     BIT15
000216:    5345           54066                          TS       TEMPSW2                               #  INDICATES WHETHER TO SET TBASE OR NOT
000217:
000218:    5346           50002                          INDEX    Q
000219:    5347           30000                          CA       0
000220:    5350           24002                          INCR     Q
000221:    5351           54065                          TS       TEMPSW
000222:
000223:    5352           15363                          TCF      PHASJUMP
000224:
000225:    5353           00004        PHASCHNG          INHINT                                         #  NORMAL PHASCHNG ENTRY POINT.
000226:    5354           50002                          INDEX    Q
000227:    5355           30000                          CA       0
000228:    5356           24002                          INCR     Q
000229:    5357           00004        PHSCHNGA          INHINT                                         #  FIRST OCTAL PARAMETER IN A.
000230:                                                                                                 #  Page 1299
000231:    5360           54065                          TS       TEMPSW
000232:    5361           34753                          CA       ONE
000233:    5362           54066                          TS       TEMPSW2
000234:    5363           00006        PHASJUMP          EXTEND
000235:    5364           35367                          DCA      ADRPCHN2                              #  OFF TO SWITCHED BANK
000236:    5365           52006                          DTCB
000237:
000238:    5366  E3,1400                                 EBANK=   LST1
000239:    5366           02224 20103  ADRPCHN2          2CADR    PHSCHNG2
000240:
000241:    5370           22073        ONEORTWO          LXCH     TEMPBBCN
000242:    5371           22006                          LXCH     BBANK
000243:    5372           22073                          LXCH     TEMPBBCN
000244:
000245:    5373           75024                          MASK     OCT14000                              #  SEE WHAT KIND OF PHASE CHANGE IT IS
000246:    5374           10000                          CCS      A
000247:    5375           17750                          TCF      CHECKB                                #  IT IS OF TYPE `B'.
000248:
000249:    5376           30062                          CA       TEMPP
000250:    5377           74745                          MASK     BIT7
000251:    5400           10000                          CCS      A                                     #  SHALL WE USE THE OLD PRIORITY
000252:    5401           15423                          TCF      GETPRIO                               #  NO GET A NEW PRIORITY (OR DELTA T)
000253:
000254:    5402           50061        OLDPRIO           NDX      TEMPG                                 #  USE THE OLD PRIORITY (OR DELTA T)
000255:    5403           31052                          CA       PHSPRDT1   -2
000256:    5404           54070                          TS       TEMPPR
000257:
000258:    5405           30062        CON1              CA       TEMPP                                 #  SEE IF A 2CADR IS GIVEN
000259:    5406           74744                          MASK     BIT8
000260:    5407           10000                          CCS      A
000261:    5410           15427                          TCF      GETNEWNM
000262:
000263:    5411           30002                          CA       Q
000264:    5412           54063                          TS       TEMPNM
000265:    5413           30006                          CA       BB
000266:    5414           00006                          EXTEND                                         #  PICK UP USER'S SUPERBANK
000267:    5415           04007                          ROR      SUPERBNK
000268:    5416           54064                          TS       TEMPBB
000269:
000270:    5417           35422        TOCON2            CA       CON2ADR                               #  BACK TO SWITCHED BANK
000271:    5420           22073                          LXCH     TEMPBBCN
000272:    5421           52006                          DTCB
000273:
000274:    5422           02312        CON2ADR           GENADR   CON2
000275:
000276:    5423           50002        GETPRIO           NDX      Q                                     #  DON'T CARE IF DIRECT OR INDIRECT
000277:    5424           30000                          CA       0                                     #  LEAVE THAT DECISION TO RESTARTS
000278:    5425           24002                          INCR     Q                                     #  OBTAIN RETURN ADDRESS
000279:                                                                                                 #  Page 1300
000280:    5426           15404                          TCF      CON1       -1
000281:
000282:    5427           00006        GETNEWNM          EXTEND
000283:    5430           50002                          INDEX    Q
000284:    5431           30001                          DCA      0
000285:    5432           52064                          DXCH     TEMPNM
000286:    5433           34752                          CA       TWO
000287:    5434           26002                          ADS      Q                                     #  OBTAIN RETURN ADDRESS
000288:
000289:    5435           15417                          TCF      TOCON2
000290:
000291:    5436     5024               OCT14000          EQUALS   PRIO14
000292:    5436     0061               TEMPG             EQUALS   ITEMP1
000293:    5436     0062               TEMPP             EQUALS   ITEMP2
000294:    5436     0063               TEMPNM            EQUALS   ITEMP3
000295:    5436     0064               TEMPBB            EQUALS   ITEMP4
000296:    5436     0065               TEMPSW            EQUALS   ITEMP5
000297:    5436     0066               TEMPSW2           EQUALS   ITEMP6
000298:    5436     0070               TEMPPR            EQUALS   RUPTREG1
000299:    5436     0071               TEMPG2            EQUALS   RUPTREG2
000300:    5436     0072               TEMPP2            EQUALS   RUPTREG3
000301:
000302:    5436     0073               TEMPBBCN          EQUALS   RUPTREG4
000303:    5436  0000006               BB                EQUALS   BBANK
000304:
000305: 14,3774                                          BANK     14
000306: 10,2000                                          SETLOC   PHASETAB
000307: 10,2000                                          BANK
000308:
000309: 10,2224  E3,1436                                 EBANK=   PHSNAME1
000310: 10,2224                                          COUNT*   $$/PHASE
000311: 10,2224           22073        PHSCHNG2          LXCH     TEMPBBCN
000312: 10,2225           30065                          CA       TEMPSW
000313: 10,2226           74757                          MASK     OCT7
000314: 10,2227           60000                          DOUBLE
000315: 10,2230           54061                          TS       TEMPG
000316:
000317: 10,2231           30065                          CA       TEMPSW
000318: 10,2232           75030                          MASK     OCT17770
000319: 10,2233           00006                          EXTEND
000320: 10,2234           74740                          MP       BIT12
000321: 10,2235           54062                          TS       TEMPP
000322:
000323: 10,2236           30065                          CA       TEMPSW
000324: 10,2237           74101                          MASK     OCT60000
000325: 10,2240           56065                          XCH      TEMPSW
000326: 10,2241           75024                          MASK     OCT14000
000327: 10,2242           10000                          CCS      A
000328:                                                                                                 #  Page 1301
000329: 10,2243           15370                          TCF      ONEORTWO
000330:
000331: 10,2244           30062                          CA       TEMPP                                 #  START STORING THE PHASE INFORMATION
000332: 10,2245           50061                          NDX      TEMPG
000333: 10,2246           54751                          TS       PHASE1     -2
000334:
000335: 10,2247           10066        BELOW1            CCS      TEMPSW2                               #  IS IT A PHASCHNG OR A 2PHSCHNG
000336: 10,2250           12264                          TCF      BELOW2                                #  IT'S A PHASCHNG
000337:
000338: 10,2251           12252                          TCF      +1                                    #  IT'S A 2PHSCHNG
000339: 10,2252           40072                          CS       TEMPP2
000340: 10,2253           22072                          LXCH     TEMPP2
000341: 10,2254           50071                          NDX      TEMPG2
000342: 10,2255           52751                          DXCH     -PHASE1    -2
000343:
000344: 10,2256           10066                          CCS      TEMPSW2
000345: 10,2257           12260                          NOOP                                           #  CAN'T GET HERE
000346: 10,2260           12264                          TCF      BELOW2
000347:
000348: 10,2261           40025                          CS       TIME1
000349: 10,2262           50071                          NDX      TEMPG2
000350: 10,2263           55051                          TS       TBASE1     -2
000351:
000352: 10,2264           10065        BELOW2            CCS      TEMPSW                                #  SEE IF WE SHOULD SET TBASE OR LONGBASE
000353: 10,2265           12300                          TCF      BELOW3                                #  SET LONGBASE ONLY
000354: 10,2266           12303                          TCF      BELOW4                                #  SET NEITHER
000355:
000356: 10,2267           40025                          CS       TIME1                                 #  SET TBASE TO BEGIN WITH
000357: 10,2270           50061                          NDX      TEMPG
000358: 10,2271           55051                          TS       TBASE1     -2
000359:
000360: 10,2272           30065                          CA       TEMPSW                                #  SHALL WE NOW SET LONGBASE
000361: 10,2273           62276                          AD       BIT14COM
000362: 10,2274           10000                          CCS      A
000363: 10,2275           12276                          NOOP                                           #  ***** CAN'T GET HERE *****
000364: 10,2276           17777        BIT14COM          OCT      17777                                 #  ***** CAN'T GET HERE *****
000365: 10,2277           12303                          TCF      BELOW4                                #  NO WE NEED ONLY SET TBASE
000366:
000367: 10,2300           00006        BELOW3            EXTEND                                         #  SET LONGBASE
000368: 10,2301           30025                          DCA      TIME2
000369: 10,2302           53152                          DXCH     LONGBASE
000370:
000371: 10,2303           40062        BELOW4            CS       TEMPP                                 #  AND STORE THE FINAL PART OF THE PHASE
000372: 10,2304           50061                          NDX      TEMPG
000373: 10,2305           54750                          TS       -PHASE1    -2
000374:
000375: 10,2306           30002                          CA       Q
000376: 10,2307           22073                          LXCH     TEMPBBCN
000377: 10,2310           00003                          RELINT
000378: 10,2311           52006                          DTCB
000379:                                                                                                 #  Page 1302
000380: 10,2312           22073        CON2              LXCH     TEMPBBCN
000381:
000382: 10,2313           30062                          CA       TEMPP
000383: 10,2314           50061                          NDX      TEMPG
000384: 10,2315           54751                          TS       PHASE1     -2
000385:
000386: 10,2316           30070                          CA       TEMPPR
000387: 10,2317           50061                          NDX      TEMPG
000388: 10,2320           55052                          TS       PHSPRDT1   -2
000389:
000390: 10,2321           00006                          EXTEND
000391: 10,2322           30064                          DCA      TEMPNM
000392: 10,2323           50061                          NDX      TEMPG
000393: 10,2324           53435                          DXCH     PHSNAME1   -2
000394:
000395: 10,2325           12247                          TCF      BELOW1
000396:
000397:    7750                                          BLOCK    03
000398:    6000                                          SETLOC   FFTAG6
000399:    6000                                          BANK
000400:
000401:    7750                                          COUNT*   $$/PHASE
000402:    7750           74740        CHECKB            MASK     BIT12                                 #  SINCE THIS IS OF TYPE 8, THIS BIT WOULD
000403:    7751           10000                          CCS      A                                     #  BE HERE IF WE ARE TO GET A NEW PRIORITY
000404:    7752           15423                          TCF      GETPRIO                               #  IT IS, SO GET NEW PRIORITY
000405:
000406:    7753           15402                          TCF      OLDPRIO                               #  IT ISN'T, USE THE OLD PRIORITY.
000407:
000408:

End of include-file PHASE_TABLE_MAINTENANCE.agc.  Parent file is MAIN.agc


