
Source Code


000002:                                                                                                  ## Copyright:   Public domain.
000003:                                                                                                  ## Filename:    PHASE_TABLE_MAINTENANCE.agc
000004:                                                                                                  ## Purpose:     Part of the source code for Luminary 1A build 099.
000005:                                                                                                  ##              It is part of the source code for the Lunar Module's (LM)
000006:                                                                                                  ##              Apollo Guidance Computer (AGC), for Apollo 11.
000007:                                                                                                  ## Assembler:   yaYUL
000008:                                                                                                  ## Contact:     Onno Hommes <ohommes@cmu.edu>.
000009:                                                                                                  ## Website:     www.ibiblio.org/apollo.
000010:                                                                                                  ## Pages:       1294-1302
000011:                                                                                                  ## Mod history: 2009-05-26 OH   Transcribed from page images.
000012:                                                                                                  ##              2009-06-05 RSB  A few lines at the bottom of page image
000013:                                                                                                  ##                              1294 were truncated.  I've fixed the page
000014:                                                                                                  ##                              image and added those missing lines here.
000015:                                                                                                  ##              2011-05-07 JL   Flagged SBANK= workaround for future
000016:                                                                                                  ##                              removal.
000017:                                                                                                  ##              2016-12-17 RSB  Proofed text comments with octopus/ProoferComments
000018:                                                                                                  ##                              and corrected the errors found.
000019:                                                                                                  ##              2017-01-28 RSB  Back-ported a comment-text fix from Luminary 69.
000020:
000021:                                                                                                  ## This source code has been transcribed or otherwise adapted from
000022:                                                                                                  ## digitized images of a hardcopy from the MIT Museum.  The digitization
000023:                                                                                                  ## was performed by Paul Fjeld, and arranged for by Deborah Douglas of
000024:                                                                                                  ## the Museum.  Many thanks to both.  The images (with suitable reduction
000025:                                                                                                  ## in storage size and consequent reduction in image quality as well) are
000026:                                                                                                  ## available online at www.ibiblio.org/apollo.  If for some reason you
000027:                                                                                                  ## find that the images are illegible, contact me at info@sandroid.org
000028:                                                                                                  ## about getting access to the (much) higher-quality images which Paul
000029:                                                                                                  ## actually created.
000030:                                                                                                  ##
000031:                                                                                                  ## Notations on the hardcopy document read, in part:
000032:                                                                                                  ##
000033:                                                                                                  ##      Assemble revision 001 of AGC program LMY99 by NASA 2021112-61
000034:                                                                                                  ##      16:27 JULY 14, 1969
000035:


000037:                                                                                                  #  SUBROUTINE TO UPDATE THE PROGRAM NUMBER DISPLAY ON THE DSKY.
000038:
000039: 43,3724                                           COUNT*   $$/PHASE
000040:    5311                                           BLOCK    02
000041:    4000                                           SETLOC   FFTAG1
000042:    4000                                           BANK
000043:
000044:    5311           50002        NEWMODEX           INDEX    Q                                     #  UPDATE MODREG.  ENTRY FOR MODE IN FIXED.
000045:    5312           30000                           CAF      0
000046:    5313           24002                           INCR     Q
000047:
000048:    5314           55011        NEWMODEA           TS       MODREG                                #  ENTRY FOR MODE IN A.
000049:    5315           35320        MMDSPLAY           CAF      +3                                    #  DISPLAY MAJOR MODE.
000050:    5316           22006        PREBJUMP           LXCH     BBANK                                 #  PUTS BBANK IN L
000051:    5317           14640                           TCF      BANKJUMP                              #  PUTS Q INTO A
000052:    5320           20213                           CADR     SETUPDSP
000053:
000054:                                                                                                  #  RETURN TO CALLER +3 IF MODE = THAT AT CALLER +1.  OTHERWISE RETURN TO CALLER +2.
000055:
000056:    5321           50002        CHECKMM            INDEX    Q
000057:    5322           40000                           CS       0
000058:    5323           61011                           AD       MODREG
000059:    5324           00006                           EXTEND
000060:    5325           16741                           BZF      Q+2
000061:    5326           16737                           TCF      Q+1                                   #  NO MATCH
000062:
000063:    5327     6742               TCQ                =        Q+2        +1
000064:
000065: 14,3774                                           BANK     14
000066: 10,2000                                           SETLOC   PHASETAB
000067: 10,2000                                           BANK
000068:
000069: 10,2213                                           COUNT*   $$/PHASE
000070: 10,2213           00004        SETUPDSP           INHINT
000071: 10,2214           52071                           DXCH     RUPTREG1                              #  SAVE CALLER-S RETURN 2CADR
000072: 10,2215           34355                           CAF      PRIO30                                #        EITHER A TASK OR JOB CAN COME TO
000073: 10,2216           05072                           TC       NOVAC                                 #        NEWMODE X
000074: 10,2217     1011                                  EBANK=   MODREG
000075: 10,2217           03534 60102                     2CADR    DSPMMJOB
000076:
000077: 10,2221           52071                           DXCH     RUPTREG1
000078: 10,2222           00003                           RELINT
000079: 10,2223           52006                           DXCH     Z                                     #  RETURN
000080:
000081: 10,2224  40,3534               DSPMMJOB           EQUALS   DSPMMJB
000082:
000083:    5327                                           BLOCK    02
000084:    4000                                           SETLOC   FFTAG1
000085:    4000                                           BANK
000086:


000088:                                                                                                  #  PHASCHNG IS THE MAIN WAY OF MAKING PHASE CHANGES FOR RESTARTS.  THERE ARE THREE FORMS OF PHASCHNG, KNOWN AS TYPE
000089:                                                                                                  #  A, TYPE B, AND TYPE C.  THEY ARE ALL CALLED AS FOLLOWS, WHERE OCT XXXXX CONTAINS THE PHASE INFORMATION,
000090:                                                                                                  #                TC      PHASCHNG
000091:                                                                                                  #                OCT     XXXXX
000092:                                                                                                  #  TYPE A IS CONCERNED WITH FIXED PHASE CHANGES, THAT IS, PHASE INFORMATION THAT IS STORED PERMANENTLY.  THESE
000093:                                                                                                  #  OPTIONS ARE, WHERE G STANDS FOR A GROUP AND .X FOR THE PHASE,
000094:                                                                                                  #        G.0             INACTIVE, WILL NOT PERMIT A GROUP G RESTART
000095:                                                                                                  #        G.1             WILL CAUSE THE LAST DISPLAY TO BE REACTIVATED, USED MAINLY IN MANNED FLIGHTS
000096:                                                                                                  #        G.EVEN          A DOUBLE TABLE RESTART, CAN CAUSE ANY COMBINATION OF TWO JOBS, TASKS, AND/OR
000097:                                                                                                  #                        LONGCALL TO BE RESTARTED.
000098:                                                                                                  #        G.ODD NOT .1    A SINGLE TABLE RESTART, CAN CAUSE EITHER A JOB, TASK, OR LONGCALL RESTART
000099:
000100:                                                                                                  #  THIS INFORMATION IS PUT INTO THE OCTAL WORD AFTER TC PHASCHNG AS FOLLOWS
000101:                                                                                                  #        TL0 00P PPP PPP GGG                                               .
000102:                                                                                                  #  WHERE EACH LETTER OR NUMBER STANDS FOR A BIT.  THE G:S STAND FOR THE GROUP, OCTAL 1-7, THE P:S FOR THE PHASE,
000103:                                                                                                  #  OCTAL 0 - 127.  0:S MUST BE 0.  IF ONE WISHES TO HAVE THE TBASE OF GROUP G TO BE SET AT THIS TIME,
000104:                                                                                                  #  T IS SET TO 1, OTHERWISE IT IS SET TO 0.  SIMIARLY IF ONE WISHES TO SET LONGBASE, THEN L IS SET TO 1, OTHERWISE
000105:                                                                                                  #  IT IS SET TO 0.  SOME EXAMPLES,
000106:                                                                                                  #                TC      PHASCHNG        THIS WILL CAUSE GROUP 3 TO BE SET TO 0,
000107:                                                                                                  #                OCT     00003           MAKING GROUP 3 INACTIVE
000108:
000109:                                                                                                  #                TC      PHASCHNG        IF A RESTART OCCURS THIS WOULD CAUSE
000110:                                                                                                  #                OCT     00012           GROUP 2 TO RESTART THE LAST DISPLAY
000111:
000112:                                                                                                  #                TC      PHASCHNG        THIS SETS THE TBASE OF GROUP 4 AND IN
000113:                                                                                                  #                OCT     40064           CASE OF A RESTART WOULD START UP THE TWO
000114:                                                                                                  #                                        THINGS LOCATED IN THE DOUBLE 4.6 RESTART
000115:                                                                                                  #                                        LOCATION
000116:
000117:                                                                                                  #                TC      PHASCHNG        THIS SETS LONGBASE AND UPON A RESTART
000118:                                                                                                  #                OCT     20135           CAUSES 5.13 TO BE RESTARTED (SINCE
000119:                                                                                                  #                                        LONGBASE WAS SET THIS SINGLE ENTRY
000120:                                                                                                  #                                        SHOULD BE A LONGCALL)
000121:
000122:                                                                                                  #                TC      PHASCHNG        SINCE BOTH TBASE4 AND LONGBASE ARE SET,
000123:                                                                                                  #                OCT     60124           4.12 SHOULD CONTAIN BOTH A TASK AND A
000124:                                                                                                  #                                        LONGCALL TO BE RESTARTED
000125:
000126:                                                                                                  #  TYPE C PHASCHNG CONTAINS THE VARIABLE TYPE OF PHASCHNG INFORMATION.  INSTEAD OF THE INFORMATION BEING IN A
000127:                                                                                                  #  PERMANENT FORM, ONE STORES THE DESIRED RESTART INFORMATION IN A VARIABKE LOCATION.  THE BITS ARE AS FOLLOWS,
000128:                                                                                                  #        TL0 1AD XXX CJW GGG
000129:                                                                                                  #  WHERE EACH LETTER OR NUMBER STANDS FOR A BIT.  THE G:S STAND FOR THE GROUP, OCTAL 1 - 7.  IF THE RESTART IS TO
000130:                                                                                                  #  BE BY WAITLIST, W IS SET TO 1, IF IT IS A JOB, J IS SET TO 1, IF IT IS A LONGCALL, C IS SET TO 1.  ONLY ONE OF
000131:                                                                                                  #  THESE THREE BITS MAY BE SET.  X:S ARE IGNORED  1 MUST BE 1, AND 0 MUST BE 0.  AGAIN T STANDS FOR THE TBASE,


000133:                                                                                                  #  AND L FOR LONGBASE.  THE BITS A AND D ARE CONCERNED WITH THE VARIABLE INFORMATION.  IF D IS SET TO 1, A PRIORITY
000134:                                                                                                  #  OR DELTA TIME WILL BE READ FROM THE NEXT LOCATION AFTER THE OCTAL INFORMATION, IF THIS IS TO BE INDIRECT, THAT
000135:                                                                                                  #  IS, THE NAME OF A LOCATION COMT+INING THE INFORMATION (DELTA TIME ONLY), THEN THIS IS GIVEN AS THE -GENADR OF
000136:                                                                                                  #  THAT LOCATION WHICH CONTAINS THE DELTA TIME.  IF THE OLD PRIORITY OR DELTA TIME IS TO BE USED, THAT WHICH IS
000137:                                                                                                  #  ALREADY IN THE VARIABLE STORAGE, THEN D IS SET TO 0.  NEXT THE A BIT IS USED.  IF IT IS SET TO 0, THE ADDRESS
000138:                                                                                                  #  THAT WOULD BE RESTARTED DURING A RESTART IS THE NEXT LOCATION AFTER THE PHASE INFORMATION, THAT IS, EITHER
000139:                                                                                                  #  (TC PHASCHNG) +2 OR +3, DEPENDING ON WHETHER D HAD BEEN SET OR NOT.  IF A IS SET TO 1, THEN THE ADDRESS THAT
000140:                                                                                                  #  WOULD BE RESTARTED IS THE 2CADR THAT IS READ FROM THE NEXT TWO LOCATIONS.  EXAMPLES.
000141:                                                                                                  #        AD      TC      PHASCHNG        THIS WOULD CAUSE LOCATION AD +3 TO BE
000142:                                                                                                  #        AD+1    OCT     05023           RESTARTED BY GROUP THREE WITH A PRIORITY
000143:                                                                                                  #        AD+2    OCT     23000           OF 23.  NOTE UPON RETURNING IT WOULD
000144:                                                                                                  #        AD+3                            ALSO GO TO AD+3
000145:
000146:                                                                                                  #        AD      TC      PHASCHNG        GROUP 1 WOULD CAUSE CAUSE CALLCALL TO
000147:                                                                                                  #        AD+1    OCT     27441           BE STARTED AS A LONGCALL FROM THE TIME
000148:                                                                                                  #        AD+2    -GENADR DELTIME         STORED IN LONGBASE (LONGBASE WAS SET) BY
000149:                                                                                                  #        AD+3    2CADR   CALLCALL        A DELTA TIME STORED IN DELTIME.  THE
000150:                                                                                                  #        AD+4                            BBCON OF THE 2CADR SHOULD CONTAIN THE E
000151:                                                                                                  #        AD+5                            BANK OF DELTIME.  PHASCHNG RETURNS TO
000152:                                                                                                  #                                        LOCATION AD+5
000153:
000154:                                                                                                  #  NOTE THAT IF A VARIABLE PRIORITY IS GIVEN FOR A JOB, THE JOB WILL BE RESTARTED AS A NOVAC IF THE PRIORITY IS
000155:                                                                                                  #  NEGATIVE, AS A FINDVAC IF THE PRIORITY IS POSITIVE.
000156:
000157:                                                                                                  #  TYPE B PHASCHNG IS A COMBINATION OF VARIABLE AND FIXED PHASE CHANGES.  IT WILL START UP A JOB AS INDICATED
000158:                                                                                                  #  BELOW AND ALSO START UP ONE FIXED RESTART, THAT IS EITHER AN G.1 OR A G.ODD OR THE FIRST ENTRY OF G.EVEN
000159:                                                                                                  #  DOUBLE ENTRY.  THE BIT INFORMATION IS AS FOLLOWS,
000160:                                                                                                  #        TL1 DAP PPP PPP GGG
000161:                                                                                                  #  WHERE EACH LETTER OR NUMBER STANDS FOR A BIT.  THE G:S STAND FOR THE GROUP, OCTAL 1 - 7, THE P:S FOR THE FIXED
000162:                                                                                                  #  PHASE INFORMATION, OCTAL 0 - 127.  1 MUST BE 1.  AND AGAIN T STANDS FOR THE TBASE AND L FOR LONGBASE.  D THIS
000163:                                                                                                  #  TIME STANDS ONLY FOR PRIORITY SINCE THIS WILL BE CONSIDERED A JOB, AND IT MUST BE GIVEN DIRECTLY IF GIVEN.
000164:                                                                                                  #  AGAIN A STANDS FOR THE ADDRESS OF THE LOCATION TO BE RESTARTED, 1 IF THE 2CADR IS GIVEN, OR 0 IF IT IS TO BE
000165:                                                                                                  #  THE NEXT LOCATION.  (THE RETURN LOCATION OF PHASCHNG) EXAMPLES,
000166:                                                                                                  #        AD      TC      PHASCHNG        TBASE IS SET AND A RESTART CAUSE GROUP 3
000167:                                                                                                  #        AD+1    OCT     56043           TO START THE JOB AJOBAJOB WITH PRIORITY
000168:                                                                                                  #        AD+2    OCT     31000           31 AND THE FIRST ENTRY OF 3.4SPOT (WE CAN
000169:                                                                                                  #        AD+3    2CADR   AJOBAJOB        ASSUME IT IS A TASK SINCE WE SET TBASE3)
000170:                                                                                                  #        AD+4                            UPON RETURN FROM PHASCHNG CONTROL WOULD
000171:                                                                                                  #        AD+5                            GO TO AD+5
000172:
000173:                                                                                                  #        AD      TC      PHASCHNG        UPON A RESTART THE LAST DISPLAY WOULD BE
000174:                                                                                                  #        AD+1    OCT     10015           RESTARTED AND A JOB WITH THE PREVIOUSLY
000175:                                                                                                  #        AD+2                            STORED PRIORITY WOULD BE BEGUN AT AD+2
000176:                                                                                                  #                                        BY MEANS OF GROUP 5


000178:                                                                                                  #  THE NOVAC-FINDVAC CHOICE FOR JOBS HOLDS HERE ALSO - NEGATIVE PRIORITY CAUSES A NOVAC CALL, POSITIVE A FINDVAC.
000179:
000180:                                                                                                  #  SUMMARY OF BITS
000181:                                                                                                  #        TYPE A          TL0 00P PPP PPP GGG
000182:                                                                                                  #        TYPE B          TL1 DAP PPP PPP GGG
000183:                                                                                                  #        TYPE C          TL0 1AD XXX CJW GGG
000184:


000186:                                                                                                  #  2PHSCHNG IS USED WHEN ONE WISHES TO START UP A GROUP OR CHANGE A GROUP WHILE UNDER THE CONTROL OF A DIFFERENT
000187:                                                                                                  #  GROUP.  FOR EXAMPLE, CHANGE THE PHASE OF GROUP 3 WHILE THE PORTION OF THE PROGRAM IS UNDER GROUP 5.  ALL 2PHSCHNG
000188:                                                                                                  #  CALLS ARE MADE IN THE FOLLOWING MANNER,
000189:                                                                                                  #                TC      2PHSCHNG
000190:                                                                                                  #                OCT     XXXXX
000191:                                                                                                  #                OCT     YYYYY
000192:                                                                                                  #  WHERE OCT XXXXX MUST BE OF TYPE A AND OCT YYYYY MAY BE OF EITHER TYPE A OR TYPE B OR TYPE C.  THERE IS ONE
000193:                                                                                                  #  DIFFERENCE --- NOTE: IF LONGBASE IS TO BE SET THIS INFORMATION IS GIVEN IN THE OCT YYYYY INFORMATION, IT WILL
000194:                                                                                                  #  BE DISREGARDED IF GIVEN WITH THE OCT XXXXX INFORMATION.  A COUPLE OF EXAMPLES MAY HELP,
000195:                                                                                                  #        AD      TC      2PHSCHNG        SET TBASE3 AND IF A RESTART OCCURS START
000196:                                                                                                  #        AD+1    OCT     40083           THE TWO ENTRIES IN 3.8 TABLE LOCATION
000197:                                                                                                  #        AD+2    OCT     05025           THIS IS OF TYPE C, SET THE JOB TO BE
000198:                                                                                                  #        AD+3    OCT     18000           TO BE LOCATION AD+4, WITH A PRIORITY 18,
000199:                                                                                                  #        AD+4                            FOR GROUP 5 PHASE INFORMATION
000200:


000202:    5327  40,2000                                  SBANK=   PINSUPER
000203:
000204:    5327                                           COUNT*   $$/PHASE
000205:    5327           00004        2PHSCHNG           INHINT                                         #  THE ENTRY FOR A DOUBLE PHASE CHANGE
000206:    5330           50002                           NDX      Q
000207:    5331           30000                           CA       0
000208:    5332           24002                           INCR     Q
000209:    5333           54072                           TS       TEMPP2
000210:
000211:    5334           74757                           MASK     OCT7
000212:    5335           60000                           DOUBLE
000213:    5336           54071                           TS       TEMPG2
000214:
000215:    5337           30072                           CA       TEMPP2
000216:    5340           75030                           MASK     OCT17770                              #  NEED ONLY 1770, BUT WHY GET A NEW CONST.
000217:    5341           00006                           EXTEND
000218:    5342           74740                           MP       BIT12
000219:    5343           56072                           XCH      TEMPP2
000220:
000221:    5344           74735                           MASK     BIT15
000222:    5345           54066                           TS       TEMPSW2                               #  INDICATES WHETHER TO SET TBASE OR NOT
000223:
000224:    5346           50002                           INDEX    Q
000225:    5347           30000                           CA       0
000226:    5350           24002                           INCR     Q
000227:    5351           54065                           TS       TEMPSW
000228:
000229:    5352           15363                           TCF      PHASJUMP
000230:
000231:    5353           00004        PHASCHNG           INHINT                                         #  NORMAL PHASCHNG ENTRY POINT.
000232:    5354           50002                           INDEX    Q
000233:    5355           30000                           CA       0
000234:    5356           24002                           INCR     Q
000235:    5357           00004        PHSCHNGA           INHINT                                         #  FIRST OCTAL PARAMETER IN A.


000237:    5360           54065                           TS       TEMPSW
000238:    5361           34753                           CA       ONE
000239:    5362           54066                           TS       TEMPSW2
000240:    5363           00006        PHASJUMP           EXTEND
000241:    5364           35367                           DCA      ADRPCHN2                              #  OFF TO SWITCHED BANK
000242:    5365           52006                           DTCB
000243:
000244:    5366  E3,1400                                  EBANK=   LST1
000245:    5366           02224 20103  ADRPCHN2           2CADR    PHSCHNG2
000246:
000247:    5370           22073        ONEORTWO           LXCH     TEMPBBCN
000248:    5371           22006                           LXCH     BBANK
000249:    5372           22073                           LXCH     TEMPBBCN
000250:
000251:    5373           75024                           MASK     OCT14000                              #  SEE WHAT KIND OF PHASE CHANGE IT IS
000252:    5374           10000                           CCS      A
000253:    5375           17750                           TCF      CHECKB                                #  IT IS OF TYPE :B:
000254:
000255:    5376           30062                           CA       TEMPP
000256:    5377           74745                           MASK     BIT7
000257:    5400           10000                           CCS      A                                     #  SHALL WE USE THE OLD PRIORITY
000258:    5401           15423                           TCF      GETPRIO                               #  NO GET A NEW PRIORITY (OR DELTA T)
000259:
000260:    5402           50061        OLDPRIO            NDX      TEMPG                                 #  USE THE OLD PRIORITY (OR DELTA T)
000261:    5403           31052                           CA       PHSPRDT1   -2
000262:    5404           54070                           TS       TEMPPR
000263:
000264:    5405           30062        CON1               CA       TEMPP                                 #  SEE IF A 2CADR IS GIVEN
000265:    5406           74744                           MASK     BIT8
000266:    5407           10000                           CCS      A
000267:    5410           15427                           TCF      GETNEWNM
000268:
000269:    5411           30002                           CA       Q
000270:    5412           54063                           TS       TEMPNM
000271:    5413           30006                           CA       BB
000272:    5414           00006                           EXTEND                                         #  PICK UP USERS SUPERBANK
000273:    5415           04007                           ROR      SUPERBNK
000274:    5416           54064                           TS       TEMPBB
000275:
000276:    5417           35422        TOCON2             CA       CON2ADR                               #  BACK TO SWITCHED BANK
000277:    5420           22073                           LXCH     TEMPBBCN
000278:    5421           52006                           DTCB
000279:
000280:    5422           02312        CON2ADR            GENADR   CON2
000281:
000282:    5423           50002        GETPRIO            NDX      Q                                     #  DON:T CARE IF DIRECT OR INDIRECT
000283:    5424           30000                           CA       0                                     #  LEAVE THAT DECISION TO RESTARTS
000284:    5425           24002                           INCR     Q                                     #  OBTAIN RETURN ADDRESS


000286:    5426           15404                           TCF      CON1       -1
000287:
000288:    5427           00006        GETNEWNM           EXTEND
000289:    5430           50002                           INDEX    Q
000290:    5431           30001                           DCA      0
000291:    5432           52064                           DXCH     TEMPNM
000292:    5433           34752                           CA       TWO
000293:    5434           26002                           ADS      Q                                     #  OBTAIN RETURN ADDRESS
000294:
000295:    5435           15417                           TCF      TOCON2
000296:
000297:    5436     5024               OCT14000           EQUALS   PRIO14
000298:    5436     0061               TEMPG              EQUALS   ITEMP1
000299:    5436     0062               TEMPP              EQUALS   ITEMP2
000300:    5436     0063               TEMPNM             EQUALS   ITEMP3
000301:    5436     0064               TEMPBB             EQUALS   ITEMP4
000302:    5436     0065               TEMPSW             EQUALS   ITEMP5
000303:    5436     0066               TEMPSW2            EQUALS   ITEMP6
000304:    5436     0070               TEMPPR             EQUALS   RUPTREG1
000305:    5436     0071               TEMPG2             EQUALS   RUPTREG2
000306:    5436     0072               TEMPP2             EQUALS   RUPTREG3
000307:
000308:    5436     0073               TEMPBBCN           EQUALS   RUPTREG4
000309:    5436  0000006               BB                 EQUALS   BBANK
000310:
000311: 14,3774                                           BANK     14
000312: 10,2000                                           SETLOC   PHASETAB
000313: 10,2000                                           BANK
000314:
000315: 10,2224  E3,1436                                  EBANK=   PHSNAME1
000316: 10,2224                                           COUNT*   $$/PHASE
000317: 10,2224           22073        PHSCHNG2           LXCH     TEMPBBCN
000318: 10,2225           30065                           CA       TEMPSW
000319: 10,2226           74757                           MASK     OCT7
000320: 10,2227           60000                           DOUBLE
000321: 10,2230           54061                           TS       TEMPG
000322:
000323: 10,2231           30065                           CA       TEMPSW
000324: 10,2232           75030                           MASK     OCT17770
000325: 10,2233           00006                           EXTEND
000326: 10,2234           74740                           MP       BIT12
000327: 10,2235           54062                           TS       TEMPP
000328:
000329: 10,2236           30065                           CA       TEMPSW
000330: 10,2237           74101                           MASK     OCT60000
000331: 10,2240           56065                           XCH      TEMPSW
000332: 10,2241           75024                           MASK     OCT14000
000333: 10,2242           10000                           CCS      A


000335: 10,2243           15370                           TCF      ONEORTWO
000336:
000337: 10,2244           30062                           CA       TEMPP                                 #  START STORING THE PHASE INFORMATION
000338: 10,2245           50061                           NDX      TEMPG
000339: 10,2246           54751                           TS       PHASE1     -2
000340:
000341: 10,2247           10066        BELOW1             CCS      TEMPSW2                               #  IS IT A PHASCHNG OR A 2PHSCHNG
000342: 10,2250           12264                           TCF      BELOW2                                #  IT:S A PHASCHNG
000343:
000344: 10,2251           12252                           TCF      +1                                    #  IT:S A 2PHSCHNG
000345: 10,2252           40072                           CS       TEMPP2
000346: 10,2253           22072                           LXCH     TEMPP2
000347: 10,2254           50071                           NDX      TEMPG2
000348: 10,2255           52751                           DXCH     -PHASE1    -2
000349:
000350: 10,2256           10066                           CCS      TEMPSW2
000351: 10,2257           12260                           NOOP                                           #  CAN:T GET HERE
000352: 10,2260           12264                           TCF      BELOW2
000353:
000354: 10,2261           40025                           CS       TIME1
000355: 10,2262           50071                           NDX      TEMPG2
000356: 10,2263           55051                           TS       TBASE1     -2
000357:
000358: 10,2264           10065        BELOW2             CCS      TEMPSW                                #  SEE IF WE SHOULD SET TBASE OR LONGBASE
000359: 10,2265           12300                           TCF      BELOW3                                #  SET LONGBASE ONLY
000360: 10,2266           12303                           TCF      BELOW4                                #  SET NEITHER
000361:
000362: 10,2267           40025                           CS       TIME1                                 #  SET TBASE TO BEGIN WITH
000363: 10,2270           50061                           NDX      TEMPG
000364: 10,2271           55051                           TS       TBASE1     -2
000365:
000366: 10,2272           30065                           CA       TEMPSW                                #  SHALL WE NOW SET LONGBASE
000367: 10,2273           62276                           AD       BIT14COM
000368: 10,2274           10000                           CCS      A
000369: 10,2275           12276                           NOOP                                           #  ***** CANT GET HERE *****
000370: 10,2276           17777        BIT14COM           OCT      17777                                 #  ***** CANT GET HERE *****
000371: 10,2277           12303                           TCF      BELOW4                                #  NO WE NEED ONLY SET TBASE
000372:
000373: 10,2300           00006        BELOW3             EXTEND                                         #  SET LONGBASE
000374: 10,2301           30025                           DCA      TIME2
000375: 10,2302           53152                           DXCH     LONGBASE
000376:
000377: 10,2303           40062        BELOW4             CS       TEMPP                                 #  AND STORE THE FINAL PART OF THE PHASE
000378: 10,2304           50061                           NDX      TEMPG
000379: 10,2305           54750                           TS       -PHASE1    -2
000380:
000381: 10,2306           30002                           CA       Q
000382: 10,2307           22073                           LXCH     TEMPBBCN
000383: 10,2310           00003                           RELINT
000384: 10,2311           52006                           DTCB


000386: 10,2312           22073        CON2               LXCH     TEMPBBCN
000387:
000388: 10,2313           30062                           CA       TEMPP
000389: 10,2314           50061                           NDX      TEMPG
000390: 10,2315           54751                           TS       PHASE1     -2
000391:
000392: 10,2316           30070                           CA       TEMPPR
000393: 10,2317           50061                           NDX      TEMPG
000394: 10,2320           55052                           TS       PHSPRDT1   -2
000395:
000396: 10,2321           00006                           EXTEND
000397: 10,2322           30064                           DCA      TEMPNM
000398: 10,2323           50061                           NDX      TEMPG
000399: 10,2324           53435                           DXCH     PHSNAME1   -2
000400:
000401: 10,2325           12247                           TCF      BELOW1
000402:
000403:    7750                                           BLOCK    03
000404:    6000                                           SETLOC   FFTAG6
000405:    6000                                           BANK
000406:
000407:    7750                                           COUNT*   $$/PHASE
000408:    7750           74740        CHECKB             MASK     BIT12                                 #  SINCE THIS IS OF TYPE B, THIS BIT SHOULD
000409:    7751           10000                           CCS      A                                     #  BE HERE IF WE ARE TO GET A NEW PRIORITY
000410:    7752           15423                           TCF      GETPRIO                               #  IT IS, SO GET NEW PRIORITY
000411:
000412:    7753           15402                           TCF      OLDPRIO                               #  IT ISN:T, USE THE OLD PRIORITY
000413:
000414:

End of include-file PHASE_TABLE_MAINTENANCE.agc.  Parent file is MAIN.agc


