
Source Code


000002:                                                                                                  #  Copyright:    Public domain.
000003:                                                                                                  #  Filename:     PINBALL_GAME_BUTTONS_AND_LIGHTS.agc
000004:                                                                                                  #  Purpose:      Part of the source code for Luminary 1A build 099.
000005:                                                                                                  #                It is part of the source code for the Lunar Module's (LM)
000006:                                                                                                  #                Apollo Guidance Computer (AGC), for Apollo 11.
000007:                                                                                                  #  Assembler:    yaYUL
000008:                                                                                                  #  Contact:      Jim Lawton <jim.lawton@gmail.com>
000009:                                                                                                  #  Website:      www.ibiblio.org/apollo.
000010:                                                                                                  #  Pages:        390-471
000011:                                                                                                  #  Mod history:  2009-05-16 JVL  Started updating from page images.
000012:                                                                                                  #                2009-05-25 JVL  Finished updating from page images.
000013:                                                                                                  #                2009-07-01 RSB  Began annotating.
000014:                                                                                                  #                2010-12-31 JL   Fixed page number comment.
000015:
000016:                                                                                                  #  This source code has been transcribed or otherwise adapted from digitized
000017:                                                                                                  #  images of a hardcopy from the MIT Museum.  The digitization was performed
000018:                                                                                                  #  by Paul Fjeld, and arranged for by Deborah Douglas of the Museum.  Many
000019:                                                                                                  #  thanks to both.  The images (with suitable reduction in storage size and
000020:                                                                                                  #  consequent reduction in image quality as well) are available online at
000021:                                                                                                  #  www.ibiblio.org/apollo.  If for some reason you find that the images are
000022:                                                                                                  #  illegible, contact me at info@sandroid.org about getting access to the
000023:                                                                                                  #  (much) higher-quality images which Paul actually created.
000024:
000025:                                                                                                  #  Notations on the hardcopy document read, in part:
000026:
000027:                                                                                                  #     Assemble revision 001 of AGC program LMY99 by NASA 2021112-061
000028:                                                                                                  #     16:27 JULY 14, 1969
000029:


000033:                                                                                                  #  Page 390
000034:                                                                                                  #  PROGRAM NAME -- KEYBOARD AND DISPLAY PROGRAM
000035:                                                                                                  #  MOD NO -- 4           DATE -- 27 APRIL 1967           ASSEMBLY -- PINDANCE REV 18
000036:                                                                                                  #  MOD BY -- FILENE
000037:                                                                                                  #  LOG SECTION -- PINBALL GAME BUTTONS AND LIGHTS
000038:
000039:                                                                                                  #  FUNCTIONAL DESCRIPTION
000040:
000041:                                                                                                  #  THE KEYBOARD AND DISPLAY SYSTEM PROGRAM OPERATES UNDER EXECUTIVE
000042:                                                                                                  #  CONTROL AND PROCESSES INFORMATION EXCHANGED BETWEEN THE AGC AND THE
000043:                                                                                                  #  COMPUTER OPERATOR.  THE INPUTS TO THE PROGRAM ARE FROM THE KEYBOARD,
000044:                                                                                                  #  FROM INTERNAL PROGRAM, AND FROM THE UPLINK.
000045:
000046:                                                                                                  #  THE LANGUAGE OF COMMUNICATION WITH THE PROGRAM IS A PAIR OF WORDS
000047:                                                                                                  #  KNOWN AS VERB AND NOUN.  EACH OF THESE IS REPRESENTED BY A 2 CHARACTER
000048:                                                                                                  #  DECIMAL NUMBER.  THE VERB CODE INDICATES WHAT ACTION IS TO BE TAKEN, THE
000049:                                                                                                  #  NOUN CODE INDICATES TO WHAT THIS ACTION IS APPLIED.  NOUNS USUALLY
000050:                                                                                                  #  REFER TO A GROUP OF ERASABLE REGISTERS.
000051:
000052:                                                                                                  #  VERBS ARE GROUPED INTO DISPLAYS, LOADS, MONITORS (DISPLAYS THAT ARE
000053:                                                                                                  #  UPDATED ONCE PER SECOND), SPECIAL FUNCTIONS, AND EXTENDED VERBS (THESE
000054:                                                                                                  #  ARE OUTSIDE OF THE DOMAIN OF PINBALL AND CAN BE FOUND UNDER LOG SECTION
000055:                                                                                                  #  'EXTENDED VERBS').
000056:
000057:                                                                                                  #  A LIST OF VERBS AND NOUNS IS GIVEN IN LOG SECTION 'ASSEMBLY AND
000058:                                                                                                  #  OPERATION INFORMATION'.
000059:


000094:
000095:                                                                                                  #  CALLING SEQUENCES --
000096:
000097:                                                                                                  #  KEYBOARD:
000098:                                                                                                  #  EACH DEPRESSION OF A KEYBOARD BUTTON ACTIVATES AN INTERRUPT KEYRUPT1
000099:                                                                                                  #  AND PLACES THE 5 BIT KEY CODE INTO CHANNEL 15.  KEYRUPT1 PLACES THE KEY
000100:                                                                                                  #  CODE INTO MPAC, ENTERS AN EXECUTIVE REQUEST FOR THE KEYBOARD AND DISPLAY
000101:                                                                                                  #  PROGRAM (AT 'CHARIN'), AND EXECUTES A RESUME.
000102:
000103:                                                                                                  #  UPLINK:
000104:                                                                                                  #  EACH WORD RECEIVED BY THE UPLINK ACTIVATES INTERRUPT UPRUPT, WHICH
000105:                                                                                                  #  PLACES THE 5 BIT KEY CODE INTO MPAC, ENTERS AN EXECUTIVE REQUEST FOR THE
000106:                                                                                                  #  KEYBOARD AND DISPLAY PROGRAM (AT 'CHARIN') AND EXECUTES A RESUME.
000107:
000108:                                                                                                  #  INTERNAL PROGRAMS:
000109:                                                                                                  #  INTERNAL PROGRAMS CALL PINBALL AT `NVSUB' WITH THE DESIRED VERB/NOUN
000110:                                                                                                  #  CODE IN A (LOW 7 BITS FOR NOUN, NEXT 7 BITS FOR VERB).  DETAILS
000111:                                                                                                  #  DESCRIBED ON REMARKS CARDS JUST BEFORE 'NVSUB' AND 'NVSBWAIT' (SEE
000112:                                                                                                  #  SYMBOL TABLE FOR PAGE NUMBERS).
000113:
000114:                                                                                                  #  NORMAL EXIT MODES --
000115:
000116:                                                                                                  #        IF PINBALL WAS CALLED BY EXTERNAL ACTION, THERE ARE FOUR EXITS:
000117:                                                                                                  #                1)      ALL BUT (2), (3), AND (4) EXIT DIRECTLY TO ENDOFJOB.
000118:                                                                                                  #                2)      EXTENDED VERBS GO TO THE EXTENDED VERB FAN AS PART OF THE
000119:                                                                                                  #  Page 391
000120:                                                                                                  #                        PINBALL EXECUTIVE JOB WITH PRIORITY 30000.  IT IS THE
000121:                                                                                                  #                        RESPONSIBILITY OF THE EXTEDED VERB CALLED TO EVENTUALLY
000122:                                                                                                  #                        CHANGE PRIORITY (IF NECESSARY) AND DO AN ENDOFJOB.
000123:                                                                                                  #                        ALSO PINBALL IS A NOVAC JOB.  EBANK SET FOR COMMON.
000124:                                                                                                  #                3)      VERB 37.  CHANGE OF PROGRAM (MAJOR MODE) CALLS 'V37' IN THE
000125:                                                                                                  #                        SERVICE ROUTINES AS PART OF THE PINBALL EXEC JOB WITH PRIO
000126:                                                                                                  #                        30000.  THE NEW PROGRAM CODE (MAJOR MODE) IS LEFT IN A.
000127:                                                                                                  #                4)      KEY RELEASE BUTTON CALLS 'PINBRNCH' IN THE DISPLAY INTERFACE
000128:                                                                                                  #                        ROUTINES AS PART OF THE PINBALL EXEC JOB WITH PRIO 30000 IF
000129:                                                                                                  #                        THE KEY RELEASE LIGHT IS OFF AND 'CADRSTOR' IS NOT +0.
000130:
000131:                                                                                                  #  IF PINBALL WAS CALLED BY INTERNAL PROGRAMS, EXIT FROM PINBALL IS BACK
000132:                                                                                                  #  TO CALLING ROUTINE.  DETAILS DESCRIBED IN REMARKS CARDS JUST BEFORE
000133:                                                                                                  #  'NVSUB' AND 'NVSBWAIT' (SEE SYMBOL TABLE FOR PAGE NUMBERS).
000134:
000135:                                                                                                  #  ALARM OR ABORT EXIT MODES --
000136:
000137:                                                                                                  #        EXTERNAL INITIATION:
000138:                                                                                                  #        IF SOME IMPROPER SEQUENCE OF KEY CODES IS DETECTED, THE OPERATOR
000139:                                                                                                  #        ERROR LIGHT IS TURNED ON AND EXIT IS TO 'ENDOFJOB'.
000140:
000141:                                                                                                  #        INTERNAL PROGRAM INITIATION:
000142:                                                                                                  #        IF AN ILLEGAL V/N COMBINATION IS ATTEMPTED, AN ABORT IS CAUSED
000143:                                                                                                  #        (WITH OCTAL 01501).
000144:                                                                                                  #        IF A SECOND ATTEMPT IS MADE TO GO TO SLEEP IN PINBALL, AN ABORT IS
000145:                                                                                                  #        CAUSED (WITH OCTAL 01206). THERE ARE TWO WAYS TO GO TO SLEEP IN PINBALL:
000146:                                                                                                  #                1) ENDIDLE OR DATAWAIT.
000147:                                                                                                  #                2) NVSBWAIT, PRENVBSY, OR NVSUBUSY.
000148:
000149:                                                                                                  #  CONDITIONS LEADING TO THE ABOVE ARE DESCRIBED IN FORTHCOMING MIT/IL
000150:                                                                                                  #  E-REPORT DESCRIBING KEYBOARD AND DISPLAY OPERATION FOR 278.
000151:
000152:                                                                                                  #  OUTPUT --
000153:
000154:                                                                                                  #  INFORMATION TO BE SENT TO THE DISPLAY PANEL IS LEFT IN THE 'DSPTAB'
000155:                                                                                                  #  BUFFERS REGISTERS (UNDER EXEC CONTROL). 'DSPOUT' (A PART OF T4RUPT)
000156:                                                                                                  #  HANDLES THE PLACING OF THE 'DSPTAB' INFORMATION INTO OUTPUT CHANNEL 10
000157:                                                                                                  #  IN INTERRUPT.
000158:
000159:                                                                                                  #  ERASABLE INITIALIZATION --
000160:
000161:                                                                                                  #  FRESH START AND RESTART INITIALIZE THE NECESSARY E REGISTERS FOR
000162:                                                                                                  #  PINBALL IN 'STARTSUB'.  REGISTERS ARE:  DSPTAB BUFFER, CADRSTOR,
000163:                                                                                                  #  REQRET, CLPASS, DSPLOCK, MONSAVE, MONSAVE1, VERBREG, NOUNREG, DSPLIST,
000164:                                                                                                  #  DSPCOUNT, NOUT.
000165:
000166:                                                                                                  #  A COMPLETE LIST OF ALL THE ERASABLES (BOTH RESERVED AND TEMPORARIES) FOR
000167:                                                                                                  #  Page 392
000168:                                                                                                  #  PINBALL IS GIVEN BELOW.
000169:
000170:                                                                                                  #  THE FOLLOWING ARE OF GENERAL INTEREST --
000171:
000172:                                                                                                  #  REMARKS CARDS PRECEDE THE REFERENCED SYMBOL DEFINITION.  SEE SYMBOL
000173:                                                                                                  #  TABLE TO FIND APPROPRIATE PACE NUMBERS.
000174:
000175:                                                                                                  #        NVSUB           CALLING POINT FOR INTERNAL USE OF PINBALL.
000176:                                                                                                  #                        OF RELATED INTEREST     NVSBWAIT
000177:                                                                                                  #                                                NVSUBUSY
000178:                                                                                                  #                                                PRENVBSY
000179:
000180:                                                                                                  #        ENDIDLE         ROUTINE FOR INTERNAL PROGRAMS WISHING TO TO SLEEP WHILE
000181:                                                                                                  #                        AWAITING OPERATORS RESPONSE.
000182:
000183:                                                                                                  #        DSPMM           ROUTINE BY WHICH AN INTERNAL PROGRAM MAY DISPLAY A DECIMAL
000184:                                                                                                  #                        PROGRAM CODE (MAJOR MODE) IN THE PROGRAM (MAJOR MODE) LIGHTS.
000185:                                                                                                  #                        (DSPMM DOES NOT DISPLAY DIRECTLY BUT ENTERS EXEC REQUEST
000186:                                                                                                  #                        FOR DSPMMJB WITH PRIO 30000 AND RETURNS TO CALLER.)
000187:
000188:                                                                                                  #        BLANKSUB        ROUTINE BY WHICH AN INTERNAL PROGRAM MAY BLANK ANY
000189:                                                                                                  #                        COMBINATION OF THE DISPLAY REGISTERS R1, R2, R3.
000190:
000191:                                                                                                  #        JAMTERM         ROUTINE BY WHICH AN INTERNAL PROGRAM MAY PERFORM THE
000192:                                                                                                  #        JAMPROC         TERMINATE (V 34) OR PROCEED (V 33) FUNCTION.
000193:
000194:                                                                                                  #        MONITOR         VERBS FOR PERIODIC (1 PER SEC) DISPLAY.
000195:
000196:                                                                                                  #        PLEASE PERFORM, PLEASE MARK SITUATIONS
000197:                                                                                                  #                REMARKS DESCRIBING HOW AN INTERNAL ROUTINE SHOULD HANDLE
000198:                                                                                                  #                THESE SITUATIONS CAN BE FOUND JUST BEFORE 'NVSUB' (SEE
000199:                                                                                                  #                SYMBOL TABLE FOR PAGE NUMBER).
000200:
000201:                                                                                                  #        THE NOUN TABLE FORMAT IS DESCRIBED ON A PAGE OF REMARKS CARDS JUST
000202:                                                                                                  #        BEFORE 'DSPABC' (SEE SYMBOL TABLE FOR PAGE NUMBER).
000203:
000204:                                                                                                  #        THE NOUN TABLES THEMSELVES ARE FOUND IN LOG SECTION 'PINBALL NOUN
000205:                                                                                                  #        TABLES'.
000206:
000207:                                                                                                  #  FOR FURTHER DETAILS ABOUT OPERATION OF THE KEYBOARD AND DISPLAY SYSTEM
000208:                                                                                                  #  PROGRAM, SEE THE MISSION PLAN AND/OR MIT/IL E-2129
000209:                                                                                                  #  DESCRIBING KEYBOARD AND DISPLAY OPERATION FOR 278.
000210:


000216:
000217:                                                                                                  #  THE FOLLOWING QUOTATION IS PROVIDED THROUGH THE COURTESY OF THE AUTHORS.
000218:
000219:                                                                                                  #  "IT WILL BE PROVED TO THY FACE THAT THOU HAST MEN ABOUT THEE THAT
000220:                                                                                                  #  USUALLY TALK OF A NOUN AND A VERB, AND SUCH ABOMINABLE WORDS AS NO
000221:                                                                                                  #  Page 393
000222:                                                                                                  #  CHRISTIAN EAR CAN ENDURE TO HEAR."
000223:                                                                                                  #                                        HENRY 6, ACT 2, SCENE 4
000224:


000227:
000228:                                                                                                  #  THE FOLLOWING ASSIGNMENTS FOR PINBALL ARE MADE ELSEWHERE
000229:
000230:                                                                                                  #  DSPCOUNT      ERASE                   # DISPLAY POSITION INDICATOR
000231:                                                                                                  #  DECBRNCH      ERASE                   # +DEC, -DEC, OCT INDICATOR
000232:                                                                                                  #  VERBREG       ERASE                   # VERB CODE
000233:                                                                                                  #  NOUNREG       ERASE                   # NOUN CODE
000234:                                                                                                  #  XREG          ERASE                   # R1 INPUT BUFFER
000235:                                                                                                  #  YREG          ERASE                   # R2 INPUT BUFFER
000236:                                                                                                  #  ZREG          ERASE                   # R3 INPUT BUFFER
000237:                                                                                                  #  XREGLP        ERASE                   # LO PART OF XREG (FOR DEC CONV ONLY)
000238:                                                                                                  #  YREGLP        ERASE                   # LO PART OF YREG (FOR DEC CONV ONLY)
000239:                                                                                                  #  HITEMOUT      =       YREGLP          # TEMP FOR DISPLAY OF HRS, MIN, SEC
000240:                                                                                                  #                                        #       MUST = LOTEMOUT-1.
000241:                                                                                                  #  ZREGLP        ERASE                   # LO PART OF ZREG (FOR DEC CONV ONLY)
000242:                                                                                                  #  LOTEMOUT      =       ZREGLP          # TEMP FOR DISPLAY OF HRS, MIN, SEC
000243:                                                                                                  #                                        #       MUST = HITEMOUT+1.
000244:                                                                                                  #  MODREG        ERASE                   # MODE CODE
000245:                                                                                                  #  DSPLOCK       ERASE                   # KEYBOARD/SUBROUTINE CALL INTERLOCK
000246:                                                                                                  #  REQRET        ERASE                   # RETURN REGISTER FOR LOAD
000247:                                                                                                  #  LOADSTAT      ERASE                   # STATUS INDICATOR FOR LOADTST
000248:                                                                                                  #  CLPASS        ERASE                   # PASS INDICATOR FOR CLEAR
000249:                                                                                                  #  NOUT          ERASE                   # ACTIVITY COUNTER FOR DSPTAB
000250:                                                                                                  #  NOUNCADR      ERASE                   # MACHINE CADR FOR NOUN
000251:                                                                                                  #  MONSAVE       ERASE                   # N/V CODE FOR MONITOR. (= MONSAVE1-1)
000252:                                                                                                  #  MONSAVE1      ERASE                   # NOUNCADR FOR MONITOR (MATBS) = MONSAVE+1
000253:                                                                                                  #  MONSAVE2      ERASE                   # NVMONOPT OPTIONS
000254:                                                                                                  #  DSPTAB        ERASE           +13D    # 0-10, DISPLAY PANEL BUFFER, 11-13, C RELAYS
000255:                                                                                                  #  CADRSTOR      ERASE                   # ENDIDLE STORAGE
000256:                                                                                                  #  NVQTEM        ERASE                   # NVSUB STORAGE FOR CALLING ADDRESS
000257:                                                                                                  #                                        # MUST = NVBNKTEM-1.
000258:                                                                                                  #  NVBNKTEM      ERASE                   # NVSUB STORAGE FOR CALLING BANK
000259:                                                                                                  #                                        # MUST = NVQTEM+1
000260:                                                                                                  #  VERBSAVE      ERASE                   # NEEDED FOR RECYCLE
000261:                                                                                                  #  DSPLIST       ERASE                   # WAITING REG FOR DSP SYST INTERNAL USE
000262:                                                                                                  #  EXTVBACT      ERASE                   # EXTENDED VERB ACTIVITY INTERLOCK
000263:                                                                                                  #  DSPTEM1       ERASE                   # BUFFER STORAGE AREA 1 (MOSTLY FOR TIME)
000264:                                                                                                  #  DSPTEM2       ERASE                   # BUFFER STORAGE AREA 2 (MOSTLY FOR DEG)
000265:
000266:                                                                                                  #  END OF ERASABLES RESERVED FOR PINBALL EXECUTIVE ACTION
000267:
000268:                                                                                                  #  TEMPORARIES FOR PINBALL EXECUTIVE ACTION
000269:
000270:                                                                                                  #  Page 394
000271:
000272:                                                                                                  #  DSEXIT        =       INTB15+         # RETURN FOR DSPIN
000273:                                                                                                  #  EXITEM        =       INTB15+         # RETURN FOR SCALE FACTOR ROUTINE SELECT
000274:                                                                                                  #  BLANKRET      =       INTB15+         # RETURN FOR 2BLANK
000275:
000276:                                                                                                  #  WRDRET        =       INTBIT15        # RETURN FOR 5BLANK.
000277:                                                                                                  #  WDRET         =       INTBIT15        # RETURN FOR DSPWD
000278:                                                                                                  #  DECRET        =       INTBIT15        # RETURN FOR PUTCOM(DEC LOAD)
000279:                                                                                                  #  21/22REG      =       INTBIT15        # TEMP FOR CHARIN
000280:
000281:                                                                                                  #  UPDATRET      =       POLISH          # RETURN FOR UPDATNN, UPDATVB
000282:                                                                                                  #  CHAR          =       POLISH          # TEMP FOR CHARIN
000283:                                                                                                  #  ERCNT         =       POLISH          # COUNTER FOR ERROR LIGHT RESET
000284:                                                                                                  #  DECOUNT       =       POLISH          # COUNTER FOR SCALING AND DISPLAY (DEC)
000285:
000286:                                                                                                  #  SGNON         =       VBUF            # TEMP FOR +,- ON
000287:                                                                                                  #  NOUNTEM       =       VBUF            # COUNTER FOR MIXNOUN FETCH
000288:                                                                                                  #  DISTEM        =       VBUF            # COUNTER FOR OCTAL DISPLAY VERB
000289:                                                                                                  #  DECTEM        =       VBUF            # COUNTER FOR FETCH (DEC DISPLAY VERBS)
000290:
000291:                                                                                                  #  SGNOFF        =       VBUF    +1      # TEMP FOR +,- ON
000292:                                                                                                  #  NVTEMP        =       VBUF    +1      # TEMP FOR NVSUB
000293:                                                                                                  #  SFTEMP1       =       VBUF    +1      # STORAGE FOR SF CONST HI PART (=SFTEMP2-1)
000294:                                                                                                  #  HITEMIN       =       VBUF    +1      # TEMP FOR LOAD OF HRS, MIN, SEC
000295:                                                                                                  #                                        #       MUST = LOTEMIN-1.
000296:                                                                                                  #  CODE          =       VBUF    +2      # FOR DSPIN
000297:                                                                                                  #  SFTEMP2       =       VBUF    +2      # STORAGE FOR SF CONST LO PART (=SFTEMP1+1)
000298:                                                                                                  #  LOTEMIN       =       VBUF    +2      # TEMP FOR LOAD OF HRS, MIN, SEC
000299:                                                                                                  #                                        #       MUST = HITEMIN+1
000300:                                                                                                  #  MIXTEMP       =       VBUF    +3      # FOR MIXNOUN DATA
000301:                                                                                                  #  SIGNRET       =       VBUF    +3      # RETURN FOR +,- ON
000302:                                                                                                  #  ALSO MIXTEMP+1 = VBUF+4, MIXTEMP+2 = VBUF+5.
000303:
000304:                                                                                                  #  ENTRET        =       DOTINC          # EXIT FROM ENTER
000305:
000306:                                                                                                  #  WDCNT         =       DOTRET          # CHAR COUNTER FOR DSPWD
000307:                                                                                                  #  INREL         =       DOTRET          # INPUT BUFFER SELECTOR (X, Y, Z, REG)
000308:
000309:                                                                                                  #  DSPMMTEM      =       MATINC          # DSPCOUNT SAVE FOR DSPMM
000310:                                                                                                  #  MIXBR         =       MATINC          # INDICATOR FOR MIXED OR NORMAL NOUN
000311:
000312:                                                                                                  #  TEM1          ERASE                   # EXEC TEMP
000313:                                                                                                  #  DSREL         =       TEM1            # REL ADDRESS FOR DSPIN
000314:
000315:                                                                                                  #  TEM2          ERASE                   # EXEC TEMP
000316:                                                                                                  #  DSMAG         =       TEM2            # MAGNITUDE STORE FOR DSPIN
000317:                                                                                                  #  IDADDTEM      =       TEM2            # MIXNOUN INDIRECT ADDRESS STORAGE
000318:                                                                                                  #  TEM3          ERASE                   # EXEC TEMP
000319:                                                                                                  #  COUNT         =       TEM3            # FOR DSPIN
000320:
000321:                                                                                                  #  Page 395
000322:                                                                                                  #  TEM4          ERASE                   # EXEC TEMP
000323:                                                                                                  #  LSTPTR        =       TEM4            # LIST POINTER FOR GRABUSY
000324:                                                                                                  #  RELRET        =       TEM4            # RETURN FOR RELDSP
000325:                                                                                                  #  FREERET       =       TEM4            # RETURN FOR FREEDSP
000326:                                                                                                  #  DSPWDRET      =       TEM4            # RETURN FOR DSPSIGN
000327:                                                                                                  #  SEPSCRET      =       TEM4            # RETURN FOR SEPSEC
000328:                                                                                                  #  SEPMNRET      =       TEM4            # RETURN FOR SEPMIN
000329:
000330:                                                                                                  #  TEM5          ERASE                   # EXEC TEMP
000331:                                                                                                  #  NOUNADD       =       TEM5            # TEMP STORAGE FOR NOUN ADDRESS
000332:
000333:                                                                                                  #  NNADTEM       ERASE                   # TEMP FOR NOUN ADDRESS TABLE ENTRY
000334:                                                                                                  #  NNTYPTEM      ERASE                   # TEMP FOR NOUN TYPE TABLE ENTRY
000335:                                                                                                  #  IDAD1TEM      ERASE                   # TEMP FOR INDIR ADDRESS TABLE ENTRY (MIXNN)
000336:                                                                                                  #                                        # MUST = IDAD2TEM-1, = IDAD3TEM-2.
000337:                                                                                                  #  IDAD2TEM      ERASE                   # TEMP FOR INDIR ADDRESS TABLE ENTRY (MIXNN)
000338:                                                                                                  #                                        # MUST = IDAD1TEM+1, IDAD3TEM-1.
000339:                                                                                                  #  IDAD3TEM      ERASE                   # TEMP FOR INDIR ADDRESS TABLE ENTRY (MIXNN)
000340:                                                                                                  #                                        # MUST = IDAD1TEM+2, IDAD2TEM+1.
000341:                                                                                                  #  RUTMXTEM      ERASE                   # TEMP FOR SF ROUT TABLE ENTRY (MIXNN ONLY)
000342:
000343:                                                                                                  #  END OF TEMPORARIES FOR PINBALL EXECUTIVE ACTION.
000344:
000345:                                                                                                  #  ADDITIONAL TEMPORARIES FOR PINBALL EXECUTIVE ACTION
000346:
000347:                                                                                                  #        MPAC, THRU MPAC +6
000348:                                                                                                  #        BUF, +1, +2
000349:                                                                                                  #        BUF2, +1, +2
000350:                                                                                                  #        MPTEMP
000351:                                                                                                  #        ADDRWD
000352:
000353:                                                                                                  #  END OF ADDITIONAL TEMPS FOR PINBALL EXEC ACTION
000354:
000355:                                                                                                  #  RESERVED FOR PINBALL INTERRUPT ACTION
000356:
000357:                                                                                                  #  DSPCNT        ERASE                   # COUNTER FOR DSPOUT
000358:                                                                                                  #  UPLOCK        ERASE                   # BIT1 = UPLINK INTERLOCK (ACTIVATED BY
000359:                                                                                                  #                                        # RECEPTION OF A BAD MESSAGE IN UPLINK)
000360:
000361:                                                                                                  #  END OF ERASABLES RESERVED FOR PINBALL INTERRUPT ACTION
000362:
000363:                                                                                                  #  TEMPORARIES FOR PINBALL INTERRUPT ACTION
000364:
000365:                                                                                                  #  KEYTEMP1      =       WAITEXIT        # TEMP FOR KEYRUPT, UPRUPT
000366:                                                                                                  #  DSRUPTEM      =       WAITEXIT        # TEMP FOR DSPOUT
000367:                                                                                                  #  KEYTEMP2      =       RUPTAGN         # TEMP FOR KEYRUPT, UPRUPT
000368:
000369:                                                                                                  #  END OF TEMPORARIES FOR PINBALL INTERRUPT ACTION
000370:
000371:                                                                                                  #  Page 396
000372:                                                                                                  #  THE INPUT CODES ASSUMED FOR THE KEYBOARD ARE,
000373:                                                                                                  #  0             10000
000374:                                                                                                  #  1             00001
000375:                                                                                                  #  9             01001
000376:                                                                                                  #  VERB          10001
000377:                                                                                                  #  ERROR RES     10010
000378:                                                                                                  #  KEY RLSE      11001
000379:                                                                                                  #  +             11010
000380:                                                                                                  #  -             11011
000381:                                                                                                  #  ENTER         11100
000382:                                                                                                  #  CLEAR         11110
000383:                                                                                                  #  NOUN          11111
000384:
000385:                                                                                                  #  (2003 RSB -- The PROCEED key has no keycode; it is read by an alternate mechanism.)
000386:
000387:                                                                                                  #  OUTPUT FORMAT FOR DISPLAY PANEL.  SET OUT0 TO AAAABCCCCCDDDDD.
000388:                                                                                                  #  A'S   SELECTS A RELAYWORD. THIS DETERMINES WHICH PAIR OF CHARACTERS ARE
000389:                                                                                                  #        ENERGIZED.
000390:                                                                                                  #  B     FOR SPECIAL RELAYS SUCH AS SIGNS ETC.
000391:                                                                                                  #  C'S   5 BIT RELAY CODE FOR LEFT CHAR OF PAIR SELECTED BY RELAYWORD.
000392:                                                                                                  #  D'S   5 BIT RELAY CODE FOR RIGHT CHAR OF PAIR SELECTED BY RELAYWORD.
000393:
000394:                                                                                                  #  THE PANEL APPEARS AS FOLLOWS,
000395:                                                                                                  #  MD1   MD2                             (MAJOR MODE)
000396:                                                                                                  #  VD1   VD2 (VERB)      ND1     ND2     (NOUN)
000397:                                                                                                  #  R1D1  R1D2    R1D3    R1D4    R1D5    (R1)
000398:                                                                                                  #  R2D1  R2D2    R2D3    R2D4    R2D5    (R2)
000399:                                                                                                  #  R3D1  R3D2    R3D3    R3D4    R3D5    (R3)
000400:
000401:                                                                                                  #  EACH OF THESE IS GIVEN A DSPCOUNT NUMBER FOR USE WITHIN COMPUTATION ONLY
000402:
000403:                                                                                                  #  MD1   25              R2D1    11              ALL ARE OCTAL
000404:                                                                                                  #  MD2   24              R2D2    10
000405:                                                                                                  #  VD1   23              R2D3     7
000406:                                                                                                  #  VD2   22              R2D4     6
000407:                                                                                                  #  ND1   21              R2D5     5
000408:                                                                                                  #  ND2   20              R3D1     4
000409:                                                                                                  #  R1D1  16              R3D2     3
000410:                                                                                                  #  R1D2  15              R3D3     2
000411:                                                                                                  #  R1D3  14              R3D4     1
000412:                                                                                                  #  R1D4  13              R3D5     0
000413:                                                                                                  #  R1D5  12
000414:
000415:                                                                                                  #  THERE IS AN 11-REGISTER TABLE (DSPTAB) FOR THE DISPLAY PANEL.
000416:
000417:                                                                                                  #  DSPTAB                RELAYWD         BIT11           BITS 10-6       BITS 5-1
000418:                                                                                                  #  RELADD
000419:                                                                                                  #  10            1011                            MD1 (25)        MD2 (24)
000420:                                                                                                  #  9             1010                            VD1 (23)        VD2 (22)
000421:                                                                                                  #  8             1001                            ND1 (21)        ND2 (20)
000422:                                                                                                  #  7             1000                                            R1D1 (16)
000423:                                                                                                  #  Page 397
000424:                                                                                                  #  6             0111            +R1             R1D2 (15)       R1D3 (14)
000425:                                                                                                  #  5             0110            -R1             R1D4 (13)       R1D5 (12)
000426:                                                                                                  #  4             0101            +R2             R2D1 (11)       R2D2 (10)
000427:                                                                                                  #  3             0100            -R2             R2D3 (7)        R2D4 (6)
000428:                                                                                                  #  2             0011                            R2D5 (5)        R3D1 (4)
000429:                                                                                                  #  1             0010            +R3             R3D2 (3)        R3D3 (2)
000430:                                                                                                  #  0             0001            -R3             R3D4 (1)        R3D5 (0)
000431:                                                                                                  #                0000        NO RELAYWORD
000432:
000433:                                                                                                  #  THE 5-BIT OUTPUT RELAY CODES ARE:
000434:
000435:                                                                                                  #  BLANK 00000
000436:                                                                                                  #  0     10101
000437:                                                                                                  #  1     00011
000438:                                                                                                  #  2     11001
000439:                                                                                                  #  3     11011
000440:                                                                                                  #  4     01111
000441:                                                                                                  #  5     11110
000442:                                                                                                  #  6     11100
000443:                                                                                                  #  7     10011
000444:                                                                                                  #  8     11101
000445:                                                                                                  #  9     11111
000446:
000447:                                                                                                  #  OUTPUT BITS USED BY PINBALL:
000448:
000449:                                                                                                  #        KEY RELEASE LIGHT       -       BIT 5 OF CHANNEL 11
000450:                                                                                                  #        VERB/NOUN FLASH         -       BIT 6 OF CHANNEL 11
000451:                                                                                                  #        OPERATOR ERROR LIGHT    -       BIT 7 OF CHANNEL 11
000452:


000456:                                                                                                  #  Page 398
000457:                                                                                                  #  START OF EXECUTIVE SECTION OF PINBALL
000458:
000459: 40,2077                                           BANK     40
000460: 40,2000                                           SETLOC   PINBALL1
000461: 40,2000                                           BANK
000462:
000463: 40,2077                                           COUNT*   $$/PIN
000464: 40,2077           34753        CHARIN             CAF      ONE                                   #  BLOCK DISPLAY SYST
000465: 40,2100           57012                           XCH      DSPLOCK                               #  MAKE DSP SYST BUSY, BUT SAVE OLD
000466: 40,2101           54115                           TS       21/22REG                              #  C(DSPLOCK) FOR ERROR LIGHT RESET.
000467: 40,2102           11042                           CCS      CADRSTOR                              #  ALL KEYS EXCEPT ER TURN ON KR LITE IF
000468: 40,2103           02105                           TC       +2                                    #  CADRSTOR IS FULL.  THIS REMINDS OPERATOR
000469: 40,2104           02112                           TC       CHARIN2                               #  TO RE-ESTABLISH A FLASHING DISPLAY
000470: 40,2105           42156                           CS       ELRCODE1                              #  WHICH HE HAS OBSCURED WITH DISPLAYS OF
000471: 40,2106           60154                           AD       MPAC                                  #  HIS OWN (SEE REMARKS PRECEDING ROUTINE
000472: 40,2107           00006                           EXTEND                                         #  VBRELDSP).
000473: 40,2110           12112                           BZF      CHARIN2
000474: 40,2111           04374                           TC       RELDSPON
000475: 40,2112           56154        CHARIN2            XCH      MPAC
000476: 40,2113           54117                           TS       CHAR
000477: 40,2114           50000                           INDEX    A
000478: 40,2115           02116                           TC       +1                                    #  INPUT CODE    FUNCTION
000479: 40,2116           03434                           TC       CHARALRM                              #  0
000480: 40,2117           02175                           TC       NUM                                   #  1
000481: 40,2120           02175                           TC       NUM                                   #  2
000482: 40,2121           02175                           TC       NUM                                   #  3
000483: 40,2122           02175                           TC       NUM                                   #  4
000484: 40,2123           02175                           TC       NUM                                   #  5
000485: 40,2124           02175                           TC       NUM                                   #  6
000486: 40,2125           02175                           TC       NUM                                   #  7
000487: 40,2126           02161                           TC       89TEST                                #  10            8
000488: 40,2127           02161                           TC       89TEST                                #  11            9
000489: 40,2130           03434                           TC       CHARALRM                              #  12
000490: 40,2131           03434                           TC       CHARALRM                              #  13
000491: 40,2132           03434                           TC       CHARALRM                              #  14
000492: 40,2133           03434                           TC       CHARALRM                              #  15
000493: 40,2134           03434                           TC       CHARALRM                              #  16
000494: 40,2135           03434                           TC       CHARALRM                              #  17
000495: 40,2136           02173                           TC       NUM        -2                         #  20            0
000496: 40,2137           02354                           TC       VERB                                  #  21            VERB
000497: 40,2140           03603                           TC       ERROR                                 #  22            ERROR LIGHT RESET
000498: 40,2141           03434                           TC       CHARALRM                              #  23
000499: 40,2142           03434                           TC       CHARALRM                              #  24
000500: 40,2143           03434                           TC       CHARALRM                              #  25
000501: 40,2144           03434                           TC       CHARALRM                              #  26
000502: 40,2145           03434                           TC       CHARALRM                              #  27
000503: 40,2146           03434                           TC       CHARALRM                              #  30
000504: 40,2147           03461                           TC       VBRELDSP                              #  31            KEY RELEASE
000505: 40,2150           02407                           TC       POSGN                                 #  32            +
000506:                                                                                                  #  Page 399
000507: 40,2151           02374                           TC       NEGSGN                                #  33            -
000508: 40,2152           02157                           TC       ENTERJMP                              #  34            ENTER
000509: 40,2153           03434                           TC       CHARALRM                              #  35
000510: 40,2154           02467                           TC       CLEAR                                 #  36            CLEAR
000511: 40,2155           02370                           TC       NOUN                                  #  37            NOUN
000512:
000513: 40,2156           00022        ELRCODE1           OCT      22
000514: 40,2157           04635        ENTERJMP           TC       POSTJUMP
000515: 40,2160           62002                           CADR     ENTER
000516:
000517: 40,2161           10777        89TEST             CCS      DSPCOUNT
000518: 40,2162           02166                           TC       +4                                    #  +
000519: 40,2163           02166                           TC       +3                                    #  +0
000520: 40,2164           05155                           TC       ENDOFJOB                              #  - BLOCK DATA IN IF DSPCOUNT IS - OR -0
000521: 40,2165           05155                           TC       ENDOFJOB                              #  -0
000522: 40,2166           36245                           CAF      THREE
000523: 40,2167           71000                           MASK     DECBRNCH
000524: 40,2170           10000                           CCS      A
000525: 40,2171           02175                           TC       NUM                                   #  IF DECBRNCH IS +, 8 OR 9 OK
000526: 40,2172           03434                           TC       CHARALRM                              #  IF DECBRNCH IS +0, REJECT 8 OR 9
000527:
000528:                                                                                                  #  NUM ASSEMBLES OCTAL 3 BITS AT A TIME.  FOR DECIMAL IT CONVERTS INCOMING
000529:                                                                                                  #  WORD AS A FRACTION, KEEPING RESULTS TO DP.
000530:                                                                                                  #  OCTAL RESULTS ARE LEFT IN XREG, YREG, OR ZREG.  HI PART OF DEC IN XREG,
000531:                                                                                                  #  YREG, ZREG.  THE LOW PARTS IN XREGLP, YREGLP, OR ZREGLP.
000532:                                                                                                  #  DECBRNCH IS LEFT AT +0 FOR OCT, +1 FOR + DEC, +2 FOR - DEC.
000533:                                                                                                  #  IF DSPCOUNT WAS LEFT -, NO MORE DATA IS ACCEPTED.
000534:
000535: 40,2173           34755                           CAF      ZERO
000536: 40,2174           54117                           TS       CHAR
000537: 40,2175           10777        NUM                CCS      DSPCOUNT
000538: 40,2176           02202                           TC       +4                                    #  +
000539: 40,2177           02202                           TC       +3                                    #  +0
000540: 40,2200           02201                           TC       +1                                    #  -BLOCK DATA IN IF DSPCOUNT IS -
000541: 40,2201           05155                           TC       ENDOFJOB                              #  -0
000542: 40,2202           02324                           TC       GETINREL
000543: 40,2203           11015                           CCS      CLPASS                                #  IF CLPASS IS + OR +0, MAKE IT +0.
000544: 40,2204           34755                           CAF      ZERO
000545: 40,2205           55015                           TS       CLPASS
000546: 40,2206           02207                           TC       +1
000547: 40,2207           50117                           INDEX    CHAR
000548: 40,2210           34066                           CAF      RELTAB
000549: 40,2211           74346                           MASK     LOW5
000550: 40,2212           54124                           TS       CODE
000551: 40,2213           30777                           CA       DSPCOUNT
000552: 40,2214           54143                           TS       COUNT
000553: 40,2215           03322                           TC       DSPIN
000554: 40,2216           36245                           CAF      THREE
000555:                                                                                                  #  Page 400
000556: 40,2217           71000                           MASK     DECBRNCH
000557: 40,2220           10000                           CCS      A                                     #  +0, OCTAL.  +1, + DEC.  +2, - DEC.
000558: 40,2221           02232                           TC       DECTOBIN                              #  +
000559: 40,2222           50137                           INDEX    INREL                                 #  +0 OCTAL
000560: 40,2223           57001                           XCH      VERBREG
000561: 40,2224           54022                           TS       CYL
000562: 40,2225           40022                           CS       CYL
000563: 40,2226           40022                           CS       CYL
000564: 40,2227           56022                           XCH      CYL
000565: 40,2230           60117                           AD       CHAR
000566: 40,2231           02247                           TC       ENDNMTST
000567: 40,2232           50137        DECTOBIN           INDEX    INREL
000568: 40,2233           57001                           XCH      VERBREG
000569: 40,2234           54154                           TS       MPAC                                  #  SUM X 2EXP-14 IN MPAC
000570: 40,2235           34755                           CAF      ZERO
000571: 40,2236           54155                           TS       MPAC       +1
000572: 40,2237           34363                           CAF      TEN                                   #  10 X 2EXP-14
000573: 40,2240           07307                           TC       SHORTMP                               #  10SUM X 2EXP-28 IN MPAC, MPAC+1
000574: 40,2241           56155                           XCH      MPAC       +1
000575: 40,2242           60117                           AD       CHAR
000576: 40,2243           54155                           TS       MPAC       +1
000577: 40,2244           02247                           TC       ENDNMTST                              #  NO OF
000578: 40,2245           26154                           ADS      MPAC                                  #  OF MUST BE 5TH CHAR
000579: 40,2246           02265                           TC       DECEND
000580: 40,2247           50137        ENDNMTST           INDEX    INREL
000581: 40,2250           55001                           TS       VERBREG
000582: 40,2251           40777                           CS       DSPCOUNT
000583: 40,2252           50137                           INDEX    INREL
000584: 40,2253           62315                           AD       CRITCON
000585: 40,2254           00006                           EXTEND
000586: 40,2255           12257                           BZF      ENDNUM                                #  -0, DSPCOUNT = CRITCON
000587: 40,2256           02312                           TC       MORNUM                                #  - , DSPCOUNT G/ CRITCON
000588: 40,2257           36245        ENDNUM             CAF      THREE
000589: 40,2260           71000                           MASK     DECBRNCH
000590: 40,2261           10000                           CCS      A
000591: 40,2262           02265                           TC       DECEND
000592: 40,2263           40777        ENDALL             CS       DSPCOUNT                              #  BLOCK NUMIN BY PLACING DSPCOUNT
000593: 40,2264           02313                           TC       MORNUM     +1                         #  NEGATIVELY
000594: 40,2265           44753        DECEND             CS       ONE
000595: 40,2266           60137                           AD       INREL
000596: 40,2267           00006                           EXTEND
000597: 40,2270           62263                           BZMF     ENDALL                                #  IF INREL=0,1 (VBREG,NNREG) LEAVE WHOLE
000598: 40,2271           07103                           TC       DMP                                   #  IF INREL=2,3,4 (R1,R2,R3), CONVERT TO FRAC
000599:                                                                                                  #  MULT SUM X 2EXP-28 IN MPAC, MPAC+1 BY
000600: 40,2272           02322                           ADRES    DECON                                 #  2EXP14/10EXP5, GIVES (SUM/10EXP5)X2EXP-14
000601: 40,2273           36245                           CAF      THREE                                 #  IN MPAC, +1, +2.
000602: 40,2274           71000                           MASK     DECBRNCH
000603: 40,2275           50000                           INDEX    A
000604: 40,2276           02276                           TC       +0
000605: 40,2277           02303                           TC       +DECSGN
000606:                                                                                                  #  Page 401
000607: 40,2300           00006                           EXTEND                                         #  - CASE
000608: 40,2301           40156                           DCS      MPAC       +1
000609: 40,2302           52156                           DXCH     MPAC       +1
000610: 40,2303           56156        +DECSGN            XCH      MPAC       +2
000611: 40,2304           50137                           INDEX    INREL
000612: 40,2305           55004                           TS       XREGLP     -2
000613: 40,2306           56155                           XCH      MPAC       +1
000614: 40,2307           50137                           INDEX    INREL
000615: 40,2310           55001                           TS       VERBREG
000616: 40,2311           02263                           TC       ENDALL
000617: 40,2312           10777        MORNUM             CCS      DSPCOUNT                              #  DECREMENT DSPCOUNT
000618: 40,2313           54777                           TS       DSPCOUNT
000619: 40,2314           05155                           TC       ENDOFJOB
000620:
000621: 40,2315           00022        CRITCON            OCT      22                                    #  (DEC 18)
000622: 40,2316           00020                           OCT      20                                    #  (DEC 16)
000623: 40,2317           00012                           OCT      12                                    #  (DEC 10)
000624: 40,2320           00005                           OCT      5
000625: 40,2321           00000                           OCT      0
000626:
000627: 40,2322           05174 13261  DECON              2DEC     1          E-5        B14             #  2EXP14/10EXP5 = .16384 DEC
000628:
000629:                                                                                                  #  GETINREL GETS PROPER DATA REG REL ADDRESS FOR CURRENT C(DSPCOUNT) AND
000630:                                                                                                  #  PUTS IN INTO INREL. +0 VERBREG, 1 NOUNREG, 2 XREG, 3 YREG, 4 ZREG.
000631:
000632: 40,2324           50777        GETINREL           INDEX    DSPCOUNT
000633: 40,2325           32330                           CAF      INRELTAB
000634: 40,2326           54137                           TS       INREL                                 #  (A TEMP. REG)
000635: 40,2327           00002                           TC       Q
000636:
000637: 40,2330           00004        INRELTAB           OCT      4                                     #  R3D5 (DSPCOUNT = 0)
000638: 40,2331           00004                           OCT      4                                     #  R3D4           =(1)
000639: 40,2332           00004                           OCT      4                                     #  R3D3           =(2)
000640: 40,2333           00004                           OCT      4                                     #  R3D2           =(3)
000641: 40,2334           00004                           OCT      4                                     #  R3D1           =(4)
000642: 40,2335           00003                           OCT      3                                     #  R2D5           =(5)
000643: 40,2336           00003                           OCT      3                                     #  R2D4           =(6)
000644: 40,2337           00003                           OCT      3                                     #  R2D3           =(7)
000645: 40,2340           00003                           OCT      3                                     #  R2D2           =(8D)
000646: 40,2341           00003                           OCT      3                                     #  R2D1           =(9D)
000647: 40,2342           00002                           OCT      2                                     #  R1D5           =(10D)
000648: 40,2343           00002                           OCT      2                                     #  R1D4           =(11D)
000649: 40,2344           00002                           OCT      2                                     #  R1D3           =(12D)
000650: 40,2345           00002                           OCT      2                                     #  R1D2           =(13D)
000651: 40,2346           00002                           OCT      2                                     #  R1D1           =(14D)
000652: 40,2347           05705                           TC       CCSHOLE                               #  NO DSPCOUNT NUMBER = 15D
000653: 40,2350           00001                           OCT      1                                     #  ND2            =(16D)
000654: 40,2351           00001                           OCT      1                                     #  ND1            =(17D)
000655:                                                                                                  #  Page 402
000656: 40,2352           00000                           OCT      0                                     #  VD2            =(18D)
000657: 40,2353           00000                           OCT      0                                     #  VD1            =(19D)
000658:
000659: 40,2354           34755        VERB               CAF      ZERO
000660: 40,2355           55001                           TS       VERBREG
000661: 40,2356           34360                           CAF      VD1
000662: 40,2357           54777        NVCOM              TS       DSPCOUNT
000663: 40,2360           02601                           TC       2BLANK
000664: 40,2361           34753                           CAF      ONE
000665: 40,2362           55000                           TS       DECBRNCH                              #  SET FOR DEC V/N CODE
000666: 40,2363           34755                           CAF      ZERO
000667: 40,2364           55013                           TS       REQRET                                #  SET FOR ENTPAS0
000668: 40,2365           34217                           CAF      ENDINST                               #  IF DSPALARM OCCURS BEFORE FIRST ENTPAS0
000669: 40,2366           54136                           TS       ENTRET                                #  OR NVSUB, ENTRET MUST ALREADY BE SET
000670:                                                                                                  #  TO TC ENDOFJOB
000671: 40,2367           05155                           TC       ENDOFJOB
000672: 40,2370           34755        NOUN               CAF      ZERO
000673: 40,2371           55002                           TS       NOUNREG
000674: 40,2372           34361                           CAF      ND1                                   #  ND1, OCT 21 (DEC 17)
000675: 40,2373           02357                           TC       NVCOM
000676:
000677: 40,2374           02446        NEGSGN             TC       SIGNTEST
000678: 40,2375           02433                           TC       -ON
000679: 40,2376           34752                           CAF      TWO
000680: 40,2377           50137        BOTHSGN            INDEX    INREL                                 #  SET DEC COMP BIT TO 1 (IN DECBRNCH)
000681: 40,2400           64745                           AD       BIT7                                  #  BIT 5 FOR R1.  BIT 4 FOR R2.
000682: 40,2401           27000                           ADS      DECBRNCH                              #  BIT 3 FOR R3.
000683: 40,2402           11015        FIXCLPAS           CCS      CLPASS                                #  IF CLPASS IS + OR +0. MAKE IT +0.
000684: 40,2403           34755                           CAF      ZERO
000685: 40,2404           55015                           TS       CLPASS
000686: 40,2405           02406                           TC       +1
000687: 40,2406           05155                           TC       ENDOFJOB
000688:
000689: 40,2407           02446        POSGN              TC       SIGNTEST
000690: 40,2410           02413                           TC       +ON
000691: 40,2411           34753                           CAF      ONE
000692: 40,2412           02377                           TC       BOTHSGN
000693:
000694: 40,2413           22002        +ON                LXCH     Q
000695: 40,2414           02324                           TC       GETINREL
000696: 40,2415           50137                           INDEX    INREL
000697: 40,2416           32441                           CAF      SGNTAB     -2
000698: 40,2417           54123                           TS       SGNOFF
000699: 40,2420           64753                           AD       ONE
000700: 40,2421           54122                           TS       SGNON
000701: 40,2422           34755        SGNCOM             CAF      ZERO
000702: 40,2423           54124                           TS       CODE
000703: 40,2424           56123                           XCH      SGNOFF
000704:                                                                                                  #  Page 403
000705: 40,2425           03404                           TC       11DSPIN
000706: 40,2426           34741                           CAF      BIT11
000707: 40,2427           54124                           TS       CODE
000708: 40,2430           56122                           XCH      SGNON
000709: 40,2431           03404                           TC       11DSPIN
000710: 40,2432           00001                           TC       L
000711: 40,2433           22002        -ON                LXCH     Q
000712: 40,2434           02324                           TC       GETINREL
000713: 40,2435           50137                           INDEX    INREL
000714: 40,2436           32441                           CAF      SGNTAB     -2
000715: 40,2437           54122                           TS       SGNON
000716: 40,2440           64753                           AD       ONE
000717: 40,2441           54123                           TS       SGNOFF
000718: 40,2442           02422                           TC       SGNCOM
000719:
000720: 40,2443           00005        SGNTAB             OCT      5                                     #  -R1
000721: 40,2444           00003                           OCT      3                                     #  -R2
000722: 40,2445           00000                           OCT      0                                     #  -R3
000723:
000724: 40,2446           22002        SIGNTEST           LXCH     Q                                     #  ALLOWS +,- ONLY WHEN DSPCOUNT=R1D1,
000725: 40,2447           36245                           CAF      THREE                                 #  R2D1, OR R3D1.  ALLOWS ONLY FIRST OF
000726: 40,2450           71000                           MASK     DECBRNCH                              #  CONSECUTIVE +/- CHARACTERS.
000727: 40,2451           10000                           CCS      A                                     #  IF LOW2 BITS OF DECBRNCH NOT= 0,  SIGN
000728: 40,2452           05155                           TC       ENDOFJOB                              #  FOR THIS WORD ALREADY IN. REJECT.
000729: 40,2453           44317                           CS       R1D1
000730: 40,2454           02462                           TC       SGNTST1
000731: 40,2455           44320                           CS       R2D1
000732: 40,2456           02462                           TC       SGNTST1
000733: 40,2457           44321                           CS       R3D1
000734: 40,2460           02462                           TC       SGNTST1
000735: 40,2461           05155                           TC       ENDOFJOB                              #  NO MATCH FOUND. SIGN ILLEGAL
000736: 40,2462           60777        SGNTST1            AD       DSPCOUNT
000737: 40,2463           00006                           EXTEND
000738: 40,2464           12466                           BZF      +2                                    #  MATCH FOUND
000739: 40,2465           00002                           TC       Q
000740: 40,2466           00001                           TC       L                                     #  SIGN LEGAL
000741:
000742:                                                                                                  #  CLEAR BLANKS WHICH R1, R2, R3 IS CURRENT OR LAST TO BE DISPLAYED (PERTINENT
000743:                                                                                                  #  XREG, YREG, ZREG IS CLEARED).  SUCCESSIVE CLEARS TAKE CARE OF EACH RX
000744:                                                                                                  #  L/ RC UNTIL R1 IS DONE. THEN NO FURTHER ACTION.
000745:
000746:                                                                                                  #  THE SINGLE COMPONENT LOAD VERBS ALLOW ONLY THE SINGLE RC THAT IS
000747:                                                                                                  #  APPROPRIATE TO BE CLEARED.
000748:
000749:                                                                                                  #  CLPASS        +0 PASS0, CAN BE BACKED UP
000750:                                                                                                  #                +NZ HIPASS, CAN BE BACKED UP
000751:                                                                                                  #                -NZ PASS0, CANNOT BE BACKED UP
000752:                                                                                                  #  Page 404
000753: 40,2467           10777        CLEAR              CCS      DSPCOUNT
000754: 40,2470           64753                           AD       ONE
000755: 40,2471           02473                           TC       +2
000756: 40,2472           64753                           AD       ONE
000757: 40,2473           50000                           INDEX    A                                     #  DO NOT CHANGE DSPCOUNT BECAUSE MAY LATER
000758: 40,2474           32330                           CAF      INRELTAB                              #  FAIL LEGALTST.
000759: 40,2475           54137                           TS       INREL                                 #  MUST SET INREL, EVEN FOR HIPASS.
000760: 40,2476           11015                           CCS      CLPASS
000761: 40,2477           02505                           TC       CLPASHI                               #  +
000762: 40,2500           02502                           TC       +2                                    #  +0    IF CLPASS IS +0 OR -, IT IS PASS0
000763: 40,2501           02502                           TC       +1                                    #  -
000764: 40,2502           30137                           CA       INREL
000765: 40,2503           02527                           TC       LEGALTST
000766: 40,2504           02522                           TC       CLEAR1
000767: 40,2505           10137        CLPASHI            CCS      INREL
000768: 40,2506           54137                           TS       INREL
000769: 40,2507           02527                           TC       LEGALTST
000770: 40,2510           32577                           CAF      DOUBLK     +2                         #  +3 TO - NUMBER, BACKS DATA REQUESTS.
000771: 40,2511           27013                           ADS      REQRET
000772: 40,2512           30137                           CA       INREL
000773: 40,2513           54125                           TS       MIXTEMP                               #  TEMP STORAGE FOR INREL
000774: 40,2514           00006                           EXTEND
000775: 40,2515           27001                           DIM      VERBREG                               #  DECREMENT VERB AND RE-DISPLAY
000776: 40,2516           04616                           TC       BANKCALL
000777: 40,2517           62340                           CADR     UPDATVB
000778: 40,2520           30125                           CA       MIXTEMP
000779: 40,2521           54137                           TS       INREL                                 #  RESTORE INREL
000780: 40,2522           02525        CLEAR1             TC       CLR5
000781: 40,2523           25015                           INCR     CLPASS                                #  ONLY IF CLPASS IS + OR +0.
000782: 40,2524           05155                           TC       ENDOFJOB                              #  SET FOR HIGHER PASS.
000783: 40,2525           22002        CLR5               LXCH     Q                                     #  USES 5BLANK BUT AVOIDS ITS TC GETINREL
000784: 40,2526           02540                           TC       5BLANK     +2
000785: 40,2527           67746        LEGALTST           AD       NEG2
000786: 40,2530           10000                           CCS      A
000787: 40,2531           00002                           TC       Q                                     #  LEGAL         INREL G/ 2
000788: 40,2532           05705                           TC       CCSHOLE
000789: 40,2533           05155                           TC       ENDOFJOB                              #  ILLEGAL       INREL=0,1
000790: 40,2534           00002                           TC       Q                                     #  LEGAL         INREL=2
000791:
000792:                                                                                                  #  5BLANK BLANKS 5 CHAR DISPLAY WORD IN R1, R2, OR R3. IT ALSO ZEROES XREG,
000793:                                                                                                  #  YREG, OR ZREG. PLACE ANY + DSPCOUNT NUMBER FOR PERTINENT RC INTO DSPCOUNT.
000794:                                                                                                  #  DSPCOUNT IS LEFT SET TO LEFT MOST DSP NUMB FOR RC JUST BLANKED.
000795:
000796: 40,2535           54777                           TS       DSPCOUNT                              #  NEEDED FOR BLANKSUB
000797: 40,2536           22002        5BLANK             LXCH     Q
000798: 40,2537           02324                           TC       GETINREL
000799: 40,2540           34755                           CAF      ZERO
000800: 40,2541           50137                           INDEX    INREL
000801: 40,2542           55001                           TS       VERBREG                               #  ZERO X, Y, Z, REG.
000802:                                                                                                  #  Page 405
000803: 40,2543           50137                           INDEX    INREL
000804: 40,2544           55004                           TS       XREGLP     -2
000805: 40,2545           54124                           TS       CODE
000806: 40,2546           50137                           INDEX    INREL                                 #  ZERO PERTINENT DEC COMP BIT.
000807: 40,2547           44745                           CS       BIT7                                  #  PROTECT OTHERS
000808: 40,2550           71000                           MASK     DECBRNCH
000809: 40,2551           72600                           MASK     BRNCHCON                              #  ZERO LOW 2 BITS.
000810: 40,2552           55000                           TS       DECBRNCH
000811: 40,2553           50137                           INDEX    INREL
000812: 40,2554           32570                           CAF      SINBLANK   -2                         #  BLANK ISOLATED CHAR SEPARATELY
000813: 40,2555           54143                           TS       COUNT
000814: 40,2556           03322                           TC       DSPIN
000815: 40,2557           50137        5BLANK1            INDEX    INREL
000816: 40,2560           32573                           CAF      DOUBLK     -2
000817: 40,2561           54777                           TS       DSPCOUNT
000818: 40,2562           02601                           TC       2BLANK
000819: 40,2563           44752                           CS       TWO
000820: 40,2564           26777                           ADS      DSPCOUNT
000821: 40,2565           02601                           TC       2BLANK
000822: 40,2566           50137                           INDEX    INREL
000823: 40,2567           34315                           CAF      R1D1       -2
000824: 40,2570           54777                           TS       DSPCOUNT                              #  SET DSPCOUNT TO LEFT MOST DSP NUMBER
000825: 40,2571           00001                           TC       L                                     #  OF REG. JUST BLANKED
000826:
000827: 40,2572           00016        SINBLANK           OCT      16                                    #  DEC 14
000828: 40,2573           00005                           OCT      5
000829: 40,2574           00004                           OCT      4
000830: 40,2575           00015        DOUBLK             OCT      15                                    #  DEC 13
000831: 40,2576           00011                           OCT      11                                    #  DEC 9
000832: 40,2577           00003                           OCT      3
000833:
000834: 40,2600           77774        BRNCHCON           OCT      77774
000835:
000836:                                                                                                  #  2BLANK BLANKS TWO CHAR. PLACE DSP NUMBER OF LEFT CHAR OF THE PAIR INTO
000837:                                                                                                  #  DSPCOUNT. THIS NUMBER IS LEFT IN DSPCOUNT
000838:
000839: 40,2601           30777        2BLANK             CA       DSPCOUNT
000840: 40,2602           54021                           TS       SR
000841: 40,2603           42614                           CS       BLANKCON
000842: 40,2604           00004                           INHINT
000843: 40,2605           50021                           INDEX    SR
000844: 40,2606           57023                           XCH      DSPTAB
000845: 40,2607           00006                           EXTEND
000846: 40,2610           62612                           BZMF     +2                                    #  IF OLD CONTENTS -, NOUT OK
000847: 40,2611           25016                           INCR     NOUT                                  #  IF OLD CONTENTS +, +1 TO NOUT
000848: 40,2612           00003                           RELINT                                         #  IF -, NOUT OK
000849: 40,2613           00002                           TC       Q
000850: 40,2614           04000        BLANKCON           OCT      4000
000851:
000852:                                                                                                  #  Page 406
000853:                                                                                                  #  ENTER PASS 0 IS THE EXECUTE FUNCTION. HIGHER ORDER ENTERS ARE TO LOAD
000854:                                                                                                  #  DATA. THE SIGN OF REQRET DETERMINES THE PASS, + FOR PASS 0, - FOR HIGHER
000855:                                                                                                  #  PASSES.
000856:
000857:                                                                                                  #  MACHINE CADR TO BE SPECIFIED (MCTBS) NOUNS DESIRE AN ECADR TO BE LOADED
000858:                                                                                                  #  WHEN USED WITH LOAD VERBS, MONITOR VERBS, OR DISPLAY VERBS (EXCEPT
000859:                                                                                                  #  VERB = FIXED MEMORY DISPLAY, WHICH REQUIRES AN FCADR).
000860:
000861: 41,2000                                           BANK     41
000862: 41,2000                                           SETLOC   PINBALL2
000863: 41,2000                                           BANK
000864:
000865: 41,2000                                           COUNT*   $$/PIN
000866: 41,2000           03544        NVSUBB             TC       NVSUB1                                #  STANDARD LEAD INS. DONT MOVE.
000867: 41,2001           02775        LOADLV1            TC       LOADLV
000868:
000869:                                                                                                  #  END OF STANDARD LEAD INS.
000870:
000871: 41,2002           34755        ENTER              CAF      ZERO
000872: 41,2003           55015                           TS       CLPASS
000873: 41,2004           34217                           CAF      ENDINST
000874: 41,2005           54136                           TS       ENTRET
000875: 41,2006           11013                           CCS      REQRET
000876: 41,2007           02035                           TC       ENTPAS0                               #  IF +, PASS 0
000877: 41,2010           02035                           TC       ENTPAS0                               #  IF +, PASS 0
000878: 41,2011           02012                           TC       +1                                    #  IF -, NOT PASS 0
000879: 41,2012           32033        ENTPASHI           CAF      MMADREF
000880: 41,2013           61013                           AD       REQRET                                #  IF L/ 2 CHAR IN FOR MM CODE, ALARM
000881: 41,2014           00006                           EXTEND                                         #  AND RECYCLE (DECIDE AT MMCHANG+1).
000882: 41,2015           12027                           BZF      ACCEPTWD
000883: 41,2016           36245                           CAF      THREE                                 #  IF DEC, ALARM IF L/ 5 CHAR IN FOR DATA,
000884: 41,2017           71000                           MASK     DECBRNCH                              #  BUT LEAVE REQRET - AND FLASH ON, SO
000885: 41,2020           10000                           CCS      A                                     #  OPERATOR CAN SUPPLY MISSING NUMERICAL
000886: 41,2021           02023                           TC       +2                                    #  CHARACTERS AND CONTINUE.
000887: 41,2022           02027                           TC       ACCEPTWD                              #  OCTAL. ANY NUMBER OF CHAR OK.
000888: 41,2023           10777                           CCS      DSPCOUNT
000889: 41,2024           02351                           TC       GODSPALM                              #  LESS THAN 5 CHAR DEC(DSPCOUNT IS +)
000890: 41,2025           02351                           TC       GODSPALM                              #  LESS THAN 5 CHAR DEC(DSPCOUNT IS +)
000891: 41,2026           02027                           TC       +1                                    #  5 CHAR IN (DSPCOUNT IS -)
000892: 41,2027           41013        ACCEPTWD           CS       REQRET                                #  5 CHAR IN (DSPCOUNT IS -)
000893: 41,2030           55013                           TS       REQRET                                #  SET REQRET +.
000894: 41,2031           04433                           TC       FLASHOFF
000895: 41,2032           01013                           TC       REQRET
000896:
000897: 41,2033     0136               ENTEXIT            =        ENTRET
000898:
000899: 41,2033           03431        MMADREF            ADRES    MMCHANG    +1                         #  ASSUMES TC REQMM AT MMCHANG.
000900:
000901:                                                                                                  #  Page 407
000902: 41,2034           00034        LOWVERB            DEC      28         B-14                       #  LOWER VERB THAT AVOIDS NOUN TEST.
000903:
000904: 41,2035           34755        ENTPAS0            CAF      ZERO                                  #  NOUN VERB SUB ENTERS HERE
000905: 41,2036           55000                           TS       DECBRNCH
000906: 41,2037           44360                           CS       VD1                                   #  BLOCK FURTHER NUM CHAR, SO THAT STRAY
000907: 41,2040           54777                           TS       DSPCOUNT                              #  CHAR DO NOT GET INTO VERB OR NOUN LTS.
000908: 41,2041           41001        TESTVB             CS       VERBREG                               #  IF VERB IS G/E LOWVB, SKIP NOUN TEST.
000909: 41,2042           55041                           TS       VERBSAVE                              #  SAVE VERB FOR POSSIBLE RECYCLE.
000910: 41,2043           62034                           AD       LOWVERB                               #  LOWVERB - VB
000911: 41,2044           00006                           EXTEND
000912: 41,2045           62133                           BZMF     VERBFAN                               #  VERB G/ E LOWVERB
000913: 41,2046           00006        TESTNN             EXTEND                                         #  VERB L/ LOWVERB
000914: 41,2047           32114                           DCA      LODNNLOC                              #  SWITCH BANKS TO NOUN TABLE READING
000915: 41,2050           52006                           DXCH     Z                                     #  ROUTINE.
000916: 41,2051           50140                           INDEX    MIXBR
000917: 41,2052           02052                           TC       +0
000918: 41,2053           02055                           TC       +2                                    #  NORMAL
000919: 41,2054           02221                           TC       MIXNOUN                               #  MIXED
000920: 41,2055           10146                           CCS      NNADTEM                               #  NORMAL
000921: 41,2056           02131                           TC       VERBFAN    -2                         #        NORMAL  IF +
000922: 41,2057           02351                           TC       GODSPALM                              #  NOT IN USE    IF +0
000923: 41,2060           02064                           TC       REQADD                                #  SPECIFY MACHINE CADR IF -
000924: 41,2061           25017                           INCR     NOUNCADR                              #  AUGMENT MACHINE CADR IF -0
000925: 41,2062           04311                           TC       SETNADD                               #  ECADR FROM NOUNCADR, SETS EB, NOUNADD.
000926: 41,2063           02120                           TC       INTMCTBS   +2
000927: 41,2064           34735        REQADD             CAF      BIT15                                 #  SET CLPASS FOR PASS 0 ONLY
000928: 41,2065           55015                           TS       CLPASS
000929: 41,2066           44217                           CS       ENDINST                               #  TEST IF REACHED HERE FROM INTERNAL OR
000930: 41,2067           60136                           AD       ENTEXIT                               #        FROM EXTERNAL
000931: 41,2070           00006                           EXTEND
000932: 41,2071           12073                           BZF      +2                                    #  EXTERNAL MACH CADR TO BE SPECIFIED
000933: 41,2072           02116                           TC       INTMCTBS
000934: 41,2073           02307                           TC       REQDATZ                               #  EXTERNAL MACH CADR TO BE SPECIFIED
000935: 41,2074           11000                           CCS      DECBRNCH                              #  ALARM AND RECYCLE IF DECIMAL USED
000936: 41,2075           04145                           TC       ALMCYCLE                              #  FOR MCTBS.
000937: 41,2076           44360                           CS       VD1                                   #  OCTAL USED OK
000938: 41,2077           54777                           TS       DSPCOUNT                              #  BLOCK NUM CHAR IN
000939: 41,2100           11042                           CCS      CADRSTOR
000940: 41,2101           02104                           TC       +3                                    #  EXTERNAL MCTBS DISPLAY WILL LEAVE FLASH
000941: 41,2102           02105                           TC       USEADD                                #  ON IF ENDIDLE NOT = +0.
000942: 41,2103           02104                           TC       +1
000943: 41,2104           04427                           TC       FLASHON
000944: 41,2105           57005        USEADD             XCH      ZREG
000945: 41,2106           04303                           TC       SETNCADR                              #  ECADR INTO NOUNCADR. SET EB, NOUNADD.
000946: 41,2107           00006                           EXTEND
000947: 41,2110           32114                           DCA      LODNNLOC                              #  SWITCH BANKS TO NOUN TABLE READING
000948: 41,2111           52006                           DXCH     Z                                     #  ROUTINE.
000949: 41,2112           02133                           TC       VERBFAN
000950:
000951: 41,2113     0777                                  EBANK=   DSPCOUNT
000952:                                                                                                  #  Page 408
000953: 41,2113           02103 64101  LODNNLOC           2CADR    LODNNTAB
000954:
000955: 41,2115           77772        NEG5               OCT      77772
000956:
000957: 41,2116           30156        INTMCTBS           CA       MPAC       +2                         #  INTERNAL MACH CADR TO BE SPECIFIED.
000958: 41,2117           04303                           TC       SETNCADR                              #  ECADR INTO NOUNCADR. SET EB. NOUNADD.
000959: 41,2120           44756                           CS       FIVE                                  #  NVSUB CALL LEFT CADR IN MPAC+2 FOR MACH
000960: 41,2121           61001                           AD       VERBREG                               #  CADR TO BE SPECIFIED.
000961: 41,2122           00006                           EXTEND
000962: 41,2123           12133                           BZF      VERBFAN                               #  DONT DISPLAY CADR IF VB = 05.
000963: 41,2124           34321                           CAF      R3D1                                  #  VB NOT = 05. DISPLAY CADR.
000964: 41,2125           54777                           TS       DSPCOUNT
000965: 41,2126           31017                           CA       NOUNCADR
000966: 41,2127           03363                           TC       DSPOCTWO
000967: 41,2130           02133                           TC       VERBFAN
000968:
000969: 41,2131           64753                           AD       ONE
000970: 41,2132           04303                           TC       SETNCADR                              #  ECADR INTO NOUNCADR. SETS EB, NOUNADD.
000971: 41,2133           42145        VERBFAN            CS       LST2CON
000972: 41,2134           61001                           AD       VERBREG                               #  VERB = LST2CON
000973: 41,2135           10000                           CCS      A
000974: 41,2136           64753                           AD       ONE                                   #  VERB G/ LST2CON
000975: 41,2137           02141                           TC       +2
000976: 41,2140           02146                           TC       VBFANDIR                              #  VERB L/ LST2CON
000977: 41,2141           54154                           TS       MPAC
000978: 41,2142           04457                           TC       RELDSP                                #  RELEASE DISPLAY SYST
000979: 41,2143           04635                           TC       POSTJUMP                              #  GO TO GOEXTVB WITH VB=40 IN MPAC.
000980: 41,2144           66000                           CADR     GOEXTVB
000981: 41,2145           00050        LST2CON            DEC      40         B-14                       #  FIRST LIST2 VERB (EXTENDED VERB)
000982:
000983: 41,2146           51001        VBFANDIR           INDEX    VERBREG
000984: 41,2147           32151                           CAF      VERBTAB
000985: 41,2150           04640                           TC       BANKJUMP
000986:
000987: 41,2151           62351        VERBTAB            CADR     GODSPALM                              #  VB00 ILLEGAL
000988: 41,2152           62365                           CADR     DSPA                                  #  VB01 DISPLAY OCT COMP 1 (R1)
000989: 41,2153           62373                           CADR     DSPB                                  #  VB02 DISPLAY OCT COMP 2 (R1)
000990: 41,2154           62400                           CADR     DSPC                                  #  VB03 DISPLAY OCT COMP 3 (R1)
000991: 41,2155           62360                           CADR     DSPAB                                 #  VB04 DISPLAY OCT COMP 1,2 (R1,R2)
000992: 41,2156           62353                           CADR     DSPABC                                #  VB05 DISPLAY OCT COMP 1,2,3 (R1,R2,R3)
000993: 41,2157           62523                           CADR     DECDSP                                #  VB06 DECIMAL DISPLAY
000994: 41,2160           60771                           CADR     DSPDPDEC                              #  VB07 DP DECIMAL DISPLAY (R1,R2)
000995: 41,2161           62351                           CADR     GODSPALM                              #  VB08 SPARE
000996: 41,2162           62351                           CADR     GODSPALM                              #  VB09 SPARE
000997: 41,2163           61420                           CADR     DSPALARM                              #  VB10 SPARE
000998: 41,2164           63230                           CADR     MONITOR                               #  VB11 MONITOR OCT COMP 1 (R1)
000999: 41,2165           63230                           CADR     MONITOR                               #  VB12 MONITOR OCT COMP 2 (R1)
001000: 41,2166           63230                           CADR     MONITOR                               #  VB13 MONITOR OCT COMP 3 (R1)
001001: 41,2167           63230                           CADR     MONITOR                               #  VB14 MONITOR OCT COMP 1,2 (R1,R2)
001002:                                                                                                  #  Page 409
001003: 41,2170           63230                           CADR     MONITOR                               #  VB15 MONITOR OCT COMP 1,2,3 (R1,R2,R3)
001004: 41,2171           63230                           CADR     MONITOR                               #  VB16 MONITOR DECIMAL
001005: 41,2172           63230                           CADR     MONITOR                               #  VB17 MONITOR DP DEC (R1,R2)
001006: 41,2173           62351                           CADR     GODSPALM                              #  VB18 SPARE
001007: 41,2174           62351                           CADR     GODSPALM                              #  VB19 SPARE
001008: 41,2175           62351                           CADR     GODSPALM                              #  VB20 SPARE
001009: 41,2176           62732                           CADR     ALOAD                                 #  VB21 LOAD COMP 1 (R1)
001010: 41,2177           62743                           CADR     BLOAD                                 #  VB22 LOAD COMP 2 (R2)
001011: 41,2200           62760                           CADR     CLOAD                                 #  VB23 LOAD COMP 3 (R3)
001012: 41,2201           62703                           CADR     ABLOAD                                #  VB24 LOAD COMP 1,2 (R1,R2)
001013: 41,2202           62616                           CADR     ABCLOAD                               #  VB25 LOAD COMP 1,2,3 (R1,R2,R3)
001014: 41,2203           62351                           CADR     GODSPALM                              #  VB26 SPARE
001015: 41,2204           63353                           CADR     DSPFMEM                               #  VB27 FIXED MEMORY DISPLAY
001016:                                                                                                  #  THE FOLLOWING VERBS MAKE NO NOUN TEST
001017: 41,2205           62351                           CADR     GODSPALM                              #  VB28 SPARE
001018: 41,2206           62351                           CADR     GODSPALM                              #  VB29 SPARE
001019: 41,2207           63466        REQEXLOC           CADR     VBRQEXEC                              #  VB30 REQUEST EXECUTIVE
001020: 41,2210           63512                           CADR     VBRQWAIT                              #  VB31 REQUEST WAITLIST
001021: 41,2211           61457                           CADR     VBRESEQ                               #  VB32 RESEQUENCE
001022: 41,2212           61442                           CADR     VBPROC                                #  VB33 PROCEED WITHOUT DATA
001023: 41,2213           61450                           CADR     VBTERM                                #  VB34 TERMINATE CURRENT TEST OR LOAD REQ
001024: 41,2214           63613                           CADR     VBTSTLTS                              #  VB35 TEST LIGHTS
001025: 41,2215           12447                           CADR     SLAP1                                 #  VB36 FRESH START
001026: 41,2216           63430                           CADR     MMCHANG                               #  VB37 CHANGE MAJOR MODE
001027: 41,2217           62351                           CADR     GODSPALM                              #  VB38 SPARE
001028: 41,2220           62351                           CADR     GODSPALM                              #  VB39 SPARE
001029:
001030:                                                                                                  #  THE LIST2 VERBFAN IS LOCATED IN THE EXTENDED VERB BANK.
001031:                                                                                                  #  Page 410
001032:                                                                                                  #  NNADTAB CONTAINS A RELATIVE ADDRESS, IDADDREL (IN LOW 10 BITS), REFERRING
001033:                                                                                                  #  TO WHERE 3 CONSECUTIVE ADDRESSES ARE STORED (IN IDADDTAB).
001034:                                                                                                  #  MIXNOUN GETS DATA AND STORES IN MIXTEMP,+1,+2.  IT SETS NOUNADD FOR
001035:                                                                                                  #  MIXTEMP.
001036:
001037: 41,2221           10146        MIXNOUN            CCS      NNADTEM
001038: 41,2222           02226                           TC       +4                                    #  + IN USE
001039: 41,2223           02351                           TC       GODSPALM                              #  +0 NOT IN USE
001040: 41,2224           02226                           TC       +2                                    #  - IN USE
001041: 41,2225           02226                           TC       +1                                    #  -0 IN USE
001042: 41,2226           46242                           CS       SIX
001043: 41,2227           61001                           AD       VERBREG
001044: 41,2230           00006                           EXTEND
001045: 41,2231           62233                           BZMF     +2                                    #  VERB L/E 6
001046: 41,2232           02133                           TC       VERBFAN                               #  AVOID MIXNOUN SWAP IF VB NOT = DISPLAY
001047: 41,2233           34752                           CAF      TWO
001048: 41,2234           54117        MIXNN1             TS       DECOUNT
001049: 41,2235           62260                           AD       MIXAD
001050: 41,2236           54145                           TS       NOUNADD                               #  SET NOUNADD TO MIXTEMP + K
001051: 41,2237           50117                           INDEX    DECOUNT                               #  GET IDADDTAB ENTRY FOR COMPONENT K
001052: 41,2240           30150                           CA       IDAD1TEM                              #  OF NOUN.
001053: 41,2241           54122                           TS       NOUNTEM
001054:                                                                                                  #  TEST FOR DP (FOR OCT DISPLAY).  IF SO, GET
001055:                                                                                                  #        MINOR PART ONLY.
001056: 41,2242           03034                           TC       SFRUTMIX                              #  GET SF ROUT NUMBER IN A
001057: 41,2243           02261                           TC       DPTEST
001058: 41,2244           02246                           TC       MIXNN2                                #  NO DP
001059: 41,2245           24122                           INCR     NOUNTEM                               #  DP GET MINOR PART
001060: 41,2246           30122        MIXNN2             CA       NOUNTEM
001061: 41,2247           74356                           MASK     LOW11                                 #  ESUBK (NO DP) OR (ESUBK)+1 (garbled) FOR DP
001062: 41,2250           04313                           TC       SETEBANK                              #  SET EBANK, LEAVE EADRES IN A.
001063: 41,2251           50000                           INDEX    A                                     #  PICK UP C(ESUBK) NOT DP
001064: 41,2252           30000                           CA       0                                     #  OR C((ESUBK)+1) FOR DP MINOR PART
001065: 41,2253           50145                           INDEX    NOUNADD
001066: 41,2254           56000                           XCH      0                                     #  STORE IN MIXTEM + K
001067: 41,2255           10117                           CCS      DECOUNT
001068: 41,2256           02234                           TC       MIXNN1
001069: 41,2257           02133                           TC       VERBFAN
001070:
001071: 41,2260           00125        MIXAD              TC       MIXTEMP
001072:
001073:                                                                                                  #  DPTEST        ENTER WITH SF ROUT NUMBER IN A.
001074:                                                                                                  #                RETURNS TO L+1 IF NO DP.
001075:                                                                                                  #                RETURNS TO L+2 IF DP.
001076:
001077: 41,2261           50000        DPTEST             INDEX    A
001078: 41,2262           12263                           TCF      +1
001079: 41,2263           00002                           TC       Q                                     #  OCTAL ONLY NO DP
001080: 41,2264           00002                           TC       Q                                     #  FRACT NO DP
001081:                                                                                                  #  Page 411
001082: 41,2265           00002                           TC       Q                                     #  DEG  NO DP
001083: 41,2266           00002                           TC       Q                                     #  ARITH  NO DP
001084: 41,2267           12301                           TCF      DPTEST1                               #  DP1OUT
001085: 41,2270           12301                           TCF      DPTEST1                               #  DP2OUT
001086: 41,2271           00002                           TC       Q                                     #  LRPOSOUT NO DP (DATA IN CHANNEL 33)
001087: 41,2272           12301                           TCF      DPTEST1                               #  DP3OUT
001088: 41,2273           00002                           TC       Q                                     #  HMS   NO DP
001089: 41,2274           00002                           TC       Q                                     #  M/S   NO DP
001090: 41,2275           12301                           TCF      DPTEST1                               #  DP4OUT
001091: 41,2276           00002                           TC       Q                                     #  ARITH1   NO DP
001092: 41,2277           00002                           TC       Q                                     #  2INTOUT  NO DP TO GET HI PART IN MPAC
001093: 41,2300           00002                           TC       Q                                     #  360-CDU   NO DP
001094: 41,2301           50002        DPTEST1            INDEX    Q
001095: 41,2302           00001                           TC       1                                     #  RETURN TO L+2
001096:
001097: 41,2303           34317        REQDATX            CAF      R1D1
001098: 41,2304           12310                           TCF      REQCOM
001099: 41,2305           34320        REQDATY            CAF      R2D1
001100: 41,2306           12310                           TCF      REQCOM
001101: 41,2307           34321        REQDATZ            CAF      R3D1
001102: 41,2310           54777        REQCOM             TS       DSPCOUNT
001103: 41,2311           40002                           CS       Q
001104: 41,2312           55013                           TS       REQRET
001105: 41,2313           04616                           TC       BANKCALL
001106: 41,2314           60536                           CADR     5BLANK
001107: 41,2315           04427                           TC       FLASHON
001108: 41,2316           00136        ENDRQDAT           TC       ENTEXIT
001109:
001110: 41,2317           55002                           TS       NOUNREG
001111: 41,2320           56002        UPDATNN            XCH      Q
001112: 41,2321           54117                           TS       UPDATRET
001113: 41,2322           00006                           EXTEND
001114: 41,2323           32114                           DCA      LODNNLOC                              #  SWITCH BANKS TO NOUN TABLE READING
001115: 41,2324           52006                           DXCH     Z                                     #  ROUTINE.
001116: 41,2325           10146                           CCS      NNADTEM
001117: 41,2326           64753                           AD       ONE                                   #  NORMAL
001118: 41,2327           12332                           TCF      PUTADD
001119: 41,2330           12333                           TCF      PUTADD     +1                         #  MCTBS  DONT CHANGE NOUNADD
001120: 41,2331           12333                           TCF      PUTADD     +1                         #  MCTBI  DONT CHANGE NOUNADD
001121: 41,2332           04303        PUTADD             TC       SETNCADR                              #  ECADR INTO NOUNCADR. SETS EB. NOUNADD.
001122: 41,2333           34361                           CAF      ND1
001123: 41,2334           54777                           TS       DSPCOUNT
001124: 41,2335           31002                           CA       NOUNREG
001125: 41,2336           12345                           TCF      UPDAT1
001126:
001127: 41,2337           55001                           TS       VERBREG
001128: 41,2340           56002        UPDATVB            XCH      Q
001129: 41,2341           54117                           TS       UPDATRET
001130: 41,2342           34360                           CAF      VD1
001131:                                                                                                  #  Page 412
001132: 41,2343           54777                           TS       DSPCOUNT
001133: 41,2344           31001                           CA       VERBREG
001134: 41,2345           04635        UPDAT1             TC       POSTJUMP                              #  CANT USE SWCALL TO GO TO DSPDECVN, SINCE
001135: 41,2346           61317                           CADR     GOVNUPDT                              #  UPDATVB CAN ITSELF BE CALLED BY SWCALL.
001136: 41,2347           00117                           TC       UPDATRET
001137:
001138: 41,2350           04145        GOALMCYC           TC       ALMCYCLE                              #  NEEDED BECAUSE BANKJUMP CANT HANDLE F/F.
001139:
001140: 41,2351           04635        GODSPALM           TC       POSTJUMP
001141: 41,2352           61420                           CADR     DSPALARM
001142:
001143:                                                                                                  #  Page 413
001144:                                                                                                  #  NOUN TABLES
001145:
001146:                                                                                                  #  NOUN CODE L/40, NORMAL NOUN CASE.  NOUN CODE G/E 40, MIXED NOUN CASE.
001147:                                                                                                  #  FOR NORMAL CASE, NNADTAB CONTAINS ONE       ECADR     FOR EACH NOUN.
001148:                                                                                                  #  +0 INDICATES NOUN NOT USED.   - ENTRY INDICATES MACHINE CADR (E OR F) TO
001149:                                                                                                  #  BE SPECIFIED. -1 INDICATES CHANNEL TO BE SPECIFIED.  -0 INDICATES AUGMENT
001150:                                                                                                  #  OF LAST MACHINE CADR SUPPLIED.
001151:
001152:                                                                                                  #  FOR MIXED CASE, NNADTAB CONTAINS ONE INDIRECT ADDRESS (IDADDREL) IN LOW
001153:                                                                                                  #  10 BITS, AND THE COMPONENT CODE NUMBER IN THE HIGH 5 BITS.
001154:
001155:                                                                                                  #  NNTYPTAB IS A PACKED TABLE OF THE FORM MMMMMNNNNNPPPPP.
001156:
001157:                                                                                                  #  FOR THE NORMAL CASE,  M'S ARE THE COMPONENT CODE NUMBER.
001158:                                                                                                  #                        N'S ARE THE SF ROUTINE CODE NUMBER.
001159:                                                                                                  #                        P'S ARE THE SF CONSTANT CODE NUMBER.
001160:
001161:                                                                                                  #  MIXED-CASE,           M'S ARE THE SF CONSTANT3 CODE NUMBER    3 COMPONENT CASE
001162:                                                                                                  #                        N'S ARE THE SF CONSTANT2 CODE NUMBER
001163:                                                                                                  #                        P'S ARE THE SF CONSTANT1 CODE NUMBER
001164:                                                                                                  #                        N'S ARE THE SF CONSTANT2 CODE NUMBER    2 COMPONENT CASE
001165:                                                                                                  #                        P'S ARE THE SF CONSTANT1 CODE NUMBER
001166:                                                                                                  #                        P'S ARE THE SF CONSTANT1 CODE NUMBER    1 COMPONENT CASE
001167:
001168:                                                                                                  #  THERE IS ALSO AN INDIRECT ADDRESS TABLE (IDADDTAB) FOR MIXED CASE ONLY.
001169:                                                                                                  #  EACH ENTRY CONTAINS ONE ECADR.    IDADDREL IS THE RELATIVE ADDRESS OF
001170:                                                                                                  #  THE FIRST OF THESE ENTRIES.
001171:
001172:                                                                                                  #  THERE IS ALSO A SCALE FACTOR ROUTINE NUMBER TABLE (RUTMXTAB) FOR MIXED
001173:                                                                                                  #  CASE ONLY.  THERE IS ONE ENTRY PER MIXED NOUN.  THE FORM IS,
001174:
001175:                                                                                                  #        QQQQQRRRRRSSSSS
001176:
001177:                                                                                                  #  Q'S ARE THE SF ROUTINE 3 CODE NUMBER          3 COMPONENT CASE
001178:                                                                                                  #  R'S ARE THE SF ROUTINE 2 CODE NUMBER
001179:                                                                                                  #  S'S ARE THE SF ROUTINE 1 CODE NUMBER
001180:                                                                                                  #  R'S ARE THE SF ROUTINE 2 CODE NUMBER          2 COMPONENT CASE
001181:                                                                                                  #  S'S ARE THE SF ROUTINE 1 CODE NUMBER
001182:
001183:                                                                                                  #  IN OCTAL DISPLAY AND LOAD (OCT OR DEC) VERBS, EXCLUDE USE OF VERBS WHOSE
001184:                                                                                                  #  COMPONENT NUMBER IS GREATER THAN THE NUMBER OF COMPONENTS IN NOUN.
001185:                                                                                                  #  (ALL MACHINE ADDRESS TO BE SPECIFIED NOUNS ARE 3 COMPONENT.)
001186:
001187:                                                                                                  #  IN MULTI-COMPONENT LOAD VERBS, NO MIXING OF OCTAL AND DECIMAL DATA
001188:                                                                                                  #  COMPONENT WORDS IS ALLOWED. ALARM IF VIOLATION.
001189:
001190:                                                                                                  #  IN DECIMAL LOADS OF DATA, 5 NUMERICAL CHARACTERS MUST BE KEYED IN
001191:                                                                                                  #  BEFORE EACH ENTER. IF NOT, ALARM.
001192:
001193:                                                                                                  #  Page 414
001194:                                                                                                  #  DISPLAY VERBS
001195:
001196: 41,2353           44752        DSPABC             CS       TWO
001197: 41,2354           02424                           TC       COMPTEST
001198: 41,2355           50145                           INDEX    NOUNADD
001199: 41,2356           40002                           CS       2
001200: 41,2357           56132                           XCH      BUF        +2
001201: 41,2360           44753        DSPAB              CS       ONE
001202: 41,2361           02424                           TC       COMPTEST
001203: 41,2362           50145                           INDEX    NOUNADD
001204: 41,2363           40001                           CS       1
001205: 41,2364           56131                           XCH      BUF        +1
001206: 41,2365           02443        DSPA               TC       DECTEST
001207: 41,2366           02466                           TC       TSTFORDP
001208: 41,2367           50145                           INDEX    NOUNADD
001209: 41,2370           40000                           CS       0
001210: 41,2371           56130        DSPCOM1            XCH      BUF
001211: 41,2372           02405                           TC       DSPCOM2
001212: 41,2373           44753        DSPB               CS       ONE
001213: 41,2374           02437                           TC       DCOMPTST
001214: 41,2375           50145                           INDEX    NOUNADD
001215: 41,2376           40001                           CS       1
001216: 41,2377           02371                           TC       DSPCOM1
001217: 41,2400           44752        DSPC               CS       TWO
001218: 41,2401           02437                           TC       DCOMPTST
001219: 41,2402           50145                           INDEX    NOUNADD
001220: 41,2403           40002                           CS       2
001221: 41,2404           02371                           TC       DSPCOM1
001222: 41,2405           44752        DSPCOM2            CS       TWO                                   #  A  B  C  AB ABC
001223: 41,2406           61001                           AD       VERBREG                               #  -1 -0 +1 +2 +3   IN A
001224: 41,2407           10000                           CCS      A                                     #  +0 +0 +0 +1 +2   IN A AFTER CCS
001225: 41,2410           02413                           TC       DSPCOM3
001226: 41,2411           00136                           TC       ENTEXIT
001227: 41,2412           02413                           TC       +1
001228: 41,2413           54122        DSPCOM3            TS       DISTEM                                #  +0 +1 +2 INTO DISTEM
001229: 41,2414           50000                           INDEX    A
001230: 41,2415           34317                           CAF      R1D1
001231: 41,2416           54777                           TS       DSPCOUNT
001232: 41,2417           50122                           INDEX    DISTEM
001233: 41,2420           40130                           CS       BUF
001234: 41,2421           03363                           TC       DSPOCTWO
001235: 41,2422           56122                           XCH      DISTEM
001236: 41,2423           02407                           TC       DSPCOM2    +2
001237:
001238:                                                                                                  #  COMPTEST ALARMS IF COMPONENT NUMBER OF VERB (LOAD OR OCT DISPLAY) IS
001239:                                                                                                  #  GREATER THAN THE HIGHEST COMPONENT NUMBER OF NOUN.
001240:
001241: 41,2424           54123        COMPTEST           TS       SFTEMP1                               #  VERB COMP
001242: 41,2425           22002                           LXCH     Q
001243: 41,2426           02515        COMPTST1           TC       GETCOMP
001244: 41,2427           04331                           TC       LEFT5
001245: 41,2430           76245                           MASK     THREE                                 #  NOUN COMP
001246:                                                                                                  #  Page 415
001247: 41,2431           60123                           AD       SFTEMP1                               #  NOUN COMP = VERB COMP
001248: 41,2432           10000                           CCS      A
001249: 41,2433           00001                           TC       L                                     #  NOUN COMP G/ VERB COMP
001250: 41,2434           05705                           TC       CCSHOLE
001251: 41,2435           02351                           TC       GODSPALM                              #  NOUN COMP L/ VERB COMP
001252: 41,2436           00001        NDCMPTST           TC       L                                     #  NOUN COMP = VERB COMP
001253:
001254:                                                                                                  #  DCOMPTST ALARMS IF DECIMAL ONLY BIT (BIT4 OF COMP CODE NUMBER) = 1.
001255:                                                                                                  #  IF NOT, IT PERFORMS REGULAR COMPTEST.
001256:
001257: 41,2437           54123        DCOMPTST           TS       SFTEMP1                               #  - VERB COMP
001258: 41,2440           22002                           LXCH     Q
001259: 41,2441           02443                           TC       DECTEST
001260: 41,2442           02426                           TC       COMPTST1
001261:
001262: 41,2443           00006        DECTEST            EXTEND                                         #  ALARMS IF DEC ONLY BIT = 1 (BIT4 OF COMP
001263: 41,2444           22156                           QXCH     MPAC       +2                         #  CODE NUMBER).  RETURNS IF NOT.
001264: 41,2445           02515                           TC       GETCOMP
001265: 41,2446           74736                           MASK     BIT14
001266: 41,2447           10000                           CCS      A
001267: 41,2450           02351                           TC       GODSPALM
001268: 41,2451           00156                           TC       MPAC       +2
001269:
001270: 41,2452           22002        DCTSTCYC           LXCH     Q                                     #  ALARMS AND RECYCLES IF DEC ONLY BIT = 1
001271: 41,2453           02515                           TC       GETCOMP                               #  (BIT4 OF COMP CODE NUMBER). RETURNS
001272: 41,2454           74736                           MASK     BIT14                                 #  IF NOT.  USED BY LOAD VERBS.
001273: 41,2455           10000                           CCS      A
001274: 41,2456           04145                           TC       ALMCYCLE
001275: 41,2457           00001                           TC       L
001276:
001277:                                                                                                  #  NOUNTEST ALARMS IF NO-LOAD BIT (BIT5 OF COMP CODE NUMBER) = 1.
001278:                                                                                                  #  IF NOT, IT RETURNS.
001279:
001280: 41,2460           22002        NOUNTEST           LXCH     Q
001281: 41,2461           02515                           TC       GETCOMP
001282: 41,2462           10000                           CCS      A
001283: 41,2463           00001                           TC       L
001284: 41,2464           00001                           TC       L
001285: 41,2465           02351                           TC       GODSPALM
001286:
001287: 41,2466           22002        TSTFORDP           LXCH     Q                                     #  TEST FOR DP. IF SO, GET MINOR PART ONLY.
001288: 41,2467           30146                           CA       NNADTEM
001289: 41,2470           64753                           AD       ONE                                   #  IF NNADTEM = -1, CHANNEL TO BE SPECIFIED
001290: 41,2471           00006                           EXTEND
001291: 41,2472           12504                           BZF      CHANDSP
001292: 41,2473           50140                           INDEX    MIXBR
001293: 41,2474           02474                           TC       +0
001294: 41,2475           02477                           TC       +2                                    #  NORMAL
001295:                                                                                                  #  Page 416
001296: 41,2476           00001                           TC       L                                     #  MIXED CASE ALREADY HANDLED IN MIXNOUN
001297: 41,2477           03026                           TC       SFRUTNOR
001298: 41,2500           02261                           TC       DPTEST
001299: 41,2501           00001                           TC       L                                     #  NO DP
001300: 41,2502           24145                           INCR     NOUNADD                               #  DP    E+1 INTO NOUNADD FOR MINOR PART.
001301: 41,2503           00001                           TC       L
001302:
001303: 41,2504           31017        CHANDSP            CA       NOUNCADR
001304: 41,2505           75004                           MASK     LOW9
001305: 41,2506           00006                           EXTEND
001306: 41,2507           50000                           INDEX    A
001307: 41,2510           00000                           READ     0
001308: 41,2511           40000                           CS       A
001309: 41,2512           12371                           TCF      DSPCOM1
001310:
001311: 41,2513           00147        COMPICK            ADRES    NNTYPTEM
001312: 41,2514           00146                           ADRES    NNADTEM
001313:
001314: 41,2515           50140        GETCOMP            INDEX    MIXBR                                 #  NORMAL                        MIXED
001315: 41,2516           32512                           CAF      COMPICK    -1                         #  ADRES NNTYPTEM                ADRES NNADTEM
001316: 41,2517           50000                           INDEX    A
001317: 41,2520           30000                           CA       0                                     #  C(NNTYPTEM)                   C(NNADTEM)
001318: 41,2521           74350                           MASK     HI5                                   #  GET HI5 OF NNTYPTAB (NORM)    OF NNADTAB (MIX)
001319: 41,2522           00002                           TC       Q
001320:
001321: 41,2523           02515        DECDSP             TC       GETCOMP
001322: 41,2524           04331                           TC       LEFT5
001323: 41,2525           76245                           MASK     THREE
001324: 41,2526           54117                           TS       DECOUNT                               #  COMP NUMBER INTO DECOUNT
001325: 41,2527           54122        DSPDCGET           TS       DECTEM                                #  PICKS UP DATA
001326: 41,2530           60145                           AD       NOUNADD                               #  DECTEM 1COMP +0, 2COMP +1, 3COMP +2
001327: 41,2531           50000                           INDEX    A
001328: 41,2532           40000                           CS       0
001329: 41,2533           50122                           INDEX    DECTEM
001330: 41,2534           57003                           XCH      XREG                                  #  CANT USE BUF SINCE DMP USES IT.
001331: 41,2535           10122                           CCS      DECTEM
001332: 41,2536           02527                           TC       DSPDCGET                              #  MORE TO GET
001333: 41,2537           34755        DSPDCPUT           CAF      ZERO                                  #  DISPLAYS DATA
001334: 41,2540           54155                           TS       MPAC       +1                         #  DECOUNT 1COMP +0, 2COMP +1, 3COMP +2
001335: 41,2541           54156                           TS       MPAC       +2
001336: 41,2542           50117                           INDEX    DECOUNT
001337: 41,2543           34317                           CAF      R1D1
001338: 41,2544           54777                           TS       DSPCOUNT
001339: 41,2545           50117                           INDEX    DECOUNT
001340: 41,2546           41003                           CS       XREG
001341: 41,2547           54154                           TS       MPAC
001342: 41,2550           03047                           TC       SFCONUM                               #  2X (SF CON NUMB) IN A
001343:                                                                                                  #  Page 417
001344: 41,2551           54123                           TS       SFTEMP1
001345: 41,2552           00006                           EXTEND                                         #  SWITCH BANKS TO SF CONSTANT TABLE
001346: 41,2553           32565                           DCA      GTSFOUTL                              #        READING ROUTINE.
001347: 41,2554           52006                           DXCH     Z                                     #  LOADS SFTEMP1, SFTEMP2
001348: 41,2555           50140                           INDEX    MIXBR
001349: 41,2556           02556                           TC       +0
001350: 41,2557           02562                           TC       DSPSFNOR
001351: 41,2560           03034                           TC       SFRUTMIX
001352: 41,2561           02575                           TC       DECDSP3
001353:
001354: 41,2562           03026        DSPSFNOR           TC       SFRUTNOR
001355: 41,2563           02575                           TC       DECDSP3
001356:
001357: 41,2564     0777                                  EBANK=   DSPCOUNT
001358: 41,2564           02141 64101  GTSFOUTL           2CADR    GTSFOUT
001359:
001360: 41,2566           04616        DSPDCEND           TC       BANKCALL                              #  ALL SFOUT ROUTINES END HERE
001361: 41,2567           61226                           CADR     DSPDECWD
001362: 41,2570           10117                           CCS      DECOUNT
001363: 41,2571           02573                           TC       +2
001364: 41,2572           00136                           TC       ENTEXIT
001365: 41,2573           54117                           TS       DECOUNT
001366: 41,2574           02537                           TC       DSPDCPUT                              #  MORE TO DISPLAY
001367:
001368: 41,2575           50000        DECDSP3            INDEX    A
001369: 41,2576           32600                           CAF      SFOUTABR
001370: 41,2577           04640                           TC       BANKJUMP
001371:
001372: 41,2600           61416        SFOUTABR           CADR     PREDSPAL                              #  ALARM IF DEC DISP WITH OCTAL ONLY NOUN
001373: 41,2601           62566                           CADR     DSPDCEND
001374: 41,2602           60615                           CADR     DEGOUTSF
001375: 41,2603           60677                           CADR     ARTOUTSF
001376: 41,2604           60710                           CADR     DP1OUTSF
001377: 41,2605           60715                           CADR     DP2OUTSF
001378: 41,2606           60635                           CADR     LRPOSOUT
001379: 41,2607           60717                           CADR     DP3OUTSF
001380: 41,2610           65230                           CADR     HMSOUT
001381: 41,2611           65303                           CADR     M/SOUT
001382: 41,2612           60715                           CADR     DP2OUTSF
001383: 41,2613           60704                           CADR     AROUT1SF
001384: 41,2614           60732                           CADR     2INTOUT
001385: 41,2615           60623                           CADR     360-CDUO
001386: 41,2616                        ENDRTOUT           EQUALS
001387:
001388:                                                                                                  #  THE FOLLOWING IS A TYPICAL SF ROUTINE. IT USES MPAC. LEAVES RESULTS
001389:                                                                                                  #  IN MPAC, MPAC+1.  ENDS WITH TC DSPDCEND
001390:
001391:                                                                                                  #  Page 418
001392: 40,2615                                           SETLOC   BLANKCON   +1
001393:
001394: 40,2615                                           COUNT*   $$/PIN
001395:                                                                                                  #  DEGOUTSF SCALES BY .18 THE LOW 14 BITS OF ANGLE, ADDING .18 FOR
001396:                                                                                                  #  NUMBERS IN THE NEGATIVE (AGC) RANGE.
001397:
001398: 40,2615           34755        DEGOUTSF           CAF      ZERO
001399: 40,2616           54156                           TS       MPAC       +2                         #  SET INDEX FOR FULL SCALE.
001400: 40,2617           02652                           TC       FIXRANGE
001401: 40,2620           02622                           TC       +2                                    #  NO AUGMENT NEEDED (SFTEMP1 AND 2 ARE 0)
001402: 40,2621           02645                           TC       SETAUG                                #  SET AUGMENTER ACCORDING TO C(MPAC +2)
001403: 40,2622           02663                           TC       DEGCOM
001404:
001405:                                                                                                  #  360-CDUD COMPUTES 360 - CDU ANGLE IN MPAC, STORES RESULT IN MPAC AND
001406:                                                                                                  #  GOES TO DEGOUTSF.
001407:
001408: 40,2623           02625        360-CDUO           TC       360-CDU
001409: 40,2624           02615                           TC       DEGOUTSF
001410:
001411: 40,2625           30154        360-CDU            CA       MPAC
001412: 40,2626           74733                           MASK     POSMAX                                #  IF ANGLE IS 0 OR 180 DEGREES, DO NOTHING
001413: 40,2627           00006                           EXTEND
001414: 40,2630           12634                           BZF      360-CDUE
001415: 40,2631           40154                           CS       MPAC                                  #  COMPUTE 360 DEGREES MINUS ANGLE
001416: 40,2632           64753                           AD       ONE
001417: 40,2633           54154                           TS       MPAC
001418: 40,2634           00002        360-CDUE           TC       Q
001419:
001420:                                                                                                  #  LRPOSOUT DISPLAYS +0,1,2, OR 3 (WHOLE) FOR CHANNEL 33, BITS 7-6 = 11,10,
001421:                                                                                                  #  01,00 RESPECTIVELY
001422:
001423: 40,2635           00006        LRPOSOUT           EXTEND
001424: 40,2636           00033                           READ     CHAN33
001425: 40,2637           00006                           EXTEND
001426: 40,2640           74742                           MP       BIT10                                 #  BITS 7-6 TO BITS 2-1
001427: 40,2641           40000                           COM
001428: 40,2642           76245                           MASK     THREE
001429: 40,2643           54154                           TS       MPAC
001430: 40,2644           02677                           TC       ARTOUTSF                              #  DISPLAY AS WHOLE
001431:
001432: 40,2645           00006        SETAUG             EXTEND                                         #  LOADS SFTEMP1 AND SFTEMP2 WITH THE
001433: 40,2646           50156                           INDEX    MPAC       +2                         #  DP AUGMENTER CONSTANT
001434: 40,2647           32674                           DCA      DEGTAB
001435: 40,2650           52124                           DXCH     SFTEMP1
001436: 40,2651           00002                           TC       Q
001437:
001438: 40,2652           10154        FIXRANGE           CCS      MPAC                                  #  IF MPAC IS + RETURN TO L+1
001439: 40,2653           00002                           TC       Q                                     #  IF MPAC IS - RETURN TO L+2 AFTER
001440: 40,2654           00002                           TC       Q                                     #  MASKING OUT THE SIGN BIT
001441: 40,2655           12656                           TCF      +1
001442:
001443:                                                                                                  #  Page 419
001444: 40,2656           44735                           CS       BIT15
001445: 40,2657           70154                           MASK     MPAC
001446: 40,2660           54154                           TS       MPAC
001447: 40,2661           50002                           INDEX    Q
001448: 40,2662           00001                           TC       1
001449:
001450: 40,2663           00006        DEGCOM             EXTEND                                         #  LOADS MULTIPLIER, DOES SHORTMP, AND
001451: 40,2664           50156                           INDEX    MPAC       +2                         #  ADDS AUGMENTER.
001452: 40,2665           32674                           DCA      DEGTAB
001453: 40,2666           52155                           DXCH     MPAC                                  #  ADJUSTED ANGLE IN A
001454: 40,2667           07307                           TC       SHORTMP
001455: 40,2670           52124                           DXCH     SFTEMP1
001456: 40,2671           20155                           DAS      MPAC
001457: 40,2672           02702                           TC       SCOUTEND
001458:
001459: 40,2673           05605        DEGTAB             OCT      05605                                 #  HI PART OF    .18
001460: 40,2674           03656                           OCT      03656                                 #  LOW PART OF   .18
001461: 40,2675           16314                           OCT      16314                                 #  HI PART OF    .45
001462: 40,2676           31463                           OCT      31463                                 #  LO PART OF    .45
001463:
001464: 40,2677           52124        ARTOUTSF           DXCH     SFTEMP1                               #  ASSUMES POINT AT LEFT OF DP SFCON
001465: 40,2700           52155                           DXCH     MPAC
001466: 40,2701           04415                           TC       PRSHRTMP                              #  IF C(A) = -0, SHORTMP FAILS TO GIVE -0.
001467: 40,2702           04635        SCOUTEND           TC       POSTJUMP
001468: 40,2703           62566                           CADR     DSPDCEND
001469:
001470: 40,2704           52124        AROUT1SF           DXCH     SFTEMP1                               #  ASSUMES POINT BETWEEN HI AND LO PARTS OF
001471: 40,2705           52155                           DXCH     MPAC                                  #  DP SFCON. SHIFTS RESULTS LEFT 14, BY
001472: 40,2706           04415                           TC       PRSHRTMP                              #  TAKING RESULTS FROM MPAC+1, MPAC+2.
001473: 40,2707           02711                           TC       L14/OUT
001474:
001475: 40,2710           02723        DP1OUTSF           TC       DPOUT                                 #  SCALES MPAC, MPAC +1 BY DP SCALE FACTOR
001476: 40,2711           56156        L14/OUT            XCH      MPAC       +2                         #  IN SFTEMP1, SFTEMP2.  THEN SCALE RESULT
001477: 40,2712           56155                           XCH      MPAC       +1                         #  BY B14
001478: 40,2713           54154                           TS       MPAC
001479: 40,2714           02702                           TC       SCOUTEND
001480:
001481: 40,2715           02723        DP2OUTSF           TC       DPOUT                                 #  SCALES MPAC, MPAC +1 BY DP SCALE FACTOR
001482: 40,2716           02702                           TC       SCOUTEND
001483:
001484: 40,2717           02723        DP3OUTSF           TC       DPOUT                                 #  ASSUMES POINT BETWEEN BITS 7-8 OF HIGH
001485: 40,2720           36242                           CAF      SIX                                   #  LEFT BY 7, ROUNDS MPAC+2 INTO MPAC+1.
001486: 40,2721           03153                           TC       TPLEFTN                               #  SHIFT LEFT 7.
001487: 40,2722           02702                           TC       SCOUTEND
001488:                                                                                                  #  Page 420
001489: 40,2723     0162               MPAC+6             =        MPAC       +6                         #  USE MPAC +6 INSTEAD OF OVFIND
001490:
001491: 40,2723           56002        DPOUT              XCH      Q
001492: 40,2724           54162                           TS       MPAC+6
001493: 40,2725           02747                           TC       READLO                                #  GET FRESH DATA FOR BOTH HI AND LO.
001494: 40,2726           07257                           TC       TPAGREE                               #  MAKE DP DATA AGREE
001495: 40,2727           07103                           TC       DMP
001496: 40,2730           00123                           ADRES    SFTEMP1
001497: 40,2731           00162                           TC       MPAC+6
001498:
001499:                                                                                                  #  THE FOLLOWING ROUTINE DISPLAYS TWO CONTIGUOUS SP POSITIVE INTEGERS
001500:                                                                                                  #  AS TWO POSITIVE DECIMAL INTEGERS IN RXD1-RXD2 AND RXD4-RXD5 (RXD3 IS
001501:                                                                                                  #  BLANKED).  THE INTEGER IN THE LOWER NUMBERED ADDRESS IS DISPLAYED IN
001502:                                                                                                  #  RXD1-RXD2.
001503:
001504: 40,2732           02536        2INTOUT            TC       5BLANK                                #  TO BLANK RXD3
001505: 40,2733           02413                           TC       +ON                                   #  TURN ON + SIGN
001506: 40,2734           30154                           CA       MPAC
001507: 40,2735           03306                           TC       DSPDECVN                              #  DISPLAY 1ST INTEGER (LIKE VERB AND NOUN)
001508: 40,2736           46245                           CS       THREE
001509: 40,2737           50117                           INDEX    DECOUNT
001510: 40,2740           64317                           AD       R1D1                                  #  RXD4
001511: 40,2741           54777                           TS       DSPCOUNT
001512: 40,2742           02747                           TC       READLO                                #  GET 2ND INTEGER
001513: 40,2743           30155                           CA       MPAC       +1
001514: 40,2744           03306                           TC       DSPDECVN                              #  DISPLAY 2ND INTEGER (LIKE VERB AND NOUN)
001515: 40,2745           04635                           TC       POSTJUMP
001516: 40,2746           62570                           CADR     DSPDCEND   +2
001517:
001518:                                                                                                  #  READLO PICKS UP FRESHDATA FOR BOTH HI AND LO AND LEAVES IT IN
001519:                                                                                                  #  MPAC, MPAC+1.  THIS IS NEEDED FOR TIME DISPLAY.  IT ZEROES MPAC+2, BUT
001520:                                                                                                  #  DOES NOT FORCE TPAGREE.
001521:
001522: 40,2747           56002        READLO             XCH      Q
001523: 40,2750           54144                           TS       TEM4
001524: 40,2751           50140                           INDEX    MIXBR
001525: 40,2752           02752                           TC       +0
001526: 40,2753           02767                           TC       RDLONOR
001527: 40,2754           50117                           INDEX    DECOUNT
001528: 40,2755           30150                           CA       IDAD1TEM                              #  GET IDADDTAB ENTRY FOR COMP K OF NOUN.
001529: 40,2756           74356                           MASK     LOW11                                 #  E SUBK
001530: 40,2757           04313                           TC       SETEBANK                              #  SET EB, LEAVE EADRES IN A.
001531: 40,2760           00006        READLO1            EXTEND                                         #  MIXED                 NORMAL
001532: 40,2761           50000                           INDEX    A                                     #  C(ESUBK)              C(E)
001533: 40,2762           30001                           DCA      0                                     #  C(E SUBK)+1)          C(E+1)
001534: 40,2763           52155                           DXCH     MPAC
001535: 40,2764           34755                           CAF      ZERO
001536: 40,2765           54156                           TS       MPAC       +2
001537: 40,2766           00144                           TC       TEM4
001538:                                                                                                  #  Page 421
001539: 40,2767           30145        RDLONOR            CA       NOUNADD                               #  E
001540: 40,2770           02760        ENDRDLO            TC       READLO1
001541:
001542: 42,3230                                           BANK     42
001543: 42,2000                                           SETLOC   PINBALL3
001544: 42,2000                                           BANK
001545:
001546: 42,3230                                           COUNT*   $$/PIN
001547: 42,3230           04616        HMSOUT             TC       BANKCALL                              #  READ FRESH DATA FOR HI AND LO INTO MPAC,
001548: 42,3231           60747                           CADR     READLO                                #  MPAC+1.
001549: 42,3232           07257                           TC       TPAGREE                               #  MAKE DP DATA AGREE.
001550: 42,3233           03417                           TC       SEPSECNR                              #  LEAVE FRACT SEC/60 IN MPAC, MPAC+1. LEAVE
001551:                                                                                                  #  WHOLE MIN IN BIT13 OF LOTEMOUT AND ABOVE
001552: 42,3234           07103                           TC       DMP                                   #  USE ONLY FRACT SEC/60 MOD 60
001553: 42,3235           03271                           ADRES    SECON2                                #  MULT BY .06
001554: 42,3236           34321                           CAF      R3D1                                  #  GIVES CENTI-SEC/10EXP5 MOD 60
001555: 42,3237           54777                           TS       DSPCOUNT
001556: 42,3240           04616                           TC       BANKCALL                              #  DISPLAY SEC MOD 60
001557: 42,3241           61226                           CADR     DSPDECWD
001558: 42,3242           03435                           TC       SEPMIN                                #  REMOVE REST OF SECONDS
001559: 42,3243           33273                           CAF      MINCON2                               #  LEAVE FRACT MIN/60 IN MPAC+1.  LEAVE
001560: 42,3244           56154                           XCH      MPAC                                  #  WHOLE HOURS IN MPAC.
001561: 42,3245           55007                           TS       HITEMOUT                              #  SAVE WHOLE HOURS.
001562: 42,3246           33274                           CAF      MINCON2    +1
001563: 42,3247           56155                           XCH      MPAC       +1                         #  USE ONLY FRACT MIN/60 MOD 60
001564: 42,3250           04415                           TC       PRSHRTMP                              #  IF C(A) = -0, SHORTMP FAILS TO GIVE -0.
001565:                                                                                                  #  MULT BY .0006
001566: 42,3251           34320                           CAF      R2D1                                  #  GIVE MIN/10EXP5 MOD 60
001567: 42,3252           54777                           TS       DSPCOUNT
001568: 42,3253           04616                           TC       BANKCALL                              #  DISPLAY MIN MOD 60
001569: 42,3254           61226                           CADR     DSPDECWD
001570: 42,3255           00006                           EXTEND                                         #  MINUTES, SECONDS HAVE BEEN REMOVED
001571: 42,3256           33300                           DCA      HRCON1
001572: 42,3257           52155                           DXCH     MPAC
001573: 42,3260           31007                           CA       HITEMOUT                              #  USE WHOLE HOURS
001574: 42,3261           04415                           TC       PRSHRTMP                              #  IF C(A) = -0, SHORTMP FAILS TO GIVE -0.
001575:                                                                                                  #  MULT BY .16384
001576: 42,3262           34317                           CAF      R1D1                                  #  GIVES HOURS/10EXP5
001577: 42,3263           54777                           TS       DSPCOUNT
001578: 42,3264           04616                           TC       BANKCALL                              #  USE REGULAR DSPDECWD, WITH ROUND OFF.
001579: 42,3265           61226                           CADR     DSPDECWD
001580: 42,3266           00136                           TC       ENTEXIT
001581:
001582: 42,3267           25660 31742  SECON1             2DEC*    1.666666666 E-4        B12*            #  2EXP12/6000
001583: 42,3271           01727        SECON2             OCT      01727                                 #  .06 FOR SECONDS DISPLAY
001584: 42,3272           01217                           OCT      01217
001585: 42,3273           00011        MINCON2            OCT      00011                                 #  .0006 FOR MINUTES DISPLAY
001586: 42,3274           32445                           OCT      32445
001587:                                                                                                  #  Page 422
001588: 42,3275           02104        MINCON1            OCT      02104                                 #  .066..66 UPPED BY 2EXP-28
001589: 42,3276           10422                           OCT      10422
001590: 42,3277           05174 13261  HRCON1             2DEC     .16384
001591:
001592: 42,3301           00000                           OCT      00000
001593: 42,3302           00062        RNDCON             OCT      00062                                 #  .5 SEC
001594:
001595: 42,3303           04616        M/SOUT             TC       BANKCALL                              #  READ FRESH DATA FOR HI AND LO INTO MPAC.
001596: 42,3304           60747                           CADR     READLO                                #  MPAC+1.
001597: 42,3305           07257                           TC       TPAGREE                               #  MAKE DP DATA AGREE
001598: 42,3306           10154                           CCS      MPAC                                  #  IF MAG OF (MPAC, MPAC+1) G/ 59 M 59 S.
001599: 42,3307           03311                           TC       +2                                    #  DISPLAY 59B59, WITH PROPER SIGN.
001600: 42,3310           03342                           TC       M/SNORM                               #  MPAC = +0. L/ 59M58.5S
001601: 42,3311           63377                           AD       M/SCON1                               #  - HI PART OF (59M58.5S) +1 FOR CCS
001602: 42,3312           10000                           CCS      A                                     #  MAG OF MPAC - HI PART OF (59M58.5S)
001603: 42,3313           03326                           TC       M/SLIMIT                              #  G/ 59M58.5S
001604: 42,3314           03342                           TC       M/SNORM                               #  ORIGINAL MPAC = -0. L/ 59M58.5S
001605: 42,3315           03342                           TC       M/SNORM                               #  L/ 59M58.5S
001606: 42,3316           10155                           CCS      MPAC       +1                         #  MAG OF MPAC = HI PART OF 59M58.5S
001607: 42,3317           03321                           TC       +2
001608: 42,3320           03342                           TC       M/SNORM                               #  MPAC+1 = +0. L/ 59M58.5S
001609: 42,3321           63400                           AD       M/SCON2                               #  - LO PART OF (59M58.5S) +1 FOR CCS
001610: 42,3322           10000                           CCS      A                                     #  MAG OF MPAC+1 - LO PART OF (59M58.5S)
001611: 42,3323           03326                           TC       M/SLIMIT                              #  G/ 59M58.5S
001612: 42,3324           03342                           TC       M/SNORM                               #  ORIGINAL MPAC+1 = -0. L/ 59M58.5S
001613: 42,3325           03342                           TC       M/SNORM                               #  L/ 59M58.5S
001614: 42,3326           10154        M/SLIMIT           CCS      MPAC                                  #  = 59M58.5S    LIMIT
001615: 42,3327           33402                           CAF      M/SCON3                               #  MPAC CANNOT BE +/- 0 AT THIS POINT.
001616: 42,3330           03337                           TC       +LIMIT                                #  FORCE MPAC, MPAC+1 TO +/- 59M59.5S
001617: 42,3331           43402                           CS       M/SCON3
001618: 42,3332           54154                           TS       MPAC                                  #  WILL DISPLAY 59M59S IN DSPDECNR
001619: 42,3333           43403                           CS       M/SCON3    +1
001620: 42,3334           54155        LIMITCOM           TS       MPAC       +1
001621: 42,3335           33401                           CAF      NORMADR                               #  SET RETURN TO M/SNORM+1.
001622: 42,3336           03420                           TC       SEPSECNR   +1
001623: 42,3337           54154        +LIMIT             TS       MPAC
001624: 42,3340           33403                           CAF      M/SCON3    +1
001625: 42,3341           03334                           TC       LIMITCOM
001626: 42,3342           03404        M/SNORM            TC       SEPSEC                                #  LEAVE FRACT SEC/60 IN MPAC,MPAC+1. LEAVE
001627:                                                                                                  #  WHOLE MIN IN BIT13 OF LOTEMOUT AND ABOVE
001628: 42,3343           33375                           CAF      HISECON                               #  USE ONLY FRACT SEC/60 MOD 60
001629: 42,3344           07307                           TC       SHORTMP                               #  MULT BY .6 + 2EXP-14
001630: 42,3345           46245                           CS       THREE                                 #  GIVES SEC/100 MOD 60
001631: 42,3346           26777                           ADS      DSPCOUNT                              #  DSPCOUNT ALREADY SET TO RXD1
001632: 42,3347           04616                           TC       BANKCALL                              #  DISPLAY SEC MOD 60 IN D4D5.
001633: 42,3350           61266                           CADR     DSPDC2NR
001634: 42,3351           34755                           CAF      ZERO
001635: 42,3352           54124                           TS       CODE
001636: 42,3353           44752                           CS       TWO
001637:                                                                                                  #  Page 423
001638: 42,3354           50117                           INDEX    DECOUNT
001639: 42,3355           64317                           AD       R1D1                                  #  RXD3
001640: 42,3356           54143                           TS       COUNT
001641: 42,3357           04616                           TC       BANKCALL                              #  BLANK MIDDLE CHAR
001642: 42,3360           61322                           CADR     DSPIN
001643: 42,3361           03435                           TC       SEPMIN                                #  REMOVE REST OF SECONDS
001644: 42,3362           56155                           XCH      MPAC       +1                         #  LEAVE FRACT MIN/60 IN MPAC+1
001645: 42,3363           00006                           EXTEND                                         #  USE ONLY FRACT MIN/60 MOD 60
001646: 42,3364           73376                           MP       HIMINCON                              #  MULT BY .6 + 2EXP-7
001647: 42,3365           52155                           DXCH     MPAC                                  #  GIVES MIN/100 MOD 60
001648: 42,3366           50117                           INDEX    DECOUNT
001649: 42,3367           34317                           CAF      R1D1                                  #  RXD1
001650: 42,3370           54777                           TS       DSPCOUNT
001651: 42,3371           04616                           TC       BANKCALL                              #  DISPLAY MIN MOD 60 IN D1D2.
001652: 42,3372           61266                           CADR     DSPDC2NR
001653: 42,3373           04635                           TC       POSTJUMP
001654: 42,3374           62570                           CADR     DSPDCEND   +2
001655:
001656: 42,3375           23147        HISECON            OCT      23147                                 #  .6 + 2EXP-14
001657: 42,3376           23346        HIMINCON           OCT      23346                                 #  .6 + 2EXP-7
001658:
001659: 42,3377           77753        M/SCON1            OCT      77753                                 #  - HI PART OF (59M58.5S) +1
001660: 42,3400           41126        M/SCON2            OCT      41126                                 #  - LO PART OF (59M58.5S) +1
001661: 42,3401           03343        NORMADR            ADRES    M/SNORM    +1
001662: 42,3402           00025        M/SCON3            OCT      00025                                 #  59M 59.5S
001663: 42,3403           37016                           OCT      37016
001664:
001665: 42,3404           10155        SEPSEC             CCS      MPAC       +1                         #  IF +, ROUND BY ADDING .5 SEC
001666: 42,3405           13414                           TCF      POSEC                                 #  IF -, ROUND BY SUBTRACING .5 SEC
001667: 42,3406           13414                           TCF      POSEC                                 #  FINDS TIME IN MPAC, MPAC+1
001668: 42,3407           13410                           TCF      +1                                    #  ROUNDS OFF BY +/- .5 SEC
001669: 42,3410           00006                           EXTEND                                         #  LEAVES WHOLE MIN IN BIT13 OF
001670: 42,3411           43302                           DCS      RNDCON     -1                         #  LOTEMOUT AND ABOVE.
001671: 42,3412           20155        SEPSEC1            DAS      MPAC                                  #  LEAVES FRACT SEC/60 IN MPAC, MPAC+1.
001672: 42,3413           13417                           TCF      SEPSECNR
001673: 42,3414           00006        POSEC              EXTEND
001674: 42,3415           33302                           DCA      RNDCON     -1
001675: 42,3416           13412                           TCF      SEPSEC1
001676: 42,3417           56002        SEPSECNR           XCH      Q                                     #  THIS ENTRY AVOIDS ROUNDING BY .5 SEC
001677: 42,3420           54144                           TS       SEPSCRET
001678: 42,3421           07103                           TC       DMP                                   #  MULT BY 2EXP12/6000
001679: 42,3422           03267                           ADRES    SECON1                                #  GIVES FRACT SEC/60 IN BIT12 OF MPAC+1
001680: 42,3423           00006                           EXTEND                                         #  AND BELOW.
001681: 42,3424           30155                           DCA      MPAC                                  #  SAVE MINUTES AND HOURS
001682: 42,3425           53010                           DXCH     HITEMOUT
001683: 42,3426           04404                           TC       TPSL1
001684: 42,3427           04404                           TC       TPSL1                                 #  GIVES FRACT SEC/60 IN MPAC+1, MPAC+2.
001685: 42,3430           34755                           CAF      ZERO
001686: 42,3431           56156                           XCH      MPAC       +2                         #  LEAVE FRACT SEC/60 IN MPAC, MPAC+1.
001687:                                                                                                  #  Page 424
001688: 42,3432           56155                           XCH      MPAC       +1
001689: 42,3433           56154                           XCH      MPAC
001690: 42,3434           00144                           TC       SEPSCRET
001691:
001692: 42,3435           56002        SEPMIN             XCH      Q                                     #  FIND WHOLE MINUTES IN BIT13
001693: 42,3436           54144                           TS       SEPMNRET                              #  OF LOTEMOUT AND ABOVE.
001694: 42,3437           31010                           CA       LOTEMOUT                              #  REMOVES REST OF SECONDS.
001695: 42,3440           00006                           EXTEND                                         #  LEAVES FRACT MIN/60 IN MPAC+1.
001696: 42,3441           74751                           MP       BIT3                                  #  LEAVES WHOLE HOURS IN MPAC.
001697: 42,3442           00006                           EXTEND                                         #  SR 12, THROW AWAY LP.
001698: 42,3443           74737                           MP       BIT13                                 #  SR 2, TAKE FROM LP. = SL 12.
001699: 42,3444           22155                           LXCH     MPAC       +1                         #  THIS FORCES BITS 12-1 TO 0 IF +.
001700:                                                                                                  #  FORCES BITS 12-1 TO 1 IF -.
001701: 42,3445           31007                           CA       HITEMOUT
001702: 42,3446           54154                           TS       MPAC
001703: 42,3447           07103                           TC       DMP                                   #  MULT BY 1/15
001704: 42,3450           03275                           ADRES    MINCON1                               #  GIVES FRACT MIN/60 IN MPAC+1.
001705: 42,3451           00144        ENDSPMIN           TC       SEPMNRET                              #  GIVES WHOLE HOURS IN MPAC.
001706:
001707:                                                                                                  #  THIS IS A SPECIAL PURPOS VERB FOR DISPLAYING A DOUBLE PRECISION AGC
001708:                                                                                                  #  WORD AS 10 DECIMAL DIGITS ON THE AGC DISPLAY PANEL.  IT CAN BE USED WITH
001709:                                                                                                  #  ANY NOUN, EXCEPT MIXED NOUNS. IT DISPLAYS THE CONTENTS
001710:                                                                                                  #  OF THE REGISTER NOUNADD IS POINTING TO.  IF USED WITH NOUNS WHICH ARE
001711:                                                                                                  #  INHERENTLY NOT DP SUCH AS THE CDU COUNTERS THE DISPLAY WILL BE GARBAGE.
001712:                                                                                                  #  DISPLAY IS IN R1 AND R2 ONLY WITH THE SIGN IN R1.
001713:
001714: 40,2771                                           SETLOC   ENDRDLO    +1
001715:
001716: 40,2771                                           COUNT*   $$/PIN
001717: 40,2771           50140        DSPDPDEC           INDEX    MIXBR
001718: 40,2772           02772                           TC       +0
001719: 40,2773           02775                           TC       +2                                    #  NORMAL NOUN
001720: 40,2774           03420                           TC       DSPALARM
001721: 40,2775           00006                           EXTEND
001722: 40,2776           50145                           INDEX    NOUNADD
001723: 40,2777           30001                           DCA      0
001724: 40,3000           52155                           DXCH     MPAC
001725: 40,3001           34317                           CAF      R1D1
001726: 40,3002           54777                           TS       DSPCOUNT
001727: 40,3003           34755                           CAF      ZERO
001728: 40,3004           54156                           TS       MPAC       +2
001729: 40,3005           07257                           TC       TPAGREE
001730: 40,3006           03273                           TC       DSP2DEC
001731: 40,3007           00136        ENDDPDEC           TC       ENTEXIT
001732:
001733:                                                                                                  #  Page 425
001734:                                                                                                  #  LOAD VERBS            IF ALARM CONDITION IS DETECTED DURING EXECUTE,
001735:                                                                                                  #  CHECK FAIL LIGHT IS TURNED ON AND ENDOFJOB.  IF ALARM CONDITION IS
001736:                                                                                                  #  DETECTED DURING ENTER OF DATA, CHECK FAIL IS TURNED ON AND IT RECYCLES
001737:                                                                                                  #  TO EXECUTE OF ORIGINAL LOAD VERB.  RECYCLE CAUSED BY  1) DECIMAL MACHINE
001738:                                                                                                  #  CADR  2) MIXTURE OF OCTAL/DECIMAL DATA  3) OCTAL DATA INTO DECIMAL
001739:                                                                                                  #  ONLY NOUN  4) DEC DATA INTO OCT ONLY NOUN  5) DATA TOO LARGE FOR SCALE
001740:                                                                                                  #  6) FEWER THAN 3 DATA WORDS LOADED FOR HRS, MIN, SEC NOUN.  (2)-(6) ALARM
001741:                                                                                                  #  AND RECYCLE OCCUR AT FINAL ENTER OF SET. (1) ALARM AND RECYCLE OCCUR AT
001742:                                                                                                  #  ENTER OF CADR.
001743:
001744: 41,2616                                           SETLOC   ENDRTOUT
001745:
001746: 41,2616                                           COUNT*   $$/PIN
001747: 41,2616           44752        ABCLOAD            CS       TWO
001748: 41,2617           02424                           TC       COMPTEST
001749: 41,2620           02460                           TC       NOUNTEST                              #  TEST IF NOUN CAN BE LOADED.
001750: 41,2621           33006                           CAF      VBSP1LD
001751: 41,2622           02337                           TC       UPDATVB    -1
001752: 41,2623           02303                           TC       REQDATX
001753: 41,2624           33007                           CAF      VBSP2LD
001754: 41,2625           02337                           TC       UPDATVB    -1
001755: 41,2626           02305                           TC       REQDATY
001756: 41,2627           33010                           CAF      VBSP3LD
001757: 41,2630           02337                           TC       UPDATVB    -1
001758: 41,2631           02307                           TC       REQDATZ
001759:
001760: 41,2632           46242        PUTXYZ             CS       SIX                                   #  TEST THAT THE 3 DATA WORDS LOADED ARE
001761: 41,2633           03011                           TC       ALLDC/OC                              #  ALL DEC OR ALL OCT.
001762: 41,2634           00006                           EXTEND
001763: 41,2635           32114                           DCA      LODNNLOC                              #  SWITCH BANKS TO NOUN TABLE READING
001764: 41,2636           52006                           DXCH     Z                                     #  ROUTINE.
001765: 41,2637           34755                           CAF      ZERO                                  #  X COMP
001766: 41,2640           03075                           TC       PUTCOM
001767: 41,2641           50145                           INDEX    NOUNADD
001768: 41,2642           54000                           TS       0
001769: 41,2643           34753                           CAF      ONE                                   #  Y COMP
001770: 41,2644           03075                           TC       PUTCOM
001771: 41,2645           50145                           INDEX    NOUNADD
001772: 41,2646           54001                           TS       1
001773: 41,2647           34752                           CAF      TWO                                   #  Z COMP
001774: 41,2650           03075                           TC       PUTCOM
001775: 41,2651           50145                           INDEX    NOUNADD
001776: 41,2652           54002                           TS       2
001777: 41,2653           44757                           CS       SEVEN                                 #  IF NOUN 7 HAS JUST BEEN LOADED, SET
001778: 41,2654           61002                           AD       NOUNREG                               #  FLAG BITS AS SPECIFIED.
001779: 41,2655           00006                           EXTEND
001780: 41,2656           12660                           BZF      +2
001781: 41,2657           02775                           TC       LOADLV
001782:                                                                                                  #  Page 426
001783: 41,2660           31003                           CA       XREG                                  #  ECADR OF FLAG WORD.
001784: 41,2661           04304                           TC       SETNCADR   +1                         #  SET EBANK, NOUNADD.
001785: 41,2662           31005                           CA       ZREG                                  #  ZERO TO RESET BITS, NON-ZERO TO SET BITS.
001786: 41,2663           00004                           INHINT
001787: 41,2664           00006                           EXTEND
001788: 41,2665           12674                           BZF      BITSOFF
001789: 41,2666           50145                           INDEX    NOUNADD
001790: 41,2667           40000                           CS       0
001791: 41,2670           71004                           MASK     YREG                                  #  BITS TO BE PROCESSED.
001792: 41,2671           50145                           INDEX    NOUNADD
001793: 41,2672           26000                           ADS      0                                     #  SET BITS.
001794: 41,2673           02701                           TC       BITSOFF1
001795: 41,2674           41004        BITSOFF            CS       YREG                                  #  BITS TO BE PROCESSED.
001796: 41,2675           50145                           INDEX    NOUNADD
001797: 41,2676           70000                           MASK     0
001798: 41,2677           50145                           INDEX    NOUNADD
001799: 41,2700           54000                           TS       0                                     #  RESET BITS.
001800: 41,2701           00003        BITSOFF1           RELINT
001801: 41,2702           02775                           TC       LOADLV
001802:
001803: 41,2703           44753        ABLOAD             CS       ONE
001804: 41,2704           02424                           TC       COMPTEST
001805: 41,2705           02460                           TC       NOUNTEST                              #  TEST IF NOUN CAN BE LOADED.
001806: 41,2706           33006                           CAF      VBSP1LD
001807: 41,2707           02337                           TC       UPDATVB    -1
001808: 41,2710           02303                           TC       REQDATX
001809: 41,2711           33007                           CAF      VBSP2LD
001810: 41,2712           02337                           TC       UPDATVB    -1
001811: 41,2713           02305                           TC       REQDATY
001812: 41,2714           44756        PUTXY              CS       FIVE                                  #  TEST THAT THE 2 DATA WORDS LOADED ARE
001813: 41,2715           03011                           TC       ALLDC/OC                              #  ALL DEC OR ALL OCT.
001814: 41,2716           00006                           EXTEND
001815: 41,2717           32114                           DCA      LODNNLOC                              #  SWITCH BANKS TO NOUN TABLE READING
001816: 41,2720           52006                           DXCH     Z                                     #  ROUTINE.
001817: 41,2721           34755                           CAF      ZERO                                  #  X COMP
001818: 41,2722           03075                           TC       PUTCOM
001819: 41,2723           50145                           INDEX    NOUNADD
001820: 41,2724           54000                           TS       0
001821: 41,2725           34753                           CAF      ONE                                   #  Y COMP
001822: 41,2726           03075                           TC       PUTCOM
001823: 41,2727           50145                           INDEX    NOUNADD
001824: 41,2730           54001                           TS       1
001825: 41,2731           02775                           TC       LOADLV
001826:
001827: 41,2732           02303        ALOAD              TC       REQDATX
001828: 41,2733           00006                           EXTEND
001829: 41,2734           32114                           DCA      LODNNLOC                              #  SWITCH BANKS TO NOUN TABLE READING
001830: 41,2735           52006                           DXCH     Z                                     #  ROUTINE.
001831: 41,2736           34755                           CAF      ZERO                                  #  X COMP
001832: 41,2737           03075                           TC       PUTCOM
001833:                                                                                                  #  Page 427
001834: 41,2740           50145                           INDEX    NOUNADD
001835: 41,2741           54000                           TS       0
001836: 41,2742           02775                           TC       LOADLV
001837:
001838: 41,2743           44753        BLOAD              CS       ONE
001839: 41,2744           02424                           TC       COMPTEST
001840: 41,2745           34735                           CAF      BIT15                                 #  SET CLPASS FOR PASS0 ONLY
001841: 41,2746           55015                           TS       CLPASS
001842: 41,2747           02305                           TC       REQDATY
001843: 41,2750           00006                           EXTEND
001844: 41,2751           32114                           DCA      LODNNLOC                              #  SWITCH BANKS TO NOUN TABLE READING
001845: 41,2752           52006                           DXCH     Z                                     #  ROUTINE.
001846: 41,2753           34753                           CAF      ONE
001847: 41,2754           03075                           TC       PUTCOM
001848: 41,2755           50145                           INDEX    NOUNADD
001849: 41,2756           54001                           TS       1
001850: 41,2757           02775                           TC       LOADLV
001851:
001852: 41,2760           44752        CLOAD              CS       TWO
001853: 41,2761           02424                           TC       COMPTEST
001854: 41,2762           34735                           CAF      BIT15                                 #  SET CLPASS FOR PASS0 ONLY
001855: 41,2763           55015                           TS       CLPASS
001856: 41,2764           02307                           TC       REQDATZ
001857: 41,2765           00006                           EXTEND
001858: 41,2766           32114                           DCA      LODNNLOC                              #  SWITCH BANKS TO NOUN TABLE READING
001859: 41,2767           52006                           DXCH     Z                                     #  ROUTINE.
001860: 41,2770           34752                           CAF      TWO
001861: 41,2771           03075                           TC       PUTCOM
001862: 41,2772           50145                           INDEX    NOUNADD
001863: 41,2773           54002                           TS       2
001864: 41,2774           02775                           TC       LOADLV
001865:
001866: 41,2775           34755        LOADLV             CAF      ZERO
001867: 41,2776           55000                           TS       DECBRNCH
001868: 41,2777           44755                           CS       ZERO
001869: 41,3000           55014                           TS       LOADSTAT
001870: 41,3001           04457                           TC       RELDSP                                #  RELEASE FOR PRIORITY DISPLAY PROBLEM.
001871: 41,3002           44360                           CS       VD1                                   #  TO BLOCK NUMERICAL CHARACTERS AND
001872: 41,3003           54777                           TS       DSPCOUNT                              #  CLEARS AFTER A COMPLETED LOAD
001873: 41,3004           04635                           TC       POSTJUMP                              #  AFTER COMPLETED LOAD, GO TO RECALTST
001874: 41,3005           61547                           CADR     RECALTST                              #  TO SEE IF THERE IS RECALL FROM ENDIDLE.
001875:
001876: 41,3006           00025        VBSP1LD            DEC      21         B-14                       #  VB21 = ALOAD
001877: 41,3007           00026        VBSP2LD            DEC      22         B-14                       #  VB22 = BLOAD
001878: 41,3010           00027        VBSP3LD            DEC      23         B-14                       #  VB23 = CLOAD
001879:
001880: 41,3011           54117        ALLDC/OC           TS       DECOUNT                               #  TESTS THAT DATA WORDS LOADED ARE EITHER
001881: 41,3012           41000                           CS       DECBRNCH                              #  ALL DEC OR ALL OCT. ALARMS IF NOT.
001882: 41,3013           54021                           TS       SR
001883:                                                                                                  #  Page 428
001884: 41,3014           40021                           CS       SR
001885: 41,3015           40021                           CS       SR                                    #  SHIFTED RIGHT 2
001886: 41,3016           10000                           CCS      A                                     #  DEC COMP BITS IN LOW 3
001887: 41,3017           13021                           TCF      +2                                    #  SOME ONES IN LOW 3
001888: 41,3020           00002                           TC       Q                                     #  ALL ZEROS. ALL OCTAL.  OK
001889: 41,3021           60117                           AD       DECOUNT                               #  DEC COMP = 7 FOR 3COMP, =6 FOR 2COMP
001890: 41,3022           00006                           EXTEND                                         #  (BUT IT HAS BEEN DECREMENTED BY CCS)
001891: 41,3023           13025                           BZF      +2                                    #  MUST MATCH 6 FOR 3COMP, 5 FOR 2COMP.
001892: 41,3024           04145                           TC       ALMCYCLE                              #  ALARM AND RECYCLE.
001893: 41,3025           00002        GOQ                TC       Q                                     #  ALL REQUIRED ARE DEC.  OK
001894:
001895: 41,3026           56002        SFRUTNOR           XCH      Q                                     #  GETS SF ROUTINE NUMBER FOR NORMAL CASE
001896: 41,3027           54114                           TS       EXITEM                                #  CAN'T USE L FOR RETURN. TSTFORDP USES L.
001897: 41,3030           34347                           CAF      MID5
001898: 41,3031           70147                           MASK     NNTYPTEM
001899: 41,3032           04322                           TC       RIGHT5
001900: 41,3033           00114                           TC       EXITEM                                #  SF ROUTINE NUMBER IN A
001901:
001902: 41,3034           56002        SFRUTMIX           XCH      Q                                     #  GETS SF ROUTINE NUMBER FOR MIXED CASE
001903: 41,3035           54114                           TS       EXITEM
001904: 41,3036           50117                           INDEX    DECOUNT
001905: 41,3037           33066                           CAF      DISPLACE                              #  PUT TC GOQ, TC RIGHT5, OR TC LEFT5 IN L
001906: 41,3040           54001                           TS       L
001907: 41,3041           50117                           INDEX    DECOUNT
001908: 41,3042           34346                           CAF      LOW5                                  #  LOW5, MID5, OR HI5 IN A
001909: 41,3043           70153                           MASK     RUTMXTEM                              #  GET HI5, MID5, OR LOW5 OF RUTMXTAB ENTRY
001910: 41,3044           50001                           INDEX    L
001911: 41,3045           00000                           TC       0
001912:
001913:                                                                                                  #  DO TC GOQ(DECOUNT=0), DO TC RIGHT5(DECOUNT=1), DO TC LEFT5(DECOUNT=2).
001914: 41,3046           00114        SFRET1             TC       EXITEM                                #  SF ROUTINE NUMBER IN A
001915:
001916: 41,3047           56002        SFCONUM            XCH      Q                                     #  GETS 2X(SF CONSTANT NUMBER)
001917: 41,3050           54114                           TS       EXITEM
001918: 41,3051           50140                           INDEX    MIXBR
001919: 41,3052           03052                           TC       +0
001920: 41,3053           03071                           TC       CONUMNOR                              #  NORMAL NOUN
001921: 41,3054           50117                           INDEX    DECOUNT                               #  MIXED NOUN
001922: 41,3055           33066                           CAF      DISPLACE
001923: 41,3056           54001                           TS       L                                     #  PUT TC GOQ, TC RIGHT5, OR TC LEFT5 IN L
001924: 41,3057           50117                           INDEX    DECOUNT
001925: 41,3060           34346                           CAF      LOW5
001926: 41,3061           70147                           MASK     NNTYPTEM
001927: 41,3062           50001                           INDEX    L
001928: 41,3063           00000                           TC       0
001929:
001930:                                                                                                  #  DO TC GOQ(DECOUNT=0), DO TC RIGHT5(DECOUNT=1), DO TC LEFT5(DECOUNT=2).
001931: 41,3064           60000        SFRET              DOUBLE                                         #  2X(SF CONSTANT NUMBER) IN A
001932: 41,3065           00114                           TC       EXITEM
001933:
001934: 41,3066           03025        DISPLACE           TC       GOQ
001935:                                                                                                  #  Page 429
001936: 41,3067           04322                           TC       RIGHT5
001937: 41,3070           04331                           TC       LEFT5
001938:
001939: 41,3071           34346        CONUMNOR           CAF      LOW5                                  #  NORMAL NOUN ALWAYS GETS LOW5 OF
001940: 41,3072           70147                           MASK     NNTYPTEM                              #  NNTYPTAB FOR SF CONUM.
001941: 41,3073           60000                           DOUBLE
001942: 41,3074           00114                           TC       EXITEM                                #  2X(SF CONSTANT NUMBER) IN A
001943:
001944: 41,3075           54117        PUTCOM             TS       DECOUNT
001945: 41,3076           56002                           XCH      Q
001946: 41,3077           54115                           TS       DECRET
001947: 41,3100           34755                           CAF      ZERO
001948: 41,3101           54162                           TS       MPAC+6
001949: 41,3102           50117                           INDEX    DECOUNT
001950: 41,3103           57006                           XCH      XREGLP
001951: 41,3104           54155                           TS       MPAC       +1
001952: 41,3105           50117                           INDEX    DECOUNT
001953: 41,3106           57003                           XCH      XREG
001954: 41,3107           54154                           TS       MPAC
001955: 41,3110           50140                           INDEX    MIXBR
001956: 41,3111           03111                           TC       +0
001957: 41,3112           03137                           TC       PUTNORM                               #  NORMAL NOUN
001958:                                                                                                  #  IF MIXNOUN, PLACE ADDRESS FOR COMPONENT K INTO NOUNADD, SET EBANK BITS.
001959: 41,3113           50117                           INDEX    DECOUNT                               #  GET IDADDTAB ENTRY FOR COMPONENT K
001960: 41,3114           30150                           CA       IDAD1TEM                              #        OF NOUN.
001961: 41,3115           74356                           MASK     LOW11                                 #  (ECADR)SUBK FOR CURRENT COMP OF NOUN
001962: 41,3116           04303                           TC       SETNCADR                              #  ECADR INTO NOUNCADR. SETS EB, NOUNADD.
001963: 41,3117           00006                           EXTEND                                         #  C(NOUNADD) IN A UPON RETURN
001964: 41,3120           60117                           SU       DECOUNT                               #  PLACE (ESUBK)-K INTO NOUNADD
001965: 41,3121           54145                           TS       NOUNADD
001966: 41,3122           11000                           CCS      DECBRNCH
001967: 41,3123           03174                           TC       PUTDECSF                              #  + DEC
001968: 41,3124           02452                           TC       DCTSTCYC                              #  +0 OCTAL
001969: 41,3125           03034                           TC       SFRUTMIX                              #  TEST IF DEC ONLY BIT = 1. IF SO,
001970: 41,3126           02261                           TC       DPTEST                                #  ALARM AND RECYCLE. IF NOT, CONTINUE.
001971: 41,3127           03155                           TC       PUTCOM2                               #  NO DP
001972:                                                                                                  #  TEST FOR DP SCALE FOR OCT LOAD. IF SO,
001973:                                                                                                  #  +0 INTO MAJOR PART. SET NOUNADD FOR
001974:                                                                                                  #  LOADING OCTAL WORD INTO MINOR PART.
001975: 41,3130           24145        PUTDPCOM           INCR     NOUNADD                               #  DP (ESUBK)-K+1  OR  E+1
001976: 41,3131           30145                           CA       NOUNADD                               #  NOUNADD NOW SET FOR MINOR PART
001977: 41,3132           26117                           ADS      DECOUNT                               #  (ESUBK)+1  OR  E+1  INTO DECOUNT
001978: 41,3133           34755                           CAF      ZERO                                  #  NOUNADD SET FOR MINOR PART
001979: 41,3134           50117                           INDEX    DECOUNT
001980: 41,3135           53777                           TS       0          -1                         #  ZERO MAJOR PART(ESUBK OR E)
001981: 41,3136           03155                           TC       PUTCOM2
001982:
001983: 41,3137           04311        PUTNORM            TC       SETNADD                               #  ECADR FROM NOUNCADR. SETS EB, NOUNADD.
001984: 41,3140           11000                           CCS      DECBRNCH
001985:                                                                                                  #  Page 430
001986: 41,3141           03174                           TC       PUTDECSF                              #  + DEC
001987: 41,3142           02452                           TC       DCTSTCYC                              #  +0 OCTAL
001988: 41,3143           03026                           TC       SFRUTNOR                              #  TEST IF DEC ONLY BIT =1. IF SO,
001989: 41,3144           02261                           TC       DPTEST                                #  ALARM AND RECYCLE. IF NOT, CONTINUE.
001990: 41,3145           03151                           TC       PUTCOM2    -4                         #  NO DP
001991: 41,3146           34755                           CAF      ZERO                                  #  DP
001992: 41,3147           54117                           TS       DECOUNT
001993: 41,3150           03130                           TC       PUTDPCOM
001994:
001995: 41,3151           30146                           CA       NNADTEM
001996: 41,3152           64753                           AD       ONE                                   #  IF NNADTEM = -1, CHANNEL TO BE SPECIFIED
001997: 41,3153           00006                           EXTEND
001998: 41,3154           13161                           BZF      CHANLOAD
001999: 41,3155           56154        PUTCOM2            XCH      MPAC
002000: 41,3156           00115                           TC       DECRET
002001:
002002: 41,3157     0777                                  EBANK=   DSPCOUNT
002003: 41,3157           02147 64101  GTSFINLC           2CADR    GTSFIN
002004:
002005: 41,3161           44757        CHANLOAD           CS       SEVEN                                 #  DONT LOAD CHAN 7. (IT = SUPERBANK).
002006: 41,3162           61017                           AD       NOUNCADR
002007: 41,3163           00006                           EXTEND
002008: 41,3164           12775                           BZF      LOADLV
002009: 41,3165           31017                           CA       NOUNCADR
002010: 41,3166           75004                           MASK     LOW9
002011: 41,3167           56154                           XCH      MPAC
002012: 41,3170           00006                           EXTEND
002013: 41,3171           50154                           INDEX    MPAC
002014: 41,3172           01000                           WRITE    0
002015: 41,3173           02775                           TC       LOADLV
002016:
002017:                                                                                                  #  PUTDECSF FINDS MIXBR AND DECOUNT STILL SET FROM PUTCOM
002018:
002019: 41,3174           03047        PUTDECSF           TC       SFCONUM                               #  2X(SF CON NUMB) IN A
002020: 41,3175           54123                           TS       SFTEMP1
002021: 41,3176           00006                           EXTEND                                         #  SWITCH BANKS TO SF CONSTANT TABLE
002022: 41,3177           33160                           DCA      GTSFINLC                              #  READING ROUTINE.
002023: 41,3200           52006                           DXCH     Z                                     #  LOADS SFTEMP1, SFTEMP2.
002024: 41,3201           50140                           INDEX    MIXBR
002025: 41,3202           03202                           TC       +0
002026: 41,3203           03206                           TC       PUTSFNOR
002027: 41,3204           03034                           TC       SFRUTMIX
002028: 41,3205           03207                           TC       PUTDCSF2
002029: 41,3206           03026        PUTSFNOR           TC       SFRUTNOR
002030:
002031: 41,3207           50000        PUTDCSF2           INDEX    A
002032: 41,3210           33212                           CAF      SFINTABR
002033:                                                                                                  #  Page 431
002034: 41,3211           04640                           TC       BANKJUMP                              #  SWITCH BANKS FOR EXPANSION ROOM
002035: 41,3212           62350        SFINTABR           CADR     GOALMCYC                              #  ALARM AND RECYCLE IF DEC LOAD
002036:                                                                                                  #  WITH OCTAL ONLY NOUN.
002037: 41,3213           61106                           CADR     BINROUND
002038: 41,3214           61010                           CADR     DEGINSF
002039: 41,3215           61076                           CADR     ARTHINSF
002040: 41,3216           61114                           CADR     DPINSF
002041: 41,3217           61141                           CADR     DPINSF2
002042: 41,3220           61420                           CADR     DSPALARM                              #  LRPOSOUT CANT BE LOADED.
002043: 41,3221           61114                           CADR     DPINSF                                #  SAME AS ARITHDP1
002044: 41,3222           65452                           CADR     HMSIN
002045: 41,3223           61420                           CADR     DSPALARM                              #  MIN/SEC CANT BE LOADED.
002046: 41,3224           61146                           CADR     DPINSF4
002047: 41,3225           61111                           CADR     ARTIN1SF
002048: 41,3226           61420                           CADR     DSPALARM                              #  2INTOUT CANT BE LOADED.
002049: 41,3227           61010                           CADR     DEGINSF                               #  TESTS AT END FOR 360-CDU
002050: 41,3230                        ENDRUTIN           EQUALS
002051:
002052:                                                                                                  #  SCALE FACTORS FOR THOSE ROUTINES NEEDING THEM ARE AVAILABLE IN SFTEMP1.
002053:                                                                                                  #  ALL SFIN ROUTINES USE MPAC MPAC+1. LEAVE RESULT IN A. END WITH TC DECRET.
002054:
002055: 40,3010                                           SETLOC   ENDDPDEC   +1
002056:
002057: 40,3010                                           COUNT*   $$/PIN
002058:                                                                                                  #  DEGINSF APPLIES 1000/180 = 5.55555(10) = 5.43434(8)
002059:
002060: 40,3010           07103        DEGINSF            TC       DMP                                   #  SF ROUTINE FOR DEC DEGREES
002061: 40,3011           03074                           ADRES    DEGCON1                               #  MULT BY 5.5 5(10)X2EXP-3
002062: 40,3012           10155                           CCS      MPAC       +1                         #  THIS ROUNDS OFF MPAC+1 BEFORE SHIFT
002063: 40,3013           34741                           CAF      BIT11                                 #  LEFT 3, AND CAUSES 360.00 TO OF/UF
002064: 40,3014           03016                           TC       +2                                    #  WHEN SHIFTED LEFT AND ALARM.
002065: 40,3015           44741                           CS       BIT11
002066: 40,3016           60155                           AD       MPAC       +1
002067: 40,3017           03165                           TC       2ROUND     +2
002068: 40,3020           04404                           TC       TPSL1                                 #  LEFT 1
002069: 40,3021           04404        DEGINSF2           TC       TPSL1                                 #  LEFT 2
002070: 40,3022           03174                           TC       TESTOFUF
002071: 40,3023           04404                           TC       TPSL1                                 #  RETURNS IF NO OF/UF (LEFT3)
002072: 40,3024           10154                           CCS      MPAC
002073: 40,3025           03031                           TC       SIGNFIX                               #  IF +, GO TO SIGNFIX
002074: 40,3026           03031                           TC       SIGNFIX                               #  IF +0, GO TO SIGNFIX
002075: 40,3027           40000                           COM                                            #  IF -, USE -MAGNITUDE +1
002076: 40,3030           54154                           TS       MPAC                                  #  IF -0, USE +0
002077: 40,3031           10162        SIGNFIX            CCS      MPAC+6
002078: 40,3032           03070                           TC       SGNTO1                                #  IF OVERFLOW
002079: 40,3033           03043                           TC       ENDSCALE                              #  NO OVERFLOW/UNDERFLOW
002080: 40,3034           10154                           CCS      MPAC                                  #  IF UF FORCE SIGN TO 0 EXCEPT -180
002081: 40,3035           05705                           TC       CCSHOLE
002082:                                                                                                  #  Page 432
002083: 40,3036           03066                           TC       NEG180
002084: 40,3037           03040                           TC       +1
002085: 40,3040           56154                           XCH      MPAC
002086: 40,3041           74733                           MASK     POSMAX
002087: 40,3042           54154                           TS       MPAC
002088: 40,3043           50140        ENDSCALE           INDEX    MIXBR                                 #  IF ROUTINE NO. IS NOT CDU DEGREES,
002089: 40,3044           03044                           TC       +0                                    #  THEN THIS IS 360 - CDU DEGREES
002090: 40,3045           03050                           TC       +3                                    #  AND ANGLE IN MPAC MUST BE REPLACED
002091: 40,3046           03060                           TC       SFMIXCAL                              #  BY 360 DEGREES MINUS ITSELF.
002092: 40,3047           03051        MIXBACK            TC       +2
002093: 40,3050           03063                           TC       SFNORCAL
002094: 40,3051           40000        NORBACK            CS       A
002095: 40,3052           64752                           AD       BIT2
002096: 40,3053           00006                           EXTEND
002097: 40,3054           13056                           BZF      +2
002098: 40,3055           02625                           TC       360-CDU
002099: 40,3056           04635        ENDSCAL1           TC       POSTJUMP
002100: 40,3057           63155                           CADR     PUTCOM2
002101:
002102: 40,3060           04616        SFMIXCAL           TC       BANKCALL
002103: 40,3061           63034                           CADR     SFRUTMIX
002104: 40,3062           03047                           TC       MIXBACK
002105:
002106: 40,3063           04616        SFNORCAL           TC       BANKCALL
002107: 40,3064           63026                           CADR     SFRUTNOR
002108: 40,3065           03051                           TC       NORBACK
002109:
002110: 40,3066           44733        NEG180             CS       POSMAX
002111: 40,3067           03042                           TC       ENDSCALE   -1
002112:
002113: 40,3070           40154        SGNTO1             CS       MPAC                                  #  IF OF FORCE SIGN TO 1
002114: 40,3071           74733                           MASK     POSMAX
002115: 40,3072           40000                           CS       A
002116: 40,3073           03042                           TC       ENDSCALE   -1
002117:
002118: 40,3074           26161 30707  DEGCON1            2DEC     5.555555555 B-3
002119:
002120: 40,3076           07103        ARTHINSF           TC       DMP                                   #  SCALES MPAC, +1 BY SFTEMP1, SFTEMP2.
002121: 40,3077           00123                           ADRES    SFTEMP1                               #  ASSUMES POINT BETWEEN HI AND LO PARTS
002122: 40,3100           56156                           XCH      MPAC       +2                         #  OF SFCON. SHIFTS RESULTS LEFT BY 14.
002123: 40,3101           56155                           XCH      MPAC       +1                         #  (BY TAKING RESULTS FROM MPAC+1, MPAC+2)
002124: 40,3102           56154                           XCH      MPAC
002125: 40,3103           00006                           EXTEND
002126: 40,3104           13106                           BZF      BINROUND
002127: 40,3105           04145                           TC       ALMCYCLE                              #  TOO LARGE A LOAD. ALARM AND RECYCLE.
002128: 40,3106           03163        BINROUND           TC       2ROUND
002129: 40,3107           03174                           TC       TESTOFUF
002130: 40,3110           03056                           TC       ENDSCAL1                              #  RETURNS IF NO OF/UF
002131:
002132:                                                                                                  #  Page 433
002133: 40,3111           07103        ARTIN1SF           TC       DMP                                   #  SCALES MPAC, +1 BY SFTEMP1, SFTEMP2.
002134: 40,3112           00123                           ADRES    SFTEMP1                               #  ROUNDS MPAC+1 INTO MPAC.
002135: 40,3113           03106                           TC       BINROUND
002136:
002137: 40,3114           07103        DPINSF             TC       DMP                                   #  SCALES MPAC, MPAC +1 BY SFTEMP1,
002138: 40,3115           00123                           ADRES    SFTEMP1                               #  SFTEMP.  STORES LOW PART OF RESULT
002139: 40,3116           56156                           XCH      MPAC       +2                         #  IN (E SUBK) +1 OR E+1
002140: 40,3117           60000                           DOUBLE
002141: 40,3120           54156                           TS       MPAC       +2
002142: 40,3121           34755                           CAF      ZERO
002143: 40,3122           60155                           AD       MPAC       +1
002144: 40,3123           03165                           TC       2ROUND     +2
002145: 40,3124           03174                           TC       TESTOFUF
002146: 40,3125           50140                           INDEX    MIXBR                                 #  RETURNS IF NO OF/UF
002147: 40,3126           03126                           TC       +0
002148: 40,3127           03137                           TC       DPINORM
002149: 40,3130           30117                           CA       DECOUNT                               #  MIXED NOUN
002150: 40,3131           60145        DPINCOM            AD       NOUNADD                               #        MIXED           NORMAL
002151: 40,3132           54002                           TS       Q                                     #        E SUBK          E
002152: 40,3133           56155                           XCH      MPAC       +1
002153: 40,3134           50002                           INDEX    Q
002154: 40,3135           54001                           TS       1                                     #  PLACE LOW PART IN
002155: 40,3136           03056                           TC       ENDSCAL1                              #  (E SUBK) +1   MIXED
002156:
002157: 40,3137           34755        DPINORM            CAF      ZERO                                  #  E +1          NORMAL
002158: 40,3140           03131                           TC       DPINCOM
002159:
002160: 40,3141           07103        DPINSF2            TC       DMP                                   #  ASSUMES POINT BETWEEN BITS 7-8 OF HIGH
002161: 40,3142           00123                           ADRES    SFTEMP1                               #  PART OF SF CONST. DPINSF2 SHIFTS RESULTS
002162: 40,3143           36242                           CAF      SIX                                   #  LEFT BY 7, ROUNDS MPAC+2 INTO MPAC+1
002163: 40,3144           03153                           TC       TPLEFTN                               #  SHIFT LEFT 7.
002164: 40,3145           03116                           TC       DPINSF     +2
002165:
002166: 40,3146           07103        DPINSF4            TC       DMP                                   #  ASSUMES POINT BETWEEN BITS 11-12 OF HIGH
002167: 40,3147           00123                           ADRES    SFTEMP1                               #  PART OF SF CONST. DPINSF2 SHIFTS RESULTS
002168: 40,3150           34752                           CAF      TWO                                   #  LEFT BY 3, ROUNDS MPAC+2 INTO MPAC+1.
002169: 40,3151           03153                           TC       TPLEFTN                               #  SHIFT LEFT 3.
002170: 40,3152           03116                           TC       DPINSF     +2
002171:
002172: 40,3153           56002        TPLEFTN            XCH      Q                                     #  SHIFTS MPAC, +1, +2 LEFT N. SETS OVFIND
002173: 40,3154           54124                           TS       SFTEMP2                               #  TO +1 FOR OF, -1 FOR UF.
002174: 40,3155           56002                           XCH      Q                                     #  CALL WITH N-1 IN A.
002175: 40,3156           54123        LEFTNCOM           TS       SFTEMP1                               #        LOOP TIME .37 MSEC.
002176: 40,3157           04404                           TC       TPSL1
002177: 40,3160           10123                           CCS      SFTEMP1
002178: 40,3161           03156                           TC       LEFTNCOM
002179:                                                                                                  #  Page 434
002180: 40,3162           00124                           TC       SFTEMP2
002181:
002182: 40,3163           56155        2ROUND             XCH      MPAC       +1
002183: 40,3164           60000                           DOUBLE
002184: 40,3165           54155                           TS       MPAC       +1
002185: 40,3166           00002                           TC       Q                                     #  IF MPAC+1 DOES NOT OF/UF
002186: 40,3167           60154                           AD       MPAC
002187: 40,3170           54154                           TS       MPAC
002188: 40,3171           00002                           TC       Q                                     #  IF MPAC DOES NOT OF/UF
002189: 40,3172           54162                           TS       MPAC+6
002190: 40,3173           00002        2RNDEND            TC       Q
002191:
002192: 40,3174           10162        TESTOFUF           CCS      MPAC+6                                #  RETURNS IF NO OF/UF
002193: 40,3175           04145                           TC       ALMCYCLE                              #  OF    ALARM AND RECYCLE.
002194: 40,3176           00002                           TC       Q
002195: 40,3177           04145                           TC       ALMCYCLE                              #  UF    ALARM AND RECYCLE.
002196:
002197: 42,3452                                           SETLOC   ENDSPMIN   +1
002198:
002199: 42,3452                                           COUNT*   $$/PIN
002200: 42,3452           03573        HMSIN              TC       ALL3DEC                               #  IF ALL 3 WORDS WERE NOT LOADED, ALARM.
002201: 42,3453           07103                           TC       DMP                                   #  XREG, XREGLP (=HOURS) WERE ALREADY PUT
002202: 42,3454           03534                           ADRES    WHOLECON                              #  INTO MPAC, MPAC+1.
002203: 42,3455           03543                           TC       RND/TST                               #  ROUND OFF TO WHOLE HRS IN MPAC+1.
002204: 42,3456           34755                           CAF      ZERO                                  #  ALARM IF MPAC NON ZERO (G/ 16383).
002205: 42,3457           54156                           TS       MPAC       +2
002206: 42,3460           33536                           CAF      HRCON
002207: 42,3461           54154                           TS       MPAC
002208: 42,3462           33537                           CAF      HRCON      +1
002209: 42,3463           56155                           XCH      MPAC       +1
002210: 42,3464           07307                           TC       SHORTMP
002211: 42,3465           03554                           TC       MPACTST                               #  ALARM IF MPAC NON ZERO (G/ 745)
002212: 42,3466           52156                           DXCH     MPAC       +1                         #  STORE HOURS CONTRIBUTION
002213: 42,3467           52124                           DXCH     HITEMIN
002214: 42,3470           31004                           CA       YREG                                  #  PUT YREG, YREGLP INTO MPAC, +1.
002215: 42,3471           23007                           LXCH     YREGLP
002216: 42,3472           52155                           DXCH     MPAC
002217: 42,3473           07103                           TC       DMP
002218: 42,3474           03534                           ADRES    WHOLECON
002219: 42,3475           03543                           TC       RND/TST                               #  ROUND OFF TO WHOLE MIN IN MPAC+1
002220: 42,3476           43541                           CS       59MIN                                 #  ALARM IF MPAC NON ZERO (G/16383)
002221: 42,3477           03561                           TC       SIZETST                               #  ALARM IF MPAC+1 G/ 59MIN
002222: 42,3500           56155                           XCH      MPAC       +1
002223: 42,3501           00006                           EXTEND
002224: 42,3502           73540                           MP       MINCON                                #  LEAVES MINUTES CONTRIBUTION IN A,L
002225: 42,3503           20124                           DAS      HITEMIN                               #  ADD IN MINUTES CONTRIBUTION
002226: 42,3504           00006                           EXTEND                                         #  IF THIS DAS OVEFLOWS, G/ 745 HR, 39MIN
002227:                                                                                                  #  Page 435
002228: 42,3505           13507                           BZF      +2
002229: 42,3506           04145                           TC       ALMCYCLE
002230: 42,3507           31005                           CA       ZREG                                  #  PUT ZREG, ZREGLP INTO MPAC, +1.
002231: 42,3510           23010                           LXCH     ZREGLP
002232: 42,3511           52155                           DXCH     MPAC
002233: 42,3512           07103                           TC       DMP
002234: 42,3513           03534                           ADRES    WHOLECON
002235: 42,3514           03543                           TC       RND/TST                               #  ROUND OFF TO WHOLE CENTI-SEC IN MPAC+1
002236: 42,3515           43542                           CS       59.99SEC                              #  ALARM IF MPAC NON ZERO (G/163.83 SEC)
002237: 42,3516           03561                           TC       SIZETST                               #  ALARM IF MPAC+1 G/59.99 SEC
002238: 42,3517           52124                           DXCH     HITEMIN                               #  ADD IN SECONDS CONTRIBUTION
002239: 42,3520           20155                           DAS      MPAC                                  #  IF THIS DAS OVERFLOWS,
002240: 42,3521           00006                           EXTEND                                         #  G/ 745 HR, 39 MIN, 14.59 SEC.
002241: 42,3522           13524                           BZF      +2
002242: 42,3523           04145                           TC       ALMCYCLE                              #  ALARM AND RECYCLE
002243: 42,3524           34755                           CAF      ZERO
002244: 42,3525           54156                           TS       MPAC       +2
002245: 42,3526           07257                           TC       TPAGREE
002246: 42,3527           52155                           DXCH     MPAC
002247: 42,3530           50145                           INDEX    NOUNADD
002248: 42,3531           52001                           DXCH     0
002249: 42,3532           04635                           TC       POSTJUMP
002250: 42,3533           62775                           CADR     LOADLV
002251:
002252: 42,3534           00006        WHOLECON           OCT      00006                                 #  (10EXP5/2EXP14)2EXP14
002253: 42,3535           03240                           OCT      03240
002254: 42,3536           00025        HRCON              OCT      00025                                 #  1 HOUR IN CENTI-SEC
002255: 42,3537           37100                           OCT      37100
002256: 42,3540           13560        MINCON             OCT      13560                                 #  1 MINUTE IN CENTI-SEC
002257: 42,3541           00073        59MIN              OCT      00073                                 #  59 AS WHOLE
002258: 42,3542           13557        59.99SEC           OCT      13557                                 #  5999 CENTI-SEC
002259:
002260: 42,3543           56156        RND/TST            XCH      MPAC       +2                         #  ROUNDS MPAC+2 INTO MPAC+1.
002261: 42,3544           60000                           DOUBLE                                         #  ALARMS IF MPAC NOT 0
002262: 42,3545           54156                           TS       MPAC       +2
002263: 42,3546           34755                           CAF      ZERO
002264: 42,3547           60155                           AD       MPAC       +1
002265: 42,3550           54155                           TS       MPAC       +1
002266: 42,3551           34755                           CAF      ZERO
002267: 42,3552           60154                           AD       MPAC                                  #  CANT OVFLOW
002268: 42,3553           56154                           XCH      MPAC
002269: 42,3554           10154        MPACTST            CCS      MPAC                                  #  ALARM IF MPAC NON ZERO
002270: 42,3555           04145                           TC       ALMCYCLE                              #  ALARM AND RECYCLE.
002271: 42,3556           00002                           TC       Q
002272: 42,3557           04145                           TC       ALMCYCLE                              #  ALARM AND RECYCLE.
002273: 42,3560           00002                           TC       Q
002274:
002275: 42,3561           54156        SIZETST            TS       MPAC       +2                         #  CALLED WITH - CON IN A
002276: 42,3562           10155                           CCS      MPAC       +1                         #  GET MAG OF MPAC+1
002277:                                                                                                  #  Page 436
002278: 42,3563           64753                           AD       ONE
002279: 42,3564           13566                           TCF      +2
002280: 42,3565           64753                           AD       ONE
002281: 42,3566           60156                           AD       MPAC       +2
002282: 42,3567           00006                           EXTEND                                         #  MAG OF MPAC+1 - CON
002283: 42,3570           63572                           BZMF     +2
002284: 42,3571           04145                           TC       ALMCYCLE                              #  MAG OF MPAC+1 G/ CON. ALARM AND RECYCLE.
002285: 42,3572           00002                           TC       Q                                     #  MAG OF MPAC+1 L/= CON
002286:
002287:                                                                                                  #  ALL3DEC TESTS THAT ALL 3 WORDS ARE LOADED IN DEC (FOR HMSIN).
002288:                                                                                                  #  ALARM IF NOT. (TEST THAT BITS 3,4,5 OF DECBRNCH ARE ALL = 1).
002289:
002290: 42,3573           43600        ALL3DEC            CS       OCT34BAR                              #  GET BITS 3,4,5 IN A
002291: 42,3574           71000                           MASK     DECBRNCH                              #  GET BITS 3,4,5 OF DECBRNCH IN A
002292: 42,3575           63600                           AD       OCT34BAR                              #  BITS 3,4,5 OF DECBRNCH MUST ALL = 1
002293: 42,3576           10000                           CCS      A
002294: 42,3577           03603                           TC       FORCEV25
002295: 42,3600           77743        OCT34BAR           OCT      77743
002296: 42,3601           03603                           TC       FORCEV25
002297: 42,3602           00002                           TC       Q
002298:
002299: 42,3603           46010        FORCEV25           CS       OCT31                                 #  FORCE VERB 25 TO BE EXECUTED BY RECYCLE
002300: 42,3604           55041                           TS       VERBSAVE                              #  IN CASE OPERATOR EXECUTED A LOWER LOAD
002301: 42,3605           04145                           TC       ALMCYCLE                              #  VERB.  ALARM AND RECYCLE.
002302: 42,3606                        ENDHMSS            EQUALS
002303:
002304:                                                                                                  #  Page 437
002305:                                                                                                  #  MONITOR ALLOWS OTHER KEYBOARD ACTIVITY. IT IS ENDED BY VERB TERMINATE,
002306:                                                                                                  #  VERB PROCEED WITHOUT DATA, VERB RESEQUENCE,
002307:                                                                                                  #  ANOTHER MONITOR, OR ANY NVSUB CALL THAT PASSES THE DSPLOCK (PROVIDED
002308:                                                                                                  #  THAT THE OPERATOR HAS SOMEHOW ALLOWED THE ENDING OF A MONITOR WHICH
002309:                                                                                                  #  HE HAS INITIATED THROUGH THE KEYBOARD).
002310:
002311:                                                                                                  #  MONITOR ACTION IS SUSPENDED, BUT NOT ENDED, BY ANY KEYBOARD ACTION,
002312:                                                                                                  #  EXCEPT ERROR LIGHT RESET. IT BEGINS AGAIN WHEN KEY RELEASE IS PERFORMED.
002313:                                                                                                  #  MONITOR SAVES THE NOUN AND APPROPRIATE DISPLAY VERB IN MONSAVE. IT SAVES
002314:                                                                                                  #  NOUNCADR IN MONSAVE1, IF NOUN = MACHINE CADR TO BE SPECIFIED. BIT 15 OF
002315:                                                                                                  #  MONSAVE1 IS THE KILL MONITOR SIGNAL (KILLER BIT). BIT 14 OF MONSAVE1
002316:                                                                                                  #  INDICATES THE CURRENT MONITOR WAS EXTERNALLY INITIATED (EXTERNAL
002317:                                                                                                  #  MONITOR BIT). IT IS TURNED OFF BY RELDSP AND KILMONON.
002318:
002319:                                                                                                  #  MONSAVE INDICATES IF MONITOR IS ON (+=ON, +0=OFF)
002320:                                                                                                  #  IF MONSAVE IS +, MONITOR ENTERS NO REQUEST, BUT TURNS KILLER BIT OFF.
002321:                                                                                                  #  IF MONSAVE IS +0, MONITOR ENTERS REQUEST AND TURNS KILLER BIT OFF.
002322:
002323:                                                                                                  #  NVSUB (IF EXTERNAL MONITOR BIT IS OFF), VB=PROCEED WITHOUT DATA,
002324:                                                                                                  #  VB=RESEQUENCE, AND VB=TERMINATE TURN KILL MONITOR BIT ON.
002325:
002326:                                                                                                  #  IF KILLER BIT IS ON, MONREQ ENTERS NO FURTHER REQUESTS, ZEROS MONSAVE
002327:                                                                                                  #  AND MONSAVE1 (TURNING OFF KILLER BIT AND EXTERNAL MONITOR BIT).
002328:
002329:                                                                                                  #  MONITOR DOESNT TEST FOR MATBS SINCE NVSUB CAN HANDLE INTERNAL MATBS NOW.
002330:
002331: 41,3230                                           SETLOC   ENDRUTIN
002332:
002333: 41,3230                                           COUNT*   $$/PIN
002334: 41,3230           43237        MONITOR            CS       BIT15/14
002335: 41,3231           71017                           MASK     NOUNCADR
002336: 41,3232           54155        MONIT1             TS       MPAC       +1                         #  TEMP STORAGE
002337: 41,3233           40136                           CS       ENTEXIT
002338: 41,3234           64217                           AD       ENDINST
002339: 41,3235           10000                           CCS      A
002340: 41,3236           03245                           TC       MONIT2
002341: 41,3237           60000        BIT15/14           OCT      60000
002342: 41,3240           03245                           TC       MONIT2
002343: 41,3241           34736                           CAF      BIT14                                 #  EXTERNALLY INITIATED MONITOR.
002344: 41,3242           26155                           ADS      MPAC       +1                         #  SET BIT 14 FOR MONSAVE1.
002345: 41,3243           34755                           CAF      ZERO
002346: 41,3244           55022                           TS       MONSAVE2                              #  ZERO NVMONOPT OPTIONS
002347: 41,3245           36074        MONIT2             CAF      LOW7
002348: 41,3246           71001                           MASK     VERBREG
002349: 41,3247           04331                           TC       LEFT5
002350: 41,3250           54022                           TS       CYL
002351: 41,3251           40022                           CS       CYL
002352: 41,3252           56022                           XCH      CYL
002353: 41,3253           61002                           AD       NOUNREG
002354: 41,3254           54154                           TS       MPAC                                  #  TEMP STORAGE
002355: 41,3255           34755                           CAF      ZERO
002356:                                                                                                  #  Page 438
002357: 41,3256           55012                           TS       DSPLOCK                               #  +0 INTO DSPLOCK SO MONITOR CAN RUN.
002358: 41,3257           11042                           CCS      CADRSTOR                              #  TURN OFF KR LITE IF CADRSTOR AND DSPLIST
002359: 41,3260           03262                           TC       +2                                    #  ARE BOTH EMPTY. (LITE COMES ON IF NEW
002360: 41,3261           04502                           TC       RELDSP1                               #  MONITOR IS KEYED IN OVER OLD MONITOR.)
002361: 41,3262           00004                           INHINT
002362: 41,3263           11020                           CCS      MONSAVE
002363: 41,3264           03271                           TC       +5                                    #  IF MONSAVE WAS +, NO REQUEST
002364: 41,3265           34753                           CAF      ONE                                   #  IF MONSAVE WAS 0, REQUEST MONREQ
002365: 41,3266           05203                           TC       WAITLIST
002366: 41,3267     0777                                  EBANK=   DSPCOUNT
002367: 41,3267           03275 62101                     2CADR    MONREQ
002368:
002369: 41,3271           52155                           DXCH     MPAC                                  #  PLACE MONITOR VERB AND NOUN INTO MONSAVE
002370: 41,3272           53021                           DXCH     MONSAVE                               #  ZERO THE KILL MONITOR BIT
002371: 41,3273           00003                           RELINT                                         #  SET UP EXTERNAL MONITOR BIT
002372: 41,3274           00136                           TC       ENTRET
002373:
002374: 41,3275           04400        MONREQ             TC       LODSAMPT                              #  CALLED BY WAITLIST
002375: 41,3276           11021                           CCS      MONSAVE1                              #  TIME IS SNATCHED N RUPT FOR NOUN 65
002376: 41,3277           03303                           TC       +4                                    #  IF KILLER BIT = 0, ENTER REQUESTS
002377: 41,3300           03303                           TC       +3                                    #  IF KILLER BIT = 0, ENTER REQUESTS
002378: 41,3301           03314                           TC       KILLMON                               #  IF KILLER BIT = 1, NO REQUESTS.
002379: 41,3302           03314                           TC       KILLMON                               #  IF KILLER BIT = 1, NO REQUESTS.
002380: 41,3303           33320                           CAF      MONDEL
002381: 41,3304           05203                           TC       WAITLIST                              #  ENTER WAITLIST REQUEST FOR MONREQ
002382: 41,3305     0777                                  EBANK=   DSPCOUNT
002383: 41,3305           03275 62101                     2CADR    MONREQ
002384:
002385: 41,3307           34355                           CAF      CHRPRIO
002386: 41,3310           05072                           TC       NOVAC                                 #  ENTER EXEC REQUEST FOR MONDO
002387: 41,3311     0777                                  EBANK=   DSPCOUNT
002388: 41,3311           03321 62101                     2CADR    MONDO
002389:
002390: 41,3313           05261                           TC       TASKOVER
002391:
002392: 41,3314           34755        KILLMON            CAF      ZERO                                  #  ZERO MONSAVE AND TURN KILLER BIT OFF
002393: 41,3315           55020                           TS       MONSAVE
002394: 41,3316           55021                           TS       MONSAVE1                              #  TURN OFF KILL MONITOR BIT.
002395: 41,3317           05261                           TC       TASKOVER                              #  TURN OFF EXTERNAL MONITOR BIT.
002396: 41,3320           00144        MONDEL             OCT      144                                   #  FOR 1 SEC MONITOR INTERVALS
002397:
002398: 41,3321           11021        MONDO              CCS      MONSAVE1                              #  CALLED BY EXEC
002399: 41,3322           03326                           TC       +4                                    #  IF KILLER BIT = 0, CONTINUE
002400: 41,3323           03326                           TC       +3                                    #  IF KILLER BIT = 0, CONTINUE
002401: 41,3324           05155                           TC       ENDOFJOB                              #  IN CASE TERMINATE CAME SINCE LAST MONREQ
002402: 41,3325           05155                           TC       ENDOFJOB                              #  IN CASE TERMINATE CAME SINCE LAST MONREQ
002403: 41,3326           11012                           CCS      DSPLOCK
002404: 41,3327           03351                           TC       MONBUSY                               #  NVSUB IS BUSY
002405:                                                                                                  #  Page 439
002406: 41,3330           36074                           CAF      LOW7
002407: 41,3331           71020                           MASK     MONSAVE
002408: 41,3332           02317                           TC       UPDATNN    -1                         #  PLACE NOUN INTO NOUNREG AND DISPLAY IT
002409: 41,3333           34144                           CAF      MID7
002410: 41,3334           71020                           MASK     MONSAVE                               #  CHANGE MONITOR VERB TO DISPLAY VERB
002411: 41,3335           63347                           AD       MONREF                                #  -DEC10, STARTING IN BIT8
002412: 41,3336           54023                           TS       EDOP                                  #  RIGHT 7
002413: 41,3337           30023                           CA       EDOP
002414: 41,3340           55001                           TS       VERBREG
002415: 41,3341           33350                           CAF      MONBACK                               #  SET RETURN TO PASTEVB AFTER DATA DISPLAY
002416: 41,3342           54136                           TS       ENTRET
002417: 41,3343           43237                           CS       BIT15/14
002418: 41,3344           71021                           MASK     MONSAVE1                              #  PUT ECADR INTO MPAC +2.  INTMCTBS WILL
002419: 41,3345           54156                           TS       MPAC       +2                         #  DISPLAY IT AND SET NOUNCADR, NOUNADD,
002420: 41,3346           02046        ENDMONDO           TC       TESTNN                                #  EBANK.
002421:
002422:    4124                                           BLOCK    2
002423:
002424:    4000                                           SETLOC   FFTAG8
002425:    4000                                           BANK
002426:
002427:    4124                                           COUNT*   $$/PIN
002428:    4124           34144        PASTEVB            CAF      MID7
002429:    4125           71022                           MASK     MONSAVE2                              #  NVMONOPT PASTE OPTION
002430:    4126           00006                           EXTEND
002431:    4127           14131                           BZF      +2
002432:    4130           04132                           TC       PASTEOPT                              #  PASTE PLEASE VERB FOR NVMONOPT
002433:    4131           31020                           CA       MONSAVE                               #  PASTE MONITOR VERB - PASTE OPTION IS 0
002434:    4132           54023        PASTEOPT           TS       EDOP                                  #  RIGHT 7
002435:    4133           30023                           CA       EDOP                                  #  PLACE MONITOR VERB OR PLEASE VERB INTO
002436:    4134           04616                           TC       BANKCALL                              #   VERBREG AND DISPLAY IT.
002437:    4135           62337                           CADR     UPDATVB    -1
002438:    4136           34755                           CAF      ZERO                                  #  ZERO REQRET SO THAT PASTED VERBS CAN
002439:    4137           55013                           TS       REQRET                                #   BE EXECUTED BY OPERATOR.
002440:    4140           31022                           CA       MONSAVE2
002441:    4141           04255                           TC       BLANKSUB                              #  PROCESS NVMONOPT BLANK OPTION IF ANY
002442:    4142           04143                           TC       +1
002443:    4143           05155        ENDPASTE           TC       ENDOFJOB
002444:
002445:    4144           37600        MID7               OCT      37600
002446:
002447: 41,3347                                           SETLOC   ENDMONDO   +1
002448: 41,3347                                           COUNT*   $$/PIN
002449: 41,3347           75377        MONREF             OCT      75377                                 #  -DEC10, STARTING IN BIT8
002450: 41,3350           04124        MONBACK            ADRES    PASTEVB
002451:
002452: 41,3351           04374        MONBUSY            TC       RELDSPON                              #  TURN KEY RELEASE LIGHT
002453: 41,3352           05155                           TC       ENDOFJOB
002454:                                                                                                  #  Page 440
002455:                                                                                                  #  DSPFMEM IS USED TO DISPLAY (IN OCTAL) ANY FIXED REGISTER.
002456:                                                                                                  #  IT IS USED WITH NOUN = MACHINE CADR TO BE SPECIFIED. THE FCADR OF THE
002457:                                                                                                  #  DESIRED LOCATION IS THEN PUNCHED IN. IT HANDLES F/F (FCADR 4000-7777)
002458:                                                                                                  #
002459:                                                                                                  #  FOR BANKS L/E 27, THIS IS ENOUGH.
002460:
002461:                                                                                                  #  FOR BANKS G/E 30, THE THIRD COMPONENT OF NOUN 26 (PRIO, ADRES, BBCON)
002462:                                                                                                  #  MUST BE PRELOADED WITH THE DESIRED SUPERBANK BITS (BITS 5,6,7).
002463:                                                                                                  #        V23N26 SHOULD BE USED.
002464:
002465:                                                                                                  #  SUMMARY
002466:                                                                                                  #  FOR BANKS L/E 27,                             V27N01E(FCADR)E
002467:                                                                                                  #  FOR BANKS G/E 30,     V23N26E(SUPERBITS)E     V27N01E(FCADR)E
002468:
002469: 41,3353           34317        DSPFMEM            CAF      R1D1                                  #  IF F/F, DATACALL USES BANK 02 OR 03.
002470: 41,3354           54777                           TS       DSPCOUNT
002471: 41,3355           31047                           CA       DSPTEM1    +2                         #  SUPERBANK BITS WERE PRELOADED INTO
002472: 41,3356           54001                           TS       L                                     #  3RD COMPONENT OF NOUN 26.
002473: 41,3357           31017                           CA       NOUNCADR                              #  ORIGINAL FCADR LOADED STILL IN NOUNCADR.
002474: 41,3360           04651                           TC       SUPDACAL                              #  CALL WITH FCADR IN A, SUPERBITS IN L.
002475: 41,3361           03363                           TC       DSPOCTWO
002476: 41,3362           05155        ENDSPF             TC       ENDOFJOB
002477:
002478:                                                                                                  #  Page 441
002479:                                                                                                  #  WORD DISPLAY ROUTINES
002480: 40,3200                                           SETLOC   TESTOFUF   +4
002481: 40,3200                                           COUNT*   $$/PIN
002482: 40,3200           56002        DSPSIGN            XCH      Q
002483: 40,3201           54144                           TS       DSPWDRET
002484: 40,3202           10154                           CCS      MPAC
002485: 40,3203           03213                           TC       +8D
002486: 40,3204           03213                           TC       +7
002487: 40,3205           64753                           AD       ONE
002488: 40,3206           54154                           TS       MPAC
002489: 40,3207           02433                           TC       -ON
002490: 40,3210           40155                           CS       MPAC       +1
002491: 40,3211           54155                           TS       MPAC       +1
002492: 40,3212           00144                           TC       DSPWDRET
002493: 40,3213           02413                           TC       +ON
002494: 40,3214           00144                           TC       DSPWDRET
002495:
002496: 40,3215           00006        DSPRND             EXTEND                                         #  ROUND BY 5 EXP-6
002497: 40,3216           33261                           DCA      DECROUND   -1
002498: 40,3217           20155                           DAS      MPAC
002499: 40,3220           00006                           EXTEND
002500: 40,3221           13225                           BZF      +4
002501: 40,3222           00006                           EXTEND
002502: 40,3223           34733                           DCA      DPOSMAX
002503: 40,3224           52155                           DXCH     MPAC
002504: 40,3225           00002                           TC       Q
002505:
002506:                                                                                                  #  DSPDECWD CONVERTS C(MPAC, MPAC+1) INTO A SIGN AND 5 CHAR DECIMAL
002507:                                                                                                  #  STARTING IN LOC SPECIFIED IN DSPCOUNT. IT ROUNDS BY 5 EXP-6.
002508:
002509: 40,3226           56002        DSPDECWD           XCH      Q
002510: 40,3227           54115                           TS       WDRET
002511: 40,3230           03200                           TC       DSPSIGN
002512: 40,3231           03215                           TC       DSPRND
002513: 40,3232           34751                           CAF      FOUR
002514: 40,3233           54137        DSPDCWD1           TS       WDCNT
002515: 40,3234           34363                           CAF      BINCON
002516: 40,3235           07307                           TC       SHORTMP
002517: 40,3236           50154        TRACE1             INDEX    MPAC
002518: 40,3237           34066                           CAF      RELTAB
002519: 40,3240           74346                           MASK     LOW5
002520: 40,3241           54124                           TS       CODE
002521: 40,3242           34755                           CAF      ZERO
002522: 40,3243           56156                           XCH      MPAC       +2
002523: 40,3244           56155                           XCH      MPAC       +1
002524: 40,3245           54154                           TS       MPAC
002525: 40,3246           56777                           XCH      DSPCOUNT
002526: 40,3247           54143        TRACE1S            TS       COUNT
002527: 40,3250           10000                           CCS      A                                     #  DECREMENT DSPCOUNT EXCEPT AT +0
002528:                                                                                                  #  Page 442
002529: 40,3251           54777                           TS       DSPCOUNT
002530: 40,3252           03322                           TC       DSPIN
002531: 40,3253           10137                           CCS      WDCNT
002532: 40,3254           03233                           TC       DSPDCWD1
002533: 40,3255           44360                           CS       VD1
002534: 40,3256           54777                           TS       DSPCOUNT
002535: 40,3257           00115                           TC       WDRET
002536:
002537: 40,3260           00000                           OCT      00000
002538: 40,3261           02476        DECROUND           OCT      02476
002539:
002540:                                                                                                  #  DSPDECNR CONVERTS C(MPAC,MPAC+1) INTO A SIGN AND 5 CHAR DECIMAL
002541:                                                                                                  #  STARTING IN LOC SPECIFIED IN DSPCOUNT. IT DOES NOT ROUND
002542:
002543: 40,3262           56002        DSPDECNR           XCH      Q
002544: 40,3263           54115                           TS       WDRET
002545: 40,3264           03200                           TC       DSPSIGN
002546: 40,3265           03232                           TC       DSPDCWD1   -1
002547:
002548:                                                                                                  #  DSPDC2NR CONVERTS C(MPAC,MPAC+1) INTO A SIGN AND 2 CHAR DECIMAL
002549:                                                                                                  #  STARTING IN LOC SPECIFIED IN DSPCOUNT. IT DOES NOT ROUND
002550:
002551: 40,3266           56002        DSPDC2NR           XCH      Q
002552: 40,3267           54115                           TS       WDRET
002553: 40,3270           03200                           TC       DSPSIGN
002554: 40,3271           34753                           CAF      ONE
002555: 40,3272           03233                           TC       DSPDCWD1
002556:
002557:                                                                                                  #  DSP2DEC CONVERTS C(MPAC) AND C(MPAC+1) INTO A SIGN AND 10 CHAR DECIMAL
002558:                                                                                                  #  STARTING IN THE LOC SPECIFIED IN DSPCOUNT.
002559:
002560: 40,3273           56002        DSP2DEC            XCH      Q
002561: 40,3274           54115                           TS       WDRET
002562: 40,3275           34755                           CAF      ZERO
002563: 40,3276           54124                           TS       CODE
002564: 40,3277           36245                           CAF      THREE
002565: 40,3300           03404                           TC       11DSPIN                               #  -R2 OFF
002566: 40,3301           34751                           CAF      FOUR
002567: 40,3302           03404                           TC       11DSPIN                               #  +R2 OFF
002568: 40,3303           03200                           TC       DSPSIGN
002569: 40,3304           34320                           CAF      R2D1
002570: 40,3305           03233        END2DEC            TC       DSPDCWD1
002571:
002572:                                                                                                  #  DSPDECVN DISPLAYS C(A) UPON ENTRY AS A 2 CHAR DECIMAL BEGINNING IN THE
002573:                                                                                                  #  DSP LOC SPECIFIED IN DSPCOUNT.
002574:                                                                                                  #  C(A) SHOULD BE IN FORM N X 2EXP-14.  THIS IS SCALED TO FORM N/100 BEFORE
002575:                                                                                                  #  DISPLAY CONVERSION.
002576:
002577:                                                                                                  #  Page 443
002578: 40,3306           00006        DSPDECVN           EXTEND
002579: 40,3307           73316                           MP       VNDSPCON                              #  MULT BY .01
002580: 40,3310           22154                           LXCH     MPAC                                  #  TAKE RESULTS FROM L. (MULT BY 2EXP14).
002581: 40,3311           34755                           CAF      ZERO
002582: 40,3312           54155                           TS       MPAC       +1
002583: 40,3313           56002                           XCH      Q
002584: 40,3314           54115                           TS       WDRET
002585: 40,3315           03271                           TC       DSPDC2NR   +3                         #  NO SIGN, NO ROUND, 2 CHAR
002586:
002587: 40,3316           00244        VNDSPCON           OCT      00244                                 #  .01 ROUNDED UP
002588:
002589: 40,3317           03306        GOVNUPDT           TC       DSPDECVN                              #  THIS IS NOT FOR GENERAL USE. REALLY PART
002590: 40,3320           04635                           TC       POSTJUMP                              #  OF UPDATVB.
002591: 40,3321           62347                           CADR     UPDAT1     +2
002592:
002593: 40,3322                        ENDECVN            EQUALS
002594:
002595: 41,3363                                           SETLOC   ENDSPF     +1
002596: 41,3363                                           COUNT*   $$/PIN
002597:                                                                                                  #  DSPOCTWD DISPLAYS C(A) UPON ENTRY AS A 5 CHAR OCT STARTING IN THE DSP
002598:                                                                                                  #  CHAR SPECIFIED IN DSPCOUNT. IT STOPS AFTER 5 CHAR HAVE BEEN DISPLAYED.
002599:
002600: 41,3363           54022        DSPOCTWO           TS       CYL
002601: 41,3364           56002                           XCH      Q
002602: 41,3365           54115                           TS       WDRET                                 #  MUST USE SAME RETURN AS DSP2BIT.
002603: 41,3366           34736                           CAF      BIT14                                 #  TO BLANK SIGNS
002604: 41,3367           26777                           ADS      DSPCOUNT
002605: 41,3370           34751                           CAF      FOUR
002606: 41,3371           54137        WDAGAIN            TS       WDCNT
002607: 41,3372           40022                           CS       CYL
002608: 41,3373           40022                           CS       CYL
002609: 41,3374           40022                           CS       CYL
002610: 41,3375           40000                           CS       A
002611: 41,3376           74757                           MASK     DSPMSK
002612: 41,3377           50000                           INDEX    A
002613: 41,3400           34066                           CAF      RELTAB
002614: 41,3401           74346                           MASK     LOW5
002615: 41,3402           54124                           TS       CODE
002616: 41,3403           56777                           XCH      DSPCOUNT
002617: 41,3404           54143                           TS       COUNT
002618: 41,3405           10000                           CCS      A                                     #  DECREMENT DSPCOUNT EXCEPT AT +0
002619: 41,3406           54777                           TS       DSPCOUNT
002620: 41,3407           04635                           TC       POSTJUMP
002621: 41,3410           61412                           CADR     DSPOCTIN
002622: 41,3411           10137        OCTBACK            CCS      WDCNT
002623: 41,3412           03371                           TC       WDAGAIN                               #  +
002624: 41,3413           44360        DSPLV              CS       VD1                                   #  TO BLOCK NUMERICAL CHARACTERS, CLEARS,
002625: 41,3414           54777                           TS       DSPCOUNT                              #  AND SIGNS AFTER A COMPLETED DISPLAY.
002626:                                                                                                  #  Page 444
002627: 41,3415           00115                           TC       WDRET
002628:
002629: 41,3416     4757               DSPMSK             =        SEVEN
002630:
002631:                                                                                                  #  DSP2BIT DISPLAYS C(A) UPON ENTRY AS A 2 CHAR OCT BEGINNING IN THE DSP
002632:                                                                                                  #  LOC SPECIFIED IN DSPCOUNT BY PRE CYCLING RIGHT C(A) AND USING THE LOGIC
002633:                                                                                                  #  OF THE 5 CHAR OCTAL DISPLAY
002634:
002635: 41,3416           54020        DSP2BIT            TS       CYR
002636: 41,3417           56002                           XCH      Q
002637: 41,3420           54115                           TS       WDRET
002638: 41,3421           34753                           CAF      ONE
002639: 41,3422           54137                           TS       WDCNT
002640: 41,3423           40020                           CS       CYR
002641: 41,3424           40020                           CS       CYR
002642: 41,3425           56020                           XCH      CYR
002643: 41,3426           54022                           TS       CYL
002644: 41,3427           03376                           TC       WDAGAIN    +5
002645:
002646:                                                                                                  #  FOR DSPIN PLACE 0/25 OCT INTO COUNT, 5 BIT RELAY CODE INTO CODE.  BOTH
002647:                                                                                                  #  ARE DESTROYED. IF BIT14 OF COUNT IS 1, SIGN IS BLANKED WITH LEFT CHAR.
002648:                                                                                                  #  FOR DSPIN1 PLACE 0,1 INTO BIT11 OF CODE, 2 INTO COUNT, REL ADDRESS OF
002649:                                                                                                  #  DSPTAB ENTRY INTO DSREL.
002650:
002651: 40,3322                                           SETLOC   ENDECVN
002652:
002653: 40,3322                                           COUNT*   $$/PIN
002654: 40,3322           56002        DSPIN              XCH      Q                                     #  CANT USE L FOR RETURN, SINCE MANYOF THE
002655: 40,3323           54114                           TS       DSEXIT                                #  ROTINE CALLING DSPIN USE L AS RETURN.
002656: 40,3324           34346                           CAF      LOW5
002657: 40,3325           70143                           MASK     COUNT
002658: 40,3326           54021                           TS       SR
002659: 40,3327           56021                           XCH      SR
002660: 40,3330           54141                           TS       DSREL
002661: 40,3331           34753                           CAF      BIT1
002662: 40,3332           70143                           MASK     COUNT
002663: 40,3333           10000                           CCS      A
002664: 40,3334           03336                           TC       +2                                    #  LEFT IF COUNT IS ODD
002665: 40,3335           03346                           TC       DSPIN1     -1                         #  RIGHT IF COUNT IS EVEN
002666: 40,3336           56124                           XCH      CODE
002667: 40,3337           04340                           TC       SLEFT5                                #  DOES NOT USE CYL
002668: 40,3340           54124                           TS       CODE
002669: 40,3341           34736                           CAF      BIT14
002670: 40,3342           70143                           MASK     COUNT
002671: 40,3343           10000                           CCS      A
002672: 40,3344           34752                           CAF      TWO                                   #  BIT14 = 1, BLANK SIGN
002673: 40,3345           64753                           AD       ONE                                   #  BIT14 = 0, LEAVE SIGN ALONE
002674: 40,3346           54143                           TS       COUNT                                 #  +0 INTO COUNT FOR RIGHT
002675:                                                                                                  #  Page 445
002676:                                                                                                  #  +1 INTO COUNT FOR LEFT (SIGN LEFT ALONE)
002677:                                                                                                  #  +3 INTO COUNT FOR LEFT (TO BLANK SIGN)
002678: 40,3347           00004        DSPIN1             INHINT
002679: 40,3350           50141                           INDEX    DSREL
002680: 40,3351           11023                           CCS      DSPTAB
002681: 40,3352           03354                           TC       +2                                    #  IF +
002682: 40,3353           05705                           TC       CCSHOLE
002683: 40,3354           64753                           AD       ONE                                   #  IF -
002684: 40,3355           54142                           TS       DSMAG
002685: 40,3356           50143                           INDEX    COUNT
002686: 40,3357           73400                           MASK     DSMSK
002687: 40,3360           00006                           EXTEND
002688: 40,3361           60124                           SU       CODE
002689: 40,3362           00006                           EXTEND
002690: 40,3363           13376                           BZF      DSLV                                  #  SAME
002691: 40,3364           50143        DFRNT              INDEX    COUNT
002692: 40,3365           43400                           CS       DSMSK                                 #  MASK WITH 77740, 76037, 76777, OR 74037
002693: 40,3366           70142                           MASK     DSMAG
002694: 40,3367           60124                           AD       CODE
002695: 40,3370           40000                           CS       A
002696: 40,3371           50141                           INDEX    DSREL
002697: 40,3372           57023                           XCH      DSPTAB
002698: 40,3373           00006                           EXTEND
002699: 40,3374           63376                           BZMF     DSLV                                  #  DSPTAB ENTRY WAS -
002700: 40,3375           25016                           INCR     NOUT                                  #  DSPTAB ENTRY WAS +
002701: 40,3376           00003        DSLV               RELINT
002702: 40,3377           00114                           TC       DSEXIT
002703:
002704: 40,3400           00037        DSMSK              OCT      37
002705: 40,3401           01740                           OCT      1740
002706: 40,3402           02000                           OCT      2000
002707: 40,3403           03740                           OCT      3740
002708:
002709:                                                                                                  #  FOR 11DSPIN, PUT REL ADDRESS OF DSPTAB ENTRY INTO A, 1 IN BIT11 OR 0 IN
002710:                                                                                                  #  BIT11 OF CODE.
002711:
002712: 40,3404           54141        11DSPIN            TS       DSREL
002713: 40,3405           34752                           CAF      TWO
002714: 40,3406           54143                           TS       COUNT
002715: 40,3407           56002                           XCH      Q                                     #  MUST USE SAME RETURN AS DSPIN
002716: 40,3410           54114                           TS       DSEXIT
002717: 40,3411           03347                           TC       DSPIN1
002718:
002719: 40,3412           03322        DSPOCTIN           TC       DSPIN                                 #  SO DSPOCTWO DOESNT USE SWCALL
002720: 40,3413           33415                           CAF      +2
002721: 40,3414           04640                           TC       BANKJUMP
002722: 40,3415           63411        ENDSPOCT           CADR     OCTBACK
002723:
002724:                                                                                                  #  Page 446
002725:                                                                                                  #  DSPALARM FINDS TC NVSUBEND IN ENTRET FOR NVSUB INITIATED ROUTINES
002726:                                                                                                  #  ABORT WITH 01501.
002727:
002728:                                                                                                  #  DSPALARM FINDS TC ENDOFJOB IN ENTRET FOR KEYBOARD INITIATED ROUTINES.
002729:                                                                                                  #  DC TC ENTRET.
002730:
002731: 40,3416           44360        PREDSPAL           CS       VD1
002732: 40,3417           54777                           TS       DSPCOUNT
002733: 40,3420           43441        DSPALARM           CS       NVSBENDL
002734: 40,3421           60136                           AD       ENTEXIT
002735: 40,3422           00006                           EXTEND
002736: 40,3423           13436                           BZF      CHARALRM   +2
002737: 40,3424           43440                           CS       MONADR                                #  IF THIS IS A MONITOR, KILL IT
002738: 40,3425           60136                           AD       ENTEXIT
002739: 40,3426           00006                           EXTEND
002740: 40,3427           13431                           BZF      +2
002741: 40,3430           03434                           TC       CHARALRM
002742: 40,3431           04204                           TC       KILMONON
002743: 40,3432           04364                           TC       FALTON
002744: 40,3433           04124                           TC       PASTEVB                               #  PUT MONITOR VERB BACK IN VERBREG
002745: 40,3434           04364        CHARALRM           TC       FALTON                                #  NO NVSUB INITATED. TURN ON OPR ERROR
002746: 40,3435           05155                           TC       ENDOFJOB
002747: 40,3436           05652                           TC       P00DOO
002748: 40,3437           01501                           OCT      01501
002749: 40,3440           04124        MONADR             GENADR   PASTEVB
002750: 40,3441           04202        NVSBENDL           TC       NVSUBEND
002751:
002752:                                                                                                  #  ALMCYCLE TURNS ON CHECK FAIL LIGHT, REDISPLAYS THE ORIGINAL VERB THAT
002753:                                                                                                  #  WAS EXECUTED, AND RECYCLES TO EXECUTE THE ORIGINAL VERB/NOUN COMBINATION
002754:                                                                                                  #  THAT WAS LAST EXECUTED. USED FOR BAD DATA DURING LOAD VERBS AND BY
002755:                                                                                                  #  MCTBS.  ALSO BY MMCHANG IF 2 NUMERICAL CHARACTERS WERE NOT PUNCHED IN
002756:                                                                                                  #  FOR MM CODE.
002757:
002758:    4145                                           SETLOC   MID7       +1
002759:    4145                                           COUNT*   $$/PIN
002760:    4145           04364        ALMCYCLE           TC       FALTON                                #  TURN ON CHECK FAIL LIGHT.
002761:    4146           41041                           CS       VERBSAVE                              #  GET ORIGINAL VERB THAT WAS EXECUTED
002762:    4147           55013                           TS       REQRET                                #  SET FOR ENTPAS0
002763:    4150           04616                           TC       BANKCALL                              #  PUTS ORIGINAL VERB INTO VERBREG AND
002764:    4151           62337                           CADR     UPDATVB    -1                         #  DISPLAYS IT IN VERB LIGHTS.
002765:    4152           04635                           TC       POSTJUMP
002766:    4153           62002        ENDALM             CADR     ENTER
002767:
002768:                                                                                                  #  MMCHANG USES NOUN DISPLAY UNTIL ENTER.  THEN IT USES MODE DISP.
002769:                                                                                                  #  IT GOES TO MODROUT WITH THE NEW M M CODE IN A, BUT NOT DISPLAYED IN
002770:                                                                                                  #  MM LIGHTS.
002771:                                                                                                  #  IT DEMANDS 2 NUMERICAL CHARACTERS BE PUNCHED IN FOR NEW MM CODE.
002772:                                                                                                  #  IF NOT, IT RECYCLES.
002773:
002774:                                                                                                  #  Page 447
002775: 41,3430                                           SETLOC   DSP2BIT    +10D
002776:
002777: 41,3430                                           COUNT*   $$/PIN
002778: 41,3430           03452        MMCHANG            TC       REQMM                                 #  ENTPASHI ASSUMES THE TC REQMM AT MMCHANG
002779:                                                                                                  #  IF THIS MOVES AT ALL, MUST CHANGE
002780:                                                                                                  #  MMADREF AT ENTPASHI.
002781: 41,3431           34747                           CAF      BIT5                                  #  OCT20 = ND2.
002782: 41,3432           60777                           AD       DSPCOUNT                              #  DSPCOUNT MUST = -ND2.
002783: 41,3433           00006                           EXTEND                                         #  DEMAND THAT 2 NUM CHAR WERE PUNCHED IN.
002784: 41,3434           13436                           BZF      +2
002785: 41,3435           04145                           TC       ALMCYCLE                              #  DSPCOUNT NOT= -ND2. ALARM AND RECYCLE.
002786: 41,3436           34755                           CAF      ZERO                                  #  DSPCOUNT = -ND2.
002787: 41,3437           57002                           XCH      NOUNREG
002788: 41,3440           54154                           TS       MPAC
002789: 41,3441           34361                           CAF      ND1
002790: 41,3442           54777                           TS       DSPCOUNT
002791: 41,3443           04616                           TC       BANKCALL
002792: 41,3444           60601                           CADR     2BLANK
002793: 41,3445           44360                           CS       VD1                                   #  BLOCK NUM CHAR IN
002794: 41,3446           54777                           TS       DSPCOUNT
002795: 41,3447           30154                           CA       MPAC
002796: 41,3450           04635                           TC       POSTJUMP
002797: 41,3451           10040                           CADR     MODROUTB                              #  GO THRU STANDARD LOC.
002798:
002799: 41,3452  04,2040               MODROUTB           =        V37
002800: 41,3452           40002        REQMM              CS       Q
002801: 41,3453           55013                           TS       REQRET
002802: 41,3454           34361                           CAF      ND1
002803: 41,3455           54777                           TS       DSPCOUNT
002804: 41,3456           34755                           CAF      ZERO
002805: 41,3457           55002                           TS       NOUNREG
002806: 41,3460           04616                           TC       BANKCALL
002807: 41,3461           60601                           CADR     2BLANK
002808: 41,3462           04427                           TC       FLASHON
002809: 41,3463           34753                           CAF      ONE
002810: 41,3464           55000                           TS       DECBRNCH                              #  SET FOR DEC
002811: 41,3465           00136                           TC       ENTEXIT
002812:
002813:                                                                                                  #  VBRQEXEC ENTERS REQUEST TO EXEC FOR ANY ADDRESS WITH ANY PRIORITY.
002814:                                                                                                  #  IT DOES ENDOFJOB AFTER ENTERING REQUEST.  DISPLAY SYST IS RELEASED.
002815:                                                                                                  #  IT ASSUMES NOUN 26 HAS BEEN PRELOADED WITH
002816:                                                                                                  #  COMPONENT 1  PRIORITY (BITS 10-14) BIT1=0 FOR NOVAC, BIT1=1 FOR FINDVAC.
002817:                                                                                                  #  COMPONENT 2  JOB ADRES (12 BIT)
002818:                                                                                                  #  COMPONENT 3  BBCON
002819:
002820: 41,3466           34753        VBRQEXEC           CAF      BIT1
002821: 41,3467           71045                           MASK     DSPTEM1
002822: 41,3470           10000                           CCS      A
002823:                                                                                                  #  Page 448
002824: 41,3471           03510                           TC       SETVAC                                #  IF BIT1 = 1, FINDVAC
002825: 41,3472           34351                           CAF      TCNOVAC                               #  IF BIT1 = 0, NOVAC
002826: 41,3473           54154        REQEX1             TS       MPAC                                  #  TC NOVAC OR TC FINDVAC INTO MPAC
002827: 41,3474           44753                           CS       BIT1
002828: 41,3475           71045                           MASK     DSPTEM1
002829: 41,3476           54160                           TS       MPAC       +4                         #  PRIO INTO MPAC+4 AS A TEMP
002830: 41,3477           04457        REQUESTC           TC       RELDSP
002831: 41,3500           34217                           CA       ENDINST
002832: 41,3501           54157                           TS       MPAC       +3                         #  TC ENDOFJOB INTO MPAC+3
002833: 41,3502           00006                           EXTEND
002834: 41,3503           31047                           DCA      DSPTEM1    +1                         #  JOB ADRES INTO MPAC+1
002835: 41,3504           52156                           DXCH     MPAC       +1                         #  BBCON INTO MPAC+2
002836: 41,3505           30160                           CA       MPAC       +4                         #  PRIO IN A
002837: 41,3506           00004                           INHINT
002838: 41,3507           00154                           TC       MPAC
002839:
002840: 41,3510           34354        SETVAC             CAF      TCFINDVC
002841: 41,3511           03473                           TC       REQEX1
002842:
002843:                                                                                                  #  VBRQWAIT ENTERS REQUEST TO WAITLIST FOR ANY ADDRESS WITH ANY DELAY.
002844:                                                                                                  #  IT DOES ENDOFJOB AFTER ENTERING REQUEST. DISPLAY SYST IS RELEASED.
002845:                                                                                                  #  IT ASSUMES NOUN 26 HAS BEEN PRELOADED WTIH
002846:                                                                                                  #  COMPONENT 1  DELAY (LOW BITS)
002847:                                                                                                  #  COMPONENT 2  TASK ADRES (12 BIT)
002848:                                                                                                  #  COMPONENT 3  BBCON
002849:
002850: 41,3512           34352        VBRQWAIT           CAF      TCWAIT
002851: 41,3513           54154                           TS       MPAC                                  #  TC WAITLIST INTO MPAC
002852: 41,3514           31045                           CA       DSPTEM1                               #  TIME DELAY
002853: 41,3515           03476        ENDRQWT            TC       REQUESTC   -1
002854:
002855:                                                                                                  #  REQUESTC WILL PUT TASK ADRES INTO MPAC+1, BBCON INTO MPAC+2,
002856:                                                                                                  #  TC ENDOFJOB INTO MPAC+3.  IT WILL TAKE TIME DELAY OUT OF MPAC+4 AND
002857:                                                                                                  #  LEAVE IT IN A, INHINT AND TC MPAC.
002858:
002859: 40,3442                                           SETLOC   NVSBENDL   +1
002860: 40,3442                                           COUNT*   $$/PIN
002861: 40,3442           34753        VBPROC             CAF      ONE                                   #  PROCEED WITHOUT DATA
002862: 40,3443           55014                           TS       LOADSTAT
002863: 40,3444           04204                           TC       KILMONON                              #  TURN ON KILL MONITOR BIT
002864: 40,3445           04457                           TC       RELDSP
002865: 40,3446           04433                           TC       FLASHOFF
002866: 40,3447           03547                           TC       RECALTST                              #  SEE IF THERE IS ANY RECALL FROM ENDIDLE
002867:
002868: 40,3450           44753        VBTERM             CS       ONE
002869: 40,3451           03443                           TC       VBPROC     +1                         #  TERM VERB SETS LOADSTAT NEG
002870:
002871:                                                                                                  #  Page 449
002872:                                                                                                  #  PROCKEY PERFORMS THE SAME FUNCTION AS VBPROC. IT MUST BE CALLED UNDER
002873:                                                                                                  #  EXECUTIVE CONTROL, WITH CHRPRIO.
002874:
002875: 40,3452           34755        PROCKEY            CAF      ZERO                                  #  SET REQRET FOR ENTER PASS 0.
002876: 40,3453           55013                           TS       REQRET
002877: 40,3454           44360                           CS       VD1                                   #  BLOCK NUMERICAL CHARACTERS, SIGNS, CLEAR
002878: 40,3455           54777                           TS       DSPCOUNT
002879: 40,3456           03442                           TC       VBPROC
002880:
002881:                                                                                                  #  VBRESEQ WAKES ENDIDLE AT SAME LINE AS FINAL ENTER OF LOAD (L+3).
002882:                                                                                                  #  (MAIN USE IS INTENDED AS RESPONSE TO INTERNALLY INITIATED FLASHING
002883:                                                                                                  #   DISPLAYS IN ENDIDLE. SHOULD NOT BE USED WITH LOAD VERBS, PLEASE PERFORM,
002884:                                                                                                  #   OR PLEASE MARK VERBS BECAUSE THEY ALREADY USE L+3 IN ANOTHER CONTEXT.)
002885:
002886: 40,3457           44755        VBRESEQ            CS       ZERO                                  #  MAKE IT LOOK LIKE DATA IN.
002887: 40,3460           03443                           TC       VBPROC     +1
002888:
002889:                                                                                                  #  FLASH IS TURNED OFF BY PROCEED WITHOUT DATA, TERMINATE, REQUEQUENCE,
002890:                                                                                                  #  END OF LOAD.
002891:
002892:                                                                                                  #  Page 450
002893:
002894:                                                                                                  #  KEY RELEASE ROUTINE
002895:
002896:                                                                                                  #  THIS ROUTINE ALWAYS TURNS OFF THE UPACT LIGHT AND ALWAYS CLEARS DSPLOCK.
002897:
002898:                                                                                                  #  THE HIGHEST PRIORITY FUNCTION OF THE KEY RELEASE BUTTON IS THE
002899:                                                                                                  #  UNSUSPENDING OF A SUSPENDED MONITOR WHICH WAS EXTERNALLY INITIATED.
002900:                                                                                                  #  THIS FUNCTION IS ACCOMPLISHED BY CLEARING DSPLOCK AND TURNING OFF
002901:                                                                                                  #  THE KEY RELEASE LIGHT IF BOTH DSPLIST AND CADRSTOR ARE EMPTY.
002902:
002903:                                                                                                  #  IF NO SUCH MONITOR EXISTS, THEN RELDSP IS EXECUTED TO CLEAR DSPLOCK
002904:                                                                                                  #  AND THE EXTERNAL MONITOR BIT (FREEING THE DISPLAY SYSTEM FOR INTERNAL
002905:                                                                                                  #  USE), TURN OFF THE KEY RELEASE LIGHT, AND WAKE UP ANY JOB IN DSPLIST.
002906:
002907:                                                                                                  #  IN ADDITION IF THERE IS A JOB IN ENDIDLE, THEN CONTROL IS TRANSFERRED
002908:                                                                                                  #  TO PINBRNCH (IN DISPLAY INTERFACE ROUTINE) TO RE-EXECUTE THE SERIES OF
002909:                                                                                                  #  NVSUB CALLS ETC. THAT PRECEDED THE ENDIDLE CALL STILL AWAITING RESPONSE.
002910:                                                                                                  #  THIS FEATURE IS INTENDED FOR USE WHEN THE OPERATOR HAS BEEN REQUESTED TO
002911:                                                                                                  #  RESPOND TO SOME INTERNAL ACTION THAT USED ENDIDLE, BUT HE HAS WRITTEN
002912:                                                                                                  #  OVER THE INFORMATION ON THE DISPLAY PANEL BY SOME DISPLAYS OF HIS OWN
002913:                                                                                                  #  INITIATION WHICH DO NOT SERVE AS RESPONSES. HITTING KEYRLSE WILL
002914:                                                                                                  #  RE-ESTABLISH THE DISPLAYS TO THE STATE THEY WERE IN BEOFRE HE OBSCURED
002915:                                                                                                  #  THEM, SO THAT HE CAN SEE THE WAITING REQUEST. THIS WORKS ONLY FOR
002916:                                                                                                  #  INTERNAL PROGRAMS THAT USED ENDIDLE THROUGH MARGARETS DISPLAY
002917:                                                                                                  #  SUBROUTINES.
002918:
002919: 40,3461           44751        VBRELDSP           CS       BIT3
002920: 40,3462           00006                           EXTEND
002921: 40,3463           03011                           WAND     DSALMOUT                              #  TURN OFF UPACT LITE
002922: 40,3464           10115                           CCS      21/22REG                              #  OLD DSPLOCK
002923: 40,3465           34736                           CAF      BIT14
002924: 40,3466           71021                           MASK     MONSAVE1                              #  EXTERNAL MONITOR BIT (EMB)
002925: 40,3467           10000                           CCS      A
002926: 40,3470           03477                           TC       UNSUSPEN                              #  OLD DSPLOCK AND EMB BOTH 1, UNSUSPEND.
002927: 40,3471           04457        TSTLTS4            TC       RELDSP                                #  NOT UNSUSPENDING EXTERNAL MONITOR,
002928: 40,3472           11042                           CCS      CADRSTOR                              #        RELEASE DISPLAY SYSTEM AND
002929: 40,3473           03475                           TC       +2                                    #        DO RE-ESTABLISH IF CADRSTOR IS FULL.
002930: 40,3474           05155                           TC       ENDOFJOB
002931: 40,3475           04635                           TC       POSTJUMP
002932: 40,3476           21050                           CADR     PINBRNCH
002933: 40,3477           34755        UNSUSPEN           CAF      ZERO                                  #  EXTERNAL MONITOR IS SUSPENDED,
002934: 40,3500           55012                           TS       DSPLOCK                               #        JUST UNSUSPEND IT BY CLEARING DSPLOCK.
002935: 40,3501           11042                           CCS      CADRSTOR                              #        TURN KEY RELEASE LIGHT OFF IF BOTH
002936: 40,3502           05155                           TC       ENDOFJOB                              #        CADRSTOR AND DSPLIST ARE EMPTY.
002937: 40,3503           04502                           TC       RELDSP1
002938: 40,3504           05155                           TC       ENDOFJOB
002939:
002940: 40,3505                        ENDRELDS           EQUALS
002941:
002942:                                                                                                  #  Page 451
002943:                                                                                                  #  NVSUB IS USED FOR SUBROUTINE CALLS FROM WITHIN COMPUTER. IT CAN BE
002944:                                                                                                  #  USED TO CALL THE COMBINATION OF ANY DISPLAY, LOAD, OR MONITOR VERB
002945:                                                                                                  #  TOGETHER WITH ANY NOUN AVAILABLE TO THE KEYBOARD.
002946:                                                                                                  #  PLACE 0VVVVVVVNNNNNNN INTO A.
002947:                                                                                                  #  V'S ARE THE 7-BIT VERB CODE.  N'S ARE THE 7-BIT NOUN CODE.
002948:
002949:                                                                                                  #  IF NVSUB IS CALLED WTIH THE FOLLOWING NEGATIVE NUMBERS (RATHER THAN THE
002950:                                                                                                  #  VERB-NOUN CODE) IN A, THEN THE DISPLAY IS BLANKED AS FOLLOWS -
002951:                                                                                                  #   -4 FULL BLANK, -3 LEAVE MODE, -2 LEAVE MODE AND VERB, -1 BLANK R'S ONLY.
002952:
002953:                                                                                                  #  NVSUB CAN BE USED WTIH MACH CADR TO BE SPEC BY PLACING THE CADR INTO
002954:                                                                                                  #  MPAC+2 BEFORE THE STANDARD NVSUB CALL.
002955:
002956:                                                                                                  #  NVSUB RETURNS TO 2+ CALLING LOC AFTER PERFORMING TASK, IF DISPLAY
002957:                                                                                                  #  SYSTEM IS AVAIALBLE. THE NEW NOUN AND VERB CODES ARE DISPLAYED.
002958:                                                                                                  #  IF V'S =0, THE NEW NOUN CODE IS DISPLAYED ONLY (RETURN WITH NO FURTHER
002959:                                                                                                  #  ACTION). IF N'S =0, THE NEW VERB CODE IS DISPLAYED ONLY (RETURN WITH NO
002960:                                                                                                  #  FURTHER ACTION).
002961:
002962:                                                                                                  #  IT RETURNS TO 1+ CALLING LOC WITHOUT PERFORMING TASK, IF DISPLAY
002963:                                                                                                  #  SYSTEM IS BLOCKED (NOTHING IS DISPLAYED IN THIS CASE).
002964:                                                                                                  #  IT DOES TC ABORT (WITH OCT 01501) IF IT ENCOUNTERS A DISPLAY PROGRAM
002965:                                                                                                  #  ALARM CONDITION BEFORE RETURN TO CALLER.
002966:
002967:                                                                                                  #  THE DISPLAY SYSTEM IS BLOCKED BY THE DEPRESSION OF ANY
002968:                                                                                                  #  KEY, EXCEPT ERROR LIGHT RESET.
002969:                                                                                                  #  IT IS RELEASED BY THE KEY RELEASE BUTTON, ALL EXTENDED VERBS,
002970:                                                                                                  #  PROCED WITHOUT DATA, TERMINATE, RESEQUENCE, INITIALIZE EXECUTIVE,
002971:                                                                                                  #  RECALL PART OF RECALTST IF ENDIDLE WAS USED,
002972:                                                                                                  #  VB = REQUEST EXECUTIVE, VB = REQUEST WAITLIST,
002973:                                                                                                  #  MONITOR SET UP.
002974:
002975:                                                                                                  #  THE DISPLAY SYSTEM IS ALSO BLOCKED BY THE EXTERNAL MONITOR BIT, WHICH
002976:                                                                                                  #  INDICATES AND EXTERNALLY INITIATED MONITOR IS RUNNING (SEE MONITOR).
002977:
002978:                                                                                                  #  A NVSUB CALL THAT PASSES DSPLOCK AND THE EXTERNAL MONITOR BIT ENDS OLD
002979:                                                                                                  #  MONITOR.
002980:
002981:                                                                                                  #  DSPLOCK IS THE INTERLOCK FOR USE OF KEYBOARD AND DISPLAY SYSTEM WHICH
002982:                                                                                                  #  LOCKS OUT INTERNAL USE WHENEVER THERE IS EXTERNAL KEYBOARD ACTION.
002983:
002984:                                                                                                  #  NVSUB SHOULD BE USED TWICE IN SUCCESSION FOR 'PLEASE PERFORM' SITUATIONS
002985:                                                                                                  #  (SIMILARLY FOR PLEASE MARK).  FIRST PLACE THE CODED NUMBER FOR WHAT
002986:                                                                                                  #  ACTION IS DESIRED OF OPERATOR INTO THE REGISTERS REFERRED TO BY THE
002987:                                                                                                  #  'CHECKLIST' NOUN. GO TO NVSUB WITH A DISPLAY VERB AND THE 'CHECKLIST'
002988:                                                                                                  #  NOUN.  GO TO NVSUB AGAIN WTIH THE 'PLEASE PERFORM' VERB AND ZEROS IN THE
002989:                                                                                                  #  LOW 7 BITS. THIS 'PASTES UP' THE 'PLEASE PERFORM' VERB INTO THE VERB
002990:                                                                                                  #  LIGHTS.
002991:
002992:                                                                                                  #  NVMONOPT IS AN ENTRY SIMILAR TO NVSUB, BUT REQUIRING AN ADDITIONAL
002993:                                                                                                  #  Page 452
002994:                                                                                                  #  PARAMETER IN L. IT SHOULD BE USED ONLY WITH A MONITOR VERB-NOUN CODE IN
002995:                                                                                                  #  A. AFTER EACH MONITOR DISPLAY A *PLEASE* VERB WILL BE PASED INT THE VERB
002996:                                                                                                  #  LIGHTS OR DATA WILL BE BLANKED (OR BOTH) ACCORDING TO THE OPTIONS
002997:                                                                                                  #  SPECIFIED IN L. IF BITS 8-14 OF L ARE OTHER THAN ZERO, THEN THEY WILL
002998:                                                                                                  #  BE INTERPRETED AS A VERB CODE AND PASTED IN THE VERB LIGHTS. (THIS VERB
002999:                                                                                                  #  CODE SHOULD DESIGNATE ONE OF THE *PLEASE* VERBS.)  IF BITS 1-3 OF L ARE
003000:                                                                                                  #  OTHER THAN ZERO, THEN THEY WILL BE USED TO BLANK DATA BY BEING FED TO
003001:                                                                                                  #  BLANKSUB.  IF NVMONOPT IS USED WITH A VERB OTHER THAN A MONITOR VERB,
003002:                                                                                                  #  THE PARAMETER IN L HAS NO EFFECT.
003003:
003004:                                                                                                  #  NVSUB IN FIXED-FIXED PLACES 2+CALLING LOC INTO NVQTEM, TC NVSUBEND INTO
003005:                                                                                                  #  ENTRET. (THIS WILL RESTORE OLD CALLING BANK BITS)
003006:
003007:    4154                                           SETLOC   ENDALM     +1
003008:
003009:    4154                                           COUNT*   $$/PIN
003010:    4154           22007        NVSUB              LXCH     7                                     #  ZERO NVMONOPT OPTIONS
003011:    4155           54123        NVMONOPT           TS       NVTEMP
003012:    4156           34736                           CAF      BIT14
003013:    4157           71021                           MASK     MONSAVE1                              #  EXTERNAL MONITOR BIT
003014:    4160           61012                           AD       DSPLOCK
003015:    4161           10000                           CCS      A
003016:    4162           00002                           TC       Q                                     #  DSP SYST BLOCKED, RET TO 1+ CALLING LOC
003017:    4163           34753                           CAF      ONE                                   #  DSP SYST AVAILABLE.
003018:    4164           60002        NVSBCOM            AD       Q
003019:    4165           55037                           TS       NVQTEM                                #  2+ CALLING LOC INTO NVQTEM
003020:    4166           23022                           LXCH     MONSAVE2                              #  STORE NVMONOPT OPTIONS
003021:    4167           04204                           TC       KILMONON                              #  TURN ON KILL MONITOR BIT
003022:    4170           34201        NVSUBCOM           CAF      NVSBBBNK
003023:
003024:    4171           56006                           XCH      BBANK
003025:    4172           00006                           EXTEND                                         #  SAVE OLD SUPERBITS
003026:    4173           04007                           ROR      SUPERBNK
003027:    4174           55040                           TS       NVBNKTEM
003028:    4175           34201                           CAF      PINSUPBT
003029:    4176           00006                           EXTEND
003030:    4177           01007                           WRITE    SUPERBNK
003031:    4200           02000                           TC       NVSUBB                                #  GO TO NVSUB1 THRU STANDARD LOC
003032:    4201     0777                                  EBANK=   DSPCOUNT
003033:    4201           62101        NVSBBBNK           BBCON    NVSUB1
003034:
003035:    4202     4201               PINSUPBT           =        NVSBBBNK                              #  CONTAINS THE PINBALL SUPERBITS.
003036:
003037:    4202           53040        NVSUBEND           DXCH     NVQTEM                                #  NVBNKTEM MUST = NVQTEM+1
003038:    4203           05165                           TC       SUPDXCHZ                              #  DTCB WITH SUPERBIT SWITCHING
003039:
003040: 41,3516                                           SETLOC   ENDRQWT    +1
003041:
003042: 41,3516                                           COUNT*   $$/PIN
003043:
003044:                                                                                                  #  BLANKDSP BLANKS DISPLAY ACCORDING TO OPTION NUMBER IN NVTEMP AS FOLLOWS
003045:                                                                                                  #  Page 453
003046:                                                                                                  #   -4 FULL BLANK, -3 LEAVE MODE, -2 LEAVE MODE AND VERB, -1 BLANK R'S ONLY.
003047:
003048: 41,3516           64757        BLANKDSP           AD       SEVEN                                 #  7,8,9, OR 10 (A HAD 0,1,2,OR 3)
003049: 41,3517           00004                           INHINT
003050: 41,3520           54124                           TS       CODE                                  #  BLANK SPECIFIED DSPTABS
003051: 41,3521           44740                           CS       BIT12
003052: 41,3522           50124                           INDEX    CODE
003053: 41,3523           57023                           XCH      DSPTAB
003054: 41,3524           10000                           CCS      A
003055: 41,3525           25016                           INCR     NOUT
003056: 41,3526           03527                           TC       +1
003057: 41,3527           10124                           CCS      CODE
003058: 41,3530           03520                           TC       BLANKDSP   +2
003059: 41,3531           00003                           RELINT
003060: 41,3532           50123                           INDEX    NVTEMP
003061: 41,3533           03540                           TC       +5
003062: 41,3534           03535                           TC       +1                                    #  NVTEMP HAS    -4 (NEVER TOUCH MODREG)
003063: 41,3535           55001                           TS       VERBREG                               #                -3
003064: 41,3536           55002                           TS       NOUNREG                               #                -2
003065: 41,3537           55015                           TS       CLPASS                                #                -1
003066: 41,3540           44360                           CS       VD1
003067: 41,3541           54777                           TS       DSPCOUNT
003068: 41,3542           04433                           TC       FLASHOFF                              #  PROTECT AGAINS INVISIBLE FLASH
003069: 41,3543           03566                           TC       ENTSET     -2                         #  ZEROS REQRET
003070:
003071: 41,3544           33570        NVSUB1             CAF      ENTSET                                #  IN BANK
003072: 41,3545           54136                           TS       ENTRET                                #  SET RETURN TO NVSUBEND
003073: 41,3546           10123                           CCS      NVTEMP                                #  WHAT NOW
003074: 41,3547           03553                           TC       +4                                    #  NORMAL NVSUB CALL (EXECUTE VN OR PASTE)
003075: 41,3550           02351                           TC       GODSPALM
003076: 41,3551           03516                           TC       BLANKDSP                              #  BLANK DISPLAY AS SPECIFIED
003077: 41,3552           02351                           TC       GODSPALM
003078: 41,3553           36074                           CAF      LOW7
003079: 41,3554           70123                           MASK     NVTEMP
003080: 41,3555           54157                           TS       MPAC       +3                         #  TEMP FOR NOUN (CANT USE MPAC. DSPDECVN
003081: 41,3556           30123                           CA       NVTEMP                                #                USES MPAC, +1, +2).
003082: 41,3557           54023                           TS       EDOP                                  #  RIGHT 7
003083: 41,3560           30023                           CA       EDOP
003084: 41,3561           54160                           TS       MPAC       +4                         #  TEMP FOR VERB (CANT USE MPAC+1. DSPDECVN
003085:                                                                                                  #                USES MPAC, +1, +2).
003086: 41,3562           10157                           CCS      MPAC       +3                         #  TEST NOUN
003087: 41,3563           03571                           TC       NVSUB2                                #  IF NOUN NOT +0, GO ON
003088: 41,3564           30160                           CA       MPAC       +4
003089: 41,3565           02337                           TC       UPDATVB    -1                         #  IF NOUN = +0, DISPLAY VERB, THEN RETURN
003090: 41,3566           34755                           CAF      ZERO                                  #  XERO REQRET SO THAT PASTED VERBS CAN
003091: 41,3567           55013                           TS       REQRET                                #  BE EXECUTED BY OPERATOR.
003092: 41,3570           04202        ENTSET             TC       NVSUBEND
003093: 41,3571           10160        NVSUB2             CCS      MPAC       +4                         #  TEST VERB
003094: 41,3572           03576                           TC       +4                                    #  IF VERB NOT +0, GO ON
003095: 41,3573           30157                           CA       MPAC       +3
003096:                                                                                                  #  Page 454
003097: 41,3574           02317                           TC       UPDATNN    -1                         #  IF VERB = +0, DISPLAY NOUN, THEN RETURN
003098: 41,3575           04202                           TC       NVSUBEND
003099: 41,3576           30156                           CA       MPAC       +2                         #  TEMP FOR MACH CADR TO BE SPEC. (DSPDECVN
003100: 41,3577           54161                           TS       MPAC       +5                         #        USES MPAC, +1, +2)
003101: 41,3600           30160                           CA       MPAC       +4
003102: 41,3601           02337                           TC       UPDATVB    -1                         #  IF BOTH NOUN AND VERB NOT +0, DISPLAY
003103: 41,3602           30157                           CA       MPAC       +3                         #  BOTH AND GO TO ENTPAS0.
003104: 41,3603           02317                           TC       UPDATNN    -1
003105: 41,3604           34755                           CAF      ZERO
003106: 41,3605           55014                           TS       LOADSTAT                              #  SET FOR WAITING FOR DATA CONDITION
003107: 41,3606           55015                           TS       CLPASS
003108: 41,3607           55013                           TS       REQRET                                #  SET REQRET FOR PASS 0.
003109: 41,3610           30161                           CA       MPAC       +5                         #  RESTORES MACH CADR TO BE SPEC TO MPAC+2
003110: 41,3611           54156                           TS       MPAC       +2                         #  FOR USE IN INTMCTBS (IN ENTPAS0).
003111: 41,3612           02035        ENDNVSB1           TC       ENTPAS0
003112:
003113:                                                                                                  #  IF INTERNAL MACH CADR TO BE SPECIFIED, MPAC+2 WILL BE PLACED INTO
003114:                                                                                                  #  NOUNCADR IN ENTPAS0 (INTMCTBS).
003115:
003116:    4204                                           SETLOC   NVSUBEND   +2
003117:    4204                                           COUNT*   $$/PIN
003118:                                                                                                  #  FORCE BIT 15 OF MONSAVE1 TO 1.
003119:    4204           34735        KILMONON           CAF      BIT15                                 #        THIS IS THE KILL MONITOR BIT.
003120:    4205           55021                           TS       MONSAVE1                              #  TURN OFF BIT 14, THE EXTERNAL
003121:                                                                                                  #        MONITOR BIT.
003122:    4206           00002                           TC       Q
003123:
003124:                                                                                                  #  LOADSTAT      +0      INACTIVE (WAITING FOR DATA). SET BY NVSUB
003125:                                                                                                  #                +1      PROCEED NO DATA. SET BY SPECIAL VERB
003126:                                                                                                  #                -1      TERMINATE. SET BY SPECIAL VERB.
003127:                                                                                                  #                -0              DATA IN         SET BY END OF LOAD ROUTINE
003128:                                                                                                  #                        OR      RESEQUENCE      SET BY VERB 32
003129:
003130:                                                                                                  #  L TO ENDIDLE (FIXED FIXED)
003131:                                                                                                  #  ROUTINES THAT REQUEST LOADS THROUGH NVSUB SHOULD USE ENDIDLE WHILE
003132:                                                                                                  #  WAITING FOR THE DATA TO BE LOADED. ENDIDLE PUTS CURRENT JOB TO SLEEP.
003133:                                                                                                  #  ENDIDLE CANNOT BE CALLED FROM ERASABLE OR F/F MEMORY,
003134:                                                                                                  #  SINCE JOB SLEEP AND JOBWAKE CAN HANDLE ONLY FIXED BANKS.
003135:                                                                                                  #  RECALTST TESTS LOADSTAT AND WAKES JOB UP TO,
003136:                                                                                                  #        L+1     FOR TERMINATE
003137:                                                                                                  #        L+2     FOR PROCEED WITHOUT DATA
003138:                                                                                                  #        L+3     FOR DATA IN, OR RESEQUENCE
003139:                                                                                                  #  IT DOES NOTHING IF LOADSTAT INDICATES WAITING FOR DTA.
003140:
003141:                                                                                                  #  ENDIDLE ABORTS (WITH CODE 1206) IF A SECOND JOB ATTEMPTS TO GO TO SLEEP
003142:                                                                                                  #  Page 455
003143:                                                                                                  #  IN PINBALL. IN PARTICULAR, IF AN ATTEMPT IS MADE TO GO TO ENDIDLE WHEN
003144:                                                                                                  #  1)    CADRSTOR NOT= +0. THIS IS THE CASE WHERE THE CAPACITY OF ENDIDLE IS
003145:                                                                                                  #        EXCEEDED. (+-NZ INDICATES A JOB IS ALREADY ASLEEP DUE TO ENDIDDLE.)
003146:                                                                                                  #  2)    DSPLIST NOT= +0. THIS INDICATES A JOB IS ALREADY ASLEEP DUE TO
003147:                                                                                                  #        NVSUBUSY.
003148:
003149:    4207           22002        ENDIDLE            LXCH     Q                                     #  RETURN ADDRESS INTO L.
003150:    4210           04220                           TC       ISCADR+0                              #  ABORT IF CADRSTOR NOT= +0
003151:    4211           04224                           TC       ISLIST+0                              #  ABORT IF DSPLIST NOT= +0
003152:    4212           30001                           CA       L                                     #  DONT SET DSPLOC TO 1 SO CAN USE
003153:    4213           75012                           MASK     LOW10                                 #  ENDIDLE WITH NVSUB INITIATED MONITOR.
003154:    4214           60004                           AD       FBANK                                 #  SAME STRATEGY FOR CADR AS MAKECADR.
003155:    4215           55042                           TS       CADRSTOR
003156:    4216           05133                           TC       JOBSLEEP
003157:
003158:    4217           05155        ENDINST            TC       ENDOFJOB
003159:
003160:    4220           11042        ISCADR+0           CCS      CADRSTOR                              #  ABORTS (CODE 01206) IF CADRSTOR NOT= +0.
003161:    4221           04227                           TC       DSPABORT                              #  RETURNS IF CADRSTOR = +0.
003162:    4222           00002                           TC       Q
003163:    4223           04227                           TC       DSPABORT
003164:
003165:    4224           11043        ISLIST+0           CCS      DSPLIST                               #  ABORTS (CODE 01206) IF DSPLIST NOT= +0.
003166:    4225           04227                           TC       DSPABORT                              #  RETURNS IF DSPLIST = +0.
003167:    4226           00002                           TC       Q
003168:    4227           05652        DSPABORT           TC       P00DOO
003169:    4230           01206                           OCT      01206
003170:
003171:                                                                                                  #  JAMTERM ALLOWS PROGRAMS TO PERFORM THE TERMINATE FUNCTION.
003172:                                                                                                  #  IT DOES ENDOFJOB.
003173:
003174:    4231           34201        JAMTERM            CAF      PINSUPBT
003175:    4232           00006                           EXTEND
003176:    4233           01007                           WRITE    SUPERBNK
003177:    4234           34242                           CAF      34DEC
003178:    4235           55013                           TS       REQRET                                #  LEAVE ENTER SET FOR ENTPASS0.
003179:    4236           44360                           CS       VD1
003180:    4237           54777                           TS       DSPCOUNT
003181:    4240           04635                           TC       POSTJUMP
003182:    4241           61450                           CADR     VBTERM
003183:
003184:    4242           00042        34DEC              DEC      34         B-14
003185:
003186:                                                                                                  #  JAMPROC ALLOWS PROGRAMS TO PERFORM THE PROCEED/PROCEED WITHOUT DATA
003187:                                                                                                  #  FUNCTION. IT DOES ENDOFJOB.
003188:
003189:                                                                                                  #  Page 456
003190:    4243           34201        JAMPROC            CAF      PINSUPBT
003191:    4244           00006                           EXTEND
003192:    4245           01007                           WRITE    SUPERBNK
003193:    4246           34254                           CAF      33DEC
003194:    4247           55013                           TS       REQRET                                #  LEAVE ENTER SET FOR ENTPASS0.
003195:    4250           44360                           CS       VD1
003196:    4251           54777                           TS       DSPCOUNT
003197:    4252           04635                           TC       POSTJUMP
003198:    4253           61442                           CADR     VBPROC
003199:
003200:    4254           00041        33DEC              DEC      33         B-14
003201:
003202:                                                                                                  #  BLANKSUB BLANKS ANY COMBINATION OF R1, R2, R3.
003203:                                                                                                  #  CALL WITH BLANKING CODE IN A.
003204:                                                                                                  #  BIT1=1 BLANKS R1, BIT2=1 BLANKS R2, BIT3=1 BLANKS R3.
003205:                                                                                                  #  ANY COMBINATION OF THESE BITS IS ACCEPTED.
003206:
003207:                                                                                                  #  DSPCOUNT IS RESTORED TO STATE IT WAS IN BEFORE BLANKSUB WAS EXECUTED.
003208:
003209:    4255           74757        BLANKSUB           MASK     SEVEN
003210:    4256           54123                           TS       NVTEMP                                #  STORE BLANKING CODE IN NVTEMP.
003211:    4257           34736                           CAF      BIT14
003212:    4260           71021                           MASK     MONSAVE1                              #  EXTERNAL MONITOR BIT
003213:    4261           61012                           AD       DSPLOCK
003214:    4262           10000                           CCS      A
003215:    4263           00002                           TC       Q                                     #  DSP SYST BLOCKED. RET TO 1+ CALLING LOC
003216:    4264           24002                           INCR     Q                                     #  DSP SYST AVAILABLE
003217:                                                                                                  #  SET RETURN FOR 2+ CALLING LOC
003218:    4265           10123                           CCS      NVTEMP
003219:    4266           14270                           TCF      +2
003220:    4267           00002                           TC       Q                                     #  NOTHING TO BLANK. RET TO 2+ CALLING LOC
003221:    4270           22002                           LXCH     Q                                     #  SET RETURN FOR 2 + CALLING LOC
003222:    4271           34302                           CAF      BLNKBBNK
003223:    4272           56006                           XCH      BBANK
003224:    4273           00006                           EXTEND
003225:    4274           04007                           ROR      SUPERBNK                              #  SAVE OLD SUPERBITS.
003226:    4275           52131                           DXCH     BUF
003227:    4276           34201                           CAF      PINSUPBT
003228:    4277           00006                           EXTEND
003229:    4300           01007                           WRITE    SUPERBNK
003230:    4301           03505                           TC       BLNKSUB1
003231:
003232:    4302     0777                                  EBANK=   DSPCOUNT
003233:    4302           60101        BLNKBBNK           BBCON    BLNKSUB1
003234:    4303                        ENDBLFF            EQUALS
003235:
003236: 40,3505                                           SETLOC   ENDRELDS
003237: 40,3505                                           COUNT*   $$/PIN
003238: 40,3505           30777        BLNKSUB1           CA       DSPCOUNT                              #  SAVE OLD DSPCOUNT FOR LATER RESTORATION
003239:                                                                                                  #  Page 457
003240: 40,3506           54132                           TS       BUF        +2
003241: 40,3507           34753                           CAF      BIT1                                  #  TEST BIT1. SEE IF R1 TO BE BLANKED.
003242: 40,3510           03527                           TC       TESTBIT
003243: 40,3511           34317                           CAF      R1D1
003244: 40,3512           02535                           TC       5BLANK     -1
003245: 40,3513           34752                           CAF      BIT2                                  #  TEST BIT2. SEE IF R2 TO BE BLANKED.
003246: 40,3514           03527                           TC       TESTBIT
003247: 40,3515           34320                           CAF      R2D1
003248: 40,3516           02535                           TC       5BLANK     -1
003249: 40,3517           34751                           CAF      BIT3                                  #  TEST BIT3. SEE IF R3 TO BE BLANKED.
003250: 40,3520           03527                           TC       TESTBIT
003251: 40,3521           34321                           CAF      R3D1
003252: 40,3522           02535                           TC       5BLANK     -1
003253: 40,3523           30132                           CA       BUF        +2                         #  RESTORE DSPCOUNT TO STATE IT HAD
003254: 40,3524           54777                           TS       DSPCOUNT                              #        BEFORE BLANKSUB.
003255: 40,3525           52131                           DXCH     BUF                                   #  CALL L+2 DIRECTLY.
003256: 40,3526           05166                           TC       SUPDXCHZ   +1                         #  DTCB WITH SUPERBIT SWITCHING
003257:
003258: 40,3527           70123        TESTBIT            MASK     NVTEMP                                #  NVTEMP CONTAINS BLANKING CODE.
003259: 40,3530           10000                           CCS      A
003260: 40,3531           00002                           TC       Q                                     #  IF CURRENT BIT = 1, RETURN TO L+1.
003261: 40,3532           50002                           INDEX    Q                                     #  IF CURRENT BIT = 0, RETURN TO L+3.
003262: 40,3533           00002                           TC       2
003263:
003264: 40,3534                        ENDBSUB1           EQUALS
003265:
003266:                                                                                                  #  DSPMM DOES NOT DISPLAY MODREG DIRECTLY. IT PUTS IN EXEC REQUEST WITH
003267:                                                                                                  #  PRIO 30000 FOR DSPMMJB AND RETURNS TO CALLER.
003268:
003269:                                                                                                  #  IF MODREG CONTAINS -0, DSPMMJB BLANKS THE MODE LIGHTS.
003270:
003271:                                                                                                  #  DSPMM MUST BE IN BANK 27 OR LOWER, SO IT CAN BE CALLED VIA BANKCALL.
003272:
003273: 07,2667                                           BANK     7
003274: 04,2000                                           SETLOC   PINBALL4
003275: 04,2000                                           BANK
003276:
003277: 04,2636                                           COUNT*   $$/PIN
003278: 04,2636           56002        DSPMM              XCH      Q
003279: 04,2637           54154                           TS       MPAC
003280: 04,2640           00004                           INHINT
003281: 04,2641           34355                           CAF      CHRPRIO
003282: 04,2642           05072                           TC       NOVAC
003283: 04,2643     0777                                  EBANK=   DSPCOUNT
003284: 04,2643           03534 60101                     2CADR    DSPMMJB
003285:
003286: 04,2645           00003                           RELINT
003287: 04,2646           00154        ENDSPMM            TC       MPAC
003288:
003289:                                                                                                  #  Page 458
003290:                                                                                                  #  DSPMM  PLACE MAJOR MODE CODE INTO MODREG
003291:
003292: 40,3534                                           SETLOC   ENDBSUB1
003293:
003294: 40,3534                                           COUNT*   $$/PIN
003295: 40,3534           34362        DSPMMJB            CAF      MD1                                   #  GETS HERE THRU DSPMM
003296: 40,3535           56777                           XCH      DSPCOUNT
003297: 40,3536           54140                           TS       DSPMMTEM                              #  SAVE DSPCOUNT
003298: 40,3537           11011                           CCS      MODREG
003299: 40,3540           64753                           AD       ONE
003300: 40,3541           03306                           TC       DSPDECVN                              #  IF MODREG IS + OR +0, DISPLAY MODREG
003301: 40,3542           03544                           TC       +2                                    #  IF MODREG IS -NZ, DO NOTHING
003302: 40,3543           02601                           TC       2BLANK                                #  IF MODREG IS -0, BLANK MM
003303: 40,3544           56140                           XCH      DSPMMTEM                              #  RESTORE DSPCOUNT
003304: 40,3545           54777                           TS       DSPCOUNT
003305: 40,3546           05155                           TC       ENDOFJOB
003306:
003307:                                                                                                  #  RECALTST IS ENTERED DIRECTLY AFTER DATA IS LOADED (OR RESEQUENCE VERB IS
003308:                                                                                                  #  EXECUTED), TERMINATE VERB IS EXECUTED, OR PROCEED WITHOUT DATA VERB IS
003309:                                                                                                  #  EXECUTED. IT WAKES UP JOB THAT DID TC ENDIDLE.
003310:                                                                                                  #
003311:                                                                                                  #  IF CADRSTOR NOT= +0, IT PUTS +0 INTO DSPLOCK, AND TURNS OFF KEY RLSE
003312:                                                                                                  #  LIGHT IF DSPLIST IS EMPTY (LEAVES KEY RLSE LIGHT ALONE IF NOT EMPTY).
003313:
003314: 40,3547           11042        RECALTST           CCS      CADRSTOR
003315: 40,3550           03552                           TC       RECAL1
003316: 40,3551           05155                           TC       ENDOFJOB                              #  NORMAL EXIT IF KEYBOARD INITIATED
003317: 40,3552           34755        RECAL1             CAF      ZERO
003318: 40,3553           57042                           XCH      CADRSTOR
003319: 40,3554           00004                           INHINT
003320: 40,3555           05137                           TC       JOBWAKE
003321: 40,3556           11014                           CCS      LOADSTAT
003322: 40,3557           03601                           TC       DOPROC                                #  + PROCEED WITHOUT DATA
003323: 40,3560           05155                           TC       ENDOFJOB                              #  PATHALOGICAL CASE EXIT
003324: 40,3561           03577                           TC       DOTERM                                #  - TERMINATE
003325: 40,3562           34752                           CAF      TWO                                   #  -0 DATA IN OR RESEQUENCE
003326: 40,3563           50064        RECAL2             INDEX    LOCCTR
003327: 40,3564           60164                           AD       LOC                                   #  LOC IS + FOR BASIC JOBS
003328: 40,3565           50064                           INDEX    LOCCTR
003329: 40,3566           54164                           TS       LOC
003330: 40,3567           31002                           CA       NOUNREG                               #  SAVE VERB IN MPAC, NOUN IN MPAC+1 AT
003331: 40,3570           54001                           TS       L                                     #  TIME OF RESPONSE TO ENDIDLE FOR
003332: 40,3571           31001                           CA       VERBREG                               #  POSSIBLE LATER TESTING BY JOB THAT HAS
003333: 40,3572           50064                           INDEX    LOCCTR                                #  BEEN WAKED UP.
003334: 40,3573           52155                           DXCH     MPAC
003335: 40,3574           00003                           RELINT
003336: 40,3575           04457        RECAL3             TC       RELDSP
003337: 40,3576           05155                           TC       ENDOFJOB
003338:
003339:                                                                                                  #  Page 459
003340: 40,3577           34755        DOTERM             CAF      ZERO
003341: 40,3600           03563                           TC       RECAL2
003342:
003343: 40,3601           34753        DOPROC             CAF      ONE
003344: 40,3602           03563                           TC       RECAL2
003345:
003346:                                                                                                  #  Page 460
003347:
003348:                                                                                                  #  MISCELLANEOUS SERVICE ROUTINES IN FIXED/FIXED
003349:
003350:    4303                                           SETLOC   ENDBLFF
003351:
003352:    4303                                           COUNT*   $$/PIN
003353:
003354:                                                                                                  #  SETNCADR      E CADR ARRIVES IN A. IT IS STORED IN NOUNCADR. EBANK BITS
003355:                                                                                                  #                ARE SET.  E ADRES IS DERIVED AND PUT INTO NOUNADD.
003356:
003357:    4303           55017        SETNCADR           TS       NOUNCADR                              #  STORE ECADR
003358:    4304           54003                           TS       EBANK                                 #  SET EBANK BITS
003359:    4305           74357                           MASK     LOW8
003360:    4306           65007                           AD       OCT1400
003361:    4307           54145                           TS       NOUNADD                               #  PUT E ADRES INTO NOUNADD
003362:    4310           00002                           TC       Q
003363:
003364:                                                                                                  #  SETNADD       GETS E CADR FROM NOUNCADR, SETS EBANK BITS, DERIVES
003365:                                                                                                  #                E ADRES AND PUTS IT INTO NOUNADD.
003366:
003367:    4311           31017        SETNADD            CA       NOUNCADR
003368:    4312           14304                           TCF      SETNCADR   +1
003369:
003370:                                                                                                  #  SETEBANK      E CADR ARRIVES IN A. EBANK BITS ARE SET. E ADRES IS
003371:                                                                                                  #                DERIVED AND LEFT IN A.
003372:
003373:    4313           54003        SETEBANK           TS       EBANK                                 #  SET EBANK BITS
003374:    4314           74357                           MASK     LOW8
003375:    4315           65007                           AD       OCT1400                               #  E ADRES LEFT IN A
003376:    4316           00002                           TC       Q
003377:
003378:    4317           00016        R1D1               OCT      16                                    #  THESE 3 CONSTANTS FORM A PACKED TABLE.
003379:    4320           00011        R2D1               OCT      11                                    #  DONT SEPARATE.
003380:    4321           00004        R3D1               OCT      4
003381:
003382:    4322           54020        RIGHT5             TS       CYR
003383:    4323           40020                           CS       CYR
003384:    4324           40020                           CS       CYR
003385:    4325           40020                           CS       CYR
003386:    4326           40020                           CS       CYR
003387:    4327           56020                           XCH      CYR
003388:    4330           00002                           TC       Q
003389:
003390:    4331           54022        LEFT5              TS       CYL
003391:    4332           40022                           CS       CYL
003392:    4333           40022                           CS       CYL
003393:    4334           40022                           CS       CYL
003394:    4335           40022                           CS       CYL
003395:                                                                                                  #  Page 461
003396:    4336           56022                           XCH      CYL
003397:    4337           00002                           TC       Q
003398:
003399:    4340           60000        SLEFT5             DOUBLE
003400:    4341           60000                           DOUBLE
003401:    4342           60000                           DOUBLE
003402:    4343           60000                           DOUBLE
003403:    4344           60000                           DOUBLE
003404:    4345           00002                           TC       Q
003405:
003406:    4346           00037        LOW5               OCT      37                                    #  THESE 3 CONSTANTS FORM A PACKED TABLE.
003407:    4347           01740        MID5               OCT      1740                                  #  DONT SEPARATE.
003408:    4350           76000        HI5                OCT      76000                                 #  MUST STAY HERE
003409:
003410:    4351           05072        TCNOVAC            TC       NOVAC
003411:    4352           05203        TCWAIT             TC       WAITLIST
003412:    4353           05261        TCTSKOVR           TC       TASKOVER
003413:    4354           05105        TCFINDVC           TC       FINDVAC
003414:
003415:    4355           30000        CHRPRIO            OCT      30000                                 #  EXEC PRIORITY OF CHARIN
003416:
003417:    4356           03777        LOW11              OCT      3777
003418:    4357     4356               B12-1              EQUALS   LOW11
003419:    4357           00377        LOW8               OCT      377
003420:
003421:    4360           00023        VD1                OCT      23                                    #  THESE 3 CONSTANTS FORM A PACKED TABLE.
003422:    4361           00021        ND1                OCT      21                                    #  DONT SEPARATE.
003423:    4362           00025        MD1                OCT      25
003424:
003425:    4363           00012        BINCON             DEC      10         B-14
003426:
003427:    4364           34745        FALTON             CA       BIT7                                  #  TURN ON OPERATOR ERROR LIGHT.
003428:    4365           00006                           EXTEND
003429:    4366           05011                           WOR      DSALMOUT                              #  BIT 7 OF CHANNEL 11
003430:    4367           00002                           TC       Q
003431:
003432:    4370           44745        FALTOF             CS       BIT7                                  #  TURN OFF OPERATOR ERROR LIGHT
003433:    4371           00006                           EXTEND
003434:    4372           03011                           WAND     DSALMOUT                              #  BIT 7 OF CHANNEL 11
003435:    4373           00002                           TC       Q
003436:
003437:    4374           34747        RELDSPON           CAF      BIT5                                  #  TURN ON KEY RELEASE LIGHT
003438:    4375           00006                           EXTEND
003439:    4376           05011                           WOR      DSALMOUT                              #  BIT 5 OF CHANNEL 11
003440:    4377           00002                           TC       Q
003441:
003442:                                                                                                  #  Page 462
003443:    4400           00006        LODSAMPT           EXTEND
003444:    4401           30025                           DCA      TIME2
003445:    4402           52014                           DXCH     SAMPTIME
003446:    4403           00002                           TC       Q
003447:
003448:    4404           00006        TPSL1              EXTEND                                         #  SHIFTS MPAC, +1, +2 LEFT 1
003449:    4405           30156                           DCA      MPAC       +1                         #  LEAVES OVFIND SET TO +/- 1 FOR OF/UF
003450:    4406           20156                           DAS      MPAC       +1
003451:    4407           60154                           AD       MPAC
003452:    4410           26154                           ADS      MPAC
003453:    4411           54007                           TS       7                                     #  TS A DOES NOT CHANGE A ON OF/UF.
003454:    4412           00002                           TC       Q                                     #  NO NET OF/UF
003455:    4413           54162                           TS       MPAC+6                                #  MPAC +6 SET TO +/- 1 FOR OF/UF
003456:    4414           00002                           TC       Q
003457:
003458:                                                                                                  #  IF MPAC, +1 ARE EACH +NZ OR +0 AND C(A)=-0, SHORTMP WRONGLY GIVES +0.
003459:                                                                                                  #  IF MPAC, +1 ARE EACH -NZ OR -0 AND C(A)=+0, SHORTMP WRONGLY GIVES +0.
003460:                                                                                                  #  PRSHRTMP FIXES FORST CASE ONLY, BY MERELY TESTING C(A) AND IF IT = -0,
003461:                                                                                                  #  SETTING RESULT TO -0.
003462:                                                                                                  #   (DO NOT USE PRSHRTMP UNLESS MPAC, +1 ARE EACH +NZ OR +0, AS THEY ARE
003463:                                                                                                  #   WHEN THEY CONTAIN THE SF CONSTANTS.)
003464:
003465:    4415           54135        PRSHRTMP           TS       MPTEMP
003466:    4416           10000                           CCS      A
003467:    4417           30135                           CA       MPTEMP                                #  C(A) +, DO REGULAR SHORTMP
003468:    4420           17310                           TCF      SHORTMP    +1                         #  C(A) +0, DO REGULAR SHORTMP
003469:    4421           14417                           TCF      -2                                    #  C(A) -, DO REGULAR SHORTMP
003470:    4422           44755                           CS       ZERO                                  #  C(A) -0, FORCE RESULT TO -0 AND RETURN.
003471:    4423           54154                           TS       MPAC
003472:    4424           54155                           TS       MPAC       +1
003473:    4425           54156                           TS       MPAC       +2
003474:    4426           00002                           TC       Q
003475:
003476:    4427           34746        FLASHON            CAF      BIT6                                  #  TURN ON V/N FLASH
003477:    4430           00006                           EXTEND                                         #  BIT 6 OF CHANNEL 11
003478:    4431           05011                           WOR      DSALMOUT
003479:    4432           00002                           TC       Q
003480:
003481:    4433           44746        FLASHOFF           CS       BIT6                                  #  TURN OFF V/N FLASH
003482:    4434           00006                           EXTEND
003483:    4435           03011                           WAND     DSALMOUT
003484:    4436           00002                           TC       Q
003485:
003486:                                                                                                  #  Page 463
003487:                                                                                                  #  INTERNAL USE OF KEYBOARD AND DISPLAY PROGRAM.
003488:
003489:                                                                                                  #  USER MUST SCHEDULE CALLS TO NVSUB SO THAT THERE IS NO CONFLICT OF USE OR
003490:                                                                                                  #  CONFUSION TO OPERATOR. THE OLD GRABLOCK (INTERNAL/INTERNAL INTERLOCK)
003491:                                                                                                  #  HAS BEEN REMOVED AND THE INTERNAL USER NO LONGER HAS THE PROTECTION THIS
003492:                                                                                                  #  OFFERED.
003493:
003494:                                                                                                  #  THERE ARE TWO WAYS A JOB CAN BE PUT TO SLEEP BY THE KEYBOARD + DISPLAY
003495:                                                                                                  #  PROGRAM.      1) BY ENDIDLE
003496:                                                                                                  #                2) BY NVSUBUSY
003497:                                                                                                  #  THE BASIC CONVENTION IS THAT ONLY ONE JOB WILL BE PERMITTED ASLEEP VIA
003498:                                                                                                  #  THE KEYBOARD + DISPLAY PROGRAM AT A TIME. IF A JOB ATTEMPTS TO GO TO
003499:                                                                                                  #  SLEEP BY MEANS OF (1) OR (2) AND THERE IS ALREADY A JOB ASLEEP THAT WAS
003500:                                                                                                  #  PUT TO SLEEP BY (1) OR (2), THEN AN ABORT IS CAUSED.
003501:
003502:                                                                                                  #  THE CALLING SEQUENCE FOR NVSUB IS
003503:                                                                                                  #                        CAF             V/N
003504:                                                                                                  #        L               TC              NVSUB
003505:                                                                                                  #        L+1             RETURN HERE IF OPERATOR HAS INTERVENED
003506:                                                                                                  #        L+2             RETURN HERE AFTER EXECUTION
003507:
003508:                                                                                                  #  A ROUTINE CALLED NVSUBUSY IS PROVIDED (USE IS OPTIONAL) TO PUT
003509:                                                                                                  #  YOUR JOB TO SLEEP UNTIL THE OPERATOR RELEASES THE KEYBOARD + DISPLAY
003510:                                                                                                  #  SYSTEM. NVSUBUSY ALSO TURNS ON THE KEY RELEASE LIGHT.
003511:                                                                                                  #  NVSUBUSY CANNOT BE CALLED FROM ERASABLE OR F/F MEMORY,
003512:                                                                                                  #  SINCE JOBSLEEP AND JOBWAKE CAN HANDLE ONLY FIXED BANKS.
003513:
003514:                                                                                                  #  THE CALLING SEQUENCE IS
003515:                                                                                                  #        CAF     WAKEFCADR
003516:                                                                                                  #        TC      NVSUBUSY
003517:
003518:
003519:                                                                                                  #  .
003520:
003521:                                                                                                  #  NVSUBUSY IS INTENDED FOR USE WHEN AN INTERNAL PROGRAM FINDS THE OPERATOR
003522:                                                                                                  #  IS NOT USING THE KEYBOARD + DISPLAY PROGRAM (BY HIS OWN INITIATION). IT IS
003523:                                                                                                  #  NOT INTENDED FOR USE WHEN ONE INTERNAL PROGRAM FINDS ANOTHER INTERNAL
003524:                                                                                                  #  PROGRAM USING THE KEYBOARD + DISPLAY PROGRAM.
003525:
003526:                                                                                                  #  NVSUBUSY ABORTS (WITH CODE 01206) IF A SECOND JOB ATTEMPTS TO GO TO
003527:                                                                                                  #  SLEEP IN PINBALL. IN PARTICULAR, IF AN ATTEMPT IS MADE TO GO TO NVSUBUSY
003528:                                                                                                  #  WHEN
003529:                                                                                                  #  1)    DSPLIST NOT= +0.  THIS IS THE CASE WHERE THE CAPACITY OF THE DSPLIST
003530:                                                                                                  #        IS EXCEEDED.
003531:                                                                                                  #  2)    CADRSTOR NOT= +0.  THIS INDICATES THAT A JOB IS ALREADY USING
003532:                                                                                                  #  Page 464
003533:                                                                                                  #  ENDIDLE.  (+-NZ INDICATE A JOB IS ALREADY ASLEEP DUE TO ENDIDLE.)
003534:
003535:    4437           44444        PRENVBSY           CS       2K+3                                  #  SPECIAL ENTRANCE FOR ROUTINES IN FIXED
003536:    4440           60002                           AD       Q                                     #  BANKS ONLY DESIRING THE FCADR OF (LOC
003537:    4441           60004                           AD       FBANK                                 #  FROM WHICH THE TC PRENVBSY WAS DONE) -2
003538:    4442           04635        NVSUBUSY           TC       POSTJUMP                              #  TO BE ENTERED.
003539:    4443           10647                           CADR     NVSUBSY1
003540:    4444           02003        2K+3               OCT      2003
003541:
003542:                                                                                                  #  NVSUBSY1 MUST BE IN BANK 27 OR LOWER, SO IT WILL PUT CALLER TO SLEEP
003543:                                                                                                  #  WITH HIS PROPER SUPERBITS.
003544:
003545: 04,2647                                           SETLOC   ENDSPMM    +1
003546: 04,2647                                           COUNT*   $$/PIN
003547: 04,2647           54001        NVSUBSY1           TS       L
003548: 04,2650           04220                           TC       ISCADR+0                              #  ABORT IF CADRSTOR NOT= +0.
003549: 04,2651           04224                           TC       ISLIST+0                              #  ABORT IF DSPLIST NOT= +0.
003550: 04,2652           04374                           TC       RELDSPON
003551: 04,2653           30001                           CA       L
003552: 04,2654           55043                           TS       DSPLIST
003553: 04,2655           05133        ENDNVBSY           TC       JOBSLEEP
003554:
003555:                                                                                                  #  NVSBWAIT IS A SPECIAL ENTRANCE FOR ROUTINES IN FIXED BANKS ONLY. IF
003556:                                                                                                  #  SYSTEM IS NOT BUSY, IT EXECUTES V/N AND RETURNS TO L+1 (L= LOC FROM
003557:                                                                                                  #  WHICH THE TC NVSBWAIT WAS DONE). IF SYSTEM IS BUSY, IT PUTS CALLING JOB
003558:                                                                                                  #  TO SLEEP WITH L-1 GOING INTO LIST FOR EVENTUAL WAKING UP WHEN SYSTEM
003559:                                                                                                  #  IS NOT BUSY.
003560:
003561:    4445                                           SETLOC   NVSUBUSY   +3
003562:    4445                                           COUNT*   $$/PIN
003563:    4445           22007        NVSBWAIT           LXCH     7                                     #  ZERO NVMONOPT OPTIONS
003564:    4446           54123                           TS       NVTEMP
003565:    4447           34736                           CAF      BIT14
003566:    4450           71021                           MASK     MONSAVE1                              #  EXTERNAL MONITOR BIT
003567:    4451           61012                           AD       DSPLOCK
003568:    4452           10000                           CCS      A
003569:    4453           14455                           TCF      NVSBWT1                               #  BUSY
003570:    4454           14164                           TCF      NVSBCOM                               #  FREE. NVSUB WILL SAVE L+1 FOR RETURN
003571:                                                                                                  #  AFTER EXECUTION.
003572:    4455           24002        NVSBWT1            INCR     Q                                     #  L+2. PRENVBSY WILL PUT L-1 INTO LIST AND
003573:    4456           14437                           TCF      PRENVBSY                              #  GO TO SLEEP.
003574:
003575:                                                                                                  #  RELDSP IS USED BY VBPROC, VBTERM, VBRQEXEC, VBRQWAIT, VBRELDSP, EXTENDED
003576:                                                                                                  #  VERB DISPATCHER, VBRESEQ, RECALTST.
003577:                                                                                                  #  RELDSP1 IS USED BY MONITOR SET UP, VBRELDSP.
003578:
003579:    4457           56002        RELDSP             XCH      Q                                     #  SET DSPLOCK TO +0, TURN RELDSP LIGHT
003580:    4460           54144                           TS       RELRET                                #  OFF, SEARCH DSPLIST
003581:    4461           44736                           CS       BIT14
003582:                                                                                                  #  Page 465
003583:    4462           00004                           INHINT
003584:    4463           71021                           MASK     MONSAVE1
003585:    4464           55021                           TS       MONSAVE1                              #  TURN OFF EXTERNAL MONITOR BIT
003586:    4465           11043                           CCS      DSPLIST
003587:    4466           04470                           TC       +2
003588:    4467           04473                           TC       RELDSP2                               #  LIST EMPTY
003589:    4470           34755                           CAF      ZERO
003590:    4471           57043                           XCH      DSPLIST
003591:    4472           05137                           TC       JOBWAKE
003592:    4473           00003        RELDSP2            RELINT
003593:    4474           44747                           CS       BIT5                                  #  TURN OFF KEY RELEASE LIGHT
003594:    4475           00006                           EXTEND                                         #  (BIT 5 OF CHANNEL 11)
003595:    4476           03011                           WAND     DSALMOUT
003596:    4477           34755                           CAF      ZERO
003597:    4500           55012                           TS       DSPLOCK
003598:    4501           00144                           TC       RELRET
003599:    4502           56002        RELDSP1            XCH      Q                                     #  SET DSPLOCK TO +0. NO DSPLIST SEARCH.
003600:    4503           54144                           TS       RELRET                                #  TURN KEY RLSE LIGHT OFF IF DSPLIST IS
003601:                                                                                                  #  EMPTY. LEAVE KEY RLSE LIGHT ALONE IF
003602:                                                                                                  #  DSPLIST IS NOT EMPTY.
003603:    4504           11043                           CCS      DSPLIST
003604:    4505           04507                           TC       +2                                    #  +  NOT EMPTY. LEAVE KEY RLSE LIGHT ALONE.
003605:    4506           04473                           TC       RELDSP2                               #  +0 EMPTY. TURN OFF KEY RLSE LIGHT
003606:    4507           34755                           CAF      ZERO                                  #  -  NOT EMPTY. LEAVE KEY RLSE LIGHT ALONE
003607:    4510           55012                           TS       DSPLOCK
003608:    4511           00144                           TC       RELRET
003609:
003610:    4512                        ENDPINBF           EQUALS
003611:
003612:                                                                                                  #  Page 466
003613:                                                                                                  #  PINTEST IS NEEDED FOR AUTO CHECK OF PINBALL.
003614:
003615:    4512  43,2002               PINTEST            EQUALS   LST2FAN
003616:
003617:                                                                                                  #  Page 467
003618:                                                                                                  #  VBTSTLTS TURNS ON ALL DISPLAY PANEL LIGHTS. AFTER 5 SEC, IT TURNS
003619:                                                                                                  #  OFF THE CAUTION AND STATUS LIGHTS.
003620:
003621: 41,3613                                           SETLOC   ENDNVSB1   +1
003622:
003623: 41,3613                                           COUNT*   $$/PIN
003624: 41,3613           00004        VBTSTLTS           INHINT
003625: 41,3614           44753                           CS       BIT1                                  #  SET BIT 1 OF IMODES33 SO IMUMON WONT
003626: 41,3615           71303                           MASK     IMODES33                              #  TURN OUT ANY LAMPS.
003627: 41,3616           64753                           AD       BIT1
003628: 41,3617           55303                           TS       IMODES33
003629:
003630: 41,3620           33656                           CAF      TSTCON1                               #  TURN ON UPLINK ACTIVITY, TEMP, KEY RLSE,
003631: 41,3621           00006                           EXTEND                                         #  V/N FLASH, OPERATOR ERROR.
003632: 41,3622           05011                           WOR      DSALMOUT
003633: 41,3623           33657                           CAF      TSTCON2                               #  TURN ON NO ATT, GIMBAL LOCK, TRACKER,
003634: 41,3624           55036                           TS       DSPTAB     +11D                       #  PROG ALM.
003635: 41,3625           34742                           CAF      BIT10                                 #  TURN ON TEST ALARM OUTBIT
003636: 41,3626           00006                           EXTEND
003637: 41,3627           05013                           WOR      CHAN13
003638: 41,3630           34363                           CAF      TEN
003639: 41,3631           54117        TSTLTS1            TS       ERCNT
003640: 41,3632           43654                           CS       FULLDSP
003641: 41,3633           50117                           INDEX    ERCNT
003642: 41,3634           55023                           TS       DSPTAB
003643: 41,3635           10117                           CCS      ERCNT
003644: 41,3636           03631                           TC       TSTLTS1
003645: 41,3637           43655                           CS       FULLDSP1
003646: 41,3640           55024                           TS       DSPTAB     +1                         #  TURN ON 3 PLUS SIGNS
003647: 41,3641           55027                           TS       DSPTAB     +4
003648: 41,3642           55031                           TS       DSPTAB     +6
003649: 41,3643           34760                           CAF      ELEVEN
003650: 41,3644           55016                           TS       NOUT
003651: 41,3645           00003                           RELINT
003652: 41,3646           33661                           CAF      SHOLTS
003653: 41,3647           00004                           INHINT
003654: 41,3650           05203                           TC       WAITLIST
003655: 41,3651     1023                                  EBANK=   DSPTAB
003656: 41,3651           03662 62102                     2CADR    TSTLTS2
003657:
003658: 41,3653           05155                           TC       ENDOFJOB                              #  DSPLOCK IS LEFT BUSY (FROM KEYBOARD
003659:                                                                                                  #  ACTION) UNTIL TSTLTS3 TO INSURE THAT
003660:                                                                                                  #  LIGHTS TEST WILL BE SEEN.
003661:
003662: 41,3654           05675        FULLDSP            OCT      05675                                 #  DISPLAY ALL 8'S
003663: 41,3655           07675        FULLDSP1           OCT      07675                                 #  DISPLAY ALL 8'S AND +
003664: 41,3656           00175        TSTCON1            OCT      00175
003665:                                                                                                  #  UPLINK ACTIVITY, TEMP. KEY RLSE,
003666:                                                                                                  #  V/N FLASH, OPERATOR ERROR.
003667:                                                                                                  #  Page 468
003668: 41,3657           40674        TSTCON2            OCT      40674                                 #  DSPTAB+11D BITS 3,4,5,6,8,9 LR LITES,
003669:                                                                                                  #  NO ATT, GIMBAL LOCK, TRACKER, PROG ALM.
003670: 41,3660           00115        TSTCON3            OCT      00115                                 #  CHAN 11 BITS 1, 3, 4, 7.
003671:                                                                                                  #  UPLINK ACITIVY, TEMP, OPERATOR ERROR.
003672: 41,3661           00764        SHOLTS             OCT      764                                   #  5 SEC
003673:
003674: 41,3662           34355        TSTLTS2            CAF      CHRPRIO                               #  CALLED BY WAITLIST
003675: 41,3663           05072                           TC       NOVAC
003676: 41,3664     1023                                  EBANK=   DSPTAB
003677: 41,3664           03667 62102                     2CADR    TSTLTS3
003678:
003679: 41,3666           05261                           TC       TASKOVER
003680:
003681: 41,3667           43660        TSTLTS3            CS       TSTCON3                               #  CALLED BY EXECUTIVE
003682: 41,3670           00004                           INHINT
003683: 41,3671           00006                           EXTEND                                         #  TURN OFF  UPLINK ACTIVITY, TEMP,
003684: 41,3672           03011                           WAND     DSALMOUT                              #  OPERATOR ERROR.
003685: 41,3673           44742                           CS       BIT10                                 #  TURN OFF  TEST ALARM OUTBIT
003686: 41,3674           00006                           EXTEND
003687: 41,3675           03013                           WAND     CHAN13
003688: 41,3676           34750                           CAF      BIT4                                  #  MAKE NO ATT FOLLOW BIT 4 OF CHANNEL 12
003689: 41,3677           00006                           EXTEND                                         #    (NO ATT LIGHT ON IF IN COARSE ALIGN)
003690: 41,3700           02012                           RAND     CHAN12
003691: 41,3701           64735                           AD       BIT15                                 #  TURN OFF AUTO, HOLD, FREE, SPARE,
003692: 41,3702           55036                           TS       DSPTAB     +11D                       #  GIMBAL LOCK, SPARE, TRACKER, PROG ALM
003693: 41,3703           43726                           CS       13-11,1                               #  SET BITS TO INDICATE ALL LAMPS OUT. TEST
003694: 41,3704           71303                           MASK     IMODES33                              #  LIGHTS COMPLETE.
003695: 41,3705           65026                           AD       PRIO16
003696: 41,3706           55303                           TS       IMODES33
003697:
003698: 41,3707           43730                           CS       OCT55000
003699: 41,3710           71302                           MASK     IMODES30
003700: 41,3711           65025                           AD       PRIO15                                #  15000.
003701: 41,3712           55302                           TS       IMODES30
003702:
003703: 41,3713           43727                           CS       RFAILS2
003704: 41,3714           70110                           MASK     RADMODES
003705: 41,3715           64745                           AD       RCDUFBIT
003706: 41,3716           54110                           TS       RADMODES
003707:
003708: 41,3717           00003                           RELINT
003709:
003710: 41,3720           04616                           TC       BANKCALL                              #  REDISPLAY C(MODREG)
003711: 41,3721           10636                           CADR     DSPMM
003712: 41,3722           04204                           TC       KILMONON                              #  TURN ON KILL MONITOR BIT.
003713: 41,3723           04433                           TC       FLASHOFF                              #  TURN OFF V/N FLASH.
003714: 41,3724           04635                           TC       POSTJUMP                              #  DOES RELDSP AND GOES TO PINBRNCH IF
003715: 41,3725           61471                           CADR     TSTLTS4                               #   ENDIDLE IS AWAITING OPERATOR RESPONSE.
003716:                                                                                                  #  Page 469
003717: 41,3726           16001        13-11,1            OCT      16001
003718: 41,3727           00330        RFAILS2            OCT      330                                   #  RADAR CDU AND DATA FAIL FLAGS.
003719: 41,3730           55000        OCT55000           OCT      55000
003720: 41,3731                        ENDPINS2           EQUALS
003721:
003722:                                                                                                  #  Page 470
003723:                                                                                                  #  ERROR LIGHT RESET (RSET) TURNS OFF:
003724:                                                                                                  #  UPLINK ACTIVITY, AUTO, HOLD, FREE, OPERATOR ERROR,
003725:                                                                                                  #  PROG ALM, TRACKER FAIL.
003726:                                                                                                  #  LEAVES GIMBAL LOCK AND NO ATT ALONE.
003727:                                                                                                  #  IT ALSO ZEROS THE 'TEST ALARM' OUT BIT, WHICH TURNS OFF STBY, RESTART.
003728:                                                                                                  #  IT ALSO SETS 'CAUTION RESET' TO 1.
003729:                                                                                                  #  IT ALSO FORCES BIT 12 OF ALL DSPTAB ENTRIES TO 1.
003730:
003731: 40,3603                                           SETLOC   DOPROC     +2
003732: 40,3603                                           COUNT*   $$/PIN
003733: 40,3603           56115        ERROR              XCH      21/22REG                              #  RESTORE ORIGINAL C(DSPLOCK). THUS ERROR
003734: 40,3604           55012                           TS       DSPLOCK                               #  LIGHT RESET LEAVES DSPLOCK UNCHANGED.
003735: 40,3605           00004                           INHINT
003736: 40,3606           34742                           CAF      BIT10                                 #  TURN ON 'CAUTION RESET' OUTBIT
003737: 40,3607           00006                           EXTEND
003738: 40,3610           05011                           WOR      DSALMOUT                              #  BIT10 CHAN 11
003739: 40,3611           33672                           CAF      GL+NOATT                              #  LEAVE GIMBAL LOCK AND NO ATT INTACT,
003740: 40,3612           71036                           MASK     DSPTAB     +11D                       #  TURNING OFF AUTO, HOLD, FREE,
003741: 40,3613           64735                           AD       BIT15                                 #  PROG ALARM, AND TRACKER.
003742: 40,3614           55036                           TS       DSPTAB     +11D
003743: 40,3615           45026                           CS       PRIO16                                #  RESET FAIL BITS WHICH GENERATE PROG
003744: 40,3616           71303                           MASK     IMODES33                              #  ALARM SO THAT IF THE FAILURE STILL
003745: 40,3617           65026                           AD       PRIO16                                #  EXISTS, THE ALARM WILL COME BACK.
003746: 40,3620           55303                           TS       IMODES33
003747: 40,3621           44742                           CS       BIT10
003748: 40,3622           71302                           MASK     IMODES30
003749: 40,3623           64742                           AD       BIT10
003750: 40,3624           55302                           TS       IMODES30
003751:
003752: 40,3625           43671                           CS       RFAILS
003753: 40,3626           70110                           MASK     RADMODES
003754: 40,3627           64745                           AD       RCDUFBIT
003755: 40,3630           54110                           TS       RADMODES
003756:
003757: 40,3631           44742                           CS       BIT10                                 #  TURN OFF 'TEST ALARM' OUTBIT.
003758: 40,3632           00006                           EXTEND
003759: 40,3633           03013                           WAND     CHAN13
003760: 40,3634           43670                           CS       ERCON                                 #  TURN OFF UPLINK ACTIVITY,
003761: 40,3635           00006                           EXTEND                                         #  OPERATOR ERROR.
003762: 40,3636           03011                           WAND     DSALMOUT
003763: 40,3637           34363        TSTAB              CAF      BINCON                                #  (DEC 10)
003764: 40,3640           54117                           TS       ERCNT                                 #  ERCNT = COUNT
003765: 40,3641           00004                           INHINT
003766: 40,3642           50117                           INDEX    ERCNT
003767: 40,3643           11023                           CCS      DSPTAB
003768: 40,3644           64753                           AD       ONE
003769: 40,3645           03652                           TC       ERPLUS
003770: 40,3646           64753                           AD       ONE
003771: 40,3647           40000        ERMINUS            CS       A
003772: 40,3650           73673                           MASK     NOTBIT12
003773:                                                                                                  #  Page 471
003774: 40,3651           03655                           TC       ERCOM
003775: 40,3652           40000        ERPLUS             CS       A
003776: 40,3653           73673                           MASK     NOTBIT12
003777: 40,3654           40000                           CS       A                                     #  MIGHT WANT TO RESET CLPASS, DECBRNCH,
003778: 40,3655           50117        ERCOM              INDEX    ERCNT                                 #  ETC.
003779: 40,3656           55023                           TS       DSPTAB
003780: 40,3657           00003                           RELINT
003781: 40,3660           10117                           CCS      ERCNT
003782: 40,3661           03640                           TC       TSTAB      +1
003783: 40,3662           34755                           CAF      ZERO
003784: 40,3663           54375                           TS       FAILREG
003785: 40,3664           54376                           TS       FAILREG    +1
003786: 40,3665           54377                           TS       FAILREG    +2
003787: 40,3666           55357                           TS       SFAIL
003788: 40,3667           05155                           TC       ENDOFJOB
003789:
003790: 40,3670           00104        ERCON              OCT      104                                   #  CHAN 11 BITS 3,7.
003791:                                                                                                  #  UPLINK ACTIVITY, AND OPERATOR ERROR.
003792: 40,3671           00330        RFAILS             OCT      330                                   #  RADAR CDU AND DATA FAIL FLAGS.
003793: 40,3672           00050        GL+NOATT           OCT      00050                                 #  NO ATT AND GIMBAL LOCK LAMPS
003794: 40,3673           73777        NOTBIT12           OCT      73777
003795:
003796: 40,3674                        ENDPINS1           EQUALS
003797:
003798: 40,3674  30,2000                                  SBANK=   LOWSUPER
003799:

End of include-file PINBALL_GAME_BUTTONS_AND_LIGHTS.agc.  Parent file is MAIN.agc


