
Source Code


000002:                                                                                                  ## Copyright:   Public domain.
000003:                                                                                                  ## Filename:    PINBALL_NOUN_TABLES.agc
000004:                                                                                                  ## Purpose:     Part of the source code for Luminary 1A build 099.
000005:                                                                                                  ##              It is part of the source code for the Lunar Module's (LM)
000006:                                                                                                  ##              Apollo Guidance Computer (AGC), for Apollo 11.
000007:                                                                                                  ## Assembler:   yaYUL
000008:                                                                                                  ## Contact:     Ron Burkey <info@sandroid.org>.
000009:                                                                                                  ## Website:     www.ibiblio.org/apollo.
000010:                                                                                                  ## Pages:       301-319
000011:                                                                                                  ## Mod history:  2009-05-10 SN   (Sergio Navarro).  Started adapting
000012:                                                                                                  ##                              from the Luminary131/ file of the same
000013:                                                                                                  ##                              name, using Luminary099 page images.
000014:                                                                                                  ##              2009-06-07 RSB  Corrected two typos.
000015:                                                                                                  ##              2016-12-13 RSB  Proofed text comments with octopus/ProoferComments
000016:                                                                                                  ##                              and corrected the errors found.
000017:                                                                                                  ##              2017-01-28 RSB  WTIH -> WITH.
000018:                                                                                                  ##              2017-03-07 RSB  Fixed comment-text errors noted while proofing Luminary 116.
000019:                                                                                                  ##              2017-03-16 RSB  Comment-text fixes identified in 5-way
000020:                                                                                                  ##                              side-by-side diff of Luminary 69/99/116/131/210.
000021:                                                                                                  ##                              Changed 360-CDUD to 360-CDUO.
000022:                                                                                                  ##              2017-03-17 RSB  Comment-text fixes identified in diff'ing
000023:                                                                                                  ##                              Luminary 99 vs Comanche 55.
000024:
000025:                                                                                                  ## This source code has been transcribed or otherwise adapted from
000026:                                                                                                  ## digitized images of a hardcopy from the MIT Museum.  The digitization
000027:                                                                                                  ## was performed by Paul Fjeld, and arranged for by Deborah Douglas of
000028:                                                                                                  ## the Museum.  Many thanks to both.  The images (with suitable reduction
000029:                                                                                                  ## in storage size and consequent reduction in image quality as well) are
000030:                                                                                                  ## available online at www.ibiblio.org/apollo.  If for some reason you
000031:                                                                                                  ## find that the images are illegible, contact me at info@sandroid.org
000032:                                                                                                  ## about getting access to the (much) higher-quality images which Paul
000033:                                                                                                  ## actually created.
000034:                                                                                                  ##
000035:                                                                                                  ## Notations on the hardcopy document read, in part:
000036:                                                                                                  ##
000037:                                                                                                  ##      Assemble revision 001 of AGC program LMY99 by NASA 2021112-61
000038:                                                                                                  ##      16:27 JULY 14, 1969
000039:


000041:                                                                                                  #  THE FOLLOWING REFERS TO THE NOUN TABLES
000042:
000043:                                                                                                  #  COMPONENT CODE NUMBER         INTERPRETATION
000044:
000045:                                                                                                  #        00000                   1 COMPONENT
000046:                                                                                                  #        00001                   2 COMPONENT
000047:                                                                                                  #        00010                   3 COMPONENT
000048:                                                                                                  #        X1XXX                   BIT 4 = 1.  DECIMAL ONLY
000049:                                                                                                  #        1XXXX                   BIT 5 = 1.  NO LOAD
000050:                                                                                                  #  END OF COMPONENT CODE NUMBERS
000051:
000052:                                                                                                  #  SF ROUTINE CODE NUMBER        INTERPRETATION
000053:
000054:                                                                                                  #        00000                   OCTAL ONLY
000055:                                                                                                  #        00001                   STRAIGHT FRACTIONAL
000056:                                                                                                  #        00010                   CDU DEGREES (XXX.XX)
000057:                                                                                                  #        00011                   ARITHMETIC SF
000058:                                                                                                  #        00100                   ARITH DP1       OUT (MULT BY 2EXP14 AT END)     IN (STRAIGHT)
000059:                                                                                                  #        00101                   ARITH DP2       OUT (STRAIGHT)                  IN (SL 7 AT END)
000060:                                                                                                  #        00110                   LANDING RADAR POSITION (+0000X)
000061:                                                                                                  #        00111                   ARITH DP3       OUT (SL 7 AT END)               IN (STRAIGHT)
000062:                                                                                                  #        01000                   WHOLE HOURS IN R1, WHOLE MINUTES (MOD 60) IN R2,
000063:                                                                                                  #                                        SECONDS (MOD 60) 0XX.XX IN R3.  *** ALARMS IF USED WITH OCTAL
000064:                                                                                                  #        01001                   MINUTES (MOD 60) IN D1D2, D3 BLANK, SECONDS (MOD 60) IN D4D5
000065:                                                                                                  #                                        LIMITS TO 59B59 IF MAG EXCEEDS THIS VALUE.
000066:                                                                                                  #                                        ALARMS IF USED WITH OCTAL ******** IN (ALARM)
000067:                                                                                                  #        01010                   ARITH DP4       OUT (STRAIGHT)                  IN (SL 3 AT END)
000068:                                                                                                  #        01011                   ARITH1 SF       OUT (MULT BY 2EXP14 AT END)     IN (STRAIGHT)
000069:                                                                                                  #        01100                   2 INTEGERS IN D1D2, D4D5, D3 BLANK.
000070:                                                                                                  #                                        ALARMS IF USED WITH OCTAL ******** IN (ALARM)
000071:                                                                                                  #        01101                   360-CDU DEGREES (XXX.XX)
000072:
000073:                                                                                                  #  END OF SF ROUTINE CODE NUMBERS
000074:
000075:                                                                                                  #  SF CONSTANT CODE NUMBER       INTERPRETATION
000076:
000077:                                                                                                  #        00000                   WHOLE                           USE ARITH
000078:                                                                                                  #        00000                   DP TIME SEC (XXX.XX SEC)        USE ARITHDP1
000079:                                                                                                  #        00000                   LR POSITION (+0000X)            USE LR POSITION
000080:                                                                                                  #        00001                   SPARE
000081:                                                                                                  #        00010                   CDU DEGREES                     USE CDU DEGREES
000082:                                                                                                  #        00010                   360-CDU DEGREES                 USE 360-CDU DEGREES
000083:                                                                                                  #        00011                   DP DEGREES (90) XX.XXX DEG      USE ARITHDP3
000084:                                                                                                  #        00100                   DP DEGREES (360) XXX.XX DEG     USE ARITHDP4
000085:                                                                                                  #        00101                   DEGREES (180) XXX.XX DEG        USE ARITH
000086:                                                                                                  #        00101                   OPTICAL TRACKER AZIMUTH ANGLE (XXX.XXDEG)
000087:                                                                                                  #                                                                USE ARITHDP1
000088:                                                                                                  #        00110                   WEIGHT2 (XXXXX. LBS)            USE ARITH1


000090:                                                                                                  #        00111                   POSITION5 (XXX.XX NAUTICAL MILES)
000091:                                                                                                  #                                                                USE ARITHDP3
000092:                                                                                                  #        01000                   POSITION4 (XXXX.X NAUTICAL MILES)
000093:                                                                                                  #                                                                USE ARITHDP3
000094:                                                                                                  #        01001                   VELOCITY2 (XXXXX. FT/SEC)       USE ARITHDP4
000095:                                                                                                  #        01010                   VELOCITY3 (XXXX.X FT/SEC)       USE ARITHDP3
000096:                                                                                                  #        01011                   ELEVATION DEGREES (89.999 MAX)  USE ARITH
000097:                                                                                                  #        01100                   RENDEZVOUS RADAR RANGE (XXX.XX NAUT MI)
000098:                                                                                                  #                                                                USE ARITHDP1
000099:                                                                                                  #        01101                   RENDEZVOUS RADAR RANGE RATE (XXXXX.FT/SEC
000100:                                                                                                  #                                                                USE ARITHDP1
000101:                                                                                                  #        01110                   LANDING RADAR ALTITUDE (XXXXX.FEET)
000102:                                                                                                  #                                                                USE ARITHDP1
000103:                                                                                                  #        01111                   INITIAL/FINAL ALTITUDE (XXXXX. FEET)
000104:                                                                                                  #                                                                USE ARITHDP1
000105:                                                                                                  #        10000                   ALTITUDE RATE (XXXXX.FT/SEC)    USE ARITH
000106:                                                                                                  #        10001                   FORWARD/LATERAL VELOCITY (XXXXX.FEET/SEC)
000107:                                                                                                  #                                                                USE ARITH
000108:                                                                                                  #        10010                   ROTATIONAL HAND CONTROLLER ANGLE RATES
000109:                                                                                                  #                                        XXXXX.DEG/SEC           USE ARITH
000110:                                                                                                  #        10011                   LANDING RADAR VELX (XXXXX.FEET/SEC)
000111:                                                                                                  #                                                                USE ARITHDP1
000112:                                                                                                  #        10100                   LANDING RADAR VELY (XXXXX.FEET/SEC)
000113:                                                                                                  #                                                                USE ARITHDP1
000114:                                                                                                  #        10101                   LANDING RADAR VELZ (XXXXX.FEET/SEC)
000115:                                                                                                  #                                                                USE ARITHDP1
000116:                                                                                                  #        10110                   POSITION7 (XXXX.X NAUT MI)      USE ARITHDP4
000117:                                                                                                  #        10111                   TRIM DEGREES2 (XXX.XX DEG)      USE ARITH
000118:                                                                                                  #        11000                   COMPUTED ALTITUDE (XXXXX. FEET)
000119:                                                                                                  #                                                                USE ARITHDP1
000120:                                                                                                  #        11001                   DP DEGREES (XXXX.X DEG)         USE ARITHDP3
000121:                                                                                                  #        11010                   POSITION9 (XXXXX. FT)           USE ARITHDP3
000122:                                                                                                  #        11011                   VELOCITY4 (XXXX.X FT/SEC)       USE ARITHDP2
000123:                                                                                                  #        11100                   RADIANS (XX.XXX RADIANS)        USE ARITHDP4
000124:
000125:                                                                                                  #  END OF SF CONSTANT CODE NUMBERS
000126:
000127:                                                                                                  #  FOR GREATER THAN SINGLE PRECISION SCALES, PUT ADDRESS OF MAJOR PART INTO
000128:                                                                                                  #  NOUN TABLES.
000129:
000130:                                                                                                  #  OCTAL LOADS PLACE +0 INTO MAJOR PART, DATA INTO MINOR PART.
000131:
000132:                                                                                                  #  OCTAL DISPLAYS SHOW MINOR PART ONLY.
000133:
000134:                                                                                                  #  TO GET AT BOTH MAJOR AND MINOR PARTS (IN OCTAL), USE NOUN 01.
000135:
000136:                                                                                                  #  A NOUN MAY BE DECLARED :DECIMAL ONLY: BY MAKING BIT4=1 OF ITS COMPONENT
000137:                                                                                                  #  CODE NUMBER.  IF THIS NOUN IS USED WITH ANY OCTAL DISPLAY VERB, OR IF
000138:                                                                                                  #  DATA IS LOADED IN OCTAL, IT ALARMS.
000139:
000140:
000141:                                                                                                  #  IN LOADING AN :HOURS, MINUTES, SECONDS: NOUN, ALL 3 WORDS MUST BE
000142:                                                                                                  #  LOADED, OR ALARM.
000143:


000145:
000146:                                                                                                  #  ALARM IF AN ATTEMPT IS MADE TO LOAD :SPLIT MINUTES/SECONDS: (MMBSS).
000147:                                                                                                  #  THIS IS USED FOR DISPLAY ONLY.
000148:


000150:                                                                                                  #  THE FOLLOWING ROUTINES ARE FOR READING THE NOUN TABLES AND THE SF TABLES
000151:                                                                                                  #  (WHICH ARE IN A SEPARATE BANK FROM THE REST OF PINBALL).  THESE READING
000152:                                                                                                  #  ROUTINES ARE IN THE SAME BANK AS THE TABLES.  THEY ARE CALLED BY DXCH Z.
000153:
000154:                                                                                                  #  LODNNTAB LOADS NNADTEM WITH THE NNADTAB ENTRY, NNTYPTEM WITH THE
000155:                                                                                                  #  NNTYPTAB ENTRY.  IF THE NOUN IS MIXED, IDAD1TEM IS LOADED WITH THE FIRST
000156:                                                                                                  #  IDADDTAB ENTRY, IDAD2TEM THE SECOND IDADDTAB ENTRY, IDAD3TEM THE THIRD
000157:                                                                                                  #  IDADDTAB ENTRY, RUTMXTEM WITH THE RUTMXTAB ENTRY.  MIXBR IS SET FOR
000158:                                                                                                  #  MIXED OR NORMAL NOUN.
000159:
000160: 06,3263                                           BANK     6
000161: 42,2000                                           SETLOC   PINBALL3
000162: 42,2000                                           BANK
000163: 42,2103                                           COUNT*   $$/NOUNS
000164: 42,2103           52152        LODNNTAB           DXCH     IDAD2TEM                              #  SAVE RETURN INFO IN IDAD2TEM, IDAD3TEM.
000165: 42,2104           51002                           INDEX    NOUNREG
000166: 42,2105           32154                           CAF      NNADTAB
000167: 42,2106           54146                           TS       NNADTEM
000168: 42,2107           51002                           INDEX    NOUNREG
000169: 42,2110           32320                           CAF      NNTYPTAB
000170: 42,2111           54147                           TS       NNTYPTEM
000171: 42,2112           41002                           CS       NOUNREG
000172: 42,2113           64771                           AD       MIXCON
000173: 42,2114           00006                           EXTEND
000174: 42,2115           62121                           BZMF     LODMIXNN                              #  NOUN NUMBER G/E FIRST MIXED NOUN
000175: 42,2116           34753                           CAF      ONE                                   #  NOUN NUMBER L/ FIRST MIXED NOUN
000176: 42,2117           54140                           TS       MIXBR                                 #  NORMAL.  +1 INTO MIXBR.
000177: 42,2120           02137                           TC       LODNLV
000178: 42,2121           34752        LODMIXNN           CAF      TWO                                   #  MIXED.  +2 INTO MIXBR.
000179: 42,2122           54140                           TS       MIXBR
000180: 42,2123           51002                           INDEX    NOUNREG
000181: 42,2124           33064                           CAF      RUTMXTAB   -40D                       #  FIRST MIXED NOUN = 40.
000182: 42,2125           54153                           TS       RUTMXTEM
000183: 42,2126           35012                           CAF      LOW10
000184: 42,2127           70146                           MASK     NNADTEM
000185: 42,2130           54002                           TS       Q                                     #  TEMP
000186: 42,2131           50000                           INDEX    A
000187: 42,2132           32650                           CAF      IDADDTAB
000188: 42,2133           54150                           TS       IDAD1TEM                              #  LOAD IDAD1TEM WITH FIRST IDADDTAB ENTRY
000189: 42,2134           00006                           EXTEND
000190: 42,2135           50002                           INDEX    Q                                     #  LOAD IDAD2TEM WITH 2ND IDADDTAB ENTRY
000191: 42,2136           32652                           DCA      IDADDTAB   +1                         #  LOAD IDAD3TEM WITH 3RD IDADDTAB ENTRY.
000192: 42,2137           52152        LODNLV             DXCH     IDAD2TEM                              #  PUT RETURN INFO INTO A, L.
000193: 42,2140           52006                           DXCH     Z
000194:
000195: 42,2141     4771               MIXCON             =        OCT50                                 #  (DEC 40)
000196:
000197:                                                                                                  #  GTSFOUT LOADS SFTEMP1, SFTEMP2 WITH THE DP SFOUTAB ENTRIES.
000198:
000199: 42,2141           52124        GTSFOUT            DXCH     SFTEMP1                               #  2X(SFCONUM) ARRIVES IN SFTEMP1.


000201: 42,2142           00006                           EXTEND
000202: 42,2143           50000                           INDEX    A
000203: 42,2144           32557                           DCA      SFOUTAB
000204: 42,2145           52124        SFCOM              DXCH     SFTEMP1
000205: 42,2146           52006                           DXCH     Z
000206:
000207:                                                                                                  #  GTSFIN LOADS SFTEMP1, SFTEMP2 WITH THE DP SFINTAB ENTRIES.
000208:
000209: 42,2147           52124        GTSFIN             DXCH     SFTEMP1                               #  2X(SFCONUM) ARRIVES IN SFTEMP1.
000210: 42,2150           00006                           EXTEND
000211: 42,2151           50000                           INDEX    A
000212: 42,2152           32465                           DCA      SFINTAB
000213: 42,2153           12145                           TCF      SFCOM
000214:
000215:                                                                                                  #  NN    NORMAL NOUNS
000216: 42,2154           00000        NNADTAB            OCT      00000                                 #  00    NOT IN USE
000217: 42,2155           40000                           OCT      40000                                 #  01    SPECIFY MACHINE ADDRESS (FRACTIONAL)
000218: 42,2156           40000                           OCT      40000                                 #  02    SPECIFY MACHINE ADDRESS (WHOLE)
000219: 42,2157           40000                           OCT      40000                                 #  03    SPECIFY MACHINE ADDRESS (DEGREES)
000220: 42,2160           01045                           ECADR    DSPTEM1                               #  04    ANGULAR ERROR/DIFFERENCE
000221: 42,2161           01045                           ECADR    DSPTEM1                               #  05    ANGULAR ERROR/DIFFERENCE
000222: 42,2162           01144                           ECADR    OPTION1                               #  06    OPTION CODE
000223: 42,2163           01003                           ECADR    XREG                                  #  07    ECADR OF WORD TO BE MODIFIED
000224:                                                                                                  #        ONES FOR BITS TO BE MODIFIED
000225:                                                                                                  #        1 TO SET OR 0 TO RESET SELECTED BITS
000226: 42,2164           01363                           ECADR    ALMCADR                               #  08    ALARM DATA
000227: 42,2165           00375                           ECADR    FAILREG                               #  09    ALARM CODES
000228: 42,2166           77776                           OCT      77776                                 #  10    CHANNEL TO BE SPECIFIED
000229: 42,2167           03633                           ECADR    TCSI                                  #  11    TIG OF CSI (HRS,MIN,SEC)
000230: 42,2170           01051                           ECADR    OPTIONX                               #  12    OPTION CODE
000231:                                                                                                  #        (USED BY EXTENDED VERBS ONLY)
000232: 42,2171           01776                           ECADR    TCDH                                  #  13    TIG OF CDH (HRS,MIN,SEC)
000233: 42,2172           01051                           ECADR    DSPTEMX                               #  14    CHECKLIST
000234:                                                                                                  #        (USED BY EXTENDED VERBS ONLY)
000235: 42,2173           77777                           OCT      77777                                 #  15    INCREMENT MACHINE ADDRESS
000236: 42,2174           01051                           ECADR    DSPTEMX                               #  16    TIME OF EVENT (HRS,MIN,SEC)
000237: 42,2175           00000                           OCT      00000                                 #  17    SPARE
000238: 42,2176           02344                           ECADR    FDAIX                                 #  18    AUTO MANEUVER BALL ANGLES
000239: 42,2177           00000                           OCT      00000                                 #  19    SPARE
000240: 42,2200           00032                           ECADR    CDUX                                  #  20    ICDU ANGLES
000241: 42,2201           00037                           ECADR    PIPAX                                 #  21    PIPAS
000242: 42,2202           00321                           ECADR    THETAD                                #  22    NEW ICDU ANGLES
000243: 42,2203           00000                           OCT      00000                                 #  23    SPARE
000244: 42,2204           01051                           ECADR    DSPTEM2    +1                         #  24    DELTA TIME FOR AGC CLOCK (HRS,MIN,SEC)
000245: 42,2205           01045                           ECADR    DSPTEM1                               #  25    CHECKLIST
000246:                                                                                                  #        (USED WITH PLEASE PERFORM ONLY)
000247: 42,2206           01045                           ECADR    DSPTEM1                               #  26    PRIO/DELAY, ADRES, BBCON
000248: 42,2207           01362                           ECADR    SMODE                                 #  27    SELF TEST ON/OFF SWITCH


000250: 42,2210           00000                           OCT      00000                                 #  28    SPARE
000251: 42,2211           00000                           OCT      00000                                 #  29    SPARE
000252: 42,2212           00000                           OCT      0                                     #  30    SPARE
000253: 42,2213           00000                           OCT      0                                     #  31    SPARE
000254: 42,2214           02142                           ECADR    -TPER                                 #  32    TIME TO PERIGEE (HRS,MIN,SEC)
000255: 42,2215           03441                           ECADR    TIG                                   #  33    TIME OF IGNITION (HRS,MIN(SEC)
000256: 42,2216           01045                           ECADR    DSPTEM1                               #  34    TIME OF EVENT (HRS,MIN,SEC)
000257: 42,2217           03453                           ECADR    TTOGO                                 #  35    TIME TO GO TO EVENT (HRS,MIN,SEC)
000258: 42,2220           00024                           ECADR    TIME2                                 #  36    TIME OF AGC CLOCK (HRS,MIN,SEC)
000259: 42,2221           03635                           ECADR    TTPI                                  #  37    TIG OF TPI (HRS,MIN,SEC)
000260: 42,2222           01516                           ECADR    TET                                   #  38    TIME OF STATE BEING INTEGRATED
000261: 42,2223           00000                           OCT      00000                                 #  39    SPARE
000262:
000263:                                                                                                  #  END OF NNADTAB FOR NORMAL NOUNS
000264:
000265:                                                                                                  #  NN    MIXED NOUNS
000266: 42,2224           64000                           OCT      64000                                 #  40    TIME TO IGNITION/CUTOFF
000267:                                                                                                  #        VG
000268:                                                                                                  #        DELTA V (ACCUMULATED)
000269: 42,2225           02003                           OCT      02003                                 #  41    TARGET  AZIMUTH
000270:                                                                                                  #                ELEVATION
000271: 42,2226           24006                           OCT      24006                                 #  42    APOGEE
000272:                                                                                                  #        PERIGEE
000273:                                                                                                  #        DELTA V (REQUIRED)
000274: 42,2227           24011                           OCT      24011                                 #  43    LATITUDE
000275:                                                                                                  #        LONGITUDE
000276:                                                                                                  #        ALTITUDE
000277: 42,2230           64014                           OCT      64014                                 #  44    APOGEE
000278:                                                                                                  #        PERIGEE
000279:                                                                                                  #        TFF
000280: 42,2231           64017                           OCT      64017                                 #  45    MARKS
000281:                                                                                                  #        TTI OF NEXT BURN
000282:                                                                                                  #        MGA
000283: 42,2232           00022                           OCT      00022                                 #  46    AUTOPILOT CONFIGURATION
000284: 42,2233           22025                           OCT      22025                                 #  47    LEM WEIGHT
000285:                                                                                                  #        CSM WEIGHT
000286: 42,2234           22030                           OCT      22030                                 #  48    GIMBAL PITCH TRIM
000287:                                                                                                  #        GIMBAL ROLL TRIM
000288: 42,2235           24033                           OCT      24033                                 #  49    DELTA R
000289:                                                                                                  #        DELTA V
000290:                                                                                                  #        RADAR DATA SOURCE CODE
000291: 42,2236           00000                           OCT      0                                     #  50    SPARE
000292: 42,2237           22041                           OCT      22041                                 #  51    S-BAND ANTENNA  PITCH
000293:                                                                                                  #                        YAW
000294: 42,2240           00044                           OCT      00044                                 #  52    CENTRAL ANGLE OF ACTIVE VEHICLE
000295: 42,2241           00000                           OCT      00000                                 #  53    SPARE
000296: 42,2242           24052                           OCT      24052                                 #  54    RANGE
000297:                                                                                                  #        RANGE RATE
000298:                                                                                                  #        THETA
000299: 42,2243           24055                           OCT      24055                                 #  55    NO. OF APSIDAL CROSSINGS


000301:                                                                                                  #        ELEVATION ANGLE
000302:                                                                                                  #        CENTRAL ANGLE
000303: 42,2244           02060                           OCT      02060                                 #  56    RR LOS  AZIMUTH
000304:                                                                                                  #                ELEVATION
000305: 42,2245           20063                           OCT      20063                                 #  57    DELTA R
000306: 42,2246           24066                           OCT      24066                                 #  58    PERIGEE ALT
000307:                                                                                                  #        DELTA V TPI
000308:                                                                                                  #        DELTA V TPF
000309: 42,2247           24071                           OCT      24071                                 #  59    DELTA VELOCITY LOS
000310: 42,2250           24074                           OCT      24074                                 #  60    HORIZONTAL VELOCITY
000311:                                                                                                  #        ALTITUDE RATE
000312:                                                                                                  #        COMPUTED ALTITUDE
000313: 42,2251           64077                           OCT      64077                                 #  61    TIME TO GO IN BRAKING PHASE
000314:                                                                                                  #        TIME TO IGNITION
000315:                                                                                                  #        CROSS RANGE DISTANCE
000316: 42,2252           64102                           OCT      64102                                 #  62    ABSOLUTE VALUE OF VELOCITY
000317:                                                                                                  #        TIME TO IGNITION
000318:                                                                                                  #        DELTA V (ACCUMULATED)
000319: 42,2253           24105                           OCT      24105                                 #  63    ABSOLUTE VALUE OF VELOCITY
000320:                                                                                                  #        ALTITUDE RATE
000321:                                                                                                  #        COMPUTED ALTITUDE
000322: 42,2254           64110                           OCT      64110                                 #  64    TIME LEFT FOR REDESIGNATION - LPD ANGLE
000323:                                                                                                  #        ALTITUDE RATE
000324:                                                                                                  #        COMPUTED ALTITUDE
000325: 42,2255           24113                           OCT      24113                                 #  65    SAMPLED AGC TIME (HRS,MIN,SEC)
000326:                                                                                                  #        (FETCHED IN INTERRUPT)
000327: 42,2256           62116                           OCT      62116                                 #  66    LR      RANGE
000328:                                                                                                  #                POSITION
000329: 42,2257           04121                           OCT      04121                                 #  67    LRVX
000330:                                                                                                  #        LRVY
000331:                                                                                                  #        LRVZ
000332: 42,2260           64124                           OCT      64124                                 #  68    SLANT RANGE TO LANDING SIGHT
000333:                                                                                                  #        TIME TO GO IN BRAKING PHASE
000334:                                                                                                  #        LR ALTITUDE - COMPUTED ALTITUDE
000335: 42,2261           00000                           OCT      00000                                 #  69    SPARE
000336: 42,2262           04132                           OCT      04132                                 #  70    AOT DETENT CODE/STAR CODE
000337: 42,2263           04135                           OCT      04135                                 #  71    AOT DETENT CODE/STAR CODE
000338: 42,2264           02140                           OCT      02140                                 #  72    RR      360 - TRUNNION ANGLE
000339:                                                                                                  #                SHAFT ANGLE
000340: 42,2265           02143                           OCT      02143                                 #  73    NEW RR  360 - TRUNNION ANGLE
000341:                                                                                                  #                SHAFT ANGLE
000342: 42,2266           64146                           OCT      64146                                 #  74    TIME TO IGNITION
000343:                                                                                                  #        YAWAFTER VEHICLE RISE
000344:                                                                                                  #        PITCH AFTER VEHICLE RISE
000345: 42,2267           64151                           OCT      64151                                 #  75    DELTA ALTITUDE CDH
000346:                                                                                                  #        DELTA TIME (CDH-CSI OR TPI-CDH)
000347:                                                                                                  #        DELTA TIME (TPI-CDH OR TPI-NOMTPI)
000348: 42,2270           24154                           OCT      24154                                 #  76    DESIRED HORIZONTAL VELOCITY
000349:                                                                                                  #        DESIRED RADIAL VELOCITY
000350:                                                                                                  #        CROSS-RANGE DISTANCE


000352: 42,2271           62157                           OCT      62157                                 #  77    TIME TO ENGINE CUTOFF
000353:                                                                                                  #        VELOCITY NORMAL TO CSM PLANE
000354: 42,2272           02162                           OCT      02162                                 #  78    RR      RANGE
000355:                                                                                                  #                RANGE RATE
000356: 42,2273           24165                           OCT      24165                                 #  79    CURSOR ANGLE
000357:                                                                                                  #        SPIRAL ANGLE
000358:                                                                                                  #        POSITION CODE
000359: 42,2274           02170                           OCT      02170                                 #  80    DATA INDICATOR
000360:                                                                                                  #        OMEGA
000361: 42,2275           24173                           OCT      24173                                 #  81    DELTA V (LV)
000362: 42,2276           24176                           OCT      24176                                 #  82    DELTA V (LV)
000363: 42,2277           24201                           OCT      24201                                 #  83    DELTA V (BODY)
000364: 42,2300           24204                           OCT      24204                                 #  84    DELTA V (OTHER VEHICLE)
000365: 42,2301           24207                           OCT      24207                                 #  85    VG (BODY)
000366: 42,2302           24212                           OCT      24212                                 #  86    VG (LV)
000367: 42,2303           02215                           OCT      02215                                 #  87    BACKUP OPTICS LOS       AZIMUTH
000368:                                                                                                  #                                ELEVATION
000369: 42,2304           24220                           OCT      24220                                 #  88    HALF UNIT SUN OR PLANET VECTOR
000370: 42,2305           24223                           OCT      24223                                 #  89    LANDMARK        LATITUDE
000371:                                                                                                  #                        LONGITUDE/2
000372:                                                                                                  #                        ALTITUDE
000373: 42,2306           24226                           OCT      24226                                 #  90    Y
000374:                                                                                                  #        Y DOT
000375:                                                                                                  #        PSI
000376: 42,2307           04231                           OCT      04231                                 #  91    ALTITUDE
000377:                                                                                                  #        VELOCITY
000378:                                                                                                  #        FLIGHT PATH ANGLE
000379: 42,2310           00000                           OCT      00000                                 #  92    SPARE
000380: 42,2311           04237                           OCT      04237                                 #  93    DELTA GYRO ANGLES
000381: 42,2312           00000                           OCT      00000                                 #  94    SPARE
000382: 42,2313           00000                           OCT      0                                     #  95    SPARE
000383: 42,2314           00000                           OCT      0                                     #  96    SPARE
000384: 42,2315           04253                           OCT      04253                                 #  97    SYSTEM TEST INPUTS
000385: 42,2316           04256                           OCT      04256                                 #  98    SYSTEM TEST RESULTS
000386: 42,2317           24261                           OCT      24261                                 #  99    RMS IN POSITION
000387:                                                                                                  #        RMS IN VELOCITY
000388:                                                                                                  #        RMS IN BIAS
000389:
000390:                                                                                                  #  END OF NNADTAB FOR MIXED NOUNS
000391:
000392:                                                                                                  #  NN    NORMAL NOUNS
000393: 42,2320           00000        NNTYPTAB           OCT      00000                                 #  00    NOT IN USE
000394: 42,2321           04040                           OCT      04040                                 #  01    3COMP FRACTIONAL
000395: 42,2322           04140                           OCT      04140                                 #  02    3COMP WHOLE
000396: 42,2323           04102                           OCT      04102                                 #  03    3COMP CDU DEGREES
000397: 42,2324           00504                           OCT      00504                                 #  04    1COMP DPDEG(360)
000398: 42,2325           00504                           OCT      00504                                 #  05    1COMP DPDEG(360)
000399: 42,2326           04000                           OCT      04000                                 #  06    3COMP OCTAL ONLY
000400: 42,2327           04000                           OCT      04000                                 #  07    3COMP OCTAL ONLY
000401: 42,2330           04000                           OCT      04000                                 #  08    3COMP OCTAL ONLY


000403: 42,2331           04000                           OCT      04000                                 #  09    3COMP OCTAL ONLY
000404: 42,2332           00000                           OCT      00000                                 #  10    1COMP OCTAL ONLY
000405: 42,2333           24400                           OCT      24400                                 #  11    3COMP HMS (DEC ONLY)
000406: 42,2334           02000                           OCT      02000                                 #  12    2COMP OCTAL ONLY
000407: 42,2335           24400                           OCT      24400                                 #  13    3COMP HMS (DEC ONLY)
000408: 42,2336           04140                           OCT      04140                                 #  14    3COMP WHOLE
000409: 42,2337           00000                           OCT      00000                                 #  15    1COMP OCTAL ONLY
000410: 42,2340           24400                           OCT      24400                                 #  16    3COMP HMS (DEC ONLY)
000411: 42,2341           00000                           OCT      0                                     #  17    SPARE
000412: 42,2342           04102                           OCT      04102                                 #  18    3COMP CDU DEG
000413: 42,2343           00000                           OCT      00000                                 #  19    SPARE
000414: 42,2344           04102                           OCT      04102                                 #  20    3COMP CDU DEGREES
000415: 42,2345           04140                           OCT      04140                                 #  21    3COMP WHOLE
000416: 42,2346           04102                           OCT      04102                                 #  22    3COMP CDU DEGREES
000417: 42,2347           00000                           OCT      00000                                 #  23    SPARE
000418: 42,2350           24400                           OCT      24400                                 #  24    3COMP HMS (DEC ONLY)
000419: 42,2351           04140                           OCT      04140                                 #  25    3COMP WHOLE
000420: 42,2352           04000                           OCT      04000                                 #  26    3COMP OCTAL ONLY
000421: 42,2353           00140                           OCT      00140                                 #  27    1COMP WHOLE
000422: 42,2354           00000                           OCT      00000                                 #  28    SPARE
000423: 42,2355           00000                           OCT      00000                                 #  29    SPARE
000424: 42,2356           00000                           OCT      0                                     #  30    SPARE
000425: 42,2357           00000                           OCT      0                                     #  31    SPARE
000426: 42,2360           24400                           OCT      24400                                 #  32    3COMP HMS (DEC ONLY)
000427: 42,2361           24400                           OCT      24400                                 #  33    3COMP HMS (DEC ONLY)
000428: 42,2362           24400                           OCT      24400                                 #  34    3COMP HMS (DEC ONLY)
000429: 42,2363           24400                           OCT      24400                                 #  35    3COMP HMS (DEC ONLY)
000430: 42,2364           24400                           OCT      24400                                 #  36    3COMP HMS (DEC ONLY)
000431: 42,2365           24400                           OCT      24400                                 #  37    3COMP HMS (DEC ONLY)
000432: 42,2366           24400                           OCT      24400                                 #  38    3COMP HMS (DEC ONLY)
000433: 42,2367           00000                           OCT      00000                                 #  39    SPARE
000434:
000435:                                                                                                  #  END OF NNTYPTAB FOR NORMAL NOUNS
000436:
000437:                                                                                                  #  NN    MIXED NOUNS
000438: 42,2370           24500                           OCT      24500                                 #  40    3COMP   MIN/SEC, VEL3, VEL3
000439:                                                                                                  #                (NO LOAD, DEC ONLY)
000440: 42,2371           00542                           OCT      00542                                 #  41    2COMP   CDU DEG, ELEV DEG
000441: 42,2372           24410                           OCT      24410                                 #  42    3COMP   POS4, POS4, VEL3
000442:                                                                                                  #                (DEC ONLY)
000443: 42,2373           20204                           OCT      20204                                 #  43    3COMP   DPDEG(360), DPDEG(360), POS4
000444:                                                                                                  #                (DEC ONLY)
000445: 42,2374           00410                           OCT      00410                                 #  44    3COMP   POS4, POS4, MIN/SEC
000446:                                                                                                  #                (NO LOAD, DEC ONLY)
000447: 42,2375           10000                           OCT      10000                                 #  45    3COMP   WHOLE, MIN/SEC, DPDEG(360)
000448:                                                                                                  #                (NO LOAD, DEC ONLY)
000449: 42,2376           00000                           OCT      00000                                 #  46    1COMP   OCTAL ONLY
000450: 42,2377           00306                           OCT      00306                                 #  47    2COMP   WEIGHT2 FOR EACH
000451:                                                                                                  #                (DEC ONLY)
000452: 42,2400           01367                           OCT      01367                                 #  48    2COMP   TRIM DEG2 FOR EACH


000454:                                                                                                  #                (DEC ONLY)
000455: 42,2401           00510                           OCT      00510                                 #  49    3COMP   POS4, VEL3, WHOLE
000456:                                                                                                  #                (DEC ONLY)
000457: 42,2402           00000                           OCT      0                                     #  50    SPARE
000458: 42,2403           00204                           OCT      00204                                 #  51    2COMP   DPDEG(360), DPDEG(360)
000459:                                                                                                  #                (DEC ONLY)
000460: 42,2404           00004                           OCT      00004                                 #  52    1COMP   DPDEG(360)
000461: 42,2405           00000                           OCT      00000                                 #  53    SPARE
000462: 42,2406           10507                           OCT      10507                                 #  54    3COMP   POS5, VEL3, DPDEG(360)
000463:                                                                                                  #                (DEC ONLY)
000464: 42,2407           10200                           OCT      10200                                 #  55    3COMP   WHOLE, DPDEG(360), DPDEG(360)
000465:                                                                                                  #                (DEC ONLY)
000466: 42,2410           00204                           OCT      00204                                 #  56    2COMP   DPDEG(360), DPDEG(360)
000467: 42,2411           00010                           OCT      00010                                 #  57    1COMP   POS4
000468:                                                                                                  #                (DEC ONLY)
000469: 42,2412           24510                           OCT      24510                                 #  58    3COMP   POS4, VEL3, VEL3
000470:                                                                                                  #                (DEC ONLY)
000471: 42,2413           24512                           OCT      24512                                 #  59    3COMP   VEL3 FOR EACH
000472:                                                                                                  #                (DEC ONLY)
000473: 42,2414           60512                           OCT      60512                                 #  60    3COMP   VEL3, VEL3, COMP ALT
000474:                                                                                                  #                (DEC ONLY)
000475: 42,2415           54000                           OCT      54000                                 #  61    3COMP   MIN/SEC, MIN/SEC, POS7
000476:                                                                                                  #                (NO LOAD, DEC ONLY)
000477: 42,2416           24012                           OCT      24012                                 #  62    3COMP   VEL3, MIN/SEC, VEL3
000478:                                                                                                  #                (NO LOAD, DEC ONLY)
000479: 42,2417           60512                           OCT      60512                                 #  63    3COMP   VEL3, VEL3, COMP ALT
000480:                                                                                                  #                (DEC ONLY)
000481: 42,2420           60500                           OCT      60500                                 #  64    3COMP   2INT, VEL3, COMP ALT
000482:                                                                                                  #                (NO LOAD, DEC ONLY)
000483: 42,2421           00000                           OCT      00000                                 #  65    3COMP   HMS (DEC ONLY)
000484: 42,2422           00016                           OCT      00016                                 #  66    2COMP   LANDING RADAR ALT, POSITION
000485:                                                                                                  #                (NO LOAD, DEC ONLY)
000486: 42,2423           53223                           OCT      53223                                 #  67    3COMP   LANDING RADAR VELX, Y, Z
000487: 42,2424           60026                           OCT      60026                                 #  68    3COMP   POS7, MIN/SEC, COMP ALT
000488:                                                                                                  #                (NO LOAD, DEC ONLY)
000489: 42,2425           00000                           OCT      00000                                 #  69    SPARE
000490: 42,2426           00000                           OCT      0                                     #  70    3COMP   OCTAL ONLY FOR EACH
000491: 42,2427           00000                           OCT      0                                     #  71    3COMP   OCTAL ONLY FOR EACH
000492: 42,2430           00102                           OCT      00102                                 #  72    2COMP   360-CDU DEG, CDU DEG
000493: 42,2431           00102                           OCT      00102                                 #  73    2COMP   360-CDU DEG, CDU DEG
000494: 42,2432           10200                           OCT      10200                                 #  74    3COMP   MIN/SEC, DPDEG(360), DPDEG(360)
000495:                                                                                                  #                (NO LOAD, DEC ONLY)
000496: 42,2433           00010                           OCT      00010                                 #  75    3COMP   POS4, MIN/SEC, MIN/SEC
000497:                                                                                                  #                (NO LOAD, DEC ONLY)
000498:
000499: 42,2434           20512                           OCT      20512                                 #  76    3COMP   VEL3, VEL3, POS4
000500:                                                                                                  #                (DEC ONLY)
000501: 42,2435           00500                           OCT      00500                                 #  77    2COMP   MIN/SEC, VEL3
000502:                                                                                                  #                (NO LOAD, DEC ONLY)
000503: 42,2436           00654                           OCT      00654                                 #  78    2 COMP  RR RANGE, RR RANGE RATE
000504: 42,2437           00102                           OCT      00102                                 #  79    3COMP   CDU DEG, CDU DEG, WHOLE


000506:                                                                                                  #                (DEC ONLY)
000507: 42,2440           00200                           OCT      00200                                 #  80    2COMP   WHOLE, DPDEG(360)
000508: 42,2441           24512                           OCT      24512                                 #  81    3COMP   VEL3 FOR EACH
000509:                                                                                                  #                (DEC ONLY)
000510: 42,2442           24512                           OCT      24512                                 #  82    3COMP   VEL3 FOR EACH
000511:                                                                                                  #                (DEC ONLY)
000512: 42,2443           24512                           OCT      24512                                 #  83    3COMP   VEL3 FOR EACH
000513:                                                                                                  #                (DEC ONLY)
000514: 42,2444           24512                           OCT      24512                                 #  84    3COMP   VEL3 FOR EACH
000515:                                                                                                  #                (DEC ONLY)
000516: 42,2445           24512                           OCT      24512                                 #  85    3COMP   VEL3 FOR EACH
000517:                                                                                                  #                (DEC ONLY)
000518: 42,2446           24512                           OCT      24512                                 #  86    3COMP   VEL3 FOR EACH
000519:                                                                                                  #                (DEC ONLY)
000520: 42,2447           00102                           OCT      00102                                 #  87    2COMP   CDU DEG FOR EACH
000521: 42,2450           00000                           OCT      0                                     #  88    3COMP   FRAC FOR EACH
000522:                                                                                                  #                (DEC ONLY)
000523: 42,2451           16143                           OCT      16143                                 #  89    3COMP   DPDEG(90), DPDEG(90), POS5
000524:                                                                                                  #                (DEC ONLY)
000525: 42,2452           10507                           OCT      10507                                 #  90    3COMP   POS5, VEL3, DPDEG(360)
000526:                                                                                                  #                (DEC ONLY)
000527: 42,2453           10450                           OCT      10450                                 #  91    3COMP   POS4, VEL2, DPDEG(360)
000528: 42,2454           00000                           OCT      00000                                 #  92    SPARE
000529: 42,2455           06143                           OCT      06143                                 #  93    3COMP   DPDEG(90) FOR EACH
000530: 42,2456           00000                           OCT      00000                                 #  94    SPARE
000531: 42,2457           00000                           OCT      0                                     #  95    SPARE
000532: 42,2460           00000                           OCT      0                                     #  96    SPARE
000533: 42,2461           00000                           OCT      00000                                 #  97    3COMP   WHOLE FOR EACH
000534: 42,2462           00000                           OCT      00000                                 #  98    3COMP   WHOLE, FRAC, WHOLE
000535: 42,2463           71572                           OCT      71572                                 #  99    3COMP   POS9, VEL4, RADIANS
000536:                                                                                                  #                (DEC ONLY)
000537:
000538:                                                                                                  #  END OF NNTYPTAB FOR MIXED NOUNS
000539:
000540: 42,2464           00006        SFINTAB            OCT      00006                                 #  WHOLE, DP TIME (SEC)
000541: 42,2465           03240                           OCT      03240
000542: 42,2466           00000                           OCT      00000                                 #  SPARE
000543: 42,2467           00000                           OCT      00000
000544: 42,2470           00000                           OCT      00000                                 #  CDU DEGREES, 360-CDU DEGREES
000545: 42,2471           00000                           OCT      00000                                 #        (SFCONS IN DEGINSF)
000546: 42,2472           10707                           OCT      10707                                 #  DP DEGREES (90)
000547: 42,2473           03435                           OCT      03435                                 #        UPPED BY 1
000548: 42,2474           13070                           OCT      13070                                 #  DP DEGREES (360) (POINT BETWN BITS 11-12)
000549: 42,2475           34345                           OCT      34345                                 #        UPPED BY 1
000550: 42,2476           00005                           OCT      00005                                 #  DEGREES (180)
000551: 42,2477           21616                           OCT      21616
000552: 42,2500           26113                           OCT      26113                                 #  WEIGHT2
000553: 42,2501           31713                           OCT      31713
000554: 42,2502           00070                           OCT      00070                                 #  POSITION5
000555: 42,2503           20460                           OCT      20460


000557: 42,2504           01065                           OCT      01065                                 #  POSITION4
000558: 42,2505           05740                           OCT      05740
000559: 42,2506           11414                           OCT      11414                                 #  VELOCITY2     (POINT BETWN BITS 11-12)
000560: 42,2507           31463                           OCT      31463
000561: 42,2510           07475                           OCT      07475                                 #  VELOCITY3
000562: 42,2511           16051                           OCT      16051
000563: 42,2512           00001                           OCT      00001                                 #  ELEVATION DEGREES
000564: 42,2513           03434                           OCT      03434
000565: 42,2514           00047                           OCT      00047                                 #  RENDEZVOUS RADAR RANGE
000566: 42,2515           21135                           OCT      21135
000567: 42,2516           77766                           OCT      77766                                 #  RENDEZVOUS RADAR RANGE RATE
000568: 42,2517           50711                           OCT      50711
000569: 42,2520           00005 25006                     2DEC*    .9267840599 E5         B-28*           #  LANDING RADAR ALTITUDE
000570:
000571: 42,2522           00002                           OCT      00002                                 #  INITIAL/FINAL ALTITUDE
000572: 42,2523           23224                           OCT      23224
000573: 42,2524           00014                           OCT      00014                                 #  ALTITUDE RATE
000574: 42,2525           06500                           OCT      06500
000575: 42,2526           00012                           OCT      00012                                 #  FORWARD/LATERAL VELOCITY
000576: 42,2527           36455                           OCT      36455
000577: 42,2530           04256                           OCT      04256                                 #  ROT HAND CONT ANGLE RATE
000578: 42,2531           07071                           OCT      07071
000579: 42,2532           77766 60557                     2DEC*    -1.552795030 E5         B-28*           #  LANDING RADAR VELX
000580:
000581: 42,2534           00005 01114                     2DEC*    .8250825087 E5         B-28*           #  LANDING RADAR VELY
000582:
000583: 42,2536           00007 01247                     2DEC*    1.153668673 E5         B-28*           #  LANDING RADAR VELZ
000584:
000585: 42,2540           04324                           OCT      04324                                 #  POSITION7
000586: 42,2541           27600                           OCT      27600
000587: 42,2542           00036                           OCT      00036                                 #  TRIM DEGREES2
000588: 42,2543           20440                           OCT      20440
000589: 42,2544           00035                           OCT      00035                                 #  COMPUTED ALTITUDE
000590: 42,2545           30400                           OCT      30400
000591: 42,2546           23420                           OCT      23420                                 #  DP DEGREES
000592: 42,2547           00000                           OCT      00000
000593: 42,2550           01670 20000                     2DEC     30480      B-19                       #  POSITION 9
000594:
000595: 42,2552           07475 16051                     2DEC     30.48      B-7                        #  VELOCITY4
000596:
000597: 42,2554           14400 00000                     2DEC     100        B-8                        #  RADIANS
000598:
000599:                                                                                                  #  END OF SFINTAB
000600:
000601: 42,2556           05174        SFOUTAB            OCT      05174                                 #  WHOLE, DP TIME (SEC)
000602: 42,2557           13261                           OCT      13261
000603: 42,2560           00000                           OCT      00000                                 #  SPARE
000604: 42,2561           00000                           OCT      00000
000605: 42,2562           00000                           OCT      00000                                 #  CDU DEGREES, 360-CDU DEGREES


000607: 42,2563           00000                           OCT      00000                                 #        (SFCONS IN DEGOUTSF, 360-CDUO)
000608: 42,2564           00714                           OCT      00714                                 #  DP DEGREES (90) (POINT BETWN BITS 7-8)
000609: 42,2565           31463                           OCT      31463
000610: 42,2566           13412                           OCT      13412                                 #  DP DEGREES (360)
000611: 42,2567           07534                           OCT      07534
000612: 42,2570           05605                           OCT      05605                                 #  DEGREES (180)
000613: 42,2571           03656                           OCT      03656
000614: 42,2572           00001                           OCT      00001                                 #  WEIGHT2
000615: 42,2573           16170                           OCT      16170
000616: 42,2574           00441                           OCT      00441                                 #  POSITION5
000617: 42,2575           34306                           OCT      34306
000618: 42,2576           07176                           OCT      07176                                 #  POSITION4     (POINT BETWN BITS 7-8)
000619: 42,2577           21603                           OCT      21603
000620: 42,2600           15340                           OCT      15340                                 #  VELOCITY2
000621: 42,2601           15340                           OCT      15340
000622: 42,2602           01031                           OCT      01031                                 #  VELOCITY3     (POINT BETWN BITS 7-8)
000623: 42,2603           21032                           OCT      21032
000624: 42,2604           34631                           OCT      34631                                 #  ELEVATION DEGREES
000625: 42,2605           23146                           OCT      23146
000626: 42,2606           00636                           OCT      00636                                 #  RENDEZVOUS RADAR RANGE
000627: 42,2607           14552                           OCT      14552
000628: 42,2610           74552                           OCT      74552                                 #  RENDEZVOUS RADAR RANGE RATE
000629: 42,2611           70307                           OCT      70307
000630: 42,2612           05520 15312                     2DEC     1.079      E-5        B14             #  LANDING RADAR ALTITUDE
000631:
000632: 42,2614           14226                           OCT      14226                                 #  INITIAL/FINAL ALTITUDE
000633: 42,2615           31757                           OCT      31757
000634: 42,2616           02476                           OCT      02476                                 #  ALTITUDE RATE
000635: 42,2617           05531                           OCT      05531
000636: 42,2620           02727                           OCT      02727                                 #  FORWARD/LATERAL VELOCITY
000637: 42,2621           16415                           OCT      16415
000638: 42,2622           00007                           OCT      00007                                 #  ROT HAND CONT ANGLE RATE
000639: 42,2623           13734                           OCT      13734
000640: 42,2624           74477 50643                     2DEC     -.6440     E-5        B14             #  LANDING RADAR VELX
000641:
000642: 42,2626           06265 16004                     2DEC     1.212      E-5        B14             #  LANDING RADAR VELY
000643:
000644: 42,2630           04426 31433                     2DEC     .8668      E-5        B14             #  LANDING RADAR VELZ
000645:
000646: 42,2632           34772                           OCT      34772                                 #  POSITION7
000647: 42,2633           07016                           OCT      07016
000648: 42,2634           01030                           OCT      01030                                 #  TRIM DEGREES2
000649: 42,2635           33675                           OCT      33675
000650: 42,2636           01046                           OCT      01046                                 #  COMPUTED ALTITUDE
000651: 42,2637           15700                           OCT      15700
000652: 42,2640           00321                           OCT      00321                                 #  DP DEGREES
000653: 42,2641           26706                           OCT      26706
000654: 42,2642           04231 27400                     2DEC     17.2010499 B-7                        #  POSITION 9
000655:
000656: 42,2644           01031 21032                     2DEC     .032808399                            #  VELOCITY4


000658: 42,2646           12172 34122                     2DEC     .32                                   #  RADIANS
000659:
000660:                                                                                                  #  END OF SFOUTAB
000661:
000662:                                                                                                  #  NN    SF CONSTANT             SF ROUTINE
000663: 42,2650           03453        IDADDTAB           ECADR    TTOGO                                 #  40    MIN/SEC                 M/S
000664: 42,2651           03663                           ECADR    VGDISP                                #  40    VEL3                    DP3
000665: 42,2652           03507                           ECADR    DVTOTAL                               #  40    VEL3                    DP3
000666: 42,2653           01045                           ECADR    DSPTEM1                               #  41    CDU DEG                 CDU
000667: 42,2654           01046                           ECADR    DSPTEM1    +1                         #  41    ELEV DEG                ARTH
000668: 42,2655           00000                           OCT      0                                     #  41    SPARE COMPONENT
000669: 42,2656           02316                           ECADR    HAPO                                  #  42    POS4                    DP3
000670: 42,2657           02320                           ECADR    HPER                                  #  42    POS4                    DP3
000671: 42,2660           03663                           ECADR    VGDISP                                #  42    VEL3                    DP3
000672: 42,2661           01120                           ECADR    LAT                                   #  43    DPDEG(360)              DP4
000673: 42,2662           01122                           ECADR    LONG                                  #  43    DPDEG(360)              DP4
000674: 42,2663           01124                           ECADR    ALT                                   #  43    POS4                    DP3
000675: 42,2664           02117                           ECADR    HAPOX                                 #  44    POS4                    DP3
000676: 42,2665           02121                           ECADR    HPERX                                 #  44    POS4                    DP3
000677: 42,2666           02140                           ECADR    TFF                                   #  44    MIN/SEC                 M/S
000678: 42,2667           03462                           ECADR    TRKMKCNT                              #  45    WHOLE                   ARTH
000679: 42,2670           03453                           ECADR    TTOGO                                 #  45    MIN/SEC                 M/S
000680: 42,2671           02252                           ECADR    +MGA                                  #  45    DPDEG(360)              DP4
000681: 42,2672           01343                           ECADR    DAPDATR1                              #  46    OCTAL ONLY              OCT
000682: 42,2673           00000                           OCT      0                                     #  46    SPARE COMPONENT
000683: 42,2674           00000                           OCT      0                                     #  46    SPARE COMPONENT
000684: 42,2675           01331                           ECADR    LEMMASS                               #  47    WEIGHT2                 ARTH1
000685: 42,2676           01332                           ECADR    CSMMASS                               #  47    WEIGHT2                 ARTH1
000686: 42,2677           00000                           OCT      0                                     #  47    SPARE COMPONENT
000687: 42,2700           03002                           ECADR    PITTIME                               #  48    TRIM DEG2               ARTH
000688: 42,2701           03001                           ECADR    ROLLTIME                              #  48    TRIM DEG2               ARTH
000689: 42,2702           00000                           OCT      0                                     #  48    SPARE COMPONENT
000690: 42,2703           00314                           ECADR    R22DISP                               #  49    POS4                    DP3
000691: 42,2704           00316                           ECADR    R22DISP    +2                         #  49    VEL3                    DP3
000692: 42,2705           03745                           ECADR    WHCHREAD                              #  49    WHOLE                   ARTH
000693: 42,2706           00000                           OCT      0                                     #  50    SPARE
000694: 42,2707           00000                           OCT      0                                     #  50    SPARE
000695: 42,2710           00000                           OCT      0                                     #  50    SPARE
000696: 42,2711           02200                           ECADR    ALPHASB                               #  51    DPDEG(360)              DP4
000697: 42,2712           02202                           ECADR    BETASB                                #  51    DPDEG(360)              DP4
000698: 42,2713           00000                           OCT      0                                     #  51    SPARE COMPONENT
000699: 42,2714           01755                           ECADR    ACTCENT                               #  52    DPDEG(360)              DP4
000700: 42,2715           00000                           OCT      00000                                 #  52    SPARE COMPONENT
000701: 42,2716           00000                           OCT      00000                                 #  52    SPARE COMPONENT
000702: 42,2717           00000                           OCT      00000                                 #  53    SPARE
000703: 42,2720           00000                           OCT      00000                                 #  53
000704: 42,2721           00000                           OCT      00000                                 #  53
000705: 42,2722           02200                           ECADR    RANGE                                 #  54    POS5                    DP1


000707: 42,2723           02202                           ECADR    RRATE                                 #  54    VEL3                    DP3
000708: 42,2724           02204                           ECADR    RTHETA                                #  54    DPDEG(360)              DP4
000709: 42,2725           03466                           ECADR    NN                                    #  55    WHOLE                   ARTH
000710: 42,2726           02256                           ECADR    ELEV                                  #  55    DPDEG(360)              DP4
000711: 42,2727           03620                           ECADR    CENTANG                               #  55    DPDEG(360)              DP4
000712: 42,2730           02200                           ECADR    RR-AZ                                 #  56    DPDEG(360)              DP4
000713: 42,2731           02202                           ECADR    RR-ELEV                               #  56    DPDEG(360)              DP4
000714: 42,2732           00000                           OCT      0                                     #  56    SPARE COMPONENT
000715: 42,2733           02302                           ECADR    DELTAR                                #  57    POS4                    DP3
000716: 42,2734           00000                           OCT      0                                     #  57    SPARE COMPONENT
000717: 42,2735           00000                           OCT      0                                     #  57    SPARE COMPONENT
000718: 42,2736           03605                           ECADR    POSTTPI                               #  58    POS4                    DP3
000719: 42,2737           03575                           ECADR    DELVTPI                               #  58    VEL3                    DP3
000720: 42,2740           02347                           ECADR    DELVTPF                               #  58    VEL3                    DP3
000721: 42,2741           02302                           ECADR    DVLOS                                 #  59    VEL3                    DP3
000722: 42,2742           02304                           ECADR    DVLOS      +2                         #  59    VEL3                    DP3
000723: 42,2743           02306                           ECADR    DVLOS      +4                         #  59    VEL3                    DP3
000724: 42,2744           02262                           ECADR    VHORIZ                                #  60    VEL3                    DP3
000725: 42,2745           03473                           ECADR    HDOTDISP                              #  60    VEL3                    DP3
000726: 42,2746           03534                           ECADR    HCALC                                 #  60    COMP ALT                DP1
000727: 42,2747           03475                           ECADR    TTFDISP                               #  61    MIN/SEC                 M/S
000728: 42,2750           03453                           ECADR    TTOGO                                 #  61    MIN/SEC                 M/S
000729: 42,2751           02626                           ECADR    OUTOFPLN                              #  61    POS7                    DP4
000730: 42,2752           03471                           ECADR    ABVEL                                 #  62    VEL3                    DP3
000731: 42,2753           03453                           ECADR    TTOGO                                 #  62    MIN/SEC                 M/S
000732: 42,2754           03507                           ECADR    DVTOTAL                               #  62    VEL3                    DP3
000733: 42,2755           03471                           ECADR    ABVEL                                 #  63    VEL3                    DP3
000734: 42,2756           03473                           ECADR    HDOTDISP                              #  63    VEL3                    DP3
000735: 42,2757           03774                           ECADR    HCALC1                                #  63    COMP ALT                DP1
000736: 42,2760           03666                           ECADR    FUNNYDSP                              #  64    2INT                    2INT
000737: 42,2761           03473                           ECADR    HDOTDISP                              #  64    VEL3                    DP3
000738: 42,2762           03534                           ECADR    HCALC                                 #  64    COMP ALT                DP1
000739: 42,2763           00013                           ECADR    SAMPTIME                              #  65    HMS (MIXED ONLY TO KEEP CODE 65) HMS
000740: 42,2764           00013                           ECADR    SAMPTIME                              #  65    HMS                     HMS
000741: 42,2765           00013                           ECADR    SAMPTIME                              #  65    HMS                     HMS
000742: 42,2766           02206                           ECADR    RSTACK     +6                         #  66    LANDING RADAR ALT       DP1
000743: 42,2767           00000                           OCT      0                                     #  66    LR POSITION             LRPOS
000744: 42,2770           00000                           OCT      0                                     #  66    SPARE COMPONENT
000745: 42,2771           02200                           ECADR    RSTACK                                #  67    LANDING RADAR VELX      DP1
000746: 42,2772           02202                           ECADR    RSTACK     +2                         #  67    LANDING RADAR VELY      DP1
000747: 42,2773           02204                           ECADR    RSTACK     +4                         #  67    LANDING RADAR VELZ      DP1
000748: 42,2774           02624                           ECADR    RANGEDSP                              #  68    POS7                    DP4
000749: 42,2775           03475                           ECADR    TTFDISP                               #  68    MIN/SEC                 M/S
000750: 42,2776           03664                           ECADR    DELTAH                                #  68    COMP ALT                DP1
000751: 42,2777           00000                           OCT      00000                                 #  69    SPARE
000752: 42,3000           00000                           OCT      00000                                 #  69
000753: 42,3001           00000                           OCT      00000                                 #  69
000754: 42,3002           00735                           ECADR    AOTCODE                               #  70    OCTAL ONLY              OCT
000755: 42,3003           00736                           ECADR    AOTCODE    +1                         #  70    OCTAL ONLY              OCT
000756: 42,3004           00737                           ECADR    AOTCODE    +2                         #  70    OCTAL ONLY              OCT


000758: 42,3005           00735                           ECADR    AOTCODE                               #  71    OCTAL ONLY              OCT
000759: 42,3006           00736                           ECADR    AOTCODE    +1                         #  71    OCTAL ONLY              OCT
000760: 42,3007           00737                           ECADR    AOTCODE    +2                         #  71    OCTAL ONLY              OCT
000761: 42,3010           00035                           ECADR    CDUT                                  #  72    360-CDU DEG             360-CDU
000762: 42,3011           00036                           ECADR    CDUS                                  #  72    CDU DEG                 CDU
000763: 42,3012           00000                           OCT      0                                     #  72    SPARE COMPONENT
000764: 42,3013           01107                           ECADR    TANG                                  #  73    360-CDU DEG             360-CDU
000765: 42,3014           01110                           ECADR    TANG       +1                         #  73    CDU DEG                 CDU
000766: 42,3015           00000                           OCT      0                                     #  73    SPARE COMPONENT
000767: 42,3016           03453                           ECADR    TTOGO                                 #  74    MIN/SEC                 M/S
000768: 42,3017           02362                           ECADR    YAW                                   #  74    DPDEG(360)              DP4
000769: 42,3020           02364                           ECADR    PITCH                                 #  74    DPDEG(360)              DP4
000770: 42,3021           03577                           ECADR    DIFFALT                               #  75    POS4                    DP3
000771: 42,3022           02252                           ECADR    T1TOT2                                #  75    MIN/SEC
000772: 42,3023           02254                           ECADR    T2TOT3                                #  75    MIN/SEC                 M/S
000773: 42,3024           02276                           ECADR    ZDOTD                                 #  76    VEL3                    DP3
000774: 42,3025           02272                           ECADR    RDOTD                                 #  76    VEL3                    DP3
000775: 42,3026           03642                           ECADR    XRANGE                                #  76    POS4                    DP3
000776: 42,3027           03453                           ECADR    TTOGO                                 #  77    MIN/SEC                 M/S
000777: 42,3030           02310                           ECADR    YDOT                                  #  77    VEL3                    DP3
000778: 42,3031           00000                           OCT      0                                     #  77    SPARE COMPONENT
000779: 42,3032           02200                           ECADR    RSTACK                                #  78    RR RANGE                DP1
000780: 42,3033           02202                           ECADR    RSTACK     +2                         #  78    RR RANGE RATE           DP1
000781: 42,3034           00000                           OCT      00000                                 #  78    SPARE COMPONENT
000782: 42,3035           01236                           ECADR    CURSOR                                #  79    CDU DEG                 CDU
000783: 42,3036           01240                           ECADR    SPIRAL                                #  79    CDU DEG                 CDU
000784: 42,3037           01242                           ECADR    POSCODE                               #  79    WHOLE                   ARTH
000785: 42,3040           03733                           ECADR    DATAGOOD                              #  80    WHOLE                   ARTH
000786: 42,3041           03734                           ECADR    OMEGAD                                #  80    DPDEG(360)              DP4
000787: 42,3042           00000                           OCT      0                                     #  80    SPARE COMPONENT
000788: 42,3043           03433                           ECADR    DELVLVC                               #  81    VEL3                    DP3
000789: 42,3044           03435                           ECADR    DELVLVC    +2                         #  81    VEL3                    DP3
000790: 42,3045           03437                           ECADR    DELVLVC    +4                         #  81    VEL3                    DP3
000791: 42,3046           03433                           ECADR    DELVLVC                               #  82    VEL3                    DP3
000792: 42,3047           03435                           ECADR    DELVLVC    +2                         #  82    VEL3                    DP3
000793: 42,3050           03437                           ECADR    DELVLVC    +4                         #  82    VEL3                    DP3
000794: 42,3051           03622                           ECADR    DELVIMU                               #  83    VEL3                    DP3
000795: 42,3052           03624                           ECADR    DELVIMU    +2                         #  83    VEL3                    DP3
000796: 42,3053           03626                           ECADR    DELVIMU    +4                         #  83    VEL3                    DP3
000797: 42,3054           02222                           ECADR    DELVOV                                #  84    VEL3                    DP3
000798: 42,3055           02224                           ECADR    DELVOV     +2                         #  84    VEL3                    DP3
000799: 42,3056           02226                           ECADR    DELVOV     +4                         #  84    VEL3                    DP3
000800: 42,3057           03501                           ECADR    VGBODY                                #  85    VEL3                    DP3
000801: 42,3060           03503                           ECADR    VGBODY     +2                         #  85    VEL3                    DP3
000802: 42,3061           03505                           ECADR    VGBODY     +4                         #  85    VEL3                    DP3
000803: 42,3062           03433                           ECADR    DELVLVC                               #  86    VEL3                    DP3
000804: 42,3063           03435                           ECADR    DELVLVC    +2                         #  86    VEL3                    DP3
000805: 42,3064           03437                           ECADR    DELVLVC    +4                         #  86    VEL3                    DP3
000806: 42,3065           01347                           ECADR    AZ                                    #  87    CDU DEG                 CDU
000807: 42,3066           01350                           ECADR    EL                                    #  87    CDU DEG                 CDU


000809: 42,3067           00000                           OCT      0                                     #  87    SPARE COMPONENT
000810: 42,3070           02706                           ECADR    STARAD                                #  88    FRAC                    FRAC
000811: 42,3071           02710                           ECADR    STARAD     +2                         #  88    FRAC                    FRAC
000812: 42,3072           02712                           ECADR    STARAD     +4                         #  88    FRAC                    FRAC
000813: 42,3073           02706                           ECADR    LANDLAT                               #  89    DPDEG(90)               DP3
000814: 42,3074           02710                           ECADR    LANDLONG                              #  89    DPDEG(90)               DP3
000815: 42,3075           02712                           ECADR    LANDALT                               #  89    POS5                    DP1
000816: 42,3076           02200                           ECADR    RANGE                                 #  90    POS5                    DP1
000817: 42,3077           02202                           ECADR    RRATE                                 #  90    VEL3                    DP3
000818: 42,3100           02204                           ECADR    RTHETA                                #  90    DPDEG(360)              DP4
000819: 42,3101           03715                           ECADR    P21ALT                                #  91    POS4                    DP3
000820: 42,3102           03711                           ECADR    P21VEL                                #  91    VEL2                    DP4
000821: 42,3103           03713                           ECADR    P21GAM                                #  91    DPDEG(360)              DP4
000822: 42,3104           00000                           OCT      00000                                 #  92    SPARE
000823: 42,3105           00000                           OCT      00000                                 #  92
000824: 42,3106           00000                           OCT      00000                                 #  92
000825: 42,3107           02737                           ECADR    OGC                                   #  93    DPDEG(90)               DP3
000826: 42,3110           02741                           ECADR    OGC        +2                         #  93    DPDEG(90)               DP3
000827: 42,3111           02743                           ECADR    OGC        +4                         #  93    DPDEG(90)               DP3
000828: 42,3112           00000                           OCT      00000                                 #  94    SPARE
000829: 42,3113           00000                           OCT      00000                                 #  94
000830: 42,3114           00000                           OCT      00000                                 #  94
000831: 42,3115           00000                           OCT      0                                     #  95    SPARE
000832: 42,3116           00000                           OCT      0                                     #  95    SPARE
000833: 42,3117           00000                           OCT      0                                     #  95    SPARE
000834: 42,3120           00000                           OCT      0                                     #  96    SPARE
000835: 42,3121           00000                           OCT      0                                     #  96    SPARE
000836: 42,3122           00000                           OCT      0                                     #  96    SPARE
000837: 42,3123           01045                           ECADR    DSPTEM1                               #  97    WHOLE                   ARTH
000838: 42,3124           01046                           ECADR    DSPTEM1    +1                         #  97    WHOLE                   ARTH
000839: 42,3125           01047                           ECADR    DSPTEM1    +2                         #  97    WHOLE                   ARTH
000840: 42,3126           01050                           ECADR    DSPTEM2                               #  98    WHOLE                   ARTH
000841: 42,3127           01051                           ECADR    DSPTEM2    +1                         #  98    FRAC                    FRAC
000842: 42,3130           01052                           ECADR    DSPTEM2    +2                         #  98    WHOLE                   ARTH
000843: 42,3131           02200                           ECADR    WWPOS                                 #  99    POS9                    DP3
000844: 42,3132           02202                           ECADR    WWVEL                                 #  99    VEL4                    DP2
000845: 42,3133           02204                           ECADR    WWBIAS                                #  99    RADIANS                 DP4
000846:
000847:                                                                                                  #  END OF IDADDTAB
000848:
000849:                                                                                                  #  NN    SF ROUTINES
000850: 42,3134           16351        RUTMXTAB           OCT      16351                                 #  40    M/S, DP3, DP3
000851: 42,3135           00142                           OCT      00142                                 #  41    CDU, ARTH
000852: 42,3136           16347                           OCT      16347                                 #  42    DP3, DP3, DP3
000853: 42,3137           16512                           OCT      16512                                 #  43    DP4, DP4, DP3
000854: 42,3140           22347                           OCT      22347                                 #  44    DP3, DP3, M/S
000855: 42,3141           24443                           OCT      24443                                 #  45    ARTH, M/S, DP4
000856: 42,3142           00000                           OCT      00000                                 #  46    OCT
000857: 42,3143           00553                           OCT      00553                                 #  47    ARITH1, ARITH1


000859: 42,3144           00143                           OCT      00143                                 #  48    ARTH, ARTH
000860: 42,3145           06347                           OCT      06347                                 #  49    DP3, DP3, ARTH
000861: 42,3146           00000                           OCT      0                                     #  50    SPARE
000862: 42,3147           00512                           OCT      00512                                 #  51    DP4, DP4
000863: 42,3150           00012                           OCT      00012                                 #  52    DP4
000864: 42,3151           00000                           OCT      00000                                 #  53    SPARE
000865: 42,3152           24344                           OCT      24344                                 #  54    DP1, DP3, DP4
000866: 42,3153           24503                           OCT      24503                                 #  55    ARTH, DP4, DP4
000867: 42,3154           00512                           OCT      00512                                 #  56    DP4, DP4
000868: 42,3155           00007                           OCT      00007                                 #  57    DP3
000869: 42,3156           16347                           OCT      16347                                 #  58    DP3, DP3, DP3
000870: 42,3157           16347                           OCT      16347                                 #  59    DP3, DP3, DP3
000871: 42,3160           10347                           OCT      10347                                 #  60    DP3, DP3, DP1
000872: 42,3161           24451                           OCT      24451                                 #  61    M/S, M/S, DP4
000873: 42,3162           16447                           OCT      16447                                 #  62    DP3, M/S, DP3
000874: 42,3163           10347                           OCT      10347                                 #  63    DP3, DP3, DP1
000875: 42,3164           10354                           OCT      10354                                 #  64    2INT, DP3, DP1
000876: 42,3165           20410                           OCT      20410                                 #  65    HMS, HMS, HMS
000877: 42,3166           00304                           OCT      00304                                 #  66    DP1, LRPOS
000878: 42,3167           10204                           OCT      10204                                 #  67    DP1, DP1, DP1
000879: 42,3170           10452                           OCT      10452                                 #  68    DP4, M/S, DP1
000880: 42,3171           00000                           OCT      00000                                 #  69    SPARE
000881: 42,3172           00000                           OCT      0                                     #  70    OCT, OCT, OCT
000882: 42,3173           00000                           OCT      0                                     #  71    OCT, OCT, OCT
000883: 42,3174           00115                           OCT      00115                                 #  72    360-CDU, CDU
000884: 42,3175           00115                           OCT      00115                                 #  73    360-CDU, CDU
000885: 42,3176           24511                           OCT      24511                                 #  74    M/S, DP4, DP4
000886: 42,3177           22447                           OCT      22447                                 #  75    DP3, M/S, M/S
000887: 42,3200           16347                           OCT      16347                                 #  76    DP3, DP3, DP3
000888: 42,3201           00351                           OCT      00351                                 #  77    M/S, DP3
000889: 42,3202           00204                           OCT      00204                                 #  78    DP1, DP1
000890: 42,3203           06102                           OCT      06102                                 #  79    CDU, CDU, ARTH
000891: 42,3204           00503                           OCT      00503                                 #  80    ARTH, DP4
000892: 42,3205           16347                           OCT      16347                                 #  81    DP3, DP3, DP3
000893: 42,3206           16347                           OCT      16347                                 #  82    DP3, DP3, DP3
000894: 42,3207           16347                           OCT      16347                                 #  83    DP3, DP3, DP3
000895: 42,3210           16347                           OCT      16347                                 #  84    DP3, DP3, DP3
000896: 42,3211           16347                           OCT      16347                                 #  85    DP3, DP3, DP3
000897: 42,3212           16347                           OCT      16347                                 #  86    DP3, DP3, DP3
000898: 42,3213           00102                           OCT      00102                                 #  87    CDU, CDU
000899: 42,3214           02041                           OCT      02041                                 #  88    FRAC FOR EACH
000900: 42,3215           10347                           OCT      10347                                 #  89    DP3, DP3, DP1
000901: 42,3216           24344                           OCT      24344                                 #  90    DP1, DP3, DP4
000902: 42,3217           24507                           OCT      24507                                 #  91    DP3, DP4, DP4
000903: 42,3220           00000                           OCT      00000                                 #  92    SPARE
000904: 42,3221           16347                           OCT      16347                                 #  93    DP3, DP3, DP3
000905: 42,3222           00000                           OCT      00000                                 #  94    SPARE
000906: 42,3223           00000                           OCT      0                                     #  95    SPARE
000907: 42,3224           00000                           OCT      0                                     #  96    SPARE
000908: 42,3225           06143                           OCT      06143                                 #  97    ARTH, ARTH, ARTH


000910: 42,3226           06043                           OCT      06043                                 #  98    ARTH, FRAC, ARTH
000911: 42,3227           24247                           OCT      24247                                 #  99    DP3, DP2, DP4
000912:
000913:                                                                                                  #  END OF RUTMXTAB
000914:
000915: 42,3230  30,2000                                  SBANK=   LOWSUPER
000916:

End of include-file PINBALL_NOUN_TABLES.agc.  Parent file is MAIN.agc


