
Source Code


000002:                                                                                                  ## Copyright:   Public domain.
000003:                                                                                                  ## Filename:    PLANETARY_INERTIAL_ORIENTATION.agc
000004:                                                                                                  ## Purpose:     Part of the source code for Luminary 1A build 099.
000005:                                                                                                  ##              It is part of the source code for the Lunar Module's (LM)
000006:                                                                                                  ##              Apollo Guidance Computer (AGC), for Apollo 11.
000007:                                                                                                  ##
000008:                                                                                                  ## Assembler:   yaYUL
000009:                                                                                                  ## Contact:     Jim Lawton <jim.lawton@gmail.com>
000010:                                                                                                  ## Website:     www.ibiblio.org/apollo.
000011:                                                                                                  ## Pages:       1140-1148
000012:                                                                                                  ## Mod history: 2009-05-28      JVL     Updated from page images.
000013:                                                                                                  ##              2016-12-17 RSB  Proofed text comments with octopus/ProoferComments
000014:                                                                                                  ##                              and corrected the errors found.
000015:                                                                                                  ##
000016:                                                                                                  ## This source code has been transcribed or otherwise adapted from digitized
000017:                                                                                                  ## images of a hardcopy from the MIT Museum.  The digitization was performed
000018:                                                                                                  ## by Paul Fjeld, and arranged for by Deborah Douglas of the Museum.  Many
000019:                                                                                                  ## thanks to both.  The images (with suitable reduction in storage size and
000020:                                                                                                  ## consequent reduction in image quality as well) are available online at
000021:                                                                                                  ## www.ibiblio.org/apollo.  If for some reason you find that the images are
000022:                                                                                                  ## illegible, contact me at info@sandroid.org about getting access to the
000023:                                                                                                  ## (much) higher-quality images which Paul actually created.
000024:                                                                                                  ##
000025:                                                                                                  ## Notations on the hardcopy document read, in part:
000026:                                                                                                  ##
000027:                                                                                                  ##    Assemble revision 001 of AGC program LMY99 by NASA 2021112-061
000028:                                                                                                  ##    16:27 JULY 14, 1969
000029:


000031:                                                                                                  #  ..... RP-TO-R SUBROUTINE .....
000032:                                                                                                  #  SUBROUTINE TO CONVERT RP (VECTOR IN PLANETARY COORDINATE SYSTEM, EITHER
000033:                                                                                                  #  EARTH-FIXED OR MOON-FIXED) TO R (SAME VECTOR IN THE BASIC REF. SYSTEM)
000034:
000035:                                                                                                  #        R = MT(T) * (RP + LP X RP)      MT = M MATRIX TRANSPOSE
000036:
000037:                                                                                                  #  CALLING SEQUENCE
000038:                                                                                                  #        L       CALL
000039:                                                                                                  #        L+1             RP-TO-R
000040:
000041:                                                                                                  #  SUBROUTINES USED
000042:                                                                                                  #        EARTHMX, MOONMX, EARTHL
000043:
000044:                                                                                                  #        ITEMS AVAILABLE FROM LAUNCH DATA
000045:                                                                                                  #                504LM = THE LIBRATION VECTOR L OF THE MOON AT TIME TIMSUBL, EXPRESSED
000046:                                                                                                  #                        IN THE MOON-FIXED COORD. SYSTEM         RADIANS B0
000047:
000048:                                                                                                  #        ITEMS NECESSARY FOR SUBR. USED (SEE DESCRIPTION OF SUBR.)
000049:
000050:                                                                                                  #  INPUT
000051:                                                                                                  #        MPAC = 0 FOR EARTH, NON-ZERO FOR MOON
000052:                                                                                                  #        0-5D = RP VECTOR
000053:                                                                                                  #        6-7D = TIME
000054:
000055:                                                                                                  #  OUTPUT
000056:                                                                                                  #        MPAC = R VECTOR METERS B-29 FOR EARTH, B-27 FOR MOON
000057:
000058: 26,2000                                           SETLOC   PLANTIN1
000059: 26,2000                                           BANK
000060:
000061: 26,3716                                           COUNT*   $$/LUROT
000062:
000063: 26,3716           46020        RP-TO-R            STQ      BHIZ
000064: 26,3717           00050                                    RPREXIT
000065: 26,3720           55733                                    RPTORA
000066: 26,3721           77624                           CALL                                           #  COMPUTE M MATRIX FOR MOON
000067: 26,3722           51720                                    MOONMX                                #  LP=LM FOR MOON  RADIANS B0
000068: 26,3723           77775                           VLOAD
000069: 26,3724           02013                                    504LM
000070: 26,3725           53235        RPTORB             VXV      VAD
000071: 26,3726           00001                                    504RPR
000072: 26,3727           00001                                    504RPR
000073: 26,3730           52105                           VXM      GOTO
000074: 26,3731           00025                                    MMATRIX                               #  MPAC=R=MT(T)*(RP+LPXRP)
000075: 26,3732           51706                                    RPRPXXXX                              #  RESET PUSHLOC TO 0 BEFORE EXITING
000076: 26,3733           77624        RPTORA             CALL                                           #  EARTH COMPUTATIONS
000077: 26,3734           55743                                    EARTHMX                               #  M MATRIX B-1
000078: 26,3735           77624                           CALL
000079: 26,3736           15753                                    EARTHL                                #  L VECTOR RADIANS B0
000080: 26,3737           76521                           MXV      VSL1                                  #  LP=M(T)*L  RAD B-0
000081: 26,3740           00025                                    MMATRIX


000083: 26,3741           77650                           GOTO
000084: 26,3742           55725                                    RPTORB
000085: 24,2000                                           SETLOC   PLANTIN
000086: 24,2000                                           BANK
000087: 24,3670                                           COUNT*   $$/LUROT
000088:


000090:                                                                                                  #  ..... R-TO-RP SUBROUTINE .....
000091:                                                                                                  #  SUBROUTINE TO CONVERT R (VECTOR IN REFERENCE COORD. SYSTEM) TO RP
000092:                                                                                                  #  (VECTOR IN PLANETARY COORD SYSTEM) EITHER EARTH-FIXED OR MOON-FIXED
000093:
000094:                                                                                                  #        RP = M(T) * (R - L X R)
000095:
000096:                                                                                                  #  CALLING SEQUENCE
000097:                                                                                                  #        L       CALL
000098:                                                                                                  #        L+1             R-TO-RP
000099:
000100:                                                                                                  #  SUBROUTINES USED
000101:                                                                                                  #        EARTHMX, MOONMX, EARTHL
000102:
000103:                                                                                                  #  INPUT
000104:                                                                                                  #        MPAC = 0 FOR EARTH, NON-ZERO FOR MOON
000105:                                                                                                  #        0-5D = R VECTOR
000106:                                                                                                  #        6-7D = TIME
000107:
000108:                                                                                                  #        ITEMS AVAILABLE FROM LAUNCH DATA
000109:                                                                                                  #                504LM = THE LIBRATION VECTOR L OF THE MOON AT TIME TIMSUBL, EXPRESSED
000110:                                                                                                  #                        IN THE MOON-FIXED COORD. SYSTEM   RADIANS B0
000111:
000112:                                                                                                  #        ITEMS NECESSARY FOR SUBROUTINES USED (SEE DESCRIPTION OF SUBR.)
000113:
000114:                                                                                                  #  OUTPUT
000115:                                                                                                  #        MPAC = RP VECTOR METERS B-29 FOR EARTH, B-27 FOR MOON
000116:
000117: 24,3670           46020        R-TO-RP            STQ      BHIZ
000118: 24,3671           00050                                    RPREXIT
000119: 24,3672           51712                                    RTORPA
000120: 24,3673           77624                           CALL
000121: 24,3674           51720                                    MOONMX
000122: 24,3675           61375                           VLOAD    VXM
000123: 24,3676           02013                                    504LM                                 #  LP=LM
000124: 24,3677           00025                                    MMATRIX
000125: 24,3700           77772                           VSL1                                           #  L = MT(T)*LP          RADIANS B0
000126: 24,3701           51235        RTORPB             VXV      BVSU
000127: 24,3702           00001                                    504RPR
000128: 24,3703           00001                                    504RPR
000129: 24,3704           77721                           MXV                                            #  M(T)*(R-LXR)          B-2
000130: 24,3705           00025                                    MMATRIX
000131: 24,3706           40372        RPRPXXXX           VSL1     SETPD
000132: 24,3707           00001                                    0D
000133: 24,3710           77650                           GOTO
000134: 24,3711           00050                                    RPREXIT
000135: 24,3712           77624        RTORPA             CALL                                           #  EARTH COMPUTATIONS
000136: 24,3713           55743                                    EARTHMX
000137: 24,3714           77624                           CALL
000138: 24,3715           15753                                    EARTHL
000139: 24,3716           77650                           GOTO                                           #  MPAC=L=(-AX,-AY,0)    RAD B-0
000140: 24,3717           51701                                    RTORPB
000141:


000143:                                                                                                  #  ..... MOONMX SUBROUTINE .....
000144:                                                                                                  #  SUBROUTINE TO COMPUTE THE TRANSFORMATION MATRIX M FOR THE MOON
000145:
000146:                                                                                                  #  CALLING SEQUENCE
000147:                                                                                                  #        L       CALL
000148:                                                                                                  #        L+1             MOONMX
000149:
000150:                                                                                                  #  SUBROUTINES USED
000151:                                                                                                  #        NEWANGLE
000152:
000153:                                                                                                  #  INPUT
000154:                                                                                                  #        6-7D = TIME
000155:
000156:                                                                                                  #        ITEMS AVAILABLE FROM LAUNCH DATA
000157:                                                                                                  #                BSUBO, BDOT
000158:                                                                                                  #                TIMSUBO, NODIO, NODDOT, FSUBO, FDOT
000159:                                                                                                  #                COSI = COS(I)   B-1
000160:                                                                                                  #                SINI = SIN(I)   B-1
000161:                                                                                                  #                  I IS THE ANGLE BETWEEN THE MEAN LUNAR EQUATORIAL PLANE AND THE
000162:                                                                                                  #                  PLANE OF THE ECLIPTIC (1 DEGREE 32.1 MINUTES)
000163:
000164:                                                                                                  #  OUTPUT
000165:                                                                                                  #        MMATRIX = 3X3 M MATRIX B-1      (STORED IN VAC AREA)
000166:
000167: 24,3720           40220        MOONMX             STQ      SETPD
000168: 24,3721           00051                                    EARTHMXX
000169: 24,3722           00011                                    8D
000170: 24,3723           77770                           AXT,1                                          #  B REQUIRES SL 0, SL 5 IN NEWANGLE
000171: 24,3724           00005                                    5
000172: 24,3725           65345                           DLOAD    PDDL                                  #  PD 10D        8-9D=BSUBO
000173: 24,3726           14017                                    BSUBO                                 #                10-11D=BDOT
000174: 24,3727           14011                                    BDOT
000175: 24,3730           45006                           PUSH     CALL                                  #  PD 12D
000176: 24,3731           53743                                    NEWANGLE                              #  EXIT WITH PD 8D AND MPAC= B   REVS B0
000177: 24,3732           71406                           PUSH     COS                                   #  PD 10D
000178: 24,3733           14041                           STODL    COB                                   #  PD 8D         COS(B) B-1
000179: 24,3734           77756                           SIN                                            #                SIN(B) B-1
000180: 24,3735           14043                           STODL    SOB                                   #  SETUP INPUT FOR NEWANGLE
000181: 24,3736           14015                                    FSUBO                                 #                        8-9D=FSUBO
000182: 24,3737           41525                           PDDL     PUSH                                  #  PD 10D THEN 12D       10-11D=FDOT
000183: 24,3740           14007                                    FDOT
000184: 24,3741           45170                           AXT,1    CALL                                  #  F REQUIRES SL 1, SL 6 IN NEWANGLE
000185: 24,3742           00004                                    4
000186: 24,3743           53743                                    NEWANGLE                              #  EXIT WITH PD 8D AND MPAC= F REVS B0
000187: 24,3744           14027                           STODL    AVECTR     +2                         #  SAVE F TEMP
000188: 24,3745           14013                                    NODIO                                 #                        8-9D=NODIO
000189: 24,3746           41525                           PDDL     PUSH                                  #  PD 10D THEN 12D       10-11D=NODDOT
000190: 24,3747           14005                                    NODDOT                                #                        MPAC=T
000191: 24,3750           45170                           AXT,1    CALL                                  #  NODE REQUIRES SL 0, SL 5 IN NEWANGLE
000192: 24,3751           00005                                    5
000193: 24,3752           53743                                    NEWANGLE                              #  EXIT WITH PD 8D AND MPAC= NODI REVS B0


000195: 24,3753           71406                           PUSH     COS                                   #  PD 10D        8-9D= NODI REVS B0
000196: 24,3754           77606                           PUSH                                           #  PD 12D        10-11D= COS(NODI) B-1
000197: 24,3755           00025                           STORE    AVECTR
000198: 24,3756           76405                           DMP      SL1R
000199: 24,3757           00041                                    COB                                   #                         COS(NODI) B-1
000200: 24,3760           14035                           STODL    BVECTR     +2                         #  PD 10D  20-25D=AVECTR= COB*SIN(NODI)
000201: 24,3761           76405                           DMP      SL1R                                  #                         SOB*SIN(NODI)
000202: 24,3762           00043                                    SOB
000203: 24,3763           14037                           STODL    BVECTR     +4                         #  PD 8D
000204: 24,3764           41556                           SIN      PUSH                                  #  PD 10D                -SIN(NODI) B-1
000205: 24,3765           77676                           DCOMP                                          #          26-31D=BVECTR= COB*COS(NODI)
000206: 24,3766           14033                           STODL    BVECTR                                #  PD 8D                  SOB*COS(NODI)
000207: 24,3767           00027                                    AVECTR     +2                         #  MOVE F FROM TEMP LOC. TO 504F
000208: 24,3770           14007                           STODL    504F
000209: 24,3771           76405                           DMP      SL1R
000210: 24,3772           00041                                    COB
000211: 24,3773           77650                           GOTO
000212: 24,3774           53671                                    MOONMXA
000213:
000214: 25,3671                                           BANK     25
000215: 25,2000                                           SETLOC   PLANTIN3
000216: 25,2000                                           BANK
000217: 25,3671                                           COUNT*   $$/LUROT
000218:
000219: 25,3671           14027        MOONMXA            STODL    AVECTR     +2
000220: 25,3672           00011                                    SINNODI                               #  8-9D=SIN(NODI) B-1
000221: 25,3673           76405                           DMP      SL1R
000222: 25,3674           00043                                    SOB
000223: 25,3675           14031                           STODL    AVECTR     +4                         #                         0
000224: 25,3676           06522                                    HI6ZEROS                              #        8-13D= CVECTR= -SOB  B-1
000225: 25,3677           57525                           PDDL     DCOMP                                 #  PD 10D                COB
000226: 25,3700           00043                                    SOB
000227: 25,3701           63325                           PDDL     PDVL                                  #  PD 12D THEN PD 14D
000228: 25,3702           00041                                    COB
000229: 25,3703           00033                                    BVECTR
000230: 25,3704           63361                           VXSC     PDVL                                  #  PD 20D        BVECTR*SINI  B-2
000231: 25,3705           14003                                    SINI
000232: 25,3706           00011                                    CVECTR
000233: 25,3707           53361                           VXSC     VAD                                   #  PD 14D        CVECTR*COSI  B-2
000234: 25,3710           14001                                    COSI
000235: 25,3711           77772                           VSL1
000236: 25,3712           24041                           STOVL    MMATRIX    +12D                       #  PD 8D  M2=BVECTR*SINI+CVECTR*COSI  B-1
000237: 25,3713           63361                           VXSC     PDVL                                  #  PD 14D
000238: 25,3714           14003                                    SINI                                  #                CVECTR*SINI  B-2
000239: 25,3715           00033                                    BVECTR
000240: 25,3716           52361                           VXSC     VSU                                   #  PD 8D         BVECTR*COSI  B-2
000241: 25,3717           14001                                    COSI
000242: 25,3720           65372                           VSL1     PDDL                                  #  PD 14D
000243: 25,3721           00007                                    504F                                  #  8-13D=DVECTR=BVECTR*COSI-CVECTR*SINI  B-1
000244: 25,3722           74346                           COS      VXSC


000246: 25,3723           00011                                    DVECTR
000247: 25,3724           73525                           PDDL     SIN                                   #  PD 20D  14-19D= DVECTR*COSF  B-2
000248: 25,3725           00007                                    504F
000249: 25,3726           52361                           VXSC     VSU                                   #  PD 14D          AVECTR*SINF  B-2
000250: 25,3727           00025                                    AVECTR
000251: 25,3730           77772                           VSL1
000252: 25,3731           14033                           STODL    MMATRIX    +6                         #  M1= AVECTR*SINF-DVECTR*COSF  B-1
000253: 25,3732           00007                                    504F
000254: 25,3733           74356                           SIN      VXSC                                  #  PD 8D
000255: 25,3734           71525                           PDDL     COS                                   #  PD 14D  8-13D=DVECTR*SINF B-2
000256: 25,3735           00007                                    504F
000257: 25,3736           53361                           VXSC     VAD                                   #  PD 8D         AVECTR*COSF B-2
000258: 25,3737           00025                                    AVECTR
000259: 25,3740           57572                           VSL1     VCOMP
000260: 25,3741           34025                           STCALL   MMATRIX                               #  M0= -(AVECTR*COSF+DVECTR*SINF)  B-1
000261: 25,3742           00051                                    EARTHMXX
000262:
000263:                                                                                                  #  COMPUTE X=X0+(XDOT)(T+T0)
000264:                                                                                                  #  8-9D= X0 (REVS B-0), PUSHLOC SET AT 12D
000265:                                                                                                  #  10-11D=XDOT (REVS/CSEC) SCALED B+23 FOR WEARTH,B+28 FOR NODDOT AND BDOT
000266:                                                                                                  #                        AND B+27 FOR FDOT
000267:                                                                                                  #   X1=DIFFERENCE IN 23 AND SCALING OF XDOT, =0 FOR WEARTH, 5 FOR NODDOT AND
000268:                                                                                                  #                                        BDOT AND 4 FOR FDOT
000269:                                                                                                  #  6-7D=T (CSEC B-28), TIMSUBO= (CSEC B-42 TRIPLE PREC.)
000270:
000271: 25,3743           54345        NEWANGLE           DLOAD    SR                                    #  ENTER PD 12D
000272: 25,3744           00007                                    6D
000273: 25,3745           20617                                    14D
000274: 25,3746           72371                           TAD      TLOAD                                 #  CHANGE MODE TO TP
000275: 25,3747           01707                                    TIMSUBO
000276: 25,3750           00155                                    MPAC
000277: 25,3751           14017                           STODL    TIMSUBM                               #  T+T0 CSEC B-42
000278: 25,3752           00020                                    TIMSUBM    +1
000279: 25,3753           77605                           DMP                                            #  PD 10D        MULT BY XDOT IN 10-11D
000280: 25,3754           43257                           SL*      DAD                                   #  PD 8D         ADD X0 IN 8-9D AFTER SHIFTING
000281: 25,3755           20206                                    5,1                                   #                SUCH THAT SCALING IS B-0
000282: 25,3756           67206                           PUSH     SLOAD                                 #  PD 10D  SAVE PARTIAL (X0+XDOT*T) IN 8-9D
000283: 25,3757           00017                                    TIMSUBM
000284: 25,3760           41261                           SL       DMP
000285: 25,3761           20212                                    9D
000286: 25,3762           00013                                    10D                                   #  XDOT
000287: 25,3763           43257                           SL*      DAD                                   #  PD 8D         SHIFT SUCH THAT THIS PART OF X
000288: 25,3764           20213                                    10D,1                                 #                IS SCALED REVS/CSEC B-0
000289: 25,3765           77600                           BOV                                            #  TURN OFF OVERFLOW IF SET BY SHIFT
000290: 25,3766           53767                                    +1                                    #  INSTRUCTION BEFORE EXITING
000291: 25,3767           77616                           RVQ                                            #  MPAC=X= X0+(XDOT)(T+T0)  REVS B0
000292:


000294:                                                                                                  #  ..... EARTHMX SUBROUTINE .....
000295:                                                                                                  #  SUBROUTINE TO COMPUTE THE TRANSFORMATION MATRIX M FOR THE EARTH
000296:
000297:                                                                                                  #  CALLING SEQUENCE
000298:                                                                                                  #        L       CALL
000299:                                                                                                  #        L+1             EARTHMX
000300:
000301:                                                                                                  #  SUBROUTINES USED
000302:                                                                                                  #        NEWANGLE
000303:
000304:                                                                                                  #  INPUT
000305:                                                                                                  #        INPUT AVAILABLE FROM LAUNCH DATA        AZO  REVS B-0
000306:                                                                                                  #                                                TEPHEM  CSEC B-42
000307:                                                                                                  #        6-7D= TIME CSEC B-28
000308:
000309:                                                                                                  #  OUTPUT
000310:                                                                                                  #        MMATRIX= 3X3 M MATRIX B-1       (STORED IN VAC AREA)
000311:
000312: 26,3743                                           BANK     26
000313: 26,2000                                           SETLOC   PLANTIN1
000314: 26,2000                                           BANK
000315: 26,3743                                           COUNT*   $$/LUROT
000316:
000317: 26,3743           40220        EARTHMX            STQ      SETPD                                 #  SET 8-9D=AZO
000318: 26,3744           00051                                    EARTHMXX
000319: 26,3745           00011                                    8D                                    #  10-11D=WEARTH
000320: 26,3746           77770                           AXT,1                                          #  FOR SL 5, AND SL 10 IN NEWANGLE
000321: 26,3747           00000                                    0
000322: 26,3750           65345                           DLOAD    PDDL                                  #  LEAVING PD SET AT 12D FOR NEWANGLE
000323: 26,3751           01712                                    AZO
000324: 26,3752           14021                                    WEARTH
000325: 26,3753           45006                           PUSH     CALL
000326: 26,3754           53743                                    NEWANGLE
000327: 26,3755           41401                           SETPD    PUSH                                  #  18-19D=504AZ
000328: 26,3756           00023                                    18D                                   #                         COS(AZ)   SIN(AZ)     0
000329: 26,3757           65346                           COS      PDDL                                  #  20-37D=  MMATRIX=     -SIN(AZ)   COS(AZ)     0    B-1
000330: 26,3760           00023                                    504AZ                                 #                            0         0        1
000331: 26,3761           65356                           SIN      PDDL
000332: 26,3762           06522                                    HI6ZEROS
000333: 26,3763           73525                           PDDL     SIN
000334: 26,3764           00023                                    504AZ
000335: 26,3765           65276                           DCOMP    PDDL
000336: 26,3766           00023                                    504AZ
000337: 26,3767           63346                           COS      PDVL
000338: 26,3770           06522                                    HI6ZEROS
000339: 26,3771           41525                           PDDL     PUSH
000340: 26,3772           06520                                    HIDPHALF
000341: 26,3773           77650                           GOTO
000342: 26,3774           00051                                    EARTHMXX
000343:


000345:                                                                                                  #  ..... EARTHL SUBROUTINE .....
000346:                                                                                                  #  SUBROUTINE TO COMPUTE L VECTOR FOR EARTH
000347:
000348:                                                                                                  #  CALLING SEQUENCE
000349:                                                                                                  #        L       CALL
000350:                                                                                                  #        L+1             EARTHL
000351:
000352:                                                                                                  #  INPUT
000353:                                                                                                  #        AXO,AYO SET AT LAUNCH TIME WITH AYO IMMEDIATELY FOLLOWING AXO IN CORE
000354:
000355:                                                                                                  #  OUTPUT
000356:                                                                                                  #                -AX
000357:                                                                                                  #        MPAC=   -AY     RADIANS B-0
000358:                                                                                                  #                  0
000359:
000360: 06,3753                                           BANK     06
000361: 06,2000                                           SETLOC   EARTHLOC
000362: 06,2000                                           BANK
000363: 06,3753                                           COUNT*   $$/LUROT
000364:
000365: 06,3753           57545        EARTHL             DLOAD    DCOMP
000366: 06,3754           01716                                    AXO
000367: 06,3755           14017                           STODL    504LPL
000368: 06,3756           01714                                    -AYO
000369: 06,3757           14021                           STODL    504LPL     +2
000370: 06,3760           24007                                    LO6ZEROS
000371: 06,3761           24023                           STOVL    504LPL     +4
000372: 06,3762           00017                                    504LPL
000373: 06,3763           77616                           RVQ
000374:


000376:                                                                                                  #  CONSTANTS AND ERASABLE ASSIGNMENTS
000377:
000378: 06,3764  12,2004               1B1                =        DP1/2                                 #  1  SCALED B-1
000379: 06,3764  0000050               RPREXIT            =        S1                                    #  R-TO-RP AND RP-TO-R SUBR EXIT
000380: 06,3764  0000051               EARTHMXX           =        S2                                    #  EARTHMX, MOONMX SUBR. EXITS
000381: 06,3764                        504RPR             =        0D                                    #  6 REGS        R OR RP VECTOR
000382: 06,3764                        SINNODI            =        8D                                    #  2             SIN(NODI)
000383: 06,3764                        DVECTR             =        8D                                    #  6             D VECTOR MOON
000384: 06,3764                        CVECTR             =        8D                                    #  6             C VECTR MOON
000385: 06,3764                        504AZ              =        18D                                   #  2             AZ
000386: 06,3764                        TIMSUBM            =        14D                                   #  3             TIME SUB M (MOON) T+T0 IN GETAZ
000387: 06,3764                        504LPL             =        14D                                   #  6             L OR LP VECTOR
000388: 06,3764                        AVECTR             =        20D                                   #  6             A VECTOR (MOON)
000389: 06,3764                        BVECTR             =        26D                                   #  6             B VECTOR (MOON)
000390: 06,3764                        MMATRIX            =        20D                                   #  18            M MATRIX
000391: 06,3764                        COB                =        32D                                   #  2             COS(B) B-1
000392: 06,3764                        SOB                =        34D                                   #  2             SIN(B) B-1
000393: 06,3764                        504F               =        6D                                    #  2             F(MOON)
000394:

End of include-file PLANETARY_INERTIAL_ORIENTATION.agc.  Parent file is MAIN.agc


