
Source Code
000001:                                                                                                 #  Copyright:     Public domain.
000002:                                                                                                 #  Filename:      POWERED_FLIGHT_SUBROUTINES.agc
000003:                                                                                                 #  Purpose:       Part of the source code for Luminary 1A build 099.
000004:                                                                                                 #                 It is part of the source code for the Lunar Module's (LM)
000005:                                                                                                 #                 Apollo Guidance Computer (AGC), for Apollo 11.
000006:                                                                                                 #  Assembler:     yaYUL
000007:                                                                                                 #  Contact:       Ron Burkey <info@sandroid.org>.
000008:                                                                                                 #  Website:       www.ibiblio.org/apollo.
000009:                                                                                                 #  Pages: 1259-1267
000010:                                                                                                 #  Mod history:   2009-05-26 RSB  Adapted from the corresponding
000011:                                                                                                 #                                 Luminary131 file, using page
000012:                                                                                                 #                                 images from Luminary 1A.
000013:
000014:                                                                                                 #  This source code has been transcribed or otherwise adapted from
000015:                                                                                                 #  digitized images of a hardcopy from the MIT Museum.  The digitization
000016:                                                                                                 #  was performed by Paul Fjeld, and arranged for by Deborah Douglas of
000017:                                                                                                 #  the Museum.  Many thanks to both.  The images (with suitable reduction
000018:                                                                                                 #  in storage size and consequent reduction in image quality as well) are
000019:                                                                                                 #  available online at www.ibiblio.org/apollo.  If for some reason you
000020:                                                                                                 #  find that the images are illegible, contact me at info@sandroid.org
000021:                                                                                                 #  about getting access to the (much) higher-quality images which Paul
000022:                                                                                                 #  actually created.
000023:
000024:                                                                                                 #  Notations on the hardcopy document read, in part:
000025:
000026:                                                                                                 #         Assemble revision 001 of AGC program LMY99 by NASA 2021112-61
000027:                                                                                                 #         16:27 JULY 14, 1969
000028:
000029:                                                                                                 #  Page 1259
000030: 14,3774                                          BANK     14                                    #  SAME FBANK AS THE FINDCDUD SUB-PROGRAM
000031: 23,2000                                          SETLOC   POWFLITE
000032: 23,2000                                          BANK
000033:
000034: 23,3537     0142                                 EBANK=   DEXDEX
000035: 23,3537                                          COUNT*   $$/POWFL
000036:
000037:                                                                                                 #  CDUTRIG, CDUTRIG1, CDUTRIG2, AND CD*TR*GS ALL COMPUTE THE SINES AND
000038:                                                                                                 #  COSINES OF THREE 2'S COMPLEMENT ANGLES AND PLACE THE RESULT, DOUBLE
000039:                                                                                                 #  PRECISION, IN THE SAME ORDER AS THE INPUTS, AT SINCDU AND COSCDU.  AN
000040:                                                                                                 #  ADDITIONAL OUTPUT IS THE 1'S COMPLEMENT ANGLES AT CDUSPOT.  THESE
000041:                                                                                                 #  ROUTINES GO OUT OF THEIR WAY TO LEAVE THE MPAC AREA AS THEY FIND IT.
000042:                                                                                                 #  EXCEPT FOR THE GENERALLY UNIMPORTANT MPAC +2.  THEY DIFFER ONLY IN
000043:                                                                                                 #  WHERE THEY GET THE ANGLES, AND IN METHOD OF CALLING.
000044:
000045:                                                                                                 #  CDUTRIG (AND CDUTRIG1, WHICH CAN BE CALLED IN BASIC) COMPUTE THE
000046:                                                                                                 #  SINES AND COSINES FROM THE CURRENT CONTENTS OF THE CDU REGISTERS.
000047:                                                                                                 #  THE CONTENTS OF CDUTEMP, ETC., ARE NOT TOUCHED SO THAT THEY MAY
000048:                                                                                                 #  CONTINUE TO FORM A CONSISTENT SET WITH THE LATEST PIPA READINGS.
000049:
000050:                                                                                                 #  CDUTRIG1 IS LIKE CDUTRIG EXCEPT THAT IT CAN BE CALLED IN BASIC.
000051:
000052:                                                                                                 #  CD*TR*GS FINDS CDU VALUES IN CDUSPOT RATHER THAN IN CDUTEMP.  THIS
000053:                                                                                                 #  ALLOWS USERS TO MAKE TRANSFORMATIONS USING ARBITRARY ANGLES, OR REAL
000054:                                                                                                 #  ANGLES IN AN ORDER OTHER THAN X Y Z.  A CALL TO THIS ROUTINE IS
000055:                                                                                                 #  NECESSARY IN PREPARATION FOR A CALL TO AX*SR*T IN EITHER OF ITS TWO
000056:                                                                                                 #  MODES (SMNB OR NBSM).  SINCE AX*SR*T EXPECTS TO FIND THE SINES AND
000057:                                                                                                 #  COSINES IN THE ORDER Y Z X THE ANGLES MUST HAVE BEEN PLACED IN CDUSPOT
000058:                                                                                                 #  IN THIS ORDER.  CD*TR*GS NEED NOT BE REPEATED WHEN AX*SR*T IS CALLED
000059:                                                                                                 #  MORE THAN ONCE, PROVIDED THE ANGLES HAVE NOT CHANGED.  NOTE THAT SINCE
000060:                                                                                                 #  IT CLOBBERS BUF2 (IN THE SINE AND COSINE ROUTINES) CD*TR*GS CANNOT BE
000061:                                                                                                 #  CALLED USING BANKCALL.  SORRY.
000062:
000063:                                                                                                 #  CD*TR*G IS LIKE CD*TR*GS EXCEPT THAT IT CAN BE CALLED IN
000064:                                                                                                 #  INTERPRETIVE.
000065:
000066: 23,3537           77776        CDUTRIG           EXIT
000067: 23,3540           03547                          TC       CDUTRIGS
000068: 23,3541           06037                          TC       INTPRET
000069: 23,3542           77616                          RVQ
000070:
000071: 23,3543           77776        CD*TR*G           EXIT
000072: 23,3544           03555                          TC       CD*TR*GS
000073: 23,3545           06037                          TC       INTPRET
000074: 23,3546           77616                          RVQ
000075:
000076: 23,3547           30032        CDUTRIGS          CA       CDUX
000077: 23,3550           54772                          TS       CDUSPOT    +4
000078: 23,3551           30033                          CA       CDUY
000079: 23,3552           54766                          TS       CDUSPOT
000080:                                                                                                 #  Page 1260
000081: 23,3553           30034                          CA       CDUZ
000082: 23,3554           54770                          TS       CDUSPOT    +2
000083:
000084: 23,3555           00006        CD*TR*GS          EXTEND
000085: 23,3556           22142                          QXCH     TEM2
000086: 23,3557           34751                          CAF      FOUR
000087: 23,3560           76242        TR*GL**P          MASK     SIX                                   #  MAKE IT EVEN AND SMALLER
000088: 23,3561           54143                          TS       TEM3
000089: 23,3562           50143                          INDEX    TEM3
000090: 23,3563           30766                          CA       CDUSPOT
000091: 23,3564           52155                          DXCH     MPAC                                  #  STORING 2'S COMP ANGLE, LOADING MPAC
000092: 23,3565           52127                          DXCH     VBUF       +4                         #  STORING MPAC FOR LATER RESTORATION
000093: 23,3566           04713                          TC       USPRCADR
000094: 23,3567           21576                          CADR     CDULOGIC
000095: 23,3570           00006                          EXTEND
000096: 23,3571           30155                          DCA      MPAC
000097: 23,3572           50143                          INDEX    TEM3
000098: 23,3573           52767                          DXCH     CDUSPOT                               #  STORING 1'S COMPLEMENT ANGLE
000099: 23,3574           04713                          TC       USPRCADR
000100: 23,3575           01517                          CADR     COSINE
000101: 23,3576           52155                          DXCH     MPAC
000102: 23,3577           50143                          INDEX    TEM3
000103: 23,3600           52745                          DXCH     COSCDU                                #  STORING COSINE
000104: 23,3601           00006                          EXTEND
000105: 23,3602           50143                          INDEX    TEM3
000106: 23,3603           30767                          DCA      CDUSPOT                               #  LOADING 1'S COMPLEMENT ANGLE
000107: 23,3604           04713                          TC       USPRCADR
000108: 23,3605           01531                          CADR     SINE       +1                         #  SINE +1 EXPECTS ARGUMENT IN A AND L
000109: 23,3606           52127                          DXCH     VBUF       +4                         #  BRINGING UP PRIOR MPAC TO BE RESTORED
000110: 23,3607           52155                          DXCH     MPAC
000111: 23,3610           50143                          INDEX    TEM3
000112: 23,3611           52737                          DXCH     SINCDU
000113: 23,3612           10143                          CCS      TEM3
000114: 23,3613           13560                          TCF      TR*GL**P
000115: 23,3614           00142                          TC       TEM2
000116:                                                                                                 #  Page 1261
000117:                                                                                                 #  *******************************************************************************************************
000118:                                                                                                 #  QUICTRIG, INTENDED FOR QUIDANCE CYCLE USE WHERE TIME IS CRITICAL, IS A MUCH FASTER VERSION OF CD*TR*GS.
000119:                                                                                                 #  QUICTRIG COMPUTES AND STORES THE SINES AND COSINES OF THE 2'S COMPLEMENT ANGLES AT CDUSPOT, CDUSPOT +2,
000120:                                                                                                 #  AND CDUSPOT +4.  UNLIKE CD*TR*GS, QUICTRIG DOES NOT LEAVE THE 1'S COMPLEMENT VERSIONS OF THE ANGLES IN
000121:                                                                                                 #  CDUSPOT.  QUICTRIG'S EXECUTION TIME IS 4.1 MS;  THIS IS 10 TIMES AS FAST AS CD*TR*GS.  QUICTRIG MAY BE
000122:                                                                                                 #  CALLED FROM INTERPRETIVE AS AN RTB OP-CODE, OR FROM BASIC VIA BANKCALL OR IBNKCALL.
000123:
000124: 23,3615           00004        QUICTRIG          INHINT                                         #  INHINT SINCE DAP USES THE SAME TEMPS
000125: 23,3616           00006                          EXTEND
000126: 23,3617           22061                          QXCH     ITEMP1
000127: 23,3620           34751                          CAF      FOUR
000128: 23,3621           76242                 +4       MASK     SIX
000129: 23,3622           54062                          TS       ITEMP2
000130: 23,3623           50062                          INDEX    ITEMP2
000131: 23,3624           30766                          CA       CDUSPOT
000132: 23,3625           05033                          TC       SPSIN
000133: 23,3626           00006                          EXTEND
000134: 23,3627           74736                          MP       BIT14                                 #  SCALE DOWN TO MATCH INTERPRETER OUTPUTS
000135: 23,3630           50062                          INDEX    ITEMP2
000136: 23,3631           52737                          DXCH     SINCDU
000137: 23,3632           50062                          INDEX    ITEMP2
000138: 23,3633           30766                          CA       CDUSPOT
000139: 23,3634           05032                          TC       SPCOS
000140: 23,3635           00006                          EXTEND
000141: 23,3636           74736                          MP       BIT14
000142: 23,3637           50062                          INDEX    ITEMP2
000143: 23,3640           52745                          DXCH     COSCDU
000144: 23,3641           10062                          CCS      ITEMP2
000145: 23,3642           13621                          TCF      QUICTRIG   +4
000146: 23,3643           30061                          CA       ITEMP1
000147: 23,3644           00003                          RELINT
000148: 23,3645           00000                          TC       A
000149:
000150:                                                                                                 #  Page 1262
000151:                                                                                                 # ****************************************************************************
000152:                                                                                                 #  THESE INTERFACE ROUTINES MAKE IT POSSIBLE TO CALL AX*SR*T, ETC., IN
000153:                                                                                                 #  INTERPRETIVE.  LATER, WHERE POSSIBLE, THEY WILL BE ELIMINATED.
000154:
000155:                                                                                                 #  THESE INTERFACE ROUTINES ARE PERMANENT.  ALL RESTORE USER'S EBANK
000156:                                                                                                 #  SETTING. ALL ARE STRICT INTERPRETIVE SUBROUTINES, CALLED USING "CALL",
000157:                                                                                                 #  RETURNING VIA QPRET.  ALL EXPECT AND RETURN THE VECTOR TO BE TRANSFORMED
000158:                                                                                                 #  INTERPRETER-STYLE IN MPAC; COMPONENTS AT MPAC, MPAC +3, AND MPAC +5.
000159:
000160:                                                                                                 #  TRG*SMNB AND TRG*NBSM BOTH EXPECT TO SEE THE 2'S COMPLEMENT ANGLES
000161:                                                                                                 #  AT CDUSPOT (ORDER Y Z X, AT CDUSPOT, CDUSPOT +2, AND CDUSPOT +4; ODD
000162:                                                                                                 #  LOCATIONS NEED NOT BE ZEROED).  TRG*NBSM DOES THE NB TO SM TRANSFORMATION;
000163:                                                                                                 #  TRG*SMNB, VICE VERSA.
000164:
000165:                                                                                                 #  CDU*NBSM DOES ITS TRANSFORMATION USING THE PRESENT CONTENTS OF
000166:                                                                                                 #  THE CDL COUNTERS.  OTHERWISE IT IS LIKE TRG*NBSM.
000167:
000168:                                                                                                 #  CDU*SMNB IS THE COMPLEMENT OF CDU*NBSM.
000169:
000170: 23,3646           77776        CDU*SMNB          EXIT
000171: 23,3647           03547                          TC       CDUTRIGS
000172: 23,3650           13653                          TCF      C*MM*N1
000173:
000174: 23,3651           77776        TRG*SMNB          EXIT
000175: 23,3652           03555                          TC       CD*TR*GS
000176: 23,3653           07532        C*MM*N1           TC       MPACVBUF                              #  AX*SR*T EXPECTS VECTOR IN VBUF
000177: 23,3654           46245                          CS       THREE                                 #  SIGNAL FOR SM TO NB TRANSFORMATION.
000178: 23,3655           03675        C*MM*N2           TC       AX*SR*T
000179: 23,3656           06037                          TC       INTPRET
000180: 23,3657           43575                          VLOAD    RVQ
000181: 23,3660           00123                                   VBUF
000182:
000183: 23,3661           77776        CDU*NBSM          EXIT
000184: 23,3662           03547                          TC       CDUTRIGS
000185: 23,3663           13666                          TCF      C*MM*N3
000186:
000187: 23,3664           77776        TRG*NBSM          EXIT
000188: 23,3665           03555                          TC       CD*TR*GS
000189: 23,3666           07532        C*MM*N3           TC       MPACVBUF                              #  FOR AX*SR*T
000190: 23,3667           36245                          CA       THREE                                 #  SIGNAL FOR NB TO SM TRANSFORMATION
000191: 23,3670           13655                          TCF      C*MM*N2
000192:
000193:                                                                                                 #  *NBSM* AND *SMNB* EXPECT TO SEE THE SINES AND COSINES (AT SINCDU
000194:                                                                                                 #  AND COSCDU) RATHER THAN THE ANGLES THEMSELVES.  OTHERWISE THEY ARE
000195:                                                                                                 #  LIKE TRG*NBSM AND TRG*SMNB.
000196:
000197:                                                                                                 #  NOTE THAT JUST AS CD*TR*GS NEED BE CALLED ONLY ONCE FOR EACH SERIES
000198:                                                                                                 #  OF TRANSFORMATIONS USING THE SAME ANGLES, SO TOO ONLY ONE OF TRG*NBSM
000199:                                                                                                 #  Page 1263
000200:                                                                                                 #  AND TRG*SMNB NEED BE CALLED FOR EACH SERIES.  FOR SUBSEQUENT TRANFOR-
000201:                                                                                                 #  MATIONS USE *NBSM* AND *SMNB*.
000202:
000203: 23,3671           77776        *SMNB*            EXIT
000204: 23,3672           13653                          TCF      C*MM*N1
000205:
000206: 23,3673           77776        *NBSM*            EXIT
000207: 23,3674           13666                          TCF      C*MM*N3
000208:
000209:                                                                                                 #  AX*SR*T COMBINES THE OLD SMNB AND NBSM.  FOR THE NB TO SM
000210:                                                                                                 #  TRANSFORMATION, ENTER WITH +3 IN A.  FOR SM TO NB, ENTER WITH -3.
000211:                                                                                                 #  THE VECTOR TO BE TRANSFORMED ARRIVES, AND IS RETURNED, IN VBUF.
000212:                                                                                                 #  AX*SR*T EXPECTS TO FIND THE SINES AND COSINES OF THE ANGLES OF ROTATION
000213:                                                                                                 #  AT SINCDU AND COSCDU, IN THE ORDER Y Z X.  A CALL TO CD*TR*GS, WITH
000214:                                                                                                 #  THE 2'S COMPLEMENT ANGLES (ORDER Y Z X) AT CDUSPOT, WILL TAKE CARE OF
000215:                                                                                                 #  THIS.  HERE IS A SAMPLE CALLING SEQUENCE:--
000216:                                                                                                 #                 TC      CDUTRIGS
000217:                                                                                                 #                 CS      THREE           # ("CA THREE" FOR NBSM)
000218:                                                                                                 #                 TC      AX*SR*T
000219:                                                                                                 #  THE CALL TO CD*TR*GS NEED NOT BE REPEATED, WHEN AX*SR*T IS CALLED MORE
000220:                                                                                                 #  THAN ONCE, UNLESS THE ANGLES HAVE CHANGED.
000221:
000222:                                                                                                 #  AX*SR*T IS GUARANTEED SAFE ONLY FOR VECTORS OF MAGNITUDE LESS THAN
000223:                                                                                                 #  UNITY.  A LOOK AT THE CASE IN WHICH A VECTOR OF GREATER MAGNITUDE
000224:                                                                                                 #  HAPPENS TO LIE ALONG AN AXIS OF THE SYSTEM TO WHICH IT IS TO BE TRANS-
000225:                                                                                                 #  FORMED CONVINCES ONE THAT THIS IS A RESTRICTION WHICH MUST BE ACCEPTED.
000226:
000227: 23,3675           54142        AX*SR*T           TS       DEXDEX                                #  WHERE IT BECOMES THE INDEX OF INDEXES.
000228: 23,3676           00006                          EXTEND
000229: 23,3677           22145                          QXCH     RTNSAVER
000230:
000231: 23,3700           10142        R*TL**P           CCS      DEXDEX                                #         +3 --> 0        -3 --> 2
000232: 23,3701           40142                          CS       DEXDEX                                #  THUS:          +2 --> 1        -2 --> 1
000233: 23,3702           66245                          AD       THREE                                 #                 +1 --> 2        -1 --> 0
000234: 23,3703           00006                          EXTEND
000235: 23,3704           50000                          INDEX    A
000236: 23,3705           33764                          DCA      INDEXI
000237: 23,3706           52144                          DXCH     DEXI
000238:
000239: 23,3707           34753                          CA       ONE
000240: 23,3710           54130                          TS       BUF
000241: 23,3711           00006                          EXTEND
000242: 23,3712           50143                          INDEX    DEX1
000243: 23,3713           40123                          DCS      VBUF
000244: 23,3714           13716                          TCF      LOOP1                                 #  REALLY BE A SUBTRACT, AND VICE VERSA
000245:
000246: 23,3715           52131        LOOP2             DXCH     BUF                                   #  LOADING VECTOR COMPONENT, STORING INDEX
000247:                                                                                                 #  Page 1264
000248: 23,3716           52155        LOOP1             DXCH     MPAC
000249: 23,3717           33762                          CA       SINSLOC
000250: 23,3720           60143                          AD       DEX1
000251: 23,3721           54116                          TS       ADDRWD
000252:
000253: 23,3722           07107                          TC       DMPSUB                                #  MULTIPLY AT SIN(CDUANGLE)
000254: 23,3723           10142                          CCS      DEXDEX
000255: 23,3724           52155                          DXCH     MPAC                                  #  NBSM CASE
000256: 23,3725           13730                          TCF      +3
000257: 23,3726           00006                          EXTEND                                         #  SMNB CASE
000258: 23,3727           40155                          DCS      MPAC
000259: 23,3730           52160                          DXCH     TERM1TMP
000260:
000261: 23,3731           36242                          CA       SIX                                   #  SINCDU AND COSCDU (EACH 6 WORDS) MUST
000262: 23,3732           26116                          ADS      ADDRWD                                #         BE CONSECUTIVE AND IN THAT ORDER
000263:
000264: 23,3733           00006                          EXTEND
000265: 23,3734           50130                          INDEX    BUF
000266: 23,3735           50143                          INDEX    DEX1
000267: 23,3736           30123                          DCA      VBUF
000268: 23,3737           52155                          DXCH     MPAC
000269: 23,3740           07107                          TC       DMPSUB                                #  MULTIPLY BY COS(CDUANGLE)
000270: 23,3741           52155                          DXCH     MPAC
000271: 23,3742           20160                          DAS      TERM1TMP
000272: 23,3743           52160                          DXCH     TERM1TMP
000273: 23,3744           20001                          DDOUBL
000274: 23,3745           50130                          INDEX    BUF
000275: 23,3746           50143                          INDEX    DEX1
000276: 23,3747           52123                          DXCH     VBUF
000277: 23,3750           52131                          DXCH     BUF                                   #  LOADING INDEX, STORING VECTOR COMPONENT
000278:
000279: 23,3751           10000                          CCS      A                                     #  'CAUSE THAT'S WHERE THE INDEX NOW IS
000280: 23,3752           13715                          TCF      LOOP2
000281:
000282: 23,3753           00006                          EXTEND
000283: 23,3754           26142                          DIM      DEXDEX                                #  DECREMENT MAGNITUDE PRESERVING SIGN
000284:
000285: 23,3755           10142        TSTPOINT          CCS      DEXDEX                                #  ONLY THE BRANCHING FUNCTION IS USED
000286: 23,3756           13700                          TCF      R*TL**P
000287: 23,3757           00145                          TC       RTNSAVER
000288: 23,3760           13700                          TCF      R*TL**P
000289: 23,3761           00145                          TC       RTNSAVER
000290:
000291: 23,3762           00736        SINSLOC           ADRES    SINCDU                                #  FOR USE IN SETTING ADDRWD
000292:
000293: 23,3763           00004        INDEXI            DEC      4          B-14                       #  **********   DON'T   ***********
000294: 23,3764           00002                          DEC      2          B-14                       #  **********   TOUCH   ***********
000295: 23,3765           00000                          DEC      0          B-14                       #  **********   THESE   ***********
000296:                                                                                                 #  Page 1265
000297: 23,3766           00004                          DEC      4          B-14                       #  ********** CONSTANTS ***********
000298:
000299:                                                                                                 #  ******************************************************************************
000300:
000301: 10,2030                                          BANK     10
000302: 10,2000                                          SETLOC   FLESHLOC
000303: 10,2000                                          BANK
000304: 10,2030                                          COUNT*   $$/POWFL
000305:
000306:                                                                                                 #  ROUTINE FLESHPOT COMPUTES THE BODY-STABLE MEMBER TRANSFORMATION MATRIX (COMMONLY CALLED XNB) AND STORES
000307:                                                                                                 #  IT IN THE LOCATIONS SPECIFIED BY THE ECADR ENTERING IN A.
000308:
000309: 10,2030           77776        CALCSMSC          EXIT
000310: 10,2031           04616                          TC       BANKCALL
000311: 10,2032           20036                          CADR     FLESHPOT   -1
000312: 10,2033           06037                          TC       INTPRET
000313: 10,2034           77616                          RVQ
000314:
000315: 10,2035           02664        XNBECADR          ECADR    XNB
000316:
000317: 10,2036           32035                 -1       CAF      XNBECADR
000318:
000319: 10,2037           54142        FLESHPOT          TS       TEM2
000320: 10,2040           56003                          XCH      EBANK
000321: 10,2041           56142                          XCH      TEM2
000322: 10,2042           74357                          MASK     LOW8
000323: 10,2043           65007                          AD       OCT1400
000324: 10,2044           54141                          TS       TEM1
000325:
000326: 10,2045           00006                          EXTEND
000327: 10,2046           30745                          DCA      COSCDUY
000328: 10,2047           52155                          DXCH     MPAC
000329: 10,2050           07103                          TC       DMP
000330: 10,2051           00746                          ADRES    COSCDUZ
000331: 10,2052           52155                          DXCH     MPAC
000332: 10,2053           20001                          DDOUBL
000333: 10,2054           50141                          INDEX    TEM1
000334: 10,2055           52001                          DXCH     0                                     #  = COSY COSZ
000335:
000336: 10,2056           00006                          EXTEND
000337: 10,2057           30741                          DCA      SINCDUZ
000338: 10,2060           50141                          INDEX    TEM1
000339: 10,2061           52003                          DXCH     2                                     #  = SINZ
000340:
000341: 10,2062           00006                          EXTEND
000342: 10,2063           40737                          DCS      SINCDUY
000343: 10,2064           52155                          DXCH     MPAC
000344: 10,2065           07107                          TC       DMPSUB                                #  ADDRWD SET TO COSCDUZ
000345:                                                                                                 #  Page 1266
000346: 10,2066           52155                          DXCH     MPAC
000347: 10,2067           20001                          DDOUBL
000348: 10,2070           50141                          INDEX    TEM1
000349: 10,2071           52005                          DXCH     4                                     #  = - SINY COSZ
000350:
000351: 10,2072           00006                          EXTEND
000352: 10,2073           40743                          DCS      SINCDUX
000353: 10,2074           52155                          DXCH     MPAC
000354: 10,2075           07107                          TC       DMPSUB                                #  ADDRWD SET TO COSCDUZ STILL
000355: 10,2076           52155                          DXCH     MPAC
000356: 10,2077           20001                          DDOUBL
000357: 10,2100           52160                          DXCH     MPAC       +3
000358:
000359: 10,2101           00006                          EXTEND
000360: 10,2102           40743                          DCS      SINCDUX
000361: 10,2103           52155                          DXCH     MPAC
000362: 10,2104           07103                          TC       DMP
000363: 10,2105           00740                          ADRES    SINCDUZ
000364: 10,2106           00006                          EXTEND
000365: 10,2107           40155                          DCS      MPAC
000366: 10,2110           52162                          DXCH     MPAC       +5
000367: 10,2111           07103                          TC       DMP
000368: 10,2112           00736                          ADRES    SINCDUY
000369: 10,2113           52155                          DXCH     MPAC
000370: 10,2114           20001                          DDOUBL
000371: 10,2115           20001                          DDOUBL
000372: 10,2116           52162                          DXCH     MPAC       +5
000373:
000374: 10,2117           52155                          DXCH     MPAC
000375: 10,2120           07103                          TC       DMP
000376: 10,2121           00744                          ADRES    COSCDUY
000377: 10,2122           52155                          DXCH     MPAC
000378: 10,2123           20001                          DDOUBL
000379: 10,2124           20001                          DDOUBL
000380: 10,2125           52131                          DXCH     BUF
000381:
000382: 10,2126           00006                          EXTEND
000383: 10,2127           30745                          DCA      COSCDUY
000384: 10,2130           52155                          DXCH     MPAC
000385: 10,2131           07103                          TC       DMP
000386: 10,2132           00750                          ADRES    COSCDUX
000387: 10,2133           52155                          DXCH     MPAC
000388: 10,2134           20001                          DDOUBL
000389: 10,2135           20162                          DAS      MPAC       +5
000390:
000391: 10,2136           00006                          EXTEND
000392: 10,2137           30737                          DCA      SINCDUY
000393: 10,2140           52155                          DXCH     MPAC
000394: 10,2141           07107                          TC       DMPSUB                                #  ADDRWD SET TO COSCDUX
000395: 10,2142           52155                          DXCH     MPAC
000396:
000397:                                                                                                 #  Page 1267
000398: 10,2143           20001                          DDOUBL
000399: 10,2144           20131                          DAS      BUF
000400:
000401: 10,2145           52131                          DXCH     BUF
000402: 10,2146           52155                          DXCH     MPAC
000403:
000404: 10,2147           00006                          EXTEND
000405: 10,2150           30155                          DCA      MPAC
000406: 10,2151           50141                          INDEX    TEM1
000407: 10,2152           52015                          DXCH     14                                    #  = - SINY COSX + SINX SINZ COSY
000408:
000409: 10,2153           00006                          EXTEND
000410: 10,2154           30160                          DCA      MPAC       +3
000411: 10,2155           50141                          INDEX    TEM1
000412: 10,2156           52017                          DXCH     16                                    #  = - SINX COSZ
000413:
000414: 10,2157           00006                          EXTEND
000415: 10,2160           30162                          DCA      MPAC       +5
000416: 10,2161           50141                          INDEX    TEM1
000417: 10,2162           52021                          DXCH     20                                    #  = COSX COSY - SINX SINY SINZ
000418:
000419: 10,2163           30141                          CA       TEM1
000420: 10,2164           54116                          TS       ADDRWD
000421: 10,2165           00006                          EXTEND
000422: 10,2166           30006                          DCA      Z
000423: 10,2167           64751                          AD       FOUR
000424: 10,2170           52165                          DXCH     LOC
000425: 10,2171           34744                          CAF      BIT8
000426: 10,2172           54023                          TS       EDOP
000427: 10,2173           17460                          TCF      VXV
000428: 10,2174           52155                          DXCH     MPAC
000429: 10,2175           20001                          DDOUBL
000430: 10,2176           50141                          INDEX    TEM1
000431: 10,2177           52007                          DXCH     6
000432:
000433: 10,2200           52160                          DXCH     MPAC       +3
000434: 10,2201           20001                          DDOUBL
000435: 10,2202           50141                          INDEX    TEM1
000436: 10,2203           52011                          DXCH     10
000437:
000438: 10,2204           52162                          DXCH     MPAC       +5
000439: 10,2205           20001                          DDOUBL
000440: 10,2206           50141                          INDEX    TEM1
000441: 10,2207           52013                          DXCH     12
000442:
000443: 10,2210           30142                          CA       TEM2
000444: 10,2211           54003                          TS       EBANK
000445: 10,2212           14631                          TCF      SWRETURN
000446:

End of include-file POWERED_FLIGHT_SUBROUTINES.agc.  Parent file is MAIN.agc


