
Source Code


000002:                                                                                                  ## Copyright:   Public domain.
000003:                                                                                                  ## Filename:    POWERED_FLIGHT_SUBROUTINES.agc
000004:                                                                                                  ## Purpose:     Part of the source code for Luminary 1A build 099.
000005:                                                                                                  ##              It is part of the source code for the Lunar Module's (LM)
000006:                                                                                                  ##              Apollo Guidance Computer (AGC), for Apollo 11.
000007:                                                                                                  ## Assembler:   yaYUL
000008:                                                                                                  ## Contact:     Ron Burkey <info@sandroid.org>.
000009:                                                                                                  ## Website:     www.ibiblio.org/apollo.
000010:                                                                                                  ## Pages:       1259-1267
000011:                                                                                                  ## Mod history: 2009-05-26 RSB  Adapted from the corresponding
000012:                                                                                                  ##                              Luminary131 file, using page
000013:                                                                                                  ##                              images from Luminary 1A.
000014:                                                                                                  ##              2011-01-06 JL   Fixed pseudo-label indentation.
000015:                                                                                                  ##              2016-12-17 RSB  Proofed text comments with octopus/ProoferComments
000016:                                                                                                  ##                              and corrected the errors found.
000017:                                                                                                  ##
000018:                                                                                                  ## This source code has been transcribed or otherwise adapted from
000019:                                                                                                  ## digitized images of a hardcopy from the MIT Museum.  The digitization
000020:                                                                                                  ## was performed by Paul Fjeld, and arranged for by Deborah Douglas of
000021:                                                                                                  ## the Museum.  Many thanks to both.  The images (with suitable reduction
000022:                                                                                                  ## in storage size and consequent reduction in image quality as well) are
000023:                                                                                                  ## available online at www.ibiblio.org/apollo.  If for some reason you
000024:                                                                                                  ## find that the images are illegible, contact me at info@sandroid.org
000025:                                                                                                  ## about getting access to the (much) higher-quality images which Paul
000026:                                                                                                  ## actually created.
000027:                                                                                                  ##
000028:                                                                                                  ## Notations on the hardcopy document read, in part:
000029:                                                                                                  ##
000030:                                                                                                  ##      Assemble revision 001 of AGC program LMY99 by NASA 2021112-61
000031:                                                                                                  ##      16:27 JULY 14, 1969
000032:


000034: 14,3774                                           BANK     14                                    #  SAME FBANK AS THE FINDCDUD SUB-PROGRAM
000035: 23,2000                                           SETLOC   POWFLITE
000036: 23,2000                                           BANK
000037:
000038: 23,3537     0142                                  EBANK=   DEXDEX
000039: 23,3537                                           COUNT*   $$/POWFL
000040:
000041:                                                                                                  #  CDUTRIG, CDUTRIG1, CDUTRIG2, AND CD*TR*GS ALL COMPUTE THE SINES AND
000042:                                                                                                  #  COSINES OF THREE 2'S COMPLEMENT ANGLES AND PLACE THE RESULT, DOUBLE
000043:                                                                                                  #  PRECISION, IN THE SAME ORDER AS THE INPUTS, AT SINCDU AND COSCDU.  AN
000044:                                                                                                  #  ADDITIONAL OUTPUT IS THE 1'S COMPLEMENT ANGLES AT CDUSPOT.  THESE
000045:                                                                                                  #  ROUTINES GO OUT OF THEIR WAY TO LEAVE THE MPAC AREA AS THEY FIND IT.
000046:                                                                                                  #  EXCEPT FOR THE GENERALLY UNIMPORTANT MPAC +2.  THEY DIFFER ONLY IN
000047:                                                                                                  #  WHERE THEY GET THE ANGLES, AND IN METHOD OF CALLING.
000048:
000049:                                                                                                  #  CDUTRIG (AND CDUTRIG1, WHICH CAN BE CALLED IN BASIC) COMPUTE THE
000050:                                                                                                  #  SINES AND COSINES FROM THE CURRENT CONTENTS OF THE CDU REGISTERS.
000051:                                                                                                  #  THE CONTENTS OF CDUTEMP, ETC., ARE NOT TOUCHED SO THAT THEY MAY
000052:                                                                                                  #  CONTINUE TO FORM A CONSISTENT SET WITH THE LATEST PIPA READINGS.
000053:
000054:                                                                                                  #  CDUTRIG1 IS LIKE CDUTRIG EXCEPT THAT IT CAN BE CALLED IN BASIC.
000055:
000056:                                                                                                  #  CD*TR*GS FINDS CDU VALUES IN CDUSPOT RATHER THAN IN CDUTEMP.  THIS
000057:                                                                                                  #  ALLOWS USERS TO MAKE TRANSFORMATIONS USING ARBITRARY ANGLES, OR REAL
000058:                                                                                                  #  ANGLES IN AN ORDER OTHER THAN X Y Z.  A CALL TO THIS ROUTINE IS
000059:                                                                                                  #  NECESSARY IN PREPARATION FOR A CALL TO AX*SR*T IN EITHER OF ITS TWO
000060:                                                                                                  #  MODES (SMNB OR NBSM).  SINCE AX*SR*T EXPECTS TO FIND THE SINES AND
000061:                                                                                                  #  COSINES IN THE ORDER Y Z X THE ANGLES MUST HAVE BEEN PLACED IN CDUSPOT
000062:                                                                                                  #  IN THIS ORDER.  CD*TR*GS NEED NOT BE REPEATED WHEN AX*SR*T IS CALLED
000063:                                                                                                  #  MORE THAN ONCE, PROVIDED THE ANGLES HAVE NOT CHANGED.  NOTE THAT SINCE
000064:                                                                                                  #  IT CLOBBERS BUF2 (IN THE SINE AND COSINE ROUTINES) CD*TR*GS CANNOT BE
000065:                                                                                                  #  CALLED USING BANKCALL.  SORRY.
000066:
000067:                                                                                                  #  CD*TR*G IS LIKE CD*TR*GS EXCEPT THAT IT CAN BE CALLED IN
000068:                                                                                                  #  INTERPRETIVE.
000069:
000070: 23,3537           77776        CDUTRIG            EXIT
000071: 23,3540           03547                           TC       CDUTRIGS
000072: 23,3541           06037                           TC       INTPRET
000073: 23,3542           77616                           RVQ
000074:
000075: 23,3543           77776        CD*TR*G            EXIT
000076: 23,3544           03555                           TC       CD*TR*GS
000077: 23,3545           06037                           TC       INTPRET
000078: 23,3546           77616                           RVQ
000079:
000080: 23,3547           30032        CDUTRIGS           CA       CDUX
000081: 23,3550           54772                           TS       CDUSPOT    +4
000082: 23,3551           30033                           CA       CDUY
000083: 23,3552           54766                           TS       CDUSPOT


000085: 23,3553           30034                           CA       CDUZ
000086: 23,3554           54770                           TS       CDUSPOT    +2
000087:
000088: 23,3555           00006        CD*TR*GS           EXTEND
000089: 23,3556           22142                           QXCH     TEM2
000090: 23,3557           34751                           CAF      FOUR
000091: 23,3560           76242        TR*GL**P           MASK     SIX                                   #  MAKE IT EVEN AND SMALLER
000092: 23,3561           54143                           TS       TEM3
000093: 23,3562           50143                           INDEX    TEM3
000094: 23,3563           30766                           CA       CDUSPOT
000095: 23,3564           52155                           DXCH     MPAC                                  #  STORING 2'S COMP ANGLE, LOADING MPAC
000096: 23,3565           52127                           DXCH     VBUF       +4                         #  STORING MPAC FOR LATER RESTORATION
000097: 23,3566           04713                           TC       USPRCADR
000098: 23,3567           21576                           CADR     CDULOGIC
000099: 23,3570           00006                           EXTEND
000100: 23,3571           30155                           DCA      MPAC
000101: 23,3572           50143                           INDEX    TEM3
000102: 23,3573           52767                           DXCH     CDUSPOT                               #  STORING 1'S COMPLEMENT ANGLE
000103: 23,3574           04713                           TC       USPRCADR
000104: 23,3575           01517                           CADR     COSINE
000105: 23,3576           52155                           DXCH     MPAC
000106: 23,3577           50143                           INDEX    TEM3
000107: 23,3600           52745                           DXCH     COSCDU                                #  STORING COSINE
000108: 23,3601           00006                           EXTEND
000109: 23,3602           50143                           INDEX    TEM3
000110: 23,3603           30767                           DCA      CDUSPOT                               #  LOADING 1'S COMPLEMENT ANGLE
000111: 23,3604           04713                           TC       USPRCADR
000112: 23,3605           01531                           CADR     SINE       +1                         #  SINE +1 EXPECTS ARGUMENT IN A AND L
000113: 23,3606           52127                           DXCH     VBUF       +4                         #  BRINGING UP PRIOR MPAC TO BE RESTORED
000114: 23,3607           52155                           DXCH     MPAC
000115: 23,3610           50143                           INDEX    TEM3
000116: 23,3611           52737                           DXCH     SINCDU
000117: 23,3612           10143                           CCS      TEM3
000118: 23,3613           13560                           TCF      TR*GL**P
000119: 23,3614           00142                           TC       TEM2


000121:                                                                                                  #  ****************************************************************************************************************
000122:                                                                                                  #  QUICTRIG, INTENDED FOR GUIDANCE CYCLE USE WHERE TIME IS CRITICAL, IS A MUCH FASTER VERSION OF CD*TR*GS.
000123:                                                                                                  #  QUICTRIG COMPUTES AND STORES THE SINES AND COSINES OF THE 2'S COMPLEMENT ANGLES AT CDUSPOT, CDUSPOT +2,
000124:                                                                                                  #  AND CDUSPOT +4.  UNLIKE CD*TR*GS, QUICTRIG DOES NOT LEAVE THE 1'S COMPLEMENT VERSIONS OF THE ANGLES IN
000125:                                                                                                  #  CDUSPOT.  QUICTRIG'S EXECUTION TIME IS 4.1 MS;  THIS IS 10 TIMES AS FAST AS CD*TR*GS.  QUICTRIG MAY BE
000126:                                                                                                  #  CALLED FROM INTERPRETIVE AS AN RTB OP-CODE, OR FROM BASIC VIA BANKCALL OR IBNKCALL.
000127:
000128: 23,3615           00004        QUICTRIG           INHINT                                         #  INHINT SINCE DAP USES THE SAME TEMPS
000129: 23,3616           00006                           EXTEND
000130: 23,3617           22061                           QXCH     ITEMP1
000131: 23,3620           34751                           CAF      FOUR
000132: 23,3621           76242                 +4        MASK     SIX
000133: 23,3622           54062                           TS       ITEMP2
000134: 23,3623           50062                           INDEX    ITEMP2
000135: 23,3624           30766                           CA       CDUSPOT
000136: 23,3625           05033                           TC       SPSIN
000137: 23,3626           00006                           EXTEND
000138: 23,3627           74736                           MP       BIT14                                 #  SCALE DOWN TO MATCH INTERPRETER OUTPUTS
000139: 23,3630           50062                           INDEX    ITEMP2
000140: 23,3631           52737                           DXCH     SINCDU
000141: 23,3632           50062                           INDEX    ITEMP2
000142: 23,3633           30766                           CA       CDUSPOT
000143: 23,3634           05032                           TC       SPCOS
000144: 23,3635           00006                           EXTEND
000145: 23,3636           74736                           MP       BIT14
000146: 23,3637           50062                           INDEX    ITEMP2
000147: 23,3640           52745                           DXCH     COSCDU
000148: 23,3641           10062                           CCS      ITEMP2
000149: 23,3642           13621                           TCF      QUICTRIG   +4
000150: 23,3643           30061                           CA       ITEMP1
000151: 23,3644           00003                           RELINT
000152: 23,3645           00000                           TC       A
000153:


000155:                                                                                                  # ****************************************************************************************************************
000156:                                                                                                  #  THESE INTERFACE ROUTINES MAKE IT POSSIBLE TO CALL AX*SR*T, ETC., IN
000157:                                                                                                  #  INTERPRETIVE.  LATER, WHERE POSSIBLE, THEY WILL BE ELIMINATED.
000158:
000159:                                                                                                  #  THESE INTERFACE ROUTINES ARE PERMANENT.  ALL RESTORE USER'S EBANK
000160:                                                                                                  #  SETTING. ALL ARE STRICT INTERPRETIVE SUBROUTINES, CALLED USING "CALL",
000161:                                                                                                  #  RETURNING VIA QPRET.  ALL EXPECT AND RETURN THE VECTOR TO BE TRANSFOR-
000162:                                                                                                  #  MED INTERPRETER-STYLE IN MPAC; COMPONENTS AT MPAC, MPAC +3, AND MPAC +5.
000163:
000164:                                                                                                  #  TRG*SMNB AND TRG*NBSM BOTH EXPECT TO SEE THE 2'S COMPLEMENT ANGLES
000165:                                                                                                  #  AT CDUSPOT (ORDER Y Z X, AT CDUSPOT, CDUSPOT +2, AND CDUSPOT +4; ODD
000166:                                                                                                  #  LOCATIONS NEED NOT BE ZEROED).  TRG*NBSM DOES THE NB TO SM TRANSFOR-
000167:                                                                                                  #  MATION;  TRG*SMNB, VICE VERSA.
000168:
000169:                                                                                                  #  CDU*NBSM DOES ITS TRANSFORMATION USING THE PRESENT CONTENTS OF
000170:                                                                                                  #  THE CDL COUNTERS.  OTHERWISE IT IS LIKE TRG*NBSM.
000171:
000172:                                                                                                  #  CDU*SMNB IS THE COMPLEMENT OF CDU*NBSM.
000173:
000174: 23,3646           77776        CDU*SMNB           EXIT
000175: 23,3647           03547                           TC       CDUTRIGS
000176: 23,3650           13653                           TCF      C*MM*N1
000177:
000178: 23,3651           77776        TRG*SMNB           EXIT
000179: 23,3652           03555                           TC       CD*TR*GS
000180: 23,3653           07532        C*MM*N1            TC       MPACVBUF                              #  AX*SR*T EXPECTS VECTOR IN VBUF
000181: 23,3654           46245                           CS       THREE                                 #  SIGNAL FOR SM TO NB TRANSFORMATION
000182: 23,3655           03675        C*MM*N2            TC       AX*SR*T
000183: 23,3656           06037                           TC       INTPRET
000184: 23,3657           43575                           VLOAD    RVQ
000185: 23,3660           00123                                    VBUF
000186:
000187: 23,3661           77776        CDU*NBSM           EXIT
000188: 23,3662           03547                           TC       CDUTRIGS
000189: 23,3663           13666                           TCF      C*MM*N3
000190:
000191: 23,3664           77776        TRG*NBSM           EXIT
000192: 23,3665           03555                           TC       CD*TR*GS
000193: 23,3666           07532        C*MM*N3            TC       MPACVBUF                              #  FOR AX*SR*T
000194: 23,3667           36245                           CA       THREE                                 #  SIGNAL FOR NB TO SM TRANSFORMATION
000195: 23,3670           13655                           TCF      C*MM*N2
000196:
000197:                                                                                                  #  *NBSM* AND *SMNB* EXPECT TO SEE THE SINES AND COSINES (AT SINCDU
000198:                                                                                                  #  AND COSCDU) RATHER THAN THE ANGLES THEMSELVES.  OTHERWISE THEY ARE
000199:                                                                                                  #  LIKE TRG*NBSM AND TRG*SMNB.
000200:
000201:                                                                                                  #  NOTE THAT JUST AS CD*TR*GS NEED BE CALLED ONLY ONCE FOR EACH SERIES
000202:                                                                                                  #  OF TRANSFORMATIONS USING THE SAME ANGLES, SO TOO ONLY ONE OF TRG*NBSM


000204:                                                                                                  #  AND TRG*SMNB NEED BE CALLED FOR EACH SERIES.  FOR SUBSEQUENT TRANSFOR-
000205:                                                                                                  #  MATIONS USE *NBSM* AND *SMNB*.
000206:
000207: 23,3671           77776        *SMNB*             EXIT
000208: 23,3672           13653                           TCF      C*MM*N1
000209:
000210: 23,3673           77776        *NBSM*             EXIT
000211: 23,3674           13666                           TCF      C*MM*N3
000212:
000213:                                                                                                  #  AX*SR*T COMBINES THE OLD SMNB AND NBSM.  FOR THE NB TO SM
000214:                                                                                                  #  TRANSFORMATION, ENTER WITH +3 IN A.  FOR SM TO NB, ENTER WITH -3.
000215:                                                                                                  #  THE VECTOR TO BE TRANSFORMED ARRIVES, AND IS RETURNED, IN VBUF.
000216:                                                                                                  #  AX*SR*T EXPECTS TO FIND THE SINES AND COSINES OF THE ANGLES OF ROTATION
000217:                                                                                                  #  AT SINCDU AND COSCDU, IN THE ORDER Y Z X.  A CALL TO CD*TR*GS, WITH
000218:                                                                                                  #  THE 2'S COMPLEMENT ANGLES (ORDER Y Z X) AT CDUSPOT, WILL TAKE CARE OF
000219:                                                                                                  #  THIS.  HERE IS A SAMPLE CALLING SEQUENCE:-
000220:                                                                                                  #                TC      CDUTRIGS
000221:                                                                                                  #                CS      THREE           ("CA THREE" FOR NBSM)
000222:                                                                                                  #                TC      AX*SR*T
000223:                                                                                                  #  THE CALL TO CD*TR*GS NEED NOT BE REPEATED, WHEN AX*SR*T IS CALLED MORE
000224:                                                                                                  #  THAN ONCE, UNLESS THE ANGLES HAVE CHANGED.
000225:
000226:                                                                                                  #  AX*SR*T IS GUARANTEED SAFE ONLY FOR VECTORS OF MAGNITUDE LESS THAN
000227:                                                                                                  #  UNITY.  A LOOK AT THE CASE IN WHICH A VECTOR OF GREATER MAGNITUDE
000228:                                                                                                  #  HAPPENS TO LIE ALONG AN AXIS OF THE SYSTEM TO WHICH IT IS TO BE TRANS-
000229:                                                                                                  #  FORMED CONVINCES ONE THAT THIS IS A RESTRICTION WHICH MUST BE ACCEPTED.
000230:
000231: 23,3675           54142        AX*SR*T            TS       DEXDEX                                #  WHERE IT BECOMES THE INDEX OF INDEXES
000232: 23,3676           00006                           EXTEND
000233: 23,3677           22145                           QXCH     RTNSAVER
000234:
000235: 23,3700           10142        R*TL**P            CCS      DEXDEX                                #                +3 --> 0        -3 --> 2
000236: 23,3701           40142                           CS       DEXDEX                                #  THUS:         +2 --> 1        -2 --> 1
000237: 23,3702           66245                           AD       THREE                                 #                +1 --> 2        -1 --> 0
000238: 23,3703           00006                           EXTEND
000239: 23,3704           50000                           INDEX    A
000240: 23,3705           33764                           DCA      INDEXI
000241: 23,3706           52144                           DXCH     DEXI
000242:
000243: 23,3707           34753                           CA       ONE
000244: 23,3710           54130                           TS       BUF
000245: 23,3711           00006                           EXTEND
000246: 23,3712           50143                           INDEX    DEX1
000247: 23,3713           40123                           DCS      VBUF
000248: 23,3714           13716                           TCF      LOOP1                                 #  REALLY BE A SUBTRACT, AND VICE VERSA
000249:
000250: 23,3715           52131        LOOP2              DXCH     BUF                                   #  LOADING VECTOR COMPONENT, STORING INDEX


000252: 23,3716           52155        LOOP1              DXCH     MPAC
000253: 23,3717           33762                           CA       SINSLOC
000254: 23,3720           60143                           AD       DEX1
000255: 23,3721           54116                           TS       ADDRWD
000256:
000257: 23,3722           07107                           TC       DMPSUB                                #  MULTIPLY BY SIN(CDUANGLE)
000258: 23,3723           10142                           CCS      DEXDEX
000259: 23,3724           52155                           DXCH     MPAC                                  #  NBSM CASE
000260: 23,3725           13730                           TCF      +3
000261: 23,3726           00006                           EXTEND                                         #  SMNB CASE
000262: 23,3727           40155                           DCS      MPAC
000263: 23,3730           52160                           DXCH     TERM1TMP
000264:
000265: 23,3731           36242                           CA       SIX                                   #  SINCDU AND COSCDU (EACH 6 WORDS) MUST
000266: 23,3732           26116                           ADS      ADDRWD                                #        BE CONSECUTIVE AND IN THAT ORDER
000267:
000268: 23,3733           00006                           EXTEND
000269: 23,3734           50130                           INDEX    BUF
000270: 23,3735           50143                           INDEX    DEX1
000271: 23,3736           30123                           DCA      VBUF
000272: 23,3737           52155                           DXCH     MPAC
000273: 23,3740           07107                           TC       DMPSUB                                #  MULTIPLY BY COS(CDUANGLE)
000274: 23,3741           52155                           DXCH     MPAC
000275: 23,3742           20160                           DAS      TERM1TMP
000276: 23,3743           52160                           DXCH     TERM1TMP
000277: 23,3744           20001                           DDOUBL
000278: 23,3745           50130                           INDEX    BUF
000279: 23,3746           50143                           INDEX    DEX1
000280: 23,3747           52123                           DXCH     VBUF
000281: 23,3750           52131                           DXCH     BUF                                   #  LOADING INDEX, STORING VECTOR COMPONENT
000282:
000283: 23,3751           10000                           CCS      A                                     #  'CAUSE THAT'S WHERE THE INDEX NOW IS
000284: 23,3752           13715                           TCF      LOOP2
000285:
000286: 23,3753           00006                           EXTEND
000287: 23,3754           26142                           DIM      DEXDEX                                #  DECREMENT MAGNITUDE PRESERVING SIGN
000288:
000289: 23,3755           10142        TSTPOINT           CCS      DEXDEX                                #  ONLY THE BRANCHING FUNCTION IS USED
000290: 23,3756           13700                           TCF      R*TL**P
000291: 23,3757           00145                           TC       RTNSAVER
000292: 23,3760           13700                           TCF      R*TL**P
000293: 23,3761           00145                           TC       RTNSAVER
000294:
000295: 23,3762           00736        SINSLOC            ADRES    SINCDU                                #  FOR USE IN SETTING ADDRWD
000296:
000297: 23,3763           00004        INDEXI             DEC      4          B-14                       #  **********   DON'T   **********
000298: 23,3764           00002                           DEC      2          B-14                       #  **********   TOUCH   **********
000299: 23,3765           00000                           DEC      0          B-14                       #  **********   THESE   **********


000301: 23,3766           00004                           DEC      4          B-14                       #  ********** CONSTANTS **********
000302:
000303:                                                                                                  #  ****************************************************************************************************************
000304:
000305: 10,2030                                           BANK     10
000306: 10,2000                                           SETLOC   FLESHLOC
000307: 10,2000                                           BANK
000308: 10,2030                                           COUNT*   $$/POWFL
000309:
000310:                                                                                                  #  ROUTINE FLESHPOT COMPUTES THE BODY-STABLE MEMBER TRANSFORMATION MATRIX (COMMONLY CALLED XNB) AND STORES
000311:                                                                                                  #  IT IN THE LOCATIONS SPECIFIED BY THE ECADR ENTERING IN A.
000312:
000313: 10,2030           77776        CALCSMSC           EXIT
000314: 10,2031           04616                           TC       BANKCALL
000315: 10,2032           20036                           CADR     FLESHPOT   -1
000316: 10,2033           06037                           TC       INTPRET
000317: 10,2034           77616                           RVQ
000318:
000319: 10,2035           02664        XNBECADR           ECADR    XNB
000320:
000321: 10,2036           32035                 -1        CAF      XNBECADR
000322:
000323: 10,2037           54142        FLESHPOT           TS       TEM2
000324: 10,2040           56003                           XCH      EBANK
000325: 10,2041           56142                           XCH      TEM2
000326: 10,2042           74357                           MASK     LOW8
000327: 10,2043           65007                           AD       OCT1400
000328: 10,2044           54141                           TS       TEM1
000329:
000330: 10,2045           00006                           EXTEND
000331: 10,2046           30745                           DCA      COSCDUY
000332: 10,2047           52155                           DXCH     MPAC
000333: 10,2050           07103                           TC       DMP
000334: 10,2051           00746                           ADRES    COSCDUZ
000335: 10,2052           52155                           DXCH     MPAC
000336: 10,2053           20001                           DDOUBL
000337: 10,2054           50141                           INDEX    TEM1
000338: 10,2055           52001                           DXCH     0                                     #  = COSY COSZ
000339:
000340: 10,2056           00006                           EXTEND
000341: 10,2057           30741                           DCA      SINCDUZ
000342: 10,2060           50141                           INDEX    TEM1
000343: 10,2061           52003                           DXCH     2                                     #  = SINZ
000344:
000345: 10,2062           00006                           EXTEND
000346: 10,2063           40737                           DCS      SINCDUY
000347: 10,2064           52155                           DXCH     MPAC
000348: 10,2065           07107                           TC       DMPSUB                                #  ADDRWD SET TO COSCDUZ


000350: 10,2066           52155                           DXCH     MPAC
000351: 10,2067           20001                           DDOUBL
000352: 10,2070           50141                           INDEX    TEM1
000353: 10,2071           52005                           DXCH     4                                     #  = - SINY COSZ
000354:
000355: 10,2072           00006                           EXTEND
000356: 10,2073           40743                           DCS      SINCDUX
000357: 10,2074           52155                           DXCH     MPAC
000358: 10,2075           07107                           TC       DMPSUB                                #  ADDRWD SET TO COSCDUZ STILL
000359: 10,2076           52155                           DXCH     MPAC
000360: 10,2077           20001                           DDOUBL
000361: 10,2100           52160                           DXCH     MPAC       +3
000362:
000363: 10,2101           00006                           EXTEND
000364: 10,2102           40743                           DCS      SINCDUX
000365: 10,2103           52155                           DXCH     MPAC
000366: 10,2104           07103                           TC       DMP
000367: 10,2105           00740                           ADRES    SINCDUZ
000368: 10,2106           00006                           EXTEND
000369: 10,2107           40155                           DCS      MPAC
000370: 10,2110           52162                           DXCH     MPAC       +5
000371: 10,2111           07103                           TC       DMP
000372: 10,2112           00736                           ADRES    SINCDUY
000373: 10,2113           52155                           DXCH     MPAC
000374: 10,2114           20001                           DDOUBL
000375: 10,2115           20001                           DDOUBL
000376: 10,2116           52162                           DXCH     MPAC       +5
000377:
000378: 10,2117           52155                           DXCH     MPAC
000379: 10,2120           07103                           TC       DMP
000380: 10,2121           00744                           ADRES    COSCDUY
000381: 10,2122           52155                           DXCH     MPAC
000382: 10,2123           20001                           DDOUBL
000383: 10,2124           20001                           DDOUBL
000384: 10,2125           52131                           DXCH     BUF
000385:
000386: 10,2126           00006                           EXTEND
000387: 10,2127           30745                           DCA      COSCDUY
000388: 10,2130           52155                           DXCH     MPAC
000389: 10,2131           07103                           TC       DMP
000390: 10,2132           00750                           ADRES    COSCDUX
000391: 10,2133           52155                           DXCH     MPAC
000392: 10,2134           20001                           DDOUBL
000393: 10,2135           20162                           DAS      MPAC       +5
000394:
000395: 10,2136           00006                           EXTEND
000396: 10,2137           30737                           DCA      SINCDUY
000397: 10,2140           52155                           DXCH     MPAC
000398: 10,2141           07107                           TC       DMPSUB                                #  ADDRWD SET TO COSCDUX
000399: 10,2142           52155                           DXCH     MPAC
000400:


000402: 10,2143           20001                           DDOUBL
000403: 10,2144           20131                           DAS      BUF
000404:
000405: 10,2145           52131                           DXCH     BUF
000406: 10,2146           52155                           DXCH     MPAC
000407:
000408: 10,2147           00006                           EXTEND
000409: 10,2150           30155                           DCA      MPAC
000410: 10,2151           50141                           INDEX    TEM1
000411: 10,2152           52015                           DXCH     14                                    #  = SINY COSX + SINX SINZ COSY
000412:
000413: 10,2153           00006                           EXTEND
000414: 10,2154           30160                           DCA      MPAC       +3
000415: 10,2155           50141                           INDEX    TEM1
000416: 10,2156           52017                           DXCH     16                                    #  = - SINX COSZ
000417:
000418: 10,2157           00006                           EXTEND
000419: 10,2160           30162                           DCA      MPAC       +5
000420: 10,2161           50141                           INDEX    TEM1
000421: 10,2162           52021                           DXCH     20                                    #  = COSX COSY - SINX SINY SINZ
000422:
000423: 10,2163           30141                           CA       TEM1
000424: 10,2164           54116                           TS       ADDRWD
000425: 10,2165           00006                           EXTEND
000426: 10,2166           30006                           DCA      Z
000427: 10,2167           64751                           AD       FOUR
000428: 10,2170           52165                           DXCH     LOC
000429: 10,2171           34744                           CAF      BIT8
000430: 10,2172           54023                           TS       EDOP
000431: 10,2173           17460                           TCF      VXV
000432: 10,2174           52155                           DXCH     MPAC
000433: 10,2175           20001                           DDOUBL
000434: 10,2176           50141                           INDEX    TEM1
000435: 10,2177           52007                           DXCH     6
000436:
000437: 10,2200           52160                           DXCH     MPAC       +3
000438: 10,2201           20001                           DDOUBL
000439: 10,2202           50141                           INDEX    TEM1
000440: 10,2203           52011                           DXCH     10
000441:
000442: 10,2204           52162                           DXCH     MPAC       +5
000443: 10,2205           20001                           DDOUBL
000444: 10,2206           50141                           INDEX    TEM1
000445: 10,2207           52013                           DXCH     12
000446:
000447: 10,2210           30142                           CA       TEM2
000448: 10,2211           54003                           TS       EBANK
000449: 10,2212           14631                           TCF      SWRETURN
000450:

End of include-file POWERED_FLIGHT_SUBROUTINES.agc.  Parent file is MAIN.agc


