
Source Code


000002:                                                                                                  ## Copyright:   Public domain.
000003:                                                                                                  ## Filename:    R60_R62.agc
000004:                                                                                                  ## Purpose:     Part of the source code for Luminary 1A build 099.
000005:                                                                                                  ##              It is part of the source code for the Lunar Module's (LM)
000006:                                                                                                  ##              Apollo Guidance Computer (AGC), for Apollo 11.
000007:                                                                                                  ## Assembler:   yaYUL
000008:                                                                                                  ## Contact:     Ron Burkey <info@sandroid.org>.
000009:                                                                                                  ## Website:     www.ibiblio.org/apollo.
000010:                                                                                                  ## Pages:       472-485
000011:                                                                                                  ## Mod history: 2009-05-17 RSB  Adapted from the corresponding
000012:                                                                                                  ##                              Luminary131 file, using page
000013:                                                                                                  ##                              images from Luminary 1A.
000014:                                                                                                  ##              2016-12-13 RSB  GOTOP00H -> GOTOPOOH
000015:                                                                                                  ##              2016-12-14 RSB  Proofed text comments with octopus/ProoferComments
000016:                                                                                                  ##                              and corrected the errors found.
000017:                                                                                                  ##              2017-01-27 RSB  Back-ported a comment-text fix identified in Luminary 69.
000018:                                                                                                  ##
000019:                                                                                                  ## This source code has been transcribed or otherwise adapted from
000020:                                                                                                  ## digitized images of a hardcopy from the MIT Museum.  The digitization
000021:                                                                                                  ## was performed by Paul Fjeld, and arranged for by Deborah Douglas of
000022:                                                                                                  ## the Museum.  Many thanks to both.  The images (with suitable reduction
000023:                                                                                                  ## in storage size and consequent reduction in image quality as well) are
000024:                                                                                                  ## available online at www.ibiblio.org/apollo.  If for some reason you
000025:                                                                                                  ## find that the images are illegible, contact me at info@sandroid.org
000026:                                                                                                  ## about getting access to the (much) higher-quality images which Paul
000027:                                                                                                  ## actually created.
000028:                                                                                                  ##
000029:                                                                                                  ## Notations on the hardcopy document read, in part:
000030:                                                                                                  ##
000031:                                                                                                  ##      Assemble revision 001 of AGC program LMY99 by NASA 2021112-61
000032:                                                                                                  ##      16:27 JULY 14, 1969
000033:


000035:                                                                                                  #  MOD NO: 0                             DATE: 1 MAY 1968
000036:                                                                                                  #  MOD BY: DIGITAL DEVEL GROUP           LOG SECTION R60,R62
000037:
000038:                                                                                                  #  FUNCTIONAL DESCRIPTION:
000039:
000040:                                                                                                  #  CALLED AS A GENERAL SUBROUTINE TO MANEUVER THE LM TO A SPECIFIED
000041:                                                                                                  #  ATTITUDE.
000042:
000043:                                                                                                  #  1. IF THE 3-AXIS FLAG IS NOT SET THE FINAL CDU ANGLES ARE
000044:                                                                                                  #  CALCULATED (VECPOINT).
000045:
000046:                                                                                                  #  2. THE FDAI BALL ANGLES (NOUN 18) ARE CALCULATED (BALLANGS).
000047:
000048:                                                                                                  #  3. REQUEST FLASHING DISPLAY V50 N18 PLEASE PERFORM AUTO MANEUVER.
000049:
000050:                                                                                                  #  4. IF PRIORITY DISPLAY FLAG IS SET DO A PHASECHANGE.  THEN AWAIT
000051:                                                                                                  #  ASTRONAUT RESPONSE.
000052:
000053:                                                                                                  #  5. DISPLAY RESPONSE RETURNS:
000054:
000055:                                                                                                  #        A.      ENTER - RESET 3-AXIS FLAG AND RETURN TO CLIENT.
000056:
000057:                                                                                                  #        B.      TERMINATE - IF IN P00 GO TO STEP 5A.  OTHERWISE CHECK IF R61 IS
000058:                                                                                                  #                THE CALLING PROGRAM.  IF IN R61 AN EXIT IS MADE TO GOTOV56.  IF
000059:                                                                                                  #                NOT IN R61 AN EXIT IS DONE VIA GOTOPOOH.
000060:
000061:                                                                                                  #        C.      PROCEED - CONTINUE WITH PROGRAM AT STEP 6.
000062:
000063:                                                                                                  #  6. IF THE 3-AXISFLAG IS NOT SET, THE FINAL CDU ANGLES ARE CALCULATED
000064:                                                                                                  #  (VECPOINT).
000065:
000066:                                                                                                  #  7. THE FDAI BALL ANGLES (NOUN 18) ARE CALCULATED (BALLANGS).
000067:
000068:                                                                                                  #  8. IF THE G+N SWITCH IS NOT SET GO BACK TO STEP 3.
000069:                                                                                                  #
000070:                                                                                                  #  9. IF THE AUTO SWITCH IS NOT SET GO BACK TO STEP 3.
000071:
000072:                                                                                                  #  10. NONFLASHING DISPLAY V06N18 (FDAI ANGLES).
000073:
000074:                                                                                                  #  11. DO A PHASECHANGE.
000075:
000076:                                                                                                  #  12. DO A MANEUVER CALCULATION AND ICDU DRIVE ROUTINE TO ACHIEVE FINAL
000077:                                                                                                  #  GIMBAL ANGLES (GOMANUR).
000078:
000079:                                                                                                  #  13. AT END OF MANEUVER GO TO STEP 3.
000080:
000081:                                                                                                  #        IF SATISFACTORY MANEUVER STEP 5A EXITS R60.
000082:                                                                                                  #        FOR FURTHER ADJUSTMENT OF THE VEHICLE ATTITUDE ABOUT THE
000083:                                                                                                  #        DESIRED VECTOR, THE ROUTINE MAY BE PERFORMED AGAIN STARTING AT


000085:                                                                                                  #        STEP 5C.
000086:
000087:                                                                                                  #  CALLING SEQUENCE:     TC      BANKCALL
000088:                                                                                                  #                        CADR    R60LEM
000089:
000090:                                                                                                  #  ERASABLE INITIALIZATION REQUIRED:     SCAXIS, POINTVSM (FOR VECPOINT)
000091:                                                                                                  #                                        3AXISFLG.
000092:
000093:                                                                                                  #  SUBROUTINES CALLED:   VECPOINT, BALLANGS, GOPERF2R, LINUS, GODSPER,
000094:                                                                                                  #                        GOMANUR, DOWNFLAG, PHASCHNG, UPFLAG
000095:
000096:                                                                                                  #  NORMAL EXIT MODES:    CAE     TEMPR60         (CALLERS RETURN ADDRESS)
000097:                                                                                                  #                        TC      BANKJUMP
000098:
000099:                                                                                                  #  ALARMS: NONE
000100:
000101:                                                                                                  #  OUTPUT: NONE
000102:
000103:                                                                                                  #  DEBRIS: CPHI, CTHETA, CPSI, 3AXISFLG, TBASE2
000104:
000105: 34,2000                                           BANK     34
000106: 26,2000                                           SETLOC   MANUVER
000107: 26,2000                                           BANK
000108:
000109: 26,2123     1164                                  EBANK=   TEMPR60
000110:
000111: 26,2123                                           COUNT*   $$/R06
000112: 26,2123           04645        R60LEM             TC       MAKECADR
000113: 26,2124           55164                           TS       TEMPR60
000114:
000115: 26,2125           34746        REDOMANN           CAF      3AXISBIT
000116: 26,2126           70101                           MASK     FLAGWRD5                              #  IS 3-AXIS FLAG SET
000117: 26,2127           10000                           CCS      A
000118: 26,2130           12136                           TCF      TOBALL                                #  YES
000119: 26,2131           06037                           TC       INTPRET
000120: 26,2132           77624                           CALL
000121: 26,2133           56040                                    VECPOINT                              #  TO COMPUTE FINAL ANGLES
000122: 26,2134           00322                           STORE    CPHI                                  #  STORE FINAL ANGLES - CPHI, CTHETA, CPSI
000123: 26,2135           77776                           EXIT
000124:
000125: 26,2136           04616        TOBALL             TC       BANKCALL
000126: 26,2137           54266                           CADR     BALLANGS                              #  TO CONVERT ANGLES TO FDAI
000127: 26,2140           32254        TOBALLA            CAF      V06N18
000128: 26,2141           04616                           TC       BANKCALL
000129: 26,2142           20710                           CADR     GOPERF2R                              #  DISPLAY PLEASE PERFORM AUTO MANEUVER
000130: 26,2143           02242                           TC       R61TEST
000131: 26,2144           02150                           TC       REDOMANC                              #  PROCEED
000132: 26,2145           02175                           TC       ENDMANU1                              #  ENTER I.E. FINISHED WITH R60


000134: 26,2146           02201                           TC       CHKLINUS                              #  TO CHECK FOR PRIORITY DISPLAYS
000135: 26,2147           05155                           TC       ENDOFJOB
000136:
000137: 26,2150           34746        REDOMANC           CAF      3AXISBIT
000138: 26,2151           70101                           MASK     FLAGWRD5                              #  IS 3-AXIS FLAG SET
000139: 26,2152           10000                           CCS      A
000140: 26,2153           12161                           TCF      TOBALLC                               #  YES
000141: 26,2154           06037                           TC       INTPRET
000142: 26,2155           77624                           CALL
000143: 26,2156           56040                                    VECPOINT                              #  TO COMPUTE FINAL ANGLES
000144: 26,2157           00322                           STORE    CPHI                                  #  STORE ANGLES
000145: 26,2160           77776                           EXIT
000146:
000147: 26,2161           04616        TOBALLC            TC       BANKCALL
000148: 26,2162           54266                           CADR     BALLANGS                              #  TO CONVERT ANGLES TO FDAI
000149: 26,2163           02255                           TC       G+N,AUTO                              #  CHECK AUTO MODE
000150: 26,2164           10000                           CCS      A
000151: 26,2165           12140                           TCF      TOBALLA                               #  NOT AUTO, GO REREQUEST AUTO MANEUVER.
000152:
000153: 26,2166           32254        AUTOMANV           CAF      V06N18                                #  STATIC DISPLAY DURING AUTO MANEUVER
000154: 26,2167           04616                           TC       BANKCALL
000155: 26,2170           20451                           CADR     GODSPR
000156: 26,2171           02201                           TC       CHKLINUS                              #  TO CHECK FOR PRIORITY DISPLAYS
000157:
000158: 26,2172           04616        STARTMNV           TC       BANKCALL                              #  PERFORM MANEUVER VIA KALCMANU
000159: 26,2173           17750                           CADR     GOMANUR
000160:
000161: 26,2174           12140        ENDMANUV           TCF      TOBALLA                               #  FINISHED MANEUVER.
000162: 26,2175           05516        ENDMANU1           TC       DOWNFLAG                              #  RESET 3-AXIS FLAG
000163: 26,2176           00124                           ADRES    3AXISFLG
000164: 26,2177           31164                           CAE      TEMPR60
000165: 26,2200           04640                           TC       BANKJUMP
000166:
000167: 26,2201           40100        CHKLINUS           CS       FLAGWRD4
000168: 26,2202           74740                           MASK     PDSPFBIT                              #  IS PRIORITY DISPLAY FLAG SET?
000169: 26,2203           10000                           CCS      A
000170: 26,2204           00002                           TC       Q                                     #  NO - EXIT
000171: 26,2205           30002                           CA       Q
000172: 26,2206           54156                           TS       MPAC       +2                         #  SAVE RETURN
000173: 26,2207           46245                           CS       THREE                                 #  OBTAIN LOCATION FOR RESTART
000174: 26,2210           60133                           AD       BUF2                                  #  HOLDS Q OF LAST DISPLAY
000175: 26,2211           55055                           TS       TBASE2
000176:
000177: 26,2212           05353                           TC       PHASCHNG
000178: 26,2213           00132                           OCT      00132
000179:
000180: 26,2214           34745                           CAF      BIT7
000181: 26,2215           05464                           TC       LINUS                                 #  GO SET BITS FOR PRIORITY DISPLAY
000182: 26,2216           00156                           TC       MPAC       +2
000183:


000185: 26,2217           37714        RELINUS            CAF      PRIO26                                #  RESTORE ORIGINAL PRIORITY
000186: 26,2220           05146                           TC       PRIOCHNG
000187:
000188: 26,2221           34747                           CAF      TRACKBIT                              #  DON'T CONTINUE R60 UNLESS TRACKFLAG ON.
000189: 26,2222           70075                           MASK     FLAGWRD1
000190: 26,2223           10000                           CCS      A
000191: 26,2224           12237                           TCF      RER60
000192:
000193: 26,2225           34745                           CAF      RNDVZBIT                              #  IS IT P20?
000194: 26,2226           70074                           MASK     FLAGWRD0
000195: 26,2227           10000                           CCS      A
000196: 26,2230           02234                           TC       +4                                    #  YES
000197: 26,2231           05353                           TC       PHASCHNG                              #  NO, MUST BE P25, SET 2.11 SPOT
000198: 26,2232           40112                           OCT      40112
000199:
000200: 26,2233           05155                           TC       ENDOFJOB
000201:
000202: 26,2234           05353                           TC       PHASCHNG                              #  SET 2.7 SPOT FOR P20
000203: 26,2235           40072                           OCT      40072
000204:
000205: 26,2236           05155                           TC       ENDOFJOB
000206:
000207: 26,2237           05504        RER60              TC       UPFLAG                                #  SET PRIO DISPLAY FLAG AFTER RESTART
000208: 26,2240           00077                           ADRES    PDSPFLAG
000209:
000210: 26,2241           01055                           TC       TBASE2
000211:
000212: 26,2242           31011        R61TEST            CA       MODREG                                #  IF WE ARE IN P00 IT MUST BE V49 OR V89
000213: 26,2243           00006                           EXTEND
000214: 26,2244           12175                           BZF      ENDMANU1                              #  THUS WE GO TO ENDEXT VIA USER
000215:
000216: 26,2245           30100                           CA       FLAGWRD4                              #  ARE WE IN R61 (P20 OR P25)
000217: 26,2246           74740                           MASK     PDSPFBIT
000218: 26,2247           00006                           EXTEND
000219: 26,2250           16001                           BZF      GOTOPOOH                              #  NO
000220: 26,2251           06022                           TC       GOTOV56                               #  YES
000221:
000222: 26,2252           20100        BIT14+7            OCT      20100
000223: 26,2253           00203        OCT203             OCT      203
000224: 26,2254           01422        V06N18             VN       0618
000225:
000226:                                                                                                  #  SUBROUTINE TO CHECK FOR G+N CONTROL, AUTO STABILIZATION
000227:
000228:                                                                                                  #  RETURNS WITH C(A) = +         IF NOT SET FOR G+N, AUTO
000229:                                                                                                  #  RETURNS WITH C(A) = +0        IF SWITCHES ARE SET
000230:
000231: 26,2255           00006        G+N,AUTO           EXTEND
000232: 26,2256           00030                           READ     CHAN30
000233: 26,2257           74742                           MASK     BIT10
000234: 26,2260           10000                           CCS      A
000235: 26,2261           00002                           TC       Q                                     #  NOT IN G+N    C(A) = +


000237: 26,2262           00006        ISITAUTO           EXTEND                                         #  CHECK FOR AUTO MODE
000238: 26,2263           00031                           READ     CHAN31
000239: 26,2264           74736                           MASK     BIT14
000240: 26,2265           00002                           TC       Q                                     #  (+) = NOT IN AUTO, (+0) = AOK
000241:


000243:                                                                                                  #  PROGRAM DESCRIPTION BALLANGS
000244:                                                                                                  #  MOD NO.                               LOG SECTION R60,R62
000245:
000246:                                                                                                  #  WRITTEN BY RAMA M. AIYAWAR
000247:
000248:                                                                                                  #  FUNCTIONAL DESCRIPTION
000249:
000250:                                                                                                  #        COMPUTES LM FDAI BALL DISPLAY ANGLES
000251:
000252:                                                                                                  #  CALLING SEQUENCE
000253:
000254:                                                                                                  #        TC      BALLANGS
000255:
000256:                                                                                                  #  NORMAL EXIT MODE
000257:
000258:                                                                                                  #        TC      BALLEXIT        (SAVED Q)
000259:
000260:                                                                                                  #  ALARM OR EXIT MODE    NIL
000261:
000262:                                                                                                  #  SUBROUTINES CALLED
000263:
000264:                                                                                                  #        CD*TR*G
000265:                                                                                                  #        ARCTAN
000266:
000267:                                                                                                  #  INPUT
000268:
000269:                                                                                                  #        CPHI,CTHETA,CPSI ARE THE ANGLES CORRESPONDING TO AOG, AIG, AMG.  THEY ARE
000270:                                                                                                  #        SP,2S COMPLIMENT SCALED TO HALF REVOLUTION.
000271:
000272:                                                                                                  #  OUTPUT
000273:
000274:                                                                                                  #        FDAIX, FDAIY, FDAIZ ARE THE REQUIRED BALL ANGLES SCALED TO HALF REVOLUTION
000275:                                                                                                  #        SP,2S COMPLIMENT.
000276:
000277:                                                                                                  #        THESE ANGLES WILL BE DISPLAYED AS DEGREES AND HUNDREDTHS, IN THE ORDER ROLL, PITCH, YAW, USING NOUNS 18 & 19.
000278:
000279:                                                                                                  #  ERASABLE INITIALIZATION REQUIRED
000280:
000281:                                                                                                  #        CPHI, CTHETA, CPSI      EACH A SP REGISTER
000282:
000283:                                                                                                  #  DEBRIS
000284:
000285:                                                                                                  #        A,L,Q,MPAC,SINCDU,COSCDU,PUSHLIST,BALLEXIT
000286:
000287:                                                                                                  #  NOMENCLATURE: CPHI, CTHETA, & CPSI REPRESENT THE OUTER, INNER, & MIDDLE GIMBAL ANGLES, RESPECTIVELY; OR
000288:                                                                                                  #                EQUIVALENTLY, CDUX, CDUY, & CDUZ.
000289:
000290:                                                                                                  #  NOTE:  ARCTAN CHECKS FOR OVERFLOW AND SHOULD BE ABLE TO HANDLE ANY SINGULARITIES.
000291:
000292: 26,2000                                           SETLOC   BAWLANGS
000293: 26,2000                                           BANK
000294:
000295: 26,2266                                           COUNT*   $$/BALL
000296: 26,2266           04645        BALLANGS           TC       MAKECADR
000297: 26,2267           55342                           TS       BALLEXIT
000298: 26,2270           30321                           CA       CPHI


000300: 26,2271           54772                           TS       CDUSPOT    +4
000301: 26,2272           30322                           CA       CTHETA
000302: 26,2273           54766                           TS       CDUSPOT
000303: 26,2274           30323                           CA       CPSI
000304: 26,2275           54770                           TS       CDUSPOT    +2
000305:
000306: 26,2276           06037                           TC       INTPRET
000307: 26,2277           45001                           SETPD    CALL
000308: 26,2300           00001                                    0D
000309: 26,2301           47543                                    CD*TR*G
000310:
000311: 26,2302           41345                           DLOAD    DMP
000312: 26,2303           00743                                    SINCDUX                               #  SIN (OGA)
000313: 26,2304           00747                                    COSCDUZ                               #  COS (MGA)
000314:
000315: 26,2305           57552                           SL1      DCOMP                                 #  SCALE
000316: 26,2306           65336                           ARCSIN   PDDL                                  #  YAW = ARCSIN(-SXCZ) INTO 0 PD
000317: 26,2307           00741                                    SINCDUZ
000318: 26,2310           14023                           STODL    SINTH                                 #  (SINTH = 18D IN PD)
000319: 26,2311           00747                                    COSCDUZ
000320: 26,2312           72405                           DMP      SL1                                   #  RESCALE
000321: 26,2313           00751                                    COSCDUX
000322: 26,2314           34021                           STCALL   COSTH                                 #  (COSTH = 16D IN PD)
000323: 26,2315           26510                                    ARCTAN
000324: 26,2316           41325                           PDDL     DMP                                   #  ROLL = ARCTAN(SZ/CZCX) INTO 2 PD
000325: 26,2317           00741                                    SINCDUZ
000326: 26,2320           00743                                    SINCDUX
000327: 26,2321           41512                           SL2      PUSH                                  #  SXSZ INTO 4 PD
000328: 26,2322           65205                           DMP      PDDL                                  #  SXSZCY INTO 4 PD
000329: 26,2323           00745                                    COSCDUY
000330: 26,2324           65205                           DMP      PDDL                                  #  SXSZSY INTO 6 PD
000331: 26,2325           00737                                    SINCDUY
000332: 26,2326           00751                                    COSCDUX
000333: 26,2327           72405                           DMP      SL1                                   #  CXCY
000334: 26,2330           00745                                    COSCDUY
000335: 26,2331           45425                           DSU      STADR                                 #  PULL UP FROM 6 PD
000336: 26,2332           63756                           STODL    COSTH                                 #  COSTH = CXCY - SXSZSY
000337: 26,2333           00737                                    SINCDUY
000338: 26,2334           72405                           DMP      SL1
000339: 26,2335           00751                                    COSCDUX                               #  CXSY
000340: 26,2336           45415                           DAD      STADR                                 #  PULL UP FROM 4 PD
000341: 26,2337           43754                           STCALL   SINTH                                 #  SINTH = CXSY + SXSZCY
000342: 26,2340           26510                                    ARCTAN                                #  RETURNS WITH D(MPAC) = PITCH
000343: 26,2341           55525                           PDDL     VDEF                                  #  PITCH INTO 2 PD, ROLL INTO MPAC FROM 2 PD
000344: 26,2342           77634                           RTB                                            #  VDEF MAKES V(MPAC) = ROLL, PITCH, YAW
000345: 26,2343           21620                                    V1STO2S
000346: 26,2344           02345                           STORE    FDAIX                                 #  MODE IS TP
000347: 26,2345           77776                           EXIT
000348:
000349: 26,2346           31342        ENDBALL            CA       BALLEXIT
000350:


000352: 26,2347           04640                           TC       BANKJUMP
000353:


000355:                                                                                                  #  PROGRAM DESCRIPTION - VECPOINT
000356:
000357:                                                                                                  #  THIS INTERPRETIVE SUBROUTINE MAY BE USED TO POINT A SPACECRAFT AXIS IN A DESIRED DIRECTION.  THE AXIS
000358:                                                                                                  #  TO BE POINTED MUST APPEAR AS A HALF UNIT DOUBLE PRECISION VECTOR IN SUCCESSIVE LOCATIONS OF ERASABLE MEMORY
000359:                                                                                                  #  BEGINNING WITH THE LOCATION CALLED SCAXIS.  THE COMPONENTS OF THIS VECTOR ARE GIVEN IN SPACECRAFT COORDINATES.
000360:                                                                                                  #  THE DIRECTION IN WHICH THIS AXIS IS TO BE POINTED MUST APPEAR AS A HALF UNIT DOUBLE PRECISION VECTOR IN
000361:                                                                                                  #  SUCCESSIVE LOCATIONS OF ERASABLE MEMORY BEGINNING WITH THE ADDRESS CALLED POINTVSM.  THE COMPONENTS OF THIS
000362:                                                                                                  #  VECTOR ARE GIVEN IN STABLE MEMBER COORDINATES.  WITH THIS INFORMATION VECPOINT COMPUTES A SET OF THREE GIMBAL
000363:                                                                                                  #  ANGLES (2S COMPLEMENT) CORESPONDING TO THE CROSS-PRODUCT ROTATION BETWEEN SCAXIS AND POINTVSM AND STORES THEM
000364:                                                                                                  #  IN T(MPAC) BEFORE RETURNING TO THE CALLER.
000365:
000366:                                                                                                  #  THIS ROTATION, HOWEVER, MAY BRING THE S/C INTO GIMBAL LOCK.  WHEN POINTING A VECTOR IN THE Y-Z PLANE,
000367:                                                                                                  #  THE TRANSPONDER AXIS, OR THE AOT FOR THE LEM, THE PROGRAM WILL CORRECT THIS PROBLEM BY ROTATING THE CROSS-
000368:                                                                                                  #  PRODUCT ATTITUDE ABOUT POINTVSM BY A FIXED AMOUNT SUFFICIENT TO ROTATE THE DESIRED S/C ATTITUDE OUT OF GIMBAL
000369:                                                                                                  #  LOCK.  IF THE AXIS TO BE POINTED IS MORE THAN 40.6 DEGREES BUT LESS THAN 60.5 DEG FROM THE +X (OR -X) AXIS,
000370:                                                                                                  #  THE ADDITIONAL ROTATION TO AVOID GIMAL LOCK IS 35 DEGREES.  IF THE AXIS IS MORE THAN 60.5 DEGEES FROM +X (OR -X)
000371:                                                                                                  #  THE ADDITIONAL ROTATION IS 35 DEGREES.  THE GIMBAL ANGLES CORRESPONDING TO THIS ATTITUDE ARE THEN COMPUTED AND
000372:                                                                                                  #  STORED AS 2S COMPLIMENT ANGLES IN T(MPAC) BEFORE RETURNING TO THE CALLER.
000373:
000374:                                                                                                  #  WHEN POINTING THE X-AXIS, OR THE THRUST VECTOR, OR ANY VECTOR WITHIN 40.6 DEG OF THE X-AXIS, VECPOINT
000375:                                                                                                  #  CANNOT CORRECT FOR A CROSS-PRODUCT ROTATION INTO GIMBAL LOCK.  IN THIS CASE A PLATFORM REALIGNMENT WOULD BE
000376:                                                                                                  #  REQUIRED TO POINT THE VECTOR IN THE DESIRED DIRECTION.  AT PRESENT NO INDICATION IS GIVEN FOR THIS SITUATION
000377:                                                                                                  #  EXCEPT THAT THE FINAL MIDDLE GIMBAL ANGLE IN MPAC +2 IS GREATER THAN 59 DEGREES.
000378:
000379:                                                                                                  #  CALLING SEQUENCE -
000380:
000381:                                                                                                  #        1)      LOAD SCAXIS, POINTVSM
000382:                                                                                                  #        2)      CALL
000383:                                                                                                  #                        VECPOINT
000384:
000385:                                                                                                  #  RETURNS WITH
000386:
000387:                                                                                                  #        1)      DESIRED OUTER GIMBAL ANGLE IN MPAC
000388:                                                                                                  #        2)      DESIRED INNER GIMBAL ANGLE IN MPAC +1
000389:                                                                                                  #        3)      DESIRED MIDDLE GIMBAL ANGLE IN MPAC +2
000390:
000391:                                                                                                  #  ERASABLES USED -
000392:
000393:                                                                                                  #        1)      SCAXIS          6
000394:                                                                                                  #        2)      POINTVSM        6
000395:                                                                                                  #        3)      MIS             18
000396:                                                                                                  #        4)      DEL             18
000397:                                                                                                  #        5)      COF             6
000398:                                                                                                  #        6)      VECQTEMP        1
000399:                                                                                                  #        7)      ALL OF VAC AREA 43
000400:
000401:                                                                                                  #                        TOTAL   99
000402:
000403: 27,2000                                           SETLOC   VECPT
000404: 27,2000                                           BANK


000406: 27,2032                                           COUNT*   $$/VECPT
000407:
000408: 27,2032  E6,1676                                  EBANK=   BCDU
000409:
000410: 27,2032           40020        VECPNT1            STQ      BOV                                   #  THIS ENTRY USES DESIRED CDUS
000411: 27,2033           03325                                    VECQTEMP                              #  NOT PRESENT - ENTER WITH CDUD'S IN MPAC
000412: 27,2034           56035                                    VECPNT2
000413: 27,2035           52164        VECPNT2            AXC,2    GOTO
000414: 27,2036           03246                                    MIS
000415: 27,2037           56046                                    STORANG
000416: 27,2040           40020        VECPOINT           STQ      BOV                                   #  SAVE RETURN ADDRESS
000417: 27,2041           03325                                    VECQTEMP
000418: 27,2042           56043                                    VECLEAR                               #  AND CLEAR OVFIND
000419: 27,2043           47164        VECLEAR            AXC,2    RTB
000420: 27,2044           03246                                    MIS                                   #  READ THE PRESENT CDU ANGLES AND
000421: 27,2045           44403                                    READCDUK                              #  STORE THEM IN PD25, 26, 27
000422: 27,2046           34032        STORANG            STCALL   25D
000423: 27,2047           44410                                    CDUTODCM                              #  S/C AXES TO STABLE MEMBER AXES (MIS)
000424: 27,2050           61375                           VLOAD    VXM
000425: 27,2051           03773                                    POINTVSM                              #  RESOLVE THE POINTING DIRECTION VF INTO
000426: 27,2052           03247                                    MIS                                   #  INITIAL S/C AXES (VF = POINTVSM)
000427: 27,2053           77656                           UNIT
000428: 27,2054           00035                           STORE    28D
000429:                                                                                                  #  PD 28 29 30 31 32 33
000430: 27,2055           53435                           VXV      UNIT                                  #  TAKE THE CROSS PRODUCT VF X VI
000431: 27,2056           03765                                    SCAXIS                                #  WHERE VI = SCAXIS
000432: 27,2057           57400                           BOV      VCOMP
000433: 27,2060           56170                                    PICKAXIS
000434: 27,2061           17271                           STODL    COF                                   #  CHECK MAGNITUDE
000435: 27,2062           00045                                    36D                                   #  OF CROSS PRODUCT
000436: 27,2063           50025                           DSU      BMN                                   #  VECTOR, IF LESS
000437: 27,2064           14411                                    DPB-14                                #  THAN B-14 ASSUME
000438: 27,2065           56170                                    PICKAXIS                              #  UNIT OPERATION
000439: 27,2066           50375                           VLOAD    DOT                                   #  INVALID.
000440: 27,2067           03765                                    SCAXIS
000441: 27,2070           00035                                    28D
000442: 27,2071           65552                           SL1      ARCCOS
000443: 27,2072           77624        COMPMATX           CALL                                           #  NOW COMPUTE THE TRANSFORMATION FROM
000444: 27,2073           44527                                    DELCOMP                               #  FINAL S/C AXES TO INITIAL S/C AXES MFI
000445: 27,2074           75160                           AXC,1    AXC,2
000446: 27,2075           03246                                    MIS                                   #  COMPUTE THE TRANSFORMATION FROM FINAL
000447: 27,2076           02230                                    KEL                                   #  S/C AXES TO STABLE MEMBER AXES
000448: 27,2077           77624                           CALL                                           #  MFS = MIS MFI
000449: 27,2100           44312                                    MXM3                                  #  (IN PD LIST)
000450:
000451: 27,2101           51545                           DLOAD    ABS
000452: 27,2102           00007                                    6                                     #  MFS6 = SIN(CPSI)                      $2
000453: 27,2103           50025                           DSU      BMN
000454: 27,2104           14376                                    SINGIMLC                              #  = SIN(59 DEGS)                        $2
000455: 27,2105           56160                                    FINDGIMB                              #  /CPSI/ LESS THAN 59 DEGS


000457:                                                                                                  #  I.E. DESIRED ATTITUDE NOT IN GIMBAL LOCK
000458:
000459: 27,2106           51545                           DLOAD    ABS                                   #  CHECK TO SEE IF WE ARE POINTING
000460: 27,2107           03765                                    SCAXIS                                #  THE THRUST AXIS
000461: 27,2110           51025                           DSU      BPL
000462: 27,2111           14400                                    SINVEC1                               #  SIN 49.4 DEGS                         $2
000463: 27,2112           56160                                    FINDGIMB                              #  IF SO, WE ARE TRYING TO POINT IT INTO
000464: 27,2113           77775                           VLOAD                                          #  GIMBAL LOCK, ABORT COULD GO HERE
000465: 27,2114           77626                           STADR
000466: 27,2115           50514                           STOVL    MIS        +12D
000467: 27,2116           77626                           STADR                                          #  STORE MFS (IN PD LIST) IN MIS
000468: 27,2117           50522                           STOVL    MIS        +6
000469: 27,2120           77626                           STADR
000470: 27,2121           50530                           STOVL    MIS
000471: 27,2122           03255                                    MIS        +6                         #  INNER GIMBAL AXIS IN FINAL S/C AXES
000472: 27,2123           57444                           BPL      VCOMP                                 #  LOCATE THE IG AXIS DIRECTION CLOSEST TO
000473: 27,2124           56125                                    IGSAMEX                               #  FINAL X S/C AXIS
000474:
000475: 27,2125           50035        IGSAMEX            VXV      BMN                                   #  FIND THE SHORTEST WAY OF ROTATING THE
000476: 27,2126           03765                                    SCAXIS                                #  S/C OUT OF GIMBAL LOCK BY A ROTATION
000477: 27,2127           56134                                    U=SCAXIS                              #  ABOUT +- SCAXIS, I.E. IF  (IG (SGN MFS3)
000478:                                                                                                  #  X SCAXIS . XF) LESS THAN 0, U = SCAXIS
000479:                                                                                                  #  OTHERWISE U = -SCAXIS
000480:
000481: 27,2130           57575                           VLOAD    VCOMP
000482: 27,2131           03765                                    SCAXIS
000483: 27,2132           37271                           STCALL   COF                                   #  ROTATE ABOUT -SCAXIS
000484: 27,2133           56137                                    CHEKAXIS
000485: 27,2134           77775        U=SCAXIS           VLOAD
000486: 27,2135           03765                                    SCAXIS
000487: 27,2136           03271                           STORE    COF                                   #  ROTATE ABOUT + SCAXIS
000488: 27,2137           51545        CHEKAXIS           DLOAD    ABS
000489: 27,2140           03765                                    SCAXIS                                #  SEE IF WE ARE POINTING THE AOT
000490: 27,2141           51025                           DSU      BPL
000491: 27,2142           14402                                    SINVEC2                               #  SIN 29.5 DEGS                         $2
000492: 27,2143           56147                                    PICKANG1                              #  IF SO, ROTATE 50 DEGS ABOUT +- SCAXIS
000493: 27,2144           52145                           DLOAD    GOTO                                  #  IF NOT, MUST BE POINTING THE TRANSPONDER
000494: 27,2145           14406                                    VECANG2                               #  OR SOME VECTOR IN THE Y, OR Z PLANE
000495: 27,2146           56151                                    COMPMFSN                              #  IN THIS CASE ROTATE 35 DEGS TO GET OUT
000496:                                                                                                  #  OF GIMBAL LOCK (VECANG2  $360)
000497: 27,2147           77745        PICKANG1           DLOAD
000498: 27,2150           14404                                    VECANG1                               #  = 50 DEGS                             $360
000499: 27,2151           77624        COMPMFSN           CALL
000500: 27,2152           44527                                    DELCOMP                               #  COMPUTE THE ROTATION ABOUT SCAXIS TO
000501: 27,2153           75160                           AXC,1    AXC,2                                 #  BRING MFS OUT OF GIMBAL LOCK
000502: 27,2154           03246                                    MIS
000503: 27,2155           02230                                    KEL
000504: 27,2156           77624                           CALL                                           #  COMPUTE THE NEW TRANSFORMATION FROM
000505: 27,2157           44312                                    MXM3                                  #  DESIRED S/C AXES TO STABLE MEMBER AXES
000506:                                                                                                  #  WHICH WILL ALIGN VI WITH VF AND AVOID


000508:                                                                                                  #  GIMBAL LOCK
000509: 27,2160           45160        FINDGIMB           AXC,1    CALL
000510: 27,2161           00000                                    0                                     #  EXTRACT THE COMMANDED CDU ANGLES FROM
000511: 27,2162           44654                                    DCMTOCDU                              #  THIS MATRIX
000512: 27,2163           40234                           RTB      SETPD
000513: 27,2164           21620                                    V1STO2S                               #  CONVERT TO 2:S COMPLEMENT
000514: 27,2165           00001                                    0
000515: 27,2166           77650                           GOTO
000516: 27,2167           03325                                    VECQTEMP                              #  RETURN TO CALLER
000517:
000518: 27,2170           50375        PICKAXIS           VLOAD    DOT                                   #  IF VF X VI = 0, FIND VF . VI
000519: 27,2171           00035                                    28D
000520: 27,2172           03765                                    SCAXIS
000521: 27,2173           72240                           BMN      TLOAD
000522: 27,2174           54350                                    ROT180
000523: 27,2175           00032                                    25D
000524: 27,2176           77650                           GOTO                                           #  IF VF = VI, CDU DESIRED = PRESENT CDU
000525: 27,2177           03325                                    VECQTEMP                              #  PRESENT CDU ANGLES
000526:
000527: 35,2000                                           BANK     35
000528: 26,2000                                           SETLOC   MANUVER1
000529: 26,2000                                           BANK
000530: 26,2350           47375        ROT180             VLOAD    VXV                                   #  IF VF, VI ANTIPARALLEL, 108 DEG ROTATION
000531: 26,2351           03255                                    MIS        +6                         #  IS REQUIRED.  Y STABLE MEMBER AXIS IN
000532: 26,2352           06520                                    HIDPHALF                              #  INITIAL S/C AXES.
000533: 26,2353           47256                           UNIT     VXV                                   #  FIND Y(SM) X X(I)
000534: 26,2354           03765                                    SCAXIS                                #  FIND UNIT(VI X UNIT(Y(SM) X X(I)))
000535: 26,2355           40056                           UNIT     BOV                                   #  I.E. PICK A VECTOR IN THE PLANE OF X(I),
000536: 26,2356           54372                                    PICKX                                 #  Y(SM) PERPENDICULAR TO VI
000537: 26,2357           17271                           STODL    COF
000538: 26,2360           00045                                    36D                                   #  CHECK MAGNITUDE
000539: 26,2361           50025                           DSU      BMN                                   #  OF THIS VECTOR.
000540: 26,2362           14411                                    DPB-14                                #  IF LESS THAN B-14,
000541: 26,2363           54372                                    PICKX                                 #  PICK X-AXIS.
000542: 26,2364           77775                           VLOAD
000543: 26,2365           03271                                    COF
000544: 26,2366           17271        XROT               STODL    COF
000545: 26,2367           06520                                    HIDPHALF
000546: 26,2370           77650                           GOTO
000547: 26,2371           56072                                    COMPMATX
000548: 26,2372           52175        PICKX              VLOAD    GOTO                                  #  PICK THE XAXIS IN THIS CASE
000549: 26,2373           06520                                    HIDPHALF
000550: 26,2374           54366                                    XROT
000551: 26,2375           15555 35172  SINGIMLC           2DEC     .4285836003                            #  = SIN(59)                             $2
000552:
000553: 26,2377           14113 36326  SINVEC1            2DEC     .3796356537                            #  = SIN(49.4)                           $2
000554:
000555: 26,2401           07701 35703  SINVEC2            2DEC     .2462117800                            #  = SIN(29.5)                           $2
000556:
000557: 26,2403           04343 21616  VECANG1            2DEC     .1388888889                            #  = 50 DEGREES                          $360


000559: 26,2405           03070 34344  VECANG2            2DEC     .09722222222                            #  = 35 DEGREES                          $360
000560:
000561: 26,2407           00000        1BITDP             OCT      0                                     #  KEEP THIS BEFORE DPB(-14)        *********
000562: 26,2410           00001        DPB-14             OCT      00001
000563: 26,2411           00000                           OCT      00000
000564:


000566:                                                                                                  #  ROUTINE FOR INITIATING AUTOMATIC MANEUVER VIA KEYBOARD (V49)
000567:
000568: 34,2000                                           BANK     34
000569: 23,2000                                           SETLOC   R62
000570: 23,2000                                           BANK
000571: 23,2103  E6,1676                                  EBANK=   BCDU
000572:
000573: 23,2103                                           COUNT*   $$/R62
000574:
000575: 23,2103  23,2103               R62DISP            EQUALS   R62FLASH
000576:
000577: 23,2103           35010        R62FLASH           CAF      V06N22                                #  FLASH V06N22 AND
000578: 23,2104           04616                           TC       BANKCALL                              #  ICDU ANGLES
000579: 23,2105           20476                           CADR     GOFLASH
000580: 23,2106           15472                           TCF      ENDEXT                                #  TERMINATE
000581: 23,2107           12111                           TCF      GOMOVE                                #  PROCEED
000582: 23,2110           12103                           TCF      R62FLASH                              #  ENTER
000583:
000584:                                                                                                  #  ASTRONAUT MAY LOAD NEW ICDUS AT THIS
000585:                                                                                                  #  POINT
000586: 23,2111           05504        GOMOVE             TC       UPFLAG                                #  SET FOR 3-AXIS MANEUVER
000587: 23,2112           00124                           ADRES    3AXISFLG
000588:
000589: 23,2113           04616                           TC       BANKCALL
000590: 23,2114           54123                           CADR     R60LEM
000591: 23,2115           15472                           TCF      ENDEXT                                #  END R62
000592:

End of include-file R60,R62.agc.  Parent file is MAIN.agc


