
Source Code


000002:                                                                                                  ## Copyright:   Public domain.
000003:                                                                                                  ## Filename:    RADAR_LEADIN_ROUTINES.agc
000004:                                                                                                  ## Purpose:     Part of the source code for Luminary 1A build 099.
000005:                                                                                                  ##              It is part of the source code for the Lunar Module's (LM)
000006:                                                                                                  ##              Apollo Guidance Computer (AGC), for Apollo 11.
000007:                                                                                                  ## Assembler:   yaYUL
000008:                                                                                                  ## Contact:     Ron Burkey <info@sandroid.org>.
000009:                                                                                                  ## Website:     www.ibiblio.org/apollo.
000010:                                                                                                  ## Pages:       490-491
000011:                                                                                                  ## Mod history: 2009-05-17 RSB  Adapted from the corresponding
000012:                                                                                                  ##                              Luminary131 file, using page
000013:                                                                                                  ##                              images from Luminary 1A.
000014:                                                                                                  ##
000015:                                                                                                  ## This source code has been transcribed or otherwise adapted from
000016:                                                                                                  ## digitized images of a hardcopy from the MIT Museum.  The digitization
000017:                                                                                                  ## was performed by Paul Fjeld, and arranged for by Deborah Douglas of
000018:                                                                                                  ## the Museum.  Many thanks to both.  The images (with suitable reduction
000019:                                                                                                  ## in storage size and consequent reduction in image quality as well) are
000020:                                                                                                  ## available online at www.ibiblio.org/apollo.  If for some reason you
000021:                                                                                                  ## find that the images are illegible, contact me at info@sandroid.org
000022:                                                                                                  ## about getting access to the (much) higher-quality images which Paul
000023:                                                                                                  ## actually created.
000024:                                                                                                  ##
000025:                                                                                                  ## Notations on the hardcopy document read, in part:
000026:                                                                                                  ##
000027:                                                                                                  ##      Assemble revision 001 of AGC program LMY99 by NASA 2021112-61
000028:                                                                                                  ##      16:27 JULY 14, 1969
000029:


000031: 25,2003                                           BANK     25
000032: 25,2000                                           SETLOC   RRLEADIN
000033: 25,2000                                           BANK
000034:
000035: 25,2003  E4,1600                                  EBANK=   RSTACK
000036:
000037:                                                                                                  #  RADAR SAMPLING LOOP.
000038:
000039: 25,2003                                           COUNT*   $$/RLEAD
000040: 25,2003           11755        RADSAMP            CCS      RSAMPDT                               #  TIMES NORMAL ONCE PER SECOND SAMLING
000041: 25,2004           12006                           TCF      +2
000042: 25,2005           15261                           TCF      TASKOVER                              #  +0 INSERTED MANUALLY TERMINATES TEST.
000043:
000044: 25,2006           05203                           TC       WAITLIST
000045: 25,2007  E4,1600                                  EBANK=   RSTACK
000046: 25,2007           02003 52064                     2CADR    RADSAMP
000047:
000048: 25,2011           37713                           CAF      PRIO25
000049: 25,2012           05072                           TC       NOVAC
000050: 25,2013  E4,1600                                  EBANK=   RSTACK
000051: 25,2013           02023 52064                     2CADR    DORSAMP
000052:
000053: 25,2015           34736                           CAF      BIT14                                 #  FOR CYCLIC SAMPLING, RTSTDEX=
000054: 25,2016           00006                           EXTEND                                         #  RTSTLOC/2 + RTSTBASE
000055: 25,2017           71754                           MP       RTSTLOC
000056: 25,2020           61753                           AD       RTSTBASE                              #  0 FOR RR, 2 FOR LR.
000057: 25,2021           55751                           TS       RTSTDEX
000058: 25,2022           15261                           TCF      TASKOVER
000059:
000060:                                                                                                  #  DO THE ACTUAL RADAR SAMPLE.
000061:
000062: 25,2023           02047        DORSAMP            TC       VARADAR                               #  SELECTS VARIABLE RADAR CHANNEL.
000063: 25,2024           04616                           TC       BANKCALL
000064: 25,2025           17714                           CADR     RADSTALL
000065:
000066: 25,2026           25756                           INCR     RFAILCNT                              #  ADVANCE FAIL COUNTER BUT ACCEPT BAD DATA
000067:
000068: 25,2027           00004        DORSAMP2           INHINT
000069: 25,2030           30101                           CA       FLAGWRD5                              #  DON'T UPDATE RSTACK IF IN R77.
000070: 25,2031           74741                           MASK     R77FLBIT
000071: 25,2032           10000                           CCS      A
000072: 25,2033           12037                           TCF      +4
000073:
000074: 25,2034           53102                           DXCH     SAMPLSUM
000075: 25,2035           51754                           INDEX    RTSTLOC
000076: 25,2036           53601                           DXCH     RSTACK
000077:
000078: 25,2037           41754                           CS       RTSTLOC                               #  CYCLE RTSTLOC.
000079: 25,2040           61752                           AD       RTSTMAX
000080: 25,2041           00006                           EXTEND
000081:


000083: 25,2042           12045                           BZF      +3
000084: 25,2043           31754                           CA       RTSTLOC
000085: 25,2044           64752                           AD       TWO                                   #  STORAGE IS DP
000086: 25,2045           55754                           TS       RTSTLOC
000087: 25,2046           15155                           TCF      ENDOFJOB                              #  CONTINUOUS SAMPLING AND 2N TRIES -- GONE.
000088:
000089:                                                                                                  #  VARIABLE RADAR DATA CALLER FOR ONE MEASUREMENT ONLY.
000090:
000091: 25,2047           34753        VARADAR            CAF      ONE                                   #  WILL BE SENT TO RADAR ROUTINE IN A BY
000092: 25,2050           54133                           TS       BUF2                                  #  SWCALL
000093: 25,2051           51751                           INDEX    RTSTDEX
000094: 25,2052           32054                           CAF      RDRLOCS
000095: 25,2053           14622                           TCF      SWCALL                                #  NOT TOUCHING Q.
000096:
000097: 25,2054           53105        RDRLOCS            CADR     RRRANGE                               #  = 0
000098: 25,2055           53103                           CADR     RRRDOT                                #  = 1
000099: 25,2056           53101                           CADR     LRVELX                                #  = 2
000100: 25,2057           53077                           CADR     LRVELY                                #  = 3
000101: 25,2060           53075                           CADR     LRVELZ                                #  = 4
000102: 25,2061           53073                           CADR     LRALT                                 #  = 5
000103:
000104:

End of include-file RADAR_LEADIN_ROUTINES.agc.  Parent file is MAIN.agc


