
Source Code
000001:                                                                                                 #  Copyright:     Public domain.
000002:                                                                                                 #  Filename:      RCS_FAILURE_MONITOR.agc
000003:                                                                                                 #  Purpose:       Part of the source code for Luminary 1A build 099.
000004:                                                                                                 #                 It is part of the source code for the Lunar Module's (LM)
000005:                                                                                                 #                 Apollo Guidance Computer (AGC), for Apollo 11.
000006:                                                                                                 #  Assembler:     yaYUL
000007:                                                                                                 #  Contact:       Hartmuth Gutsche <hgutsche@xplornet.com>.
000008:                                                                                                 #  Website:       www.ibiblio.org/apollo.
000009:                                                                                                 #  Pages: 190-192
000010:                                                                                                 #  Mod history:   2009-05-19 HG   Transcribed from page images.
000011:
000012:                                                                                                 #  This source code has been transcribed or otherwise adapted from
000013:                                                                                                 #  digitized images of a hardcopy from the MIT Museum.  The digitization
000014:                                                                                                 #  was performed by Paul Fjeld, and arranged for by Deborah Douglas of
000015:                                                                                                 #  the Museum.  Many thanks to both.  The images (with suitable reduction
000016:                                                                                                 #  in storage size and consequent reduction in image quality as well) are
000017:                                                                                                 #  available online at www.ibiblio.org/apollo.  If for some reason you
000018:                                                                                                 #  find that the images are illegible, contact me at info@sandroid.org
000019:                                                                                                 #  about getting access to the (much) higher-quality images which Paul
000020:                                                                                                 #  actually created.
000021:
000022:                                                                                                 #  Notations on the hardcopy document read, in part:
000023:
000024:                                                                                                 #         Assemble revision 001 of AGC program LMY99 by NASA 2021112-61
000025:                                                                                                 #         16:27 JULY 14, 1969
000026:
000027:                                                                                                 #  Page 190
000028:                                                                                                 #  PROGRAM DESCRIPTION:
000029:
000030:                                                                                                 #  AUTHOR: J. S. MILLER
000031:
000032:                                                                                                 #  MODIFIED 6 MARCH 1968 BY P. S. WEISSMAN TO SET UP JOB FOR 1/ACCS WHEN THE MASKS ARE CHANGED.
000033:
000034:                                                                                                 #  THIS ROUTINE IS ATTACHED TO T4RUPT, AND IS ENTERED EVERY 480 MS.  ITS FUNCTION IS TO EXAMINE THE LOW 8 BITS
000035:                                                                                                 #  OF CHANNEL 32 TO SEE IF ANY ISOLATION-VALVE CLOSURE BITS HAVE APPEARED OR DISAPPEARED (THE CREW IS WARNED OF JET
000036:                                                                                                 #  FAILURES BY LAMPS LIT BY THE GRUMMAN FAILURE-DETECTION CIRCUITRY; THEY MAY RESPOND BY OPERATING SWITCHES WHICH
000037:                                                                                                 #  ISOLATE PAIRS OF JETS FROM THE PROPELLANT TANKS AND SET BITS IN CHANNEL 32).  iN THE EVENT THAT CHANNEL 32 BITS
000038:                                                                                                 #  DIFFER FROM `PVALVEST', THE RECORD OF ACTIONS TAKEN BY THIS ROUTINE, THE APPROPRIATE BITS IN `CH5MASK' &
000039:                                                                                                 #  `CH6MASK', USED BY THE DAP JET-SELECTION LOGIC, ARE UPDATED, AS IS `PVALVEST'.  TO SPEED UP & SHORTEN THE
000040:                                                                                                 #  ROUTINE, NO MORE THAN ONE CHANGE IS ACCEPTED PER ENTRY.  THE HIGHEST-NUMBERED BIT IN CHANNEL 32 WHICH REQUIRES
000041:                                                                                                 #  ACTION IS THE ONE PROCESSED.
000042:
000043:                                                                                                 #  THE CODING IN THE FAILURE MONITOR HAS BEEN WRITTEN SO AS TO HAVE ALMOST COMPLETE RESTART PROTECTION.  FOR
000044:                                                                                                 #  EXAMPLE, NO ASSUMPTION IS MADE WHEN SETTING A `CH5MASK' BIT TO 1 THAT THE PREVIOUS STATE IS 0, ALTHOUGH IT OF
000045:                                                                                                 #  COURSE SHOULD BE.  ONE CASE WHICH MAY BE SEEN TO EVADE PROTECTION IS THE OCCURRENCE OF A RESTART AFTER UPDATING
000046:                                                                                                 #  ONE OR BOTH DAP MASK-WORDS BUT BEFORE UPDATING `PVALVEST', COUPLED WITH A CHANGE IN THE VALVE-BIT BACK TO ITS
000047:                                                                                                 #  FORMER STATE.  THE CONSEQUENCE OF THIS IS THAT THE NEXT ENTRY WOULD NOT SEE THE CHANGE INCOMPLETELY INCORP-
000048:                                                                                                 #  ORATED BY THE LAST PASS (BECAUSE IT WENT AWAY AT JUST THE RIGHT TIME), BUT THE DAP MASK-WORDS WILL BE INCORRECT.
000049:                                                                                                 #  THIS COMBINATION OF EVENTS SEEMS QUITE REMOTE, BUT NOT IMPOSSIBLE UNLESS THE CREW OPERATES THE SWITCHES AT HALF-
000050:                                                                                                 #  SECOND INTERVALS OR LONGER.  IN ANY EVENT, A DISAGREEMENT BETWEEN REALITY AND THE DAP MASKS WILL BE CUREED IF
000051:                                                                                                 #  THE MISINTERPRETED SWITCH IS REVERSED AND THEN RESTORED TO ITS CORRECT POSITION (SLOWLY).
000052:
000053:                                                                                                 #  CALLING SEQUENCE:
000054:
000055:                                                                                                 #         TCF     RCSMONIT                # (IN INTERRUPT MODE, EVERY 480 MS.)
000056:
000057:                                                                                                 #  EXIT: TCF RCSMONEX (ALL PATHS EXIT VIA SUCH AN INSTRUCTION)
000058:
000059: 06,3156     5270               RCSMONEX          EQUALS   RESUME
000060:
000061:                                                                                                 #  ERASABLE INITIALIZATION REQUIRED:
000062:
000063:                                                                                                 #         VIA FRESH START:        PVALVEST        =       +0      (ALL JETS ENABLED)
000064:                                                                                                 #                                 CH5MASK,CH6MASK =       +0      (ALL JETS OK)
000065:
000066:                                                                                                 #  OUTPUT:        CH5MASK & CH6MASK UPDATED (1'S WHERE JETS NOT TO BE USED, IN CHANNEL 5 & 6 FORMAT)
000067:                                                                                                 #                 PVALTEST UPDATED (1'S WHEN VALVE CLOSURES HAVE BEEN TRANSLATED INTO CH5MASK & CH6MASK; CHAN 32 FORMAT)
000068:                                                                                                 #                 JOB TO DO 1/ACCS.
000069:
000070:                                                                                                 #  DEBRIS:  A, L, AND Q AND DEBRIS OF NOVAC.
000071:
000072:                                                                                                 #  SUBROUTINE CALLED:  NOVAC.
000073:
000074: 06,3156     1262                                 EBANK=   CH5MASK
000075:
000076: 23,2000                                          BANK     23
000077: 06,2000                                          SETLOC   RCSMONT
000078: 06,2000                                          BANK
000079:                                                                                                 #  Page 191
000080: 06,3156                                          COUNT*   $$/T4RCS
000081:
000082: 06,3156  06,3156               RCSMONIT          EQUALS   RCSMON
000083:
000084: 06,3156           44755        RCSMON            CS       ZERO
000085: 06,3157           00006                          EXTEND
000086: 06,3160           06032                          RXOR     CHAN32                                #  PICK UP + INVERT INVERTED CHANNEL 32.
000087: 06,3161           74357                          MASK     LOW8                                  #  KEEP JET-FAIL BITS ONLY.
000088: 06,3162           54002                          TS       Q
000089:
000090: 06,3163           41276                          CS       PVALVEST                              #        _   _
000091: 06,3164           70002                          MASK     Q                                     #  FORM PC + PC.
000092: 06,3165           54001                          TS       L                                     #         (P = PREVIOUS ISOLATION VALVE STATE,
000093: 06,3166           40002                          CS       Q                                     #          C = CURRENT VALVE STATE (CH32)).
000094: 06,3167           71276                          MASK     PVALVEST
000095: 06,3170           26001                          ADS      L                                     #  RESULT NZ INDICATES ACTION REQUIRED.
000096:
000097: 06,3171           00006                          EXTEND
000098: 06,3172           15270                          BZF      RCSMONEX                              #  QUIT IF NO ACTION REQUIRED.
000099:
000100: 06,3173           00006                          EXTEND
000101: 06,3174           74745                          MP       BIT7                                  #  MOVE BITS 8-1 OF A TO 14-7 OF L.
000102: 06,3175           56001                          XCH      L                                     #  ZERO TO L IN THE PROCESS.
000103:
000104: 06,3176           24001                 -3       INCR     L
000105: 06,3177           60000                          DOUBLE                                         #  BOUND TO GET OVERFLOW IN THIS LOOP,
000106: 06,3200           54000                          OVSK                                           #  SINCE WE ASSURED INITIAL NZ IN A.
000107: 06,3201           13176                          TCF      -3
000108:
000109: 06,3202           50001                          INDEX    L
000110: 06,3203           34743                          CA       BIT8       -1                         #  SAVE THE RELEVANT BIT (8-1).
000111: 06,3204           54002                          TS       Q
000112: 06,3205           71276                          MASK     PVALVEST                              #  LOOK AT PREVIOUS VALVE STATE BIT.
000113: 06,3206           10000                          CCS      A
000114: 06,3207           13223                          TCF      VOPENED                               #  THE VALVE HAS JUST BEEN OPENED.
000115:
000116: 06,3210           41262                          CS       CH5MASK                               #  THE VALVE HAS JUST BEEN CLOSED.
000117: 06,3211           50001                          INDEX    L
000118: 06,3212           73242                          MASK     5FAILTAB
000119: 06,3213           27262                          ADS      CH5MASK                               #  SET INHIBIT BIT FOR CHANNEL 5 JET.
000120:
000121: 06,3214           41263                          CS       CH6MASK
000122: 06,3215           50001                          INDEX    L
000123: 06,3216           73252                          MASK     6FAILTAB
000124: 06,3217           27263                          ADS      CH6MASK                               #  SET INGIBIT BIT FOR CHANNEL 6 JET
000125:
000126: 06,3220           30002                          CA       Q
000127: 06,3221           27276                          ADS      PVALVEST                              #  RECORD ACTION TAKEN.
000128:
000129: 06,3222           13236                          TCF      1/ACCFIX                              #  SET UP 1/ACCJOB AND EXIT.
000130:
000131:                                                                                                 #  Page 192
000132: 06,3223           50001        VOPENED           INDEX    L                                     #  A VALVE HAS JUST BEEN OPENED.
000133: 06,3224           43242                          CS       5FAILTAB
000134: 06,3225           71262                          MASK     CH5MASK
000135: 06,3226           55262                          TS       CH5MASK                               #  REMOVE INHIBIT BIT FOR CHANNEL 5 JET.
000136:
000137: 06,3227           50001                          INDEX    L
000138: 06,3230           43252                          CS       6FAILTAB
000139: 06,3231           71263                          MASK     CH6MASK
000140: 06,3232           55263                          TS       CH6MASK                               #  REMOVE INHIBIT BIT FOR CHANNEL 6 JET.
000141:
000142: 06,3233           40002                          CS       Q
000143: 06,3234           71276                          MASK     PVALVEST
000144: 06,3235           55276                          TS       PVALVEST                              #  RECORD ACTION TAKEN.
000145:
000146: 06,3236           37715        1/ACCFIX          CAF      PRIO27                                #  SET UP 1/ACCS SO THAT THE SWITCH CURVES
000147: 06,3237           05072                          TC       NOVAC                                 #         FOR TJETLAW CAN BE MODIFIED IF CH5MASK
000148: 06,3240  E6,1537                                 EBANK=   AOSQ                                  #         HAS BEEN ALTERED.
000149: 06,3240           02454 40106                    2CADR    1/ACCJOB
000150:
000151: 06,3242           15270                          TCF      RCSMONEX                              #  EXIT.
000152:
000153: 06,3243                        5FAILTAB          EQUALS   -1                                    #  CH 5 JET BIT CORRESPONDING TO CH 32 BIT:
000154: 06,3243           00040                          OCT      00040                                 #  8
000155: 06,3244           00020                          OCT      00020                                 #  7
000156: 06,3245           00100                          OCT      00100                                 #  6
000157: 06,3246           00200                          OCT      00200                                 #  5
000158: 06,3247           00010                          OCT      00010                                 #  4
000159: 06,3250           00001                          OCT      00001                                 #  3
000160: 06,3251           00004                          OCT      00004                                 #  2
000161: 06,3252           00002                          OCT      00002                                 #  1
000162:
000163: 06,3253                        6FAILTAB          EQUALS   -1                                    #  CH 6 JET BIT CORRESPONDING TO CH 32 BIT:
000164: 06,3253           00010                          OCT      00010                                 #  8
000165: 06,3254           00020                          OCT      00020                                 #  7
000166: 06,3255           00004                          OCT      00004                                 #  6
000167: 06,3256           00200                          OCT      00200                                 #  5
000168: 06,3257           00001                          OCT      00001                                 #  4
000169: 06,3260           00002                          OCT      00002                                 #  3
000170: 06,3261           00040                          OCT      00040                                 #  2
000171: 06,3262           00100                          OCT      00100                                 #  1
000172:
000173:

End of include-file RCS_FAILURE_MONITOR.agc.  Parent file is MAIN.agc


