
Source Code


000002:                                                                                                  ## Copyright:   Public domain.
000003:                                                                                                  ## Filename:    RCS_FAILURE_MONITOR.agc
000004:                                                                                                  ## Purpose:     Part of the source code for Luminary 1A build 099.
000005:                                                                                                  ##              It is part of the source code for the Lunar Module's (LM)
000006:                                                                                                  ##              Apollo Guidance Computer (AGC), for Apollo 11.
000007:                                                                                                  ## Assembler:   yaYUL
000008:                                                                                                  ## Contact:     Hartmuth Gutsche <hgutsche@xplornet.com>.
000009:                                                                                                  ## Website:     www.ibiblio.org/apollo.
000010:                                                                                                  ## Pages:       190-192
000011:                                                                                                  ## Mod history: 2009-05-19 HG   Transcribed from page images.
000012:                                                                                                  ##              2016-12-13 RSB  Proofed text comments with octopus/ProoferComments
000013:                                                                                                  ##                              and corrected the errors found.
000014:                                                                                                  ##
000015:                                                                                                  ## This source code has been transcribed or otherwise adapted from
000016:                                                                                                  ## digitized images of a hardcopy from the MIT Museum.  The digitization
000017:                                                                                                  ## was performed by Paul Fjeld, and arranged for by Deborah Douglas of
000018:                                                                                                  ## the Museum.  Many thanks to both.  The images (with suitable reduction
000019:                                                                                                  ## in storage size and consequent reduction in image quality as well) are
000020:                                                                                                  ## available online at www.ibiblio.org/apollo.  If for some reason you
000021:                                                                                                  ## find that the images are illegible, contact me at info@sandroid.org
000022:                                                                                                  ## about getting access to the (much) higher-quality images which Paul
000023:                                                                                                  ## actually created.
000024:                                                                                                  ##
000025:                                                                                                  ## Notations on the hardcopy document read, in part:
000026:                                                                                                  ##
000027:                                                                                                  ##      Assemble revision 001 of AGC program LMY99 by NASA 2021112-61
000028:                                                                                                  ##      16:27 JULY 14, 1969
000029:


000031:                                                                                                  #  PROGRAM DESCRIPTION
000032:
000033:                                                                                                  #  AUTHOR: J S MILLER
000034:
000035:                                                                                                  #  MODIFIED 6 MARCH 1968 BY P S WEISSMAN TO SET UP JOB FOR 1/ACCS WHEN THE MASKS ARE CHANGED.
000036:
000037:                                                                                                  #  THIS ROUTINE IS ATTACHED TO T4RUPT, AND IS ENTERED EVERY 480 MS.  ITS FUNCTION IS TO EXAMINE THE LOW 8 BITS
000038:                                                                                                  #  OF CHANNEL 32 TO SEE IF ANY ISOLATION-VALVE CLOSURE BITS HAVE APPEARED OR DISAPPEARED (THE CREW IS WARNED OF JET
000039:                                                                                                  #  FAILURES BY LAMPS LIT BY THE GRUMMAN FAILURE-DETECTION CIRCUITRY; THEY MAY RESPOND BY OPERATING SWITCHES WHICH
000040:                                                                                                  #  ISOLATE PAIRS OF JETS FROM THE PROPELLANT TANKS AND SET BITS IN CHANNEL 32).  IN THE EVENT THAT CHANNEL 32 BITS
000041:                                                                                                  #  DIFFER FROM 'PVALVEST', THE RECORD OF ACTIONS TAKEN BY THIS ROUTINE, THE APPROPRIATE BITS IN 'CH5MASK' &
000042:                                                                                                  #  'CH6MASK', USED BY THE DAP JET-SELECTION LOGIC, ARE UPDATED, AS IS 'PVALVEST'.  TO SPEED UP & SHORTEN THE
000043:                                                                                                  #  ROUTINE, NO MORE THAN ONE CHANGE IS ACCEPTED PER ENTRY.  THE HIGHEST-NUMBERED BIT IN CHANNEL 32 WHICH REQUIRES
000044:                                                                                                  #  ACTION IS THE ONE PROCESSED.
000045:
000046:                                                                                                  #  THE CODING IN THE FAILURE MONITOR HAS BEEN WRITTEN SO AS TO HAVE ALMOST COMPLETE RESTART PROTECTION.  FOR
000047:                                                                                                  #  EXAMPLE, NO ASSUMPTION IS MADE WHEN SETTING A 'CH5MASK' BIT TO 1 THAT THE PREVIOUS STATE IS 0, ALTHOUGH IT OF
000048:                                                                                                  #  COURSE SHOULD BE.  ONE CASE WHICH MAY BE SEEN TO EVADE PROTECTION IS THE OCCURRENCE OF A RESTART AFTER UPDATING
000049:                                                                                                  #  ONE OR BOTH DAP MASK-WORDS BUT BEFORE UPDATING 'PVALVEST', COUPLED WITH A CHANGE IN THE VALVE-BIT BACK TO ITS
000050:                                                                                                  #  FORMER STATE.  THE CONSEQUENCE OF THIS IS THAT THE NEXT ENTRY WOULD NOT SEE THE CHANGE INCOMPLETELY INCORP-
000051:                                                                                                  #  ORATED BY THE LAST PASS (BECAUSE IT WENT AWAY AT JUST THE RIGHT TIME), BUT THE DAP MASK-WORDS WILL BE INCORRECT.
000052:                                                                                                  #  THIS COMBINATION OF EVENTS SEEMS QUITE REMOTE, BUT NOT IMPOSSIBLE UNLESS THE CREW OPERATES THE SWITCHES AT HALF-
000053:                                                                                                  #  SECOND INTERVALS OR LONGER.  IN ANY EVENT, A DISAGREEMENT BETWEEN REALITY AND THE DAP MASKS WILL BE CURED IF
000054:                                                                                                  #  THE MISINTERPRETED SWITCH IS REVERSED AND THEN RESTORED TO ITS CORRECT POSITION (SLOWLY).
000055:
000056:                                                                                                  #  CALLING SEQUENCE:
000057:
000058:                                                                                                  #        TCF     RCSMONIT                (IN INTERRUPT MODE, EVERY 480 MS.)
000059:
000060:                                                                                                  #  EXIT: TCF RCSMONEX (ALL PATHS EXIT VIA SUCH AN INSTRUCTION)
000061:
000062: 06,3156     5270               RCSMONEX           EQUALS   RESUME
000063:
000064:                                                                                                  #  ERASABLE INITIALIZATION REQUIRED:
000065:
000066:                                                                                                  #        VIA FRESH START:        PVALVEST        =       +0      (ALL JETS ENABLED)
000067:                                                                                                  #                                CH5MASK,CH6MASK =       +0      (ALL JETS OK)
000068:
000069:                                                                                                  #  OUTPUT:       CH5MASK & CH6MASK UPDATED (1'S WHERE JETS NOT TO BE USED, IN CHANNEL 5 & 6 FORMAT)
000070:                                                                                                  #                PVALTEST UPDATED (1'S WHEN VALVE CLOSURES HAVE BEEN TRANSLATED INTO CH5MASK & CH6MASK; CHAN 32 FORMAT)
000071:                                                                                                  #                JOB TO DO 1/ACCS.
000072:
000073:                                                                                                  #  DEBRIS:  A, L, Q AND DEBRIS OF NOVAC.
000074:
000075:                                                                                                  #  SUBROUTINE CALLED:  NOVAC.
000076:
000077: 06,3156     1262                                  EBANK=   CH5MASK
000078:
000079: 23,2000                                           BANK     23
000080: 06,2000                                           SETLOC   RCSMONT
000081: 06,2000                                           BANK


000083: 06,3156                                           COUNT*   $$/T4RCS
000084:
000085: 06,3156  06,3156               RCSMONIT           EQUALS   RCSMON
000086:
000087: 06,3156           44755        RCSMON             CS       ZERO
000088: 06,3157           00006                           EXTEND
000089: 06,3160           06032                           RXOR     CHAN32                                #  PICK UP + INVERT INVERTED CHANNEL 32.
000090: 06,3161           74357                           MASK     LOW8                                  #  KEEP JET-FAIL BITS ONLY.
000091: 06,3162           54002                           TS       Q
000092:
000093: 06,3163           41276                           CS       PVALVEST                              #        _   _
000094: 06,3164           70002                           MASK     Q                                     #  FORM PC + PC.
000095: 06,3165           54001                           TS       L                                     #        (P = PREVIOUS ISOLATION VALVE STATE,
000096: 06,3166           40002                           CS       Q                                     #         C = CURRENT VALVE STATE (CH32)).
000097: 06,3167           71276                           MASK     PVALVEST
000098: 06,3170           26001                           ADS      L                                     #  RESULT NZ INDICATES ACTION REQUIRED.
000099:
000100: 06,3171           00006                           EXTEND
000101: 06,3172           15270                           BZF      RCSMONEX                              #  QUIT IF NO ACTION REQUIRED.
000102:
000103: 06,3173           00006                           EXTEND
000104: 06,3174           74745                           MP       BIT7                                  #  MOVE BITS 8-1 OF A TO 14-7 OF L.
000105: 06,3175           56001                           XCH      L                                     #  ZERO TO L IN THE PROCESS.
000106:
000107: 06,3176           24001                 -3        INCR     L
000108: 06,3177           60000                           DOUBLE                                         #  BOUND TO GET OVERFLOW IN THIS LOOP,
000109: 06,3200           54000                           OVSK                                           #  SINCE WE ASSURED INITIAL NZ IN A.
000110: 06,3201           13176                           TCF      -3
000111:
000112: 06,3202           50001                           INDEX    L
000113: 06,3203           34743                           CA       BIT8       -1                         #  SAVE THE RELEVANT BIT (8-1).
000114: 06,3204           54002                           TS       Q
000115: 06,3205           71276                           MASK     PVALVEST                              #  LOOK AT PREVIOUS VALVE STATE BIT.
000116: 06,3206           10000                           CCS      A
000117: 06,3207           13223                           TCF      VOPENED                               #  THE VALVE HAS JUST BEEN OPENED.
000118:
000119: 06,3210           41262                           CS       CH5MASK                               #  THE VALVE HAS JUST BEEN CLOSED.
000120: 06,3211           50001                           INDEX    L
000121: 06,3212           73242                           MASK     5FAILTAB
000122: 06,3213           27262                           ADS      CH5MASK                               #  SET INHIBIT BIT FOR CHANNEL 5 JET.
000123:
000124: 06,3214           41263                           CS       CH6MASK
000125: 06,3215           50001                           INDEX    L
000126: 06,3216           73252                           MASK     6FAILTAB
000127: 06,3217           27263                           ADS      CH6MASK                               #  SET INGIBIT BIT FOR CHANNEL 6 JET.
000128:
000129: 06,3220           30002                           CA       Q
000130: 06,3221           27276                           ADS      PVALVEST                              #  RECORD ACTION TAKEN.
000131:
000132: 06,3222           13236                           TCF      1/ACCFIX                              #  SET UP 1/ACCJOB AND EXIT.
000133:


000135: 06,3223           50001        VOPENED            INDEX    L                                     #  A VALVE HAS JUST BEEN OPENED.
000136: 06,3224           43242                           CS       5FAILTAB
000137: 06,3225           71262                           MASK     CH5MASK
000138: 06,3226           55262                           TS       CH5MASK                               #  REMOVE INHIBIT BIT FOR CHANNEL 5 JET.
000139:
000140: 06,3227           50001                           INDEX    L
000141: 06,3230           43252                           CS       6FAILTAB
000142: 06,3231           71263                           MASK     CH6MASK
000143: 06,3232           55263                           TS       CH6MASK                               #  REMOVE INHIBIT BIT FOR CHANNEL 6 JET.
000144:
000145: 06,3233           40002                           CS       Q
000146: 06,3234           71276                           MASK     PVALVEST
000147: 06,3235           55276                           TS       PVALVEST                              #  RECORD ACTION TAKEN.
000148:
000149: 06,3236           37715        1/ACCFIX           CAF      PRIO27                                #  SET UP 1/ACCS SO THAT THE SWITCH CURVES
000150: 06,3237           05072                           TC       NOVAC                                 #        FOR TJETLAW CAN BE MODIFIED IF CH5MASK
000151: 06,3240  E6,1537                                  EBANK=   AOSQ                                  #        HAS BEEN ALTERED.
000152: 06,3240           02454 40106                     2CADR    1/ACCJOB
000153:
000154: 06,3242           15270                           TCF      RCSMONEX                              #  EXIT.
000155:
000156: 06,3243                        5FAILTAB           EQUALS   -1                                    #  CH 5 JET BIT CORRESPONDING TO CH 32 BIT:
000157: 06,3243           00040                           OCT      00040                                 #  8
000158: 06,3244           00020                           OCT      00020                                 #  7
000159: 06,3245           00100                           OCT      00100                                 #  6
000160: 06,3246           00200                           OCT      00200                                 #  5
000161: 06,3247           00010                           OCT      00010                                 #  4
000162: 06,3250           00001                           OCT      00001                                 #  3
000163: 06,3251           00004                           OCT      00004                                 #  2
000164: 06,3252           00002                           OCT      00002                                 #  1
000165:
000166: 06,3253                        6FAILTAB           EQUALS   -1                                    #  CH 6 JET BIT CORRESPONDING TO CH 32 BIT:
000167: 06,3253           00010                           OCT      00010                                 #  8
000168: 06,3254           00020                           OCT      00020                                 #  7
000169: 06,3255           00004                           OCT      00004                                 #  6
000170: 06,3256           00200                           OCT      00200                                 #  5
000171: 06,3257           00001                           OCT      00001                                 #  4
000172: 06,3260           00002                           OCT      00002                                 #  3
000173: 06,3261           00040                           OCT      00040                                 #  2
000174: 06,3262           00100                           OCT      00100                                 #  1
000175:
000176:

End of include-file RCS_FAILURE_MONITOR.agc.  Parent file is MAIN.agc


