
Source Code


000002:                                                                                                  ## Copyright:   Public domain.
000003:                                                                                                  ## Filename:    RESTART_TABLES.agc
000004:                                                                                                  ## Purpose:     Part of the source code for Luminary 1A build 099.
000005:                                                                                                  ##              It is part of the source code for the Lunar Module's (LM)
000006:                                                                                                  ##              Apollo Guidance Computer (AGC), for Apollo 11.
000007:                                                                                                  ## Assembler:   yaYUL
000008:                                                                                                  ## Contact:     Ron Burkey <info@sandroid.org>.
000009:                                                                                                  ## Website:     www.ibiblio.org/apollo.
000010:                                                                                                  ## Pages:       238-243
000011:                                                                                                  ## Mod history:  2009-05-10 SN  (Sergio Navarro).  Started adapting
000012:                                                                                                  ##                              from the Luminary131/ file of the same
000013:                                                                                                  ##                              name, using Luminary099 page images.
000014:                                                                                                  ##              2016-12-13 RSB  Proofed text comments with octopus/ProoferComments
000015:                                                                                                  ##                              and corrected the errors found.  Made some
000016:                                                                                                  ##                              P00 fixes.
000017:                                                                                                  ##
000018:                                                                                                  ## This source code has been transcribed or otherwise adapted from
000019:                                                                                                  ## digitized images of a hardcopy from the MIT Museum.  The digitization
000020:                                                                                                  ## was performed by Paul Fjeld, and arranged for by Deborah Douglas of
000021:                                                                                                  ## the Museum.  Many thanks to both.  The images (with suitable reduction
000022:                                                                                                  ## in storage size and consequent reduction in image quality as well) are
000023:                                                                                                  ## available online at www.ibiblio.org/apollo.  If for some reason you
000024:                                                                                                  ## find that the images are illegible, contact me at info@sandroid.org
000025:                                                                                                  ## about getting access to the (much) higher-quality images which Paul
000026:                                                                                                  ## actually created.
000027:                                                                                                  ##
000028:                                                                                                  ## Notations on the hardcopy document read, in part:
000029:                                                                                                  ##
000030:                                                                                                  ##      Assemble revision 001 of AGC program LMY99 by NASA 2021112-61
000031:                                                                                                  ##      16:27 JULY 14, 1969
000032:


000034:                                                                                                  #  RESTART TABLES
000035:                                                                                                  #  --------------
000036:
000037:                                                                                                  #  THERE ARE TWO FORMS OF RESTART TABLES FOR EACH GROUP.  THEY ARE KNOWN AS THE EVEN RESTART TABLES AND THE ODD
000038:                                                                                                  #  RESTART TABLES.  THE ODD TABLES HAVE ONLY ONE ENTRY OF THREE LOCATIONS WHILE THE EVEN TABLES HAVE TWO ENTRIES
000039:                                                                                                  #  EACH USING THREE LOCATIONS.  THE INFORMATION AS TO WHETHER IT IS A JOB, WAITLIST, OR A LONGCALL IS GIVEN BY THE
000040:                                                                                                  #  WAY THINGS ARE PUT IN TO THE TABLES.
000041:
000042:                                                                                                  #       A JOB HAS ITS PRIORITY STORED IN PRDTTAB OF THE CORRECT PHASE SPOT - A POSITIVE PRIORITY INDICATES A
000043:                                                                                                  #  FINDVAC JOB, A NEGATIVE PRIORITY A NOVAC.  THE 2CADR OF THE JOB IS STORED IN THE CADRTAB.
000044:                                                                                                  #  FOR EXAMPLE,
000045:
000046:                                                                                                  #                5.7SPOT         OCT     23000
000047:                                                                                                  #                                2CADR   SOMEJOB
000048:
000049:                                                                                                  #  A RESTART OF GROUP 5 WITH PHASE SEVEN WOULD THEN CAUSE SOMEJOB TO BE RESTARTED AS A FINDVAC WITH PRIORITY 23.
000050:
000051:                                                                                                  #                5.5SPOT         OCT     -23000
000052:                                                                                                  #                                2CADR   ANYJOB
000053:
000054:                                                                                                  #  HERE A RESTART OF GROUP 5 WITH PHASE 7 WOULD CAUSE ANYJOB TO BE RESTARTED AS A NOVAC WITH PRIORITY 23.
000055:                                                                                                  #  A LONGCALL HAS ITS GENADR OF ITS 2CADR STORED NEGATIVELY AND ITS BBCON STORED POSITIVELY.  IN ITS PRDTTAB IS
000056:                                                                                                  #  PLACED THE LOCATION OF A DP REGISTER THAT CONTAINS THE DELTA TIME THAT LONGCALL HAD BEEN ORIGINALLY STARTED
000057:                                                                                                  #  WITH.  EXAMPLE,
000058:
000059:                                                                                                  #                3.6SPOT         GENADR  DELTAT
000060:                                                                                                  #                                -GENADR LONGTASK
000061:                                                                                                  #                                BBCON   LONGTASK
000062:                                                                                                  #                                OCT     31000
000063:                                                                                                  #                                2CADR   JOBAGAIN
000064:
000065:                                                                                                  #  THIS WOULD START UP LONGTASK AT THE APPROPRIATE TIME, OR IMMEDIATELY IF THE TIME HAD ALREADY PASSED.  IT SHOULD
000066:                                                                                                  #  BE NOTED THAT IF DELTAT IS IN A SWITCHED E BANK, THIS INFORMATOIN SHOULD BE IN THE BBCON OF THE 2CADR OF THE
000067:                                                                                                  #  TASK.  FROM ABOVE, WE SEE THAT THE SECOND PART OF THIS PHASE WOULD BE STARTED AS A JOB WITH A PRIORITY OF 31.
000068:
000069:                                                                                                  #  WAITLIST CALLS ARE IDENTIFIED BY THE FACT THAT THEIR 2CADR IS STORED NEGATIVELY.  IF PRDTTAB OF THE PHASE SPOT
000070:                                                                                                  #  IS POSITIVE, THEN IT CONTAINS THE DELTA TIME, IF PRDTTAB IS NEGATIVE THEN IT IS THE -GENADR OF AN ERASABLE
000071:                                                                                                  #  LOCATION CONTAINING THE DELTA TIME, THAT IS, THE TIME IS STORED INDIRECTLY.  IT SHOULD BE NOTED AS ABOVE, THAT
000072:                                                                                                  #  IF THE TIME IS STORED INDIRECTLY, THE BBCON MUST CONTAIN THE NECESSARY E BANK INFORMATION IF APPLICABLE.  WITH
000073:                                                                                                  #  WAITLIST WE HAVE ONE FURTHER OPTION, IF -0 IS STORED IN PRDTTAB, IT WILL CAUSE AN IMMEDIATE RESTART OF THE
000074:                                                                                                  #  TASK.  EXAMPLES,
000075:
000076:                                                                                                  #                                OCT     77777           THIS WILL CAUSE AN IMMEDIATE RESTART
000077:                                                                                                  #                                -2CADR  ATASK           OF THE TASK :ATASK:
000078:                                                                                                  #
000079:                                                                                                  #                                DEC     200             IF THE TIME OF THE 2 SECONDS SINCE DUMMY
000080:                                                                                                  #                                -2CADR  DUMMY           WAS PUT ON WAITLIST IS UP, IT WILL BEGIN
000081:                                                                                                  #                                                        IN 10 MS, OTHERWISE IT WILL BEGIN WHEN
000082:                                                                                                  #                                                        IT NORMALLY WOULD HAVE BEGUN.


000084:                                                                                                  #                                -GENADR DTIME           WHERE DTIME CONTAINS THE DELTA TIME
000085:                                                                                                  #                                -2CADR  TASKTASK        OTHERWISE THIS IS AS ABOVE
000086:
000087:                                                                                                  #  ***** NOW THE TABLES THEMSELVES *****
000088:
000089: 01,2002                                           BANK     01
000090: 01,2000                                           SETLOC   RESTART
000091: 01,2000                                           BANK
000092:
000093: 01,2002                        PRDTTAB            EQUALS   12000                                 #  USED TO FIND THE PRIORITY OR DELTATIME
000094: 01,2002                        CADRTAB            EQUALS   12001                                 #  THIS AND THE NEXT RELATIVE LOC CONTAIN
000095:                                                                                                  #  RESTART 2CADR
000096:
000097: 01,2002                                           COUNT*   $$/RSTAB                              #  TABLES IN BANK 1.
000098: 01,2002           00010        SIZETAB            TC       1.2SPOT    -12006
000099: 01,2003           00020                           TC       1.3SPOT    -12004
000100: 01,2004           00010                           TC       2.2SPOT    -12006
000101: 01,2005           00023                           TC       2.3SPOT    -12004
000102: 01,2006           00010                           TC       3.2SPOT    -12006
000103: 01,2007           00053                           TC       3.3SPOT    -12004
000104: 01,2010           00057                           TC       4.2SPOT    -12006
000105: 01,2011           00067                           TC       4.3SPOT    -12004
000106: 01,2012           00142                           TC       5.2SPOT    -12006
000107: 01,2013           00160                           TC       5.3SPOT    -12004
000108: 01,2014           00010                           TC       6.2SPOT    -12006
000109: 01,2015           00171                           TC       6.3SPOT    -12004
000110: 01,2016           21000        1.2SPOT            OCT      21000                                 #  A DUMMY EXAMPLE TO BE REPLACED AS SOON
000111: 01,2017     0074                                  EBANK=   STATE
000112: 01,2017           05155 04060                     2CADR    ENDOFJOB                              #  AS THERE IS A LEGITIMATE 1.2SPOT
000113:
000114: 01,2021           00144                           DEC      100        B-14
000115: 01,2022     0074                                  EBANK=   STATE
000116: 01,2022           05261 04060                     2CADR    TASKOVER
000117:
000118:                                                                                                  #  ANY MORE GROUP 1.EVEN RESTART VALUES SHOULD GO HERE
000119:
000120: 01,2024           76300        1.3SPOT            -GENADR  SAVET-30
000121: 01,2025  E7,1515                                  EBANK=   DVCNTR
000122: 01,2025           75431 03710                     -2CADR   ULLGTASK
000123:
000124:                                                                                                  #  ANY MORE GROUP 1.ODD RESTART VALUES SHOULD GO HERE
000125:
000126: 01,2027  01,2016               2.2SPOT            EQUALS   1.2SPOT
000127:
000128:                                                                                                  #  ANY MORE GROUP 2.EVEN RESTART VALUES SHOULD GO HERE
000129:
000130: 01,2027           02630        2.3SPOT            GENADR   600SECS
000131:
000132: 01,2030           75173                           -GENADR  STATEINT
000133: 01,2031  E3,1554                                  EBANK=   RRECTCSM
000134: 01,2031           26063                           BBCON    STATEINT
000135:


000137: 01,2032           05000        2.5SPOT            OCT      05000
000138: 01,2033  E3,1554                                  EBANK=   RRECTCSM
000139: 01,2033           02613 26063                     2CADR    STATINT1
000140:
000141: 01,2035           02734        2.7SPOT            DEC      1500       B-14
000142: 01,2036  E7,1456                                  EBANK=   LOSCOUNT
000143: 01,2036           75533 27710                     -2CADR   P20LEMC1
000144:
000145: 01,2040           14000        2.11SPOT           OCT      14000
000146: 01,2041  E7,1762                                  EBANK=   P21TIME
000147: 01,2041           02416 50067                     2CADR    P25LEM1
000148:
000149: 01,2043           10000        2.13SPOT           OCT      10000
000150: 01,2044  E7,1456                                  EBANK=   LOSCOUNT
000151: 01,2044           02217 54067                     2CADR    RELINUS
000152:
000153: 01,2046           26000        2.15SPOT           OCT      26000
000154: 01,2047  E7,1456                                  EBANK=   LOSCOUNT
000155: 01,2047           02653 50067                     2CADR    R22RSTRT
000156:
000157: 01,2051           77777        2.17SPOT           OCT      77777
000158: 01,2052  E7,1700                                  EBANK=   VGPREV
000159: 01,2052           75440 03710                     -2CADR   REDO2.17
000160:
000161: 01,2054           00031        2.21SPOT           DEC      25         B-14
000162: 01,2055  E7,1515                                  EBANK=   DVCNTR
000163: 01,2055           75771 35710                     -2CADR   R10,R11
000164:
000165:                                                                                                  #  ANY MORE GROUP 2.ODD RESTART VALUES SHOULD GO HERE.
000166:
000167: 01,2057  01,2016               3.2SPOT            EQUALS   1.2SPOT
000168:
000169:                                                                                                  #  ANY MORE GROUP 3.EVEN RESTART VALUES SHOULD GO HERE
000170:
000171: 01,2057           76355        3.3SPOT            -GENADR  ZOOMTIME
000172: 01,2060  E7,1515                                  EBANK=   DVCNTR
000173: 01,2060           75755 41710                     -2CADR   ZOOM
000174:
000175: 01,2062           20000        3.5SPOT            OCT      20000
000176: 01,2063  E7,1453                                  EBANK=   TTOGO
000177: 01,2063           02540 56067                     2CADR    S40.13
000178:
000179:                                                                                                  #  ANY MORE GROUP 3.ODD RESTART VALUES SHOULD GO HERE
000180:
000181: 01,2065           04704        4.2SPOT            DEC      2500       B-14
000182: 01,2066  E7,1453                                  EBANK=   TTOGO
000183:
000184: 01,2066           75425 03710                     -2CADR   TIG-5
000185:
000186: 01,2070           77777                           OCT      77777
000187: 01,2071  E7,1453                                  EBANK=   TTOGO


000189: 01,2071           75435 03710                     -2CADR   REDO4.2
000190:
000191:                                                                                                  #  ANY MORE GROUP 4.EVEN RESTART VALUES SHOULD GO HERE
000192:
000193: 01,2073           25000        4.3SPOT            OCT      25000
000194: 01,2074  E7,1515                                  EBANK=   DVCNTR
000195: 01,2074           03540 64067                     2CADR    GOABORT
000196:
000197: 01,2076           00062        4.5SPOT            DEC      50         B-14
000198: 01,2077  E7,1453                                  EBANK=   TTOGO
000199: 01,2077           75215 03710                     -2CADR   ULLAGOFF
000200:
000201: 01,2101           00764        4.7SPOT            DEC      500        B-14
000202: 01,2102  E7,1515                                  EBANK=   DVCNTR
000203: 01,2102           75374 03710                     -2CADR   TIG-0
000204:
000205: 01,2104           76260        4.11SPOT           -GENADR  TGO        +1
000206: 01,2105  E7,1515                                  EBANK=   DVCNTR
000207: 01,2105           74235 03710                     -2CADR   ENGOFTSK
000208:
000209: 01,2107           12000        4.13SPOT           OCT      12000
000210: 01,2110  E7,1462                                  EBANK=   TRKMKCNT
000211: 01,2110           03223 74067                     2CADR    POSTBURN
000212:
000213: 01,2112           00764        4.15SPOT           DEC      500        B-14
000214: 01,2113  E7,1453                                  EBANK=   TTOGO
000215: 01,2113           75501 03710                     -2CADR   TIG-30
000216:
000217: 01,2115           77777        4.17SPOT           OCT      77777
000218: 01,2116  E7,1515                                  EBANK=   DVCNTR
000219: 01,2116           75425 03710                     -2CADR   TIG-5
000220:
000221: 01,2120           13000        4.21SPOT           OCT      13000
000222: 01,2121  E5,1730                                  EBANK=   STAR
000223: 01,2121           03020 30065                     2CADR    R51.1      +1
000224:
000225: 01,2123           77777        4.23SPOT           OCT      77777
000226: 01,2124  E7,1515                                  EBANK=   DVCNTR
000227: 01,2124           75351 03710                     -2CADR   IGNITION
000228:
000229: 01,2126           01477        4.25SPOT           GENADR   SAVET-30
000230: 01,2127           75537                           -GENADR  TIG-35
000231: 01,2130  E7,1477                                  EBANK=   SAVET-30
000232: 01,2130           74067                           BBCON    TIG-35
000233:
000234:
000235: 01,2131           52777        4.27SPOT           OCT      52777
000236: 01,2132  E7,1515                                  EBANK=   DVCNTR
000237: 01,2132           02073 42067                     2CADR    P70A


000239: 01,2134           52777        4.31SPOT           OCT      52777
000240: 01,2135  E7,1515                                  EBANK=   DVCNTR
000241: 01,2135           02076 42067                     2CADR    P71A
000242:
000243: 01,2137           46777        4.33SPOT           OCT      46777
000244: 01,2140  E7,1515                                  EBANK=   DVCNTR
000245: 01,2140           02024 10067                     2CADR    GOPOOFIX
000246:
000247: 01,2142           46777        4.35SPOT           OCT      46777
000248: 01,2143  E7,1515                                  EBANK=   DVCNTR
000249: 01,2143           05665 04067                     2CADR    GOPOODOO
000250:
000251: 01,2145           52777        4.37SPOT           OCT      52777
000252: 01,2146  E7,1455                                  EBANK=   WHICH
000253: 01,2146           02571 74067                     2CADR    COMFAIL
000254:
000255:                                                                                                  #  ANY MORE 4.ODD RESTART VALUES SHOULD GO HERE.
000256: 01,2150           22000        5.2SPOT            OCT      22000
000257: 01,2151  E7,1515                                  EBANK=   DVCNTR
000258: 01,2151           02461 46067                     2CADR    NORMLIZE
000259:
000260: 01,2153           00310                           DEC      200        B-14
000261: 01,2154  E7,1515                                  EBANK=   DVCNTR
000262: 01,2154           74163 01710                     -2CADR   REREADAC
000263:
000264: 01,2156           00310        5.4SPOT            DEC      200        B-14
000265: 01,2157  E7,1515                                  EBANK=   DVCNTR
000266: 01,2157           74163 01710                     -2CADR   REREADAC
000267:
000268: 01,2161           20000                           OCT      20000
000269: 01,2162  E7,1515                                  EBANK=   DVCNTR
000270: 01,2162           02206 66067                     2CADR    SERVICER
000271:
000272:                                                                                                  #  ANY MORE GROUP 5.EVEN RESTART VALUES SHOULD GO HERE
000273:
000274: 01,2164           00310        5.3SPOT            DEC      200        B-14
000275: 01,2165  E7,1515                                  EBANK=   DVCNTR
000276: 01,2165           74163 01710                     -2CADR   REREADAC
000277:
000278: 01,2167           77777        5.5SPOT            OCT      77777
000279: 01,2170  E7,1515                                  EBANK=   DVCNTR
000280: 01,2170           74324 01710                     -2CADR   REDO5.5
000281:
000282: 01,2172           77777        5.7SPOT            OCT      77777
000283: 01,2173  E7,1515                                  EBANK=   DVCNTR


000285: 01,2173           74361 01710                     -2CADR   BIBIBIAS
000286:
000287:                                                                                                  #  ANY MORE GROUP 5.ODD RESTART VALUES SHOULD GO HERE
000288:
000289: 01,2175  01,2016               6.2SPOT            EQUALS   1.2SPOT
000290: 01,2175           00144        6.3SPOT            DEC      100        B-14
000291: 01,2176  E7,1441                                  EBANK=   TIG
000292: 01,2176           75060 03710                     -2CADR   CLOKTASK
000293:
000294: 01,2200           30000        6.5SPOT            OCT      30000                                 #  PROTECT INCREMENTING OF TIME2,TIME1 BY
000295: 01,2201  E3,1706                                  EBANK=   TEPHEM                                #  P27(UPDATE PROGRAM) VIA V70 OR V73.
000296: 01,2201           03601 10063                     2CADR    TIMEDIDR
000297:
000298: 01,2203           17000        6.7SPOT            OCT      17000
000299: 01,2204  E7,1700                                  EBANK=   VGPREV
000300: 01,2204           03350 74067                     2CADR    REDO6.7
000301:
000302:

End of include-file RESTART_TABLES.agc.  Parent file is MAIN.agc


