
Source Code


000002:                                                                                                  ## Copyright:   Public domain.
000003:                                                                                                  ## Filename:    RESTARTS_ROUTINE.agc
000004:                                                                                                  ## Purpose:     Part of the source code for Luminary 1A build 099.
000005:                                                                                                  ##              It is part of the source code for the Lunar Module's (LM)
000006:                                                                                                  ##              Apollo Guidance Computer (AGC), for Apollo 11.
000007:                                                                                                  ## Assembler:   yaYUL
000008:                                                                                                  ## Contact:     Onno Hommes <ohommes@cmu.edu>.
000009:                                                                                                  ## Website:     www.ibiblio.org/apollo.
000010:                                                                                                  ## Pages:       1303-1309
000011:                                                                                                  ## Mod history: 2009-05-27 OH   Transcribed from page images.
000012:                                                                                                  ##              2016-12-18 RSB  Proofed text comments with octopus/ProoferComments
000013:                                                                                                  ##                              and corrected the errors found.
000014:                                                                                                  ##              2017-03-14 RSB  Comment-text fixes noted in proofing Luminary 116.
000015:                                                                                                  ##              2017-03-16 RSB  Comment-text fixes identified in 5-way
000016:                                                                                                  ##                              side-by-side diff of Luminary 69/99/116/131/210.
000017:
000018:                                                                                                  ## This source code has been transcribed or otherwise adapted from
000019:                                                                                                  ## digitized images of a hardcopy from the MIT Museum.  The digitization
000020:                                                                                                  ## was performed by Paul Fjeld, and arranged for by Deborah Douglas of
000021:                                                                                                  ## the Museum.  Many thanks to both.  The images (with suitable reduction
000022:                                                                                                  ## in storage size and consequent reduction in image quality as well) are
000023:                                                                                                  ## available online at www.ibiblio.org/apollo.  If for some reason you
000024:                                                                                                  ## find that the images are illegible, contact me at info@sandroid.org
000025:                                                                                                  ## about getting access to the (much) higher-quality images which Paul
000026:                                                                                                  ## actually created.
000027:                                                                                                  ##
000028:                                                                                                  ## Notations on the hardcopy document read, in part:
000029:                                                                                                  ##
000030:                                                                                                  ##      Assemble revision 001 of AGC program LMY99 by NASA 2021112-61
000031:                                                                                                  ##      16:27 JULY 14, 1969
000032:


000034: 01,3526                                           BANK     01
000035: 01,2000                                           SETLOC   RESTART
000036: 01,2000                                           BANK
000037:
000038: 01,3526  E3,1436                                  EBANK=   PHSNAME1                              #  GOPROG MUST SWITCH TO THIS EBANK
000039:
000040: 01,3526                                           COUNT*   $$/RSROU
000041: 01,3526           30161        RESTARTS           CA       MPAC       +5                         #  GET GROUP NUMBER -1
000042: 01,3527           60000                           DOUBLE                                         #  SAVE FOR INDEXING
000043: 01,3530           54155                           TS       TEMP2G
000044:
000045: 01,3531           33770                           CA       PHS2CADR                              #  SET UP EXIT IN CASE IT IS AN EVEN
000046: 01,3532           54157                           TS       TEMPSWCH                              #  TABLE PHASE
000047:
000048: 01,3533           33565                           CA       RTRNCADR                              #  TO SAVE TIME ASSUME IT WILL GET NEXT
000049: 01,3534           54707                           TS       GOLOC      +2                         #  GROUP AFTER THIS
000050:
000051: 01,3535           30154                           CA       TEMPPHS
000052: 01,3536           75007                           MASK     OCT1400
000053: 01,3537           10000                           CCS      A                                     #  IS IT A VARIABLE OR TABLE RESTART
000054: 01,3540           13551                           TCF      ITSAVAR                               #  IT:S A VARIABLE RESTART
000055:
000056: 01,3541           10154        GETPART2           CCS      TEMPPHS                               #  IS IT AN X.1 RESTART
000057: 01,3542           10000                           CCS      A
000058: 01,3543           13651                           TCF      ITSATBL                               #  NO, ITS A TABLE RESTART
000059:
000060: 01,3544           35024                           CA       PRIO14                                #  IT IS AN X.1 RESTART, THEREFORE START
000061: 01,3545           05105                           TC       FINDVAC                               #  THE DISPLAY RESTART JOB
000062: 01,3546  E3,1400                                  EBANK=   LST1
000063: 01,3546           03037 20103                     2CADR    INITDSP
000064:
000065: 01,3550           03565                           TC       RTRNCADR                              #  FINISHED WITH THIS GROUP, GET NEXT ONE
000066:
000067: 01,3551           75007        ITSAVAR            MASK     OCT1400                               #  IS IT TYPE B ?
000068: 01,3552           10000                           CCS      A
000069: 01,3553           13622                           TCF      ITSLIKEB                              #  YES, IT IS TYPE B
000070:
000071: 01,3554           00006                           EXTEND                                         #  STORE THE JOB (OR TASK) 2CADR FOR EXIT
000072: 01,3555           50155                           NDX      TEMP2G
000073: 01,3556           31437                           DCA      PHSNAME1
000074: 01,3557           52706                           DXCH     GOLOC
000075:
000076: 01,3560           30154                           CA       TEMPPHS                               #  SEE IF THIS IS A JOB, TASK, OR A LONGCAL
000077: 01,3561           74757                           MASK     OCT7
000078: 01,3562           67746                           AD       MINUS2
000079: 01,3563           10000                           CCS      A
000080: 01,3564           13734                           TCF      ITSLNGCL                              #  ITS A LONGCALL
000081:
000082: 01,3565           04631        RTRNCADR           TC       SWRETURN                              #  CANT GET HERE


000084: 01,3566           13570                           TCF      ITSAWAIT
000085:
000086: 01,3567           13635                           TCF      ITSAJOB                               #  ITS A JOB
000087:
000088: 01,3570           33774        ITSAWAIT           CA       WTLTCADR                              #  SET UP WAITLIST CALL
000089: 01,3571           54704                           TS       GOLOC      -1
000090:
000091: 01,3572           50155                           NDX      TEMP2G                                #  DIRECTLY STORED
000092: 01,3573           31054                           CA       PHSPRDT1
000093: 01,3574           10000        TIMETEST           CCS      A                                     #  IS IT AN IMMEDIATE RESTART
000094: 01,3575           24000                           INCR     A                                     #  NO,
000095: 01,3576           13601                           TCF      FINDTIME                              #  FIND OUT WHEN IT SHOULD BEGIN
000096:
000097: 01,3577           15436                           TCF      ITSINDIR                              #  STORED INDIRECTLY
000098:
000099: 01,3600           13620                           TCF      IMEDIATE                              #  IT WANTS AN IMMEDIATE RESTART
000100:
000101:                                                                                                  #  ***** THIS MUST BE IN FIXED FIXED *****
000102:
000103:    5436                                           BLOCK    02
000104:    4000                                           SETLOC   FFTAG2
000105:    4000                                           BANK
000106:
000107:    5436                                           COUNT*   $$/RSROU
000108:    5436           22706        ITSINDIR           LXCH     GOLOC      +1                         #  GET THE CORRECT E BANK IN CASE THIS IS
000109:    5437           22006                           LXCH     BB                                    #  SWITCHED ERRASIBLE
000110:
000111:    5440           50000                           NDX      A                                     #  GET THE TIME INDIRECTLY
000112:    5441           30001                           CA       1
000113:
000114:    5442           22006                           LXCH     BB                                    #  RESTORE THE BB AND GOLOC
000115:    5443           22706                           LXCH     GOLOC      +1
000116:
000117:    5444           13601                           TCF      FINDTIME                              #  FIND OUT WHEN IT SHOULD BEGIN
000118:
000119:                                                                                                  #  ***** YOU MAY RETURN TO SWITCHED FIXED *****
000120:
000121: 01,3601                                           BANK     01
000122: 01,2000                                           SETLOC   RESTART
000123: 01,2000                                           BANK
000124:
000125: 01,3601                                           COUNT*   $$/RSROU
000126: 01,3601           40000        FINDTIME           COM                                            #  MAKE NEGITIVE SINCE IT WILL BE SUBTRACTD
000127: 01,3602           54001                           TS       L                                     #  AND SAVE
000128: 01,3603           50155                           NDX      TEMP2G
000129: 01,3604           41053                           CS       TBASE1
000130: 01,3605           00006                           EXTEND
000131: 01,3606           60025                           SU       TIME1
000132: 01,3607           10000                           CCS      A
000133: 01,3610           40000                           COM


000135: 01,3611           67731                           AD       OCT37776
000136: 01,3612           64753                           AD       ONE
000137: 01,3613           60001                           AD       L
000138: 01,3614           10000                           CCS      A
000139: 01,3615           34755                           CA       ZERO
000140: 01,3616           13620                           TCF      +2
000141: 01,3617           13620                           TCF      +1
000142: 01,3620           64753        IMEDIATE           AD       ONE
000143: 01,3621           00704                           TC       GOLOC      -1
000144: 01,3622           33565        ITSLIKEB           CA       RTRNCADR                              #  TYPE B, SO STORE RETURN IN
000145: 01,3623           54157                           TS       TEMPSWCH                              #  TEMPSWCH IN CASE OF AN EVEN PHASE
000146:
000147: 01,3624           33771                           CA       PRT2CADR                              #  SET UP EXIT TO GET TABLE PART OF THIS
000148: 01,3625           54707                           TS       GOLOC      +2                         #  VARIABLE TYPE OF PHASE
000149:
000150: 01,3626           30154                           CA       TEMPPHS                               #  MAKE THE PHASE LOOK RIGHT FOR THE TABLE
000151: 01,3627           76074                           MASK     OCT177                                #  PART OF THIS VARIABLE PHASE
000152: 01,3630           54154                           TS       TEMPPHS
000153:
000154: 01,3631           00006                           EXTEND
000155: 01,3632           50155                           NDX      TEMP2G                                #  OBTAIN THE JOB:S 2CADR
000156: 01,3633           31437                           DCA      PHSNAME1
000157: 01,3634           52706                           DXCH     GOLOC
000158:
000159: 01,3635           50155        ITSAJOB            NDX      TEMP2G                                #  NOW ADD THE PRIORITY AND LET:S GO
000160: 01,3636           31054                           CA       PHSPRDT1
000161: 01,3637           54704        CHKNOVAC           TS       GOLOC      -1                         #  SAVE PRIO UNTIL WE SEE IF ITS
000162: 01,3640           00006                           EXTEND                                         #  A FINDVAC OR A NOVAC
000163: 01,3641           63645                           BZMF     ITSNOVAC
000164:
000165: 01,3642           33773                           CAF      FVACCADR                              #  POSITIVE, SET UP FINDVAC CALL.
000166: 01,3643           56704                           XCH      GOLOC      -1                         #  PICK UP PRIO,
000167: 01,3644           00704                           TC       GOLOC      -1                         #  AND GO
000168:
000169: 01,3645           33775        ITSNOVAC           CAF      NOVACADR                              #  NEGATIVE,
000170: 01,3646           56704                           XCH      GOLOC      -1                         #  SET UP NOVAC CALL,
000171: 01,3647           40000                           COM                                            #  CORRECT PRIO,
000172: 01,3650           00704                           TC       GOLOC      -1                         #  AND GO
000173:
000174: 01,3651           54020        ITSATBL            TS       CYR                                   #  FIND OUT IF THE PHASE IS ODD OR EVEN
000175: 01,3652           10020                           CCS      CYR
000176: 01,3653           13654                           TCF      +1                                    #  IT:S EVEN
000177: 01,3654           13752                           TCF      ITSEVEN
000178:
000179: 01,3655           33565                           CA       RTRNCADR                              #  IN CASE THIS IS THE SECOND PART OF A
000180: 01,3656           54707                           TS       GOLOC      +2                         #  TYPE B RESTART, WE NEED PROPER EXIT
000181:
000182: 01,3657           30154                           CA       TEMPPHS                               #  SET UP POINTER FOR FINDING OUR PLACE IN
000183: 01,3660           54021                           TS       SR                                    #  THE RESTART TABLES
000184: 01,3661           60021                           AD       SR


000186: 01,3662           50155                           NDX      TEMP2G
000187: 01,3663           62003                           AD       SIZETAB    +1
000188: 01,3664           54156                           TS       POINTER
000189:
000190: 01,3665           00006        CONTBL2            EXTEND                                         #  FIND OUT WHAT:S IN THE TABLE
000191: 01,3666           50156                           NDX      POINTER
000192: 01,3667           32002                           DCA      CADRTAB                               #  GET THE 2CADR
000193:
000194: 01,3670           22706                           LXCH     GOLOC      +1                         #  STORE THE BB INFORMATION
000195:
000196: 01,3671           10000                           CCS      A                                     #  IS IT A JOB OR IS IT TIMED
000197: 01,3672           24000                           INCR     A                                     #  POSITIVE, MUST BE A JOB
000198: 01,3673           13746                           TCF      ITSAJOB2
000199:
000200: 01,3674           24000                           INCR     A                                     #  MUST BE EITHER A WAITLIST OR LONGCALL
000201: 01,3675           54705                           TS       GOLOC                                 #  LET-S STORE THE CORRECT CADR
000202:
000203: 01,3676           33774                           CA       WTLTCADR                              #  SET UP OUR EXIT TO WAITLIST
000204: 01,3677           54704                           TS       GOLOC      -1
000205:
000206: 01,3700           30706                           CA       GOLOC      +1                         #  NOW FIND OUT IF IT IS A WAITLIST CALL
000207: 01,3701           74742                           MASK     BIT10                                 #  THIS SHOULD BE ONE IF WE HAVE -BB
000208: 01,3702           10000                           CCS      A                                     #  FOR THAT MATTER SO SHOULD BE BITS 9,8,7,
000209:                                                                                                  #  6,5, AND LAST BUT NOT LEAST (PERHAPS NOT
000210:                                                                                                  #  IN IMPORTANCE ANYWAY.  BIT 4
000211: 01,3703           13741                           TCF      ITSWTLST                              #  IT IS A WAITLIST CALL
000212:
000213: 01,3704           50156                           NDX      POINTER                               #  OBTAIN THE ORIGINAL DELTA T
000214: 01,3705           32000                           CA       PRDTTAB                               #  ADDRESS FOR THIS LONGCALL
000215:
000216: 01,3706           15445                           TCF      ITSLGCL1                              #  NOW GO GET THE DELTA TIME
000217:
000218:                                                                                                  #  ***** THIS MUST BE IN FIXED FIXED *****
000219:
000220:    5445                                           BLOCK    02
000221:    4000                                           SETLOC   FFTAG2
000222:    4000                                           BANK
000223:
000224:    5445                                           COUNT*   $$/RSROU
000225:    5445           22706        ITSLGCL1           LXCH     GOLOC      +1                         #  OBTAIN THE CORRECT E BANK
000226:    5446           22006                           LXCH     BB
000227:    5447           22706                           LXCH     GOLOC      +1                         #  AND PRESERVE OUR E AND F BANKS
000228:
000229:    5450           00006                           EXTEND                                         #  GET THE DELTA TIME
000230:    5451           50000                           NDX      A
000231:    5452           30001                           DCA      0
000232:
000233:    5453           22706                           LXCH     GOLOC      +1                         #  RESTORE OUR E AND F BANK
000234:    5454           22006                           LXCH     BB                                    #  RESTORE THE TASKS E AND F BANKS
000235:    5455           22706                           LXCH     GOLOC      +1                         #  AND PRESERVE OUR L


000237:    5456           13707                           TCF      ITSLGCL2                              #  NOW LET:S PROCESS THIS LONGCALL
000238:
000239:                                                                                                  #  ***** YOU MAY RETURN TO SWITCHED FIXED *****
000240:
000241: 01,3707                                           BANK     01
000242: 01,2000                                           SETLOC   RESTART
000243: 01,2000                                           BANK
000244:
000245: 01,3707                                           COUNT*   $$/RSROU
000246: 01,3707           53154        ITSLGCL2           DXCH     LONGTIME
000247:
000248: 01,3710           00006                           EXTEND                                         #  CALCULATE TIME LEFT
000249: 01,3711           40025                           DCS      TIME2
000250: 01,3712           21154                           DAS      LONGTIME
000251: 01,3713           00006                           EXTEND
000252: 01,3714           31152                           DCA      LONGBASE
000253: 01,3715           21154                           DAS      LONGTIME
000254:
000255: 01,3716           11153                           CCS      LONGTIME                              #  FIND OUT HOW THIS SHOULD BE RESTARTED
000256: 01,3717           13727                           TCF      LONGCLCL
000257: 01,3720           13722                           TCF      +2
000258: 01,3721           13615                           TCF      IMEDIATE   -3
000259: 01,3722           11154                           CCS      LONGTIME   +1
000260: 01,3723           13727                           TCF      LONGCLCL
000261: 01,3724           13725                           NOOP                                           #  CAN:T GET HERE *********
000262: 01,3725           13615                           TCF      IMEDIATE   -3
000263: 01,3726           13620                           TCF      IMEDIATE
000264:
000265: 01,3727           33772        LONGCLCL           CA       LGCLCADR                              #  WE WILL GO TO LONGCALL
000266: 01,3730           54704                           TS       GOLOC      -1
000267:
000268: 01,3731           00006                           EXTEND                                         #  PREPARE OUR ENTRY TO LONGCALL
000269: 01,3732           31154                           DCA      LONGTIME
000270: 01,3733           00704                           TC       GOLOC      -1
000271:
000272: 01,3734           33774        ITSLNGCL           CA       WTLTCADR                              #  ASSUME IT WILL GO TO WAITLIST
000273: 01,3735           54704                           TS       GOLOC      -1
000274:
000275: 01,3736           50155                           NDX      TEMP2G
000276: 01,3737           41054                           CS       PHSPRDT1                              #  GET THE DELTA T ADDRESS
000277:
000278: 01,3740           15445                           TCF      ITSLGCL1                              #  NOW GET THE DELTA TIME
000279:
000280: 01,3741           40706        ITSWTLST           CS       GOLOC      +1                         #  CORRECT THE BBCON INFORMATION
000281: 01,3742           54706                           TS       GOLOC      +1
000282:
000283: 01,3743           50156                           NDX      POINTER                               #  GET THE DT AND FIND OUT IF IT WAS STORED
000284: 01,3744           32000                           CA       PRDTTAB                               #  DIRECTLY OR INDIRECTLY
000285:
000286: 01,3745           13574                           TCF      TIMETEST                              #  FIND OUT HOW THE TIME IS STORED
000287:


000289: 01,3746           56705        ITSAJOB2           XCH      GOLOC                                 #  STORE THE CADR
000290:
000291: 01,3747           50156                           NDX      POINTER                               #  ADD THE PRIORITY AND LET:S GO
000292: 01,3750           32000                           CA       PRDTTAB
000293:
000294: 01,3751           13637                           TCF      CHKNOVAC
000295:
000296: 01,3752           30157        ITSEVEN            CA       TEMPSWCH                              #  SET UP FOR EITHER THE SECOND PART OF THE
000297: 01,3753           54707                           TS       GOLOC      +2                         #  TABLE, OR A RETURN FOR THE NEXT GROUP
000298:
000299: 01,3754           50155                           NDX      TEMP2G                                #  SET UP POINTER FOR OUR LOCATION WITHIN
000300: 01,3755           32002                           CA       SIZETAB                               #  THE TABLE
000301: 01,3756           60154                           AD       TEMPPHS                               #  THIS MAY LOOK BAD BUT LET:S SEE YOU DO
000302: 01,3757           60154                           AD       TEMPPHS                               #  BETTER IN TIME OR NUMBERR OF LOCATIONS
000303: 01,3760           60154                           AD       TEMPPHS
000304: 01,3761           54156                           TS       POINTER
000305:
000306: 01,3762           13665                           TCF      CONTBL2                               #  NOW PROCESS WHAT IS IN THE TABLE
000307:
000308: 01,3763           36245        PHSPART2           CA       THREE                                 #  SET THE POINTER FOR THE SECOND HALF OF
000309: 01,3764           26156                           ADS      POINTER                               #  THE TABLE
000310:
000311: 01,3765           33565                           CA       RTRNCADR                              #  THIS WILL BE OUR LAST TIME THROUGH THE
000312: 01,3766           54707                           TS       GOLOC      +2                         #  EVEN TABLE, SO AFTER IT GET THE NEXT
000313:                                                                                                  #  GROUP
000314: 01,3767           13665                           TCF      CONTBL2                               #  SO LET:S GET THE SECOND ENTRY IN THE TBL
000315:
000316: 01,3770     0154               TEMPPHS            EQUALS   MPAC
000317: 01,3770     0155               TEMP2G             EQUALS   MPAC       +1
000318: 01,3770     0156               POINTER            EQUALS   MPAC       +2
000319: 01,3770     0157               TEMPSWCH           EQUALS   MPAC       +3
000320: 01,3770     0705               GOLOC              EQUALS   VAC5       +20D
000321: 01,3770     7746               MINUS2             EQUALS   NEG2
000322: 01,3770     6074               OCT177             EQUALS   LOW7
000323:
000324: 01,3770           03763        PHS2CADR           GENADR   PHSPART2
000325: 01,3771           03541        PRT2CADR           GENADR   GETPART2
000326: 01,3772           05277        LGCLCADR           GENADR   LONGCALL
000327: 01,3773           05105        FVACCADR           GENADR   FINDVAC
000328: 01,3774           05203        WTLTCADR           GENADR   WAITLIST
000329: 01,3775           05072        NOVACADR           GENADR   NOVAC
000330:
000331:

End of include-file RESTARTS_ROUTINE.agc.  Parent file is MAIN.agc


