
Source Code
000001:                                                                                                 #  Copyright:     Public domain.
000002:                                                                                                 #  Filename:      RTB_OP_CODES.agc
000003:                                                                                                 #  Purpose:       Part of the source code for Luminary 1A build 099.
000004:                                                                                                 #                 It is part of the source code for the Lunar Module's (LM)
000005:                                                                                                 #                 Apollo Guidance Computer (AGC), for Apollo 11.
000006:                                                                                                 #  Assembler:     yaYUL
000007:                                                                                                 #  Contact:       Ron Burkey <info@sandroid.org>.
000008:                                                                                                 #  Website:       www.ibiblio.org/apollo.
000009:                                                                                                 #  Pages: 1397-1401
000010:                                                                                                 #  Mod history:  2009-05-10 SN   (Sergio Navarro).  Started adapting
000011:                                                                                                 #                                 from the Luminary131/ file of the same
000012:                                                                                                 #                                 name, using Luminary099 page images.
000013:
000014:                                                                                                 #  This source code has been transcribed or otherwise adapted from
000015:                                                                                                 #  digitized images of a hardcopy from the MIT Museum.  The digitization
000016:                                                                                                 #  was performed by Paul Fjeld, and arranged for by Deborah Douglas of
000017:                                                                                                 #  the Museum.  Many thanks to both.  The images (with suitable reduction
000018:                                                                                                 #  in storage size and consequent reduction in image quality as well) are
000019:                                                                                                 #  available online at www.ibiblio.org/apollo.  If for some reason you
000020:                                                                                                 #  find that the images are illegible, contact me at info@sandroid.org
000021:                                                                                                 #  about getting access to the (much) higher-quality images which Paul
000022:                                                                                                 #  actually created.
000023:
000024:                                                                                                 #  Notations on the hardcopy document read, in part:
000025:
000026:                                                                                                 #         Assemble revision 001 of AGC program LMY99 by NASA 2021112-61
000027:                                                                                                 #         16:27 JULY 14, 1969
000028:
000029:                                                                                                 #  Page 1397
000030: 22,3773                                          BANK     22
000031: 10,2000                                          SETLOC   RTBCODES
000032: 10,2000                                          BANK
000033:
000034: 10,3573  E5,1664                                 EBANK=   XNB
000035: 10,3573                                          COUNT*   $$/RTB
000036:
000037:                                                                                                 #  LOAD TIME2, TIME1 INTO MPAC:
000038:
000039: 10,3573           00006        LOADTIME          EXTEND
000040: 10,3574           30025                          DCA      TIME2
000041: 10,3575           16055                          TCF      SLOAD2
000042:
000043:                                                                                                 #  CONVERT THE SINGLE PRECISION 2'S COMPLEMENT NUMBER ARRIVING IN MPAC (SCALED IN HALF-REVOLUTIONS) TO A
000044:                                                                                                 #  DP 1'S COMPLEMENT NUMBER SCALED IN REVOLUTIONS.
000045:
000046: 10,3576           10154        CDULOGIC          CCS      MPAC
000047: 10,3577           34755                          CAF      ZERO
000048: 10,3600           13603                          TCF      +3
000049: 10,3601           13602                          NOOP
000050: 10,3602           44736                          CS       HALF
000051:
000052: 10,3603           54155                          TS       MPAC       +1
000053: 10,3604           34755                          CAF      ZERO
000054: 10,3605           56154                          XCH      MPAC
000055: 10,3606           00006                          EXTEND
000056: 10,3607           74736                          MP       HALF
000057: 10,3610           20155                          DAS      MPAC
000058: 10,3611           16061                          TCF      DANZIG                                #  MODE IS ALREADY AT DOUBLE-PRECISION
000059:
000060:                                                                                                 #  FORCE TP SIGN AGREEMENT IN MPAC:
000061:
000062: 10,3612           07257        SGNAGREE          TC       TPAGREE
000063: 10,3613           16061                          TCF      DANZIG
000064:
000065:                                                                                                 #  CONVERT THE DP 1'S COMPLEMENT ANGLE SCALED IN REVOLUTIONS TO A SINGLE PRECISION 2'S COMPLEMENT ANGLE
000066:                                                                                                 #  SCALED IN HALF-REVOLUTIONS.
000067:
000068: 10,3614           03644        1STO2S            TC       1TO2SUB
000069: 10,3615           34755                          CAF      ZERO
000070: 10,3616           54155                          TS       MPAC       +1
000071: 10,3617           16060                          TCF      NEWMODE
000072:
000073:                                                                                                 #  DO 1STO2S ON A VECTOR OF ANGLES:
000074:
000075: 10,3620           03644        V1STO2S           TC       1TO2SUB                               #  ANSWER ARRIVES IN A AND MPAC.
000076:
000077: 10,3621           52162                          DXCH     MPAC       +5
000078: 10,3622           52155                          DXCH     MPAC
000079: 10,3623           03644                          TC       1TO2SUB
000080:                                                                                                 #  Page 1398
000081: 10,3624           54156                          TS       MPAC       +2
000082:
000083: 10,3625           52160                          DXCH     MPAC       +3
000084: 10,3626           52155                          DXCH     MPAC
000085: 10,3627           03644                          TC       1TO2SUB
000086: 10,3630           54155                          TS       MPAC       +1
000087:
000088: 10,3631           30161                          CA       MPAC       +5
000089: 10,3632           54154                          TS       MPAC
000090:
000091: 10,3633           34753        TPMODE            CAF      ONE                                   #  MODE IS TP.
000092: 10,3634           16060                          TCF      NEWMODE
000093:
000094:                                                                                                 #  V1STO2S FOR 2 COMPONENT VECTOR. USED BY RR.
000095:
000096: 10,3635           03644        2V1STO2S          TC       1TO2SUB
000097: 10,3636           52160                          DXCH     MPAC       +3
000098: 10,3637           52155                          DXCH     MPAC
000099: 10,3640           03644                          TC       1TO2SUB
000100: 10,3641           54001                          TS       L
000101: 10,3642           30157                          CA       MPAC       +3
000102: 10,3643           16055                          TCF      SLOAD2
000103:
000104:                                                                                                 #  SUBROUTINE TO DO DOUBLING AND 1'S TO 2'S CONVERSION:
000105:
000106: 10,3644           52155        1TO2SUB           DXCH     MPAC                                  #  FINAL MPAC +1 UNSPECIFIED.
000107: 10,3645           20001                          DDOUBL
000108: 10,3646           10000                          CCS      A
000109: 10,3647           64753                          AD       ONE
000110: 10,3650           13652                          TCF      +2
000111: 10,3651           40000                          COM                                            #  THIS WAS REVERSE OF MSU.
000112:
000113: 10,3652           54154                          TS       MPAC                                  #  AND SKIP ON OVERFLOW.
000114: 10,3653           00002                          TC       Q
000115:
000116: 10,3654           50000                          INDEX    A                                     #  OVERFLOW UNCORRECT AND IN MSU.
000117: 10,3655           34734                          CAF      LIMITS
000118: 10,3656           26154                          ADS      MPAC
000119: 10,3657           00002                          TC       Q
000120:
000121:                                                                                                 #  THE FOLLOWING ROUTINE INCREMENTS IN 2S COMPLEMENT THE REGISTER WHOSE ADDRESS IS IN BUF BY THE 1S COMPL.
000122:                                                                                                 #  QUANTITY FOUND IN TEM2.  THIS MAY BE USED TO INCRMENT DESIRED IMU AND OPTICS CDU ANGLES OR ANY OTHER 2S COMPL.
000123:                                                                                                 #  (+0 UNEQUAL TO -0) QUANTITY.  MAY BE CALLED BY BANKCALL/SWCALL.
000124:
000125: 10,3660           54142        CDUINC            TS       TEM2                                  #  1S COMPL.QUANT. ARRIVES IN ACC.  STORE IT
000126: 10,3661           50130                          INDEX    BUF
000127: 10,3662           10000                          CCS      0                                     #  CHANGE 2S COMPL. ANGLE(IN BUF)INTO 1S
000128: 10,3663           64753                          AD       ONE
000129: 10,3664           13670                          TCF      +4
000130: 10,3665           64753                          AD       ONE
000131:                                                                                                 #  Page 1399
000132: 10,3666           64753                          AD       ONE                                   #  OVEFLOW HERE IF 2S COMPL. IS 180 DEG.
000133: 10,3667           40000                          COM
000134:
000135: 10,3670           60142                          AD       TEM2                                  #  SULT MOVES FROM 2ND TO 3D QUAD. (OR BACK)
000136: 10,3671           10000                          CCS      A                                     #  BACK TO 2S COMPL.
000137: 10,3672           64753                          AD       ONE
000138: 10,3673           13675                          TCF      +2
000139: 10,3674           40000                          COM
000140: 10,3675           54142                          TS       TEM2                                  #  STORE 14BIT QUANTITY WITH PRESENT SIGN
000141: 10,3676           13702                          TCF      +4
000142: 10,3677           50000                          INDEX    A                                     #  SIGN.
000143: 10,3700           34734                          CAF      LIMITS                                #  FIX IT, BY ADDING IN 37777 OR 40000
000144: 10,3701           60142                          AD       TEM2
000145:
000146: 10,3702           50130                          INDEX    BUF
000147: 10,3703           54000                          TS       0                                     #  STORE NEW ANGLE IN 2S COMPLEMENT.
000148: 10,3704           00002                          TC       Q
000149:
000150:                                                                                                 #  Page 1400
000151:                                                                                                 #  RTB TO TORQUE GYROS, EXCEPT FOR THE CALL TO IMUSTALL.  ECADR OF COMMANDS ARRIVES IN X1.
000152:
000153: 10,3705           50120        PULSEIMU          INDEX    FIXLOC                                #  ADDRESS OF GYRO COMMANDS SHOULD BE IN X1
000154: 10,3706           30046                          CA       X1
000155: 10,3707           04616                          TC       BANKCALL
000156: 10,3710           17323                          CADR     IMUPULSE
000157: 10,3711           16061                          TCF      DANZIG
000158:
000159:                                                                                                 #  Page 1401
000160:                                                                                                 #  THE SUBROUTINE SIGNMPAC SETS C(MPAC, MPAC +1) TO SIGN(MPAC).
000161:                                                                                                 #  FOR THIS, ONLY THE CONTENTS OF MPAC ARE EXAMINED.  ALSO +0 YIELDS POSMAX AND -0 YIELDS NEGMAX.
000162:
000163:                                                                                                 #  ENTRY MAY BE BY EITHER OF THE FOLLOWING:
000164:                                                                                                 #         1.      LIMIT THE SIZE OF MPAC ON INTERPRETIVE OVERFLOW:
000165:                                                                                                 #                 ENTRY:          BOVB
000166:                                                                                                 #                                         SIGNMPAC
000167:                                                                                                 #         2.      GENERATE IN MPAC THE SIGNUM FUNCTION OF MPAC:
000168:                                                                                                 #                 ENTRY:          RTB
000169:                                                                                                 #                                         SIGNMPAC
000170:                                                                                                 #  IN EITHER CASE, RETURN IS TO TEH NEXT INTERPRETIVE INSTRUCTION IN THE CALLING SEQUENCE.
000171:
000172: 10,3712           00006        SIGNMPAC          EXTEND
000173: 10,3713           34733                          DCA      DPOSMAX
000174: 10,3714           52155                          DXCH     MPAC
000175: 10,3715           10000                          CCS      A
000176: 10,3716           34755        DPMODE            CAF      ZERO                                  #  SETS MPAC +2 TO ZERO IN THE PROCESS
000177: 10,3717           16057                          TCF      SLOAD2     +2
000178: 10,3720           13721                          TCF      +1
000179: 10,3721           00006                          EXTEND
000180: 10,3722           44733                          DCS      DPOSMAX
000181: 10,3723           16055                          TCF      SLOAD2
000182:
000183:                                                                                                 #  RTB OP CODE NORMUNIT IS LIKE INTERPRETIVE INSTRUCTION UNIT, EXCEPT THAT IT CAN BE DEPENDED ON NOT TO BLOW
000184:                                                                                                 #  UP WHEN THE VECTOR BEING UNITIZED IS VERY SMALL -- IT WILL BLOW UP WHEN ALL COMPONENT ARE ZERO.  IF NORMUNIT
000185:                                                                                                 #  IS USED AND THE UPPER ORDER HALVES OF ALL COMPONENTS ARE ZERO, THE MAGNITUDE RETURNED IN 36D WILL BE TOO LARGE
000186:                                                                                                 #  BY A FACTOR OF 2(13) AND THE SQUARED MAGNITUDE RETURNED ATE 34D WILL BE TOO BIG BY A FACTOR OF 2(26).
000187:
000188: 10,3724           34753        NORMUNX1          CAF      ONE
000189: 10,3725           13727                          TCF      NORMUNIT   +1
000190: 10,3726           34755        NORMUNIT          CAF      ZERO
000191: 10,3727           60120                          AD       FIXLOC
000192: 10,3730           54156                          TS       MPAC       +2
000193: 10,3731           04616                          TC       BANKCALL                              #  GET SIGN AGREEMENT IN ALL COMPONENTS
000194: 10,3732           01010                          CADR     VECAGREE
000195: 10,3733           10154                          CCS      MPAC
000196: 10,3734           13770                          TCF      NOSHIFT
000197: 10,3735           13737                          TCF      +2
000198: 10,3736           13770                          TCF      NOSHIFT
000199: 10,3737           10157                          CCS      MPAC       +3
000200: 10,3740           13770                          TCF      NOSHIFT
000201: 10,3741           13743                          TCF      +2
000202: 10,3742           13770                          TCF      NOSHIFT
000203: 10,3743           10161                          CCS      MPAC       +5
000204: 10,3744           13770                          TCF      NOSHIFT
000205: 10,3745           13747                          TCF      +2
000206: 10,3746           13770                          TCF      NOSHIFT
000207:                                                                                                 #  Page 1402
000208: 10,3747           30155                          CA       MPAC       +1                         #  SHIFT ALL COMPONENTS LEFT 13
000209: 10,3750           00006                          EXTEND
000210: 10,3751           74736                          MP       BIT14
000211: 10,3752           20155                          DAS      MPAC                                  #  DAS GAINS A LITTLE ACCURACY
000212: 10,3753           30160                          CA       MPAC       +4
000213: 10,3754           00006                          EXTEND
000214: 10,3755           74736                          MP       BIT14
000215: 10,3756           20160                          DAS      MPAC       +3
000216: 10,3757           30162                          CA       MPAC       +6
000217: 10,3760           00006                          EXTEND
000218: 10,3761           74736                          MP       BIT14
000219: 10,3762           20162                          DAS      MPAC       +5
000220: 10,3763           34761                          CAF      THIRTEEN
000221: 10,3764           50156                          INDEX    MPAC       +2
000222: 10,3765           54045                          TS       37D
000223: 10,3766           04635        OFFTUNIT          TC       POSTJUMP
000224: 10,3767           01024                          CADR     UNIT       +1                         #  SKIP THE "TC VECAGREE" DONE AT UNIT
000225:
000226: 10,3770           34755        NOSHIFT           CAF      ZERO
000227: 10,3771           13764                          TCF      OFFTUNIT   -2
000228:
000229:                                                                                                 #  RTB VECSGNAG ... FORCES SIGN AGREEMENT OF VECTOR IN MPAC.
000230:
000231: 10,3772           04616        VECSGNAG          TC       BANKCALL
000232: 10,3773           01010                          CADR     VECAGREE
000233: 10,3774           06061                          TC       DANZIG
000234:
000235:                                                                                                 #  *** END OF SKIPPER .087 ***
000236:

End of include-file RTB_OP_CODES.agc.  Parent file is MAIN.agc


