
Source Code


000002:                                                                                                  ## Copyright:   Public domain.
000003:                                                                                                  ## Filename:    SERVICE_ROUTINES.agc
000004:                                                                                                  ## Purpose:     Part of the source code for Luminary 1A build 099.
000005:                                                                                                  ##              It is part of the source code for the Lunar Module's (LM)
000006:                                                                                                  ##              Apollo Guidance Computer (AGC), for Apollo 11.
000007:                                                                                                  ## Assembler:   yaYUL
000008:                                                                                                  ## Contact:     Ron Burkey <info@sandroid.org>.
000009:                                                                                                  ## Website:     www.ibiblio.org/apollo.
000010:                                                                                                  ## Pages:       1374-1380
000011:                                                                                                  ## Mod history: 2009-05-10 SN   (Sergio Navarro).  Started adapting
000012:                                                                                                  ##                              from the Luminary131/ file of the same
000013:                                                                                                  ##                              name, using Luminary099 page images.
000014:                                                                                                  ##              2016-12-18 RSB  Proofed text comments with octopus/ProoferComments
000015:                                                                                                  ##                              and corrected the errors found.
000016:                                                                                                  ##
000017:                                                                                                  ## This source code has been transcribed or otherwise adapted from
000018:                                                                                                  ## digitized images of a hardcopy from the MIT Museum.  The digitization
000019:                                                                                                  ## was performed by Paul Fjeld, and arranged for by Deborah Douglas of
000020:                                                                                                  ## the Museum.  Many thanks to both.  The images (with suitable reduction
000021:                                                                                                  ## in storage size and consequent reduction in image quality as well) are
000022:                                                                                                  ## available online at www.ibiblio.org/apollo.  If for some reason you
000023:                                                                                                  ## find that the images are illegible, contact me at info@sandroid.org
000024:                                                                                                  ## about getting access to the (much) higher-quality images which Paul
000025:                                                                                                  ## actually created.
000026:                                                                                                  ##
000027:                                                                                                  ## Notations on the hardcopy document read, in part:
000028:                                                                                                  ##
000029:                                                                                                  ##      Assemble revision 001 of AGC program LMY99 by NASA 2021112-61
000030:                                                                                                  ##      16:27 JULY 14, 1969
000031:


000033: 10,3544                                           BANK     10
000034: 10,2000                                           SETLOC   DISPLAYS
000035: 10,2000                                           BANK
000036: 10,3544                                           COUNT*   $$/DSPLA
000037:
000038: 10,3544           00004        UPENT2             INHINT
000039: 10,3545           75660                           MASK     OCT77770
000040: 10,3546           54001                           TS       L
000041: 10,3547           40100                           CS       FLAGWRD4
000042: 10,3550           70001                           MASK     L
000043: 10,3551           26100                           ADS      FLAGWRD4
000044: 10,3552           00003        JOIN               RELINT
000045: 10,3553           16737                           TCF      Q+1
000046:
000047: 10,3554           00004        DOWNENT2           INHINT
000048: 10,3555           75660                           MASK     OCT77770
000049: 10,3556           40000                           COM
000050: 10,3557           70100                           MASK     FLAGWRD4
000051: 10,3560           54100                           TS       FLAGWRD4
000052: 10,3561           13552                           TCF      JOIN
000053:
000054: 10,3562     4757               OCT7               EQUALS   SEVEN
000055:


000057:                                                                                                  #  UPFLAG AND DOWNFLAG ARE ENTIRELY GENERAL FLAG SETTING AND CLEARING SUBROUTINES.  USING THEM, WHETHER OR
000058:                                                                                                  #  NOT IN INTERRUPT, ONE MAY SET OR CLEAR ANY SINGLE, NAMED BIT IN ANY ERASABLE REGISTER, SUBJECT OF COURSE TO
000059:                                                                                                  #  EBANK SETTING.  A "NAMED" BIT, AS THE WORD IS USED HERE, IS ANY BIT WITH A NAME FORMALLY ASSIGNED BY THE YUL
000060:                                                                                                  #  ASSEMBLER.
000061:
000062:                                                                                                  #  AT PRESENT THE ONLY NAMED BITS ARE THOSE IN THE FLAGWORDS.  ASSEMBLER CHANGES WILL MAKE IT POSSIBLE TO
000063:                                                                                                  #  NAME ANY BIT IN ERASABLE MEMORY.
000064:
000065:                                                                                                  #  CALLING SEQUENCES ARE AS FOLLOWS :-
000066:                                                                                                  #                TC      UPFLAG                  TC      DOWNFLAG
000067:                                                                                                  #                ADRES   NAME OF FLAG            ADRES   NAME OF FLAG
000068:
000069:                                                                                                  #  RETURN IS TO THE LOCATION FOLLOWING THE "ADRES" ABOUT .58 MS AFTER THE "TC".
000070:                                                                                                  #  UPON RETURN A CONTAINS THE CURRENT FLAGWRD SETTING.
000071:
000072:    5504                                           BLOCK    02
000073:    4000                                           SETLOC   FFTAG1
000074:    4000                                           BANK
000075:    5504                                           COUNT*   $$/FLAG
000076:
000077:    5504           30002        UPFLAG             CA       Q
000078:    5505           05522                           TC       DEBIT
000079:    5506           40000                           COM                                            #  +(15 - BIT)
000080:    5507           00006                           EXTEND
000081:    5510           04001                           ROR      LCHAN                                 #  SET BIT
000082:    5511           50061        COMFLAG            INDEX    ITEMP1
000083:    5512           54074                           TS       FLAGWRD0
000084:    5513           22063                           LXCH     ITEMP3
000085:    5514           00003                           RELINT
000086:    5515           00001                           TC       L
000087:
000088:    5516           30002        DOWNFLAG           CA       Q
000089:    5517           05522                           TC       DEBIT
000090:    5520           70001                           MASK     L                                     #  RESET BIT
000091:    5521           15511                           TCF      COMFLAG
000092:
000093:    5522           64753        DEBIT              AD       ONE                                   #  CET DE BITS
000094:    5523           00004                           INHINT
000095:    5524           54063                           TS       ITEMP3
000096:    5525           34762                           CA       LOW4                                  #  DEC15
000097:    5526           54061                           TS       ITEMP1
000098:    5527           50063                           INDEX    ITEMP3
000099:    5530           27777                           CA       0          -1                         #  ADRES
000100:    5531           54001                           TS       L
000101:    5532           34755                           CA       ZERO


000103:    5533           00006                           EXTEND
000104:    5534           10061                           DV       ITEMP1                                #  A = FLAGWRD, L = (15 - BIT)
000105:    5535           52062                           DXCH     ITEMP1
000106:    5536           50061                           INDEX    ITEMP1
000107:    5537           30074                           CA       FLAGWRD0
000108:    5540           54001                           TS       L                                     #  CURRENT STATE
000109:    5541           50062                           INDEX    ITEMP2
000110:    5542           44735                           CS       BIT15                                 #  -(15 - BIT)
000111:    5543           00002                           TC       Q
000112:


000114:                                                                                                  #  DELAYJOB - A GENERAL ROUTINE TO DELAY A JOB A SPECIFIC AMOUNT OF TIME BEFORE PICKING UP AGAIN.
000115:
000116:                                                                                                  #  ENTRANCE REQUIREMENTS ...
000117:                                                                                                  #                CAF     DT              DELAY JOB FOR DT CENTISECS
000118:                                                                                                  #                TC      BANKCALL
000119:                                                                                                  #                CADR    DELAYJOB
000120:
000121: 06,3764                                           BANK     06
000122: 00,2000                                           SETLOC   DLAYJOB
000123: 00,2000                                           BANK
000124:
000125:                                                                                                  #  THIS MUST REMAIN IN BANK 0 *****************************************
000126:
000127: 00,3735                                           COUNT*   $$/DELAY
000128: 00,3735           00004        DELAYJOB           INHINT
000129: 00,3736           54002                           TS       Q                                     #  STORE DELAY DT IN Q FOR DLY -1 IN
000130: 00,3737           34752                           CAF      DELAYNUM                              #  WAITLIST
000131: 00,3740           54070        DELLOOP            TS       RUPTREG1
000132: 00,3741           50000                           INDEX    A
000133: 00,3742           31326                           CA       DELAYLOC                              #  IS THIS DELAYLOC AVAILABLE
000134: 00,3743           00006                           EXTEND
000135: 00,3744           13752                           BZF      OK2DELAY                              #  YES
000136:
000137: 00,3745           10070                           CCS      RUPTREG1                              #  NO, TRY NEXT DELAYLOC
000138: 00,3746           13740                           TCF      DELLOOP
000139:
000140: 00,3747           52134                           DXCH     BUF2
000141: 00,3750           05716                           TC       BAILOUT1                              #  NO AVAILABLE LOCS.
000142: 00,3751           01104                           OCT      1104
000143:
000144: 00,3752           33772        OK2DELAY           CA       TCSLEEP                               #  SET WAITLIST IMMEDIATE RETURN
000145: 00,3753           54061                           TS       WAITEXIT
000146:
000147: 00,3754           30004                           CA       FBANK
000148: 00,3755           60070                           AD       RUPTREG1                              #  STORE BBANK FOR TASK CALL
000149: 00,3756           54001                           TS       L
000150:
000151: 00,3757           33773                           CAF      WAKECAD                               #  STORE CADR FOR TASK CALL
000152: 00,3760           15211                           TCF      DLY2       -1                         #  DLY IS IN WAITLIST ROUTINE
000153:
000154: 00,3761           04645        TCGETCAD           TC       MAKECADR                              #  GET CALLERS FCADR
000155:
000156: 00,3762           50070                           INDEX    RUPTREG1
000157: 00,3763           55326                           TS       DELAYLOC                              #  SAVE DELAY CADRS
000158:
000159: 00,3764           05133                           TC       JOBSLEEP
000160:
000161: 00,3765           34755        WAKER              CAF      ZERO
000162: 00,3766           50006                           INDEX    BBANK
000163: 00,3767           57326                           XCH      DELAYLOC                              #  MAKE DELAYLOC AVAILABLE


000165: 00,3770           05137                           TC       JOBWAKE
000166:
000167: 00,3771           05261                           TC       TASKOVER
000168:
000169: 00,3772           03757        TCSLEEP            GENADR   TCGETCAD   -2
000170: 00,3773           03765        WAKECAD            GENADR   WAKER
000171:


000173:                                                                                                  #  GENTRAN, A BLOCK TRANSFER ROUTINE.
000174:                                                                                                  #  WRITTEN BY D. EYLES
000175:                                                                                                  #  MOD 1 BY KERNAN                               UTILITYM REV 17 11/18/67
000176:                                                                                                  #  MOD 2 BY SCHULENBERG (REMOVE RELINT) SKIPPER REV 4 2/28/68
000177:
000178:                                                                                                  #  THIS ROUTINE IS USEFULL FOR TRANSFERING N CONSECUTIVE ERASABLE OR FIXED QUANTITIES TO SOME OTHER N
000179:                                                                                                  #  CONSECUTIVE ERASABLE LOCATIONS.  IF BOTH BLOCKS OF DATA ARE IN SWITCHABLE EBANKS, THEY MUST BE IN THE SAME ONE.
000180:
000181:                                                                                                  #  GENTRAN IS CALLABLE IN A JOB AS WELL AS A RUPT.  THE CALLING SEQUENCE IS:
000182:                                                                                                  #        I       CA      N-1             # OF QUANTITIES MINUS ONE.
000183:                                                                                                  #        I +1    TC      GENTRAN         IN FIXED-FIXED.
000184:                                                                                                  #        I +2    ADRES   L               STARTING ADRES OF DATA TO BE MOVED.
000185:                                                                                                  #        I +3    ADRES   M               STARTING ADRES OF DUPLICATION BLOCK.
000186:                                                                                                  #        I +4                            RETURNS HERE.
000187:
000188:                                                                                                  #  GENTRAN TAKES 25 MCT'S (300 MICROSECONDS) PER ITEM + 5 MCT'S (60 MICS) FOR ENTERING AND EXITING.
000189:                                                                                                  #  A, L AND ITEMP1 ARE NOT PRESERVED.
000190:
000191:    5544                                           BLOCK    02
000192:    4000                                           SETLOC   FFTAG4
000193:    4000                                           BANK
000194:
000195:    5544     0061                                  EBANK=   ITEMP1
000196:
000197:    5544                                           COUNT*   $$/TRAN
000198:
000199:    5544           00004        GENTRAN            INHINT
000200:    5545           54061                           TS       ITEMP1                                #  SAVE N-1.
000201:    5546           50002                           INDEX    Q                                     #  C(Q) = ADRES L.
000202:    5547           60000                           AD       0                                     #  ADRES (L + N - 1).
000203:    5550           50000                           INDEX    A
000204:    5551           30000                           CA       0                                     #  C(ABOVE).
000205:    5552           54001                           TS       L                                     #  SAVE DATA.
000206:    5553           30061                           CA       ITEMP1
000207:    5554           50002                           INDEX    Q
000208:    5555           60001                           AD       1                                     #  ADRES (M + N - 1).
000209:    5556           50000                           INDEX    A
000210:    5557           22000                           LXCH     0                                     #  STUFF IT.
000211:    5560           10061                           CCS      ITEMP1                                #  LOOP UNTIL N-1 = 0.
000212:    5561           15545                           TCF      GENTRAN    +1
000213:    5562           16741                           TCF      Q+2                                   #  RETURN TO CALLER.
000214:


000216:                                                                                                  #  B5OFF         ZERO BIT 5 OF EXTVBACT, WHICH IS SET BY TESTXACT.
000217:                                                                                                  #  MAY BE USED AS NEEDED BY ANY EXTENDED VERB WHICH HAS DONE TESTXACT
000218:
000219:    5563                                           COUNT*   $$/EXTVB
000220:
000221:    5563           44747        B5OFF              CS       BIT5
000222:    5564           71044                           MASK     EXTVBACT
000223:    5565           55044                           TS       EXTVBACT
000224:    5566           05155                           TC       ENDOFJOB
000225:
000226:
000227:

End of include-file SERVICE_ROUTINES.agc.  Parent file is MAIN.agc


