
Source Code


000002:                                                                                                  #  Copyright:    Public domain.
000003:                                                                                                  #  Filename:     SERVICE_ROUTINES.agc
000004:                                                                                                  #  Purpose:      Part of the source code for Luminary 1A build 099.
000005:                                                                                                  #                It is part of the source code for the Lunar Module's (LM)
000006:                                                                                                  #                Apollo Guidance Computer (AGC), for Apollo 11.
000007:                                                                                                  #  Assembler:    yaYUL
000008:                                                                                                  #  Contact:      Ron Burkey <info@sandroid.org>.
000009:                                                                                                  #  Website:      www.ibiblio.org/apollo.
000010:                                                                                                  #  Pages:        1374-1380
000011:                                                                                                  #  Mod history:  2009-05-10 SN   (Sergio Navarro).  Started adapting
000012:                                                                                                  #                                from the Luminary131/ file of the same
000013:                                                                                                  #                                name, using Luminary099 page images.
000014:
000015:                                                                                                  #  This source code has been transcribed or otherwise adapted from
000016:                                                                                                  #  digitized images of a hardcopy from the MIT Museum.  The digitization
000017:                                                                                                  #  was performed by Paul Fjeld, and arranged for by Deborah Douglas of
000018:                                                                                                  #  the Museum.  Many thanks to both.  The images (with suitable reduction
000019:                                                                                                  #  in storage size and consequent reduction in image quality as well) are
000020:                                                                                                  #  available online at www.ibiblio.org/apollo.  If for some reason you
000021:                                                                                                  #  find that the images are illegible, contact me at info@sandroid.org
000022:                                                                                                  #  about getting access to the (much) higher-quality images which Paul
000023:                                                                                                  #  actually created.
000024:
000025:                                                                                                  #  Notations on the hardcopy document read, in part:
000026:
000027:                                                                                                  #        Assemble revision 001 of AGC program LMY99 by NASA 2021112-61
000028:                                                                                                  #        16:27 JULY 14, 1969
000029:
000030:                                                                                                  #  Page 1374
000031: 10,3544                                           BANK     10
000032: 10,2000                                           SETLOC   DISPLAYS
000033: 10,2000                                           BANK
000034: 10,3544                                           COUNT*   $$/DSPLA
000035:
000036: 10,3544           00004        UPENT2             INHINT
000037: 10,3545           75660                           MASK     OCT77770
000038: 10,3546           54001                           TS       L
000039: 10,3547           40100                           CS       FLAGWRD4
000040: 10,3550           70001                           MASK     L
000041: 10,3551           26100                           ADS      FLAGWRD4
000042: 10,3552           00003        JOIN               RELINT
000043: 10,3553           16737                           TCF      Q+1
000044:
000045: 10,3554           00004        DOWNENT2           INHINT
000046: 10,3555           75660                           MASK     OCT77770
000047: 10,3556           40000                           COM
000048: 10,3557           70100                           MASK     FLAGWRD4
000049: 10,3560           54100                           TS       FLAGWRD4
000050: 10,3561           13552                           TCF      JOIN
000051:
000052: 10,3562     4757               OCT7               EQUALS   SEVEN
000053:
000054:                                                                                                  #  Page 1375
000055:                                                                                                  #  UPFLAG AND DOWNFLAG ARE ENTIRELY GENERAL FLAG SETTING AND CLEARING SUBROUTINES.  USING THEM, WHETHER OR
000056:                                                                                                  #  NOT IN INTERRUPT, ONE MAY SET OR CLEAR ANY SINGLE, NAMED BIT IN ANY ERASABLE REGISTER, SUBJECT OF COURSE TO
000057:                                                                                                  #  EBANK SETTING.  A "NAMED" BIT, AS THE WORD IS USED HERE, IS ANY BIT WITH A NAME FORMALLY ASSIGNED BY THE YUL
000058:                                                                                                  #  ASSEMBLER.
000059:
000060:                                                                                                  #  AT PRESENT THE ONLY NAMED BITS ARE THOSE IN THE FLAGWORDS.  ASSEMBLER CHANGES WILL MAKE IT POSSIBLE TO
000061:                                                                                                  #  NAME ANY BIT IN ERASABLE MEMORY.
000062:
000063:                                                                                                  #  CALLING SEQUENCES ARE AS FOLLOWS :-
000064:                                                                                                  #                TC      UPFLAG                  TC      DOWNFLAG
000065:                                                                                                  #                ADRES   NAME OF FLAG            ADRES   NAME OF FLAG
000066:
000067:                                                                                                  #  RETURN IS TO THE LOCATION FOLLOWING THE "ADRES" ABOUT .58 MS AFTER THE "TC".
000068:                                                                                                  #  UPON RETURN A CONTAINS THE CURRENT FLAGWRD SETTING.
000069:
000070:    5504                                           BLOCK    02
000071:    4000                                           SETLOC   FFTAG1
000072:    4000                                           BANK
000073:    5504                                           COUNT*   $$/FLAG
000074:
000075:    5504           30002        UPFLAG             CA       Q
000076:    5505           05522                           TC       DEBIT
000077:    5506           40000                           COM                                            #  +(15 - BIT)
000078:    5507           00006                           EXTEND
000079:    5510           04001                           ROR      LCHAN                                 #  SET BIT
000080:    5511           50061        COMFLAG            INDEX    ITEMP1
000081:    5512           54074                           TS       FLAGWRD0
000082:    5513           22063                           LXCH     ITEMP3
000083:    5514           00003                           RELINT
000084:    5515           00001                           TC       L
000085:
000086:    5516           30002        DOWNFLAG           CA       Q
000087:    5517           05522                           TC       DEBIT
000088:    5520           70001                           MASK     L                                     #  RESET BIT
000089:    5521           15511                           TCF      COMFLAG
000090:
000091:    5522           64753        DEBIT              AD       ONE                                   #  CET DE BITS
000092:    5523           00004                           INHINT
000093:    5524           54063                           TS       ITEMP3
000094:    5525           34762                           CA       LOW4                                  #  DEC15
000095:    5526           54061                           TS       ITEMP1
000096:    5527           50063                           INDEX    ITEMP3
000097:    5530           27777                           CA       0          -1                         #  ADRES
000098:    5531           54001                           TS       L
000099:    5532           34755                           CA       ZERO
000100:                                                                                                  #  Page 1376
000101:    5533           00006                           EXTEND
000102:    5534           10061                           DV       ITEMP1                                #  A = FLAGWRD, L = (15 - BIT)
000103:    5535           52062                           DXCH     ITEMP1
000104:    5536           50061                           INDEX    ITEMP1
000105:    5537           30074                           CA       FLAGWRD0
000106:    5540           54001                           TS       L                                     #  CURRENT STATE
000107:    5541           50062                           INDEX    ITEMP2
000108:    5542           44735                           CS       BIT15                                 #  -(15 - BIT)
000109:    5543           00002                           TC       Q
000110:
000111:                                                                                                  #  Page 1377
000112:                                                                                                  #  DELAYJOB -- A GENERAL ROUTINE TO DELAY A JOB A SPECIFIC AMOUNT OF TIME BEFORE PICKING UP AGAIN.
000113:
000114:                                                                                                  #  ENTRANCE REQUIREMENTS ...
000115:                                                                                                  #                CAF     DT              # DELAY JOB FOR DT CENTISECS
000116:                                                                                                  #                TC      BANKCALL
000117:                                                                                                  #                CADR    DELAYJOB
000118:
000119: 06,3764                                           BANK     06
000120: 00,2000                                           SETLOC   DLAYJOB
000121: 00,2000                                           BANK
000122:
000123:                                                                                                  #  THIS MUST REMAIN IN BANK 0 ****************************************
000124:
000125: 00,3735                                           COUNT*   $$/DELAY
000126: 00,3735           00004        DELAYJOB           INHINT
000127: 00,3736           54002                           TS       Q                                     #  STORE DELAY DT IN Q FOR DLY -1 IN
000128: 00,3737           34752                           CAF      DELAYNUM                              #  WAITLIST
000129: 00,3740           54070        DELLOOP            TS       RUPTREG1
000130: 00,3741           50000                           INDEX    A
000131: 00,3742           31326                           CA       DELAYLOC                              #  IS THIS DELAYLOC AVAILABLE
000132: 00,3743           00006                           EXTEND
000133: 00,3744           13752                           BZF      OK2DELAY                              #  YES
000134:
000135: 00,3745           10070                           CCS      RUPTREG1                              #  NO, TRY NEXT DELAYLOC
000136: 00,3746           13740                           TCF      DELLOOP
000137:
000138: 00,3747           52134                           DXCH     BUF2
000139: 00,3750           05716                           TC       BAILOUT1                              #  NO AVAILABLE LOCS.
000140: 00,3751           01104                           OCT      1104
000141:
000142: 00,3752           33772        OK2DELAY           CA       TCSLEEP                               #  SET WAITLIST IMMEDIATE RETURN
000143: 00,3753           54061                           TS       WAITEXIT
000144:
000145: 00,3754           30004                           CA       FBANK
000146: 00,3755           60070                           AD       RUPTREG1                              #  STORE BBANK FOR TASK CALL
000147: 00,3756           54001                           TS       L
000148:
000149: 00,3757           33773                           CAF      WAKECAD                               #  STORE CADR FOR TASK CALL
000150: 00,3760           15211                           TCF      DLY2       -1                         #  DLY IS IN WAITLIST ROUTINE
000151:
000152: 00,3761           04645        TCGETCAD           TC       MAKECADR                              #  GET CALLERS FCADR
000153:
000154: 00,3762           50070                           INDEX    RUPTREG1
000155: 00,3763           55326                           TS       DELAYLOC                              #  SAVE DELAY CADRS
000156:
000157: 00,3764           05133                           TC       JOBSLEEP
000158:
000159: 00,3765           34755        WAKER              CAF      ZERO
000160: 00,3766           50006                           INDEX    BBANK
000161: 00,3767           57326                           XCH      DELAYLOC                              #  MAKE DELAYLOC AVAILABLE
000162:                                                                                                  #  Page 1378
000163: 00,3770           05137                           TC       JOBWAKE
000164:
000165: 00,3771           05261                           TC       TASKOVER
000166:
000167: 00,3772           03757        TCSLEEP            GENADR   TCGETCAD   -2
000168: 00,3773           03765        WAKECAD            GENADR   WAKER
000169:
000170:                                                                                                  #  Page 1379
000171:                                                                                                  #  GENTRAN, A BLOCK TRANSFER ROUTINE
000172:                                                                                                  #  WRITTEN BY D. EYLES
000173:                                                                                                  #  MOD 1 BY KERNAN                               UTILITYM REV 17 11/18/67
000174:                                                                                                  #  MOD 2 BY SCHULENBERG (REMOVE RELINT) SKIPPER REV 4 2/28/68
000175:
000176:                                                                                                  #  THIS ROUTINE IS USEFUL FOR TRANSFERING N CONSECUTIVE ERASABLE OR FIXED QUANTITIES TO SOME OTHER N
000177:                                                                                                  #  CONSECUTIVE ERASABLE LOCATIONS.  IF BOTH BLOCKS OF DATA ARE IN SWITCHABLE EBANKS, THEY MUST BE IN THE SAME ONE.
000178:
000179:                                                                                                  #  GENTRAN IS CALLABLE IN A JOB AS WELL AS A RUPT.  THE CALLING SEQUENCE IS:
000180:                                                                                                  #        I       CA      N-1             # # OF QUANTITIES MINUS ONE.
000181:                                                                                                  #        I +1    TC      GENTRAN         # IN FIXED-FIXED.
000182:                                                                                                  #        I +2    ADRES   L               # STARTING ADRES OF DATA TO BE MOVED.
000183:                                                                                                  #        I +3    ADRES   M               # STARTING ADRES OF DUPLICATION BLOCK.
000184:                                                                                                  #        I +4                            # RETURNS HERE.
000185:
000186:                                                                                                  #  GENTRAN TAKES 25 MCT'S (300 MICROSECONDS) PER ITEM + 5 MCT'S (60 MICS) FOR ENTERING AND EXITING.
000187:                                                                                                  #  A, L, AND ITEMP1 ARE NOT PRESERVED.
000188:
000189:    5544                                           BLOCK    02
000190:    4000                                           SETLOC   FFTAG4
000191:    4000                                           BANK
000192:
000193:    5544     0061                                  EBANK=   ITEMP1
000194:
000195:    5544                                           COUNT*   $$/TRAN
000196:
000197:    5544           00004        GENTRAN            INHINT
000198:    5545           54061                           TS       ITEMP1                                #  SAVE N-1
000199:    5546           50002                           INDEX    Q                                     #  C(Q) = ADRES L.
000200:    5547           60000                           AD       0                                     #  ADRES (L + N - 1).
000201:    5550           50000                           INDEX    A
000202:    5551           30000                           CA       0                                     #  C(ABOVE).
000203:    5552           54001                           TS       L                                     #  SAVE DATA.
000204:    5553           30061                           CA       ITEMP1
000205:    5554           50002                           INDEX    Q
000206:    5555           60001                           AD       1                                     #  ADRES (M + N - 1).
000207:    5556           50000                           INDEX    A
000208:    5557           22000                           LXCH     0                                     #  STUFF IT.
000209:    5560           10061                           CCS      ITEMP1                                #  LOOP UNTIL N-1 = 0.
000210:    5561           15545                           TCF      GENTRAN    +1
000211:    5562           16741                           TCF      Q+2                                   #  RETURN TO CALLER.
000212:
000213:                                                                                                  #  Page 1380
000214:                                                                                                  #  B5OFF         ZERO BIT 5 OF EXTVBACK, WHICH IS SET BY TESTXACT.
000215:                                                                                                  #  MAY BE USED AS NEEDED BY ANY EXTENDED VERB WHICH HAS DONE TESTXACT
000216:
000217:    5563                                           COUNT*   $$/EXTVB
000218:
000219:    5563           44747        B5OFF              CS       BIT5
000220:    5564           71044                           MASK     EXTVBACT
000221:    5565           55044                           TS       EXTVBACT
000222:    5566           05155                           TC       ENDOFJOB
000223:
000224:
000225:

End of include-file SERVICE_ROUTINES.agc.  Parent file is MAIN.agc


