
Source Code


000002:                                                                                                  #  Copyright:    Public domain.
000003:                                                                                                  #  Filename:     SERVICER.agc
000004:                                                                                                  #  Purpose:      Part of the source code for Luminary, build 099. It
000005:                                                                                                  #                is part of the source code for the Lunar Module's
000006:                                                                                                  #                (LM) Apollo Guidance Computer (AGC), Apollo 11.
000007:                                                                                                  #  Assembler:    yaYUL
000008:                                                                                                  #  Reference:    pp. 857-897
000009:                                                                                                  #  Contact:      Ron Burkey <info@sandroid.org>,
000010:                                                                                                  #                Fabrizio Bernardini <fabrizio@spacecraft.it>
000011:                                                                                                  #  Website:      http://www.ibiblio.org/apollo.
000012:                                                                                                  #  Mod history:  2009-06-01 FB   Transcription Batch 4 Assignment.
000013:                                                                                                  #                2009-06-05 RSB  Fixed a couple of typos, plus a goofy relative
000014:                                                                                                  #                                label reference from the original source.
000015:                                                                                                  #                2011-01-06 JL   Fixed pseudo-label indentation.
000016:                                                                                                  #                2011-01-06 JL   Fixed pseudo-labels which were incorrectly real labels.
000017:
000018:                                                                                                  #  The contents of the "Luminary099" files, in general, are transcribed
000019:                                                                                                  #  from scanned documents.
000020:
000021:                                                                                                  #        Assemble revision 001 of AGC program Luminary099 by NASA
000022:                                                                                                  #        2021112-061.  July 14, 1969.
000023:
000024:                                                                                                  #        Prepared by
000025:                                                                                                  #                        Massachusetts Institute of Technology
000026:                                                                                                  #                        75 Cambridge Parkway
000027:                                                                                                  #                        Cambridge, Massachusetts
000028:
000029:                                                                                                  #        under NASA contract NAS 9-4065.
000030:
000031:                                                                                                  #  Refer directly to the online document mentioned above for further
000032:                                                                                                  #  information.  Please report any errors to info@sandroid.org.
000033:
000034:                                                                                                  #  Page 857
000035: 37,3410                                           BANK     37
000036: 37,2000                                           SETLOC   SERV1
000037: 37,2000                                           BANK
000038:
000039: 37,3410  E7,1515                                  EBANK=   DVCNTR
000040:
000041:                                                                                                  #  ************* PREREAD *******************
000042:
000043: 37,3410                                           COUNT*   $$/SERV
000044:
000045: 37,3410           34757        PREREAD            CAF      SEVEN                                 #  5.7 SPOT TO SKIP LASTBIAS AFTER
000046: 37,3411           03531                           TC       GNUFAZE5                              #  RESTART.
000047: 37,3412           35031                           CAF      PRIO21
000048: 37,3413           05072                           TC       NOVAC
000049: 37,3414  E3,1460                                  EBANK=   NBDX
000050: 37,3414           03663 14063                     2CADR    LASTBIAS                              #  DO LAST GYRO COMPENSATION IN FREE FALL
000051:
000052: 37,3416           03544        BIBIBIAS           TC       PIPASR     +3                         #  CLEAR + READ PIPS LAST TIME IN FRE5+F133
000053:                                                                                                  #  DO NOT DESTROY VALUE OF PIPTIME1
000054:
000055: 37,3417           40103                           CS       FLAGWRD7
000056: 37,3420           74773                           MASK     SUPER011                              #  SET V37FLAG AND AVEGFLAG (BITS 5 AND 6
000057: 37,3421           26103                           ADS      FLAGWRD7                              #        OF FLAGWRD7)
000058:
000059: 37,3422           44735                           CS       DRFTBIT
000060: 37,3423           70076                           MASK     FLAGWRD2                              #  RESET DRIFTFLAG
000061: 37,3424           54076                           TS       FLAGWRD2
000062:
000063: 37,3425           34751                           CAF      FOUR                                  #  INITIALIZE DV MONITOR
000064: 37,3426           55257                           TS       PIPAGE
000065:
000066: 37,3427           33537                           CAF      ENDJBCAD                              #  POINT OUTROUTE TO END-OF-JOB.
000067: 37,3430           55260                           TS       OUTROUTE
000068:
000069: 37,3431           37710                           CAF      PRIO22
000070: 37,3432           05105                           TC       FINDVAC                               #  TO FIRST ENTRY TO AVERAGE G
000071: 37,3433  E7,1515                                  EBANK=   DVCNTR
000072: 37,3433           02461 46067                     2CADR    NORMLIZE
000073:
000074: 37,3435           34752                           CA       TWO                                   #  5.2SPOT FOR REREADAC AND NORMLIZE
000075: 37,3436           03525        GOREADAX           TC       GNUTFAZ5
000076: 37,3437           35000                           CA       2SECS                                 #  WAIT TWO SECONDS FOR READACCS
000077: 37,3440           05224                           TC       VARDELAY
000078:
000079:                                                                                                  #  Page 858
000080:                                                                                                  #  ************* READACCS ****************
000081:
000082: 37,3441           43540        READACCS           CS       OCT37771                              #  THIS PIECE OF CODING ATTEMPTS TO
000083: 37,3442           60030                           AD       TIME5                                 #  SYNCHRONIZE READACCS WITH THE DIGITAL
000084: 37,3443           10000                           CCS      A                                     #  AUTOPILOT SO THAT A PAXIS RUPT WILL
000085: 37,3444           44753                           CS       ONE                                   #  OCCUR APPROXIMATELY 70 MILLISECONDS
000086: 37,3445           13447                           TCF      +2                                    #  FOLLOWING THE READACCS RUPT.  THE 70 MS
000087: 37,3446           34753                           CA       ONE                                   #  OFFSET WAS CHOSEN SO THAT THE PAXIS
000088: 37,3447           26030                 +2        ADS      TIME5                                 #  RUPT WOULD NOT OCCUR SIMULTANEOUSLY
000089:                                                                                                  #  WITH ANY OF THE 8 SUBSEQUENT R10,R11
000090:                                                                                                  #  INTERRUPTS -- THUS MINIMIZING THE POSS-
000091:                                                                                                  #  IBILITY OF LOSING DOWNRUPTS.
000092:
000093: 37,3450           03541                           TC       PIPASR                                #  READ THE PIPAS.
000094:
000095: 37,3451           34756        PIPSDONE           CA       FIVE
000096: 37,3452           03531                           TC       GNUFAZE5
000097: 37,3453           34753        REDO5.5            CAF      ONE
000098: 37,3454           55257                           TS       PIPAGE
000099:
000100: 37,3455           34736                           CA       PRIO20
000101: 37,3456           05105                           TC       FINDVAC
000102: 37,3457  E7,1515                                  EBANK=   DVCNTR
000103: 37,3457           02206 66067                     2CADR    SERVICER                              #  SET UP SERVICER JOB
000104:
000105: 37,3461           34743                           CA       BIT9
000106: 37,3462           00006                           EXTEND
000107: 37,3463           05011                           WOR      DSALMOUT                              #  TURN ON TEST CONNECTOR OUTBIT
000108:
000109: 37,3464           30103                           CA       FLAGWRD7
000110: 37,3465           74747                           MASK     AVEGFBIT
000111: 37,3466           00006                           EXTEND
000112: 37,3467           13517                           BZF      AVEGOUT                               #  AVEGFLAG DOWN -- SET UP FINAL EXIT
000113:
000114: 37,3470           30102                           CA       FLAGWRD6
000115: 37,3471           74744                           MASK     MUNFLBIT
000116: 37,3472           00006                           EXTEND
000117: 37,3473           13515                           BZF      MAKEACCS                              #  MUNFLAG CLEAR -- BYPASS LR AND DISP.
000118:
000119: 37,3474           10755                           CCS      PHASE2
000120: 37,3475           13515                           TCF      MAKEACCS                              #  PHASE 2 ACTIVATED -- AVOID MULTIPLE R10.
000121:
000122: 37,3476           34757                           CAF      SEVEN                                 #  SET PIPCTR FOR 4X/SEC RATE.
000123: 37,3477           55056                           TS       PIPCTR
000124:
000125: 37,3500           40025                           CS       TIME1                                 #  SET TBASE2 .05 SECONDS IN THE PAST.
000126: 37,3501           64756                           AD       FIVE
000127: 37,3502           64734                           AD       NEG1/2
000128: 37,3503           64734                           AD       NEG1/2
000129: 37,3504           57055                           XCH      TBASE2
000130:                                                                                                  #  Page 859
000131: 37,3505           34361                           CAF      DEC17                                 #  2.21SPOT FOR R10,R11
000132: 37,3506           54001                           TS       L
000133: 37,3507           40000                           COM
000134: 37,3510           52755                           DXCH     -PHASE2
000135:
000136: 37,3511           36007                           CAF      OCT24                                 #  FIRST R10,R11 IN .200 SECONDS
000137: 37,3512           05203                           TC       WAITLIST
000138: 37,3513  E7,1536                                  EBANK=   UNIT/R/
000139: 37,3513           02006 42067                     2CADR    R10,R11
000140:
000141: 37,3515           34751        MAKEACCS           CA       FOUR
000142: 37,3516           13436                           TCF      GOREADAX                              #  DO PHASE CHANGE AND RECALL READACCS
000143:
000144: 37,3517           00006        AVEGOUT            EXTEND
000145: 37,3520           33536                           DCA      AVOUTCAD                              #  SET UP FINAL SERVICER EXIT
000146: 37,3521           53253                           DXCH     AVGEXIT
000147:
000148: 37,3522           34751                           CA       FOUR                                  #  SET 5.4 SPOT FOR REREADAC AND SERVICER
000149: 37,3523           03525                           TC       GNUTFAZ5                              #  IF REREADAC IS CALLED, IT WILL EXIT
000150: 37,3524           05261                           TC       TASKOVER                              #  END TASK WITHOUT CALLING READACCS
000151:
000152: 37,3525           54001        GNUTFAZ5           TS       L                                     #  SAVE INPUT IN L
000153: 37,3526           40025                           CS       TIME1
000154: 37,3527           55063                           TS       TBASE5                                #  SET TBASE5
000155: 37,3530           13532                           TCF      +2
000156:
000157: 37,3531           54001        GNUFAZE5           TS       L                                     #  SAVE INPUT IN L
000158: 37,3532           40001                           CS       L                                     #  -PHASE IN A, PHASE IN L.
000159: 37,3533           52763                           DXCH     -PHASE5                               #  SET -PHASE5,PHASE5
000160: 37,3534           00002                           TC       Q
000161:
000162: 37,3535  E7,1515                                  EBANK=   DVCNTR
000163: 37,3535           03661 44067  AVOUTCAD           2CADR    AVGEND
000164:
000165: 37,3537           65772        ENDJBCAD           CADR     SERVEXIT   +2
000166:
000167: 37,3540           37771        OCT37771           OCT      37771
000168:
000169: 33,2206                                           BANK     33
000170: 33,2000                                           SETLOC   SERVICES
000171: 33,2000                                           BANK
000172:
000173: 33,2206                                           COUNT*   $$/SERV
000174:
000175:                                                                                                  #  Page 860
000176:                                                                                                  #  ************* SERVICER ****************
000177:
000178: 33,2206           05353        SERVICER           TC       PHASCHNG                              #  RESTART REREADAC + SERVICER
000179: 33,2207           16035                           OCT      16035
000180: 33,2210           20000                           OCT      20000
000181: 33,2211  E7,1515                                  EBANK=   DVCNTR
000182: 33,2211           02217 66067                     2CADR    GETABVAL
000183:
000184: 33,2213           37716                           CAF      PRIO31                                #  INITIALIZE 1/PIPADT IN CASE RESTART HAS
000185: 33,2214           55075                           TS       1/PIPADT                              #  CAUSED LASTBIAS TO BE SKIPPED.
000186:
000187: 33,2215           04616                           TC       BANKCALL                              #  PIPA COMPENSATION CALL
000188: 33,2216           15263                           CADR     1/PIPA
000189:
000190: 33,2217           06037        GETABVAL           TC       INTPRET
000191: 33,2220           51575                           VLOAD    ABVAL
000192: 33,2221           00325                                    DELV
000193: 33,2222           77776                           EXIT
000194: 33,2223           30154                           CA       MPAC
000195: 33,2224           55246                           TS       ABDELV                                #  ABDELV = CM/SEC*2(-14).
000196: 33,2225           00006                           EXTEND
000197: 33,2226           72020                           MP       KPIP
000198: 33,2227           53514                           DXCH     ABDVCONV                              #  ABDVCONV = M/CS * 2(-5).
000199: 33,2230           00006                           EXTEND
000200: 33,2231           31245                           DCA      MASS
000201: 33,2232           53571                           DXCH     MASS1                                 #  INITIALIZE MASS1 IN CASE WE SKIP MASSMON
000202: 33,2233           40104        MASSMON            CS       FLAGWRD8                              #  ARE WE ON THE SURFACE?
000203: 33,2234           74744                           MASK     SURFFBIT
000204: 33,2235           00006                           EXTEND
000205: 33,2236           12254                           BZF      MOONSPOT                              #  YES:  BYPASS MASS MESS
000206:
000207: 33,2237           30106                           CA       FLGWRD10                              #  NO:  WHICH VEX SHOULD BE USED?
000208: 33,2240           74737                           MASK     APSFLBIT
000209: 33,2241           10000                           CCS      A
000210: 33,2242           00006                           EXTEND                                         #  IF EXTEND IS EXECUTED, APSVEX --> A,
000211: 33,2243           32001                           DCA      APSVEX                                #        OTHERWISE DPSVEX --> A
000212: 33,2244           54002                           TS       Q
000213:
000214: 33,2245           00006                           EXTEND
000215: 33,2246           31514                           DCA      ABDVCONV
000216: 33,2247           00006                           EXTEND
000217: 33,2250           10002        OCT10002           DV       Q                                     #  WHERE APPROPRIATE VEX RESIDES
000218: 33,2251           00006                           EXTEND
000219: 33,2252           71244                           MP       MASS
000220: 33,2253           21571                           DAS      MASS1
000221:
000222: 33,2254           32021        MOONSPOT           CA       KPIP1                                 #  TP MPAC = ABDELV AT 2(14) CM/SEC
000223: 33,2255           07307                           TC       SHORTMP                               #  MULTIPLY BY KPIP1 TO GET
000224:                                                                                                  #  Page 861
000225: 33,2256           52155                           DXCH     MPAC                                  #  ABDELV AT 2(7) M/CS
000226: 33,2257           21510                           DAS      DVTOTAL                               #  UPDATE DVTOTAL FOR DISPLAY
000227:
000228: 33,2260           02440                           TC       TMPTOSPT
000229:
000230: 33,2261           04616                           TC       BANKCALL
000231: 33,2262           47615                           CADR     QUICTRIG
000232:
000233: 33,2263           32414                           CAF      XNBPIPAD
000234: 33,2264           04616                           TC       BANKCALL
000235: 33,2265           20037                           CADR     FLESHPOT
000236: 33,2266           06037                           TC       INTPRET
000237: 33,2267           45014        AVERAGEG           BON      CALL
000238: 33,2270           03307                                    MUNFLAG
000239: 33,2271           67032                                    RVBOTH
000240: 33,2272           66776                                    CALCRVG
000241: 33,2273           77776                           EXIT
000242: 33,2274           03552        GOSERV             TC       QUIKFAZ5
000243:
000244: 33,2275           02423        COPYCYCL           TC       COPYCYC
000245:
000246:                                                                                                  #                CA      ZERO            # A IS ZERO ON RETURN FROM COPYCYC
000247: 33,2276           55160                           TS       PIPATMPX
000248: 33,2277           55161                           TS       PIPATMPY
000249: 33,2300           55162                           TS       PIPATMPZ
000250:
000251: 33,2301           44741                           CS       STEERBIT                              #  CLEAR STEERSW PRIOR TO DVMON.
000252: 33,2302           70076                           MASK     FLAGWRD2
000253: 33,2303           54076                           TS       FLAGWRD2
000254:
000255: 33,2304           34745                           CAF      IDLEFBIT                              #  IS THE IDLE FLAG SET?
000256: 33,2305           70103                           MASK     FLAGWRD7
000257: 33,2306           10000                           CCS      A
000258: 33,2307           12342                           TCF      NODVMON1                              #  IDLEFLAG = 1, HENCE SET AUXFLAG TO 0.
000259:
000260: 33,2310           40102                           CS       FLAGWRD6
000261: 33,2311           74752                           MASK     AUXFLBIT
000262: 33,2312           10000                           CCS      A
000263: 33,2313           12346                           TCF      NODVMON2                              #  AUXFLAG = 0, HENCE SET AUXFLAG TO 1.
000264:
000265: 33,2314           41251        DVMON              CS       DVTHRUSH
000266: 33,2315           61246                           AD       ABDELV
000267: 33,2316           00006                           EXTEND
000268: 33,2317           62352                           BZMF     LOTHRUST
000269:
000270: 33,2320           40076                           CS       FLAGWRD2                              #  SET STEERSW.
000271: 33,2321           74741                           MASK     STEERBIT
000272: 33,2322           26076                           ADS      FLAGWRD2
000273:
000274: 33,2323           34753        DVCNTSET           CAF      ONE                                   #  ALLOW TWO PASSES MAXIMUM NOW THAT
000275:                                                                                                  #  Page 862
000276: 33,2324           55515                           TS       DVCNTR                                #  THRUST HAS BEEN DETECTED.
000277:
000278: 33,2325           30106                           CA       FLGWRD10                              #  BRANCH IF APSFLAG IS SET.
000279: 33,2326           74737                           MASK     APSFLBIT
000280: 33,2327           10000                           CCS      A
000281: 33,2330           12375                           TCF      USEJETS
000282:
000283: 33,2331           34743                           CA       BIT9                                  #  CHECK GIMBAL FAIL BIT
000284: 33,2332           00006                           EXTEND
000285: 33,2333           02032                           RAND     CHAN32
000286: 33,2334           00006                           EXTEND
000287: 33,2335           12375                           BZF      USEJETS
000288:
000289: 33,2336           44736        USEGTS             CS       USEQRJTS
000290: 33,2337           70111                           MASK     DAPBOOLS
000291: 33,2340           54111                           TS       DAPBOOLS
000292: 33,2341           12400                           TCF      SERVOUT
000293:
000294: 33,2342           44752        NODVMON1           CS       AUXFLBIT                              #  SET AUXFLAG TO 0.
000295: 33,2343           70102                           MASK     FLAGWRD6
000296: 33,2344           54102                           TS       FLAGWRD6
000297: 33,2345           12375                           TCF      USEJETS
000298: 33,2346           40102        NODVMON2           CS       FLAGWRD6                              #  SET AUXFLAG TO 1.
000299: 33,2347           74752                           MASK     AUXFLBIT
000300: 33,2350           26102                           ADS      FLAGWRD6
000301: 33,2351           12375                           TCF      USEJETS
000302:
000303: 33,2352           03552        LOTHRUST           TC       QUIKFAZ5
000304: 33,2353           11515                           CCS      DVCNTR
000305: 33,2354           12366                           TCF      DECCNTR
000306:
000307: 33,2355           10761                           CCS      PHASE4                                #  COMFAIL JOB ACTIVE?
000308: 33,2356           12400                           TCF      SERVOUT                               #  YES:  WON'T NEED ANOTHER.
000309:
000310: 33,2357           05353                           TC       PHASCHNG                              #  4.37SPOT FOR COMFAIL.
000311: 33,2360           00374                           OCT      00374
000312:
000313: 33,2361           37713                           CAF      PRIO25
000314: 33,2362           05072                           TC       NOVAC
000315: 33,2363  E7,1455                                  EBANK=   WHICH
000316: 33,2363           02571 74067                     2CADR    COMFAIL
000317:
000318: 33,2365           12400                           TCF      SERVOUT
000319:
000320: 33,2366           55570        DECCNTR            TS       DVCNTR1
000321: 33,2367           03552                           TC       QUIKFAZ5
000322: 33,2370           31570                           CA       DVCNTR1
000323: 33,2371           55515                           TS       DVCNTR
000324: 33,2372           00004                           INHINT
000325: 33,2373           04674                           TC       IBNKCALL                              #  IF THRUST IS LOW, NO STEERING IS DONE
000326:                                                                                                  #  Page 863
000327: 33,2374           40165                           CADR     STOPRATE                              #  AND THE DESIRED RATES ARE SET TO ZERO.
000328: 33,2375           40111        USEJETS            CS       DAPBOOLS
000329: 33,2376           74736                           MASK     USEQRJTS
000330: 33,2377           26111                           ADS      DAPBOOLS
000331: 33,2400           00003        SERVOUT            RELINT
000332: 33,2401           04616                           TC       BANKCALL
000333: 33,2402           40457                           CADR     1/ACCS
000334:
000335: 33,2403           30167                           CA       PRIORITY
000336: 33,2404           75004                           MASK     LOW9
000337: 33,2405           54166                           TS       PUSHLOC
000338: 33,2406           22007                           ZL
000339: 33,2407           52121                           DXCH     FIXLOC                                #  FIXLOC AND DVFIND
000340:
000341: 33,2410           03552                           TC       QUIKFAZ5
000342: 33,2411           00006                           EXTEND                                         #  EXIT TO SELECTED ROUTINE WHETHER THERE
000343: 33,2412           31253                           DCA      AVGEXIT                               #  IS THRUST OR NOT.  THE STATE OF STEERSW
000344: 33,2413           52006                           DXCH     Z                                     #  WILL CONVEY THIS INFORMATION.
000345:
000346: 33,2414           02145        XNBPIPAD           ECADR    XNBPIP
000347:
000348: 32,3770                                           BANK     32
000349: 22,2000                                           SETLOC   SERV2
000350: 22,2000                                           BANK
000351: 22,3661                                           COUNT*   $$/SERV
000352:
000353: 22,3661           31235        AVGEND             CA       PIPTIME    +1                         #  FINAL AVERAGE G EXIT
000354: 22,3662           55075                           TS       1/PIPADT                              #  SET UP FREE FALL GYRO COMPENSATION.
000355:
000356: 22,3663           05504                           TC       UPFLAG                                #  SET DRIFT FLAG.
000357: 22,3664           00036                           ADRES    DRIFTFLG
000358:
000359: 22,3665           04616                           TC       BANKCALL
000360: 22,3666           17310                           CADR     PIPFREE
000361:
000362: 22,3667           44743                           CS       BIT9
000363: 22,3670           00006                           EXTEND
000364: 22,3671           03011                           WAND     DSALMOUT
000365:
000366: 22,3672           05327                           TC       2PHSCHNG
000367: 22,3673           00005                           OCT      5                                     #  GROUP 5 OFF
000368: 22,3674           05022                           OCT      05022                                 #  GROUP 2 ON
000369: 22,3675           20000                           OCT      20000
000370:
000371: 22,3676           06037                           TC       INTPRET
000372: 22,3677           43014                           SET      CLEAR
000373: 22,3700           01464                                    NOR29FLG                              #  SHUT OFF R29 WHEN SERVICER ENDS.
000374: 22,3701           03664                                    SWANDISP                              #  SHUT OFF R10 WHEN SERVICER ENDS.
000375: 22,3702           45014                           CLEAR    CALL                                  #  RESET MUNFLAG.
000376: 22,3703           03267                                    MUNFLAG
000377:                                                                                                  #  Page 864
000378: 22,3704           27467                                    AVETOMID
000379: 22,3705           77414                           CLEAR    EXIT
000380: 22,3706           03671                                    V37FLAG
000381: 22,3707           31260        AVERTRN            CA       OUTROUTE                              #  RETURN TO DESIRED POINT.
000382: 22,3710           04640                           TC       BANKJUMP
000383:
000384: 22,3711  22,3707               OUTGOAVE           =        AVERTRN
000385: 22,3711  E7,1570               DVCNTR1            =        MASS1
000386:
000387:                                                                                                  #  Page 865
000388: 27,2000                                           SETLOC   SERV3
000389: 27,2000                                           BANK
000390: 27,3321                                           COUNT*   $$/SERV
000391:
000392: 27,3321           00006        SERVIDLE           EXTEND                                         #  DISCONNECT SERVICER FROM ALL GUIDANCE
000393: 27,3322           33357                           DCA      SVEXTADR
000394: 27,3323           53253                           DXCH     AVGEXIT
000395:
000396: 27,3324           40103                           CS       FLAGWRD7                              #  DISCONNECT THE DELTA-V MONITOR
000397: 27,3325           74745                           MASK     IDLEFBIT
000398: 27,3326           26103                           ADS      FLAGWRD7
000399:
000400: 27,3327           34735                           CAF      LRBYBIT                               #  TERMINATE R12 IS RUNNING.
000401: 27,3330           54107                           TS       FLGWRD11
000402:
000403: 27,3331           00006                           EXTEND
000404: 27,3332           34755                           DCA      NEG0
000405: 27,3333           52753                           DXCH     -PHASE1
000406:
000407: 27,3334           30102                           CA       FLAGWRD6                              #  DO NOT TURN OFF PHASE 2 IF MUNFLAG SET.
000408: 27,3335           74744                           MASK     MUNFLBIT
000409: 27,3336           10000                           CCS      A
000410: 27,3337           13343                           TCF      +4
000411:
000412: 27,3340           00006                           EXTEND
000413: 27,3341           34755                           DCA      NEG0
000414: 27,3342           52755                           DXCH     -PHASE2
000415:
000416: 27,3343           00006                 +4        EXTEND
000417: 27,3344           34755                           DCA      NEG0
000418: 27,3345           52757                           DXCH     -PHASE3
000419:
000420: 27,3346           00006                           EXTEND
000421: 27,3347           34755                           DCA      NEG0
000422: 27,3350           52765                           DXCH     -PHASE6
000423:
000424: 27,3351           34764                           CAF      OCT33                                 #  4.33SPOT FOR GOP00FIX
000425: 27,3352           54001                           TS       L
000426: 27,3353           40000                           COM
000427: 27,3354           52761                           DXCH     -PHASE4
000428:
000429: 27,3355           15644                           TCF      WHIMPER                               #  PERFORM A SOFTWARE RESTART AND PROCEED
000430:                                                                                                  #  TO GOTOP00H WHILE SERVICER CONTINUES TO
000431:                                                                                                  #  RUN, ALBEIT IN A GROUND STATE WHERE
000432:                                                                                                  #  ONLY STATE-VECTOR DEPENDENT FUNCTIONS
000433:                                                                                                  #  ARE MAINTAINED.
000434:
000435: 27,3356  E7,1515                                  EBANK=   DVCNTR
000436:                                                                                                  #  Page 866
000437: 27,3356           03770 64067  SVEXTADR           2CADR    SERVEXIT
000438:
000439: 32,3770                                           BANK     32
000440: 32,2000                                           SETLOC   SERV
000441: 32,2000                                           BANK
000442: 32,3770                                           COUNT*   $$/SERV
000443:
000444: 32,3770           05353        SERVEXIT           TC       PHASCHNG
000445: 32,3771           00035                           OCT      00035
000446:
000447: 32,3772           15155                 +2        TCF      ENDOFJOB
000448:
000449: 23,2461                                           BANK     23
000450: 23,2000                                           SETLOC   NORMLIZ
000451: 23,2000                                           BANK
000452:
000453: 23,2461                                           COUNT*   $$/SERV
000454:
000455:                                                                                                  #  Page 867
000456: 23,2461           06037        NORMLIZE           TC       INTPRET
000457: 23,2462           43175                           VLOAD    BOFF
000458: 23,2463           03545                                    RN1
000459: 23,2464           03347                                    MUNFLAG
000460: 23,2465           66415                                    NORMLIZ1
000461: 23,2466           64252                           VSL6     MXV
000462: 23,2467           01734                                    REFSMMAT
000463: 23,2470           37521                           STCALL   R
000464: 23,2471           67130                                    MUNGRAV
000465: 23,2472           76575                           VLOAD    VSL1
000466: 23,2473           03553                                    VN1
000467: 23,2474           77721                           MXV
000468: 23,2475           01734                                    REFSMMAT
000469: 23,2476           27527                           STOVL    V
000470: 23,2477           01726                                    V(CSM)
000471: 23,2500           53435                           VXV      UNIT
000472: 23,2501           01720                                    R(CSM)
000473: 23,2502           03720                           STORE    UHYP
000474: 23,2503           77776        ASCSPOT            EXIT
000475: 23,2504           00006                           EXTEND                                         #  MAKE SURE GROUP 2 IS OFF
000476: 23,2505           34755                           DCA      NEG0
000477: 23,2506           52755                           DXCH     -PHASE2
000478:
000479: 23,2507           04635                           TC       POSTJUMP
000480: 23,2510           66420                           CADR     NORMLIZ2
000481:
000482: 33,2415                                           BANK     33
000483: 33,2000                                           SETLOC   SERVICES
000484: 33,2000                                           BANK
000485: 33,2415                                           COUNT*   $$/SERV
000486:
000487: 33,2415           77624        NORMLIZ1           CALL
000488: 33,2416           66730                                    CALCGRAV
000489: 33,2417           77776                           EXIT
000490:
000491: 33,2420           32437        NORMLIZ2           CA       EIGHTEEN
000492: 33,2421           02424                           TC       COPYCYC    +1                         #  DO NOT COPY MASS IN NORMLIZE
000493: 33,2422           05155                           TC       ENDOFJOB
000494:
000495: 33,2423           36007        COPYCYC            CA       OCT24                                 #  DEC 20
000496: 33,2424           00004                 +1        INHINT
000497: 33,2425           77747                 +2        MASK     NEG1                                  #  REDUCE BY 1 IF ODD
000498: 33,2426           54061                           TS       ITEMP1
000499: 33,2427           00006                           EXTEND
000500: 33,2430           50061                           INDEX    ITEMP1
000501: 33,2431           31545                           DCA      RN1
000502: 33,2432           50061                           INDEX    ITEMP1
000503:                                                                                                  #  Page 868
000504: 33,2433           53221                           DXCH     RN
000505: 33,2434           10061                           CCS      ITEMP1
000506: 33,2435           12425                           TCF      COPYCYC    +2
000507: 33,2436           00002                           TC       Q                                     #  RETURN UNDER INHINT
000508:
000509: 33,2437           00022        EIGHTEEN           DEC      18         B-14
000510:
000511:                                                                                                  #  Page 869
000512:                                                                                                  #  ************* PIPA READER *****************
000513:                                                                                                  #  MOD NO. 00 BY D. LICKLY, DEC. 9 1966
000514:
000515:                                                                                                  #  FUNCTIONAL DESCRIPTION
000516:                                                                                                  #        SUBROUTINE TO READ PIPA COUNTERS, TRYING TO BE VERY CAREFUL SO THAT WILL BE RESTARTABLE.
000517:                                                                                                  #        PIPA READINGS ARE STORED IN THE VECTOR DELV.  THE HIGH ORDER PART OF EACH COMPONENT CONTAINS THE PIPA READING,
000518:                                                                                                  #        RESTARTS BEGIN AT REREADAC.
000519:
000520:                                                                                                  #        AT THE END OF THE PIPA READER THE CDUS ARE READ AND STORED AS A
000521:                                                                                                  #        VECTOR IN CDUTEMP.  THE HIGH ORDER PART OF EACH COMPONENT CONTAINS
000522:                                                                                                  #        THE CDU READING IN 25 COMP IN THE ORDER CDUX,Y,Z.  THE THRUST
000523:                                                                                                  #        VECTOR ESTIMATOR IN FINDCDUD REQUIRES THE CDUS BE READ AT PIPTIME.
000524:
000525:                                                                                                  #  CALLING SEQUENCE AND EXIT
000526:                                                                                                  #        CALL VIA TC, ISWCALL, ETC.
000527:                                                                                                  #        EXIT IS VIA Q.
000528:
000529:                                                                                                  #  INPUT
000530:                                                                                                  #        INPUT IS THROUGH THE COUNTERS PIPAX, PIPAY, PIPAZ, AND TIME2.
000531:
000532:                                                                                                  #  OUTPUT
000533:                                                                                                  #        HIGH ORDER COMPONENTS OF THE VECTOR DELV CONTAIN THE PIPA READINGS.
000534:                                                                                                  #        PIPTIME CONTAINS TIME OF PIPA READING.
000535:
000536:                                                                                                  #  DEBRIS (ERASABLE LOCATIONS DESTROYED BY PROGRAM)
000537:                                                                                                  #        TEMX, TEMY, TEMZ, PIPAGE
000538:
000539: 37,3541                                           BANK     37
000540: 37,2000                                           SETLOC   SERV1
000541: 37,2000                                           BANK
000542:
000543: 37,3541                                           COUNT*   $$/SERV
000544:
000545: 37,3541           00006        PIPASR             EXTEND
000546:                                                                                                  #  Page 870
000547: 37,3542           30025                           DCA      TIME2
000548: 37,3543           53561                           DXCH     PIPTIME1                              #  CURRENT TIME POSITIVE VALUE
000549: 37,3544           44755                 +3        CS       ZERO                                  #  INITIALIZE THESE AT NEG. ZERO.
000550: 37,3545           55254                           TS       TEMX
000551: 37,3546           55255                           TS       TEMY
000552: 37,3547           55256                           TS       TEMZ
000553:
000554: 37,3550           34755                           CA       ZERO
000555: 37,3551           54330                           TS       DELVZ
000556: 37,3552           54331                           TS       DELVZ      +1
000557: 37,3553           54326                           TS       DELVY
000558: 37,3554           54327                           TS       DELVY      +1
000559: 37,3555           54325                           TS       DELVX      +1
000560: 37,3556           55257                           TS       PIPAGE                                #  SHOW PIPA READING IN PROGRESS
000561:
000562: 37,3557           00006        REPIP1             EXTEND
000563: 37,3560           40040                           DCS      PIPAX                                 #  X AND Y PIPS READ
000564: 37,3561           53255                           DXCH     TEMX
000565: 37,3562           52040                           DXCH     PIPAX                                 #  PIPAS SET TO NEG ZERO AS READ.
000566: 37,3563           54324                           TS       DELVX
000567: 37,3564           22326                           LXCH     DELVY
000568:
000569: 37,3565           40041        REPIP3             CS       PIPAZ                                 #  REPEAT PROCESS FOR Z PIP
000570: 37,3566           57256                           XCH      TEMZ
000571: 37,3567           56041                           XCH      PIPAZ
000572: 37,3570           54330        DODELVZ            TS       DELVZ
000573:
000574: 37,3571           00006        REPIP4             EXTEND                                         #  COMPUTE GUIDANCE PERIOD
000575: 37,3572           31561                           DCA      PIPTIME1
000576: 37,3573           53250                           DXCH     PGUIDE
000577: 37,3574           00006                           EXTEND
000578: 37,3575           41235                           DCS      PIPTIME
000579: 37,3576           21250                           DAS      PGUIDE
000580:
000581: 37,3577           30032                           CA       CDUX                                  #  READ CDUS INTO HIGH ORDER CDUTEMPS
000582: 37,3600           55155                           TS       CDUTEMPX
000583: 37,3601           30033                           CA       CDUY
000584: 37,3602           55156                           TS       CDUTEMPY
000585: 37,3603           30034                           CA       CDUZ
000586: 37,3604           55157                           TS       CDUTEMPZ
000587: 37,3605           30324                           CA       DELVX
000588: 37,3606           55160                           TS       PIPATMPX
000589: 37,3607           30326                           CA       DELVY
000590: 37,3610           55161                           TS       PIPATMPY
000591: 37,3611           30330                           CA       DELVZ
000592: 37,3612           55162                           TS       PIPATMPZ
000593:
000594: 37,3613           00002                           TC       Q
000595:
000596:                                                                                                  #  Page 871
000597: 37,3614           11257        REREADAC           CCS      PIPAGE
000598: 37,3615           13441                           TCF      READACCS                              #  PIP READING NOT STARTED.  GO TO BEGINNING
000599:
000600: 37,3616           33654                           CAF      DONEADR                               #  SET UP RETURN FROM PIPASR
000601: 37,3617           54002                           TS       Q
000602:
000603: 37,3620           10330                           CCS      DELVZ
000604: 37,3621           13571                           TCF      REPIP4                                #  Z DONE, GO DO CDUS
000605: 37,3622           13625                           TCF      +3                                    #  Z NOT DONE, CHECK Y.
000606: 37,3623           13571                           TCF      REPIP4
000607: 37,3624           13571                           TCF      REPIP4
000608:
000609: 37,3625           22007                           ZL
000610: 37,3626           10326                           CCS      DELVY
000611: 37,3627           13632                           TCF      +3
000612: 37,3630           13641                           TCF      CHKTEMX                               #  Y NOT DONE, CHECK X.
000613: 37,3631           13632                           TCF      +1
000614: 37,3632           22041                           LXCH     PIPAZ                                 #  Y DONE, ZERO Z PIP.
000615:
000616: 37,3633           11256                           CCS      TEMZ
000617: 37,3634           41256                           CS       TEMZ                                  #  TEMZ NOT = -0, CONTAINS -PIPAZ VALUE.
000618: 37,3635           13570                           TCF      DODELVZ
000619: 37,3636           13634                           TCF      -2
000620: 37,3637           22330                           LXCH     DELVZ                                 #  TEMZ = -0, L HAS ZPIP VALUE.
000621: 37,3640           13571                           TCF      REPIP4
000622:
000623: 37,3641           11254        CHKTEMX            CCS      TEMX                                  #  HAS THIS CHANGED
000624: 37,3642           41254                           CS       TEMX                                  #  YES
000625: 37,3643           13646                           TCF      +3                                    #  YES
000626: 37,3644           13642                           TCF      -2                                    #  YES
000627: 37,3645           13557                           TCF      REPIP1                                #  NO
000628: 37,3646           54324                           TS       DELVX
000629:
000630: 37,3647           41255                           CS       TEMY
000631: 37,3650           54326                           TS       DELVY
000632:
000633: 37,3651           44755                           CS       ZERO                                  #  ZERO X AND Y PIPS
000634: 37,3652           52040                           DXCH     PIPAX                                 #  L STILL ZERO FROM ABOVE
000635:
000636: 37,3653           13565                           TCF      REPIP3
000637:
000638: 37,3654           03451        DONEADR            GENADR   PIPSDONE
000639:
000640:                                                                                                  #  Page 872
000641: 33,2440                                           BANK     33
000642: 33,2000                                           SETLOC   SERVICES
000643: 33,2000                                           BANK
000644:
000645: 33,2440                                           COUNT*   $$/SERV
000646:
000647: 33,2440           31156        TMPTOSPT           CA       CDUTEMPY                              #  THIS SUBROUTINE, CALLED BY AN RTB FROM
000648: 33,2441           54766                           TS       CDUSPOTY                              #  INTERPRETIVE, LOADS THE CDUS CORRESPON-
000649: 33,2442           31157                           CA       CDUTEMPZ                              #  DING TO PIPTIME INTO THE CDUSPOT VECTOR.
000650: 33,2443           54770                           TS       CDUSPOTZ
000651: 33,2444           31155                           CA       CDUTEMPX
000652: 33,2445           54772                           TS       CDUSPOTX
000653: 33,2446           00002                           TC       Q
000654:
000655:                                                                                                  #  LRHTASK IS A WAITLIST TASK SET BY READACCS DURING THE DESCENT BRAKING
000656:                                                                                                  #  PHASE WHEN THE ALT TO THE LUNAR SURFACE IS LESS THAN 25,000 FT.  THIS
000657:                                                                                                  #  TASK CLEARS THE ALTITUDE MEASUREMENT MADE DISCRETE AND INITIATES THE
000658:                                                                                                  #  LANDING RADAR MEASUREMENT JOB (LRHJOB) TO TAKE A ALTITUDE MEASUREMENT
000659:                                                                                                  #  50 MS PRIOR TO THE NEXT READACCS TASK.
000660:
000661: 21,2130                                           BANK     21
000662: 21,2000                                           SETLOC   R10
000663: 21,2000                                           BANK
000664:
000665: 21,2130                                           COUNT*   $$/SERV
000666:
000667: 21,2130           40107        LRHTASK            CS       FLGWRD11
000668: 21,2131           74735                           MASK     LRBYBIT
000669: 21,2132           00006                           EXTEND
000670: 21,2133           12150                           BZF      GRP2OFF                               #  LR BYPASS SET -- BYPASS ALL LR READING.
000671:
000672: 21,2134           34746                           CA       READLBIT
000673: 21,2135           70107                           MASK     FLGWRD11                              #  IS READLR FLAG SET?
000674: 21,2136           00006                           EXTEND
000675: 21,2137           12150                           BZF      GRP2OFF                               #  NO.  BYPASS LR READ.
000676:
000677: 21,2140           40107                           CS       FLGWRD11
000678: 21,2141           74742                           MASK     NOLRRBIT                              #  IS LR READ INHIBITED?
000679: 21,2142           00006                           EXTEND
000680: 21,2143           12150                           BZF      GRP2OFF                               #  YES.  BYPASS LR READ.
000681:
000682: 21,2144           37720                           CA       PRIO32                                #  LR READ OK.  SET JOB TO DO IT
000683: 21,2145           05072                           TC       NOVAC                                 #  ABOUT 50 MS. PRIOR TO PIPA READ.
000684: 21,2146  E7,1654                                  EBANK=   HMEAS
000685: 21,2146           03716 70067                     2CADR    LRHJOB
000686:
000687: 21,2150           00006        GRP2OFF            EXTEND
000688: 21,2151           34755                           DCA      NEG0
000689: 21,2152           52755                           DXCH     -PHASE2
000690: 21,2153           12021                           TCF      R10,R11A
000691:
000692: 33,2447                                           BANK     33
000693: 33,2000                                           SETLOC   SERVICES
000694: 33,2000                                           BANK
000695:                                                                                                  #  Page 873
000696: 33,2447                                           COUNT*   $$/SERV
000697:
000698:                                                                                                  #  HIGATASK IS ENTERED APPROXIMATELY 6 SECS PRIOR TO HIGATE DURING THE
000699:                                                                                                  #  DESCENT PHASE.  HIGATASK SETS THE HIGATE FLAG (BIT11) AND THE LR INHIBIT
000700:                                                                                                  #  FLAG (BIT10) IN LRSTAT.  THE HIGATJOB IS SET UP TO REPOSITION THE LR
000701:                                                                                                  #  ANTENNA FROM POSITION 1 TO POSITION 2.  IF THE REPOSITIONING IS
000702:                                                                                                  #  SUCCESSFUL THE ALT BEAM AND VELOCITY BEAMS ARE TRANSFORMED TO THE NEW
000703:                                                                                                  #  ORIENTATION IN NB COORDINATES AND STORED IN ERASABLE.
000704:
000705: 33,2447           00004        HIGATASK           INHINT
000706: 33,2450           45015                           CS       PRIO3                                 #  SET HIGATE AND LR INHIBIT FLAGS
000707: 33,2451           70107                           MASK     FLGWRD11
000708: 33,2452           65015                           AD       PRIO3
000709: 33,2453           54107                           TS       FLGWRD11
000710: 33,2454           37720                           CAF      PRIO32
000711: 33,2455           05105                           TC       FINDVAC                               #  SET LR POSITIONING JOB (POS2)
000712: 33,2456  E7,1654                                  EBANK=   HMEAS
000713: 33,2456           03670 66067                     2CADR    HIGATJOB
000714:
000715: 33,2460           12540                           TCF      CONTSERV                              #  CONTINUE SERVICER
000716:
000717:                                                                                                  #  Page 874
000718:                                                                                                  #  MUNRETRN IS THE RETURN LOC FROM SPECIAL AVE G ROUTINE (MUNRVG)
000719:
000720: 33,2461           77776        MUNRETRN           EXIT
000721:
000722: 33,2462           40107                           CS       FLGWRD11
000723: 33,2463           74735                           MASK     LRBYBIT
000724: 33,2464           00006                           EXTEND
000725: 33,2465           12546                           BZF      COPYCYC1                              #  BYPASS LR LOGIC IF BIT15 IS SET.
000726:
000727: 33,2466           34746                           CA       READLBIT                              #  SEE IF ALT < 35000 FT LAST CYCLE
000728: 33,2467           70107                           MASK     FLGWRD11
000729: 33,2470           00006                           EXTEND
000730: 33,2471           12721                           BZF      35KCHK                                #  ALT WAS > 35000 FT LAST CYCLE   CHK NOW
000731:
000732: 33,2472           34743                           CAF      XORFLBIT                              #  WERE WE BELOW 30000 FT LAST PASS?
000733: 33,2473           70107                           MASK     FLGWRD11
000734: 33,2474           00006                           EXTEND
000735: 33,2475           12710                           BZF      XORCHK                                #  NO -- TEST THIS PASS
000736: 33,2476           34741        HITEST             CAF      PSTHIBIT                              #  CHECK FOR HIGATE
000737: 33,2477           70107                           MASK     FLGWRD11
000738: 33,2500           00006                           EXTEND
000739: 33,2501           12515                           BZF      HIGATCHK                              #  NOT AT HIGATE LAST CYCLE -- CHK THIS CYCLE
000740:
000741: 33,2502           34745        POS2CHK            CAF      BIT7                                  #  VERIFY LR IN POS2
000742: 33,2503           00006                           EXTEND
000743: 33,2504           02033                           RAND     CHAN33
000744: 33,2505           00006                           EXTEND
000745: 33,2506           13155                           BZF      UPDATCHK                              #  IT IS -- CHECK FOR LR UPDATE
000746: 33,2507           34737                           CAF      BIT13
000747: 33,2510           00006                           EXTEND
000748: 33,2511           02012                           RAND     CHAN12
000749: 33,2512           00006                           EXTEND
000750: 33,2513           12536                           BZF      LRPOSALM                              #  LR NOT IN POS2 OR REPOSITIONING -- BAD
000751: 33,2514           12540                           TCF      CONTSERV                              #  LR BEING REPOSITIONED -- CONTINUE SERV
000752:
000753: 33,2515           31642        HIGATCHK           CA       TTF/8                                 #  IS TTF > CRITERION?  (TTF IS NEGATIVE)
000754: 33,2516           61427                           AD       RPCRTIME
000755: 33,2517           00006                           EXTEND
000756: 33,2520           62531                           BZMF     POS1CHK                               #  NO
000757:
000758: 33,2521           34741                           CA       EBANK4                                #  MUST SWITCH EBANKS
000759: 33,2522           56003                           XCH      EBANK
000760: 33,2523           54001                           TS       L                                     #  SAVE IN L
000761:
000762: 33,2524  E4,1545                                  EBANK=   XNBPIP
000763: 33,2524           41545                           CS       XNBPIP                                #  UXBXP IN GSOP CH5
000764: 33,2525  E7,1515                                  EBANK=   DVCNTR
000765: 33,2525           22003                           LXCH     EBANK                                 #  RESTORE EBANK
000766: 33,2526           61430                           AD       RPCRTQSW                              #  QSW - UXBXP
000767:                                                                                                  #  Page 875
000768:
000769: 33,2527           00006                           EXTEND
000770: 33,2530           62447                           BZMF     HIGATASK                              #  IF UXBXP > QSW, THEN REPOSITION
000771:
000772: 33,2531           34746        POS1CHK            CAF      BIT6                                  #  HIGATE NOT IN SIGHT -- DO POS1 CHK
000773: 33,2532           00006                           EXTEND
000774: 33,2533           02033                           RAND     33
000775: 33,2534           00006                           EXTEND
000776: 33,2535           13155                           BZF      UPDATCHK                              #  LR IN POS1 -- CHECK FOR LR UPDATE
000777:
000778: 33,2536           05567        LRPOSALM           TC       ALARM                                 #  LR NOT IN PROPER POS-ALARM-BYPASS UPDATE
000779: 33,2537           00511                           OCT      511                                   #  AND CONTINUE SERVICER
000780: 33,2540           00004        CONTSERV           INHINT
000781: 33,2541           43154                           CS       BITS4-7
000782: 33,2542           70107                           MASK     FLGWRD11                              #  CLEAR LR MEASUREMENT MADE DISCRETES.
000783: 33,2543           54107                           TS       FLGWRD11
000784:
000785: 33,2544           04674                           TC       IBNKCALL                              #  SET LR LITES PROPERLY
000786: 33,2545           53607                           CADR     R12LITES
000787:
000788:                                                                                                  #  Page 876
000789: 33,2546           03552        COPYCYC1           TC       QUIKFAZ5
000790:
000791: 33,2547           30077        R29?               CA       FLAGWRD3
000792: 33,2550           75014                           MASK     NR29&RDR
000793: 33,2551           10000                           CCS      A                                     #  IS NOR29FLG OR READRFLG SET?
000794: 33,2552           12564                           TCF      R29NODES                              #  YES, SO DON'T DESIGNATE.
000795:
000796: 33,2553           30110                           CA       RADMODES                              #  NO, SO R29 IS CALLED FOR.
000797: 33,2554           72250                           MASK     OCT10002                              #  IS THE RR NOT ZEROING ITS CDUS, AND
000798: 33,2555           10000                           CCS      A                                     #  IS THE RENDEZVOUS RADAR IN AUTO MODE?
000799: 33,2556           12564                           TCF      R29NODES                              #  NO, SO DON'T DESIGNATE.
000800:
000801: 33,2557           30110                           CA       RADMODES
000802: 33,2560           77710                           MASK     PRIO22
000803: 33,2561           10000                           CCS      A                                     #  IS RR REPOSITIONING OR REMODING?
000804: 33,2562           12570                           TCF      NOR29NOW                              #  YES:  COME BACK IN 2 SECONDS & TRY AGAIN.
000805:
000806: 33,2563           12045                           TCF      R29
000807:
000808: 33,2564           00004        R29NODES           INHINT                                         #  R29 NOT ALLOWED THIS CYCLE.
000809: 33,2565           44742                           CS       DESIGBIT                              #  SHOW THAT DESIGNATION IS OFF.
000810: 33,2566           70110                           MASK     RADMODES
000811: 33,2567           54110                           TS       RADMODES
000812:
000813: 33,2570           06037        NOR29NOW           TC       INTPRET                               #  INTPRET DOES A RELINT.
000814: 33,2571           51575                           VLOAD    ABVAL                                 #  MPAC = ABVAL( NEW SM. POSITION VECTOR )
000815: 33,2572           03573                                    R1S
000816: 33,2573           45206                           PUSH     DSU                                   #                                (2)
000817: 33,2574           02333                                    /LAND/
000818: 33,2575           03535                           STORE    HCALC                                 #  NEW HCALC*2(24)M.
000819: 33,2576           03775                           STORE    HCALC1
000820: 33,2577           47075                           DMPR     RTB
000821: 33,2600           26026                                    ALTCONV
000822: 33,2601           21612                                    SGNAGREE
000823: 33,2602           27742                           STOVL    ALTBITS                               #  ALTITUDE FOR R10 IN BIT UNITS.
000824: 33,2603           03537                                    UNIT/R/
000825: 33,2604           53435                           VXV      UNIT
000826: 33,2605           03720                                    UHYP
000827: 33,2606           27726                           STOVL    UHZP                                  #  DOWNRANGE HALF-UNIT VECTOR FOR R10.
000828: 33,2607           03573                                    R1S
000829: 33,2610           60505                           VXM      VSR4
000830: 33,2611           01734                                    REFSMMAT
000831: 33,2612           27545                           STOVL    RN1                                   #  TEMP. REF. POSITION VECTOR*2(29)M.
000832: 33,2613           03601                                    V1S
000833: 33,2614           76505                           VXM      VSL1
000834: 33,2615           01734                                    REFSMMAT
000835: 33,2616           27553                           STOVL    VN1                                   #  TEMP. REF. VELOCITY VECTOR 2(7) M/CS.
000836: 33,2617           03537                                    UNIT/R/
000837: 33,2620           51435                           VXV      ABVAL
000838:                                                                                                  #  Page 877
000839: 33,2621           03601                                    V1S
000840: 33,2622           63552                           SL1      DSQ
000841: 33,2623           77671                           DDV
000842: 33,2624           47075                           DMPR     RTB
000843: 33,2625           26030                                    ARCONV1
000844: 33,2626           21612                                    SGNAGREE
000845: 33,2627           77776        COPYCYC2           EXIT                                           #  LEAVE ALTITUDE RATE COMPENSATION IN MPAC
000846: 33,2630           00004                           INHINT
000847: 33,2631           31536                           CA       UNIT/R/                               #  UPDATE RUNIT FOR R10.
000848: 33,2632           55743                           TS       RUNIT
000849: 33,2633           31540                           CA       UNIT/R/    +2
000850: 33,2634           55744                           TS       RUNIT      +1
000851: 33,2635           31542                           CA       UNIT/R/    +4
000852: 33,2636           55745                           TS       RUNIT      +2
000853: 33,2637           30154                           CA       MPAC                                  #  LOAD NEW DALTRATE FOR R10.
000854: 33,2640           55716                           TS       DALTRATE
000855:
000856: 33,2641           00006                           EXTEND
000857: 33,2642           31573                           DCA      R1S
000858: 33,2643           53521                           DXCH     R
000859: 33,2644           00006                           EXTEND
000860: 33,2645           31575                           DCA      R1S        +2
000861: 33,2646           53523                           DXCH     R          +2
000862: 33,2647           00006                           EXTEND
000863: 33,2650           31577                           DCA      R1S        +4
000864: 33,2651           53525                           DXCH     R          +4
000865: 33,2652           00006                           EXTEND
000866: 33,2653           31601                           DCA      V1S
000867: 33,2654           53527                           DXCH     V
000868: 33,2655           00006                           EXTEND
000869: 33,2656           31603                           DCA      V1S        +2
000870: 33,2657           53531                           DXCH     V          +2
000871: 33,2660           00006                           EXTEND
000872: 33,2661           31605                           DCA      V1S        +4
000873: 33,2662           53533                           DXCH     V          +4
000874:
000875: 33,2663           12275                           TCF      COPYCYCL                              #  COMPLETE THE COPYCYCL.
000876:
000877:                                                                                                  #  Page 878
000878:                                                                                                  #  ALTCHK COMPARES CURRENT ALTITUDE (IN HCALC) WITH A SPECIFIED ALTITUDE FROM A TABLE BEGINNING AT ALTCRIT.
000879:                                                                                                  #  ITS CALLING SEQUENCE IS AS FOLLOWS:-
000880:
000881:                                                                                                  #        L       CAF     N
000882:                                                                                                  #        L+1     TC      BANKCALL
000883:                                                                                                  #        L+2     CADR    ALTCHK
000884:                                                                                                  #        L+3     RETURN HERE IF HCALC STILL > SPECIFIED CRITERION.   C(L) = +0.
000885:                                                                                                  #        L+4     RETURN HERE IF HCALC < OR = SPECIFIED CRITERION.   C(A) = C(L) = +0
000886:
000887:                                                                                                  #  ALTCHK MUST BE BANKCALLED EVEN FROM ITS OWN BANK.   N IS THE LOCATION, RELATIVE TO THE TAG ALTCRIT,
000888:                                                                                                  #  OF THE BEGINNING OF THE DP CONSTANT TO BE USED AS A CRITERION.
000889:
000890: 33,2664           00006        ALTCHK             EXTEND
000891: 33,2665           50000                           INDEX    A
000892: 33,2666           32700                           DCA      ALTCRIT
000893: 33,2667           52156                           DXCH     MPAC       +1
000894: 33,2670           00006                           EXTEND
000895: 33,2671           41535                           DCS      HCALC
000896: 33,2672           20156                           DAS      MPAC       +1
000897: 33,2673           06727                           TC       BRANCH     +4
000898: 33,2674           34755                           CAF      ZERO                                  #  BETTER THAN A NOOP, PERHAPS
000899: 33,2675           24133                           INCR     BUF2
000900: 33,2676           14631                           TCF      SWRETURN
000901:
000902: 33,2677  33,2677               ALTCRIT            =        25KFT
000903:
000904: 33,2677           00007 16100  25KFT              2DEC     7620       B-24                       #  (0)
000905:
000906: 33,2701           00016 34200  50KFT              2DEC     15240      B-24                       #  (2)
000907:
000908: 33,2703           00000 00364  50FT               2DEC     15.24      B-24                       #  (4)
000909:
000910: 33,2705           00010 35600  30KFT              2DEC     9144       B-24                       #  (6)
000911:
000912: 33,2707           01414        2KFT/SEC           DEC      6.096      B-7                        #  2000 FT/SEC AT 2(7) M/CS
000913:
000914:
000915:                                                                                                  #  (A remark was likely to be needed here to explain XORCHK) 4/Jun/09,FB
000916:
000917: 33,2710           36242        XORCHK             CAF      SIX                                   #  ARE WE BELOW 30000 FT?
000918: 33,2711           04616                           TC       BANKCALL
000919: 33,2712           66664                           CADR     ALTCHK
000920: 33,2713           12476                           TCF      HITEST                                #  CONTINUE LR UPDATE
000921: 33,2714           05504                           TC       UPFLAG                                #  YES: INHIBIT X-AXIS OVERRIDE
000922: 33,2715           00311                           ADRES    XOVINFLG
000923: 33,2716           05504                           TC       UPFLAG
000924: 33,2717           00253                           ADRES    XORFLG
000925: 33,2720           12476                           TCF      HITEST                                #  CONTINUE LR UPDATE
000926:
000927: 33,2721           34752        35KCHK             CAF      TWO                                   #  ARE WE BELOW 35000 FT?
000928:
000929:                                                                                                  #  Page 879
000930: 33,2722           04616                           TC       BANKCALL
000931: 33,2723           66664                           CADR     ALTCHK
000932: 33,2724           12540                           TCF      CONTSERV
000933: 33,2725           05504                           TC       UPFLAG
000934: 33,2726           00256                           ADRES    READLR                                #  SET READLR FLAG TO ENABLE LR READING.
000935: 33,2727           12540                           TCF      CONTSERV
000936:
000937:                                                                                                  #  Page 880
000938:                                                                                                  #  ***************************************************************
000939:
000940: 33,2730           41456        CALCGRAV           UNIT     PUSH                                  #  SAVE UNIT/R/ IN PUSHLIST      (18)
000941: 33,2731           03537                           STORE    UNIT/R/
000942: 33,2732           67340                           LXC,1    SLOAD                                 #  RTX2 = 0 IF EARTH ORBIT, =2 IF LUNAR.
000943: 33,2733           02777                                    RTX2
000944: 33,2734           03000                                    RTX2
000945: 33,2735           50076                           DCOMP    BMN
000946: 33,2736           66765                                    CALCGRV1
000947: 33,2737           50375                           VLOAD    DOT                                   #                                (12)
000948: 33,2740           06514                                    UNITZ
000949: 33,2741           03537                                    UNIT/R/
000950: 33,2742           41552                           SL1      PUSH                                  #                                (14)
000951: 33,2743           44316                           DSQ      BDSU
000952: 33,2744           27027                                    DP1/20
000953: 33,2745           56325                           PDDL     DDV
000954: 33,2746           26040                                    RESQ
000955: 33,2747           00043                                    34D                                   #  (RN)SQ
000956: 33,2750           00041                           STORE    32D                                   #  TEMP FOR (RE/RN)SQ
000957: 33,2751           41205                           DMP      DMP
000958: 33,2752           26042                                    20J
000959: 33,2753           65361                           VXSC     PDDL
000960: 33,2754           03537                                    UNIT/R/
000961: 33,2755           41205                           DMP      DMP
000962: 33,2756           26044                                    2J
000963: 33,2757           00041                                    32D
000964: 33,2760           76561                           VXSC     VSL1
000965: 33,2761           06514                                    UNITZ
000966: 33,2762           45455                           VAD      STADR
000967: 33,2763           74256                           STORE    UNITGOBL
000968: 33,2764           41455                           VAD      PUSH                                  #  MPAC = UNIT GRAVITY VECTOR.   (18)
000969: 33,2765           60345        CALCGRV1           DLOAD    NORM                                  #  PERFORM A NORMALIZATION ON RMAGSQ IN
000970: 33,2766           00043                                    34D                                   #  ORDER TO BE ABLE TO SCALE THE MU FOR
000971: 33,2767           00050                                    X2                                    #  MAXIMUM PRECISION.
000972: 33,2770           53663                           BDDV*    SLR*
000973: 33,2771           26032                                    -MUDT,1
000974: 33,2772           56623                                    0          -21D,2
000975: 33,2773           45561                           VXSC     STADR
000976: 33,2774           74214                           STORE    GDT1/2                                #  SCALED AT 2(+7) M/CS
000977: 33,2775           77616                           RVQ
000978:
000979: 33,2776           61375        CALCRVG            VLOAD    VXM
000980: 33,2777           00325                                    DELV
000981: 33,3000           01734                                    REFSMMAT
000982: 33,3001           76561                           VXSC     VSL1
000983: 33,3002           26022                                    KPIP1
000984: 33,3003           03527                           STORE    DELVREF
000985: 33,3004           41562                           VSR1     PUSH
000986: 33,3005           41455                           VAD      PUSH                                  #  (DV-OLDGDT)/2 TO PD SCALED AT 2(+7) M/CS.
000987:                                                                                                  #  Page 881
000988: 33,3006           01237                                    GDT/2
000989: 33,3007           65255                           VAD      PDDL
000990: 33,3010           01227                                    VN
000991: 33,3011           01250                                    PGUIDE
000992: 33,3012           74261                           SL       VXSC
000993: 33,3013           20207                                    6D
000994: 33,3014           44055                           VAD      STQ
000995: 33,3015           01221                                    RN
000996: 33,3016           00037                                    31D
000997: 33,3017           37545                           STCALL   RN1                                   #  TEMP STORAGE OF RN SCALED 2(+29) M
000998: 33,3020           66730                                    CALCGRAV
000999:
001000: 33,3021           53255                           VAD      VAD
001001: 33,3022           77655                           VAD
001002: 33,3023           01227                                    VN
001003: 33,3024           37553                           STCALL   VN1                                   #  TEMP STORAGE OF VN SCALED 2(+7) M/CS
001004: 33,3025           00037                                    31D
001005:
001006: 33,3026           01463 06315  DP1/20             2DEC     0.05
001007: 33,3030           00010 00000  SHIFT11            2DEC     1          B-11
001008:
001009:                                                                                                  #  Page 882
001010:                                                                                                  # *****************************************************************************
001011:                                                                                                  #  MUNRVG IS A SPECIAL AVERAGE G INTEGRATION ROUTINE USED BY THRUSTING
001012:                                                                                                  #  PROGRAMS WHICH FUNCTION IN THE VICINITY OF AN ASSUMED SPHERICAL MOON.
001013:                                                                                                  #  THE INPUT AND OUTPUT QUANTITIES ARE REFERENCED TO THE STABLE MEMBER
001014:                                                                                                  #  COORDINATE SYSTEM.
001015:
001016: 33,3032           41575        RVBOTH             VLOAD    PUSH
001017: 33,3033           02317                                    G(CSM)
001018: 33,3034           65255                           VAD      PDDL
001019: 33,3035           01726                                    V(CSM)
001020: 33,3036           01250                                    PGUIDE
001021: 33,3037           74271                           DDV      VXSC
001022: 33,3040           27031                                    SHIFT11
001023: 33,3041           77655                           VAD
001024: 33,3042           01720                                    R(CSM)
001025: 33,3043           37573                           STCALL   R1S
001026: 33,3044           67130                                    MUNGRAV
001027: 33,3045           53255                           VAD      VAD
001028: 33,3046           01726                                    V(CSM)
001029: 33,3047           77626                           STADR
001030: 33,3050           74176                           STORE    V1S
001031: 33,3051           77776                           EXIT
001032: 33,3052           03552                           TC       QUIKFAZ5
001033: 33,3053           06037                           TC       INTPRET
001034: 33,3054           77775                           VLOAD
001035: 33,3055           03563                                    GDT1/2
001036: 33,3056           26317                           STOVL    G(CSM)
001037: 33,3057           03573                                    R1S
001038: 33,3060           25720                           STOVL    R(CSM)
001039: 33,3061           03601                                    V1S
001040: 33,3062           01726                           STORE    V(CSM)
001041: 33,3063           77776                           EXIT
001042: 33,3064           03552                           TC       QUIKFAZ5
001043: 33,3065           06037                           TC       INTPRET
001044: 33,3066           74375        MUNRVG             VLOAD    VXSC
001045: 33,3067           00325                                    DELV
001046: 33,3070           26024                                    KPIP2
001047: 33,3071           53206                           PUSH     VAD                                   #  1ST PUSH:  DELV IN UNITS OF 2(8) M/CS
001048: 33,3072           01237                                    GDT/2
001049: 33,3073           53206                           PUSH     VAD                                   #  2ND PUSH:  (DELV + GDT)/2, UNITS OF 2(7)
001050: 33,3074           03527                                    V                                     #                                (12)
001051: 33,3075           56325                           PDDL     DDV
001052: 33,3076           01250                                    PGUIDE
001053: 33,3077           27031                                    SHIFT11
001054: 33,3100           77761                           VXSC
001055: 33,3101           77655                           VAD
001056: 33,3102           03521                                    R
001057: 33,3103           37573                           STCALL   R1S                                   #  STORE R SCALED AT 2(+24) M
001058: 33,3104           67130                                    MUNGRAV
001059:                                                                                                  #  Page 883
001060: 33,3105           53255                           VAD      VAD
001061: 33,3106           77655                           VAD
001062: 33,3107           03527                                    V
001063: 33,3110           03601                           STORE    V1S                                   #  STORE V SCALED AT 2(+7) M/CS.
001064: 33,3111           77646                           ABVAL
001065: 33,3112           27472                           STOVL    ABVEL                                 #  STORE SPEED FOR LR AND DISPLAYS.
001066: 33,3113           03537                                    UNIT/R/
001067: 33,3114           72441                           DOT      SL1
001068: 33,3115           03601                                    V1S
001069: 33,3116           27474                           STOVL    HDOTDISP                              #  HDOT = V. UNIT(R)*2(7) M/CS.
001070: 33,3117           03573                                    R1S
001071: 33,3120           72435                           VXV      VSL2
001072: 33,3121           02325                                    WM
001073: 33,3122           17734                           STODL    DELVS                                 #  LUNAR ROTATION CORRECTON TERM*2(5) M/CS.
001074: 33,3123           00045                                    36D
001075: 33,3124           77625                           DSU
001076: 33,3125           02333                                    /LAND/
001077: 33,3126           37535                           STCALL   HCALC                                 #  FOR NOW, DISPLAY WHETHER POS OR NEG
001078: 33,3127           66461                                    MUNRETRN
001079: 33,3130           77656        MUNGRAV            UNIT                                           #  AT 36D HAVE ABVAL(R), AT 34D R.R
001080: 33,3131           17537                           STODL    UNIT/R/
001081: 33,3132           00043                                    34D
001082: 33,3133           55261                           SL       BDDV
001083: 33,3134           20207                                    6D
001084: 33,3135           26036                                    -MUDTMUN
001085: 33,3136           74205                           DMP      VXSC
001086: 33,3137           27031                                    SHIFT11
001087: 33,3140           03537                                    UNIT/R/
001088: 33,3141           03563                           STORE    GDT1/2                                #  1/2GDT SCALED AT 2(7) M/CS.
001089: 33,3142           77616                           RVQ
001090:
001091: 33,3143           00303        1.95SECS           DEC      195        B-14
001092: 33,3144           00005 33212  7.5                2DEC     .02286     B-6                        #  7.5 FT/SEC AT 2(6) M/CS
001093:
001094: 33,3146           00014 20000  2SEC(18)           2DEC     200        B-18
001095:
001096: 33,3150           00000 00310  2SEC(28)           2OCT     0000000310                            #  2SEC AT 2(28)
001097:
001098: 33,3152           00000 00620  4SEC(28)           2DEC     400        B-28
001099:
001100: 33,3154           00110        BITS4-7            OCT      110
001101:
001102:
001103:                                                                                                  #  Page 884
001104: 33,3155           34742        UPDATCHK           CAF      NOLRRBIT                              #  SEE IF LR UPDATE INHIBITED.
001105: 33,3156           70107                           MASK     FLGWRD11
001106: 33,3157           10000                           CCS      A
001107: 33,3160           12540                           TCF      CONTSERV                              #  IT IS -- NO LR UPDATE
001108: 33,3161           34750                           CAF      RNGEDBIT                              #  NO INHIBIT -- SEE ALT MEAS. THIS CYCLE.
001109: 33,3162           70107                           MASK     FLGWRD11
001110: 33,3163           00006                           EXTEND
001111: 33,3164           13310                           BZF      VMEASCHK                              #  NO ALT MEAS THIS CYCLE -- CHECK FOR VEL
001112:
001113: 33,3165           30120        POSUPDAT           CA       FIXLOC                                #  SET PUSHLIST TO ZERO
001114: 33,3166           54166                           TS       PUSHLOC
001115:
001116: 33,3167           06037                           TC       INTPRET
001117: 33,3170           61375                           VLOAD    VXM
001118: 33,3171           02273                                    HBEAMNB
001119: 33,3172           02146                                    XNBPIP                                #  HBEAM SM AT 2(2)
001120: 33,3173           72515                           PDVL     VSL2                                  #  STORE HBEAM IN PD 0-5
001121: 33,3174           03601                                    V1S                                   #  SCALE V AT 2(5) M/CS
001122: 33,3175           50255                           VAD      DOT
001123: 33,3176           03734                                    DELVS                                 #  V RELATIVE TO SURFACE AT 2(5) M/CS
001124: 33,3177           00001                                    0D                                    #  V ALONG HBEAM AT 2(7) M/CS.
001125: 33,3200           77405                           DMP      EXIT
001126: 33,3201           01355                                    RADSKAL                               #  SCALE TO RADAR COUNTS X 5
001127:
001128: 33,3202           40110                           CS       FLGWRD12                              #  TEST LR ALTITUDE SCALE FACTOR
001129: 33,3203           74743                           MASK     ALTSCBIT
001130: 33,3204           00006                           EXTEND
001131: 33,3205           13210                           BZF      +3                                    #  BRANCH IF HIGH SCALE
001132:
001133: 33,3206           31356                           CA       SKALSKAL                              #  RESCALE IF LOW SCALE
001134: 33,3207           07307                           TC       SHORTMP
001135:
001136: 33,3210           06037                 +3        TC       INTPRET
001137: 33,3211           54215                           DAD      SL                                    #  CORRECT HMEAS FOR DOPPLER EFFECT
001138: 33,3212           03655                                    HMEAS
001139: 33,3213           20210                                    7D
001140: 33,3214           74205                           DMP      VXSC                                  #  SLANT RANGE AT 2(21), PUSH UP FOR HBEAM
001141: 33,3215           26011                                    HSCAL                                 #  SLANT RANGE VECTOR AT 2(23) M
001142: 33,3216           45241                           DOT      DSU
001143: 33,3217           03537                                    UNIT/R/                               #  ALTITUDE AT 2(24) M
001144: 33,3220           03535                                    HCALC                                 #  DELTA H AT 2(24) M
001145: 33,3221           03665                           STORE    DELTAH
001146: 33,3222           77776                           EXIT
001147:
001148: 33,3223           30107                           CA       FLGWRD11
001149: 33,3224           74741                           MASK     PSTHIBIT
001150: 33,3225           00006                           EXTEND                                         #  DO NOT PERFORM DATA REASONABLENESS TEST
001151: 33,3226           13243                           BZF      NOREASON                              #  UNTIL AFTER HIGATE
001152:                                                                                                  #  Page 885
001153: 33,3227           06037                           TC       INTPRET
001154: 33,3230           45246                           ABS      DSU
001155: 33,3231           02521                                    DELQFIX                               #  ABS(DELTAH) - DQFIX   50 FT NOM
001156: 33,3232           45252                           SL3      DSU                                   #  SCALE TO 2(21)
001157: 33,3233           03535                                    HCALC                                 #  ABS(DELTAH) - (50 + HCALC/8) AT 2(21)
001158: 33,3234           77776                           EXIT
001159:
001160: 33,3235           25670                           INCR     LRLCTR
001161: 33,3236           06723                           TC       BRANCH
001162: 33,3237           13560                           TCF      HFAIL                                 #  DELTA H TOO LARGE
001163: 33,3240           13560                           TCF      HFAIL                                 #  DELTA H TOO LARGE
001164: 33,3241           05516                           TC       DOWNFLAG                              #  TURN OFF ALT FAIL LAMP
001165: 33,3242           00263                           ADRES    HFLSHFLG
001166:
001167: 33,3243           40107        NOREASON           CS       FLGWRD11
001168: 33,3244           74744                           MASK     LRINHBIT
001169: 33,3245           10000                           CCS      A
001170: 33,3246           13310                           TCF      VMEASCHK                              #  UPDATE INHIBITED -- TEST VELOCITY ANYWAY
001171:
001172: 33,3247           06037                           TC       INTPRET                               #  DO POSITION UPDATE
001173: 33,3250           40545                           DLOAD    SR4
001174: 33,3251           03535                                    HCALC                                 #  RESCALE H TO 2(28)M
001175: 33,3252           77776                           EXIT
001176: 33,3253           00006                           EXTEND
001177: 33,3254           31665                           DCA      DELTAH                                #  STORE DELTAH IN MPAC AND
001178: 33,3255           52155                           DXCH     MPAC                                  #  BRING HCALC INTO A,L
001179: 33,3256           07544                           TC       ALSIGNAG
001180: 33,3257           00006                           EXTEND                                         #  IF HIGH PART OF HCALC IS NON-ZERO, THEN
001181: 33,3260           13262                           BZF      +2                                    #  HCALC > HMAX,
001182: 33,3261           13310                           TCF      VMEASCHK                              #  SO UPDATE IS BYPASSED
001183: 33,3262           54156                           TS       MPAC       +2                         #        FOR LATER SHORTMP
001184:
001185: 33,3263           40001                           CS       L                                     #  -H AT 2(14) M
001186: 33,3264           61420                           AD       LRHMAX                                #  HMAX - H
001187: 33,3265           00006                           EXTEND
001188: 33,3266           63310                           BZMF     VMEASCHK                              #  IF H >HMAX, BYPASS UPDATE
001189: 33,3267           00006                           EXTEND
001190: 33,3270           71421                           MP       LRWH                                  #  WH(HMAX - H)
001191: 33,3271           00006                           EXTEND
001192: 33,3272           11420                           DV       LRHMAX                                #  WH(1 - H/HMAX)
001193: 33,3273           54135                           TS       MPTEMP
001194: 33,3274           07313                           TC       SHORTMP2                              #  DELTAH (WH)(1 - H/HMAX) IN MPAC
001195: 33,3275           06037                           TC       INTPRET                               #  MODE IS DP FROM ABOVE
001196: 33,3276           77752                           SL1
001197: 33,3277           53361                           VXSC     VAD
001198: 33,3300           03537                                    UNIT/R/                               #  DELTAR = DH(WH)(1 - H/HMAX) UNIT/R/
001199: 33,3301           03573                                    R1S
001200: 33,3302           37657                           STCALL   GNUR
001201: 33,3303           67130                                    MUNGRAV
001202: 33,3304           77776                           EXIT
001203:                                                                                                  #  Page 886
001204: 33,3305           03552                           TC       QUIKFAZ5
001205:
001206: 33,3306           34755                           CA       ZERO
001207: 33,3307           03534        RUPDATED           TC       GNURVST
001208:
001209: 33,3310           03552        VMEASCHK           TC       QUIKFAZ5                              #  RESTART AT NEXT LOCATION
001210: 33,3311           40107                           CS       FLGWRD11
001211: 33,3312           74745                           MASK     VELDABIT                              #  IS V READING AVAILABLE?
001212: 33,3313           10000                           CCS      A
001213: 33,3314           13514                           TCF      VALTCHK                               #  NO:  SEE IF V READING TO BE TAKEN
001214:
001215: 33,3315           41651        VELUPDAT           CS       VSELECT                               #  PROCESS VELOCITY DATA
001216: 33,3316           54001                           TS       L
001217: 33,3317           26001                           ADS      L                                     #  -2 VSELECT IN L
001218: 33,3320           60001                           AD       L
001219: 33,3321           60001                           AD       L                                     #  -6 VSELECT IN A
001220: 33,3322           50120                           INDEX    FIXLOC
001221: 33,3323           52047                           DXCH     X1                                    #  X1 = -6 VSELECT, X2 = -2 VSELECT
001222:
001223: 33,3324           34741                           CA       EBANK4
001224: 33,3325           54003                           TS       EBANK
001225: 33,3326  E4,1654                                  EBANK=   LRXCDU
001226:
001227: 33,3326           31655                           CA       LRYCDU                                #  STORE LRCDUS IN CDUSPOTS
001228: 33,3327           54766                           TS       CDUSPOT
001229: 33,3330           31656                           CA       LRZCDU
001230: 33,3331           54770                           TS       CDUSPOT    +2
001231: 33,3332           31654                           CA       LRXCDU
001232: 33,3333           54772                           TS       CDUSPOT    +4
001233:
001234: 33,3334           04616                           TC       BANKCALL
001235: 33,3335           47615                           CADR     QUICTRIG                              #  GET SINES AND COSINES FOR NBSM
001236:
001237: 33,3336           30120                           CA       FIXLOC
001238: 33,3337           54166                           TS       PUSHLOC                               #  SET PD TO ZERO
001239:
001240: 33,3340           06037                           TC       INTPRET
001241: 33,3341           45173                           VLOAD*   CALL
001242: 33,3342           02231                                    VZBEAMNB,1                            #  CONVERT VBEAM FROM NB TO SM
001243: 33,3343           47673                                    *NBSM*
001244: 33,3344           54325                           PDDL     SL                                    #  STORE IN PD 0-5
001245: 33,3345           03653                                    VMEAS                                 #  LOAD VELOCITY MEASUREMENT
001246: 33,3346           20215                                    12D
001247: 33,3347           41403                           DMP*     PUSH                                  #  SCALE TO M/CS AT 2(6)
001248: 33,3350           51764                                    VZSCAL,2                              #  AND STORE IN PD 6-7
001249: 33,3351           77776                           EXIT
001250: 33,3352           44753                           CS       ONE
001251: 33,3353           54163                           TS       MODE                                  #  CHANGE STORE MODE TO VECTOR
001252:
001253: 33,3354           31657                           CA       PIPTEM                                #  STORE DELV IN MPAC
001254:                                                                                                  #  Page 887
001255: 33,3355           22007                           ZL
001256: 33,3356           52155                           DXCH     MPAC
001257:
001258: 33,3357           31660                           CA       PIPTEM     +1
001259: 33,3360           22007                           ZL
001260: 33,3361           52160                           DXCH     MPAC       +3
001261:
001262: 33,3362           31661                           CA       PIPTEM     +2
001263: 33,3363           22007                           ZL
001264: 33,3364           52162                           DXCH     MPAC       +5
001265:
001266: 33,3365           35016                           CA       EBANK7
001267: 33,3366           54003                           TS       EBANK                                 #  RESTORE EBANK 7
001268: 33,3367  E7,1515                                  EBANK=   DVCNTR
001269: 33,3367           06037                           TC       INTPRET
001270: 33,3370           65361                           VXSC     PDDL
001271: 33,3371           26022                                    KPIP1                                 #  SCALE DELV TO 2(7) M/CS AND PUSH
001272: 33,3372           02253                                    LRVTIME                               #  TIME OF DELV AT 2(28) CS
001273: 33,3373           56225                           DSU      DDV
001274: 33,3374           01235                                    PIPTIME                               #  TU - T(N-1)
001275: 33,3375           27151                                    2SEC(28)
001276: 33,3376           76561                           VXSC     VSL1                                  #  G(N-1)(TU - T(N-1))
001277: 33,3377           01237                                    GDT/2                                 #  SCALED AT 2(7) M/CS
001278: 33,3400           53255                           VAD      VAD                                   #  PUSH UP FOR DELV
001279: 33,3401           03527                                    V                                     #  VU = V(N-1) + DELVU + G(N-1) DTU
001280: 33,3402           53352                           VSL2     VAD                                   #  SCALE TO 2(5) M/CS AND SUBTRACT
001281: 33,3403           03734                                    DELVS                                 #        MOON ROTATION.
001282: 33,3404           51406                           PUSH     ABVAL                                 #  STORE IN PD
001283: 33,3405           43202                           SR4      DAD                                   #  ABS(VM)/8 + 7.5 AT 2(6)
001284: 33,3406           27145                                    7.5
001285: 33,3407           24025                           STOVL    20D                                   #  STORE IN 20D AND PICK UP VM
001286: 33,3410           44241                           DOT      BDSU                                  #  V(EST) AT 2(6)
001287: 33,3411           00001                                    0                                     #  DELTAV = VMEAS - V(EST)
001288: 33,3412           51406                           PUSH     ABS
001289: 33,3413           77425                           DSU      EXIT                                  #  ABS(DV) - (7.5 + ABS(VM)/8))
001290: 33,3414           00025                                    20D
001291:
001292: 33,3415           25672                           INCR     LRMCTR
001293: 33,3416           06723                           TC       BRANCH
001294: 33,3417           13575                           TCF      VFAIL                                 #  DELTA V TOO LARGE.    ALARM
001295: 33,3420           13575                           TCF      VFAIL                                 #  DELTA V TOO LARGE.    ALARM
001296:
001297: 33,3421           05516                           TC       DOWNFLAG                              #  TURN OFF VEL FAIL LAMP
001298: 33,3422           00262                           ADRES    VFLSHFLG
001299:
001300: 33,3423           30107                           CA       FLGWRD11
001301: 33,3424           74740                           MASK     VXINHBIT
001302: 33,3425           00006                           EXTEND
001303: 33,3426           13435                           BZF      VUPDAT                                #  IF VX INHIBIT RESET, INCORPORATE DATA.
001304:                                                                                                  #  Page 888
001305: 33,3427           05516                           TC       DOWNFLAG
001306: 33,3430           00250                           ADRES    VXINH                                 #  RESET VX INHIBIT
001307:
001308: 33,3431           31651                           CA       VSELECT
001309: 33,3432           67746                           AD       NEG2                                  #  IF VSELECT = 2 (X AXIS).
001310: 33,3433           00006                           EXTEND                                         #  BYPASS UPDATE
001311: 33,3434           13514                           BZF      ENDVDAT
001312:
001313: 33,3435           40107        VUPDAT             CS       FLGWRD11
001314: 33,3436           74744                           MASK     LRINHBIT
001315: 33,3437           10000                           CCS      A
001316: 33,3440           13514                           TCF      VALTCHK                               #  UPDATE INHIBITED
001317:
001318: 33,3441           54155                           TS       MPAC       +1
001319:
001320: 33,3442           31471                           CA       ABVEL                                 #  STORE E7 ERASABLES NEEDED IN TEMPS
001321: 33,3443           54130                           TS       ABVEL*
001322: 33,3444           31651                           CA       VSELECT
001323: 33,3445           54131                           TS       VSELECT*
001324: 33,3446           35014                           CA       EBANK5
001325: 33,3447           54003                           TS       EBANK                                 #  CHANGE EBANKS
001326:
001327: 33,3450  E5,1527                                  EBANK=   LRVF
001328: 33,3450           41527                           CS       LRVF
001329: 33,3451           60130                           AD       ABVEL*                                #  IF V < VF, USE WVF
001330: 33,3452           00006                           EXTEND
001331: 33,3453           63466                           BZMF     USEVF
001332:
001333: 33,3454           40130                           CS       ABVEL*
001334: 33,3455           61526                           AD       LRVMAX                                #  VMAX - V
001335: 33,3456           00006                           EXTEND
001336: 33,3457           63471                           BZMF     WSTOR      -1                         #  IF V > VMAX, W = 0
001337:
001338: 33,3460           00006                           EXTEND
001339: 33,3461           50131                           INDEX    VSELECT*
001340: 33,3462           71530                           MP       LRWVZ                                 #  WV(VMAX - V)
001341:
001342: 33,3463           00006                           EXTEND
001343: 33,3464           11526                           DV       LRVMAX                                #  WV( 1 - V/VMAX )
001344: 33,3465           13472                           TCF      WSTOR
001345:
001346: 33,3466           50131        USEVF              INDEX    VSELECT*
001347: 33,3467           31533                           CA       LRWVFZ                                #  USE APPROPRIATE CONSTANT WEIGHT
001348: 33,3470           13472                           TCF      WSTOR
001349:
001350: 33,3471           34755                 -1        CA       ZERO
001351: 33,3472           54154        WSTOR              TS       MPAC
001352: 33,3473           44745                           CS       BIT7                                  #  (=64D)
001353: 33,3474           61011                           AD       MODREG
001354: 33,3475           00006                           EXTEND
001355:                                                                                                  #  Page 889
001356: 33,3476           63501                           BZMF     +3                                    #  IF IN P65,P66,P67, USE ANOTHER CONSTANT
001357:
001358: 33,3477           31536                           CA       LRWVFF
001359: 33,3500           54154                           TS       MPAC
001360:
001361: 33,3501           35016                 +3        CA       EBANK7
001362: 33,3502           54003                           TS       EBANK                                 #  CHANGE EBANKS
001363:
001364: 33,3503  E7,1471                                  EBANK=   ABVEL
001365: 33,3503           06037                           TC       INTPRET
001366: 33,3504           74205                           DMP      VXSC                                  #  W(DELTA V)(VBEAMSM) UP 6-7, 0-5
001367: 33,3505           77655                           VAD
001368: 33,3506           03601                                    V1S                                   #  ADD WEIGHTED DELTA V TO VELOCITY
001369: 33,3507           03657                           STORE    GNUV
001370: 33,3510           77776                           EXIT
001371:
001372: 33,3511           03552                           TC       QUIKFAZ5                              #  DO NOT RE-UPDATE
001373:
001374: 33,3512           36242                           CA       SIX
001375: 33,3513           03534        VUPDATED           TC       GNURVST                               #  STORE NEW VELOCITY VECTOR
001376: 33,3514  33,3514               ENDVDAT            =        VALTCHK
001377:
001378: 33,3514           03552        VALTCHK            TC       QUIKFAZ5                              #  DO NOT REPEAT ABOVE
001379:
001380: 33,3515           34747                           CAF      READVBIT                              #  TEST READVEL TO SEE IF VELOCITY READING
001381: 33,3516           70107                           MASK     FLGWRD11                              #  IS DESIRED.
001382: 33,3517           10000                           CCS      A
001383: 33,3520           13527                           TCF      READV                                 #  YES -- READ VELOCITY
001384: 33,3521           41471                           CS       ABVEL                                 #  NO -- SEE IF VELOCITY < 2000 FT/SEC
001385: 33,3522           62707                           AD       2KFT/SEC
001386: 33,3523           00006                           EXTEND
001387: 33,3524           62540                           BZMF     CONTSERV                              #  V > 2000 FT/SEC  DO NOT READ VEL
001388:
001389: 33,3525           05504                           TC       UPFLAG                                #  V < 2000 FT/SEC  SET READVEL AND READ.
001390: 33,3526           00257                           ADRES    READVEL
001391:
001392: 33,3527           37720        READV              CAF      PRIO32                                #  SET UP JOB TO READ VELOCITY BEAMS.
001393: 33,3530           05072                           TC       NOVAC
001394: 33,3531  E7,1654                                  EBANK=   HMEAS
001395: 33,3531           03616 66067                     2CADR    LRVJOB
001396:
001397: 33,3533           12540                           TCF      CONTSERV                              #  CONTINUE WITH SERVICER
001398:
001399: 33,3534           54130        GNURVST            TS       BUF                                   #  STORE GNUR (=GNUV) IN R1S OR V1S
001400: 33,3535           00006                           EXTEND                                         #  A = 0 FOR R, A = 6 FOR V
001401: 33,3536           31657                           DCA      GNUR
001402: 33,3537           50130                           INDEX    BUF
001403: 33,3540           53573                           DXCH     R1S
001404: 33,3541           00006                           EXTEND
001405:                                                                                                  #  Page 890
001406: 33,3542           31661                           DCA      GNUR       +2
001407: 33,3543           50130                           INDEX    BUF
001408: 33,3544           53575                           DXCH     R1S        +2
001409: 33,3545           00006                           EXTEND
001410: 33,3546           31663                           DCA      GNUR       +4
001411: 33,3547           50130                           INDEX    BUF
001412: 33,3550           53577                           DXCH     R1S        +4
001413: 33,3551           00002                           TC       Q
001414:
001415: 33,3552           35007        QUIKFAZ5           CA       EBANK3
001416: 33,3553           56003                           XCH      EBANK                                 #  SET EBANK 3
001417: 33,3554           52002                           DXCH     L                                     #  Q TO A, A TO L
001418: 33,3555  E3,1446                                  EBANK=   PHSNAME5
001419: 33,3555           55446                           TS       PHSNAME5
001420: 33,3556           22003                           LXCH     EBANK
001421: 33,3557  E7,1515                                  EBANK=   DVCNTR
001422: 33,3557           00000                           TC       A
001423:
001424: 33,3560           41671        HFAIL              CS       LRRCTR
001425: 33,3561           00006                           EXTEND
001426: 33,3562           13572                           BZF      NORLITE                               #  IF R = 0, DO NOT TURN ON TRK FAIL
001427: 33,3563           61670                           AD       LRLCTR
001428: 33,3564           77745                           MASK     NEG3
001429: 33,3565           00006                           EXTEND                                         #  IF L-R LT 4, DO NOT TURN ON TRK FAIL
001430: 33,3566           13570                           BZF      +2
001431: 33,3567           13572                           TCF      NORLITE
001432:
001433: 33,3570           05504                           TC       UPFLAG                                #  AND SET BIT TO TURN ON TRACKER FAIL LITE
001434: 33,3571           00263                           ADRES    HFLSHFLG
001435:
001436: 33,3572           31670        NORLITE            CA       LRLCTR
001437: 33,3573           55671                           TS       LRRCTR                                #  SET R = L
001438:
001439: 33,3574           13310                           TCF      VMEASCHK
001440:
001441: 33,3575           41673        VFAIL              CS       LRSCTR                                #  DELTA Q LARGE
001442: 33,3576           00006                           EXTEND                                         #  IF S = 0, DO NOT TURN ON TRACKER FAIL
001443: 33,3577           13607                           BZF      NOLITE
001444: 33,3600           61672                           AD       LRMCTR                                #  M-S
001445: 33,3601           77745                           MASK     NEG3                                  #  TEST FOR M-S > 3
001446: 33,3602           00006                           EXTEND                                         #  IF M-S > 3, THEN TWO OR MORE OF THE
001447: 33,3603           13605                           BZF      +2                                    #        LAST FOUR V READINGS WERE BAD,
001448: 33,3604           13607                           TCF      NOLITE                                #        SO TURN ON VELOCITY FAIL LIGHT
001449:
001450: 33,3605           05504                           TC       UPFLAG                                #  AND SET BIT TO TURN ON TRACKER FAIL LITE
001451: 33,3606           00262                           ADRES    VFLSHFLG
001452:
001453:                                                                                                  #  Page 891
001454: 33,3607           31672        NOLITE             CA       LRMCTR                                #  SET S = M
001455: 33,3610           55673                           TS       LRSCTR
001456:
001457: 33,3611           11651                           CCS      VSELECT                               #  TEST FOR Z COMPONENT
001458: 33,3612           13514                           TCF      ENDVDAT                               #  NOT Z, DO NOT SET VX INHIBIT
001459:
001460: 33,3613           05504                           TC       UPFLAG                                #  Z COMPONENT - SET FLAG TO SKIP X
001461: 33,3614           00250                           ADRES    VXINH                                 #  COMPONENT, AS ERROR MAY BE DUE TO CROSS
001462: 33,3615           13514                           TCF      ENDVDAT                               #  LOBE LOCK UP NOT DETECTED ON X AXIS.
001463:
001464:                                                                                                  #  Page 892
001465:                                                                                                  #  ********************************************************************************
001466:                                                                                                  #  LRVJOB IS SET WHEN THE LEM IS BELOW 15000 FT DURING THE LANDING PHASE
001467:                                                                                                  #  THIS JOB INITIALIZES THE LANDING RADAR READ ROUTINE FOR 5 VELOCITY
001468:                                                                                                  #  SAMPLES AND GOES TO SLEEP WHILE THE SAMPLING IS DONE -- ABOUT 500 MS.
001469:                                                                                                  #  WITH A GOODEND RETURN THE DATA IS STORED IN VMEAS AND BIT7 OF LRSTAT
001470:                                                                                                  #  IS SET.  THE GIMBAL ANGLES ARE READ ABOUT MIDWAY IN THE SAMPLINGS.
001471:
001472: 33,3616     4361               170MS              EQUALS   ND1
001473:
001474: 33,3616           34361        LRVJOB             CA       170MS                                 #  SET TASK TO READ CDUS + PIPAS
001475: 33,3617           05203                           TC       WAITLIST
001476: 33,3620  E4,1652                                  EBANK=   LRVTIME
001477: 33,3620           03757 70064                     2CADR    RDGIMS
001478:
001479: 33,3622           11651                           CCS      VSELECT                               #  SEQUENCE LR VEL BEAM SELECTOR
001480: 33,3623           13625                           TCF      +2
001481: 33,3624           34752                           CAF      TWO                                   #  IF ZERO, RESET TO TWO
001482: 33,3625           60000                           DOUBLE                                         #  2XVSELECT USED FOR VBEAM INDEX IN LRVEL
001483: 33,3626           04616                           TC       BANKCALL                              #  GO INITIALIZE LR VEL READ ROUTINE
001484: 33,3627           53107                           CADR     LRVEL
001485: 33,3630           04616                           TC       BANKCALL                              #  PUT LRVJOB TO SLEEP ABOUT 500 MS
001486: 33,3631           17714                           CADR     RADSTALL
001487: 33,3632           13665                           TCF      VBAD
001488: 33,3633           11675                           CCS      STILBADV                              #  IS DATA GOOD JUST PRESENT?
001489: 33,3634           13666                           TCF      VSTILBAD                              #  JUST GOOD -- MUST WAIT 4 SECONDS.
001490:
001491: 33,3635           00004                           INHINT
001492: 33,3636           00006                           EXTEND                                         #  GOOD RETURN -- STOW AWAY VMEAS
001493: 33,3637           31102                           DCA      SAMPLSUM
001494: 33,3640           53653                           DXCH     VMEAS
001495: 33,3641           34741                           CA       EBANK4                                #  FOR DOWNLINK
001496: 33,3642           54003                           TS       EBANK
001497: 33,3643  E4,1652                                  EBANK=   LRVTIME
001498:
001499: 33,3643           00006                           EXTEND
001500: 33,3644           31653                           DCA      LRVTIME
001501: 33,3645           53740                           DXCH     LRVTIMDL
001502: 33,3646           00006                           EXTEND
001503: 33,3647           31655                           DCA      LRXCDU
001504: 33,3650           53735                           DXCH     LRXCDUDL
001505: 33,3651           31656                           CA       LRZCDU
001506: 33,3652           55736                           TS       LRZCDUDL
001507: 33,3653           35016                           CA       EBANK7
001508: 33,3654           54003                           TS       EBANK
001509: 33,3655  E7,1651                                  EBANK=   VSELECT
001510:
001511: 33,3655           40107                           CS       FLGWRD11                              #  SET BIT TO INDICATE VELOCITY
001512: 33,3656           74745                           MASK     VELDABIT                              #  MEASUREMENT MADE
001513:                                                                                                  #  Page 893
001514: 33,3657           26107                           ADS      FLGWRD11
001515: 33,3660           11651        ENDLRV             CCS      VSELECT                               #  UPDATE VSELECT
001516: 33,3661           13663                           TCF      +2
001517: 33,3662           34752                           CA       TWO
001518: 33,3663           55651                           TS       VSELECT
001519: 33,3664           15155                           TCF      ENDOFJOB
001520:
001521: 33,3665           34752        VBAD               CAF      TWO                                   #  SET STILBAD TO WAIT 4 SECONDS
001522: 33,3666           55675        VSTILBAD           TS       STILBADV
001523: 33,3667           13660                           TCF      ENDLRV
001524:
001525:                                                                                                  #  LRHJOB IS SET BY LRHTASK WHEN LEM IS BELOW 25000 FT.  THIS JOB
001526:                                                                                                  #  INITIALIZES THE LR READ ROUTINE FOR AN ALT MEASUREMENT AND GOES TO
001527:                                                                                                  #  SLEEP WHILE THE SAMPLING IS DONE -- ABOUT 95 MS.  WITH A GOODEND RETURN
001528:                                                                                                  #  THE ALT DATA IS STORED IN HMEAS AND BIT7 OF LRSTAT IS SET.
001529:
001530: 34,3716                                           BANK     34
001531: 34,2000                                           SETLOC   R12STUFF
001532: 34,2000                                           BANK
001533:
001534: 34,3716                                           COUNT*   $$/SERV
001535:
001536: 34,3716           04616        LRHJOB             TC       BANKCALL                              #  INITIATE LR ALT MEASUREMENT
001537: 34,3717           53073                           CADR     LRALT
001538: 34,3720           04616                           TC       BANKCALL                              #  LRHJOB TO SLEEP ABOUT 95MS
001539: 34,3721           17714                           CADR     RADSTALL
001540: 34,3722           13745                           TCF      HBAD
001541: 34,3723           11674                           CCS      STILBADH                              #  IS DATA GOOD JUST PRESENT?
001542: 34,3724           13755                           TCF      HSTILBAD                              #  JUST GOOD -- MUST WAIT 4 SECONDS.
001543:
001544: 34,3725           00004                           INHINT
001545: 34,3726           00006                           EXTEND
001546: 34,3727           31102                           DCA      SAMPLSUM                              #  GOOD RETURN -- STORE AWAY LRH DATA
001547: 34,3730           53655                           DXCH     HMEAS                                 #  LRH DATA 1.079 FT/BIT
001548: 34,3731           00006                           EXTEND                                         #  FOR DOWNLINK
001549: 34,3732           31561                           DCA      PIPTIME1
001550: 34,3733           53755                           DXCH     MKTIME
001551:
001552: 34,3734           00006                           EXTEND
001553: 34,3735           31157                           DCA      CDUTEMPY                              #  CDUY,Z = AIG,AMG
001554: 34,3736           53460                           DXCH     AIG
001555:
001556: 34,3737           31155                           CA       CDUTEMPX                              #  CDUX = AOG
001557: 34,3740           55461                           TS       AOG
001558:
001559: 34,3741           40107                           CS       FLGWRD11                              #  SET BIT TO INDICATE RANGE
001560: 34,3742           74750                           MASK     RNGEDBIT                              #  MEASUREMENT MADE.
001561: 34,3743           26107                           ADS      FLGWRD11
001562: 34,3744           05155        ENDLRH             TC       ENDOFJOB                              #  TERMATE LRHJOB
001563:
001564:                                                                                                  #  Page 894
001565: 34,3745           30101        HBAD               CA       FLAGWRD5
001566: 34,3746           74742                           MASK     RNGSCBIT                              #  IS BAD RETURN DUE TO SCALE CHANGE?
001567: 34,3747           00006                           EXTEND
001568: 34,3750           13754                           BZF      HSTILBAD   -1                         #  NO  RESET HSTILBAD
001569: 34,3751           05516                           TC       DOWNFLAG                              #  YES  RESET SCALE CHANGE BIT AND IGNORE
001570: 34,3752           00120                           ADRES    RNGSCFLG
001571: 34,3753           05155                           TC       ENDOFJOB
001572:
001573: 34,3754           34752                           CAF      TWO                                   #  SET STILBAD TO WAIT 4 SECONDS
001574: 34,3755           55674        HSTILBAD           TS       STILBADH
001575: 34,3756           05155                           TC       ENDOFJOB
001576:
001577: 34,3757                                           BANK     34
001578: 34,2000                                           SETLOC   SERV4
001579: 34,2000                                           BANK
001580:
001581: 34,3757                                           COUNT*   $$/SERV
001582:
001583:                                                                                                  #  RDGIMS IS A TASK SET UP BY LRVJOB TO PICK UP THE IMU CDUS AND TIME
001584:                                                                                                  #  AT ABOUT THE MIDPOINT OF THE LR VEL READ ROUTINE WHEN 5 VEL SAMPLES
001585:                                                                                                  #  ARE SPECIFIED.
001586:
001587: 34,3757  E4,1652                                  EBANK=   LRVTIME
001588: 34,3757           00006        RDGIMS             EXTEND
001589: 34,3760           30025                           DCA      TIME2                                 #  PICK UP TIME2, TIME1
001590: 34,3761           53653                           DXCH     LRVTIME                               #        AND SAVE IN LRVTIME
001591:
001592: 34,3762           00006                           EXTEND
001593: 34,3763           30033                           DCA      CDUX                                  #  PICK UP CDUX AND CDUY
001594: 34,3764           53655                           DXCH     LRXCDU                                #        AND SAVE IN LRXCDU AND LRYCDU
001595:
001596: 34,3765           30034                           CA       CDUZ
001597: 34,3766           55656                           TS       LRZCDU                                #  SAVE CDUZ IN LRZCDU
001598:
001599: 34,3767           30037                           CA       PIPAX
001600: 34,3770           55657                           TS       PIPTEM                                #  SAVE PIPAX IN PIPTEM
001601:
001602: 34,3771           00006                           EXTEND
001603: 34,3772           30041                           DCA      PIPAY                                 #  PICK UP PIPAY AND PIPAZ
001604: 34,3773           53661                           DXCH     PIPTEM     +1                         #        AND SAVE IN PIPTEM +1 AND PIPTEM +2
001605: 34,3774           05261                           TC       TASKOVER
001606:
001607: 33,3670                                           BANK     33
001608: 33,2000                                           SETLOC   SERVICES
001609: 33,2000                                           BANK
001610:
001611: 33,3670                                           COUNT*   $$/SERV
001612:
001613: 33,3670  E7,1515                                  EBANK=   DVCNTR
001614:                                                                                                  #  Page 895
001615:                                                                                                  #  HIGATJOB IS SET APPROXIMATELY 6 SECONDS PRIOR TO HIGH GATE DURING
001616:                                                                                                  #  THE DESCENT BURN PHASE OF LUNAR LANDING.  THIS JOB INITIATES THE
001617:                                                                                                  #  LANDING RADAR REPOSITIONING ROUTINE AND GOES TO SLEEP UNTIL THE
001618:                                                                                                  #  LR ANTENNA MOVES FROM POSITION 1 TO POSITION 2.  IF THE LR ANTENNA
001619:                                                                                                  #  ACHIEVES POSITION 2 WITHIN 22 SECONDS THE ALTITUDE AND VELOCITY
001620:                                                                                                  #  BEAM VECTORS ARE RECOMPUTED TO REFLECT THE NEW ORIENTATION WITH
001621:                                                                                                  #  RESPECT TO THE NB.  BIT10 OF LRSTAT IS CLEARED TO ALLOW LR
001622:                                                                                                  #  MEASUREMENTS AND THE JOB TERMINATES.
001623:
001624: 33,3670           04616        HIGATJOB           TC       BANKCALL                              #  START LRPOS2 JOB
001625: 33,3671           53471                           CADR     LRPOS2
001626: 33,3672           04616                           TC       BANKCALL                              #  PUT HIGATJOB TO SLEEP UNTIL JOB IS DONE
001627: 33,3673           17714                           CADR     RADSTALL
001628: 33,3674           13703                           TCF      POSALARM                              #  BAD END    ALARM
001629:
001630: 33,3675           37711        POSGOOD            CA       PRIO23                                #  REDUCE PRIORITY FOR INTERPRETIVE COMPS.
001631: 33,3676           05146                           TC       PRIOCHNG
001632:
001633: 33,3677           03737                           TC       SETPOS2                               #  LR IN POS2 -- SET UP TRANSFORMATIONS
001634:
001635: 33,3700           05516                           TC       DOWNFLAG
001636: 33,3701           00252                           ADRES    NOLRREAD                              #  RESET NOLRREAD FLAG TO ENABLE LR READING
001637: 33,3702           05155                           TC       ENDOFJOB
001638:
001639: 33,3703           33720        POSALARM           CA       OCT523
001640: 33,3704           04616                           TC       BANKCALL
001641: 33,3705           21562                           CADR     PRIOLARM                              #  FLASH ALARM CODE
001642: 33,3706           16001                           TCF      GOTOP00H                              #  TERMINATE
001643: 33,3707           13712                           TCF      +3                                    #  PROCEED -- TRY AGAIN
001644: 33,3710           15155                           TCF      ENDOFJOB                              #  V 32 E    TERMINATE R12
001645: 33,3711           05155                           TC       ENDOFJOB
001646:
001647: 33,3712           34745                 +3        CA       BIT7                                  #  SEE IF IN POS2 YET
001648: 33,3713           00006                           EXTEND
001649: 33,3714           02033                           RAND     CHAN33
001650: 33,3715           00006                           EXTEND
001651: 33,3716           13675                           BZF      POSGOOD                               #  POS2 ACHIEVED   SET UP ANTENNA BEAMS
001652: 33,3717           13703                           TCF      POSALARM                              #  STILL DIDN'T MAKE IT   REALARM
001653:
001654: 33,3720           00523        OCT523             OCT      00523
001655:
001656:
001657:
001658: 33,3721           04645        SETPOS1            TC       MAKECADR                              #  MUST BE CALLED BY BANKCALL
001659: 33,3722           55656                           TS       LRADRET1                              #  SAVE RETURN CADR.  SINCE BUP2 CLOBBERED
001660:
001661: 33,3723           34752                           CAF      TWO
001662: 33,3724           55674                           TS       STILBADH                              #  INITIALIZE STILBAD
001663: 33,3725           55675                           TS       STILBADV                              #  INITIALIZE STILBAD
001664:
001665: 33,3726           34755                           CA       ZERO                                  #  INDEX FOR LRALPHA, LRBETA IN POS 1.
001666:                                                                                                  #  Page 896
001667: 33,3727           55670                           TS       LRLCTR                                #  SET L,M,R, ANS S TO ZERO
001668: 33,3730           55672                           TS       LRMCTR
001669: 33,3731           55671                           TS       LRRCTR
001670: 33,3732           55673                           TS       LRSCTR
001671: 33,3733           55651                           TS       VSELECT                               #  INITIALIZE VSELECT
001672:
001673: 33,3734           03740                           TC       SETPOS                                #  CONTINUE WITH COMPUTATIONS.
001674:
001675: 33,3735           31656                           CA       LRADRET1
001676: 33,3736           04640                           TC       BANKJUMP                              #  RETURN TO CALLER
001677:
001678: 33,3737           34752        SETPOS2            CA       TWO                                   #  INDEX FOR POS2
001679: 33,3740           56002        SETPOS             XCH      Q                                     #  SAVE INDEX IN Q
001680: 33,3741           55650                           TS       LRADRET                               #  SAVE RETURN
001681:
001682: 33,3742           35014                           CA       EBANK5
001683: 33,3743           54003                           TS       EBANK
001684: 33,3744  E5,1522                                  EBANK=   LRALPHA
001685:
001686: 33,3744           00006                           EXTEND
001687: 33,3745           50002                           INDEX    Q
001688: 33,3746           31523                           DCA      LRALPHA                               #  LRALPHA IN A, LRBETA IN L
001689: 33,3747           54772                           TS       CDUSPOT    +4                         #  ROTATION ABOUT X
001690: 33,3750           22766                           LXCH     CDUSPOT                               #  ROTATION ABOUT Y
001691: 33,3751           34755                           CA       ZERO
001692: 33,3752           54770                           TS       CDUSPOT    +2                         #  ZERO ROTATION ABOUT Z.
001693:
001694: 33,3753           35016                           CA       EBANK7
001695: 33,3754           54003                           TS       EBANK
001696: 33,3755  E7,1650                                  EBANK=   LRADRET
001697:
001698: 33,3755           06037                           TC       INTPRET
001699: 33,3756           45175                           VLOAD    CALL
001700: 33,3757           06516                                    UNITY                                 #  CONVERT UNITY(ANTENNA) TO NB
001701: 33,3760           47651                                    TRG*SMNB
001702: 33,3761           26237                           STOVL    VYBEAMNB
001703: 33,3762           06520                                    UNITX                                 #  CONVERT UNITX(ANTENNA) TO NB
001704: 33,3763           77624                           CALL
001705: 33,3764           47671                                    *SMNB*
001706: 33,3765           02245                           STORE    VXBEAMNB
001707: 33,3766           76435                           VXV      VSL1
001708: 33,3767           02237                                    VYBEAMNB
001709: 33,3770           26231                           STOVL    VZBEAMNB                              #  Z = X * Y
001710: 33,3771           26003                                    HBEAMANT
001711: 33,3772           77624                           CALL
001712: 33,3773           47671                                    *SMNB*                                #  CONVERT TO NB
001713: 33,3774           02273                           STORE    HBEAMNB
001714: 33,3775           77776                           EXIT
001715:
001716:                                                                                                  #  Page 897
001717: 33,3776           01650                           TC       LRADRET
001718:

End of include-file SERVICER.agc.  Parent file is MAIN.agc


