
Source Code
000001:                                                                                                 #  Copyright:     Public domain.
000002:                                                                                                 #  Filename:      SINGLE_PRECISION_SUBROUTINES.agc
000003:                                                                                                 #  Purpose:       Part of the source code for Luminary 1A build 099.
000004:                                                                                                 #                 It is part of the source code for the Lunar Module's (LM)
000005:                                                                                                 #                 Apollo Guidance Computer (AGC), for Apollo 11.
000006:                                                                                                 #  Assembler:     yaYUL
000007:                                                                                                 #  Contact:       Ron Burkey <info@sandroid.org>.
000008:                                                                                                 #  Website:       www.ibiblio.org/apollo.
000009:                                                                                                 #  Page:          1102
000010:                                                                                                 #  Mod history:   2009-05-25 RSB  Adapted from the corresponding
000011:                                                                                                 #                                 Luminary131 file, using page
000012:                                                                                                 #                                 images from Luminary 1A.
000013:
000014:                                                                                                 #  This source code has been transcribed or otherwise adapted from
000015:                                                                                                 #  digitized images of a hardcopy from the MIT Museum.  The digitization
000016:                                                                                                 #  was performed by Paul Fjeld, and arranged for by Deborah Douglas of
000017:                                                                                                 #  the Museum.  Many thanks to both.  The images (with suitable reduction
000018:                                                                                                 #  in storage size and consequent reduction in image quality as well) are
000019:                                                                                                 #  available online at www.ibiblio.org/apollo.  If for some reason you
000020:                                                                                                 #  find that the images are illegible, contact me at info@sandroid.org
000021:                                                                                                 #  about getting access to the (much) higher-quality images which Paul
000022:                                                                                                 #  actually created.
000023:
000024:                                                                                                 #  Notations on the hardcopy document read, in part:
000025:
000026:                                                                                                 #         Assemble revision 001 of AGC program LMY99 by NASA 2021112-61
000027:                                                                                                 #         16:27 JULY 14, 1969
000028:
000029:                                                                                                 #  Page 1102
000030:    5032                                          BLOCK    02
000031:
000032:                                                                                                 #  SINGLE PRECISION SINE AND COSINE
000033:
000034:    5032                                          COUNT*   $$/INTER
000035:    5032           64736        SPCOS             AD       HALF                                  #  ARGUMENTS SCALED AT PI
000036:    5033           55076        SPSIN             TS       TEMK
000037:    5034           15036                          TCF      SPT
000038:    5035           41076                          CS       TEMK
000039:    5036           60000        SPT               DOUBLE
000040:    5037           55076                          TS       TEMK
000041:    5040           15051                          TCF      POLLEY
000042:    5041           57076                          XCH      TEMK
000043:    5042           51076                          INDEX    TEMK
000044:    5043           64734                          AD       LIMITS
000045:    5044           40000                          COM
000046:    5045           61076                          AD       TEMK
000047:    5046           55076                          TS       TEMK
000048:    5047           15051                          TCF      POLLEY
000049:    5050           15067                          TCF      ARG90
000050:    5051           00006        POLLEY            EXTEND
000051:    5052           71076                          MP       TEMK
000052:    5053           55077                          TS       SQ
000053:    5054           00006                          EXTEND
000054:    5055           75005                          MP       C5/2
000055:    5056           67737                          AD       C3/2
000056:    5057           00006                          EXTEND
000057:    5060           71077                          MP       SQ
000058:    5061           67717                          AD       C1/2
000059:    5062           00006                          EXTEND
000060:    5063           71076                          MP       TEMK
000061:    5064           20001                          DDOUBL
000062:    5065           55076                          TS       TEMK
000063:    5066           00002                          TC       Q
000064:    5067           50000        ARG90             INDEX    A
000065:    5070           44734                          CS       LIMITS
000066:    5071           00002                          TC       Q                                     #  RESULT SCALED AT 1.
000067:
000068:

End of include-file SINGLE_PRECISION_SUBROUTINES.agc.  Parent file is MAIN.agc


