
Source Code


000002:                                                                                                  ## Copyright:   Public domain.
000003:                                                                                                  ## Filename:    SINGLE_PRECISION_SUBROUTINES.agc
000004:                                                                                                  ## Purpose:     Part of the source code for Luminary 1A build 099.
000005:                                                                                                  ##              It is part of the source code for the Lunar Module's (LM)
000006:                                                                                                  ##              Apollo Guidance Computer (AGC), for Apollo 11.
000007:                                                                                                  ## Assembler:   yaYUL
000008:                                                                                                  ## Contact:     Ron Burkey <info@sandroid.org>.
000009:                                                                                                  ## Website:     www.ibiblio.org/apollo.
000010:                                                                                                  ## Pages:       1102
000011:                                                                                                  ## Mod history: 2009-05-25 RSB  Adapted from the corresponding
000012:                                                                                                  ##                              Luminary131 file, using page
000013:                                                                                                  ##                              images from Luminary 1A.
000014:                                                                                                  ##              2010-12-31 JL   Fixed page number comment.
000015:                                                                                                  ##              2016-12-17 RSB  Proofed text comments with octopus/ProoferComments
000016:                                                                                                  ##                              and corrected the errors found.
000017:                                                                                                  ##
000018:                                                                                                  ## This source code has been transcribed or otherwise adapted from
000019:                                                                                                  ## digitized images of a hardcopy from the MIT Museum.  The digitization
000020:                                                                                                  ## was performed by Paul Fjeld, and arranged for by Deborah Douglas of
000021:                                                                                                  ## the Museum.  Many thanks to both.  The images (with suitable reduction
000022:                                                                                                  ## in storage size and consequent reduction in image quality as well) are
000023:                                                                                                  ## available online at www.ibiblio.org/apollo.  If for some reason you
000024:                                                                                                  ## find that the images are illegible, contact me at info@sandroid.org
000025:                                                                                                  ## about getting access to the (much) higher-quality images which Paul
000026:                                                                                                  ## actually created.
000027:                                                                                                  ##
000028:                                                                                                  ## Notations on the hardcopy document read, in part:
000029:                                                                                                  ##
000030:                                                                                                  ##      Assemble revision 001 of AGC program LMY99 by NASA 2021112-61
000031:                                                                                                  ##      16:27 JULY 14, 1969
000032:


000034:    5032                                           BLOCK    02
000035:
000036:                                                                                                  #  SINGLE PRECISION SINE AND COSINE
000037:
000038:    5032                                           COUNT*   $$/INTER
000039:    5032           64736        SPCOS              AD       HALF                                  #  ARGUMENTS SCALED AT PI
000040:    5033           55076        SPSIN              TS       TEMK
000041:    5034           15036                           TCF      SPT
000042:    5035           41076                           CS       TEMK
000043:    5036           60000        SPT                DOUBLE
000044:    5037           55076                           TS       TEMK
000045:    5040           15051                           TCF      POLLEY
000046:    5041           57076                           XCH      TEMK
000047:    5042           51076                           INDEX    TEMK
000048:    5043           64734                           AD       LIMITS
000049:    5044           40000                           COM
000050:    5045           61076                           AD       TEMK
000051:    5046           55076                           TS       TEMK
000052:    5047           15051                           TCF      POLLEY
000053:    5050           15067                           TCF      ARG90
000054:    5051           00006        POLLEY             EXTEND
000055:    5052           71076                           MP       TEMK
000056:    5053           55077                           TS       SQ
000057:    5054           00006                           EXTEND
000058:    5055           75005                           MP       C5/2
000059:    5056           67737                           AD       C3/2
000060:    5057           00006                           EXTEND
000061:    5060           71077                           MP       SQ
000062:    5061           67717                           AD       C1/2
000063:    5062           00006                           EXTEND
000064:    5063           71076                           MP       TEMK
000065:    5064           20001                           DDOUBL
000066:    5065           55076                           TS       TEMK
000067:    5066           00002                           TC       Q
000068:    5067           50000        ARG90              INDEX    A
000069:    5070           44734                           CS       LIMITS
000070:    5071           00002                           TC       Q                                     #  RESULT SCALED AT 1
000071:
000072:

End of include-file SINGLE_PRECISION_SUBROUTINES.agc.  Parent file is MAIN.agc


