
Source Code


000002:                                                                                                  ## Copyright:   Public domain.
000003:                                                                                                  ## Filename:    SPS_BACK-UP_RCS_CONTROL.agc
000004:                                                                                                  ## Purpose:     Part of the source code for Luminary 1A build 099.
000005:                                                                                                  ##              It is part of the source code for the Lunar Module's (LM)
000006:                                                                                                  ##              Apollo Guidance Computer (AGC), for Apollo 11.
000007:                                                                                                  ## Assembler:   yaYUL
000008:                                                                                                  ## Contact:     Ron Burkey <info@sandroid.org>.
000009:                                                                                                  ## Website:     www.ibiblio.org/apollo.
000010:                                                                                                  ## Pages:       1507-1510
000011:                                                                                                  ## Mod history: 2009-05-27 RSB  Adapted from the corresponding
000012:                                                                                                  ##                              Luminary131 file, using page
000013:                                                                                                  ##                              images from Luminary 1A.
000014:                                                                                                  ##              2011-01-06 JL   Fixed pseudo-label indentation.
000015:                                                                                                  ##
000016:                                                                                                  ## This source code has been transcribed or otherwise adapted from
000017:                                                                                                  ## digitized images of a hardcopy from the MIT Museum.  The digitization
000018:                                                                                                  ## was performed by Paul Fjeld, and arranged for by Deborah Douglas of
000019:                                                                                                  ## the Museum.  Many thanks to both.  The images (with suitable reduction
000020:                                                                                                  ## in storage size and consequent reduction in image quality as well) are
000021:                                                                                                  ## available online at www.ibiblio.org/apollo.  If for some reason you
000022:                                                                                                  ## find that the images are illegible, contact me at info@sandroid.org
000023:                                                                                                  ## about getting access to the (much) higher-quality images which Paul
000024:                                                                                                  ## actually created.
000025:                                                                                                  ##
000026:                                                                                                  ## Notations on the hardcopy document read, in part:
000027:                                                                                                  ##
000028:                                                                                                  ##      Assemble revision 001 of AGC program LMY99 by NASA 2021112-61
000029:                                                                                                  ##      16:27 JULY 14, 1969
000030:


000032:                                                                                                  #  PROGRAM NAME:         SPSRCS
000033:                                                                                                  #  AUTHOR:               EDGAR M. OSHIKA (AC ELECTRONICS)
000034:                                                                                                  #  MODIFIED:             TO RETURN TO ALL AXES VIA Q BY P. S. WEISSMAN, OCT 7, 1968
000035:                                                                                                  #  MODIFIED TO IMPROVE BENDING STABILITY BY G. KALAN, FEB. 14, 1969
000036:
000037:                                                                                                  #  FUNCTIONAL DESCRIPTION:
000038:                                                                                                  #        THE PROGRAM CONTROLS THE FIRING OF ALL RCS JETS IN THE DOCKED CONFIGURATION ACCORDING TO THE FOLLOWING PHASE
000039:                                                                                                  #        PLANE LOGIC.
000040:
000041:                                                                                                  #        1. JET SENSE TEST (SPSRCS)
000042:                                                                                                  #                IF JETS ARE FIRING NEGATIVELY, SET OLDSENSE NEGATIVE AND CONTINUE
000043:                                                                                                  #                IF JETS ARE FIRING POSITIVELY, SET OLDSENSE POSITIVE AND CONTINUE
000044:                                                                                                  #                IF JETS ARE NOT FIRING, SET OLDSENSE TO ZERO AND GO TO OUTER RATE LIMIT TEST
000045:
000046:                                                                                                  #        2. RATE DEAD BAND TEST
000047:                                                                                                  #                IF JETS ARE FIRING NEGATIVELY AND RATE IS GREATER THAN TARGET RATE, LEAVE
000048:                                                                                                  #                        JETS ON AND GO TO INHIBITION LOGIC.  OTHERWISE, CONTINUE.
000049:                                                                                                  #                IF JETS ARE FIRING POSITIVELY AND RATE IS   LESS  THAN TARGET RATE, LEAVE
000050:                                                                                                  #                        JETS ON AND GO TO INHIBITION LOGIC.  OTHERWISE, CONTINUE.
000051:
000052:                                                                                                  #        3. OUTER RATE LIMIT TEST (SPSSTART)
000053:                                                                                                  #                IF MAGNITUDE OF EDOT IS GREATER THAN 1.73 DEG/SEC SET JET FIRING TIME
000054:                                                                                                  #                        TO REDUCE RATE AND GO TO INHIBITION LOGIC.  OTHERWISE, CONTINUE.
000055:
000056:                                                                                                  #        4. COAST ZONE TEST
000057:                                                                                                  #                IF STATE (E,EDOT) IS BELOW LINE E + 4 X EDOT > -1.4 DEG AND EDOT IS LESS THAN 1.30 DEG/SEC SET JET TIME
000058:                                                                                                  #                        POSITIVE AND CONTINUE.  OTHERWISE, SET JET FIRING TIME TO ZERO AND CONTINUE.
000059:                                                                                                  #                IF STATE IS ABOVE LINE E + 4 X EDOT > +1.4 DEG AND EDOT IS GREATER THAN -1.30 DEG/SEC, SET JET TIME NEGATIVE
000060:                                                                                                  #                        AND CONTINUE.  OTHERWISE, SET JET FIRING TIME TO ZERO AND CONTINUE.
000061:
000062:                                                                                                  #        5. INHIBITION LOGIC
000063:                                                                                                  #                IF OLDSENSE IS NON-ZERO:
000064:                                                                                                  #                        A) RETURN IF JET TIME AS THE SAME SIGN AS OLDSENSE
000065:                                                                                                  #                        B) SET INHIBITION COUNTER* AND RETURN IF JET TIME IS ZERO
000066:                                                                                                  #                        C) SET INHIBITION COUNTER,* SET JET TIME TO ZERO AND RETURN IF SIGN
000067:                                                                                                  #                           OF JET TIME IS OPPOSITE TO THAT OF OLDSENSE
000068:                                                                                                  #                IF OLDSENSE IS ZERO:
000069:                                                                                                  #                        A) RETURN IF INHIBITION COUNTER IS NOT POSITIVE
000070:                                                                                                  #                        B) SET JET TIME TO ZERO AND RETURN IF INHIBITION COUNTER IS POSITIVE
000071:                                                                                                  #                *NOTE: INHIBITION COUNTERS CAN BE SET TO 4 OR 10 FOR THE P AND UV AXES,
000072:                                                                                                  #                RESPECTIVELY, IN SPSRCS.  THEY ARE DECREMENTED BY ONE AT THE BEGINNING OF


000074:                                                                                                  #                EACH DAP PASS.
000075:
000076:                                                                                                  #        THE MINIMUM PULSE WIDTH OF THIS CONTROLLER IS DETERMINED BY THE REPETITION RATE AT WHICH THIS ROUTINE IS CALLED
000077:                                                                                                  #        AND IS NOMINALLY 100 MS FOR ALL AXES IN DRIFTING FLIGHT.  DURING POWERED FLIGHT THE MINIMUM IS 100 MS FOR THE
000078:                                                                                                  #        P AXIS AND 200 MS FOR THE CONTROL OF THE U AND V AXES.
000079:
000080:                                                                                                  #  CALLING SEQUENCE:
000081:                                                                                                  #                INHINT
000082:                                                                                                  #                TC      IBNKCALL
000083:                                                                                                  #                CADR    SPSRCE
000084:
000085:                                                                                                  #  EXIT:
000086:                                                                                                  #                TC      Q
000087:
000088:                                                                                                  #  ALARM/ABORT MODE:     NONE
000089:
000090:                                                                                                  #  SUBROUTINES CALLED:   NONE
000091:
000092:                                                                                                  #  INPUT:                E, EDOT
000093:                                                                                                  #                        TJP, TJV, TJU           TJ MUST NOT BE NEGATIVE ZERO
000094:
000095:                                                                                                  #  OUTPUT:               TJP, TJV, TJU
000096:
000097: 21,3646                                           BANK     21
000098: 21,2000                                           SETLOC   DAPS4
000099: 21,2000                                           BANK
000100:
000101: 21,3646                                           COUNT*   $$/DAPBU
000102:
000103: 21,3646  E6,1525                                  EBANK=   TJU
000104: 21,3646           00632        RATELIM2           OCT      00632                                 #  1.125 DEG/SEC
000105: 21,3647           34736        POSTHRST           CA       HALF
000106:
000107: 21,3650           51505                           NDX      AXISCTR
000108: 21,3651           55525                           TS       TJU
000109: 21,3652           11745                           CCS      OLDSENSE
000110: 21,3653           13673                           TCF      POSCHECK                              #  JETS FIRING POSITIVELY
000111: 21,3654           13676                           TCF      CTRCHECK                              #  JETS OFF.  CHECK INHIBITION CTR
000112: 21,3655           51505        NEGCHECK           INDEX    AXISCTR                               #  JETS FIRING NEGATIVELY
000113: 21,3656           41525                           CS       TJU
000114: 21,3657           10000                           CCS      A
000115: 21,3660           00002                           TC       Q                                     #  RETURN
000116: 21,3661           13663                           TCF      +2
000117: 21,3662           13663                           TCF      +1                                    #  JETS COMMANDED OFF.  SET CTR AND RETURN
000118: 21,3663           51505        SETCTR             INDEX    AXISCTR                               #  JET FIRING REVERSAL COMMANDED.  SET CTR,
000119: 21,3664           33705                           CA       UTIME                                 #  SET JET TIME TO ZER, AND RETURN


000121: 21,3665           51505                           INDEX    AXISCTR
000122: 21,3666           55770                           TS       UJETCTR
000123: 21,3667           34755        ZAPTJ              CA       ZERO
000124: 21,3670           51505                           INDEX    AXISCTR
000125: 21,3671           55525                           TS       TJU
000126: 21,3672           00002                           TC       Q
000127: 21,3673           51505        POSCHECK           INDEX    AXISCTR
000128: 21,3674           31525                           CA       TJU
000129: 21,3675           13657                           TCF      NEGCHECK   +2
000130: 21,3676           51505        CTRCHECK           INDEX    AXISCTR                               #  CHECK JET INHIBITION COUNTER
000131: 21,3677           11770                           CCS      UJETCTR
000132: 21,3700           13702                           TCF      +2
000133: 21,3701           00002                           TC       Q                                     #  CTR IS NOT POSITIVE.  RETURN
000134: 21,3702           13667                           TCF      ZAPTJ                                 #  CTR IS POSITIVE.  INHIBIT FIRINGS
000135: 21,3703           00002                           TC       Q                                     #  CTR IS NOT POSITIVE.  RETURN
000136: 21,3704           00004                           OCT      00004
000137: 21,3705           00012        UTIME              OCT      00012
000138: 21,3706           00012                           OCT      00012
000139: 21,3707  E6,1745               OLDSENSE           EQUALS   DAPTREG1
000140: 21,3707           44753        NEGFIRE            CS       ONE                                   #  JETS FIRING NEGATIVELY
000141: 21,3710           55745                           TS       OLDSENSE
000142: 21,3711           31427                           CA       EDOT
000143: 21,3712           13716                           TCF      +4
000144: 21,3713           34753        PLUSFIRE           CA       ONE
000145: 21,3714           55745                           TS       OLDSENSE
000146: 21,3715           41427                           CS       EDOT                                  #  RATE DEAD BAND TEST
000147: 21,3716           22000                           LXCH     A
000148: 21,3717           40111                           CS       DAPBOOLS                              #  IF DRIFTBIT = 1, USE ZERO TARGET RATE
000149: 21,3720           74744                           MASK     DRIFTBIT                              #  IF DRIFTBIT = 0, USE 0.10 RATE TARGET
000150: 21,3721           10000                           CCS      A
000151: 21,3722           34767                           CA       RATEDB1
000152: 21,3723           60001                           AD       L
000153: 21,3724           00006                           EXTEND
000154: 21,3725           63735                           BZMF     SPSSTART
000155: 21,3726           13652                           TCF      POSTHRST   +3
000156:
000157: 21,3727           51505        SPSRCS             INDEX    AXISCTR                               #  JET SENSE TEST
000158: 21,3730           11525                           CCS      TJU
000159: 21,3731           13713                           TCF      PLUSFIRE                              #  JETS FIRING POSITIVELY
000160: 21,3732           13734                           TCF      +2
000161: 21,3733           13707                           TCF      NEGFIRE                               #  JETS FIRING NEGATIVELY
000162: 21,3734           55745                           TS       OLDSENSE                              #  JETS OFF
000163: 21,3735           31427        SPSSTART           CA       EDOT                                  #  OUTER RATE LIMIT TEST
000164: 21,3736           00006                           EXTEND
000165: 21,3737           74766                           MP       RATELIM1
000166: 21,3740           10000                           CCS      A
000167: 21,3741           13760                           TCF      NEGTHRST                              #  OUTER RATE LIMIT EXCEEDED
000168: 21,3742           13744                           TCF      +2
000169: 21,3743           13647                           TCF      POSTHRST                              #  OUTER RATE LIMIT EXCEEDED
000170: 21,3744           31427                           CA       EDOT                                  #  COAST ZONE TEST


000172: 21,3745           61752                           AD       E
000173: 21,3746           00006                           EXTEND
000174: 21,3747           71411                           MP       DKDB                                  #  PAD LOADED DEADBAND.  FRESHSTART: 1.4 DEG
000175: 21,3750           00006                           EXTEND
000176: 21,3751           13766                           BZF      TJZERO
000177:
000178: 21,3752           00006                           EXTEND
000179: 21,3753           63762                           BZMF     +7
000180: 21,3754           31427                           CA       EDOT
000181: 21,3755           63646                           AD       RATELIM2
000182: 21,3756           00006                           EXTEND
000183: 21,3757           63766                           BZMF     TJZERO
000184: 21,3760           44736        NEGTHRST           CS       HALF
000185: 21,3761           13650                           TCF      POSTHRST   +1
000186: 21,3762           43646                 +7        CS       RATELIM2
000187: 21,3763           61427                           AD       EDOT
000188: 21,3764           00006                           EXTEND
000189: 21,3765           63647                           BZMF     POSTHRST
000190: 21,3766           34755        TJZERO             CA       ZERO
000191: 21,3767           13650                           TCF      POSTHRST   +1
000192:
000193: 21,3770     4766               RATELIM1           =        CALLCODE                              #  = 00032, CORRESPONDING TO 1.73 DEG/SEC
000194: 21,3770     4767               RATEDB1            =        TBUILDFX                              #  = 00045, CORRESPONDS TO 0.101 DEG/SEC
000195:
000196:                                                                                                  #  *** END OF LMDAP  .015 ***
000197:
000198:

End of include-file SPS_BACK-UP_RCS_CONTROL.agc.  Parent file is MAIN.agc


