
Source Code


000002:                                                                                                  ## Copyright:   Public domain.
000003:                                                                                                  ## Filename:    SPS_BACK-UP_RCS_CONTROL.agc
000004:                                                                                                  ## Purpose:     Part of the source code for Luminary 1A build 099.
000005:                                                                                                  ##              It is part of the source code for the Lunar Module's (LM)
000006:                                                                                                  ##              Apollo Guidance Computer (AGC), for Apollo 11.
000007:                                                                                                  ## Assembler:   yaYUL
000008:                                                                                                  ## Contact:     Ron Burkey <info@sandroid.org>.
000009:                                                                                                  ## Website:     www.ibiblio.org/apollo.
000010:                                                                                                  ## Pages:       1507-1510
000011:                                                                                                  ## Mod history: 2009-05-27 RSB  Adapted from the corresponding
000012:                                                                                                  ##                              Luminary131 file, using page
000013:                                                                                                  ##                              images from Luminary 1A.
000014:                                                                                                  ##              2011-01-06 JL   Fixed pseudo-label indentation.
000015:                                                                                                  ##              2016-12-18 RSB  Proofed text comments with octopus/ProoferComments
000016:                                                                                                  ##                              and corrected the errors found.
000017:                                                                                                  ##
000018:                                                                                                  ## This source code has been transcribed or otherwise adapted from
000019:                                                                                                  ## digitized images of a hardcopy from the MIT Museum.  The digitization
000020:                                                                                                  ## was performed by Paul Fjeld, and arranged for by Deborah Douglas of
000021:                                                                                                  ## the Museum.  Many thanks to both.  The images (with suitable reduction
000022:                                                                                                  ## in storage size and consequent reduction in image quality as well) are
000023:                                                                                                  ## available online at www.ibiblio.org/apollo.  If for some reason you
000024:                                                                                                  ## find that the images are illegible, contact me at info@sandroid.org
000025:                                                                                                  ## about getting access to the (much) higher-quality images which Paul
000026:                                                                                                  ## actually created.
000027:                                                                                                  ##
000028:                                                                                                  ## Notations on the hardcopy document read, in part:
000029:                                                                                                  ##
000030:                                                                                                  ##      Assemble revision 001 of AGC program LMY99 by NASA 2021112-61
000031:                                                                                                  ##      16:27 JULY 14, 1969
000032:


000034:                                                                                                  #  PROGRAM NAME:         SPSRCS
000035:                                                                                                  #  AUTHOR:               EDGAR M. OSHIKA (AC ELECTRONICS)
000036:                                                                                                  #  MODIFIED:             TO RETURN TO ALL AXES VIA Q BY P. S. WEISSMAN, OCT 7, 1968
000037:                                                                                                  #  MODIFIED TO IMPROVE BENDING STABILITY BY G. KALAN, FEB. 14, 1969
000038:
000039:                                                                                                  #  FUNCTIONAL DESCRIPTION:
000040:                                                                                                  #        THIS PROGRAM CONTROLS THE FIRING OF ALL RCS JETS IN THE DOCKED CONFIGURATION ACCORDING TO THE FOLLOWING PHASE
000041:                                                                                                  #        PLANE LOGIC.
000042:
000043:                                                                                                  #        1. JET SENSE TEST (SPSRCS)
000044:                                                                                                  #                IF JETS ARE FIRING NEGATIVELY, SET OLDSENSE NEGATIVE AND CONTINUE
000045:                                                                                                  #                IF JETS ARE FIRING POSITIVELY, SET OLDSENSE POSITIVE AND CONTINUE
000046:                                                                                                  #                IF JETS ARE NOT FIRING, SET OLDSENSE TO ZERO AND GO TO OUTER RATE LIMIT TEST
000047:
000048:                                                                                                  #        2. RATE DEAD BAND TEST
000049:                                                                                                  #                IF JETS ARE FIRING NEGATIVELY AND RATE IS GREATER THAN TARGET RATE, LEAVE
000050:                                                                                                  #                        JETS ON AND GO TO INHIBITION LOGIC.  OTHERWISE, CONTINUE.
000051:                                                                                                  #                IF JETS ARE FIRING POSITIVELY AND RATE IS   LESS  THAN TARGET RATE, LEAVE
000052:                                                                                                  #                        JETS ON AND GO TO INHIBITION LOGIC.  OTHERWISE, CONTINUE.
000053:
000054:                                                                                                  #        3. OUTER RATE LIMIT TEST (SPSSTART)
000055:                                                                                                  #                IF MAGNITUDE OF EDOT IS GREATER THAN 1.73 DEG/SEC SET JET FIRING TIME
000056:                                                                                                  #                        TO REDUCE RATE AND GO TO INHIBITION LOGIC.  OTHERWISE, CONTINUE.
000057:
000058:                                                                                                  #        4. COAST ZONE TEST
000059:                                                                                                  #                IF STATE (E,EDOT) IS BELOW LINE E + 4 X EDOT > -1.4 DEG AND EDOT IS LESS THAN 1.30 DEG/SEC SET JET TIME POSI-
000060:                                                                                                  #                        TIVE AND CONTINUE.  OTHERWISE, SET JET FIRING TIME TO ZERO AND CONTINUE.
000061:                                                                                                  #                IF STATE IS ABOVE LINE E + 4 X EDOT > +1.4 DEG AND EDOT IS GREATER THAN -1.30 DEG/SEC, SET JET TIME NEGATIVE
000062:                                                                                                  #                        AND CONTINUE.  OTHERWISE, SET JET FIRING TIME TO ZERO AND CONTINUE.
000063:
000064:                                                                                                  #        5. INHIBITION LOGIC
000065:                                                                                                  #                IF OLDSENSE IS NON-ZERO:
000066:                                                                                                  #                        A) RETURN IF JET TIME HAS SAME SIGN AS OLDSENSE
000067:                                                                                                  #                        B) SET INHIBITION COUNTER* AND RETURN IF JET TIME IS ZERO
000068:                                                                                                  #                        C) SET INHIBITION COUNTER,* SET JET TIME TO ZERO AND RETURN IF SIGN
000069:                                                                                                  #                           OF JET TIME IS OPPOSITE TO THAT OF OLDSENSE
000070:                                                                                                  #                IF OLDSENSE IS ZERO:
000071:                                                                                                  #                        A) RETURN IF INHIBITION COUNTER IS NOT POSITIVE
000072:                                                                                                  #                        B) SET JET TIME TO ZERO AND RETURN IF INHIBITION COUNTER IS POSITIVE
000073:                                                                                                  #                *NOTE: INHIBITION COUNTERS CAN BE SET TO 4 OR 10 FOR THE P, AND UV AXES,
000074:                                                                                                  #                RESPECTIVELY, IN SPSRCS.  THEY ARE DECREMENTED BY ONE AT THE BEGINNING OF


000076:                                                                                                  #                EACH DAP PASS.
000077:
000078:                                                                                                  #        THE MINIMUM PULSE WIDTH OF THIS CONTROLLER IS DETERMINED BY THE REPETITION RATE AT WHICH THIS ROUTINE IS CALLED
000079:                                                                                                  #        AND IS NOMINALLY 100 MS FOR ALL AXES IN DRIFTING FLIGHT.  DURING POWERED FLIGHT THE MINIMUM IS 100 MS FOR THE
000080:                                                                                                  #        P AXIS AND 200 MS FOR THE CONTROL OF THE U AND V AXES.
000081:
000082:                                                                                                  #  CALLING SEQUENCE:
000083:                                                                                                  #                INHINT
000084:                                                                                                  #                TC      IBNKCALL
000085:                                                                                                  #                CADR    SPSRCS
000086:
000087:                                                                                                  #  EXIT:
000088:                                                                                                  #                TC      Q
000089:
000090:                                                                                                  #  ALARM/ABORT MODE:     NONE
000091:
000092:                                                                                                  #  SUBROUTINES CALLED:   NONE
000093:
000094:                                                                                                  #  INPUT:                E, EDOT
000095:                                                                                                  #                        TJP, TJV, TJU           TJ MUST NOT BE NEGATIVE ZERO
000096:
000097:                                                                                                  #  OUTPUT:               TJP, TJV, TJU
000098:
000099: 21,3646                                           BANK     21
000100: 21,2000                                           SETLOC   DAPS4
000101: 21,2000                                           BANK
000102:
000103: 21,3646                                           COUNT*   $$/DAPBU
000104:
000105: 21,3646  E6,1525                                  EBANK=   TJU
000106: 21,3646           00632        RATELIM2           OCT      00632                                 #  1.125 DEG/SEC
000107: 21,3647           34736        POSTHRST           CA       HALF
000108:
000109: 21,3650           51505                           NDX      AXISCTR
000110: 21,3651           55525                           TS       TJU
000111: 21,3652           11745                           CCS      OLDSENSE
000112: 21,3653           13673                           TCF      POSCHECK                              #  JETS FIRING POSITIVELY
000113: 21,3654           13676                           TCF      CTRCHECK                              #  JETS OFF.  CHECK INHIBITION CTR
000114: 21,3655           51505        NEGCHECK           INDEX    AXISCTR                               #  JETS FIRING NEGATIVELY
000115: 21,3656           41525                           CS       TJU
000116: 21,3657           10000                           CCS      A
000117: 21,3660           00002                           TC       Q                                     #  RETURN
000118: 21,3661           13663                           TCF      +2
000119: 21,3662           13663                           TCF      +1                                    #  JETS COMMANDED OFF.  SET CTR AND RETURN
000120: 21,3663           51505        SETCTR             INDEX    AXISCTR                               #  JET FIRING REVERSAL COMMANDED.  SET CTR,
000121: 21,3664           33705                           CA       UTIME                                 #  SET JET TIME TO ZERO, AND RETURN


000123: 21,3665           51505                           INDEX    AXISCTR
000124: 21,3666           55770                           TS       UJETCTR
000125: 21,3667           34755        ZAPTJ              CA       ZERO
000126: 21,3670           51505                           INDEX    AXISCTR
000127: 21,3671           55525                           TS       TJU
000128: 21,3672           00002                           TC       Q
000129: 21,3673           51505        POSCHECK           INDEX    AXISCTR
000130: 21,3674           31525                           CA       TJU
000131: 21,3675           13657                           TCF      NEGCHECK   +2
000132: 21,3676           51505        CTRCHECK           INDEX    AXISCTR                               #  CHECK JET INHIBITION COUNTER
000133: 21,3677           11770                           CCS      UJETCTR
000134: 21,3700           13702                           TCF      +2
000135: 21,3701           00002                           TC       Q                                     #  CTR IS NOT POSITIVE.  RETURN
000136: 21,3702           13667                           TCF      ZAPTJ                                 #  CTR IS POSITIVE.  INHIBIT FIRINGS
000137: 21,3703           00002                           TC       Q                                     #  CTR IS NOT POSITIVE.  RETURN
000138: 21,3704           00004                           OCT      00004
000139: 21,3705           00012        UTIME              OCT      00012
000140: 21,3706           00012                           OCT      00012
000141: 21,3707  E6,1745               OLDSENSE           EQUALS   DAPTREG1
000142: 21,3707           44753        NEGFIRE            CS       ONE                                   #  JETS FIRING NEGATIVELY
000143: 21,3710           55745                           TS       OLDSENSE
000144: 21,3711           31427                           CA       EDOT
000145: 21,3712           13716                           TCF      +4
000146: 21,3713           34753        PLUSFIRE           CA       ONE
000147: 21,3714           55745                           TS       OLDSENSE
000148: 21,3715           41427                           CS       EDOT                                  #  RATE DEAD BAND TEST
000149: 21,3716           22000                           LXCH     A
000150: 21,3717           40111                           CS       DAPBOOLS                              #  IF DRIFTBIT = 1, USE ZERO TARGET RATE
000151: 21,3720           74744                           MASK     DRIFTBIT                              #  IF DRIFTBIT = 0, USE 0.10 RATE TARGET
000152: 21,3721           10000                           CCS      A
000153: 21,3722           34767                           CA       RATEDB1
000154: 21,3723           60001                           AD       L
000155: 21,3724           00006                           EXTEND
000156: 21,3725           63735                           BZMF     SPSSTART
000157: 21,3726           13652                           TCF      POSTHRST   +3
000158:
000159: 21,3727           51505        SPSRCS             INDEX    AXISCTR                               #  JET SENSE TEST
000160: 21,3730           11525                           CCS      TJU
000161: 21,3731           13713                           TCF      PLUSFIRE                              #  JETS FIRING POSITIVELY
000162: 21,3732           13734                           TCF      +2
000163: 21,3733           13707                           TCF      NEGFIRE                               #  JETS FIRING NEGATIVELY
000164: 21,3734           55745                           TS       OLDSENSE                              #  JETS OFF
000165: 21,3735           31427        SPSSTART           CA       EDOT                                  #  OUTER RATE LIMIT TEST
000166: 21,3736           00006                           EXTEND
000167: 21,3737           74766                           MP       RATELIM1
000168: 21,3740           10000                           CCS      A
000169: 21,3741           13760                           TCF      NEGTHRST                              #  OUTER RATE LIMIT EXCEEDED
000170: 21,3742           13744                           TCF      +2
000171: 21,3743           13647                           TCF      POSTHRST                              #  OUTER RATE LIMIT EXCEEDED
000172: 21,3744           31427                           CA       EDOT                                  #  COAST ZONE TEST


000174: 21,3745           61752                           AD       E
000175: 21,3746           00006                           EXTEND
000176: 21,3747           71411                           MP       DKDB                                  #  PAD LOADED DEADBAND.  FRESHSTART: 1.4 DEG
000177: 21,3750           00006                           EXTEND
000178: 21,3751           13766                           BZF      TJZERO
000179:
000180: 21,3752           00006                           EXTEND
000181: 21,3753           63762                           BZMF     +7
000182: 21,3754           31427                           CA       EDOT
000183: 21,3755           63646                           AD       RATELIM2
000184: 21,3756           00006                           EXTEND
000185: 21,3757           63766                           BZMF     TJZERO
000186: 21,3760           44736        NEGTHRST           CS       HALF
000187: 21,3761           13650                           TCF      POSTHRST   +1
000188: 21,3762           43646                 +7        CS       RATELIM2
000189: 21,3763           61427                           AD       EDOT
000190: 21,3764           00006                           EXTEND
000191: 21,3765           63647                           BZMF     POSTHRST
000192: 21,3766           34755        TJZERO             CA       ZERO
000193: 21,3767           13650                           TCF      POSTHRST   +1
000194:
000195: 21,3770     4766               RATELIM1           =        CALLCODE                              #  = 00032, CORRESPONDING TO 1.73 DEG/SEC
000196: 21,3770     4767               RATEDB1            =        TBUILDFX                              #  = 00045, CORRESPONDS TO 0.101 DEG/SEC
000197:

End of include-file SPS_BACK-UP_RCS_CONTROL.agc.  Parent file is MAIN.agc


