
Source Code


000002:                                                                                                  #  Copyright:    Public domain.
000003:                                                                                                  #  Filename:     STABLE_ORBIT.agc
000004:                                                                                                  #  Purpose:      Part of the source code for Luminary 1A build 099.
000005:                                                                                                  #                It is part of the source code for the Lunar Module's (LM)
000006:                                                                                                  #                Apollo Guidance Computer (AGC), for Apollo 11.
000007:                                                                                                  #  Assembler:    yaYUL
000008:                                                                                                  #  Contact:      Ron Burkey <info@sandroid.org>.
000009:                                                                                                  #  Website:      www.ibiblio.org/apollo.
000010:                                                                                                  #  Pages:        723-730
000011:                                                                                                  #  Mod history:  2009-05-19 RSB  Adapted from the corresponding
000012:                                                                                                  #                                Colossus249 file (there being no corresponding
000013:                                                                                                  #                                Luminary131 source-code file), using page
000014:                                                                                                  #                                images from Luminary 1A.
000015:                                                                                                  #                2009-06-07 RSB  Eliminated an extraneous instruction.
000016:                                                                                                  #                2011-01-06 JL   Fixed pseudo-label indentation.
000017:
000018:                                                                                                  #  This source code has been transcribed or otherwise adapted from
000019:                                                                                                  #  digitized images of a hardcopy from the MIT Museum.  The digitization
000020:                                                                                                  #  was performed by Paul Fjeld, and arranged for by Deborah Douglas of
000021:                                                                                                  #  the Museum.  Many thanks to both.  The images (with suitable reduction
000022:                                                                                                  #  in storage size and consequent reduction in image quality as well) are
000023:                                                                                                  #  available online at www.ibiblio.org/apollo.  If for some reason you
000024:                                                                                                  #  find that the images are illegible, contact me at info@sandroid.org
000025:                                                                                                  #  about getting access to the (much) higher-quality images which Paul
000026:                                                                                                  #  actually created.
000027:
000028:                                                                                                  #  Notations on the hardcopy document read, in part:
000029:
000030:                                                                                                  #        Assemble revision 001 of AGC program LMY99 by NASA 2021112-61
000031:                                                                                                  #        16:27 JULY 14, 1969
000032:
000033:                                                                                                  #  Page 723
000034:                                                                                                  #  STABLE ORBIT RENDEZVOUS PROGRAMS (P38 AND P78)
000035:
000036:                                                                                                  #  MOD NO -1             LOG SECTION -- STABLE ORBIT -- P38-P39
000037:                                                                                                  #  MOD BY RUDNICKI.S     DATE 26JAN68
000038:
000039:                                                                                                  #  FUNCTIONAL DESCRIPTION
000040:
000041:                                                                                                  #        P38 AND P78 CALCULATE THE REQUIRED DELTA V AND OTHER INITIAL
000042:                                                                                                  #        CONDITIONS REQUIRED BY THE AGC TO (1) PUT THE ACTIVE VEHICLE
000043:                                                                                                  #        ON A TRANSFER TRAJECTORY THAT INTERCEPTS THE PASSIVE VEHICLE
000044:                                                                                                  #        ORBIT A GIVEN DISTANCE, DELTA R, EITHER AHEAD OF OR BEHIND THE
000045:                                                                                                  #        PASSIVE VEHICLE AND (2) ACTUALLY PLACE THE ACTIVE VEHICLE IN THE
000046:                                                                                                  #        PASSIVE VEHICLE ORBIT WITH A DELTA R SEPARATION BETWEEN THE TWO
000047:                                                                                                  #        VEHICLES
000048:
000049:                                                                                                  #  CALLING SEQUENCE
000050:
000051:                                                                                                  #        ASTRONAUT REQUEST THRU DSKY
000052:
000053:                                                                                                  #        V37E38E         IF THIS VEHICLE IS ACTIVE VEHICLE
000054:                                                                                                  #        V37E78E         IF OTHER VEHICLE IS ACTIVE VEHICLE
000055:
000056:                                                                                                  #  INPUT
000057:
000058:                                                                                                  #        (1)     SOI MANEUVER
000059:
000060:                                                                                                  #                (A)  TIG        TIME OF SOI MANEUVER
000061:                                                                                                  #                (B)  CENTANG    ORBITAL CENTRAL ANGLE OF THE PASSIVE VEHICLE
000062:                                                                                                  #                                DURING THE TRANSFER FROM TIG TO TIME OF INTERCEPT
000063:                                                                                                  #                (C)  DELTAR     THE DESIRED SEPARATION OF THE TWO VEHICLES
000064:                                                                                                  #                                SPECIFIED AS A DISTANCE ALONG THE PASSIVE VEHICLE
000065:                                                                                                  #                                ORBIT
000066:                                                                                                  #                (D)  OPTION     EQUALS 1 FOR SOI
000067:
000068:                                                                                                  #        (2)     SOR MANEUVER
000069:
000070:                                                                                                  #                (A)  TIG        TIME OF SOR MANEUVER
000071:                                                                                                  #                (B)  CENTANG    AN OPTIONAL RESPECIFICATION OF 1 (B) ABOVE
000072:                                                                                                  #                (C)  OPTION     EQUALS 2 FOR SOR
000073:                                                                                                  #                (D)  DELTTIME   THE TIME REQUIRED TO TRAVERSE DELTA R WHEN
000074:                                                                                                  #                                TRAVELING AT A VELOCITY EQUAL TO THE HORIZONTAL
000075:                                                                                                  #                                VELOCITY OF THE PASSIVE VEHICLE -- SAVED FROM
000076:                                                                                                  #                                SOI PHASE
000077:                                                                                                  #                (E)  TINT       TIME OF INTERCEPT (SOI) -- SAVED FROM SOI PHASE
000078:
000079:                                                                                                  #  OUTPUT
000080:
000081:                                                                                                  #        (1)  TRKMKCNT   NUMBER OF MARKS
000082:                                                                                                  #        (2)  TTOGO      TIME TO GO
000083:                                                                                                  #        (3)  +MGA       MIDDLE GIMBAL ANGLE
000084:                                                                                                  #  Page 724
000085:                                                                                                  #        (4)  DSPTEM1    TIME OF INTERCEPT OF PASSIVE VEHICLE ORBIT
000086:                                                                                                  #                        (FOR SOI ONLY)
000087:                                                                                                  #        (5)  POSTTPI    PERIGEE ALTITUDE OF ACTIVE VEHICLE ORBIT AFTER
000088:                                                                                                  #                        THE SOI (SOR) MANEUVER
000089:                                                                                                  #        (6)  DELVTPI    MAGNITUDE OF DELTA V AT SOI (SOR) TIME
000090:                                                                                                  #        (7)  DELVTPF    MAGNITUDE OF DELTA V AT INTERCEPT TIME
000091:                                                                                                  #        (8)  DELTA      VELOCITY AT SOI (AND SOR) -- LOCAL VERTICAL
000092:                                                                                                  #                        CORDINATES
000093:
000094:                                                                                                  #  SUBROUTINE USED
000095:
000096:                                                                                                  #        AVFLAGA
000097:                                                                                                  #        AVFLAGP
000098:                                                                                                  #        VNDSPLY
000099:                                                                                                  #        BANKCALL
000100:                                                                                                  #        GOFLASHR
000101:                                                                                                  #        GOTOP00H
000102:                                                                                                  #        BLANKET
000103:                                                                                                  #        ENDOFJOB
000104:                                                                                                  #        PREC/TT
000105:                                                                                                  #        SELECTMU
000106:                                                                                                  #        INTRPVP
000107:                                                                                                  #        MAINRTNE
000108:
000109: 04,3013                                           BANK     04
000110: 34,2000                                           SETLOC   STBLEORB
000111: 34,2000                                           BANK
000112:
000113: 34,3271  E7,1470                                  EBANK=   SUBEXIT
000114: 34,3271                                           COUNT*   $$/P3879
000115:
000116: 34,3271           04616        P38                TC       BANKCALL
000117: 34,3272           72347                           CADR     AVFLAGA                               #  THIS VEHICLE ACTIVE
000118: 34,3273           03276                           TC       +3
000119: 34,3274           04616        P78                TC       BANKCALL
000120: 34,3275           72354                           CADR     AVFLAGP                               #  OTHER VEHICLE ACTIVE
000121: 34,3276           04616                           TC       BANKCALL
000122: 34,3277           72361                           CADR     P20FLGON                              #  SET UPDATFLG, TRACKFLG
000123: 34,3300           33641                           CAF      DECTWO
000124: 34,3301           55466                           TS       NN
000125: 34,3302           33632                           CAF      V06N33SR                              #  DISPLAY TIG
000126: 34,3303           03621                           TC       VNDSPLY
000127: 34,3304           33633                           CAF      V06N55SR                              #  DISPLAY CENTANG
000128: 34,3305           04616                           TCR      BANKCALL
000129: 34,3306           20635                           CADR     GOFLASHR
000130: 34,3307           16001                           TCF      GOTOP00H                              #  TERMINATE
000131: 34,3310           13315                           TCF      +5                                    #  PROCEED
000132: 34,3311           13304                           TCF      -5                                    #  RECYCLE
000133: 34,3312           36245                           CAF      THREE                                 #  IMMEDIATE RETURN -- BLANK R1, R2
000134: 34,3313           05464                           TCR      BLANKET
000135:                                                                                                  #  Page 725
000136: 34,3314           15155                           TCF      ENDOFJOB
000137: 34,3315           34756                           CAF      FIVE
000138: 34,3316           55144                           TS       OPTION1
000139: 34,3317           34753                           CAF      ONE
000140: 34,3320           55145                           TS       OPTION2                               #  OPTION CODE IS SET TO 1
000141: 34,3321           33634                           CAF      V04N06SR                              #  DISPLAY OPTION CODE -- 1 = SOI, 2 = SOR
000142: 34,3322           04616                           TCR      BANKCALL
000143: 34,3323           20635                           CADR     GOFLASHR
000144: 34,3324           16001                           TCF      GOTOP00H                              #  TERMINATE
000145: 34,3325           13332                           TCF      +5                                    #  PROCEED
000146: 34,3326           13321                           TCF      -5                                    #  RECYCLE
000147: 34,3327           34751                           CAF      BIT3                                  #  IMMEDIATE RETURN -- BLANK R3
000148: 34,3330           05464                           TCR      BLANKET
000149: 34,3331           15155                           TCF      ENDOFJOB
000150: 34,3332           06037                           TC       INTPRET
000151: 34,3333           70535                           SLOAD    SR1
000152: 34,3334           01146                                    OPTION2
000153: 34,3335           71230                           BHIZ     DLOAD
000154: 34,3336           71344                                    OPTN1
000155: 34,3337           03631                                    TINT
000156: 34,3340           02303                           STORE    TINTSOI                               #  STORE FOR SOR PHASE
000157: 34,3341           77614                           CLRGO
000158: 34,3342           01230                                    OPTNSW                                #  OPTNSW: ON = SOI, OFF = SOR
000159: 34,3343           71375                                    JUNCTN1
000160: 34,3344           43014        OPTN1              SET      CLEAR                                 #  SOI
000161: 34,3345           01070                                    OPTNSW
000162: 34,3346           00670                                    UPDATFLG
000163: 34,3347           77624                           CALL
000164: 34,3350           71554                                    PREC/TT
000165: 34,3351           43015                           DAD      SET
000166: 34,3352           03442                                    TIG
000167: 34,3353           00470                                    UPDATFLG
000168: 34,3354           03631                           STORE    TINT                                  #  TI = TIG + TF
000169: 34,3355           77776                           EXIT
000170: 34,3356           33635                           CAF      V06N57SR                              #  DISPLAY DELTA R
000171: 34,3357           04616                           TCR      BANKCALL
000172: 34,3360           20635                           CADR     GOFLASHR
000173: 34,3361           16001                           TCF      GOTOP00H                              #  TERMINATE
000174: 34,3362           13367                           TCF      +5                                    #  PROCEED
000175: 34,3363           13356                           TCF      -5                                    #  RECYCLE
000176: 34,3364           36242                           CAF      SIX                                   #  IMMEDIATE RETURN -- BLANK R2, R3
000177: 34,3365           05464                           TCR      BLANKET
000178: 34,3366           15155                           TCF      ENDOFJOB
000179: 34,3367           00006                 +5        EXTEND
000180: 34,3370           31631                           DCA      TINT
000181: 34,3371           53046                           DXCH     DSPTEM1                               #  FOR DISPLAY
000182: 34,3372           33636                           CAF      V06N34SR                              #  DISPLAY TIME OF INTERCEPT
000183: 34,3373           03621                           TC       VNDSPLY
000184: 34,3374           06037                           TC       INTPRET
000185: 34,3375           45014        JUNCTN1            CLEAR    CALL
000186:                                                                                                  #  Page 726
000187: 34,3376           04266                                    P39/79SW
000188: 34,3377           20000                                    SELECTMU                              #  SELECT MU, CLEAR FINALFLG, GO TO VN1645
000189: 34,3400           77624        RECYCLE            CALL
000190: 34,3401           71554                                    PREC/TT
000191: 34,3402           71214                           BOFF     DLOAD
000192: 34,3403           01350                                    OPTNSW
000193: 34,3404           71424                                    OPTN2
000194: 34,3405           03631                                    TINT
000195: 34,3406           34041                           STCALL   TDEC1                                 #  PRECISION UPDATE PASSIVE VEHICLE TO
000196: 34,3407           71605                                    INTRPVP                               #        INTERCEPT TIME
000197: 34,3410           53575                           VLOAD    UNIT
000198: 34,3411           00001                                    RATT                                  #  RP/(RP)
000199: 34,3412           47315                           PDVL     VXV
000200: 34,3413           00007                                    VATT
000201: 34,3414           60246                           ABVAL    NORM                                  #  (VP X RP/(RP))
000202: 34,3415           00047                                    X1
000203: 34,3416           56325                           PDDL     DDV
000204: 34,3417           02303                                    DELTAR
000205: 34,3420           77657                           SL*                                            #  DELTA R / (VP X RP/RP)
000206: 34,3421           20172                                    0          -7,1
000207: 34,3422           36305                           STCALL   DELTTIME                              #  DELTA T = (RP) DELTA R / (VP X RP)
000208: 34,3423           71430                                    JUNCTN2
000209: 34,3424           43345        OPTN2              DLOAD    DAD
000210: 34,3425           02303                                    TINTSOI
000211: 34,3426           00037                                    T
000212: 34,3427           03631                           STORE    TINT                                  #  TI = TI + TF
000213: 34,3430           45345        JUNCTN2            DLOAD    DSU
000214: 34,3431           03631                                    TINT
000215: 34,3432           02305                                    DELTTIME
000216: 34,3433           02307                           STORE    TARGTIME                              #  TT = TI - DELTA T
000217:
000218:                                                                                                  #  .... MAINRTNE ....
000219:
000220:                                                                                                  #  SUBROUTINES USED:
000221:
000222:                                                                                                  #        S3435.25
000223:                                                                                                  #        PERIAPO1
000224:                                                                                                  #        SHIFTR1
000225:                                                                                                  #        VNDSPLY
000226:                                                                                                  #        BANKCALL
000227:                                                                                                  #        GOFLASH
000228:                                                                                                  #        GOTOP00H
000229:                                                                                                  #        VN1645
000230:
000231: 34,3434           34041        MAINRTNE           STCALL   TDEC1                                 #  PRECISION UPDATE PASSIVE VEHICLE TO
000232: 34,3435           71605                                    INTRPVP                               #        TARGET TIME
000233: 34,3436           77745                           DLOAD
000234: 34,3437           03442                                    TIG
000235: 34,3440           03610                           STORE    INTIME
000236: 34,3441           77331                           SSP      VLOAD
000237: 34,3442           03471                                    SUBEXIT
000238: 34,3443           71447                                    TEST3979
000239:                                                                                                  #  Page 727
000240: 34,3444           00001                                    RATT
000241: 34,3445           77624                           CALL
000242: 34,3446           73327                                    S3435.25
000243: 34,3447           43014        TEST3979           BOFF     BON
000244: 34,3450           04346                                    P39/79SW
000245: 34,3451           71460                                    MAINRTN1
000246: 34,3452           01311                                    FINALFLG
000247: 34,3453           71456                                    P39P79
000248: 34,3454           77614                           SET
000249: 34,3455           00470                                    UPDATFLG
000250: 34,3456           77776        P39P79             EXIT
000251: 34,3457           03505                           TC       DSPLY81                               #  FOR P39 AND P79
000252: 34,3460           51575        MAINRTN1           VLOAD    ABVAL
000253: 34,3461           02366                                    DELVEET3
000254: 34,3462           27576                           STOVL    DELVTPI                               #  DELTA V
000255: 34,3463           03506                                    VPASS4
000256: 34,3464           51451                           VSU      ABVAL
000257: 34,3465           03566                                    VTPRIME
000258: 34,3466           26350                           STOVL    DELVTPF                               #  DELTA V (FINAL) = V*T - VT
000259: 34,3467           03536                                    RACT3
000260: 34,3470           45115                           PDVL     CALL
000261: 34,3471           02337                                    VIPRIME
000262: 34,3472           46316                                    PERIAPO1                              #  GET PERIGEE ALTITUDE
000263: 34,3473           77624                           CALL
000264: 34,3474           46426                                    SHIFTR1
000265: 34,3475           03606                           STORE    POSTTPI
000266: 34,3476           43014                           BON      SET
000267: 34,3477           01311                                    FINALFLG
000268: 34,3500           71502                                    DSPLY58
000269: 34,3501           00470                                    UPDATFLG
000270: 34,3502           77776        DSPLY58            EXIT
000271: 34,3503           33637                           CAF      V06N58SR                              #  DISPLAY HP, DELTA V, DELTA V (FINAL)
000272: 34,3504           03621                           TC       VNDSPLY
000273: 34,3505           33640        DSPLY81            CAF      V06N81SR                              #  DISPLAY DELTA V (LV)
000274: 34,3506           03621                           TC       VNDSPLY
000275: 34,3507           06037                           TC       INTPRET
000276: 34,3510           77214                           CLEAR    VLOAD
000277: 34,3511           01267                                    XDELVFLG
000278: 34,3512           02366                                    DELVEET3
000279: 34,3513           37656                           STCALL   DELVSIN
000280: 34,3514           73606                                    VN1645                                #  DISPLAY TRKMKCNT, TTOGO, +MGA
000281: 34,3515           52014                           BON      GOTO
000282: 34,3516           04306                                    P39/79SW
000283: 34,3517           71541                                    P39/P79B
000284: 34,3520           71400                                    RECYCLE
000285:
000286:                                                                                                  #  STABLE ORBIT MIDCOURSE PROGRAM (P39 AND P79)
000287:
000288:                                                                                                  #  MOD NO -1             LOG SECTION -- STABLE ORBIT -- P38-P39
000289:                                                                                                  #  MOD BY RUDNICKI, S    DATE 25JAN68
000290:
000291:                                                                                                  #  Page 728
000292:                                                                                                  #  FUNCTIONAL DESCRIPTION
000293:
000294:                                                                                                  #        P39 AND P79 CALCULATE THE REQUIRED DELTA V AND OTHER INITIAL
000295:                                                                                                  #        CONDITIONS REQUIRED BY THE AGC TO MAKE A MIDCOURSE CORRECTION
000296:                                                                                                  #        MANEUVER AFTER COMPLETING THE SOI MANEUVER BUT BEFORE MAKING
000297:                                                                                                  #        THE SOR MANEUVER.
000298:
000299:                                                                                                  #  CALLING SEQUENCE
000300:
000301:                                                                                                  #        ASTRONAUT REQUEST THRU DSKY
000302:
000303:                                                                                                  #        V37E39E         IF THIS VEHICLE IS ACTIVE VEHICLE
000304:                                                                                                  #        V37E79E         IF OTHER VEHICLE IS ACTIVE VEHICLE
000305:
000306:                                                                                                  #  INPUT
000307:
000308:                                                                                                  #        (1)  TPASS4     TIME OF INTERCEPT -- SAVED FROM P38/P78
000309:                                                                                                  #        (2)  TARGTIME   TIME THAT PASSIVE VEHICLE IS AT INTERCEPT POINT --
000310:                                                                                                  #                        SAVED FROM P38/P78
000311:
000312:                                                                                                  #  OUTPUT
000313:
000314:                                                                                                  #        (1)  TRKMKCNT   NUMBER OF MARKS.
000315:                                                                                                  #        (2)  TTOGO      TIME TO GO
000316:                                                                                                  #        (3)  +MGA       MIDDLE GIMBAL ANGLE
000317:                                                                                                  #        (4)  DELVLVC    DELTA VELOCITY AT MID - LOCAL VERTICAL COORDINATES
000318:
000319:                                                                                                  #  SUBROUTINES USED
000320:
000321:                                                                                                  #        AVFLAGA
000322:                                                                                                  #        AVFLAGP
000323:                                                                                                  #        LOADTIME
000324:                                                                                                  #        SELECTMU
000325:                                                                                                  #        PRECSET
000326:                                                                                                  #        S34/35.1
000327:                                                                                                  #        MAINRTNE
000328:
000329: 34,3521           04616        P39                TC       BANKCALL
000330: 34,3522           72347                           CADR     AVFLAGA                               #  THIS VEHICLE ACTIVE
000331: 34,3523           00006                           EXTEND
000332: 34,3524           31401                           DCA      ATIGINC
000333: 34,3525           03532                           TC       P39/P79A
000334: 34,3526           04616        P79                TC       BANKCALL
000335: 34,3527           72354                           CADR     AVFLAGP                               #  OTHER VEHICLE ACTIVE
000336: 34,3530           00006                           EXTEND
000337: 34,3531           31403                           DCA      PTIGINC
000338: 34,3532           53576        P39/P79A           DXCH     KT                                    #  TIME TO PREPARE FOR BURN
000339: 34,3533           04616                           TC       BANKCALL
000340: 34,3534           72361                           CADR     P20FLGON                              #  SET UPDATFLG, TRACKFLG
000341: 34,3535           06037                           TC       INTPRET
000342:                                                                                                  #  Page 729
000343: 34,3536           45014                           SET      CALL
000344: 34,3537           04066                                    P39/79SW
000345: 34,3540           20000                                    SELECTMU                              #  SELECT MU, CLEAR FINALFLG, GO TO VN1645
000346: 34,3541           43234        P39/P79B           RTB      DAD
000347: 34,3542           21573                                    LOADTIME
000348: 34,3543           03576                                    KT
000349: 34,3544           03442                           STORE    TIG                                   #  TIG = T (PRESENT) + PREPARATION TIME
000350: 34,3545           34041                           STCALL   TDEC1                                 #  PRECISION UPDATE ACTIVE AND PASSIVE
000351: 34,3546           46360                                    PRECSET                               #        VEHICLES TO TIG
000352: 34,3547           77624                           CALL
000353: 34,3550           73274                                    S34/35.1                              #  GET UNIT NORMAL
000354: 34,3551           52145                           DLOAD    GOTO
000355: 34,3552           02307                                    TARGTIME
000356: 34,3553           71434                                    MAINRTNE                              #  CALCULATE DELTA V AND DELTA V (LV)
000357:
000358:                                                                                                  #  .... PREC/TT ....
000359:
000360:                                                                                                  #  SUBROUTINES USED
000361:
000362:                                                                                                  #        PRECSET
000363:                                                                                                  #        TIMETHET
000364:                                                                                                  #        S34/35.1
000365:
000366: 34,3554           71220        PREC/TT            STQ      DLOAD
000367: 34,3555           03465                                    RTRN
000368: 34,3556           03442                                    TIG
000369: 34,3557           34041                           STCALL   TDEC1                                 #  PRECISION UPDATE ACTIVE AND PASSIVE
000370: 34,3560           46360                                    PRECSET                               #        VEHICLES TO TIG
000371: 34,3561           53775                           VLOAD    VSR*
000372: 34,3562           03552                                    RPASS3
000373: 34,3563           57176                                    0,2
000374: 34,3564           16655                           STODL    RVEC
000375: 34,3565           03621                                    CENTANG
000376: 34,3566           71406                           PUSH     COS
000377: 34,3567           16732                           STODL    CSTH
000378: 34,3570           43156                           SIN      SET
000379: 34,3571           03466                                    RVSW
000380: 34,3572           26730                           STOVL    SNTH
000381: 34,3573           03560                                    VPASS3
000382: 34,3574           77657                           VSR*
000383: 34,3575           57176                                    0,2
000384: 34,3576           36744                           STCALL   VVEC                                  #  GET TRANSFER TIME BASED ON CENTANG OF
000385: 34,3577           24732                                    TIMETHET                              #        PASSIVE VEHICLE
000386: 34,3600           77624                           CALL
000387: 34,3601           73274                                    S34/35.1                              #  GET UNIT NORMAL
000388: 34,3602           52145                           DLOAD    GOTO
000389: 34,3603           00037                                    T
000390: 34,3604           03465                                    RTRN
000391:
000392:                                                                                                  #  .... INTRPVP ....
000393:
000394:                                                                                                  #  SUBROUTINES USED
000395:
000396:                                                                                                  #        CSMPREC
000397:                                                                                                  #  Page 730
000398:                                                                                                  #        LEMPREC
000399:
000400: 34,3605           43020        INTRPVP            STQ      BOFF                                  #  PRECISION UPDATE PASSIVE VEHICLE TO
000401: 34,3606           03465                                    RTRN                                  #        TDEC1
000402: 34,3607           01352                                    AVFLAG
000403: 34,3610           71615                                    OTHERV
000404: 34,3611           77624                           CALL
000405: 34,3612           27043                                    CSMPREC
000406: 34,3613           77650                           GOTO
000407: 34,3614           03465                                    RTRN
000408: 34,3615           77624        OTHERV             CALL
000409: 34,3616           27057                                    LEMPREC
000410: 34,3617           77650                           GOTO
000411: 34,3620           03465                                    RTRN
000412:
000413:                                                                                                  #  .... VNDSPLY ....
000414:
000415:                                                                                                  #  SUBROUTINES USED
000416:
000417:                                                                                                  #        BANKCALL
000418:                                                                                                  #        GOFLASH
000419:                                                                                                  #        GOTOP00H
000420:
000421: 34,3621           00006        VNDSPLY            EXTEND                                         #  FLASH DISPLAY
000422: 34,3622           23465                           QXCH     RTRN
000423: 34,3623           55615                           TS       VERBNOUN
000424: 34,3624           31615                           CA       VERBNOUN
000425: 34,3625           04616                           TCR      BANKCALL
000426: 34,3626           20476                           CADR     GOFLASH
000427: 34,3627           16001                           TCF      GOTOP00H                              #  TERMINATE
000428: 34,3630           01465                           TC       RTRN                                  #  PROCEED
000429: 34,3631           13624                           TCF      -5                                    #  RECYCLE
000430: 34,3632           01441        V06N33SR           VN       0633
000431: 34,3633           01467        V06N55SR           VN       0655
000432: 34,3634           01006        V04N06SR           VN       0406
000433: 34,3635           01471        V06N57SR           VN       0657
000434: 34,3636           01442        V06N34SR           VN       0634
000435: 34,3637           01472        V06N58SR           VN       0658
000436: 34,3640           01521        V06N81SR           VN       0681
000437: 34,3641           00002        DECTWO             OCT      2
000438:
000439:                                                                                                  #  *** END OF KISSING  .050 ***
000440:
000441:
000442:

End of include-file STABLE_ORBIT.agc.  Parent file is MAIN.agc


