
Source Code
000001:                                                                                                 #  Copyright:     Public domain.
000002:                                                                                                 #  Filename:      STABLE_ORBIT.agc
000003:                                                                                                 #  Purpose:       Part of the source code for Luminary 1A build 099.
000004:                                                                                                 #                 It is part of the source code for the Lunar Module's (LM)
000005:                                                                                                 #                 Apollo Guidance Computer (AGC), for Apollo 11.
000006:                                                                                                 #  Assembler:     yaYUL
000007:                                                                                                 #  Contact:       Ron Burkey <info@sandroid.org>.
000008:                                                                                                 #  Website:       www.ibiblio.org/apollo.
000009:                                                                                                 #  Pages: 723-730
000010:                                                                                                 #  Mod history:   2009-05-19 RSB  Adapted from the corresponding
000011:                                                                                                 #                                 Colossus249 file (there being no corresponding
000012:                                                                                                 #                                 Luminary131 source-code file), using page
000013:                                                                                                 #                                 images from Luminary 1A.
000014:                                                                                                 #                 2009-06-07 RSB  Eliminated an extraneous instruction.
000015:
000016:                                                                                                 #  This source code has been transcribed or otherwise adapted from
000017:                                                                                                 #  digitized images of a hardcopy from the MIT Museum.  The digitization
000018:                                                                                                 #  was performed by Paul Fjeld, and arranged for by Deborah Douglas of
000019:                                                                                                 #  the Museum.  Many thanks to both.  The images (with suitable reduction
000020:                                                                                                 #  in storage size and consequent reduction in image quality as well) are
000021:                                                                                                 #  available online at www.ibiblio.org/apollo.  If for some reason you
000022:                                                                                                 #  find that the images are illegible, contact me at info@sandroid.org
000023:                                                                                                 #  about getting access to the (much) higher-quality images which Paul
000024:                                                                                                 #  actually created.
000025:
000026:                                                                                                 #  Notations on the hardcopy document read, in part:
000027:
000028:                                                                                                 #         Assemble revision 001 of AGC program LMY99 by NASA 2021112-61
000029:                                                                                                 #         16:27 JULY 14, 1969
000030:
000031:                                                                                                 #  Page 723
000032:                                                                                                 #  STABLE ORBIT RENDEZVOUS PROGRAMS (P38 AND P78)
000033:
000034:                                                                                                 #  MOD NO -1              LOG SECTION -- STABLE ORBIT -- P38-P39
000035:                                                                                                 #  MOD BY RUDNICKI.S      DATE 26JAN68
000036:
000037:                                                                                                 #  FUNCTIONAL DESCRIPTION
000038:
000039:                                                                                                 #         P38 AND P78 CALCULATE THE REQUIRED DELTA V AND OTHER INITIAL
000040:                                                                                                 #         CONDITIONS REQUIRED BY THE AGC TO (1) PUT THE ACTIVE VEHICLE
000041:                                                                                                 #         ON A TRANSFER TRAJECTORY THAT INTERCEPTS THE PASSIVE VEHICLE
000042:                                                                                                 #         ORBIT A GIVEN DISTANCE, DELTA R, EITHER AHEAD OF OR BEHIND THE
000043:                                                                                                 #         PASSIVE VEHICLE AND (2) ACTUALLY PLACE THE ACTIVE VEHICLE IN THE
000044:                                                                                                 #         PASSIVE VEHICLE ORBIT WITH A DELTA R SEPARATION BETWEEN THE TWO
000045:                                                                                                 #         VEHICLES
000046:
000047:                                                                                                 #  CALLING SEQUENCE
000048:
000049:                                                                                                 #         ASTRONAUT REQUEST THRU DSKY
000050:
000051:                                                                                                 #         V37E38E         IF THIS VEHICLE IS ACTIVE VEHICLE
000052:                                                                                                 #         V37E78E         IF OTHER VEHICLE IS ACTIVE VEHICLE
000053:
000054:                                                                                                 #  INPUT
000055:
000056:                                                                                                 #         (1)     SOI MANEUVER
000057:
000058:                                                                                                 #                 (A)  TIG        TIME OF SOI MANEUVER
000059:                                                                                                 #                 (B)  CENTANG    ORBITAL CENTRAL ANGLE OF THE PASSIVE VEHICLE
000060:                                                                                                 #                                 DURING THE TRANSFER FROM TIG TO TIME OF INTERCEPT
000061:                                                                                                 #                 (C)  DELTAR     THE DESIRED SEPARATION OF THE TWO VEHICLES
000062:                                                                                                 #                                 SPECIFIED AS A DISTANCE ALONG THE PASSIVE VEHICLE
000063:                                                                                                 #                                 ORBIT
000064:                                                                                                 #                 (D)  OPTION     EQUALS 1 FOR SOI
000065:
000066:                                                                                                 #         (2)     SOR MANEUVER
000067:
000068:                                                                                                 #                 (A)  TIG        TIME OF SOR MANEUVER
000069:                                                                                                 #                 (B)  CENTANG    AN OPTIONAL RESPECIFICATION OF 1 (B) ABOVE
000070:                                                                                                 #                 (C)  OPTION     EQUALS 2 FOR SOR
000071:                                                                                                 #                 (D)  DELTTIME   THE TIME REQUIRED TO TRAVERSE DELTA R WHEN
000072:                                                                                                 #                                 TRAVELING AT A VELOCITY EQUAL TO THE HORIZONTAL
000073:                                                                                                 #                                 VELOCITY OF THE PASSIVE VEHICLE -- SAVED FROM
000074:                                                                                                 #                                 SOI PHASE
000075:                                                                                                 #                 (E)  TINT       TIME OF INTERCEPT (SOI) -- SAVED FROM SOI PHASE
000076:
000077:                                                                                                 #  OUTPUT
000078:
000079:                                                                                                 #         (1)  TRKMKCNT   NUMBER OF MARKS
000080:                                                                                                 #         (2)  TTOGO      TIME TO GO
000081:                                                                                                 #         (3)  +MGA       MIDDLE GIMBAL ANGLE
000082:                                                                                                 #  Page 724
000083:                                                                                                 #         (4)  DSPTEM1    TIME OF INTERCEPT OF PASSIVE VEHICLE ORBIT
000084:                                                                                                 #                         (FOR SOI ONLY)
000085:                                                                                                 #         (5)  POSTTPI    PERIGEE ALTITUDE OF ACTIVE VEHICLE ORBIT AFTER
000086:                                                                                                 #                         THE SOI (SOR) MANEUVER
000087:                                                                                                 #         (6)  DELVTPI    MAGNITUDE OF DELTA V AT SOI (SOR) TIME
000088:                                                                                                 #         (7)  DELVTPF    MAGNITUDE OF DELTA V AT INTERCEPT TIME
000089:                                                                                                 #         (8)  DELTA      VELOCITY AT SOI (AND SOR) -- LOCAL VERTICAL
000090:                                                                                                 #                         CORDINATES
000091:
000092:                                                                                                 #  SUBROUTINE USED
000093:
000094:                                                                                                 #         AVFLAGA
000095:                                                                                                 #         AVFLAGP
000096:                                                                                                 #         VNDSPLY
000097:                                                                                                 #         BANKCALL
000098:                                                                                                 #         GOFLASHR
000099:                                                                                                 #         GOTOP00H
000100:                                                                                                 #         BLANKET
000101:                                                                                                 #         ENDOFJOB
000102:                                                                                                 #         PREC/TT
000103:                                                                                                 #         SELECTMU
000104:                                                                                                 #         INTRPVP
000105:                                                                                                 #         MAINRTNE
000106:
000107: 04,3013                                          BANK     04
000108: 34,2000                                          SETLOC   STBLEORB
000109: 34,2000                                          BANK
000110:
000111: 34,3271  E7,1470                                 EBANK=   SUBEXIT
000112: 34,3271                                          COUNT*   $$/P3879
000113:
000114: 34,3271           04616        P38               TC       BANKCALL
000115: 34,3272           72347                          CADR     AVFLAGA                               #  THIS VEHICLE ACTIVE
000116: 34,3273           03276                          TC       +3
000117: 34,3274           04616        P78               TC       BANKCALL
000118: 34,3275           72354                          CADR     AVFLAGP                               #  OTHER VEHICLE ACTIVE
000119: 34,3276           04616                          TC       BANKCALL
000120: 34,3277           72361                          CADR     P20FLGON                              #  SET UPDATFLG, TRACKFLG
000121: 34,3300           33641                          CAF      DECTWO
000122: 34,3301           55466                          TS       NN
000123: 34,3302           33632                          CAF      V06N33SR                              #  DISPLAY TIG
000124: 34,3303           03621                          TC       VNDSPLY
000125: 34,3304           33633                          CAF      V06N55SR                              #  DISPLAY CENTANG
000126: 34,3305           04616                          TCR      BANKCALL
000127: 34,3306           20635                          CADR     GOFLASHR
000128: 34,3307           16001                          TCF      GOTOP00H                              #  TERMINATE
000129: 34,3310           13315                          TCF      +5                                    #  PROCEED
000130: 34,3311           13304                          TCF      -5                                    #  RECYCLE
000131: 34,3312           36245                          CAF      THREE                                 #  IMMEDIATE RETURN -- BLANK R1, R2
000132: 34,3313           05464                          TCR      BLANKET
000133:                                                                                                 #  Page 725
000134: 34,3314           15155                          TCF      ENDOFJOB
000135: 34,3315           34756                          CAF      FIVE
000136: 34,3316           55144                          TS       OPTION1
000137: 34,3317           34753                          CAF      ONE
000138: 34,3320           55145                          TS       OPTION2                               #  OPTION CODE IS SET TO 1
000139: 34,3321           33634                          CAF      V04N06SR                              #  DISPLAY OPTION CODE -- 1 = SOI, 2 = SOR
000140: 34,3322           04616                          TCR      BANKCALL
000141: 34,3323           20635                          CADR     GOFLASHR
000142: 34,3324           16001                          TCF      GOTOP00H                              #  TERMINATE
000143: 34,3325           13332                          TCF      +5                                    #  PROCEED
000144: 34,3326           13321                          TCF      -5                                    #  RECYCLE
000145: 34,3327           34751                          CAF      BIT3                                  #  IMMEDIATE RETURN -- BLANK R3
000146: 34,3330           05464                          TCR      BLANKET
000147: 34,3331           15155                          TCF      ENDOFJOB
000148: 34,3332           06037                          TC       INTPRET
000149: 34,3333           70535                          SLOAD    SR1
000150: 34,3334           01146                                   OPTION2
000151: 34,3335           71230                          BHIZ     DLOAD
000152: 34,3336           71344                                   OPTN1
000153: 34,3337           03631                                   TINT
000154: 34,3340           02303                          STORE    TINTSOI                               #  STORE FOR SOR PHASE
000155: 34,3341           77614                          CLRGO
000156: 34,3342           01230                                   OPTNSW                                #  OPTNSW: ON = SOI, OFF = SOR
000157: 34,3343           71375                                   JUNCTN1
000158: 34,3344           43014        OPTN1             SET      CLEAR                                 #  SOI
000159: 34,3345           01070                                   OPTNSW
000160: 34,3346           00670                                   UPDATFLG
000161: 34,3347           77624                          CALL
000162: 34,3350           71554                                   PREC/TT
000163: 34,3351           43015                          DAD      SET
000164: 34,3352           03442                                   TIG
000165: 34,3353           00470                                   UPDATFLG
000166: 34,3354           03631                          STORE    TINT                                  #  TI = TIG + TF
000167: 34,3355           77776                          EXIT
000168: 34,3356           33635                          CAF      V06N57SR                              #  DISPLAY DELTA R
000169: 34,3357           04616                          TCR      BANKCALL
000170: 34,3360           20635                          CADR     GOFLASHR
000171: 34,3361           16001                          TCF      GOTOP00H                              #  TERMINATE
000172: 34,3362           13367                          TCF      +5                                    #  PROCEED
000173: 34,3363           13356                          TCF      -5                                    #  RECYCLE
000174: 34,3364           36242                          CAF      SIX                                   #  IMMEDIATE RETURN -- BLANK R2, R3
000175: 34,3365           05464                          TCR      BLANKET
000176: 34,3366           15155                          TCF      ENDOFJOB
000177: 34,3367           00006                 +5       EXTEND
000178: 34,3370           31631                          DCA      TINT
000179: 34,3371           53046                          DXCH     DSPTEM1                               #  FOR DISPLAY
000180: 34,3372           33636                          CAF      V06N34SR                              #  DISPLAY TIME OF INTERCEPT
000181: 34,3373           03621                          TC       VNDSPLY
000182: 34,3374           06037                          TC       INTPRET
000183: 34,3375           45014        JUNCTN1           CLEAR    CALL
000184:                                                                                                 #  Page 726
000185: 34,3376           04266                                   P39/79SW
000186: 34,3377           20000                                   SELECTMU                              #  SELECT MU, CLEAR FINALFLG, GO TO VN1645
000187: 34,3400           77624        RECYCLE           CALL
000188: 34,3401           71554                                   PREC/TT
000189: 34,3402           71214                          BOFF     DLOAD
000190: 34,3403           01350                                   OPTNSW
000191: 34,3404           71424                                   OPTN2
000192: 34,3405           03631                                   TINT
000193: 34,3406           34041                          STCALL   TDEC1                                 #  PRECISION UPDATE PASSIVE VEHICLE TO
000194: 34,3407           71605                                   INTRPVP                               #         INTERCEPT TIME
000195: 34,3410           53575                          VLOAD    UNIT
000196: 34,3411           00001                                   RATT                                  #  RP/(RP)
000197: 34,3412           47315                          PDVL     VXV
000198: 34,3413           00007                                   VATT
000199: 34,3414           60246                          ABVAL    NORM                                  #  (VP X RP/(RP))
000200: 34,3415           00047                                   X1
000201: 34,3416           56325                          PDDL     DDV
000202: 34,3417           02303                                   DELTAR
000203: 34,3420           77657                          SL*                                            #  DELTA R / (VP X RP/RP)
000204: 34,3421           20172                                   0          -7,1
000205: 34,3422           36305                          STCALL   DELTTIME                              #  DELTA T = (RP) DELTA R / (VP X RP)
000206: 34,3423           71430                                   JUNCTN2
000207: 34,3424           43345        OPTN2             DLOAD    DAD
000208: 34,3425           02303                                   TINTSOI
000209: 34,3426           00037                                   T
000210: 34,3427           03631                          STORE    TINT                                  #  TI = TI + TF
000211: 34,3430           45345        JUNCTN2           DLOAD    DSU
000212: 34,3431           03631                                   TINT
000213: 34,3432           02305                                   DELTTIME
000214: 34,3433           02307                          STORE    TARGTIME                              #  TT = TI - DELTA T
000215:
000216:                                                                                                 #  .... MAINRTNE ....
000217:
000218:                                                                                                 #  SUBROUTINES USED:
000219:
000220:                                                                                                 #         S3435.25
000221:                                                                                                 #         PERIAPO1
000222:                                                                                                 #         SHIFTR1
000223:                                                                                                 #         VNDSPLY
000224:                                                                                                 #         BANKCALL
000225:                                                                                                 #         GOFLASH
000226:                                                                                                 #         GOTOP00H
000227:                                                                                                 #         VN1645
000228:
000229: 34,3434           34041        MAINRTNE          STCALL   TDEC1                                 #  PRECISION UPDATE PASSIVE VEHICLE TO
000230: 34,3435           71605                                   INTRPVP                               #         TARGET TIME
000231: 34,3436           77745                          DLOAD
000232: 34,3437           03442                                   TIG
000233: 34,3440           03610                          STORE    INTIME
000234: 34,3441           77331                          SSP      VLOAD
000235: 34,3442           03471                                   SUBEXIT
000236: 34,3443           71447                                   TEST3979
000237:                                                                                                 #  Page 727
000238: 34,3444           00001                                   RATT
000239: 34,3445           77624                          CALL
000240: 34,3446           73327                                   S3435.25
000241: 34,3447           43014        TEST3979          BOFF     BON
000242: 34,3450           04346                                   P39/79SW
000243: 34,3451           71460                                   MAINRTN1
000244: 34,3452           01311                                   FINALFLG
000245: 34,3453           71456                                   P39P79
000246: 34,3454           77614                          SET
000247: 34,3455           00470                                   UPDATFLG
000248: 34,3456           77776        P39P79            EXIT
000249: 34,3457           03505                          TC       DSPLY81                               #  FOR P39 AND P79
000250: 34,3460           51575        MAINRTN1          VLOAD    ABVAL
000251: 34,3461           02366                                   DELVEET3
000252: 34,3462           27576                          STOVL    DELVTPI                               #  DELTA V
000253: 34,3463           03506                                   VPASS4
000254: 34,3464           51451                          VSU      ABVAL
000255: 34,3465           03566                                   VTPRIME
000256: 34,3466           26350                          STOVL    DELVTPF                               #  DELTA V (FINAL) = V*T - VT
000257: 34,3467           03536                                   RACT3
000258: 34,3470           45115                          PDVL     CALL
000259: 34,3471           02337                                   VIPRIME
000260: 34,3472           46316                                   PERIAPO1                              #  GET PERIGEE ALTITUDE
000261: 34,3473           77624                          CALL
000262: 34,3474           46426                                   SHIFTR1
000263: 34,3475           03606                          STORE    POSTTPI
000264: 34,3476           43014                          BON      SET
000265: 34,3477           01311                                   FINALFLG
000266: 34,3500           71502                                   DSPLY58
000267: 34,3501           00470                                   UPDATFLG
000268: 34,3502           77776        DSPLY58           EXIT
000269: 34,3503           33637                          CAF      V06N58SR                              #  DISPLAY HP, DELTA V, DELTA V (FINAL)
000270: 34,3504           03621                          TC       VNDSPLY
000271: 34,3505           33640        DSPLY81           CAF      V06N81SR                              #  DISPLAY DELTA V (LV)
000272: 34,3506           03621                          TC       VNDSPLY
000273: 34,3507           06037                          TC       INTPRET
000274: 34,3510           77214                          CLEAR    VLOAD
000275: 34,3511           01267                                   XDELVFLG
000276: 34,3512           02366                                   DELVEET3
000277: 34,3513           37656                          STCALL   DELVSIN
000278: 34,3514           73606                                   VN1645                                #  DISPLAY TRKMKCNT, TTOGO, +MGA
000279: 34,3515           52014                          BON      GOTO
000280: 34,3516           04306                                   P39/79SW
000281: 34,3517           71541                                   P39/P79B
000282: 34,3520           71400                                   RECYCLE
000283:
000284:                                                                                                 #  STABLE ORBIT MIDCOURSE PROGRAM (P39 AND P79)
000285:
000286:                                                                                                 #  MOD NO -1              LOG SECTION -- STABLE ORBIT -- P38-P39
000287:                                                                                                 #  MOD BY RUDNICKI, S     DATE 25JAN68
000288:
000289:                                                                                                 #  Page 728
000290:                                                                                                 #  FUNCTIONAL DESCRIPTION
000291:
000292:                                                                                                 #         P39 AND P79 CALCULATE THE REQUIRED DELTA V AND OTHER INITIAL
000293:                                                                                                 #         CONDITIONS REQUIRED BY THE AGC TO MAKE A MIDCOURSE CORRECTION
000294:                                                                                                 #         MANEUVER AFTER COMPLETING THE SOI MANEUVER BUT BEFORE MAKING
000295:                                                                                                 #         THE SOR MANEUVER.
000296:
000297:                                                                                                 #  CALLING SEQUENCE
000298:
000299:                                                                                                 #         ASTRONAUT REQUEST THRU DSKY
000300:
000301:                                                                                                 #         V37E39E         IF THIS VEHICLE IS ACTIVE VEHICLE
000302:                                                                                                 #         V37E79E         IF OTHER VEHICLE IS ACTIVE VEHICLE
000303:
000304:                                                                                                 #  INPUT
000305:
000306:                                                                                                 #         (1)  TPASS4     TIME OF INTERCEPT -- SAVED FROM P38/P78
000307:                                                                                                 #         (2)  TARGTIME   TIME THAT PASSIVE VEHICLE IS AT INTERCEPT POINT --
000308:                                                                                                 #                         SAVED FROM P38/P78
000309:
000310:                                                                                                 #  OUTPUT
000311:
000312:                                                                                                 #         (1)  TRKMKCNT   NUMBER OF MARKS.
000313:                                                                                                 #         (2)  TTOGO      TIME TO GO
000314:                                                                                                 #         (3)  +MGA       MIDDLE GIMBAL ANGLE
000315:                                                                                                 #         (4)  DELVLVC    DELTA VELOCITY AT MID - LOCAL VERTICAL COORDINATES
000316:
000317:                                                                                                 #  SUBROUTINES USED
000318:
000319:                                                                                                 #         AVFLAGA
000320:                                                                                                 #         AVFLAGP
000321:                                                                                                 #         LOADTIME
000322:                                                                                                 #         SELECTMU
000323:                                                                                                 #         PRECSET
000324:                                                                                                 #         S34/35.1
000325:                                                                                                 #         MAINRTNE
000326:
000327: 34,3521           04616        P39               TC       BANKCALL
000328: 34,3522           72347                          CADR     AVFLAGA                               #  THIS VEHICLE ACTIVE
000329: 34,3523           00006                          EXTEND
000330: 34,3524           31401                          DCA      ATIGINC
000331: 34,3525           03532                          TC       P39/P79A
000332: 34,3526           04616        P79               TC       BANKCALL
000333: 34,3527           72354                          CADR     AVFLAGP                               #  OTHER VEHICLE ACTIVE
000334: 34,3530           00006                          EXTEND
000335: 34,3531           31403                          DCA      PTIGINC
000336: 34,3532           53576        P39/P79A          DXCH     KT                                    #  TIME TO PREPARE FOR BURN
000337: 34,3533           04616                          TC       BANKCALL
000338: 34,3534           72361                          CADR     P20FLGON                              #  SET UPDATFLG, TRACKFLG
000339: 34,3535           06037                          TC       INTPRET
000340:                                                                                                 #  Page 729
000341: 34,3536           45014                          SET      CALL
000342: 34,3537           04066                                   P39/79SW
000343: 34,3540           20000                                   SELECTMU                              #  SELECT MU, CLEAR FINALFLG, GO TO VN1645
000344: 34,3541           43234        P39/P79B          RTB      DAD
000345: 34,3542           21573                                   LOADTIME
000346: 34,3543           03576                                   KT
000347: 34,3544           03442                          STORE    TIG                                   #  TIG = T (PRESENT) + PREPARATION TIME
000348: 34,3545           34041                          STCALL   TDEC1                                 #  PRECISION UPDATE ACTIVE AND PASSIVE
000349: 34,3546           46360                                   PRECSET                               #         VEHICLES TO TIG
000350: 34,3547           77624                          CALL
000351: 34,3550           73274                                   S34/35.1                              #  GET UNIT NORMAL
000352: 34,3551           52145                          DLOAD    GOTO
000353: 34,3552           02307                                   TARGTIME
000354: 34,3553           71434                                   MAINRTNE                              #  CALCULATE DELTA V AND DELTA V (LV)
000355:
000356:                                                                                                 #  .... PREC/TT ....
000357:
000358:                                                                                                 #  SUBROUTINES USED
000359:
000360:                                                                                                 #         PRECSET
000361:                                                                                                 #         TIMETHET
000362:                                                                                                 #         S34/35.1
000363:
000364: 34,3554           71220        PREC/TT           STQ      DLOAD
000365: 34,3555           03465                                   RTRN
000366: 34,3556           03442                                   TIG
000367: 34,3557           34041                          STCALL   TDEC1                                 #  PRECISION UPDATE ACTIVE AND PASSIVE
000368: 34,3560           46360                                   PRECSET                               #         VEHICLES TO TIG
000369: 34,3561           53775                          VLOAD    VSR*
000370: 34,3562           03552                                   RPASS3
000371: 34,3563           57176                                   0,2
000372: 34,3564           16655                          STODL    RVEC
000373: 34,3565           03621                                   CENTANG
000374: 34,3566           71406                          PUSH     COS
000375: 34,3567           16732                          STODL    CSTH
000376: 34,3570           43156                          SIN      SET
000377: 34,3571           03466                                   RVSW
000378: 34,3572           26730                          STOVL    SNTH
000379: 34,3573           03560                                   VPASS3
000380: 34,3574           77657                          VSR*
000381: 34,3575           57176                                   0,2
000382: 34,3576           36744                          STCALL   VVEC                                  #  GET TRANSFER TIME BASED ON CENTANG OF
000383: 34,3577           24732                                   TIMETHET                              #         PASSIVE VEHICLE
000384: 34,3600           77624                          CALL
000385: 34,3601           73274                                   S34/35.1                              #  GET UNIT NORMAL
000386: 34,3602           52145                          DLOAD    GOTO
000387: 34,3603           00037                                   T
000388: 34,3604           03465                                   RTRN
000389:
000390:                                                                                                 #  .... INTRPVP ....
000391:
000392:                                                                                                 #  SUBROUTINES USED
000393:
000394:                                                                                                 #         CSMPREC
000395:                                                                                                 #  Page 730
000396:                                                                                                 #         LEMPREC
000397:
000398: 34,3605           43020        INTRPVP           STQ      BOFF                                  #  PRECISION UPDATE PASSIVE VEHICLE TO
000399: 34,3606           03465                                   RTRN                                  #         TDEC1
000400: 34,3607           01352                                   AVFLAG
000401: 34,3610           71615                                   OTHERV
000402: 34,3611           77624                          CALL
000403: 34,3612           27043                                   CSMPREC
000404: 34,3613           77650                          GOTO
000405: 34,3614           03465                                   RTRN
000406: 34,3615           77624        OTHERV            CALL
000407: 34,3616           27057                                   LEMPREC
000408: 34,3617           77650                          GOTO
000409: 34,3620           03465                                   RTRN
000410:
000411:                                                                                                 #  .... VNDSPLY ....
000412:
000413:                                                                                                 #  SUBROUTINES USED
000414:
000415:                                                                                                 #         BANKCALL
000416:                                                                                                 #         GOFLASH
000417:                                                                                                 #         GOTOP00H
000418:
000419: 34,3621           00006        VNDSPLY           EXTEND                                         #  FLASH DISPLAY
000420: 34,3622           23465                          QXCH     RTRN
000421: 34,3623           55615                          TS       VERBNOUN
000422: 34,3624           31615                          CA       VERBNOUN
000423: 34,3625           04616                          TCR      BANKCALL
000424: 34,3626           20476                          CADR     GOFLASH
000425: 34,3627           16001                          TCF      GOTOP00H                              #  TERMINATE
000426: 34,3630           01465                          TC       RTRN                                  #  PROCEED
000427: 34,3631           13624                          TCF      -5                                    #  RECYCLE
000428: 34,3632           01441        V06N33SR          VN       0633
000429: 34,3633           01467        V06N55SR          VN       0655
000430: 34,3634           01006        V04N06SR          VN       0406
000431: 34,3635           01471        V06N57SR          VN       0657
000432: 34,3636           01442        V06N34SR          VN       0634
000433: 34,3637           01472        V06N58SR          VN       0658
000434: 34,3640           01521        V06N81SR          VN       0681
000435: 34,3641           00002        DECTWO            OCT      2
000436:
000437:                                                                                                 #  *** END OF KISSING  .050 ***
000438:
000439:
000440:

End of include-file STABLE_ORBIT.agc.  Parent file is MAIN.agc


