
Source Code


000002:                                                                                                  ## Copyright:   Public domain.
000003:                                                                                                  ## Filename:    STABLE_ORBIT_-_P38-P39.agc
000004:                                                                                                  ## Purpose:     Part of the source code for Luminary 1A build 099.
000005:                                                                                                  ##              It is part of the source code for the Lunar Module's (LM)
000006:                                                                                                  ##              Apollo Guidance Computer (AGC), for Apollo 11.
000007:                                                                                                  ## Assembler:   yaYUL
000008:                                                                                                  ## Contact:     Ron Burkey <info@sandroid.org>.
000009:                                                                                                  ## Website:     www.ibiblio.org/apollo.
000010:                                                                                                  ## Pages:       723-730
000011:                                                                                                  ## Mod history: 2009-05-19 RSB  Adapted from the corresponding
000012:                                                                                                  ##                              Colossus249 file (there being no corresponding
000013:                                                                                                  ##                              Luminary131 source-code file), using page
000014:                                                                                                  ##                              images from Luminary 1A.
000015:                                                                                                  ##              2009-06-07 RSB  Eliminated an extraneous instruction.
000016:                                                                                                  ##              2011-01-06 JL   Fixed pseudo-label indentation.
000017:                                                                                                  ##              2016-12-13 RSB  GOTOP00H -> GOTOPOOH
000018:                                                                                                  ##              2016-12-15 RSB  Proofed text comments with octopus/ProoferComments
000019:                                                                                                  ##                              and corrected the errors found.
000020:                                                                                                  ##              2017-01-28 RSB  Back-ported a comment-text fix from proofing
000021:                                                                                                  ##                              of Luminary 69.  Also, changed the filename
000022:                                                                                                  ##                              (from STABLE_ORBIT.agc) so as to agree with
000023:                                                                                                  ##                              the other AGC versions having a corresponding
000024:                                                                                                  ##                              log section (making it easier to perform diffs
000025:                                                                                                  ##                              between versions), and to agree with what it
000026:                                                                                                  ##                              says in ASSEMBLY AND OPERATION INFORMATION.
000027:                                                                                                  ##              2017-03-17 RSB  Comment-text fixes identified in diff'ing
000028:                                                                                                  ##                              Luminary 99 vs Comanche 55.
000029:
000030:                                                                                                  ## This source code has been transcribed or otherwise adapted from
000031:                                                                                                  ## digitized images of a hardcopy from the MIT Museum.  The digitization
000032:                                                                                                  ## was performed by Paul Fjeld, and arranged for by Deborah Douglas of
000033:                                                                                                  ## the Museum.  Many thanks to both.  The images (with suitable reduction
000034:                                                                                                  ## in storage size and consequent reduction in image quality as well) are
000035:                                                                                                  ## available online at www.ibiblio.org/apollo.  If for some reason you
000036:                                                                                                  ## find that the images are illegible, contact me at info@sandroid.org
000037:                                                                                                  ## about getting access to the (much) higher-quality images which Paul
000038:                                                                                                  ## actually created.
000039:                                                                                                  ##
000040:                                                                                                  ## Notations on the hardcopy document read, in part:
000041:                                                                                                  ##
000042:                                                                                                  ##      Assemble revision 001 of AGC program LMY99 by NASA 2021112-61
000043:                                                                                                  ##      16:27 JULY 14, 1969
000044:


000046:                                                                                                  #  STABLE ORBIT RENDEZVOUS PROGRAMS (P38 AND P78)
000047:
000048:                                                                                                  #  MOD NO -1             LOG SECTION - STABLE ORBIT - P38-P39
000049:                                                                                                  #  MOD BY RUDNICKI.S     DATE 25JAN68
000050:
000051:                                                                                                  #  FUNCTIONAL DESCRIPTION
000052:
000053:                                                                                                  #        P38 AND P78 CALCULATE THE REQUIRED DELTA V AND OTHER INITIAL
000054:                                                                                                  #        CONDITIONS REQUIRED BY THE AGC TO (1) PUT THE ACTIVE VEHICLE
000055:                                                                                                  #        ON A TRANSFER TRAJECTORY THAT INTERCEPTS THE PASSIVE VEHICLE
000056:                                                                                                  #        ORBIT A GIVEN DISTANCE, DELTA R, EITHER AHEAD OF OR BEHIND THE
000057:                                                                                                  #        PASSIVE VEHICLE AND (2) ACTUALLY PLACE THE ACTIVE VEHICLE IN THE
000058:                                                                                                  #        PASSIVE VEHICLE ORBIT WITH A DELTA R SEPARATION BETWEEN THE TWO
000059:                                                                                                  #        VEHICLES
000060:
000061:                                                                                                  #  CALLING SEQUENCE
000062:
000063:                                                                                                  #        ASTRONAUT REQUEST THRU DSKY
000064:
000065:                                                                                                  #        V37E38E         IF THIS VEHICLE IS ACTIVE VEHICLE
000066:                                                                                                  #        V37E78E         IF OTHER VEHICLE IS ACTIVE VEHICLE
000067:
000068:                                                                                                  #  INPUT
000069:
000070:                                                                                                  #        (1)     SOI MANEUVER
000071:
000072:                                                                                                  #                (A)  TIG        TIME OF SOI MANEUVER
000073:                                                                                                  #                (B)  CENTANG    ORBITAL CENTRAL ANGLE OF THE PASSIVE VEHICLE
000074:                                                                                                  #                                DURING TRANSFER FROM TIG TO TIME OF INTERCEPT
000075:                                                                                                  #                (C)  DELTAR     THE DESIRED SEPARATION OF THE TWO VEHICLES
000076:                                                                                                  #                                SPECIFIED AS A DISTANCE ALONG THE PASSIVE VEHICLE
000077:                                                                                                  #                                ORBIT
000078:                                                                                                  #                (D)  OPTION     EQUALS 1 FOR SOI
000079:
000080:                                                                                                  #        (2)     SOR MANEUVER
000081:
000082:                                                                                                  #                (A)  TIG        TIME OF SOR MANEUVER
000083:                                                                                                  #                (B)  CENTANG    AN OPTIONAL RESPECIFICATION OF 1 (B) ABOVE
000084:                                                                                                  #                (C)  OPTION     EQUALS 2 FOR SOR
000085:                                                                                                  #                (D)  DELTTIME   THE TIME REQUIRED TO TRAVERSE DELTA R WHEN
000086:                                                                                                  #                                TRAVELING AT A VELOCITY EQUAL TO THE HORIZONTAL
000087:                                                                                                  #                                VELOCITY OF THE PASSIVE VEHICLE - SAVED FROM
000088:                                                                                                  #                                SOI PHASE
000089:                                                                                                  #                (E)  TINT       TIME OF INTERCEPT (SOI) - SAVED FROM SOI PHASE
000090:
000091:                                                                                                  #  OUTPUT
000092:
000093:                                                                                                  #        (1)  TRKMKCNT   NUMBER OF MARKS
000094:                                                                                                  #        (2)  TTOGO      TIME TO GO
000095:                                                                                                  #        (3)  +MGA       MIDDLE GIMBAL ANGLE


000097:                                                                                                  #        (4)  DSPTEM1    TIME OF INTERCEPT OF PASSIVE VEHICLE ORBIT
000098:                                                                                                  #                        (FOR SOI ONLY)
000099:                                                                                                  #        (5)  POSTTPI    PERIGEE ALTITUDE OF ACTIVE VEHICLE ORBIT AFTER
000100:                                                                                                  #                        THE SOI (SOR) MANEUVER
000101:                                                                                                  #        (6)  DELVTPI    MAGNITUDE OF DELTA V AT SOI (SOR) TIME
000102:                                                                                                  #        (7)  DELVTPF    MAGNITUDE OF DELTA V AT INTERCEPT TIME
000103:                                                                                                  #        (8)  DELVLVC    DELTA VELOCITY AT SOI (AND SOR) - LOCAL VERTICAL
000104:                                                                                                  #                        COORDINATES
000105:
000106:                                                                                                  #  SUBROUTINES USED
000107:
000108:                                                                                                  #        AVFLAGA
000109:                                                                                                  #        AVFLAGP
000110:                                                                                                  #        VNDSPLY
000111:                                                                                                  #        BANKCALL
000112:                                                                                                  #        GOFLASHR
000113:                                                                                                  #        GOTOPOOH
000114:                                                                                                  #        BLANKET
000115:                                                                                                  #        ENDOFJOB
000116:                                                                                                  #        PREC/TT
000117:                                                                                                  #        SELECTMU
000118:                                                                                                  #        INTRPVP
000119:                                                                                                  #        MAINRTNE
000120:
000121: 04,3013                                           BANK     04
000122: 34,2000                                           SETLOC   STBLEORB
000123: 34,2000                                           BANK
000124:
000125: 34,3271  E7,1470                                  EBANK=   SUBEXIT
000126: 34,3271                                           COUNT*   $$/P3879
000127:
000128: 34,3271           04616        P38                TC       BANKCALL
000129: 34,3272           72347                           CADR     AVFLAGA                               #  THIS VEHICLE ACTIVE
000130: 34,3273           03276                           TC       +3
000131: 34,3274           04616        P78                TC       BANKCALL
000132: 34,3275           72354                           CADR     AVFLAGP                               #  OTHER VEHICLE ACTIVE
000133: 34,3276           04616                           TC       BANKCALL
000134: 34,3277           72361                           CADR     P20FLGON                              #  SET UPDATFLG, TRACKFLG
000135: 34,3300           33641                           CAF      DECTWO
000136: 34,3301           55466                           TS       NN
000137: 34,3302           33632                           CAF      V06N33SR                              #  DISPLAY TIG
000138: 34,3303           03621                           TC       VNDSPLY
000139: 34,3304           33633                           CAF      V06N55SR                              #  DISPLAY CENTANG
000140: 34,3305           04616                           TCR      BANKCALL
000141: 34,3306           20635                           CADR     GOFLASHR
000142: 34,3307           16001                           TCF      GOTOPOOH                              #  TERMINATE
000143: 34,3310           13315                           TCF      +5                                    #  PROCEED
000144: 34,3311           13304                           TCF      -5                                    #  RECYCLE
000145: 34,3312           36245                           CAF      THREE                                 #  IMMEDIATE RETURN - BLANK R1, R2
000146: 34,3313           05464                           TCR      BLANKET


000148: 34,3314           15155                           TCF      ENDOFJOB
000149: 34,3315           34756                           CAF      FIVE
000150: 34,3316           55144                           TS       OPTION1
000151: 34,3317           34753                           CAF      ONE
000152: 34,3320           55145                           TS       OPTION2                               #  OPTION CODE IS SET TO 1
000153: 34,3321           33634                           CAF      V04N06SR                              #  DISPLAY OPTION CODE - 1 = SOI, 2 = SOR
000154: 34,3322           04616                           TCR      BANKCALL
000155: 34,3323           20635                           CADR     GOFLASHR
000156: 34,3324           16001                           TCF      GOTOPOOH                              #  TERMINATE
000157: 34,3325           13332                           TCF      +5                                    #  PROCEED
000158: 34,3326           13321                           TCF      -5                                    #  RECYCLE
000159: 34,3327           34751                           CAF      BIT3                                  #  IMMEDIATE RETURN - BLANK R3
000160: 34,3330           05464                           TCR      BLANKET
000161: 34,3331           15155                           TCF      ENDOFJOB
000162: 34,3332           06037                           TC       INTPRET
000163: 34,3333           70535                           SLOAD    SR1
000164: 34,3334           01146                                    OPTION2
000165: 34,3335           71230                           BHIZ     DLOAD
000166: 34,3336           71344                                    OPTN1
000167: 34,3337           03631                                    TINT
000168: 34,3340           02303                           STORE    TINTSOI                               #  STORE FOR SOR PHASE
000169: 34,3341           77614                           CLRGO
000170: 34,3342           01230                                    OPTNSW                                #  OPTNSW; ON = SOI, OFF = SOR
000171: 34,3343           71375                                    JUNCTN1
000172: 34,3344           43014        OPTN1              SET      CLEAR                                 #  SOI
000173: 34,3345           01070                                    OPTNSW
000174: 34,3346           00670                                    UPDATFLG
000175: 34,3347           77624                           CALL
000176: 34,3350           71554                                    PREC/TT
000177: 34,3351           43015                           DAD      SET
000178: 34,3352           03442                                    TIG
000179: 34,3353           00470                                    UPDATFLG
000180: 34,3354           03631                           STORE    TINT                                  #  TI = TIG + TF
000181: 34,3355           77776                           EXIT
000182: 34,3356           33635                           CAF      V06N57SR                              #  DISPLAY DELTA R
000183: 34,3357           04616                           TCR      BANKCALL
000184: 34,3360           20635                           CADR     GOFLASHR
000185: 34,3361           16001                           TCF      GOTOPOOH                              #  TERMINATE
000186: 34,3362           13367                           TCF      +5                                    #  PROCEED
000187: 34,3363           13356                           TCF      -5                                    #  RECYCLE
000188: 34,3364           36242                           CAF      SIX                                   #  IMMEDIATE RETURN - BLANK R2, R3
000189: 34,3365           05464                           TCR      BLANKET
000190: 34,3366           15155                           TCF      ENDOFJOB
000191: 34,3367           00006                 +5        EXTEND
000192: 34,3370           31631                           DCA      TINT
000193: 34,3371           53046                           DXCH     DSPTEM1                               #  FOR DISPLAY
000194: 34,3372           33636                           CAF      V06N34SR                              #  DISPLAY TIME OF INTERCEPT
000195: 34,3373           03621                           TC       VNDSPLY
000196: 34,3374           06037                           TC       INTPRET
000197: 34,3375           45014        JUNCTN1            CLEAR    CALL


000199: 34,3376           04266                                    P39/79SW
000200: 34,3377           20000                                    SELECTMU                              #  SELECT MU, CLEAR FINALFLG, GO TO VN1645
000201: 34,3400           77624        RECYCLE            CALL
000202: 34,3401           71554                                    PREC/TT
000203: 34,3402           71214                           BOFF     DLOAD
000204: 34,3403           01350                                    OPTNSW
000205: 34,3404           71424                                    OPTN2
000206: 34,3405           03631                                    TINT
000207: 34,3406           34041                           STCALL   TDEC1                                 #  PRECISION UPDATE PASSIVE VEHICLE TO
000208: 34,3407           71605                                    INTRPVP                               #        INTERCEPT TIME
000209: 34,3410           53575                           VLOAD    UNIT
000210: 34,3411           00001                                    RATT                                  #  RP/(RP)
000211: 34,3412           47315                           PDVL     VXV
000212: 34,3413           00007                                    VATT
000213: 34,3414           60246                           ABVAL    NORM                                  #  (VP X RP/(RP))
000214: 34,3415           00047                                    X1
000215: 34,3416           56325                           PDDL     DDV
000216: 34,3417           02303                                    DELTAR
000217: 34,3420           77657                           SL*                                            #  DELTA R / (VP X RP/RP)
000218: 34,3421           20172                                    0          -7,1
000219: 34,3422           36305                           STCALL   DELTTIME                              #  DELTA T = (RP) DELTA R / (VP X RP)
000220: 34,3423           71430                                    JUNCTN2
000221: 34,3424           43345        OPTN2              DLOAD    DAD
000222: 34,3425           02303                                    TINTSOI
000223: 34,3426           00037                                    T
000224: 34,3427           03631                           STORE    TINT                                  #  TI = TI + TF
000225: 34,3430           45345        JUNCTN2            DLOAD    DSU
000226: 34,3431           03631                                    TINT
000227: 34,3432           02305                                    DELTTIME
000228: 34,3433           02307                           STORE    TARGTIME                              #  TT = TI - DELTA T
000229:
000230:                                                                                                  #  .... MAINRTNE ....
000231:
000232:                                                                                                  #  SUBROUTINES USED
000233:
000234:                                                                                                  #        S3435.25
000235:                                                                                                  #        PERIAPO1
000236:                                                                                                  #        SHIFTR1
000237:                                                                                                  #        VNDSPLY
000238:                                                                                                  #        BANKCALL
000239:                                                                                                  #        GOFLASH
000240:                                                                                                  #        GOTOPOOH
000241:                                                                                                  #        VN1645
000242:
000243: 34,3434           34041        MAINRTNE           STCALL   TDEC1                                 #  PRECISION UPDATE PASSIVE VEHICLE TO
000244: 34,3435           71605                                    INTRPVP                               #        TARGET TIME
000245: 34,3436           77745                           DLOAD
000246: 34,3437           03442                                    TIG
000247: 34,3440           03610                           STORE    INTIME
000248: 34,3441           77331                           SSP      VLOAD
000249: 34,3442           03471                                    SUBEXIT
000250: 34,3443           71447                                    TEST3979


000252: 34,3444           00001                                    RATT
000253: 34,3445           77624                           CALL
000254: 34,3446           73327                                    S3435.25
000255: 34,3447           43014        TEST3979           BOFF     BON
000256: 34,3450           04346                                    P39/79SW
000257: 34,3451           71460                                    MAINRTN1
000258: 34,3452           01311                                    FINALFLG
000259: 34,3453           71456                                    P39P79
000260: 34,3454           77614                           SET
000261: 34,3455           00470                                    UPDATFLG
000262: 34,3456           77776        P39P79             EXIT
000263: 34,3457           03505                           TC       DSPLY81                               #  FOR P39 AND P79
000264: 34,3460           51575        MAINRTN1           VLOAD    ABVAL
000265: 34,3461           02366                                    DELVEET3
000266: 34,3462           27576                           STOVL    DELVTPI                               #  DELTA V
000267: 34,3463           03506                                    VPASS4
000268: 34,3464           51451                           VSU      ABVAL
000269: 34,3465           03566                                    VTPRIME
000270: 34,3466           26350                           STOVL    DELVTPF                               #  DELTA V (FINAL) = V'T - VT
000271: 34,3467           03536                                    RACT3
000272: 34,3470           45115                           PDVL     CALL
000273: 34,3471           02337                                    VIPRIME
000274: 34,3472           46316                                    PERIAPO1                              #  GET PERIGEE ALTITUDE
000275: 34,3473           77624                           CALL
000276: 34,3474           46426                                    SHIFTR1
000277: 34,3475           03606                           STORE    POSTTPI
000278: 34,3476           43014                           BON      SET
000279: 34,3477           01311                                    FINALFLG
000280: 34,3500           71502                                    DSPLY58
000281: 34,3501           00470                                    UPDATFLG
000282: 34,3502           77776        DSPLY58            EXIT
000283: 34,3503           33637                           CAF      V06N58SR                              #  DISPLAY HP, DELTA V, DELTA V (FINAL)
000284: 34,3504           03621                           TC       VNDSPLY
000285: 34,3505           33640        DSPLY81            CAF      V06N81SR                              #  DISPLAY DELTA V (LV)
000286: 34,3506           03621                           TC       VNDSPLY
000287: 34,3507           06037                           TC       INTPRET
000288: 34,3510           77214                           CLEAR    VLOAD
000289: 34,3511           01267                                    XDELVFLG
000290: 34,3512           02366                                    DELVEET3
000291: 34,3513           37656                           STCALL   DELVSIN
000292: 34,3514           73606                                    VN1645                                #  DISPLAY TRKMKCNT, TTOGO, +MGA
000293: 34,3515           52014                           BON      GOTO
000294: 34,3516           04306                                    P39/79SW
000295: 34,3517           71541                                    P39/P79B
000296: 34,3520           71400                                    RECYCLE
000297:
000298:                                                                                                  #  STABLE ORBIT MIDCOURSE PROGRAM (P39 AND P79)
000299:
000300:                                                                                                  #  MOD NO -1             LOG SECTION - STABLE ORBIT - P38-P39
000301:                                                                                                  #  MOD BY RUDNICKI.S     DATE 25JAN68
000302:


000304:                                                                                                  #  FUNCTIONAL DESCRIPTION
000305:
000306:                                                                                                  #        P39 AND P79 CALCULATE THE REQUIRED DELTA V AND OTHER INITIAL
000307:                                                                                                  #        CONDITIONS REQUIRED BY THE AGC TO MAKE A MIDCOURSE CORRECTION
000308:                                                                                                  #        MANEUVER AFTER COMPLETING THE SOI MANEUVER BUT BEFORE MAKING
000309:                                                                                                  #        THE SOR MANEUVER
000310:
000311:                                                                                                  #  CALLING SEQUENCE
000312:
000313:                                                                                                  #        ASTRONAUT REQUEST THRU DSKY
000314:
000315:                                                                                                  #        V37E39E         IF THIS VEHICLE IS ACTIVE VEHICLE
000316:                                                                                                  #        V37E79E         IF OTHER VEHICLE IS ACTIVE VEHICLE
000317:
000318:                                                                                                  #  INPUT
000319:
000320:                                                                                                  #        (1)  TPASS4     TIME OF INTERCEPT - SAVED FROM P38/P78
000321:                                                                                                  #        (2)  TARGTIME   TIME THAT PASSIVE VEHICLE IS AT INTERCEPT POINT -
000322:                                                                                                  #                        SAVED FROM P38/P78
000323:
000324:                                                                                                  #  OUTPUT
000325:
000326:                                                                                                  #        (1)  TRKMKCNT   NUMBER OF MARKS
000327:                                                                                                  #        (2)  TTOGO      TIME TO GO
000328:                                                                                                  #        (3)  +MGA       MIDDLE GIMBAL ANGLE
000329:                                                                                                  #        (4)  DELVLVC    DELTA VELOCITY AT MID - LOCAL VERTICAL COORDINATES
000330:
000331:                                                                                                  #  SUBROUTINES USED
000332:
000333:                                                                                                  #        AVFLAGA
000334:                                                                                                  #        AVFLAGP
000335:                                                                                                  #        LOADTIME
000336:                                                                                                  #        SELECTMU
000337:                                                                                                  #        PRECSET
000338:                                                                                                  #        S34/35.1
000339:                                                                                                  #        MAINRTNE
000340:
000341: 34,3521           04616        P39                TC       BANKCALL
000342: 34,3522           72347                           CADR     AVFLAGA                               #  THIS VEHICLE ACTIVE
000343: 34,3523           00006                           EXTEND
000344: 34,3524           31401                           DCA      ATIGINC
000345: 34,3525           03532                           TC       P39/P79A
000346: 34,3526           04616        P79                TC       BANKCALL
000347: 34,3527           72354                           CADR     AVFLAGP                               #  OTHER VEHICLE ACTIVE
000348: 34,3530           00006                           EXTEND
000349: 34,3531           31403                           DCA      PTIGINC
000350: 34,3532           53576        P39/P79A           DXCH     KT                                    #  TIME TO PREPARE FOR BURN
000351: 34,3533           04616                           TC       BANKCALL
000352: 34,3534           72361                           CADR     P20FLGON                              #  SET UPDATFLG, TRACKFLG
000353: 34,3535           06037                           TC       INTPRET


000355: 34,3536           45014                           SET      CALL
000356: 34,3537           04066                                    P39/79SW
000357: 34,3540           20000                                    SELECTMU                              #  SELECT MU, CLEAR FINALFLG, GO TO VN1645
000358: 34,3541           43234        P39/P79B           RTB      DAD
000359: 34,3542           21573                                    LOADTIME
000360: 34,3543           03576                                    KT
000361: 34,3544           03442                           STORE    TIG                                   #  TIG = T (PRESENT) + PREPARATION TIME
000362: 34,3545           34041                           STCALL   TDEC1                                 #  PRECISION UPDATE ACTIVE AND PASSIVE
000363: 34,3546           46360                                    PRECSET                               #        VEHICLES TO TIG
000364: 34,3547           77624                           CALL
000365: 34,3550           73274                                    S34/35.1                              #  GET UNIT NORMAL
000366: 34,3551           52145                           DLOAD    GOTO
000367: 34,3552           02307                                    TARGTIME
000368: 34,3553           71434                                    MAINRTNE                              #  CALCULATE DELTA V AND DELTA V (LV)
000369:
000370:                                                                                                  #  .... PREC/TT ....
000371:
000372:                                                                                                  #  SUBROUTINES USED
000373:
000374:                                                                                                  #        PRECSET
000375:                                                                                                  #        TIMETHET
000376:                                                                                                  #        S34/35.1
000377:
000378: 34,3554           71220        PREC/TT            STQ      DLOAD
000379: 34,3555           03465                                    RTRN
000380: 34,3556           03442                                    TIG
000381: 34,3557           34041                           STCALL   TDEC1                                 #  PRECISION UPDATE ACTIVE AND PASSIVE
000382: 34,3560           46360                                    PRECSET                               #        VEHICLES TO TIG
000383: 34,3561           53775                           VLOAD    VSR*
000384: 34,3562           03552                                    RPASS3
000385: 34,3563           57176                                    0,2
000386: 34,3564           16655                           STODL    RVEC
000387: 34,3565           03621                                    CENTANG
000388: 34,3566           71406                           PUSH     COS
000389: 34,3567           16732                           STODL    CSTH
000390: 34,3570           43156                           SIN      SET
000391: 34,3571           03466                                    RVSW
000392: 34,3572           26730                           STOVL    SNTH
000393: 34,3573           03560                                    VPASS3
000394: 34,3574           77657                           VSR*
000395: 34,3575           57176                                    0,2
000396: 34,3576           36744                           STCALL   VVEC                                  #  GET TRANSFER TIME BASED ON CENTANG OF
000397: 34,3577           24732                                    TIMETHET                              #        PASSIVE VEHICLE
000398: 34,3600           77624                           CALL
000399: 34,3601           73274                                    S34/35.1                              #  GET UNIT NORMAL
000400: 34,3602           52145                           DLOAD    GOTO
000401: 34,3603           00037                                    T
000402: 34,3604           03465                                    RTRN
000403:
000404:                                                                                                  #  .... INTRPVP ....
000405:
000406:                                                                                                  #  SUBROUTINES USED
000407:
000408:                                                                                                  #        CSMPREC


000410:                                                                                                  #        LEMPREC
000411:
000412: 34,3605           43020        INTRPVP            STQ      BOFF                                  #  PRECISION UPDATE PASSIVE VEHICLE TO
000413: 34,3606           03465                                    RTRN                                  #        TDEC1
000414: 34,3607           01352                                    AVFLAG
000415: 34,3610           71615                                    OTHERV
000416: 34,3611           77624                           CALL
000417: 34,3612           27043                                    CSMPREC
000418: 34,3613           77650                           GOTO
000419: 34,3614           03465                                    RTRN
000420: 34,3615           77624        OTHERV             CALL
000421: 34,3616           27057                                    LEMPREC
000422: 34,3617           77650                           GOTO
000423: 34,3620           03465                                    RTRN
000424:
000425:                                                                                                  #  .... VNDSPLY ....
000426:
000427:                                                                                                  #  SUBROUTINES USED
000428:
000429:                                                                                                  #        BANKCALL
000430:                                                                                                  #        GOFLASH
000431:                                                                                                  #        GOTOPOOH
000432:
000433: 34,3621           00006        VNDSPLY            EXTEND                                         #  FLASH DISPLAY
000434: 34,3622           23465                           QXCH     RTRN
000435: 34,3623           55615                           TS       VERBNOUN
000436: 34,3624           31615                           CA       VERBNOUN
000437: 34,3625           04616                           TCR      BANKCALL
000438: 34,3626           20476                           CADR     GOFLASH
000439: 34,3627           16001                           TCF      GOTOPOOH                              #  TERMINATE
000440: 34,3630           01465                           TC       RTRN                                  #  PROCEED
000441: 34,3631           13624                           TCF      -5                                    #  RECYCLE
000442: 34,3632           01441        V06N33SR           VN       0633
000443: 34,3633           01467        V06N55SR           VN       0655
000444: 34,3634           01006        V04N06SR           VN       0406
000445: 34,3635           01471        V06N57SR           VN       0657
000446: 34,3636           01442        V06N34SR           VN       0634
000447: 34,3637           01472        V06N58SR           VN       0658
000448: 34,3640           01521        V06N81SR           VN       0681
000449: 34,3641           00002        DECTWO             OCT      2
000450:
000451:
000452:
000453:
000454:

End of include-file STABLE_ORBIT_-_P38-P39.agc.  Parent file is MAIN.agc


