
Source Code


000002:                                                                                                  #  Copyright:    Public domain.
000003:                                                                                                  #  Filename:     SYSTEM_TEST_STANDARD_LEAD_INS.agc
000004:                                                                                                  #  Purpose:      Part of the source code for Luminary 1A build 099.
000005:                                                                                                  #                It is part of the source code for the Lunar Module's (LM)
000006:                                                                                                  #                Apollo Guidance Computer (AGC), for Apollo 11.
000007:                                                                                                  #  Assembler:    yaYUL
000008:                                                                                                  #  Contact:      Ron Burkey <info@sandroid.org>.
000009:                                                                                                  #  Website:      www.ibiblio.org/apollo.
000010:                                                                                                  #  Pages:        370-372
000011:                                                                                                  #  Mod history:  2009-05-17 RSB  Adapted from the corresponding
000012:                                                                                                  #                                Luminary131 file, using page
000013:                                                                                                  #                                images from Luminary 1A.
000014:
000015:                                                                                                  #  This source code has been transcribed or otherwise adapted from
000016:                                                                                                  #  digitized images of a hardcopy from the MIT Museum.  The digitization
000017:                                                                                                  #  was performed by Paul Fjeld, and arranged for by Deborah Douglas of
000018:                                                                                                  #  the Museum.  Many thanks to both.  The images (with suitable reduction
000019:                                                                                                  #  in storage size and consequent reduction in image quality as well) are
000020:                                                                                                  #  available online at www.ibiblio.org/apollo.  If for some reason you
000021:                                                                                                  #  find that the images are illegible, contact me at info@sandroid.org
000022:                                                                                                  #  about getting access to the (much) higher-quality images which Paul
000023:                                                                                                  #  actually created.
000024:
000025:                                                                                                  #  Notations on the hardcopy document read, in part:
000026:
000027:                                                                                                  #        Assemble revision 001 of AGC program LMY99 by NASA 2021112-61
000028:                                                                                                  #        16:27 JULY 14, 1969
000029:
000030:                                                                                                  #  Page 370
000031: 22,3242  E5,1642                                  EBANK=   XSM
000032:
000033: 33,2045                                           BANK     33
000034: 04,2000                                           SETLOC   E/PROG
000035: 04,2000                                           BANK
000036:
000037: 04,2576                                           COUNT*   $$/P07
000038:
000039:                                                                                                  #  SPECIAL PROGRAMS TO EASE THE PANGS OF ERASABLE MEMORY PROGRAMS.
000040:
000041:                                                                                                  #  E/BKCALL      FOR DOING BANKCALLS FROM AND RETURNING TO ERASABLE.
000042:
000043:                                                                                                  #  THIS ROUTINE IS CALLABLE FROM ERASABLE OR FIXED.  LIKE BANKCALL, HOWEVER, SWITCHING BETWEEN S3 AND S4
000044:                                                                                                  #  IS NOT POSSIBLE.
000045:
000046:                                                                                                  #  THE CALLING SEQUENCE IS
000047:
000048:                                                                                                  #        TC      BANKCALL
000049:                                                                                                  #        CADR    E/BKCALL
000050:                                                                                                  #        CADR    ROUTINE         # WHERE TO WANT TO GO IN FIXED.
000051:                                                                                                  #        RETURN HERE FROM DISPLAY TERMINATE, BAD STALL OR TC Q.
000052:                                                                                                  #        RETURN HERE FROM DISPLAY PROCEED OR GOOD RETURN FROM STALL.
000053:                                                                                                  #        RETURN HERE FROM DISPLAY ENTER OR RECYCLE.
000054:
000055:                                                                                                  #  THIS ROUTINE REQUIRES TWO ERASABLES (EBUF2, +1) IN UNSWITCHED WHICH ARE UNSHARED BY INTERRUPTS AND
000056:                                                                                                  #  OTHER EMEMORY PROGRAMS.
000057:
000058:                                                                                                  #  A + L ARE PRESERVED THROUGH BANKCALL AND E/BKCALL.
000059:
000060: 04,2576           52134        E/BKCALL           DXCH     BUF2                                  #  SAVE A,L AND GET DP RETURN
000061: 04,2577           53170                           DXCH     EBUF2                                 #  SAVE DP RETURN.
000062: 04,2600           25167                           INCR     EBUF2                                 #  RETURN +1 BECAUSE DOUBLE CADR.
000063: 04,2601           30006                           CA       BBANK
000064: 04,2602           75012                           MASK     LOW10                                 #  GET CURRENT EBANK.  (SBANK SOMEDAY)
000065: 04,2603           27170                           ADS      EBUF2      +1                         #  FORM BBCON.  (WAS FBANK)
000066: 04,2604           51167                           NDX      EBUF2
000067: 04,2605           27777                           CA       0          -1                         #  GET CADR OF ROUTINE.
000068: 04,2606           04622                           TC       SWCALL                                #  GO TO ROUTINE, SETTING Q TO SWRETURN
000069:                                                                                                  #  AND RESTORING A + L.
000070: 04,2607           02613                           TC       +4                                    #  TX Q, V34, OR BAD STALL RETURN.
000071: 04,2610           02612                           TC       +2                                    #  PROCEED OR GOOD STALL RETURN.
000072: 04,2611           25167                           INCR     EBUF2                                 #  ENTER OR RECYCLE RETURN
000073: 04,2612           25167                           INCR     EBUF2
000074: 04,2613           53170        E/SWITCH           DXCH     EBUF2
000075: 04,2614           52006                           DTCB
000076:
000077:                                                                                                  #  Page 371
000078:                                                                                                  #  E/CALL        FOR CALLING A FIXED MEMORY INTERPRETIVE SUBROUTINE FROM ERASABLE AND RETURNING TO ERASABLE.
000079:
000080:                                                                                                  #  THE CALLING SEQUENCE IS...
000081:
000082:                                                                                                  #        RTB
000083:                                                                                                  #                E/CALL
000084:                                                                                                  #        CADR    ROUTINE                 # THE INTERPRETIVE SUBROUTINE YOU WANT
000085:                                                                                                  #                                        # RETURNS HERE IN INTERPRETIVE.
000086:
000087: 04,2615           22164        E/CALL             LXCH     LOC                                   #  ADRES -1 OF CADR.
000088: 04,2616           50001                           INDEX    L
000089: 04,2617           30001                           CA       L                                     #  CADR IN A.
000090: 04,2620           24001                           INCR     L
000091: 04,2621           24001                           INCR     L                                     #  RETURN ADRES IN L.
000092: 04,2622           53170                           DXCH     EBUF2                                 #  STORE CADR AND RETURN
000093: 04,2623           06037                           TC       INTPRET
000094: 04,2624           77624                           CALL
000095: 04,2625           01167                                    EBUF2                                 #  INDIRECTLY EXECUTE ROUTING.  IT MUST
000096: 04,2626           77776                           EXIT                                           #  LEAVE VIA RVQ OR EQUIVALENT.
000097: 04,2627           23170                           LXCH     EBUF2      +1                         #  PICK UP RETURN.
000098: 04,2630           16041                           TCF      INTPRET    +2                         #  SET LOC AND RETURN TO CALLER.
000099:
000100:                                                                                                  #  Page 372
000101:                                                                                                  #  E/JOBWAK      FOR WAKING UP ERASABLE MEMORY JOBS.
000102:
000103:                                                                                                  #  THIS ROUTINE MUST BE CALLED IN INTERRUPT OR WITH INTERRUPTS INHIBITED.
000104:
000105:                                                                                                  #  THE CALLING SEQUENCE IS
000106:
000107:                                                                                                  #        INHINT
000108:                                                                                                  #        ...
000109:                                                                                                  #        CA      WAKEADR         # ADDRESS OF SLEEPING JOB
000110:                                                                                                  #        TC      IBNKCALL
000111:                                                                                                  #        CADR    E/JOBWAK
000112:                                                                                                  #        ...                     # RETURNS HERE
000113:                                                                                                  #        RELINT                  # IF YOU DID AND INHINT
000114:
000115: 33,2045                                           BANK     33
000116: 04,2000                                           SETLOC   E/PROG
000117: 04,2000                                           BANK
000118:
000119: 04,2631                                           COUNT*   $$/P07
000120:
000121: 04,2631           05137        E/JOBWAK           TC       JOBWAKE                               #  ARRIVE WITH ADRES IN A.
000122: 04,2632           44741                           CS       BIT11
000123: 04,2633           50064                           NDX      LOCCTR
000124: 04,2634           26164                           ADS      LOC                                   #  KNOCK FIXED MEMORY BIT OUT OF ADRES.
000125: 04,2635           00072                           TC       RUPTREG3                              #  RETURN
000126:

End of include-file SYSTEM_TEST_STANDARD_LEAD_INS.agc.  Parent file is MAIN.agc


