
Source Code


000002:                                                                                                  ## Copyright:   Public domain.
000003:                                                                                                  ## Filename:    SYSTEM_TEST_STANDARD_LEAD_INS.agc
000004:                                                                                                  ## Purpose:     Part of the source code for Luminary 1A build 099.
000005:                                                                                                  ##              It is part of the source code for the Lunar Module's (LM)
000006:                                                                                                  ##              Apollo Guidance Computer (AGC), for Apollo 11.
000007:                                                                                                  ## Assembler:   yaYUL
000008:                                                                                                  ## Contact:     Ron Burkey <info@sandroid.org>.
000009:                                                                                                  ## Website:     www.ibiblio.org/apollo.
000010:                                                                                                  ## Pages:       370-372
000011:                                                                                                  ## Mod history: 2009-05-17 RSB  Adapted from the corresponding
000012:                                                                                                  ##                              Luminary131 file, using page
000013:                                                                                                  ##                              images from Luminary 1A.
000014:                                                                                                  ##              2016-12-14 RSB  Proofed text comments with octopus/ProoferComments
000015:                                                                                                  ##                              and corrected the errors found.
000016:                                                                                                  ##              2017-03-07 RSB  Comment-text fixes noted in proofing Luminary 116.
000017:
000018:                                                                                                  ## This source code has been transcribed or otherwise adapted from
000019:                                                                                                  ## digitized images of a hardcopy from the MIT Museum.  The digitization
000020:                                                                                                  ## was performed by Paul Fjeld, and arranged for by Deborah Douglas of
000021:                                                                                                  ## the Museum.  Many thanks to both.  The images (with suitable reduction
000022:                                                                                                  ## in storage size and consequent reduction in image quality as well) are
000023:                                                                                                  ## available online at www.ibiblio.org/apollo.  If for some reason you
000024:                                                                                                  ## find that the images are illegible, contact me at info@sandroid.org
000025:                                                                                                  ## about getting access to the (much) higher-quality images which Paul
000026:                                                                                                  ## actually created.
000027:                                                                                                  ##
000028:                                                                                                  ## Notations on the hardcopy document read, in part:
000029:                                                                                                  ##
000030:                                                                                                  ##      Assemble revision 001 of AGC program LMY99 by NASA 2021112-61
000031:                                                                                                  ##      16:27 JULY 14, 1969
000032:


000034: 22,3242  E5,1642                                  EBANK=   XSM
000035:
000036: 33,2045                                           BANK     33
000037: 04,2000                                           SETLOC   E/PROG
000038: 04,2000                                           BANK
000039:
000040: 04,2576                                           COUNT*   $$/P07
000041:
000042:                                                                                                  #  SPECIAL PROGRAMS TO EASE THE PANGS OF ERASABLE MEMORY PROGRAMS.
000043:
000044:                                                                                                  #  E/BKCALL      FOR DOING BANKCALLS FROM AND RETURNING TO ERASABLE.
000045:
000046:                                                                                                  #  THIS ROUTINE IS CALLABLE FROM ERASABLE OR FIXED.  LIKE BANKCALL, HOWEVER, SWITCHING BETWEEN S3 AND S4
000047:                                                                                                  #  IS NOT POSSIBLE.
000048:
000049:                                                                                                  #  THE CALLING SEQUENCE IS:
000050:
000051:                                                                                                  #        TC      BANKCALL
000052:                                                                                                  #        CADR    E/BKCALL
000053:                                                                                                  #        CADR    ROUTINE         WHERE YOU WANT TO GO IN FIXED.
000054:                                                                                                  #        RETURN HERE FROM DISPLAY TERMINATE, BAD STALL OR TC Q.
000055:                                                                                                  #        RETURN HERE FROM DISPLAY PROCEED OR GOOD RETURN FROM STALL.
000056:                                                                                                  #        RETURN HERE FROM DISPLAY ENTER OR RECYCLE.
000057:
000058:                                                                                                  #  THIS ROUTINE REQUIRES TWO ERASABLES (EBUF2, +1) IN UNSWITCHED WHICH ARE UNSHARED BY INTERRUPTS AND
000059:                                                                                                  #  OTHER EMEMORY PROGRAMS.
000060:
000061:                                                                                                  #  A + L ARE PRESERVED THROUGH BANKCALL AND E/BKCALL.
000062:
000063: 04,2576           52134        E/BKCALL           DXCH     BUF2                                  #  SAVE A,L AND GET DP RETURN.
000064: 04,2577           53170                           DXCH     EBUF2                                 #  SAVE DP RETURN.
000065: 04,2600           25167                           INCR     EBUF2                                 #  RETURN +1 BECAUSE DOUBLE CADR.
000066: 04,2601           30006                           CA       BBANK
000067: 04,2602           75012                           MASK     LOW10                                 #  GET CURRENT EBANK.  (SBANK SOMEDAY)
000068: 04,2603           27170                           ADS      EBUF2      +1                         #  FORM BBCON.  (WAS FBANK)
000069: 04,2604           51167                           NDX      EBUF2
000070: 04,2605           27777                           CA       0          -1                         #  GET CADR OF ROUTINE.
000071: 04,2606           04622                           TC       SWCALL                                #  GO TO ROUTINE, SETTING Q TO SWRETURN
000072:                                                                                                  #  AND RESTORING A + L.
000073: 04,2607           02613                           TC       +4                                    #  TX Q, V34, OR BAD STALL RETURN.
000074: 04,2610           02612                           TC       +2                                    #  PROCEED OR GOOD STALL RETURN.
000075: 04,2611           25167                           INCR     EBUF2                                 #  ENTER OR RECYCLE RETURN.
000076: 04,2612           25167                           INCR     EBUF2
000077: 04,2613           53170        E/SWITCH           DXCH     EBUF2
000078: 04,2614           52006                           DTCB
000079:


000081:                                                                                                  #  E/CALL        FOR CALLING A FIXED MEMORY INTERPRETIVE SUBROUTINE FROM ERASABLE AND RETURNING TO ERASABLE.
000082:
000083:                                                                                                  #  THE CALLING SEQUENCE IS...
000084:
000085:                                                                                                  #        RTB
000086:                                                                                                  #                E/CALL
000087:                                                                                                  #        CADR    ROUTINE                 THE INTERPRETIVE SUBROUTINE YOU WANT.
000088:                                                                                                  #                                        RETURNS HERE IN INTERPRETIVE.
000089:
000090: 04,2615           22164        E/CALL             LXCH     LOC                                   #  ADRES -1 OF CADR.
000091: 04,2616           50001                           INDEX    L
000092: 04,2617           30001                           CA       L                                     #  CADR IN A.
000093: 04,2620           24001                           INCR     L
000094: 04,2621           24001                           INCR     L                                     #  RETURN ADRES IN L.
000095: 04,2622           53170                           DXCH     EBUF2                                 #  STORE CADR AND RETURN.
000096: 04,2623           06037                           TC       INTPRET
000097: 04,2624           77624                           CALL
000098: 04,2625           01167                                    EBUF2                                 #  INDIRECTLY EXECUTE ROUTINE.  IT MUST
000099: 04,2626           77776                           EXIT                                           #  LEAVE VIA RVQ OR EQUIVALENT.
000100: 04,2627           23170                           LXCH     EBUF2      +1                         #  PICK UP RETURN.
000101: 04,2630           16041                           TCF      INTPRET    +2                         #  SET LOC AND RETURN TO CALLER.
000102:


000104:                                                                                                  #  E/JOBWAK      FOR WAKING UP ERASABLE MEMORY JOBS.
000105:
000106:                                                                                                  #  THIS ROUTINE MUST BE CALLED IN INTERRUPT OR WITH INTERRUPTS INHIBITED.
000107:
000108:                                                                                                  #  THE CALLING SEQUENCE IS:
000109:
000110:                                                                                                  #        INHINT
000111:                                                                                                  #          .
000112:                                                                                                  #          .
000113:                                                                                                  #        CA      WAKEADR         ADDRESS OF SLEEPING JOB
000114:                                                                                                  #        TC      IBNKCALL
000115:                                                                                                  #        CADR    E/JOBWAK
000116:                                                                                                  #          .                     RETURNS HERE
000117:                                                                                                  #          .
000118:                                                                                                  #          .
000119:                                                                                                  #        RELINT                  IF YOU DID AN INHINT.
000120:
000121: 33,2045                                           BANK     33
000122: 04,2000                                           SETLOC   E/PROG
000123: 04,2000                                           BANK
000124:
000125: 04,2631                                           COUNT*   $$/P07
000126:
000127: 04,2631           05137        E/JOBWAK           TC       JOBWAKE                               #  ARRIVE IWTH ADRES IN A.
000128: 04,2632           44741                           CS       BIT11
000129: 04,2633           50064                           NDX      LOCCTR
000130: 04,2634           26164                           ADS      LOC                                   #  KNOCK FIXED MEMORY BIT OUT OF ADRES.
000131: 04,2635           00072                           TC       RUPTREG3                              #  RETURN
000132:

End of include-file SYSTEM_TEST_STANDARD_LEAD_INS.agc.  Parent file is MAIN.agc


