
Source Code


000002:                                                                                                  ## Copyright:   Public domain.
000003:                                                                                                  ## Filename:    T6-RUPT_PROGRAMS.agc
000004:                                                                                                  ## Purpose:     Part of the source code for Luminary 1A build 099.
000005:                                                                                                  ##              It is part of the source code for the Lunar Module's (LM)
000006:                                                                                                  ##              Apollo Guidance Computer (AGC), for Apollo 11.
000007:                                                                                                  ## Assembler:   yaYUL
000008:                                                                                                  ## Contact:     Ron Burkey <info@sandroid.org>.
000009:                                                                                                  ## Website:     www.ibiblio.org/apollo.
000010:                                                                                                  ## Pages:       1403-1405
000011:                                                                                                  ## Mod history: 2009-05-10 SN   (Sergio Navarro).  Started adapting
000012:                                                                                                  ##                              from the Luminary131/ file of the same
000013:                                                                                                  ##                              name, using Luminary099 page images.
000014:                                                                                                  ##
000015:                                                                                                  ## This source code has been transcribed or otherwise adapted from
000016:                                                                                                  ## digitized images of a hardcopy from the MIT Museum.  The digitization
000017:                                                                                                  ## was performed by Paul Fjeld, and arranged for by Deborah Douglas of
000018:                                                                                                  ## the Museum.  Many thanks to both.  The images (with suitable reduction
000019:                                                                                                  ## in storage size and consequent reduction in image quality as well) are
000020:                                                                                                  ## available online at www.ibiblio.org/apollo.  If for some reason you
000021:                                                                                                  ## find that the images are illegible, contact me at info@sandroid.org
000022:                                                                                                  ## about getting access to the (much) higher-quality images which Paul
000023:                                                                                                  ## actually created.
000024:                                                                                                  ##
000025:                                                                                                  ## Notations on the hardcopy document read, in part:
000026:                                                                                                  ##
000027:                                                                                                  ##      Assemble revision 001 of AGC program LMY99 by NASA 2021112-61
000028:                                                                                                  ##      16:27 JULY 14, 1969
000029:


000031:                                                                                                  #  PROGRAM NAMES:        (1) T6JOBCHK    MOD. NO. 5      OCTOBER 2, 1967
000032:                                                                                                  #                        (2) DOT6RUPT
000033:                                                                                                  #  MODIFICATION BY:      LOWELL G. HULL (A.C.ELECTRONICS)
000034:
000035:                                                                                                  #  THESE PROGRAMS ENABLE THE LM DAP TO CONTROL THE THRUST TIMES OF THE REACTION CONTROL SYSTEM JETS BY USING TIME6.
000036:                                                                                                  #  SINCE THE LM DAP MAINTAINS EXCLUSIVE CONTROL OVER TIME6 AND ITS INTERRUPTS, THE FOLLOWING CONVENTIONS HAVE BEEN
000037:                                                                                                  #  ESTABLISHED AND MUST NOT BE TAMPERED WITH:
000038:                                                                                                  #        1.      NO NUMBER IS EVER PLACED INTO TIME6 EXCEPT BY LM DAP.
000039:                                                                                                  #        2.      NO PROGRAM OTHER THAN LM DAP ENABLES THE TIME6 COUNTER.
000040:                                                                                                  #        3.      TO USE TIME6, THE FOLLOWING SEQUENCE IS ALWAYS EMPLOYED:
000041:                                                                                                  #                A.      A POSITIVE (NON-ZERO) NUMBER IS STORED IN TIME6.
000042:                                                                                                  #                B.      THE TIME6 CLOCK IS ENABLED.
000043:                                                                                                  #                C.      TIME6 IS INTERROGATED AND IS:
000044:                                                                                                  #                        I.      NEVER FOUND NEGATIVE (NON-ZERO) OR +0.
000045:                                                                                                  #                        II.     SOMETIMES FOUND POSITIVE (BETWEEN 1 AND 240D) INDICATING THAT IT IS ACTIVE.
000046:                                                                                                  #                        III.    SOMETIMES FOUND POSMAX INDICATING THAT IT IS INACTIVE AND NOT ENABLED.
000047:                                                                                                  #                        IV.     SOMETIMES FOUND NEGATIVE ZERO INDICATING THAT:
000048:                                                                                                  #                                A.      A T6RUPT IS ABOUT TO OCCUR AT THE NEXT DINC, OR
000049:                                                                                                  #                                B.      A T6RUPT IS WAITING IN THE PRIORITY CHAIN, OR
000050:                                                                                                  #                                C.      A T6RUPT IS IN PROCESS NOW.
000051:                                                                                                  #        4.      ALL PROGRAMS WHICH OPERATE IN EITHER INTERRUPT MODE OR WITH INTERRUPT INHIBITED MUST CALL T6JOBCHK
000052:                                                                                                  #                EVERY 5 MILLISECONDS TO PROCESS A POSSIBLE WAITING T6RUPT BEFORE IT CAN BE HONORED BY THE HARDWARE.
000053:                                                                                                  #       (5.      PROGRAM JTLST, IN Q,R-AXES, HANDLES THE INPUT LIST.)
000054:
000055:                                                                                                  #  T6JOBCHK CALLING SEQUENCE:
000056:                                                                                                  #                L       TC      T6JOBCHK
000057:                                                                                                  #                L+1     (RETURN)
000058:
000059:                                                                                                  #  DOT6RUPT CALLING SEQUENCE:
000060:                                                                                                  #                        DXCH    ARUPT           # T6RUPT LEAD IN AT LOCATION 4004.
000061:                                                                                                  #                        EXTEND
000062:                                                                                                  #                        DCA     T6ADR
000063:                                                                                                  #                        DTCB
000064:
000065:                                                                                                  #  SUBROUTINES CALLED:   DOT6RUPT CALLS T6JOBCHK.
000066:
000067:                                                                                                  #  NORMAL EXIT MODES:    T6JOBCHK RETURNS TO L +1.
000068:                                                                                                  #                        DOT6RUPT TRANSFERS CONTROL TO RESUME.
000069:
000070:                                                                                                  #  ALARM/ABORT MODES:    NONE.
000071:
000072:                                                                                                  #  INPUT:        TIME6           NXT6ADR         OUTPUT:         TIME6           NXT6ADR         CHANNEL 5
000073:                                                                                                  #                T6NEXT          T6NEXT +1                       T6NEXT          T6NEXT +1       CHANNEL 6
000074:                                                                                                  #                T6FURTHA        T6FURTHA +1                     T6FURTHA        T6FURTHA +1     BIT15/CH13
000075:
000076:                                                                                                  #  DEBRIS:       T6JOBCHK CLOBBERS A.  DOT6RUPT CLOBBERS NOTHING.
000077:
000078:    5753                                           BLOCK    02


000080: 17,2027                                           BANK     17
000081: 17,2000                                           SETLOC   DAPS2
000082: 17,2000                                           BANK
000083: 17,2027  E6,1466                                  EBANK=   T6NEXT
000084: 17,2027                                           COUNT*   $$/DAPT6
000085:
000086: 17,2027           10031        T6JOBCHK           CCS      TIME6                                 #  CHECK TIME6 FOR WAITING T6RUPT:
000087: 17,2030           00002                           TC       Q                                     #  NONE: CLOCK COUNTING DOWN.
000088: 17,2031           05705                           TC       CCSHOLE
000089: 17,2032           02032                           TC       T6JOBCHK   +3
000090:
000091:                                                                                                  #  CONTROL PASSES TO T6JOB ONLY WHEN C(TIME6) = -0 (I.E., WHEN A T6RUPT MUST BE PROCESSED).
000092:
000093: 17,2033           34733        T6JOB              CAF      POSMAX                                #  DISABLE CLOCK: NEEDED SINCE RUPT OCCURS
000094: 17,2034           00006                           EXTEND                                         #  1 DINC AFTER T6 = 77777. FOR 625 MUSECS
000095: 17,2035           03013                           WAND     CHAN13                                #  MUST NOT HAVE T6 = +0 WITH ENABLE SET
000096:
000097: 17,2036           34733                           CA       POSMAX
000098: 17,2037           22007                           ZL
000099: 17,2040           53471                           DXCH     T6FURTHA
000100: 17,2041           53467                           DXCH     T6NEXT
000101: 17,2042           23465                           LXCH     NXT6ADR
000102: 17,2043           54031                           TS       TIME6
000103:
000104: 17,2044           67725                           AD       PRIO37
000105: 17,2045           54000                           TS       A
000106: 17,2046           12052                           TCF      ENABLET6
000107: 17,2047           34733                           CA       POSMAX
000108: 17,2050           54031                           TS       TIME6
000109: 17,2051           12063                           TCF      GOCH56
000110: 17,2052           34735        ENABLET6           CA       BIT15
000111: 17,2053           00006                           EXTEND
000112: 17,2054           05013                           WOR      CHAN13
000113: 17,2055           31466                           CA       T6NEXT
000114: 17,2056           67725                           AD       PRIO37
000115: 17,2057           54000                           TS       A
000116: 17,2060           12063                           TCF      GOCH56
000117: 17,2061           34733                           CA       POSMAX
000118: 17,2062           55466                           TS       T6NEXT
000119: 17,2063           50001        GOCH56             INDEX    L
000120: 17,2064           15753                           TCF      WRITEP     -1
000121:
000122:    5753                                           BLOCK    02
000123:    4000                                           SETLOC   FFTAG9
000124:    4000                                           BANK
000125:    5753  E6,1635                                  EBANK=   CDUXD
000126:    5753                                           COUNT*   $$/DAPT6
000127:
000128:    5753           31472                           CA       NEXTP
000129:    5754           00006        WRITEP             EXTEND
000130:    5755           01006                           WRITE    CHAN6


000132:    5756           00002                           TC       Q
000133:
000134:    5757           31473                           CA       NEXTU
000135:    5760           54001        WRITEU             TS       L
000136:    5761           45774                           CS       00314OCT
000137:    5762           00006                           EXTEND
000138:    5763           02005                           RAND     CHAN5
000139:    5764           60001                           AD       L
000140:    5765           00006                           EXTEND
000141:    5766           01005                           WRITE    CHAN5
000142:    5767           00002                           TC       Q
000143:
000144:    5770           31474                           CA       NEXTV
000145:    5771           54001        WRITEV             TS       L
000146:    5772           35774                           CA       00314OCT
000147:    5773           15762                           TCF      -9D
000148:    5774           00314        00314OCT           OCT      00314
000149:
000150: 17,2065                                           BANK     17
000151: 17,2000                                           SETLOC   DAPS2
000152: 17,2000                                           BANK
000153:
000154: 17,2065  E6,1466                                  EBANK=   T6NEXT
000155: 17,2065                                           COUNT*   $$/DAPT6
000156:
000157: 17,2065           22016        DOT6RUPT           LXCH     BANKRUPT                              #  (INTERRUPT LEAD INS CONTINUED)
000158: 17,2066           00006                           EXTEND
000159: 17,2067           22012                           QXCH     QRUPT
000160:
000161: 17,2070           02027                           TC       T6JOBCHK                              #  CALL T6JOBCHK.
000162:
000163: 17,2071           15270                           TCF      RESUME                                #  END TIME6 INTERRUPT PROCESSOR.
000164:

End of include-file T6-RUPT_PROGRAMS.agc.  Parent file is MAIN.agc


