
Source Code


000002:                                                                                                  ## Copyright:   Public domain.
000003:                                                                                                  ## Filename:    TAGS_FOR_RELATIVE_SETLOC.agc
000004:                                                                                                  ## Purpose:     Part of the source code for Luminary 1A build 099.
000005:                                                                                                  ##              It is part of the source code for the Lunar Module's (LM)
000006:                                                                                                  ##              Apollo Guidance Computer (AGC), for Apollo 11.
000007:                                                                                                  ##
000008:                                                                                                  ## Assembler:   yaYUL
000009:                                                                                                  ## Contact:     Jim Lawton <jim.lawton@gmail.com>
000010:                                                                                                  ## Website:     www.ibiblio.org/apollo.
000011:                                                                                                  ## Pages:       028-037
000012:                                                                                                  ## Mod history: 2009-05-16      JVL     Transcribed from page images.
000013:                                                                                                  ##              2016-12-13 RSB  Proofed text comments with octopus/ProoferComments
000014:                                                                                                  ##                              and corrected the errors found.
000015:                                                                                                  ##
000016:                                                                                                  ## This source code has been transcribed or otherwise adapted from digitized
000017:                                                                                                  ## images of a hardcopy from the MIT Museum.  The digitization was performed
000018:                                                                                                  ## by Paul Fjeld, and arranged for by Deborah Douglas of the Museum.  Many
000019:                                                                                                  ## thanks to both.  The images (with suitable reduction in storage size and
000020:                                                                                                  ## consequent reduction in image quality as well) are available online at
000021:                                                                                                  ## www.ibiblio.org/apollo.  If for some reason you find that the images are
000022:                                                                                                  ## illegible, contact me at info@sandroid.org about getting access to the
000023:                                                                                                  ## (much) higher-quality images which Paul actually created.
000024:                                                                                                  ##
000025:                                                                                                  ## Notations on the hardcopy document read, in part:
000026:                                                                                                  ##
000027:                                                                                                  ##    Assemble revision 001 of AGC program LMY99 by NASA 2021112-061
000028:                                                                                                  ##    16:27 JULY 14, 1969
000029:


000031: ???????                                           COUNT    BANKSUM
000032:
000033:                                                                                                  #  MODULE 1 CONTAINS BANKS 0 THROUGH 5
000034:
000035:    4000                                           BLOCK    02
000036:    4000                        RADARFF            EQUALS
000037:    4000                        FFTAG1             EQUALS
000038:    4000                        FFTAG2             EQUALS
000039:    4000                        FFTAG3             EQUALS
000040:    4000                        FFTAG4             EQUALS
000041:    4000                        FFTAG7             EQUALS
000042:    4000                        FFTAG8             EQUALS
000043:    4000                        FFTAG9             EQUALS
000044:    4000                        FFTAG10            EQUALS
000045:    4000                        FFTAG11            EQUALS
000046:    4000                        FFTAG12            EQUALS
000047:    4000                        FFTAG13            EQUALS
000048:    4000                                           BNKSUM   02
000049:
000050:    6000                                           BLOCK    03
000051:    6000                        FFTAG5             EQUALS
000052:    6000                        FFTAG6             EQUALS
000053:    6000                                           BNKSUM   03
000054:
000055: 00,2000                                           BANK     00
000056: 00,2000                        DLAYJOB            EQUALS
000057: 00,2000                                           BNKSUM   00
000058:
000059: 01,2000                                           BANK     01
000060: 01,2000                        RESTART            EQUALS
000061: 01,2000                        LOADDAP1           EQUALS
000062: 01,2000                                           BNKSUM   01
000063:
000064: 04,2000                                           BANK     04
000065: 04,2000                        R02                EQUALS
000066: 04,2000                        VERB37             EQUALS
000067: 04,2000                        PINBALL4           EQUALS
000068: 04,2000                        CONICS1            EQUALS
000069: 04,2000                        KEYRUPT            EQUALS
000070: 04,2000                        R36LM              EQUALS
000071: 04,2000                        UPDATE2            EQUALS
000072: 04,2000                        E/PROG             EQUALS
000073: 04,2000                        AOTMARK2           EQUALS
000074: 04,2000                                           BNKSUM   04
000075:


000077: 05,2000                                           BANK     05
000078: 05,2000                        FRANDRES           EQUALS
000079: 05,2000                        DOWNTELM           EQUALS
000080: 05,2000                        ABORTS1            EQUALS
000081: 05,2000                        EPHEM1             EQUALS
000082: 05,2000                        ASENT3             EQUALS
000083: 05,2000                                           BNKSUM   05
000084:
000085:                                                                                                  #  MODULE 2 CONTAINS BANKS 6 THROUGH 13
000086:
000087: 06,2000                                           BANK     06
000088: 06,2000                        IMUCOMP            EQUALS
000089: 06,2000                        T4RUP              EQUALS
000090: 06,2000                        RCSMONT            EQUALS
000091: 06,2000                        MIDDGIM            EQUALS
000092: 06,2000                        EARTHLOC           EQUALS
000093: 06,2000                                           BNKSUM   06
000094:
000095: 07,2000                                           BANK     07
000096: 07,2000                        AOTMARK1           EQUALS
000097: 07,2000                        MODESW             EQUALS
000098: 07,2000                        ASENT2             EQUALS
000099: 07,2000                                           BNKSUM   07
000100:
000101: 10,2000                                           BANK     10
000102: 10,2000                        RTBCODES           EQUALS
000103: 10,2000                        DISPLAYS           EQUALS
000104: 10,2000                        PHASETAB           EQUALS
000105: 10,2000                        FLESHLOC           EQUALS
000106: 10,2000                        SLCTMU             EQUALS
000107: 10,2000                                           BNKSUM   10
000108:
000109: 11,2000                                           BANK     11
000110: 11,2000                        ORBITAL            EQUALS
000111: 11,2000                        F2DPS*11           EQUALS
000112: 11,2000                        INTVEL             EQUALS
000113: 11,2000                                           BNKSUM   11
000114:
000115: 12,2000                                           BANK     12
000116: 12,2000                        CONICS             EQUALS
000117: 12,2000                        ORBITAL1           EQUALS


000119: 12,2000                        INTPRET2           EQUALS
000120: 12,2000                                           BNKSUM   12
000121:
000122: 13,2000                                           BANK     13
000123: 13,2000                        LATLONG            EQUALS
000124: 13,2000                        INTINIT            EQUALS
000125: 13,2000                        LEMGEOM            EQUALS
000126: 13,2000                        P76LOC             EQUALS
000127: 13,2000                        ORBITAL2           EQUALS
000128: 13,2000                        ABTFLGS            EQUALS
000129: 13,2000                                           BNKSUM   13
000130:


000132:                                                                                                  #  MODULE 3 CONTAINS BANKS 14 THROUGH 21
000133:
000134: 14,2000                                           BANK     14
000135: 14,2000                        P50S1              EQUALS
000136: 14,2000                        STARTAB            EQUALS
000137: 14,2000                        ASENT4             EQUALS
000138: 14,2000                                           BNKSUM   14
000139:
000140: 15,2000                                           BANK     15
000141: 15,2000                        P50S               EQUALS
000142: 15,2000                        EPHEM              EQUALS
000143: 15,2000                                           BNKSUM   15
000144:
000145: 16,2000                                           BANK     16
000146: 16,2000                        DAPS1              EQUALS
000147: 16,2000                                           BNKSUM   16
000148:
000149: 17,2000                                           BANK     17
000150: 17,2000                        DAPS2              EQUALS
000151: 17,2000                        P40S3              EQUALS
000152: 17,2000                                           BNKSUM   17
000153:
000154: 20,2000                                           BANK     20
000155: 20,2000                        DAPS3              EQUALS
000156: 20,2000                        LOADDAP            EQUALS
000157: 20,2000                        RODTRAP            EQUALS
000158: 20,2000                                           BNKSUM   20
000159:
000160: 21,2000                                           BANK     21
000161: 21,2000                        DAPS4              EQUALS
000162: 21,2000                        R10                EQUALS
000163: 21,2000                        R11                EQUALS
000164: 21,2000                                           BNKSUM   21


000166:
000167:                                                                                                  #  MODULE 4 CONTAINS BANKS 22 THROUGH 27
000168:
000169: 22,2000                                           BANK     22
000170: 22,2000                        KALCMON1           EQUALS
000171: 22,2000                        KALCMON2           EQUALS
000172: 22,2000                        R30LOC             EQUALS
000173: 22,2000                        RENDEZ             EQUALS
000174: 22,2000                        SERV2              EQUALS
000175: 22,2000                        LANDCNST           EQUALS
000176: 22,2000                                           BNKSUM   22
000177:
000178: 23,2000                                           BANK     23
000179: 23,2000                        POWFLITE           EQUALS
000180: 23,2000                        POWFLIT1           EQUALS
000181: 23,2000                        INFLIGHT           EQUALS
000182: 23,2000                        APOPERI            EQUALS
000183: 23,2000                        R61                EQUALS
000184: 23,2000                        R62                EQUALS
000185: 23,2000                        INTPRET1           EQUALS
000186: 23,2000                        MEASINC            EQUALS
000187: 23,2000                        MEASINC1           EQUALS
000188: 23,2000                        EXTVB1             EQUALS
000189: 23,2000                        P12A               EQUALS
000190: 23,2000                        NORMLIZ            EQUALS
000191: 23,2000                        ASENT7             EQUALS
000192: 23,2000                                           BNKSUM   23
000193:
000194: 24,2000                                           BANK     24
000195: 24,2000                        PLANTIN            EQUALS
000196: 24,2000                        P20S               EQUALS
000197: 24,2000                                           BNKSUM   24
000198:
000199: 25,2000                                           BANK     25
000200: 25,2000                        P20S1              EQUALS
000201: 25,2000                        P20S2              EQUALS
000202: 25,2000                        RADARUPT           EQUALS
000203: 25,2000                        RRLEADIN           EQUALS
000204: 25,2000                        R29S1              EQUALS
000205: 25,2000                        PLANTIN3           EQUALS
000206: 25,2000                                           BNKSUM   25
000207:
000208: 26,2000                                           BANK     26


000210: 26,2000                        P20S3              EQUALS
000211: 26,2000                        BAWLANGS           EQUALS
000212: 26,2000                        MANUVER            EQUALS
000213: 26,2000                        MANUVER1           EQUALS
000214: 26,2000                        PLANTIN1           EQUALS
000215: 26,2000                        PLANTIN2           EQUALS
000216: 26,2000                                           BNKSUM   26
000217:
000218: 27,2000                                           BANK     27
000219: 27,2000                        TOF-FF             EQUALS
000220: 27,2000                        TOF-FF1            EQUALS
000221: 27,2000                        P40S1              EQUALS
000222: 27,2000                        VECPT              EQUALS
000223: 27,2000                        ASENT1             EQUALS
000224: 27,2000                        SERV3              EQUALS
000225: 27,2000                                           BNKSUM   27
000226:


000228:                                                                                                  #  MODULE 5 CONTAINS BANKS 30 THROUGH 35
000229:
000230: 30,2000                                           BANK     30
000231: 30,2000                        LOWSUPER           EQUALS
000232: 30,2000                        P12                EQUALS
000233: 30,2000                        ASENT              EQUALS
000234: 30,2000                        FCDUW              EQUALS
000235: 30,2000                        FLOGSUB            EQUALS
000236: 30,2000                        VB67A              EQUALS
000237: 30,2000                        ASENT5             EQUALS
000238: 30,2000                                           BNKSUM   30
000239:
000240: 31,2000                                           BANK     31
000241: 31,2000                        FTHROT             EQUALS
000242: 31,2000                        F2DPS*31           EQUALS
000243: 31,2000                        VB67               EQUALS
000244: 31,2000                                           BNKSUM   31
000245:
000246: 32,2000                                           BANK     32
000247: 32,2000                        P20S4              EQUALS
000248: 32,2000                        F2DPS*32           EQUALS
000249: 32,2000                        ABORTS             EQUALS
000250: 32,2000                        LRS22              EQUALS
000251: 32,2000                        P66LOC             EQUALS
000252: 32,2000                        R47                EQUALS
000253: 32,2000                        SERV               EQUALS
000254: 32,2000                                           BNKSUM   32
000255:
000256: 33,2000                                           BANK     33
000257: 33,2000                        SERVICES           EQUALS
000258: 33,2000                        R29/SERV           EQUALS
000259: 33,2000                        ASENT6             EQUALS
000260: 33,2000                                           BNKSUM   33
000261:
000262: 34,2000                                           BANK     34
000263: 34,2000                        STBLEORB           EQUALS
000264: 34,2000                        P30S1              EQUALS
000265: 34,2000                        CSI/CDH1           EQUALS
000266: 34,2000                        ASCFILT            EQUALS
000267: 34,2000                        R12STUFF           EQUALS
000268: 34,2000                        SERV4              EQUALS
000269: 34,2000                                           BNKSUM   34
000270:


000272: 35,2000                                           BANK     35
000273: 35,2000                        CSI/CDH            EQUALS
000274: 35,2000                        P30S               EQUALS
000275: 35,2000                        GLM                EQUALS
000276: 35,2000                        P40S2              EQUALS
000277: 35,2000                                           BNKSUM   35
000278:


000280:                                                                                                  #  MODULE 6 CONTAINS BANKS 36 THROUGH 43
000281:
000282: 36,2000                                           BANK     36
000283: 36,2000                        P40S               EQUALS
000284: 36,2000                                           BNKSUM   36
000285:
000286: 37,2000                                           BANK     37
000287: 37,2000                        P05P06             EQUALS
000288: 37,2000                        IMU2               EQUALS
000289: 37,2000                        IMU4               EQUALS
000290: 37,2000                        R31                EQUALS
000291: 37,2000                        IMUSUPER           EQUALS
000292: 37,2000                        SERV1              EQUALS
000293: 37,2000                                           BNKSUM   37
000294:
000295: 40,2000                                           BANK     40
000296: 40,2000                        PINBALL1           EQUALS
000297: 40,2000                        SELFSUPR           EQUALS
000298: 40,2000                        PINSUPER           EQUALS
000299: 40,2000                        R31LOC             EQUALS
000300: 40,2000                                           BNKSUM   40
000301:
000302: 41,2000                                           BANK     41
000303: 41,2000                        PINBALL2           EQUALS
000304: 41,2000                                           BNKSUM   41
000305:
000306: 42,2000                                           BANK     42
000307: 42,2000                        SBAND              EQUALS
000308: 42,2000                        PINBALL3           EQUALS
000309: 42,2000                                           BNKSUM   42
000310:
000311: 43,2000                                           BANK     43
000312: 43,2000                        EXTVERBS           EQUALS
000313: 43,2000                        SELFCHEC           EQUALS
000314: 43,2000                                           BNKSUM   43
000315:


000317:
000318: 43,2000  23,2521               HI6ZEROS           EQUALS   ZEROVECS                              #  ZERO VECTOR ALWAYS IN HIGH MEMORY
000319: 43,2000  12,2006               LO6ZEROS           EQUALS   ZEROVEC                               #  ZERO VECTOR ALWAYS IN LOW MEMORY
000320: 43,2000  23,2517               HIDPHALF           EQUALS   UNITX
000321: 43,2000  12,2004               LODPHALF           EQUALS   XUNIT
000322: 43,2000  23,2511               HIDP1/4            EQUALS   DP1/4TH
000323: 43,2000  04,3036               LODP1/4            EQUALS   D1/4                                  #  2DEC .25
000324: 43,2000  23,2517               HIUNITX            EQUALS   UNITX
000325: 43,2000  23,2515               HIUNITY            EQUALS   UNITY
000326: 43,2000  23,2513               HIUNITZ            EQUALS   UNITZ
000327: 43,2000  12,2004               LOUNITX            EQUALS   XUNIT                                 #  2DEC .5
000328: 43,2000  12,2002               LOUNITY            EQUALS   YUNIT                                 #  2DEC 0
000329: 43,2000  12,2000               LOUNITZ            EQUALS   ZUNIT                                 #  2DEC 0
000330:
000331: 43,2000  22,3541               DELRSPL            EQUALS   SPLRET                                #  COL PGM, ALSO CALLED BY R30 IN LUMINARY
000332:
000333:                                                                                                  #  ROPE-SPECIFIC ASSIGNS OBVIATING NEED TO CHECK COMPUTER FLAG IN DETERMINING INTEGRATION AREA ENTRIES.
000334:
000335: 43,2000  13,2734               ATOPTHIS           EQUALS   ATOPLEM
000336: 43,2000  13,2661               ATOPOTH            EQUALS   ATOPCSM
000337: 43,2000  13,3043               OTHPREC            EQUALS   CSMPREC
000338: 43,2000  0000174               MOONTHIS           EQUALS   LMOONFLG
000339: 43,2000  0000173               MOONOTH            EQUALS   CMOONFLG
000340: 43,2000  13,2747               MOVATHIS           EQUALS   MOVEALEM
000341: 43,2000  12,2017               RMM                =        LODPMAX
000342: 43,2000  12,2021               RME                =        LODPMAX1
000343: 43,2000  13,3057               THISPREC           EQUALS   LEMPREC
000344: 43,2000  23,2513               THISAXIS           =        UNITZ
000345: 43,2000  23,2513               NB1NB2             EQUALS   THISAXIS                              #  FOR R31
000346: 43,2000     5011               ERASID             EQUALS   BITS2-10                              #  DOWNLINK ERASABLE DUMP ID
000347: 43,2000     4752               DELAYNUM           EQUALS   TWO
000348:

End of include-file TAGS_FOR_RELATIVE_SETLOC_AND_BLANK_BANK_CARDS.agc.  Parent file is MAIN.agc


