
Source Code


000002:                                                                                                  ## Copyright:   Public domain.
000003:                                                                                                  ## Filename:    THROTTLE_CONTROL_ROUTINES.agc
000004:                                                                                                  ## Purpose:     Part of the source code for Luminary 1A build 099.
000005:                                                                                                  ##              It is part of the source code for the Lunar Module's (LM)
000006:                                                                                                  ##              Apollo Guidance Computer (AGC), for Apollo 11.
000007:                                                                                                  ## Assembler:   yaYUL
000008:                                                                                                  ## Contact:     HARTMUTH GUTSCHE <hgutsche@xplornet.com>.
000009:                                                                                                  ## Website:     www.ibiblio.org/apollo.
000010:                                                                                                  ## Pages:       793-797
000011:                                                                                                  ## Mod history: 2009-05-20 HG   Transcribed from page images.
000012:                                                                                                  ##              2010-12-31 JL   Fixed page number comments.
000013:                                                                                                  ##
000014:                                                                                                  ## This source code has been transcribed or otherwise adapted from
000015:                                                                                                  ## digitized images of a hardcopy from the MIT Museum.  The digitization
000016:                                                                                                  ## was performed by Paul Fjeld, and arranged for by Deborah Douglas of
000017:                                                                                                  ## the Museum.  Many thanks to both.  The images (with suitable reduction
000018:                                                                                                  ## in storage size and consequent reduction in image quality as well) are
000019:                                                                                                  ## available online at www.ibiblio.org/apollo.  If for some reason you
000020:                                                                                                  ## find that the images are illegible, contact me at info@sandroid.org
000021:                                                                                                  ## about getting access to the (much) higher-quality images which Paul
000022:                                                                                                  ## actually created.
000023:                                                                                                  ##
000024:                                                                                                  ## Notations on the hardcopy document read, in part:
000025:                                                                                                  ##
000026:                                                                                                  ##      Assemble revision 001 of AGC program LMY99 by NASA 2021112-61
000027:                                                                                                  ##      16:27 JULY 14, 1969
000028:


000030: 31,2216                                           BANK     31
000031: 31,2000                                           SETLOC   FTHROT
000032: 31,2000                                           BANK
000033: 31,2216  E7,1612                                  EBANK=   PIF
000034: 31,2216                                           COUNT*   $$/THROT
000035:
000036:                                                                                                  #  * * * * * * * * * * * * * * * * * * * * * * * * * * * * * * * * * * * * * *
000037:                                                                                                  #  HERE FC, DESIRED THRUST, AND FP, PRESENT THRUST, UNWEIGHTED, ARE COMPUTED.
000038:
000039: 31,2216           31246        THROTTLE           CA       ABDELV                                #  COMPUTE PRESENT ACCELERATION IN UNITS OF
000040: 31,2217           00006                           EXTEND                                         #  2(-4) M/CS/CS, SAVING SERVICER TROUBLE
000041: 31,2220           72417                           MP       /AF/CNST
000042: 31,2221           00006                 +3        EXTEND
000043: 31,2222           23607                           QXCH     RTNHOLD
000044: 31,2223           02400        AFDUMP             TC       MASSMULT
000045: 31,2224           53470                           DXCH     FP                                    #  FP = PRESENT THRUST
000046: 31,2225           00006                           EXTEND
000047: 31,2226           31464                           DCA      /AFC/
000048: 31,2227           02400                           TC       MASSMULT
000049: 31,2230           55615                           TS       FC                                    #  FC = THRUST DESIRED BY GUIDANCE
000050: 31,2231           53466                           DXCH     FCODD                                 #  FCODD = WHAT IT IS GOING TO GET
000051:
000052:                                                                                                  #  IF IT HAS BEEN LESS THAN 3 SECONDS SINCE THE LAST THROTTLING, AUGMENT FP USING THE FWEIGHT CALCULATED THEN.
000053:
000054: 31,2232           41617                           CS       TTHROT                                #  THIS CODING ASSUMES A FLATOUT WITHIN
000055: 31,2233           60025                           AD       TIME1                                 #        80 SECONDS BEFORE FIRST THROTTLE CALL
000056: 31,2234           74733                           MASK     POSMAX
000057: 31,2235           40000                           COM
000058: 31,2236           65002                           AD       3SECS
000059: 31,2237           00006                           EXTEND
000060: 31,2240           62244                           BZMF     WHERETO                               #  BRANCH IF (TIME1-TTHROT +1) > 3 SECONDS
000061: 31,2241           00006                           EXTEND
000062: 31,2242           31611                           DCA      FWEIGHT
000063: 31,2243           21470                           DAS      FP
000064:
000065:                                                                                                  #  THIS LOGIC DETERMINES THE THROTTLING IN THE REGION 10% - 94%.  THE MANUAL THROTTLE, NOMINALLY SET AT
000066:                                                                                                  #  MINIMUM BY ASTRONAUT OR MISSION CONTROL PROGRAMS, PROVIDES THE LOWER BOUND.  A STOP IN THE THROTTLE HARDWARE
000067:                                                                                                  #  PROVIDES THE UPPER.
000068:
000069: 31,2244           35014        WHERETO            CA       EBANK5                                #  INITIALIZE L*WCR*T AND H*GHCR*T FROM
000070: 31,2245           54003                           TS       EBANK                                 #        PAD LOADED ERASABLES IN W-MATRIX


000072: 31,2246  E5,1506                                  EBANK=   LOWCRIT
000073: 31,2246           00006                           EXTEND
000074: 31,2247           31507                           DCA      LOWCRIT
000075: 31,2250           52131                           DXCH     L*WCR*T
000076: 31,2251           35016                           CA       EBANK7
000077: 31,2252           54003                           TS       EBANK
000078: 31,2253  E7,1612                                  EBANK=   PIF
000079: 31,2253           44755                           CS       ZERO                                  #  INITIALIZE PIFPSET
000080: 31,2254           55606                           TS       PIFPSET
000081: 31,2255           40131                           CS       H*GHCR*T
000082: 31,2256           61620                           AD       FCOLD
000083: 31,2257           00006                           EXTEND
000084: 31,2260           62272                           BZMF     LOWFCOLD                              #  BRANCH IF FCOLD < OR = HIGHCRIT
000085: 31,2261           40130                           CS       L*WCR*T
000086: 31,2262           61465                           AD       FCODD
000087: 31,2263           00006                           EXTEND
000088: 31,2264           62267                           BZMF     FCOMPSET                              #  BRANCH IF FC < OR = LOWCRIT
000089: 31,2265           31467                           CA       FP                                    #  SEE NOTE 1
000090: 31,2266           12277                           TCF      FLATOUT1
000091:
000092: 31,2267           42002        FCOMPSET           CS       FMAXODD                               #  SEE NOTE 2
000093: 31,2270           61467                           AD       FP
000094: 31,2271           12301                           TCF      FLATOUT2
000095:
000096: 31,2272           40131        LOWFCOLD           CS       H*GHCR*T
000097: 31,2273           61465                           AD       FCODD
000098: 31,2274           00006                           EXTEND
000099: 31,2275           62302                           BZMF     DOPIF                                 #  BRANCH IF FC < OR = HIGHCRIT
000100:
000101: 31,2276           32003                           CA       FMAXPOS                               #  NO:  THROTTLE-UP
000102: 31,2277           53466        FLATOUT1           DXCH     FCODD
000103: 31,2300           34737                           CA       FEXTRA
000104: 31,2301           55606        FLATOUT2           TS       PIFPSET
000105:
000106:                                                                                                  #  NOTE 1        FC IS SET EQUAL TO FP SO PIF WILL BE ZERO.  THIS IS DESIRABLE
000107:                                                                                                  #                AS THERE IS ACTUALLY NO THROTTLE CHANGE.
000108:
000109:                                                                                                  #  NOTE2         HERE, SINCE WE ARE ABOUT TO RETURN TO THE THROTTLEABLE REGION
000110:                                                                                                  #                (BELOW 55%) THE QUANTITY -(FMAXODD-FP) IS COMPUTED AND PUT
000111:                                                                                                  #                INTO PIFPSET TO COMPENSATE FOR THE DIFFERENCE BETWEEN THE
000112:                                                                                                  #                NUMBER OF BITS CORRESPONDING TO FULL THROTTLE (FMAXODD) AND THE
000113:                                                                                                  #                NUMBER CORRESPONDING TO ACTUAL THRUST (FP).  THUS THE TOTAL
000114:                                                                                                  #                THROTTLE COMMAND PIF = FC - FP - (FMAXODD - FP) = FC - FMAXODD.
000115:
000116: 31,2302           03740        DOPIF              TC       FASTCHNG
000117: 31,2303           00006                           EXTEND
000118: 31,2304           31466                           DCA      FCODD
000119: 31,2305           55620                           TS       FCOLD
000120: 31,2306           53613                           DXCH     PIF
000121: 31,2307           00006                           EXTEND


000123: 31,2310           41470                           DCS      FP
000124: 31,2311           21613                           DAS      PIF                                   #  PIF = FC - FP, NEVER EQUALS +0
000125:
000126: 31,2312           31612        DOIT               CA       PIF
000127: 31,2313           61606                           AD       PIFPSET                               #  ADD IN PIFPSET, WITHOUT CHANGING PIF
000128: 31,2314           55614                           TS       PSEUDO55
000129: 31,2315           54055                           TS       THRUST
000130: 31,2316           34750                           CAF      BIT4
000131: 31,2317           00006                           EXTEND
000132: 31,2320           05014                           WOR      CHAN14
000133: 31,2321           30025                           CA       TIME1
000134: 31,2322           55617                           TS       TTHROT
000135:
000136:                                                                                                  #  SINCE /AF/ IS NOT AN INSTANTANEOUS ACELERATION, BUT RATHER AN "AVERAGE" OF THE ACCELERATION LEVELS DURING
000137:                                                                                                  #  THE PRECEEDING PIPA INTERVAL, AND SINCE FP IS COMPUTED DIRECTLY FROM /AF/, FP IN ORDER TO CORRESPOND TO THE
000138:                                                                                                  #  ACTUAL THRUST LEVEL AT THE END OF THE INTERVAL MUST BE WEIGHTED BY
000139:
000140:                                                                                                  #                  PIF(PPROCESS + TL)     PIF /PIF/
000141:                                                                                                  #        FWEIGHT = ------------------ + -------------
000142:                                                                                                  #                       PGUID           2 PGUID FRATE
000143:
000144:                                                                                                  #  WHERE PROCESS IS THE TIME BETWEEN PIPA READING AND THE START OF THROTTLING, PGUID IS THE GUIDANCE PERIOD, AND
000145:                                                                                                  #  FRATE IS THE THROTTLING RATE (32 UNITS PER CENTISECOND).  PGUID IS EITHER 1 OR 2 SECONDS.  THE "TL" IN THE
000146:                                                                                                  #  FIRST TERM REPRESENTS THE ENGINE'S RESPONSE LAG.  HERE FWEIGHT IS COMPUTED FOR USE NEXT PASS.
000147:
000148: 31,2323           31762                           CA       THISTPIP   +1                         #  INITIALIZE FWEIGHT COMP AS IF FOR P66
000149: 31,2324           54130                           TS       BUF
000150:
000151: 31,2325           41011                           CS       MODREG                                #  ARE WE IN FACT IN P66?
000152: 31,2326           62501                           AD       DEC66
000153: 31,2327           00006                           EXTEND
000154: 31,2330           12335                           BZF      FWCOMP                                #  YES
000155:
000156: 31,2331           31235                           CA       PIPTIME    +1                         #  NO:  INITIALIZE FOR TWO SECOND PERIOD
000157: 31,2332           54130                           TS       BUF
000158: 31,2333           35003                           CAF      4SECS
000159: 31,2334           12336                           TCF      FWCOMP     +1
000160:
000161: 31,2335           35000        FWCOMP             CAF      2SECS
000162: 31,2336           54002                 +1        TS       Q
000163: 31,2337           00006                           EXTEND
000164: 31,2340           74746                           MP       BIT6
000165: 31,2341           22131                           LXCH     BUF        +1
000166: 31,2342           40130                           CS       BUF                                   #  TIME OF LAST PIPA READING.
000167: 31,2343           60025                           AD       TIME1
000168: 31,2344           62004                           AD       THROTLAG                              #  COMPENSATE FOR ENGINE RESPONSE LAG
000169: 31,2345           74357                           MASK     LOW8                                  #  MAKE SURE SMALL AND POSITIVE
000170: 31,2346           22007                           ZL
000171: 31,2347           00006                           EXTEND


000173: 31,2350           10002                           DV       Q
000174: 31,2351           00006                           EXTEND
000175: 31,2352           71612                           MP       PIF
000176: 31,2353           60000                           DOUBLE
000177: 31,2354           53611                           DXCH     FWEIGHT
000178: 31,2355           11612                           CCS      PIF
000179: 31,2356           64753                           AD       ONE
000180: 31,2357           12361                           TCF      +2
000181: 31,2360           64753                           AD       ONE
000182: 31,2361           00006                           EXTEND
000183: 31,2362           71612                           MP       PIF
000184: 31,2363           00006                           EXTEND
000185: 31,2364           10131                           DV       BUF        +1
000186: 31,2365           22007                           ZL
000187: 31,2366           21611                           DAS      FWEIGHT
000188:
000189: 31,2367           01607        THDUMP             TC       RTNHOLD
000190:
000191:                                                                                                  #  FLATOUT THROTTLES UP THE DESCENT ENGINE, AND IS CALLED AS A BASIC SUBROUTINE.
000192:
000193: 31,2370           34737        FLATOUT            CAF      BIT13                                 #  4096 PULSES
000194: 31,2371           55606        WHATOUT            TS       PIFPSET                               #  USE PIFPSET SO FWEIGHT WILL BE ZERO
000195: 31,2372           44755                           CS       ZERO
000196: 31,2373           55620                           TS       FCOLD
000197: 31,2374           55612                           TS       PIF
000198: 31,2375           00006                           EXTEND
000199: 31,2376           23607                           QXCH     RTNHOLD
000200: 31,2377           12312                           TCF      DOIT
000201:
000202:                                                                                                  #  MASSMULT SCALES ACCELERATION, ARRIVING IN A AND L IN UNITS OF 2(-4) M/CS/CS, TO FORCE IN PULSE UNITS.
000203:
000204: 31,2400           00006        MASSMULT           EXTEND
000205: 31,2401           22130                           QXCH     BUF
000206: 31,2402           52155                           DXCH     MPAC
000207: 31,2403           07103                           TC       DMP
000208: 31,2404           01244                           ADRES    MASS
000209: 31,2405           07103                           TC       DMP                                   #  LEAVES PROPERLY SCALED FORCE IN MPAC
000210: 31,2406           02005                           ADRES    SCALEFAC
000211: 31,2407           07257                           TC       TPAGREE
000212: 31,2410           30154                           CA       MPAC
000213: 31,2411           00006                           EXTEND
000214: 31,2412           12415                           BZF      +3
000215: 31,2413           34733                           CAF      POSMAX
000216: 31,2414           00130                           TC       BUF
000217: 31,2415           52156                           DXCH     MPAC       +1
000218: 31,2416           00130                           TC       BUF


000220:                                                                                                  #  CONSTANTS --
000221:
000222: 31,2417     4737               FEXTRA             =        BIT13                                 #  FEXT +5.13309020 E+4
000223:
000224: 31,2417           04143        /AF/CNST           DEC      .13107
000225:
000226:                                                                                                  #  * * * * * * * * * * * * * * * * * * * * * * * * * * * * * * * * * * * * * * *

End of include-file THROTTLE_CONTROL_ROUTINES.agc.  Parent file is MAIN.agc


