
Source Code


000002:                                                                                                  ## Copyright:   Public domain.
000003:                                                                                                  ## Filename:    TIME_OF_FREE_FALL.agc
000004:                                                                                                  ## Purpose:     Part of the source code for Luminary 1A build 099.
000005:                                                                                                  ##              It is part of the source code for the Lunar Module's (LM)
000006:                                                                                                  ##              Apollo Guidance Computer (AGC), for Apollo 11.
000007:                                                                                                  ## Assembler:   yaYUL
000008:                                                                                                  ## Contact:     Ron Burkey <info@sandroid.org>.
000009:                                                                                                  ## Website:     www.ibiblio.org/apollo.
000010:                                                                                                  ## Pages:       1268-1283
000011:                                                                                                  ## Mod history: 2009-05-26 RSB  Adapted from the corresponding
000012:                                                                                                  ##                              Luminary131 file, using page
000013:                                                                                                  ##                              images from Luminary 1A.
000014:                                                                                                  ##              2011-01-06 JL   Fixed pseudo-label indentation.
000015:                                                                                                  ##              2016-12-17 RSB  Proofed text comments with octopus/ProoferComments
000016:                                                                                                  ##                              and corrected the errors found.
000017:                                                                                                  ##
000018:                                                                                                  ## This source code has been transcribed or otherwise adapted from
000019:                                                                                                  ## digitized images of a hardcopy from the MIT Museum.  The digitization
000020:                                                                                                  ## was performed by Paul Fjeld, and arranged for by Deborah Douglas of
000021:                                                                                                  ## the Museum.  Many thanks to both.  The images (with suitable reduction
000022:                                                                                                  ## in storage size and consequent reduction in image quality as well) are
000023:                                                                                                  ## available online at www.ibiblio.org/apollo.  If for some reason you
000024:                                                                                                  ## find that the images are illegible, contact me at info@sandroid.org
000025:                                                                                                  ## about getting access to the (much) higher-quality images which Paul
000026:                                                                                                  ## actually created.
000027:                                                                                                  ##
000028:                                                                                                  ## Notations on the hardcopy document read, in part:
000029:                                                                                                  ##
000030:                                                                                                  ##      Assemble revision 001 of AGC program LMY99 by NASA 2021112-61
000031:                                                                                                  ##      16:27 JULY 14, 1969
000032:


000034:                                                                                                  #  THE TFF SUBROUTINES MAY BE USED IN EITHER EARTH OR MOON CENTERED COORDINATES.  THE TFF ROUTINES NEVER
000035:                                                                                                  #  KNOW WHICH ORIGIN APPLIES.  IT IS THE USER WHO KNOWS, AND WHO SUPPLIES RONE, VONE AND 1/SQRT(MU) AT THE
000036:                                                                                                  #  APPROPRIATE SCALE LEVEL FOR THE PROPER PRIMARY BODY.
000037:
000038:                                                                                                  #        EARTH ORIGIN    POSITION        -29     METERS
000039:                                                                                                  #                        VELOCITY        -7      METERS/CENTISECOND
000040:                                                                                                  #                        1/SQRT(MU)      +17     SQRT(CS SQ/METERS CUBED)
000041:
000042:                                                                                                  #        MOON ORIGIN     POSITION        -27     METERS
000043:                                                                                                  #                        VELOCITY        -5      METERS/CENTISECONDS
000044:                                                                                                  #                        1/SQRT(MU)      +14     SQRT(CS SQ/METERS CUBED)
000045:
000046:                                                                                                  #  ALL DATA PROVIDED TO AND RECEIVED FROM ANY TFF SUBROUTINE WILL BE AT ONE OF THE LEVELS ABOVE.  IN ALL CASES,
000047:                                                                                                  #  THE FREE FALL TIME IS RETURNED IN CENTISECONDS AT (-28).  PROGRAM TFF/CONIC WILL GENERATE VONE/RTMU AND
000048:                                                                                                  #  LEAVE IT IN VONE' AT (+10) IF EARTH ORIGIN AND (+9) IF MOON ORIGIN.
000049:
000050:                                                                                                  #  THE USER MUST STORE THE STATE VECTOR IN RONE, VONE  AND MU IN THE FORM 1/SQRT(MU) IN TFF/RTMU
000051:                                                                                                  #  AT THE PROPER SCALE BEFORE CALLING TFF/CONIC.  SINCE RONE, VONE ARE IN THE EXTENDED VERB STORAGE AREA,
000052:                                                                                                  #  THE USER MUST ALSO LOCK OUT THE EXTENDED VERBS, AND RELEASE THEM WHEN FINISHED.
000053:
000054:                                                                                                  #  PROGRAMS CALC/TFF AND CALC/TPER ASSUME THAT THE TERMINAL RADIUS IS LESS THAN THE PRESENT
000055:                                                                                                  #  RADIUS.  THIS RESTRICTION CAN BE REMOVED BY A 15 W CODING CHANGE, BUT AT PRESENT IT IS NOT DEEMED NECESSARY.
000056:
000057:                                                                                                  #  THE FOLLOWING ERASABLE QUANTITIES ARE USED BY THE TFF ROUTINES, AND ARE LOCATED IN THE PUSH LIST.
000058:
000059:                                                                                                  #                                        BELOW   E:  IS USED FOR EARTH ORIGIN SCALE
000060:                                                                                                  #                                                M:  IS USED FOR MOON  ORIGIN SCALE
000061:
000062:                                                                                                  # TFFSW          =       119D    BIT1    0 = CALCTFF             1 = CALCTPER
000063: 10,2213                        TFFDELQ            =        10D                                   #        Q2-Q1                   E: (-16)  M: (-15)
000064: 10,2213                        RMAG1              =        12D                                   #        ABVAL(RN)  M            E: (-29)  M: (-27)
000065:                                                                                                  # RPER           =       14D             PERIGEE RADIUS  M       E: (-29)  M: (-27)
000066: 10,2213                        TFFQ1              =        14D                                   #        R.V / SQRT(MUE)         E: (-16)  M: (-15)
000067:                                                                                                  # SDELF/2                                SIN(THETA) /2
000068: 10,2213                        CDELF/2            =        14D                                   #        COS(THETA) /2
000069:                                                                                                  # RAPO           =       16D             APOGEE RADIUS  M        E: (-29)  M: (-27)
000070: 10,2213                        NRTERM             =        16D                                   #        TERMINAL RADIUS  M      E: (-29+NR)
000071:                                                                                                  #                                          M: (-27+NR)
000072: 10,2213                        RTERM              =        18D                                   #        TERMINAL RADIUS  M      E: (-29)  M: (-27)
000073: 10,2213                        TFFVSQ             =        20D                                   #        -(V SQUARED/MU)  1/M    E: (20)   M: (18)
000074: 10,2213                        TFF1/ALF           =        22D                                   #        SEMI MAJ AXIS  M        E: (-22-2 NA)
000075:                                                                                                  #                                          M: (-20-2 NA)
000076: 10,2213                        TFFRTALF           =        24D                                   #        SQRT(ALFA)              E:(10+NA) M: (9+NA)
000077: 10,2213                        TFFALFA            =        26D                                   #        ALFA  1/M               E:(26-NR) M: (24-NR)
000078: 10,2213                        TFFNP              =        28D                                   #        SEMI LATUS RECTUM  M    E: (-38+2 NR)
000079:                                                                                                  #                                          M: (-36+2 NR)
000080: 10,2213                        TFF/RTMU           =        30D                                   #        1/SQRT(MU)              E: (17)   M: (14)
000081: 10,2213                        NRMAG              =        32D                                   #        PRESENT RADIUS  M       E: (-29+NR)
000082:                                                                                                  #                                          M: (-27+NR)
000083: 10,2213                        TFFX               =        34D
000084: 10,2213                        TFFTEM             =        36D                                   #        TEMPORARY


000086:                                                                                                  #                REGISTERS S1, S2 ARE UNTOUCHED BY ANY TFF SUBROUTINE
000087:                                                                                                  #                INDEX REGISTERS X1, X2 ARE USED BY ALL TFF SUBROUTINES.  THEY ARE ESTAB-
000088:                                                                                                  #                LISHED IN TFF/CONIC AND MUST BE PRESERVED BETWEEN CALLS TO SUBSEQUENT
000089:                                                                                                  #                SUBROUTINES.
000090:                                                                                                  #                -NR                             C(X1) = NORM COUNT OF RMAG
000091:                                                                                                  #                -NA                             C(X2) = NORM COUNT OF SQRT(ABS(ALFA))
000092:


000094:                                                                                                  #  SUBROUTINE NAME:  TFFCONIC                                            DATE:  01.29.67
000095:                                                                                                  #  MOD NO:  0                                                            LOG SECTION:  TIME OF FREE FALL
000096:                                                                                                  #  MOD BY:  RR BAIRNSFATHER
000097:                                                                                                  #  MOD NO:  1    MOD BY:  RR BAIRNSFATHER        DATE: 11 APR 67
000098:                                                                                                  #  MOD NO:  2    MOD BY:  RR BAIRNSFATHER        DATE: 21 NOV 67         ADD MOON MU.
000099:                                                                                                  #  MOD NO:  3    MOD BY:  RR BAIRNSFATHER        DATE: 21 MAR 68         ACCEPT DIFFERENT EARTH/MOON SCALES
000100:
000101:                                                                                                  #  FUNCTIONAL DESCRIPTION:  THIS SUBROUTINE IS CALLED TO COMPUTE THOSE CONIC PARAMETERS REQUIRED BY THE TFF
000102:                                                                                                  #        SUBROUTINES AND TO ESTABLISH THEM IN THE PUSH LIST AREA.  THE PARAMETERS ARE LISTED UNDER OUTPUT.
000103:                                                                                                  #        THE EQUATIONS ARE
000104:                                                                                                  #                _   __ __
000105:                                                                                                  #                H = RN*VN                       ANGULAR MOMENTUM
000106:                                                                                                  #                      _ _
000107:                                                                                                  #                LCP = H.H / MU                  SEMI LATUS RECTUM
000108:                                                                                                  #                              __ __
000109:                                                                                                  #                ALFA = 2/RN - VN.VN / MU        RECIPROCAL SEMI MAJ AXIS, SIGNED
000110:
000111:                                                                                                  #        AND ALFA IS POS FOR ELLIPTIC ORBITS
000112:                                                                                                  #                      0 FOR PARABOLIC ORBITS
000113:                                                                                                  #                    NEG FOR HYPERBOLIC ORBITS.
000114:                                                                                                  #        SUBROUTINE ALSO COMPUTES AND SAVES RMAG.
000115:
000116:                                                                                                  #  CALLING SEQUENCE:
000117:                                                                                                  #        TFFCONIC EXPECTS CALLER TO ENTER WITH CORRECT GRAVITATIONAL CONSTANT IN MPAC, IN THE FORM
000118:                                                                                                  #        1/SQRT(MU).  PROGRAM WILL SAVE IN TFF/RTMU.  THE SCALE IS DETERMINED BY WHETHER EARTH OR MOON
000119:                                                                                                  #        ORIGIN IS USED.  THE CALLER MUST LOCK OUT THE EXTENDED VERBS BEFORE PROVIDING STATE VECTOR IN RONE,
000120:                                                                                                  #        VONE AT PROPER SCALE.  THE EXTENDED VERBS MUST BE RESTORED WHEN THE CALLER IS FINISHED USING THE
000121:                                                                                                  #        TFF ROUTINES.
000122:
000123:                                                                                                  #        ENTRY POINT TFFCONMU EXPECTS THAT TFF/RTMU IS ALREADY LOADED.
000124:
000125:                                                                                                  #        TO SPECIFY MU:  DLOAD   CALL                            IF MU ALREADY STORED:   CALL
000126:                                                                                                  #                                YOURMU  1/RTMU E:(17) M:(14)                                    TFFCONMU
000127:                                                                                                  #                                TFFCONIC
000128:                                                                                                  #        PUSHLOC = PDL+0, ARBITRARY IF LEQ 18D
000129:
000130:                                                                                                  #  SUBROUTINES CALLED:  NONE
000131:
000132:                                                                                                  #  NORMAL EXIT MODES:  RVQ
000133:
000134:                                                                                                  #  ALARMS:  NONE
000135:
000136:                                                                                                  #  OUTPUT:       THE FOLLOWING ARE STORED IN THE PUSH LIST AREA.
000137:                                                                                                  #                RMAG1           E:(-29) M:(-27) M  RN, PRESENT RADIUS LENGTH.
000138:                                                                                                  #                NRMAG           E:(-29+NR)      M  RMAG, NORMALIZED
000139:                                                                                                  #                                M:(-27+NR)
000140:                                                                                                  #                X1                              -NR, NORM COUNT
000141:                                                                                                  #                TFFNP           E:(-38+2NR)     M  LCP, SEMI LATUS RECTUM, WEIGHTED BY NR.      FOR VGAMCALC
000142:                                                                                                  #                                M:(-36+2NR)
000143:                                                                                                  #                TFF/RTMU        E:(17) M:(14)   1/SQRT(MU)
000144:                                                                                                  #                TFFVSQ          E:(20) M:(18)   1/M  -(V SQ/MU):  PRESENT VELOCITY,NORMLIZED.   FOR VGAMCALC
000145:                                                                                                  #                TFFALFA         E:(26-NR)       1/M  ALFA, WEIGHTED BY NR
000146:                                                                                                  #                                M:(24-NR)
000147:                                                                                                  #                TFFRTALF        E:(10+NA)       SQRT(ALFA), NORMALIZED
000148:                                                                                                  #                                M:(9+NA)


000150:                                                                                                  #                X2                              -NA, NORMCOUNT
000151:                                                                                                  #                TFF1/ALF        E:(-22-2NA)     SIGNED SEMI MAJ AXIS, WEIGHTED BY NA
000152:                                                                                                  #                                M:(-20-2NA)
000153:                                                                                                  #                PUSHLOC AT PDL+0
000154:
000155:                                                                                                  #        THE FOLLOWING IS STORED IN GENERAL ERASABLE
000156:                                                                                                  #                VONE'           E:(10) M:(9)    V/RT(MU), NORMALIZED VELOCITY
000157:
000158:                                                                                                  #  ERASABLE INITIALIZATION REQUIRED:
000159:                                                                                                  #                RONE            E:(-29) M:(-27) M  STATE VECTOR         LEFT BY CALLER
000160:                                                                                                  #                VONE            E:(-7) M:(-5)   M/CS  STATE VECTOR      LEFT BY CALLER
000161:                                                                                                  #                TFF/RTMU        E:(17) M:(14)   1/RT(CS SQ/M CUBE)      IF ENTER VIA TFFCONMU.
000162:
000163:                                                                                                  #  DEBRIS:       QPRET.          PDL+0 ... PDL+3
000164:
000165: 33,3777                                           BANK     33
000166: 27,2000                                           SETLOC   TOF-FF
000167: 27,2000                                           BANK
000168:
000169: 27,3360                                           COUNT*   $$/TFF
000170:
000171: 27,3360           00037        TFFCONIC           STORE    TFF/RTMU                              #  1/SQRT(MU)    E:(17) M:(14)
000172:
000173: 27,3361           53575        TFFCONMU           VLOAD    UNIT                                  #  COME HERE WITH TFFRTMU LOADED.
000174: 27,3362           02207                                    RONE                                  #  SAVED RN.  M  E:(-29) M:(-27)
000175: 27,3363           77725                           PDDL                                           #  UR/2 TO PDL+0, +5
000176: 27,3364           00045                                    36D                                   #  MAGNITUDE
000177: 27,3365           00015                           STORE    RMAG1                                 #  M  E:(-29) M:(-27)
000178:
000179: 27,3366           77701                           NORM
000180: 27,3367           00047                                    X1                                    #  -NR
000181: 27,3370           24041                           STOVL    NRMAG                                 #  RMAG  M  E:(-29+NR) M:(-27+NR)
000182: 27,3371           02215                                    VONE                                  #  SAVED VN.  M/CS  E:(-7) M:(-5)
000183: 27,3372           77761                           VXSC
000184: 27,3373           00037                                    TFF/RTMU                              #  E:(17) M:(14)
000185: 27,3374           02170                           STORE    VONE'                                 #  VN/SQRT(MU)  E:(10) M:(9)
000186:
000187: 27,3375           47361                           VXSC     VXV
000188: 27,3376           00041                                    NRMAG                                 #  E:(-29+NR) M:(-27+NR)
000189:                                                                                                  #  UR/2 FROM PDL
000190: 27,3377           47572                           VSL1     VSQ                                   #  BEFORE:  E:(-19+NR) M:(-18+NR)
000191: 27,3400           14035                           STODL    TFFNP                                 #  LC P  M  E:(-38+2NR) M:(-36+2NR)
000192:                                                                                                  #  SAVE ALSO FOR VGAMCALC
000193: 27,3401           06512                                    TFF1/4
000194: 27,3402           63271                           DDV      PDVL                                  #  (2/RMAG)  1/M  E:(26-NR) M:(24-NR)
000195: 27,3403           00041                                    NRMAG                                 #  RMAG  M  E:(-29+NR) M:(-27+NR)
000196: 27,3404           02170                                    VONE'                                 #  SAVED VN.  E:(10) M:(9)
000197: 27,3405           57436                           VSQ      DCOMP                                 #  KEEP MPAC+2 HONEST FOR SQRT.
000198: 27,3406           00025                           STORE    TFFVSQ                                #  -(V SQ/MU)  E:(20) M:(18)
000199:                                                                                                  #  SAVE FOR VGAMCALC
000200: 27,3407           43257                           SR*      DAD


000202: 27,3410           20573                                    0          -6,1                       #  GET -VSQ/MU  E:(26-NR) M:(24-NR)
000203: 27,3411           77626                           STADR
000204:                                                                                                  #  2/RMAG  FROM PDL+2
000205: 27,3412           77744                           STORE    TFFALFA                               #  ALFA  1/M  E:(26-NR) M:(24-NR)
000206: 27,3413           41457                           SL*      PUSH                                  #  TEMP SAVE ALFA  E:(20) M:(18)
000207: 27,3414           20173                                    0          -6,1
000208: 27,3415           75446                           ABS      SQRT                                  #  E:(10) M:(9)
000209: 27,3416           77701                           NORM
000210: 27,3417           00050                                    X2                                    #  X2 = -NA
000211: 27,3420           00031                           STORE    TFFRTALF                              #  SQRT( ABS(ALFA) )  E:(10+NA) M:(9+NA)
000212: 27,3421           75316                           DSQ      SIGN                                  #  NOT SO ACCURATE, BUT OK
000213:                                                                                                  #  ALFA FROM PDL+2  E:(20) M:(18)
000214: 27,3422           55254                           BZE      BDDV                                  #  SET 1/ALFA =0, TO SHOW SMALL ALFA
000215: 27,3423           57425                                    +2
000216: 27,3424           06512                                    TFF1/4
000217: 27,3425           00027                 +2        STORE    TFF1/ALF                              #  1/ALFA  E:(-22-2NA) M:(-20-2NA)
000218: 27,3426           77616        DUMPCNIC           RVQ
000219:
000220:                                                                                                  #                                                              39 W


000222:                                                                                                  #  SUBROUTINE NAME:  TFFRP/RA                                            DATE: 01.17.67
000223:                                                                                                  #  MOD NO:  0                                                            LOG SECTION:  TIME OF FREE FALL
000224:                                                                                                  #  MOD BY:  RR BAIRNSFATHER
000225:                                                                                                  #  MOD NO:  1    MOD BY:  RR BAIRNSFATHER        DATE: 11 APR 67
000226:                                                                                                  #  MOD NO:  2    MOD BY:  RR BAIRNSFATHER        DATE: 21 MAR 68         ACCEPT DIFFERENT EARTH/MOON SCALES
000227:                                                                                                  #                                                                        ALSO IMPROVE ACCURACY OF RAPO.
000228:
000229:                                                                                                  #  FUNCTIONAL DESCRIPTION:  USED BY CALCTPER AND TFF DISPLAYS TO CALCULATE PERIGEE RADIUS AND ALSO
000230:                                                                                                  #        APOGEE RADIUS FOR A GENERAL CONIC.
000231:                                                                                                  #        PROGRAM GIVES PERIGEE RADIUS AS         APOGEE RADIUS IS GIVEN BY
000232:                                                                                                  #                RP = P/(1+E)                            RA = (1+E) / ALFA
000233:                                                                                                  #        WHERE    2
000234:                                                                                                  #                E  = 1 - P ALFA
000235:                                                                                                  #        IF RA IS NEGATIVE OR SHOWS DIVIDE OVERFLOW, THEN RA = POSMAX BECAUSE
000236:                                                                                                  #                1. APOGEE RADIUS IS NOT MEANINGFUL FOR HYPERBOLA
000237:                                                                                                  #                2. APOGEE RADIUS IS NOT DEFINED FOR PARABOLA
000238:                                                                                                  #                3. APOGEE RADIUS EXCEEDS THE SCALING FOR ELLIPSE.
000239:
000240:                                                                                                  #        THIS SUBROUTINE REQUIRES THE SIGNED RECIPROCAL SEMI MAJ AXIS, ALFA, AND SEMI LATUS RECTUM AS DATA.
000241:
000242:                                                                                                  #  CALLING SEQUENCE:     CALL
000243:                                                                                                  #                                TFFRP/RA
000244:                                                                                                  #        PUSHLOC = PDL+0, ARBITRARY IF LEQ 10D
000245:                                                                                                  #        C(MPAC) UNSPECIFIED
000246:
000247:                                                                                                  #  SUBROUTINES CALLED:   NONE
000248:
000249:                                                                                                  #  NORMAL EXIT MODE:     RVQ
000250:                                                                                                  #        IF ELLIPSE, WITHIN NORMAL SCALING, RAPO IS CORRECT.
000251:                                                                                                  #        OTHERWISE, RAPO = POSMAX.
000252:
000253:                                                                                                  #  ALARMS:       NONE
000254:
000255:                                                                                                  #  OUTPUT:       STORED IN PUSH LIST AREA.  SCALE OF OUTPUT AGREES WITH DATA SUPPLIED TO TFF/CONIC.
000256:                                                                                                  #        RPER    E:(-29) M:(-27)         M       PERIGEE RADIUS          DESTROYED BY CALCTFF/CALCTPER, TFFTRIG.
000257:                                                                                                  #        RAPO    E:(-29) M:(-27)         M       APOGEE RADIUS           WILL BE DESTROYED BY CALCTFF/CALCTPER
000258:                                                                                                  #        PUSHLOC AT PDL+0
000259:
000260:                                                                                                  #  ERASABLE INITIALIZATION REQUIRED:
000261:                                                                                                  #        TFFALFA E:(26-NR)               M       1/SEMI MAJ AXIS         LEFT BY TFFCONIC
000262:                                                                                                  #                M:(24-NR)
000263:                                                                                                  #        TFFNP   E:(-38+2NR)             M       LC P, SEMI LATUS RECTUM LEFT BY TFFCONIC
000264:                                                                                                  #                M:(-36+2NR)
000265:                                                                                                  #        X1                              -NR, NORM COUNT OF RMAG         LEFT BY TFFCONIC
000266:                                                                                                  #        X2                              -NA, NORM COUNT OF ALFA         LEFT BY TFFCONIC
000267:
000268:                                                                                                  #  DEBRIS:       QPRET, PDL+0 ... PDL+1
000269:


000271: 27,3427                        RAPO               =        16D                                   #  APOGEE RADIUS  M  E:(-29) M:(-27)
000272: 27,3427                        RPER               =        14D                                   #  PERIGEE RADIUS  M  E:(-29) M:(-27)
000273:
000274: 27,3427           41345        TFFRP/RA           DLOAD    DMP
000275: 27,3430           00033                                    TFFALFA                               #  ALFA  1/M  E:(26-NR) M:(24-NR)
000276: 27,3431           00035                                    TFFNP                                 #  LC P  M E:(-38+2NR) M:(-36+2NR)
000277: 27,3432           57457                           SR*      DCOMP                                 #  ALFA P (-12+NR)
000278: 27,3433           20571                                    0          -8D,1                      #  ALFA P (-4)
000279: 27,3434           51415                           DAD      ABS                                   #  (DCOMP GIVES VALID TP RESULT FOR SQRT)
000280:                                                                                                  #  (ABS PROTECTS SQRT IF E IS VERY NEAR 0)
000281: 27,3435           17765                                    DP2(-4)
000282: 27,3436           43366                           SQRT     DAD                                   #  E SQ = (1- P ALFA) (-4)
000283: 27,3437           06512                                    TFF1/4
000284: 27,3440           55206                           PUSH     BDDV                                  #  (1+E)  (-2)  TO PDL+0
000285: 27,3441           00035                                    TFFNP                                 #  LCP  M  E:(-38+2NR) M:(-36+2NR)
000286: 27,3442           53657                           SR*      SR*                                   #  (DOES SR THEN SL TO AVOID OVFL)
000287: 27,3443           20601                                    0,1                                   #  X1=-NR
000288: 27,3444           20572                                    0          -7,1                       #  (EFFECTIVE SL)
000289: 27,3445           14017                           STODL    RPER                                  #  PERIGEE RADIUS  M  E:(-29) M:(-27)
000290:                                                                                                  #  (1+E)  (-2)  FROM PDL+0
000291: 27,3446           41005                           DMP      BOVB
000292: 27,3447           00027                                    TFF1/ALF                              #  E:(-22-2NA) M:(-20-2NA)
000293: 27,3450           57753                                    TCDANZIG                              #  CLEAR OVFIND, IF ON.
000294: 27,3451           53654                           BZE      SL*
000295: 27,3452           57461                                    MAXRA                                 #  SET POSMAX, IF ALFA=0
000296: 27,3453           57603                                    0          -5,2                       #  -5+NA
000297: 27,3454           40057                           SL*      BOV
000298: 27,3455           57576                                    0,2
000299: 27,3456           57461                                    MAXRA                                 #  SET POSMAX IF OVFL.
000300: 27,3457           77644                           BPL                                            #  CONTINUE WITH VALID RAPO.
000301: 27,3460           57463                                    +3
000302: 27,3461           77745        MAXRA              DLOAD                                          #  RAPO CALC IS NOT VALID.  SET RAPO =
000303: 27,3462           17771                                    NEARONE                               #  POSMAX AS A TAG.
000304: 27,3463           00021                 +3        STORE    RAPO                                  #  APOGEE RADIUS  M  E:(-29) M:(-27)
000305: 27,3464           77616        DUMPRPRA           RVQ
000306:
000307:                                                                                                  #                                                                30 W


000309:                                                                                                  #  SUBROUTINE NAME:  CALCTPER / CALCTFF                                  DATE:  01.29.67
000310:                                                                                                  #  MOD NO:  0                                                            LOG SECTION:  TIME OF FREE FALL
000311:                                                                                                  #  MOD BY:  RR BAIRNSFATHER
000312:                                                                                                  #  MOD NO:  1    MOD BY:  RR BAIRNSFATHER        DATE: 21 MAR 67
000313:                                                                                                  #  MOD NO:  2    MOD BY:  RR BAIRNSFATHER        DATE: 14 APR 67
000314:                                                                                                  #  MOD NO:  3    MOD BY:  RR BAIRNSFATHER        DATE: 8 JUL 67          NEAR EARTH MUE AND NEG TFF (GONEPAST)
000315:                                                                                                  #  MOD NO:  4    MOD BY:  RR BAIRNSFATHER        DATE: 21 NOV 67         ADD VARIABLE MU.
000316:                                                                                                  #  MOD NO:  5    MOD BY:  RR BAIRNSFATHER        DATE: 21 MAR 68         ACCEPT DIFFERENT EARTH/MOON SCALES
000317:
000318:                                                                                                  #  FUNCTIONAL DESCRIPTION:  PROGRAM CALCULATES THE FREE-FALL TIME OF FLIGHT FROM PRESENT POSITION RN AND
000319:                                                                                                  #        VELOCITY VN TO A RADIUS LENGTH SPECIFIED BY RTERM, SUPPLIED BY THE USER.  THE POSITION VECTOR
000320:                                                                                                  #        RN MAY BE ON EITHER SIDE OF THE CONIC, BUT RTERM IS CONSIDERED ON THE INBOUND SIDE.
000321:                                                                                                  #        THE EQUATIONS ARE
000322:
000323:                                                                                                  #                Q2 = -SQRT(RTERM (2-RTERM ALFA) - LCP)  (INBOUND SIDE)) LEQ +- LCE/SQRT(ALFA)
000324:                                                                                                  #                     __ __
000325:                                                                                                  #                Q1 = RN.VN / SQRT(MU)                                   LEQ +- LCE/SQRT(ALFA)
000326:
000327:                                                                                                  #                Z = NUM / DEN                                           LEQ +- 1/SQRT(ALFA)
000328:
000329:                                                                                                  #        WHERE, IF INBOUND
000330:                                                                                                  #                NUM = RTERM -RN                                         LEQ +- 2 LCE/ALFA
000331:                                                                                                  #                DEN = Q2+Q1                                             LEQ +- 2 LCE/SQRT(ALFA)
000332:
000333:                                                                                                  #        AND, IF OUTBOUND
000334:                                                                                                  #                NUM = Q2-Q1                                             LEQ +- 2 LCE/SQRT(ALFA)
000335:                                                                                                  #                DEN = 2 - ALFA (RTERM + RN).                            LEQ +- 2 LCE
000336:
000337:                                                                                                  #        IF      ALFA ZZ < 1.0           (FOR ALL CONICS EXCEPT ELLIPSES HAVING ABS(DEL ECC ANOM) G 90 DEG)
000338:                                                                                                  #        THEN    X = ALFA Z Z
000339:                                                                                                  #        AND     TFF = (RTERM +RN -2 ZZ T(X) ) Z/SQRT(MU)
000340:                                                                                                  #                EXCEPT  IF ALFA PNZ, AND IF TFF NEG,
000341:                                                                                                  #                THEN    TFF = 2 PI /(ALFA SQRT(ALFA)) + TFF
000342:                                                                                                  #        OR      IF ALFA ZZ GEQ 1.0      (FOR ELLIPSES HAVING ABS(DEL ECC ANOM) GEQ 90 DEG)
000343:                                                                                                  #        THEN    X = 1/ALFA Z Z
000344:                                                                                                  #        AND     TFF = (PI/SQRT(ALFA) -Q2 +Q1 +2(X T(X) -1) /ALFA Z) /ALFA SQRT(MU)
000345:                                                                                                  #        WHERE   T(X) IS A POLYNOMIAL APPROXIMATION TO THE SERIES
000346:                                                                                                  #                             2      3             2
000347:                                                                                                  #                1/3 - X/5 + X /7 - X /9 ...     (X  < 1.0)
000348:
000349:                                                                                                  #  CALLING SEQUENCE:     TIME TO RTERM                   TIME TO PERIGEE
000350:                                                                                                  #                        CALL                            CALL
000351:                                                                                                  #                                CALCTFF                         CALCTPER
000352:                                                                                                  #                        C(MPAC) = TERMNL RAD M          C(MPAC) = PERIGEE RAD M
000353:                                                                                                  #        FOR EITHER, E:(-29) M:(-27)
000354:                                                                                                  #        FOR EITHER, PUSHLOC = PDL+0, ARBITRARY IF LEQ 8D.


000356:
000357:                                                                                                  #  SUBROUTINES CALLED:   T(X), VIA RTB
000358:
000359:                                                                                                  #  NORMAL EXIT MODE:     RVQ
000360:                                                                                                  #        HOWEVER, PROGRAM EXITS WITH ONE OF THE FOLLOWING VALUES FOR TFF (-28) CS IN MPAC.  USER MUST STORE.
000361:                                                                                                  #                A. TFF = FLIGHT TIME.  NORMAL CASE FOR POSITIVE FLIGHT TIME LESS THAN ONE ORBITAL PERIOD.
000362:                                                                                                  #                B. (THIS OPTION IS NO LONGER USED.)
000363:                                                                                                  #                C. TFF = POSMAX.  THIS INDICATES THAT THE CONIC FROM THE PRESENT POSITION WILL NOT RETURN TO
000364:                                                                                                  #                   THE SPECIFIED ALTITUDE.  ALSO INDICATES OUTBOUND PARABOLA OR HYPERBOLA.
000365:
000366:                                                                                                  #  OUTPUT:       C(MPAC)         (-28) CS        TIME OF FLIGHT, OR TIME TO PERIGEE
000367:                                                                                                  #                TFFX            (0)             X.                                      LEFT FOR ENTRY DISPLAY TFF ROUTINES
000368:                                                                                                  #                NRTERM          E:(-29+NR) M    RTERM, WEIGHTED BY NR                   LEFT FOR ENTRY DISPLAY TFF ROUTINES
000369:                                                                                                  #                                M:(-27+NR)
000370:                                                                                                  #                TFFTEM          E:(-59+2NR)     LCP Z Z SGN(SDELF)                      LEFT FOR ENTRY DISPLAY TFF ROUTINES
000371:                                                                                                  #                                M:(-55+2NR)     LCP /ALFA SGN(SDELF)                    LEFT FOR ENTRY DISPLAY TFF ROUTINES
000372:                                                                                                  #                NOTE:   TFFTEM = PDL 36D AND WILL BE DESTROYED BY .:UNIT:.
000373:                                                                                                  #                RMAG1           E:(-29) M:(-27) PDL 12 NOT TOUCHED.
000374:                                                                                                  #                TFFQ1           E:(-16) M:(-15) PDL 14D
000375:                                                                                                  #                TFFDELQ         E:(-16) M:(-15) PDL 10D
000376:                                                                                                  #                PUSHLOC AT PDL+0
000377:
000378:                                                                                                  #  ERASABLE INITIALIZATION REQUIRED:
000379:                                                                                                  #                RONE            E:(-29) M:(-27) M  STATE VECTOR                         LEFT BY USER
000380:                                                                                                  #                VONE'           E:(+10) M:(+9)  VN/SQRT(MU)                             LEFT BY TFF/CONIC
000381:                                                                                                  #                RMAG1           E:(-29) M:(-27) PRESENT RADIUS, M                       LEFT BY TFFCONIC
000382:                                                                                                  #                C(MPAC)         E:(-29) M:(-27) RTERM, TERMINAL RADIUS LENGTH, M        LEFT BY USER
000383:
000384:                                                                                                  #                THE FOLLOWING ARE STORED IN THE PUSH LIST AREA.
000385:                                                                                                  #                TFF/RTMU        E:(17) M:(14)   1/SQRT(MU)                              LEFT BY TFFCONIC.
000386:                                                                                                  #                NRMAG           E:(-29+NR)      M  RMAG, NORMALIZED                     LEFT BY TFFCONIC
000387:                                                                                                  #                                M:(-27+NR)
000388:                                                                                                  #                X1                              -NR, NORM COUNT                         LEFT BY TFFCONIC
000389:                                                                                                  #                TFFNP           E:(-38+2NR)     M  LCP, SEMI LATUS RECTUM, WEIGHT NR    LEFT BY TFFCONIC
000390:                                                                                                  #                                M:(-36+2NR)
000391:                                                                                                  #                TFFALFA         E:(26-NR)       1/M  ALFA, WEIGHT NR                    LEFT BY TFFCONIC
000392:                                                                                                  #                                M:(24-NR)
000393:                                                                                                  #                TFFRTALF        E:(10+NA)       SQRT(ALFA), NORMALIZED                  LEFT BY TFFCONIC
000394:                                                                                                  #                                M:(9+NA)
000395:                                                                                                  #                X2                              -NA, NORMCOUNT                          LEFT BY TFFCONIC
000396:                                                                                                  #                TFF1/ALF        E:(-22-2NA)     SIGNED SEMIMAJ AXIS, WEIGHTED BY NA     LEFT BY TFFCONIC
000397:                                                                                                  #                                M:(-20-2NA)
000398:
000399:                                                                                                  #  DEBRIS:       QPRET, PDL+0 ... PDL+3
000400:                                                                                                  #                RTERM           E:(-29) M:(-27) RTERM, TERMINAL RADIUS LENGTH
000401:                                                                                                  #                RAPO            E:(-29) M:(-27) PDL 16D (=NRTERM)
000402:                                                                                                  #                RPER            E:(-29) M:(-27) PDL 14D (=TFFQ1)
000403:


000405: 27,3465           77614        CALCTPER           SETGO                                          #  ENTER WITH RPER IN MPAC
000406: 27,3466           03436                                    TFFSW
000407: 27,3467           57472                                    +3
000408: 27,3470           77614        CALCTFF            CLEAR                                          #  ENTER WITH RTERM IN MPAC
000409: 27,3471           03676                                    TFFSW
000410: 27,3472           00023                 +3        STORE    RTERM                                 #  E:(-29) M:(-27)
000411: 27,3473           77657                           SL*
000412: 27,3474           20201                                    0,1                                   #  X1=-NR
000413: 27,3475           00021                           STORE    NRTERM                                #  RTERM  E:(-29+NR) M:(-27+NR)
000414: 27,3476           44205                           DMP      BDSU
000415: 27,3477           00033                                    TFFALFA                               #  ALFA  E:(26-NR) M:(24-NR)
000416: 27,3500           06512                                    TFF1/4
000417: 27,3501           41206                           PUSH     DMP                                   #  (2-ALFA RTERM)  (-3)  TO PDL+0
000418: 27,3502           00021                                    NRTERM                                #  E:(-29+NR) M:(-27+NR)
000419: 27,3503           53725                           PDDL     SR*                                   #  RTERM(2-ALFA RTERM) TO PDL+2
000420:                                                                                                  #  E:(-32+NR) M:(-30+NR)
000421: 27,3504           00035                                    TFFNP                                 #  LC P  E:(-38+2NR) M:(-36+2NR)
000422: 27,3505           20573                                    0          -6,1                       #  X1 = -NR
000423: 27,3506           43276                           DCOMP    DAD                                   #  DUE TO SHIFTS, KEEP PRECISION FOR SQRT
000424:                                                                                                  #  RTERM(2-ALFA RTERM) FROM PDL +2
000425:                                                                                                  #  E:(-32+NR) M:(-30+NR)
000426: 27,3507           77657                           SR*                                            #  LEAVE  E:(-32) M:(-30)
000427: 27,3510           20601                                    0,1                                   #  X1 = -NR
000428: 27,3511           71214                           BOFF     DLOAD                                 #  CHECK TFF /TPER SWITCH
000429: 27,3512           03756                                    TFFSW
000430: 27,3513           57515                                    +2                                    #  IF TFF, CONTINUE
000431: 27,3514           06522                                    TFFZEROS                              #  IF TPER, SET Q2 = 0
000432: 27,3515           75440                 +2        BMN      SQRT                                  #  E:(-16) M:(-15)
000433:
000434: 27,3516           57650                                    MAXTFF1                               #  NO FREE FALL CONIC TO RTERM FROM HERE
000435:                                                                                                  #  RESET PDL, SET TFF=POSMAX, AND EXIT.
000436:
000437: 27,3517           41076                           DCOMP    BOVB                                  #  RT IS ON INBOUND SIDE.  ASSURE OVFIND=0
000438: 27,3520           57753                                    TCDANZIG                              #  ANY PORT IN A STORM.
000439: 27,3521           24045                           STOVL    TFFTEM                                #  Q2  E:(-16) M:(-15)
000440: 27,3522           02170                                    VONE'                                 #  VN/SQRT(MU)  E:(10) M:(9)
000441: 27,3523           52441                           DOT      SL3
000442: 27,3524           02207                                    RONE                                  #  SAVED RN.  E:(-29) M:(-27)
000443: 27,3525           00017                           STORE    TFFQ1                                 #  Q1, SAVE FOR GONEPAST TEST.
000444:                                                                                                  #  E:(-16) M:(-15)
000445: 27,3526           44240                           BMN      BDSU
000446: 27,3527           57550                                    INBOUND                               #  USE ALTERNATE Z
000447: 27,3530           00045                                    TFFTEM                                #  Q2  E:(-16) M:(-15)
000448:
000449:                                                                                                  #  OUTBOUND Z CALC CONTINUES HERE
000450:
000451: 27,3531           14043                           STODL    TFFX                                  #  NUM=Q2-Q1  E:(-16) M:(-15)
000452: 27,3532           00033                                    TFFALFA                               #  ALFA  E:(26-NR) M:(24-NR)
000453: 27,3533           44205                           DMP      BDSU


000455: 27,3534           00041                                    NRMAG                                 #  RMAG  E:(-29+NR) M:(-27+NR)
000456:                                                                                                  #  (2-RTERM ALFA)  (-3) FROM PDL+0
000457: 27,3535           51406        SAVEDEN            PUSH     ABS                                   #  DEN TO PDL+0  E:(-3) OR (-16)
000458:                                                                                                  #                M:(-3) OR (-15)
000459: 27,3536           40015                           DAD      BOV                                   #  INDETERMINANCY TEST
000460: 27,3537           17757                                    LIM(-22)                              #  =1.0-B(-22)
000461: 27,3540           57561                                    TFFXTEST                              #  GO IF DEN >/= B(-22)
000462: 27,3541           65345                           DLOAD    PDDL                                  #  SET DEN=0 OTHERWISE
000463: 27,3542           06522                                    TFFZEROS
000464:                                                                                                  #  XCH ZERO WITH PDL+0
000465: 27,3543           57545                           DLOAD    DCOMP
000466: 27,3544           00033                                    TFFALFA                               #  ALFA  E:(26-NR) M:(24-NR)
000467: 27,3545           71240                           BMN      DLOAD                                 #  FOR TPER:  Z INDET AT DELE/2=0 AND 90.
000468: 27,3546           57655                                    TFFEL1                                #  ASSUME 90, AND LEAVE 0 IN PDL: 1/Z=D/N
000469:
000470:                                                                                                  #  Z INDET. AT PERIGEE FOR PARAB OR HYPERB.
000471: 27,3547           77616        DUMPTFF1           RVQ                                            #  RETURN TFF =0
000472:
000473:                                                                                                  #  INBOUND Z CALC CONTINUES HERE
000474:
000475: 27,3550           77745        INBOUND            DLOAD                                          #  RESET PDL+0
000476: 27,3551           45345                           DLOAD    DSU                                   #  ALTERNATE Z CALC
000477: 27,3552           00023                                    RTERM                                 #  E:(-29) M:(-27)
000478: 27,3553           00015                                    RMAG1                                 #  E:(-29) M:(-27)
000479: 27,3554           14043                           STODL    TFFX                                  #  NUM=RTERM-RN  E:(-29) M:(-27)
000480: 27,3555           00045                                    TFFTEM                                #  Q2  E:(-16) M:(-15)
000481: 27,3556           52015                           DAD      GOTO
000482: 27,3557           00017                                    TFFQ1                                 #  Q1  E:(-16) M:(-15)
000483: 27,3560           57535                                    SAVEDEN                               #  DEN = Q2+Q1  E:(-16) M:(-15)
000484:
000485: 27,3561           65215        TFFXTEST           DAD      PDDL                                  #  (ABS(DEN) TO PDL+2))  E:(-3) OR (-16)
000486:                                                                                                  #                        M:(-3) OR (-15)
000487: 27,3562           17761                                    DP(-22)                               #  RESTORE ABS(DEN) TO MPAC
000488: 27,3563           00043                                    TFFX                                  #  NUM  E:(-16) OR (-29)  M:(-15) OR (-27)
000489: 27,3564           53605                           DMP      SR*
000490: 27,3565           00031                                    TFFRTALF                              #  SQRT(ALFA)  E:(10+NA) M:(9+NA)
000491: 27,3566           57201                                    0          -3,2                       #  X2=-NA
000492: 27,3567           77671                           DDV                                            #  C(MPAC) =NUM SQRT(ALFA)       E:(-3) OR (-16)
000493:                                                                                                  #                                M:(-3) OR (-15)
000494:                                                                                                  #  ABS(DEN) FROM PDL+2   E:(-3) OR (-16)
000495:                                                                                                  #                        M:(-3) OR (-15)
000496: 27,3570           40145                           DLOAD    BOV                                   #  (THE DLOAD IS SHARED WITH TFFELL)
000497: 27,3571           00043                                    TFFX                                  #  NUM  E:(-16) OR (-29)  M:(-15) OR (-27)
000498: 27,3572           57653                                    TFFELL                                #  USE EQN FOR DELE GEQ 90, LEQ -90
000499:
000500:                                                                                                  #  OTHERWISE, CONTINUE FOR GENERAL CONIC FOR TFF EQN
000501:
000502: 27,3573           45471                           DDV      STADR
000503:                                                                                                  #  DEN FROM PDL+0        E:(-3) OR (-16)
000504:                                                                                                  #                        M:(-3) OR (-15)
000505: 27,3574           77732                           STORE    TFFTEM                                #  Z SAVE FOR SIGN OF SDELF.


000507:                                                                                                  #  E:(-13) M:(-12)
000508: 27,3575           63406                           PUSH     DSQ                                   #  Z TO PDL+0
000509: 27,3576           41206                           PUSH     DMP                                   #  Z SQ TO PDL+2  E:(-26) M:(-24)
000510: 27,3577           00035                                    TFFNP                                 #  LC P  E:(-38+2NR) M:(-36+2NR)
000511: 27,3600           75261                           SL       SIGN
000512: 27,3601           20206                                    5
000513: 27,3602           00045                                    TFFTEM                                #  AFFIX SIGN FOR SDELF (ENTRY DISPLAY)
000514: 27,3603           14045                           STODL    TFFTEM                                #  P ZSQ  E:(-59+2NR) M:(-55+2NR)
000515:                                                                                                  #  (ARG IS USED IN TFF/TRIG)
000516:                                                                                                  #  ZSQ FROM PDL+2  E:(-26) M:(-24)
000517: 27,3604           41206                           PUSH     DMP                                   #  RESTORE PUSH LOC
000518: 27,3605           00033                                    TFFALFA                               #  ALFA  E:(26-NR) M:(24-NR)
000519: 27,3606           77657                           SL*
000520: 27,3607           20201                                    0,1                                   #  X1=-NR
000521: 27,3610           00043                           STORE    TFFX                                  #  X
000522: 27,3611           41234                           RTB      DMP
000523: 27,3612           57735                                    T(X)                                  #  POLY
000524:                                                                                                  #  ZSQ FROM PDL+2  E:(-26) M:(-24)
000525: 27,3613           44302                           SR2      BDSU                                  #  2 ZSQ T(X)  E:(-29) M:(-27)
000526: 27,3614           00023                                    RTERM                                 #  RTERM  E:(-29) M:(-27)
000527: 27,3615           41215                           DAD      DMP
000528: 27,3616           00015                                    RMAG1                                 #  E:(-29) M:(-27)
000529:                                                                                                  #  Z FROM PDL+0  E:(-13) M:(-12)
000530: 27,3617           51042                           SR3      BPL                                   #  TFF SQRT(MU)  E:(-45) M:(-42)
000531: 27,3620           57641                                    ENDTFF                                #  (NO PUSH UP)
000532: 27,3621           75206                           PUSH     SIGN                                  #  TFF SQRT(MU) TO PDL+0
000533: 27,3622           00017                                    TFFQ1                                 #  Q1 FOR GONEPAST TEST
000534: 27,3623           71244                           BPL      DLOAD                                 #  GONE PAST ?
000535: 27,3624           57645                                    NEGTFF                                #  YES. TFF < 0.
000536: 27,3625           00027                                    TFF1/ALF                              #  1/ALFA  E:(-22-2NA) M:(-20-2NA)
000537: 27,3626           51076                           DCOMP    BPL                                   #  ALFA > 0 ?
000538: 27,3627           57645                                    NEGTFF                                #  NO. TFF IS NEGATIVE.
000539:
000540:                                                                                                  #  CORRECT FOR ORBITAL PERIOD.
000541:
000542: 27,3630           77676                           DCOMP                                          #  YES.  CORRECT FOR ORB PERIOD.
000543: 27,3631           56205                           DMP      DDV
000544: 27,3632           17755                                    PI/16                                 #  2 PI (-5)
000545: 27,3633           00031                                    TFFRTALF                              #  SQRT(ALFA)  E:(10+NA) M:(9+NA)
000546: 27,3634           53657                           SL*      SL*
000547: 27,3635           57602                                    0          -4,2                       #  X2=-NA
000548: 27,3636           57602                                    0          -4,2
000549: 27,3637           43257                           SL*      DAD
000550: 27,3640           57576                                    0,2
000551:                                                                                                  #  TFF SQRT(MU) FROM PDL+0       E:(-45) M:(-42)
000552: 27,3641           40005        ENDTFF             DMP      BOV                                   #  TFF SQRT(MU) IN MPAC          E:(-45) M:(-42)
000553: 27,3642           00037                                    TFF/RTMU                              #  E:(17) M:(14)
000554: 27,3643           57651                                    MAXTFF                                #  SET POSMAX IF OVFL.
000555:
000556: 27,3644           77616        DUMPTFF2           RVQ                                            #  RETURN TFF (-28) CS IN MPAC.
000557:


000559: 27,3645           77745        NEGTFF             DLOAD
000560:                                                                                                  #  TFF SQRT(MU) FROM PDL+0, NEGATIVE.
000561: 27,3646           77650                           GOTO
000562: 27,3647           57641                                    ENDTFF
000563:
000564: 27,3650           77745        MAXTFF1            DLOAD                                          #  RESET PDL
000565: 27,3651           43545        MAXTFF             DLOAD    RVQ
000566: 27,3652           17771                                    NEARONE
000567:
000568:                                                                                                  #  TIME OF FLIGHT ELLIPSE WHEN DEL (ECCENTRIC ANOM) GEQ 90 AND LEQ -90.
000569:
000570:                                                                                                  #  NUM FROM TFFX.        E:(-16) OR (-29)
000571:                                                                                                  #                        M:(-15) OR (-27)
000572: 27,3653           77712        TFFELL             SL2                                            #  NUM  E:(-14) OR (-27)  M:(-13) OR (-25)
000573: 27,3654           41465                           BDDV     PUSH                                  #  TEMP SAVE D/N IN PDL+0
000574:                                                                                                  #  DEN FROM PDL+0  E:(-3)/( 16) M:(-3)/(-15)
000575:                                                                                                  #  N/D TO PDL+0  E:(11) M:(10)
000576: 27,3655           45345        TFFEL1             DLOAD    DSU                                   #  (ENTER WITH D/N=0 IN PDL+0)
000577: 27,3656           00045                                    TFFTEM                                #  Q2  E:(-16) M:(-15)
000578: 27,3657           00017                                    TFFQ1                                 #  Q1  E:(-16) M:(-15)
000579: 27,3660           14013                           STODL    TFFDELQ                               #  Q2-Q1  E:(-16) M:(-15)
000580:                                                                                                  #  D/N FROM PDL+0
000581: 27,3661           77626                           STADR
000582: 27,3662           77732                           STORE    TFFTEM                                #  D/N  E:(11) M:(10)
000583: 27,3663           53605                           DMP      SL*
000584: 27,3664           00027                                    TFF1/ALF                              #  1/ALFA  E:(-22-2NA) M:(-20-2NA)
000585: 27,3665           57576                                    0,2                                   #  1/ALFA Z  E:(-11-NA) M:(-10-NA)
000586: 27,3666           41206                           PUSH     DMP                                   #  TO PDL+0
000587: 27,3667           00045                                    TFFTEM                                #  1/Z  E:(11) M:(10)
000588: 27,3670           41057                           SL*      BOVB
000589: 27,3671           57576                                    0,2                                   #  X2= -NA
000590: 27,3672           21712                                    SIGNMPAC                              #  IN CASE X= 1.0, CONTINUE
000591: 27,3673           00043                           STORE    TFFX                                  #  X=1/ALFA ZSQ
000592: 27,3674           41234                           RTB      DMP
000593: 27,3675           57735                                    T(X)                                  #  POLY
000594: 27,3676           00043                                    TFFX
000595: 27,3677           45242                           SR3      DSU
000596: 27,3700           17763                                    DP2(-3)
000597: 27,3701           41405                           DMP      PUSH                                  #  2(X T(X)-1) /Z ALFA   E:(-15-NA)
000598:                                                                                                  #                        M:(-14-NA)
000599:                                                                                                  #  1/ALFA Z FROM PDL+0   E:(-11-NA)
000600:                                                                                                  #                        M:(-10-NA)
000601: 27,3702           41345                           DLOAD    DMP                                   #  GET SIGN FOR SDELF
000602: 27,3703           00045                                    TFFTEM                                #  1/Z  E:(11) M:(10)
000603: 27,3704           00015                                    RMAG1                                 #  E:(-29) M:(-27)
000604: 27,3705           43312                           SL2      DAD
000605: 27,3706           00017                                    TFFQ1                                 #  Q1  E:(-16) M:(-15)
000606: 27,3707           14045                           STODL    TFFTEM                                #  (Q1+R 1/Z) =SGN OF SDELF  E:(-16) M:(-15
000607: 27,3710           00035                                    TFFNP                                 #  LC P  E:(-38+2NR) M:(-36+2NR)
000608: 27,3711           53605                           DMP      SL*                                   #  CALC FOR ARG FOR TFF/TRIG.


000610: 27,3712           00027                                    TFF1/ALF                              #  1/ALFA  E:(-22-2NA) M:(-20-2NA)
000611: 27,3713           57575                                    1,2                                   #  X2=-NA
000612: 27,3714           53765                           SIGN     SL*
000613: 27,3715           00045                                    TFFTEM                                #  AFFIX SIGN FOR SDELF
000614: 27,3716           57576                                    0,2
000615: 27,3717           14045                           STODL    TFFTEM                                #  P/ALFA  E:(-59+2NR) M:(-55+2NR)
000616:                                                                                                  #  (ARG FOR USE IN TFF/TRIG)
000617: 27,3720           00027                                    TFF1/ALF                              #  1/ALFA  E:(-22-2NA) M:(-20-2NA)
000618: 27,3721           41366                           SQRT     DMP
000619: 27,3722           17755                                    PI/16                                 #  PI (-4)
000620: 27,3723           77615                           DAD
000621:                                                                                                  #  2(XT(X)-1)/Z ALFA FROM PDL    E:(-15-NA)
000622:                                                                                                  #                                M:(-14-NA)
000623: 27,3724           45257                           SL*      DSU
000624: 27,3725           57577                                    0          -1,2
000625: 27,3726           00013                                    TFFDELQ                               #  Q2-Q1  E:(-16) M:(-15)
000626: 27,3727           53605                           DMP      SL*
000627: 27,3730           00027                                    TFF1/ALF                              #  1/ALFA  E:(-22-2NA) M:(-20-2NA)
000628: 27,3731           57601                                    0          -3,2
000629: 27,3732           52057                           SL*      GOTO
000630: 27,3733           57602                                    0          -4,2
000631: 27,3734           57641                                    ENDTFF                                #  TFF SQRT(MU) IN MPAC E:(-45) M:(-42)
000632:


000634:                                                                                                  #  PROGRAM NAME:  T(X)                           DATE:  01.17.67
000635:                                                                                                  #  MOD NO:  0                                    LOG SECTION:  TIME OF FREE FALL
000636:                                                                                                  #  MOD BY:  RR BAIRNSFATHER
000637:
000638:                                                                                                  #  FUNCTIONAL DESCRIPTION:  THE POLYNOMIAL T(X) IS USED BY TIME OF FLIGHT SUBROUTINES CALCTFF AND
000639:                                                                                                  #        CALCTPER TO APPROXIMATE THE SERIES
000640:                                                                                                  #                           2     3
000641:                                                                                                  #                1/3 -X/5 +X /7 -X /9 ...
000642:
000643:                                                                                                  #        WHERE   X = ALFA Z Z            IF ALFA Z Z LEQ 1
000644:                                                                                                  #                X = 1/(ALFA Z Z)        IF ALFA Z Z G 1
000645:
000646:                                                                                                  #        ALSO    X IS NEG FOR HYPERBOLIC ORBITS
000647:                                                                                                  #                X = 0 FOR PARABOLIC ORBITS
000648:                                                                                                  #                X IS POSITIVE FOR ELLIPTIC ORBITS
000649:
000650:                                                                                                  #        FOR FLIGHT 278, THE POLYNOMIAL T(X) IS FITTED OVER THE RANGE (0,+1) AND HAS A MAXIMUM
000651:                                                                                                  #        DEVIATION FROM THE SERIES OF 2 E-5   (T(X) IS A CHEBYCHEV TYPE FIT AND WAS OBTAINED USING
000652:                                                                                                  #        MAC PROGRAM AUTCURFIT294RRB AND IS VALID TO THE SAME TOLERANCE OVER THE RANGE (-.08,+1).)
000653:
000654:                                                                                                  #  CALLING SEQUENCE:     RTB
000655:                                                                                                  #                                T(X)
000656:                                                                                                  #        C(MPAC) = X
000657:
000658:                                                                                                  #  SUBROUTINES CALLED:  NONE
000659:
000660:                                                                                                  #  NORMAL EXIT MODE:  TC   DANZIG
000661:
000662:                                                                                                  #  ALARMS:  NONE
000663:
000664:                                                                                                  #  OUTPUT:  C(MPAC) = T(X)
000665:
000666:                                                                                                  #  ERASABLE INITIALIZATION REQUIRED:
000667:                                                                                                  #        C(MPAC) = X
000668:
000669:                                                                                                  #  DEBRIS:  NONE
000670:
000671: 27,3735           07222        T(X)               TC       POLY
000672: 27,3736           00004                           DEC      4          B-14                       #  N-1
000673: 27,3737           12525 12525                     2DEC     3.333333333 E-1
000674:
000675: 27,3741           71463 57703                     2DEC*    -1.999819135 E-1*
000676:
000677: 27,3743           04423 17645                     2DEC*    1.418148467 E-1*
000678:
000679: 27,3745           74604 43667                     2DEC*    -1.01310997 E-1*
000680:
000681: 27,3747           01626 37256                     2DEC*    5.609004986 E-2*
000682:
000683: 27,3751           77404 52071                     2DEC*    -1.536156925 E-2*
000684:
000685: 27,3753           06061        ENDT(X)            TC       DANZIG
000686:
000687: 27,3754  27,3753               TCDANZIG           =        ENDT(X)
000688:


000690:                                                                                                  #  TFF CONSTANTS
000691:
000692: 32,3773                                           BANK     32
000693:
000694: 27,2000                                           SETLOC   TOF-FF1
000695: 27,2000                                           BANK
000696:
000697:                                                                                                  #                                                NOTE _  NOTE _  ADJUSTED MUE FOR NEAR EARTH TRAJ.
000698:                                                                                                  # MUE            =       3.990815471 E10         M CUBE/CS SQ
000699:                                                                                                  # RTMUE          =       1.997702549 E5 B-18*    MODIFIED EARTH MU
000700:
000701:                                                                                                  #                                                NOTE _  NOTE _  ADJUSTED MUE FOR NEAR EARTH TRAJ.
000702:                                                                                                  # MUM            =       4.902778 E8             M CUBE/CS SQ
000703:                                                                                                  # RTMUM          2DEC*   2.21422176 E4 B-18*
000704:
000705: 27,3754           06220 37553  PI/16              2DEC     3.141592653 B-4
000706:
000707: 27,3756           37777 37700  LIM(-22)           2OCT     3777737700                            #  1.0 -B(-22)
000708:
000709: 27,3760           00000 00100  DP(-22)            2OCT     0000000100                            #  B(-22)
000710:
000711: 27,3762           04000 00000  DP2(-3)            2DEC     1          B-3
000712:
000713: 27,3764           02000 00000  DP2(-4)            2DEC     1          B-4                        #  1/16
000714:
000715:                                                                                                  #  RPAD1         2DEC    6373338 B-29            M (-29) = 20909901.57 FT
000716:
000717: 27,3766  23,2314               RPAD1              =        RPAD
000718:
000719: 27,3766           00305 11205  R300K              2DEC     6464778    B-29                       #  (-29) M
000720:
000721: 27,3770           37777 37777  NEARONE            2DEC     .999999999
000722:
000723: 27,3772  23,2521               TFFZEROS           EQUALS   HI6ZEROS
000724: 27,3772  23,2511               TFF1/4             EQUALS   HIDP1/4
000725:

End of include-file TIME_OF_FREE_FALL.agc.  Parent file is MAIN.agc


