
Source Code


000002:                                                                                                  ## Copyright:   Public domain.
000003:                                                                                                  ## Filename:    UPDATE_PROGRAM.agc
000004:                                                                                                  ## Purpose:     Part of the source code for Luminary 1A build 099.
000005:                                                                                                  ##              It is part of the source code for the Lunar Module's (LM)
000006:                                                                                                  ##              Apollo Guidance Computer (AGC), for Apollo 11.
000007:                                                                                                  ## Assembler:   yaYUL
000008:                                                                                                  ## Contact:     Ron Burkey <info@sandroid.org>.
000009:                                                                                                  ## Website:     www.ibiblio.org/apollo.
000010:                                                                                                  ## Pages:       1386-1396
000011:                                                                                                  ## Mod history: 2009-05-10 SN   (Sergio Navarro).  Started adapting
000012:                                                                                                  ##                              from the Luminary131/ file of the same
000013:                                                                                                  ##                              name, using Luminary099 page images.
000014:                                                                                                  ##              2009-06-07 RSB  Added an SBANK= to account for incompatibilities
000015:                                                                                                  ##                              between YUL and yaYUL.
000016:                                                                                                  ##              2011-01-06 JL   Fixed pseudo-label indentation.
000017:                                                                                                  ##              2011-05-07 JL   Flag SBANK= workaround.
000018:                                                                                                  ##              2016-12-18 RSB  Proofed text comments with octopus/ProoferComments
000019:                                                                                                  ##                              and corrected the errors found.
000020:
000021:                                                                                                  ## This source code has been transcribed or otherwise adapted from
000022:                                                                                                  ## digitized images of a hardcopy from the MIT Museum.  The digitization
000023:                                                                                                  ## was performed by Paul Fjeld, and arranged for by Deborah Douglas of
000024:                                                                                                  ## the Museum.  Many thanks to both.  The images (with suitable reduction
000025:                                                                                                  ## in storage size and consequent reduction in image quality as well) are
000026:                                                                                                  ## available online at www.ibiblio.org/apollo.  If for some reason you
000027:                                                                                                  ## find that the images are illegible, contact me at info@sandroid.org
000028:                                                                                                  ## about getting access to the (much) higher-quality images which Paul
000029:                                                                                                  ## actually created.
000030:                                                                                                  ##
000031:                                                                                                  ## Notations on the hardcopy document read, in part:
000032:                                                                                                  ##
000033:                                                                                                  ##      Assemble revision 001 of AGC program LMY99 by NASA 2021112-61
000034:                                                                                                  ##      16:27 JULY 14, 1969
000035:


000037:                                                                                                  #  PROGRAM NAME:         P27
000038:                                                                                                  #  WRITTEN BY:           KILROY/ DE WOLF
000039:
000040:                                                                                                  #  MOD NO:               6
000041:                                                                                                  #  MOD BY:               KILROY
000042:                                                                                                  #  DATE:                 01DEC67
000043:
000044:                                                                                                  #  LOG SECTION:          UPDATE PROGRAM.
000045:
000046:                                                                                                  #  FUNCT. DESCR:         P27 (THE UPDATE PROGRAM) PROCESSES COMMANDS AND DATA
000047:                                                                                                  #                        INSERTIONS REQUESTED BY THE GROUND VIA UPLINK.
000048:                                                                                                  #                        THE P27 PROGRAM WILL ACCEPT UPDATES
000049:                                                                                                  #                        ONLY DURING P00 FOR THE LM, AND ONLY DURING P00,
000050:                                                                                                  #                        P02, AND FRESH START FOR THE CSM
000051:
000052:                                                                                                  #  CALLING SEQ:          PROGRAM IS INITIATED BY UPLINK ENTRY OF VERBS 70, 71, 72 AND 73.
000053:
000054:                                                                                                  #  SUBROUTINES:          TESTXACT, NEWMODEX, NEWMODEX +3, GOXDSPF, BANKCALL, FINDVAC, INTPRET, INTSTALL, TPAGREE,
000055:                                                                                                  #                        INTWAKEU, ENDEXT, POSTJUMP, FALTON, NEWPHASE, PHASCHNG
000056:
000057:                                                                                                  #  NORMAL EXIT:          TC ENDEXT
000058:
000059:                                                                                                  #  ALARM/ABORT:          TC FALTON FOLLOWED BY TC ENDEXT
000060:
000061:                                                                                                  #  RESTARTS:             P27 IS RESTART PROTECTED IN TWO WAYS ...
000062:                                                                                                  #                        1.      PRIOR TO VERIFLAG INVERSION (WHICH IS CAUSED BY THE GROUND/ASTRONAUT'S VERIFICATION OF UPDATE
000063:                                                                                                  #                                DATA BY SENDING A V33E WHEN V21N02 IS FLASHING)---
000064:                                                                                                  #                                NO PROTECTION EXCEPT PRE-P27 MODE IS RESTORED, COAST + ALIGN DOWNLIST IS SELECTED AND UPLINK
000065:                                                                                                  #                                ACTIVITY LIGHT IS TURNED OFF.  (JUST AS IF A V34E WAS SENT DURING P27 DATA LOADS).
000066:                                                                                                  #                                V70,V71,V72 OR V73 WILL HAVE TO BE COMPLETELY RESENT BY USER.
000067:                                                                                                  #                        2.      AFTER VERIFLAG INVERSION (WHEN UPDATE OF THE SPECIFIED ERASABLES IS BEING PERFORMED)---
000068:                                                                                                  #                                PROTECTED AGAINST RESTARTS.
000069:
000070:                                                                                                  #  DEBRIS:               UPBUFF  (20D)   TEMP STORAGE FOR ADDRESSES AND CONTENTS.
000071:                                                                                                  #                        UPVERB  (1)     VERB NUMBER MINUS 70D (E.G. FOR V72, UPVERB = 72D - 70D = 2)
000072:                                                                                                  #                        UPOLDMOD(1)     FOR MAJOR MODE INTERRUPTED BY P27.
000073:                                                                                                  #                        COMPNUMB(1)     TOTAL NUMBER OF COMPONENTS TO BE TRANSMITTED.
000074:                                                                                                  #                        UPCOUNT (1)     ACTUAL NUMBER OF COMPONENTS RECEIVED.
000075:                                                                                                  #                        UPTEMP  (1)     SCRATCH, BUT USUALLY CONTAINS COMPONENT NUMBER TO BE CHANGED DURING VERIFY CYCLE
000076:
000077:                                                                                                  #  INPUT:
000078:
000079:                                                                                                  #        ENTRY:                  DESCRIPTION
000080:                                                                                                  #        V70EXXXXXEXXXXXE        (LIFTOFF TIME INCREMENT) DOUBLE PRECISION OCTAL TIME INCREMENT, XXXXX XXXXX,
000081:                                                                                                  #                                IS ADDED TO TEPHEM, SUBTRACTED FROM AGC CLOCK(TIME2,TIME1), SUBTRACTED FROM CSM STATE
000082:                                                                                                  #                                VECTOR TIME(TETCSM) AND SUBTRACTED FROM LEM STATE VECTOR TIME(TETLEM).
000083:                                                                                                  #                                THE DP OCTAL TIME INCREMENT IS SCALED AT 2(28).


000085:                                                                                                  #        V71EIIEAAAAE            (CONTIGUOUS BLOCK UPDATE) II-2 OCTAL COMPONENTS, XXXXX,
000086:                                                                                                  #        XXXXXE                  ARE LOADED INTO ERASABLE STARTING AT ECADR, AAAA.
000087:                                                                                                  #        XXXXXE                  IT IS .GE. 3 .AND. .LE. 200.,
000088:                                                                                                  #                                AND (AAAA + II -3) DOES NOT PRODUCE AN ADDRESS IN THE
000089:                                                                                                  #        9 NEXT BANK
000090:                                                                                                  #          .                     SCALING IS SAME AS INTERNAL REGISTERS.
000091:                                                                                                  #        V72EIIE                 (SCATTER UPDATE) (II-1)/2 OCTAL COMPONENTS, XXXXX, ARE
000092:                                                                                                  #        AAAAEXXXXXE             LOADED INTO ERASABLE LOCATIONS, AAAA.
000093:                                                                                                  #        AAAAEXXXXXE             II IS .GE. 3 .AND. .LE. 19D, AND MUST BE ODD.
000094:                                                                                                  #          .                     SCALING IS SAME AS INTERNAL REGISTERS.
000095:
000096:                                                                                                  #        V73EXXXXXEXXXXXE        (OCTAL CLOCK INCREMENT) DOUBLE PRECISION OCTAL TIME
000097:                                                                                                  #                                INCREMENT XXXXX XXXXX, IS ADDED TO THE AGC CLOCK, IN
000098:                                                                                                  #                                CENTISECONDS SCALED AT (2)28.
000099:                                                                                                  #                                THIS LOAD IS THE OCTAL EQUIVALENT OF V55.
000100:
000101:                                                                                                  #  OUTPUT:               IN ADDITION TO THE ABOVE REGISTER LOADS, ALL UPDATES
000102:                                                                                                  #                        COMPLEMENT BIT3 OF FLAGWORD7.
000103:
000104:                                                                                                  #  ADDITIONAL NOTES:     VERB 71, JUST DEFINED ABOVE WILL BE USED TO PERFORM BUT NOT LIMITED TO THE FOLLOWING UPDATES --
000105:                                                                                                  #                        1.  CSM/LM STATE VECTOR UPDATE
000106:                                                                                                  #                        2.  REFSMMAT UPDATE
000107:
000108:                                                                                                  #        THE FOLLOWING COMMENTS DELINEATE EACH SPECIAL UPDATE ----
000109:
000110:                                                                                                  #        1.  CSM/LM STATE VECTOR UPDATE (ALL DATA ENTRIES IN OCTAL)
000111:                                                                                                  #                ENTRIES:        DATA DEFINITION:                                SCALE FACTORS:
000112:                                                                                                  #                V71E            CONTIGUOUS BLOCK UPDATE VERB
000113:                                                                                                  #                   21E          NUMBER OF COMPONENTS FOR STATE VECTOR UPDATE
000114:                                                                                                  #                 AAAAE          ECADR OF 'UPSVFLAG'
000115:                                                                                                  #                XXXXXE          STATE VECTOR IDENTIFIER: 00001 FOR CSM, 77776 FOR LEM - EARTH SPHERE OF INFLUENCE SCALING
000116:                                                                                                  #                                                         00002 FOR CSM, 77775 FOR LEM - LUNAR SPHERE OF INFLUENCE SCALING
000117:                                                                                                  #                XXXXXEXXXXXE    X POSITION
000118:                                                                                                  #                XXXXXEXXXXXE    Y POSITION
000119:                                                                                                  #                XXXXXEXXXXXE    Z POSITION
000120:                                                                                                  #                XXXXXEXXXXXE    X VELOCITY
000121:                                                                                                  #                XXXXXEXXXXXE    Y VELOCITY
000122:                                                                                                  #                XXXXXEXXXXXE    Z VELOCITY
000123:                                                                                                  #                XXXXXEXXXXXE    TIME FROM AGC CLOCK ZERO
000124:                                                                                                  #                V33E            VERB 33 TO SIGNAL THAT THE STATE VECTOR IS READY TO BE STORED.
000125:
000126:                                                                                                  #        2.  REFSMMAT (ALL DATA ENTRIES IN OCTAL)
000127:                                                                                                  #                ENTRIES:        DATA DEFINITIONS:                               SCALE FACTORS:


000129:                                                                                                  #                V71E            CONTIGUOUS BLOCK UPDATE VERB
000130:                                                                                                  #                   24E          NUMBER OF COMPONENTS FOR REFSMMAT UPDATE
000131:                                                                                                  #                 AAAAE          ECADR OF 'REFSMMAT'
000132:                                                                                                  #                XXXXXEXXXXXE    ROW 1 COLUMN 1                                  2(-1)
000133:                                                                                                  #                XXXXXEXXXXXE    ROW 1 COLUMN 2                                  2(-1)
000134:                                                                                                  #                XXXXXEXXXXXE    ROW 1 COLUMN 3                                  2(-1)
000135:                                                                                                  #                XXXXXEXXXXXE    ROW 2 COLUMN 1                                  2(-1)
000136:                                                                                                  #                XXXXXEXXXXXE    ROW 2 COLUMN 2                                  2(-1)
000137:                                                                                                  #                XXXXXEXXXXXE    ROW 2 COLUMN 3                                  2(-1)
000138:                                                                                                  #                XXXXXEXXXXXE    ROW 3 COLUMN 1                                  2(-1)
000139:                                                                                                  #                XXXXXEXXXXXE    ROW 3 COLUMN 2                                  2(-1)
000140:                                                                                                  #                XXXXXEXXXXXE    ROW 3 COLUMN 3                                  2(-1)
000141:                                                                                                  #                V33E            VERB 33 TO SIGNAL THAT REFSMMAT IS READY TO BE STORED.
000142:
000143:
000144:
000145: 07,3773                                           BANK     07
000146: 43,2000                                           SETLOC   EXTVERBS
000147: 43,2000                                           BANK
000148:
000149: 43,3724  E3,1706                                  EBANK=   TEPHEM
000150:
000151: 43,3724                                           COUNT*   $$/P27
000152: 43,3724           34755        V70UPDAT           CAF      UP70                                  #  COMES HERE ON V70E
000153: 43,3725           13733                           TCF      V73UPDAT   +1
000154:
000155: 43,3726           34753        V71UPDAT           CAF      UP71                                  #  COMES HERE ON V71E
000156: 43,3727           13733                           TCF      V73UPDAT   +1
000157:
000158: 43,3730           34752        V72UPDAT           CAF      UP72                                  #  COMES HERE ON V72E
000159: 43,3731           13733                           TCF      V73UPDAT   +1
000160:
000161: 43,3732           36245        V73UPDAT           CAF      UP73                                  #  COMES HERE ON V73E
000162:
000163: 43,3733           55166                 +1        TS       UPVERBSV                              #  SAVE UPVERB UNTIL IT'S OK TO ENTER P27
000164:
000165: 43,3734           02076                           TC       TESTXACT                              #  GRAB DISPLAY IF AVAILABLE, OTHERWISE
000166:                                                                                                  #  TURN*OPERATOR ERROR* ON AND TERMINATEJOB
000167:
000168: 43,3735           31011                           CA       MODREG                                #  CHECK IF UPDATE ALLOWED
000169: 43,3736           00006                           EXTEND                                         #  FIRST CHECK FOR MODREG = +0, -0
000170: 43,3737           13742                           BZF      +3                                    #  (+0 = P00, -0 = FRESHSTART)
000171: 43,3740           04635        UPERROR            TC       POSTJUMP                              #  TURN ON 'OPERATOR ERROR' LIGHT
000172: 43,3741           11762                           CADR     UPERROUT   +2                         #  GO TO COMMON UPDATE PROGRAM EXIT
000173:
000174: 43,3742           31011                           CAE      MODREG                                #  UPDATE ALLOWED.
000175: 43,3743  43,3740               CKMDMORE           =        UPERROR
000176: 43,3743           55171                           TS       UPOLDMOD                              #  SAVE CURRENT MAJOR MODE


000178: 43,3744           31166                           CAE      UPVERBSV                              #  SET UPVERB TO INDICATE TO P27
000179:
000180: 43,3745           55172                           TS       UPVERB                                #  WHICH EXTENDED VERB CALLED IT.
000181:
000182: 43,3746           34753                           CAF      ONE
000183: 43,3747           55173                           TS       UPCOUNT                               #  INITIALIZE UPCOUNT TO 1
000184:
000185: 43,3750           04635                           TC       POSTJUMP                              #  LEAVE EXTENDED VERB BANK AND
000186: 43,3751           11401                           CADR     UPPART2                               #  GO TO UPDATE PROGRAM (P27) BANK.
000187:
000188: 43,3752     4755               UP70               EQUALS   ZERO
000189: 43,3752     4753               UP71               EQUALS   ONE
000190: 43,3752     4752               UP72               EQUALS   TWO
000191: 43,3752     6245               UP73               EQUALS   THREE
000192:
000193: 04,3401                                           BANK     04
000194: 04,2000                                           SETLOC   UPDATE2
000195: 04,2000                                           BANK
000196:
000197: 04,3401                                           COUNT*   $$/P27
000198:
000199: 04,3401                        UPPART2            EQUALS                                         #  UPDATE PROGRAM - PART 2
000200:
000201: 04,3401           05353                           TC       PHASCHNG                              #  SET RESTART GROUP 6 TO RESTORE OLD MODE
000202: 04,3402           07026                           OCT      07026                                 #  AND DOWNLIST AND EXIT IF RESTART OCCURS.
000203: 04,3403           30000                           OCT      30000                                 #  PRIORITY SAME AS CHRPRIO


000205: 04,3404  40,2000                                  SBANK=   PINSUPER


000207: 04,3404     1174                                  EBANK=   UPBUFF
000208: 04,3404           03712 10102                     2CADR    UPOUT      +1
000209:
000210: 04,3406           34753                           CAF      ONE
000211: 04,3407           54332                           TS       DNLSTCOD                              #  DOWNLIST
000212:
000213: 04,3410           05311                           TC       NEWMODEX                              #  SET MAJOR MODE = 27
000214: 04,3411           00033                           DEC      27         B-14
000215:
000216: 04,3412           51172                           INDEX    UPVERB                                #  BRANCH DEPENDING ON WHETHER THE UPDATE
000217: 04,3413           13414                           TCF      +1                                    #  VERB REQUIRES A FIXED OR VARIABLE NUMBER
000218: 04,3414           13417                           TCF      +3                                    #  V70 FIXED.               (OF COMPONENTS.
000219: 04,3415           13422                           TCF      OHWELL1                               #  V71 VARIABLE - GO GET NO. OF COMPONENTS
000220: 04,3416           13422                           TCF      OHWELL1                               #  V72 VARIABLE - GO GET NO. OF COMPONENTS
000221: 04,3417           34752                           CA       TWO                                   #  V73 (AND V70) FIXED
000222: 04,3420           55170                           TS       COMPNUMB                              #  SET NUMBER OF COMPONENTS TO 2.
000223: 04,3421           13445                           TCF      OHWELL2                               #  GO GET THE TWO UPDATE COMPONENTS
000224:
000225: 04,3422           33515        OHWELL1            CAF      ADUPBUFF                              #  * REQUEST USER TO SEND NUMBER *
000226: 04,3423           54156                           TS       MPAC       +2                         #  * OF COMPONENTS PARAMETER(II).*
000227: 04,3424           33516                 +2        CAF      UPLOADNV                              #  (CK4V32 RETURNS HERE IF V32 ENCOUNTERED)
000228: 04,3425           04616                           TC       BANKCALL                              #  DISPLAY A FLASHING V21N01


000230: 04,3426           20334                           CADR     GOXDSPF                               #  TO REQUEST II.
000231:
000232: 04,3427           13712                           TCF      UPOUT4                                #  V34 TERMINATE UPDATE (P27) RETURN
000233: 04,3430           13424                           TCF      OHWELL1    +2
000234: 04,3431           03506                           TC       CK4V32                                #  DATA OR V32 RETURN
000235: 04,3432           44752                           CS       BIT2
000236: 04,3433           61174                           AD       UPBUFF                                #  IS II (NUMBER OF COMPONENTS PARAMETER)
000237: 04,3434           00006                           EXTEND                                         #  .GE. 3 AND .LE. 20D.
000238: 04,3435           63424                           BZMF     OHWELL1    +2
000239: 04,3436           41174                           CS       UPBUFF
000240: 04,3437           64362                           AD       UP21
000241: 04,3440           00006                           EXTEND
000242: 04,3441           63424                           BZMF     OHWELL1    +2
000243: 04,3442           31174                           CAE      UPBUFF
000244: 04,3443           55170                           TS       COMPNUMB                              #  SAVE II IN COMPNUMB
000245:
000246:                                                                                                  #  UPBUFF LOADING SEQUENCE
000247:
000248: 04,3444           25173                           INCR     UPCOUNT                               #  INCREMENT COUNT OF COMPONENTS RECEIVED.
000249: 04,3445           33662        OHWELL2            CAF      ADUPBFM1                              #  CALCULATE LOCATION (ECADR) IN UPBUFF
000250: 04,3446           61173                           AD       UPCOUNT                               #  WHERE NEXT COMPONENT SHOULD BE STORED.
000251: 04,3447           54156                 +2        TS       MPAC       +2                         #  PLACE ECADR INTO R3.
000252: 04,3450           33516                 +3        CAF      UPLOADNV                              #  (CK4V32 RETURNS HERE IF V32 ENCOUNTERED)
000253: 04,3451           04616                           TC       BANKCALL                              #  DISPLAY A FLASHING V21N01
000254: 04,3452           20334                           CADR     GOXDSPF                               #  TO REQUEST DATA.
000255: 04,3453           13712                           TCF      UPOUT4                                #  V34 TERMINATE UPDATE (P27) RETURN.
000256: 04,3454           13450                           TCF      OHWELL2    +3                         #  V33 PROCEED RETURN
000257: 04,3455           03506                           TC       CK4V32                                #  DATA OR V32 RETURN
000258: 04,3456           41173                           CS       UPCOUNT                               #  HAVE WE FINISHED RECEIVING ALL
000259: 04,3457           61170                           AD       COMPNUMB                              #  THE DATA WE EXPECTED.
000260: 04,3460           00006                           EXTEND
000261: 04,3461           63463                           BZMF     UPVERIFY                              #  YES - GO TO VERIFICATION SEQUENCE
000262: 04,3462           13444                           TCF      OHWELL2    -1                         #  NO - REQUEST ADDITIONAL DATA.
000263:
000264:                                                                                                  #  VERIFY SEQUENCE
000265:
000266: 04,3463           33514        UPVERIFY           CAF      ADUPTEMP                              #  PLACE ECADR WHERE COMPONENT NO. INDEX
000267: 04,3464           54156                           TS       MPAC       +2                         #  IS TO BE STORED INTO R3.
000268: 04,3465           33517                           CAF      UPVRFYNV                              #  (CK4V32 RETURNS HERE IF V32 ENCOUNTERED)
000269: 04,3466           04616                           TC       BANKCALL                              #  DISPLAY A FLASHING V21N02 TO REQUEST
000270: 04,3467           20334                           CADR     GOXDSPF                               #  DATA CORRECTION OR VERIFICATION.
000271: 04,3470           13712                           TCF      UPOUT4                                #  V34 TERMINATE UPDATE (P27) RETURN
000272: 04,3471           13520                           TCF      UPSTORE                               #  V33 DATA SENT IS GOOD.  GO STORE IT.
000273: 04,3472           03506                           TC       CK4V32                                #  COMPONENT NO. INDEX OR V32 RETURN
000274: 04,3473           31167                           CA       UPTEMP                                #  DOES THE COMPONENT NO. INDEX JUST SENT
000275: 04,3474           00006                           EXTEND                                         #  SPECIFY A LEGAL COMPONENT NUMBER?
000276: 04,3475           63463                           BZMF     UPVERIFY                              #  NO, IT IS NOT POSITIVE NONZERO
000277: 04,3476           41167                           CS       UPTEMP
000278: 04,3477           61170                           AD       COMPNUMB


000280: 04,3500           64753                           AD       BIT1
000281: 04,3501           00006                           EXTEND
000282: 04,3502           63463                           BZMF     UPVERIFY                              #  NO
000283: 04,3503           33662                           CAF      ADUPBFM1                              #  YES - BASED ON THE COMPONENT NO. INDEX
000284: 04,3504           61167                           AD       UPTEMP                                #  CALCULATE THE ECADR OF LOCATION IN
000285: 04,3505           13447                           TCF      OHWELL2    +2                         #  UPBUFF WHICH USER WANTS TO CHANGE.
000286:
000287: 04,3506  04,3712               UPOUT4             EQUALS   UPOUT      +1                         #  COMES HERE ON V34 TO TERMINATE UPDATE
000288:
000289:                                                                                                  #  CHECK FOR VERB 32 SEQUENCE
000290:
000291: 04,3506           40154        CK4V32             CS       MPAC                                  #  ON DATA RETURN FROM 'GOXDSPF'
000292: 04,3507           74746                           MASK     BIT6                                  #  ON DATA RETURN FROM "GOXDSP" & THE CON-
000293: 04,3510           10000                           CCS      A                                     #  TENTS OF MPAC = VERB.  SO TEST FOR V32.
000294: 04,3511           00002                           TC       Q                                     #  IT'S NOT A V32, IT'S DATA.  PROCEED.
000295: 04,3512           50002                           INDEX    Q
000296: 04,3513           77771                           TC       0          -6                         #  V32 ENCOUNTERED - GO BACK AND GET DATA
000297:
000298: 04,3514           01167        ADUPTEMP           ADRES    UPTEMP                                #  ADDRESS OF TEMP STORAGE FOR CORRECTIONS
000299: 04,3515           01174        ADUPBUFF           ADRES    UPBUFF                                #  ADDRESS OF UPDATE DATA STORAGE BUFFER
000300: 04,3516           05201        UPLOADNV           VN       2101                                  #  VERB 21 NOUN 01
000301: 04,3517           05202        UPVRFYNV           VN       2102                                  #  VERB 21 NOUN 02
000302: 04,3520     4362               UP21               =        MD1                                   #  DEC 21 = MAX NO OF COMPONENTS +1
000303: 04,3520     4756               UPDTPHAS           EQUALS   FIVE
000304:
000305:                                                                                                  #  PRE-STORE AND FAN TO APPROPRIATE BRANCH SEQUENCE
000306:
000307: 04,3520                        UPSTORE            EQUALS                                         #  GROUND HAS VERIFIED UPDATE.  STORE DATA.
000308:
000309: 04,3520           00004                           INHINT
000310:
000311: 04,3521           30103                           CAE      FLAGWRD7                              #  INVERT VERIFLAG (BIT 3 OF FLAGWRD7) TO
000312: 04,3522           56001                           XCH      L                                     #  INDICATE TO THE GROUND (VIA DOWNLINK)
000313: 04,3523           34751                           CAF      VERIFBIT                              #  THAT THE V33 (WHICH THE GROUND SENT TO
000314: 04,3524           00006                           EXTEND                                         #  VERIFY THE UPDATE) HAS BEEN SUCCESSFULLY
000315: 04,3525           06001                           RXOR     LCHAN                                 #  RECEIVED BY THE UPDATE PROGRAM
000316: 04,3526           54103                           TS       FLAGWRD7
000317:
000318: 04,3527           05353                           TC       PHASCHNG                              #  SET RESTART GROUP 6 TO REDO THE UPDATE
000319: 04,3530           04026                           OCT      04026                                 #  DATA STORE IF A RESTART OCCURS.
000320: 04,3531           00004                           INHINT                                         #  (BECAUSE PHASCHNG DID A RELINT)
000321:
000322: 04,3532           44752                           CS       TWO                                   #  GO TO UPFNDVAC IF INSTALL IS REQUIRED.
000323: 04,3533           61172                           AD       UPVERB                                #  THAT IS, IF IT'S A V70 - V72.
000324: 04,3534           00006                           EXTEND                                         #  GO TO UPEND73 IF IT'S A V73.
000325: 04,3535           63544                           BZMF     UPFNDVAC
000326:
000327:                                                                                                  #  VERB 73 BRANCH


000329: 04,3536           00006        UPEND73            EXTEND                                         #  V73 - PERFORM DP OCTAL AGC CLOCK INCREMENT
000330:
000331: 04,3537           31175                           DCA      UPBUFF
000332: 04,3540           53205                           DXCH     UPBUFF     +8D
000333: 04,3541           03567                           TC       TIMEDIDL
000334: 04,3542           04364                           TC       FALTON                                #  ERROR - TURN ON *OPERATOR ERROR* LIGHT
000335: 04,3543           03712                           TC       UPOUT      +1                         #  GO TO COMMON UPDATE PROGRAM EXIT
000336:
000337: 04,3544           34355        UPFNDVAC           CAF      CHRPRIO                               #  (USE EXTENDED VERB PRIORITY)
000338: 04,3545           05105                           TC       FINDVAC                               #  GET VAC AREA FOR 'CALL INTSTALL'
000339: 04,3546  E3,1706                                  EBANK=   TEPHEM
000340: 04,3546           03551 10103                     2CADR    UPJOB                                 #  (NOTE:  THIS WILL ALSO SET EBANK FOR
000341: 04,3550           05155                           TC       ENDOFJOB                              #  'TEPHEM' UPDATE BY V70)
000342:
000343: 04,3551           06037        UPJOB              TC       INTPRET                               #  THIS COULD BE A STATE VECTOR UPDATE -- SO
000344: 04,3552           77624                           CALL                                           #  WAIT (PUT JOB TO SLEEP) IF ORBIT INT(OI)
000345: 04,3553           27414                                    INTSTALL                              #  IS IN PROGRESS -- OR -- GRAB OI AND RETURN
000346:                                                                                                  #  TO UPWAKE IF OI IS NOT IN PROGRESS.
000347:
000348: 04,3554           77776        UPWAKE             EXIT
000349:
000350: 04,3555           05353                           TC       PHASCHNG                              #  RESTART PROTECT (GROUP 6)
000351: 04,3556           04026                           OCT      04026
000352:
000353: 04,3557           05504                           TC       UPFLAG                                #  SET INTEGRATION RESTART BIT
000354: 04,3560           00236                           ADRES    REINTFLG
000355: 04,3561           00004                           INHINT
000356: 04,3562                        UPPART3            EQUALS
000357:
000358: 04,3562           51172                           INDEX    UPVERB                                #  BRANCH TO THE APPROPRIATE UPDATE VERB
000359: 04,3563           13564                           TCF      +1                                    #  ROUTINE TO ACTUALLY PERFORM THE UPDATE
000360: 04,3564           13723                           TCF      UPEND70                               #  V70
000361: 04,3565           13632                           TCF      UPEND71                               #  V71
000362: 04,3566           13664                           TCF      UPEND72                               #  V72
000363:
000364:                                                                                                  #  ROUTINE TO INCREMENT CLOCK (TIME2,TIME1) WITH CONTENTS OF DP WORD AT UPBUFF.
000365:
000366: 04,3567           00006        TIMEDIDL           EXTEND
000367: 04,3570           23167                           QXCH     UPTEMP                                #  SAVE Q FOR RETURN
000368: 04,3571           34755                           CAF      ZERO                                  #  ZERO AND SAVE TIME2,TIME1
000369: 04,3572           22007                           ZL
000370: 04,3573           52025                           DXCH     TIME2
000371: 04,3574           53217                           DXCH     UPBUFF     +18D                       #  STORE IN CASE OF OVERFLOW
000372:
000373: 04,3575           34756                           CAF      UPDTPHAS                              #  DO
000374: 04,3576           54001                           TS       L                                     #  A
000375: 04,3577           40000                           COM                                            #  QUICK
000376: 04,3600           52765                           DXCH     -PHASE6                               #  PHASCHNG


000378: 04,3601           00004        TIMEDIDR           INHINT
000379:
000380: 04,3602           34755                           CAF      ZERO
000381: 04,3603           22007                           ZL                                             #  PICK UP INCREMENTER(AND ZERO
000382: 04,3604           54156                           TS       MPAC       +2                         #  IT IN CASE OF RESTARTS) AND
000383: 04,3605           53205                           DXCH     UPBUFF     +8D                        #  STORE IT
000384: 04,3606           52155                           DXCH     MPAC                                  #  INTO MPAC FOR TPAGREE.
000385:
000386: 04,3607           00006                           EXTEND
000387: 04,3610           31217                           DCA      UPBUFF     +18D
000388: 04,3611           20155                           DAS      MPAC                                  #  FORM SUM IN MPAC
000389: 04,3612           00006                           EXTEND
000390: 04,3613           13622                           BZF      DELTAOK                               #  TEST FOR OVERFLOW
000391: 04,3614           34755                           CAF      ZERO
000392: 04,3615           53217                           DXCH     UPBUFF     +18D                       #  OVERFLOW, RESTORE OLD VALUE OF CLOCK
000393: 04,3616           20025                           DAS      TIME2                                 #  AND TURN ON OPERATOR ERROR
000394:
000395: 04,3617           05353                           TC       PHASCHNG                              #  RESTART PROTECT (GROUP 6)
000396: 04,3620           04026                           OCT      04026
000397:
000398: 04,3621           01167                           TC       UPTEMP                                #  GO TO ERROR EXIT
000399:
000400: 04,3622           07257        DELTAOK            TC       TPAGREE                               #  FORCE SIGN AGREEMENT
000401: 04,3623           52155                           DXCH     MPAC
000402: 04,3624           20025                           DAS      TIME2                                 #  INCREMENT TIME2,TIME1
000403:
000404: 04,3625           05353                           TC       PHASCHNG                              #  RESTART PROTECT (GROUP 6)
000405: 04,3626           04026                           OCT      04026
000406:
000407: 04,3627           00004                           INHINT
000408: 04,3630           51167                           INDEX    UPTEMP                                #  (CODED THIS WAY FOR RESTART PROTECTION)
000409: 04,3631           00001                           TC       1                                     #  NORMAL RETURN
000410:
000411:                                                                                                  #  VERB 71 BRANCH
000412:
000413: 04,3632           31175        UPEND71            CAE      UPBUFF     +1                         #  SET EBANK
000414: 04,3633           54003                           TS       EBANK                                 #        AND
000415: 04,3634           74357                           MASK     LOW8                                  #  CALCULATE
000416: 04,3635           55167                           TS       UPTEMP                                #  S-REG VALUE OF RECEIVING AREA
000417:
000418: 04,3636           67745                           AD       NEG3                                  #  IN THE PROCESS OF
000419: 04,3637           61170                           AD       COMPNUMB                              #  PERFORMING
000420: 04,3640           00006                           EXTEND                                         #  THIS UPDATE
000421: 04,3641           13647                           BZF      STORLP71                              #  WILL WE
000422: 04,3642           74743                           MASK     BIT9                                  #  OVERFLOW
000423: 04,3643           10000                           CCS      A                                     #  INTO THE NEXT EBANK....
000424: 04,3644           13760                           TCF      UPERROUT                              #  YES
000425:
000426: 04,3645           37745                           CA       NEG3                                  #  NO - CALCULATE NUMBER OF
000427: 04,3646           61170                           AD       COMPNUMB                              #  WORDS TO BE STORED MINUS ONE
000428: 04,3647           54154        STORLP71           TS       MPAC                                  #  SAVE NO. OF WORDS REMAINING MINUS ONE


000430: 04,3650           50000                           INDEX    A                                     #  TAKE NEXT UPDATE WORD FROM
000431: 04,3651           31176                           CA       UPBUFF     +2                         #  UPBUFF AND
000432:
000433: 04,3652           54001                           TS       L                                     #  SAVE IT IN L
000434: 04,3653           30154                           CA       MPAC                                  #  CALCULATE NEXT
000435: 04,3654           61167                           AD       UPTEMP                                #  RECEIVING ADDRESS
000436: 04,3655           50000                           INDEX    A
000437: 04,3656  E3,1400                                  EBANK=   1400
000438: 04,3656           23400                           LXCH     1400                                  #  UPDATE THE REGISTER BY CONTENTS OF L
000439: 04,3657  E3,1706                                  EBANK=   TEPHEM
000440: 04,3657           10154                           CCS      MPAC                                  #  ARE THERE ANY WORDS LEFT TO BE STORED
000441: 04,3660           13647                           TCF      STORLP71                              #  YES
000442: 04,3661           13711                           TCF      UPOUT                                 #  NO - THEN EXIT UPDATE PROGRAM
000443: 04,3662           01173        ADUPBFM1           ADRES    UPBUFF     -1                         #  SAME AS ADUPBUFF BUT LESS 1 (DON'T MOVE)
000444: 04,3663           13711                           TCF      UPOUT                                 #  NO - EXIT UPDATE (HERE WHEN COMPNUMB = 3)
000445:
000446:                                                                                                  #  VERB 72 BRANCH
000447:
000448: 04,3664           34753        UPEND72            CAF      BIT1                                  #  HAVE AN ODD NO. OF COMPONENTS
000449: 04,3665           71170                           MASK     COMPNUMB                              #  BEEN SENT FOR A V72 UPDATE ...
000450: 04,3666           10000                           CCS      A
000451: 04,3667           13671                           TCF      +2                                    #  YES
000452: 04,3670           13760                           TCF      UPERROUT                              #  ERROR - SHOULD BE ODD NO. OF COMPONENTS
000453: 04,3671           44752                           CS       BIT2
000454: 04,3672           61170                           AD       COMPNUMB
000455: 04,3673           54154        LDLOOP72           TS       MPAC                                  #  NOW PERFORM THE UPDATE
000456: 04,3674           50000                           INDEX    A
000457: 04,3675           31175                           CAE      UPBUFF     +1                         #  PICK UP NEXT UPDATE WORD
000458: 04,3676           22000                           LXCH     A
000459: 04,3677           10154                           CCS      MPAC                                  #  SET POINTER TO ECADR (MUST BE CCS)
000460: 04,3700           54154                           TS       MPAC
000461: 04,3701           50000                           INDEX    A
000462: 04,3702           31175                           CAE      UPBUFF     +1                         #  PICK UP NEXT ECADR OF REG TO BE UPDATED
000463: 04,3703           54003                           TS       EBANK                                 #  SET EBANK
000464: 04,3704           74357                           MASK     LOW8                                  #  ISOLATE RELATIVE ADDRESS
000465: 04,3705           50000                           INDEX    A
000466: 04,3706  E3,1400                                  EBANK=   1400
000467: 04,3706           23400                           LXCH     1400                                  #  UPDATE THE REGISTER BY CONTENTS OF L
000468: 04,3707  E3,1706                                  EBANK=   TEPHEM
000469: 04,3707           10154                           CCS      MPAC                                  #  ARE WE THROUGH THE V72 UPDATE...
000470: 04,3710           13673                           TCF      LDLOOP72                              #  NO
000471:
000472:                                                                                                  #  NORMAL FINISH OF P27
000473:
000474: 04,3711                        UPOUT              EQUALS
000475: 04,3711           03165                           TC       INTWAKEU                              #  RELEASE GRAB OF ORBITAL INTEGRATION
000476: 04,3712           31171                 +1        CAE      UPOLDMOD                              #  RESTORE PRIOR P27 MODE
000477: 04,3713           05314                           TC       NEWMODEX   +3
000478: 04,3714           34755                           CAF      ZERO


000480: 04,3715           54332                           TS       DNLSTCOD
000481: 04,3716           03765                           TC       UPACTOFF                              #  TURN OFF 'UPLINK ACTIVITY' LIGHT
000482:
000483: 04,3717           00006                           EXTEND                                         #  KILL GROUP 6.
000484: 04,3720           34755                           DCA      NEG0
000485: 04,3721           52765                           DXCH     -PHASE6
000486:
000487: 04,3722           05472                           TC       ENDEXT                                #  EXTENDED VERB EXIT
000488:
000489:                                                                                                  #  VERB TO BRANCH
000490:
000491: 04,3723           00006        UPEND70            EXTEND                                         #  V70 DOES THE FOLLOWING WITH DP DELTA
000492: 04,3724           41175                           DCS      UPBUFF                                #  TIME IN UPBUFF
000493: 04,3725           53205                           DXCH     UPBUFF     +8D
000494: 04,3726           03567                           TC       TIMEDIDL                              #  DECREMENT AGC CLOCK
000495:
000496: 04,3727           03760                           TC       UPERROUT                              #  ERROR WHILE DECREMENTING CLOCK -- EXIT
000497:
000498: 04,3730  E3,1706                                  EBANK=   TEPHEM
000499: 04,3730           00006                           EXTEND
000500: 04,3731           41175                           DCS      UPBUFF                                #  COPY DECREMENTERS FOR
000501: 04,3732           53207                           DXCH     UPBUFF     +10D                       #  RESTART PROTECTION
000502: 04,3733           00006                           EXTEND
000503: 04,3734           41175                           DCS      UPBUFF
000504: 04,3735           53211                           DXCH     UPBUFF     +12D
000505:
000506: 04,3736           05353                           TC       PHASCHNG                              #  RESTART PROTECT (GROUP 6)
000507: 04,3737           04026                           OCT      04026
000508:
000509: 04,3740           34755                           CAF      ZERO
000510: 04,3741           22007                           ZL
000511: 04,3742           53207                           DXCH     UPBUFF     +10D                       #  DECREMENT CSM STATE VECTOR TIME
000512: 04,3743           21571                           DAS      TETCSM
000513:
000514: 04,3744           34755                           CAF      ZERO
000515: 04,3745           22007                           ZL
000516: 04,3746           53211                           DXCH     UPBUFF     +12D                       #  DECREMENT LEM STATE VECTOR TIME
000517: 04,3747           21643                           DAS      TETLEM
000518:
000519: 04,3750           34755                           CAF      ZERO
000520: 04,3751           22007                           ZL
000521: 04,3752           53175                           DXCH     UPBUFF
000522: 04,3753           21710                           DAS      TEPHEM     +1                         #  INCREMENT TP TEPHEM
000523: 04,3754           27706                           ADS      TEPHEM
000524:
000525: 04,3755           05353                           TC       PHASCHNG                              #  RESTART PROTECT (GROUP 6)
000526: 04,3756           04026                           OCT      04026
000527:
000528: 04,3757     1174                                  EBANK=   UPBUFF


000530: 04,3757           03711                           TC       UPOUT                                 #  GO TO STANDARD UPDATE PROGRAM EXIT
000531:
000532:
000533:                                                                                                  #  ERROR SEQUENCE
000534:
000535: 04,3760           04364        UPERROUT           TC       FALTON                                #  TURN ON *OPERATOR ERROR* LIGHT
000536: 04,3761           13711                           TCF      UPOUT                                 #  GO TO COMMON UPDATE PROGRAM EXIT
000537:
000538: 04,3762           04364                 +2        TC       FALTON                                #  TURN ON 'OPERATOR ERROR' LIGHT
000539: 04,3763           03765                           TC       UPACTOFF                              #  TURN OFF 'UPLINK ACTIVITY' LIGHT
000540: 04,3764           05472                           TC       ENDEXT                                #  EXTENDED VERB EXIT
000541:                                                                                                  #  (THE PURPOSE OF UPERROUT +2 EXIT IS
000542:                                                                                                  #  TO PROVIDE AN ERROR EXIT WHICH DOES NOT
000543:                                                                                                  #  RESET ANY RESTART GROUPS)
000544:
000545:                                                                                                  #  :UPACTOFF: IS A ROUTINE TO TURN OFF UPLINK ACTIVITY LIGHT ON ALL EXITS FROM UPDATE PROGRAM (P27).
000546:
000547: 04,3765           44751        UPACTOFF           CS       BIT3
000548: 04,3766           00006                           EXTEND                                         #  TURN OFF UPLINK ACTIVITY LIGHT
000549: 04,3767           03011                           WAND     DSALMOUT                              #  (BIT 3 OF CHANNEL 11)
000550: 04,3770           00002                           TC       Q
000551:

End of include-file UPDATE_PROGRAM.agc.  Parent file is MAIN.agc


