
Source Code
000001:                                                                                                 #  Copyright:     Public domain.
000002:                                                                                                 #  Filename:      WAITLIST.agc
000003:                                                                                                 #  Purpose:       Part of the source code for Luminary 1A build 099.
000004:                                                                                                 #                 It is part of the source code for the Lunar Module's (LM)
000005:                                                                                                 #                 Apollo Guidance Computer (AGC), for Apollo 11.
000006:                                                                                                 #  Assembler:     yaYUL
000007:                                                                                                 #  Contact:       Ron Burkey <info@sandroid.org>.
000008:                                                                                                 #  Website:       www.ibiblio.org/apollo.
000009:                                                                                                 #  Pages: 1117-1132
000010:                                                                                                 #  Mod history:   2009-05-25 RSB  Adapted from the corresponding
000011:                                                                                                 #                                 Luminary131 file, using page
000012:                                                                                                 #                                 images from Luminary 1A.
000013:
000014:                                                                                                 #  This source code has been transcribed or otherwise adapted from
000015:                                                                                                 #  digitized images of a hardcopy from the MIT Museum.  The digitization
000016:                                                                                                 #  was performed by Paul Fjeld, and arranged for by Deborah Douglas of
000017:                                                                                                 #  the Museum.  Many thanks to both.  The images (with suitable reduction
000018:                                                                                                 #  in storage size and consequent reduction in image quality as well) are
000019:                                                                                                 #  available online at www.ibiblio.org/apollo.  If for some reason you
000020:                                                                                                 #  find that the images are illegible, contact me at info@sandroid.org
000021:                                                                                                 #  about getting access to the (much) higher-quality images which Paul
000022:                                                                                                 #  actually created.
000023:
000024:                                                                                                 #  Notations on the hardcopy document read, in part:
000025:
000026:                                                                                                 #         Assemble revision 001 of AGC program LMY99 by NASA 2021112-61
000027:                                                                                                 #         16:27 JULY 14, 1969
000028:
000029:                                                                                                 #  Page 1117
000030:                                                                                                 #  PROGRAM DESCRIPTION                                                            DATE -- 10 OCTOBER 1966
000031:                                                                                                 #  MOD NO -- 2                                                                    LOG SECTION -- WAITLIST
000032:                                                                                                 #  MOD BY -- MILLER       (DTMAX INCREASED TO 162.5 SEC)                          ASSEMBLY -- SUNBURST REV 5
000033:                                                                                                 #  MOD 3 BY KERNAN        (INHINT INSERTED AT WAITLIST) 2/28/68 SKIPPER REV 4
000034:                                                                                                 #  MOD 4 BY KERNAN        (TWIDDLE IN 54) 3/28/68 SKIPPER REV 13.
000035:
000036:                                                                                                 #  FUNCTIONAL DESCRIPTION --
000037:                                                                                                 #         PART OF A SECTION OF PROGRAMS -- WAITLIST, TASKOVER, T3RUPT, USED TO CALL A PROGRAM (CALLED A TASK),
000038:                                                                                                 #         WHICH IS TO BEGIN IN C(A) CENTISECONDS.  WAITLIST UPDATES TIME3, LST1, AND LST2.  THE MEANING OF THESE LISTS
000039:                                                                                                 #         FOLLOW.
000040:
000041:                                                                                                 #                 C(TIME3) = 16384 -(T1-T) CENTISECONDS, (T=PRESENT TIME, T1-TIME FOR TASK1)
000042:
000043:                                                                                                 #                         C(LST1)         =       -(T2-T1)+1
000044:                                                                                                 #                         C(LST1 +1)      =       -(T3-T2)+1
000045:                                                                                                 #                         C(LST1 +2)      =       -(T4-T3)+1
000046:                                                                                                 #                                        ...
000047:                                                                                                 #                         C(LST1 +6)      =       -(T8-T7)+1
000048:                                                                                                 #                         C(LST1 +7)      =       -(T9-T8)+1
000049:
000050:                                                                                                 #                         C(LST2)         =       2CADR OF TASK1
000051:                                                                                                 #                         C(LST2 +2)      =       2CADR OF TASK2
000052:                                                                                                 #                                        ...
000053:                                                                                                 #                         C(LST2 +14)     =       2CADR OF TASK8
000054:                                                                                                 #                         C(LST2 +16)     =       2CADR OF TASK9
000055:
000056:                                                                                                 #  WARNINGS --
000057:                                                                                                 #         1)      1 <= C(A) <= 16250D (1 CENTISECOND TO 162.5 SEC)
000058:                                                                                                 #         2)      9 TASKS MAXIMUM
000059:                                                                                                 #         3)      TASKS CALLED UNDER INTERRUPT INHIBITED
000060:                                                                                                 #         4)      TASKS END BY TC TASKOVER
000061:
000062:                                                                                                 #  CALLING SEQUENCE --
000063:                                                                                                 #         L-1     CA      DELTAT  (TIME IN CENTISECONDS TO TASK START)
000064:                                                                                                 #         L       TC      WAITLIST
000065:                                                                                                 #         L+1     2CADR   DESIRED TASK.
000066:                                                                                                 #         L+2     (MINOR OF 2CADR)
000067:                                                                                                 #         L+3     RELINT          (RETURNS HERE)
000068:
000069:                                                                                                 #  TWIDDLE --
000070:                                                                                                 #         TWIDDLE IS FOR USE WHEN THE TASK BEING SET UP IS IN THE SAME EBANK AND FBANK AS THE USER.  IN
000071:                                                                                                 #         SUCH CASES, IT IMPROVES UPON WAITLIST BY ELIMINATING THE NEED FOR THE BBCON HALF OF THE 2CADR,
000072:                                                                                                 #  Page 1118
000073:                                                                                                 #         SAVING A WORD.  TWIDDLE IS LIKE WAITLIST IN EVERY RESPECT EXCEPT CALLING SEQUENCE, TO WIT,
000074:                                                                                                 #                 L-1     CA      DELTAT
000075:                                                                                                 #                 L       TC      TWIDDLE
000076:                                                                                                 #                 L+1     ADRES   DESIRED TASK
000077:                                                                                                 #                 L+2     RELINT          (RETURNS HERE)
000078:
000079:                                                                                                 #  NORMAL EXIT MODES --
000080:                                                                                                 #         AT L+3 OF CALLING SEQUENCE.
000081:
000082:                                                                                                 #  ALARM OR ABORT EXIT MODES --
000083:                                                                                                 #         TC      ABORT
000084:                                                                                                 #         OCT     1203    (WAITLIST OVERFLOW -- TOO MANY TASKS)
000085:
000086:                                                                                                 #  ERASABLE INITIALIZATION REQUIRED --
000087:                                                                                                 #         ACCOMPLISHED BY FRESH START --  LST2, ..., LST2 +16 = ENDTASK
000088:                                                                                                 #                                         LST1, ..., LST1 +7  = NEG1/2
000089:
000090:                                                                                                 #  OUTPUT --
000091:                                                                                                 #         LST1 AND LST2 UPDATED WTIH NEW TASK AND ASSOCIATED TIME.
000092:
000093:                                                                                                 #  DEBRIS --
000094:                                                                                                 #         CENTRALS -- A,Q,L
000095:                                                                                                 #         OTHER    -- WAITEXIT, WAITADR, WAITTEMP, WAITBANK
000096:
000097:                                                                                                 #  DETAILED ANALYSIS OF TIMING --
000098:                                                                                                 #         CONTROL WILL NOT BE RETURNED TO THE SPECIFIED ADDRESS (2CADR) IN EXACTLY DELTA T CENTISECONDS.
000099:                                                                                                 #         THE APPROXIMATE TIME MAY BE CALCULATED AS FOLLOWS:
000100:                                                                                                 #                 LET T0 = THE TIME OF THE TC WAITLIST
000101:                                                                                                 #                 LET TS = T0 +147U + COUNTER INCREMENTS (SET UP TIME)
000102:                                                                                                 #                 LET X  = TS -(100TS)/100  (VARIANCE FROM COUNTERS)
000103:                                                                                                 #                 LET Y  = LENGTH OF TIME OF INHIBIT INTERRUPT AFTER T3RUPT
000104:                                                                                                 #                 LET Z  = LENGTH OF TIME TO PROCESS TASKS WHICH ARE DUE THIS T3RUPT BUT DISPATCHED EARLIER.
000105:                                                                                                 #                          (Z=0, USUALLY).
000106:                                                                                                 #                 LET DELTD  = THE ACTUAL TIME TAKEN TO GIVE CONTROL TO 2CADR
000107:                                                                                                 #                 THEN DELTD = TS+DELTA T -X +Y +Z +1.05MS* +COUNTERS*
000108:                                                                                                 #                 *THE TIME TAKEN BY WAITLIST ITSELF AND THE COUNTER TICKING DURING THIS WAITLIST TIME.
000109:                                                                                                 #         IN SHORT, THE ACTUAL TIME TO RETURN CONTROL TO A 2CADR IS AUGMENTED BY THE TIME TO SET UP THE TASK'S
000110:                                                                                                 #         INTERRUPT, ALL COUNTERS TICKING, THE T3RUPT PROCESSING TIME, THE WAITLIST PROCESSING TIME AND THE POSSIBILITY
000111:                                                                                                 #         OF OTHER TASKS INHIBITING THE INTERRUPT.
000112:
000113:    5173                                          BLOCK    02
000114:                                                                                                 #  Page 1119
000115:    5173  E3,1400                                 EBANK=   LST1                                  #  TASK LISTS IN SWITCHED E BANK.
000116:
000117:    5173                                          COUNT*   $$/WAIT
000118:    5173           00004        TWIDDLE           INHINT
000119:    5174           54001                          TS       L                                     #  SAVE DELAY TIME IN L
000120:    5175           34733                          CA       POSMAX
000121:    5176           26002                          ADS      Q                                     #  CREATING OVERFLOW AND Q-1 IN Q
000122:    5177           30006                          CA       BBANK
000123:    5200           00006                          EXTEND
000124:    5201           04007                          ROR      SUPERBNK
000125:    5202           56001                          XCH      L
000126:
000127:    5203           00004        WAITLIST          INHINT
000128:    5204           56002                          XCH      Q          SAVE       DELTA
000129:    5205           54061                          TS       WAITEXIT   WAITEXIT.
000130:    5206           00006                          EXTEND
000131:    5207           50061                          INDEX    WAITEXIT                              #  IF TWIDDLING, THE TS SKIPS TO HERE
000132:    5210           30001                          DCA      0                                     #  PICK UP 2CADR OF TASK.
000133:    5211           54063                 -1       TS       WAITADR                               #  BBCON WILL REMAIN IN L
000134:    5212           35220        DLY2              CAF      WAITBB                                #  ENTRY FROM FIXDELAY AND VARDELAY.
000135:    5213           56006                          XCH      BBANK
000136:    5214           13231                          TCF      WAIT2
000137:
000138:                                                                                                 #  RETURN TO CALLER AFTER TASK INSERTION:
000139:
000140:    5215           52062        LVWTLIST          DXCH     WAITEXIT
000141:    5216           64752                          AD       TWO
000142:    5217           52006                          DTCB
000143:
000144:    5220  E3,1400                                 EBANK=   LST1
000145:    5220           02063        WAITBB            BBCON    WAIT2
000146:
000147:                                                                                                 #  RETURN TO CALLER +2 AFTER WAITING DT SPECIFIED AT CALLER +1.
000148:
000149:    5221           50002        FIXDELAY          INDEX    Q                                     #  BOTH ROUTINES MUST BE CALLED UNDER
000150:                                                                                                 #  Was CAF --- RSB 2009.
000151:    5222           30000                          CA       0                                     #  WAITLIST CONTROL AND TERMINATE THE TASK
000152:    5223           24002                          INCR     Q                                     #  IN WHICH THEY WERE CALLED.
000153:
000154:                                                                                                 #  RETURN TO CALLER +1 AFTER WAITING THE DT AS ARRIVING IN A.
000155:
000156:    5224           56002        VARDELAY          XCH      Q                                     #  DT TO Q.  TASK ADRES TO WAITADR.
000157:    5225           54063                          TS       WAITADR
000158:    5226           30006                          CA       BBANK                                 #  BBANK IS SAVED DURING DELAY.
000159:    5227           00006                          EXTEND
000160:    5230           04007                          ROR      SUPERBNK                              #  ADD SBANK TO BBCON.
000161:    5231           54001                          TS       L
000162:    5232           35235                          CAF      DELAYEX
000163:    5233           54061                          TS       WAITEXIT                              #  GO TO TASKOVER AFTER TASK ENTRY.
000164:    5234           15212                          TCF      DLY2
000165:
000166:                                                                                                 #  Page 1120
000167:    5235           15257        DELAYEX           TCF      TASKOVER   -2                         #  RETURNS TO TASKOVER.
000168:
000169:                                                                                                 #  Page 1121
000170:                                                                                                 #  ENDTASK MUST ENTERED IN FIXED-FIXED SO IT IS DISTINGUISHABLE BY ITS ADRES ALONE.
000171:
000172:    5236  E3,1400                                 EBANK=   LST1
000173:    5236           72537 73714  ENDTASK           -2CADR   SVCT3
000174:
000175:    5240           10076        SVCT3             CCS      FLAGWRD2                              #  DRIFT FLAG
000176:    5241           15261                          TCF      TASKOVER
000177:    5242           15261                          TCF      TASKOVER
000178:    5243           15244                          TCF      +1
000179:
000180:    5244           11304        CKIMUSE           CCS      IMUCADR                               #  DON'T DO NBDONLY IF SOMEONE ELSE IS IN
000181:    5245           15256                          TCF      SVCT3X                                #  IMUSTALL.
000182:    5246           15251                          TCF      +3
000183:    5247           15256                          TCF      SVCT3X
000184:    5250           15256                          TCF      SVCT3X
000185:
000186:    5251           37723                 +3       CAF      PRIO35                                #  COMPENSATE FOR NBD COEFFICIENTS ONLY.
000187:    5252           05072                          TC       NOVAC                                 #         ENABLE EVERY 81.93 SECONDS
000188:    5253  E3,1460                                 EBANK=   NBDX
000189:    5253           03555 14063                    2CADR    NBDONLY
000190:
000191:    5255           15261                          TCF      TASKOVER
000192:
000193:    5256           05221        SVCT3X            TC       FIXDELAY                              #  DELAY MAX OF 2 TIMES FOR IMUZERO.
000194:    5257           00764                          DEC      500        B-14
000195:    5260           05240                          TC       SVCT3                                 #  CHECK DRIFT FLAG AGAIN.
000196:
000197:                                                                                                 #  Page 1122
000198:                                                                                                 #  BEGIN TASK INSERTION.
000199:
000200: 01,3231                                          BANK     01
000201: 01,3231                                          COUNT*   $$/WAIT
000202: 01,3231           54062        WAIT2             TS       WAITBANK                              #  BBANK OF CALLING PROGRAM.
000203: 01,3232           30002                          CA       Q
000204: 01,3233           00006                          EXTEND
000205: 01,3234           63523                          BZMF     WAITP00H
000206:
000207: 01,3235           40026                          CS       TIME3
000208: 01,3236           64744                          AD       BIT8                                  #  BIT 8 = OCT 200
000209: 01,3237           10000                          CCS      A                                     #  TEST 200 - C(TIME3).  IF POSITIVE,
000210:                                                                                                 #  IT MEANS THAT TIME3 OVERFLOW HAS OCCURRED PRIOR TO CS TIME3 AND THAT
000211:                                                                                                 #  C(TIME3) = T - T1, INSTEAD OF 1.0 - (T1 - T).  THE FOLLOWING FOUR
000212:                                                                                                 #  ORDERS SET C(A) = TD - T1 + 1 IN EITHER CASE.
000213:
000214: 01,3240           66107                          AD       OCT40001                              #  OVERFLOW HAS OCCURRED.  SET C(A) =
000215: 01,3241           40000                          CS       A                                     #  T - T1 + 1.0 - 201
000216:
000217:                                                                                                 #  NORMAL CASE (C(A) NNZ) YIELDS SAME C(A):  -( -(1.0-(T1-T)) + 200) - 1
000218:
000219: 01,3242           63370                          AD       OCT40201
000220: 01,3243           60002                          AD       Q                                     #  RESULT = TD - T1 + 1.
000221:
000222: 01,3244           10000                          CCS      A                                     #  TEST TD - T1 + 1.
000223:
000224: 01,3245           61400                          AD       LST1                                  #  IF TD - T1 POS, GO TO WTLST5 WITH
000225: 01,3246           13310                          TCF      WTLST5                                #  C(A) = (TD - T1) + C(LST1) = TD-T2+1
000226:
000227: 01,3247           13250                          NOOP
000228: 01,3250           40002                          CS       Q
000229:
000230:                                                                                                 #  NOTE THAT THIS PROGRAM SECTION IS NEVER ENTERED WHEN T-T1 G/E -1,
000231:                                                                                                 #  SINCE TD-T1+1 = (TD-T) + (T-T1+1), AND DELTA T = TD-T G/E +1.  (G/E
000232:                                                                                                 #  SYMBOL MEANS GREATER THAN OR EQUAL TO).  THUS THERE NEED BE NO CON-
000233:                                                                                                 #  CERN OVER A PREVIOUS OR IMMINENT OVEFLOW OF TIME3 HERE.
000234:
000235: 01,3251           64736                          AD       POS1/2                                #  WHEN TD IS NEXT, FORM QUANTITY
000236: 01,3252           64736                          AD       POS1/2                                #         1.0 - DELTA T = 1.0 - (TD - T)
000237: 01,3253           56026                          XCH      TIME3
000238: 01,3254           64735                          AD       NEGMAX
000239: 01,3255           60002                          AD       Q                                     #  1.0 - DELTAT T NOW COMPLETE.
000240: 01,3256           00006                          EXTEND                                         #  ZERO INDEX Q.
000241: 01,3257           22007                          QXCH     7                                     #  (ZQ)
000242:
000243:                                                                                                 #  Page 1123
000244: 01,3260           57400        WTLST4            XCH      LST1
000245: 01,3261           57401                          XCH      LST1       +1
000246: 01,3262           57402                          XCH      LST1       +2
000247: 01,3263           57403                          XCH      LST1       +3
000248: 01,3264           57404                          XCH      LST1       +4
000249: 01,3265           57405                          XCH      LST1       +5
000250: 01,3266           57406                          XCH      LST1       +6
000251: 01,3267           57407                          XCH      LST1       +7
000252:
000253: 01,3270           30063                          CA       WAITADR                               #  (MINOR PART OF TASK CADR HAS BEEN IN L.)
000254: 01,3271           50002                          INDEX    Q
000255: 01,3272           13273                          TCF      +1
000256:
000257: 01,3273           53411                          DXCH     LST2
000258: 01,3274           53413                          DXCH     LST2       +2
000259: 01,3275           53415                          DXCH     LST2       +4
000260: 01,3276           53417                          DXCH     LST2       +6
000261: 01,3277           53421                          DXCH     LST2       +8D
000262: 01,3300           53423                          DXCH     LST2       +10D                       #  AT END, CHECK THAT C(LST2 +10) IS STD
000263: 01,3301           53425                          DXCH     LST2       +12D
000264: 01,3302           53427                          DXCH     LST2       +14D
000265: 01,3303           53431                          DXCH     LST2       +16D
000266: 01,3304           65236                          AD       ENDTASK                               #  END ITEM, AS CHECK FOR EXCEEDING
000267:                                                                                                 #  THE LENGTH OF THE LIST.
000268: 01,3305           00006                          EXTEND                                         #  DUMMY TASK ADRES SHOULD BE IN FIXED-
000269: 01,3306           15215                          BZF      LVWTLIST                              #  FIXED SO ITS ADRES ALONE DISTINGUISHES
000270: 01,3307           13363                          TCF      WTABORT                               #  IT.
000271:
000272:                                                                                                 #  Page 1124
000273: 01,3310           10000        WTLST5            CCS      A                                     #  TEST TD - T2 + 1
000274: 01,3311           61401                          AD       LST1       +1
000275: 01,3312           13316                          TCF      +4
000276: 01,3313           64753                          AD       ONE
000277: 01,3314           03374                          TC       WTLST2
000278: 01,3315           00001                          OCT      1
000279:
000280: 01,3316           10000                 +4       CCS      A                                     #  TEST TD - T3 + 1
000281: 01,3317           61402                          AD       LST1       +2
000282: 01,3320           13324                          TCF      +4
000283: 01,3321           64753                          AD       ONE
000284: 01,3322           03374                          TC       WTLST2
000285: 01,3323           00002                          OCT      2
000286:
000287: 01,3324           10000                 +4       CCS      A                                     #  TEST TD - T4 + 1
000288: 01,3325           61403                          AD       LST1       +3
000289: 01,3326           13332                          TCF      +4
000290: 01,3327           64753                          AD       ONE
000291: 01,3330           03374                          TC       WTLST2
000292: 01,3331           00003                          OCT      3
000293:
000294: 01,3332           10000                 +4       CCS      A                                     #  TEST TD - T5 + 1
000295: 01,3333           61404                          AD       LST1       +4
000296: 01,3334           13340                          TCF      +4
000297: 01,3335           64753                          AD       ONE
000298: 01,3336           03374                          TC       WTLST2
000299: 01,3337           00004                          OCT      4
000300:
000301: 01,3340           10000                 +4       CCS      A                                     #  TEST TD - T6 + 1
000302: 01,3341           61405                          AD       LST1       +5
000303: 01,3342           13346                          TCF      +4
000304: 01,3343           64753                          AD       ONE
000305: 01,3344           03374                          TC       WTLST2
000306: 01,3345           00005                          OCT      5
000307:
000308: 01,3346           10000                 +4       CCS      A                                     #  TEST TD - T7 + 1
000309: 01,3347           61406                          AD       LST1       +6
000310: 01,3350           13354                          TCF      +4
000311: 01,3351           64753                          AD       ONE
000312: 01,3352           03374                          TC       WTLST2
000313: 01,3353           00006                          OCT      6
000314:
000315:                                                                                                 #  Page 1125
000316: 01,3354           10000                 +4       CCS      A                                     #  TEST TD - T2 + 1
000317: 01,3355           61407                          AD       LST1       +7
000318: 01,3356           13362                          TCF      +4
000319: 01,3357           64753                          AD       ONE
000320: 01,3360           03374                          TC       WTLST2
000321: 01,3361           00007                          OCT      7
000322:
000323: 01,3362           10000                 +4       CCS      A
000324: 01,3363           03371        WTABORT           TC       FILLED
000325: 01,3364           13365                          NOOP                                           #  CAN'T GET HERE
000326: 01,3365           64753                          AD       ONE
000327: 01,3366           03374                          TC       WTLST2
000328: 01,3367           00010                          OCT      10
000329:
000330: 01,3370           40201        OCT40201          OCT      40201
000331:
000332:                                                                                                 #  Page 1126
000333: 01,3371           52062        FILLED            DXCH     WAITEXIT
000334: 01,3372           05716                          TC       BAILOUT1                              #  NO ROOM IN THE INN
000335: 01,3373           01203                          OCT      01203
000336:
000337:                                                                                                 #  Page 1127
000338:                                                                                                 #  THE ENTRY TC WTLST2 JUST PRECEDING OCT N IS FOR T  LE TD LE T   -1.
000339:                                                                                                 #                                                   N           N+1
000340:                                                                                                 #  (LE MEANS LESS THAN OR EQUAL TO).  AT ENTRY, C(A) = -(TD - T   + 1)
000341:                                                                                                 #                                                              N+1
000342:                                                                                                 #  THE LST1 ENTRY -(T   -T +1) IS TO BE REPLACED BY -(TD - T  + 1), AND
000343:                                                                                                 #                    N+1  N                                 N
000344:                                                                                                 #  THE ENTRY -(T   - TD + 1) IS TO BE INSERTED IMMEDIATELY FOLLOWING.
000345:                                                                                                 #               N+1
000346:
000347: 01,3374           54064        WTLST2            TS       WAITTEMP                              #  C(A) = -(TD - T + 1)
000348: 01,3375           50002                          INDEX    Q
000349:                                                                                                 #  Was CAF --- RSB 2009.
000350: 01,3376           30000                          CA       0
000351: 01,3377           54002                          TS       Q                                     #  INDEX VALUE INTO Q.
000352:
000353: 01,3400           34753                          CAF      ONE
000354: 01,3401           60064                          AD       WAITTEMP
000355: 01,3402           50002                          INDEX    Q                                     #  C(A) = -(TD - T ) + 1.
000356: 01,3403           27377                          ADS      LST1       -1                         #                 N
000357:
000358: 01,3404           40064                          CS       WAITTEMP
000359: 01,3405           50002                          INDEX    Q
000360: 01,3406           13260                          TCF      WTLST4
000361:
000362:                                                                                                 #         C(TIME3)        =       1.0 - (T1 - T)
000363:
000364:                                                                                                 #         C(LST1)         =       - (T2 - T1) + 1
000365:                                                                                                 #         C(LST1+1)       =       - (T3 - T2) + 1
000366:                                                                                                 #         C(LST1+2)       =       - (T4 - T3) + 1
000367:                                                                                                 #         C(LST1+3)       =       - (T5 - T4) + 1
000368:                                                                                                 #         C(LST1+4)       =       - (T6 - T5) + 1
000369:
000370:                                                                                                 #         C(LST2)         =       2CADR TASK1
000371:                                                                                                 #         C(LST2+2)       =       2CADR TASK2
000372:                                                                                                 #         C(LST2+4)       =       2CADR TASK3
000373:                                                                                                 #         C(LST2+6)       =       2CADR TASK4
000374:                                                                                                 #         C(LST2+8)       =       2CADR TASK5
000375:                                                                                                 #         C(LST2+10)      =       2CADR TASK6
000376:
000377:                                                                                                 #  Page 1128
000378:                                                                                                 #  ENTERS HERE ON T3 RUPT TO DISPATCH WAITLISTED TASK.
000379:
000380: 01,3407           00006        T3RUPT            EXTEND
000381: 01,3410           04007                          ROR      SUPERBNK                              #  READ CURRENT SUPERBANK VALUE AND
000382: 01,3411           54016                          TS       BANKRUPT                              #  SAVE WITH E AND F BANK VALUES.
000383: 01,3412           00006                          EXTEND
000384: 01,3413           22012                          QXCH     QRUPT
000385:
000386: 01,3414           34734        T3RUPT2           CAF      NEG1/2                                #  DISPATCH WAITLIST TASK.
000387: 01,3415           57407                          XCH      LST1       +7
000388: 01,3416           57406                          XCH      LST1       +6
000389: 01,3417           57405                          XCH      LST1       +5
000390: 01,3420           57404                          XCH      LST1       +4                         #  1. MOVE UP LST1 CONTENTS, ENTERING
000391: 01,3421           57403                          XCH      LST1       +3                         #     A VALUE OF 1/2 +1 AT THE BOTTOM
000392: 01,3422           57402                          XCH      LST1       +2                         #     FOR T6-T5, CORRESPONDING TO THE
000393: 01,3423           57401                          XCH      LST1       +1                         #     INTERVAL 81.91 SEC FOR ENDTASK.
000394: 01,3424           57400                          XCH      LST1
000395: 01,3425           64733                          AD       POSMAX                                #  2. SET T3 = 1.0 - T2 - T USING LIST 1.
000396: 01,3426           26026                          ADS      TIME3                                 #     SO T3 WON'T TICK DURING UPDATE.
000397: 01,3427           54734                          TS       RUPTAGN
000398: 01,3430           44755                          CS       ZERO
000399: 01,3431           54734                          TS       RUPTAGN                               #  SETS RUPTAGN TO +1 ON OVERFLOW.
000400:
000401: 01,3432           00006                          EXTEND                                         #  DISPATCH TASK.
000402: 01,3433           45237                          DCS      ENDTASK
000403: 01,3434           53431                          DXCH     LST2       +16D
000404: 01,3435           53427                          DXCH     LST2       +14D
000405: 01,3436           53425                          DXCH     LST2       +12D
000406: 01,3437           53423                          DXCH     LST2       +10D
000407: 01,3440           53421                          DXCH     LST2       +8D
000408: 01,3441           53417                          DXCH     LST2       +6
000409: 01,3442           53415                          DXCH     LST2       +4
000410: 01,3443           53413                          DXCH     LST2       +2
000411: 01,3444           53411                          DXCH     LST2
000412:
000413: 01,3445           56001                          XCH      L
000414: 01,3446           00006                          EXTEND
000415: 01,3447           01007                          WRITE    SUPERBNK                              #  SET SUPERBANK FROM BBCON OF 2CADR
000416: 01,3450           56001                          XCH      L                                     #  RESTORE TO L FOR DXCH Z.
000417: 01,3451           52006                          DTCB
000418:
000419:                                                                                                 #  Page 1129
000420:                                                                                                 #  RETURN, AFTER EXECUTION OF T3 OVERFLOW TASK:
000421:
000422:    5261                                          BLOCK    02
000423:    5261                                          COUNT*   $$/WAIT
000424:    5261           10734        TASKOVER          CCS      RUPTAGN                               #  IF +1 RETURN TO T3RUPT, IF -0 RESUME.
000425:    5262           35220                          CAF      WAITBB
000426:    5263           54006                          TS       BBANK
000427:    5264           13414                          TCF      T3RUPT2                               #  DISPATCH NEXT TASK IF IT WAS DUE.
000428:
000429:    5265           30016                          CA       BANKRUPT
000430:    5266           00006                          EXTEND
000431:    5267           01007                          WRITE    SUPERBNK                              #  RESTORE SUPERBANK BEFORE RESUME IS DONE
000432:
000433:    5270           00006        RESUME            EXTEND
000434:    5271           22012                          QXCH     QRUPT
000435:    5272           30016        NOQRSM            CA       BANKRUPT
000436:    5273           56006                          XCH      BBANK
000437:    5274           52011        NOQBRSM           DXCH     ARUPT
000438:    5275           00003                          RELINT
000439:    5276           50017                          RESUME
000440:
000441:                                                                                                 #  Page 1130
000442:                                                                                                 #  LONGCALL
000443:                                                                                                 #  PROGRAM DESCRIPTION                            DATE -- 17 MARCH 1967
000444:                                                                                                 #  PROGRAM WRITTEN BY W.H.VANDEVER                LOG SECTION WAITLIST
000445:                                                                                                 #  MOD BY -- R. MELANSON TO ADD DOCUMENTATION     ASSEMBLY SUNDISK REV. 100
000446:
000447:                                                                                                 #  FUNCTIONAL DESCRIPTION --
000448:                                                                                                 #         LONGCALL IS CALLED WITH THE DELTA TIME ARRIVING IN A,L SCALED AS TIME2,TIME1 WITH THE 2CADR OF THE TASK
000449:                                                                                                 #         IMMEDIATELY FOLLOWING THE TC LONGCALL.  FOR EXAMPLE, IT MIGHT BE DONE AS FOLLOWS WHERE TIMELOC IS THE NAME OF
000450:                                                                                                 #         A DP REGISTER CONTAINING A DELTA TIME AND WHERE TASKTODO IS THE NAME OF THE LOCATION AT WHICH LONGCALL IS TO
000451:                                                                                                 #         START.
000452:                                                                                                 #  CALLING SEQUENCE --
000453:                                                                                                 #                 EXTEND
000454:                                                                                                 #                 DCA     TIMELOC
000455:                                                                                                 #                 TC      LONGCALL
000456:                                                                                                 #                 2CADR   TASKTODO
000457:                                                                                                 #  NORMAL EXIT MODE --
000458:                                                                                                 #         1)      TC      WAITLIST
000459:                                                                                                 #         2)      DTCB    (TC L+3 OF CALLING ROUTINE 1ST PASS THRU LONGCYCL)
000460:                                                                                                 #         3)      DTCB    (TO TASKOVER ON SUBSEQUENT PASSES THRU LONGCYCL)
000461:                                                                                                 #  ALARM OR ABORT EXIT MODE --
000462:                                                                                                 #         NONE
000463:                                                                                                 #  OUTPUT --
000464:                                                                                                 #         LONGTIME AND LONGTIME+1 = DELTA TIME
000465:                                                                                                 #         LONGEXIT AND LONGEXIT+1 = RETURN 2CADR
000466:                                                                                                 #         LONGCADR AND LONGCADR+1 = TASK 2CADR
000467:                                                                                                 #         A = SINGLE PRECISION TIME FOR WAITLIST
000468:                                                                                                 #  ERASABLE INITIALIZATION --
000469:                                                                                                 #         A = MOST SIGNIFICANT PART OF DELTA TIME
000470:                                                                                                 #         L = LEAST SIGNIFICANT PART OF DELTA TIME
000471:                                                                                                 #         Q = ADDRESS OF 2CADR TASK VALUE
000472:                                                                                                 #  DEBRIS --
000473:                                                                                                 #         A,Q,L
000474:                                                                                                 #         LONGCADR AND LONGCADR+1
000475:                                                                                                 #         LONGEXIT AND LONGEXIT+1
000476:                                                                                                 #         LONGTIME AND LONGTIME+1
000477:                                                                                                 #  *** THE FOLLOWING IS TO BE IN FIXED-FIXED AND UNSWITCHED ERASIBLE **
000478:
000479:    5277                                          BLOCK    02
000480:    5277  E3,1400                                 EBANK=   LST1
000481:    5277           53154        LONGCALL          DXCH     LONGTIME                              #  OBTAIN THE DELTA TIME
000482:
000483:    5300           00006                          EXTEND                                         #  OBTAIN THE 2CADR
000484:                                                                                                 #  Page 1131
000485:    5301           50002                          NDX      Q
000486:    5302           30001                          DCA      0
000487:    5303           53150                          DXCH     LONGCADR
000488:
000489:    5304           00006                          EXTEND                                         #  NOW GO TO THE APPROPRIATE SWITCHED BANK
000490:    5305           35310                          DCA      LGCL2CDR                              #  FOR THE REST OF LONGCALL
000491:    5306           52006                          DTCB
000492:
000493:    5307  E3,1400                                 EBANK=   LST1
000494:    5307           03452 02063  LGCL2CDR          2CADR    LNGCALL2
000495:
000496:                                                                                                 #  *** THE FOLLOWING MAY BE IN A SWITCHED BANK, INCLUDING ITS ERASABLE ***
000497:
000498: 01,3452                                          BANK     01
000499: 01,3452                                          COUNT*   $$/WAIT
000500: 01,3452           23435        LNGCALL2          LXCH     LONGEXIT   +1                         #  SAVE THE CORRECT BB FOR RETURN
000501: 01,3453           34752                          CA       TWO                                   #  OBTAIN THE RETURN ADDRESS
000502: 01,3454           26002                          ADS      Q
000503: 01,3455           55434                          TS       LONGEXIT
000504:
000505: 01,3456           31153                          CA       LONGTIME                              #  CHECK FOR LEGITIMATE DELTA-TIME
000506: 01,3457           10000                          CCS      A
000507: 01,3460           13466                          TCF      LONGCYCL                              #  HI-ORDER OK --> ALL IS OK.
000508: 01,3461           13463                          TCF      +2                                    #  HI-ORDER ZERO --> CHECK LO-ORDER.
000509: 01,3462           13521                          TCF      LONGP00H                              #  HI-ORDER NEG. --> NEG. DT
000510: 01,3463           31154                 +2       CA       LONGTIME   +1                         #  CHECK LO-ORDER FOR ZERO OR NEGATIVE.
000511: 01,3464           00006                          EXTEND
000512: 01,3465           63521                          BZMF     LONGP00H                              #  BAD DELTA-TIME.  ABORT
000513:
000514:                                                                                                 #  *** WAITLIST TASK LONGCYCL ***
000515:
000516: 01,3466           00006        LONGCYCL          EXTEND                                         #  CAN WE SUCCESFULLY TAKE ABOUT 1.25
000517: 01,3467           43500                          DCS      DPBIT14                               #  MINUTES OFF OF LONGTIME
000518: 01,3470           21154                          DAS      LONGTIME
000519:
000520: 01,3471           11154                          CCS      LONGTIME   +1                         #  THE REASONING BEHIND THIS PART IS
000521: 01,3472           13511                          TCF      MUCHTIME                              #  INVOLVED, TAKING INTO ACCOUNT THAT THE
000522:                                                                                                 #  WORDS MAY NOT BE SIGNED CORRECTED (DP
000523:                                                                                                 #  BASIC INSTRUCTIONS
000524:                                                                                                 #  DO NOT SIGN CORRECT) AND THAT WE SUBTRAC-
000525:                                                                                                 #  TED BIT14 (1 OVER HALF THE POS. VALUE
000526:                                                                                                 #  REPRESENTABLE IN SINGLE WORD)
000527: 01,3473           13474                          NOOP                                           #  CAN'T GET HERE *************
000528: 01,3474           13475                          TCF      +1
000529: 01,3475           11153                          CCS      LONGTIME
000530: 01,3476           13511                          TCF      MUCHTIME
000531: 01,3477           00000        DPBIT14           OCT      00000
000532: 01,3500           20000                          OCT      20000
000533:
000534:                                                                                                 #  LONGCALL
000535:                                                                                                 #  Page 1132
000536: 01,3501           34736        LASTTIME          CA       BIT14                                 #  GET BACK THE CORRECT DELTA T FOR WAITLIST
000537: 01,3502           27154                          ADS      LONGTIME   +1
000538: 01,3503           05203                          TC       WAITLIST
000539: 01,3504  E3,1400                                 EBANK=   LST1
000540: 01,3504           03516 02063                    2CADR    GETCADR                               #  THE ENTRY TO OUR LONGCADR
000541:
000542: 01,3506           33520        LONGRTRN          CA       TSKOVCDR                              #  SET IT UP SO THAT ONLY THE FIRST EXIT IS
000543: 01,3507           53435                          DXCH     LONGEXIT                              #  TO THE CALLER OF LONGCALL
000544: 01,3510           52006                          DTCB                                           #  THE REST ARE TO TASKOVER
000545:
000546: 01,3511           34736        MUCHTIME          CA       BIT14                                 #  WE HAVE OVER OUR ABOUT 1.25 MINUTES
000547: 01,3512           05203                          TC       WAITLIST                              #  SO SET UP FOR ANOTHER CYCLE THROUGH HERE
000548: 01,3513  E3,1400                                 EBANK=   LST1
000549: 01,3513           03466 02063                    2CADR    LONGCYCL
000550:
000551: 01,3515           13506                          TCF      LONGRTRN                              #  NOW EXIT PROPERLY
000552:
000553:                                                                                                 #  *** WAITLIST TASK GETCADR ***
000554:
000555: 01,3516           53150        GETCADR           DXCH     LONGCADR                              #  GET THE LONGCALL THAT WE WISHED TO START
000556: 01,3517           52006                          DTCB                                           #  AND TRANSFER CONTROL TO IT
000557:
000558: 01,3520           05261        TSKOVCDR          GENADR   TASKOVER
000559: 01,3521           53435        LONGP00H          DXCH     LONGEXIT
000560: 01,3522           13524                          TCF      +2
000561: 01,3523           52062        WAITP00H          DXCH     WAITEXIT
000562: 01,3524           05726                 +2       TC       P00DOO1
000563: 01,3525           01204                          OCT      01204
000564:

End of include-file WAITLIST.agc.  Parent file is MAIN.agc


