
Source Code


000002:                                                                                                  #  Copyright:    Public domain.
000003:                                                                                                  #  Filename:     WAITLIST.agc
000004:                                                                                                  #  Purpose:      Part of the source code for Luminary 1A build 099.
000005:                                                                                                  #                It is part of the source code for the Lunar Module's (LM)
000006:                                                                                                  #                Apollo Guidance Computer (AGC), for Apollo 11.
000007:                                                                                                  #  Assembler:    yaYUL
000008:                                                                                                  #  Contact:      Ron Burkey <info@sandroid.org>.
000009:                                                                                                  #  Website:      www.ibiblio.org/apollo.
000010:                                                                                                  #  Pages:        1117-1132
000011:                                                                                                  #  Mod history:  2009-05-25 RSB  Adapted from the corresponding
000012:                                                                                                  #                                Luminary131 file, using page
000013:                                                                                                  #                                images from Luminary 1A.
000014:                                                                                                  #                2011-01-06 JL   Fixed pseudo-label indentation.
000015:                                                                                                  #                2011-05-07 JL   Removed workarounds.
000016:
000017:                                                                                                  #  This source code has been transcribed or otherwise adapted from
000018:                                                                                                  #  digitized images of a hardcopy from the MIT Museum.  The digitization
000019:                                                                                                  #  was performed by Paul Fjeld, and arranged for by Deborah Douglas of
000020:                                                                                                  #  the Museum.  Many thanks to both.  The images (with suitable reduction
000021:                                                                                                  #  in storage size and consequent reduction in image quality as well) are
000022:                                                                                                  #  available online at www.ibiblio.org/apollo.  If for some reason you
000023:                                                                                                  #  find that the images are illegible, contact me at info@sandroid.org
000024:                                                                                                  #  about getting access to the (much) higher-quality images which Paul
000025:                                                                                                  #  actually created.
000026:
000027:                                                                                                  #  Notations on the hardcopy document read, in part:
000028:
000029:                                                                                                  #        Assemble revision 001 of AGC program LMY99 by NASA 2021112-61
000030:                                                                                                  #        16:27 JULY 14, 1969
000031:
000032:                                                                                                  #  Page 1117
000033:                                                                                                  #  PROGRAM DESCRIPTION                                                           DATE -- 10 OCTOBER 1966
000034:                                                                                                  #  MOD NO -- 2                                                                   LOG SECTION -- WAITLIST
000035:                                                                                                  #  MOD BY -- MILLER      (DTMAX INCREASED TO 162.5 SEC)                          ASSEMBLY -- SUNBURST REV 5
000036:                                                                                                  #  MOD 3 BY KERNAN       (INHINT INSERTED AT WAITLIST) 2/28/68 SKIPPER REV 4
000037:                                                                                                  #  MOD 4 BY KERNAN       (TWIDDLE IN 54) 3/28/68 SKIPPER REV 13.
000038:
000039:                                                                                                  #  FUNCTIONAL DESCRIPTION --
000040:                                                                                                  #        PART OF A SECTION OF PROGRAMS -- WAITLIST, TASKOVER, T3RUPT, USED TO CALL A PROGRAM (CALLED A TASK),
000041:                                                                                                  #        WHICH IS TO BEGIN IN C(A) CENTISECONDS.  WAITLIST UPDATES TIME3, LST1, AND LST2.  THE MEANING OF THESE LISTS
000042:                                                                                                  #        FOLLOW.
000043:
000044:                                                                                                  #                C(TIME3) = 16384 -(T1-T) CENTISECONDS, (T=PRESENT TIME, T1-TIME FOR TASK1)
000045:
000046:                                                                                                  #                        C(LST1)         =       -(T2-T1)+1
000047:                                                                                                  #                        C(LST1 +1)      =       -(T3-T2)+1
000048:                                                                                                  #                        C(LST1 +2)      =       -(T4-T3)+1
000049:                                                                                                  #                                       ...
000050:                                                                                                  #                        C(LST1 +6)      =       -(T8-T7)+1
000051:                                                                                                  #                        C(LST1 +7)      =       -(T9-T8)+1
000052:
000053:                                                                                                  #                        C(LST2)         =       2CADR OF TASK1
000054:                                                                                                  #                        C(LST2 +2)      =       2CADR OF TASK2
000055:                                                                                                  #                                       ...
000056:                                                                                                  #                        C(LST2 +14)     =       2CADR OF TASK8
000057:                                                                                                  #                        C(LST2 +16)     =       2CADR OF TASK9
000058:
000059:                                                                                                  #  WARNINGS --
000060:                                                                                                  #        1)      1 <= C(A) <= 16250D (1 CENTISECOND TO 162.5 SEC)
000061:                                                                                                  #        2)      9 TASKS MAXIMUM
000062:                                                                                                  #        3)      TASKS CALLED UNDER INTERRUPT INHIBITED
000063:                                                                                                  #        4)      TASKS END BY TC TASKOVER
000064:
000065:                                                                                                  #  CALLING SEQUENCE --
000066:                                                                                                  #        L-1     CA      DELTAT  (TIME IN CENTISECONDS TO TASK START)
000067:                                                                                                  #        L       TC      WAITLIST
000068:                                                                                                  #        L+1     2CADR   DESIRED TASK.
000069:                                                                                                  #        L+2     (MINOR OF 2CADR)
000070:                                                                                                  #        L+3     RELINT          (RETURNS HERE)
000071:
000072:                                                                                                  #  TWIDDLE --
000073:                                                                                                  #        TWIDDLE IS FOR USE WHEN THE TASK BEING SET UP IS IN THE SAME EBANK AND FBANK AS THE USER.  IN
000074:                                                                                                  #        SUCH CASES, IT IMPROVES UPON WAITLIST BY ELIMINATING THE NEED FOR THE BBCON HALF OF THE 2CADR,
000075:                                                                                                  #  Page 1118
000076:                                                                                                  #        SAVING A WORD.  TWIDDLE IS LIKE WAITLIST IN EVERY RESPECT EXCEPT CALLING SEQUENCE, TO WIT,
000077:                                                                                                  #                L-1     CA      DELTAT
000078:                                                                                                  #                L       TC      TWIDDLE
000079:                                                                                                  #                L+1     ADRES   DESIRED TASK
000080:                                                                                                  #                L+2     RELINT          (RETURNS HERE)
000081:
000082:                                                                                                  #  NORMAL EXIT MODES --
000083:                                                                                                  #        AT L+3 OF CALLING SEQUENCE.
000084:
000085:                                                                                                  #  ALARM OR ABORT EXIT MODES --
000086:                                                                                                  #        TC      ABORT
000087:                                                                                                  #        OCT     1203    (WAITLIST OVERFLOW -- TOO MANY TASKS)
000088:
000089:                                                                                                  #  ERASABLE INITIALIZATION REQUIRED --
000090:                                                                                                  #        ACCOMPLISHED BY FRESH START --  LST2, ..., LST2 +16 = ENDTASK
000091:                                                                                                  #                                        LST1, ..., LST1 +7  = NEG1/2
000092:
000093:                                                                                                  #  OUTPUT --
000094:                                                                                                  #        LST1 AND LST2 UPDATED WTIH NEW TASK AND ASSOCIATED TIME.
000095:
000096:                                                                                                  #  DEBRIS --
000097:                                                                                                  #        CENTRALS -- A,Q,L
000098:                                                                                                  #        OTHER    -- WAITEXIT, WAITADR, WAITTEMP, WAITBANK
000099:
000100:                                                                                                  #  DETAILED ANALYSIS OF TIMING --
000101:                                                                                                  #        CONTROL WILL NOT BE RETURNED TO THE SPECIFIED ADDRESS (2CADR) IN EXACTLY DELTA T CENTISECONDS.
000102:                                                                                                  #        THE APPROXIMATE TIME MAY BE CALCULATED AS FOLLOWS:
000103:                                                                                                  #                LET T0 = THE TIME OF THE TC WAITLIST
000104:                                                                                                  #                LET TS = T0 +147U + COUNTER INCREMENTS (SET UP TIME)
000105:                                                                                                  #                LET X  = TS -(100TS)/100  (VARIANCE FROM COUNTERS)
000106:                                                                                                  #                LET Y  = LENGTH OF TIME OF INHIBIT INTERRUPT AFTER T3RUPT
000107:                                                                                                  #                LET Z  = LENGTH OF TIME TO PROCESS TASKS WHICH ARE DUE THIS T3RUPT BUT DISPATCHED EARLIER.
000108:                                                                                                  #                         (Z=0, USUALLY).
000109:                                                                                                  #                LET DELTD  = THE ACTUAL TIME TAKEN TO GIVE CONTROL TO 2CADR
000110:                                                                                                  #                THEN DELTD = TS+DELTA T -X +Y +Z +1.05MS* +COUNTERS*
000111:                                                                                                  #                *THE TIME TAKEN BY WAITLIST ITSELF AND THE COUNTER TICKING DURING THIS WAITLIST TIME.
000112:                                                                                                  #        IN SHORT, THE ACTUAL TIME TO RETURN CONTROL TO A 2CADR IS AUGMENTED BY THE TIME TO SET UP THE TASK'S
000113:                                                                                                  #        INTERRUPT, ALL COUNTERS TICKING, THE T3RUPT PROCESSING TIME, THE WAITLIST PROCESSING TIME AND THE POSSIBILITY
000114:                                                                                                  #        OF OTHER TASKS INHIBITING THE INTERRUPT.
000115:
000116:    5173                                           BLOCK    02
000117:                                                                                                  #  Page 1119
000118:    5173  E3,1400                                  EBANK=   LST1                                  #  TASK LISTS IN SWITCHED E BANK.
000119:
000120:    5173                                           COUNT*   $$/WAIT
000121:    5173           00004        TWIDDLE            INHINT
000122:    5174           54001                           TS       L                                     #  SAVE DELAY TIME IN L
000123:    5175           34733                           CA       POSMAX
000124:    5176           26002                           ADS      Q                                     #  CREATING OVERFLOW AND Q-1 IN Q
000125:    5177           30006                           CA       BBANK
000126:    5200           00006                           EXTEND
000127:    5201           04007                           ROR      SUPERBNK
000128:    5202           56001                           XCH      L
000129:
000130:    5203           00004        WAITLIST           INHINT
000131:    5204           56002                           XCH      Q                                     #  SAVE DELTA T IN Q AND RETURN IN
000132:    5205           54061                           TS       WAITEXIT                              #  WAITEXIT.
000133:    5206           00006                           EXTEND
000134:    5207           50061                           INDEX    WAITEXIT                              #  IF TWIDDLING, THE TS SKIPS TO HERE
000135:    5210           30001                           DCA      0                                     #  PICK UP 2CADR OF TASK.
000136:    5211           54063                 -1        TS       WAITADR                               #  BBCON WILL REMAIN IN L
000137:    5212           35220        DLY2               CAF      WAITBB                                #  ENTRY FROM FIXDELAY AND VARDELAY.
000138:    5213           56006                           XCH      BBANK
000139:    5214           13231                           TCF      WAIT2
000140:
000141:                                                                                                  #  RETURN TO CALLER AFTER TASK INSERTION:
000142:
000143:    5215           52062        LVWTLIST           DXCH     WAITEXIT
000144:    5216           64752                           AD       TWO
000145:    5217           52006                           DTCB
000146:
000147:    5220  E3,1400                                  EBANK=   LST1
000148:    5220           02063        WAITBB             BBCON    WAIT2
000149:
000150:                                                                                                  #  RETURN TO CALLER +2 AFTER WAITING DT SPECIFIED AT CALLER +1.
000151:
000152:    5221           50002        FIXDELAY           INDEX    Q                                     #  BOTH ROUTINES MUST BE CALLED UNDER
000153:    5222           30000                           CAF      0                                     #  WAITLIST CONTROL AND TERMINATE THE TASK
000154:    5223           24002                           INCR     Q                                     #  IN WHICH THEY WERE CALLED.
000155:
000156:                                                                                                  #  RETURN TO CALLER +1 AFTER WAITING THE DT AS ARRIVING IN A.
000157:
000158:    5224           56002        VARDELAY           XCH      Q                                     #  DT TO Q.  TASK ADRES TO WAITADR.
000159:    5225           54063                           TS       WAITADR
000160:    5226           30006                           CA       BBANK                                 #  BBANK IS SAVED DURING DELAY.
000161:    5227           00006                           EXTEND
000162:    5230           04007                           ROR      SUPERBNK                              #  ADD SBANK TO BBCON.
000163:    5231           54001                           TS       L
000164:    5232           35235                           CAF      DELAYEX
000165:    5233           54061                           TS       WAITEXIT                              #  GO TO TASKOVER AFTER TASK ENTRY.
000166:    5234           15212                           TCF      DLY2
000167:
000168:                                                                                                  #  Page 1120
000169:    5235           15257        DELAYEX            TCF      TASKOVER   -2                         #  RETURNS TO TASKOVER.
000170:
000171:                                                                                                  #  Page 1121
000172:                                                                                                  #  ENDTASK MUST ENTERED IN FIXED-FIXED SO IT IS DISTINGUISHABLE BY ITS ADRES ALONE.
000173:
000174:    5236  E3,1400                                  EBANK=   LST1
000175:    5236           72537 73714  ENDTASK            -2CADR   SVCT3
000176:
000177:    5240           10076        SVCT3              CCS      FLAGWRD2                              #  DRIFT FLAG
000178:    5241           15261                           TCF      TASKOVER
000179:    5242           15261                           TCF      TASKOVER
000180:    5243           15244                           TCF      +1
000181:
000182:    5244           11304        CKIMUSE            CCS      IMUCADR                               #  DON'T DO NBDONLY IF SOMEONE ELSE IS IN
000183:    5245           15256                           TCF      SVCT3X                                #  IMUSTALL.
000184:    5246           15251                           TCF      +3
000185:    5247           15256                           TCF      SVCT3X
000186:    5250           15256                           TCF      SVCT3X
000187:
000188:    5251           37723                 +3        CAF      PRIO35                                #  COMPENSATE FOR NBD COEFFICIENTS ONLY.
000189:    5252           05072                           TC       NOVAC                                 #        ENABLE EVERY 81.93 SECONDS
000190:    5253  E3,1460                                  EBANK=   NBDX
000191:    5253           03555 14063                     2CADR    NBDONLY
000192:
000193:    5255           15261                           TCF      TASKOVER
000194:
000195:    5256           05221        SVCT3X             TC       FIXDELAY                              #  DELAY MAX OF 2 TIMES FOR IMUZERO.
000196:    5257           00764                           DEC      500        B-14
000197:    5260           05240                           TC       SVCT3                                 #  CHECK DRIFT FLAG AGAIN.
000198:
000199:                                                                                                  #  Page 1122
000200:                                                                                                  #  BEGIN TASK INSERTION.
000201:
000202: 01,3231                                           BANK     01
000203: 01,3231                                           COUNT*   $$/WAIT
000204: 01,3231           54062        WAIT2              TS       WAITBANK                              #  BBANK OF CALLING PROGRAM.
000205: 01,3232           30002                           CA       Q
000206: 01,3233           00006                           EXTEND
000207: 01,3234           63523                           BZMF     WAITP00H
000208:
000209: 01,3235           40026                           CS       TIME3
000210: 01,3236           64744                           AD       BIT8                                  #  BIT 8 = OCT 200
000211: 01,3237           10000                           CCS      A                                     #  TEST 200 - C(TIME3).  IF POSITIVE,
000212:                                                                                                  #  IT MEANS THAT TIME3 OVERFLOW HAS OCCURRED PRIOR TO CS TIME3 AND THAT
000213:                                                                                                  #  C(TIME3) = T - T1, INSTEAD OF 1.0 - (T1 - T).  THE FOLLOWING FOUR
000214:                                                                                                  #  ORDERS SET C(A) = TD - T1 + 1 IN EITHER CASE.
000215:
000216: 01,3240           66107                           AD       OCT40001                              #  OVERFLOW HAS OCCURRED.  SET C(A) =
000217: 01,3241           40000                           CS       A                                     #  T - T1 + 1.0 - 201
000218:
000219:                                                                                                  #  NORMAL CASE (C(A) NNZ) YIELDS SAME C(A):  -( -(1.0-(T1-T)) + 200) - 1
000220:
000221: 01,3242           63370                           AD       OCT40201
000222: 01,3243           60002                           AD       Q                                     #  RESULT = TD - T1 + 1.
000223:
000224: 01,3244           10000                           CCS      A                                     #  TEST TD - T1 + 1.
000225:
000226: 01,3245           61400                           AD       LST1                                  #  IF TD - T1 POS, GO TO WTLST5 WITH
000227: 01,3246           13310                           TCF      WTLST5                                #  C(A) = (TD - T1) + C(LST1) = TD-T2+1
000228:
000229: 01,3247           13250                           NOOP
000230: 01,3250           40002                           CS       Q
000231:
000232:                                                                                                  #  NOTE THAT THIS PROGRAM SECTION IS NEVER ENTERED WHEN T-T1 G/E -1,
000233:                                                                                                  #  SINCE TD-T1+1 = (TD-T) + (T-T1+1), AND DELTA T = TD-T G/E +1.  (G/E
000234:                                                                                                  #  SYMBOL MEANS GREATER THAN OR EQUAL TO).  THUS THERE NEED BE NO CON-
000235:                                                                                                  #  CERN OVER A PREVIOUS OR IMMINENT OVEFLOW OF TIME3 HERE.
000236:
000237: 01,3251           64736                           AD       POS1/2                                #  WHEN TD IS NEXT, FORM QUANTITY
000238: 01,3252           64736                           AD       POS1/2                                #        1.0 - DELTA T = 1.0 - (TD - T)
000239: 01,3253           56026                           XCH      TIME3
000240: 01,3254           64735                           AD       NEGMAX
000241: 01,3255           60002                           AD       Q                                     #  1.0 - DELTAT T NOW COMPLETE.
000242: 01,3256           00006                           EXTEND                                         #  ZERO INDEX Q.
000243: 01,3257           22007                           QXCH     7                                     #  (ZQ)
000244:
000245:                                                                                                  #  Page 1123
000246: 01,3260           57400        WTLST4             XCH      LST1
000247: 01,3261           57401                           XCH      LST1       +1
000248: 01,3262           57402                           XCH      LST1       +2
000249: 01,3263           57403                           XCH      LST1       +3
000250: 01,3264           57404                           XCH      LST1       +4
000251: 01,3265           57405                           XCH      LST1       +5
000252: 01,3266           57406                           XCH      LST1       +6
000253: 01,3267           57407                           XCH      LST1       +7
000254:
000255: 01,3270           30063                           CA       WAITADR                               #  (MINOR PART OF TASK CADR HAS BEEN IN L.)
000256: 01,3271           50002                           INDEX    Q
000257: 01,3272           13273                           TCF      +1
000258:
000259: 01,3273           53411                           DXCH     LST2
000260: 01,3274           53413                           DXCH     LST2       +2
000261: 01,3275           53415                           DXCH     LST2       +4
000262: 01,3276           53417                           DXCH     LST2       +6
000263: 01,3277           53421                           DXCH     LST2       +8D
000264: 01,3300           53423                           DXCH     LST2       +10D                       #  AT END, CHECK THAT C(LST2 +10) IS STD
000265: 01,3301           53425                           DXCH     LST2       +12D
000266: 01,3302           53427                           DXCH     LST2       +14D
000267: 01,3303           53431                           DXCH     LST2       +16D
000268: 01,3304           65236                           AD       ENDTASK                               #  END ITEM, AS CHECK FOR EXCEEDING
000269:                                                                                                  #  THE LENGTH OF THE LIST.
000270: 01,3305           00006                           EXTEND                                         #  DUMMY TASK ADRES SHOULD BE IN FIXED-
000271: 01,3306           15215                           BZF      LVWTLIST                              #  FIXED SO ITS ADRES ALONE DISTINGUISHES
000272: 01,3307           13363                           TCF      WTABORT                               #  IT.
000273:
000274:                                                                                                  #  Page 1124
000275: 01,3310           10000        WTLST5             CCS      A                                     #  TEST TD - T2 + 1
000276: 01,3311           61401                           AD       LST1       +1
000277: 01,3312           13316                           TCF      +4
000278: 01,3313           64753                           AD       ONE
000279: 01,3314           03374                           TC       WTLST2
000280: 01,3315           00001                           OCT      1
000281:
000282: 01,3316           10000                 +4        CCS      A                                     #  TEST TD - T3 + 1
000283: 01,3317           61402                           AD       LST1       +2
000284: 01,3320           13324                           TCF      +4
000285: 01,3321           64753                           AD       ONE
000286: 01,3322           03374                           TC       WTLST2
000287: 01,3323           00002                           OCT      2
000288:
000289: 01,3324           10000                 +4        CCS      A                                     #  TEST TD - T4 + 1
000290: 01,3325           61403                           AD       LST1       +3
000291: 01,3326           13332                           TCF      +4
000292: 01,3327           64753                           AD       ONE
000293: 01,3330           03374                           TC       WTLST2
000294: 01,3331           00003                           OCT      3
000295:
000296: 01,3332           10000                 +4        CCS      A                                     #  TEST TD - T5 + 1
000297: 01,3333           61404                           AD       LST1       +4
000298: 01,3334           13340                           TCF      +4
000299: 01,3335           64753                           AD       ONE
000300: 01,3336           03374                           TC       WTLST2
000301: 01,3337           00004                           OCT      4
000302:
000303: 01,3340           10000                 +4        CCS      A                                     #  TEST TD - T6 + 1
000304: 01,3341           61405                           AD       LST1       +5
000305: 01,3342           13346                           TCF      +4
000306: 01,3343           64753                           AD       ONE
000307: 01,3344           03374                           TC       WTLST2
000308: 01,3345           00005                           OCT      5
000309:
000310: 01,3346           10000                 +4        CCS      A                                     #  TEST TD - T7 + 1
000311: 01,3347           61406                           AD       LST1       +6
000312: 01,3350           13354                           TCF      +4
000313: 01,3351           64753                           AD       ONE
000314: 01,3352           03374                           TC       WTLST2
000315: 01,3353           00006                           OCT      6
000316:
000317:                                                                                                  #  Page 1125
000318: 01,3354           10000                 +4        CCS      A                                     #  TEST TD - T2 + 1
000319: 01,3355           61407                           AD       LST1       +7
000320: 01,3356           13362                           TCF      +4
000321: 01,3357           64753                           AD       ONE
000322: 01,3360           03374                           TC       WTLST2
000323: 01,3361           00007                           OCT      7
000324:
000325: 01,3362           10000                 +4        CCS      A
000326: 01,3363           03371        WTABORT            TC       FILLED
000327: 01,3364           13365                           NOOP                                           #  CAN'T GET HERE
000328: 01,3365           64753                           AD       ONE
000329: 01,3366           03374                           TC       WTLST2
000330: 01,3367           00010                           OCT      10
000331:
000332: 01,3370           40201        OCT40201           OCT      40201
000333:
000334:                                                                                                  #  Page 1126
000335: 01,3371           52062        FILLED             DXCH     WAITEXIT
000336: 01,3372           05716                           TC       BAILOUT1                              #  NO ROOM IN THE INN
000337: 01,3373           01203                           OCT      01203
000338:
000339:                                                                                                  #  Page 1127
000340:                                                                                                  #  THE ENTRY TC WTLST2 JUST PRECEDING OCT N IS FOR T  LE TD LE T   -1.
000341:                                                                                                  #                                                   N           N+1
000342:                                                                                                  #  (LE MEANS LESS THAN OR EQUAL TO).  AT ENTRY, C(A) = -(TD - T   + 1)
000343:                                                                                                  #                                                              N+1
000344:                                                                                                  #  THE LST1 ENTRY -(T   -T +1) IS TO BE REPLACED BY -(TD - T  + 1), AND
000345:                                                                                                  #                    N+1  N                                 N
000346:                                                                                                  #  THE ENTRY -(T   - TD + 1) IS TO BE INSERTED IMMEDIATELY FOLLOWING.
000347:                                                                                                  #               N+1
000348:
000349: 01,3374           54064        WTLST2             TS       WAITTEMP                              #  C(A) = -(TD - T + 1)
000350: 01,3375           50002                           INDEX    Q
000351: 01,3376           30000                           CAF      0
000352: 01,3377           54002                           TS       Q                                     #  INDEX VALUE INTO Q.
000353:
000354: 01,3400           34753                           CAF      ONE
000355: 01,3401           60064                           AD       WAITTEMP
000356: 01,3402           50002                           INDEX    Q                                     #  C(A) = -(TD - T ) + 1.
000357: 01,3403           27377                           ADS      LST1       -1                         #                 N
000358:
000359: 01,3404           40064                           CS       WAITTEMP
000360: 01,3405           50002                           INDEX    Q
000361: 01,3406           13260                           TCF      WTLST4
000362:
000363:                                                                                                  #        C(TIME3)        =       1.0 - (T1 - T)
000364:
000365:                                                                                                  #        C(LST1)         =       - (T2 - T1) + 1
000366:                                                                                                  #        C(LST1+1)       =       - (T3 - T2) + 1
000367:                                                                                                  #        C(LST1+2)       =       - (T4 - T3) + 1
000368:                                                                                                  #        C(LST1+3)       =       - (T5 - T4) + 1
000369:                                                                                                  #        C(LST1+4)       =       - (T6 - T5) + 1
000370:
000371:                                                                                                  #        C(LST2)         =       2CADR TASK1
000372:                                                                                                  #        C(LST2+2)       =       2CADR TASK2
000373:                                                                                                  #        C(LST2+4)       =       2CADR TASK3
000374:                                                                                                  #        C(LST2+6)       =       2CADR TASK4
000375:                                                                                                  #        C(LST2+8)       =       2CADR TASK5
000376:                                                                                                  #        C(LST2+10)      =       2CADR TASK6
000377:
000378:                                                                                                  #  Page 1128
000379:                                                                                                  #  ENTERS HERE ON T3 RUPT TO DISPATCH WAITLISTED TASK.
000380:
000381: 01,3407           00006        T3RUPT             EXTEND
000382: 01,3410           04007                           ROR      SUPERBNK                              #  READ CURRENT SUPERBANK VALUE AND
000383: 01,3411           54016                           TS       BANKRUPT                              #  SAVE WITH E AND F BANK VALUES.
000384: 01,3412           00006                           EXTEND
000385: 01,3413           22012                           QXCH     QRUPT
000386:
000387: 01,3414           34734        T3RUPT2            CAF      NEG1/2                                #  DISPATCH WAITLIST TASK.
000388: 01,3415           57407                           XCH      LST1       +7
000389: 01,3416           57406                           XCH      LST1       +6
000390: 01,3417           57405                           XCH      LST1       +5
000391: 01,3420           57404                           XCH      LST1       +4                         #  1. MOVE UP LST1 CONTENTS, ENTERING
000392: 01,3421           57403                           XCH      LST1       +3                         #     A VALUE OF 1/2 +1 AT THE BOTTOM
000393: 01,3422           57402                           XCH      LST1       +2                         #     FOR T6-T5, CORRESPONDING TO THE
000394: 01,3423           57401                           XCH      LST1       +1                         #     INTERVAL 81.91 SEC FOR ENDTASK.
000395: 01,3424           57400                           XCH      LST1
000396: 01,3425           64733                           AD       POSMAX                                #  2. SET T3 = 1.0 - T2 - T USING LIST 1.
000397: 01,3426           26026                           ADS      TIME3                                 #     SO T3 WON'T TICK DURING UPDATE.
000398: 01,3427           54734                           TS       RUPTAGN
000399: 01,3430           44755                           CS       ZERO
000400: 01,3431           54734                           TS       RUPTAGN                               #  SETS RUPTAGN TO +1 ON OVERFLOW.
000401:
000402: 01,3432           00006                           EXTEND                                         #  DISPATCH TASK.
000403: 01,3433           45237                           DCS      ENDTASK
000404: 01,3434           53431                           DXCH     LST2       +16D
000405: 01,3435           53427                           DXCH     LST2       +14D
000406: 01,3436           53425                           DXCH     LST2       +12D
000407: 01,3437           53423                           DXCH     LST2       +10D
000408: 01,3440           53421                           DXCH     LST2       +8D
000409: 01,3441           53417                           DXCH     LST2       +6
000410: 01,3442           53415                           DXCH     LST2       +4
000411: 01,3443           53413                           DXCH     LST2       +2
000412: 01,3444           53411                           DXCH     LST2
000413:
000414: 01,3445           56001                           XCH      L
000415: 01,3446           00006                           EXTEND
000416: 01,3447           01007                           WRITE    SUPERBNK                              #  SET SUPERBANK FROM BBCON OF 2CADR
000417: 01,3450           56001                           XCH      L                                     #  RESTORE TO L FOR DXCH Z.
000418: 01,3451           52006                           DTCB
000419:
000420:                                                                                                  #  Page 1129
000421:                                                                                                  #  RETURN, AFTER EXECUTION OF T3 OVERFLOW TASK:
000422:
000423:    5261                                           BLOCK    02
000424:    5261                                           COUNT*   $$/WAIT
000425:    5261           10734        TASKOVER           CCS      RUPTAGN                               #  IF +1 RETURN TO T3RUPT, IF -0 RESUME.
000426:    5262           35220                           CAF      WAITBB
000427:    5263           54006                           TS       BBANK
000428:    5264           13414                           TCF      T3RUPT2                               #  DISPATCH NEXT TASK IF IT WAS DUE.
000429:
000430:    5265           30016                           CA       BANKRUPT
000431:    5266           00006                           EXTEND
000432:    5267           01007                           WRITE    SUPERBNK                              #  RESTORE SUPERBANK BEFORE RESUME IS DONE
000433:
000434:    5270           00006        RESUME             EXTEND
000435:    5271           22012                           QXCH     QRUPT
000436:    5272           30016        NOQRSM             CA       BANKRUPT
000437:    5273           56006                           XCH      BBANK
000438:    5274           52011        NOQBRSM            DXCH     ARUPT
000439:    5275           00003                           RELINT
000440:    5276           50017                           RESUME
000441:
000442:                                                                                                  #  Page 1130
000443:                                                                                                  #  LONGCALL
000444:                                                                                                  #  PROGRAM DESCRIPTION                           DATE -- 17 MARCH 1967
000445:                                                                                                  #  PROGRAM WRITTEN BY W.H.VANDEVER               LOG SECTION WAITLIST
000446:                                                                                                  #  MOD BY -- R. MELANSON TO ADD DOCUMENTATION    ASSEMBLY SUNDISK REV. 100
000447:
000448:                                                                                                  #  FUNCTIONAL DESCRIPTION --
000449:                                                                                                  #        LONGCALL IS CALLED WITH THE DELTA TIME ARRIVING IN A,L SCALED AS TIME2,TIME1 WITH THE 2CADR OF THE TASK
000450:                                                                                                  #        IMMEDIATELY FOLLOWING THE TC LONGCALL.  FOR EXAMPLE, IT MIGHT BE DONE AS FOLLOWS WHERE TIMELOC IS THE NAME OF
000451:                                                                                                  #        A DP REGISTER CONTAINING A DELTA TIME AND WHERE TASKTODO IS THE NAME OF THE LOCATION AT WHICH LONGCALL IS TO
000452:                                                                                                  #        START.
000453:                                                                                                  #  CALLING SEQUENCE --
000454:                                                                                                  #                EXTEND
000455:                                                                                                  #                DCA     TIMELOC
000456:                                                                                                  #                TC      LONGCALL
000457:                                                                                                  #                2CADR   TASKTODO
000458:                                                                                                  #  NORMAL EXIT MODE --
000459:                                                                                                  #        1)      TC      WAITLIST
000460:                                                                                                  #        2)      DTCB    (TC L+3 OF CALLING ROUTINE 1ST PASS THRU LONGCYCL)
000461:                                                                                                  #        3)      DTCB    (TO TASKOVER ON SUBSEQUENT PASSES THRU LONGCYCL)
000462:                                                                                                  #  ALARM OR ABORT EXIT MODE --
000463:                                                                                                  #        NONE
000464:                                                                                                  #  OUTPUT --
000465:                                                                                                  #        LONGTIME AND LONGTIME+1 = DELTA TIME
000466:                                                                                                  #        LONGEXIT AND LONGEXIT+1 = RETURN 2CADR
000467:                                                                                                  #        LONGCADR AND LONGCADR+1 = TASK 2CADR
000468:                                                                                                  #        A = SINGLE PRECISION TIME FOR WAITLIST
000469:                                                                                                  #  ERASABLE INITIALIZATION --
000470:                                                                                                  #        A = MOST SIGNIFICANT PART OF DELTA TIME
000471:                                                                                                  #        L = LEAST SIGNIFICANT PART OF DELTA TIME
000472:                                                                                                  #        Q = ADDRESS OF 2CADR TASK VALUE
000473:                                                                                                  #  DEBRIS --
000474:                                                                                                  #        A,Q,L
000475:                                                                                                  #        LONGCADR AND LONGCADR+1
000476:                                                                                                  #        LONGEXIT AND LONGEXIT+1
000477:                                                                                                  #        LONGTIME AND LONGTIME+1
000478:                                                                                                  #  *** THE FOLLOWING IS TO BE IN FIXED-FIXED AND UNSWITCHED ERASIBLE **
000479:
000480:    5277                                           BLOCK    02
000481:    5277  E3,1400                                  EBANK=   LST1
000482:    5277           53154        LONGCALL           DXCH     LONGTIME                              #  OBTAIN THE DELTA TIME
000483:
000484:    5300           00006                           EXTEND                                         #  OBTAIN THE 2CADR
000485:                                                                                                  #  Page 1131
000486:    5301           50002                           NDX      Q
000487:    5302           30001                           DCA      0
000488:    5303           53150                           DXCH     LONGCADR
000489:
000490:    5304           00006                           EXTEND                                         #  NOW GO TO THE APPROPRIATE SWITCHED BANK
000491:    5305           35310                           DCA      LGCL2CDR                              #  FOR THE REST OF LONGCALL
000492:    5306           52006                           DTCB
000493:
000494:    5307  E3,1400                                  EBANK=   LST1
000495:    5307           03452 02063  LGCL2CDR           2CADR    LNGCALL2
000496:
000497:                                                                                                  #  *** THE FOLLOWING MAY BE IN A SWITCHED BANK, INCLUDING ITS ERASABLE ***
000498:
000499: 01,3452                                           BANK     01
000500: 01,3452                                           COUNT*   $$/WAIT
000501: 01,3452           23435        LNGCALL2           LXCH     LONGEXIT   +1                         #  SAVE THE CORRECT BB FOR RETURN
000502: 01,3453           34752                           CA       TWO                                   #  OBTAIN THE RETURN ADDRESS
000503: 01,3454           26002                           ADS      Q
000504: 01,3455           55434                           TS       LONGEXIT
000505:
000506: 01,3456           31153                           CA       LONGTIME                              #  CHECK FOR LEGITIMATE DELTA-TIME
000507: 01,3457           10000                           CCS      A
000508: 01,3460           13466                           TCF      LONGCYCL                              #  HI-ORDER OK --> ALL IS OK.
000509: 01,3461           13463                           TCF      +2                                    #  HI-ORDER ZERO --> CHECK LO-ORDER.
000510: 01,3462           13521                           TCF      LONGP00H                              #  HI-ORDER NEG. --> NEG. DT
000511: 01,3463           31154                 +2        CA       LONGTIME   +1                         #  CHECK LO-ORDER FOR ZERO OR NEGATIVE.
000512: 01,3464           00006                           EXTEND
000513: 01,3465           63521                           BZMF     LONGP00H                              #  BAD DELTA-TIME.  ABORT
000514:
000515:                                                                                                  #  *** WAITLIST TASK LONGCYCL ***
000516:
000517: 01,3466           00006        LONGCYCL           EXTEND                                         #  CAN WE SUCCESFULLY TAKE ABOUT 1.25
000518: 01,3467           43500                           DCS      DPBIT14                               #  MINUTES OFF OF LONGTIME
000519: 01,3470           21154                           DAS      LONGTIME
000520:
000521: 01,3471           11154                           CCS      LONGTIME   +1                         #  THE REASONING BEHIND THIS PART IS
000522: 01,3472           13511                           TCF      MUCHTIME                              #  INVOLVED, TAKING INTO ACCOUNT THAT THE
000523:                                                                                                  #  WORDS MAY NOT BE SIGNED CORRECTED (DP
000524:                                                                                                  #  BASIC INSTRUCTIONS
000525:                                                                                                  #  DO NOT SIGN CORRECT) AND THAT WE SUBTRAC-
000526:                                                                                                  #  TED BIT14 (1 OVER HALF THE POS. VALUE
000527:                                                                                                  #  REPRESENTABLE IN SINGLE WORD)
000528: 01,3473           13474                           NOOP                                           #  CAN'T GET HERE *************
000529: 01,3474           13475                           TCF      +1
000530: 01,3475           11153                           CCS      LONGTIME
000531: 01,3476           13511                           TCF      MUCHTIME
000532: 01,3477           00000        DPBIT14            OCT      00000
000533: 01,3500           20000                           OCT      20000
000534:
000535:                                                                                                  #  LONGCALL
000536:                                                                                                  #  Page 1132
000537: 01,3501           34736        LASTTIME           CA       BIT14                                 #  GET BACK THE CORRECT DELTA T FOR WAITLIST
000538: 01,3502           27154                           ADS      LONGTIME   +1
000539: 01,3503           05203                           TC       WAITLIST
000540: 01,3504  E3,1400                                  EBANK=   LST1
000541: 01,3504           03516 02063                     2CADR    GETCADR                               #  THE ENTRY TO OUR LONGCADR
000542:
000543: 01,3506           33520        LONGRTRN           CA       TSKOVCDR                              #  SET IT UP SO THAT ONLY THE FIRST EXIT IS
000544: 01,3507           53435                           DXCH     LONGEXIT                              #  TO THE CALLER OF LONGCALL
000545: 01,3510           52006                           DTCB                                           #  THE REST ARE TO TASKOVER
000546:
000547: 01,3511           34736        MUCHTIME           CA       BIT14                                 #  WE HAVE OVER OUR ABOUT 1.25 MINUTES
000548: 01,3512           05203                           TC       WAITLIST                              #  SO SET UP FOR ANOTHER CYCLE THROUGH HERE
000549: 01,3513  E3,1400                                  EBANK=   LST1
000550: 01,3513           03466 02063                     2CADR    LONGCYCL
000551:
000552: 01,3515           13506                           TCF      LONGRTRN                              #  NOW EXIT PROPERLY
000553:
000554:                                                                                                  #  *** WAITLIST TASK GETCADR ***
000555:
000556: 01,3516           53150        GETCADR            DXCH     LONGCADR                              #  GET THE LONGCALL THAT WE WISHED TO START
000557: 01,3517           52006                           DTCB                                           #  AND TRANSFER CONTROL TO IT
000558:
000559: 01,3520           05261        TSKOVCDR           GENADR   TASKOVER
000560: 01,3521           53435        LONGP00H           DXCH     LONGEXIT
000561: 01,3522           13524                           TCF      +2
000562: 01,3523           52062        WAITP00H           DXCH     WAITEXIT
000563: 01,3524           05726                 +2        TC       P00DOO1
000564: 01,3525           01204                           OCT      01204
000565:

End of include-file WAITLIST.agc.  Parent file is MAIN.agc


