S214000000FFFFFFFFFFFFFFFF5F5F5F5FFFFFFFFF7B
S214000010FFFFFFFFFFFFFFFFFFFFFFFFFFFFFFFFEB
S214000020FDFDFDFDEFEFEFEFFFFFFFFFFFFFFFFF23
S214000030FFFFFFFFFFFFFFFFFFFFFFFFFFFFFFFFCB
S214000040FFFFFFFFFFFFFFFF5F5F5F5FFFFFFFFF3B
S214000050FFFFFFFFFFFFFFFFFFFFFFFFFFFFFFFFAB
S214000060FFFFFFFFFFFFFFFFFFFFFFFFFFFFFFFF9B
S214000070FFFFFFFFFFFFFFFFFFFFFFFFFFFFFFFF8B
S214000080FFFFFFFFFFFFFFFF5F5F5F5FFFFFFFFFFB
S214000090FFFFFFFFFFFFFFFFFFFFFFFFFFFFFFFF6B
S2140000A0FDFDFDFDFFFFFFFFFFFFFFFFFFFFFFFF63
S2140000B0FFFFFFFFFFFFFFFFFFFFFFFFFFFFFFFF4B
S2140000C0FFFFFFFFFFFFFFFFDFDFDFDFFFFFFFFFBB
S2140000D0FFFFFFFFFFFFFFFFFFFFFFFFFFFFFFFF2B
S2140000E0FFFFFFFFFFFFFFFFFFFFFFFFFFFFFFFF1B
S2140000F0FFFFFFFFFFFFFFFFFFFFFFFFFFFFFFFF0B
S214000100FFFFFFFFFFFFFFFFDFDFDFDF7F7F7F7F7A
S214000110FFFFFFFFFFFFFFFFFFFFFFFFFDFDFDFDF2
S214000120FFFFFFFFFFBFBFBFFFFFFFFFFFFFFFFF9A
S214000130FFFFFFFFFFFFFFFFFFFFFFFFFFFFFFFFCA
S214000140FFFFFFFFFFFFFFFF5F5F5F5FFFFFFFFF3A
S214000150FFFFFFFFFFFFFFFF7F7F7F7FFFFFFFFFAA
S214000160FDFDFDFDFFFFFFFFFFFFFFFFFFFFFFFFA2
S214000170FFFFFFFFFFFFFFFFFFFFFFFFFFFFFFFF8A
S214000180FFFFFFFFFFFFFFFFFFFFFFFFFFFFFFFF7A
S214000190FFFFFFFFFFFFFFFFFFFFFFFFFFFFFFFF6A
S2140001A0FFFFFFFFFFFFFFFFFFFFFFFFFFFFFFFF5A
S2140001B0FFFFFFFFFFFFFFFFFFFFFFFFFFFFFFFF4A
S2140001C0FFFFFFFFFFFFFFFFFFFFFFFFFFFFFFFF3A
S2140001D0FFFFFFFFFFFFFFFFFFFFFFFFFFFFFFFF2A
S2140001E0FFFFFFFFFFFFFFFFFFFFFFFFFFFFFFFF1A
S2140001F0FFFFFFFFFFFFFFFFFFFFFFFFFFFFFFFF0A
S214000200FFFFFFFFFFFFFFFFDFDFDFDFFFFFFFFF79
S214000210FFFFFFFFFFFFFFFFFFFFFFFFFFFFFFFFE9
S214000220FDFDFDFDFFFFFFFFFFFFFFFFFFFFFFFFE1
S214000230FFFFFFFFFFFFFFFFFFFFFFFFFFFFFFFFC9
S214000240FFFFFFFFFFFFFFFF5F5F5F5FFFFFFFFF39
S214000250FFFFFFFFFFFFFFFFFFFFFFFF7F7F7F7FA9
S214000260FDFDFDFDBFBFBFBFFFFFFFFFFFFFFFFFA1
S214000270FFFFFFFFFFFFFFFFFFFFFFFFFFFFFFFF89
S214000280FFFFFFFFFFFFFFFFFFFFFFFFFFFFFFFF79
S214000290FFFFFFFFFFFFFFFFFFFFFFFFFFFFFFFF69
S2140002A0FFFFFFFFFFFFFFFFFFFFFFFFFFFFFFFF59
S2140002B0FFFFFFFFFFFFFFFFFFFFFFFFFFFFFFFF49
S2140002C0FFFFFFFFFFFFFFFFDFDFDFDFFFFFFFFFB9
S2140002D0FFFFFFFFFFFFFFFFFFFFFFFFFFFFFFFF29
S2140002E0FFFFFFFFFFFFFFFFFFFFFFFFFFFFFFFF19
S2140002F0FFFFFFFFFFFFFFFFFFFFFFFFFFFFFFFF09
S214000300FFFFFFFFFFFFFFFFDFDFDFDFFDFDFDFD80
S214000310FFFFFFFFF7F7F7F7FFFFFFFFFFFFFFFF08
S214000320FDFDFDFDFFFFFFFFFFFFFFFFFFFFFFFFE0
S214000330FFFFFFFFFFFFFFFFFFFFFFFFFFFFFFFFC8
S214000340FFFFFFFFFFFFFFFFFFFFFFFFFFFFFFFFB8
S214000350FFFFFFFFFFFFFFFFFFFFFFFFFFFFFFFFA8
S214000360FFFFFFFFFFFFFFFFFFFFFFFFFFFFFFFF98
S214000370FFFFFFFFFFFFFFFFFFFFFFFFFFFFFFFF88
S214000380FFFFFFFFFFFFFFFF5F5F5F5FFFFFFFFFF8
S214000390FFFFFFFFFFFFFFFFFFFFFFFFFFFFFFFF68
S2140003A0FDFDFDFDFFFFFFFFFFFFFFFFFFFFFFFF60
S2140003B0FFFFFFFFFFFFFFFFFFFFFFFFFFFFFFFF48
S2140003C0FFFFFFFFFFFFFFFFFFFFFFFFFFFFFFFF38
S2140003D0FFFFFFFFFFFFFFFFFFFFFFFFFFFFFFFF28
S2140003E0FFFFFFFFFFFFFFFFFFFFFFFFFFFFFFFF18
S214000900FFFFFFFFFFFFFFFFDFDFDFDFFFFFFFFF72
S214000910FFFFFFFFFFFFFFFFFFFFFFFFFFFFFFFFE2
S2140009207D7DFDFDFFFF7F7FFFFFFFFFFFFFFFFFDA
S214000930FFFFFFFFFFFFFFFFFFFFFFFFFFFFFFFFC2
S214000940FFFFFFFFFFFFFFFF7F7F7F7FFFFFFFFFB2
S214000950FFFFBFBFFFFFFFFFFFFFFFFFFFFFFFFF22
S2140009607F7F7F7FFFFFBFBFFFFFFFFFFFFFFFFF12
S214000970FFFFFFFFFFFFFFFFFFFFFFFFFFFFFFFF82
S214000980FFFFFFFFFFFFFFFFFFFFFFFFFFFFFFFF72
S214000990FFFFFFFFFFFFFFFFFFFFFFFFFFFFFFFF62
S2140009A0FFFFFFFFFFFFFFFFFFFFFFFFFFFFFFFF52
S2140009B0FFFFFFFFFFFFFFFFFFFFFFFFFFFFFFFF42
S2140009C0FFFFFFFFFFFFFFFF5F5F5F5FFFFFFFFFB2
S2140009D0FFFFFFFFFFFFFFFF7F7F7F7FFFFFBFBFA2
S2140009E0FDFDFDFDFFFFFFFFFFFFFFFFFFFFFFFF1A
S2140009F0FFFFFFFFFFFFFFFFFFFFFFFFFFFFFFFF02
S214000A00FFFFFFFFFFFFFFFFDFDFDFDFFFFFFFFF71
S214000A10FFFFFFFFFFFFFFFFFFFFFFFFEFEFEFEF21
S214000A20FDFDFDFDFFFFFFFFFFFFFFFFFFFFFFFFD9
S214000A30FFFFFFFFFFFFFFFFFFFFFFFFFFFFFFFFC1
S214000A40FFFFFFFFFFFFFFFFDFDFDFDFFFFFFFFF31
S214000A506F6F6F6FBFBFBFBFFFFFFFFFFFFFFFFFE1
S214000A60FFFFFFFFFFFFEFEFFFFFFFFFFFFFFFFFB1
S214000A70FFFFFFFFFFFFFFFFFFFFFFFFFFFFFFFF81
S214000A80FFFFFFFFFFFFFFFF5F5F5F5FFFFFFFFFF1
S214000A90FFFFFFFFFFFFFFFFFFFFFFFFFFFFFFFF61
S214000AA0FDFDFDFDFFFFFFFFFFFFFFFFFFFFFFFF59
S214000AB0FFFFFFFFFFFFFFFFFFFFFFFFFFFFFFFF41
S214000AC0FFFFFFFFFFFFFFFFFFFFFFFFFFFFFFFF31
S214000AD0FFFFFFFFFFFFFFFFFFFFFFFFFFFFFFFF21
S214000AE0FFFFFFFFFFFFFFFFFFFFFFFFFFFFFFFF11
S214000AF0FFFFFFFFFFFFFFFFFFFFFFFFFFFFFFFF01
S214000B00FFFFFFFFFFFFFFFFDFDFDFDF7F7F7F7F70
S214000B10FFFFFFFFFFFFFFFFFFFFFFFFFFFFFFFFE0
S214000B20FDFDFDFDBFBFBFBFFFFFFFFFFFFFFFFFD8
S214000B30FFFFFFFFFFFFFFFFFFFFFFFFFFFFFFFFC0
S214000B40FFFFFFFFFFFFFFFFFFFFFFFFFFFFFFFFB0
S214000B50FFFFFFFFFFFFFFFFFFFFFFFFFFFFFFFFA0
S214000B60FFFFFFFFFFFFFFFFFFFFFFFFFFFFFFFF90
S214000B70FFFFFFFFFFFFFFFFFFFFFFFFFFFFFFFF80
S214000B80FFFFFFFFFFFFFFFF5F5F5F5FFFFFFFFFF0
S214000B90FFFFFFFFFFFFFFFFFFFFFFFFFFFFFFFF60
S214000BA0FDFDFDFDFFFFFFFFFFFFFFFFFFFFFFFF58
S214000BB0FFFFFFFFFFFFFFFFFFFFFFFFFFFFFFFF40
S214000BC0FFFFFFFFFFFFFFFFFFFFFFFFFFFFFFFF30
S214000BD0FFFFFFFFFFFFFFFFFFFFFFFFFFFFFFFF20
S214000BE0FFFFFFFFFFFFFFFFFFFFFFFFFFFFFFFF10
S214000BF0FFFFFFFFFFFFFFFFFFFFFFFFFFFFFFFF00
S214000C00FFFFFFFFFFFFFFFFDFDFDFDFFFFFFFFF6F
S214000C10FFFFFFFFFFFFFFFFFFFFFFFFFFFFFFFFDF
S214000C20FDFDFDFDFFFFFFFFFFFFFFFFFFFFFFFFD7
S214000C30FFFFFFFFFFFFFFFFFFFFFFFFFFFFFFFFBF
S214000C40FFFFFFFFFFFFFFFFFFFFFFFFFFFFFFFFAF
S214000C50FFFFFFFFFFFFFFFFFFFFFFFFFFFFFFFF9F
S214000C60FFFFFFFFFFFFFFFFFFFFFFFFFFFFFFFF8F
S214000C70FFFFFFFFFFFFFFFFFFFFFFFFFFFFFFFF7F
S214000C80FFFFFFFFFFFFFFFF5F5F5F5FFFFFFFFFEF
S214000C90FFFFFFFFFFFFFFFFFFFFFFFFFFFFFFFF5F
S214000CA0FDFDFDFDFFFFFFFFFFFFFFFFFFFFFFFF57
S214000CB0FFFFFFFFFFFFFFFFFFFFFFFFFFFFFFFF3F
S214000CC0FFFFFFFFFFFFFFFFFFFFFFFFFFFFFFFF2F
S214000CD0FFFFFFFFFFFFFFFFFFFFFFFFFFFFFFFF1F
S214000CE0FFFFFFFFFFFFFFFFFFFFFFFFFFFFFFFF0F
S214000CF0FFFFFFFFFFFFFFFFFFFFFFFFFFFFFFFFFF
S214000D00FFFFFFFFFFFFFFFFDFDFDFDFFDFDFDFD76
S214000D10FFFFFFFFFF7F7FFFFFFFFFFFFFFFFFFFDE
S214000D20FFFFFFFFFFFFFFFFFFFFFFFFFFFFFFFFCE
S214000D30FFFFFFFFFFFFFFFFFFFFFFFFFFFFFFFFBE
S214000D40FFFFFFFFFFFFFFFFFFFFFFFFFFFFFFFFAE
S214000D50FFFFFFFFFFFFFFFFFFFFFFFFFFFFFFFF9E
S214000D60FFFFFFFFFFFFFFFFFFFFFFFFFFFFFFFF8E
S214000D70FFFFFFFFFFFFFFFFFFFFFFFFFFFFFFFF7E
S214000D80FFFFFFFFFFFFFFFF5F5F5F5FFFFFFFFFEE
S214000D90FFFFFFFFFFFFFFFFFFFFFFFFFFFFFFFF5E
S214000DA0FDFDFDFDFFFFFFFFFFFFFFFFFFFFFFFF56
S214000DB0FFFFFFFFFFFFFFFFFFFFFFFFFFFFFFFF3E
S214000DC0FFFFFFFFFFFFFFFFFFFFFFFFFFFFFFFF2E
S214000DD0FFFFFFFFFFFFFFFFFFFFFFFFFFFFFFFF1E
S214000DE0FFFFFFFFFFFFFFFFFFFFFFFFFFFFFFFF0E
S214000DF0FFFFFFFFFFFFFFFFFFFFFFFFFFFFFFFFFE
S214000E00FFFFFFFFFFFFFFFFDFDFDFDF7F7F7F7F6D
S214000E10FFFFFFFFFFFFFFFFFFFFFFFFFFFFFFFFDD
S214000E20FDFDFDFDBFBFBFBFFFFFFFFFFFFFFFFFD5
S214000E30FFFFFFFFFFFFFFFFFFFFFFFFFFFFFFFFBD
S214000E40FFFFFFFFFFFFFFFFFFFFFFFFFFFFFFFFAD
S214000E50FFFFFFFFFFFFFFFFFFFFFFFFFFFFFFFF9D
S214000E60FFFFFFFFFFFFFFFFFFFFFFFFFFFFFFFF8D
S214000E70FFFFFFFFFFFFFFFFFFFFFFFFFFFFFFFF7D
S214000E80FFFFFFFFFFFFFFFF5F5F5F5FFFFFFFFFED
S214000E90FFFFFFFFFFFFFFFFFFFFFFFFFFFFFFFF5D
S214000EA0FDFDFDFDFFFFFFFFFFFFFFFFFFFFFFFF55
S214000EB0FFFFFFFFFFFFFFFFFFFFFFFFFFFFFFFF3D
S214000EC0FFFFFFFFFFFFFFFFFFFFFFFFFFFFFFFF2D
S214000ED0FFFFFFFFFFFFFFFFFFFFFFFFFFFFFFFF1D
S214000EE0FFFFFFFFFFFFFFFFFFFFFFFFFFFFFFFF0D
S214000EF0FFFFFFFFFFFFFFFFFFFFFFFFFFFFFFFFFD
S214000F00FFFFFFFFFFFFFFFFDFDFDFDFFFFFFFFF6C
S214000F10FFFFFFFF7F7F7F7FFFFFFFFFFFFFFFFFDC
S214000F20FDFDFDFDFFFFFFFFFFFFFFFFFFFFFFFFD4
S214000F30FFFFFFFFFFFFFFFFFFFFFFFFFFFFFFFFBC
S214000F40FFFFFFFFFFFFFFFFFFFFFFFFFFFFFFFFAC
S214000F50FFFFFFFFFFFFFFFFFFFFFFFFFFFFFFFF9C
S214000F60FFFFFFFFFFFFFFFFFFFFFFFFFFFFFFFF8C
S214000F70FFFFFFFFFFFFFFFFFFFFFFFFFFFFFFFF7C
S214000F80FFFFFFFFFFFFFFFF5F5F5F5FFFFFFFFFEC
S214000F90FFFFFFFFFFFFFFFFFFFFFFFFFFFFFFFF5C
S214000FA0FDFDFDFDFFFFFFFFFFFFFFFFFFFFFFFF54
S214000FB0FFFFFFFFFFFFFFFFFFFFFFFFFFFFFFFF3C
S214000FC0FFFFFFFFFFFFFFFFFFFFFFFFFFFFFFFF2C
S214000FD0FFFFFFFFFFFFFFFFFFFFFFFFFFFFFFFF1C
S214000FE0FFFFFFFFFFFFFFFFFFFFFFFFFFFFFFFF0C
S214000FF0FFFFFFFFFFFFFFFFFFFFFFFFFFFFFFFFFC
S214001000FFFFFFFFFFFFFFFFDFDFDFDFFFFFFFFF6B
S214001010FFFFFFFF7F7F7F7FFFFFFFFFBDBDBDBDE3
S214001020FFFFFFFFFDFDFDFDFBFBFBFBFEFEFEFEE7
S214001030FFFFFFFFFFFFFFFFFFFFFFFFFFFFFFFFBB
S214001040FFFFFFFFFFFFFFFFDFDFDFDFFFFFFFFF2B
S214001050FFFFFFFF7F7F7F7FFFFFFFFFBDBDBDBDA3
S214001060FFFFFFFFFDFDFDFDFBFBFBFBFEFEFEFEA7
S214001070FFFFFFFFFFFFFFFFFFFFFFFFFFFFFFFF7B
S214001080FFFFFFFFFFFFFFFFDFDFDFDFFFFFFFFFEB
S214001090FFFFFFFF7F7F7F7FFFFFFFFFBDBDBDBD63
S2140010A0FFFFFFFFFDFDFDFDFBFBFBFBFEFEFEFE67
S2140010B0FFFFFFFFFFFFFFFFFFFFFFFFFFFFFFFF3B
S2140010C0FFFFFFFFFFFFFFFFDFDFDFDFFFFFFFFFAB
S2140010D0FFFFFFFF7F7F7F7FFFFFFFFFBDBDBDBD23
S2140010E0FFFFFFFFFDFDFDFDFBFBFBFBFEFEFEFE27
S2140010F0FFFFFFFFFFFFFFFFFFFFFFFFFFFFFFFFFB
S214001100FFFFFFFFFFFFFFFFDFDFDFDFFFFFFFFF6A
S214001110FFFFFFFF7F7F7F7FFFFFFFFFBDBDBDBDE2
S214001120FFFFFFFFFDFDFDFDFBFBFBFBFEFEFEFEE6
S214001130FFFFFFFFFFFFFFFFFFFFFFFFFFFFFFFFBA
S214001140FFFFFFFFFFFFFFFFDFDFDFDFFFFFFFFF2A
S214001150FFFFFFFF7F7F7F7FFFFFFFFFBDBDBDBDA2
S214001160FFFFFFFFFDFDFDFDFBFBFBFBFEFEFEFEA6
S214001170FFFFFFFFFFFFFFFFFFFFFFFFFFFFFFFF7A
S214001180FFFFFFFFFFFFFFFFDFDFDFDFFFFFFFFFEA
S214001190FFFFFFFF7F7F7F7FFFFFFFFFBDBDBDBD62
S2140011A0FFFFFFFFFDFDFDFDFBFBFBFBFEFEFEFE66
S2140011B0FFFFFFFFFFFFFFFFFFFFFFFFFFFFFFFF3A
S2140011C0FFFFFFFFFFFFFFFFDFDFDFDFFFFFFFFFAA
S2140011D0FFFFFFFF7F7F7F7FFFFFFFFFBDBDBDBD22
S2140011E0FFFFFFFFFDFDFDFDFBFBFBFBFEFEFEFE26
S2140011F0FFFFFFFFFFFFFFFFFFFFFFFFFFFFFFFFFA
S214001200FFFFFFFFFFFFFFFFDFDFDFDFFFFFFFFF69
S214001210FFFFFFFF7F7F7F7FFFFFFFFFBDBDBDBDE1
S214001220FFFFFFFFFDFDFDFDFBFBFBFBFEFEFEFEE5
S214001230FFFFFFFFFFFFFFFFFFFFFFFFFFFFFFFFB9
S214001240FFFFFFFFFFFFFFFFDFDFDFDFFFFFFFFF29
S214001250FFFFFFFF7F7F7F7FFFFFFFFFBDBDBDBDA1
S214001260FFFFFFFFFDFDFDFDFBFBFBFBFEFEFEFEA5
S214001270FFFFFFFFFFFFFFFFFFFFFFFFFFFFFFFF79
S214001280FFFFFFFFFFFFFFFFDFDFDFDFFFFFFFFFE9
S214001290FFFFFFFF7F7F7F7FFFFFFFFFBDBDBDBD61
S2140012A0FFFFFFFFFDFDFDFDFBFBFBFBFEFEFEFE65
S2140012B0FFFFFFFFFFFFFFFFFFFFFFFFFFFFFFFF39
S2140012C0FFFFFFFFFFFFFFFFDFDFDFDFFFFFFFFFA9
S2140012D0FFFFFFFF7F7F7F7FFFFFFFFFBDBDBDBD21
S2140012E0FFFFFFFFFDFDFDFDFBFBFBFBFEFEFEFE25
S2140012F0FFFFFFFFFFFFFFFFFFFFFFFFFFFFFFFFF9
S214001300FFFFFFFFFFFFFFFFDFDFDFDFFFFFFFFF68
S214001310FFFFFFFF7F7F7F7FFFFFFFFFBDBDBDBDE0
S214001320FFFFFFFFFDFDFDFDFBFBFBFBFEFEFEFEE4
S214001330FFFFFFFFFFFFFFFFFFFFFFFFFFFFFFFFB8
S214001340FFFFFFFFFFFFFFFFDFDFDFDFFFFFFFFF28
S214001350FFFFFFFF7F7F7F7FFFFFFFFFBDBDBDBDA0
S214001360FFFFFFFFFDFDFDFDFBFBFBFBFEFEFEFEA4
S214001370FFFFFFFFFFFFFFFFFFFFFFFFFFFFFFFF78
S214001380FFFFFFFFFFFFFFFFDFDFDFDFFFFFFFFFE8
S214001390FFFFFFFF7F7F7F7FFFFFFFFFBDBDBDBD60
S2140013A0FFFFFFFFFDFDFDFDFBFBFBFBFEFEFEFE64
S2140013B0FFFFFFFFFFFFFFFFFFFFFFFFFFFFFFFF38
S2140013C0FFFFFFFFFFFFFFFFDFDFDFDFFFFFFFFFA8
S2140013D0FFFFFFFF7F7F7F7FFFFFFFFFBDBDBDBD20
S2140013E0FFFFFFFFFDFDFDFDFBFBFBFBFEFEFEFE24
S2140013F0FFFFFFFFFFFFFFFFFFFFFFFFFFFFFFFFF8
S214001400FFFFFFFFFFFFFFFFDFDFDFDFFFFFFFFF67
S214001410FFFFFFFF7F7F7F7FFFFFFFFFBDBDBDBDDF
S214001420FFFFFFFFFDFDFDFDFBFBFBFBFEFEFEFEE3
S214001430FFFFFFFFFFFFFFFFFFFFFFFFFFFFFFFFB7
S214001440FFFFFFFFFFFFFFFFDFDFDFDFFFFFFFFF27
S214001450FFFFFFFF7F7F7F7FFFFFFFFFBDBDBDBD9F
S214001460FFFFFFFFFDFDFDFDFBFBFBFBFEFEFEFEA3
S214001470FFFFFFFFFFFFFFFFFFFFFFFFFFFFFFFF77
S214001480FFFFFFFFFFFFFFFFDFDFDFDFFFFFFFFFE7
S214001490FFFFFFFF7F7F7F7FFFFFFFFFBDBDBDBD5F
S2140014A0FFFFFFFFFDFDFDFDFBFBFBFBFEFEFEFE63
S2140014B0FFFFFFFFFFFFFFFFFFFFFFFFFFFFFFFF37
S2140014C0FFFFFFFFFFFFFFFFDFDFDFDFFFFFFFFFA7
S2140014D0FFFFFFFF7F7F7F7FFFFFFFFFBDBDBDBD1F
S2140014E0FFFFFFFFFDFDFDFDFBFBFBFBFEFEFEFE23
S2140014F0FFFFFFFFFFFFFFFFFFFFFFFFFFFFFFFFF7
S214001500FFFFFFFFFFFFFFFFDFDFDFDFFFFFFFFF66
S214001510FFFFFFFF7F7F7F7FFFFFFFFFBDBDBDBDDE
S214001520FFFFFFFFFDFDFDFDFBFBFBFBFEFEFEFEE2
S214001530FFFFFFFFFFFFFFFFFFFFFFFFFFFFFFFFB6
S214001540FFFFFFFFFFFFFFFFDFDFDFDFFFFFFFFF26
S214001550FFFFFFFF7F7F7F7FFFFFFFFFBDBDBDBD9E
S214001560FFFFFFFFFDFDFDFDFBFBFBFBFEFEFEFEA2
S214001570FFFFFFFFFFFFFFFFFFFFFFFFFFFFFFFF76
S214001580FFFFFFFFFFFFFFFFDFDFDFDFFFFFFFFFE6
S214001590FFFFFFFF7F7F7F7FFFFFFFFFBDBDBDBD5E
S2140015A0FFFFFFFFFDFDFDFDFBFBFBFBFEFEFEFE62
S2140015B0FFFFFFFFFFFFFFFFFFFFFFFFFFFFFFFF36
S2140015C0FFFFFFFFFFFFFFFFDFDFDFDFFFFFFFFFA6
S2140015D0FFFFFFFF7F7F7F7FFFFFFFFFBDBDBDBD1E
S2140015E0FFFFFFFFFDFDFDFDFBFBFBFBFEFEFEFE22
S2140015F0FFFFFFFFFFFFFFFFFFFFFFFFFFFFFFFFF6
S214001600FFFFFFFFFFFFFFFFDFDFDFDFFFFFFFFF65
S214001610FFFFFFFF7F7F7F7FFFFFFFFFBDBDBDBDDD
S214001620FFFFFFFFFDFDFDFDFBFBFBFBFEFEFEFEE1
S214001630FFFFFFFFFFFFFFFFFFFFFFFFFFFFFFFFB5
S214001640FFFFFFFFFFFFFFFFDFDFDFDFFFFFFFFF25
S214001650FFFFFFFF7F7F7F7FFFFFFFFFBDBDBDBD9D
S214001660FFFFFFFFFDFDFDFDFBFBFBFBFEFEFEFEA1
S214001670FFFFFFFFFFFFFFFFFFFFFFFFFFFFFFFF75
S214001680FFFFFFFFFFFFFFFFDFDFDFDFFFFFFFFFE5
S214001690FFFFFFFF7F7F7F7FFFFFFFFFBDBDBDBD5D
S2140016A0FFFFFFFFFDFDFDFDFBFBFBFBFEFEFEFE61
S2140016B0FFFFFFFFFFFFFFFFFFFFFFFFFFFFFFFF35
S2140016C0FFFFFFFFFFFFFFFFDFDFDFDFFFFFFFFFA5
S2140016D0FFFFFFFF7F7F7F7FFFFFFFFFBDBDBDBD1D
S2140016E0FFFFFFFFFDFDFDFDFBFBFBFBFEFEFEFE21
S2140016F0FFFFFFFFFFFFFFFFFFFFFFFFFFFFFFFFF5
S214001700FFFFFFFFFFFFFFFFDFDFDFDFFFFFFFFF64
S214001710FFFFFFFF7F7F7F7FFFFFFFFFBDBDBDBDDC
S214001720FFFFFFFFFDFDFDFDFBFBFBFBFEFEFEFEE0
S214001730FFFFFFFFFFFFFFFFFFFFFFFFFFFFFFFFB4
S214001740FFFFFFFFFFFFFFFFDFDFDFDFFFFFFFFF24
S214001750FFFFFFFF7F7F7F7FFFFFFFFFBDBDBDBD9C
S214001760FFFFFFFFFDFDFDFDFBFBFBFBFEFEFEFEA0
S214001770FFFFFFFFFFFFFFFFFFFFFFFFFFFFFFFF74
S214001780FFFFFFFFFFFFFFFFDFDFDFDFFFFFFFFFE4
S214001790FFFFFFFF7F7F7F7FFFFFFFFFBDBDBDBD5C
S2140017A0FFFFFFFFFDFDFDFDFBFBFBFBFEFEFEFE60
S2140017B0FFFFFFFFFFFFFFFFFFFFFFFFFFFFFFFF34
S2140017C0FFFFFFFFFFFFFFFFDFDFDFDFFFFFFFFFA4
S2140017D0FFFFFFFF7F7F7F7FFFFFFFFFBDBDBDBD1C
S2140017E0FFFFFFFFFDFDFDFDFBFBFBFBFEFEFEFE20
S2140017F0FFFFFFFFFFFFFFFFFFFFFFFFFFFFFFFFF4
S214001800FFFFFFFFFFFFFFFFDFDFDFDFFFFFFFFF63
S214001810FFFFFFFF7F7F7F7FFFFFFFFFBDBDBDBDDB
S214001820FFFFFFFFFDFDFDFDFBFBFBFBFEFEFEFEDF
S214001830FFFFFFFFFFFFFFFFFFFFFFFFFFFFFFFFB3
S214001840FFFFFFFFFFFFFFFFDFDFDFDFFFFFFFFF23
S214001850FFFFFFFF7F7F7F7FFFFFFFFFBDBDBDBD9B
S214001860FFFFFFFFFDFDFDFDFBFBFBFBFEFEFEFE9F
S214001870FFFFFFFFFFFFFFFFFFFFFFFFFFFFFFFF73
S214001880FFFFFFFFFFFFFFFFDFDFDFDFFFFFFFFFE3
S214001890FFFFFFFF7F7F7F7FFFFFFFFFBDBDBDBD5B
S2140018A0FFFFFFFFFDFDFDFDFBFBFBFBFEFEFEFE5F
S2140018B0FFFFFFFFFFFFFFFFFFFFFFFFFFFFFFFF33
S2140018C0FFFFFFFFFFFFFFFFDFDFDFDFFFFFFFFFA3
S2140018D0FFFFFFFF7F7F7F7FFFFFFFFFBDBDBDBD1B
S2140018E0FFFFFFFFFDFDFDFDFBFBFBFBFEFEFEFE1F
S2140018F0FFFFFFFFFFFFFFFFFFFFFFFFFFFFFFFFF3
S214001900FFFFFFFFFFFFFFFFDFDFDFDFFFFFFFFF62
S214001910FFFFFFFF7F7F7F7FFFFFFFFFBDBDBDBDDA
S214001920FFFFFFFFFDFDFDFDFBFBFBFBFEFEFEFEDE
S214001930FFFFFFFFFFFFFFFFFFFFFFFFFFFFFFFFB2
S214001940FFFFFFFFFFFFFFFFDFDFDFDFFFFFFFFF22
S214001950FFFFFFFF7F7F7F7FFFFFFFFFBDBDBDBD9A
S214001960FFFFFFFFFDFDFDFDFBFBFBFBFEFEFEFE9E
S214001970FFFFFFFFFFFFFFFFFFFFFFFFFFFFFFFF72
S214001980FFFFFFFFFFFFFFFFDFDFDFDFFFFFFFFFE2
S214001990FFFFFFFF7F7F7F7FFFFFFFFFBDBDBDBD5A
S2140019A0FFFFFFFFFDFDFDFDFBFBFBFBFEFEFEFE5E
S2140019B0FFFFFFFFFFFFFFFFFFFFFFFFFFFFFFFF32
S2140019C0FFFFFFFFFFFFFFFFDFDFDFDFFFFFFFFFA2
S2140019D0FFFFFFFF7F7F7F7FFFFFFFFFBDBDBDBD1A
S2140019E0FFFFFFFFFDFDFDFDFBFBFBFBFEFEFEFE1E
S2140019F0FFFFFFFFFFFFFFFFFFFFFFFFFFFFFFFFF2
S214001A00FFFFFFFFFFFFFFFFDFDFDFDFFFFFFFFF61
S214001A10FFFFFFFF7F7F7F7FFFFFFFFFBDBDBDBDD9
S214001A20FFFFFFFFFDFDFDFDFBFBFBFBFEFEFEFEDD
S214001A30FFFFFFFFFFFFFFFFFFFFFFFFFFFFFFFFB1
S214001A40FFFFFFFFFFFFFFFFDFDFDFDFFFFFFFFF21
S214001A50FFFFFFFF7F7F7F7FFFFFFFFFBDBDBDBD99
S214001A60FFFFFFFFFDFDFDFDFBFBFBFBFEFEFEFE9D
S214001A70FFFFFFFFFFFFFFFFFFFFFFFFFFFFFFFF71
S214001A80FFFFFFFFFFFFFFFFDFDFDFDFFFFFFFFFE1
S214001A90FFFFFFFF7F7F7F7FFFFFFFFFBDBDBDBD59
S214001AA0FFFFFFFFFDFDFDFDFBFBFBFBFEFEFEFE5D
S214001AB0FFFFFFFFFFFFFFFFFFFFFFFFFFFFFFFF31
S214001AC0FFFFFFFFFFFFFFFFDFDFDFDFFFFFFFFFA1
S214001AD0FFFFFFFF7F7F7F7FFFFFFFFFBDBDBDBD19
S214001AE0FFFFFFFFFDFDFDFDFBFBFBFBFEFEFEFE1D
S214001AF0FFFFFFFFFFFFFFFFFFFFFFFFFFFFFFFFF1
S214001B00FFFFFFFFFFFFFFFFDFDFDFDFFFFFFFFF60
S214001B10FFFFFFFF7F7F7F7FFFFFFFFFBDBDBDBDD8
S214001B20FFFFFFFFFDFDFDFDFBFBFBFBFEFEFEFEDC
S214001B30FFFFFFFFFFFFFFFFFFFFFFFFFFFFFFFFB0
S214001B40FFFFFFFFFFFFFFFFDFDFDFDFFFFFFFFF20
S214001B50FFFFFFFF7F7F7F7FFFFFFFFFBDBDBDBD98
S214001B60FFFFFFFFFDFDFDFDFBFBFBFBFEFEFEFE9C
S214001B70FFFFFFFFFFFFFFFFFFFFFFFFFFFFFFFF70
S214001B80FFFFFFFFFFFFFFFFDFDFDFDFFFFFFFFFE0
S214001B90FFFFFFFF7F7F7F7FFFFFFFFFBDBDBDBD58
S214001BA0FFFFFFFFFDFDFDFDFBFBFBFBFEFEFEFE5C
S214001BB0FFFFFFFFFFFFFFFFFFFFFFFFFFFFFFFF30
S214001BC0FFFFFFFFFFFFFFFFDFDFDFDFFFFFFFFFA0
S214001BD0FFFFFFFF7F7F7F7FFFFFFFFFBDBDBDBD18
S214001BE0FFFFFFFFFDFDFDFDFBFBFBFBFEFEFEFE1C
S214001BF0FFFFFFFFFFFFFFFFFFFFFFFFFFFFFFFFF0
S214001C00FFFFFFFFFFFFFFFFDFDFDFDFFFFFFFFF5F
S214001C10FFFFFFFF7F7F7F7FFFFFFFFFBDBDBDBDD7
S214001C20FFFFFFFFFDFDFDFDFBFBFBFBFEFEFEFEDB
S214001C30FFFFFFFFFFFFFFFFFFFFFFFFFFFFFFFFAF
S214001C40FFFFFFFFFFFFFFFFDFDFDFDFFFFFFFFF1F
S214001C50FFFFFFFF7F7F7F7FFFFFFFFFBDBDBDBD97
S214001C60FFFFFFFFFDFDFDFDFBFBFBFBFEFEFEFE9B
S214001C70FFFFFFFFFFFFFFFFFFFFFFFFFFFFFFFF6F
S214001C80FFFFFFFFFFFFFFFFDFDFDFDFFFFFFFFFDF
S214001C90FFFFFFFF7F7F7F7FFFFFFFFFBDBDBDBD57
S214001CA0FFFFFFFFFDFDFDFDFBFBFBFBFEFEFEFE5B
S214001CB0FFFFFFFFFFFFFFFFFFFFFFFFFFFFFFFF2F
S214001CC0FFFFFFFFFFFFFFFFDFDFDFDFFFFFFFFF9F
S214001CD0FFFFFFFF7F7F7F7FFFFFFFFFBDBDBDBD17
S214001CE0FFFFFFFFFDFDFDFDFBFBFBFBFEFEFEFE1B
S214001CF0FFFFFFFFFFFFFFFFFFFFFFFFFFFFFFFFEF
S214001D00FFFFFFFFFFFFFFFFDFDFDFDFFFFFFFFF5E
S214001D10FFFFFFFF7F7F7F7FFFFFFFFFBDBDBDBDD6
S214001D20FFFFFFFFFDFDFDFDFBFBFBFBFEFEFEFEDA
S214001D30FFFFFFFFFFFFFFFFFFFFFFFFFFFFFFFFAE
S214001D40FFFFFFFFFFFFFFFFDFDFDFDFFFFFFFFF1E
S214001D50FFFFFFFF7F7F7F7FFFFFFFFFBDBDBDBD96
S214001D60FFFFFFFFFDFDFDFDFBFBFBFBFEFEFEFE9A
S214001D70FFFFFFFFFFFFFFFFFFFFFFFFFFFFFFFF6E
S214001D80FFFFFFFFFFFFFFFFDFDFDFDFFFFFFFFFDE
S214001D90FFFFFFFF7F7F7F7FFFFFFFFFBDBDBDBD56
S214001DA0FFFFFFFFFDFDFDFDFBFBFBFBFEFEFEFE5A
S214001DB0FFFFFFFFFFFFFFFFFFFFFFFFFFFFFFFF2E
S214001DC0FFFFFFFFFFFFFFFFDFDFDFDFFFFFFFFF9E
S214001DD0FFFFFFFF7F7F7F7FFFFFFFFFBDBDBDBD16
S214001DE0FFFFFFFFFDFDFDFDFBFBFBFBFEFEFEFE1A
S214001DF0FFFFFFFFFFFFFFFFFFFFFFFFFFFFFFFFEE
S214001E00FFFFFFFFFFFFFFFFDFDFDFDFFFFFFFFF5D
S214001E10FFFFFFFF7F7F7F7FFFFFFFFFBDBDBDBDD5
S214001E20FFFFFFFFFDFDFDFDFBFBFBFBFEFEFEFED9
S214001E30FFFFFFFFFFFFFFFFFFFFFFFFFFFFFFFFAD
S214001E40FFFFFFFFFFFFFFFFDFDFDFDFFFFFFFFF1D
S214001E50FFFFFFFF7F7F7F7FFFFFFFFFBDBDBDBD95
S214001E60FFFFFFFFFDFDFDFDFBFBFBFBFEFEFEFE99
S214001E70FFFFFFFFFFFFFFFFFFFFFFFFFFFFFFFF6D
S214001E80FFFFFFFFFFFFFFFFDFDFDFDFFFFFFFFFDD
S214001E90FFFFFFFF7F7F7F7FFFFFFFFFBDBDBDBD55
S214001EA0FFFFFFFFFDFDFDFDFBFBFBFBFEFEFEFE59
S214001EB0FFFFFFFFFFFFFFFFFFFFFFFFFFFFFFFF2D
S214001EC0FFFFFFFFFFFFFFFFDFDFDFDFFFFFFFFF9D
S214001ED0FFFFFFFF7F7F7F7FFFFFFFFFBDBDBDBD15
S214001EE0FFFFFFFFFDFDFDFDFBFBFBFBFEFEFEFE19
S214001EF0FFFFFFFFFFFFFFFFFFFFFFFFFFFFFFFFED
S214001F00FFFFFFFFFFFFFFFFDFDFDFDFFFFFFFFF5C
S214001F10FFFFFFFF7F7F7F7FFFFFFFFFBDBDBDBDD4
S214001F20FFFFFFFFFDFDFDFDFBFBFBFBFEFEFEFED8
S214001F30FFFFFFFFFFFFFFFFFFFFFFFFFFFFFFFFAC
S214001F40FFFFFFFFFFFFFFFFDFDFDFDFFFFFFFFF1C
S214001F50FFFFFFFF7F7F7F7FFFFFFFFFBDBDBDBD94
S214001F60FFFFFFFFFDFDFDFDFBFBFBFBFEFEFEFE98
S214001F70FFFFFFFFFFFFFFFFFFFFFFFFFFFFFFFF6C
S214001F80FFFFFFFFFFFFFFFFDFDFDFDFFFFFFFFFDC
S214001F90FFFFFFFF7F7F7F7FFFFFFFFFBDBDBDBD54
S214001FA0FFFFFFFFFDFDFDFDFBFBFBFBFEFEFEFE58
S214001FB0FFFFFFFFFFFFFFFFFFFFFFFFFFFFFFFF2C
S214001FC0FFFFFFFFFFFFFFFFDFDFDFDFFFFFFFFF9C
S214001FD0FFFFFFFF7F7F7F7FFFFFFFFFBDBDBDBD14
S214001FE0FFFFFFFFFDFDFDFDFBFBFBFBFEFEFEFE18
S214001FF0FFFFFFFFFFFFFFFFFFFFFFFFFFFFFFFFEC
S214002000FFFFFFFFFFFFFFFFDFDFDFDFFFFFFFFF5B
S214002010FFFFFFFF7F7F7F7FFFFFFFFFBDBDBDBDD3
S214002020FFFFFFFFFDFDFDFDFBFBFBFBFEFEFEFED7
S214002030FFFFFFFFFFFFFFFFFFFFFFFFFFFFFFFFAB
S214002040FFFFFFFFFFFFFFFFDFDFDFDFFFFFFFFF1B
S214002050FFFFFFFF7F7F7F7FFFFFFFFFBDBDBDBD93
S214002060FFFFFFFFFDFDFDFDFBFBFBFBFEFEFEFE97
S214002070FFFFFFFFFFFFFFFFFFFFFFFFFFFFFFFF6B
S214002080FFFFFFFFFFFFFFFFDFDFDFDFFFFFFFFFDB
S214002090FFFFFFFF7F7F7F7FFFFFFFFFBDBDBDBD53
S2140020A0FFFFFFFFFDFDFDFDFBFBFBFBFEFEFEFE57
S2140020B0FFFFFFFFFFFFFFFFFFFFFFFFFFFFFFFF2B
S2140020C0FFFFFFFFFFFFFFFFDFDFDFDFFFFFFFFF9B
S2140020D0FFFFFFFF7F7F7F7FFFFFFFFFBDBDBDBD13
S2140020E0FFFFFFFFFDFDFDFDFBFBFBFBFEFEFEFE17
S2140020F0FFFFFFFFFFFFFFFFFFFFFFFFFFFFFFFFEB
S214002100FFFFFFFFFFFFFFFFDFDFDFDFFFFFFFFF5A
S214002110FFFFFFFF7F7F7F7FFFFFFFFFBDBDBDBDD2
S214002120FFFFFFFFFDFDFDFDFBFBFBFBFEFEFEFED6
S214002130FFFFFFFFFFFFFFFFFFFFFFFFFFFFFFFFAA
S214002140FFFFFFFFFFFFFFFFDFDFDFDFFFFFFFFF1A
S214002150FFFFFFFF7F7F7F7FFFFFFFFFBDBDBDBD92
S214002160FFFFFFFFFDFDFDFDFBFBFBFBFEFEFEFE96
S214002170FFFFFFFFFFFFFFFFFFFFFFFFFFFFFFFF6A
S214002180FFFFFFFFFFFFFFFFDFDFDFDFFFFFFFFFDA
S214002190FFFFFFFF7F7F7F7FFFFFFFFFBDBDBDBD52
S2140021A0FFFFFFFFFDFDFDFDFBFBFBFBFEFEFEFE56
S2140021B0FFFFFFFFFFFFFFFFFFFFFFFFFFFFFFFF2A
S2140021C0FFFFFFFFFFFFFFFFDFDFDFDFFFFFFFFF9A
S2140021D0FFFFFFFF7F7F7F7FFFFFFFFFBDBDBDBD12
S2140021E0FFFFFFFFFDFDFDFDFBFBFBFBFEFEFEFE16
S2140021F0FFFFFFFFFFFFFFFFFFFFFFFFFFFFFFFFEA
S214002200FFFFFFFFFFFFFFFFDFDFDFDFFFFFFFFF59
S214002210FFFFFFFF7F7F7F7FFFFFFFFFBDBDBDBDD1
S214002220FFFFFFFFFDFDFDFDFBFBFBFBFEFEFEFED5
S214002230FFFFFFFFFFFFFFFFFFFFFFFFFFFFFFFFA9
S214002240FFFFFFFFFFFFFFFFDFDFDFDFFFFFFFFF19
S214002250FFFFFFFF7F7F7F7FFFFFFFFFBDBDBDBD91
S214002260FFFFFFFFFDFDFDFDFBFBFBFBFEFEFEFE95
S214002270FFFFFFFFFFFFFFFFFFFFFFFFFFFFFFFF69
S214002280FFFFFFFFFFFFFFFFDFDFDFDFFFFFFFFFD9
S214002290FFFFFFFF7F7F7F7FFFFFFFFFBDBDBDBD51
S2140022A0FFFFFFFFFDFDFDFDFBFBFBFBFEFEFEFE55
S2140022B0FFFFFFFFFFFFFFFFFFFFFFFFFFFFFFFF29
S2140022C0FFFFFFFFFFFFFFFFDFDFDFDFFFFFFFFF99
S2140022D0FFFFFFFF7F7F7F7FFFFFFFFFBDBDBDBD11
S2140022E0FFFFFFFFFDFDFDFDFBFBFBFBFEFEFEFE15
S2140022F0FFFFFFFFFFFFFFFFFFFFFFFFFFFFFFFFE9
S214002300FFFFFFFFFFFFFFFFDFDFDFDFFFFFFFFF58
S214002310FFFFFFFF7F7F7F7FFFFFFFFFBDBDBDBDD0
S214002320FFFFFFFFFDFDFDFDFBFBFBFBFEFEFEFED4
S214002330FFFFFFFFFFFFFFFFFFFFFFFFFFFFFFFFA8
S214002340FFFFFFFFFFFFFFFFDFDFDFDFFFFFFFFF18
S214002350FFFFFFFF7F7F7F7FFFFFFFFFBDBDBDBD90
S214002360FFFFFFFFFDFDFDFDFBFBFBFBFEFEFEFE94
S214002370FFFFFFFFFFFFFFFFFFFFFFFFFFFFFFFF68
S214002380FFFFFFFFFFFFFFFFDFDFDFDFFFFFFFFFD8
S214002390FFFFFFFF7F7F7F7FFFFFFFFFBDBDBDBD50
S2140023A0FFFFFFFFFDFDFDFDFBFBFBFBFEFEFEFE54
S2140023B0FFFFFFFFFFFFFFFFFFFFFFFFFFFFFFFF28
S2140023C0FFFFFFFFFFFFFFFFDFDFDFDFFFFFFFFF98
S2140023D0FFFFFFFF7F7F7F7FFFFFFFFFBDBDBDBD10
S2140023E0FFFFFFFFFDFDFDFDFBFBFBFBFEFEFEFE14
S2140023F0FFFFFFFFFFFFFFFFFFFFFFFFFFFFFFFFE8
S214002400FFFFFFFFFFFFFFFFDFDFDFDFFFFFFFFF57
S214002410FFFFFFFF7F7F7F7FFFFFFFFFBDBDBDBDCF
S214002420FFFFFFFFFDFDFDFDFBFBFBFBFEFEFEFED3
S214002430FFFFFFFFFFFFFFFFFFFFFFFFFFFFFFFFA7
S214002440FFFFFFFFFFFFFFFFDFDFDFDFFFFFFFFF17
S214002450FFFFFFFF7F7F7F7FFFFFFFFFBDBDBDBD8F
S214002460FFFFFFFFFDFDFDFDFBFBFBFBFEFEFEFE93
S214002470FFFFFFFFFFFFFFFFFFFFFFFFFFFFFFFF67
S214002480FFFFFFFFFFFFFFFFDFDFDFDFFFFFFFFFD7
S214002490FFFFFFFF7F7F7F7FFFFFFFFFBDBDBDBD4F
S2140024A0FFFFFFFFFDFDFDFDFBFBFBFBFEFEFEFE53
S2140024B0FFFFFFFFFFFFFFFFFFFFFFFFFFFFFFFF27
S2140024C0FFFFFFFFFFFFFFFFDFDFDFDFFFFFFFFF97
S2140024D0FFFFFFFF7F7F7F7FFFFFFFFFBDBDBDBD0F
S2140024E0FFFFFFFFFDFDFDFDFBFBFBFBFEFEFEFE13
S2140024F0FFFFFFFFFFFFFFFFFFFFFFFFFFFFFFFFE7
S214002500FFFFFFFFFFFFFFFFDFDFDFDFFFFFFFFF56
S214002510FFFFFFFF7F7F7F7FFFFFFFFFBDBDBDBDCE
S214002520FFFFFFFFFDFDFDFDFBFBFBFBFEFEFEFED2
S214002530FFFFFFFFFFFFFFFFFFFFFFFFFFFFFFFFA6
S214002540FFFFFFFFFFFFFFFFDFDFDFDFFFFFFFFF16
S214002550FFFFFFFF7F7F7F7FFFFFFFFFBDBDBDBD8E
S214002560FFFFFFFFFDFDFDFDFBFBFBFBFEFEFEFE92
S214002570FFFFFFFFFFFFFFFFFFFFFFFFFFFFFFFF66
S214002580FFFFFFFFFFFFFFFFDFDFDFDFFFFFFFFFD6
S214002590FFFFFFFF7F7F7F7FFFFFFFFFBDBDBDBD4E
S2140025A0FFFFFFFFFDFDFDFDFBFBFBFBFEFEFEFE52
S2140025B0FFFFFFFFFFFFFFFFFFFFFFFFFFFFFFFF26
S2140025C0FFFFFFFFFFFFFFFFDFDFDFDFFFFFFFFF96
S2140025D0FFFFFFFF7F7F7F7FFFFFFFFFBDBDBDBD0E
S2140025E0FFFFFFFFFDFDFDFDFBFBFBFBFEFEFEFE12
S2140025F0FFFFFFFFFFFFFFFFFFFFFFFFFFFFFFFFE6
S214002600FFFFFFFFFFFFFFFFDFDFDFDFFFFFFFFF55
S214002610FFFFFFFF7F7F7F7FFFFFFFFFBDBDBDBDCD
S214002620FFFFFFFFFDFDFDFDFBFBFBFBFEFEFEFED1
S214002630FFFFFFFFFFFFFFFFFFFFFFFFFFFFFFFFA5
S214002640FFFFFFFFFFFFFFFFDFDFDFDFFFFFFFFF15
S214002650FFFFFFFF7F7F7F7FFFFFFFFFBDBDBDBD8D
S214002660FFFFFFFFFDFDFDFDFBFBFBFBFEFEFEFE91
S214002670FFFFFFFFFFFFFFFFFFFFFFFFFFFFFFFF65
S214002680FFFFFFFFFFFFFFFFDFDFDFDFFFFFFFFFD5
S214002690FFFFFFFF7F7F7F7FFFFFFFFFBDBDBDBD4D
S2140026A0FFFFFFFFFDFDFDFDFBFBFBFBFEFEFEFE51
S2140026B0FFFFFFFFFFFFFFFFFFFFFFFFFFFFFFFF25
S2140026C0FFFFFFFFFFFFFFFFDFDFDFDFFFFFFFFF95
S2140026D0FFFFFFFF7F7F7F7FFFFFFFFFBDBDBDBD0D
S2140026E0FFFFFFFFFDFDFDFDFBFBFBFBFEFEFEFE11
S2140026F0FFFFFFFFFFFFFFFFFFFFFFFFFFFFFFFFE5
S214002700FFFFFFFFFFFFFFFFDFDFDFDFFFFFFFFF54
S214002710FFFFFFFF7F7F7F7FFFFFFFFFBDBDBDBDCC
S214002720FFFFFFFFFDFDFDFDFBFBFBFBFEFEFEFED0
S214002730FFFFFFFFFFFFFFFFFFFFFFFFFFFFFFFFA4
S214002740FFFFFFFFFFFFFFFFDFDFDFDFFFFFFFFF14
S214002750FFFFFFFF7F7F7F7FFFFFFFFFBDBDBDBD8C
S214002760FFFFFFFFFDFDFDFDFBFBFBFBFEFEFEFE90
S214002770FFFFFFFFFFFFFFFFFFFFFFFFFFFFFFFF64
S214002780FFFFFFFFFFFFFFFFDFDFDFDFFFFFFFFFD4
S214002790FFFFFFFF7F7F7F7FFFFFFFFFBDBDBDBD4C
S2140027A0FFFFFFFFFDFDFDFDFBFBFBFBFEFEFEFE50
S2140027B0FFFFFFFFFFFFFFFFFFFFFFFFFFFFFFFF24
S2140027C0FFFFFFFFFFFFFFFFDFDFDFDFFFFFFFFF94
S2140027D0FFFFFFFF7F7F7F7FFFFFFFFFBDBDBDBD0C
S2140027E0FFFFFFFFFDFDFDFDFBFBFBFBFEFEFEFE10
S2140027F0FFFFFFFFFFFFFFFFFFFFFFFFFFFFFFFFE4
S214002800FFFFFFFFFFFFFFFFDFDFDFDFFFFFFFFF53
S214002810FFFFFFFF7F7F7F7FFFFFFFFFBDBDBDBDCB
S214002820FFFFFFFFFDFDFDFDFBFBFBFBFEFEFEFECF
S214002830FFFFFFFFFFFFFFFFFFFFFFFFFFFFFFFFA3
S214002840FFFFFFFFFFFFFFFFDFDFDFDFFFFFFFFF13
S214002850FFFFFFFF7F7F7F7FFFFFFFFFBDBDBDBD8B
S214002860FFFFFFFFFDFDFDFDFBFBFBFBFEFEFEFE8F
S214002870FFFFFFFFFFFFFFFFFFFFFFFFFFFFFFFF63
S214002880FFFFFFFFFFFFFFFFDFDFDFDFFFFFFFFFD3
S214002890FFFFFFFF7F7F7F7FFFFFFFFFBDBDBDBD4B
S2140028A0FFFFFFFFFDFDFDFDFBFBFBFBFEFEFEFE4F
S2140028B0FFFFFFFFFFFFFFFFFFFFFFFFFFFFFFFF23
S2140028C0FFFFFFFFFFFFFFFFDFDFDFDFFFFFFFFF93
S2140028D0FFFFFFFF7F7F7F7FFFFFFFFFBDBDBDBD0B
S2140028E0FFFFFFFFFDFDFDFDFBFBFBFBFEFEFEFE0F
S2140028F0FFFFFFFFFFFFFFFFFFFFFFFFFFFFFFFFE3
S214002900FFFFFFFFFFFFFFFFDFDFDFDFFFFFFFFF52
S214002910FFFFFFFF7F7F7F7FFFFFFFFFBDBDBDBDCA
S214002920FFFFFFFFFDFDFDFDFBFBFBFBFEFEFEFECE
S214002930FFFFFFFFFFFFFFFFFFFFFFFFFFFFFFFFA2
S214002940FFFFFFFFFFFFFFFFDFDFDFDFFFFFFFFF12
S214002950FFFFFFFF7F7F7F7FFFFFFFFFBDBDBDBD8A
S214002960FFFFFFFFFDFDFDFDFBFBFBFBFEFEFEFE8E
S214002970FFFFFFFFFFFFFFFFFFFFFFFFFFFFFFFF62
S214002980FFFFFFFFFFFFFFFFDFDFDFDFFFFFFFFFD2
S214002990FFFFFFFF7F7F7F7FFFFFFFFFBDBDBDBD4A
S2140029A0FFFFFFFFFDFDFDFDFBFBFBFBFEFEFEFE4E
S2140029B0FFFFFFFFFFFFFFFFFFFFFFFFFFFFFFFF22
S2140029C0FFFFFFFFFFFFFFFFDFDFDFDFFFFFFFFF92
S2140029D0FFFFFFFF7F7F7F7FFFFFFFFFBDBDBDBD0A
S2140029E0FFFFFFFFFDFDFDFDFBFBFBFBFEFEFEFE0E
S2140029F0FFFFFFFFFFFFFFFFFFFFFFFFFFFFFFFFE2
S214002A00FFFFFFFFFFFFFFFFDFDFDFDFFFFFFFFF51
S214002A10FFFFFFFF7F7F7F7FFFFFFFFFBDBDBDBDC9
S214002A20FFFFFFFFFDFDFDFDFBFBFBFBFEFEFEFECD
S214002A30FFFFFFFFFFFFFFFFFFFFFFFFFFFFFFFFA1
S214002A40FFFFFFFFFFFFFFFFDFDFDFDFFFFFFFFF11
S214002A50FFFFFFFF7F7F7F7FFFFFFFFFBDBDBDBD89
S214002A60FFFFFFFFFDFDFDFDFBFBFBFBFEFEFEFE8D
S214002A70FFFFFFFFFFFFFFFFFFFFFFFFFFFFFFFF61
S214002A80FFFFFFFFFFFFFFFFDFDFDFDFFFFFFFFFD1
S214002A90FFFFFFFF7F7F7F7FFFFFFFFFBDBDBDBD49
S214002AA0FFFFFFFFFDFDFDFDFBFBFBFBFEFEFEFE4D
S214002AB0FFFFFFFFFFFFFFFFFFFFFFFFFFFFFFFF21
S214002AC0FFFFFFFFFFFFFFFFDFDFDFDFFFFFFFFF91
S214002AD0FFFFFFFF7F7F7F7FFFFFFFFFBDBDBDBD09
S214002AE0FFFFFFFFFDFDFDFDFBFBFBFBFEFEFEFE0D
S214002AF0FFFFFFFFFFFFFFFFFFFFFFFFFFFFFFFFE1
S214002B00FFFFFFFFFFFFFFFFDFDFDFDFFFFFFFFF50
S214002B10FFFFFFFF7F7F7F7FFFFFFFFFBDBDBDBDC8
S214002B20FFFFFFFFFDFDFDFDFBFBFBFBFEFEFEFECC
S214002B30FFFFFFFFFFFFFFFFFFFFFFFFFFFFFFFFA0
S214002B40FFFFFFFFFFFFFFFFDFDFDFDFFFFFFFFF10
S214002B50FFFFFFFF7F7F7F7FFFFFFFFFBDBDBDBD88
S214002B60FFFFFFFFFDFDFDFDFBFBFBFBFEFEFEFE8C
S214002B70FFFFFFFFFFFFFFFFFFFFFFFFFFFFFFFF60
S214002B80FFFFFFFFFFFFFFFFDFDFDFDFFFFFFFFFD0
S214002B90FFFFFFFF7F7F7F7FFFFFFFFFBDBDBDBD48
S214002BA0FFFFFFFFFDFDFDFDFBFBFBFBFEFEFEFE4C
S214002BB0FFFFFFFFFFFFFFFFFFFFFFFFFFFFFFFF20
S214002BC0FFFFFFFFFFFFFFFFDFDFDFDFFFFFFFFF90
S214002BD0FFFFFFFF7F7F7F7FFFFFFFFFBDBDBDBD08
S214002BE0FFFFFFFFFDFDFDFDFBFBFBFBFEFEFEFE0C
S214002BF0FFFFFFFFFFFFFFFFFFFFFFFFFFFFFFFFE0
S214002C00FFFFFFFFFFFFFFFFDFDFDFDFFFFFFFFF4F
S214002C10FFFFFFFF7F7F7F7FFFFFFFFFBDBDBDBDC7
S214002C20FFFFFFFFFDFDFDFDFBFBFBFBFEFEFEFECB
S214002C30FFFFFFFFFFFFFFFFFFFFFFFFFFFFFFFF9F
S214002C40FFFFFFFFFFFFFFFFDFDFDFDFFFFFFFFF0F
S214002C50FFFFFFFF7F7F7F7FFFFFFFFFBDBDBDBD87
S214002C60FFFFFFFFFDFDFDFDFBFBFBFBFEFEFEFE8B
S214002C70FFFFFFFFFFFFFFFFFFFFFFFFFFFFFFFF5F
S214002C80FFFFFFFFFFFFFFFFDFDFDFDFFFFFFFFFCF
S214002C90FFFFFFFF7F7F7F7FFFFFFFFFBDBDBDBD47
S214002CA0FFFFFFFFFDFDFDFDFBFBFBFBFEFEFEFE4B
S214002CB0FFFFFFFFFFFFFFFFFFFFFFFFFFFFFFFF1F
S214002CC0FFFFFFFFFFFFFFFFDFDFDFDFFFFFFFFF8F
S214002CD0FFFFFFFF7F7F7F7FFFFFFFFFBDBDBDBD07
S214002CE0FFFFFFFFFDFDFDFDFBFBFBFBFEFEFEFE0B
S214002CF0FFFFFFFFFFFFFFFFFFFFFFFFFFFFFFFFDF
S214002D00FFFFFFFFFFFFFFFFDFDFDFDFFFFFFFFF4E
S214002D10FFFFFFFF7F7F7F7FFFFFFFFFBDBDBDBDC6
S214002D20FFFFFFFFFDFDFDFDFBFBFBFBFEFEFEFECA
S214002D30FFFFFFFFFFFFFFFFFFFFFFFFFFFFFFFF9E
S214002D40FFFFFFFFFFFFFFFFDFDFDFDFFFFFFFFF0E
S214002D50FFFFFFFF7F7F7F7FFFFFFFFFBDBDBDBD86
S214002D60FFFFFFFFFDFDFDFDFBFBFBFBFEFEFEFE8A
S214002D70FFFFFFFFFFFFFFFFFFFFFFFFFFFFFFFF5E
S214002D80FFFFFFFFFFFFFFFFDFDFDFDFFFFFFFFFCE
S214002D90FFFFFFFF7F7F7F7FFFFFFFFFBDBDBDBD46
S214002DA0FFFFFFFFFDFDFDFDFBFBFBFBFEFEFEFE4A
S214002DB0FFFFFFFFFFFFFFFFFFFFFFFFFFFFFFFF1E
S214002DC0FFFFFFFFFFFFFFFFDFDFDFDFFFFFFFFF8E
S214002DD0FFFFFFFF7F7F7F7FFFFFFFFFBDBDBDBD06
S214002DE0FFFFFFFFFDFDFDFDFBFBFBFBFEFEFEFE0A
S214002DF0FFFFFFFFFFFFFFFFFFFFFFFFFFFFFFFFDE
S214002E00FFFFFFFFFFFFFFFFDFDFDFDFFFFFFFFF4D
S214002E10FFFFFFFF7F7F7F7FFFFFFFFFBDBDBDBDC5
S214002E20FFFFFFFFFDFDFDFDFBFBFBFBFEFEFEFEC9
S214002E30FFFFFFFFFFFFFFFFFFFFFFFFFFFFFFFF9D
S214002E40FFFFFFFFFFFFFFFFDFDFDFDFFFFFFFFF0D
S214002E50FFFFFFFF7F7F7F7FFFFFFFFFBDBDBDBD85
S214002E60FFFFFFFFFDFDFDFDFBFBFBFBFEFEFEFE89
S214002E70FFFFFFFFFFFFFFFFFFFFFFFFFFFFFFFF5D
S214002E80FFFFFFFFFFFFFFFFDFDFDFDFFFFFFFFFCD
S214002E90FFFFFFFF7F7F7F7FFFFFFFFFBDBDBDBD45
S214002EA0FFFFFFFFFDFDFDFDFBFBFBFBFEFEFEFE49
S214002EB0FFFFFFFFFFFFFFFFFFFFFFFFFFFFFFFF1D
S214002EC0FFFFFFFFFFFFFFFFDFDFDFDFFFFFFFFF8D
S214002ED0FFFFFFFF7F7F7F7FFFFFFFFFBDBDBDBD05
S214002EE0FFFFFFFFFDFDFDFDFBFBFBFBFEFEFEFE09
S214002EF0FFFFFFFFFFFFFFFFFFFFFFFFFFFFFFFFDD
S214002F00FFFFFFFFFFFFFFFFDFDFDFDFFFFFFFFF4C
S214002F10FFFFFFFF7F7F7F7FFFFFFFFFBDBDBDBDC4
S214002F20FFFFFFFFFDFDFDFDFBFBFBFBFEFEFEFEC8
S214002F30FFFFFFFFFFFFFFFFFFFFFFFFFFFFFFFF9C
S214002F40FFFFFFFFFFFFFFFFDFDFDFDFFFFFFFFF0C
S214002F50FFFFFFFF7F7F7F7FFFFFFFFFBDBDBDBD84
S214002F60FFFFFFFFFDFDFDFDFBFBFBFBFEFEFEFE88
S214002F70FFFFFFFFFFFFFFFFFFFFFFFFFFFFFFFF5C
S214002F80FFFFFFFFFFFFFFFFDFDFDFDFFFFFFFFFCC
S214002F90FFFFFFFF7F7F7F7FFFFFFFFFBDBDBDBD44
S214002FA0FFFFFFFFFDFDFDFDFBFBFBFBFEFEFEFE48
S214002FB0FFFFFFFFFFFFFFFFFFFFFFFFFFFFFFFF1C
S214002FC0FFFFFFFFFFFFFFFFDFDFDFDFFFFFFFFF8C
S214002FD0FFFFFFFF7F7F7F7FFFFFFFFFBDBDBDBD04
S214002FE0FFFFFFFFFDFDFDFDFBFBFBFBFEFEFEFE08
S214002FF0FFFFFFFFFFFFFFFFFFFFFFFFFFFFFFFFDC
S214003000FFFFFFFFFFFFFFFF5F5F5F5FFFFFFFFF4B
S214003010FFFFFFFFFFFFFFFFFFFFFFFFFFFFFFFFBB
S214003020FDFDFDFDEFEFEFEFFFFFFFFFFFFFFFFFF3
S214003030FFFFFFFFFFFFFFFFFFFFFFFFFFFFFFFF9B
S214003040FFFFFFFFFFFFFFFF5F5F5F5FFFFFFFFF0B
S214003050FFFFFFFFFFFFFFFFFFFFFFFFFFFFFFFF7B
S214003060FFFFFFFFFFFFFFFFFFFFFFFFFFFFFFFF6B
S214003070FFFFFFFFFFFFFFFFFFFFFFFFFFFFFFFF5B
S214003080FFFFFFFFFFFFFFFF5F5F5F5FFFFFFFFFCB
S214003090FFFFFFFFFFFFFFFFFFFFFFFFFFFFFFFF3B
S2140030A0FDFDFDFDFFFFFFFFFFFFFFFFFFFFFFFF33
S2140030B0FFFFFFFFFFFFFFFFFFFFFFFFFFFFFFFF1B
S2140030C0FFFFFFFFFFFFFFFFDFDFDFDFFFFFFFFF8B
S2140030D0FFFFFFFFFFFFFFFFFFFFFFFFFFFFFFFFFB
S2140030E0FFFFFFFFFFFFFFFFFFFFFFFFFFFFFFFFEB
S2140030F0FFFFFFFFFFFFFFFFFFFFFFFFFFFFFFFFDB
S214003100FFFFFFFFFFFFFFFFDFDFDFDF7F7F7F7F4A
S214003110FFFFFFFFFFFFFFFFFFFFFFFFFDFDFDFDC2
S214003120FFFFFFFFFFBFBFBFFFFFFFFFFFFFFFFF6A
S214003130FFFFFFFFFFFFFFFFFFFFFFFFFFFFFFFF9A
S214003140FFFFFFFFFFFFFFFF5F5F5F5FFFFFFFFF0A
S214003150FFFFFFFFFFFFFFFF7F7F7F7FFFFFFFFF7A
S214003160FDFDFDFDFFFFFFFFFFFFFFFFFFFFFFFF72
S214003170FFFFFFFFFFFFFFFFFFFFFFFFFFFFFFFF5A
S214003180FFFFFFFFFFFFFFFFFFFFFFFFFFFFFFFF4A
S214003190FFFFFFFFFFFFFFFFFFFFFFFFFFFFFFFF3A
S2140031A0FFFFFFFFFFFFFFFFFFFFFFFFFFFFFFFF2A
S2140031B0FFFFFFFFFFFFFFFFFFFFFFFFFFFFFFFF1A
S2140031C0FFFFFFFFFFFFFFFFFFFFFFFFFFFFFFFF0A
S2140031D0FFFFFFFFFFFFFFFFFFFFFFFFFFFFFFFFFA
S2140031E0FFFFFFFFFFFFFFFFFFFFFFFFFFFFFFFFEA
S2140031F0FFFFFFFFFFFFFFFFFFFFFFFFFFFFFFFFDA
S214003200FFFFFFFFFFFFFFFFDFDFDFDFFFFFFFFF49
S214003210FFFFFFFFFFFFFFFFFFFFFFFFFFFFFFFFB9
S214003220FDFDFDFDFFFFFFFFFFFFFFFFFFFFFFFFB1
S214003230FFFFFFFFFFFFFFFFFFFFFFFFFFFFFFFF99
S214003240FFFFFFFFFFFFFFFF5F5F5F5FFFFFFFFF09
S214003250FFFFFFFFFFFFFFFFFFFFFFFF7F7F7F7F79
S214003260FDFDFDFDBFBFBFBFFFFFFFFFFFFFFFFF71
S214003270FFFFFFFFFFFFFFFFFFFFFFFFFFFFFFFF59
S214003280FFFFFFFFFFFFFFFFFFFFFFFFFFFFFFFF49
S214003290FFFFFFFFFFFFFFFFFFFFFFFFFFFFFFFF39
S2140032A0FFFFFFFFFFFFFFFFFFFFFFFFFFFFFFFF29
S2140032B0FFFFFFFFFFFFFFFFFFFFFFFFFFFFFFFF19
S2140032C0FFFFFFFFFFFFFFFFDFDFDFDFFFFFFFFF89
S2140032D0FFFFFFFFFFFFFFFFFFFFFFFFFFFFFFFFF9
S2140032E0FFFFFFFFFFFFFFFFFFFFFFFFFFFFFFFFE9
S2140032F0FFFFFFFFFFFFFFFFFFFFFFFFFFFFFFFFD9
S214003300FFFFFFFFFFFFFFFFDFDFDFDFFDFDFDFD50
S214003310FFFFFFFFF7F7F7F7FFFFFFFFFFFFFFFFD8
S214003320FDFDFDFDFFFFFFFFFFFFFFFFFFFFFFFFB0
S214003330FFFFFFFFFFFFFFFFFFFFFFFFFFFFFFFF98
S214003340FFFFFFFFFFFFFFFFFFFFFFFFFFFFFFFF88
S214003350FFFFFFFFFFFFFFFFFFFFFFFFFFFFFFFF78
S214003360FFFFFFFFFFFFFFFFFFFFFFFFFFFFFFFF68
S214003370FFFFFFFFFFFFFFFFFFFFFFFFFFFFFFFF58
S214003380FFFFFFFFFFFFFFFF5F5F5F5FFFFFFFFFC8
S214003390FFFFFFFFFFFFFFFFFFFFFFFFFFFFFFFF38
S2140033A0FDFDFDFDFFFFFFFFFFFFFFFFFFFFFFFF30
S2140033B0FFFFFFFFFFFFFFFFFFFFFFFFFFFFFFFF18
S2140033C0FFFFFFFFFFFFFFFFFFFFFFFFFFFFFFFF08
S2140033D0FFFFFFFFFFFFFFFFFFFFFFFFFFFFFFFFF8
S2140033E0FFFFFFFFFFFFFFFFFFFFFFFFFFFFFFFFE8
S214003900FFFFFFFFFFFFFFFFDFDFDFDFFFFFFFFF42
S214003910FFFFFFFFFFFFFFFFFFFFFFFFFFFFFFFFB2
S2140039207D7DFDFDFFFF7F7FFFFFFFFFFFFFFFFFAA
S214003930FFFFFFFFFFFFFFFFFFFFFFFFFFFFFFFF92
S214003940FFFFFFFFFFFFFFFF7F7F7F7FFFFFFFFF82
S214003950FFFFBFBFFFFFFFFFFFFFFFFFFFFFFFFFF2
S2140039607F7F7F7FFFFFBFBFFFFFFFFFFFFFFFFFE2
S214003970FFFFFFFFFFFFFFFFFFFFFFFFFFFFFFFF52
S214003980FFFFFFFFFFFFFFFFFFFFFFFFFFFFFFFF42
S214003990FFFFFFFFFFFFFFFFFFFFFFFFFFFFFFFF32
S2140039A0FFFFFFFFFFFFFFFFFFFFFFFFFFFFFFFF22
S2140039B0FFFFFFFFFFFFFFFFFFFFFFFFFFFFFFFF12
S2140039C0FFFFFFFFFFFFFFFF5F5F5F5FFFFFFFFF82
S2140039D0FFFFFFFFFFFFFFFF7F7F7F7FFFFFBFBF72
S2140039E0FDFDFDFDFFFFFFFFFFFFFFFFFFFFFFFFEA
S2140039F0FFFFFFFFFFFFFFFFFFFFFFFFFFFFFFFFD2
S214003A00FFFFFFFFFFFFFFFFDFDFDFDFFFFFFFFF41
S214003A10FFFFFFFFFFFFFFFFFFFFFFFFEFEFEFEFF1
S214003A20FDFDFDFDFFFFFFFFFFFFFFFFFFFFFFFFA9
S214003A30FFFFFFFFFFFFFFFFFFFFFFFFFFFFFFFF91
S214003A40FFFFFFFFFFFFFFFFDFDFDFDFFFFFFFFF01
S214003A506F6F6F6FBFBFBFBFFFFFFFFFFFFFFFFFB1
S214003A60FFFFFFFFFFFFEFEFFFFFFFFFFFFFFFFF81
S214003A70FFFFFFFFFFFFFFFFFFFFFFFFFFFFFFFF51
S214003A80FFFFFFFFFFFFFFFF5F5F5F5FFFFFFFFFC1
S214003A90FFFFFFFFFFFFFFFFFFFFFFFFFFFFFFFF31
S214003AA0FDFDFDFDFFFFFFFFFFFFFFFFFFFFFFFF29
S214003AB0FFFFFFFFFFFFFFFFFFFFFFFFFFFFFFFF11
S214003AC0FFFFFFFFFFFFFFFFFFFFFFFFFFFFFFFF01
S214003AD0FFFFFFFFFFFFFFFFFFFFFFFFFFFFFFFFF1
S214003AE0FFFFFFFFFFFFFFFFFFFFFFFFFFFFFFFFE1
S214003AF0FFFFFFFFFFFFFFFFFFFFFFFFFFFFFFFFD1
S214003B00FFFFFFFFFFFFFFFFDFDFDFDF7F7F7F7F40
S214003B10FFFFFFFFFFFFFFFFFFFFFFFFFFFFFFFFB0
S214003B20FDFDFDFDBFBFBFBFFFFFFFFFFFFFFFFFA8
S214003B30FFFFFFFFFFFFFFFFFFFFFFFFFFFFFFFF90
S214003B40FFFFFFFFFFFFFFFFFFFFFFFFFFFFFFFF80
S214003B50FFFFFFFFFFFFFFFFFFFFFFFFFFFFFFFF70
S214003B60FFFFFFFFFFFFFFFFFFFFFFFFFFFFFFFF60
S214003B70FFFFFFFFFFFFFFFFFFFFFFFFFFFFFFFF50
S214003B80FFFFFFFFFFFFFFFF5F5F5F5FFFFFFFFFC0
S214003B90FFFFFFFFFFFFFFFFFFFFFFFFFFFFFFFF30
S214003BA0FDFDFDFDFFFFFFFFFFFFFFFFFFFFFFFF28
S214003BB0FFFFFFFFFFFFFFFFFFFFFFFFFFFFFFFF10
S214003BC0FFFFFFFFFFFFFFFFFFFFFFFFFFFFFFFF00
S214003BD0FFFFFFFFFFFFFFFFFFFFFFFFFFFFFFFFF0
S214003BE0FFFFFFFFFFFFFFFFFFFFFFFFFFFFFFFFE0
S214003BF0FFFFFFFFFFFFFFFFFFFFFFFFFFFFFFFFD0
S214003C00FFFFFFFFFFFFFFFFDFDFDFDFFFFFFFFF3F
S214003C10FFFFFFFFFFFFFFFFFFFFFFFFFFFFFFFFAF
S214003C20FDFDFDFDFFFFFFFFFFFFFFFFFFFFFFFFA7
S214003C30FFFFFFFFFFFFFFFFFFFFFFFFFFFFFFFF8F
S214003C40FFFFFFFFFFFFFFFFFFFFFFFFFFFFFFFF7F
S214003C50FFFFFFFFFFFFFFFFFFFFFFFFFFFFFFFF6F
S214003C60FFFFFFFFFFFFFFFFFFFFFFFFFFFFFFFF5F
S214003C70FFFFFFFFFFFFFFFFFFFFFFFFFFFFFFFF4F
S214003C80FFFFFFFFFFFFFFFF5F5F5F5FFFFFFFFFBF
S214003C90FFFFFFFFFFFFFFFFFFFFFFFFFFFFFFFF2F
S214003CA0FDFDFDFDFFFFFFFFFFFFFFFFFFFFFFFF27
S214003CB0FFFFFFFFFFFFFFFFFFFFFFFFFFFFFFFF0F
S214003CC0FFFFFFFFFFFFFFFFFFFFFFFFFFFFFFFFFF
S214003CD0FFFFFFFFFFFFFFFFFFFFFFFFFFFFFFFFEF
S214003CE0FFFFFFFFFFFFFFFFFFFFFFFFFFFFFFFFDF
S214003CF0FFFFFFFFFFFFFFFFFFFFFFFFFFFFFFFFCF
S214003D00FFFFFFFFFFFFFFFFDFDFDFDFFDFDFDFD46
S214003D10FFFFFFFFFF7F7FFFFFFFFFFFFFFFFFFFAE
S214003D20FFFFFFFFFFFFFFFFFFFFFFFFFFFFFFFF9E
S214003D30FFFFFFFFFFFFFFFFFFFFFFFFFFFFFFFF8E
S214003D40FFFFFFFFFFFFFFFFFFFFFFFFFFFFFFFF7E
S214003D50FFFFFFFFFFFFFFFFFFFFFFFFFFFFFFFF6E
S214003D60FFFFFFFFFFFFFFFFFFFFFFFFFFFFFFFF5E
S214003D70FFFFFFFFFFFFFFFFFFFFFFFFFFFFFFFF4E
S214003D80FFFFFFFFFFFFFFFF5F5F5F5FFFFFFFFFBE
S214003D90FFFFFFFFFFFFFFFFFFFFFFFFFFFFFFFF2E
S214003DA0FDFDFDFDFFFFFFFFFFFFFFFFFFFFFFFF26
S214003DB0FFFFFFFFFFFFFFFFFFFFFFFFFFFFFFFF0E
S214003DC0FFFFFFFFFFFFFFFFFFFFFFFFFFFFFFFFFE
S214003DD0FFFFFFFFFFFFFFFFFFFFFFFFFFFFFFFFEE
S214003DE0FFFFFFFFFFFFFFFFFFFFFFFFFFFFFFFFDE
S214003DF0FFFFFFFFFFFFFFFFFFFFFFFFFFFFFFFFCE
S214003E00FFFFFFFFFFFFFFFFDFDFDFDF7F7F7F7F3D
S214003E10FFFFFFFFFFFFFFFFFFFFFFFFFFFFFFFFAD
S214003E20FDFDFDFDBFBFBFBFFFFFFFFFFFFFFFFFA5
S214003E30FFFFFFFFFFFFFFFFFFFFFFFFFFFFFFFF8D
S214003E40FFFFFFFFFFFFFFFFFFFFFFFFFFFFFFFF7D
S214003E50FFFFFFFFFFFFFFFFFFFFFFFFFFFFFFFF6D
S214003E60FFFFFFFFFFFFFFFFFFFFFFFFFFFFFFFF5D
S214003E70FFFFFFFFFFFFFFFFFFFFFFFFFFFFFFFF4D
S214003E80FFFFFFFFFFFFFFFF5F5F5F5FFFFFFFFFBD
S214003E90FFFFFFFFFFFFFFFFFFFFFFFFFFFFFFFF2D
S214003EA0FDFDFDFDFFFFFFFFFFFFFFFFFFFFFFFF25
S214003EB0FFFFFFFFFFFFFFFFFFFFFFFFFFFFFFFF0D
S214003EC0FFFFFFFFFFFFFFFFFFFFFFFFFFFFFFFFFD
S214003ED0FFFFFFFFFFFFFFFFFFFFFFFFFFFFFFFFED
S214003EE0FFFFFFFFFFFFFFFFFFFFFFFFFFFFFFFFDD
S214003EF0FFFFFFFFFFFFFFFFFFFFFFFFFFFFFFFFCD
S214003F00FFFFFFFFFFFFFFFFDFDFDFDFFFFFFFFF3C
S214003F10FFFFFFFF7F7F7F7FFFFFFFFFFFFFFFFFAC
S214003F20FDFDFDFDFFFFFFFFFFFFFFFFFFFFFFFFA4
S214003F30FFFFFFFFFFFFFFFFFFFFFFFFFFFFFFFF8C
S214003F40FFFFFFFFFFFFFFFFFFFFFFFFFFFFFFFF7C
S214003F50FFFFFFFFFFFFFFFFFFFFFFFFFFFFFFFF6C
S214003F60FFFFFFFFFFFFFFFFFFFFFFFFFFFFFFFF5C
S214003F70FFFFFFFFFFFFFFFFFFFFFFFFFFFFFFFF4C
S214003F80FFFFFFFFFFFFFFFF5F5F5F5FFFFFFFFFBC
S214003F90FFFFFFFFFFFFFFFFFFFFFFFFFFFFFFFF2C
S214003FA0FDFDFDFDFFFFFFFFFFFFFFFFFFFFFFFF24
S214003FB0FFFFFFFFFFFFFFFFFFFFFFFFFFFFFFFF0C
S214003FC0FFFFFFFFFFFFFFFFFFFFFFFFFFFFFFFFFC
S214003FD0FFFFFFFFFFFFFFFFFFFFFFFFFFFFFFFFEC
S214003FE0FFFFFFFFFFFFFFFFFFFFFFFFFFFFFFFFDC
S214003FF0FFFFFFFFFFFFFFFFFFFFFFFFFFFFFFFFCC
S804000000FB