
Source Code


000002:                                                                                                  ## Copyright:   Public domain.
000003:                                                                                                  ## Filename:    DOWN-TELEMETRY_PROGRAM.agc
000004:                                                                                                  ## Purpose:     A section of Sunrise 69.
000005:                                                                                                  ##              It is part of the reconstructed source code for the final
000006:                                                                                                  ##              release of the Block I Command Module system test software. No
000007:                                                                                                  ##              original listings of this program are available; instead, this
000008:                                                                                                  ##              file was created via disassembly of dumps of Sunrise core rope
000009:                                                                                                  ##              memory modules and comparison with the later Block I program
000010:                                                                                                  ##              Solarium 55.
000011:                                                                                                  ## Assembler:   yaYUL --block1
000012:                                                                                                  ## Contact:     Ron Burkey <info@sandroid.org>.
000013:                                                                                                  ## Website:     www.ibiblio.org/apollo/index.html
000014:                                                                                                  ## Mod history: 2023-06-19 MAS  Created from Sunrise 45.
000015:
000016:                                                                                                  ## Label names in this section were taken from the errata for AGC Information Series Issue 15.
000017:
000018:                                                                                                  #  TELEMETRY PROCESSOR
000019:                                                                                                  #  --------- ---------
000020:
000021:                                                                                                  #        THE FOLLOWING TELEMETRY PROGRAM IS DESIGNED TO TRANSMIT TELEMETRY DATA VIA OUT4 WHEN AN ENDPULSE
000022:                                                                                                  #  FROM THE NORTH AMERICAN TELEMETRY PROGRAMMER TRIGGERS INTERRUPT 6, WHICH INITIATES THIS ROUTINE. IT OPERATES
000023:                                                                                                  #  IN CONJUNCTION WITH (BUT ASYNCHRONOUSLY FROM) THE T4RUPT PROGRAM, WHICH IS INITATED EVERY 60 MS, VIA INTERRUPT
000024:                                                                                                  #  3.
000025:
000026:
000027:    2301                                           BANK     1
000028:    2301           10675        DOWNRUPT           CCS      TELCOUNT                              #  PNZ IS NORMAL SETTING - +0 INDICATES
000029:    2302           02311                           TC       DOWNTMOK                              #  TM FAILURE SINCE ENDPULSES ARE OCCURING
000030:    2303           02361                           TC       TMFAIL                                #  TOO FREQUENTLY. THE COUNTER IS SET TO +7
000031:
000032:    2304           44505                           CS       BIT10                                 #  BLOCK TM ENDPULSES UNTIL  ERROR RESET
000033:    2305           70011                           MASK     OUT1                                  #  COMMAND IS GIVEN.
000034:    2306           64505                           AD       BIT10
000035:    2307           50011                           TS       OUT1
000036:
000037:    2310           02213                           TC       NBRESUME                              #  BY DSRUPT EVERY 120 MS.
000038:
000039:    2311           50675        DOWNTMOK           TS       TELCOUNT                              #  NORMAL MODE - STORE DECREMENTED COUNT.
000040:
000041:    2312           10676                           CCS      DISPBUF
000042:    2313           02315                           TC       +2
000043:    2314           02324                           TC       CHARTEST
000044:
000045:    2315           35500                           CAF      ZERO
000046:    2316           30676                           XCH      DISPBUF
000047:
000048:    2317           50014        DATADWNF           TS       OUT4
000049:    2320           44506                           CS       BIT9
000050:    2321           70011                           MASK     OUT1
000051:    2322           50011                           TS       OUT1
000052:    2323           02213                           TC       NBRESUME                              #  NO BANK SWITCH REQUIRED.
000053:
000054:    2324           10702        CHARTEST           CCS      TMKEYBUF
000055:    2325           02327                           TC       +2
000056:    2326           02332                           TC       DATA/ID
000057:
000058:    2327           35500                           CAF      ZERO
000059:    2330           30702                           XCH      TMKEYBUF
000060:    2331           02317                           TC       DATADWNF
000061:
000062:    2332           10700        DATA/ID            CCS      IDPLACER
000063:    2333           02335                           TC       +2
000064:    2334           02354                           TC       IDNEXT
000065:
000066:    2335           50700                           TS       IDPLACER
000067:    2336           10701                           CCS      TMINDEX
000068:    2337           02341                           TC       +2
000069:    2340           32366                           CAF      DNLST1SZ
000070:    2341           50701                           TS       TMINDEX
000071:
000072:    2342           20000                           INDEX    A
000073:    2343           22367                           INDEX    DNLST1
000074:    2344           40000                           CS       0
000075:    2345           40000                           COM
000076:    2346           50014                           TS       OUT4
000077:    2347           44506                           CS       BIT9
000078:    2350           70011                           MASK     OUT1
000079:    2351           64506                           AD       BIT9
000080:    2352           50011                           TS       OUT1
000081:    2353           02213                           TC       NBRESUME
000082:
000083:    2354           60701        IDNEXT             AD       TMINDEX
000084:    2355           50014                           TS       OUT4
000085:    2356           35501                           CAF      FOUR
000086:    2357           50700                           TS       IDPLACER
000087:    2360           02320                           TC       DATADWNF   +1
000088:
000089:                                                                                                  #        SUBROUTINE COMMON TO UPLINK AND DOWNLINK TO TURN ON THE TM FAIL LIGHT.
000090:
000091:    2361           44513        TMFAIL             CS       BIT4
000092:    2362           70011                           MASK     OUT1
000093:    2363           64513                           AD       BIT4
000094:    2364           50011                           TS       OUT1
000095:    2365           00001                           TC       Q
000096:
000097:    2366           00037        DNLST1SZ           DEC      31         B-14
000098:
000099:    2367           00036        DNLST1             ADRES    TIME1
000100:    2370           00035                           ADRES    TIME2
000101:    2371           00004                           ADRES    IN0
000102:    2372           00006                           ADRES    IN2
000103:    2373           00007                           ADRES    IN3
000104:    2374           00011                           ADRES    OUT1
000105:    2375           01273                           ADRES    RRECT
000106:    2376           01274                           ADRES    RRECT      +1
000107:    2377           01275                           ADRES    RRECT      +2
000108:    2400           01276                           ADRES    RRECT      +3
000109:    2401           01277                           ADRES    RRECT      +4
000110:    2402           01300                           ADRES    RRECT      +5
000111:    2403           01327                           ADRES    TDELTAV
000112:    2404           01330                           ADRES    TDELTAV    +1
000113:    2405           01331                           ADRES    TDELTAV    +2
000114:    2406           01332                           ADRES    TDELTAV    +3
000115:    2407           01333                           ADRES    TDELTAV    +4
000116:    2410           01334                           ADRES    TDELTAV    +5
000117:    2411           01301                           ADRES    VRECT
000118:    2412           01302                           ADRES    VRECT      +1
000119:    2413           01303                           ADRES    VRECT      +2
000120:    2414           01304                           ADRES    VRECT      +3
000121:    2415           01305                           ADRES    VRECT      +4
000122:    2416           01306                           ADRES    VRECT      +5
000123:    2417           01335                           ADRES    TNUV
000124:    2420           01336                           ADRES    TNUV       +1
000125:    2421           01337                           ADRES    TNUV       +2
000126:    2422           01340                           ADRES    TNUV       +3
000127:    2423           01341                           ADRES    TNUV       +4
000128:    2424           01342                           ADRES    TNUV       +5
000129:    2425           00722                           ADRES    GYROD      +5
000130:    2426           00720                           ADRES    GYROD      +3

End of include-file DOWN-TELEMETRY_PROGRAM.agc.  Parent file is MAIN.agc


