
Source Code


000002:                                                                                                  ## Copyright:   Public domain.
000003:                                                                                                  ## Filename:    ERASABLE_ASSIGNMENTS.agc
000004:                                                                                                  ## Purpose:     A section of Sunrise 69.
000005:                                                                                                  ##              It is part of the reconstructed source code for the final
000006:                                                                                                  ##              release of the Block I Command Module system test software. No
000007:                                                                                                  ##              original listings of this program are available; instead, this
000008:                                                                                                  ##              file was created via disassembly of dumps of Sunrise core rope
000009:                                                                                                  ##              memory modules and comparison with the later Block I program
000010:                                                                                                  ##              Solarium 55.
000011:                                                                                                  ## Assembler:   yaYUL --block1
000012:                                                                                                  ## Contact:     Ron Burkey <info@sandroid.org>.
000013:                                                                                                  ## Website:     www.ibiblio.org/apollo/index.html
000014:                                                                                                  ## Mod history: 2023-06-19 MAS  Created from Sunrise 45.
000015:                                                                                                  ##              2023-06-21 MAS  Added new erasable definitions needed for
000016:                                                                                                  ##                              Sunrise 69's tests.
000017:
000018:
000019:                                                                                                  #  COUNTER AND SPECIAL REGISTER TAGS
000020:                                                                                                  #  ------- --- ------- -------- ----
000021:
000022: ???????                        A                  EQUALS   0
000023: ???????                        Q                  EQUALS   1
000024: ???????                        Z                  EQUALS   2
000025: ???????                        LP                 EQUALS   3
000026: ???????                        IN0                EQUALS   4
000027: ???????                        IN1                EQUALS   5
000028: ???????                        IN2                EQUALS   6
000029: ???????                        IN3                EQUALS   7
000030: ???????                        OUT0               EQUALS   10
000031: ???????                        OUT1               EQUALS   11
000032: ???????                        OUT2               EQUALS   12
000033: ???????                        OUT4               EQUALS   14
000034: ???????                        BANKREG            EQUALS   15
000035: ???????                        RELINT             EQUALS   16
000036: ???????                        INHINT             EQUALS   17
000037: ???????                        CYR                EQUALS   20
000038: ???????                        SR                 EQUALS   21
000039: ???????                        CYL                EQUALS   22
000040: ???????                        SL                 EQUALS   23
000041: ???????                        ZRUPT              EQUALS   24
000042: ???????                        BRUPT              EQUALS   25
000043: ???????                        ARUPT              EQUALS   26
000044: ???????                        QRUPT              EQUALS   27
000045:
000046: ???????                        OVCTR              EQUALS   34
000047: ???????                        TIME2              EQUALS   35
000048: ???????                        TIME1              EQUALS   36
000049: ???????                        TIME3              EQUALS   37
000050: ???????                        TIME4              EQUALS   40
000051: ???????                        UPLINK             EQUALS   41
000052: ???????                        OUTCR1             EQUALS   42
000053: ???????                        OUTCR2             EQUALS   43
000054: ???????                        PIPAX              EQUALS   44
000055: ???????                        PIPAY              EQUALS   45
000056: ???????                        PIPAZ              EQUALS   46
000057: ???????                        CDUX               EQUALS   47
000058: ???????                        CDUY               EQUALS   50
000059: ???????                        CDUZ               EQUALS   51
000060: ???????                        OPTX               EQUALS   52
000061: ???????                        OPTY               EQUALS   53
000062:
000063:                                                                                                  #           INTERPRETIVE SPECIAL REGISTERS CONTAINED IN THE WORK AREA.
000064:
000065: ???????                        VAC                EQUALS   32D                                   #  RELATIVE TO FIXLOC
000066: ???????  0000040               VACX               EQUALS   VAC
000067: ???????  0000042               VACY               EQUALS   VAC        +          2
000068: ???????  0000044               VACZ               EQUALS   VAC        +          4
000069: ???????                        X1                 EQUALS   38D                                   #  INDEXES ARE RELATIVE TO FIXLOC
000070: ???????                        X2                 EQUALS   39D
000071: ???????                        S1                 EQUALS   40D                                   #  AND SO ARE STEP REGISTERS
000072: ???????                        S2                 EQUALS   41D
000073: ???????                        QPRET              EQUALS   42D                                   #  AS IS QPRET
000074:
000075:    0060                                           SETLOC   60
000076:
000077:                                                                                                  #           THE FOLLOWING REGISTERS ARE USED BY THE INTERPRETER, AND MAY BE USED BY A BASIC JOB OR BASIC
000078:                                                                                                  #  PORTIONS OF AN INTERPRETIVE JOB (SOME RESTRICTIONS APPEAR WITH RTB FOLLOWED BY TC DANZIG, BUT THE NINE REGISTERS
000079:                                                                                                  #  VBUF AND BUF ARE AVAILABLE THEN). THE REGISTERS ARE NOT SAVED IN THEIR ENTIRETY DURING CHANGE JOB (MOST OF THEM
000080:                                                                                                  #  ARE IGNORED), SO THAT THESE MUST BE USED ONLY AS TEMPORARIES BETWEEN ANY CCS NEWJOBS.
000081:
000082:    0060                        BANKSET            ERASE                                          #  STORAGE FOR BANK BITS OF OBJECT PROGRAM
000083:    0061                        ADDRWD             ERASE                                          #  THIS WILL CONTAIN A PROPER 12 BIT ADDR
000084:    0062                        ORDER              ERASE                                          #  STORAGE FOR RIGHT-HAND OPERATORS
000085:    0063     0062               UPDATRET           =        ORDER                                 #  RETURN FOR UPDATNN, UPDATVB
000086:    0063     0062               CHAR               =        ORDER                                 #  TEMP FOR CHARIN
000087:    0063     0062               ERCNT              =        ORDER                                 #  COUNTER FOR ERROR LIGHT RESET
000088:    0063     0062               DECOUNT            =        ORDER                                 #  COUNTER FOR SCALING AND DISPLAY (DEC)
000089:    0063                        TEM11              ERASE
000090:    0064     0063               SGNON              =        TEM11                                 #  TEMP FOR +,- ON
000091:    0064     0063               NOUNTEM            =        TEM11                                 #  COUNTER FOR MIXNOUN FETCH
000092:    0064     0063               DISTEM             =        TEM11                                 #  COUNTER FOR OCTAL DISPLAY VERBS
000093:    0064     0063               DECTEM             =        TEM11                                 #  COUNTER FOR FETCH (DEC DISPLAY VERBS)
000094:    0064     0063               DECTEM1            =        TEM11                                 #  TEMP FOR NUM
000095:    0064                        MODE               ERASE                                          #  DENOTES VECTOR, DP, OR TP.
000096:    0065     0064               ENTRET             =        MODE                                  #  EXIT FROM ENTER
000097:    0065                        LOADIND            ERASE                                          #  LOAD INDICATOR
000098:    0066     0065               NEWEQIND           EQUALS   LOADIND
000099:    0066     0065               MONTEM             =        NEWEQIND                              #  TEMP RETURN FOR MONITOR
000100:    0066                        FIXLOC             ERASE                                          #  ADDRESS OF CURRENT VAC AREA
000101:    0067                        VACLOC             ERASE                                          #  ADDRESS OF CURRENT VAC (= FIXLOC+32D)
000102:    0070                        VBUF               ERASE    +5                                    #  6 WORD TEMPORARY BLOCK FOR VXV, MXV, ETC
000103:    0076     0070               TEMQS              EQUALS   VBUF                                  #  TEMP STORAGE FOR SWCALL ROUTINE
000104:    0076     0071               BANKTEM            EQUALS   VBUF       +1                         #  LIKEWISE
000105:    0076     0072               B                  EQUALS   VBUF       +2                         #  ARGUMENT STORAGE IN FUNCTIONS
000106:    0076     0072               PROGREG            =        VBUF       +2                         #  FOR GO EXEC PROGRAM
000107:    0076     0072               MIXTEMP            =        VBUF       +2                         #  FOR MIXNOUN DATA
000108:    0076     0072               SIGNRET            =        VBUF       +2                         #  RETURN FOR +,- ON
000109:                                                                                                  #  ALSO PROGREG+1, PROGREG+2.  MIXTEMP+1, MIXTEMP+2.
000110:    0076     0074               ESCAPE2            EQUALS   VBUF       +4                         #  NEGATIVE ARGUMENT SWITCH IN ARCCOS
000111:    0076     0074               TAG1               EQUALS   VBUF       +4                         #  USED FOR PICKING UP INDEX AND STEP REGS
000112:    0076     0075               TEMQ3              EQUALS   VBUF       +5                         #  RETURN FROM DDV AND SQRTDIV
000113:    0076     0075               POLISH             EQUALS   VBUF       +5                         #  TEMPORARY STORAGE FOR COMPLETE ADDRESSES
000114:    0076     0075               WDCNT              =        VBUF       +5                         #  CHAR COUNTER FOR DSPWD
000115:    0076     0075               INREL              =        VBUF       +5                         #  INPUT BUFFER SELECTOR ( X,Y,Z, REG )
000116:    0076                        BUF                ERASE    +2                                    #  USED BY DMP1, SQRTDIV
000117:    0101     0076               LOGTEM             EQUALS   BUF                                   #  LOG SUBROUTINE TEMP.
000118:    0101     0100               SGNDMAX            EQUALS   BUF        +2                         #  USED IN TPAGREE
000119:    0101     0100               TEM3               EQUALS   BUF        +2
000120:    0101     0100               GCOMPSW            EQUALS   BUF        +2
000121:    0101                        TEM2               ERASE
000122:    0102     0101               DSREL              =        TEM2                                  #  REL ADDRESS FOR DSPIN(TEM2 USED BY DAD1)
000123:    0102                        TEM4               ERASE
000124:    0103     0102               TEMQ               EQUALS   TEM4                                  #  RETURN FROM TPAGREE
000125:    0103     0102               DSMAG              =        TEM4                                  #  MAGNITUDE STORE FOR DSPIN
000126:    0103     0102               IDADDTEM           =        TEM4                                  #  MIXNOUN INDIRECT ADDRESS STORAGE
000127:    0103                        TEM5               ERASE
000128:    0104     0103               TEMQ2              EQUALS   TEM5
000129:    0104     0103               BASE               =        TEM5
000130:    0104     0103               COUNT              =        TEM5                                  #  FOR DSPIN  (TEM5 IS USED BY DAD)
000131:    0104                        TEM8               ERASE
000132:    0105     0104               TEM6               EQUALS   TEM8                                  #  ERASABLE ASSIGNMENTS BY EQUALS
000133:    0105                        TEM9               ERASE
000134:    0106     0105               WRDRET             =        TEM9                                  #  RETURN FOR 5BLANK
000135:    0106     0105               WDRET              =        TEM9                                  #  RETURN FOR DSPWD
000136:    0106     0105               DECRET             =        TEM9                                  #  RETURN FOR PUTCOM(DEC LOAD)
000137:    0106     0105               21/22REG           =        TEM9                                  #  TEMP FOR CHARIN
000138:    0106                        TEM10              ERASE
000139:    0107     0106               IND                EQUALS   TEM10                                 #  USED IN CROSS ROUTINE
000140:    0107     0106               MIXBR              =        TEM10                                 #  INDICATOR FOR MIXED OR NORMAL NOUN
000141:    0107     0106               DSPMMTEM           =        TEM10                                 #  DSPCOUNT SAVE FOR DSPMM
000142:    0107                        DVSW               ERASE                                          #  (THIS CAN PROBABLY BE EQUATED)
000143:    0110     0107               SGNOFF             =        DVSW                                  #  TEMP FOR +,- ON
000144:    0110     0107               NVTEMP             =        DVSW                                  #  TEMP FOR NVSUB
000145:    0110     0107               SFTEMP1            =        DVSW                                  #  STORAGE FOR SF CONST HI PART(=SFTEMP2-1)
000146:    0110     0107               DECTEM2            =        DVSW                                  #  TEMP FOR NUM
000147:    0110                        BRANCHQ            ERASE                                          #  (DITTO)
000148:    0111     0110               CODE               =        BRANCHQ                               #  FOR DSPIN
000149:    0111     0110               SFTEMP2            =        BRANCHQ                               #  STORAGE FOR SF CONST LO PART(=SFTEMP1+1)
000150:    0111                        COMPON             ERASE                                          #  (DITTO)
000151:    0112     0111               DSEXIT             =        COMPON                                #  RETURN FOR DSPIN
000152:    0112     0111               EXITEM             =        COMPON                                #  RETURN FOR SCALE FACTOR ROUTINE SELECT
000153:    0112     0111               BLANKRET           =        COMPON                                #  RETURN FOR 2BLANK
000154:    0112                        ARETURN            ERASE                                          #  RETURN ADDRESS FOR ARCSIN/ARCCOS.
000155:    0113     0112               LSTPTR             =        ARETURN                               #  LIST POINTER FOR GRABUSY
000156:    0113     0112               RELRET             =        ARETURN                               #  RETURN FOR RELDSP
000157:    0113     0112               FREERET            =        ARETURN                               #  RETURN FOR FREEDSP
000158:
000159:    0113                        ESCAPE             ERASE                                          #  ARCSIN/ARCCOS SWITCH
000160:    0114     0113               CADRTEM            =        ESCAPE                                #  TEMP STORAGE FOR GRAB ROUTINES
000161:
000162:                                                                                                  #        THE FOLLOWING REGISTERS ARE USED EXCLUSIVELY BY THE EXECUTIVE.
000163:    0114                        MPAC               ERASE    +2                                    #  MULTIPLE-PRECISION ACCUMULATOR
000164:    0117                        LOC                ERASE                                          #  LOCATION COUNTER FOR OPERATOR WORDS
000165:    0120                        ADRLOC             ERASE                                          #  LOCATION COUNTER FOR OPERAND ADDRESSES
000166:    0121                        OVFIND             ERASE                                          #  0 FOR NO OVERFLOW, NON-ZERO OTHERWISE
000167:    0122                        PUSHLOC            ERASE                                          #  NEXT AVAILABLE ENTRY IN PUSH-DOWN LIST
000168:    0123                        PRIORITY           ERASE                                          #  PRIORITY OF CURRENT JOB
000169:
000170:    0124                                           ERASE    +55D                                  #  EIGHT JOBS POSSIBLE
000171:
000172:    0214                        VAC1USE            ERASE                                          #  SEE EXECUTIVE PROGRAMS FOR USE OF THESE
000173:    0215                        VAC1               ERASE    +42D                                  #  REGISTERS
000174:    0270                        VAC2USE            ERASE
000175:    0271                        VAC2               ERASE    +42D
000176:    0344                        VAC3USE            ERASE
000177:    0345                        VAC3               ERASE    +42D
000178:    0420                        VAC4USE            ERASE
000179:    0421                        VAC4               ERASE    +42D
000180:    0474                        VAC5USE            ERASE
000181:    0475                        VAC5               ERASE    +42D
000182:
000183:    0550                        NEWJOB             ERASE                                          #  SET NON-ZERO TO SIGNAL EXECUTIVE RUPT
000184:
000185:                                                                                                  #        THE FOLLOWING REGISTERS ARE USED EXCLUSIVELY BY THE WAITLISTER.
000186:
000187:    0551                        LST1               ERASE    +4                                    #  DELTA T'S.
000188:    0556                        LST2               ERASE    +5                                    #  TASK CADRS.
000189:    0564                        RUPTAGN            ERASE                                          #  WAITLIST ADDITIONAL TASK INDICATOR.
000190:
000191:    0565     0564               KEYTEMP2           =        RUPTAGN                               #  TEMP FOR KEYRUPT, UPRUPT
000192:
000193:                                                                                                  #        THE FOLLOWING GROUP OF REGISTERS MAY BE USED AS TEMPORARY STORAGE BY ANY INTERRUPT PROGRAM OR BY ANY
000194:                                                                                                  #  PROGRAM WHICH INHIBITS INTERRUPT. CARE MUST BE TAKEN, HOWEVER, TO SEE THAT THEY ARE NOT USED DURING A CALL
000195:                                                                                                  #  TO THE EXECUTIVE (FOR EXAMPLE), FOR THE EXECUTIVE MAY USE THEM AS TEMPORARIES TOO.
000196:
000197:    0565                        EXECTEM1           ERASE                                          #  THESE REGISTERS, EXECTEM1-3, MAY BE USED
000198:    0566     0565               RUPTSTOR           =        EXECTEM1
000199:    0566     0565               PHASE              =        EXECTEM1
000200:    0566     0565               IN1HITEM           =        EXECTEM1                              #  INTERRUPT TEMP FOR STANDBY PREP
000201:    0566                        EXECTEM2           ERASE                                          #  AS SCRATCH STORAGE BY ANY PROGRAM WHICH
000202:    0567     0566               PROG               EQUALS   EXECTEM2
000203:    0567     0566               IN1LOTEM           =        EXECTEM2                              #  INTERRUPT TEMP FOR STANDBY PREP
000204:    0567                        EXECTEM3           ERASE                                          #  INHIBITS INTERRUPTS
000205:    0570     0567               ITEMP3             EQUALS   EXECTEM3
000206:    0570     0567               SRRUPT             EQUALS   EXECTEM3                              #  SHORT STORAGE FOR SR DURING INTERRUPT.
000207:    0570     0567               LOOKRET            =        EXECTEM3                              #  INTERRUPT TEMP FOR STANDBY PREP
000208:    0570     0567               PHASEDIG           =        EXECTEM3
000209:    0570                        EXECTEM4           ERASE
000210:    0571     0570               PHASELP            =        EXECTEM4
000211:    0571                        EXECTEM5           ERASE                                          #  BANK RETURN FROM PHASE CONTROL.
000212:    0572                        NEWPRIO            ERASE                                          #  PRIORITY OF NEW JOB
000213:    0573     0572               NVAL               =        NEWPRIO
000214:    0573     0572               DELT               =        NVAL
000215:    0573     0572               ITEMP1             =        NEWPRIO
000216:    0573     0572               PHASEWD            =        NEWPRIO
000217:    0573                        WTEXIT             ERASE
000218:    0574     0573               ITEMP2             =        WTEXIT
000219:    0574     0573               KEYTEMP1           =        WTEXIT                                #  TEMP FOR KEYRUPT, UPRUPT
000220:    0574     0573               DSRUPTEM           =        WTEXIT                                #  TEMP FOR DSPOUT
000221:    0574                        LOCCTR             ERASE                                          #  USED TO LOCATE STORAGE FOR CORE REGISTRS
000222:    0575     0574               PHASDATA           EQUALS   LOCCTR
000223:
000224:    0575                        BANKRUPT           ERASE
000225:    0576                        OVRUPT             ERASE
000226:    0577                        LPRUPT             ERASE
000227:
000228:                                                                                                  #  LONG-TERM STORAGE USED DURING INTERUPT, NOT USED BY EXECUTIVE, WAITLIST, ETC.
000229:
000230:    0600                        RUPTREG1           ERASE
000231:    0601     0600               KSAMPTEM           EQUALS   RUPTREG1
000232:    0601                        RUPTREG2           ERASE
000233:    0602     0601               OSAMPTEM           EQUALS   RUPTREG2
000234:    0602                        RUPTREG3           ERASE
000235:    0603                        RUPTREG4           ERASE
000236:
000237:                                                                                                  #  ERASABLE ASSIGNMENTS SPECIFIC TO PINBALL
000238:
000239:    0612                                           SETLOC   612
000240:    0612                        VERBREG            ERASE                                          #  VERB CODE
000241:    0613                        NOUNREG            ERASE                                          #  NOUN CODE
000242:    0614                        XREG               ERASE                                          #  R1 INPUT BUFFER
000243:    0615                        YREG               ERASE                                          #  R2 INPUT BUFFER
000244:    0616                        ZREG               ERASE                                          #  R3 INPUT BUFFER
000245:    0617                        XREGLP             ERASE                                          #  LO PART OF XREG (FOR DEC CONV ONLY)
000246:    0620                        YREGLP             ERASE                                          #  LO PART OF YREG (FOR DEC CONV ONLY)
000247:    0621                        ZREGLP             ERASE                                          #  LO PART OF ZREG (FOR DEC CONV ONLY)
000248:    0622                        MODREG             ERASE                                          #  MODE CODE
000249:    0623                        DSPLOCK            ERASE                                          #  KEYBOARD/SUBROUTINE CALL INTERLOCK
000250:    0624                        REQRET             ERASE                                          #  RETURN REGISTER FOR LOAD
000251:    0625                        DSPCOUNT           ERASE                                          #  DISPLAY POSITION INDICATOR
000252:    0626                        DECBRNCH           ERASE                                          #  +DEC, - DEC, OCT INDICATOR
000253:    0627                        DSPTEM1            ERASE    +2                                    #  BUFFER STORAGE AREA 1 (MOSTLY FOR TIME)
000254:    0632                        DSPTEM2            ERASE    +2                                    #  BUFFER STORAGE AREA 2 (MOSTLY FOR DEG)
000255:    0635                        NOUNADD            ERASE                                          #  MACHINE ADDRESS FOR NOUN
000256:    0636                        MONSAVE            ERASE                                          #  N/V CODE FOR MONITOR. ALSO ACTIVITY
000257:    0637                        MONSAVE1           ERASE                                          #  NOUNADD STORAGE FOR MONITOR WITH MATBS
000258:    0640                        CADRSTOR           ERASE                                          #  ENDIDLE STORAGE
000259:    0641                        GRABLOCK           ERASE                                          #  INTERNAL INTERLOCK FOR DISPLAY SYSTEM
000260:    0642                        NVBNKTEM           ERASE                                          #  NVSUB STORAGE FOR CALLING BANK
000261:    0643                        IN0WORD            ERASE                                          #  INPUT CODE STORAGE (KEYRUPT OR UPRUPT)
000262:    0644                        NVQTEM             ERASE                                          #  NVSUB STORAGE FOR CALLING Q
000263:    0645                        LOADSTAT           ERASE                                          #  STATUS INDICATOR FOR LOADTST
000264:    0646                        CLPASS             ERASE                                          #  PASS INDICATOR FOR CLEAR
000265:    0647                        DSPLIST            ERASE    +2                                    #  WAITING LIST FOR DSP SYST INTERNAL USE
000266:
000267:
000268:                                                                                                  #        INTERPRETER SWITCH ASSIGNMENTS.
000269:
000270:    0652                        STATE              ERASE    +2                                    #  45 SWITCHES USED BY INTERPRETIVE PROGS.
000271:
000272:    0655     0653               FLAGWRD1           EQUALS   STATE      +1
000273:    0655     0654               FLAGWRD2           EQUALS   STATE      +2
000274:
000275:    0655                        JSWITCH            EQUALS   1                                     #  FREE-FALL INTEGRATION.
000276:    0655                        NBSMBIT            EQUALS   5                                     #  IN-FLIGHT ALIGNMENT.
000277:
000278:                                                                                                  #        STORAGE USED BY PHASE CONTROL.
000279:
000280:    0655                        PHASETAB           ERASE    +3                                    #  PHASE VALUES FOR 4 PROGRAMS
000281:    0661                        BACKPHAS           ERASE    +3
000282:    0665                        PHASEBAR           ERASE    +3                                    #  COMPLEMENTED COPY.
000283:    0671                        PWTPROG            ERASE    +1
000284:    0673                        PWTCADR            ERASE    +1
000285:
000286:                                                                                                  #        THE FOLLOWING REGISTERS ARE USED BY THE DOWNRUPT PROGRAM.
000287:
000288:    0675                        TELCOUNT           ERASE                                          #  ENDPULSE FREQUENCY MONITORING COUNTER.
000289:    0676                        DISPBUF            ERASE
000290:    0677                        DNLSTADR           ERASE
000291:    0700                        IDPLACER           ERASE
000292:    0701                        TMINDEX            ERASE
000293:    0702                        TMKEYBUF           ERASE
000294:
000295:
000296:                                                                                                  #        THE FOLLOWING STORAGE IS USED BY T4RUPT.
000297:
000298:    0703                        DSRUPTSW           ERASE                                          #  T4RUPT PHASE COUNT GOES 7(-1)0
000299:    0704                        CDUIND             ERASE                                          #  IMU CDU STATUS INDICATOR AND INDEXER.
000300:    0705                        THETAD             ERASE    +2                                    #  SET OF THREE DEISRED ANGLES IN 2S COMPL.
000301:    0710     0705               PRELXGA            =        THETAD
000302:    0710     0706               PRELYGA            =        THETAD     +1
000303:    0710     0707               PRELZGA            =        THETAD     +2
000304:    0710                        COMMAND            ERASE    +2                                    #  LAST COMMANDS TO CDUS.
000305:    0713                        KG                 ERASE                                          #  CDU DRIVING GAIN.
000306:    0714                        KH                 ERASE                                          #  CDU DRIVING GAIN.
000307:    0715                        GYROD              ERASE    +5                                    #  GYRO PULSE TRAIN COMMANDS.
000308:    0723                        OPTIND             ERASE                                          #  OPTICS CDU STATUS INDICATOR AND INDEXER.
000309:    0724                        DESOPTX            ERASE    +1                                    #  DESIRED OPTICS CDU ANGLES.
000310:
000311:    0726                        DSPCNT             ERASE                                          #  STEPS THROUGH K-RELAY SLOTS IN DSPTAB.
000312:    0727                        NOUT               ERASE                                          #  HOLDS NUMBER OF RELAY WORDS TO CHANGE.
000313:    0730                        DSPTAB             ERASE    +13D                                  #  HOLDS STATE OF ALL RELAYS AND CHANGE INF
000314:
000315:    0746                        OLDERR             ERASE                                          #  LAST-SAMPLED SYSTEM ERROR BITS.
000316:                                                                                                  #        THE BITS OF OLDERR HAVE THE FOLLOWING MEANINGS:
000317:
000318:                                                                                                  #  BIT  1 = 1 IF THE PILOTS ATTITUDE BUTTON IS DEPRESSED.
000319:                                                                                                  #  BIT  2 = 1 IF RESTART FAILED (AND DID A FRESH START).
000320:                                                                                                  #  BIT  3 = 1 IF BIT 4 OF OUT1 WAS NOT INVERTED LAST NWJOB.
000321:                                                                                                  #  BIT  4 = 1 TO INHIBIT IMU FAIL FOR 5 SECONDS AFTER COARSE ALIGN.
000322:                                                                                                  #  BIT  5 = 1 IF CURTAINS CALLED (IMU MODING FAILURE, ETC.)
000323:                                                                                                  #  BIT 10 = 1 IF CDU FAIL IS ON IN FINE ALIGN.
000324:                                                                                                  #  BIT 11 = 1 IF PIPA FAIL IS ON.
000325:                                                                                                  #  BIT 12 = 1 IF IMU FAIL IS ON IN ANY MODE BUT COARSE ALIGN.
000326:
000327:                                                                                                  #        IN FLIGHT 501, BITS 2, 5, 11, AND 12 INHIBIT MAINTENANCE OF THE NIGHT WATCHMAN ALARM
000328:                                                                                                  #  SO THAT IF THEY ARE PRESENT FOR 2 CONSECUTIVE NWJOBS, G & N FAIL WILL BE SENT TO THE MCP.
000329:
000330:    0747                        WASKSET            ERASE                                          #  LAST SETTING OF IMU MODE SWITCHES.
000331:    0750                        WASOPSET           ERASE                                          #  LAST SETTING OF OPTICS MODE SWITCHES.
000332:
000333:    0751                        DESKSET            ERASE                                          #  DESIRED SETTING OF IMU MODE SWITCHES.
000334:    0752                        DESOPSET           ERASE                                          #  DESIRED OPTICS MODES.
000335:
000336:                                                                                                  #        THE FOLLOWING REGISTERS ARE USED BY THE MODE SWITCHING AND MARK PROGRAMS.
000337:
000338:    0753                        IMUCADR            ERASE                                          #  USED BY IMUSTALL.
000339:    0754     0753               MODECADR           EQUALS   IMUCADR                               #  FOR INDEXING PURPOSES.
000340:    0754                        OPTCADR            ERASE                                          #  USED BY OPTSTALL.
000341:
000342:    0755                        MARKSTAT           ERASE                                          #  MARK BUTTON STATUS REGISTER.
000343:
000344:    0756                        FAILREG            ERASE
000345:
000346:                                                                                                  #        THE FOLLOWING STORAGE IS TIME-SHARED BY MISSION PROGRAMS UNDER THE SUPERVISION OF MASTER COMTROL. IT IS
000347:                                                                                                  #  ORGANIZED INTO THREE PARTS REFERRED TO AS A MEMORY, B MEMORY, AND C MEMORY. A PARTICULAR MISSION PHASE IS
000348:                                                                                                  #  ASSIGNED TO ONE OF THE SEGMENTS IN SUCH A WAY THAT NO OTHER MISSION PHASE USING THE SAME SEGMENT WILL EVER RUN
000349:                                                                                                  #  CONCURRENTLY; E.G., RE-ENTRY WILL NEVER RUN CONCURRENT WITH TVC. THE NUMBER OF AREAS (3) IS DETERMINED BY THE
000350:                                                                                                  #  MAXIMUM NUMBER OF DISTINCT MISSION PROGRAMS WHICH RUN SIMULTANEOUSLY.
000351:
000352:                                                                                                  #        A MEMORY IS USED BY PRELAUNCH AND IN-FLIGHT ALIGNMENTS. B MEMORY IS USED BY MID-COURSE DURING FREE-FALL
000353:                                                                                                  #  PORTIONS OF THE MISSION. THE C MEMORY PORTION IS USED THROUGHOUT MOST OF THE MISSION FOR THE MIDCOURSE ERROR
000354:                                                                                                  #  TRANSITION MATRIX W. THE EXCEPTION IS SYSTEM TEST, ASSIGNED TO A MEMORY, WHICH NEVER RUNS CONCURRENTLY WITH
000355:                                                                                                  #  MISSION PROGRAMS.
000356:
000357:    0757                        AMEMORY            ERASE    +152D
000358:    1210                        BMEMORY            ERASE    +166D
000359:    1457                        CMEMORY            ERASE    +71D
000360:
000361:
000362:                                                                                                  #        A MEMORY ASSIGNMENTS FOR PRE-LAUNCH ALIGNMENT.
000363:    1567     0757               GYROCSW            EQUALS   AMEMORY    +000D
000364:    1567     0760               DRIFTY             EQUALS   AMEMORY    +001D
000365:    1567     0761               DRIFTZ             EQUALS   AMEMORY    +002D
000366:    1567     0762               DRIFTX             EQUALS   AMEMORY    +003D
000367:    1567     0763               LATITUDE           EQUALS   AMEMORY    +004D
000368:    1567     0765               AZIMUTH            EQUALS   AMEMORY    +006D
000369:    1567     0767               PRELTEMP           EQUALS   AMEMORY    +008D
000370:
000371:
000372:                                                                                                  #        THE FOLLOWING LOCATIONS ARE USED BY IN-FLIGHT ALIGNMENT:
000373:    1567     0770               STARAD             EQUALS   AMEMORY    +009D
000374:    1567     0770               XNB                EQUALS   AMEMORY    +009D
000375:    1567     0776               YNB                EQUALS   AMEMORY    +015D
000376:    1567     1004               ZNB                EQUALS   AMEMORY    +021D
000377:    1567     1004               STAR               EQUALS   AMEMORY    +021D
000378:    1567     1012               XSM                EQUALS   AMEMORY    +027D
000379:    1567     1020               YSM                EQUALS   AMEMORY    +033D
000380:    1567     1026               ZSM                EQUALS   AMEMORY    +039D
000381:    1567     1034               XDC                EQUALS   AMEMORY    +045D
000382:    1567     1034               XDSMPR             EQUALS   AMEMORY    +045D
000383:    1567     1042               YDC                EQUALS   AMEMORY    +051D
000384:    1567     1042               YDSMPR             EQUALS   AMEMORY    +051D
000385:    1567     1050               ZDC                EQUALS   AMEMORY    +057D
000386:    1567     1050               ZDSMPR             EQUALS   AMEMORY    +057D
000387:    1567     1056               OGC                EQUALS   AMEMORY    +063D
000388:    1567     1056               SAC                EQUALS   AMEMORY    +063D
000389:    1567     1060               IGC                EQUALS   AMEMORY    +065D
000390:    1567     1060               PAC                EQUALS   AMEMORY    +065D
000391:    1567     1062               MGC                EQUALS   AMEMORY    +067D
000392:
000393:
000394:                                                                                                  #        SYSTEM TEST A MEMORY USAGE:
000395:
000396:    1567     0757               COUNTPL            EQUALS   AMEMORY    +000D
000397:    1567     0765               PIPINDEX           EQUALS   AMEMORY    +006D
000398:    1567     1064               GENPLACE           EQUALS   AMEMORY    +069D
000399:    1567     1204               PIPANO             EQUALS   AMEMORY    +149D
000400:    1567     1205               POSITON            EQUALS   AMEMORY    +150D
000401:    1567     1206               RESULTCT           EQUALS   AMEMORY    +151D
000402:    1567     1207               QPLACE             EQUALS   AMEMORY    +152D
000403:
000404:
000405:                                                                                                  #        THE FOLLOWING B MEMORY LOCATIONS ARE USED BY MID-COURSE NAVIGATION:
000406:
000407:    1567     1210               FDSPWAIT           EQUALS   BMEMORY    +000D
000408:    1567     1211               STEPEXIT           EQUALS   BMEMORY    +001D
000409:    1567     1212               DIFEQCNT           EQUALS   BMEMORY    +002D
000410:    1567     1213               SCALEA             EQUALS   BMEMORY    +003D
000411:    1567     1214               SCALEB             EQUALS   BMEMORY    +004D
000412:    1567     1215               SCALEDT            EQUALS   BMEMORY    +005D
000413:    1567     1216               SCALDELT           EQUALS   BMEMORY    +006D
000414:    1567     1217               SCALER             EQUALS   BMEMORY    +007D
000415:    1567     1220               PBODY              EQUALS   BMEMORY    +008D
000416:    1567     1221               FBRANCH            EQUALS   BMEMORY    +009D
000417:    1567     1222               HBRANCH            EQUALS   BMEMORY    +010D
000418:    1567     1223               FLSTPHAS           EQUALS   BMEMORY    +011D
000419:    1567     1224               GMODE              EQUALS   BMEMORY    +012D
000420:    1567     1225               BETAM              EQUALS   BMEMORY    +013D
000421:    1567     1227               VECTAB             EQUALS   BMEMORY    +015D
000422:    1567     1273               RRECT              EQUALS   BMEMORY    +051D
000423:    1567     1301               VRECT              EQUALS   BMEMORY    +057D
000424:    1567     1307               ALPHAM             EQUALS   BMEMORY    +063D
000425:    1567     1311               TC                 EQUALS   BMEMORY    +065D
000426:    1567     1313               TAU                EQUALS   BMEMORY    +067D
000427:    1567     1315               TETDISP            EQUALS   BMEMORY    +069D
000428:    1567     1317               TET                EQUALS   BMEMORY    +071D
000429:    1567     1321               ENDTET             EQUALS   BMEMORY    +073D
000430:    1567     1323               DT/2               EQUALS   BMEMORY    +075D
000431:    1567     1325               H                  EQUALS   BMEMORY    +077D
000432:    1567     1327               TDELTAV            EQUALS   BMEMORY    +079D
000433:    1567     1335               TNUV               EQUALS   BMEMORY    +085D
000434:    1567     1343               YV                 EQUALS   BMEMORY    +091D
000435:    1567     1351               ZV                 EQUALS   BMEMORY    +097D
000436:    1567     1357               RCV                EQUALS   BMEMORY    +103D
000437:    1567     1357               FOUNDR             EQUALS   BMEMORY    +103D
000438:    1567     1365               VCV                EQUALS   BMEMORY    +109D
000439:    1567     1365               FOUNDV             EQUALS   BMEMORY    +109D
000440:    1567     1373               ALPHAV             EQUALS   BMEMORY    +115D
000441:    1567     1401               BETAV              EQUALS   BMEMORY    +121D
000442:    1567     1407               PHIV               EQUALS   BMEMORY    +127D
000443:    1567     1415               PSIV               EQUALS   BMEMORY    +133D
000444:    1567     1423               FV                 EQUALS   BMEMORY    +139D
000445:    1567     1431               RDISP              EQUALS   BMEMORY    +145D
000446:    1567     1437               VDISP              EQUALS   BMEMORY    +151D
000447:    1567     1447               XKEPHI             EQUALS   BMEMORY    +159D
000448:    1567     1451               XKEPLO             EQUALS   BMEMORY    +161D
000449:    1567     1453               XSTOREX            EQUALS   BMEMORY    +163D
000450:    1567     1455               ASQ                EQUALS   BMEMORY    +165D
000451:
000452:
000453:                                                                                                  #        THE FOLLOWING IS THE MIDCOURSE 6X6 ERROR TRANSITION MATRIX:
000454:
000455:    1567     1457               W                  EQUALS   CMEMORY    +000D
000456:
000457:
000458:                                                                                                  #        THE FOLLOWING STORAGE IS USED BY SELF-CHECK
000459:
000460:    1567                        SMODE              ERASE
000461:    1570                        SFAIL              ERASE
000462:    1571                        SCOUNT             ERASE    +1
000463:    1573                        SKEEP1             ERASE
000464:    1574                        SKEEP2             ERASE
000465:    1575                        SKEEP3             ERASE
000466:    1576                        SKEEP4             ERASE
000467:    1577                        SKEEP5             ERASE
000468:    1600                        SKEEP6             ERASE
000469:    1601                        OKREG              ERASE
000470:
000471:                                                                                                  #        SYSTEM TEST A MEMORY USAGE:
000472:
000473:    1602     0760               LTSTNDX            EQUALS   AMEMORY    +001D
000474:    1602     0761               CDUNDX             EQUALS   AMEMORY    +002D
000475:    1602     0762               NBPOS              EQUALS   AMEMORY    +003D
000476:    1602     0767               PIPINDX2           EQUALS   AMEMORY    +008D
000477:    1602     1064               GENPL              EQUALS   AMEMORY    +069D
000478:    1602     1173               MKSTAT1            EQUALS   AMEMORY    +140D
000479:    1602     1174               VACADR             EQUALS   AMEMORY    +141D
000480:    1602     1176               STOREPL            EQUALS   AMEMORY    +143D
000481:    1602     1176               COAROFIN           EQUALS   AMEMORY    +143D
000482:    1602     1177               TESTNDX            EQUALS   AMEMORY    +144D
000483:    1602     1200               BUBBLE             EQUALS   AMEMORY    +145D
000484:    1602     1201               TESTTIME           EQUALS   AMEMORY    +146D
000485:    1602     1202               MAXPTS2            EQUALS   AMEMORY    +147D
000486:    1602     1203               QPLAC              EQUALS   AMEMORY    +148D
000487:    1602     1206               NDXCTR             EQUALS   AMEMORY    +151D
000488:
000489:                                                                                                  #        SYSTEM TEST B MEMORY USAGE:
000490:
000491:    1602     1210               DATAPL             EQUALS   BMEMORY    +000D
000492:    1602     1210               TESTNO             EQUALS   BMEMORY    +000D
000493:    1602     1211               SAVE               EQUALS   BMEMORY    +001D
000494:    1602     1212               PLOW               EQUALS   BMEMORY    +002D
000495:    1602     1213               PIPNDX             EQUALS   BMEMORY    +003D
000496:    1602     1213               PTS                EQUALS   BMEMORY    +003D
000497:    1602     1213               CUSSANG            EQUALS   BMEMORY    +003D
000498:    1602     1214               NEGCDU1            EQUALS   BMEMORY    +004D
000499:    1602     1215               NEGCDU2            EQUALS   BMEMORY    +005D
000500:    1602     1215               RUN                EQUALS   BMEMORY    +005D
000501:    1602     1216               LOCNO              EQUALS   BMEMORY    +006D
000502:    1602     1217               CALCDIR            EQUALS   BMEMORY    +007D
000503:    1602     1225               TEMDELV            EQUALS   BMEMORY    +013D
000504:    1602     1227               YSM2               EQUALS   BMEMORY    +015D
000505:    1602     1227               TAR1POS            EQUALS   BMEMORY    +015D
000506:    1602     1235               TAR2POS            EQUALS   BMEMORY    +021D
000507:    1602     1243               TAR3POS            EQUALS   BMEMORY    +027D
000508:    1602     1251               TAR4POS            EQUALS   BMEMORY    +033D
000509:    1602     1325               EROPTN             EQUALS   BMEMORY    +077D
000510:    1602     1437               VMARK              EQUALS   BMEMORY    +151D
000511:    1602     1445               TMARK              EQUALS   BMEMORY    +157D
000512:
000513:                                                                                                  #  THE FOLLOWING STORAGE IS RESERVED EXCLUSIVELY FOR SELF-CHECK
000514:
000515:    1602                        SELFERAS           ERASE    1761       -          1777
000516:    1602                        S2MODE             =        1762
000517:    1602                        QADRS              =        1763
000518:    1602                        S2FAIL             =        1764
000519:    1602                        ER2COUNT           =        1765
000520:    1602                        S2COUNT            =        1766
000521:    1602                        S2KEEP1            =        1771
000522:    1602                        S2KEEP2            =        1772
000523:    1602                        S2KEEP3            =        1773
000524:    1602                        S2KEEP4            =        1774
000525:    1602                        S2KEEP5            =        1775
000526:    1602                        S2KEEP6            =        1776
000527:    1602                        S2KEEP7            EQUALS   1777

End of include-file ERASABLE_ASSIGNMENTS.agc.  Parent file is MAIN.agc


