
Source Code


000002:                                                                                                  ## Copyright:   Public domain.
000003:                                                                                                  ## Filename:    IMU_PERFORMANCE_TESTS_1.agc
000004:                                                                                                  ## Purpose:     A section of Sunrise 69.
000005:                                                                                                  ##              It is part of the reconstructed source code for the final
000006:                                                                                                  ##              release of the Block I Command Module system test software. No
000007:                                                                                                  ##              original listings of this program are available; instead, this
000008:                                                                                                  ##              file was created via disassembly of dumps of Sunrise core rope
000009:                                                                                                  ##              memory modules and comparison with the later Block I program
000010:                                                                                                  ##              Solarium 55.
000011:                                                                                                  ## Assembler:   yaYUL --block1
000012:                                                                                                  ## Contact:     Ron Burkey <info@sandroid.org>.
000013:                                                                                                  ## Website:     www.ibiblio.org/apollo/index.html
000014:                                                                                                  ## Mod history: 2023-06-19 MAS  Created from Solarium 55.
000015:                                                                                                  ##              2023-06-21 MAS  Updated for Sunrise 69, which involved copious
000016:                                                                                                  ##                              swapping of code with IMU PERFORMANCE TESTS 2.
000017:
000018:
000019: 26,6000                                           SETLOC   54000
000020:
000021: 26,6000           03025        ALGNTST            TC       GRABDSP                               #  SXT-NB-IMU FINE ALIGNMENT TEST
000022: 26,6001           03033                           TC       PREGBSY
000023:
000024: 26,6002           37100                           CAF      LABLAT1
000025: 26,6003           51227                           TS       YSM2
000026: 26,6004           37101                           CAF      LABLAT1    +1
000027: 26,6005           51230                           TS       YSM2       +1
000028:
000029: 26,6006           35500                           CAF      ZERO
000030: 26,6007           50035                           TS       TIME2
000031: 26,6010           51206                           TS       NDXCTR
000032: 26,6011           51201                           TS       TESTTIME
000033: 26,6012           51325                           TS       EROPTN
000034:
000035: 26,6013           06637                           TC       DSPYLOAD
000036:
000037: 26,6014           31227                           XCH      TAR1POS
000038: 26,6015           50763                           TS       LATITUDE
000039: 26,6016           31230                           XCH      TAR1POS    +1
000040: 26,6017           50764                           TS       LATITUDE   +1
000041:
000042: 26,6020           37067                           CAF      72DEC
000043: 26,6021           51202                           TS       MAXPTS2
000044:
000045: 26,6022           04000                           TC       INTPRET
000046: 26,6023           75176                           VMOVE    0
000047: 26,6024           15034                                    TARGET1
000048: 26,6025           33230                           STORE    TAR1POS
000049:
000050: 26,6026           75176                           VMOVE    0
000051: 26,6027           15042                                    TARGET2
000052: 26,6030           33236                           STORE    TAR2POS
000053:
000054: 26,6031           75176                           VMOVE    0
000055: 26,6032           15050                                    TARGET3
000056: 26,6033           33244                           STORE    TAR3POS
000057:
000058: 26,6034           75176                           VMOVE    0
000059: 26,6035           15056                                    TARGET4
000060: 26,6036           33252                           STORE    TAR4POS
000061:
000062: 26,6037           76776                           ITC      0
000063: 26,6040           14507                                    ALGNINIT
000064:
000065: 26,6041           77576                           EXIT     0
000066:
000067: 26,6042           45500                           CS       ZERO
000068: 26,6043           50704                           TS       CDUIND
000069:
000070: 26,6044           02516                           TC       BANKCALL
000071: 26,6045           21054                           CADR     IMUZERO
000072:
000073:
000074: 26,6046           37103        POSLOAD            CAF      V24N30E                               #  R1 POSITION 1,2,3
000075: 26,6047           02670                           TC       NVSUB
000076: 26,6050           03040                           TC       PRENVBSY
000077: 26,6051           02722                           TC       ENDIDLE
000078: 26,6052           06732                           TC       ENDTEST
000079: 26,6053           06046                           TC       -5
000080: 26,6054           30627                           XCH      DSPTEM1
000081: 26,6055           51205                           TS       POSITON
000082: 26,6056           20630                           INDEX    DSPTEM1    +1
000083: 26,6057           06060                           TC       +1
000084: 26,6060           06077                           TC       POSLOAD1
000085: 26,6061           06064                           TC       POSLOAD2
000086: 26,6062           06072                           TC       POSLOAD3
000087: 26,6063           06066                           TC       POSLOAD4
000088:
000089: 26,6064           35500        POSLOAD2           CAF      ZERO
000090: 26,6065           06073                           TC       POSLOAD3   +1
000091:
000092: 26,6066           35500        POSLOAD4           CAF      ZERO
000093: 26,6067           51206                           TS       NDXCTR
000094: 26,6070           67066                           AD       12DEC
000095: 26,6071           06074                           TC       +3
000096:
000097: 26,6072           37066        POSLOAD3           CAF      12DEC
000098: 26,6073           51206                           TS       NDXCTR
000099: 26,6074           63000                           AD       TEN
000100: 26,6075           51201                           TS       TESTTIME
000101: 26,6076           06637                           TC       DSPYLOAD
000102:
000103: 26,6077           34516        POSLOAD1           CAF      ONE
000104: 26,6100           51176                           TS       COAROFIN
000105: 26,6101           06220                           TC       FINDNAVB                              #  COARSE ALIGN MARKS
000106: 26,6102           02516                           TC       BANKCALL
000107: 26,6103           21412                           CADR     IMUSTALL                              #  WAIT FOR IMUZERO COMPLETION
000108: 26,6104           06732                           TC       ENDTEST
000109:
000110: 26,6105           21205        POSNJUMP           INDEX    POSITON
000111: 26,6106           06107                           TC       +1
000112: 26,6107           06732                           TC       ENDTEST
000113: 26,6110           06745                           TC       POS1
000114: 26,6111           06767                           TC       POS2
000115: 26,6112           07011                           TC       POS3
000116:
000117: 26,6113           06422        POSNRETN           TC       PUTPOSX
000118:
000119: 26,6114           06572                           TC       OGCZERO
000120:
000121: 26,6115           02516                           TC       BANKCALL
000122: 26,6116           21165                           CADR     IMUFINE                               #  INITIATE FINE ALIGN MODE
000123: 26,6117           02516                           TC       BANKCALL
000124: 26,6120           21412                           CADR     IMUSTALL                              #  WAIT FOR IMUFINE COMPLETION
000125: 26,6121           06732                           TC       ENDTEST
000126:
000127: 26,6122           35500                           CAF      ZERO
000128: 26,6123           51176                           TS       COAROFIN
000129: 26,6124           06220                           TC       FINDNAVB                              #  FINE ALIGN MARKS
000130: 26,6125           06453                           TC       SMDCALC                               #  FINE ALIGN TORQUING
000131: 26,6126           02516                           TC       BANKCALL
000132: 26,6127           21412                           CADR     IMUSTALL                              #  WAIT FOR PULSING COMPLETION
000133: 26,6130           06732                           TC       ENDTEST
000134:
000135: 26,6131           04000        ERFINAL            TC       INTPRET
000136: 26,6132           76776                           ITC      0
000137: 26,6133           14527                                    EARTHR
000138: 26,6134           76776                           ITC      0
000139: 26,6135           14550                                    OUTGYR
000140: 26,6136           77576                           EXIT     0
000141: 26,6137           02516                           TC       BANKCALL
000142: 26,6140           21412                           CADR     IMUSTALL
000143: 26,6141           06732                           TC       ENDTEST
000144:
000145: 26,6142           11325        ERRETN             CCS      EROPTN
000146: 26,6143           06131                           TC       ERFINAL
000147: 26,6144           20017                           INHINT
000148: 26,6145           06604                           TC       TPTIME
000149: 26,6146           20016                           RELINT
000150: 26,6147           35500                           CAF      ZERO
000151: 26,6150           50044                           TS       PIPAX
000152: 26,6151           50045                           TS       PIPAY
000153: 26,6152           50046                           TS       PIPAZ
000154: 26,6153           51176                           TS       STOREPL
000155: 26,6154           51206                           TS       NDXCTR                                #  UPDATE STORAGE LOCATION
000156: 26,6155           06703                           TC       STORRSLT
000157: 26,6156           51206                           TS       NDXCTR
000158: 26,6157           20017                           INHINT
000159: 26,6160           37071                           CAF      60SEC
000160: 26,6161           02124                           TC       WAITLIST
000161: 26,6162           54166                           CADR     PIP1
000162: 26,6163           20016                           RELINT
000163: 26,6164           36217                           CAF      PIP2ADR
000164: 26,6165           02120                           TC       JOBSLEEP
000165:
000166: 26,6166           36217        PIP1               CAF      PIP2ADR
000167: 26,6167           02051                           TC       JOBWAKE
000168: 26,6170           02203                           TC       TASKOVER
000169:
000170: 26,6171           41213        PIP2               CS       PIPNDX
000171: 26,6172           50767                           TS       PIPINDX2
000172: 26,6173           02516                           TC       BANKCALL
000173: 26,6174           56242                           CADR     CHECKG
000174: 26,6175           20016                           RELINT
000175: 26,6176           06703                           TC       STORRSLT
000176: 26,6177           51206                           TS       NDXCTR
000177: 26,6200           41214                           CS       PIPNDX     +1
000178: 26,6201           50767                           TS       PIPINDX2
000179: 26,6202           02516                           TC       BANKCALL
000180: 26,6203           56242                           CADR     CHECKG
000181: 26,6204           20016                           RELINT
000182: 26,6205           06703                           TC       STORRSLT
000183: 26,6206           51206                           TS       NDXCTR
000184: 26,6207           20017                           INHINT
000185: 26,6210           37070                           CAF      30SEC
000186: 26,6211           02124                           TC       WAITLIST
000187: 26,6212           54166                           CADR     PIP1
000188: 26,6213           20016                           RELINT
000189: 26,6214           36217                           CAF      PIP2ADR
000190: 26,6215           02120                           TC       JOBSLEEP
000191:
000192: 26,6216           07235        GOMISALN           TC       MISALIGN
000193: 26,6217           54171        PIP2ADR            CADR     PIP2
000194:
000195: 26,6220           30001        FINDNAVB           XCH      Q
000196: 26,6221           51207                           TS       QPLACE
000197: 26,6222           02516                           TC       BANKCALL
000198: 26,6223           12102                           CADR     MKRELEAS
000199: 26,6224           34516                           CAF      ONE
000200: 26,6225           50627                           TS       DSPTEM1
000201: 26,6226           37102                           CAF      V01N30E                               #  MARK ON TARGET 1
000202: 26,6227           02670                           TC       NVSUB
000203: 26,6230           03040                           TC       PRENVBSY
000204: 26,6231           34516                           CAF      ONE
000205: 26,6232           02516                           TC       BANKCALL
000206: 26,6233           12001                           CADR     SXTMARK
000207: 26,6234           02516                           TC       BANKCALL
000208: 26,6235           21410                           CADR     OPTSTALL
000209: 26,6236           06732                           TC       ENDTEST
000210: 26,6237           20755                           INDEX    MARKSTAT
000211: 26,6240           40000                           CS       0
000212: 26,6241           40000                           CS       A
000213: 26,6242           51174                           TS       VACADR                                #  TIME OF MARK
000214: 26,6243           20755                           INDEX    MARKSTAT
000215: 26,6244           40001                           CS       1
000216: 26,6245           40000                           CS       A
000217: 26,6246           51175                           TS       VACADR     +1
000218: 26,6247           40755                           CS       MARKSTAT
000219: 26,6250           51173                           TS       MKSTAT1
000220: 26,6251           02516                           TC       BANKCALL
000221: 26,6252           12102                           CADR     MKRELEAS
000222: 26,6253           35501                           CAF      FOUR
000223: 26,6254           50627                           TS       DSPTEM1
000224: 26,6255           37102                           CAF      V01N30E                               #  MARK ON TARGET 4
000225: 26,6256           02670                           TC       NVSUB
000226: 26,6257           03040                           TC       PRENVBSY
000227: 26,6260           34516                           CAF      ONE
000228: 26,6261           02516                           TC       BANKCALL
000229: 26,6262           12001                           CADR     SXTMARK
000230: 26,6263           11176                           CCS      COAROFIN                              #  COARSE ALIGN OR FINE ALIGN MARKS
000231: 26,6264           06353                           TC       CLGNMARK
000232: 26,6265           41173                           CS       MKSTAT1
000233: 26,6266           65502                           AD       TWO
000234: 26,6267           20066                           INDEX    FIXLOC
000235: 26,6270           50050                           TS       S1                                    #  BASE ADDRESS GIMBAL ANGLES
000236: 26,6271           04000                           TC       INTPRET                               #  OPT-NB-SM    TARGET 1
000237: 26,6272           73576                           LXA,1    0
000238: 26,6273           01174                                    MKSTAT1
000239: 26,6274           76776                           ITC      0
000240: 26,6275           12364                                    SXTNB
000241: 26,6276           44775                           VSLT     1
000242: 26,6277           76776                           ITC
000243: 26,6300           00041                                    STARM
000244: 26,6301           00001                                    0
000245: 26,6302           12154                                    NBSM
000246: 26,6303           47576                           NOLOD    0
000247: 26,6304           32771                           STORE    STARAD
000248: 26,6305           45176                           DMOVE    0
000249: 26,6306           01175                                    VACADR
000250: 26,6307           33446                           STORE    TMARK
000251: 26,6310           77576                           EXIT     0
000252:
000253: 26,6311           04000        EARRTCOM           TC       INTPRET                               #  COMPENSATE BETWEEN FINE ALIGN MARKS
000254: 26,6312           76776                           ITC      0
000255: 26,6313           14527                                    EARTHR
000256: 26,6314           76776                           ITC      0
000257: 26,6315           14550                                    OUTGYR
000258: 26,6316           77576                           EXIT     0
000259: 26,6317           02516                           TC       BANKCALL
000260: 26,6320           21412                           CADR     IMUSTALL
000261: 26,6321           06732                           TC       ENDTEST
000262: 26,6322           10754                           CCS      OPTCADR
000263: 26,6323           06326                           TC       +3
000264: 26,6324           06311                           TC       EARRTCOM
000265: 26,6325           06326                           TC       +1
000266: 26,6326           02516                           TC       BANKCALL
000267: 26,6327           21410                           CADR     OPTSTALL
000268: 26,6330           06732                           TC       ENDTEST
000269: 26,6331           35502                           CAF      TWO
000270: 26,6332           60755                           AD       MARKSTAT
000271: 26,6333           20066                           INDEX    FIXLOC
000272: 26,6334           50050                           TS       S1                                    #  BASE ADDRESS GIMBAL ANGLES
000273: 26,6335           04000                           TC       INTPRET                               #  OPT-NB-SM    TARGET 4
000274: 26,6336           71576                           LXC,1    0
000275: 26,6337           00756                                    MARKSTAT
000276: 26,6340           76776                           ITC      0
000277: 26,6341           12364                                    SXTNB
000278: 26,6342           44775                           VSLT     1
000279: 26,6343           76776                           ITC
000280: 26,6344           00041                                    STARM
000281: 26,6345           00001                                    0
000282: 26,6346           12154                                    NBSM
000283: 26,6347           47576                           NOLOD    0
000284: 26,6350           32777                           STORE    STARAD     +6
000285: 26,6351           76776                           ITC      0
000286: 26,6352           14400                                    MATXDET
000287:
000288: 26,6353           04000        CLGNMARK           TC       INTPRET                               #  OPT-NB       TARGET 1
000289: 26,6354           73576                           LXA,1    0
000290: 26,6355           01174                                    MKSTAT1
000291: 26,6356           76776                           ITC      0
000292: 26,6357           12364                                    SXTNB
000293: 26,6360           75176                           VMOVE    0
000294: 26,6361           00041                                    STARM
000295: 26,6362           32771                           STORE    STARAD
000296: 26,6363           77576                           EXIT     0
000297: 26,6364           02516                           TC       BANKCALL
000298: 26,6365           21410                           CADR     OPTSTALL
000299: 26,6366           06732                           TC       ENDTEST
000300: 26,6367           04000                           TC       INTPRET                               #  OPT-NB       TARGET 4
000301: 26,6370           71576                           LXC,1    0
000302: 26,6371           00756                                    MARKSTAT
000303: 26,6372           76776                           ITC      0
000304: 26,6373           12364                                    SXTNB
000305: 26,6374           75176                           VMOVE    0
000306: 26,6375           00041                                    STARM
000307: 26,6376           32777                           STORE    STARAD     +6
000308:
000309: 26,6377           75176        MATXDET            VMOVE    0                                     #  CALCULATE TRANSFORMATION MATRIX
000310: 26,6400           01230                                    TAR1POS
000311: 26,6401           32007                           STORE    6
000312: 26,6402           75176                           VMOVE    0
000313: 26,6403           01236                                    TAR1POS    +6
000314: 26,6404           32015                           STORE    12D
000315: 26,6405           76776                           ITC      0
000316: 26,6406           12412                                    AXISGEN
000317: 26,6407           75176                           VMOVE    0
000318: 26,6410           01035                                    XDC
000319: 26,6411           32771                           STORE    STARAD
000320: 26,6412           75176                           VMOVE    0
000321: 26,6413           01043                                    YDC
000322: 26,6414           32777                           STORE    STARAD     +6
000323: 26,6415           75176                           VMOVE    0
000324: 26,6416           01051                                    ZDC
000325: 26,6417           33005                           STORE    STARAD     +12D
000326: 26,6420           77576                           EXIT     0
000327: 26,6421           01207                           TC       QPLACE
000328:
000329:
000330: 26,6422           30001        PUTPOSX            XCH      Q
000331: 26,6423           51207                           TS       QPLACE
000332: 26,6424           04000                           TC       INTPRET
000333: 26,6425           76776                           ITC      0
000334: 26,6426           12274                                    CALCGA
000335: 26,6427           77576                           EXIT     0
000336:
000337: 26,6430           41056                           CS       OGC
000338: 26,6431           40000                           COM
000339: 26,6432           50705                           TS       THETAD
000340:
000341: 26,6433           41060                           CS       IGC
000342: 26,6434           40000                           COM
000343: 26,6435           50706                           TS       THETAD     +1
000344:
000345: 26,6436           41062                           CS       MGC
000346: 26,6437           40000                           COM
000347: 26,6440           50707                           TS       THETAD     +2
000348:
000349: 26,6441           35500                           CAF      ZERO
000350: 26,6442           50714                           TS       KH
000351: 26,6443           37065                           CAF      KGIMU
000352: 26,6444           50713                           TS       KG
000353:
000354: 26,6445           02516                           TC       BANKCALL
000355: 26,6446           21113                           CADR     IMUCOARS                              #  INITIATE COARSE ALIGN MODE
000356: 26,6447           02516                           TC       BANKCALL
000357: 26,6450           21412                           CADR     IMUSTALL                              #  WAIT FOR IMUCOARS COMPLETION
000358: 26,6451           06732                           TC       ENDTEST
000359: 26,6452           01207                           TC       QPLACE
000360:
000361:
000362:
000363: 26,6453           30001        SMDCALC            XCH      Q
000364: 26,6454           51207                           TS       QPLACE
000365: 26,6455           04000                           TC       INTPRET
000366: 26,6456           52775                           MXV      1
000367: 26,6457           44776                           VSLT
000368: 26,6460           01013                                    XSM
000369: 26,6461           00771                                    STARAD
000370: 26,6462           00002                                    1
000371: 26,6463           33035                           STORE    XDC
000372: 26,6464           52775                           MXV      1
000373: 26,6465           44776                           VSLT
000374: 26,6466           01021                                    YSM
000375: 26,6467           00771                                    STARAD
000376: 26,6470           00002                                    1
000377: 26,6471           33043                           STORE    YDC
000378: 26,6472           41775                           VXV      1
000379: 26,6473           44776                           VSLT
000380: 26,6474           01035                                    XDC
000381: 26,6475           01043                                    YDC
000382: 26,6476           00002                                    1
000383: 26,6477           33051                           STORE    ZDC
000384: 26,6500           76776                           ITC      0
000385: 26,6501           12001                                    CALCGTA
000386: 26,6502           76776                           ITC      0
000387: 26,6503           14550                                    OUTGYR
000388: 26,6504           77576                           EXIT     0
000389: 26,6505           01207                           TC       QPLACE
000390:
000391:
000392: 26,6506           76576        ALGNINIT           RTB      0
000393: 26,6507           07040                                    ZEROVAC
000394: 26,6510           45176                           DMOVE    0
000395: 26,6511           12620                                    ZERODP
000396: 26,6512           55175                           COS      1
000397: 26,6513           47176                           COMP
000398: 26,6514           00764                                    LATITUDE
000399: 26,6515           57175                           SIN      1
000400: 26,6516           41166                           VDEF     VXSC                                  #  (SIN,-COS,0)
000401: 26,6517           00764                                    LATITUDE
000402: 26,6520           15077                                    OMEG/MS
000403: 26,6521           33440                           STORE    VMARK
000404: 26,6522           76576                           RTB      0
000405: 26,6523           07022                                    LOADTIME
000406: 26,6524           33446                           STORE    TMARK
000407: 26,6525           40576                           ITCQ     0
000408:
000409:
000410: 26,6526           76576        EARTHR             RTB      0
000411: 26,6527           07022                                    LOADTIME
000412: 26,6530           32051                           STORE    S1
000413: 26,6531           47573                           NOLOD    3
000414: 26,6532           66716                           DSU      TSLT
000415: 26,6533           75652                           VXSC     MXV
000416: 26,6534           50776                           VAD
000417: 26,6535           01446                                    TMARK
000418: 26,6536           00013                                    10D
000419: 26,6537           01440                                    VMARK
000420: 26,6540           01013                                    XSM
000421: 26,6541           01057                                    OGC
000422: 26,6542           33057                           STORE    OGC
000423: 26,6543           45176                           DMOVE    0
000424: 26,6544           00051                                    S1
000425: 26,6545           33446                           STORE    TMARK
000426: 26,6546           40576                           ITCQ     0
000427:
000428:
000429: 26,6547           75575        OUTGYR             AXT,1    1
000430: 26,6550           55561                           AST,1    AXT,2
000431: 26,6551           00007                                    6
000432: 26,6552           00003                                    2
000433: 26,6553           00001                                    0
000434: 26,6554           56376        OUTGYR1            TSRT*    0
000435: 26,6555           02151                                    OGC        +6,1
000436: 26,6556           00022                                    8D,2
000437: 26,6557           35647                           STORE    GYROD      +6,1
000438: 26,6560           63375                           TSLT*    1
000439: 26,6561           65376                           BDSU*
000440: 26,6562           01647                                    GYROD      +6,1
000441: 26,6563           00022                                    8D,2
000442: 26,6564           02151                                    OGC        +6,1
000443: 26,6565           36151                           STORE    OGC        +6,1
000444: 26,6566           51575                           TIX,1    1
000445: 26,6567           76401                           RTB      ITCQ
000446: 26,6570           14555                                    OUTGYR1
000447: 26,6571           07144                                    PULSEIMU
000448:
000449: 26,6572           30001        OGCZERO            XCH      Q                                     #  ZERO RESIDUAL TORQUING
000450: 26,6573           51207                           TS       QPLACE
000451: 26,6574           34477                           CAF      FIVE
000452: 26,6575           50034                           TS       OVCTR
000453: 26,6576           35500                           CAF      ZERO
000454: 26,6577           20034                           INDEX    OVCTR
000455: 26,6600           51056                           TS       OGC
000456: 26,6601           10034                           CCS      OVCTR
000457: 26,6602           06575                           TC       OGCZERO    +3
000458: 26,6603           01207                           TC       QPLACE
000459:
000460:
000461: 26,6604           30001        TPTIME             XCH      Q
000462: 26,6605           51203                           TS       QPLAC
000463: 26,6606           40035                           CS       TIME2
000464: 26,6607           40000                           CS       A
000465: 26,6610           50114                           TS       MPAC
000466: 26,6611           40036                           CS       TIME1
000467: 26,6612           40000                           CS       A
000468: 26,6613           50115                           TS       MPAC       +1
000469: 26,6614           40006                           CS       IN2
000470: 26,6615           40006                           CS       IN2
000471: 26,6616           40000                           CS       A
000472: 26,6617           77075                           MASK     FINEMSK2
000473: 26,6620           50116                           TS       MPAC       +2
000474: 26,6621           10000                           CCS      A
000475: 26,6622           06631                           TC       +7
000476: 26,6623           40035                           CS       TIME2
000477: 26,6624           40000                           CS       A
000478: 26,6625           50114                           TS       MPAC
000479: 26,6626           40036                           CS       TIME1
000480: 26,6627           40000                           CS       A
000481: 26,6630           50115                           TS       MPAC       +1
000482: 26,6631           30116                           XCH      MPAC       +2
000483: 26,6632           25777                           EXTEND
000484: 26,6633           44504                           MP       BIT11
000485: 26,6634           30003                           XCH      LP
000486: 26,6635           50116                           TS       MPAC       +2
000487: 26,6636           01203                           TC       QPLAC
000488:
000489:
000490: 26,6637           30001        DSPYLOAD           XCH      Q
000491: 26,6640           51207                           TS       QPLACE
000492: 26,6641           06643                           TC       +2
000493: 26,6642           51206                           TS       NDXCTR
000494: 26,6643           21206                           INDEX    NDXCTR
000495: 26,6644           41227                           CS       YSM2
000496: 26,6645           40000                           COM
000497: 26,6646           50627                           TS       DSPTEM1
000498: 26,6647           21206                           INDEX    NDXCTR
000499: 26,6650           41230                           CS       YSM2       +1
000500: 26,6651           40000                           COM
000501: 26,6652           50630                           TS       DSPTEM1    +1
000502: 26,6653           41206                           CS       NDXCTR
000503: 26,6654           40000                           COM
000504: 26,6655           66702                           AD       YSM2CADR
000505: 26,6656           50631                           TS       DSPTEM1    +2
000506: 26,6657           02516                           TC       BANKCALL
000507: 26,6660           50002                           CADR     FLASHON
000508: 26,6661           37105                           CAF      V05N30E
000509: 26,6662           02670                           TC       NVSUB
000510: 26,6663           03040                           TC       PRENVBSY
000511: 26,6664           37104                           CAF      V07N30E
000512: 26,6665           02670                           TC       NVSUB
000513: 26,6666           03040                           TC       PRENVBSY
000514: 26,6667           02722                           TC       ENDIDLE                               #  WAIT FOR DATA OR PROCEED
000515: 26,6670           06732                           TC       ENDTEST
000516: 26,6671           06673                           TC       +2
000517: 26,6672           06643                           TC       DSPYLOAD   +4                         #  RE-DISPLAY IF DATA LOADED
000518: 26,6673           41206                           CS       NDXCTR
000519: 26,6674           61201                           AD       TESTTIME
000520: 26,6675           10000                           CCS      A
000521: 26,6676           35502                           CAF      TWO
000522: 26,6677           61206                           AD       NDXCTR
000523: 26,6700           06642                           TC       DSPYLOAD   +3
000524: 26,6701           01207                           TC       QPLACE
000525: 26,6702           01227        YSM2CADR           CADR     YSM2
000526:
000527:
000528: 26,6703           30001        STORRSLT           XCH      Q
000529: 26,6704           51207                           TS       QPLACE
000530: 26,6705           04000                           TC       INTPRET
000531: 26,6706           71576                           LXC,1    0
000532: 26,6707           01207                                    NDXCTR
000533: 26,6710           47574                           NOLOD    2
000534: 26,6711           63722                           TSLT     DMP
000535: 26,6712           76576                           RTB
000536: 26,6713           00011                                    8D
000537: 26,6714           15074                                    SCALFTR
000538: 26,6715           07147                                    SGNAGREE
000539: 26,6716           36151                           STORE    GENPL,1
000540: 26,6717           77576                           EXIT     0
000541: 26,6720           31176                           XCH      STOREPL
000542: 26,6721           21206                           INDEX    NDXCTR
000543: 26,6722           51066                           TS       GENPL      +2
000544: 26,6723           41206                           CS       NDXCTR
000545: 26,6724           61202                           AD       MAXPTS2
000546: 26,6725           10000                           CCS      A
000547: 26,6726           34473                           CAF      THREE
000548: 26,6727           61206                           AD       NDXCTR
000549: 26,6730           01207                           TC       QPLACE
000550: 26,6731           06216                           TC       GOMISALN
000551:
000552:
000553: 26,6732           03107        ENDTEST            TC       FREEDSP
000554: 26,6733           45501                           CS       FOUR
000555: 26,6734           70622                           MASK     MODREG
000556: 26,6735           50622                           TS       MODREG
000557: 26,6736           02516                           TC       BANKCALL
000558: 26,6737           42001                           CADR     DSPMM
000559: 26,6740           45500                           CS       ZERO
000560: 26,6741           50704                           TS       CDUIND
000561: 26,6742           02516                           TC       BANKCALL
000562: 26,6743           12102                           CADR     MKRELEAS
000563: 26,6744           02115                           TC       ENDOFJOB
000564:
000565:
000566: 26,6745           04000        POS1               TC       INTPRET
000567: 26,6746           75176                           VMOVE    0
000568: 26,6747           01244                                    TAR3POS
000569: 26,6750           33021                           STORE    YSM
000570: 26,6751           75176                           VMOVE    0
000571: 26,6752           01252                                    TAR4POS
000572: 26,6753           33027                           STORE    ZSM
000573: 26,6754           41775                           VXV      1
000574: 26,6755           73176                           UNIT
000575: 26,6756           01021                                    YSM
000576: 26,6757           01027                                    ZSM
000577: 26,6760           33013                           STORE    XSM
000578: 26,6761           77576                           EXIT     0
000579: 26,6762           44516                           CS       ONE
000580: 26,6763           51213                           TS       PIPNDX
000581: 26,6764           45502                           CS       TWO
000582: 26,6765           51214                           TS       PIPNDX     +1
000583: 26,6766           06113                           TC       POSNRETN
000584:
000585:
000586:
000587: 26,6767           04000        POS2               TC       INTPRET
000588: 26,6770           75176                           VMOVE    0
000589: 26,6771           01244                                    TAR3POS
000590: 26,6772           33021                           STORE    YSM
000591: 26,6773           75176                           VMOVE    0
000592: 26,6774           01252                                    TAR4POS
000593: 26,6775           33013                           STORE    XSM
000594: 26,6776           41775                           VXV      1
000595: 26,6777           73176                           UNIT
000596: 26,7000           01013                                    XSM
000597: 26,7001           01021                                    YSM
000598: 26,7002           33027                           STORE    ZSM
000599: 26,7003           77576                           EXIT     0
000600: 26,7004           45500                           CS       ZERO
000601: 26,7005           51213                           TS       PIPNDX
000602: 26,7006           44516                           CS       ONE
000603: 26,7007           51214                           TS       PIPNDX     +1
000604: 26,7010           06113                           TC       POSNRETN
000605:
000606:
000607:
000608: 26,7011           04000        POS3               TC       INTPRET
000609: 26,7012           75176                           VMOVE    0
000610: 26,7013           01244                                    TAR3POS
000611: 26,7014           33027                           STORE    ZSM
000612: 26,7015           75176                           VMOVE    0
000613: 26,7016           01252                                    TAR4POS
000614: 26,7017           33013                           STORE    XSM
000615: 26,7020           41775                           VXV      1
000616: 26,7021           73176                           UNIT
000617: 26,7022           01027                                    ZSM
000618: 26,7023           01013                                    XSM
000619: 26,7024           33021                           STORE    YSM
000620: 26,7025           77576                           EXIT     0
000621: 26,7026           45500                           CS       ZERO
000622: 26,7027           51213                           TS       PIPNDX
000623: 26,7030           45502                           CS       TWO
000624: 26,7031           51214                           TS       PIPNDX     +1
000625: 26,7032           06113                           TC       POSNRETN
000626:
000627:
000628: 26,7033           00000 00000  TARGET1            2DEC     0          B-28
000629: 26,7035           20000 00000                     2DEC     .5
000630: 26,7037           00000 00000                     2DEC     0          B-28
000631:
000632: 26,7041           00000 00000  TARGET2            2DEC     0          B-28
000633: 26,7043           13240 23574                     2DEC     .35355328
000634: 26,7045           13240 23574                     2DEC     .35355328
000635:
000636: 26,7047           00000 00000  TARGET3            2DEC     0          B-28
000637: 26,7051           13240 23574                     2DEC     .35355328
000638: 26,7053           64537 54203                     2DEC     -.35355328
000639:
000640: 26,7055           00000 00000  TARGET4            2DEC     0          B-28
000641: 26,7057           13240 23574                     2DEC     .35355328
000642: 26,7061           13240 23574                     2DEC     .35355328
000643:
000644: 26,7063           24000        INTCON1            DEC      40         B+8
000645: 26,7064           00000                           DEC      0          B-14
000646: 26,7065           05605        KGIMU              DEC      .18
000647: 26,7066           00014        12DEC              DEC      12         B-14
000648: 26,7067           00110        72DEC              DEC      72         B-14
000649: 26,7070           05670        30SEC              DEC      3000       B-14
000650: 26,7071           13560        60SEC              DEC      6000       B-14
000651: 26,7072           00062        50DEC              DEC      50         B-14
000652: 26,7073           24365 30244  SCALFTR            2DEC     .64
000653: 26,7075           00017        FINEMSK2           OCT      17
000654: 26,7076           03711 33265  OMEG/MS            2DEC     .12169524
000655: 26,7100           03610 01224  LABLAT1            2DEC     .11767824
000656:
000657: 26,7102           00130        V01N30E            OCT      0130
000658: 26,7103           02430        V24N30E            OCT      02430
000659: 26,7104           00730        V07N30E            OCT      00730
000660: 26,7105           00530        V05N30E            OCT      00530
000661: 26,7106           00666        V06N66E            OCT      00666
000662:
000663: 26,7107           47575        VERTRECT           NOLOD    1
000664: 26,7110           51622                           VXM      VSLT
000665: 26,7111           01013                                    XSM
000666: 26,7112           00002                                    1
000667: 26,7113           32001                           STORE    0
000668: 26,7114           45176                           DMOVE    0
000669: 26,7115           00043                                    VAC        +2
000670: 26,7116           47176                           COMP     0
000671: 26,7117           00045                                    VAC        +4
000672: 26,7120           43175                           SMOVE    1
000673: 26,7121           41176                           VDEF
000674: 26,7122           12620                                    ZERODP
000675: 26,7123           47575                           NOLOD    1
000676: 26,7124           75622                           VXSC     VSLT
000677: 26,7125           15064                                    INTCON1
000678: 26,7126           00002                                    1
000679: 26,7127           74773                           VSU      3
000680: 26,7130           71766                           BOV      VXSC
000681: 26,7131           44642                           VSLT     VAD
000682: 26,7132           52642                           MXV      VAD
000683: 26,7133           00001                                    0
000684: 26,7134           00023                                    18D
000685: 26,7135           15147                                    ERECTND
000686: 26,7136           15064                                    INTCON1
000687: 26,7137           00002                                    1
000688: 26,7140           77777                                    -
000689: 26,7141           01013                                    XSM
000690: 26,7142           01057                                    OGC
000691: 26,7143           33057                           STORE    OGC
000692: 26,7144           75176                           VMOVE    0
000693: 26,7145           32023                           STORE    18D
000694: 26,7146           40576        ERECTND            ITCQ     0
000695:
000696:
000697: 26,7147           02516        POSGMBL            TC       BANKCALL
000698: 26,7150           21165                           CADR     IMUFINE
000699: 26,7151           02516                           TC       BANKCALL
000700: 26,7152           21412                           CADR     IMUSTALL
000701: 26,7153           06732                           TC       ENDTEST
000702: 26,7154           40047                           CS       CDUX
000703: 26,7155           40000                           CS       A
000704: 26,7156           27471                           INDEX    FLNDX
000705: 26,7157           50006                           TS       6
000706: 26,7160           40050                           CS       CDUY
000707: 26,7161           40000                           CS       A
000708: 26,7162           27471                           INDEX    FLNDX
000709: 26,7163           50002                           TS       2
000710: 26,7164           40051                           CS       CDUZ
000711: 26,7165           40000                           CS       A
000712: 26,7166           27471                           INDEX    FLNDX
000713: 26,7167           50004                           TS       4
000714:
000715: 26,7170           35502        FALNE1             CAF      TWO
000716: 26,7171           67471                           AD       FLNDX
000717: 26,7172           20066                           INDEX    FIXLOC
000718: 26,7173           50050                           TS       S1
000719: 26,7174           04000                           TC       INTPRET
000720: 26,7175           52775                           MXV      1
000721: 26,7176           44772                           VSLT     ITC
000722: 26,7177           01013                                    XSM
000723: 26,7200           00771                                    STARAD
000724: 26,7201           00002                                    1
000725: 26,7202           12154                                    NBSM
000726: 26,7203           47576                           NOLOD    0
000727: 26,7204           33035                           STORE    XDC
000728: 26,7205           52775                           MXV      1
000729: 26,7206           44772                           VSLT     ITC
000730: 26,7207           01021                                    YSM
000731: 26,7210           00771                                    STARAD
000732: 26,7211           00002                                    1
000733: 26,7212           12154                                    NBSM
000734: 26,7213           47576                           NOLOD    0
000735: 26,7214           33043                           STORE    YDC
000736: 26,7215           41775                           VXV      1
000737: 26,7216           44776                           VSLT
000738: 26,7217           01035                                    XDC
000739: 26,7220           01043                                    YDC
000740: 26,7221           00002                                    1
000741: 26,7222           33051                           STORE    ZDC
000742: 26,7223           76776                           ITC      0
000743: 26,7224           12001                                    CALCGTA
000744: 26,7225           76776                           ITC      0
000745: 26,7226           14550                                    OUTGYR
000746: 26,7227           77576                           EXIT     0
000747: 26,7230           02516                           TC       BANKCALL
000748: 26,7231           21412                           CADR     IMUSTALL
000749: 26,7232           06732                           TC       ENDTEST
000750: 26,7233           02516                           TC       BANKCALL
000751: 26,7234           56600                           CADR     FALNED
000752:
000753:
000754: 26,7235           06572        MISALIGN           TC       OGCZERO
000755: 26,7236           37466                           CAF      11DEC
000756: 26,7237           51213                           TS       PTS
000757: 26,7240           35500                           CAF      ZERO
000758: 26,7241           51214                           TS       PTS        +1
000759: 26,7242           51206        BBB                TS       NDXCTR
000760: 26,7243           21206                           INDEX    NDXCTR
000761: 26,7244           41170                           CS       GENPL      +68D
000762: 26,7245           21206                           INDEX    NDXCTR
000763: 26,7246           61176                           AD       GENPL      +74D
000764: 26,7247           21206                           INDEX    NDXCTR
000765: 26,7250           51176                           TS       GENPL      +74D
000766: 26,7251           37467                           CAF      63DEC
000767: 26,7252           61206                           AD       NDXCTR
000768: 26,7253           10000                           CCS      A
000769: 26,7254           44473                           CS       THREE
000770: 26,7255           61206                           AD       NDXCTR
000771: 26,7256           07242                           TC       BBB
000772: 26,7257           51206        CCCC               TS       NDXCTR
000773: 26,7260           04000                           TC       INTPRET
000774: 26,7261           73576                           LXA,1    0
000775: 26,7262           01207                                    NDXCTR
000776: 26,7263           44175                           DMOVE*   1
000777: 26,7264           66776                           DSU
000778: 26,7265           02371                                    GENPL      +72D,1
000779: 26,7266           01065                                    GENPL
000780: 26,7267           36371                           STORE    GENPL      +72D,1
000781: 26,7270           77576                           EXIT     0
000782: 26,7271           41206                           CS       NDXCTR
000783: 26,7272           67470                           AD       69DEC
000784: 26,7273           10000                           CCS      A
000785: 26,7274           34473                           CAF      THREE
000786: 26,7275           61206                           AD       NDXCTR
000787: 26,7276           07257                           TC       CCCC
000788: 26,7277           51064                           TS       GENPL
000789: 26,7300           51065                           TS       GENPL      +1
000790: 26,7301           51215                           TS       RUN
000791: 26,7302           34473                           CAF      THREE
000792: 26,7303           51206        DDDD               TS       NDXCTR
000793: 26,7304           04000                           TC       INTPRET
000794: 26,7305           73576                           LXA,1    0
000795: 26,7306           01207                                    NDXCTR
000796: 26,7307           66376                           DSU*     0
000797: 26,7310           02371                                    GENPL      +72D,1
000798: 26,7311           02355                                    GENPL      +66D,1
000799: 26,7312           47575                           NOLOD    1
000800: 26,7313           56740                           TSRT     DAD*
000801: 26,7314           00002                                    1
000802: 26,7315           02355                                    GENPL      +66D,1
000803: 26,7316           36371                           STORE    GENPL      +72D,1
000804: 26,7317           47575                           NOLOD    1
000805: 26,7320           63742                           TSLT     DAD
000806: 26,7321           00003                                    2
000807: 26,7322           01057                                    OGC
000808: 26,7323           33057                           STORE    OGC
000809: 26,7324           44174                           DMOVE*   2
000810: 26,7325           63643                           TSLT     DSQ
000811: 26,7326           70776                           DAD
000812: 26,7327           02371                                    GENPL      +72D,1
000813: 26,7330           00005                                    4
000814: 26,7331           01063                                    MGC
000815: 26,7332           33063                           STORE    MGC
000816: 26,7333           77576                           EXIT     0
000817: 26,7334           41215                           CS       RUN
000818: 26,7335           40000                           COM
000819: 26,7336           61206                           AD       NDXCTR
000820: 26,7337           40000                           COM
000821: 26,7340           67467                           AD       63DEC
000822: 26,7341           10000                           CCS      A
000823: 26,7342           34475                           CAF      SIX
000824: 26,7343           61206                           AD       NDXCTR
000825: 26,7344           07303                           TC       DDDD
000826: 26,7345           61215                           AD       RUN
000827: 26,7346           51206        EEEE               TS       NDXCTR
000828: 26,7347           21206                           INDEX    NDXCTR
000829: 26,7350           41077                           CS       GENPL      +11D
000830: 26,7351           40000                           COM
000831: 26,7352           51225                           TS       TEMDELV
000832: 26,7353           35500                           CAF      ZERO
000833: 26,7354           51226                           TS       TEMDELV    +1
000834: 26,7355           04000                           TC       INTPRET
000835: 26,7356           71576                           LXC,1    0
000836: 26,7357           01207                                    NDXCTR
000837: 26,7360           45176                           DMOVE    0
000838: 26,7361           77777                                    -
000839: 26,7362           47574                           NOLOD    2
000840: 26,7363           63706                           TSLT     BDDV
000841: 26,7364           70776                           DAD
000842: 26,7365           00006                                    5
000843: 26,7366           01226                                    TEMDELV
000844: 26,7367           01061                                    IGC
000845: 26,7370           33061                           STORE    IGC
000846: 26,7371           63775                           TSLT     1
000847: 26,7372           61776                           BDDV
000848: 26,7373           77777                                    -
000849: 26,7374           00004                                    3
000850: 26,7375           01226                                    TEMDELV
000851: 26,7376           44174                           DMOVE*   2
000852: 26,7377           63722                           TSLT     DMP
000853: 26,7400           70776                           DAD
000854: 26,7401           02173                                    GENPL      +9D,1
000855: 26,7402           00005                                    4
000856: 26,7403           77777                                    -
000857: 26,7404           01065                                    GENPL
000858: 26,7405           33065                           STORE    GENPL
000859: 26,7406           77576                           EXIT     0
000860: 26,7407           41206                           CS       NDXCTR
000861: 26,7410           67467                           AD       63DEC
000862: 26,7411           61215                           AD       RUN
000863: 26,7412           64341                           AD       NEG3
000864: 26,7413           10000                           CCS      A
000865: 26,7414           34475                           CAF      SIX
000866: 26,7415           61206                           AD       NDXCTR
000867: 26,7416           07346                           TC       EEEE
000868: 26,7417           04000                           TC       INTPRET
000869: 26,7420           64776                           DMP      0
000870: 26,7421           01057                                    OGC
000871: 26,7422           01065                                    GENPL
000872: 26,7423           64775                           DMP      1
000873: 26,7424           66776                           DSU
000874: 26,7425           01063                                    MGC
000875: 26,7426           01061                                    IGC
000876: 26,7427           51175                           DSQ      1
000877: 26,7430           56776                           TSRT
000878: 26,7431           01057                                    OGC
000879: 26,7432           00002                                    1
000880: 26,7433           63774                           TSLT     2
000881: 26,7434           64732                           DMP      DSU
000882: 26,7435           61722                           BDDV     DMP
000883: 26,7436           01214                                    PTS
000884: 26,7437           00012                                    11
000885: 26,7440           01063                                    MGC
000886: 26,7441           77777                                    -
000887: 26,7442           77777                                    -
000888: 26,7443           15465                                    K
000889: 26,7444           32633                           STORE    DSPTEM2
000890: 26,7445           77576                           EXIT     0
000891: 26,7446           02516                           TC       BANKCALL
000892: 26,7447           50002                           CADR     FLASHON
000893: 26,7450           37106                           CAF      V06N66E
000894: 26,7451           02670                           TC       NVSUB
000895: 26,7452           03040                           TC       PRENVBSY
000896: 26,7453           02722                           TC       ENDIDLE
000897: 26,7454           06732                           TC       ENDTEST
000898: 26,7455           34473                           CAF      THREE
000899: 26,7456           51215                           TS       RUN
000900: 26,7457           06572                           TC       OGCZERO
000901: 26,7460           35500                           CAF      ZERO
000902: 26,7461           51064                           TS       GENPL
000903: 26,7462           51065                           TS       GENPL      +1
000904: 26,7463           07303                           TC       DDDD
000905:
000906:
000907:
000908: 26,7464           02321 00000  K                  2DEC     1.233      E3         B-14
000909: 26,7466           00013        11DEC              DEC      11         B-14
000910: 26,7467           00077        63DEC              DEC      63         B-14
000911: 26,7470           00105        69DEC              DEC      69         B-14
000912: 26,7471           01064        FLNDX              ADRES    GENPL
000913:
000914:
000915: 26,7472           03025        GYROTORK           TC       GRABDSP
000916: 26,7473           03033                           TC       PREGBSY
000917: 26,7474           37652                           CAF      V21N30E
000918: 26,7475           02670                           TC       NVSUB
000919: 26,7476           03040                           TC       PRENVBSY
000920: 26,7477           02722                           TC       ENDIDLE
000921: 26,7500           02115                           TC       ENDOFJOB
000922: 26,7501           07502                           TC       +1
000923: 26,7502           30627                           XCH      DSPTEM1
000924: 26,7503           51210                           TS       TESTNO
000925: 26,7504           51217                           TS       CALCDIR
000926: 26,7505           34502                           CAF      QUARTER
000927: 26,7506           50765                           TS       AZIMUTH
000928: 26,7507           51200                           TS       GENPL      +76D
000929: 26,7510           34475                           CAF      SIX
000930: 26,7511           50762                           TS       NBPOS
000931: 26,7512           11210                           CCS      TESTNO
000932: 26,7513           51210                           TS       TESTNO
000933: 26,7514           07521                           TC       +5
000934: 26,7515           51210                           TS       TESTNO
000935: 26,7516           47651                           CS       BURSTPOS
000936: 26,7517           51211                           TS       SAVE
000937: 26,7520           07523                           TC       +3
000938: 26,7521           37651                           CAF      BURSTPOS
000939: 26,7522           51211                           TS       SAVE
000940: 26,7523           41210                           CS       TESTNO
000941: 26,7524           65502                           AD       TWO
000942: 26,7525           51215                           TS       NEGCDU2
000943: 26,7526           10000                           CCS      A
000944: 26,7527           02516                           TC       BANKCALL
000945: 26,7530           57336                           CADR     STEVEIN1
000946: 26,7531           07532                           TC       +1
000947: 26,7532           02516                           TC       BANKCALL
000948: 26,7533           57341                           CADR     STEVEIN3
000949:
000950:
000951:
000952: 26,7534           41215        TORK               CS       NEGCDU2
000953: 26,7535           40000                           COM
000954: 26,7536           10000                           CCS      A
000955: 26,7537           21210                           INDEX    TESTNO
000956: 26,7540           40047                           CS       CDUX
000957: 26,7541           07543                           TC       +2
000958: 26,7542           40047                           CS       CDUX
000959: 26,7543           51214                           TS       NEGCDU1
000960: 26,7544           41210                           CS       TESTNO
000961: 26,7545           40000                           COM
000962: 26,7546           61210                           AD       TESTNO
000963: 26,7547           51216                           TS       LOCNO
000964: 26,7550           37653                           CAF      ITERNO
000965: 26,7551           51200        BLOGS              TS       BUBBLE
000966: 26,7552           20017                           INHINT
000967: 26,7553           37654                           CAF      TIMEINCR
000968: 26,7554           02124                           TC       WAITLIST
000969: 26,7555           55601                           CADR     WAKEUP
000970: 26,7556           20016                           RELINT
000971: 26,7557           34477                           CAF      FIVE
000972: 26,7560           51212                           TS       PLOW
000973: 26,7561           35500                           CAF      ZERO
000974: 26,7562           21212                           INDEX    PLOW
000975: 26,7563           50715                           TS       GYROD
000976: 26,7564           11212                           CCS      PLOW
000977: 26,7565           07560                           TC       -5
000978: 26,7566           41211                           CS       SAVE
000979: 26,7567           40000                           COM
000980: 26,7570           21216                           INDEX    LOCNO
000981: 26,7571           50716                           TS       GYROD      +1
000982: 26,7572           02516                           TC       BANKCALL
000983: 26,7573           21440                           CADR     IMUPULSE
000984: 26,7574           02516                           TC       BANKCALL
000985: 26,7575           21412                           CADR     IMUSTALL
000986: 26,7576           30000                           NOOP
000987: 26,7577           37655                           CAF      WAKECADR
000988: 26,7600           02120                           TC       JOBSLEEP
000989: 26,7601           37655        WAKEUP             CAF      WAKECADR
000990: 26,7602           02051                           TC       JOBWAKE
000991: 26,7603           02203                           TC       TASKOVER
000992: 26,7604           11200        WAKE               CCS      BUBBLE
000993: 26,7605           07551                           TC       BLOGS
000994: 26,7606           41215                           CS       NEGCDU2
000995: 26,7607           40000                           COM
000996: 26,7610           10000                           CCS      A
000997: 26,7611           21210                           INDEX    TESTNO
000998: 26,7612           40047                           CS       CDUX
000999: 26,7613           07615                           TC       +2
001000: 26,7614           40047                           CS       CDUX
001001: 26,7615           51215                           TS       NEGCDU2
001002: 26,7616           11217                           CCS      CALCDIR                               #  DONE TO INSURE PROPER SIGN
001003: 26,7617           41214                           CS       NEGCDU1
001004: 26,7620           07624                           TC       +4
001005: 26,7621           41215                           CS       NEGCDU2
001006: 26,7622           51215                           TS       NEGCDU2
001007: 26,7623           07625                           TC       +2
001008: 26,7624           51214                           TS       NEGCDU1
001009: 26,7625           20017                           INHINT
001010: 26,7626           41215                           CS       NEGCDU2
001011: 26,7627           30000                           XCH      A
001012: 26,7630           50573                           TS       ITEMP2
001013: 26,7631           41214                           CS       NEGCDU1
001014: 26,7632           02516                           TC       BANKCALL
001015: 26,7633           20770                           CADR     2SCOMDIF
001016: 26,7634           20016                           RELINT
001017: 26,7635           51213                           TS       CUSSANG
001018: 26,7636           25777                           EXTEND
001019: 26,7637           44477                           MP       FIVE
001020: 26,7640           30003                           XCH      LP
001021: 26,7641           50627                           TS       DSPTEM1
001022: 26,7642           02516                           TC       BANKCALL
001023: 26,7643           50002                           CADR     FLASHON
001024: 26,7644           37104                           CAF      V07N30E
001025: 26,7645           02670                           TC       NVSUB
001026: 26,7646           03040                           TC       PRENVBSY
001027: 26,7647           02722                           TC       ENDIDLE
001028: 26,7650           02115                           TC       ENDOFJOB
001029:
001030:
001031: 26,7651           00400        BURSTPOS           DEC      256        B-14
001032: 26,7652           02130        V21N30E            OCT      02130
001033: 26,7653           07777        ITERNO             DEC      4095       B-14
001034: 26,7654           00030        TIMEINCR           DEC      24         B-14
001035: 26,7655           55604        WAKECADR           CADR     WAKE
001036: 26,7656           24000        PRIO24             OCT      24000
001037:
001038:
001039: 26,7657           34477        SYSTEST            CAF      FIVE
001040: 26,7660           70622                           MASK     MODREG
001041: 26,7661           10000                           CCS      A
001042: 26,7662           07673                           TC       TOOBUSY
001043: 26,7663           30001                           XCH      Q
001044: 26,7664           51207                           TS       QPLACE
001045: 26,7665           35501                           CAF      FOUR
001046: 26,7666           60622                           AD       MODREG
001047: 26,7667           50622                           TS       MODREG
001048: 26,7670           02516                           TC       BANKCALL
001049: 26,7671           42001                           CADR     DSPMM
001050: 26,7672           01207                           TC       QPLACE
001051:
001052: 26,7673           03001        TOOBUSY            TC       FALTON
001053: 26,7674           02115                           TC       ENDOFJOB
001054:
001055:


001061:


001065: 26,7675           07657        GOGYDRFT           TC       SYSTEST                               #  GYRO DRIFT TEST.
001066: 26,7676           20017                           INHINT
001067: 26,7677           37656                           CAF      PRIO24
001068: 26,7700           02037                           TC       FINDVAC
001069: 26,7701           56500                           CADR     GYDRFT
001070: 26,7702           02115                           TC       ENDOFJOB
001071:


001075: 26,7703           07657        GOACCEL            TC       SYSTEST                               #  PIPA SCALE FACTOR DETERMINATION.
001076: 26,7704           20017                           INHINT
001077: 26,7705           37656                           CAF      PRIO24
001078: 26,7706           02037                           TC       FINDVAC
001079: 26,7707           57327                           CADR     ACCELTST
001080: 26,7710           02115                           TC       ENDOFJOB
001081:


001085: 26,7711           07657        GOIMUCHK           TC       SYSTEST                               #  IMU CHECK.
001086: 26,7712           20017                           INHINT
001087: 26,7713           37656                           CAF      PRIO24
001088: 26,7714           02037                           TC       FINDVAC
001089: 26,7715           56000                           CADR     IMUCHK
001090: 26,7716           02115                           TC       ENDOFJOB
001091:


001095: 26,7717           07657        GOALGN             TC       SYSTEST                               #  IMU ALIGNMENT TEST.
001096: 26,7720           20017                           INHINT
001097: 26,7721           37656                           CAF      PRIO24
001098: 26,7722           02037                           TC       FINDVAC
001099: 26,7723           54000                           CADR     ALGNTST
001100: 26,7724           02115                           TC       ENDOFJOB
001101:


001105: 26,7725           07657        GOGYTORK           TC       SYSTEST                               #  GYRO TORQUING TEST.
001106: 26,7726           20017                           INHINT
001107: 26,7727           37656                           CAF      PRIO24
001108: 26,7730           02037                           TC       FINDVAC
001109: 26,7731           55472                           CADR     GYROTORK
001110: 26,7732           02115                           TC       ENDOFJOB

End of include-file IMU_PERFORMANCE_TESTS_1.agc.  Parent file is MAIN.agc


