
Source Code


000002:                                                                                                  ## Copyright:   Public domain.
000003:                                                                                                  ## Filename:    IMU_PERFORMANCE_TESTS_2.agc
000004:                                                                                                  ## Purpose:     A section of Sunrise 69.
000005:                                                                                                  ##              It is part of the reconstructed source code for the final
000006:                                                                                                  ##              release of the Block I Command Module system test software. No
000007:                                                                                                  ##              original listings of this program are available; instead, this
000008:                                                                                                  ##              file was created via disassembly of dumps of Sunrise core rope
000009:                                                                                                  ##              memory modules and comparison with the later Block I program
000010:                                                                                                  ##              Solarium 55.
000011:                                                                                                  ## Assembler:   yaYUL --block1
000012:                                                                                                  ## Contact:     Ron Burkey <info@sandroid.org>.
000013:                                                                                                  ## Website:     www.ibiblio.org/apollo/index.html
000014:                                                                                                  ## Mod history: 2023-06-19 MAS  Created from Solarium 55.
000015:                                                                                                  ##              2023-06-21 MAS  Updated for Sunrise 69, which involved copious
000016:                                                                                                  ##                              swapping of code with IMU PERFORMANCE TESTS 1.
000017:
000018:
000019: 27,6000                                           SETLOC   56000
000020:
000021:                                                                                                  #  THIS IS A ROUGH CHECK PROGRAM FOR THE IMU GYROS AND ACCELEROMETERS
000022:
000023: 27,6000           34502        IMUCHK             CAF      QUARTER
000024: 27,6001           50765                           TS       AZIMUTH
000025: 27,6002           35500                           CAF      ZERO
000026: 27,6003           50766                           TS       AZIMUTH    +1
000027: 27,6004           34475                           CAF      SIX
000028: 27,6005           50762                           TS       NBPOS
000029: 27,6006           34513                           CAF      BIT4
000030: 27,6007           51205                           TS       POSITON
000031: 27,6010           40000                           CS       A
000032: 27,6011           51200                           TS       GENPL      +76D
000033: 27,6012           06550                           TC       STEVEIN
000034:
000035: 27,6013           02516        IMUCHKR            TC       BANKCALL                              #  CHECKS COARSE ALIGN AND GYRO TORQUING
000036: 27,6014           21206                           CADR     IMULOCK                               #  CHECKS ALL MODE SWITCHING
000037: 27,6015           02516                           TC       BANKCALL
000038: 27,6016           21412                           CADR     IMUSTALL
000039: 27,6017           02115                           TC       ENDOFJOB
000040:
000041: 27,6020           02516                           TC       BANKCALL
000042: 27,6021           21217                           CADR     IMUREENT
000043: 27,6022           02516                           TC       BANKCALL
000044: 27,6023           21412                           CADR     IMUSTALL
000045: 27,6024           02115                           TC       ENDOFJOB
000046:
000047: 27,6025           02516                           TC       BANKCALL
000048: 27,6026           21165                           CADR     IMUFINE
000049: 27,6027           35500                           CAF      ZERO
000050: 27,6030           50044                           TS       PIPAX
000051: 27,6031           50045                           TS       PIPAY
000052: 27,6032           50046                           TS       PIPAZ
000053: 27,6033           02516                           TC       BANKCALL
000054: 27,6034           21412                           CADR     IMUSTALL
000055: 27,6035           02115                           TC       ENDOFJOB
000056:
000057: 27,6036           34516                           CAF      ONE
000058: 27,6037           51206                           TS       RESULTCT
000059: 27,6040           51205                           TS       POSITON
000060:
000061: 27,6041           35502        IMUCHK1            CAF      TWO                                   #  MEASURE TIME OF OCCURRENCE OF EACH
000062: 27,6042           50767        IMUCHK2            TS       PIPINDX2                              #  PIP PULSE. ALSO STORE VELOCITY
000063: 27,6043           20017                           INHINT
000064: 27,6044           06242                           TC       CHECKG
000065: 27,6045           40045                           CS       PIPAY
000066: 27,6046           40000                           CS       A
000067: 27,6047           21205                           INDEX    POSITON
000068: 27,6050           51246                           TS       DATAPL     +30D
000069: 27,6051           40046                           CS       PIPAZ
000070: 27,6052           40000                           CS       A
000071: 27,6053           21205                           INDEX    POSITON
000072: 27,6054           51250                           TS       DATAPL     +32D
000073: 27,6055           20016                           RELINT
000074: 27,6056           07427                           TC       DATALD1
000075: 27,6057           31206                           XCH      RESULTCT
000076: 27,6060           64477                           AD       FIVE
000077: 27,6061           51206                           TS       RESULTCT
000078: 27,6062           10767                           CCS      PIPINDX2
000079: 27,6063           06042                           TC       IMUCHK2
000080: 27,6064           11205                           CCS      POSITON
000081: 27,6065           06067                           TC       +2
000082: 27,6066           06075                           TC       COMPUT
000083: 27,6067           51205                           TS       POSITON
000084: 27,6070           34511                           CAF      BIT6
000085: 27,6071           07444                           TC       WARTMAL
000086: 27,6072           10757                           CCS      COUNTPL
000087: 27,6073           07466                           TC       WARTMAL2
000088: 27,6074           06041                           TC       IMUCHK1
000089:
000090:
000091:
000092: 27,6075           35500        COMPUT             CAF      ZERO                                  #  CALC V1XV2 ANDROOT(GX)2+(GY)2+(GZ)2
000093: 27,6076           51210                           TS       DATAPL
000094: 27,6077           51215                           TS       DATAPL     +5
000095: 27,6100           51222                           TS       DATAPL     +10D
000096: 27,6101           31246                           XCH      DATAPL     +30D
000097: 27,6102           51253                           TS       DATAPL     +35D
000098: 27,6103           35500                           CAF      ZERO
000099: 27,6104           31250                           XCH      DATAPL     +32D
000100: 27,6105           51255                           TS       DATAPL     +37D
000101: 27,6106           35502                           CAF      TWO
000102: 27,6107           51227                           TS       DATAPL     +15D
000103: 27,6110           51234                           TS       DATAPL     +20D
000104: 27,6111           51241                           TS       DATAPL     +25D
000105: 27,6112           51252                           TS       DATAPL     +34D
000106: 27,6113           51254                           TS       DATAPL     +36D
000107:
000108:
000109: 27,6114           04000        CHKCALC            TC       INTPRET
000110: 27,6115           76575                           RTB      1
000111: 27,6116           76576                           RTB
000112: 27,6117           07040                                    ZEROVAC
000113: 27,6120           07034                                    FRESHPD
000114: 27,6121           54775                           TSU      1
000115: 27,6122           63631                           TSLT     ROUND
000116: 27,6123           01232                                    DATAPL     +17D
000117: 27,6124           01213                                    DATAPL     +2
000118: 27,6125           00015                                    12D
000119: 27,6126           66774                           DSU      2
000120: 27,6127           63722                           TSLT     DMP
000121: 27,6130           62776                           DDV
000122: 27,6131           01230                                    DATAPL     +15D
000123: 27,6132           01211                                    DATAPL
000124: 27,6133           00015                                    12D
000125: 27,6134           16461                                    DC585                                 #  GZ IN 0,1
000126: 27,6135           54775                           TSU      1
000127: 27,6136           63631                           TSLT     ROUND
000128: 27,6137           01237                                    DATAPL     +22D
000129: 27,6140           01220                                    DATAPL     +7
000130: 27,6141           00015                                    12D
000131: 27,6142           66774                           DSU      2
000132: 27,6143           63722                           TSLT     DMP
000133: 27,6144           62776                           DDV
000134: 27,6145           01235                                    DATAPL     +20D
000135: 27,6146           01216                                    DATAPL     +5
000136: 27,6147           00015                                    12D
000137: 27,6150           16461                                    DC585                                 #  GY IN 2,3
000138: 27,6151           54775                           TSU      1
000139: 27,6152           63631                           TSLT     ROUND
000140: 27,6153           01244                                    DATAPL     +27D
000141: 27,6154           01225                                    DATAPL     +12D
000142: 27,6155           00015                                    12D
000143: 27,6156           33202                           STORE    TESTTIME
000144: 27,6157           66774                           DSU      2
000145: 27,6160           63722                           TSLT     DMP
000146: 27,6161           62603                           DDV      VDEF
000147: 27,6162           01242                                    DATAPL     +25D
000148: 27,6163           01223                                    DATAPL     +10D
000149: 27,6164           00015                                    12D
000150: 27,6165           16461                                    DC585
000151: 27,6166           01202                                    TESTTIME                              #  G IN 0,1,2,3,4,5
000152: 27,6167           71175                           ABVAL    1
000153: 27,6170           63771                           TSLT     RTB
000154: 27,6171           00001                                    0
000155: 27,6172           00002                                    1
000156: 27,6173           07147                                    SGNAGREE
000157: 27,6174           32633                           STORE    DSPTEM2
000158: 27,6175           77576                           EXIT     0
000159: 27,6176           03025                           TC       GRABDSP
000160: 27,6177           03033                           TC       PREGBSY
000161: 27,6200           06364                           TC       SHOW
000162:
000163: 27,6201           04000                           TC       INTPRET
000164: 27,6202           45176                           DMOVE    0
000165: 27,6203           01251                                    DATAPL     +32D
000166: 27,6204           45176                           DMOVE    0
000167: 27,6205           01247                                    DATAPL     +30D
000168: 27,6206           45174                           DMOVE    2
000169: 27,6207           41153                           VDEF     UNIT
000170: 27,6210           44776                           VSLT
000171: 27,6211           01223                                    DATAPL     +10D
000172: 27,6212           00002                                    1                                     #  V1 IN 6,7,8,9,10,11
000173: 27,6213           45176                           DMOVE    0
000174: 27,6214           01255                                    DATAPL     +36D
000175: 27,6215           45176                           DMOVE    0
000176: 27,6216           01253                                    DATAPL     +34D
000177: 27,6217           45174                           DMOVE    2
000178: 27,6220           41153                           VDEF     UNIT
000179: 27,6221           44776                           VSLT
000180: 27,6222           01242                                    DATAPL     +25D
000181: 27,6223           00002                                    1                                     #  V2 IN 12,13,14,15,1 ,17
000182:
000183: 27,6224           41773                           VXV      3
000184: 27,6225           71116                           ABVAL    TSLT
000185: 27,6226           62722                           DDV      DMP
000186: 27,6227           76576                           RTB
000187: 27,6230           00007                                    6
000188: 27,6231           00015                                    12D
000189: 27,6232           00002                                    1
000190: 27,6233           01202                                    TESTTIME
000191: 27,6234           16404                                    ERUNITS1
000192: 27,6235           07147                                    SGNAGREE
000193: 27,6236           32633                           STORE    DSPTEM2
000194: 27,6237           77576                           EXIT     0
000195:
000196: 27,6240           06364                           TC       SHOW
000197: 27,6241           07056                           TC       ENDTEST1
000198:
000199:
000200: 27,6242           30001        CHECKG             XCH      Q                                     #  PIP PULSE CATCH ROUTINE
000201: 27,6243           31207                           XCH      QPLACE
000202:
000203: 27,6244           20016        CHECKG1            RELINT
000204: 27,6245           10550                           CCS      NEWJOB
000205: 27,6246           02072                           TC       CHANG1
000206: 27,6247           20017                           INHINT
000207: 27,6250           35500                           CAF      ZERO
000208: 27,6251           20767                           INDEX    PIPINDX2
000209: 27,6252           30044                           XCH      PIPAX
000210: 27,6253           51176                           TS       STOREPL
000211: 27,6254           11176                           CCS      STOREPL
000212: 27,6255           06261                           TC       CHECKP
000213: 27,6256           06354                           TC       RESTORE1
000214: 27,6257           06274                           TC       CHECKM
000215: 27,6260           06354                           TC       RESTORE1
000216:
000217: 27,6261           34511        CHECKP             CAF      BIT6                                  #  LOOKS FOR ONE MORE   PULSE
000218: 27,6262           51204        CHECKP1            TS       PIPANO
000219: 27,6263           20767                           INDEX    PIPINDX2
000220: 27,6264           10044                           CCS      PIPAX
000221: 27,6265           06307                           TC       CHECKG3
000222: 27,6266           06271                           TC       +3
000223: 27,6267           06354                           TC       RESTORE1
000224: 27,6270           06271                           TC       +1
000225: 27,6271           11204                           CCS      PIPANO
000226: 27,6272           06262                           TC       CHECKP1
000227: 27,6273           06354                           TC       RESTORE1
000228: 27,6274           34511        CHECKM             CAF      BIT6                                  #  LOOKS FOR ONE MORE  INUS
000229: 27,6275           51204        CHECKM1            TS       PIPANO
000230: 27,6276           20767                           INDEX    PIPINDX2
000231: 27,6277           10044                           CCS      PIPAX
000232: 27,6300           06354                           TC       RESTORE1
000233: 27,6301           06304                           TC       +3
000234: 27,6302           06307                           TC       CHECKG3
000235: 27,6303           06304                           TC       +1
000236: 27,6304           11204                           CCS      PIPANO
000237: 27,6305           06275                           TC       CHECKM1
000238: 27,6306           06354                           TC       RESTORE1
000239:
000240: 27,6307           40035        CHECKG3            CS       TIME2
000241: 27,6310           40000                           CS       A
000242: 27,6311           50114                           TS       MPAC
000243: 27,6312           40036                           CS       TIME1
000244: 27,6313           40000                           CS       A
000245: 27,6314           50115                           TS       MPAC       +1
000246: 27,6315           40006                           CS       IN2
000247: 27,6316           40006                           CS       IN2
000248: 27,6317           40000                           CS       A
000249: 27,6320           76412                           MASK     FINEMSK1
000250: 27,6321           50116                           TS       MPAC       +2
000251: 27,6322           10000                           CCS      A
000252: 27,6323           06332                           TC       +7
000253: 27,6324           40035                           CS       TIME2
000254: 27,6325           40000                           CS       A
000255: 27,6326           50114                           TS       MPAC
000256: 27,6327           40036                           CS       TIME1
000257: 27,6330           40000                           CS       A
000258: 27,6331           50115                           TS       MPAC       +1
000259: 27,6332           30116                           XCH      MPAC       +2
000260: 27,6333           25777                           EXTEND
000261: 27,6334           44504                           MP       BIT11
000262: 27,6335           30003                           XCH      LP
000263: 27,6336           50116                           TS       MPAC       +2
000264:
000265: 27,6337           34513                           CAF      BIT4
000266: 27,6340           51204        CHECKG5            TS       PIPANO
000267: 27,6341           20767                           INDEX    PIPINDX2
000268: 27,6342           10044                           CCS      PIPAX
000269: 27,6343           06347                           TC       +4
000270: 27,6344           06354                           TC       RESTORE1
000271: 27,6345           06347                           TC       +2
000272: 27,6346           06354                           TC       RESTORE1
000273: 27,6347           11204                           CCS      PIPANO
000274: 27,6350           06340                           TC       CHECKG5
000275: 27,6351           06356        NREAD              TC       RESTORE
000276: 27,6352           51176                           TS       STOREPL
000277: 27,6353           01207                           TC       QPLACE
000278:
000279: 27,6354           06356        RESTORE1           TC       RESTORE
000280: 27,6355           06244                           TC       CHECKG1
000281:
000282: 27,6356           31176        RESTORE            XCH      STOREPL
000283: 27,6357           20767                           INDEX    PIPINDX2
000284: 27,6360           60044                           AD       PIPAX
000285: 27,6361           20767                           INDEX    PIPINDX2
000286: 27,6362           50044                           TS       PIPAX
000287: 27,6363           00001                           TC       Q
000288:
000289:
000290:
000291: 27,6364           30001        SHOW               XCH      Q
000292: 27,6365           51207                           TS       QPLACE
000293: 27,6366           41205        SHOW1              CS       POSITON
000294: 27,6367           40000                           CS       A
000295: 27,6370           50634                           TS       DSPTEM2    +2
000296: 27,6371           02516                           TC       BANKCALL
000297: 27,6372           50002                           CADR     FLASHON
000298: 27,6373           36411                           CAF      V06N66
000299: 27,6374           02670                           TC       NVSUB
000300: 27,6375           03040                           TC       PRENVBSY
000301: 27,6376           02722                           TC       ENDIDLE
000302: 27,6377           07056                           TC       ENDTEST1
000303: 27,6400           01207                           TC       QPLACE
000304: 27,6401           07722                           TC       SHOWLD
000305: 27,6402           06366                           TC       SHOW1
000306:
000307:
000308:
000309: 27,6403           00051 33163  ERUNITS1           2DEC     685683     B-28
000310: 27,6405           23000        PRIO23             OCT      23000
000311: 27,6406           00077        SXTTR              DEC      63         B-14
000312: 27,6407           00013        DEC11              DEC      11         B-14
000313: 27,6410           21450        NINTHOU            DEC      9000       B-14
000314: 27,6411           00666        V06N66             OCT      00666
000315: 27,6412           00017        FINEMSK1           OCT      17
000316: 27,6413           00021        MTRXLD1            DEC      17         B-14
000317: 27,6414           00024        DEC20              DEC      20         B-14
000318: 27,6415           13241        ROOT2/4B           DEC      .35355339
000319: 27,6416           67222 51710  SCNBAZ             2DEC     -.27232                               #  AZIMUTH OF NB IS ERAD IN AS Z AXIS EAST
000320: 27,6420           00000 00000                     2DEC     0          B-28
000321: 27,6422           15327 37747                     2DEC     .4194335
000322: 27,6424           00000 00000  LABNBAZ            2DEC     0          B-28
000323: 27,6426           00000 00000                     2DEC     0          B-28
000324: 27,6430           20000 00000                     2DEC     .5
000325: 27,6432           00000 00000  LABNBAZ1           2DEC     0          B-28
000326: 27,6434           00000 00000                     2DEC     0          B-28
000327: 27,6436           15327 37747  SCNBVER            2DEC     .4194335
000328: 27,6440           00000 00000                     2DEC     0          B-28
000329: 27,6442           10555 26067                     2DEC     .27232
000330: 27,6444           20000 00000  LABNBVER           2DEC     .5
000331: 27,6446           00000 00000                     2DEC     0          B-28
000332: 27,6450           00000 00000                     2DEC     0          B-28
000333: 27,6452           00000 00000  LBNBVER1           2DEC     0          B-28
000334: 27,6454           57777 77777                     2DEC     -.5
000335: 27,6456           03610 01224  LABLAT3            2DEC     .11767824
000336: 27,6460           01111 00000  DC585              2DEC     585        B+14
000337: 27,6462           05605        KGIMU2             DEC      .18
000338: 27,6463           00407 25220  ERUNITS            2DEC     4319888    B-28
000339: 27,6465           00006 07616  ERUNITS2           2DEC     102286     B-28
000340: 27,6467           00050        DEC40              DEC      40         B-14
000341: 27,6470           00074        DEC60              DEC      60         B-14
000342: 27,6471           00120        DEC80              DEC      80         B-14
000343: 27,6472           00144        DEC100             DEC      100        B-14
000344: 27,6473           00170        DEC120             DEC      120        B-14
000345: 27,6474           00214        DEC140             DEC      140        B-14
000346: 27,6475           00240        DEC160             DEC      160        B-14
000347: 27,6476           00264        DEC180             DEC      180        B-14
000348: 27,6477           00730        VB07N30E           OCT      00730
000349:
000350:
000351:
000352: 27,6500           03025        GYDRFT             TC       GRABDSP
000353: 27,6501           03033                           TC       PREGBSY
000354: 27,6502           35500                           CAF      ZERO
000355: 27,6503           51177                           TS       TESTNDX
000356:
000357: 27,6504           34511        SFTSTIN            CAF      BIT6                                  #  PIP SCALE FACTOR TEST ENTRY
000358: 27,6505           50762                           TS       NBPOS
000359: 27,6506           35500                           CAF      ZERO
000360: 27,6507           51200                           TS       GENPL      +76D
000361: 27,6510           50760                           TS       LTSTNDX
000362: 27,6511           34516                           CAF      ONE
000363: 27,6512           51205                           TS       POSITON
000364: 27,6513           36456                           CAF      LABLAT3
000365: 27,6514           50765                           TS       AZIMUTH
000366: 27,6515           36457                           CAF      LABLAT3    +1
000367: 27,6516           50766                           TS       AZIMUTH    +1
000368: 27,6517           07035                           TC       LATAZCHK
000369: 27,6520           30765                           XCH      AZIMUTH
000370: 27,6521           50763                           TS       LATITUDE
000371: 27,6522           30766                           XCH      AZIMUTH    +1
000372: 27,6523           50764                           TS       LATITUDE   +1
000373: 27,6524           34521                           CAF      HALF
000374: 27,6525           50765                           TS       AZIMUTH
000375: 27,6526           35500                           CAF      ZERO
000376: 27,6527           50766                           TS       AZIMUTH    +1
000377: 27,6530           50633                           TS       DSPTEM2    +1
000378: 27,6531           07035                           TC       LATAZCHK
000379:
000380: 27,6532           07722        GYRDRFT2           TC       SHOWLD                                #  LOAD NAVBASE TILT ANGLE IN DEGREES
000381: 27,6533           06364                           TC       SHOW
000382: 27,6534           10762                           CCS      NBPOS                                 #  NUMBER IN POSITON.FOR VERTICAL DRIFT
000383: 27,6535           06545                           TC       LTNDX+                                #  TEST IN LAB LOAD + NUMBER IN TESTNDX
000384: 27,6536           06542                           TC       LTNDX0
000385: 27,6537           33000                           CAF      TEN
000386: 27,6540           50762                           TS       NBPOS
000387: 27,6541           06550                           TC       STEVEIN
000388: 27,6542           34475        LTNDX0             CAF      SIX
000389: 27,6543           50762                           TS       NBPOS
000390: 27,6544           06550                           TC       STEVEIN
000391: 27,6545           35500        LTNDX+             CAF      ZERO
000392: 27,6546           50762                           TS       NBPOS
000393: 27,6547           50760                           TS       LTSTNDX
000394:
000395: 27,6550           45500        STEVEIN            CS       ZERO
000396: 27,6551           50704                           TS       CDUIND
000397: 27,6552           02516                           TC       BANKCALL
000398: 27,6553           21054                           CADR     IMUZERO
000399: 27,6554           02516                           TC       BANKCALL
000400: 27,6555           21412                           CADR     IMUSTALL
000401: 27,6556           07056                           TC       ENDTEST1
000402:
000403: 27,6557           07060                           TC       NBPOSPL
000404:
000405: 27,6560           04000        POSGMBL1           TC       INTPRET
000406: 27,6561           76776                           ITC      0
000407: 27,6562           12274                                    CALCGA
000408: 27,6563           77576                           EXIT     0
000409: 27,6564           35500                           CAF      ZERO
000410: 27,6565           50714                           TS       KH
000411: 27,6566           36462                           CAF      KGIMU2
000412: 27,6567           50713                           TS       KG
000413: 27,6570           07710                           TC       SETHETAD
000414: 27,6571           02516                           TC       BANKCALL
000415: 27,6572           21113                           CADR     IMUCOARS
000416: 27,6573           02516                           TC       BANKCALL
000417: 27,6574           21412                           CADR     IMUSTALL
000418: 27,6575           07056                           TC       ENDTEST1
000419: 27,6576           02516                           TC       BANKCALL
000420: 27,6577           55147                           CADR     POSGMBL
000421:
000422:
000423:
000424: 27,6600           11200        FALNED             CCS      GENPL      +76D
000425: 27,6601           07344                           TC       TORK1
000426: 27,6602           06604                           TC       +2
000427: 27,6603           06013                           TC       IMUCHKR
000428: 27,6604           04000                           TC       INTPRET
000429: 27,6605           76776                           ITC      0
000430: 27,6606           14507                                    ALGNINIT
000431: 27,6607           77576                           EXIT     0
000432: 27,6610           11177                           CCS      TESTNDX
000433: 27,6611           06721                           TC       LABTEST
000434: 27,6612           06614                           TC       +2
000435: 27,6613           06614                           TC       +1
000436: 27,6614           34473        FRECT              CAF      THREE
000437: 27,6615           51176                           TS       STOREPL
000438: 27,6616           35500                           CAF      ZERO                                  #  VERTICAL ERECTION BY NULLING PIPAS
000439: 27,6617           50044                           TS       PIPAX
000440: 27,6620           50045                           TS       PIPAY
000441: 27,6621           50046                           TS       PIPAZ
000442: 27,6622           51056                           TS       OGC                                   ## FIXME: ANYTHING IN SOLARIUM HERE?
000443: 27,6623           51062                           TS       MGC
000444: 27,6624           51060                           TS       IGC
000445: 27,6625           34513                           CAF      BIT4
000446: 27,6626           07444                           TC       WARTMAL
000447: 27,6627           04000                           TC       INTPRET
000448: 27,6630           76575                           RTB      1
000449: 27,6631           76776                           ITC
000450: 27,6632           07115                                    READPIPS
000451: 27,6633           15110                                    VERTRECT
000452: 27,6634           76776                           ITC      0
000453: 27,6635           14527                                    EARTHR
000454: 27,6636           76776                           ITC      0
000455: 27,6637           14550                                    OUTGYR
000456: 27,6640           77576                           EXIT     0
000457: 27,6641           02516                           TC       BANKCALL
000458: 27,6642           21412                           CADR     IMUSTALL
000459: 27,6643           07056                           TC       ENDTEST1
000460: 27,6644           10757                           CCS      COUNTPL
000461: 27,6645           07466                           TC       WARTMAL2
000462: 27,6646           11176                           CCS      STOREPL
000463: 27,6647           06615                           TC       FRECT      +1
000464:
000465:
000466: 27,6650           11177        TSTJUMP            CCS      TESTNDX
000467: 27,6651           06721                           TC       LABTEST
000468: 27,6652           06663                           TC       SCRTEST
000469: 27,6653           06721                           TC       LABTEST
000470: 27,6654           34516        PIPTST             CAF      ONE                                   #  MEASURE PIP PULSE RATE FOR 90 SEC.
000471: 27,6655           50757                           TS       COUNTPL
000472: 27,6656           35500                           CAF      ZERO
000473: 27,6657           20767                           INDEX    PIPINDX2
000474: 27,6660           50044                           TS       PIPAX
000475: 27,6661           51206                           TS       RESULTCT
000476: 27,6662           06707                           TC       WEIKPL
000477:
000478:
000479:
000480: 27,6663           36410        SCRTEST            CAF      NINTHOU
000481: 27,6664           61200                           AD       GENPL      +76D
000482: 27,6665           51201                           TS       TESTTIME
000483: 27,6666           41206                           CS       RESULTCT
000484: 27,6667           40000                           CS       A
000485: 27,6670           51064                           TS       GENPL
000486: 27,6671           34473                           CAF      THREE
000487:
000488: 27,6672           50757        DOSCTEST           TS       COUNTPL                               #  HORIZ DRIFT TEST SET UP TO
000489: 27,6673           20017                           INHINT                                         #  READ EAST PIP FOUR TIMES
000490: 27,6674           41201                           CS       TESTTIME
000491: 27,6675           40000                           CS       A
000492: 27,6676           02124                           TC       WAITLIST
000493: 27,6677           56703                           CADR     CARRYON
000494: 27,6700           20016                           RELINT
000495: 27,6701           36706                           CAF      CONCADR
000496: 27,6702           02120                           TC       JOBSLEEP
000497:
000498: 27,6703           36706        CARRYON            CAF      CONCADR
000499: 27,6704           02051                           TC       JOBWAKE
000500: 27,6705           02203                           TC       TASKOVER
000501:
000502: 27,6706           56707        CONCADR            CADR     WEIKPL
000503:
000504: 27,6707           20017        WEIKPL             INHINT
000505: 27,6710           06242                           TC       CHECKG
000506: 27,6711           20016                           RELINT
000507: 27,6712           35501                           CAF      FOUR
000508: 27,6713           61206                           AD       RESULTCT
000509: 27,6714           51206                           TS       RESULTCT
000510: 27,6715           07427                           TC       DATALD1
000511: 27,6716           10757                           CCS      COUNTPL
000512: 27,6717           06672                           TC       DOSCTEST
000513: 27,6720           07661                           TC       RESULTS
000514:
000515:
000516:
000517: 27,6721           10760        LABTEST            CCS      LTSTNDX                               #  SET UP TO MEASURE VERTICAL DRIFT
000518: 27,6722           07731                           TC       CDUD
000519: 27,6723           35500                           CAF      ZERO
000520: 27,6724           51012                           TS       XSM
000521: 27,6725           51020                           TS       XSM        +6
000522: 27,6726           51026                           TS       XSM        +12D
000523: 27,6727           34511        CDUCK              CAF      BIT6
000524: 27,6730           51176        CDUCK1             TS       STOREPL
000525: 27,6731           07745                           TC       STOPHOR
000526:
000527: 27,6732           11176                           CCS      STOREPL
000528: 27,6733           06730                           TC       CDUCK1
000529: 27,6734           35500                           CAF      ZERO
000530: 27,6735           20761                           INDEX    CDUNDX
000531: 27,6736           50047                           TS       CDUX
000532: 27,6737           34511        CDUCK2             CAF      BIT6
000533: 27,6740           51176        CDUCK3             TS       STOREPL
000534: 27,6741           20761                           INDEX    CDUNDX
000535: 27,6742           10047                           CCS      CDUX
000536: 27,6743           06753                           TC       CDUCK4
000537: 27,6744           06747                           TC       +3
000538: 27,6745           06730                           TC       CDUCK1
000539: 27,6746           06753                           TC       CDUCK4
000540: 27,6747           11176                           CCS      STOREPL
000541: 27,6750           06740                           TC       CDUCK3
000542: 27,6751           07745                           TC       STOPHOR
000543: 27,6752           06737                           TC       CDUCK2
000544: 27,6753           02473        CDUCK4             TC       READTIME
000545: 27,6754           20016                           RELINT
000546: 27,6755           40565                           CS       RUPTSTOR
000547: 27,6756           21206                           INDEX    RESULTCT
000548: 27,6757           51210                           TS       DATAPL
000549: 27,6760           40566                           CS       RUPTSTOR   +1
000550: 27,6761           21206                           INDEX    RESULTCT
000551: 27,6762           51211                           TS       DATAPL     +1
000552: 27,6763           34473                           CAF      THREE
000553: 27,6764           51176        CDUCK5             TS       STOREPL
000554: 27,6765           07745                           TC       STOPHOR
000555:
000556: 27,6766           11176                           CCS      STOREPL
000557: 27,6767           06764                           TC       CDUCK5
000558: 27,6770           20761                           INDEX    CDUNDX
000559: 27,6771           10047                           CCS      CDUX
000560: 27,6772           06776                           TC       POSPLS
000561: 27,6773           06730                           TC       CDUCK1
000562: 27,6774           06730                           TC       CDUCK1
000563: 27,6775           07006                           TC       NEGPLS
000564:
000565: 27,6776           41177        POSPLS             CS       TESTNDX                               #  INITIALIZES VERTICAL DRIFT TEST
000566: 27,6777           10000                           CCS      A
000567: 27,7000           07322                           TC       LONGTST
000568: 27,7001           30000                           NOOP
000569: 27,7002           46406                           CS       SXTTR
000570: 27,7003           20761                           NDX      CDUNDX
000571: 27,7004           50047                           TS       CDUX
000572: 27,7005           07015                           TC       CDUCK6
000573: 27,7006           41177        NEGPLS             CS       TESTNDX
000574: 27,7007           10000                           CCS      A
000575: 27,7010           07322                           TC       LONGTST
000576: 27,7011           30000                           NOOP
000577: 27,7012           36406                           CAF      SXTTR
000578: 27,7013           20761                           NDX      CDUNDX
000579: 27,7014           50047                           TS       CDUX
000580:
000581: 27,7015           07745        CDUCK6             TC       STOPHOR
000582: 27,7016           34511                           CAF      BIT6
000583: 27,7017           51176        CDUCK7             TS       STOREPL
000584: 27,7020           20761                           INDEX    CDUNDX
000585: 27,7021           10047                           CCS      CDUX
000586: 27,7022           07026                           TC       +4
000587: 27,7023           07031                           TC       CDUD1
000588: 27,7024           07026                           TC       +2
000589: 27,7025           07031                           TC       CDUD1
000590: 27,7026           11176                           CCS      STOREPL
000591: 27,7027           07017                           TC       CDUCK7
000592: 27,7030           07015                           TC       CDUCK6
000593:
000594: 27,7031           34510        CDUD1              CAF      BIT7
000595: 27,7032           20761                           INDEX    CDUNDX
000596: 27,7033           50047                           TS       CDUX
000597: 27,7034           07731                           TC       CDUD
000598:
000599:
000600:
000601: 27,7035           30001        LATAZCHK           XCH      Q
000602: 27,7036           51207                           TS       QPLACE
000603: 27,7037           40765                           CS       AZIMUTH                               #  CHECK LATITUDE AND NAVBASE AZIMUTH
000604: 27,7040           40000                           CS       A
000605: 27,7041           50627                           TS       DSPTEM1
000606: 27,7042           40766                           CS       AZIMUTH    +1
000607: 27,7043           40000                           CS       A
000608: 27,7044           50630                           TS       DSPTEM1    +1
000609: 27,7045           02516                           TC       BANKCALL
000610: 27,7046           50002                           CADR     FLASHON
000611: 27,7047           36477                           CAF      VB07N30E
000612: 27,7050           02670                           TC       NVSUB
000613: 27,7051           03040                           TC       PRENVBSY
000614: 27,7052           02722                           TC       ENDIDLE
000615: 27,7053           07056                           TC       ENDTEST1
000616: 27,7054           01207                           TC       QPLACE
000617: 27,7055           07037                           TC       LATAZCHK   +2
000618:
000619:
000620:
000621: 27,7056           02516        ENDTEST1           TC       BANKCALL
000622: 27,7057           54732                           CADR     ENDTEST
000623:
000624:
000625:
000626: 27,7060           36413        NBPOSPL            CAF      MTRXLD1
000627: 27,7061           50034                           TS       OVCTR                                 #  ZERO STARAD
000628: 27,7062           35500                           CAF      ZERO
000629: 27,7063           20034                           INDEX    OVCTR
000630: 27,7064           50770                           TS       STARAD
000631: 27,7065           10034                           CCS      OVCTR
000632: 27,7066           07061                           TC       NBPOSPL    +1
000633:
000634: 27,7067           04000                           TC       INTPRET                               #  SETS UP AZIMUTH AND VERTICAL VECTORS
000635: 27,7070           76576                           RTB      0                                     #  FOR AXISGEN,RESULTS TO BE USED IN CALCGA
000636: 27,7071           07040                                    ZEROVAC                               #  TO COMPUTE COARSE ALIGN ANGLES
000637: 27,7072           53575                           AXC,1    1
000638: 27,7073           57557                           XSU,1    VMOVE*
000639: 27,7074           16417                                    SCNBAZ
000640: 27,7075           00763                                    NBPOS
000641: 27,7076           00001                                    0,1
000642: 27,7077           32771                           STORE    STARAD                                #  AZIMUTH IN NB COORDS
000643: 27,7100           53575                           AXC,1    1
000644: 27,7101           57557                           XSU,1    VMOVE*
000645: 27,7102           16437                                    SCNBVER
000646: 27,7103           00763                                    NBPOS
000647: 27,7104           00001                                    0,1
000648: 27,7105           32777                           STORE    STARAD     +6                         #  VERTICAL IN NB COORDS
000649: 27,7106           55175                           COS      1
000650: 27,7107           47176                           COMP
000651: 27,7110           00766                                    AZIMUTH
000652: 27,7111           32011                           STORE    8D
000653:
000654: 27,7112           57176                           SIN      0
000655: 27,7113           00766                                    AZIMUTH
000656: 27,7114           32013                           STORE    10D                                   #  AZIMUTH IN CER
000657: 27,7115           75176                           VMOVE    0
000658: 27,7116           16445                                    LABNBVER
000659: 27,7117           32015                           STORE    12D                                   #   VERTICAL IN CER
000660: 27,7120           76776                           ITC      0
000661: 27,7121           12412                                    AXISGEN
000662:
000663: 27,7122           75176                           VMOVE    0
000664: 27,7123           01035                                    XDC
000665: 27,7124           32771                           STORE    STARAD
000666:
000667: 27,7125           75176                           VMOVE    0
000668: 27,7126           01043                                    YDC
000669: 27,7127           32777                           STORE    STARAD     +6
000670:
000671: 27,7130           75176                           VMOVE    0
000672: 27,7131           01051                                    ZDC
000673: 27,7132           33005                           STORE    STARAD     +12D
000674: 27,7133           77576                           EXIT     0
000675:
000676: 27,7134           51207        POSSET             TS       QPLACE                                ## FIXME
000677: 27,7135           36413                           CAF      MTRXLD1
000678: 27,7136           50034                           TS       OVCTR
000679: 27,7137           35500                           CAF      ZERO
000680: 27,7140           20034                           INDEX    OVCTR
000681: 27,7141           51012                           TS       XSM
000682: 27,7142           10034                           CCS      OVCTR
000683: 27,7143           07136                           TC       -5
000684: 27,7144           21205                           INDEX    POSITON
000685: 27,7145           07146                           TC       +1
000686: 27,7146           07056                           TC       ENDTEST1
000687: 27,7147           07162                           TC       POSN1
000688: 27,7150           07202                           TC       POSN2
000689: 27,7151           07224                           TC       POSN3
000690: 27,7152           07243                           TC       POSN4
000691: 27,7153           07261                           TC       POSN5
000692: 27,7154           07300                           TC       POSN6
000693: 27,7155           07350                           TC       POSN7
000694: 27,7156           07410                           TC       POSN8
000695: 27,7157           07370                           TC       POSN9
000696: 27,7160           07314                           TC       POSN10
000697: 27,7161           07317                           TC       POSN11
000698: 27,7162           34521        POSN1              CAF      HALF                                  #  X UP Y SOUTH Z EAST
000699: 27,7163           51012                           TS       XSM
000700: 27,7164           51022                           TS       YSM        +2
000701: 27,7165           51032                           TS       ZSM        +4
000702: 27,7166           11177                           CCS      TESTNDX
000703: 27,7167           07171                           TC       +2
000704: 27,7170           07177                           TC       LPNDX1
000705: 27,7171           30000                           NOOP
000706: 27,7172           35500                           CAF      ZERO
000707: 27,7173           50767                           TS       PIPINDX2
000708: 27,7174           50761                           TS       CDUNDX
000709: 27,7175           51206                           TS       RESULTCT
000710: 27,7176           06560                           TC       POSGMBL1
000711: 27,7177           35502        LPNDX1             CAF      TWO
000712: 27,7200           50767                           TS       PIPINDX2
000713: 27,7201           06560                           TC       POSGMBL1
000714: 27,7202           34521        POSN2              CAF      HALF                                  #  X DOWN Y WEST ZNORTH
000715: 27,7203           40000                           COM
000716: 27,7204           51012                           TS       XSM
000717: 27,7205           51024                           TS       YSM        +4
000718: 27,7206           51030                           TS       ZSM        +2
000719: 27,7207           36414                           CAF      DEC20
000720: 27,7210           51206                           TS       RESULTCT
000721: 27,7211           11177                           CCS      TESTNDX
000722: 27,7212           07214                           TC       +2
000723: 27,7213           07221                           TC       LPNDX2
000724: 27,7214           30000                           NOOP
000725: 27,7215           35500                           CAF      ZERO
000726: 27,7216           50761                           TS       CDUNDX
000727: 27,7217           50767                           TS       PIPINDX2
000728: 27,7220           06560                           TC       POSGMBL1
000729: 27,7221           34516        LPNDX2             CAF      ONE
000730: 27,7222           50767                           TS       PIPINDX2
000731: 27,7223           06560                           TC       POSGMBL1
000732: 27,7224           34521        POSN3              CAF      HALF                                  #  Z UP Y WEST X NORTH
000733: 27,7225           51026                           TS       ZSM
000734: 27,7226           40000                           COM
000735: 27,7227           51014                           TS       XSM        +2
000736: 27,7230           51024                           TS       YSM        +4
000737: 27,7231           36467                           CAF      DEC40
000738: 27,7232           51206                           TS       RESULTCT
000739: 27,7233           11177                           CCS      TESTNDX
000740: 27,7234           07240                           TC       LCNDX3
000741: 27,7235           07221                           TC       LPNDX2
000742: 27,7236           30000                           NOOP
000743: 27,7237           07177                           TC       LPNDX1
000744:
000745: 27,7240           35500        LCNDX3             CAF      ZERO
000746: 27,7241           50761                           TS       CDUNDX
000747: 27,7242           06560                           TC       POSGMBL1
000748: 27,7243           34521        POSN4              CAF      HALF                                  #  Z DOWN Y SOUTH X EAST
000749: 27,7244           51016                           TS       XSM        +4
000750: 27,7245           51022                           TS       YSM        +2
000751: 27,7246           40000                           COM
000752: 27,7247           51026                           TS       ZSM
000753: 27,7250           36470                           CAF      DEC60
000754: 27,7251           51206                           TS       RESULTCT
000755: 27,7252           11177                           CCS      TESTNDX
000756: 27,7253           07240                           TC       LCNDX3
000757: 27,7254           07257                           TC       LPNDX4
000758: 27,7255           30000                           NOOP
000759: 27,7256           07177                           TC       LPNDX1
000760:
000761: 27,7257           50767        LPNDX4             TS       PIPINDX2
000762: 27,7260           06560                           TC       POSGMBL1
000763: 27,7261           34521        POSN5              CAF      HALF                                  #  Y UP Z NORTH X WEST
000764: 27,7262           51020                           TS       YSM
000765: 27,7263           40000                           COM
000766: 27,7264           51016                           TS       XSM        +4
000767: 27,7265           51030                           TS       ZSM        +2
000768: 27,7266           36471                           CAF      DEC80
000769: 27,7267           51206                           TS       RESULTCT
000770: 27,7270           11177                           CCS      TESTNDX
000771: 27,7271           07275                           TC       LCNDX5
000772: 27,7272           07257                           TC       LPNDX4
000773: 27,7273           07275                           TC       LCNDX5
000774: 27,7274           07221                           TC       LPNDX2
000775:
000776: 27,7275           34516        LCNDX5             CAF      ONE
000777: 27,7276           50761                           TS       CDUNDX
000778: 27,7277           06560                           TC       POSGMBL1
000779: 27,7300           34521        POSN6              CAF      HALF                                  #  Y DOWN Z EAST X SOUTH
000780: 27,7301           51014                           TS       XSM        +2
000781: 27,7302           51032                           TS       ZSM        +4
000782: 27,7303           40000                           COM
000783: 27,7304           51020                           TS       YSM
000784: 27,7305           36472                           CAF      DEC100
000785: 27,7306           51206                           TS       RESULTCT
000786: 27,7307           11177                           CCS      TESTNDX
000787: 27,7310           07275                           TC       LCNDX5
000788: 27,7311           07177                           TC       LPNDX1
000789: 27,7312           07275                           TC       LCNDX5
000790: 27,7313           07221                           TC       LPNDX2
000791:
000792: 27,7314           44516        POSN10             CS       ONE                                   #  POSITION FOR LONG TEST FOR ADIAY
000793: 27,7315           51177                           TS       TESTNDX
000794: 27,7316           07261                           TC       POSN5
000795: 27,7317           44516        POSN11             CS       ONE
000796: 27,7320           51177                           TS       TESTNDX
000797: 27,7321           07300                           TC       POSN6
000798:
000799:
000800:
000801: 27,7322           36476        LONGTST            CAF      DEC180
000802: 27,7323           51176                           TS       STOREPL                               #  VERTICAL ERECTION FOR 14480 SECONDS
000803: 27,7324           34516                           CAF      ONE
000804: 27,7325           50760                           TS       LTSTNDX
000805: 27,7326           06616                           TC       FRECT      +2
000806:
000807:
000808: 27,7327           03025        ACCELTST           TC       GRABDSP
000809: 27,7330           03033                           TC       PREGBSY
000810: 27,7331           36410                           CAF      NINTHOU
000811: 27,7332           51201                           TS       TESTTIME                              #  ACCELEROMETER OUTPUT TO GRAVITY
000812: 27,7333           45500                           CS       ZERO
000813: 27,7334           51177                           TS       TESTNDX
000814: 27,7335           06504                           TC       SFTSTIN
000815:
000816:
000817:
000818: 27,7336           34516        STEVEIN1           CAF      ONE
000819: 27,7337           51205                           TS       POSITON
000820: 27,7340           06550                           TC       STEVEIN
000821:
000822: 27,7341           34473        STEVEIN3           CAF      THREE
000823: 27,7342           51205                           TS       POSITON
000824: 27,7343           06550                           TC       STEVEIN
000825:
000826: 27,7344           02516        TORK1              TC       BANKCALL
000827: 27,7345           55534                           CADR     TORK
000828:
000829: 27,7346           05130 12650  UNUSED1            2DEC     0.161641747
000830:
000831:
000832: 27,7350           36415        POSN7              CAF      ROOT2/4B
000833: 27,7351           51020                           TS       YSM
000834: 27,7352           51022                           TS       YSM        +2
000835: 27,7353           51030                           TS       ZSM        +2
000836: 27,7354           40000                           COM
000837: 27,7355           51026                           TS       ZSM
000838: 27,7356           34521                           CAF      HALF
000839: 27,7357           51016                           TS       XSM        +4
000840: 27,7360           35500                           CAF      ZERO
000841: 27,7361           50767                           TS       PIPINDX2
000842: 27,7362           10762                           CCS      NBPOS
000843: 27,7363           06532                           TC       GYRDRFT2
000844: 27,7364           51177                           TS       TESTNDX
000845: 27,7365           36473                           CAF      DEC120
000846: 27,7366           51206                           TS       RESULTCT
000847: 27,7367           06560                           TC       POSGMBL1
000848: 27,7370           36415        POSN9              CAF      ROOT2/4B
000849: 27,7371           51012                           TS       XSM
000850: 27,7372           51014                           TS       XSM        +2
000851: 27,7373           51026                           TS       ZSM
000852: 27,7374           40000                           COM
000853: 27,7375           51030                           TS       ZSM        +2
000854: 27,7376           34521                           CAF      HALF
000855: 27,7377           51024                           TS       YSM        +4
000856: 27,7400           34516                           CAF      ONE
000857: 27,7401           50767                           TS       PIPINDX2
000858: 27,7402           10762                           CCS      NBPOS
000859: 27,7403           06532                           TC       GYRDRFT2
000860: 27,7404           51177                           TS       TESTNDX
000861: 27,7405           36475                           CAF      DEC160
000862: 27,7406           51206                           TS       RESULTCT
000863: 27,7407           06560                           TC       POSGMBL1
000864: 27,7410           36415        POSN8              CAF      ROOT2/4B
000865: 27,7411           51020                           TS       YSM
000866: 27,7412           51022                           TS       YSM        +2
000867: 27,7413           51012                           TS       XSM
000868: 27,7414           40000                           COM
000869: 27,7415           51014                           TS       XSM        +2
000870: 27,7416           34521                           CAF      HALF
000871: 27,7417           51032                           TS       ZSM        +4
000872: 27,7420           35502                           CAF      TWO
000873: 27,7421           50767                           TS       PIPINDX2
000874: 27,7422           35500                           CAF      ZERO
000875: 27,7423           51177                           TS       TESTNDX
000876: 27,7424           36474                           CAF      DEC140
000877: 27,7425           51206                           TS       RESULTCT
000878: 27,7426           06560                           TC       POSGMBL1
000879:
000880:
000881:
000882: 27,7427           31176        DATALD1            XCH      STOREPL
000883: 27,7430           21206                           INDEX    RESULTCT
000884: 27,7431           51210                           TS       DATAPL
000885: 27,7432           30114                           XCH      MPAC
000886: 27,7433           21206                           INDEX    RESULTCT
000887: 27,7434           51211                           TS       DATAPL     +1
000888: 27,7435           30115                           XCH      MPAC       +1
000889: 27,7436           21206                           INDEX    RESULTCT
000890: 27,7437           51212                           TS       DATAPL     +2
000891: 27,7440           30116                           XCH      MPAC       +2
000892: 27,7441           21206                           INDEX    RESULTCT
000893: 27,7442           51213                           TS       DATAPL     +3
000894: 27,7443           00001                           TC       Q
000895:
000896:
000897:
000898: 27,7444           30001        WARTMAL            XCH      Q
000899: 27,7445           51207                           TS       QPLACE
000900: 27,7446           40001                           CS       Q
000901: 27,7447           50757                           TS       COUNTPL
000902: 27,7450           10757        WARTMAL4           CCS      COUNTPL
000903: 27,7451           07455                           TC       +4
000904: 27,7452           01207                           TC       QPLACE
000905: 27,7453           07455                           TC       +2
000906: 27,7454           07447                           TC       WARTMAL4   -1
000907: 27,7455           20017                           INHINT
000908: 27,7456           34504                           CAF      BIT11
000909: 27,7457           02124                           TC       WAITLIST
000910: 27,7460           57472                           CADR     WARTMAL3
000911: 27,7461           20016                           RELINT
000912: 27,7462           10757                           CCS      COUNTPL
000913: 27,7463           01207                           TC       QPLACE
000914: 27,7464           01207                           TC       QPLACE
000915: 27,7465           30000                           NOOP
000916: 27,7466           50757        WARTMAL2           TS       COUNTPL
000917: 27,7467           37471                           CAF      WTMLCADR
000918: 27,7470           02120                           TC       JOBSLEEP
000919: 27,7471           57450        WTMLCADR           CADR     WARTMAL4
000920: 27,7472           37471        WARTMAL3           CAF      WTMLCADR
000921: 27,7473           02051                           TC       JOBWAKE
000922: 27,7474           02203                           TC       TASKOVER
000923:
000924:
000925:
000926: 27,7475           04000        CDUCALC            TC       INTPRET
000927: 27,7476           71574                           LXC,1    2
000928: 27,7477           66306                           DSU*     BDDV
000929: 27,7500           64771                           DMP      RTB
000930: 27,7501           01207                                    RESULTCT
000931: 27,7502           02425                                    DATAPL     +2,1
000932: 27,7503           02421                                    DATAPL,1
000933: 27,7504           01201                                    GENPL      +76D
000934: 27,7505           16464                                    ERUNITS                               #  2DEC.66666
000935: 27,7506           07147                                    SGNAGREE
000936: 27,7507           32633                           STORE    DSPTEM2
000937: 27,7510           77576                           EXIT     0
000938:
000939: 27,7511           07640                           TC       FINISH
000940:
000941:
000942: 27,7512           21064        PIPCALC            INDEX    GENPL
000943: 27,7513           41214                           CS       DATAPL     +4
000944: 27,7514           21064                           INDEX    GENPL
000945: 27,7515           61220                           AD       DATAPL     +8D
000946: 27,7516           51065                           TS       GENPL      +1
000947: 27,7517           21064                           INDEX    GENPL
000948: 27,7520           41214                           CS       DATAPL     +4
000949: 27,7521           21064                           INDEX    GENPL
000950: 27,7522           61224                           AD       DATAPL     +12D
000951: 27,7523           51067                           TS       GENPL      +3
000952: 27,7524           21064                           INDEX    GENPL
000953: 27,7525           41214                           CS       DATAPL     +4
000954: 27,7526           21064                           INDEX    GENPL
000955: 27,7527           61230                           AD       DATAPL     +16D
000956: 27,7530           51071                           TS       GENPL      +5
000957: 27,7531           35500                           CAF      ZERO
000958: 27,7532           51066                           TS       GENPL      +2
000959: 27,7533           51070                           TS       GENPL      +4
000960: 27,7534           51072                           TS       GENPL      +6
000961: 27,7535           04000                           TC       INTPRET
000962: 27,7536           71575                           LXC,1    1
000963: 27,7537           76576                           RTB
000964: 27,7540           01065                                    GENPL
000965: 27,7541           07034                                    FRESHPD
000966: 27,7542           54375                           TSU*     1
000967: 27,7543           63631                           TSLT     ROUND
000968: 27,7544           02443                                    DATAPL     +9D,1
000969: 27,7545           02433                                    DATAPL     +5,1
000970: 27,7546           00015                                    12D
000971: 27,7547           51176                           DSQ      0
000972: 27,7550           00001                                    0                                     #  T1(2) IN 2,3
000973: 27,7551           64775                           DMP      1
000974: 27,7552           41176                           VDEF
000975: 27,7553           00001                                    0
000976: 27,7554           00003                                    2
000977: 27,7555           33077                           STORE    GENPL      +10D
000978: 27,7556           54375                           TSU*     1
000979: 27,7557           63631                           TSLT     ROUND
000980: 27,7560           02453                                    DATAPL     +13D,1
000981: 27,7561           02433                                    DATAPL     +5,1
000982: 27,7562           00015                                    12D
000983: 27,7563           51176                           DSQ      0
000984: 27,7564           00001                                    0
000985: 27,7565           64775                           DMP      1                                     #  T2(2) IN 6
000986: 27,7566           41176                           VDEF
000987: 27,7567           00001                                    0
000988: 27,7570           00003                                    2
000989: 27,7571           33105                           STORE    GENPL      +16D
000990: 27,7572           54375                           TSU*     1
000991: 27,7573           63631                           TSLT     ROUND
000992: 27,7574           02463                                    DATAPL     +17D,1
000993: 27,7575           02433                                    DATAPL     +5D,1
000994: 27,7576           00015                                    12D
000995: 27,7577           51176                           DSQ      0
000996: 27,7600           00001                                    0
000997: 27,7601           64775                           DMP      1
000998: 27,7602           41176                           VDEF
000999: 27,7603           00001                                    0
001000: 27,7604           00003                                    2
001001: 27,7605           33115                           STORE    GENPL      +24D
001002: 27,7606           41775                           VXV      1
001003: 27,7607           42776                           DOT
001004: 27,7610           01105                                    GENPL      +16D
001005: 27,7611           01115                                    GENPL      +24D
001006: 27,7612           01077                                    GENPL      +10D
001007: 27,7613           33125                           STORE    GENPL      +32D                       #  D2
001008: 27,7614           45176                           DMOVE    0
001009: 27,7615           01066                                    GENPL      +1
001010: 27,7616           33101                           STORE    GENPL      +12D
001011: 27,7617           45176                           DMOVE    0
001012: 27,7620           01070                                    GENPL      +3
001013: 27,7621           33107                           STORE    GENPL      +18D
001014: 27,7622           45176                           DMOVE    0
001015: 27,7623           01072                                    GENPL      +5D
001016: 27,7624           33117                           STORE    GENPL      +26D
001017: 27,7625           41774                           VXV      2
001018: 27,7626           42712                           DOT      DDV
001019: 27,7627           64771                           DMP      RTB
001020: 27,7630           01105                                    GENPL      +16D
001021: 27,7631           01115                                    GENPL      +24D
001022: 27,7632           01077                                    GENPL      +10D
001023: 27,7633           01125                                    GENPL      +32D
001024: 27,7634           16466                                    ERUNITS2
001025: 27,7635           07147                                    SGNAGREE
001026: 27,7636           32633                           STORE    DSPTEM2
001027: 27,7637           77576                           EXIT     0
001028:
001029: 27,7640           06364        FINISH             TC       SHOW
001030: 27,7641           34511                           CAF      BIT6
001031: 27,7642           50762                           TS       NBPOS
001032: 27,7643           34516                           CAF      ONE
001033: 27,7644           61205                           AD       POSITON
001034: 27,7645           51205                           TS       POSITON
001035: 27,7646           41205                           CS       POSITON
001036: 27,7647           66407                           AD       DEC11
001037: 27,7650           10000                           CCS      A
001038: 27,7651           07654                           TC       +3
001039: 27,7652           07056                           TC       ENDTEST1
001040: 27,7653           07056                           TC       ENDTEST1
001041: 27,7654           20017                           INHINT
001042: 27,7655           36405                           CAF      PRIO23
001043: 27,7656           02037                           TC       FINDVAC
001044: 27,7657           56532                           CADR     GYRDRFT2
001045: 27,7660           02115                           TC       ENDOFJOB
001046:
001047:
001048:
001049: 27,7661           11177        RESULTS            CCS      TESTNDX
001050: 27,7662           07475                           TC       CDUCALC
001051: 27,7663           07512                           TC       PIPCALC
001052: 27,7664           07475                           TC       CDUCALC
001053: 27,7665           41214        SFCALC             CS       DATAPL     +4
001054: 27,7666           61220                           AD       DATAPL     +8D
001055: 27,7667           51210                           TS       DATAPL
001056:
001057: 27,7670           04000                           TC       INTPRET
001058: 27,7671           54775                           TSU      1
001059: 27,7672           63631                           TSLT     ROUND
001060: 27,7673           01222                                    DATAPL     +9D
001061: 27,7674           01216                                    DATAPL     +5
001062: 27,7675           00017                                    14D
001063: 27,7676           43174                           SMOVE    2
001064: 27,7677           64712                           DMP      DDV
001065: 27,7700           76576                           RTB
001066: 27,7701           01211                                    DATAPL
001067: 27,7702           16461                                    DC585
001068: 27,7703           00001                                    0
001069: 27,7704           07147                                    SGNAGREE
001070: 27,7705           32633                           STORE    DSPTEM2
001071: 27,7706           77576                           EXIT     0
001072: 27,7707           07640                           TC       FINISH
001073:
001074:
001075: 27,7710           41056        SETHETAD           CS       OGC
001076: 27,7711           40000                           COM
001077: 27,7712           50705                           TS       THETAD
001078: 27,7713           41062                           CS       MGC
001079: 27,7714           40000                           COM
001080: 27,7715           50707                           TS       THETAD     +2
001081: 27,7716           41060                           CS       IGC
001082: 27,7717           40000                           COM
001083: 27,7720           50706                           TS       THETAD     +1
001084: 27,7721           00001                           TC       Q
001085:
001086:
001087:
001088: 27,7722           40762        SHOWLD             CS       NBPOS
001089: 27,7723           40000                           CS       A
001090: 27,7724           50632                           TS       DSPTEM2
001091: 27,7725           41177                           CS       TESTNDX
001092: 27,7726           40000                           CS       A
001093: 27,7727           50633                           TS       DSPTEM2    +1
001094: 27,7730           00001                           TC       Q
001095:
001096:
001097:
001098: 27,7731           20761        CDUD               INDEX    CDUNDX
001099: 27,7732           30047                           XCH      CDUX
001100: 27,7733           51201                           TS       GENPL      +77D
001101: 27,7734           02473                           TC       READTIME
001102: 27,7735           20016                           RELINT
001103: 27,7736           40565                           CS       RUPTSTOR
001104: 27,7737           21206                           INDEX    RESULTCT
001105: 27,7740           51212                           TS       DATAPL     +2
001106: 27,7741           40566                           CS       RUPTSTOR   +1
001107: 27,7742           21206                           INDEX    RESULTCT
001108: 27,7743           51213                           TS       DATAPL     +3
001109: 27,7744           07475                           TC       CDUCALC
001110:
001111:
001112:
001113: 27,7745           30001        STOPHOR            XCH      Q
001114: 27,7746           51207                           TS       QPLACE
001115: 27,7747           04000                           TC       INTPRET
001116: 27,7750           76776                           ITC      0
001117: 27,7751           14527                                    EARTHR
001118: 27,7752           76776                           ITC      0
001119: 27,7753           14550                                    OUTGYR
001120: 27,7754           77576                           EXIT     0
001121: 27,7755           02516                           TC       BANKCALL
001122: 27,7756           21412                           CADR     IMUSTALL
001123: 27,7757           07056                           TC       ENDTEST1
001124: 27,7760           01207                           TC       QPLACE

End of include-file IMU_PERFORMANCE_TESTS_2.agc.  Parent file is MAIN.agc


