
Source Code


000002:                                                                                                  ## Copyright:   Public domain.
000003:                                                                                                  ## Filename:    INTER-BANK_COMMUNICATION.agc
000004:                                                                                                  ## Purpose:     A section of Sunrise 69.
000005:                                                                                                  ##              It is part of the reconstructed source code for the final
000006:                                                                                                  ##              release of the Block I Command Module system test software. No
000007:                                                                                                  ##              original listings of this program are available; instead, this
000008:                                                                                                  ##              file was created via disassembly of dumps of Sunrise core rope
000009:                                                                                                  ##              memory modules and comparison with the later Block I program
000010:                                                                                                  ##              Solarium 55.
000011:                                                                                                  ## Assembler:   yaYUL --block1
000012:                                                                                                  ## Contact:     Ron Burkey <info@sandroid.org>.
000013:                                                                                                  ## Website:     www.ibiblio.org/apollo/index.html
000014:                                                                                                  ## Mod history: 2023-06-19 MAS  Created from Sunrise 45.
000015:
000016:
000017:                                                                                                  #        THE FOLLOWING SUBROUTINES ARE INTENDED TO FACILITATE INTER-BANK COMMUNICATION. ROUTINES ARE PROVIDED
000018:                                                                                                  #  FOR JUMPING TO A LOCATION IN ANOTHER BANK, CALLING A SUBROUTINE IN ANOTHER BANK, AND OBTAINING DATA FROM ANOTHER
000019:                                                                                                  #  BANK. IN ADDITION, A ROUTINE IS PROVIDED FOR MAKING UP A RETURN_ADDRESS CADR FOR USE BY THE CALLED SUBROUTINE.
000020:
000021:    2516                                           BANK     1
000022:    2516           50061        BANKCALL           TS       ADDRWD                                #  SUBROUTINE CALL WITH TRANSMISSION BOTH
000023:    2517           30001                           XCH      Q                                     #  WAYS IN A. THE CADR OF THE CALLED
000024:    2520           64516                           AD       ONE                                   #  ROUTINE SHOULD IMMEDIATELY FOLLOW THE
000025:    2521           50001                           TS       Q                                     #  TC BANKCALL.
000026:    2522           20000                           INDEX    A
000027:    2523           27777                           CAF      0          -1                         #  PICK UP CADR AND FALL INTO SWCALL.
000028:
000029:    2524           50070        SWCALL             TS       TEMQS                                 #  SWCALL IS ALOS USED TO CALL SUBROUTINES
000030:    2525           30015                           XCH      BANKREG                               #  IN OTHER BANKS, BUT THE CADR ARRIVES IN
000031:    2526           50071                           TS       BANKTEM                               #  A. DATA MAY BE TRANSMITTED BACK TO THE
000032:    2527           30001                           XCH      Q                                     #  CALLING PROGRAM IN A, HOWEVER.
000033:    2530           30070                           XCH      TEMQS                                 #  RETURN INFORMATION NOW COMPLETE.
000034:    2531           50113                           TS       ESCAPE
000035:    2532           72201                           MASK     70K                                   #  PROVISION FOR CALLING A ROUTINE IN
000036:    2533           10000                           CCS      A                                     #  FIXED-FIXED (OF QUESTIONABLE VALUE).
000037:    2534           02536                           TC       +2                                    #  SPECIAL TREATMENT REQUIRED IF NON-ZERO.
000038:    2535           02540                           TC       +3                                    #  INPUT CADR OK AS IS.
000039:
000040:    2536           40015                           CS       BANKREG                               #  FORM PROPER 12 BIT ADDRESS.
000041:    2537           64373                           AD       6K
000042:    2540           60113                 +3        AD       ESCAPE                                #  PROPER CADRS COME HERE WITH C(A) = 0.
000043:    2541           30061                           XCH      ADDRWD                                #  SO A CAN TRANSMIT WITH BANKCALL.
000044:    2542           20061                           INDEX    ADDRWD
000045:    2543           00000                           TC       0                                     #  SETTING Q TO SWRETURN.
000046:
000047:    2544           30071        SWRETURN           XCH      BANKTEM                               #  RETURN TO CALLER, TRANSMITTING THROUGH A
000048:    2545           50015                           TS       BANKREG
000049:    2546           30071                           XCH      BANKTEM                               #  RESTORE A AS UPON ARRIVAL TO SWRETURN.
000050:    2547           00070                           TC       TEMQS                                 #  RETURN.
000051:
000052:
000053:    2550           35500        MAKECADR           CAF      ZERO                                  #  LEAVES RETURN-ADDRESS CADR (AS SET BY
000054:    2551           60070                           AD       TEMQS                                 #  SWCALL OR BANKCALL) IN ADDRWD.
000055:    2552           50061                           TS       ADDRWD
000056:    2553           62562                           AD       32K                                   #  SEE IF BANK INFORMATION NEEDED (USUAL).
000057:    2554           50034                           TS       OVCTR
000058:    2555           00001                           TC       Q                                     #  ADDRWD SET OK IF NO OVERFLOW (IN FF).
000059:
000060:    2556           30034                           XCH      OVCTR                                 #  CONTAINS LOW 10 BITS ONLY.
000061:    2557           60071                           AD       BANKTEM
000062:    2560           50061                           TS       ADDRWD                                #  RETURN CADR NOW COMPLETE.
000063:    2561           00001                           TC       Q
000064:
000065:    2562           32000        32K                OCT      32000
000066:    2563           30001        POSTJUMP           XCH      Q                                     #  ONE-WAY BANK TO BANK JUMP, WITH NO
000067:    2564           20000                           INDEX    A                                     #  RETURN ADDRESS. THIS VERSION TRANSMITS
000068:    2565           30000                           CAF      0                                     #  THROUGH A IF DESIRED.
000069:
000070:    2566           50015        BANKJUMP           TS       BANKREG                               #  SAME AS ABOVE ONLY ADDRESS ARRIVES IN A.
000071:    2567           74605                           MASK     LOW10                                 #  BANKJUMP AND POSTJUMP MAY BE USED IN
000072:    2570           30001                           XCH      Q                                     #  INTERRUPT OR UNDER EXEC, BUT BANKCALL
000073:    2571           20001                           INDEX    Q                                     #  AND SWCALL MAY BE USED ONLY UNDER EXEC.
000074:    2572           06000                           TC       6000
000075:
000076:
000077:    2573           50113        DATACALL           TS       ESCAPE                                #  SUBROUTINE TO RETRIEVE DATA IN ANOTHER
000078:    2574           30015                           XCH      BANKREG                               #  BANK. THE CADR OF THE LOCATION OF INTER-
000079:    2575           30113                           XCH      ESCAPE                                #  EST ARRIVES IN A AND ITS CONTENTS ARE IN
000080:    2576           74605                           MASK     LOW10                                 #  A ON EXIT. THIS MAY BE USED ONLY UNDER
000081:    2577           20000                           INDEX    A                                     #  EXECUTIVE.
000082:    2600           36000                           CAF      6000                                  #  REQUESTED DATA NOW ACQUIRED.
000083:
000084:    2601           30113                           XCH      ESCAPE
000085:    2602           50015                           TS       BANKREG
000086:    2603           30113                           XCH      ESCAPE
000087:    2604           00001                           TC       Q

End of include-file INTER-BANK_COMMUNICATION.agc.  Parent file is MAIN.agc


