
Source Code


000002:                                                                                                  ## Copyright:   Public domain.
000003:                                                                                                  ## Filename:    RTB_OP_CODES.agc
000004:                                                                                                  ## Purpose:     A section of Sunrise 69.
000005:                                                                                                  ##              It is part of the reconstructed source code for the final
000006:                                                                                                  ##              release of the Block I Command Module system test software. No
000007:                                                                                                  ##              original listings of this program are available; instead, this
000008:                                                                                                  ##              file was created via disassembly of dumps of Sunrise core rope
000009:                                                                                                  ##              memory modules and comparison with the later Block I program
000010:                                                                                                  ##              Solarium 55.
000011:                                                                                                  ## Assembler:   yaYUL --block1
000012:                                                                                                  ## Contact:     Ron Burkey <info@sandroid.org>.
000013:                                                                                                  ## Website:     www.ibiblio.org/apollo/index.html
000014:                                                                                                  ## Mod history: 2023-06-19 MAS  Created from Sunrise 45.
000015:
000016:
000017: 23,7021                                           BANK     23
000018:                                                                                                  #  ROUTINE TO LOAD TIME OF DAY INTO MPAC
000019:
000020: 23,7021           02473        LOADTIME           TC       READTIME
000021: 23,7022           40565                           CS       RUPTSTOR
000022: 23,7023           50114                           TS       MPAC
000023: 23,7024           40566                           CS       RUPTSTOR   +1
000024: 23,7025           50115                           TS       MPAC       +1
000025: 23,7026           20016                           RELINT
000026: 23,7027           35500                           CAF      ZERO
000027: 23,7030           50065                           TS       NEWEQIND
000028: 23,7031           50116                           TS       MPAC       +2
000029: 23,7032           05236                           TC       DPEXIT
000030:
000031:
000032:                                                                                                  #  ROUTINE TO RESET THE PUSHDOWN POUNTER
000033:
000034: 23,7033           40066        FRESHPD            CS       FIXLOC
000035: 23,7034           40000                           COM
000036: 23,7035           50122                           TS       PUSHLOC
000037: 23,7036           04702                           TC       RE-ENTER
000038:
000039:
000040:                                                                                                  #  ROUTINE TO ZERO OUT THE FIRST 38 LOCS OF A VAC AREA
000041:
000042: 23,7037           37051        ZEROVAC            CAF      37DEC
000043: 23,7040           50114        ZVLOOP             TS       MPAC
000044: 23,7041           60066                           AD       FIXLOC
000045: 23,7042           50001                           TS       Q
000046: 23,7043           35500                           CAF      ZERO
000047: 23,7044           20001                           INDEX    Q
000048: 23,7045           50000                           TS       0
000049: 23,7046           10114                           CCS      MPAC
000050: 23,7047           07040                           TC       ZVLOOP
000051: 23,7050           04702                           TC       RE-ENTER
000052:
000053: 23,7051           00045        37DEC              DEC      37         B-14
000054:
000055:
000056:                                                                                                  #  ROUTINE TO CONVERT IS COMP. NOS. TO 1S COMP.
000057:
000058: 23,7052           10114        CDULOGIC           CCS      MPAC                                  #  THIS BASIC ROUTINE TESTS CDU ANGLES FOR
000059: 23,7053           07060                           TC       CDULOG1                               #  +OR-SIGN INCLUDING ZERO AND FORMS A DP
000060: 23,7054           07060                           TC       CDULOG1                               #  NUMBER CORRESPONDING TO ANGLE
000061: 23,7055           07056                           TC       +1
000062: 23,7056           44521                           CS       HALF                                  #  USE           SMOVE   1
000063: 23,7057           07061                           TC       +2                                    #                RTB
000064: 23,7060           45500        CDULOG1            CS       ZERO                                  #                        CDUXYZ
000065: 23,7061           30034                           XCH      OVCTR                                 #                        CDULOGIC
000066: 23,7062           30114                           XCH      MPAC
000067: 23,7063           25777                           EXTEND
000068: 23,7064           44521                           MP       HALF
000069: 23,7065           30034                           XCH      OVCTR
000070: 23,7066           60003                           AD       LP
000071: 23,7067           30115                           XCH      MPAC       +1
000072: 23,7070           30034                           XCH      OVCTR
000073: 23,7071           30114                           XCH      MPAC
000074: 23,7072           04024                           TC       DANZIG
000075:
000076:
000077:                                                                                                  #  ROUTINE TO CONVERT 1S COMP. NOS. TO 2S COMP.
000078:
000079: 23,7073           35500        1STO2S             CAF      ZERO
000080: 23,7074           30115                           XCH      MPAC       +1
000081: 23,7075           60000                           DOUBLE
000082: 23,7076           50034                           TS       OVCTR
000083: 23,7077           35500                           CAF      ZERO
000084: 23,7100           60114                           AD       MPAC
000085: 23,7101           60114                           AD       MPAC
000086: 23,7102           10000                           CCS      A
000087: 23,7103           64516                           AD       ONE
000088: 23,7104           07106                           TC       +2
000089: 23,7105           40000                           COM
000090: 23,7106           50114        ZYXR               TS       MPAC                                  #  AND MAYBE OVERFLOW.
000091: 23,7107           04024                           TC       DANZIG
000092:
000093: 23,7110           20000                           INDEX    A                                     #  HANDLE OVERFLOW IN STANDARD ANGULAR WAY.
000094: 23,7111           34477                           CAF      LIMITS
000095: 23,7112           60114                           AD       MPAC                                  #  GUARANTEED NO OVERFLOW.
000096: 23,7113           07106                           TC       ZYXR
000097:
000098:
000099: 23,7114           20017        READPIPS           INHINT
000100: 23,7115           40044                           CS       PIPAX
000101: 23,7116           40000                           CS       A
000102: 23,7117           20066                           INDEX    FIXLOC
000103: 23,7120           50040                           TS       VAC
000104: 23,7121           40045                           CS       PIPAY
000105: 23,7122           40000                           CS       A
000106: 23,7123           20066                           INDEX    FIXLOC
000107: 23,7124           50042                           TS       VAC        +2
000108: 23,7125           40046                           CS       PIPAZ
000109: 23,7126           40000                           CS       A
000110: 23,7127           20066                           INDEX    FIXLOC
000111: 23,7130           50044                           TS       VAC        +4
000112: 23,7131           20016                           RELINT
000113: 23,7132           35500                           CAF      ZERO
000114: 23,7133           20066                           INDEX    FIXLOC
000115: 23,7134           50041                           TS       VAC        +1
000116: 23,7135           20066                           INDEX    FIXLOC
000117: 23,7136           50043                           TS       VAC        +3
000118: 23,7137           20066                           INDEX    FIXLOC
000119: 23,7140           50045                           TS       VAC        +5
000120: 23,7141           45500        VMODE              CS       ZERO
000121: 23,7142           05237                           TC       DPEXIT     +1
000122:
000123:
000124:
000125: 23,7143           02516        PULSEIMU           TC       BANKCALL
000126: 23,7144           21440                           CADR     IMUPULSE
000127:
000128: 23,7145           04702                           TC       RE-ENTER
000129:
000130:
000131: 23,7146           02516        SGNAGREE           TC       BANKCALL
000132: 23,7147           07132                           CADR     TPAGREE
000133: 23,7150           04024                           TC       DANZIG
000134:
000135:
000136:
000137:                                                                                                  #  ROUTINE TO COMPLETE OPTICS TRUNNION ANGLE CONVERSION FROM COUNTER
000138:                                                                                                  #  READING TO DP REVOLUTIONS. CALLS TO TRUNLOG SHOULD BE IMMEDIATELY
000139:                                                                                                  #  PRECEDED BY A CALL TO CDULOGIC.  (NO NEED TO CHECK SXT POWER-ON BIT.)
000140: 23,7151           34502        TRUNLOG            CAF      BIT13
000141: 23,7152           70750                           MASK     WASOPSET
000142: 23,7153           10000                           CCS      A
000143: 23,7154           07160                           TC       +4
000144:
000145: 23,7155           34521                           CAF      HALF
000146: 23,7156           05415        TRUNLOG1           TC       SHORTMP
000147: 23,7157           04024                           TC       DANZIG                                #  WITH PD IF AT END W/ NO ADDRESSES.
000148:
000149: 23,7160           37165                           CAF      10DEGS                                #  CORRECT FOR 20 DEG OFFSET (CDULOGIC
000150: 23,7161           60114                           AD       MPAC                                  #   ALREADY SHIFTED IT RIGHT ONE) AND SHIFT
000151: 23,7162           50114                           TS       MPAC                                  #   RIGHT TWO ADDITIONAL PLACES.
000152: 23,7163           34502                           CAF      QUARTER
000153: 23,7164           07156                           TC       TRUNLOG1
000154:
000155: 23,7165           07020        10DEGS             DEC      3600       B-14                       #  HALF OF SXT TRUNION OFFSET

End of include-file RTB_OP_CODES.agc.  Parent file is MAIN.agc


