
Source Code


000002:                                                                                                  ## Copyright:   Public domain.
000003:                                                                                                  ## Filename:    AGC_SELF-CHECK.agc
000004:                                                                                                  ## Purpose:     A section of Sunrise 45.
000005:                                                                                                  ##              It is part of the reconstructed source code for the penultimate
000006:                                                                                                  ##              release of the Block I Command Module system test software. No
000007:                                                                                                  ##              original listings of this program are available; instead, this
000008:                                                                                                  ##              file was created via disassembly of dumps of Sunrise core rope
000009:                                                                                                  ##              memory modules and comparison with the later Block I program
000010:                                                                                                  ##              Solarium 55.
000011:                                                                                                  ## Assembler:   yaYUL --block1
000012:                                                                                                  ## Contact:     Ron Burkey <info@sandroid.org>.
000013:                                                                                                  ## Website:     www.ibiblio.org/apollo/index.html
000014:                                                                                                  ## Mod history: 2022-12-09 MAS  Initial reconstructed source.
000015:
000016:
000017: 05,6676                                           SETLOC   ENDEXTVS
000018:
000019: 05,6676           00001        SBIT1              OCTAL    00001
000020: 05,6677           00002        SBIT2              OCTAL    00002
000021: 05,6700           00004        SBIT3              OCTAL    00004
000022: 05,6701           00010        SBIT4              OCTAL    00010
000023: 05,6702           00020        SBIT5              OCTAL    00020
000024: 05,6703           00040        SBIT6              OCTAL    00040
000025: 05,6704           00100        SBIT7              OCTAL    00100
000026: 05,6705           00200        SBIT8              OCTAL    00200
000027: 05,6706           00400        SBIT9              OCTAL    00400
000028: 05,6707           01000        SBIT10             OCTAL    01000
000029: 05,6710           02000        SBIT11             OCTAL    02000
000030: 05,6711           04000        SBIT12             OCTAL    04000
000031: 05,6712           10000        SBIT13             OCTAL    10000
000032: 05,6713           20000        SBIT14             OCTAL    20000
000033: 05,6714           40000        SBIT15             OCTAL    40000
000034:
000035:                                                                                                  #  THE FOLLOWING CONSTANTS ARE USED THROUGHOUT SELF-CHECK
000036: 05,6715           00000        SCON0              OCTAL    +0
000037: 05,6716           00001        SCON1              OCTAL    +1
000038: 05,6717           00002        SCON2              OCTAL    +2
000039: 05,6720           00004        SCON4              OCTAL    +4
000040: 05,6721           00100        SCON64             OCTAL    00100
000041: 05,6722           10000        SCON1/4            OCTAL    10000
000042: 05,6723           14000        SCON3/8            OCTAL    14000
000043: 05,6724           20000        SCON1/2            OCTAL    20000
000044: 05,6725           37775        SCONTS             OCTAL    37775
000045: 05,6726           37776        SCONSU             OCTAL    37776
000046: 05,6727           37777        SCON+MAX           OCTAL    37777
000047: 05,6730           63777        SCON-3/8           OCTAL    63777
000048: 05,6731           67777        SCON-1/2           OCTAL    67777
000049: 05,6732           77775        SCON-2             OCTAL    77775
000050: 05,6733           77776        SCON-1             OCTAL    77776
000051: 05,6734           77777        SCONMAX            OCTAL    77777
000052:
000053: 05,6735           30001        ERRORS             XCH      Q                                     #  FAILURE DETECTED - ALARM.
000054: 05,6736           51570                           TS       SFAIL                                 #  SAVE CALLING Q FOR POSSIBLE FAILURE LOC.
000055: 05,6737           02605                           TC       ALARM
000056: 05,6740           01102                           OCT      01102
000057: 05,6741           35500                           CAF      ZERO
000058: 05,6742           51567                           TS       SMODE
000059: 05,6743           07337                           TC       DUMMYJOB
000060:
000061:                                                                                                  #  CHECKS MOST CCS PULSES
000062: 05,6744           51567        CCSCHK             TS       SMODE
000063: 05,6745           46717                           CS       SCON2                                 #  -2
000064: 05,6746           10000                           CCS      A                                     #  C(A) = -2
000065: 05,6747           06735                           TC       ERRORS
000066: 05,6750           06735                           TC       ERRORS
000067: 05,6751           06753                           TC       +2
000068: 05,6752           06735                           TC       ERRORS
000069: 05,6753           10000                           CCS      A                                     #  C(A) = +1, RESULT OF CCS -NUMBER
000070: 05,6754           06760                           TC       +4
000071: 05,6755           06735                           TC       ERRORS
000072: 05,6756           06735                           TC       ERRORS
000073: 05,6757           06735                           TC       ERRORS
000074: 05,6760           10000                           CCS      A                                     #  C(A) = +0, RESULT OF CCS + NUMBER
000075: 05,6761           06735                           TC       ERRORS
000076: 05,6762           06765                           TC       +3
000077: 05,6763           06735                           TC       ERRORS
000078: 05,6764           06735                           TC       ERRORS
000079: 05,6765           40000                           CS       A
000080: 05,6766           10000                           CCS      A                                     #  C(A) = -0, RESULT OF CCS +0
000081: 05,6767           06735                           TC       ERRORS
000082: 05,6770           06735                           TC       ERRORS
000083: 05,6771           06735                           TC       ERRORS
000084: 05,6772           10000                           CCS      A                                     #  RESULT OF CCS -0
000085: 05,6773           06735                           TC       ERRORS
000086: 05,6774           06777                           TC       +3
000087: 05,6775           06735                           TC       ERRORS
000088: 05,6776           06735                           TC       ERRORS
000089:                                                                                                  #  SPECIFICALLY CHECKS RSC PULSE OF TC INSTRUCTION (ALSO MOST OF TC
000090:                                                                                                  #  PULSES)
000091: 05,6777           07001                           TC       +2
000092: 05,7000           07002                           TC       +2                                    #  NEXT SUBROUTINE
000093: 05,7001           00001                           TC       Q
000094:
000095: 05,7002           66676                           AD       SBIT1
000096: 05,7003           51601                           TS       OKREG
000097:
000098:                                                                                                  #  CHECKS WP, GP, TP - WP2, RP2 - RG, WP, OF CCS1
000099:                                                                                                  #  CHECKS RB, WG PULSES (READ BACK INTO ERASABLE)
000100: 05,7004           35777        PTY+ERAS           CAF      5777                                  #  47777
000101: 05,7005           51573                           TS       SKEEP1
000102: 05,7006           71573                           MASK     SKEEP1
000103: 05,7007           31573                           XCH      SKEEP1
000104: 05,7010           61573                           AD       SKEEP1
000105: 05,7011           25777                           INDEX    5777
000106: 05,7012           41573                           4        SKEEP1                                #  MP SKEEP1
000107: 05,7013           25777                           INDEX    5777
000108: 05,7014           51573                           5        SKEEP1                                #  DV SKEEP1
000109: 05,7015           41573                           CS       SKEEP1
000110: 05,7016           51574                           TS       SKEEP2                                #  30000
000111: 05,7017           21573                           INDEX    SKEEP1                                #  TROUBLE IF C(SKEEP1) NOT 47777
000112: 05,7020           61574                           6        SKEEP2                                #  SU SKEEP2, C(A) = -0
000113: 05,7021           51574                           TS       SKEEP2                                #  -0
000114: 05,7022           11574                           CCS      SKEEP2
000115: 05,7023           06735                           TC       ERRORS
000116: 05,7024           06735                           TC       ERRORS
000117: 05,7025           06735                           TC       ERRORS
000118: 05,7026           11574                           CCS      SKEEP2
000119: 05,7027           06735                           TC       ERRORS
000120: 05,7030           06735                           TC       ERRORS
000121: 05,7031           06735                           TC       ERRORS
000122: 05,7032           41601                           CS       OKREG
000123: 05,7033           40000                           CS       A
000124: 05,7034           66677                           AD       SBIT2
000125: 05,7035           51601                           TS       OKREG
000126:                                                                                                  #  START ERASABLE INSTRUCTION CHECK
000127: 05,7036           37054                           CAF      EINST1
000128: 05,7037           51573                           TS       SKEEP1
000129: 05,7040           37055                           CAF      EINST2
000130: 05,7041           51574                           TS       SKEEP2
000131: 05,7042           37056                           CAF      EINST3
000132: 05,7043           51575                           TS       SKEEP3
000133: 05,7044           37057                           CAF      EINST4
000134: 05,7045           51576                           TS       SKEEP4
000135: 05,7046           37060                           CAF      EINST5
000136: 05,7047           51577                           TS       SKEEP5
000137: 05,7050           37061                           CAF      EINST6
000138: 05,7051           51600                           TS       SKEEP6
000139: 05,7052           36724                           CAF      SCON1/2
000140: 05,7053           01573                           TC       SKEEP1
000141: 05,7054           25777        EINST1             INDEX    5777
000142: 05,7055           46717        EINST2             4        SCON2                                 #  MP, C(A) = +1, THEN +0
000143: 05,7056           60000        EINST3             AD       A                                     #  CHECKS ST2 PARITY
000144: 05,7057           10000        EINST4             CCS      A
000145: 05,7060           01573        EINST5             TC       SKEEP1
000146: 05,7061           07062        EINST6             TC       +1                                    #  NEXT SUBROUTINE
000147:
000148: 05,7062           41601                           CS       OKREG
000149: 05,7063           40000                           CS       A
000150: 05,7064           66700                           AD       SBIT3
000151: 05,7065           51601                           TS       OKREG
000152:
000153:                                                                                                  #  CHECKS RSC, WSC PULSES
000154:                                                                                                  #  NO WSC PULSE IN MASK INSTRUCTION
000155: 05,7066           36721        SCCHK              CAF      SCON64                                #  00100
000156: 05,7067           30003                           XCH      LP                                    #  00040
000157: 05,7070           30003                           XCH      LP
000158: 05,7071           50003                           TS       LP                                    #  00020
000159: 05,7072           60003                           AD       LP                                    #  00010
000160: 05,7073           20003                           INDEX    LP                                    #  00004
000161: 05,7074           25767                           2        5767                                  #  INDEX 5777
000162: 05,7075           60003                           6        0003                                  #  SU LP, 00002
000163:                                                                                                  #  NEXT 4 INSTRUCTIONS CHECK RSC PULSE IN MASK INSTRUCTION
000164: 05,7076           40003                           CS       LP                                    #  C(A) = -2, C(LP) = +1
000165: 05,7077           70003                           MASK     LP                                    #  C(A) = +1, C(LP) = +1
000166: 05,7100           66733                           AD       SCON-1
000167: 05,7101           10000                           CCS      A
000168: 05,7102           06735                           TC       ERRORS
000169: 05,7103           06735                           TC       ERRORS
000170: 05,7104           06735                           TC       ERRORS
000171: 05,7105           10003                           CCS      LP
000172: 05,7106           07112                           TC       +4
000173: 05,7107           06735                           TC       ERRORS
000174: 05,7110           06735                           TC       ERRORS
000175: 05,7111           06735                           TC       ERRORS
000176: 05,7112           10003                           CCS      LP
000177: 05,7113           06735                           TC       ERRORS
000178: 05,7114           06735                           TC       ERRORS
000179: 05,7115           07117                           TC       +2
000180: 05,7116           06735                           TC       ERRORS
000181: 05,7117           10003                           CCS      LP
000182: 05,7120           06735                           TC       ERRORS
000183: 05,7121           07124                           TC       +3                                    #  NEXT SUBROUTINE
000184: 05,7122           06735                           TC       ERRORS
000185: 05,7123           06735                           TC       ERRORS
000186: 05,7124           41601                           CS       OKREG
000187: 05,7125           40000                           CS       A
000188: 05,7126           66701                           AD       SBIT4
000189: 05,7127           51601                           TS       OKREG
000190:                                                                                                  #  CHECKS MOST OF MP PULSES
000191: 05,7130           36720        MPCHK              CAF      SCON4
000192: 05,7131           50003                           TS       LP
000193: 05,7132           36727        MP++               CAF      SCON+MAX
000194: 05,7133           25777                           INDEX    5777
000195: 05,7134           40003                           4        LP                                    #  C(A) = +1, CHECKS RSC PULSE
000196: 05,7135           60003                           AD       LP                                    #  C(LP) = +37776
000197: 05,7136           51573                           TS       SKEEP1                                #  37777
000198: 05,7137           36727        MP+-               CAF      SCON+MAX
000199: 05,7140           25777                           INDEX    5777
000200: 05,7141           46732                           4        SCON-2
000201: 05,7142           60003                           AD       LP                                    #  C(LP) = -37776
000202: 05,7143           61573                           AD       SKEEP1
000203: 05,7144           10000                           CCS      A
000204: 05,7145           06735                           TC       ERRORS
000205: 05,7146           06735                           TC       ERRORS
000206: 05,7147           06735                           TC       ERRORS
000207: 05,7150           46727        MP--               CS       SCON+MAX
000208: 05,7151           25777                           INDEX    5777
000209: 05,7152           46732                           4        SCON-2                                #  C(A) = +1
000210: 05,7153           60003                           AD       LP                                    #  C(LP) = +37776
000211: 05,7154           51573                           TS       SKEEP1                                #  37777
000212: 05,7155           46727        MP-+               CS       SCON+MAX
000213: 05,7156           25777                           INDEX    5777
000214: 05,7157           46717                           4        SCON2                                 #  C(A) = -1
000215: 05,7160           60003                           AD       LP                                    #  C(LP) = -37776
000216: 05,7161           61573                           AD       SKEEP1
000217: 05,7162           10000                           CCS      A
000218: 05,7163           06735                           TC       ERRORS
000219: 05,7164           06735                           TC       ERRORS
000220: 05,7165           06735                           TC       ERRORS
000221:
000222: 05,7166           41601                           CS       OKREG
000223: 05,7167           40000                           CS       A
000224: 05,7170           66702                           AD       SBIT5
000225: 05,7171           51601                           TS       OKREG
000226:
000227:                                                                                                  #  CHECKS MOST OF SU PULSES
000228: 05,7172           36727        SUCHK              CAF      SCON+MAX
000229: 05,7173           25777                           INDEX    5777
000230: 05,7174           66726                           6        SCONSU                                #  SU 37776, C(A) = +1
000231: 05,7175           40000                           CS       A
000232: 05,7176           10000                           CCS      A
000233: 05,7177           06735                           TC       ERRORS
000234: 05,7200           06735                           TC       ERRORS
000235: 05,7201           10000                           CCS      A
000236: 05,7202           06735                           TC       ERRORS
000237:
000238: 05,7203           41601                           CS       OKREG
000239: 05,7204           40000                           CS       A
000240: 05,7205           66703                           AD       SBIT6
000241: 05,7206           51601                           TS       OKREG
000242:
000243:                                                                                                  #  CHECKS MOST OF DV PULSES (ALL EXCEPT WP, GP, TP)
000244:                                                                                                  #  DIVIDE USES ST2
000245:                                                                                                  #  ++ AND --, C(A) = 25252, C(Q) = 67777, C(LP) = +1
000246:                                                                                                  #  +- AND -+ , C(A) = 52525, C(Q) = 67777, C(LP) = 40000 AND 40001
000247: 05,7207           36723        DVCHK              CAF      SCON3/8
000248: 05,7210           50001                           TS       Q
000249: 05,7211           36722        DV++               CAF      SCON1/4
000250: 05,7212           25777                           INDEX    5777
000251: 05,7213           50001                           5        Q                                     #  C(A) = 25252, CHECKS RSC PULSE
000252: 05,7214           51573                           TS       SKEEP1
000253: 05,7215           30003                           XCH      LP
000254: 05,7216           51574                           TS       SKEEP2
000255: 05,7217           40001        DV+-               CS       Q                                     #  +1/4
000256: 05,7220           25777                           INDEX    5777
000257: 05,7221           56730                           5        SCON-3/8                              #  C(A) = 52525
000258: 05,7222           61573                           AD       SKEEP1                                #  C(A) = -0
000259: 05,7223           10000                           CCS      A
000260: 05,7224           06735                           TC       ERRORS
000261: 05,7225           06735                           TC       ERRORS
000262: 05,7226           06735                           TC       ERRORS
000263: 05,7227           30003                           XCH      LP
000264: 05,7230           51575                           TS       SKEEP3
000265: 05,7231           30001        DV--               XCH      Q                                     #  -1/4
000266: 05,7232           25777                           INDEX    5777
000267: 05,7233           56730                           5        SCON-3/8                              #  C(A) = 25252
000268: 05,7234           51573                           TS       SKEEP1
000269: 05,7235           30003                           XCH      LP
000270: 05,7236           51576                           TS       SKEEP4
000271: 05,7237           30001        DV-+               XCH      Q                                     #  -1/4
000272: 05,7240           25777                           INDEX    5777
000273: 05,7241           56723                           5        SCON3/8
000274: 05,7242           61573                           AD       SKEEP1                                #  C(A) = -0
000275: 05,7243           51573                           TS       SKEEP1
000276: 05,7244           40003                           CS       LP                                    #  C(A) = 37776
000277: 05,7245           61573                           AD       SKEEP1                                #  C(A) = 37776
000278: 05,7246           61574                           AD       SKEEP2                                #  C(A) = 37777
000279: 05,7247           61575                           AD       SKEEP3                                #  C(A) = -0
000280: 05,7250           61576                           AD       SKEEP4                                #  C(A) = +1
000281: 05,7251           40000                           CS       A
000282: 05,7252           10000                           CCS      A
000283: 05,7253           06735                           TC       ERRORS
000284: 05,7254           06735                           TC       ERRORS
000285: 05,7255           10000                           CCS      A
000286: 05,7256           06735                           TC       ERRORS
000287:
000288: 05,7257           41601                           CS       OKREG
000289: 05,7260           40000                           CS       A
000290: 05,7261           66704                           AD       SBIT7
000291: 05,7262           51601                           TS       OKREG
000292:
000293:                                                                                                  #  CHECKS MOST TS PULSES
000294:                                                                                                  #  CHECKS ALL OF PINC AND MINC PULSES EXCEPT WOVR
000295: 05,7263           36716        TS+-CHK            CAF      SCON1
000296: 05,7264           50034                           TS       OVCTR
000297: 05,7265           66727                           AD       SCON+MAX                              #  C(A) = + WITH OVERFLOW
000298: 05,7266           51573                           TS       SKEEP1
000299: 05,7267           06735                           TC       ERRORS
000300: 05,7270           61573                           AD       SKEEP1                                #  C(A) = +1
000301: 05,7271           60034                           AD       OVCTR                                 #  C(A) = +3
000302: 05,7272           50034                           TS       OVCTR
000303: 05,7273           40000                           CS       A                                     #  C(A) = 77774
000304: 05,7274           25777                           INDEX    5777
000305: 05,7275           66725                           6        SCONTS                                #  C(A) =  -0 WITH UNDERFLOW
000306: 05,7276           51573                           TS       SKEEP1
000307: 05,7277           06735                           TC       ERRORS
000308: 05,7300           61573                           AD       SKEEP1                                #  C(A) = -1
000309: 05,7301           60034                           AD       OVCTR                                 #  C(A) = -1+2
000310: 05,7302           40000                           CS       A
000311: 05,7303           10000                           CCS      A
000312: 05,7304           06735                           TC       ERRORS
000313: 05,7305           06735                           TC       ERRORS
000314: 05,7306           10000                           CCS      A
000315: 05,7307           06735                           TC       ERRORS
000316:
000317: 05,7310           41601                           CS       OKREG
000318: 05,7311           40000                           CS       A
000319: 05,7312           66705                           AD       SBIT8
000320: 05,7313           51601                           TS       OKREG
000321:
000322: 05,7314           31572                           XCH      SCOUNT     +1
000323: 05,7315           64516                           AD       ONE
000324: 05,7316           51572                           TS       SCOUNT     +1
000325: 05,7317           07322                           TC       SMODECHK
000326: 05,7320           61571                           AD       SCOUNT
000327: 05,7321           31571                           XCH      SCOUNT
000328:
000329:                                                                                                  #  COMPUTER ACTIVITY LIGHT (GREEN LIGHT) MAINTENANCE.
000330:
000331: 05,7322           10550        SMODECHK           CCS      NEWJOB                                #  SEE IF ITS TIME FOR A CHANGE.
000332: 05,7323           07331                           TC       DUMEXIT
000333:
000334: 05,7324           11567        ADVAN              CCS      SMODE                                 #  SEE IF SELF-CHECK IS WANTED
000335: 05,7325           06744                           TC       CCSCHK                                #  YES PULSES ONLY
000336: 05,7326           07322                           TC       SMODECHK
000337: 05,7327           06745                           TC       CCSCHK     +1                         #  YES PULSES + SC + ERASABLE
000338: 05,7330           07322                           TC       SMODECHK
000339:
000340: 05,7331           45502        DUMEXIT            CS       TWO                                   #  TURN ON GREEN LIGHT (COMP ACT) AND
000341: 05,7332           20017                           INHINT
000342: 05,7333           70011                           MASK     OUT1                                  #  GO TO CHANG1.
000343: 05,7334           65502                           AD       TWO
000344: 05,7335           50011                           TS       OUT1
000345: 05,7336           02072                           TC       CHANG1
000346:
000347: 05,7337           45502        DUMMYJOB           CS       TWO                                   #  IDLING AGAIN- TURN OFF ACTIVITY LIGHT
000348: 05,7340           20017                           INHINT
000349: 05,7341           70011                           MASK     OUT1                                  #  LIGHT.
000350: 05,7342           50011                           TS       OUT1
000351: 05,7343           20016                           RELINT
000352: 05,7344           07322                           TC       SMODECHK                              #  BACK TO CHECKING COMPUTER
000353:
000354: 05,7345                        ENDSELFC           EQUALS

End of include-file AGC_SELF-CHECK.agc.  Parent file is MAIN.agc


