
Source Code


000002:                                                                                                  ## Copyright:   Public domain.
000003:                                                                                                  ## Filename:    ALARM_AND_DISPLAY_PROCEDURES.agc
000004:                                                                                                  ## Purpose:     A section of Sunrise 45.
000005:                                                                                                  ##              It is part of the reconstructed source code for the penultimate
000006:                                                                                                  ##              release of the Block I Command Module system test software. No
000007:                                                                                                  ##              original listings of this program are available; instead, this
000008:                                                                                                  ##              file was created via disassembly of dumps of Sunrise core rope
000009:                                                                                                  ##              memory modules and comparison with the later Block I program
000010:                                                                                                  ##              Solarium 55.
000011:                                                                                                  ## Assembler:   yaYUL --block1
000012:                                                                                                  ## Contact:     Ron Burkey <info@sandroid.org>.
000013:                                                                                                  ## Website:     www.ibiblio.org/apollo/index.html
000014:                                                                                                  ## Mod history: 2022-12-09 MAS  Initial reconstructed source.
000015:
000016:
000017:                                                                                                  #        THE FOLLOWING SUBROUTINE MAY BE CALLED TO DISPLAY A NON-ABORTIVE ALARM CONDITION. IT MAY BE CALLED
000018:                                                                                                  #  EITHER IN INTERRUPT OR UNDER EXECUTIVE CONTROL.
000019:
000020:                                                                                                  #        CALLING SEQUENCE IS AS FOLLOWS:
000021:
000022:                                                                                                  #        TC      ALARM
000023:                                                                                                  #        OCT     AAANN           ALARM NO. NN IN GENERAL AREA AAA.
000024:                                                                                                  #                                (RETURNS HERE)
000025:
000026:    2605                                           BANK     1
000027:    2605           20017        ALARM              INHINT
000028:    2606           30001                           XCH      Q
000029:    2607           50572                           TS       ITEMP1
000030:
000031:    2610           10756                           CCS      FAILREG                               #  SEE IF ONE FAILURE HAS OCCURRED SINCE
000032:                                                                                                  #   THE LAST ERROR RESET.
000033:    2611           02617                           TC       MULTFAIL                              #  YES - INDICATE MULTIPLE FAILURES.
000034:    2612           02622                           TC       NEWALARM                              #  FIRST SINCE RESET.
000035:    2613           30572        MULTEXIT           XCH      ITEMP1                                #  FREE ITEMP1 BEFORE RELINT.
000036:
000037:    2614           20016        ENDALARM           RELINT
000038:    2615           20000                           INDEX    A
000039:    2616           00001                           TC       1                                     #  RETURN TO CALLER.
000040:
000041:    2617           64663        MULTFAIL           AD       CSQ                                   #  BIT 15 = 1 INDICATES MULTIPLE FAILURES.
000042:    2620           50756                           TS       FAILREG                               #  CSQ = BIT15 + BIT1.
000043:    2621           02613                           TC       MULTEXIT
000044:
000045:    2622           30572        NEWALARM           XCH      ITEMP1                                #  SAVE RETURN ADDRESS FOR CALL TO NOVAC.
000046:    2623           50756                           TS       FAILREG
000047:
000048:    2624           02643                           TC       PROGLARM                              #  TURN ON THE PROGRAM ALARM LIGHT.
000049:
000050:    2625           32650                           CAF      ALARMPR
000051:    2626           02043                           TC       NOVAC
000052:    2627           02634                           CADR     DOALARM                               #  CALL (SEPARATE) JOB FOR DISPLAY.
000053:
000054:    2630           20756                           INDEX    FAILREG                               #  (RETURN ADDRESS AT THIS POINT).
000055:    2631           30000                           CAF      0
000056:    2632           30756                           XCH      FAILREG                               #  SET FAILREG AND GET BACK RETURN ADDRESS.
000057:    2633           02614                           TC       ENDALARM
000058:
000059:
000060:                                                                                                  #        JOB WHICH CALLS NVSUB FOR ALARM DISPLAY.
000061:
000062:    2634           03025        DOALARM            TC       GRABDSP                               #  DISPLAY FAILREG.
000063:    2635           03033                           TC       PREGBSY
000064:    2636           32651                           CAF      FAILDISP
000065:    2637           02670                           TC       NVSUB
000066:    2640           03040                           TC       PRENVBSY
000067:    2641           03107                           TC       FREEDSP
000068:    2642           02115                           TC       ENDOFJOB
000069:
000070:
000071:    2643           44516        PROGLARM           CS       ONE                                   #  TURNS ON PROGRAM FAIL LIGHT ON THE
000072:    2644           70011                           MASK     OUT1                                  #  PANEL.  CALLED ONLY BY ALARM AND ABORT.
000073:    2645           64516                           AD       ONE
000074:    2646           50011                           TS       OUT1
000075:    2647           00001                           TC       Q
000076:
000077:    2650           37000        ALARMPR            OCT      37000
000078:    2651           00131        FAILDISP           OCT      00131
000079:
000080:
000081:                                                                                                  #        THE FOLLOWING ROUTINE IS CALLED TO INITIATE AN ABORT. FAILREG IS SET (ACCORDING TO THE MULTIPLE
000082:                                                                                                  #  FAILURES CONVENTION) AND A RE-START IS INITIATED BY TC-SELF. THIS IS CALLED ONLY UNDER RARE CIRCUMSTANCES.
000083:
000084:    2652           20017        ABORT              INHINT                                         #  MAY BE CALLED IN INTERRUPT OR UNDER EXEC
000085:    2653           20001                           INDEX    Q                                     #  PICK UP FAILURE CODE.
000086:    2654           30000                           CAF      0
000087:    2655           50572                           TS       ITEMP1
000088:
000089:    2656           10756                           CCS      FAILREG                               #  SEE IF THIS IS A MULTIPLE FAILURE.
000090:    2657           02662                           TC       SETMULTF                              #  SET BIT 15 TO INDICATE YES.
000091:    2660           02664                           TC       NEWABORT                              #  FIRST FAILURE.
000092:
000093:    2661           02661        WHIMPER            TC       WHIMPER                               #  NOT WITH A BANG...
000094:
000095:    2662           64663        SETMULTF           AD       CSQ                                   #  RESTORE AND SET BIT15
000096:    2663           02666                           TC       +3
000097:
000098:    2664           02643        NEWABORT           TC       PROGLARM                              #  FIRST FAILURE - TURN ON ALARM LIGHT.
000099:    2665           30572                           XCH      ITEMP1
000100:    2666           50756                 +3        TS       FAILREG
000101:    2667           02661                           TC       WHIMPER                               #  UNIVERSAL ABORT LOCATION.
000102:
000103:    2670                        ENDFAILF           EQUALS
000104:
000105: 05,7634                                           SETLOC   13634
000106: 05,7634           03025        DOALARM2           TC       GRABDSP                               #  DISPLAY FAILREG.
000107: 05,7635           03033                           TC       PREGBSY
000108: 05,7636           32651                           CAF      FAILDISP
000109: 05,7637           02670                           TC       NVSUB
000110: 05,7640           03040                           TC       PRENVBSY
000111: 05,7641           03107        ENDMKDSP           TC       FREEDSP
000112: 05,7642           02115                           TC       ENDOFJOB

End of include-file ALARM_AND_DISPLAY_PROCEDURES.agc.  Parent file is MAIN.agc


