
Source Code


000002:                                                                                                  ## Copyright:   Public domain.
000003:                                                                                                  ## Filename:    EXECUTIVE.agc
000004:                                                                                                  ## Purpose:     A section of Sunrise 45.
000005:                                                                                                  ##              It is part of the reconstructed source code for the penultimate
000006:                                                                                                  ##              release of the Block I Command Module system test software. No
000007:                                                                                                  ##              original listings of this program are available; instead, this
000008:                                                                                                  ##              file was created via disassembly of dumps of Sunrise core rope
000009:                                                                                                  ##              memory modules and comparison with the later Block I program
000010:                                                                                                  ##              Solarium 55.
000011:                                                                                                  ## Assembler:   yaYUL --block1
000012:                                                                                                  ## Contact:     Ron Burkey <info@sandroid.org>.
000013:                                                                                                  ## Website:     www.ibiblio.org/apollo/index.html
000014:                                                                                                  ## Mod history: 2022-12-09 MAS  Initial reconstructed source.
000015:
000016:
000017:                                                                                                  #  EXECUTIVE PROGRAMS
000018:                                                                                                  #  --------- --------
000019:
000020:
000021:
000022:    2037                                           BANK     1
000023:    2037           50572        FINDVAC            TS       NEWPRIO                               #  PROGRAM TO FIND AN AVAILABLE VAC
000024:    2040           30001                           XCH      Q
000025:    2041           02056                           TC       EXECCOM                               #  COMMON FF EXECUTIVE SUBROUTINE.
000026:    2042           06003                           TC       FINDVAC2                              #  OFF TO EXECUTIVE BANK.
000027:
000028:    2043           50572        NOVAC              TS       NEWPRIO                               #  ENTRY EXCLUSIVELY FOR BASIC JOBS NOT
000029:    2044           30001                           XCH      Q                                     #  REQUIRING A VAC AREA.
000030:    2045           02056                           TC       EXECCOM                               #  COMMON FF EXECUTIVE SUBROUTINE.
000031:    2046           35500                           CAF      ZERO                                  #  ZERO PD FIELD IN PUSHLOC.
000032:    2047           50567                           TS       EXECTEM3
000033:    2050           06026                           TC       NOVAC2
000034:
000035:    2051           50566        JOBWAKE            TS       EXECTEM2                              #  ENTRY HERE TO RE-ACTIVATE A SLEEPING JOB
000036:    2052           10001                           CCS      Q                                     #  RETURN ADDRESS - 1 TO WTEXIT.
000037:    2053           50573                           TS       WTEXIT                                #  SHARES FINAL PORTION OF FINDVAC, NOVAC.
000038:    2054           02062                           TC       EXECSW                                #  COMMON EXEC BANK-SWITCH SUBROUTINE.
000039:    2055           06107                           TC       JOBWAKE2
000040:
000041:    2056           50573        EXECCOM            TS       WTEXIT                                #  EXIT ADDRESS
000042:    2057           20000                           INDEX    A                                     #  PICK UP JOB OR TASK ADDRESS.
000043:    2060           30000                           CAF      0                                     #    (USED BY FINDVAC, NOVAC, AND WAITLIST)
000044:    2061           50566                           TS       EXECTEM2
000045:
000046:    2062           32066        EXECSW             CAF      EXECBANK
000047:    2063           30015                           XCH      BANKREG                               #  CALL IN EXEC BANK, SAVING RETURN.
000048:    2064           50565                           TS       EXECTEM1
000049:    2065           00001                           TC       Q
000050:
000051:    2066           10003        EXECBANK           CADR     FINDVAC2
000052:
000053:    2067           50015        FOUNDVAC           TS       BANKREG                               #  COMES HERE TO RETURN FROM FINDVAC,
000054:    2070           20573                           INDEX    WTEXIT                                #  NOVAC, OR JOBWAKE.
000055:    2071           00001                           TC       1
000056:
000057:
000058:                                                                                                  #                CALLS TO FINDVAC BEGIN HERE, SNATCHING AN AVAILABLE VAC AREA.
000059:
000060: 04,6000                                           SETLOC   10000                                 #  EXEC/WAITLIST BANK.
000061:
000062: 04,6000           06744        SLAPB              TC       SLAP1
000063:
000064: 04,6001           07265        KEYRUPTC           TC       KEYRUPT1                              #  STANDARD LOC, DONT MOVE
000065:
000066: 04,6002           06724        MODROUTB           TC       MODROUT                               #  STANDARD LOC, DONT MOVE
000067:
000068: 04,6003           10214        FINDVAC2           CCS      VAC1USE                               #  C(VAC1USE) =  TC VAC1USE  IF VAC1 IS
000069: 04,6004           06017                           TC       FV1                                   #  AVAILABLE, OR +0 IF IT IS IN USE.
000070: 04,6005           10270                           CCS      VAC2USE
000071: 04,6006           06017                           TC       FV1                                   #  THE FIRST CCS WITH +0 JUMPS TO THE
000072: 04,6007           10344                           CCS      VAC3USE                               #    CORRESPONDING TC ORDER.
000073: 04,6010           06017                           TC       FV1
000074: 04,6011           10420                           CCS      VAC4USE
000075: 04,6012           06017                           TC       FV1
000076: 04,6013           10474                           CCS      VAC5USE
000077: 04,6014           06017                           TC       FV1
000078:
000079: 04,6015           02652                           TC       ABORT                                 #  NO VAC AREAS AVAILABLE.
000080: 04,6016           01201                           OCT      01201
000081:
000082: 04,6017           65502        FV1                AD       TWO                                   #  TO FORM ADDRESS OF ASSIGNED VAC AREA.
000083: 04,6020           50567                           TS       EXECTEM3
000084: 04,6021           60572                           AD       NEWPRIO                               #  )  STORE ADDRESS OF VAC1 IN LOW-ORDER
000085: 04,6022           50572                           TS       NEWPRIO                               #  )    9 BITS OF NEWPRIO.
000086:
000087: 04,6023           35500                           CAF      ZERO                                  #  )
000088: 04,6024           20567                           INDEX    EXECTEM3                              #  )  STORE +0 IN VAC1USE, INDICATING USE.
000089: 04,6025           47777                           TS       0          -1                         #  )
000090:
000091: 04,6026           36041        NOVAC2             CAF      LASTADR                               #  RELATIVE ADDRESS OF LAST REGISTER SET.
000092: 04,6027           50574                           TS       LOCCTR
000093: 04,6030           10000                           CCS      A
000094: 04,6031           06036                           TC       +5                                    #  PNZ AND -0 ONLY.
000095:
000096: 04,6032           40566        12BITSOK           CS       EXECTEM2                              #  COMES HERE IF JOB ADDRESS LESS THAN 6K.
000097: 04,6033           06066                           TC       LOCSET
000098:
000099: 04,6034           02652                           TC       ABORT                                 #  NO REGISTER SETS AVAILABLE.
000100: 04,6035           01202                           OCT      01202
000101:
000102: 04,6036           20574                 +5        INDEX    LOCCTR                                #  THIS LOOP FINDS THE FIRST AVAILABLE
000103: 04,6037           10123                           CCS      PRIORITY                              #    STORAGE AREA FOR CORE REGISTERS FOR
000104: 04,6040           06104                           TC       NOVAC3                                #  THE NEW JOB.
000105: 04,6041           00070        LASTADR            DEC      56         B-14                       #  EIGHT SETS OF EIGHT REGISTERS.
000106: 04,6042           06104                           TC       NOVAC3                                #  NNZ MEANS JOB ASLEEP HERE.
000107:
000108:
000109:                                                                                                  #        NOW THAT REGISTER SETS HAVE BEEN FOUND FOR THE NEW JOB, INITIALIZE THEM AND SET NEWJOB IF CALLED FOR.
000110:
000111: 04,6043           20574        CORSW              INDEX    LOCCTR                                #  (COMES HERE WITH C(A) = 0). TURN OFF OVF
000112: 04,6044           50121                           TS       OVFIND
000113:
000114: 04,6045           60572                           AD       NEWPRIO                               #  SET UP PRIORITY FOR NEW JOB.
000115: 04,6046           20574        JOBWAKE4           INDEX    LOCCTR                                #  JOB WAKING ENTERS HERE TO FINISH UP.
000116: 04,6047           50123                           TS       PRIORITY                              #  STORE NEW PRIORITY
000117: 04,6050           32206                           CAF      BANKMASK
000118: 04,6051           70566                           MASK     EXECTEM2
000119: 04,6052           60567                           AD       EXECTEM3                              #  PUSHLOC
000120: 04,6053           20574                           INDEX    LOCCTR
000121: 04,6054           50122                           TS       PUSHLOC
000122:
000123: 04,6055           36315                           CAF      EXEC70K                               #  CREATE PROPER 12 BIT ADDRESS.
000124: 04,6056           70566                           MASK     EXECTEM2                              #  SEE IF HIGH THREE BITS ZERO.
000125: 04,6057           10000                           CCS      A
000126: 04,6060           06062                           TC       +2                                    #  NEEDS SPECIAL TREATMENT IF C(A) NOT ZERO
000127: 04,6061           06032                           TC       12BITSOK
000128:
000129: 04,6062           30566                           XCH      EXECTEM2
000130: 04,6063           74605                           MASK     LOW10
000131: 04,6064           64373                           AD       6K
000132: 04,6065           40000                           COM
000133: 04,6066           20574        LOCSET             INDEX    LOCCTR
000134: 04,6067           50117                           TS       LOC
000135:
000136: 04,6070           20550                           INDEX    NEWJOB
000137: 04,6071           40123                           CS       PRIORITY                              #  TEST WHETHER NEW JOB HAS HIGHER
000138: 04,6072           60572                           AD       NEWPRIO                               #  PRIORITY THAN PREVIOUS HIGHEST
000139: 04,6073           10000                           CCS      A
000140: 04,6074           40574                           CS       LOCCTR                                #  NEW JOB HAS HIGHER PRIORITY.
000141: 04,6075           06101                           TC       NEWHIGH                               #  SET NEWJOB, LEAVING LOCCTR UNCHANGED.
000142:
000143: 04,6076           06077                           TC       +1                                    #  -0 IF PRIORITIES = AND BOTH ARE NOVACS.
000144: 04,6077           30565        NOWAKE2            XCH      EXECTEM1
000145: 04,6100           02067        ENDFIND            TC       FOUNDVAC
000146:
000147: 04,6101           40000        NEWHIGH            COM                                            #  SET NEWJOB AND RETURN TO CALLER.
000148: 04,6102           50550                           TS       NEWJOB
000149: 04,6103           06077                           TC       ENDFIND    -1
000150:
000151: 04,6104           44513        NOVAC3             CS       EIGHT                                 #  COMES HERE TO EXAMINE NEXT REGISTER SET.
000152: 04,6105           60574                           AD       LOCCTR
000153: 04,6106           06027                           TC       NOVAC2     +1
000154:
000155:
000156:                                                                                                  #        THE  JOBWAKE  ROUTINE REACTIVES A SLEEPING JOB, SETTING IT TO BEGIN AT THE GIVEN WAKE ADDRESS.
000157:
000158: 04,6107           36041        JOBWAKE2           CAF      LASTADR                               #  BEGIN SEARCH FOR REGISTER SET CONTAINING
000159: 04,6110           50574                           TS       LOCCTR                                #  SLEEPING JOB. WAKE ADDRESS IS IN  LOC IN
000160: 04,6111           10000                           CCS      A                                     #  CADR FORM, AS PLACED THERE BY  JOBSLEEP.
000161: 04,6112           20574                           INDEX    LOCCTR                                #  PNZ AND -0 ONLY. SEE IF THIS JOB ASLEEP.
000162: 04,6113           10123                           CCS      PRIORITY                              #  THIS CCS CANT GO TO  TC NOWAKE  .
000163: 04,6114           06137                           TC       JOBWAKE3                              #  PNZ - ACTIVE JOB PRESENT. +0 IMPOSSIBLE.
000164:
000165: 04,6115           06142                           TC       NOWAKE                                #  ALARM - SLEEPING JOB NOT FOUND.
000166:
000167: 04,6116           06120                           TC       +2                                    #  INACTIVE JOB FOUND.
000168: 04,6117           06137                           TC       JOBWAKE3                              #  -0 - NOT IN USE.
000169:
000170: 04,6120           40566                 +2        CS       EXECTEM2                              #  SEE IF THIS IS THE DESIRED SLEEPING JOB.
000171: 04,6121           20574                           INDEX    LOCCTR
000172: 04,6122           60117                           AD       LOC
000173: 04,6123           10000                           CCS      A
000174: 04,6124           06137                           TC       JOBWAKE3                              #  SEARCH NEXT SET IF NOT AT END.
000175: 04,6126                                           SETLOC   +1
000176: 04,6126           06137                           TC       JOBWAKE3
000177:
000178: 04,6127           34605                           CAF      LOW10                                 #  SET UP EXECTEM3 AND PRIORITY SO WE CAN
000179: 04,6130           20574                           INDEX    LOCCTR                                #  FINISH AT STANDARD  CORSW  .
000180: 04,6131           70122                           MASK     PUSHLOC                               #  PROTECT PD SETTING.
000181: 04,6132           50567                           TS       EXECTEM3
000182:
000183: 04,6133           20574                           INDEX    LOCCTR                                #  RE-COMPLEMENT PRIORITY AND FINISH UP.
000184: 04,6134           40123                           CS       PRIORITY
000185: 04,6135           50572                           TS       NEWPRIO
000186: 04,6136           06046                           TC       JOBWAKE4
000187:
000188: 04,6137           44513        JOBWAKE3           CS       EIGHT                                 #  ADVANCE TO NEXT REGISTER SET.
000189: 04,6140           60574                           AD       LOCCTR
000190: 04,6141           06110                           TC       JOBWAKE2   +1
000191:
000192: 04,6142           50574        NOWAKE             TS       LOCCTR                                #  SET LOCCTR = +0 TO SHOW NO JOB WAS
000193: 04,6143           06077                           TC       NOWAKE2                               #   AWAKENED.
000194:
000195:
000196:                                                                                                  #  A NEW JOB, OF HIGHER PRIORITY THAN THE PRESENT ONE, CAUSES THE RELA-
000197:                                                                                                  #  TIVE ADDRESS (9, 18, ..., 63) OF THE NEW JOB CORE REGISTERS TO BE
000198:                                                                                                  #  PLACED IN REGISTER  NEWJOB , WHERE IT IS TESTED BY THE INTERPRETER.
000199:                                                                                                  #  THE RESULTING BRANCH TO CHANJOB, BELOW, CAUSES A TRADE BETWEEN THE
000200:                                                                                                  #  CORE REGISTERS OF THE PRESENT AND NEW JOBS.
000201:
000202:    2072                                           SETLOC   FOUNDVAC   +3
000203:
000204:    2072           20017        CHANG1             INHINT                                         #  BASIC JOBS COME HERE WHEN C(NEWJOB)
000205:    2073           32066                           CAF      EXECBANK                              #  NON-ZERO. START BY CALLING IN EXECUTIVE
000206:    2074           30015                           XCH      BANKREG                               #  BANK AND SAVING RETURN BANK CODE.
000207:    2075           40000                           COM
000208:    2076           50060                           TS       BANKSET
000209:    2077           30122                           XCH      PUSHLOC                               #  BLANK OUT THE HIGH-ORDER 4 BITS IN
000210:    2100           74605                           MASK     LOW10                                 #  PUSHLOC SO THE BANK BITS CAN BE PACKED
000211:    2101           50122                           TS       PUSHLOC                               #  WITH IT
000212:    2102           40001                           CS       Q                                     #  FOR RETURN, SHOWING THIS WAS A BASIC JOB
000213:    2103           06144                           TC       CHANJOB                               #  OFF TO BANK 0
000214:
000215:    2104           10065        CHANG2             CCS      NEWEQIND                              #  INTERPRETIVE INTERRUPTS START HERE,
000216:    2105           00001                           TC       Q                                     #  PROVIDED THE LOAD INDICATOR ISNT ON
000217:
000218:    2106           20017                           INHINT
000219:    2107           32066                           CAF      EXECBANK                              #  CALL IN EXECUTIVE BANK.
000220:    2110           50015                           TS       BANKREG
000221:    2111           30117                           XCH      LOC
000222:    2112           06144                           TC       CHANJOB                               #  WITH C(A) PNZ, SHOWING WE WERE IN INTERP
000223:                                                                                                  #  RETER
000224: 04,6144                                           SETLOC   NOWAKE     +2
000225: 04,6144           20550        CHANJOB            INDEX    NEWJOB                                #  TO BEGIN SWAP OF CORE REGISTERS
000226: 04,6145           30117                           XCH      LOC
000227: 04,6146           50117                           TS       LOC                                   #  SAVE PROPER 12 BIT ADDRESS
000228:
000229: 04,6147           30123                           XCH      PRIORITY
000230: 04,6150           20550                           INDEX    NEWJOB
000231: 04,6151           30123                           XCH      PRIORITY
000232: 04,6152           50123                           TS       PRIORITY
000233: 04,6153           74606                           MASK     LOW9                                  #  TO GET FIXLOC
000234: 04,6154           50066                           TS       FIXLOC
000235: 04,6155           64511                           AD       BIT6                                  #  SET UP VACLOC ( = FIXLOC + 32D )
000236: 04,6156           50067                           TS       VACLOC
000237:
000238: 04,6157           40060                           CS       BANKSET                               #  SAVE BANK
000239: 04,6160           60122                           AD       PUSHLOC                               #  AND PUSHLOC IN SAME WORD
000240: 04,6161           20550                           INDEX    NEWJOB
000241: 04,6162           30122                           XCH      PUSHLOC
000242: 04,6163           50122                           TS       PUSHLOC
000243: 04,6164           74605                           MASK     LOW10
000244: 04,6165           30122                           XCH      PUSHLOC
000245: 04,6166           40000                           COM
000246: 04,6167           60122                           AD       PUSHLOC                               #  WE NOW HAVE COMPLEMNT OF BANK BITS
000247: 04,6170           50060                           TS       BANKSET
000248:
000249: 04,6171           40120                           CS       ADRLOC                                #  SAVE MODE AND COMPLEMENT OF ADRLOC IN
000250: 04,6172           60000                           DOUBLE                                         #  SAME WORD. ADRLOC MUST BE SHIFTED 2
000251: 04,6173           60000                           DOUBLE                                         #  PLACES TO MAKE ROOM FOR MODE
000252: 04,6174           60064                           AD       MODE                                  #  -0, -1, OR -2
000253: 04,6175           20550                           INDEX    NEWJOB
000254: 04,6176           30120                           XCH      ADRLOC
000255: 04,6177           50021                           TS       SR
000256: 04,6200           74473                           MASK     THREE                                 #  SAVE LOW 2 BITS
000257: 04,6201           64341                           AD       NEG3                                  #  THIS RESULTS IN EITHER -0, -1, OR -2
000258: 04,6202           50064                           TS       MODE
000259: 04,6203           40021                           CS       SR
000260: 04,6204           40021                           CS       SR
000261: 04,6205           50120                           TS       ADRLOC
000262:
000263: 04,6206           10121                           CCS      OVFIND                                #  SAVE C(ORDER) POSITIVE IF C(OVFIND) = 0
000264: 04,6207           06211                           TC       +2                                    #  AND NEGATIVE OTHERWISE
000265: 04,6210           06213                           TC       +3
000266: 04,6211           40062                           CS       ORDER
000267: 04,6212           06214                           TC       +2
000268: 04,6213           30062                           XCH      ORDER
000269: 04,6214           20550                           INDEX    NEWJOB
000270: 04,6215           30121                           XCH      OVFIND
000271: 04,6216           50062                           TS       ORDER
000272: 04,6217           10000                           CCS      A                                     #  DETERMINE NEW SETTING OF OVFIND
000273: 04,6220           35500                           CAF      ZERO                                  #  TO ZERO
000274: 04,6221           06225                           TC       OVFSET
000275: 04,6222           40062                           CS       ORDER                                 #  ORDER WAS NEGATIVE, MAKE IT POSITIVE
000276: 04,6223           50062                           TS       ORDER
000277: 04,6224           34516                           CAF      ONE                                   #  TO SET OVFIND
000278: 04,6225           50121        OVFSET             TS       OVFIND
000279:
000280: 04,6226           30114                           XCH      MPAC                                  #  TRADE C(MPAC TO MPAC+2)
000281: 04,6227           20550                           INDEX    NEWJOB
000282: 04,6230           30114                           XCH      MPAC
000283: 04,6231           50114                           TS       MPAC
000284: 04,6232           30115                           XCH      MPAC       +1
000285: 04,6233           20550                           INDEX    NEWJOB
000286: 04,6234           30115                           XCH      MPAC       +1
000287: 04,6235           50115                           TS       MPAC       +1
000288: 04,6236           30116                           XCH      MPAC       +2
000289: 04,6237           20550                           INDEX    NEWJOB
000290: 04,6240           30116                           XCH      MPAC       +2
000291: 04,6241           50116                           TS       MPAC       +2
000292:
000293: 04,6242           35500                           CAF      ZERO
000294: 04,6243           50065                           TS       NEWEQIND                              #  MAKE SURE LOAD INDICATOR OFF.
000295: 04,6244           50550        SETNJ              TS       NEWJOB
000296: 04,6245           20016                           RELINT                                         #  ENABLE INTERRUPT
000297: 04,6246           10117                           CCS      LOC                                   #  C(LOC) PNZ FOR INTERPRETIVE JOBS.
000298: 04,6247           35500                           CAF      ZERO
000299: 04,6250           04026                           TC       DANZIG     +2                         #  RETURN TO INTERPRETER
000300: 04,6251           64516                           AD       ONE                                   #  GET ABS(LOC) AND RETURN TO BASIC
000301: 04,6252           50061                           TS       ADDRWD
000302: 04,6253           40060                           CS       BANKSET                               #  GET DESIRED BANKBITS
000303: 04,6254           02113        ENDCHANG           TC       BASICALL
000304:
000305:    2113                                           SETLOC   CHANG2     +7D                        #  TAKE UP WHERE WE LEFT OFF IN FIXED-FIXED
000306:
000307:    2113           50015        BASICALL           TS       BANKREG
000308:    2114           00061                           TC       ADDRWD
000309:
000310:    2115           32066        ENDOFJOB           CAF      EXECBANK                              #  NORMAL ENDJOB ENTRY.
000311:    2116           50015                           TS       BANKREG
000312:    2117           06255                           TC       ENDJOB1
000313:
000314:    2120           50117        JOBSLEEP           TS       LOC                                   #  ENTRY HERE TO DE-ACTIVE THIS JOB.
000315:    2121           32066                           CAF      EXECBANK                              #  LOC IS SET TO THE AWAKENING ADDRESS
000316:    2122           50015                           TS       BANKREG                               #  SO THE SUBSEQUENT JOBWAKE CAN FIND
000317:    2123           06266                           TC       JOBSLP1                               #  THE PROPER REGISTER SET.
000318:
000319: 04,6255                                           SETLOC   ENDCHANG   +1
000320:
000321: 04,6255           20017        ENDJOB1            INHINT                                         #  INTERPRETIVE JOBS FINISH WITH RTB
000322: 04,6256           45500                           CS       ZERO                                  #  TO ENDJOB1
000323: 04,6257           50077                           TS       BUF        +1                         #  ENDJOB USES BUF, BUF +1, AND BUF +2.
000324: 04,6260           30123                           XCH      PRIORITY
000325: 04,6261           74606                           MASK     LOW9                                  #  RESTORE AVAILABILITY OF VAC1 BY SETTING
000326: 04,6262           10000                           CCS      A                                     #  C(VAC1USE) NON-ZERO
000327: 04,6263           20000                           INDEX    A
000328: 04,6264           50000                           TS       0
000329:
000330: 04,6265           06273                           TC       EJSCAN                                #  ENDJOB NEED NOT EXAMINE FIRST REG. SET.
000331:
000332: 04,6266           20017        JOBSLP1            INHINT                                         #  FINISH JOB SLEEP AND START ENDJOB-TYPE
000333: 04,6267           40123                           CS       PRIORITY                              #  SCAN. COMPLEMENTED PRIORITY REGISTER
000334: 04,6270           50123                           TS       PRIORITY                              #  SHOWS JOB IS ASLEEP.
000335: 04,6271           45500                           CS       ZERO                                  #  INITIALIZE SEARCH FOR HIGHEST PRIORITY.
000336: 04,6272           50077                           TS       BUF        +1
000337:
000338:
000339:                                                                                                  #        SCAN FOR THE ACTIVE JOB OF HIGHEST PRIORITY.
000340:
000341: 04,6273           10133        EJSCAN             CCS      PRIORITY   +8D                        #  EACH PRIORITY REGISTER (PRIORITY +8N)
000342: 04,6274           06335                           TC       EJ1                                   #  IS SCANNED. ITS CONTENTS ARE EITHER
000343: 04,6276                                           SETLOC   +1
000344: 04,6276           06277                           TC       +1                                    #     2. NNZ - AN INACTIVE PRIORITY NUMBER.
000345:
000346: 04,6277           10143                           CCS      PRIORITY   +16D                       #  OR 3. -0 - NOT IN USE.
000347: 04,6300           06335                           TC       EJ1                                   #  IF PNZ, CONTROL IS TRANSFERRED TO EJ1
000348: 04,6302                                           SETLOC   +1
000349: 04,6302           06303                           TC       +1                                    #  PARED WITH THE PREVIOUS HIGHEST
000350:
000351: 04,6303           10153                           CCS      PRIORITY   +24D                       #  PRIORITY FOUND. THE CONTENTS OF Q
000352: 04,6304           06335                           TC       EJ1                                   #  SERVE TO LOCATE THE CCS WHICH WAS
000353: 04,6306                                           SETLOC   +1
000354: 04,6306           06307                           TC       +1                                    #  NEWJOB IS SET TO THE RELATIVE ADDRESS
000355:
000356: 04,6307           10163                           CCS      PRIORITY   +32D                       #  OF THE REGISTER SET WITH THE HIGHTEST
000357: 04,6310           06335                           TC       EJ1                                   #  ACTIVE PRIORITY AT THE END OF THE SCAN.
000358: 04,6312                                           SETLOC   +1
000359: 04,6312           06313                           TC       +1
000360:
000361: 04,6313           10173                           CCS      PRIORITY   +40D
000362: 04,6314           06335                           TC       EJ1
000363: 04,6315           70000        EXEC70K            OCT      70000
000364: 04,6316           06317                           TC       +1
000365:
000366: 04,6317           10203                           CCS      PRIORITY   +48D
000367: 04,6320           06335                           TC       EJ1
000368: 04,6321           67654        -CCSPR            -CCS      PRIORITY
000369: 04,6322           06323                           TC       +1
000370:
000371: 04,6323           10213                           CCS      PRIORITY   +56D
000372: 04,6324           06335                           TC       EJ1
000373: 04,6326                                           SETLOC   +1
000374: 04,6326           06327                           TC       +1
000375:
000376: 04,6327           20076                           INDEX    BUF                                   #  PICK UP CCS INSTRUCTION TO GET NEWJOB
000377: 04,6330           27776                           CAF      0          -2                         #  SELECT CCS INSTRUCTION.
000378: 04,6331           66321                           AD       -CCSPR
000379: 04,6332           50550                           TS       NEWJOB                                #  RELATIVE ADDRESS ONLY.
000380: 04,6333           30117                           XCH      LOC                                   #  (NO MEANING FOR ENDOFJOB).
000381: 04,6334           06144                           TC       CHANJOB
000382:
000383:
000384:
000385: 04,6335           50100        EJ1                TS       BUF        +2                         #  STORE NEW PRIORITY
000386: 04,6336           60077                           AD       BUF        +1                         #  - OLD PRIORITY
000387: 04,6337           10000                           CCS      A
000388: 04,6340           30001                           XCH      Q                                     #  IF NEW PRIORITY IS LARGER
000389: 04,6341           06345                           TC       EJ2
000390: 04,6342           30000                           NOOP                                           #  IF OLD PRIORITY IS LARGER
000391: 04,6343           20001                           INDEX    Q                                     #    OR EQUAL
000392: 04,6344           00002                           TC       2
000393:
000394: 04,6345           50076        EJ2                TS       BUF                                   #  SAVE C(Q) TO LOCATE HIGHEST PRIORITY
000395: 04,6346           40100                           CS       BUF        +2                         #    JOB AT END OF SCAN.
000396: 04,6347           50077                           TS       BUF        +1
000397: 04,6350           20076                           INDEX    BUF
000398: 04,6351           00002                           TC       2

End of include-file EXECUTIVE.agc.  Parent file is MAIN.agc


