
Source Code


000002:                                                                                                  ## Copyright:   Public domain.
000003:                                                                                                  ## Filename:    EXTENDED_VERBS_FOR_MODING.agc
000004:                                                                                                  ## Purpose:     A section of Sunrise 45.
000005:                                                                                                  ##              It is part of the reconstructed source code for the penultimate
000006:                                                                                                  ##              release of the Block I Command Module system test software. No
000007:                                                                                                  ##              original listings of this program are available; instead, this
000008:                                                                                                  ##              file was created via disassembly of dumps of Sunrise core rope
000009:                                                                                                  ##              memory modules and comparison with the later Block I program
000010:                                                                                                  ##              Solarium 55.
000011:                                                                                                  ## Assembler:   yaYUL --block1
000012:                                                                                                  ## Contact:     Ron Burkey <info@sandroid.org>.
000013:                                                                                                  ## Website:     www.ibiblio.org/apollo/index.html
000014:                                                                                                  ## Mod history: 2022-12-09 MAS  Initial reconstructed source.
000015:
000016:
000017:                                                                                                  #  VERB PLEASE PERFORM AND VERB PLEASE MARK ----- FLASH SHOULD BE TURNED ON
000018:                                                                                                  #  (FLASHON) BY ROUTINE PASTING EITHER UP. FLASH IS TURNED OFF BY ENTER OF
000019:                                                                                                  #  PLEASE PERFORM, OR ENTER OF PLEASE MARK.
000020:
000021:                                                                                                  #  BOTH FLASHON AND FLASHOFF MUST NOT BE USED IN INTERRUPTED STATE.
000022:
000023:                                                                                                  #  PLEASE PERFORM VERB AND PLEASE MARK VERB-----
000024:                                                                                                  #  PRESSING ENTER INDICATES ACTION REQUESTED HAS
000025:                                                                                                  #  BEEN PERFORMED, AND DOES SAME RECALL AS A COMPLETED LOAD. OPERATOR
000026:                                                                                                  #  SHOULD DO VERB PROCEED WITHOUT DATA IF WISHES NOT TO PERFORM THE
000027:                                                                                                  #  REQUESTED ACTION.
000028:
000029:
000030:
000031:                                                                                                  #  FAN-OUT
000032:
000033: 05,7740                                           SETLOC   13740
000034:
000035: 05,7740           06340        LST2FAN            TC       VBZERO                                #  VB40 ZERO(USED WITH NOUN ICDU OR OCDU)
000036: 05,7741           06343                           TC       VBCOARK                               #  VB41 COARSE ALIGN(USED WITH NOUN ICDU
000037:                                                                                                  #             OR OCDU)
000038: 05,7742           06426                           TC       IMUFINEK                              #  VB42 FINE ALIGN IMU
000039: 05,7743           06457                           TC       IMULOCKK                              #  VB43 LOCK IMU
000040: 05,7744           06465                           TC       IMUATTCK                              #  VB44 SET IMU TO ATTITUDE CONTROL
000041: 05,7745           06510                           TC       IMUREENK                              #  VB45 SET IMU TO RE-ENTRY CONTROL
000042: 05,7746           06533                           TC       IMUCORK                               #  VB46  RETURN IMU TO COARSE ALIGN
000043: 05,7747           06336                           TC       ALM/END                               #  VB47 OPTICAL TRACKER ON(NOT IN USE YET)
000044: 05,7750           06606                           TC       GOLOADLV                              #  VB50 PLEASE PERFORM
000045: 05,7751           06336                           TC       ALM/END                               #  VB51 PLEASE MARK(NOT IN USE YET)
000046: 05,7752           06601                           TC       DOMKACPT                              #  VB52 MARK ACCEPT
000047: 05,7753           06612                           TC       RELO/IK                               #  VV53 FREE  (USED WITH NOUN ICDU OR OCDU)
000048: 05,7754           06622                           TC       TORQGYRS                              #  VB54 PULSE TORQUE GYROS
000049: 05,7755           30000                           NOOP                                           #  ILLEGAL VERB.
000050: 05,7756           30000                           NOOP                                           #  ILLEGAL VERB.
000051: 05,7757           30000                           NOOP                                           #  ILLEGAL VERB.
000052: 05,7760           30000                           NOOP                                           #  ILLEGAL VERB.
000053: 05,7761           30000                           NOOP                                           #  ILLEGAL VERB.
000054: 05,7762           30000                           NOOP                                           #  ILLEGAL VERB.
000055: 05,7763           30000                           NOOP                                           #  ILLEGAL VERB.
000056: 05,7764           30000                           NOOP                                           #  ILLEGAL VERB.
000057: 05,7765           30000                           NOOP                                           #  ILLEGAL VERB.
000058: 05,7766           30000                           NOOP                                           #  ILLEGAL VERB.
000059: 05,7767           06336                           TC       ALM/END                               #  ILLEGAL VERB.
000060: 05,7770           06645                           TC       DOGDRIFT                              #  VB70 PERFORM GYRO DRIFT TEST
000061: 05,7771           06654                           TC       DOPIPTST                              #  VB71 PERFORM PIPA SF TEST
000062: 05,7772           30000                           NOOP                                           #  ILLEGAL VERB.
000063: 05,7773           30000                           NOOP                                           #  ILLEGAL VERB.
000064: 05,7774           30000                           NOOP                                           #  ILLEGAL VERB.
000065: 05,7775           30000                           NOOP                                           #  ILLEGAL VERB.
000066: 05,7776           30000                           NOOP                                           #  ILLEGAL VERB.
Warning:  Next code may overflow storage.
000067: 05,7777           06336                           TC       ALM/END                               #  ILLEGAL VERB.
000068:
000069: 05,6336                                           SETLOC   ENDMARK
000070:
000071: 05,6336           03001        ALM/END            TC       FALTON
000072: 05,6337           02115                           TC       ENDOFJOB
000073:
000074:
000075: 05,6340           06346        VBZERO             TC       OP/INERT
000076: 05,6341           06367                           TC       IMUZEROK                              #  RETURN HERE IF NOUN = ICDU(20)
000077: 05,6342           06336                           TC       ALM/END                               #  RETURN HERE IF NOUN = OCDU(55)
000078:                                                                                                  #          (NOT IN USE YET)
000079:
000080: 05,6343           06346        VBCOARK            TC       OP/INERT
000081: 05,6344           06375                           TC       IMUCOARK                              #  RETURN HERE IF NOUN = ICDU(20)
000082: 05,6345           06547                           TC       OPTCOARK                              #  RETURN HERE IF NOUN = OCDU(55)
000083:
000084:
000085:                                                                                                  #        SUBROUTINE FOR CHECKING GIVEN NOUN IF APPROPRIATE.
000086:
000087: 05,6346           30001        OP/INERT           XCH      Q                                     #  RETURNS TO L+1 IF NOUN=ICDU(20)
000088: 05,6347           50105                           TS       WDRET                                 #  RETURNS TO L+2 IF NOUN = OCDU(55)
000089: 05,6350           46354                           CS       NNICDU                                #    ALARMS IF ANY OTHER NOUN
000090: 05,6351           60613                           AD       NOUNREG
000091: 05,6352           10000                           CCS      A
000092: 05,6353           06357                           TC       +4                                    #  NN G/ 20
000093: 05,6354           00020        NNICDU             OCT      20
000094: 05,6355           06336                           TC       ALM/END                               #  NN L/ 20
000095: 05,6356           00105                           TC       WDRET                                 #  NN = 20
000096: 05,6357           46363                           CS       NNOCDU
000097: 05,6360           60613                           AD       NOUNREG
000098: 05,6361           10000                           CCS      A
000099: 05,6362           06336                           TC       ALM/END                               #  NN G/ 55
000100: 05,6363           00055        NNOCDU             OCT      55
000101: 05,6364           06336                           TC       ALM/END                               #  NN L/ 55
000102: 05,6365           20105                           INDEX    WDRET                                 #  NN = 55
000103: 05,6366           00001                           TC       1
000104:
000105:
000106:                                                                                                  #  KEYBOARD REQUEST TO ZERO IMU ENCODERS
000107:
000108: 05,6367           02516        IMUZEROK           TC       BANKCALL                              #  ZERO ENCODERS.
000109: 05,6370           21060                           CADR     IMUZERO    +4
000110:
000111: 05,6371           02516                           TC       BANKCALL                              #  STALL
000112: 05,6372           21412                           CADR     IMUSTALL
000113: 05,6373           06374                           TC       +1
000114: 05,6374           07411                           TC       ENDMZERO
000115:
000116:
000117:                                                                                                  #  KEYBOARD REQUEST TO COARSE ALIGN THE IMU
000118:
000119: 05,6375           03025        IMUCOARK           TC       GRABDSP                               #  COARSE ALIGN FROM KEYBOARD.
000120: 05,6376           03033                           TC       PREGBSY
000121: 05,6377           36424                           CAF      VNLODCDU                              #  CALL FOR THETAD LOAD
000122: 05,6400           02670                           TC       NVSUB
000123: 05,6401           03040                           TC       PRENVBSY
000124: 05,6402           02722                           TC       ENDIDLE                               #  STALL WAITING FOR THE LOAD
000125: 05,6403           07641                           TC       ENDMKDSP
000126: 05,6404           07345                           TC       ICSDEL                                #  PROCEED - ASK FOR INCREMENTAL LOAD.
000127:
000128: 05,6405           36425        ICORK2             CAF      IMUCOARV                              #  RE-DISPLAY COARSE ALIGN VERB.
000129: 05,6406           02670                           TC       NVSUB
000130: 05,6407           03040                           TC       PRENVBSY
000131: 05,6410           03107                           TC       FREEDSP                               #  RELEASE THE DISPLAYS
000132:
000133: 05,6411           36423                           CAF      KGCOARSE
000134: 05,6412           50713                           TS       KG
000135: 05,6413           35500                           CAF      ZERO
000136: 05,6414           50714                           TS       KH
000137:
000138: 05,6415           02516                           TC       BANKCALL                              #  CALL MODE SWITCHING PROG
000139: 05,6416           21113                           CADR     IMUCOARS
000140:
000141: 05,6417           02516                           TC       BANKCALL                              #  STALL
000142: 05,6420           21412                           CADR     IMUSTALL
000143: 05,6421           02115                           TC       ENDOFJOB
000144: 05,6422           02115                           TC       ENDOFJOB
000145:
000146: 05,6423           05605        KGCOARSE           DEC      .18
000147: 05,6424           02522        VNLODCDU           OCT      02522
000148: 05,6425           04100        IMUCOARV           OCT      04100
000149:
000150:
000151:                                                                                                  #  KEYBOARD REQUEST TO FINE ALIGN AND GYRO TORQUE IMU
000152:
000153: 05,6426           03025        IMUFINEK           TC       GRABDSP                               #  FINE ALIGN WITH GYRO TORQUING.
000154: 05,6427           03033                           TC       PREGBSY
000155: 05,6430           36455                           CAF      VNLODGYR                              #  CALL FOR LOAD OF GYRO COMMANDS
000156: 05,6431           02670                           TC       NVSUB
000157: 05,6432           03040                           TC       PRENVBSY
000158: 05,6433           02722                           TC       ENDIDLE                               #  HOLD UP FOR THE DATA LOAD
000159: 05,6434           07641                           TC       ENDMKDSP
000160: 05,6435           06436                           TC       +1                                    #  PROCEED WITHOUT A LOAD
000161:
000162: 05,6436           36456                           CAF      IMUFINEV                              #  RE-DISPLAY OUR OWN VERB
000163: 05,6437           02670                           TC       NVSUB
000164: 05,6440           03040                           TC       PRENVBSY
000165: 05,6441           03107                           TC       FREEDSP                               #  RELEASE DISPLAYS
000166:
000167: 05,6442           02516                           TC       BANKCALL                              #  CALL MODE SWITCH PROG
000168: 05,6443           21165                           CADR     IMUFINE
000169:
000170: 05,6444           02516                           TC       BANKCALL                              #  HIBERNATION
000171: 05,6445           21412                           CADR     IMUSTALL
000172: 05,6446           02115                           TC       ENDOFJOB
000173: 05,6447           02516                           TC       BANKCALL                              #  PINBALL LEFT COMMANDS IN OGC REGIST5RS
000174: 05,6450           21440                           CADR     IMUPULSE
000175: 05,6451           02516                           TC       BANKCALL                              #  WAIT FOR PULSES TO GET OUT.
000176: 05,6452           21412                           CADR     IMUSTALL
000177: 05,6453           02115                           TC       ENDOFJOB
000178: 05,6454           02115                           TC       ENDOFJOB
000179:
000180: 05,6455           02567        VNLODGYR           OCT      02567
000181: 05,6456           04200        IMUFINEV           OCT      04200                                 #  FINE ALIGN VERB
000182:
000183:
000184:                                                                                                  #  KEYBOARD REQUEST TO LOCK THE IMU CDUS
000185:
000186: 05,6457           02516        IMULOCKK           TC       BANKCALL
000187: 05,6460           21206                           CADR     IMULOCK
000188:
000189: 05,6461           02516                           TC       BANKCALL                              #  STALL
000190: 05,6462           21412                           CADR     IMUSTALL
000191: 05,6463           02115                           TC       ENDOFJOB
000192: 05,6464           02115                           TC       ENDOFJOB
000193:
000194:
000195:                                                                                                  #  KEYBOARD REQUEST TO PUT IMU IN ATTITUDE CONTROL MODE
000196:
000197: 05,6465           03025        IMUATTCK           TC       GRABDSP                               #  ATTITUDE CONTROL.
000198: 05,6466           03033                           TC       PREGBSY
000199: 05,6467           37407                           CAF      DELLOAD                               #  ASK FOR DELTA ANGLE LOAD.
000200: 05,6470           02670                           TC       NVSUB
000201: 05,6471           03040                           TC       PRENVBSY
000202: 05,6472           02722                           TC       ENDIDLE                               #  STALL WAITING FOR LOAD
000203: 05,6473           07641                           TC       ENDMKDSP
000204: 05,6474           07375                           TC       ATTCABS                               #  PROCEED - ASK FOR ABSOLUTE ANGLES.
000205: 05,6475           07355                           TC       INCLOOP                               #  ADD INCREMENTS TO DESIRED ANGLES.
000206: 05,6476           07403                           TC       ATTCK2
000207: 05,6477           03040                           TC       PRENVBSY
000208:
000209: 05,6500           03107        ATTCK3             TC       FREEDSP                               #  LET THE DISPLAYS GO
000210:
000211: 05,6501           02516                           TC       BANKCALL                              #  CALL THE MODE SWITCH PROG
000212: 05,6502           21223                           CADR     IMUATTC
000213:
000214: 05,6503           02516                           TC       BANKCALL                              #  STALL
000215: 05,6504           21412                           CADR     IMUSTALL
000216: 05,6505           02115                           TC       ENDOFJOB
000217: 05,6506           02115                           TC       ENDOFJOB
000218:
000219: 05,6507           04400        IMUATTCV           OCT      04400
000220:
000221:
000222:                                                                                                  #  KEYBOARD REQUEST TO PUT THE IMU IN RE-ENTRY CONTROL MODE
000223:
000224: 05,6510           03025        IMUREENK           TC       GRABDSP                               #  RE-ENTRY.
000225: 05,6511           03033                           TC       PREGBSY
000226: 05,6512           36424                           CAF      VNLODCDU
000227: 05,6513           02670                           TC       NVSUB
000228: 05,6514           03040                           TC       PRENVBSY
000229: 05,6515           02722                           TC       ENDIDLE                               #  STALL FOR THE LOAD
000230: 05,6516           07641                           TC       ENDMKDSP
000231: 05,6517           06520                           TC       +1                                    #  PROCEED
000232:
000233: 05,6520           36532                           CAF      IMUREENV                              #  RE-DISPLAY VERB.
000234: 05,6521           02670                           TC       NVSUB
000235: 05,6522           03040                           TC       PRENVBSY
000236: 05,6523           03107                           TC       FREEDSP                               #  LET THE DISPLAYS GO
000237:
000238: 05,6524           02516                           TC       BANKCALL                              #  CALL MODE SWITCH PROG
000239: 05,6525           21217                           CADR     IMUREENT
000240:
000241: 05,6526           02516                           TC       BANKCALL                              #  STALL
000242: 05,6527           21412                           CADR     IMUSTALL
000243: 05,6530           02115                           TC       ENDOFJOB
000244: 05,6531           02115                           TC       ENDOFJOB
000245:
000246: 05,6532           04500        IMUREENV           OCT      04500
000247:
000248:
000249:                                                                                                  #  KEYBOARD REQUEST TO RETURN THE IMU TO COARSE ALIGN
000250:
000251: 05,6533           02516        IMUCORK            TC       BANKCALL                              #  BACK TO COARSE ALIGN (FROM FINE).
000252: 05,6534           21156                           CADR     IMURECOR
000253:
000254: 05,6535           02516                           TC       BANKCALL
000255: 05,6536           21412                           CADR     IMUSTALL
000256: 05,6537           02115                           TC       ENDOFJOB
000257: 05,6540           02115                           TC       ENDOFJOB
000258:
000259:
000260:                                                                                                  #  KEYBOARD REQUEST TO ZERO OPTICS CDUS
000261:
000262: 05,6541           02516        OPTZEROK           TC       BANKCALL                              #  CALL MODE PROG
000263: 05,6542           12547                           CADR     OPTZERO
000264:
000265: 05,6543           02516                           TC       BANKCALL                              #  STALL
000266: 05,6544           21410                           CADR     OPTSTALL
000267: 05,6545           02115                           TC       ENDOFJOB
000268: 05,6546           02115                           TC       ENDOFJOB
000269:
000270: 05,6547                        OPTZERO            =                                              #  INTERFACES NOT CURRENTLY WIRED *********
000271:
000272:
000273:                                                                                                  #  TEMPORARY ROUTINE TO RUN THE OPTICS CDUS FROM THE KEYBOARD
000274:
000275: 05,6547           03025        OPTCOARK           TC       GRABDSP                               #  SNATCH THEM DISPLAYS
000276: 05,6550           03033                           TC       PREGBSY
000277: 05,6551           36571                           CAF      VNLDOCDU                              #  VERB-NOUN TO LOAD OPTICS CDUS
000278: 05,6552           02670                           TC       NVSUB
000279: 05,6553           03040                           TC       PRENVBSY
000280: 05,6554           02722                           TC       ENDIDLE                               #  WAIT FOR THE LOAD
000281: 05,6555           07641                           TC       ENDMKDSP
000282: 05,6556           06557                           TC       +1                                    #  PROCEED
000283:
000284: 05,6557           36572                           CAF      OPTCOARV                              #  RE-DISPLAY OUR OWN VERB
000285: 05,6560           02670                           TC       NVSUB
000286: 05,6561           03040                           TC       PRENVBSY
000287: 05,6562           03107                           TC       FREEDSP                               #  LET IT GO
000288:
000289: 05,6563           10723                           CCS      OPTIND
000290: 05,6564           02115                           TC       ENDOFJOB
000291: 05,6565           02115                           TC       ENDOFJOB
000292: 05,6566           02115                           TC       ENDOFJOB
000293:
000294: 05,6567           50723                           TS       OPTIND                                #  SNATCH OPTICS
000295:
000296: 05,6570           02115                           TC       ENDOFJOB
000297:
000298: 05,6571           02457        VNLDOCDU           OCT      02457
000299: 05,6572           04100        OPTCOARV           OCT      04100
000300:
000301:
000302:                                                                                                  #  KEYBOARD REQUEST TO ACTIVATE THE OPTICAL STAR TRACKER
000303:
000304: 05,6573           02516        OPTTRONK           TC       BANKCALL
000305: 05,6574           12601                           CADR     OPTTRKON                              #  CALL MODE SWITCHER
000306:
000307: 05,6575           02516                           TC       BANKCALL                              #  STALL
000308: 05,6576           21410                           CADR     OPTSTALL
000309: 05,6577           02115                           TC       ENDOFJOB
000310: 05,6600           02115                           TC       ENDOFJOB
000311:
000312: 05,6601                        OPTTRKON           =                                              #  NOT AVAILABLE JUST NOW
000313:
000314: 05,6601           20017        DOMKACPT           INHINT
000315: 05,6602           34516                           CAF      ONE
000316: 05,6603           02124                           TC       WAITLIST
000317: 05,6604           12240                           CADR     MKACCEPT                              #  (CALLED IN KEYRUPT WHEN BUTTON AVAIL.)
000318: 05,6605           02115                           TC       ENDOFJOB
000319:
000320:                                                                                                  #  PLEASE PERFORM VERB AND PLEASE MARK VERB ----- PRESSING ENTER INDICATES
000321:                                                                                                  #  ACTION REQUESTED HAS BEEN PERFORMED, AND DOES SAME RECALL AS A COMPLETED
000322:                                                                                                  #  LOAD.  OPERATOR SHOULD DO VB PROCEED WITHOUT DATA IF HE WISHES NOT TO
000323:                                                                                                  #  PERFORM THE REQUESTED ACTION.
000324:
000325: 05,6606           02516        GOLOADLV           TC       BANKCALL
000326: 05,6607           50005                           CADR     FLASHOFF
000327: 05,6610           02563                           TC       POSTJUMP
000328: 05,6611           42637                           CADR     LOADLV
000329:
000330:
000331:                                                                                                  #  KEYBOARD REQUEST TO RELEASE IMU OR OPTICS
000332:
000333: 05,6612           06346        RELO/IK            TC       OP/INERT
000334: 05,6613           06617                           TC       IMURELK                               #  RETURN HERE IF IMU
000335: 05,6614           45500                           CS       ZERO                                  #  RETURN HERE IF OPTICS
000336: 05,6615           50723                           TS       OPTIND
000337: 05,6616           02115                           TC       ENDOFJOB
000338:
000339: 05,6617           45500        IMURELK            CS       ZERO
000340: 05,6620           50704                           TS       CDUIND
000341: 05,6621           02115                           TC       ENDOFJOB
000342:
000343:
000344:                                                                                                  #  KEYBOARD REQUEST TO PULSE TORQUE IRIGA
000345:
000346:
000347:
000348: 05,6622           03025        TORQGYRS           TC       GRABDSP                               #  GYRO TORQUING WITH NO MODE-SWITCH.
000349: 05,6623           03033                           TC       PREGBSY
000350: 05,6624           36455                           CAF      VNLODGYR
000351: 05,6625           02670                           TC       NVSUB
000352: 05,6626           03040                           TC       PRENVBSY
000353: 05,6627           02722                           TC       ENDIDLE
000354: 05,6630           07641                           TC       ENDMKDSP
000355: 05,6631           06632                           TC       +1
000356: 05,6632           36644                           CAF      TORQGYRV                              #  RE-DISPLAY OUR OWN VERB
000357: 05,6633           02670                           TC       NVSUB
000358: 05,6634           03040                           TC       PRENVBSY
000359: 05,6635           03107                           TC       FREEDSP
000360: 05,6636           02516                           TC       BANKCALL
000361: 05,6637           21440                           CADR     IMUPULSE
000362: 05,6640           02516                           TC       BANKCALL                              #  WAIT FOR PULSES TO GET OUT.
000363: 05,6641           21412                           CADR     IMUSTALL
000364: 05,6642           02115                           TC       ENDOFJOB
000365: 05,6643           02115                           TC       ENDOFJOB
000366:
000367: 05,6644           05400        TORQGYRV           OCT      05400
000368:
000369: 05,6645           06662        DOGDRIFT           TC       TESTMODE
000370: 05,6646           20017                           INHINT
000371: 05,6647           36653                           CAF      TESTPRIO
000372: 05,6650           02037                           TC       FINDVAC
000373: 05,6651           60000                           CADR     LGNTEST1
000374: 05,6652           02115                           TC       ENDOFJOB
000375:
000376: 05,6653           23000        TESTPRIO           OCT      23000
000377:
000378: 05,6654           06662        DOPIPTST           TC       TESTMODE
000379: 05,6655           20017                           INHINT
000380: 05,6656           36653                           CAF      TESTPRIO
000381: 05,6657           02037                           TC       FINDVAC
000382: 05,6660           60155                           CADR     PIPTEST1
000383: 05,6661           02115                           TC       ENDOFJOB
000384:
000385: 05,6662           34477        TESTMODE           CAF      FIVE
000386: 05,6663           70622                           MASK     MODREG
000387: 05,6664           10000                           CCS      A
000388: 05,6665           06336                           TC       ALM/END
000389:
000390: 05,6666           30001                           XCH      Q
000391: 05,6667           51207                           TS       QPLACE
000392:
000393: 05,6670           35501                           CAF      FOUR
000394: 05,6671           60622                           AD       MODREG
000395: 05,6672           50622                           TS       MODREG
000396: 05,6673           02516                           TC       BANKCALL
000397: 05,6674           42001                           CADR     DSPMM
000398:
000399: 05,6675           01207                           TC       QPLACE
000400:
000401: 05,6676                        ENDEXTVS           =
000402:
000403:                                                                                                  #        PROVISION FOR COARSE ALIGN TO INCREMENTAL ANGLES.
000404: 05,7345                                           SETLOC   ENDSELFC
000405:
000406: 05,7345           37407        ICSDEL             CAF      DELLOAD
000407: 05,7346           02670                           TC       NVSUB                                 #  REQUEST LOAD OF DELTA ICDU ANGLES.
000408: 05,7347           03040                           TC       PRENVBSY
000409: 05,7350           02722                           TC       ENDIDLE
000410: 05,7351           07641                           TC       ENDMKDSP
000411: 05,7352           06405                           TC       ICORK2                                #  PROCEED WITHOUT DATA HERE TOO.
000412: 05,7353           07355                           TC       INCLOOP                               #  LOOP TO INCREMENT THETAD FROM DSPTEM2.
000413: 05,7354           06405                           TC       ICORK2                                #  RE-DISPLAY COARSE ALIGN VERB.
000414:
000415: 05,7355           30001        INCLOOP            XCH      Q                                     #  INCREMENTS THETADS IN 2S COMPLEMENT FROM
000416: 05,7356           50114                           TS       MPAC                                  #   THREE ANGLE INCREMENTS IN DSPTEM2S.
000417: 05,7357           37410                           CAF      LTHD+2
000418: 05,7360           50076                           TS       BUF                                   #  SET UP FOR CDUINC.
000419: 05,7361           35502                           CAF      TWO                                   #  THREE TIMES THROUGH.
000420:
000421: 05,7362           50115        INCLOOP2           TS       MPAC       +1
000422: 05,7363           20000                           INDEX    A
000423: 05,7364           30632                           XCH      DSPTEM2                               #  INCREMENT TO TEM2 FOR CDUINC.
000424: 05,7365           50101                           TS       TEM2
000425: 05,7366           02516                           TC       BANKCALL
000426: 05,7367           21361                           CADR     CDUINC
000427: 05,7370           10076                           CCS      BUF
000428: 05,7371           50076                           TS       BUF
000429: 05,7372           10115                           CCS      MPAC       +1
000430: 05,7373           07362                           TC       INCLOOP2
000431:
000432: 05,7374           00114                           TC       MPAC                                  #  RETURN WHEN FINISHED.
000433:
000434:                                                                                                  #  PROVISIONS FOR ABSOLUTE LOAD FOR IMU CDUS IN ATTITUDE CONTROL.
000435:
000436: 05,7375           36424        ATTCABS            CAF      VNLODCDU                              #  ASK FOR ABSOLUTE CDU ANGLES.
000437: 05,7376           02670                           TC       NVSUB
000438: 05,7377           03040                           TC       PRENVBSY
000439: 05,7400           02722                           TC       ENDIDLE
000440: 05,7401           07641                           TC       ENDMKDSP
000441: 05,7402           07403                           TC       ATTCK2
000442:
000443: 05,7403           36507        ATTCK2             CAF      IMUATTCV
000444: 05,7404           02670                           TC       NVSUB
000445: 05,7405           03040                           TC       PRENVBSY
000446: 05,7406           06500                           TC       ATTCK3
000447:
000448: 05,7407           02523        DELLOAD            OCT      02523
000449: 05,7410           00707        LTHD+2             ADRES    THETAD     +2
000450:
000451: 05,7411           20017        ENDMZERO           INHINT
000452: 05,7412           45067                           CS       ZLITBITS                              #  TURN OFF ZEROING LIGHT TO SHOW COMPLETE.
000453: 05,7413           70743                           MASK     DSPTAB     +11D
000454: 05,7414           64500                           AD       BIT15
000455: 05,7415           50743                           TS       DSPTAB     +11D
000456: 05,7416           02115                           TC       ENDOFJOB

End of include-file EXTENDED_VERBS_FOR_MODING.agc.  Parent file is MAIN.agc


