
Source Code


000002:                                                                                                  ## Copyright:   Public domain.
000003:                                                                                                  ## Filename:    FIXED-FIXED_INTERPRETER_SECTION.agc
000004:                                                                                                  ## Purpose:     A section of Sunrise 45.
000005:                                                                                                  ##              It is part of the reconstructed source code for the penultimate
000006:                                                                                                  ##              release of the Block I Command Module system test software. No
000007:                                                                                                  ##              original listings of this program are available; instead, this
000008:                                                                                                  ##              file was created via disassembly of dumps of Sunrise core rope
000009:                                                                                                  ##              memory modules and comparison with the later Block I program
000010:                                                                                                  ##              Solarium 55.
000011:                                                                                                  ## Assembler:   yaYUL --block1
000012:                                                                                                  ## Contact:     Ron Burkey <info@sandroid.org>.
000013:                                                                                                  ## Website:     www.ibiblio.org/apollo/index.html
000014:                                                                                                  ## Mod history: 2022-12-09 MAS  Initial reconstructed source.
000015:
000016:
000017:    4000                                           SETLOC   4000                                  #  SECOND HALF OF FIXED-FIXED.
000018:
000019:    4000           10001        INTPRET            CCS      Q                                     #  ENTRY TO INTERPRETER
000020:    4001           50120                           TS       ADRLOC
000021:
000022:    4002           40015                           CS       BANKREG                               #  GET BANKBITS
000023:    4003           50060                           TS       BANKSET
000024:    4004           04007                           TC       +3
000025:
000026:    4005           40060        NEWEQUN            CS       BANKSET                               #  HERE FOR NEW EQUATIONS
000027:    4006           50015                           TS       BANKREG
000028:    4007           34516                           CAF      ONE                                   #  SET NEWEQIND TO CALL LOAD
000029:    4010           50065                           TS       NEWEQIND
000030:    4011           60120                           AD       ADRLOC                                #  C(ADRLOC) = LOCATION LAST ADDRESS USED
000031:    4012           50117                           TS       LOC                                   #  FOR OPERATORS
000032:    4013           20000                           INDEX    A                                     #  GET FIRST OP  AND NO. OF OPERATOR WORDS
000033:    4014           40000                           CS       0
000034:    4015           64335                           AD       MINUS1
000035:    4016           50062                           TS       ORDER
000036:    4017           74717                           MASK     LOW7                                  #  NUMBER OF ADDITIONAL OPERATOR WORDS
000037:    4020           60117                           AD       LOC
000038:    4021           50120                           TS       ADRLOC                                #  AND SET ADRLOC
000039:    4022           35500                           CAF      ZERO                                  #  TO SET ORDER TO ZERO
000040:    4023           04072                           TC       IPROC2
000041:
000042:
000043:    4024           10550        DANZIG             CCS      NEWJOB                                #  INTERPRETIVE INTERRUPT
000044:    4025           02104                           TC       CHANG2                                #  CALL IN BANK0 AND SWITCH JOBS
000045:
000046:    4026           40060                           CS       BANKSET                               #  RESET BANK BITS OF OBJECT PROGRAM
000047:    4027           50015                           TS       BANKREG
000048:
000049:    4030           10062                           CCS      ORDER                                 #  HAS NEXT OP CODE BEEN PROCESSED
000050:    4031           04200                           TC       LOWWD                                 #  NEXT INSTRUCTION WAS RIGHT-HAND
000051:
000052:    4032           20117                           INDEX    LOC                                   #  PICK UP POSSIBLE NEXT INSTRUCTION
000053:    4033           40001                           CS       1
000054:    4034           10000                           CCS      A
000055:    4035           04065                           TC       IPROC                                 #  IT IS - GO PROCESS IT
000056:    4036           04037                           TC       +1                                    #  IN CASE THE FIRST ADDRESS WAS INACTIVE
000057:
000058:    4037           20120                           INDEX    ADRLOC                                #  END OF EQUATION
000059:    4040           40001                           CS       1
000060:    4041           10000                           CCS      A                                     #  IS THERE ANOTHER ADDRESS
000061:    4042           04317                           TC       PUSHDOWN                              #  NO - INSERT IN PUSH-DOWN LIST
000062:    4043           00042        D34                DEC      34         B-14                       #  USED TO DISPATCH STORE OPERATIONS
000063:
000064:    4044           50075        STORADR            TS       POLISH                                #  PROCESS STORE ADDRESSES
000065:    4045           04364                           TC       INCADR                                #  TO SHOW WE PICKED UP ANOTHER ADDRESS
000066:    4046           34043                           CAF      D34                                   #  FORM CODES 32 - 34
000067:    4047           60064                           AD       MODE
000068:    4050           60000                           DOUBLE                                         #  BECAUSE WE HAVE TO PUT IT INTO CYR
000069:    4051           50020                           TS       CYR
000070:    4052           34302                           CAF      LOW11
000071:    4053           70075                           MASK     POLISH                                #  SAVE ERASABLE PART PLUS POSSIBLE TAG
000072:    4054           30075                           XCH      POLISH
000073:    4055           64060                           AD       NEGIDEX                               #  DIRECT OR INDEXED
000074:    4056           10000                           CCS      A
000075:    4057           04233                           TC       INDEX                                 #  IT IS INDEXED - PRESENT POLISH  OK
000076:    4060           44000        NEGIDEX            OCT      -33777                                #  NEGATIVE OF STORE ADDRESS PREFIX +1
000077:    4061           44504                           CS       BIT11
000078:    4062           60075                           AD       POLISH
000079:    4063           50075                           TS       POLISH
000080:    4064           04257                           TC       NONINDEX
000081:
000082:
000083:    4065           50062        IPROC              TS       ORDER                                 #  OP CODE WORD WAS PICKED UP BY CCS
000084:    4066           30117                           XCH      LOC
000085:    4067           64516                           AD       ONE
000086:    4070           30117                           XCH      LOC
000087:    4071           74717                           MASK     LOW7                                  #  SAVE LOW ORDER CODE
000088:    4072           30062        IPROC2             XCH      ORDER                                 #  ENTRY FROM NEWEQUN
000089:    4073           25777                           INDEX    OPOVF
000090:    4074           44507                           MP       BIT8                                  #  SHIFT IT RIGHT SEVEN PLACES
000091:    4075           50020                           TS       CYR                                   #  GETTING RID OF THE RIGHT-HAND OP
000092:
000093:    4076           10020        JUMPIT             CCS      CYR                                   #  LOOK AT LOW-ORDER PREFIX BIT
000094:    4077           04215                           TC       ADDRESS                               #  INDEXABLE - DECODE ADDRESS IMMEDIATELY
000095:    4100           00043        LOADOP             OCT      43                                    #  USED BY UNARY LOAD
000096:
000097:    4101           10020                           CCS      CYR                                   #  LOOK AT SECOND ONE HERE
000098:    4102           04364                           TC       INCADR                                #  PROCESS MISCELLANEOUS
000099:    4103           04113                           TC       MISCPROC
000100:
000101:    4104           10065        UNAPROC            CCS      NEWEQIND                              #  PROCESS UNARY REQUESTS
000102:    4105           04152                           TC       UNALOAD                               #  LOAD AN ACCUMULATOR AND RETURN
000103:
000104:    4106           34717                           CAF      LOW7
000105:    4107           50015                           TS       BANKREG                               #  CALL IN BANK 0 WHERE UNARIES ARE
000106:    4110           70020                           MASK     CYR                                   #  WITHOUT CLOBBERING
000107:    4111           20000                           INDEX    A
000108:    4112           04453                           TC       UNAJUMP
000109:
000110:
000111:                                                                                                  #        PROCESS MISCELLANEOUS OP CODES.
000112:
000113:    4113           20000        MISCPROC           INDEX    A
000114:    4114           40000                           CS       0                                     #  WE KNOW ITS AN ADDRESS
000115:    4115           64516                           AD       ONE                                   #  TO FIT IN WITH THE POLISH ADDRESS SCHEME
000116:    4116           50075                           TS       POLISH                                #  SAVE ENTIRE ADDRESS
000117:
000118:    4117           10000                           CCS      A
000119:    4120           04145                           TC       ENDMISC
000120:    4121           42000        42K                OCT      42000
000121:    4122           04124                           TC       +2
000122:    4123           04143                           TC       MISCREL
000123:    4124           62206                           AD       BANKMASK
000124:    4125           10000                           CCS      A
000125:    4126           64516                           AD       ONE
000126:    4127           04131                           TC       +2
000127:    4130           04135                           TC       MISC2
000128:
000129:    4131           64121                           AD       42K
000130:    4132           40000                           COM
000131:    4133           50075                           TS       POLISH
000132:    4134           04145                           TC       ENDMISC
000133:
000134:    4135           64267        MISC2              AD       RELTEST
000135:    4136           10000                           CCS      A
000136:    4137           40075                           CS       POLISH
000137:    4140           04143                           TC       +3
000138:    4141           40075                           CS       POLISH
000139:    4142           04144                           TC       +2
000140:    4143           60066        MISCREL            AD       FIXLOC
000141:    4144           50061                           TS       ADDRWD
000142:
000143:    4145           34717        ENDMISC            CAF      LOW7
000144:    4146           50015                           TS       BANKREG                               #  CALL IN BANK 0
000145:    4147           70020                           MASK     CYR
000146:    4150           20000                           INDEX    A
000147:    4151           04433                           TC       NONJUMP
000148:
000149:
000150:    4152           34717        UNALOAD            CAF      LOW7                                  #  PROCESS LOADING REQUESTS FOR UNARY
000151:    4153           70020                           MASK     CYR                                   #  OPERATIONS. START BY FINDING APPROPRIATE
000152:    4154           10000                           CCS      A                                     #  MODE
000153:    4155           04160                           TC       +3                                    #  TMOVE HAS CODE 0
000154:    4156           45502                           CS       TWO
000155:    4157           04164                           TC       MODESET
000156:    4160           40000                           CS       A
000157:    4161           64647                           AD       OCT40003
000158:    4162           50064                           TS       MODE                                  #  SKIP IF SO AND SET A TO -1
000159:    4163           45500                           CS       ZERO                                  #  IF WE DIDNT SKIP
000160:    4164           50064        MODESET            TS       MODE
000161:
000162:    4165           34500                           CAF      NEGSIGN                               #  GET INDEXING BIT FROM UNARY OP CODE IN
000163:    4166           70020                           MASK     CYR                                   #  CYR
000164:    4167           64100                           AD       LOADOP                                #  AD LOAD OPCODE = OCT 43
000165:    4170           60000        60K                DOUBLE                                         #  DOUBLE OP CODE AND DUPLICATE SIGN IN
000166:    4171           30020                           XCH      CYR                                   #  BIT 1 WHERE IT GOES INTO SIGN OF CYR
000167:    4172           50023                           TS       SL                                    #  RE-EDIT, NOT BOTHERING ABOUT BITS 8-14
000168:    4173           04215                           TC       ADDRESS                               #  STANDARD ADDRESS ROUTINE
000169:
000170:    4174           50065        ULRET              TS       NEWEQIND                              #  RETURN HERE AFTER LOADING
000171:    4175           30023                           XCH      SL
000172:    4176           50020                           TS       CYR                                   #  RESTORE ORIGINAL OP CODE
000173:    4177           04106                           TC       UNAPROC    +2                         #  AND DISPATCH AS USUAL
000174:
000175:    4200           35500        LOWWD              CAF      ZERO                                  #  RIGHT HAND OP CODE HAS ALREADY BEEN SET
000176:    4201           30062                           XCH      ORDER
000177:    4202           04075                           TC       JUMPIT     -1
000178:
000179:
000180:    4203           50065        LOAD               TS       NEWEQIND                              #  LOADS FIRST ADDRESS OF NEW EQUATIONS
000181:    4204           20064                           INDEX    MODE                                  #  TRIGGERS TYPE OF CLEAR-AND-ADD
000182:    4205           04210                           TC       +3
000183:    4206           04532                           TC       TCA1
000184:    4207           04536                           TC       DCA1
000185:    4210           04610                           TC       VCA1
000186:
000187:    4211           10065        LOADRET            CCS      NEWEQIND                              #  IF A UNARY LOAD, THIS IS STILL ONE
000188:    4212           04174                           TC       ULRET                                 #  NO SECOND ADDRESS FOR UNARY LOADS
000189:
000190:    4213           40060                           CS       BANKSET
000191:    4214           50015                           TS       BANKREG
000192:
000193:    4215           20120        ADDRESS            INDEX    ADRLOC                                #  INDEXABLE ADDRESS ROUTINE
000194:    4216           40001                           CS       1                                     #  PICK UP WHAT SHOULD BE THE NEXT ADDRESS
000195:    4217           10000                           CCS      A
000196:    4220           04354                           TC       PUSHUP                                #  NO ADDRESS MEANS TAKE OFF TOP OF STACK
000197:    4221           04353                           TC       PUSHUP2                               #  INACTIVE ADDRESS MEANS JUST PUSHUP
000198:    4222           30120                           XCH      ADRLOC                                #  SAVE ADDRESS WHILE WE INCREMENT ADRLOC
000199:    4223           64516                           AD       ONE
000200:    4224           30120                           XCH      ADRLOC                                #  NOW BRING IT BACK
000201:    4225           50075                           TS       POLISH
000202:    4226           34500                           CAF      NEGSIGN
000203:    4227           70020                           MASK     CYR
000204:    4230           10000                           CCS      A                                     #  INDEXED OR NOT
000205:    4231           50113        BUGMPAC            XCADR    MPAC
000206:    4232           04257                           TC       NONINDEX
000207:
000208:
000209:                                                                                                  #        PROCEDURE FOR INDEXED ADDRESSES.
000210:
000211:    4233           30075        INDEX              XCH      POLISH
000212:    4234           50021                           TS       SR                                    #  SR NOW CONTAINS SUB-ADDRESS
000213:    4235           30020                           XCH      CYR                                   #  SAVE ORDER CODE
000214:    4236           50022                           TS       CYL                                   #  TO PREPARE FOR RESTORING
000215:    4237           04721                           TC       TAG
000216:    4240           20074                           INDEX    TAG1
000217:    4241           40046                           CS       X1                                    #  INDEX REGISTERS ARE SUBTRACTIVE, ALA 70X
000218:    4242           60021                           AD       SR
000219:    4243           30075                           XCH      POLISH                                #  TS WOULD SKIP ON OVERFLOW
000220:
000221:    4244           30022                           XCH      CYL                                   #  RESTORE OP CODE BITS IN CYR
000222:    4245           50020                           TS       CYR
000223:
000224:    4246           10075                           CCS      POLISH                                #  SEE IF BIT 15 SHOULD BE ZERO.  IT SHOULD
000225:    4247           04257                           TC       NONINDEX                              #  IF THE ADDRESS IS LESS THAN ROUGHLY
000226:    4250           04362                           TC       RELTOVAC   +1                         #  -1000D.
000227:    4251           04253                           TC       +2
000228:    4252           04362                           TC       RELTOVAC   +1                         #  QUICK ACTION ON THESE ZERO CASES.
000229:
000230:    4253           64267                           AD       RELTEST                               #  (-976D).
000231:    4254           10000                           CCS      A
000232:    4255           30075                           XCH      POLISH                                #  LESS THAN -1000. GO DIRECTLY TO
000233:    4256           04272                           TC       SWADDR                                #  SWITCHED-BANK ADDRESS ROUTINE.
000234:
000235:
000236:    4257           40075        NONINDEX           CS       POLISH                                #  GET 14 BIT ADDRESS
000237:    4260           64504                           AD       ERASTEST                              #  SEE IF ERASABLE OR NOT
000238:    4261           10000                           CCS      A
000239:    4262           64267                           AD       RELTEST                               #  YES - SEE IF IN TEMPORARY BLOCK
000240:    4263           04300                           TC       TEST2
000241:    4264           65472                           AD       STORTEST                              #  NO - SEE IF STORE ADDRESS
000242:    4265           10000                           CCS      A
000243:    4266           04356                           TC       PUSHUP3                               #  YES - PUSHUP
000244:    4267           76057        RELTEST            DEC      -976       B-14
000245:    4270           34500                           CAF      BIT15
000246:    4271           60075                           AD       POLISH
000247:    4272           50015        SWADDR             TS       BANKREG
000248:    4273           50075                           TS       POLISH
000249:    4274           74605                           MASK     LOW10
000250:    4275           64373                           AD       6K
000251:    4276           50061                           TS       ADDRWD
000252:    4277           04305                           TC       JUMP
000253:
000254:    4300           10000        TEST2              CCS      A                                     #  DOES THIS REFER TO THE TEMPORARY BLOCK
000255:    4301           04361                           TC       RELTOVAC                              #  ADDRESS IS RELATIVE TO VAC AREA.
000256:    4302           03777        LOW11              OCT      3777
000257:    4303           30075                           XCH      POLISH                                #  YES - FORM ADDRESS
000258:    4304           50061                           TS       ADDRWD
000259:
000260:    4305           34473        JUMP               CAF      THREE                                 #  LOOK AT LOW-ORDER 2 BITS IN 5 BIT CODE
000261:    4306           70020                           MASK     CYR
000262:    4307           10000                           CCS      A                                     #  IF ZERO, LOAD NOW AND CALL IN BANK 0
000263:    4310           04313                           TC       +3                                    #  NON-ZERO - GO ON.
000264:    4311           04746                           TC       DPSET                                 #  LOAD DP IF NECESSARY
000265:    4312           50015                           TS       BANKREG                               #  CALL IN BANK 0
000266:    4313           34717                           CAF      LOW7                                  #  BITS 6-13 ARE GUARANTEED TO BE ZERO
000267:    4314           70020                           MASK     CYR
000268:    4315           20000                           INDEX    A
000269:    4316           04367                           TC       INDJUMP
000270:
000271:
000272:    4317           30122        PUSHDOWN           XCH      PUSHLOC                               #  NO STORE ADDRESS GIVEN - PUSH DOWN
000273:    4320           50061                           TS       ADDRWD                                #  STORED IN THE NEXT ENTRY
000274:    4321           20064                           INDEX    MODE
000275:    4322           64475                           AD       NO.WDS                                #  2 FOR DP, 6 FOR VECTORS, 3 FOR TP
000276:    4323           50122                           TS       PUSHLOC
000277:    4324           20064                           INDEX    MODE
000278:    4325           04431                           TC       INDJUMP    +34D                       #  DISPATCH TO CORRECT STORE INSTRUCTION
000279:
000280:    4326           30001        PUSHUP1            XCH      Q                                     #  THE PUSH-UP ROUTINE IS CALLED UNDER THE
000281:    4327           50111                           TS       COMPON                                #  FOLLOWING CIRCUMSTANCES:
000282:    4330           34717                           CAF      LOW7                                  #     1. NO ADDRESS WORD IS FOUND.
000283:    4331           70020                           MASK     CYR                                   #     2. A STORE ADDRESS IS FOUND.
000284:    4332           64340                           AD       -VXSC                                 #  OR 3. AN INACTIVE ADDRESS IS FOUND.
000285:    4333           10000                           CCS      A                                     #  IF THE REQUESTING OPERATION CODE IS VXSC
000286:    4334           04345                           TC       PUSHUPOK                              #  THE MODE MUST BE SWITCHED BEFORE PUSHING
000287:    4335           77776        MINUS1             OCT      -1                                    #  UP, SINCE VXSC DEMANDS AN ARGUMENT OF
000288:    4336           04345                           TC       PUSHUPOK                              #  THE OPPOSITE MODE (SCALAR NEEDS VECTOR,
000289:
000290:    4337           10064                           CCS      MODE                                  #  ETC.)
000291:    4340           77775        MINUS2             OCT      -2                                    #  UNUSED CCS BRANCHES.
000292:    4341           77774        NEG3               OCT      -3
000293:    4342           45501                           CS       FOUR
000294:    4343           64340                           AD       NEG2
000295:    4344           04347                           TC       +3
000296:    4345           20064        PUSHUPOK           INDEX    MODE                                  #  DO PUSH-UP OPERATION.
000297:    4346           44475                           CS       NO.WDS                                #  2, 3, OR 6.
000298:    4347           60122                           AD       PUSHLOC
000299:    4350           50122                           TS       PUSHLOC
000300:    4351           50061                           TS       ADDRWD                                #  SET ADDRWD AND LEAVE ADDRESS IN A.
000301:    4352           00111                           TC       COMPON
000302:
000303:    4353     4340               -VXSC              EQUALS   MINUS2
000304:
000305:    4353           04364        PUSHUP2            TC       INCADR                                #  SENT HERE ON INACTIVE ADDRESS
000306:
000307:    4354           04326        PUSHUP             TC       PUSHUP1                               #  NO ADDRESS GIVEN SENDS US HERE
000308:    4355           04305                           TC       JUMP                                  #  AND JUMP
000309:
000310:    4356           10120        PUSHUP3            CCS      ADRLOC                                #  AN UNEXPECTED STORE ADDRESS SENDS US
000311:    4357           50120                           TS       ADRLOC                                #  HERE.
000312:    4360           04354                           TC       PUSHUP
000313:
000314:    4361           30075        RELTOVAC           XCH      POLISH                                #  ADDRESS WAS LESS THAN 42, SO ADD
000315:    4362           60066                           AD       FIXLOC                                #  ADDRESS OF VAC AREA.
000316:    4363           04304                           TC       JUMP       -1
000317:
000318:    4364           34516        INCADR             CAF      ONE
000319:    4365           60120                           AD       ADRLOC
000320:    4366           50120                           TS       ADRLOC
000321:    4367           00001                           TC       Q
000322:
000323:
000324:    4370           05611        IJUMP              TC       ITCF                                  #  INTERPRETIVE TRANSFER CONTROL
000325:    4371           05356                           TC       VXSC1                                 #  VECTOR TIMES SCALAR
000326:    4372           05210                           TC       VSU1                                  #  VECTOR SUBTRACT
000327:    4373           06000                           TC       BMN1                                  #  BRANCH MINUS
000328:    4374           04677                           TC       STZ1                                  #  STORE ZERO
000329:    4375           05622                           TC       BOVF                                  #  BRANCH ON OVERFLOW
000330:    4376           04765                           TC       DAD2                                  #  DOUBLE PRECISION ADD
000331:    4377           06014                           TC       BHIZ1                                 #  BRANCH IF MAJOR PART ZERO
000332:    4400           04731                           TC       DSU2                                  #  DP SUBTRACT
000333:    4401           04734                           TC       DBSU                                  #  DP BACKWARDS SUBTRACT
000334:    4402           05060                           TC       DMP2                                  #  DP MULTIPLY
000335:    4403           06402                           TC       SHIFTL                                #  TP LEFT SHIFT
000336:    4404           05143                           TC       DDV                                   #  DP DIVIDE
000337:    4405           05140                           TC       BDDV                                  #  DP BACKWARDS DIVIDE
000338:    4406           04775                           TC       TRAD                                  #  TRIPLE PRECISION ADD
000339:    4407           06411                           TC       TSLC                                  #  TP SHIFT LEFT AND COUNT
000340:    4410           05074                           TC       SHIFTR1                               #  TP SHIFT RIGHT
000341:    4411           05060                           TC       DMP2                                  #  DP MULTIPLY AND THEN ROUND
000342:    4412           04772                           TC       TSU1                                  #  TP SUBTRACT
000343:    4413           06213                           TC       SIGN                                  #  AFFIX SIGN OF X TO MPAC
000344:    4414           05315                           TC       MXV1                                  #  MATRIX TIMES VECTOR
000345:    4415           05305                           TC       VXM1                                  #  VECTOR TIMES MATRIX
000346:    4416           05220                           TC       VAD1                                  #  VECTOR ADD
000347:    4417           06010                           TC       BZE1                                  #  BRANCH ON ZERO
000348:    4420           05213                           TC       BVSU1                                 #  BACKWARDS VECTOR SUBTRACT
000349:    4421           05632                           TC       VSRT1                                 #  VECTOR SHIFT RIGHT
000350:    4422           05627                           TC       VSLT1                                 #  VECTOR SHIFT LEFT
000351:    4423           06004                           TC       BPL1                                  #  BRANCH POSITIVE
000352:    4424           05233                           TC       DOT1                                  #  VECTOR DOT PRODUCT
000353:    4425           05510                           TC       CROSS1                                #  VECTOR CROSS PRODUCT
000354:    4426           05504                           TC       VPROJ1                                #  VECTOR PROJECTION
000355:
000356:    4427           04551                           TC       TTS1
000357:    4430           04555                           TC       DTS1                                  #  DP TRANSFER TO STORAGE
000358:    4431           04621                           TC       VTS1                                  #  VECTOR TS
000359:    4432           04204                           TC       LOAD       +1                         #  LOADING
000360:
000361:    4433     4373               6K                 EQUALS   IJUMP      +3                         #  BMN STARTS AT LOCATION 6000
000362:
000363:    4433     4367               INDJUMP            EQUALS   IJUMP      -1
000364:
000365:
000366:    4433           06206        NONJUMP            TC       EXIT
000367:    4434           06072                           TC       AXT                                   #  ADDRESS TO INDEX TRUE
000368:    4435           06077                           TC       LXA                                   #  LOAD INDEX FROM THE ADDRESS
000369:    4436           06104                           TC       LXC                                   #  LOAD INDEX FROM ADDRESS COMPLEMENTED
000370:    4437           06110                           TC       SXA                                   #  STORE INDEX IN THE ADDRESS
000371:    4440           06141                           TC       XCHX                                  #  INDEX REGISTER EXCHANGE
000372:    4441           06134                           TC       INCR                                  #  INDEX REGISTER INCREMENT
000373:    4442           06153                           TC       XAD                                   #  INDEX REGISTER ADD FROM ERASABLE
000374:    4443           06147                           TC       XSU                                   #  INDEX REGISTER SUBTRACT FROM ERASABLE
000375:    4444           06062                           TC       AST                                   #  ADDRESS TO STEP TRUE
000376:    4445           06067                           TC       AXC                                   #  ADDRESS TO INDEX COMPLEMENTED
000377:    4446           06115                           TC       TIX                                   #  TRANSFER ON INDEX
000378:    4447           06352                           TC       NOLOAD                                #  LEAVE MPAC (OR VAC) LOADED
000379:    4450           06174                           TC       ITA1                                  #  TRANSFER ADDRESS
000380:    4451           06434                           TC       SWITCHEM                              #  SWITCH AND TEST INSTRUCTIONS
000381:    4452           06341                           TC       NEXT                                  #  LODON AND ITCQ
000382:
000383:    4453           07434        UNAJUMP            TC       TMOVE                                 #  FOR TP AS WELL
000384:    4454           04024                           TC       VMOVE
000385:    4455           07170                           TC       UNIT
000386:    4456           06261                           TC       ABVAL1                                #  ABVAL
000387:    4457           06226                           TC       VSQ                                   #  SQUARE OF VECTOR LENGTH
000388:    4460           06316                           TC       SSP                                   #  ABSOLUTE VALUE OF SCALAR
000389:    4461           06737                           TC       ARCSIN1
000390:    4462           06741                           TC       ARCCOS1
000391:    4463           06603                           TC       SIN1
000392:    4464           06605                           TC       COS1
000393:    4465           07424                           TC       SQRTS
000394:    4466           06323                           TC       SQUARE
000395:    4467           06325                           TC       COMP                                  #  COMPLEMENT
000396:    4470           04024                           TC       DMOVE
000397:    4471           06336                           TC       SMOVE
000398:    4472           06160                           TC       VDEF                                  #  VECTOR DEFINE
000399:
000400:
000401:    4473           00003        THREE              OCT      3
000402:    4474           00002                           OCT      2
000403:    4475           00006        NO.WDS             OCT      6                                     #  3, 2, 6 ORDER IMPORTANT FOR PUSH-DOWN.
000404:
000405:    4476           37777        POSMAX             OCT      37777                                 #  MUST BE 2 LOCATIONS BEFORE NEGMAX
000406:    4477           00005        FIVE               OCT      5
000407:    4500     4477               LIMITS             EQUALS   POSMAX     +1                         #  USED BY CDU COUNTER ARITHMETIC PROGRAMS.
000408:
000409:    4500           40000        BIT15              OCT      40000
000410:    4501           20000        BIT14              OCT      20000
000411:    4502           10000        BIT13              OCT      10000
000412:    4503           04000        BIT12              OCT      04000
000413:    4504           02000        BIT11              OCT      02000
000414:    4505           01000        BIT10              OCT      01000
000415:    4506           00400        BIT9               OCT      00400
000416:    4507           00200        BIT8               OCT      00200
000417:    4510           00100        BIT7               OCT      00100
000418:    4511           00040        BIT6               OCT      00040
000419:    4512           00020        BIT5               OCT      00020
000420:    4513           00010        BIT4               OCT      00010
000421:    4514           00004        BIT3               OCT      00004
000422:    4515           00002        BIT2               OCT      00002
000423:    4516           00001        BIT1               OCT      00001
000424:
000425:    4517     4502               QUARTER            EQUALS   BIT13
000426:    4517     4513               EIGHT              EQUALS   BIT4
000427:    4517     4516               ONE                EQUALS   BIT1
000428:    4517     4504               ERASTEST           EQUALS   BIT11
000429:    4517                        BUGBITS            EQUALS   5777
000430:    4517                        ATSBITS            EQUALS   5777
000431:    4517     4340               NEG2               EQUALS   MINUS2
000432:    4517     4475               SIX                EQUALS   NO.WDS
000433:    4517     4335               NEG1               EQUALS   MINUS1
000434:    4517     4500               NEGSIGN            EQUALS   BIT15
000435:
000436:    4517           57777 77777  NEG1/2             2DEC     -.5
000437:    4521           20000 00000  POS1/2             2DEC     .5
000438:    4523     4521               HALF               EQUALS   POS1/2
000439:
000440:
000441:    4523           40100        TCS1               CS       BUF        +2                         #  USED BY DMP, ETC
000442:    4524           50116                           TS       MPAC       +2
000443:    4525           40077                           CS       BUF        +1
000444:    4526           50115                           TS       MPAC       +1
000445:    4527           40076                           CS       BUF
000446:    4530           50114                           TS       MPAC
000447:    4531           00001                           TC       Q
000448:
000449:    4532           20061        TCA1               INDEX    ADDRWD                                #  TRIPLE PRECISION CLEAR AND ADD
000450:    4533           40002                           CS       2
000451:    4534           40000                           CS       A
000452:    4535           04537                           TC       +2
000453:
000454:    4536           35500        DCA1               XCH      ZERO                                  #  DOUBLE PRECISION CLEAR AND ADD
000455:    4537           50116                           TS       MPAC       +2                         #    (CLEARS MPAC +2)
000456:    4540           20061                           INDEX    ADDRWD
000457:    4541           40001                           CS       1
000458:    4542           40000                           CS       A
000459:    4543           50115                           TS       MPAC       +1
000460:    4544           20061                           INDEX    ADDRWD
000461:    4545           40000                           CS       0
000462:    4546           40000                           CS       A
000463:    4547           50114                           TS       MPAC
000464:    4550           04211                           TC       LOADRET                               #  PREPARE TO DECODE NEXT ADDRESS
000465:
000466:    4551           40116        STORE3             CS       MPAC       +2                         #  TRIPLE PRECISION TRANSFER TO STORAGE
000467:    4552           40000                           CS       A
000468:    4553           20061                           INDEX    ADDRWD
000469:    4554           50002                           TS       2
000470:    4555           40115        DTS1               CS       MPAC       +1                         #  DOUBLE PRECISION TRANSFER TO STORAGE
000471:    4556           40000                           CS       A
000472:    4557           20061                           INDEX    ADDRWD
000473:    4560           50001        TSQ                TS       1
000474:    4561           40114                           CS       MPAC
000475:    4562           40000        MSIGN              CS       A
000476:    4563           20061                           INDEX    ADDRWD
000477:    4564           50000                           TS       0
000478:    4565           04005        NEQRET             TC       NEWEQUN                               #  START NEW EQUATION
000479:
000480:    4566     4551               TTS1               EQUALS   STORE3
000481:                                                                                                  #                                                        35W
000482:
000483:
000484:    4566           30075        DOBR               XCH      POLISH                                #  DOES BRANCHES
000485:    4567           04601                           TC       DOBR2
000486:
000487:    4570           40060        EXIT2              CS       BANKSET                               #  COMPLETE EXIT EXECUTION BY CALLING IN
000488:    4571           50015                           TS       BANKREG                               #  BANK OF OBJECT INTERPRETIVE PROGRAM.
000489:    4572           00120                           TC       ADRLOC
000490:
000491:    4573           40060        SWF/F              CS       BANKSET                               #  BRANCHING TEST INSTRUCTION
000492:    4574           50015                           TS       BANKREG                               #  RETURNS HERE TO PICK UP BRANCHING ADDRES
000493:    4575           20120                           INDEX    ADRLOC
000494:    4576           30000                           CAF      0                                     #  BRANCH IS ALWAYS TO FIXED.
000495:    4577           64335                           AD       NEG1                                  #  UNDO YULISH INCREMENT.
000496:    4600           64500                           AD       BIT15
000497:
000498:    4601           50015        DOBR2              TS       BANKREG
000499:    4602           74605                           MASK     LOW10
000500:    4603           64607                           AD       6K-1
000501:    4604           04001                           TC       INTPRET    +1
000502:
000503:    4605           01777        LOW10              OCT      1777
000504:    4606           00777        LOW9               OCT      777
000505:    4607           05777        6K-1               OCT      5777
000506:
000507:    4610           30001        VCA1               XCH      Q                                     #  VECTOR CLEAR-AND-ADD ROUTINE
000508:    4611           50103                           TS       TEM5
000509:    4612           34500                           CAF      NEGSIGN
000510:    4613           04631                           TC       VECMOVE
000511:    4614           00103                           TC       TEM5
000512:
000513:    4615           30001        VCS1               XCH      Q                                     #  DP VECTOR CLEAR-AND-SUBTRACT
000514:    4616           50103                           TS       TEM5
000515:    4617           34712                           CAF      NOOP
000516:    4620           04613                           TC       VCA1       +3
000517:
000518:    4621           30061        VTS1               XCH      ADDRWD                                #  TRANSFER TO STORAGE
000519:    4622           30067                           XCH      VACLOC                                #  EXCHANGE VACLOC AND ADDRWD AND DO AN
000520:    4623           50061                           TS       ADDRWD                                #  EFFECTIVE *CLEAR-AND-ADD*.
000521:    4624           34500                           CAF      NEGSIGN
000522:    4625           04631                           TC       VECMOVE
000523:    4626           30061                           XCH      ADDRWD                                #  RESTORE VACLOC
000524:    4627           50067                           TS       VACLOC
000525:    4630           04005                           TC       NEWEQUN                               #  THIS ONLY HAPPENS AT END OF EQUATION
000526:
000527:
000528:    4631           50101        VECMOVE            TS       TEM2                                  #  MOVES A DP VECTOR IN THE FASTEST WAY
000529:    4632           20061                           INDEX    ADDRWD                                #  AVAILABLE. USED BY VCA, VCS, AND VTS.
000530:    4633           40005                           CS       5
000531:    4634           20101                           INDEX    TEM2
000532:    4635           00000                           0        0                                     #  COM FOR VCA, VTS. NOOP FOR VCS.
000533:    4636           20067                           INDEX    VACLOC
000534:    4637           50005                           TS       5
000535:
000536:    4640           20061                           INDEX    ADDRWD
000537:    4641           40004                           CS       4
000538:    4642           20101                           INDEX    TEM2
000539:    4643           00000                           0        0
000540:    4644           20067                           INDEX    VACLOC
000541:    4645           50004                           TS       4
000542:
000543:    4646           20061                           INDEX    ADDRWD
000544:    4647           40003        OCT40003           CS       3                                     #  CONSTANT USED BY UNARY LOAD ROUTINE.
000545:    4650           20101                           INDEX    TEM2
000546:    4651           00000                           0        0
000547:    4652           20067                           INDEX    VACLOC
000548:    4653           50003                           TS       3
000549:
000550:    4654           20061                           INDEX    ADDRWD
000551:    4655           40002        OCT40002           CS       2
000552:    4656           20101                           INDEX    TEM2
000553:    4657           00000                           0        0
000554:    4660           20067                           INDEX    VACLOC
000555:    4661           50002                           TS       2
000556:
000557:    4662           20061                           INDEX    ADDRWD
000558:    4663           40001        CSQ                CS       1                                     #  CONSTANT USED BY WAITLIST.
000559:    4664           20101                           INDEX    TEM2
000560:    4665           00000                           0        0
000561:    4666           20067                           INDEX    VACLOC
000562:    4667           50001                           TS       1
000563:
000564:    4670           20061                           INDEX    ADDRWD
000565:    4671           40000                           CS       0
000566:    4672           20101                           INDEX    TEM2
000567:    4673           00000                           0        0
000568:    4674           20067                           INDEX    VACLOC
000569:    4675           50000                           TS       0
000570:
000571:    4676           00001                           TC       Q                                     #  DONE
000572:
000573:
000574:    4677           35500        STZ1               CAF      ZERO
000575:    4700           20061                           INDEX    ADDRWD
000576:    4701           50000                           TS       0
000577:
000578:    4702           40060        RE-ENTER           CS       BANKSET                               #  ROUTINE  SIMILAR TO 'DANZIG' EXCEPT THAT
000579:    4703           50015                           TS       BANKREG                               #  NO PUSHING DOWN IS DONE AT END OF EQUN.
000580:
000581:    4704           10062                           CCS      ORDER                                 #  IT IS USED BY MISCELLANEOUS INSTRUCTIONS
000582:    4705           04200                           TC       LOWWD                                 #  AND BRANCHES WHICH FAILED
000583:
000584:    4706           20117                           INDEX    LOC                                   #  IF WE HAD RETURNED DIRECTLY TO THE MAIN
000585:    4707           40001                           CS       1
000586:    4710           10000                           CCS      A
000587:    4711           04065                           TC       IPROC                                 #  IT IS USED BY BRANCH INSTRUCTIONS WHICH
000588:    4712           30000        NOOP               NOOP                                           #  IN CASE THE FIRST ADDRESS WAS INACTIVE
000589:
000590:    4713           20120                           INDEX    ADRLOC                                #  SEE IF A LEFT-OVER ADDRESS
000591:    4714           40001                           CS       1
000592:    4715           10000                           CCS      A
000593:    4716           04005                           TC       NEWEQUN                               #  NO - START NEW EQUATION
000594:    4717           00177        LOW7               OCT      177
000595:    4720           04044                           TC       STORADR                               #  YES - MUST BE STORE ADDRESS
000596:
000597:    4721     4700               STOR1              EQUALS   STZ1       +1
000598:
000599:
000600:    4721           10020        TAG                CCS      CYR                                   #  SETS TAG1 ACCORDING TO SIGN BIT IN CYR
000601:    4722           35500                           CAF      ZERO
000602:    4723           10000                           CCS      A                                     #  SKIP NEXT INS WITHOUT CHANGING Q
000603:    4724           34516                           CAF      ONE
000604:    4725           60066                           AD       FIXLOC                                #  INDEXES AND STEPS IN VAC AREA
000605:    4726           50074                           TS       TAG1
000606:    4727           00001                           TC       Q
000607:
000608:    4730           00076        TCBUF              ADRES    BUF
000609:
000610:    4731           04746        DSU2               TC       DPSET                                 #  DP SUBTRACT
000611:    4732           05054                           TC       ADDTOSUB
000612:    4733           04766                           TC       DAD2       +1
000613:
000614:    4734           04746        DBSU               TC       DPSET
000615:    4735           04741                           TC       DACCOM                                #  COMPLEMENT DP ACCUM
000616:    4736           04766                           TC       DAD2       +1                         #  AND ADD
000617:
000618:    4737           40116        MPACCOM            CS       MPAC       +2                         #  COMPLEMENT MPAC
000619:    4740           50116                           TS       MPAC       +2
000620:    4741           40115        DACCOM             CS       MPAC       +1
000621:    4742           50115                           TS       MPAC       +1
000622:    4743           40114                           CS       MPAC
000623:    4744           50114                           TS       MPAC
000624:    4745           00001                           TC       Q
000625:
000626:    4746           44516        DPSET              CS       ONE                                   #  SET UP DP MODE AND LOAD IF NECESSARY
000627:    4747           50064                           TS       MODE
000628:    4750           10065                           CCS      NEWEQIND
000629:    4751           04203                           TC       LOAD
000630:    4752           00001                           TC       Q
000631:
000632:    4753           45500        VECSET             CS       ZERO                                  #  SIMILARLY FOR VECTORS
000633:    4754           50064                           TS       MODE
000634:    4755           10065                           CCS      NEWEQIND
000635:    4756           04203                           TC       LOAD
000636:    4757           00001                           TC       Q
000637:
000638:    4760           45502        TPSET              CS       TWO                                   #  AND FOR TP
000639:    4761           50064                           TS       MODE
000640:    4762           10065                           CCS      NEWEQIND
000641:    4763           04203                           TC       LOAD
000642:    4764           00001                           TC       Q
000643:
000644:
000645:    4765           04746        DAD2               TC       DPSET                                 #  DOUBLE PRECISION ADD INSTRUCTION
000646:    4766           34771                           CAF      DAD2       +4
000647:    4767           05017                           TC       DAD1                                  #  PROGRAM USES CLOSED SUBROUTINE DAD1,
000648:    4770           04024                           TC       INT1                                  #  WITH ADDRESSES SET UP IN ADDRWD, TEM2
000649:
000650:    4771           00114                 +4        ADRES    MPAC
000651:
000652:    4772           04760        TSU1               TC       TPSET                                 #  TRIPLE PRECISION SUBTRACT INSTRUCTION
000653:    4773           05054                           TC       ADDTOSUB
000654:    4774           04776                           TC       TRAD       +1
000655:
000656:    4775           04760        TRAD               TC       TPSET                                 #  TRIPLE PRECISION ADD INSTRUCTION
000657:    4776           05000                           TC       +2
000658:    4777           04024                           TC       INT1
000659:
000660:    5000           30001                 +3        XCH      Q
000661:    5001           50103                           TS       TEM5
000662:    5002           34771                           CAF      DAD2       +4
000663:    5003           50101                           TS       TEM2
000664:    5004           20000                           INDEX    A
000665:    5005           30002                           XCH      2
000666:    5006           20061                           INDEX    ADDRWD
000667:    5007           60002                           AD       2
000668:    5010           20101                           INDEX    TEM2
000669:    5011           50002                           TS       2                                     #  AGAIN SKIPPING, AS IN DAD1
000670:    5012           35500                           CAF      ZERO
000671:    5013           20101                           INDEX    TEM2
000672:    5014           60001                           AD       1
000673:    5015           05022                           TC       DAD1       +3                         #  FINISH IN DAD1
000674:
000675:    5016           00103                           TC       TEM5                                  #  AND RETURN
000676:
000677:
000678:    5017           50101        DAD1               TS       TEM2                                  #  DOUBLE PRECISION ADD ROUTINE
000679:    5020           20101                           INDEX    TEM2                                  #  POLYNOMIAL EVALUATOR ENTERS HERE.
000680:    5021           30001                           XCH      1
000681:    5022           20061                 +3        INDEX    ADDRWD
000682:    5023           60001                           AD       1
000683:    5024           20101                           INDEX    TEM2
000684:    5025           50001                           TS       1                                     #  SKIPS IF OVERFLOW WITH COUNT IN A
000685:    5026           35500                           CAF      ZERO                                  #  NO OVERFLOW IF HERE
000686:    5027           20101                           INDEX    TEM2                                  #  ARRIVE HERE WITH 1 OR -1 IN A IF OVERFLO
000687:    5030           60000                           AD       0
000688:    5031           20061                           INDEX    ADDRWD
000689:    5032           60000                           AD       0
000690:    5033           20101                           INDEX    TEM2
000691:    5034           50000                           TS       0                                     #  AND AGAIN SKIP IF OVERFLOW
000692:    5035           00001                           TC       Q                                     #  EXIT IF NONE
000693:    5036           50121                           TS       OVFIND                                #  SAVE ANY OVERFLOW FOR BOV TESTING
000694:    5037           00001                           TC       Q
000695:
000696:    5040           50104        8TO2               TS       TEM8                                  #  MOVES THE DP WORD LOCATED AT THE ADDRESS
000697:    5041           20000                           INDEX    A                                     #  IN A TO THE ADDRESS IN TEM2
000698:    5042           40000                           CS       0
000699:    5043           40000                           CS       A
000700:    5044           20101                           INDEX    TEM2
000701:    5045           50000                           TS       0
000702:    5046           20104                           INDEX    TEM8
000703:    5047           40001                           CS       1
000704:    5050           40000                           CS       A
000705:    5051           20101                           INDEX    TEM2
000706:    5052           50001                           TS       1
000707:    5053           00001                           TC       Q
000708:
000709:    5054           30061        ADDTOSUB           XCH      ADDRWD                                #  BY PUTTING THE APPROPRIATE BITS IN
000710:    5055           65777                           AD       ATSBITS                               #  ADDRWD, DAD1 DOES A DOUBLE SUBTRACT IN-
000711:    5056           50061                           TS       ADDRWD                                #  STEAD OF A DOUBLE ADD.
000712:    5057           00001                           TC       Q
000713:
000714:
000715:    5060           04746        DMP2               TC       DPSET                                 #  DP MULTIPLY (AND ROUND) ROUTINE
000716:    5061           30061                           XCH      ADDRWD
000717:    5062           65777                           AD       BUGBITS                               #  MAKE EXENDED CODE ADDRESS.
000718:    5063           50102        DSQ2               TS       TEM4                                  #  ENTRY FROM DSQ ROUTINE.
000719:    5064           34771                           XCH      DAD2       +4                         #  C(DAD2 +4) = TC MPAC
000720:    5065           05101                           TC       DMP1                                  #  EXECUTE MULTIPLY AT DMP1, THEN EXIT
000721:    5066           04523                           TC       TCS1                                  #  VIA TCS1 TO MOVE (BUF TO BUF+2)
000722:                                                                                                  #  INTO (MPAC TO MPAC+2).
000723:
000724:    5067           40020        OCT40020           CS       CYR
000725:    5070           10020                           CCS      CYR
000726:    5071           34771        MPACRND            CAF      DAD2       +4                         #  SET UP ROUND SUBROUTINE TO ROUND MPAC.
000727:    5072           05442                           TC       PREROUND   +1
000728:    5073           04024                           TC       DANZIG
000729:
000730:    5074           04746        SHIFTR1            TC       DPSET                                 #  TSRT INSTRUCTION.
000731:    5075           50015                           TS       BANKREG                               #  SUBROUTINE IN BANK 0
000732:    5076           06042                           TC       TRUE2                                 #  GET INTEGER ADDRESS BACK
000733:    5077           06232                           TC       SHIFTR     -1                         #  WITH DECREMENTED COUNT IN A.
000734:    5100           04024                           TC       DANZIG
000735:
000736:
000737:    5101           50101        DMP1               TS       TEM2                                  #  GENERAL PURPOSE DP MULTIPLICATION
000738:    5102           20101                           INDEX    TEM2                                  #  POLYNOMIAL ENTERS HERE.
000739:    5103           40001                           CS       1
000740:    5104           50034                           TS       OVCTR                                 #  -N1 TO OVCTR
000741:    5105           20102                           INDEX    TEM4
000742:    5106           40001                           MP       1                                     #  -M1N1
000743:    5107           30034                           XCH      OVCTR                                 #  -U(M1N1) TO OVCTR, -N1 TO A
000744:    5110           20102                           INDEX    TEM4
000745:    5111           40000                           MP       0                                     #  -M0N1
000746:    5112           30034                           XCH      OVCTR                                 #  -U(M0N1) TO OVCTR, -U(M1N1) TO A
000747:    5113           60003                           AD       LP                                    #  MAYBE INCREMENT -U(M0N1) IN OVCTR
000748:    5114           30077                           XCH      BUF        +1                         #  -L(M0N1)-U(M1N1) TO BUF+1
000749:    5115           20101                           INDEX    TEM2
000750:    5116           40000                           CS       0
000751:    5117           50100                           TS       BUF        +2                         #  -N0 TO BUF+2
000752:    5120           20102                           INDEX    TEM4
000753:    5121           40001                           MP       1                                     #  -M1N0
000754:    5122           30034                           XCH      OVCTR                                 #  -U(M1N0) TO OVCTR, -U(M0N1) TO A
000755:    5123           30077                           XCH      BUF        +1                         #  -U(M0N1) TO BUF+1, -L(M0N1)-U(M1N1) TO A
000756:    5124           60003                           AD       LP                                    #  MAYBE INCREMENT -U(M1N0) IN OVCTR
000757:    5125           30100                           XCH      BUF        +2                         #  -L(M1N0)-L(M0N1)-U(M1N1) TO BUF+2, -N0 T
000758:    5126           20102                           INDEX    TEM4                                  #  O A
000759:    5127           40000                           MP       0                                     #  -M0N0
000760:    5130           30034                           XCH      OVCTR                                 #  -U(M0N0) TO OVCTR, -U(M1N0) TO A
000761:    5131           60003                           AD       LP
000762:    5132           30077                           XCH      BUF        +1
000763:    5133           60077                           AD       BUF        +1
000764:    5134           30077                           XCH      BUF        +1
000765:    5135           30034                           XCH      OVCTR
000766:    5136           50076                           TS       BUF
000767:    5137           00001                           TC       Q
000768:
000769:                                                                                                  #        TIMING:  86 MC +-2  OR 1.032 MS +-0.024                         30 WORDS
000770:
000771:
000772:    5140           04746        BDDV               TC       DPSET                                 #  BACKWARDS DP DIVIDE
000773:    5141           34516                           CAF      ONE                                   #  SET SWITCH
000774:    5142           05144                           TC       +2                                    #  AND GO ON AS USUAL
000775:
000776:    5143           04746        DDV                TC       DPSET                                 #  REGULAR DP DIVIDE
000777:    5144           50107                           TS       DVSW                                  #  DPSET RETURNS WITH 0 IN A
000778:    5145           35552                           CAF      LDANZIG                               #  RETURN TO DANZIG
000779:    5146           50075                           TS       TEMQ3
000780:    5147           34730                           CAF      TCBUF
000781:    5150           50101                           TS       TEM2
000782:    5151           30061                           XCH      ADDRWD
000783:    5152           05040                           TC       8TO2                                  #  X,X+1 INTO BUF, BUF+1
000784:
000785:    5153           35500                           CAF      ZERO
000786:    5154           50015                           TS       BANKREG                               #  CALL IN BANK 0
000787:    5155           06760                           TC       DDV0                                  #  TO BANK 0 PORTION
000788:
000789:    5156           30001        DMP                XCH      Q                                     #  DP MULTIPLY ROUTINE WHICH CAN BE CALLED
000790:    5157           50103                           TS       TEM5                                  #  BY TC DMP, FOLLOWED BY A WORD CONTAINING
000791:    5160           20000                           INDEX    A                                     #  THE ADDRESS OF THE MULTIPLIER WITH
000792:    5161           30000                           CAF      0                                     #  BITS IN THE ORDER CODE TO CALL IN MP
000793:    5162           50102                           TS       TEM4                                  #  IN THE EXTENDED CODE (UNKNOWN AS YET)
000794:    5163           34771                           CAF      DAD2       +4
000795:    5164           05101                           TC       DMP1
000796:    5165           04523                           TC       TCS1
000797:    5166           20103                           INDEX    TEM5                                  #  TIME IS 120 MC+-2, OR ABOUT 1.44 MS
000798:    5167           00001                           TC       1                                     #  RETURN TO INSTRUCTION AFTER ADDRESS WORD
000799:
000800:    5170           30001        DAD                XCH      Q                                     #  DP ADD ROUTINE WORKING JUST AS MP ABOVE
000801:    5171           50103                           TS       TEM5                                  #  HERE, HOWEVER, ONLY *ADRES X* IS NEEDED
000802:    5172           20000                           INDEX    A                                     #  SINCE AD IS PART OF THE REGULAR CODE
000803:    5173           30000                           CAF      0
000804:    5174           50061                           TS       ADDRWD
000805:    5175           34771                           CAF      DAD2       +4
000806:    5176           05017                           TC       DAD1
000807:    5177           20103                           INDEX    TEM5
000808:    5200           00001                           TC       1                                     #  TIME IS 48+-2 MC OR 576 MICRO-SEC.
000809:
000810:
000811:    5201           30001        VACCOM             XCH      Q                                     #  COMPLEMENT THE APPROPRIATE VAC
000812:    5202           50103                           TS       TEM5
000813:    5203           40067                           CS       VACLOC
000814:    5204           40000                           COM
000815:    5205           30061                           XCH      ADDRWD
000816:    5206           50102                           TS       TEM4
000817:    5207           04617                           TC       VCS1       +2
000818:
000819:    5210           04753        VSU1               TC       VECSET                                #  DP VECTOR SUBTRACT
000820:    5211           05054                           TC       ADDTOSUB
000821:    5212           05221                           TC       VAD1       +1                         #  USES VAD ROUTINE WITH SUBS
000822:
000823:    5213           04753        BVSU1              TC       VECSET                                #  DP VECTOR BACKWARDS SUBTRACT
000824:    5214           05201                           TC       VACCOM                                #  JUST COMPLEMENT VAC
000825:    5215           30102                           XCH      TEM4
000826:    5216           50061                           TS       ADDRWD
000827:    5217           05221                           TC       VAD1       +1                         #  AND ADD
000828:
000829:    5220           04753        VAD1               TC       VECSET
000830:    5221           30067                           XCH      VACLOC                                #  DP VECTOR ADD
000831:    5222           50067                           TS       VACLOC
000832:    5223           05017                           TC       DAD1
000833:    5224           05241                           TC       AD2
000834:    5225           05411                           TC       INCRT2
000835:    5226           05017                           TC       DAD1
000836:    5227           05241                           TC       AD2
000837:    5230           05411                           TC       INCRT2
000838:    5231           05017                           TC       DAD1
000839:    5232           04024                           TC       INT1
000840:
000841:
000842:    5233           04753        DOT1               TC       VECSET                                #  DP DOT PRODUCT ROUTINE
000843:    5234           05245                           TC       DOT2
000844:    5235           04737                           TC       MPACCOM
000845:    5236           44516        DPEXIT             CS       ONE                                   #  CHANGE MODE TO DOUBLE-PRECISION
000846:    5237           50064                           TS       MODE
000847:    5240           04024                           TC       DANZIG
000848:
000849:    5241           30061        AD2                XCH      ADDRWD
000850:    5242           65502                           AD       TWO
000851:    5243           50061                           TS       ADDRWD
000852:    5244           00001                           TC       Q
000853:
000854:    5245           35502        DOT2               XCH      TWO                                   #  SUBROUTINE DOT2 COMPUTES THE TRIPLE-
000855:    5246           50063                           TS       TEM11
000856:    5247           34730                           XCH      TCBUF                                 #  SIGN, IN MPAC TO MPAC+2.
000857:    5250           30061                           XCH      ADDRWD
000858:    5251           65777                           AD       BUGBITS
000859:    5252           50102                           TS       TEM4
000860:    5253           30001                           XCH      Q
000861:    5254           50104                           TS       TEM8
000862:    5255           30067                           XCH      VACLOC
000863:    5256           50067                           TS       VACLOC
000864:    5257           05101                           TC       DMP1
000865:    5260           30076                           XCH      BUF
000866:    5261           50114                           TS       MPAC
000867:    5262           30077                           XCH      BUF        +1
000868:    5263           50115                           TS       MPAC       +1
000869:    5264           30100                           XCH      BUF        +2
000870:    5265           50116                           TS       MPAC       +2
000871:    5266           05301                           TC       INCRT4
000872:    5267           05411                           TC       INCRT2
000873:    5270           05101                           TC       DMP1
000874:    5271           05000                           TC       TRAD       +3
000875:    5272           05301                           TC       INCRT4
000876:    5273           30067                           XCH      VACLOC
000877:    5274           50067                           TS       VACLOC
000878:    5275           65501                           AD       FOUR
000879:    5276           05101                           TC       DMP1
000880:    5277           05000                           TC       TRAD       +3
000881:    5300           00104                           TC       TEM8
000882:
000883:
000884:    5301           30102        INCRT4             XCH      TEM4
000885:    5302           60063                           AD       TEM11
000886:    5303           50102                           TS       TEM4
000887:    5304           00001                           TC       Q
000888:
000889:    5305           04753        VXM1               TC       VECSET                                #  DP VECTOR TIMES MATRIX
000890:    5306           40061                           CS       ADDRWD
000891:    5307           50106                           TS       TEM10
000892:    5310           35502                           XCH      TWO
000893:    5311           50105                           TS       TEM9
000894:    5312           34475                           XCH      SIX
000895:    5313           05246                           TC       DOT2       +1
000896:    5314           05323                           TC       MXV2                                  #  REST OF OPERATION USES MXV ROUTINE
000897:
000898:    5315           04753        MXV1               TC       VECSET                                #  MATRIX TIMES DP VECTOR
000899:    5316           40061                           CS       ADDRWD
000900:    5317           50106                           TS       TEM10
000901:    5320           34475                           XCH      SIX                                   #  PROGRAM USES DOT PRODUCT ROUTINES TO
000902:    5321           50105                           TS       TEM9
000903:    5322           05245                           TC       DOT2
000904:
000905:    5323           35474        MXV2               CAF      K2                                    #  USES VBUF
000906:    5324           05346                           TC       STORDAC
000907:    5325           40106                           CS       TEM10
000908:    5326           60105                           AD       TEM9
000909:    5327           50106                           TS       TEM10
000910:    5330           50061                           TS       ADDRWD
000911:    5331           05247                           TC       DOT2       +2
000912:
000913:    5332           35475                           CAF      K2         +1
000914:    5333           05346                           TC       STORDAC
000915:    5334           30106                           XCH      TEM10
000916:    5335           60105                           AD       TEM9
000917:    5336           50061                           TS       ADDRWD
000918:    5337           05247                           TC       DOT2       +2
000919:    5340           35474                           CAF      K2
000920:    5341           50061                           TS       ADDRWD
000921:    5342           65501                           AD       FOUR
000922:    5343           05346                           TC       STORDAC
000923:    5344           04610                           TC       VCA1
000924:    5345           04024                           TC       DANZIG
000925:
000926:    5346           50102        STORDAC            TS       TEM4                                  #  SUBROUTINE TO STORE MPAC, MPAC+1 IN
000927:    5347           40114                           CS       MPAC                                  #  ADDRESSES INDICATED BY C(A) AT ENTRY.
000928:    5350           20102                           INDEX    TEM4
000929:    5351           50000                           TS       0
000930:    5352           40115                           CS       MPAC       +1
000931:    5353           20102                           INDEX    TEM4
000932:    5354           50001                           TS       1
000933:    5355           00001                           TC       Q
000934:
000935:    5356           10065        VXSC1              CCS      NEWEQIND                              #  DP VECTOR TIMES SCALAR
000936:    5357           04753                           TC       VECSET                                #  LOAD INSTRUCTION
000937:    5360           10064                           CCS      MODE                                  #  IF NOT, WHICH MODE ARE WE IN
000938:    5361           00007        SEVEN              OCT      7
000939:    5362           77762        MINUS13            DEC      -13        B-14
000940:
000941:    5363           05367                           TC       VECCHECK
000942:
000943:    5364           30061                           XCH      ADDRWD
000944:    5365           65777                           AD       BUGBITS                               #  TO CALL IN MP
000945:    5366           05371                           TC       VXSC2
000946:
000947:    5367           04610        VECCHECK           TC       VCA1                                  #  USE ADDRWD TO LOAD VECTOR
000948:    5370           34231                           CAF      BUGMPAC
000949:
000950:
000951:    5371           50102        VXSC2              TS       TEM4
000952:    5372           40067                           CS       VACLOC
000953:    5373           40000                           COM
000954:    5374           05101                           TC       DMP1
000955:    5375           05441                           TC       PREROUND
000956:    5376           05465                           TC       STB
000957:    5377           05411                           TC       INCRT2
000958:    5400           05101                           TC       DMP1
000959:    5401           05443                           TC       ROUND
000960:    5402           05465                           TC       STB
000961:    5403           05411                           TC       INCRT2
000962:    5404           05101                           TC       DMP1
000963:    5405           05443                           TC       ROUND
000964:    5406           05465                           TC       STB
000965:    5407           45500        ZEROEXIT           CS       ZERO                                  #  CHANGE MODE TO VECTOR
000966:    5410           05237                           TC       DPEXIT     +1
000967:
000968:    5411     4024               INT1               EQUALS   DANZIG
000969:
000970:    5411           30101        INCRT2             XCH      TEM2
000971:    5412           65502                           AD       TWO
000972:    5413           50101                           TS       TEM2
000973:    5414           00001                           TC       Q
000974:
000975:
000976:    5415           30116        SHORTMP            XCH      MPAC       +2                         #  MULTIPLY THE CONTENTS OF MPAC,MPAC+1,
000977:    5416           25777                           EXTEND                                         #  MPAC+2 BY THE SINGLE PRECISION NUMBER
000978:    5417           40116                           MP       MPAC       +2                         #  ARRIVING IN A.
000979:    5420           30116                           XCH      MPAC       +2
000980:
000981:    5421           30115        SHORTMP2           XCH      MPAC       +1                         #  FASTER BUT SLOPPIER VERSION FOR DP
000982:    5422           25777                           EXTEND
000983:    5423           40115                           MP       MPAC       +1
000984:    5424           50034                           TS       OVCTR
000985:    5425           30003                           XCH      LP
000986:    5426           60116                           AD       MPAC       +2                         #  THE SHORTMP2 RESULT WILL BE OFF IN THE
000987:    5427           30116                           XCH      MPAC       +2                         #    LAST BIT IF THIS AD OVERFLOWS.
000988:    5430           30114                           XCH      MPAC
000989:    5431           25777                           EXTEND
000990:    5432           40115                           MP       MPAC       +1
000991:    5433           30034                           XCH      OVCTR
000992:    5434           60003                           AD       LP
000993:    5435           30115                           XCH      MPAC       +1
000994:    5436           30034                           XCH      OVCTR                                 #  ARGUMENT IN OVCTR UPON EXIT
000995:    5437           50114                           TS       MPAC
000996:    5440           00001                           TC       Q
000997:
000998:    5441           34730        PREROUND           CAF      TCBUF
000999:    5442           50104                           TS       TEM8
001000:
001001:    5443           35500        ROUND              CAF      ZERO                                  #  ROUND THE TRIPLE-PRECISION NUMBER WHOSE
001002:    5444           20104                           INDEX    TEM8                                  #  ADDRESS IS IN TEM8 TO DOUBLE-PRECISION,
001003:    5445           30002                           XCH      2                                     #  SETING THE LOWEST ORDER OF THE THREE
001004:    5446           60000                           DOUBLE                                         #  WORDS TO ZERO IN THE PROCESS
001005:    5447           50034                           TS       OVCTR
001006:    5450           00001                           TC       Q                                     #  DONE IF DOESNT SKIP
001007:
001008:    5451           20104                           INDEX    TEM8
001009:    5452           60001                           AD       1
001010:    5453           20104                           INDEX    TEM8
001011:    5454           50001                           TS       1
001012:    5455           00001                           TC       Q
001013:
001014:    5456           20104                           INDEX    TEM8
001015:    5457           60000                           AD       0
001016:    5460           20104                           INDEX    TEM8
001017:    5461           50000                           TS       0                                     #  ANY CARRIES BEYOND THIS POINT ARE
001018:    5462           00001                           TC       Q                                     #  OVERFLOW
001019:
001020:    5463           50121                           TS       OVFIND
001021:    5464           00001                           TC       Q
001022:
001023:
001024:    5465           40076        STB                CS       BUF
001025:    5466           20101                           INDEX    TEM2
001026:    5467           50000                           TS       0
001027:    5470           40077                           CS       BUF        +1
001028:    5471           20101                           INDEX    TEM2
001029:    5472           50001                           TS       1
001030:    5473           00001                           TC       Q
001031:
001032:    5474           00070        K2                 0        VBUF
001033:    5475           00072                           0        VBUF       +2
001034:    5476           00074                           0        VBUF       +4
001035:
001036:    5477     5472               STORTEST           EQUALS   K2         -2
001037:
001038:    5477           00002        SEQ                OCT      2
001039:    5500           00000        ZERO               OCT      0
001040:    5501           00004        FOUR               OCT      4
001041:    5502           00002        TWO                OCT      2
001042:    5503           77777        NEG0               OCT      -0
001043:
001044:    5504           04753        VPROJ1             TC       VECSET                                #  VECTOR PROJECT
001045:    5505           05245                           TC       DOT2                                  #  LEAVES (VAC,X)VAC IN VAC
001046:    5506           04741                           TC       DACCOM
001047:    5507           05370                           TC       VXSC2      -1                         #  FINISH IN VXSC (USING MPAC)
001048:
001049:    5510           04753        CROSS1             TC       VECSET                                #  DP VECTOR CROSS PRODUCT (BOTH WAYS)
001050:    5511           34730                           XCH      TCBUF
001051:    5512           30061                           XCH      ADDRWD
001052:    5513           65777                           AD       BUGBITS                               #  AGAIN FOR MP
001053:    5514           50103                           TS       BASE
001054:    5515           65502                           AD       TWO                                   #  WHERE THE VECTOR X IS THAT ADDRESSED
001055:    5516           50102                           TS       TEM4                                  #  BY THE ORDER, AND V IS C(VAC).
001056:    5517           35502                           XCH      TWO
001057:
001058:
001059:    5520           50106        LUP                TS       IND
001060:    5521           20106                           INDEX    IND
001061:    5522           35477                           XCH      SEQ
001062:    5523           60067                           AD       VACLOC
001063:    5524           05101                           TC       DMP1
001064:    5525           20106                           INDEX    IND
001065:    5526           35501                           XCH      SEQ        +2
001066:    5527           65474                           AD       K2
001067:    5530           50104                           TS       TEM6
001068:    5531           50101                           TS       TEM2
001069:    5532           05465                           TC       STB
001070:    5533           20106                           INDEX    IND
001071:    5534           35477                           XCH      SEQ
001072:    5535           60103                           AD       BASE
001073:    5536           50102                           TS       TEM4
001074:    5537           20106                           INDEX    IND
001075:    5540           35500                           XCH      SEQ        +1
001076:    5541           60067                           AD       VACLOC
001077:    5542           05101                           TC       DMP1
001078:    5543           30104                           XCH      TEM6
001079:    5544           05017                           TC       DAD1
001080:    5545           10106                           CCS      IND
001081:    5546           05520                           TC       LUP
001082:
001083:    5547           35474        CREXIT             XCH      K2
001084:    5550           50061                           TS       ADDRWD
001085:    5551           04615                           TC       VCS1                                  #  VXV
001086:    5552           04024        LDANZIG            TC       DANZIG
001087:
001088:
001089:                                                                                                  #  DOUBLE-PRECISION POLYNOMIAL EVALUATION ROUTINE.
001090:
001091:                                                                                                  #  PROGRAM ENTRY
001092:                                                                                                  #
001093:                                                                                                  #  L             TC      POLY
001094:                                                                                                  #                                                                    N
001095:                                                                                                  #  L+1           OCT     -2N             COMPUTES A  +A X + ... + A X , WHERE
001096:                                                                                                  #                                                  0   1           N
001097:                                                                                                  #  L+2           D.P.    - A             X = C(MPAC).
001098:                                                                                                  #                           0
001099:
001100:                                                                                                  #  -   -   -   -   -   -   -   -
001101:
001102:                                                                                                  #  L+2+2N        D.P.    - A
001103:                                                                                                  #                           N
001104:
001105:                                                                                                  #  L+4+2N        NEXT OPERATION
001106:
001107:    5553           35607        POLY               CAF      BUGBITS2                              #  CONTAINS XCADR VBUF
001108:    5554           50102                           TS       TEM4
001109:    5555           35500                           CAF      ZERO                                  #  ZERO INTO BUF, BUF+1 TO START POLYLUP
001110:    5556           50076                           TS       BUF
001111:    5557           50077                           TS       BUF        +1
001112:
001113:    5560           30114                           XCH      MPAC                                  #  ARGUMENT  X  INTO 6T, 7T
001114:    5561           50070                           TS       VBUF                                  #  TEMPORARY STORAGE
001115:    5562           30115                           XCH      MPAC       +1
001116:    5563           50071                           TS       VBUF       +1
001117:
001118:    5564           34771                           CAF      DAD2       +4                         #  ADDRESS OF MPAC
001119:    5565           50101                           TS       TEM2
001120:
001121:    5566           20001                           INDEX    Q                                     #  2N  INTO 10T
001122:    5567           30000                           CAF      0
001123:    5570           50106                           TS       TEM10
001124:    5571           60001                           AD       Q                                     #  EXIT ADDRESS INTO 11T
001125:    5572           64473                           AD       THREE
001126:    5573           50105                           TS       TEM9
001127:    5574           05600                           TC       POLYLUP    +3
001128:
001129:
001130:    5575           50106        POLYLUP            TS       TEM10
001131:    5576           05102                           TC       DMP1       +1
001132:
001133:    5577           30061                           XCH      ADDRWD
001134:    5600           64340                 +3        AD       NEG2                                  #  REDUCE COEFFICIENT INDEX BY 1
001135:    5601           50061                           TS       ADDRWD                                #  COEFFICIENT LOC IN ADDRWD FOR USE BY
001136:    5602           04525                           TC       TCS1       +2                         #  -BUF,BUF+1 INTO MPAC,MPAC+1
001137:    5603           05020                           TC       DAD1       +1                         #  - COEFF + (BUF) INTO BUF
001138:
001139:    5604           10106                           CCS      TEM10
001140:    5605           64335                           AD       NEG1                                  #  THE AD NEG1 ORDER, -0 WILL BE THE END
001141:    5606           05575                           TC       POLYLUP
001142:
001143:    5607           50067        BUGBITS2           XCADR    VBUF                                  #  USED BY POLY
001144:
001145:    5610           00105                           TC       TEM9                                  #  RETURN
001146:
001147:
001148:    5611           40060        ITCF               CS       BANKSET                               #  ITC - UNCONDITIONAL TRANSFER
001149:    5612           30120                           XCH      ADRLOC                                #  PLACE IN QPRET THE POLISH ADDRESS OF
001150:    5613           74605                           MASK     LOW10                                 #  THE NEXT EQUATION. ITC MUST BE THE LAST
001151:    5614           60120                           AD       ADRLOC                                #  NON-BLANK OPERATOR IN AN EQUATION
001152:    5615           64516                           AD       ONE
001153:    5616           20066                           INDEX    FIXLOC
001154:    5617           50052                           TS       QPRET
001155:    5620           10061                           CCS      ADDRWD
001156:    5621           04001                           TC       INTPRET    +1                         #  BANKREG IS ALREADY SET
001157:
001158:    5622           10121        BOVF               CCS      OVFIND                                #  BRANCH IF OVERFLOW INDICATOR IS ON
001159:    5623           05625                           TC       +2                                    #  OVFIND CAN BE EITHER -1, 0, OR +1
001160:    5624           04024                           TC       DANZIG                                #  IT WAS OFF - DISPATCH NEXT OPERATOR.
001161:    5625           50121                           TS       OVFIND                                #  IT WAS ON - SET TO 0 (OFF)
001162:    5626           04566                           TC       DOBR                                  #  AND DO THE BRANCH
001163:
001164:    5627           04753        VSLT1              TC       VECSET                                #  DP VECTOR SHIFT LEFT
001165:    5630           50015                           TS       BANKREG
001166:    5631           06462                           TC       VSLT2
001167:
001168:    5632           04753        VSRT1              TC       VECSET                                #  DP VECTOR SHIFT RIGHT
001169:    5633           50115                           TS       MPAC       +1                         #  SET SHIFTING BIT IN MPAC,MPAC+1
001170:    5634           50015                           TS       BANKREG                               #  CALL IN BANK ZERO.
001171:    5635           06042                           TC       TRUE2                                 #  GET INTEGER ADDRESS
001172:    5636           62130                           AD       NEG13
001173:    5637           10000                           CCS      A
001174:    5640           05647                           TC       VSRT3
001175:    5641           77761        NEG14              DEC      -14        B-14
001176:    5642           05643                           TC       +1
001177:    5643           20061                           INDEX    ADDRWD
001178:    5644           34500                           CAF      BIT15
001179:    5645           50114                           TS       MPAC
001180:    5646           05370                           TC       VECCHECK   +1                         #  FINISH IN VXSC ROUTINE.
001181:
001182:    5647           20000        VSRT3              INDEX    A
001183:    5650           34501                           CAF      BIT14
001184:    5651           30115                           XCH      MPAC       +1                         #  WHICH PREVIOUSLY CONTAINED A ZERO
001185:    5652           05645                           TC       VSRT3      -2
001186:
001187:    5777                                           SETLOC   5777                                  #  STANDARD LOCATION FOR EXTENDING BITS
001188:
001189:    5777           47777        OPOVF              XCADR    0

End of include-file FIXED-FIXED_INTERPRETER_SECTION.agc.  Parent file is MAIN.agc


