
Source Code


000002:                                                                                                  ## Copyright:   Public domain.
000003:                                                                                                  ## Filename:    FRESH_START_AND_RESTART.agc
000004:                                                                                                  ## Purpose:     A section of Sunrise 45.
000005:                                                                                                  ##              It is part of the reconstructed source code for the penultimate
000006:                                                                                                  ##              release of the Block I Command Module system test software. No
000007:                                                                                                  ##              original listings of this program are available; instead, this
000008:                                                                                                  ##              file was created via disassembly of dumps of Sunrise core rope
000009:                                                                                                  ##              memory modules and comparison with the later Block I program
000010:                                                                                                  ##              Solarium 55.
000011:                                                                                                  ## Assembler:   yaYUL --block1
000012:                                                                                                  ## Contact:     Ron Burkey <info@sandroid.org>.
000013:                                                                                                  ## Website:     www.ibiblio.org/apollo/index.html
000014:                                                                                                  ## Mod history: 2022-12-09 MAS  Initial reconstructed source.
000015:
000016:                                                                                                  ## Names in this section are largely taken from AGC Information Series Issue 16,
000017:                                                                                                  ## Progress Control and Fresh Start and Restart.
000018:
000019: 04,6744                                           BANK     4
000020:                                                                                                  #        FRESH START - A KEYBOARD REQUEST TO INITIALIZE THE SYSTEM.
000021:
000022: 04,6744           20017        SLAP1              INHINT                                         #  COMES HERE FROM THE PINBALL VERB FAN.
000023: 04,6745           35500                           CAF      ZERO                                  #   (ZERO FAILREG IN FRESH START ONLY).
000024: 04,6746           50756                           TS       FAILREG
000025:
000026: 04,6747           07077                           TC       STARTSUB                              #  SUBROUTINE DOES MOST OF THE WORK.
000027:
000028: 04,6750           45500        NOGO               CS       ZERO
000029: 04,6751           50655                           TS       PHASETAB
000030: 04,6752           50656                           TS       PHASETAB   +1
000031: 04,6753           50657                           TS       PHASETAB   +2
000032: 04,6754           50660                           TS       PHASETAB   +3
000033: 04,6755           50661                           TS       BACKPHAS
000034: 04,6756           50662                           TS       BACKPHAS   +1
000035: 04,6757           50663                           TS       BACKPHAS   +2
000036: 04,6760           50664                           TS       BACKPHAS   +3
000037: 04,6761           35500                           CAF      ZERO
000038: 04,6762           50665                           TS       PHASEBAR
000039: 04,6763           50666                           TS       PHASEBAR   +1
000040: 04,6764           50667                           TS       PHASEBAR   +2
000041: 04,6765           50670                           TS       PHASEBAR   +3
000042:
000043: 04,6766           51567                           TS       SMODE
000044:
000045: 04,6767           34500                           CAF      BIT15                                 #  TELL T4RUPT TO TURN OFF ALL C RELAYS.
000046: 04,6770           50743                           TS       DSPTAB     +11D
000047: 04,6771           50744                           TS       DSPTAB     +12D
000048: 04,6772           50745                           TS       DSPTAB     +13D
000049:
000050: 04,6773           07057                           TC       ENDFRESH
000051:
000052: 04,6774     4516               MAXPROG            EQUALS   ONE
000053:
000054:                                                                                                  #        WHENEVER A GO SEQUENCE (GOJAM) IS FIRED,  GOPROG  IS CALLED TO RESTART ANY COMPUTER ACTIVITY THAT
000055:                                                                                                  #  MAY HAVE BEEN GOING ON AT THE TIME. (A NUMBER OF ALARMS SUCH AS PARITY FAILURE OR POWER FAILURE CAUSE GOJAM).
000056:                                                                                                  #  THE FUNCTION OF GOPROG IS TO INITIALIZE THE COMPUTER SUB-SYSTEM (I.E., NO C RELAYS ARE CHANGED, ETC.) AND
000057:                                                                                                  #  RESTART ALL MAJOR ROUTINES WHOSE PHASE BITS INDICATE ACTIVITY.
000058:
000059: 04,6774           07077        GOPROG             TC       STARTSUB
000060:
000061: 04,6775           34473                           CAF      THREE                                 #  PHASE BITS ARE KEPT IN THREE COPIES,
000062: 04,6776           50114        PHASECHK           TS       MPAC                                  #  TWO DIRECT AND ONE COMPLEMENTED. THIS
000063: 04,6777           20000                           INDEX    A                                     #  SECTION MAKES SURE ALL ENTRIES IN EACH
000064: 04,7000           40655                           CS       PHASETAB                              #  SATISFIES THIS RULE AS AN INDICATION OF
000065: 04,7001           50076                           TS       BUF                                   #  THE GOODNESS OF ERASABLE MEMORY. IF THE
000066: 04,7002           20114                           INDEX    MPAC                                  #  TEST FAILS, DO A FRESH START WITH THE
000067: 04,7003           40661                           CS       BACKPHAS                              #  MODE LIGHTS SET TO 00 TO TELL THE STORY.
000068: 04,7004           50077                           TS       BUF        +1
000069: 04,7005           40000                           COM
000070: 04,7006           70076                           MASK     BUF
000071: 04,7007           07072                           TC       ZEROTEST                              #  P.(-P) AND (-P).(--P) SHOULD BOTH BE
000072: 04,7010           20114                           INDEX    MPAC                                  #  +0 FOR A LOGICAL MATCH.
000073: 04,7011           60665                           AD       PHASEBAR
000074: 04,7012           50100                           TS       BUF        +2
000075: 04,7013           40000                           COM
000076: 04,7014           70077                           MASK     BUF        +1
000077: 04,7015           07072                           TC       ZEROTEST
000078: 04,7016           40100                           CS       BUF        +2
000079: 04,7017           70076                           MASK     BUF
000080: 04,7020           07072                           TC       ZEROTEST
000081: 04,7021           40076                           CS       BUF
000082: 04,7022           70077                           MASK     BUF        +1
000083: 04,7023           07072                           TC       ZEROTEST
000084: 04,7024           40076                           CS       BUF
000085: 04,7025           70100                           MASK     BUF        +2
000086: 04,7026           07072                           TC       ZEROTEST
000087: 04,7027           40077                           CS       BUF        +1
000088: 04,7030           70100                           MASK     BUF        +2
000089: 04,7031           07072                           TC       ZEROTEST
000090:
000091: 04,7032           10114        ENDVOTE            CCS      MPAC
000092: 04,7033           06776                           TC       PHASECHK
000093:
000094: 04,7034           34516        GOJUMP             CAF      MAXPROG
000095: 04,7035           50115                           TS       MPAC       +1
000096:
000097: 04,7036           20016                           RELINT                                         #  OPEN THE INTERRUPT GATE SO THAT EACH
000098: 04,7037           20017                           INHINT                                         #  GO DISPATCH HAS 10 MS.
000099:
000100: 04,7040           50574                           TS       PHASDATA
000101: 04,7041           06502                           TC       REPHASE2
000102: 04,7042           06701                           TC       ONSKIP
000103: 04,7043           07052                           TC       GORETURN
000104: 04,7044           07064                           TC       DEMANDON
000105:
000106: 04,7045           30565                           XCH      PHASE
000107: 04,7046           50114                           TS       MPAC
000108: 04,7047           20566                           INDEX    PROG
000109: 04,7050           37257                           CAF      GOCADR
000110: 04,7051           02524                           TC       SWCALL
000111:
000112: 04,7052           10115        GORETURN           CCS      MPAC       +1
000113: 04,7053           07035                           TC       GOJUMP     +1
000114:
000115: 04,7054           32650                           CAF      ALARMPR                               #  FIRE UP JOB TO DISPLAY FAILREG
000116: 04,7055           02043                           TC       NOVAC
000117: 04,7056           02634                           CADR     DOALARM
000118:
000119: 04,7057           20016        ENDFRESH           RELINT
000120: 04,7060           02516                           TC       BANKCALL                              #  DISPLAY MAJOR MODES.
000121: 04,7061           42001                           CADR     DSPMM
000122:
000123: 04,7062           02563                           TC       POSTJUMP
000124: 04,7063           13337                           CADR     DUMMYJOB                              #  THIS REVERTS TO THE IDLING JOB.
000125:
000126: 04,7064           40566        DEMANDON           CS       PROG
000127: 04,7065           20000                           INDEX    A
000128: 04,7066           34516                           CAF      BIT1
000129: 04,7067           60622                           AD       MODREG
000130: 04,7070           50622                           TS       MODREG
000131: 04,7071           00001                           TC       Q
000132:
000133: 04,7072           10000        ZEROTEST           CCS      A
000134: 04,7073           06750                           TC       NOGO                                  #  RESTART FROM GO IMPOSSIBLE.
000135: 04,7074           00001                           TC       Q                                     #  OK SO FAR
000136: 04,7075           06750                           TC       NOGO
000137: 04,7076           06750                           TC       NOGO
000138:
000139:                                                                                                  #        INITIALIZATION SUBROUTINE, CONTAINING INITIALIZATION COMMON TO BOTH FRESH START (KEYBOARD REQUEST) AND
000140:                                                                                                  #  RESTART (IN RESPONSE TO A GO SEQUENCE).
000141:
000142: 04,7077           30001        STARTSUB           XCH      Q
000143: 04,7100           50076                           TS       BUF                                   #  EXEC TEMPS ARE AVAILABLE TO US.
000144:
000145: 04,7101           34476                           CAF      POSMAX                                #  T3 AND T4 OVERFLOW AS SOON AS POSSIBLE.
000146: 04,7102           50037                           TS       TIME3                                 #    (POSMAX IS PSEUDO INTERRUPT SIGNAL IN
000147: 04,7103           50040                           TS       TIME4                                 #    CASE RUPT SIGNALLED BEFORE TS TIME3),
000148:
000149: 04,7104           34517                           CAF      NEG1/2                                #  INITIALIZE WAITLIST DELTA-TS.
000150: 04,7105           50555                           TS       LST1       +4
000151: 04,7106           50554                           TS       LST1       +3
000152: 04,7107           50553                           TS       LST1       +2
000153: 04,7110           50552                           TS       LST1       +1
000154: 04,7111           50551                           TS       LST1
000155:
000156: 04,7112           42202                           CS       ENDTASK                               #  SET ALL TASKS TO DUMMY TASK.
000157: 04,7113           50563                           TS       LST2       +5
000158: 04,7114           50562                           TS       LST2       +4
000159: 04,7115           50561                           TS       LST2       +3
000160: 04,7116           50560                           TS       LST2       +2
000161: 04,7117           50557                           TS       LST2       +1
000162: 04,7120           50556                           TS       LST2
000163:
000164: 04,7121           45500                           CS       ZERO                                  #  MAKE ALL EXECUTIVE REGISTER SETS
000165: 04,7122           50133                           TS       PRIORITY   +8D                        #  AVAILABLE (EXCEPT THIS ONE).
000166: 04,7123           50143                           TS       PRIORITY   +16D
000167: 04,7124           50153                           TS       PRIORITY   +24D
000168: 04,7125           50163                           TS       PRIORITY   +32D
000169: 04,7126           50173                           TS       PRIORITY   +40D
000170: 04,7127           50203                           TS       PRIORITY   +48D
000171: 04,7130           50213                           TS       PRIORITY   +56D
000172:
000173: 04,7131           50703                           TS       DSRUPTSW                              #  -0 GIVES US 40 MS TO GET READY FOR T4.
000174: 04,7132           50704                           TS       CDUIND                                #  MAKE IMU AND OPTICS AVAILABLE.
000175: 04,7133           50723                           TS       OPTIND
000176:
000177:
000178: 04,7134           37263                           CAF      VAC1ADRC                              #  MAKE ALL VAC AREAS AVAILABLE.
000179: 04,7135           50214                           TS       VAC1USE
000180: 04,7136           67264                           AD       LTHVACA
000181: 04,7137           50270                           TS       VAC2USE
000182: 04,7140           67264                           AD       LTHVACA
000183: 04,7141           50344                           TS       VAC3USE
000184: 04,7142           67264                           AD       LTHVACA
000185: 04,7143           50420                           TS       VAC4USE
000186: 04,7144           67264                           AD       LTHVACA
000187: 04,7145           50474                           TS       VAC5USE
000188:
000189: 04,7146           34505                           CAF      BIT10                                 #  THIS REGISTER SET BECOMES DUMMY JOB.
000190: 04,7147           50123                           TS       PRIORITY
000191:
000192: 04,7150           34510                           CAF      BIT7
000193: 04,7151           50011                           TS       OUT1
000194:
000195: 04,7152           33000                           CAF      TEN                                   #  TURN OFF ALL DISPLAY SYSTEM RELAYS.
000196: 04,7153           50114        DSPOFF             TS       MPAC
000197: 04,7154           44503                           CS       BIT12
000198: 04,7155           20114                           INDEX    MPAC
000199: 04,7156           50730                           TS       DSPTAB
000200: 04,7157           10114                           CCS      MPAC
000201: 04,7160           07153                           TC       DSPOFF
000202:
000203: 04,7161           50726                           TS       DSPCNT                                #  SKIPS TO HERE WHEN FINISHED WITH C(A)=0.
000204: 04,7162           50550                           TS       NEWJOB
000205: 04,7163           50622                           TS       MODREG
000206: 04,7164           50640                           TS       CADRSTOR
000207: 04,7165           50624                           TS       REQRET
000208: 04,7166           50646                           TS       CLPASS
000209: 04,7167           50623                           TS       DSPLOCK
000210: 04,7170           50636                           TS       MONSAVE                               #  KILL MONITOR
000211: 04,7171           50637                           TS       MONSAVE1
000212: 04,7172           50641                           TS       GRABLOCK
000213: 04,7173           50612                           TS       VERBREG
000214: 04,7174           50613                           TS       NOUNREG
000215: 04,7175           50647                           TS       DSPLIST
000216: 04,7176           50650                           TS       DSPLIST    +1
000217: 04,7177           50651                           TS       DSPLIST    +2
000218: 04,7200           50652                           TS       STATE
000219: 04,7201           50653                           TS       STATE      +1
000220: 04,7202           50654                           TS       STATE      +2
000221: 04,7203           50673                           TS       PWTCADR
000222: 04,7204           50674                           TS       PWTCADR    +1
000223: 04,7205           50751                           TS       DESKSET                               #  NO COMPUTER COMMAND.
000224: 04,7206           50752                           TS       DESOPSET                              #  (SAME AS IMU).
000225: 04,7207           50753                           TS       IMUCADR                               #  INITIALIZE MODE-SWITCHING.
000226: 04,7210           50754                           TS       OPTCADR
000227: 04,7211           50746                           TS       OLDERR
000228: 04,7212           50676                           TS       DISPBUF
000229: 04,7213           50700                           TS       IDPLACER
000230: 04,7214           50701                           TS       TMINDEX
000231: 04,7215           50702                           TS       TMKEYBUF
000232: 04,7216           50755                           TS       MARKSTAT                              #  MAKE MARK SYSTEM AVAILABLE.
000233: 04,7217           50643                           TS       IN0WORD
000234: 04,7220           50011                           TS       OUT1
000235:
000236: 04,7221           32765                           CAF      LOW5
000237: 04,7222           50671                           TS       PWTPROG
000238: 04,7223           50672                           TS       PWTPROG    +1
000239:
000240: 04,7224           30007                           XCH      IN3
000241: 04,7225           30007                           XCH      IN3
000242: 04,7226           50747                           TS       WASKSET
000243: 04,7227           74717                           MASK     LOW7
000244: 04,7230           30747                           XCH      WASKSET
000245: 04,7231           77254                           MASK     OPTMODES
000246: 04,7232           50750                           TS       WASOPSET
000247:
000248: 04,7233           02507                           TC       READIN0
000249: 04,7234           10000                           CCS      A
000250: 04,7235           07243                           TC       NOACPT
000251: 04,7236           07243                           TC       NOACPT
000252: 04,7237           07240                           TC       +1
000253: 04,7240           44503                           CS       BIT12
000254: 04,7241           70750                           MASK     WASOPSET
000255: 04,7242           50750                           TS       WASOPSET
000256:
000257: 04,7243           34475        NOACPT             CAF      SIX                                   #  (MAY NOT GET ANY ENDPULSES BEFORE T4).
000258: 04,7244           50675                           TS       TELCOUNT
000259:
000260: 04,7245           37255                           CAF      NOMADR
000261: 04,7246           50677                           TS       DNLSTADR
000262:
000263: 04,7247           37256                           CAF      NOUTCON
000264: 04,7250           50727                           TS       NOUT
000265:
000266: 04,7251           42775                           CS       VD1
000267: 04,7252           50625                           TS       DSPCOUNT
000268: 04,7253           00076                           TC       BUF                                   #  DONE.
000269:
000270:
000271: 04,7254           35000        OPTMODES           OCT      35000
000272: 04,7255           02367        NOMADR             ADRES    DNLST1
000273: 04,7256           00013        NOUTCON            DEC      11         B-14
000274:
000275: 04,7257           46726        GOCADR             CADR     PRELGO
000276: 04,7260           44255                           CADR     FFGO
000277: 04,7261           11261                           CADR     11261
000278: 04,7262           11262                           CADR     11262
000279:
000280: 04,7263           00214        VAC1ADRC           ADRES    VAC1USE
000281: 04,7264           00054        LTHVACA            DEC      44         B-14

End of include-file FRESH_START_AND_RESTART.agc.  Parent file is MAIN.agc


