
Source Code


000002:                                                                                                  ## Copyright:   Public domain.
000003:                                                                                                  ## Filename:    INTERRUPT_TRANSFER_ROUTINES.agc
000004:                                                                                                  ## Purpose:     A section of Sunrise 45.
000005:                                                                                                  ##              It is part of the reconstructed source code for the penultimate
000006:                                                                                                  ##              release of the Block I Command Module system test software. No
000007:                                                                                                  ##              original listings of this program are available; instead, this
000008:                                                                                                  ##              file was created via disassembly of dumps of Sunrise core rope
000009:                                                                                                  ##              memory modules and comparison with the later Block I program
000010:                                                                                                  ##              Solarium 55.
000011:                                                                                                  ## Assembler:   yaYUL --block1
000012:                                                                                                  ## Contact:     Ron Burkey <info@sandroid.org>.
000013:                                                                                                  ## Website:     www.ibiblio.org/apollo/index.html
000014:                                                                                                  ## Mod history: 2022-12-09 MAS  Initial reconstructed source.
000015:
000016:    2000                                           SETLOC   2000
000017:
000018:    2000           50026                           TS       ARUPT
000019:    2001           30001                           XCH      Q
000020:    2002           30027                           XCH      QRUPT
000021:    2003           02131                           TC       T3RUPT
000022:
000023:    2004           50026                           TS       ARUPT
000024:    2005           30001                           XCH      Q
000025:    2006           30027                           XCH      QRUPT
000026:    2007           02034                           TC       ERRUPT
000027:
000028:    2010           50026                           TS       ARUPT
000029:    2011           30001                           XCH      Q
000030:    2012           30027                           XCH      QRUPT
000031:    2013           02427                           TC       T4RUPT                                #  OUTPUT CONTROL.
000032:
000033:    2014           50026                           TS       ARUPT
000034:    2015           30001                           XCH      Q
000035:    2016           30027                           XCH      QRUPT
000036:    2017           02467                           TC       KEYRUPT
000037:
000038:    2020           50026                           TS       ARUPT
000039:    2021           30001                           XCH      Q
000040:    2022           30027                           XCH      QRUPT
000041:    2023           03200                           TC       UPRUPT
000042:
000043:    2024           50026                           TS       ARUPT
000044:    2025           30001                           XCH      Q
000045:    2026           30027                           XCH      QRUPT
000046:    2027           02301                           TC       DOWNRUPT                              #  DOWNLINK.
000047:
000048:    2030           20017                           INHINT                                         #  GOJAM - PARITY ALARM, POWER FAIL, ETC.
000049:    2031           32066                           CAF      PHASBANK
000050:    2032           50015                           TS       BANKREG
000051:    2033           06774                           TC       GOPROG
000052:
000053:    2034           02605        ERRUPT             TC       ALARM                                 #  ***NO ERRUPTS IN SYSTEM 5***
000054:    2035           01101                           OCT      01101
000055:    2036           02213                           TC       NBRESUME

End of include-file INTERRUPT_TRANSFER_ROUTINES.agc.  Parent file is MAIN.agc


