
Source Code


000002:                                                                                                  ## Copyright:   Public domain.
000003:                                                                                                  ## Filename:    KEYRUPT_UPRUPT_FRESH_START.agc
000004:                                                                                                  ## Purpose:     A section of Sunrise 45.
000005:                                                                                                  ##              It is part of the reconstructed source code for the penultimate
000006:                                                                                                  ##              release of the Block I Command Module system test software. No
000007:                                                                                                  ##              original listings of this program are available; instead, this
000008:                                                                                                  ##              file was created via disassembly of dumps of Sunrise core rope
000009:                                                                                                  ##              memory modules and comparison with the later Block I program
000010:                                                                                                  ##              Solarium 55.
000011:                                                                                                  ## Assembler:   yaYUL --block1
000012:                                                                                                  ## Contact:     Ron Burkey <info@sandroid.org>.
000013:                                                                                                  ## Website:     www.ibiblio.org/apollo/index.html
000014:                                                                                                  ## Mod history: 2022-12-09 MAS  Initial reconstructed source.
000015:
000016:
000017: 04,7265                                           BANK     4
000018: 04,7265           72765        KEYRUPT1           MASK     LOW5                                  #  C(IN0) IN A
000019: 04,7266           64504                           AD       BIT11
000020: 04,7267           50702                           TS       TMKEYBUF
000021: 04,7270           32774                           CAF      PRIO30
000022: 04,7271           02043                           TC       NOVAC
000023: 04,7272           50010                           CADR     CHARIN
000024: 04,7273           32765                           CAF      LOW5
000025: 04,7274           70702                           MASK     TMKEYBUF
000026: 04,7275           20574                           INDEX    LOCCTR
000027: 04,7276           50114                           TS       MPAC                                  #  LEAVE 5 BIT KEY CDE IN MPAC FOR CHARIN
000028: 04,7277           02211                           TC       RESUME
000029:
000030:
000031: 04,7300           35500        UPRUPTB            CAF      ZERO
000032: 04,7301           30041                           XCH      UPLINK                                #  ZERO UPLINK
000033: 04,7302           50573                           TS       KEYTEMP1
000034: 04,7303           10737                           CCS      DSPTAB     +7                         #  TURN ON UPACT LIGHT
000035: 04,7304           07306                           TC       +2                                    #  UPACT = BIT 11 OF DSPTAB +7
000036: 04,7305           37370                           CAF      B12-1                                 #  SAFETY PLAY
000037: 04,7306           64516                           AD       ONE
000038: 04,7307           50564                           TS       KEYTEMP2                              #  MAG OF DSPTAB +7 INTO KEYTEMP2
000039: 04,7310           74504                           MASK     BIT11
000040: 04,7311           10000                           CCS      A
000041: 04,7312           07322                           TC       UPRPT1                                #  BIT 11 ALREADY ONE
000042: 04,7313           30564                           XCH      KEYTEMP2                              #  BIT 11 = 0
000043: 04,7314           64504                           AD       BIT11
000044: 04,7315           40000                           CS       A                                     #  STORE NEGATIVELY
000045: 04,7316           30737                           XCH      DSPTAB     +7
000046: 04,7317           10000                           CCS      A
000047: 04,7320           07371                           TC       INCNOUTU                              #  PREVIOUS CONTENTS WAS +
000048: 04,7321           30000                           NOOP                                           #  SAFETY PLAY
000049: 04,7322           32765        UPRPT1             CAF      LOW5                                  #  TEST FOR TRIPLE CHAR REDUNDANCY
000050: 04,7323           70573                           MASK     KEYTEMP1                              #  LOW5 OF WORD
000051: 04,7324           30573                           XCH      KEYTEMP1                              #  LOW5 INTO KEYTEMP1
000052: 04,7325           30021                           XCH      SR                                    #  WHOLE WORD INTO SR
000053: 04,7326           50564                           TS       KEYTEMP2                              #  ORIGINAL SR INTO KEYTEMP2
000054: 04,7327           07352                           TC       SRGHT5
000055: 04,7330           72765                           MASK     LOW5                                  #  MID 5
000056: 04,7331           67367                           AD       HI10
000057: 04,7332           07361                           TC       UPTEST
000058: 04,7333           07352                           TC       SRGHT5
000059: 04,7334           72765                           MASK     LOW5                                  #  HIGH 5
000060: 04,7335           40000                           COM
000061: 04,7336           07361                           TC       UPTEST
000062: 04,7337           07346        UPOK               TC       RESTORSR                              #  CODE IS GOOD
000063: 04,7340           30573                           XCH      KEYTEMP1
000064: 04,7341           64511                           AD       BIT6
000065: 04,7342           07266                           TC       KEYRUPT1   +1
000066:
000067: 04,7343           07346        TMFAIL2            TC       RESTORSR                              #  CODE IS BAD
000068: 04,7344           02361                           TC       TMFAIL
000069: 04,7345           02211                           TC       RESUME
000070:
000071: 04,7346           30564        RESTORSR           XCH      KEYTEMP2
000072: 04,7347           60000                           DOUBLE
000073: 04,7350           50021                           TS       SR
000074: 04,7351           00001                           TC       Q
000075:
000076: 04,7352           40021        SRGHT5             CS       SR
000077: 04,7353           40021                           CS       SR
000078: 04,7354           40021                           CS       SR
000079: 04,7355           40021                           CS       SR
000080: 04,7356           40021                           CS       SR
000081: 04,7357           40000                           CS       A
000082: 04,7360           00001                           TC       Q                                     #  DELIVERS WORD UNCOMPLEMENTED
000083:
000084: 04,7361           60573        UPTEST             AD       KEYTEMP1
000085: 04,7362           10000                           CCS      A
000086: 04,7363           07343                           TC       TMFAIL2
000087: 04,7365                                           LOC      +1
000088: 04,7365           07343                           TC       TMFAIL2
000089: 04,7366           00001                           TC       Q
000090:
000091: 04,7367           77740        HI10               OCT      77740
000092: 04,7370     2066               UPBANK             EQUALS   EXECBANK                              #  IN SAME BANK AS EXEC.
000093:
000094: 04,7370           03777        B12-1              OCT      3777
000095:
000096: 04,7371           30727        INCNOUTU           XCH      NOUT
000097: 04,7372           64516                           AD       ONE
000098: 04,7373           50727                           TS       NOUT
000099: 04,7374           20001                           INDEX    Q
000100: 04,7375           00001        UPLAST             TC       1
000101:
000102:                                                                                                  #  UPACT IS TURNED OFF BY VBRELDSP, ALSO BY ERROR LIGHT RESET.
000103:
000104:
000105:                                                                                                  #  THE RECEPTION OF A BAD CODE BY UPLINK LOCKS OUT FURTHER UPLINK ACTIVITY
000106:                                                                                                  #  BY PLACING A 1 INTO UPLOCK (BIT2 OF STATE). BIT9 (AND BIT11) OF TMKEYBUF
000107:                                                                                                  #  IS SET TO 1 TO SEND AN INDICATION OF THIS SITUATION DOWN THE DOWNLINK.
000108:                                                                                                  #  THE UPLINK INTERLOCK IS ALLOWED WHEN AN ERROR LIGHT RESET CODE IS SENT
000109:                                                                                                  #  UP THE UPLINK, OR WHEN A FRESH START IS PERFORMED.
000110:
000111:
000112:    3200                                           SETLOC   3200
000113:
000114:    3200           32066        UPRUPT             CAF      UPBANK
000115:    3201           30015                           XCH      BANKREG
000116:    3202           50575                           TS       BANKRUPT
000117:    3203           07300                           TC       UPRUPTB

End of include-file KEYRUPT_UPRUPT_FRESH_START.agc.  Parent file is MAIN.agc


