
Source Code


000002:                                                                                                  ## Copyright:   Public domain.
000003:                                                                                                  ## Filename:    MASTER_CONTROL.agc
000004:                                                                                                  ## Purpose:     A section of Sunrise 45.
000005:                                                                                                  ##              It is part of the reconstructed source code for the penultimate
000006:                                                                                                  ##              release of the Block I Command Module system test software. No
000007:                                                                                                  ##              original listings of this program are available; instead, this
000008:                                                                                                  ##              file was created via disassembly of dumps of Sunrise core rope
000009:                                                                                                  ##              memory modules and comparison with the later Block I program
000010:                                                                                                  ##              Solarium 55.
000011:                                                                                                  ## Assembler:   yaYUL --block1
000012:                                                                                                  ## Contact:     Ron Burkey <info@sandroid.org>.
000013:                                                                                                  ## Website:     www.ibiblio.org/apollo/index.html
000014:                                                                                                  ## Mod history: 2022-12-09 MAS  Initial reconstructed source.
000015:
000016:                                                                                                  ## This log section is not present in any currently-known surviving program listings, so
000017:                                                                                                  ## it has been written from scratch to match the module disassembly. Label names were
000018:                                                                                                  ## taken from AGC Information Series Issue 16: Progress Control and Fresh Start, and
000019:                                                                                                  ## should be mostly correct. The name of the section itself could have originally been
000020:                                                                                                  ## PROGRESS CONTROL; the original sources are evenly split between calling it PROGRESS
000021:                                                                                                  ## CONTROL and MASTER CONTROL, and it is unclear which was actually in the listing.
000022:
000023:    2217                                           BANK     1
000024:
000025:    2217           30001        GETPHASE           XCH      Q
000026:    2220           50034                           TS       OVCTR
000027:    2221           02256                           TC       PHASCOM2
000028:    2222           50571                           TS       EXECTEM5
000029:
000030:    2223           06502                           TC       REPHASE2
000031:
000032:    2224           06701                           TC       ONSKIP
000033:    2225           02230                           TC       +3
000034:    2226           10565                           CCS      PHASE
000035:    2227           34516                           CAF      ONE
000036:    2230           60571                           AD       EXECTEM5
000037:    2231           50015                           TS       BANKREG
000038:    2232           74605                           MASK     LOW10
000039:    2233           50001                           TS       Q
000040:
000041:    2234           30565                           XCH      PHASE
000042:    2235           20016                           RELINT
000043:
000044:    2236           20001                           INDEX    Q
000045:    2237           06000                           TC       6000
000046:
000047: 04,6502                                           BANK     4
000048:
000049: 04,6502           30001        REPHASE2           XCH      Q
000050: 04,6503           50573                           TS       ITEMP2
000051:
000052: 04,6504           32765        PHASESUB           CAF      LOW5
000053: 04,6505           70574                           MASK     PHASDATA
000054: 04,6506           50566                           TS       PROG
000055:
000056: 04,6507           25777                           EXTEND
000057: 04,6510           46625                           MP       OCT12540
000058: 04,6511           50572                           TS       PHASEWD
000059: 04,6512           60000                           DOUBLE
000060: 04,6513           60572                           AD       PHASEWD
000061: 04,6514           40000                           COM
000062: 04,6515           60566                           AD       PROG
000063: 04,6516           50567                           TS       PHASEDIG
000064:
000065: 04,6517           20000                           INDEX    A
000066: 04,6520           36540                           CAF      PHASMASK
000067: 04,6521           20572                           INDEX    PHASEWD
000068: 04,6522           70655                           MASK     PHASETAB
000069: 04,6523           50565                           TS       PHASE
000070:
000071: 04,6524           20567                           INDEX    PHASEDIG
000072: 04,6525           06526                           TC       +1
000073: 04,6526           00573                           TC       ITEMP2
000074: 04,6527           06532                           TC       +3
000075: 04,6530           34512                           CAF      BIT5
000076: 04,6531           06533                           TC       +2
000077: 04,6532           34505                           CAF      BIT10
000078: 04,6533           25777                           EXTEND
000079: 04,6534           40565                           MP       PHASE
000080: 04,6535           72765                           MASK     LOW5
000081: 04,6536           50565                           TS       PHASE
000082:
000083: 04,6537           00573                           TC       ITEMP2
000084:
000085: 04,6540           00037        PHASMASK           OCT      00037
000086: 04,6541           01740                           OCT      01740
000087: 04,6542           76000                           OCT      76000
000088:
000089:    2240                                           BANK     1
000090:
000091:    2240           30001        PHASCHNG           XCH      Q
000092:    2241           02251                           TC       PHASECOM
000093:    2242           06543                           TC       PHASCH3
000094:
000095: 04,6543                                           BANK     4
000096:
000097: 04,6543           10565        PHASCH3            CCS      PHASE
000098: 04,6544           06713                           TC       INCET4
000099:
000100: 04,6545           34506        PHASCH4            CAF      BIT9
000101: 04,6546           25777                           EXTEND
000102: 04,6547           40574                           MP       PHASDATA
000103:
000104: 04,6550           06651                           TC       SETPHASE
000105:
000106: 04,6551           40565                           CS       PHASE
000107: 04,6552           40000                           COM
000108: 04,6553           50114                           TS       MPAC
000109:
000110: 04,6554           06701                           TC       ONSKIP
000111: 04,6555           06557                           TC       +2
000112: 04,6556           02275                           TC       PHASREL
000113:
000114: 04,6557           07064                           TC       DEMANDON
000115: 04,6560           20566                           INDEX    PROG
000116: 04,6561           36717                           CAF      PROGCADR
000117: 04,6562           02524                           TC       SWCALL
000118:
000119: 04,6563           20016        STARTRET           RELINT
000120: 04,6564           02516                           TC       BANKCALL
000121: 04,6565           42001                           CADR     DSPMM
000122: 04,6566           02276                           TC       PHASEOUT
000123:
000124:    2243                                           BANK     1
000125:
000126:    2243           30001        PHASWAIT           XCH      Q
000127:    2244           02251                           TC       PHASECOM
000128:    2245           06567                           TC       PHASWT3
000129:
000130: 04,6567                                           BANK     4
000131:
000132: 04,6567           06701        PHASWT3            TC       ONSKIP
000133: 04,6570           02272                           TC       PHASOUT2
000134:
000135: 04,6571           35500                           CAF      ZERO
000136: 04,6572           06651                           TC       SETPHASE
000137:
000138: 04,6573           34516                           CAF      ONE
000139: 04,6574           50034        PHASWT5            TS       OVCTR
000140: 04,6575           20000                           INDEX    A
000141: 04,6576           10673                           CCS      PWTCADR
000142: 04,6577           06601                           TC       +2
000143: 04,6600           06605                           TC       PHASWT4
000144:
000145: 04,6601           10034                           CCS      OVCTR
000146: 04,6602           06574                           TC       PHASWT5
000147:
000148: 04,6603           02652                           TC       ABORT
000149: 04,6604           01205                           OCT      01205
000150:
000151: 04,6605           30566        PHASWT4            XCH      PROG
000152: 04,6606           20034                           INDEX    OVCTR
000153: 04,6607           50671                           TS       PWTPROG
000154:
000155: 04,6610           30115                           XCH      MPAC       +1
000156: 04,6611           20034                           INDEX    OVCTR
000157: 04,6612           50673                           TS       PWTCADR
000158: 04,6613           02120                           TC       JOBSLEEP
000159:
000160:    2246                                           BANK     1
000161:
000162:    2246           30001        MAJEXIT            XCH      Q
000163:    2247           02251                           TC       PHASECOM
000164:    2250           06614                           TC       MAJEX3
000165:
000166: 04,6614                                           BANK     4
000167:
000168: 04,6614           32765        MAJEX3             CAF      LOW5
000169: 04,6615           06651                           TC       SETPHASE
000170:
000171: 04,6616           34516                           CAF      ONE
000172: 04,6617           50034        MAJEX4             TS       OVCTR
000173: 04,6620           40566                           CS       PROG
000174: 04,6621           20034                           INDEX    OVCTR
000175: 04,6622           60671                           AD       PWTPROG
000176:
000177: 04,6623           10000                           CCS      A
000178: 04,6624           06636                           TC       MAJEX5
000179: 04,6625           12540        OCT12540           OCT      12540
000180: 04,6626           06636                           TC       MAJEX5
000181:
000182: 04,6627           20034                           INDEX    OVCTR
000183: 04,6630           30673                           XCH      PWTCADR
000184: 04,6631           02051                           TC       JOBWAKE
000185:
000186: 04,6632           32765                           CAF      LOW5
000187: 04,6633           20034                           INDEX    OVCTR
000188: 04,6634           50671                           TS       PWTPROG
000189:
000190: 04,6635           06640                           TC       DEMOFF
000191:
000192: 04,6636           10034        MAJEX5             CCS      OVCTR
000193: 04,6637           06617                           TC       MAJEX4
000194:
000195: 04,6640           40566        DEMOFF             CS       PROG
000196: 04,6641           20000                           INDEX    A
000197: 04,6642           44516                           CS       BIT1
000198: 04,6643           70622                           MASK     MODREG
000199: 04,6644           50622                           TS       MODREG
000200:
000201: 04,6645           20016                           RELINT
000202: 04,6646           02516                           TC       BANKCALL
000203: 04,6647           42001                           CADR     DSPMM
000204:
000205: 04,6650           02115        DOEJ               TC       ENDOFJOB
000206:
000207: 04,6651           50034        SETPHASE           TS       OVCTR
000208: 04,6652           20567                           INDEX    PHASEDIG
000209: 04,6653           36710                           CAF      PHASESHL
000210:
000211: 04,6654           25777                           EXTEND
000212: 04,6655           40034                           MP       OVCTR
000213: 04,6656           50034                           TS       OVCTR
000214:
000215: 04,6657           20567                           INDEX    PHASEDIG
000216: 04,6660           46540                           CS       PHASMASK
000217: 04,6661           20572                           INDEX    PHASEWD
000218: 04,6662           70655                           MASK     PHASETAB
000219: 04,6663           60003                           AD       LP
000220: 04,6664           20034                           INDEX    OVCTR
000221: 04,6665           66704                           AD       B15FIX
000222: 04,6666           20572                           INDEX    PHASEWD
000223: 04,6667           50655                           TS       PHASETAB
000224: 04,6670           20572                           INDEX    PHASEWD
000225: 04,6671           50661                           TS       BACKPHAS
000226: 04,6672           40000                           COM
000227: 04,6673           20572                           INDEX    PHASEWD
000228: 04,6674           50665                           TS       PHASEBAR
000229:
000230: 04,6675           34516                           CAF      ONE
000231: 04,6676           25777                           EXTEND
000232: 04,6677           40570                           MP       PHASELP
000233:
000234: 04,6700           00001                           TC       Q
000235:
000236: 04,6701           42765        ONSKIP             CS       LOW5
000237: 04,6702           60565                           AD       PHASE
000238: 04,6703           10000                           CCS      A
000239: 04,6704           00000        B15FIX             OCT      00000
000240: 04,6705           40000                           OCT      40000
000241: 04,6706           20001                           INDEX    Q
000242: 04,6707           00001                           TC       Q
000243:
000244: 04,6710           00001        PHASESHL           OCT      00001
000245: 04,6711           00040                           OCT      00040
000246: 04,6712           02000                           OCT      02000
000247:
000248: 04,6713           34516        INCET4             CAF      ONE
000249: 04,6714           60115                           AD       MPAC       +1
000250: 04,6715           50115                           TS       MPAC       +1
000251: 04,6716           00001                           TC       Q
000252:
000253: 04,6717           46656        PROGCADR           CADR     STARTPL
000254: 04,6720           44241                           CADR     STARTFF
000255: 04,6721           10721                           CADR     10721
000256: 04,6722           10722                           CADR     10722
000257: 04,6723           10723                           CADR     10723
000258:
000259: 04,6724           50021        MODROUT            TS       SR
000260: 04,6725           25777                           EXTEND
000261: 04,6726           44510                           MP       BIT7
000262: 04,6727           40021                           CS       SR
000263: 04,6730           40021                           CS       SR
000264: 04,6731           36742                           CAF      OCT700
000265: 04,6732           70003                           MASK     LP
000266: 04,6733           60021                           AD       SR
000267: 04,6734           20017                           INHINT
000268: 04,6735           50574                           TS       PHASDATA
000269:
000270: 04,6736           36743                           CAF      TCEND-1
000271: 04,6737           50115                           TS       MPAC       +1
000272: 04,6740           06502                           TC       REPHASE2
000273: 04,6741           06545                           TC       PHASCH4
000274:
000275: 04,6742           00700        OCT700             OCT      700
000276: 04,6743           10650        TCEND-1            CADR     DOEJ
000277:
000278:    2251                                           BANK     1
000279:
000280:    2251           50034        PHASECOM           TS       OVCTR
000281:    2252           30001                           XCH      Q
000282:    2253           02256                           TC       PHASCOM2
000283:    2254           50115                           TS       MPAC       +1
000284:    2255           06504                           TC       PHASESUB
000285:
000286:    2256           20017        PHASCOM2           INHINT
000287:    2257           50573                           TS       ITEMP2
000288:
000289:    2260           20034                           INDEX    OVCTR
000290:    2261           30000                           CAF      00000
000291:    2262           50574                           TS       PHASDATA
000292:
000293:    2263           30003                           XCH      LP
000294:    2264           50570                           TS       PHASELP
000295:
000296:    2265           32066                           CAF      PHASBANK
000297:    2266           30015                           XCH      BANKREG
000298:    2267           60034                           AD       OVCTR
000299:    2270           62300                           AD       72K
000300:
000301:    2271           00001                           TC       Q
000302:
000303:    2272     2066               PHASBANK           EQUALS   EXECBANK
000304:
000305:    2272           34516        PHASOUT2           CAF      ONE
000306:    2273           25777                           EXTEND
000307:    2274           40570                           MP       PHASELP
000308:    2275           20016        PHASREL            RELINT
000309:    2276           30115        PHASEOUT           XCH      MPAC       +1
000310:    2277           02566                           TC       BANKJUMP
000311:
000312:    2300           72000        72K                OCT      72000

End of include-file MASTER_CONTROL.agc.  Parent file is MAIN.agc


