
Source Code


000002:                                                                                                  ## Copyright:   Public domain.
000003:                                                                                                  ## Filename:    PRELAUNCH_ALIGNMENT_PROGRAM.agc
000004:                                                                                                  ## Purpose:     A section of Sunrise 45.
000005:                                                                                                  ##              It is part of the reconstructed source code for the penultimate
000006:                                                                                                  ##              release of the Block I Command Module system test software. No
000007:                                                                                                  ##              original listings of this program are available; instead, this
000008:                                                                                                  ##              file was created via disassembly of dumps of Sunrise core rope
000009:                                                                                                  ##              memory modules and comparison with the later Block I program
000010:                                                                                                  ##              Solarium 55.
000011:                                                                                                  ## Assembler:   yaYUL --block1
000012:                                                                                                  ## Contact:     Ron Burkey <info@sandroid.org>.
000013:                                                                                                  ## Website:     www.ibiblio.org/apollo/index.html
000014:                                                                                                  ## Mod history: 2022-12-09 MAS  Initial reconstructed source.
000015:
000016:                                                                                                  ## Names in this section are largely taken from AGC Information Series Issue 22,
000017:                                                                                                  ## Prelaunch Alignment.
000018:
000019:                                                                                                  #  THE PRELAUNCH ALIGNMENT PROGRAM CONSISTS OF TWO PARTS- VERTICAL ERECTION AND GYROCOMPASSING. IN THE FIRST CASE
000020:                                                                                                  #  THE Z PIPA INPUTS ARE USED TO CONTROL THE Y GYRO IN SUCH A WAY THAT THESE INPUTS ARE NULLED. A SIMILAR SIT-
000021:                                                                                                  #  UATION APPLIES TO THE Y PIPA INPUTS AND THE Z GYRO.IN THE GYROCOMPASSING CASE, THE Y PIPA INPUTS ARE USED IN
000022:                                                                                                  #  EXACTLY THE SAME FASHION AS IN VERTICAL ERECTION. THE Z PIPA INPUTS ARE SPLIT BETWEEN THE Y GYRO TO HOLD THE
000023:                                                                                                  #  VERTICAL AND THE X GYRO TO POINT THE Z AXIS ALONG SOME DESIRED AZIMUTH.
000024:
000025:
000026:
000027:                                                                                                  #  WHILE PRELAUNCH IS ACTIVE IT STAYS IN THE EXECUTIVE AND USES THE SLEEP/WAKE FEATURES. BY THIS MEANS MOST
000028:                                                                                                  #  ERASABLE USAGE IS CONFINED TO A VAC AREA. THE ASSIGNMENT IS AS FOLLOWS-
000029:
000030: 23,6110                        SINAZ              =        2                                     #  SIN OF AZIMUTH
000031: 23,6110                        COSAZ              =        4                                     #  COSINE OF AZIMUTH
000032: 23,6110                        FILTER             =        6
000033: 23,6110                        DELZ               =        8D
000034: 23,6110                        DELY               =        10D
000035: 23,6110                        DELE               =        12D
000036: 23,6110  0000014               FILDELZ            =        DELE
000037: 23,6110                        DELS               =        14D
000038: 23,6110  0000016               FILDELY            =        DELS
000039: 23,6110                        INT                =        16D
000040: 23,6110                        PREVTIME           =        20D
000041: 23,6110                        THETAY             =        24D
000042: 23,6110                        THETAZ             =        26D
000043: 23,6110                        THETAX             =        28D
000044: 23,6110                        THETASTH           =        30D
000045: 23,6110                        THETAE             =        32D
000046: 23,6110                        SINLAM             =        34D                                   #  SIN OF LATITUDE
000047: 23,6110                        COSLAM             =        36D                                   #  COSINE OF LATITUDE
000048:
000049: 23,6110                                           BANK     23
000050:
000051: 23,6110           34502        TOP1               CAF      QUARTER
000052: 23,6111           50765                           TS       AZIMUTH
000053:
000054: 23,6112           35500                           CAF      ZERO
000055: 23,6113           50766                           TS       AZIMUTH    +1
000056: 23,6114           50706                           TS       PRELYGA
000057: 23,6115           50707                           TS       PRELZGA
000058: 23,6116           50705                           TS       PRELXGA
000059: 23,6117           50760                           TS       DRIFTY
000060: 23,6120           50761                           TS       DRIFTZ
000061: 23,6121           50762                           TS       DRIFTX
000062:
000063: 23,6122           37006                           CAF      LABLAT
000064: 23,6123           50763                           TS       LATITUDE
000065: 23,6124           37007                           CAF      LABLAT     +1
000066: 23,6125           50764                           TS       LATITUDE   +1
000067:
000068:                                                                                                  #  ENTER AT TOP2 IF GIMBAL ANGLES, AZIMUTH, LATITUDE ALREADY KEYED IN
000069:
000070:
000071:
000072: 23,6126           02516        TOP2               TC       BANKCALL                              #  GO AND START CDU ZEROING
000073: 23,6127           21054                           CADR     IMUZERO
000074:
000075: 23,6130           37016                           CAF      SIXHNDRD                              #  INITIALIZE FOR 5 MIN VERTICAL
000076: 23,6131           50757                           TS       GYROCSW
000077:
000078: 23,6132           37012                           CAF      PRELKG
000079: 23,6133           50713                           TS       KG
000080:
000081: 23,6134           35500                           CAF      ZERO                                  #  INITIALIZE ERASABLE MEMORY TO ZEROS
000082: 23,6135           50715                           TS       GYROD
000083: 23,6136           50717                           TS       GYROD      +2
000084: 23,6137           50721                           TS       GYROD      +4
000085: 23,6140           50714                           TS       KH
000086:
000087:
000088: 23,6141           02516                           TC       BANKCALL                              #  INITIALIZATION COMPLETE SO STALL
000089: 23,6142           21412                           CADR     IMUSTALL
000090: 23,6143           06760                           TC       PRELEXIT
000091:
000092: 23,6144           02240                           TC       PHASCHNG                              #  GO INTO COARSE ALIGN PHASE.
000093: 23,6145           01100                           OCT      01100
000094: 23,6146           06760                           TC       PRELEXIT
000095: 23,6147           06662                           TC       PLSTCHK
000096:
000097:
000098: 23,6150           02516        REPL11             TC       BANKCALL
000099: 23,6151           21113                           CADR     IMUCOARS
000100:
000101: 23,6152           02516                           TC       BANKCALL                              #  NOTHING TO DO BUT SPEEP
000102: 23,6153           21412                           CADR     IMUSTALL
000103: 23,6154           06760                           TC       PRELEXIT
000104:
000105:
000106:
000107: 23,6155           02240        STARTPL2           TC       PHASCHNG                              #  START FINE ALIGN - INITIALIZATION PHASE.
000108: 23,6156           01200                           OCT      01200
000109: 23,6157           06760                           TC       PRELEXIT
000110: 23,6160           06662                           TC       PLSTCHK
000111:
000112: 23,6161           02516        REPL12             TC       BANKCALL
000113: 23,6162           21165                           CADR     IMUFINE
000114:
000115: 23,6163           02516                           TC       BANKCALL                              #  SLEEP
000116: 23,6164           21412                           CADR     IMUSTALL
000117: 23,6165           06760                           TC       PRELEXIT
000118:
000119: 23,6166           02240                           TC       PHASCHNG
000120: 23,6167           01300                           OCT      01300
000121: 23,6170           06760                           TC       PRELEXIT
000122: 23,6171           06662                           TC       PLSTCHK
000123:
000124: 23,6172           04000        PLREFINE           TC       INTPRET
000125: 23,6173           76575                           RTB      1
000126: 23,6174           57176                           SIN
000127: 23,6175           07040                                    ZEROVAC
000128: 23,6176           00764                                    LATITUDE
000129: 23,6177           32043                           STORE    SINLAM
000130:
000131: 23,6200           55176                           COS      0
000132: 23,6201           00764                                    LATITUDE
000133: 23,6202           32045                           STORE    COSLAM
000134:
000135: 23,6203           43175                           SMOVE    1
000136: 23,6204           66776                           DSU
000137: 23,6205           07011                                    90DEGAZ
000138: 23,6206           00766                                    AZIMUTH
000139:
000140: 23,6207           57176                           SIN      0
000141: 23,6210           00001                                    0
000142: 23,6211           32003                           STORE    SINAZ
000143:
000144: 23,6212           55176                           COS      0
000145: 23,6213           32005                           STORE    COSAZ
000146:
000147: 23,6214           76576                           RTB      0
000148: 23,6215           07022                                    LOADTIME
000149: 23,6216           32025                           STORE    PREVTIME
000150:
000151: 23,6217           77576                           EXIT     0
000152:
000153: 23,6220           35500                           CAF      ZERO
000154: 23,6221           50045                           TS       PIPAY                                 #  SET ALL PIPAS TO ZERO
000155: 23,6222           50046                           TS       PIPAZ
000156:
000157: 23,6223           20017                           INHINT
000158: 23,6224           37013                           CAF      PRELDT                                #  SET WAITLIST TO WAKE JOB
000159: 23,6225           02124                           TC       WAITLIST
000160: 23,6226           46231                           CADR     PRELALTS
000161:
000162: 23,6227           37014                           CAF      WAKEPRAD
000163: 23,6230           02120                           TC       JOBSLEEP
000164:
000165:
000166:                                                                                                  #        PRELAUNCH WAITLIST TASK - EXECUTED EVERY .5 SEC. IN LOOP.
000167:
000168: 23,6231           35500        PRELALTS           CAF      ZERO
000169: 23,6232           30045                           XCH      PIPAY
000170: 23,6233           50600                           TS       RUPTREG1
000171:
000172: 23,6234           35500                           CAF      ZERO
000173: 23,6235           30046                           XCH      PIPAZ
000174: 23,6236           50601                           TS       RUPTREG2
000175:
000176: 23,6237           02217                           TC       GETPHASE
000177: 23,6240           00000                           OCT      0
000178: 23,6241           06245                           TC       NOPLWAIT
000179:
000180: 23,6242           37013                           CAF      PRELDT                                #  SELF-SUSTAINING WAITLIST CALL
000181: 23,6243           02124                           TC       WAITLIST
000182: 23,6244           46231                           CADR     PRELALTS
000183:
000184: 23,6245           37014        NOPLWAIT           CAF      WAKEPRAD
000185: 23,6246           02051                           TC       JOBWAKE
000186:
000187: 23,6247           10574                           CCS      PHASDATA
000188: 23,6250           06252                           TC       +2
000189: 23,6251           02203                           TC       TASKOVER
000190:
000191: 23,6252           30600                           XCH      RUPTREG1
000192: 23,6253           20574                           INDEX    PHASDATA
000193: 23,6254           50114                           TS       MPAC
000194: 23,6255           30601                           XCH      RUPTREG2
000195: 23,6256           20574                           INDEX    PHASDATA
000196: 23,6257           50115                           TS       MPAC       +1
000197:
000198: 23,6260           02203                           TC       TASKOVER                              #  RESUME
000199:
000200: 23,6261           30114        PRAWAKE            XCH      MPAC
000201: 23,6262           20066                           INDEX    FIXLOC
000202: 23,6263           50012                           TS       DELY
000203:
000204: 23,6264           30115                           XCH      MPAC       +1
000205: 23,6265           20066                           INDEX    FIXLOC
000206: 23,6266           50010                           TS       DELZ
000207:
000208: 23,6267           04000                           TC       INTPRET
000209:
000210: 23,6270           43176                           SMOVE    0                                     #  ZERO TO THEAT-SOUTH
000211: 23,6271           07016                                    ZEROPR
000212: 23,6272           32037                           STORE    THETASTH
000213:
000214: 23,6273           47576                           NOLOD    0
000215: 23,6274           32041                           STORE    THETAE                                #  ZERO TO THETA EAST
000216:
000217:
000218: 23,6275           77576                           EXIT     0
000219:
000220:
000221: 23,6276           02217                           TC       GETPHASE                              #  CHECK IF VERTICAL ERECTION (UNCONDIT.)
000222: 23,6277           00000                           OCT      0
000223: 23,6300           06760                           TC       PRELEXIT
000224: 23,6301           50114                           TS       MPAC
000225: 23,6302           06662                           TC       PLSTCHK
000226:
000227: 23,6303           20114                           INDEX    MPAC
000228: 23,6304           06272                           TC       -12
000229: 23,6305           06373                           TC       NOGYROCM
000230: 23,6306           06403                           TC       TJL
000231:
000232: 23,6307           04000        DOGYROC            TC       INTPRET
000233:
000234: 23,6310           76776                           ITC      0
000235: 23,6311           06551                                    GYROCOM
000236:
000237: 23,6312           76776                           ITC      0
000238: 23,6313           06441                                    EARTHRAT
000239:
000240: 23,6314           77576        ENDOFPR            EXIT     0
000241:
000242: 23,6315           10747                           CCS      WASKSET
000243: 23,6316           06322                           TC       +4
000244: 23,6317           06760                           TC       PRELEXIT
000245: 23,6320           06322                           TC       +2
000246: 23,6321           06760                           TC       PRELEXIT
000247:
000248: 23,6322           35500                           CAF      ZERO                                  #  INITIALIZE TORQUING REGISTERS AND RESET
000249: 23,6323           20066                           INDEX    FIXLOC
000250: 23,6324           30034                           XCH      THETAX
000251: 23,6325           06350                           TC       PLLIMIT
000252: 23,6326           50716                           TS       GYROD      +1
000253:
000254: 23,6327           35500                           CAF      ZERO
000255: 23,6330           20066                           INDEX    FIXLOC
000256: 23,6331           30030                           XCH      THETAY
000257: 23,6332           06350                           TC       PLLIMIT
000258: 23,6333           50720                           TS       GYROD      +3
000259:
000260: 23,6334           35500                           CAF      ZERO
000261: 23,6335           20066                           INDEX    FIXLOC
000262: 23,6336           30032                           XCH      THETAZ
000263: 23,6337           06350                           TC       PLLIMIT
000264: 23,6340           50722                           TS       GYROD      +5
000265:
000266: 23,6341           02516                           TC       BANKCALL
000267: 23,6342           21440                           CADR     IMUPULSE
000268:
000269: 23,6343           02516                           TC       BANKCALL
000270: 23,6344           21412                           CADR     IMUSTALL
000271: 23,6345           06760                           TC       PRELEXIT
000272:
000273: 23,6346           37014                           CAF      WAKEPRAD
000274: 23,6347           02120                           TC       JOBSLEEP
000275:
000276: 23,6350           50034        PLLIMIT            TS       OVCTR
000277: 23,6351           30001                           XCH      Q
000278: 23,6352           50101                           TS       TEM2
000279:
000280: 23,6353           10034                           CCS      OVCTR
000281: 23,6354           66372                           AD       -320PLS
000282: 23,6355           06357                           TC       +2
000283: 23,6356           66372                           AD       -320PLS
000284:
000285: 23,6357           10000                           CCS      A
000286: 23,6360           06365                           TC       +5
000287: 23,6361           00101                           TC       TEM2
000288:
000289: 23,6362           30000                           NOOP
000290: 23,6363           30034                           XCH      OVCTR
000291: 23,6364           00101                           TC       TEM2
000292:
000293: 23,6365           10034                           CCS      OVCTR
000294: 23,6366           46372                           CS       -320PLS
000295: 23,6367           00101                           TC       TEM2
000296:
000297: 23,6370           36372                           CAF      -320PLS
000298: 23,6371           00101                           TC       TEM2
000299:
000300: 23,6372           77277        -320PLS            DEC      -320       B-14
000301:
000302:
000303:                                                                                                  #        VERTICAL ERECTION PROCEDURES.
000304:
000305: 23,6373           10757        NOGYROCM           CCS      GYROCSW                               #  COUNT DOWN FOR 5 MIN OF VERTICAL ERECT.
000306: 23,6374           06402                           TC       MORE                                  #   IF MORE TO COME.
000307: 23,6375           02240                           TC       PHASCHNG                              #  IF NOT, GO INTO GYROCOMP
000308: 23,6376           01500                           OCT      01500
000309: 23,6377           06760                           TC       PRELEXIT
000310: 23,6400           06662                           TC       PLSTCHK
000311:
000312: 23,6401           06403                           TC       +2
000313:
000314: 23,6402           50757        MORE               TS       GYROCSW
000315:
000316: 23,6403           04000        TJL                TC       INTPRET
000317:
000318: 23,6404           76776                           ITC      0
000319: 23,6405           06441                                    EARTHRAT
000320:
000321: 23,6406           66775                           DSU      1
000322: 23,6407           64742                           DMP      DAD
000323: 23,6410           00013                                    DELY
000324: 23,6411           00017                                    FILDELY
000325: 23,6412           06775                                    VERECTC3
000326: 23,6413           00017                                    FILDELY
000327: 23,6414           32017                           STORE    FILDELY
000328:
000329: 23,6415           53575                           AXC,1    1
000330: 23,6416           52572                           AXC,2    ITC
000331: 23,6417           00003                                    2
000332: 23,6420           00001                                    0
000333: 23,6421           06635                                    VERECT
000334:
000335: 23,6422           66775                           DSU      1
000336: 23,6423           64742                           DMP      DAD
000337: 23,6424           00011                                    DELZ
000338: 23,6425           00015                                    FILDELZ
000339: 23,6426           06775                                    VERECTC3
000340: 23,6427           00015                                    FILDELZ
000341: 23,6430           32015                           STORE    FILDELZ
000342:
000343: 23,6431           53574                           AXC,1    2
000344: 23,6432           47433                           NOLOD    COMP
000345: 23,6433           76776                           ITC
000346: 23,6434           00001                                    0
000347: 23,6435           06635                                    VERECT
000348:
000349: 23,6436           76776                           ITC      0
000350: 23,6437           06315                                    ENDOFPR
000351:
000352:
000353:                                                                                                  #        CALCULATION OF EARTH RATE
000354:
000355: 23,6440           76576        EARTHRAT           RTB      0
000356: 23,6441           07022                                    LOADTIME
000357: 23,6442           32051                           STORE    S1
000358: 23,6443           47574                           NOLOD    2
000359: 23,6444           66716                           DSU      TSLT
000360: 23,6445           55776                           DMPR
000361: 23,6446           00025                                    PREVTIME
000362: 23,6447           00017                                    14D
000363: 23,6450           07020                                    LOMEGA
000364:
000365: 23,6451           45176                           DMOVE    0
000366: 23,6452           00051                                    S1
000367: 23,6453           32025                           STORE    PREVTIME
000368:
000369: 23,6454           64775                           DMP      1                                     #   SIN(LAMBDE).DT.LENGTH OMEGA + THETA X
000370: 23,6455           63742                           TSLT     DAD
000371: 23,6456           00001                                    0
000372: 23,6457           00043                                    SINLAM
000373: 23,6460           00002                                    1
000374: 23,6461           00035                                    THETAX
000375: 23,6462           32035                           STORE    THETAX
000376:
000377: 23,6463           64775                           DMP      1                                     #  -COS(LAMBDA).DT.LENGTH OMEGA + THETA STH
000378: 23,6464           63726                           TSLT     BDSU
000379: 23,6465           77777                                    -
000380: 23,6466           00045                                    COSLAM
000381: 23,6467           00002                                    1
000382: 23,6470           00037                                    THETASTH
000383: 23,6471           32037                           STORE    THETASTH
000384:
000385: 23,6472           64775                           DMP      1                                     #   COS(AZIMUTH). SOUTH COMPONENT
000386: 23,6473           63776                           TSLT
000387: 23,6474           00037                                    THETASTH                              #                        TO P.D. LIST
000388: 23,6475           00005                                    COSAZ
000389: 23,6476           00002                                    1
000390:
000391: 23,6477           64774                           DMP      2                                     #   Y COMPONENT = SIN(AZIMUTH).EAST COMP
000392: 23,6500           63742                           TSLT     DAD                                   #                   + COS(AZIMUTH). SOUTH
000393: 23,6501           70776                           DAD
000394: 23,6502           00041                                    THETAE                                #                                    COMP
000395: 23,6503           00003                                    SINAZ
000396: 23,6504           00002                                    1
000397: 23,6505           00031                                    THETAY
000398: 23,6506           32031                           STORE    THETAY
000399:
000400: 23,6507           64775                           DMP      1                                     #   SIN(AZIMUTH). SOUTH COMPONENT
000401: 23,6510           63776                           TSLT
000402: 23,6511           00003                                    SINAZ                                 #                        TO P.D. LIST
000403: 23,6512           00037                                    THETASTH
000404:
000405: 23,6513           00002                                    1
000406: 23,6514           64774                           DMP      2                                     #  Z COMPONENT = COS(AZIMUTH.EAST COMP
000407: 23,6515           63732                           TSLT     DSU
000408: 23,6516           70776                           DAD
000409: 23,6517           00005                                    COSAZ                                 #               -SIN(AZIMUTH).SOUTH COMP
000410: 23,6520           00041                                    THETAE
000411: 23,6521           00002                                    1
000412: 23,6522           77777                                    -
000413: 23,6523           00033                                    THETAZ
000414: 23,6524           32033                           STORE    THETAZ
000415:
000416: 23,6525           43175                           SMOVE    1
000417: 23,6526           56742                           TSRT     DAD
000418: 23,6527           00763                                    DRIFTX
000419: 23,6530           00017                                    14D
000420: 23,6531           00035                                    THETAX
000421: 23,6532           32035                           STORE    THETAX
000422:
000423: 23,6533           43175                           SMOVE    1
000424: 23,6534           56742                           TSRT     DAD
000425: 23,6535           00761                                    DRIFTY
000426: 23,6536           00017                                    14D
000427: 23,6537           00031                                    THETAY
000428: 23,6540           32031                           STORE    THETAY
000429:
000430: 23,6541           43175                           SMOVE    1
000431: 23,6542           56742                           TSRT     DAD
000432: 23,6543           00762                                    DRIFTZ
000433: 23,6544           00017                                    14D
000434: 23,6545           00033                                    THETAZ
000435: 23,6546           32033                           STORE    THETAZ
000436:
000437: 23,6547           40576                           ITCQ     0
000438:
000439:
000440:                                                                                                  #        COMPUTATION OF GYROCOMPASS COMMAND
000441:
000442: 23,6550           45575        GYROCOM            ITA      1
000443: 23,6551           64716                           DMP      TSLT
000444: 23,6552           00770                                    PRELTEMP
000445: 23,6553           00011                                    DELZ
000446: 23,6554           00005                                    COSAZ
000447: 23,6555           00002                                    1
000448:
000449: 23,6556           64775                           DMP      1                                     #  DELTA-V(EAST)= COS(AZ).DELTA-V(Z)
000450: 23,6557           63742                           TSLT     DAD
000451: 23,6560           00013                                    DELY
000452: 23,6561           00003                                    SINAZ
000453: 23,6562           00002                                    1
000454: 23,6563           32015                           STORE    DELE
000455:
000456: 23,6564           53574                           AXC,1    2
000457: 23,6565           52435                           AXC,2    NOLOD
000458: 23,6566           47172                           COMP     ITC
000459: 23,6567           00007                                    6
000460: 23,6570           00003                                    2
000461: 23,6571           06635                                    VERECT
000462:
000463: 23,6572           64775                           DMP      1                                     #  SIN(AZ).DELTA-V(Z)
000464: 23,6573           63776                           TSLT
000465: 23,6574           00011                                    DELZ
000466: 23,6575           00003                                    SINAZ
000467: 23,6576           00002                                    1
000468:
000469: 23,6577           64775                           DMP      1                                     #  DELTA-V(SOUTH= COS(AZ.DELTA-V(Y)
000470: 23,6600           63732                           TSLT     DSU
000471: 23,6601           00013                                    DELY
000472: 23,6602           00005                                    COSAZ
000473: 23,6603           00002                                    1
000474: 23,6604           32017                           STORE    DELS
000475:
000476: 23,6605           64776                           DMP      0
000477: 23,6606           00017                                    DELS                                  #   C1. DELTA-V(SOUTH) TO P.D. LIST
000478: 23,6607           06777                                    GYRCMC1
000479:
000480: 23,6610           64775                           DMP      1                                     #  FILTER = C1. DELTA-V(SOUTH)
000481: 23,6611           70776                           DAD                                            #          +C2. FILTER
000482: 23,6612           00007                                    FILTER
000483: 23,6613           07001                                    GYRCMC2
000484: 23,6614           32007                           STORE    FILTER
000485:
000486: 23,6615           64775                           DMP      1
000487: 23,6616           63742                           TSLT     DAD
000488: 23,6617           00007                                    FILTER
000489: 23,6620           07003                                    GYRCMC3
000490: 23,6621           00006                                    5
000491: 23,6622           00035                                    THETAX
000492: 23,6623           32035                           STORE    THETAX
000493:
000494: 23,6624           64775                           DMP      1                                     #  EAST-TORQUING ANGLE = C4.FILTER
000495: 23,6625           63776                           TSLT
000496: 23,6626           00007                                    FILTER
000497: 23,6627           07005                                    GYRCMC4
000498: 23,6630           00003                                    2
000499: 23,6631           32041                           STORE    THETAE
000500:
000501: 23,6632           44576                           ITCI     0
000502: 23,6633           00770                                    PRELTEMP
000503:
000504:
000505:                                                                                                  #  VERTICAL ERECTION SUBROUTINE
000506:
000507:                                                                                                  #  VERECT - VERTICAL ERECTION      ENTERED IN INT. MODE WITH
000508:                                                                                                  #                    SUBROUTINE            C(X1)= 2 FOR C(MPAC)= DEL-V Y
000509:                                                                                                  #                                               = 0     C(MPAC)=-DEL-V Z
000510:                                                                                                  #                                               = 6 FOR C(MPAC)=-DEL-V E
000511:                                                                                                  #                                   FOR THESE THREE CASES OUTPUT WILL BE
000512:                                                                                                  #                                                THETA-Z
000513:                                                                                                  #                                                THETA-Y
000514:                                                                                                  #                                                THETA-S RESPECTIVELY.
000515:                                                                                                  #                                   LOOP CONSTANTS ARE DETERMINED BY
000516:                                                                                                  #                                          C(X2)= 0 NO GYROCOMPASSING
000517:                                                                                                  #                                                 2    GYROCOMPASSING
000518:
000519:
000520:
000521: 23,6634           47576        VERECT             NOLOD    0
000522:
000523: 23,6635           32051                           STORE    S1
000524:
000525: 23,6636           47575                           NOLOD    1
000526: 23,6637           70376                           DAD*
000527: 23,6640           00041                                    INT,1                                 #  COMPUTE INTEGRAL OF DEL-V = INT
000528: 23,6641           34041                           STORE    INT,1
000529:
000530: 23,6642           45175                           DMOVE    1
000531: 23,6643           64316                           DMP*     TSLT
000532: 23,6644           00051                                    S1
000533: 23,6645           15752                                    VERECTC1,2
000534: 23,6646           00006                                    5
000535:
000536: 23,6647           64375                           DMP*     1
000537: 23,6650           70342                           DAD*     DAD
000538: 23,6651           00041                                    INT,1                                 #  THETA = THETA + C1 DEL-V  + C2 INT
000539: 23,6652           15762                                    VERECTC2,2
000540: 23,6653           00061                                    THETAY,1
000541: 23,6654           34061                           STORE    THETAY,1
000542:
000543: 23,6655           40576                           ITCQ     0
000544:
000545:
000546:                                                                                                  #        PRELAUNCH MANUAL REQUEST PROCESSOR.
000547:
000548: 23,6656           36666        STARTPL            CAF      PLPRIO                                #  ENTER EXECUTIVE REQUEST ON START-UP.
000549: 23,6657           02037                           TC       FINDVAC
000550: 23,6660           46155                           CADR     STARTPL2
000551: 23,6661           02544                           TC       SWRETURN
000552:
000553: 23,6662           44513        PLSTCHK            CS       EIGHT                                 #  PRELAUNCH COMES HERE WHENEVER A PHASE
000554: 23,6663           60114                           AD       MPAC                                  #  REFERENCE IS MADE TO SEE IF A MANUAL
000555: 23,6664           10000                           CCS      A                                     #  REQUEST HAS BEEN ENTERED THROUGH MASTER
000556: 23,6665           00001                           TC       Q                                     #  CONTROL. ALL SUCH PHASES ARE LESS THAN 8
000557: 23,6666           24000        PLPRIO             OCT      24000
000558: 23,6667           06670                           TC       +1
000559:
000560: 23,6670           20114                           INDEX    MPAC                                  #  SEE WHICH MANUAL MODE REQUESTED.
000561: 23,6671           06671                           TC       +0
000562: 23,6672           06110                           TC       TOP1                                  #  1 - INITIALIZATION 1.
000563: 23,6673           06126                           TC       TOP2                                  #  2 - INITIALIZATION 2.
000564: 23,6674           06701                           TC       PLFINCHK
000565: 23,6675           06701                           TC       PLFINCHK
000566: 23,6676           06110                           TC       TOP1
000567: 23,6677           06110                           TC       TOP1
000568: 23,6700           06110                           TC       TOP1
000569:
000570: 23,6701           10747        PLFINCHK           CCS      WASKSET                               #  SEE IF IN FINE ALIGN.
000571: 23,6702           06706                           TC       3CHECK
000572: 23,6703           06760                           TC       PRELEXIT                              #  SYSTEM IN BAD SHAPE.
000573: 23,6704           06713                           TC       DOPLCHNG                              #  DO THE CHANGE ANYWAY.
000574: 23,6705           06760                           TC       PRELEXIT                              #  SYSTEM IN BAD SHAPE.
000575:
000576: 23,6706           66711        3CHECK             AD       -CCSFINE
000577: 23,6707           10000                           CCS      A
000578: 23,6710           06110                           TC       TOP1
000579: 23,6711           77730        -CCSFINE           OCT      -47                                   #  WASKSET IS 50 FOR FINE ALIGN.
000580: 23,6712           06110                           TC       TOP1
000581:
000582: 23,6713           20114        DOPLCHNG           INDEX    MPAC
000583: 23,6714           06712                           TC       -2
000584: 23,6715           06722                           TC       DOPL14
000585:
000586: 23,6716           02240        DOPL15             TC       PHASCHNG                              #  SET PHASE TO GYROCOMPASSING
000587: 23,6717           01500                           OCT      01500
000588: 23,6720           06760                           TC       PRELEXIT
000589: 23,6721           06307                           TC       DOGYROC
000590:
000591: 23,6722           02240        DOPL14             TC       PHASCHNG                              #  SET PHASE TO UNCONDITIONAL VERT-
000592: 23,6723           01400                           OCT      01400                                 #  ICAL ERECTION
000593: 23,6724           06760                           TC       PRELEXIT
000594: 23,6725           06403                           TC       TJL
000595:
000596:                                                                                                  #        PRELAUNCH GO-SEQUENCE PROCESSOR.
000597:
000598: 23,6726           36666        PRELGO             CAF      PLPRIO
000599: 23,6727           02037                           TC       FINDVAC
000600: 23,6730           46732                           CADR     PLRESTT
000601: 23,6731           02544                           TC       SWRETURN
000602:
000603: 23,6732           02217        PLRESTT            TC       GETPHASE
000604: 23,6733           00000                           OCT      0
000605: 23,6734           06760                           TC       PRELEXIT
000606:
000607: 23,6735           50114                           TS       MPAC
000608: 23,6736           06662                           TC       PLSTCHK
000609:
000610: 23,6737           46743                           CS       MAXPHASE
000611: 23,6740           60114                           AD       MPAC
000612: 23,6741           10000                           CCS      A
000613: 23,6742           06760                           TC       PRELEXIT
000614: 23,6743           00015        MAXPHASE           OCT      15
000615: 23,6744           06750                           TC       PLGOFAN
000616:
000617: 23,6745           36757        REPLLOOP           CAF      FINECODE
000618: 23,6746           50751                           TS       DESKSET
000619: 23,6747           06172                           TC       PLREFINE
000620:
000621: 23,6750           20114        PLGOFAN            INDEX    MPAC
000622: 23,6751           06741                           TC       -10
000623: 23,6752           06150                           TC       REPL11
000624: 23,6753           06161                           TC       REPL12
000625: 23,6754           06745                           TC       REPLLOOP
000626: 23,6755           06745                           TC       REPLLOOP
000627: 23,6756           06745                           TC       REPLLOOP
000628:
000629: 23,6757           00050        FINECODE           OCT      50                                    #  FINE ALIGN AND COMPUTER CONTROL.
000630:
000631:                                                                                                  #        PRELAUNCH TERMINATION.
000632:
000633: 23,6760           45500        PRELEXIT           CS       ZERO                                  #  RETURN IMU TO MANUAL CONTROL.
000634: 23,6761           50704                           TS       CDUIND
000635: 23,6762           02246                           TC       MAJEXIT
000636: 23,6763           00000                           OCT      0
000637:
000638:                                                                                                  #  PRELAUNCH BANK STORED CONSTANTS
000639:
000640: 23,6764           24000 00000  VERECTC1           2DEC     20.        B-5                        #  VERTICAL LOOP CONSTANTS
000641: 23,6766           01000 00000                     2DEC     1          B-5
000642: 23,6770           14631 23146  VERECTC2           2DEC     .4
000643: 23,6772           00020 14223                     2DEC     .001
000644: 23,6774           03146 14632  VERECTC3           2DEC     .1
000645: 23,6776           37777 37777  GYRCMC1            2DEC     .999999999
000646: 23,7000           00000 00000  GYRCMC2            2DEC     0.0
000647: 23,7002           56777 77777  GYRCMC3            2DEC     -68        B-7
000648: 23,7004           20000 00000  GYRCMC4            2DEC     4          B-3
000649: 23,7006           03610 01227  LABLAT             2DEC     .117678252                            #  LATITUDE OF IL-7
000650: 23,7010           10000 00000  90DEGAZ            2DEC     .25                                   #  90 DEG. FROM NORTH = EAST
000651: 23,7012           05605        PRELKG             DEC      .18
000652: 23,7013           00062        PRELDT             DEC      .5         E2                         #  HALF SECOND PRELAUNCH CYCLE
000653:
000654: 23,7014           46261        WAKEPRAD           CADR     PRAWAKE                               #  WAKING ADDRESS FOR PRELAUNCH
000655:
000656: 23,7015           00000        ZEROPR             OCT      0                                     #  OUR OWN PERSONAL COPY OF ZERO
000657:
000658: 23,7016           01130        SIXHNDRD           DEC      600        B-14
000659:
000660: 23,7017           03711 33265  LOMEGA             2DEC     .12169524                             #  EARTH RATE IN IRIG PULSES PER .01 SEC.

End of include-file PRELAUNCH_ALIGNMENT_PROGRAM.agc.  Parent file is MAIN.agc


