
Source Code


000002:                                                                                                  ## Copyright:   Public domain.
000003:                                                                                                  ## Filename:    AGS_INITIALIZATION.agc
000004:                                                                                                  ## Purpose:     A section of an attempt to reconstruct Sundance revision 306
000005:                                                                                                  ##              as closely as possible with available information. Sundance
000006:                                                                                                  ##              306 is the source code for the Lunar Module's (LM) Apollo
000007:                                                                                                  ##              Guidance Computer (AGC) for Apollo 9. This program was created
000008:                                                                                                  ##              using the mixed-revision SundanceXXX as a starting point, and
000009:                                                                                                  ##              pulling back features from Luminary 69 believed to have been
000010:                                                                                                  ##              added based on memos, checklists, observed address changes,
000011:                                                                                                  ##              or the Sundance GSOPs.
000012:                                                                                                  ## Assembler:   yaYUL
000013:                                                                                                  ## Contact:     Ron Burkey <info@sandroid.org>.
000014:                                                                                                  ## Website:     www.ibiblio.org/apollo/index.html
000015:                                                                                                  ## Mod history: 2020-07-24 MAS  Created from SundanceXXX.
000016:
000017:
000018:
000019:                                                                                                  #  PROGRAM NAME:   AGS INITIALIZATION (R47)
000020:
000021:                                                                                                  #  WRITTEN BY  :   RHODE/KILROY/FOLLETT
000022:
000023:                                                                                                  #  MOD NO. :       0
000024:                                                                                                  #  DATE    :       23 MARCH 1967
000025:                                                                                                  #  MOD BY  :       KILROY
000026:
000027:                                                                                                  #  MOD NO. :       1
000028:                                                                                                  #  DATE    :       28 OCTOBER 1967
000029:                                                                                                  #  MOD BY  :       FOLLETT
000030:
000031:                                                                                                  #  FUNCT. DESC.:   (1) TO PROVIDE THE AGS ABORT ELECTRONICS ASSEMBLY(AEA) WITH THE LEM AND CSM STATE VECTORS
000032:                                                                                                  #                  (POSITION,VELOCITY,TIME) IN LEM IMU COORDINATES BY MEANS OF THE LGC DIGITAL DOWNLINK.
000033:
000034:                                                                                                  #                  (2) TO ZERO THE ICDU, LGC AND AEA GIMBAL ANGLE COUNTERS SIMULTANEOUSLY IN ORDER TO ESTABLISH A
000035:                                                                                                  #                  COMMON ZERO REFERENCE FOR THE MEASUREMENT OF GIMBAL(EULER) ANGLES WHICH DEFINE LEM ATTITUDE
000036:                                                                                                  #                  (3) TO ESTABLISH THE GROUND ELAPSED TIME OF AEA CLOCK ZERO.(IF AN AEA CLOCK ZERO IS
000037:                                                                                                  #                  REQUESTED DURING THIS PROGRAM
000038:
000039:                                                                                                  #  LOG SECTION :   AGS INITIALIZATION
000040:
000041:                                                                                                  #  CALLING SEQ :   PROGRAM IS ENTERED WHEN ASTRONAUT KEYS V47E ON DSKY.
000042:                                                                                                  #                  R47 MAY BE CALLED AT ANY TIME EXCEPT WHEN ANOTHER EXTENDED VERB IS IN PROGRESS
000043:
000044:                                                                                                  #  SUBROUTINES
000045:                                                                                                  #  CALLED      :
000046:
000047:                                                                                                  #  NORMAL EXIT :   ENDEXT
000048:
000049:                                                                                                  #  ALARM/ABORT :   ALARM - BAD REFSMMAT - CODE:220
000050:                                                                                                  #                  OPERATOR ERROR IF V47 SELECTED DURING ANOTHER EXTENDED VERB.
000051:
000052:                                                                                                  #  ERASABLES
000053:                                                                                                  #  USED        :   SAMPTIME    (2) TIME OF :ENTER: KEYSTROKE
000054:                                                                                                  #                  AGSK        (2) GROUND ELAPSED TIME OF THE AEA CLOCK :ZERO:
000055:                                                                                                  #                  AGSBUFF   (140) CONTAINS AGS INITIALIZATION DATA (SEE :OUTPUT: BELOW)
000056:                                                                                                  #                  AGSWORD     (1) PREVIOUS DOWNLIST SAVED HERE
000057:
000058: 05,2264  E4,1606                                  EBANK=   AGSBUFF
000059:
000060: 40,2000                                           BANK     40
000061: 40,2000                                           SETLOC   R47
000062: 40,2000                                           BANK
000063:
000064: 40,2000                                           COUNT*   $$/R47
000065:
000066: 40,2000           35012        AGSINIT            CAF      REFSMBIT
000067: 40,2001           70077                           MASK     FLAGWRD3                              #  CHECK REFSMFLG.
000068: 40,2002           10000                           CCS      A
000069:
000070: 40,2003           02012                           TC       REDSPTEM                              #  REFSMMAT IS OK
000071: 40,2004           05651                           TC       ALARM                                 #  REFSMMAT IS BAD
000072: 40,2005           00220                           OCT      220
000073: 40,2006           05564                           TC       ENDEXT
000074:
000075: 40,2007           00006        NEWAGS             EXTEND
000076: 40,2010           30014                           DCA      SAMPTIME                              #  TIME OF THE :ENTER: KEYSTROKE
000077: 40,2011           53417                           DXCH     AGSK                                  #  BECOMES NEW AEA CLOCK :ZERO:
000078:
000079: 40,2012           00006        REDSPTEM           EXTEND
000080: 40,2013           31417                           DCA      AGSK
000081: 40,2014           53053                           DXCH     DSPTEMX
000082: 40,2015           32165        AGSDISPK           CAF      V06N16
000083: 40,2016           04655                           TC       BANKCALL                              #  R1 = 00XXX. HRS., R2 = 000XX MIN.,
000084: 40,2017           20226                           CADR     GOMARKF                               #  R3 = 0XX.XX SEC.
000085: 40,2020           05564                           TC       ENDEXT                                #  TERMINATE RETURN
000086: 40,2021           02031                           TC       AGSVCALC                              #  PROCEED   RETURN
000087: 40,2022           45021                           CS       BIT6                                  #  IS ENTER VIA A V32
000088: 40,2023           60154                           AD       MPAC
000089: 40,2024           00006                           EXTEND
000090: 40,2025           12007                           BZF      NEWAGS                                #  YES, USE KEYSTROKE TIME FOR NEW AGSK
000091:
000092: 40,2026           00006                           EXTEND                                         #  NO, NEW AGSK LOADED VIA V25
000093: 40,2027           31053                           DCA      DSPTEMX                               #  LOADED INTO DSPTEMX BY KEYING
000094: 40,2030           02011                           TC       REDSPTEM   -1                         #  V25E FOLLOWED BY HRS.,MINS.,SECS.
000095:                                                                                                  #  DISPLAY THE NEW K
000096:
000097: 40,2031           06014        AGSVCALC           TC       INTPRET
000098: 40,2032           77614                           SET
000099: 40,2033           01076                                    NODOFLAG                              #  DONT ALLOW V37
000100: 40,2034           77414                           SET      EXIT
000101: 40,2035           02076                                    XDSPFLAG
000102:
000103: 40,2036           32165                           CAF      V06N16
000104: 40,2037           04655                           TC       BANKCALL
000105: 40,2040           20527                           CADR     EXDSPRET
000106:
000107: 40,2041           06014                           TC       INTPRET                               #  EXTRAPOLATE LEM AND CSM STATE VECTORS
000108: 40,2042           77634                           RTB                                            #  TO THE PRESENT TIME
000109: 40,2043           21454                                    LOADTIME                              #  LOAD MPAC WITH TIME2,TIME1
000110: 40,2044           34041                           STCALL   TDEC1                                 #  CALCULATE LEM STATE VECTOR
000111: 40,2045           27030                                    LEMPREC
000112: 40,2046           77624                           CALL                                           #  CALL ROUTINE TO CONVERT TO SM COORDS AND
000113: 40,2047           60125                                    SCALEVEC                              #  PROVIDE PROPER SCALING
000114: 40,2050           16207                           STODL    AGSBUFF                               #  (LEMPREC AND CSMPREC LEAVE TDEC1 IN TAT)
000115: 40,2051           00015                                    TAT                                   #  TAT = TIME TO WHICH RATT1 AND VATT1 ARE
000116: 40,2052           34041                           STCALL   TDEC1                                 #  COMPUTED(CSEC SINCE CLOCK START B-28).
000117: 40,2053           27014                                    CSMPREC                               #  CALCULATE CSM STATE VECTOR FOR SAME TIME
000118: 40,2054           77624                           CALL
000119: 40,2055           60125                                    SCALEVEC
000120:
000121: 40,2056           16215                           STODL    AGSBUFF    +6
000122: 40,2057           00015                                    TAT
000123: 40,2060           56225                           DSU      DDV                                   #  CALCULATE AND STORE THE TIME
000124: 40,2061           02017                                    AGSK
000125: 40,2062           20170                                    TSCALE
000126: 40,2063           02223                           STORE    AGSBUFF    +12D
000127: 40,2064           77776                           EXIT
000128:
000129: 40,2065           35026                           CAF      LAGSLIST
000130: 40,2066           54332                           TS       DNLSTCOD
000131:
000132: 40,2067           32171                           CAF      20SEC                                 #  DELAY FOR 20 SEC WHILE THE AGS
000133: 40,2070           04655                           TC       BANKCALL                              #  DOWNLIST IS TRANSMITTED
000134: 40,2071           01732                           CADR     DELAYJOB
000135:
000136: 40,2072           31330                           CA       AGSWORD
000137: 40,2073           54332                           TS       DNLSTCOD                              #  RETURN TO THE OLD DOWNLIST
000138: 40,2074           35017                           CAF      IMUSEBIT
000139: 40,2075           70074                           MASK     FLAGWRD0                              #  CHECK IMUSE FLAG.
000140: 40,2076           10000                           CCS      A
000141: 40,2077           02115                           TC       AGSEND                                #  IMU IS BEING USED - DO NOT ZERO
000142: 40,2100           11306        CKSTALL            CCS      IMUCADR                               #  CHECK FOR IMU USAGE WHICH AVOIDS THE
000143: 40,2101           12104                           TCF      +3                                    #  IMUSE BIT:  I.E., IMU COMPENSATION.
000144: 40,2102           12110                           TCF      +6                                    #  FREE.  GO AHEAD WITH THE IMU ZERO.
000145: 40,2103           12104                           TCF      +1
000146: 40,2104           34375                 +3        CAF      TEN                                   #  WAIT .1 SEC AND TRY AGAIN.
000147: 40,2105           04655                           TC       BANKCALL
000148: 40,2106           01732                           CADR     DELAYJOB
000149: 40,2107           12100                           TCF      CKSTALL
000150:
000151: 40,2110           04655                 +6        TC       BANKCALL                              #  IMU IS NOT IN USE
000152: 40,2111           16622                           CADR     IMUZERO                               #  SET IMU ZERO DISCRETE FOR 320MSECS
000153: 40,2112           04655                           TC       BANKCALL                              #  WAIT 3 SEC FOR COUNTERS TO INCREMENT
000154: 40,2113           17625                           CADR     IMUSTALL
000155: 40,2114           02115                           TC       AGSEND
000156: 40,2115           05600        AGSEND             TC       DOWNFLAG                              #  ALLOW V37
000157: 40,2116           00054                           ADRES    NODOFLAG
000158:
000159: 40,2117           32166                           CAF      V50N16
000160: 40,2120           04655                           TC       BANKCALL
000161: 40,2121           20234                           CADR     GOMARK3
000162: 40,2122           15564                           TCF      ENDEXT
000163: 40,2123           15564                           TCF      ENDEXT
000164: 40,2124           05564                           TC       ENDEXT
000165:
000166: 40,2125           64375        SCALEVEC           VLOAD    MXV
000167: 40,2126           00025                                    VATT1
000168: 40,2127           01736                                    REFSMMAT
000169: 40,2130           72561                           VXSC     VSL2
000170: 40,2131           20175                                    VSCALE
000171:
000172: 40,2132           53255                           VAD      VAD                                   #  THIS SECTION ROUNDS THE VECTOR, AND
000173: 40,2133           20177                                    AGSRND1                               #  CORRECTS FOR THE FACT THAT THE AGS
000174: 40,2134           20205                                    AGSRND2                               #  IS A 2 S COMPLIMENT MACHINE WHILE THE
000175: 40,2135           77634                           RTB                                            #  LGC IS A 1 S COMPLIMENT MACHINE.
000176: 40,2136           21736                                    VECSGNAG
000177: 40,2137           24025                           STOVL    VATT1
000178: 40,2140           00017                                    RATT1
000179: 40,2141           74321                           MXV      VXSC
000180: 40,2142           01736                                    REFSMMAT
000181: 40,2143           20173                                    RSCALE
000182: 40,2144           53212                           VSL8     VAD                                   #  AGAIN THIS SECTION ROUNDS.  TWO VECTORS
000183: 40,2145           20177                                    AGSRND1                               #  ARE ADDED TO DEFEAT ALSIGNAG IN THE
000184: 40,2146           47055                           VAD      RTB                                   #  CASE OF A HIGH-ORDER ZERO COUPLED WITH
000185: 40,2147           20205                                    AGSRND2                               #  A LOW ORDER NEGATIVE PART.
000186: 40,2150           21736                                    VECSGNAG
000187: 40,2151           77750                           LXA,1
000188: 40,2152           00024                                    VATT1
000189: 40,2153           72130                           SXA,1    LXA,1
000190: 40,2154           00155                                    MPAC       +1
000191: 40,2155           00026                                    VATT1      +2
000192: 40,2156           72130                           SXA,1    LXA,1
000193: 40,2157           00160                                    MPAC       +4
000194: 40,2160           00030                                    VATT1      +4
000195: 40,2161           43530                           SXA,1    RVQ
000196: 40,2162           00162                                    MPAC       +6
000197:
000198: 40,2163     5026               LAGSLIST           =        ONE
000199: 40,2163           00216        V01N14             VN       0114
000200: 40,2164           14400        V50N00A            VN       5000
000201: 40,2165     4113               V00N25             EQUALS   OCT31
000202: 40,2165           01420        V06N16             VN       0616
000203: 40,2166     4254               V00N34             EQUALS   34DEC
000204: 40,2166           14420        V50N16             VN       5016
000205: 40,2167           03100 00000  TSCALE             2DEC     100        B-10                       #  CSEC TO SEC SCALE FACTOR
000206: 40,2171           03720        20SEC              DEC      2000       B-14
000207: 40,2172           15077 04530  RSCALE             2DEC     3.280833   B-3                        #  METERS TO FEET SCALE FACTOR
000208: 40,2174           24402 25231  VSCALE             2DEC     3.280833   E2         B-9             #  METERS/CS TO FEET/SEC SCALE FACTOR
000209: 40,2176           00000 60000  AGSRND1            2OCT     0000060000
000210: 40,2200           00000 60000                     2OCT     0000060000
000211: 40,2202           00000 60000                     2OCT     0000060000
000212: 40,2204           00000 37777  AGSRND2            2OCT     0000037777
000213: 40,2206           00000 37777                     2OCT     0000037777
000214:
000215: 40,2210           00000 37777                     2OCT     0000037777
000216:
000217: 40,2212  30,2000                                  SBANK=   LOWSUPER                              #  FOR SUBSEQUENT LOW 2CADRS.

End of include-file AGS_INITIALIZATION.agc.  Parent file is MAIN.agc


