
Source Code


000002:                                                                                                  ## Copyright:   Public domain.
000003:                                                                                                  ## Filename:    ALARM_AND_ABORT.agc
000004:                                                                                                  ## Purpose:     A section of an attempt to reconstruct Sundance revision 306
000005:                                                                                                  ##              as closely as possible with available information. Sundance
000006:                                                                                                  ##              306 is the source code for the Lunar Module's (LM) Apollo
000007:                                                                                                  ##              Guidance Computer (AGC) for Apollo 9. This program was created
000008:                                                                                                  ##              using the mixed-revision SundanceXXX as a starting point, and
000009:                                                                                                  ##              pulling back features from Luminary 69 believed to have been
000010:                                                                                                  ##              added based on memos, checklists, observed address changes,
000011:                                                                                                  ##              or the Sundance GSOPs.
000012:                                                                                                  ## Assembler:   yaYUL
000013:                                                                                                  ## Contact:     Ron Burkey <info@sandroid.org>.
000014:                                                                                                  ## Website:     www.ibiblio.org/apollo/index.html
000015:                                                                                                  ## Mod history: 2020-07-24 MAS  Created from SundanceXXX.
000016:
000017:
000018:
000019:                                                                                                  #           THE FOLLOWING SUBROUTINE MAY BE CALLED TO DISPLAY A NON-ABORTIVE ALARM CONDITION. IT MAY BE CALLED
000020:                                                                                                  #  EITHER IN INTERRUPT OR UNDER EXECUTIVE CONTROL.
000021:
000022:                                                                                                  #  CALLING SEQUENCE IS AS FOLLOWS:
000023:                                                                                                  #                TC      ALARM
000024:                                                                                                  #                OCT     AAANN           ALARM NO. NN IN GENERAL AREA AAA.
000025:                                                                                                  #                                        (RETURNS HERE)
000026:
000027:    5651                                           BLOCK    02
000028:    4000                                           SETLOC   FFTAG7
000029:    4000                                           BANK
000030:
000031:    5651     0375                                  EBANK=   FAILREG
000032:
000033:    5651                                           COUNT*   $$/ALARM
000034:                                                                                                  #  ALARM TURNS ON THE PROGRAM ALARM LIGHT, BUT DOES NOT DISPLAY.
000035:
000036:    5651           00004        ALARM              INHINT
000037:
000038:    5652           30002                           CA       Q
000039:    5653           55363                           TS       ALMCADR
000040:    5654           50002        ALARM2             INDEX    Q
000041:    5655           30000                           CA       0
000042:    5656           54001        BORTENT            TS       L
000043:
000044:    5657           30006        PRIOENT            CA       BBANK
000045:    5660           00006                 +1        EXTEND
000046:    5661           04007                           ROR      SUPERBNK                              #  ADD SUPER BITS.
000047:    5662           55364                           TS       ALMCADR    +1
000048:
000049:    5663           30002        LARMENT            CA       Q                                     #  STORE RETURN FOR ALARM
000050:    5664           54061                           TS       ITEMP1
000051:
000052:    5665           10375        CHKFAIL1           CCS      FAILREG                               #  IS ANYTHING IN FAILREG
000053:    5666           15671                           TCF      CHKFAIL2                              #  YES TRY NEXT REG
000054:    5667           22375                           LXCH     FAILREG
000055:    5670           15703                           TCF      PROGLARM                              #  TURN ALARM LIGHT ON FOR FIRST ALARM
000056:
000057:    5671           10376        CHKFAIL2           CCS      FAILREG    +1
000058:    5672           15675                           TCF      FAIL3
000059:    5673           22376                           LXCH     FAILREG    +1
000060:    5674           15706                           TCF      MULTEXIT
000061:
000062:    5675           30377        FAIL3              CA       FAILREG    +2
000063:    5676           75006                           MASK     POSMAX
000064:    5677           10000                           CCS      A
000065:    5700           15712                           TCF      MULTFAIL
000066:    5701           22377                           LXCH     FAILREG    +2
000067:    5702           15706                           TCF      MULTEXIT
000068:
000069:
000070:    5703           41037        PROGLARM           CS       DSPTAB     +11D
000071:    5704           75724                           MASK     OCT40400
000072:    5705           27037                           ADS      DSPTAB     +11D
000073:
000074:    5706           56061        MULTEXIT           XCH      ITEMP1                                #  OBTAIN RETURN ADDRESS IN A
000075:    5707           00003                           RELINT
000076:    5710           50000                           INDEX    A
000077:    5711           00001                           TC       1
000078:
000079:    5712           30001        MULTFAIL           CA       L
000080:    5713           65010                           AD       BIT15
000081:    5714           54377                           TS       FAILREG    +2
000082:
000083:    5715           15706                           TCF      MULTEXIT
000084:
000085:
000086:                                                                                                  #  PRIOLARM DISPLAYS V05N09 VIA PRIODSPR WITH 3 RETURNS TO THE USER FROM THE ASTRONAUT AT CALL LOC +1,+2,+3 AND
000087:                                                                                                  #  AN IMMEDIATE RETURN TO THE USER AT CALL LOC +4.  EXAMPLE FOLLOWS,
000088:                                                                                                  #                CAF     OCTXX           ALARM CODE
000089:                                                                                                  #                TC      BANKCALL
000090:                                                                                                  #                CADR    PRIOLARM
000091:
000092:                                                                                                  #                ...     ...
000093:                                                                                                  #                ...     ...
000094:                                                                                                  #                ...     ...             ASTRONAUT RETURN
000095:                                                                                                  #                TC      PHASCHNG        IMMEDIATE RETURN TO USER.  RESTART
000096:                                                                                                  #                OCT     X.1             PHASE CHANGE FOR PRIO DISPLAY
000097:
000098: 10,3443                                           BANK     10
000099: 10,2000                                           SETLOC   DISPLAYS
000100: 10,2000                                           BANK
000101:
000102: 10,3443                                           COUNT*   $$/DSPLA
000103: 10,3443           00004        PRIOLARM           INHINT                                         #  * * * KEEP IN DISPLAY ROUTINES BANK
000104: 10,3444           54001                           TS       L                                     #  SAVE ALARM CODE
000105:
000106: 10,3445           30133                           CA       BUF2                                  #  2 CADR OF PRIOLARM USER
000107: 10,3446           55363                           TS       ALMCADR
000108: 10,3447           30134                           CA       BUF2       +1
000109: 10,3450           05660                           TC       PRIOENT    +1                         #  * LEAVE L ALONE
000110: 10,3451           77013        -5SEC              DEC      -500       B-14                       #  *** DONT MOVE
000111: 10,3452           35056                           CAF      V05N09
000112: 10,3453           12414                           TCF      PRIODSPR
000113:
000114:
000115:    5716                                           BLOCK    02
000116:    4000                                           SETLOC   FFTAG7
000117:    4000                                           BANK
000118:
000119:    5716                                           COUNT*   $$/ALARM
000120:    5716           00004        ABORT              INHINT
000121:    5717           30002                           CA       Q
000122:    5720           55363                           TS       ALMCADR
000123:
000124:    5721           50002        ABORT2             INDEX    Q
000125:    5722           30000                           CAF      0
000126:    5723           05656                           TC       BORTENT
000127:    5724           40400        OCT40400           OCT      40400
000128:    5725           05725        WHIMPER            TC       WHIMPER
000129:
000130:    5726           00004        CCSHOLE            INHINT
000131:    5727           30002                           CA       Q
000132:    5730           55363                           TS       ALMCADR
000133:
000134:    5731           05721                           TC       ABORT2
000135:    5732           01103                           OCT      1103
000136:
000137:    5733           00004        CURTAINS           INHINT
000138:    5734           30002                           CA       Q
000139:    5735           55363                           TS       ALMCADR
000140:    5736           05654                           TC       ALARM2
000141:    5737           00217        OCT217             OCT      00217
000142:    5740           01363                           TC       ALMCADR                               #  RETURN TO USER
000143:
000144:                                                                                                  #  CALLING SEQUENCE FOR VARALARM
000145:                                                                                                  #                CAF     (ALARM)
000146:                                                                                                  #                TC      VARALARM
000147:
000148:                                                                                                  #  VARALARM TURNS ON PROGRAM ALARM LIGHT BUT DOES NOT DISPLAY
000149:
000150:    5741           00004        VARALARM           INHINT
000151:
000152:    5742           54001                           TS       L                                     #  SAVE USERS ALARM CODE
000153:
000154:    5743           30002                           CA       Q                                     #  SAVE USERS Q
000155:    5744           55363                           TS       ALMCADR
000156:
000157:    5745           05657                           TC       PRIOENT
000158:    5746           00014        OCT14              OCT      14                                    #  DONT MOVE
000159:
000160:    5747           01363                           TC       ALMCADR                               #  RETURN TO USER

End of include-file ALARM_AND_ABORT.agc.  Parent file is MAIN.agc


