
Source Code


000002:                                                                                                  ## Copyright:   Public domain.
000003:                                                                                                  ## Filename:    AOTMARK.agc
000004:                                                                                                  ## Purpose:     A section of an attempt to reconstruct Sundance revision 306
000005:                                                                                                  ##              as closely as possible with available information. Sundance
000006:                                                                                                  ##              306 is the source code for the Lunar Module's (LM) Apollo
000007:                                                                                                  ##              Guidance Computer (AGC) for Apollo 9. This program was created
000008:                                                                                                  ##              using the mixed-revision SundanceXXX as a starting point, and
000009:                                                                                                  ##              pulling back features from Luminary 69 believed to have been
000010:                                                                                                  ##              added based on memos, checklists, observed address changes,
000011:                                                                                                  ##              or the Sundance GSOPs.
000012:                                                                                                  ## Assembler:   yaYUL
000013:                                                                                                  ## Contact:     Ron Burkey <info@sandroid.org>.
000014:                                                                                                  ## Website:     www.ibiblio.org/apollo/index.html
000015:                                                                                                  ## Mod history: 2020-07-24 MAS  Created from SundanceXXX.
000016:
000017:
000018:
000019: 12,2000                                           BANK     12
000020: 07,2000                                           SETLOC   AOTMARK1
000021: 07,2000                                           BANK
000022:
000023: 07,2000  E7,1536                                  EBANK=   XYMARK
000024: 07,2000                                           COUNT*   $$/MARK
000025:
000026: 07,2000           00004        AOTMARK            INHINT
000027: 07,2001           11314                           CCS      MARKSTAT                              #  SEE IF AOTMARK BUSY
000028: 07,2002           02004                           TC       +2                                    #  MARK SYSTEM BUSY-DO ALARM
000029: 07,2003           02007                           TC       EXTVBCHK
000030: 07,2004           05651                           TC       ALARM
000031: 07,2005           00105                           OCT      00105
000032: 07,2006           05225                           TC       ENDOFJOB
000033:
000034: 07,2007           36216        EXTVBCHK           CAF      SIX                                   #  SEE IF EXT. VERB WORKING
000035: 07,2010           71045                           MASK     EXTVBACT
000036: 07,2011           10000                           CCS      A
000037: 07,2012           12044                           TCF      MKABORT                               #  YES-ABORT
000038:
000039: 07,2013           35025                           CAF      BIT2                                  #  NO-DISALLOW SOME EXTENDED VERB ACTION
000040: 07,2014           27045                           ADS      EXTVBACT                              #  BIT2 RESET IN ENDMARK
000041: 07,2015           10400        MKVAC              CCS      VAC1USE                               #  LOOK FOR A VAC AREA-DO ABORT IF
000042: 07,2016           12031                           TCF      MKVACFND                              #  NONE AVAILABLE
000043: 07,2017           10454                           CCS      VAC2USE
000044: 07,2020           12031                           TCF      MKVACFND
000045: 07,2021           10530                           CCS      VAC3USE
000046: 07,2022           12031                           TCF      MKVACFND
000047: 07,2023           10604                           CCS      VAC4USE
000048: 07,2024           12031                           TCF      MKVACFND
000049: 07,2025           10660                           CCS      VAC5USE
000050: 07,2026           12031                           TCF      MKVACFND
000051: 07,2027           05716                           TC       ABORT                                 #  ALL VAC AREAS OCCUPIED - ABORT.
000052: 07,2030           01207                           OCT      01207
000053:
000054: 07,2031           65025        MKVACFND           AD       TWO
000055: 07,2032           55314                           TS       MARKSTAT                              #  STORE VAC ADR IN LOW 9 OF MARKSTAT
000056:
000057: 07,2033           35030                           CAF      ZERO
000058: 07,2034           51314                           INDEX    MARKSTAT
000059: 07,2035           53777                           TS       0          -1                         #  ZERO IN VACUSE REG TO SHOW VAC OCCUPIED
000060:
000061: 07,2036           37672                           CAF      PRIO32
000062: 07,2037           05155                           TC       FINDVAC                               #  SET UP JOB FOR GETDAT
000063: 07,2040  E7,1536                                  EBANK=   XYMARK
000064: 07,2040           02057 16067                     2CADR    GETDAT
000065:
000066: 07,2042           00003                           RELINT
000067: 07,2043           14670                           TCF      SWRETURN
000068:
000069: 07,2044           05716        MKABORT            TC       ABORT                                 #  CONFLICT WITH EXTENDED VERB
000070: 07,2045           01211                           OCT      01211
000071:
000072: 07,2046           35030        MKRELEAS           CAF      ZERO
000073: 07,2047           57314                           XCH      MARKSTAT                              #  SET MARKSTAT TO ZERO
000074: 07,2050           75054                           MASK     LOW9                                  #  PICK UP VAC AREA ADR
000075: 07,2051           10000                           CCS      A
000076: 07,2052           50000                           INDEX    A
000077: 07,2053           54000                           TS       0                                     #  SHOW MKVAC AREA AVAILABLE
000078: 07,2054           35026                           CAF      ONE
000079: 07,2055           04737                           TC       IBNKCALL
000080: 07,2056           17576                           CADR     GOODEND                               #  GO WAKE UP CALLING JOB
000081:
000082: 07,2057           32355        GETDAT             CAF      V01N71                                #  DISPLAY DETENT AND STAR CODE
000083: 07,2060           04655                           TC       BANKCALL
000084: 07,2061           20406                           CADR     GOFLASH
000085:
000086: 07,2062           04106                           TC       GOTOPOOH                              #  V34-TERMINATE
000087: 07,2063           12065                           TCF      DODAT                                 #  V33-PROCEED-USE THIS STAR FOR MARKS
000088: 07,2064           12057        ENTERDAT           TCF      GETDAT                                #  ENTER-REDISPLAY STAR CODE
000089:
000090: 07,2065           41314        DODAT              CS       MARKSTAT                              #  SET BIT12 TO DISCOURAGE MARKRUPT
000091: 07,2066           75013                           MASK     BIT12                                 #    BIT12 RESET AT GETMARK
000092: 07,2067           27314                           ADS      MARKSTAT
000093:
000094: 07,2070           37715                           CAF      HIGH9                                 #  PICK DETENT CODE FROM BITS7-9 OF AOTCODE
000095: 07,2071           70735                           MASK     AOTCODE                               #  AND SEE IF CODE IS 1,2 OR 3
000096: 07,2072           00006                           EXTEND
000097: 07,2073           75016                           MP       BIT9
000098: 07,2074           55536                           TS       XYMARK                                #  STORE DETENT
000099:
000100: 07,2075           00006                           EXTEND
000101: 07,2076           62057                           BZMF     GETDAT                                #  NO GOOD-MAKE REQUEST AGAIN
000102:
000103: 07,2077           75024                           MASK     BIT3                                  #  SEE IF DETENT CODE 4 OR 5
000104: 07,2100           00006                           EXTEND
000105: 07,2101           12122                           BZF      CODE123                               #  NOT 4 OR 5, MUST BE 1,2 OR 3
000106:
000107: 07,2102                                           COUNT*   $$/COAS
000108:
000109: 07,2102           32356        CODE4OR5           CAF      V06N87*                               #  CODE 4 OR 5, GET OPTIC AXIS CALIBRATIONS
000110: 07,2103           04655                           TC       BANKCALL                              #  AZ AND EL OF SIGHTING DEVICE FROM ASTRO
000111: 07,2104           20406                           CADR     GOFLASH
000112:
000113: 07,2105           04106                           TC       GOTOPOOH                              #  V34-TERMINATE
000114: 07,2106           12110                           TCF      +2                                    #  PROCEED
000115: 07,2107           12102                           TCF      CODE4OR5                              #  ON ENTER, RECYCLE
000116: 07,2110           00006                           EXTEND
000117: 07,2111           31350                           DCA      AZ                                    #  PICK UP AZ AND EL IN SP 2S COMP
000118: 07,2112           50120                           INDEX    FIXLOC
000119: 07,2113           52011                           DXCH     8D                                    #  STORE IN 8D AND 9D OF LOCAL VAC
000120: 07,2114           35026                           CAF      BIT1                                  #  IF CODE 4, REAR AOT POSITIONS USED
000121: 07,2115           71536                           MASK     XYMARK                                #  SO CALC APPARENT ROTATION
000122: 07,2116           00006                           EXTEND                                         #  IF CODE 5, BACKUP, ZERO ROTATION
000123: 07,2117           12132                           BZF      CODE4                                 #  REAR AOT DETENTS TO BE USED
000124: 07,2120           35030                           CAF      ZERO                                  #  BACKUP SYSTEM TO BE USED
000125: 07,2121           12136                           TCF      CODE5
000126:
000127: 07,2122                                           COUNT*   $$/MARK
000128:
000129: 07,2122           51536        CODE123            INDEX    XYMARK                                #  INDEX DET CODE 1,2 OR 3
000130: 07,2123           31406                           CA       AOTEL      -1
000131: 07,2124           50120                           INDEX    FIXLOC
000132:
000133: 07,2125           54011                           TS       9D                                    #  STORE ELEVATION IN VAC+9D
000134:
000135: 07,2126           51536                           INDEX    XYMARK                                #  INDEX DET CODE 1,2 OR 3
000136: 07,2127           31403                           CA       AOTAZ      -1
000137: 07,2130           50120                           INDEX    FIXLOC
000138: 07,2131           54010                           TS       8D                                    #  STORE AZIMUTH IN VAC+8D
000139:
000140: 07,2132           31405        CODE4              CA       AOTAZ      +1                         #  COMPENSATION FOR APPARENT RATATION OF
000141: 07,2133           00006                           EXTEND                                         #  AOT FIELD OF VIEW IN LEFT AND RIGTHT
000142: 07,2134           50120                           INDEX    FIXLOC                                #  DETENTS IS STORED IN VAC +10D IN SP
000143: 07,2135           20010                           MSU      8D                                    #  PRECISION ONES COMPLEMENT
000144: 07,2136           50120        CODE5              INDEX    FIXLOC
000145: 07,2137           54012                           TS       10D                                   #  ROT ANGLE
000146:
000147: 07,2140           06014                           TC       INTPRET                               #  COMPUTE X AND Y PLANE VECTORS
000148:
000149:                                                                                                  #  THE OPTAXIS SUBROUTINE COMPUTES THE X AND Y MARK PLANE VECS AND
000150:                                                                                                  #  AND ROTATES THEM THRU THE APPARENT FIELD OF VIEW ROTATION UNIQUE TO AOT
000151:                                                                                                  #  OPTAXIS USES OANB TO COMPUTE THE OPTIC AXIS
000152:                                                                                                  #   INPUT-AZIMUTH ANGLE IN SINGLE PREC AT CDU SCALE IN 8D OF JOB VAC
000153:                                                                                                  #         ELEVATION ANGLE IN SINGLE PREC AT CDU SCALE IN 9D OF JOB VAC
000154:                                                                                                  #         ROTATION ANGLE IN SINGLE PREC 1S COMP SCALED BY PI IN 10D OF VAC
000155:                                                                                                  #   OUTPUT-OPTIC AXIS VEC IN NB COORDS IN SCAXIS
000156:                                                                                                  #          X-MARK PLANE 1/4VEC IN NB COORDS AT 18D OF JOB VAC
000157:                                                                                                  #          Y-MARK PLANE 1/4VEC IN NB COORDS AT 12D OF JOB VAC
000158:
000159: 07,2141           77624        OPTAXIS            CALL                                           #  GO COMPUTE OA AND X AND Y PLANE VECS
000160: 07,2142           16170                                    OANB
000161: 07,2143           70535                           SLOAD    SR1                                   #  LOAD APP ROTATION IN ONES COMP
000162: 07,2144           00013                                    10D                                   #  RESCALE BY 2PI
000163: 07,2145           73406                           PUSH     SIN                                   #  1/2SIN(ROT)  0-1
000164: 07,2146           71525                           PDDL     COS
000165: 07,2147           74206                           PUSH     VXSC                                  #  1/2COS(ROT)  2-3
000166: 07,2150           00023                                    18D
000167: 07,2151           74325                           PDDL     VXSC                                  #  1/4COS(ROT)UYP   4-9
000168: 07,2152           00001                                    0
000169: 07,2153           00031                                    24D                                   #  1/4SIN(ROT)UXP
000170: 07,2154           45445                           BVSU     STADR                                 #  UP 4-9
000171: 07,2155           63762                           STODL    12D                                   #  YPNB=1/4(COS(ROT)UYP-SIN(ROT)UXP)
000172: 07,2156           65361                           VXSC     PDDL                                  #  UP 2-3  UP 0-1  FOR EXCHANGE
000173: 07,2157           00031                                    24D                                   #  1/4COS(ROT)UXP  PUSH 0-5
000174: 07,2160           53361                           VXSC     VAD                                   #  1/4SIN(ROT)UYP
000175: 07,2161           00023                                    18D                                   #  UP 0-5
000176: 07,2162           77626                           STADR
000177: 07,2163           53754                           STOVL    18D                                   #  XPNB=1/4(COS(ROT)UXP+SIN(ROT)UYP)
000178: 07,2164           22276                                    LO6ZEROS                              #  INITIALIZE AVE STAR VEC ACCUMULATOR
000179: 07,2165           02715                           STORE    STARAD     +6
000180: 07,2166           77776                           EXIT
000181: 07,2167           12230                           TCF      GETMKS
000182:
000183:                                                                                                  #  THE OANB SUBROUTINE COMPUTES THE OPTIC AXIS OF THE SIGHTING INSTRUMENT
000184:                                                                                                  #  FROM AZIMUTH AND ELEVATION INPUT FROM THE ASTRONAUT.
000185:                                                                                                  #     INPUT- AZIMUTH ANGLE IN SINGLE PREC 2S COMP IN 8D OF JOB VAC
000186:                                                                                                  #            ELEVATION ANGLE IN SINGLE PREC 2S COMP IN 9D OF VAC
000187:                                                                                                  #     OUTPUT-OPTIC AXIS IN NB COORDS. IN SCAXIS
000188:                                                                                                  #            X-PLANE 1/2VEC IN NB COORDS AT 24D OF VAC
000189:                                                                                                  #            Y-PLANE 1/2VEC IN NB COORDS AT 18D OF VAC
000190:
000191: 07,2170           44001        OANB               SETPD    STQ
000192: 07,2171           00001                                    0
000193: 07,2172           02736                                    GCTR                                  #  STORE RETURN
000194: 07,2173           47135                           SLOAD    RTB
000195: 07,2174           00012                                    9D                                    #  PICK UP SP ELV
000196: 07,2175           21457                                    CDULOGIC
000197: 07,2176           71406                           PUSH     COS
000198: 07,2177           73525                           PDDL     SIN                                   #  1/2COS(ELV)  PD 0-1
000199: 07,2200           77626                           STADR
000200: 07,2201           62527                           STODL    SCAXIS                                #  OAX=1/2SIN(ELV)
000201: 07,2202           00011                                    8D                                    #  PICK UP AZ SP
000202: 07,2203           77634                           RTB
000203: 07,2204           21457                                    CDULOGIC
000204: 07,2205           71406                           PUSH     COS
000205: 07,2206           00025                           STORE    20D                                   #  STORE UYP(Y) 20-21
000206: 07,2207           73525                           PDDL     SIN                                   #  1/2COS(AZ) PD 2-3
000207: 07,2210           57406                           PUSH     DCOMP                                 #  PUSH 1/2SIN(AZ) 4-5
000208: 07,2211           14027                           STODL    22D                                   #  STORE UYP(Z) 22-23
000209: 07,2212           22276                                    LO6ZEROS
000210: 07,2213           14023                           STODL    18D                                   #  STORE UYP(X) 18-19   UP 4-5
000211: 07,2214           72405                           DMP      SL1
000212: 07,2215           00001                                    0
000213: 07,2216           15252                           STODL    SCAXIS     +2                         #  OAY=1/2COS(ELV)SIN(AZ)
000214: 07,2217           72405                           DMP      SL1                                   #  UP 2-3
000215: 07,2220           77626                           STADR                                          #  UP 0-1
000216: 07,2221           52523                           STOVL    SCAXIS     +4                         #  OAZ=1/2COS(ELV)COS(AZ)
000217: 07,2222           00023                                    18D                                   #  LOAD UYP VEC
000218: 07,2223           76435                           VXV      VSL1
000219: 07,2224           01250                                    SCAXIS                                #  UXP VEC=UYP X OA
000220: 07,2225           00031                           STORE    24D                                   #  STORE UXP
000221: 07,2226           77650                           GOTO
000222: 07,2227           02736                                    GCTR
000223:
000224:                                                                                                  #  THE GETMKS ROUTINE INITIALIZES THE SIGHTING MARK PROCEDURE
000225:
000226: 07,2230           35030        GETMKS             CAF      ZERO                                  #  INITIALIZE MARK ID REGISTER AND MARK CNT
000227: 07,2231           55536                           TS       XYMARK
000228: 07,2232           55535                           TS       MARKCNTR
000229: 07,2233           35054                           CAF      LOW9                                  #  ZERO BITS10 TO 15 RETAINING MKVAC ADR
000230: 07,2234           71314                           MASK     MARKSTAT
000231: 07,2235           55314                           TS       MARKSTAT
000232: 07,2236           32615                           CAF      MKVB54*                               #  DISPLAY VB54 INITIALLY
000233: 07,2237           04655        PASTIT             TC       BANKCALL
000234: 07,2240           20237                           CADR     GOMARK4
000235:
000236: 07,2241           04106                           TC       GOTOPOOH                              #  VB34 TERMINATE-THIS RELEASES MKVAC AREA
000237: 07,2242           12244                           TCF      MARKCHEX                              #  VB33-PROCEED, GOT MARKS, COMPUTE LOS
000238: 07,2243           12057                           TCF      GETDAT                                #  ENTER- RECYCLE TO V01N71
000239:
000240: 07,2244           41314        MARKCHEX           CS       MARKSTAT                              #  SET BIT12 TO DISCOURAGE MARKRUPT
000241: 07,2245           75013                           MASK     BIT12
000242: 07,2246           27314                           ADS      MARKSTAT
000243: 07,2247           75054                           MASK     LOW9
000244: 07,2250           55536                           TS       XYMARK                                #  JAM MARK VAC ADR IN XYMARK FOR AVESTAR
000245: 07,2251           35030                           CAF      ZERO
000246: 07,2252           55537                           TS       MKDEX                                 #  SET MKDEX ZERO FOR LOS VEC CNTR
000247: 07,2253           31314                           CA       MARKSTAT
000248: 07,2254           75065                           MASK     PRIO3                                 #  SEE IF LAST MK PARI COMPLETE
000249: 07,2255           54001                           TS       L
000250: 07,2256           35065                           CAF      PRIO3                                 #  BITS10 AND 11
000251: 07,2257           00006                           EXTEND
000252: 07,2260           06001                           RXOR     LCHAN
000253: 07,2261           00006                           EXTEND
000254: 07,2262           12267                           BZF      AVESTAR                               #  LAST PAIR COMPLETE-GO COMPUTE LOS
000255: 07,2263           11535        CNTCHK             CCS      MARKCNTR                              #  NO PAIR SHOWING-SEE IF PAIR IN HOLD
000256: 07,2264           12266                           TCF      +2                                    #  PAIR BURIED-DECREMENT COUNTER
000257: 07,2265           12352                           TCF      MKALARM                               #  NO PAIR-ALARM
000258: 07,2266           55535                           TS       MARKCNTR                              #  STORE DECREMENTED COUNTER
000259:
000260: 07,2267           31535        AVESTAR            CA       MARKCNTR
000261: 07,2270           00006                           EXTEND
000262: 07,2271           76216                           MP       SIX                                   #  GET C(L) = - 6 MARKCNTR
000263: 07,2272           56001                           XCH      L
000264: 07,2273           61536                           AD       XYMARK                                #  ADD - MARK VAC ADR SET IN MARKCHEX
000265: 07,2274           50120                           INDEX    FIXLOC
000266: 07,2275           54050                           TS       S1                                    #  JAM - CDU ADR OF X-MARK IN S1
000267:
000268: 07,2276           35013                           CAF      BIT12                                 #  INITIALIZE MKDEX FOR STAR LOS COUNTER
000269: 07,2277           27537                           ADS      MKDEX                                 #  MKDEX WAS INITIALIZED ZERO IN MARKCHEX
000270:
000271: 07,2300           06014                           TC       INTPRET
000272:
000273: 07,2301           77201                           SETPD    VLOAD
000274: 07,2302           00001                                    0                                     #  SET PD POINTER TO ZERO
000275: 07,2303           00023                                    18D                                   #  LOAD STAR VECTOR IN NB
000276: 07,2304           34041                           STCALL   32D
000277: 07,2305           47441                                    NBSM                                  #  CONVERT IT TO STABLE MEMBER
000278: 07,2306           24031                           STOVL    24D
000279: 07,2307           00015                                    12D
000280: 07,2310           62120                           XCHX,1   INCR,1
000281: 07,2311           00050                                    S1
000282: 07,2312           00001                                    1
000283: 07,2313           77720                           XCHX,1
000284: 07,2314           00050                                    S1
000285: 07,2315           34041                           STCALL   32D
000286: 07,2316           47441                                    NBSM
000287: 07,2317           77635                           VXV
000288: 07,2320           00031                                    24D
000289: 07,2321           53476                           VCOMP    UNIT
000290: 07,2322           00031                           STORE    24D
000291:
000292: 07,2323           63335        AVEIT              SLOAD    PDVL                                  #  N(NUMBER OF VECS) IN 0-1
000293: 07,2324           03540                                    MKDEX
000294: 07,2325           00031                                    24D                                   #  LOAD CURRENT VECTOR
000295: 07,2326           70322                           VSR3     V/SC
000296: 07,2327           00001                                    0
000297: 07,2330           14031                           STODL    24D                                   #  VEC/N
000298: 07,2331           00001                                    0
000299: 07,2332           56225                           DSU      DDV
000300: 07,2333           16617                                    DP1/8                                 #  (N-1)/N
000301: 07,2334           53361                           VXSC     VAD
000302: 07,2335           02715                                    STARAD     +6                         #  ADD VEC TO PREVIOUSLY AVERAGED VECTOR
000303: 07,2336           00031                                    24D                                   #  (N-1)/N AVESTVEC + VEC/N
000304: 07,2337           02715                           STORE    STARAD     +6                         #  AVERAGE STAR VECTOR
000305: 07,2340           02767                           STORE    STARSAV2
000306: 07,2341           77776                           EXIT
000307: 07,2342           11535                           CCS      MARKCNTR                              #  SEE IF ANOTHER MARK PAIR IN MKVAC
000308: 07,2343           12266                           TCF      AVESTAR    -1                         #  THERE IS-GO GET IT-DECREMENT COUNTER
000309: 07,2344           35031        ENDMARKS           CAF      FIVE                                  #  NO MORE MARKS-TERMINATE AOTMARK
000310: 07,2345           00004                           INHINT
000311: 07,2346           05252                           TC       WAITLIST
000312: 07,2347  E7,1536                                  EBANK=   XYMARK
000313: 07,2347           02046 16067                     2CADR    MKRELEAS
000314:
000315: 07,2351           05564                           TC       ENDMARK
000316:
000317: 07,2352           05651        MKALARM            TC       ALARM                                 #  NOT A PAIR TO PROCESS-DO GETMKS
000318: 07,2353           00111                           OCT      111
000319: 07,2354           12230                           TCF      GETMKS
000320:
000321: 07,2355           00307        V01N71             VN       171
000322: 07,2356           01527        V06N87*            VN       687
000323:
000324:                                                                                                  #  MARKRUPT IS ENTERED FROM INTERUPT LEAD-INS AND PROCESSES CHANNEL 16
000325:                                                                                                  #  CAUSED BY X,Y MARK OR MARK REJECT OR BY THE RATE OF DESCENT SWITCH
000326:
000327: 07,2357           54016        MARKRUPT           TS       BANKRUPT
000328: 07,2360           30033                           CA       CDUY                                  #  STORE CDUS AND TIME NOW-THEN SEE IF
000329: 07,2361           54063                           TS       ITEMP3                                #  WE NEED THEM
000330: 07,2362           30034                           CA       CDUZ
000331: 07,2363           54064                           TS       ITEMP4
000332: 07,2364           30032                           CA       CDUX
000333: 07,2365           54065                           TS       ITEMP5
000334: 07,2366           00006                           EXTEND
000335: 07,2367           30025                           DCA      TIME2
000336: 07,2370           52062                           DXCH     ITEMP1
000337: 07,2371           56002                           XCH      Q
000338: 07,2372           54012                           TS       QRUPT
000339:
000340: 07,2373           32620                           CAF      OCT34                                 #  SEE IF X OR Y MARK OR MKREJECT
000341: 07,2374           00006                           EXTEND
000342: 07,2375           02016                           RAND     NAVKEYIN
000343: 07,2376           10000                           CCS      A
000344: 07,2377           12401                           TCF      +2                                    #  ITS A LIVE ONE-SEE IF ITS WANTED
000345: 07,2400           12431                           TCF      SOMEKEY                               #  ITS SOME OTHER KEY
000346:
000347: 07,2401           35013                           CAF      BIT12                                 #  ARE WE ASKING FOR A MARK
000348: 07,2402           71314                           MASK     MARKSTAT
000349: 07,2403           10000                           CCS      A
000350: 07,2404           05340                           TC       RESUME                                #  DONT WANT MARK OR MKREJECT-DO NOTHING
000351:
000352: 07,2405           11314                           CCS      MARKSTAT                              #  ARE MARKS BEING ACCEPTED
000353: 07,2406           12412                           TCF      FINDKEY                               #  THEY ARE-WHICH ONE IS IT
000354: 07,2407           05651                           TC       ALARM                                 #  MARKS NOT BEING ACCEPTED-DO ALARM
000355: 07,2410           00112                           OCT      112
000356: 07,2411           05340                           TC       RESUME
000357:
000358: 07,2412           35022        FINDKEY            CAF      BIT5                                  #  SEE IF MARK REJECT
000359: 07,2413           00006                           EXTEND
000360: 07,2414           02016                           RAND     NAVKEYIN
000361: 07,2415           10000                           CCS      A
000362: 07,2416           12502                           TCF      MKREJ                                 #  ITS A MARK REJECT
000363:
000364: 07,2417           35023                           CAF      BIT4                                  #  SEE IF Y MARK
000365: 07,2420           00006                           EXTEND
000366: 07,2421           02016                           RAND     NAVKEYIN
000367: 07,2422           10000                           CCS      A
000368:
000369: 07,2423           12447                           TCF      YMKRUPT                               #  ITS A Y MARK
000370:
000371: 07,2424           35024                           CAF      BIT3                                  #  SEE IF X MARK
000372: 07,2425           00006                           EXTEND
000373: 07,2426           02016                           RAND     NAVKEYIN
000374:
000375: 07,2427           10000                           CCS      A
000376: 07,2430           12443                           TCF      XMKRUPT                               #  ITS A X MARK
000377:
000378: 07,2431           35046        SOMEKEY            CAF      OCT140                                #  NOT MARK OR MKREJECT-SEE IF DESCENT BITS
000379: 07,2432           00006                           EXTEND
000380: 07,2433           02016                           RAND     NAVKEYIN
000381: 07,2434           00006                           EXTEND
000382: 07,2435           12440                           BZF      +3                                    #  IF NO BITS
000383:
000384: 07,2436           04674                           TC       POSTJUMP                              #  IF DESCENT BITS
000385: 07,2437           42074                           CADR     DESCBITS
000386:
000387: 07,2440           05651                           TC       ALARM                                 #  NO INBITS IN CHANNEL 16
000388: 07,2441           00113                           OCT      113
000389:
000390: 07,2442           05340                           TC       RESUME
000391:
000392: 07,2443           35030        XMKRUPT            CAF      ZERO
000393: 07,2444           54070                           TS       RUPTREG1                              #  SET X MARK STORE INDEX TO ZERO
000394: 07,2445           35015                           CAF      BIT10
000395: 07,2446           12452                           TCF      +4
000396: 07,2447           35026        YMKRUPT            CAF      ONE
000397: 07,2450           54070                           TS       RUPTREG1                              #  SET Y MARK STORE INDEX TO ONE
000398: 07,2451           35014                           CAF      BIT11
000399: 07,2452           55536                           TS       XYMARK                                #  SET MARK IDENTIFIATION
000400:
000401: 07,2453           35011                           CAF      BIT14                                 #  GOT A MARK-SEE IF MARK PAIR MADE
000402: 07,2454           71314                           MASK     MARKSTAT
000403: 07,2455           00006                           EXTEND
000404: 07,2456           12467                           BZF      VERIFYMK                              #  NOT A PAIR, NORMAL PROCEDURE
000405: 07,2457           41535                           CS       MARKCNTR                              #  GOT A PAIR, SEE IF ANOTHER CAN BE MADE
000406: 07,2460           65024                           AD       FOUR                                  #  IF SO, INCREMENT POINTER,CLEAR BITS10,11
000407: 07,2461           00006                           EXTEND
000408: 07,2462           62477                           BZMF     5MKALARM                              #  HAVE FIVE MARK PAIRS-DONT ALLOW MARK
000409: 07,2463           25535                           INCR     MARKCNTR                              #  OK FOR ANOTHER PAIR, INCR POINTER
000410: 07,2464           47663                           CS       PRIO23                                #  CLEAR BITS10,11,14 FOR NEXT PAIR
000411: 07,2465           71314                           MASK     MARKSTAT
000412: 07,2466           55314                           TS       MARKSTAT
000413:
000414: 07,2467           31536        VERIFYMK           CA       XYMARK
000415: 07,2470           71314                           MASK     MARKSTAT
000416: 07,2471           10000                           CCS      A
000417: 07,2472           12474                           TCF      +2                                    #  THIS MARK NOT DESIRED
000418: 07,2473           12526                           TCF      VACSTOR                               #  MARK DESIRED - STORE CDUS
000419: 07,2474           05651                           TC       ALARM
000420: 07,2475           00114                           OCT      114
000421: 07,2476           05340                           TC       RESUME                                #  RESUME-DISPLAY UNCHANGED-WAIT FOR ACTION
000422:
000423: 07,2477           05651        5MKALARM           TC       ALARM                                 #  ATTEMPTING TO MAKE MORE THAN 5 MK PAIRS
000424: 07,2500           00107                           OCT      107
000425: 07,2501           05340                           TC       RESUME                                #  DONT CHANGE DISPLAY-DO NOTHING
000426:
000427: 07,2502           35065        MKREJ              CAF      PRIO3                                 #  INFLIGHT-SEE IF MARKS MADE
000428: 07,2503           71314                           MASK     MARKSTAT
000429: 07,2504           10000                           CCS      A
000430: 07,2505           12511                           TCF      REJECT                                #  MARKS MADE-REJECT ONE
000431: 07,2506           05651                           TC       ALARM                                 #  NO MARK TO REJECT-BAD PROCEDURE-ALARM
000432: 07,2507           00115                           OCT      115
000433: 07,2510           05340                           TC       RESUME                                #  DESIRED ACTION DISPLAYED
000434:
000435: 07,2511           44367        REJECT             CS       PRIO30                                #  ZERO BIT14,SHOW REJ.,SEE IF MARK SINCE
000436: 07,2512           71314                           MASK     MARKSTAT                              #  LAST REJECT
000437: 07,2513           65012                           AD       BIT13
000438: 07,2514           57314                           XCH      MARKSTAT
000439: 07,2515           75012                           MASK     BIT13
000440: 07,2516           10000                           CCS      A
000441: 07,2517           12524                           TCF      REJECT2                               #  ANOTHER REJECT SET BIT 10+11 TO ZERO
000442:
000443: 07,2520           41536                           CS       XYMARK                                #  MARK MADE SINCE REJECT-REJECT MARK IN 1D
000444: 07,2521           71314        RENEWMK            MASK     MARKSTAT
000445: 07,2522           55314                           TS       MARKSTAT
000446: 07,2523           12574                           TCF      REMARK                                #  GO REQUEST NEW MARK ACTION
000447:
000448: 07,2524           45065        REJECT2            CS       PRIO3                                 #  ON SECOND REJECT-DISPLAY VB53 AGAIN
000449: 07,2525           12521                           TCF      RENEWMK
000450:
000451: 07,2526           35054        VACSTOR            CAF      LOW9
000452: 07,2527           71314                           MASK     MARKSTAT                              #  STORE MARK VAC ADR IN RUPTREG2
000453: 07,2530           54071                           TS       RUPTREG2
000454: 07,2531           00006                           EXTEND
000455: 07,2532           30062                           DCA      ITEMP1                                #  PICK UP MARKTIME
000456: 07,2533           53547                           DXCH     TSIGHT                                #  STORE LAST MARK TIME
000457: 07,2534           31535                           CA       MARKCNTR                              #  6 X MARKCNTR FOR STORE INDEX
000458: 07,2535           00006                           EXTEND
000459: 07,2536           76216                           MP       SIX
000460: 07,2537           56001                           XCH      L                                     #  GET INDEX FROM LOW ORDER PART
000461: 07,2540           60071                           AD       RUPTREG2                              #  SET CDU STORE INDEX TO MARKVAC
000462: 07,2541           26070                           ADS      RUPTREG1                              #  INCREMENT VAC PICKUP BY MARK FOR FLIGHT
000463: 07,2542           30063                           CA       ITEMP3
000464: 07,2543           50070                           INDEX    RUPTREG1
000465: 07,2544           54000                           TS       0                                     #  STORE CDUY
000466: 07,2545           30064                           CA       ITEMP4
000467: 07,2546           50070                           INDEX    RUPTREG1
000468: 07,2547           54002                           TS       2                                     #  STORE CDUZ
000469: 07,2550           30065                           CA       ITEMP5
000470: 07,2551           50070                           INDEX    RUPTREG1
000471: 07,2552           54004                           TS       4                                     #  STORE CDUX
000472:
000473: 07,2553           35012                           CAF      BIT13                                 #  CLEAR BIT13 TO SHOW MARK MADE
000474: 07,2554           61536                           AD       XYMARK                                #  SET MARK ID IN MARKSTAT
000475: 07,2555           40000                           COM
000476: 07,2556           71314                           MASK     MARKSTAT
000477: 07,2557           61536                           AD       XYMARK
000478: 07,2560           55314                           TS       MARKSTAT
000479: 07,2561           75065                           MASK     PRIO3                                 #  SEE IF X, Y MARK MADE
000480: 07,2562           54001                           TS       L
000481:
000482: 07,2563           35065                           CA       PRIO3
000483: 07,2564           00006                           EXTEND
000484: 07,2565           06001                           RXOR     LCHAN
000485: 07,2566           10000                           CCS      A
000486: 07,2567           12574                           TCF      REMARK                                #  NOT PAIR YET, DISPLAY MARK ACTION
000487: 07,2570           41314                           CS       MARKSTAT                              #  MARK PAIR COMPLETE-SET BIT14
000488: 07,2571           75011                           MASK     BIT14
000489: 07,2572           27314                           ADS      MARKSTAT
000490: 07,2573           12574                           TCF      REMARK                                #  GO DISPLAY V54
000491:
000492: 07,2574           35065        REMARK             CAF      PRIO3                                 #  BITS 10 AND 11
000493: 07,2575           71314                           MASK     MARKSTAT
000494: 07,2576           00006                           EXTEND
000495: 07,2577           75021                           MP       BIT6                                  #  SHIFT MARK IDS TO BE 0 TO 3 FOR INDEX
000496: 07,2600           55537                           TS       MKDEX                                 #  STORE VERB INDEX
000497: 07,2601           37672                           CAF      PRIO32
000498: 07,2602           05142                           TC       NOVAC                                 #  ENTER JOB TO CHANGE DISPLAY TO
000499: 07,2603  E7,1536                                  EBANK=   XYMARK                                #  REQUEST NEXT ACTION
000500: 07,2603           02606 16067                     2CADR    CHANGEVB
000501:
000502: 07,2605           05340                           TC       RESUME
000503:
000504: 07,2606           51537        CHANGEVB           INDEX    MKDEX                                 #  INFLIGHT-PICK UP MARK VB INDEX
000505: 07,2607           32612                           CAF      MKVB54
000506: 07,2610           04655                           TC       BANKCALL                              #  PASTE UP NEXT MK VERB DISPLAY
000507: 07,2611           16237                           CADR     PASTIT
000508:
000509:                                                                                                  #  THE FOUR MKVBS ARE INDEXED-THEIR ORDER CANNOT BE CHANGED
000510:
000511: 07,2612           15507        MKVB54             VN       5471                                  #  MAKE X OR Y MARK
000512: 07,2613           15307        MKVB53             VN       5371                                  #  MAKE Y MARK
000513: 07,2614           15107        MKVB52             VN       5271                                  #  MAKE X MARK
000514: 07,2615           15507        MKVB54*            VN       5471                                  #  MAKE X OR Y MARK
000515: 07,2616           04000 00000  DP1/8              2DEC     .125
000516: 07,2620           00034        OCT34              OCT      34
000517: 07,2621           01507        V06N71             VN       671

End of include-file AOTMARK.agc.  Parent file is MAIN.agc


