
Source Code


000002:                                                                                                  ## Copyright:   Public domain.
000003:                                                                                                  ## Filename:    CONIC_SUBROUTINES.agc
000004:                                                                                                  ## Purpose:     A section of an attempt to reconstruct Sundance revision 306
000005:                                                                                                  ##              as closely as possible with available information. Sundance
000006:                                                                                                  ##              306 is the source code for the Lunar Module's (LM) Apollo
000007:                                                                                                  ##              Guidance Computer (AGC) for Apollo 9. This program was created
000008:                                                                                                  ##              using the mixed-revision SundanceXXX as a starting point, and
000009:                                                                                                  ##              pulling back features from Luminary 69 believed to have been
000010:                                                                                                  ##              added based on memos, checklists, observed address changes,
000011:                                                                                                  ##              or the Sundance GSOPs.
000012:                                                                                                  ## Assembler:   yaYUL
000013:                                                                                                  ## Contact:     Ron Burkey <info@sandroid.org>.
000014:                                                                                                  ## Website:     www.ibiblio.org/apollo/index.html
000015:                                                                                                  ## Mod history: 2020-07-24 MAS  Created from SundanceXXX.
000016:
000017:
000018:
000019:                                                                                                  #  PROGRAM DESCRIPTION - ENTIRE CONIC SUBROUTINE LOG SECTION                       DATE - 1 SEPTEMBER 1967
000020:                                                                                                  #  MOD NO. - 0                                                                     LOG SECTION - CONIC SUBROUTINES
000021:                                                                                                  #  MOD BY KRAUSE                                                                   ASSEMBLY - COLOSSUS REVISION 88
000022:
000023:
000024:                                                                                                  #  FUNCTIONAL DESCRIPTION -
000025:
000026:                                                                                                  #       THE FOLLOWING SET OF SUBROUTINES SOLVE VARIOUS PROBLEMS INVOLVING THE TRAJECTORY PRODUCED BY A CENTRAL
000027:                                                                                                  #  INVERSE-SQUARE FORCE ACTING ON A POINT MASS, AS OUTLINED IN THE CMC AND LGC LUNAR LANDING MISSION GSOP, SECTION
000028:                                                                                                  #  5.5.1.2.  A GENERAL USAGE POINT-OF-VIEW WAS TAKEN IN FORMULATING, MECHANIZING, AND SCALING THE SUBROUTINES,
000029:                                                                                                  #  RATHER THAN OPTIMIZING EACH FOR A PARTICULAR USE.  THEREFORE, MULTIPLE USAGE CAN BE MADE OF THE SUBROUTINES
000030:                                                                                                  #  INVOLVING ANY REALISTIC SET OF CONSTRAINTS.  IT SHOULD BE NOTED THAT ONLY ONE SET OF CODING IS USED, WHETHER THE
000031:                                                                                                  #  EARTH, MOON, OR ANY OTHER CELESTIAL BODY IS SPECIFIED AS THE CENTRAL BODY OF THE PROBLEM, PROVIDED ONE OBSERVES
000032:                                                                                                  #  THE INHERENT SCALE CHANGE REQUIRED IN POSITION, VELOCITY, MU, AND TIME, AS OUTLINED IN MISSION PROGRAMMING
000033:                                                                                                  #  DEFINITION MEMO NO. 10.  THIS CAN BE ACCOMPLISHED BY SIMPLY ADDING TO THE MUTABLE AND INITIALIZING THE SUBROU-
000034:                                                                                                  #  TINES APPROPRIATELY.
000035:                                                                                                  #       DUE TO THE UNIFORMITY OF THE EQUATIONS INVOLVED, CODING WAS MINIMIZED BY TREATING INDIVIDUAL EQUATIONS AND
000036:                                                                                                  #  BLOCKS OF EQUATIONS AS SUBROUTINES OF LOWER RANK WHENEVER POSSIBLE.  AS A RESULT, THREE BY-PRODUCTS SUBROUTINES,
000037:                                                                                                  #  DIRECTLY USABLE AS INDEPENDENT SUBROUTINES, WERE GENERATED.
000038:
000039:
000040:                                                                                                  #  RESTRICTIONS -
000041:
000042:                                                                                                  #       THE ONLY LIMITATION IN THE SCOPE OF PROBLEM WHICH CAN BE SOLVED BY A PARTICULAR SUBROUTINE IS THE SCALING
000043:                                                                                                  #  LIMIT OF EACH PARAMETER AS SPECIFIED IN THE GSOP.  THESE SCALING LIMITS WERE CHOSEN SO THAT ALL FEASIBLE TRAJEC-
000044:                                                                                                  #  TORIES COULD BE HANDLED.
000045:                                                                                                  #       SINCE THE SUBROUTINES (EXCEPT KEPLER) USE COMMON SUBROUTINES OF LOWER RANK WHICH USE ERASABLE OTHER THAN
000046:                                                                                                  #  THE PUSHLIST (DUE TO ITS LIMITED SIZE) AND COMMON INTERPRETIVE SWITCHES, THE CONIC SUBROUTINES CANNOT BE ALLOWED
000047:                                                                                                  #  TO INTERRUPT EACH OTHER.  IT IS UP TO THE USER TO GUARANTEE THIS CONDITION.
000048:
000049:
000050:                                                                                                  #  PROGRAM DESCRIPTION - KEPLER SUBROUTINE                                 DATE - 11 OCTOBER 1967
000051:                                                                                                  #  MOD NO. -1                                                                       LOG SECTION - CONIC SUBROUTINES
000052:                                                                                                  #  MOD BY KRAUSE                                                           ASSEMBLY - COLOSSUS 103 AND SUNDANCE 222
000053:
000054:
000055:                                                                                                  #  FUNCTIONAL DESCRIPTION -
000056:                                                                                                  #       THIS SUBROUTINE, GIVEN AN INITIAL STATE VECTOR AND THE DESIRED TRANSFER TIME THROUGH WHICH THE STATE IS TO
000057:                                                                                                  #  BE UPDATED ALONG A CONIC TRAJECTORY, COMPUTES THE NEW, UPDATED STATE VECTOR.  THE TRAJECTORY MAY BE ANY CONIC
000058:                                                                                                  #  SECTION - CIRCULAR, ELLIPTIC, PARABOLIC, HYPERBOLIC, OR RECTILINEAR WITH RESPECT TO THE EARTH OR THE MOON.  THE
000059:                                                                                                  #  USE OF THE SUBROUTINE CAN BE EXTENDED USING OTHER PRIMARY BODIES BY SIMPLE ADDITIONS TO THE MUTABLE WITHOUT
000060:                                                                                                  #  INTRODUCING ANY CODING CHANGES, ACCEPTING THE INHERENT SCALE FACTOR CHANGES IN POSITION AND VELOCITY.  AN ITERA-
000061:                                                                                                  #  TION TECHNIQUE IS UTILIZED IN THE COMPUTATION.
000062:                                                                                                  #       IF A NEGATIVE TIME-OF-FLIGHT IS INPUT, THE PROGRAM WILL SOLVE FOR THE STATE WHICH WOULD BE PRODUCED BY
000063:                                                                                                  #  EXTRAPOLATING THE POSITION BACKWARD IN TIME.
000064:                                                                                                  #       IF THE DESIRED TRANSFER TIME IS POSITIVE AND EXCEEDS THE ORBITAL PERIOD, THE SUBROUTINE, THROUGH A MODULAR
000065:                                                                                                  #  TECHNIQUE, WILL COMPUTE THE STATE CORRESPONDING TO THE DESIRED TIME AS USUAL.
000066:
000067:
000068:                                                                                                  #  THE RESTRICTIONS ARE -
000069:                                                                                                  #       1. A NEGATIVE DESIRED TIME MUST BE LESS THAN ONE PERIOD IN MAGNITUDE.  IF GREATER, THE ONE-PERIOD- SOLUTION
000070:                                                                                                  #  WILL BE RETURNED.
000071:                                                                                                  #       2.  THE PARAMETERS IN THE PROBLEM CANNOT EXCEED THEIR SCALING LIMITS AS SPECIFIED IN THE GSOP.  IF
000072:                                                                                                  #  ANY OF THESE LIMITS ARE EXCEEDED, THE RESULTING SOLUTION WILL BE MEANINGLESS.
000073:
000074:
000075:                                                                                                  #       THE NUMBER OF ITERATIONS AND, THEREFORE, THE COMPUTATION SPEED IS DEPENDENT ON THE ACCURACY OF THE
000076:                                                                                                  #  GUESS, XKFPNEW.  THE AGC COMPUTATION TIME IS APPROXIMATELY .061 SECONDS FOR INITIALIZATION, .065 SECONDS FOR THE
000077:                                                                                                  #  FINAL COMPUTATIONS, PLUS .083 SECONDS FOR EACH ITERATION.
000078:
000079:
000080:
000081:                                                                                                  #  REFERENCES -
000082:                                                                                                  #       R-479, MISSION PROGRAMMING DEFINITION MEMO NO. 10, LUNAR LANDING MISSION GSOP, SECTION 5.5, SGA
000083:                                                                                                  #  MEMO 67-4.
000084:
000085:
000086:
000087:                                                                                                  #  INPUT - ERASABLE INITIALIZATION REQUIRED
000088:
000089:                                                                                                  #          * SCALE FACTOR *
000090:                                                                                                  #  VARIABLE*IN POWERS OF 2*                         DESCRIPTION AND REMARKS
000091:                                                                                                  #  --------*--------------*                         -----------------------
000092:                                                                                                  #  RRECT   * +29 FOR EARTH*DP INITIAL POSITION VECTOR IN METERS
000093:                                                                                                  #          * +27 FOR MOON *
000094:                                                                                                  #  VRECT   * +7 FOR EARTH *DP INITIAL VELOCITY VECTOR IN METERS/CENTISECOND
000095:                                                                                                  #          * +5 FOR MOON  *
000096:                                                                                                  #  X1 (38D)* NONE         *INDEX REGISTER SET TO -2D OR -10D ACCORDING TO WHETHER THE EARTH OR MOON,
000097:                                                                                                  #          *              *RESPECTIVELY, IS THE CENTRAL BODY
000098:                                                                                                  #  TAU.    * +28          *DESIRED TRANSFER TIME IN CENTISECONDS (DP)
000099:                                                                                                  #  XKEPNEW * +17 FOR EARTH*GUESS OF X IN METERS-TO-THE-ONE-HALF FROM KEPPREP
000100:                                                                                                  #          * +16 FOR MOON *(DP)
000101:                                                                                                  #  TC      * +28          *DP PREV. VALUE OF TIME IN CENTISECS FROM KEPPREP
000102:                                                                                                  #  XPREV   * +17 FOR EARTH*PREVIOUS VALUE OF X IN METERS-TO-THE-ONE-HALF POWER FROM KEPPREP (DP)
000103:                                                                                                  #          * +16 FOR MOON *(DP)
000104:
000105:
000106:
000107:                                                                                                  #  SUBROUTINES CALLED -
000108:                                                                                                  #       DELTIME
000109:
000110:
000111:
000112:                                                                                                  #  CALLING SEQUENCE AND NORMAL EXIT MODES -
000113:
000114:                                                                                                  #  KEPRTN-2 GOTO                   MUST BE IN INTERPRETIVE MODE AND OVFIND MUST BE CLEAR
000115:                                                                                                  #  KEPRTN-1        KEPLER          RETURNS WITH XPREV IN MPAC. PL IS AT 0.
000116:                                                                                                  #  KEPRTN   ...                    CONTINUE
000117:
000118:                                                                                                  #  KEPLER MUST NOT BE CALLED DIRECTLY SINCE AN INTERRUPTION OF IT WOULD DESTROY THE ERASABLES IT NEEDS TO COMPLETE
000119:                                                                                                  #  THE INTERRUPTED JOB.  THEREFORE THE USER MUST CALL CSMCONIC OR LEMCONIC WHICH GUARANTEES NO INTERRUPTS AND WHICH
000120:                                                                                                  #  ALSO CALLS KEPPREP TO COMPUTE A GUESS OF XKEPNEW.
000121:
000122:
000123:
000124:                                                                                                  #  ABORT EXIT MODES -
000125:                                                                                                  #       NONE
000126:
000127:
000128:
000129:                                                                                                  #  OUTPUT -
000130:
000131:                                                                                                  #          * SCALE FACTOR *
000132:                                                                                                  #  VARIABLE*IN POWERS OF 2*                         DESCRIPTION AND REMARKS
000133:                                                                                                  #  --------*--------------*                         -----------------------
000134:                                                                                                  #  RCV     * +29 FOR EARTH*DP TERMINAL POSITION VECTOR IN METERS
000135:                                                                                                  #          * +27 FOR MOON *
000136:                                                                                                  #  VCV     * +7 FOR EARTH *DP TERMINAL VELOCITY VECTOR IN METERS/CENTISEC
000137:                                                                                                  #          * +5 FOR MOON  *
000138:                                                                                                  #  TC      * +28          *DP TRANSFER TIME IN CENTISECS TO WHICH KEPLER CONVERGED.
000139:                                                                                                  #  XPREV   * +17 FOR EARTH*DP X IN METERS-TO-THE-ONE-HALF-POWER TO WHCIH KEPLER CONVERGED.
000140:                                                                                                  #          * +16 FOR MOON *(DP)
000141:                                                                                                  #  FOR OTHER OUTPUT WHICH MAY BE OF USE, SEE DEBRIS.
000142:
000143:
000144:
000145:                                                                                                  #  DEBRIS -
000146:
000147:                                                                                                  #       PARAMETERS WHICH MAY BE OF USE -
000148:
000149:                                                                                                  #          * SCALE FACTOR *
000150:                                                                                                  #  VARIABLE*IN POWERS OF 2*                         DESCRIPTION AND REMARKS
000151:                                                                                                  #  --------*--------------*                         -----------------------
000152:                                                                                                  #  URRECT  * +1           *DP UNIT VECTOR OF INITIAL POSITION
000153:                                                                                                  #  R1      * +29 FOR EARTH*DP MAGNITUDE OF INITIAL POSITION IN METERS
000154:                                                                                                  #          * +27 FOR MOON *
000155:                                                                                                  #  ALPHA   * -22 FOR EARTH*DP INVERSE OF SEMIMAJOR AXIS IN 1/METERS
000156:                                                                                                  #          * -20 FOR MOON *
000157:                                                                                                  #  TMODULO * +28          *DP INTEGRAL NUMBER OF PERIODS IN CENTISECS. WHICH WAS SUBTRACTED FROM TAU. TO PRODUCE A
000158:                                                                                                  #          *              *TAU. OF LESS THAN ONE PERIOD.
000159:
000160:                                                                                                  #       PARAMETERS OF NO USE -
000161:                                                                                                  #  DP PARAMETERS - EPSILONT, DELX, DELT, RCNORM, XMODULO, PLUS PUSHLIST REGISTERS 0 THROUGH 39D.
000162:
000163:
000164:                                                                                                  #  PROGRAM DESCRIPTION - LAMBERT SUBROUTINE                                        DATE - 1 SEPTEMBER 1967
000165:                                                                                                  #  MOD NO. - 0                                                                     LOG SECTION - CONIC SUBROUTINES
000166:                                                                                                  #  MOD BY KRAUSE                                                                   ASSEMBLY - COLOSSUS REVISION 88
000167:
000168:
000169:
000170:                                                                                                  #  FUNCTIONAL DESCRIPTION -
000171:
000172:                                                                                                  #       THIS SUBROUTINE CALCULATES THE INITIAL VELOCITY REQUIRED TO TRANSFER A POINT-MASS ALONG A CONIC TRAJECTORY
000173:                                                                                                  #  FROM AN INITIAL POSITION TO A TERMINAL POSITION IN A PRESCRIBED TIME INTERVAL.  THE RESULTING TRAJECTORY MAY BE
000174:                                                                                                  #  A SECTION OF A CIRCLE, ELLIPSE, PARABOLA, OR HYPERBOLA WITH RESPECT TO THE EARTH OR THE MOON.  THE USE OF THE
000175:                                                                                                  #  SUBROUTINE CAN BE EXTENDED USING OTHER PRIMARY BODIES BY SIMPLE ADDITIONS TO THE MUTABLE WITHOUT INTRODUCING ANY
000176:                                                                                                  #  CODING CHANGES, ACCEPTING THE INHERENT SCALE FACTOR CHANGES IN POSITION AND VELOCITY.  AN ITERATION TECHNIQUE IS
000177:                                                                                                  #  UTILIZED IN THE COMPUTATION.
000178:
000179:
000180:                                                                                                  #  THE RESTRICTIONS ARE -
000181:                                                                                                  #       1. RECTILINEAR TRAJECTORIES CANNOT BE COMPUTED.
000182:                                                                                                  #       2. AN ACCURACY DEGRADATION OCCURS AS THE COSINE OF THE TRUE ANOMALY DIFFERENCE APPROACHES +1.0.
000183:                                                                                                  #       3. THE ANGLE BETWEEN ANY POSITION VECTOR AND ITS VELOCITY VECTOR MUST BE GREATER THAN 1 DEGREE 47.5 MINUTES
000184:                                                                                                  #  AND LESS THAN 178 DEGREES 12.5 MINUTES.
000185:                                                                                                  #       4. NEGATIVE TRANSFER TIME IS AMBIGUOUS AND WILL RESULT IN NO SOLUTION.
000186:                                                                                                  #       5. THE PARAMETERS IN THE PROBLEM MUST NOT EXCEED THEIR SCALING LIMITS SPECIFIED IN THE GSOP.  IF THE
000187:                                                                                                  #  LIMITS ARE EXCEEDED, THE RESULTING SOLUTION WILL BE MEANINGLESS.
000188:                                                                                                  #       THE NUMBER OF ITERATIONS AND, THEREFORE, THE COMPUTATIONS SPEED IS DEPENDENT ON THE ACCURACY OF THE FIRST
000189:                                                                                                  #  GUESS OF THE INDEPENDENT VARIABLE, COGA.                                THE AGC COMPUTATION TIME IS APPROXIMATE-
000190:                                                                                                  #  LY .105 SECONDS FOR INITIALIZATION, .069 SECONDS FOR FINAL COMPUTATIONS, PLUS .205 SECONDS FOR EACH ITERATION.
000191:
000192:
000193:
000194:                                                                                                  #  REFERENCES -
000195:                                                                                                  #       R-479, MISSION PROGRAMMING DEFINITION MEMO NO. 10, LUNAR LANDING MISSION GSOP-SECTION 5.5, SGA MEMO 67-8,
000196:                                                                                                  #  SGA MEMO 67-4.
000197:
000198:
000199:
000200:                                                                                                  #  INPUT - ERASABLE INITIALIZATION REQUIRED
000201:
000202:                                                                                                  #          * SCALE FACTOR *
000203:                                                                                                  #  VARIABLE*IN POWERS OF 2*       DESCRIPTION AND REMARKS
000204:                                                                                                  #  --------*--------------*-----------------------
000205:                                                                                                  #  R1VEC   * +29 FOR EARTH*DP INITIAL POSITION VECTOR IN METERS
000206:                                                                                                  #          * +27 FOR MOON *
000207:                                                                                                  #  R2VEC   * +29 FOR EARTH*DP TARGET OR TERMINAL POSITION VECTOR IN METERS
000208:                                                                                                  #          * +27 FOR MOON *
000209:                                                                                                  #  TDESIRED* +28          *DP DESIRED TRANSFER TIME IN CENTISECONDS
000210:                                                                                                  #  X1 (38D)* NONE         *INDEX REGISTER SET TO -2D OR -10D ACCORDING TO WHETHER THE EARTH OR MOON,
000211:                                                                                                  #          *              *RESPECTIVELY, IS THE CENTRAL BODY
000212:                                                                                                  #  GEOMSGN * NONE         *SP +.5 IF DESIRED TRANSFER ANGLE IS LESS THAN 180 DEGREES, -.5 IF GREATER THAN 180 DEG.
000213:                                                                                                  #  GUESSW  * NONE         *AN INTERPRETER SWITCH TO BE SET IF NO GUESS OF COGA IS AVAILABLE, CLEAR IF A GUESS OF
000214:                                                                                                  #          *              *COGA IS TO BE USED BY LAMBERT
000215:                                                                                                  #  COGA    * +5           *DP GUESS OF COTANGNT OF FLIGHT PATH ANGLE (MEASURED FROM VERTICAL).  THIS WILL BE
000216:                                                                                                  #                         *IGNORED IF GUESSW IS SET.
000217:                                                                                                  #  NORMSW  * NONE         *AN INTERPRETER SWITCH TO BE SET IF UN IS TO BE AN INPUT TO THE SUBROUTINE, CLEAR IF
000218:                                                                                                  #          *              *LAMBERT IS TO COMPUTE ITS OWN NORMAL (UN).
000219:                                                                                                  #  UN      * +1           *DP UNIT  NORMAL TO THE DESIRED ORBIT PLANE IN THE DIRECTION OF THE RESULTING ANGULAR
000220:                                                                                                  #          *              *MOMENTUM VECTOR.  THIS WILL BE IGNORED IF NORMSW IS CLEAR.
000221:                                                                                                  #  VTARGTAG* NONE         *A S.P. TAG TO BE SET TO ZERO IF LAMBERT IS TO COMPUTE THE VELOCITY AT R2VEC AS WELL AS
000222:                                                                                                  #          *              *AT R1VEC.
000223:
000224:
000225:                                                                                                  #  SUBROUTINES CALLED -
000226:                                                                                                  #       GEOM, GETX, DELTIME, ITERATOR, LAMENTER (PART OF NEWSTATE)
000227:
000228:
000229:
000230:                                                                                                  #  CALLING SEQUENCE AND NORMAL EXIT MODES -
000231:
000232:                                                                                                  #  L        CALL                   MUST BE IN INTERPRETIVE MODE AND OVFIND MUST BE CLEAR
000233:                                                                                                  #  L+1             LAMBERT         RETURNS WITH PL AT 0 AND WITH VVEC IN MPAC IF VTARGTAG WAS NON-ZERO OR VTARGET
000234:                                                                                                  #                                  IN MPAC IF VTARGTAG WAS ZERO
000235:                                                                                                  #  L+2      BON                    CONTINUE IF SOLNSW CLEAR SINCE SOLUTION IS ACCEPTABLE
000236:                                                                                                  #  L+3             SOLNSW
000237:                                                                                                  #  L+4             LAMABORT
000238:                                                                                                  #       IF A LAMBERT RESULT IS TO BE A FIRST GUESS FOR THE NEXT LAMBERT CALCULATION, COGA MUST BE PRESERVED AND
000239:                                                                                                  #  GUESSW MUST BE CLEAR FOR EACH SUCCEEDING LAMBERT CALL.
000240:
000241:
000242:
000243:                                                                                                  #  ABORT EXIT MODES -
000244:                                                                                                  #       IF SOLNSW WAS SET UPON EXITING, EITHER LAMBERT WAS ASKED TO COMPUTE A TRANSFER TOO NEAR 0 OR 360 DEG, OR T
000245:                                                                                                  #  WAS TOO SMALL TO PRODUCE A REALISTIC TRANSFER BETWEEN R1VEC AND R2VEC.  IN EITHER CASE THE FIX MUST BE MADE
000246:                                                                                                  #  ACCORDING TO THE NEEDS OF THE PARTICULAR USER.  THE ABORT EXIT MODE MAY BE CODED AS ...
000247:                                                                                                  #  LAMABORT DLOAD  ABS                     A MEASURE OF PROXIMITY TO 0 OR
000248:                                                                                                  #                  1-CSTH                  360 DEGREES.
000249:                                                                                                  #           DSU    BMN
000250:                                                                                                  #                  ONEBIT
000251:                                                                                                  #                  CHANGER2                CHANGE R2VEC DIRECTION SLIGHTLY.
000252:                                                                                                  #           DLOAD  DAD
000253:                                                                                                  #                  TDESIRED
000254:                                                                                                  #                  SOMETIME
000255:                                                                                                  #           STCALL TDESIRED                INCREASE TDESIRED
000256:                                                                                                  #                  LAMBERT
000257:
000258:
000259:                                                                                                  #  OUTPUT -
000260:                                                                                                  #          * SCALE FACTOR *
000261:                                                                                                  #  VARIABLE*IN POWERS OF 2*                         DESCRIPTION AND REMARKS
000262:                                                                                                  #  --------*--------------*                         -----------------------
000263:                                                                                                  #  VVEC    * +7 FOR EARTH *DP INITIAL VELOCITY VECTOR IN METERS/CENTISECOND REQUIRED TO SATISFY THE BOUNDARY VALUE
000264:                                                                                                  #          * +5 FOR MOON  *PROBLEM.
000265:                                                                                                  #  VTARGET * +7 FOR EARTH *DP RESULTANT VELOCITY VECTOR AT R2VEC IN METERS/CENTISECOND.
000266:                                                                                                  #          * +5 FOR MOON  *
000267:                                                                                                  #  SOLNSW  * NONE         *INTERPRETER SWITCH WHICH IS SET IF THE SUBROUTINE CANNOT SOLVE THE PROBLEM, CLEAR IF THE
000268:                                                                                                  #          *              *SOLUTION EXISTS.
000269:                                                                                                  #  FOR OTHER OUTPUT WHICH MAY BE OF USE, SEE DEBRIS.
000270:
000271:
000272:
000273:                                                                                                  #  DEBRIS -
000274:                                                                                                  #       PARAMETERS WHICH MAY BE OF USE -
000275:
000276:                                                                                                  #          * SCALE FACTOR *
000277:                                                                                                  #  VARIABLE*IN POWERS OF 2*                         DESCRIPTION AND REMARKS
000278:                                                                                                  #  --------*--------------*                         -----------------------
000279:                                                                                                  #  SNTH    * +1           *DP SIN OF ANGLE BETWEEN R1VEC AND R2VEC
000280:                                                                                                  #  CSTH    * +1           *DP COSINE OF ANGLE
000281:                                                                                                  #  1-CSTH  * +2           *DP 1-CSTH
000282:                                                                                                  #  COGA    * +5           *DP COTAN OF INITIAL REQUIRED FLIGHT PATH ANGLE MEASURED FROM VERTICAL
000283:                                                                                                  #  P       * +4           *DP RATIO  OF SEMILATUS RECTUM TO INITIAL RADIUS
000284:                                                                                                  #  R1A     * +6           *DP RATIO OF INITIAL RADIUS TO SEMIMAJOR AXIS
000285:                                                                                                  #  R1 (32D)* +29 FOR EARTH*DP INITIAL RADIUS IN METERS
000286:                                                                                                  #          * +27 FOR MOON *
000287:                                                                                                  #  UR1     * +1           *DP UNIT VECTOR OF R1VEC
000288:                                                                                                  #  U2      * +1           *DP UNIT VECTOR OF R2VEC
000289:
000290:                                                                                                  #       PARAMETERS OF NO USE
000291:                                                                                                  #  DP PARAMETERS - EPSILONL, CSTH-RHO, TPREV, TERRLAMB, R2, RTNLAMB (SP),  PLUS PUSHLIST REGISTER 0 THROUGH 41D
000292:                                                                                                  #  ADDITIONAL INTERPRETIVE SWITCHES USED - INFINFLG, 360SW, SLOPESW, ORDERSW
000293:
000294:
000295:                                                                                                  #  PROGRAM DESCRIPTION - TIME-THETA SUBROUTINE                                     DATE - 1 SEPTEMBER 1967
000296:                                                                                                  #  MOD NO. - 0                                                                     LOG SECTION - CONIC SUBROUTINES
000297:                                                                                                  #  MOD BY KRAUSE                                                                   ASSEMBLY - COLOSSUS REVISION 88
000298:
000299:
000300:
000301:                                                                                                  #  FUNCTIONAL DESCRIPTION -
000302:
000303:                                                                                                  #       THIS SUBROUTINE, GIVEN AN INITIAL STATE VECTOR AND A DESIRED TRUE-ANOMALY-DIFFERENCE THROUGH WHICH THE
000304:                                                                                                  #  STATE IS TO BE UPDATED ALONG A CONIC TRAJECTORY, CALCULATES THE CORRESPONDING TIME-OF-FLIGHT AND, IN ADDITION,
000305:                                                                                                  #  PROVIDES THE OPTION OF COMPUTING THE NEW UPDATED STATE VECTOR.  THE RESULTING TRAJECTORY MAY BE A SECTION OF A
000306:                                                                                                  #  CIRCLE, ELLIPSE, PARABOLA, OR HYPERBOLA WITH RESPECT TO THE EARTH OR THE MOON.  THE USE OF THE SUBROUTINE CAN BE
000307:                                                                                                  #  EXTENDED USING OTHER PRIMARY BODIES BY SIMPLE ADDITIONS TO THE MUTABLE WITHOUT INTRODUCING ANY CODING CHANGES,
000308:                                                                                                  #  ACCEPTING THE INHERENT SCALE FACTOR CHANGES IN POSITION AND VELOCITY.
000309:
000310:
000311:                                                                                                  #  THE RESTRICTIONS ARE -
000312:                                                                                                  #       1. THE ANGLE BETWEEN ANY POSITION VECTOR AND ITS VELOCITY VECTOR MUST BE GREATER THAN 1 DEGREE 47.5 MINUTES
000313:                                                                                                  #  AND LESS THAN 178 DEGREES 12.5 MINUTES.
000314:                                                                                                  #       2. THE PARAMETERS IN THE PROBLEM MUST NOT EXCEED THEIR SCALING LIMITS SPECIFIED IN THE GSOP.  IF THE LIMITS
000315:                                                                                                  #  ARE EXCEEDED, THE RESULTING SOLUTION WILL BE MEANINGLESS.
000316:
000317:                                                                                                  #       THE AGC COMPUTATION TIME IS APPROXIMATELY .292 SECONDS.
000318:
000319:
000320:
000321:                                                                                                  #  REFERENCES -
000322:                                                                                                  #       R-479, MISSION PROGRAMMING DEFINITION MEMO NO. 10, LUNAR LANDING MISSION GSOP-SECTION 5.5, SGA MEMO 67-8.
000323:
000324:
000325:
000326:                                                                                                  #  INPUT - ERASABLE INITIALIZATION REQUIRED
000327:
000328:                                                                                                  #          * SCALE FACTOR *
000329:                                                                                                  #  VARIABLE*IN POWERS OF 2*                         DESCRIPTION AND REMARKS
000330:                                                                                                  #  --------*--------------*                         -----------------------
000331:                                                                                                  #  RVEC    * +29 FOR EARTH*DP INITIAL POSITION VECTOR IN METERS
000332:                                                                                                  #          * +27 FOR MOON *
000333:                                                                                                  #  VVEC    * +7 FOR EARTH *DP INITIAL VELOCITY VECTOR IN METERS/CENTISECOND
000334:                                                                                                  #          * +5 FOR MOON  *
000335:                                                                                                  #  SNTH    * +1           *DP SINE OF TRUE-ANOMALY-DIFFERENCE THROUGH WHICH THE STATE IS TO BE UPDATED
000336:                                                                                                  #  CSTH    * +1           *DP COSINE OF THE ANGLE
000337:                                                                                                  #  RVSW    * NONE         *AN INTERPRETIVE SWITCH TO BE SET IF ONLY TIME IS TO BE AN OUTPUT, CLEAR IF THE NEW STATE
000338:                                                                                                  #          *              *IS TO BE COMPUTED ALSO.
000339:                                                                                                  #  X1 (38D)* NONE         *INDEX REGISTER TO BE SET TO -2D OR -10D ACCORDING TO WHETHER THE EARTH OR MOON,
000340:                                                                                                  #          *              *RESPECTIVELY, IS THE CENTRAL BODY.
000341:
000342:
000343:
000344:                                                                                                  #  SUBROUTINES CALLED -
000345:                                                                                                  #       PARAM, GEOM, GETX, DELTIME, NEWSTATE
000346:
000347:
000348:
000349:                                                                                                  #  CALLING SEQUENCE AND NORMAL EXIT MODES -
000350:
000351:                                                                                                  #     IF ONLY TIME IS DESIRED AS OUTPUT -
000352:                                                                                                  #  L        SET    CALL            MUST BE IN INTERPRETIVE MODE AND OVFIND MUST BE CLEAR
000353:                                                                                                  #  L+1             RVSW
000354:                                                                                                  #  L+2             TIMETHET        RETURN WITH PL AT 0 AND T IN MPAC
000355:                                                                                                  #  L+3      ...                    CONTINUE
000356:
000357:
000358:                                                                                                  #     IF THE UPDATE STATE VECTOR IS DESIRED AS WELL -
000359:                                                                                                  #  L        CLEAR  CALL            MUST BE IN INTERPRETIVE MODE AND OVFIND MUST BE CLEAR
000360:                                                                                                  #  L+1             RVSW
000361:                                                                                                  #  L+2             TIMETHET        RETURNS WITH PL AT 6.  THE INITIAL POSITION VECTOR IS IN 0D OF THE PUSHLIST AND
000362:                                                                                                  #                                  THE INITIAL VELOCITY VECTOR IN MPAC.
000363:                                                                                                  #  L+3      STOVL  NEWVVEC
000364:                                                                                                  #  L+4      STADR
000365:                                                                                                  #  L+5      STORE  NEWRVEC                 NEWVVEC AND NEWRVEC ARE SYMBOLIC REPRESENTATIONS OF THE USERS LOCATIONS.
000366:                                                                                                  #  L+6      ...                            CONTINUE
000367:
000368:
000369:
000370:                                                                                                  #  ABORT EXIT MODES -
000371:                                                                                                  #  L        CALL   BON
000372:                                                                                                  #  L+1             TIMETHET
000373:                                                                                                  #  L+2             COGAFLAG
000374:                                                                                                  #  L+3             COGABORT        RESTRICTION 1 HAS BEEN VIOLATED.
000375:                                                                                                  #  L+4      BON                    IF NEITHER FLAG IS SET AND RESTRICTION 2 HAS NOT BEEN VIOLATED, THE SOLUTION IS
000376:                                                                                                  #                                  GOOD, SO CONTINUE
000377:                                                                                                  #  L+5             INFINFLG
000378:                                                                                                  #  L+6             IMPOSSBL        NO SOLUTION EXISTS.
000379:
000380:
000381:
000382:                                                                                                  #  OUTPUT -
000383:                                                                                                  #          * SCALE FACTOR *
000384:                                                                                                  #  VARIABLE*IN POWERS OF 2*                         DESCRIPTION AND REMARKS
000385:                                                                                                  #  --------*--------------*                         -----------------------
000386:                                                                                                  #  T (30D) * +28          *DP TRANSFER TIME IN CENTISECONDS
000387:                                                                                                  #  INFINFLG* NONE         *AN INTERPRETIVE SWITCH WHICH IS SET IF THE TRANSFER ANGLE REQUIRES CLOSURE THROUGH
000388:                                                                                                  #          *              *INFINITY (NO SOLUTION), CLEAR IF A PHYSICAL SOLUTION IS POSSIBLE.
000389:                                                                                                  #  COGAFLAG* NONE         *AN INTERPRETIVE SWITCH WHICH IS SET IF RESTRICTION 1 HAS BEEN VIOLATED (NO SOLUTION),
000390:                                                                                                  #          *              *CLEAR IF NOT.
000391:
000392:                                                                                                  #  IN ADDITION, IF VTARGTAG IS NON-ZERO, THE FOLLOWING ARE OUTPUT -
000393:                                                                                                  #  MPAC -  * +7 FOR EARTH *DP TERMINAL VELOCITY VECTOR IN METERS/CENTISEC.
000394:                                                                                                  #   MPAC +5* +5 FOR MOON  *
000395:                                                                                                  #  0D - 5D * +29 FOR EARTH*DP TERMINAL POSITION VECTOR IN METERS (PL AT 6D)
000396:                                                                                                  #          * +27 FOR MOON *
000397:
000398:                                                                                                  #  FOR OTHER OUTPUT WHICH MAY BE OF USE, SEE DEBRIS.
000399:
000400:
000401:
000402:                                                                                                  #  DEBRIS -
000403:
000404:                                                                                                  #       PARAMETERS WHICH MAY BE OF USE -
000405:
000406:                                                                                                  #          * SCALE FACTOR *
000407:                                                                                                  #  VARIABLE*IN POWERS OF 2*                         DESCRIPTION AND REMARKS
000408:                                                                                                  #  --------*--------------*                         -----------------------
000409:                                                                                                  #  R1 (32D)* +29 FOR EARTH*DP MAGNITUDE OF INITIAL POSITION VECTOR, RVEC, IN METERS
000410:                                                                                                  #          * +27 FOR MOON *
000411:                                                                                                  #  R1A     * +6           *DP RATIO OF R1 TO SEMIMAJOR AXIS (NEG. FOR HYPERBOLIC TRAJECTORIES)
000412:                                                                                                  #  P       * +4           *DP RATIO OF SEMILATUS RECTUM TO R1
000413:                                                                                                  #  COGA    * +5           *DP COTAN OF ANGLE BETWEEN RVEC AND VVEC
000414:                                                                                                  #  UR1     * +1           *DP UNIT VECTOR OF RVEC
000415:                                                                                                  #  U2      * +1           *DP UNIT VECTOR OF VVEC
000416:                                                                                                  #  UN      * +1           *DP UNIT VECTOR OF UR1*U2
000417:
000418:
000419:                                                                                                  #       PARAMETERS OF NO USE -
000420:                                                                                                  #  SP PARAMETERS -  RTNTT, GEOMSGN, RTNPRM, MAGVEC2=R2 (DP), PLUS PUSHLIST LOCATIONS 0-11D, 14D-21D, 24D-39D, 41D
000421:                                                                                                  #  ADDITIONAL INTERPRETIVE SWITCHES USED - NORMSW, 360SW
000422:
000423:
000424:                                                                                                  #  PROGRAM DESCRIPTION - TIME-RADIUS SUBROUTINE                            DATE - 11 OCTOBER 1967
000425:                                                                                                  #  MOD NO. -1                                                                      LOG SECTION - CONIC SUBROUTINES
000426:                                                                                                  #  MOD BY KRAUSE                                                                   ASSEMBLY - COLOSSUS REVISION 88
000427:
000428:
000429:
000430:                                                                                                  #  FUNCTIONAL DESCRIPTION -
000431:
000432:                                                                                                  #       THIS SUBROUTINE, GIVEN AN INITIAL STATE VECTOR AND A DESIRED RADIUS TO WHICH THE
000433:                                                                                                  #  STATE IS TO BE UPDATED ALONG A CONIC TRAJECTORY, CALCULATES THE CORRESPONDING TIME-OF-FLIGHT AND, IN ADDITION,
000434:                                                                                                  #  PROVIDES THE OPTION OF COMPUTING THE NEW UPDATED STATE VECTOR.  THE RESULTING TRAJECTORY MAY BE A SECTION OF A
000435:                                                                                                  #  CIRCLE, ELLIPSE, PARABOLA, OR HYPERBOLA WITH RESPECT TO THE EARTH OR THE MOON.  THE USE OF THE SUBROUTINE CAN BE
000436:                                                                                                  #  EXTENDED USING OTHER PRIMARY BODIES BY SIMPLE ADDITIONS TO THE MUTABLE WITHOUT INTRODUCING ANY CODING CHANGES,
000437:                                                                                                  #  ACCEPTING THE INHERENT SCALE FACTOR CHANGES IN POSITION AND VELOCITY.
000438:                                                                                                  #       IF THE DESIRED RADIUS IS BEYOND THE RADIUS OF APOCENTER OF THE CONIC OR BELOW THE RADIUS OF PERICENTER,
000439:                                                                                                  #  APSESW WILL BE SET AND THE SUBROUTINE WILL RETURN THE APOCENTER OR PERICENTER SOLUTION, RESPECTIVELY.
000440:
000441:
000442:                                                                                                  #  THE RESTRICTIONS ARE -
000443:                                                                                                  #       1. THE ANGLE BETWEEN ANY POSITION VECTOR AND ITS VELOCITY VECTOR MUST BE GREATER THAN 1 DEGREE 47.5 MINUTES
000444:                                                                                                  #  AND LESS THAN 178 DEGREES 12.5 MINUTES.
000445:                                                                                                  #       2. THE PARAMETERS IN THE PROBLEM MUST NOT EXCEED THEIR SCALING LIMITS SPECIFIED IN THE GSOP.  IF THE LIMITS
000446:                                                                                                  #  ARE EXCEEDED, THE RESULTING SOLUTION WILL BE MEANINGLESS.
000447:                                                                                                  #       3. AN ACCURACY DEGRADATION OCCURS AS THE SENSITIVITIES OF TIME AND UPDATED STATE VECTOR TO CHANGES IN
000448:                                                                                                  #  RDESIRED INCREASE.  THIS WILL OCCUR NEAR EITHER APSIS OF THE CONIC AND WHEN THE CONIC IS NEARLY CIRCULAR.  IN
000449:                                                                                                  #  PARTICULAR, IF THE CONIC IS AN EXACT CIRCLE, THE PROBLEM IS UNDEFINED AND THE SUBROUTINE WILL ABORT.
000450:
000451:
000452:                                                                                                  #       THE AGC COMPUTATION TIME IS APPROXIMATELY .363 SECONDS
000453:
000454:
000455:
000456:                                                                                                  #  REFERENCES -
000457:                                                                                                  #       R-479, MISSION PROGRAMMING DEFINITION MEMO NO. 10, LUNAR LANDING MISSION GSOP-SECTION 5.5, SGA MEMO 67-8.
000458:
000459:
000460:
000461:                                                                                                  #  INPUT - ERASABLE INITIALIZATION REQUIRED
000462:
000463:                                                                                                  #          * SCALE FACTOR *
000464:                                                                                                  #  VARIABLE*IN POWERS OF 2*                         DESCRIPTION AND REMARKS
000465:                                                                                                  #  --------*--------------*                         -----------------------
000466:                                                                                                  #  RVEC    * +29 FOR EARTH*DP INITIAL POSITION VECTOR IN METERS
000467:                                                                                                  #          * +27 FOR MOON *
000468:                                                                                                  #  VVEC    * +7 FOR EARTH *DP INITIAL VELOCITY VECTOR IN METERS/CENTISECOND
000469:                                                                                                  #          * +5 FOR MOON  *
000470:                                                                                                  #  RDESIRED* +29 FOR EARTH*DP TERMINAL RADIAL DISTANCE ON CONIC TRAJECTORY FOR WHICH TRANSFER TIME IS TO BE
000471:                                                                                                  #          * +27 FOR MOON *COMPUTED.
000472:                                                                                                  #  SGNRDOT * NONE         *SP TAG SET TO +.5 OR -.5 ACCORDING TO WHETHER THE RADIAL VELOCITY AT RDESIRED IS TO BE
000473:                                                                                                  #          *              *POSITIVE OR NEGATIVE, RESPECTIVELY.  THIS TAG REDUCES THE DOUBLE-VALUED PROBLEM TO A
000474:                                                                                                  #          *              *SINGLE-VALUED PROBLEM.
000475:                                                                                                  #  X1 (38D)* NONE         *INDEX REGISTER TO BE SET TO -2D OR -10D ACCORDING TO WHETHER THE EARTH OR MOON,
000476:                                                                                                  #          *              *RESPECTIVELY, IS THE CENTRAL BODY.
000477:                                                                                                  #  RVSW    * NONE         *AN INTERPRETIVE SWITCH TO BE SET IF ONLY TIME IS TO BE AN OUTPUT, CLEAR IF THE NEW STATE
000478:                                                                                                  #          *              *IS TO BE COMPUTED ALSO.
000479:
000480:
000481:
000482:                                                                                                  #  SUBROUTINES CALLED -
000483:                                                                                                  #        PARAM, GEOM, GETX, DELTIME, NEWSTATE
000484:
000485:
000486:
000487:                                                                                                  #  CALLING SEQUENCE AND NORMAL EXIT MODES -
000488:
000489:                                                                                                  #     IF ONLY TIME IS DESIRED AS OUTPUT -
000490:                                                                                                  #  L        SET    CALL            MUST BE IN INTERPRETIVE MODE AND OVFIND MUST BE CLEAR
000491:                                                                                                  #  L+1             RVSW
000492:                                                                                                  #  L+2             TIMERAD         RETURN WITH PL AT 0 AND T IN MPAC
000493:                                                                                                  #  L+3      ...                    CONTINUE
000494:
000495:                                                                                                  #     IF THE UPDATE STATE VECTOR IS DESIRED AS WELL -
000496:                                                                                                  #  L        CLEAR  CALL            MUST BE IN INTERPRETIVE MODE AND OVFIND MUST BE CLEAR
000497:                                                                                                  #  L+1             RVSW
000498:                                                                                                  #  L+2             TIMERAD         RETURNS WITH PL AT 6.  THE INITIAL POSITION VECTOR IS IN 0D OF THE PUSHLIST AND
000499:                                                                                                  #                                  THE INITIAL VELOCITY VECTOR IN MPAC.
000500:                                                                                                  #  L+3      STOVL  NEWVVEC
000501:                                                                                                  #  L+4      STADR
000502:                                                                                                  #  L+5      STORE  NEWRVEC                 NEWVVEC AND NEWRVEC ARE SYMBOLIC REPRESENTATIONS OF THE USERS LOCATIONS.
000503:                                                                                                  #  L+6      ...                            CONTINUE
000504:
000505:
000506:
000507:                                                                                                  #  ABORT EXIT MODES -
000508:                                                                                                  #  L        CALL   BON
000509:                                                                                                  #  L+1             TIMERAD
000510:                                                                                                  #  L+2             COGAFLAG
000511:                                                                                                  #  L+3             COGABORT        RESTRICTION 1 HAS BEEN VIOLATED.
000512:                                                                                                  #  L+4      BON    BON
000513:                                                                                                  #  L+5             INFINFLG
000514:                                                                                                  #  L+6             IMPOSSBL        NO SOLUTION EXISTS.
000515:                                                                                                  #  L+7             SOLNSW
000516:                                                                                                  #  L+8             IMPOSSBL        SOLUTION IS UNDEFINED SINCE CONIC IS A CIRCLE.  RESTRICTION 3 HAS BEEN VIOLATED.
000517:                                                                                                  #  L+9      ...                    IF ALL THREE OF THE FLAGS ARE CLEAR, A SOLUTION EXISTS, SO CONTINUE.
000518:
000519:
000520:
000521:                                                                                                  #  OUTPUT -
000522:                                                                                                  #          * SCALE FACTOR *
000523:                                                                                                  #  VARIABLE*IN POWERS OF 2*                         DESCRIPTION AND REMARKS
000524:                                                                                                  #  --------*--------------*                         -----------------------
000525:                                                                                                  #  T (30D) * +28          *DP TRANSFER TIME IN CENTISECONDS
000526:                                                                                                  #  INFINFLG* NONE         *AN INTERPRETIVE SWITCH WHICH IS SET IF RDESIRED AND SGNRDOT REQUIRE CLOSURE THROUGH
000527:                                                                                                  #          *              *INFINITY (NO SOLUTION), CLEAR IF A PHYSICAL SOLUTION IS POSSIBLE.
000528:                                                                                                  #  COGAFLAG* NONE         *AN INTERPRETIVE SWITCH WHICH IS SET IF RESTRICTION 1 HAS BEEN VIOLATED (NO SOLUTION),
000529:                                                                                                  #          *              *CLEAR IF NOT.
000530:                                                                                                  #  APSESW  * NONE         *AN INTERPRETIVE SWITCH WHICH IS SET IF RDESIRED WAS GREATER THAN RADIUS OF APOCENTER OR
000531:                                                                                                  #          *              *LESS THAN RADIUS OF PERICENTER.  THE APOCENTER OR PERICENTER SOLUTION, RESPECTIVELY,
000532:                                                                                                  #          *              *WILL THEN BE RETURNED.  THE SWITCH IS CLEAR IF RDESIRED WAS BETWEEN PERICENTER AND
000533:                                                                                                  #          *              *APOCENTER.
000534:                                                                                                  #  SOLNSW  * NONE         *AN INTERPRETIVE SWITCH WHICH IS SET IF THE CONIC IS SO CLOSE TO A CIRCLE THAT THE TERMIN
000535:                                                                                                  #                         *POINT IS AMBIGUOUS, VIOLATING RESTRICTION 3.  IF ECCENTRICITY IS GREATER THAN 2-TO-THE-
000536:                                                                                                  #                         *MINUS-18, THE SWITCH IS CLEAR.
000537:
000538:
000539:
000540:                                                                                                  #  IN ADDITION, IF VTARGTAG IS NON-ZERO, THE FOLLOWING ARE OUTPUT -
000541:
000542:                                                                                                  #  MPAC -  * +7 FOR EARTH *DP TERMINAL VELOCITY VECTOR IN METERS/CENTISEC.
000543:                                                                                                  #   MPAC +5* +5 FOR MOON  *
000544:                                                                                                  #  0D - 5D * +29 FOR EARTH*DP TERMINAL POSITION VECTOR IN METERS (PL AT 6D)
000545:                                                                                                  #          * +27 FOR MOON *
000546:
000547:                                                                                                  #  FOR OTHER OUTPUT WHICH MAY BE OF USE, SEE DEBRIS.
000548:
000549:
000550:
000551:                                                                                                  #  DEBRIS -
000552:
000553:                                                                                                  #       PARAMETERS WHICH MAY BE OF USE -
000554:
000555:                                                                                                  #          * SCALE FACTOR *
000556:                                                                                                  #  VARIABLE*IN POWERS OF 2*                         DESCRIPTION AND REMARKS
000557:                                                                                                  #  --------*--------------*                         -----------------------
000558:                                                                                                  #  R1 (32D)* +29 FOR EARTH*DP MAGNITUDE OF INITIAL POSITION VECTOR, RVEC, IN METERS
000559:                                                                                                  #          * +27 FOR MOON *
000560:                                                                                                  #  R1A     * +6           *DP RATIO OF R1 TO SEMIMAJOR AXIS (NEG. FOR HYPERBOLIC TRAJECTORIES)
000561:                                                                                                  #  P       * +4           *DP RATIO OF SEMILATUS RECTUM TO R1
000562:                                                                                                  #  COGA    * +5           *DP COTAN OF ANGLE BETWEEN RVEC AND VVEC
000563:                                                                                                  #  UR1     * +1           *DP UNIT VECTOR OF RVEC
000564:                                                                                                  #  U2      * +1           *DP UNIT VECTOR OF VVEC
000565:                                                                                                  #  UN      * +1           *DP UNIT VECTOR OF UR1*U2
000566:                                                                                                  #  CSTH    * +1           *DP COSINE OF TRUE ANOMALY DIFFERENCE BETWEEN RVEC AND RDESIRED.
000567:                                                                                                  #  SNTH    * +1           *DP SINE OF TRUE ANOMALY DIFFERENCE.
000568:
000569:
000570:                                                                                                  #       PARAMETERS OF NO USE -
000571:                                                                                                  #  SP PARAMETERS -  RTNTT, GEOMSGN, RTNPRM, MAGVEC2=R2 (DP), PLUS PUSHLIST LOCATIONS 0-11D, 14D-21D, 24D-39D, 41D
000572:                                                                                                  #  ADDITIONAL INTERPRETIVE SWITCHES USED - NORMSW, 360SW
000573:
000574:
000575:                                                                                                  #  PROGRAM DESCRIPTION - APSIDES SUBROUTINE                                        DATE - 1 SEPTEMBER 1967
000576:                                                                                                  #  MOD NO. - 0                                                                     LOG SECTION - CONIC SUBROUTINES
000577:                                                                                                  #  MOD BY KRAUSE                                                                   ASSEMBLY - COLOSSUS REVISION 88
000578:
000579:
000580:
000581:                                                                                                  #  FUNCTIONAL DESCRIPTION -
000582:
000583:                                                                                                  #       THIS SUBROUTINE, GIVEN AN INITIAL STATE VECTOR CALCULATES THE RADIUS OF PERICENTER AND OF APOCENTER AND THE
000584:                                                                                                  #  ECCENTRICITY OF THE RESULTING CONIC TRAJECTORY, WHICH MAY BE A STRAIGHT LINE,
000585:                                                                                                  #  CIRCLE, ELLIPSE, PARABOLA, OR HYPERBOLA WITH RESPECT TO THE EARTH OR THE MOON.  THE USE OF THE SUBROUTINE CAN BE
000586:                                                                                                  #  EXTENDED USING OTHER PRIMARY BODIES BY SIMPLE ADDITIONS TO THE MUTABLE WITHOUT INTRODUCING ANY CODING CHANGES,
000587:                                                                                                  #  ACCEPTING THE INHERENT SCALE FACTOR CHANGES IN POSITION AND VELOCITY.
000588:
000589:
000590:                                                                                                  #  THE RESTRICTIONS ARE -
000591:                                                                                                  #       1.  IF APOCENTER IS BEYOND THE SCALING OF POSITION, THE SCALE FACTOR LIMIT (536,870,910 METERS WITH RESPECT
000592:                                                                                                  #  TO THE EARTH OR 134,217,727.5 METERS WITH RESPECT TO THE MOON) WILL BE RETURNED.
000593:                                                                                                  #       2. THE PARAMETERS IN THE PROBLEM MUST NOT EXCEED THEIR SCALING LIMITS SPECIFIED IN THE GSOP.  IF THE LIMITS
000594:                                                                                                  #  ARE EXCEEDED, THE RESULTING SOLUTION WILL BE MEANINGLESS.
000595:
000596:                                                                                                  #       THE AGC COMPUTATION TIME IS APPROXIMATELY .103 SECONDS.
000597:
000598:
000599:
000600:                                                                                                  #  REFERENCES -
000601:                                                                                                  #       MISSION PROGRAMMING DEFINITION MEMO NO. 10, LUNAR LANDING MISSION GSOP-SECTION 5.5
000602:
000603:
000604:
000605:                                                                                                  #  INPUT - ERASABLE INITIALIZATION REQUIRED
000606:
000607:                                                                                                  #          * SCALE FACTOR *
000608:                                                                                                  #  VARIABLE*IN POWERS OF 2*                         DESCRIPTION AND REMARKS
000609:                                                                                                  #  --------*--------------*                         -----------------------
000610:                                                                                                  #  RVEC    * +29 FOR EARTH*DP INITIAL POSITION VECTOR IN METERS
000611:                                                                                                  #          * +27 FOR MOON *
000612:                                                                                                  #  VVEC    * +7 FOR EARTH *DP INITIAL VELOCITY VECTOR IN METERS/CENTISECOND
000613:                                                                                                  #          * +5 FOR MOON  *
000614:                                                                                                  #  X1 (38D)*NONE          *INDEX REGISTER TO BE SET TO -2D OR -10D ACCORDING TO WHETHER THE EARTH OR MOON,
000615:                                                                                                  #          *              *RESPECTIVELY, IS THE CENTRAL BODY.
000616:
000617:
000618:
000619:                                                                                                  #  SUBROUTINES CALLED -
000620:                                                                                                  #       PARAM, GEOM
000621:
000622:
000623:
000624:                                                                                                  #  CALLING SEQUENCE AND NORMAL EXIT MODES -
000625:                                                                                                  #     IF ONLY TIME IS DESIRED AS OUTPUT -
000626:                                                                                                  #  L        CALL                   MUST BE IN INTERPRETIVE MODE AND OVFIND MUST BE CLEAR.
000627:                                                                                                  #  L+1             APSIDES         RETURNS WITH PL AT 0, RADIUS OF APOCENTER IN MPAC AND RADIUS OF PERICENTER IN 0D
000628:                                                                                                  #  L+2      STODL  APOAPSE
000629:                                                                                                  #  L+3             0D
000630:                                                                                                  #  L+4      STORE  PERIAPSE                APOAPSE AND PERIAPSE ARE SYMBOLIC REPRESENTATIONS OF THE USERS LOCATIONS
000631:                                                                                                  #  L+5      ...                    CONTINUE
000632:
000633:
000634:
000635:                                                                                                  #  OUTPUT -
000636:                                                                                                  #          * SCALE FACTOR *
000637:                                                                                                  #  VARIABLE*IN POWERS OF 2*                         DESCRIPTION AND REMARKS
000638:                                                                                                  #  --------*--------------*                         -----------------------
000639:                                                                                                  #  MPAC    * +29 FOR EARTH*DP RADIUS OF APOCENTER IN METERS
000640:                                                                                                  #          * +27 FOR MOON *
000641:                                                                                                  #  0D-1D   * +29 FOR EARTH*DP RADIUS OF PERICENTER IN METERS
000642:                                                                                                  #          * +27 FOR MOON *
000643:                                                                                                  #  ECC     * +3           *DP ECCENTRICITY OF CONIC TRAJECTORY.
000644:
000645:                                                                                                  #  FOR OTHER OUTPUT WHICH MAY BE OF USE, SEE DEBRIS.
000646:
000647:
000648:
000649:                                                                                                  #  DEBRIS -
000650:
000651:                                                                                                  #       PARAMETERS WHICH MAY BE OF USE -
000652:
000653:                                                                                                  #          * SCALE FACTOR *
000654:                                                                                                  #  VARIABLE*IN POWERS OF 2*                         DESCRIPTION AND REMARKS
000655:                                                                                                  #  --------*--------------*                         -----------------------
000656:                                                                                                  #  R1 (32D)* +29 FOR EARTH*DP MAGNITUDE OF INITIAL POSITION VECTOR, RVEC, IN METERS
000657:                                                                                                  #          * +27 FOR MOON *
000658:                                                                                                  #  R1A     * +6           *DP RATIO OF R1 TO SEMIMAJOR AXIS (NEG. FOR HYPERBOLIC TRAJECTORIES)
000659:                                                                                                  #  P       * +4           *DP RATIO OF SEMILATUS RECTUM TO R1
000660:                                                                                                  #  COGA    * +5           *DP COTAN OF ANGLE BETWEEN RVEC AND VVEC
000661:                                                                                                  #  UR1     * +1           *DP UNIT VECTOR OF RVEC
000662:                                                                                                  #  U2      * +1           *DP UNIT VECTOR OF VVEC
000663:                                                                                                  #  UN      * +1           *DP UNIT VECTOR OF UR1*U2
000664:                                                                                                  #  MAGVEC2 * +7 FOR EARTH *DP MAGNITUDE OF VVEC
000665:                                                                                                  #          * +5 FOR MOON  *
000666:
000667:
000668:                                                                                                  #       PARAMETERS OF NO USE -
000669:                                                                                                  #  SP PARAMETERS - RTNAPSE, GEOMSGN, RTNPRM, PLUS PUSHLIST LOCATIONS 0-5, 10D-11D, 14D-21D, 31D-38D.
000670:                                                                                                  #  ADDITIONAL INTERPRETIVE SWITCHES USED - NORMSW
000671:
000672:
000673:
000674: 12,2000                                           SETLOC   CONICS
000675: 12,2000                                           BANK
000676:
000677: 12,2000                                           COUNT*   $$/CONIC
000678: 12,2000  E5,1721                                  EBANK=   UR1
000679: 12,2000           71201        KEPLERN            SETPD    DLOAD
000680: 12,2001           00001                                    0
000681: 12,2002           22276                                    KEPZERO
000682: 12,2003           02201                           STORE    XMODULO
000683: 12,2004           32203                           STOVL*   TMODULO
000684: 12,2005           10761                                    MUTABLE,1
000685: 12,2006           24017                           STOVL    14D
000686: 12,2007           01503                                    RRECT
000687: 12,2010           66256                           UNIT     SSP
000688: 12,2011           00027                                    ITERCTR
000689: 12,2012           00024                                    20D
000690: 12,2013           16647                           STODL    URRECT
000691: 12,2014           00045                                    36D
000692: 12,2015           24041                           STOVL    R1
000693: 12,2016           01503                                    RRECT
000694: 12,2017           76441                           DOT      SL1R
000695: 12,2020           01511                                    VRECT
000696: 12,2021           76405                           DMP      SL1R
000697: 12,2022           00023                                    1/ROOTMU                              #  1/ROOTMU (-17 OR -14)
000698: 12,2023           24043                           STOVL    KEPC1                                 #  C1=R.V/ROOTMU (+17 OR +16)
000699:
000700: 12,2024           01511                                    VRECT
000701: 12,2025           57236                           VSQ      DMPR
000702: 12,2026           00017                                    1/MU                                  #  1/MU (-34 OR -28)
000703: 12,2027           52405                           DMP      SL3
000704: 12,2030           00041                                    R1
000705: 12,2031           61425                           DSU      ROUND
000706: 12,2032           10674                                    D1/64
000707: 12,2033           00045                           STORE    KEPC2                                 #  C2=RV.V/MU -1 (+6)
000708:
000709: 12,2034           74421                           BDSU     SR1R
000710: 12,2035           10674                                    D1/64
000711: 12,2036           77671                           DDV
000712: 12,2037           00041                                    R1
000713: 12,2040           00011                           STORE    ALPHA                                 #  ALPHA=(1-C2)/R1 (-22 OR -20)
000714:
000715:
000716: 12,2041           71244                           BPL      DLOAD                                 #  MAXIMUM X DEPENDS ON TYPE OF CONIC
000717: 12,2042           24051                                    1REV
000718: 12,2043           10712                                    -50SC                                 #  -50SC (+12)
000719: 12,2044           40071                           DDV      BOV
000720: 12,2045           00011                                    ALPHA
000721: 12,2046           24055                                    STOREMAX
000722: 12,2047           52166                           SQRT     GOTO
000723: 12,2050           24055                                    STOREMAX
000724:
000725: 12,2051           55366        1REV               SQRT     BDDV
000726: 12,2052           10714                                    2PISC                                 #  2PISC (+6)
000727: 12,2053           77600                           BOV
000728: 12,2054           24055                                    STOREMAX
000729: 12,2055           50165        STOREMAX           SIGN     BMN
000730: 12,2056           02076                                    TAU.
000731: 12,2057           24272                                    BACKWARD
000732: 12,2060           00013                           STORE    XMAX
000733: 12,2061           65205                           DMP      PDDL                                  #                               PL AT 2
000734: 12,2062           00023                                    1/ROOTMU
000735: 12,2063           00011                                    ALPHA
000736: 12,2064           65301                           NORM     PDDL                                  #  DXCH WITH 0D.  0D=ALPHA      PL AT 0,2
000737: 12,2065           00047                                    X1
000738: 12,2066           56257                           SL*      DDV                                   #                               PL AT 0
000739: 12,2067           20173                                    0          -6,1
000740: 12,2070           50000        PERIODCH           BOV      BMN
000741: 12,2071           24112                                    MODDONE
000742: 12,2072           24112                                    MODDONE
000743: 12,2073           77606                           PUSH                                           #  0D=PERIOD (+28)
000744: 12,2074           50021                           BDSU     BMN
000745: 12,2075           02076                                    TAU.
000746: 12,2076           24112                                    MODDONE
000747: 12,2077           16076                           STODL    TAU.
000748: 12,2100           00013                                    XMAX
000749: 12,2101           77615                           DAD
000750: 12,2102           02201                                    XMODULO
000751: 12,2103           16201                           STODL    XMODULO
000752: 12,2104           00001                                    0D
000753: 12,2105           77615                           DAD
000754: 12,2106           02203                                    TMODULO
000755: 12,2107           16203                           STODL    TMODULO                               #                               PL AT 0
000756: 12,2110           77650                           GOTO
000757: 12,2111           24070                                    PERIODCH
000758:
000759: 12,2112           71201        MODDONE            SETPD    DLOAD
000760: 12,2113           00001                                    0
000761: 12,2114           22276                                    KEPZERO
000762: 12,2115           14015                           STODL    XMIN
000763: 12,2116           02132                                    XKEPNEW
000764: 12,2117           77625                           DSU
000765: 12,2120           02201                                    XMODULO
000766: 12,2121           00025                           STORE    X
000767: 12,2122           50054                           BZE      BMN
000768: 12,2123           24265                                    BADX
000769: 12,2124           24265                                    BADX
000770: 12,2125           51025                           DSU      BPL
000771: 12,2126           00013                                    XMAX
000772: 12,2127           24265                                    BADX
000773:
000774: 12,2130           57345        DXCOMP             DLOAD    DMPR
000775: 12,2131           02076                                    TAU.
000776: 12,2132           10705                                    BEE22
000777: 12,2133           77646                           ABS
000778: 12,2134           16205                           STODL    EPSILONT
000779: 12,2135           01551                                    TC
000780: 12,2136           45254                           BZE      DSU
000781: 12,2137           24141                                    NEWTC
000782: 12,2140           02203                                    TMODULO
000783: 12,2141           15551        NEWTC              STODL    TC
000784: 12,2142           01553                                    XPREV
000785: 12,2143           45254                           BZE      DSU
000786: 12,2144           24146                                    XDIFF
000787: 12,2145           02201                                    XMODULO
000788: 12,2146           77621        XDIFF              BDSU
000789: 12,2147           00025                                    X
000790: 12,2150           02643                           STORE    DELX
000791:
000792:
000793: 12,2151           63545        KEPLOOP            DLOAD    DSQ
000794: 12,2152           00025                                    X                                     #  X=XKEP
000795: 12,2153           41501                           NORM     PUSH                                  #  0D=XSQ (+34 OR +32 -N1)       PL AT 2
000796: 12,2154           00047                                    X1
000797: 12,2155           53605                           DMP      SRR*
000798: 12,2156           00011                                    ALPHA
000799: 12,2157           21573                                    0          -6,1
000800: 12,2160           34031                           STCALL   XI                                    #  XI=ALPHA XSQ (+6)
000801: 12,2161           24421                                    DELTIME
000802: 12,2162           44200                           BOV      BDSU
000803: 12,2163           24312                                    TIMEOVFL                              #  UNLIKELY
000804: 12,2164           02076                                    TAU.
000805: 12,2165           02645                           STORE    DELT                                  #  DELT=DELINDEP
000806: 12,2166           44246                           ABS      BDSU
000807: 12,2167           02205                                    EPSILONT
000808: 12,2170           71244                           BPL      DLOAD
000809: 12,2171           24327                                    KEPCONVG
000810: 12,2172           00037                                    T
000811: 12,2173           60225                           DSU      NORM
000812: 12,2174           01551                                    TC
000813: 12,2175           00047                                    X1
000814: 12,2176           60325                           PDDL     NORM
000815: 12,2177           02643                                    DELX
000816: 12,2200           00050                                    X2
000817: 12,2201           41260                           XSU,1    DMP
000818: 12,2202           00047                                    X2
000819: 12,2203           02645                                    DELT
000820: 12,2204           56257                           SLR*     DDV
000821: 12,2205           21202                                    1,1
000822: 12,2206           41542                           SR1      PUSH                                  #  0D=TRIAL DELX              PL AT 2
000823: 12,2207           71244                           BPL      DLOAD
000824: 12,2210           24231                                    POSDELX
000825: 12,2211           00025                                    X
000826: 12,2212           00013                           STORE    XMAX                                  #  MOVE MAX BOUND IN
000827: 12,2213           45221                           BDSU     DSU                                   #                             PL AT 0
000828: 12,2214           00015                                    XMIN
000829: 12,2215           51000                           BOV      BPL
000830: 12,2216           24223                                    NDXCHNGE
000831: 12,2217           24223                                    NDXCHNGE
000832: 12,2220           52145                           DLOAD    GOTO
000833: 12,2221           00001                                    0D
000834: 12,2222           24243                                    NEWDELX
000835:
000836:
000837: 12,2223           45345        NDXCHNGE           DLOAD    DSU
000838: 12,2224           00015                                    XMIN
000839: 12,2225           00025                                    X
000840: 12,2226           52075                           DMPR     GOTO                                  #  TO FORCE MPAC +2 TO ZERO
000841: 12,2227           10710                                    DP9/10
000842: 12,2230           24243                                    NEWDELX
000843:
000844:
000845: 12,2231           77745        POSDELX            DLOAD
000846: 12,2232           00025                                    X
000847: 12,2233           00015                           STORE    XMIN                                  #  MOVE MIN BOUND IN
000848: 12,2234           45221                           BDSU     DSU                                   #                             PL AT 0
000849: 12,2235           00013                                    XMAX
000850: 12,2236           50000                           BOV      BMN
000851: 12,2237           24257                                    PDXCHNGE
000852: 12,2240           24257                                    PDXCHNGE
000853: 12,2241           77745                           DLOAD
000854: 12,2242           00001                                    0D
000855: 12,2243           02643        NEWDELX            STORE    DELX
000856: 12,2244           43254                           BZE      DAD
000857: 12,2245           24327                                    KEPCONVG
000858: 12,2246           00025                                    X
000859: 12,2247           14025                           STODL    X
000860: 12,2250           00037                                    T
000861: 12,2251           01551                           STORE    TC
000862: 12,2252           46034        BRNCHCTR           RTB      BHIZ
000863: 12,2253           24644                                    CHECKCTR
000864: 12,2254           24327                                    KEPCONVG
000865: 12,2255           77650                           GOTO
000866: 12,2256           24151                                    KEPLOOP                               #  ITERATE
000867:
000868:
000869: 12,2257           45345        PDXCHNGE           DLOAD    DSU
000870: 12,2260           00013                                    XMAX
000871: 12,2261           00025                                    X
000872: 12,2262           52075                           DMPR     GOTO                                  #  TO FORCE MPAC +2 TO ZERO
000873: 12,2263           10710                                    DP9/10
000874: 12,2264           24243                                    NEWDELX
000875:
000876:
000877: 12,2265           70545        BADX               DLOAD    SR1                                   #  RECIPE EXCEEDED X BOUNDS - USE XMAX/2
000878: 12,2266           00013                                    XMAX
000879: 12,2267           00025                           STORE    X
000880: 12,2270           77650                           GOTO
000881: 12,2271           24130                                    DXCOMP
000882:
000883:
000884: 12,2272           14015        BACKWARD           STODL    XMIN
000885: 12,2273           22276                                    KEPZERO
000886: 12,2274           14013                           STODL    XMAX
000887: 12,2275           02132                                    XKEPNEW
000888: 12,2276           00025                           STORE    X
000889: 12,2277           51054                           BZE      BPL
000890: 12,2300           24305                                    BADBKWDX
000891: 12,2301           24305                                    BADBKWDX
000892: 12,2302           51025                           DSU      BPL
000893: 12,2303           00015                                    XMIN
000894: 12,2304           24130                                    DXCOMP
000895: 12,2305           70545        BADBKWDX           DLOAD    SR1
000896: 12,2306           00015                                    XMIN
000897: 12,2307           00025                           STORE    X
000898: 12,2310           77650                           GOTO
000899: 12,2311           24130                                    DXCOMP
000900:
000901:
000902: 12,2312           77745        TIMEOVFL           DLOAD
000903: 12,2313           00025                                    X
000904: 12,2314           00013                           STORE    XMAX
000905: 12,2315           70545        CMNTOVFL           DLOAD    SR1
000906: 12,2316           02643                                    DELX
000907: 12,2317           02643                           STORE    DELX
000908: 12,2320           77621                           BDSU
000909: 12,2321           00025                                    X
000910: 12,2322           14025                           STODL    X
000911: 12,2323           01551                                    TC
000912: 12,2324           00037                           STORE    T
000913: 12,2325           77650                           GOTO
000914: 12,2326           24151                                    KEPLOOP
000915: 12,2327           44545        KEPCONVG           DLOAD    SR4R
000916: 12,2330           00041                                    R1
000917: 12,2331           74225                           DSU      VXSC
000918: 12,2332           00035                                    XSQC(XI)
000919: 12,2333           02647                                    URRECT
000920: 12,2334           65372                           VSL1     PDDL                                  #  0D=(R1-XSQC(XI))URRECT (+33 OR +31)
000921: 12,2335           00025                                    X
000922: 12,2336           60316                           DSQ      NORM
000923: 12,2337           00047                                    X1
000924: 12,2340           57275                           DMPR     DMPR
000925: 12,2341           00023                                    1/ROOTMU
000926: 12,2342           00025                                    X
000927: 12,2343           53605                           DMP      SRR*
000928: 12,2344           00033                                    S(XI)
000929: 12,2345           21572                                    0          -7,1
000930: 12,2346           77621                           BDSU
000931: 12,2347           00037                                    T
000932: 12,2350           74352                           SL1      VXSC
000933: 12,2351           01511                                    VRECT
000934: 12,2352           53372                           VSL1     VAD                                   #                               PL AT 0
000935: 12,2353           77712                           VSL4
000936: 12,2354           01535                           STORE    RCV                                   #  RCV (+29 OR +27)
000937:
000938:
000939: 12,2355           60246                           ABVAL    NORM
000940: 12,2356           00050                                    X2
000941: 12,2357           14043                           STODL    RCNORM
000942: 12,2360           00031                                    XI
000943: 12,2361           45275                           DMPR     DSU
000944: 12,2362           00033                                    S(XI)
000945: 12,2363           10672                                    D1/128
000946: 12,2364           76405                           DMP      SL1R
000947: 12,2365           00021                                    ROOTMU
000948: 12,2366           53605                           DMP      SLR*
000949: 12,2367           00025                                    X
000950: 12,2370           56601                                    0          -3,2
000951: 12,2371           74271                           DDV      VXSC
000952: 12,2372           00043                                    RCNORM
000953: 12,2373           02647                                    URRECT
000954: 12,2374           65372                           VSL1     PDDL                                  #  0D=URRECT(XI S(XI)-1)X ROOTMU/RCV (+15
000955: 12,2375           00035                                    XSQC(XI)                              #  OR +13)                        PL AT 6
000956: 12,2376           56257                           SLR*     DDV
000957: 12,2377           56602                                    0          -4,2
000958: 12,2400           00043                                    RCNORM
000959: 12,2401           74221                           BDSU     VXSC
000960: 12,2402           10706                                    D1/256
000961: 12,2403           01511                                    VRECT
000962: 12,2404           42455                           VAD      VSL8
000963: 12,2405           77626                           STADR                                          #                               PL AT 0
000964: 12,2406           62234                           STODL    VCV                                   #  VCV (+7 OR +5)
000965: 12,2407           00037                                    T
000966: 12,2410           77615                           DAD
000967: 12,2411           02203                                    TMODULO
000968: 12,2412           15551                           STODL    TC
000969: 12,2413           00025                                    X
000970: 12,2414           77615                           DAD
000971: 12,2415           02201                                    XMODULO
000972: 12,2416           01553                           STORE    XPREV
000973: 12,2417           77650                           GOTO
000974: 12,2420           02114                                    KEPRTN
000975:
000976: 12,2421           77776        DELTIME            EXIT                                           #  MPAC=XI (+6), 0D=XSQ (+34 OR +32 -N1)
000977: 12,2422           07176                           TC       POLY
000978: 12,2423           00010                           DEC      8          B-14
000979: 12,2424           02525 12526                     2DEC     .083333334
000980:
000981: 12,2426           67356 75666                     2DEC     -.266666684
000982:
000983: 12,2430           15001 23771                     2DEC     .406349155
000984:
000985: 12,2432           64342 43674                     2DEC     -.361198675
000986:
000987: 12,2434           06563 04645                     2DEC     .210153242
000988:
000989: 12,2436           75173 52672                     2DEC     -.086221951
000990:
000991: 12,2440           00656 14331                     2DEC     .026268812
000992:
000993: 12,2442           77633 40512                     2DEC     -.006163316
000994:
000995: 12,2444           00023 11210                     2DEC     .001177342
000996:
000997: 12,2446           77774 67506                     2DEC     -.000199055
000998:
000999: 12,2450           06014                           TC       INTPRET
001000: 12,2451           14033                           STODL    S(XI)
001001: 12,2452           00031                                    XI
001002: 12,2453           77776                           EXIT
001003: 12,2454           07176                           TC       POLY
001004: 12,2455           00010                           DEC      8          B-14
001005: 12,2456           01000 00000                     2DEC     .031250001
001006:
001007: 12,2460           72525 52506                     2DEC     -.166666719
001008:
001009: 12,2462           13301 15337                     2DEC     .355555413
001010:
001011: 12,2464           62776 54733                     2DEC     -.406347410
001012:
001013: 12,2466           11176 13267                     2DEC     .288962094
001014:
001015: 12,2470           73410 51674                     2DEC     -.140117894
001016:
001017: 12,2472           01446 33641                     2DEC     .049247387
001018:
001019: 12,2474           77451 65233                     2DEC     -.013081923
001020:
001021: 12,2476           00055 37266                     2DEC     .002806389
001022:
001023: 12,2500           77767 52336                     2DEC     -.000529414
001024:
001025: 12,2502           06014                           TC       INTPRET
001026: 12,2503           53605                           DMP      SRR*                                  #                               PL AT 0
001027: 12,2504           00001                                    0D
001028: 12,2505           21574                                    0          -5,1
001029: 12,2506           00035                           STORE    XSQC(XI)                              #  XSQC(XI) (+33 OR +31)
001030: 12,2507           72405                           DMP      SL1
001031: 12,2510           00043                                    KEPC1
001032: 12,2511           65234                           RTB      PDDL                                  #  XCH WITH PL. 0D=C1 XSQ C(XI) (+49 OR +46
001033: 12,2512           21531                                    TPMODE                                #                               PL AT 0,3
001034: 12,2513           53605                           DMP      SRR*
001035: 12,2514           00033                                    S(XI)
001036: 12,2515           21574                                    0          -5,1
001037: 12,2516           72405                           DMP      SL1
001038: 12,2517           00045                                    KEPC2
001039: 12,2520           65234                           RTB      PDDL                                  #  3D=C2 XSQ S(XI) (+35 OR +33)  PL AT 6
001040: 12,2521           21531                                    TPMODE
001041: 12,2522           00041                                    R1
001042: 12,2523           76261                           SR       TAD                                   #                               PL AT 3
001043: 12,2524           20607                                    6
001044: 12,2525           41301                           NORM     DMP                                   #  TO PRESERVE SIGNIF.
001045: 12,2526           00047                                    X1
001046: 12,2527           00025                                    X
001047: 12,2530           76257                           SR*      TAD                                   #  X(C2 XSQ S(XI) +R1) (+49 OR +46) PL AT 0
001048: 12,2531           20576                                    0          -3,1
001049: 12,2532           57232                           SL4R     DMPR
001050: 12,2533           00023                                    1/ROOTMU
001051: 12,2534           00037                           STORE    T
001052: 12,2535           77616                           RVQ
001053:
001054: 12,2536           71214        ITERATOR           BONCLR   DLOAD
001055: 12,2537           00614                                    SLOPESW
001056: 12,2540           24606                                    FIRSTIME
001057: 12,2541           00037                                    DEP
001058: 12,2542           60225                           DSU      NORM
001059: 12,2543           02762                                    DEPREV
001060: 12,2544           00047                                    X1
001061: 12,2545           60325                           PDDL     NORM
001062: 12,2546           00015                                    DELINDEP
001063: 12,2547           00050                                    X2
001064: 12,2550           41260                           XSU,1    DMP
001065: 12,2551           00047                                    X2
001066: 12,2552           02760                                    DELDEP
001067: 12,2553           56257                           SLR*     DDV                                   #                               PL UP 2
001068: 12,2554           21202                                    1,1
001069: 12,2555           43142                           SR1      BOFF
001070: 12,2556           04351                                    ORDERSW
001071: 12,2557           24562                                    SGNCHECK
001072: 12,2560           75246                           ABS      SIGN                                  #  IN CASE 2ND DERIV. CHANGED SIGN, MUST
001073: 12,2561           02760                                    DELDEP                                #  DISREGARD IT TO FIND MIN.
001074:
001075: 12,2562           51006        SGNCHECK           PUSH     BPL                                   #  TRIAL DELINDEP               PL DOWN 2
001076: 12,2563           24620                                    POSDEL
001077: 12,2564           43145                           DLOAD    BON
001078: 12,2565           02766                                    INDEP
001079: 12,2566           04311                                    ORDERSW
001080: 12,2567           24571                                    MINCHECK
001081: 12,2570           00017                           STORE    MAX                                   #  IF NOT 2ND ORDER, CAN MOVE MAX BOUND IN.
001082:
001083: 12,2571           45221        MINCHECK           BDSU     DSU
001084: 12,2572           00011                                    MIN
001085: 12,2573           51000                           BOV      BPL
001086: 12,2574           24600                                    MODNGDEL
001087: 12,2575           24600                                    MODNGDEL
001088: 12,2576           77650                           GOTO
001089: 12,2577           24632                                    DELOK
001090:
001091:
001092: 12,2600           45345        MODNGDEL           DLOAD    DSU                                   #  TRIAL DELINDEP WOULD EXCEED MIN BOUND
001093: 12,2601           00011                                    MIN
001094: 12,2602           02766                                    INDEP
001095: 12,2603           52005                           DMP      GOTO
001096: 12,2604           10710                                    DP9/10
001097: 12,2605           24634                                    NEWDEL
001098:
001099:
001100: 12,2606           41345        FIRSTIME           DLOAD    DMP
001101: 12,2607           00011                                    MIN
001102: 12,2610           00051                                    TWEEKIT                               #  DLOAD TWEEKIT(40D) SENSITIVE TO CHANGE.
001103: 12,2611           41325                           PDDL     DMP                                   #  S2(41D) SHOULDNT CONTAIN HI ORDER ONES
001104: 12,2612           00017                                    MAX
001105: 12,2613           00051                                    TWEEKIT
001106: 12,2614           77625                           DSU
001107: 12,2615           52165                           SIGN     GOTO
001108: 12,2616           02760                                    DELDEP
001109: 12,2617           24562                                    SGNCHECK
001110:
001111:
001112: 12,2620           43145        POSDEL             DLOAD    BON
001113: 12,2621           02766                                    INDEP
001114: 12,2622           04311                                    ORDERSW
001115: 12,2623           24625                                    MAXCHECK
001116: 12,2624           00011                           STORE    MIN                                   #  IF NOT 2ND ORDER, CAN MOVE MIN BOUND IN.
001117:
001118: 12,2625           45221        MAXCHECK           BDSU     DSU
001119: 12,2626           00017                                    MAX
001120: 12,2627           50000                           BOV      BMN
001121: 12,2630           24636                                    MODPSDEL
001122: 12,2631           24636                                    MODPSDEL
001123: 12,2632           77745        DELOK              DLOAD
001124: 12,2633           00001                                    0D
001125: 12,2634           00015        NEWDEL             STORE    DELINDEP
001126: 12,2635           77616                           RVQ
001127:
001128:
001129: 12,2636           45345        MODPSDEL           DLOAD    DSU
001130: 12,2637           00017                                    MAX
001131: 12,2640           02766                                    INDEP
001132: 12,2641           52005                           DMP      GOTO
001133: 12,2642           10710                                    DP9/10
001134: 12,2643           24634                                    NEWDEL
001135:
001136:
001137: 12,2644           45026        CHECKCTR           CS       ONE
001138: 12,2645           50120                           INDEX    FIXLOC
001139: 12,2646           60026                           AD       ITERCTR
001140: 12,2647           50120                           INDEX    FIXLOC
001141: 12,2650           54026                           TS       ITERCTR
001142: 12,2651           54154                           TS       MPAC
001143: 12,2652           06035                           TC       DANZIG
001144:
001145: 12,2653           44545        NEWSTATE           DLOAD    SR4R
001146: 12,2654           00041                                    R1
001147: 12,2655           74225                           DSU      VXSC
001148: 12,2656           00035                                    XSQC(XI)
001149: 12,2657           02722                                    UR1
001150: 12,2660           65372                           VSL1     PDDL                                  #  0D=(R1-XSQC(XI))UR1 (+33 OR 31) PL AT 6
001151: 12,2661           00025                                    X
001152: 12,2662           60316                           DSQ      NORM
001153: 12,2663           00047                                    X1
001154: 12,2664           57275                           DMPR     DMPR
001155: 12,2665           00023                                    1/ROOTMU
001156: 12,2666           00025                                    X
001157: 12,2667           53605                           DMP      SRR*
001158: 12,2670           00033                                    S(XI)
001159: 12,2671           21572                                    0          -7,1
001160: 12,2672           77621                           BDSU
001161: 12,2673           00037                                    T
001162: 12,2674           74352                           SL1      VXSC
001163: 12,2675           02744                                    VVEC
001164: 12,2676           53372                           VSL1     VAD                                   #                               PL AT 0
001165: 12,2677           41512                           VSL4     PUSH
001166: 12,2700           77646                           ABVAL
001167: 12,2701           77701        LAMENTER           NORM
001168: 12,2702           00047                                    X1
001169: 12,2703           16720                           STODL    R2
001170: 12,2704           00031                                    XI
001171: 12,2705           45205                           DMP      DSU
001172: 12,2706           00033                                    S(XI)
001173: 12,2707           10672                                    D1/128
001174: 12,2710           76405                           DMP      SL1R
001175: 12,2711           00021                                    ROOTMU
001176: 12,2712           53605                           DMP      SLR*
001177: 12,2713           00025                                    X
001178: 12,2714           21176                                    0          -3,1
001179: 12,2715           74271                           DDV      VXSC
001180: 12,2716           02720                                    R2
001181: 12,2717           02722                                    UR1
001182: 12,2720           65372                           VSL1     PDDL                                  #  6D=V2VEC PART (+15 OR 13)       PL AT 12
001183: 12,2721           00035                                    XSQC(XI)
001184: 12,2722           56257                           SLR*     DDV
001185: 12,2723           21175                                    0          -4,1
001186: 12,2724           02720                                    R2
001187: 12,2725           77621                           BDSU
001188: 12,2726           10706                                    D1/256
001189: 12,2727           53361                           VXSC     VAD                                   #                               PL AT 6
001190: 12,2730           02744                                    VVEC
001191: 12,2731           43412                           VSL8     RVQ
001192:
001193:
001194: 04,2000                                           SETLOC   CONICS1
001195: 04,2000                                           BANK
001196:
001197: 04,2666                                           COUNT*   $$/CONIC
001198:                                                                                                  #  DO NOT DISTURB THE ORDER OF THESE CDS, OVERLAYS HAVE BEEN MADE.
001199: 04,2666           00000        BEE17              DEC      0          B-14                       #  KEEP WITH D1/8 2DEC 1.0B-17 (0000004000)
001200: 04,2667           04000 00000  D1/8               2DEC     1.0        B-3
001201:
001202: 04,2671           00200 00000  D1/128             2DEC     1.0        B-7
001203:
001204: 04,2673           00400 00000  D1/64              2DEC     1.0        B-6
001205:
001206: 04,2675           10000 00000  D1/4               2DEC     1.0        B-2
001207:
001208: 04,2677           02000 00000  D1/16              2DEC     1.0        B-4
001209:
001210: 04,2701           01000 00000  D1/32              2DEC     1.0        B-5
001211:
001212: 04,2703           00020 00000  D1/1024            2DEC     1.0        B-10
001213:
001214: 04,2705           00100 00000  D1/256             2DEC     1.0        B-8
001215:
001216: 04,2707           34631 23146  DP9/10             2DEC     .9
001217:
001218: 04,2711  11,2275               KEPZERO            EQUALS   LO6ZEROS
001219: 04,2711           77467 77777  -50SC              2DEC     -50.0      B-12
001220:
001221: 04,2713           03110 17665  2PISC              2DEC     6.28318530 B-6
001222:
001223: 04,2715  04,2700               BEE19              EQUALS   D1/32      -1                         #  2DEC 1.0 B-19 (00000 01000)
001224: 04,2715  04,2704               BEE22              EQUALS   D1/256     -1                         #  2DEC 1.0 B-22 (00000 00100)
001225: 04,2715           00000 00001  ONEBIT             2DEC     1.0        B-28
001226:
001227: 04,2717           37767 37737  COGUPLIM           2DEC     .999511597
001228:
001229: 04,2721           40010 40040  COGLOLIM           2DEC     -.999511597
001230:
001231:
001232: 12,2000                                           SETLOC   CONICS
001233: 12,2000                                           BANK
001234:
001235: 12,2732                                           COUNT*   $$/CONIC
001236: 12,2732           40220        TIMETHET           STQ      SETPD                                 #                                PL AT 0
001237: 12,2733           02710                                    RTNTT
001238: 12,2734           00001                                    0
001239: 12,2735           63375                           VLOAD    PDVL                                  #  SETUP FOR PARAM CALL          PL AT 6
001240: 12,2736           02655                                    RVEC
001241: 12,2737           02744                                    VVEC
001242: 12,2740           77624                           CALL
001243: 12,2741           24765                                    PARAM
001244: 12,2742           45000                           BOV      CALL                                  #                                PL AT 0
001245: 12,2743           24762                                    COGAOVFL
001246: 12,2744           25031                                    GETX
001247: 12,2745           43145        COMMNOUT           DLOAD    BON
001248: 12,2746           00031                                    XI
001249: 12,2747           04310                                    INFINFLG
001250: 12,2750           02710                                    RTNTT
001251: 12,2751           45014                           CLEAR    CALL
001252: 12,2752           04273                                    COGAFLAG
001253: 12,2753           24421                                    DELTIME
001254: 12,2754           45014                           BON      CALL
001255: 12,2755           03706                                    RVSW
001256: 12,2756           02710                                    RTNTT
001257: 12,2757           24653                                    NEWSTATE
001258: 12,2760           77650                           GOTO
001259: 12,2761           02710                                    RTNTT
001260:
001261:
001262: 12,2762           77614        COGAOVFL           SETGO
001263: 12,2763           04033                                    COGAFLAG
001264: 12,2764           02710                                    RTNTT
001265:
001266: 12,2765           43020        PARAM              STQ      CLEAR                                 #  MPAC=V1VEC, 0D=R1VEC         PL AT 6
001267: 12,2766           02753                                    RTNPRM
001268: 12,2767           03665                                    NORMSW
001269: 12,2770           77614                           CLEAR
001270: 12,2771           04273                                    COGAFLAG
001271: 12,2772           45131                           SSP      CALL
001272: 12,2773           02673                                    GEOMSGN
001273: 12,2774           27777                                    37777                                 #  GAMMA ALWAYS LESS THAN 180DEG
001274: 12,2775           10723                                    GEOM                                  #  MPAC=SNGA (+1), 0D=CSGA (+1) PL AT 2
001275: 12,2776           14045                           STODL    36D                                   #  36D=SIN GAMMA (+1)           PL AT 0
001276: 12,2777           56261                           SR       DDV
001277: 12,3000           20606                                    5
001278:
001279: 12,3001           00045                                    36D
001280: 12,3002           32766                           STOVL*   COGA
001281: 12,3003           10761                                    MUTABLE,1
001282: 12,3004           14017                           STODL    1/MU
001283: 12,3005           02720                                    MAGVEC2
001284: 12,3006           60316                           DSQ      NORM
001285: 12,3007           00047                                    X1
001286: 12,3010           41275                           DMPR     DMP
001287: 12,3011           00017                                    1/MU
001288: 12,3012           00041                                    R1
001289: 12,3013           77657                           SRR*
001290: 12,3014           21576                                    0          -3,1
001291: 12,3015           44206                           PUSH     BDSU                                  #  0D=R1 V1SQ/MU (+6)           PL AT 2
001292: 12,3016           10702                                    D1/32
001293: 12,3017           16742                           STODL    R1A                                   #  R1A (+6)                     PL AT 0
001294:
001295: 12,3020           60205                           DMP      NORM
001296: 12,3021           00045                                    36D
001297: 12,3022           00047                                    X1
001298: 12,3023           53605                           DMP      SR*
001299: 12,3024           00045                                    36D
001300: 12,3025           20575                                    0          -4,1
001301: 12,3026           02740                           STORE    P                                     #  P (+4)
001302: 12,3027           77650                           GOTO
001303: 12,3030           02753                                    RTNPRM
001304:
001305:
001306: 04,2723                                           BANK     4
001307: 04,2000                                           SETLOC   CONICS1
001308: 04,2000                                           BANK
001309: 04,2723                                           COUNT*   $$/CONIC
001310: 04,2723           77656        GEOM               UNIT                                           #  MPAC=V2VEC, 0D=R1VEC         PL AT 6
001311: 04,2724           16712                           STODL    U2                                    #  U2 (+1)
001312: 04,2725           00045                                    36D
001313: 04,2726           26720                           STOVL    MAGVEC2                               #                               PL AT 0
001314: 04,2727           77656                           UNIT
001315: 04,2730           02722                           STORE    UR1                                   #  UR1 (+1)
001316: 04,2731           72441                           DOT      SL1
001317: 04,2732           02712                                    U2
001318: 04,2733           77725                           PDDL                                           #  OD=CSTH (+1)                 PL AT 2
001319: 04,2734           00045                                    36D
001320: 04,2735           24041                           STOVL    R1                                    #  R1 (+29 OR +27)
001321: 04,2736           02722                                    UR1
001322: 04,2737           76435                           VXV      VSL1
001323: 04,2740           02712                                    U2
001324: 04,2741           75214                           BON      SIGN
001325: 04,2742           03705                                    NORMSW
001326: 04,2743           10755                                    HAVENORM
001327: 04,2744           02673                                    GEOMSGN
001328: 04,2745           40056                           UNIT     BOV
001329: 04,2746           10753                                    COLINEAR
001330: 04,2747           16674        UNITNORM           STODL    UN                                    #  UN (+1)
001331: 04,2750           00045                                    36D
001332: 04,2751           43565                           SIGN     RVQ                                   #  MPAC=SNTH (+1), 34D=SNTH.SNTH (+2)
001333: 04,2752           02673                                    GEOMSGN
001334:
001335:
001336: 04,2753           52162        COLINEAR           VSR1     GOTO
001337: 04,2754           10747                                    UNITNORM
001338:
001339:
001340: 04,2755           75246        HAVENORM           ABVAL    SIGN
001341: 04,2756           02673                                    GEOMSGN
001342: 04,2757           77616                           RVQ                                            #  MPAC=SNTH (+1), 34D=SNTH.SNTH (+2)
001343:
001344:
001345:                                                                                                  #  *** THE ORDER OF THE FOLLOWING CONSTANTS MUST BE PRESERVED *************
001346:
001347: 04,2760           22437 16067  MUTABLE            2DEC*    3.986032   E10        B-36*           #  MUE
001348: 04,2762           15625 21042                     2DEC*    .25087606  E-10       B+34*           #  1/MUE
001349: 04,2764           30276 04773                     2DEC*    1.99650495 E5         B-18*           #  SQRT(MUE)
001350: 04,2766           25004 06702                     2DEC*    .50087529  E-5        B+17*           #  1/SQRT(MUE)
001351:
001352:
001353: 04,2770           16471 01352                     2DEC*    4.902778   E8         B-30*           #  MUM
001354: 04,2772           21412 20500                     2DEC*    .203966    E-8        B+28*           #  1/MUM
001355:
001356: 04,2774           25477 03367                     2DEC*    2.21422176 E4         B-15*           #  SQRT(MUM)
001357: 04,2776           27533 07571                     2DEC*    .45162595  E-4        B+14*           #  1/SQRT(MUM)
001358:
001359:
001360: 12,3031                                           BANK     12
001361: 12,2000                                           SETLOC   CONICS
001362: 12,2000                                           BANK
001363:
001364: 12,3031                                           COUNT*   $$/CONIC
001365: 12,3031           66374        GETX               AXT,2    SSP                                   #  ASSUMES P (+4) IN MPAC
001366: 12,3032           00003                                    3
001367: 12,3033           00052                                    S2
001368: 12,3034           00001                                    1
001369: 12,3035           77614                           CLEAR
001370: 12,3036           04276                                    360SW
001371: 12,3037           65366                           SQRT     PDDL                                  #  0D=SQRT(P)                        PL AT 2
001372: 12,3040           02732                                    CSTH
001373: 12,3041           44342                           SR1      BDSU
001374: 12,3042           10676                                    D1/4
001375: 12,3043           54325                           PDDL     SRR                                   #                                PL AT 4D
001376: 12,3044           02730                                    SNTH
001377: 12,3045           21607                                    6
001378: 12,3046           77671                           DDV                                            #                                PL AT 2
001379: 12,3047           77600                           BOV
001380: 12,3050           25164                                    360CHECK
001381: 12,3051           41225                           DSU      DMP
001382: 12,3052           02766                                    COGA                                  #                                    PL AT 0
001383: 12,3053           40132                           SL2R     BOV
001384: 12,3054           25164                                    360CHECK
001385: 12,3055           63406        WLOOP              PUSH     DSQ                                   #  0D=W (+5)                         PL AT 2
001386: 12,3056           65351                           TLOAD    PDDL                                  #  2D=WSQ (+10)                      PL AT 5
001387: 12,3057           00155                                    MPAC
001388: 12,3060           02742                                    R1A
001389: 12,3061           76202                           SR4      TAD                                   #                                PL AT 2
001390: 12,3062           75440                           BMN      SQRT
001391: 12,3063           25247                                    INFINITY
001392: 12,3064           43306                           ROUND    DAD                                   #                                PL AT 0D
001393: 12,3065           61000                           BOV      TIX,2
001394: 12,3066           25162                                    RESETX2
001395: 12,3067           25055                                    WLOOP
001396:
001397:
001398: 12,3070           40065                           BDDV     BOV
001399: 12,3071           10672                                    D1/128
001400: 12,3072           25247                                    INFINITY
001401: 12,3073           41440        POLYCOEF           BMN      PUSH                                  #  0D=1/W (+2) OR 16/W (+6)      PL AT 2
001402: 12,3074           25247                                    INFINITY
001403: 12,3075           77716                           DSQ
001404: 12,3076           41301                           NORM     DMP
001405: 12,3077           00047                                    X1
001406: 12,3100           02742                                    R1A
001407: 12,3101           77457                           SRR*     EXIT
001408: 12,3102           21567                                    0          -10D,1
001409: 12,3103           07176                           TC       POLY
001410: 12,3104           00005                           DEC      5          B-14
001411: 12,3105           20000 00000                     2DEC     .5
001412:
001413: 12,3107           72525 52471                     2DEC     -.166666770
001414:
001415: 12,3111           03146 15003                     2DEC     .100000392
001416:
001417: 12,3113           75556 45210                     2DEC     -.071401086
001418:
001419: 12,3115           01615 13553                     2DEC     .055503292
001420:
001421: 12,3117           76371 63777                     2DEC     -.047264098
001422:
001423: 12,3121           01232 27367                     2DEC     .040694204
001424:
001425: 12,3123           06014                           TC       INTPRET
001426: 12,3124           76405                           DMP      SL1R                                  #                                PL AT 0D
001427: 12,3125           43006                           PUSH     BON
001428: 12,3126           04316                                    360SW
001429: 12,3127           25234                                    TRUE360X
001430: 12,3130           60316        XCOMMON            DSQ      NORM
001431: 12,3131           00047                                    X1
001432: 12,3132           53605                           DMP      SRR*
001433: 12,3133           02742                                    R1A
001434: 12,3134           21565                                    0          -12D,1
001435: 12,3135           14031                           STODL    XI                                    #  XI (+6)
001436:
001437:
001438: 12,3136           00041                                    R1
001439: 12,3137           75542                           SR1      SQRT
001440: 12,3140           41306                           ROUND    DMP
001441: 12,3141           77632                           SL4R                                           #                                PL AT 0
001442: 12,3142           00025                           STORE    X                                     #  X (+17 OR +16)
001443:
001444:
001445: 12,3143           60316                           DSQ      NORM
001446: 12,3144           00047                                    X1
001447: 12,3145           41325                           PDDL     DMP                                   #  0D=XSQ (+34 OR +32 -N1)       PL AT 2
001448: 12,3146           02740                                    P
001449: 12,3147           00041                                    R1
001450: 12,3150           75452                           SL3      SQRT
001451: 12,3151           56405                           DMP      SL3R
001452: 12,3152           02766                                    COGA
001453: 12,3153           14043                           STODL    KEPC1
001454: 12,3154           02742                                    R1A
001455: 12,3155           43021                           BDSU     CLEAR
001456: 12,3156           10674                                    D1/64
001457: 12,3157           04270                                    INFINFLG
001458: 12,3160           00045                           STORE    KEPC2
001459: 12,3161           77616                           RVQ
001460:
001461: 12,3162           77774        RESETX2            AXT,2
001462: 12,3163           00003                                    3
001463:
001464:
001465: 12,3164           51001        360CHECK           SETPD    BPL
001466: 12,3165           00001                                    0D
001467: 12,3166           25171                                    INVRSEQN
001468: 12,3167           77614                           SET
001469: 12,3170           04076                                    360SW
001470:
001471:
001472: 12,3171           75545        INVRSEQN           DLOAD    SQRT
001473: 12,3172           02740                                    P
001474: 12,3173           41325                           PDDL     DMP                                   #  0D=SQRT(P) (+2)                   PL AT 2
001475: 12,3174           02730                                    SNTH
001476: 12,3175           02766                                    COGA
001477: 12,3176           65352                           SL1      PDDL                                  #  2D=SNTH COGA (+5)                 PL AT 4
001478: 12,3177           02732                                    CSTH
001479: 12,3200           43202                           SR4      DAD
001480: 12,3201           10702                                    D1/32
001481: 12,3202           41225                           DSU      DMP                                   #                               PL AT 2,0
001482: 12,3203           55301                           NORM     BDDV
001483: 12,3204           00047                                    X1
001484: 12,3205           02730                                    SNTH
001485: 12,3206           51457                           SLR*     ABS                                   #  NOTE: NEAR 360 CASE TREATED DIFFERENTLY
001486: 12,3207           21174                                    0          -5,1
001487: 12,3210           63406                           PUSH     DSQ                                   #  0D=1/W (-1)                  PL AT 2
001488: 12,3211           14043                           STODL    34D
001489: 12,3212           10700                                    D1/16
001490: 12,3213           63406        1/WLOOP            PUSH     DSQ                                   #  2D=G (+4)                        PL AT 4
001491: 12,3214           65234                           RTB      PDDL                                  #                               PL AT 7
001492: 12,3215           21531                                    TPMODE
001493: 12,3216           02742                                    R1A
001494: 12,3217           40405                           DMP      SR4
001495: 12,3220           00043                                    34D
001496: 12,3221           77771                           TAD                                            #                                   PL AT 4
001497: 12,3222           75440                           BMN      SQRT
001498: 12,3223           25247                                    INFINITY
001499: 12,3224           77615                           DAD                                            #                               PL AT 2
001500: 12,3225           60304                           TIX,2    NORM
001501: 12,3226           25213                                    1/WLOOP
001502: 12,3227           00047                                    X1
001503: 12,3230           77665                           BDDV
001504: 12,3231           52057                           SLR*     GOTO                                  #                                   PL AT 0
001505: 12,3232           21172                                    0          -7,1
001506: 12,3233           25073                                    POLYCOEF
001507:
001508:
001509: 12,3234           50145        TRUE360X           DLOAD    BMN
001510: 12,3235           02742                                    R1A
001511: 12,3236           25247                                    INFINITY
001512: 12,3237           60366                           SQRT     NORM
001513: 12,3240           00047                                    X1
001514: 12,3241           53665                           BDDV     SL*
001515: 12,3242           10714                                    2PISC
001516: 12,3243           20176                                    0          -3,1
001517: 12,3244           41425                           DSU      PUSH                                  #  0D=2PI/SQRT(R1A) -X          PL AT 0,2
001518: 12,3245           77650                           GOTO
001519: 12,3246           25130                                    XCOMMON
001520: 12,3247           40001        INFINITY           SETPD    BOV                                   #  NO SOLUTION EXISTS SINCE CLOSURE THROUGH
001521: 12,3250           00001                                    0                                     #  INFINITY IS REQUIRED
001522: 12,3251           25252                                    OVFLCLR
001523: 12,3252           43414        OVFLCLR            SET      RVQ
001524: 12,3253           04070                                    INFINFLG
001525:
001526: 12,3254           40220        LAMBERT            STQ      SETPD
001527: 12,3255           02710                                    RTNLAMB
001528: 12,3256           00001                                    0D
001529: 12,3257           76614                           CLEAR    VLOAD*
001530: 12,3260           02674                                    SOLNSW
001531: 12,3261           10761                                    MUTABLE,1
001532: 12,3262           14017                           STODL    1/MU
001533: 12,3263           02671                                    TDESIRED
001534: 12,3264           77675                           DMPR
001535: 12,3265           10701                                    BEE19
001536: 12,3266           02764                           STORE    EPSILONL
001537: 12,3267           77214                           SET      VLOAD
001538: 12,3270           00474                                    SLOPESW
001539: 12,3271           02655                                    R1VEC
001540: 12,3272           45115                           PDVL     CALL                                  #  0D=R1VEC (+29 OR +27)        PL AT 6
001541: 12,3273           02663                                    R2VEC                                 #  MPAC=R2VEC (+29 OR +27)
001542: 12,3274           10723                                    GEOM
001543: 12,3275           16730                           STODL    SNTH                                  #  0D=CSTH (+1)                 PL AT 2
001544: 12,3276           02720                                    MAGVEC2
001545: 12,3277           65301                           NORM     PDDL                                  #                               PL AT 4
001546: 12,3300           00047                                    X1
001547: 12,3301           00041                                    R1
001548: 12,3302           56342                           SR1      DDV                                   #                               PL AT 2
001549: 12,3303           65257                           SL*      PDDL                                  #  DXCH WITH 0D, 0D=R1/R2 (+7)  PL AT 0,2
001550: 12,3304           20173                                    0          -6,1
001551: 12,3305           77626                           STADR
001552: 12,3306           75045                           STORE    CSTH                                  #  CSTH (+1)
001553: 12,3307           44342                           SR1      BDSU
001554: 12,3310           10676                                    D1/4
001555: 12,3311           02734                           STORE    1-CSTH                                #  1-CSTH (+2)
001556:
001557: 12,3312           53106                           ROUND    BZE
001558: 12,3313           25523                                    360LAMB
001559: 12,3314           65301                           NORM     PDDL                                  #                               PL AT 4
001560: 12,3315           00047                                    X1
001561: 12,3316           00001                                    0D
001562: 12,3317           56342                           SR1      DDV                                   #                               PL AT 2
001563: 12,3320           75457                           SL*      SQRT
001564: 12,3321           20176                                    0          -3,1
001565: 12,3322           54325                           PDDL     SR                                    #  2D=SQRT(2R1/R2(1-CSTH)) (+5) PL AT 4
001566: 12,3323           02730                                    SNTH
001567: 12,3324           20607                                    6
001568: 12,3325           43271                           DDV      DAD                                   #                               PL AT 2
001569: 12,3326           02734                                    1-CSTH
001570: 12,3327           77626                           STADR
001571: 12,3330           77760                           STORE    COGAMAX
001572: 12,3331           50000                           BOV      BMN                                   #  IF OVFL, COGAMAX=COGUPLIM
001573: 12,3332           25337                                    UPLIM                                 #  IF NEG, USE EVEN IF LT COGLOLIM, SINCE
001574: 12,3333           25342                                    MAXCOGA                               #    THIS WOULD BE RESET IN LAMBLOOP
001575: 12,3334           50025                           DSU      BMN                                   #  IF COGAMAX GT COGUPLIM, COGAMAX=COGUPLIM
001576: 12,3335           10720                                    COGUPLIM
001577: 12,3336           25342                                    MAXCOGA                               #  OTHERWISE OK, SO GO TO MAXCOGA
001578: 12,3337           77745        UPLIM              DLOAD
001579: 12,3340           10720                                    COGUPLIM                              #  COGUPLIM=.999511597 = MAX VALUE OF COGA
001580: 12,3341           00017                           STORE    COGAMAX                               #    NOT CAUSING OVFL IN R1A CALCULATION
001581: 12,3342           77745        MAXCOGA            DLOAD
001582: 12,3343           02732                                    CSTH
001583: 12,3344           45261                           SR       DSU                                   #                               PL AT 0
001584: 12,3345           20607                                    6
001585: 12,3346           77626                           STADR
001586: 12,3347           61041                           STODL    CSTH-RHO
001587: 12,3350           02673                                    GEOMSGN
001588: 12,3351           71240                           BMN      DLOAD
001589: 12,3352           25543                                    LOLIM
001590: 12,3353           02736                                    CSTH-RHO
001591: 12,3354           56352                           SL1      DDV
001592: 12,3355           02730                                    SNTH
001593: 12,3356           77600                           BOV
001594: 12,3357           25543                                    LOLIM
001595: 12,3360           00011        MINCOGA            STORE    COGAMIN                               #  COGAMIN (+5)
001596: 12,3361           66214                           BON      SSP
001597: 12,3362           00715                                    GUESSW
001598: 12,3363           25527                                    NOGUESS
001599: 12,3364           00051                                    TWEEKIT
001600: 12,3365           00001                                    00001
001601: 12,3366           77745                           DLOAD
001602: 12,3367           02766                                    COGA
001603:
001604:
001605: 12,3370           77605        LAMBLOOP           DMP
001606: 12,3371           02730                                    SNTH
001607: 12,3372           45342                           SR1      DSU
001608: 12,3373           02736                                    CSTH-RHO
001609: 12,3374           65301                           NORM     PDDL                                  #  0D=SNTH COGA-(CSTH-RHO) (+7+C(X1)) PL=2
001610: 12,3375           00047                                    X1
001611: 12,3376           02734                                    1-CSTH
001612: 12,3377           56257                           SL*      DDV                                   #  1-CSTH (+2)                  PL AT 0
001613: 12,3400           20170                                    0          -9D,1
001614: 12,3401           53040                           BMN      BZE
001615: 12,3402           25457                                    NEGP
001616: 12,3403           25457                                    NEGP
001617: 12,3404           16740                           STODL    P                                     #  P=(1-CSTH)/(SNTH COGA-(CSTH-RHO)) (+4)
001618: 12,3405           02766                                    COGA
001619: 12,3406           43316                           DSQ      DAD
001620: 12,3407           10704                                    D1/1024
001621: 12,3410           41301                           NORM     DMP
001622: 12,3411           00047                                    X1
001623: 12,3412           02740                                    P
001624: 12,3413           44257                           SR*      BDSU
001625: 12,3414           20571                                    0          -8D,1
001626: 12,3415           10702                                    D1/32
001627: 12,3416           16742                           STODL    R1A                                   #  R1A=2-P(1+COGA COGA) (+6)
001628: 12,3417           02740                                    P
001629: 12,3420           45000                           BOV      CALL
001630: 12,3421           25462                                    HIENERGY
001631: 12,3422           25031                                    GETX
001632: 12,3423           77745                           DLOAD
001633: 12,3424           00037                                    T
001634: 12,3425           16762                           STODL    TPREV
001635: 12,3426           00031                                    XI
001636: 12,3427           45014                           BON      CALL
001637: 12,3430           04310                                    INFINFLG
001638: 12,3431           25457                                    NEGP                                  #  HAVE EXCEEDED THEORETICAL BOUNDS
001639: 12,3432           24421                                    DELTIME
001640: 12,3433           44200                           BOV      BDSU
001641: 12,3434           25477                                    BIGTIME
001642: 12,3435           02671                                    TDESIRED
001643: 12,3436           02760                           STORE    TERRLAMB
001644: 12,3437           44246                           ABS      BDSU
001645: 12,3440           02764                                    EPSILONL
001646: 12,3441           47044                           BPL      RTB
001647: 12,3442           25546                                    INITV
001648: 12,3443           24644                                    CHECKCTR
001649: 12,3444           45030                           BHIZ     CALL
001650: 12,3445           25510                                    SUFFCHEK
001651: 12,3446           24536                                    ITERATOR
001652: 12,3447           53145                           DLOAD    BZE
001653: 12,3450           00155                                    MPAC
001654: 12,3451           25510                                    SUFFCHEK
001655: 12,3452           77615                           DAD
001656: 12,3453           02766                                    COGA
001657: 12,3454           02766                           STORE    COGA
001658: 12,3455           77650                           GOTO
001659: 12,3456           25370                                    LAMBLOOP
001660:
001661:
001662: 12,3457           51145        NEGP               DLOAD    BPL                                   #  IMPOSSIBLE TRAJECTORY DUE TO INACCURATE
001663: 12,3460           00015                                    DCOGA                                 #  BOUND CALCULATION. TRY NEW COGA.
001664: 12,3461           25502                                    LOENERGY
001665:
001666:
001667: 12,3462           71201        HIENERGY           SETPD    DLOAD                                 #  HIGH ENERGY TRAJECTORY RESULTED
001668: 12,3463           00001                                    0
001669: 12,3464           02766                                    COGA                                  #  IN OVFL OF P OR R1A, OR XI EXCEEDING 50.
001670: 12,3465           00011                           STORE    COGAMIN                               #  THIS IS THE NEW BOUND.
001671: 12,3466           70545        COMMONLM           DLOAD    SR1
001672: 12,3467           00015                                    DCOGA
001673: 12,3470           00015                           STORE    DCOGA                                 #  USE DCOGA/2 AS DECREMENT
001674: 12,3471           44254                           BZE      BDSU
001675: 12,3472           25510                                    SUFFCHEK
001676: 12,3473           02766                                    COGA
001677: 12,3474           02766                           STORE    COGA
001678: 12,3475           77650                           GOTO                                           #  RESTART THIS LOOP
001679: 12,3476           25370                                    LAMBLOOP
001680:
001681:
001682: 12,3477           77745        BIGTIME            DLOAD
001683: 12,3500           02762                                    TPREV
001684: 12,3501           00037                           STORE    T
001685:
001686:
001687: 12,3502           71201        LOENERGY           SETPD    DLOAD                                 #  LOW ENERGY TRAJECTORY RESULTED
001688: 12,3503           00001                                    0
001689: 12,3504           02766                                    COGA                                  #  IN OVERFLOW OF TIME.
001690: 12,3505           00017                           STORE    COGAMAX                               #  THIS IS THE NEW BOUND.
001691: 12,3506           77650                           GOTO
001692: 12,3507           25466                                    COMMONLM
001693:
001694:
001695: 12,3510           51545        SUFFCHEK           DLOAD    ABS
001696: 12,3511           02760                                    TERRLAMB
001697: 12,3512           41325                           PDDL     DMP                                   #                               PL AT 2D
001698: 12,3513           02671                                    TDESIRED
001699: 12,3514           10667                                    BEE17
001700: 12,3515           45215                           DAD      DSU                                   #                               PL AT 0D
001701: 12,3516           10716                                    ONEBIT
001702: 12,3517           43044                           BPL      SETGO
001703: 12,3520           25546                                    INITV
001704: 12,3521           02434                                    SOLNSW
001705: 12,3522           25546                                    INITV
001706: 12,3523           43001        360LAMB            SETPD    SETGO                                 #  LAMBERT CANNOT HANDLE CSTH=1
001707: 12,3524           00001                                    0
001708: 12,3525           02434                                    SOLNSW
001709: 12,3526           02710                                    RTNLAMB
001710:
001711:
001712: 12,3527           71331        NOGUESS            SSP      DLOAD
001713: 12,3530           00051                                    TWEEKIT
001714: 12,3531           10000                                    20000
001715: 12,3532           00011                                    COGAMIN
001716: 12,3533           65342                           SR1      PDDL                                  #                               PL AT 2
001717: 12,3534           00017                                    COGAMAX
001718: 12,3535           43342                           SR1      DAD
001719: 12,3536           77626                           STADR                                          #                               PL AT 0
001720: 12,3537           75011                           STORE    COGA
001721: 12,3540           00015                           STORE    DCOGA
001722: 12,3541           77650                           GOTO
001723: 12,3542           25370                                    LAMBLOOP
001724:
001725: 12,3543           52145        LOLIM              DLOAD    GOTO
001726: 12,3544           10722                                    COGLOLIM                              #  COGLOLIM=-.999511597
001727: 12,3545           25360                                    MINCOGA
001728:
001729:
001730: 12,3546           60345        INITV              DLOAD    NORM
001731: 12,3547           00041                                    R1
001732: 12,3550           00047                                    X1
001733: 12,3551           70525                           PDDL     SR1                                   #                               PL AT 2
001734: 12,3552           02740                                    P
001735: 12,3553           77671                           DDV                                            #                               PL AT 0
001736: 12,3554           75457                           SL*      SQRT
001737: 12,3555           20175                                    0          -4,1
001738: 12,3556           72405                           DMP      SL1
001739: 12,3557           00021                                    ROOTMU
001740: 12,3560           41206                           PUSH     DMP                                   #  0D=VTAN (+7)                 PL AT 2
001741: 12,3561           02766                                    COGA
001742: 12,3562           74261                           SL       VXSC
001743: 12,3563           20206                                    5
001744: 12,3564           02722                                    UR1
001745: 12,3565           77725                           PDDL                                           #  XCH WITH 0D                  PL AT 0,6
001746: 12,3566           76561                           VXSC     VSL1
001747: 12,3567           02674                                    UN
001748: 12,3570           53235                           VXV      VAD                                   #                               PL AT 0
001749: 12,3571           02722                                    UR1
001750: 12,3572           77772                           VSL1
001751: 12,3573           02744                           STORE    VVEC
001752: 12,3574           53135                           SLOAD    BZE
001753: 12,3575           02702                                    VTARGTAG
001754: 12,3576           25601                                    TARGETV
001755: 12,3577           77650                           GOTO
001756: 12,3600           02710                                    RTNLAMB
001757:
001758:
001759: 12,3601           45145        TARGETV            DLOAD    CALL
001760: 12,3602           02720                                    MAGVEC2
001761: 12,3603           24701                                    LAMENTER
001762: 12,3604           02703                           STORE    VTARGET
001763: 12,3605           77650                           GOTO
001764: 12,3606           02710                                    RTNLAMB
001765:
001766: 12,3607           40220        TIMERAD            STQ      SETPD                                 #                                  PL AT 0
001767: 12,3610           02710                                    RTNTR
001768: 12,3611           00001                                    0
001769: 12,3612           63375                           VLOAD    PDVL                                  #                                  PL AT 6
001770: 12,3613           02655                                    RVEC
001771: 12,3614           02744                                    VVEC
001772: 12,3615           77624                           CALL
001773: 12,3616           24765                                    PARAM
001774: 12,3617           71200                           BOV      DLOAD                                 #                                  PL AT 0
001775: 12,3620           24762                                    COGAOVFL
001776: 12,3621           10702                                    D1/32
001777: 12,3622           41225                           DSU      DMP
001778: 12,3623           02742                                    R1A
001779: 12,3624           02740                                    P
001780: 12,3625           41366                           SQRT     DMP
001781: 12,3626           02766                                    COGA
001782: 12,3627           74212                           SL4      VXSC
001783: 12,3630           02712                                    U2
001784: 12,3631           45325                           PDDL     DSU                                   #                                  PL AT 6
001785: 12,3632           10674                                    D1/64
001786: 12,3633           02742                                    R1A
001787: 12,3634           52361                           VXSC     VSU                                   #                                  PL AT 0
001788: 12,3635           02722                                    UR1
001789: 12,3636           53512                           VSL4     UNIT
001790: 12,3637           77600                           BOV
001791: 12,3640           25523                                    360LAMB                               #  NO SOLUTION SINCE CONIC IS A CIRCLE
001792: 12,3641           60325                           PDDL     NORM                                  #  0D=UNIT(ECC) (+3)               PL AT 6
001793: 12,3642           02756                                    RDESIRED                              #  36D=ECC (+3)
001794: 12,3643           00047                                    X1
001795: 12,3644           41325                           PDDL     DMP                                   #                               PL AT 8
001796: 12,3645           00041                                    R1
001797: 12,3646           02740                                    P
001798: 12,3647           56257                           SL*      DDV                                   #                               PL AT 6
001799: 12,3650           20201                                    0,1
001800: 12,3651           56225                           DSU      DDV
001801: 12,3652           10700                                    D1/16
001802: 12,3653           00045                                    36D                                   #  36D=ECC (+3)
001803: 12,3654           00031                           STORE    COSF
001804: 12,3655           63400                           BOV      DSQ
001805: 12,3656           25716                                    BADR2
001806: 12,3657           50021                           BDSU     BMN
001807: 12,3660           10676                                    D1/4
001808: 12,3661           25716                                    BADR2
001809: 12,3662           75366                           SQRT     SIGN
001810: 12,3663           02755                                    SGNRDOT
001811: 12,3664           77614                           CLEAR
001812: 12,3665           04272                                    APSESW
001813:
001814: 12,3666           76561        TERMNVEC           VXSC     VSL1
001815: 12,3667           02674                                    UN
001816: 12,3670           63235                           VXV      PDVL                                  #  VXCH WITH 0D                 PL AT 0,6
001817: 12,3671           00001                                    0D
001818: 12,3672           53361                           VXSC     VAD                                   #                               PL AT 0
001819: 12,3673           00031                                    COSF
001820: 12,3674           41572                           VSL1     PUSH                                  #  0D=U2                        PL AT 6
001821:
001822: 12,3675           56241                           DOT      DDV                                   #  LIMITS RESULT TO POSMAX OR NEGMAX
001823: 12,3676           02722                                    UR1
001824: 12,3677           23676                                    DP1/4
001825: 12,3700           40142                           SR1      BOV                                   #  SCALE BACK DOWN TO NORMAL
001826: 12,3701           25702                                    +1                                    #  CLEAR OVFIND IF SET
001827: 12,3702           26732                           STOVL    CSTH                                  #  CSTH (+1)
001828: 12,3703           02722                                    UR1
001829: 12,3704           76435                           VXV      VSL1
001830: 12,3705           72441                           DOT      SL1
001831: 12,3706           02674                                    UN
001832: 12,3707           16730                           STODL    SNTH                                  #  SNTH (+1)
001833: 12,3710           02740                                    P
001834: 12,3711           77624                           CALL
001835: 12,3712           25031                                    GETX
001836: 12,3713           77614                           CLRGO
001837: 12,3714           02634                                    SOLNSW
001838: 12,3715           24745                                    COMMNOUT
001839:
001840:
001841: 12,3716           75345        BADR2              DLOAD    SIGN
001842: 12,3717           22274                                    LODPHALF
001843: 12,3720           00031                                    COSF
001844: 12,3721           14031                           STODL    COSF
001845: 12,3722           22276                                    KEPZERO
001846: 12,3723           77614                           SETGO
001847: 12,3724           04032                                    APSESW
001848: 12,3725           25666                                    TERMNVEC
001849: 12,3726           40220        APSIDES            STQ      SETPD                                 #                                 PL AT 0
001850: 12,3727           02710                                    RTNAPSE
001851: 12,3730           00001                                    0D
001852: 12,3731           63375                           VLOAD    PDVL                                  #                                 PL AT 6
001853: 12,3732           02655                                    RVEC
001854: 12,3733           02744                                    VVEC
001855: 12,3734           77624                           CALL
001856: 12,3735           24765                                    PARAM
001857: 12,3736           77600                           BOV                                            #                                 PL AT 0
001858: 12,3737           25740                                    GETECC
001859: 12,3740           42405        GETECC             DMP      SL4
001860: 12,3741           02742                                    R1A
001861: 12,3742           75421                           BDSU     SQRT
001862: 12,3743           10674                                    D1/64
001863: 12,3744           02752                           STORE    ECC
001864: 12,3745           65215                           DAD      PDDL                                  #                                 PL AT 2
001865: 12,3746           10670                                    D1/8
001866: 12,3747           00041                                    R1
001867: 12,3750           72405                           DMP      SL1
001868: 12,3751           02740                                    P
001869: 12,3752           77671                           DDV                                            #                                  PL AT 0
001870: 12,3753           60325                           PDDL     NORM                                  #  0D=RP (+29 OR +27)              PL AT 2
001871: 12,3754           02742                                    R1A
001872: 12,3755           00047                                    X1
001873: 12,3756           53725                           PDDL     SL*                                   #                                  PL AT 4
001874: 12,3757           00041                                    R1
001875: 12,3760           20174                                    0          -5,1
001876: 12,3761           45271                           DDV      DSU                                   #                                  PL AT 2,0
001877: 12,3762           50000                           BOV      BMN
001878: 12,3763           25767                                    INFINAPO
001879: 12,3764           25767                                    INFINAPO
001880: 12,3765           77650                           GOTO
001881: 12,3766           02710                                    RTNAPSE
001882: 12,3767           52145        INFINAPO           DLOAD    GOTO                                  #  RETURNS WITH APOAPSIS IN MPAC, PERIAPSIS
001883: 12,3770           22307                                    LDPOSMAX
001884: 12,3771           02710                                    RTNAPSE                               #  THAT PL IS AT 0.
001885:
001886: 12,3772  11,2306               LDPOSMAX           EQUALS   LODPMAX                               #  DPPOSMAX IN LOW MEMORY.
001887:
001888:                                                                                                  #  ERASABLE ASSIGNMENTS
001889:
001890:
001891:                                                                                                  #  KEPLER SUBROUTINE
001892:
001893:                                                                                                  #     INPUT -
001894:                                                                                                  #  RRECT    ERASE  +5
001895:                                                                                                  #  VRECT    ERASE  +5
001896:                                                                                                  #  TAU.     ERASE  +1
001897:                                                                                                  #  XKEP     ERASE  +1
001898:                                                                                                  #  TC       ERASE  +1
001899:                                                                                                  #  XPREV    ERASE  +1
001900: 12,3772                        1/MU               EQUALS   14D
001901: 12,3772                        ROOTMU             EQUALS   16D
001902: 12,3772                        1/ROOTMU           EQUALS   18D
001903:                                                                                                  #     OUTPUT -
001904:                                                                                                  #  RCV      ERASE  +5
001905:                                                                                                  #  VCV      ERASE  +5
001906:                                                                                                  #  RC       ERASE  +1
001907:                                                                                                  #  XPREV    ERASE  +1
001908:
001909:                                                                                                  #  DEBRIS -
001910: 12,3772                        ALPHA              EQUALS   8D
001911: 12,3772                        XMAX               EQUALS   10D
001912: 12,3772                        XMIN               EQUALS   12D
001913: 12,3772                        X                  EQUALS   20D
001914: 12,3772                        XI                 EQUALS   24D
001915: 12,3772                        S(XI)              EQUALS   26D
001916: 12,3772                        XSQC(XI)           EQUALS   28D
001917: 12,3772                        T                  EQUALS   30D
001918: 12,3772                        R1                 EQUALS   32D
001919: 12,3772                        KEPC1              EQUALS   34D
001920: 12,3772                        KEPC2              EQUALS   36D
001921:                                                                                                  #  DELX     ERASE  +1
001922:                                                                                                  #  DELT     ERASE  +1
001923:                                                                                                  #  URRECT   ERASE  +5
001924:                                                                                                  #  RCNORM   ERASE  +1
001925:                                                                                                  #  XPREV    EQUALS XKEP
001926:
001927:
001928:                                                                                                  #  LAMBERT SUBROUTINE
001929:
001930:                                                                                                  #     INPUT-
001931:                                                                                                  #  R1VEC    ERASE  +5
001932:                                                                                                  #  R2VEC    ERASE  +5
001933:                                                                                                  #  TDESIRED ERASE  +1
001934:                                                                                                  #  GEOMSGN  ERASE  +0
001935:                                                                                                  #  GUESSW                      0 IF COGA GUESS AVAILABLE, 1 IF NOT
001936:                                                                                                  #  COGA     ERASE  +1          INPUT ONLY IF GUESSW IS ZERO.
001937:                                                                                                  #  NORMSW                      0 IF UN TO BE COMPUTED, 1 IF UN INPUT
001938:                                                                                                  #  UN       ERASE  +5          ONLY USED IF NORMSW IS 1
001939:                                                                                                  #  VTARGTAG ERASE  +0
001940:                                                                                                  #  TWEEKIT  EQUALS  40D        ONLY USED IF GUESSW IS 0
001941:
001942:                                                                                                  #     OUTPUT -
001943:                                                                                                  #  VTARGET  ERASE  +5          AVAILABLE ONLY IF VTARGTAG IS ZERO.
001944:                                                                                                  #  V1VEC    EQUALS MPAC
001945:
001946:                                                                                                  #     DEBRIS -
001947:                                                                                                  #  RTNLAMB  ERASE  +0
001948:                                                                                                  #  U2       ERASE  +5
001949:                                                                                                  #  MAGVEC2  ERASE  +1
001950:                                                                                                  #  UR1      ERASE  +5
001951:                                                                                                  #  R1       EQUALS 31D
001952:                                                                                                  #  UN       ERASE  +5
001953:                                                                                                  #  SNTH     ERASE  +1
001954:                                                                                                  #  CSTH     ERASE  +1
001955:                                                                                                  #  1-CSTH   ERASE  +1
001956:                                                                                                  #  CSTH-RHO ERASE  +1
001957: 12,3772                        COGAMAX            EQUALS   14D                                   #  CLOBBERS 1/MU
001958: 12,3772                        COGAMIN            EQUALS   8D
001959: 12,3772                        DCOGA              EQUALS   12D
001960:                                                                                                  #  TWEEKIT  EQUALS 40D
001961:                                                                                                  #  P        ERASE  +1
001962:                                                                                                  #  COGA     ERASE  +1
001963:                                                                                                  #  R1A      ERASE  +1
001964:                                                                                                  #  X        EQUALS 20D
001965:                                                                                                  #  XSQ      EQUALS 22D
001966:                                                                                                  #  XI       EQUALS 24D
001967:                                                                                                  #  S(XI)    EQUALS 26D
001968:                                                                                                  #  XSQC(XI) EQUALS 28D
001969:                                                                                                  #  T        EQUALS 30D
001970:                                                                                                  #  KEPC1    EQUALS 34D
001971:                                                                                                  #  KEPC2    EQUALS 36D
001972:                                                                                                  #  SLOPESW
001973:                                                                                                  #  SOLNSW
001974:                                                                                                  #  OTHERS -
001975:
001976:                                                                                                  #  RVEC     EQUALS R1VEC
001977:                                                                                                  #  VVEC     ERASE  +5
001978:                                                                                                  #  COGAFLAG
001979:                                                                                                  #  RVSW
001980:                                                                                                  #  INFINFLG
001981:                                                                                                  #  APSESW
001982:                                                                                                  #  360SW
001983:                                                                                                  #  RTNTT    EQUALS RTNLAMB
001984:                                                                                                  #  ECC      ERASE  +1
001985:                                                                                                  #  RTNTR    EQUALS RTNLAMB
001986:                                                                                                  #  RTNAPSE  EQUALS RTNLAMB
001987:                                                                                                  #  R2       EQUALS MAGVEC2
001988: 12,3772                        COSF               EQUALS   24D
001989:                                                                                                  #  RTNPRM   ERASE  +0
001990:                                                                                                  #  SGNRDOT  ERASE  +0
001991:                                                                                                  #  RDESIRED ERASE  +1
001992:
001993:
001994:                                                                                                  #  ITERATOR SUBROUTINE
001995:
001996:                                                                                                  #  ORDERSW
001997: 12,3772                        MAX                EQUALS   14D                                   #  CLOBBERS 1/MU
001998: 12,3772                        MIN                EQUALS   8D
001999:                                                                                                  #  INDEP    ERASE  +1
002000: 12,3772                        DELINDEP           EQUALS   12D
002001: 12,3772                        ITERCTR            EQUALS   22D
002002: 12,3772                        DEP                EQUALS   30D
002003:                                                                                                  #  DELDEP   ERASE  +1
002004:                                                                                                  #  DEPREV   ERASE  +1
002005: 12,3772                        TWEEKIT            EQUALS   40D
002006:
002007:
002008:                                                                                                  #  MORE KEPLER
002009:
002010:                                                                                                  #  EPSILONT ERASE  +1
002011:
002012:
002013:                                                                                                  #  MORE LAMBERT
002014:
002015:                                                                                                  #  TERRLAMB EQUALS DELDEP
002016:                                                                                                  #  TPREV    EQUALS DEPREV
002017:
002018:
002019:                                                                                                  #  EPSILONL EQUALS EPSILONT +2     DOUBLE PRECISION WORD

End of include-file CONIC_SUBROUTINES.agc.  Parent file is MAIN.agc


