
Source Code


000002:                                                                                                  ## Copyright:   Public domain.
000003:                                                                                                  ## Filename:    DAP_INTERFACE_SUBROUTINES.agc
000004:                                                                                                  ## Purpose:     A section of an attempt to reconstruct Sundance revision 306
000005:                                                                                                  ##              as closely as possible with available information. Sundance
000006:                                                                                                  ##              306 is the source code for the Lunar Module's (LM) Apollo
000007:                                                                                                  ##              Guidance Computer (AGC) for Apollo 9. This program was created
000008:                                                                                                  ##              using the mixed-revision SundanceXXX as a starting point, and
000009:                                                                                                  ##              pulling back features from Luminary 69 believed to have been
000010:                                                                                                  ##              added based on memos, checklists, observed address changes,
000011:                                                                                                  ##              or the Sundance GSOPs.
000012:                                                                                                  ## Assembler:   yaYUL
000013:                                                                                                  ## Contact:     Ron Burkey <info@sandroid.org>.
000014:                                                                                                  ## Website:     www.ibiblio.org/apollo/index.html
000015:                                                                                                  ## Mod history: 2020-07-24 MAS  Created from SundanceXXX.
000016:
000017:
000018:
000019: 20,2204                                           BANK     20
000020: 20,2000                                           SETLOC   DAPS3
000021: 20,2000                                           BANK
000022:
000023: 20,2204  E6,1632                                  EBANK=   CDUXD
000024: 20,2204                                           COUNT*   $$/DAPIF
000025:
000026:                                                                                                  #  MOD 0         DATE    11/15/66        BY GEORGE W. CHERRY
000027:                                                                                                  #  MOD 1                  1/23/67        MODIFICATION BY PETER ADLER
000028:
000029:                                                                                                  #  FUNCTIONAL DESCRIPTION
000030:                                                                                                  #        HEREIN ARE A COLLECTION OF SUBROUTINES WHICH ALLOW MISSION CONTROL PROGRAMS TO CONTROL THE MODE
000031:                                                                                                  #        AND INTERFACE WITH THE DAP.
000032:
000033:                                                                                                  #  CALLING SEQUENCES
000034:                                                                                                  #        IN INTERRUPT OR WITH INTERRUPT INHIBITED
000035:                                                                                                  #                TC      IBNKCALL
000036:                                                                                                  #                FCADR   ROUTINE
000037:                                                                                                  #        IN A JOB WITHOUT INTERRUPT INHIBITED
000038:                                                                                                  #                INHINT
000039:                                                                                                  #                TC      IBNKCALL
000040:                                                                                                  #                FCADR   ROUTINE
000041:                                                                                                  #                RELINT
000042:
000043:                                                                                                  #  OUTPUT
000044:                                                                                                  #        SEE INDIVIDUAL ROUTINES BELOW
000045:
000046:                                                                                                  #  DEBRIS
000047:                                                                                                  #        A, L, AND SOMETIMES MDUETEMP                    ODE     NOT IN PULSES MODE
000048:
000049:                                                                                                  #  SUBROUTINE NAMES:
000050:                                                                                                  #        SETMAXDB, SETMINDB, RESTORDB, PFLITEDB
000051:                                                                                                  #  MODIFIED:     30 JANUARY 1968 BY P S WEISSMAN TO CREATE RESTORDB.
000052:                                                                                                  #  MODIFIED:     1 MARCH 1968 BY P S WEISSMAN TO SAVE EBANK AND CREATE PFLITEDB
000053:
000054:                                                                                                  #  FUNCTIONAL DESCRIPTION:
000055:                                                                                                  #        SETMAXDB - SET DEADBAND TO 5.0 DEGREES
000056:                                                                                                  #        SETMINDB - SET DEADBAND TO 0.3 DEGREE
000057:                                                                                                  #        RESTORDB - SET DEADBAND TO MAX OR MIN ACCORDING TO SETTING OF DBSELECT BIT OF DAPBOOLS
000058:                                                                                                  #        PFLITEDB - SET DEADBAND TO 1.0 DEGREE AND ZERO THE COMMANDED ATTITUDE CHANGE AND COMMANDED RATE
000059:
000060:                                                                                                  #        ALL ENTRIES SET UP A NOVAC JOB TO DO 1/ACCS SO THAT THE TJETLAW SWITCH CURVES ARE POSITIONED TO
000061:                                                                                                  #        REFLECT THE NEW DEADBAND.  IT SHOULD BE NOTED THAT THE DEADBAND REFERS TO THE ATTITUDE IN THE P-, U-, AND V-AXES.
000062:
000063:                                                                                                  #  SUBROUTINE CALLED:    NOVAC
000064:
000065:                                                                                                  #  CALLING SEQUENCE:     SAME AS ABOVE
000066:                                                                                                  #                        OR      TC RESTORDB +1    FROM ALLCOAST
000067:
000068:                                                                                                  #  DEBRIS:               A, L, Q, RUPTREG1, (ITEMPS IN NOVAC)
000069:
000070:                                                                                                  #  DAPBOOLS BITS AND NAMES
000071:
000072: 20,2204     5026               AUTRATE1           EQUALS   BIT1                                  #  THESE FLAGS ARE USED TOGETHER TO INIDCAT
000073: 20,2204     5025               AUTRATE2           EQUALS   BIT2                                  #  ASTRONAUT-CHOSEN KALCMANU MANEUVER RATES
000074:                                                                                                  #  (0,0)=(BIT2,BIT1)= 0.2 DEG/SEC
000075:                                                                                                  #  (0,1)=  0.5 DEG/SEC
000076: 20,2204     5024               ACCSOKAY           EQUALS   BIT3                                  #  VALUES FROM 1/ACCS USABLE FLAG
000077: 20,2204     5023               DBSELECT           EQUALS   BIT4                                  #  DAP DEADBAND SELECT FLAG
000078: 20,2204     5022               AORBSYST           EQUALS   BIT5                                  #  P-AXIS ROTATION JET SYSTEM (A OR B) FLAG
000079: 20,2204     5021               ULLAGER            EQUALS   BIT6                                  #  INTERNAL ULLAGE REQUEST FLAG
000080: 20,2204     5020               RHCSCALE           EQUALS   BIT7                                  #  RHC SCALE SELECT FLAG
000081: 20,2204     5017               DRIFTBIT           EQUALS   BIT8                                  #  USE OFFSET ACCELERATION FLAG
000082: 20,2204     5016               XOVINHIB           EQUALS   BIT9                                  #  X-AXIS OVERRIDE PERMITTED FLAG
000083: 20,2204     5015               AORBTRAN           EQUALS   BIT10                                 #  X-TRANSLATION JET SYSTEM (A OR B) FLAG
000084: 20,2204     5014               ACC4OR2X           EQUALS   BIT11                                 #  2 OR 4 JET Z-TRANSLATION MODE FLAG
000085: 20,2204     5013               OURRCBIT           EQUALS   BIT12                                 #  INTERNAL DAP RATE COMMAND ACTIVITY FLAG
000086: 20,2204     5012               CSMDOCKD           EQUALS   BIT13                                 #  CSM DOCKED TO LM FLAG
000087: 20,2204     5011               USEQRJTS           EQUALS   BIT14                                 #  TRIM GIMBAL FLAG
000088: 20,2204     5010               PULSES             EQUALS   BIT15                                 #  MINIMUM IMPULSE RHC MODE FLAG
000089:
000090:
000091: 20,2204           31102        RESTORDB           CAE      DAPBOOLS                              #  DETERMINE CREW-SELECTED DEADBAND.
000092: 20,2205           75023                           MASK     DBSELECT
000093: 20,2206           00006                           EXTEND
000094: 20,2207           12221                           BZF      SETMINDB
000095:
000096: 20,2210           35751        SETMAXDB           CAF      WIDEDB                                #  SET 5 DEGREE DEADBAND.
000097: 20,2211           55356                 +1        TS       DB
000098:
000099: 20,2212           00006                           EXTEND                                         #  SET UP JOB TO RE-POSITION SWITCH CURVES.
000100: 20,2213           22070                           QXCH     RUPTREG1
000101: 20,2214           37667        CALLACCS           CAF      PRIO27
000102: 20,2215           05142                           TC       NOVAC
000103: 20,2216  E6,1532                                  EBANK=   AOSQ
000104: 20,2216           02312 40106                     2CADR    1/ACCJOB
000105:
000106: 20,2220           00070                           TC       RUPTREG1                              #  RETURN TO CALLER.
000107:
000108: 20,2221           35750        SETMINDB           CAF      NARROWDB                              #  SET 0.3 DEGREE DEADBAND.
000109: 20,2222           12211                           TCF      SETMAXDB   +1
000110:
000111: 20,2223           00006        PFLITEDB           EXTEND                                         #  THE RETURN FROM CALLACCS IS TO RUPTREG1.
000112: 20,2224           22070                           QXCH     RUPTREG1
000113: 20,2225           02232                           TC       ZATTEROR                              #  ZERO THE ERRORS AND COMMANDED RATES.
000114: 20,2226           32231                           CAF      POWERDB                               #  SET DB TO 1.0 DEG.
000115: 20,2227           55356                           TS       DB
000116: 20,2230           12214                           TCF      CALLACCS                              #  SET UP 1/ACCS AND RETURN TO CALLER.
000117:
000118: 20,2231           00554        POWERDB            DEC      .02222                                #  1.0 DEGREE SCALED AT 45.
000119:
000120: 20,2232           35065        ZATTEROR           CAF      EBANK6
000121: 20,2233           56003                           XCH      EBANK
000122: 20,2234           54001                           TS       L                                     #  SAVE CALLERS EBANK IN L.
000123: 20,2235           30032                           CAE      CDUX
000124: 20,2236           55632                           TS       CDUXD
000125: 20,2237           30033                           CAE      CDUY
000126: 20,2240           55633                           TS       CDUYD
000127: 20,2241           30034                           CAE      CDUZ
000128: 20,2242           55634                           TS       CDUZD
000129: 20,2243           12247                           TCF      STOPRATE   +3
000130:
000131: 20,2244           35065        STOPRATE           CAF      EBANK6
000132: 20,2245           56003                           XCH      EBANK
000133: 20,2246           54001                           TS       L                                     #  SAVE CALLERS EBANK IN L.
000134: 20,2247           35030                 +3        CAF      ZERO
000135: 20,2250           55640                           TS       OMEGAPD
000136: 20,2251           55641                           TS       OMEGAQD
000137: 20,2252           55642                           TS       OMEGARD
000138: 20,2253           55635                           TS       DELCDUX
000139: 20,2254           55636                           TS       DELCDUY
000140: 20,2255           55637                           TS       DELCDUZ
000141: 20,2256           55301                           TS       DELPEROR
000142: 20,2257           55302                           TS       DELQEROR
000143: 20,2260           55303                           TS       DELREROR
000144: 20,2261           22003                           LXCH     EBANK                                 #  RESTORE CALLERS EBANK.
000145: 20,2262           00002                           TC       Q
000146:
000147:                                                                                                  #  SUBROUTINE NAME:      ALLCOAST
000148:                                                                                                  #  WILL BE CALLED BY FRESH STARTS AND ENGINE OFF ROUTINES.               .
000149:
000150:                                                                                                  #  CALLING SEQUENCE:     (SAME AS ABOVE)
000151:
000152:                                                                                                  #  EXIT:                 RETURN TO Q.
000153:
000154:                                                                                                  #  SUBROUTINES CALLED:   STOPRATE, RESTORDB, NOVAC
000155:
000156:                                                                                                  #  ZERO:                 (FOR ALL AXES) AOS, ALPHA, AOSTERM, OMEGAD, DELCDU, DELEROR
000157:
000158:                                                                                                  #  OUTPUT:               DRIFTBIT/DAPBOOLS, DB, JOB TO DO 1/ACCS
000159:
000160:                                                                                                  #  DEBRIS:               A, L, Q, RUPTREG1, RUPTREG2, (ITEMPS IN NOVAC)
000161:
000162: 20,2263           35065        ALLCOAST           CAF      EBANK6
000163: 20,2264           56003                           XCH      EBANK
000164: 20,2265           54066                           TS       ITEMP6
000165: 20,2266           45030                           CS       ZERO
000166: 20,2267           55532                           TS       AOSQ
000167: 20,2270           55533                           TS       AOSQ       +1
000168: 20,2271           55534                           TS       AOSR
000169: 20,2272           55535                           TS       AOSR       +1
000170: 20,2273           55422                           TS       ALPHAQ                                #  FOR DOWNLIST.
000171: 20,2274           55423                           TS       ALPHAR
000172: 20,2275           55540                           TS       AOSQTERM
000173: 20,2276           55541                           TS       AOSRTERM
000174: 20,2277           30066                           CA       ITEMP6
000175: 20,2300           54003                           TS       EBANK                                 #  RESTORE EBANK (EBANK6 NO LONGER NEEDED)
000176:
000177: 20,2301           41102                           CS       DAPBOOLS                              #  SET UP DRIFTBIT
000178: 20,2302           75017                           MASK     DRIFTBIT
000179: 20,2303           27102                           ADS      DAPBOOLS
000180: 20,2304           12205                           TCF      RESTORDB   +1                         #  RESTORE DEADBANK TO CREW-SELECTED VALUE.
000181:

End of include-file DAP_INTERFACE_SUBROUTINES.agc.  Parent file is MAIN.agc


