
Source Code


000002:                                                                                                  ## Copyright:   Public domain.
000003:                                                                                                  ## Filename:    DISPLAY_INTERFACE_ROUTINES.agc
000004:                                                                                                  ## Purpose:     A section of an attempt to reconstruct Sundance revision 306
000005:                                                                                                  ##              as closely as possible with available information. Sundance
000006:                                                                                                  ##              306 is the source code for the Lunar Module's (LM) Apollo
000007:                                                                                                  ##              Guidance Computer (AGC) for Apollo 9. This program was created
000008:                                                                                                  ##              using the mixed-revision SundanceXXX as a starting point, and
000009:                                                                                                  ##              pulling back features from Luminary 69 believed to have been
000010:                                                                                                  ##              added based on memos, checklists, observed address changes,
000011:                                                                                                  ##              or the Sundance GSOPs.
000012:                                                                                                  ## Assembler:   yaYUL
000013:                                                                                                  ## Contact:     Ron Burkey <info@sandroid.org>.
000014:                                                                                                  ## Website:     www.ibiblio.org/apollo/index.html
000015:                                                                                                  ## Mod history: 2020-07-24 MAS  Created from SundanceXXX.
000016:
000017:
000018:
000019:                                                                                                  #  DISPLAYS CAN BE CLASSIFIED INTO THE FOLLOWING CATEGORIES-
000020:
000021:                                                                                                  #      1. PRIORITY DISPLAYS- DISPLAYS WHICH TAKE PRIORITY OVER ALL OTHER DISPLAYS. USUALLY THESE DISPLAYS ARE SENT
000022:                                                                                                  #         OUT UNDER CRITICAL ALARM CONDITIONS.
000023:                                                                                                  #      2. EXTENDED VERB DISPLAYS- ALL EXTENDED VERBS AND MARK ROUTINES SHOULD USE EXTENDED VERB (MARK) DISPLAYS.
000024:                                                                                                  #      3. NORMAL DISPLAYS- ALL MISSION PROGRAM DISPLAYS WHICH INTERFACE WITH THE ASTRONAUT DURING THE NORMAL
000025:                                                                                                  #         SEQUENCE OF EVENTS.
000026:                                                                                                  #      4. MISC. DISPLAYS- ALL DISPLAYS NOT HANDLED BY THE DISPLAY INTERFACEROUTINES. THESE INCLUDE SUCH DISPLAYS AS
000027:                                                                                                  #         MM DISPLAYS AND SPECIAL PURPOSE DISPLAYS HANDLED BY PINBALL.
000028:
000029:
000030:                                                                                                  #      5. ASTRONAUT INITIATED DISPLAYS- ALL DISPLAYS INITIATED EXTERNALLY.
000031:                                                                                                  #  THE FOLLOWING TERMS ARE USED TO DESCRIBE THE STATUS OF DISPLAYS-
000032:
000033:                                                                                                  #      1. ACTIVE-THE DISPLAY WHICH IS (1) BEING DISPLAYED TO THE ASTRONAUT AND WAITING FOR A RESPONSE OR
000034:                                                                                                  #         (2) WAITING FIRST IN LINE FOR THE ASTRONAUT TO FINISH USING THE DSKY OR (3) BEING DISPLAYED ON THE DSKY
000035:                                                                                                  #         BUT NOT WAITING FOR A RESPONSE.
000036:                                                                                                  #      2. INACTIVE -A DISPLAY WHICH HAS (1) BEEN ACTIVE BUT WAS INTERRUPTEDBY A DISPLAY OF HIGHER PRIORITY,
000037:                                                                                                  #         (2) BEEN PUT INTO THE WAITING LIST AT TIME IT WAS REQUESTED DUE TO THE FACT A HIGHER PRIORITY DISPLAY
000038:                                                                                                  #         WAS ALREADY GOING, (3) BEEN INTERRUPTED BY THE ASTRONAUT (CALLED A PINBRANCH CONDITION, SINCE THIS TYPE
000039:                                                                                                  #         OF INACTIVE DISPLAY IS USUALLY REACTIVATED ONLY BY PINBALL) OR (4) A DISPLAY WHICH HAS FINISHED BUT STILL
000040:                                                                                                  #         HAS INFO SAVED FOR RESTART PURPOSES.
000041:
000042:
000043:                                                                                                  #  DISPLAY PRIORITIES WORK AS FOLLOWS-
000044:
000045:                                                                                                  #    INTERRUPTS-
000046:                                                                                                  #      1. THE ASTRONAUT CAN INTERRUPT ANY DISPLAY WITH AN EXTERNAL DISPLAY REQUEST.
000047:                                                                                                  #      2. INTERNAL DISPLAYS CAN NOT BE SENT OUT WHEN THE ASTRONAUT IS USING THE DSKY.
000048:                                                                                                  #      3. PRIORITY DISPLAYS INTERRUPT ALL OTHER TYPES OF INTERNAL DISPLAYS. A PRIORITY DISPLAY INTERRUPTING ANOTHER
000049:                                                                                                  #         PRIORITY DISPLAY WILL CAUSE AN ABORT UNLESS BIT14 IS SET FOR THE LINUS ROUTINE.
000050:                                                                                                  #      4. A MARK DISPLAY INTERRUPTS ANY NORMAL DISPLAY.
000051:                                                                                                  #      5. A MARK THAT INTERRUPTS A MARK COMPLETELY REPLACES IT.
000052:
000053:                                                                                                  #    ORDER OF WAITING DISPLAYS-
000054:                                                                                                  #      1. ASTRONAUT EXTERNAL USE
000055:                                                                                                  #      2. PRIORITY
000056:                                                                                                  #      3. INTERRUPTED MARK
000057:                                                                                                  #      4. INTERRUPTED NORMAL
000058:
000059:                                                                                                  #      5. MARK TO BE REQUESTED (SEE DESCRIPTION OF ENDMARK)
000060:                                                                                                  #      6. MARK WAITING
000061:                                                                                                  #      7. NORMAL WAITING
000062:
000063:                                                                                                  #  THE DISPLAY ROUTINES ARE INTENDED TO SERVE AS AN INTERFACE BETWEEN THE USER AND PINBALL.  THE
000064:                                                                                                  #  FOLLOWING STATEMENTS CAN BE MADE ABOUT NORMAL DISPLAYS AND PRIORITY DISPLAYS (A DESCRIPTION OF MARK ROUTINES
000065:                                                                                                  #  WILL FOLLOW LATER):
000066:
000067:                                                                                                  #       1.  ALL ROUTINES THAT END IN R HAVE AN IMMEDIATE RETURN TO THE USER.  FOR ALL FLASHING DISPLAYS THIS RETURN
000068:                                                                                                  #           IS TO THE USERS CALL CADR +4.  FOR THE ONLY NON FLASHING IMMEDIATE RETURN DISPLAY (GODSPR) THIS RETURN
000069:                                                                                                  #           IS TO THE USERS CALLING LOC +1.
000070:                                                                                                  #       2.  ALL ROUTINES NOT ENDING IN R DO NOT DO AN IMMEDIATE RETURN TO THE USER.
000071:                                                                                                  #       3.  ALL ROUTINES THAT END IN R START A SEPARATE JOB (MAKEPLAY) WITH USERS JOB PRIORITY.
000072:                                                                                                  #       4.  ALL ROUTINES NOT ENDING IN R BRANCH DIRECTLY TO MAKEPLAY WHICH MAKES THESE DISPLAYS A PART OF THE
000073:                                                                                                  #           USERS JOB.
000074:                                                                                                  #       5.  ALL DISPLAY ROUTINES ARE CALLED VIA BANKCALL.
000075:                                                                                                  #       6.  TO RESTART A DISPLAY THE USER WILL GENERALLY USE A PHASE OF ONE WITH DESIRED RESTART GROUP (SEE
000076:                                                                                                  #           DESCRIPTION OF RESTARTS).
000077:                                                                                                  #       7.  ALL FLASHING DISPLAYS HAVE 3 RETURNS TO THE USER FROM ASTRONAUT RESPONSES.  A TERMINATE (V34) BRANCHES
000078:                                                                                                  #           TO THE USERS CALL CADR +1.  A PROCEED (V33) BRANCHES TO THE USERS CALL CADR +2.  AN ENTER OR RECYCLE
000079:                                                                                                  #           (V32) BRANCHES TO THE USERS CALL CADR +3.
000080:                                                                                                  #       8.  ALL ROUTINES MUST BE USED UNDER EXECUTIVE CONTROL.
000081:
000082:                                                                                                  #  A DESCRIPTION OF EACH ROUTINE WITH AN EXAMPLE FOLLOWS:
000083:
000084:                                                                                                  #  GODSP IS USED TO DISPLAY A VERB NOUN ARRIVING IN A.  NO RETURN IS MADE TO THE USER.
000085:
000086:                                                                                                  #       1. GODSP IS NOT RESTARTABLE
000087:                                                                                                  #       2. A VERB PASTE WITH GODSP ALWAYS TURNS ON THE FLASH.
000088:                                                                                                  #                                                   CAF    VXXNYY
000089:                                                                                                  #                                                   TC     BANKCALL
000090:                                                                                                  #                                                   CADR   GODSP
000091:
000092:                                                                                                  #                                          VXXNYY   OCT    0XXYY
000093:
000094:                                                                                                  #  GODSPR IS THE SAME AS GODSP ONLY RETURN IS TO THE USER.
000095:
000096:                                                                                                  #                                                   CAF    VXXNYY
000097:                                                                                                  #                                                   TC     BANKCALL
000098:                                                                                                  #                                                   CADR   GODSPR
000099:
000100:                                                                                                  #                                                   ...    ...             IMMEDIATE RETURN OF GODSPR
000101:
000102:                                                                                                  #  GOFLASH DISPLAYS A FLASHING VERB NOUN WITH NO IMMEDIATE RETURN TO THE USER. 3 RETURNS ARE POSSIBLE FROM
000103:                                                                                                  #  THE ASTRONAUT (SEE NO. 7 ABOVE).
000104:
000105:                                                                                                  #                                                   CAF    VXXNYY          VXX NYY WILL BE A FLASHING VERB NOUN.
000106:                                                                                                  #                                                   TC     BANKCALL
000107:                                                                                                  #                                                   CADR   GOFLASH
000108:                                                                                                  #                                                   ...    ...             TERMINATE RETURN
000109:                                                                                                  #                                                   ...    ...             PROCEED RETURN
000110:                                                                                                  #                                                   ...    ...             ENTER OR RECYCLE RETURN
000111:
000112:                                                                                                  #  GOPERF1 IS ENTERED WITH DESIRED CHECKLIST VALUE IN A.  GOPERF1 WILL DISPLAY THIS VALUE IN R1 BY MEANS OF A
000113:                                                                                                  #  V01 N25.A FLASHING PLEASE PERFORM ON CHECKLIST ( V50 N25) IS THEN DISPLAYED.  NO IMMEDIATE RETURN IS MADE TO
000114:                                                                                                  #  USER (SEE NO. 7 ABOVE).
000115:
000116:                                                                                                  #  GOPERF1 BLANKS REGISTERS R2 AND R3
000117:                                                                                                  #                                                   CAF    OCTXX           CODE FOR CHECKLIST VALUE XX
000118:                                                                                                  #                                                   TC     BANKCALL
000119:                                                                                                  #                                                   CADR   GOPERF1
000120:                                                                                                  #                                                   ...    ...             TERMINATE RETURN
000121:                                                                                                  #                                                   ...    ...             PROCEED RETURN
000122:                                                                                                  #                                                   ...    ...             ENTER RETURN
000123:
000124:                                                                                                  #  GOPERF2 IS ENTERED WITH A VARIABLE NOUN AND V01 ( V00 FOR N10 OR N11) IN A.  GOPERF2 WILL FIRST DISPLAY THE
000125:                                                                                                  #  REQUESTED NOUN BY MEANS OF A V01NYY OR A V00NYY. PLEASE PERFORM ON NOUN (V50 NYY) THEN BECOMES A FLASHING
000126:                                                                                                  #  DISPLAY.  NO IMMEDIATE RETURN IS MADE TO THE USER (SEE NO. 7 ABOVE).
000127:
000128:                                                                                                  #  GOPERF2 DOES NOT BLANK ANY REGISTERS
000129:
000130:                                                                                                  #                                                   CAF    VXXNYY          VARIABLE NOUN YY. XX=00 OR 01.
000131:                                                                                                  #                                                   TC     BANKCALL
000132:                                                                                                  #                                                   CADR   GOPERF2
000133:                                                                                                  #                                                   ...    ...             TERMINATE RETURN
000134:                                                                                                  #                                                   ...    ...             PROCEED RETURN
000135:                                                                                                  #                                                   ...    ...             ENTER RETURN
000136:
000137:                                                                                                  #  GOPERF3 IS USED FOR A PLEASE PERFORM ON A PROGRAM NUMBER.  THE DESIRED PROGRAM NO. IS ENTERED IN A.  GOPERF3
000138:                                                                                                  #  DISPLAYS THE NO. BY MEANS OF A V06 N07 FOLLOWED BY A FLASHING V50 N07 FOR A PLEASE PERFORM. NO IMMEDIATE RETURN
000139:                                                                                                  #  IS MADE TO THE USER (SEE NO. 7 ABOVE).
000140:
000141:                                                                                                  #  GOPERF3 BLANKS REGISTERS R2 AND R3
000142:
000143:                                                                                                  #                                                   CAF    DECXX           REQUEST PERFORM ON PXX
000144:                                                                                                  #                                                   TC     BANKCALL
000145:                                                                                                  #                                                   CADR   GOPERF3
000146:                                                                                                  #                                                   ...    ...             TERMINATE RETURN
000147:                                                                                                  #                                                   ...    ...             PROCEED RETURN
000148:                                                                                                  #                                                   ...    ...             ENTER RETURN
000149:
000150:                                                                                                  #  GOPERF4 IS USED FOR A PLEASE PERFORM ON AN OPTION. THE DESIRED OPTION ISENTERED IN A AND STORED IN OPTION1.
000151:                                                                                                  #  GOPERF4 DISPLAYS R1 AND R2 BY MEANS OF A V04N06 FOLLOWED BY A FLASHING  V50N06 FOR A PLEASE PERFORM. NO
000152:                                                                                                  #  IMMEDIATE RETURN IS MADE TO THE USER (SEE NO. 7 ABOVE).
000153:
000154:                                                                                                  #                                                   CAF    OCTXX           REQUEST PERFORM ON OPTION XX
000155:                                                                                                  #                                                   TC     BANKCALL
000156:                                                                                                  #                                                   CADR   GOPERF4
000157:                                                                                                  #                                                   ...    ...             TERMINATE RETURN
000158:                                                                                                  #                                                   ...    ...             PROCEED RETURN
000159:                                                                                                  #                                                   ...    ...             ENTER RETURN
000160:
000161:                                                                                                  #  GOPERF4 BLANKS REGISTER R3
000162:
000163:                                                                                                  #  GODSPRET IS USED TO DISPLAY A VERB NOUN ARRIVING IN A WITH A RETURN TO THE USER AFTER THE DISPLAY HAS BEEN SENT
000164:                                                                                                  #  OUT.
000165:
000166:                                                                                                  #                                                   CAF    VXXNYY
000167:                                                                                                  #                                                   TC     BANKCALL
000168:                                                                                                  #                                                   CADR   GODSPRET
000169:                                                                                                  #                                                   ...    ...             RETURN TO USER
000170:
000171:                                                                                                  #  REGODSP IS USED TO DISPLAY A VERB NOUN ARRIVING IN A.  REGODSP IS THE SAME AS GODSP ONLY REGODSP REPLACES ANY
000172:                                                                                                  #  ACTIVE NORMAL DISPLAY IF ONE WAS ACTIVE.
000173:
000174:                                                                                                  #                                                   CAF    VXXNYY
000175:                                                                                                  #                                                   TC     BANKCALL
000176:                                                                                                  #                                                   CADR   REGODSP
000177:
000178:                                                                                                  #  REFLASH IS THE SAME AS GOFLASH ONLY REFLASH REPLACES ANY ACTIVE NORMAL DISPLAY IF ONE WAS ACTIVE.
000179:
000180:                                                                                                  #                                                   CAF    VXXNYY          VXX NYY WILL BE A FLASHING VERB NOUN
000181:                                                                                                  #                                                   TC     BANKCALL
000182:                                                                                                  #                                                   CADR   REFLASH
000183:                                                                                                  #                                                   ...    ...             TERMINATE RETURN
000184:                                                                                                  #                                                   ...    ...             PROCEED RETURN
000185:                                                                                                  #                                                   ...    ...             ENTER RETURN
000186:
000187:                                                                                                  #  GOFLASHR IS SAME AS GOFLASH ONLY AN IMMEDIATE RETURN IS MADE TO THE USERS CALL CADR +4.
000188:
000189:                                                                                                  #                                                   CAF    VXXNYY
000190:                                                                                                  #                                                   TC     BANKCALL
000191:                                                                                                  #                                                   CADR   GOFLASHR
000192:                                                                                                  #                                                   ...    ...             TERMINATE RETURN
000193:                                                                                                  #                                                   ...    ...             PROCEED RETURN
000194:                                                                                                  #                                                   ...    ...             ENTER OR RECYCLE RETURN
000195:
000196:                                                                                                  #                                                   ...    ...             IMMEDIATE RETURN FROM GOFLASHR
000197:
000198:                                                                                                  #  GOPERF1R IS THE SAME AS GOPERF1 ONLY GOPERF1R HAS AN IMMEDIATE RETURN TOUSERS CALL CADR +4.
000199:
000200:                                                                                                  #  GOPERF1R BLANKS REGISTERS R2 AND R3
000201:
000202:                                                                                                  #                                                   CAF    OCTXX           CODE FOR CHECKLIST VALUE XX.
000203:                                                                                                  #                                                   TC     BANKCALL
000204:                                                                                                  #                                                   CADR   GOPERF1R
000205:                                                                                                  #                                                   ...    ...             TERMINATE RETURN
000206:                                                                                                  #                                                   ...    ...             PROCEED RETURN
000207:                                                                                                  #                                                   ...    ...             ENTER RETURN
000208:
000209:                                                                                                  #                                                   ...    ...             IMMEDIATE RETURN FROM GOPERF1R
000210:
000211:                                                                                                  #  GOPERF2R IS THE SAME AS GOPERF2 ONLY AN IMMEDIATE RETURN IS MADE TO USERS CALL CADR +4.
000212:
000213:                                                                                                  #  GOPERF2R DOES NOT BLANK ANY REGISTERS
000214:
000215:                                                                                                  #                                                   CAF    VXXNYY          VARIABLE NOUN YY REQUESTED.  XX=00 OR 01
000216:                                                                                                  #                                                   TC     BANKCALL
000217:                                                                                                  #                                                   CADR   GOPERF2R
000218:                                                                                                  #                                                   ...    ...             TERMINATE RETURN
000219:                                                                                                  #                                                   ...    ...             PROCEED RETURN
000220:                                                                                                  #                                                   ...    ...             ENTER RETURN
000221:
000222:                                                                                                  #                                                   ...    ...             IMMEDIATE RETURN HERE FROM GOPERF2R
000223:
000224:                                                                                                  #  GOPERF3R IS THE SAME AS GOPERF3 ONLY AN IMMEDIATE RETURN IS MADE TO USERS CALL CADR +4.
000225:
000226:                                                                                                  #  GOPERF3R BLANKS REGISTERS R2 AND R3
000227:
000228:                                                                                                  #                                                   CAF    PROGXX          PERFORM PROGRAM XX
000229:                                                                                                  #                                                   TC     BANKCALL
000230:                                                                                                  #                                                   CADR   GOPERF3R
000231:                                                                                                  #                                                   ...    ...             TERMINATE RETURN
000232:                                                                                                  #                                                   ...    ...             PROCEED RETURN
000233:                                                                                                  #                                                   ...    ...             ENTER RETURN
000234:
000235:                                                                                                  #                                                   ...    ...             GOPERF3R IMMEDIATELY RETURNS HERE
000236:
000237:                                                                                                  #  GOPERF4R IS THE SAME AS GOPERF4 ONLY AN IMMEDIATE RETURN IS MADE TO USERS CALL CADR +4.
000238:
000239:                                                                                                  #                                                   CAF    OCTXX           REQUEST PERFORM ON OPTIONXX
000240:                                                                                                  #                                                   TC     BANKCALL
000241:                                                                                                  #                                                   CADR   GOPERF4R
000242:                                                                                                  #                                                   ...    ...             TERMINATE RETURN
000243:                                                                                                  #                                                   ...    ...             PROCEED RETURN
000244:                                                                                                  #                                                   ...    ...             ENTER RETURN
000245:
000246:                                                                                                  #                                                   ...    ...             IMMEDIATE RETURN TO USER
000247:
000248:                                                                                                  #  GOPERF4R BLANKS REGISTER R3
000249:
000250:                                                                                                  #  REFLASHR IS THE SAME AS REFLASH ONLY AN IMMEDIATE RETURN IS MADE TO THE USERS CALL CADR +4.
000251:
000252:                                                                                                  #                                                   CAF    VXXNYY          VXX NYY WILL BE A FLASHING VERB NOUN
000253:                                                                                                  #                                                   TC     BANKCALL
000254:                                                                                                  #                                                   CADR   REFLASHR
000255:                                                                                                  #                                                   ...    ...             TERMINATE RETURN
000256:                                                                                                  #                                                   ...    ...             PROCEED RETURN
000257:                                                                                                  #                                                   ...    ...             ENTER RETURN
000258:
000259:                                                                                                  #                                                   ...    ...             IMMEDIATE RETURN TO USER
000260:
000261:                                                                                                  #  REGODSPR IS THE SAME AS REGODSP ONLY A RETURN (IMMEDIATE) IS MADE TO THE USER.
000262:
000263:                                                                                                  #                                                   CAF    VXXNYY
000264:                                                                                                  #                                                   TC     BANKCALL
000265:                                                                                                  #                                                   CADR   REGODSPR
000266:                                                                                                  #                                                   ...    ...             IMMEDIATE RETURN TO USER
000267:                                                                                                  #  GOMARK IS USED TO DISPLAY A MARK VERB NOUN ARRIVING IN A.  NO RETURN IS MADE TO THE USER.
000268:
000269:                                                                                                  #  GOXDSP = GOMARK
000270:
000271:                                                                                                  #                                                   CAF    VXXNYY          VXXNYY CONTAINS VERB AND NOUN
000272:                                                                                                  #                                                   TC     BANKCALL
000273:                                                                                                  #                                                   CADR   GOMARK          OTHER EXTENDED VERBS USE CADR GOXDSP
000274:
000275:                                                                                                  #  GOMARKR IS THE SAME AS GOMARK ONLY RETURN IS TO THE USER.
000276:
000277:                                                                                                  #  GOXDSPR = GOMARKR
000278:
000279:                                                                                                  #                                                   CAF    VXXNYY
000280:                                                                                                  #                                                   TC     BANKCALL
000281:                                                                                                  #                                                   CADR   GOMARKR         OTHER EXTENDED VERBS USE CADR GOXDSPR
000282:
000283:                                                                                                  #                                                   ...    ...             IMMEDIATE RETURN OF GOMARKR
000284:
000285:                                                                                                  #  GOMARKF DISPLAYS A FLASHING MARK VERB NOUN WITH NO IMMEDIATE RETURN TO THE USER. 3 RETURNS ARE POSSIBLE FROM
000286:                                                                                                  #  THE ASTRONAUT (SEE NO. 7 ABOVE ).
000287:
000288:                                                                                                  #  GOXDSPF = GOMARKF
000289:
000290:                                                                                                  #                                                   CAF    VXXNYY          VXXNYY WILL BE A FLASHING MARK VERB NOUN
000291:                                                                                                  #                                                   TC     BANKCALL
000292:                                                                                                  #                                                   CADR   GOMARKF         OTHER EXTENDED VERBS USE CADR GOXDSPF
000293:                                                                                                  #                                                   ...    ...             TERMINATE RETURN
000294:                                                                                                  #                                                   ...    ...             PROCEED RETURN
000295:                                                                                                  #                                                   ...    ...             ENTER OR RECYCLE RETURN
000296:
000297:                                                                                                  #  GOMARKFR IS THE SAME AS GOMARKF ONLY AN IMMEDIATE RETURN IS MADE TO THE USER CALL CADR +4.
000298:
000299:                                                                                                  #  GOXDSPFR = GOMARKFR
000300:
000301:                                                                                                  #                                                   CAF    VXXNYY          FLASHING MARK VERB NOUN
000302:                                                                                                  #                                                   TC     BANKCALL
000303:                                                                                                  #                                                   CADR   GOMARKFR        OTHER EXTENDED VERBS USE CADR GOXDSPFR
000304:                                                                                                  #                                                   ...    ...             TERMINATE RETURN
000305:                                                                                                  #                                                   ...    ...             PROCEED RETURN
000306:                                                                                                  #                                                   ...    ...             ENTER OR RECYCLE RETURN
000307:
000308:                                                                                                  #                                                   ...    ...             IMMEDIATE RETURN TO THE USER
000309:
000310:                                                                                                  #  GOMARK1 IS USED FOR A PLEASE PERFORM ON A MARK REQUEST WITH ONLY 1 ASTRONAUT RETURN TO THE USER. NO IMMEDIATE
000311:                                                                                                  #  RETURN IS MADE. THE DESIRED MARK PLEASE PERFORM VERB AND DESIRED NOUN ISENTERED IN A. GOMARK1 DISPLAYS R1, R2, R
000312:                                                                                                  #  MEANS OF A V05NYY FOLLOWED BY A FLASHING V5XNYY FOR A PLEASE PERFORM. THE ASTRONAUT WILL RESPOND WITH A MARK
000313:                                                                                                  #  OR MARK REJECT OR AN ENTER. THE ENTER IS THE ONLY ASTRONAUT RESPONSE THAT WILL COME BACK TO THE USER.
000314:
000315:                                                                                                  #                                                   CAF    V5XNYY          X=1,2,3,4   Y=NOUN
000316:                                                                                                  #                                                   TC     BANKCALL
000317:                                                                                                  #                                                   CADR   GOMARK1
000318:
000319:                                                                                                  #                                                   ...    ...             ENTER RETURN
000320:
000321:                                                                                                  #  *** IF BLANKING DESIRED ON NON R ROUTINES, NOTIFY DISPLAYER.
000322:
000323:                                                                                                  #  GOMARK1R IS THE SAME AS A GOMARK1 ONLY AN IMMEDIATE RETURN IS MADE TO THE USERS CALL CADR +2.
000324:                                                                                                  #                                                   CAF    V5XNYY          X=1,2,3,4    YY = NOUN
000325:                                                                                                  #                                                   TC     BANKCALL
000326:                                                                                                  #                                                   CADR   GOMARK1R
000327:
000328:                                                                                                  #                                                   ...    ...             ASTRONAUT ENTER RETURN
000329:                                                                                                  #                                                   ...    ...             IMMEDIATE RETURN TO USER
000330:
000331:                                                                                                  #  GOMARK2 IS THE SAME AS GOMARK1 ONLY 3 RETURNS ARE MADE TO THE USER FROM THE ASTRONAUT.
000332:                                                                                                  #                                                   CAF    V5XNYY          X=1,2,3,4   YY=NOUN
000333:                                                                                                  #                                                   TC     BANKCALL
000334:                                                                                                  #                                                   CADR   GOMARK2
000335:                                                                                                  #                                                   ...    ...             TERMINATE RETURN
000336:                                                                                                  #                                                   ...    ...             PROCEED RETURN
000337:                                                                                                  #                                                   ...    ...             ENTER RETURN
000338:                                                                                                  #  GOMARK2R IS THE SAME AS GOMARK1R ONLY 3 ASTRONAUT RETURNS ARE MADE TO THE USER.
000339:
000340:                                                                                                  #                                                   CAF    V5XNYY          X=0,1,2,3,4   YY=NOUN
000341:                                                                                                  #                                                   TC     BANKCALL
000342:                                                                                                  #                                                   CADR   GOMARK2R
000343:                                                                                                  #                                                   ...    ...             TERMINATE RETURN
000344:                                                                                                  #                                                   ...    ...             PROCEED RETURN
000345:                                                                                                  #                                                   ...    ...             ENTER RETURN
000346:
000347:                                                                                                  #                                                   ...    ...             IMMEDIATE RETURN TO THE USER
000348:
000349:                                                                                                  #  GOMARK3 IS USED FOR A PLEASE PERFORM ON A MARK REQUEST WITH A 3 COMP. DEC DISPLAY. THE DESIRED MARK PLEASE
000350:                                                                                                  #  PERFORM VERB AND NOUN ARE ENTERED IN A. GOMARK3 DISPLAYS R1, R2, R3 BY MEANS OF A V06NYY FOLLOWED BY A FLASHING
000351:                                                                                                  #  V5XNYY FOR A PLEASE PERFORM. GOMARK3 HAS 3 ASTRONAUT RETURNS TO THE USER WITH NO IMMEDIATE RETURN.
000352:
000353:                                                                                                  #                                                   CAF    V5XNYY          X=1, 2,3,4 YY=NOUN
000354:                                                                                                  #                                                   TC     BANKCALL
000355:                                                                                                  #                                                   CADR   GOMARK3
000356:                                                                                                  #                                                   ...    ...             TERMINATE RETURN
000357:                                                                                                  #                                                   ...    ...             PROCEED RETURN
000358:                                                                                                  #                                                   ...    ...             ENTER RETURN
000359:
000360:                                                                                                  #  GOMARK4 IS THE SAME AS GOMARK3 ONLY R2 AND R3 ARE BLANKED AND R1 IS DISPLAYED IN OCTAL.
000361:
000362:                                                                                                  #                                                   CAF    V5XNYY          X=1,2,3,4 YY=NOUN
000363:                                                                                                  #                                                   TC     BANKCALL
000364:                                                                                                  #                                                   CADR   GOMARK4
000365:                                                                                                  #                                                   ...    ...             TERMINATE RETURN
000366:                                                                                                  #                                                   ...    ...             PROCEED RETURN
000367:                                                                                                  #                                                   ...    ...             ENTER RETURN
000368:
000369:                                                                                                  #  EXDSPRET IS USED TO DISPLAY A VERB NOUN ARRIVING IN A WITH A RETURN MADE TO THE USER AFTER THE DISPLAY HAS BEEN
000370:                                                                                                  #  SENT OUT.
000371:                                                                                                  #                                                   CAF    VXXNYY
000372:                                                                                                  #                                                   TC     BANKCALL
000373:                                                                                                  #                                                   CADR   EXDSPRET
000374:
000375:                                                                                                  #                                                   ...    ...             RETURN TO USER
000376:
000377:                                                                                                  #  KLEENEX CLEANS OUT ALL MARK DISPLAYS (ACTIVE AND INACTIVE). A RETURN IS MADE TO THE USER AFTER THE MARK DISPLAYS
000378:                                                                                                  #  HAVE BEEN CLEANED OUT.
000379:
000380:                                                                                                  #                                                   TC     BANKCALL
000381:                                                                                                  #                                                   CADR   KLEENEX
000382:
000383:                                                                                                  #                                                   ...    ...             RETURN TO USER
000384:
000385:                                                                                                  #  MARKBRAN IS A SPECIAL PURPOSE ROUTINE USED FOR SAVING JOB VAC AREAS (SEE DESCRIPTION OF MARKBRAN BELOW).
000386:
000387:                                                                                                  #                                                   TC     BANKCALL
000388:                                                                                                  #                                                   CADR   MARKBRAN
000389:
000390:                                                                                                  #                                                   ...    ...             BAD RETURN IF MARK DISPLAY NOT ACTIVE
000391:
000392:                                                                                                  #                                                                          (GOOD RETURN TO IMMEDIATE RETURN LOC OF
000393:                                                                                                  #                                                                          LAST FLASHING MARK R ROUTINE)
000394:
000395:                                                                                                  #  PINBRNCH REESTABLISHES THE LAST ACTIVE FLASHING DISPLAY. IF THERE IS NO ACTIVE FLASHING DISPLAY, THE DSKY IS
000396:                                                                                                  #  BLANKED AND CONTROL IS SENT TO ENDOFJOB.
000397:
000398:                                                                                                  #                                                   TC     POSTJUMP
000399:                                                                                                  #                                                   CADR   PINBRNCH
000400:
000401:                                                                                                  #  PRIODSP IS USED AS A PRIORITY DISPLAY.  IT WILL DISPLAY A GOFLASH TYPE DISPLAY WITH THREE POSSIBLE RETURNS FROM
000402:                                                                                                  #  THE ASTRONAUT(SEE NO.7 ABOVE).
000403:
000404:                                                                                                  #       THE MAIN PURPOSE OF PRIODSP IS TO REPLACE THE PRESENT DISPLAY WITH A DISPLAY OF HIGHER PRIORITY AND TO
000405:                                                                                                  #  PROVIDE A MEANS FOR RESTORING THE OLD DISPLAY WHEN THE PRIORITY DISPLAY
000406:                                                                                                  #  IS RESPONDED TO BY THE ASTRONAUT.
000407:
000408:                                                                                                  #       THE FORMER DISPLAY IS RESTORED BY AN AUTOMATIC BRANCH TO WAKE UP THE DISPLAY THAT WAS INTERRUPTED BY THE
000409:                                                                                                  #  PRIO DISPLAY.
000410:
000411:                                                                                                  #                                                   CAF    VXXNYY          VXXNYY WILL BE A FLASHING VERB NOUN
000412:                                                                                                  #                                                   TC     BANKCALL
000413:                                                                                                  #                                                   CADR   PRIODSP
000414:                                                                                                  #                                                   ...    ...             TERMINATE RETURN
000415:                                                                                                  #                                                   ...    ...             PROCEED RETURN
000416:                                                                                                  #                                                   ...    ...             ENTER OR RECYCLE RETURN
000417:
000418:                                                                                                  #  PRIODSPR IS THE SAME AS PRIODSP ONLY AN IMMEDIATE RETURN IS MADE TO THE USERS CALL CADR +4.
000419:
000420:                                                                                                  #                                                   CAF    VXXNYY          VXXNYY WILL BE A FLASHING VERB NOUN
000421:                                                                                                  #                                                   TC     BANKCALL
000422:                                                                                                  #                                                   CADR   PRIODSPR
000423:                                                                                                  #                                                   ...    ...             TERMINATE RETURN
000424:                                                                                                  #                                                   ...    ...             PROCEED RETURN
000425:                                                                                                  #                                                   ...    ...             ENTER OR RECYCLE RETURN
000426:
000427:                                                                                                  #                                                   ...    ...             IMMEDIATE RETURN
000428:
000429:                                                                                                  #  PRIOLARM DOES A V05N09 PRIODSPR.
000430:                                                                                                  #  CLEANDSP CLEANS OUT ALL NORMAL DISPLAYS (ACTIVE AND INACTIVE). A RETURN IS MADE TO THE USER AFTER NORMAL
000431:                                                                                                  #  DISPLAYS ARE CLEANED OUT.
000432:                                                                                                  #                                                   TC     BANKCALL
000433:                                                                                                  #                                                   CADR   CLEANDSP
000434:
000435:                                                                                                  #                                                   ...    ...             RETURN TO USER
000436:
000437:
000438:                                                                                                  #  GENERAL INFORMATION
000439:                                                                                                  #  ------- -----------
000440:
000441:
000442:                                                                                                  #  ALARM OR ABORT EXIT MODES--
000443:
000444:                                                                                                  #                                          PRIOBORT TC     ABORT
000445:                                                                                                  #                                                   OCT    1502
000446:
000447:                                                                                                  #  PRIOBORT IS BRANCED TO WHEN (1)  A NORMAL DISPLAY IS REQUESTED AND  ANOTHER NORMAL DISPLAY IS ALREADY ACTIVE
000448:                                                                                                  #  (REFLASH AND REGODSP ARE EXCEPTIONS) OR (2) A PRIORITY DISPLAY IS REQUESTED WHEN ANOTHER PRIORITY DISPLAY IS
000449:                                                                                                  #  ALREADY ACTIVE (A PRIORITY WITH LINUS BIT14 IS AN EXCEPTION).
000450:
000451:
000452:                                                                                                  #  ERASABLE INITIALIZATION REQUIRED--
000453:
000454:                                                                                                  #       ACCOMPLISHED BY FRESH START- 1. FLAGWRD4 (USED EXCLUSIVELY BY DISPLAY INTERFACE ROUTINES)
000455:                                                                                                  #                                    2. NVSAVE = NORMAL VERB AND NOUN      REGISTER.
000456:                                                                                                  #                                    3. EBANKTEM = NORMAL INACTIVE FLAGWORD(ALSO CONTAINS NORMALS EBANK).
000457:
000458:
000459:                                                                                                  #                                    5. R1SAVE = MARKBRAN CONTROL WORD
000460:                                                                                                  #                                    4. RESTREG = PRIORITY 30 AND SUPERBANK 3.
000461:
000462:                                                                                                  #  OUTPUT --
000463:
000464:                                                                                                  #       NVWORD = PRIO VERB AND NOUN
000465:                                                                                                  #       NVWORD +1(MARKNV) = MARK VERB AND NOUN
000466:                                                                                                  #       NVWORD +2(NVSAVE) = NORMAL VERB AND NOUN
000467:
000468:                                                                                                  #       DSPFLG(EBANKSAV) = PRIO FLAGWORD (INCLUDING EBANK)
000469:                                                                                                  #       DSPFLG +1(MARKEBAN) = MARK FLAGWORD (INCLUDING EBANK)
000470:                                                                                                  #       DSPFLG +2(EBANKTEM) = NORMAL FLAGWORD (INCLUDIG EBANK)
000471:
000472:                                                                                                  #       CADRFLSH = PRIO USERS CALL CADR +1 LOCATION
000473:                                                                                                  #       CADRFLSH +1(MARKFLSH) = MARK USERS CALL CADR +1 LOCATION
000474:                                                                                                  #       CADRFLSH +2(TEMPFLSH) = NORMAL USERS CALL CADR +1 LOCATION
000475:
000476:                                                                                                  #       PRIOTIME = TIME EACH PRIO REQUEST FIRST SENT OUT
000477:                                                                                                  #       OPTION1 = DESIRED OPTION FROM GOPERF4
000478:                                                                                                  #       FLAGWRD4 = BIT INFO FOR CONTROL OF ALL DISPLAY ROUTINES
000479:                                                                                                  #       DSPTEM1 = R1 INFO FOR ASTRONAUT FROM PERFORM DISPLAYS(NORMAL)
000480:                                                                                                  #  SUBROUTINES USED-- NVSUB, FLAGUP, FLAGDOWN, ENDOFJOB, BLANKSUB, ABORT, JOBWAKE, JOBSLEEP, FINDVAC, PRIOCHNG,
000481:                                                                                                  #  JAMTERM, NVSUBUSY, FLASHON, ENDIDLE, CHANG1, BANKJUMP, MAKECADR, NOVAC,
000482:                                                                                                  #  DEBRIS-- (STORED INTO)
000483:
000484:                                                                                                  #       TEMPORARY TEMPORARIES- A, Q, L, MPAC +2, MPAC +3, MPAC +4, MPAC +5, MPAC +6, RUPTREG2, RUPTREG3, CYL,
000485:                                                                                                  #  EBANK, RUPTREG4, LOC, BANKSET, MODE, MPAC, MPAC +1                      4, FACEREG
000486:                                                                                                  #       ERASABES(SHARED AND USED WITH OTHER PROGRAMS) CADRSTOR, DSPLIST, LOC, DSPTEM1, OPTION1
000487:
000488:                                                                                                  #       ERASABLES(USED ONLY BY DISPLAY ROUTINES)- NVWORD,+1,+2, DSPFLG,+1,+2, CADRFLSH,+1,+2, PRIOTIME, FLAGWRD4,
000489:                                                                                                  #  R1SAVE, MARK2PAC,
000490:
000491:
000492:                                                                                                  #  DEBRIS-- (USED BUT NOT STORED INTO)- NOUNREG, VERBREG, LOCCTR, MONSAVE1
000493:                                                                                                  #  FLAGWORD DESCRIPTIONS--
000494:                                                                                                  #      FLAGWRD4- SEE DESCRIPTION UNDER LOG SECTION ERASABLE ASSIGNMENTS
000495:
000496:                                                                                                  #      DSPFLG, DSPFLG+1, DSPFLG +2-
000497:                                                                                                  #      ----------------------------
000498:                                                                                                  #  BITS 1 BLANK R1
000499:                                                                                                  #       2 BLANK R2
000500:                                                                                                  #       3 BLANK R3
000501:                                                                                                  #       4 FLASHING DISPLAY REQUESTED
000502:                                                                                                  #       5 PERFORM DISPLAY REQUESTED
000503:                                                                                                  #       6 -----            EXDSPRET           GODSPRET
000504:                                                                                                  #       7 PRIO DISPLAY     -----               -----
000505:                                                                                                  #       8 -----         DEC MARK PERFORM      -----
000506:                                                                                                  #       9 EBANK
000507:                                                                                                  #      10 EBANK
000508:                                                                                                  #      11 EBANK
000509:                                                                                                  #      12 -----           -----       V99PASTE
000510:                                                                                                  #      13 2ND PART OF PERFORM
000511:                                                                                                  #      15 REFLASH OR REDO  -----           REFLASH OR REDO
000512:                                                                                                  #      15 -----          MARK REQUEST          -----
000513:                                                                                                  #  RESTARTING DISPLAYS--
000514:
000515:                                                                                                  #  RULES FOR THE DSKY OPERATOR--
000516:
000517:                                                                                                  #       1. PROCEED AND TERMINATE SERVE AS RESPONSES TO REQUESTS FOR OPERATOR RESPONSE (FLASHING V/N).  AS LONG
000518:                                                                                                  #          AS THERE IS ANY REQUEST AWAITING OPERATOR RESPONSE, ANY USE OF PROCEED OR TERMINATE WILL SERVE AS
000519:                                                                                                  #          RESPONSES TO THAT REQUEST.  CARE SHOULD BE EXERCISED IN ATTEMPTING TO KILL AN OPERATOR INITIATED MONITOR
000520:                                                                                                  #          WITH PROCEED AND TERMINATE FOR THIS REASON.
000521:                                                                                                  #       2. THE ASTRONAUT MUST RESPOND TO A PRIORITY DISPLAY NO             SOONER THAN 2 SECONDS FROM THE TIME THE
000522:                                                                                                  #          PROGRAM SENT OUT THE REQUEST FOR OPERATOR RESPONSE (THE ASTRONAUT WOULD SEE THIS DISPLAY FOR LESS TIME
000523:                                                                                                  #          DUE TO TIME IT TAKES TO GET DISPLAY SENT OUT.) IF THE ASTRONAUT RESPONDS TOO SOON, THE PRIORITY DISPLAY
000524:                                                                                                  #           IS SENT OUT AGAIN -- AND AGAIN UNTIL AN ACCUMULATED 2 SECS     FROM THE TIME THE FIRST PRIORITY DISPLAY
000525:                                                                                                  #          OUT. THE SAME 2 SEC. DELAY WILL OCCUR AT 163.84 SECS OR IN ANY  MULTIPLE OF THAT TIME DUE TO PROGRAM
000526:                                                                                                  #          CONSIDERATION.
000527:                                                                                                  #       3. KEY RELEASE BUTTON-
000528:                                                                                                  #          A) IF THE KEY RELEASE LIGHT IS ON, IT SIMPLY RELEASES THE KEYBOARD AND DISPLAY FOR INTERNAL USE.
000529:                                                                                                  #          B) IF THE KEY RELEASE LIGHT IS OFF, AND IF SOME REQUEST FOR OPERATOR RESPONSE (FLASHING V/N) IS STILL
000530:                                                                                                  #             AWAITING RESPONSE  THEN IT RE-ESTABLISHES THE DISPLAYS THAT ORIGINALLY REQUESTED RESPONSE.
000531:                                                                                                  #          IF AN OPERATOR WANTS THEREFORE TO RE-ESTABLISH BUT CONDITION (A) IS ENCOUNTERED, A SECOND DEPRESSION OF
000532:                                                                                                  #          KEY RELEASE BUTTON MAY BE NECESSARY.
000533:                                                                                                  #       4. IT IS IMPORTANT TO ANSWER ALL REQUESTS FOR OPERATOR RESPONSE.
000534:                                                                                                  #       5. IT IS ALWAYS GOOD PRACTICE TO TERMINATE AN EXTENDED VERB BEFORE ASKING FOR ANOTHER ONE OR THE SAME ONE
000535:                                                                                                  #          OVER AGAIN.
000536:
000537:
000538:                                                                                                  #  SPECIAL CONSIDERATIONS--
000539:                                                                                                  #       1. MPAC +2  SAVED ONLY IN MARK DISPLAYS
000540:                                                                                                  #       2. GODSP(R),REGODSP(R),GOMARK(R) ALWAYS TURN ON THE FLASH IF ENTERED WITH A PASTE VERB REQUEST.
000541:                                                                                                  #       3. ALL NORMAL DISPLAYS ARE RESTARTABLE EXCEPT GODSP(R), REGODSP(R)
000542:                                                                                                  #       4. ALL EXTENDED VERBS WITH DISPLAYS SHOULD START WITH A TC TESTXACT AND FINISH WITH A TC ENDEXT.
000543:                                                                                                  #       5. GODSP(R) AND REGODSP(R) MUST BE IN THE SAME EBANK AND SUPERBANK AS THE LAST NORMAL DISPLAY RESTARTED
000544:                                                                                                  #          BY A .1 RESTART PHASE CHANGE.
000545:                                                                                                  #       6. IN ORDER TO SET UP A NON DISPLAY .1 RESTART POINT, THE USER MUST MAKE CERTAIN THAT RESTREG CONTAINS THE
000546:                                                                                                  #          CORRECT PRIORITY AND SUPERBANK AND THAT EBANKTEM CONTAINS THE CO
000547:                                                                                                  #       7. IF CLEANDSP IS RESTARTED VIA A .1 PHASE CHANGE, CAF ZERO SHOULD BE EXECUTED  BEFORE THE TC BANKCALL.
000548:
000549:                                                                                                  #  CALLING SEQUENCE FOR BLANKING
000550:                                                                                                  #                                                   CAF    BITX            X=1,2,3 BLANK R1,R2,R3 RESPECTIVELY
000551:                                                                                                  #                                                   TC     BLANKET
000552:                                                                                                  #                                                   ...    ...             RETURN TO USER HERE
000553:
000554:                                                                                                  #  IN ORDER TO USE BLANKET CORRECTLY THE USER MUST USE A DISPLAY ROUTINE THAT ENDS IN R FIRST FOLLOWED BY THE CALL
000555:                                                                                                  #  TO BLANKET AT THE IMMEDIATE RETURN LOC.
000556:
000557:    5556                                           BLOCK    02
000558:    4000                                           SETLOC   FFTAG4
000559:    4000                                           BANK
000560:
000561:    5556                                           COUNT*   $$/DSPLA
000562:    5556           54162        BLANKET            TS       MPAC       +6
000563:    5557           40160                           CS       PLAYTEM4
000564:    5560           70162                           MASK     MPAC       +6
000565:    5561           50161                           INDEX    MPAC       +5
000566:    5562           26160                           ADS      PLAYTEM4
000567:
000568:    5563           00002                           TC       Q
000569:
000570:    5564           04674        ENDMARK            TC       POSTJUMP
000571:    5565           20213                           CADR     MARKEND
000572:
000573:
000574:                                                                                                  #  ***ALL EXTENDED VERB ROUTINES THAT HAVE AT LEAST ONE FLASHING DISPLAY MUST TCF ENDMARK OR TCF ENDEXT WHEN
000575:                                                                                                  #  FINISHED.
000576:
000577: 10,2213                                           BANK     10
000578: 10,2000                                           SETLOC   DISPLAYS
000579: 10,2000                                           BANK
000580:
000581: 10,2213                                           COUNT*   $$/DSPLA
000582:                                                                                                  #  NTERONLY IS USED TO DIFFERENTIATE THE MARK ROUTINE WITH ONLY ONE RETURN TO THE USER FROM THE MARKING ROUTINE WIT
000583:                                                                                                  #  3 RETURNS TO THE USER. THIS ROUTINE IS ONLY USED BY GOMARK1 AND GOMARK1R.
000584:
000585: 10,2213           35030        MARKEND            CAF      ZERO
000586: 10,2214           55045                           TS       EXTVBACT
000587:
000588: 10,2215           00004                           INHINT
000589: 10,2216           45026                           CS       BIT1
000590: 10,2217           70100                           MASK     FLAGWRD4
000591: 10,2220           54100                           TS       FLAGWRD4
000592: 10,2221           13322                           TCF      MARKOVER
000593:
000594: 10,2222           54155        GOMARK             TS       PLAYTEM1                              #  ENTRANCE FOR MARK GODSP
000595: 10,2223           35010        GOMARS             CAF      BIT15                                 #  BIT15 SET FOR ALL MARK REQUESTS
000596: 10,2224           12410                           TCF      GOFLASH2
000597:
000598: 10,2225           35030        KLEENEX            CAF      ZERO                                  #  CLEAN OUT EXTENDED VERBS
000599: 10,2226           54155        GOMARKF            TS       PLAYTEM1                              #  ENTRANCE FOR MARK GOFLASH
000600:
000601: 10,2227           32727                           CAF      MARKFMSK                              #  MARK,FLASH
000602: 10,2230           12410                           TCF      GOFLASH2
000603:
000604: 10,2231           54155        GOMARK2            TS       PLAYTEM1                              #  MARK GOPERFS-3 AST. RETURNS
000605: 10,2232           33421        MARKFORM           CAF      MPERFMSK                              #  MARK, PERFORM, FLASH
000606: 10,2233           12410                           TCF      GOFLASH2
000607:
000608: 10,2234           54155        GOMARK3            TS       PLAYTEM1                              #  USED FOR 3COMP DECIMAL PERFORM
000609: 10,2235           33406                           CAF      MARK3MSK
000610: 10,2236           12410                           TCF      GOFLASH2
000611:
000612: 10,2237           54155        GOMARK4            TS       PLAYTEM1
000613: 10,2240           33407                           CAF      MARK4MSK                              #  MARK,PERFORM,FLASH,BLANK
000614: 10,2241           12410                           TCF      GOFLASH2
000615:
000616: 10,2242           54155        GOMARKR            TS       PLAYTEM1                              #  ENTR+NCE FOR MARK GODSPR
000617:
000618: 10,2243           35010                           CAF      BIT15
000619: 10,2244           12366                           TCF      GODSPR2
000620:
000621: 10,2245           54155        GOMARKFR           TS       PLAYTEM1                              #  ENTRANCE FOR MARK GOFLASHR
000622:
000623: 10,2246           32727                           CAF      MARKFMSK
000624: 10,2247           12546                           TCF      GODSPRS
000625:
000626: 10,2250           54155        GOMARK2R           TS       PLAYTEM1                              #  MARK GOPERFS-3 AST. RETS+ IMMEDIATE RET.
000627: 10,2251           33421                           CAF      MPERFMSK                              #  MARK, PERFORM, FLASH
000628: 10,2252           12546                           TCF      GODSPRS
000629:
000630: 10,2253           54155        GOMARK3R           TS       PLAYTEM1
000631: 10,2254           33406                           CAF      MARK3MSK
000632: 10,2255           12546                           TCF      GODSPRS
000633:
000634: 10,2256           35026        MAKEMARK           CAF      ONE
000635: 10,2257           02633                           TC       COPIES
000636:
000637: 10,2260           30100                           CA       FLAGWRD4                              #  IS NORM OR PRIO BUSY OR WAITING
000638: 10,2261           73422                           MASK     OCT34300
000639: 10,2262           10000                           CCS      A
000640: 10,2263           12342                           TCF      CHKPRIO
000641:
000642: 10,2264           30100                           CA       FLAGWRD4                              #  IS MARK SLEEPING DUE TO ASTRO BUSY
000643: 10,2265           75016                           MASK     MRKNVBIT
000644:
000645: 10,2266           00006                           EXTEND
000646: 10,2267           12313                           BZF      MARKPLAY                              #  NO
000647:
000648: 10,2270           15225                           TCF      ENDOFJOB
000649:
000650: 10,2271           30100        MARKBRAN           CA       FLAGWRD4
000651: 10,2272           73437                           MASK     OCT40420
000652: 10,2273           10000                           CCS      A
000653: 10,2274           12276                           TCF      +2
000654: 10,2275           00002                           TC       Q
000655:
000656: 10,2276           35026                           CAF      ONE
000657: 10,2277           54164                           TS       COPINDEX
000658:
000659: 10,2300           31022                           CA       MONSAVE1
000660: 10,2301           75011                           MASK     BIT14
000661: 10,2302           61013                           AD       DSPLOCK
000662: 10,2303           10000                           CCS      A
000663: 10,2304           13267                           TCF      IMMEDRET   -1
000664:
000665: 10,2305           30100                           CA       FLAGWRD4
000666: 10,2306           75022                           MASK     MRUPTBIT
000667: 10,2307           10000                           CCS      A
000668: 10,2310           13267                           TCF      IMMEDRET   -1
000669:
000670: 10,2311           35025                           CAF      TWO
000671: 10,2312           27074                           ADS      R1SAVE
000672:
000673: 10,2313           00004        MARKPLAY           INHINT
000674: 10,2314           45024                           CS       MKOVBIT                               #  RESET MARK OVER NORM
000675: 10,2315           70100                           MASK     FLAGWRD4
000676: 10,2316           54100                           TS       FLAGWRD4
000677: 10,2317           00003                           RELINT
000678:
000679: 10,2320           41071        GOGOMARK           CS       MARKFLAG                              #  PERFORM
000680: 10,2321           75022                           MASK     BIT5
000681: 10,2322           10000                           CCS      A
000682: 10,2323           12326                           TCF      MARKCOP
000683: 10,2324           40370                           CS       MARKNV
000684: 10,2325           54370                           TS       MARKNV
000685:
000686: 10,2326           35026        MARKCOP            CAF      ONE                                   #  MARK INDEX
000687: 10,2327           12525                           TCF      PRIOPLAY
000688:
000689: 10,2330           30165        COPYTOGO           CA       MPAC2SAV
000690: 10,2331           54156                           TS       MPAC       +2
000691:
000692: 10,2332           50164        COPYPACS           INDEX    COPINDEX
000693: 10,2333           33432                           CAF      PRIOOCT
000694: 10,2334           54162                           TS       GENMASK
000695:
000696: 10,2335           50164                           INDEX    COPINDEX
000697: 10,2336           31070                           CAF      EBANKSAV
000698: 10,2337           54160                           TS       TEMPOR2                               #  ACTIVE EBANK AND FLAG
000699:
000700: 10,2340           54003                           TS       EBANK
000701:
000702: 10,2341           00002                           TC       Q
000703:
000704:                                                                                                  #  PINCHEK CHECKS TO SEE IF THE CURRENT MARK REQUEST IS MADE BY THE ASTRONAUT WHILE INTERRUPTING A GOPLAY DISPLAY
000705:                                                                                                  #  (A NORMAL OR A PRIO). IF THE ASTRONAUT TRIES TO MARK DURING A PRIO, THE CHECK FAIL LIGHT GOES ON AND THE MARK
000706:                                                                                                  #  REQUEST IS ENDED. IF HE TRIES TO MARK DURING A NORM, THE MARK IS ALLOWED. IN THIS CASE THE NORM IS PUT TO SLEEP
000707:                                                                                                  #  UNTIL ALL MARKING IS FINISHED.
000708:
000709:                                                                                                  #       IF THE MARK REQUEST COMES FROM THE PROGRAM DURING A TIME THE ASTRONAUT IS NOT INTERRUPTING A NORMAL OR A
000710:                                                                                                  #  PRIO, THE MARK REQUEST IS PUT TO SLEEP UNTIL THE +RESENT ACTIVE DISPLAY IS RESPONDED TO BY THE ASTRONAUT.
000711:
000712: 10,2342           30100        CHKPRIO            CA       FLAGWRD4                              #  MARK ATTEMPT DURING PRIO
000713: 10,2343           73155                           MASK     OCT24100
000714: 10,2344           10000                           CCS      A
000715: 10,2345           13355                           TCF      MARSLEEP
000716:
000717: 10,2346           40100                           CS       FLAGWRD4
000718: 10,2347           75024                           MASK     MKOVBIT                               #  SET MARK OVER NORM
000719: 10,2350           00004                           INHINT
000720: 10,2351           26100                           ADS      FLAGWRD4
000721:
000722: 10,2352           12444                           TCF      SETNORM
000723:
000724: 10,2353           30370        MARKPERF           CA       MARKNV
000725: 10,2354           74156                           MASK     VERBMASK
000726: 10,2355           13016                           TCF      NV50DSP
000727:
000728: 10,2356           54155        GODSP              TS       PLAYTEM1
000729:
000730: 10,2357           35030        GODSP2             CAF      ZERO
000731: 10,2360           12410                           TCF      GOFLASH2
000732:
000733: 10,2361           54155        GODSPRET           TS       PLAYTEM1                              #  ENTRANCE FOR A GODSP WITH A PASTE
000734:
000735: 10,2362           35021                           CAF      BIT6                                  #  SET BIT6 TO GO BACK TO USER AFTER NVSUB
000736: 10,2363           12410                           TCF      GOFLASH2
000737:
000738: 10,2364           54155        GODSPR             TS       PLAYTEM1
000739:
000740: 10,2365           35030        GODSPR1            CAF      ZERO
000741: 10,2366           54160        GODSPR2            TS       PLAYTEM4
000742:
000743: 10,2367           35030                           CAF      ZERO                                  #  * DONT MOVE
000744: 10,2370           12550                           TCF      GODSPRS1
000745:
000746:                                                                                                  #       CLEANDSP IS USED FOR CLEARING OUT A NORMAL DISPLAY THAT IS PRESENTLY ACTIVE OR A NORMAL DISPLAY THAT IS
000747:                                                                                                  #  SET UP TO BE STARTED OR RESTARTED.
000748:
000749:                                                                                                  #       NORMALLY THE USER WILL NOT NEED TO USE THIS ROUTINE SINCE A NEW NORMAL DISPLAY AUTOMATICALLY CLEARS OUT AN
000750:                                                                                                  #  OLD DISPLAY.
000751:
000752:                                                                                                  #       CALLING SEQUENCE FOR CLEANDSP-
000753:
000754:                                                                                                  #                TC      BANKCALL
000755:                                                                                                  #                CADR    CLEANDSP
000756:
000757: 10,2371           35030        CLEANDSP           CAF      ZERO
000758: 10,2372           54155        REFLASH            TS       PLAYTEM1
000759:
000760: 10,2373           33405                           CAF      REDOMASK                              #  FLASH AND PERMIT
000761: 10,2374           12410                           TCF      GOFLASH2
000762:
000763: 10,2375           54155        REFLASHR           TS       PLAYTEM1
000764:
000765: 10,2376           33405                           CAF      REDOMASK                              #  FLASH AND PERMIT
000766: 10,2377           12546                           TCF      GODSPRS
000767:
000768: 10,2400           54155        REGODSP            TS       PLAYTEM1
000769:
000770: 10,2401           35011                           CAF      BIT14
000771: 10,2402           12410                           TCF      GOFLASH2
000772:
000773: 10,2403           54155        REGODSPR           TS       PLAYTEM1
000774:
000775: 10,2404           35011                           CAF      BIT14
000776: 10,2405           12366                           TCF      GODSPR2
000777:
000778: 10,2406           54155        GOFLASH            TS       PLAYTEM1
000779:
000780: 10,2407           35023                           CAF      BIT4                                  #  LEAVE ONLY FLASH BIT SET
000781: 10,2410           54160        GOFLASH2           TS       PLAYTEM4
000782:
000783: 10,2411           02620                           TC       SAVELOCS
000784:
000785: 10,2412           00003                           RELINT
000786:
000787: 10,2413           12456                           TCF      MAKEPLAY                              #  BRANCH DIRECT WITH NO SEPARATE JOB CALL
000788:
000789: 10,2414           54155        PRIODSPR           TS       PLAYTEM1
000790:
000791: 10,2415           33424                           CAF      BITS7+4
000792: 10,2416           12546                           TCF      GODSPRS
000793:
000794: 10,2417           54155        PRIODSP            TS       PLAYTEM1
000795:
000796: 10,2420           33424        SETPRIO            CAF      BITS7+4
000797: 10,2421           12410                           TCF      GOFLASH2
000798:
000799: 10,2422           35030        MAKEPRIO           CAF      ZERO
000800: 10,2423           54164                           TS       COPINDEX
000801:
000802: 10,2424           03275                           TC       LINUSCHR
000803: 10,2425           12432                           TCF      HIPRIO                                #  LINUS RETURN
000804: 10,2426           30100                           CA       FLAGWRD4
000805: 10,2427           73155                           MASK     OCT24100                              #  IS PRIO IN ENDIDLE OR BUSY
000806: 10,2430           10000                           CCS      A
000807: 10,2431           12510                           TCF      PRIOBORT                              #  YES, ABORT
000808:
000809: 10,2432           30100        HIPRIO             CA       FLAGWRD4                              #  MARK ACTIVE
000810: 10,2433           75724                           MASK     OCT40400
000811: 10,2434           00006                           EXTEND
000812: 10,2435           12440                           BZF      ASKIFNRM                              #  NO
000813:
000814: 10,2436           35030        SETMARK            CAF      ZERO
000815: 10,2437           12672                           TCF      JOBXCHS
000816:
000817: 10,2440           30100        ASKIFNRM           CA       FLAGWRD4                              #  NORMAL ACTIVE
000818: 10,2441           73441                           MASK     OCT10200                              #  BITS 13+8
000819: 10,2442           00006                           EXTEND
000820: 10,2443           12446                           BZF      OKTOCOPY                              #  NO
000821:
000822: 10,2444           35026        SETNORM            CAF      ONE
000823: 10,2445           12672                           TCF      JOBXCHS
000824:
000825: 10,2446           02632        OKTOCOPY           TC       COPYNORM
000826: 10,2447           03106                           TC       WITCHONE
000827:
000828: 10,2450           05207                           TC       JOBWAKE
000829:
000830: 10,2451           03123                           TC       XCHTOEND
000831:
000832: 10,2452           30025        REDOPRIO           CA       TIME1                                 #  SAVE TIME PRIODSP SENT OUT
000833: 10,2453           55177                           TS       PRIOTIME
000834:
000835: 10,2454           35030        KEEPPRIO           CAF      ZERO                                  #  START UP PRIO DISPLAY
000836: 10,2455           12525                           TCF      PRIOPLAY
000837:
000838: 10,2456           30167        MAKEPLAY           CA       PRIORITY                              #  SAVE USERS PRIORITY
000839: 10,2457           77677                           MASK     PRIO37
000840: 10,2460           54163                           TS       USERPRIO
000841: 10,2461           00006                           EXTEND
000842: 10,2462           04007                           ROR      SUPERBNK
000843: 10,2463           54366                           TS       RESTREG
000844:
000845: 10,2464           37673                           CAF      PRIO33                                #  RAISE PRIORITY FOR FAST JOBS AFTER WAKE
000846: 10,2465           05216                           TC       PRIOCHNG
000847:
000848: 10,2466           30160                           CA       PLAYTEM4                              #  IS IT MARK OR PRIO OR NORM
000849: 10,2467           73423                           MASK     BITS15+7
000850: 10,2470           10000                           CCS      A
000851: 10,2471           12422                           TCF      MAKEPRIO                              #  ITS PRIO
000852: 10,2472           12474                           TCF      IFLEGAL
000853: 10,2473           12256                           TCF      MAKEMARK                              #  ITS MARK
000854:
000855: 10,2474           35025        IFLEGAL            CAF      TWO
000856: 10,2475           54164                           TS       COPINDEX
000857:
000858: 10,2476           03275                           TC       LINUSCHR
000859:
000860: 10,2477           12512                           TCF      OKTOPLAY                              #  LINUS RETURN
000861: 10,2500           41072                           CS       EBANKTEM
000862: 10,2501           75023                           MASK     BIT4
000863: 10,2502           10000                           CCS      A
000864: 10,2503           12512                           TCF      OKTOPLAY                              #  NO
000865:
000866: 10,2504           30100                           CA       FLAGWRD4                              #  WAS NORM ASLEEP
000867: 10,2505           73414                           MASK     NBUSMASK                              #  ARE ANY NORMS ASLEEP
000868: 10,2506           00006                           EXTEND
000869: 10,2507           12512                           BZF      OKTOPLAY                              #  NO
000870:
000871: 10,2510           05716        PRIOBORT           TC       ABORT
000872: 10,2511           01502                           OCT      1502
000873:
000874: 10,2512           02634        OKTOPLAY           TC       COPIES2
000875:
000876: 10,2513           30100                           CA       FLAGWRD4                              #  PRIO OR MARK GOING
000877: 10,2514           73415                           MASK     PMMASK
000878: 10,2515           10000                           CCS      A
000879: 10,2516           12652                           TCF      GOSLEEPS                              #  YES
000880:
000881: 10,2517           12521                           TCF      +2
000882: 10,2520           12652                           TCF      GOSLEEPS                              #  MARK GOING
000883:
000884:                                                                                                  #  COULD PUT NORM BUSY CHECK HERE TO SAVE TIME
000885: 10,2521           03106                           TC       WITCHONE                              #  IS IT NVSUB BUSY, ENDIDLE OR NOONE
000886: 10,2522           05207                           TC       JOBWAKE
000887:
000888: 10,2523           03123                           TC       XCHTOEND
000889:
000890: 10,2524           35025        PLAYJUM1           CAF      TWO
000891: 10,2525           54164        PRIOPLAY           TS       COPINDEX
000892:
000893: 10,2526           12766                           TCF      GOPLAY
000894:
000895: 10,2527           54155        EXDSPRET           TS       PLAYTEM1
000896:
000897: 10,2530           37706                           CAF      BIT15+6
000898: 10,2531           12410                           TCF      GOFLASH2
000899:
000900: 10,2532           55046        GOPERF1            TS       NORMTEM1                              #  STORE DESIRED CHECKLIST VALUE
000901: 10,2533           33377                           CAF      V01N25                                #  USED TO DISPLAY CHECKLIST VALUE IN R1
000902:
000903: 10,2534           54155        GOPERFS            TS       PLAYTEM1
000904:
000905: 10,2535           33376                           CAF      PERFMASK                              #  LEAVE ONLY FLASH, PERFORM, BLANKING
000906: 10,2536           12410                           TCF      GOFLASH2
000907:
000908: 10,2537           54155        GOPERF2            TS       PLAYTEM1                              #  DESIRED VERB-NOUN TO DISPLAY R1,R2,R3
000909:
000910: 10,2540           33402                           CAF      PERF2MSK
000911: 10,2541           12410                           TCF      GOFLASH2
000912:
000913: 10,2542           02613        GOPERF4            TC       PURRS4
000914:
000915: 10,2543           12410                           TCF      GOFLASH2
000916:
000917: 10,2544           54155        GOFLASHR           TS       PLAYTEM1
000918:
000919: 10,2545           35023                           CAF      BIT4                                  #  LEAVE ONLY FLASH BIT SET
000920: 10,2546           54160        GODSPRS            TS       PLAYTEM4
000921:
000922: 10,2547           36221                           CAF      THREE
000923:
000924: 10,2550           00004        GODSPRS1           INHINT                                         #  IMMEDIATE RETURN IS CALL CADR +4
000925: 10,2551           54072                           TS       RUPTREG3
000926:
000927: 10,2552           30167                           CA       PRIORITY                              #  MAKE DISPLAY ONE HIGHER THAN USER
000928: 10,2553           77677                           MASK     PRIO37
000929: 10,2554           54063                           TS       NEWPRIO
000930:
000931: 10,2555           30006                           CA       BBANK
000932: 10,2556           00006                           EXTEND
000933: 10,2557           04007                           ROR      SUPERBNK
000934: 10,2560           54001                           TS       L
000935: 10,2561           33440                           CAF      MAKEGEN
000936: 10,2562           05166                           TC       SPVAC
000937:
000938: 10,2563           02620                           TC       SAVELOCS                              #  COPY TEMPS INTO PERMANENT REGISTERS
000939:
000940: 10,2564           00006                           EXTEND                                         #  SAVE NVWORD AND USERS MPAC +2
000941: 10,2565           30156                           DCA      MPAC       +1
000942: 10,2566           50064                           INDEX    LOCCTR
000943: 10,2567           52156                           DXCH     MPAC       +1
000944:
000945: 10,2570           00006                           EXTEND                                         #  SAVE USERS CADR, FLAGS AND EBANK
000946: 10,2571           30160                           DCA      MPAC       +3
000947: 10,2572           50064                           INDEX    LOCCTR
000948: 10,2573           52160                           DXCH     MPAC       +3
000949:
000950: 10,2574           30064                           CA       LOCCTR
000951: 10,2575           54161                           TS       MPAC       +5
000952:
000953: 10,2576           02625                           TC       SAVELOCR
000954: 10,2577           00003                           RELINT
000955:
000956: 10,2600           14677                           TCF      BANKJUMP                              #  CALL CADR +4
000957:
000958: 10,2601           55046        GOPERF1R           TS       NORMTEM1                              #  DESIRED CHECKLIST VALUE
000959:
000960: 10,2602           33377                           CAF      V01N25                                #  DISPLAYS CHECKLIST VALUE IN R1
000961:
000962: 10,2603           54155        GOPERFRS           TS       PLAYTEM1
000963:
000964: 10,2604           33376                           CAF      PERFMASK                              #  LEAVE ONLY FLASH, PERFORM, BLANKING
000965: 10,2605           12546                           TCF      GODSPRS
000966:
000967: 10,2606           54155        GOPERF2R           TS       PLAYTEM1                              #  DESIRED VERB-NOUN TO DISPLAY R1,R2,R3
000968:
000969: 10,2607           33402                           CAF      PERF2MSK
000970: 10,2610           12546                           TCF      GODSPRS
000971:
000972: 10,2611           02613        GOPERF4R           TC       PURRS4
000973:
000974: 10,2612           12546                           TCF      GODSPRS
000975:
000976: 10,2613           55155        PURRS4             TS       OPTION1                               #  DESIRED OPTION CODE
000977:
000978: 10,2614           33403                           CAF      V04N06
000979: 10,2615           54155                           TS       PLAYTEM1
000980:
000981: 10,2616           33404                           CAF      PERF4MSK                              #  FLASH,PERFORM AND BLANK R3
000982: 10,2617           00002                           TC       Q
000983:
000984: 10,2620           00004        SAVELOCS           INHINT
000985:
000986: 10,2621           43413                           CS       OCT3400                               #  EBANK BITS
000987: 10,2622           70160                           MASK     PLAYTEM4
000988: 10,2623           60003                           AD       EBANK
000989: 10,2624           54160                           TS       PLAYTEM4
000990:
000991: 10,2625           22002        SAVELOCR           LXCH     Q
000992:
000993: 10,2626           04704                           TC       MAKECADR
000994: 10,2627           54157                           TS       PLAYTEM3
000995:
000996: 10,2630           60072                           AD       RUPTREG3                              #  NOT USED FOR NON R ROUTINES
000997: 10,2631           00001                           TC       L
000998:
000999: 10,2632           35030        COPYNORM           CAF      ZERO
001000: 10,2633           54164        COPIES             TS       COPINDEX
001001: 10,2634           00004        COPIES2            INHINT
001002: 10,2635           30160                           CA       PLAYTEM4                              #  FLAGWORD
001003: 10,2636           50164                           INDEX    COPINDEX
001004: 10,2637           55070                           TS       EBANKSAV                              #  EQUIV TO DSPFLG
001005:
001006: 10,2640           73431                           MASK     CADRMASK                              #  FLASH AND GODSPRET
001007: 10,2641           00006                           EXTEND
001008: 10,2642           12646                           BZF      SKIPADD
001009:
001010: 10,2643           30157                           CA       PLAYTEM3
001011: 10,2644           50164                           INDEX    COPINDEX
001012: 10,2645           54372                           TS       CADRFLSH
001013:
001014: 10,2646           30155        SKIPADD            CA       PLAYTEM1                              #  VERB NOUN
001015: 10,2647           50164                           INDEX    COPINDEX
001016: 10,2650           54367                           TS       NVWORD
001017:
001018: 10,2651           13132                           TCF      RELINTQ
001019:
001020: 10,2652           50164        GOSLEEPS           INDEX    COPINDEX
001021: 10,2653           33432                           CA       PRIOOCT
001022: 10,2654           72656                           MASK     WAITMASK
001023: 10,2655           07731                           TC       UPENT2
001024: 10,2656           03004        WAITMASK           OCT      3004
001025: 10,2657           45026                           CS       ONE
001026: 10,2660           60164                           AD       COPINDEX
001027: 10,2661           54154                           TS       FACEREG
001028:
001029: 10,2662           50154        XCHSLEEP           INDEX    FACEREG
001030: 10,2663           33411                           CAF      WAKECADR
001031: 10,2664           00004                           INHINT
001032: 10,2665           05207                           TC       JOBWAKE                               #  FIND CADR IN JOB AREA
001033:
001034: 10,2666           03123                           TC       XCHTOEND                              #  CAUSES AWAKENED JOB TO GO TO ENDOFJOB
001035:
001036: 10,2667           50154                           INDEX    FACEREG                               #  REPLACE SAME CADR BUT NEW JOB AREA
001037: 10,2670           33411                           CAF      WAKECADR
001038: 10,2671           15203                           TCF      JOBSLEEP
001039:
001040: 10,2672           54154        JOBXCHS            TS       FACEREG                               #  CONTROLS TYPE OF DISPLAY PUT TO SLEEP
001041: 10,2673           03106                           TC       WITCHONE
001042: 10,2674           05207                           TC       JOBWAKE
001043: 10,2675           30154                           CA       FACEREG
001044: 10,2676           50064                           INDEX    LOCCTR
001045: 10,2677           54154                           TS       FACEREG
001046:
001047: 10,2700           32713                           CAF      XCHQADD
001048: 10,2701           03124                           TC       XCHNYLOC
001049:
001050: 10,2702           50154                           INDEX    FACEREG
001051: 10,2703           33433                           CA       MARKOCT
001052: 10,2704           73435                           MASK     IDLESLEP
001053: 10,2705           07751                           TC       DOWNENT2
001054: 10,2706           74004        IDLEMASK           OCT      74004                                 #  * DONT MOVE
001055:
001056: 10,2707           50154                           INDEX    FACEREG                               #  BIT SHOWS PRIO INTERRUPTED NORM OR MARK
001057: 10,2710           35022                           CA       BIT5                                  #  BIT5 FOR MARK, BIT4 FOR NORMAL
001058: 10,2711           65024                           AD       FOUR
001059: 10,2712           07731                           TC       UPENT2                                #  FLAG ROUTINE DOES RELINT
001060: 10,2713           02662        XCHQADD            GENADR   XCHSLEEP                              #  * DONT MOVE
001061: 10,2714           30100                           CA       FLAGWRD4
001062: 10,2715           75024                           MASK     MKOVBIT                               #  MARK OVER NORM ?
001063: 10,2716           10000                           CCS      A
001064: 10,2717           02313        GENMARK            TC       MARKPLAY                              #  USED AS GENADR FOR JOBWAKE
001065: 10,2720           12446                           TCF      OKTOCOPY
001066:
001067: 10,2721           35030        MARKWAKE           CAF      ZERO
001068: 10,2722           54160        WAKEPLAY           TS       TEMPOR2
001069:
001070: 10,2723           50160                           INDEX    TEMPOR2
001071: 10,2724           33425                           CA       BITS5+11
001072: 10,2725           65024                           AD       FOUR
001073: 10,2726           07751                           TC       DOWNENT2
001074: 10,2727           40010        MARKFMSK           OCT      40010                                 #  ***DONT MOVE
001075:
001076: 10,2730           50160                           INDEX    TEMPOR2
001077: 10,2731           33411                           CAF      WAKECADR
001078: 10,2732           00004                           INHINT
001079: 10,2733           05207                           TC       JOBWAKE
001080:
001081: 10,2734           13236                           TCF      ENDRET
001082:
001083:                                                                                                  #       ALL .1 RESTARTS BRANCH DIRECTLY TO INITDSP. NORMAL DISPLAYS ARE THEONLY DISPLAYS ALLOWED TO USE .1 RESTARTS
001084:                                                                                                  #  INITDSP FIRST RESTORES THE EBANK AND THE SUPERBANK TO THE MOST RECENT NORMAL EBANK AND SUPERBANK.
001085:                                                                                                  #       IF THE MOST RECENT NORMAL DISPLAY REQUEST WAS NOT FINISHED, CONTROLIS SENT BACK TO THE LAST NORMAL USER.
001086:                                                                                                  #  OTHERWISE THE NORMAL DISPLAY SET UP IN THE NORMAL DISPLAY REGS IS STARTED UP IMMEDIATELY.
001087:
001088: 10,2735           31072        INITDSP            CA       EBANKTEM                              #  RESTORE MOST RECECT NORMAL EBANK
001089: 10,2736           54003                           TS       EBANK
001090:
001091: 10,2737           30366                           CA       RESTREG                               #  SUPERBANK AND JOB PRIORITY


001093: 10,2740           77677                           MASK     PRIO37
001094: 10,2741           05002                           TC       SUPERSW                               #  RESTORE SUPERBANK
001095: 10,2742           05216                           TC       PRIOCHNG
001096:
001097: 10,2743           46221                           CS       THREE
001098: 10,2744           60374                           AD       TEMPFLSH
001099: 10,2745           14677                           TCF      BANKJUMP
001100:
001101: 10,2746           00003        PINBRNCH           RELINT                                         #  FOR GOPIN USERS
001102: 10,2747           31073                           CA       MARK2PAC                              #  NEEDED TO SAVE MPAC +2 FOR MARK USERS
001103: 10,2750           54156                           TS       MPAC       +2                         #  ONLY
001104:
001105: 10,2751           30100                           CA       FLAGWRD4                              #  PINBRANCH CONDITION
001106: 10,2752           77711                           MASK     PINMASK
001107: 10,2753           10000                           CCS      A
001108: 10,2754           12757                           TCF      +3
001109: 10,2755           13372                           TCF      ERASER                                #  ** NOTHING IN ENDIDLE
001110: 10,2756           12313                           TCF      MARKPLAY
001111:
001112: 10,2757           05566        NORMBNCH           TC       UPFLAG                                #  SET PINBRANCH BIT
001113: 10,2760           00105                           ADRES    PINBRFLG
001114:
001115: 10,2761           35011                           CAF      PRIODBIT                              #  PRIO INTERRUPTED
001116: 10,2762           70100                           MASK     FLAGWRD4
001117: 10,2763           10000                           CCS      A
001118: 10,2764           12454                           TCF      KEEPPRIO
001119:
001120: 10,2765           12524                           TCF      PLAYJUM1
001121:
001122: 10,2766           02332        NVDSP              TC       COPYPACS
001123:
001124: 10,2767           30160                           CA       TEMPOR2                               #  SET UP BLANK BITS FOR NVMONOPT IN CASE
001125: 10,2770           75032                           MASK     SEVEN                                 #  USER REQUESTS BLANKING MONITOR
001126: 10,2771           54001                           TS       L
001127:
001128: 10,2772           45012                           CS       BIT13
001129: 10,2773           50164                           INDEX    COPINDEX
001130: 10,2774           71070                           MASK     DSPFLG
001131: 10,2775           50164                           INDEX    COPINDEX
001132: 10,2776           55070                           TS       DSPFLG
001133:
001134: 10,2777           75017                           MASK     BIT8                                  #  BIT8 SET IF DEC MARK PERFORM DISPLAY
001135: 10,3000           54141                           TS       TEM1
001136:
001137: 10,3001           30156                           CA       MPAC       +2
001138: 10,3002           54165                           TS       MPAC2SAV
001139:
001140: 10,3003           55073                           TS       MARK2PAC                              #  * FOR DISK ONLY *
001141: 10,3004           50164                           INDEX    COPINDEX
001142: 10,3005           10367                           CCS      NVWORD
001143: 10,3006           13015                           TCF      NVDSP1
001144: 10,3007           13134                           TCF      CLEANEND
001145: 10,3010           40370                           CS       MARKNV
001146: 10,3011           54370                           TS       MARKNV                                #  IN CASE MARKPLAY AWAKENED AFTER SLEEPING
001147: 10,3012           76050                           MASK     LOW7
001148: 10,3013           63416                           AD       V05N00M1
001149: 10,3014           60141                           AD       TEM1
001150: 10,3015           65026        NVDSP1             AD       ONE
001151: 10,3016           04167        NV50DSP            TC       NVMONOPT
001152: 10,3017           13146                           TCF      REST                                  #  IF BUSY
001153: 10,3020           04445                           TC       FLASHOFF                              #  IN CASE OF EXTENDED VERB NON FLASH
001154:
001155: 10,3021           02330                           TC       COPYTOGO                              #  MPACS DESTROYED BY NVSUB
001156: 10,3022           05600                           TC       DOWNFLAG                              #  UNSET SLEEPING BITS
001157: 10,3023           00102                           ADRES    MRKNVFLG
001158: 10,3024           05600                           TC       DOWNFLAG
001159: 10,3025           00103                           ADRES    NRMNVFLG
001160: 10,3026           05600                           TC       DOWNFLAG
001161: 10,3027           00104                           ADRES    PRONVFLG
001162: 10,3030           30160        BLANKCHK           CA       TEMPOR2                               #  BLANK BITS 1,2,3 IF SET
001163: 10,3031           04267                           TC       BLANKSUB
001164: 10,3032           12766                           TCF      NVDSP
001165: 10,3033           35022        PERFCHEK           CAF      BIT5                                  #  BIT5 FOR PERFORM
001166: 10,3034           70160                           MASK     TEMPOR2
001167: 10,3035           10000                           CCS      A                                     #  IS THIS A GOPERF DISPLAY
001168: 10,3036           13065                           TCF      1STOR2ND                              #  YES
001169:
001170: 10,3037           35023        GOANIDLE           CAF      BIT4
001171: 10,3040           70160                           MASK     TEMPOR2
001172: 10,3041           10000                           CCS      A
001173: 10,3042           13161                           TCF      FLASHSUB                              #  IT IS
001174:
001175: 10,3043           40160                           CS       TEMPOR2                               #  IS THIS A GODSPRET
001176: 10,3044           75021                           MASK     BIT6
001177: 10,3045           10000                           CCS      A
001178: 10,3046           13057                           TCF      ISITN00
001179:
001180: 10,3047           30164                           CA       COPINDEX
001181: 10,3050           54157                           TS       PLAYTEM3
001182: 10,3051           30163                           CA       USERPRIO
001183: 10,3052           77677                           MASK     PRIO37
001184: 10,3053           05216                           TC       PRIOCHNG
001185:
001186: 10,3054           50157                           INDEX    PLAYTEM3
001187: 10,3055           30372                           CA       CADRFLSH
001188: 10,3056           14677                           TCF      BANKJUMP
001189:
001190: 10,3057           50164        ISITN00            INDEX    COPINDEX                              #  IS THIS A PASTE
001191: 10,3060           30367                           CA       NVWORD
001192: 10,3061           76050                           MASK     LOW7                                  #  CHECK MADE FOR PINBRNCH AND PRIO ON MARK
001193: 10,3062           00006                           EXTEND
001194: 10,3063           13161                           BZF      FLASHSUB                              #  YES, ASSUME PASTE ALWAYS ON FLASH
001195:
001196: 10,3064           15225                           TCF      ENDOFJOB                              #  NOT FLASH, NOT GOPERF, THERFORE EXIT
001197:
001198: 10,3065           30160        1STOR2ND           CA       TEMPOR2
001199: 10,3066           75012                           MASK     BIT13
001200: 10,3067           10000                           CCS      A
001201: 10,3070           13037                           TCF      GOANIDLE                              #  SECOND
001202:
001203: 10,3071           35012                           CA       BIT13
001204: 10,3072           50164                           INDEX    COPINDEX
001205: 10,3073           27070                           ADS      DSPFLG
001206:
001207: 10,3074           22007                           ZL
001208: 10,3075           00006                           EXTEND                                         #  IS IT MARK
001209: 10,3076           62353                           BZMF     MARKPERF                              #  YES
001210:
001211: 10,3077           75013                           MASK     BIT12
001212: 10,3100           00006                           EXTEND
001213: 10,3101           13104                           BZF      V50PASTE
001214: 10,3102           33442                           CAF      V99N00
001215: 10,3103           13016                           TCF      NV50DSP
001216: 10,3104           33401        V50PASTE           CAF      V50N00
001217: 10,3105           13016                           TCF      NV50DSP                               #  DISPLAY SECOND PART OF GOPERF
001218:
001219: 10,3106           45022        WITCHONE           CS       BIT5                                  #  TURN OFF KEY RELEASE LIGHT
001220: 10,3107           00006                           EXTEND
001221: 10,3110           03011                           WAND     DSALMOUT
001222:
001223: 10,3111           30100                           CA       FLAGWRD4
001224: 10,3112           73417                           MASK     NVBUSMSK                              #  IS IT NVSUB ASLEEP
001225: 10,3113           10000                           CCS      A
001226: 10,3114           35026                           CAF      ONE
001227: 10,3115           54001                           TS       L
001228: 10,3116           35030                           CAF      ZERO
001229: 10,3117           50001                           INDEX    L
001230: 10,3120           57043                           XCH      CADRSTOR
001231:
001232: 10,3121           00004                           INHINT
001233: 10,3122           00002                           TC       Q
001234:
001235: 10,3123           34231        XCHTOEND           CAF      ENDINST                               #  TC ENDOFJOB REPLACES GENADR IN LOC FOR
001236: 10,3124           56064        XCHNYLOC           XCH      LOCCTR                                #  WAS THIS ADDRESS SLEEPING
001237: 10,3125           00006                           EXTEND
001238: 10,3126           63132                           BZMF     RELINTQ                               #  NO
001239: 10,3127           56064                           XCH      LOCCTR                                #  YES
001240: 10,3130           50064                           INDEX    LOCCTR
001241: 10,3131           54164                           TS       LOC
001242:
001243: 10,3132           00003        RELINTQ            RELINT
001244: 10,3133           00002                           TC       Q                                     #  BACK TO USER
001245:
001246: 10,3134           37672        CLEANEND           CAF      PRIO32                                #  ONE LOWER THAN DISPLAYS SLEEPING
001247: 10,3135           05155                           TC       FINDVAC
001248: 10,3136     0371                                  EBANK=   NVSAVE
001249: 10,3136           04243 04060                     2CADR    JAMTERM
001250:
001251:
001252: 10,3140           13162                           TCF      FLASHSUB   +1
001253:
001254: 10,3141           30100        ISITPRIO           CA       FLAGWRD4
001255: 10,3142           73167                           MASK     ITISMASK                              #  IS PINBRFLG, MARKIDFLG SET
001256: 10,3143           00006                           EXTEND
001257: 10,3144           12510                           BZF      PRIOBORT
001258: 10,3145           15225                           TCF      ENDOFJOB
001259:
001260: 10,3146           11043        REST               CCS      CADRSTOR                              #  IS SOMEONE IN ENDIDLE
001261: 10,3147           15225                           TCF      ENDOFJOB                              #  YES
001262: 10,3150           13152                           TCF      RESTSLEP
001263:
001264: 10,3151           15225                           TCF      ENDOFJOB
001265:
001266: 10,3152           30162        RESTSLEP           CA       GENMASK                               #  SET NVSLEEP BITS
001267: 10,3153           73420                           MASK     ASTROMSK
001268: 10,3154           07731                           TC       UPENT2
001269: 10,3155           24100        OCT24100           OCT      24100                                 #  *** DONT MOVE
001270:
001271: 10,3156           50164                           INDEX    COPINDEX
001272: 10,3157           33410                           CAF      NVCADR
001273: 10,3160           04454                           TC       NVSUBUSY                              #  BUSY OR ABORT IF ILLEGAL
001274:
001275: 10,3161           04441        FLASHSUB           TC       FLASHON
001276:
001277: 10,3162           30164                           CA       COPINDEX                              #  COPINDEX DESTROYED BY ENDIDLE
001278: 10,3163           54157                           TS       COPMPAC
001279:
001280: 10,3164           30162                           CA       GENMASK
001281: 10,3165           72706                           MASK     IDLEMASK
001282: 10,3166           07731                           TC       UPENT2
001283: 10,3167           40040        ITISMASK           OCT      40040                                 #  *** ENDIDLE ALLOW *** DONT MOVE
001284:
001285: 10,3170           31074                           CA       R1SAVE                                #  IS THIS A REPEAT AND RETURN DISPLAY
001286: 10,3171           50164                           INDEX    COPINDEX
001287: 10,3172           75024                           MASK     BIT3
001288: 10,3173           10000                           CCS      A
001289: 10,3174           13261                           TCF      UNSETR1                               #  YES
001290:
001291: 10,3175           11043                           CCS      CADRSTOR                              #  SEE IF SOMEONE ALREADY IN ENDIDLE
001292: 10,3176           13141                           TCF      ISITPRIO
001293: 10,3177           13201                           TCF      +2
001294: 10,3200           13141                           TCF      ISITPRIO
001295:
001296: 10,3201           04221                           TC       ENDIDLE
001297: 10,3202           13273        IDLERET1           TCF      TERMATE
001298:
001299: 10,3203           13312                           TCF      PROCEED                               #  ENDIDLE RETURNS HERE ON PROCEED
001300:
001301: 10,3204           43427                           CS       LOWLOAD
001302: 10,3205           60154                           AD       MPAC                                  #  VERBREG
001303: 10,3206           00006                           EXTEND
001304: 10,3207           26000                           DIM      A
001305: 10,3210           00006                           EXTEND
001306: 10,3211           13362                           BZF      LOADITIS                              #  V21 OR V22 OR V23 ON DSKY
001307: 10,3212           35025        OKTOENT            CAF      TWO
001308: 10,3213           54161        ENDOUT             TS       OUTHERE
001309:
001310: 10,3214           30100                           CA       FLAGWRD4                              #  CHECK NATURE OF ENDIDLE RETURN
001311: 10,3215           74105                           MASK     OCT60000
001312: 10,3216           10000                           CCS      A
001313: 10,3217           13222                           TCF      TIMECHEK                              #  PRIO ENDIDLE RETURN
001314: 10,3220           13330                           TCF      NORMRET                               #  NORMAL ENDIDLE RETURN
001315: 10,3221           13314                           TCF      MARKRET                               #  MARK ENDIDLE RETURN
001316:
001317: 10,3222           40025        TIMECHEK           CS       TIME1
001318: 10,3223           61177                           AD       PRIOTIME
001319: 10,3224           10000                           CCS      A
001320: 10,3225           40000                           COM
001321: 10,3226           67703                           AD       OCT37776
001322: 10,3227           65026                           AD       ONE
001323: 10,3230           63451                           AD       -5SEC
001324: 10,3231           00006                           EXTEND
001325: 10,3232           62454                           BZMF     KEEPPRIO
001326:
001327: 10,3233           13330                           TCF      NORMRET
001328:
001329: 10,3234           35026        NORMWAKE           CAF      ONE
001330: 10,3235           12722                           TCF      WAKEPLAY
001331:
001332: 10,3236           10161        ENDRET             CCS      OUTHERE
001333: 10,3237           65026                           AD       ONE
001334: 10,3240           13242                           TCF      +2                                    #  NORMAL ENDIDLE EXIT
001335: 10,3241           15225                           TCF      ENDOFJOB
001336: 10,3242           50157                           INDEX    COPMPAC
001337: 10,3243           60372                           AD       CADRFLSH
001338: 10,3244           54157                           TS       MPAC       +3
001339:
001340: 10,3245           30162                           CA       GENMASK                               #  REMOVE ENDIDLE AND PINBRANCH BITS
001341: 10,3246           73250                           MASK     PINIDMSK
001342: 10,3247           07751                           TC       DOWNENT2
001343: 10,3250           74044        PINIDMSK           OCT      74044                                 #  *** DONT MOVE
001344:
001345: 10,3251           46221                           CS       THREE                                 #  BLANK EVERYTHING EXCEPT MM
001346: 10,3252           04166                           TC       NVSUB
001347: 10,3253           13254                           TCF      +1
001348:
001349: 10,3254           30163        ENDIT              CA       USERPRIO                              #  RETURN TO USERS PRIORITY
001350: 10,3255           77677                           MASK     PRIO37
001351: 10,3256           05216                           TC       PRIOCHNG
001352: 10,3257           30157                           CA       MPAC       +3
001353: 10,3260           14677                           TCF      BANKJUMP
001354:
001355: 10,3261           50164        UNSETR1            INDEX    COPINDEX                              #  RESET REPEAT AND RETURN REQUEST
001356: 10,3262           45024                           CS       BIT3
001357: 10,3263           71074                           MASK     R1SAVE
001358: 10,3264           55074                           TS       R1SAVE
001359:
001360: 10,3265           35030                           CAF      ZERO                                  #  *** 205 ONLY MARKBRAN USERS IN
001361: 10,3266           05002                           TC       SUPERSW                               #  SUPERBANK 0
001362:
001363: 10,3267           36221                 -1        CAF      THREE                                 #  RETURN TO USERS IMMEDIATE RETURN LOC
001364: 10,3270           50164        IMMEDRET           INDEX    COPINDEX
001365: 10,3271           60372                           AD       CADRFLSH
001366: 10,3272           14677                           TCF      BANKJUMP
001367:
001368: 10,3273           35030        TERMATE            CAF      ZERO                                  #  ASTRONAUT TERMINATE (V34) RETURNS TO
001369: 10,3274           13213                           TCF      ENDOUT
001370:
001371: 10,3275           40160        LINUSCHR           CS       PLAYTEM4                              #  IS THIS A LINUS
001372: 10,3276           75011                           MASK     BIT14
001373: 10,3277           10000                           CCS      A
001374: 10,3300           16713                           TCF      Q+1                                   #  NO
001375: 10,3301           40157                           CS       PLAYTEM3                              #  YES, IS IT ALREADY IN ENDIDLE
001376: 10,3302           50164                           INDEX    COPINDEX
001377: 10,3303           60372                           AD       CADRFLSH
001378: 10,3304           00006                           EXTEND
001379: 10,3305           13307                           BZF      +2                                    #  YES
001380:
001381: 10,3306           00002                           TC       Q                                     #  NO
001382: 10,3307           11013                           CCS      DSPLOCK                               #  IS THE ASTRONAUT BUSY
001383: 10,3310           05225                           TC       ENDOFJOB                              #  END THE NEW DISPLAY, ITS ALREADY ACTIVE
001384: 10,3311           00002                           TC       Q
001385:
001386:                                                                                                  #  MORE LOGIC COULD BE INCORPORATED HERE TO MAKE SURE A RECYCLE IS A RECYCLAND CONVERSLY THAT A LOAD IS A LOAD.
001387: 10,3312           35026        PROCEED            CAF      ONE                                   #  ASTRONAUT PROCEED (V33) RETURNS
001388: 10,3313           13213                           TCF      ENDOUT
001389:
001390:                                                                                                  #       LASTPLAY CHECKS TO SEE IF (1) THE LAST NORMAL DISPLAY WAS EITHER INTERRUPTED BY A PRIO OR A MARK (MARK
001391:                                                                                                  #  COULD ONLY HAPPEN DURING PINBRANCH) OR IF (2) THE LAST NORMAL DISPLAY WAS REQUESTED WHILE A HIGHER PRIORITY
001392:                                                                                                  #  DISPLAY WAS GOING RESULTING IN THE NORMAL BEING PUT TO SLEEP.
001393:
001394:                                                                                                  #       IF EITHER OF THE ABOVE 2 CONDITIONS EXISTS , THE NORMAL DISPLAY IS AWAKENED TO GO TO PLAYJUM1 WHICH STARTS
001395:                                                                                                  #  UP THE MOST RECENT VALID NORMAL DISPLAY. IF THESE 2 CONDITIONS DO NOT EXIST, CONTROL GOES TO PLAYJUM1 WHICH IS
001396:                                                                                                  #  STARTED IMMEDIATELY WITH THE ASSUMPTION THAT THE MOST RECENT NORMAL DISPLAY IS ALREADY IN-ENDIDLE(DURING A
001397:                                                                                                  #  PINBRANCH) OR THAT A RESTART HAS OCCURRED AND THE DISPLAY CAN BE STARTED AS A .1 RESTART.
001398:
001399: 10,3314           46216        MARKRET            CS       SIX
001400: 10,3315           70100                           MASK     FLAGWRD4
001401: 10,3316           00004                           INHINT                                         #  *** MAY MOVE DISPLAY FLAGWORD OUT OF
001402: 10,3317           54100                           TS       FLAGWRD4
001403:
001404: 10,3320           00003                           RELINT                                         #  INHINT REALM
001405: 10,3321           13236                           TCF      ENDRET
001406:
001407: 10,3322           37721        MARKOVER           CAF      MINUS1                                #  RUPTREG2 IS - MEANS ENDOFJOB TO ENDRET
001408: 10,3323           54161                           TS       OUTHERE
001409:
001410: 10,3324           30100                           CA       FLAGWRD4                              #  IS ENDIDFLG SET
001411: 10,3325           74367                           MASK     PRIO30                                #  IS NORMAL OR PRIO IN ENDIDLE
001412: 10,3326           10000                           CCS      A
001413: 10,3327           12757                           TCF      NORMBNCH
001414:
001415: 10,3330           30100        NORMRET            CA       FLAGWRD4                              #  IS MARK SLEEPING
001416: 10,3331           73425                           MASK     BITS5+11                              #  OR WAITING
001417: 10,3332           10000                           CCS      A
001418: 10,3333           12721                           TCF      MARKWAKE
001419:
001420: 10,3334           30100                           CA       FLAGWRD4                              #  NO
001421: 10,3335           73426                           MASK     BITS4+10                              #  IS NORMAL INTERRUPTED OR WAITING
001422: 10,3336           10000                           CCS      A
001423: 10,3337           13234                           TCF      NORMWAKE                              #  YES
001424:
001425: 10,3340           31072                           CA       EBANKTEM                              #  NO, WAS IT A FLASH REQUEST
001426: 10,3341           75041                           MASK     OCT50                                 #  OR A GODSPRET
001427: 10,3342           10000                           CCS      A
001428: 10,3343           13236                           TCF      ENDRET                                #  YES
001429: 10,3344           30371                           CA       NVSAVE
001430: 10,3345           00006                           EXTEND
001431: 10,3346           13236                           BZF      ENDRET
001432:
001433: 10,3347           35075                           CAF      PRIO15
001434: 10,3350           00004                           INHINT
001435: 10,3351           05142                           TC       NOVAC
001436: 10,3352     0367                                  EBANK=   NVWORD
001437: 10,3352           02524 20060                     2CADR    PLAYJUM1
001438:
001439:
001440: 10,3354           13236                           TCF      ENDRET
001441:
001442: 10,3355           30100        MARSLEEP           CA       FLAGWRD4                              #  IS MARK ALREADY IN
001443: 10,3356           73425                           MASK     BITS5+11
001444: 10,3357           10000                           CCS      A
001445: 10,3360           15225                           TCF      ENDOFJOB                              #  YES
001446: 10,3361           12652                           TCF      GOSLEEPS
001447:
001448: 10,3362           50157        LOADITIS           INDEX    COPMPAC
001449: 10,3363           30367                           CA       NVWORD
001450: 10,3364           76050                           MASK     LOW7
001451: 10,3365           40000                           COM
001452: 10,3366           60155                           AD       MPAC       +1                         #  NOUNREG
001453: 10,3367           00006                           EXTEND
001454: 10,3370           13212                           BZF      OKTOENT                               #  NO, THEN LOAD IS VALID
001455: 10,3371           12746                           TCF      PINBRNCH                              #  YES, ACCEPT LOAD BUT ASK FOR LAST AGAIN
001456:
001457: 10,3372           46221        ERASER             CS       THREE                                 #  BLANK EVERYTHING EXCEPT MM
001458: 10,3373           04166                           TC       NVSUB
001459: 10,3374           15225                           TCF      ENDOFJOB
001460: 10,3375           15225                           TCF      ENDOFJOB
001461:
001462: 10,3376           00036        PERFMASK           OCT      0036                                  #  FLASH,PERFORM,BLANK R2 AND R3
001463: 10,3377           00231        V01N25             VN       00125
001464: 10,3400           01407        V06N07             VN       00607                                 #  GOPERF3 VN DISPLAY BEFORE V50
001465: 10,3401           14400        V50N00             VN       5000
001466: 10,3402           00030        PERF2MSK           OCT      00030                                 #  FLASH, PERFORM
001467: 10,3403           01006        V04N06             VN       00406
001468: 10,3404           00014        PERF4MSK           OCT      14                                    #  FLASH, BLANK R3
001469: 10,3405  10,2746               GOAGIN             EQUALS   PINBRNCH
001470: 10,3405           20010        REDOMASK           OCT      20010                                 #  BITS 4 AND 14
001471: 10,3406           40230        MARK3MSK           OCT      40230                                 #  MARK,DECIMAL NOUN, PERFORM,FLASH
001472: 10,3407           40036        MARK4MSK           OCT      40036                                 #  MARK,PERFORM,FLASH,BLANK 2 AND 3
001473: 10,3410           20452        NVCADR             CADR     REDOPRIO
001474: 10,3411           20313        WAKECADR           CADR     MARKPLAY
001475: 10,3412           20524                           CADR     PLAYJUM1
001476:
001477: 10,3413           03400        OCT3400            OCT      3400                                  #  EBANK MASK
001478: 10,3414           11210        NBUSMASK           OCT      11210
001479: 10,3415           66521        PMMASK             OCT      66521
001480: 10,3416     4156               VERBMASK           =        MID7                                  #  (OCT 37600)
001481: 10,3416           01177        V05N00M1           OCT      1177                                  #  V05 MINUS ONE
001482: 10,3417  10,2222               GOXDSP             EQUALS   GOMARK
001483: 10,3417  10,2242               GOXDSPR            EQUALS   GOMARKR
001484: 10,3417  10,2226               GOXDSPF            EQUALS   GOMARKF
001485: 10,3417  10,2245               GOXDSPFR           EQUALS   GOMARKFR
001486: 10,3417     5564               ENDEXT             EQUALS   ENDMARK
001487: 10,3417     0165               MPAC2SAV           EQUALS   BANKSET
001488: 10,3417           00700        NVBUSMSK           OCT      700
001489: 10,3420           00704        ASTROMSK           OCT      704
001490: 10,3421           40030        MPERFMSK           OCT      40030                                 #  BIT 15,5,4 FOR MARK,PERFORM,FLASH
001491: 10,3422           34300        OCT34300           OCT      34300
001492: 10,3423           40100        BITS15+7           OCT      40100
001493: 10,3424           00110        BITS7+4            OCT      110
001494: 10,3425     1070               DSPFLG             EQUALS   EBANKSAV
001495: 10,3425     1071               MARKFLAG           EQUALS   MARKEBAN
001496: 10,3425     1072               SAVEFLAG           EQUALS   EBANKTEM
001497: 10,3425           02020        BITS5+11           OCT      2020                                  #  * DONT MOVE
001498: 10,3426           01010        BITS4+10           OCT      1010                                  #  * DONT MOVE
001499: 10,3427           00026        LOWLOAD            DEC      22         B-14
001500: 10,3430           77730        BUSYMASK           OCT      77730
001501: 10,3431           00050        CADRMASK           OCT      50
001502: 10,3432     7711               PINMASK            EQUALS   13,14,15
001503: 10,3432  10,2766               GOPLAY             EQUALS   NVDSP
001504:                                                                                                  #  PRIOSAVE      EQUALS  R1SAVE
001505: 10,3432     0157               COPMPAC            EQUALS   MPAC       +3
001506: 10,3432     0160               TEMPOR2            EQUALS   MPAC       +4
001507: 10,3432     0161               OUTHERE            EQUALS   MPAC       +5
001508: 10,3432     0164               COPINDEX           EQUALS   LOC
001509: 10,3432     0163               USERPRIO           EQUALS   MODE
001510: 10,3432     0162               GENMASK            EQUALS   MPAC       +6
001511: 10,3432           20144        PRIOOCT            OCT      20144                                 #  PRIO
001512: 10,3433           42424        MARKOCT            OCT      42424                                 #  MARK
001513: 10,3434           11254                           OCT      11254                                 #  NORM
001514:
001515: 10,3435           74704        IDLESLEP           OCT      74704
001516: 10,3436           67777        OCT67777           OCT      67777
001517: 10,3437     5556               LINUS              EQUALS   BLANKET
001518: 10,3437     0154               FACEREG            EQUALS   MPAC
001519: 10,3437     0155               PLAYTEM1           EQUALS   MPAC       +1
001520: 10,3437     0157               PLAYTEM3           EQUALS   MPAC       +3
001521: 10,3437     0160               PLAYTEM4           EQUALS   MPAC       +4
001522: 10,3437           40420        OCT40420           OCT      40420
001523: 10,3440           02456        MAKEGEN            GENADR   MAKEPLAY
001524: 10,3441           10200        OCT10200           OCT      10200
001525: 10,3442           30600        V99N00             VN       09900                                 #  PASTE FOR V99

End of include-file DISPLAY_INTERFACE_ROUTINES.agc.  Parent file is MAIN.agc


