
Source Code


000002:                                                                                                  ## Copyright:   Public domain.
000003:                                                                                                  ## Filename:    DOWN-TELEMETRY_PROGRAM.agc
000004:                                                                                                  ## Purpose:     A section of an attempt to reconstruct Sundance revision 306
000005:                                                                                                  ##              as closely as possible with available information. Sundance
000006:                                                                                                  ##              306 is the source code for the Lunar Module's (LM) Apollo
000007:                                                                                                  ##              Guidance Computer (AGC) for Apollo 9. This program was created
000008:                                                                                                  ##              using the mixed-revision SundanceXXX as a starting point, and
000009:                                                                                                  ##              pulling back features from Luminary 69 believed to have been
000010:                                                                                                  ##              added based on memos, checklists, observed address changes,
000011:                                                                                                  ##              or the Sundance GSOPs.
000012:                                                                                                  ## Assembler:   yaYUL
000013:                                                                                                  ## Contact:     Ron Burkey <info@sandroid.org>.
000014:                                                                                                  ## Website:     www.ibiblio.org/apollo/index.html
000015:                                                                                                  ## Mod history: 2020-07-24 MAS  Created from SundanceXXX.
000016:
000017:
000018:
000019:                                                                                                  #  PROGRAM NAME - DOWN TELEMETRY PROGRAM
000020:                                                                                                  #  MOD NO. - 0           TO COMPLETELY REWRITE THE DOWN TELEMETRY PROGRAM AND DOWNLINK ERASABLE DUMP PROGRAM FOR THE
000021:                                                                                                  #                        PURPOSE OF SAVING APPROXIMATELY 150 WORDS OF CORE STORAGE.
000022:                                                                                                  #                        THIS CHANGE REQUIRES AN ENTIRELY NEW METHOD OF SPECIFYING DOWNLINK LISTS.REFER TO DOWNLINK
000023:                                                                                                  #                        LISTS LOG SECTION FOR MORE DETAILS. HOWEVER THIS CHANGE WILL NOT AFFECT THE GROUND PROCESSING
000024:                                                                                                  #                        OF DOWN TELEMETRY DATA.
000025:                                                                                                  #  MOD BY - KILROY, SMITH, DEWITT
000026:                                                                                                  #  DATE - 02OCT67
000027:                                                                                                  #  AUTHORS - KILROY, SMITH, DEWITT, DEWOLF, FAGIN
000028:                                                                                                  #  LOG SECTION - DOWN-TELEMETRY PROGRAM
000029:
000030:                                                                                                  #  FUNCTIONAL DESCRIPTION - THIS ROUTINE IS INITIATED BY TELEMETRY END
000031:                                                                                                  #        PULSE FROM THE DOWNLINK TELEMETRY CONVERTER. THIS PULSE OCCURS
000032:                                                                                                  #        AT 50 TIMES PER SEC (EVERY 20 MS) THEREFORE DODOWNTM IS
000033:                                                                                                  #        EXECUTED AT THESE RATES. THIS ROUTINE SELECTS THE APPROPRIATE
000034:                                                                                                  #        AGC DATA TO BE TRANSMITTED DOWNLINK AND LOADS IT INTO OUTPUT
000035:                                                                                                  #        CHANNELS 34 AND 35. THE INFORMATION IS THEN GATED OUT FROM THE
000036:                                                                                                  #        LGC IN SERIAL FASHION.
000037:                                                                                                  #        THIS PROGRAM IS CODED FOR A 2 SECOND DOWNLIST. SINCE DOWNRUPTS
000038:                                                                                                  #        OCCUR EVERY 20 MS AND 2 AGC COMPUTER WORDS CAN BE PLACED IN
000039:                                                                                                  #        CHANNELS 34 AND 35 DURING EACH DOWNRUPT THE PROGRAM IS CAPABLE
000040:                                                                                                  #        OF SENDING 200 AGC WORDS EVERY 2 SECONDS.
000041:                                                                                                  #  CALLING SEQUENCE - NONE
000042:                                                                                                  #        PROGRAM IS ENTERED VIA TCF DODOWNTM WHICH IS EXECUTED AS A
000043:                                                                                                  #        RESULT OF A DOWNRUPT. CONTROL IS RETURNED VIA TCF RESUME WHICH
000044:                                                                                                  #        IN EFFECT IS A RESUME.
000045:                                                                                                  #  SUBROUTINES CALLED - NONE
000046:                                                                                                  #  NORMAL EXIT MODE - TCF RESUME
000047:                                                                                                  #  ALARM OR ABORT EXIT MODE - NONE
000048:                                                                                                  #  RESTART PROTECTION:
000049:                                                                                                  #        ON A FRESH START AND RESTART THE 'STARTSUB' SUBROUTINE WILL INITIALIZE THE DOWNLIST POINTER (ACTUALLY
000050:                                                                                                  #        DNTMGOTO) TO THE BEGINNING OF THE CURRENT DOWNLIST (I.E. CURRENT CONTENTS OF DNLSTADR). THIS HAS THE
000051:                                                                                                  #        EFFECT OF IGNORING THE REMAINDER OF THE DOWNLIST WHICH THE DOWN-TELEMETRY PROGRAM WAS WORKING ON WHEN
000052:                                                                                                  #        THE RESTART (OR FRESH START) OCCURRED AND RESUME DOWN TELEMETRY FROM THE BEGINNING OF THE CURRENT
000053:                                                                                                  #        DOWNLIST.
000054:                                                                                                  #        ALSO OF INTEREST IS THE FACT THAT ON A RESTART THE AGC WILL ZERO DOWNLINK CHANNELS 13, 34 AND 35.
000055:                                                                                                  #  DOWNLINK LIST SELECTION:
000056:                                                                                                  #        THE APPROPRIATE DOWNLINK LISTS ARE SELECTED BY THE FOLLOWING:
000057:                                                                                                  #        1.      FRESH START
000058:                                                                                                  #        2.      V37EXXE WHERE XX = THE MAJOR MODE BEING SELECTED.
000059:                                                                                                  #        3.      UPDATE PROGRAM (P27)
000060:                                                                                                  #        4.      NON-V37 SELECTABLE TYPE PROGRAMS (E.G. AGS INITIALIZATION (SUNDANCE, LUMINARY) AND P61-P62
000061:                                                                                                  #                TRANSITION (COLOSSUS) ETC.).
000062:                                                                                                  #  DOWNLINK LIST RULES AND LIMITATIONS:
000063:                                                                                                  #        READ SECTION(S) WHICH FOLLOW 'DEBRIS' WRITEUP.
000064:                                                                                                  #  OUTPUT - EVERY 2 SECONDS 100 DOUBLE PRECISION WORDS (I.E. 200 LGC
000065:                                                                                                  #        COMPUTER WORDS) ARE TRANSMITTED VIA DOWNLINK.
000066:                                                                                                  #  ERASABLE INITIALIZATION REQUIRED - NONE
000067:                                                                                                  #        'DNTMGOTO' AND 'DNLSTADR' ARE INITIALIZED BY THE FRESH START PROGRAM.
000068:                                                                                                  #  DEBRIS (ERASABLE LOCATIONS DESTROYED BY THIS PROGRAM) -
000069:                                                                                                  #        LDATALST,DNTMBUFF TO DNTMBUFF +21D,TMINDEX,DNQ.
000070:


000072:
000073:                                                                                                  #  DODOWNTM IS ENTERED EVERY 20 MS BY AN INTERRUPT TRIGGERED BY THE
000074:                                                                                                  #  RECEIPT OF AN ENDPULSE FROM THE SPACECRAFT TELEMETRY PROGRAMMER.
000075:
000076:                                                                                                  #  NOTES REGARDING DOWNLINK LISTS ASSOCIATED WITH THIS PROGRAM:
000077:                                                                                                  #  1.    DOWNLISTS. - DOWNLISTS MUST BE COMPILED IN THE SAME BANK AS THE
000078:                                                                                                  #        DOWN-TELEMETRY PROGRAM. THIS IS DONE FOR EASE OF CODING, FASTER
000079:                                                                                                  #        EXECUTION.
000080:                                                                                                  #  2.    EACH DOWNLINK LIST CONSISTS OF A CONTROL LIST AND A NUMBER OF
000081:                                                                                                  #        SUBLISTS.
000082:                                                                                                  #  3.    A SUBLIST REFERS TO A SNAPSHOT OR DATA COMMON TO THE SAME OR OTHER
000083:                                                                                                  #        DOWNLINK LISTS.  ANY SUBLIST CONTAINING COMMON DATA NEEDS TO BE
000084:                                                                                                  #        CODED ONLY ONCE FOR THE APPLICABLE DOWNLINK LISTS.
000085:                                                                                                  #  4.    SNAPSHOT SUBLISTS REFER SPECIFICALLY TO HOMOGENOUS DATA WHICH MUST BE
000086:                                                                                                  #        SAVED IN A BUFFER DURING ONE DOWNRUPT.
000087:                                                                                                  #  5.    THE 1DNADR FOR THE 1ST WORD OF SNAPSHOT DATA IS FOUND AT THE END
000088:                                                                                                  #        OF EACH SNAPSHOT SUBLIST, SINCE THE PROGRAM CODING SENDS THIS DP WORD
000089:                                                                                                  #        IMMEDIATELY AFTER STORING THE OTHERS IN THE SNAPSHOT BUFFER.
000090:                                                                                                  #  6.    ALL LISTS ARE COMBINATIONS OF CODED ERASABLE ADDRESS CONSTANTS
000091:                                                                                                  #        CREATED FOR THE DOWNLIST PROGRAM.
000092:                                                                                                  #        A.      1DNADR                  1-WORD DOWNLIST ADDRESS.
000093:                                                                                                  #                SAME AS ECADR, BUT USED WHEN THE WORD ADDRESSED IS THE LEFT
000094:                                                                                                  #                HALF OF A DOUBLE-PRECISION WORD FOR DOWN TELEMETRY.
000095:                                                                                                  #        B.      2DNADR - 6DNADR         N-WORD DOWNLIST ADDRESS, N = 2 - 6.
000096:                                                                                                  #                SAME AS 1DNADR, BUT WITH THE 4 UNUSED BITS OF THE ECADR FORMAT
000097:                                                                                                  #                FILLED IN WITH 0001-0101.  USED TO POINT TO A LIST OF N DOUBLE-
000098:                                                                                                  #                PRECISION WORDS, STORED CONSECUTIVELY, FOR DOWN TELEMETRY.
000099:                                                                                                  #        C.      DNCHAN                  DOWNLIST CHANNEL ADDRESS.
000100:                                                                                                  #                SAME AS 1DNADR, BUT WITH PREFIX BITS 0111.  USED TO POINT TO
000101:                                                                                                  #                A PAIR OF CHANNELS FOR DOWN TELEMETRY.
000102:                                                                                                  #        D.      DNPTR                   DOWN TELEMETRY SUBLIST POINTER.
000103:                                                                                                  #                SAME AS CAF BUT TAGGED AS A CONSTANT. USED IN CONTROL LIST TO POINT TO A SUBLIST.
000104:                                                                                                  #                CAUTION--- A DNPTR CANNOT BE USED IN A SUBLIST.
000105:                                                                                                  #  7.    THE WORD ORDER CODE IS SET TO ZERO AT THE BEGINNING OF EACH DOWNLIST (I.E. CONTROL LIST) AND WHEN
000106:                                                                                                  #        A '1DNADR TIME2' IS DETECTED IN THE CONTROL LIST (ONLY).
000107:                                                                                                  #  8.    IN THE SNAPSHOT SUBLIST ONLY, THE DNADR'S CANNOT POINT TO THE FIRST WORD OF ANY EBANK.
000108:
000109:                                                                                                  #  DOWNLINK LIST RESTRICTIONS:
000110:                                                                                                  #    (THE FOLLOWING POINTS MAY BE LISTED ELSEWHERE BUT ARE LISTED HERE SO IT IS CLEAR THAT THESE THINGS CANNOT BE
000111:                                                                                                  #    DONE)
000112:                                                                                                  #  1.    SNAPSHOT DOWNLIST:
000113:                                                                                                  #        (A) CANNOT CONTAIN THE FOLLOWING ECADRS (I.E. 1DNADR'S): 0, 400, 1000, 1400, 2000, 2400, 3000, 3400.
000114:                                                                                                  #        (B) CAN CONTAIN ONLY 1DNADR'S
000115:                                                                                                  #  2.    ALL DOWNLINKED DATA (EXCEPT CHANNELS) IS PICKED UP BY A <DCA<SO DOWNLINK LISTS CANNOT CONTAIN THE
000116:                                                                                                  #        EQUIVALENT OF THE FOLLOWING ECADRS (I.E. IDNADRS): 377, 777, 1377, 1777, 2377, 27777, 3377, 3777.
000117:                                                                                                  #        (NOTE: THE TERM EQUIVALENT ' MEANT THAT THE IDNADR TO 6DNADR WILL BE PROCESSED LIKE 1 TO 6 ECADRS)
000118:                                                                                                  #  3.    CONTROL LISTS AND SUBLISTS CANNOT HAVE ENTRIES = OCTAL 00000 OR OCTAL 77777
000119:                                                                                                  #  4.    THE '1DNADR TIME2' WHICH WILL CAUSE THE DOWNLINK PROGRAM TO SET THE WORDER CODE TO 3 MUST APPEAR IN THE
000120:                                                                                                  #        CONTROL SECTION OF THE DOWNLIST.
000121:
000122:                                                                                                  #  5.    'DNCHAN 0' CANNOT BE USED.
000123:
000124:                                                                                                  #  6.    'DNPTR 0' CANNOT BE USED.
000125:
000126:                                                                                                  #  7.    DNPTR CANNOT APPEAR IN A SUBLIST.
000127:
000128:                                                                                                  #  EBANK SETTINGS
000129:                                                                                                  #        IN THE PROCESS OF SETTING THE EBANK (WHEN PICKING UP DOWNLINK DATA) THE DOWN TELEMETRY PROGRAM PUTS
000130:                                                                                                  #        'GARBAGE' INTO BITS15-12 OF EBANK. HUGH BLAIR-SMITH WARNS US THAT BITS15-12 OF EBANK MAY BECOME
000131:                                                                                                  #        SIGNIFICANT SOMEDAY IN THE FUTURE. IF/WHEN THAT HAPPENS, THE PROGRAM SHOULD INSURE (BY MASKING ETC.)
000132:                                                                                                  #        THAT BITS15-12 OF EBANK ARE ZERO.
000133:
000134:                                                                                                  #  INITIALIZATION REQUIRED - TO INTERRUPT CURRENT LIST AND START A NEW ONE..
000135:                                                                                                  #        1. ADRES OF DOWNLINK LIST INTO DNLSTADR
000136:                                                                                                  #        2. NEGONE INTO SUBLIST
000137:                                                                                                  #        3. NEGONE INTO DNECADR
000138:
000139: 22,3644                                           BANK     22
000140: 05,2000                                           SETLOC   DOWNTELM
000141: 05,2000                                           BANK
000142:
000143: 05,3153     0340                                  EBANK=   DNTMBUFF
000144:
000145: 05,3153                                           COUNT*   $$/DPROG
000146: 05,3153           54016        DODOWNTM           TS       BANKRUPT
000147: 05,3154           00006                           EXTEND
000148: 05,3155           22012                           QXCH     QRUPT                                 #  SAVE Q
000149: 05,3156           35020                           CA       BIT7                                  #  SET WORD ORDER CODE TO 1. EXCEPTION- AT
000150: 05,3157           00006        WO1                EXTEND                                         #  THE BEGINNING OF EACH LIST THE WORD
000151: 05,3160           05013                           WOR      CHAN13                                #  CODE WILL BE SET BACK TO 0.
000152: 05,3161           00335                           TC       DNTMGOTO                              #  GO TO APPROPRIATE PHASE OF PROGRAM
000153:
000154: 05,3162           37721        DNPHASE1           CA       NEGONE                                #  INITIALIZE ALL CONTROL WORDS
000155: 05,3163           54337                           TS       SUBLIST                               #  WORDS TO MINUS ONE
000156: 05,3164           54336                           TS       DNECADR
000157: 05,3165           33306                           CA       LDNPHAS2                              #  SET DNTMGOTO =O ALL SUBSEQUENT DOWNRUPTS
000158: 05,3166           54335                           TS       DNTMGOTO                              #  GO TO DNPHASE2
000159: 05,3167           13202                           TCF      1STLIST
000160: 05,3170           10336        DNPHASE2           CCS      DNECADR                               #  SENDING OF DATA IN PROGRESS
000161: 05,3171           03321        DODNADR            TC       FETCH2WD                              #  YES - THEN FETCH THE NEXT 2 SP WORDS
000162: 05,3172           77753        MINTIME2           -1DNADR  TIME2                                 #  NEGATIVE OF TIME2 1DNADR
000163: 05,3173           13174                           TCF      +1                                    #  (ECADR OF 3776 + 74001 = 77777)
000164:
000165: 05,3174           10337                           CCS      SUBLIST                               #  IS THE SUBLIST IN CONTROL
000166: 05,3175           13334                           TCF      NEXTINSL                              #  YES
000167: 05,3176           74001        DNADRDCR           OCT      74001                                 #  DNADR COUNT AND ECADR DECREMENTER
000168:
000169: 05,3177           10334        CHKLIST            CCS      CTLIST                                #  IT WILL BE NEGATIVE AT END OF LIST
000170: 05,3200           13211                           TCF      NEXTINCL
000171: 05,3201           13206                           TCF      NEWLIST
000172: 05,3202           35030        1STLIST            CAF      ZERO
000173: 05,3203           54334                           TS       CTLIST
000174: 05,3204           40332                           CS       DNLSTCOD
000175: 05,3205           13424                           TCF      SENDID     +3
000176: 05,3206           50332        NEWLIST            INDEX    DNLSTCOD
000177: 05,3207           32260                           CA       DNTABLE                               #  INITIALIZE CTLIST WITH
000178: 05,3210           54334                           TS       CTLIST                                #    STARTING ADDRESS OF NEW LIST
000179: 05,3211           50334        NEXTINCL           INDEX    CTLIST
000180: 05,3212           30000                           CA       0
000181: 05,3213           10000                           CCS      A
000182: 05,3214           24334                           INCR     CTLIST                                #  SET POINTER TO PICK UP NEXT CTLIST WORD
000183: 05,3215           13221                           TCF      +4                                    #  ON NEXT ENTRY TO PROG.  (A SHOULD NOT =0)
000184: 05,3216           56334                           XCH      CTLIST                                #  SET CTLIST TO NEGATIVE AND PLACE(CODING)
000185: 05,3217           40000                           COM                                            #  UNCOMPLEMENTED DNADR INTO A.    (FOR LA)
000186: 05,3220           56334                           XCH      CTLIST                                #                                  (ST IN )
000187: 05,3221           24000                 +4        INCR     A                                     #                                  (CTLIST)
000188: 05,3222           54336                           TS       DNECADR                               #  SAVE DNADR
000189: 05,3223           63172                           AD       MINTIME2                              #  TEST FOR TIME2 (NEG. OF ECADR)
000190: 05,3224           10000                           CCS      A
000191: 05,3225           13231                           TCF      SETWO      +1                         #  DON'T SET WORD ORDER CODE
000192: 05,3226           47777        MINB1314           OCT      47777                                 #  MINUS BIT 13 AND 14 (CAN'T GET HERE)
000193: 05,3227           13231                           TCF      SETWO      +1                         #  DON'T SET WORD ORDER CODE
000194: 05,3230           03253        SETWO              TC       WOZERO                                #  GO SET WORD ORDER CODE TO ZERO.
000195: 05,3231           30336                 +1        CA       DNECADR                               #  RELOAD A WITH THE DNADR.
000196: 05,3232           63226                 +2        AD       MINB1314                              #  IS THIS A REGULAR DNADR?
000197: 05,3233           00006                           EXTEND
000198: 05,3234           63321                           BZMF     FETCH2WD                              #  YES.  (A MUST NEVER BE ZERO)
000199: 05,3235           67712                           AD       MINB12                                #  NO- IS IT A POINTER (DNPTR) OR A
000200: 05,3236           00006                           EXTEND                                         #      CHANNEL(DNCHAN)
000201: 05,3237           63257                           BZMF     DODNPTR                               #  IT'S A POINTER.  (A MUST NEVER BE ZERO)
000202:
000203: 05,3240           00006        DODNCHAN           TC       6                                     #  (EXECUTED AS EXTEND)  IT S A CHANNEL
000204: 05,3241           50336                           INDEX    DNECADR
000205: 05,3242           44000                           INDEX    0          -4000                      #  (EXECUTED AS READ)
000206: 05,3243           54001                           TS       L
000207: 05,3244           00006                           TC       6                                     #  (EXECUTED AS EXTEND)
000208: 05,3245           50336                           INDEX    DNECADR
000209: 05,3246           43777                           INDEX    0          -4001                      #  (EXECUTED AS READ)
000210: 05,3247           56336                           XCH      DNECADR                               #  SET DNECADR
000211: 05,3250           40000                           COM                                            #        TO MINUS
000212: 05,3251           56336                           XCH      DNECADR                               #                WHILE PRESERVING A.
000213: 05,3252           13347                           TCF      DNTMEXIT                              #  GO SEND CHANNELS
000214:
000215: 05,3253           45020        WOZERO             CS       BIT7
000216: 05,3254           00006                           EXTEND
000217: 05,3255           03013                           WAND     CHAN13                                #  SET WORD ORDER CODE TO ZERO
000218: 05,3256           00002                           TC       Q                                     #  RETURN TO CALLER
000219:
000220: 05,3257           50336        DODNPTR            INDEX    DNECADR                               #  DNECADR CONTAINS ADRES OF SUBLIST
000221: 05,3260           00000                           0        0                                     #  CLEAR AND ADD LIST ENTRY INTO A.
000222: 05,3261           10000                           CCS      A                                     #  IS THIS A SNAPSHOT SUBLIST
000223: 05,3262           30336                           CA       DNECADR                               #  NO, IT IS A REGULAR SUBLIST.
000224: 05,3263           13333                           TCF      DOSUBLST                              #  A MUST NOT BE ZERO.
000225:
000226: 05,3264           56336                           XCH      DNECADR                               #  YES, IT IS A SNAPSHOT SUBLIST.
000227: 05,3265           54337                           TS       SUBLIST                               #  C(DNECADR) INTO SUBLIST
000228: 05,3266           35030                           CAF      ZERO                                  #        A    INTO     A
000229: 05,3267           56336                           XCH      TMINDEX                               #  (NOTE..  TMINDEX = DNECADR)
000230:
000231:                                                                                                  #  THE FOLLOWING CODING (FROM SNAPLOOP TO SNAPEND) IS FOR THE PURPOSE OF TAKING A SNAPSHOT OF 12 DP REGISTERS.
000232:                                                                                                  #  THIS IS DONE BY SAVING 11 DP REGISTERS IN DNTMBUFF AND SENDING THE FIRST DP WORD IMMEDIATELY.
000233:                                                                                                  #  THE SNAPSHOT PROCESSING IS THE MOST TIME CONSUMING AND THEREFORE THE CODING AND LIST STRUCTURE WERE DESIGNED
000234:                                                                                                  #  TO MINIMIZE TIME. THE TIME OPTIMIZATION RESULTS IN RULES UNIQUE TO THE SNAPSHOT PORTION OF THE DOWNLIST.
000235:                                                                                                  #  THESE RULES ARE......
000236:                                                                                                  #        1.      ONLY 1DNADR'S CAN APPEAR IN THE SNAPSHOT SUBLIST
000237:                                                                                                  #        2.      THE 1DNADR'S CANNOT REFER TO THE FIRST LOCATION IN ANY BANK.
000238:
000239: 05,3270           54003        SNAPLOOP           TS       EBANK                                 #  SET EBANK
000240: 05,3271           74371                           MASK     LOW8                                  #  ISOLATE RELATIVE ADDRESS
000241: 05,3272           00006                           EXTEND
000242: 05,3273           50000                           INDEX    A
000243: 05,3274  E3,1401                                  EBANK=   1401
000244: 05,3274           31402                           DCA      1401                                  #  PICK UP 2 SNAPSHOT WORDS.
000245: 05,3275     0340                                  EBANK=   DNTMBUFF
000246: 05,3275           50336                           INDEX    TMINDEX
000247: 05,3276           52341                           DXCH     DNTMBUFF                              #  STORE 2 SNAPSHOT WORDS IN BUFFER
000248: 05,3277           24336                           INCR     TMINDEX                               #  SET BUFFER INDEX FOR NEXT 2 WORDS.
000249: 05,3300           24336                           INCR     TMINDEX
000250: 05,3301           24337        SNAPAGN            INCR     SUBLIST                               #  SET POINTER TO NEXT 2 WORDS OF SNAPSHOT
000251: 05,3302           50337                           INDEX    SUBLIST
000252: 05,3303           00000                           0        0                                     #  = CA SSSS (SSSS = NEXT ENTRY IN SUBLIST)
000253: 05,3304           10000                           CCS      A                                     #  TEST FOR LAST TWO WORDS OF SNAPSHOT.
000254: 05,3305           13270                           TCF      SNAPLOOP                              #  NOT LAST TWO.
000255: 05,3306           03170        LDNPHAS2           GENADR   DNPHASE2
000256: 05,3307           56337                           XCH      SUBLIST                               #  YES, LAST.  SAVE A.
000257: 05,3310           40000                           COM                                            #  SET DNECADR AND
000258: 05,3311           54336                           TS       DNECADR                               #        SUBLIST POINTERS
000259: 05,3312           56337                           XCH      SUBLIST                               #                TO NEGATIVE VALUES.
000260: 05,3313           54003                           TS       EBANK
000261: 05,3314           74371                           MASK     LOW8
000262: 05,3315           00006                           EXTEND
000263: 05,3316           50000                           INDEX    A
000264: 05,3317  E3,1401                                  EBANK=   1401
000265: 05,3317           31402                           DCA      1401                                  #  PICK UP FIRST 2 WORDS OF SNAPSHOT.
000266: 05,3320     0340                                  EBANK=   DNTMBUFF
000267: 05,3320           13347        SNAPEND            TCF      DNTMEXIT                              #  NOW GO SEND THEM.
000268:
000269: 05,3321           30336        FETCH2WD           CA       DNECADR
000270: 05,3322           54003                           TS       EBANK                                 #  SET EBANK
000271: 05,3323           74371                           MASK     LOW8                                  #  ISOLATE RELATIVE ADDRESS
000272: 05,3324           54001                           TS       L
000273: 05,3325           33176                           CA       DNADRDCR                              #  DECREMENT COUNT AND ECADR
000274: 05,3326           26336                           ADS      DNECADR
000275: 05,3327           00006                           EXTEND
000276: 05,3330           50001                           INDEX    L
000277: 05,3331  E3,1400                                  EBANK=   1400
000278: 05,3331           31401                           DCA      1400                                  #  PICK UP 2 DATA WORDS
000279: 05,3332     0340                                  EBANK=   DNTMBUFF
000280: 05,3332           13347                           TCF      DNTMEXIT                              #  NOW GO SEND THEM.
000281:
000282: 05,3333           54337        DOSUBLST           TS       SUBLIST                               #  SET SUBLIST POINTER
000283: 05,3334           50337        NEXTINSL           INDEX    SUBLIST
000284: 05,3335           00000                           0        0                                     #  = CA SSSS (SSSS = NEXT ENTRY IN SUBLIST)
000285: 05,3336           10000                           CCS      A                                     #  IS IT THE END OF THE SUBLIST
000286: 05,3337           24337                           INCR     SUBLIST                               #  NO -
000287: 05,3340           13344                           TCF      +4
000288: 05,3341           56337                           XCH      SUBLIST                               #  SAVE A.
000289: 05,3342           40000                           COM                                            #  SET SUBLIST TO MINUS
000290: 05,3343           56337                           XCH      SUBLIST                               #  RETRIEVE A.
000291: 05,3344           24000                 +4        INCR     A
000292: 05,3345           54336                           TS       DNECADR                               #  SAVE DNADR
000293: 05,3346           13232                           TCF      SETWO      +2                         #  GO USE COMMON CODING (PROBLEMS WOULD
000294:                                                                                                  #  OCCUR IF THE PROGRAM ENCOUNTERED A
000295:                                                                                                  #  DNPTR NOW)
000296:
000297: 05,3347           00006        DNTMEXIT           EXTEND                                         #  DOWN-TELEMETRY EXIT
000298: 05,3350           01034                           WRITE    DNTM1                                 #  TO SEND A + L TO CHANNELS 34 + 35
000299: 05,3351           30001                           CA       L                                     #  RESPECTIVELY
000300: 05,3352           00006        TMEXITL            EXTEND
000301: 05,3353           01035                           WRITE    DNTM2
000302: 05,3354           15340        TMRESUME           TCF      RESUME                                #  EXIT TELEMETRY PROGRAM VIA RESUME.
000303:
000304: 05,3355     7712               MINB12             EQUALS   -1/8
000305: 05,3355     0336               DNECADR            EQUALS   TMINDEX
000306: 05,3355     0334               CTLIST             EQUALS   LDATALST
000307: 05,3355     0337               SUBLIST            EQUALS   DNQ
000308:
000309:                                                                                                  #  SUBROUTINE NAME- DNDUMP
000310:                                                                                                  #  FUNCTIONAL DESCRIPTION - TO SEND (DUMP) ALL ERASABLE STORAGE 'N' TIMES.(N=1 TO 4). BANKS ARE SENT ONE AT A TIME
000311:                                                                                                  #        EACH BANK IS PRECEEDED BY AN ID WORD, SYNCH BITS, ECADR AND TIME1 FOLLOWED BY THE 256D WORDS OF EACH
000312:                                                                                                  #        EBANK. EBANKS ARE DUMPED IN ORDER (I.E. EBANK 0 FIRST, THEN EBANK1 ETC.)
000313:                                                                                                  #  CALLING SEQUENCE- THE GROUND OR ASTRONAUT BY KEYING V74E CAN INITIALIZE THE DUMP.
000314:                                                                                                  #        AFTER KEYING IN V74E THE CURRENT DOWNLIST WILL BE IMMEDIATELY TERMINATED AND THE DOWNLINK ERASABLE DUMP
000315:                                                                                                  #        WILL BEGIN.
000316:                                                                                                  #        ONCE INITIATED THE DOWNLINK ERASABLE DUMP CAN BE TERMINATED (AND INTERRUPTED DOWNLIST REINSTATED) ONLY
000317:                                                                                                  #        BY THE FOLLOWING:
000318:                                                                                                  #        1.      A FRESH START
000319:                                                                                                  #        2.      COMPLETION OF ALL DOWNLINK DUMPS REQUESTED (ACCORDING TO BITS SET IN DUMPCNT). NOTE THAT DUMPCNT
000320:                                                                                                  #                CAN BE ALTERED BY A V21N01.
000321:                                                                                                  #        3.      AND INVOLUNTARILY BY A RESTART.
000322:                                                                                                  #  NORMAL EXIT MODE - TCF DNPHASE1
000323:                                                                                                  #  ALARM OR ABORT MODE - NONE
000324:                                                                                                  #  *SUBROUTINES CALLED - NONE.
000325:                                                                                                  #  ERASABLE INITIALIZATION REQUIRED -
000326:                                                                                                  #        DUMPCNT         OCT 20000       IF 4 COMPLETE ERASABLE DUMPS ARE DESIRED
000327:                                                                                                  #        DUMPCNT         OCT 10000       IF 2 COMPLETE ERASABLE DUMPS ARE DESIRED
000328:                                                                                                  #        DUMPCNT         OCT 04000       IF 1 COMPLETE ERASABLE DUMP  IS  DESIRED
000329:                                                                                                  #  DEBRIS - DUMPLOC, DUMPSW, DNTMGOTO, EBANK AND CENTRAL REGISTERS
000330:                                                                                                  #  TIMING -      TIME (IN SECS) = ((NO.DUMPS)*(NO.EBANKS)*(WDSPEREBANK + NO.IDWDS)) / NO.WDSPERSEC
000331:                                                                                                  #                TIME (IN SECS) =  (   4    )*(    8    )*(    256     +     4   )  /     100
000332:                                                                                                  #                THUS TIME (IN SECS TO SEND DUMP OF ERASABLE 4 TIMES VIA DOWNLINK) = 83.2 SECONDS
000333:
000334:                                                                                                  #  STRUCTURE OF ONE EBANK AS IT IS SENT BY DOWNLINK PROGRAM -
000335:                                                                                                  #        (REMINDER - THIS ONLY DESCRIBES ONE OF THE 8 EBANKS X 4 (DUMPS) = 32 EBANKS WHICH WILL BE SENT BY DNDUMP)
000336:                                                                                                  #        DOWNLIST                                W
000337:                                                                                                  #          WORD  TAKEN FROM CONTENTS OF  EXAMPLE O       COMMENTS
000338:                                                                                                  #            1   ERASID                   0177X  0       DOWNLIST I.D. FOR DOWNLINK ERASABLE DUMP (X=7 CSM, 6 LM)
000339:                                                                                                  #            2   LOWIDCOD                 77340  1       DOWNLINK SYNCH BITS.  (SAME ONE USED IN ALL OTHER DOWNLISTS)
000340:                                                                                                  #            3   DUMPLOC                  13400  1       (SEE NOTES ON DUMPLOC) 1 = 3RD ERAS DUMP, 3400=ECADR OF 5TH WD
000341:                                                                                                  #            4   TIME1                    14120  1       TIME IN CENTISECONDS
000342:                                                                                                  #            5   FIRST WORD OF EBANK X    03400  1       IN THIS EXAMPLE THIS WORD = CONTENTS OF E7,1400 (ECADR 3400)
000343:                                                                                                  #            6   2ND   WORD OF EBANK X    00142  1       IN THIS EXAMPLE THIS WORD = CONTENTS OF E7,1401 (ECADR 3401)
000344:                                                                                                  #            7   3RD   WORD OF EBANK X    00142  1       IN THIS EXAMPLE THIS WORD = CONTENTS OF E7,1402 (ECADR 3402)
000345:                                                                                                  #            .                                   1
000346:                                                                                                  #            .                                   1
000347:                                                                                                  #            .                                   1
000348:                                                                                                  #         260D   256TH WORD OF EBANK X    03777  1       IN THIS EXAMPLE THIS WORD = CONTENTS OF E7,1777 (ECADR 3777)
000349:
000350:                                                                                                  #  NOTE- DUMPLOC CONTAINS THE COUNTER AND ECADR FOR EACH WORD BEING SENT.
000351:                                                                                                  #                THE BIT STRUCTURE OF DUMPLOC IS FOLLOWS---
000352:                                                                                                  #                                                X = NOT USED
000353:                                                                                                  #                X ABC EEE RRRRRRRR            ABC = ERASABLE DUMP COUNTER (I.E. ABC = 0,1,2 OR 3 WHICH MEANS THAT
000354:                                                                                                  #                                                    COMPLETE ERASABLE DUMP NUMBER 1,2,3 OR 4 RESPECTIVELY IS IN PROGRESS)
000355:                                                                                                  #                                              EEE = EBANK BITS
000356:                                                                                                  #                                         RRRRRRRR = RELATIVE ADDRESS WITHIN AN EBANK.
000357:
000358: 05,3355           35030        DNDUMPI            CA       ZERO                                  #  INITIALIZE DOWNLINK
000359: 05,3356           54336                           TS       DUMPLOC                               #  ERASABLE DUMP
000360: 05,3357           03421                 +2        TC       SENDID                                #  GO SEND ID AND SYNCH BITS
000361: 05,3360           33367                           CA       LDNDUMP1                              #  SET DNTMGOTO
000362: 05,3361           54335                           TS       DNTMGOTO                              #  TO LOCATION FOR NEXT PASS
000363: 05,3362           30025                           CA       TIME1                                 #  PLACE TIME1
000364: 05,3363           56001                           XCH      L                                     #  INTO L
000365: 05,3364           30336                           CA       DUMPLOC                               #  AND ECADR OF THIS EBANK INTO A
000366: 05,3365           13347                           TCF      DNTMEXIT                              #  SEND DUMPLOC AND TIME1
000367:
000368: 05,3366           03370        LDNDUMP            ADRES    DNDUMP
000369: 05,3367           03403        LDNDUMP1           ADRES    DNDUMP1
000370:
000371: 05,3370           35025        DNDUMP             CA       TWO                                   #  INCREMENT ECADR IN DUMPLOC
000372: 05,3371           26336                           ADS      DUMPLOC                               #  TO NEXT DP WORD TO BE
000373: 05,3372           74371                           MASK     LOW8                                  #  DUMPED AND SAVE IT.
000374: 05,3373           10000                           CCS      A                                     #  IS THIS THE BEGINNING OF A NEW EBANK
000375: 05,3374           13405                           TCF      DNDUMP2                               #  NO- THEN CONTINUE DUMPING
000376: 05,3375           30336                           CA       DUMPLOC                               #  YES- IS THIS THE END OF THE
000377: 05,3376           70333                           MASK     DUMPCNT                               #  N TH (N = 1 TO 4) COMPLETE ERASABLE
000378: 05,3377           77674                           MASK     PRIO34                                #  DUMP (BIT14 FOR 4, BIT13 FOR 2 OR BIT12
000379: 05,3400           10000                           CCS      A                                     #  FOR 1 COMPLETE ERASABLE DUMP(S)).
000380: 05,3401           13162                           TCF      DNPHASE1                              #  YES- START SENDING INTERRUPTED DOWNLIST
000381:                                                                                                  #  AGAIN
000382: 05,3402           13357                           TCF      DNDUMPI    +2                         #  NO- GO BACK AND INITIALIZE NEXT BANK
000383:
000384: 05,3403           33366        DNDUMP1            CA       LDNDUMP                               #  SET DNTMGOTO
000385: 05,3404           54335                           TS       DNTMGOTO                              #  FOR WORDS 3 TO 256D OF CURRENT EBANK
000386:
000387: 05,3405           30336        DNDUMP2            CA       DUMPLOC
000388: 05,3406           54003                           TS       EBANK                                 #  SET EBANK
000389: 05,3407           74371                           MASK     LOW8                                  #  ISOLATE RELATIVE ADDRESS.
000390: 05,3410           54002                           TS       Q                                     #  (NOTE: MASK INSTRUCTION IS USED TO PICK
000391: 05,3411           35027                           CA       NEG0                                  #  UP ERASABLE REGISTERS SO THAT EDITING
000392: 05,3412           54001                           TS       L                                     #  REGISTERS 20-23 WILL NOT BE ALTERED.)
000393: 05,3413           50002                           INDEX    Q
000394: 05,3414  E3,1400                                  EBANK=   1400                                  #  PICK UP LOW ORDER REGISTER OF PAIR
000395: 05,3414           71401                           MASK     1401                                  #  OF ERASABLE REGISTERS.
000396: 05,3415           56001                           XCH      L
000397: 05,3416           50002                           INDEX    Q                                     #  PICK UP HIGH ORDER REGISTER OF PAIR
000398: 05,3417           71400                           MASK     1400                                  #  OF ERASABLE REGISTERS.
000399: 05,3420     0340                                  EBANK=   DNTMBUFF
000400: 05,3420           13347                           TCF      DNTMEXIT                              #  GO SEND THEM
000401:
000402: 05,3421           00006        SENDID             EXTEND                                         #  **ENTRANCE USED BY ERASABLE DUMP PROG.**
000403: 05,3422           22335                           QXCH     DNTMGOTO                              #  SET DNTMGOTO SO NEXT TIME PROG WILL GO
000404: 05,3423           35061                           CAF      ERASID                                #  TO LOCATION FOLLOWING :TC SENDID:
000405:
000406: 05,3424           54001                           TS       L                                     #  **ENTRANCE USED BY REGULAR DOWNLINK PG**
000407: 05,3425           03253                           TC       WOZERO                                #  GO SET WORD ORDER CODE TO ZERO
000408: 05,3426           32000                           CAF      LOWIDCOD                              #  PLACE SPECIAL ID CODE INTO L
000409: 05,3427           56001                           XCH      L                                     #  AND ID BACK INTO A
000410: 05,3430           13347                           TCF      DNTMEXIT                              #  SEND DOWNLIST ID CODE(S).
000411:

End of include-file DOWN-TELEMETRY_PROGRAM.agc.  Parent file is MAIN.agc


