
Source Code


000002:                                                                                                  ## Copyright:   Public domain.
000003:                                                                                                  ## Filename:    ERASABLE_ASSIGNMENTS.agc
000004:                                                                                                  ## Purpose:     A section of an attempt to reconstruct Sundance revision 306
000005:                                                                                                  ##              as closely as possible with available information. Sundance
000006:                                                                                                  ##              306 is the source code for the Lunar Module's (LM) Apollo
000007:                                                                                                  ##              Guidance Computer (AGC) for Apollo 9. This program was created
000008:                                                                                                  ##              using the mixed-revision SundanceXXX as a starting point, and
000009:                                                                                                  ##              pulling back features from Luminary 69 believed to have been
000010:                                                                                                  ##              added based on memos, checklists, observed address changes,
000011:                                                                                                  ##              or the Sundance GSOPs.
000012:                                                                                                  ## Assembler:   yaYUL
000013:                                                                                                  ## Contact:     Ron Burkey <info@sandroid.org>.
000014:                                                                                                  ## Website:     www.ibiblio.org/apollo/index.html
000015:                                                                                                  ## Mod history: 2020-07-24 MAS  Created from SundanceXXX.
000016:                                                                                                  ##              2021-05-30 ABS  TTPIO -> TTPI0
000017:
000018:
000019:                                                                                                  ## This log section assembles such that the addresses of all erasables match
000020:                                                                                                  ## their locations for Sundance 306, to the best of our knowledge. The order
000021:                                                                                                  ## of definitions, and especially the comments, may not reflect the original
000022:                                                                                                  ## listing.
000023:
000024:                                                                                                  #  CONVENTIONS AND NOTATIONS UTILIZED FOR ERASABLE ASSIGNMENTS.
000025:
000026:                                                                                                  #           EQUALS IS USED IN TWO WAYS.  IT IS OFTEN USED TO CHAIN A GROUP
000027:                                                                                                  #                  OF ASSIGNMENTS SO THAT THE GROUP MAY BE MOVED WITH THE
000028:                                                                                                  #                  CHANGING OF ONLY ONE CARD.  EXAMPLE.
000029:
000030:                                                                                                  #                                          X        EQUALS  START
000031:                                                                                                  #                                          Y        EQUALS  X       +SIZE.X
000032:                                                                                                  #                                          Z        EQUALS  Y       +SIZE.Y
000033:
000034:                                                                                                  #                  (X, Y, AND Z ARE CONSECUTIVE AND BEGIN AT START.       )
000035:                                                                                                  #                  (SIZE.X AND SIZE.Y ARE THE RESPECTIVE SIZES OF X AND Y,
000036:                                                                                                  #                   USUALLY NUMERIC,  IE. 1, 2, 6, 18D ETC.                )
000037:
000038:                                                                                                  #           EQUALS OFTEN IMPLIES THE SHARING OF REGISTERS (DIFFERENT NAMES
000039:                                                                                                  #                  AND DIFFERENT DATA).  EXAMPLE.
000040:
000041:                                                                                                  #                                          X        EQUALS Y
000042:
000043:                                                                                                  #           = MEANS THAT MULTIPLE NAMES HAVE BEEN GIVEN TO THE SAME DATA.
000044:                                                                                                  #                  (THIS IS LOGICAL EQUIVALENCE, NOT SHARING)  EXAMPLE.
000045:
000046:                                                                                                  #                                          X        =      Y
000047:
000048:                                                                                                  #           THE SIZE AND UTILIZATION OF AN ERASABLE ARE OFTEN INCLUDED IN
000049:                                                                                                  #           THE COMMENTS IN THE FOLLOWING FORM.  M(SIZE)N.
000050:
000051:                                                                                                  #                  M REFERS TO THE MOBILITY OF THE ASSIGNMENT.
000052:                                                                                                  #                       B   MEANS THAT THE SYMBOL IS REFERENCED BY BASIC
000053:                                                                                                  #                           INSTRUCTIONS AND THUS IS E-BANK SENSITIVE.
000054:                                                                                                  #                       I   MEANS THAT THE SYMBOL IS REFERENCED ONLY BY
000055:                                                                                                  #                           INTERPRETIVE INSTRUCTIONS, AND IS THUS E-BANK
000056:                                                                                                  #                           INSENSITIVE AND MAY APPEAR IN ANY E-BANK.
000057:
000058:                                                                                                  #                  SIZE IS THE NUMBER OF REGISTERS INCLUDED BY THE SYMBOL.
000059:
000060:                                                                                                  #                  N INDICATES THE NATURE OR PERMANENCE OF THE CONTENTS.
000061:                                                                                                  #                       PL  MEANS THAT THE CONTENTS ARE PAD LOADED.
000062:                                                                                                  #                       DSP MEANS THAT THE REGISTER IS USED FOR A DISPLAY.
000063:                                                                                                  #                       PRM MEANS THAT THE REGISTER IS PERMANENT, IE. IT
000064:                                                                                                  #                           IS USED DURING THE ENTIRE MISSION FOR ONE
000065:                                                                                                  #                           PURPOSE AND CANNOT BE SHARED.
000066:                                                                                                  #                       TMP MEANS THAT THE REGISTER IS USED TEMPORARILY OR
000067:                                                                                                  #                           IS A SCRATCH REGISTER FOR THE ROUTINE TO WHICH
000068:                                                                                                  #                           IT IS ASSIGNED.  THAT IS, IT NEED NOT BE SET
000069:                                                                                                  #                           PRIOR TO INVOCATION OF THE ROUTINE NOR DOES IT
000070:                                                                                                  #                           CONTAIN USEFUL OUTPUT TO ANOTHER ROUTINE.  THUS
000071:
000072:                                                                                                  #                           IT MAY BE SHARED WITHANY OTHER ROUTINE WHICH
000073:                                                                                                  #                           IS NOT ACTIVE IN PARALLEL.
000074:                                                                                                  #                      IN   MEANS INPUT TO THE ROUTINE AND IT IS PROBABLY
000075:                                                                                                  #                           TEMPORARY FOR A HIGHER-LEVEL ROUTINE/PROGRAM.
000076:                                                                                                  #                      OUT  MEANS OUTPUT FROM THE ROUTINE, PROBABLY
000077:                                                                                                  #                           TEMPORARY FOR A HIGHER-LEVEL ROUTINE/PROGRAM.
000078:
000079:                                                                                                  #           SPECIAL REGISTERS.
000080:
000081: 43,2000                        A                  EQUALS   0
000082: 43,2000                        L                  EQUALS   1                                     #  L AND Q ARE BOTH CHANNELS AND REGISTERS.
000083: 43,2000                        Q                  EQUALS   2
000084: 43,2000                        EBANK              EQUALS   3
000085: 43,2000                        FBANK              EQUALS   4
000086: 43,2000                        Z                  EQUALS   5                                     #  ADJACENT TO FBANK AND BBANK FOR DXCH Z
000087: 43,2000                        BBANK              EQUALS   6                                     #  (DTCB) AND DXCH FBANK (DTCF).
000088:                                                                                                  #  REGISTER 7 IS A ZERO-SOURCE, USED BY ZL.
000089:
000090: 43,2000                        ARUPT              EQUALS   10                                    #  INTERRUPT STORAGE.
000091: 43,2000                        LRUPT              EQUALS   11
000092: 43,2000                        QRUPT              EQUALS   12
000093: 43,2000                        SAMPTIME           EQUALS   13                                    #  SAMPLED TIME 1 & 2.
000094: 43,2000                        ZRUPT              EQUALS   15                                    #  (13 AND 14 ARE SPARES.)
000095: 43,2000                        BANKRUPT           EQUALS   16                                    #  USUALLY HOLDS FBANK OR BBANK.
000096: 43,2000                        BRUPT              EQUALS   17                                    #  RESUME ADDRESS AS WELL.
000097:
000098: 43,2000                        CYR                EQUALS   20
000099: 43,2000                        SR                 EQUALS   21
000100: 43,2000                        CYL                EQUALS   22
000101: 43,2000                        EDOP               EQUALS   23                                    #  EDITS INTERPRETIVE OPERATION CODE PAIRS.
000102:
000103: 43,2000                        TIME2              EQUALS   24
000104: 43,2000                        TIME1              EQUALS   25
000105: 43,2000                        TIME3              EQUALS   26
000106: 43,2000                        TIME4              EQUALS   27
000107: 43,2000                        TIME5              EQUALS   30
000108: 43,2000                        TIME6              EQUALS   31
000109: 43,2000                        CDUX               EQUALS   32
000110: 43,2000                        CDUY               EQUALS   33
000111: 43,2000                        CDUZ               EQUALS   34
000112: 43,2000                        CDUT               EQUALS   35                                    #  REND RADAR TRUNNION CDU
000113: 43,2000                        OPTY               EQUALS   35
000114: 43,2000                        CDUS               EQUALS   36                                    #  REND RADAR SHAFT CDU
000115: 43,2000                        OPTX               EQUALS   36
000116: 43,2000                        PIPAX              EQUALS   37
000117: 43,2000                        PIPAY              EQUALS   40
000118: 43,2000                        PIPAZ              EQUALS   41
000119: 43,2000                        Q-RHCCTR           EQUALS   42                                    #  RHC COUNTER REGISTERS
000120: 43,2000                        P-RHCCTR           EQUALS   43
000121: 43,2000                        R-RHCCTR           EQUALS   44
000122: 43,2000                        INLINK             EQUALS   45
000123: 43,2000                        RNRAD              EQUALS   46
000124: 43,2000                        GYROCMD            EQUALS   47
000125: 43,2000                        CDUXCMD            EQUALS   50
000126: 43,2000                        CDUYCMD            EQUALS   51
000127: 43,2000                        CDUZCMD            EQUALS   52
000128: 43,2000                        CDUTCMD            EQUALS   53                                    #  RADAR TRUNNION COMMAND
000129: 43,2000                        CDUSCMD            EQUALS   54                                    #  RADAR SHAFT COMMAND
000130:
000131: 43,2000                        THRUST             EQUALS   55
000132: 43,2000                        LEMONM             EQUALS   56
000133: 43,2000                        OUTLINK            EQUALS   57
000134: 43,2000                        ALTM               EQUALS   60
000135:
000136:                                                                                                  #           INTERPRETIVE REGISTERS ADDRESSED RELATIVE TO VAC AREA.
000137:
000138: 43,2000                        LVSQUARE           EQUALS   34D                                   #  SQUARE OF VECTOR INPUT TO ABVAL AND UNIT
000139: 43,2000                        LV                 EQUALS   36D                                   #  LENGTH OF VECTOR INPUT TO UNIT.
000140: 43,2000                        X1                 EQUALS   38D                                   #  INTERPRETIVE SPECIAL REGISTERS RELATIVE
000141: 43,2000                        X2                 EQUALS   39D                                   #  TO THE WORK AREA.
000142: 43,2000                        S1                 EQUALS   40D
000143: 43,2000                        S2                 EQUALS   41D
000144: 43,2000                        QPRET              EQUALS   42D
000145:
000146:                                                                                                  #  INPUT/OUTPUT CHANNELS
000147:
000148:                                                                                                  #                                *** CHANNEL ZERO IS TO BE USED IN AN INDEXED OPERATION ONLY. ***
000149: 43,2000  0000001               LCHAN              EQUALS   L
000150: 43,2000  0000002               QCHAN              EQUALS   Q
000151: 43,2000                        HISCALAR           EQUALS   3
000152: 43,2000                        LOSCALAR           EQUALS   4
000153: 43,2000                        CHAN5              EQUALS   5
000154: 43,2000                        CHAN6              EQUALS   6
000155: 43,2000                        SUPERBNK           EQUALS   7                                     #  SUPER-BANK.
000156: 43,2000                        OUT0               EQUALS   10
000157: 43,2000                        DSALMOUT           EQUALS   11
000158: 43,2000                        CHAN12             EQUALS   12
000159: 43,2000                        CHAN13             EQUALS   13
000160: 43,2000                        CHAN14             EQUALS   14
000161: 43,2000                        MNKEYIN            EQUALS   15
000162: 43,2000                        NAVKEYIN           EQUALS   16
000163: 43,2000                        CHAN30             EQUALS   30
000164: 43,2000                        CHAN31             EQUALS   31
000165: 43,2000                        CHAN32             EQUALS   32
000166: 43,2000                        CHAN33             EQUALS   33
000167: 43,2000                        DNTM1              EQUALS   34
000168: 43,2000                        DNTM2              EQUALS   35
000169:                                                                                                  #  END OF CHANNEL ASSIGNMENTS
000170:
000171:                                                                                                  #           FLAGWORDS
000172:
000173:
000174:                                                                                                  #  FLAGWRD0      STATE +0        (000-014)
000175:                                                                                                  #  FLAGWRD1      STATE +1        (015-029)
000176:                                                                                                  #  FLAGWRD2      STATE +2        (030-044)
000177:                                                                                                  #  FLAGWRD3      STATE +3        (045-059)
000178:                                                                                                  #  FLAGWRD4      STATE +4        (060-074)
000179:                                                                                                  #  FLAGWRD5      STATE +5        (075-089)
000180:                                                                                                  #  FLAGWRD6      STATE +6        (090-104)
000181:                                                                                                  #  FLAGWRD7      STATE +7        (105-119)
000182:                                                                                                  #  FLAGWRD8      STATE +8D       (120-134)
000183:                                                                                                  #  FLAGWRD9      STATE +9D       (135-149)
000184:
000185:
000186:                                                                                                  #           SORTED LIST OF
000187:                                                                                                  #           INTERPITIVE SWITCH BIT ASSIGNMENTS
000188:
000189:                                                                                                  #  INTERPRETIVE SWITCH BIT ASSIGNMENTS
000190:
000191:                                                                                                  #  FLAGWORD        DEC. NUMBER     BIT AND FLAG         BIT NAME
000192:
000193:                                                                                                  #  ACMODFLG        032             BIT 13 FLAG 2        ACMODBIT
000194:                                                                                                  #  APSESW          130             BIT 5  FLAG 8        APSESBIT
000195:                                                                                                  #  APSFLAG         018             BIT 12 FLAG 1        APSFLBIT
000196:                                                                                                  #  ASTNFLAG        108             BIT 12 FLAG 7        ASTNBIT
000197:                                                                                                  #  ATTFLAG         104             BIT 1  FLAG 6        ATTFLBIT
000198:                                                                                                  #  ASCNTFLG        103             BIT 2  FLAG 6        ASCNTBIT
000199:                                                                                                  #  AUTMANSW        045             BIT 15 FLAG 3        AUTMNBIT
000200:                                                                                                  #  AVEGFLAG        115             BIT 5  FLAG 7        AVEGFBIT
000201:                                                                                                  #  AVEMIDSW        149             BIT 1  FLAG 9        AVEMDBIT
000202:                                                                                                  #  AVFLAG          040             BIT 5  FLAG 2        AVFLBIT
000203:                                                                                                  #  B29FLAG         013             BIT 2  FLAG 0        B29FLBIT
000204:                                                                                                  #  CALCMAN2        043             BIT 2  FLAG 2        CALC2BIT
000205:                                                                                                  #  CALCMAN3        042             BIT 3  FLAG 2        CALC3BIT
000206:                                                                                                  #  CMOONFLG        123             BIT 12 FLAG 8        CMOONBIT
000207:                                                                                                  #  COGAFLAG        131             BIT 4  FLAG 8        COGAFBIT
000208:                                                                                                  #  COMPUTER        082             BIT 8  FLAG 5        COMPTBIT
000209:                                                                                                  #  CPHIFLAG        000             BIT 15 FLAG 0        CPHIBIT
000210:                                                                                                  #  CULTFLAG        053             BIT 7  FLAG 3        CULTBIT
000211:                                                                                                  #  CYCLESW         035             BIT 10 FLAG 2        CYCLEBIT
000212:                                                                                                  #  DIMOFLAG        059             BIT 1  FLAG 3        DIMOBIT
000213:                                                                                                  #  DMENFLG         081             BIT 9  FLAG 5        DMENFBIT
000214:                                                                                                  #  DRIFTFLG        030             BIT 15 FLAG 2        DRFTBIT
000215:                                                                                                  #  DSKYFLAG        075             BIT 15 FLAG 5        DSKYFBIT
000216:                                                                                                  #  D6OR9FLG        058             BIT 2  FLAG 3        D6OR9BIT
000217:                                                                                                  #  ENGONFLG        083             BIT 7  FLAG 5        ENGONBIT
000218:                                                                                                  #  ERADFLAG        017             BIT 13 FLAG 1        ERADFBIT
000219:                                                                                                  #  ETPIFLAG        038             BIT 7  FLAG 2        ETPIBIT         EQUIVALENT FLAG NAME:  OPTNSW
000220:                                                                                                  #  FINALFLG        039             BIT 6  FLAG 2        FINALBIT
000221:                                                                                                  #  FIRSTFLG        094             BIT 11 FLAG 6        FIRSTBIT
000222:                                                                                                  #  FLAP            142             BIT 8  FLAG 9        FLAPBIT
000223:                                                                                                  #  FLIC            143             BIT 7  FLAG 9        FLICBIT
000224:                                                                                                  #  FLPC            138             BIT 12 FLAG 9        FLPCBIT
000225:                                                                                                  #  FLPI            139             BIT 11 FLAG 9        FLPIBIT
000226:                                                                                                  #  FLP70           137             BIT 13 FLAG 9        FLP70BIT
000227:                                                                                                  #  FLRCS           149             BIT 10 FLAG 9        FLRCSBIT
000228:                                                                                                  #  FLUNDISP        125             BIT 10 FLAG 8        FLUNDBIT
000229:                                                                                                  #  FLVR            136             BIT 14 FLAG 9        FLVRBIT
000230:                                                                                                  #  FLZONE0         144             BIT 6  FLAG 9        FLZONBIT
000231:                                                                                                  #  FREEFLAG        012             BIT 3  FLAG 0        FREEFBIT
000232:                                                                                                  #  GIMBFLG         026             BIT 4  FLAG 1        GIMBFBIT
000233:                                                                                                  #  GLOKFAIL        046             BIT 14 FLAG 3        GLOKFBIT
000234:                                                                                                  #  GMBDRVSW        095             BIT 10 FLAG 6        GMBDRBIT
000235:                                                                                                  #  GUESSW          028             BIT 2  FLAG 1        GUESSBIT
000236:                                                                                                  #  IDLEFLAG        113             BIT 7  FLAG 7        IDLEFBIT
000237:                                                                                                  #  IGNFLAG         107             BIT 13 FLAG 7        IGNFLBIT
000238:                                                                                                  #  IMPULSW         036             BIT 9  FLAG 2        IMPULBIT
000239:                                                                                                  #  IMUSE           007             BIT 8  FLAG 0        IMUSEBIT
000240:                                                                                                  #  INFINFLG        128             BIT 7  FLAG 8        INFINBIT
000241:                                                                                                  #  INTFLG2         076             BIT 14 FLAG 5        INTF2BIT
000242:                                                                                                  #  INTYPFLG        056             BIT 4  FLAG 3        INTYPBIT
000243:                                                                                                  #  ITSWICH         105             BIT 15 FLAG 7        ITSWBIT
000244:                                                                                                  #  JSWITCH         001             BIT 14 FLAG 0        JSWCHBIT
000245:                                                                                                  #  KFLAG           014             BIT 1  FLAG 0        KBIT
000246:                                                                                                  #  KILLROSE        100             BIT 5  FLAG 6        KILLRBIT
000247:                                                                                                  #  LETABORT        141             BIT 9  FLAG 9        LETABBIT
000248:                                                                                                  #  LMOONFLG        124             BIT 11 FLAG 8        LMOONBIT
000249:                                                                                                  #  LOKONSW         010             BIT 5  FLAG 0        LOKONBIT
000250:                                                                                                  #  LOSCMFLG        033             BIT 12 FLAG 2        LOSCMBIT
000251:                                                                                                  #  LUNAFLAG        048             BIT 12 FLAG 3        LUNABIT
000252:                                                                                                  #  MANUFLAG        106             BIT 14 FLAG 7        MANUFBIT
000253:                                                                                                  #  MGLVFLAG        088             BIT 2  FLAG 5        MGLVFBIT
000254:                                                                                                  #  MIDAVFLG        148             BIT 2  FLAG 9        MIDAVBIT
000255:                                                                                                  #  MIDFLAG         002             BIT 13 FLAG 0        MIDFLBIT
000256:                                                                                                  #  MID1FLAG        147             BIT 3  FLAG 9        MID1BIT
000257:                                                                                                  #  MKOVFLAG        072             BIT 3  FLAG 4        MKOVBIT
000258:                                                                                                  #  MOONFLAG        003             BIT 12 FLAG 0        MOONBIT
000259:                                                                                                  #  MRKIDFLG        060             BIT 15 FLAG 4        MRKIDBIT
000260:                                                                                                  #  MRKNVFLG        066             BIT 9  FLAG 4        MRKNVBIT
000261:                                                                                                  #  MRUPTFLG        070             BIT 5 FLAG 4         MRUPTBIT
000262:                                                                                                  #  MUNFLAG         097             BIT 8 FLAG 6         MUNFLBIT
000263:                                                                                                  #  MWAITFLG        064             BIT 11 FLAG 4        MWAITBIT
000264:                                                                                                  #  NEEDLFLG        011             BIT 4  FLAG 0        NEEDLBIT
000265:                                                                                                  #  NEWIFLG         122             BIT 13  FLAG 8       NEWIBIT
000266:                                                                                                  #  NJETSFLG        015             BIT 15 FLAG          NJETSBIT
000267:                                                                                                  #  NODOFLAG        044             BIT 1  FLAG 2        NODOBIT
000268:                                                                                                  #  NORMSW          110             BIT 10 FLAG 7        NORMSBIT
000269:                                                                                                  #  NORRMON         086             BIT 4  FLAG 5        NORRMBIT
000270:                                                                                                  #  NOTHROTL        078             BIT 12 FLAG 5        NOTHRBIT
000271:                                                                                                  #  NOUPFLAG        024             BIT 6  FLAG 1        NOUPFBIT
000272:                                                                                                  #  NRMNVFLG        067             BIT 8  FLAG 4        NRMNVBIT
000273:                                                                                                  #  NRMIDFLG        062             BIT 13 FLAG 4        NRMIDBIT
000274:                                                                                                  #  NRUPTFLG        071             BIT 4  FLAG 4        NRUPTBIT
000275:                                                                                                  #  NTARGFLG        102             BIT 3  FLAG 6        NTARGBIT
000276:                                                                                                  #  NWAITFLG        065             BIT 10 FLAG 4        NWAITBIT
000277:                                                                                                  #  OPTNSW          038             BIT 7  FLAG 2        OPTNBIT         EQUIVALENT FLAG NAME:  ETPIFLAG
000278:                                                                                                  #  ORBWFLAG        054             BIT 6  FLAG 3        ORBWFBIT
000279:                                                                                                  #  ORDERSW         129             BIT 6  FLAG 8        ORDERBIT
000280:                                                                                                  #  PDSPFLAG        063             BIT 12 FLAG 4        PDSPFBIT
000281:                                                                                                  #  PFRATFLG        041             BIT 4  FLAG 2        PFRATBIT
000282:                                                                                                  #  PINBRFLG        069             BIT 6  FLAG 4        PINBRBIT
000283:                                                                                                  #  PRECIFLG        052             BIT 8  FLAG 3        PRECIBIT
000284:                                                                                                  #  PRIODFLG        061             BIT 14 FLAG 1        PRIODBIT
000285:                                                                                                  #  PRONVFLG        068             BIT 7  FLAG 4        PRONVBIT
000286:                                                                                                  #  P25FLAG         006             BIT 9  FLAG 0        P25FLBIT
000287:                                                                                                  #  P39/79SW        126             BIT 9  FLAG 8        P39SWBIT
000288:                                                                                                  #  QUITFLAG        145             BIT 5  FLAG 9        QUITBIT
000289:                                                                                                  #  REDFLAG         099             BIT 6  FLAG 6        REDFLBIT
000290:                                                                                                  #  REFSMFLG        047             BIT 13 FLAG 3        REFSMBIT
000291:                                                                                                  #  RENDWFLG        089             BIT 1  FLAG 5        RENDWBIT
000292:                                                                                                  #  RNDVZFLG        008             BIT 7  FLAG 0        RNDVZBIT
000293:                                                                                                  #  RNGSCFLG        080             BIT 10 FLAG 5        RNGSCBIT
000294:                                                                                                  #  RPQFLAG         120             BIT 15 FLAG 8        RPQFLBIT
000295:                                                                                                  #  RRNBSW          009             BIT 6 FLAG 0         RRNBBIT
000296:                                                                                                  #  RVSW            111             BIT 9  FLAG 7        RVSWBIT
000297:                                                                                                  #  R04FLAG         051             BIT 9  FLAG 3        R04FLBIT
000298:                                                                                                  #  R32FLAG         121             BIT 14 FLAG 8        R32FLBIT
000299:                                                                                                  #  R77FLAG         079             BIT 11 FLAG 5        R77FLBIT
000300:                                                                                                  #  SLOPESW         027             BIT 3  FLAG 1        SLOPEBIT
000301:                                                                                                  #  SNUFFER         077             BIT 13 FLAG 5        SNUFFBIT
000302:                                                                                                  #  SOLNSW          087             BIT 3  FLAG 5        SOLNSBIT
000303:                                                                                                  #  SRCHOPTN        031             BIT 14 FLAG 2        SRCHOBIT
000304:                                                                                                  #  STATEFLG        055             BIT 5  FLAG 3        STATEBIT
000305:                                                                                                  #  STEERSW         034             BIT 11 FLAG 2        STEERBIT
000306:                                                                                                  #  SURFFLAG        127             BIT 8  FLAG 8        SURFFBIT
000307:                                                                                                  #  SWANDISP        109             BIT 11 FLAG 7        SWANDBIT
000308:                                                                                                  #  S32.1F1         090             BIT 15 FLAG 6        S32BIT1
000309:                                                                                                  #  S32.1F2         092             BIT 14 FLAG 6        S32BIT2
000310:                                                                                                  #  S32.1F3A        092             BIT 13 FLAG 6        S32BIT3A
000311:                                                                                                  #  S32.1S3B        093             BIT 12 FLAG 6        S32BIT3B
000312:                                                                                                  #  TFFSW           119             BIT 1  FLAG 7        TFFSWBIT
000313:                                                                                                  #  TRACKFLG        025             BIT 5  FLAG 1        TRACKBIT
000314:                                                                                                  #  UPDATFLG        023             BIT 7  FLAG 1        UPDATBIT
000315:                                                                                                  #  UPLOCKFL        116             BIT 4  FLAG 7        UPLOCBIT
000316:                                                                                                  #  VEHUPFLG        022             BIT 8  FLAG 1        VEHUPBIT
000317:                                                                                                  #  VERIFLAG        117             BIT 3  FLAG 7        VERIFBIT
000318:                                                                                                  #  VFLAG           050             BIT 10 FLAG 3        VFLAGBIT
000319:                                                                                                  #  VINHFLG         004             BIT 11 FLAG 0        VINHFBIT
000320:                                                                                                  #  VINTFLAG        057             BIT 3  FLAG 3        VINTFBIT
000321:                                                                                                  #  VORIDEFL        005             BIT 10 FLAG 0        VORIDBIT
000322:                                                                                                  #  V37FLAG         114             BIT 6  FLAG 7        V37FLBIT
000323:                                                                                                  #  V45FLAG         112             BIT 8  FLAG 7        V45FLBIT
000324:                                                                                                  #  XDELVFLG        037             BIT 8  FLAG 2        XDELVBIT
000325:                                                                                                  #  XDSPFLAG        074             BIT 1  FLAG 4        XDSPBIT
000326:                                                                                                  #  LTCPFLG         096             BIT 9  FLAG 6        LTCPFBIT
000327:                                                                                                  #  3AXISFLG        084             BIT 6 FLAG 5         3AXISBIT
000328:                                                                                                  #  360SW           134             BIT 1 FLAG  8        360SWBIT
000329:
000330:                                                                                                  #            ASSIGNMENT AND DESCRIPTION OF FLAGWORDS
000331:
000332: 43,2000     0074               FLAGWRD0           =        STATE      +0                         #  (000-014)
000333:
000334:                                                                                                  #  (SET)              (RESET)
000335:
000336:                                                                                                  #  BIT 15 FLAG 0 (S)
000337: 43,2000                        CPHIFLAG           =        000D                                  #  OUTPUT OF CALCGA IS OUTPUT OF CALCGA IS
000338: 43,2000     5010               CPHIBIT            =        BIT15                                 #  CPHIX               THETAD
000339:
000340:
000341:                                                                                                  #  BIT 14 FLAG 0 (S)
000342: 43,2000                        JSWITCH            =        001D                                  #  INTEGRATION OF W    INTEGRATION OF STATE
000343: 43,2000     5011               JSWCHBIT           =        BIT14                                 #  MATRIX              VECTOR
000344:
000345:
000346:                                                                                                  #  BIT 13 FLAG 0 (S)
000347: 43,2000                        MIDFLAG            =        002D                                  #  INTEGRATION WITH    INTEGRATION WITHOUT
000348:                                                                                                  #  SECONDARY BODY AND  SOLAR PERTURBATIONS
000349: 43,2000     5012               MIDFLBIT           =        BIT13                                 #  SOLAR PERTURBATIONS
000350:
000351:                                                                                                  #  BIT 12 FLAG 0 (L)
000352: 43,2000                        MOONFLAG           =        003D                                  #  MOON IS SPHERE OF   EARTH IS SPHERE OF
000353: 43,2000     5013               MOONBIT            =        BIT12                                 #  INFLUENCE           INFLUENCE
000354:
000355:                                                                                                  #  BIT 11 FLAG 0
000356: 43,2000                        VINHFLG            =        004D                                  #  LANDING RADAR VEL   LANDING RADAR VEL
000357: 43,2000     5014               VINHFBIT           =        BIT11                                 #  UPDATES INHIBITED   UPDATES PERMITTED
000358:
000359:
000360:                                                                                                  #  BIT 10 FLAG 0
000361: 43,2000                        VORIDEFL           =        005D                                  #  LANDING RADAR VEL   LANDING RADAR VEL
000362: 43,2000     5015               VORIDBIT           =        BIT10                                 #  OVERRIDE ACTIVE     NOT OVERRIDDEN
000363:
000364:
000365:                                                                                                  #  BIT 9 FLAG 0  (S)
000366: 43,2000                        P25FLAG            =        006D                                  #  P25 OPERATING       P25 NOT OPERATING
000367: 43,2000     5016               P25FLBIT           =        BIT9
000368:
000369:
000370:                                                                                                  #  BIT 8 FLAG 0  (S)
000371: 43,2000                        IMUSE              =        007D                                  #  IMU IN USE          IMU NOT IN USE
000372: 43,2000     5017               IMUSEBIT           =        BIT8
000373:
000374:
000375:                                                                                                  #  BIT 7 FLAG 0  (S)
000376: 43,2000                        RNDVZFLG           =        008D                                  #  P20 RUNNING (RADAR  P20 NOT RUNNING
000377: 43,2000     5020               RNDVZBIT           =        BIT7                                  #  IN USE)
000378:
000379:
000380:                                                                                                  #  BIT 6 FLAG 0  (S)
000381: 43,2000                        RRNBSW             =        009D                                  #  RADAR TARGET IN     RADAR TARGET IN
000382: 43,2000     5021               RRNBBIT            =        BIT6                                  #  NB COORDINATES      SM COORDINATES
000383:
000384:
000385:                                                                                                  #  BIT 5 FLAG 0  (S)
000386: 43,2000                        LOKONSW            =        010D                                  #  RADAR LOCK-ON       RADAR LOCK-ON NOT
000387: 43,2000     5022               LOKONBIT           =        BIT5                                  #  DESIRED             DESIRED
000388:
000389:
000390:                                                                                                  #  BIT 4 FLAG 0  (S)
000391: 43,2000                        NEEDLFLG           =        011D                                  #  TOTAL ATTITUDE      A/P FOLLOWING
000392: 43,2000     5023               NEEDLBIT           =        BIT4                                  #  ERROR DISPLAYED     ERROR DISPLAYED
000393:
000394:
000395:                                                                                                  #  BIT 3 FLAG 0
000396: 43,2000                        FREEFLAG           =        012D                                  #  (USED BY P51-53 TEMP IN MANY DIFFERENT
000397:                                                                                                  #  ROUTINES & BY LUNAR + SOLAR EPHEMERIDES)
000398: 43,2000     5024               FREEFBIT           =        BIT3
000399:
000400:
000401:                                                                                                  #  BIT 2 FLAG 0
000402: 43,2000                        B29FLAG            =        013D                                  #  MOON IS CENTRAL     EARTH IS CENTRAL
000403: 43,2000     5025               B29FLBIT           =        BIT2                                  #  BODY                BODY
000404:
000405:
000406:                                                                                                  #  BIT 1 FLAG 0  (L)
000407: 43,2000                        KFLAG              =        014D                                  #  SEARCH SECTOR MORE  SEARCH SECTOR LESS
000408:                                                                                                  #  THAN 180 DEGREES    THAN 180 DEGREES
000409: 43,2000     5026               KBIT               =        BIT1
000410:
000411:
000412: 43,2000     0075               FLAGWRD1           =        STATE      +1                         #  (015-029)
000413:
000414:                                                                                                  #   (SET)              (RESET)
000415:
000416:                                                                                                  #  BIT 15 FLAG 1 (S)
000417: 43,2000                        NJETSFLG           =        015D                                  #   TWO JET RCS BURN    FOUR JET RCS BURN
000418: 43,2000     5010               NJETSBIT           =        BIT15
000419:
000420:
000421:                                                                                                  #  BIT 14 FLAG 1
000422:                                                                                                  #                =               016D
000423:                                                                                                  #                =               BIT14
000424:
000425:
000426:                                                                                                  #  BIT 13 FLAG 1 (S)
000427: 43,2000                        ERADFLAG           =        017D                                  #  COMPUTE REARTH       USE CONSTANT REARTH
000428: 43,2000     5012               ERADFBIT           =        BIT13                                 #  FISCHER ELLIPSOID    PAD RADIUS
000429:
000430:
000431:                                                                                                  #  BIT 12 FLAG 1
000432: 43,2000                        APSFLAG            =        018D                                  #  ASCENT STAGE         DESCENT STAGE
000433: 43,2000     5013               APSFLBIT           =        BIT12
000434:
000435:
000436:                                                                                                  #  BIT 11 FLAG 1
000437:                                                                                                  #                =               019D
000438:
000439:                                                                                                  #  BIT 10 FLAG 1
000440:                                                                                                  #                =               020D
000441:                                                                                                  #                =               BIT10
000442:
000443:                                                                                                  #  BIT 9 FLAG 1
000444:                                                                                                  #                =               021D
000445:                                                                                                  #                =               BIT9
000446:
000447:                                                                                                  #  BIT 8 FLAG 1  (S)
000448: 43,2000                        VEHUPFLG           =        022D                                  #  CSM STATE VECTOR     LEM STATE VECTOR
000449: 43,2000     5017               VEHUPBIT           =        BIT8                                  #  BEING UPDATED        BEING UPDATED
000450:
000451:
000452:                                                                                                  #  BIT 7 FLAG 1  (S)
000453: 43,2000                        UPDATFLG           =        023D                                  #  UPDATING BY MARKS    UPDATING BY MARKS
000454: 43,2000     5020               UPDATBIT           =        BIT7                                  #  ALLOWED              NOT ALLOWED
000455:
000456:
000457:                                                                                                  #  BIT 6 FLAG 1  (S)
000458:
000459: 43,2000                        NOUPFLAG           =        024D                                  #  NEITHER CSM         EITHER STATE
000460:                                                                                                  #  NOR LM STATE VECTOR VECTOR MAY BE
000461: 43,2000     5021               NOUPFBIT           =        BIT6                                  #  MAY BE UPDATED      UPDATED
000462:
000463:
000464:                                                                                                  #  BIT 5 FLAG 1  (S)
000465: 43,2000                        TRACKFLG           =        025D                                  #  TRACKING ALLOWED    TRACKING NOT ALLOWED
000466: 43,2000     5022               TRACKBIT           =        BIT5
000467:
000468:                                                                                                  #  BIT 4 FLAG 1
000469: 43,2000                        GIMBFLG            =        026D                                  #  USING TRIM GIMBAL   NOT USING TRIM
000470: 43,2000     5023               GIMBFBIT           =        BIT4                                  #                      GIMBAL
000471:
000472:
000473:                                                                                                  #  BIT 3 FLAG 1  (S)
000474: 43,2000                        SLOPESW            =        027D                                  #  ITERATE WITH BIAS   ITERATE WITH REGULAR
000475:                                                                                                  #  METHOD IN ITERATOR  FALSI METHOD IN
000476: 43,2000     5024               SLOPEBIT           =        BIT3                                  #                      ITERATOR
000477:
000478:
000479:                                                                                                  #  BIT 2 FLAG 1  (S)
000480: 43,2000                        GUESSW             =        028D                                  #  NO STARTING VALUE   STARTING VALUE FOR
000481: 43,2000     5025               GUESSBIT           =        BIT2                                  #  FOR ITERATION       ITERATION EXISTS
000482:
000483:
000484:                                                                                                  #  BIT 1 FLAG 1
000485: 43,2000                        HINHFLG            =        029D                                  #  LR HEIGHT UPDATES   LR HEIGHT UPDATES
000486: 43,2000     5026               HINHFBIT           =        BIT1                                  #  INHIBITED           PERMITTED
000487:
000488:
000489: 43,2000     0076               FLAGWRD2           =        STATE      +2                         #  (030-044)
000490:
000491:                                                                                                  #  (SET)               (RESET)
000492:
000493:                                                                                                  #  BIT 15 FLAG 2 (S)
000494: 43,2000                        DRIFTFLG           =        030D                                  #  T3RUPT CALLS GYRO   T3RUPT DOES NO GYRO
000495: 43,2000     5010               DRFTBIT            =        BIT15                                 #  COMPENSATION        COMPENSATION
000496:
000497:
000498:                                                                                                  #  BIT 14 FLAG 2 (S)
000499: 43,2000                        SRCHOPTN           =        031D                                  #  RADAR IN AUTOMATIC  RADAR NOT IN AUTO-
000500: 43,2000     5011               SRCHOBIT           =        BIT14                                 #  SEARCH OPTION(R24)  MATIC SEARCH OPTION
000501:
000502:
000503:                                                                                                  #  BIT 13 FLAG 2 (S)
000504: 43,2000                        ACMODFLG           =        032D                                  #  MANUAL ACQUISITION  AUTO ACQUISITION
000505: 43,2000     5012               ACMODBIT           =        BIT13                                 #  BY RENDESVOUS RADAR BY RENDESVOUS RADAR
000506:
000507:
000508:                                                                                                  #  BIT 12 FLAG 2 (S)
000509:
000510: 43,2000                        LOSCMFLG           =        033D                                  #  LINE OF SIGHT BEING LINE OF SIGHT NOT
000511:                                                                                                  #  COMPUTED (R21)      BEING COMPUTED
000512: 43,2000     5013               LOSCMBIT           =        BIT12
000513:                                                                                                  #  IN R29 (L): RR GYRO IN R29 (L): RR GYRO
000514:                                                                                                  #  CMD LOOP RUNNING    CMD LOOP OFF
000515:
000516:                                                                                                  #  BIT 11 FLAG 2 (S)
000517: 43,2000                        STEERSW            =        034D                                  #  SUFFICIENT THRUST   INSUFFICIENT THRUST
000518: 43,2000     5014               STEERBIT           =        BIT11                                 #  IS PRESENT          IS PRESENT
000519:
000520:
000521:                                                                                                  #  BIT 10 FLAG 2 (S)
000522: 43,2000                        CYCLESW            =        035D                                  #  LAMBERT VG CALCU-   LAMBERT CALCULATION
000523: 43,2000     5015               CYCLEBIT           =        BIT10                                 #  LATION TO BE DONE   OMITTED
000524:
000525:
000526:                                                                                                  #  BIT 9 FLAG 2 (S)
000527: 43,2000                        IMPULSW            =        036D                                  #  MINIMUM IMPULSE     STEERING BURN (NO
000528:                                                                                                  #  BURN (CUTOFF TIME   CUTOFF TIME YET
000529: 43,2000     5016               IMPULBIT           =        BIT9                                  #  SPECIFIED)          AVAILABLE)
000530:
000531:
000532:                                                                                                  #  BIT 8 FLAG 2 (S)
000533: 43,2000                        XDELVFLG           =        037D                                  #  EXTERNAL DELTAV VG  LAMBERT (AIMPOINT)
000534: 43,2000     5017               XDELVBIT           =        BIT8                                  #  COMPUTATION         VG COMPUTATION
000535:
000536:
000537:                                                                                                  #  BIT 7 FLAG 2 (S)
000538: 43,2000                        ETPIFLAG           =        038D                                  #  ELEVATION ANGLE     TPI TIME SUPPLIED
000539:                                                                                                  #  SUPPLIED FOR        FOR P34,74 TO COMPUT
000540: 43,2000     5020               ETPIBIT            =        BIT7                                  #  P34,74              ELEVATION
000541:
000542:
000543:                                                                                                  #  BIT 7 FLAG 2 (L)
000544: 43,2000  0000046               OPTNSW             =        ETPIFLAG                              #  SOI PHASE OF P38/78  SOR PHASE OF P38/78
000545: 43,2000     5020               OPTNBIT            =        BIT7
000546:
000547:
000548:                                                                                                  #  BIT 6 FLAG 2 (S)
000549: 43,2000                        FINALFLG           =        039D                                  #  LAST PASS THROUGH   INTERIM PASS THROUGH
000550:                                                                                                  #  RENDEZVOUS PROGRAM  RENDEZVOUS PROGRAM
000551: 43,2000     5021               FINALBIT           =        BIT6                                  #  COMPUTATIONS        COMPUTATIONS
000552:
000553:
000554:                                                                                                  #  BIT 5 FLAG 2 (S)
000555: 43,2000                        AVFLAG             =        040D                                  #  LEM IS ACTIVE       CSM IS ACTIVE
000556: 43,2000     5022               AVFLBIT            =        BIT5                                  #  VEHICLE             VEHICLE
000557:
000558:
000559:                                                                                                  #  BIT 4 FLAG 2 (S)
000560:
000561: 43,2000                        PFRATFLG           =        041D                                  #  PREFERRED ATTITUDE  PREFERRED ATTITUDE
000562: 43,2000     5023               PFRATBIT           =        BIT4                                  #  COMPUTED            NOT COMPUTED
000563:
000564:
000565:                                                                                                  #  BIT 3 FLAG 2 (S)
000566: 43,2000                        CALCMAN3           =        042D                                  #  NO FINAL ROLL       FINAL ROLL IS
000567: 43,2000     5024               CALC3BIT           =        BIT3                                  #                      NECESSARY
000568:
000569:
000570:                                                                                                  #  BIT 2 FLAG 2 (S)
000571: 43,2000                        CALCMAN2           =        043D                                  #  PERFORM MANEUVER    BYPASS STARTING
000572: 43,2000     5025               CALC2BIT           =        BIT2                                  #  STARTING PROCEDURE  PROCEDURE
000573:
000574:
000575:                                                                                                  #  BIT 1 FLAG 2 (S)
000576: 43,2000                        NODOFLAG           =        044D                                  #  V37 NOT PERMITTED   V37 PERMITTED
000577: 43,2000     5026               NODOBIT            =        BIT1
000578:
000579:
000580: 43,2000     0077               FLAGWRD3           =        STATE      +3                         #  (045-059)
000581:
000582:                                                                                                  #  (SET)               (RESET)
000583:
000584:                                                                                                  #  BIT 15 FLAG 3
000585: 43,2000                        AUTMANSW           =        045D                                  #  MANUAL MANEUVER     AUTOMATIC MANEUVER
000586: 43,2000     5010               AUTMNBIT           =        BIT15                                 #  DESIRED             DESIRED
000587:
000588:
000589:                                                                                                  #  BIT 14 FLAG 3 (S)
000590: 43,2000                        GLOKFAIL           =        046D                                  #  GIMBAL LOCK HAS     NOT IN GIMBAL LOCK
000591: 43,2000     5011               GLOKFBIT           =        BIT14                                 #  OCCURRED
000592:
000593:
000594:                                                                                                  #  BIT 13 FLAG 3
000595: 43,2000                        REFSMFLG           =        047D                                  #  REFSMMAT GOOD       REFSMMAT NO GOOD
000596: 43,2000     5012               REFSMBIT           =        BIT13
000597:
000598:
000599:                                                                                                  #  BIT 12 FLAG 3 (S)
000600: 43,2000                        LUNAFLAG           =        048D                                  #  LUNAR LAT-LONG      EARTH LAT-LONG
000601: 43,2000     5013               LUNABIT            =        BIT12
000602:
000603:
000604:                                                                                                  #  BIT 11 FLAG 3
000605:                                                                                                  #                =               049D
000606:                                                                                                  #                =               BIT11
000607:
000608:
000609:                                                                                                  #  BIT 10 FLAG 3 (S)
000610: 43,2000                        VFLAG              =        050D                                  #  LESS THAN TWO STARS TWO STARS IN FIELD
000611: 43,2000     5015               VFLAGBIT           =        BIT10                                 #  IN FIELD OF VIEW    OF VIEW
000612:
000613:
000614:
000615:                                                                                                  #  BIT 9 FLAG 3  (S)
000616: 43,2000                        R04FLAG            =        051D                                  #  ALARM 521           ALARM 521 ALLOWED
000617:                                                                                                  #  SUPPRESSED
000618: 43,2000     5016               R04FLBIT           =        BIT9
000619:
000620:
000621:                                                                                                  #  BIT 8 FLAG 3  (S)
000622: 43,2000                        PRECIFLG           =        052D                                  #  NORMAL INTEGRATION  ENGAGES 4-TIME STEP
000623:                                                                                                  #  IN POO              (POO) LOGIC IN INTE-
000624: 43,2000     5017               PRECIBIT           =        BIT8                                  #                      GRATION
000625:
000626:
000627:                                                                                                  #  BIT 7 FLAG 3  (S)
000628: 43,2000                        CULTFLAG           =        053D                                  #  STAR OCCULTED       STAR NOT OCCULTED
000629: 43,2000     5020               CULTBIT            =        BIT7
000630:
000631:
000632:                                                                                                  #  BIT 6 FLAG 3  (S)
000633: 43,2000                        ORBWFLAG           =        054D                                  #  W MATRIX VALID FOR  W MATRIX INVALID FOR
000634: 43,2000     5021               ORBWFBIT           =        BIT6                                  #  ORBITAL NAVIGATION  ORBITAL NAVIGATION
000635:
000636:
000637:                                                                                                  #  BIT 5 FLAG 3  (S)
000638: 43,2000                        STATEFLG           =        055D                                  #  PERMANENT STATE     PERMANENT STATE
000639: 43,2000     5022               STATEBIT           =        BIT5                                  #  VECTOR UPDATED      VECTOR NOT UPDATED
000640:
000641:
000642:                                                                                                  #  BIT 4 FLAG 3  (S)
000643: 43,2000                        INTYPFLG           =        056D                                  #  CONIC INTEGRATION   ENCKE INTEGRATION
000644: 43,2000     5023               INTYPBIT           =        BIT4
000645:
000646:
000647:                                                                                                  #  BIT 3 FLAG 3  (S)
000648: 43,2000                        VINTFLAG           =        057D                                  #  CSM STATE VECTOR    LEM STATE VECTOR
000649: 43,2000     5024               VINTFBIT           =        BIT3                                  #  BEING INTEGRATED    BEING INTEGRATED
000650:
000651:
000652:                                                                                                  #  BIT 2 FLAG 3 (S)
000653: 43,2000                        D6OR9FLG           =        058D                                  #  DIMENSION OF W IS 9 DIMENSION OF W IS 6
000654: 43,2000     5025               D6OR9BIT           =        BIT2                                  #  FOR INTEGRATION     FOR INTEGRATION
000655:
000656:
000657:                                                                                                  #  BIT 1 FLAG 3  (S)
000658:
000659: 43,2000                        DIM0FLAG           =        059D                                  #  W MATRIX IS TO BE   W MATRIX IS NOT TO
000660: 43,2000     5026               DIM0BIT            =        BIT1                                  #  USED                BE USED
000661:
000662:
000663: 43,2000     0100               FLAGWRD4           =        STATE      +4                         #  (060-074)
000664:
000665:                                                                                                  #  (SET)               (RESET)
000666:
000667:                                                                                                  #  BIT 15 FLAG 4 (S)
000668: 43,2000                        MRKIDFLG           =        060D                                  #  MARK DISPLAY IN     NO MARK DISPLAY IN
000669: 43,2000     5010               MRKIDBIT           =        BIT15                                 #  ENDIDLE             ENDIDLE
000670:
000671:
000672:                                                                                                  #  BIT 14 FLAG 4 (S)
000673: 43,2000                        PRIODFLG           =        061D                                  #  PRIORITY DISPLAY IN NO PRIORITY DISPLAY
000674: 43,2000     5011               PRIODBIT           =        BIT14                                 #  ENDIDLE             IN ENDIDLE
000675:
000676:
000677:                                                                                                  #  BIT 13 FLAG 4 (S)
000678: 43,2000                        NRMIDFLG           =        062D                                  #  NORMAL DISPLAY IN   NO NORMAL DISPLAY
000679: 43,2000     5012               NRMIDBIT           =        BIT13                                 #  ENDIDLE             IN ENDIDLE
000680:
000681:
000682:                                                                                                  #  BIT 12 FLAG 4 (S)
000683: 43,2000                        PDSPFLAG           =        063D                                  #  P20 SETS SO AS TO   LEAVE AS NORMAL DISP
000684:                                                                                                  #  TURN A NORMAL DIS-
000685: 43,2000     5013               PDSPFBIT           =        BIT12                                 #  PLAY INTO A PRIORITY
000686:                                                                                                  #  DISPLAY IN R60
000687:
000688:
000689:                                                                                                  #  BIT 11 FLAG 4 (S)
000690: 43,2000                        MWAITFLG           =        064D                                  #  HIGHER PRIORITY      NO HIGHER PRIORITY
000691:                                                                                                  #  DISPLAY OPERATING    DISPLAY OPERATING
000692: 43,2000     5014               MWAITBIT           =        BIT11                                 #  WHEN MARK DISPLAY    WHEN MARK DISPLAY
000693:                                                                                                  #  INITIATED            INITIATED
000694:
000695:                                                                                                  #  BIT 10 FLAG 4 (S)
000696: 43,2000                        NWAITFLG           =        065D                                  #  HIGHER PRIORITY      NO HIGHER PRIORITY
000697:                                                                                                  #  DISPLAY OPERATING    DISPLAY OPERATING
000698: 43,2000     5015               NWAITBIT           =        BIT10                                 #  WHEN NORMAL          WHEN NORMAL DISPLAY
000699:                                                                                                  #  DISPLAY INITIATED    INITIATED
000700:
000701:                                                                                                  #  BIT 9 FLAG 4  (S)
000702: 43,2000                        MRKNVFLG           =        066D                                  #  ASTRONAUT USING      ASTRONAUT NOT USING
000703:                                                                                                  #  KEYBOARD WHEN MARK   KEYBOARD WHEN MARK
000704: 43,2000     5016               MRKNVBIT           =        BIT9                                  #  DISPLAY INITIATED    DISPLAY INITIATED
000705:
000706:
000707:                                                                                                  #  BIT 8 FLAG 4  (S)
000708: 43,2000                        NRMNVFLG           =        067D                                  #  ASTRONAUT USING      ASTRONAUT NOT USING
000709:
000710:                                                                                                  #  KEYBOARD WHEN        KEYBOARD WHEN
000711: 43,2000     5017               NRMNVBIT           =        BIT8                                  #  NORMAL DISPLAY       NORMAL DISPLAY
000712:                                                                                                  #  INITIATED            INITIATED
000713:
000714:                                                                                                  #  BIT 7 FLAG 4  (S)
000715: 43,2000                        PRONVFLG           =        068D                                  #  ASTRONAUT USING      ASTRONAUT NOT USING
000716:                                                                                                  #  KEYBOARD WHEN        KEYBOARD WHEN
000717: 43,2000     5020               PRONVBIT           =        BIT7                                  #  PRIORITY DISPLAY     PRIORITY DISPLAY
000718:                                                                                                  #  INITIATED            INITIATED
000719:
000720:                                                                                                  #  BIT 6 FLAG 4  (S)
000721: 43,2000                        PINBRFLG           =        069D                                  #  ASTRONAUT HAS        ASTRONAUT HAS NOT
000722:                                                                                                  #  INTERFERED WITH      INTERFERED WITH
000723: 43,2000     5021               PINBRBIT           =        BIT6                                  #  EXISTING DISPLAY     EXISTING DISPLAY
000724:
000725:
000726:                                                                                                  #  BIT 5 FLAG 4  (S)
000727: 43,2000                        MRUPTFLG           =        070D                                  #  MARK DISPLAY         MARK DISPLAY NOT
000728:                                                                                                  #  INTERRUPTED BY       INTERRUPTED BY
000729: 43,2000     5022               MRUPTBIT           =        BIT5                                  #  PRIORITY DISPLAY     PRIORITY DISPLAY
000730:
000731:
000732:                                                                                                  #  BIT 4 FLAG 4  (S)
000733: 43,2000                        NRUPTFLG           =        071D                                  #  NORMAL DISPLAY       NORMAL DISPLAY NOT
000734:                                                                                                  #  INTERRUPTED BY       INTERRUPTED BY
000735: 43,2000     5023               NRUPTBIT           =        BIT4                                  #  PRIORITY OR MARK     PRIORITY OR MARK
000736:                                                                                                  #  DISPLAY              DISPLAY
000737:
000738:                                                                                                  #  BIT 3 FLAG 4  (S)
000739: 43,2000                        MKOVFLAG           =        072D                                  #  MARK DISPLAY OVER    NO MARK DISPLAY OVER
000740: 43,2000     5024               MKOVBIT            =        BIT3                                  #  NORMAL               NORMAL
000741:
000742:
000743:                                                                                                  #  BIT 2 FLAG 4
000744:                                                                                                  #                =               073D
000745:
000746:
000747:
000748:                                                                                                  #  BIT 1 FLAG 4  (S)
000749: 43,2000                        XDSPFLAG           =        074D                                  #  MARK DISPLAY NOT     NO SPECIAL MARK
000750: 43,2000     5026               XDSPBIT            =        BIT1                                  #  TO BE INTERRUPTED    INFORMATION
000751:
000752:
000753: 43,2000     0101               FLAGWRD5           =        STATE      +5                         #  (075-089)
000754:                                                                                                  #  (SET)                (RESET)
000755:
000756:                                                                                                  #  BIT 15 FLAG 5 (S)
000757: 43,2000                        DSKYFLAG           =        075D                                  #  DISPLAYS SENT TO     NO DISPLAYS TO DSKY
000758: 43,2000     5010               DSKYFBIT           =        BIT15                                 #  DSKY
000759:
000760:
000761:                                                                                                  #  BIT 14 FLAG 5
000762: 43,2000                        INTFLG2            =        076D                                  #  ORBITAL INTEGRATION ORBITAL INTEGRATION
000763:                                                                                                  #  PROGRAM PACKAGE IN  PROGRAM PACKAGE NOT
000764: 43,2000     5011               INTF2BIT           =        BIT14                                 #  USE                 IN USE
000765:
000766:
000767:                                                                                                  #  BIT 13 FLAG 5 (S,L)
000768: 43,2000                        SNUFFER            =        077D                                  #  U,V JETS DISABLED   U,V JETS ENABLED
000769:                                                                                                  #  DURING DPS          DURING DPS
000770: 43,2000     5012               SNUFFBIT           =        BIT13                                 #  BURNS (V65)         BURNS (V75)
000771:
000772:
000773:                                                                                                  #  BIT 12 FLAG 5 (S)
000774: 43,2000                        NOTHROTL           =        078D                                  #  INHIBIT FULL        PERMIT FULL THROTTLE
000775: 43,2000     5013               NOTHRBIT           =        BIT12                                 #  THROTTLE
000776:
000777:
000778:                                                                                                  #  BIT 11 FLAG 5 (S,L)
000779: 43,2000                        R77FLAG            =        079D                                  #  R77 IS ON,         R77 IS NOT ON.
000780:                                                                                                  #  SUPPRESS ALL RADAR
000781:                                                                                                  #  ALARMS AND TRACKER
000782: 43,2000     5014               R77FLBIT           =        BIT11                                 #  FAILS
000783:
000784:
000785:                                                                                                  #  BIT 10 FLAG 5 (S)
000786: 43,2000                        RNGSCFLG           =        080D                                  #  SCALE CHANGE HAS    NO SCALE CHANGE HAS
000787:                                                                                                  #  OCCURRED DURING     OCCURRED DURING
000788: 43,2000     5015               RNGSCBIT           =        BIT10                                 #  RR READING          RR READING
000789:
000790:
000791:                                                                                                  #  BIT 9 FLAG 5  (S)
000792: 43,2000                        DMENFLG            =        081D                                  #  DIMENSION OF W IS 9 DIMENSION OF W IS 6
000793: 43,2000     5016               DMENFBIT           =        BIT9                                  #  FOR INCORPORATION   FOR INCORPORATION
000794:
000795:
000796:                                                                                                  #  BIT 8 FLAG 5  (S)
000797: 43,2000                        COMPUTER           =        082D                                  #  COMPUTER IS CMC     COMPUTER IS LGC
000798: 43,2000     5017               COMPTBIT           =        BIT8
000799:
000800:
000801:                                                                                                  #  BIT 7 FLAG 5  (S)
000802: 43,2000                        ENGONFLG           =        083D                                  #  ENGINE TURNED ON    ENGINE TURNED OFF
000803: 43,2000     5020               ENGONBIT           =        BIT7
000804:
000805:
000806:                                                                                                  #  BIT 6 FLAG 5  (S)
000807: 43,2000                        3AXISFLG           =        084D                                  #  MANEUVER SPECIFIED  MANEUVER SPECIFIED
000808:                                                                                                  #  BY THREE AXES       BY ONE AXIS; R60
000809: 43,2000     5021               3AXISBIT           =        BIT6                                  #                      CALLS VECPOINT.
000810:
000811:
000812:                                                                                                  #  BIT 5 FLAG 5
000813:                                                                                                  #                =               085D
000814:
000815:
000816:                                                                                                  #  BIT 4 FLAG 5  (S)
000817: 43,2000                        NORRMON            =        086D                                  #  BYPASS RR GIMBAL    PERFORM
000818: 43,2000     5023               NORRMBIT           =        BIT4                                  #  MONITOR             RR GIMBAL MONITOR
000819:
000820:
000821:                                                                                                  #  BIT 3 FLAG 5  (S)
000822: 43,2000                        SOLNSW             =        087D                                  #  LAMBERT DOES NOT    LAMBERT CONVERGES OR
000823:                                                                                                  #  CONVERGE,OR TIME-RADTIME-RADIUS NON
000824: 43,2000     5024               SOLNSBIT           =        BIT3                                  #  NEARLY CIRCULAR     CIRCULAR
000825:
000826:
000827:                                                                                                  #  BIT 2 FLAG 5  (S)
000828: 43,2000                        MGLVFLAG           =        088D                                  #  LOCAL VERTICAL      MIDDLE GIMBAL ANGLE
000829:                                                                                                  #  COORDINATES         COMPUTED
000830: 43,2000     5025               MGLVFBIT           =        BIT2                                  #  COMPUTED
000831:
000832:                                                                                                  #  BIT 1 FLAG 5  (S)
000833: 43,2000                        RENDWFLG           =        089D                                  #  W MATRIX VALID      W MATRIX INVALID
000834:                                                                                                  #  FOR RENDEZVOUS      FOR RENDEZVOUS
000835: 43,2000     5026               RENDWBIT           =        BIT1                                  #  NAVIGATION          NAVIGATION
000836:
000837:
000838: 43,2000     0102               FLAGWRD6           =        STATE      +6                         #  (090-104)
000839:
000840:                                                                                                  #  (SET)               (RESET)
000841:
000842:                                                                                                  #  BIT 15 FLAG 6 (S)
000843: 43,2000                        S32.1F1            =        090D                                  #  DELTA V AT CSI TIME  DVT1 LESS THEN MAX
000844: 43,2000     5010               S32BIT1            =        BIT15                                 #  ONE EXCEEDS MAX
000845:
000846:
000847:                                                                                                  #  BIT 14 FLAG 6 (S)
000848: 43,2000                        S32.1F2            =        091D                                  #  FIRST PASS OF       REITERATION OF
000849: 43,2000     5011               S32BIT2            =        BIT14                                 #  NEWTON ITERATION    NEWTON
000850:
000851:
000852:                                                                                                  #  BIT 13 FLAG 6 (S)
000853: 43,2000                        S32.1F3A           =        092D                                  #  BIT 13 AND BIT 12 FUNCTION AS AN ORDERED
000854: 43,2000     5012               S32BIT3A           =        BIT13                                 #  PAIR (13,12) INDICATING THE POSSIBLE OC-
000855:                                                                                                  #  CURRANCE OF 2NEWTON ITERATIONS FOR S32.1
000856:                                                                                                  #  IN THE PROGRAM IN THE FOLLOWING ORDER:
000857:                                                                                                  #  BIT 12 FLAG 6                                           (0,1) (I.E.BIT 13 RESET,BIT 12 SET)
000858: 43,2000                        S32.1F3B           =        093D                                  #       = FIRST NEWTON ITERATION BEING DONE
000859: 43,2000     5013               S32BIT3B           =        BIT12                                 #  (0,0)= FIRST PASS OF SECOND NEWT.ITERAT.
000860:                                                                                                  #  (1,1)= 50 FT/SEC STAGE OF SEC. NEWT.ITER
000861:
000862:                                                                                                  #  (1,0)= REMAINDER OF SECOND NEWTON ITERA.
000863:
000864:
000865:                                                                                                  #  BIT 11 FLAG 6 (S)
000866: 43,2000                        FIRSTFLG           =        094D                                  #  SUCCEEDING PASS     FIRST PASS THRU
000867: 43,2000     5014               FIRSTBIT           =        BIT11                                 #  THRU S40.9          S40.9
000868:
000869:
000870:                                                                                                  #  BIT 10 FLAG 6 (S)
000871: 43,2000                        GMBDRVSW           =        095D                                  #  TRIMGIMB OVER       TRIMGIMB NOT OVER
000872: 43,2000     5015               GMBDRBIT           =        BIT10
000873:
000874:
000875:                                                                                                  #  BIT 9 FLAG 6
000876: 43,2000                        LTCPFLG            =        096D                                  #  LAUNCH TIME         LAUNCH TIME DIRECT
000877: 43,2000     5016               LTCPFBIT           =        BIT9                                  #  CONCENTRIC FLIGHT   TRANSFER
000878:                                                                                                  #  PLAN
000879:
000880:
000881:                                                                                                  #  BIT 8 FLAG 6  (S)
000882: 43,2000                        MUNFLAG            =        097D                                  #  SERVICER CALLS      SERVICER CALLS
000883: 43,2000     5017               MUNFLBIT           =        BIT8                                  #  MUNRVG              CALCRVG
000884:
000885:
000886:                                                                                                  #  BIT 7 FLAG 6
000887:                                                                                                  #                =               098D
000888:                                                                                                  #                =               BIT7
000889:
000890:
000891:                                                                                                  #  BIT 6 FLAG 6  (L)
000892: 43,2000                        REDFLAG            =        099D                                  #  LANDING SITE        LANDING SITE
000893:                                                                                                  #  REDESIGNATION       REDESIGNATION NOT
000894: 43,2000     5021               REDFLBIT           =        BIT6                                  #  PERMITTED           PERMITTED
000895:
000896:
000897:                                                                                                  #  BIT 5 FLAG 6
000898: 43,2000                        KILLROSE           =        100D                                  #  R11 COMMANDED       R11 NOT COMMANDED
000899: 43,2000     5022               KILLRBIT           =        BIT5                                  #  TO EXIT             TO EXIT
000900:
000901:                                                                                                  #  BIT 4 FLAG 6
000902:                                                                                                  #                =               101D
000903:
000904:                                                                                                  #  BIT 3 FLAG 6  (S)
000905: 43,2000                        NTARGFLG           =        102D                                  #  ASTRONAUT DID       ASTRONAUT DID NOT
000906:                                                                                                  #  OVERWRITE DELTA     OVERWRITE DELTA
000907: 43,2000     5024               NTARGBIT           =        BIT3                                  #  VELOCITY AT TPI     VELOCITY
000908:                                                                                                  #  OR TPM (P34,35)
000909:
000910:                                                                                                  #  BIT 2 FLAG 6
000911: 43,2000                        ASCNTFLG           =        103D                                  #  ASCENT TIME HAS     ASCENT TIME HAS NOT
000912: 43,2000     5025               ASCNTBIT           =        BIT2                                  #  BEEN CALCULATED     BEEN CALCULATED
000913:
000914:                                                                                                  #  BIT 1 FLAG 6  (L)
000915: 43,2000                        ATTFLAG            =        104D                                  #  LEM ATTITUDE EXISTS NO LEM ATTITUDE
000916:                                                                                                  #  IN MOON-FIXED       AVAILABLE IN MOON-
000917: 43,2000     5026               ATTFLBIT           =        BIT1                                  #  COORDINATES         FIXED COORDINATES
000918:
000919:
000920: 43,2000     0103               FLAGWRD7           =        STATE      +7                         #  (105-119)
000921:
000922:                                                                                                  #  (SET)               (RESET)
000923:
000924:                                                                                                  #  BIT 15 FLAG 7 (S)
000925: 43,2000                        ITSWICH            =        105D                                  #  P34;TPI TIME TO BE  TPI HAS BEEN
000926: 43,2000     5010               ITSWBIT            =        BIT15                                 #  COMPUTED            COMPUTED
000927:
000928:
000929:                                                                                                  #  BIT 14 FLAG 7 (S)
000930: 43,2000                        MANUFLAG           =        106D                                  #  ATTITUDE MANEUVER   NO ATTITUDE MANEUVER
000931:                                                                                                  #  GOING DURING RR     DURING RR SEARCH
000932: 43,2000     5011               MANUFBIT           =        BIT14                                 #  SEARCH
000933:
000934:
000935:                                                                                                  #  BIT 13 FLAG 7 (S)
000936: 43,2000                        IGNFLAG            =        107D                                  #  TIG HAS ARRIVED     TIG HAS NOT ARRIVED
000937: 43,2000     5012               IGNFLBIT           =        BIT13
000938:
000939:
000940:                                                                                                  #  BIT 12 FLAG 7 (S)
000941: 43,2000                        ASTNFLAG           =        108D                                  #  ASTRONAUT HAS       ASTRONAUT HAS NOT
000942: 43,2000     5013               ASTNBIT            =        BIT12                                 #  OKAYED IGNITION     OKAYED IGNITION
000943:
000944:
000945:                                                                                                  #  BIT 11 FLAG 7 (L)
000946: 43,2000                        SWANDISP           =        109D                                  #  LANDING ANALOG      LANDING ANALOG
000947: 43,2000     5014               SWANDBIT           =        BIT11                                 #  DISPLAYS ENABLED    DISPLAYS SUPPRESSED
000948:
000949:
000950:                                                                                                  #  BIT 10 FLAG 7 (S)
000951: 43,2000                        NORMSW             =        110D                                  #  UNIT NORMAL INPUT   LAMBERT COMPUTES ITS
000952: 43,2000     5015               NORMSBIT           =        BIT10                                 #  TO LAMBERT          OWN UNIT NORMAL
000953:
000954:
000955:                                                                                                  #  BIT 9 FLAG 7  (S)
000956: 43,2000                        RVSW               =        111D                                  #  DO NOT COMPUTE      COMPUTE FINAL STATE
000957:                                                                                                  #  FINAL STATE VECTOR  VECTOR IN TIME-THETA
000958: 43,2000     5016               RVSWBIT            =        BIT9                                  #  IN TIME-THETA
000959:
000960:
000961:                                                                                                  #  BIT 8 FLAG 7  (S)
000962: 43,2000                        V45FLAG            =        112D                                  #  ASTRONAUT OVERWRITE  ASTRONAUT DOES NOT
000963:                                                                                                  #  W-MATRIX INITIAL    OVERWRITE W-MATRIX
000964: 43,2000     5017               V45FLBIT           =        BIT8                                  #  VALUES              INITIAL VALUES
000965:
000966:
000967:                                                                                                  #  BIT 7 FLAG 7  (S)
000968: 43,2000                        IDLEFLAG           =        113D                                  #  NO DV MONITOR       CONNECT DV MONITOR
000969: 43,2000     5020               IDLEFBIT           =        BIT7
000970:
000971:
000972:                                                                                                  #  BIT 6 FLAG 7  (S)
000973: 43,2000                        V37FLAG            =        114D                                  #  AVERAGEG (SERVICER) AVERAGEG (SERVICER)
000974: 43,2000     5021               V37FLBIT           =        BIT6                                  #  RUNNING             OFF
000975:
000976:
000977:                                                                                                  #  BIT 5 FLAG 7  (S)
000978: 43,2000                        AVEGFLAG           =        115D                                  #  AVERAGEG (SERVICER) AVERAGEG (SERVICER)
000979: 43,2000     5022               AVEGFBIT           =        BIT5                                  #  DESIRED             NOT DESIRED
000980:
000981:
000982:                                                                                                  #  BIT 4 FLAG 7  (S)
000983: 43,2000                        UPLOCKFL           =        116D                                  #  K-KBAR-K FAIL       NO K-KBAR-K FAIL
000984: 43,2000     5023               UPLOCBIT           =        BIT4
000985:
000986:
000987:                                                                                                  #  BIT 3 FLAG 7  (S)
000988: 43,2000                        VERIFLAG           =        117D                                  #  CHANGED WHEN V33E OCCURS AT END OF P27
000989: 43,2000     5024               VERIFBIT           =        BIT3
000990:
000991:
000992:                                                                                                  #  BIT 2 FLAG 7
000993:                                                                                                  #                =               118D
000994:                                                                                                  #                =               BIT2
000995:
000996:
000997:                                                                                                  #  BIT 1 FLAG 7  (S)
000998: 43,2000                        TFFSW              =        119D                                  #  CALCULATE TPERIGEE  CALCULATE TFF
000999: 43,2000     5026               TFFSWBIT           =        BIT1
001000:
001001:
001002: 43,2000     0104               FLAGWRD8           =        STATE      +8D                        #  (120-134)
001003:
001004:                                                                                                  #  (SET)               (RESET)
001005:
001006:                                                                                                  #  BIT 15 FLAG 8 (S)
001007:
001008: 43,2000                        RPQFLAG            =        120D                                  #  RPQ NOT COMPUTED    RPQ COMPUTED
001009:                                                                                                  #  (RPQ = VECTOR BE-
001010: 43,2000     5010               RPQFLBIT           =        BIT15                                 #  TWEEN SECONDARY BODY
001011:                                                                                                  #  AND PRIMARY BODY
001012:
001013:
001014:                                                                                                  #  BIT 14 FLAG 8
001015: 43,2000                        R32FLAG            =        121D                                  #  R32 IS RUNNING      R32 IS NOT RUNNING
001016: 43,2000     5011               R32FLBIT           =        BIT14
001017:
001018:
001019:                                                                                                  #  BIT 13 FLAG 8 (S)
001020: 43,2000                        NEWIFLG            =        122D                                  #  FIRST PASS THROUGH  SUCCEEDING ITERATION
001021: 43,2000     5012               NEWIBIT            =        BIT13                                 #  INTEGRATION         OF INTEGRATION
001022:
001023:
001024:                                                                                                  #  BIT 12 FLAG 8
001025: 43,2000                        CMOONFLG           =        123D                                  #  PERMANENT CSM STATE PERMANENT CSM STATE
001026: 43,2000     5013               CMOONBIT           =        BIT12                                 #  IN LUNAR SPHERE     IN EARTH SPHERE
001027:
001028:
001029:                                                                                                  #  BIT 11 FLAG 8
001030: 43,2000                        LMOONFLG           =        124D                                  #  PERMANENT LM STATE  PERMANENT LM STATE
001031: 43,2000     5014               LMOONBIT           =        BIT11                                 #  IN LUNAR SPHERE     IN EARTH SPHERE
001032:
001033:
001034:                                                                                                  #  BIT 10 FLAG 8 (L)
001035: 43,2000                        FLUNDISP           =        125D                                  #  CURRENT GUIDANCE    CURRENT GUIDANCE
001036: 43,2000     5015               FLUNDBIT           =        BIT10                                 #  DISPLAYS INHIBITED  DISPLAYS PERMITTED
001037:
001038:
001039:                                                                                                  #  BIT 9 FLAG 8  (L)
001040: 43,2000                        P39/79SW           =        126D                                  #  P39/79 OPERATING    P38/P78 OPERATING
001041: 43,2000     5016               P39SWBIT           =        BIT9
001042:
001043:
001044:                                                                                                  #  BIT 8 FLAG 8
001045: 43,2000                        SURFFLAG           =        127D                                  #  LM ON LUNAR SURFACE LM NOT ON LUNAR
001046: 43,2000     5017               SURFFBIT           =        BIT8                                  #                      SURFACE
001047:
001048:
001049:                                                                                                  #  BIT 7 FLAG 8  (S)
001050: 43,2000                        INFINFLG           =        128D                                  #  NO CONIC SOLUTION   CONIC SOLUTION
001051:                                                                                                  #  (CLOSURE THROUGH    EXISTS
001052: 43,2000     5020               INFINBIT           =        BIT7                                  #  INFINITY REQUIRED)
001053:
001054:
001055:                                                                                                  #  BIT 6 FLAG 8  (S)
001056: 43,2000                        ORDERSW            =        129D                                  #  ITERATOR USES 2ND   ITERATOR USES 1ST
001057: 43,2000     5021               ORDERBIT           =        BIT6                                  #  ORDER MINIMUM MODE  ORDER STANDARD MODE
001058:
001059:
001060:
001061:                                                                                                  #  BIT 5 FLAG 8  (S)
001062: 43,2000                        APSESW             =        130D                                  #  RDESIRED OUTSIDE    RDESIRED INSIDE
001063:                                                                                                  #  PERICENTER-APOCENTERPERICENTER-APOCENTER
001064: 43,2000     5022               APSESBIT           =        BIT5                                  #  RANGE IN TIME-RADI  RANGE IN TIME-RADIUS
001065:
001066:
001067:                                                                                                  #  BIT 4 FLAG 8  (S)
001068: 43,2000                        COGAFLAG           =        131D                                  #  NO CONIC SOLUTION - CONIC SOLUTION
001069:                                                                                                  #  TOO CLOSE TO RECTI- EXISTS(COGA DOES NOT
001070: 43,2000     5023               COGAFBIT           =        BIT4                                  #  LINEAR(COGA OVRFLWS) OVERFLOW)
001071:
001072:
001073:                                                                                                  #  BIT 3 FLAG 8
001074:                                                                                                  #                =               132D
001075:
001076:                                                                                                  #  BIT 2 FLAG 8
001077:                                                                                                  #                =               133D
001078:                                                                                                  #                =               BIT2
001079:
001080:
001081:                                                                                                  #  BIT 1 FLAG 8  (S)
001082: 43,2000                        360SW              =        134D                                  #  TRANSFER ANGLE NEAR TRANSFER ANGLE NOT
001083: 43,2000     5026               360SWBIT           =        BIT1                                  #  360 DEGREES         NEAR 360 DEGREES
001084:
001085:
001086: 43,2000     0105               FLAGWRD9           =        STATE      +9D                        #  (135-149)
001087:
001088:                                                                                                  #  (SET)               (RESET)
001089:
001090:
001091:                                                                                                  #  BIT 15 FLAG 9
001092: 43,2000                        ENGOFFSW           =        135D
001093: 43,2000     5010               ENGOFBIT           =        BIT15
001094:
001095:                                                                                                  #  BIT 14 FLAG 9 (L)
001096: 43,2000                        FLVR               =        136D                                  #  VERTICAL RISE       NON-VERTICAL RISE
001097: 43,2000     5011               FLVRBIT            =        BIT14                                 #  (ASCENT GUIDANCE)
001098:
001099:
001100:                                                                                                  #  BIT 13 FLAG 9
001101: 43,2000                        FLP70              =        137D                                  #  P70 HAS BEEN CALLED  P70 HAS NOT BEEN
001102: 43,2000     5012               FLP70BIT           =        BIT13                                 #                       CALLED
001103:
001104:
001105:                                                                                                  #  BIT 12 FLAG 9 (L)
001106: 43,2000                        FLPC               =        138D                                  #  NO POSITION CONTROL  POSITION CONTROL
001107: 43,2000     5013               FLPCBIT            =        BIT12                                 #  (ASCENT GUIDANCE)
001108:
001109:
001110:
001111:                                                                                                  #  BIT 11 FLAG 9 (L)
001112: 43,2000                        FLPI               =        139D                                  #  PRE-IGNITION PHASE   REGULAR GUIDANCE
001113: 43,2000     5014               FLPIBIT            =        BIT11                                 #  (ASCENT GUIDANCE)
001114:
001115:
001116:                                                                                                  #  BIT 10 FLAG 9 (L)
001117: 43,2000                        FLRCS              =        140D                                  #  RCS INJECTION MODE   MAIN ENGINE MODE
001118: 43,2000     5015               FLRCSBIT           =        BIT10                                 #  (ASCENT GUIDANCE)
001119:
001120:
001121:                                                                                                  #  BIT 9 FLAG 9  (L)
001122: 43,2000                        LETABORT           =        141D                                  #  ABORT PROGRAMS       ABORT PROGRAMS
001123: 43,2000     5016               LETABBIT           =        BIT9                                  #  ARE ENABLED          ARE NOT ENABLED
001124:
001125:
001126:                                                                                                  #  BIT 8 FLAG 9  (L)
001127: 43,2000                        FLAP               =        142D                                  #  APS CONTINUED ABORT   APS ABORT IS NOT A
001128:                                                                                                  #  AFTER DPS STAGING    CONTINUATION
001129: 43,2000     5017               FLAPBIT            =        BIT8                                  #  (ASCENT GUIDANCE)
001130:
001131:
001132:                                                                                                  #  BIT 7 FLAG 9  (L)
001133: 43,2000                        FLIC               =        143D                                  #  INITIAL COMPUTATION  NOT INITIAL COMP
001134: 43,2000     5020               FLICBIT            =        BIT7                                  #  CYCLE FOR ABORTS     CYCLE FOR ABORTS
001135:
001136:                                                                                                  #  BIT 6 FLAG 9  (L)
001137: 43,2000                        FLZONE0            =        144D                                  #  EARLY ABORT          LATE ABORT
001138: 43,2000     5021               FLZONBIT           =        BIT6                                  #  TFI . 50 SECS.       TFI > 50 SECS.
001139:                                                                                                  #  P70 --> P40
001140:                                                                                                  #  P71 --> P42
001141:
001142:                                                                                                  #  BIT 5 FLAG 9  (S)
001143: 43,2000                        QUITFLAG           =        145D                                  #  DISCONTINUE INTEGR.  CONTINUE INTEGRATION
001144: 43,2000     5022               QUITBIT            =        BIT5
001145:
001146:
001147:                                                                                                  #  BIT 4 FLAG 9
001148: 43,2000                        R31FLAG            =        146D
001149: 43,2000     5023               R31FLBIT           =        BIT4
001150:
001151:
001152:                                                                                                  #  BIT 3 FLAG 9  (L)
001153: 43,2000                        MID1FLAG           =        147D                                  #  INTEGRATE TO TDEC    INTEGRATE TO THE
001154: 43,2000     5024               MID1FBIT           =        BIT3                                  #                       THEN-PRESENT TIME
001155:
001156:
001157:                                                                                                  #  BIT 2 FLAG 9  (L)
001158: 43,2000                        MIDAVFLG           =        148D                                  #  INTEGRATION ENTERED  INTEGRATION WAS
001159:                                                                                                  #  FROM ONE OF MIDTOAV  NOT ENTERED VIA
001160: 43,2000     5025               MIDAVBIT           =        BIT2                                  #  PORTALS              MIDTOAV
001161:
001162:
001163:                                                                                                  #  BIT 1 FLAG 9  (S)
001164: 43,2000                        AVEMIDSW           =        149D                                  #  AVETOMID CALLING    NO AVETOMID W INTEGR
001165:                                                                                                  #  FOR W.MATRIX INTEGR ALLOW SET UP RM,VN.
001166: 43,2000     5026               AVEMDBIT           =        BIT1                                  #  DONT WRITE OVER RN, PIPTIME
001167:                                                                                                  #  VN,PIPTIME
001168:
001169:
001170:                                                                                                  #  GENERAL ERASABLE ASSIGNMENTS.
001171:
001172:    0061                                           SETLOC   61
001173:                                                                                                  #           INTERRUPT TEMPORARY STORAGE POOL.                              (11D)
001174:
001175:                                                                                                  #             (ITEMP1 THROUGH RUPTREG4)
001176:
001177:                                                                                                  #           ANY OF THESE MAY BE USED AS TEMPORARIES DURING INTERRUPT OR WITH INTERRUPT INHIBITED. THE ITEMP SERIES
001178:                                                                                                  #  IS USED DURING CALLS TO THE EXECUTIVE AND WAITLIST - THE RUPTREGS ARE NOT.
001179:
001180:    0061                        ITEMP1             ERASE
001181:    0062     0061               WAITEXIT           EQUALS   ITEMP1
001182:    0062     0061               EXECTEM1           EQUALS   ITEMP1
001183:
001184:    0062                        ITEMP2             ERASE
001185:    0063     0062               WAITBANK           EQUALS   ITEMP2
001186:    0063     0062               EXECTEM2           EQUALS   ITEMP2
001187:
001188:    0063                        ITEMP3             ERASE
001189:    0064     0063               RUPTSTOR           EQUALS   ITEMP3
001190:    0064     0063               WAITADR            EQUALS   ITEMP3
001191:    0064     0063               NEWPRIO            EQUALS   ITEMP3
001192:
001193:    0064                        ITEMP4             ERASE
001194:    0065     0064               LOCCTR             EQUALS   ITEMP4
001195:    0065     0064               WAITTEMP           EQUALS   ITEMP4
001196:
001197:    0065                        ITEMP5             ERASE
001198:    0066     0065               NEWLOC             EQUALS   ITEMP5
001199:
001200:    0066                        ITEMP6             ERASE
001201:                                                                                                  #  NEWLOC+1      EQUALS  ITEMP6          DP ADDRESS.
001202:
001203:    0067                                           SETLOC   67
001204:    0067                        NEWJOB             ERASE                                          #  MUST BE AT LOC 67 DUE TO WIRING.
001205:
001206:    0070                        RUPTREG1           ERASE
001207:    0071                        RUPTREG2           ERASE
001208:    0072                        RUPTREG3           ERASE
001209:    0073                        RUPTREG4           ERASE
001210:    0074     0073               KEYTEMP1           EQUALS   RUPTREG4
001211:    0074     0073               DSRUPTEM           EQUALS   RUPTREG4
001212:
001213:                                                                                                  #           FLAGWORD RESERVATIONS.                (13D)
001214:
001215:    0074                        STATE              ERASE    +12D                                  #  FLAGWORD REGISTERS.
001216:
001217:
001218:                                                                                                  #           RENDEZVOUS RADAR TASK STORAGE                                (3D)
001219:
001220:    0111                        RRRET              ERASE    +2D                                   #  B(1)TMP  P20'S, PERHAPS R29 & R12
001221:    0114     0112               RDES               EQUALS   RRRET      +1                         #  B(1)TMP
001222:    0114     0113               RRINDEX            EQUALS   RDES       +1                         #  B(1)TMP
001223:
001224:
001225:
001226:                                                                                                  #           EXEC TEMPORARIES WHICH MAY BE USED BETWEEN CCS NEWJOBS. (32D) (INTB15+ THROUGH RUPTMXTM)
001227:    0114                        INTB15+            ERASE                                          #  REFLECTS 15TH BIT OF INDEXABLE ADDRESSES
001228:    0115     0114               DSEXIT             =        INTB15+                               #  RETURN FOR DSPIN
001229:    0115     0114               EXITEM             =        INTB15+                               #  RETURN FOR SCALE FACTOR ROUTINE SELECT
001230:    0115     0114               BLANKRET           =        INTB15+                               #  RETURN FOR 2BLANK
001231:
001232:    0115                        INTBIT15           ERASE                                          #  SIMILAR TO ABOVE.
001233:    0116     0115               WRDRET             =        INTBIT15                              #  RETURN FOR 5BLANK
001234:    0116     0115               WDRET              =        INTBIT15                              #  RETURN FOR DSPWD
001235:    0116     0115               DECRET             =        INTBIT15                              #  RETURN FOR PUTCOM(DEC LOAD)
001236:    0116     0115               21/22REG           =        INTBIT15                              #  TEMP FOR CHARIN
001237:
001238:                                                                                                  #           THE REGISTERS BETWEEN ADDRWD AND PRIORITY MUST STAY IN THE FOLLOWING ORDER FOR INTERPRETIVE TRACE.
001239:
001240:    0116                        ADDRWD             ERASE                                          #  12 BIT INTERPRETIVE OPERAND SUB-ADDRESS.
001241:    0117                        POLISH             ERASE                                          #  HOLDS CADR MADE FROM POLISH ADDRESS.
001242:    0120     0117               UPDATRET           =        POLISH                                #  RETURN FOR UPDATNN, UPDATVB
001243:    0120     0117               CHAR               =        POLISH                                #  TEMP FOR CHARIN
001244:    0120     0117               ERCNT              =        POLISH                                #  COUNTER FOR ERROR LIGHT RESET
001245:    0120     0117               DECOUNT            =        POLISH                                #  COUNTER FOR SCALING AND DISPLAY (DEC)
001246:
001247:    0120                        FIXLOC             ERASE                                          #  WORK AREA ADDRESS.
001248:    0121                        OVFIND             ERASE                                          #  SET NON-ZERO ON OVERFLOW.
001249:
001250:    0122                        VBUF               ERASE    +5                                    #  TEMPORARY STORAGE USED FOR VECTORS.
001251:    0130     0122               SGNON              =        VBUF                                  #  TEMP FOR +,- ON
001252:    0130     0122               NOUNTEM            =        VBUF                                  #  COUNTER FOR MIXNOUN FETCH
001253:    0130     0122               DISTEM             =        VBUF                                  #  COUNTER FOR OCTAL DISPLAY VERBS
001254:    0130     0122               DECTEM             =        VBUF                                  #  COUNTER FOR FETCH (DEC DISPLAY VERBS)
001255:
001256:    0130     0123               SGNOFF             =        VBUF       +1                         #  TEMP FOR +,- ON
001257:    0130     0123               NVTEMP             =        VBUF       +1                         #  TEMP FOR NVSUB
001258:    0130     0123               SFTEMP1            =        VBUF       +1                         #  STORAGE FOR SF CONST HI PART(=SFTEMP2-1)
001259:    0130     0123               HITEMIN            =        VBUF       +1                         #  TEMP FOR LOAD OF HRS, MIN, SEC
001260:                                                                                                  #           MUST = LOTEMIN-1.
001261:    0130     0124               CODE               =        VBUF       +2                         #  FOR DSPIN
001262:    0130     0124               SFTEMP2            =        VBUF       +2                         #  STORAGE FOR SF CONST LO PART(=SFTEMP1+1)
001263:    0130     0124               LOTEMIN            =        VBUF       +2                         #  TEMP FOR LOAD OF HRS, MIN, SEC
001264:                                                                                                  #           MUST = HITEMIN+1.
001265:    0130     0125               MIXTEMP            =        VBUF       +3                         #  FOR MIXNOUN DATA
001266:    0130     0125               SIGNRET            =        VBUF       +3                         #  RETURN FOR +,- ON
001267:
001268:                                                                                                  #  ALSO MIXTEMP+1 = VBUF+4, MIXTEMP+2 = VBUF+5.
001269:
001270:    0130                        BUF                ERASE    +2                                    #  TEMPORARY SCALAR STORAGE.
001271:    0133                        BUF2               ERASE    +1
001272:    0135     0130               INDEXLOC           EQUALS   BUF                                   #  CONTAINS ADDRESS OF SPECIFIED INDEX.
001273:    0135     0130               SWWORD             EQUALS   BUF                                   #  ADDRESS OF SWITCH WORD.
001274:    0135     0131               SWBIT              EQUALS   BUF        +1                         #  SWITCH BIT WITHIN SWITCH WORD.
001275:    0135                        MPTEMP             ERASE                                          #  TEMPORARY USED IN MULTIPLY AND SHIFT.
001276:    0136     0135               DMPNTEMP           =        MPTEMP                                #  DMPSUB TEMPORARY
001277:    0136                        DOTINC             ERASE                                          #  COMPONENT INCREMENT FOR DOT SUBROUTINE.
001278:    0137     0136               DVSIGN             EQUALS   DOTINC                                #  DETERMINES SIGN OF DDV RESULT.
001279:    0137     0136               ESCAPE             EQUALS   DOTINC                                #  USED IN ARCSIN/ARCCOS.
001280:    0137     0136               ENTRET             =        DOTINC                                #  EXIT FROM ENTER
001281:
001282:    0137                        DOTRET             ERASE                                          #  RETURN FROM DOT SUBROUTINE.
001283:    0140     0137               DVNORMCT           EQUALS   DOTRET                                #  DIVIDEND NORMALIZATION COUNT IN DDV.
001284:    0140     0137               ESCAPE2            EQUALS   DOTRET                                #  ALTERNATE ARCSIN/ARCCOS SWITCH.
001285:    0140     0137               WDCNT              =        DOTRET                                #  CHAR COUNTER FOR DSPWD
001286:    0140     0137               INREL              =        DOTRET                                #  INPUT BUFFER SELECTOR ( X,Y,Z, REG )
001287:
001288:    0140                        MATINC             ERASE                                          #  VECTOR INCREMENT IN MXV AND VXM.
001289:    0141     0140               MAXDVSW            EQUALS   MATINC                                #  +0 IF DP QUOTIENT IS NEAR ONE - ELSE -1.
001290:    0141     0140               POLYCNT            EQUALS   MATINC                                #  POLYNOMIAL LOOP COUNTER
001291:    0141     0140               DSPMMTEM           =        MATINC                                #  DSPCOUNT SAVE FOR DSPMM
001292:    0141     0140               MIXBR              =        MATINC                                #  INDICATOR FOR MIXED OR NORMAL NOUN
001293:
001294:    0141                        TEM1               ERASE                                          #  EXEC TEMP
001295:    0142     0141               POLYRET            =        TEM1
001296:    0142     0141               DSREL              =        TEM1                                  #  REL ADDRESS FOR DSPIN
001297:
001298:    0142                        TEM2               ERASE                                          #  EXEC TEMP
001299:    0143     0142               DSMAG              =        TEM2                                  #  MAGNITUDE STORE FOR DSPIN
001300:    0143     0142               IDADDTEM           =        TEM2                                  #  MIXNOUN INDIRECT ADDRESS STORAGE
001301:
001302:    0143                        TEM3               ERASE                                          #  EXEC TEMP
001303:    0144     0143               COUNT              =        TEM3                                  #  FOR DSPIN
001304:
001305:    0144                        TEM4               ERASE                                          #  EXEC TEMP
001306:    0145     0144               LSTPTR             =        TEM4                                  #  LIST POINTER FOR GRABUSY
001307:    0145     0144               RELRET             =        TEM4                                  #  RETURN FOR RELDSP
001308:    0145     0144               FREERET            =        TEM4                                  #  RETURN FOR FREEDSP
001309:    0145     0144               DSPWDRET           =        TEM4                                  #  RETURN FOR DSPSIGN
001310:    0145     0144               SEPSCRET           =        TEM4                                  #  RETURN FOR SEPSEC
001311:    0145     0144               SEPMNRET           =        TEM4                                  #  RETURN FOR SEPMIN
001312:
001313:    0145                        TEM5               ERASE                                          #  EXEC TEMP
001314:    0146     0145               NOUNADD            =        TEM5                                  #  TEMP STORAGE FOR NOUN ADDRESS
001315:
001316:    0146                        NNADTEM            ERASE                                          #  TEMP FOR NOUN ADDRESS TABLE ENTRY
001317:    0147                        NNTYPTEM           ERASE                                          #  TEMP FOR NOUN TYPE TABLE ENTRY
001318:    0150                        IDAD1TEM           ERASE                                          #  TEMP FOR INDIR ADRESS TABLE ENTRY(MIXNN)
001319:                                                                                                  #  MUST = IDAD2TEM-1, = IDAD3TEM-2.
001320:    0151                        IDAD2TEM           ERASE                                          #  TEMP FOR INDIR ADRESS TABLE ENTRY(MIXNN)
001321:
001322:    0152                        IDAD3TEM           ERASE                                          #  TEMP FOR INDIR ADRESS TABLE ENTRY (MIXNN)
001323:                                                                                                  #  MUST = IDAD1TEM+2, = IDAD2TEM+1.
001324:    0153                        RUTMXTEM           ERASE                                          #  TEMP FOR SF ROUT TABLE ENTRY (MIXNN ONLY)
001325:
001326:                                                                                                  #           AX*SR*T STORAGE.                      (6D)
001327:    0154     0142               DEXDEX             EQUALS   TEM2                                  #  B(1)TMP
001328:    0154     0143               DEX1               EQUALS   TEM3                                  #  B(1)TMP
001329:    0154     0144               DEX2               EQUALS   TEM4                                  #  B(1)TMP
001330:    0154     0145               RTNSAVER           EQUALS   TEM5                                  #  B(1)TMP
001331:    0154     0133               TERM1TMP           EQUALS   BUF2                                  #  B(2)TMP
001332:
001333:    0154     0143               DEXI               =        DEX1
001334:
001335:                                                                                                  #           THE FOLLOWING 10 REGISTERS ARE USED FOR TEMPORARY STORAGE OF THE DERIVATIVE COEFFICIENT TABLE OF
001336:                                                                                                  #  SUBROUTINE ROOTPSRS.   THEY MUST REMAIN WITHOUT INTERFERENCE WITH ITS SUBROUTINES WHICH ARE POWRSERS (POLY),
001337:                                                                                                  #  DMPSUB, DMPNSUB, SHORTMP, DDV/BDDV, ABS, AND USPRCADR.
001338:
001339:    0154     0142               DERCOF-8           =        MPAC       -12                        #  ROOTPSRS DER COF N-4 HI ORDER
001340:    0154     0143               DERCOF-7           =        MPAC       -11                        #  ROOTPSRS DER COF N-4 LO ORDER
001341:    0154     0144               DERCOF-6           =        MPAC       -10                        #  ROOTPSRS DER COF N-3 HI ORDER
001342:    0154     0145               DERCOF-5           =        MPAC       -7                         #  ROOTPSRS DER COF N-3 LO ORDER
001343:    0154     0146               DERCOF-4           =        MPAC       -6                         #  ROOTPSRS DER COF N-2 HI ORDER
001344:    0154     0147               DERCOF-3           =        MPAC       -5                         #  ROOTPSRS DER COF N-2 LO ORDER
001345:    0154     0150               DERCOF-2           =        MPAC       -4                         #  ROOTPSRS DER COF N-1 HI ORDER
001346:    0154     0151               DERCOF-1           =        MPAC       -3                         #  ROOTPSRS DER COF N-1 LO ORDER
001347:    0154     0152               DERCOFN            =        MPAC       -2                         #  ROOTPSRS DER COF N HI ORDER
001348:    0154     0153               DERCOF+1           =        MPAC       -1                         #  ROOTPSRS DER COF N LO ORDER
001349:
001350:    0154     0117               PWRPTR             =        POLISH                                #  ROOTPSRS POWER TABLE POINTER
001351:    0154     0124               DXCRIT             =        VBUF       +2                         #  ROOTPSRS CRITERION FOR ENDING ITERS HI
001352:    0154     0125               DXCRIT+1           =        VBUF       +3                         #  ROOTPSRS CRITERION FOR ENDING ITERS LO
001353:    0154     0126               ROOTPS             =        VBUF       +4                         #  ROOTPSRS ROOT HI ORDER
001354:    0154     0127               ROOTPS+1           =        VBUF       +5                         #  ROOTPSRS ROOT LO ORDER
001355:    0154     0132               RETROOT            =        BUF        +2                         #  ROOTPSRS RETURN ADDRESS OF USER
001356:    0154     0140               PWRCNT             =        MATINC                                #  ROOTPSRS DER TABLE LOOP COUNTER
001357:    0154     0141               DERPTR             =        TEM1                                  #  ROOTPSRS DER TABLE POINTER
001358:
001359:                                                                                                  #           DYNAMICALLY ALLOCATED CORE SETS FOR JOBS.                    (84D)
001360:
001361:    0154                        MPAC               ERASE    +6                                    #  MULTI-PURPOSE ACCUMULATOR.
001362:    0163                        MODE               ERASE                                          #  +1 FOR TP, +0 FOR DP, OR -1 FOR VECTOR.
001363:    0164                        LOC                ERASE                                          #  LOCATION ASSOCIATED WITH JOB.
001364:    0165                        BANKSET            ERASE                                          #  USUALLY CONTAINS BBANK SETTING.
001365:    0166                        PUSHLOC            ERASE                                          #  WORD OF PACKED INTERPRETIVE PARAMETERS.
001366:    0167                        PRIORITY           ERASE                                          #  PRIORITY OF PRESENT JOB AND WORK AREA.
001367:
001368:    0170                                           ERASE    +71D                                  #  SEVEN SETS OF 12 REGISTERS EACH.
001369:
001370:                                                                                                  #  P27  (UPDATE PROGRAM ) STORAGE.                                       (26D)
001371:
001372:    0300                        UPVERBSV           ERASE                                          #  B(1) UPDATE VERB ATTEMPTED.
001373:    0301                        UPTEMP             ERASE    +24D                                  #  B(1)TMP SCRATCH
001374:    0332     0301               INTWAK1Q           EQUALS   UPTEMP                                #      (BORROWS UPTEMP REGISTERS)
001375:                                                                                                  #  RETAIN THE ORDER OF COMPNUMB THRU UPBUFF +19D FOR DOWNLINK PURPOSES.
001376:    0332     0302               COMPNUMB           EQUALS   UPTEMP     +1                         #  B(1)TMP NUMBER OF ITEMS TO BE UPLINKED
001377:    0332     0303               UPOLDMOD           EQUALS   COMPNUMB   +1                         #  B(1)TMP INTERRUPTED PROGRAM MM
001378:    0332     0304               UPVERB             EQUALS   UPOLDMOD   +1                         #  B(1)TMP VERB NUMBER
001379:    0332     0305               UPCOUNT            EQUALS   UPVERB     +1                         #  B(1)TMP UPBUFF INDEX
001380:    0332     0306               UPBUFF             EQUALS   UPCOUNT    +1                         #  B(20D)
001381:
001382:
001383:                                                                                                  #           DOWNLINK STORAGE.                                            (28D)
001384:
001385:    0332     0332               DNLSTADR           EQUALS   DNLSTCOD
001386:
001387:    0332                        DNLSTCOD           ERASE                                          #  B(1)PRM DOWNLIINK LIST CODE
001388:    0333                        DUMPCNT            ERASE                                          #  B(1)
001389:    0334                        LDATALST           ERASE    +25D                                  #  (26D)
001390:    0366     0335               DNTMGOTO           EQUALS   LDATALST   +1                         #  B(1)
001391:    0366     0336               TMINDEX            EQUALS   DNTMGOTO   +1                         #  B(1)
001392:    0366     0336               DUMPLOC            EQUALS   TMINDEX                               #  CONTAINS ECADR OF AGC DP WORD BEING DUMP
001393:                                                                                                  #  ED AND COUNT OF COMPLETE DUMPS ALREADY S
001394:                                                                                                  #  ENT.
001395:    0366     0337               DNQ                EQUALS   TMINDEX    +1                         #  B(1)
001396:    0366     0340               DNTMBUFF           EQUALS   DNQ        +1                         #  B(22)PRM DOWNLINK SNAPSHOT BUFFER
001397:
001398:                                                                                                  #           UNSWITCHED FOR DISPLAY INTERFACE ROUTINES.                   (10D) FIVE MORE IN EBANK 2
001399:
001400:    0366                        RESTREG            ERASE                                          #  B(1)PRM FOR DISPLAY RESTARTS
001401:    0367                        NVWORD             ERASE
001402:    0370                        MARKNV             ERASE
001403:    0371                        NVSAVE             ERASE
001404:                                                                                                  #                  (RETAIN THE ORDER OF CADRFLSH TO FAILREG +2 FOR DOWNLINK PURPOSES)
001405:    0372                        CADRFLSH           ERASE
001406:    0373                        CADRMARK           ERASE
001407:    0374                        TEMPFLSH           ERASE
001408:    0375                        FAILREG            ERASE    +2                                    #  B(3)PRM 3 ALARM CODE REGISTERS
001409:
001410:
001411:                                                                                                  #           VAC AREAS. -BE CAREFUL OF PLACEMENT-                         (220D)
001412:
001413:    0400                        VAC1USE            ERASE
001414:    0401                        VAC1               ERASE    +42D
001415:    0454                        VAC2USE            ERASE
001416:    0455                        VAC2               ERASE    +42D
001417:    0530                        VAC3USE            ERASE
001418:    0531                        VAC3               ERASE    +42D
001419:    0604                        VAC4USE            ERASE
001420:    0605                        VAC4               ERASE    +42D
001421:    0660                        VAC5USE            ERASE
001422:    0661                        VAC5               ERASE    +42D
001423:
001424:                                                                                                  #           WAITLIST REPEAT FLAG.                                        (1D)
001425:
001426:    0734                        RUPTAGN            ERASE
001427:    0735     0734               KEYTEMP2           =        RUPTAGN                               #  TEMP FOR KEYRUPT, UPRUPT
001428:
001429:
001430:
001431:                                                                                                  #           STARALIGN ERASABLES.                                         (13D)
001432:
001433:    0735                        STARCODE           ERASE                                          #  (1)
001434:    0736     0735               AOTCODE            =        STARCODE
001435:    0736                        STARALGN           ERASE    +11D
001436:    0752     0736               SINCDU             =        STARALGN
001437:    0752     0744               COSCDU             =        STARALGN   +6
001438:
001439:    0752     0742               SINCDUX            =        SINCDU     +4
001440:    0752     0736               SINCDUY            =        SINCDU
001441:    0752     0740               SINCDUZ            =        SINCDU     +2
001442:    0752     0750               COSCDUX            =        COSCDU     +4
001443:    0752     0744               COSCDUY            =        COSCDU
001444:    0752     0746               COSCDUZ            =        COSCDU     +2
001445:
001446:
001447:                                                                                                  #           PHASE TABLE AND RESTART COUNTERS.                            (12D)
001448:
001449:    0752                        -PHASE1            ERASE
001450:    0753                        PHASE1             ERASE
001451:    0754                        -PHASE2            ERASE
001452:    0755                        PHASE2             ERASE
001453:    0756                        -PHASE3            ERASE
001454:    0757                        PHASE3             ERASE
001455:    0760                        -PHASE4            ERASE
001456:    0761                        PHASE4             ERASE
001457:    0762                        -PHASE5            ERASE
001458:    0763                        PHASE5             ERASE
001459:    0764                        -PHASE6            ERASE
001460:    0765                        PHASE6             ERASE
001461:
001462:                                                                                                  #           A**SR*T STORAGE.                                             (6D)
001463:
001464:    0766                        CDUSPOT            ERASE    +5                                    #  B(6)
001465:
001466:    0774     0766               CDUSPOTY           =        CDUSPOT
001467:    0774     0770               CDUSPOTZ           =        CDUSPOT    +2
001468:    0774     0772               CDUSPOTX           =        CDUSPOT    +4
001469:
001470:                                                                                                  #  INTSTALL-ERASTALL FLAG    (1D)
001471:    0774                        RASFLAG            ERASE
001472:
001473:                                                                                                  #           VERB 37 STORAGE.                                             (2D)
001474:
001475:    0775                        MINDEX             ERASE                                          #  B(1)TMP INDEX FOR MAJOR MODE
001476:    0776                        MMNUMBER           ERASE                                          #  B(1)TMP MAJOR MODE REQUESTED BY V37
001477:
001478:                                                                                                  #  PINBALL INTERRUPT ACTION.                                             (1D)
001479:
001480:    0777                        DSPCNT             ERASE                                          #  B(1)PRM COUNTER FOR DSPOUT.
001481:
001482:                                                                                                  #  PINBALL EXECUTIVE ACTION                                              (44D)
001483:
001484:    1000                        DSPCOUNT           ERASE                                          #  DISPLAY POSITION INDICATOR.
001485:    1001                        DECBRNCH           ERASE                                          #  +DEC, -DEC, OCT INDICATOR
001486:    1002                        VERBREG            ERASE                                          #  VERB CODE
001487:    1003                        NOUNREG            ERASE                                          #  NOUN CODE
001488:    1004                        XREG               ERASE                                          #  R1 INPUT BUFFER
001489:    1005                        YREG               ERASE                                          #  R2 INPUT BUFFER
001490:    1006                        ZREG               ERASE                                          #  R3 INPUT BUFFER
001491:    1007                        XREGLP             ERASE                                          #  LO PART OF XREG (FOR DEC CONV ONLY)
001492:    1010                        YREGLP             ERASE                                          #  LO PART OF YREG (FOR DEC CONV ONLY)
001493:    1011     1010               HITEMOUT           =        YREGLP                                #  TEMP FOR DISPLAY OF HRS, MIN, SEC
001494:                                                                                                  #           MUST = LOTEMOUT-1.
001495:    1011                        ZREGLP             ERASE                                          #  LO PART OF ZREG (FOR DEC CONV ONLY)
001496:    1012     1011               LOTEMOUT           =        ZREGLP                                #  TEMP FOR DISPLAY OF HRS, MIN, SEC
001497:                                                                                                  #           MUST = HITEMOUT+1.
001498:    1012                        MODREG             ERASE                                          #  MODE CODE
001499:
001500:    1013                        DSPLOCK            ERASE                                          #  KEYBOARD/SUBROUTINE CALL INTERLOCK
001501:    1014                        REQRET             ERASE                                          #  RETURN REGISTER FOR LOAD
001502:    1015                        LOADSTAT           ERASE                                          #  STATUS INDICATOR FOR LOADTST
001503:    1016                        CLPASS             ERASE                                          #  PASS INDICATOR CLEAR
001504:    1017                        NOUT               ERASE                                          #  ACTIVITY COUNTER FOR DSPTAB
001505:    1020                        NOUNCADR           ERASE                                          #  MACHINE CADR FOR NOUN
001506:    1021                        MONSAVE            ERASE                                          #  N/V CODE FOR MONITOR. (= MONSAVE1-1)
001507:    1022                        MONSAVE1           ERASE                                          #  NOUNCADR FOR MONITOR(MATBS) =MONSAVE +1
001508:    1023                        MONSAVE2           ERASE                                          #  NVMONOPT OPTIONS
001509:    1024                        DSPTAB             ERASE    +11D                                  #  0-10D, DISPLAY PANEL BUFF. 11D, C/S LTS.
001510:    1040                        NVQTEM             ERASE                                          #  NVSUB STORAGE FOR CALLING ADDRESS
001511:                                                                                                  #  MUST = NVBNKTEM-1
001512:    1041                        NVBNKTEM           ERASE                                          #  NVSUB STORAGE FOR CALLING BANK
001513:                                                                                                  #  MUST = NVQTEM+1
001514:    1042                        VERBSAVE           ERASE                                          #  NEEDED FOR RECYCLE
001515:    1043                        CADRSTOR           ERASE                                          #  ENDIDLE STORAGE
001516:    1044                        DSPLIST            ERASE                                          #  WAITING REG FOR DSP SYST INTERNAL USE
001517:    1045                        EXTVBACT           ERASE                                          #  EXTENDED VERB ACTIVITY INTERLOCK
001518:    1046                        DSPTEM1            ERASE    +2                                    #  BUFFER STORAGE AREA 1 (MOSTLY FOR TIME)
001519:    1051                        DSPTEM2            ERASE    +2                                    #  BUFFER STORAGE AREA 2 (MOSTLY FOR DEG)
001520:
001521:    1054     1052               DSPTEMX            EQUALS   DSPTEM2    +1                         #  B(2) S-S DISPLAY BUFFER FOR EXT. VERBS
001522:    1054     1046               NORMTEM1           EQUALS   DSPTEM1                               #  B(3)DSP NORMAL DISPLAY REGISTERS.
001523:
001524:
001525:                                                                                                  #  INCORP STORAGE: R22 (N29)    (SHARES WITH PREVIOUS SECTION)         (4D)
001526:
001527:    1054     1046               R22DISP            EQUALS   DSPTEM1                               #  I(4) N49 DISPLAY OF DELTA R AND DELTA V
001528:
001529:
001530:                                                                                                  #           TBASES AND PHSPRDT S.                                        (12D)
001531:
001532:    1054                        TBASE1             ERASE
001533:    1055                        PHSPRDT1           ERASE
001534:    1056                        TBASE2             ERASE
001535:    1057                        PHSPRDT2           ERASE
001536:    1060                        TBASE3             ERASE
001537:    1061                        PHSPRDT3           ERASE
001538:    1062                        TBASE4             ERASE
001539:    1063                        PHSPRDT4           ERASE
001540:    1064                        TBASE5             ERASE
001541:    1065                        PHSPRDT5           ERASE
001542:    1066                        TBASE6             ERASE
001543:    1067                        PHSPRDT6           ERASE
001544:
001545:                                                                                                  #           UNSWITCHED FOR DISPLAY INTERFACE ROUTINES.                   (6D)
001546:
001547:    1070                        EBANKSAV           ERASE
001548:    1071                        MARKEBAN           ERASE
001549:    1072                        EBANKTEM           ERASE
001550:    1073                        MARK2PAC           ERASE
001551:    1074                        R1SAVE             ERASE
001552:
001553:
001554:                                                                                                  #           IMU COMPENSATION UNSWITCHED ERASABLE.                        (1D)
001555:
001556:    1075                        1/PIPADT           ERASE
001557:
001558:
001559:                                                                                                  #           SINGLE PRECISION SUBROUTINE TEMPORARIES.                     (2D)
001560:
001561:                                                                                                  #                                                               SPSIN, SPCOS, SPROOT VARIABLES.
001562:                                                                                                  #                                                               DO NOT SHARE. THESE ARE USED BY DAPS IN INTERRUPT
001563:                                                                                                  #                                                               AND CURRENTLY ARE NOT PROTECTED. IF OTHER USERS
001564:                                                                                                  #                                                               MATERIALIZE, THEN THIS CAN BE CHANGED.
001565:
001566:    1076                        HALFY              ERASE
001567:    1077                        ROOTRET            ERASE
001568:    1100                        SQRARG             ERASE
001569:    1101     1076               TEMK               EQUALS   HALFY
001570:    1101     1077               SQ                 EQUALS   ROOTRET
001571:
001572:
001573:                                                                                                  #           UNSWITCHED RADAR ERASABLE                                    (13D)
001574:
001575:    1101                        RADMODES           ERASE
001576:    1102                        DAPBOOLS           ERASE
001577:    1103                        SAMPLIM            ERASE
001578:    1104                        SAMPLSUM           ERASE    +1
001579:    1106                        OPTYHOLD           ERASE    +1
001580:    1110                        TIMEHOLD           ERASE    +1
001581:    1112     1104               RRTARGET           EQUALS   SAMPLSUM                              #  HALF U IT VECTOR IN SM OR NB AXES.
001582:    1112                        TANG               ERASE    +1                                    #  DESIRE TRUNNION AND SHAFT ANGLES.
001583:    1114     1112               MODEA              EQUALS   TANG
001584:    1114                        MODEB              ERASE    +1                                    #  DODES LOBBERS TANG +2.
001585:    1116     1114               NSAMP              EQUALS   MODEB
001586:    1116                        DESRET             ERASE
001587:    1117     1116               OLDATAGD           EQUALS   DESRET                                #  USED I  DATA READING ROUTINES.
001588:    1117                        DESCOUNT           ERASE
001589:
001590:                                                                                                  #           ******   P22   ******                                        (6D)
001591:
001592:    1120     1104               RSUBC              EQUALS   RRTARGET                              #  I(6)S-S  CSM POSITION VECTOR
001593:
001594:                                                                                                  #           UNSWITCHED FOR ORBIT INTEGRATION.                            (21D)
001595:
001596:    1120                        TDEC               ERASE    +20D                                  #  I(2)
001597:    1145     1122               COLREG             EQUALS   TDEC       +2                         #  I(1)
001598:    1145     1123               LAT                EQUALS   COLREG     +1                         #  I(2)
001599:    1145     1125               LONG               EQUALS   LAT        +2                         #  I(2)
001600:    1145     1127               ALT                EQUALS   LONG       +2                         #  I(2)
001601:    1145     1131               YV                 EQUALS   ALT        +2                         #  I(6)
001602:    1145     1137               ZV                 EQUALS   YV         +6                         #  I(6)
001603:
001604:
001605:                                                                                                  #           MISCELLANEOUS UNSWITCHED.                                    (20D)
001606:
001607:    1145                        UNUSED2            ERASE    +5
001608:
001609:    1153                        P40/RET            ERASE                                          #  (WILL BE PUT IN E6 WHEN THERE IS ROOM)
001610:    1154                        GENRET             ERASE                                          #  B(1)  R61 RETURN CADR.
001611:    1155                        OPTION1            ERASE                                          #  B(1)   NOUN 06 USES THIS
001612:    1156                        OPTION2            ERASE                                          #  B(1)   NOUN 06 USES THIS
001613:    1157                        OPTION3            ERASE                                          #  B(1)  NOUN 06 USES THIS
001614:    1160                        LONGCADR           ERASE    +1                                    #  B(2)  LONGCALL REGISTER
001615:    1162                        LONGBASE           ERASE    +1
001616:    1164                        LONGTIME           ERASE    +1                                    #  B(2)    LONGCALL REGISTER
001617:    1166                        NVWORD1            ERASE
001618:    1167                        CDUTEMPX           ERASE                                          #  B(1)TMP
001619:    1170                        CDUTEMPY           ERASE                                          #  B(1)TMP
001620:    1171                        CDUTEMPZ           ERASE                                          #  B(1)TMP
001621:    1172                        PIPATMPX           ERASE                                          #  B(1)TMP
001622:    1173                        PIPATMPY           ERASE                                          #  B(1)TMP
001623:    1174                        PIPATMPZ           ERASE                                          #  B(1)TMP
001624:
001625:    1175                        DISPDEX            ERASE                                          #  B(1)
001626:    1176                        TEMPR60            ERASE                                          #  B(1)
001627:    1177                        PRIOTIME           ERASE                                          #  B(1)
001628:
001629:    1200                        UNUSED5            ERASE
001630:
001631:
001632:                                                                                                  #  STANDBY VERB ERASABLES.  REDOCTR BEFORE THETADS.                      (14D)
001633:
001634:    1201                        TIME2SAV           ERASE    +1
001635:    1203                        SCALSAVE           ERASE    +1
001636:    1205                        REDOCTR            ERASE                                          #  CONTAINS NUMBER OF RESTARTS
001637:    1206                        THETAD             ERASE    +2
001638:    1211     1206               CPHI               =        THETAD                                #  O   DESIRED GIMBAL ANGLES
001639:    1211     1207               CTHETA             =        THETAD     +1                         #  I   FOR
001640:    1211     1210               CPSI               =        THETAD     +2                         #  M   MANEUVER.
001641:    1211                        DELV               ERASE    +5
001642:    1217     1211               DELVX              =        DELV
001643:    1217     1213               DELVY              =        DELV       +2
001644:    1217     1215               DELVZ              =        DELV       +4
001645:
001646:
001647:                                                                                                  #           SPECIAL DEFINITION FOR SYSTEM TEST ERASABLE PGMS.            (2D)
001648:
001649:    1217     0301               EBUF2              EQUALS   UPTEMP                                #  B(2) FOR EXCLUSIVE USE OF SYSTEM TEST
001650:
001651:
001652:                                                                                                  #           PERM STATE VECTORS FOR BOOST AND DOWNLINK-WHOLE MISSION-     (14D)
001653:
001654:    1217                        RN                 ERASE    +5                                    #  B(6)PRM
001655:    1225                        VN                 ERASE    +5                                    #  B(6)PRM
001656:    1233                        PIPTIME            ERASE    +1                                    #  B(2)PRM  (MUST BE FOLLOWED BY GDT/2)
001657:
001658:
001659:                                                                                                  #           SERVICER   -MUST FOLLOW PIPTIME-                             (22D)
001660:
001661:    1235                        GDT/2              ERASE    +22D                                  #  B(6)TMP (MUST FOLLOW PIPTIME)
001662:    1264     1243               MASS               EQUALS   GDT/2      +6                         #  B(2)
001663:    1264     1243               WEIGHT/G           =        MASS
001664:    1264     1245               ABDELV             EQUALS   MASS       +2                         #  ALCMANU STORAGE)
001665:    1264     1247               /AF/               EQUALS   ABDELV     +2                         #  (6)
001666:    1264     1251               DVTHRSH1           EQUALS   /AF/       +2                         #  (1)
001667:    1264     1201               DVTHRUSH           =        TIME2SAV
001668:    1264     1202               AUXFLAG            =        DVTHRUSH   +1
001669:    1264     1252               AVEGEXIT           EQUALS   DVTHRSH1   +1                         #   (2)
001670:    1264     1252               AVGEXIT            =        AVEGEXIT
001671:    1264     1254               TEMX               EQUALS   AVEGEXIT   +2                         #   (1)
001672:    1264     1255               TEMY               EQUALS   TEMX       +1                         #   (1)
001673:    1264     1256               TEMZ               EQUALS   TEMY       +1                         #   (1)
001674:    1264     1257               PIPCTR             EQUALS   TEMZ       +1                         #  B(1)
001675:    1264     1260               STOPDVC            EQUALS   PIPCTR     +1                         #  B(1)
001676:    1264     1261               PIPAGE             EQUALS   STOPDVC    +1                         #  B(1)
001677:    1264     1262               OUTROUTE           EQUALS   PIPAGE     +1                         #  B(1)
001678:    1264     1263               LRSTAT             EQUALS   OUTROUTE   +1                         #  B(1)
001679:
001680:
001681:
001682:                                                                                                  #           PERMANENT LEM DAP STORAGE.                                   (12D)
001683:
001684:    1264                        CH5MASK            ERASE                                          #  B(1)PRM
001685:    1265                        CH6MASK            ERASE                                          #  B(1)PRM JET FAILURE MASK.
001686:    1266                        DTHETASM           ERASE    +5                                    #   (6)
001687:    1274                        SPNDX              ERASE                                          #  B(1)
001688:    1275                        RCSFLAGS           ERASE                                          #  AUTOPILOT FLAG WORD
001689:                                                                                                  #  BIT ASSIGNMENTS:
001690:                                                                                                  #   1) ALTERYZ SWITCH  (ZEROOR1)
001691:                                                                                                  #   2) NEEDLER SWITCH
001692:                                                                                                  #   3) NEEDLER SWITCH
001693:                                                                                                  #   4) NEEDLER SWITCH
001694:                                                                                                  #   5) NEEDLER SWITCH
001695:                                                                                                  #   9) JUST-IN-DETENT SWITCH
001696:                                                                                                  #  10) PBIT - MANUAL CONTROL SWITCH
001697:                                                                                                  #  11) QRBIT - MANUAL CONTROL SWITCH
001698:                                                                                                  #  12) PSKIP CONTROL (PJUMPADR)
001699:                                                                                                  #  13) 1/ACCJOB CONTROL (ACCSET)
001700:    1276                        T5ADR              ERASE    +1                                    #  GENADR OF NEXT LM DAP T5RUPT. * 2CADR *
001701:                                                                                                  #  BBCON  OF NEXT LM DAP T5RUPT.   2CADR
001702:
001703:
001704:                                                                                                  #           RCS FAILURE MONITOR STORAGE.                                  (1)
001705:
001706:    1300                        PVALVEST           ERASE                                          #  B(1)PRM
001707:
001708:
001709:                                                                                                  #           KALCMANU/DAP INTERFACE.                                      (3D)
001710:
001711:    1301                        DELPEROR           ERASE                                          #  B(1)PRM COMMAND LAGS.
001712:    1302                        DELQEROR           ERASE                                          #  B(1)PRM
001713:    1303                        DELREROR           ERASE                                          #  B(1)PRM
001714:
001715:
001716:                                                                                                  #           MODE SWITCHING ERASABLE.                                     (9D)
001717:
001718:                                                                                                  #      RETAIN THE ORDER OF IMODES30 AND IMODES33 FOR DOWNLINK PURPOSES.
001719:    1304                        IMODES30           ERASE                                          #  B(1)
001720:    1305                        IMODES33           ERASE
001721:    1306                        MODECADR           ERASE    +2                                    #  B(3)PRM
001722:    1311     1306               IMUCADR            EQUALS   MODECADR
001723:    1311     1307               OPTCADR            EQUALS   MODECADR   +1
001724:    1311     1310               RADCADR            EQUALS   MODECADR   +2
001725:    1311                        ATTCADR            ERASE    +2                                    #  B(3)PRM
001726:    1314     1313               ATTPRIO            =        ATTCADR    +2
001727:    1314                        MARKSTAT           ERASE
001728:
001729:                                                                                                  #           T4RUPT ERASABLE.                                             (2D)
001730:
001731:    1315                        DSRUPTSW           ERASE
001732:    1316                        DIDFLG             ERASE                                          #  (1)
001733:    1317                        FINALT             ERASE    +1                                    #  (MAY NOT BE REQUIRED FOR FLIGHTS).
001734:    1321                        LGYRO              ERASE                                          #  (1)
001735:
001736:                                                                                                  #           P25 RADAR STORAGE.                                           (2D)
001737:
001738:    1322                        LASTYCMD           ERASE    +1                                    #  B(1)PRM  THESE ARE CALLED BY T4RUPT
001739:    1324     1323               LASTXCMD           EQUALS   LASTYCMD   +1                         #  B(1)PRM  THEY MUST BE CONTIGUOUS,Y FIRST
001740:
001741:
001742:
001743:                                                                                                  #           MEASINC                                                      (4D)
001744:
001745:    1324                        WIXA               ERASE                                          #  B(1)
001746:    1325                        WIXB               ERASE                                          #  B(1)
001747:    1326                        ZIXA               ERASE                                          #  B(1)
001748:    1327                        ZIXB               ERASE                                          #  B(1)
001749:
001750:                                                                                                  #           AGS DUMMY ID WORD.                                           (1D)
001751:
001752:    1330                        AGSWORD            ERASE
001753:
001754:                                                                                                  #           SOME MISCELLANEOUS UNSWITCHED.                               (6D)
001755:
001756:
001757:    1331                        RATEINDX           ERASE                                          #   (1)    USED BY KALCMANU
001758:    1332                        DELAYLOC           ERASE    +2
001759:    1335                        LEMMASS            ERASE                                          #  KEEP CONTIGUOUS W.  CSMMASS  (1)EACH
001760:    1336                        CSMMASS            ERASE
001761:
001762:                                                                                                  #  LESS IS MORE.
001763:
001764:                                                                                                  #           RENDEZVOUS AND LANDING RADAR DOWNLINK STORAGE.               (7D)
001765:
001766:                                                                                                  #                  (NORMALLY USED DURING P20, BUT MAY ALSO)
001767:                                                                                                  #                  (BE REQUIRED FOR THE V62 SPURIOUS TEST.)
001768:
001769:                                                                                                  #                                  (PLEASE KEEP IN THIS ORDER)
001770:
001771:    1337                        DNRRANGE           ERASE    +6                                    #  B(1) TMP
001772:    1346     1340               DNRRDOT            EQUALS   DNRRANGE   +1                         #  B(1)TMP
001773:    1346     1341               DNINDEX            EQUALS   DNRRDOT    +1                         #  B(1)TMP
001774:    1346     1342               DNLRVELX           EQUALS   DNINDEX    +1                         #  B(1)TMP
001775:    1346     1343               DNLRVELY           EQUALS   DNLRVELX   +1                         #  B(1)TMP
001776:    1346     1344               DNLRVELZ           EQUALS   DNLRVELY   +1                         #  B(1)TMP
001777:    1346     1345               DNLRALT            EQUALS   DNLRVELZ   +1                         #  B(1) TMP
001778:
001779:                                                                                                  #           INCORPORATION UNSWITCHED.                                    (1D)
001780:
001781:    1346     1257               W.IND              EQUALS   PIPCTR                                #  B(1)
001782:
001783:
001784:                                                                                                  #           SUBROUTINE BALLANGS OF R60.                                  (1D)
001785:
001786:    1346                        BALLEXIT           ERASE                                          #  B(1)SAVE LOCATION FOR BALLINGS SUBR EXIT
001787:
001788:                                                                                                  #           CRS61.1 STORAGE. -USED IN R63 (VERB 89)-                       (5D)
001789:
001790:    1347                        CPHIX              ERASE    +2                                    #  B(3)DSP NOUN 96 CALCULATED BY CRS61.1
001791:
001792:
001793:                                                                                                  #           NOUN 87                                                      (2D)
001794:
001795:    1352     1347               AZ                 EQUALS   CPHIX                                 #  B(1)  AZ AND EL MUST BE CONTIGUOUS
001796:    1352     1350               EL                 EQUALS   AZ         +1D                        #  B(1)
001797:
001798:
001799:
001800:                                                                                                  #           NOUN 29                                                      (1D)
001801:    1352                        LRFLAGS            ERASE
001802:
001803:
001804:                                                                                                  #           SOME LEM DAP STORAGE.                         (4D)
001805:
001806:    1353                        DAPDATR1           ERASE                                          #  B(1)DSP DAP CONFIG.
001807:    1354                        TEVENT             ERASE    +1                                    #  B(2)DSP
001808:    1356                        DB                 ERASE                                          #  B(1)TMP DEAD BAND.
001809:
001810:
001811:    1357                        END-UE             EQUALS                                         #  NEXT UNUSED UE ADDRESS
001812:
001813:
001814:                                                                                                  #           SELF-CHECK ASSIGNMENTS.                                      (17D)
001815:
001816:                                                                                                  #                                  (DO NOT MOVE, S-C IS ADDRESS SENSITIVE)
001817:
001818:    1357                        SELFERAS           ERASE    1357       -          1377            #  *** MUST NOT BE MOVED ***
001819:    1357     1357               SFAIL              EQUALS   SELFERAS                              #  B(1)
001820:    1357     1360               ERESTORE           EQUALS   SFAIL      +1                         #  B(1)
001821:    1357     1361               SELFRET            EQUALS   ERESTORE   +1                         #  B(1)    RETURN
001822:    1357     1362               SMODE              EQUALS   SELFRET    +1                         #  B(1)
001823:    1357     1363               ALMCADR            EQUALS   SMODE      +1                         #  B(2)   ALARM-ABORT USER'S 2CADR
001824:    1357     1365               ERCOUNT            EQUALS   ALMCADR    +2                         #  B(1)
001825:    1357     1366               SCOUNT             EQUALS   ERCOUNT    +1                         #  B(3)
001826:    1357     1371               SKEEP1             EQUALS   SCOUNT     +3                         #  B(1)
001827:    1357     1372               SKEEP2             EQUALS   SKEEP1     +1                         #  B(1)
001828:    1357     1373               SKEEP3             EQUALS   SKEEP2     +1                         #  B(1)
001829:    1357     1374               SKEEP4             EQUALS   SKEEP3     +1                         #  B(1)
001830:    1357     1375               SKEEP5             EQUALS   SKEEP4     +1                         #  B(1)
001831:    1357     1376               SKEEP6             EQUALS   SKEEP5     +1                         #  B(1)
001832:    1357     1377               SKEEP7             EQUALS   SKEEP6     +1                         #  B(1)
001833:
001834:                                                                                                  #                  EBANK-3 ASSIGNMENTS
001835:
001836: E3,1400                                           SETLOC   1400
001837:
001838:                                                                                                  #           WAITLIST TASK LISTS.                                         (26D)
001839:
001840: E3,1400                        LST1               ERASE    +7                                    #  B(8D)PRM DELTA T S.
001841: E3,1410                        LST2               ERASE    +17D                                  #  B(18D)PRM TASK 2CADR ADDRESSES.
001842:
001843:
001844:                                                                                                  #           RESTART STORAGE.                                             (2D)
001845:
001846: E3,1432                        RSBBQ              ERASE    +1                                    #  B(2)PRM SAVE BB AND Q FOR RESTARTS.
001847:
001848:                                                                                                  #           MORE LONGCALL STORAGE.(MUST BE IN LST1 S BANK.               (2D)
001849:
001850: E3,1434                        LONGEXIT           ERASE    +1                                    #  B(2)TMP MAY BE SELDOM OVERLAYED.
001851:
001852:
001853:                                                                                                  #           PHASE-CHANGE LISTS PART II.                                  (12D)
001854:
001855: E3,1436                        PHSNAME1           ERASE                                          #  B(1)PRM
001856: E3,1437                        PHSBB1             ERASE                                          #  B(1)PRM
001857: E3,1440                        PHSNAME2           ERASE                                          #  B(1)PRM
001858: E3,1441                        PHSBB2             ERASE                                          #  B(1)PRM
001859: E3,1442                        PHSNAME3           ERASE                                          #  B(1)PRM
001860: E3,1443                        PHSBB3             ERASE                                          #  B(1)PRM
001861: E3,1444                        PHSNAME4           ERASE                                          #  B(1)PRM
001862: E3,1445                        PHSBB4             ERASE                                          #  B(1)PRM
001863: E3,1446                        PHSNAME5           ERASE                                          #  B(1)PRM
001864: E3,1447                        PHSBB5             ERASE                                          #  B(1)PRM
001865: E3,1450                        PHSNAME6           ERASE                                          #  B(1)PRM
001866: E3,1451                        PHSBB6             ERASE                                          #  B(1)PRM
001867:
001868:
001869:                                                                                                  #           IMU COMPENSATION PARAMETERS.                                 (22D)
001870:
001871: E3,1452                        PBIASX             ERASE                                          #  B(1)   PIPA BIAS, PIPA SCALE FACTR TERMS
001872: E3,1453  E3,1452               PIPABIAS           =        PBIASX                                #      INTERMIXED.
001873: E3,1453                        PIPASCFX           ERASE
001874: E3,1454  E3,1453               PIPASCF            =        PIPASCFX
001875: E3,1454                        PBIASY             ERASE
001876: E3,1455                        PIPASCFY           ERASE
001877: E3,1456                        PBIASZ             ERASE
001878: E3,1457                        PIPASCFZ           ERASE
001879:
001880: E3,1460                        NBDX               ERASE                                          #  GYRO BIAS DRIFTS
001881: E3,1461  E3,1460               GBIASX             =        NBDX
001882: E3,1461                        NBDY               ERASE
001883: E3,1462                        NBDZ               ERASE
001884:
001885: E3,1463                        ADIAX              ERASE                                          #  ACCELERATION SENSITIVE DRIFT ALONG THE
001886: E3,1464                        ADIAY              ERASE                                          #      INPUT AXIS
001887: E3,1465                        ADIAZ              ERASE
001888:
001889: E3,1466                        ADSRAX             ERASE                                          #  ACCELERATION SENSITIVE DRIFT ALONG THE
001890: E3,1467                        ADSRAY             ERASE                                          #      SPIN REFERENCE AXIS
001891: E3,1470                        ADSRAZ             ERASE
001892:
001893: E3,1471                        GCOMP              ERASE    +5                                    #  CONTAINS COMPENSATING TORQUES
001894:
001895: E3,1477  E3,1471               COMMAND            EQUALS   GCOMP
001896: E3,1477  E3,1474               CDUIND             EQUALS   GCOMP      +3
001897:
001898:
001899: E3,1477                        GCOMPSW            ERASE
001900:
001901:                                                                                                  #           STATE VECTORS FOR ORBIT INTEGRATION.                         (44D)
001902:
001903:                                                                                                  #                                  (DIFEQCNT THRU XKEP MUST BE IN SAME
001904:                                                                                                  #                                    EBANK AS RRECTCSM, RRECTLEM ETC
001905:                                                                                                  #                                    BECAUSE THE COPY-CYCLES (ATOPCSM,
001906:                                                                                                  #                                    PTOACSM ETC) ARE EXECUTED IN BASIC.
001907:                                                                                                  #                                      ALL OTHER REFERENCES TO THIS GROUP
001908:                                                                                                  #                                    ARE BY INTERPRETIVE INSTRUCTIONS.)
001909:
001910: E3,1500                        DIFEQCNT           ERASE    +43D                                  #  B(1)
001911:                                                                                                  #                                  (UPSVFLAG...XKEP MUST BE KEPT IN ORDER)
001912:
001913: E3,1554  E3,1501               UPSVFLAG           EQUALS   DIFEQCNT   +1                         #  B(1)
001914: E3,1554  E3,1502               RRECT              EQUALS   UPSVFLAG   +1                         #  B(6)
001915: E3,1554  E3,1510               VRECT              EQUALS   RRECT      +6                         #  B(6)
001916: E3,1554  E3,1516               TET                EQUALS   VRECT      +6                         #  B(2)
001917: E3,1554  E3,1520               TDELTAV            EQUALS   TET        +2                         #  B(6)
001918: E3,1554  E3,1526               TNUV               EQUALS   TDELTAV    +6                         #  B(6)
001919: E3,1554  E3,1534               RCV                EQUALS   TNUV       +6                         #  B(6)
001920: E3,1554  E3,1542               VCV                EQUALS   RCV        +6                         #  B(6)
001921: E3,1554  E3,1550               TC                 EQUALS   VCV        +6                         #  B(2)
001922: E3,1554  E3,1552               XKEP               EQUALS   TC         +2                         #  B(2)
001923:
001924:                                                                                                  #           PERMANENT STATE VECTORS AND TIMES.                           (99D)
001925:
001926:                                                                                                  #           (DO NOT OVERLAY WITH ANYTHING AFTER BOOST)
001927:
001928:                                                                                                  #           (RRECTCSM ...XKEPCSM MUST BE KEPT IN THIS ORDER)
001929:
001930: E3,1554                        RRECTCSM           ERASE    +5                                    #  B(6)PRM CSM VARIABLES.
001931: E3,1562  E3,1554               RRECTOTH           =        RRECTCSM
001932: E3,1562                        VRECTCSM           ERASE    +5                                    #  B(6)PRM
001933:
001934: E3,1570                        TETCSM             ERASE    +1                                    #  B(2)PRM
001935: E3,1572  E3,1570               TETOTHER           =        TETCSM
001936: E3,1572                        DELTACSM           ERASE    +5                                    #  B(6)PRM
001937: E3,1600                        NUVCSM             ERASE    +5                                    #  B(6)PRM
001938: E3,1606                        RCVCSM             ERASE    +5                                    #  B(6)PRM
001939: E3,1614                        VCVCSM             ERASE    +5                                    #  B(6)PRM
001940: E3,1622                        TCCSM              ERASE    +1                                    #  B(2)PRM
001941: E3,1624                        XKEPCSM            ERASE    +1                                    #  B(2)PRM
001942:
001943:                                                                                                  #           (RRECTLEM ...XKEPLEM MUST BE KEPT IN THIS ORDER)
001944:
001945: E3,1626                        RRECTLEM           ERASE    +5                                    #  B(6)PRM LEM VARIABLES
001946: E3,1634  E3,1626               RRECTHIS           =        RRECTLEM
001947: E3,1634                        VRECTLEM           ERASE    +5                                    #  B(6)PRM
001948: E3,1642                        TETLEM             ERASE    +1                                    #  B(2)PRM
001949: E3,1644  E3,1642               TETTHIS            =        TETLEM
001950: E3,1644                        DELTALEM           ERASE    +5                                    #  B(6)PRM
001951: E3,1652                        NUVLEM             ERASE    +5                                    #  B(6)PRM
001952: E3,1660                        RCVLEM             ERASE    +5                                    #  B(6)PRM
001953: E3,1666                        VCVLEM             ERASE    +5                                    #  B(6)PRM
001954: E3,1674                        TCLEM              ERASE    +1                                    #  B(2)PRM
001955: E3,1676                        XKEPLEM            ERASE    +1                                    #  B(2)PRM
001956:
001957: E3,1700                        X789               ERASE    +5
001958: E3,1706                        TEPHEM             ERASE    +2
001959: E3,1711                        AZO                ERASE    +1
001960: E3,1713                        UNITW              ERASE    +5
001961: E3,1721  E3,1713               -AYO               EQUALS   UNITW                                 #   (2)
001962: E3,1721  E3,1715               AXO                EQUALS   UNITW      +2                         #   (2)
001963:
001964:
001965:
001966:                                                                                                  #           STATE VECTORS FOR DOWNLINK.                                  (12D)
001967:
001968: E3,1721                        R-OTHER            ERASE    +5                                    #  B(6)PRM POS VECT (OTHER VECH) FOR DNLINK
001969: E3,1727                        V-OTHER            ERASE    +5                                    #  B(6)PRM VEL VECT (OTHER VECH) FOR DNLINK
001970:
001971: E3,1735  E3,1570               T-OTHER            =        TETCSM                                #              TIME (OTHER VECH) FOR DNLINK
001972:
001973:                                                                                                  #           REFSMMAT.                                                    (18D)
001974:
001975: E3,1735                        REFSMMAT           ERASE    +17D                                  #  I(18D)PRM
001976:
001977:                                                                                                  #           UNIT R.
001978: E3,1757                        UNITR              ERASE    +7D
001979:
001980:
001981:                                                                                                  #           ACTIVE VEHICLE CENTANG.  MUST BE DISPLAYED ANYTIME (ALMOST.)  (2D)
001982:
001983: E3,1767                        ACTCENT            ERASE    +1                                    #  I(2) S-S CENTRAL ANGLE BETWEEN ACTIVE
001984:                                                                                                  #   VEHICLE AT TPI TIG AND TARGET VECTOR.
001985:
001986:                                                                                                  #           **** USED IN CONICSEX (PLAN INERT ORIENT) ****
001987:
001988: E3,1771  E3,1706               TIMSUBO            EQUALS   TEPHEM                                #  CSEC B-42 (TRIPLE PRECISION)
001989:
001990:
001991:                                                                                                  #       ***** P22  *****  (OVERLAYS LPS 20.1 STORAGE)                    (6D)
001992: E3,1771  E7,1434               VSUBC              EQUALS   LOSVEL                                #  I(6) S-S  CSM VELOCITY VECTOR
001993:
001994:
001995:                                                                                                  #           INITVEL STORAGE. ALSO USED BY P34,35,74,75,10,11 OTHERS      (8D)
001996:
001997: E3,1771                        RTARG              ERASE    +5                                    #  I(6) TARGET VECTOR
001998:
001999:
002000: E3,1777                        END-E3             EQUALS                                         #  NEXT UNUSED E3 ADDRESS
002001:
002002:                                                                                                  #                  EBANK-4 ASSIGNMENTS
002003:
002004: E4,1400                                           SETLOC   2000
002005:
002006:                                                                                                  #  E4 IS, FOR THE MOST PART RESERVED FOR PAD LOADED AND UNSHARABLE ERASE.
002007:
002008: E4,1400                        AMEMORY            EQUALS
002009:
002010:                                                                                                  #           P20 STORAGE. -PAD LOADED-                                    (6D)
002011:
002012: E4,1400                        WRENDPOS           ERASE                                          #  B(1)PL                          KM*2(-7)
002013: E4,1401                        WRENDVEL           ERASE                                          #  B(1)PL                    KM(-1/2)*2(11)
002014: E4,1402                        WSHAFT             ERASE                                          #  B(1)PL                          KM*2(-7)
002015: E4,1403                        WTRUN              ERASE                                          #  B(1)PL                          KM*2(-7)
002016: E4,1404                        RMAX               ERASE                                          #  B(1)PL                     METERS*2(-19)
002017: E4,1405                        VMAX               ERASE                                          #  B(1)PL                      M/CSEC*2(-7)
002018:
002019:                                                                                                  #           P22 STORAGE. -PAD LOADED-                                    (2D)
002020:
002021: E4,1406                        SHAFTVAR           ERASE                                          #  B(1)PL                      RAD SQ*2(12)
002022: E4,1407                        TRUNVAR            ERASE                                          #  B(1)PL                      RAD SQ*2(10)
002023:
002024:
002025:                                                                                                  #           CONISEX STORAGE.-PAD LOADED-                                 (6D)
002026:
002027: E4,1410                        504LM              ERASE    +5                                    #  I(6)MOON LIBRATION VECTOR
002028:
002029:                                                                                                  #           V47(R47) AGS INITIALIZATION STORAGE. -PAD LOADED-            (2D)
002030:
002031: E4,1416                        AGSK               ERASE    +1
002032:
002033:
002034:                                                                                                  #           LUNAR LANDING STORAGE. -PAD LOADED-                          (6D)
002035:
002036: E4,1420                        TLAND              ERASE    +1                                    #  I(2)  NOMINAL TIME OF LANDING
002037: E4,1422                        /LAND/             ERASE    +1                                    #  B(2) LUNAR RADIUS AT LANDING SITE
002038: E4,1424                        RLS                ERASE    +5                                    #  I(6) LANDING SITE VECTOR -MOON REF
002039:
002040:
002041:                                                                                                  #           INTEGRATION STORAGE.                                         (102D)
002042:
002043: E4,1432                        PBODY              ERASE    +101D                                 #  I(1)
002044:
002045: E4,1600  E4,1433               ALPHAV             EQUALS   PBODY      +1                         #  I(6)
002046: E4,1600  E4,1441               BETAV              EQUALS   ALPHAV     +6                         #  I(6)
002047: E4,1600  E4,1447               PHIV               EQUALS   BETAV      +6                         #  I(6)
002048: E4,1600  E4,1455               PSIV               EQUALS   PHIV       +6                         #  I(6)
002049: E4,1600  E4,1463               FV                 EQUALS   PSIV       +6                         #  I(6)    PERTURBING ACCELERATIONS
002050: E4,1600  E4,1471               ALPHAM             EQUALS   FV         +6                         #  I(2)
002051: E4,1600  E4,1473               BETAM              EQUALS   ALPHAM     +2                         #  I(2)
002052: E4,1600  E4,1475               TAU.               EQUALS   BETAM      +2                         #  I(2)
002053: E4,1600  E4,1477               DT/2               EQUALS   TAU.       +2                         #  I(2)
002054: E4,1600  E4,1501               H                  EQUALS   DT/2       +2                         #  I(2)
002055: E4,1600  E4,1503               GMODE              EQUALS   H          +2                         #  I(1)
002056: E4,1600  E4,1504               IRETURN            EQUALS   GMODE      +1                         #  I(1)
002057: E4,1600  E4,1505               NORMGAM            EQUALS   IRETURN    +1                         #  I(1)
002058: E4,1600  E4,1506               RPQV               EQUALS   NORMGAM    +1
002059: E4,1600  E4,1514               ORIGEX             EQUALS   RPQV       +6                         #  I(1)
002060: E4,1600  E4,1514               KEPRTN             EQUALS   ORIGEX                                #  I(1)
002061: E4,1600  E4,1515               RQVV               EQUALS   ORIGEX     +1                         #  I(6)
002062: E4,1600  E4,1523               RPSV               EQUALS   RQVV       +6                         #  I(6)
002063: E4,1600  E4,1531               XKEPNEW            EQUALS   RPSV       +6                         #  I(2)
002064: E4,1600  E4,1533               VECTAB             EQUALS   XKEPNEW    +2                         #  I(36D)
002065: E4,1600  E4,1576               VECTABND           EQUALS   VECTAB     +35D                       #  END MARK
002066:
002067:
002068:
002069:                                                                                                  #           THESE PROBABLY CAN SHARE MID-COURSE VARIABLES.               (6D)
002070:
002071: E4,1600  E4,1541               VACX               EQUALS   VECTAB     +6                         #  I(2)
002072: E4,1600  E4,1543               VACY               EQUALS   VACX       +2                         #  I(2)
002073: E4,1600  E4,1545               VACZ               EQUALS   VACY       +2                         #  I(2)
002074:
002075:                                                                                                  #           SERVICER STORAGE  (USED BY ALL POWERED FLIGHT PROGS.)        (18D)
002076:
002077: E4,1600  E4,1547               XNBPIP             EQUALS   VECTAB     +12D                       #  I(6)
002078: E4,1600  E4,1555               YNBPIP             EQUALS   XNBPIP     +6                         #  I(6)
002079: E4,1600  E4,1563               ZNBPIP             EQUALS   YNBPIP     +6                         #  I(6)
002080:
002081:
002082:                                                                                                  #           SOME VERB 82 STORAGE                                         (4D)
002083:
002084: E4,1600  E4,1521               HAPOX              EQUALS   RQVV       +4                         #  I(2)
002085: E4,1600  E4,1523               HPERX              EQUALS   HAPOX      +2                         #  I(2)
002086:
002087:
002088:                                                                                                  #           V82 STORAGE                                                  (6D)
002089:
002090: E4,1600  E4,1571               VONE'              EQUALS   VECTAB     +30D                       #  I(6)TMP  NORMAL VELOCITY VONE /SQRT. MU
002091:
002092:                                                                                                  #           R31(V83) STORAGE. -SHARES WITH INTEGRATION STORAGE-          (28D)
002093:
002094: E4,1600  E4,1506               BASETHV            EQUALS   RPQV                                  #  I(6)     BASE VEL VECTOR THIS VEH
002095:
002096:
002097: E4,1600  E4,1515               BASETIME           EQUALS   RQVV                                  #  I(2)     TIME ASSOC WITH BASE VECS
002098: E4,1600  E4,1517               ORIG               EQUALS   RQVV       +2                         #  I(1)     =0 FOR EARTH =2 FOR MOON
002099: E4,1600  E4,1520               STATEXIT           EQUALS   RQVV       +3                         #  I(1)     STQ ADDRESS FOR STATEXTP
002100: E4,1600  E4,1521               BASEOTV            EQUALS   RQVV       +4                         #  I(6)     BASE VEL VECTOR OTHER VEH
002101:
002102:
002103: E4,1600  E4,1541               BASEOTP            EQUALS   VECTAB     +6                         #  I(6)     BASE POS VECTOR OTHER VEH
002104:
002105:
002106: E4,1600  E4,1571               BASETHP            EQUALS   VECTAB     +30D                       #  I(6)     BASE POS VECTOR THIS VEH
002107:
002108:
002109:
002110:                                                                                                  #           KEPLER STORAGE. (KEPLER IS CALLED BY PRECISION INTEGRATION AND (6D)
002111:                                                                                                  #           CONICS)
002112:
002113: E4,1600                        XMODULO            ERASE    +5                                    #  I(2)
002114: E4,1606  E4,1602               TMODULO            EQUALS   XMODULO    +2                         #  I(2)
002115: E4,1606  E4,1604               EPSILONT           EQUALS   TMODULO    +2                         #  I(2)
002116:
002117:
002118:                                                                                                  #           VERB 83 STORAGE.                                             (18D)
002119:
002120: E4,1606                        RANGE              ERASE    +17D                                  #  I(2)DSP NOUN 54 DISTANCE TO OPTICAL SUBJ
002121: E4,1630  E4,1610               RRATE              EQUALS   RANGE      +2                         #  I(2)DSP NOUN 54 RATE OF APPROACH.
002122: E4,1630  E4,1612               RTHETA             EQUALS   RRATE      +2                         #  I(2)DSP NOUN 54.
002123: E4,1630  E4,1614               RONE               EQUALS   RTHETA     +2                         #  I(6)TMP VECTOR STORAGE.  (SCRATCH)
002124: E4,1630  E4,1622               VONE               EQUALS   RONE       +6                         #  I(6)TMP VECTOR STORAGE.  (SCRATCH)
002125:
002126:
002127: E4,1630  E4,1606               WWPOS              =        RANGE                                 #  NOUN 99 (V45)
002128: E4,1630  E4,1610               WWVEL              =        RRATE                                 #  NOUN 99 (V45)
002129:                                                                                                  #           V82 STORAGE. (CANNOT OVERLAY RONE OR VONE)                   (11D) TWO SEPARATE LOCATIONS
002130:
002131: E4,1630  E4,1541               V82FLAGS           EQUALS   VECTAB     +6                         #   (1) FOR V82 BITS.
002132: E4,1630  E4,1542               TFF                EQUALS   V82FLAGS   +1                         #  I(2)
002133: E4,1630  E4,1544               -TPER              EQUALS   TFF        +2                         #  I(2)
002134:
002135:
002136: E4,1630  E4,1606               HPERMIN            EQUALS   RANGE                                 #  I(2) SET TO 300KFT OR 35KFT FOR SR30.1
002137: E4,1630  E4,1610               RPADTEM            EQUALS   HPERMIN    +2                         #  I(2) PAD OR LANDING RADIUS FOR SR30.1
002138: E4,1630  E4,1612               TSTART82           EQUALS   RPADTEM    +2                         #  I(2) TEMP TIME STORAGE FOR V82.
002139:
002140:
002141:
002142:                                                                                                  #           VARIOUS DISPLAY REGISTERS                                    (6D)     NOUN 84; P76
002143:
002144: E4,1630                        DELVOV             ERASE    +5D                                   #  (6)
002145:
002146:
002147:                                                                                                  #           ALIGNMENT PLANETARY-INERTIAL TRANSFORMATION STORAGE.         (18D)
002148:
002149:                                                                                                  #                  UNSHARED WHILE LM ON LUNAR SURFACE.
002150:
002151: E4,1636                        GSAV               ERASE    +17D                                  #  I(6)
002152: E4,1660  E4,1644               YNBSAV             EQUALS   GSAV       +6                         #  I(6)
002153: E4,1660  E4,1652               ZNBSAV             EQUALS   YNBSAV     +6                         #  I(6)
002154: E4,1660  E4,1660               STARVSAV           EQUALS   ZNBSAV     +6                         #  I(6)
002155:
002156:
002157:
002158:                                                                                                  #           KALCMANU STORAGE. CAN OVERLAY GSAV.                          (18D)
002159:
002160: E4,1660  E4,1636               MFS                EQUALS   GSAV                                  #  I(18)
002161: E4,1660  E4,1636               MFI                EQUALS   MFS                                   #  I
002162: E4,1660  E4,1636               KEL                EQUALS   MFS                                   #  I(18)
002163: E4,1660  E4,1636               E01                EQUALS   MFS                                   #  I(6)
002164: E4,1660  E4,1644               E02                EQUALS   E01        +6                         #  I(6)
002165:
002166:                                                                                                  #           LR VEL BEAM VECTORS.                                         (26D)
002167:
002168:                                                                                                  #           CAN OVERLAY GSAV WITH CARE, USED DURING POWERED DESCENT ONLY.
002169:
002170: E4,1660  E4,1636               VZBEAMNB           EQUALS   GSAV                                  #  I(6) LR VELOCITY BEAMS IN NB COORDS.
002171: E4,1660  E4,1644               VYBEAMNB           EQUALS   VZBEAMNB   +6                         #  I(6)
002172: E4,1660  E4,1652               VXBEAMNB           EQUALS   VYBEAMNB   +6                         #  I(6) PRESERVE Z,Y,X ORDER.
002173:
002174:
002175: E4,1660  E4,1660               LRVTIME            =        VXBEAMNB   +6                         #  B(2)     LR
002176: E4,1660  E4,1662               LRXCDU             =        LRVTIME    +2                         #  B(1)     LR
002177: E4,1660  E4,1663               LRYCDU             =        LRXCDU     +1                         #  B(1)     LR
002178: E4,1660  E4,1664               LRZCDU             =        LRYCDU     +1                         #  B(1)     LR
002179: E4,1660  E4,1665               PIPTEM             =        LRZCDU     +1                         #  B(3)     LR
002180:
002181:
002182:                                                                                                  #           P32-P35, P72-P75 STORAGE.                                    (40D)
002183:
002184: E4,1660                        T1TOT2             ERASE    +1                                    #   (2)     TIME FROM CSI TO CDH
002185: E4,1662                        T2TOT3             ERASE    +1                                    #   (2)
002186: E4,1664                        ELEV               ERASE    +1                                    #   (2)
002187: E4,1666                        DELVLVC            ERASE    +5                                    #  I(6) DELTA VELOCITY - LOCAL VERTICAL COO
002188: E4,1674  E4,1666               DELVSLV            =        DELVLVC                               #  (TEMP STORAGE OF SAME VECTOR)   -RDINATE
002189: E4,1674                        UP1                ERASE    +5                                    #   (6)
002190: E4,1702                        DELVEET1           ERASE    +5                                    #  I(6)     DV CSI IN REF
002191: E4,1710                        DELVEET2           ERASE    +5                                    #  I(6)     DV CSH IN REF
002192: E4,1716                        RACT1              ERASE    +5                                    #   (6)     POS VEC OF ACTIVE AT CSI TIME
002193: E4,1724                        RACT2              ERASE    +5                                    #   (6)     POS VEC OF ACTIVE AT CDH TIME
002194: E4,1732                        RTX1               ERASE                                          #  I(1) X1  -2 FOR EARTH, -10 FOR MOON
002195: E4,1733                        RTX2               ERASE                                          #  I(1) X2 FOR SHIFT-EARTH 0, MOON 2
002196: E4,1734                        RTSR1/MU           ERASE    +1                                    #  (2)      SQ ROOT 1/MU STORAGE
002197: E4,1736                        RTMU               ERASE    +1                                    #  (2)      MU STORAGE
002198:
002199:
002200:
002201:                                                                                                  #           (THE FOLLOWING ERASABLES OVERLAY PORTIONS OF THE PREVIOUS SECTION)
002202:
002203: E4,1740  E4,1660               +MGA               EQUALS   T1TOT2                                #   (2) S-S + MID GIM ANGL TO DELVEET3
002204:
002205:
002206: E4,1740  E4,1674               UNRM               EQUALS   UP1                                   #  I(6) S-S
002207:
002208:
002209: E4,1740  E4,1716               DVLOS              EQUALS   RACT1                                 #  I(6) S-S DELTA VELOCITY,LOS COORD-DISPLA
002210: E4,1740  E4,1724               ULOS               EQUALS   RACT2                                 #  I(6) S-S UNIT LINE OF SIGHT VECTOR
002211:
002212:
002213: E4,1740  E4,1734               NOMTPI             EQUALS   RTSR1/MU                              #  (2) S-S NOMINAL TPI TIME FOR RECYCLE
002214:
002215:
002216:                                                                                                  #           SOME P30 STORAGE.                                            (4D)
002217:
002218: E4,1740  E4,1660               HAPO               EQUALS   T1TOT2                                #  I(2)
002219: E4,1740  E4,1662               HPER               EQUALS   HAPO       +2                         #  I(2)
002220:
002221:
002222:
002223:                                                                                                  #           SOME P38-P39,P78-79 STORAGE.                                 (6D)
002224:
002225: E4,1740  E4,1716               DELTAR             EQUALS   DVLOS                                 #  I(2)
002226: E4,1740  E4,1720               DELTTIME           EQUALS   DELTAR     +2                         #  I(2) TIME REPRESENTATION OF DELTAR
002227: E4,1740  E4,1722               TARGTIME           EQUALS   DELTTIME   +2                         #  I(2) TINT MINUS DELTTIME
002228:
002229: E4,1740  E4,1716               TINTSOI            EQUALS   DELTAR                                #  I(2) TIME OF INTERCEPT FOR SOI PHASE
002230:
002231:
002232:
002233:                                                                                                  #           THE FOLLOWING ARE ERASABLE LOADS DURING A PERFORMANCE TEST.
002234:
002235: E4,1740  E4,1400               TRANSM1            =        WRENDPOS                              #  E4,1400
002236: E4,1740  E4,1422               ALFDK              =        /LAND/
002237:
002238:
002239:                                                                                                  #  ******* THE FOLLOWING SECTIONS OVERLAY V83 AND DISPLAY STORAGE *******
002240:
002241:
002242:                                                                                                  #           V47(R47)AGS INITIALIZATION PROGRAM STORAGE. (OVERLAYS V83)   (14D)
002243:
002244: E4,1740  E4,1606               AGSBUFF            EQUALS   RANGE                                 #  B(14D)
002245: E4,1740  E4,1623               AGSBUFFE           EQUALS   AGSBUFF    +13D                       #  ENDMARK
002246:
002247:
002248:                                                                                                  #           R36 OUT-OF-PLANE RENDEZVOUS DISPLAY STORAGE. (OVERLAYS V83)  (12D)
002249:
002250: E4,1740  E4,1614               RPASS36            EQUALS   RONE                                  #  I(6) S-S
002251: E4,1740  E4,1622               UNP36              EQUALS   RPASS36    +6                         #  I(6) S-S
002252:
002253:
002254:                                                                                                  #           S-BAND ANTENNA GIMBAL ANGLES. DISPLAYED BY R05(V64).(OVERLAYS V83) (10D)
002255:                                                                                                  #                 (OPERATES DURING P00 ONLY)
002256:
002257: E4,1740  E4,1606               ALPHASB            EQUALS   RANGE                                 #  B(2)DSP NOUN 51.  PITCH ANGLE.
002258: E4,1740  E4,1610               BETASB             EQUALS   ALPHASB    +2                         #  B(2)DSP NOUN 51.  YAW ANGLE.
002259: E4,1740  E4,1612               RLM                EQUALS   BETASB     +2                         #  I(6)S S/C POSITION VECTOR.
002260:
002261:                                                                                                  #           **** USED IN S-BAND ANTENNA FOR LM ****
002262:
002263: E4,1740  E4,1610               YAWANG             EQUALS   BETASB
002264: E4,1740  E4,1606               PITCHANG           EQUALS   ALPHASB
002265:
002266:
002267:                                                                                                  #           NOUN 56 DATA - COMPUTED AND DISPLAYED BY VERB 85.            (4)
002268:
002269: E4,1740  E4,1606               RR-AZ              EQUALS   PITCHANG                              #  I(2) ANGLE BETWEEN LOS AND X-Z PLANE.
002270: E4,1740  E4,1610               RR-ELEV            EQUALS   RR-AZ      +2                         #  I(2) ANGLE BETWEEN LOS AND Y-Z PLANE.
002271:
002272:                                                                                                  #           R04(V62) RADAR TEST STORAGE.                         (8D)
002273:                                                                                                  #           R04 IS RESTRICTED TO P00.
002274:
002275: E4,1740  E4,1606               RSTACK             EQUALS   RANGE                                 #  B(8) BUFFER FOR R04 NOUNS.
002276:
002277:
002278:
002279:                                                                                                  #           INITVEL STORAGE.  ALSO USED BY P31,P34,P35,P74,P75,P10,P11,MIDGIM,S40.1 AND S40.9. (18D)
002280:
002281:                                                                                                  #                   (POSSIBLY RINIT & VINIT CAN OVERLAY DELVEET1 & 2 ABOVE)
002282:
002283: E4,1740                        RINIT              ERASE    +5                                    #  I(6) ACTIVE VEHICLE POSITION
002284: E4,1746                        VINIT              ERASE    +5                                    #  I(6) ACTIVE VEHICLE VELOCITY
002285: E4,1754                        DELLT4             ERASE    +1                                    #  I(2) TIME DIFFERENCE
002286: E4,1756                        VIPRIME            ERASE    +5                                    #  I(6) NEW VEL REQUIRED AT INITIAL RADIUS.
002287:
002288:                                                                                                  #           PADLOADED ERASABLES FOR P20/P22                              (6D)
002289:
002290: E4,1764                        RANGEVAR           ERASE    +1                                    #  I(2) RR RANGE ERROR VARIANCE
002291: E4,1766                        RATEVAR            ERASE    +1                                    #  I(2) RR RANGE-RATE ERROR VARIANCE
002292: E4,1770                        RVARMIN            ERASE    +2                                    #  I(3) MINIMUM RANGE ERROR VARIANCE
002293: E4,1773                        VVARMIN            ERASE    +1                                    #  I(2) MINIMUM RANGE-RATE ERROR VARIANCE
002294:
002295:
002296:
002297:                                                                                                  #           SOME R04(V62)-R77 RADAR TEST STORAGE                         (6D)
002298:
002299: E4,1775  E4,1521               RTSTDEX            EQUALS   HAPOX                                 #  (1)
002300: E4,1775  E4,1522               RTSTMAX            =        RTSTDEX    +1                         #  (1)
002301: E4,1775  E4,1523               RTSTBASE           =        RTSTMAX    +1                         #  (1)
002302: E4,1775  E4,1524               RTSTLOC            =        RTSTBASE   +1                         #  (1)
002303: E4,1775  E4,1524               RSTKLOC            =        RTSTLOC
002304: E4,1775  E4,1525               RSAMPDT            =        RTSTLOC    +1                         #  (1)
002305: E4,1775  E4,1526               RFAILCNT           =        RSAMPDT    +1                         #  (1)
002306:
002307:
002308:                                                                                                  #          LPS20.1 STORAGE
002309:
002310:                                                                                                  #  (12D)
002311:
002312:
002313: E4,1775     1104               LMPOS              EQUALS   SAMPLSUM                              #  I(6)TEMP.  STORAGE FOR LM POS. VECTOR.
002314: E4,1775  E7,1434               LMVEL              EQUALS   LOSVEL                                #  I(6)TEMP.  STORAGE FOR LM VEL. VECTOR.
002315:
002316:
002317: E4,1775                        END-E4             EQUALS                                         #  FIRST UNUSED LOCATION IN E4
002318:
002319:                                                                                                  #           EBANK-5 ASSIGNMENTS
002320:
002321: E5,1400                                           SETLOC   2400
002322:
002323:                                                                                                  #           W-MATRIX. ESSENTIALLY UNSHARABLE.            (162D)
002324:
002325: E5,1400                        W                  ERASE    +161D
002326: E5,1642  E5,1642               ENDW               EQUALS   W          +162D
002327:
002328:
002329:
002330:                                                                                                  #  *******  OVERLAY NUMBER 1 IN EBANK 5  *******
002331:
002332:                                                                                                  #           SOME VARIABLES FOR SECOND DPS GUIDANCE                       (34D)
002333:
002334: E5,1642  E5,1400               CG                 =        W                                     #  I(18D) GUIDANCE
002335: E5,1642  E5,1422               RANGEDSP           =        CG         +18D                       #  B(2)     DISPLAY
002336: E5,1642  E5,1424               DELTAH             =        RANGEDSP   +2                         #  B(2)    DISPLAY
002337: E5,1642  E5,1426               OUTOFPLN           =        DELTAH     +2                         #  B(2)    DISPLAY
002338:
002339:                                                                                                  #           ALIGNMENT/SYSTEST/CALCSMSC COMMON STORAGE.                   (36D)
002340:
002341: E5,1642  E5,1642               XSM                EQUALS   ENDW                                  #  B(6)
002342: E5,1642  E5,1650               YSM                EQUALS   XSM        +6                         #  B(6)
002343: E5,1642  E5,1656               ZSM                EQUALS   YSM        +6                         #  B(6)
002344:
002345: E5,1642  E5,1664               XDC                EQUALS   ZSM        +6                         #  B(6)
002346: E5,1642  E5,1672               YDC                EQUALS   XDC        +6                         #  B(6)
002347: E5,1642  E5,1700               ZDC                EQUALS   YDC        +6                         #  B(6)
002348:
002349: E5,1642  E5,1664               XNB                =        XDC
002350: E5,1642  E5,1672               YNB                =        YDC
002351: E5,1642  E5,1700               ZNB                =        ZDC
002352:
002353:                                                                                                  #           OVERLAYS WITHIN ALIGNMENT/SYSTEST/CALCSMSC COMMON STORAGE.   (4D)
002354:
002355: E5,1642  E5,1644               -COSB              EQUALS   XSM        +2                         #  (2)TMP
002356: E5,1642  E5,1646               SINB               EQUALS   -COSB      +2                         #  (2)TMP
002357:
002358:                                                                                                  #           ALIGNMENT/SYSTEST COMMON STORAGE.                    (31D)
002359:
002360: E5,1642  E5,1706               STARAD             EQUALS   ZDC        +6                         #  I(18D)TMP
002361: E5,1642  E5,1730               STAR               EQUALS   STARAD     +18D                       #  I(6)
002362: E5,1642  E5,1736               GCTR               EQUALS   STAR       +6                         #  B(1)
002363: E5,1642  E5,1737               OGC                EQUALS   GCTR       +1                         #  I(2)
002364: E5,1642  E5,1741               IGC                EQUALS   OGC        +2                         #  I(2)
002365: E5,1642  E5,1743               MGC                EQUALS   IGC        +2                         #  I(2)
002366:
002367:                                                                                                  #           P57 ALIGNMENT (OVERLAY OF ALIGNMENT/SYSTEST COMMON STORAGE)  (12D)
002368:
002369: E5,1642  E5,1706               GACC               =        STARAD                                #   (6) SS
002370: E5,1642  E5,1714               GOUT               =        STARAD     +6                         #   (6) SS
002371:
002372:
002373:                                                                                                  #           OVERLAYS WITHIN ALIGNMENT/SYSTEST COMMON STORAGE             (24D)
002374:
002375: E5,1642  E5,1706               VEARTH             EQUALS   STARAD                                #   (6)TMP
002376: E5,1642  E5,1714               VSUN               EQUALS   VEARTH     +6                         #   (6)TMP
002377: E5,1642  E5,1722               VMOON              EQUALS   VSUN       +6                         #   (6)TMP
002378: E5,1642  E5,1730               SAX                EQUALS   VMOON      +6                         #   (6)TMP
002379:
002380:
002381:                                                                                                  #           P50'S,R50'S Q STORES.                                        (2D)
002382:
002383: E5,1642  E5,1745               QMIN               EQUALS   MGC        +2                         #  B(1)TMP
002384: E5,1642  E5,1746               QMAJ               EQUALS   QMIN       +1                         #  B(1)TMP
002385:
002386:
002387:                                                                                                  #         **** USED IN P50S ****   (SCATTERED OVERLAYS)
002388: E5,1642  E5,1706               XSCI               EQUALS   STARAD
002389: E5,1642  E5,1714               YSCI               EQUALS   XSCI       +6
002390: E5,1642  E5,1714               ZSCI               EQUALS   YSCI
002391: E5,1642  E5,1706               CULTRIX            EQUALS   VEARTH                                #  VEARTH, VSUN, VMOON
002392: E5,1642  E5,1722               VEC1               EQUALS   STARAD     +12D
002393: E5,1642  E5,1730               VEC2               EQUALS   STAR
002394:
002395:
002396:
002397:                                                                                                  #           ALIGNMENT STORAGE.                                           (23D)
002398:
002399: E5,1642  E5,1747               OGCT               EQUALS   QMAJ       +1                         #  I(6)
002400: E5,1642  E5,1755               BESTI              EQUALS   OGCT       +6                         #  I(1)
002401: E5,1642  E5,1756               BESTJ              EQUALS   BESTI      +1
002402: E5,1642  E5,1757               STARIND            EQUALS   BESTJ      +1
002403:                                                                                                  #     RETAIN THE ORDER OF STARSAV1 TO STARSAV2 +5 FOR DOWNLINK PURPOSES.
002404: E5,1642  E5,1760               STARSAV1           EQUALS   STARIND    +1                         #  I(6)
002405: E5,1642  E5,1766               STARSAV2           EQUALS   STARSAV1   +6                         #  I(6)
002406: E5,1642  E5,1774               TALIGN             EQUALS   STARSAV2   +6                         #  B(2) TIME OF IMU ALIGNMENT  (DOWNLINKED)
002407:                                                                                                  #                VEL/C     EQUALS  STARSAV2  +6            I(6)TMP  (NOT USED IN LEM)
002408:
002409:
002410: E5,1642                        ZPRIME             =        22D
002411: E5,1642                        PDA                =        22D
002412: E5,1642                        COSTH              =        16D
002413: E5,1642                        SINTH              =        18D
002414: E5,1642                        THETA              =        20D
002415: E5,1642                        STARM              =        32D
002416:
002417:                                                                                                  #  *******  OVERLAY NUMBER 2 IN EBANK 5  *******
002418:
002419:
002420:                                                                                                  #           CONICS ROUTINE STORAGE.                       (85D)
002421:
002422: E5,1642  E5,1642               DELX               EQUALS   ENDW                                  #  I(2)TMP
002423: E5,1642  E5,1644               DELT               EQUALS   DELX       +2                         #  I(2)TMP
002424: E5,1642  E5,1646               URRECT             EQUALS   DELT       +2                         #  I(6)TMP
002425: E5,1642                        RCNORM             EQUALS   34D                                   #  I(2) TMP
002426: E5,1642  E3,1552               XPREV              EQUALS   XKEP                                  #  I(2)TMP
002427: E5,1642  E5,1654               R1VEC              EQUALS   URRECT     +6                         #  I(6) TMP
002428: E5,1642  E5,1662               R2VEC              EQUALS   R1VEC      +6                         #  I(6)TMP
002429: E5,1642  E5,1670               TDESIRED           EQUALS   R2VEC      +6                         #  I(2)TMP
002430: E5,1642  E5,1672               GEOMSGN            EQUALS   TDESIRED   +2                         #  I(1)TMP
002431: E5,1642  E5,1673               UN                 EQUALS   GEOMSGN    +1                         #  I(6)TMP
002432: E5,1642  E5,1701               VTARGTAG           EQUALS   UN         +6                         #  I(1)TMP
002433: E5,1642  E5,1702               VTARGET            EQUALS   VTARGTAG   +1                         #  I(6)TMP
002434: E5,1642  E5,1710               RTNLAMB            EQUALS   VTARGET    +6                         #  I(1)TMP
002435: E5,1642  E5,1711               U2                 EQUALS   RTNLAMB    +1                         #  I(6)TMP
002436: E5,1642  E5,1717               MAGVEC2            EQUALS   U2         +6                         #  I(2)TMP
002437: E5,1642  E5,1721               UR1                EQUALS   MAGVEC2    +2                         #  I(6)TMP
002438: E5,1642  E5,1727               SNTH               EQUALS   UR1        +6                         #  I(2)TMP
002439: E5,1642  E5,1731               CSTH               EQUALS   SNTH       +2                         #  I(2)TMP
002440: E5,1642  E5,1733               1-CSTH             EQUALS   CSTH       +2                         #  I(2)TMP
002441: E5,1642  E5,1735               CSTH-RHO           EQUALS   1-CSTH     +2                         #  I(2)TMP
002442: E5,1642  E5,1737               P                  EQUALS   CSTH-RHO   +2                         #  I(2)TMP
002443: E5,1642  E5,1741               R1A                EQUALS   P          +2                         #  I(2)TMP
002444: E5,1642  E5,1654               RVEC               EQUALS   R1VEC                                 #  I(6)TMP
002445: E5,1642  E5,1743               VVEC               EQUALS   R1A        +2                         #  I(6)TMP
002446: E5,1642  E5,1710               RTNTT              EQUALS   RTNLAMB                               #  I(1)TMP
002447: E5,1642  E5,1751               ECC                EQUALS   VVEC       +6                         #  I(2)TMP
002448: E5,1642  E5,1710               RTNTR              EQUALS   RTNLAMB                               #  I(1)TMP
002449: E5,1642  E5,1710               RTNAPSE            EQUALS   RTNLAMB                               #  I(1)TMP
002450: E5,1642  E5,1717               R2                 EQUALS   MAGVEC2                               #  I(2)TMP
002451: E5,1642  E5,1753               RTNPRM             EQUALS   ECC        +2                         #  I(1)TMP
002452: E5,1642  E5,1754               SGNRDOT            EQUALS   RTNPRM     +1                         #  I(1)TMP
002453: E5,1642  E5,1755               RDESIRED           EQUALS   SGNRDOT    +1                         #  I(2)TMP
002454: E5,1642  E5,1757               DELDEP             EQUALS   RDESIRED   +2                         #  I(2)TMP
002455: E5,1642  E5,1761               DEPREV             EQUALS   DELDEP     +2                         #  I(2)TMP
002456: E5,1642  E5,1757               TERRLAMB           EQUALS   DELDEP                                #  I(2)TMP
002457: E5,1642  E5,1761               TPREV              EQUALS   DEPREV                                #  I(2)TMP
002458: E5,1642  E5,1763               EPSILONL           EQUALS   DEPREV     +2                         #  I(2)TMP
002459: E5,1642  E5,1765               COGA               EQUALS   EPSILONL   +2                         #  I(2) COTAN OF INITIAL FLIGHT PATH ANGLE.
002460: E5,1642  E5,1765               INDEP              EQUALS   COGA                                  #       USED BY SUBROUTINE'ITERATOR'.
002461:
002462:                                                                                                  #  *******  OVERLAY NUMBER 3 IN EBANK 5  *******
002463:
002464:                                                                                                  #           INCORP STORAGE.                               (18D)
002465:
002466: E5,1642  E5,1642               ZI                 EQUALS   ENDW                                  #  I(18)TMP
002467:
002468:                                                                                                  #           INCORP/L SR22.3 STORAGE.                                     (21D)
002469:
002470: E5,1642  E5,1664               DELTAX             EQUALS   ZI         +18D                       #  I(18)
002471: E5,1642  E5,1706               VARIANCE           EQUALS   DELTAX     +18D                       #  I(3)
002472:
002473:                                                                                                  #           MEASUREMENT INCORPORATION -R22- STORAGE.                     (49D)
002474:
002475: E5,1642  E5,1711               GRP2SVQ            EQUALS   VARIANCE   +3                         #  I(1)TMP QSAVE FOR RESTARTS
002476: E5,1642  E5,1712               OMEGAM1            EQUALS   GRP2SVQ    +1                         #  I(6)
002477: E5,1642  E5,1720               OMEGAM2            EQUALS   OMEGAM1    +6                         #  I(6)
002478: E5,1642  E5,1726               OMEGAM3            EQUALS   OMEGAM2    +6                         #  I(6)
002479: E5,1642  E5,1734               HOLDW              EQUALS   OMEGAM3    +6                         #  I(18)
002480: E5,1642  E5,1756               TDPOS              EQUALS   HOLDW      +18D                       #  I(6)
002481: E5,1642  E5,1764               TDVEL              EQUALS   TDPOS      +6                         #  I(6)
002482:
002483:
002484: E5,1642  E5,1664               TRIPA              EQUALS   DELTAX                                #  I(3)TMP
002485: E5,1642  E5,1667               TEMPVAR            EQUALS   TRIPA      +3                         #  I(3)TMP
002486:
002487:
002488:
002489:
002490:                                                                                                  #           INCORPORATION/INTEGRATION Q STORAGE.                         (1D)
002491:
002492: E5,1642  E5,1772               EGRESS             EQUALS   TDVEL      +6                         #  I(1)
002493:
002494:
002495:
002496:                                                                                                  #           P30/P31 STORAGE.                                             (1D) AND ONE OVERLAY
002497:
002498: E5,1642  E5,1773               P30EXIT            EQUALS   EGRESS     +1                         #  B(1)TMP
002499:
002500:
002501: E5,1642  E5,1773               ORIGIN             EQUALS   P30EXIT                               #  I(1)TMP  INDEX DURING INITVEL
002502:
002503:
002504:                                                                                                  #           SYSTEM TEST ERASABLES.  CAN OVERLAY W MATRIX. (127D)
002505:
002506:                                                                                                  #  *******  OVERLAY NUMBER 0 IN EBANK 5  *******
002507:
002508:
002509: E5,1642  E5,1400               AZIMUTH            EQUALS   W                                     #  2
002510: E5,1642  E5,1402               LATITUDE           EQUALS   AZIMUTH    +2                         #  2
002511: E5,1642  E5,1404               ERVECTOR           EQUALS   LATITUDE   +2                         #  6
002512: E5,1642  E5,1412               LENGTHOT           EQUALS   ERVECTOR   +6                         #  1
002513: E5,1642  E5,1413               LOSVEC             EQUALS   LENGTHOT   +1                         #  6
002514: E5,1642  E5,1414               NDXCTR             EQUALS   LOSVEC     +1                         #  1
002515: E5,1642  E5,1415               PIPINDEX           EQUALS   NDXCTR     +1                         #  1
002516: E5,1642  E5,1416               POSITON            EQUALS   PIPINDEX   +1                         #  1
002517: E5,1642  E5,1417               QPLACE             EQUALS   POSITON    +1                         #  1
002518: E5,1642  E5,1420               QPLACES            EQUALS   QPLACE     +1                         #  1
002519: E5,1642  E5,1421               SOUTHDR            EQUALS   QPLACES    +1                         #  7
002520: E5,1642  E5,1430               TEMPTIME           EQUALS   SOUTHDR    +7                         #  2
002521: E5,1642  E5,1432               TMARK              EQUALS   TEMPTIME   +2                         #  2
002522: E5,1642  E5,1434               GENPL              EQUALS   TMARK      +2
002523: E5,1642  E5,1434               CDUTIMEI           =        GENPL
002524: E5,1642  E5,1436               CDUTIMEF           =        GENPL      +2
002525: E5,1642  E5,1440               CDUDANG            =        GENPL      +4
002526: E5,1642  E5,1441               CDUREADF           =        GENPL      +5
002527: E5,1642  E5,1442               CDUREADI           =        GENPL      +6
002528: E5,1642  E5,1443               CDULIMIT           =        GENPL      +7
002529:
002530: E5,1642  E5,1440               TEMPADD            =        GENPL      +4
002531: E5,1642  E5,1441               TEMP               =        GENPL      +5
002532: E5,1642  E5,1442               NOBITS             =        GENPL      +6
002533: E5,1642  E5,1443               CHAN               =        GENPL      +7
002534:
002535: E5,1642  E5,1444               LOS1               =        GENPL      +8D
002536: E5,1642  E5,1452               LOS2               =        GENPL      +14D
002537:
002538: E5,1642  E5,1460               CALCDIR            EQUALS   GENPL      +20D
002539: E5,1642  E5,1461               CDUFLAG            EQUALS   GENPL      +21D
002540: E5,1642  E5,1462               GYTOBETQ           EQUALS   GENPL      +22D
002541: E5,1642  E5,1463               OPTNREG            EQUALS   GENPL      +23D
002542: E5,1642  E5,1464               SAVE               EQUALS   GENPL      +24D                       #  THREE  ONSEC LOC
002543: E5,1642  E5,1467               SFCONST1           EQUALS   GENPL      +27D
002544: E5,1642  E5,1470               TIMER              EQUALS   GENPL      +28D
002545:
002546: E5,1642  E5,1472               DATAPL             EQUALS   GENPL      +30D
002547: E5,1642  E5,1434               RDSP               EQUALS   GENPL                                 #  FIX LA ER   POSSIBLY KEEP1
002548: E5,1642  E5,1534               MASKREG            EQUALS   GENPL      +64D
002549: E5,1642  E5,1536               CDUNDX             EQUALS   GENPL      +66D
002550: E5,1642  E5,1537               RESULTCT           EQUALS   GENPL      +67D
002551: E5,1642  E5,1542               COUNTPL            EQUALS   GENPL      +70D
002552:
002553: E5,1642  E5,1543               CDUANG             EQUALS   GENPL      +71D
002554:
002555: E5,1642  E5,1434               AINLA              =        GENPL                                 #  110 DE  OR 156 OCT LOCATIONS
002556:
002557: E5,1642  E5,1434               WANGO              EQUALS   AINLA                                 #  VERT E ATE
002558: E5,1642  E5,1436               WANGI              EQUALS   AINLA      +2D                        #  HORIZO TAL ERATE
002559: E5,1642  E5,1440               WANGT              EQUALS   AINLA      +4D                        #  T
002560: E5,1642  E5,1440               TORQNDX            =        WANGT
002561: E5,1642  E5,1442               DRIFTT             EQUALS   AINLA      +6D
002562: E5,1642  E5,1444               ALX1S              EQUALS   AINLA      +8D
002563: E5,1642  E5,1445               CMPX1              EQUALS   AINLA      +9D                        #  IND
002564: E5,1642  E5,1446               ALK                EQUALS   AINLA      +10D                       #  GAINS
002565: E5,1642  E5,1462               VLAUNS             EQUALS   AINLA      +22D
002566: E5,1642  E5,1464               WPLATO             EQUALS   AINLA      +24D
002567: E5,1642  E5,1470               INTY               EQUALS   AINLA      +28D                       #  SOUTH  IP INTE
002568: E5,1642  E5,1472               ANGZ               EQUALS   AINLA      +30D                       #  EAST A IS
002569: E5,1642  E5,1474               INTZ               EQUALS   AINLA      +32D                       #  EAST P P I
002570: E5,1642  E5,1476               ANGY               EQUALS   AINLA      +34D                       #  SOUTH
002571: E5,1642  E5,1500               ANGX               EQUALS   AINLA      +36D                       #  VE
002572: E5,1642  E5,1502               DRIFTO             EQUALS   AINLA      +38D                       #  VERT
002573: E5,1642  E5,1504               DRIFTI             EQUALS   AINLA      +40D                       #  SOU
002574: E5,1642  E5,1510               VLAUN              EQUALS   AINLA      +44D
002575: E5,1642  E5,1512               ACCWD              EQUALS   AINLA      +46D
002576: E5,1642  E5,1520               POSNV              EQUALS   AINLA      +52D
002577: E5,1642  E5,1522               DPIPAY             EQUALS   AINLA      +54D                       #  SOUTH
002578: E5,1642  E5,1526               DPIPAZ             EQUALS   AINLA      +58D                       #  NORTH  IP INCREMENT
002579: E5,1642  E5,1530               ALTIM              EQUALS   AINLA      +60D
002580: E5,1642  E5,1531               ALTIMS             EQUALS   AINLA      +61D                       #   INDEX
002581: E5,1642  E5,1532               ALDK               EQUALS   AINLA      +62D                       #   TIME  ONSTAN
002582: E5,1642  E5,1550               DELM               EQUALS   AINLA      +76D
002583: E5,1642  E5,1560               WPLATI             EQUALS   AINLA      +84D
002584: E5,1642  E5,1562               GEOCOMPS           EQUALS   AINLA      +86D
002585: E5,1642  E5,1563               ERCOMP             EQUALS   AINLA      +87D
002586: E5,1642  E5,1571               ZERONDX            EQUALS   AINLA      +93D
002587:
002588: E5,1642  E5,1452               THETAN             =        ALK        +4
002589: E5,1642  E5,1460               FILDELV            EQUALS   THETAN     +6                         #   AGS ALIGNMENT STORAGE
002590: E5,1642  E5,1462               INTVEC             EQUALS   FILDELV    +2
002591: E5,1642  E5,1572               1SECXT             =        AINLA      +94D
002592: E5,1642  E5,1573               ASECXT             =        AINLA      +95D
002593: E5,1642  E5,1574               PERFDLAY           EQUALS   AINLA      +96D                       #  B(2) DELAY TIME BEF. START DRIFT MEASURE
002594: E5,1642  E5,1576               OVFLOWCK           EQUALS   AINLA      +98D                       #  (1) SET MEANS OVERFLOW IN IMU PERF TEST
002595:                                                                                                  #      AND CAUSES TERMINATION
002596:
002597:
002598: E5,1642  E5,1774               END-E5             EQUALS   STARSAV2   +6                         #  *** FIRST FREE LOCATION IN E5***
002599:
002600:                                                                                                  #           EBANK-6 ASSIGNMENTS.
002601:
002602: E6,1400                                           SETLOC   3000
002603:
002604:                                                                                                  #           DAP    PAD-LOADED    DATA.                          (10D)
002605:
002606:                                                                                                  #    ALL OF THE FOLLOWING EXCEPT PITTIME AND ROLLTIME ARE INITIALIZED IN FRESH START TO PERMIT IMMEDIATE USE OF DAP
002607:
002608: E6,1400                        HIASCENT           ERASE                                          #  (1) MASS AFTER STAGING, SCALE AT B16 KG.
002609: E6,1401                        ROLLTIME           ERASE                                          #  (1) TIME TO TRIM Z GIMBAL IN R03, CSEC.
002610: E6,1402                        PITTIME            ERASE                                          #  (1) TIME TO TRIM Y GIMBAL IN R03, CSEC.
002611: E6,1403                        DKTRAP             ERASE                                          #  (1) DAP STATE            (POSSIBLE 77001
002612: E6,1404                        DKOMEGAN           ERASE                                          #  (1)   ESTIMATOR PARA-      (VALUES 00012
002613: E6,1405                        DKKAOSN            ERASE                                          #  (1)      METERS FOR THE           00074
002614: E6,1406                        LMTRAP             ERASE                                          #  (1)         DOCKED AND            77001
002615: E6,1407                        LMOMEGAN           ERASE                                          #  (1)            LEM-ALONE CASES    00000
002616: E6,1410                        LMKAOSN            ERASE                                          #  (1)               RESPECTIVELY    00074
002617: E6,1411                        DKDB               ERASE                                          #  (1) WIDTH OF DEADBAND FOR DOCKED RCS
002618:                                                                                                  #      AUTOPILOT (DB=1.4DEG IN FRESH START)
002619:                                                                                                  #      DEADBAND = PI/DKDB RAD.
002620:
002621:                                                                                                  #  AXIS TRANSFORMATION MATRIX - GIMBAL TO PILOT AXES:                    (5D)
002622:
002623: E6,1412                        M11                ERASE                                          #  SCALED AT 1
002624: E6,1413                        M21                ERASE                                          #  SCALED AT 1
002625: E6,1414                        M31                ERASE
002626: E6,1415                        M22                ERASE                                          #  SCALED AT 1.
002627: E6,1416                        M32                ERASE                                          #  SCALED AT 1.
002628:
002629:                                                                                                  #  ANGLE MEASUREMENTS.                                                   (31D)
002630:
002631: E6,1417                        OMEGAP             ERASE    +4                                    #  BODY-AXIS ROT. RATES SCALED AT PI/4 AND
002632: E6,1424  E6,1420               OMEGAQ             EQUALS   OMEGAP     +1                         #  BODY-AXIS ACCELERATIONS SCALED AT PI/8
002633: E6,1424  E6,1421               OMEGAR             EQUALS   OMEGAP     +2
002634:                                                                                                  #     RETAIN THE ORDER OF ALPHAQ AND ALPHAR FOR DOWNLINK PURPOSES.
002635: E6,1424  E6,1422               ALPHAQ             EQUALS   OMEGAP     +3
002636: E6,1424  E6,1423               ALPHAR             EQUALS   OMEGAP     +4
002637: E6,1424                        OMEGAU             ERASE    +1
002638: E6,1426  E6,1425               OMEGAV             =        OMEGAU     +1
002639:
002640: E6,1426                        TRAPEDP            ERASE    +5
002641: E6,1434  E6,1427               TRAPEDQ            =        TRAPEDP    +1
002642: E6,1434  E6,1430               TRAPEDR            =        TRAPEDP    +2
002643: E6,1434  E6,1431               NPTRAPS            =        TRAPEDP    +3
002644: E6,1434  E6,1432               NQTRAPS            =        TRAPEDP    +4
002645: E6,1434  E6,1433               NRTRAPS            =        TRAPEDP    +5
002646: E6,1434  E6,1543               EDOTP              =        EDOT
002647: E6,1434                        EDOTQ              ERASE    +1
002648: E6,1436  E6,1435               EDOTR              =        EDOTQ      +1                         #   MANY SHARING NAMES
002649: E6,1436  E6,1434               QRATEDIF           EQUALS   EDOTQ                                 #  ALTERNATIVE NAMES:
002650:
002651: E6,1436  E6,1435               RRATEDIF           EQUALS   EDOTR                                 #  DELETE WHEN NO. OF REFERENCES = 0
002652:
002653: E6,1436  E6,1424               URATEDIF           EQUALS   OMEGAU
002654: E6,1436  E6,1425               VRATEDIF           EQUALS   OMEGAV
002655: E6,1436                        OLDXFORP           ERASE    +2                                    #  STORED CDU READINGS FOR STATE
002656: E6,1441  E6,1437               OLDYFORP           EQUALS   OLDXFORP   +1                         #  DERIVATIONS: SCALED AT PI RADIANS (2'S)
002657: E6,1441  E6,1440               OLDZFORQ           EQUALS   OLDXFORP   +2
002658:
002659: E6,1441                        SUMRATEQ           ERASE    +1                                    #  SUM OF UN-WEIGHTED JETRATE TERMS
002660: E6,1443  E6,1442               SUMRATER           EQUALS   SUMRATEQ   +1                         #  SCALED AT PI/4 RADIANS/SECOND
002661:
002662:                                                                                                  #  OTHER VARIABLES.                                                      (5D)
002663:
002664: E6,1443                        OLDPMIN            ERASE                                          #  THESE THREE USED IN MIN IMPULSE MODE.
002665: E6,1444                        OLDQRMIN           ERASE
002666: E6,1445  E6,1734               TEMP31             EQUALS   DAPTEMP1
002667:
002668: E6,1445                        SAVEHAND           ERASE    +1
002669: E6,1447                        1/2JTSP            ERASE
002670: E6,1450                        PERROR             ERASE
002671: E6,1451                        QERROR             ERASE
002672: E6,1452                        RERROR             ERASE
002673:                                                                                                  #  JET STATE CHANGE VARIABLES- TIME (TOFJTCHG),JET BITS WRITTEN NOW      (10D)
002674:                                                                                                  #    (JTSONNOW), AND JET BITS WRITTEN AT T6 RUPT (JTSATCHG).
002675:
002676: E6,1453                        NXT6ADR            ERASE
002677: E6,1454                        T6NEXT             ERASE    +1
002678: E6,1456                        T6FURTHA           ERASE    +1
002679: E6,1460                        NEXTP              ERASE    +2
002680: E6,1463  E6,1461               NEXTU              =        NEXTP      +1
002681: E6,1463  E6,1462               NEXTV              =        NEXTP      +2
002682: E6,1463                        -2JETLIM           ERASE    +1                                    #  RATE COMMAND 4-JET RATE DIFFERENCE LIMIT
002683: E6,1465  E6,1464               -RATEDB            EQUALS   -2JETLIM   +1                         #  AND RATE DEADBAND FOR ASCENT OR DESCENT
002684: E6,1465                        ZEROOR1            ERASE
002685:
002686: E6,1466  E6,1464               TARGETDB           EQUALS   -RATEDB                               #  MAN. CONTROL TARGET DB COMPLEMENT.
002687:
002688:                                                                                                  #      *** Q,R AXIS ERASABLES ***                                        (3)
002689:
002690: E6,1466     5015               PBIT               EQUALS   BIT10
002691: E6,1466     5014               QRBIT              EQUALS   BIT11
002692: E6,1466                        UERROR             ERASE    +1                                    #  U,V-AXES ATT ERROR FOR RCS CONTROL LAWS
002693: E6,1470  E6,1467               VERROR             =        UERROR     +1
002694: E6,1470                        RETJADR            ERASE
002695:
002696: E6,1471  E6,1737               TEMPNUM            EQUALS   DAPTEMP4
002697: E6,1471  E6,1740               NUMBERT            EQUALS   DAPTEMP5
002698: E6,1471  E6,1741               ROTINDEX           EQUALS   DAPTEMP6
002699: E6,1471  E6,1734               ROTEMP1            EQUALS   DAPTEMP1
002700: E6,1471  E6,1735               ROTEMP2            EQUALS   DAPTEMP2
002701: E6,1471                        AXISCTR            ERASE
002702: E6,1472  E6,1736               POLYTEMP           EQUALS   DAPTEMP3
002703: E6,1472                        SENSETYP           ERASE
002704: E6,1473  E6,1734               ABSTJ              EQUALS   DAPTEMP1                              #  ABS VALUE OF JET-FIRING TIME
002705: E6,1473  E6,1734               ABSEDOTP           EQUALS   DAPTEMP1
002706: E6,1473  E6,1734               ANYTRANS           EQUALS   DAPTEMP1
002707:
002708: E6,1473  E6,1745               DPSBURN            EQUALS   DAPTREG4                              #  USED WITH SNUFFBIT.  VERY TEMPORARY.
002709:
002710:                                                                                                  #  TRIM GIMBAL CONTROL LAW ERASABLES:                            (11D)
002711:
002712: E6,1473  E6,1734               GTSTEMPS           EQUALS   DAPTEMP1                              #  GTS IS PART OF THE JASK.
002713: E6,1473  E6,1736               SHFTFLAG           EQUALS   GTSTEMPS   +2                         #  COUNT HIGH ORDER ZERO BITS FOR SHIFTING.
002714:
002715: E6,1473  E6,1737               ININDEX            EQUALS   GTSTEMPS   +3                         #  INDEX FOR SHIFT LOOP.
002716:
002717: E6,1473  E6,1471               SAVESR             EQUALS   AXISCTR                               #  CANNOT BE A DAPTEMP - GTS USES THEM ALL.
002718:
002719: E6,1473  E6,1741               SCRATCH            EQUALS   GTSTEMPS   +5                         #  ERASABLE FOR ROOTCYCL
002720: E6,1473  E6,1742               HALFARG            EQUALS   GTSTEMPS   +6
002721:
002722: E6,1473  E6,1734               K2THETA            EQUALS   GTSTEMPS                              #  D.P. K(2)THETA AND NEGUSUM
002723: E6,1473  E6,1736               A2CNTRAL           EQUALS   GTSTEMPS   +2                         #  D.P. ALPHA(2), AT PI(2)/164 RAD/SEC(2)
002724: E6,1473  E6,1740               KCENTRAL           EQUALS   GTSTEMPS   +4                         #  S.P. K FROM KQ OR KR, AT PI/2(8)
002725: E6,1473  E6,1740               OMEGA.K            EQUALS   KCENTRAL                              #  D.P. OMEGA*K   OVERLAYS K AND K(2)
002726: E6,1473  E6,1741               K2CNTRAL           EQUALS   GTSTEMPS   +5                         #  S.P. K(2) FROM Q OR R, AT PI(2)/2(16)
002727: E6,1473  E6,1742               WCENTRAL           EQUALS   GTSTEMPS   +6                         #  S.P. OMEGA, AT PI/4 RAD/SEC
002728: E6,1473  E6,1743               ACENTRAL           EQUALS   GTSTEMPS   +7                         #  S.P. ALPHA, AT PI/8 RAD/SEC(2)
002729: E6,1473  E6,1744               DEL                EQUALS   GTSTEMPS   +8D                        #  S.P. SGN FUNCTION VALUE
002730:
002731: E6,1473  E6,1745               QRCNTR             EQUALS   GTSTEMPS   +9D                        #  INDEX FOR GTS LOOP THROUGH Q,R AXES.
002732:
002733: E6,1473                        FUNCTION           ERASE    +1                                    #  D.P. WORD FOR DRIVE FUNCTION
002734:
002735: E6,1475                        SCRATCHX           ERASE    +2                                    #  SCRATCH AREA FOR DVOVSUB ROUTINE.
002736: E6,1500  E6,1476               SCRATCHY           EQUALS   SCRATCHX   +1
002737: E6,1500  E6,1477               SCRATCHZ           EQUALS   SCRATCHX   +2
002738:
002739: E6,1500                        NEGUQ              ERASE    +2                                    #  NEGATIVE OF Q-AXIS GIMBAL DRIVE
002740:                                                                                                  #                                NEGUQ +1               DEFINED AND USED ELSEWHERE
002741: E6,1503  E6,1502               NEGUR              EQUALS   NEGUQ      +2                         #  NEGATIVE OF R-AXIS GIMBAL DRIVE
002742:
002743: E6,1503                        KQ                 ERASE    +3                                    #  .3ACCDOTQ SCALED AT PI/2(8)
002744: E6,1507  E6,1504               KQ2                EQUALS   KQ         +1                         #  KQ2 = KQ*KQ
002745: E6,1507  E6,1505               KRDAP              EQUALS   KQ         +2                         #  .3 ACCDOTR SCALED AT PI/2(8)
002746: E6,1507  E6,1506               KR2                EQUALS   KQ         +3                         #  KR2 = KR*KR
002747:
002748: E6,1507                        ACCDOTQ            ERASE    +3                                    #  Q-JERK SCALED AT PI/2(7) UNSIGNED
002749: E6,1513  E6,1510               QACCDOT            EQUALS   ACCDOTQ    +1                         #  Q-JERK SCALED AT PI/2(7) SIGNED
002750: E6,1513  E6,1511               ACCDOTR            EQUALS   ACCDOTQ    +2                         #  R-JERK SCALED AT PI/2(7) UNSIGNED
002751: E6,1513  E6,1512               RACCDOT            EQUALS   ACCDOTQ    +3                         #  R-JERK SCALED AT PI/2(7) SIGNED
002752:
002753: E6,1513  E6,1451               QDIFF              EQUALS   QERROR                                #  ATTITUDE ERRORS:
002754: E6,1513  E6,1452               RDIFF              EQUALS   RERROR                                #  SCALED AT PI RADIANS
002755:
002756:
002757:
002758:
002759:                                                                                                  #  TORQUE VECTOR RECONSTRUCTION VARIABLES:                               (18D)
002760:
002761: E6,1513  E6,1742               JETRATE            EQUALS   DAPTREG1
002762: E6,1513  E6,1743               JETRATEQ           EQUALS   JETRATE    +1                         #  THE LAST CONTROL SAMPLE PERIOD OF 100 MS
002763: E6,1513  E6,1744               JETRATER           EQUALS   JETRATE    +2                         #  SCALED AT PI/4 RADIANS/SECOND
002764:
002765:
002766: E6,1513                        NO.PJETS           ERASE    +2
002767: E6,1516  E6,1514               NO.UJETS           =        NO.PJETS   +1
002768: E6,1516  E6,1515               NO.VJETS           =        NO.UJETS   +1
002769: E6,1516                        TJP                ERASE    +2
002770: E6,1521  E6,1517               TJU                =        TJP        +1
002771: E6,1521  E6,1520               TJV                =        TJP        +2
002772:
002773: E6,1521                        L,PVT-CG           ERASE
002774: E6,1522                        1JACC              ERASE    +4                                    #  ACCELERATIONS DUE TO 1 JET TORQUING
002775: E6,1527  E6,1523               1JACCQ             EQUALS   1JACC      +1                         #  SCALED AT PI/4 RADIANS/SECOND
002776: E6,1527  E6,1524               1JACCR             EQUALS   1JACC      +2
002777: E6,1527  E6,1525               1JACCU             EQUALS   1JACC      +3                         #  FOR U,V-AXES THE SCALE FACTOR IS  DIFF:
002778: E6,1527  E6,1526               1JACCV             EQUALS   1JACC      +4                         #  SCALED AT PI/2 RADIANS/SECOND (FOR ASC)
002779:
002780: E6,1527                        PJUMPADR           ERASE
002781:
002782:                                                                                                  #  ASCENT VARIABLES:                                                     (10D)
002783:
002784: E6,1530                        SKIPU              ERASE    +1
002785: E6,1532  E6,1531               SKIPV              =        SKIPU      +1
002786:                                                                                                  #  THE FOLLOWING LM DAP ERASABLES ARE ZEROED IN THE STARTDAP SECTION OF THE DAPIDLER PROGRAM AND THE COASTASC
002787:                                                                                                  #  SECTION OF THE AOSTASK.  THE ORDER MUST BE PRESERVED FOR THE INDEXING METHODS WHICH ARE EMPLOYED IN THOSE
002788:                                                                                                  #  SECTIONS AND ELSEWHERE.
002789:
002790: E6,1532                        AOSQ               ERASE    +5                                    #  OFFSET ACC. ESTIMATES, UPDATED IN D.P.,
002791: E6,1540  E6,1534               AOSR               EQUALS   AOSQ       +2                         #  AND SCALED AT PI/2.
002792: E6,1540  E6,1536               AOSU               EQUALS   AOSQ       +4                         #  UV-AXES OFFSET ACC. FROMED BY VECTOR
002793: E6,1540  E6,1537               AOSV               EQUALS   AOSQ       +5                         #  ADDITION OF Q,R.  AT PI/2 RAD/SEC(2).
002794:
002795: E6,1540                        AOSQTERM           ERASE    +1                                    #  (.1-.05K)AOS
002796: E6,1542  E6,1541               AOSRTERM           EQUALS   AOSQTERM   +1                         #  SCALED AT PI/4 RADIANS/SECOND.
002797:
002798:                                                                                                  #  FOR TJET LAW SUBROUTINE:                                              (TEMPS ONLY)
002799:
002800:                                                                                                  # NUMBERT        EQUALS          DAPTEMP5                  DEFINED IN QRAXIS.
002801: E6,1542  E6,1734               EDOTSQ             EQUALS   DAPTEMP1
002802: E6,1542  E6,1735               ROTSENSE           EQUALS   DAPTEMP2
002803: E6,1542  E6,1736               FIREFCT            EQUALS   DAPTEMP3                              #  LOOKED AT BY PAXIS.
002804: E6,1542  E6,1737               TTOAXIS            EQUALS   DAPTEMP4
002805: E6,1542  E6,1741               ADRSDIF2           EQUALS   DAPTEMP6
002806: E6,1542  E6,1742               HOLDQ              EQUALS   DAPTREG1
002807: E6,1542  E6,1743               ADRSDIF1           EQUALS   DAPTREG2
002808: E6,1542  E6,1744               HH                 EQUALS   DAPTREG3                              #  DOUBLE PRECISION
002809:
002810:                                                                                                  #  HH +1         EQUALS          DAPTREG4
002811: E6,1542                        E                  ERASE    +1
002812: E6,1544  E6,1543               EDOT               EQUALS   E          +1
002813:
002814:                                                                                                  #  INPUT TO TJET LAW (PERMANENT ERASABLES).                              (48D)
002815:
002816: E6,1544  E6,1517               TJETU              =        TJU                                   #  EQUATE NAMES.  INDEXED BY -1, 0, +1.
002817: E6,1544                        BLOCKTOP           ERASE    +47D
002818: E6,1624  E6,1564               1/ANET1            =        BLOCKTOP   +16D                       #  THESE 8 PARAMETERS ARE SET UP BY 1/ACCS
002819: E6,1624  E6,1565               1/ANET2            =        1/ANET1    +1                         #  FOR MINIMUM JETS ABOUT THE U-AXIS WHEN
002820: E6,1624  E6,1570               1/ACOAST           =        1/ANET1    +4                         #  EDOT IS POSITIVE.  TJETLAW INDEXES BY
002821: E6,1624  E6,1572               ACCFCTZ1           =        1/ANET1    +6                         #  ADRSDIFF FROM THESE REGISTERS TO PICK UP
002822: E6,1624  E6,1573               ACCFCTZ5           =        1/ANET1    +7                         #  PARAMETERS FOR THE PROPER AXIS, NUMBER
002823: E6,1624  E6,1576               FIREDB             =        1/ANET1    +10D                       #  OF JETS AND SIGN OF EDOT.  THERE ARE 48
002824: E6,1624  E6,1600               COASTDB            =        1/ANET1    +12D                       #  REGISTERS IN ALL IN THIS BLOCK.
002825: E6,1624  E6,1602               AXISDIST           =        1/ANET1    +14D                       #  FOUR NOT REFERENCED (P-AXIS) ARE FILLED
002826:                                                                                                  #    IN BY THE FOLLOWING:
002827: E6,1624  E6,1544               ACCSWU             =        BLOCKTOP                              #  SET BY 1/ACCS TO SHOW WHETHER MAXIMUM
002828: E6,1624  E6,1545               ACCSWV             =        ACCSWU     +1                         #  JETS ARE REQUIRED BECAUSE OF AOS.
002829: E6,1624  E6,1552               FLAT               =        BLOCKTOP   +6                         #  WIDTH OF MINIMUM IMPULSE ZONE.
002830: E6,1624  E6,1553               ZONE3LIM           =        BLOCKTOP   +7                         #  HEIGHT OF MINIMUM IMPULSE ZONE(AT 4 SEC)
002831:
002832:
002833:
002834:                                                                                                  #  VARIABLES FOR GTS-QRAXIS CONTROL EXCHANGE.                            (4)
002835:
002836: E6,1624                        ALLOWGTS           ERASE                                          #  INSERT INTO UNUSED LOCATION
002837: E6,1625                        COTROLER           ERASE                                          #  INDICATES WHICH CONTROL SYSTEM TO USE.
002838: E6,1626                        QGIMTIMR           ERASE    +2                                    #  Q-GIMBAL DRIVE ITMER, DECISECONDS.
002839: E6,1631  E6,1627               INGTS              EQUALS   QGIMTIMR   +1                         #  INDICATOR OF CURRENT GTS CONTROL.
002840: E6,1631  E6,1630               RGIMTIMR           EQUALS   QGIMTIMR   +2                         #  R-GIMBAL DRIVE TIMER, DECISECONDS.
002841:
002842:                                                                                                  #  PLEASE RETAIN THE ORDER OF CDUXD THRU CDUZD FOR DOWNLINK PURPOSES.
002843:
002844:                                                                                                  #           KALCMANU:DAP INTERFACE.                                      (9D)
002845:
002846: E6,1631                        ACCSET             ERASE                                          #  INDICATES 1/ACCS HAS BEEN SET UP
002847: E6,1632                        CDUXD              ERASE    +2                                    #  CDU DESIRED REGISTERS:
002848: E6,1635  E6,1633               CDUYD              EQUALS   CDUXD      +1                         #  SCALED AT PI RADIANS (180 DEGREES)
002849: E6,1635  E6,1634               CDUZD              EQUALS   CDUXD      +2                         #  (STORE IN 2S COMPLEMENT)
002850:
002851: E6,1635                        DELCDUX            ERASE    +2                                    #  NEGATIVE OF DESIRED 100MS CDU INCREMENT:
002852: E6,1640  E6,1636               DELCDUY            EQUALS   DELCDUX    +1                         #  SCALED AT PI RADIANS (180 DEGREES)
002853: E6,1640  E6,1637               DELCDUZ            EQUALS   DELCDUX    +2                         #  (STORE IN 2S COMPLEMENT)
002854:
002855:                                                                                                  #     RETAIN THE ORDER OF OMEGAPD TO OMEGARD FOR DOWNLINK PURPOSES.
002856: E6,1640                        OMEGAPD            ERASE    +2                                    #  ATTITUDE MANEUVER DESIRED RATES:
002857: E6,1643  E6,1641               OMEGAQD            EQUALS   OMEGAPD    +1                         #  (NOT EXPLICITLY REFERENCED IN GTS CNTRL)
002858: E6,1643  E6,1642               OMEGARD            EQUALS   OMEGAPD    +2                         #  SCALED AT PI/4 RADIANS/SECOND
002859:
002860:                                                                                                  #  KALCMANU STORAGE.                                                     (24D)
002861:
002862: E6,1643                        MIS                ERASE    +23D                                  #  I(18D)
002863: E6,1673  E6,1665               COF                EQUALS   MIS        +18D                       #  I(6)
002864:
002865:
002866:                                                                                                  #           KALCMANU STORAGE.                                             (33D)
002867:
002868: E6,1673                        BCDU               ERASE    +30D                                  #  B(3)
002869: E6,1732  E6,1676               KSPNDX             EQUALS   BCDU       +3                         #  B(1)
002870: E6,1732  E6,1677               KDPNDX             EQUALS   KSPNDX     +1                         #  B(1)
002871:
002872: E6,1732  E6,1700               TMIS               EQUALS   KDPNDX     +1                         #  I(18) MUST BE IN SAME BANK AS RCS DAP
002873: E6,1732  E6,1722               COFSKEW            EQUALS   TMIS       +18D                       #  I(6)  MUST BE IN SAME BANK AS RCS DAP
002874: E6,1732  E6,1730               CAM                EQUALS   COFSKEW    +6                         #  I(2)  MUST BE IN SAME BANK AS RCS DAP
002875:
002876:
002877: E6,1732                        AM                 ERASE    +1                                    #  I(2) THIS WAS ONCE IN E5 OVERLAYING OGC
002878:
002879:
002880:                                                                                                  #  FIRST-ORDER OVERLAYS IN KALCMANU                                      (25D)
002881:
002882: E6,1734  E6,1700               KV1                EQUALS   TMIS                                  #  I(6)
002883: E6,1734  E6,1700               MFISYM             EQUALS   TMIS                                  #  I
002884: E6,1734  E6,1700               TMFI               EQUALS   TMIS                                  #  I
002885: E6,1734  E6,1700               NCDU               EQUALS   TMIS                                  #  B
002886: E6,1734  E6,1703               NEXTIME            EQUALS   TMIS       +3                         #  B
002887: E6,1734  E6,1704               TTEMP              EQUALS   TMIS       +4                         #  B
002888: E6,1734  E6,1706               KV2                EQUALS   TMIS       +6                         #  I(6)
002889: E6,1734  E6,1706               BIASTEMP           EQUALS   TMIS       +6                         #  B
002890: E6,1734  E6,1714               KV3                EQUALS   TMIS       +12D                       #  I(6)
002891: E6,1734  E6,1714               OGF                EQUALS   TMIS       +12D                       #  I
002892:
002893: E6,1734  E6,1722               BRATE              EQUALS   COFSKEW                               #  B
002894: E6,1734  E6,1722               IG                 EQUALS   COFSKEW                               #  I
002895:
002896: E6,1734  E6,1730               TM                 EQUALS   CAM                                   #  B
002897:
002898:                                                                                                  #  SECOND-ORDER OVERLAYS IN KALCMANU                                     (24D)
002899:
002900: E6,1734  E6,1700               K1                 =        KV1
002901: E6,1734  E6,1706               K2                 =        KV2
002902: E6,1734  E6,1714               K3                 =        KV3
002903: E6,1734  E6,1700               P21                EQUALS   KV1                                   #  I(2)
002904: E6,1734  E6,1702               D21                EQUALS   KV1        +2                         #  I(2)
002905: E6,1734  E6,1704               G21                EQUALS   KV1        +4                         #  I(2)
002906: E6,1734  E6,1706               C2SQP              EQUALS   KV2                                   #  I(2)
002907: E6,1734  E6,1710               C2SQM              EQUALS   KV2        +2                         #  I(2)
002908: E6,1734  E6,1712               C2PP               EQUALS   KV2        +4                         #  I(2)
002909: E6,1734  E6,1714               C2MP               EQUALS   KV3                                   #  I(2)
002910: E6,1734  E6,1716               C1PP               EQUALS   KV3        +2                         #  I(2)
002911: E6,1734  E6,1720               C1MP               EQUALS   KV3        +4                         #  I(2)
002912:
002913: E6,1734  E6,1722               VECQTEMP           =        COFSKEW
002914:
002915: E6,1734  E6,1632               DCDU               =        CDUXD
002916: E6,1734  E6,1635               DELDCDU            =        DELCDUX
002917: E6,1734  E6,1636               DELDCDU1           =        DELCDUY
002918: E6,1734  E6,1637               DELDCDU2           =        DELCDUZ
002919:
002920:
002921:                                                                                                  #  *  *  *  *  *  *  *  *  *  *  *  *  *  *  *  *  *  *  *  *  *  *  *  *
002922:
002923:                                                                                                  #  STORAGE FOR FINDCDUW
002924:
002925:                                                                                                  #           OVERLAYING KALCMANU STORAGE:                                 (26D)
002926:
002927: E6,1734  E6,1643               ECDUW              EQUALS   MIS
002928: E6,1734  E6,1643               ECDUWUSR           EQUALS   ECDUW                                 #  B(1)TMP
002929: E6,1734  E6,1644               QCDUWUSR           EQUALS   ECDUWUSR   +1                         #  I(1)TMP
002930: E6,1734  E6,1645               NDXCDUW            EQUALS   QCDUWUSR   +1                         #  B(1)TMP
002931: E6,1734  E6,1646               FLAGOODW           EQUALS   NDXCDUW    +1                         #  B(1)TMP
002932: E6,1734  E6,1647               UNFC/2             EQUALS   FLAGOODW   +1                         #  I(6)IN
002933: E6,1734  E6,1655               UNWC/2             EQUALS   UNFC/2     +6                         #  I(6)IN
002934: E6,1734  E6,1663               UNFV/2             EQUALS   UNWC/2     +6                         #  I(6) S-S
002935: E6,1734  E6,1663               UNFVX/2            =        UNFV/2
002936: E6,1734  E6,1665               UNFVY/2            =        UNFV/2     +2
002937: E6,1734  E6,1667               UNFVZ/2            =        UNFV/2     +4
002938: E6,1734  E6,1671               -DELGMB            EQUALS   UNFV/2     +6                         #  B(3)TMP
002939:
002940:                                                                                                  #           DEFINED IN THE WORK AREA:                                    (18D)
002941:
002942: E6,1734                        UNX/2              =        0
002943: E6,1734                        UNY/2              =        6
002944: E6,1734                        UNZ/2              =        14
002945:
002946:                                                                                                  #  END OF FINDCDUW ERASABLES
002947:
002948:                                                                                                  #  *  *  *  *  *  *  *  *  *  *  *  *  *  *  *  *  *  *  *  *  *  *  *  *
002949:
002950:                                                                                                  #  THE FOLLOWING ARE THE DAP REPLACEMENTS FOR THE ITEMPS AND RUPTREGS,NEEDED BECAUSE DAP IS NOW A TOB,JASK,JAB,TOSK
002951:                                                                                                  #  ...ANYWAY, THE DAP CAN NOW BE INTERRUPTED.                            (16D)
002952:
002953: E6,1734                        DAPTEMP1           ERASE    +15D
002954: E6,1754  E6,1735               DAPTEMP2           EQUALS   DAPTEMP1   +1
002955: E6,1754  E6,1736               DAPTEMP3           EQUALS   DAPTEMP1   +2
002956: E6,1754  E6,1737               DAPTEMP4           EQUALS   DAPTEMP1   +3
002957: E6,1754  E6,1740               DAPTEMP5           EQUALS   DAPTEMP1   +4
002958: E6,1754  E6,1741               DAPTEMP6           EQUALS   DAPTEMP1   +5
002959: E6,1754  E6,1742               DAPTREG1           EQUALS   DAPTEMP1   +6
002960: E6,1754  E6,1743               DAPTREG2           EQUALS   DAPTEMP1   +7
002961: E6,1754  E6,1744               DAPTREG3           EQUALS   DAPTEMP1   +8D
002962:
002963: E6,1754  E6,1745               DAPTREG4           EQUALS   DAPTEMP1   +9D
002964: E6,1754  E6,1746               DAPTREG5           EQUALS   DAPTEMP1   +10D
002965: E6,1754  E6,1747               DAPTREG6           EQUALS   DAPTEMP1   +11D
002966:
002967: E6,1754  E6,1746               DAPARUPT           EQUALS   DAPTEMP1   +10D
002968: E6,1754  E6,1747               DAPLRUPT           EQUALS   DAPARUPT   +1
002969: E6,1754  E6,1750               DAPBQRPT           EQUALS   DAPARUPT   +2
002970: E6,1754  E6,1752               DAPZRUPT           EQUALS   DAPARUPT   +4
002971:
002972:                                                                                                  #  (DAPZRUPT IS ALSO JASK-IN-PROGRESS FLAG)
002973:
002974:
002975:
002976:                                                                                                  #           NEEDLER(ATTITUDE ERROR EIGHT BALL DISPLAY) STORAGE.          (6D)
002977:
002978: E6,1754     0061               T5TEMP             EQUALS   ITEMP1
002979: E6,1754     0063               DINDX              EQUALS   ITEMP3
002980: E6,1754                        AK                 ERASE    +2                                    #  NEEDLER ATTITUDE INPUTS, SCALED AT 180
002981: E6,1757  E6,1755               AK1                EQUALS   AK         +1                         #  DEGREES.  P,Q,R AXES IN AK,AK1,AK2.
002982: E6,1757  E6,1756               AK2                EQUALS   AK         +2
002983:
002984: E6,1757                        EDRIVEX            ERASE    +2                                    #  NEEDLER DISPLAY REGS AT 1800 DEGREES.
002985: E6,1762  E6,1760               EDRIVEY            EQUALS   EDRIVEX    +1                         #  SO THAT 384 BITS REPRESENT 42 3/16 DEG.
002986: E6,1762  E6,1761               EDRIVEZ            EQUALS   EDRIVEX    +2
002987:
002988:
002989:                                                                                                  #           INITVEL STORAGE.  ALSO USED BY P31,P34,P35,P74,P75,S40.1 AND DOWNLINKED. (6D)
002990:
002991: E6,1762                        DELVEET3           ERASE    +5                                    #  I(6)     DELTA V IN INERTIAL
002992:
002993:
002994:                                                                                                  #           P32-P33 STORAGE.                                             (2)
002995:
002996: E6,1770                        TCDH               ERASE    +1                                    #   I(2) T2 CDH TIME IN C.S. ALSO DWNLINKED
002997:
002998:
002999: E6,1772  E4,1733               END-E6             EQUALS   RTX2                                  #  LAST LOCATION USED IN E6.
003000:
003001:                                                                                                  #                  EBANK-7 ASSIGNMENTS
003002:
003003: E7,1400                                           SETLOC   3400
003004:
003005:
003006:                                                                                                  #           P35 CONSTANTS.         -PAD LOADED-                          (4D)
003007:
003008: E7,1400                        ATIGINC            ERASE    +1                                    #  B(2)PL  *MUST BE AT 1400 FOR SYSTEMSTEST
003009: E7,1402                        PTIGINC            ERASE    +1                                    #  B(2)PL
003010:
003011:
003012:                                                                                                  #           AOTMARK STORAGE.       -PAD LOADED-                          (6D)
003013:
003014: E7,1404                        AOTAZ              ERASE    +2                                    #  B(3)PL
003015: E7,1407                        AOTEL              ERASE    +2                                    #  B(3)PL
003016:
003017:
003018:                                                                                                  #           LANDING RADAR.         -PAD LOADED-                          (10D)
003019:
003020: E7,1412                        LRALPHA            ERASE    +4                                    #  B(1)    POS1 X ROTATION      * MUST *
003021: E7,1417  E7,1413               LRBETA1            EQUALS   LRALPHA    +1                         #  B(1)    POS1 Y ROTATION    *  BE  *
003022: E7,1417  E7,1414               LRALPHA2           EQUALS   LRBETA1    +1                         #  B(1)    POS2 X ROTATION    *  IN  *
003023: E7,1417  E7,1415               LRBETA2            EQUALS   LRALPHA2   +1                         #  B(1)    POS2 Y ROTATION    * ORDER *
003024: E7,1417  E7,1416               HANGLE             EQUALS   LRBETA2    +1                         #  B(1)
003025:
003026:                                                                                                  #           THROTTLE STORAGE.      -PAD LOADED-                          (1D)
003027:
003028: E7,1417                        PIF                ERASE                                          #  B(2)   THROTTLE
003029: E7,1420                        ZOOMTDP            ERASE    +1
003030: E7,1422  E7,1421               ZOOMTIME           EQUALS   ZOOMTDP    +1                         #  B(1)PL TIME OF DPS THROTTLE-UP COMMAND
003031:
003032:                                                                                                  #           LANDING RADAR      -PAD LOADED-                              (2D)
003033:
003034:                                                                                                  #           P30-P40 INTERFACE UNSHARED.                   (2D)
003035:
003036: E7,1422                        TIG(AS)            ERASE    +1                                    #  B(2)
003037: E7,1424                        TIG                ERASE    +1                                    #  B(2)
003038:
003039:                                                                                                  #           P30-P40 INTERFACE UNSHARED.                                  (3D)
003040:
003041: E7,1426                        TTOGO              ERASE    +1                                    #  B(2)
003042: E7,1430  E7,1426               TFI                EQUALS   TTOGO
003043: E7,1430                        WHICH              ERASE                                          #  B(1)
003044:
003045:
003046:                                                                                                  #           LPS20.1 STORAGE     -ALL ARE PRM -                           (9D)
003047:
003048: E7,1431                        LS21X              ERASE                                          #  I(1)
003049: E7,1432                        UNUSED8            ERASE
003050: E7,1433                        LOSCOUNT           ERASE                                          #  B(1)
003051: E7,1434                        LOSVEL             ERASE    +5                                    #  I(6)
003052: E7,1442                        MLOSV              ERASE    +1                                    #  I(2) MAGNITUDE OF LOS, METERS B-29
003053:
003054:
003055:
003056:                                                                                                  #           L SR22.3 (RENDEZVOUS NAVIGATION) STORAGE.                    (4D)
003057:
003058:                                                                                                  #     RETAIN THE ORDER OF AIG TO TRKMKCNT FOR DOWNLINK PURPOSES.
003059: E7,1444                        AIG                ERASE                                          #  B(1)OUT  GIMGAL ANGLES
003060: E7,1445                        AMG                ERASE                                          #  B(1)OUT  (MUST BE
003061: E7,1446                        AOG                ERASE                                          #  B(1)OUT   CONSECUTIVE)
003062:
003063: E7,1447                        TRKMKCNT           ERASE                                          #  B(1)TMP  TEMPORARY MARK STORAGE.
003064: E7,1450  E7,1447               MARKCTR            =        TRKMKCNT
003065:
003066:
003067:                                                                                                  #           P32-P35, P72-P75 STORAGE.  -PERMANENT-                       (6)
003068:
003069: E7,1450                        NORMEX             ERASE                                          #  B(1) PRM SAVE FOR Q
003070: E7,1451                        QSAVED             ERASE                                          #  B(1) PRM SAVE FOR Q
003071: E7,1452                        RTRN               ERASE                                          #  B(1) PRM SAVE FOR Q
003072: E7,1453                        NN                 ERASE    +1                                    #  B(2)
003073: E7,1455                        SUBEXIT            ERASE                                          #  B(1) PRM SAVE Q
003074:
003075:
003076: E7,1456                        E7OVERLA           EQUALS                                         #           START OF E7 OVERLAYS
003077:
003078: E7,1456  E7,1456               WHOCARES           EQUALS   E7OVERLA                              #  A DUMMY FOR E-BANK INSENSITIVE 2CADRS.
003079:
003080:                                                                                                  #  *******  OVERLAY NUMBER 0 IN EBANK 7  *******
003081:
003082:
003083:
003084:                                                                                                  #  RENDEZVOUS GUIDANCE STORAGE -P32....P35-                              (89D)
003085:
003086: E7,1456  E7,1564               TSTRT              EQUALS   DELDV                                 #  MIDCOURSE START TIME
003087: E7,1456  E7,1560               TDEC2              EQUALS   DELVCSI                               #  TEMP STORAGE FOR INTEGRATION TIME INPUT
003088: E7,1456  E7,1562               KT                 EQUALS   DELVTPI                               #  TEMP STORAGE FOR MIDCOURSE DELTA TIME
003089: E7,1456                        VACT1              ERASE    +5D                                   #  VELOCITY VECTOR OF ACTIVE  AT CSI TIME
003090: E7,1464                        RPASS1             ERASE    +5D                                   #  POSITION VECTOR OF PASSIVE AT CSI TIME
003091: E7,1472                        VPASS1             ERASE    +5D                                   #  VELOCITY VECTOR OF PASSIVE AT CSI TIME
003092: E7,1500                        VACT2              ERASE    +5D                                   #  VELOCITY VECTOR OF ACTIVE  AT CDH TIME
003093: E7,1506                        RPASS2             ERASE    +5D                                   #  POSITION VECTOR OF PASSIVE AT CDH TIME
003094: E7,1514                        VPASS2             ERASE    +5D                                   #  VELOCITY VECTOR OF PASSIVE AT CDH TIME
003095: E7,1522                        RACT3              ERASE    +5D                                   #  POSITION VECTOR OF ACTIVE  AT TPI TIME
003096: E7,1530                        VACT3              ERASE    +5D                                   #  VELOCITY VECTOR OF ACTIVE  AT TPI TIME
003097: E7,1536                        RPASS3             ERASE    +5D                                   #  POSITION VECTOR OF PASSIVE AT TPI TIME
003098: E7,1544                        VPASS3             ERASE    +5D                                   #  VELOCITY VECTOR OF PASSIVE AT TPI TIME
003099: E7,1552                        VACT4              ERASE    +5D                                   #  VELOCITY VECTOR OF ACTIVE  AT INTERCEPT
003100: E7,1560  E7,1530               UNVEC              EQUALS   VACT3                                 #  CDHMVR UNIT VECTOR TEMP STORAGE.
003101: E7,1560                        DELVCSI            ERASE    +1D                                   #  THRUST VALUE AT CSI
003102: E7,1562                        DELVTPI            ERASE    +1D                                   #  THRUST VALUE AT TPI OR MID
003103: E7,1564                        DELDV              ERASE    +1D
003104: E7,1566  E7,1562               DELVMID            EQUALS   DELVTPI
003105: E7,1566                        DIFFALT            ERASE    +1D                                   #  ALT DIFFERENCE AT CDH
003106: E7,1570                        POSTCSI            ERASE    +1                                    #  PERIGEE ALTITUDE AFTER CSI MANEUVER
003107: E7,1572                        POSTCDH            ERASE    +1                                    #  PERIGEE ALTITUDE AFTER CDH MANEUVER
003108: E7,1574                        POSTTPI            ERASE    +1                                    #  PERIGEE ALTITUDE AFTER TPI MANEUVER
003109: E7,1576  E7,1574               LOOPCT             EQUALS   POSTTPI                               #  CSI NEWTON ITERATION COUNTER
003110: E7,1576  E7,1572               HAFPA1             EQUALS   POSTCDH                               #  HALF PERIOD
003111: E7,1576                        GAMPREV            ERASE    +1                                    #  PREVIOUS GAMMA
003112: E7,1600  E7,1562               DVPREV             EQUALS   DELVTPI                               #  PREVIOUS DELVCSI
003113: E7,1600                        CSIALRM            ERASE    +1                                    #  FIRST SOLUTION ALARM
003114: E7,1602                        VERBNOUN           ERASE
003115: E7,1603  E7,1600               TITER              EQUALS   CSIALRM                               #  ITERATION COUNTER
003116: E7,1603                        RDOTV              ERASE    +1
003117: E7,1605  E7,1472               VAPREC             EQUALS   VPASS1                                #  I(6) S-S PREC VEC FOR NOM TPI TIME(ACT V
003118: E7,1605  E7,1464               RAPREC             EQUALS   RPASS1                                #  I(6) S-S PREC VEC FOR NOM TPI TIME(ACT V
003119: E7,1605  E7,1514               VPPREC             EQUALS   VPASS2                                #  I(6) S-S PREC VEC FOR NOM TPI TIME(PASS
003120: E7,1605  E7,1506               RPPREC             EQUALS   RPASS2                                #  I(6) S-S PREC VEC FOR NOM TPI TIME(PASS
003121: E7,1605  E7,1562               DELEL              EQUALS   DELVTPI                               #  I(2) S-S
003122: E7,1605  E7,1564               DELTEE             EQUALS   DELDV                                 #  I(2)S-S
003123: E7,1605  E7,1560               SECMAX             EQUALS   DELVCSI                               #  I(2) S-S MAX STOP SIZE FOR ROUTINE
003124: E7,1605  E7,1574               DELTEEO            EQUALS   POSTTPI                               #  I(2) S-S BACK VALUES OF DELTA TIME
003125: E7,1605                        CENTANG            ERASE    +1                                    #  I(2) S-S CENTRAL ANGLE COVERED(TPI-TPF)
003126:
003127:                                                                                                  #          P34-P35 STORAGE.  DOWNLINKED.
003128:
003129:                                                                                                  #  (2D)
003130:
003131: E7,1607  E7,1564               DELVTPF            EQUALS   DELDV                                 #  I(2) DELTA V FOR TPF
003132:
003133:                                                                                                  #           SOME P47 STORAGE                                             (6D)
003134:
003135: E7,1607                        DELVIMU            ERASE    +5                                    #  I(6)DSP NOUN 83 FOR P47 DELTA V (IMU)
003136:
003137:
003138:                                                                                                  #           P30-P40 COMMON STORAGE.                                      (3D)
003139:
003140: E7,1615                        TPASS4             ERASE    +1                                    #  INTERCEPT TIME
003141: E7,1617                        QTEMP              ERASE                                          #  I(1)TMP COMMON RETURN SAVE REGISTER.
003142:
003143:
003144:
003145:                                                                                                  #           P32,33,34 STORAGE.                                            (6D)
003146:
003147: E7,1620                        TCSI               ERASE    +1                                    #  B(2) TMP CSI TIME IN CENTISECONDS
003148: E7,1622                        TTPI               ERASE    +1                                    #  B(2) TMP TPI TIME IN CENTISECONDS
003149: E7,1624                        TTPI0              ERASE    +1                                    #  B(2) TMP TTPI STORAGE FOR RECYCLE
003150:
003151:
003152:                                                                                                  #           P30,P40 INTERFACE.                                            (21D)
003153:
003154: E7,1626                        RTIG               ERASE    +19D                                  #  I(6)TMP
003155: E7,1652  E7,1634               VTIG               EQUALS   RTIG       +6                         #  I(6)TMP
003156: E7,1652  E7,1642               DELVSIN            EQUALS   VTIG       +6                         #  I(6)TMP
003157: E7,1652  E7,1650               DELVSAB            EQUALS   DELVSIN    +6                         #  I(2)TMP
003158: E7,1652  E7,1650               VGDISP             =        DELVSAB
003159:
003160:
003161: E7,1652                        QTEMP1             ERASE                                          #  I(1)TMP HOLDS RETURN.
003162: E7,1653  E7,1652               RGEXIT             EQUALS   QTEMP1                                #  SAVE Q
003163: E7,1653  E7,1652               SAVQR52            EQUALS   QTEMP1
003164:
003165:
003166:                                                                                                  #           INITVEL STORAGE.  (IN OVERLAY 0 AND OVERLAY 1.                (2D)
003167:                                                                                                  #                  (CALLS LAMBERT, CONIC SUBROUTINES)
003168:
003169: E7,1653  E7,1552               VTPRIME            EQUALS   VACT4                                 #  TOTAL VELOCITY AT DESIRED RADIUS
003170: E7,1653  E7,1603               ITCTR              EQUALS   RDOTV                                 #  ITERATION COUNTER
003171: E7,1653                        COZY4              ERASE    +1                                    #  COS OF ANGLE WHEN ROTATION STARTS
003172: E7,1655  E7,1564               X1INPUT            EQUALS   DELDV                                 #  X1 TEMP STORAGE
003173: E7,1655  E7,1576               INTIME             EQUALS   GAMPREV                               #  TIME OF RINIT
003174:
003175:
003176:
003177:                                                                                                  #           PERIAPO STORAGE. (2D)                                 (2D)
003178:
003179: E7,1655                        XXXALT             ERASE    +1                                    #  RADIUS TO LAUNCH PAD OR LANDING SIGHT
003180:
003181: E7,1657  E7,1657               END-IN/M           EQUALS   XXXALT     +2                         #  NEXT AVAIL ERASABLE AFTER INITVEL/MIDGIM
003182:
003183:                                                                                                  #           S40.1 STORAGE.                                               (19D)
003184:
003185: E7,1657                        BDT                ERASE    +18D                                  #  I(6) IN
003186: E7,1702  E7,1665               UT                 EQUALS   BDT        +6                         #  I(6)OUT THRUST DIRECTION
003187: E7,1702  E7,1673               VGTIG              EQUALS   UT         +6                         #  I(6)OUT
003188: E7,1702  E7,1673               VGPREV             =        VGTIG
003189:                                                                                                  #          S40.9 STORAGE.                                                (16D)
003190:
003191: E7,1702                        VG                 ERASE    +15D                                  #  I(6)TMP
003192: E7,1722  E7,1710               VRPREV             EQUALS   VG         +6                         #  I(6)TMP
003193: E7,1722  E7,1716               TNIT               EQUALS   VRPREV     +6                         #  I(2)TMP TIME SIMCE LAST CALL TO S40.9
003194: E7,1722  E7,1720               TNITPREV           EQUALS   TNIT       +2                         #  I(2)TMP PREVIOUS INIT.
003195:
003196:
003197:                                                                                                  #          P40 STORAGE.                                                  (6D)
003198:
003199:                                                                                                  #               F,MDOT,AND TDECAY MUST BE CONTIGUOUS FOR VLOAD.
003200: E7,1722                        F                  ERASE    +5                                    #  I(2)TMP  S40.1 GENERATES THIS FOR S40.3
003201: E7,1730  E7,1724               MDOT               EQUALS   F          +2                         #  I(2)TMP MASS CHNG RATE, KG/CS AT 2**3.
003202: E7,1730  E7,1726               TDECAY             EQUALS   MDOT       +2                         #  I(2)IN  DELTA-T TAILOFF, (2**28)CS.
003203:
003204:
003205:
003206:                                                                                                  #           MIDTOAV1(2) STORAGE.  (CALLED BY P40,P41,P42)                (1D)
003207:
003208: E7,1730                        IRETURN1           ERASE                                          #  B(1)     RETURN FROM MIDTOAV1 AND 2
003209:
003210:
003211:                                                                                                  #  ******* OVERLAY  NUMBER 1 IN EBANK 7  *******
003212:
003213:
003214:
003215:                                                                                                  #           P35-P40 INTERFACE.                                           (6D)
003216:
003217: E7,1731  E7,1472               VPASS4             EQUALS   VPASS1                                #  I(6)TMP VELOCITY OF PASSIVE AT INTERCEPT
003218:
003219:
003220:                                                                                                  #           INITVEL OVERLAYS RENDESVOUS GUIDANCE (LISTED IN OVERLAY O)
003221:
003222:                                                                                                  #           SOME P38-39,P78-79 STORAGE.                                  (2D)
003223:
003224: E7,1731  E7,1615               TINT               EQUALS   TPASS4                                #  I(2) TIME OF INTERCEPT
003225:
003226:
003227:                                                                                                  #           LAT - LONG TEMPORARIES. CAN OVERLAY WITH S40.1               (3D)
003228:
003229: E7,1731  E7,1657               ERADM              EQUALS   BDT                                   #  I(2)
003230: E7,1731  E7,1661               INCORPEX           EQUALS   ERADM      +2                         #  I(1)
003231:
003232:
003233:                                                                                                  #           LRS24.1 STORAGE. (CAN SHARE WITH P30'S)                      (40D)
003234:
003235: E7,1731  E7,1662               RLMSRCH            EQUALS   INCORPEX   +1                         #  I(6) TMP LM POSITION VECTOR
003236: E7,1731  E7,1670               VXRCM              EQUALS   RLMSRCH    +6                         #  I(6)    CM V X R VECTOR
003237: E7,1731  E7,1676               LOSDESRD           EQUALS   VXRCM      +6                         #  I(6)    DESIRED LOS VECTOR
003238: E7,1731  E7,1704               UXVECT             EQUALS   LOSDESRD   +6                         #  I(6)    X-AXIS SRCH PATTERN COORDS
003239: E7,1731  E7,1712               UYVECT             EQUALS   UXVECT     +6                         #  I(6)    Y-AXIS SRCH PATTERN COORDS
003240: E7,1731  E7,1720               DATAGOOD           EQUALS   UYVECT     +6                         #  B(1)DSP FOR R1 - ALL 1-S WHEN LOCKON
003241: E7,1731  E7,1721               OMEGDISP           EQUALS   DATAGOOD   +1                         #  B(2)    ANGLE OMEGA DISPLAYED IN R2
003242: E7,1731  E7,1721               OMEGAD             =        OMEGDISP                              #          PINBALL DEFINITION.
003243: E7,1731  E7,1723               NSRCHPNT           EQUALS   OMEGDISP   +2                         #  B(1)TMP SEARCH PATTERN POINT COUNTER.
003244: E7,1731  E7,1724               SAVLEMV            EQUALS   NSRCHPNT   +1                         #  I(6)S-S SAVES LOSVEL
003245:
003246:
003247:
003248:
003249:                                                                                                  #  ******* OVERLAY NUMBER 2 IN EBANK 7  *******
003250:
003251:
003252:
003253:                                                                                                  #           INCORP STORAGE IN E7.                                        (47D)
003254:
003255: E7,1731  E7,1456               TX789              EQUALS   E7OVERLA                              #  I(6)
003256: E7,1731  E7,1464               GAMMA              EQUALS   TX789      +6                         #  I(3)
003257: E7,1731  E7,1467               OMEGA              EQUALS   GAMMA      +3                         #  I(18)
003258: E7,1731  E7,1511               BVECTOR            EQUALS   OMEGA      +18D                       #  I(18)
003259: E7,1731  E7,1533               DELTAQ             EQUALS   BVECTOR    +18D                       #  I(2)
003260:                                                                                                  #           AOTMARK STORAGE                                              (3D)
003261:
003262: E7,1731  E7,1535               MARKCNTR           EQUALS   DELTAQ     +2                         #  I(1)
003263: E7,1731  E7,1536               XYMARK             EQUALS   MARKCNTR   +1                         #  B(1)
003264: E7,1731  E7,1537               MKDEX              EQUALS   XYMARK     +1                         #  B(1)TMP INDEX FOR AOTMARK
003265:
003266:
003267:                                                                                                  #           PLANET STORAGE.                                              (8D)
003268:
003269: E7,1731  E7,1540               PLANVEC            EQUALS   MKDEX      +1                         #  (6) REFER VECTOR OF PLANET
003270: E7,1731  E7,1546               TSIGHT             EQUALS   PLANVEC    +6                         #  (2) TIME OF MARK OR EST TIME OF MARK
003271:
003272:
003273:
003274:                                                                                                  #           LRS22.3 STORAGE. (CAN SHARE WITH P30'S AND OVERLAY LRS24.1   (30D).
003275:
003276: E7,1731  E7,1662               LGRET              EQUALS   INCORPEX   +1                         #  I(1) TMP
003277: E7,1731  E7,1662               RDRET              EQUALS   LGRET                                 #  B(1)  TEMP RETURN.
003278: E7,1731  E7,1662               IGRET              EQUALS   RDRET                                 #  B(1)  TEMP RETURN.
003279: E7,1731  E7,1663               MX                 EQUALS   RDRET      +1                         #  I(6)
003280: E7,1731  E7,1671               MY                 EQUALS   MX         +6                         #  I(6)
003281: E7,1731  E7,1677               MZ                 EQUALS   MY         +6                         #  I(6)
003282: E7,1731  E7,1663               E0                 EQUALS   MX                                    #  I(2)
003283: E7,1731  E7,1665               E1                 EQUALS   MX         +2                         #  I(2)
003284: E7,1731  E7,1667               E2                 EQUALS   MX         +4                         #  I(2)
003285: E7,1731  E7,1671               E3                 EQUALS   E2         +2                         #  I(2)
003286: E7,1731  E7,1705               SCALSHFT           EQUALS   MZ         +6                         #  B(1) SCALE SHIFT FOR EARTH/MOON
003287: E7,1731  E7,1706               RXZ                EQUALS   SCALSHFT   +1                         #  I(2)
003288: E7,1731  E7,1710               ULC                EQUALS   RXZ        +2                         #  I(6)
003289: E7,1731  E7,1716               SINTHETA           EQUALS   ULC        +6                         #  I(2)
003290:
003291:                                                                                                  #      ***** IN OVERLAY ONE *****
003292:
003293: E7,1731  E7,1732               N49FLAG            EQUALS   LRS22.1X                              #  B(1)S    FLAG INDICATING V0649 RESPONSE
003294:
003295:
003296:                                                                                                  #           LRS22.1 STORAGE. (MUST NOT SHARE WITH P30'S)                 (13D)
003297:
003298:                                                                                                  #           (OUTPUTS ARE TO LRS22.3)
003299:
003300: E7,1731  E7,1720               RDOTM              EQUALS   SINTHETA   +2                         #  B(2)OUT  RANGE-RATE READING
003301: E7,1731  E7,1722               RRTRUN             EQUALS   RDOTM      +2                         #  B(2)OUT  RR TRUNION ANGLE
003302: E7,1731  E7,1724               RRSHAFT            EQUALS   RRTRUN     +2                         #  B(2)OUT RRSHAFT ANGLE
003303:                                                                                                  #           RETAIN THE ORDER OF MKTIME TO RM FOR DOWNLINK PURPOSES
003304: E7,1731  E7,1726               MKTIME             EQUALS   RRSHAFT    +2                         #  B(2)OUT  TIME OF RR READING
003305: E7,1731  E7,1730               RM                 EQUALS   MKTIME     +2                         #  I(2)OUT  RANGE READING
003306: E7,1731  E7,1732               LRS22.1X           EQUALS   RM         +2                         #  B(1)TMP
003307: E7,1731  E7,1733               RRBORSIT           EQUALS   LRS22.1X   +1                         #  I(6) TMP RADAR BORESIGHT VECTOR.
003308: E7,1731  E7,1741               RDOTMSAV           EQUALS   RRBORSIT   +6                         #  B(2) S    RR RANGE-RATE(FPS)
003309:
003310:
003311:                                                                                                  #           LRS22.1  (SAME AS PREVIOUS SECTION) ALSO DOWNLINK FOR RR  (R29)(8D) CANNOT SHARE WITH L.A.D.
003312:
003313: E7,1731  E7,1743               TANGNB             EQUALS   RDOTMSAV   +2                         #  B(2)TMP  RR GIMBAL ANGLES
003314:
003315:
003316:
003317:
003318:                                                                                                  #           P21 STORAGE                                                  (2D)
003319:
003320: E7,1731  E7,1745               P21TIME            EQUALS   TANGNB     +2                         #  I(2)TMP
003321:
003322:
003323:                                                                                                  #           KALCMANU, VECPOINT STORAGE.  CALLED BY R63, R61, R65.         (12D)
003324:
003325: E7,1731     1247               SCAXIS             EQUALS   /AF/
003326: E7,1731     1255               POINTVSM           EQUALS   SCAXIS     +6                         #  I(6)
003327:
003328:
003329:                                                                                                  #  *******  OVERLAY NUMBER 3 IN EBANK 7  *******
003330:
003331:
003332:                                                                                                  #           BURN PROG STORAGE.                                           (2D)
003333:
003334: E7,1731  E7,1456               SAVET-30           EQUALS   E7OVERLA                              #  B(2)TMP TIG-30 RESTART
003335:
003336:
003337:                                                                                                  #           CROSS-PRODUCT STEERING ACTUAL                                (6D)
003338: E7,1731  E7,1460               UASTEER            EQUALS   SAVET-30   +2
003339: E7,1731  E7,1763               UDSTEER            EQUALS   LASTLADW   +3
003340: E7,1731  E7,1771               S40EXIT            =        UDSTEER    +6
003341: E7,1731  E7,1772               VGBODY             =        S40EXIT    +1                         #  B(6)OUT SET.BY S41.1 VG LEM, SC.COORDS
003342: E7,1731  E7,1772               DELVCTL            =        VGBODY
003343:
003344:                                                                                                  #           SERVICER STORAGE.                                            (69D)
003345:
003346: E7,1731  E7,1466               DVTOTAL            EQUALS   UASTEER    +6                         #  B(2) DISPLAY NOUN
003347: E7,1731  E7,1470               ABDVCONV           EQUALS   DVTOTAL    +2                         #  I(2)
003348: E7,1731  E7,1472               DVCNTR             EQUALS   ABDVCONV   +2                         #  B(1)
003349: E7,1731  E7,1473               TGO                EQUALS   DVCNTR     +1                         #  B(2)
003350: E7,1731  E7,1475               R                  EQUALS   TGO        +2                         #  I(6)
003351: E7,1731  E7,1475               UNITGOBL           EQUALS   R                                     #  I(6)
003352: E7,1731  E7,1503               V                  EQUALS   R          +6
003353: E7,1731  E7,1503               DELVREF            EQUALS   V                                     #  I(6)
003354: E7,1731  E7,1511               HCALC              EQUALS   DELVREF    +6                         #  B(2)     LR
003355:
003356: E7,1731  E7,1513               ABVELINT           EQUALS   HCALC      +2                         #  B(2)
003357: E7,1731  E7,1515               ABVEL              EQUALS   ABVELINT   +2                         #  B(2) DISPLAY
003358: E7,1731  E7,1517               HDOTDISP           EQUALS   ABVEL      +2                         #  B(2) DISPLAY
003359: E7,1731  E7,1521               TTFDISP            EQUALS   HDOTDISP   +2                         #  B(2) DISPLAY
003360:
003361:
003362: E7,1731  E7,1523               UNIT/R/            EQUALS   TTFDISP    +2                         #  I(6)
003363:                                                                                                  #           (THE FOLLOWING SERVICER ERASABLES CAN BE SHARED WITH SECOND DPS GUIDANCE STORAGE)
003364:
003365: E7,1731  E7,1531               RN1                EQUALS   UNIT/R/    +6                         #  B(6)
003366: E7,1731  E7,1537               VN1                EQUALS   RN1        +6                         #  I(6)                      (IN ORDER  )
003367: E7,1731  E7,1545               PIPTIME1           EQUALS   VN1        +6                         #  B(2)                      (   FOR    )
003368: E7,1731  E7,1547               GDT1/2             EQUALS   PIPTIME1   +2                         #  I(6)                      (  COPY    )
003369: E7,1731  E7,1555               MASS1              EQUALS   GDT1/2     +6                         #  I(2)                      (  CYCLE   )
003370: E7,1731  E7,1557               R1S                EQUALS   MASS1      +2                         #  I(6)
003371: E7,1731  E7,1565               V1S                EQUALS   R1S        +6                         #  I(6)
003372:
003373:                                                                                                  #           ALIGNMENT/S40.2.3 COMMON STORAGE.                            (18D)
003374:
003375: E7,1731  E7,1573               XSMD               EQUALS   V1S        +6                         #  I(6)
003376: E7,1731  E7,1601               YSMD               EQUALS   XSMD       +6                         #  I(6)
003377: E7,1731  E7,1607               ZSMD               EQUALS   YSMD       +6                         #  I(6)
003378:
003379: E7,1731  E7,1573               XSCREF             =        XSMD
003380: E7,1731  E7,1601               YSCREF             =        YSMD
003381:
003382: E7,1731  E7,1607               ZSCREF             =        ZSMD
003383:
003384: E7,1731  E7,1615               END-ALIG           EQUALS   ZSMD       +6                         #  NEXT AVAIL ERASABLE AFTER ALIGN/S40.2,3
003385:
003386:                                                                                                  #  *******  OVERLAY NUMBER 4 IN EBANK 7  *******
003387:
003388:
003389:                                                                                                  #           AUTO-OPTICS STORAGE.  -R52-                                  (1)
003390:
003391: E7,1731  E7,1456               XNB1               =        WHOCARES                              #  THESE WHOCARES THINGS ARE REFERENCED.
003392: E7,1731  E7,1456               YNB1               =        WHOCARES                              #  BUT NOT USED IN SUNDANCE
003393: E7,1731  E7,1456               ZNB1               =        WHOCARES
003394:
003395:
003396:                                                                                                  #  VARIABLES FOR SECOND DPS GUIDANCE (THE LUNAR LANDING)                 (84D)
003397:
003398:                                                                                                  #  THESE ERASABLES MAY BE SHARED WITH CARE
003399:
003400: E7,1731  E7,1531               OURTEMPS           =        RN1                                   #  OVERLAY LAST PART OF SERVICER
003401: E7,1731  E7,1531               RGU                =        OURTEMPS                              #  I(6)    GUIDANCE
003402: E7,1731  E7,1540               LANDTEMP           =        OURTEMPS   +7                         #  B(6)     GUIDANCE
003403: E7,1731  E7,1546               TTF/8TMP           =        LANDTEMP   +6                         #  B(2)    GUIDANCE
003404: E7,1731  E7,1550               TABLTTF            =        TTF/8TMP   +2                         #  B(2)    GUIDANCE
003405: E7,1731  E7,1550               FCODD              =        TABLTTF                               #  B(2)    THROTTLE
003406: E7,1731  E7,1552               FP                 =        FCODD      +2                         #  B(2)    THROTTLE
003407: E7,1731  E7,1561               TPIPOLD            =        TABLTTF    +9D                        #  B(2)    GUIDANCE
003408: E7,1731  E7,1563               AZINCR             =        TPIPOLD    +2                         #  B(2)    GUIDANCE
003409: E7,1731  E7,1565               ELINCR             =        AZINCR     +2                         #  B(2)    GUIDANCE
003410: E7,1731  E7,1567               KEEP-2             =        ELINCR     +2                         #  B(2)    TO PREVENT PIPTIME1 OVERLAY
003411: E7,1731  E7,1567               /AFC/              =        TPIPOLD    +6                         #  B(2)    GUIDANCE AND  THROTTLE
003412: E7,1731  E7,1571               ANGTERM            =        /AFC/      +2                         #  I(6) GUIDANCE
003413: E7,1731  E7,1573               GOBLTIME           =        ANGTERM    +2                         #  B(2) NOMINAL TIG FOR CALC. OF GOBLATE.
003414:
003415:
003416: E7,1731  E7,1606               E2DPS              EQUALS   OURPERMS
003417:
003418:
003419:
003420:                                                                                                  #  THESE ERASABLES MUST NOT OVERLAY GOBLTIME OR SERVICER
003421: E7,1731  E7,1577               PIFPSET            =        GOBLTIME   +4                         #  B(1)    THROTTLE
003422: E7,1731  E7,1600               RTNHOLD            =        PIFPSET    +1                         #  B(1)    THROTTLE
003423: E7,1731  E7,1601               FWEIGHT            =        RTNHOLD    +1                         #  B(2)    THROTTLE
003424: E7,1731  E7,1603               PSEUDO55           =        FWEIGHT    +2                         #  B(1)   THROTTLE DOWNLINK
003425: E7,1731  E7,1604               TTHROT             =        PSEUDO55   +1                         #  B(1)    THROTTLE
003426:
003427:
003428:
003429:                                                                                                  #  THESE ERASABLES SHOULD NOT BE SHARED DURING P63, P64, P65, P66, P67
003430:
003431: E7,1731  E7,1537               WCHPHOLD           =        VN1                                   #  B(1)    GUIDANCE
003432:
003433: E7,1731  E7,1606               OURPERMS           =        TTHROT     +2                         #  MUSTN'T OVERLAY OURTEMPS OR SERVICER
003434: E7,1731  E7,1606               WCHPHASE           =        OURPERMS                              #  B(1)    GUIDANCE
003435: E7,1731  E7,1607               FLPASS0            =        WCHPHASE   +1                         #  B(1)    GUIDANCE
003436: E7,1731  E7,1610               TARGTDEX           =        FLPASS0    +1                         #  B(1)    GUIDANCE
003437: E7,1731  E7,1611               TPIP               =        TARGTDEX   +1                         #  B(2)
003438: E7,1731  E7,1613               VGU                =        TPIP       +2                         #  B(6)    GUIDANCE
003439: E7,1731  E7,1621               WM                 =        VGU        +6                         #  I(6) TMP - LUNAR ROTATION VECTOR (SM)
003440: E7,1731  E7,1627               LAND               =        WM         +6                         #  B(6)    GUIDANCE    CONTIGUOUS
003441: E7,1731  E7,1635               TTF/8              =        LAND       +6                         #  B(2)    GUIDANCE     CONTIGUOUS
003442: E7,1731  E7,1637               ACG                =        TTF/8      +2                         #  I(6) GUIDANCE
003443: E7,1731  E7,1645               JLING              =        ACG        +6                         #  I(6) GUIDANCE
003444: E7,1731  E7,1653               ELINCR1            =        JLING      +6                         #  B(1)    GUIDANCE
003445: E7,1731  E7,1654               AZINCR1            =        ELINCR1    +1                         #  B(1)     GUIDANCE
003446: E7,1731  E7,1655               ZERLINA            =        AZINCR1    +1                         #  B(1)     GUIDANCE
003447: E7,1731  E7,1656               ELVIRA             =        ZERLINA    +1                         #  B(1)     GUIDANCE
003448: E7,1731  E7,1657               FCOLD              =        ELVIRA     +1                         #  B(1)    THROTTLE
003449: E7,1731  E7,1660               LRADRET            =        FCOLD      +1                         #  B(1)    LR
003450: E7,1731  E7,1661               VSELECT            =        LRADRET    +1                         #  B(1)    LR
003451: E7,1731  E7,1662               HBEAMNB            =        VSELECT    +1                         #  I(6) LANDING RADAR
003452: E7,1731  E7,1670               VMEAS              =        HBEAMNB    +6                         #  B(2)    LR
003453: E7,1731  E7,1672               HMEAS              =        VMEAS      +2                         #  B(2)    LR
003454: E7,1731  E7,1674               VN2                =        HMEAS      +2                         #  B(6)    LR
003455: E7,1731  E7,1674               GNUR               =        VN2                                   #  B(6)     LR
003456: E7,1731  E7,1674               GNUV               =        VN2                                   #  B(6)     LR
003457: E7,1731  E7,1674               LRADRET1           =        VN2                                   #  B(1)     LR
003458: E7,1731  E7,1702               FUNNYDSP           =        VN2        +6                         #  B(2)    DISPLAY
003459: E7,1731  E7,1704               VHORIZ             =        FUNNYDSP   +2                         #  I(2) DISPLAY
003460: E7,1731  E7,1706               EOURPERM           EQUALS   VHORIZ     +2                         #  NEXT AVAILABLE ERASABLE AFTER OURPERMS
003461:
003462:
003463:                                                                                                  #  (ERASABLES WHICH OVERLAY THE ABOVE BLOCK)
003464:
003465: E7,1731  E7,1653               VDGVERT            =        ELINCR1                               #  B(2)    P65,66
003466: E7,1731  E7,1655               NIGNLOOP           =        ZERLINA                               #  B(1)    IGNALG
003467: E7,1731  E7,1656               NGUIDSUB           =        ELVIRA                                #  B(1)    IGNALG
003468: E7,1731  E7,1655               RODCOUNT           =        ZERLINA                               #  B(1)    P66
003469: E7,1731  E7,1656               WCHVERT            =        ELVIRA                                #  B(1)    P65,66,67
003470: E7,1731  E7,1702               FUELNEED           =        FUNNYDSP                              #  B(1)    DISPLAY
003471: E7,1731  E7,1702               TREDES             =        FUNNYDSP                              #  B(1)    DISPLAY
003472: E7,1731  E7,1703               LOOKANGL           =        FUNNYDSP   +1                         #  B(1)    DISPLAY
003473:
003474:
003475:                                                                                                  #  ERASABLES CONVENIENTLY DEFINABLE IN THE WORK AREA
003476:
003477: E7,1731                        PROJ               =        18D                                   #  I(2)    GUIDANCE
003478: E7,1731                        UNLRB/2            =        20D                                   #  I(6)    GUIDANCE (DURING P64 ONLY)
003479: E7,1731                        UNLR/2             =        20D                                   #  I(6)    GUIDANCE
003480:
003481:
003482:                                                                                                  #  THE END OF THE LUNAR LANDING ERASABLES
003483:
003484:
003485:
003486:                                                                                                  #           R12    (FOR LUNAR LANDING)                                   (6D)
003487:
003488: E7,1731     0156               LRLCTR             EQUALS   MPAC       +2                         #  B(1) LR DATA TEST
003489: E7,1731     0156               LRRCTR             EQUALS   MPAC       +2                         #  B(1)
003490: E7,1731     0156               LRMCTR             EQUALS   MPAC       +2                         #  B(1)
003491: E7,1731     0156               LRSCTR             EQUALS   MPAC       +2                         #  B(1)
003492:
003493:
003494:
003495:                                                                                                  #           LANDING ANALOGS DISPLAY STORAGE.                             (40D)
003496:
003497: E7,1731  E7,1706               UHYP               EQUALS   RXZ                                   #  B(6)PRM SM UNIT VECTOR
003498: E7,1731  E7,1714               UHZP               EQUALS   UHYP       +6                         #  B(6)PRM SM UNIT VECTOR
003499: E7,1731  E7,1722               VHY                EQUALS   UHZP       +6                         #  B(1)PRM VHY=VMP.UHYP   (AN ORDER)
003500: E7,1731  E7,1723               VHZ                EQUALS   VHY        +1                         #  B(1)PRM VHZ=VMP.UHZP   (-ED PAIR)
003501: E7,1731  E7,1724               DELVS              EQUALS   VHZ        +1                         #  B(6)PRM DELVS = WMXR
003502: E7,1731  E7,1732               VVECT              EQUALS   DELVS      +6                         #  B(3)PRM UPDATED S.P. VELOCITY VECTOR
003503: E7,1731  E7,1735               ALTBITS            EQUALS   VVECT      +3                         #  B(2)PRM ALTITUDE IN BIT UNITS, 2.34FT/BT
003504: E7,1731  E7,1737               RUNIT              EQUALS   ALTBITS    +2                         #  B(3)PRM SM HALF-UNIT R VECTOR
003505: E7,1731  E7,1745               LATVMETR           EQUALS   RUNIT      +6                         #  B(1)PRM LATVEL MONITOR METER  (AN ORDER)
003506: E7,1731  E7,1746               FORVMETR           EQUALS   LATVMETR   +1                         #  B(1)PRM FORVEL MONITOR METER  (-ED PAIR)
003507: E7,1731  E7,1747               ALTRATE            EQUALS   FORVMETR   +1                         #  B(1)PRM ALTITUDE RATE IN BIT UNITS
003508: E7,1731  E7,1750               LATVEL             EQUALS   ALTRATE    +1                         #  B(1)PRM LATERAL VELOCITY   (AN ORDER)
003509: E7,1731  E7,1751               FORVEL             EQUALS   LATVEL     +1                         #  B(1)PRM FORWARD VELOCITY   (-ED PAIR)
003510: E7,1731  E7,1752               TRAKLATV           EQUALS   FORVEL     +1                         #  B(1)PRM MONITOR FLG 4 LATVEL  (AN ORDER)
003511: E7,1731  E7,1753               TRAKFWDV           EQUALS   TRAKLATV   +1                         #  B(1)PRM MONIT. FLAG FOR FORVEL (ED PAIR)
003512: E7,1731  E7,1754               ALTSAVE            EQUALS   TRAKFWDV   +1                         #  B(2)PRM ALTITUDE IN BIT UNITS
003513: E7,1731  E7,1756               LADQSAVE           EQUALS   ALTSAVE    +2                         #  B(1)PRM SAVE Q IN LANDISP
003514: E7,1731  E7,1757               DALTRATE           EQUALS   LADQSAVE   +1                         #  B(1)PRM ALTITUDE RATE ERROR CORRECTION
003515: E7,1731  E7,1760               DT                 EQUALS   DALTRATE   +1                         #  B(1)PRM TIME 1 MINUS (PIPTIME +1)
003516: E7,1731  E7,1760               LASTLADW           EQUALS   DT                                    #  ONLY A TAG TO SIGNIFY LAST L.A.D. WORD
003517:
003518:
003519:                                                                                                  #  *******  OVERLAY NUMBER 5 IN EBANK 7  *******
003520:
003521:
003522:
003523:                                                                                                  #           ASCENT GUIDANCE ERASABLES.                                   (23D)
003524:
003525: E7,1731  E7,1615               RCO                EQUALS   END-ALIG                              #  I(2)TMP  TARGET RADIUS AND OUT-OF-PLANE
003526: E7,1731  E7,1617               YCO                EQUALS   RCO        +2                         #  I(2)TMP  DISTANCE, SCALED AT 2(24).
003527: E7,1731  E7,1621               RDOTD              EQUALS   YCO        +2                         #  I(2)TMP  TARGET VELOCITY COMPONENTS
003528: E7,1731  E7,1623               YDOTD              EQUALS   RDOTD      +2                         #  I(2)TMP SCALING IS 2(7)M/CS.
003529: E7,1731  E7,1625               ZDOTD              EQUALS   YDOTD      +2                         #  I(2)TMP
003530: E7,1731  E7,1627               XRANGE             EQUALS   ZDOTD      +2                         #  B(2)TMP
003531: E7,1731  E7,1631               APO                EQUALS   XRANGE     +2                         #  B(2)TMP  APOLUNE ALTITUDE DESIRED - M.
003532:                                                                                                  #           SCALED AT 2(2().
003533: E7,1731  E7,1633               AT                 EQUALS   APO        +2                         #  I(2)TMP  ENGINE DATA -- THRUST ACC.*2(9)
003534: E7,1731  E7,1635               VE                 EQUALS   AT         +2                         #  I(2)TMP  EXHAUST VELOCITY * 2(7)M/CS.
003535: E7,1731  E7,1637               TTO                EQUALS   VE         +2                         #  I(2)TMP  TAILOFF TIME * 2(17)CS.
003536: E7,1731  E7,1641               TBUP               EQUALS   TTO        +2                         #  I(2)TMP  (M/MDOT) * 2(17)CS.
003537: E7,1731  E7,1643               1/DV1              EQUALS   TBUP       +2                         #  B(2)TMP  ATMAG
003538: E7,1731  E7,1645               1/DV2              EQUALS   1/DV1      +2                         #  B(2)TMP  ATMAG
003539: E7,1731  E7,1647               1/DV3              EQUALS   1/DV2      +2                         #  B(2)TMP  ATMAG
003540: E7,1731  E7,1651               QAXIS              EQUALS   1/DV3      +2                         #  B(6)
003541: E7,1731  E7,1657               /R/MAG             EQUALS   QAXIS      +6                         #  I(2)TMP
003542: E7,1731  E7,1661               LAXIS              EQUALS   /R/MAG     +2                         #  I(6)TMP
003543: E7,1731  E7,1667               ZAXIS1             EQUALS   LAXIS      +6                         #  I(6)TMP  SYSTEM (R,L,Z).
003544: E7,1731  E7,1675               RDOT               EQUALS   ZAXIS1     +6                         #  I(2)TMP  RADIAL RATE *2 (-7).
003545: E7,1731  E7,1677               YDOT               EQUALS   RDOT       +2                         #  I(2)TMP  VEL. NORMAL TO REF. PLANE*2(-7)
003546: E7,1731  E7,1701               ZDOT               EQUALS   YDOT       +2                         #  I(2)TMP  DOWN RANGE VEL *2(-7).
003547: E7,1731  E7,1703               GEFF               EQUALS   ZDOT       +2                         #  I(2)TMP  EFFECTIVE GRAVITY
003548: E7,1731  E7,1705               Y                  EQUALS   GEFF       +2                         #  I(2)TMP  OUT-OF-PLANE DIST *2(24)M
003549: E7,1731  E7,1707               DRDOT              EQUALS   Y          +2                         #  I(2)TMP  RDOTD - RDOT
003550: E7,1731  E7,1711               DYDOT              EQUALS   DRDOT      +2                         #  I(2)TMP  YDOTD - YDOT
003551: E7,1731  E7,1713               DZDOT              EQUALS   DYDOT      +2                         #  I(2)TMP  ZDOTD - ZDOT
003552: E7,1731  E7,1715               PCONS              EQUALS   DZDOT      +2                         #  I(2)TMP  CONSTANT IN ATR EQUATION
003553: E7,1731  E7,1717               YCONS              EQUALS   PCONS      +2                         #  I(2)TMP  CONSTANT IN ATY EQUATION
003554: E7,1731  E7,1721               PRATE              EQUALS   YCONS      +2                         #  I(2)TMP  RATE COEFF. IN ATR EQUATION
003555: E7,1731  E7,1723               YRATE              EQUALS   PRATE      +2                         #  I(2)TMP  RATE COEFF. IN ATY EQUATION
003556: E7,1731  E7,1731               ATY                EQUALS   YRATE      +6                         #  I(2)TMP  OUT-OF-PLANE THRUST COMP.*2(9)
003557: E7,1731  E7,1733               ATR                EQUALS   ATY        +2                         #  I(2)TMP  RADIAL THRUST COMP.*2(9)
003558: E7,1731  E7,1735               ATP                EQUALS   ATR        +2                         #  I(2)TMP  DOWN-RANGE THRUST COMP
003559: E7,1731  E7,1737               YAW                EQUALS   ATP        +2                         #  I(2)TMP
003560: E7,1731  E7,1741               PITCH              EQUALS   YAW        +2                         #  I(2)RMP
003561: E7,1731  E7,1743               ENGOFFDT           EQUALS   PITCH      +2                         #  B(1)TMP PROTECTION OFENGOFF1 CALL
003562: E7,1731  E7,1744               VGVECT             EQUALS   ENGOFFDT   +1                         #  I(6)OUT  VELOCITY-TO-BE-GAINED
003563: E7,1731  E7,1752               TXO                EQUALS   VGVECT     +6                         #  I(2)TMP  TIME AT WHICH X-AXIS OVERRIDE
003564:
003565:                                                                                                  #  END OF THE ASCENT GUIDANCE ERASABLES.
003566:
003567:                                                                                                  #  P10-P11 ERASABLES.
003568: E7,1731  E7,1426               P1XTMIN            EQUALS   TTOGO
003569: E7,1731  E7,1662               P1XITCNT           EQUALS   INCORPEX   +1
003570: E7,1731  E7,1663               RCSMINT            =        P1XITCNT   +1
003571: E7,1731  E7,1671               P1XDELTT           =        RCSMINT    +6
003572: E7,1731  E7,1673               TCSITPF            =        P1XDELTT   +2
003573: E7,1731  E7,1675               RLSBRCS            =        TCSITPF    +2
003574: E7,1731  E7,1703               RLEMT2             =        RLSBRCS    +6
003575: E7,1731  E7,1705               VCSMINT            =        RLEMT2     +2
003576: E7,1731  E7,1713               INJANGLE           =        VCSMINT    +6
003577: E7,1731  E7,1715               INJALT             =        INJANGLE   +2
003578: E7,1731  E7,1717               P1XVVER            =        INJALT     +2
003579: E7,1731  E7,1721               P1XVHOR            =        P1XVVER    +2
003580: E7,1731  E7,1723               RP1XROT            =        P1XVHOR    +2
003581: E7,1731  E7,1731               VP1XROT            =        RP1XROT    +6
003582: E7,1731  E7,1737               P1XMAX             =        VP1XROT    +6
003583: E7,1731  E7,1741               TPITIME            =        P1XMAX     +2
003584: E7,1731  E7,1743               INJTIME            =        TPITIME    +2
003585: E7,1731  E7,1745               CDHDELH            =        INJTIME    +2
003586: E7,1731  E7,1747               ULVEC              =        CDHDELH    +2
003587: E7,1731  E7,1755               P1XDT              =        ULVEC      +6
003588: E7,1731  E7,1757               TPIANGLE           =        P1XDT      +2
003589: E7,1731  E7,1761               UNVEC2             =        TPIANGLE   +2
003590: E7,1731  E7,1767               P11VTPF            =        UNVEC2     +6
003591:
003592:                                                                                                  #           VARIOUS DISPLAY REGISTERS.  BALLANGS                         (3D)
003593:
003594: E7,1731  E7,1775               FDAIX              EQUALS   VGBODY     +3                         #  I(1)
003595: E7,1731  E7,1776               FDAIY              =        FDAIX      +1                         #  I(1)
003596: E7,1731  E7,1777               FDAIZ              =        FDAIY      +1                         #  I(1)
003597:
003598:
003599:                                                                                                  #  THE FOLLOWING CARDS KEEP THE ASSEMBLER HAPPY UNTIL THE SYMBOLS ARE DELETED FROM THE PINBALL NOUN TABLES.
003600:
003601: E7,1731  0000007               CPHIXATT           EQUALS   SPARE
003602:
003603: E7,1731  E7,1731               CURSOR             EQUALS   END-E7.0
003604: E7,1731  E7,1731               SPIRAL             EQUALS   END-E7.0
003605: E7,1731  E7,1731               POSCODE            EQUALS   END-E7.0
003606:
003607: E7,1731  E7,1731               LANDLAT            EQUALS   END-E7.0
003608: E7,1731  E7,1731               LANDLONG           EQUALS   END-E7.0
003609: E7,1731  E7,1731               LANDALT            EQUALS   END-E7.0
003610:
003611: E7,1731  E7,1731               END-E7.0           EQUALS   IRETURN1   +1                         #  FIRST UNUSED LOCATION IN E7 OVERLAY 0
003612: E7,1731  E7,1733               END-E7.1           EQUALS   N49FLAG    +1                         #  FIRST UNUSED LOCATION IN E7 OVERLAY 1
003613: E7,1731  E7,1747               END-E7.2           EQUALS   P21TIME    +2                         #  FIRST UNUSED LOCATION IN E7 OVERLAY 2
003614: E7,1731  E7,1771               END-E7.3           EQUALS   P11VTPF    +2                         #  FIRST UNUSED LOCATION IN E7 OVERLAY 3
003615: E7,1731     4000               END-E7.4           EQUALS   FDAIZ      +1                         #  FIRST UNUSED LOCATION IN E7 OVERLAY 4
003616: E7,1731  E7,1754               END-E7.5           EQUALS   TXO        +2                         #  FIRST UNUSED LOCATION IN E7 OVERLAY 5
003617: E7,1731                        END-E7             EQUALS   3777                                  #  **LAST LOCATION USED IN E7 **

End of include-file ERASABLE_ASSIGNMENTS.agc.  Parent file is MAIN.agc


