
Source Code


000002:                                                                                                  ## Copyright:   Public domain.
000003:                                                                                                  ## Filename:    EXTENDED_VERBS.agc
000004:                                                                                                  ## Purpose:     A section of an attempt to reconstruct Sundance revision 306
000005:                                                                                                  ##              as closely as possible with available information. Sundance
000006:                                                                                                  ##              306 is the source code for the Lunar Module's (LM) Apollo
000007:                                                                                                  ##              Guidance Computer (AGC) for Apollo 9. This program was created
000008:                                                                                                  ##              using the mixed-revision SundanceXXX as a starting point, and
000009:                                                                                                  ##              pulling back features from Luminary 69 believed to have been
000010:                                                                                                  ##              added based on memos, checklists, observed address changes,
000011:                                                                                                  ##              or the Sundance GSOPs.
000012:                                                                                                  ## Assembler:   yaYUL
000013:                                                                                                  ## Contact:     Ron Burkey <info@sandroid.org>.
000014:                                                                                                  ## Website:     www.ibiblio.org/apollo/index.html
000015:                                                                                                  ## Mod history: 2020-07-24 MAS  Created from SundanceXXX.
000016:
000017:
000018:
000019: 07,2622                                           BANK     7
000020: 43,2000                                           SETLOC   EXTVERBS
000021: 43,2000                                           BANK
000022:
000023: 43,2000  E5,1737                                  EBANK=   OGC
000024:
000025: 43,2000                                           COUNT*   $$/EXTVB
000026:                                                                                                  #  FAN-OUT
000027:
000028: 43,2000           50154        GOEXTVB            INDEX    MPAC                                  #  VERB-40 IS IN MPAC
000029: 43,2001           02002                           TC       LST2FAN                               #  FAN AS BEFORE.
000030:
000031: 43,2002           02130        LST2FAN            TC       VBZERO                                #  VB40 ZERO (USED WITH NOUN 20 OR 72 ONLY)
000032: 43,2003           02157                           TC       VBCOARK                               #  VB41 COARSE ALIGN (USED WITH NOUN 20 OR
000033:                                                                                                  #                                  72 ONLY)
000034: 43,2004           02303                           TC       IMUFINEK                              #  VB42 FINE ALIGN IMU
000035: 43,2005           02646                           TC       IMUATTCK                              #  VB43  LOAD IMU ATTITUDE ERROR METERS.
000036: 43,2006           02262                           TC       RRDESEND                              #  VB44 TERMINATE CONTINUOUS DESIGNATE
000037: 43,2007           03216                           TC       V45                                   #  VB45 W MATRIX MONITOR
000038: 43,2010           02120                           TC       ALM/END                               #  VB46 SPARE
000039: 43,2011           02342                           TC       V47TXACT                              #  VB47 AGS INITIALIZATION
000040: 43,2012           03151                           TC       DAPDISP                               #  VB48  LOAD A/P DATA
000041: 43,2013           12765                           TCF      CREWMANU                              #  VB49 START AUTOMATIC ATTITUDE MANEUVER
000042: 43,2014           02334                           TC       GOLOADLV                              #  VB50 PLEASE PERFORM
000043: 43,2015           02120                           TC       ALM/END                               #  VB51 SPARE
000044: 43,2016           02334                           TC       GOLOADLV                              #  VB52 PLEASE MARK X - RETICLE.
000045: 43,2017           02334                           TC       GOLOADLV                              #  VB53 PLEASE MARK Y - RETICLE.
000046: 43,2020           02334                           TC       GOLOADLV                              #  VB54 PLEASE MARK X OR Y - RETICLE
000047: 43,2021           02354                           TC       ALINTIME                              #  VB55 ALIGN TIME
000048: 43,2022           03002                           TC       TRMTRACK                              #  VB56 TERMINATE TRACKING - P20 + P25
000049: 43,2023           02120                           TC       ALM/END                               #  VB57 SPARE
000050: 43,2024           02120                           TC       ALM/END                               #  VB58 SPARE
000051: 43,2025           02120                           TC       ALM/END                               #  VB59 SPARE
000052: 43,2026           02774                           TC       DAPATTER                              #  VB60 DISPLAY DAP ATTITUDE ERROR
000053: 43,2027           02152                           TC       LRPOS2K                               #  VB61 COMMAND LR TO POSITION 2.
000054: 43,2030           02414                           TC       R04                                   #  VB62 SAMPLE RADAR ONCE PER SECOND
000055: 43,2031           02777                           TC       TOTATTER                              #  VB63 DISPLAY TOTAL ATTITUDE ERROR
000056: 43,2032           02120                           TC       ALM/END                               #  VB64 SPARE
000057: 43,2033           03224                           TC       SNUFFOUT                              #  VB65 DISABLE U,V JETS DURING DPS BURNS.
000058: 43,2034           03156                           TC       ATTACHED                              #  VB66 ATTACHED   MOVE THIS TO OTHER STATE
000059: 43,2035           02120                           TC       ALM/END                               #  VB67 SPARE
000060: 43,2036           02120                           TC       ALM/END                               #  VB68 SPARE
000061: 43,2037           02037        VERB69             TC       VERB69                                #  VB69 FORCE A HARDWARE RESTART
000062: 43,2040           03724                           TC       V70UPDAT                              #  VB70 UPDATE LIFTOFF TIME.
000063: 43,2041           03726                           TC       V71UPDAT                              #  VB71 UNIVERSAL UPDATE - BLOCK ADDRESS.
000064: 43,2042           03730                           TC       V72UPDAT                              #  VB72 UNIVERSAL UPDATE - SINGLE ADDRESS.
000065: 43,2043           03732                           TC       V73UPDAT                              #  VB73 UPDATE AGC TIME (OCTAL).
000066: 43,2044           03051                           TC       DNEDUMP                               #  VB74 INITIALIZE DOWN-TELEMETRY PROGRAM
000067:                                                                                                  #         FOR ERASABLE DUMP.
000068: 43,2045           03227                           TC       OUTSNUFF                              #  VB75 ENABLE U,V JETS DURING DPS BURNS.
000069:
000070: 43,2046           02741                           TC       MINIMP                                #  VB76 MINIMUM IMPULSE MODE
000071: 43,2047           02746                           TC       NOMINIMP                              #  VB77 RATE COMMAND MODE
000072: 43,2050           02406                           TC       R77                                   #  VB78 START LR SPURIOUS RETURN TEST
000073: 43,2051           02622                           TC       R77END                                #  VB79 TERMINATE LR SPURIOUS RETURN TEST
000074: 43,2052           03056                           TC       LEMVEC                                #  VB80 UPDATE LEM STATE VECTOR
000075: 43,2053           03062                           TC       CSMVEC                                #  VB81 UPDATE CSM STATE VECTOR
000076: 43,2054           02706                           TC       V82PERF                               #  VB82 REQUEST ORBIT PARAM DISPLAY (R30)
000077: 43,2055           02716                           TC       V83PERF                               #  VB83 REQUEST REND PARAM DISPLAY (R31)
000078: 43,2056           02757                           TC       R32                                   #  VB84 START TARGET DELTA V (R32)
000079: 43,2057           02120                           TC       ALM/END                               #  VB85 SPARE
000080: 43,2060           02120                           TC       ALM/END                               #  VB86 SPARE
000081: 43,2061           02120                           TC       ALM/END                               #  VB87 SPARE
000082: 43,2062           02120                           TC       ALM/END                               #  VB88 SPARE
000083: 43,2063           02724                           TC       V89PERF                               #  VB89 ALIGN XORZ LEM AXIS ALONG LOS (R63)
000084: 43,2064           02733                           TC       V90PERF                               #  VB90 OUT OF PLANE RENDEZVOUS DISPLAY
000085: 43,2065           03114                           TC       GOSHOSUM                              #  VB91 DISPLAY BANK SUM.
000086: 43,2066           03100                           TC       SYSTEST                               #  VB92 OPERATE IMU PERFORMANCE TEST.
000087: 43,2067           03107                           TC       WMATRXNG                              #  VB93 CLEAR RENDWFLG
000088: 43,2070           02120                           TC       ALM/END                               #  VB94 SPARE
000089: 43,2071           03075                           TC       UPDATOFF                              #  VB95 NO STATE VECTOR UPDATE ALLOWED
000090: 43,2072           03211                           TC       VERB96                                #  VB96 INTERRUPT INTEGRATION AND GO TO POO
000091: 43,2073           02120                           TC       ALM/END                               #  VB97 SPARE
000092: 43,2074           02120                           TC       ALM/END                               #  VB98 SPARE
000093: 43,2075           02334                           TC       GOLOADLV                              #  VB99 PLEASE ENABLE ENGINE
000094:
000095:                                                                                                  #  END OF EXTENDED VERB FAN
000096:
000097: 43,2076           11045        TESTXACT           CCS      EXTVBACT                              #  ARE EXTENDED VERBS BUSY
000098: 43,2077           02120                           TC       ALM/END                               #  YES, TURN ON OPERATOR LIGHT
000099: 43,2100           30100                           CA       FLAGWRD4                              #  ARE PRIORITY DISPLAYS USING DSKY
000100: 43,2101           72127                           MASK     OC24100
000101: 43,2102           10000                           CCS      A
000102: 43,2103           02120                           TC       ALM/END                               #  YES
000103: 43,2104           34112                           CAF      OCT24                                 #  SET BITS 3 AND 5
000104: 43,2105           55045        SETXTACT           TS       EXTVBACT                              #  NO. SET FLAG TO SHOW EXT VERB DISPLAY
000105:                                                                                                  #  SYSTEM BUSY
000106:
000107: 43,2106           30002                           CA       Q
000108: 43,2107           54155                           TS       MPAC       +1
000109:
000110: 43,2110           45025                           CS       TWO                                   #  BLANK EVERYTHING EXCEPT MM AND VERB
000111: 43,2111           04166                           TC       NVSUB
000112: 43,2112           02113                           TC       +1
000113: 43,2113           00155                           TC       MPAC       +1
000114:
000115: 43,2114           04376        XACTALM            TC       FALTON                                #  TURN ON OPERATOR ERROR LIGHT.
000116: 43,2115           05564                           TC       ENDEXT                                #  RELEASE MARK AND EXT. VERB DISPLAY SYS.
000117:
000118: 43,2116     5564               TERMEXTV           EQUALS   ENDEXT
000119:
000120: 43,2116     5564               ENDEXTVB           EQUALS   ENDEXT
000121:
000122: 43,2116           35030        XACT0              CAF      ZERO                                  #  RELEASE MARK AND EXT. VERB DISPLAY SYS.
000123: 43,2117           02105                           TC       SETXTACT
000124:
000125: 43,2120           04376        ALM/END            TC       FALTON                                #  TURN ON OPERATOR ERROR LIGHT
000126: 43,2121           04674        GOPIN              TC       POSTJUMP
000127: 43,2122           20746                           CADR     PINBRNCH
000128:
000129: 43,2123           31012        CHKPOOH            CA       MODREG                                #  CHECK FOR POO OR POO-.
000130: 43,2124           00006                           EXTEND
000131: 43,2125           16716                           BZF      TCQ
000132: 43,2126           02120                           TC       ALM/END
000133:
000134: 43,2127           24100        OC24100            OCT      24100
000135:
000136:                                                                                                  #           VBZERO       VERB 40            DESCRIPTION
000137:
000138:                                                                                                  #               1. REQUIRE NOUN 20 (ICDU ANGLES) OR NOUN 72 (RCDU ANGLES).
000139:                                                                                                  #              2. FOR N20, CHECK IMUCADR IN AN EFFORT TO AVOID A 1210 RESTART.
000140:                                                                                                  #                 FOR N72, CHECK IF EITHER RADAR IS IN USE.
000141:                                                                                                  #               3. EXECUTE THE CDU ZERO.
000142:                                                                                                  #               4. STALL UNTILL THE ZERO IS DONE.
000143:                                                                                                  #               5. DON'T DIFFERENIATE BETWEEN A BAD OR GOOD RETURN.
000144:                                                                                                  #               6. EXIT, RE-ESTABLISHING THE INTERRUPTED DISPLAY (IF ANY).
000145:
000146: 43,2130           02162        VBZERO             TC       OP/INERT
000147: 43,2131           02133                           TC       IMUZEROK                              #  RETURN HERE IF NOUN = ICDU(20)
000148: 43,2132           02142                           TC       RRZEROK                               #  RETURN HERE IF NOUN = RCDU(72)
000149: 43,2133           02350        IMUZEROK           TC       CKMODCAD
000150: 43,2134           04655                           TC       BANKCALL                              #  KEYBOARD REQ FOR ISS CDUZERO
000151: 43,2135           16622                           CADR     IMUZERO
000152:
000153: 43,2136           04655                           TC       BANKCALL                              #  STALL
000154: 43,2137           17625                           CADR     IMUSTALL
000155: 43,2140           02141                           TC       +1
000156:
000157: 43,2141           02121                           TC       GOPIN                                 #  IMUZERO
000158:
000159: 43,2142           31310        RRZEROK            CA       RADCADR
000160: 43,2143           02351                           TC       CKMODCAD   +1
000161: 43,2144           04655                           TC       BANKCALL
000162: 43,2145           52322                           CADR     RRZERO
000163:
000164: 43,2146           04655        RWAITK             TC       BANKCALL
000165: 43,2147           17623                           CADR     RADSTALL
000166: 43,2150           12151                           TCF      +1
000167: 43,2151           02121                           TC       GOPIN                                 #  RRZERO
000168:
000169:                                                                                                  #           LRPOS2K     VERB 60             DESCRIPTION
000170:                                                                                                  #               COMMAND LANDING RADAR TO POSITION 2
000171:                                                                                                  #              1. EXIT WITH OP ERROR IF SOMEONE IS USING EITHER RADAR.
000172:                                                                                                  #               2. ALARM WITH CODE 523 IF POS 2 IS NOT INDICATED WITHIN
000173:                                                                                                  #                  THE PRESCRIBED TIME.
000174:                                                                                                  #               3. RE-ESTABLISH THE DISPLAYS.
000175:
000176: 43,2152           31310        LRPOS2K            CA       RADCADR
000177: 43,2153           02351                           TC       CKMODCAD   +1
000178: 43,2154           04655                           TC       BANKCALL                              #  COMMAND LR TO POSITION 2
000179: 43,2155           53422                           CADR     LRPOS2
000180: 43,2156           12146                           TCF      RWAITK
000181:
000182:                                                                                                  #           VBCOARK      VERB 41            DESCRIPTION
000183:                                                                                                  #               COARSE ALIGN IMU OR RADAR
000184:                                                                                                  #              1. REQUIRE NOUN 20 OR NOUN 72 OR TURN ON OPERATOR ERROR.
000185:                                                                                                  #               2. REQUIRE EXT VERB DISPLAY SYS AVAILABLE OR TURN ON OPERATOR ERROR LIGHT AND GO TO PINBRNCH.
000186:                                                                                                  #               CASE 1     NOUN 20     (ICDU ANGLES)
000187:                                                                                                  #               3. SET EXT VERB DISPLAY ACTIVE FLAG.
000188:                                                                                                  #               4. DISPLAY FLASHING V25,N22 (LOAD NEW ICDU ANGLES).
000189:                                                                                                  #                  RESPONSES
000190:                                                                                                  #                    A. TERMINATE
000191:                                                                                                  #                       1. RELEASE EXT VERB DISPLAY SYSTEM
000192:                                                                                                  #                    B. PROCEED
000193:                                                                                                  #                      1. COARSE ALIGN TO THE EXISTING THETAD'S (ICORK2).
000194:                                                                                                  #                    C. ENTER
000195:                                                                                                  #                      1. COARSE ALIGN TO THE LOADED THETAD'S (ICORK2).
000196:                                                                                                  #               ICORK2
000197:                                                                                                  #                  1. RE-DISPLAY VERB 41.
000198:                                                                                                  #                  2. EXECUTE IMUCOARS (IMU COARSE ALIGN).
000199:                                                                                                  #                  3. EXECUTE IMUSTALL (ALLOW TIME FOR DATA TRANSFER).
000200:                                                                                                  #                  4. RELEASE EXT VERB DISPLAY SYSTEM.
000201:                                                                                                  #               CASE 2     NOUN 72     (RCDU ANGLES)
000202:                                                                                                  #                 EXIT WITH OP ERROR IF SOMEONE IS USING EITHER RADAD.
000203:                                                                                                  #               5. DISPLAY FLASHING V24,N73 (LOAD NEW RR TRUNION ANGLE AND NEW SHAFT ANGLE).
000204:                                                                                                  #                  RESPONSES
000205:                                                                                                  #                  A. TERMINATE
000206:                                                                                                  #                     1. RELEASE EXT VERB DISPLAY SYS.
000207:                                                                                                  #                  B. PROCEED OR ENTER
000208:                                                                                                  #                     1. EXECUTE AURLOKON (ASK OPERATOR FOR LOCK-ON REQUIREMENTS).
000209:                                                                                                  #                     2. RE-DISPLAY VERB 41.
000210:                                                                                                  #                     3. SCHEDULE RRDESK2 WITH PRIORITY 20.
000211:                                                                                                  #                     4. RELEASE EXT VERB DISPLAY SYS.
000212:
000213:                                                                                                  #                  AURLOKON
000214:
000215:                                                                                                  #                 1. FLASH V04 N12 R1 = 00006 R2 = 00002
000216:                                                                                                  #                     RESPONSES
000217:                                                                                                  #                     A. TERMINATE
000218:                                                                                                  #                     B. PROCEED
000219:                                                                                                  #                       1. RESET LOCK-ON SWITCH
000220:                                                                                                  #                       2. SET CONTINUOUS DESIGNATE FLAG
000221:                                                                                                  #                       3. DISABLE R25
000222:                                                                                                  #                    C. V22 E 1 E, R1 = 00001, PROCEED
000223:                                                                                                  #                       1. SET LOCK-ON SWITCH
000224: 43,2157           02162        VBCOARK            TC       OP/INERT
000225: 43,2160           02174                           TC       IMUCOARK                              #  RETURN HERE IF NOUN = ICDU (20)
000226: 43,2161           02216                           TC       RRDESNBK                              #  RETURN HERE IF NOUN = RCDU (72)
000227:                                                                                                  #           RETURNS TO L+1 IF IMU OR L+2 IF RR.
000228:
000229: 43,2162           44112        OP/INERT           CS       OCT24
000230: 43,2163           61003                           AD       NOUNREG
000231: 43,2164           00006                           EXTEND
000232: 43,2165           16716                           BZF      TCQ                                   #  IF = 20.
000233:
000234: 43,2166           24002                           INCR     Q
000235: 43,2167           62173                           AD       RRIMUDIF                              #  -52
000236: 43,2170           00006                           EXTEND
000237: 43,2171           16716                           BZF      TCQ
000238:
000239: 43,2172           02120                           TC       ALM/END                               #  ILLEGAL.
000240:
000241: 43,2173           77713        RRIMUDIF           DEC      -52        B-14                       #  THE IMU
000242: 43,2174           02350        IMUCOARK           TC       CKMODCAD
000243: 43,2175           02076                           TC       TESTXACT                              #  COARSE ALIGN FROM KEYBOARD.
000244: 43,2176           32214                           CAF      VNLODCDU                              #  CALL FOR THETAD LOAD
000245: 43,2177           04655                           TC       BANKCALL
000246: 43,2200           20226                           CADR     GOXDSPF
000247: 43,2201           05564                           TC       TERMEXTV
000248: 43,2202           12203                           TCF      +1
000249:
000250: 43,2203           32215        ICORK2             CAF      IMUCOARV                              #  RE-DISPLAY COARSE ALIGN VERB.
000251: 43,2204           04655                           TC       BANKCALL
000252: 43,2205           20527                           CADR     EXDSPRET
000253:
000254: 43,2206           04655                           TC       BANKCALL                              #  CALL MODE SWITCHING PROG
000255: 43,2207           16711                           CADR     IMUCOARS
000256:
000257: 43,2210           04655                           TC       BANKCALL                              #  STALL
000258: 43,2211           17625                           CADR     IMUSTALL
000259: 43,2212           05564                           TC       ENDEXTVB
000260: 43,2213           05564                           TC       ENDEXTVB
000261:
000262: 43,2214           06226        VNLODCDU           VN       2522
000263: 43,2215           12200        IMUCOARV           VN       4100
000264:
000265:                                                                                                  #           DESIGNATE TO DESIRED GIMBAL ANGLES.
000266:
000267: 43,2216           31310        RRDESNBK           CA       RADCADR
000268: 43,2217           02351                           TC       CKMODCAD   +1
000269: 43,2220           02076                           TC       TESTXACT
000270: 43,2221           35020                           CA       RNDVZBIT                              #  IS P20 RUNNING?
000271: 43,2222           70074                           MASK     FLAGWRD0
000272: 43,2223           10000                           CCS      A
000273: 43,2224           12114                           TCF      XACTALM                               #  OPERATOR ERROR IF IN P20
000274: 43,2225           42302                           CS       OCT41000                              #  TERMINATE PRESENT DESIGNATION
000275: 43,2226           71101                           MASK     RADMODES
000276: 43,2227           55101                           TS       RADMODES
000277:
000278: 43,2230           32247                           CAF      VNLDRCDU                              #  ASK FOR GIMBAL ANGLES.
000279: 43,2231           04655                           TC       BANKCALL
000280: 43,2232           20226                           CADR     GOXDSPF
000281: 43,2233           05564                           TC       TERMEXTV
000282: 43,2234           12230                           TCF      -4                                    #  V33
000283:
000284: 43,2235           04655                           TC       BANKCALL                              #  ASK OP FOR LOCK ON REQUIREMENTS.
000285: 43,2236           64000                           CADR     AURLOKON
000286:
000287: 43,2237           32215                           CAF      OPTCOARV                              #  RE-DISPLAY OUR OWN VERB
000288: 43,2240           04655                           TC       BANKCALL
000289: 43,2241           20527                           CADR     EXDSPRET
000290:
000291: 43,2242           35011                           CAF      PRIO20
000292: 43,2243           05155                           TC       FINDVAC
000293: 43,2244  E7,1433                                  EBANK=   LOSCOUNT
000294: 43,2244           02250 66107                     2CADR    RRDESK2
000295:
000296: 43,2246           15564                           TCF      TERMEXTV                              #  FREES DISPLAY.
000297:
000298: 43,2247           06111        VNLDRCDU           VN       2473
000299: 43,2250  43,2215               OPTCOARV           EQUALS   IMUCOARV                              #  DIFFERENT NOUNS.
000300:
000301: 43,2250           04655        RRDESK2            TC       BANKCALL
000302: 43,2251           52450                           CADR     RRDESNB
000303:
000304: 43,2252           02253                           TC       +1                                    #  DUMMY NEEDED SINCE DESRETRN DOES INCR
000305: 43,2253           04655                           TC       BANKCALL                              #  WAIT FOR COMPLETION OF DESIGNATE
000306: 43,2254           17623                           CADR     RADSTALL
000307:
000308: 43,2255           02257                           TC       +2                                    #  BADEND-NO LOCKON OR OUT OF LIMITS
000309: 43,2256           05225                           TC       ENDOFJOB                              #  GOODEND-LOCKON ACHIEVED
000310: 43,2257           05651                           TC       ALARM
000311: 43,2260           00503                           OCT      503                                   #  TURN ON ALARM LIGHT -503 DESIGNATE FAIL
000312: 43,2261           05225                           TC       ENDOFJOB
000313:
000314: 43,2262           11101        RRDESEND           CCS      RADMODES                              #  TERMINATE CONTINUOUS DESIGNATE ONLY
000315: 43,2263           12121                           TCF      GOPIN
000316: 43,2264           12121                           TCF      GOPIN
000317: 43,2265           12266                           TCF      +1
000318: 43,2266           42302                           CS       OCT41000                              #  BEGDES GOES TO ENDRADAR
000319: 43,2267           00004                           INHINT                                         #  RELINT DONE IN DOWNFLAG
000320: 43,2270           71101                           MASK     RADMODES
000321: 43,2271           55101                           TS       RADMODES
000322: 43,2272           04655                           TC       BANKCALL
000323: 43,2273           51063                           CADR     CLRADMOD
000324: 43,2274           35047                           CAF      1SEC
000325: 43,2275           04655                           TC       BANKCALL
000326: 43,2276           01732                           CADR     DELAYJOB
000327: 43,2277           05600                           TC       DOWNFLAG                              #  ENABLE R25 GIMBAL MONITOR
000328: 43,2300           00126                           ADRES    NORRMON
000329: 43,2301           12121                           TCF      GOPIN
000330: 43,2302           41000        OCT41000           OCT      41000                                 #  CONTINUOUS DESIGNATE - DESIGNATE
000331:
000332: 23,2000                                           BANK     23
000333: 42,2000                                           SETLOC   EXTVB1
000334: 42,2000                                           BANK
000335: 42,2000                                           COUNT*   $$/EXTVB
000336:
000337: 42,2000           04704        AURLOKON           TC       MAKECADR
000338: 42,2001           55116                           TS       DESRET
000339: 42,2002           35025                           CAF      TWO
000340: 42,2003           55156                           TS       OPTION1    +1
000341: 42,2004           36216                           CAF      SIX                                   #  OPTION CODE FOR V04N12
000342: 42,2005           55155                           TS       OPTION1
000343:
000344: 42,2006           32045                 -5        CAF      V04N0672
000345: 42,2007           04655                           TC       BANKCALL                              #       R2   00001  LOCK-ON
000346: 42,2010           20245                           CADR     GOMARKFR
000347: 42,2011           15564                           TCF      ENDEXT                                #  V34
000348: 42,2012           12017                           TCF      +5                                    #  V33
000349: 42,2013           12006                           TCF      -5                                    #  V32
000350: 42,2014           35024                           CAF      BIT3
000351: 42,2015           05556                           TC       BLANKET
000352: 42,2016           05225                           TC       ENDOFJOB
000353:
000354: 42,2017           31156                 +5        CA       OPTION1    +1
000355: 42,2020           75025                           MASK     BIT2
000356: 42,2021           10000                           CCS      A
000357: 42,2022           12025                           TCF      +3                                    #  ON TERM.
000358: 42,2023           35022                           CAF      LOKONBIT
000359: 42,2024           12026                           TCF      +2
000360: 42,2025           35030                           CAF      ZERO
000361: 42,2026           00004                           INHINT
000362: 42,2027           56074                           XCH      STATE
000363: 42,2030           72044                           MASK     -LOKONFG
000364: 42,2031           26074                           ADS      STATE
000365:
000366: 42,2032           75022                           MASK     LOKONBIT                              #  IF NO LOCK-ON CALLED FOR, SET BIT15 OF
000367: 42,2033           10000                           CCS      A                                     #  RADMODES TO INDICATE THAT ARBITRARILY-
000368: 42,2034           12041                           TCF      +5                                    #  LONG DESIGNATION IS WANTED (TO BE
000369:
000370: 42,2035           35010                           CAF      BIT15                                 #  TERMINATED BY FRESH START).
000371: 42,2036           27101                           ADS      RADMODES
000372: 42,2037           05566                           TC       UPFLAG
000373: 42,2040           00126                           ADRES    NORRMON
000374: 42,2041           00003                           RELINT
000375: 42,2042           31116                           CA       DESRET
000376: 42,2043           14677                           TCF      BANKJUMP
000377:
000378: 42,2044           77757        -LOKONFG           OCT      -20
000379: 42,2045           01006        V04N0672           VN       406
000380:
000381: 43,2303                                           BANK     43
000382: 43,2000                                           SETLOC   EXTVERBS
000383: 43,2000                                           BANK
000384: 43,2303                                           COUNT*   $$/EXTVB
000385:
000386:
000387: 43,2303  E5,1737                                  EBANK=   OGC
000388:
000389:                                                                                                  #           IMUFINEK     VERB 42            DESCRIPTION
000390:                                                                                                  #               FINE ALIGN IMU
000391:                                                                                                  #               1. REQUIRE EXT VERB DISPLAY AVAILABLE AND SET BUSY FLAG OR TURN ON OPER ERROR AND GO TO PINBRNCH.
000392:                                                                                                  #               2. DISPLAY FLASHING V25,N93....LOAD DELTA GYRO ANGLES....
000393:                                                                                                  #                  RESPONSES
000394:                                                                                                  #                  A. TERMINATE
000395:                                                                                                  #                     1. RELEASE EXT VERB DISPLAY SYSTEM.
000396:                                                                                                  #                  B. PROCEED OR ENTER
000397:                                                                                                  #                     1. RE-DISPLAY VERB 42
000398:                                                                                                  #                     2. EXECUTE IMUFINE (IMU FIVE ALIGN MODE SWITCHING).
000399:                                                                                                  #                     3. EXECUTE IMUSTALL (ALLOW FOR DATA TRANSFER)
000400:                                                                                                  #                        A. FAILED
000401:                                                                                                  #                           1. RELEASE EXT VERB DISPLAY SYSTEM.
000402:                                                                                                  #                        B. GOOD
000403:                                                                                                  #                           1. EXECUTE IMUPULSE (TORQUE IRIGS).
000404:                                                                                                  #                           2. EXECUTE IMUSTALL AND RELEASE EXT VERB DISPLAY SYSTEM.
000405:
000406: 43,2303           02350        IMUFINEK           TC       CKMODCAD
000407: 43,2304           02076                           TC       TESTXACT                              #  FINE ALIGN WITH GYRO TORQUING.
000408: 43,2305           32332                           CAF      VNLODGYR                              #  CALL FOR LOAD OF GYRO COMMANDS
000409: 43,2306           04655                           TC       BANKCALL
000410: 43,2307           20226                           CADR     GOXDSPF
000411: 43,2310           05564                           TC       TERMEXTV
000412: 43,2311           02312                           TC       +1                                    #  PROCEED WITHOUT A LOAD
000413:
000414: 43,2312           32333                           CAF      IMUFINEV                              #  RE-DISPLAY OUR OWN VERB
000415: 43,2313           04655                           TC       BANKCALL
000416: 43,2314           20527                           CADR     EXDSPRET
000417:
000418: 43,2315           04655                           TC       BANKCALL                              #  CALL MODE SWITCH PROG
000419: 43,2316           17121                           CADR     IMUFINE
000420:
000421: 43,2317           04655                           TC       BANKCALL                              #  HIBERNATION
000422: 43,2320           17625                           CADR     IMUSTALL
000423: 43,2321           05564                           TC       ENDEXTVB
000424:
000425: 43,2322           32331        FINEK2             CAF      LGYROBIN                              #  PINBALL LEFT COMMANDS IN OGC REGIST5RS
000426: 43,2323           04655                           TC       BANKCALL
000427: 43,2324           17234                           CADR     IMUPULSE
000428:
000429: 43,2325           04655                           TC       BANKCALL                              #  WAIT FOR PULSES TO GET OUT.
000430: 43,2326           17625                           CADR     IMUSTALL
000431: 43,2327           05564                           TC       ENDEXTVB
000432: 43,2330           05564                           TC       ENDEXTVB
000433:
000434: 43,2331           02737        LGYROBIN           ECADR    OGC
000435: 43,2332           06335        VNLODGYR           VN       2593
000436: 43,2333           12400        IMUFINEV           VN       4200
000437:                                                                                                  #           GOLOADLV     VERB 50            DESCRIPTION
000438:                                                                                                  #                        AND OTHER PLEASE
000439:
000440:                                                                                                  #                        DO SOMETHING VERBS
000441:                                                                                                  #               PLEASE PERFORM, MARK, CALIBRATE, ETC.
000442:                                                                                                  #               1. PRESSING ENTER ON DSKY INDICATES REQUESTED ACTION HAS BEEN  PERFORMED, AND THE PROGRAM DOES THE
000443:                                                                                                  #                  SAME RECALL AS A COMPLETED LOAD.
000444:                                                                                                  #               2. THE EXECUTION OF A VERB 33 (PROCEED WITHOUT DATA) INDICATES THE REQUESTED ACTION IS NOT DESIRED.
000445:
000446: 43,2334  40,2000                                  SBANK=   PINSUPER                              #  FOR LOADLV1 AND SHOWSUM CADR'S.
000447:
000448: 43,2334           04445        GOLOADLV           TC       FLASHOFF
000449:
000450: 43,2335           34213                           CAF      PINSUPBT
000451: 43,2336           00006                           EXTEND
000452: 43,2337           01007                           WRITE    SUPERBNK
000453: 43,2340           04674                           TC       POSTJUMP
000454: 43,2341           62001                           CADR     LOADLV1
000455:
000456:                                                                                                  #  VERB 47 - AGS INITIALIZATION - R47.
000457:
000458:                                                                                                  #           SEE LOG SECTION AGS INITIALIZATION FOR OTHER PERTINENT REMARKS.
000459:
000460: 43,2342           02076        V47TXACT           TC       TESTXACT                              #  NO OTHER EXTVERB.
000461: 43,2343           35013                           CAF      PRIO4
000462: 43,2344           05155                           TC       FINDVAC
000463: 43,2345  E4,1606                                  EBANK=   AGSBUFF
000464: 43,2345           02000 60104                     2CADR    AGSINIT
000465:
000466: 43,2347           05225                           TC       ENDOFJOB
000467:
000468: 43,2350           31306        CKMODCAD           CA       MODECADR
000469: 43,2351           00006                           EXTEND
000470: 43,2352           16716                           BZF      TCQ
000471: 43,2353           02120                           TC       ALM/END                               #  SOMEBODY IS USING MODECADR SO EXIT
000472:
000473:                                                                                                  #           ALINTIME     VERB 55            DESCRIPTION
000474:                                                                                                  #                  REQUIRE POO OR POO-.
000475:                                                                                                  #               1. SET EXT VERB DISPLAY BUSY FLAG.
000476:                                                                                                  #               2. DISPLAY FLASHING V25,N24 (LOAD DELTA TIME FOR AGC CLOCK.
000477:                                                                                                  #               3. REQUIRE EXECUTION OF VERB 23.
000478:                                                                                                  #               4. ADD DELTA TIME, RECEIVED FROM INPUT REGISTER, TO THE COMPUTER TIME.
000479:                                                                                                  #               5. RELEASE EXT VERB DISPLAY SYSTEM
000480:
000481: 43,2354           02076        ALINTIME           TC       TESTXACT
000482: 43,2355           32405                           CAF      VNLODDT
000483: 43,2356           04655                           TC       BANKCALL
000484: 43,2357           20226                           CADR     GOXDSPF
000485: 43,2360           05564                           TC       ENDEXT                                #  TERMINATE
000486: 43,2361           05564                           TC       ENDEXT                                #  PROCEED
000487: 43,2362           42404                           CS       DEC23                                 #  DATA IN OR RESEQUENCE(UNLIKELY)
000488: 43,2363           60154                           AD       MPAC                                  #  RECALL LEFT VERB IN MPAC
000489: 43,2364           00006                           EXTEND
000490: 43,2365           12367                           BZF      UPDATIME                              #  GO AHEAD WITH UPDATE ONLY IF RECALL
000491: 43,2366           05564                           TC       ENDEXT                                #    WITH V23 (DATA IN).
000492:
000493: 43,2367           00004        UPDATIME           INHINT                                         #  DELTA TIME IS IN DSPTEM1, +1.
000494: 43,2370           35030                           CAF      ZERO
000495: 43,2371           54156                           TS       MPAC       +2                         #  NEEDED FOR TP AGREE
000496: 43,2372           54001                           TS       L                                     #  ZERO T1 + 2 WHILE ALIGNING.
000497: 43,2373           52025                           DXCH     TIME2
000498: 43,2374           52155                           DXCH     MPAC
000499: 43,2375           53053                           DXCH     DSPTEM2    +1                         #  INCREMENT
000500: 43,2376           20155                           DAS      MPAC
000501:
000502: 43,2377           07231                           TC       TPAGREE                               #  FORCE SIGN AGREEMENT.
000503: 43,2400           52155                           DXCH     MPAC                                  #  NEW CLOCK.
000504: 43,2401           20025                           DAS      TIME2
000505: 43,2402           00003                           RELINT
000506: 43,2403           05564        UPDTMEND           TC       ENDEXT
000507:
000508: 43,2404           00027        DEC23              DEC      23         B-14                       #  V 23
000509:
000510: 43,2405           06230        VNLODDT            VN       2524                                  #  V25N24 FOR LOAD DELTA TIME
000511:
000512:                                                                                                  #  SET UP FOR RADAR SAMPLING.
000513:
000514: 42,2046                                           BANK     42
000515: 43,2000                                           SETLOC   EXTVERBS
000516: 43,2000                                           BANK
000517:
000518: 43,2406  E4,1606                                  EBANK=   RSTACK
000519:
000520: 43,2406                                           COUNT*   $$/R0477
000521:
000522: 43,2406           02076        R77                TC       TESTXACT
000523: 43,2407           05600                           TC       DOWNFLAG
000524: 43,2410           00063                           ADRES    R04FLAG
000525: 43,2411           05566                           TC       UPFLAG
000526: 43,2412           00117                           ADRES    R77FLAG
000527: 43,2413           12423                           TCF      R04Z
000528:
000529: 43,2414           35020        R04                CAF      RNDVZBIT
000530: 43,2415           70074                           MASK     FLAGWRD0
000531: 43,2416           10000                           CCS      A
000532: 43,2417           02120                           TC       ALM/END
000533: 43,2420           02076                           TC       TESTXACT
000534: 43,2421           05566                           TC       UPFLAG
000535: 43,2422           00063                           ADRES    R04FLAG                               #  SET R04FLAG FOR ALARMS
000536:
000537: 43,2423           35014        R04Z               CAF      EBANK4
000538: 43,2424           54003                           TS       EBANK
000539: 43,2425           32643                           CAF      1SEC+1                                #  SAMPLE ONCE PER SECOND
000540: 43,2426           55525                           TS       RSAMPDT
000541: 43,2427           35030                           CAF      ZERO
000542: 43,2430           55524                           TS       RTSTLOC
000543: 43,2431           55526                           TS       RFAILCNT                              #  ZERO BAD SAMPLE COUNTER
000544:
000545: 43,2432           00004                           INHINT
000546: 43,2433           42645                           CS       LRPOSCAL                              #  INITIALIZE
000547: 43,2434           71101                           MASK     RADMODES                              #      BIT 9   LR RANGE  LOW SCALE =0
000548: 43,2435           55101                           TS       RADMODES                              #      BIT 6   LR POS 1 =0
000549: 43,2436           32645                           CAF      LRPOSCAL                              #      BIT 3   RR RANGE  LOW SCALE =0
000550: 43,2437           00006                           EXTEND
000551: 43,2440           02033                           RAND     CHAN33
000552: 43,2441           27101                           ADS      RADMODES
000553: 43,2442           00003                           RELINT
000554:
000555: 43,2443           40077                           CS       FLAGWRD3                              #  CHECK R04FLAG       R04 =1    R77 =0
000556: 43,2444           75016                           MASK     R04FLBIT
000557: 43,2445           10000                           CCS      A
000558: 43,2446           12600                           TCF      R04K
000559:
000560: 43,2447           35026                           CAF      ONE                                   #  INDICATES RENDEZVOUS DESIRED
000561: 43,2450           55156                           TS       OPTION1    +1
000562: 43,2451           35024        R04A               CAF      BIT3                                  #  OPTION CODE FOR V04N12
000563:
000564: 43,2452           55155                           TS       OPTION1
000565: 43,2453           32640                           CAF      V04N06X
000566: 43,2454           04655                           TC       BANKCALL                              #        R2   00001  RENDEZVOUS RADAR
000567: 43,2455           20245                           CADR     GOMARKFR                              #             00002  LANDING RADAR
000568: 43,2456           12606                           TCF      R04END                                #  V34
000569: 43,2457           12464                           TCF      +5                                    #  V33
000570: 43,2460           12453                           TCF      R04A       +2                         #  R2
000571: 43,2461           35024                           CAF      BIT3
000572: 43,2462           05556                           TC       BLANKET
000573: 43,2463           05225                           TC       ENDOFJOB
000574:
000575: 43,2464           31156                           CA       OPTION1    +1                         #  SAVE DESIRED OPTION       RR =1      LR =2
000576: 43,2465           55521                           TS       RTSTDEX
000577:
000578: 43,2466           36216        R04X               CAF      SIX                                   #  RR OR LR DESIRED
000579: 43,2467           71521                           MASK     RTSTDEX
000580: 43,2470           10000                           CCS      A
000581: 43,2471           12602                           TCF      R04L                                  #  LANDING RADAR
000582: 43,2472           55523                           TS       RTSTBASE                              #  FOR RR   BASE = 0, MAX = 1
000583:
000584: 43,2473           35025        R04B               CAF      BIT2                                  #  IS RR AUTO MODE DISCRETE PRESENT
000585: 43,2474           00006                           EXTEND
000586: 43,2475           02033                           RAND     CHAN33
000587: 43,2476           00006                           EXTEND
000588: 43,2477           12510                           BZF      R04C                                  #  YES
000589:
000590: 43,2500           32642                           CAF      201R04                                #  REQUEST SELECTION OF RR AUTO MODE
000591: 43,2501           55046                           TS       DSPTEM1
000592: 43,2502           32641                           CAF      V50N25X
000593: 43,2503           04655                           TC       BANKCALL
000594: 43,2504           20237                           CADR     GOMARK4
000595: 43,2505           12606                           TCF      R04END                                #  V34
000596: 43,2506           12473                           TCF      R04B                                  #  V33
000597: 43,2507           12500                           TCF      -7                                    #  E
000598:
000599: 43,2510           35011        R04C               CAF      BIT14                                 #  ENABLE RR AUTO TRACKER
000600: 43,2511           00006                           EXTEND
000601: 43,2512           05012                           WOR      CHAN12
000602:
000603: 43,2513           35025                           CAF      TWO
000604: 43,2514           55522                           TS       RTSTMAX                               #  FOR SEQUENTIAL STORAGE
000605:
000606: 43,2515           05252                           TC       WAITLIST
000607: 43,2516  E4,1606                                  EBANK=   RSTACK
000608: 43,2516           02000 52104                     2CADR    RADSAMP
000609:
000610: 43,2520           00003                           RELINT
000611:
000612: 43,2521           40077                           CS       FLAGWRD3                              #  CHECK R04FLAG      R04 =1    R77 =0
000613: 43,2522           75016                           MASK     R04FLBIT
000614:
000615: 43,2523           10000                           CCS      A
000616: 43,2524           12121                           TCF      GOPIN                                 #  R77
000617:
000618: 43,2525           36216                           CAF      SIX                                   #  RR OR LR
000619: 43,2526           71521                           MASK     RTSTDEX
000620: 43,2527           10000                           CCS      A
000621: 43,2530           12545                           TCF      R04LR                                 #  LR
000622:
000623: 43,2531           32634        R04RR              CAF      V16N72                                #  DISPLAY RR CDU ANGLES (1/SEC)
000624: 43,2532           04655                           TC       BANKCALL                              #           R1  +  XXX.XX DEG   TRUNNION
000625: 43,2533           20226                           CADR     GOMARKF                               #           R2  +  XXX.XX DEG   SHAFT
000626: 43,2534           12606                           TCF      R04END                                #  V34      R3     BLANK
000627: 43,2535           12537                           TCF      +2                                    #  V33
000628: 43,2536           12531                           TCF      R04RR                                 #  V32
000629:
000630: 43,2537           32635                           CAF      V16N78                                #  DISPLAY RR RANGE AND RANGE RATE (1/SEC)
000631: 43,2540           04655                           TC       BANKCALL                              #           R1  +- XXX.XX NM    RANGE
000632: 43,2541           20226                           CADR     GOMARKF                               #           R2  +- XXXXX. FPS   RANGE RATE
000633: 43,2542           12606                           TCF      R04END                                #  V34      R3     BLANK
000634: 43,2543           12561                           TCF      R04Y                                  #  V33
000635: 43,2544           12531                           TCF      R04RR                                 #  V32
000636:
000637: 43,2545           32636        R04LR              CAF      V16N66                                #  DISPLAY LR RANGE AND POSITION (1/SEC)
000638: 43,2546           04655                           TC       BANKCALL                              #           R1  +- XXXXX. FT    LR RANGE
000639: 43,2547           20226                           CADR     GOMARKF                               #           R2  +  0000X.       POS. NO.
000640: 43,2550           12606                           TCF      R04END                                #  V34      R3     BLANK
000641: 43,2551           12553                           TCF      +2                                    #  V33
000642: 43,2552           12545                           TCF      R04LR                                 #  V32
000643:
000644: 43,2553           32637                           CAF      V16N67                                #  DISPLAY LR VELX, VELY, VELZ (1/SEC)
000645: 43,2554           04655                           TC       BANKCALL                              #           R1  +- XXXXX. FPS   LR V(X)
000646: 43,2555           20226                           CADR     GOMARKF                               #           R2  +- XXXXX. FPS   LR V(Y)
000647: 43,2556           12606                           TCF      R04END                                #  V34      R3  +- XXXXX. FPS   LR V(Z)
000648: 43,2557           12561                           TCF      R04Y                                  #  V33
000649: 43,2560           12545                           TCF      R04LR                                 #  V32
000650:
000651: 43,2561           35030        R04Y               CAF      ZERO                                  #  TO TERMINATE SAMPLING
000652: 43,2562           55525                           TS       RSAMPDT
000653: 43,2563           35050                           CAF      2SECS                                 #  WAIT FOR LAST RADARUPT
000654: 43,2564           04655                           TC       BANKCALL
000655: 43,2565           01732                           CADR     DELAYJOB
000656: 43,2566           32643                           CAF      1SEC+1                                #  SAMPLE ONCE PER SECOND
000657: 43,2567           55525                           TS       RSAMPDT
000658: 43,2570           35030                           CAF      ZERO                                  #  FOR STORING RESULTS
000659: 43,2571           55524                           TS       RTSTLOC
000660: 43,2572           36216                           CAF      SIX
000661: 43,2573           71521                           MASK     RTSTDEX
000662: 43,2574           10000                           CCS      A
000663: 43,2575           45026                           CS       ONE                                   #  WAS LR
000664: 43,2576           65025                           AD       TWO                                   #  WAS RR
000665:
000666:
000667: 43,2577           12465                           TCF      R04X       -1
000668:
000669: 43,2600           32644        R04K               CAF      250MS+1                               #  SAMPLE 4 LR COMPONENTS PER SECOND.
000670: 43,2601           55525                           TS       RSAMPDT
000671:
000672: 43,2602           35025        R04L               CAF      TWO
000673: 43,2603           55523                           TS       RTSTBASE                              #  FOR LR   BASE = 2, MAX = 3
000674: 43,2604           36216                           CAF      SIX
000675: 43,2605           12514                           TCF      R04C       +4
000676: 43,2606           35030        R04END             CAF      ZERO                                  #  ZERO RSAMPDT
000677: 43,2607           55525                           TS       RSAMPDT                               #  TO TERMINATE SAMPLING
000678: 43,2610           35017                           CAF      BIT8                                  #  WAIT 1.28 SECONDS FOR POSSIBLE
000679: 43,2611           04655                           TC       BANKCALL                              #  PENDING RUPT.
000680: 43,2612           01732                           CADR     DELAYJOB
000681:
000682: 43,2613           00004                           INHINT
000683: 43,2614           45011                           CS       BIT14                                 #  DISABLE RR AUTO TRACKER
000684: 43,2615           00006                           EXTEND
000685: 43,2616           03012                           WAND     CHAN12
000686:
000687: 43,2617           05600                           TC       DOWNFLAG
000688: 43,2620           00063                           ADRES    R04FLAG                               #  SIGNAL END OF R04.
000689:
000690: 43,2621           05564                           TC       ENDEXT
000691:
000692: 43,2622           35014        R77END             CAF      EBANK4                                #  TO TERMINATE SAMPLING
000693: 43,2623           54003                           TS       EBANK
000694: 43,2624           35030                           CAF      ZERO
000695: 43,2625           55525                           TS       RSAMPDT
000696: 43,2626           35021                           CAF      BIT6                                  #  WAIT 320 MS FOR POSSIBLE
000697: 43,2627           04655                           TC       BANKCALL                              #  PENDING RUPT.
000698: 43,2630           01732                           CADR     DELAYJOB
000699:
000700: 43,2631           05600                           TC       DOWNFLAG
000701: 43,2632           00117                           ADRES    R77FLAG
000702: 43,2633           15564                           TCF      ENDEXT
000703:
000704: 43,2634           04110        V16N72             VN       1672
000705: 43,2635           04116        V16N78             VN       1678
000706: 43,2636           04102        V16N66             VN       1666
000707: 43,2637           04103        V16N67             VN       1667
000708: 43,2640           01006        V04N06X            VN       406
000709: 43,2641           14431        V50N25X            VN       5025
000710: 43,2642           00201        201R04             OCT      00201
000711: 43,2643           00145        1SEC+1             DEC      101        B-14
000712: 43,2644           00032        250MS+1            DEC      26         B-14
000713: 43,2645           00444        LRPOSCAL           OCT      444
000714:
000715: 43,2646                                           COUNT*   $$/EXTVB
000716:
000717:                                                                                                  #           IMUATTCK      VERB 43           DESCRIPTION
000718:                                                                                                  #               LOAD IMU ATTITUDE ERROR METERS
000719:                                                                                                  #                  1. REQUIRE POO OR FRESH START.
000720:                                                                                                  #                  2. REQUIRE COARSE ALIGN ENABLE AND ZERO ICDU BITS OFF.
000721:                                                                                                  #                  3. REQUIRE THAT NEEDLES BE OFF.
000722:                                                                                                  #                  4. REQUEST LOAD OF N22  (VAUES TO BE DISPLAYED).
000723:                                                                                                  #                  5. ON PROCEED OR ENTER RE-DISPLAY V43 AND SEND PULSES.
000724:
000725: 43,2646           02123        IMUATTCK           TC       CHKPOOH                               #  VB 76 - LOAD IMU ATT. ERROR METERS
000726:
000727: 43,2647           32705                           CAF      SBITS4&5                              #  SEE IF COARSE ALIGN ENABLE AND ZERO IMU
000728: 43,2650           00006                           EXTEND                                         #  CDUS BITS ARE ON
000729: 43,2651           02012                           RAND     CHAN12
000730: 43,2652           10000                           CCS      A
000731: 43,2653           12120                           TCF      ALM/END                               #  NOT ALLOWED IF IMU COARSE OR IMU ZERO ON
000732:
000733: 43,2654           34367                           CAF      BIT13-14                              #  BOTH BITS 13 AND 14 MUST BE 1
000734: 43,2655           00006                           EXTEND                                         #  INDICATING THE MODE SELECTED IS OFF.
000735: 43,2656           06031                           RXOR     CHAN31
000736: 43,2657           74367                           MASK     BIT13-14
000737: 43,2660           00006                           EXTEND
000738: 43,2661           12663                           BZF      +2                                    #  NEEDLES IS OFF.
000739: 43,2662           12120                           TCF      ALM/END                               #  EXIT.  NEEDLES IS ON.
000740:
000741: 43,2663           02076                           TC       TESTXACT
000742:
000743: 43,2664           32214                           CAF      VNLODCDU
000744: 43,2665           04655                           TC       BANKCALL
000745: 43,2666           20226                           CADR     GOXDSPF
000746: 43,2667           05564                           TC       ENDEXT                                #  V34
000747: 43,2670           02671                           TC       +1
000748: 43,2671           32704                           CAF      V43K                                  #  REDISPLAY OUR VERB.
000749: 43,2672           04655                           TC       BANKCALL
000750: 43,2673           20527                           CADR     EXDSPRET
000751: 43,2674           35021                           CAF      BIT6
000752: 43,2675           00006                           EXTEND
000753: 43,2676           05012                           WOR      CHAN12                                #  ENABLE ERROR COUNTERS.
000754: 43,2677           35025                           CAF      TWO
000755: 43,2700           05252                           TC       WAITLIST                              #  PUT OUT COMMANDS IN .32 SECONDS.
000756: 43,2701     1206                                  EBANK=   THETAD
000757: 43,2701           02046 64102                     2CADR    ATTCK2
000758:
000759: 43,2703           15564                           TCF      ENDEXT
000760:
000761: 42,2046                                           BANK     42
000762: 42,2000                                           SETLOC   PINBALL3                              #  SOMETHING IN B42.
000763: 42,2000                                           BANK
000764:
000765: 42,2046                                           COUNT*   $$/EXTVB
000766:
000767: 42,2046           35025        ATTCK2             CAF      TWO                                   #  PUT OUT COMMANDS.
000768: 42,2047           54002                 +1        TS       Q                                     #  CDU WILL LIMIT EXCESS DATA.
000769: 42,2050           50000                           INDEX    A
000770: 42,2051           31206                           CA       THETAD
000771: 42,2052           00006                           EXTEND
000772: 42,2053           75012                           MP       ATTSCALE
000773: 42,2054           50002                           INDEX    Q
000774: 42,2055           56050                           XCH      CDUXCMD
000775: 42,2056           10002                           CCS      Q
000776: 42,2057           12047                           TCF      ATTCK2     +1
000777:
000778: 42,2060           37711                           CAF      13,14,15
000779: 42,2061           00006                           EXTEND
000780: 42,2062           05014                           WOR      CHAN14
000781: 42,2063           15331                           TCF      TASKOVER                              #  LEAVE ERROR COUNTERS ENABLED.
000782:
000783: 42,2064     5012               ATTSCALE           =        BIT13
000784:
000785: 07,2622                                           BANK     7
000786: 43,2000                                           SETLOC   EXTVERBS
000787: 43,2000                                           BANK
000788:
000789: 43,2704                                           COUNT*   $$/EXTVB
000790:
000791: 43,2704           12600        V43K               VN       4300
000792: 43,2705           00030        SBITS4&5           OCT      30
000793:                                                                                                  #           V82PERF     VERB 82             DESCRIPTION
000794:                                                                                                  #               REQUEST ORBIT PARAMETERS DISPLAY (R30)
000795:                                                                                                  #  1. IF AVERAGE G IS OFF:
000796:                                                                                                  #           FLASH DISPLAY V04N06. R2 INDICATES WHICH SHIP'S STATE VECTOR IS
000797:                                                                                                  #            TO BE UPDATED. INITIAL CHOICE IS THIS SHIP (R2=1). ASTRONAUT
000798:                                                                                                  #            CAN CHANGE TO OTHER SHIP BY V22EXE, WHERE X NOT EQ 1.
000799:                                                                                                  #           SELECTED STATE VECTOR UPDATED BY THISPREC (OTHPREC).
000800:                                                                                                  #           CALLS SR30.1 (WHICH CALLS TFFCONMU + TFFRP/RA) TO CALCULATE
000801:                                                                                                  #            RPER (PERIGEE RADIUS), RAPO (APOGEE RADIUS), HPER (PERIGEE
000802:                                                                                                  #            HEIGHT ABOVE LAUNCH PAD OR LUNAR LANDING SITE), HAPO (APOGEE
000803:                                                                                                  #            HEIGHT AS ABOVE), TPER (TIME TO PERIGEE), TFF (TIME TO
000804:                                                                                                  #            INTERSECT 300 KFT ABOVE PAD OR 35KFT ABOVE LANDING SITE).
000805:                                                                                                  #           FLASH MONITOR V16N44 (HAPO, HPER, TFF).TFF IS -59M59S IF IT WAS
000806:                                                                                                  #            NOT COMPUTABLE, OTHERWISE IT INCREMENTS ONCE PER SECOND.
000807:                                                                                                  #            ASTRONAUT HAS OPTION TO MONITOR TPER BY KEYING IN N 32 E.
000808:                                                                                                  #            DISPLAY IS IN HMS, IS NEGATIVE (AS WAS TFF), AND INCREMENTS
000809:                                                                                                  #            ONCE PER SECOND ONLY IF TFF DISPLAY WAS -59M59S.
000810:
000811:                                                                                                  #  2. IF AVERAGE G IS ON:
000812:                                                                                                  #           CALLS SR30.1 APPROX EVERY TWO SECS.  STATE VECTOR IS ALWAYS
000813:                                                                                                  #            FOR THIS VEHICLE. V82 DOES NOT DISTURB STATE VECTOR.  RESULTS
000814:                                                                                                  #            OF SR30.1 ARE RAPO, RPER, HAPO, HPER, TPER, TFF.
000815:                                                                                                  #           FLASH MONITOR V16N44 (HAPO, HPER, TFF).
000816:                                                                                                  #           IF MODE IS P11, THEN CALL DELRSPL SO ASTRONAUT CAN MONITOR
000817:                                                                                                  #            RESULTS BY N50E. SPLASH COMPUTATION DONE ONCE PER TWO SECS.
000818:
000819: 43,2706           02076        V82PERF            TC       TESTXACT
000820:
000821: 43,2707           35071                           CAF      PRIO7                                 #  LESS THAN LAMBERT.  R30,V82
000822: 43,2710           05216                           TC       PRIOCHNG
000823: 43,2711           00006                           EXTEND
000824: 43,2712           32715                           DCA      V82CON
000825: 43,2713           05235                           TC       SUPDXCHZ                              #  V82CALL IN DIFF SUPERBANK FROM V82PERF
000826:
000827: 43,2714  E4,1660                                  EBANK=   HAPO
000828: 43,2714           03236 44104  V82CON             2CADR    V82CALL
000829:
000830:
000831:                                                                                                  #           VB83PERF     VERB 83            DESCRIPTION
000832:                                                                                                  #               REQUEST RENDEZVOUS PARAMETER DISPLAY (R31)
000833:                                                                                                  #               1. SET EXT VERB DISPLAY BUSY FLAG.
000834:                                                                                                  #               2. SCHEDULE R31CALL WITH PRIORITY 5.
000835:                                                                                                  #                  A. DISPLAY
000836:                                                                                                  #                      R1  RANGE
000837:                                                                                                  #                      R2  RANGE RATE
000838:                                                                                                  #                      R3  THETA
000839:
000840: 43,2716           02076        V83PERF            TC       TESTXACT
000841:
000842: 43,2717           35067                           CAF      PRIO5
000843: 43,2720           05155                           TC       FINDVAC
000844: 43,2721  E7,1564                                  EBANK=   TSTRT
000845: 43,2721           03265 76067                     2CADR    V83CALL
000846:
000847: 43,2723           05225                           TC       ENDOFJOB
000848:
000849:                                                                                                  #  VERB 89 DESCRIPTION     RENDEZVOUS FINAL ATTITUDE ROUTINE (R63)
000850:
000851:                                                                                                  #  CALLED BY VERB 89 ENTER DURING P00. PRIO 10 USED.  CALCULATES AND
000852:                                                                                                  #  DISPLAYS FINAL FDAI BALL ANGLES TO POINT LM +X OR +Z AXIS AT CSM.
000853:
000854:                                                                                                  #  1. KEY IN V 89 E ONLY IF IN PROG 00. IF NOT IN P00, OPERATOR ERROR AND
000855:                                                                                                  #  EXIT R63, OTHERWISE CONTINUE.
000856:
000857:                                                                                                  #  2. IF IN P00, DO IMU STATUS CHECK ROUTINE (R02BOTH). IF IMU ON AND ITS
000858:                                                                                                  #  ORIENTATION KNOWN TO LGC, CONTINUE.
000859:
000860:                                                                                                  #  3. FLASH DISPLAY V 04 N 06.  R2 INDICATES WHICH SPACECRAFT AXIS IS TO
000861:                                                                                                  #  BE POINTED AT CSM.  INITIAL CHOICE IS PREFERRED (+Z) AXIS (R2=1).
000862:                                                                                                  #  ASTRONAUT CAN CHANGE TO (+X) AXIS (R2 NOT = 1) BY V 22 E 2 E.  CONTINUE
000863:                                                                                                  #  AFTER KEYING IN PROCEED.
000864:
000865:                                                                                                  #  4. BOTH VEHICLE STATE VECTORS UPDATED BY CONIC EQS.
000866:
000867:                                                                                                  #  5. HALF MAGNITUDE UNIT LOS VECTOR (IN STABLE MEMBER COORDINATES) AND
000868:
000869:                                                                                                  #  HALF MAGNITUDE UNIT SPACECRAFT AXIS VECTOR (IN BODY COORDINATES)
000870:                                                                                                  #  PREPARED FOR VECPOINT.
000871:
000872:                                                                                                  #  6. GIMBAL ANGLES FROM VECPOINT TRANSFORMED INTO FDAI BALL ANGLES BY
000873:                                                                                                  #  BALLANGS. FLASH DISPLAY V 06 N 18 AND AWAIT RESPONSE.
000874:
000875:                                                                                                  #  7. RECYCLE - RETURN TO STEP 4.
000876:                                                                                                  #     TERMINATE - EXIT R63.
000877:                                                                                                  #     PROCEED - RESET 3AXISFLG AND CALL R60LEM FOR ATTITUDE MANEUVER.
000878:
000879:
000880: 43,2724           02123        V89PERF            TC       CHKPOOH
000881: 43,2725           02076                           TC       TESTXACT
000882: 43,2726           35012                           CAF      PRIO10
000883: 43,2727           05155                           TC       FINDVAC
000884: 43,2730  E4,1614                                  EBANK=   RONE
000885: 43,2730           02000 54104                     2CADR    V89CALL
000886: 43,2732           05225                           TC       ENDOFJOB
000887:
000888:                                                                                                  #           V90PERF     VERB 90             DESCRIPTION
000889:                                                                                                  #               REQUEST RENDEZVOUS OUT-OF-PLANE DISPLAY (R36)
000890:                                                                                                  #               1. SET EXT VERB DISPLAY BUSY FLAG.
000891:                                                                                                  #               2. SCHEDULE R36 CALL WITH PRIORITY 10
000892:                                                                                                  #                  A. DISPLAY
000893:                                                                                                  #                      TIME OF EVENT - HOURS , MINUTES , SECONDS
000894:                                                                                                  #                      Y  OUT-OF-PLANE POSITION - NAUTICAL MILES
000895:                                                                                                  #                      YDOT  OUT-OF-PLANE VELOCITY - FEET/SECOND
000896:                                                                                                  #                      PSI  ANGLE BTW LINE OF SIGHT AND FORWARD
000897:                                                                                                  #                           DIRECTION VECTOR IN HORIZONTAL PLANE - DEGREES
000898:
000899: 43,2733           02076        V90PERF            TC       TESTXACT
000900: 43,2734           35071                           CAF      PRIO7                                 #  R36,V90
000901: 43,2735           05155                           TC       FINDVAC
000902: 43,2736  E4,1614                                  EBANK=   RPASS36
000903: 43,2736           02530 10104                     2CADR    R36
000904: 43,2740           15225                           TCF      ENDOFJOB
000905:                                                                                                  #           MINIMP     VERB 76              DESCRIPTION
000906:                                                                                                  #               MINIMUM IMPULSE MODE
000907:                                                                                                  #               1. SET MINIMUM IMPULSE RHC MODE FLAG TO 1.
000908:
000909: 43,2741           00004        MINIMP             INHINT
000910: 43,2742           41102                           CS       DAPBOOLS
000911: 43,2743           75010                           MASK     PULSES                                #  PULSES = 1 INDICATES MIN IMP MODE
000912: 43,2744           27102                           ADS      DAPBOOLS
000913: 43,2745           12121                           TCF      GOPIN                                 #  RETURN VIA PINBRNCH
000914:
000915:                                                                                                  #           NOMINIMP     VERB 77            DESCRIPTION
000916:                                                                                                  #               RATE COMMAND MODE
000917:
000918:                                                                                                  #               1. SET MINIMUM IMPULSE RHC MODE FLAG TO 0. (ZERO INDICATES NOT MINIMUM IMPULSE MODE.).
000919:                                                                                                  #               2. MOVE CDUX,CDUY,CDUZ INTO CDUXD,CDUYD,CDUZD.
000920:
000921: 43,2746           35065        NOMINIMP           CAF      EBANK6
000922: 43,2747           54003                           TS       EBANK
000923: 43,2750           00004                           INHINT
000924: 43,2751           45010                           CS       PULSES
000925: 43,2752           71102                           MASK     DAPBOOLS
000926: 43,2753           55102                           TS       DAPBOOLS                              #  PULSES = 0 NOT IN MINIMUM UMPULSE MODE
000927: 43,2754           04737                           TC       IBNKCALL
000928: 43,2755           40232                           CADR     ZATTEROR
000929: 43,2756           02121                           TC       GOPIN
000930:
000931: 43,2757           02076        R32                TC       TESTXACT
000932: 43,2760           35012                           CAF      PRIO10
000933: 43,2761           05155                           TC       FINDVAC
000934: 43,2762  E7,1424                                  EBANK=   TIG
000935: 43,2762           02161 26107                     2CADR    JOBR32
000936: 43,2764           05225                           TC       ENDOFJOB
000937:
000938:                                                                                                  #           CREWMANU     VERB 49            DESCRIPTION
000939:                                                                                                  #               START AUTOMATIC ATTITUDE MANEUVER
000940:                                                                                                  #               1. REQUIRE PROGRAM 00 ACTIVE.
000941:                                                                                                  #               2. SET EXT VERB DISPLAY BUSY FLAG.
000942:                                                                                                  #               3. SCHEDULE R62DISP WITH PRIORITY 10.
000943:                                                                                                  #               4. RELEASE EXT VERB DISPLAY.
000944:
000945:                                                                                                  #             R62DISP
000946:                                                                                                  #               1. DISPLAY FLASHING V06,N22.
000947:                                                                                                  #                  RESPONSES
000948:                                                                                                  #                  A. TERMINATE
000949:                                                                                                  #                     1. GO TO GOTOPOOH.
000950:                                                                                                  #                  B. PROCEED
000951:                                                                                                  #                     1. SET 3AXISFLG TO INDICATE MANEUVER IS SPECIFIED BY 3 AXIS.
000952:                                                                                                  #                     2. EXECUTE R60LEM (ATTITUDE MANEUVER).
000953:                                                                                                  #                  C. ENTER
000954:                                                                                                  #                     1. REPEAT FLASHING V06,N22.
000955:
000956: 43,2765           02123        CREWMANU           TC       CHKPOOH                               #  DEMAND POO
000957:
000958: 43,2766           02076                           TC       TESTXACT
000959:
000960: 43,2767           35012                           CAF      PRIO10
000961: 43,2770           05155                           TC       FINDVAC
000962: 43,2771  E6,1673                                  EBANK=   BCDU
000963: 43,2771           02024 46106                     2CADR    R62DISP
000964: 43,2773           05225                           TC       ENDOFJOB
000965:
000966:                                                                                                  #  V60      VERB 60, DISPLAY DAP ATTITUDE ERRORS ON FDAI ATTITUDE ERROR NEEDLES.
000967:
000968: 43,2774           05600        DAPATTER           TC       DOWNFLAG
000969: 43,2775           00013                           ADRES    NEEDLFLG
000970: 43,2776           02121                           TC       GOPIN
000971:
000972:                                                                                                  #  V63      VERB 63, DISPLAY TOTAL ATTITUDE ERRORS ON FDAI ATTITUDE ERROR NEEDLES.
000973:
000974: 43,2777           05566        TOTATTER           TC       UPFLAG
000975: 43,3000           00013                           ADRES    NEEDLFLG
000976: 43,3001           02121                           TC       GOPIN
000977:
000978:
000979:                                                                                                  #  TRMTRACK     VERB 56                     DESCRIPTION
000980:                                                                                                  #               TERMINATE TRACKING (P20 AND P25).
000981:                                                                                                  #               1. KNOCK DOWN RENDEZVOUS, TRACK, AND UPDATE FLAGS.
000982:                                                                                                  #               2. REQUIRE P20 OR  P25 NOT RUNNING ALONE OR GO TO GOTOPOOH (REQUEST PROGRAM 00).
000983:                                                                                                  #               3. SCHEDULE V56TOVAC WITH PRIORITY 30.
000984:
000985:                                                                                                  #               V56TOVAC
000986:                                                                                                  #               1. EXECUTE INTSTALL (IF INTEGRATION IS RUNNING, STALL UNTIL IT IS FINISHED.).
000987:                                                                                                  #               2. ZERO GROUP 2 TO HALT P20.
000988:                                                                                                  #               3. TRANSFER CONTROL TO GOPROG2 (SOFTWARE RESTART).
000989:
000990: 43,3002           33050        TRMTRACK           CA       BITS9+7                               #  IS REND OR P25 FLAG ON
000991: 43,3003           70074                           MASK     FLAGWRD0
000992: 43,3004           00006                           EXTEND
000993: 43,3005           12121                           BZF      GOPIN                                 #  NO
000994:
000995: 43,3006           05600                           TC       DOWNFLAG
000996: 43,3007           00010                           ADRES    RNDVZFLG
000997:
000998: 43,3010           05600                           TC       DOWNFLAG
000999: 43,3011           00006                           ADRES    P25FLAG
001000:
001001: 43,3012           35022                           CA       TRACKBIT                              #  IS TRACK FLAG ON?
001002: 43,3013           70075                           MASK     FLAGWRD1
001003: 43,3014           00006                           EXTEND
001004: 43,3015           12121                           BZF      GOPIN
001005:
001006: 43,3016           05600                           TC       DOWNFLAG
001007: 43,3017           00027                           ADRES    UPDATFLG                              #  UPDATE FLAG DOWN
001008: 43,3020           05600                           TC       DOWNFLAG
001009: 43,3021           00031                           ADRES    TRACKFLG                              #  TRACK FLAG DOWN
001010: 43,3022           05600                           TC       DOWNFLAG
001011: 43,3023           00007                           ADRES    IMUSE
001012:
001013: 43,3024           35075                           CAF      PRIO15
001014: 43,3025           05216                           TC       PRIOCHNG
001015:
001016: 43,3026           06014                           TC       INTPRET
001017: 43,3027           77624                           CALL
001018: 43,3030           27362                                    INTSTALL                              #  DONT INTERRUPT INTEGRATION
001019: 43,3031           77776                           EXIT
001020:
001021: 43,3032           05423                           TC       PHASCHNG
001022:
001023: 43,3033           00002                           OCT      2                                     #  KILL GROUP 2 TO HALT P20 ACTIVITY
001024:
001025: 43,3034           00004                           INHINT
001026: 43,3035           04737                           TC       IBNKCALL                              #  ZERO THE COMMANDED RATES TO STOP
001027: 43,3036           40244                           CADR     STOPRATE                              #  MANEUVER
001028:
001029: 43,3037           04737                           TC       IBNKCALL
001030: 43,3040           40204                           CADR     RESTORDB
001031:
001032: 43,3041           04737                           TC       IBNKCALL                              #  CLEAR BITS 10 + 15 OF RADMODES.
001033: 43,3042           51063                           CADR     CLRADMOD
001034:
001035: 43,3043           45011                           CS       BIT14                                 #  DISABLE LOCKON
001036: 43,3044           00006                           EXTEND
001037: 43,3045           03012                           WAND     CHAN12
001038: 43,3046           04674                           TC       POSTJUMP
001039: 43,3047           12574                           CADR     GOPROG2                               #  CAUSE RESTART.
001040:
001041: 43,3050           00500        BITS9+7            OCT      500
001042:
001043:
001044:                                                                                                  #           DNEDUMP     VERB 74             DESCRIPTION
001045:                                                                                                  #               INITIALIZE DOWN-TELEMETRY PROGRAM FOR ERASABLE MEMORY DUMP.
001046:                                                                                                  #               1. SET EXT VERB DISPLAY BUSY FLAG.
001047:                                                                                                  #               2. REPLACE CURRENT DOWNLIST WITH ERASABLE MEMORY.
001048:                                                                                                  #               3. RELEASE EXT VERB DISPLAY.
001049:
001050: 43,2000                                           SETLOC   EXTVERBS
001051: 43,2000                                           BANK
001052:
001053: 43,3051                                           COUNT*   $$/EXTVB
001054:
001055: 43,3051     0400                                  EBANK=   400
001056: 43,3051           02076        DNEDUMP            TC       TESTXACT
001057: 43,3052           33055                           CAF      LDNDUMPI
001058: 43,3053           54335                           TS       DNTMGOTO
001059: 43,3054           05564                           TC       ENDEXT
001060:
001061: 43,3055  43,3051               V74                EQUALS   DNEDUMP
001062: 43,3055           03355        LDNDUMPI           REMADR   DNDUMPI
001063:
001064:
001065:                                                                                                  #           LEMVEC     VERB 80              DESCRIPTION
001066:                                                                                                  #               UPDATE LEM STATE VECTOR
001067:                                                                                                  #                  RESET VEHUPFLG TO 0
001068:
001069: 43,3056           03070        LEMVEC             TC       CHECKR32
001070: 43,3057           05600                           TC       DOWNFLAG
001071: 43,3060           00026                           ADRES    VEHUPFLG                              #  VB 80 - VEHUPFLG DOWN INDICATES LEM
001072:
001073: 43,3061           03065                           TC       NOUPDOWN
001074:                                                                                                  #           CSMVEC     VERB 81              DESCRIPTION
001075:                                                                                                  #               UPDATE CSM STATE VECTOR
001076:                                                                                                  #                  SET   VEHUPFLG TO 1
001077:
001078: 43,3062           03070        CSMVEC             TC       CHECKR32
001079: 43,3063           05566                           TC       UPFLAG
001080: 43,3064           00026                           ADRES    VEHUPFLG                              #  VB 81 - VEHUPFLG UP INDICATES CSM
001081:
001082: 43,3065           05600        NOUPDOWN           TC       DOWNFLAG
001083: 43,3066           00030                           ADRES    NOUPFLAG
001084:
001085: 43,3067           02121                           TC       GOPIN
001086:
001087: 43,3070           40104        CHECKR32           CS       FLAGWRD8
001088: 43,3071           75011                           MASK     R32FLBIT
001089: 43,3072           00006                           EXTEND
001090: 43,3073           12120                           BZF      ALM/END
001091: 43,3074           00002                           TC       Q
001092:
001093:                                                                                                  #           UPDATOFF   VERB 95      DESCRIPTION
001094:                                                                                                  #               INHIBIT STATE VECTOR UPDATES BY INCORP
001095:                                                                                                  #                  SET NOUPFLAG TO 1
001096:
001097: 43,3075           05566        UPDATOFF           TC       UPFLAG                                #  VB 95 SET NOUPFLAG
001098: 43,3076           00030                           ADRES    NOUPFLAG
001099:
001100: 43,3077           02121                           TC       GOPIN
001101:
001102:                                                                                                  #           SYSTEST     VERB 92             DESCRIPTION
001103:                                                                                                  #             OPERATE IMU PERFORMANCE TEST.
001104:                                                                                                  #               1. REQUIRE PROGRAM 00 OR TURN ON OPERATOR ERROR.
001105:                                                                                                  #               2. SET EXT VERB BUSY FLAG.
001106: 43,3100  E5,1417                                  EBANK=   QPLACE
001107:
001108: 43,3100           02123        SYSTEST            TC       CHKPOOH                               #  DEMAND POO
001109:
001110: 43,3101           02076                           TC       TESTXACT
001111:
001112: 43,3102           37662                           CAF      PRIO22
001113: 43,3103           05155                           TC       FINDVAC
001114: 43,3104  E5,1417                                  EBANK=   QPLACE
001115: 43,3104  37,2000                                  SBANK=   IMUSUPER
001116: 43,3104           02000 76065                     2CADR    REDO
001117:
001118: 43,3106           05225                           TC       ENDOFJOB
001119:
001120:                                                                                                  #  VERB 93         CLEAR RENDWFLG, CAUSES W-MATRIX TO BE RE-INITIALIZED.
001121:
001122: 43,3107           00004        WMATRXNG           INHINT
001123: 43,3110           45026                           CS       RENDWBIT
001124: 43,3111           70101                           MASK     FLAGWRD5
001125: 43,3112           54101                           TS       FLAGWRD5
001126:
001127: 43,3113           02121                           TC       GOPIN
001128:
001129: 43,3114  43,3114               GOSHOSUM           EQUALS   SHOWSUM
001130:
001131: 43,3114           02123        SHOWSUM            TC       CHKPOOH                               #  *
001132: 43,3115           02076                           TC       TESTXACT                              #  *
001133: 43,3116           35071                           CAF      PRIO7                                 #  ALLOW OTHER CHARINS.
001134: 43,3117           05216                           TC       PRIOCHNG
001135: 43,3120           35026                           CAF      S+1                                   #  *
001136: 43,3121           55376                           TS       SKEEP6                                #  * SHOWSUM OPTION
001137: 43,3122           35030                           CAF      S+ZERO                                #  *
001138: 43,3123           55362                           TS       SMODE                                 #  * TURN OFF SELF-CHECK
001139: 43,3124           33245                           CA       SELFADRS                              #  *
001140: 43,3125           55361                           TS       SELFRET                               #  *
001141: 43,3126           03522                           TC       STSHOSUM                              #  * ENTER ROPECHK
001142:
001143: 43,3127           23372        SDISPLAY           LXCH     SKEEP2                                #  * BANK # FOR DISPLAY
001144: 43,3130           23373                           LXCH     SKEEP3                                #  * BUGGER WORD FOR DISPLAY
001145: 43,3131           33244        NOKILL             CA       ADRS1                                 #  *
001146: 43,3132           54156                           TS       MPAC       +2                         #  *
001147: 43,3133           33144                           CA       VNCON                                 #  * 0501
001148: 43,3134           04655                           TC       BANKCALL                              #  *
001149: 43,3135           20226                           CADR     GOXDSPF                               #  *
001150: 43,3136           03141                           TC       +3                                    #  *
001151: 43,3137           03633                           TC       NXTBNK                                #  *
001152:
001153: 43,3140           03131                           TC       NOKILL                                #  *
001154: 43,3141           33245                           CA       SELFADRS
001155: 43,3142           55371                           TS       SKEEP1
001156:
001157: 43,3143           05564                           TC       ENDEXT                                #  *
001158:
001159: 43,3144           01201        VNCON              VN       501                                   #  *
001160:
001161: 43,3145           31376        ENDSUMS            CA       SKEEP6                                #  *
001162: 43,3146           00006                           EXTEND                                         #  *
001163: 43,3147           13336                           BZF      SELFCHK                               #  * ROPECHK, START SELFCHK AGAIN.
001164: 43,3150           03522                           TC       STSHOSUM                              #  * START SHOWSUM AGAIN.
001165:
001166:                                                                                                  #           DAPDISP     VERB 48             DESCRIPTION
001167:                                                                                                  #               LOAD AUTO PILOT  DATA
001168:                                                                                                  #               1. REQUIRE EXT VERB DISPLAY AVAILABLE AND SET BUSY FLAG.
001169:                                                                                                  #               2. EXECUTE DAPDATA1, DAPDATA2, AND DAPDATA3.
001170:                                                                                                  #               3. RELEASE EXT VERB DISPLAY SYSTEM.
001171: 43,3151           02076        DAPDISP            TC       TESTXACT
001172: 43,3152           35071                           CAF      PRIO7                                 #  R03
001173: 43,3153           05216                           TC       PRIOCHNG
001174: 43,3154           04674                           TC       POSTJUMP
001175: 43,3155           40000                           CADR     DAPDATA1
001176:
001177: 34,2000                                           BANK     34
001178: 20,2000                                           SETLOC   LOADDAP
001179: 20,2000                                           BANK
001180:
001181: 20,2000                                           COUNT*   $$/R03
001182:
001183: 20,2000  30,2000                                  SBANK=   LOWSUPER                              #  FOR SUBSEQUENT LOW 2CADR'S.
001184:
001185: 20,2000           07766        DAPDATA1           TC       SETXDSP
001186: 20,2001           32071                           CAF      BOOLSMSK                              #  SET DISPLAY ACCORDING TO DAPBOOLS BITS.
001187: 20,2002           71102                           MASK     DAPBOOLS                              #  LM
001188: 20,2003           55353        RELOAD             TS       DAPDATR1                              #  LM
001189: 20,2004           32073                           CAF      V01N46                                #  LM
001190: 20,2005           04655                           TC       BANKCALL
001191: 20,2006           20245                           CADR     GOXDSPFR
001192: 20,2007           15564                           TCF      ENDEXT                                #  V34E  TERMINATE
001193: 20,2010           12020                           TCF      DPDAT1                                #  V33E  PROCEED
001194: 20,2011           12015                           TCF      MSKDATR1                              #  E     NEW DATA    CHECK AND REDISPLAY
001195: 20,2012           36216                           CAF      REVCNT                                #  BITS 2 & 3:  BLANKS R2 & R3.
001196: 20,2013           05556                           TC       BLANKET
001197: 20,2014           15225                           TCF      ENDOFJOB
001198: 20,2015           32071        MSKDATR1           CAF      BOOLSMSK
001199: 20,2016           71353                           MASK     DAPDATR1
001200: 20,2017           12003                           TCF      RELOAD
001201:
001202: 20,2020           00004        DPDAT1             INHINT                                         #  INHINT FOR SETTING OF FLAG BITS AND MASS
001203: 20,2021           31353                           CA       DAPDATR1                              #    ON BASIS OF DISPLAYED DAPDATR1.
001204: 20,2022           75012                           MASK     CSMDOCKD
001205: 20,2023           00006                           EXTEND
001206: 20,2024           12043                           BZF      ONEMASS
001207:
001208: 20,2025           35025                           CAF      BIT2
001209: 20,2026           00006                           EXTEND
001210: 20,2027           02030                           RAND     CHAN30
001211: 20,2030           00006                           EXTEND
001212: 20,2031           12042                           BZF      ONEMASS    -1
001213:
001214: 20,2032           05651                           TC       ALARM
001215: 20,2033           01706                           OCT      1706
001216: 20,2034           35056                           CAF      VB05N09
001217: 20,2035           04655                           TC       BANKCALL
001218: 20,2036           20226                           CADR     GOXDSPF
001219: 20,2037           15564                           TCF      ENDEXT
001220: 20,2040           12034                           TCF      -4
001221: 20,2041           12000                           TCF      DAPDATA1
001222:
001223: 20,2042           31336                           CAE      CSMMASS
001224: 20,2043           61335        ONEMASS            AD       LEMMASS
001225: 20,2044           55243                           TS       MASS
001226: 20,2045           42071                           CS       BOOLSMSK
001227: 20,2046           71102                           MASK     DAPBOOLS
001228: 20,2047           61353                           AD       DAPDATR1
001229: 20,2050           55102                           TS       DAPBOOLS
001230: 20,2051           75014                           MASK     ACC4OR2X                              #  2 OR 4 JET X-TRANSLATION
001231: 20,2052           00006                           EXTEND                                         #  (BIT ACC4OR2X = 1 FOR 4 JETS)
001232: 20,2053           12060                           BZF      +5
001233: 20,2054           45010                           CS       BIT15
001234: 20,2055           70075                           MASK     FLAGWRD1                              #  CLEAR NJTSFLAG TO 0 FOR 4 JETS
001235: 20,2056           54075                           TS       FLAGWRD1
001236: 20,2057           12063                           TCF      +4
001237: 20,2060           40075                           CS       FLAGWRD1                              #  SET NJTSFLAG TO 1 FOR 2 JETS
001238: 20,2061           75010                           MASK     BIT15
001239: 20,2062           26075                           ADS      FLAGWRD1
001240: 20,2063           31102                           CA       DAPBOOLS                              #  SELECT DESIRED KALCMANU AUTOMATIC
001241: 20,2064           76221                           MASK     THREE                                 #  MANEUVER RATE
001242: 20,2065           60000                           DOUBLE                                         #  RATEINDX HAS TO BE 0,2,4,6 SINCE RATES
001243: 20,2066           55331                           TS       RATEINDX                              #  ARE DP
001244: 20,2067           00003                           RELINT
001245: 20,2070           02076                           TC       DAPDATA2
001246:
001247: 20,2071           13113        BOOLSMSK           OCT      13113
001248: 20,2072           01457        V0647              VN       0647
001249: 20,2073           00256        V01N46             VN       0146
001250: 20,2074           76466        MINLMD             DEC      -2850      B-16                       #  MIN. DESCENT STAGE MASS -- 2(16) KG.
001251: 20,2075           76731        MINMINLM           DEC      -2200      B-16                       #  MIN ASCENT STAGE MASS -- 2(16) KG.
001252: 20,2076     5014               MINCSM             =        BIT11                                 #  MIN CSM MASS (OK FOR 1/ACCS) = 9050 LBS
001253:
001254: 20,2076           32072        DAPDATA2           CAF      V0647
001255: 20,2077           04655                           TC       BANKCALL
001256: 20,2100           20245                           CADR     GOXDSPFR
001257: 20,2101           12107                           TCF      ENDR03                                #  V34E  TERMINATE. FIRST SET DB, DO 1/ACCS
001258: 20,2102           12113                           TCF      DAPDAT2                               #  V33E  PROCEED
001259: 20,2103           12076                           TCF      DAPDATA2                              #        LOAD NEW DATA AND RECYCLE
001260: 20,2104           35024                           CAF      BIT3                                  #  BLANKS R3
001261: 20,2105           05556                           TC       BLANKET                               #             LM
001262: 20,2106           15225                           TCF      ENDOFJOB
001263: 20,2107           00004        ENDR03             INHINT
001264: 20,2110           04737                           TC       IBNKCALL
001265: 20,2111           40204                           CADR     RESTORDB
001266: 20,2112           15564                           TCF      ENDEXT                                #  DOES RELINT
001267:
001268: 20,2113           00006        DAPDAT2            EXTEND                                         #  DETERMINE STAGE
001269: 20,2114           00030                           READ     CHAN30
001270: 20,2115           40000                           COM
001271: 20,2116           75025                           MASK     BIT2
001272: 20,2117           10000                           CCS      A
001273: 20,2120           32074                           CA       MINLMD
001274: 20,2121           62075                           AD       MINMINLM
001275: 20,2122           61335                           AD       LEMMASS                               #  LEMMASS MUST BE GREATER THAN EMPTY LEM
001276: 20,2123           00006                           EXTEND
001277: 20,2124           62076                           BZMF     DAPDATA2                              #  ASK FOR NEW MASSES
001278: 20,2125           31102                           CAE      DAPBOOLS
001279: 20,2126           75012                           MASK     CSMDOCKD
001280: 20,2127           00006                           EXTEND
001281: 20,2130           12136                           BZF      LEMALONE                              #  SKIP TEST ON CSMMASS IF NOT DOCKED.
001282: 20,2131           45014                           CS       MINCSM                                #  TEST CSM MASS
001283: 20,2132           61336                           AD       CSMMASS                               #  CSMMASS MUST BE GREATER THAN EMPTY CSM
001284:
001285: 20,2133           00006                           EXTEND
001286: 20,2134           62076                           BZMF     DAPDATA2                              #  ASK FOR NEW MASSES
001287: 20,2135           31336                           CAE      CSMMASS                               #  DOCKED:  MASS = CSMMASS + LEMMASS
001288: 20,2136           61335        LEMALONE           AD       LEMMASS                               #  LEM ALONE:  MASS = LEMMASS
001289: 20,2137           22007                           ZL
001290: 20,2140           53244                           DXCH     MASS
001291: 20,2141           00004                           INHINT
001292: 20,2142           04737                           TC       IBNKCALL                              #  SET DEADBANK AND COMPUTE MOMENTS OF
001293: 20,2143           40204                           CADR     RESTORDB                              #    INERTIA.
001294: 20,2144           00003                           RELINT                                         #  PROCEED TO NOUN 48 (OR END).
001295:
001296: 20,2145           35025        DAPDATA3           CAF      BIT2
001297: 20,2146           00006                           EXTEND
001298: 20,2147           02030                           RAND     CHAN30
001299: 20,2150           10000                           CCS      A                                     #  END ROUTINE IF LEM HAS STAGED,
001300: 20,2151           05564                           TC       ENDEXT
001301: 20,2152           32202                           CAF      V06N48                                #  DISPLAY TRIM ANGLES AND REQUEST RESPONSE
001302: 20,2153           04655                           TC       BANKCALL
001303: 20,2154           20245                           CADR     GOXDSPFR
001304: 20,2155           05564                           TC       ENDEXT
001305: 20,2156           12163                           TCF      DPDAT3                                #  V33E GO DO TRIM (WAITLIST TO TRIMGIMB)
001306: 20,2157           12152                           TCF      -5                                    #       LOAD NEW DATA AND RECYCLE
001307: 20,2160           35024                           CAF      BIT3
001308: 20,2161           05556                           TC       BLANKET                               #  BLANK R3
001309: 20,2162           15225                           TCF      ENDOFJOB
001310: 20,2163           35026        DPDAT3             CAF      BIT1                                  #  GO TO TRIMGIMB VIA WAITLIST SO IT
001311: 20,2164           00004                           INHINT                                         #  CAN USE FIXDELAY AND VARDELAY
001312: 20,2165           05252                           TC       WAITLIST
001313: 20,2166  E6,1401                                  EBANK=   ROLLTIME
001314: 20,2166           03232 56066                     2CADR    TRIMGIMB
001315: 20,2170           15225                           TCF      ENDOFJOB                              #  DOES A RELINT
001316: 20,2171           32203        TRIMDONE           CAF      V50N48
001317: 20,2172           04655                           TC       BANKCALL                              #  TRIM IS FINISHED; PLEASE TERMINATE R03
001318: 20,2173           20253                           CADR     GOMARK3R
001319: 20,2174           05564                           TC       ENDEXT                                #  V34E TERMINATE
001320: 20,2175           05564                           TC       ENDEXT
001321: 20,2176           05564                           TC       ENDEXT
001322: 20,2177           34112                           CAF      OCT24                                 #  BIT5 TO CHANGE TO PERFORM, 3 TO BLANK R3
001323: 20,2200           05556                           TC       BLANKET
001324: 20,2201           15225                           TCF      ENDOFJOB
001325:
001326: 20,2202           01460        V06N48             VN       0648
001327:
001328: 20,2203           14460        V50N48             VN       5048
001329:
001330:
001331:                                                                                                  #  VERB 66.  VEHICLES ARE ATTACHED.  MOVE THIS VEHICLE STATE VECTOR TO
001332:                                                                                                  #            OTHER VEHICLE STATE VECTOR.
001333:
001334:                                                                                                  #      USE SUBROUTINE GENTRAN.
001335:
001336: 07,2622                                           BANK     7
001337: 43,2000                                           SETLOC   EXTVERBS
001338: 43,2000                                           BANK
001339:
001340: 43,3156                                           COUNT*   $$/EXTVB
001341:
001342: 43,3156  E3,1626                                  EBANK=   RRECTHIS
001343:
001344: 43,3156           35057        ATTACHED           CAF      EBANK3
001345: 43,3157           54003                           TS       EBANK
001346: 43,3160           06014                           TC       INTPRET
001347: 43,3161           77624                           CALL
001348: 43,3162           27362                                    INTSTALL
001349: 43,3163           43014                           BON      CLRGO
001350: 43,3164           04304                                    MOONTHIS
001351: 43,3165           67170                                    +3
001352: 43,3166           04223                                    MOONOTH
001353: 43,3167           67172                                    +3
001354: 43,3170           77614                           SET
001355: 43,3171           04063                                    MOONOTH
001356: 43,3172           77776                           EXIT
001357: 43,3173           33207                           CAF      OCT51
001358: 43,3174           05626                           TC       GENTRAN
001359: 43,3175           01626                           ADRES    RRECTHIS                              #  OUR STATE VECTOR INTO OTHER VIA GENTRAN
001360: 43,3176           01554                           ADRES    RRECTOTH
001361:
001362: 43,3177           00003                           RELINT
001363:
001364: 43,3200           33210                           CAF      TCPINAD
001365: 43,3201           50120                           INDEX    FIXLOC
001366: 43,3202           54052                           TS       QPRET
001367: 43,3203           04674                           TC       POSTJUMP
001368: 43,3204           27400                           CADR     INTWAKE                               #  FREE INTEGRATION AND EXIT.
001369:
001370:
001371: 43,3205           77634        TCPIN              RTB
001372: 43,3206           20746                                    PINBRNCH
001373:
001374: 43,3207           00051        OCT51              OCT      51
001375: 43,3210           67205        TCPINAD            CADR     TCPIN
001376:
001377:                                                                                                  #  VERB 96  SET QUITFLAG TO STOP INTEGRATION.
001378:
001379:                                                                                                  #           GO TO V37 WITH ZERO TO CAUSE POO.
001380:                                                                                                  #           STATEINT WILL CHECK QUITFLAG AND SKIP 1ST PASS,
001381:                                                                                                  #                  THUS ALLOWING A 10 MINUTE PERIOD WITHOUT INTEGRATION.
001382:
001383: 43,3211           05566        VERB96             TC       UPFLAG                                #  QUITFLAG WILL CAUSE INTEGRATION TO EXIT
001384: 43,3212           00221                           ADRES    QUITFLAG                              #        AT NEXT TIMESTEP
001385:
001386: 43,3213           35030                           CAF      ZERO
001387: 43,3214           04674                           TC       POSTJUMP
001388: 43,3215           10007                           CADR     V37                                   #  GO TO POO
001389:
001390:
001391:                                                                                                  #  VERB 45:     DISPLAY OF W MATRIX
001392:
001393: 43,3216           02076        V45                TC       TESTXACT
001394: 43,3217           35067                           CAF      PRIO5
001395: 43,3220           05155                           TC       FINDVAC
001396: 43,3221  E5,1417                                  EBANK=   QPLACE
001397: 43,3221           03077 76065                     2CADR    V45CALL
001398:
001399: 43,3223           05225                           TC       ENDOFJOB
001400:
001401:                                                                                                  #  VERB 65          DISABLE U,V JETS DURING DPS BURNS
001402:
001403: 43,3224           05566        SNUFFOUT           TC       UPFLAG
001404: 43,3225           00115                           ADRES    SNUFFER
001405: 43,3226           02121                           TC       GOPIN
001406:
001407:                                                                                                  #  VERB 75          ENABLE U,V JETS DURING DPS BURNS
001408:
001409: 43,3227           05600        OUTSNUFF           TC       DOWNFLAG
001410: 43,3230           00115                           ADRES    SNUFFER
001411: 43,3231           02121                           TC       GOPIN

End of include-file EXTENDED_VERBS.agc.  Parent file is MAIN.agc


