
Source Code


000002:                                                                                                  ## Copyright:   Public domain.
000003:                                                                                                  ## Filename:    FINDCDUW_-_GUIDAP_INTERFACE.agc
000004:                                                                                                  ## Purpose:     A section of an attempt to reconstruct Sundance revision 306
000005:                                                                                                  ##              as closely as possible with available information. Sundance
000006:                                                                                                  ##              306 is the source code for the Lunar Module's (LM) Apollo
000007:                                                                                                  ##              Guidance Computer (AGC) for Apollo 9. This program was created
000008:                                                                                                  ##              using the mixed-revision SundanceXXX as a starting point, and
000009:                                                                                                  ##              pulling back features from Luminary 69 believed to have been
000010:                                                                                                  ##              added based on memos, checklists, observed address changes,
000011:                                                                                                  ##              or the Sundance GSOPs.
000012:                                                                                                  ## Assembler:   yaYUL
000013:                                                                                                  ## Contact:     Ron Burkey <info@sandroid.org>.
000014:                                                                                                  ## Website:     www.ibiblio.org/apollo/index.html
000015:                                                                                                  ## Mod history: 2020-07-24 MAS  Created from SundanceXXX.
000016:
000017:
000018:
000019:                                                                                                  #  PROGRAM NAME:   FINDCDUW
000020:
000021:                                                                                                  #  MOD NUMBER:     1         68 07 15
000022:
000023:                                                                                                  #  MOD AUTHOR:     KLUMPP
000024:
000025:                                                                                                  #  OBJECTS OF MOD: 1.        TO SUPPLY COMMANDED GIMBAL ANGLES FOR NOUN 22.
000026:                                                                                                  #                  2.        TO MAINTAIN CORRECT AND CURRENT THRUST
000027:                                                                                                  #                            DIRECTION DATA IN ALL MODES.  THIS IS DONE BY
000028:                                                                                                  #                            FETCHING FOR THE THRUST DIRECTION FILTER THE
000029:                                                                                                  #                            CDUD'S IN PNGCS-AUTO, THE CDU'S IN ALL OTHER
000030:                                                                                                  #                            MODES.
000031:                                                                                                  #                  3.        TO SUBSTITUTE A STOPRATE FOR THE NORMAL
000032:                                                                                                  #                            AUTOPILOT COMMANDS WHENEVER
000033:                                                                                                  #                            1) NOT IN PNGCS-AUTO, OR
000034:                                                                                                  #                            2) ENGINE IS OFF.
000035:
000036:                                                                                                  #  FUNCTIONAL DESCRIPTION:
000037:
000038:                                                                                                  #  FINDCDUW PROVIDES THE INTERFACES BETWEEN THE VARIOUS POWERED FLITE GUIDANCE PROGRAMS
000039:                                                                                                  #  AND THE DIGITAL AUTOPILOT.  THE INPUTS TO FINDCDUW ARE THE THRUST COMMAND VECTOR
000040:                                                                                                  #  AND THE WINDOW COMMAND VECTOR, AND THE OUTPUTS ARE THE GIMBAL ANGLE
000041:                                                                                                  #  INCREMENTS, THE COMMANDED ATTITUDE ANGLE RATES, AND THE COMMANDED
000042:                                                                                                  #  ATTITUDE LAG ANGLES (WHICH ACCOUNT FOR THE ANGLES BY WHICH THE BODY WILL
000043:                                                                                                  #  LAG BEHIND A RAMP COMMAND IN ATTITUDE ANGLE DUE TO THE FINITE ANGULAR
000044:                                                                                                  #  ACCELERATIONS AVAILABLE).
000045:
000046:                                                                                                  #  FINDCDUW ALINES THE ESTIMATED THRUST VECTOR FROM THE THRUST DIRECTION
000047:                                                                                                  #  FILTER WITH THE THRUST COMMAND VECTOR, AND, WHEN  XOVINHIB  SET,
000048:                                                                                                  #  ALINES THE +Z HALF OF THE LM ZX PLANE WITH THE WINDOW COMMAND VECTOR.
000049:
000050:                                                                                                  #  SPECIFICATIONS:
000051:
000052:                                                                                                  #  INITIALIZATION: A SINGLE INTERPRETIVE CALL TO  INITCDUW  IS REQUIRED
000053:                                                                                                  #                  BEFORE EACH GUIDED MANEUVER USING FINDCDUW.
000054:
000055:                                                                                                  #  CALL:           INTERPRETIVE CALL TO FINDCDUW WITH THE THRUST COMMAND
000056:                                                                                                  #                  VECTOR IN MPAC.  INTERPRETIVE CALL TO FINDCDUW -2 WITH
000057:                                                                                                  #                  THE THRUST COMMAND VECTOR IN UNFC/2 AND NOT IN MPAC.
000058:
000059:                                                                                                  #  RETURNS:        NORMAL INTERPRETIVE IN ALL CASES
000060:
000061:                                                                                                  #                  1.       NORMALLY ALL AUTOPILOT CMDS ARE ISSUED.
000062:
000063:                                                                                                  #                  2.       IF NOT PNGCS AUTO, DO STOPRATE AND RETURN
000064:                                                                                                  #                           WITHOUT ISSUING AUTOPILOT CMDS.
000065:
000066:                                                                                                  #                  3.       IF ENGINE OFF, DO STOPRATE AND RETURN WITHOUT
000067:                                                                                                  #                           ISSUING AUTOPILOT CMDS.
000068:
000069:                                                                                                  #  ALARMS:         00401 IF INPUTS DETERMINE AN ATTITUDE IN GIMBAL LOCK.
000070:                                                                                                  #                           FINDCDUW DRIVES CDUXD AND CDUYD TO THE RQD VALUES,
000071:                                                                                                  #                           BUT DRIVES CDUZD ONLY TO THE GIMBAL LOCK CONE.
000072:                                                                                                  #                  00402 IF UNFC/2 OR UNWC/2 PRODUCE OVERFLOW WHEN
000073:                                                                                                  #                           UNITIZED USING NORMUNIT.  FINDCDUW ISSUES
000074:                                                                                                  #                           STOPRATE AS ONLY INPUT TO AUTOPILOT.
000075:
000076:                                                                                                  #  INPUTS:         UNFC/2   THRUST COMMAND VECTOR, NEED NOT BE SEMI-UNIT.
000077:                                                                                                  #                  UNWC/2   WINDOW COMMAND VECTOR, NEED NOT BE SEMI-UNIT.
000078:                                                                                                  #                  XOVINHIB FLAG DENOTING X AXIS OVERRIDE INHIBITED.
000079:                                                                                                  #                  CSMDOCKD FLAG DENOTING CSM DOCKED.
000080:                                                                                                  #                  STEERSW  FLAG DENOTING INSUFF THRUST FOR THRUST DIR FLTR.
000081:
000082:                                                                                                  #  OUTPUTS:        DELCDUX,Y,Z
000083:                                                                                                  #                  OMEGAPD,+1,+2
000084:                                                                                                  #                  DELPEROR,+1,+2
000085:                                                                                                  #                  CPHI,+1,+2 FOR NOUN22
000086:
000087:                                                                                                  #  DEBRIS:         FINDCDUW DESTROYS SINCDUX,Y,Z AND COSCDUX,Y,Z BY
000088:                                                                                                  #                  WRITING INTO THESE LOCATIONS THE SINES AND COSINES
000089:                                                                                                  #                  OF THE CDUD'S IN PNGCS-AUTO, OF THE CDU'S OTHERWISE.
000090:
000091:                                                                                                  #  INITIALIZATION FOR FINDCDUW
000092:
000093: 30,3213                                           BANK     30
000094: 30,2000                                           SETLOC   FCDUW
000095: 30,2000                                           BANK
000096:
000097: 30,3213  E6,1643                                  EBANK=   ECDUW
000098:
000099: 30,3213                                           COUNT*   $$/FCDUW
000100:
000101: 30,3213           77775        INITCDUW           VLOAD
000102: 30,3214           06231                                    UNITX
000103: 30,3215           03264                           STORE    UNFV/2
000104: 30,3216           03256                           STORE    UNWC/2
000105: 30,3217           77616                           RVQ
000106:
000107:                                                                                                  #  FINDCDUW PRELIMINARIES
000108:
000109: 30,3220           77775                           VLOAD                                          #  FINDCDUW -2: ENTRY WHEN UNFC/2 PRE-STORD
000110: 30,3221           03250                                    UNFC/2                                #  INPUT VECTORS NEED NOT BE SEMI-UNIT
000111: 30,3222           40200        FINDCDUW           BOV      SETPD                                 #  FINDCDUW: ENTRY WHEN UNFC/2 IN MPAC
000112: 30,3223           61222                                    FINDCDUW                              #  INTERPRETER NOW INITIALIZED
000113: 30,3224           00023                                    22                                    #  LOCS 0 THRU 21 FOR DIRECTION COSINE MAT
000114: 30,3225           77420                           STQ      EXIT
000115: 30,3226           03244                                    QCDUWUSR                              #  SAVE RETURN ADDRESS
000116:
000117:                                                                                                  #  MORE HAUSKEEPING
000118: 30,3227           33632                           CA       ECDUWL
000119: 30,3230           56003                           XCH      EBANK                                 #  SET EBANK
000120: 30,3231           55643                           TS       ECDUWUSR                              #  SAVE USER'S EBANK
000121:
000122: 30,3232           31102                           CA       DAPBOOLS
000123: 30,3233           75012                           MASK     CSMDOCKD                              #  CSMDOCKD MUST NOT BE BIT15
000124: 30,3234           10000                           CCS      A
000125: 30,3235           35026                           CA       ONE                                   #  INDEX IF CSM DOCKED
000126: 30,3236           55645                           TS       NDXCDUW
000127:
000128: 30,3237           31102                           CA       DAPBOOLS
000129: 30,3240           75016                           MASK     XOVINHIB                              #  XOVINHIB MUST NOT BE BIT15
000130: 30,3241           55646                           TS       FLAGOODW                              #  FLAGOODW = ANY PNZ NUMBER IF XOV INHIBTD
000131:
000132:                                                                                                  #  FETCH BASIC DATA
000133:
000134: 30,3242           00004                           INHINT                                         #  RELINT AT PAUTNO (TC INTPRET)
000135:
000136: 30,3243           31632                           CA       CDUXD                                 #  PNGCS AUTO: FETCH CDUXD,CDUYD,CDUZD
000137: 30,3244           54772                           TS       CDUSPOTX
000138: 30,3245           31633                           CA       CDUYD
000139: 30,3246           54766                           TS       CDUSPOTY
000140: 30,3247           31634                           CA       CDUZD
000141: 30,3250           54770                           TS       CDUSPOTZ
000142:
000143: 30,3251           00003                           RELINT
000144:
000145:                                                                                                  #  FETCH INPUTS
000146:
000147: 30,3252           06014                           TC       INTPRET                               #  ENTERING THRUST CMD STILL IN MPAC
000148: 30,3253           77634                           RTB
000149: 30,3254           21672                                    NORMUNIT
000150: 30,3255           24001                           STOVL    UNX/2                                 #  SEMI-UNIT THRUST CMD AS INITIAL UNX/2
000151: 30,3256           03256                                    UNWC/2
000152: 30,3257           77634                           RTB
000153: 30,3260           21672                                    NORMUNIT
000154: 30,3261           24015                           STOVL    UNZ/2                                 #  SEMI-UNIT WINDOW CMD AS INITIAL UNZ/2
000155: 30,3262           01212                                    DELV
000156: 30,3263           45004                           BOVB     CALL
000157: 30,3264           61622                                    NOATTCNT                              #  AT LEAST ONE ENTERING CMD VCT ZERO
000158: 30,3265           47457                                    TRG*SMNB
000159: 30,3266           53414                           BOFF     UNIT                                  #  YIELDS UNIT(DELV) IN VEH COORDS FOR FLTR
000160: 30,3267           01344                                    STEERSW
000161: 30,3270           61303                                    AFTRFLTR                              #  IF UNIT DELV OVERFLOWS, SKIP FILTER
000162:
000163:                                                                                                  #  THRUST DIRECTION FILTER
000164:
000165: 30,3271           77776                           EXIT
000166:
000167: 30,3272           31665                           CA       UNFVY/2                               #  FOR RESTARTS, UNFV/2 ALWAYS INTACT, MPAC
000168: 30,3273           22157                           LXCH     MPAC       +3                         #        RENEWED AFTER RETURN FROM CALLER,
000169: 30,3274           03527                           TC       FLTRSUB                               #        TWO FILTER UPDATES MAY BE DONE.
000170: 30,3275           55665                           TS       UNFVY/2                               #  UNFV/2 NEED NOT BE EXACTLY SEMI-UNIT.
000171:
000172: 30,3276           31667                           CA       UNFVZ/2
000173: 30,3277           22161                           LXCH     MPAC       +5
000174: 30,3300           03527                           TC       FLTRSUB
000175: 30,3301           55667                           TS       UNFVZ/2
000176:
000177: 30,3302           06014                           TC       INTPRET                               #  COMPLETES FILTER
000178:
000179:                                                                                                  #  FIND A SUITABLE WINDOW POINTING VECTOR
000180:
000181: 30,3303           46135        AFTRFLTR           SLOAD    BHIZ                                  #  IF XOV NOT INHIBITED, GO FETCH ZNB
000182: 30,3304           03247                                    FLAGOODW
000183: 30,3305           61311                                    FETCHZNB
000184: 30,3306           45175                           VLOAD    CALL
000185: 30,3307           00015                                    UNZ/2
000186: 30,3310           61546                                    UNWCTEST
000187:
000188: 30,3311           77775        FETCHZNB           VLOAD
000189: 30,3312           02164                                    ZNBPIP
000190: 30,3313           34015                           STCALL   UNZ/2
000191: 30,3314           61546                                    UNWCTEST
000192:
000193: 30,3315           57575                           VLOAD    VCOMP                                 #  Z AND -X CAN'T BOTH PARALLEL UNFC/2
000194: 30,3316           02150                                    XNBPIP
000195: 30,3317           00015                           STORE    UNZ/2
000196:
000197:                                                                                                  #  COMPUTE THE REQUIRED DIRECTION COSINE MATRIX
000198:
000199: 30,3320           45175        DCMCL              VLOAD    CALL
000200: 30,3321           00001                                    UNX/2
000201: 30,3322           61570                                    DCMCL1
000202: 30,3323           77624                           CALL
000203: 30,3324           61556                                    DCMCL2
000204: 30,3325           77624                           CALL
000205: 30,3326           44331                                    TRNSPSPD
000206: 30,3327           45160                           AXC,1    CALL
000207: 30,3330           00000                                    0
000208: 30,3331           44650                                    DCMTOCDU
000209: 30,3332           77434                           RTB      EXIT
000210: 30,3333           21516                                    V1STO2S
000211:
000212:                                                                                                  #  LIMIT THE MIDDLE GIMBAL ANGLE & COMPUTE THE UNLIMITED GIMBAL ANGLE CHGS
000213:
000214: 30,3334           30156                           CA       MPAC       +2                         #  LIMIT THE MGA
000215: 30,3335           54001                           TS       L                                     #  CAN'T LXCH: NEED UNLIMITED MGA FOR ALARM
000216: 30,3336           33643                           CA       CDUZDLIM
000217: 30,3337           03601                           TC       LIMITSUB                              #  YIELDS LIMITED MGA. 1 BIT ERROR POSSIBLE
000218: 30,3340           56156                           XCH      MPAC       +2                         #       BECAUSE USING 2'S COMP. WHO CARES?
000219: 30,3341           00006                           EXTEND
000220: 30,3342           60156                           SU       MPAC       +2                         #  THIS BETTER YIELD ZERO
000221: 30,3343           10000                           CCS      A
000222: 30,3344           13627                           TCF      ALARMMGA
000223: 30,3345           13347                           TCF      +2
000224: 30,3346           13627                           TCF      ALARMMGA
000225:
000226: 30,3347           00004        MGARET             INHINT                                         #  RELINT AT TC INTPRET AFTER TCQCDUW
000227:
000228: 30,3350           35025                           CA       TWO
000229: 30,3351           54142        DELGMBLP           TS       TEM2
000230:
000231: 30,3352           50142                           INDEX    TEM2
000232: 30,3353           31632                           CA       CDUXD
000233: 30,3354           00006                           EXTEND
000234: 30,3355           50142                           INDEX    TEM2
000235: 30,3356           20154                           MSU      MPAC
000236: 30,3357           50142                           INDEX    TEM2
000237: 30,3360           55671                           TS       -DELGMB                               #  -UNLIMITED GIMBAL ANGLE CHGS, 1'S, PI
000238: 30,3361           10142                           CCS      TEM2
000239: 30,3362           13351                           TCF      DELGMBLP
000240:
000241:                                                                                                  #  LIMIT THE ATTITUDE ANGLE CHANGES
000242:
000243:                                                                                                  #  THIS SECTION LIMITS THE ATTITUDE ANGLE CHANGES ABOUT A SET OF ORTHOGONAL VEHICLE AXES X,YPRIME,ZPRIME.
000244:                                                                                                  #  THESE AXES COINCIDE WITH THE COMMANDED VEHICLE AXES IF AND ONLY IF CDUXD IS ZERO.  THE PRIME SYSTEM IS
000245:                                                                                                  #  THE COMMANDED VEHICLE SYSTEM ROTATED ABOUT THE X AXIS TO BRING THE Z AXIS INTO ALINEMENT WITH THE MIDDLE GIMBAL
000246:                                                                                                  #  AXIS.  ATTITUDE ANGLE CHANGES IN THE PRIME SYSTEM ARE RELATED TO SMALL GIMBAL ANGLE CHANGES BY:
000247:
000248:                                                                                                  #  * -DELATTX      *   * 1  SIN(CDUZD)  0 * * -DELGMBX *
000249:                                                                                                  #  *               *   *                  * *          *
000250:                                                                                                  #  * -DELATTYPRIME * = * 0  COS(CDUZD)  0 * * -DELGMBY *
000251:                                                                                                  #  *               *   *                  * *          *
000252:                                                                                                  #  * -DELATTZPRIME *   * 0  0           1 * * -DELGMBZ *
000253:
000254: 30,3363           23673                           LXCH     -DELGMB    +2                         #  SAME AS -DELATTZPRIME UNLIMITED
000255: 30,3364           51645                           INDEX    NDXCDUW
000256: 30,3365           33637                           CA       DAZMAX
000257: 30,3366           03601                           TC       LIMITSUB
000258: 30,3367           55673                           TS       -DELGMB    +2                         #  -DELGMBZ
000259:
000260: 30,3370           31672                           CA       -DELGMB    +1
000261: 30,3371           00006                           EXTEND
000262: 30,3372           70746                           MP       COSCDUZ                               #  YIELDS -DELATTYPRIME/2 UNLIMITED
000263: 30,3373           54001                           TS       L
000264: 30,3374           51645                           INDEX    NDXCDUW
000265: 30,3375           33641                           CA       DAY/2MAX
000266: 30,3376           03601                           TC       LIMITSUB
000267: 30,3377           00006                           EXTEND
000268: 30,3400           10746                           DV       COSCDUZ
000269: 30,3401           57672                           XCH      -DELGMB    +1                         #  -DELGMBY, FETCHING UNLIMITED VALUE
000270:
000271: 30,3402           00006                           EXTEND
000272: 30,3403           70740                           MP       SINCDUZ
000273: 30,3404           20001                           DDOUBL
000274: 30,3405           54142                           TS       TEM2                                  #  YIELDS +DELATTX UNLIMITD, MAG < 180 DEG,
000275: 30,3406           61671                           AD       -DELGMB                               #        BASED ON UNLIMITED DELGMBY.
000276: 30,3407           54001                           TS       L                                     #        ONE BIT ERROR IF OPERANDS IN MSU
000277: 30,3410           51645                           INDEX    NDXCDUW                               #        OF MIXED SIGNS.  WHO CARES?
000278: 30,3411           33637                           CA       DAXMAX
000279: 30,3412           03601                           TC       LIMITSUB
000280: 30,3413           54143                           TS       TEM3                                  #  SAVE LIMITED +DELATTX
000281: 30,3414           11646                           CCS      FLAGOODW
000282: 30,3415           30143                           CA       TEM3                                  #  FETCH IT BACK CHGING SIGN IF WINDOW GOOD
000283: 30,3416           00006                           EXTEND
000284: 30,3417           60142                           SU       TEM2
000285: 30,3420           55671                           TS       -DELGMB
000286:
000287:                                                                                                  #  COMPUTE COMMANDED ATTITUDE RATES
000288:
000289:                                                                                                  #  * OMEGAPD *   * -2  -4 SINCDUZ          +0         * * -DELGMBX *
000290:                                                                                                  #  *         *   *                                    * *          *
000291:                                                                                                  #  * OMEGAQD * = * +0  -8 COSCDUZ COSCDUX  -4 SINCDUX * * -DELGMBY *
000292:                                                                                                  #  *         *   *                                    * *          *
000293:                                                                                                  #  * OMEGARD *   * +0  +8 COSCDUZ SINCDUX  -4 COSCDUX * * -DELGMBZ *
000294:
000295:                                                                                                  #  ATTITUDE ANGLE RATES IN UNITS OF PI/4 RAD/SEC = K TRIG FCNS IN UNITS OF 2 X GIMBAL ANGLE RATES IN UNITS OF
000296:                                                                                                  #  PI/2 RAD/SEC.  THE CONSTANTS ARE BASED ON DELGMB BEING THE GIMBAL ANGLE CHANGES IN UNITS OF PI RADIANS,
000297:                                                                                                  #  AND 2 SECONDS BEING THE COMPUTATION PERIOD (THE PERIOD BETWEEN SUCCESSIVE PASSES THRU FINDCDUW).
000298:
000299: 30,3421           41671                           CS       -DELGMB
000300: 30,3422           55640                           TS       OMEGAPD
000301: 30,3423           41672                           CS       -DELGMB    +1
000302: 30,3424           00006                           EXTEND
000303: 30,3425           70740                           MP       SINCDUZ
000304: 30,3426           20001                           DDOUBL
000305: 30,3427           27640                           ADS      OMEGAPD
000306: 30,3430           27640                           ADS      OMEGAPD
000307:
000308: 30,3431           41672                           CS       -DELGMB    +1
000309: 30,3432           00006                           EXTEND
000310: 30,3433           70750                           MP       COSCDUX
000311: 30,3434           20001                           DDOUBL
000312: 30,3435           00006                           EXTEND
000313: 30,3436           70746                           MP       COSCDUZ
000314: 30,3437           55641                           TS       OMEGAQD
000315: 30,3440           41673                           CS       -DELGMB    +2
000316: 30,3441           00006                           EXTEND
000317: 30,3442           70742                           MP       SINCDUX
000318: 30,3443           27641                           ADS      OMEGAQD
000319: 30,3444           27641                           ADS      OMEGAQD
000320: 30,3445           27641                           ADS      OMEGAQD
000321:
000322: 30,3446           31672                           CA       -DELGMB    +1
000323: 30,3447           00006                           EXTEND
000324: 30,3450           70742                           MP       SINCDUX
000325: 30,3451           20001                           DDOUBL
000326: 30,3452           00006                           EXTEND
000327: 30,3453           70746                           MP       COSCDUZ
000328: 30,3454           55642                           TS       OMEGARD
000329: 30,3455           41673                           CS       -DELGMB    +2
000330: 30,3456           00006                           EXTEND
000331: 30,3457           70750                           MP       COSCDUX
000332: 30,3460           27642                           ADS      OMEGARD
000333: 30,3461           27642                           ADS      OMEGARD
000334: 30,3462           27642                           ADS      OMEGARD
000335:
000336:                                                                                                  #  FINAL TRANSFER
000337:
000338: 30,3463           35025                           CA       TWO
000339: 30,3464           54142        CDUWXFR            TS       TEM2
000340: 30,3465           50142                           INDEX    TEM2
000341: 30,3466           31671                           CA       -DELGMB
000342: 30,3467           00006                           EXTEND
000343: 30,3470           73644                           MP       DT/DELT                               #  RATIO OF DAP INTERVAL TO CDUW INTERVAL
000344: 30,3471           03615                           TC       ONESTO2S
000345: 30,3472           50142                           INDEX    TEM2
000346: 30,3473           55635                           TS       DELCDUX                               #  ANGLE INTERFACE
000347:
000348: 30,3474           50142                           INDEX    TEM2
000349: 30,3475           11640                           CCS      OMEGAPD
000350: 30,3476           65026                           AD       ONE
000351: 30,3477           13501                           TCF      +2
000352: 30,3500           65026                           AD       ONE
000353: 30,3501           00006                           EXTEND                                         #  WE NOW HAVE ABS(OMEGAPD,QD,RD)
000354: 30,3502           50142                           INDEX    TEM2
000355: 30,3503           71640                           MP       OMEGAPD
000356: 30,3504           00006                           EXTEND
000357: 30,3505           75014                           MP       BIT11                                 #  1/16
000358: 30,3506           00006                           EXTEND
000359: 30,3507           50142                           INDEX    TEM2                                  #                   2
000360: 30,3510           11522                           DV       1JACC                                 #  UNITS PI/4 RAD/SEC
000361: 30,3511           54001                           TS       L
000362: 30,3512           33641                           CA       DELERLIM
000363: 30,3513           03601                           TC       LIMITSUB
000364: 30,3514           50142                           INDEX    TEM2
000365: 30,3515           55301                           TS       DELPEROR                              #  LAG ANGLE = OMEGA ABS(OMEGA)/2 ACCEL
000366: 30,3516           10142                           CCS      TEM2
000367: 30,3517           13464                           TCF      CDUWXFR
000368: 30,3520           00003                           RELINT
000369:
000370:                                                                                                  #  HAUSKEEPING AND RETURN
000371:
000372: 30,3521           31643        TCQCDUW            CA       ECDUWUSR
000373: 30,3522           54003                           TS       EBANK                                 #  RETURN USER'S EBANK
000374:
000375: 30,3523           06014                           TC       INTPRET
000376: 30,3524           52001                           SETPD    GOTO
000377: 30,3525           00001                                    0
000378: 30,3526           03244                                    QCDUWUSR                              #  NORMAL AND ABNORMAL RETURN TO USER
000379:
000380:                                                                                                  #  THRUST VECTOR FILTER SUBROUTINE
000381:
000382: 30,3527           00006        FLTRSUB            EXTEND
000383: 30,3530           22142                           QXCH     TEM2
000384: 30,3531           54143                           TS       TEM3                                  #  SAVE ORIGINAL OFFSET
000385: 30,3532           40000                           COM                                            #  ONE MCT, NO WDS, CAN BE SAVED IF NEG OF
000386: 30,3533           60001                           AD       L                                     #       ORIG OFFSET ARRIVES IN A, BUT IT'S
000387: 30,3534           00006                           EXTEND                                         #       NOT WORTH THE INCREASED OBSCURITY.
000388: 30,3535           73633                           MP       GAINFLTR
000389: 30,3536           54001                           TS       L                                     #  INCR TO OFFSET, UNLIMITED
000390: 30,3537           33634                           CA       DUNFVLIM                              #  SAME LIMIT FOR Y AND Z
000391: 30,3540           03601                           TC       LIMITSUB                              #  YIELDS INCR TO OFFSET, LIMITED
000392: 30,3541           60143                           AD       TEM3                                  #  ORIGINAL OFFSET
000393: 30,3542           54001                           TS       L                                     #  TOTAL OFFSET, UNLIMITED
000394: 30,3543           33635                           CA       UNFVLIM                               #  SAME LIMIT FOR Y AND Z
000395: 30,3544           03601                           TC       LIMITSUB                              #  YIELDS TOTAL OFFSET, LIMITED
000396: 30,3545           00142                           TC       TEM2
000397:
000398:                                                                                                  #  SUBR TO TEST THE ANGLE BETWEEN THE PROPOSED WINDOW AND THRUST CMD VCTS
000399:
000400: 30,3546           63441        UNWCTEST           DOT      DSQ
000401: 30,3547           00001                                    UNX/2
000402: 30,3550           50025                           DSU      BMN
000403: 30,3551           21637                                    DOTSWFMX
000404: 30,3552           61320                                    DCMCL
000405: 30,3553           43531                           SSP      RVQ                                   #  RVQ FOR ALT CHOICE IF DOT MAGN TOO LARGE
000406: 30,3554           03247                                    FLAGOODW                              #       ZEROING WINDOW GOOD FLAG
000407: 30,3555           00000                                    0
000408:
000409: 30,3556           74345        DCMCL2             DLOAD    VXSC
000410: 30,3557           03270                                    UNFVZ/2                               #  MUST BE SMALL
000411: 30,3560           00015                                    UNZ/2                                 #  -UNZ/2 FIRST ITERATION
000412: 30,3561           74325                           PDDL     VXSC                                  #  EXCHANGE -UNFVZ/2 UNZ/2 FOR UNFVY/2
000413: 30,3562           03266                                    UNFVY/2                               #  MUST BE SMALL
000414: 30,3563           00007                                    UNY/2
000415: 30,3564           76455                           VAD      VSL1
000416: 30,3565           53445                           BVSU     UNIT                                  #  YIELDS -UNFVY/2 UNY/2-UNFVZ/2 UNZ/2
000417: 30,3566           00001                                    UNX/2
000418: 30,3567           00001                           STORE    UNX/2
000419:
000420: 30,3570           47276        DCMCL1             VCOMP    VXV
000421: 30,3571           00015                                    UNZ/2
000422: 30,3572           77656                           UNIT
000423: 30,3573           00007                           STORE    UNY/2                                 #  UNY/2 FIRST ITERATION
000424: 30,3574           47276                           VCOMP    VXV
000425: 30,3575           00001                                    UNX/2
000426: 30,3576           77772                           VSL1
000427: 30,3577           00015                           STORE    UNZ/2
000428: 30,3600           77616                           RVQ
000429:
000430:                                                                                                  #  LIMITSUB LIMITS THE MAGNITUDE OF THE POSITIVE OR NEGATIVE VARIABLE
000431:                                                                                                  #  ARRIVING IN L TO THE POSITIVE LIMIT ARRIVING IN A.
000432:                                                                                                  #  THE SIGNED LIMITED VARIABLE IS RETURNED IN A.
000433:
000434:                                                                                                  #  VERSION COURTESY HUGH BLAIR-SMITH
000435:
000436: 30,3601           54141        LIMITSUB           TS       TEM1
000437: 30,3602           35030                           CA       ZERO
000438: 30,3603           00006                           EXTEND
000439: 30,3604           10141                           DV       TEM1
000440: 30,3605           10000                           CCS      A
000441: 30,3606           22141                           LXCH     TEM1
000442: 30,3607           13611                           TCF      +2
000443: 30,3610           13613                           TCF      +3
000444: 30,3611           30001                           CA       L
000445: 30,3612           00002                           TC       Q
000446: 30,3613           40141                           CS       TEM1
000447: 30,3614           00002                           TC       Q
000448:
000449:                                                                                                  #  SUBROUTINE TO CONVERT 1'S COMP SP TO 2'S COMP
000450:
000451: 30,3615           10000        ONESTO2S           CCS      A
000452: 30,3616           65026                           AD       ONE
000453: 30,3617           00002                           TC       Q
000454: 30,3620           40000                           CS       A
000455: 30,3621           00002                           TC       Q
000456:
000457:                                                                                                  #  NO ATTITUDE CONTROL
000458:
000459: 30,3622           05651        NOATTCNT           TC       ALARM
000460: 30,3623           00402                           OCT      00402                                 #  NO ATTITUDE CONTROL
000461:
000462: 30,3624           04655                 +2        TC       BANKCALL
000463: 30,3625           40244                           FCADR    STOPRATE
000464: 30,3626           13521                           TCF      TCQCDUW                               #  RETURN TO USER SKIPPING AUTOPILOT CMDS
000465:
000466:                                                                                                  #  MIDDLE GIMBAL ANGLE ALARM
000467:
000468: 30,3627           05651        ALARMMGA           TC       ALARM
000469: 30,3630           00401                           OCT      00401
000470: 30,3631           13347                           TCF      MGARET
000471:
000472:                                                                                                  # ************************************************************************
000473:                                                                                                  #  CONSTANTS
000474:                                                                                                  # ************************************************************************
000475:
000476:                                                                                                  #  ADDRESS CONSTANTS
000477:
000478: 30,3632           03243        ECDUWL             ECADR    ECDUW
000479:
000480:                                                                                                  #  THRUST DIRECTION FILTER CONSTANTS
000481:
000482: 30,3633           06315        GAINFLTR           DEC      .2                                    #  GAIN FILTER
000483:
000484: 30,3634           00071        DUNFVLIM           DEC      .007       B-1                        #  7 MR MAX CHG IN F DIR IN VEH IN 2 SECS.
000485:                                                                                                  #  THIS DOES NOT ALLOW FOR S/C ROT RATE.
000486:
000487: 30,3635           02041        UNFVLIM            DEC      .129       B-1                        #  129 MR MAX THRUST OFFSET.  105 MR TRAVEL
000488:                                                                                                  #  +10MR DEFL+5MR MECH MOUNT+9MR ABLATION.
000489:
000490:                                                                                                  #  CONSTANTS RELATED TO GIMBAL ANGLE COMPUTATIONS
000491:
000492: 30,3636           01673        DOTSWFMX           DEC      .93302     B-4                        #  LIM COLNRTY OF UNWC/2 & UNFC/2 TO 85 DEG
000493:                                                                                                  #  LOWER PART COMES FROM NEXT CONSTANT
000494:
000495: 30,3637           03434        DAXMAX             DEC      .11111111111                            #  DELATTX LIM TO 20 DEG IN 2 SECS, 1'S, PI
000496: 30,3640           00266                           DEC      .0111111111                            #  2 DEG WHEN CSM DOCKED
000497:
000498: 30,3641           01616        DAY/2MAX           DEC      .05555555555                            #  LIKEWISE FOR DELATTY
000499: 30,3642           00133                           DEC      .0055555555
000500:
000501: 30,3643  30,3637               DAZMAX             =        DAXMAX                                #  LIKEWISE FOR DELATTZ
000502:
000503: 30,3643           14344        CDUZDLIM           DEC      .3888888888                            #  70 DEG LIMIT FOR MGA, 1'S, PI
000504:
000505:                                                                                                  #  CONSTANTS FOR DATA TRANSFER
000506:
000507: 30,3644           01463        DT/DELT            DEC      .05                                   #  .1 SEC/2 SEC WHICH IS THE AUTOPILOT
000508:                                                                                                  #  CONTROL SAMPLE PERIOD/COMPUTATION PERIOD
000509:
000510: 30,3645  30,3641               DELERLIM           =        DAY/2MAX                              #  10 DEG LIMIT FOR LAG ANGLES, 1'S, PI
000511:
000512:

End of include-file FINDCDUW_-_GUIDAP_INTERFACE.agc.  Parent file is MAIN.agc


