
Source Code


000002:                                                                                                  ## Copyright:   Public domain.
000003:                                                                                                  ## Filename:    FRESH_START_AND_RESTART.agc
000004:                                                                                                  ## Purpose:     A section of an attempt to reconstruct Sundance revision 306
000005:                                                                                                  ##              as closely as possible with available information. Sundance
000006:                                                                                                  ##              306 is the source code for the Lunar Module's (LM) Apollo
000007:                                                                                                  ##              Guidance Computer (AGC) for Apollo 9. This program was created
000008:                                                                                                  ##              using the mixed-revision SundanceXXX as a starting point, and
000009:                                                                                                  ##              pulling back features from Luminary 69 believed to have been
000010:                                                                                                  ##              added based on memos, checklists, observed address changes,
000011:                                                                                                  ##              or the Sundance GSOPs.
000012:                                                                                                  ## Assembler:   yaYUL
000013:                                                                                                  ## Contact:     Ron Burkey <info@sandroid.org>.
000014:                                                                                                  ## Website:     www.ibiblio.org/apollo/index.html
000015:                                                                                                  ## Mod history: 2020-07-24 MAS  Created from SundanceXXX.
000016:                                                                                                  ##              2020-07-29 MAS  Added initialization of DKDB and -RATEDB.
000017:
000018:
000019:
000020: 10,2000                                           BANK     10
000021: 05,2000                                           SETLOC   FRANDRES
000022: 05,2000                                           BANK
000023:
000024: 05,2264  E3,1400                                  EBANK=   LST1
000025:
000026: 05,2264                                           COUNT*   $$/START                              #  FRESH AND RESTART
000027: 05,2264           00004        SLAP1              INHINT                                         #  FRESH START. COMES HERE FROM PINBALL.
000028: 05,2265           02703                           TC       STARTSUB                              #  SUBROUTINE DOES MOST OF THE WORK.
000029:
000030: 05,2266           12273        STARTSW            TCF      SKIPSIM                               #  PATCH....TCF STARTSIM...FOR SIMULATION
000031: 05,2267           35011        STARTSIM           CAF      BIT14
000032: 05,2270           05155                           TC       FINDVAC
000033: 05,2271           77777        SIM2CADR           OCT      77777                                 #  PATCH 2CADR (AND EBANK DESIGNATION) OF
000034: 05,2272           77777                           OCT      77777                                 #  SIMULATION START ADDRESS.
000035:
000036: 05,2273           35010        SKIPSIM            CAF      BIT15                                 #  TURN OFF ALL DSPTAB+11D LAMPS ONLY ON
000037: 05,2274           55037                           TS       DSPTAB     +11D                       #  REQUESTED FRESH START.
000038:
000039: 05,2275           35030                           CA       ZERO
000040: 05,2276           55365                           TS       ERCOUNT
000041: 05,2277           54375                           TS       FAILREG
000042: 05,2300           54376                           TS       FAILREG    +1
000043: 05,2301           54377                           TS       FAILREG    +2
000044: 05,2302           55205                           TS       REDOCTR
000045:
000046: 05,2303           44703                           CS       PRIO12
000047: 05,2304           55315                           TS       DSRUPTSW
000048:
000049: 05,2305           35024        DOFSTART           CAF      FOUR
000050: 05,2306           55275                           TS       RCSFLAGS                              #  INITIALIZE ATTITUDE ERROR DISPLAYS.
000051: 05,2307           34367                           CA       PRIO30
000052: 05,2310           54366                           TS       RESTREG                               #  SUPER BANK PRIORITY FOR DISPLAYS.
000053:
000054: 05,2311           35030                           CA       ZERO
000055: 05,2312           55245                           TS       ABDELV                                #  DAP INITIALIZATION
000056: 05,2313           55246                           TS       ABDELV     +1
000057: 05,2314           54774                           TS       RASFLAG
000058: 05,2315           54371                           TS       NVSAVE
000059: 05,2316           55072                           TS       EBANKTEM
000060: 05,2317           55264                           TS       CH5MASK
000061: 05,2320           55265                           TS       CH6MASK
000062: 05,2321           55300                           TS       PVALVEST                              #  FOR RCS FAILURE MONITOR
000063: 05,2322           55360                           TS       ERESTORE                              #  ***** MUST NOT BE REMOVED FROM DOFSTART
000064: 05,2323           55362                           TS       SMODE                                 #  ***** MUST NOT BE REMOVED FROM DOFSTART
000065: 05,2324           54332                           TS       DNLSTCOD                              #  SELECT POO DOWNLIST
000066: 05,2325           55330                           TS       AGSWORD                               #  ALLOW AGS INITIALIZATION
000067: 05,2326           55501                           TS       UPSVFLAG                              #  ZERO UPDATE STATE VECTOR REQUEST FLAGWRD
000068: 05,2327           00006                           EXTEND
000069: 05,2330           01005                           WRITE    CHAN5                                 #  TURN OFF RCS JETS.
000070: 05,2331           00006                           EXTEND
000071: 05,2332           01006                           WRITE    CHAN6                                 #  TURN OFF RCS JETS.
000072: 05,2333           00006                           EXTEND
000073: 05,2334           01012                           WRITE    CHAN12
000074: 05,2335           00006                           EXTEND
000075: 05,2336           01013                           WRITE    CHAN13
000076: 05,2337           00006                           EXTEND
000077: 05,2340           01014                           WRITE    CHAN14
000078: 05,2341           35011                           CAF      BIT14                                 #  INSURE ENGINE IS OFF.
000079: 05,2342           00006                           EXTEND
000080: 05,2343           01011                           WRITE    DSALMOUT
000081: 05,2344           02426                           TC       MR.KLEAN
000082:
000083: 05,2345           45030                           CS       ZERO
000084: 05,2346           54055                           TS       THRUST
000085: 05,2347           55012                           TS       MODREG
000086:
000087: 05,2350           33135                           CAF      IM30INIF                              #  FRESH START IMU INITIALIZATION.
000088: 05,2351           55304                           TS       IMODES30
000089:
000090: 05,2352           35751                           CAF      WIDEDB
000091: 05,2353           55356                           TS       DB
000092: 05,2354           35024                           CAF      FOUR
000093: 05,2355           55331                           TS       RATEINDX                              #  INITIALIZE KALCMANU RATE
000094: 05,2356           32677                           CA       BOOLSTRT
000095: 05,2357           55102                           TS       DAPBOOLS
000096: 05,2360           35065                           CAF      EBANK6
000097: 05,2361           54003                           TS       EBANK
000098: 05,2362  E6,1400                                  EBANK=   HIASCENT
000099:


000101: 05,2362           32675                           CA       RATESTRT
000102: 05,2363           55464                           TS       -RATEDB
000103: 05,2364           32702                           CAF      FULLAPS                               #  INITIALIZE MAXIMUM ASCENT MASS FOR USE
000104: 05,2365           55400                           TS       HIASCENT                              #    BY 1/ACCS UNTIL THE PAD LOAD IS DONE.
000105: 05,2366           32700                           CA       77001OCT                              #      LOAD DAP FILTER GAINS PAD LOAD
000106: 05,2367           55403                           TS       DKTRAP                                #     TO BEST PRESENT ESTIMATE OF GOODIES
000107: 05,2370           55406                           TS       LMTRAP                                #  .14 DEG
000108: 05,2371           32701                           CA       60DEC
000109: 05,2372           55405                           TS       DKKAOSN
000110: 05,2373           55410                           TS       LMKAOSN                               #  6 SEC GAIN FOR ALPHA
000111: 05,2374           35030                           CA       ZERO
000112: 05,2375           55407                           TS       LMOMEGAN                              #  UNITY GAIN
000113: 05,2376           34375                           CA       TEN
000114: 05,2377           55404                           TS       DKOMEGAN                              #  1 SEC GAIN FOR OMEGA
000115: 05,2400           35076                           CAF      IM33INIT


000117: 05,2401           35017                           CAF      BIT8                                  #  SET DOCKED DB TO 1.4 DEG.  MAY OVERWRITE
000118: 05,2402           55411                           TS       DKDB                                  #    WITH PAD LOAD.
000119: 05,2403           65021                           AD       BIT6                                  #  KEEP BOTH DAP AND ERROR-NEEDLES DISPLAY
000120: 05,2404           55305                           TS       IMODES33                              #    OFF UNTIL ICDU ZERO IS FINISHED.
000121:
000122: 05,2405           00006                           EXTEND                                         #  INITIALIZE SWITCHES ONLY ON FRESH START.
000123: 05,2406           33142                           DCA      SWINIT
000124: 05,2407           52075                           DXCH     STATE
000125: 05,2410           00006                           EXTEND
000126: 05,2411           33144                           DCA      SWINIT     +2
000127: 05,2412           52077                           DXCH     STATE      +2
000128: 05,2413           00006                           EXTEND
000129: 05,2414           33146                           DCA      SWINIT     +4
000130: 05,2415           52101                           DXCH     STATE      +4
000131: 05,2416           00006                           EXTEND
000132: 05,2417           33150                           DCA      SWINIT     +6
000133: 05,2420           52103                           DXCH     STATE      +6
000134: 05,2421           00006                           EXTEND
000135: 05,2422           33152                           DCA      SWINIT     +8
000136: 05,2423           52105                           DXCH     STATE      +8
000137:
000138: 05,2424           04674        ENDRSTRT           TC       POSTJUMP                              #  NOW IN ANOTHER BANK.
000139: 05,2425           03021                           CADR     DUMMYJOB   +2                         #  PICKS UP AT RELINT.   (DONT ZERO NEWJOB)
000140:
000141: 05,2426           00006        MR.KLEAN           EXTEND
000142: 05,2427           35030                           DCA      NEG0
000143: 05,2430           52755                           DXCH     -PHASE2
000144: 05,2431           00006        POOKLEAN           EXTEND
000145: 05,2432           35030                           DCA      NEG0
000146: 05,2433           52761                           DXCH     -PHASE4
000147: 05,2434           00006        V37KLEAN           EXTEND
000148: 05,2435           35030                           DCA      NEG0
000149: 05,2436           52753                           DXCH     -PHASE1
000150: 05,2437           00006                           EXTEND
000151: 05,2440           35030                           DCA      NEG0
000152: 05,2441           52757                           DXCH     -PHASE3
000153: 05,2442           00006                           EXTEND
000154: 05,2443           35030                           DCA      NEG0
000155: 05,2444           52763                           DXCH     -PHASE5
000156: 05,2445           00006                           EXTEND
000157: 05,2446           35030                           DCA      NEG0
000158: 05,2447           52765                           DXCH     -PHASE6
000159: 05,2450           00002                           TC       Q
000160:
000161:                                                                                                  #           COMES HERE FROM LOCATION 4000, GOJAM. RESTART ANY PROGRAMS WHIC
000162:
000163: 05,2451  E3,1400                                  EBANK=   LST1                                  #  H MAY HAVE BEEN RUNNING AT THE TIME.
000164: 05,2451           25205        GOPROG             INCR     REDOCTR                               #  ADVANCE RESTART COUNTER.
000165:
000166: 05,2452           22002                           LXCH     Q
000167: 05,2453           00006                           EXTEND
000168: 05,2454           04007                           ROR      SUPERBNK
000169: 05,2455           53433                           DXCH     RSBBQ
000170: 05,2456           31037                           CA       DSPTAB     +11D
000171: 05,2457           75023                           MASK     BIT4
000172: 05,2460           00006                           EXTEND
000173: 05,2461           12465                           BZF      +4
000174: 05,2462           65021                           AD       BIT6                                  #  SET ERROR COUNTER ENABLE
000175: 05,2463           00006                           EXTEND
000176: 05,2464           05012                           WOR      CHAN12                                #  ISS WAS IN COARS ALIGN SO GO BACK TO
000177: 05,2465           02703                           TC       STARTSUB
000178:
000179:                                                                                                  #                                             ERASCHK TEMPORARILY STORES THE CONTENTS OF TWO ERASABLE LOCATIONS, X
000180:                                                                                                  #                                             AND X+1 INTO SKEEP5 AND SKEEP6. IT ALSO STORES X INTO SKEEP7 AND
000181:                                                                                                  #                                             ERESTORE. IF ERASCHK IS INTERRUPTED BY A RESTART, C(ERESTORE) SHOULD
000182:                                                                                                  #                                             EQUAL C(SKEEP7),AND BE A + NUMBER LESS THAN 2000 OCT. OTHERWISE
000183:                                                                                                  #                                             C(ERESTORE) SHOULD EQUAL +0.
000184:
000185: 05,2466           34362                           CAF      HI5
000186: 05,2467           71360                           MASK     ERESTORE
000187: 05,2470           00006                           EXTEND
000188: 05,2471           12473                           BZF      +2                                    #  IF ERESTORE NOT = +0 OR +N LESS THAN 2K,
000189: 05,2472           12305                           TCF      DOFSTART                              #  DOUBT E MEMORY AND DO A FRESH START.
000190: 05,2473           41360                           CS       ERESTORE
000191: 05,2474           00006                           EXTEND
000192: 05,2475           12512                           BZF      DORSTART                              #  = +0 CONTINUE WITH RESTART.
000193: 05,2476           61377                           AD       SKEEP7
000194: 05,2477           00006                           EXTEND
000195: 05,2500           12502                           BZF      +2                                    #  = SKEEP7, RESTORE E MEMORY.
000196: 05,2501           12305                           TCF      DOFSTART                              #  NOT = SKEEP7, DOUBE E MEM,DO FRESH START.
000197: 05,2502           31374                           CA       SKEEP4
000198: 05,2503           54003                           TS       EBANK                                 #  EBANK OF E MEMORY THAT WAS UNDER TEST.
000199: 05,2504           00006                           EXTEND                                         #  (NOT DXCH SINCE THIS MIGHT HAPPEN AGAIN)
000200: 05,2505           31376                           DCA      SKEEP5
000201: 05,2506           51377                           INDEX    SKEEP7
000202: 05,2507           52001                           DXCH     0000                                  #  E MEMORY RESTORED.
000203: 05,2510           35030                           CA       ZERO
000204: 05,2511           55360                           TS       ERESTORE
000205: 05,2512           35010        DORSTART           CA       BIT15                                 #  TEST OSC FAIL BIT TO SEE IF WE HAVE
000206: 05,2513           00006                           EXTEND                                         #  HAD A POWER TRANSIENT.  IF SO, ATTEMPT
000207: 05,2514           03033                           WAND     CHAN33                                #  A RESTART.  IF NOT, CHACK THE PRESENT
000208: 05,2515           00006                           EXTEND                                         #  STATE OF AGC WARNING.
000209: 05,2516           12524                           BZF      LIGHTSET
000210:
000211: 05,2517           35011                           CA       BIT14                                 #  IF AGC WARNING ON (BIT = 0), DO A FRESH
000212: 05,2520           00006                           EXTEND                                         #  START ON THE ASSUMPTION THAT WE'RE IN A
000213: 05,2521           02033                           RAND     CHAN33                                #  RESTART LOOP.
000214: 05,2522           00006                           EXTEND
000215: 05,2523           12305                           BZF      DOFSTART
000216:
000217: 05,2524           35022        LIGHTSET           CAF      BIT5                                  #  CHECK FOR MARK REJECT AND ERROR RESET
000218: 05,2525           00006                           EXTEND
000219: 05,2526           02016                           RAND     NAVKEYIN
000220: 05,2527           00006                           EXTEND
000221: 05,2530           12536                           BZF      NONAVKEY                              #  NO MARK REJECT
000222: 05,2531           00006                           EXTEND
000223: 05,2532           00015                           READ     MNKEYIN                               #  CHECK IF KEYS 2M AND 5M ON
000224: 05,2533           63134                           AD       -ELR                                  #  MAIN DSKY KEYCODE (BITS 1-5)
000225: 05,2534           00006                           EXTEND
000226: 05,2535           12305                           BZF      DOFSTART
000227:
000228: 05,2536           30774        NONAVKEY           CA       RASFLAG
000229: 05,2537           76050                           MASK     LOW7
000230: 05,2540           54774                           TS       RASFLAG
000231: 05,2541           10000                           CCS      A
000232: 05,2542           12544                           TCF      +2
000233: 05,2543           02667                           TC       NOORBINT
000234:
000235: 05,2544           33137                           CA       9,6,4                                 #  LEAVE PROG ALARM, GIMBAL LOCK, NO ATT
000236: 05,2545           71037                           MASK     DSPTAB     +11D                       #  LAMPS INTACT ON HARDWARE RESTART
000237: 05,2546           65010                           AD       BIT15
000238: 05,2547           57037                           XCH      DSPTAB     +11D
000239: 05,2550           33124                           CAF      IFAILINH                              #  LEAVE IMU FAILURE INHIBITS INTACT ON
000240: 05,2551           71304                           MASK     IMODES30                              #  HARDWARE RESTART. RESET ALL FAILURE
000241: 05,2552           63136                           AD       IM30INIR                              #  CODES.
000242: 05,2553           55304                           TS       IMODES30
000243:
000244: 05,2554           31330                           CA       AGSWORD                               #  BE SURE OF CORRECT DOWNLIST
000245: 05,2555           54332                           TS       DNLSTCOD
000246:
000247: 05,2556           45024                           CS       ACCSOKAY
000248: 05,2557           71102                           MASK     DAPBOOLS
000249: 05,2560           55102                           TS       DAPBOOLS
000250:
000251: 05,2561           35023                           CA       BIT4                                  #  TURN ON THROTTLE COUNTER
000252: 05,2562           00006                           EXTEND
000253: 05,2563           05014                           WOR      CHAN14                                #  TURN ON THRUST DRIVE
000254: 05,2564           40101                           CS       FLAGWRD5
000255: 05,2565           75020                           MASK     ENGONBIT
000256: 05,2566           10000                           CCS      A
000257: 05,2567           12616                           TCF      GOPROG3
000258: 05,2570           35012                           CAF      BIT13
000259: 05,2571           00006                           EXTEND
000260: 05,2572           05011                           WOR      DSALMOUT                              #  TURN ENGINE ON
000261: 05,2573           12616                           TCF      GOPROG3
000262:
000263: 05,2574           02732        ENEMA              TC       STARTSB2
000264: 05,2575           35030                           CAF      ZERO
000265: 05,2576           54774                           TS       RASFLAG
000266: 05,2577           02667                           TC       NOORBINT
000267:
000268: 05,2600           30035                           CA       CDUT
000269: 05,2601           04524                           TC       MAGSUB
000270: 05,2602           57777                           DEC      -.5
000271: 05,2603           12606                           TCF      +3                                    #  IF MODE 2.
000272:
000273: 05,2604           35030                           CAF      ZERO
000274: 05,2605           12607                           TCF      +2
000275: 05,2606           35013                           CAF      ANTENBIT
000276: 05,2607           57101                           XCH      RADMODES
000277: 05,2610           77712                           MASK     -BIT12
000278: 05,2611           27101                           ADS      RADMODES
000279:
000280: 05,2612           37667                           CAF      PRIO27
000281: 05,2613           05142                           TC       NOVAC
000282: 05,2614  E6,1532                                  EBANK=   AOSQ
000283: 05,2614           02305 40066                     2CADR    1/ACCSET
000284:
000285: 05,2616           35031        GOPROG3            CAF      NUMGRPS                               #  VERIFY PHASE TABLE AGREEMENTS
000286: 05,2617           54161        PCLOOP             TS       MPAC       +5
000287: 05,2620           60000                           DOUBLE
000288: 05,2621           00006                           EXTEND
000289: 05,2622           50000                           INDEX    A
000290: 05,2623           30753                           DCA      -PHASE1                               #  COMPLEMENT INTO A, DIRECT INTO L.
000291: 05,2624           00006                           EXTEND
000292: 05,2625           06001                           RXOR     LCHAN                                 #  RESULT MUST BE -0 FOR AGREEMENT.
000293: 05,2626           10000                           CCS      A
000294:
000295: 05,2627           12664                           TCF      PTBAD                                 #  RESTART FAILURE.
000296: 05,2630           12664                           TCF      PTBAD
000297: 05,2631           12664                           TCF      PTBAD
000298:
000299: 05,2632           10161                           CCS      MPAC       +5                         #  PROCESS ALL RESTART GROUPS.
000300: 05,2633           12617                           TCF      PCLOOP
000301:
000302: 05,2634           54162                           TS       MPAC       +6                         #  SET TO +0.
000303: 05,2635           05371                           TC       MMDSPLAY                              #  DISPLAY MAJOR MODE
000304:
000305: 05,2636           00004                           INHINT                                         #  RELINT DONE IN MMDSPLAY
000306:
000307: 05,2637           35031                           CAF      NUMGRPS                               #  SEE IF ANY GROUPS RUNNING.
000308: 05,2640           54161        NXTRST             TS       MPAC       +5
000309: 05,2641           60000                           DOUBLE
000310: 05,2642           50000                           INDEX    A
000311: 05,2643           10753                           CCS      PHASE1
000312: 05,2644           12646                           TCF      PACTIVE                               #  PNZ - GROUP ACTIVE.
000313: 05,2645           12653                           TCF      PINACT                                #  +0 - GROUP NOT RUNNING.
000314:
000315: 05,2646           54154        PACTIVE            TS       MPAC
000316: 05,2647           24154                           INCR     MPAC                                  #  ABS OF PHASE.
000317: 05,2650           24162                           INCR     MPAC       +6                         #  INDICATE GROUP DEMANDS PRESENT.
000318: 05,2651           32676                           CA       RACTCADR
000319: 05,2652           04661                           TC       SWCALL                                #  MUST RETURN TO SWRETURN.
000320:
000321: 05,2653           10161        PINACT             CCS      MPAC       +5                         #  PROCESS ALL RESTART GROUPS.
000322: 05,2654           12640                           TCF      NXTRST
000323:
000324: 05,2655           10162                           CCS      MPAC       +6                         #  NO, CHECK PHASE ACTIVITY FLAG
000325: 05,2656           12424                           TCF      ENDRSTRT                              #  PHASE ACTIVE
000326: 05,2657           35010                           CAF      BIT15                                 #  IS MODE -0
000327: 05,2660           71012                           MASK     MODREG
000328: 05,2661           00006                           EXTEND
000329: 05,2662           14106                           BZF      GOTOPOOH                              #  NO
000330: 05,2663           12424                           TCF      ENDRSTRT                              #  YES
000331: 05,2664           05651        PTBAD              TC       ALARM                                 #  SET ALARM TO SHOW PHASE TABLE FAILURE.
000332: 05,2665           01107                           OCT      1107
000333:
000334: 05,2666           12305                           TCF      DOFSTART                              #  IN R2).
000335:
000336: 05,2667           45011        NOORBINT           CS       INTF2BIT
000337: 05,2670           70101                           MASK     FLAGWRD5
000338: 05,2671           54101                           TS       FLAGWRD5
000339: 05,2672           00002                           TC       Q
000340:
000341:                                                                                                  #  ******** ****** ******
000342:
000343:                                                                                                  #  DO NOT USE GOPROG2 OR ENEMA WITHOUT CONSULTING POOH PEOPLE
000344:
000345: 05,2673  05,2574               GOPROG2            EQUALS   ENEMA
000346: 05,2673     5012               OCT10000           =        BIT13
000347:
000348: 05,2673     4367               OCT30000           =        PRIO30
000349: 05,2673           32001        OCT32001           OCT      32001
000350: 05,2674           07777        OCT7777            OCT      7777


000352: 05,2675           77002        RATESTRT           DEC      -509       B-14
000353: 05,2676           03314        RACTCADR           CADR     RESTARTS
000354: 05,2677           21312        BOOLSTRT           OCT      21312
000355: 05,2700           77001        77001OCT           OCT      77001                                 #  .14 DEG SCALED AT 4.5 DEG
000356: 05,2701           00074        60DEC              DEC      60         B-14
000357: 05,2702           02357        FULLAPS            DEC      5050       B-16                       #  NOMINAL FULL ASCENT MASS -- 2(16) KG.
000358:
000359:                                                                                                  #           INITIALIZATION COMMON TO BOTH FRESH START AND RESTART.
000360:
000361: 05,2703  E6,1532                                  EBANK=   AOSQ
000362: 05,2703           35065        STARTSUB           CAF      EBANK6
000363: 05,2704           54003                           TS       EBANK
000364:
000365: 05,2705           35030                           CAF      ZERO
000366: 05,2706           55631                           TS       ACCSET
000367: 05,2707           55460                           TS       NEXTP
000368: 05,2710           55461                           TS       NEXTU
000369: 05,2711           55462                           TS       NEXTV
000370:
000371: 05,2712           33125                           CAF      LDNPHAS1                              #  SET POINTER SO NEXT 20MS DOWNRUPT WILL
000372: 05,2713           54335                           TS       DNTMGOTO                              #  CAUSE THE CURRENT DOWNLIST TO BE
000373:                                                                                                  #  INTERRUPTED AND START SENDING FROM THE
000374:                                                                                                  #  BEGINNING OF THE CURRENT DOWNLIST.
000375: 05,2714           35021                           CAF      BIT6
000376: 05,2715           00006                           EXTEND
000377: 05,2716           02033                           RAND     CHAN33
000378: 05,2717           63140                           AD       RMODINIT
000379: 05,2720           55101                           TS       RADMODES
000380:
000381: 05,2721           35006                           CAF      POSMAX
000382: 05,2722           54026                           TS       TIME3
000383: 05,2723           67720                           AD       MINUS2
000384: 05,2724           54027                           TS       TIME4
000385: 05,2725           67721                           AD       NEGONE
000386: 05,2726           54030                           TS       TIME5
000387:
000388: 05,2727           00006                           EXTEND                                         #  SET T5RUPT FOR DAPIDLER PROGRAM.
000389: 05,2730           33123                           DCA      IDLEADR
000390: 05,2731           53277                           DXCH     T5ADR
000391:
000392: 05,2732           33133        STARTSB2           CAF      OCT30001                              #  DURING SOFTWARE RESTART, DO NOT DISTURB
000393: 05,2733           00006                           EXTEND                                         #  ENGINE ON, OFF AND ISS WARNING.
000394: 05,2734           03011                           WAND     DSALMOUT
000395:
000396: 05,2735           45016                           CS       XOVINHIB
000397: 05,2736           71102                           MASK     DAPBOOLS
000398: 05,2737           55102                           TS       DAPBOOLS
000399:
000400: 05,2740           33131                           CAF      OCT27470                              #  DURING SOFTWARE RESTART, DO NOT DISTURB
000401: 05,2741           00006                           EXTEND                                         #  IMU FLAGS.  (COURSE ALIGN ENABLE, ZERO
000402: 05,2742           03012                           WAND     CHAN12                                #  IMU CDUS, ENABLE IMU COUNTER) AND GIMBAL
000403:                                                                                                  #  TRIM DRIVES. LEAVE RR LOCKON ENABLE
000404:                                                                                                  #  ALONE.
000405:
000406: 05,2743           33132                           CAF      OCT74160                              #  DURING SOFTWARE RESTART, DO NOT DUSTURB
000407: 05,2744           00006                           EXTEND                                         #  TELEMETRY FLAGS, RESET TRAP FLAGS, AND
000408: 05,2745           03013                           WAND     CHAN13                                #  ENABLE T6RUPT FLAG.
000409:
000410: 05,2746           35013                           CAF      BIT12                                 #  REENABLE RUPT10 (RUPT QUICKLY
000411: 05,2747           00006                           EXTEND                                         #    RESUMES EXCEPT DURING P64)
000412: 05,2750           05013                           WOR      CHAN13
000413:
000414: 05,2751           35021                           CAF      BIT6                                  #  DURING SOFTWARE RESTART, DO NOT DISTURB
000415: 05,2752           00006                           EXTEND                                         #  GYRO ENABLE FLAG.
000416: 05,2753           03014                           WAND     CHAN14
000417:
000418: 05,2754           42673                           CS       OCT32001                              #  DURING SOFTWARE RESTART,CLEAR TURNON,
000419: 05,2755           71101                           MASK     RADMODES                              #  REPOSITION,CDU ZERO AND REMODE BITS
000420: 05,2756           55101                           TS       RADMODES                              #  IN RADMODES,SINCE TASKS ASSOCIATED
000421:                                                                                                  #  WITH THESE BITS HAVE BEEN KILLED
000422:
000423: 05,2757  E3,1400                                  EBANK=   LST1
000424: 05,2757           35057                           CAF      STARTEB
000425: 05,2760           54003                           TS       EBANK                                 #  SET FOR E3
000426:
000427: 05,2761           35007                           CAF      NEG1/2                                #  INITIALIZE WAITLIST DELTA-TS.
000428: 05,2762           55407                           TS       LST1       +7
000429: 05,2763           55406                           TS       LST1       +6
000430: 05,2764           55405                           TS       LST1       +5
000431: 05,2765           55404                           TS       LST1       +4
000432: 05,2766           55403                           TS       LST1       +3
000433: 05,2767           55402                           TS       LST1       +2
000434: 05,2770           55401                           TS       LST1       +1
000435: 05,2771           55400                           TS       LST1
000436:
000437: 05,2772           45306                           CS       ENDTASK
000438: 05,2773           55410                           TS       LST2
000439: 05,2774           55412                           TS       LST2       +2
000440: 05,2775           55414                           TS       LST2       +4
000441: 05,2776           55416                           TS       LST2       +6
000442:
000443: 05,2777           55420                           TS       LST2       +8D
000444: 05,3000           55422                           TS       LST2       +10D
000445: 05,3001           55424                           TS       LST2       +12D
000446: 05,3002           55426                           TS       LST2       +14D
000447: 05,3003           55430                           TS       LST2       +16D
000448: 05,3004           45307                           CS       ENDTASK    +1
000449: 05,3005           55411                           TS       LST2       +1
000450: 05,3006           55413                           TS       LST2       +3
000451: 05,3007           55415                           TS       LST2       +5
000452: 05,3010           55417                           TS       LST2       +7
000453: 05,3011           55421                           TS       LST2       +9D
000454: 05,3012           55423                           TS       LST2       +11D
000455: 05,3013           55425                           TS       LST2       +13D
000456: 05,3014           55427                           TS       LST2       +15D
000457: 05,3015           55431                           TS       LST2       +17D
000458:
000459: 05,3016           45030                           CS       ZERO                                  #  MAKE ALL EXECUTIVE REGISTER SETS
000460: 05,3017           54167                           TS       PRIORITY                              #  AVAILABLE.
000461: 05,3020           54203                           TS       PRIORITY   +12D
000462: 05,3021           54217                           TS       PRIORITY   +24D
000463: 05,3022           54233                           TS       PRIORITY   +36D
000464: 05,3023           54247                           TS       PRIORITY   +48D
000465: 05,3024           54263                           TS       PRIORITY   +60D
000466: 05,3025           54277                           TS       PRIORITY   +72D
000467:
000468: 05,3026           55315                           TS       DSRUPTSW
000469: 05,3027           54067                           TS       NEWJOB                                #  SHOWS NO ACTIVE JOBS.
000470:
000471: 05,3030           33127                           CAF      VAC1ADRC                              #  MAKE ALL VAC AREAS AVAILABLE.
000472: 05,3031           54400                           TS       VAC1USE
000473: 05,3032           63130                           AD       LTHVACA
000474: 05,3033           54454                           TS       VAC2USE
000475: 05,3034           63130                           AD       LTHVACA
000476: 05,3035           54530                           TS       VAC3USE
000477: 05,3036           63130                           AD       LTHVACA
000478: 05,3037           54604                           TS       VAC4USE
000479: 05,3040           63130                           AD       LTHVACA
000480: 05,3041           54660                           TS       VAC5USE
000481:
000482: 05,3042           45026                           CS       ONE
000483: 05,3043           55316                           TS       DIDFLG
000484:
000485: 05,3044           34375                           CAF      TEN
000486: 05,3045           54154        DSPOFF             TS       MPAC                                  #  R1,R2,R3).
000487: 05,3046           45013                           CS       BIT12
000488: 05,3047           50154                           INDEX    MPAC
000489: 05,3050           55024                           TS       DSPTAB
000490: 05,3051           10154                           CCS      MPAC
000491: 05,3052           13045                           TCF      DSPOFF
000492:
000493: 05,3053           55332                           TS       DELAYLOC
000494: 05,3054           55333                           TS       DELAYLOC   +1
000495:
000496: 05,3055           55334                           TS       DELAYLOC   +2
000497: 05,3056           55074                           TS       R1SAVE
000498: 05,3057           54045                           TS       INLINK
000499: 05,3060           54777                           TS       DSPCNT
000500: 05,3061           55043                           TS       CADRSTOR
000501: 05,3062           55014                           TS       REQRET
000502: 05,3063           55016                           TS       CLPASS
000503: 05,3064           55013                           TS       DSPLOCK
000504: 05,3065           55021                           TS       MONSAVE                               #  KILL MONITOR
000505: 05,3066           55022                           TS       MONSAVE1
000506: 05,3067           55002                           TS       VERBREG
000507: 05,3070           55003                           TS       NOUNREG
000508: 05,3071           55044                           TS       DSPLIST
000509: 05,3072           55314                           TS       MARKSTAT
000510: 05,3073           55045                           TS       EXTVBACT                              #  MAKE EXTENDED VERBS AVAILABLE
000511: 05,3074           55306                           TS       IMUCADR
000512: 05,3075           55307                           TS       OPTCADR
000513: 05,3076           55310                           TS       RADCADR
000514: 05,3077           55311                           TS       ATTCADR
000515: 05,3100           55321                           TS       LGYRO
000516: 05,3101           54100                           TS       FLAGWRD4                              #  KILL INTERFACE DISPLAYS
000517: 05,3102           35033                           CAF      NOUTCON
000518: 05,3103           55017                           TS       NOUT
000519:
000520: 05,3104           45023                           CS       NORRMBIT                              #  ENABLE R25.
000521: 05,3105           70101                           MASK     FLAGWRD5
000522: 05,3106           54101                           TS       FLAGWRD5
000523:
000524: 05,3107           45026                           CS       ONE
000525: 05,3110           55103                           TS       SAMPLIM
000526: 05,3111           35021                           CAF      BIT6
000527: 05,3112           71305                           MASK     IMODES33                              #  LEAVE BIT 6 UNCHANGED
000528: 05,3113           65076                           AD       IM33INIT                              #  NO PIP OR TM FAILS.BIT6=0 IN THIS WORD.
000529: 05,3114           55305                           TS       IMODES33
000530:
000531: 05,3115           33126                           CAF      LESCHK                                #  SELF CHECK GO-TO REGISTER.
000532: 05,3116           55361                           TS       SELFRET
000533:
000534: 05,3117           44372                           CS       VD1
000535: 05,3120           55000                           TS       DSPCOUNT
000536:
000537: 05,3121           00002                           TC       Q
000538: 05,3122  E6,1532                                  EBANK=   AOSQ
000539: 05,3122           02067 34066  IDLEADR            2CADR    DAPIDLER
000540: 05,3124           00035        IFAILINH           OCT      35
000541: 05,3125           03162        LDNPHAS1           GENADR   DNPHASE1
000542: 05,3126           03336        LESCHK             GENADR   SELFCHK
000543: 05,3127           00400        VAC1ADRC           ADRES    VAC1USE
000544: 05,3130           00054        LTHVACA            DEC      44         B-14
000545:
000546: 05,3131           27470        OCT27470           OCT      27470
000547:
000548: 05,3132           74160        OCT74160           OCT      74160
000549: 05,3133           30001        OCT30001           OCT      30001
000550: 05,3134     5057               STARTEB            EQUALS   EBANK3
000551: 05,3134     5031               NUMGRPS            EQUALS   FIVE
000552: 05,3134           77755        -ELR               OCT      -22                                   #  -ERROR LIGHT RESET KEY CODE.
000553: 05,3135           37411        IM30INIF           OCT      37411                                 #  INHIBITS IMU FAIL FOR 5 SEC AND PIP ISSW
000554: 05,3136           37400        IM30INIR           OCT      37400
000555: 05,3137     5076               IM33INIT           =        PRIO16                                #  NO PIP OR TM FAIL SIGNALS.
000556: 05,3137           00450        9,6,4              OCT      450
000557: 05,3140           00102        RMODINIT           OCT      00102
000558: 05,3141           00000        SWINIT             OCT      0
000559: 05,3142           00000                           OCT      0
000560: 05,3143           00000                           OCT      0
000561: 05,3144           00000                           OCT      0
000562: 05,3145           00000                           OCT      0
000563: 05,3146           00000                           OCT      0
000564: 05,3147           00000                           OCT      0
000565: 05,3150           00100                           OCT      00100
000566:
000567: 05,3151           00000                           OCT      0
000568: 05,3152           00010                           OCT      00010
000569:
000570:                                                                                                  #  PROGRAM NAME    GOTOPOOH                   ASSEMBLY       SUNDANCE
000571:                                                                                                  #  LOG SECTION     FRESH START AND RESTART
000572:
000573:                                                                                                  #  FUNCTIONAL DESCRIPTION
000574:
000575:                                                                                                  #        FLASH V 37 ON DSKY %MM CHANGE REQUEST "
000576:
000577:                                                                                                  #  INPUT/OUTPUT INFORMATION
000578:
000579:                                                                                                  #        A. CALLING SEQUENCE        TC GOTOPOOH
000580:
000581:                                                                                                  #        B. ERASABLE INITIALIZATION       NONE
000582:
000583:                                                                                                  #        C. OUTPUT FLASH V 37 ON DSKY
000584:
000585:                                                                                                  #        D. DEBRIS       L
000586:
000587:                                                                                                  #  PROGRAM ANALYSIS
000588:
000589:                                                                                                  #        A. SUBROUTINES CALLED PRIODSPR,  LINUS
000590:
000591:                                                                                                  #        B. NORMAL EXIT        TCF ENDOFJOB
000592:
000593:                                                                                                  #        C. ALARM AND ABORT EXITS       NONE
000594:
000595:    4106                                           BLOCK    02
000596:    4000                                           SETLOC   FFTAG10
000597:    4000                                           BANK
000598:
000599:    4106                                           COUNT*   $$/P00
000600:
000601:    4106           05423        GOTOPOOH           TC       PHASCHNG                              #  RESTART GOTOPOOH
000602:    4107           00014                           OCT      14
000603:
000604:    4110           04674                           TC       POSTJUMP
000605:    4111           10000                           CADR     GOPOOFIX
000606:    4112           00024        OCT24              MM       20         B-14
000607:    4113           00031        OCT31              MM       25         B-14
000608:
000609: 20,2000                                           BANK     20
000610: 04,2000                                           SETLOC   VERB37
000611: 04,2000                                           BANK
000612:
000613: 04,2000                                           COUNT*   $$/P00                                #  VERB 37 AND P00 IN BANK 4.
000614: 04,2000           32006        GOPOOFIX           CAF      V37N99
000615: 04,2001           04655                           TC       BANKCALL
000616: 04,2002           20406                           CADR     GOFLASH
000617: 04,2003           12000                           TCF      -3
000618: 04,2004           12000                           TCF      -4
000619: 04,2005           12000                           TCF      -5
000620:
000621: 04,2006           11343        V37N99             VN       3799
000622:
000623:                                                                                                  #  PROGRAM NAME          V37                     ASSEMBLY SUNDANCE
000624:
000625:                                                                                                  #  LOG SECTION     FRESH START AND RESTART
000626:
000627:                                                                                                  #  FUNCTIONAL DESCRIPTION
000628:
000629:                                                                                                  #        1. CHECK IF NEW PROGRAM ALLOWED. IF BIT 1 OF FLAGWRD2(NODOFLAG) IS SET, AN ALARM 1520 IS CALLED.
000630:                                                                                                  #        2. CHECK FOR VALIDITY OF PROGRAM SELECTED. IF AN INVALID PROGRAM  IS SELECTED, THE OPERATOR ERROR LIGHT IS
000631:                                                                                                  #           SET AND CURRENT ACTIVITY, IF ANY, CONTINUES.
000632:                                                                                                  #        3. SERVICER IS TERMINATED IF IT HAS BEEN RUNNING.
000633:                                                                                                  #        4. INSTALL IS EXECUTED TO AVOID INTERRUPTING INTEGRATION.
000634:                                                                                                  #        5. THE ENGINE IS TURNED OFF AND THE DAP IS INITIALIZED FOR COAST.
000635:                                                                                                  #        6. TRACK AND UPDATE FLAGS ARE SET TO ZERO.
000636:                                                                                                  #        7. DISPLAY SYSTEM IS RELEASED.
000637:                                                                                                  #        8. THE FOLLOWING ARE PERFORMED FOR EACH OF THE THREE CASES.
000638:                                                                                                  #           A. PROGRAM SELECTED IS P00.
000639:                                                                                                  #              1. RENDEZVOUS AND P25 FLAGS ARE RESET.(KILL P20 AND P25)
000640:                                                                                                  #              2. STATINT1     IS SCHEDULED BY SETTING RESTART GROUP 2.
000641:                                                                                                  #              3. MAJOR MODE 00 IS STORED IN THE MODE REGISTER (MODREG).
000642:                                                                                                  #              4. SUPERBANK 3 IS SELECTED.
000643:                                                                                                  #              5. NODOFLAG IS RESET.
000644:                                                                                                  #              6. ALL RESTART GROUPS EXCEPT GROUP 2 ARE CLEARED. CONTROL ISTRANSFERRED TO RESTART PROGRAM (GOPROG2)
000645:                                                                                                  #                 WHICH CAUSES ALL CURRENT ACTIVITY TO BE DISCONTINUED AND A 9 MINUTE INTEGRATION CYCLE TO BE
000646:                                                                                                  #                 INITIATED.
000647:                                                                                                  #           B. PROGRAM SELECTED IS P20 OR P25.
000648:                                                                                                  #              1. IF THE CURRENT MAJOR MODE IS THE SAME AS THE SELECTED NEWPROGRAM, THE PROGRAM IS RE-INITIALIZED
000649:                                                                                                  #                 VIA V37XEQ, ALL RESTART GROUPS, EXCEPT GROUP 4 ARE CLEARED.
000650:                                                                                                  #              2. IF THE CURRENT MAJOR MODE IS NOT EQUAL TO THE NEW REQUEST, A CHECK IS MADE TO SEE IF THE REQUEST-
000651:                                                                                                  #                 ED MAJOR MODE HAS BEEN RUNNING IN THE BACKGROUND,
000652:                                                                                                  #                 AND IF IT HAS, NO NEW PROGRAM IS SCHEDULED, THE EXISTING
000653:                                                                                                  #                 P20 OR P25 IS RESTARTED TO CONTINUE, AND ITS M M IS SET.
000654:                                                                                                  #              3. CONTROL IS TRANSFERRED TO GOPROG2.
000655:                                                                                                  #           C. PROGRAM SELECTED IS NEITHER P00,P20, NOR P25
000656:                                                                                                  #              1. V37XEQ IS SCHEDULED (AS A JOB) BY SETTING RESTART GROUP 4
000657:                                                                                                  #              2. ALL CURRENT ACTIVITY EXCEPT RENDEZVOUS AND TRACKING IS DISCONTINUED BY CLEARING ALL RESTART
000658:                                                                                                  #                 GROUPS. IF THE RENDEZVOUS OR THE P25 FLAG IS ON, GROUP 2 IS NOT CLEARED, ALLOWING THESE PROGRAMS
000659:                                                                                                  #                 TO CONTINUE.
000660:
000661:                                                                                                  #  INPUT/OUTPUT INFORMATION
000662:
000663:                                                                                                  #        A. CALLING SEQUENCE
000664:
000665:                                                                                                  #            CONTROL IS DIRECTED TO V37 BY THE VERBFAN ROUTINE.
000666:                                                                                                  #               VERBFAN GOES TO C(VERBTAB+C(VERBREG)). VERB 37 = MMCHANG.
000667:                                                                                                  #               MMCHANG EXECUTES A   TC POSTJUMP, CADR V37.
000668:
000669:                                                                                                  #        B. ERASABLE INITIALIZATION      NONE
000670:
000671:                                                                                                  #        C. OUTPUT
000672:
000673:                                                                                                  #            MAJOR MODE CHANGE
000674:
000675:                                                                                                  #        D. DEBRIS
000676:                                                                                                  #             MMNUMBER, MPAC +1, MINDEX, BASETEMP +C(MINDEX), FLAGWRD0, FLAGWRD1, FLAGWRD2, MODREG, GOLOC -1,
000677:                                                                                                  #             GOLOC, GOLOC +1, GOLOC +2, BASETEMP, -PHASE2, PHASE2, -PHASE4
000678:
000679:                                                                                                  #  PROGRAM ANALYSIS
000680:
000681:                                                                                                  #        A. SUBROUTINES CALLED
000682:                                                                                                  #             ALARM, RELDSP, PINBRNCH, INTSTALL, ENGINOF2, ALLCOAST, V37KLEAN, GOPROG2, FALTON, FINDVAC, SUPERSW,
000683:                                                                                                  #             DSPMM
000684:
000685:                                                                                                  #        B. NORMAL EXIT        TC ENDOFJOB
000686:
000687:                                                                                                  #        C. ALARMS      1520 (MAJOR MODE CHANGE NOT PERMITTED)
000688:
000689: 04,2007           54776        V37                TS       MMNUMBER                              #  SAVE MAJOR MODE
000690: 04,2010           34367                           CAF      PRIO30                                #  RESTART AT PINBALL PRIORITY
000691: 04,2011           54366                           TS       RESTREG
000692:
000693: 04,2012           31304                           CA       IMODES30                              #  IS IMU BEINB INITIALIZED
000694: 04,2013           75021                           MASK     BIT6
000695: 04,2014           10000                           CCS      A
000696: 04,2015           12025                           TCF      CANTROO
000697:
000698: 04,2016           30776                           CA       MMNUMBER                              #  IS NEW REQUEST POO
000699: 04,2017           00006                           EXTEND
000700: 04,2020           12062                           BZF      ISSERVON                              #  YES, CHECK SERVICER STATUS
000701:
000702: 04,2021           40076                           CS       FLAGWRD2                              #  NO, IS NODO V37 FLAG SET
000703: 04,2022           75026                           MASK     NODOBIT
000704: 04,2023           10000                           CCS      A
000705: 04,2024           12032                           TCF      CHECKTAB                              #  NO
000706: 04,2025           05651        CANTROO            TC       ALARM
000707: 04,2026           01520                           OCT      1520
000708:
000709: 04,2027           04471        V37BAD             TC       RELDSP                                #  RELEASES DISPLAY FROM ASTRONAUT
000710:
000711: 04,2030           04674                           TC       POSTJUMP                              #  BRING BACK LAST NORMAL DISPLAY IF THERE
000712: 04,2031           20746                           CADR     PINBRNCH                              #  WAS ONE. OTHERWISE DO AN EOJ.
000713:
000714: 04,2032           00004        CHECKTAB           INHINT
000715: 04,2033           37665                           CAF      PRIO25
000716: 04,2034           54063                           TS       NEWPRIO
000717:
000718: 04,2035           40776                           CS       MMNUMBER                              #  IS P70 REQUESTED?
000719: 04,2036           62316                           AD       DEC70
000720: 04,2037           00006                           EXTEND
000721: 04,2040           12307                           BZF      SETUP70                               #  YES
000722: 04,2041           65026                           AD       ONE                                   #  IS P71 REQUESTED?
000723: 04,2042           00006                           EXTEND
000724: 04,2043           12313                           BZF      SETUP71                               #  YES
000725: 04,2044           00003                           RELINT
000726:
000727: 04,2045           32413                           CA       NOV37MM                               #  INDEX FOR MM TABLES.
000728:
000729: 04,2046           54155        AGAINMM            TS       MPAC       +1
000730: 04,2047           50155                           NDX      MPAC       +1
000731: 04,2050           32357                           CA       PREMM1                                #  OBTAIN WHICH MM THIS IS FOR
000732: 04,2051           76050                           MASK     LOW7
000733: 04,2052           40000                           COM
000734: 04,2053           60776                           AD       MMNUMBER
000735: 04,2054           10000                           CCS      A
000736: 04,2055           10155                           CCS      MPAC       +1                         #  IF GR, SEE IF ANY MORE IN LIST
000737: 04,2056           12046                           TCF      AGAINMM                               #  YES, GET NEXT ONE
000738: 04,2057           12242                           TCF      V37NONO                               #  LAST TIME OR PASSED MM
000739:
000740: 04,2060           30155                           CA       MPAC       +1
000741: 04,2061           54775                           TS       MINDEX                                #  SAVE INDEX FOR LATER
000742:
000743: 04,2062           40103        ISSERVON           CS       FLAGWRD7                              #  V37 FLAG SET - I.E. IS SERVICER GOING
000744: 04,2063           75021                           MASK     V37FLBIT
000745: 04,2064           10000                           CCS      A
000746: 04,2065           12073                           TCF      CANV37                                #  NO
000747:
000748: 04,2066           05600                           TC       DOWNFLAG                              #  YES, TURN OFF THE AVERAGE FLAG AND
000749: 04,2067           00163                           ADRES    AVEGFLAG                              #  WAIT FOR SERVICER TO RETURN TO CANV37.
000750:
000751: 04,2070           32305                           CAF      CANV37AD
000752: 04,2071           55262                           TS       OUTROUTE
000753:
000754: 04,2072           15225                           TCF      ENDOFJOB
000755:
000756: 04,2073           05600        CANV37             TC       DOWNFLAG
000757: 04,2074           00162                           ADRES    V37FLAG
000758:
000759: 04,2075           35030                           CAF      ZERO
000760: 04,2076           00006                           EXTEND
000761: 04,2077           01007                           WRITE    SUPERBNK
000762:
000763: 04,2100           32304                           CAF      ROOAD
000764: 04,2101           54374                           TS       TEMPFLSH
000765:
000766: 04,2102           05423                           TC       PHASCHNG
000767: 04,2103           00014                           OCT      14
000768:
000769:
000770: 04,2104           06014        ROO                TC       INTPRET
000771:
000772: 04,2105           77624                           CALL                                           #  WAIT FOR INTEGRATION TO FINISH
000773: 04,2106           27362                                    INTSTALL
000774: 04,2107           77776        DUMMYAD            EXIT
000775:
000776: 04,2110           05600                           TC       DOWNFLAG
000777: 04,2111           00124                           ADRES    3AXISFLG                              #  RESET 3-AXIS FLAG
000778:
000779: 04,2112           10776                           CCS      MMNUMBER                              #  IS THIS A POOH REQUEST
000780: 04,2113           12230                           TCF      NOUVEAU                               #  NO, PICK UP NEW PROGRAM
000781:
000782: 04,2114           04471        POOH               TC       RELDSP                                #  RELEASE DISPLAY SYSTEM
000783:
000784: 04,2115           00004                           INHINT
000785:
000786: 04,2116           04737                           TC       IBNKCALL
000787: 04,2117           51063                           CADR     CLRADMOD                              #  CLRADMOD DOES AN INHINT.
000788:
000789: 04,2120           45026                           CS       NODOBIT                               #  TURN OFF NODOFLAG.
000790: 04,2121           70076                           MASK     FLAGWRD2
000791: 04,2122           54076                           TS       FLAGWRD2
000792:
000793: 04,2123           35031                           CA       FIVE                                  #  SET RESTART FOR STATEINT1
000794: 04,2124           54001                           TS       L
000795: 04,2125           40000                           COM
000796: 04,2126           52755                           DXCH     -PHASE2
000797:
000798: 04,2127           42306                           CS       OCT700                                #  TURN OFF P20,P25,IMU IN USE FLAG
000799: 04,2130           70074                           MASK     FLAGWRD0
000800: 04,2131           54074                           TS       FLAGWRD0                              #                         RENDFLG
000801:
000802: 04,2132           35030                           CAF      DNLADP00
000803:
000804: 04,2133           54332        SEUDOPOO           TS       DNLSTCOD                              #  SET UP APPROPRIATE DOWNLIST CODE
000805: 04,2134           55330                           TS       AGSWORD                               #   (CURRENT LIST WILL BE COMPLETED BEFORE
000806:                                                                                                  #     NEW ONE IS STARTED)
000807: 04,2135           04737                           TC       IBNKCALL
000808: 04,2136           75546                           CADR     ENGINOF1
000809:
000810: 04,2137           04737                           TC       IBNKCALL                              #  INSURE ALLCOAST.
000811: 04,2140           40263                           CADR     ALLCOAST                              #  DOES A RESTORDB.
000812:
000813: 04,2141           04737                           TC       IBNKCALL
000814: 04,2142           40244                           CADR     STOPRATE
000815:
000816: 04,2143           45045                           CS       OCT120                                #  TURN OFF TRACK, UPDATE FLAGS
000817: 04,2144           55072                           TS       EBANKTEM
000818: 04,2145           70075                           MASK     FLAGWRD1
000819: 04,2146           54075                           TS       FLAGWRD1
000820:
000821: 04,2147           04737                           TC       IBNKCALL                              #  KILL GROUPS 1,3,5,6
000822: 04,2150           12434                           CADR     V37KLEAN
000823:
000824: 04,2151           10776                           CCS      MMNUMBER                              #  IS IT POOH
000825: 04,2152           12161                           TCF      RENDVOO                               #  NO
000826: 04,2153           04737        GOMOD              TC       IBNKCALL                              #  REDUNDANT EXCEPT FOR GROUP 4
000827: 04,2154           12431                           CADR     POOKLEAN
000828:
000829: 04,2155           30776                           CA       MMNUMBER
000830: 04,2156           55012                           TS       MODREG
000831:
000832: 04,2157           04674        GOGOPROG           TC       POSTJUMP
000833: 04,2160           12574                           CADR     GOPROG2
000834:
000835: 04,2161           40776        RENDVOO            CS       MMNUMBER                              #  IS NEW PROGRAM P22
000836: 04,2162           64112                           AD       OCT24                                 #  IS NEW PROGRAM = P20 OR P25
000837: 04,2163           00006                           EXTEND
000838: 04,2164           12202                           BZF      RENDNOO                               #  YES
000839: 04,2165           65031                           AD       FIVE                                  #  25
000840: 04,2166           00006                           EXTEND
000841: 04,2167           12202                           BZF      RENDNOO                               #  YES
000842:
000843: 04,2170           32244                           CA       OCT500                                #  NO, IS EITHER P20 OR P25 RUNNING
000844: 04,2171           70074                           MASK     FLAGWRD0
000845: 04,2172           10000                           CCS      A
000846: 04,2173           12177                           TCF      POOFIZZ                               #  YES, LEAVE GROUP 2 TO PICK UP P20 OR P25
000847:
000848: 04,2174           00006        KILL2              EXTEND                                         #  NO, KILL 2
000849: 04,2175           35030                           DCA      NEG0
000850:
000851: 04,2176           52755                           DXCH     -PHASE2
000852:
000853: 04,2177           32303        POOFIZZ            CAF      V37QCAD                               #  RESTART POINT FOR V37XEQ
000854: 04,2200           54374                           TS       TEMPFLSH
000855:
000856: 04,2201           12157                           TCF      GOGOPROG
000857:
000858: 04,2202           41012        RENDNOO            CS       MODREG
000859: 04,2203           64112                           AD       OCT24
000860: 04,2204           00006                           EXTEND
000861: 04,2205           12174                           BZF      KILL2                                 #  P20 OR P25 ON TOP OF P20 OR P25 -
000862:
000863: 04,2206           65031                           AD       FIVE
000864: 04,2207           00006                           EXTEND
000865: 04,2210           12174                           BZF      KILL2
000866:
000867: 04,2211           32244                           CA       OCT500
000868: 04,2212           70074                           MASK     FLAGWRD0
000869: 04,2213           60776                           AD       MMNUMBER
000870: 04,2214           40000                           COM
000871: 04,2215           62246                           AD       P20REG                                #  IS IT 20 AND IS RENDEZVOUS FLAG ON
000872: 04,2216           00006                           EXTEND
000873: 04,2217           12224                           BZF      STATQUO                               #  YES
000874: 04,2220           62245                           AD       OCT305                                #  IS IT 25 AND IS P25 BIT ON
000875: 04,2221           00006                           EXTEND
000876: 04,2222           12224                           BZF      STATQUO                               #  YES, LEAVE AS IS
000877: 04,2223           12174                           TCF      KILL2
000878:
000879: 04,2224           40075        STATQUO            CS       FLAGWRD1                              #  SET TRACKFLAG
000880: 04,2225           75045                           MASK     OCT120                                #      UPDATE FLAG
000881: 04,2226           26075                           ADS      FLAGWRD1
000882:
000883: 04,2227           12153                           TCF      GOMOD
000884:
000885: 04,2230           32244        NOUVEAU            CAF      OCT500                                #  IS P20 OR P25 FLAG SET
000886: 04,2231           70074                           MASK     FLAGWRD0
000887: 04,2232           10000                           CCS      A
000888: 04,2233           12236                           TCF      +3                                    #  YES
000889: 04,2234           05600                           TC       DOWNFLAG                              #  NO,RESET IMUINUSE FLAG
000890: 04,2235           00007                           ADRES    IMUSE
000891:
000892: 04,2236           50775                           INDEX    MINDEX
000893: 04,2237           32414                           CAF      DNLADMM1                              #  OBTAIN APPROPRIATE DOWNLIST ADDRESS
000894:
000895: 04,2240           00004                           INHINT
000896: 04,2241           12133                           TCF      SEUDOPOO
000897:
000898: 04,2242           04376        V37NONO            TC       FALTON                                #  COME HERE IF MM REQUESTED DOESNT EXIST
000899:
000900: 04,2243           12027                           TCF      V37BAD
000901:
000902: 04,2244     5023               OCT00010           EQUALS   BIT4
000903: 04,2244           00500        OCT500             OCT      500                                   #  BITS 7 AND 9
000904: 04,2245           00305        OCT305             OCT      305
000905: 04,2246           00124        P20REG             OCT      124
000906:
000907: 04,2247           00004        V37XEQ             INHINT
000908: 04,2250           50775                           INDEX    MINDEX
000909: 04,2251           32357                           CAF      PREMM1                                #  OBTAIN PRIO, EBANK, AND MM
000910: 04,2252           55061                           TS       MMTEMP
000911: 04,2253           54020                           TS       CYR                                   #  SHIFT RIGHT TO BITS 14 - 10
000912:
000913: 04,2254           30020                           CA       CYR
000914: 04,2255           77677                           MASK     PRIO37
000915: 04,2256           55063                           TS       PHSPRDT4                              #  PRESET GROUP 4 RESTART PRIORITY
000916: 04,2257           54063                           TS       NEWPRIO                               #  STORE PRIO FOR SPVAC
000917:
000918: 04,2260           31061                           CA       MMTEMP                                #  OBTAIN EBANK - BITS 8, 9, 10 OF MMTEMP.
000919: 04,2261           00006                           EXTEND
000920: 04,2262           75017                           MP       BIT8
000921: 04,2263           75032                           MASK     LOW3
000922: 04,2264           54001                           TS       L
000923:
000924: 04,2265           50775                           INDEX    MINDEX
000925: 04,2266           32323                           CAF      FCADRMM1
000926: 04,2267           55062                           TS       BASETEMP                              #  MAKE BBCON BY ADDING HI5 OF FCADR
000927: 04,2270           74362                           MASK     HI5
000928: 04,2271           26001                           ADS      L
000929:
000930: 04,2272           31062                           CA       BASETEMP                              #  OBTAIN GENADR PORTION OF 2CADR.
000931: 04,2273           75062                           MASK     LOW10
000932: 04,2274           65014                           AD       BIT11
000933:
000934: 04,2275           05166                           TC       SPVAC
000935:
000936: 04,2276           31061        V37XEQC            CA       MMTEMP                                #  UPON RETURN FROM FINDVAC PLACE THE
000937: 04,2277           76050                           MASK     LOW7                                  #  NEW MM IN MODREG (THE LOW 7 BITS OF
000938: 04,2300           05364                           TC       NEWMODEA                              #  PHSPRDT1)
000939:
000940: 04,2301           04471                           TC       RELDSP                                #  RELEASE DISPLAY
000941: 04,2302           05225                           TC       ENDOFJOB                              #  AND EXIT
000942:
000943: 04,2303     1061               MMTEMP             EQUALS   PHSPRDT3
000944: 04,2303     1062               BASETEMP           EQUALS   TBASE4
000945: 04,2303           10252        V37QCAD            CADR     V37XEQ     +3
000946: 04,2304           10107        ROOAD              CADR     DUMMYAD
000947: 04,2305           10073        CANV37AD           CADR     CANV37
000948:
000949: 04,2306           00700        OCT700             OCT      700
000950:
000951: 04,2307           00006        SETUP70            EXTEND
000952: 04,2310           32320                           DCA      P70CADR
000953: 04,2311           05166                 +2        TC       SPVAC
000954: 04,2312           14243                           TCF      JAMTERM
000955:
000956: 04,2313           00006        SETUP71            EXTEND
000957: 04,2314           32322                           DCA      P71CADR
000958: 04,2315           12311                           TCF      SETUP70    +2
000959:
000960: 04,2316           00106        DEC70              DEC      70         B-14
000961: 04,2317  E7,1475                                  EBANK=   R
000962: 04,2317           03221 64067  P70CADR            2CADR    P70
000963: 04,2321  E7,1475                                  EBANK=   R
000964: 04,2321           03524 64067  P71CADR            2CADR    P71
000965:
000966:                                                                                                  #  FOR VERB 37 TWO TABLES ARE MAINTAINED. EACH TABLE HAS AN ENTRY FOR EACH
000967:                                                                                                  #  MAJOR MODE THAT CAN BE STARTED FROM THE KEYBOARD. THE ENTRIES ARE PUT
000968:                                                                                                  #  INTO THE TABLE WITH THE ENTRY FOR THE HIGHEST MAJOR MODE COMING FIRST,
000969:
000970:                                                                                                  #  TO THE LOWEST MAJOR MODE WHICH IS THE LAST ENTRY IN EACH TABLE.
000971:
000972:                                                                                                  #           THE FCADRMM TABLE CONTAINS THE FCADR OF THE STARTING JOB OF
000973:                                                                                                  #  THE MAJOR MODE.   FOR EXAMPLE,
000974:
000975:                                                                                                  #                                          FCADRMM1 FCADR   P79             START OF P 79
000976:                                                                                                  #                                                   FCADR   PROG18          START OF P 18
000977:                                                                                                  #                                                   FCADR   P01             START OF P 01
000978:
000979:                                                                                                  #  NOTE,    THE FIRST ENTRY MUST BE LABLED FCADRMM1.
000980:                                                                                                  #  ----
000981:
000982: 04,2323           71635        FCADRMM1           FCADR    P79
000983: 04,2324           71414                           FCADR    P78
000984: 04,2325           72664                           FCADR    P75
000985: 04,2326           72505                           FCADR    P74
000986: 04,2327           72257                           FCADR    P73
000987: 04,2330           72122                           FCADR    P72
000988: 04,2331           64711                           FCADR    P63LM
000989: 04,2332           32000                           FCADR    PROG52
000990: 04,2333           30740                           FCADR    P51
000991: 04,2334           75421                           FCADR    P47LM
000992: 04,2335           75373                           FCADR    P42LM
000993: 04,2336           75255                           FCADR    P41LM
000994: 04,2337           75133                           FCADR    P40LM
000995: 04,2340           71630                           FCADR    P39
000996: 04,2341           71411                           FCADR    P38
000997: 04,2342           72660                           FCADR    P35
000998: 04,2343           72503                           FCADR    P34
000999: 04,2344           72255                           FCADR    P33
001000: 04,2345           72120                           FCADR    P32
001001: 04,2346           71254                           FCADR    P31LM
001002: 04,2347           72021                           FCADR    P30
001003: 04,2350           50353                           FCADR    PROG25
001004: 04,2351           51120                           FCADR    PROG21
001005: 04,2352           50000                           FCADR    PROG20
001006: 04,2353           60000                           FCADR    P12LM
001007: 04,2354           64003                           FCADR    P11
001008: 04,2355           64000                           FCADR    P10
001009: 04,2356           77507                           FCADR    P06
001010:                                                                                                  #           THE PREMM TABLE CONTAINS THE E-BANK,MAJOR MODE, AND PRIORITY
001011:                                                                                                  #  INFORMATION, IT IS IN THE FOLLOWING FORM,
001012:
001013:                                                                                                  #           PPP PPE EEM MMM MMM
001014:
001015:                                                                                                  #           WHERE THE 7 M BITS CONTAIN THE MAJOR MODE NUMBER
001016:                                                                                                  #                      3 E BITS CONTAIN THE E-BANK NUMBER
001017:                                                                                                  #                      5 P BITS CONTAIN THE PRIORITY AT WHICH THE JOB IS
001018:                                                                                                  #                          TO BE STARTED
001019:
001020:                                                                                                  #           FOR EXAMPLE,
001021:
001022:                                                                                                  #                                          PREMM1   OCT     67213           PRIORITY      33
001023:                                                                                                  #                                                                           E-BANK         5
001024:                                                                                                  #                                                                           MAJOR MODE    11
001025:                                                                                                  #                                                   OCT     25437           PRIORITY       12
001026:                                                                                                  #                                                                           E-BANK         6
001027:                                                                                                  #                                                                           MAJOR MODE    31
001028:
001029:                                                                                                  #  NOTE,    THE FIRST ENTRY MUST BE LABELED PREMM1
001030: 04,2357           27717        PREMM1             OCT      27717                                 #  MM 79  EBANK 7  PRIO 13
001031: 04,2360           27716                           OCT      27716                                 #  MM 78  EBANK 7  PRIO 13
001032: 04,2361           27713                           OCT      27713                                 #  MM 75  EBANK 7  PRIO 13
001033: 04,2362           27712                           OCT      27712                                 #  MM 74  EBANK 7  PRIO 13
001034: 04,2363           27711                           OCT      27711                                 #  MM 73  EBANK 7  PRIO 13
001035: 04,2364           27710                           OCT      27710                                 #  MM 72  EBANK 7  PRIO 13
001036: 04,2365           27677                           OCT      27677                                 #  MM 63  EBANK 7  PRIO 13
001037: 04,2366           27264                           OCT      27264                                 #  MM 52  EBANK 5  PRIO 13
001038: 04,2367           27263                           OCT      27263                                 #  MM 51  EBANK 5  PRIO 13
001039: 04,2370           27657                           OCT      27657                                 #  MM 47  EBANK 7  PRIO 13
001040: 04,2371           27652                           OCT      27652                                 #  MM 42  EBANK 7  PRIO 13
001041: 04,2372           27651                           OCT      27651                                 #  MM 41  EBANK 7  PRIO 13
001042: 04,2373           27650                           OCT      27650                                 #  MM 40  EBANK 7  PRIO 13
001043: 04,2374           27647                           OCT      27647                                 #  MM 39  EBANK 7  PRIO 13
001044: 04,2375           27646                           OCT      27646                                 #  MM 38  EBANK 7  PRIO 13
001045: 04,2376           27643                           OCT      27643                                 #  MM 35  EBANK 7  PRIO 13
001046: 04,2377           27642                           OCT      27642                                 #  MM 34  EBANK 7  PRIO 13
001047: 04,2400           27641                           OCT      27641                                 #  MM 33  EBANK 7  PRIO 13
001048: 04,2401           27640                           OCT      27640                                 #  MM 32  EBANK 7  PRIO 13
001049: 04,2402           27637                           OCT      27637                                 #  MM 31  EBANK 7  PRIO 13
001050: 04,2403           27636                           OCT      27636                                 #  MM 30  EBANK 7  PRIO 13
001051: 04,2404           27631                           OCT      27631                                 #  MM 25  EBANK 7  PRIO 13
001052: 04,2405           27625                           OCT      27625                                 #  MM 21  EBANK 7  PRIO 13
001053: 04,2406           27624                           OCT      27624                                 #  MM 20  EBANK 7  PRIO 13
001054: 04,2407           27614                           OCT      27614                                 #  MM 12  EBANK 7  PRIO 13
001055: 04,2410           27613                           OCT      27613                                 #  MM 11  EBANK 7  PRIO 13
001056: 04,2411           27612                           OCT      27612                                 #  MM 10  EBANK 7  PRIO 13
001057: 04,2412           27006                           OCT      27006                                 #  MM 06  EBANK 4  PRIO 13
001058:
001059:                                                                                                  #  NOTE,     THE FOLLOWING CONSTANT IS THE NUMBER OF ENTRIES IN EACH OF
001060:                                                                                                  #  ----      THE ABOVE LISTS-1(IE, THE NUMBER OF MAJOR MODES(EXCEPT P00)
001061:                                                                                                  #            THAT CAN BE CALLED FROM THE KEYBOARD MINUS ONE)
001062:
001063: 04,2413           00033        NOV37MM            DEC      27         B-14                       #  MM'S -1
001064:
001065: 04,2414           00002        DNLADMM1           ADRES    RENDEZVU                              #  P79
001066: 04,2415           00002                           ADRES    RENDEZVU                              #  P78
001067: 04,2416           00002                           ADRES    RENDEZVU                              #  P75
001068: 04,2417           00002                           ADRES    RENDEZVU                              #  P74
001069: 04,2420           00002                           ADRES    RENDEZVU                              #  P73
001070: 04,2421           00002                           ADRES    RENDEZVU                              #  P72
001071: 04,2422           00003                           ADRES    POWERED                               #  P63
001072: 04,2423           00000                           ADRES    COSTALIN                              #  P52
001073: 04,2424           00000                           ADRES    COSTALIN                              #  P51
001074: 04,2425           00003                           ADRES    POWERED                               #  P47
001075: 04,2426           00003                           ADRES    POWERED                               #  P42
001076: 04,2427           00003                           ADRES    POWERED                               #  P41
001077: 04,2430           00003                           ADRES    POWERED                               #  P40
001078: 04,2431           00002                           ADRES    RENDEZVU                              #  P39
001079: 04,2432           00002                           ADRES    RENDEZVU                              #  P38
001080: 04,2433           00002                           ADRES    RENDEZVU                              #  P35
001081: 04,2434           00002                           ADRES    RENDEZVU                              #  P34
001082: 04,2435           00002                           ADRES    RENDEZVU                              #  P33
001083: 04,2436           00002                           ADRES    RENDEZVU                              #  P32
001084: 04,2437           00002                           ADRES    RENDEZVU                              #  P31LM
001085: 04,2440           00002                           ADRES    RENDEZVU                              #  P30
001086: 04,2441           00002                           ADRES    RENDEZVU                              #  P25
001087: 04,2442           00002                           ADRES    RENDEZVU                              #  P21
001088: 04,2443           00002                           ADRES    RENDEZVU                              #  P20
001089: 04,2444           00003                           ADRES    POWERED                               #  P12
001090: 04,2445           00002                           ADRES    RENDEZVU                              #  P11
001091: 04,2446           00002                           ADRES    RENDEZVU                              #  P10
001092: 04,2447           00000                           ADRES    COSTALIN                              #  P06
001093: 04,2450     5030               DNLADP00           =        ZERO
001094: 04,2450                        COSTALIN           =        0
001095: 04,2450                        AGSUPDAT           =        1
001096: 04,2450                        RENDEZVU           =        2
001097: 04,2450                        POWERED            =        3
001098:
001099:
001100: 13,2000                                           BANK     13
001101: 13,2000                                           SETLOC   INTINIT
001102: 13,2000                                           BANK
001103:
001104: 13,2000                                           COUNT*   $$/INTIN
001105:
001106: 13,2000  E3,1554                                  EBANK=   RRECTCSM
001107:
001108:                                                                                                  #  THIS ROUTINE DOES THE POO INTEGRATION
001109:
001110: 13,2000           43014        STATEUP            SET      BOF                                   #  EXTRAPOLATE CM STATE VECTOR
001111: 13,2001           01474                                    VINTFLAG
001112: 13,2002           04347                                    SURFFLAG                              #  ALSO 6X6 W-MATRIX IF LM ON LUNAR
001113: 13,2003           26010                                    DOINT                                 #       SURFACE AND W-MATRIX VALID
001114: 13,2004           43014                           BOF      SET                                   #       FOR RENDEZVOUS NAVIGATION.
001115: 13,2005           02756                                    RENDWFLG
001116: 13,2006           26010                                    DOINT
001117: 13,2007           01476                                    DIM0FLAG
001118: 13,2010           45014        DOINT              CLEAR    CALL
001119: 13,2011           01667                                    PRECIFLG                              #  ENGAGES 4-TIME STEP LOGIC IN INTEGRATION
001120: 13,2012           27105                                    INTEGRV                               #  WHEN MODREG = 0
001121:
001122: 13,2013           77745                           DLOAD
001123: 13,2014           01571                                    TETCSM
001124: 13,2015           34041                           STCALL   TDEC1
001125: 13,2016           27362                                    INTSTALL
001126: 13,2017           45014                           CLEAR    CALL                                  #  EXTRAPOLATE LM STATE VECTOR
001127: 13,2020           01674                                    VINTFLAG
001128: 13,2021           26622                                    SETIFLGS
001129: 13,2022           43014                           BON      BOF                                   #  ALSO 9X9 W-MATRIX IF W IS VALID
001130: 13,2023           04307                                    SURFFLAG
001131: 13,2024           26032                                    DOINT2
001132: 13,2025           02756                                    RENDWFLG
001133: 13,2026           26032                                    DOINT2
001134: 13,2027           43014                           SET      SET
001135: 13,2030           01476                                    DIM0FLAG
001136: 13,2031           01475                                    D6OR9FLG
001137: 13,2032           45014        DOINT2             SET      CALL
001138: 13,2033           01467                                    PRECIFLG                              #  DISENGAGE 4 TIME STEP LOGIC IN INTEG.
001139: 13,2034           27105                                    INTEGRV
001140: 13,2035           77614        NO-INT             CLRGO
001141: 13,2036           01236                                    NODOFLAG
001142: 13,2037           26610                                    ENDINT
001143:
001144:
001145:                                                                                                  #  THISVINT IS CALLED BY MIDTOAV1 AND 2
001146:
001147: 13,2040           43414        THISVINT           CLEAR    RVQ
001148: 13,2041           01674                                    VINTFLAG

End of include-file FRESH_START_AND_RESTART.agc.  Parent file is MAIN.agc


