
Source Code


000002:                                                                                                  ## Copyright:   Public domain.
000003:                                                                                                  ## Filename:    GENERAL_LAMBERT_AIMPOINT_GUIDANCE.agc
000004:                                                                                                  ## Purpose:     A section of an attempt to reconstruct Sundance revision 306
000005:                                                                                                  ##              as closely as possible with available information. Sundance
000006:                                                                                                  ##              306 is the source code for the Lunar Module's (LM) Apollo
000007:                                                                                                  ##              Guidance Computer (AGC) for Apollo 9. This program was created
000008:                                                                                                  ##              using the mixed-revision SundanceXXX as a starting point, and
000009:                                                                                                  ##              pulling back features from Luminary 69 believed to have been
000010:                                                                                                  ##              added based on memos, checklists, observed address changes,
000011:                                                                                                  ##              or the Sundance GSOPs.
000012:                                                                                                  ## Assembler:   yaYUL
000013:                                                                                                  ## Contact:     Ron Burkey <info@sandroid.org>.
000014:                                                                                                  ## Website:     www.ibiblio.org/apollo/index.html
000015:                                                                                                  ## Mod history: 2020-07-24 MAS  Created from SundanceXXX.
000016:
000017:
000018:
000019:                                                                                                  #  GENERAL LAMBERT AIMPOINT GUIDANCE **
000020:                                                                                                  #  WRITTEN BY RAMA M AIYAWAR
000021:
000022:                                                                                                  #  PROGRAM P-31 DESCRIPTION **
000023:
000024:                                                                                                  #  1.    TO ACCEPT TARGETING PARAMETERS OBTAINED FROM A SOURCE EXTERNAL
000025:                                                                                                  #        TO THE LEM AND COMPUTE THERE FROM THE REQUIRED-VELOCITY AND
000026:                                                                                                  #        OTHER INITIAL CONDITIONS REQUIRED BY LM FOR DESIRED MANEUVER.
000027:                                                                                                  #        THE TARGETING PARAMETERS ARE TIG (TIME OF IGNITION), TARGET
000028:                                                                                                  #        VECTOR (RTARG), AND THE TIME FROM TIG UNTIL THE TARGET IS
000029:                                                                                                  #        REACHED(DELLT4), DESIRED TIME OF FLIGHT FROM RINIT TO RTARG..
000030:
000031:                                                                                                  #  ASSUMPTIONS **
000032:
000033:                                                                                                  #  1.    THE TARGET PARAMETERS MAY HAVE BEEN LOADED PRIOR TO THE
000034:                                                                                                  #        EXECUTION OF THIS PROGRAM.
000035:                                                                                                  #  2.    THIS PROGRAM IS APPLICABLE IN EITHER EARTH OR LUNAR ORBIT.
000036:                                                                                                  #  3.    THIS PROGRAM IS DESIGNED FOR ONE-MAN OPERATION, AND SHOULD
000037:                                                                                                  #        BE SELECTED BY THE ASTRONAUT BY DSKY ENTRY V37 E31.
000038:
000039:                                                                                                  #  SUBROUTINES USED **
000040:                                                                                                  #
000041:                                                                                                  #  MANUPARM, TTG/N35, R02BOTH, MIDGIM, DISPMGA, FLAGDOWN, BANKCALL,
000042:                                                                                                  #  GOTOPOOH, ENDOFJOB, PHASCHNG, GOFLASHR, GOFLASH.
000043:
000044:                                                                                                  #  MANUPARM      CALCULATES APOGEE, PERIGEE ALTITUDES AND DELTAV DESIRED
000045:                                                                                                  #                FOR THE MANEUVER.
000046:
000047:                                                                                                  #  TTG/N35       CLOCKTASK - UPDATES CLOCK.
000048:
000049:                                                                                                  #  MIDGIM        CALCULATES MIDDLE GIMBAL ANGLE FOR DISPLAY.
000050:
000051:                                                                                                  #  R02BOTH       IMU - STATUS CHECK ROUTINE.
000052:
000053:                                                                                                  #  DISPLAYS USED IN P-31LM **
000054:
000055:                                                                                                  #  V06N33        DISPLAY SOTRED TIG (IN HRS. MINS. SECS)
000056:                                                                                                  #  V06N42        DISPLAY APOGEE, PERIGEE, DELTAV.
000057:                                                                                                  #  V16N35        DISPLAY TIME FROM TIG.
000058:                                                                                                  #  V06N45        TIME FROM IGNITION AND MIDDLE GIMBAL ANGLE.
000059:
000060:                                                                                                  #  ERASABLE INITIALIZATION REQUIRED **
000061:
000062:                                                                                                  #  TIG           TIME OF IGNITION                DP      (B+28) CS.
000063:
000064:                                                                                                  #  DELLT4        DESIRED TIME OF FLIGHT          DP      (B+28) CS
000065:                                                                                                  #                FROM RINIT TO RTARG.
000066:                                                                                                  #  RTARG         RADIUS VECTOR OF TARGET POSITION VECTOR
000067:                                                                                                  #                RADIUS VECTOR   SCALED TO  (B+29)METERS IF EARTH ORBIT
000068:                                                                                                  #                RADIUS VECTOR SCALED TO    (B+27)METERS IF MOON ORBIT
000069:
000070:                                                                                                  #  OUTPUT **
000071:
000072:                                                                                                  #  HAPO          APOGEE ALTITUDE
000073:                                                                                                  #  HPER          PERIGEE ALTITUDE
000074:                                                                                                  #  VGDISP        MAG.OF DELTAV FOR DISPLAY ,SCALING      B+7 M/CS EARTH
000075:                                                                                                  #                MAG.OF DELTAV FOR DISPLAY, SCALING      B+5 M/CS MOON
000076:                                                                                                  #  MIDGIM        MIDDLE GIMBAL ANGLE
000077:                                                                                                  #  XDELVFLG      RESETS XDELVFLG FOR LAMBERT VG COMPUTATIONS
000078:
000079:                                                                                                  #  ALARMS OR ABORTS      NONE **
000080:
000081:                                                                                                  #  RESTARTS ARE VIA GROUP 4 **
000082:
000083: 34,2000                                           SETLOC   GLM
000084: 34,2000                                           BANK
000085:
000086: 34,3254  E7,1455                                  EBANK=   SUBEXIT
000087:
000088: 34,3254                                           COUNT*   $$/P31
000089: 34,3254           05423        P31LM              TC       PHASCHNG
000090: 34,3255           05024                           OCT      05024
000091: 34,3256           13000                           OCT      13000
000092:
000093: 34,3257           33342                           CAF      V06N33*                               #  TIG
000094: 34,3260           04655                           TC       BANKCALL
000095: 34,3261           20406                           CADR     GOFLASH
000096: 34,3262           14106                           TCF      GOTOPOOH
000097: 34,3263           13265                           TCF      +2
000098: 34,3264           13257                           TCF      -5
000099:
000100: 34,3265           06014                           TC       INTPRET
000101: 34,3266           77624                           CALL
000102: 34,3267           71345                                    P31INT
000103: 34,3270           77776                           EXIT
000104:
000105: 34,3271           33343                           CAF      V06N42*                               #  HAPO, HPER, VGDISP
000106: 34,3272           04655                           TC       BANKCALL
000107: 34,3273           20544                           CADR     GOFLASHR
000108: 34,3274           14106                           TCF      GOTOPOOH
000109: 34,3275           13302                           TCF      +5
000110: 34,3276           13271                           TCF      -5
000111: 34,3277           05423                           TC       PHASCHNG
000112: 34,3300           00014                           OCT      00014
000113: 34,3301           05225                           TC       ENDOFJOB
000114:
000115: 34,3302           04655                           TC       BANKCALL
000116: 34,3303           72465                           CADR     COMPTGO
000117: 34,3304           33344                           CAF      V16N35
000118: 34,3305           03311                           TC       VNPOOH2
000119: 34,3306           35006                           CAF      POSMAX
000120: 34,3307           55175                           TS       DISPDEX
000121: 34,3310           03325                           TC       P31EXIT
000122:
000123: 34,3311           00006        VNPOOH2            EXTEND
000124: 34,3312           23452                           QXCH     RTRN
000125: 34,3313           55602                           TS       VERBNOUN
000126: 34,3314           31602                           CA       VERBNOUN
000127: 34,3315           04655                           TCR      BANKCALL
000128: 34,3316           20544                           CADR     GOFLASHR
000129: 34,3317           04106                           TC       GOTOPOOH
000130: 34,3320           01452                           TC       RTRN
000131: 34,3321           13314                           TCF      -5
000132: 34,3322           05423                           TC       PHASCHNG
000133: 34,3323           00014                           OCT      00014
000134: 34,3324           05225                           TC       ENDOFJOB
000135:
000136: 34,3325           04655        P31EXIT            TC       BANKCALL
000137: 34,3326           11067                           CADR     R02BOTH
000138: 34,3327           06014                           TC       INTPRET
000139: 34,3330           41575                           VLOAD    PUSH
000140: 34,3331           03363                                    DELVEET3
000141: 34,3332           77624                           CALL
000142: 34,3333           20002                                    MIDGIM
000143: 34,3334           77624                           CALL
000144: 34,3335           72000                                    REVN1645
000145: 34,3336           77776                           EXIT
000146: 34,3337           05600                           TC       DOWNFLAG
000147: 34,3340           00045                           ADRES    XDELVFLG
000148: 34,3341           04106                           TC       GOTOPOOH
000149:
000150: 34,3342           01441        V06N33*            VN       0633
000151: 34,3343           01452        V06N42*            VN       0642
000152: 34,3344           04043        V16N35             VN       1635
000153:
000154: 34,3345           71220        P31INT             STQ      DLOAD
000155: 34,3346           03617                                    QTEMP
000156: 34,3347           03425                                    TIG
000157: 34,3350           34041                           STCALL   TDEC1                                 #  INTEGRATE STATE VECTORS TO TIG
000158: 34,3351           27030                                    LEMPREC
000159: 34,3352           77330                           SXA,1    VLOAD
000160: 34,3353           02773                                    P30EXIT
000161: 34,3354           00025                                    VATT1
000162: 34,3355           26347                           STOVL    VINIT
000163: 34,3356           00017                                    RATT1
000164: 34,3357           02341                           STORE    RINIT
000165: 34,3360           67201                           SETPD    SLOAD
000166: 34,3361           00001                                    0D
000167: 34,3362           14423                                    P31ZERO
000168: 34,3363           41525                           PDDL     PUSH                                  #  E4 AND NUMIT = 0
000169: 34,3364           31410                                    P31ANGLE
000170: 34,3365           77624                           CALL
000171: 34,3366           22022                                    INITVEL
000172: 34,3367           77350                           LXA,1    VLOAD
000173: 34,3370           02773                                    P30EXIT
000174: 34,3371           03363                                    DELVEET3
000175: 34,3372           77646                           ABVAL
000176: 34,3373           27651                           STOVL    VGDISP
000177: 34,3374           02357                                    VIPRIME
000178: 34,3375           26744                           STOVL    VVEC
000179: 34,3376           02341                                    RINIT
000180: 34,3377           36655                           STCALL   RVEC
000181: 34,3400           46116                                    PERIAPO
000182: 34,3401           77745                           DLOAD
000183: 34,3402           00005                                    4D
000184: 34,3403           16261                           STODL    HAPO
000185: 34,3404           00011                                    8D
000186: 34,3405           36263                           STCALL   HPER
000187: 34,3406           03617                                    QTEMP
000188:
000189: 34,3407           01616 07071  P31ANGLE           2DEC     .0555555555
000190: 34,3411  26,2422               P31ZERO            =        1BITDP
000191:
000192:
000193:

End of include-file GENERAL_LAMBERT_AIMPOINT_GUIDANCE.agc.  Parent file is MAIN.agc


