
Source Code


000002:                                                                                                  ## Copyright:   Public domain.
000003:                                                                                                  ## Filename:    GIMBAL_LOCK_AVOIDANCE.agc
000004:                                                                                                  ## Purpose:     A section of an attempt to reconstruct Sundance revision 306
000005:                                                                                                  ##              as closely as possible with available information. Sundance
000006:                                                                                                  ##              306 is the source code for the Lunar Module's (LM) Apollo
000007:                                                                                                  ##              Guidance Computer (AGC) for Apollo 9. This program was created
000008:                                                                                                  ##              using the mixed-revision SundanceXXX as a starting point, and
000009:                                                                                                  ##              pulling back features from Luminary 69 believed to have been
000010:                                                                                                  ##              added based on memos, checklists, observed address changes,
000011:                                                                                                  ##              or the Sundance GSOPs.
000012:                                                                                                  ## Assembler:   yaYUL
000013:                                                                                                  ## Contact:     Ron Burkey <info@sandroid.org>.
000014:                                                                                                  ## Website:     www.ibiblio.org/apollo/index.html
000015:                                                                                                  ## Mod history: 2020-07-24 MAS  Created from SundanceXXX.
000016:
000017:
000018: 15,2000                                           BANK     15
000019:
000020: 22,2000                                           SETLOC   KALCMON1
000021: 22,2000                                           BANK
000022:
000023:                                                                                                  #  DETECTING GIMBAL LOCK
000024: 22,2740  22,2740               LOCSKIRT           EQUALS   NOGIMLOC
000025:
000026: 22,2740           77614        NOGIMLOC           SET
000027: 22,2741           01074                                    CALCMAN3
000028: 22,2742           70740        WCALC              LXC,1    DLOAD*
000029: 22,2743           01331                                    RATEINDX                              #  CHOOSE THE DESIRED MANEUVER RATE
000030: 22,2744           04766                                    ARATE,1                               #  FROM A LIST OF FOUR
000031: 22,2745           45002                           SR4      CALL                                  #  COMPUTE THE INCREMENTAL ROTATION MATRIX
000032: 22,2746           44523                                    DELCOMP                               #  DEL CORRESPONDING TO A 1 SEC ROTATION
000033:                                                                                                  #  ABOUT COF
000034: 22,2747           74343                           DLOAD*   VXSC
000035: 22,2750           04766                                    ARATE,1
000036: 22,2751           03266                                    COF
000037: 22,2752           17323                           STODL    BRATE                                 #  COMPONENT MANEUVER RATES 45 DEG/SEC
000038: 22,2753           03333                                    AM
000039: 22,2754           55605                           DMP      DDV*
000040: 22,2755           04776                                    ANGLTIME
000041: 22,2756           04766                                    ARATE,1
000042: 22,2757           77661                           SR
000043: 22,2760           20606                                    5
000044: 22,2761           03331                           STORE    TM                                    #  MANEUVER EXECUTION TIME SCALED AS T2
000045: 22,2762           77614                           SETGO
000046: 22,2763           01035                                    CALCMAN2                              #  0(OFF) = CONTINUE MANEUVER
000047: 22,2764           45004                                    NEWANGL    +1                         #  1(ON) = START MANEUVER
000048:
000049:                                                                                                  #  THE FOUR SELECTABLE FREE FALL MANEUVER RATES SELECTED BY
000050:                                                                                                  #  LOADING RATEINDX WITH 0, 2, 4, 6, RESPECTIVELY
000051:
000052: 22,2765           00221 24255  ARATE              2DEC     .0088888888                            #  = 0.2 DEG/SEC         $ 22.5 DEG/SEC
000053:
000054: 22,2767           00554 02660                     2DEC     .0222222222                            #  = 0.5 DEG/SEC         $ 22.5 DEG/SEC
000055:
000056: 22,2771           02660 13301                     2DEC     .0888888888                            #  = 2.0 DEG/SEC         $ 22.5 DEG/SEC
000057:
000058: 22,2773           16161 30707                     2DEC     .4444444444                            #  = 10.0 DEG/SEC        $ 22.5 DEG/SEC
000059:
000060: 22,2775           00003 04000  ANGLTIME           2DEC     .0001907349                            #  = 100B-19 FUDGE FACTOR TO CONVERT
000061:                                                                                                  #  MANEUVER ANGLE TO MANEUVER TIME
000062:
000063:

End of include-file GIMBAL_LOCK_AVOIDANCE.agc.  Parent file is MAIN.agc


