
Source Code


000002:                                                                                                  ## Copyright:   Public domain.
000003:                                                                                                  ## Filename:    GROUND_TRACKING_DETERMINATION_PROGRAM_-_P21.agc
000004:                                                                                                  ## Purpose:     A section of an attempt to reconstruct Sundance revision 306
000005:                                                                                                  ##              as closely as possible with available information. Sundance
000006:                                                                                                  ##              306 is the source code for the Lunar Module's (LM) Apollo
000007:                                                                                                  ##              Guidance Computer (AGC) for Apollo 9. This program was created
000008:                                                                                                  ##              using the mixed-revision SundanceXXX as a starting point, and
000009:                                                                                                  ##              pulling back features from Luminary 69 believed to have been
000010:                                                                                                  ##              added based on memos, checklists, observed address changes,
000011:                                                                                                  ##              or the Sundance GSOPs.
000012:                                                                                                  ## Assembler:   yaYUL
000013:                                                                                                  ## Contact:     Ron Burkey <info@sandroid.org>.
000014:                                                                                                  ## Website:     www.ibiblio.org/apollo/index.html
000015:                                                                                                  ## Mod history: 2020-07-24 MAS  Created from SundanceXXX.
000016:
000017:
000018:
000019:                                                                                                  #  GROUND TRACKING DETERMINATION PROGRAM P21
000020:                                                                                                  #  PROGRAM DESCRIPTION
000021:                                                                                                  #  MOD NO - 1
000022:                                                                                                  #  MOD BY - N. M. NEVILLE
000023:
000024:                                                                                                  #  FUNCTIONAL DECRIPTION -
000025:
000026:                                                                                                  #  TO PROVIDE THE ASTRONAUT DETAILS OF THE LM OR CSM GROUND TRACK WITHOUT
000027:                                                                                                  #  THE NEED FOR GROUND COMMUNICATION (REQUESTED BY DSKY).
000028:                                                                                                  #  CALLING SEQUENCE -
000029:
000030:                                                                                                  #        ASTRONAUT REQUEST THROUGH DSKY V37E21E
000031:                                                                                                  #  SUBROUTINES CALLED -
000032:
000033:                                                                                                  #  GOPERF4
000034:                                                                                                  #  GOFLASH
000035:                                                                                                  #  THISPREC
000036:                                                                                                  #  OTHPREC
000037:                                                                                                  #  LAT-LONG
000038:
000039:                                                                                                  #  NORMAL EXIT MODES -
000040:
000041:                                                                                                  #  ASTRONAUT REQUEST TROUGH DSKY TO TERMINATE PROGRAM V34E
000042:                                                                                                  #  ALARM OR ABORT EXIT MODES -
000043:
000044:                                                                                                  #  NONE
000045:                                                                                                  #  OUTPUT -
000046:
000047:                                                                                                  #  OCTAL DISPLAY OF OPTION CODE AND VEHICLE WHOSE GROUND TRACK IS TO BE
000048:                                                                                                  #  COMPUTED
000049:                                                                                                  #        OPTION CODE     00002
000050:                                                                                                  #        THIS            00001
000051:                                                                                                  #        OTHER           00002
000052:                                                                                                  #  DECIMAL DISPLAY OF TIME TO BE INTEGRATED TO HOURS , MINUTES , SECONDS
000053:                                                                                                  #  DECIMAL DISPLAY OF LAT,LONG,ALT
000054:
000055:                                                                                                  #  ERASABLE INITIALIZATION REQUIRED
000056:
000057:                                                                                                  #  AX0           2DEC    4.652459653 E-5 RADIANS         %68-69 CONSTANTS"
000058:
000059:                                                                                                  #  -AY0          2DEC    2.147535898 E-5 RADIANS
000060:
000061:                                                                                                  #  AZ0           2DEC    .7753206164     REVOLUTIONS
000062:                                                                                                  #  FOR LUNAR ORBITS 504LM VECTOR IS NEEDED
000063:
000064:                                                                                                  #  504LM         2DEC    -2.700340600 E-5 RADIANS
000065:
000066:                                                                                                  #  504LM _2      2DEC    -7.514128400 E-4 RADIANS
000067:
000068:                                                                                                  #  504LM _4      2DEC    _2.553198641 E-4 RADIANS
000069:
000070:                                                                                                  #  NONE
000071:                                                                                                  #  DEBRIS
000072:
000073:                                                                                                  #  CENTRALS-A,Q,L
000074:                                                                                                  #  OTHER - THOSE USED BY THE ABOVE LISTED SUBROUTINES
000075:                                                                                                  #  SEE LEMPREC, LAT-LONG
000076:
000077: 34,3411  30,2000                                  SBANK=   LOWSUPER                              #  FOR LOW 2CADR'S.
000078:
000079: 33,2000                                           BANK     33
000080: 24,2000                                           SETLOC   P20S
000081: 24,2000                                           BANK
000082:
000083: 24,3120  E7,1745                                  EBANK=   P21TIME
000084: 24,3120                                           COUNT*   $$/P21
000085: 24,3120           35026        PROG21             CAF      ONE
000086: 24,3121           55156                           TS       OPTION2                               #  ASSUMED VEHICLE IS LM, R2 = 00001
000087: 24,3122           35025                           CAF      BIT2                                  #  OPTION 2
000088: 24,3123           04655                           TC       BANKCALL
000089: 24,3124           20542                           CADR     GOPERF4
000090: 24,3125           04106                           TC       GOTOPOOH                              #  TERMINATE
000091: 24,3126           03130                           TC       +2                                    #  PROCEED VALUE OF ASSUMED VEHICLE OK
000092: 24,3127           03122                           TC       -5                                    #  R2 LOADED THROUGH DSKY
000093: 24,3130           33221        P21PROG1           CAF      V6N34                                 #  LOAD DESIRED TIME OF LAT-LONG.
000094: 24,3131           04655                           TC       BANKCALL
000095: 24,3132           20406                           CADR     GOFLASH
000096: 24,3133           04106                           TC       GOTOPOOH                              #  TERM
000097: 24,3134           03136                           TC       +2                                    #  PROCEED VALUES OK
000098: 24,3135           03130                           TC       -5                                    #  TIME LOADED THROUGH DSKY
000099: 24,3136           06014                           TC       INTPRET
000100: 24,3137           77745                           DLOAD
000101: 24,3140           01047                                    DSPTEM1
000102: 24,3141           03746                           STORE    P21TIME
000103: 24,3142           45335                           SLOAD    DSU
000104: 24,3143           01157                                    OPTION2
000105: 24,3144           11217                                    P21ONENN
000106: 24,3145           71230                           BHIZ     DLOAD
000107: 24,3146           51161                                    P21PROG2                              #  VEHICLE TO BE INTEGRATED IS LEM
000108: 24,3147           03746                                    P21TIME                               #  VEHICLE TO BE INTEGRATED IS CSM
000109: 24,3150           34041                           STCALL   TDEC1                                 #  INTEGRATE TO TIME SPECIFIED IN TDEC
000110: 24,3151           27014                                    OTHPREC                               #  ADJUST UNITS FOR LAT-LONG ROUTINE
000111: 24,3152           46135        P21PROGA           SLOAD    BHIZ
000112: 24,3153           00050                                    X2
000113: 24,3154           51167                                    P21PROG3
000114: 24,3155           43175                           VLOAD    SETGO
000115: 24,3156           00001                                    RATT
000116: 24,3157           01423                                    LUNAFLAG
000117: 24,3160           51172                                    P21PROG4
000118: 24,3161           77745        P21PROG2           DLOAD
000119: 24,3162           03746                                    P21TIME
000120: 24,3163           34041                           STCALL   TDEC1
000121: 24,3164           27030                                    THISPREC
000122: 24,3165           77650                           GOTO
000123: 24,3166           51152                                    P21PROGA
000124: 24,3167           43175        P21PROG3           VLOAD    CLEAR
000125: 24,3170           00001                                    RATT
000126: 24,3171           01663                                    LUNAFLAG
000127: 24,3172           16034        P21PROG4           STODL    ALPHAV
000128: 24,3173           00015                                    TAT
000129: 24,3174           45014                           CLEAR    CALL
000130: 24,3175           00662                                    ERADFLAG
000131: 24,3176           26323                                    LAT-LONG
000132: 24,3177           77776                           EXIT
000133: 24,3200           33220                           CAF      V06N43                                #  DISPLAY LAT,LONG,ALT
000134: 24,3201           04655                           TC       BANKCALL                              #  LAT,LONG = 1/2 REVS B0
000135: 24,3202           20406                           CADR     GOFLASH                               #  ALT = KM B14
000136: 24,3203           04106                           TC       GOTOPOOH                              #  TERM
000137: 24,3204           04106                           TC       GOTOPOOH
000138: 24,3205           06014                           TC       INTPRET                               #  V32E RECYCLE
000139: 24,3206           43345                           DLOAD    DAD
000140: 24,3207           03746                                    P21TIME
000141: 24,3210           11215                                    600SEC                                #  600 SECONDS OR 10 MIN
000142: 24,3211           01047                           STORE    DSPTEM1
000143: 24,3212           77634                           RTB
000144: 24,3213           51130                                    P21PROG1
000145: 24,3214           00003 25140  600SEC             2DEC     60000      B-28                       #  10 MIN
000146:
000147: 24,3216           00001        P21ONENN           OCT      00001                                 #  NEEDED TO DETERMINE VEHICLE
000148: 24,3217           00000                           OCT      00000                                 #  TO BE INTEGRATED
000149: 24,3220           01453        V06N43             VN       00643
000150: 24,3221           01442        V6N34              VN       00634
000151:
000152:

End of include-file GROUND_TRACKING_DETERMINATION_PROGRAM_-_P21.agc.  Parent file is MAIN.agc


