
Source Code


000002:                                                                                                  ## Copyright:   Public domain.
000003:                                                                                                  ## Filename:    IMU_COMPENSATION_PACKAGE.agc
000004:                                                                                                  ## Purpose:     A section of an attempt to reconstruct Sundance revision 306
000005:                                                                                                  ##              as closely as possible with available information. Sundance
000006:                                                                                                  ##              306 is the source code for the Lunar Module's (LM) Apollo
000007:                                                                                                  ##              Guidance Computer (AGC) for Apollo 9. This program was created
000008:                                                                                                  ##              using the mixed-revision SundanceXXX as a starting point, and
000009:                                                                                                  ##              pulling back features from Luminary 69 believed to have been
000010:                                                                                                  ##              added based on memos, checklists, observed address changes,
000011:                                                                                                  ##              or the Sundance GSOPs.
000012:                                                                                                  ## Assembler:   yaYUL
000013:                                                                                                  ## Contact:     Ron Burkey <info@sandroid.org>.
000014:                                                                                                  ## Website:     www.ibiblio.org/apollo/index.html
000015:                                                                                                  ## Mod history: 2020-07-24 MAS  Created from SundanceXXX.
000016:
000017:
000018: 07,2622                                           BANK     7
000019: 06,2000                                           SETLOC   IMUCOMP
000020: 06,2000                                           BANK
000021:
000022: 06,3277  E3,1460                                  EBANK=   NBDX
000023:
000024: 06,3277                                           COUNT*   $$/ICOMP
000025: 06,3277           33531        1/PIPA             CAF      LGCOMP                                #  SAVE EBANK OF CALLING PROGRAM
000026: 06,3300           56003                           XCH      EBANK
000027: 06,3301           54163                           TS       MODE
000028:
000029: 06,3302           11477                           CCS      GCOMPSW                               #  BYPASS IF GCOMPSW NEGATIVE
000030: 06,3303           13306                           TCF      +3
000031: 06,3304           13306                           TCF      +2
000032: 06,3305           13422                           TCF      IRIG1                                 #  RETURN
000033:
000034: 06,3306           35024        1/PIPA1            CAF      FOUR                                  #  PIPAZ, PIPAY, PIPAX
000035: 06,3307           54132                           TS       BUF        +2
000036:
000037: 06,3310           50132                           INDEX    BUF        +2
000038: 06,3311           31453                           CA       PIPASCF                               #  (P.P.M.) X 2(-9)
000039: 06,3312           00006                           EXTEND
000040: 06,3313           50132                           INDEX    BUF        +2
000041: 06,3314           71211                           MP       DELVX                                 #  (PP) X 2(+14) NOW (PIPA PULSES) X 2(+5)
000042: 06,3315           54002                           TS       Q                                     #  SAVE MAJOR PART
000043:
000044: 06,3316           30001                           CA       L                                     #  MINOR PART
000045: 06,3317           00006                           EXTEND
000046: 06,3320           75021                           MP       BIT6                                  #  SCALE 2(+9)   SHIFT RIGHT 9
000047: 06,3321           50132                           INDEX    BUF        +2
000048: 06,3322           55212                           TS       DELVX      +1                         #  FRACTIONAL PIPA PULSES SCALED 2(+14)
000049:
000050: 06,3323           30002                           CA       Q                                     #  MAJOR PART
000051: 06,3324           00006                           EXTEND
000052: 06,3325           75021                           MP       BIT6                                  #  SCALE 2(+9)   SHIFT RIGHT 9
000053: 06,3326           50132                           INDEX    BUF        +2
000054: 06,3327           21212                           DAS      DELVX                                 #  (PIPAI) + (PIPAI)(SFE)
000055:


000059: 06,3330           50132                           INDEX    BUF        +2
000060: 06,3331           41452                           CS       PIPABIAS                              #  (PIPA PULSES)/(CS) X 2(-5)             *
000061: 06,3332           00006                           EXTEND
000062: 06,3333           71075                           MP       1/PIPADT                              #  (CS) X 2(+8) NOW (PIPA PULSES) X 2(+3) *
000063: 06,3334           00006                           EXTEND
000064: 06,3335           75023                           MP       BIT4                                  #  SCALE 2(+11) SHIFT RIGHT 11            *
000065: 06,3336           50132                           INDEX    BUF        +2
000066: 06,3337           21212                           DAS      DELVX                                 #  (PIPAI) + (PIPAI)(SFE) - (BIAS)(DELTAT)
000067:
000068: 06,3340           10132                           CCS      BUF        +2                         #  PIPAZ, PIPAY, PIPAX
000069: 06,3341           67721                           AD       NEG1
000070: 06,3342           13307                           TCF      1/PIPA1    +1
000071: 06,3343           13344                           NOOP                                           #  LESS THAN ZERO IMPOSSIBLE
000072:
000073: 06,3344           55477        IRIGCOMP           TS       GCOMPSW                               #  INDICATE COMMANDS 2 PULSES OR LESS.
000074: 06,3345           54130                           TS       BUF                                   #  INDEX COUNTER . IRIGX, IRIGY, IRIGZ.
000075:
000076: 06,3346           00006        IRIGX              EXTEND
000077: 06,3347           41212                           DCS      DELVX                                 #  (PIPA PULSES) X 2(+14)
000078: 06,3350           52155                           DXCH     MPAC
000079: 06,3351           31463                           CA       ADIAX                                 #  (GYRO PULSES)/(PIPA PULSE) X 2(-6)            *
000080: 06,3352           03425                           TC       GCOMPSUB                              #  -(ADIAX)(PIPAX)          (GYRO PULSES) X 2(+14)
000081:
000082: 06,3353           00006                           EXTEND                                         #
000083: 06,3354           41214                           DCS      DELVY                                 #        (PIPA PULSES) X 2(+14)
000084: 06,3355           52155                           DXCH     MPAC                                  #
000085: 06,3356           41466                           CS       ADSRAX                                #        (GYRO PULSES)/(PIPA PULSE) X 2(-6)      *
000086: 06,3357           03425                           TC       GCOMPSUB                              #        -(ADSRAX)(PIPAY)   (GYRO PULSES) X 2(+14)
000087:
000088: 06,3360           41460                           CS       NBDX                                  #  (GYRO PULSES)/(CS) X 2(-5)
000089: 06,3361           03454                           TC       DRIFTSUB                              #  -(NBOX)(DELTAT)   (GYRO PULSES) X 2(+14)
000090:
000091: 06,3362           00006        IRIGY              EXTEND
000092: 06,3363           41214                           DCS      DELVY                                 #  (PIPA PULSES) X 2(+14)
000093: 06,3364           52155                           DXCH     MPAC
000094: 06,3365           31464                           CA       ADIAY                                 #  (GYRO PULSES)/(PIPA PULSE) X 2(-6)            *
000095: 06,3366           03425                           TC       GCOMPSUB                              #  -(ADIAY)(PIPAY)          (GYRO PULSES) X 2(+14)
000096:
000097: 06,3367           00006                           EXTEND
000098: 06,3370           41216                           DCS      DELVZ                                 #  (PIPA PULSES) X 2(+14)
000099: 06,3371           52155                           DXCH     MPAC
000100: 06,3372           41467                           CS       ADSRAY                                #  (GYRO PULSES)/(PIPA PULSE) X 2(-6)            *
000101: 06,3373           03425                           TC       GCOMPSUB                              #  +(ADSRAY)(PIPAZ)              (GYRO PULSES) X 2(+14)
000102:
000103: 06,3374           41461                           CS       NBDY                                  #  (GYRO PULSES)/(CS) X 2(-5)
000104: 06,3375           03454                           TC       DRIFTSUB                              #  -(NBDY)(DELTAT)   (GYRO PULSES) X 2(+14)
000105:
000106: 06,3376           00006        IRIGZ              EXTEND
000107: 06,3377           41214                           DCS      DELVY                                 #  (PIPA PULSES) X 2(+14)
000108: 06,3400           52155                           DXCH     MPAC
000109: 06,3401           31470                           CA       ADSRAZ                                #  (GYRO PULSES)/(PIPA PULSE) X 2(-6)            *
000110: 06,3402           03425                           TC       GCOMPSUB                              #  -(ADSRAZ)(PIPAY)        (GYRO PULSES) X 2(+14)
000111:
000112: 06,3403           00006                           EXTEND
000113: 06,3404           41216                           DCS      DELVZ                                 #  (PIPA PULSES) X 2(+14)
000114: 06,3405           52155                           DXCH     MPAC
000115: 06,3406           31465                           CA       ADIAZ                                 #  (GYRO PULSES)/(PIPA PULSE) X 2(-6)            *
000116: 06,3407           03425                           TC       GCOMPSUB                              #  -(ADIAZ)(PIPAZ)          (GYRO PULSES) X 2(+14)
000117:
000118: 06,3410           31462                           CA       NBDZ                                  #  (GYRO PULSES)/(CS) X 2(-5)
000119: 06,3411           03454                           TC       DRIFTSUB                              #  +(NBDZ)(DELTAT)   (GYRO PULSES) X 2(+14)
000120:
000121: 06,3412           11477                           CCS      GCOMPSW                               #  ARE GYRO COMMANDS GREATER THAN 2 PULSES
000122: 06,3413           13415                           TCF      +2                                    #  YES   SEND OUT GYRO TORQUING COMMANDS.
000123: 06,3414           13422                           TCF      IRIG1                                 #  NO    RETURN
000124:
000125: 06,3415           35101                           CA       PRIO21                                #  PRIO GREATER THAN SERVICER
000126: 06,3416           05142                           TC       NOVAC                                 #  SEND OUT GYRO TORQUING COMMANDS.
000127: 06,3417  E3,1460                                  EBANK=   NBDX
000128: 06,3417           03507 14063                     2CADR    1/GYRO
000129:
000130: 06,3421           00003                           RELINT
000131: 06,3422           30163        IRIG1              CA       MODE                                  #  RESTORE CALLERS EBANK
000132: 06,3423           54003                           TS       EBANK
000133: 06,3424           14670                           TCF      SWRETURN
000134:
000135: 06,3425           56154        GCOMPSUB           XCH      MPAC                                  #  ADIA OR ADSRA COEFFICIENT ARRIVES IN A
000136: 06,3426           00006                           EXTEND                                         #  C(MPAC) = (PIPA PULSES) X 2(+14)
000137: 06,3427           70154                           MP       MPAC                                  #  (GYRO PULSES)/(PIPA PULSE) X 2(-6)            *
000138: 06,3430           52123                           DXCH     VBUF                                  #  NOW = (GYRO PULSES) X 2(+8)                   *
000139:
000140: 06,3431           30155                           CA       MPAC       +1                         #  MINOR PART PIPA PULSES
000141: 06,3432           00006                           EXTEND
000142: 06,3433           70154                           MP       MPAC                                  #  ADIA OR ADSRA
000143: 06,3434           54001                           TS       L
000144: 06,3435           35030                           CAF      ZERO
000145: 06,3436           20123                           DAS      VBUF                                  #  NOW = (GYRO PULSES) X 2(+8)                   *
000146:
000147: 06,3437           30122                           CA       VBUF                                  #  PARTIAL RESULT - MAJOR
000148: 06,3440           00006                           EXTEND
000149: 06,3441           75016                           MP       BIT9                                  #  SCALE 2(+6)   SHIFT RIGHT 6                   *
000150: 06,3442           50130                           INDEX    BUF                                   #  RESULT = (GYRO PULSES) X 2(+14)
000151: 06,3443           21472                           DAS      GCOMP                                 #  HI(ADIA)(PIPAI) OR HI(ADSRA)(PIPAI)
000152:
000153: 06,3444           30123                           CA       VBUF       +1                         #  PARTIAL RESULT - MINOR
000154: 06,3445           00006                           EXTEND
000155: 06,3446           75016                           MP       BIT9                                  #  SCALE 2(+6)   SHIFT RIGHT 6                   *
000156: 06,3447           54001                           TS       L
000157: 06,3450           35030                           CAF      ZERO
000158: 06,3451           50130                           INDEX    BUF                                   #  RESULT = (GYRO PULSES) X 2(+14)
000159: 06,3452           21472                           DAS      GCOMP                                 #  (ADIA)(PIPAI) OR (ADSRA)(PIPAI)
000160:
000161: 06,3453           00002                           TC       Q
000162:
000163: 06,3454           00006        DRIFTSUB           EXTEND
000164: 06,3455           22131                           QXCH     BUF        +1
000165:
000166: 06,3456           00006                           EXTEND                                         #  C(A) = NBD    (GYRO PULSES)/(CS) X 2(-5)
000167: 06,3457           71075                           MP       1/PIPADT                              #  (CS) X 2(+8)  NOW (GYRO PULSES) X 2(+3)
000168: 06,3460           22155                           LXCH     MPAC       +1                         #  SAVE FOR FRACTIONAL COMPENSATION
000169: 06,3461           00006                           EXTEND
000170: 06,3462           75023                           MP       BIT4                                  #  SCALE 2(+11)  SHIFT RIGHT 11
000171: 06,3463           50130                           INDEX    BUF
000172: 06,3464           21472                           DAS      GCOMP                                 #  HI(NBD)(DELTAT)       (GYRO PULSES) X 2(+14)
000173:
000174: 06,3465           30155                           CA       MPAC       +1                         #  NOW MINOR PART
000175: 06,3466           00006                           EXTEND
000176: 06,3467           75023                           MP       BIT4                                  #  SCALE 2(+11)          SHIFT RIGHT 11
000177: 06,3470           54001                           TS       L
000178: 06,3471           35030                           CAF      ZERO
000179: 06,3472           50130                           INDEX    BUF                                   #  ADD IN FRACTIONAL COMPENSATION
000180: 06,3473           21472                           DAS      GCOMP                                 #  (NBD)(DELTAT)         (GYRO PULSES) X 2(+14)
000181:
000182: 06,3474           35025        DRFTSUB2           CAF      TWO                                   #  PIPAX, PIPAY, PIPAZ
000183: 06,3475           60130                           AD       BUF
000184: 06,3476           56130                           XCH      BUF
000185: 06,3477           50000                           INDEX    A
000186: 06,3500           11471                           CCS      GCOMP                                 #  ARE GYRO COMMANDS 1 PULSE OR GREATER
000187: 06,3501           13503                           TCF      +2                                    #  YES
000188: 06,3502           00131                           TC       BUF        +1                         #  NO
000189:
000190: 06,3503           73553                           MASK     COMPCHK                               #  DEC -1
000191: 06,3504           10000                           CCS      A                                     #  ARE GYRO COMMANDS GREATER THAN 2 PULSES
000192: 06,3505           55477                           TS       GCOMPSW                               #  YES - SET GCOMPSW POSITIVE
000193: 06,3506           00131                           TC       BUF        +1                         #  NO
000194:
000195: 06,3507           35024        1/GYRO             CAF      FOUR                                  #  PIPAZ, PIPAY, PIPAX
000196: 06,3510           54130                           TS       BUF
000197:
000198: 06,3511           50130                           INDEX    BUF                                   #  SCALE GYRO COMMANDS FOR IMUPULSE
000199: 06,3512           31472                           CA       GCOMP      +1                         #  FRACTIONAL PULSES
000200: 06,3513           00006                           EXTEND
000201: 06,3514           75017                           MP       BIT8                                  #  SHIFT RIGHT 7
000202: 06,3515           50130                           INDEX    BUF
000203: 06,3516           55472                           TS       GCOMP      +1                         #  FRACTIONAL PULSES SCALED
000204:
000205: 06,3517           35030                           CAF      ZERO                                  #  SET GCOMP = 0 FOR DAS INSTRUCTION
000206: 06,3520           50130                           INDEX    BUF
000207: 06,3521           57471                           XCH      GCOMP                                 #  GYRO PULSES
000208: 06,3522           00006                           EXTEND
000209: 06,3523           75017                           MP       BIT8                                  #  SHIFT RIGHT 7
000210: 06,3524           50130                           INDEX    BUF
000211: 06,3525           21472                           DAS      GCOMP                                 #  ADD THESE TO FRACTIONAL PULSES ABOVE
000212:
000213: 06,3526           10130                           CCS      BUF                                   #  PIPAZ, PIPAY, PIPAX
000214: 06,3527           67721                           AD       NEG1
000215: 06,3530           13510                           TCF      1/GYRO     +1
000216: 06,3531           01471        LGCOMP             ECADR    GCOMP                                 #  LESS THAN ZERO IMPOSSIBLE
000217:
000218: 06,3532           33531                           CAF      LGCOMP
000219: 06,3533           04655                           TC       BANKCALL
000220: 06,3534           17234                           CADR     IMUPULSE                              #  CALL GYRO TORQUING ROUTINE
000221: 06,3535           04655                           TC       BANKCALL
000222: 06,3536           17625                           CADR     IMUSTALL                              #  WAIT FOR PULSES TO GET OUT
000223: 06,3537           15225                           TCF      ENDOFJOB                              #  TEMPORARY
000224:
000225: 06,3540           35024        GCOMP1             CAF      FOUR                                  #  PIPAZ, PIPAY, PIPAX
000226: 06,3541           54130                           TS       BUF
000227:
000228: 06,3542           50130                           INDEX    BUF                                   #  RESCALE
000229: 06,3543           31472                           CA       GCOMP      +1
000230: 06,3544           00006                           EXTEND
000231: 06,3545           75017                           MP       BIT8                                  #  SHIFT MINOR PART LEFT 7 - MAJOR PART = 0
000232: 06,3546           50130                           INDEX    BUF
000233: 06,3547           23472                           LXCH     GCOMP      +1                         #  BITS 8-14 OF MINOR PART WERE = 0
000234:
000235: 06,3550           10130                           CCS      BUF                                   #  PIPAZ, PIPAY, PIPAX
000236: 06,3551           67721                           AD       NEG1
000237: 06,3552           13541                           TCF      GCOMP1     +1
000238: 06,3553           77776        COMPCHK            DEC      -1         B-14                       #  LESS THAN ZERO IMPOSSIBLE
000239: 06,3554           15225                           TCF      ENDOFJOB
000240:
000241: 06,3555           11477        NBDONLY            CCS      GCOMPSW                               #  BYPASS IF GCOMPSW NEGATIVE
000242: 06,3556           13561                           TCF      +3
000243: 06,3557           13561                           TCF      +2
000244: 06,3560           15225                           TCF      ENDOFJOB
000245:
000246: 06,3561           00004                           INHINT
000247: 06,3562           10076                           CCS      FLAGWRD2                              #  PREREAD T3RUPT MAY COINCIDE
000248: 06,3563           15225                           TCF      ENDOFJOB
000249: 06,3564           15225                           TCF      ENDOFJOB
000250: 06,3565           13566                           TCF      +1
000251:
000252: 06,3566           30025                           CA       TIME1                                 #  (CS) X 2(+14)
000253: 06,3567           57075                           XCH      1/PIPADT                              #  PREVIOUS TIME
000254: 06,3570           00003                           RELINT
000255: 06,3571           40000                           COM
000256: 06,3572           61075                           AD       1/PIPADT                              #  PRESENT TIME - PREVIOUS TIME
000257: 06,3573           10000        NBD2               CCS      A                                     #  CALCULATE ELAPSED TIME
000258: 06,3574           65026                           AD       ONE                                   #  NO TIME1 OVERFLOW
000259: 06,3575           13602                           TCF      NBD3                                  #  RESTORE TIME DIFFERENCE AND JUMP
000260: 06,3576           13600                           TCF      +2                                    #  TIME1 OVERFLOW
000261: 06,3577           15225                           TCF      ENDOFJOB                              #  IF ELAPSED TIME = 0  (DIFFERENCE = -0)
000262:
000263: 06,3600           40000                           COM                                            #  CALCULATE ABSOLUTE DIFFERENCE
000264: 06,3601           65006                           AD       POSMAX
000265:
000266: 06,3602           00006        NBD3               EXTEND                                         #  C(A) = DELTAT         (CS) X 2(+14)
000267: 06,3603           75015                           MP       BIT10                                 #  SHIFT RIGHT 5
000268: 06,3604           52123                           DXCH     VBUF
000269: 06,3605           00006                           EXTEND
000270: 06,3606           30123                           DCA      VBUF
000271: 06,3607           52155                           DXCH     MPAC                                  #  DELTAT NOW SCALED (CS) X 2(+19)
000272:
000273: 06,3610           35030                           CAF      ZERO
000274: 06,3611           55477                           TS       GCOMPSW                               #  INDICATE COMMANDS 2 PULSES OR LESS
000275: 06,3612           54130                           TS       BUF                                   #  PIPAX, PIPAY, PIPAZ
000276:
000277: 06,3613           41460                           CS       NBDX                                  #  (GYRO PULSES)/(CS) X 2(-5)
000278: 06,3614           03632                           TC       FBIASSUB                              #  -(NBDX)(DELTAT)    (GYRO PULSES) X 2(+14)
000279:
000280: 06,3615           00006                           EXTEND
000281: 06,3616           40123                           DCS      VBUF
000282: 06,3617           52155                           DXCH     MPAC                                  #  DELTAT SCALED (CS) X 2(+19)
000283: 06,3620           31461                           CA       NBDY                                  #  (GYRO PULSES)/(CS) X 2(-5)
000284: 06,3621           03632                           TC       FBIASSUB                              #  -(NBDY)(DELTAT)    (GYRO PULSES) X 2(+14)
000285:
000286: 06,3622           00006                           EXTEND
000287: 06,3623           40123                           DCS      VBUF
000288: 06,3624           52155                           DXCH     MPAC                                  #  DELTAT SCALED (CS) X 2(+19)
000289: 06,3625           41462                           CS       NBDZ                                  #  (GYRO PULSES)/(CS) X 2(-5)
000290: 06,3626           03632                           TC       FBIASSUB                              #  +(NBDZ)(DELTAT)    (GYRO PULSES) X 2 (+14)
000291:
000292: 06,3627           11477                           CCS      GCOMPSW                               #  ARE GYRO COMMANDS GREATER THAN 2 PULSES
000293: 06,3630           13507                           TCF      1/GYRO                                #  YES
000294: 06,3631           15225                           TCF      ENDOFJOB                              #  NO
000295:
000296: 06,3632           56002        FBIASSUB           XCH      Q
000297: 06,3633           54131                           TS       BUF        +1
000298:
000299: 06,3634           30002                           CA       Q                                     #  NBD SCALED (GYRO PULSES)/(CS) X 2(-5)
000300: 06,3635           00006                           EXTEND
000301: 06,3636           70154                           MP       MPAC                                  #  DELTAT SCALED (CS) X 2(+19)
000302: 06,3637           50130                           INDEX    BUF
000303: 06,3640           21472                           DAS      GCOMP                                 #  HI(NBD)(DELTAT)       (GYRO PULSES) X 2(+14)
000304:
000305: 06,3641           30002                           CA       Q                                     #  NOW FRACTIONAL PART
000306: 06,3642           00006                           EXTEND
000307: 06,3643           70155                           MP       MPAC       +1
000308: 06,3644           54001                           TS       L
000309: 06,3645           35030                           CAF      ZERO
000310: 06,3646           50130                           INDEX    BUF
000311: 06,3647           21472                           DAS      GCOMP                                 #  (NBD)(DELTAT)         (GYRO PULSES) X 2(+14)
000312:
000313: 06,3650           13474                           TCF      DRFTSUB2                              #  CHECK MAGNITUDE OF COMPENSATION
000314:
000315: 06,3651           35025        NORMBIAS           CAF      TWO
000316: 06,3652           05511                           TC       NEWPHASE
000317: 06,3653           00005                           OCT      5
000318: 06,3654           00004                           INHINT
000319: 06,3655           35011                           CAF      PRIO20
000320: 06,3656           05155                           TC       FINDVAC
000321: 06,3657  E7,1472                                  EBANK=   DVCNTR
000322: 06,3657           02360 66067                     2CADR    NORMLIZE
000323:
000324: 06,3661           04655        LASTBIAS           TC       BANKCALL
000325: 06,3662           17204                           CADR     PIPUSE
000326:
000327: 06,3663           11477                           CCS      GCOMPSW
000328: 06,3664           13667                           TCF      +3
000329: 06,3665           13667                           TCF      +2
000330: 06,3666           15225                           TCF      ENDOFJOB
000331:
000332: 06,3667           37670                           CAF      PRIO31                                #  2 SECONDS SCALED (CS) X 2(+8)
000333: 06,3670           57075                           XCH      1/PIPADT
000334: 06,3671           40000                           COM
000335: 06,3672           61234                           AD       PIPTIME    +1
000336: 06,3673           13573                           TCF      NBD2
000337:
000338: 06,3674           33531        GCOMPZER           CAF      LGCOMP                                #  ROUTINE TO ZERO GCOMP BEFORE FIRST
000339: 06,3675           56003                           XCH      EBANK                                 #  CALL TO 1/PIPA
000340: 06,3676           54163                           TS       MODE
000341:
000342: 06,3677           35030                           CAF      ZERO
000343: 06,3700           55477                           TS       GCOMPSW
000344: 06,3701           55471                           TS       GCOMP
000345: 06,3702           55472                           TS       GCOMP      +1
000346: 06,3703           55473                           TS       GCOMP      +2
000347: 06,3704           55474                           TS       GCOMP      +3
000348: 06,3705           55475                           TS       GCOMP      +4
000349: 06,3706           55476                           TS       GCOMP      +5
000350:
000351: 06,3707           30163                           CA       MODE
000352: 06,3710           54003                           TS       EBANK
000353: 06,3711           14670                           TCF      SWRETURN                              #  RETURN TO CALLER

End of include-file IMU_COMPENSATION_PACKAGE.agc.  Parent file is MAIN.agc


