
Source Code


000002:                                                                                                  ## Copyright:   Public domain.
000003:                                                                                                  ## Filename:    IMU_MODE_SWITCHING_ROUTINES.agc
000004:                                                                                                  ## Purpose:     A section of an attempt to reconstruct Sundance revision 306
000005:                                                                                                  ##              as closely as possible with available information. Sundance
000006:                                                                                                  ##              306 is the source code for the Lunar Module's (LM) Apollo
000007:                                                                                                  ##              Guidance Computer (AGC) for Apollo 9. This program was created
000008:                                                                                                  ##              using the mixed-revision SundanceXXX as a starting point, and
000009:                                                                                                  ##              pulling back features from Luminary 69 believed to have been
000010:                                                                                                  ##              added based on memos, checklists, observed address changes,
000011:                                                                                                  ##              or the Sundance GSOPs.
000012:                                                                                                  ## Assembler:   yaYUL
000013:                                                                                                  ## Contact:     Ron Burkey <info@sandroid.org>.
000014:                                                                                                  ## Website:     www.ibiblio.org/apollo/index.html
000015:                                                                                                  ## Mod history: 2020-07-24 MAS  Created from SundanceXXX.
000016:                                                                                                  ##              2020-07-29 MAS  Moved ZEROICDU to bank 3.
000017:
000018:
000019:                                                                                                  ## The following routine is located in bank 2 in Sundance 292.
000020:    7722                                           BLOCK    03
000021:    6000                                           SETLOC   FFTAG5
000022:    6000                                           BANK
000023:
000024:    7722  E3,1471                                  EBANK=   COMMAND
000025:
000026:                                                                                                  #  FIXED-FIXED ROUTINES.
000027:
000028:    7722                                           COUNT*   $$/IMODE
000029:    7722           35030        ZEROICDU           CAF      ZERO                                  #  ZERO ICDU COUNTERS.
000030:    7723           54032                           TS       CDUX
000031:    7724           54033                           TS       CDUY
000032:    7725           54034                           TS       CDUZ
000033:    7726           00002                           TC       Q
000034:
000035:    7727     5016               SPSCODE            =        BIT9
000036:
000037:
000038:                                                                                                  #  IMU ZEROING ROUTINE.
000039:
000040: 11,3772                                           BANK     11
000041: 07,2000                                           SETLOC   MODESW
000042: 07,2000                                           BANK
000043:
000044: 07,2622                                           COUNT*   $$/IMODE
000045: 07,2622           00004        IMUZERO            INHINT                                         #  ROUTINE TO ZERO ICDUS.
000046: 07,2623           41037                           CS       DSPTAB     +11D                       #  DONT ZERO CDUS IF IMU IN GIMBAL LOCK AND
000047: 07,2624           75041                           MASK     BITS4&6                               #  COARSE ALIGN (GIMBAL RUNAWAY PROTECTION)
000048: 07,2625           10000                           CCS      A
000049: 07,2626           12632                           TCF      IMUZEROA
000050:
000051: 07,2627           05651                           TC       ALARM                                 #  IF SO.
000052: 07,2630           00206                           OCT      00206
000053:
000054: 07,2631           13570                           TCF      CAGETSTJ   +4                         #  IMMEDIATE FAILURE.
000055:
000056: 07,2632           03557        IMUZEROA           TC       CAGETSTQ                              #  IF IMU COMING UP, TURN-ON PROGRAM WILL
000057: 07,2633           12664                           TCF      MODEEXIT                              #  DO ALL THE WORK.
000058:
000059: 07,2634           41305                           CS       IMODES33                              #  DISABLE DAP AUTO AND HOLD MODES
000060: 07,2635           75043                           MASK     SUPER011                              #      BIT5 FOR GROUND
000061: 07,2636           27305                           ADS      IMODES33
000062:
000063: 07,2637           41304                           CS       IMODES30                              #  INHIBIT ICDUFAIL AND IMUFAIL (IN CASE WE
000064: 07,2640           75746                           MASK     BITS3&4                               #  JUST CAME OUT OF COARSE ALIGN).
000065: 07,2641           27304                           ADS      IMODES30
000066:
000067: 07,2642           45041                           CS       BITS4&6                               #  SEND ZERO ENCODE WITH COARSE AND ERROR
000068: 07,2643           00006                           EXTEND                                         #  COUNTER DISABLED.
000069: 07,2644           03012                           WAND     CHAN12
000070:
000071: 07,2645           03177                           TC       NOATTOFF                              #  TURN OFF NO ATT LAMP.
000072:
000073: 07,2646           35022                           CAF      BIT5
000074: 07,2647           00006                           EXTEND
000075: 07,2650           05012                           WOR      CHAN12
000076:
000077: 07,2651           07722                           TC       ZEROICDU
000078: 07,2652           35021                           CAF      BIT6                                  #  WAIT 320 MS TO GIVE AGS ADEQUATE TIME TO
000079: 07,2653           05252                           TC       WAITLIST                              #  RECEIVE ITS PULSE TRAIN.
000080: 07,2654  E3,1474                                  EBANK=   CDUIND
000081: 07,2654           02666 16103                     2CADR    IMUZERO2
000082:
000083: 07,2656           41304                           CS       IMODES30                              #  SEE IF IMU OPERATING AND ALARM IF NOT.
000084: 07,2657           75016                           MASK     BIT9
000085: 07,2660           10000                           CCS      A
000086: 07,2661           12664                           TCF      MODEEXIT
000087: 07,2662           05651                           TC       ALARM
000088: 07,2663           00210                           OCT      210
000089:
000090: 07,2664           00003        MODEEXIT           RELINT                                         #  GENERAL MODE-SWITCHING EXIT.
000091: 07,2665           14670                           TCF      SWRETURN
000092:
000093: 07,2666           03557        IMUZERO2           TC       CAGETSTQ                              #  POSSIBLY SWITCH TO TURN-ON PROGRAM.
000094: 07,2667           15331                           TCF      TASKOVER
000095: 07,2670           07722                           TC       ZEROICDU                              #  ZERO CDUX, CDUY, CDUZ
000096:
000097: 07,2671           45022                           CS       BIT5                                  #  REMOVE ZERO DISCRETE.
000098: 07,2672           00006                           EXTEND
000099: 07,2673           03012                           WAND     CHAN12
000100:
000101: 07,2674           35014                           CAF      BIT11                                 #  WAIT 10 SECS FOR CTRS TO FIND GIMBALS
000102: 07,2675           05274                           TC       VARDELAY
000103:
000104: 07,2676           03557        IMUZERO3           TC       CAGETSTQ
000105: 07,2677           15331                           TCF      TASKOVER
000106:
000107: 07,2700           45746                           CS       BITS3&4                               #  REMOVE IMUFAIL AND ICDUFAIL INHIBIT.
000108: 07,2701           71304                           MASK     IMODES30
000109: 07,2702           55304                           TS       IMODES30
000110:
000111: 07,2703           45043                           CS       SUPER011                              #  ENABLE DAP AUTO AND HOLD MODES
000112: 07,2704           71305                           MASK     IMODES33                              #      BIT5 FOR GROUND
000113: 07,2705           55305                           TS       IMODES33
000114:
000115: 07,2706           04737                           TC       IBNKCALL                              #  SET ISS WARNING IF EITHER OF ABOVE ARE
000116: 07,2707           14705                           CADR     SETISSW                               #  PRESENT.
000117:
000118: 07,2710           13542                           TCF      ENDIMU
000119:
000120:                                                                                                  #  IMU COARSE ALIGN MODE.
000121:
000122: 07,2711           00004        IMUCOARS           INHINT
000123: 07,2712           03564                           TC       CAGETSTJ
000124: 07,2713           03055                           TC       SETCOARS
000125:
000126: 07,2714           36216                           CAF      SIX
000127: 07,2715           05252                           TC       WAITLIST
000128: 07,2716  E3,1474                                  EBANK=   CDUIND
000129: 07,2716           02721 16103                     2CADR    COARS
000130:
000131: 07,2720           12664                           TCF      MODEEXIT
000132:
000133: 07,2721           03552        COARS              TC       CAGETEST
000134: 07,2722           35021                           CAF      BIT6                                  #  ENABLE ALL THREE ISS CDU ERROR COUNTERS
000135: 07,2723           00006                           EXTEND
000136: 07,2724           05012                           WOR      CHAN12
000137:
000138: 07,2725           35025                           CAF      TWO                                   #  SET CDU INDICATOR
000139: 07,2726           55474        COARS1             TS       CDUIND
000140:
000141: 07,2727           51474                           INDEX    CDUIND                                #  COMPUTE THETAD - THETAA IN 1:S
000142: 07,2730           31206                           CA       THETAD                                #    COMPLEMENT FORM
000143: 07,2731           00006                           EXTEND
000144: 07,2732           51474                           INDEX    CDUIND
000145: 07,2733           20032                           MSU      CDUX
000146: 07,2734           00006                           EXTEND
000147: 07,2735           75012                           MP       BIT13                                 #  SHIFT RIGHT 2
000148: 07,2736           56001                           XCH      L                                     #  ROUND
000149: 07,2737           60000                           DOUBLE
000150: 07,2740           54061                           TS       ITEMP1
000151: 07,2741           12743                           TCF      +2
000152: 07,2742           26001                           ADS      L
000153:
000154: 07,2743           51474                           INDEX    CDUIND                                #  DIFFERENCE TO BE COMPUTED
000155: 07,2744           23471                           LXCH     COMMAND
000156: 07,2745           11474                           CCS      CDUIND
000157: 07,2746           02726                           TC       COARS1
000158:
000159: 07,2747           35025                           CAF      TWO                                   #  MINIMUM OF 4 MS WAIT
000160: 07,2750           05274                           TC       VARDELAY
000161:
000162: 07,2751           03552        COARS2             TC       CAGETEST                              #  DONT CONTINUE IF CAGED.
000163: 07,2752           54061                           TS       ITEMP1                                #  SETS TO +0.
000164: 07,2753           35025                           CAF      TWO                                   #  SET CDU INDICATOR
000165: 07,2754           55474                 +3        TS       CDUIND
000166:
000167: 07,2755           51474                           INDEX    CDUIND
000168: 07,2756           11471                           CCS      COMMAND                               #  NUMBER OF PULSES REQUIRED
000169: 07,2757           02763                           TC       COMPOS                                #  GREATER THAN MAX ALLOWED
000170: 07,2760           02772                           TC       NEXTCDU    +1
000171: 07,2761           03030                           TC       COMNEG
000172: 07,2762           02772                           TC       NEXTCDU    +1
000173:
000174: 07,2763           63653        COMPOS             AD       -COMMAX                               #  COMMAX = MAX NUMBER OF PULSES ALLOWED
000175: 07,2764           00006                           EXTEND                                         #    MINUS ONE
000176: 07,2765           63040                           BZMF     COMZERO
000177: 07,2766           51474                           INDEX    CDUIND
000178: 07,2767           55471                           TS       COMMAND                               #  REDUCE COMMAND BY MAX NUMBER OF PULSES
000179: 07,2770           43654                           CS       -COMMAX-                              #    ALLOWED
000180:
000181: 07,2771           24061        NEXTCDU            INCR     ITEMP1
000182: 07,2772           65027                           AD       NEG0
000183: 07,2773           51474                           INDEX    CDUIND
000184: 07,2774           54050                           TS       CDUXCMD                               #  SET UP COMMAND REGISTER.
000185:
000186: 07,2775           11474                           CCS      CDUIND
000187: 07,2776           02754                           TC       COARS2     +3
000188:
000189: 07,2777           10061                           CCS      ITEMP1                                #  SEE IF ANY PULSES TO GO OUT.
000190: 07,3000           13044                           TCF      SENDPULS
000191:
000192: 07,3001           05271                           TC       FIXDELAY                              #  WAIT FOR GIMBALS TO SETTLE.
000193: 07,3002           00226                           DEC      150        B-14
000194:
000195: 07,3003           35025                           CAF      TWO                                   #  AT END OF COMMAND, CHECK TO SEE THAT
000196: 07,3004           54061        CHKCORS            TS       ITEMP1                                #  GIMBALS ARE WITHIN 2 DEGREES OF THETAD.
000197: 07,3005           50000                           INDEX    A
000198: 07,3006           30032                           CA       CDUX
000199: 07,3007           00006                           EXTEND
000200: 07,3010           50061                           INDEX    ITEMP1
000201: 07,3011           21206                           MSU      THETAD
000202: 07,3012           10000                           CCS      A
000203: 07,3013           13021                           TCF      COARSERR
000204: 07,3014           13016                           TCF      CORSCHK2
000205: 07,3015           13021                           TCF      COARSERR
000206:
000207: 07,3016           10061        CORSCHK2           CCS      ITEMP1
000208: 07,3017           13004                           TCF      CHKCORS
000209: 07,3020           13542                           TCF      ENDIMU                                #  END OF COARSE ALIGNMENT.
000210:
000211: 07,3021           63027        COARSERR           AD       COARSTOL                              #  2 DEGREES.
000212: 07,3022           00006                           EXTEND
000213: 07,3023           63016                           BZMF     CORSCHK2
000214:
000215: 07,3024           05651                           TC       ALARM                                 #  COARSE ALIGN ERROR.
000216: 07,3025           00211                           OCT      211
000217:
000218: 07,3026           13550                           TCF      IMUBAD
000219:
000220: 07,3027           77511        COARSTOL           DEC      -.01111                               #  2 DEGREES SCALED AT HALF-REVOLUTIONS
000221:
000222: 07,3030           63653        COMNEG             AD       -COMMAX
000223: 07,3031           00006                           EXTEND
000224: 07,3032           63040                           BZMF     COMZERO
000225: 07,3033           40000                           COM
000226: 07,3034           51474                           INDEX    CDUIND
000227: 07,3035           55471                           TS       COMMAND
000228: 07,3036           33654                           CA       -COMMAX-
000229: 07,3037           02771                           TC       NEXTCDU
000230:
000231: 07,3040           35030        COMZERO            CAF      ZERO
000232: 07,3041           51474                           INDEX    CDUIND
000233: 07,3042           57471                           XCH      COMMAND
000234: 07,3043           02771                           TC       NEXTCDU
000235:
000236: 07,3044           37711        SENDPULS           CAF      13,14,15
000237: 07,3045           00006                           EXTEND
000238: 07,3046           05014                           WOR      CHAN14
000239: 07,3047           33655                           CAF      600MS
000240: 07,3050           12750                           TCF      COARS2     -1                         #  THEN TO VARDELAY
000241:
000242: 07,3051           35021        CA+ECE             CAF      BIT6                                  #  ENABLE ALL THREE ISS CDU ERROR COUNTERS
000243: 07,3052           00006                           EXTEND
000244: 07,3053           05012                           WOR      CHAN12
000245: 07,3054           05331                           TC       TASKOVER
000246:
000247: 07,3055           35023        SETCOARS           CAF      BIT4                                  #  BYPASS IF ALREADY IN COARSE ALIGN
000248: 07,3056           00006                           EXTEND
000249: 07,3057           02012                           RAND     CHAN12
000250: 07,3060           10000                           CCS      A
000251: 07,3061           00002                           TC       Q
000252:
000253: 07,3062           45021                           CS       BIT6                                  #  CLEAR ISS ERROR COUNTERS
000254: 07,3063           00006                           EXTEND
000255: 07,3064           03012                           WAND     CHAN12
000256:
000257: 07,3065           45015                           CS       BIT10                                 #  KNOCK DOWN GYRO ACTIVITY
000258: 07,3066           00006                           EXTEND
000259: 07,3067           03014                           WAND     CHAN14
000260: 07,3070           45030                           CS       ZERO
000261: 07,3071           54047                           TS       GYROCMD
000262:
000263: 07,3072           35023                           CAF      BIT4                                  #  PUT ISS IN COARSE ALIGN
000264: 07,3073           00006                           EXTEND
000265: 07,3074           05012                           WOR      CHAN12
000266:
000267: 07,3075           41037                           CS       DSPTAB     +11D                       #  TURN ON NO ATT LAMP
000268: 07,3076           73120                           MASK     OCT40010
000269: 07,3077           27037                           ADS      DSPTAB     +11D
000270:
000271: 07,3100           41305                           CS       IMODES33                              #  DISABLE DAP AUTO AND HOLD MODES
000272: 07,3101           75021                           MASK     BIT6
000273: 07,3102           27305                           ADS      IMODES33
000274:
000275: 07,3103           41304                           CS       IMODES30                              #  DISABLE IMUFAIL
000276: 07,3104           75023                           MASK     BIT4
000277: 07,3105           27304                           ADS      IMODES30
000278:
000279: 07,3106           45022        RNDREFDR           CS       TRACKBIT                              #  CLEAR TRACK FLAG
000280: 07,3107           70075                           MASK     FLAGWRD1
000281: 07,3110           54075                           TS       FLAGWRD1
000282:
000283: 07,3111           45010                           CS       DRFTBIT                               #  CLEAR DRIFT FLAG
000284: 07,3112           70076                           MASK     FLAGWRD2
000285: 07,3113           54076                           TS       FLAGWRD2
000286:
000287: 07,3114           45012                           CS       REFSMBIT                              #  CLEAR REFSMMAT FLAG
000288: 07,3115           70077                           MASK     FLAGWRD3
000289: 07,3116           54077                           TS       FLAGWRD3
000290:
000291: 07,3117           00002                           TC       Q
000292:
000293: 07,3120           40010        OCT40010           OCT      40010
000294:
000295:                                                                                                  #  IMU FINE ALIGN MODE SWITCH.
000296:
000297: 07,3121           00004        IMUFINE            INHINT
000298: 07,3122           03564                           TC       CAGETSTJ                              #  SEE IF IMU BEING CAGED.
000299:
000300: 07,3123           43652                           CS       BITS4-5                               #  RESET ZERO AND COARSE
000301: 07,3124           00006                           EXTEND
000302: 07,3125           03012                           WAND     CHAN12
000303:
000304: 07,3126           45021                           CS       BIT6                                  #  INSURE DAP AUTO AND HOLD MODES ENABLED
000305: 07,3127           71305                           MASK     IMODES33
000306: 07,3130           55305                           TS       IMODES33
000307:
000308: 07,3131           03177                           TC       NOATTOFF
000309:
000310: 07,3132           35015                           CAF      BIT10                                 #  IMU FAIL WAS INHIBITED DURING THE
000311: 07,3133           05252                           TC       WAITLIST                              #  PRESUMABLY PRECEDING COARSE ALIGN. LEAVE
000312: 07,3134  E3,1474                                  EBANK=   CDUIND
000313: 07,3134           03145 16103                     2CADR    IFAILOK                               #  IT ON FOR THE FIRST 5 SECS OF FINE ALIGN
000314:
000315: 07,3136           35050                           CAF      2SECS
000316: 07,3137           05252                           TC       WAITLIST
000317: 07,3140  E3,1474                                  EBANK=   CDUIND
000318: 07,3140           03143 16103                     2CADR    IMUFINED
000319:
000320: 07,3142           12664                           TCF      MODEEXIT
000321:
000322: 07,3143           03552        IMUFINED           TC       CAGETEST                              #  SEE THAT NO ONE HAS CAGED THE IMU.
000323: 07,3144           13542                           TCF      ENDIMU
000324:
000325: 07,3145           03557        IFAILOK            TC       CAGETSTQ                              #  ENABLE IMU FIAL UNLESS IMU BEING CAGED.
000326: 07,3146           15331                           TCF      TASKOVER                              #  IT IS.
000327:
000328: 07,3147           35023                           CAF      BIT4                                  #  DONT RESET IMU FAIL INHIBIT IF SOMEONE
000329: 07,3150           00006                           EXTEND                                         #  HAS GONE INTO COARSE ALIGN.
000330: 07,3151           02012                           RAND     CHAN12
000331: 07,3152           10000                           CCS      A
000332: 07,3153           15331                           TCF      TASKOVER
000333:
000334: 07,3154           41304                           CS       IMODES30                              #  RESET IMUFAIL.
000335: 07,3155           75012                           MASK     BIT13
000336: 07,3156           27304                           ADS      IMODES30
000337: 07,3157           45023                           CS       BIT4
000338: 07,3160           71304        PFAILOK2           MASK     IMODES30
000339: 07,3161           55304                           TS       IMODES30
000340: 07,3162           04737                           TC       IBNKCALL                              #  THE ISS WARNING LIGHT MAY COME ON NOW
000341: 07,3163           14705                           CADR     SETISSW                               #  THAT THE INHIBIT HAS BEEN REMOVED.
000342: 07,3164           15331                           TCF      TASKOVER
000343:
000344: 07,3165           03557        PFAILOK            TC       CAGETSTQ                              #  ENABLE PIP FAIL PROG ALARM.
000345: 07,3166           15331                           TCF      TASKOVER
000346:
000347: 07,3167           41304                           CS       IMODES30                              #  RESET IMU AND PIPA FAIL BITS.
000348: 07,3170           75015                           MASK     BIT10
000349: 07,3171           27304                           ADS      IMODES30
000350:
000351: 07,3172           41305                           CS       IMODES33
000352: 07,3173           75012                           MASK     BIT13
000353: 07,3174           27305                           ADS      IMODES33
000354:
000355: 07,3175           45022                           CS       BIT5
000356: 07,3176           13160                           TCF      PFAILOK2
000357:
000358: 07,3177           43120        NOATTOFF           CS       OCT40010                              #  SUBROUTINE TO TURN OFF NO ATT LAMP.
000359: 07,3200           71037                           MASK     DSPTAB     +11D
000360: 07,3201           65010                           AD       BIT15
000361: 07,3202           55037                           TS       DSPTAB     +11D
000362: 07,3203           00002                           TC       Q
000363:
000364:                                                                                                  #  ROUITNES TO INITIATE AND TERMINATE PROGRAM USE OF THE PIPAS.  NO IMUSTALL REQUIRED IN EITHER CASE.
000365:
000366: 07,3204           03557        PIPUSE             TC       CAGETSTQ                              #  DONT ENABLE PIPA FAIL IF IMU BEING CAGED
000367: 07,3205           14670                           TCF      SWRETURN
000368:
000369: 07,3206           00004                           INHINT
000370: 07,3207           35030                           CAF      ZERO                                  #  ZERO COUNTERS.
000371: 07,3210           54037                           TS       PIPAX
000372: 07,3211           54040                           TS       PIPAY
000373: 07,3212           54041                           TS       PIPAZ
000374:
000375: 07,3213           45026                           CS       BIT1                                  #  IF PIPA FAILS FROM NOW ON (UNTIL
000376: 07,3214           71304                           MASK     IMODES30                              #  PIPFREE), LIGHT ISS WARNING.
000377: 07,3215           55304                           TS       IMODES30
000378:
000379: 07,3216           04737        PIPFREE2           TC       IBNKCALL                              #  ISS WARNING MIGHT COME ON NOW.
000380: 07,3217           14705                           CADR     SETISSW                               #  (OR GO OFF ON PIPFREE).
000381:
000382: 07,3220           12664                           TCF      MODEEXIT
000383:
000384: 07,3221           00004        PIPFREE            INHINT                                         #  PROGRAM DONE WITH PIPAS. DONT LIGHT
000385: 07,3222           41304                           CS       IMODES30                              #  ISS WARNING.
000386: 07,3223           75026                           MASK     BIT1
000387: 07,3224           27304                           ADS      IMODES30
000388:
000389: 07,3225           75015                           MASK     BIT10                                 #  IF PIP FAIL ON, DO PROG ALSRM AND RESET
000390: 07,3226           10000                           CCS      A                                     #  ISS WARNING.
000391: 07,3227           12664                           TCF      MODEEXIT
000392:
000393: 07,3230           05651                           TC       ALARM
000394: 07,3231           00212                           OCT      212
000395:
000396: 07,3232           00004                           INHINT
000397:
000398: 07,3233           13216                           TCF      PIPFREE2
000399:
000400:                                                                                                  #           THE FOLLOWING ROUTINE TORQUES THE IRIGS ACCORDING TO DOUBLE PRECISION INPUTS IN THE SIX REGISTERS
000401:                                                                                                  #  BEGINNING AT THE ECADR ARRIVING IN A.  THE MINIMUM SIZE OF ANY PULSE TRAIN IS 16 PULSES (.25 CDU COUNTS). THE
000402:                                                                                                  #  UNSENT PORTION OF THE COMMAND IS LEFT INTACT IN THE INPUT COMMAND REGISTERS.
000403:
000404: 07,3234  E3,1400                                  EBANK=   1400                                  #  VARIABLE, ACTUALLY.
000405:
000406: 07,3234           54161        IMUPULSE           TS       MPAC       +5                         #  SAVE ARRIVING ECADR.
000407: 07,3235           03564                           TC       CAGETSTJ                              #  DONT PROCEED IF IMU BEING CAGED.
000408:
000409: 07,3236           11321                           CCS      LGYRO                                 #  SEE IF GYROS BUSY.
000410: 07,3237           03300                           TC       GYROBUSY                              #  SLEEP.
000411:
000412: 07,3240           54156                           TS       MPAC       +2
000413: 07,3241           35021                           CAF      BIT6                                  #  ENABLE THE POWER SUPPLY.
000414: 07,3242           00006                           EXTEND
000415: 07,3243           05014                           WOR      CHAN14
000416:
000417: 07,3244           35024                           CAF      FOUR
000418: 07,3245           05252        GWAKE2             TC       WAITLIST                              #  (IF A JOB WAS PUT TO SLEEP, THE POWER
000419: 07,3246  E3,1474                                  EBANK=   CDUIND                                #  SUPPLY IS LEFT ON BY THE WAKING JOB).
000420: 07,3246           03316 16103                     2CADR    STRTGYRO
000421:
000422: 07,3250           30161                           CA       MPAC       +5                         #  SET UP EBANK, SAVING CALLER'S EBANK FOR
000423: 07,3251           56003                           XCH      EBANK                                 #  RESTORATION ON RETURN.
000424: 07,3252           56161                           XCH      MPAC       +5
000425: 07,3253           55321                           TS       LGYRO                                 #  RESERVES GYROS.
000426: 07,3254           74371                           MASK     LOW8
000427: 07,3255           54061                           TS       ITEMP1
000428:
000429: 07,3256           35025                           CAF      TWO                                   #  FORCE SIGN AGREEMENT ON INPUTS.
000430: 07,3257           54157        GYROAGRE           TS       MPAC       +3
000431: 07,3260           60000                           DOUBLE
000432: 07,3261           60061                           AD       ITEMP1
000433: 07,3262           54160                           TS       MPAC       +4
000434: 07,3263           00006                           EXTEND
000435: 07,3264           50000                           INDEX    A
000436: 07,3265           31401                           DCA      1400
000437: 07,3266           52155                           DXCH     MPAC
000438: 07,3267           07231                           TC       TPAGREE
000439: 07,3270           52155                           DXCH     MPAC
000440: 07,3271           50160                           INDEX    MPAC       +4
000441: 07,3272           53401                           DXCH     1400
000442:
000443: 07,3273           10157                           CCS      MPAC       +3
000444: 07,3274           13257                           TCF      GYROAGRE
000445:
000446: 07,3275           30161                           CA       MPAC       +5                         #  RESTORE CALLER'S EBANK.
000447: 07,3276           54003                           TS       EBANK
000448: 07,3277           12664                           TCF      MODEEXIT
000449:
000450:                                                                                                  #  ROUTINES TO ALLOW TORQUING BY ONLY ONE JOB AT A TIME.
000451:
000452: 07,3300           00006        GYROBUSY           EXTEND                                         #  SAVE RETURN 2FCADR.
000453: 07,3301           30134                           DCA      BUF2
000454: 07,3302           52155                           DXCH     MPAC
000455: 07,3303           33315        REGSLEEP           CAF      LGWAKE
000456: 07,3304           15203                           TCF      JOBSLEEP
000457:
000458: 07,3305           11321        GWAKE              CCS      LGYRO                                 #  WHEN AWAKENED, SEE IF GYROS STILL BUSY.
000459: 07,3306           13303                           TCF      REGSLEEP                              #  IF SO, SLEEP SOME MORE.
000460:
000461: 07,3307           54156                           TS       MPAC       +2
000462: 07,3310           00006                           EXTEND
000463: 07,3311           30155                           DCA      MPAC
000464: 07,3312           52134                           DXCH     BUF2                                  #  RESTORE SWRETURN INFO.
000465: 07,3313           35026                           CAF      ONE
000466: 07,3314           13245                           TCF      GWAKE2
000467:
000468: 07,3315           17305        LGWAKE             CADR     GWAKE
000469:
000470:                                                                                                  #  GYRO-TORQUING WAITLIST TASKS.
000471:
000472: 07,3316           43537        STRTGYRO           CS       GDESELCT                              #  DE-SELECT LAST GYRO.
000473: 07,3317           00006                           EXTEND
000474: 07,3320           03014                           WAND     CHAN14
000475:
000476: 07,3321           03552                           TC       CAGETEST
000477:
000478: 07,3322           31321        STRTGYR2           CA       LGYRO                                 #  JUMP ON PHASE COUNTER IN BITS 13-14.
000479: 07,3323           00006                           EXTEND
000480: 07,3324           75023                           MP       BIT4
000481: 07,3325           50000                           INDEX    A
000482: 07,3326           13327                           TCF      +1
000483: 07,3327           03344                           TC       GSELECT                               #  =0.  DO Y GYRO.
000484: 07,3330           00202                           OCT      00202
000485:
000486: 07,3331           03344                           TC       GSELECT                               #  =1.  DO Z GYRO.
000487: 07,3332           00302                           OCT      00302
000488:
000489: 07,3333           03342                           TC       GSELECT    -2                         #  =2.  DO X GYRO.
000490: 07,3334           00100                           OCT      00100
000491:
000492: 07,3335           35030                           CAF      ZERO                                  #  =3.  DONE
000493: 07,3336           55321                           TS       LGYRO
000494: 07,3337           33315                           CAF      LGWAKE                                #  WAKE A POSSIBLE SLEEPING JOB.
000495: 07,3340           05207                           TC       JOBWAKE
000496:
000497: 07,3341           13143        NORESET            TCF      IMUFINED                              #  DO NOT RESET POWER SUPPLY
000498: 07,3342           45024                 -2        CS       FOUR                                  #  SPECIAL ENTRY TO REGRESS LGYRO FOR X.
000499: 07,3343           27321                           ADS      LGYRO
000500:
000501: 07,3344           50002        GSELECT            INDEX    Q                                     #  SELECT GYRO.
000502: 07,3345           30000                           CAF      0                                     #  PACKED WORD CONTAINS GYRO SELECT BITS
000503: 07,3346           54064                           TS       ITEMP4                                #  AND INCREMENT TO LGYRO.
000504: 07,3347           75032                           MASK     SEVEN
000505: 07,3350           65012                           AD       BIT13
000506: 07,3351           27321                           ADS      LGYRO
000507: 07,3352           54003                           TS       EBANK
000508: 07,3353           74371                           MASK     LOW8
000509: 07,3354           54061                           TS       ITEMP1
000510:
000511: 07,3355           45032                           CS       SEVEN
000512: 07,3356           70064                           MASK     ITEMP4
000513: 07,3357           54064                           TS       ITEMP4
000514:
000515: 07,3360           00006                           EXTEND                                         #  MOVE DP COMMAND TO RUPTREGS FOR TESTING.
000516: 07,3361           50061                           INDEX    ITEMP1
000517: 07,3362           31401                           DCA      1400
000518: 07,3363           52071                           DXCH     RUPTREG1
000519:
000520: 07,3364           10070                           CCS      RUPTREG1
000521: 07,3365           13400                           TCF      MAJ+
000522: 07,3366           13370                           TCF      +2
000523: 07,3367           13520                           TCF      MAJ-
000524:
000525: 07,3370           10071                           CCS      RUPTREG2
000526: 07,3371           13375                           TCF      MIN+
000527: 07,3372           13322                           TCF      STRTGYR2
000528: 07,3373           13515                           TCF      MIN-
000529: 07,3374           13322                           TCF      STRTGYR2
000530:
000531: 07,3375           63431        MIN+               AD       -GYROMIN                              #  SMALL POSITIVE COMMAND. SEE IF AT LEAST
000532: 07,3376           00006                           EXTEND                                         #  16 GYRO PULSES.
000533: 07,3377           63322                           BZMF     STRTGYR2
000534:
000535: 07,3400           00006        MAJ+               EXTEND                                         #  DEFINITE POSITIVE OUTPUT.
000536: 07,3401           33541                           DCA      GYROFRAC
000537: 07,3402           20071                           DAS      RUPTREG1
000538:
000539: 07,3403           30064                           CA       ITEMP4                                #  SELECT POSITIVE TORQUING FOR THIS GYRO.
000540: 07,3404           00006                           EXTEND
000541: 07,3405           05014                           WOR      CHAN14
000542:
000543: 07,3406           36050                           CAF      LOW7                                  #  LEAVE NUMBER OF POSSIBLE 8192 AUGMENTS
000544: 07,3407           70071                           MASK     RUPTREG2                              #  TO INITIAL COMMAND IN MAJOR PART OF LONG
000545: 07,3410           56071                           XCH      RUPTREG2                              #  TERM STORAGE AND TRUNCATED FRACTION
000546: 07,3411           00006        GMERGE             EXTEND                                         #  IN MINOR PART. THE MAJOR PART WILL BE
000547: 07,3412           75017                           MP       BIT8                                  #  COUNTED DOWN TO ZERO IN THE COURSE OF
000548: 07,3413           54062                           TS       ITEMP2                                #  PUTTING OUT THE ENTIRE COMMAND.
000549: 07,3414           30070                           CA       RUPTREG1
000550: 07,3415           00006                           EXTEND
000551: 07,3416           75016                           MP       BIT9
000552: 07,3417           54070                           TS       RUPTREG1
000553: 07,3420           30001                           CA       L
000554: 07,3421           00006                           EXTEND
000555: 07,3422           75011                           MP       BIT14
000556: 07,3423           26062                           ADS      ITEMP2                                #  INITIAL COMMAND.
000557:
000558: 07,3424           00006                           EXTEND                                         #  SEE IF MORE THAN ONE PULSE TRAIN NEEDED
000559: 07,3425           30071                           DCA      RUPTREG1                              #  (MORE THAN 16383 PULSES).
000560: 07,3426           67721                           AD       MINUS1
000561: 07,3427           10000                           CCS      A
000562: 07,3430           13461                           TCF      LONGGYRO
000563: 07,3431           77601        -GYROMIN           OCT      -176                                  #  MAY BE ADJUSTED TO SPECIFY MINIMUM CMD
000564: 07,3432           13436                           TCF      +4
000565:
000566: 07,3433           35011                           CAF      BIT14
000567: 07,3434           26062                           ADS      ITEMP2
000568: 07,3435           35030                           CAF      ZERO
000569:
000570: 07,3436           50061                 +4        INDEX    ITEMP1
000571: 07,3437           53401                           DXCH     1400
000572: 07,3440           30062                           CA       ITEMP2                                #  ENTIRE COMMAND.
000573: 07,3441           54047        LASTSEG            TS       GYROCMD
000574: 07,3442           00006                           EXTEND
000575: 07,3443           75015                           MP       BIT10                                 #  WAITLIST DT
000576: 07,3444           66221                           AD       THREE                                 #  TRUNCATION AND PHASE UNCERTAINTIES.
000577: 07,3445           05252                           TC       WAITLIST
000578: 07,3446  E3,1474                                  EBANK=   CDUIND
000579: 07,3446           03316 16103                     2CADR    STRTGYRO
000580:
000581: 07,3450           35023        GYROEXIT           CAF      BIT4
000582: 07,3451           00006                           EXTEND
000583: 07,3452           02012                           RAND     CHAN12
000584: 07,3453           10000                           CCS      A
000585: 07,3454           13550                           TCF      IMUBAD
000586:
000587: 07,3455           35015                           CAF      BIT10
000588: 07,3456           00006                           EXTEND
000589: 07,3457           05014                           WOR      CHAN14
000590: 07,3460           15331                           TCF      TASKOVER
000591:
000592: 07,3461           50061        LONGGYRO           INDEX    ITEMP1
000593: 07,3462           53401                           DXCH     1400                                  #  INITIAL COMMAND OUT PLUS N AUGMENTS OF
000594: 07,3463           35011                           CAF      BIT14                                 #  8192. INITIAL COMMAND IS AT LEAST 8192.
000595: 07,3464           60062                           AD       ITEMP2
000596: 07,3465           54047                           TS       GYROCMD
000597:
000598: 07,3466           00006        AUG3               EXTEND                                         #  GET WAITLIST DT TO TIME WHEN TRAIN IS
000599: 07,3467           75015                           MP       BIT10                                 #  ALMOST OUT.
000600: 07,3470           67717                           AD       NEG3
000601: 07,3471           05252                           TC       WAITLIST
000602: 07,3472  E3,1474                                  EBANK=   CDUIND
000603: 07,3472           03475 16103                     2CADR    8192AUG
000604:
000605: 07,3474           13450                           TCF      GYROEXIT
000606:
000607: 07,3475           03552        8192AUG            TC       CAGETEST
000608:
000609: 07,3476           31321                           CA       LGYRO                                 #  ADD 8192 PULSES TO GYROCMD
000610: 07,3477           54003                           TS       EBANK
000611: 07,3500           74371                           MASK     LOW8
000612: 07,3501           54061                           TS       ITEMP1
000613:
000614: 07,3502           50061                           INDEX    ITEMP1                                #  SEE IF THIS IS THE LAST AUG.
000615: 07,3503           11400                           CCS      1400
000616: 07,3504           13510                           TCF      AUG2                                  #  MORE TO COME.
000617:
000618: 07,3505           35011                           CAF      BIT14
000619: 07,3506           26047                           ADS      GYROCMD
000620: 07,3507           13442                           TCF      LASTSEG    +1
000621:
000622: 07,3510           50061        AUG2               INDEX    ITEMP1
000623: 07,3511           55400                           TS       1400
000624: 07,3512           35011                           CAF      BIT14
000625: 07,3513           26047                           ADS      GYROCMD
000626: 07,3514           13466                           TCF      AUG3                                  #  COMPUTE DT.
000627:
000628: 07,3515           63431        MIN-               AD       -GYROMIN                              #  POSSIBLE NEGATIVE OUTPUT.
000629: 07,3516           00006                           EXTEND
000630: 07,3517           63322                           BZMF     STRTGYR2
000631:
000632: 07,3520           00006        MAJ-               EXTEND                                         #  DEFINITE NEGATIVE OUTPUT.
000633: 07,3521           43541                           DCS      GYROFRAC
000634: 07,3522           20071                           DAS      RUPTREG1
000635:
000636: 07,3523           30064                           CA       ITEMP4                                #  SELECT NEGATIVE TORQUING FOR THIS GYRO.
000637: 07,3524           65016                           AD       BIT9
000638: 07,3525           00006                           EXTEND
000639: 07,3526           05014                           WOR      CHAN14
000640:
000641: 07,3527           40070                           CS       RUPTREG1                              #  SET UP RUPTREGS TO FALL INTO GMERGE.
000642: 07,3530           54070                           TS       RUPTREG1                              #  ALL NUMBERS PUT INTO GYROCMD ARE
000643: 07,3531           40071                           CS       RUPTREG2                              #  POSITIVE - BIT9 OF CHAN 14 DETERMINES
000644: 07,3532           76050                           MASK     LOW7                                  #  THE SIGN OF THE COMMAND.
000645: 07,3533           40000                           COM
000646: 07,3534           56071                           XCH      RUPTREG2
000647: 07,3535           40000                           COM
000648: 07,3536           13411                           TCF      GMERGE
000649:
000650: 07,3537           01700        GDESELCT           OCT      1700                                  #  TURN OFF SELECT AND ACTIVITY BITS.
000651:
000652: 07,3540           00000 00034  GYROFRAC           2DEC     .215       B-21
000653:
000654:                                                                                                  #  IMU MODE SWITCHING ROUTINES COME HERE WHEN ACTION COMPLETE.
000655:
000656: 07,3542           00006        ENDIMU             EXTEND                                         #  MODE IS BAD IF CAGE HAS OCCURED OR IF
000657: 07,3543           00011                           READ     DSALMOUT                              #  ISS WARNING IS ON.
000658: 07,3544           75026                           MASK     BIT1
000659: 07,3545           10000                           CCS      A
000660: 07,3546           13550                           TCF      IMUBAD
000661:
000662: 07,3547           13576        IMUGOOD            TCF      GOODEND                               #  WITH C(A) = 0.
000663:
000664: 07,3550           35030        IMUBAD             CAF      ZERO
000665: 07,3551           13573                           TCF      BADEND
000666:
000667: 07,3552           35021        CAGETEST           CAF      BIT6                                  #  SUBROUTINE TO TERMINATE IMU MODE
000668: 07,3553           71304                           MASK     IMODES30                              #  SWITCH IF IMU HAS BEEN CAGED.
000669: 07,3554           10000                           CCS      A
000670: 07,3555           13550                           TCF      IMUBAD                                #  DIRECTLY.
000671: 07,3556           00002                           TC       Q                                     #  WITH C(A) = +0.
000672:
000673: 07,3557           41304        CAGETSTQ           CS       IMODES30                              #  SKIP IF IMU NOT BEING CAGED.
000674: 07,3560           75021                           MASK     BIT6
000675: 07,3561           10000                           CCS      A
000676: 07,3562           24002                           INCR     Q
000677: 07,3563           00002                           TC       Q
000678:
000679: 07,3564           41304        CAGETSTJ           CS       IMODES30                              #  IF DURING MODE SWITCH INITIALIZATION
000680: 07,3565           75021                           MASK     BIT6                                  #  IT IS FOUND THAT THE IMU IS BEING CAGED,
000681: 07,3566           10000                           CCS      A                                     #  SET IMUCADR TO -0 TO INDICATE OPERATION
000682: 07,3567           00002                           TC       Q                                     #  COMPLETE BUT FAILED. RETURN IMMEDIATELY
000683:
000684: 07,3570           45030                           CS       ZERO                                  #  TO SWRETURN.
000685: 07,3571           55306                           TS       IMUCADR
000686: 07,3572           12664                           TCF      MODEEXIT
000687:
000688:                                                                                                  #           GENERALIZED MODE SWITCHING TERMINATION. ENTER AT GOODEND FOR SUCCESSFUL COMPLETION OF AN I/O OPERATION
000689:                                                                                                  #  OR AT BADEND FOR AN UNSUCCESSFUL ONE. C(A) OR ARRIVAL =0 FOR IMU, 1 FOR OPTICS.
000690:
000691: 07,3573           54071        BADEND             TS       RUPTREG2                              #  DEVICE INDEX.
000692: 07,3574           45030                           CS       ZERO                                  #  FOR FAILURE.
000693: 07,3575           13600                           TCF      GOODEND    +2
000694:
000695: 07,3576           54071        GOODEND            TS       RUPTREG2
000696: 07,3577           45026                           CS       ONE                                   #  FOR SUCCESS.
000697:
000698: 07,3600           54072                           TS       RUPTREG3
000699: 07,3601           50071                           INDEX    RUPTREG2                              #  SEE IF USING PROGRAM ASLEEP.
000700: 07,3602           11306                           CCS      MODECADR
000701: 07,3603           13605                           TCF      +2                                    #  YES - WAKE IT UP.
000702: 07,3604           13615                           TCF      ENDMODE                               #  IF 0, PROGRAM NOT IN YET.
000703:
000704: 07,3605           35030                           CAF      ZERO                                  #  WAKE SLEEPING PROGRAM.
000705: 07,3606           50071                           INDEX    RUPTREG2
000706: 07,3607           57306                           XCH      MODECADR
000707: 07,3610           05207                           TC       JOBWAKE
000708:
000709: 07,3611           40072                           CS       RUPTREG3                              #  ADVANCE LOC IF SUCCESSFUL.
000710: 07,3612           50064                           INDEX    LOCCTR
000711: 07,3613           26164                           ADS      LOC
000712:
000713: 07,3614           15331                           TCF      TASKOVER
000714:
000715: 07,3615           30072        ENDMODE            CA       RUPTREG3                              #  -0 INDICATES OPERATION COMPLETE BUT
000716: 07,3616           50071                 +1        INDEX    RUPTREG2                              #  UNSUCCESSFUL: -1 INDICATES COMPLETE AND
000717: 07,3617           55306                           TS       MODECADR                              #  SUCCESSFUL.
000718: 07,3620           15331                           TCF      TASKOVER
000719:
000720:                                                                                                  #           GENERAL STALLING ROUTINE. USING PROGRAMS COME HERE TO WAIT FOR I/O COMPLETION.
000721:
000722:                                                                                                  #  PROGRAM DESCRIPTION                                     DATE- 21 FEB 1967
000723:                                                                                                  #                                             LOG SECTION IMU MODE SWITCHING
000724:                                                                                                  #  MOD BY- R. MELANSON TO ADD DOCUMENTATION       ASSEMBLY SUNDISK  REV.  82
000725:
000726:                                                                                                  #  FUNCTIONAL DESCRIPTION-
000727:                                                                                                  #    TO DELAY FURTHER EXECUTION OF THE CALLING ROUTINE UNTIL ITS SELECTED
000728:                                                                                                  #    I/O FUNCTION IS COMPLETE.THE FOLLOWING CHECKS ON THE CALLING ROUTINE:S
000729:                                                                                                  #    MODECADR ARE MADE AND ACTED UPON.
000730:                                                                                                  #      1) +0 INDICATES INCOMPLETE I/O OPERATION.CALLING ROUTINE IS PUT TO
000731:                                                                                                  #         SLEEP.
000732:                                                                                                  #      2) -1 INDICATES COMPLETED I/O OPERATION. STALL BYPASSES JOBSLEEP
000733:                                                                                                  #         CALL AND RETURNS TO CALLING ROUTINE AT L+3
000734:                                                                                                  #      3) -0 INDICATES COMPLETED I/O WITH FAILURE. STALL CLEARS MODECADR
000735:                                                                                                  #         AND RETURNS TO CALLING ROUTINE AT L+2.
000736:                                                                                                  #      4) VALUE GREATER THAN 0 INDICATES TWO ROUTINES CALLING FOR USE OF
000737:                                                                                                  #         SAME DEVICE. STALL EXITS TO ABORT WHICH EXECUTES A PROGRAM
000738:                                                                                                  #         RESTART WHICH IN TURN CLEARS ALL MODECADR REGISTERS.
000739:
000740:                                                                                                  #   CALLING SEQUENCE-
000741:                                                                                                  #    L   TC   BANKCALL
000742:                                                                                                  #    L+1 CADR (ONE OF 5 STALL ADDRESSES I.E. IMUSTALL, OPTSTALL, RADSTALL,
000743:                                                                                                  #               AOTSTALL, OR ATTSTALL)
000744:
000745:                                                                                                  #   NORMAL-EXIT MODE-
000746:                                                                                                  #    TCF   JOBSLEEP OR TCF   MODEXIT
000747:
000748:                                                                                                  #  ALARM OR ABORT EXIT MODE-
000749:                                                                                                  #    TC   ABORT
000750:
000751:                                                                                                  #  OUTPUT-
000752:                                                                                                  #    MODECADR=CADR IF JOBSLEEP
000753:                                                                                                  #    MODECADR=+0   IF I/O COMPLETE
000754:                                                                                                  #    BUF2=L+3      IF I/O COMPLETE AND GOOD.
000755:                                                                                                  #    BUF2=L+2 IF I/O COMPLETE BUT FAILED.
000756:
000757:                                                                                                  #  ERASABLE INITIALIZATION-
000758:                                                                                                  #    BUF2 CONTAINS RETURN ADDRESS PLUS 1,(L+2)
000759:                                                                                                  #    BUF2+1 CONTAINS FBANK VALUE OF CALLING ROUTINE.
000760:                                                                                                  #    MODECADR OF CALLING ROUTINE CONTAINS +0,-1,-0 OR CADR RETURN ADDRESS.
000761:
000762:                                                                                                  #  DEBRIS-
000763:                                                                                                  #    RUPTREG2 AND CALLING ROUTINE MODECADR.
000764:
000765: 07,3621           35026        AOTSTALL           CAF      ONE                                   #  AOT.
000766: 07,3622           03626                           TC       STALL
000767:
000768: 07,3623           35025        RADSTALL           CAF      TWO
000769: 07,3624           13626                           TCF      STALL
000770:
000771: 07,3625  07,3621               OPTSTALL           EQUALS   AOTSTALL
000772:
000773: 07,3625           35030        IMUSTALL           CAF      ZERO                                  #  IMU.
000774:
000775: 07,3626           00004        STALL              INHINT
000776: 07,3627           54071                           TS       RUPTREG2                              #  SAVE DEVICE INDEX.
000777: 07,3630           50000                           INDEX    A                                     #  SEE IF OPERATION COMPLETE.
000778: 07,3631           11306                           CCS      MODECADR
000779: 07,3632           13650                           TCF      MODABORT                              #  ALLOWABLE STATES ARE +0, -1, AND -0.
000780: 07,3633           13644                           TCF      MODESLP                               #  OPERATION INCOMPLETE.
000781: 07,3634           13640                           TCF      MODEGOOD                              #  COMPLETE AND GOOD IF = -1.
000782:
000783: 07,3635           50071        MG2                INDEX    RUPTREG2                              #  COMPLETE AND FAILED IF -0.  RESET TO +0.
000784: 07,3636           55306                           TS       MODECADR                              #  RETURN TO CALLER.
000785: 07,3637           12664                           TCF      MODEEXIT
000786:
000787: 07,3640           10000        MODEGOOD           CCS      A                                     #  MAKE SURE INITIAL STATE -1.
000788: 07,3641           13650                           TCF      MODABORT
000789:
000790: 07,3642           24133                           INCR     BUF2                                  #  IF SO, INCREMENT RETURN ADDRESS AND
000791: 07,3643           13635                           TCF      MG2                                   #  RETURN IMMEDIATELY, SETTING CADR = +0.
000792:
000793: 07,3644           04704        MODESLP            TC       MAKECADR                              #  CALL FROM SWITCHABLE FIXED ONLY.
000794: 07,3645           50071                           INDEX    RUPTREG2
000795: 07,3646           55306                           TS       MODECADR
000796: 07,3647           15203                           TCF      JOBSLEEP
000797:
000798: 07,3650           05716        MODABORT           TC       ABORT                                 #  TWO PROGRAMS USING SAME DEVICE.
000799: 07,3651           01210                           OCT      1210
000800:
000801:                                                                                                  #  CONSTANTS FOR MODE SWITCHING ROUTINES
000802:
000803: 07,3652     5746               BITS3&4            =        OCT14
000804: 07,3652     5041               BITS4&6            =        OCT50
000805: 07,3652           00030        BITS4-5            OCT      00030
000806: 07,3653     5017               IMUSEFLG           EQUALS   BIT8                                  #  INTERPRETER SWITCH 7.
000807: 07,3653           77500        -COMMAX            DEC      -191       B-14
000808: 07,3654           77477        -COMMAX-           DEC      -192       B-14
000809: 07,3655           00074        600MS              DEC      60         B-14
000810: 07,3656  07,3121               IMUFIN20           =        IMUFINE
000811: 07,3656           31311        GOMANUR            CA       ATTCADR                               #  IS KALCMANU FREE
000812: 07,3657           00006                           EXTEND
000813: 07,3660           13663                           BZF      +3
000814:
000815: 07,3661           05716                           TC       ABORT                                 #  NO
000816: 07,3662           01210                           OCT      1210                                  #  2 TRYING TO USE SAME DEVICE
000817:
000818: 07,3663           00006                 +3        EXTEND
000819: 07,3664           30134                           DCA      BUF2
000820: 07,3665           53312                           DXCH     ATTCADR                               #  SAVE FINAL RETURN FOR KALCMAN3
000821:
000822: 07,3666           30006                           CA       BBANK
000823: 07,3667           75032                           MASK     SEVEN
000824: 07,3670           27312                           ADS      ATTCADR    +1
000825:
000826: 07,3671           30167                           CA       PRIORITY
000827: 07,3672           77677                           MASK     PRIO37
000828: 07,3673           55313                           TS       ATTPRIO                               #  SAVE USERS PRIO
000829:
000830: 07,3674           33700                           CAF      KALEBCON                              #  SET EBANK FOR KALCMAN3
000831: 07,3675           54003                           TS       EBANK
000832: 07,3676           04674                           TC       POSTJUMP
000833: 07,3677           44000                           CADR     KALCMAN3
000834: 07,3700           03273        KALEBCON           ECADR    BCDU
000835:
000836:
000837:                                                                                                  #  PROGRAM DESCRIPTION
000838:                                                                                                  #  IMU STATUS CHECK ROUTINE R02 (SUBROUTINE UTILITY)
000839:                                                                                                  #  MOD NO - 1
000840:                                                                                                  #  MOD BY - N.BRODEUR
000841:
000842:                                                                                                  #  FUNCTIONAL DESCRIPTION
000843:                                                                                                  #  TO CHECK WHETHER IMU IS ON AND IF ON WHETHER IT IS ALIGNED TO AN
000844:                                                                                                  #  ORIENTATION KNOWN BY THE CMC. TO REQUEST SELECTION OF THE APPROPRIATE
000845:                                                                                                  #  PROGRAM IF THE IMU IS OFF OR NOT ALIGNED TO AN ORIENTATION KNOWN BY THE
000846:                                                                                                  #  CMC. CALLED THROUGH BANKCALL
000847:                                                                                                  #  CALLING SEQUENCE-
000848:
000849:                                                                                                  #  L        TC     BANKCALL
000850:                                                                                                  #  L+1      CADR   R02BOTH
000851:                                                                                                  #  SUBROUTINES CALLED
000852:
000853:                                                                                                  #        VARALARM
000854:                                                                                                  #        FLAGUP
000855:
000856:                                                                                                  #  NORMAL EXIT MODES
000857:
000858:                                                                                                  #  AT L+2 OF CALLING SEQUENCE
000859:                                                                                                  #  ALARM OR ABORT EXIT MODES
000860:                                                                                                  #        GOTOPOOH, WITH ALARM
000861:                                                                                                  #  ERASABLE INITIALIZATION REQUIRED
000862:
000863:                                                                                                  #  NONE
000864:                                                                                                  #  DEBRIS
000865:
000866:                                                                                                  #  CENTRALS - A,Q,L
000867:
000868: 34,3754                                           BANK     34
000869: 04,2000                                           SETLOC   R02
000870: 04,2000                                           BANK
000871: 04,3066                                           COUNT*   $$/R02
000872: 04,3066           00063        DEC51              DEC      51         B-14
000873: 04,3067           35012        R02BOTH            CAF      REFSMBIT
000874: 04,3070           70077                           MASK     FLAGWRD3
000875: 04,3071           10000                           CCS      A
000876: 04,3072           03103                           TC       R02ZERO                               #  ZERO IMUS
000877:
000878: 04,3073           31304                           CA       IMODES30
000879: 04,3074           75016                           MASK     BIT9                                  #  IS ISS INITIALIZED
000880: 04,3075           00006                           EXTEND
000881: 04,3076           13100                           BZF      +2
000882: 04,3077           45023                           CS       BIT4                                  #  SEND IMU ALARM CODE 210
000883: 04,3100           63106                           AD       OCT220                                #  SEND REFSMM ALARM
000884: 04,3101           05741                           TC       VARALARM
000885:
000886: 04,3102           04106                           TC       GOTOPOOH
000887:
000888: 04,3103           05566        R02ZERO            TC       UPFLAG
000889: 04,3104           00007                           ADRES    IMUSE
000890: 04,3105           14670                           TCF      SWRETURN
000891: 04,3106           00220        OCT220             OCT      220
000892:
000893:
000894:                                                                                                  #  PROGRAM DESCRIPTION   P06   10 FEB 67
000895:
000896:                                                                                                  #  TRANSFER THE ISS/CMC FROM THE OPERATE TO THE STANDBY CONDITION.
000897:
000898:                                                                                                  #  THE NORMAL CONDITION OF READINESS OF THE GNCS WHEN NOT IN USE IS STANDBY. IN THIS CONDITION THE IMU
000899:                                                                                                  #  HEATER POWER IS ON. THE IMU OPERATE POWER IS OFF. THE COMPUTER POWER IS ON. THE OPTICS POWER IS OFF. THE
000900:                                                                                                  #  CMC  STANDBY ON THE MAIN AND LEB DISKYS IS ON.
000901:
000902:                                                                                                  #  CALLING SEQUENCE:
000903:                                                                                                  #            ASTRONAUT REQUEST THROUGH DSKY    V37E 06E.
000904:
000905:                                                                                                  #  SUBROUTINES CALLED:
000906:                                                                                                  #           GOPERF1
000907:                                                                                                  #           BANKCALL
000908:                                                                                                  #           FLAGDOWN
000909:
000910:                                                                                                  #  PRESTAND PREPARES FOR STANDBY BY SNAPSHOTTING THE SCALER AND TIME1 TIME2
000911:                                                                                                  #  THE LOW 5 BITS OF THE SCALER ARE INSPECTED TO INSURE COMPATABILITY
000912:                                                                                                  #  BETWEEN THE SCALER READING AND THE TIME1 TIME2 READING.
000913:
000914: 37,2000                                           SETLOC   P05P06
000915: 37,2000                                           BANK
000916:
000917: 37,3507     1201                                  EBANK=   TIME2SAV
000918: 37,3507                                           COUNT*   $$/P06
000919:
000920: 37,3507           05566        P06                TC       UPFLAG                                #  SET NODOV37 BIT
000921: 37,3510           00054                           ADRES    NODOFLAG
000922:
000923: 37,3511           00004        PRESTAND           INHINT
000924: 37,3512           00006                           EXTEND
000925: 37,3513           30025                           DCA      TIME2                                 #  SNAPSHOT TIME1 TIME2
000926: 37,3514           53202                           DXCH     TIME2SAV
000927: 37,3515           03546                           TC       SCALPREP
000928: 37,3516           03511                           TC       PRESTAND                              #  T1,T2,SCALER NOT COMPATIBLE
000929: 37,3517           52155                           DXCH     MPAC                                  #  T1,T2 AND SCALER OK
000930: 37,3520           53204                           DXCH     SCALSAVE                              #  STORE SCALER
000931: 37,3521           00004                           INHINT
000932: 37,3522           04655                           TC       BANKCALL
000933: 37,3523           17106                           CADR     RNDREFDR                              #  REFSMM, DRIFT, TRACK FLAGS DOWN
000934:
000935: 37,3524           05600                           TC       DOWNFLAG
000936: 37,3525           00007                           ADRES    IMUSE                                 #  IMUSE DOWN
000937: 37,3526           05600                           TC       DOWNFLAG
000938: 37,3527           00010                           ADRES    RNDVZFLG                              #  RNDVZFLG DOWN
000939:
000940: 37,3530           35014                           CAF      BIT11
000941: 37,3531           00006                           EXTEND
000942: 37,3532           05013                           WOR      CHAN13                                #  SET STANDBY ENABLE BIT
000943:
000944: 37,3533           05423                           TC       PHASCHNG                              #  SET RESTART TO POSTAND WHEN STANDBY
000945: 37,3534           07024                           OCT      07024                                 #    RECOVERS
000946: 37,3535           20000                           OCT      20000
000947: 37,3536     1203                                  EBANK=   SCALSAVE
000948: 37,3536           03566 76062                     2CADR    POSTAND
000949:
000950: 37,3540           35044                           CAF      OCT62
000951: 37,3541           04655                           TC       BANKCALL
000952: 37,3542           20532                           CADR     GOPERF1
000953: 37,3543           13540                           TCF      -3
000954: 37,3544           13540                           TCF      -4
000955: 37,3545           13540                           TCF      -5
000956:
000957: 37,3546     5044               OCT62              EQUALS   .5SEC                                 #  DEC 50 = OCT 62
000958:
000959:                                                                                                  #  THE LOW 5 BITS OF THE SCALER READS 10000 FOR THE FIRST INTERVAL AFTER A
000960:                                                                                                  #  T1 INCREMENT. IF  SCALPREP DETECTS THIS INTERVAL THE T1,T2 AND SCALER
000961:                                                                                                  #  DATA ARE NOT COMPATABLE AND RETURN IS TO L+1 FOR ANOTHER READING OF THE
000962:                                                                                                  #  DATA. OTHERWISE, THE RETURN IS TO L+2 TO PROCEED. ROUTINE ALSO PREPARES
000963:                                                                                                  #  THE SCALER READING FOR COMPUTATION OF THE INCREMENT TO UPDATE T1T2. (THE
000964:                                                                                                  #  10 MS BIT (BIT 6) OF THE SCALER IS INCREMENTED 5 MS OUT OF PHASE FROM
000965:                                                                                                  #  T1.) ADDITION OF 5 MS (BIT 5) TO THE SCALER READING HAS THE EFFECT OF
000966:                                                                                                  #  ADJUSTING BIT 6 IN THE SCALER TO BE IN PHASE WITH BIT 1 OF T1. THE LOW 5
000967:                                                                                                  #  BITS OF THE SCALER READING ARE THEN SET TO ZERO, TO TRUNCATE THE SCALER
000968:                                                                                                  #  DATA TO 10 MS. RESULTS ARE STORED IN MPAC, +1.
000969:
000970: 37,3546           00006        SCALPREP           EXTEND
000971: 37,3547           22156                           QXCH     MPAC       +2
000972: 37,3550           04115                           TC       FINETIME   +1
000973: 37,3551           00003                           RELINT
000974: 37,3552           52155                           DXCH     MPAC
000975: 37,3553           35022                           CA       BIT5                                  #  ADD 5 MS TO THE SCALER READING.
000976: 37,3554           54001                           TS       L
000977: 37,3555           35030                           CA       ZERO
000978: 37,3556           20155                           DAS      MPAC
000979: 37,3557           44360                           CS       LOW5                                  #  SET LOW 5 BITS OF (SCALER+5MS) TO ZERO
000980: 37,3560           70155                           MASK     MPAC       +1                         #  AND STORE RESULTS IN MPAC,+1.
000981: 37,3561           56155                           XCH      MPAC       +1
000982: 37,3562           74360                           MASK     LOW5                                  #  TEST LOW 5 BITS OF SCALER FOR THE FIRST
000983:                                                                                                  #  INTERVAL AFTER THE T1 INCREMENT
000984:                                                                                                  #  (NOW = 00000, SINCE BIT 5 ADDED).
000985: 37,3563           10000                           CCS      A                                     #  IS IT 1ST INTERVAL AFTER T1 INCREMENT
000986: 37,3564           24156                           INCR     MPAC       +2                         #  NO
000987: 37,3565           00156                           TC       MPAC       +2                         #  YES
000988:
000989:                                                                                                  #  POSTAND RECOVERS TIME AFTER STANDBY.THE SCALER IS SNAPSHOTTED AND THE
000990:                                                                                                  #  TIME1 TIME2 COUNTER IS SET TO ZERO. THE LOW 5 BITS OF THE SCALER ARE
000991:                                                                                                  #  INSPECTED TO INSURE COMPATABILITY BETWEEN THE SCALER READING AND THE
000992:                                                                                                  #  CLEARING OF THE TIME COUNTER. IT THEN COMPUTES THE DIFFERENCE IN SCALER
000993:                                                                                                  #  VALUES (IN DP) AND ADDS THIS TO THE PREVIOUSLY SNAPSHOTTED VALUES OF
000994:                                                                                                  #  TIME1 TIME2 AND PLACES THIS NEW TIME INTO THE TIME1 TIME2 COUNTER.
000995:
000996: 37,3566                                           COUNT*   $$/P05
000997:
000998: 37,3566           45014        POSTAND            CS       BIT11                                 #  RECOVER TIME AFTER STANDBY.
000999: 37,3567           00006                           EXTEND
001000: 37,3570           03013                           WAND     CHAN13                                #  CLEAR STANDBY ENABLE BIT
001001: 37,3571           00004                           INHINT
001002: 37,3572           35030                           CA       ZERO
001003: 37,3573           54001                           TS       L
001004: 37,3574           52025                           DXCH     TIME2                                 #  CLEAR TIME1TIME2
001005: 37,3575           03546                           TC       SCALPREP                              #  STORE SCALER IN MPAC, MPAC+1
001006: 37,3576           03571                           TC       POSTAND    +3                         #  T1,T2,SCALER NOT COMPATIBLE
001007: 37,3577           00006                           EXTEND                                         #  T1,T2 AND SCALER OK
001008: 37,3600           41204                           DCS      SCALSAVE
001009: 37,3601           20155                           DAS      MPAC                                  #  FORM DP DIFFERENCE OF POSTSTANDBY SCALER
001010: 37,3602           35015                           CAF      BIT10                                 #  MINUS PRESTANDBY SCALER AND SHIFT RIGHT
001011: 37,3603           07261                           TC       SHORTMP                               #  5 TO ALIGN BITS WITH TIME1 TIME2.
001012: 37,3604           35030                           CAF      ZERO
001013: 37,3605           54156                           TS       MPAC       +2                         #  NEEDED FOR TP AGREE
001014: 37,3606           07231                           TC       TPAGREE                               #  MAKE DP DIFF AGREE
001015: 37,3607           10154                           CCS      MPAC
001016: 37,3610           03615                           TC       POSTCOM                               #  IF DP DIFF NET +, NO SCALER OVERFLOW
001017: 37,3611           03615                           TC       POSTCOM                               #  BETWEEN PRE AND POST STANDBY.
001018: 37,3612           03613                           TC       +1                                    #  IF DP DIFF NET -, SCALER OVERFLOWED. ADD
001019: 37,3613           35015                           CAF      BIT10                                 #  BIT 10 TO HIGH DIFF TO CORRECT.
001020: 37,3614           26154                           ADS      MPAC
001021: 37,3615           00006        POSTCOM            EXTEND                                         #  C(MPAC,+1) IS MAGNITUDE OF DELTA SCALER.
001022: 37,3616           31202                           DCA      TIME2SAV                              #  PRESTANDBY TIME1TIME2
001023: 37,3617           20155                           DAS      MPAC
001024: 37,3620           07231                           TC       TPAGREE                               #  FORCE SIGN AGREEMENT
001025: 37,3621           52155                           DXCH     MPAC                                  #  UPDATED VALUE FOR T1,T2.
001026: 37,3622           20025                           DAS      TIME2                                 #  LOAD UPDATED VALUE INTO T1,T2, WITH
001027: 37,3623           05600                           TC       DOWNFLAG                              #  CLEAR NODOFLAG
001028: 37,3624           00054                           ADRES    NODOFLAG
001029:
001030: 37,3625           04106                           TC       GOTOPOOH
001031:

End of include-file IMU_MODE_SWITCHING_ROUTINES.agc.  Parent file is MAIN.agc


