
Source Code


000002:                                                                                                  ## Copyright:   Public domain.
000003:                                                                                                  ## Filename:    IMU_PERFORMANCE_TESTS_2.agc
000004:                                                                                                  ## Purpose:     A section of an attempt to reconstruct Sundance revision 306
000005:                                                                                                  ##              as closely as possible with available information. Sundance
000006:                                                                                                  ##              306 is the source code for the Lunar Module's (LM) Apollo
000007:                                                                                                  ##              Guidance Computer (AGC) for Apollo 9. This program was created
000008:                                                                                                  ##              using the mixed-revision SundanceXXX as a starting point, and
000009:                                                                                                  ##              pulling back features from Luminary 69 believed to have been
000010:                                                                                                  ##              added based on memos, checklists, observed address changes,
000011:                                                                                                  ##              or the Sundance GSOPs.
000012:                                                                                                  ## Assembler:   yaYUL
000013:                                                                                                  ## Contact:     Ron Burkey <info@sandroid.org>.
000014:                                                                                                  ## Website:     www.ibiblio.org/apollo/index.html
000015:                                                                                                  ## Mod history: 2020-07-24 MAS  Created from SundanceXXX.
000016:
000017:
000018:
000019:                                                                                                  #  NAME- IMU PERFORMANCE TESTS 2
000020:
000021:                                                                                                  #  DATE- MARCH 20, 1967
000022:
000023:                                                                                                  #  BY- SYSTEM TEST GROUP 864-6900 EXT. 1274
000024:
000025:                                                                                                  #  MODNO.- ZERO
000026:
000027:                                                                                                  #  FUNCTIONAL DESCRIPTION
000028:
000029:                                                                                                  #  POSITIONING ROUTINES FOR THE IMU PERFORMANCE TESTS AS WELL AS SOME OF
000030:                                                                                                  #  THE TESTS THEMSELVES. FOR A DESCRIPTION OF THESE SUBROUTINES AND THE
000031:                                                                                                  #  OPERATING PROCEDURES (TYPICALLY) SEE STG MEMO 685.THEORETICAL REF.E-1973
000032:
000033: 33,2000                                           BANK     33
000034: 37,2000                                           SETLOC   IMU2
000035: 37,2000                                           BANK
000036: 37,2000  E5,1416                                  EBANK=   POSITON
000037: 37,2000                                           COUNT*   $$/P07
000038:
000039: 37,2000           05361        REDO               TC       NEWMODEX
000040: 37,2001           00007                           MM       07         B-14
000041:
000042: 37,2002           02322        GEOIMUTT           TC       IMUZERR
000043: 37,2003           35030        IMUBACK            CA       ZERO
000044: 37,2004           55414                           TS       NDXCTR
000045: 37,2005           55440                           TS       TORQNDX
000046: 37,2006           55441                           TS       TORQNDX    +1
000047: 37,2007           34373        NBPOSPL            CA       DEC17
000048: 37,2010           55571                           TS       ZERONDX
000049: 37,2011           32473                           CA       XNBADR
000050: 37,2012           02364                           TC       ZEROING
000051: 37,2013           35011                           CA       HALF
000052: 37,2014           55664                           TS       XNB
000053: 37,2015           06014        GUESS              TC       INTPRET
000054: 37,2016           62545        LATAZCHK           DLOAD    SL2
000055: 37,2017           02403                                    LATITUDE
000056: 37,2020           15050                           STODL    DSPTEM1    +1
000057: 37,2021           02401                                    AZIMUTH
000058: 37,2022           77434                           RTB      EXIT
000059: 37,2023           21512                                    1STO2S
000060: 37,2024           56154                           XCH      MPAC
000061: 37,2025           55046                           TS       DSPTEM1
000062: 37,2026           32470                           CAF      VN0641
000063: 37,2027           04655                           TC       BANKCALL
000064: 37,2030           20406                           CADR     GOFLASH
000065: 37,2031           02265                           TC       ENDTEST1
000066: 37,2032           02034                           TC       +2
000067: 37,2033           02026                           TC       -5
000068: 37,2034           06014                           TC       INTPRET
000069: 37,2035           47135                           SLOAD    RTB
000070: 37,2036           01047                                    DSPTEM1
000071: 37,2037           21457                                    CDULOGIC
000072: 37,2040           02401                           STORE    AZIMUTH
000073: 37,2041           60535                           SLOAD    SR2
000074: 37,2042           01050                                    DSPTEM1    +1
000075: 37,2043           02403                           STORE    LATITUDE
000076: 37,2044           57546                           COS      DCOMP
000077: 37,2045           77752                           SL1
000078: 37,2046           16437                           STODL    WANGI
000079: 37,2047           02403                                    LATITUDE
000080: 37,2050           72556                           SIN      SL1
000081: 37,2051           16435                           STODL    WANGO
000082: 37,2052           02401                                    AZIMUTH
000083: 37,2053           73406                           PUSH     SIN
000084: 37,2054           02675                           STORE    YNB        +2
000085: 37,2055           16705                           STODL    ZNB        +4
000086: 37,2056           77746                           COS
000087: 37,2057           02677                           STORE    YNB        +4
000088: 37,2060           77676                           DCOMP
000089: 37,2061           36703        POSGMBL            STCALL   ZNB        +2
000090: 37,2062           47147                                    CALCGA
000091: 37,2063           77776                           EXIT
000092: 37,2064           04655                           TC       BANKCALL
000093: 37,2065           16711                           CADR     IMUCOARS
000094: 37,2066           35011                           CAF      BIT14                                 #  IF BIT14 SET, GIMBAL LOCK
000095: 37,2067           70077                           MASK     FLAGWRD3
000096: 37,2070           00006                           EXTEND
000097: 37,2071           12073                           BZF      +2
000098: 37,2072           25414                           INCR     NDXCTR                                #  +1 IF IN GIMBAL LOCK, OTHERWISE 0
000099: 37,2073           05600                           TC       DOWNFLAG
000100: 37,2074           00056                           ADRES    GLOKFAIL                              #  RESET GIMBAL LOCK FLAG
000101: 37,2075           02312                           TC       IMUSLLLG
000102: 37,2076           11414                           CCS      NDXCTR                                #  IF ONE GO AND DO A PIPA TEST ONLY
000103: 37,2077           02123                           TC       PIPACHK                               #  ALIGN AND MEASURE VERTICAL PIPA RATE
000104: 37,2100           02315                           TC       FINIMUDD
000105: 37,2101           00006                           EXTEND
000106: 37,2102           31575                           DCA      PERFDLAY
000107: 37,2103           05347                           TC       LONGCALL                              #  DELAY WHILE SUSPENSION STABILIZES
000108: 37,2104  E5,1416                                  EBANK=   POSITON
000109: 37,2104           02110 76065                     2CADR    GOESTIMS
000110:
000111: 37,2106           32113                           CA       ESTICADR
000112: 37,2107           05203                           TC       JOBSLEEP
000113: 37,2110           32113        GOESTIMS           CA       ESTICADR
000114: 37,2111           05207                           TC       JOBWAKE
000115: 37,2112           05331                           TC       TASKOVER
000116: 37,2113           76477        ESTICADR           CADR     ESTIMS
000117: 37,2114           35030        TORQUE             CA       ZERO
000118: 37,2115           55051                           TS       DSPTEM2
000119: 37,2116           31504                           CA       DRIFTI
000120: 37,2117           55052                           TS       DSPTEM2    +1
000121: 37,2120           51416                           INDEX    POSITON
000122: 37,2121           55420                           TS       SOUTHDR    -1
000123: 37,2122           02454                           TC       SHOW
000124:
000125: 37,2123           51414        PIPACHK            INDEX    NDXCTR                                #  PIPA TEST
000126: 37,2124           02125                           TC       +1
000127: 37,2125           02444                           TC       EARTHR*
000128: 37,2126           34373                           CA       DEC17                                 #  ALLOW PIP COUNTER TO OVERFLOW 17 TIMES
000129: 37,2127           55476                           TS       DATAPL     +4                         #  IN THE ALLOTED TIME INTERVAL
000130: 37,2130           32471                           CA       DEC58
000131: 37,2131           55412                           TS       LENGTHOT
000132: 37,2132           35026                           CA       ONE
000133: 37,2133           55537                           TS       RESULTCT
000134: 37,2134           35030                           CA       ZERO
000135: 37,2135           51415                           INDEX    PIPINDEX
000136: 37,2136           54037                           TS       PIPAX
000137: 37,2137           55472                           TS       DATAPL
000138: 37,2140           02327                           TC       CHECKG
000139: 37,2141           00004                           INHINT
000140: 37,2142           35025                           CAF      TWO
000141: 37,2143           05243                           TC       TWIDDLE
000142: 37,2144  E5,1642                                  EBANK=   XSM
000143: 37,2144           02146                           ADRES    PIPATASK
000144: 37,2145           05225                           TC       ENDOFJOB
000145:
000146: 37,2146           00006        PIPATASK           EXTEND
000147: 37,2147           27412                           DIM      LENGTHOT
000148: 37,2150           31412                           CA       LENGTHOT
000149: 37,2151           00006                           EXTEND
000150: 37,2152           62156                           BZMF     STARTPIP
000151: 37,2153           35015                           CAF      BIT10
000152: 37,2154           05243                           TC       TWIDDLE
000153: 37,2155  E5,1642                                  EBANK=   XSM
000154: 37,2155           02146                           ADRES    PIPATASK
000155: 37,2156           35011        STARTPIP           CAF      PRIO20
000156: 37,2157           05155                           TC       FINDVAC
000157: 37,2160  E5,1642                                  EBANK=   XSM
000158: 37,2160           02163 76065                     2CADR    PIPJOBB
000159:
000160: 37,2162           05331                           TC       TASKOVER
000161:
000162: 37,2163           51414        PIPJOBB            INDEX    NDXCTR
000163: 37,2164           02165                           TC       +1
000164: 37,2165           02444                           TC       EARTHR*
000165: 37,2166           31412                           CA       LENGTHOT
000166: 37,2167           00006                           EXTEND
000167: 37,2170           62172                           BZMF     +2
000168: 37,2171           05225                           TC       ENDOFJOB
000169:
000170: 37,2172           35031                           CA       FIVE
000171: 37,2173           55537                           TS       RESULTCT
000172: 37,2174           02327                           TC       CHECKG
000173: 37,2175           11473                           CCS      DATAPL     +1
000174: 37,2176           02202                           TC       +4
000175: 37,2177           05726                           TC       CCSHOLE
000176: 37,2200           41476                           CS       DATAPL     +4
000177: 37,2201           55476                           TS       DATAPL     +4
000178: 37,2202           00006                           EXTEND
000179: 37,2203           41473                           DCS      DATAPL
000180: 37,2204           21477                           DAS      DATAPL     +4
000181:
000182: 37,2205           06014                           TC       INTPRET
000183: 37,2206           45345                           DLOAD    DSU
000184: 37,2207           02501                                    DATAPL     +6
000185: 37,2210           02475                                    DATAPL     +2
000186: 37,2211           45044                           BPL      CALL
000187: 37,2212           76214                                    AINGOTN
000188: 37,2213           76272                                    OVERFFIX
000189: 37,2214           56325        AINGOTN            PDDL     DDV
000190: 37,2215           02477                                    DATAPL     +4
000191: 37,2216           47075                           DMPR     RTB
000192: 37,2217           37042                                    DEC585                                #  DEC585 HAS BEEN REDEFINED FOR LEM
000193: 37,2220           21510                                    SGNAGREE
000194: 37,2221           01052                           STORE    DSPTEM2
000195: 37,2222           77776                           EXIT
000196: 37,2223           11414                           CCS      NDXCTR
000197: 37,2224           02276                           TC       COAALIGN                              #  TAKE PLATFORM OUT OF GIMBAL LOCK
000198: 37,2225           02454                           TC       SHOW
000199: 37,2226           32466        VERTDRFT           CA       3990DEC                               #  ABOUT 1 HOUR VERTICAL DRIFT TEST
000200: 37,2227           55412                           TS       LENGTHOT
000201: 37,2230           51416                           INDEX    POSITON
000202: 37,2231           41417                           CS       SOUTHDR    -2
000203: 37,2232           55442                           TS       DRIFTT
000204: 37,2233           11415                           CCS      PIPINDEX                              #  OFFSET PLATFORM TO MISS PIP DEAD-ZONES
000205: 37,2234           12242                           TCF      PON4                                  #  Z UP IN POS 4
000206: 37,2235           45022        PON2               CS       BIT5                                  #  X UP
000207: 37,2236           27565                           ADS      ERCOMP     +2
000208: 37,2237           35022                           CA       BIT5
000209: 37,2240           27567                           ADS      ERCOMP     +4
000210: 37,2241           12246                           TCF      PON
000211: 37,2242           45022        PON4               CS       BIT5
000212: 37,2243           27565                           ADS      ERCOMP     +2
000213: 37,2244           35022                           CA       BIT5
000214: 37,2245           27563                           ADS      ERCOMP
000215: 37,2246           02444        PON                TC       EARTHR*
000216: 37,2247           35030                           CA       ZERO                                  #  ALLOW ONLY SOUTH GYRO EARTH RATE COMPENS
000217: 37,2250           55404                           TS       ERVECTOR
000218: 37,2251           55405                           TS       ERVECTOR   +1
000219: 37,2252           35006        GUESS1             CAF      POSMAX
000220: 37,2253           55440                           TS       TORQNDX
000221: 37,2254           55441                           TS       TORQNDX    +1
000222: 37,2255           30032                           CA       CDUX
000223: 37,2256           55413                           TS       LOSVEC
000224: 37,2257           02477                           TC       ESTIMS
000225: 37,2260           31502        VALMIS             CA       DRIFTO
000226: 37,2261           55052                           TS       DSPTEM2    +1
000227: 37,2262           35030                           CA       ZERO
000228: 37,2263           55051                           TS       DSPTEM2
000229: 37,2264           02454                           TC       SHOW
000230:
000231: 37,2265           05600        ENDTEST1           TC       DOWNFLAG
000232: 37,2266           00007                           ADRES    IMUSE
000233: 37,2267           45030                           CS       ZERO
000234: 37,2270           05364                           TC       NEWMODEA
000235: 37,2271           05564                           TC       ENDEXT
000236:
000237: 37,2272           43215        OVERFFIX           DAD      DAD
000238: 37,2273           06241                                    DPPOSMAX
000239: 37,2274           37050                                    ONEDPP
000240: 37,2275           77616                           RVQ
000241:
000242: 37,2276           00006        COAALIGN           EXTEND                                         #  COARSE ALIGN SUBROUTINE
000243: 37,2277           23571                           QXCH     ZERONDX
000244: 37,2300           35030                           CA       ZERO
000245: 37,2301           55206                           TS       THETAD
000246: 37,2302           55207                           TS       THETAD     +1
000247: 37,2303           55210                           TS       THETAD     +2
000248: 37,2304           04655                           TC       BANKCALL
000249: 37,2305           16711                           CADR     IMUCOARS
000250: 37,2306           04655        ALIGNCOA           TC       BANKCALL
000251: 37,2307           17625                           CADR     IMUSTALL
000252: 37,2310           03036                           TC       SOMERR2
000253: 37,2311           01571                           TC       ZERONDX
000254:
000255: 37,2312           00006        IMUSLLLG           EXTEND
000256: 37,2313           23571                           QXCH     ZERONDX
000257: 37,2314           02306                           TC       ALIGNCOA
000258:
000259: 37,2315           00006        FINIMUDD           EXTEND
000260: 37,2316           23571                           QXCH     ZERONDX
000261: 37,2317           04655                           TC       BANKCALL
000262: 37,2320           17121                           CADR     IMUFINE
000263: 37,2321           02306                           TC       ALIGNCOA
000264:
000265: 37,2322           00006        IMUZERR            EXTEND
000266: 37,2323           23571                           QXCH     ZERONDX
000267: 37,2324           04655                           TC       BANKCALL
000268: 37,2325           16622                           CADR     IMUZERO
000269: 37,2326           02306                           TC       ALIGNCOA
000270:
000271: 37,2327           00006        CHECKG             EXTEND                                         #  PIP PULSE CATCHING ROUTINE
000272: 37,2330           23417                           QXCH     QPLACE
000273: 37,2331           02337                           TC       +6
000274: 37,2332           00003        CHECKG1            RELINT
000275: 37,2333           30067                           CA       NEWJOB
000276: 37,2334           00006                           EXTEND
000277: 37,2335           62343                           BZMF     +6
000278: 37,2336           05172                           TC       CHANG1
000279: 37,2337           00004                           INHINT
000280: 37,2340           51415                           INDEX    PIPINDEX
000281: 37,2341           40037                           CS       PIPAX
000282: 37,2342           55571                           TS       ZERONDX
000283: 37,2343           00004                           INHINT
000284: 37,2344           51415                           INDEX    PIPINDEX
000285: 37,2345           30037                           CA       PIPAX
000286: 37,2346           61571                           AD       ZERONDX
000287: 37,2347           00006                           EXTEND
000288: 37,2350           12332                           BZF      CHECKG1
000289: 37,2351           51415                           INDEX    PIPINDEX
000290: 37,2352           30037                           CA       PIPAX
000291: 37,2353           51537                           INDEX    RESULTCT
000292: 37,2354           55472                           TS       DATAPL
000293: 37,2355           04114                           TC       FINETIME
000294: 37,2356           51537                           INDEX    RESULTCT
000295: 37,2357           55473                           TS       DATAPL     +1
000296: 37,2360           51537                           INDEX    RESULTCT
000297: 37,2361           23474                           LXCH     DATAPL     +2
000298: 37,2362           00003                           RELINT
000299: 37,2363           01417        ENDCHKG            TC       QPLACE
000300:
000301: 37,2364           54001        ZEROING            TS       L
000302: 37,2365           12367                           TCF      +2
000303: 37,2366           55571        ZEROING1           TS       ZERONDX
000304: 37,2367           35030                           CAF      ZERO
000305: 37,2370           50001                           INDEX    L
000306: 37,2371           54000                           TS       0
000307: 37,2372           24001                           INCR     L
000308: 37,2373           11571                           CCS      ZERONDX
000309: 37,2374           12366                           TCF      ZEROING1
000310: 37,2375           00002                           TC       Q
000311:
000312: 37,2376           65345        ERTHRVSE           DLOAD    PDDL
000313: 37,2377           37043                                    SCHZEROS                              #  PD24 = (SIN             -COS     0)(OMEG/MS)
000314: 37,2400           02403                                    LATITUDE
000315: 37,2401           57546                           COS      DCOMP
000316: 37,2402           73525                           PDDL     SIN
000317: 37,2403           02403                                    LATITUDE
000318: 37,2404           74266                           VDEF     VXSC
000319: 37,2405           36476                                    OMEG/MS
000320: 37,2406           02405                           STORE    ERVECTOR
000321: 37,2407           77634                           RTB
000322: 37,2410           21454                                    LOADTIME
000323: 37,2411           26433                           STOVL    TMARK
000324: 37,2412           37043                                    SCHZEROS
000325: 37,2413           02564                           STORE    ERCOMP
000326: 37,2414           77616                           RVQ
000327:
000328: 37,2415           47020        EARTHR             ITA      RTB
000329: 37,2416           00051                                    S2
000330: 37,2417           21454                                    LOADTIME
000331: 37,2420           02431                           STORE    TEMPTIME
000332: 37,2421           51025                           DSU      BPL
000333: 37,2422           02433                                    TMARK
000334: 37,2423           76426                                    ERTHR
000335: 37,2424           77624                           CALL
000336: 37,2425           76272                                    OVERFFIX
000337: 37,2426           74261        ERTHR              SL       VXSC
000338: 37,2427           20212                                    9D
000339: 37,2430           02405                                    ERVECTOR
000340: 37,2431           53321                           MXV      VAD
000341: 37,2432           02643                                    XSM
000342: 37,2433           02564                                    ERCOMP
000343: 37,2434           16564                           STODL    ERCOMP
000344: 37,2435           02431                                    TEMPTIME
000345: 37,2436           02433                           STORE    TMARK
000346: 37,2437           47170                           AXT,1    RTB
000347: 37,2440           02563                           ECADR    ERCOMP
000348: 37,2441           21617                                    PULSEIMU
000349: 37,2442           77650                           GOTO
000350: 37,2443           00051                                    S2
000351:
000352: 37,2444           00006        EARTHR*            EXTEND
000353: 37,2445           23420                           QXCH     QPLACES
000354: 37,2446           06014                           TC       INTPRET
000355: 37,2447           77624                           CALL
000356: 37,2450           76415                                    EARTHR
000357: 37,2451           77776                           EXIT
000358: 37,2452           02312                           TC       IMUSLLLG
000359: 37,2453           01420                           TC       QPLACES
000360:
000361: 37,2454           00006        SHOW               EXTEND
000362: 37,2455           23417                           QXCH     QPLACE
000363: 37,2456           31416        SHOW1              CA       POSITON
000364: 37,2457           55053                           TS       DSPTEM2    +2
000365: 37,2460           32467                           CA       VB06N98
000366: 37,2461           04655                           TC       BANKCALL
000367: 37,2462           20406                           CADR     GOFLASH
000368: 37,2463           02265                           TC       ENDTEST1                              #  V 34
000369: 37,2464           01417                           TC       QPLACE                                #   V33
000370: 37,2465           12456                           TCF      SHOW1
000371:
000372: 37,2466           07626        3990DEC            DEC      3990       B-14
000373: 37,2467           01542        VB06N98            VN       0698
000374: 37,2470           01451        VN0641             VN       0641
000375: 37,2471     4373               DEC17              =        ND1
000376: 37,2471           00072        DEC58              DEC      58         B-14
000377: 37,2472           02737        OGCPL              ECADR    OGC
000378: 37,2473     5047               1SECX              =        1SEC
000379: 37,2473           01664        XNBADR             GENADR   XNB
000380: 37,2474           01642        XSMADR             GENADR   XSM
000381: 37,2475           07623 26552  OMEG/MS            2DEC     .24339048
000382:
000383:
000384:    4114                                           BLOCK    2
000385:    4114                                           COUNT*   $$/P07
000386:    4114           00004        FINETIME           INHINT                                         #  RETURNS WITH INTERRUPT INHIBITED
000387:    4115           00006                           EXTEND
000388:    4116           00004                           READ     LOSCALAR
000389:    4117           54001                           TS       L
000390:    4120           00006                           EXTEND
000391:    4121           06004                           RXOR     LOSCALAR
000392:    4122           00006                           EXTEND
000393:    4123           14127                           BZF      +4
000394:    4124           00006                           EXTEND
000395:    4125           00004                           READ     LOSCALAR
000396:    4126           54001                           TS       L
000397:    4127           45006                 +4        CS       POSMAX
000398:    4130           60001                           AD       L
000399:    4131           00006                           EXTEND
000400:    4132           14115                           BZF      FINETIME   +1
000401:    4133           00006                           EXTEND
000402:    4134           00003                           READ     HISCALAR
000403:    4135           00002                           TC       Q
000404:

End of include-file IMU_PERFORMANCE_TESTS_2.agc.  Parent file is MAIN.agc


