
Source Code


000002:                                                                                                  ## Copyright:   Public domain.
000003:                                                                                                  ## Filename:    INTER-BANK_COMMUNICATION.agc
000004:                                                                                                  ## Purpose:     A section of an attempt to reconstruct Sundance revision 306
000005:                                                                                                  ##              as closely as possible with available information. Sundance
000006:                                                                                                  ##              306 is the source code for the Lunar Module's (LM) Apollo
000007:                                                                                                  ##              Guidance Computer (AGC) for Apollo 9. This program was created
000008:                                                                                                  ##              using the mixed-revision SundanceXXX as a starting point, and
000009:                                                                                                  ##              pulling back features from Luminary 69 believed to have been
000010:                                                                                                  ##              added based on memos, checklists, observed address changes,
000011:                                                                                                  ##              or the Sundance GSOPs.
000012:                                                                                                  ## Assembler:   yaYUL
000013:                                                                                                  ## Contact:     Ron Burkey <info@sandroid.org>.
000014:                                                                                                  ## Website:     www.ibiblio.org/apollo/index.html
000015:                                                                                                  ## Mod history: 2020-07-24 MAS  Created from SundanceXXX.
000016:
000017:
000018:
000019:                                                                                                  #           THE FOLLOWING ROUTINE CAN BE USED TO CALL A SUBROUTINE IN ANOTHER BANK. IN THE BANKCALL VERSION, THE
000020:                                                                                                  #  CADR OF THE SUBROUTINE IMMEDIATELY FOLLOWS THE TC BANKCALL INSTRUCTION, WITH C(A) AND C(L) PRESERVED.
000021:
000022:    4655                                           BLOCK    02
000023:    4655                                           COUNT*   $$/BANK
000024:    4655           52134        BANKCALL           DXCH     BUF2                                  #  SAVE INCOMING A,L.
000025:    4656           50002                           INDEX    Q                                     #  PICK UP CADR.
000026:    4657           30000                           CA       0
000027:    4660           24002                           INCR     Q                                     #  SO WE RETURN TO THE LOC. AFTER THE CADR.
000028:
000029:                                                                                                  #            SWCALL IS IDENTICAL TO BANKCALL, EXCEPT THAT THE CADR ARRIVES IN A.
000030:
000031:    4661           54001        SWCALL             TS       L
000032:    4662           22004                           LXCH     FBANK                                 #  SWITCH BANKS, SAVING RETURN.
000033:    4663           75062                           MASK     LOW10                                 #  GET SUB-ADDRESS OF CADR.
000034:    4664           56002                           XCH      Q                                     #  A,L NOW CONTAINS DP RETURN.
000035:    4665           52134                           DXCH     BUF2                                  #  RESTORING INPUTS IF THIS IS A BANKCALL.
000036:    4666           50002                           INDEX    Q
000037:    4667           02000                           TC       10000                                 #  SETTING Q TO SWRETURN.
000038:
000039:    4670           56134        SWRETURN           XCH      BUF2       +1                         #  COMES HERE TO RETURN TO CALLER. C(A,L)
000040:    4671           56004                           XCH      FBANK                                 #  ARE PRESERVED FOR RETURN.
000041:    4672           56134                           XCH      BUF2       +1
000042:    4673           00133                           TC       BUF2
000043:
000044:                                                                                                  #           THE FOLLOWING ROUTINE CAN BE USED AS A UNILATERAL JUMP WITH C(A,L) PRESERVED AND THE CADR IMMEDIATELY
000045:                                                                                                  #  FOLLOWING THE TC POSTJUMP INSTRUCTION.
000046:
000047:    4674           56002        POSTJUMP           XCH      Q                                     #  SAVE INCOMING C(A).
000048:    4675           50000                           INDEX    A                                     #  GET CADR.
000049:    4676           30000                           CA       0
000050:
000051:                                                                                                  #            BANKJUMP IS THE SAME AS POSTJUMP, EXCEPT THAT THE CADR ARRIVES IN A.
000052:
000053:    4677           54004        BANKJUMP           TS       FBANK
000054:    4700           75062                           MASK     LOW10
000055:    4701           56002                           XCH      Q                                     #  RESTORING INPUT C(A) IF THIS WAS A
000056:    4702           50002        Q+10000            INDEX    Q                                     #  POSTJUMP.
000057:    4703           12000        PRIO12             TCF      10000                                 #  PRIO12 = TCF  10000 = 12000
000058:
000059:                                                                                                  #            THE FOLLOWING ROUTINE GETS THE RETURN CADR SAVED BY SWCALL OR BANKCALL AND LEAVES IT IN A.
000060:
000061:    4704           35062        MAKECADR           CAF      LOW10
000062:    4705           70133                           MASK     BUF2
000063:    4706           60134                           AD       BUF2       +1
000064:    4707           00002                           TC       Q
000065:
000066:                                                                                                  #           THE FOLLOWING ROUTINE OBTAINS THE ONE WORD AT THE ADDRESS ARRIVING IN A, AND LEAVES IT IN A.  ENTER
000067:                                                                                                  #  WITH THE CADR IN A, AT DATACALL WITH JUNK IN L IF NOT SWITCHING SUPERBANKS, OTHERWISE AT SUPDACAL WITH SUPERBANK
000068:                                                                                                  #  BITS IN BITS 7-5 IN L (BITS 15-8 AND 4-1 MAY BE JUNK).  DEBRIS = MTEMP.  INHINTS FOR ABOUT 165 MUSEC.
000069:
000070:    4710           54001        DATACALL           TS       L                                     #  SAVE CADR (SOLE INPUT HERE).
000071:    4711           00006                           EXTEND
000072:    4712           00007                           READ     SUPERBNK                              #  THIS PROLOGUE MAKES SUPERSWITCH VACUOUS.
000073:    4713           56001                           XCH      L                                     #  CADR IN A, SUPERBITS IN L.
000074:
000075:    4714           54135        SUPDACAL           TS       MPTEMP
000076:    4715           56004                           XCH      FBANK                                 #  SET FBANK FOR DATA.
000077:    4716           00006                           EXTEND
000078:    4717           04007                           ROR      SUPERBNK                              #  SAVE FBANK IN BITS 15-11, AND
000079:    4720           56135                           XCH      MPTEMP                                #   SUPERBANK IN BITS 7-5.
000080:    4721           75062                           MASK     LOW10
000081:    4722           56001                           XCH      L                                     #  SAVE REL. ADR. IN BANK, FETCH SUPERBITS.
000082:    4723           00004                           INHINT                                         #  BECAUSE RUPT DOES NOT SAVE SUPERBANK.
000083:    4724           00006                           EXTEND
000084:    4725           01007                           WRITE    SUPERBNK                              #  SET SUPERBANK FOR DATA.
000085:    4726           50001                           INDEX    L
000086:    4727           32000                           CA       10000                                 #  PINBALL (FIX MEM DISP) PREVENTS DCA HERE
000087:    4730           56135                           XCH      MPTEMP                                #  SAVE 1ST WD, FETCH OLD FBANK AND SBANK.
000088:    4731           00006                           EXTEND
000089:    4732           01007                           WRITE    SUPERBNK                              #  RESTORE SUPERBANK.
000090:    4733           00003                           RELINT
000091:    4734           54004                           TS       FBANK                                 #  RESTORE FBANK.
000092:    4735           30135                           CA       MPTEMP                                #  RECOVER FIRST WORD OF DATA.
000093:    4736           00002                           RETURN                                         #  24 WDS. DATACALL 516 MU, SUPDACAL 432 MU
000094:
000095:                                                                                                  #           THE FOLLOWING ROUTINES ARE IDENTICAL TO BANKCALL AND SWCALL EXCEPT THAT THEY ARE USED IN INTERRUPT.
000096:
000097:    4737           52073        IBNKCALL           DXCH     RUPTREG3                              #  USES RUPTREG3,4 FOR DP RETURN ADDRESS.
000098:    4740           50002                           INDEX    Q
000099:    4741           30000                           CAF      0
000100:    4742           24002                           INCR     Q
000101:
000102:    4743           54001        ISWCALLL           TS       L
000103:    4744           22004                           LXCH     FBANK
000104:    4745           75062                           MASK     LOW10
000105:    4746           56002                           XCH      Q
000106:    4747           52073                           DXCH     RUPTREG3
000107:    4750           50002                           INDEX    Q
000108:    4751           02000                           TC       10000
000109:
000110:    4752           56073        ISWRETRN           XCH      RUPTREG4
000111:    4753           56004                           XCH      FBANK
000112:    4754           56073                           XCH      RUPTREG4
000113:    4755           00072                           TC       RUPTREG3
000114:
000115:                                                                                                  #           THE FOLLOWING SUBROUTINES PROVIDE TO THE BASIC PROGRAMMER ENTRY INTO AND RETURN FROM ANY INTERPRETIVE
000116:                                                                                                  #  CODING WHICH DOES NOT USE THE ENTERING CONTENTS OF Q AND WHICH RETURNS VIA DANZIG. C(A) AND C(L) ARE SAVED.
000117:
000118:                                                                                                  #  USER'S RESPONSIBILITY TO FILL IN ADVANCE THE APPROPRIATE OPERAND AND ADDRESS REGISTERS USED BY THE
000119:                                                                                                  #  INTERPRETIVE CODING SUCH AS MPAC, BUF, ADDRWD, ETC.; AND TO CONFIRM THAT THE INTERPRETIVE CODING MEETS THE
000120:                                                                                                  #  ABOVE RESTRICTIONS WITH RESPECT TO Q AND DANZIG.
000121:
000122:                                                                                                  #  USEPRET AND USPRCADR MUST NOT BE USED IN INTERRUPT.
000123:
000124:                                                                                                  #  1. USEPRET ACCESSES INTERPRETIVE CODING WHICH CAN BE ENTERED WITHOUT CHANGING FBANK.
000125:                                                                                                  #     THE CALLING SEQUENCE IS AS FOLLOWS:
000126:
000127:                                                                                                  #                                          L         TC     USEPRET
000128:                                                                                                  #                                          L+1       TC,TCF INTPRETX       TC,TCF MEANS TC OR TCF
000129:                                                                                                  #                                                                          INTPRETX IS THE INTERPRETIVE CODING
000130:                                                                                                  #                                                                          RETURN IS TO L+2
000131:
000132:                                                                                                  #  2. USPRCADR ACCESSES INTERPRETIVE CODING IN OTHER THAN THE USER'S FBANK.  THE CALLING SEQUENCE IS AS FOLLOWS:
000133:                                                                                                  #        L       TC      USPRCADR
000134:                                                                                                  #        L+1     CADR    INTPRETX        INTPRETX IS THE INTERPRETIVE CODING
000135:                                                                                                  #                                        RETURN IS TO L+2
000136:
000137:    4756           56002        USEPRET            XCH      Q                                     #  FETCH Q, SAVING A
000138:    4757           54164                           TS       LOC                                   #  L+1 TO LOC
000139:    4760           30006                           CA       BBANK
000140:    4761           54165                           TS       BANKSET                               #  USER'S BBANK TO BANKSET
000141:    4762           35017                           CA       BIT8
000142:    4763           54023                           TS       EDOP                                  #  EXIT INSTRUCTION TO EDOP
000143:    4764           30002                           CA       Q                                     #  RETRIEVE ORIGINAL A
000144:    4765           00164                           TC       LOC
000145:
000146:    4766           54164        USPRCADR           TS       LOC                                   #  SAVE A
000147:    4767           35017                           CA       BIT8
000148:    4770           54023                           TS       EDOP                                  #  EXIT INSTRUCTION TO EDOP
000149:    4771           30006                           CA       BBANK
000150:    4772           54165                           TS       BANKSET                               #  USER'S BBANK TO BANKSET
000151:    4773           50002                           INDEX    Q
000152:    4774           30000                           CA       0
000153:    4775           54004                           TS       FBANK                                 #  INTERPRETIVE BANK TO FBANK
000154:    4776           75062                           MASK     LOW10                                 #  YIELDS INTERPRETIVE RELATIVE ADDRESS
000155:    4777           56002                           XCH      Q                                     #  INTERPRETIVE ADDRESS TO Q, FETCHING L+1
000156:    5000           56164                           XCH      LOC                                   #  L+1 TO LOC, RETRIEVING ORIGINAL A
000157:    5001           14702                           TCF      Q+10000
000158:
000159:                                                                                                  #  THERE ARE FOUR POSSIBLE SETTINGS FOR CHANNEL 07.  (CHANNEL 07 CONTAINS THE SUPERBANK SETTING.)
000160:
000161:                                                                                                  #                                        PSEUDO-FIXED      OCTAL PSEUDO
000162:                                                                                                  #  SUPERBANK     SETTING S-REG. VALUE    BANK NUMBERS      ADDRESSES
000163:                                                                                                  #  ----------    ------- ------------     ------------      ------------
000164:                                                                                                  #  SUPERBANK 3     0XX    2000 - 3777       30 - 37       70000 - 107777         (WHERE XX CAN BE ANYTHING AND
000165:                                                                                                  #                                                                                WILL USUALLY BE SEEN AS 11)
000166:                                                                                                  #  SUPERBANK 4     100    2000 - 3777       40 - 47      110000 - 127777         (AS FAR AS IT CAN BE SEEN,
000167:                                                                                                  #                                                                                ONLY BANKS 40-43 WILL EVER BE
000168:                                                                                                  #                                                                                AND ARE PRESENTLY AVAILABLE)
000169:                                                                                                  #  SUPERBANK 5     101    2000 - 3777       50 - 57      130000 - 147777         (PRESENTLY NOT AVAILABLE TO
000170:                                                                                                  #                                                                                THE USER)
000171:                                                                                                  #  SUPERBANK 6     110    2000 - 3777       60 - 67      150000 - 167777         (PRESENTLY NOT AVAILABLE TO
000172:                                                                                                  #                                                                                THE USER)
000173:                                                                                                  #  *** THIS ROUTINE MAY BE CALLED BY ANY PROGRAM LOCATED IN BANKS 00 - 27.  I.E., NO PROGRAM LIVING IN ANY
000174:                                                                                                  #  SUPERBANK SHOULD USE SUPERSW. ***
000175:
000176:                                                                                                  #  SUPERSW MAY BE CALLED IN THIS FASHION:
000177:                                                                                                  #        CAF     ABBCON          WHERE   -- ABBCON   BBCON  SOMETHIN  --
000178:                                                                                                  #        TCR     SUPERSW         (THE SUPERBNK BITS ARE IN THE BBCON)
000179:                                                                                                  #        ...       ...
000180:                                                                                                  #         .         .
000181:                                                                                                  #         .         .
000182:                                                                                                  #  OR IN THIS FASHION:
000183:                                                                                                  #        CAF     SUPERSET        WHERE SUPERSET IS ONE OF THE FOUR AVAILABLE
000184:                                                                                                  #        TCR     SUPERSW         SUPERBANK BIT CONSTANTS:
000185:                                                                                                  #        ...       ...                                   SUPER011 OCTAL  60
000186:                                                                                                  #         .         .                                    SUPER100 OCTAL 100
000187:                                                                                                  #         .         .                                    SUPER101 OCTAL 120
000188:                                                                                                  #                                                        SUPER110 OCTAL 140
000189:
000190:    5002           00006        SUPERSW            EXTEND
000191:    5003           01007                           WRITE    SUPERBNK                              #  WRITE BITS 7-6-5 OF THE ACCUMULATOR INTO
000192:                                                                                                  #  CHANNEL 07
000193:    5004           00002                           TC       Q                                     #  TC TO INSTRUCTION FOLLOWING
000194:                                                                                                  #   TC SUPERSW
000195:

End of include-file INTER-BANK_COMMUNICATION.agc.  Parent file is MAIN.agc


