
Source Code


000002:                                                                                                  ## Copyright:   Public domain.
000003:                                                                                                  ## Filename:    INTERPRETIVE_CONSTANTS.agc
000004:                                                                                                  ## Purpose:     A section of an attempt to reconstruct Sundance revision 306
000005:                                                                                                  ##              as closely as possible with available information. Sundance
000006:                                                                                                  ##              306 is the source code for the Lunar Module's (LM) Apollo
000007:                                                                                                  ##              Guidance Computer (AGC) for Apollo 9. This program was created
000008:                                                                                                  ##              using the mixed-revision SundanceXXX as a starting point, and
000009:                                                                                                  ##              pulling back features from Luminary 69 believed to have been
000010:                                                                                                  ##              added based on memos, checklists, observed address changes,
000011:                                                                                                  ##              or the Sundance GSOPs.
000012:                                                                                                  ## Assembler:   yaYUL
000013:                                                                                                  ## Contact:     Ron Burkey <info@sandroid.org>.
000014:                                                                                                  ## Website:     www.ibiblio.org/apollo/index.html
000015:                                                                                                  ## Mod history: 2020-07-24 MAS  Created from SundanceXXX.
000016:
000017:
000018:
000019: 23,2000                                           SETLOC   INTPRET1
000020: 23,2000                                           BANK
000021:
000022: 23,2222                                           COUNT*   $$/ICONS
000023: 23,2222           10000 00000  DP1/4TH            2DEC     .25
000024:
000025: 23,2224           00000 00000  UNITZ              2DEC     0          B-28
000026:
000027: 23,2226           00000 00000  UNITY              2DEC     0          B-28
000028:
000029: 23,2230           20000 00000  UNITX              2DEC     .5
000030:
000031: 23,2232           00000 00000  ZEROVECS           2DEC     0          B-28
000032:
000033: 23,2234           00000 00000                     2DEC     0          B-28
000034:
000035: 23,2236           00000 00000                     2DEC     0          B-28
000036:
000037: 23,2240  23,2230               DPHALF             =        UNITX
000038: 23,2240           37777        DPPOSMAX           OCT      37777
000039: 23,2241           37777                           OCT      37777
000040:
000041:                                                                                                  #  INTERPRETIVE CONSTANTS IN THE OTHER HALF-MEMORY
000042:
000043: 11,2000                                           SETLOC   INTPRET2
000044: 11,2000                                           BANK
000045:
000046: 11,2267                                           COUNT*   $$/ICONS
000047: 11,2267           00000 00000  ZUNIT              2DEC     0          B-28
000048:
000049: 11,2271           00000 00000  YUNIT              2DEC     0          B-28
000050:
000051: 11,2273           20000 00000  XUNIT              2DEC     .5
000052:
000053: 11,2275           00000 00000  ZEROVEC            2DEC     0          B-28
000054:
000055: 11,2277           00000 00000                     2DEC     0          B-28
000056:
000057: 11,2301           00000 00000                     2DEC     0          B-28
000058:
000059: 11,2303           77777                           OCT      77777                                 #  -0, -6, -12 MUST REMAIN IN THIS ORDER
000060: 11,2304           77771        DFC-6              DEC      -6         B-14
000061: 11,2305           77763        DFC-12             DEC      -12        B-14
000062: 11,2306           37777 37777  LODPMAX            2OCT     3777737777                            #  THESE TWO CONSTANTS MUST REMAIN
000063:
000064: 11,2310           37777 37777  LODPMAX1           2OCT     3777737777                            #  ADJACENT AND THE SAME FOR INTEGRATION
000065:
000066: 11,2312  11,2275               ZERODP             =        ZEROVEC
000067: 11,2312  11,2273               HALFDP             =        XUNIT
000068:
000069:

End of include-file INTERPRETIVE_CONSTANTS.agc.  Parent file is MAIN.agc


