
Source Code


000002:                                                                                                  ## Copyright:   Public domain.
000003:                                                                                                  ## Filename:    INTERRUPT_LEAD_INS.agc
000004:                                                                                                  ## Purpose:     A section of an attempt to reconstruct Sundance revision 306
000005:                                                                                                  ##              as closely as possible with available information. Sundance
000006:                                                                                                  ##              306 is the source code for the Lunar Module's (LM) Apollo
000007:                                                                                                  ##              Guidance Computer (AGC) for Apollo 9. This program was created
000008:                                                                                                  ##              using the mixed-revision SundanceXXX as a starting point, and
000009:                                                                                                  ##              pulling back features from Luminary 69 believed to have been
000010:                                                                                                  ##              added based on memos, checklists, observed address changes,
000011:                                                                                                  ##              or the Sundance GSOPs.
000012:                                                                                                  ## Assembler:   yaYUL
000013:                                                                                                  ## Contact:     Ron Burkey <info@sandroid.org>.
000014:                                                                                                  ## Website:     www.ibiblio.org/apollo/index.html
000015:                                                                                                  ## Mod history: 2020-07-24 MAS  Created from SundanceXXX.
000016:
000017:
000018:
000019:    4000                                           SETLOC   4000
000020:
000021:    4000                                           COUNT*   $$/RUPTS                              #  FIX-FIX LEAD INS
000022:    4000           00004                           INHINT                                         #  GO
000023:    4001           34054                           CAF      GOBB
000024:    4002           56006                           XCH      BBANK
000025:    4003           12451                           TCF      GOPROG
000026:
000027:    4004           52011                           DXCH     ARUPT                                 #  T6RUPT
000028:    4005           00006                           EXTEND
000029:    4006           35753                           DCA      T6ADR
000030:    4007           52006                           DTCB
000031:
000032:    4010           52011                           DXCH     ARUPT                                 #  T5RUPT - AUTOPILOT
000033:    4011           40030                           CS       TIME5
000034:    4012           65044                           AD       .5SEC
000035:    4013           14065                           TCF      T5RUPT
000036:
000037:    4014           52011                           DXCH     ARUPT                                 #  T3RUPT
000038:    4015           34056                           CAF      T3RPTBB
000039:    4016           56006                           XCH      BBANK
000040:    4017           13212                           TCF      T3RUPT
000041:
000042:    4020           52011                           DXCH     ARUPT                                 #  T4RUPT
000043:    4021           34063                           CAF      T4RPTBB
000044:    4022           56006                           XCH      BBANK
000045:    4023           12000                           TCF      T4RUPT
000046:
000047:    4024           52011                           DXCH     ARUPT                                 #  KEYRUPT1
000048:    4025           34057                           CAF      KEYRPTBB
000049:    4026           56006                           XCH      BBANK
000050:    4027           13107                           TCF      KEYRUPT1
000051:
000052:    4030           52011                           DXCH     ARUPT                                 #  KEYRUPT2
000053:    4031           34060                           CAF      MKRUPTBB
000054:    4032           56006                           XCH      BBANK
000055:    4033           12357                           TCF      MARKRUPT
000056:
000057:    4034           52011                           DXCH     ARUPT                                 #  UPRUPT
000058:    4035           34057                           CAF      UPRPTBB
000059:    4036           56006                           XCH      BBANK
000060:    4037           13132                           TCF      UPRUPT
000061:
000062:    4040           52011                           DXCH     ARUPT                                 #  DOWNRUPT
000063:    4041           34061                           CAF      DWNRPTBB
000064:    4042           56006                           XCH      BBANK
000065:    4043           13153                           TCF      DODOWNTM
000066:
000067:    4044           52011                           DXCH     ARUPT                                 #  RADAR RUPT
000068:    4045           34062                           CAF      RDRPTBB
000069:    4046           56006                           XCH      BBANK
000070:    4047           13122                           TCF      RADAREAD
000071:
000072:    4050           52011                           DXCH     ARUPT                                 #  RUPT10 IS USED ONLY BY LANDING GUIDANCE
000073:    4051           34064                           CA       RUPT10BB
000074:    4052           56006                           XCH      BBANK
000075:    4053           12000                           TCF      PITFALL
000076:
000077:
000078:    4054  E3,1400                                  EBANK=   LST1                                  #  RESTART USES E0, E3
000079:    4054           12003        GOBB               BBCON    GOPROG
000080:
000081:    4055     0025                                  EBANK=   TIME1
000082:    4055           04000        T6RPTBB            BBCON    RESUME                                #  ***FIX LATER***
000083:
000084:    4056  E3,1400                                  EBANK=   LST1
000085:    4056           02003        T3RPTBB            BBCON    T3RUPT
000086:
000087:    4057     0073                                  EBANK=   KEYTEMP1
000088:    4057           10000        KEYRPTBB           BBCON    KEYRUPT1
000089:
000090:    4060  E7,1404                                  EBANK=   AOTAZ
000091:    4060           16007        MKRUPTBB           BBCON    MARKRUPT
000092:
000093:    4061     4057               UPRPTBB            =        KEYRPTBB
000094:
000095:    4061     0340                                  EBANK=   DNTMBUFF
000096:    4061           12000        DWNRPTBB           BBCON    DODOWNTM
000097:
000098:    4062     1101                                  EBANK=   RADMODES
000099:    4062           52002        RDRPTBB            BBCON    RADAREAD
000100:
000101:    4063  E6,1412                                  EBANK=   M11
000102:    4063           14006        T4RPTBB            BBCON    T4RUPT
000103:
000104:    4064  E7,1656                                  EBANK=   ELVIRA
000105:    4064           42007        RUPT10BB           BBCON    PITFALL
000106:
000107:    4065           00006        T5RUPT             EXTEND
000108:    4066           65344                           BZMF     NOQBRSM
000109:    4067           00006                           EXTEND
000110:    4070           31277                           DCA      T5ADR
000111:    4071           52006                           DTCB

End of include-file INTERRUPT_LEAD_INS.agc.  Parent file is MAIN.agc


