
Source Code


000002:                                                                                                  ## Copyright:   Public domain.
000003:                                                                                                  ## Filename:    KALMAN_FILTER.agc
000004:                                                                                                  ## Purpose:     A section of an attempt to reconstruct Sundance revision 306
000005:                                                                                                  ##              as closely as possible with available information. Sundance
000006:                                                                                                  ##              306 is the source code for the Lunar Module's (LM) Apollo
000007:                                                                                                  ##              Guidance Computer (AGC) for Apollo 9. This program was created
000008:                                                                                                  ##              using the mixed-revision SundanceXXX as a starting point, and
000009:                                                                                                  ##              pulling back features from Luminary 69 believed to have been
000010:                                                                                                  ##              added based on memos, checklists, observed address changes,
000011:                                                                                                  ##              or the Sundance GSOPs.
000012:                                                                                                  ## Assembler:   yaYUL
000013:                                                                                                  ## Contact:     Ron Burkey <info@sandroid.org>.
000014:                                                                                                  ## Website:     www.ibiblio.org/apollo/index.html
000015:                                                                                                  ## Mod history: 2020-07-24 MAS  Created from SundanceXXX.
000016:
000017:
000018:
000019: 17,3526  E6,1514                                  EBANK=   NO.UJETS
000020: 16,3705                                           BANK     16
000021: 16,2000                                           SETLOC   DAPS1
000022: 16,2000                                           BANK
000023:
000024: 16,3705                                           COUNT*   $$/DAP
000025:
000026: 16,3705           35025        RATELOOP           CA       TWO
000027: 16,3706           55741                           TS       DAPTEMP6
000028: 16,3707           51741                           INDEX    DAPTEMP6
000029: 16,3710           11516                           CCS      TJP
000030: 16,3711           13713                           TCF      +2
000031: 16,3712           13732                           TCF      LOOPRATE
000032: 16,3713           63764                           AD       -100MST6
000033: 16,3714           00006                           EXTEND
000034: 16,3715           63742                           BZMF     SMALLTJU
000035: 16,3716           51741                           INDEX    DAPTEMP6
000036: 16,3717           11516                           CCS      TJP
000037: 16,3720           33764                           CA       -100MST6
000038: 16,3721           13723                           TCF      +2
000039: 16,3722           43764                           CS       -100MST6
000040: 16,3723           51741                           INDEX    DAPTEMP6
000041: 16,3724           27516                           ADS      TJP
000042: 16,3725           51741                           INDEX    DAPTEMP6
000043: 16,3726           11516                           CCS      TJP
000044: 16,3727           43661                           CS       -100MS                                #  0.1 AT 1
000045: 16,3730           13732                           TCF      +2
000046: 16,3731           33661                           CA       -100MS
000047: 16,3732           00006        LOOPRATE           EXTEND
000048: 16,3733           51741                           INDEX    DAPTEMP6
000049: 16,3734           71513                           MP       NO.PJETS
000050: 16,3735           51741                           INDEX    DAPTEMP6
000051: 16,3736           23734                           LXCH     DAPTEMP1                              #  SIGNED TORQUE AT 1 JET-SEC FOR FILTER
000052: 16,3737           11741                           CCS      DAPTEMP6
000053: 16,3740           13706                           TCF      RATELOOP   +1
000054: 16,3741           13751                           TCF      ROTORQUE
000055: 16,3742           35030        SMALLTJU           CA       ZERO
000056: 16,3743           51741                           INDEX    DAPTEMP6
000057: 16,3744           57516                           XCH      TJP
000058: 16,3745           00006                           EXTEND
000059: 16,3746           74375                           MP       TEN
000060: 16,3747           30001                           CA       L
000061: 16,3750           13732                           TCF      LOOPRATE
000062: 16,3751           31735        ROTORQUE           CA       DAPTEMP2
000063: 16,3752           61736                           AD       DAPTEMP3
000064: 16,3753           00006                           EXTEND
000065: 16,3754           71524                           MP       1JACCR
000066: 16,3755           55744                           TS       JETRATER
000067: 16,3756           41736                           CS       DAPTEMP3
000068: 16,3757           61735                           AD       DAPTEMP2
000069: 16,3760           00006                           EXTEND
000070: 16,3761           71523                           MP       1JACCQ
000071: 16,3762           55743                           TS       JETRATEQ
000072: 16,3763           12532                           TCF      BACKP
000073: 16,3764           77537        -100MST6           DEC      -160       B-14
000074:

End of include-file KALMAN_FILTER.agc.  Parent file is MAIN.agc


