
Source Code


000002:                                                                                                  ## Copyright:   Public domain.
000003:                                                                                                  ## Filename:    LATITUDE_LONGITUDE_SUBROUTINES.agc
000004:                                                                                                  ## Purpose:     A section of an attempt to reconstruct Sundance revision 306
000005:                                                                                                  ##              as closely as possible with available information. Sundance
000006:                                                                                                  ##              306 is the source code for the Lunar Module's (LM) Apollo
000007:                                                                                                  ##              Guidance Computer (AGC) for Apollo 9. This program was created
000008:                                                                                                  ##              using the mixed-revision SundanceXXX as a starting point, and
000009:                                                                                                  ##              pulling back features from Luminary 69 believed to have been
000010:                                                                                                  ##              added based on memos, checklists, observed address changes,
000011:                                                                                                  ##              or the Sundance GSOPs.
000012:                                                                                                  ## Assembler:   yaYUL
000013:                                                                                                  ## Contact:     Ron Burkey <info@sandroid.org>.
000014:                                                                                                  ## Website:     www.ibiblio.org/apollo/index.html
000015:                                                                                                  ## Mod history: 2020-07-24 MAS  Created from SundanceXXX.
000016:
000017:
000018:
000019:                                                                                                  #  SUBROUTINE TO CONVERT RAD VECTOR AT GIVEN TIME TO LAT,LONG AND ALT
000020:
000021:                                                                                                  #  CALLING SEQUENCE
000022:                                                                                                  #        L-1     CALL
000023:                                                                                                  #        L               LAT-LONG
000024:
000025:                                                                                                  #  SUBROUTINES USED
000026:                                                                                                  #        R-TO-RP,ARCTAN,SETGAMMA,SETRE
000027:
000028:                                                                                                  #  ERASABLE INIT. REQ.
000029:                                                                                                  #        AXO,-AYO,AZO,TEPHEM (SET AT LAUNCH TIME)
000030:                                                                                                  #        ALPHAV = POSITION VECTOR METERS B-29
000031:                                                                                                  #        MPAC-- TIME (CSECS B-28)
000032:                                                                                                  #        ERADFLAG =1, TO COMPUTE EARTH RADIUS, =0 FOR FIXED EARTH RADIUS
000033:                                                                                                  #        LUNAFLAG=0 FOR EARTH, 1 FOR MOON
000034:
000035:                                                                                                  #  OUTPUT
000036:                                                                                                  #        LATITUDE IN LAT         (REVS. B-0)
000037:                                                                                                  #        LONGITUDE IN LONG       (REVS. B-0)
000038:                                                                                                  #        ALTITUDE IN ALT         METERS B-29
000039:
000040: 30,3645                                           BANK     30
000041: 13,2000                                           SETLOC   LATLONG
000042: 13,2000                                           BANK
000043:
000044: 13,2323                                           COUNT*   $$/LT-LG
000045: 13,2323  E4,1433                                  EBANK=   ALPHAV
000046: 13,2323           40220        LAT-LONG           STQ      SETPD
000047: 13,2324           03661                                    INCORPEX
000048: 13,2325           00001                                    0D
000049: 13,2326           24007                           STOVL    6D                                    #  SAVE TIME IN 6-7D FOR R-TO-RP
000050: 13,2327           02034                                    ALPHAV
000051: 13,2330           51406                           PUSH     ABVAL                                 #  0-5D= R FOR R-TO-RP
000052: 13,2331           16072                           STODL    ALPHAM                                #  ABS. VALUE OF R FOR ALT FORMULA BELOW
000053: 13,2332           22276                                    ZEROVEC                               #  SET MPAC=0 FOR EARTH, NON-ZERO FOR MOON
000054: 13,2333           71414                           BOFF     COS                                   #  USE COS(0) TO GET NON-ZERO IN MPAC
000055: 13,2334           01743                                    LUNAFLAG                              #  0=EARTH, 1=MOON
000056: 13,2335           26336                                    CALLRTRP
000057: 13,2336           77624        CALLRTRP           CALL
000058: 13,2337           51247                                    R-TO-RP                               #  RP VECTOR CONVERTED FROM R B-29
000059: 13,2340           77656                           UNIT                                           #  UNIT RP B-1
000060: 13,2341           36034                           STCALL   ALPHAV                                #  U2= 1/2 SINL FOR SETRE SUBR BELOW
000061: 13,2342           26524                                    SETGAMMA                              #        SET GAMMA=B2/A2 FOR EARTH,=1 FOR MOON
000062: 13,2343           77624                           CALL                                           #        SCALED B-1
000063: 13,2344           26534                                    SETRE                                 #  CALC RE METERS B-29
000064: 13,2345           63545                           DLOAD    DSQ
000065: 13,2346           02034                                    ALPHAV
000066: 13,2347           63525                           PDDL     DSQ
000067: 13,2350           02036                                    ALPHAV     +2
000068: 13,2351           75415                           DAD      SQRT
000069: 13,2352           76405                           DMP      SL1R
000070: 13,2353           00011                                    GAMRP
000071: 13,2354           14021                           STODL    COSTH                                 #  COS(LAT) B-1
000072: 13,2355           02040                                    ALPHAV     +4
000073: 13,2356           34023                           STCALL   SINTH                                 #  SIN(LAT) B-1
000074: 13,2357           26464                                    ARCTAN
000075: 13,2360           15124                           STODL    LAT                                   #  LAT B0
000076: 13,2361           02034                                    ALPHAV
000077: 13,2362           14021                           STODL    COSTH                                 #  COS(LONG) B-1
000078: 13,2363           02036                                    ALPHAV     +2
000079: 13,2364           34023                           STCALL   SINTH                                 #  SIN(LONG) B-1
000080: 13,2365           26464                                    ARCTAN
000081: 13,2366           15126                           STODL    LONG                                  #  LONG. REVS B-0 IN RANGE -1/2 TO 1/2
000082: 13,2367           02072                                    ALPHAM
000083: 13,2370           77625                           DSU                                            #  ALT= R-RE METERS B-29
000084: 13,2371           03660                                    ERADM
000085: 13,2372           35130                           STCALL   ALT                                   #  EXIT WITH ALT METERS B-29
000086: 13,2373           03661                                    INCORPEX
000087:                                                                                                  #  SUBROUTINE TO CONVERT LAT,LONG,ALT AT GIVEN TIME TO RADIUS VECTOR
000088:
000089:                                                                                                  #  CALLING SEQUENCE
000090:                                                                                                  #        L-1     CALL
000091:                                                                                                  #        L               LALOTORV
000092:
000093:                                                                                                  #  SUBROUTINES USED
000094:                                                                                                  #        SETGAMMA,SETRE,RP-TO-R
000095:
000096:                                                                                                  #  ERASABLE INIT. REQ.
000097:                                                                                                  #        AXO,AYO,AZO,TEPHEM SET AT LAUNCH TIME
000098:                                                                                                  #        LAT-- LATITUDE  (REVS B0)
000099:                                                                                                  #        LONG-- LONGITUDE        (REVS B0)
000100:                                                                                                  #        ALT--ALTITUDE           (METERS) B-29
000101:                                                                                                  #        MPAC-- TIME             (CSECS B-28)
000102:                                                                                                  #        ERADFLAG =1 TO COMPUTE EARTH RADIUS, =0 FOR FIXED EARTH RADIUS
000103:                                                                                                  #        LUNAFLAG=0 FOR EARTH, 1 FOR MOON
000104:
000105:                                                                                                  #  OUTPUT
000106:                                                                                                  #        R-VECTOR IN ALPHAV      (METERS B-29)
000107:
000108: 13,2374           40220        LALOTORV           STQ      SETPD                                 #  LAT,LONG,ALT TO R VECTOR
000109: 13,2375           03661                                    INCORPEX
000110: 13,2376           00001                                    0D
000111: 13,2377           34007                           STCALL   6D                                    #  6-7D= TIME FOR RP-TO-R
000112: 13,2400           26524                                    SETGAMMA                              #  GAMMA=B2/A2 FOR EARTH,1 FOR MOON B-1
000113: 13,2401           73545                           DLOAD    SIN                                   #                COS(LONG)COS(LAT) IN MPAC
000114: 13,2402           01124                                    LAT                                   #      UNIT RP=  SIN(LONG)COS(LAT)    2-3D
000115: 13,2403           65275                           DMPR     PDDL                                  #  PD 2          GAMMA*SIN(LAT)       0-1D
000116: 13,2404           00011                                    GAMRP
000117: 13,2405           01124                                    LAT                                   #         0-1D=  GAMMA*SIN(LAT) B-2
000118: 13,2406           65346                           COS      PDDL                                  #  PD 4     2-3D=COS(LAT) B-1 TEMPORARILY
000119: 13,2407           01126                                    LONG
000120: 13,2410           57356                           SIN      DMPR                                  #  PD 2
000121: 13,2411           71525                           PDDL     COS                                   #  PD 4   2-3D=SIN(LONG)COS(LAT) B-2
000122: 13,2412           01124                                    LAT
000123: 13,2413           71525                           PDDL     COS                                   #  PD 6   4-5D=COS(LAT) B-1 TEMPORARILY
000124: 13,2414           01126                                    LONG
000125: 13,2415           55475                           DMPR     VDEF                                  #  PD 4   MPAC=  COS(LONG)COS(LAT) B-2
000126: 13,2416           41456                           UNIT     PUSH                                  #  0-5D= UNIT RP FOR RP-TO-R SUBR.
000127: 13,2417           36034                           STCALL   ALPHAV                                #  ALPHAV +4= SINL FOR SETRE SUBR.
000128: 13,2420           26534                                    SETRE                                 #  RE METERS B-29
000129: 13,2421           43145                           DLOAD    BOFF                                  #  SET MPAC=0 FOR EARTH, NON-ZERO FOR MOON
000130: 13,2422           22276                                    ZEROVEC
000131: 13,2423           01743                                    LUNAFLAG
000132: 13,2424           26426                                    CALLRPRT
000133: 13,2425           77746                           COS                                            #  USE COS(0) TO GET NON-ZERO IN MPAC
000134: 13,2426           77624        CALLRPRT           CALL
000135: 13,2427           51222                                    RP-TO-R                               #  EXIT WITH UNIT R VECTOR IN MPAC
000136: 13,2430           16034                           STODL    ALPHAV
000137: 13,2431           03660                                    ERADM
000138: 13,2432           74215                           DAD      VXSC                                  #  (RE + ALT)(UNIT R) METERS B-30
000139: 13,2433           01130                                    ALT
000140: 13,2434           02034                                    ALPHAV
000141: 13,2435           77772                           VSL1                                           #  R METERS B-29
000142: 13,2436           36034                           STCALL   ALPHAV                                #  EXIT WITH R IN METERS B-29
000143: 13,2437           03661                                    INCORPEX
000144:
000145:                                                                                                  #  SUBROUTINE TO COMPUTE EARTH RADIUS
000146:
000147:                                                                                                  #  INPUT
000148:                                                                                                  #        1/2 SIN LAT IN ALPHAV +4
000149:
000150:                                                                                                  #  OUTPUT
000151:                                                                                                  #        EARTH RADIUS IN ERADM AND MPAC (METERS B-29)
000152:
000153: 13,2440           63545        GETERAD            DLOAD    DSQ
000154: 13,2441           02040                                    ALPHAV     +4                         #  SIN**2(L)
000155: 13,2442           44352                           SL1      BDSU
000156: 13,2443           22274                                    DP1/2                                 #  COS**2(L)
000157: 13,2444           44275                           DMPR     BDSU
000158: 13,2445           26461                                    EE
000159: 13,2446           22274                                    DP1/2
000160: 13,2447           75465                           BDDV     SQRT
000161: 13,2450           26455                                    B2XSC
000162: 13,2451           77622                           SR4R
000163: 13,2452           03660                           STORE    ERADM
000164: 13,2453           77616                           RVQ
000165:
000166:                                                                                                  #  THE FOLLOWING CONSTANTS WERE COMPUTED WITH A=6378166, B=6356784 METERS
000167:                                                                                                  #  B2XSC= B**2 SCALED B-51
000168:                                                                                                  #  B2/A2= B**2/A**2 SCALED B-1
000169:                                                                                                  #  EE=(1-B**2/A**2) SCALED B-0
000170:
000171: 13,2454           00446 00305  B2XSC              2DEC     .0179450689                            #  B**2 SCALED B-51
000172: 13,2456  11,2273               DP1/2              =        XUNIT
000173: 13,2456           17711 05254  B2/A2              2DEC     .9933064884 B-1                        #  GAMMA= B**2/A**2 B-1
000174: 13,2460           00155 25250  EE                 2DEC     6.6935116  E-3                        #  (1-B**2/A**2) B-0
000175: 13,2462           00302 17755  ERAD               2DEC     6373338    B-29                       #  PAD RADIUS
000176:
000177:                                                                                                  #  ARCTAN SUBROUTINE
000178:
000179:                                                                                                  #  CALLING SEQUENCE
000180:                                                                                                  #        SIN THETA IN SINTH B-1
000181:                                                                                                  #        COS THETA IN COSTH B-1
000182:                                                                                                  #        CALL ARCTAN
000183:
000184:                                                                                                  #  OUTPUT
000185:                                                                                                  #        ARCTAN THETA IN MPAC AND THETA B-0 IN RANGE -1/2 TO +1/2
000186:
000187: 13,2464           77600        ARCTAN             BOV
000188: 13,2465           26466                                    CLROVFLW
000189: 13,2466           63545        CLROVFLW           DLOAD    DSQ
000190: 13,2467           00023                                    SINTH
000191: 13,2470           63525                           PDDL     DSQ
000192: 13,2471           00021                                    COSTH
000193: 13,2472           77615                           DAD
000194: 13,2473           75454                           BZE      SQRT
000195: 13,2474           26512                                    ARCTANXX                              #  ATAN=0/0  SET THETA=0
000196: 13,2475           40065                           BDDV     BOV
000197: 13,2476           00023                                    SINTH
000198: 13,2477           26517                                    ATAN=90
000199: 13,2500           67542                           SR1      ASIN
000200: 13,2501           00025                           STORE    THETA
000201: 13,2502           50125                           PDDL     BMN
000202: 13,2503           00021                                    COSTH
000203: 13,2504           26506                                    NEGCOS
000204: 13,2505           43545                           DLOAD    RVQ
000205: 13,2506           57545        NEGCOS             DLOAD    DCOMP
000206: 13,2507           43244                           BPL      DAD
000207: 13,2510           26514                                    NEGOUT
000208: 13,2511           22274                                    DP1/2
000209: 13,2512           00025        ARCTANXX           STORE    THETA
000210: 13,2513           77616                           RVQ
000211:
000212: 13,2514           52025        NEGOUT             DSU      GOTO
000213: 13,2515           22274                                    DP1/2
000214: 13,2516           26512                                    ARCTANXX
000215: 13,2517           75345        ATAN=90            DLOAD    SIGN
000216: 13,2520           10676                                    LODP1/4
000217: 13,2521           00023                                    SINTH
000218: 13,2522           00025                           STORE    THETA
000219: 13,2523           77616                           RVQ
000220:
000221: 13,2524  11,2275               2DZERO             =        DPZERO
000222:
000223:                                                                                                  #  ..... SETGAMMA SUBROUTINE .....
000224:                                                                                                  #  SUBROUTINE TO SET GAMMA FOR THE LAT-LONG AND LALOTORV SUBROUTINES
000225:
000226:                                                                                                  #  GAMMA = B**2/A**2 FOR EARTH (B-1)
000227:                                                                                                  #  GAMMA = 1 FOR MOON (B-1)
000228:
000229:                                                                                                  #  CALLING SEQUENCE
000230:                                                                                                  #        L       CALL
000231:                                                                                                  #        L+1             SETGAMMA
000232:
000233:                                                                                                  #  INPUT
000234:                                                                                                  #        LUNAFLAG=0 FOR EARTH,=1 FOR MOON
000235:
000236:                                                                                                  #  OUTPUT
000237:                                                                                                  #        GAMMA IN GAMRP (B-1)
000238:
000239: 13,2524           43145        SETGAMMA           DLOAD    BOFF                                  #  BRANCH FOR EARTH
000240: 13,2525           26457                                    B2/A2                                 #  EARTH GAMMA
000241: 13,2526           01743                                    LUNAFLAG
000242: 13,2527           26532                                    SETGMEX
000243: 13,2530           77735                           SLOAD
000244: 13,2531           22274                                    1B1                                   #  MOON GAMMA
000245: 13,2532           00011        SETGMEX            STORE    GAMRP
000246: 13,2533           77616                           RVQ
000247: 13,2534                        GAMRP              =        8D
000248:
000249:                                                                                                  #  ..... SETRE SUBROUTINE .....
000250:                                                                                                  #  SUBROUTINE TO SET RE (EARTH OR MOON RADIUS)
000251:
000252:                                                                                                  #        RE= RM FOR MOON
000253:                                                                                                  #                RE= RREF FOR FIXED EARTH RADIUS OR COMPUTED RF FOR FISCHER ELLIPSOID
000254:
000255:                                                                                                  #  CALLING SEQUENCE
000256:                                                                                                  #        L       CALL
000257:                                                                                                  #        L+1             SETRE
000258:
000259:                                                                                                  #  SUBROUTINES USED
000260:                                                                                                  #        GETERAD
000261:
000262:                                                                                                  #  INPUT
000263:                                                                                                  #        ERADFLAG=0 FOR FIXED RE, 1 FOR COMPUTED RE
000264:                                                                                                  #        ALPHAV +4= 1/2 SINL IF GETERAD IS CALLED
000265:                                                                                                  #        LUNAFLAG=0 FOR EARTH,=1 FOR MOON
000266:
000267:                                                                                                  #  OUTPUT
000268:                                                                                                  #        ERADM= 504RM FOR MOON (METERS B-29)
000269:                                                                                                  #        ERADM= ERAD OR COMPUTED RF FOR EARTH (METERS B-29)
000270:
000271: 13,2534           71220        SETRE              STQ      DLOAD
000272: 13,2535           00051                                    SETREX
000273: 13,2536           26561                                    504RM
000274: 13,2537           71214                           BON      DLOAD                                 #  BRANCH FOR MOON
000275: 13,2540           01703                                    LUNAFLAG
000276: 13,2541           26551                                    TSTRLSRM
000277: 13,2542           26463                                    ERAD
000278: 13,2543           45014                           BOFF     CALL                                  #  ERADFLAG=0 FOR FIXED RE, 1 FOR COMPUTED
000279: 13,2544           00742                                    ERADFLAG
000280: 13,2545           26547                                    SETRXX
000281: 13,2546           26440                                    GETERAD
000282: 13,2547           37660        SETRXX             STCALL   ERADM                                 #  EXIT WITH RE OR RM METERS B-29
000283: 13,2550           00051                                    SETREX
000284: 13,2551           77214        TSTRLSRM           BON      VLOAD                                 #  ERADFLAG=0, SET R0=RLS
000285: 13,2552           00702                                    ERADFLAG                              #          =1      R0=RM
000286: 13,2553           26547                                    SETRXX
000287: 13,2554           02025                                    RLS
000288: 13,2555           64446                           ABVAL    SR2R                                  #  SCALE FROM B-27 TO B-29
000289: 13,2556           77650                           GOTO
000290: 13,2557           26547                                    SETRXX
000291: 13,2560  0000051               SETREX             =        S2
000292: 13,2560           00065 01265  504RM              2DEC     1738090    B-29                       #  METERS B-29 (EQUATORIAL MOON RADIUS)

End of include-file LATITUDE_LONGITUDE_SUBROUTINES.agc.  Parent file is MAIN.agc


