
Source Code


000002:                                                                                                  ## Copyright:   Public domain.
000003:                                                                                                  ## Filename:    LEM_GEOMETRY.agc
000004:                                                                                                  ## Purpose:     A section of an attempt to reconstruct Sundance revision 306
000005:                                                                                                  ##              as closely as possible with available information. Sundance
000006:                                                                                                  ##              306 is the source code for the Lunar Module's (LM) Apollo
000007:                                                                                                  ##              Guidance Computer (AGC) for Apollo 9. This program was created
000008:                                                                                                  ##              using the mixed-revision SundanceXXX as a starting point, and
000009:                                                                                                  ##              pulling back features from Luminary 69 believed to have been
000010:                                                                                                  ##              added based on memos, checklists, observed address changes,
000011:                                                                                                  ##              or the Sundance GSOPs.
000012:                                                                                                  ## Assembler:   yaYUL
000013:                                                                                                  ## Contact:     Ron Burkey <info@sandroid.org>.
000014:                                                                                                  ## Website:     www.ibiblio.org/apollo/index.html
000015:                                                                                                  ## Mod history: 2020-07-24 MAS  Created from SundanceXXX.
000016:                                                                                                  ##              2021-05-30 ABS  Replaced use of ANTENBIT with BIT12 to match
000017:                                                                                                  ##                              Luminary 69.
000018:
000019:
000020:
000021: 23,2000                                           BANK     23
000022: 13,2000                                           SETLOC   LEMGEOM
000023: 13,2000                                           BANK
000024:
000025: 13,2042  30,2000                                  SBANK=   LOWSUPER
000026: 13,2042  E5,1642                                  EBANK=   XSM
000027:
000028:                                                                                                  #  THESE TWO ROUTINES COMPUTE THE ACTUAL STATE VECTOR FOR LM,CSM BY ADDING
000029:                                                                                                  #  THE CONIC R,V AND THE DEVIATIONSR,V. THE STATE VECTORS ARE CONVERTED TO
000030:                                                                                                  #  METERS B-29 AND METERS/CSEC B-7 AND STORED APPROPRIATELY IN RN,VN OR
000031:                                                                                                  #  R-OTHER , V-OTHER FOR DOWNLINK. THE ROUTINES NAMES ARE SWITCHED IN THE
000032:                                                                                                  #  OTHER VEHICLES COMPUTER.
000033:
000034:                                                                                                  #  INPUT
000035:                                                                                                  #    STATE VECTOR IN TEMPORARY STORAGE AREA
000036:                                                                                                  #    IF STATE VECTOR IS SCALED POS B27 AND VEL B5
000037:                                                                                                  #       SET X2 TO +2
000038:                                                                                                  #    IF STATE VECTOR IS SCALED POS B29 AND VEL B7
000039:                                                                                                  #       SET X2 TO 0
000040:
000041:                                                                                                  #  OUTPUT
000042:                                                                                                  #    R(T) IN RN, V(T) IN VN, T IN PIPTIME
000043:                                                                                                  #  OR
000044:                                                                                                  #    R(T) IN R-OTHER, V(T) IN V-OTHER   (T IS DEFINED BY T-OTHER)
000045:
000046: 13,2042                                           COUNT*   $$/GEOM
000047: 13,2042           43414        SVDWN2             BOF      RVQ                                   #  SW=1=AVETOMID DOING W-MATRIX INTEG.
000048: 13,2043           04756                                    AVEMIDSW
000049: 13,2044           26045                                    +1
000050: 13,2045           53775                           VLOAD    VSL*
000051: 13,2046           01521                                    TDELTAV
000052: 13,2047           57605                                    0          -7,2
000053: 13,2050           53655                           VAD      VSL*
000054: 13,2051           01535                                    RCV
000055: 13,2052           57576                                    0,2
000056: 13,2053           25220                           STOVL    RN
000057: 13,2054           01527                                    TNUV
000058: 13,2055           53257                           VSL*     VAD
000059: 13,2056           57602                                    0          -4,2
000060: 13,2057           01543                                    VCV
000061: 13,2060           77657                           VSL*
000062: 13,2061           57576                                    0,2
000063: 13,2062           15226                           STODL    VN
000064: 13,2063           01517                                    TET
000065: 13,2064           01234                           STORE    PIPTIME
000066: 13,2065           77616                           RVQ
000067: 13,2066           53775        SVDWN1             VLOAD    VSL*
000068: 13,2067           01521                                    TDELTAV
000069: 13,2070           57605                                    0          -7,2
000070: 13,2071           53655                           VAD      VSL*
000071: 13,2072           01535                                    RCV
000072: 13,2073           57576                                    0,2
000073: 13,2074           25722                           STOVL    R-OTHER
000074: 13,2075           01527                                    TNUV
000075: 13,2076           53257                           VSL*     VAD
000076: 13,2077           57602                                    0          -4,2
000077: 13,2100           01543                                    VCV
000078: 13,2101           77657                           VSL*
000079: 13,2102           57576                                    0,2
000080: 13,2103           01730                           STORE    V-OTHER
000081: 13,2104           77616                           RVQ
000082:
000083:                                                                                                  #           THE FOLLOWING ROUTINE TAKES A HALF UNIT TARGET VECTOR REFERRED TO NAV BASE COORDINATES AND FINDS BOTH
000084:                                                                                                  #  GIMBAL ORIENTATIONS AT WHICH THE RR MIGHT SIGHT THE TARGET. THE GIMBAL ANGLES CORRESPONDING TO THE PRESENT MODE
000085:                                                                                                  #  ARE LEFT IN MODEA AND THOSE WHICH WOULD BE USED AFTER A REMODE IN MODEB. THIS ROUTINE ASSUMES MODE 1 IS TRUNNION
000086:                                                                                                  #  ANGLE LESS THAN 90 DEGS IN ABS VALUE WITH ARBITRARY SHAFT, WITH A CORRESPONDING DEFINITION FOR MODE 2. MODE
000087:                                                                                                  #  SELECTION AND LIMIT CHECKING ARE DONE ELSEWHERE.
000088:
000089:                                                                                                  #           THE MODE 1 CONFIGURATION IS CALCULATED FROM THE VECTOR AND THEN MODE 2 IS FOUND USING THE RELATIONS
000090:
000091:                                                                                                  #           S(2) = 180 + S(1)
000092:                                                                                                  #           T(2) = 180 - T(1)
000093:
000094:                                                                                                  #      THE VECTOR ARRIVES IN MPAC WHERE TRG*SMNG OR *SMNB* WILL HAVE LEFT IT.
000095:
000096: 13,2105           00041        RRANGLES           STORE    32D
000097: 13,2106           57545                           DLOAD    DCOMP                                 #  SINCE WE WILL FIND THE MODE 1 SHAFT
000098: 13,2107           00043                                    34D                                   #  ANGLE LATER, WE CAN FIND THE MODE 1
000099: 13,2110           67401                           SETPD    ASIN                                  #  TRUNNION BY SIMPLY TAKING THE ARCSIN OF
000100: 13,2111           00001                                    0                                     #  THE Y COMPONENT, THE ASIN GIVING AN
000101: 13,2112           44206                           PUSH     BDSU                                  #  ANSWER WHOSE ABS VAL IS LESS THAN 90 DEG
000102: 13,2113           22274                                    LODPHALF
000103: 13,2114           14005                           STODL    4                                     #  MODE 2 TRUNNION TO 4.
000104:
000105: 13,2115           22276                                    LO6ZEROS
000106: 13,2116           24043                           STOVL    34D                                   #  UNIT THE PROJECTION OF THE VECTOR
000107: 13,2117           00041                                    32D                                   #    IN THE X-Z PLANE
000108: 13,2120           41056                           UNIT     BOVB                                  #  IF OVERFLOW, TARGET VECTOR IS ALONG Y
000109: 13,2121           52400                                    LUNDESCH                              #  CALL FOR MANEUVER UNLESS ON LUNAR SURF
000110: 13,2122           14041                           STODL    32D                                   #  PROJECTION VECTOR.
000111: 13,2123           00041                                    32D
000112: 13,2124           44142                           SR1      STQ
000113: 13,2125           00051                                    S2
000114: 13,2126           14023                           STODL    SINTH                                 #  USE ARCTRIG SINCE SHAFT COULD BE ARB.
000115: 13,2127           00045                                    36D
000116: 13,2130           77742                           SR1
000117: 13,2131           34021                           STCALL   COSTH
000118: 13,2132           47114                                    ARCTRIG
000119: 13,2133           43206                           PUSH     DAD                                   #  MODE 1 SHAFT TO 2.
000120: 13,2134           22274                                    LODPHALF
000121: 13,2135           24007                           STOVL    6
000122: 13,2136           00005                                    4
000123: 13,2137           77634                           RTB                                            #  FIND MODE 2 CDU ANGLES.
000124: 13,2140           21533                                    2V1STO2S
000125: 13,2141           25115                           STOVL    MODEB
000126: 13,2142           00001                                    0
000127: 13,2143           77634                           RTB                                            #  MODE 1 ANGLES TO MODE A.
000128: 13,2144           21533                                    2V1STO2S
000129: 13,2145           01113                           STORE    MODEA
000130: 13,2146           77776                           EXIT
000131:
000132: 13,2147           41101                           CS       RADMODES                              #  SWAP MODEA AND MODEB IF RR IN MODE 2.
000133: 13,2150           75013                           MASK     BIT12
000134: 13,2151           10000                           CCS      A
000135: 13,2152           12156                           TCF      +4
000136:
000137: 13,2153           53113                           DXCH     MODEA
000138: 13,2154           53115                           DXCH     MODEB
000139: 13,2155           53113                           DXCH     MODEA
000140:
000141: 13,2156           06014                           TC       INTPRET
000142: 13,2157           77650                           GOTO
000143: 13,2160           00051                                    S2
000144:                                                                                                  #  GIVEN RR TRUNNION AND SHAFT (T,S) IN TANGNB,+1, FIND THE ASSOCIATED
000145:                                                                                                  #  LINE OF SIGHT IN NAV BASE AXES.  THE HALF UNIT VECTOR, .5(SIN(S)COS(T),
000146:                                                                                                  #  -SIN(T),COS(S)COS(T)) IS LEFT IN MPAC AND 32D.
000147:
000148: 23,2000                                           SETLOC   INFLIGHT
000149: 23,2000                                           BANK
000150:
000151: 23,2000                                           COUNT*   $$/GEOM
000152:
000153: 23,2000           47135        RRNB               SLOAD    RTB
000154: 23,2001           03744                                    TANGNB
000155: 23,2002           21457                                    CDULOGIC
000156: 23,2003           41401                           SETPD    PUSH                                  #  TRUNNION ANGLE TO 0
000157: 23,2004           00001                                    0
000158: 23,2005           57556                           SIN      DCOMP
000159: 23,2006           14043                           STODL    34D                                   #  Y COMPONENT
000160:
000161: 23,2007           41546                           COS      PUSH                                  #  .5 COS(T) TO 0
000162: 23,2010           47135                           SLOAD    RTB
000163: 23,2011           03745                                    TANGNB     +1
000164: 23,2012           21457                                    CDULOGIC
000165: 23,2013           71406                           PUSH     COS                                   #  SHAFT ANGLE TO 2
000166: 23,2014           72405                           DMP      SL1
000167: 23,2015           00001                                    0
000168: 23,2016           14045                           STODL    36D                                   #  Z COMPONENT
000169:
000170: 23,2017           41356                           SIN      DMP
000171: 23,2020           77752                           SL1
000172: 23,2021           24041                           STOVL    32D
000173: 23,2022           00041                                    32D
000174: 23,2023           77616                           RVQ

End of include-file LEM_GEOMETRY.agc.  Parent file is MAIN.agc


