
Source Code


000002:                                                                                                  ## Copyright:   Public domain.
000003:                                                                                                  ## Filename:    LUNAR_AND_SOLAR_EPHEMERIDES_SUBROUTINES.agc
000004:                                                                                                  ## Purpose:     A section of an attempt to reconstruct Sundance revision 306
000005:                                                                                                  ##              as closely as possible with available information. Sundance
000006:                                                                                                  ##              306 is the source code for the Lunar Module's (LM) Apollo
000007:                                                                                                  ##              Guidance Computer (AGC) for Apollo 9. This program was created
000008:                                                                                                  ##              using the mixed-revision SundanceXXX as a starting point, and
000009:                                                                                                  ##              pulling back features from Luminary 69 believed to have been
000010:                                                                                                  ##              added based on memos, checklists, observed address changes,
000011:                                                                                                  ##              or the Sundance GSOPs.
000012:                                                                                                  ## Assembler:   yaYUL
000013:                                                                                                  ## Contact:     Ron Burkey <info@sandroid.org>.
000014:                                                                                                  ## Website:     www.ibiblio.org/apollo/index.html
000015:                                                                                                  ## Mod history: 2020-07-24 MAS  Created from SundanceXXX.
000016:
000017:
000018:
000019:                                                                                                  #  NAME - LSPOS  - LOCATE SUN AND MOON                   DATE - 25 OCT 67
000020:                                                                                                  #  MOD NO.1
000021:                                                                                                  #  MOD BY NEVILLE                                        ASSEMBLY SUNDANCE
000022:
000023:                                                                                                  #  FUNCTIONAL DESCRIPTION
000024:
000025:                                                                                                  #         COMPUTES UNIT POSITION VECTOR OF THE SUN AND MOON IN THE BASIC REFERENCE SYSTEM. THE SUN VECTOR S IS
000026:                                                                                                  #  LOCATED VIA TWO ANGLES. THE FIRST ANGLE(OBLIQUITY) IS THE ANGLE BETWEEN THE EARTH EQUATOR AND THE ECLIPTIC. THE
000027:                                                                                                  #  SECOND ANGLE IS THE LONGITUDE OF THE SUN MEASURED IN THE ECLIPTIC.
000028:                                                                                                  #  THE POSITION VECTOR OF THE SUN IS
000029:                                                                                                  #        -
000030:                                                                                                  #        S = (COS(LOS), COS(OBL)*SIN(LOS), SIN(OBL)*SIN(LOS)), WHERE
000031:
000032:                                                                                                  #        LOS = LOS +LOS *T-(C *SIN(2PI*T)/365.24 +C *COS(2PI*T)/365.24)
000033:                                                                                                  #                 0    R     0                     1
000034:                                                                                                  #        LOS  (RAD) IS THE LONGITUDE OF THE SUN FOR MIDNIGHT JUNE 30TH OF THE PARTICULAR YEAR.
000035:                                                                                                  #           0
000036:                                                                                                  #        LOS  (RAD/DAY) IS THE MEAN RATE FOR THE PARTICULAR YEAR.
000037:                                                                                                  #           R
000038:
000039:                                                                                                  #  LOS  AND LOS  ARE STORED AS LOSC AND LOSR IN RATESP.
000040:                                                                                                  #     0        R
000041:                                                                                                  #  COS(OBL) AND SIN(OBL) ARE STORED IN THE MATRIX KONMAT.
000042:                                                                                                  #  T, TIME MEASURED IN DAYS (24 HOURS), IS STORED IN TIMEP.
000043:                                                                                                  #  C  AND C  ARE FUDGE FACTORS TO MINIMIZE THE DEVIATION.  THEY ARE STORED AS ONE CONSTANT (CMOD), SINCE
000044:                                                                                                  #   0      1                               2  2 1/2
000045:                                                                                                  #  C *SIN(X)+C *COS(X) CAN BE WRITTEN AS (C +C )   *SIN(X+PHI), WHERE PHI=ARCTAN(C /C ).
000046:                                                                                                  #   0         1                            0  1                                   1  0
000047:
000048:                                                                                                  #  THE MOON IS LOCATED VIA FOUR ANGLES. THE FIRST IS THE OBLIQUITY. THE SECOND IS THE MEAN LONGITUDE OF THE MOON,
000049:                                                                                                  #  MEASURED IN THE ECLIPTIC FROM THE MEAN EQUINOX TO THE MEAN ASCENDING NODE OF THE LUNAR ORBIT, AND THEN ALONG THE
000050:                                                                                                  #  ORBIT.  THE THIRD ANGLE IS THE ANGLE BETWEEN THE ECLIPTIC AND THE LUNAR ORBIT.  THE FOURTH ANGLE IS THE LONGITUDE
000051:                                                                                                  #  OF THE NODE OF THE MOON, MEASURED IN THE LUNAR ORBIT.  LET THESE ANGLES BE OBL,LOM,IM, AND LON RESPECTIVELY.
000052:
000053:                                                                                                  #  THE SIMPLIFIED POSITION VECTOR OF THE MOON IS
000054:                                                                                                  #        -
000055:                                                                                                  #        M=(COS(LOM), COS(OBL)*SIN(LOM)-SIN(OBL)*SIN(IM)*SIN(LOM-LON), SIN(OBL)*SIN(LOM)+COS(OBL)*SIN(IM)*SIN(LOM-LON))
000056:
000057:                                                                                                  #  WHERE
000058:                                                                                                  #        LOM=LOM +LOM *T-(A *SIN 2PI*T/27.5545+A *COS(2PI*T/27.5545)+B *SIN 2PI*T/32+B *COS(2PI*T/32)), AND
000059:                                                                                                  #               0    R     0                    1                     0               1
000060:                                                                                                  #        LON=LON +LON
000061:                                                                                                  #               0    R
000062:                                                                                                  #  A , A , B  AND B  ARE STORED AS AMOD AND BMOD (SEE DESCRIPTION OF CMOD, ABOVE).  COS(OBL), SIN(OBL)*SIN(IM),
000063:                                                                                                  #   0   1   0      1
000064:                                                                                                  #  SIN(OBL), AND COS(OBL)*SIN(IM) ARE STORED IN KONMAT AS K1, K2, K3 AND K4, RESPECTIVELY.  LOM , LOM , LON , LON
000065:                                                                                                  #  ARE STORED AS LOMO, LOMR, LONO, AND LONR IN RATESP.                                         0     R     0     R
000066:                                                                                                  #  THE THREE PHIS ARE STORED AS AARG, BARG, AND CARG(SUN).  ALL CONSTANTS ARE UPDATED BY YEAR.
000067:
000068:                                                                                                  #  CALLING SEQUENCE
000069:                                                                                                  #        CALL LSPOS.  RETURN IS VIA CPRET.
000070:
000071:                                                                                                  #  ALARMS OR ABORTS
000072:                                                                                                  #        NONE
000073:
000074:                                                                                                  #  ERASABLE INITIALIZATION REQUIRED
000075:                                                                                                  #        TEPHEM - TIME FROM MIDNIGHT 1 JULY PRECEDING THE LAUNCH TO THE TIME OF THE LAUNCH (WHEN THE AGC CLOCK WENT
000076:                                                                                                  #        TO ZERO).  TEPHEM IS TP WITH UNITS OF CENTI-SECONDS.
000077:
000078:                                                                                                  #        TIME2 AND TIME1 ARE IN MPAC AND MPAC +1 WHEN PROGRAM IS CALLED.
000079:
000080:                                                                                                  #  OUTPUT
000081:                                                                                                  #        UNIT POSITIONAL VECTOR OF SUN IN VSUN.  (SCALED B-1)
000082:                                                                                                  #        UNIT POSITIONAL VECTOR OF MOON IN VMOON.  (SCALED B-1)
000083:
000084:                                                                                                  #  SUBROUTINES USED
000085:                                                                                                  #        NONE
000086:
000087:                                                                                                  #  DEBRIS
000088:                                                                                                  #        CURRENT CORE SET, WORK AREA AND FREEFLAG
000089:
000090: 04,2666                                           BANK     04
000091: 15,2000                                           SETLOC   EPHEM
000092: 15,2000                                           BANK
000093:
000094: 15,3236  E5,1714                                  EBANK=   VSUN
000095: 15,3236                                           COUNT*   $$/EPHEM
000096: 15,3236  15,3236               LUNPOS             EQUALS   LSPOS
000097:
000098: 15,3236           54201        LSPOS              SETPD    SR
000099: 15,3237           00001                                    0
000100: 15,3240           20617                                    14D                                   #  TP
000101: 15,3241           56371                           TAD      DDV
000102: 15,3242           01707                                    TEPHEM                                #  TIME OF LAUNCH
000103: 15,3243           31334                                    CSTODAY                               #  24 HOURS-8640000 CENTI-SECS/DAY B-33
000104: 15,3244           00031                           STORE    TIMEP                                 #  T IN DAYS
000105: 15,3245           77170                           AXT,1    AXT,2
000106: 15,3246           00000                                    0
000107: 15,3247           00000                                    0
000108: 15,3250           77614                           CLEAR
000109: 15,3251           00274                                    FREEFLAG                              #  SWITCH BIT
000110: 15,3252           77745        POSITA             DLOAD
000111: 15,3253           31314                                    KONMAT     +2                         #  ZEROS
000112: 15,3254           00027                           STORE    GTMP
000113: 15,3255           40745        POSITB             DLOAD    DMP*
000114: 15,3256           00031                                    TIMEP                                 #  T
000115: 15,3257           31360                                    VAL67      +4,1                       #  1/27 OR 1/32 OR 1/365
000116: 15,3260           42661                           SL       DAD*
000117: 15,3261           20211                                    8D
000118: 15,3262           31356                                    VAL67      +2,1                       #  AARG
000119: 15,3263           40756                           SIN      DMP*                                  #  SIN(T/27+PHI) OR T/32 OR T/365
000120: 15,3264           31354                                    VAL67,1                               #  (A0**2+A1**2)**1/2 SIN(X+PHIA)
000121: 15,3265           62015                           DAD      INCR,1                                #  PLUS
000122: 15,3266           00027                                    GTMP                                  #  (B0**2+B1**2)**1/2 SIN(X+PHIB)
000123: 15,3267           77771                           DEC      -6         B-14
000124: 15,3270           00027                           STORE    GTMP                                  #  OR (C0**2+C1**2)**1/2 SIN(X+PHIC)
000125: 15,3271           77614                           BOFSET
000126: 15,3272           00054                                    FREEFLAG
000127: 15,3273           33255                                    POSITB
000128: 15,3274           40745        POSITD             DLOAD    DMP*
000129: 15,3275           00031                                    TIMEP                                 #  T
000130: 15,3276           46437                                    RATESP,2                              #  LOMR,LOSR,LONR
000131: 15,3277           42661                           SL       DAD*
000132: 15,3300           20206                                    5D
000133: 15,3301           46431                                    RATESP     +6,2                       #  LOMO,LOSO,LONO
000134: 15,3302           77625                           DSU
000135: 15,3303           00027                                    GTMP
000136: 15,3304           10021                           STORE    STMP,2                                #  LOM,LOS,LON
000137: 15,3305           63135                           SLOAD    INCR,2
000138: 15,3306           00050                                    X2
000139: 15,3307           77775                           DEC      -2         B-14
000140: 15,3310           53015                           DAD      BZE
000141: 15,3311           31336                                    RCB-13                                #  PLUS 2
000142: 15,3312           33342                                    POSITE                                #  2ND
000143: 15,3313           77644                           BPL
000144: 15,3314           33252                                    POSITA                                #  1ST
000145: 15,3315           45345        POSITF             DLOAD    DSU                                   #  3RD
000146: 15,3316           00021                                    STMP                                  #  LOM
000147: 15,3317           00025                                    STMP       +4                         #  LON
000148: 15,3320           65356                           SIN      PDDL                                  #  SIN(LOM-LON)
000149: 15,3321           00021                                    STMP
000150: 15,3322           65356                           SIN      PDDL                                  #  SIN LOM
000151: 15,3323           00021                                    STMP
000152: 15,3324           55546                           COS      VDEF                                  #  COS LOM
000153: 15,3325           53521                           MXV      UNIT
000154: 15,3326           31312                                    KONMAT                                #  K1,K2,K3,K4,
000155: 15,3327           02723                           STORE    VMOON
000156: 15,3330           65345                           DLOAD    PDDL
000157: 15,3331           31314                                    KONMAT     +2                         #  ZERO
000158: 15,3332           00023                                    STMP       +2
000159: 15,3333           65356                           SIN      PDDL                                  #  SIN LOS
000160: 15,3334           00023                                    STMP       +2
000161: 15,3335           55546                           COS      VDEF                                  #  COS LOS
000162: 15,3336           53521                           MXV      UNIT
000163: 15,3337           31312                                    KONMAT
000164: 15,3340           02715                           STORE    VSUN
000165: 15,3341           77616                           RVQ
000166: 15,3342           77745        POSITE             DLOAD
000167: 15,3343           31314                                    KONMAT     +2                         #  ZEROS
000168: 15,3344           00027                           STORE    GTMP
000169: 15,3345           77650                           GOTO
000170: 15,3346           33274                                    POSITD
000171: 15,3347           77616        LUNVEL             RVQ                                            #         TO FOOL INTEGRATION
000172:
000173: 15,3350                        STMP               EQUALS   16D
000174:
000175: 15,3350                        GTMP               EQUALS   22D
000176:
000177: 15,3350                        TIMEP              EQUALS   24D
000178:
000179: 14,2000                                           SETLOC   EPHEM1
000180: 14,2000                                           BANK
000181: 14,3311                                           COUNT*   $$/EPHEM
000182:
000183: 14,3311           20000 00000  KONMAT             2DEC     1.0        B-1                        #          *************
000184: 14,3313           00000 00000                     2DEC     0          B-28                       #                      *
000185: 14,3315           00000 00000                     2DEC     0          B-28                       #                      *
000186: 14,3317           00000 00000                     2DEC     0          B-28                       #                      *
000187: 14,3321           16533 30007                     2DEC     .91745     B-1                        #  K1 COS(OBL)         *
000188: 14,3323           77333 56654                     2DEC     -.03571    B-1                        #  K2 SIN(OBL)SIN(IM)  *
000189: 14,3325           00000 00000                     2DEC     0          B-28                       #                      *
000190: 14,3327           06273 03275                     2DEC     .39784     B-1                        #  K3 SIN(OBL)         *
000191:
000192: 14,3331           01242 24467                     2DEC     .082354    B-1                        #  K4 COS(OBL)SIN(IM)  *
000193: 14,3333           00020 17260  CSTODAY            2DEC     8640000    B-33                       #                      * NOTE           *
000194: 14,3335           00002        RCB-13             OCT      00002                                 #                      * TABLES CONTAIN *
000195: 14,3336           00000                           OCT      00000                                 #                      * CONSTANTS FOR  *
000196: 14,3337           22572 27214  RATESP             2DEC     .03660098  B+4                        #                      * 1968 - 1969    *
000197: 14,3341           01315 26177                     2DEC     .00273779  B+4                        #  LOSR                *
000198: 14,3343           77731 55217                     2DEC     -.00014719 B+4                        #  LONR                *
000199: 14,3345           16455 04475                     2DEC     .455880394                            #  LOMO                *
000200: 14,3347           10637 04312                     2DEC     .275337971                            #  LOSO                *
000201: 14,3351           01215 26351                     2DEC     .0398987882                            #  LONO                *
000202: 14,3353           01070 35243  VAL67              2DEC*    .017361944 B+1                        #  AMOD                *
000203: 14,3355           11126 14467                     2DEC     .286523072                            #  AARG                *
000204: 14,3357           02245 06475                     2DEC     .036291712 B+1                        #  1/27                *
000205: 14,3361           00163 32331                     2DEC     .003534722 B+1                        #  BMOD                *
000206: 14,3363           03476 03302                     2DEC     .113165625                            #  BARG                *
000207: 14,3365           02000 00000                     2DEC     .03125     B+1                        #  1/32                *
000208: 14,3367           00256 25374                     2DEC     .005330555 B+1                        #  CMOD                *
000209: 14,3371           77525 53143                     2DEC     -.010415660                            #  CARG       VALUE COMPUTED USING 1/364.24
000210: 14,3373           00131 26730                     2DEC     .002737925 B+1                        #  1/365   *************
000211:                                                                                                  #  ************************************************************************

End of include-file LUNAR_AND_SOLAR_EPHEMERIDES_SUBROUTINES.agc.  Parent file is MAIN.agc


