
Source Code


000002:                                                                                                  ## Copyright:   Public domain.
000003:                                                                                                  ## Filename:    MEASUREMENT_INCORPORATION.agc
000004:                                                                                                  ## Purpose:     A section of an attempt to reconstruct Sundance revision 306
000005:                                                                                                  ##              as closely as possible with available information. Sundance
000006:                                                                                                  ##              306 is the source code for the Lunar Module's (LM) Apollo
000007:                                                                                                  ##              Guidance Computer (AGC) for Apollo 9. This program was created
000008:                                                                                                  ##              using the mixed-revision SundanceXXX as a starting point, and
000009:                                                                                                  ##              pulling back features from Luminary 69 believed to have been
000010:                                                                                                  ##              added based on memos, checklists, observed address changes,
000011:                                                                                                  ##              or the Sundance GSOPs.
000012:                                                                                                  ## Assembler:   yaYUL
000013:                                                                                                  ## Contact:     Ron Burkey <info@sandroid.org>.
000014:                                                                                                  ## Website:     www.ibiblio.org/apollo/index.html
000015:                                                                                                  ## Mod history: 2020-07-24 MAS  Created from SundanceXXX.
000016:                                                                                                  ##              2020-07-29 MAS  Added NEWZCOMP.
000017:
000018:
000019:
000020:                                                                                                  #   INCORP1--PERFORMS THE SIX DIMENSIONAL STATE VECTOR DEVIATION FOR POSITI
000021:                                                                                                  #  ON AND VELOCITY OR THE NINE DIMENSIONAL DEVIATION OF POSITION,VELOCITY,A
000022:                                                                                                  #  ND RADAR OR LANDMARK BIAS.THE OUTPUT OF THE BVECTOR ROUTINE ALONG WITH T
000023:                                                                                                  #  HE ERROR TRANSITION MATRIX(W) ARE USED AS INPUT TO THE ROUTINE.THE DEVIA
000024:                                                                                                  #  TION IS OBTAINED BY COMPUTING AN ESTIMATED TRACKING MEASUREMENT FROM THE
000025:                                                                                                  #  CURRENT STATE VECTOR AND COMPARING IT WITH AN ACTUAL TRACKING MEASUREMEN
000026:                                                                                                  #  T AND APPLYING A STATISTICAL WEIGHTING VECTOR.
000027:
000028:                                                                                                  #  INPUT
000029:                                                                                                  #     DMENFLG = 0 6DIMENSIONAL BVECTOR   1=9DIMENSIONAL
000030:                                                                                                  #            W = ERROR TRANSITION MATRIX 6X6 OR 9X9
000031:                                                                                                  #     VARIANCE = VARIANCE (SCALAR)
000032:                                                                                                  #       DELTAQ = MEASURED DEVIATION (SCALAR)
000033:                                                                                                  #      BVECTOR = 6 OR 9 DIMENSIONAL BVECTOR
000034:
000035:                                                                                                  #  OUTPUT
000036:                                                                                                  #       DELTAX = STATE VECTOR DEVIATIONS 6 OR 9 DIMENSIONAL
000037:                                                                                                  #           ZI = VECTOR USED FOR THE INCORPORATION 6 OR 9 DIMENSIONAL
000038:                                                                                                  #       GAMMA = SCALAR
000039:                                                                                                  #       OMEGA = OMEGA WEIGHTING VECTOR 6 OR 9 DIMENTIONAL
000040:                                                                                                  #  CALLING SEQUENCE
000041:                                                                                                  #     L  CALL INCORP1
000042:
000043:                                                                                                  #  NORMAL EXIT
000044:                                                                                                  #     L+1 OF CALLING SEQUENCE
000045:
000046: 37,3507                                           BANK     37
000047: 23,2000                                           SETLOC   MEASINC
000048: 23,2000                                           BANK
000049:
000050: 23,2242                                           COUNT*   $$/INCOR
000051:
000052: 23,2242  E5,1400                                  EBANK=   W
000053:
000054: 23,2242           77620        INCORP1            STQ
000055: 23,2243           02772                                    EGRESS
000056: 23,2244           66370                           AXT,1    SSP
000057: 23,2245           00066                                    54D
000058: 23,2246           00051                                    S1
000059: 23,2247           00022                                    18D                                   #  IX1 = 54      S1= 18
000060: 23,2250           66374                           AXT,2    SSP
000061: 23,2251           00022                                    18D
000062: 23,2252           00052                                    S2
000063: 23,2253           00006                                    6                                     #  IX2 = 18      S2=6
000064: 23,2254           63775        Z123               VLOAD    MXV*
000065: 23,2255           03512                                    BVECTOR                               #  BVECTOR (0)
000066: 23,2256           02467                                    W          +54D,1
000067: 23,2257           12665                           STORE    ZI         +18D,2
000068: 23,2260           77775                           VLOAD
000069: 23,2261           03520                                    BVECTOR    +6                         #  BVECTOR (1)
000070: 23,2262           52717                           MXV*     VAD*
000071: 23,2263           02555                                    W          +108D,1
000072: 23,2264           75112                                    ZI         +18D,2
000073: 23,2265           12665                           STORE    ZI         +18D,2
000074: 23,2266           77775                           VLOAD
000075: 23,2267           03526                                    BVECTOR    +12D                       #  BVECTOR (2)
000076: 23,2270           52717                           MXV*     VAD*
000077: 23,2271           02643                                    W          +162D,1
000078: 23,2272           75112                                    ZI         +18D,2                     #  B(0)*W+B(1)*(W+54)+B(2)*(W+108) FIRST PAS
000079: 23,2273           12665                           STORE    ZI         +18D,2                     #  ZI THEN Z2 THEN Z3
000080: 23,2274           77700                           TIX,1
000081: 23,2275           46276                                    INCOR1
000082: 23,2276           43104        INCOR1             TIX,2    BON
000083: 23,2277           46254                                    Z123                                  #  LOOP FOR Z1,Z2,Z3
000084: 23,2300           02706                                    DMENFLG
000085: 23,2301           46305                                    INCOR1A
000086: 23,2302           77775                           VLOAD
000087: 23,2303           06233                                    ZEROVECS
000088: 23,2304           02657                           STORE    ZI         +12D
000089: 23,2305           77201        INCOR1A            SETPD    VLOAD
000090: 23,2306           00001                                    0
000091: 23,2307           02643                                    ZI
000092: 23,2310           47036                           VSQ      RTB
000093: 23,2311           21531                                    TPMODE
000094: 23,2312           47515                           PDVL     VSQ
000095: 23,2313           02651                                    ZI         +6
000096: 23,2314           76234                           RTB      TAD
000097: 23,2315           21531                                    TPMODE
000098: 23,2316           47515                           PDVL     VSQ
000099: 23,2317           02657                                    ZI         +12D
000100: 23,2320           76234                           RTB      TAD
000101: 23,2321           21531                                    TPMODE
000102: 23,2322           77171                           TAD      AXT,2
000103: 23,2323           02707                                    VARIANCE
000104: 23,2324           00000                                    0
000105: 23,2325           02665                           STORE    TRIPA                                 #  ZI*2 + Z2*2 + Z3*2 + VARIANCE
000106: 23,2326           40151                           TLOAD    BOV
000107: 23,2327           02707                                    VARIANCE                              #  CLEAR OVFIND
000108: 23,2330           46331                                    +1
000109: 23,2331           02670                           STORE    TEMPVAR                               #  TEMP STORAGE FOR VARIANCE
000110: 23,2332           77654                           BZE
000111: 23,2333           46342                                    INCOR1C
000112: 23,2334           40112        INCOR1B            SL2      BOV
000113: 23,2335           46342                                    INCOR1C
000114: 23,2336           02670                           STORE    TEMPVAR
000115: 23,2337           52114                           INCR,2   GOTO
000116: 23,2340           00001                           DEC      1          B-14
000117: 23,2341           46334                                    INCOR1B
000118: 23,2342           61551        INCOR1C            TLOAD    ROUND
000119: 23,2343           02665                                    TRIPA
000120: 23,2344           75405                           DMP      SQRT
000121: 23,2345           02670                                    TEMPVAR
000122: 23,2346           76257                           SL*      TAD
000123: 23,2347           57576                                    0,2
000124: 23,2350           02665                                    TRIPA
000125: 23,2351           63101                           NORM     INCR,2
000126: 23,2352           00050                                    X2
000127: 23,2353           77775                           DEC      -2         B-14
000128: 23,2354           77134                           SXA,2    AXT,2
000129: 23,2355           02105                                    NORMGAM                               #  NORMALIZATION COUNT -2 FOR GAMMA
000130: 23,2356           00242                                    162D
000131: 23,2357           40265                           BDDV     SETPD
000132: 23,2360           06223                                    DP1/4TH
000133: 23,2361           00001                                    0
000134: 23,2362           03465                           STORE    GAMMA
000135: 23,2363           60351                           TLOAD    NORM
000136: 23,2364           02665                                    TRIPA
000137: 23,2365           00047                                    X1
000138: 23,2366           65345                           DLOAD    PDDL                                  #  PD 0-1 = NORM (A)
000139: 23,2367           00155                                    MPAC
000140: 23,2370           03534                                    DELTAQ
000141: 23,2371           77701                           NORM
000142: 23,2372           00051                                    S1
000143: 23,2373           70460                           XSU,1    SR1
000144: 23,2374           00050                                    S1
000145: 23,2375           41471                           DDV      PUSH                                  #  PD 0-1 = DELTAQ/A
000146: 23,2376           77650                           GOTO
000147: 23,2377           46761                                    NEWZCOMP
000148: 23,2400           77731                 -3        SSP
000149: 23,2401           00052                                    S2
000150: 23,2402           00066                                    54D
000151: 23,2403           60775        INCOR2             VLOAD    VXM*                                  #  COMPUTE OMEGA1,2,3
000152: 23,2404           02643                                    ZI
000153: 23,2405           75134                                    W          +162D,2
000154: 23,2406           77206                           PUSH     VLOAD
000155: 23,2407           02651                                    ZI         +6
000156: 23,2410           53303                           VXM*     VAD
000157: 23,2411           75112                                    W          +180D,2
000158: 23,2412           77206                           PUSH     VLOAD
000159: 23,2413           02657                                    ZI         +12D
000160: 23,2414           53303                           VXM*     VAD
000161: 23,2415           75070                                    W          +198D,2
000162: 23,2416           61006                           PUSH     TIX,2                                 #  PD 2-7=OMEGA1, 8-13=OMEGA2, 14-19=OMEGA3
000163: 23,2417           46403                                    INCOR2
000164: 23,2420           45575                           VLOAD    STADR
000165: 23,2421           74273                           STORE    OMEGA      +12D
000166: 23,2422           45575                           VLOAD    STADR
000167: 23,2423           74301                           STORE    OMEGA      +6
000168: 23,2424           45575                           VLOAD    STADR
000169: 23,2425           74307                           STORE    OMEGA
000170: 23,2426           77214                           BON      VLOAD
000171: 23,2427           02706                                    DMENFLG
000172: 23,2430           46433                                    INCOR2AB
000173: 23,2431           06233                                    ZEROVECS
000174: 23,2432           03504                           STORE    OMEGA      +12D
000175: 23,2433           66374        INCOR2AB           AXT,2    SSP
000176: 23,2434           00022                                    18D
000177: 23,2435           00052                                    S2
000178: 23,2436           00006                                    6
000179: 23,2437           77773        INCOR3             VLOAD*
000180: 23,2440           74265                                    OMEGA      +18D,2
000181: 23,2441           53761                           VXSC     VSL*
000182: 23,2442           00001                                    0                                     #  DELTAQ/A
000183: 23,2443           20201                                    0,1
000184: 23,2444           12707                           STORE    DELTAX     +18D,2
000185: 23,2445           77304                           TIX,2    VLOAD
000186: 23,2446           46437                                    INCOR3
000187: 23,2447           02673                                    DELTAX     +6
000188: 23,2450           77732                           VSL3
000189: 23,2451           02673                           STORE    DELTAX     +6
000190: 23,2452           77650                           GOTO
000191: 23,2453           02772                                    EGRESS
000192:
000193:                                                                                                  #   INCORP2 -INCORPORATES THE COMPUTED STATE VECTOR DEVIATIONS INTO THE
000194:                                                                                                  #  ESTIMATED STATE VECTOR. THE STATE VECTOR UPDATED MAY BE FOR EITHER THE
000195:                                                                                                  #  LEM OR THE CSM. DETERMINED BY FLAG VEHUPFLG. (ZERO = LEM) (1 = CSM)
000196:
000197:                                                                                                  #  INPUT
000198:                                                                                                  #     PERMANENT STATE VECTOR FOR EITHER THE LEM OR CSM
000199:                                                                                                  #     VEHUPFLG = UPDATE VEHICLE 0=LEM  1=CSM
000200:                                                                                                  #     W =        ERROR TRANSITION MATRIX
000201:                                                                                                  #     DELTAX =   COMPUTED STATE VECTOR DEVIATIONS
000202:                                                                                                  #     DMENFLG =  SIZE OF W MATRIX (ZERO=6X6) (1=9X9)
000203:                                                                                                  #     GAMMA =    SCALAR FOR INCORPORATION
000204:                                                                                                  #     ZI =       VECTOR USED IN INCORPORATION
000205:                                                                                                  #     OMEGA =    WEIGHTING VECTOR
000206:
000207:                                                                                                  #  OUTPUT
000208:                                                                                                  #     UPDATED PERMANENT STATE VECTOR
000209:
000210:                                                                                                  #  CALLING SEQUENCE
000211:                                                                                                  #     L  CALL INCORP2
000212:
000213:                                                                                                  #  NORMAL EXIT
000214:                                                                                                  #     L+1 OF CALLING SEQUENCE
000215:
000216:
000217: 23,2000                                           SETLOC   MEASINC1
000218: 23,2000                                           BANK
000219:
000220: 23,2454                                           COUNT*   $$/INCOR
000221:
000222: 23,2454           45020        INCORP2            STQ      CALL
000223: 23,2455           02772                                    EGRESS
000224: 23,2456           27362                                    INTSTALL
000225: 23,2457           74375                           VLOAD    VXSC                                  #  CALC. GAMMA * OMEGA1,2,3
000226: 23,2460           03470                                    OMEGA
000227: 23,2461           03465                                    GAMMA
000228: 23,2462           26713                           STOVL    OMEGAM1
000229: 23,2463           03476                                    OMEGA      +6
000230: 23,2464           77761                           VXSC
000231: 23,2465           03465                                    GAMMA
000232: 23,2466           26721                           STOVL    OMEGAM2
000233: 23,2467           03504                                    OMEGA      +12D
000234: 23,2470           77761                           VXSC
000235: 23,2471           03465                                    GAMMA
000236: 23,2472           02727                           STORE    OMEGAM3
000237: 23,2473           77776                           EXIT
000238: 23,2474           32756                           CAF      54DD                                  #  INITIAL IX 1 SETTING FOR W MATRIX
000239: 23,2475           55324                           TS       WIXA
000240: 23,2476           55325                           TS       WIXB
000241: 23,2477           35030                           CAF      ZERO
000242: 23,2500           55326                           TS       ZIXA                                  #  INITIAL IX 2 SETTING FOR Z COMPONENT
000243: 23,2501           55327                           TS       ZIXB
000244: 23,2502           05423        FAZA               TC       PHASCHNG
000245: 23,2503           04022                           OCT      04022
000246: 23,2504           40774                           CS       RASFLAG
000247: 23,2505           75020                           MASK     REINTBIT
000248: 23,2506           26774                           ADS      RASFLAG
000249: 23,2507           31325        FAZA1              CA       WIXB                                  #  START FIRST PHASE OF INCORP2
000250: 23,2510           55324                           TS       WIXA                                  #   TO UPDATE 6 OR 9 DIM. W MATRIX IN TEMP
000251: 23,2511           31327                           CA       ZIXB
000252: 23,2512           55326                           TS       ZIXA
000253: 23,2513           06014                           TC       INTPRET
000254: 23,2514           73150                           LXA,1    LXA,2
000255: 23,2515           01324                                    WIXA
000256: 23,2516           01326                                    ZIXA
000257: 23,2517           70731                           SSP      DLOAD*
000258: 23,2520           00051                                    S1
000259: 23,2521           00006                                    6
000260: 23,2522           75134                                    ZI,2
000261: 23,2523           60276                           DCOMP    NORM                                  #  CALC UPPER 3X9 PARTITION OF W MATRIX
000262: 23,2524           00052                                    S2
000263: 23,2525           65161                           VXSC     XCHX,2
000264: 23,2526           02713                                    OMEGAM1
000265: 23,2527           00051                                    S2
000266: 23,2530           57144                           LXC,2    XAD,2
000267: 23,2531           00047                                    X2
000268: 23,2532           02105                                    NORMGAM
000269: 23,2533           65057                           VSL*     XCHX,2
000270: 23,2534           57576                                    0,2
000271: 23,2535           00051                                    S2
000272: 23,2536           77653                           VAD*
000273: 23,2537           02467                                    W          +54D,1
000274: 23,2540           02735                           STORE    HOLDW
000275: 23,2541           57543                           DLOAD*   DCOMP                                 #  CALC MIDDLE 3X9 PARTITION OF W MATRIX
000276: 23,2542           75134                                    ZI,2
000277: 23,2543           74301                           NORM     VXSC
000278: 23,2544           00052                                    S2
000279: 23,2545           02721                                    OMEGAM2
000280: 23,2546           71124                           XCHX,2   LXC,2
000281: 23,2547           00051                                    S2
000282: 23,2550           00047                                    X2
000283: 23,2551           53674                           XAD,2    VSL*
000284: 23,2552           02105                                    NORMGAM
000285: 23,2553           57576                                    0,2
000286: 23,2554           52724                           XCHX,2   VAD*
000287: 23,2555           00051                                    S2
000288: 23,2556           02555                                    W          +108D,1
000289: 23,2557           02743                           STORE    HOLDW      +6
000290: 23,2560           77614                           BOFF
000291: 23,2561           02746                                    DMENFLG                               #  BRANCH IF 6 DIMENSIONAL
000292: 23,2562           46602                                    FAZB
000293: 23,2563           57543                           DLOAD*   DCOMP                                 #  CALC LOWER 3X9 PARTITION OF W MATRIX
000294: 23,2564           75134                                    ZI,2
000295: 23,2565           74301                           NORM     VXSC
000296: 23,2566           00052                                    S2
000297: 23,2567           02727                                    OMEGAM3
000298: 23,2570           71124                           XCHX,2   LXC,2
000299: 23,2571           00051                                    S2
000300: 23,2572           00047                                    X2
000301: 23,2573           53674                           XAD,2    VSL*
000302: 23,2574           02105                                    NORMGAM
000303: 23,2575           57576                                    0,2
000304: 23,2576           52724                           XCHX,2   VAD*
000305: 23,2577           00051                                    S2
000306: 23,2600           02643                                    W          +162D,1
000307: 23,2601           02751                           STORE    HOLDW      +12D
000308: 23,2602           77624        FAZB               CALL
000309: 23,2603           11057                                    GRP2PC
000310: 23,2604           77776                           EXIT
000311: 23,2605           31324        FAZB1              CA       WIXA                                  #  START 2ND PHASE OF INCORP2 TO TRANSFER
000312: 23,2606           62757                           AD       6DD                                   #      TEMP REG TO PERM W MATRIX
000313: 23,2607           55325                           TS       WIXB
000314: 23,2610           31326                           CA       ZIXA
000315: 23,2611           67720                           AD       MINUS2
000316: 23,2612           55327                           TS       ZIXB
000317: 23,2613           06014                           TC       INTPRET
000318: 23,2614           66350                           LXA,1    SSP
000319: 23,2615           01324                                    WIXA
000320: 23,2616           00051                                    S1
000321: 23,2617           00006                                    6
000322: 23,2620           77775                           VLOAD
000323: 23,2621           02735                                    HOLDW
000324: 23,2622           06467                           STORE    W          +54D,1
000325: 23,2623           77775                           VLOAD
000326: 23,2624           02743                                    HOLDW      +6
000327: 23,2625           06555                           STORE    W          +108D,1
000328: 23,2626           77214                           BOFF     VLOAD
000329: 23,2627           02746                                    DMENFLG
000330: 23,2630           46640                                    FAZB5
000331: 23,2631           02751                                    HOLDW      +12D
000332: 23,2632           06643                           STORE    W          +162D,1
000333: 23,2633           52100        FAZB2              TIX,1    GOTO
000334: 23,2634           46636                                    +2
000335: 23,2635           46646                                    FAZC                                  #  DONE WITH W MATRIX. UPDATE STATE VECTOR
000336: 23,2636           77634                           RTB
000337: 23,2637           46502                                    FAZA
000338: 23,2640           43335        FAZB5              SLOAD    DAD
000339: 23,2641           01330                                    ZIXB
000340: 23,2642           06761                                    12DD
000341: 23,2643           52030                           BHIZ     GOTO
000342: 23,2644           46646                                    FAZC
000343: 23,2645           46633                                    FAZB2
000344: 23,2646           77624        FAZC               CALL
000345: 23,2647           11057                                    GRP2PC
000346: 23,2650           53375                           VLOAD    VAD                                   #  START 3RD PHASE OF INCORP2
000347: 23,2651           01701                                    X789                                  #  7TH,8TH,9TH,COMPONENT OF STATE VECTOR
000348: 23,2652           02701                                    DELTAX     +12D                       #  INCORPORATION FOR X789
000349: 23,2653           03457                           STORE    TX789
000350: 23,2654           47014                           BON      RTB
000351: 23,2655           00707                                    VEHUPFLG
000352: 23,2656           46746                                    DOCSM
000353: 23,2657           26740                                    MOVEPLEM
000354: 23,2660           77004        FAZAB              BOVB     AXT,2
000355: 23,2661           57702                                    TCDANZIG
000356: 23,2662           00000                                    0
000357: 23,2663           77014                           BOFF     AXT,2
000358: 23,2664           04344                                    MOONTHIS
000359: 23,2665           46667                                    +2
000360: 23,2666           00002                                    2
000361: 23,2667           53775                           VLOAD    VSR*
000362: 23,2670           02665                                    DELTAX                                #  B27 IF MOON ORBIT, B29 IF EARTH
000363: 23,2671           57205                                    0          -7,2
000364: 23,2672           40055                           VAD      BOV
000365: 23,2673           01521                                    TDELTAV
000366: 23,2674           46706                                    FAZAB1
000367: 23,2675           25521                           STOVL    TDELTAV
000368: 23,2676           02673                                    DELTAX     +6                         #  B5 IF MOON ORBIT, B7 IF EARTH
000369: 23,2677           53257                           VSR*     VAD
000370: 23,2700           57202                                    0          -4,2
000371: 23,2701           01527                                    TNUV
000372: 23,2702           77600                           BOV
000373: 23,2703           46712                                    FAZAB2
000374: 23,2704           35527                           STCALL   TNUV
000375: 23,2705           46721                                    FAZAB3
000376: 23,2706           53375        FAZAB1             VLOAD    VAD
000377: 23,2707           01535                                    RCV
000378: 23,2710           02665                                    DELTAX
000379: 23,2711           01535                           STORE    RCV
000380: 23,2712           53375        FAZAB2             VLOAD    VAD
000381: 23,2713           01543                                    VCV
000382: 23,2714           02673                                    DELTAX     +6
000383: 23,2715           01543                           STORE    VCV
000384: 23,2716           45134                           SXA,2    CALL
000385: 23,2717           02032                                    PBODY
000386: 23,2720           23340                                    RECTIFY
000387: 23,2721           77624        FAZAB3             CALL
000388: 23,2722           11057                                    GRP2PC
000389: 23,2723           47014                           BON      RTB
000390: 23,2724           00707                                    VEHUPFLG
000391: 23,2725           46751                                    DOCSM1
000392: 23,2726           26717                                    MOVEALEM
000393: 23,2727           77624                           CALL
000394: 23,2730           26042                                    SVDWN2                                #  STORE DOWNLINK STATE VECTOR
000395: 23,2731           77624        FAZAB4             CALL
000396: 23,2732           11057                                    GRP2PC                                #  PHASE CHANGE
000397: 23,2733           77214                           BOFF     VLOAD
000398: 23,2734           02746                                    DMENFLG
000399: 23,2735           46740                                    FAZAB5                                #  6 DIMENSIONAL
000400: 23,2736           03457                                    TX789                                 #  9 DIMENSIONAL
000401: 23,2737           01701                           STORE    X789
000402: 23,2740           66150        FAZAB5             LXA,1    SXA,1
000403: 23,2741           02772                                    EGRESS
000404: 23,2742           00052                                    QPRET
000405: 23,2743           77776                           EXIT
000406: 23,2744           04674                           TC       POSTJUMP                              #  EXIT
000407: 23,2745           27400                           CADR     INTWAKE
000408: 23,2746           52034        DOCSM              RTB      GOTO
000409: 23,2747           26673                                    MOVEPCSM
000410: 23,2750           46660                                    FAZAB
000411: 23,2751           45034        DOCSM1             RTB      CALL
000412: 23,2752           26644                                    MOVEACSM
000413: 23,2753           26066                                    SVDWN1                                #  STORE DOWNLINK STATE VECTOR
000414: 23,2754           77650                           GOTO
000415: 23,2755           46731                                    FAZAB4
000416: 23,2756  23,2232               ZEROO              =        ZEROVECS
000417: 23,2756           00066        54DD               DEC      54         B-14
000418: 23,2757           77771        6DD                DEC      -6         B-14
000419: 23,2760           00014        12DD               DEC      12         B-14
000420:
000421:
000422: 23,2761           51575        NEWZCOMP           VLOAD    ABVAL
000423: 23,2762           02643                                    ZI
000424: 23,2763           24045                           STOVL    NORMZI
000425: 23,2764           02651                                    ZI         +6
000426: 23,2765           41446                           ABVAL    PUSH
000427: 23,2766           50025                           DSU      BMN
000428: 23,2767           00045                                    NORMZI
000429: 23,2770           46773                                    +3
000430: 23,2771           45545                           DLOAD    STADR
000431: 23,2772           77732                           STORE    NORMZI
000432: 23,2773           51575                           VLOAD    ABVAL
000433: 23,2774           02657                                    ZI         +12D
000434: 23,2775           45206                           PUSH     DSU
000435: 23,2776           00045                                    NORMZI
000436: 23,2777           71240                           BMN      DLOAD
000437: 23,3000           47003                                    +3
000438: 23,3001           77626                           STADR
000439: 23,3002           77732                           STORE    NORMZI                                #  LARGEST ABVAL
000440: 23,3003           66145                           DLOAD    SXA,1
000441: 23,3004           00045                                    NORMZI
000442: 23,3005           00044                                    NORMZI                                #  SAVE X1
000443: 23,3006           62101                           NORM     INCR,1
000444: 23,3007           00047                                    X1
000445: 23,3010           00002                           DEC      2          B-14
000446: 23,3011           53775                           VLOAD    VSL*
000447: 23,3012           02643                                    ZI
000448: 23,3013           20201                                    0,1
000449: 23,3014           26643                           STOVL    ZI
000450: 23,3015           02651                                    ZI         +6
000451: 23,3016           77657                           VSL*
000452: 23,3017           20201                                    0,1
000453: 23,3020           26651                           STOVL    ZI         +6
000454: 23,3021           02657                                    ZI         +12D
000455: 23,3022           66057                           VSL*     SXA,1
000456: 23,3023           20201                                    0,1
000457: 23,3024           00045                                    NORMZI     +1                         #  SAVE SHIFT
000458: 23,3025           02657                           STORE    ZI         +12D
000459: 23,3026           54150                           LXA,1    XSU,1
000460: 23,3027           02105                                    NORMGAM
000461: 23,3030           00045                                    NORMZI     +1
000462: 23,3031           77660                           XSU,1
000463: 23,3032           00045                                    NORMZI     +1
000464: 23,3033           70130                           SXA,1    LXC,1
000465: 23,3034           02105                                    NORMGAM
000466: 23,3035           00045                                    NORMZI     +1
000467: 23,3036           40270                           XAD,1    SETPD
000468: 23,3037           00044                                    NORMZI
000469: 23,3040           00003                                    2D
000470: 23,3041           77650                           GOTO
000471: 23,3042           46400                                    INCOR2     -3
000472: 23,3043                        NORMZI             =        36D
000473:

End of include-file MEASUREMENT_INCORPORATION.agc.  Parent file is MAIN.agc


