
Source Code


000002:                                                                                                  ## Copyright:   Public domain.
000003:                                                                                                  ## Filename:    ORBITAL_INTEGRATION.agc
000004:                                                                                                  ## Purpose:     A section of an attempt to reconstruct Sundance revision 306
000005:                                                                                                  ##              as closely as possible with available information. Sundance
000006:                                                                                                  ##              306 is the source code for the Lunar Module's (LM) Apollo
000007:                                                                                                  ##              Guidance Computer (AGC) for Apollo 9. This program was created
000008:                                                                                                  ##              using the mixed-revision SundanceXXX as a starting point, and
000009:                                                                                                  ##              pulling back features from Luminary 69 believed to have been
000010:                                                                                                  ##              added based on memos, checklists, observed address changes,
000011:                                                                                                  ##              or the Sundance GSOPs.
000012:                                                                                                  ## Assembler:   yaYUL
000013:                                                                                                  ## Contact:     Ron Burkey <info@sandroid.org>.
000014:                                                                                                  ## Website:     www.ibiblio.org/apollo/index.html
000015:                                                                                                  ## Mod history: 2020-07-24 MAS  Created from SundanceXXX.
000016:
000017:
000018:
000019:                                                                                                  #  DELETE
000020: 13,3703                                           BANK     13
000021: 11,2000                                           SETLOC   ORBITAL
000022: 11,2000                                           BANK
000023: 11,2312                                           COUNT*   $$/ORBIT
000024:
000025:                                                                                                  #  DELETE
000026: 11,2312           40354        KEPPREP            LXA,2    SETPD
000027: 11,2313           02032                                    PBODY
000028: 11,2314           00001                                    0
000029: 11,2315           75543                           DLOAD*   SQRT                                  #  SQRT(MU) (+18 OR +15)         0D      PL 2D
000030: 11,2316           54040                                    MUEARTH,2
000031: 11,2317           53515                           PDVL     UNIT                                  #                                        PL 8D
000032: 11,2320           01535                                    RCV
000033: 11,2321           60325                           PDDL     NORM                                  #  NORM R (+29 OR +27 - N1)      2D      PL 4D
000034: 11,2322           00045                                    36D
000035: 11,2323           00047                                    X1
000036: 11,2324           77715                           PDVL
000037: 11,2325           65241                           DOT      PDDL                                  #  F*SQRT(MU)(+7 OR +5)          4D      PL 6D
000038: 11,2326           01543                                    VCV
000039: 11,2327           02076                                    TAU.                                  #  (+28)
000040: 11,2330           60225                           DSU      NORM
000041: 11,2331           01551                                    TC
000042: 11,2332           00051                                    S1
000043: 11,2333           77742                           SR1
000044: 11,2334           65271                           DDV      PDDL
000045: 11,2335           00003                                    2D
000046: 11,2336           41405                           DMP      PUSH                                  #  FS(+6 +N1-N2)                 6D      PL 8D
000047: 11,2337           00005                                    4D
000048: 11,2340           65316                           DSQ      PDDL                                  #  (FS)SQ (+12 +2(N1-N2))        8D      PL 10D
000049: 11,2341           00005                                    4D
000050: 11,2342           64716                           DSQ      PDDL*                                 #  SSQ/MU (-2 OR +2(N1-N2))      10D     PL 12D
000051: 11,2343           54040                                    MUEARTH,2
000052: 11,2344           40442                           SR3      SR4
000053: 11,2345           47515                           PDVL     VSQ                                   #  PREALIGN MU (+43 OR +37)      12D     PL 14D
000054: 11,2346           01543                                    VCV
000055: 11,2347           44205                           DMP      BDSU                                  #                                        PL 12D
000056: 11,2350           00045                                    36D
000057: 11,2351           41271                           DDV      DMP                                   #                                        PL 10D
000058: 11,2352           00003                                    2D                                    #  -(1/R-ALPHA) (+12 +3N1-2N2)
000059: 11,2353           53605                           DMP      SL*
000060: 11,2354           23714                                    DP2/3
000061: 11,2355           20176                                    0          -3,1                       #  10L(1/R-ALPHA) (+13 +2(N1-N2))
000062: 11,2356           43260                           XSU,1    DAD                                   #  2(FS)SQ - ETCETRA                     PL 8D
000063: 11,2357           00050                                    S1                                    #  X1 = N2-N1
000064: 11,2360           45257                           SL*      DSU                                   #  -FS+2(FS)SQ ETC (+6 +N1-N2)           PL 6D
000065: 11,2361           20211                                    8D,1
000066: 11,2362           41205                           DMP      DMP
000067: 11,2363           00001                                    0D
000068: 11,2364           00005                                    4D
000069: 11,2365           53657                           SL*      SL*
000070: 11,2366           20211                                    8D,1
000071: 11,2367           20201                                    0,1                                   #  S(-FS(1-2FS)-1/6...) (+17 OR +16)
000072: 11,2370           65215                           DAD      PDDL                                  #                                        PL 6D
000073: 11,2371           01553                                    XKEP
000074: 11,2372           53605                           DMP      SL*                                   #  S(+17 OR +16)
000075: 11,2373           00001                                    0D
000076: 11,2374           20202                                    1,1
000077: 11,2375           43204                           BOVB     DAD
000078: 11,2376           57702                                    TCDANZIG
000079: 11,2377           77626                           STADR
000080: 11,2400           75645                           STORE    XKEPNEW
000081: 11,2401           74020                           STQ      AXC,1
000082: 11,2402           02114                                    KEPRTN
000083: 11,2403           00012                           DEC      10         B-14
000084: 11,2404           74014                           BON      AXC,1
000085: 11,2405           00303                                    MOONFLAG
000086: 11,2406           24000                                    KEPLERN
000087: 11,2407           00002                           DEC      2          B-14
000088: 11,2410           77650                           GOTO
000089: 11,2411           24000                                    KEPLERN
000090:
000091: 11,2412           66350        FBR3               LXA,1    SSP
000092: 11,2413           01500                                    DIFEQCNT
000093: 11,2414           00051                                    S1
000094: 11,2415           77762                           DEC      -13        B-14
000095: 11,2416           54345                           DLOAD    SR
000096: 11,2417           02100                                    DT/2
000097: 11,2420           20612                                    9D
000098: 11,2421           61500                           TIX,1    ROUND
000099: 11,2422           22423                                    +1
000100: 11,2423           43206                           PUSH     DAD
000101: 11,2424           01551                                    TC
000102: 11,2425           16076                           STODL    TAU.
000103: 11,2426           77615                           DAD
000104: 11,2427           01517                                    TET
000105: 11,2430           35517                           STCALL   TET
000106: 11,2431           22312                                    KEPPREP
000107:
000108:                                                                                                  #  AGC ROUTINE TO COMPUTE ACCELERATION COMPONENTS.
000109:
000110: 11,2432           73150        ACCOMP             LXA,1    LXA,2
000111: 11,2433           02032                                    PBODY
000112: 11,2434           02032                                    PBODY
000113: 11,2435           77775                           VLOAD
000114: 11,2436           22276                                    ZEROVEC
000115: 11,2437           26064                           STOVL    FV
000116: 11,2440           02034                                    ALPHAV
000117: 11,2441           53257                           VSL*     VAD
000118: 11,2442           57605                                    0          -7,2
000119: 11,2443           01535                                    RCV
000120: 11,2444           02042                           STORE    BETAV
000121: 11,2445           65014                           BOF      XCHX,2
000122: 11,2446           01756                                    DIM0FLAG
000123: 11,2447           22454                                    +5
000124: 11,2450           01500                                    DIFEQCNT
000125: 11,2451           12134                           STORE    VECTAB,2
000126: 11,2452           77724                           XCHX,2
000127: 11,2453           01500                                    DIFEQCNT
000128: 11,2454           53575                           VLOAD    UNIT
000129: 11,2455           02034                                    ALPHAV
000130: 11,2456           16034                           STODL    ALPHAV
000131: 11,2457           00045                                    36D
000132: 11,2460           02072                           STORE    ALPHAM
000133: 11,2461           77624                           CALL
000134: 11,2462           22564                                    GAMCOMP
000135: 11,2463           66175                           VLOAD    SXA,1
000136: 11,2464           02042                                    BETAV
000137: 11,2465           00051                                    S2
000138: 11,2466           16034                           STODL    ALPHAV
000139: 11,2467           02074                                    BETAM
000140: 11,2470           02072                           STORE    ALPHAM
000141: 11,2471           71214                           BOF      DLOAD
000142: 11,2472           00342                                    MIDFLAG
000143: 11,2473           22727                                    OBLATE
000144: 11,2474           01517                                    TET
000145: 11,2475           77624                           CALL
000146: 11,2476           33236                                    LSPOS
000147: 11,2477           72174                           AXT,2    LXA,1
000148: 11,2500           00002                                    2
000149: 11,2501           00051                                    S2
000150: 11,2502           77614                           BOF
000151: 11,2503           00343                                    MOONFLAG
000152: 11,2504           22507                                    +3
000153: 11,2505           77076                           VCOMP    AXT,2
000154: 11,2506           00000                                    0
000155: 11,2507           02042                           STORE    BETAV
000156: 11,2510           26107                           STOVL    RPQV
000157: 11,2511           00003                                    2D
000158: 11,2512           02124                           STORE    RPSV
000159: 11,2513           45335                           SLOAD    DSU
000160: 11,2514           01013                                    MODREG
000161: 11,2515           23716                                    OCT27
000162: 11,2516           43030                           BHIZ     BOF
000163: 11,2517           22522                                    +3
000164: 11,2520           01756                                    DIM0FLAG
000165: 11,2521           22536                                    GETRPSV
000166: 11,2522           74375                           VLOAD    VXSC
000167: 11,2523           02034                                    ALPHAV
000168: 11,2524           02072                                    ALPHAM
000169: 11,2525           52257                           VSR*     VSU
000170: 11,2526           57175                                    1,2
000171: 11,2527           02042                                    BETAV
000172: 11,2530           77724                           XCHX,2
000173: 11,2531           01500                                    DIFEQCNT
000174: 11,2532           12142                           STORE    VECTAB     +6,2
000175: 11,2533           02116                           STORE    RQVV
000176: 11,2534           77724                           XCHX,2
000177: 11,2535           01500                                    DIFEQCNT
000178: 11,2536           62175        GETRPSV            VLOAD    INCR,1
000179: 11,2537           02107                                    RPQV
000180: 11,2540           00004                                    4
000181: 11,2541           43014                           CLEAR    BOF
000182: 11,2542           04260                                    RPQFLAG
000183: 11,2543           00343                                    MOONFLAG
000184: 11,2544           22551                                    +5
000185: 11,2545           53261                           VSR      VAD
000186: 11,2546           20612                                    9D
000187: 11,2547           02124                                    RPSV
000188: 11,2550           02124                           STORE    RPSV
000189: 11,2551           77624                           CALL
000190: 11,2552           22564                                    GAMCOMP
000191: 11,2553           62174                           AXT,2    INCR,1
000192: 11,2554           00004                                    4
000193: 11,2555           00004                                    4
000194: 11,2556           77775                           VLOAD
000195: 11,2557           02124                                    RPSV
000196: 11,2560           36042                           STCALL   BETAV
000197: 11,2561           22564                                    GAMCOMP
000198: 11,2562           77650                           GOTO
000199: 11,2563           22727                                    OBLATE
000200: 11,2564           74575        GAMCOMP            VLOAD    VSR1
000201: 11,2565           02042                                    BETAV
000202: 11,2566           40236                           VSQ      SETPD
000203: 11,2567           00001                                    0
000204: 11,2570           61501                           NORM     ROUND
000205: 11,2571           00040                                    31D
000206: 11,2572           60325                           PDDL     NORM                                  #  NORMED B SQUARED TO PD LIST
000207: 11,2573           02072                                    ALPHAM                                #  NORMALIZE (LESS ONE) LENGTH OF ALPHA
000208: 11,2574           00041                                    32D                                   #  SAVING NORM SCALE FACTOR IN X1
000209: 11,2575           63342                           SR1      PDVL
000210: 11,2576           02042                                    BETAV                                 #  C(PDL+2) = ALMOST NORMED ALPHA
000211: 11,2577           77656                           UNIT
000212: 11,2600           16042                           STODL    BETAV
000213: 11,2601           00045                                    36D
000214: 11,2602           02074                           STORE    BETAM
000215: 11,2603           55301                           NORM     BDDV                                  #  FORM NORMALIZED QUOTIENT ALPHAM/BETAM
000216: 11,2604           00042                                    33D
000217: 11,2605           41562                           SR1R     PUSH                                  #  C(PDL+2) = ALMOST NORMALIZED RHO.
000218: 11,2606           77743                           DLOAD*
000219: 11,2607           23731                                    ASCALE,1
000220: 11,2610           00051                           STORE    S1
000221: 11,2611           57124                           XCHX,2   XAD,2
000222: 11,2612           00050                                    S1
000223: 11,2613           00040                                    32D
000224: 11,2614           71264                           XSU,2    DLOAD
000225: 11,2615           00041                                    33D
000226: 11,2616           00003                                    2D
000227: 11,2617           65057                           SR*      XCHX,2
000228: 11,2620           57177                                    0          -1,2
000229: 11,2621           00050                                    S1
000230: 11,2622           74406                           PUSH     SR1R                                  #  RHO/4 TO 4D
000231: 11,2623           50315                           PDVL     DOT
000232: 11,2624           02034                                    ALPHAV
000233: 11,2625           02042                                    BETAV
000234: 11,2626           44372                           SL1R     BDSU                                  #  (RHO/4) - 2(ALPHAV/2.BETAV/2)
000235: 11,2627           57206                           PUSH     DMPR                                  #  TO PDL+6
000236: 11,2630           00005                                    4
000237: 11,2631           77752                           SL1
000238: 11,2632           43206                           PUSH     DAD
000239: 11,2633           23676                                    DQUARTER
000240: 11,2634           75406                           PUSH     SQRT
000241: 11,2635           41475                           DMPR     PUSH
000242: 11,2636           00013                                    10D
000243: 11,2637           43352                           SL1      DAD
000244: 11,2640           23676                                    DQUARTER
000245: 11,2641           43325                           PDDL     DAD                                   #  (1/4)+2((Q+1)/4)      TO PD+14D
000246: 11,2642           00013                                    10D
000247: 11,2643           22274                                    HALFDP
000248: 11,2644           72475                           DMPR     SL1
000249: 11,2645           00011                                    8D
000250: 11,2646           56215                           DAD      DDV
000251: 11,2647           23670                                    THREE/8
000252: 11,2650           00017                                    14D
000253: 11,2651           74275                           DMPR     VXSC
000254: 11,2652           00007                                    6
000255: 11,2653           02042                                    BETAV                                 #                -
000256: 11,2654           64515                           PDVL     VSR3                                  #  (G/2)(C(PD+4))B/2 TO PD+16D
000257: 11,2655           02034                                    ALPHAV
000258: 11,2656           41455                           VAD      PUSH                                  #  A12 + C(PD+16D) TO PD+16D
000259: 11,2657           41345                           DLOAD    DMP
000260: 11,2660           00001                                    0
000261: 11,2661           00015                                    12D
000262: 11,2662           61501                           NORM     ROUND
000263: 11,2663           00037                                    30D
000264: 11,2664           40665                           BDDV     DMP*
000265: 11,2665           00003                                    2
000266: 11,2666           54040                                    MUEARTH,2
000267: 11,2667           74276                           DCOMP    VXSC
000268: 11,2670           57124                           XCHX,2   XAD,2
000269: 11,2671           00050                                    S1
000270: 11,2672           00051                                    S2
000271: 11,2673           55064                           XSU,2    XSU,2
000272: 11,2674           00036                                    30D
000273: 11,2675           00037                                    31D
000274: 11,2676           77600                           BOV                                            #  CLEAR OVIND
000275: 11,2677           22700                                    +1
000276: 11,2700           65057                           VSR*     XCHX,2
000277: 11,2701           57177                                    0          -1,2
000278: 11,2702           00050                                    S1
000279: 11,2703           77655                           VAD
000280: 11,2704           02064                                    FV
000281: 11,2705           02064                           STORE    FV
000282: 11,2706           43400                           BOV      RVQ                                   #  RETURN IF NO OVERFLOW
000283: 11,2707           22710                                    +1
000284: 11,2710           54345        GOBAQUE            DLOAD    SR
000285: 11,2711           02102                                    H
000286: 11,2712           20612                                    9D
000287: 11,2713           44206                           PUSH     BDSU
000288: 11,2714           01551                                    TC
000289: 11,2715           16076                           STODL    TAU.
000290: 11,2716           01517                                    TET
000291: 11,2717           45425                           DSU      STADR
000292: 11,2720           42260                           STCALL   TET
000293: 11,2721           22312                                    KEPPREP
000294: 11,2722           77624                           CALL
000295: 11,2723           23340                                    RECTIFY
000296: 11,2724           77614                           SETGO
000297: 11,2725           04020                                    RPQFLAG
000298: 11,2726           27227                                    TESTLOOP
000299:                                                                                                  #  THE OBLATE ROUTINE COMPUTES THE ACCELERATION DUE TO OBLATENESS. IT USES THE UNIT OF THE VEHICLE
000300:                                                                                                  #  POSITION VECTOR FOUND IN ALPHAV AND THE DISTANCE TO THE CENTER IN ALPHAM. THIS IS ADDED TO THE SUM OF THE
000301:                                                                                                  #  DISTURBING ACCELERATIONS IN FV AND THE PROPER DIFEQ STAGE IS CALLED VIA X1.
000302:
000303: 11,2727           71354        OBLATE             LXA,2    DLOAD
000304: 11,2730           02032                                    PBODY
000305: 11,2731           02072                                    ALPHAM
000306: 11,2732           44601                           SETPD    DSU*
000307: 11,2733           00001                                    0
000308: 11,2734           54006                                    RDE,2
000309: 11,2735           43044                           BPL      BOF                                   #  GET URPV
000310: 11,2736           23133                                    NBRANCH
000311: 11,2737           00343                                    MOONFLAG
000312: 11,2740           23142                                    COSPHIE
000313: 11,2741           65375                           VLOAD    PDDL
000314: 11,2742           02034                                    ALPHAV
000315: 11,2743           01517                                    TET
000316: 11,2744           45125                           PDDL     CALL
000317: 11,2745           23666                                    3/5
000318: 11,2746           51247                                    R-TO-RP
000319: 11,2747           00017                           STORE    URPV
000320: 11,2750           47375                           VLOAD    VXV
000321: 11,2751           02011                                    504LM
000322: 11,2752           22270                                    ZUNIT
000323: 11,2753           61255                           VAD      VXM
000324: 11,2754           22270                                    ZUNIT
000325: 11,2755           00025                                    MMATRIX
000326: 11,2756           77656                           UNIT                                           #  POSSIBLY UNNECESSARY
000327: 11,2757           00025        COMTERM            STORE    UZ
000328: 11,2760           57345                           DLOAD    DMPR
000329: 11,2761           00023                                    COSPHI/2
000330: 11,2762           23700                                    3/32
000331: 11,2763           63525                           PDDL     DSQ                                   #  P2/64 TO PD0
000332: 11,2764           00023                                    COSPHI/2
000333: 11,2765           45275                           DMPR     DSU
000334: 11,2766           23702                                    15/16
000335: 11,2767           23674                                    3/64
000336: 11,2770           57206                           PUSH     DMPR                                  #  P3/32 TO PD2
000337: 11,2771           00023                                    COSPHI/2
000338: 11,2772           76405                           DMP      SL1R
000339: 11,2773           23706                                    7/12
000340: 11,2774           57325                           PDDL     DMPR
000341: 11,2775           00001                                    0
000342: 11,2776           23714                                    2/3
000343: 11,2777           41421                           BDSU     PUSH                                  #  P4/128 TO PD4
000344: 11,3000           57275                           DMPR     DMPR
000345: 11,3001           00023                                    COSPHI/2                              #  BEGIN COMPUTING P5/1024
000346: 11,3002           23710                                    9/16
000347: 11,3003           57325                           PDDL     DMPR
000348: 11,3004           00003                                    2
000349: 11,3005           23712                                    5/128
000350: 11,3006           77621                           BDSU
000351: 11,3007           77603                           DMP*
000352: 11,3010           54034                                    J4REQ/J3,2
000353: 11,3011           43271                           DDV      DAD                                   #               -3
000354: 11,3012           02072                                    ALPHAM                                #  (((P5/256)B 2  /R+P4/32)  /R+P3/8)ALPHAV
000355: 11,3013           00005                                    4                                     #             4             3
000356: 11,3014           56273                           DMPR*    DDV
000357: 11,3015           54030                                    2J3RE/J2,2
000358: 11,3016           02072                                    ALPHAM
000359: 11,3017           74215                           DAD      VXSC
000360: 11,3020           00003                                    2
000361: 11,3021           02034                                    ALPHAV
000362: 11,3022           14033                           STODL    TVEC
000363: 11,3023           70403                           DMP*     SR1
000364: 11,3024           54034                                    J4REQ/J3,2
000365: 11,3025           43271                           DDV      DAD
000366: 11,3026           02072                                    ALPHAM                                #                -3
000367: 11,3027           50473                           DMPR*    SR3
000368: 11,3030           54030                                    2J3RE/J2,2                            #     3        4
000369: 11,3031           43271                           DDV      DAD
000370: 11,3032           02072                                    ALPHAM
000371: 11,3033           76561                           VXSC     VSL1
000372: 11,3034           00025                                    UZ
000373: 11,3035           77645                           BVSU
000374: 11,3036           00033                                    TVEC
000375: 11,3037           14033                           STODL    TVEC
000376: 11,3040           02072                                    ALPHAM
000377: 11,3041           63501                           NORM     DSQ
000378: 11,3042           00047                                    X1
000379: 11,3043           60316                           DSQ      NORM
000380: 11,3044           00051                                    S1                                    #          4
000381: 11,3045           54606                           PUSH     BDDV*                                 #  NORMED R  TO 0D
000382: 11,3046           54024                                    J2REQSQ,2
000383: 11,3047           77761                           VXSC
000384: 11,3050           00033                                    TVEC
000385: 11,3051           00033                           STORE    TVEC
000386: 11,3052           56070                           XAD,1    XAD,1
000387: 11,3053           00046                                    X1
000388: 11,3054           00046                                    X1
000389: 11,3055           43070                           XAD,1    BOF
000390: 11,3056           00050                                    S1
000391: 11,3057           00343                                    MOONFLAG
000392: 11,3060           23123                                    NBRANCH1
000393: 11,3061           63545                           DLOAD    DSQ                                   #   2
000394: 11,3062           00017                                    URPV                                  #  X  B-2 TO 2D
000395: 11,3063           63525                           PDDL     DSQ
000396: 11,3064           00021                                    URPV       +2                         #   2  2
000397: 11,3065           65215                           DAD      PDDL                                  #  Y +X  B-2 TO 2D
000398: 11,3066           00003                                    2D
000399: 11,3067           45352                           SL1      DSU
000400:
000401: 11,3070           00003                                    2D
000402: 11,3071           41525                           PDDL     PUSH                                  #  X -Y  B-2 TO 4D  COSPHI2 TO 6D
000403: 11,3072           00023                                    COSPHI/2
000404: 11,3073           65361                           VXSC     PDDL                                  #  2COSPHI(UZ) B-3 TO 6D
000405: 11,3074           00025                                    UZ
000406: 11,3075           45316                           DSQ      DSU
000407: 11,3076           23666                                    3/5                                   #    2   2      2
000408: 11,3077           52405                           DMP      SL3                                   #  (X -Y)((5COS (PHI)-3)UR 2COS(PHI)UZ)
000409: 11,3100           23757                                    5/8
000410: 11,3101           52361                           VXSC     VSU                                   #       B-3 TO 4D
000411: 11,3102           02034                                    ALPHAV
000412: 11,3103           72561                           VXSC     VSL2
000413: 11,3104           77725                           PDDL
000414: 11,3105           00017                                    URPV
000415: 11,3106           63205                           DMP      PDVL                                  #  XY B-2 TO 10D
000416: 11,3107           00021                                    URPV       +2
000417: 11,3110           02034                                    ALPHAV
000418: 11,3111           74235                           VXV      VXSC
000419: 11,3112           00025                                    UZ
000420: 11,3113           53332                           VSL3     VAD                                   #  4XY(UR X UZ) +D( 4D) B-3
000421: 11,3114           62525                           PDDL     SL2
000422: 11,3115           55205                           DMP      BDDV
000423: 11,3116           00001                                    0D                                    #  3J22R2MU/(X +Y )R
000424: 11,3117           23755                                    3J22R2MU
000425: 11,3120           64561                           VXSC     VSR3
000426: 11,3121           53342                           VSR2     VAD
000427: 11,3122           00033                                    TVEC
000428: 11,3123           77600        NBRANCH1           BOV
000429: 11,3124           23125                                    +1
000430: 11,3125           53257                           VSL*     VAD
000431: 11,3126           20153                                    0          -22D,1
000432: 11,3127           02064                                    FV
000433: 11,3130           02064                           STORE    FV
000434: 11,3131           77600                           BOV
000435: 11,3132           22710                                    GOBAQUE
000436:
000437: 11,3133           72135        NBRANCH            SLOAD    LXA,1
000438: 11,3134           01501                                    DIFEQCNT
000439: 11,3135           00154                                    MPAC
000440: 11,3136           73205                           DMP      CGOTO
000441: 11,3137           23761                                    -1/12
000442: 11,3140           00155                                    MPAC
000443: 11,3141           23150                                    DIFEQTAB
000444: 11,3142           77745        COSPHIE            DLOAD
000445: 11,3143           02040                                    ALPHAV     +4
000446: 11,3144           24023                           STOVL    COSPHI/2
000447: 11,3145           22270                                    ZUNIT
000448: 11,3146           77650                           GOTO
000449: 11,3147           22757                                    COMTERM
000450: 11,3150           23365        DIFEQTAB           CADR     DIFEQ+0
000451: 11,3151           23371                           CADR     DIFEQ+1
000452: 11,3152           23402                           CADR     DIFEQ+2
000453: 11,3153           77214        TIMESTEP           BOF      VLOAD
000454: 11,3154           00342                                    MIDFLAG
000455: 11,3155           23202                                    RECTEST
000456: 11,3156           01535                                    RCV
000457: 11,3157           50041                           DOT      BMN
000458: 11,3160           01543                                    VCV
000459: 11,3161           23202                                    RECTEST
000460: 11,3162           43014                           BON      BOF
000461: 11,3163           00303                                    MOONFLAG
000462: 11,3164           23257                                    LUNSPH
000463: 11,3165           04340                                    RPQFLAG
000464: 11,3166           23254                                    EARSPH
000465: 11,3167           45145                           DLOAD    CALL
000466: 11,3170           01517                                    TET
000467: 11,3171           33236                                    LSPOS                                 #  RPQV IN MPAC
000468: 11,3172           02107                           STORE    RPQV                                  #  RPQV
000469: 11,3173           77754                           LXA,2
000470: 11,3174           02032                                    PBODY
000471: 11,3175           51445        INLUNCHK           BVSU     ABVAL
000472: 11,3176           01535                                    RCV
000473: 11,3177           50025                           DSU      BMN
000474: 11,3200           23765                                    RSPHERE
000475: 11,3201           23274                                    DOSWITCH
000476: 11,3202           51575        RECTEST            VLOAD    ABVAL                                 #  RECTIFY IF
000477: 11,3203           01521                                    TDELTAV
000478: 11,3204           77600                           BOV
000479: 11,3205           23230                                    CALLRECT
000480: 11,3206           51025                           DSU      BPL                                   #        1) EITHER TDELTAV OR TNUV EQUALS OR
000481: 11,3207           23704                                    3/4                                   #           EXCEEDS 3/4 IN MAGNITUDE
000482: 11,3210           23230                                    CALLRECT
000483: 11,3211           53615                           DAD      SL*                                   #                        OR
000484: 11,3212           23704                                    3/4
000485: 11,3213           57605                                    0          -7,2                       #        2) ABVAL(TDELTAV) EQUALS OR EXCEEDS
000486: 11,3214           45271                           DDV      DSU                                   #           .01(ABVAL(RCV))
000487: 11,3215           00013                                    10D
000488: 11,3216           23763                                    RECRATIO
000489: 11,3217           77244                           BPL      VLOAD
000490: 11,3220           23230                                    CALLRECT
000491: 11,3221           01527                                    TNUV
000492: 11,3222           45246                           ABVAL    DSU
000493: 11,3223           23704                                    3/4
000494: 11,3224           77600                           BOV
000495: 11,3225           23230                                    CALLRECT
000496: 11,3226           77640                           BMN
000497: 11,3227           23232                                    INTGRATE
000498: 11,3230           77624        CALLRECT           CALL
000499: 11,3231           23340                                    RECTIFY
000500: 11,3232           77775        INTGRATE           VLOAD
000501: 11,3233           01527                                    TNUV
000502: 11,3234           25140                           STOVL    ZV
000503: 11,3235           01521                                    TDELTAV
000504: 11,3236           01132                           STORE    YV
000505: 11,3237           77614                           CLEAR
000506: 11,3240           00261                                    JSWITCH
000507: 11,3241           66375        DIFEQ0             VLOAD    SSP
000508: 11,3242           01132                                    YV
000509: 11,3243           01501                                    DIFEQCNT
000510: 11,3244           00000                                    0
000511: 11,3245           16034                           STODL    ALPHAV
000512: 11,3246           22276                                    DPZERO
000513: 11,3247           02102                           STORE    H                                     #  START H AT ZERO.  GOES 0(DELT/2)DELT.
000514: 11,3250           52014                           BON      GOTO
000515: 11,3251           00301                                    JSWITCH
000516: 11,3252           23605                                    DOW..
000517: 11,3253           22432                                    ACCOMP
000518: 11,3254           52175        EARSPH             VLOAD    GOTO
000519: 11,3255           02107                                    RPQV
000520: 11,3256           23175                                    INLUNCHK
000521: 11,3257           60545        LUNSPH             DLOAD    SR2
000522: 11,3260           00013                                    10D
000523: 11,3261           50025                           DSU      BMN
000524: 11,3262           23765                                    RSPHERE
000525: 11,3263           23202                                    RECTEST
000526: 11,3264           71214                           BOF      DLOAD
000527: 11,3265           04340                                    RPQFLAG
000528: 11,3266           23274                                    DOSWITCH
000529: 11,3267           01517                                    TET
000530: 11,3270           77624                           CALL
000531: 11,3271           33236                                    LUNPOS
000532: 11,3272           77676                           VCOMP
000533: 11,3273           02107                           STORE    RPQV
000534: 11,3274           77624        DOSWITCH           CALL
000535: 11,3275           23300                                    ORIGCHNG
000536: 11,3276           77650                           GOTO
000537: 11,3277           23232                                    INTGRATE
000538: 11,3300           45020        ORIGCHNG           STQ      CALL
000539: 11,3301           02114                                    ORIGEX
000540: 11,3302           23340                                    RECTIFY
000541: 11,3303           53775                           VLOAD    VSL*
000542: 11,3304           01535                                    RCV
000543: 11,3305           57576                                    0,2
000544: 11,3306           53651                           VSU      VSL*
000545: 11,3307           02107                                    RPQV
000546: 11,3310           57574                                    2,2
000547: 11,3311           01503                           STORE    RRECT
000548: 11,3312           15535                           STODL    RCV
000549: 11,3313           01517                                    TET
000550: 11,3314           77624                           CALL
000551: 11,3315           33347                                    LUNVEL
000552: 11,3316           57414                           BOF      VCOMP
000553: 11,3317           00343                                    MOONFLAG
000554: 11,3320           23321                                    +1
000555: 11,3321           53715                           PDVL     VSL*
000556: 11,3322           01543                                    VCV
000557: 11,3323           57576                                    0,2
000558: 11,3324           77651                           VSU
000559: 11,3325           77657                           VSL*
000560: 11,3326           57574                                    0          +2,2
000561: 11,3327           01511                           STORE    VRECT
000562: 11,3330           01543                           STORE    VCV
000563: 11,3331           67154                           LXA,2    SXA,2
000564: 11,3332           02114                                    ORIGEX
000565: 11,3333           00052                                    QPRET
000566: 11,3334           52014                           BON      GOTO
000567: 11,3335           00303                                    MOONFLAG
000568: 11,3336           26661                                    CLRMOON
000569: 11,3337           26666                                    SETMOON
000570:                                                                                                  #  THE RECTIFY SUBROUTINE IS CALLED BY THE INTEGRATION PROGRAM AND OCCASIONALLY BY THE MEASUREMENT INCORPORATION
000571:                                                                                                  #  ROUTINES TO ESTABLISH A NEW CONIC.
000572:
000573: 11,3340           77354        RECTIFY            LXA,2    VLOAD
000574: 11,3341           02032                                    PBODY
000575: 11,3342           01521                                    TDELTAV
000576: 11,3343           53257                           VSL*     VAD
000577: 11,3344           57605                                    0          -7,2
000578: 11,3345           01535                                    RCV
000579: 11,3346           01503                           STORE    RRECT
000580: 11,3347           25535                           STOVL    RCV
000581: 11,3350           01527                                    TNUV
000582: 11,3351           53257                           VSL*     VAD
000583: 11,3352           57602                                    0          -4,2
000584: 11,3353           01543                                    VCV
000585: 11,3354           01511        MINIRECT           STORE    VRECT
000586: 11,3355           25543                           STOVL    VCV
000587: 11,3356           22276                                    ZEROVEC
000588: 11,3357           01521                           STORE    TDELTAV
000589: 11,3360           15527                           STODL    TNUV
000590: 11,3361           22276                                    ZEROVEC
000591: 11,3362           01551                           STORE    TC
000592: 11,3363           01553                           STORE    XKEP
000593: 11,3364           77616                           RVQ
000594:
000595:                                                                                                  #  THE THREE DIFEQ ROUTINES - DIFEQ+0, DIFEQ+12, AND DIFEQ+24 - ARE ENTEREDTO PROCESS THE CONTRIBUTIONS AT THE
000596:                                                                                                  #  BEGINNING, MIDDLE, AND END OF THE TIMESTEP, RESPECTIVELY.  THE UPDATING IS DONE BY THE NYSTROM METHOD.
000597:
000598: 11,3365           64575        DIFEQ+0            VLOAD    VSR3
000599: 11,3366           02064                                    FV
000600: 11,3367           36050                           STCALL   PHIV
000601: 11,3370           23546                                    DIFEQCOM
000602: 11,3371           74575        DIFEQ+1            VLOAD    VSR1
000603: 11,3372           02064                                    FV
000604: 11,3373           53206                           PUSH     VAD
000605: 11,3374           02050                                    PHIV
000606: 11,3375           26056                           STOVL    PSIV
000607: 11,3376           53362                           VSR1     VAD
000608: 11,3377           02050                                    PHIV
000609: 11,3400           36050                           STCALL   PHIV
000610: 11,3401           23546                                    DIFEQCOM
000611: 11,3402           57345        DIFEQ+2            DLOAD    DMPR
000612: 11,3403           02102                                    H
000613: 11,3404           23714                                    DP2/3
000614: 11,3405           74206                           PUSH     VXSC
000615: 11,3406           02050                                    PHIV
000616: 11,3407           53372                           VSL1     VAD
000617: 11,3410           01140                                    ZV
000618: 11,3411           53361                           VXSC     VAD
000619: 11,3412           02102                                    H
000620: 11,3413           01132                                    YV
000621: 11,3414           25132                           STOVL    YV
000622: 11,3415           02064                                    FV
000623: 11,3416           53322                           VSR3     VAD
000624: 11,3417           02056                                    PSIV
000625: 11,3420           76561                           VXSC     VSL1
000626: 11,3421           40055                           VAD      BOV
000627: 11,3422           01140                                    ZV
000628: 11,3423           23424                                    +1
000629: 11,3424           01140                           STORE    ZV
000630: 11,3425           45014                           BOFF     CALL
000631: 11,3426           00341                                    JSWITCH
000632: 11,3427           23477                                    ENDSTATE
000633: 11,3430           11057                                    GRP2PC
000634: 11,3431           77354                           LXA,2    VLOAD
000635: 11,3432           01122                                    COLREG
000636: 11,3433           01140                                    ZV
000637: 11,3434           77732                           VSL3                                           #  ADJUST W-POSITION FOR STORAGE
000638: 11,3435           12467                           STORE    W          +54D,2
000639: 11,3436           77775                           VLOAD
000640: 11,3437           01132                                    YV
000641: 11,3440           40132                           VSL3     BOV
000642: 11,3441           23571                                    WMATEND
000643: 11,3442           12401                           STORE    W,2
000644:
000645: 11,3443           77624                           CALL
000646: 11,3444           11057                                    GRP2PC
000647: 11,3445           66354                           LXA,2    SSP
000648: 11,3446           01122                                    COLREG
000649: 11,3447           00052                                    S2
000650: 11,3450           00000                                    0
000651: 11,3451           67114                           INCR,2   SXA,2
000652: 11,3452           00006                                    6
000653: 11,3453           01131                                    YV
000654: 11,3454           45104                           TIX,2    CALL
000655: 11,3455           23542                                    RELOADSV
000656: 11,3456           11057                                    GRP2PC
000657: 11,3457           67154                           LXA,2    SXA,2
000658: 11,3460           01131                                    YV
000659: 11,3461           01122                                    COLREG
000660:
000661: 11,3462           77624        NEXTCOL            CALL
000662: 11,3463           11057                                    GRP2PC
000663: 11,3464           76754                           LXA,2    VLOAD*
000664: 11,3465           01122                                    COLREG
000665: 11,3466           75376                                    W,2
000666: 11,3467           77722                           VSR3                                           #  ADJUST W-POSITION FOR INTEGRATION
000667: 11,3470           01132                           STORE    YV
000668: 11,3471           76173                           VLOAD*   AXT,1
000669: 11,3472           75310                                    W          +54D,2
000670: 11,3473           00000                                    0
000671: 11,3474           77722                           VSR3                                           #  ADJUST W-VELOCITY FOR INTEGRATION
000672: 11,3475           35140                           STCALL   ZV
000673: 11,3476           23241                                    DIFEQ0
000674:
000675: 11,3477           77775        ENDSTATE           VLOAD
000676: 11,3500           01140                                    ZV
000677: 11,3501           25527                           STOVL    TNUV
000678: 11,3502           01132                                    YV
000679: 11,3503           01521                           STORE    TDELTAV
000680: 11,3504           43014                           BON      BOFF
000681: 11,3505           04715                                    MIDAVFLG
000682: 11,3506           27641                                    CKMID2                                #  CHECK FOR MID2 BEFORE GOING TO TIMEINC
000683: 11,3507           01756                                    DIM0FLAG
000684: 11,3510           27227                                    TESTLOOP
000685: 11,3511           77776                           EXIT
000686: 11,3512           05423                           TC       PHASCHNG
000687: 11,3513           04022                           OCT      04022                                 #  PHASE 1
000688: 11,3514           40774                           CS       RASFLAG                               #  PHASE CHANGE HAS OCCURRED BETWEEN
000689: 11,3515           75020                           MASK     REINTBIT                              #  INTSTALL AND INTWAKE
000690: 11,3516           26774                           ADS      RASFLAG
000691: 11,3517           06014                           TC       INTPRET
000692: 11,3520           77731                           SSP
000693: 11,3521           00053                                    QPRET
000694: 11,3522           23527                                    AMOVED
000695: 11,3523           52014                           BON      GOTO
000696: 11,3524           01714                                    VINTFLAG
000697: 11,3525           26631                                    ATOPCSM
000698: 11,3526           26704                                    ATOPLEM
000699: 11,3527           66214        AMOVED             SET      SSP
000700: 11,3530           00061                                    JSWITCH
000701: 11,3531           01123                                    COLREG
000702: 11,3532           77741                           DEC      -30        B-14
000703: 11,3533           66214                           BOFF     SSP
000704: 11,3534           01755                                    D6OR9FLG
000705: 11,3535           23462                                    NEXTCOL
000706: 11,3536           01123                                    COLREG
000707: 11,3537           77717                           DEC      -48        B-14
000708: 11,3540           77650                           GOTO
000709: 11,3541           23462                                    NEXTCOL
000710:
000711: 11,3542           77745        RELOADSV           DLOAD                                          #  RELOAD TEMPORARY STATE VECTOR
000712: 11,3543           01121                                    TDEC                                  #  FROM PERMANENT IN CASE OF
000713: 11,3544           34041                           STCALL   TDEC1
000714: 11,3545           27112                                    INTEGRV2                              #  BY STARTING AT INTEGRV2.
000715: 11,3546           43345        DIFEQCOM           DLOAD    DAD                                   #  INCREMENT H AND DIFEQCNT.
000716: 11,3547           02100                                    DT/2
000717: 11,3550           02102                                    H
000718: 11,3551           66110                           INCR,1   SXA,1
000719: 11,3552           77763                           DEC      -12        B-14
000720: 11,3553           01500                                    DIFEQCNT                              #  DIFEQCNT SET FOR NEXT ENTRY.
000721: 11,3554           02102                           STORE    H
000722: 11,3555           74561                           VXSC     VSR1
000723: 11,3556           02064                                    FV
000724: 11,3557           74255                           VAD      VXSC
000725: 11,3560           01140                                    ZV
000726: 11,3561           02102                                    H
000727: 11,3562           77655                           VAD
000728: 11,3563           01132                                    YV
000729: 11,3564           02034                           STORE    ALPHAV
000730: 11,3565           52014                           BON      GOTO
000731: 11,3566           00301                                    JSWITCH
000732: 11,3567           23605                                    DOW..
000733: 11,3570           22412                                    FBR3
000734:
000735: 11,3571           43014        WMATEND            CLEAR    CLEAR
000736: 11,3572           01676                                    DIM0FLAG                              #  DONT INTEGRATE W THIS TIME
000737: 11,3573           01671                                    ORBWFLAG                              #  INVALIDATE W
000738: 11,3574           77614                           CLEAR
000739: 11,3575           02676                                    RENDWFLG
000740: 11,3576           77414                           SET      EXIT
000741: 11,3577           01472                                    STATEFLG                              #  PICK UP STATE VECTOR UPDATE
000742: 11,3600           05651                           TC       ALARM
000743: 11,3601           00421                           OCT      421
000744: 11,3602           06014                           TC       INTPRET
000745: 11,3603           77650                           GOTO
000746: 11,3604           27227                                    TESTLOOP                              #  FINISH INTEGRATING STATE VECTOR
000747:
000748:                                                                                                  #  ORBITAL ROUTINE FOR EXTRAPOLATION OF THE W MATRIX. IT COMPUTES THE SECOND DERIVATIVE OF EACH COLUMN POSITION
000749:                                                                                                  #  VECTOR OF THE MATRIX AND CALLS THE NYSTROM INTEGRATION ROUTINES TO SOLVE THE DIFFERENTIAL EQUATIONS. THE PROGRAM
000750:                                                                                                  #  USES A TABLE OF VEHICLE POSITION VECTORS COMPUTED DURING THE INTEGRATION OF THE VEHICLES POSITION AND VELOCITY.
000751:
000752: 11,3605           70754        DOW..              LXA,2    DLOAD*
000753: 11,3606           02032                                    PBODY
000754: 11,3607           54040                                    MUEARTH,2
000755: 11,3610           36074                           STCALL   BETAM
000756: 11,3611           23633                                    DOW..1
000757: 11,3612           02064                           STORE    FV
000758: 11,3613           62014                           BOF      INCR,1
000759: 11,3614           00342                                    MIDFLAG
000760: 11,3615           23133                                    NBRANCH
000761: 11,3616           77771                           DEC      -6         B-14


000763: 11,3617           70754                           LXA,2    DLOAD*
000764: 11,3620           02032                                    PBODY
000765: 11,3621           54042                                    MUEARTH    -2,2
000766: 11,3622           36074                           STCALL   BETAM
000767: 11,3623           23633                                    DOW..1
000768: 11,3624           50414                           BON      VSR6
000769: 11,3625           00303                                    MOONFLAG
000770: 11,3626           23627                                    +1
000771: 11,3627           77655                           VAD
000772: 11,3630           02064                                    FV
000773: 11,3631           36064                           STCALL   FV
000774: 11,3632           23133                                    NBRANCH
000775: 11,3633           60575        DOW..1             VLOAD    VSR4
000776: 11,3634           02034                                    ALPHAV
000777: 11,3635           53513                           PDVL*    UNIT
000778: 11,3636           02134                                    VECTAB,1
000779: 11,3637           46315                           PDVL     VPROJ
000780: 11,3640           02034                                    ALPHAV
000781: 11,3641           52361                           VXSC     VSU
000782: 11,3642           23704                                    3/4
000783: 11,3643           60325                           PDDL     NORM
000784: 11,3644           00045                                    36D
000785: 11,3645           00052                                    S2
000786: 11,3646           63406                           PUSH     DSQ
000787: 11,3647           77605                           DMP
000788: 11,3650           65301                           NORM     PDDL
000789: 11,3651           00043                                    34D
000790: 11,3652           02074                                    BETAM
000791: 11,3653           56342                           SR1      DDV
000792: 11,3654           77761                           VXSC
000793: 11,3655           57154                           LXA,2    XAD,2
000794: 11,3656           00051                                    S2
000795: 11,3657           00051                                    S2
000796: 11,3660           57074                           XAD,2    XAD,2
000797: 11,3661           00051                                    S2
000798: 11,3662           00042                                    34D
000799: 11,3663           43457                           VSL*     RVQ
000800: 11,3664           57606                                    0          -8D,2
000801:
000802: 11,2000                                           SETLOC   ORBITAL1
000803: 11,2000                                           BANK
000804:
000805: 11,3665           04631 23146  3/5                2DEC     .6         B-2
000806:
000807: 11,3667           14000 00000  THREE/8            2DEC     .375
000808:
000809: 11,3671           02314 31463  .3D                2DEC     .3         B-2
000810:
000811: 11,3673           01400 00000  3/64               2DEC     3          B-6
000812:
000813: 11,3675           10000 00000  DP1/4              2DEC     .25
000814:
000815: 11,3677  11,3675               DQUARTER           EQUALS   DP1/4
000816: 11,3677  11,3675               POS1/4             EQUALS   DP1/4
000817: 11,3677           03000 00000  3/32               2DEC     3          B-5
000818:
000819: 11,3701           36000 00000  15/16              2DEC     15.        B-4
000820:
000821: 11,3703           30000 00000  3/4                2DEC     3.0        B-2
000822:
000823: 11,3705           22525 12525  7/12               2DEC     .5833333333
000824:
000825: 11,3707           22000 00000  9/16               2DEC     9          B-4
000826:
000827: 11,3711           01200 00000  5/128              2DEC     5          B-7
000828:
000829: 11,3713  11,2275               DPZERO             EQUALS   ZEROVEC
000830: 11,3713           25252 25253  DP2/3              2DEC     .6666666667
000831:
000832: 11,3715  11,3713               2/3                EQUALS   DP2/3
000833: 11,3715           00027        OCT27              OCT      27
000834:
000835:                                                                                                  #  LM504 IS TEMPORARY
000836:
000837:                                                                                                  #  IT IS VITAL THAT THE FOLLOWING CONSTANTS NOT BE SHUFFLED
000838: 11,3716           77764                           DEC      -11        B-14
000839: 11,3717           77775                           DEC      -2         B-14
000840: 11,3720           77766                           DEC      -9         B-14
000841: 11,3721           77771                           DEC      -6         B-14
000842: 11,3722           77775                           DEC      -2         B-14
000843: 11,3723           77775                           DEC      -2         B-14
000844: 11,3724           00000                           DEC      0          B-14
000845: 11,3725           77763                           DEC      -12        B-14
000846: 11,3726           77766                           DEC      -9         B-14
000847: 11,3727           77773                           DEC      -4         B-14
000848: 11,3730           77770        ASCALE             DEC      -7         B-14
000849: 11,3731           77771                           DEC      -6         B-14
000850:
000851:                                                                                                  #  *** THE ORDER OF THE FOLLOWING CONSTANTS MUST NOT BE CHANGED ***********
000852:
000853: 11,3732           27446 14620                     2DEC*    1.32715445 E16        B-54*           #  S
000854: 11,3734           16471 01352  MUM                2DEC*    4.9027780  E8         B-30*           #  M
000855:
000856: 11,3736           22437 16067  MUEARTH            2DEC*    3.986032   E10        B-36*
000857: 11,3740           00000 00000                     2DEC     0          B-28
000858:
000859: 11,3742           02302 24736  J4REQ/J3           2DEC*    .4991607391 E7         B-26*
000860: 11,3744           00000 00000                     2DEC     0          B-28
000861: 11,3746           77776 53032  2J3RE/J2           2DEC*    -.1355426363 E5         B-27*
000862: 11,3750           10407 05344                     2DEC*    .3067493316 E18        B-60*
000863: 11,3752           13710 35320  J2REQSQ            2DEC*    1.75501139 E21        B-72*
000864: 11,3754           12160 12124  3J22R2MU           2DEC*    9.20479048 E16        B-58*
000865:
000866: 11,3756           24000 00000  5/8                2DEC     5          B-3
000867:
000868: 11,3760           74631 63145  -1/12              2DEC     -.1
000869:
000870: 11,3762           00243 32703  RECRATIO           2DEC     .01
000871:
000872: 11,3764           03654 21000  RSPHERE            2DEC     64373.76   E3         B-29
000873:
000874: 11,3766           03654 21000  RDM                2DEC     16093.44   E3         B-27
000875:
000876: 11,3770           04627 25200  RDE                2DEC     80467.20   E3         B-29
000877:
000878: 11,3772     5011               INTFLBIT           =        BIT14
000879: 11,3772     5020               REINTBIT           =        BIT7
000880:
000881: 11,3772                        RATT               EQUALS   00
000882: 11,3772                        VATT               EQUALS   6D
000883: 11,3772                        TAT                EQUALS   12D
000884: 11,3772                        RATT1              EQUALS   14D
000885: 11,3772                        VATT1              EQUALS   20D
000886: 11,3772                        MU(P)              EQUALS   26D
000887: 11,3772                        TDEC1              EQUALS   32D
000888: 11,3772                        URPV               EQUALS   14D
000889: 11,3772     0022               COSPHI/2           EQUALS   URPV       +4
000890: 11,3772                        UZ                 EQUALS   20D
000891: 11,3772                        TVEC               EQUALS   26D
000892:

End of include-file ORBITAL_INTEGRATION.agc.  Parent file is MAIN.agc


