
Source Code


000002:                                                                                                  ## Copyright:   Public domain.
000003:                                                                                                  ## Filename:    P-AXIS_RCS_AUTOPILOT.agc
000004:                                                                                                  ## Purpose:     A section of an attempt to reconstruct Sundance revision 306
000005:                                                                                                  ##              as closely as possible with available information. Sundance
000006:                                                                                                  ##              306 is the source code for the Lunar Module's (LM) Apollo
000007:                                                                                                  ##              Guidance Computer (AGC) for Apollo 9. This program was created
000008:                                                                                                  ##              using the mixed-revision SundanceXXX as a starting point, and
000009:                                                                                                  ##              pulling back features from Luminary 69 believed to have been
000010:                                                                                                  ##              added based on memos, checklists, observed address changes,
000011:                                                                                                  ##              or the Sundance GSOPs.
000012:                                                                                                  ## Assembler:   yaYUL
000013:                                                                                                  ## Contact:     Ron Burkey <info@sandroid.org>.
000014:                                                                                                  ## Website:     www.ibiblio.org/apollo/index.html
000015:                                                                                                  ## Mod history: 2020-07-24 MAS  Created from SundanceXXX.
000016:
000017:
000018:
000019: 16,2444                                           BANK     16
000020: 16,2000                                           SETLOC   DAPS1
000021: 16,2000                                           BANK
000022:
000023: 16,2444  E6,1450                                  EBANK=   PERROR
000024: 16,2444                                           COUNT*   $$/DAPP
000025:
000026:                                                                                                  #  THE FOLLOWING T5RUPT ENTRY BEGINS THE PROGRAM WHICH CONTROLS THE P-AXIS ACTION OF THE LEM USING THE RCS JETS.
000027:                                                                                                  #  THE NOMINAL TIME BETWEEN THE P-AXIS RUPTS IS 100 MS IN ALL NON-IDLING MODES OF THE DAP.
000028:
000029: 16,2444           37701        PAXIS              CA       MS100
000030: 16,2445           54030                           TS       TIME5                                 #  *** NECESSARY IN ORDER TO ALLOW SYN-
000031:                                                                                                  #  CHRONIZATION WITH OTHER INTERRUPTS ***
000032:
000033: 16,2446           22016                           LXCH     BANKRUPT                              #  INTERRUPT LEAD IN (CONTINUED)
000034: 16,2447           00006                           EXTEND
000035: 16,2450           22012                           QXCH     QRUPT
000036:
000037:                                                                                                  #  CHECK IF DAP PASS IS PERMISSIBLE
000038:
000039: 16,2451           11752                           CCS      DAPZRUPT                              #  IF DAPZRUPT POSITIVE, DAP (JASK) IS
000040: 16,2452           05716                           TC       ABORT                                 #     STILL IN PROGRESS AND A RESTART IS
000041: 16,2453           02000                           OCT      02000                                 #    CALLED FOR.  IT IS NEVER ZERO.
000042:
000043: 16,2454           02043                           TC       CHEKBITS                              #  RETURN IS TO I+1 IF DAP SHOULD STAY ON.
000044:
000045:                                                                                                  #  ***** KALCMANU-DAP AND "RATE-HOLD"-DAP INTERFACE *****
000046:
000047:                                                                                                  #  THE FOLLOWING SECTION IS EXECUTED EVERY 100 MS (10 TIMES A SECOND) WITHIN THE P-AXIS REACTION CONTROL SYSTEM
000048:                                                                                                  #  AUTOPILOT (WHENEVER THE DAP IS IN OPERATION).
000049:
000050: 16,2455           31632                           CA       CDUXD
000051: 16,2456           00006                           EXTEND
000052: 16,2457           21635                           MSU      DELCDUX
000053: 16,2460           02475                           TC       1STOTWOS
000054: 16,2461           55632                           TS       CDUXD
000055: 16,2462           31633                           CA       CDUYD
000056: 16,2463           00006                           EXTEND
000057: 16,2464           21636                           MSU      DELCDUY
000058: 16,2465           02475                           TC       1STOTWOS
000059: 16,2466           55633                           TS       CDUYD
000060: 16,2467           31634                           CA       CDUZD
000061: 16,2470           00006                           EXTEND
000062: 16,2471           21637                           MSU      DELCDUZ
000063: 16,2472           02475                           TC       1STOTWOS
000064: 16,2473           55634                           TS       CDUZD
000065:                                                                                                  #  RATELOOP COMPUTES JETRATEQ, JETRATER, AND 1JACC*NO. PJETS IN ITEMP1.
000066:                                                                                                  #   RETURNS TO BACKP.
000067:
000068:                                                                                                  #   JETRATE = 1JACC*NO.PJETS*TJP   (NOTE TJ IS THE TIME FIRED DURING CSP)
000069:                                                                                                  #   JETRATEQ = 1JACCQ(TJU*NO.UJETS - TJV*NO.VJETS)
000070:                                                                                                  #   JETRATER = 1JACCR(TJU*NO.UJETS + TJV*NO.VJETS)
000071:
000072: 16,2474           13705                           TCF      RATELOOP
000073: 16,2475           10000        1STOTWOS           CCS      A
000074: 16,2476           65026                           AD       ONE
000075: 16,2477           00002                           TC       Q
000076: 16,2500           40000                           CS       A
000077: 16,2501           00002                           TC       Q
000078: 16,2502           00006        SUBDIVDE           EXTEND                                         #  OVERFLOW PROCTION ROUTINE TO GIVE
000079: 16,2503           71736                           MP       DAPTEMP3                              #  POSMAX OR NEGMAX IF THE DIVIDE WOULD
000080: 16,2504           21425                           DAS      OMEGAU                                #  OVERFLOW
000081:
000082: 16,2505           11424                 +3        CCS      OMEGAU
000083: 16,2506           12510                           TCF      +2
000084: 16,2507           12520                           TCF      DIVIDER
000085: 16,2510           62531                           AD       -OCT630
000086: 16,2511           00006                           EXTEND
000087: 16,2512           62520                           BZMF     DIVIDER
000088:
000089: 16,2513           11424                           CCS      OMEGAU
000090: 16,2514           35006                           CA       POSMAX                                #  45 DEG/SEC
000091: 16,2515           00002                           TC       Q
000092: 16,2516           45006                           CS       POSMAX
000093: 16,2517           00002                           TC       Q
000094:
000095: 16,2520           53425        DIVIDER            DXCH     OMEGAU
000096: 16,2521           00006                           EXTEND
000097: 16,2522           10061                           DV       ITEMP1
000098: 16,2523           00002                           TC       Q
000099:
000100: 16,2524           54007        OVERSUB            TS       7                                     #  RETURNS A UNCHANGED OR LIMITED TO
000101: 16,2525           00002                           TC       Q                                     #    POSMAX OR NEGMAX IF A HAS OVERFLOW
000102: 16,2526           50000                           INDEX    A
000103: 16,2527           45007                           CS       BIT15      -1
000104: 16,2530           00002                           TC       Q
000105:
000106: 16,2531           77147        -OCT630            OCT      77147
000107:
000108: 16,2532           31734        BACKP              CA       DAPTEMP1
000109: 16,2533           00006                           EXTEND
000110: 16,2534           71522                           MP       1JACC
000111: 16,2535           55742                           TS       JETRATE
000112:
000113:                                                                                                  #  BEGINNING OF THE RATE DERIVATION
000114:                                                                                                  #  OMEGAP,Q,R      BODY RATES SCALED AT PI/4
000115:                                                                                                  #  TRAPER,Q,R      BODY ANGLE ERRORS FROM PREDICTED ANGLE (PI/40)
000116:                                                                                                  #  NP(QR)TRAPS     NUMBER OF TIMES ANGLE ERROR HAS BEEN ACCUMULATED
000117:                                                                                                  #  AOSQ(R)TERM     CHANGE IN RATE DUE TO OFFSET ACCELLERATION.  (PI/4)
000118:                                                                                                  #  JETRATE,Q,R     CHANGE IN RATE DUE TO  JET   ACCELLERATION.  (PI/4)
000119:                                                                                                  #  TRAPSIZE        NEGATIVE LIMIT OF MAGNITUDE OF TRAPEDP, ECT.
000120:                                                                                                  #  OMEGAU          DP-TEMPORARY STORAGE
000121:                                                                                                  #      OMEGA = OMEGA + JETRATE + AOSTERM (+TRAPED/NTRAPS IF TRAPED BIG)
000122:
000123: 16,2536           30032                           CAE      CDUX
000124: 16,2537           54001                           TS       L
000125: 16,2540           00006                           EXTEND
000126: 16,2541           21436                           MSU      OLDXFORP                              #  SCALED AT PI
000127: 16,2542           23436                           LXCH     OLDXFORP
000128: 16,2543           55734                           TS       DAPTEMP1
000129: 16,2544           33664                           CA       1/40
000130: 16,2545           54061                           TS       ITEMP1
000131: 16,2546           41742                           CS       JETRATE
000132: 16,2547           00006                           EXTEND
000133: 16,2550           75011                           MP       BIT14
000134: 16,2551           27426                           ADS      TRAPEDP
000135: 16,2552           31743                           CA       JETRATEQ
000136: 16,2553           61540                           AD       AOSQTERM
000137: 16,2554           00006                           EXTEND
000138: 16,2555           77707                           MP       -BIT14
000139: 16,2556           27427                           ADS      TRAPEDQ
000140: 16,2557           31744                           CA       JETRATER
000141: 16,2560           61541                           AD       AOSRTERM
000142: 16,2561           00006                           EXTEND
000143: 16,2562           77707                           MP       -BIT14
000144: 16,2563           27430                           ADS      TRAPEDR
000145:
000146: 16,2564           30033                           CA       CDUY
000147: 16,2565           54001                           TS       L
000148: 16,2566           00006                           EXTEND
000149: 16,2567           21437                           MSU      OLDYFORP                              #  SCALED AT PI
000150: 16,2570           23437                           LXCH     OLDYFORP
000151: 16,2571           55735                           TS       DAPTEMP2
000152: 16,2572           00006                           EXTEND
000153: 16,2573           71412                           MP       M11                                   #  M11 SCALED AT 1
000154: 16,2574           61734                           AD       DAPTEMP1
000155: 16,2575           53425                           DXCH     OMEGAU
000156:
000157: 16,2576           02505                           TC       SUBDIVDE   +3                         #  RETURNS WITH CDU-RATE AT PI/4
000158:
000159: 16,2577           00006                           EXTEND
000160: 16,2600           61417                           SU       OMEGAP
000161: 16,2601           27426                           ADS      TRAPEDP
000162: 16,2602           02524                           TC       OVERSUB
000163: 16,2603           55426                           TS       TRAPEDP
000164: 16,2604           30034                           CA       CDUZ
000165: 16,2605           54001                           TS       L
000166: 16,2606           00006                           EXTEND
000167: 16,2607           21440                           MSU      OLDZFORQ
000168: 16,2610           55736                           TS       DAPTEMP3
000169: 16,2611           23440                           LXCH     OLDZFORQ
000170: 16,2612           31413                           CA       M21
000171: 16,2613           00006                           EXTEND
000172: 16,2614           71735                           MP       DAPTEMP2
000173: 16,2615           53425                           DXCH     OMEGAU
000174: 16,2616           31415                           CA       M22
000175: 16,2617           02502                           TC       SUBDIVDE
000176:
000177: 16,2620           00006                           EXTEND
000178: 16,2621           61420                           SU       OMEGAQ
000179: 16,2622           27427                           ADS      TRAPEDQ
000180: 16,2623           02524                           TC       OVERSUB
000181: 16,2624           55427                           TS       TRAPEDQ
000182: 16,2625           31414                           CA       M31
000183: 16,2626           00006                           EXTEND
000184: 16,2627           71735                           MP       DAPTEMP2
000185: 16,2630           53425                           DXCH     OMEGAU
000186: 16,2631           31416                           CA       M32
000187:
000188: 16,2632           02502                           TC       SUBDIVDE
000189:
000190: 16,2633           00006                           EXTEND
000191: 16,2634           61421                           SU       OMEGAR
000192: 16,2635           27430                           ADS      TRAPEDR
000193: 16,2636           02524                           TC       OVERSUB
000194: 16,2637           55430                           TS       TRAPEDR                               #  TRAPEDS HAVE ALL BEEN COMPUTED
000195: 16,2640           31102                           CA       DAPBOOLS                              #  PICK UP PAD LOADED STATE ESTIMATOR GAINS
000196: 16,2641           75012                           MASK     CSMDOCKD
000197: 16,2642           00006                           EXTEND
000198: 16,2643           12651                           BZF      LMONLY
000199: 16,2644           00006                           EXTEND                                         #  DOCKED
000200: 16,2645           31405                           DCA      DKOMEGAN
000201: 16,2646           52062                           DXCH     ITEMP1
000202: 16,2647           31403                           CA       DKTRAP
000203: 16,2650           12655                           TCF      +5
000204: 16,2651           00006        LMONLY             EXTEND                                         #  UNDOCKED
000205: 16,2652           31410                           DCA      LMOMEGAN
000206: 16,2653           52062                           DXCH     ITEMP1
000207: 16,2654           31406                           CA       LMTRAP
000208: 16,2655           54063                 +5        TS       ITEMP3
000209:
000210: 16,2656           11426                           CCS      TRAPEDP
000211: 16,2657           12661                           TCF      +2
000212: 16,2660           12676                           TCF      SMALPDIF
000213: 16,2661           60063                           AD       ITEMP3                                #  TRAPSIZE > ABOUT 77001 %-1.4DEG/SEC"
000214: 16,2662           00006                           EXTEND
000215: 16,2663           62676                           BZMF     SMALPDIF
000216: 16,2664           22007                           ZL
000217: 16,2665           23426                           LXCH     TRAPEDP
000218: 16,2666           35030                           CA       ZERO
000219: 16,2667           00006                           EXTEND
000220: 16,2670           11431                           DV       NPTRAPS
000221: 16,2671           27417                           ADS      OMEGAP
000222: 16,2672           02524                           TC       OVERSUB
000223: 16,2673           55417                           TS       OMEGAP
000224: 16,2674           30061                           CA       ITEMP1                                #  ABOUT 10 OR 0 FOR DOCKED OR UNDOCKED
000225: 16,2675           55431                           TS       NPTRAPS
000226: 16,2676           25431        SMALPDIF           INCR     NPTRAPS
000227: 16,2677           31742        P-RATE             CA       JETRATE
000228: 16,2700           27417                           ADS      OMEGAP
000229: 16,2701           02524                           TC       OVERSUB
000230: 16,2702           55417                           TS       OMEGAP
000231:
000232: 16,2703           11427                           CCS      TRAPEDQ
000233: 16,2704           12706                           TCF      +2
000234: 16,2705           12735                           TCF      Q-RATE
000235: 16,2706           60063                           AD       ITEMP3                                #  TRAPSIZE > ABOUT 77001 %-1.4DEG/SEC"
000236: 16,2707           00006                           EXTEND
000237: 16,2710           62735                           BZMF     Q-RATE
000238: 16,2711           22007                           ZL
000239: 16,2712           23427                           LXCH     TRAPEDQ
000240: 16,2713           35030                           CA       ZERO
000241: 16,2714           00006                           EXTEND
000242: 16,2715           11432                           DV       NQTRAPS
000243: 16,2716           55734                           TS       DAPTEMP1                              #  SAVE FOR OFFSET ESTIMATE
000244: 16,2717           27441                           ADS      SUMRATEQ
000245: 16,2720           31734                           CA       DAPTEMP1
000246: 16,2721           27420                           ADS      OMEGAQ
000247: 16,2722           02524                           TC       OVERSUB
000248: 16,2723           55420                           TS       OMEGAQ
000249: 16,2724           30061                           CA       ITEMP1                                #  ABOUT 10 OR 0 FOR DOCKED OR UNDOCKED
000250: 16,2725           57432                           XCH      NQTRAPS
000251: 16,2726           60062                           AD       ITEMP2                                #  KAOS > ABOUT 60D %N/N_60"
000252: 16,2727           57734                           XCH      DAPTEMP1
000253: 16,2730           00006                           EXTEND
000254: 16,2731           75031                           MP       FIVE
000255: 16,2732           00006                           EXTEND
000256: 16,2733           11734                           DV       DAPTEMP1
000257: 16,2734           27532                           ADS      AOSQ
000258: 16,2735           25432        Q-RATE             INCR     NQTRAPS
000259: 16,2736           31743                           CA       JETRATEQ
000260: 16,2737           61540                           AD       AOSQTERM
000261: 16,2740           27420                           ADS      OMEGAQ
000262: 16,2741           02524                           TC       OVERSUB
000263: 16,2742           55420                           TS       OMEGAQ
000264:
000265: 16,2743           11430                           CCS      TRAPEDR
000266: 16,2744           12746                           TCF      +2
000267: 16,2745           12775                           TCF      R-RATE
000268: 16,2746           60063                           AD       ITEMP3                                #  TRAPSIZE > ABOUT 77001 %-1.4DEG/SEC"
000269: 16,2747           00006                           EXTEND
000270: 16,2750           62775                           BZMF     R-RATE
000271: 16,2751           22007                           ZL
000272: 16,2752           23430                           LXCH     TRAPEDR
000273: 16,2753           35030                           CA       ZERO
000274: 16,2754           00006                           EXTEND
000275: 16,2755           11433                           DV       NRTRAPS
000276: 16,2756           55735                           TS       DAPTEMP2                              #  SAVE FOR OFFSET ESTIMATE
000277: 16,2757           27442                           ADS      SUMRATER
000278: 16,2760           31735                           CA       DAPTEMP2
000279: 16,2761           27421                           ADS      OMEGAR
000280: 16,2762           02524                           TC       OVERSUB
000281: 16,2763           55421                           TS       OMEGAR
000282: 16,2764           30061                           CA       ITEMP1                                #  ABOUT 10 OR 0 FOR DOCKED OR UNDOCKED
000283: 16,2765           57433                           XCH      NRTRAPS
000284: 16,2766           60062                           AD       ITEMP2                                #  KAOS > ABOUT 60D %N/N_60"
000285: 16,2767           57735                           XCH      DAPTEMP2
000286: 16,2770           00006                           EXTEND
000287: 16,2771           75031                           MP       FIVE
000288: 16,2772           00006                           EXTEND
000289: 16,2773           11735                           DV       DAPTEMP2
000290: 16,2774           27534                           ADS      AOSR
000291: 16,2775           25433        R-RATE             INCR     NRTRAPS
000292: 16,2776           31744                           CA       JETRATER
000293: 16,2777           61541                           AD       AOSRTERM
000294: 16,3000           27421                           ADS      OMEGAR
000295: 16,3001           02524                           TC       OVERSUB
000296: 16,3002           55421                           TS       OMEGAR
000297:
000298:                                                                                                  #  END OF RATE DERIVATION
000299:                                                                                                  #   BEGIN OFFSET ESTIMATER
000300:                                                                                                  #    IN POWERED FLIGHT, AOSTASK WILL BE CALLED EVERY 2 SECONDS.
000301:                                                                                                  #    AOS = AOS + K*SUMRATE
000302:
000303: 16,3003           41102                           CS       DAPBOOLS
000304: 16,3004           75017                           MASK     DRIFTBIT
000305: 16,3005           10000                           CCS      A
000306: 16,3006           13017                           TCF      WORKTIME
000307: 16,3007           55422                           TS       ALPHAQ                                #  ZERO THE OFFSET ACCELERATION VALUES.
000308: 16,3010           55423                           TS       ALPHAR
000309: 16,3011           55540                           TS       AOSQTERM
000310: 16,3012           55541                           TS       AOSRTERM
000311: 16,3013           55532                           TS       AOSQ
000312: 16,3014           55534                           TS       AOSR
000313: 16,3015           13041                           TCF      PAXFILT
000314: 16,3016           00074        KAOS               DEC      60         B-14
000315: 16,3017           31510        WORKTIME           CA       QACCDOT
000316: 16,3020           00006                           EXTEND
000317: 16,3021           75036                           MP       CALLCODE                              #  OCTAL 00032 IS DECIMAL .1 AT 2(6).
000318: 16,3022           21533                           DAS      AOSQ
000319: 16,3023           31532                           CA       AOSQ
000320: 16,3024           55422                           TS       ALPHAQ
000321: 16,3025           00006                           EXTEND
000322: 16,3026           73662                           MP       200MS                                 #  .2 AT 1
000323: 16,3027           55540                           TS       AOSQTERM
000324: 16,3030           31512                           CA       RACCDOT
000325: 16,3031           00006                           EXTEND
000326: 16,3032           75036                           MP       CALLCODE                              #  OCTAL 00032 IS DECIMAL .1 AT 2(6).
000327: 16,3033           21535                           DAS      AOSR
000328: 16,3034           31534                           CA       AOSR
000329: 16,3035           55423                           TS       ALPHAR
000330: 16,3036           00006                           EXTEND
000331: 16,3037           73662                           MP       200MS                                 #  .2 AT 1
000332: 16,3040           55541                           TS       AOSRTERM
000333:
000334: 16,3041           52011        PAXFILT            DXCH     ARUPT
000335: 16,3042           53747                           DXCH     DAPARUPT
000336: 16,3043           33054                           CA       SUPERJOB                              #  SETTING UP THE SUPERJOB
000337: 16,3044           56017                           XCH      BRUPT
000338: 16,3045           22012                           LXCH     QRUPT
000339: 16,3046           53751                           DXCH     DAPBQRPT
000340: 16,3047           33053                           CA       SUPERADR
000341: 16,3050           52016                           DXCH     ZRUPT
000342: 16,3051           53753                           DXCH     DAPZRUPT
000343: 16,3052           15345                           TCF      NOQBRSM    +1                         #  RELINT (JUST IN CASE) AND RESUME, IN THE
000344:                                                                                                  #    FORM OF A JASK, AT SUPERJOB.
000345:
000346: 16,3053           03055        SUPERADR           GENADR   SUPERJOB   +1
000347:
000348:                                                                                                  #  COUNT DOWN GIMBAL DRIVE TIMERS AND TURN OFF DRIVES IF REQUIRED.
000349:
000350: 16,3054           11626        SUPERJOB           CCS      QGIMTIMR                              #  Q-AXIS GIMBAL DRIVE TIMER
000351: 16,3055           13063                           TCF      DECQTIMR                              #    POSITIVE- COUNTING DOWN
000352: 16,3056           13067                           TCF      TURNOFFQ                              #    NEGATIVE- DRIVE SHOULD BE ENDED
000353: 16,3057           11630        CHKRTIMR           CCS      RGIMTIMR                              #    NEGATIVE- INACTIVE
000354: 16,3060           13065                           TCF      DECRTIMR                              #   (NEG ZERO - IMPOSSIBLE)
000355: 16,3061           13077                           TCF      TURNOFFR                              #  REPEATED (ABOVE) FOR R AXIS.
000356:
000357: 16,3062           01527                           TC       PJUMPADR
000358:
000359: 16,3063           55626        DECQTIMR           TS       QGIMTIMR                              #  COUNT TIMERS DOWN TO POS ZERO.
000360: 16,3064           13057                           TCF      CHKRTIMR
000361: 16,3065           55630        DECRTIMR           TS       RGIMTIMR
000362: 16,3066           13062                           TCF      CHKRTIMR   +3
000363:
000364: 16,3067           55500        TURNOFFQ           TS       NEGUQ                                 #  HALT DRIVES.
000365: 16,3070           55510                           TS       QACCDOT
000366: 16,3071           45057                           CS       QGIMBITS
000367: 16,3072           00006                           EXTEND
000368: 16,3073           03012                           WAND     CHAN12
000369: 16,3074           35010                           CAF      NEGMAX
000370: 16,3075           55626                           TS       QGIMTIMR
000371: 16,3076           13057                           TCF      CHKRTIMR
000372: 16,3077           55502        TURNOFFR           TS       NEGUR
000373: 16,3100           55512                           TS       RACCDOT
000374: 16,3101           45070                           CS       RGIMBITS
000375: 16,3102           00006                           EXTEND
000376: 16,3103           03012                           WAND     CHAN12
000377: 16,3104           35010                           CAF      NEGMAX
000378: 16,3105           55630                           TS       RGIMTIMR
000379: 16,3106           13062                           TCF      CHKRTIMR   +3
000380: 16,3107     5057               QGIMBITS           EQUALS   OCT1400                               #  BITS 9 AND 10 (OF CHANNEL 12).
000381: 16,3107     5070               RGIMBITS           EQUALS   PRIO6                                 #  BITS 11 AND 12 (OF CHANNEL 12).
000382: 16,3107           32234        SKIPPAXS           CA       CHKVISAD
000383: 16,3110           55527                           TS       PJUMPADR
000384: 16,3111           13670                           TCF      QRAXIS                                #  GO TO QRAXIS OR TO GTS.
000385:
000386:                                                                                                  #  Y-Z TRANSLATION
000387:
000388:                                                                                                  #  INPUT:   BITS 9-12 OF CH31 (FROM TRANSLATION CONTROLER)
000389:
000390:                                                                                                  #  OUTPUT:  NEXTP
000391:
000392:                                                                                                  #    NEXTP IS THE CHANNEL 6 CODE OF JETS FOR THE DESIRED TRANSLATION.
000393:                                                                                                  #    IF THERE ARE FAILURES IN THE DESIRED POLICY, THEN
000394:                                                                                                  #       (1) FOR DIAGONAL TRANS:  UNFAILED PAIR
000395:                                                                                                  #                                ALARM (IF NO PAIR)
000396:                                                                                                  #       (2) FOR PRINCIPAL TRANS: TRY TO TACK WITH DIAGONAL PAIRS
000397:                                                                                                  #                                ALARM (IF DIAGONAL PAIRS ARE FAILED)
000398:
000399: 16,3112           00006        CHKVISFZ           EXTEND
000400: 16,3113           00031                           READ     CHAN31
000401: 16,3114           40000                           CS       A
000402: 16,3115           73655                           MASK     07400OCT
000403: 16,3116           00006                           EXTEND
000404: 16,3117           13157                           BZF      TSNEXTP
000405: 16,3120           00006                           EXTEND
000406: 16,3121           75020                           MP       BIT7
000407: 16,3122           50000                           INDEX    A
000408: 16,3123           33634                           CA       INDXYZ
000409: 16,3124           55741                           TS       ROTINDEX
000410: 16,3125           36216        TRYUORV            CA       SIX
000411: 16,3126           03613                           TC       SELECTYZ
000412: 16,3127           46216                           CS       SIX
000413: 16,3130           61740                           AD       NUMBERT
000414: 16,3131           00006                           EXTEND
000415: 16,3132           13156                           BZF      TSNEXTP    -1
000416: 16,3133           45031                           CS       FIVE
000417: 16,3134           61741                           AD       ROTINDEX
000418: 16,3135           00006                           EXTEND
000419: 16,3136           63150                           BZMF     ALTERYZ
000420: 16,3137           41740                           CS       NUMBERT
000421: 16,3140           65024                           AD       FOUR
000422: 16,3141           00006                           EXTEND
000423: 16,3142           63156                           BZMF     TSNEXTP    -1
000424: 16,3143           05651        ABORTYZ            TC       ALARM
000425: 16,3144           02001                           OCT      02001
000426: 16,3145           25465                           INCR     ZEROOR1
000427: 16,3146           35030                           CA       ZERO
000428: 16,3147           13157                           TCF      TSNEXTP
000429: 16,3150           25465        ALTERYZ            INCR     ZEROOR1
000430: 16,3151           31465                           CA       ZEROOR1
000431: 16,3152           75026                           MASK     BIT1
000432: 16,3153           65024                           AD       FOUR
000433: 16,3154           27741                           ADS      ROTINDEX
000434: 16,3155           13125                           TCF      TRYUORV
000435: 16,3156           31736                           CA       POLYTEMP
000436: 16,3157           55460        TSNEXTP            TS       NEXTP
000437:
000438:                                                                                                  #  STATE LOGIC
000439:                                                                                                  #    CHECK IN ORDER:             IF ON
000440:                                                                                                  #    LPDPHASE                    GO TO PURGENCY
000441:                                                                                                  #    PULSES                      MINIMUM PULSE LOGIC
000442:                                                                                                  #    DETENT(BIT15 CH31)          RATE COMMAND
000443:                                                                                                  #    GO TO PURGENCY
000444:
000445: 16,3160           35012                           CA       BIT13                                 #  CHECK STICK IF IN ATT. HOLD.
000446: 16,3161           00006                           EXTEND
000447: 16,3162           02031                           RAND     CHAN31
000448: 16,3163           00006                           EXTEND
000449: 16,3164           13172                           BZF      MANMODE
000450:
000451: 16,3165           31102                           CA       DAPBOOLS
000452: 16,3166           75016                           MASK     XOVINHIB
000453: 16,3167           10000                           CCS      A
000454: 16,3170           13513                           TCF      PURGENCY                              #  ATTITUDE STEER DURING VISIBILITY PHASE
000455:
000456: 16,3171           13234                           TCF      DETENTCK
000457: 16,3172           35010        MANMODE            CA       PULSES                                #  PULSES IS ONE FOR PULSE MODE
000458: 16,3173           71102                           MASK     DAPBOOLS
000459: 16,3174           00006                           EXTEND
000460: 16,3175           13234                           BZF      DETENTCK                              #  BRANCH FOR RATE COMMAND
000461:
000462: 16,3176           35030                           CA       ZERO
000463: 16,3177           55450                           TS       PERROR
000464:
000465:                                                                                                  #  MINIMUM IMPULSE MODE
000466:
000467: 16,3200           30032                           CA       CDUX
000468: 16,3201           55632                           TS       CDUXD
000469:
000470: 16,3202           11443                           CCS      OLDPMIN
000471: 16,3203           13217                           TCF      CHECKP
000472:
000473: 16,3204           35024        FIREP              CA       BIT3
000474: 16,3205           00006                           EXTEND
000475: 16,3206           02031                           RAND     CHAN31
000476: 16,3207           00006                           EXTEND
000477: 16,3210           13227                           BZF      +XMIN
000478:
000479: 16,3211           35023                           CA       BIT4
000480: 16,3212           00006                           EXTEND
000481: 16,3213           02031                           RAND     CHAN31
000482: 16,3214           00006                           EXTEND
000483: 16,3215           13225                           BZF      -XMIN
000484:
000485: 16,3216           13472                           TCF      JETSOFF
000486:
000487: 16,3217           00006        CHECKP             EXTEND
000488: 16,3220           00031                           READ     CHAN31
000489: 16,3221           40000                           CS       A
000490: 16,3222           75746                           MASK     OCT14
000491: 16,3223           55443                           TS       OLDPMIN
000492: 16,3224           13472                           TCF      JETSOFF
000493:
000494: 16,3225           44375        -XMIN              CS       TEN                                   #  ANYTHING LESS THAN 14MS.  CORRECTED
000495: 16,3226           13230                           TCF      +2                                    #    IN JET SELECTION ROUTINE
000496: 16,3227           34375        +XMIN              CA       TEN
000497: 16,3230           55516                           TS       TJP
000498: 16,3231           35026                           CA       ONE
000499: 16,3232           55443                           TS       OLDPMIN
000500: 16,3233           13401                           TCF      PJETSLEC   -6
000501:
000502:                                                                                                  #                                        MANUAL RATE COMMAND MODE
000503:                                                                                                  #                                        ========================
000504:                                                                                                  #                                          BY ROBERT F. STENGEL
000505:
000506:                                                                                                  #  THIS MODE PROVIDES RCAH MANUAL CONTROL THRU 2 CONTROL LAWS:                    1) DIRECT RATE AND 2) PSEUDO-AUTO.
000507:                                                                                                  #  THE DIRECT RATE MODE AFFORDS IMMEDIATE CONTROL WITHOUT OVERSHOOT. THE PSEUDO-AUTO MODE PROVIDES PRECISE
000508:                                                                                                  #  RATE CONTROL AND ATTITUDE HOLD.
000509:
000510:                                                                                                  #  IN DIRECT RATE, JETS ARE FIRED WHEN STICK POSITION CHANGES BY A FIXED NUMBER OF INCREMENTS IN ONE DAP CYCLE.
000511:                                                                                                  #  THE 'BREAKOUT LEVEL' IS .6 D/S FOR LM-ONLY AND .3 D/S FOR CSM-DOCKED. THIS LAW NULLS THE RATE ERROR TO WITHIN
000512:                                                                                                  #  THE 'TARGET DEADBAND', WHICH EQUALS THE BREAKOUT LEVEL.
000513:                                                                                                  #  IN PSEUDO-AUTO, BODY-FIXED RATE AND ATTITUDE ERRORS ARE SUPPLIED TO TJETLAW, WHICH EXERCISES CONTROL.
000514:                                                                                                  #  CONTROL SWITCHES FROM DIRECT RATE TO PSEUDO-AUTO IF THE TARGET DB IS ACHIEVED OR IF TIME IN (1) EXCEEDS 4 SEC.
000515:                                                                                                  #  IF THE INITIAL COMMAND DOES NOT EXCEED THE BREAKOUT LEVEL, CONTROL GOES TO PSEUDO-AUTO IMMEDIATELY.
000516:
000517:                                                                                                  #  SINCE P-AXIS CONTROL IS SEPARATE FROM Q,R AXES CONTROL, IT IS POSSIBLE TO USE (1) IN P-AXIS AND (2) IN Q,R AXES,
000518:                                                                                                  #  OR VICE VERSA.  THIS ALLOWS A DEGREE OF ATTITUDE HOLD IN UNCONTROLLED AXES.  DUE TO U,V CONTROL, HOWEVER, Q AND
000519:                                                                                                  #  R AXES ARE COUPLED AND MUST USE THE SAME CONTROL LAW.
000520:
000521:                                                                                                  #  HAND CONTROLLER COMMANDS ARE SCALED BY A LINEAR/QUADRATIC LAW. FOR THE LM-ALONE, MAXIMUM COMMANDED RATES ARE 20
000522:                                                                                                  #  AND 4 D/S IN NORMAL AND FINE SCALING; HOWEVER, STICK SENSITIVITY AT ZERO COUNTS (OBTAINED AT A STICK DEFLECTION
000523:                                                                                                  #  OF 2 DEGREES FROM THE CENTERED POSITION) IS .5 OR .1 D/S PER DEGREE. NORMAL AND FINE SCALINGS FOR THE CSM-DOCKED
000524:                                                                                                  #  CASE IS AUTOMATICALLY SET TO 1/10 THE ABOVE VALUES. SCALING IS DETERMINED IN ROUTINE 3.
000525:                                                                                                  #  ZEROENBL      ENABLES COUNTERS SO THEY CAN BE READ NEXT TIME
000526:                                                                                                  #  JUSTOUT       FIRST DETECTION OF OUT OF DETENT (BY OURRCBIT)
000527:
000528: 16,3234           35010        DETENTCK           CAF      BIT15                                 #  CHECK OUT-OF-DETENT BIT.
000529: 16,3235           00006                           EXTEND
000530: 16,3236           02031                           RAND     CHAN31
000531: 16,3237           00006                           EXTEND
000532: 16,3240           13320                           BZF      RHCMOVED                              #  BRANCH IF OUT OF DETENT.
000533: 16,3241           35013                           CAF      OURRCBIT                              #  IN DETENT. CHECK THE RATE COMMAND BIT.
000534: 16,3242           71102                           MASK     DAPBOOLS
000535: 16,3243           00006                           EXTEND
000536: 16,3244           13513                           BZF      PURGENCY                              #  BRANCH IF NOT IN RATE COMMAND LAST PASS.
000537:
000538:                                                                                                  #  ........................................................................
000539:
000540: 16,3245           35012                           CAF      BIT13                                 #  CHECK FOR ATTITUDE HOLD.
000541: 16,3246           00006                           EXTEND
000542: 16,3247           02031                           RAND     CHAN31
000543: 16,3250           00006                           EXTEND
000544: 16,3251           13342                           BZF      JOEY                                  #  BRANCH IF IN ATTITUDE HOLD.
000545:
000546: 16,3252           11417                           CCS      OMEGAP
000547: 16,3253           13257                           TCF      +4
000548: 16,3254           13264                           TCF      RATEDONE
000549: 16,3255           13257                           TCF      +2
000550: 16,3256           13264                           TCF      RATEDONE
000551: 16,3257           61464                           AD       -RATEDB
000552: 16,3260           00006                           EXTEND                                         #  BRANCH IF P-AXIS RATE > RATEDB.
000553: 16,3261           63264                           BZMF     RATEDONE
000554:
000555: 16,3262           35030                           CAF      ZERO
000556: 16,3263           13342                           TCF      JOEY
000557:
000558: 16,3264           45013        RATEDONE           CS       OURRCBIT                              #  MANUAL COMMAND AND DAMPING COMPLETED IN
000559: 16,3265           00004                           INHINT                                         #  ALL AXES.
000560: 16,3266           71102                           MASK     DAPBOOLS
000561: 16,3267           55102                           TS       DAPBOOLS
000562:
000563:                                                                                                  #  READ CDUS INTO CDU DESIRED REGISTERS
000564:
000565: 16,3270           30032                           CA       CDUX                                  #  (X-AXIS OVERRIDE)
000566: 16,3271           55632                           TS       CDUXD
000567: 16,3272           13513                           TCF      PURGENCY
000568:
000569: 16,3273           55450                           TS       PERROR
000570: 16,3274           35013        JUSTOUT            CA       OURRCBIT                              #  INITIALIZATION - FIRST MANUAL PASS.
000571: 16,3275           00004                           INHINT
000572: 16,3276           27102                           ADS      DAPBOOLS
000573: 16,3277           00003                           RELINT
000574: 16,3300           35030                           CA       ZERO
000575: 16,3301           54042                           TS       Q-RHCCTR
000576: 16,3302           54044                           TS       R-RHCCTR
000577: 16,3303           03305                           TC       ZEROENBL
000578: 16,3304           13472                           TCF      JETSOFF
000579: 16,3305           22044        ZEROENBL           LXCH     R-RHCCTR
000580: 16,3306           30042                           CA       Q-RHCCTR
000581: 16,3307           53446                           DXCH     SAVEHAND
000582: 16,3310           35030                           CA       ZERO
000583: 16,3311           54043                           TS       P-RHCCTR
000584: 16,3312           54042                           TS       Q-RHCCTR
000585: 16,3313           54044                           TS       R-RHCCTR
000586: 16,3314           33663                           CA       BITS8,9
000587: 16,3315           00006                           EXTEND
000588: 16,3316           05013                           WOR      CHAN13                                #  COUNTERS ZEROED AND ENABLED
000589: 16,3317           00002                           TC       Q
000590:
000591: 16,3320           35020        RHCMOVED           CA       RHCSCALE
000592: 16,3321           71102                           MASK     DAPBOOLS
000593: 16,3322           10000                           CCS      A
000594: 16,3323           33657                           CA       -1.0D/S
000595: 16,3324           63660                           AD       -0.4D/S
000596: 16,3325           55464                           TS       -RATEDB
000597:
000598: 16,3326           35013                           CA       OURRCBIT                              #  P CONTROL
000599: 16,3327           71102                           MASK     DAPBOOLS
000600: 16,3330           00006                           EXTEND
000601: 16,3331           13273                           BZF      JUSTOUT    -1
000602:
000603: 16,3332           35020                           CA       RHCSCALE                              #  LINEAR CONTROLLER SCALING
000604: 16,3333           71102                           MASK     DAPBOOLS
000605: 16,3334           10000                           CCS      A
000606: 16,3335           35737                           CA       143DEC                                #  SCALE P-RHCCTR FOR 20D/S MAX (177D)
000607: 16,3336           64254                           AD       34DEC                                 #  SCALE P-RHCCTR FOR 4D/S MAX (34D)
000608: 16,3337           00006                           EXTEND
000609: 16,3340           70043                           MP       P-RHCCTR
000610: 16,3341           30001                           CA       L
000611:
000612: 16,3342           00006        JOEY               EXTEND                                         #  FORM THE RATE ERROR.
000613: 16,3343           61417                           SU       OMEGAP
000614: 16,3344           55543                           TS       EDOTP
000615: 16,3345           11543                           CCS      EDOTP
000616: 16,3346           13351                           TCF      +3
000617: 16,3347           13351                           TCF      +2
000618: 16,3350           13351                           TCF      +1
000619: 16,3351           55734                           TS       ABSEDOTP
000620: 16,3352           61464                           AD       TARGETDB
000621: 16,3353           00006                           EXTEND
000622: 16,3354           63303                           BZMF     ZEROENBL   -2
000623: 16,3355           03305                           TC       ZEROENBL
000624:
000625: 16,3356           30032        PEGI               CA       CDUX                                  #  DIRECT RATE CONTROL.
000626: 16,3357           55632                           TS       CDUXD
000627: 16,3360           31543                           CA       EDOTP
000628: 16,3361           00006                           EXTEND
000629: 16,3362           71447                           MP       1/2JTSP                               #  1/2JTSP SCALED AT 2EXP(7)/PI
000630: 16,3363           20001                           DAS      A
000631: 16,3364           20001                           DAS      A
000632: 16,3365           02524                           TC       OVERSUB
000633: 16,3366           00006                           EXTEND
000634: 16,3367           77670                           MP       25/32                                 #  A CONTAINS TJET SCALED AT 2EXP(4)(16/25)
000635: 16,3370           55516                           TS       TJP                                   #  4.JET TIME
000636: 16,3371           31734                           CA       ABSEDOTP
000637: 16,3372           61463                           AD       -2JETLIM                              #  COMPARING DELTA RATE WITH 2 JET LIMIT
000638: 16,3373           00006                           EXTEND
000639: 16,3374           63377                           BZMF     +3
000640:
000641: 16,3375           36216                           CA       SIX
000642: 16,3376           13406                           TCF      +8D
000643: 16,3377           31516                           CA       TJP
000644: 16,3400           27516                           ADS      TJP
000645:
000646:                                                                                                  #  GOES TO PJETSLEC FOR TWO JETS
000647:
000648:                                                                                                  #  P-JET-SELECTION-ROUTINE (ROTATION)
000649:
000650:                                                                                                  #  INPUT:        NUMBERT         4,5,6 FOR WHICH PAIR OR 4 JETS
000651:                                                                                                  #                TJP             + FOR +P ROTATION
000652:
000653:                                                                                                  #  OUTPUT:       CHANNEL 6
000654:                                                                                                  #                PJUMPADR        FOR P-AXIS SKIP
000655:                                                                                                  #                (JTLST CALL)    (SMALL TJP)
000656:
000657:                                                                                                  #  ORDER OF POLICIES TRIED IN CASE OF FAILURE.
000658:                                                                                                  #        +P      -P
000659:                                                                                                  #        7,15    8,16
000660:                                                                                                  #        4,12    3,11
000661:                                                                                                  #        4,7     8,11
000662:                                                                                                  #        7,12    11,16
000663:                                                                                                  #        12,15   3,16
000664:                                                                                                  #        4,15    3,8
000665:                                                                                                  #        ALARM   ALARM
000666:
000667: 16,3401           35022                           CA       AORBSYST
000668: 16,3402           71102                           MASK     DAPBOOLS
000669: 16,3403           10000                           CCS      A
000670: 16,3404           35026                           CA       ONE
000671: 16,3405           65024                           AD       FOUR
000672: 16,3406           55740                           TS       NUMBERT
000673: 16,3407           35026        PJETSLEC           CA       ONE
000674: 16,3410           54001                           TS       L
000675: 16,3411           11516                           CCS      TJP
000676: 16,3412           13417                           TCF      +5
000677: 16,3413           13472                           TCF      JETSOFF
000678: 16,3414           13416                           TCF      +2
000679: 16,3415           13472                           TCF      JETSOFF
000680: 16,3416           22007                           ZL
000681: 16,3417           65026                           AD       ONE
000682: 16,3420           55734                           TS       ABSTJ
000683: 16,3421           23741                           LXCH     ROTINDEX
000684: 16,3422           03573                           TC       SELECTP
000685: 16,3423           46216                           CS       SIX
000686: 16,3424           61740                           AD       NUMBERT
000687: 16,3425           00006                           EXTEND
000688: 16,3426           13430                           BZF      +2
000689:
000690: 16,3427           45025                           CS       TWO
000691: 16,3430           65024                           AD       FOUR
000692: 16,3431           55513                           TS       NO.PJETS
000693: 16,3432           31736                           CA       POLYTEMP
000694: 16,3433           05755                           TC       WRITEP
000695: 16,3434           41734                           CS       ABSTJ
000696: 16,3435           63654                           AD       +150MST6
000697: 16,3436           00006                           EXTEND
000698: 16,3437           63670                           BZMF     QRAXIS                                #  GO TO QRAXIS OR TO GTS.
000699:
000700: 16,3440           63634                           AD       -136MST6
000701: 16,3441           00006                           EXTEND
000702: 16,3442           63447                           BZMF     +5
000703:
000704: 16,3443           27734                           ADS      ABSTJ
000705: 16,3444           51741                           INDEX    ROTINDEX
000706: 16,3445           33665                           CA       MINTIMES
000707: 16,3446           55516                           TS       TJP
000708:
000709: 16,3447           31734                           CA       ABSTJ
000710: 16,3450           22007                           ZL
000711: 16,3451           00004                           INHINT
000712: 16,3452           53457                           DXCH     T6FURTHA
000713: 16,3453           04737                           TC       IBNKCALL
000714: 16,3454           36674                           CADR     JTLST
000715: 16,3455           33667                           CA       PSKIPADR
000716: 16,3456           55527                           TS       PJUMPADR
000717:
000718: 16,3457           03461                           TC       ALTSYST
000719: 16,3460           13670                           TCF      QRAXIS
000720:
000721: 16,3461           31102        ALTSYST            CA       DAPBOOLS                              #  ALTERNATE P-AXIS JETS
000722: 16,3462           54001                           TS       L
000723: 16,3463           35022                           CA       AORBSYST
000724: 16,3464           00006                           EXTEND
000725: 16,3465           06001                           RXOR     LCHAN
000726: 16,3466           55102                           TS       DAPBOOLS
000727: 16,3467           00003                           RELINT
000728: 16,3470           00002                           TC       Q
000729:
000730: 16,3471           03461        DKALT              TC       ALTSYST
000731:
000732: 16,3472           05754        JETSOFF            TC       WRITEP     -1
000733: 16,3473           35030                           CA       ZERO
000734: 16,3474           55516                           TS       TJP
000735: 16,3475           13670                           TCF      QRAXIS
000736:
000737:                                                                                                  #  (NOTE -- M13 = 1 IDENTICALLY IMPLIES NULL MULTIPLICATION.)
000738:
000739: 16,3476           30033        CALCPERR           CA       CDUY                                  #  P-ERROR CALCULATION.
000740: 16,3477           00006                           EXTEND
000741: 16,3500           21633                           MSU      CDUYD                                 #  CDU VALUE - ANGLE DESIRED (Y-AXIS)
000742: 16,3501           00006                           EXTEND
000743: 16,3502           71412                           MP       M11                                   #  (CDUY-CDUYD)M11 SCALED AT PI RADIANS
000744: 16,3503           57542                           XCH      E                                     #  SAVE FIRST TERM (OF TWO)
000745: 16,3504           30032                           CA       CDUX                                  #  THIRD COMPONENT
000746: 16,3505           00006                           EXTEND
000747: 16,3506           21632                           MSU      CDUXD                                 #  CDU VALUE - ANGLE DESIRED (X-AXIS)
000748:                                                                                                  #                EXTEND
000749:                                                                                                  #                MP      M13
000750: 16,3507           61301                           AD       DELPEROR                              #  KALCMANU INERFACE ERROR
000751: 16,3510           27542                           ADS      E                                     #  SAVE SUM OF TERMS.  COULD BE OVERFLOW.
000752: 16,3511           57450                           XCH      PERROR                                #  SAVE P-ERROR FOR EIGHT-BALL DISPLAY.
000753: 16,3512           00002                           TC       Q                                     #  RETURN TO CALLER
000754:
000755:                                                                                                  #  P-AXIS URGENCY FUNCTION CALCULATION.
000756: 16,3513           03476        PURGENCY           TC       CALCPERR                              #  CALCULATE P-AXIS ERRORS.
000757: 16,3514           41640                           CS       OMEGAPD                               #  THIS CODING IS COMMON TO BOTH LM DAP AND
000758: 16,3515           61417                           AD       OMEGAP                                #  SPS-BACKUP MODE.
000759: 16,3516           55543                           TS       EDOTP                                 #  EDOTP = OMEGAP - OMEGAPD AT PI/4 RAD/SEC
000760:
000761: 16,3517           45026                           CS       ONE
000762: 16,3520           55471                           TS       AXISCTR
000763: 16,3521           31102                           CA       DAPBOOLS
000764: 16,3522           75012                           MASK     CSMDOCKD
000765: 16,3523           00006                           EXTEND
000766: 16,3524           13541                           BZF      HEADTJET
000767: 16,3525           00004                           INHINT                                         #  IF CSMDOCKD = 1, GO TO DOCKED RCS LOGIC
000768: 16,3526           04737                           TC       IBNKCALL
000769: 16,3527           37526                           CADR     SPSRCS
000770:
000771: 16,3530           31516                           CA       TJP
000772: 16,3531           00006                           EXTEND
000773: 16,3532           13471                           BZF      DKALT                                 #  IF TJP = ZERO, CHANGE AORBSYST.
000774: 16,3533           00003                           RELINT
000775: 16,3534           41740                           CS       NUMBERT
000776: 16,3535           66216                           AD       SIX
000777: 16,3536           00006                           EXTEND                                         #  IF NUMBERT = 6 BYPASS AORBSYST CHECK
000778: 16,3537           13407                           BZF      PJETSLEC                              #     AND USE FOUR JETS,  OTHERWISE,
000779: 16,3540           13401                           TCF      PJETSLEC   -6                         #     SELECT AORBSYST AND USE TWO JETS
000780: 16,3541           35030        HEADTJET           CA       ZERO
000781: 16,3542           55472                           TS       SENSETYP
000782: 16,3543           00004                           INHINT
000783: 16,3544           04737                           TC       IBNKCALL
000784: 16,3545           37035                           CADR     TJETLAW
000785: 16,3546           00003                           RELINT
000786:
000787: 16,3547           41736                           CS       FIREFCT
000788: 16,3550           63564                           AD       -FOURDEG
000789: 16,3551           00006                           EXTEND
000790: 16,3552           63401                           BZMF     PJETSLEC   -6
000791: 16,3553           11516                           CCS      TJP
000792: 16,3554           13556                           TCF      +2
000793: 16,3555           13472                           TCF      JETSOFF
000794: 16,3556           63563                           AD       -160MST6
000795: 16,3557           00006                           EXTEND
000796: 16,3560           63401                           BZMF     PJETSLEC   -6
000797: 16,3561           36216                           CA       SIX
000798: 16,3562           13406                           TCF      PJETSLEC   -1
000799: 16,3563           77377        -160MST6           DEC      -256       B-14
000800: 16,3564           75117        -FOURDEG           DEC      -.08888
000801:
000802: 16,3565           33660        LOWSCALE           CA       -0.4D/S
000803: 16,3566           55464                           TS       -RATEDB
000804: 16,3567           41542                           CS       E
000805: 16,3570           00006                           EXTEND
000806: 16,3571           61543                           SU       EDOTP
000807: 16,3572           13345                           TCF      JOEY       +3
000808:
000809:                                                                                                  #  JET POLICY CONSTRUCTION SUBROUTINE
000810:
000811:                                                                                                  #  INPUT:        ROTINDEX, NUMBERT
000812:
000813:                                                                                                  #  OUTPUT:       POLYTEMP (JET POLICY)
000814:
000815:                                                                                                  #  THIS SUBROUTINE SELECT A SUBSET OF THE DESIRED JETS WHICH HAS NO FAILURE
000816:
000817: 16,3573           36216        SELECTP            CA       SIX
000818: 16,3574           55737                           TS       TEMPNUM
000819: 16,3575           51740                           INDEX    NUMBERT
000820: 16,3576           33625                           CA       TYPEP
000821: 16,3577           51741                           INDEX    ROTINDEX
000822: 16,3600           73616                           MASK     JETSALL
000823: 16,3601           55736                           TS       POLYTEMP
000824: 16,3602           71265                           MASK     CH6MASK
000825: 16,3603           10000                           CCS      A
000826: 16,3604           13606                           TCF      +2
000827: 16,3605           00002                           TC       Q
000828: 16,3606           11737                           CCS      TEMPNUM
000829: 16,3607           13613                           TCF      +4
000830: 16,3610           05651                           TC       ALARM
000831: 16,3611           02003                           OCT      02003
000832: 16,3612           13472                           TCF      JETSOFF                               #  *****TCF ALARMJET *********************
000833: 16,3613           55740        SELECTYZ           TS       NUMBERT
000834: 16,3614           13574                           TCF      SELECTP    +1
000835: 16,3615           13145        -1                 TCF      ABORTYZ    +2
000836: 16,3616           00252        JETSALL            OCT      00252
000837: 16,3617           00125                           OCT      00125                                 #  +P
000838: 16,3620           00140                           OCT      00140                                 #  -Y
000839: 16,3621           00006                           OCT      00006                                 #  -Z
000840: 16,3622           00220                           OCT      00220                                 #  +Y
000841: 16,3623           00011                           OCT      00011                                 #  +Z
000842: 16,3624           00151                           OCT      00151                                 #  +V
000843: 16,3625           00146        TYPEP              OCT      00146                                 #  -U
000844: 16,3626           00226                           OCT      00226                                 #  -V
000845: 16,3627           00231                           OCT      00231                                 #  +U
000846: 16,3630           00151                           OCT      00151                                 #  +V
000847: 16,3631           00132                           OCT      00132                                 #  1-3
000848: 16,3632           00245                           OCT      00245                                 #  2-4
000849: 16,3633           00377                           OCT      00377                                 #  ALL
000850: 16,3634  16,3634               INDXYZ             =        -136MST6
000851: 16,3634           77445        -136MST6           DEC      -218       B-14
000852: 16,3635           00004                           DEC      4          B-14
000853: 16,3636           00002                           DEC      2          B-14
000854: 16,3637           07776                           OCT      07776
000855: 16,3640           00005                           DEC      5          B-14
000856: 16,3641           00011                           DEC      9          B-14
000857: 16,3642           00012                           DEC      10         B-14
000858: 16,3643           07776                           OCT      07776
000859: 16,3644           00003                           DEC      3          B-14
000860: 16,3645           00010                           DEC      8          B-14
000861: 16,3646           00007                           DEC      7          B-14
000862: 16,3647           07776                           OCT      07776                                 #  THESE INDEXES OF MASK JETSALL WILL
000863: 16,3650           07776                           OCT      07776                                 #  CHANGE THE INSTRUCTION AT SELECTP +4
000864: 16,3651           07776                           OCT      07776                                 #  TO BE    TC  JETSALL -1
000865: 16,3652           07776                           OCT      07776                                 #  ONLY USED FOR TRANSLATION FAILURE
000866: 16,3653           07776                           OCT      07776
000867: 16,3654           00360        +150MST6           DEC      240        B-14
000868: 16,3655           07400        07400OCT           OCT      07400
000869:
000870:                                                                                                  #  T-JET LAW FIXED CONSTANTS
000871:
000872: 16,3656           00266        NORMSCL            OCT      266
000873: 16,3657           77223        -1.0D/S            DEC      -364       B-14
000874: 16,3660           77556        -0.4D/S            DEC      -145       B-14
000875: 16,3661           74631        -100MS             DEC      -.1
000876: 16,3662           06315        200MS              DEC      .2
000877: 16,3663     5737               143DEC             =        OCT217
000878: 16,3663     7670               25/32              =        PRIO31                                #  (DEC .78125)
000879: 16,3663           00600        BITS8,9            OCTAL    00600
000880: 16,3664           00632        1/40               DEC      .02500
000881: 16,3665           77751        MINTIMES           DEC      -22        B-14
000882: 16,3666           00026                           DEC      22         B-14
000883: 16,3667           03107        PSKIPADR           GENADR   SKIPPAXS
000884:
000885:                                                                                                  #  GOES TO Q,R-AXES RCS AUTOPILOT
000886: 16,3670           41642        QRAXIS             CS       OMEGARD
000887: 16,3671           61421                           AD       OMEGAR
000888: 16,3672           02524                           TC       OVERSUB
000889: 16,3673           55435                           TS       EDOTR
000890: 16,3674           41641                           CS       OMEGAQD
000891: 16,3675           61420                           AD       OMEGAQ
000892: 16,3676           02524                           TC       OVERSUB
000893: 16,3677           55434                           TS       EDOTQ
000894: 16,3700           00006                           EXTEND
000895: 16,3701           33704                           DCA      QERRCALL
000896: 16,3702           52006                           DTCB
000897:
000898: 16,3703  E6,1532                                  EBANK=   AOSQ
000899: 16,3703           02000 36106  QERRCALL           2CADR    CALLQERR

End of include-file P-AXIS_RCS_AUTOPILOT.agc.  Parent file is MAIN.agc


