
Source Code


000002:                                                                                                  ## Copyright:   Public domain.
000003:                                                                                                  ## Filename:    P10,P11.agc
000004:                                                                                                  ## Purpose:     A section of an attempt to reconstruct Sundance revision 306
000005:                                                                                                  ##              as closely as possible with available information. Sundance
000006:                                                                                                  ##              306 is the source code for the Lunar Module's (LM) Apollo
000007:                                                                                                  ##              Guidance Computer (AGC) for Apollo 9. This program was created
000008:                                                                                                  ##              using the mixed-revision SundanceXXX as a starting point, and
000009:                                                                                                  ##              pulling back features from Luminary 69 believed to have been
000010:                                                                                                  ##              added based on memos, checklists, observed address changes,
000011:                                                                                                  ##              or the Sundance GSOPs.
000012:                                                                                                  ## Assembler:   yaYUL
000013:                                                                                                  ## Contact:     Ron Burkey <info@sandroid.org>.
000014:                                                                                                  ## Website:     www.ibiblio.org/apollo/index.html
000015:                                                                                                  ## Mod history: 2020-07-24 MAS  Created from SundanceXXX.
000016:
000017:
000018:
000019: 32,2000                                           BANK     32
000020: 32,2000                                           SETLOC   P10S
000021: 32,2000                                           BANK
000022:
000023: 32,2000  E7,1424                                  EBANK=   TIG
000024:
000025: 32,2000           05600        P10                TC       DOWNFLAG
000026: 32,2001           00140                           ADRES    LTCPFLG
000027: 32,2002           02005                           TC       P10/P11
000028:
000029: 32,2003           05566        P11                TC       UPFLAG
000030: 32,2004           00140                           ADRES    LTCPFLG
000031:
000032: 32,2005           00006        P10/P11            EXTEND
000033: 32,2006           31423                           DCA      TIG(AS)
000034: 32,2007           53425                           DXCH     TIG
000035: 32,2010           55424                           TS       TIG
000036:
000037: 32,2011           32657                           CAF      V06N33AP
000038: 32,2012           02643                           TC       VNDISP
000039:
000040: 32,2013           32664                           CAF      V06N81AP
000041: 32,2014           02643                           TC       VNDISP
000042:
000043: 32,2015           30140                           CA       DSPMMTEM
000044: 32,2016           00006                           EXTEND
000045: 32,2017           12032                           BZF      P10DISPS
000046:
000047: 32,2020           32665                           CAF      V06N91
000048: 32,2021           02643                           TC       VNDISP
000049:
000050: 32,2022           32666                           CAF      V06N92
000051: 32,2023           04655                           TC       BANKCALL
000052: 32,2024           20544                           CADR     GOFLASHR
000053: 32,2025           14106                           TCF      GOTOPOOH
000054: 32,2026           02042                           TC       P1XSETUP
000055: 32,2027           02022                           TC       -5
000056:
000057: 32,2030           35026                           CAF      ONE
000058: 32,2031           05556                           TC       BLANKET
000059:
000060: 32,2032           32551        P10DISPS           CA       P10ZERO
000061: 32,2033           55454                           TS       NN         +1
000062:
000063: 32,2034           32663                           CAF      V06N56
000064: 32,2035           02643                           TC       VNDISP
000065:
000066: 32,2036           32661                           CAF      V06N37AP
000067: 32,2037           02643                           TC       VNDISP
000068:
000069: 32,2040           32667                           CAF      V06N94
000070: 32,2041           02643                           TC       VNDISP
000071:
000072: 32,2042           06014        P1XSETUP           TC       INTPRET
000073: 32,2043           43345                           DLOAD    DAD
000074: 32,2044           03423                                    TIG(AS)
000075: 32,2045           03744                                    INJTIME
000076: 32,2046           03674                           STORE    TCSITPF
000077: 32,2047           34041                           STCALL   TDEC1
000078: 32,2050           27014                                    CSMPREC
000079: 32,2051           77331                           SSP      VLOAD
000080: 32,2052           03663                                    P1XITCNT
000081: 32,2053           00000                                    0
000082: 32,2054           00025                                    VATT1
000083: 32,2055           17706                           STODL    VCSMINT
000084: 32,2056           03716                                    INJALT
000085: 32,2057           43312                           SL2      DAD
000086: 32,2060           24564                                    P10RM
000087: 32,2061           27704                           STOVL    RLEMT2
000088: 32,2062           00017                                    RATT1
000089: 32,2063           03664                           STORE    RCSMINT
000090: 32,2064           53435                           VXV      UNIT
000091: 32,2065           00025                                    VATT1
000092: 32,2066           17762                           STODL    UNVEC2
000093: 32,2067           24560                                    30MIN
000094: 32,2070           43206                           PUSH     DAD
000095: 32,2071           03423                                    TIG(AS)
000096: 32,2072           17740                           STODL    P1XMAX
000097: 32,2073           43021                           BDSU     SET
000098: 32,2074           03423                                    TIG(AS)
000099: 32,2075           00474                                    SLOPESW
000100: 32,2076           17427                           STODL    P1XTMIN
000101: 32,2077           06233                                    ZEROVECS
000102: 32,2100           03756                           STORE    P1XDT
000103:
000104: 32,2101           77601        P1XLOOP            SETPD
000105: 32,2102           00001                                    0
000106: 32,2103           65375                           VLOAD    PDDL
000107: 32,2104           02025                                    RLS
000108: 32,2105           03423                                    TIG(AS)
000109: 32,2106           45006                           PUSH     CALL
000110: 32,2107           51222                                    RP-TO-R
000111: 32,2110           03676                           STORE    RLSBRCS
000112: 32,2111           46206                           PUSH     VPROJ
000113: 32,2112           03762                                    UNVEC2
000114: 32,2113           57552                           VSL2     VCOMP
000115: 32,2114           77655                           VAD
000116: 32,2115           72056                           UNIT     LXA,1
000117: 32,2116           03662                                    P1XITCNT
000118: 32,2117           66110                           INCR,1   SXA,1
000119: 32,2120           00001                                    1
000120: 32,2121           03662                                    P1XITCNT
000121: 32,2122           37750                           STCALL   ULVEC
000122: 32,2123           64516                                    P1XROT
000123: 32,2124           77624                           CALL
000124: 32,2125           27362                                    INTSTALL
000125: 32,2126           43175                           VLOAD    SET
000126: 32,2127           03706                                    VCSMINT
000127: 32,2130           00063                                    MOONFLAG
000128: 32,2131           01543                           STORE    VCV
000129: 32,2132           43175                           VLOAD    SET
000130: 32,2133           03664                                    RCSMINT
000131: 32,2134           01473                                    INTYPFLG
000132: 32,2135           15535                           STODL    RCV
000133: 32,2136           06233                                    ZEROVECS
000134: 32,2137           15517                           STODL    TET
000135: 32,2140           03423                                    TIG(AS)
000136: 32,2141           45215                           DAD      DSU
000137: 32,2142           03744                                    INJTIME
000138: 32,2143           03674                                    TCSITPF
000139: 32,2144           34041                           STCALL   TDEC1
000140: 32,2145           27060                                    INTEGRVS
000141: 32,2146           77214                           BOFF     VLOAD
000142: 32,2147           03346                                    LTCPFLG
000143: 32,2150           64210                                    P10CSI
000144: 32,2151           00017                                    RATT1
000145: 32,2152           01772                           STORE    RTARG
000146: 32,2153           63256                           UNIT     PDVL
000147: 32,2154           03724                                    RP1XROT
000148: 32,2155           50256                           UNIT     DOT
000149: 32,2156           65552                           SL1      ACOS
000150: 32,2157           51515                           PDVL     ABVAL
000151: 32,2160           00017                                    RATT1
000152: 32,2161           77715                           PDVL
000153: 32,2162           00025                                    VATT1
000154: 32,2163           03770                           STORE    P11VTPF
000155: 32,2164           77646                           ABVAL
000156: 32,2165           45006                           PUSH     CALL
000157: 32,2166           64477                                    P11SMA
000158: 32,2167           47375                           VLOAD    VXV
000159: 32,2170           00017                                    RATT1
000160: 32,2171           03724                                    RP1XROT
000161: 32,2172           65241                           DOT      PDDL
000162: 32,2173           03762                                    UNVEC2
000163: 32,2174           00003                                    2D
000164: 32,2175           41366                           SQRT     DMP
000165: 32,2176           00003                                    2D
000166: 32,2177           41205                           DMP      DMP
000167: 32,2200           24577                                    ROOT1/MU
000168: 32,2201           00001                                    0
000169: 32,2202           75205                           DMP      SIGN
000170: 32,2203           24562                                    P1XPI
000171: 32,2204           41502                           SR2      PUSH
000172: 32,2205           03756                           STORE    P1XDT
000173: 32,2206           77650                           GOTO
000174: 32,2207           64341                                    P1XCONV
000175:
000176: 32,2210           43345        P10CSI             DLOAD    DAD
000177: 32,2211           03423                                    TIG(AS)
000178: 32,2212           03744                                    INJTIME
000179: 32,2213           27621                           STOVL    TCSI
000180: 32,2214           03724                                    RP1XROT
000181: 32,2215           43142                           SR1      SET
000182: 32,2216           01072                                    AVFLAG
000183: 32,2217           26317                           STOVL    RACT1
000184: 32,2220           03732                                    VP1XROT
000185: 32,2221           77742                           VSR2
000186: 32,2222           27457                           STOVL    VACT1
000187: 32,2223           00001                                    0D
000188: 32,2224           27465                           STOVL    RPASS1
000189: 32,2225           00007                                    6D
000190: 32,2226           03473                           STORE    VPASS1
000191:
000192: 32,2227           77201                           SETPD    VLOAD
000193: 32,2230           00001                                    0
000194: 32,2231           03473                                    VPASS1
000195: 32,2232           65315                           PDVL     PDDL
000196: 32,2233           03465                                    RPASS1
000197: 32,2234           03621                                    TCSI
000198: 32,2235           65325                           PDDL     PDDL
000199: 32,2236           03623                                    TTPI
000200: 32,2237           33631                                    TWOPI
000201: 32,2240           77006                           PUSH     AXT,2
000202: 32,2241           00002                                    2
000203: 32,2242           45134                           SXA,2    CALL
000204: 32,2243           02333                                    RTX2
000205: 32,2244           73403                                    INTINT
000206: 32,2245           77624                           CALL
000207: 32,2246           46202                                    PASSIVE
000208: 32,2247           77160                           AXC,1    AXT,2
000209: 32,2250           00012                                    10D
000210: 32,2251           00002                                    2D
000211: 32,2252           53575                           VLOAD    UNIT
000212: 32,2253           03465                                    RPASS1
000213: 32,2254           53435                           VXV      UNIT
000214: 32,2255           03473                                    VPASS1
000215: 32,2256           02275                           STORE    UP1
000216: 32,2257           66145                           DLOAD    SXA,1
000217: 32,2260           24577                                    ROOT1/MU
000218: 32,2261           02332                                    RTX1
000219: 32,2262           16335                           STODL    RTSR1/MU
000220: 32,2263           24571                                    P10MU
000221: 32,2264           67061                           SR       SXA,2
000222: 32,2265           20607                                    6D
000223: 32,2266           02333                                    RTX2
000224: 32,2267           36337                           STCALL   RTMU
000225: 32,2270           70077                                    CSI/A
000226:
000227: 32,2271           53135        P10ALARM           SLOAD    BZE
000228: 32,2272           03601                                    CSIALRM
000229: 32,2273           64276                                    P10ITER
000230: 32,2274           77776                           EXIT
000231:
000232: 32,2275           02471                           TC       P1XERDIS
000233:
000234: 32,2276           45345        P10ITER            DLOAD    DSU
000235: 32,2277           03746                                    CDHDELH
000236: 32,2300           03567                                    DIFFALT
000237: 32,2301           26760                           STOVL    DELDEP
000238: 32,2302           02303                                    DELVEET1
000239: 32,2303           77646                           ABVAL
000240: 32,2304           27563                           STOVL    DELVTPI
000241: 32,2305           02311                                    DELVEET2
000242: 32,2306           40246                           ABVAL    SETPD
000243: 32,2307           00001                                    0
000244: 32,2310           17565                           STODL    DELVTPF
000245: 32,2311           03756                                    P1XDT
000246: 32,2312           14015                           STODL    DELINDEP
000247: 32,2313           03740                                    P1XMAX
000248: 32,2314           14017                           STODL    MAX
000249: 32,2315           03427                                    P1XTMIN
000250: 32,2316           14011                           STODL    MIN
000251: 32,2317           24556                                    P10FRAC
000252: 32,2320           14051                           STODL    TWEEKIT
000253: 32,2321           03423                                    TIG(AS)
000254: 32,2322           16766                           STODL    INDEP
000255: 32,2323           03567                                    DIFFALT
000256: 32,2324           00037                           STORE    DEP
000257: 32,2325           45014                           CLEAR    CALL
000258: 32,2326           04271                                    ORDERSW
000259: 32,2327           24536                                    ITERATOR
000260: 32,2330           77745                           DLOAD
000261: 32,2331           03567                                    DIFFALT
000262: 32,2332           16762                           STODL    DEPREV
000263: 32,2333           00017                                    MAX
000264: 32,2334           17740                           STODL    P1XMAX
000265: 32,2335           00011                                    MIN
000266: 32,2336           17427                           STODL    P1XTMIN
000267: 32,2337           00015                                    DELINDEP
000268: 32,2340           03756                           STORE    P1XDT
000269:
000270: 32,2341           77646        P1XCONV            ABVAL
000271: 32,2342           50025                           DSU      BMN
000272: 32,2343           24554                                    ONESEC
000273: 32,2344           64361                                    P1XFINAL
000274: 32,2345           54335                           SLOAD    SR
000275: 32,2346           03663                                    P1XITCNT
000276: 32,2347           20617                                    14D
000277: 32,2350           51025                           DSU      BPL
000278: 32,2351           24552                                    P1MAXIT
000279: 32,2352           64466                                    P1XERR
000280: 32,2353           43345                           DLOAD    DAD
000281: 32,2354           03423                                    TIG(AS)
000282: 32,2355           03756                                    P1XDT
000283: 32,2356           03423                           STORE    TIG(AS)
000284: 32,2357           77650                           GOTO
000285: 32,2360           64101                                    P1XLOOP
000286:
000287: 32,2361           50375        P1XFINAL           VLOAD    DOT
000288: 32,2362           03676                                    RLSBRCS
000289: 32,2363           03762                                    UNVEC2
000290: 32,2364           53515                           PDVL     UNIT
000291: 32,2365           03676                                    RLSBRCS
000292: 32,2366           72441                           DOT      SL1
000293: 32,2367           03750                                    ULVEC
000294: 32,2370           75326                           ACOS     SIGN
000295: 32,2371           57405                           DMP      DCOMP
000296: 32,2372           24564                                    P10RM
000297: 32,2373           54205                           DMP      SL
000298: 32,2374           24562                                    P1XPI
000299: 32,2375           20206                                    5D
000300: 32,2376           17740                           STODL    P1XMAX
000301: 32,2377           03423                                    TIG(AS)
000302: 32,2400           45214                           SET      DSU
000303: 32,2401           03075                                    ASCNTFLG
000304: 32,2402           03672                                    P1XDELTT
000305: 32,2403           17427                           STODL    P1XTMIN
000306: 32,2404           03423                                    TIG(AS)
000307: 32,2405           43006                           PUSH     BON
000308: 32,2406           03306                                    LTCPFLG
000309: 32,2407           64420                                    P11DISP
000310: 32,2410           77615                           DAD
000311: 32,2411           03744                                    INJTIME
000312: 32,2412           03621                           STORE    TCSI
000313: 32,2413           77615                           DAD
000314: 32,2414           02261                                    T1TOT2
000315: 32,2415           03371                           STORE    TCDH
000316: 32,2416           77650                           GOTO
000317: 32,2417           64464                                    P1XEND
000318:
000319: 32,2420           77615        P11DISP            DAD
000320: 32,2421           03742                                    TPITIME
000321: 32,2422           03577                           STORE    INTIME
000322: 32,2423           17623                           STODL    TTPI
000323: 32,2424           03760                                    TPIANGLE
000324: 32,2425           17714                           STODL    INJANGLE
000325: 32,2426           03744                                    INJTIME
000326: 32,2427           45415                           DAD      STADR
000327: 32,2430           40103                           STCALL   TCSITPF
000328: 32,2431           64516                                    P1XROT
000329:
000330: 32,2432           67201                           SETPD    SLOAD
000331: 32,2433           00001                                    0
000332: 32,2434           14423                                    P31ZERO
000333: 32,2435           41525                           PDDL     PUSH
000334: 32,2436           24566                                    EPSFOUR*
000335: 32,2437           43160                           AXC,1    CLEAR
000336: 32,2440           00012                                    10D
000337: 32,2441           00275                                    B29FLAG
000338: 32,2442           45345                           DLOAD    DSU
000339: 32,2443           03744                                    INJTIME
000340: 32,2444           03742                                    TPITIME
000341: 32,2445           26355                           STOVL    DELLT4
000342: 32,2446           03724                                    RP1XROT
000343: 32,2447           26341                           STOVL    RINIT
000344: 32,2450           03732                                    VP1XROT
000345: 32,2451           36347                           STCALL   VINIT
000346: 32,2452           22022                                    INITVEL
000347: 32,2453           70575                           VLOAD    VSR2
000348: 32,2454           03363                                    DELVEET3
000349: 32,2455           77646                           ABVAL
000350: 32,2456           27563                           STOVL    DELVTPI
000351: 32,2457           03553                                    VACT4
000352: 32,2460           70451                           VSU      VSR2
000353: 32,2461           03770                                    P11VTPF
000354: 32,2462           77646                           ABVAL
000355: 32,2463           03565                           STORE    DELVTPF
000356:
000357: 32,2464           77776        P1XEND             EXIT
000358: 32,2465           02600                           TC       P1XDISP
000359:
000360: 32,2466           77776        P1XERR             EXIT
000361: 32,2467           05651                           TC       ALARM
000362: 32,2470           00605                           OCT      605
000363:
000364: 32,2471           32654        P1XERDIS           CAF      V05N09AP
000365: 32,2472           04655                           TC       BANKCALL
000366: 32,2473           20406                           CADR     GOFLASH
000367: 32,2474           14106                           TCF      GOTOPOOH
000368: 32,2475           12005                           TCF      P10/P11
000369: 32,2476           12471                           TCF      -5
000370:
000371: 32,2477           41205        P11SMA             DMP      DMP
000372: 32,2500           00003                                    2D
000373: 32,2501           24573                                    1/MU*
000374: 32,2502           41405                           DMP      PUSH
000375: 32,2503           45335                           SLOAD    DSU
000376: 32,2504           24570                                    SMATWO
000377: 32,2505           65301                           NORM     PDDL
000378: 32,2506           00047                                    X1
000379: 32,2507           70501                           NORM     SR1
000380: 32,2510           00050                                    X2
000381: 32,2511           77671                           DDV
000382: 32,2512           53664                           XSU,2    SR*
000383: 32,2513           00046                                    X1
000384: 32,2514           57173                                    3,2
000385: 32,2515           43406                           PUSH     RVQ
000386:
000387: 32,2516           41345        P1XROT             DLOAD    DMP
000388: 32,2517           03714                                    INJANGLE
000389: 32,2520           24575                                    DEGTOREV
000390: 32,2521           41461                           SL       PUSH
000391: 32,2522           20217                                    14D
000392: 32,2523           74346                           COS      VXSC
000393: 32,2524           03750                                    ULVEC
000394: 32,2525           73525                           PDDL     SIN
000395: 32,2526           47315                           PDVL     VXV
000396: 32,2527           03762                                    UNVEC2
000397: 32,2530           03750                                    ULVEC
000398: 32,2531           74256                           UNIT     VXSC
000399: 32,2532           77655                           VAD
000400: 32,2533           72561                           VXSC     VSL2
000401: 32,2534           03704                                    RLEMT2
000402: 32,2535           03724                           STORE    RP1XROT
000403: 32,2536           74256                           UNIT     VXSC
000404: 32,2537           03720                                    P1XVVER
000405: 32,2540           53515                           PDVL     UNIT
000406: 32,2541           03724                                    RP1XROT
000407: 32,2542           74235                           VXV      VXSC
000408: 32,2543           03762                                    UNVEC2
000409: 32,2544           03722                                    P1XVHOR
000410: 32,2545           52372                           VSL1     VSU
000411: 32,2546           66476                           VCOMP    VSL3
000412: 32,2547           03732                           STORE    VP1XROT
000413: 32,2550           77616                           RVQ
000414:
000415: 32,2551           00000 00012  P1MAXIT            2DEC     10         B-28
000416: 32,2553  32,2551               P10ZERO            =        P1MAXIT
000417: 32,2553           00000 00144  ONESEC             2DEC     100        B-28
000418: 32,2555           06314 31463  P10FRAC            2DEC     0.2
000419: 32,2557           00012 37440  30MIN              2DEC     1800       E2
000420: 32,2561           01444 07733  P1XPI              2DEC     3.141592659 B-6
000421: 32,2563           00324 05324  P10RM              2DEC     1738090    B-27
000422: 32,2565           01252 25253  EPSFOUR*           2DEC     0.0416666666
000423: 32,2567           00100        SMATWO             DEC      2          B5
000424: 32,2570           16471 01352  P10MU              2DEC     4.902778   E8         B-30
000425: 32,2572           21412 20500  1/MU*              2DEC     2.03966    E-9        B28
000426: 32,2574           00055 20266  DEGTOREV           2DEC     0.0055555555 B-1
000427: 32,2576           27533 07571  ROOT1/MU           2DEC     4.516259492 E-5        B14
000428:
000429: 32,2600           00006        P1XDISP            EXTEND
000430: 32,2601           31423                           DCA      TIG(AS)
000431: 32,2602           53425                           DXCH     TIG
000432: 32,2603           55424                           TS       TIG
000433:
000434: 32,2604           32657                           CAF      V06N33AP
000435: 32,2605           02643                           TC       VNDISP
000436:
000437: 32,2606           30140                           CA       DSPMMTEM
000438: 32,2607           00006                           EXTEND
000439: 32,2610           12620                           BZF      P10OUTD
000440:
000441: 32,2611           32661                           CAF      V06N37AP
000442: 32,2612           02643                           TC       VNDISP
000443:
000444: 32,2613           31673                           CA       TCSITPF
000445: 32,2614           55046                           TS       DSPTEM1
000446: 32,2615           32660                           CAF      V06N34AP
000447: 32,2616           02643                           TC       VNDISP
000448: 32,2617           02624                           TC       P10N53
000449:
000450: 32,2620           32655        P10OUTD            CAF      V06N30AP
000451: 32,2621           02643                           TC       VNDISP
000452:
000453: 32,2622           32656                           CAF      V06N31AP
000454: 32,2623           02643                           TC       VNDISP
000455:
000456: 32,2624           32662        P10N53             CAF      V06N53AP
000457: 32,2625           02643                           TC       VNDISP
000458:
000459: 32,2626           35026        P1XCNTD            CAF      ONE
000460: 32,2627           00004                           INHINT
000461: 32,2630           05252                           TC       WAITLIST
000462: 32,2631  E7,1424                                  EBANK=   TIG
000463: 32,2631           02707 74067                     2CADR    CLOKTASK
000464:
000465: 32,2633           00003                           RELINT
000466:
000467: 32,2634           32670                           CAF      V16N35AP
000468: 32,2635           04655                           TC       BANKCALL
000469: 32,2636           20406                           CADR     GOFLASH
000470: 32,2637           04106                           TC       GOTOPOOH
000471: 32,2640           12642                           TCF      +2
000472: 32,2641           12626                           TCF      P1XCNTD
000473: 32,2642           04106                           TC       GOTOPOOH
000474:
000475: 32,2643           00006        VNDISP             EXTEND
000476: 32,2644           23452                           QXCH     RTRN
000477: 32,2645           55602                           TS       VERBNOUN
000478: 32,2646           31602                           CA       VERBNOUN
000479: 32,2647           04655                           TCR      BANKCALL
000480: 32,2650           20406                           CADR     GOFLASH
000481: 32,2651           14106                           TCF      GOTOPOOH
000482: 32,2652           01452                           TC       RTRN
000483: 32,2653           12646                           TCF      -5
000484:
000485: 32,2654           01211        V05N09AP           VN       0509
000486: 32,2655           01436        V06N30AP           VN       0630
000487: 32,2656           01437        V06N31AP           VN       0631
000488: 32,2657           01441        V06N33AP           VN       0633
000489: 32,2660           01442        V06N34AP           VN       0634
000490: 32,2661           01445        V06N37AP           VN       0637
000491: 32,2662           01465        V06N53AP           VN       0653
000492: 32,2663           01470        V06N56             VN       0656
000493: 32,2664           01521        V06N81AP           VN       0681
000494: 32,2665           01533        V06N91             VN       0691
000495: 32,2666           01534        V06N92             VN       0692
000496: 32,2667           01536        V06N94             VN       0694
000497: 32,2670           04043        V16N35AP           VN       1635
000498:
000499:

End of include-file P10,P11.agc.  Parent file is MAIN.agc


