
Source Code


000002:                                                                                                  ## Copyright:   Public domain.
000003:                                                                                                  ## Filename:    P30,P37.agc
000004:                                                                                                  ## Purpose:     A section of an attempt to reconstruct Sundance revision 306
000005:                                                                                                  ##              as closely as possible with available information. Sundance
000006:                                                                                                  ##              306 is the source code for the Lunar Module's (LM) Apollo
000007:                                                                                                  ##              Guidance Computer (AGC) for Apollo 9. This program was created
000008:                                                                                                  ##              using the mixed-revision SundanceXXX as a starting point, and
000009:                                                                                                  ##              pulling back features from Luminary 69 believed to have been
000010:                                                                                                  ##              added based on memos, checklists, observed address changes,
000011:                                                                                                  ##              or the Sundance GSOPs.
000012:                                                                                                  ## Assembler:   yaYUL
000013:                                                                                                  ## Contact:     Ron Burkey <info@sandroid.org>.
000014:                                                                                                  ## Website:     www.ibiblio.org/apollo/index.html
000015:                                                                                                  ## Mod history: 2020-07-24 MAS  Created from SundanceXXX.
000016:
000017:
000018:
000019:                                                                                                  #  PROGRAM DESCRIPTION P30       DATE 3-6-67
000020:
000021:                                                                                                  #  MOD.1 BY RAMA AIYAWAR
000022:                                                                                                  #  FUNCTIONAL DESCRIPTION
000023:                                                                                                  #        ACCEPT ASTRONAUT INPUTS OF TIG,DELV(LV)
000024:                                                                                                  #        CALL IMU STATUS CHECK ROUTINE (R02)
000025:                                                                                                  #        DISPLAY TIME TO GO, APOGEE, PERIGEE, DELV(MAG), MGA AT IGN
000026:                                                                                                  #        REQUEST BURN PROGRAM
000027:
000028:                                                                                                  #  CALLING SEQUENCE VIA JOB FROM V37
000029:
000030:                                                                                                  #  EXIT VIA V37 CALL OR TO GOTOPOOH (V34E)
000031:
000032:                                                                                                  #  SUBROUTINE CALLS -    FLAGUP, PHASCHNG, BANKCALL, ENDOFJOB, GOFLASH, GOFLASHR
000033:                                                                                                  #                        GOPERF3R, INTPRET, BLANKET, GOTOPOOH, R02BOTH, S30.1,
000034:                                                                                                  #                        TTG/N35, MIDGIM, DISPMGA
000035:
000036:                                                                                                  #  ERASABLE INITIALIZATION - STATE VECTOR
000037:
000038:                                                                                                  #  OUTPUT-RINIT, VINIT, +MGA, VTIG, RTIG, DELVSIN, DELVSAB, DELVSLV, HAPO,
000039:                                                                                                  #         HPER, TTOGO
000040:
000041:                                                                                                  #  DEBRIS- A,L, MPAC, PUSHLIST
000042:
000043: 32,2671                                           BANK     32
000044: 35,2000                                           SETLOC   P30S
000045: 35,2000                                           BANK
000046: 35,2000  E4,1660                                  EBANK=   +MGA
000047: 35,2000                                           COUNT*   $$/P30
000048:
000049: 35,2000           77420        REVN1645           STQ      EXIT                                  #  TRKMKCNT, TTOGO, +MGA
000050: 35,2001           03652                                    QTEMP1
000051:
000052: 35,2002           02465                           TC       COMPTGO
000053: 35,2003           33627                           CAF      V16N45
000054: 35,2004           04655                           TC       BANKCALL
000055: 35,2005           20544                           CADR     GOFLASHR
000056: 35,2006           04106                           TC       GOTOPOOH
000057: 35,2007           02014                           TC       +5
000058: 35,2010           02003                           TC       -5
000059: 35,2011           05423                           TC       PHASCHNG
000060: 35,2012           00014                           OCT      00014
000061: 35,2013           05225                           TC       ENDOFJOB
000062:
000063: 35,2014           35026                           CAF      ONE
000064: 35,2015           55175                           TS       DISPDEX
000065: 35,2016           06014                           TC       INTPRET
000066: 35,2017           77650                           GOTO
000067: 35,2020           03652                                    QTEMP1
000068:
000069: 35,2021           05566        P30                TC       UPFLAG                                #  SET UPDATE FLAG
000070: 35,2022           00027                           ADRES    UPDATFLG
000071: 35,2023           05566                           TC       UPFLAG                                #  SET TRACK FLAG
000072: 35,2024           00031                           ADRES    TRACKFLG
000073:
000074: 35,2025           32114        P30N33             CAF      V06N33                                #  T OF IGN
000075: 35,2026           04655                           TC       BANKCALL
000076: 35,2027           20544                           CADR     GOFLASHR
000077: 35,2030           14106                           TCF      GOTOPOOH
000078: 35,2031           12036                           TCF      +5
000079: 35,2032           12025                           TCF      -5
000080: 35,2033           05423                           TC       PHASCHNG
000081: 35,2034           00014                           OCT      00014
000082: 35,2035           05225                           TC       ENDOFJOB
000083:
000084: 35,2036           32115                           CAF      V06N82                                #  DISPLAY DELTA V (LV)
000085: 35,2037           04655                           TC       BANKCALL
000086: 35,2040           20406                           CADR     GOFLASH
000087: 35,2041           14106                           TCF      GOTOPOOH
000088: 35,2042           12044                           TCF      +2
000089: 35,2043           12036                           TCF      -5
000090:
000091: 35,2044           05600                           TC       DOWNFLAG                              #  RESET UPDATE FLAG
000092: 35,2045           00027                           ADRES    UPDATFLG
000093: 35,2046           06014                           TC       INTPRET
000094: 35,2047           77624                           CALL
000095: 35,2050           70000                                    S30.1
000096: 35,2051           77745                           DLOAD
000097: 35,2052           00005                                    4D
000098: 35,2053           16261                           STODL    HAPO
000099: 35,2054           00011                                    8D
000100: 35,2055           02263                           STORE    HPER
000101: 35,2056           77414                           SET      EXIT
000102: 35,2057           00470                                    UPDATFLG
000103: 35,2060           32116        PARAM30            CAF      V06N42                                #  DISPLAY APOGEE,PERIGEE ,DELTA V
000104: 35,2061           04655                           TC       BANKCALL
000105: 35,2062           20406                           CADR     GOFLASH
000106: 35,2063           04106                           TC       GOTOPOOH
000107: 35,2064           12066                           TCF      +2
000108: 35,2065           12060                           TCF      PARAM30
000109:
000110: 35,2066           35012                           CAF      REFSMBIT
000111: 35,2067           70077                           MASK     FLAGWRD3
000112: 35,2070           00006                           EXTEND
000113: 35,2071           12102                           BZF      MINMGA
000114:
000115: 35,2072           06014                           TC       INTPRET
000116: 35,2073           77214                           SET      VLOAD
000117: 35,2074           01072                                    AVFLAG
000118: 35,2075           03643                                    DELVSIN
000119: 35,2076           45006                           PUSH     CALL
000120: 35,2077           20002                                    MIDGIM
000121: 35,2100           77650                           GOTO
000122: 35,2101           72107                                    DISPMANV
000123:
000124: 35,2102           06014        MINMGA             TC       INTPRET
000125: 35,2103           43345                           DLOAD    DAD
000126: 35,2104           33642                                    DP-.01
000127: 35,2105           33642                                    DP-.01
000128: 35,2106           02261                           STORE    +MGA
000129: 35,2107           77624        DISPMANV           CALL
000130: 35,2110           72000                                    REVN1645
000131: 35,2111           77414                           SET      EXIT
000132: 35,2112           01067                                    XDELVFLG
000133:
000134: 35,2113           04106                           TC       GOTOPOOH
000135:
000136: 35,2114           01441        V06N33             VN       0633
000137: 35,2115           01522        V06N82             VN       0682
000138: 35,2116           01452        V06N42             VN       0642
000139: 35,2117           01455        V06N45             VN       0645
000140:
000141:                                                                                                  #  PROGRAM DESCRIPTION S30.1     DATE 9NOV66
000142:
000143:                                                                                                  #  MOD NO 1                      LOG SECTION P30,P37
000144:                                                                                                  #  MOD BY RAMA AIYAWAR **
000145:
000146:                                                                                                  #  FUNCTIONAL DESCRIPTION
000147:                                                                                                  #        BASED ON STORED TARGET PARAMETERS(R OF IGNITION (RTIG), V OF
000148:                                                                                                  #        IGNITION(VTIG), TIME OF IGNITION (TIG)),COMPUTE PERIGEE ALTITUDE
000149:                                                                                                  #        APOGEE ALTITUDE AND DELTAV REQUIRED(DELVSIN).
000150:
000151:                                                                                                  #  CALLING SEQUENCE
000152:                                                                                                  #        L       CALL
000153:                                                                                                  #        L+1             S30.1
000154:
000155:                                                                                                  #  NORMAL EXIT MODE
000156:                                                                                                  #        AT L+2 OR CALLING SEQUENCE (GOTO L+2)
000157:
000158:                                                                                                  #  SUBROUTINES CALLED
000159:                                                                                                  #        LEMPREC
000160:                                                                                                  #        PERIAPO
000161:
000162:                                                                                                  #  ALARM OR ABORT EXIT MODES
000163:                                                                                                  #                NONE
000164:
000165:                                                                                                  #  ERASABLE INITIALIZATION REQUIRED
000166:                                                                                                  #        TIG             TIME OF IGNITION                DP B28CS
000167:                                                                                                  #        DELVSLV         SPECIFIED DELTA-V IN LOCAL VERT.
000168:                                                                                                  #                        COORDS. OF ACTIVE VEHICLE AT
000169:                                                                                                  #                TIME OF IGNITION        VECTOR B+7 METERS/CS
000170:
000171:                                                                                                  #  OUTPUT
000172:                                                                                                  #        RTIG    POSITION AT TIG         VECTOR  B+29 METERS
000173:                                                                                                  #        VTIG    VELOCITY AT TIG         VECTOR  B+29 METERS/CS
000174:                                                                                                  #        PDL 4D  APOGEE ALTITUDE         DP      B+29 M ,  B+27 METERS.
000175:                                                                                                  #        HAPO    APOGEE ALTITUDE         DP      B+29 METERS
000176:                                                                                                  #        PDL 8D  PERIGEE ALTITUDE        DP      B+29 M ,  B+27 METERS.
000177:                                                                                                  #        HPER    PERIGEE ALTITUDE        DP      B+29 METERS
000178:                                                                                                  #        DELVSIN    SPECIFIED DELTA-V IN INERTIAL
000179:                                                                                                  #                   COORD. OF ACTIVE VEHICLE AT
000180:                                                                                                  #                TIME OF IGNITION        VECTOR  B+7 METERS/CS
000181:                                                                                                  #        DELVSAB MAG. OF DELVSIN         VECTOR  B+7 METERS/CS
000182:
000183:                                                                                                  #  DEBRIS        QTEMP   TEMP.ERASABLE
000184:                                                                                                  #                QPRET, MPAC
000185:                                                                                                  #                PUSHLIST
000186:
000187: 34,2000                                           SETLOC   P30S1
000188: 34,2000                                           BANK
000189:
000190: 34,2000                                           COUNT*   $$/S30S
000191:
000192: 34,2000           71220        S30.1              STQ      DLOAD
000193: 34,2001           03617                                    QTEMP
000194: 34,2002           03425                                    TIG                                   #  TIME IGNITION SCALED AT 2(+28)CS
000195: 34,2003           34041                           STCALL   TDEC1
000196: 34,2004           27030                                    LEMPREC                               #  ENCKE ROUTINE FOR LEM
000197:
000198: 34,2005           77775                           VLOAD
000199: 34,2006           00017                                    RATT1
000200: 34,2007           02655                           STORE    RVEC
000201: 34,2010           03627                           STORE    RTIG                                  #  RADIUS VECTOR AT IGNITION TIME
000202: 34,2011           57456                           UNIT     VCOMP
000203: 34,2012           27643                           STOVL    DELVSIN                               #  ZRF/LV IN DELVSIN SCALED AT 2
000204: 34,2013           00025                                    VATT1                                 #  VELOCITY VECTOR AT TIG, SCALED 2(7) M/CS
000205: 34,2014           03635                           STORE    VTIG
000206: 34,2015           53435                           VXV      UNIT
000207: 34,2016           03627                                    RTIG
000208: 34,2017           77601                           SETPD
000209: 34,2020           00001                                    0
000210: 34,2021           47206                           PUSH     VXV                                   #  YRF/LV PDL 0 SCALED AT 2
000211: 34,2022           03643                                    DELVSIN
000212: 34,2023           63372                           VSL1     PDVL
000213: 34,2024           63315                           PDVL     PDVL                                  #  YRF/LV PDL 6 SCALED AT 2
000214: 34,2025           03643                                    DELVSIN                               #  ZRF/LV PDL 12D SCALED AT 2
000215: 34,2026           02267                                    DELVSLV
000216: 34,2027           76505                           VXM      VSL1
000217: 34,2030           00001                                    0
000218: 34,2031           03643                           STORE    DELVSIN                               #  DELTAV IN INERT. COOR. SCALED TO B+7M/CS
000219: 34,2032           77646                           ABVAL
000220: 34,2033           27651                           STOVL    DELVSAB                               #  DELTA V MAG.
000221: 34,2034           03635                                    VTIG                                  #  (FOR PERIAPO)
000222: 34,2035           77655                           VAD                                            #  VREQUIRED = VTIG + DELVSIN (FOR PERIAPO)
000223: 34,2036           03643                                    DELVSIN
000224: 34,2037           36744                           STCALL   VVEC
000225: 34,2040           46116                                    PERIAPO
000226: 34,2041           77650                           GOTO
000227: 34,2042           03617                                    QTEMP
000228:
000229:

End of include-file P30,P37.agc.  Parent file is MAIN.agc


