
Source Code


000002:                                                                                                  ## Copyright:   Public domain.
000003:                                                                                                  ## Filename:    P32-P35,_P72-P75.agc
000004:                                                                                                  ## Purpose:     A section of an attempt to reconstruct Sundance revision 306
000005:                                                                                                  ##              as closely as possible with available information. Sundance
000006:                                                                                                  ##              306 is the source code for the Lunar Module's (LM) Apollo
000007:                                                                                                  ##              Guidance Computer (AGC) for Apollo 9. This program was created
000008:                                                                                                  ##              using the mixed-revision SundanceXXX as a starting point, and
000009:                                                                                                  ##              pulling back features from Luminary 69 believed to have been
000010:                                                                                                  ##              added based on memos, checklists, observed address changes,
000011:                                                                                                  ##              or the Sundance GSOPs.
000012:                                                                                                  ## Assembler:   yaYUL
000013:                                                                                                  ## Contact:     Ron Burkey <info@sandroid.org>.
000014:                                                                                                  ## Website:     www.ibiblio.org/apollo/index.html
000015:                                                                                                  ## Mod history: 2020-07-24 MAS  Created from SundanceXXX.
000016:                                                                                                  ##              2021-05-30 ABS  TTPIO -> TTPI0
000017:                                                                                                  ##                              K10RK2 -> K1ORK2
000018:
000019:
000020:
000021:                                                                                                  #  COELLIPTIC SEQUENCE INITIATION (CSI) PROGRAMS (P32 AND P72)
000022:
000023:                                                                                                  #  MOD NO -1       LOG SECTION - P32-P35, P72-P75
000024:                                                                                                  #  MOD BY WHITE.P  DATE  1JUNE67
000025:
000026:                                                                                                  #  PURPOSE
000027:
000028:                                                                                                  #        (1) TO CALCULATE PARAMETERS ASSOCIATED WITH THE FOLLOWING
000029:                                                                                                  #            CONCENTRIC FLIGHT PLAN MANEUVERS - THE CO-ELLIPTIC SEQUENCE
000030:                                                                                                  #            INITIATION (CSI) MANEUVER AND THE CONSTANT DELTA ALTITUDE
000031:                                                                                                  #            (CDH) MANEUVER.
000032:
000033:                                                                                                  #        (2) TO CALCULATE THESE PARAMETERS BASED UPON MANEUVER DATA
000034:                                                                                                  #            APPROVED AND KEYED INTO THE DSKY BY THE ASTRONAUT.
000035:
000036:                                                                                                  #        (3) TO DISPLAY TO THE ASTRONAUT AND THE GROUND DEPENDENT VARIABLES
000037:                                                                                                  #            ASSOCIATED WITH THE CONCENTRIC FLIGNT PLAN MANEUVERS FOR
000038:                                                                                                  #            APPROVAL BY THE ASTRONAUT/GROUND.
000039:
000040:                                                                                                  #        (4) TO STORE THE CSI TARGET PARAMETERS FOR USE BY THE DESIRED
000041:                                                                                                  #            THRUSTING PROGRAM.
000042:
000043:                                                                                                  #  ASSUMPTIONS
000044:
000045:                                                                                                  #        (1) AT A SELECTED TPI TIME THE LINE OF SIGHT BETWEEN THE ACTIVE
000046:                                                                                                  #            AND PASSIVE VEHICLES IS SELECTED TO BE A PRESCRIBED ANGLE (E)
000047:                                                                                                  #            FROM THE HORIZONTAL PLANE DEFINED BY THE ACTIVE VEHICLE
000048:                                                                                                  #            POSITION.
000049:
000050:                                                                                                  #        (2) THE TIME BETWEEN CSI IGNITION AND CDH IGNITION MUST BE
000051:                                                                                                  #            COMPUTED TO BE GREATER THAN 10 MINUTES FOR SUCCESSFUL
000052:                                                                                                  #            COMPLETION OF THE PROGRAM.
000053:
000054:                                                                                                  #        (3) THE TIME BETWEEN CDH IGNITION AND TPI IGNITION MUST BE
000055:                                                                                                  #            COMPUTED TO BE GREATER THAN 10 MINUTES FOR SUCCESSFUL
000056:                                                                                                  #            COMPLETION OF THE PROGRAM.
000057:
000058:                                                                                                  #        (4) CDH DELTA V IS SELECTED TO MINIMIZE THE VARIATION OF THE
000059:                                                                                                  #            ALTITUDE DIFFERENCE BETWEEN THE ORBITS.
000060:
000061:                                                                                                  #        (5) CSI BURN IS DEFINED SUCH THAT THE IMPULSIVE DELTA V IS IN THE
000062:                                                                                                  #            HORIZONTAL PLANE DEFINED BY THE ACTIVE VEHICLE POSITION AT CSI
000063:                                                                                                  #            IGNITION.
000064:
000065:                                                                                                  #        (6) THE PERICENTER ALTITUDE OF THE ORBIT FOLLOWING CSI AND CDH
000066:                                                                                                  #            MUST BE GREATER THAN 35,000 FT (LUNAR ORBIT) OR 85 NM (EARTH
000067:                                                                                                  #            ORBIT) FOR SUCCESSFUL COMPLETION OF THIS PROGRAM.
000068:
000069:                                                                                                  #        (7) THE CSI AND CDH MANEUVERS ARE ORIGINALLY ASSUMED TO BE
000070:                                                                                                  #            PARALLEL TO THE PLANE OF THE CSM ORBIT.  HOWEVER CREW
000071:                                                                                                  #            MODIFICATION OF DELTA V (LV) COMPONENTS MAY RESULT IN AN
000072:                                                                                                  #            OUT-OF-PLANE CSI MANEUVER.
000073:
000074:                                                                                                  #        (8) STATE VECTOR UPDATES BY P27 ARE DISALLOWED DURING AUTOMATIC
000075:                                                                                                  #            STATE VECTOR UPDATING INITIATED BY P20 (SEE ASSUMPTION 10).
000076:
000077:                                                                                                  #        (9) COMPUTED VARIABLES MAY BE STORED FOR LATER VERIFICATION BY
000078:                                                                                                  #            THE GROUND.  THESE STORAGE CAPABILITIES ARE NORMALLY LIMITED
000079:                                                                                                  #            ONLY TO THE PARAMETERS FOR ONE THRUSTING MANEUVER AT A TIME
000080:                                                                                                  #            EXCEPT FOR CONCENTRIC FLIGHT PLAN MANEUVER SEQUENCES.
000081:
000082:                                                                                                  #       (10) THE RENDEZVOUS RADAR MAY OR MAY NOT BE USED TO UPDATE THE LM
000083:                                                                                                  #            OR CSM STATE VECTORS FOR THIS PROGRAM.  IF RADAR USE IS
000084:                                                                                                  #            DESIRED THE RADAR WAS TURNED ON AND LOCKED ON THE CSM BY
000085:                                                                                                  #            PREVIOUS SELECTION OF P20.  RADAR SIGHTING MARKS WILL BE MADE
000086:                                                                                                  #            AUTOMATICALLY APPROXIMATELY ONCE A MINUTE WHEN ENABLED BY THE
000087:                                                                                                  #            TRACK AND UPDATE FLAGS (SEE P20).  THE RENDEZVOUS TRACKING
000088:                                                                                                  #            MARK COUNTER IS ZEROED BY THE SELECTION OF P20 AND AFTER EACH
000089:                                                                                                  #            THRUSTING MANEUVER.
000090:
000091:                                                                                                  #       (11) THE ISS NEED NOT BE ON TO COMPLETE THIS PROGRAM.
000092:
000093:                                                                                                  #       (12) THE OPERATION OF THE PROGRAM UTILIZES THE FOLLOWING FLAGS -
000094:
000095:                                                                                                  #                ACTIVE VEHICLE FLAG - DESIGNATES THE VEHICLE WHICH IS
000096:                                                                                                  #                DOING RENDEZVOUS THRUSTING MANEUVERS TO THE PROGRAM WHICH
000097:                                                                                                  #                CALCULATES THE MANEUVER PARAMETERS.  SET AT THE START OF
000098:                                                                                                  #                EACH RENDEZVOUS PRE-THRUSTING PROGRAM.
000099:
000100:                                                                                                  #                FINAL FLAG - SELECTS FINAL PROGRAM DISPLAYS AFTER CREW HAS
000101:                                                                                                  #                COMPLETED THE FINAL MANEUVER COMPUTATION AND DISPLAY
000102:                                                                                                  #                CYCLE.
000103:
000104:                                                                                                  #                EXTERNAL DELTA V STEERING FLAG - DESIGNATES THE TYPE OF
000105:                                                                                                  #                STEERING REQUIRED FOR EXECUTION OF THIS MANEUVER BY THE
000106:                                                                                                  #                THRUSTING PROGRAM SELECTED AFTER COMPLETION OF THIS
000107:                                                                                                  #                PROGRAM.
000108:
000109:                                                                                                  #       (13) IT IS NORMALLY REQUIRED THAT THE ISS BE ON FOR 1 HOUR PRIOR TO
000110:                                                                                                  #            A THRUSTING MANEUVER.
000111:
000112:                                                                                                  #       (14) THIS PROGRAM IS SELECTED BY THE ASTRONAUT BY DSKY ENTRY -
000113:
000114:                                                                                                  #                P32 IF THIS VEHICLE IS ACTIVE VEHICLE.
000115:
000116:                                                                                                  #                P72 IF THIS VEHICLE IS PASSIVE VEHICLE.
000117:
000118:                                                                                                  #  INPUT
000119:
000120:                                                                                                  #        (1) TCSI     TIME OF THE CSI MANEUVER
000121:                                                                                                  #        (2) NN       NUMBER OF APSIDAL CROSSINGS THRU WHICH THE ACTIVE
000122:                                                                                                  #                     VEHICLE ORBIT CAN BE ADVANCED TO OBTAIN THE CDH
000123:                                                                                                  #                     MANEUVER POINT
000124:                                                                                                  #        (3) ELEV     DESIRED LOS ANGLE AT TPI
000125:                                                                                                  #        (4) TTPI     TIME OF THE TPI MANEUVER
000126:                                                                                                  #  OUTPUT
000127:
000128:                                                                                                  #        (1) TRKMKCNT NUMBER OF MARKS
000129:                                                                                                  #        (2) TTOGO    TIME TO GO
000130:                                                                                                  #        (3) +MGA     MIDDLE GIMBAL ANGLE
000131:                                                                                                  #        (4) DIFFALT  DELTA ALTITUDE AT CDH
000132:                                                                                                  #        (5) T1TOT2   DELTA TIME FROM CSI TO CDH
000133:                                                                                                  #        (6) T2TOT3   DELTA TIME FROM CDH TO TPI
000134:                                                                                                  #        (7) DELVLVC  DELTA VELOCITY AT CSI - LOCAL VERTICAL COORDINATES
000135:                                                                                                  #        (8) DELVLVC  DELTA VELOCITY AT CDH - LOCAL VERTICAL COORDINATES
000136:
000137:                                                                                                  #  DOWNLINK
000138:
000139:                                                                                                  #        (1) TCSI     TIME OF THE CSI MANEUVER
000140:                                                                                                  #        (2) TCDH     TIME OF THE CDH MANEUVER
000141:                                                                                                  #        (3) TTPI     TIME OF THE TPI MANEUVER
000142:                                                                                                  #        (4) TIG      TIME OF THE CSI MANEUVER
000143:                                                                                                  #        (5) DELVEET1 DELTA VELOCITY AT CSI - REFERENCE COORDINATES
000144:                                                                                                  #        (6) DELVEET2 DELTA VELOCITY AT CDH - REFERENCE COORDINATES
000145:                                                                                                  #        (7) DIFFALT  DELTA ALTITUDE AT CDH
000146:                                                                                                  #        (8) NN       NUMBER OF APSIDAL CROSSINGS THRU WHICH THE ACTIVE
000147:                                                                                                  #                     VEHICLE ORBIT CAN BE ADVANCED TO OBTAIN THE CDH
000148:                                                                                                  #                     MANEUVER POINT
000149:                                                                                                  #        (9) ELEV     DESIRED LOS ANGLE AT TPI
000150:
000151:                                                                                                  #  COMMUNICATION TO THRUSTING PROGRAMS
000152:
000153:                                                                                                  #        (1) TIG      TIME OF THE CSI MANEUVER
000154:                                                                                                  #        (2) RTIG     POSITION OF ACTIVE VEHICLE AT CSI - BEFORE ROTATION
000155:                                                                                                  #                     INTO PLANE OF PASSIVE VEHICLE
000156:                                                                                                  #        (3) VTIG     VELOCITY OF ACTIVE VEHICLE AT CSE - BEFORE ROTATION
000157:                                                                                                  #                     INTO PLANE OF PASSIVE VEHICLE
000158:                                                                                                  #        (4) DELVSIN  DELTA VELOCITY AT CSI - REFERENCE COORDINATES
000159:                                                                                                  #        (5) DELVSAB  MAGNITUDE OF DELTA VELOCITY AT CSI
000160:                                                                                                  #        (6) XDELVFLG SET TO INDICATE EXTERNAL DELTA V VG COMPUTATION
000161:
000162:                                                                                                  #  SUBROUTINES USED
000163:
000164:                                                                                                  #        AVFLAGA
000165:                                                                                                  #        AVFLAGP
000166:                                                                                                  #        P20FLGON
000167:                                                                                                  #        VARALARM
000168:                                                                                                  #        BANKCALL
000169:                                                                                                  #        GOFLASH
000170:                                                                                                  #        GOTOPOOH
000171:                                                                                                  #        VNPOOH
000172:                                                                                                  #        GOFLASHR
000173:                                                                                                  #        BLANKET
000174:                                                                                                  #        ENDOFJOB
000175:                                                                                                  #        SELECTMU
000176:                                                                                                  #        ADVANCE
000177:                                                                                                  #        INTINT
000178:                                                                                                  #        PASSIVE
000179:                                                                                                  #        CSI/A
000180:                                                                                                  #        S32/33.1
000181:                                                                                                  #        DISDVLVC
000182:                                                                                                  #        VN1645
000183:
000184: 35,2120                                           BANK     35
000185: 35,2000                                           SETLOC   CSI/CDH
000186: 35,2000                                           BANK
000187: 35,2120  E7,1455                                  EBANK=   SUBEXIT
000188: 35,2120                                           COUNT*   $$/P3272
000189: 35,2120           02405        P32                TC       AVFLAGA
000190: 35,2121           02143                           TC       P32/P72A
000191: 35,2122           02412        P72                TC       AVFLAGP
000192: 35,2123           02143                           TC       P32/P72A
000193: 35,2124           77734        ALMXITA            SXA,2
000194: 35,2125           03600                                    CSIALRM
000195: 35,2126           43140        ALMXIT             LXC,1    BOFF
000196: 35,2127           03600                                    CSIALRM
000197: 35,2130           03346                                    LTCPFLG
000198: 35,2131           64271                                    P10ALARM
000199: 35,2132           77533                           SLOAD*   EXIT
000200: 35,2133           32456                                    ALARM/TB   -1,1
000201: 35,2134           30154                           CA       MPAC
000202: 35,2135           05741                           TC       VARALARM
000203: 35,2136           35056                           CAF      V05N09
000204: 35,2137           04655                           TC       BANKCALL
000205: 35,2140           20406                           CADR     GOFLASH
000206: 35,2141           04106                           TC       GOTOPOOH
000207: 35,2142           02136                           TC       -4
000208: 35,2143           32452        P32/P72A           CAF      P30ZERO
000209: 35,2144           55454                           TS       NN         +1
000210: 35,2145           32443                           CAF      V06N30                                #  TCSI
000211: 35,2146           03611                           TC       VNPOOH
000212: 35,2147           33623                           CAF      V06N55                                #  NN, ELEV(RGLOS)
000213: 35,2150           04655                           TC       BANKCALL
000214: 35,2151           20544                           CADR     GOFLASHR
000215: 35,2152           04106                           TC       GOTOPOOH
000216: 35,2153           02160                           TC       +5
000217: 35,2154           02147                           TC       -5
000218: 35,2155           35024                           CAF      BIT3
000219: 35,2156           05556                           TC       BLANKET
000220: 35,2157           05225                           TC       ENDOFJOB
000221: 35,2160           33622                           CAF      V06N37                                #  TTPI
000222: 35,2161           03611                           TC       VNPOOH
000223: 35,2162           06014                           TC       INTPRET
000224: 35,2163           77745                           DLOAD
000225: 35,2164           03621                                    TCSI
000226: 35,2165           37425                           STCALL   TIG
000227: 35,2166           20045                                    SELECTMU
000228: 35,2167           45014        P32/P72B           SET      CALL
000229: 35,2170           03066                                    LTCPFLG
000230: 35,2171           71001                                    ADVANCE
000231: 35,2172           77201                           SETPD    VLOAD
000232: 35,2173           00001                                    0D
000233: 35,2174           03473                                    VPASS1
000234: 35,2175           65315                           PDVL     PDDL
000235: 35,2176           03465                                    RPASS1
000236: 35,2177           03621                                    TCSI
000237: 35,2200           65325                           PDDL     PDDL
000238: 35,2201           03623                                    TTPI
000239: 35,2202           33631                                    TWOPI
000240: 35,2203           45006                           PUSH     CALL
000241: 35,2204           73403                                    INTINT
000242: 35,2205           77624                           CALL
000243: 35,2206           46202                                    PASSIVE
000244: 35,2207           77624                           CALL
000245: 35,2210           70077                                    CSI/A
000246: 35,2211           43014        P32/P72C           BON      SET
000247: 35,2212           01311                                    FINALFLG
000248: 35,2213           72215                                    P32/P72D
000249: 35,2214           00470                                    UPDATFLG
000250: 35,2215           77745        P32/P72D           DLOAD
000251: 35,2216           02261                                    T1TOT2
000252: 35,2217           02261        P32/P72E           STORE    T1TOT2
000253: 35,2220           51025                           DSU      BPL
000254: 35,2221           32455                                    60MIN
000255: 35,2222           72217                                    P32/P72E
000256: 35,2223           77745                           DLOAD
000257: 35,2224           02263                                    T2TOT3
000258: 35,2225           02263        P32/P72F           STORE    T2TOT3
000259: 35,2226           51025                           DSU      BPL
000260: 35,2227           32455                                    60MIN
000261: 35,2230           72225                                    P32/P72F
000262: 35,2231           77776                           EXIT
000263: 35,2232           32445                           CAF      V06N50
000264: 35,2233           03611                           TC       VNPOOH
000265: 35,2234           06014                           TC       INTPRET
000266: 35,2235           45175                           VLOAD    CALL
000267: 35,2236           02303                                    DELVEET1
000268: 35,2237           71063                                    S32/33.1
000269: 35,2240           26303                           STOVL    DELVEET1
000270: 35,2241           02325                                    RACT2
000271: 35,2242           26317                           STOVL    RACT1
000272: 35,2243           02311                                    DELVEET2
000273: 35,2244           45170                           AXT,1    CALL
000274: 35,2245           01522                           VN       0682
000275: 35,2246           72423                                    DISDVLVC
000276: 35,2247           77745                           DLOAD
000277: 35,2250           03623                                    TTPI
000278: 35,2251           37625                           STCALL   TTPI0
000279: 35,2252           73502                                    VN1645
000280: 35,2253           77650                           GOTO
000281: 35,2254           72167                                    P32/P72B
000282:
000283:                                                                                                  #  CONSTANT DELTA HEIGHT (CDH) PROGRAMS (P33 AND P73)
000284:
000285:                                                                                                  #  MOD NO -1       LOG SECTION - P32-P35, P72-P75
000286:                                                                                                  #  MOD BY WHITE.P  DATE  1JUNE67
000287:                                                                                                  #  PURPOSE
000288:
000289:                                                                                                  #        (1) TO CALCULATE PARAMETERS ASSOCIATED WITH THE CONSTANT DELTA
000290:                                                                                                  #            ALTITUDE MANEUVER (CDH).
000291:
000292:                                                                                                  #        (2) TO CALCULATE THESE PARAMETERS BASED UPON MANEUVER DATA
000293:                                                                                                  #            APPROVED AND KEYED INTO THE DSKY BY THE ASTRONAUT.
000294:
000295:                                                                                                  #        (3) TO DISPLAY TO THE ASTRONAUT AND THE GROUND DEPENDENT VARIABLES
000296:                                                                                                  #            ASSOCIATED WITH THE CDH MANEUVER FOR APPROVAL BY THE
000297:                                                                                                  #            ASTRONAUT/GROUND.
000298:
000299:                                                                                                  #        (4) TO STORE THE CDH TARGET PARAMETERS FOR USE BY THE DESIRED
000300:                                                                                                  #            THRUSTING PROGRAM.
000301:
000302:                                                                                                  #  ASSUMPTIONS
000303:
000304:                                                                                                  #        (1) THIS PROGRAM IS BASED UPON PREVIOUS COMPLETION OF THE
000305:                                                                                                  #            CO-ELLIPTIC SEQUENCE INITIATION (CSI) PROGRAM (P32/P72).
000306:                                                                                                  #            THERFORE -
000307:
000308:                                                                                                  #            (A) AT A SELECTED TPI TIME (NOW IN STORAGE) THE LINE OF SIGHT
000309:                                                                                                  #                BETWEEN THE ACTIVE AND PASSIVE VEHICLES WAS SELECTED TO BE
000310:                                                                                                  #                A PRESCRIBED ANGLE (E) (NOW IN STORAGE) FROM THE
000311:                                                                                                  #                HORIZONTAL PLANE DEFINED BY THE ACTIVE VEHICLE POSITION.
000312:
000313:                                                                                                  #            (B) THE TIME BETWEEN CSI IGNITION AND CDH IGNITION WAS
000314:                                                                                                  #                COMPUTED TO BE GREATER THAN 10 MINUTES.
000315:
000316:                                                                                                  #            (C) THE TIME BETWEEN CDH IGNITION AND TPI IGNITION WAS
000317:                                                                                                  #                COMPUTED TO BE GREATER THAN 10 MINUTES.
000318:
000319:                                                                                                  #            (D) THE VARIATION OF THE ALTITUDE DIFFERENCE BETWEEN THE
000320:                                                                                                  #                ORBITS WAS MINMIZED.
000321:
000322:                                                                                                  #            (E) CSI BURN WAS DEFINED SUCH THAT THE IMPULSIVE DELTA V WAS
000323:                                                                                                  #                IN THE HORIZONTAL PLANE DEFINED BY ACTIVE VEHICLE
000324:
000325:                                                                                                  #                POSITION AT CSI IGNITION.
000326:
000327:                                                                                                  #            (F) THE PERICENTER ALTITUDES OF THE ORBITS FOLLOWING CSI AND
000328:                                                                                                  #                CDH WERE COMPUTED TO BE GREATER THAN 35,000 FT FOR LUNAR
000329:                                                                                                  #                ORBIT OR 85 NM FOR EARTH ORBIT.
000330:
000331:                                                                                                  #            (G) THE CSI AND CDH MANEUVERS WERE ASSUMED TO BE PARALLEL TO
000332:                                                                                                  #                THE PLANE OF THE PASSIVE VEHICLE ORBIT.  HOWEVER, CREW
000333:                                                                                                  #                MODIFICATION OF DELTA V (LV) COMPONENTS MAY HAVE RESULTED
000334:                                                                                                  #                IN AN OUT-OF-PLANE MANEUVER.
000335:
000336:                                                                                                  #        (2) STATE VECTOR UPDATES BY P27 ARE DISALLOWED DURING AUTOMATIC
000337:                                                                                                  #            STATE VECTOR UPDATING INITIATED BY P20 (SEE ASSUMPTION 4).
000338:
000339:                                                                                                  #        (3) COMPUTED VARIABLES MAY BE STORED FOR LATER VERIFICATION BY
000340:                                                                                                  #            THE GROUND.  THESE STORAGE CAPABILITES ARE NORMALLY LIMITED
000341:                                                                                                  #            ONLY TO THE PARAMETERS FOR ONE THRUSTING MANEUVER AT A TIME
000342:                                                                                                  #            EXCEPT FOR CONCENTRIC FLIGHT PLAN MANEUVER SEQUENCES.
000343:
000344:                                                                                                  #        (4) THE RENDEZVOUS RADAR MAY OR MAY NOT BE USED TO UPDATE THE LM
000345:                                                                                                  #            OR CSM STATE VECTORS FOR THIS PROGRAM.  IF RADAR USE IS
000346:                                                                                                  #            DESIRED THE RADAR WAS TURNED ON AND LOCKED ON THE CSM BY
000347:                                                                                                  #            PREVIOUS SELECTION OF P20.  RADAR SIGHTING MARKS WILL BE MADE
000348:                                                                                                  #            AUTOMATICALLY APPROXIMATELY ONCE A MINUTE WHEN ENABLED BY THE
000349:                                                                                                  #            TRACK AND UPDATE FLAGS (SEE P20).  THE RENDEZVOUS TRACKING
000350:                                                                                                  #            MARK COUNTER IS ZEROED BY THE SELECTION OF P20 AND AFTER EACH
000351:                                                                                                  #            THRUSTING MANEUVER.
000352:
000353:                                                                                                  #        (5) THE ISS NEED NOT BE ON TO COMPLETE THIS PROGRAM.
000354:
000355:                                                                                                  #        (6) THE OPERATION OF THE PROGRAM UTILIZES THE FOLLOWING FLAGS -
000356:
000357:                                                                                                  #                ACTIVE VEGICLE FLAG - DESIGNATES THE VEHICLE WHICH IS
000358:                                                                                                  #                DOING RENDEZVOUS THRUSTING MANEUVERS TO THE PROGRAM WHICH
000359:                                                                                                  #                CALCULATES THE MANEUVER PARAMETERS.  SET AT THE START OF
000360:                                                                                                  #                EACH RENDEZVOUS PRE-THRUSTING PROGRAM.
000361:
000362:                                                                                                  #                FINAL FLAG - SELECTS FINAL PROGRAM DISPLAYS AFTER CREW HAS
000363:                                                                                                  #                COMPLETED THE FINAL MANEUVER COMPUTATION AND DISPLAY
000364:                                                                                                  #                CYCLE.
000365:
000366:                                                                                                  #                EXTERNAL DELTA V STEERING FLAG - DESIGNATES THE TYPE OF
000367:                                                                                                  #                STEERING REQUIRED FOR EXECUTION OF THIS MANEUVER BY THE
000368:                                                                                                  #                THRUSTING PROGRAM SELECTED AFTER COMPLETION OF THIS
000369:                                                                                                  #                PROGRAM.
000370:
000371:                                                                                                  #        (7) IT IS NORMALLY REQUIRED THAT THE ISS BE ON FOR 1 HOUR PRIOR TO
000372:                                                                                                  #            A THRUSTING MANEUVER.
000373:
000374:                                                                                                  #        (8) THIS PROGRAM IS SELECTED BY THE ASTRONAUT BY DSKY ENTRY -
000375:
000376:                                                                                                  #                P33 IF THIS VEHICLE IS ACTIVE VEHICLE.
000377:
000378:                                                                                                  #                P73 IF THIS VEHICLE IS PASSIVE VEHICLE.
000379:
000380:                                                                                                  #  INPUT
000381:
000382:                                                                                                  #        (1) TTPI0    TIME OF THE TPI MANEUVER - SAVED FROM P32/P72
000383:                                                                                                  #        (2) ELEV     DESIRED LOS ANGLE AT TPI - SAVED FROM P32/P72
000384:                                                                                                  #        (3) TCDH     TIME OF THE CDH MANEUVER
000385:
000386:                                                                                                  #  OUTPUT
000387:
000388:                                                                                                  #        (1) TRKMKCNT NUMBER OF MARKS
000389:                                                                                                  #        (2) TTOGO    TIME TO GO
000390:                                                                                                  #        (3) +MGA     MIDDLE GIMBAL ANGLE
000391:                                                                                                  #        (4) DIFFALT  DELTA ALTITUDE AT CDH
000392:                                                                                                  #        (5) T2TOT3   DELTA TIME FROM CDH TO COMPUTED TPI
000393:                                                                                                  #        (6) NOMTPI   DELTA TIME FROM NOMINAL TPI TO COMPUTED TPI
000394:                                                                                                  #        (7) DELVLVC  DELTA VELOCITY AT CDH - LOCAL VERTICAL COORDINATES
000395:
000396:                                                                                                  #  DOWNLINK
000397:
000398:                                                                                                  #        (1) TCDH     TIME OF THE CDH MANEUVER
000399:                                                                                                  #        (2) TTPI     TIME OF THE TPI MANEUVER
000400:                                                                                                  #        (3) TIG      TIME OF THE CDH MANEUVER
000401:                                                                                                  #        (4) DELVEET2 DELTA VELOCITY AT CDH - REFERENCE COORDINATES
000402:                                                                                                  #        (5) DIFFALT  DELTA ALTITUDE AT CDH
000403:                                                                                                  #        (6) ELEV     DESIRED LOS ANGLE AT TPI
000404:                                                                                                  #  COMMUNICATION TO THRUSTING PROGRAMS
000405:
000406:                                                                                                  #        (1) TIG      TIME OF THE CDH MANEUVER
000407:                                                                                                  #        (2) RTIG     POSITION OF ACTIVE VEHICLE AT CDH - BEFORE ROTATION
000408:                                                                                                  #                     INTO PLANE OF PASSIVE VEHICLE
000409:                                                                                                  #        (3) VTIG     VELOCITY OF ACTIVE VEHICLE AT CDH - BEFORE ROTATION
000410:                                                                                                  #                     INTO PLANE OF PASSIVE VEHICLE
000411:                                                                                                  #        (4) DELVSIN  DELTA VELOCITY AT CDH - REFERENCE COORDINATES
000412:                                                                                                  #        (5) DELVSAB  MAGNITUDE OF DELTA VELOCITY AT CDH
000413:                                                                                                  #        (6) XDELVFLG SET TO INDICATE EXTERNAL DELTA V VG COMPUTATION
000414:
000415:                                                                                                  #  SUBROUTINES USED
000416:
000417:                                                                                                  #        AVFLAGA
000418:                                                                                                  #        AVFLAGP
000419:                                                                                                  #        P20FLGON
000420:                                                                                                  #        VNPOOH
000421:                                                                                                  #        SELECTMU
000422:                                                                                                  #        ADVANCE
000423:                                                                                                  #        CDHMVR
000424:                                                                                                  #        INTINT3P
000425:                                                                                                  #        ACTIVE
000426:                                                                                                  #        PASSIVE
000427:                                                                                                  #        S33/34.1
000428:                                                                                                  #        ALARM
000429:                                                                                                  #        BANKCALL
000430:                                                                                                  #        GOFLASH
000431:                                                                                                  #        GOTOPOOH
000432:                                                                                                  #        S32/33.1
000433:                                                                                                  #        VN1645
000434:
000435: 35,2255                                           COUNT*   $$/P3373
000436: 35,2255           02405        P33                TC       AVFLAGA
000437: 35,2256           02260                           TC       P33/P73A
000438: 35,2257           02412        P73                TC       AVFLAGP
000439: 35,2260           32444        P33/P73A           CAF      V06N31                                #  TCDH
000440: 35,2261           03611                           TC       VNPOOH
000441: 35,2262           06014                           TC       INTPRET
000442: 35,2263           77745                           DLOAD
000443: 35,2264           03625                                    TTPI0
000444: 35,2265           17623                           STODL    TTPI
000445: 35,2266           03371                                    TCDH
000446: 35,2267           37425                           STCALL   TIG
000447: 35,2270           20045                                    SELECTMU
000448: 35,2271           77624        P33/P73B           CALL
000449: 35,2272           71001                                    ADVANCE
000450: 35,2273           77624                           CALL
000451: 35,2274           71116                                    CDHMVR
000452: 35,2275           77201                           SETPD    VLOAD
000453: 35,2276           00001                                    0D
000454: 35,2277           03531                                    VACT3
000455: 35,2300           45115                           PDVL     CALL
000456: 35,2301           02325                                    RACT2
000457: 35,2302           71054                                    INTINT3P
000458: 35,2303           77624                           CALL
000459: 35,2304           46172                                    ACTIVE
000460: 35,2305           77201                           SETPD    VLOAD
000461: 35,2306           00001                                    0D
000462: 35,2307           03515                                    VPASS2
000463: 35,2310           45115                           PDVL     CALL
000464: 35,2311           03507                                    RPASS2
000465: 35,2312           71054                                    INTINT3P
000466: 35,2313           77624                           CALL
000467: 35,2314           46202                                    PASSIVE
000468: 35,2315           43145                           DLOAD    SET
000469: 35,2316           32453                                    P30ZERO
000470: 35,2317           03460                                    ITSWICH
000471: 35,2320           36335                           STCALL   NOMTPI
000472: 35,2321           72716                                    S33/34.1
000473: 35,2322           77454                           BZE      EXIT
000474: 35,2323           72340                                    P33/P73C
000475: 35,2324           05651                           TC       ALARM
000476: 35,2325           00611                           OCT      611
000477: 35,2326           35056                           CAF      V05N09
000478: 35,2327           04655                           TC       BANKCALL
000479: 35,2330           20406                           CADR     GOFLASH
000480: 35,2331           04106                           TC       GOTOPOOH
000481: 35,2332           02334                           TC       +2
000482: 35,2333           02260                           TC       P33/P73A
000483: 35,2334           06014                           TC       INTPRET
000484: 35,2335           77745                           DLOAD
000485: 35,2336           32453                                    P30ZERO
000486: 35,2337           02335                           STORE    NOMTPI
000487: 35,2340           43014        P33/P73C           BON      SET
000488: 35,2341           01311                                    FINALFLG
000489: 35,2342           72344                                    P33/P73D
000490: 35,2343           00470                                    UPDATFLG
000491: 35,2344           43345        P33/P73D           DLOAD    DAD
000492: 35,2345           02335                                    NOMTPI
000493: 35,2346           03623                                    TTPI
000494: 35,2347           03623                           STORE    TTPI
000495: 35,2350           77625                           DSU
000496: 35,2351           03371                                    TCDH
000497: 35,2352           51025        P33/P73E           DSU      BPL
000498: 35,2353           32455                                    60MIN
000499: 35,2354           72352                                    P33/P73E
000500: 35,2355           77615                           DAD
000501: 35,2356           32455                                    60MIN
000502: 35,2357           16261                           STODL    T1TOT2
000503: 35,2360           03623                                    TTPI
000504: 35,2361           41425                           DSU      PUSH
000505: 35,2362           03625                                    TTPI0
000506: 35,2363           45246        P33/P73F           ABS      DSU
000507: 35,2364           32455                                    60MIN
000508: 35,2365           43244                           BPL      DAD
000509: 35,2366           72363                                    P33/P73F
000510: 35,2367           32455                                    60MIN
000511: 35,2370           45565                           SIGN     STADR
000512: 35,2371           75514                           STORE    T2TOT3
000513: 35,2372           77776                           EXIT
000514: 35,2373           32445                           CAF      V06N50
000515: 35,2374           03611                           TC       VNPOOH
000516: 35,2375           06014                           TC       INTPRET
000517: 35,2376           45175                           VLOAD    CALL
000518: 35,2377           02311                                    DELVEET2
000519: 35,2400           71063                                    S32/33.1
000520: 35,2401           36311                           STCALL   DELVEET2
000521: 35,2402           73502                                    VN1645
000522: 35,2403           77650                           GOTO
000523: 35,2404           72271                                    P33/P73B
000524:
000525:                                                                                                  #  ..... AVFLAGA/P .....
000526:
000527:                                                                                                  #  SUBROUTINES USED
000528:
000529:                                                                                                  #           UPFLAG
000530:                                                                                                  #           DOWNFLAG
000531:
000532: 35,2405           00006        AVFLAGA            EXTEND                                         #  AVFLAG = LEM
000533: 35,2406           23455                           QXCH     SUBEXIT
000534: 35,2407           05566                           TC       UPFLAG
000535: 35,2410           00050                           ADRES    AVFLAG
000536: 35,2411           02416                           TC       P20FLGON
000537: 35,2412           00006        AVFLAGP            EXTEND                                         #  AVFLAG = CSM
000538: 35,2413           23455                           QXCH     SUBEXIT
000539: 35,2414           05600                           TC       DOWNFLAG
000540: 35,2415           00050                           ADRES    AVFLAG
000541: 35,2416           05566        P20FLGON           TC       UPFLAG
000542: 35,2417           00027                           ADRES    UPDATFLG                              #  SET UPDATFLG
000543: 35,2420           05566                           TC       UPFLAG
000544: 35,2421           00031                           ADRES    TRACKFLG                              #  SET TRACKFLG
000545: 35,2422           01455                           TC       SUBEXIT
000546:
000547:                                                                                                  #  ..... DISDVLVC .....
000548:
000549:                                                                                                  #  SUBROUTINES USED
000550:
000551:                                                                                                  #        S32/33.X
000552:                                                                                                  #         VNPOOH
000553:
000554: 35,2423           02267        DISDVLVC           STORE    DELVLVC
000555: 35,2424           45020                           STQ      CALL
000556: 35,2425           03450                                    NORMEX
000557: 35,2426           71103                                    S32/33.X
000558: 35,2427           64375                           VLOAD    MXV
000559: 35,2430           02267                                    DELVLVC
000560: 35,2431           00001                                    0D
000561: 35,2432           66172                           VSL1     SXA,1
000562: 35,2433           03602                                    VERBNOUN
000563: 35,2434           02267                           STORE    DELVLVC
000564: 35,2435           77776                           EXIT
000565: 35,2436           31602                           CA       VERBNOUN
000566: 35,2437           03611                           TC       VNPOOH
000567: 35,2440           06014                           TC       INTPRET
000568: 35,2441           77650                           GOTO
000569: 35,2442           03450                                    NORMEX
000570:
000571:                                                                                                  #  ..... CONSTANTS .....
000572:
000573: 35,2443           01436        V06N30             VN       0630
000574: 35,2444           01437        V06N31             VN       0631
000575: 35,2445           01462        V06N50             VN       0650
000576: 35,2446           77776 62460  SN359+             2DEC     -.000086601
000577:
000578: 35,2450           17777 37776  CS359+             2DEC     +.499999992
000579:
000580: 35,2452           00000 00000  P30ZERO            2DEC     0          B-28
000581:
000582: 35,2454           00025 37100  60MIN              2DEC     360000     B-28
000583:
000584: 35,2456           00600        ALARM/TB           OCT      00600                                 #  NO 1
000585: 35,2457           00601                           OCT      00601                                 #     2
000586: 35,2460           00602                           OCT      00602                                 #     3
000587: 35,2461           00603                           OCT      00603                                 #     4
000588: 35,2462           00604                           OCT      00604                                 #     5
000589: 35,2463           00605                           OCT      00605                                 #     6
000590: 35,2464           00606                           OCT      00606                                 #     7
000591:
000592:                                                                                                  #  ..... CSI/A     .....
000593:
000594:                                                                                                  #  SUBROUTINES USED
000595:
000596:                                                                                                  #        VECSHIFT
000597:                                                                                                  #        TIMETHET
000598:                                                                                                  #        PERIAPO
000599:                                                                                                  #        SHIFTR1
000600:                                                                                                  #        INTINT2C
000601:                                                                                                  #        CDHMVR
000602:                                                                                                  #        PERIAPO1
000603:                                                                                                  #        INTINT
000604:                                                                                                  #        ACTIVE
000605:
000606: 34,2043                                           BANK     34
000607: 34,2000                                           SETLOC   CSI/CDH1
000608: 34,2000                                           BANK
000609: 34,2043  E7,1455                                  EBANK=   SUBEXIT
000610: 34,2043                                           COUNT*   $$/CSI
000611: 34,2043           00000 00020  LOOPMX             2DEC     16         B-28
000612:
000613: 34,2045           00003 34661  INITST             2DEC     .03048     B-7                        #       INITIAL DELDV = 10 FPS
000614:
000615: 34,2047           00606 04467  DVMAX1             2DEC     3.0480     B-7                        #       MAXIMUM DV1 = 1000 FPS
000616:
000617: 34,2051           00601 33216  DVMAX2             2DEC     3.014472   B-7                        #                      989 FPS
000618:
000619: 34,2053           10000 00000  1DPB2              2DEC     1.0        B-2
000620:
000621: 34,2055           00000 00001  1DPB28             2DEC     1          B-28
000622:
000623: 34,2057           00004 31651  PMINE              2DEC     157521     B-29                       #  85 NM    - MUST BE 8 WORDS BEFORE PMINM
000624:
000625: 34,2061           00000 01177  EPSILN1            2DEC     .0003048   B-7                        #       .1 FPS
000626:
000627: 34,2063           00000 00500  NICKELDP           2DEC     .0001524   B-7                        #  .05 FPS
000628:
000629: 34,2065           77754 57611  FIFPSDP            2DEC     -.152400   B-7                        #       50 FPS
000630:
000631: 34,2067           00000 12326  PMINM              2DEC     10668      B-29                       #  35000 FT - MUST BE 8 WORDS AFTER PMINE
000632:
000633: 34,2071           00116 00730  DELMAX1            2DEC     .6096000   B-7                        #       200 FPS
000634:
000635: 34,2073           00000 06433  ONETHTH            2DEC     .0001      B-3
000636:
000637: 34,2075           00003 25140  TMIN               2DEC     60000      B-28                       #  10 MIN
000638:
000639: 34,2077           43014        CSI/A              CLEAR    SET                                   #  INITIALIZE INDICATORS
000640: 34,2100           03260                                    S32.1F1                               #  DVT1 HAS EXCEEDED MAX INDICATOR
000641: 34,2101           03061                                    S32.1F2                               #  FIRST PASS FOR NEWTON ITERATION INDICATR
000642: 34,2102           43014                           CLEAR    SET
000643: 34,2103           03262                                    S32.1F3A                              #  00=1ST 2 PASSES 2ND CYCLE 01=FIRST CYCLE
000644: 34,2104           03063                                    S32.1F3B                              #  10=2ND CYCLE 11=50FPS STAGE 2ND CYCLE
000645: 34,2105           77745                           DLOAD
000646: 34,2106           32453                                    P30ZERO
000647: 34,2107           03575                           STORE    LOOPCT
000648: 34,2110           03601                           STORE    CSIALRM
000649: 34,2111           77201        CSI/B              SETPD    VLOAD
000650: 34,2112           00001                                    0D
000651: 34,2113           02317                                    RACT1
000652: 34,2114           41446                           ABVAL    PUSH                                  #  RA1                            B29 PL02D
000653: 34,2115           70501                           NORM     SR1
000654: 34,2116           00050                                    X2                                    #                          B29-N2+ B1 PL04D
000655: 34,2117           51515                           PDVL     ABVAL
000656: 34,2120           03537                                    RPASS3
000657: 34,2121           55301                           NORM     BDDV                                  #  RA1/RP3                         B1 PL02D
000658: 34,2122           00047                                    X1
000659: 34,2123           53664                           XSU,2    SR*                                   #                                  B2
000660: 34,2124           00046                                    X1
000661: 34,2125           57175                                    1,2
000662: 34,2126           41215                           DAD      DMP                                   #  (1+(RA1/RP3))RA1        B29+B2=B31 PL00D
000663: 34,2127           30054                                    1DPB2
000664: 34,2130           65301                           NORM     PDDL                                  #                                     PL02D
000665: 34,2131           00047                                    X1
000666: 34,2132           02337                                    RTMU
000667: 34,2133           56342                           SR1      DDV                                   #                         B38-B31= B7 PL00D
000668: 34,2134           75457                           SL*      SQRT                                  #                                  B7
000669: 34,2135           20172                                    0          -7,1
000670: 34,2136           53515                           PDVL     UNIT                                  #                                     PL02D
000671: 34,2137           02317                                    RACT1
000672: 34,2140           47315                           PDVL     VXV
000673: 34,2141           02275                                    UP1
000674: 34,2142           77656                           UNIT                                           #  UNIT(URP1 X UVP1 X URA1) = UH1
000675: 34,2143           72441                           DOT      SL1                                   #  VA1 . UH1                       B7
000676: 34,2144           03457                                    VACT1
000677: 34,2145           45421                           BDSU     STADR                                 #                                     PL00D
000678: 34,2146           60216                           STODL    DELVCSI
000679: 34,2147           30046                                    INITST                                #  10 FPS
000680: 34,2150           03565                           STORE    DELDV
000681: 34,2151           43345        CSI/B1             DLOAD    DAD                                   #  IF LOOPCT = 16
000682: 34,2152           03575                                    LOOPCT
000683: 34,2153           30056                                    1DPB28
000684: 34,2154           03575                           STORE    LOOPCT
000685: 34,2155           77025                           DSU      AXT,2
000686: 34,2156           30044                                    LOOPMX
000687: 34,2157           00006                                    6
000688: 34,2160           77644                           BPL
000689: 34,2161           70755                                    SCNDSOL
000690: 34,2162           77601        CSI/B2             SETPD
000691: 34,2163           00001                                    0D
000692: 34,2164           51545                           DLOAD    ABS
000693: 34,2165           03561                                    DELVCSI
000694: 34,2166           50025                           DSU      BMN
000695: 34,2167           30050                                    DVMAX1
000696: 34,2170           70210                                    CSI/B23
000697: 34,2171           43174                           AXT,2    BON
000698: 34,2172           00007                                    7
000699: 34,2173           03300                                    S32.1F1
000700: 34,2174           70755                                    SCNDSOL
000701: 34,2175           43014                           BOFF     BON
000702: 34,2176           03342                                    S32.1F3A
000703: 34,2177           70202                                    CSI/B22                               #  FLAG 3 NEQ 3
000704: 34,2200           03303                                    S32.1F3B
000705: 34,2201           70755                                    SCNDSOL
000706: 34,2202           71214        CSI/B22            SET      DLOAD
000707: 34,2203           03060                                    S32.1F1
000708: 34,2204           30052                                    DVMAX2
000709: 34,2205           77765                           SIGN
000710: 34,2206           03561                                    DELVCSI
000711: 34,2207           03561                           STORE    DELVCSI
000712: 34,2210           41575        CSI/B23            VLOAD    PUSH
000713: 34,2211           02317                                    RACT1
000714: 34,2212           63256                           UNIT     PDVL
000715: 34,2213           02275                                    UP1
000716: 34,2214           53435                           VXV      UNIT                                  #  UNIT(URP1 X UVP1 X URA1) = UH1
000717: 34,2215           76561                           VXSC     VSL1
000718: 34,2216           03561                                    DELVCSI
000719: 34,2217           02303                           STORE    DELVEET1
000720: 34,2220           40055                           VAD      BOV
000721: 34,2221           03457                                    VACT1
000722: 34,2222           70223                                    CSI/B23D
000723: 34,2223           37553        CSI/B23D           STCALL   VACT4
000724: 34,2224           46206                                    VECSHIFT
000725: 34,2225           26744                           STOVL    VVEC
000726: 34,2226           77614                           SET
000727: 34,2227           03466                                    RVSW
000728: 34,2230           26655                           STOVL    RVEC
000729: 34,2231           32447                                    SN359+
000730: 34,2232           36730                           STCALL   SNTH                                  #  ALSO CSTH
000731: 34,2233           24732                                    TIMETHET
000732: 34,2234           72142                           SR1      LXA,1
000733: 34,2235           02332                                    RTX1
000734: 34,2236           37573                           STCALL   HAFPA1
000735: 34,2237           46116                                    PERIAPO
000736: 34,2240           77624                           CALL
000737: 34,2241           46216                                    SHIFTR1
000738: 34,2242           17571                           STODL    POSTCSI
000739: 34,2243           02752                                    ECC
000740: 34,2244           50025                           DSU      BMN
000741: 34,2245           30074                                    ONETHTH
000742: 34,2246           70351                                    CIRCL
000743: 34,2247           45145                           DLOAD    CALL
000744: 34,2250           00041                                    R1
000745: 34,2251           46216                                    SHIFTR1
000746: 34,2252           60201                           SETPD    NORM
000747: 34,2253           00003                                    2D
000748: 34,2254           00047                                    X1
000749: 34,2255           50315                           PDVL     DOT                                   #                                     PL04D
000750: 34,2256           02317                                    RACT1
000751: 34,2257           03553                                    VACT4
000752: 34,2260           56246                           ABS      DDV
000753: 34,2261           00003                                    02D                                   #  (/RDOTV/)/R1           B36-B29= B7
000754: 34,2262           45257                           SL*      DSU
000755: 34,2263           20201                                    0,1
000756: 34,2264           30064                                    NICKELDP
000757: 34,2265           71240                           BMN      DLOAD
000758: 34,2266           70351                                    CIRCL
000759: 34,2267           02740                                    P
000760: 34,2270           45312                           SL2      DSU
000761: 34,2271           30054                                    1DPB2
000762: 34,2272           14017                           STODL    14D
000763: 34,2273           02335                                    RTSR1/MU
000764: 34,2274           56342                           SR1      DDV                                   #  (1/ROOTMU)/R1      B-16-B29 = B-45 PL02D
000765: 34,2275           41325                           PDDL     DMP
000766: 34,2276           02740                                    P
000767: 34,2277           00041                                    R1
000768: 34,2300           77624                           CALL
000769: 34,2301           46216                                    SHIFTR1
000770: 34,2302           72412                           SL4      SL1
000771: 34,2303           41366                           SQRT     DMP                                   #  ((P/MU)**.5)/R1    B14+B-45 = B-31 PL02D
000772: 34,2304           52414                           BOFF     SL3
000773: 34,2305           04343                                    CMOONFLG
000774: 34,2306           70307                                    CSI/B3
000775: 34,2307           50315        CSI/B3             PDVL     DOT
000776: 34,2310           02317                                    RACT1
000777: 34,2311           03553                                    VACT4
000778: 34,2312           03604                           STORE    RDOTV
000779: 34,2313           77646                           ABS
000780: 34,2314           41301                           NORM     DMP                                   #  ((P/MU)**.5)RDOTV/R1               PL02D
000781: 34,2315           00050                                    X2
000782: 34,2316           53660                           XSU,1    SL*                                   #                   B-31+B36-B3 = B2
000783: 34,2317           00047                                    X2
000784: 34,2320           20204                                    3,1
000785: 34,2321           14015                           STODL    12D
000786: 34,2322           32453                                    P30ZERO
000787: 34,2323           00021                           STORE    16D
000788: 34,2324           53575                           VLOAD    UNIT
000789: 34,2325           00015                                    12D
000790: 34,2326           26730                           STOVL    SNTH                                  #  ALSO STORES CSTH AND 0
000791: 34,2327           02317                                    RACT1
000792: 34,2330           75315                           PDVL     SIGN
000793: 34,2331           03553                                    VACT4
000794: 34,2332           03604                                    RDOTV
000795: 34,2333           45076                           VCOMP    CALL
000796: 34,2334           46206                                    VECSHIFT
000797: 34,2335           26744                           STOVL    VVEC
000798: 34,2336           77614                           SET
000799: 34,2337           03466                                    RVSW
000800: 34,2340           36655                           STCALL   RVEC
000801: 34,2341           24732                                    TIMETHET
000802: 34,2342           51125                           PDDL     BPL
000803: 34,2343           03604                                    RDOTV
000804: 34,2344           70355                                    NTP/2
000805: 34,2345           45345                           DLOAD    DSU
000806: 34,2346           03573                                    HAFPA1
000807: 34,2347           52006                           PUSH     GOTO
000808: 34,2350           70355                                    NTP/2
000809: 34,2351           71201        CIRCL              SETPD    DLOAD
000810: 34,2352           00001                                    00D
000811: 34,2353           32453                                    P30ZERO
000812: 34,2354           77606                           PUSH
000813: 34,2355           41345        NTP/2              DLOAD    DMP
000814: 34,2356           03454                                    NN
000815: 34,2357           03573                                    HAFPA1
000816: 34,2360           45261                           SL       DSU
000817: 34,2361           20217                                    14D
000818: 34,2362           77615                           DAD
000819: 34,2363           03621                                    TCSI
000820: 34,2364           03371                           STORE    TCDH
000821: 34,2365           77021                           BDSU     AXT,2
000822: 34,2366           03623                                    TTPI
000823: 34,2367           00005                                    5D
000824: 34,2370           40240                           BMN      SETPD
000825: 34,2371           70755                                    SCNDSOL
000826: 34,2372           00001                                    0D
000827: 34,2373           63375                           VLOAD    PDVL
000828: 34,2374           03553                                    VACT4
000829: 34,2375           02317                                    RACT1
000830: 34,2376           77624                           CALL
000831: 34,2377           71045                                    INTINT2C
000832: 34,2400           26325                           STOVL    RACT2
000833: 34,2401           00007                                    VATT
000834: 34,2402           27501                           STOVL    VACT2
000835: 34,2403           03473                                    VPASS1
000836: 34,2404           63201                           SETPD    PDVL
000837: 34,2405           00001                                    0D
000838: 34,2406           03465                                    RPASS1
000839: 34,2407           77624                           CALL
000840: 34,2410           71045                                    INTINT2C
000841: 34,2411           27507                           STOVL    RPASS2
000842: 34,2412           00007                                    VATT
000843: 34,2413           37515                           STCALL   VPASS2
000844: 34,2414           71116                                    CDHMVR
000845: 34,2415           40375                           VLOAD    SETPD
000846: 34,2416           02325                                    RACT2
000847: 34,2417           00001                                    0D
000848: 34,2420           45115                           PDVL     CALL
000849: 34,2421           03531                                    VACT3
000850: 34,2422           46106                                    PERIAPO1
000851: 34,2423           77624                           CALL
000852: 34,2424           46216                                    SHIFTR1
000853: 34,2425           27573                           STOVL    POSTCDH
000854: 34,2426           03531                                    VACT3
000855: 34,2427           63201                           SETPD    PDVL
000856: 34,2430           00001                                    0D
000857: 34,2431           02325                                    RACT2
000858: 34,2432           65325                           PDDL     PDDL
000859: 34,2433           03371                                    TCDH
000860: 34,2434           03623                                    TTPI
000861: 34,2435           41525                           PDDL     PUSH
000862: 34,2436           33631                                    TWOPI
000863: 34,2437           77624                           CALL
000864: 34,2440           73403                                    INTINT
000865: 34,2441           77624                           CALL
000866: 34,2442           46172                                    ACTIVE
000867: 34,2443           77745                           DLOAD
000868: 34,2444           02265                                    ELEV
000869: 34,2445           73401                           SETPD    SINE
000870: 34,2446           00007                                    6D
000871: 34,2447           53515                           PDVL     UNIT
000872: 34,2450           03523                                    RACT3
000873: 34,2451           00001                           STORE    00D                                   #  URA3 AT 00D
000874: 34,2452           47315                           PDVL     VXV                                   #  PL14D,PL08D
000875: 34,2453           02275                                    UP1
000876: 34,2454           77656                           UNIT
000877: 34,2455           71525                           PDDL     COSINE                                #  UNIT(URA3XUVA3XURA3) = UH3      B1 PL14D
000878: 34,2456           02265                                    ELEV
000879: 34,2457           45561                           VXSC     STADR                                 #  (COSLOS)(UH3)                   B2 PL08D
000880: 34,2460           77754                           STORE    18D                                   #      PLUS
000881: 34,2461           74345                           DLOAD    VXSC                                  #  (SINLOS)(URA3) = U              B2 PL00D
000882: 34,2462           76455                           VAD      VSL1
000883: 34,2463           00023                                    18D                                   #                                  B1
000884: 34,2464           50206                           PUSH     DOT                                   #                                     PL06D
000885: 34,2465           03523                                    RACT3                                 #  (U . RA3) = TEMP1      B1 +B29=B30
000886: 34,2466           41552                           SL1      PUSH                                  #                                 B29 PL08D
000887: 34,2467           72316                           DSQ      TLOAD                                 #  TEMP1**2                       B58
000888: 34,2470           00155                                    MPAC
000889: 34,2471           50315                           PDVL     DOT                                   #                                     PL11D
000890: 34,2472           03523                                    RACT3
000891: 34,2473           03523                                    RACT3
000892: 34,2474           57551                           TLOAD    DCOMP                                 #  RA3.RA3
000893: 34,2475           00155                                    MPAC
000894: 34,2476           50315                           PDVL     DOT                                   #  RP3.RP3                        B58 PL14D
000895: 34,2477           03537                                    RPASS3
000896: 34,2500           03537                                    RPASS3                                #                                     PL11D
000897: 34,2501           76371                           TAD      TAD                                   #  TEMP1**2+RA3.RA3+RP3.RP3=TEMP2     PL08D
000898: 34,2502           71244                           BPL      DLOAD
000899: 34,2503           70521                                    K1ORK2
000900: 34,2504           03575                                    LOOPCT
000901: 34,2505           77025                           DSU      AXT,2
000902: 34,2506           30056                                    1DPB28
000903: 34,2507           00001                                    1D
000904: 34,2510           77654                           BZE
000905: 34,2511           72124                                    ALMXITA
000906: 34,2512           70545                           DLOAD    SR1
000907: 34,2513           03565                                    DELDV
000908: 34,2514           03565                           STORE    DELDV
000909: 34,2515           77621                           BDSU
000910: 34,2516           03563                                    DVPREV
000911: 34,2517           37561                           STCALL   DELVCSI
000912: 34,2520           70151                                    CSI/B1
000913: 34,2521           41566        K1ORK2             SQRT     PUSH                                  #  TEMP3 = TEMP2**.5              B29 PL10D
000914: 34,2522           45276                           DCOMP    DSU
000915: 34,2523           00007                                    06D                                   #  -TEMP1-TEMP3 =K2 AT 10D
000916: 34,2524           14013                           STODL    10D                                   #                                     PL08D
000917: 34,2525           45425                           DSU      STADR                                 #                                     PL06D
000918: 34,2526           77762                           STORE    12D                                   #  -TEMP1+TEMP3 =K1 AT 12D
000919: 34,2527           77646                           ABS
000920: 34,2530           14017                           STODL    14D
000921: 34,2531           00013                                    10D
000922: 34,2532           45246                           ABS      DSU
000923: 34,2533           00017                                    14D
000924: 34,2534           71240                           BMN      DLOAD
000925: 34,2535           70540                                    K2.
000926: 34,2536           00015                                    12D
000927: 34,2537           00013                           STORE    10D                                   #  K=K1
000928: 34,2540           77745        K2.                DLOAD
000929: 34,2541           00013                                    10D
000930: 34,2542           76561                           VXSC     VSL1
000931: 34,2543           53455                           VAD      UNIT                                  #  V=RA3+KU  UNIT                  B1
000932: 34,2544           03523                                    RACT3
000933: 34,2545           53515                           PDVL     UNIT
000934: 34,2546           03537                                    RPASS3                                #                                     PL06D
000935: 34,2547           53515                           PDVL     UNIT
000936: 34,2550           03545                                    VPASS3                                #                                     PL12D
000937: 34,2551           63235                           VXV      PDVL                                  #  UVP3 X URP3                        PL18D
000938: 34,2552           00007                                    06D
000939: 34,2553           00007                                    06D
000940: 34,2554           50235                           VXV      DOT
000941: 34,2555           00001                                    00D
000942: 34,2556           77626                           STADR                                          #                                     PL12D
000943: 34,2557           53762                           STOVL    12D                                   #  (URP3XV).(UVP3XURP3)=TEMP          PL06D
000944: 34,2560           72441                           DOT      SL1                                   #                                     PL00D
000945: 34,2561           75326                           ARCCOS   SIGN
000946: 34,2562           00015                                    12D                                   #                                  B0
000947: 34,2563           41542                           SR1      PUSH                                  #  GAMMA=SIGN(TEMP)ARCOS(UNITV.URP3)  PL02D
000948: 34,2564           71214                           BON      DLOAD
000949: 34,2565           03301                                    S32.1F2
000950: 34,2566           70623                                    FRSTPAS
000951: 34,2567           00001                                    00D                                   #  NOT THE FIRST PASS OF A CYCLE
000952: 34,2570           65225                           DSU      PDDL                                  #  GAMMA-GAMPREV                   B1 PL04D
000953: 34,2571           03577                                    GAMPREV
000954: 34,2572           03561                                    DELVCSI
000955: 34,2573           60225                           DSU      NORM                                  #                                  B7
000956: 34,2574           03563                                    DVPREV
000957: 34,2575           00047                                    X1
000958: 34,2576           65265                           BDDV     PDDL                                  #  (GAM-GAMPREV)/(DV-DVPREV)   B-6+N1 PL06D
000959: 34,2577           00003                                    02D                                   #          = SLOPE
000960: 34,2600           03561                                    DELVCSI
000961: 34,2601           03563                           STORE    DVPREV
000962: 34,2602           43014                           BOFF     BOFF
000963: 34,2603           03342                                    S32.1F3A
000964: 34,2604           70635                                    THRDCHK
000965: 34,2605           03343                                    S32.1F3B
000966: 34,2606           70635                                    THRDCHK
000967: 34,2607           41345                           DLOAD    DMP
000968: 34,2610           00003                                    02D
000969: 34,2611           03577                                    GAMPREV
000970: 34,2612           71244                           BPL      DLOAD
000971: 34,2613           70642                                    FIFTYFPS
000972: 34,2614           30046                                    INITST
000973: 34,2615           77765                           SIGN
000974: 34,2616           03565                                    DELDV
000975: 34,2617           03565                           STORE    DELDV
000976: 34,2620           43014                           SET      CLEAR
000977: 34,2621           03062                                    S32.1F3A
000978: 34,2622           03263                                    S32.1F3B
000979: 34,2623           77745        FRSTPAS            DLOAD
000980: 34,2624           00001                                    00D
000981: 34,2625           17577                           STODL    GAMPREV
000982: 34,2626           03561                                    DELVCSI
000983: 34,2627           03563                           STORE    DVPREV
000984: 34,2630           43025                           DSU      CLEAR
000985: 34,2631           03565                                    DELDV
000986: 34,2632           03261                                    S32.1F2
000987: 34,2633           37561                           STCALL   DELVCSI
000988: 34,2634           70151                                    CSI/B1
000989: 34,2635           43014        THRDCHK            BON      BON
000990: 34,2636           03302                                    S32.1F3A
000991: 34,2637           70661                                    NEWTN
000992: 34,2640           03303                                    S32.1F3B
000993: 34,2641           70661                                    NEWTN
000994: 34,2642           75345        FIFTYFPS           DLOAD    SIGN
000995: 34,2643           30066                                    FIFPSDP
000996: 34,2644           00005                                    04D
000997: 34,2645           77765                           SIGN
000998: 34,2646           03577                                    GAMPREV
000999: 34,2647           03565                           STORE    DELDV
001000: 34,2650           43276                           DCOMP    DAD
001001: 34,2651           03561                                    DELVCSI
001002: 34,2652           17561                           STODL    DELVCSI
001003: 34,2653           00001                                    00D
001004: 34,2654           43014                           SET      SET
001005: 34,2655           03063                                    S32.1F3B
001006: 34,2656           03062                                    S32.1F3A
001007: 34,2657           37577                           STCALL   GAMPREV
001008: 34,2660           70162                                    CSI/B2
001009: 34,2661           60345        NEWTN              DLOAD    NORM
001010: 34,2662           00005                                    04D
001011: 34,2663           00050                                    X2
001012: 34,2664           54065                           BDDV     XSU,1
001013: 34,2665           00001                                    00D
001014: 34,2666           00047                                    X2
001015: 34,2667           77657                           SR*
001016: 34,2670           20601                                    0,1
001017: 34,2671           17565                           STODL    DELDV
001018: 34,2672           00001                                    00D
001019: 34,2673           03577                           STORE    GAMPREV
001020: 34,2674           51545                           DLOAD    ABS
001021: 34,2675           03565                                    DELDV                                 #                                     PL08D
001022: 34,2676           45206                           PUSH     DSU
001023: 34,2677           30062                                    EPSILN1
001024: 34,2700           71240                           BMN      DLOAD
001025: 34,2701           70716                                    CSI/SOL
001026: 34,2702           50025                           DSU      BMN
001027: 34,2703           30072                                    DELMAX1
001028: 34,2704           70711                                    CSISTEP
001029: 34,2705           75345                           DLOAD    SIGN
001030: 34,2706           30072                                    DELMAX1
001031: 34,2707           03565                                    DELDV
001032: 34,2710           03565                           STORE    DELDV
001033: 34,2711           45345        CSISTEP            DLOAD    DSU
001034: 34,2712           03561                                    DELVCSI
001035: 34,2713           03565                                    DELDV
001036: 34,2714           37561                           STCALL   DELVCSI
001037: 34,2715           70151                                    CSI/B1
001038: 34,2716           77145        CSI/SOL            DLOAD    AXT,2
001039: 34,2717           03571                                    POSTCSI
001040: 34,2720           00002                                    2
001041: 34,2721           77750                           LXA,1
001042: 34,2722           02332                                    RTX1
001043: 34,2723           50023                           DSU*     BMN
001044: 34,2724           30056                                    PMINE      -2,1
001045: 34,2725           70755                                    SCNDSOL
001046: 34,2726           71374                           AXT,2    DLOAD
001047: 34,2727           00003                                    3
001048: 34,2730           03573                                    POSTCDH
001049: 34,2731           50023                           DSU*     BMN
001050: 34,2732           30056                                    PMINE      -2,1
001051: 34,2733           70755                                    SCNDSOL
001052: 34,2734           45345                           DLOAD    DSU
001053: 34,2735           03371                                    TCDH
001054: 34,2736           03621                                    TCSI
001055: 34,2737           02261                           STORE    T1TOT2
001056: 34,2740           45374                           AXT,2    DSU
001057: 34,2741           00004                                    4
001058: 34,2742           30076                                    TMIN
001059: 34,2743           77040                           BMN      AXT,2
001060: 34,2744           70755                                    SCNDSOL
001061: 34,2745           00005                                    5
001062: 34,2746           45345                           DLOAD    DSU
001063: 34,2747           03623                                    TTPI
001064: 34,2750           03371                                    TCDH
001065: 34,2751           02263                           STORE    T2TOT3
001066: 34,2752           51025                           DSU      BPL
001067: 34,2753           30076                                    TMIN
001068: 34,2754           70775                                    P10CHECK
001069: 34,2755           43014        SCNDSOL            BON      BOFF
001070: 34,2756           03302                                    S32.1F3A
001071: 34,2757           72126                                    ALMXIT
001072: 34,2760           03343                                    S32.1F3B
001073: 34,2761           72126                                    ALMXIT
001074: 34,2762           71334                           SXA,2    DLOAD
001075: 34,2763           03600                                    CSIALRM
001076: 34,2764           32453                                    P30ZERO
001077: 34,2765           43014                           CLEAR    SET
001078: 34,2766           03260                                    S32.1F1
001079: 34,2767           03061                                    S32.1F2
001080: 34,2770           43014                           CLEAR    CLEAR
001081: 34,2771           03262                                    S32.1F3A
001082: 34,2772           03263                                    S32.1F3B
001083: 34,2773           37575                           STCALL   LOOPCT
001084: 34,2774           70111                                    CSI/B
001085:
001086: 34,2775           52014        P10CHECK           BOFF     GOTO
001087: 34,2776           03346                                    LTCPFLG
001088: 34,2777           64271                                    P10ALARM
001089: 34,3000           72211                                    P32/P72C
001090:
001091:                                                                                                  #  ..... ADVANCE   .....
001092:
001093:                                                                                                  #  SUBROUTINES USED
001094:
001095:                                                                                                  #        PRECSET
001096:                                                                                                  #        ROTATE
001097:
001098: 34,3001           71220        ADVANCE            STQ      DLOAD
001099: 34,3002           03455                                    SUBEXIT
001100: 34,3003           03425                                    TIG
001101: 34,3004           34041                           STCALL   TDEC1
001102: 34,3005           46150                                    PRECSET
001103: 34,3006           77214                           SET      VLOAD
001104: 34,3007           01067                                    XDELVFLG
001105: 34,3010           03545                                    VPASS3
001106: 34,3011           03515                           STORE    VPASS2
001107: 34,3012           27473                           STOVL    VPASS1
001108: 34,3013           03537                                    RPASS3
001109: 34,3014           03507                           STORE    RPASS2
001110: 34,3015           03465                           STORE    RPASS1
001111: 34,3016           47256                           UNIT     VXV
001112: 34,3017           03473                                    VPASS1
001113: 34,3020           77656                           UNIT
001114: 34,3021           26275                           STOVL    UP1
001115: 34,3022           03523                                    RACT3
001116: 34,3023           37627                           STCALL   RTIG
001117: 34,3024           71035                                    ROTATE
001118: 34,3025           02325                           STORE    RACT2
001119: 34,3026           26317                           STOVL    RACT1
001120: 34,3027           03531                                    VACT3
001121: 34,3030           37635                           STCALL   VTIG
001122: 34,3031           71035                                    ROTATE
001123: 34,3032           03501                           STORE    VACT2
001124: 34,3033           37457                           STCALL   VACT1
001125: 34,3034           03455                                    SUBEXIT
001126:
001127:                                                                                                  #  ..... ROTATE    .....
001128:
001129: 34,3035           41406        ROTATE             PUSH     PUSH
001130: 34,3036           74241                           DOT      VXSC
001131: 34,3037           02275                                    UP1
001132: 34,3040           02275                                    UP1
001133: 34,3041           51352                           VSL2     BVSU
001134: 34,3042           63256                           UNIT     PDVL
001135: 34,3043           74246                           ABVAL    VXSC
001136: 34,3044           43572                           VSL1     RVQ
001137:
001138:                                                                                                  #  ..... INTINTNA  .....
001139:
001140: 34,3045           65325        INTINT2C           PDDL     PDDL
001141: 34,3046           03621                                    TCSI
001142: 34,3047           03371                                    TCDH
001143: 34,3050           41525                           PDDL     PUSH
001144: 34,3051           33631                                    TWOPI
001145: 34,3052           77650                           GOTO
001146: 34,3053           73403                                    INTINT
001147: 34,3054           65325        INTINT3P           PDDL     PDDL
001148: 34,3055           03371                                    TCDH
001149: 34,3056           03623                                    TTPI
001150: 34,3057           41525                           PDDL     PUSH
001151: 34,3060           32453                                    P30ZERO
001152: 34,3061           77650                           GOTO
001153: 34,3062           73403                                    INTINT
001154:
001155:                                                                                                  #  ..... S32/33.1  .....
001156:
001157:                                                                                                  #  SUBROUTINES USED
001158:
001159:                                                                                                  #        S32/33.X
001160:
001161: 34,3063           76020        S32/33.1           STQ      AXT,1
001162: 34,3064           03455                                    SUBEXIT
001163: 34,3065           01521                           VN       0681
001164: 34,3066           77624                           CALL
001165: 34,3067           72423                                    DISDVLVC
001166: 34,3070           77624                           CALL
001167: 34,3071           71103                                    S32/33.X
001168: 34,3072           61375                           VLOAD    VXM
001169: 34,3073           02267                                    DELVLVC
001170: 34,3074           00001                                    0D
001171: 34,3075           77772                           VSL1
001172: 34,3076           03643                           STORE    DELVSIN
001173: 34,3077           51406                           PUSH     ABVAL
001174: 34,3100           27651                           STOVL    DELVSAB
001175: 34,3101           77650                           GOTO
001176: 34,3102           03455                                    SUBEXIT
001177:
001178:                                                                                                  #  ..... S32/33.X  .....
001179:
001180: 34,3103           77201        S32/33.X           SETPD    VLOAD
001181: 34,3104           00007                                    6D
001182: 34,3105           02275                                    UP1
001183: 34,3106           63276                           VCOMP    PDVL
001184: 34,3107           02317                                    RACT1
001185: 34,3110           57456                           UNIT     VCOMP
001186: 34,3111           47206                           PUSH     VXV
001187: 34,3112           02275                                    UP1
001188: 34,3113           77772                           VSL1
001189: 34,3114           00001                           STORE    0D
001190: 34,3115           77616                           RVQ
001191:
001192:                                                                                                  #  ..... CDHMVR    .....
001193:
001194:                                                                                                  #  SUBROUTINES USED
001195:
001196:                                                                                                  #        VECSHIFT
001197:                                                                                                  #        TIMETHET
001198:                                                                                                  #        SHIFTR1
001199:
001200: 34,3116           77220        CDHMVR             STQ      VLOAD
001201: 34,3117           03455                                    SUBEXIT
001202: 34,3120           02325                                    RACT2
001203: 34,3121           53406                           PUSH     UNIT
001204: 34,3122           27531                           STOVL    UNVEC                                 #  UR SUB A
001205: 34,3123           03507                                    RPASS2
001206: 34,3124           50256                           UNIT     DOT
001207: 34,3125           03531                                    UNVEC
001208: 34,3126           72406                           PUSH     SL1
001209: 34,3127           16732                           STODL    CSTH
001210: 34,3130           65316                           DSQ      PDDL
001211: 34,3131           06223                                    DP1/4TH
001212: 34,3132           45302                           SR2      DSU
001213: 34,3133           72566                           SQRT     SL1
001214: 34,3134           57515                           PDVL     VCOMP
001215: 34,3135           77635                           VXV
001216: 34,3136           03507                                    RPASS2
001217: 34,3137           65241                           DOT      PDDL
001218: 34,3140           02275                                    UP1
001219: 34,3141           45565                           SIGN     STADR
001220: 34,3142           51047                           STOVL    SNTH
001221: 34,3143           03507                                    RPASS2
001222: 34,3144           45115                           PDVL     CALL
001223: 34,3145           03515                                    VPASS2
001224: 34,3146           46206                                    VECSHIFT
001225: 34,3147           26744                           STOVL    VVEC
001226: 34,3150           77614                           CLEAR
001227: 34,3151           03666                                    RVSW
001228: 34,3152           36655                           STCALL   RVEC
001229: 34,3153           24732                                    TIMETHET
001230: 34,3154           53754                           LXA,2    VSL*
001231: 34,3155           02333                                    RTX2
001232: 34,3156           57576                                    0,2
001233: 34,3157           00023                           STORE    18D
001234: 34,3160           76441                           DOT      SL1R
001235: 34,3161           03531                                    UNVEC
001236: 34,3162           51515                           PDVL     ABVAL                                 #  0D = V SUB PV
001237: 34,3163           63257                           SL*      PDVL
001238: 34,3164           57576                                    0,2
001239: 34,3165           02325                                    RACT2
001240: 34,3166           65246                           ABVAL    PDDL                                  #  2D = LENGTH OF R SUB A
001241: 34,3167           77625                           DSU
001242: 34,3170           00003                                    02D
001243: 34,3171           17567                           STODL    DIFFALT                               #  DELTA H IN METERS          B+29
001244: 34,3172           02742                                    R1A
001245: 34,3173           65301                           NORM     PDDL                                  #  2 - R V**/MU                        04D
001246: 34,3174           00047                                    X1
001247: 34,3175           00041                                    R1
001248: 34,3176           77624                           CALL
001249: 34,3177           46216                                    SHIFTR1
001250: 34,3200           56362                           SR1R     DDV
001251: 34,3201           41457                           SL*      PUSH
001252: 34,3202           20174                                    0          -5,1
001253: 34,3203           65225                           DSU      PDDL                                  #  A SUB A                    B+29     04D
001254: 34,3204           03567                                    DIFFALT
001255: 34,3205           56302                           SR2      DDV                                   #  A SUB P                   B+31
001256: 34,3206           00005                                    04D                                   #                            B+2
001257: 34,3207           75406                           PUSH     SQRT                                  #     A SUB P/A SUB A          06D
001258: 34,3210           41275                           DMPR     DMP
001259: 34,3211           00007                                    06D
001260: 34,3212           00001                                    00D
001261: 34,3213           65272                           SL3R     PDDL                                  #  V SUB AV METERS/CS         B+7      08D
001262: 34,3214           00003                                    02D                                   #  R SUB A MAGNITUDE  B+29
001263: 34,3215           65301                           NORM     PDDL
001264: 34,3216           00047                                    X1
001265: 34,3217           02337                                    RTMU
001266: 34,3220           56342                           SR1      DDV                                   #  2MU  B+38
001267: 34,3221           65257                           SL*      PDDL                                  #     2 MU/R SUBAA    B+14     10D
001268: 34,3222           20174                                    0          -5,1
001269: 34,3223           00005                                    04D                                   #  ASUBA                     B+29
001270: 34,3224           65301                           NORM     PDDL
001271: 34,3225           00050                                    X2
001272: 34,3226           02337                                    RTMU
001273: 34,3227           56342                           SR1      DDV
001274: 34,3230           44257                           SL*      BDSU
001275: 34,3231           57604                                    0          -6,2                       #  2U/R - U/A   B+14 (METERS/CS)SQ
001276: 34,3232           63525                           PDDL     DSQ                                   #                                     10D
001277: 34,3233           00011                                    08D
001278: 34,3234           75421                           BDSU     SQRT
001279: 34,3235           47315                           PDVL     VXV                                   #  SQRT(MU(2/R SUB A-1/A SUB A)-VSUBA2)10D
001280: 34,3236           02275                                    UP1
001281: 34,3237           03531                                    UNVEC
001282: 34,3240           74256                           UNIT     VXSC
001283: 34,3241           00013                                    10D
001284: 34,3242           74315                           PDVL     VXSC
001285: 34,3243           03531                                    UNVEC
001286: 34,3244           00011                                    08D
001287: 34,3245           76455                           VAD      VSL1
001288: 34,3246           77626                           STADR
001289: 34,3247           74246                           STORE    VACT3
001290: 34,3250           77651                           VSU
001291: 34,3251           03501                                    VACT2
001292: 34,3252           36311                           STCALL   DELVEET2                              #  DELTA VCDH - REFERENCE COORDINATES
001293: 34,3253           03455                                    SUBEXIT
001294:
001295:                                                                                                  #  ..... COMPTGO   .....
001296:
001297:                                                                                                  #  SUBROUTINES USED
001298:
001299:                                                                                                  #        CLOKTASK
001300:                                                                                                  #        2PHSCHNG
001301:
001302: 35,2465                                           BANK     35
001303: 35,2000                                           SETLOC   CSI/CDH
001304: 35,2000                                           BANK
001305:
001306: 35,2465  E7,1452                                  EBANK=   RTRN
001307:
001308: 35,2465                                           COUNT*   $$/P3575
001309:
001310: 35,2465           00006        COMPTGO            EXTEND
001311: 35,2466           23452                           QXCH     RTRN
001312: 35,2467           35030                           CAF      ZERO
001313: 35,2470           55175                           TS       DISPDEX
001314: 35,2471           35025                           CAF      BIT2
001315: 35,2472           00004                           INHINT
001316: 35,2473           05252                           TC       WAITLIST
001317: 35,2474  E7,1430                                  EBANK=   WHICH
001318: 35,2474           02707 74067                     2CADR    CLOKTASK
001319:
001320: 35,2476           05403                           TC       2PHSCHNG
001321: 35,2477           40036                           OCT      40036
001322: 35,2500           05024                           OCT      05024
001323: 35,2501           13000                           OCT      13000
001324: 35,2502           01452                           TC       RTRN

End of include-file P32-P35,_P72-P75.agc.  Parent file is MAIN.agc


