
Source Code


000002:                                                                                                  ## Copyright:   Public domain.
000003:                                                                                                  ## Filename:    P34-P35,_P74-P75.agc
000004:                                                                                                  ## Purpose:     A section of an attempt to reconstruct Sundance revision 306
000005:                                                                                                  ##              as closely as possible with available information. Sundance
000006:                                                                                                  ##              306 is the source code for the Lunar Module's (LM) Apollo
000007:                                                                                                  ##              Guidance Computer (AGC) for Apollo 9. This program was created
000008:                                                                                                  ##              using the mixed-revision SundanceXXX as a starting point, and
000009:                                                                                                  ##              pulling back features from Luminary 69 believed to have been
000010:                                                                                                  ##              added based on memos, checklists, observed address changes,
000011:                                                                                                  ##              or the Sundance GSOPs.
000012:                                                                                                  ## Assembler:   yaYUL
000013:                                                                                                  ## Contact:     Ron Burkey <info@sandroid.org>.
000014:                                                                                                  ## Website:     www.ibiblio.org/apollo/index.html
000015:                                                                                                  ## Mod history: 2020-07-24 MAS  Created from SundanceXXX.
000016:                                                                                                  ##              2020-07-29 MAS  Doubled some units in R36, and added a call
000017:                                                                                                  ##                              to SETXDSP to it. Also changed the P35/P75
000018:                                                                                                  ##                              leadin to match Luminary 69, and added CENTANG
000019:                                                                                                  ##                              initialization to P34/P74.
000020:
000021:
000022:
000023:                                                                                                  #  TRANSFER PHASE INITIATION (TPI) PROGRAMS (P34 AND P74)
000024:
000025:                                                                                                  #  MOD NO -1                     LOG SECTION - P32-P35, P72-P75
000026:                                                                                                  #  MOD BY WHITE.P                DATE  1JUNE67
000027:
000028:                                                                                                  #  PURPOSE
000029:
000030:                                                                                                  #        (1)     TO CALCULATE THE REQUIRED DELTA V AND OTHER INITIAL CONDITIONS
000031:                                                                                                  #                REQUIRED BY THE ACTIVE VEHICLE FOR EXECUTION OF THE TRANSFER
000032:                                                                                                  #                PHASE INITIATION (TPI) MANEUVER, GIVEN -
000033:
000034:                                                                                                  #                (A)     TIME OF IGNITION TIG (TPI) OR THE ELEVATION ANGLE (E) OF
000035:                                                                                                  #                        THE ACTIVE/PASSIVE VEHICLE LOS AT TIG (TPI).
000036:
000037:                                                                                                  #                (B)     CENTRAL ANGLE OF TRANSFER (CENTANG) FROM TIG (TPI) TO
000038:                                                                                                  #                        INTERCEPT TIME (TIG (TPF)).
000039:
000040:                                                                                                  #        (2)     TO CALCULATE TIG (TPI) GIVEN E OR E GIVEN TIG (TPI).
000041:
000042:                                                                                                  #        (3)     TO CALCULATE THESE PARAMETERS BASED UPON MANEUVER DATA
000043:                                                                                                  #                APPROVED AND KEYED INTO THE DSKY BY THE ASTRONAUT.
000044:
000045:                                                                                                  #        (4)     TO DISPLAY TO THE ASTRONAUT AND THE GROUND CERTAIN DEPENDENT
000046:                                                                                                  #                VARIABLES ASSOCIATED WITH THE MANEUVER FOR APPROVAL BY THE
000047:                                                                                                  #                ASTRONAUT/GROUND.
000048:
000049:                                                                                                  #        (5)     TO STORE THE TPI TARGET PARAMETERS FOR USE BY THE DESIRED
000050:                                                                                                  #                THRUSTING PROGRAM.
000051:
000052:                                                                                                  #  ASSUMPTIONS
000053:
000054:                                                                                                  #        (1)     LM ONLY - THIS PROGRAM IS BASED UPON PREVIOUS COMPLETION OF
000055:                                                                                                  #                THE CONSTANT DELTA ALTITUDE (CDH) PROGRAM (P33/P73).
000056:                                                                                                  #                THEREFORE -
000057:
000058:                                                                                                  #                (A)     AT A SELECTED TPI TIME (NOW IN STORAGE) THE LINE OF SIGHT
000059:                                                                                                  #                        BETWEEN THE ACTIVE AND PASSIVE VEHICLES WAS SELECTED TO BE
000060:                                                                                                  #                        A PRESCRIBED ANGLE (E) (NOW IN STORAGE) FROM THE
000061:                                                                                                  #                        HORIZONTAL PLANE DEFINED BY THE ACTIVE VEHICLE POSITION.
000062:
000063:                                                                                                  #                (B)     THE TIME BETWEEN CDH IGNITION AND TPI IGNITION WAS
000064:                                                                                                  #                        COMPUTED TO BE GREATER THAN 10 MINUTES.
000065:
000066:                                                                                                  #                (C)     THE VARIATION OF THE ALTITUDE DIFFERENCE BETWEEN THE
000067:                                                                                                  #                        ORBITS WAS MINIMIZED.
000068:
000069:                                                                                                  #                (D)     THE PERICENTER ALTITUDES OF ORBITS FOLLOWING CSI AND
000070:                                                                                                  #                        CDH WERE COMPUTED TO BE GREATER THAN 35,000 FT FOR LUNAR
000071:                                                                                                  #                        ORBIT OR 85 NM FOR EARTH ORBIT.
000072:
000073:                                                                                                  #                (E)     THE CSI AND CDH MANEUVERS WERE ASSUMED TO BE PARALLEL TO
000074:                                                                                                  #                        THE PLANE OF THE PASSIVE VEHICLE ORBIT.  HOWEVER, CREW
000075:                                                                                                  #                        MODIFICATION OF DELTA V (LV) COMPONENTS MAY HAVE RESULTED
000076:                                                                                                  #                        IN AN OUT-OF-PLANE MANEUVER.
000077:
000078:                                                                                                  #        (2)     STATE VECTOR UPDATED BY P27 ARE DISALLOWED DURING AUTOMATIC
000079:                                                                                                  #                STATE VECTOR UPDATING INITIATED BY P20 (SEE ASSUMPTION (4)).
000080:
000081:                                                                                                  #        (3)     THIS PROGRAM MUST BE DONE OVER A TRACKING STATION FOR REAL
000082:                                                                                                  #                TIME GROUND PARTICIPATION IN DATA INPUT AND OUTPUT.  COMPUTED
000083:                                                                                                  #                VARIABLES MAY BE STORED FOR LATER VERIFICATION BY THE GROUND.
000084:                                                                                                  #                THESE STORAGE CAPABILITIES ARE LIMITED ONLY TO THE PARAMETERS
000085:                                                                                                  #                FOR ONE THRUSTING MANEUVER AT A TIME EXCEPT FOR CONCENTRIC
000086:                                                                                                  #                FLIGHT PLAN MANEUVER SEQUENCES.
000087:
000088:                                                                                                  #        (4)     THE RENDEZVOUS RADAR MAY OR MAY NOT BE USED TO UPDATE THE LM
000089:                                                                                                  #                OR CSM STATE VECTORS FOR THIS PROGRAM.  IF RADAR USE IS
000090:                                                                                                  #                DESIRED THE RADAR WAS TURNED ON AND LOCKED ON THE CSM BY
000091:                                                                                                  #                PREVIOUS SELECTION OF P20.  RADAR SIGHTING MARKS WILL BE MADE
000092:                                                                                                  #                AUTOMATICALLY APPROXIMATELY ONCE A MINUTE WHEN ENABLED BY THE
000093:                                                                                                  #                TRACK AND UPDATE FLAGS (SEE P20).  THE RENDEZVOUS TRACKING
000094:                                                                                                  #                MARK COUNTER IS ZEROED BY THE SELECTION OF P20 AND AFTER EACH
000095:                                                                                                  #                THRUSTING MANEUVER.
000096:
000097:                                                                                                  #        (5)     THE ISS NEED NOT BE ON TO COMPLETE THIS PROGRAM.
000098:
000099:                                                                                                  #        (6)     THE OPERATION OF THE PROGRAM UTILIZES THE FOLLOWING FLAGS -
000100:
000101:                                                                                                  #                        ACTIVE VEHICLE FLAG - DESIGNATES THE VEHICLE WHICH IS
000102:                                                                                                  #                        DOING RENDEZVOUS THRUSTING MANEUVERS TO THE PROGRAM WHICH
000103:                                                                                                  #                        CALCULATES THE MANEUVER PARAMETERS.  SET AT THE START OF
000104:                                                                                                  #                        EACH RENDEZVOUS PRE-THRUSTING PROGRAM.
000105:
000106:                                                                                                  #                        FINAL FLAG - SELECTS FINAL PROGRAM DISPLAYS AFTER CREW HAS
000107:                                                                                                  #                        SELECTED THE FINAL MANEUVER COMPUTATION CYCLE.
000108:
000109:                                                                                                  #                        EXTERNAL DELTA V FLAG - DESIGNATES THE TYPE OF STEERING
000110:                                                                                                  #                        REQUIRED FOR EXECUTION OF THIS MANEUVER BY THE THRUSTING
000111:                                                                                                  #                        PROGRAM SELECTED AFTER COMPLETION OF THIS PROGRAM.
000112:
000113:                                                                                                  #        (7)     ONCE THE PARAMETWRS REQUIRED FOR COMPUTION OF THE MANEUVER
000114:                                                                                                  #                HAVE BEEN COMPLETELY SPECIFIED, THE VALUE OF THE ACTIVE
000115:                                                                                                  #                VEHICLE CENTRAL ANGLE OF TRANSFER IS COMPUTED AND STORED.
000116:                                                                                                  #                THIS NUMBER WILL BE AVAILABLE FOR DISPLAY TO THE ASTRONAUT
000117:                                                                                                  #                THROUGH THE USE OF V06N52.
000118:
000119:                                                                                                  #                THE ASTRONAUT WILL CALL THIS DISPLAY TO VERIFY THAT THE
000120:                                                                                                  #                CENTRAL ANGLE OF TRANSFER OF THE ACTIVE VEHICLE IS NOT WITHIN
000121:                                                                                                  #                170 TO 190 DEGREES.  IF THE ANGLE IS WITHIN THIS ZONE THE
000122:                                                                                                  #                ASTRONAUT SHOULD REASSESS THE INPUT TARGETING PARAMETERS BASED
000123:                                                                                                  #                UPON DELTA V AND EXPECTED MANEUVER TIME.
000124:
000125:                                                                                                  #        (8)     THIS PROGRAM IS SELECTED BY THE ASTRONAUT BY DSKY ENTRY -
000126:
000127:                                                                                                  #                        P34 IF THIS VEHICLE IS ACTIVE VEHICLE.
000128:
000129:                                                                                                  #                        P74 IF THIS VEHICLE IS PASSIVE VEHICLE.
000130:
000131:                                                                                                  #  INPUT
000132:
000133:                                                                                                  #        (1)     TTPI    TIME OF THE TPI MANEUVER
000134:                                                                                                  #        (2)     ELEV    DESIRED LOS ANGLE AT TPI
000135:                                                                                                  #        (3)     CENTANG ORBITAL CENTRAL ANGLE OF THE PASSIVE VEHICLE DURING
000136:                                                                                                  #                        TRANSFER FROM TPI TO TIME OF INTERCEPT
000137:
000138:                                                                                                  #  OUTPUT
000139:
000140:                                                                                                  #        (1)     TRKMKCNT        NUMBER OF MARKS
000141:                                                                                                  #        (2)     TTOGO           TIME TO GO
000142:                                                                                                  #        (3)     +MGA            MIDDLE GIMBAL ANGLE
000143:                                                                                                  #        (4)     TTPI            COMPUTED TIME OF TPI MANEUVER
000144:                                                                                                  #                 OR
000145:                                                                                                  #                ELEV            COMPUTED LOS ANGLE AT TPI
000146:                                                                                                  #        (5)     POSTTPI         PERIGEE ALTITUDE AFTER THE TPI MANEUVER
000147:                                                                                                  #        (6)     DELVTPI         MAGNITUDE OF DELTA V AT TPI
000148:                                                                                                  #        (7)     DELVTPF         MAGNITUDE OF DELTA V AT INTERCEPT
000149:                                                                                                  #        (8)     DVLOS           DELTA VELOCITY AT TPI - LINE OF SIGHT
000150:                                                                                                  #        (9)     DELVLVC         DELTA VELOCITY AT TPI - LOCAL VERTICAL COORDINATES
000151:
000152:                                                                                                  #  DOWNLINK
000153:
000154:                                                                                                  #        (1)     TTPI            TIME OF THE TPI MANEUVER
000155:                                                                                                  #        (2)     TIG             TIME OF THE TPI MANEUVER
000156:                                                                                                  #        (3)     ELEV            DESIRED LOS ANGLE AT TPI
000157:                                                                                                  #        (4)     CENTANG         ORBITAL CENTRAL ANGLE OF THE PASSIVE VEHICLE DURING
000158:                                                                                                  #                                TRANSFER FROM TPI TO TIME OF INTERCEPT
000159:                                                                                                  #        (5)     DELVEET3        DELTA VELOCITY AT TPI - REFERENCE COORDINATES
000160:                                                                                                  #        (6)     TPASS4          TIME OF INTERCEPT
000161:
000162:                                                                                                  #  COMMUNICATION TO THRUSTING PROGRAMS
000163:
000164:                                                                                                  #        (1)     TIG             TIME OF THE TPI MANEUVER
000165:                                                                                                  #        (2)     RTARG           OFFSET TARGET POSITION
000166:                                                                                                  #        (3)     TPASS4          TIME OF INTERCEPT
000167:                                                                                                  #        (4)     XDELVFLG        RESET TO INDICATE LAMBERT (AIMPOINT) VG COMPUTATION
000168:
000169:                                                                                                  #  SUBROUTINES USED
000170:
000171:                                                                                                  #        AVFLAGA
000172:                                                                                                  #        AVFLAGP
000173:                                                                                                  #        VNPOOH
000174:                                                                                                  #        DISPLAYE
000175:                                                                                                  #        SELECTMU
000176:                                                                                                  #        PRECSET
000177:                                                                                                  #        S33/34.1
000178:                                                                                                  #        ALARM
000179:                                                                                                  #        BANKCALL
000180:                                                                                                  #        GOFLASH
000181:                                                                                                  #        GOTOPOOH
000182:                                                                                                  #        TIMETHET
000183:                                                                                                  #        S34/35.2
000184:                                                                                                  #        PERIAPO1
000185:                                                                                                  #        SHIFTR1
000186:                                                                                                  #        S34/35.5
000187:                                                                                                  #        VN1645
000188:
000189: 35,2000                                           SETLOC   CSI/CDH
000190: 35,2000                                           BANK
000191: 35,2503  E7,1455                                  EBANK=   SUBEXIT
000192: 35,2503                                           COUNT*   $$/P3474
000193: 35,2503           02405        P34                TC       AVFLAGA
000194: 35,2504           02506                           TC       P34/P74A
000195: 35,2505           02412        P74                TC       AVFLAGP
000196: 35,2506           33622        P34/P74A           CAF      V06N37                                #  TTPI
000197: 35,2507           03611                           TC       VNPOOH


000199: 35,2510           00006                           EXTEND
000200: 35,2511           33644                           DCA      130DEG
000201: 35,2512           53606                           DXCH     CENTANG
000202: 35,2513           03570                           TC       DISPLAYE                              #  ELEV AND CENTANG
000203: 35,2514           06014                           TC       INTPRET
000204: 35,2515           71214                           CLEAR    DLOAD
000205: 35,2516           01270                                    ETPIFLAG
000206: 35,2517           03623                                    TTPI
000207: 35,2520           17425                           STODL    TIG
000208: 35,2521           02265                                    ELEV
000209: 35,2522           43054                           BZE      SET
000210: 35,2523           72525                                    P34/P74B
000211: 35,2524           01070                                    ETPIFLAG
000212: 35,2525           77624        P34/P74B           CALL
000213: 35,2526           20045                                    SELECTMU
000214: 35,2527                        DELELO             EQUALS   26D
000215: 35,2527           43145        P34/P74C           DLOAD    SET
000216: 35,2530           06233                                    ZEROVECS
000217: 35,2531           03460                                    ITSWICH
000218: 35,2532           43014                           BON      CLEAR
000219: 35,2533           01310                                    ETPIFLAG
000220: 35,2534           72536                                    SWCHSET
000221: 35,2535           03660                                    ITSWICH
000222: 35,2536           02335        SWCHSET            STORE    NOMTPI
000223: 35,2537           43345        INTLOOP            DLOAD    DAD
000224: 35,2540           03623                                    TTPI
000225: 35,2541           02335                                    NOMTPI
000226: 35,2542           34041                           STCALL   TDEC1
000227: 35,2543           46150                                    PRECSET
000228: 35,2544           77624                           CALL
000229: 35,2545           72716                                    S33/34.1
000230: 35,2546           77454                           BZE      EXIT
000231: 35,2547           72560                                    SWCHCLR
000232: 35,2550           05651                           TC       ALARM
000233: 35,2551           00611                           OCT      611
000234: 35,2552           35056                           CAF      V05N09
000235: 35,2553           04655                           TC       BANKCALL
000236: 35,2554           20406                           CADR     GOFLASH
000237: 35,2555           04106                           TC       GOTOPOOH
000238: 35,2556           02506                           TC       P34/P74A                              #  PROCEED
000239: 35,2557           02550                           TC       -7                                    #  V32
000240:
000241: 35,2560           43014        SWCHCLR            BONCLR   BON
000242: 35,2561           03600                                    ITSWICH
000243: 35,2562           72537                                    INTLOOP
000244: 35,2563           01310                                    ETPIFLAG
000245: 35,2564           72570                                    P34/P74D                              #  DISPLAY TTPI
000246: 35,2565           77776                           EXIT
000247: 35,2566           03570                           TC       DISPLAYE                              #  DISPLAY ELEV AND CENTANG
000248: 35,2567           02573                           TC       P34/P74E
000249: 35,2570           77776        P34/P74D           EXIT
000250: 35,2571           33622                           CAF      V06N37                                #  TTPI
000251: 35,2572           03611                           TC       VNPOOH
000252: 35,2573           06014        P34/P74E           TC       INTPRET
000253: 35,2574           71201                           SETPD    DLOAD
000254: 35,2575           00001                                    0D
000255: 35,2576           02333                                    RTX1
000256: 35,2577           14047                           STODL    X1
000257: 35,2600           03606                                    CENTANG
000258: 35,2601           71406                           PUSH     COS
000259: 35,2602           16732                           STODL    CSTH
000260: 35,2603           77756                           SIN
000261: 35,2604           26730                           STOVL    SNTH
000262: 35,2605           03537                                    RPASS3
000263: 35,2606           77657                           VSR*
000264: 35,2607           57176                                    0,2
000265: 35,2610           26655                           STOVL    RVEC
000266: 35,2611           03545                                    VPASS3
000267: 35,2612           43057                           VSR*     SET
000268: 35,2613           57176                                    0,2
000269: 35,2614           03466                                    RVSW
000270: 35,2615           36744                           STCALL   VVEC
000271: 35,2616           24732                                    TIMETHET
000272: 35,2617           77745                           DLOAD
000273: 35,2620           03623                                    TTPI
000274: 35,2621           03577                           STORE    INTIME                                #  FOR INITVEL
000275: 35,2622           77615                           DAD
000276: 35,2623           00037                                    T                                     #  RENDEZVOUS TIME
000277: 35,2624           37616                           STCALL   TPASS4                                #  FOR INITVEL
000278: 35,2625           73240                                    S34/35.2
000279: 35,2626           51575                           VLOAD    ABVAL
000280: 35,2627           03363                                    DELVEET3
000281: 35,2630           27563                           STOVL    DELVTPI
000282: 35,2631           03473                                    VPASS4
000283: 35,2632           51451                           VSU      ABVAL
000284: 35,2633           03553                                    VTPRIME
000285: 35,2634           27565                           STOVL    DELVTPF
000286: 35,2635           03523                                    RACT3
000287: 35,2636           45115                           PDVL     CALL
000288: 35,2637           02357                                    VIPRIME
000289: 35,2640           46106                                    PERIAPO1
000290: 35,2641           77624                           CALL
000291: 35,2642           46216                                    SHIFTR1
000292: 35,2643           17575                           STODL    POSTTPI
000293: 35,2644           03623                                    TTPI
000294: 35,2645           03425                           STORE    TIG
000295: 35,2646           77776                           EXIT
000296: 35,2647           33624                           CAF      V06N58
000297: 35,2650           03611                           TC       VNPOOH
000298: 35,2651           06014                           TC       INTPRET
000299: 35,2652           77624                           CALL
000300: 35,2653           73437                                    S34/35.5
000301: 35,2654           77624                           CALL
000302: 35,2655           73502                                    VN1645
000303: 35,2656           77650                           GOTO
000304: 35,2657           72527                                    P34/P74C
000305:                                                                                                  #  RENDEZVOUS MID-COURSE MANEUVER PROGRAMS (P35 AND P75)
000306:
000307:                                                                                                  #  MOD NO -1                     LOG SECTION - P32-P35, P72-P75
000308:                                                                                                  #  MOD BY WHITE.P                DATE  1JUNE67
000309:
000310:                                                                                                  #  PURPOSE
000311:
000312:                                                                                                  #        (1)     TO CALCULATE THE REQUIRED DELTA V AND OTHER INITIAL CONDITIONS
000313:                                                                                                  #                REQUIRED BY THE ACTIVE VEHICLE FOR EXECUTION OF THE NEXT
000314:                                                                                                  #                MIDCOURSE CORRECTION OF THE TRANSFER PHASE OF AN ACTIVE
000315:                                                                                                  #                VEHICLE RENDEZVOUS.
000316:
000317:                                                                                                  #        (2)     TO DISPLAY TO THE ASTRONAUT AND THE GROUND CERTAIN DEPENDENT
000318:                                                                                                  #                VARIABLES ASSOCIATED WITH THE MANEUVER FOR APPROVAL BY THE
000319:                                                                                                  #                ASTRONAUT/GROUND.
000320:
000321:                                                                                                  #        (3)     TO STORE THE TPM TARGET PARAMETERS FOR USE BY THE DESIRED
000322:                                                                                                  #                THRUSTING PROGRAM.
000323:
000324:                                                                                                  #  ASSUMPTIONS
000325:
000326:                                                                                                  #        (1)     THE ISS NEED NOT BE ON TO COMPLETE THIS PROGRAM.
000327:
000328:                                                                                                  #        (2)     STATE VECTOR UPDATES BY P27 ARE DISALLOWED DURING AUTOMATIC
000329:                                                                                                  #                STATE VECTOR UPDATING INITIATED BY P20 (SEE ASSUMPTION (3)).
000330:
000331:                                                                                                  #        (3)     THE RENDEZVOUS RADAR IS ON AND IS LOCKED ON THE CSM.  THIS WAS
000332:                                                                                                  #                DONE DURING PREVIOUS SELECTION OF P20.  RADAR SIGHTING MARKS
000333:                                                                                                  #                WILL BE MADE AUTOMATICALLY APPROXIMATELY ONCE A MINUTE WHEN
000334:                                                                                                  #                ENABLED BY THE TRACK AND UPDATE FLAGS (SEE P20).  THE
000335:                                                                                                  #                RENDEZVOUS TRACKING MARK COUNTER IS ZEROED BY THE SELECTION OF
000336:                                                                                                  #                P20 AND AFTER EACH THRUSTING MANEUVER.
000337:
000338:                                                                                                  #        (4)     THE OPERATION OF THE PROGRAM UTILIZES THE FOLLOWING FLAGS -
000339:
000340:                                                                                                  #                        ACTIVE VEHICLE FLAG - DESIGNATES THE VEHICLE WHICH IS
000341:                                                                                                  #                        DOING RENDEZVOUS THRUSTING MANEUVERS TO THE PROGRAM WHICH
000342:                                                                                                  #                        CALCULATES THE MANEUVER PARAMETERS.  SET AT THE START OF
000343:                                                                                                  #                        EACH RENDEZVOUS PRE-THRUSTING PROGRAM.
000344:
000345:                                                                                                  #                        FINAL FLAG - SELECTS FINAL PROGRAM DISPLAYS AFTER CREW HAS
000346:                                                                                                  #                        SELECTED THE FINAL MANEUVER COMPUTATION CYCLE.
000347:
000348:                                                                                                  #                        EXTERNAL DELTA V FLAG - DESIGNATES THE TYPE OF STEERING
000349:                                                                                                  #                        REQUIRED FOR EXECUTION OF THIS MANEUVER BY THE THRUSTING
000350:                                                                                                  #                        PROGRAM SELECTED AFTER COMPLETION OF THIS PROGRAM.
000351:
000352:                                                                                                  #        (5)     THE TIME OF INTERCEPT (T(INT)) WAS DEFINED BY PREVIOUS
000353:                                                                                                  #                COMPLETION OF THE TRANSFER PHASE INITIATION (TPI) PROGRAM
000354:                                                                                                  #                (P34/P74) AND IS PRESENTLY AVAILABLE IN STORAGE.
000355:
000356:                                                                                                  #        (6)     ONCE THE PARAMETERS REQUIRED FOR COMPUTION OF THE MANEUVER
000357:                                                                                                  #                HAVE BEEN COMPLETELY SPECIFIED, THE VALUE OF THE ACTIVE
000358:                                                                                                  #                VEHICLE CENTRAL ANGLE OF TRANSFER IS COMPUTED AND STORED.
000359:                                                                                                  #                THIS NUMBER WILL BE AVAILABLE FOR DISPLAY TO THE ASTRONAUT
000360:                                                                                                  #                THROUGH THE USE OF V06N52.
000361:
000362:                                                                                                  #                THE ASTRONAUT WILL CALL THIS DISPLAY TO VERIFY THAT THE
000363:                                                                                                  #                CENTRAL ANGLE OF TRANSFER OF THE ACTIVE VEHICLE IS NOT WITHIN
000364:                                                                                                  #                170 TO 190 DEGREES.  IF THE ANGLE IS WITHIN THIS ZONE THE
000365:                                                                                                  #                ASTRONAUT SHOULD REASSESS THE INPUT TARGETING PARAMETERS BASED
000366:                                                                                                  #                UPON DELTA V AND EXPECTED MANEUVER TIME.
000367:
000368:                                                                                                  #        (7)     THIS PROGRAM IS SELECTED BY THE ASTRONAUT BY DSKY ENTRY -
000369:
000370:                                                                                                  #                        P35 IF THIS VEHICLE IS ACTIVE VEHICLE.
000371:
000372:                                                                                                  #                        P75 IF THIS VEHICLE IS PASSIVE VEHICLE.
000373:
000374:                                                                                                  #  INPUT
000375:
000376:                                                                                                  #        (1)     TPASS4          TIME OF INTERCEPT - SAVED FROM P34/P74
000377:                                                                                                  #  OUTPUT
000378:
000379:                                                                                                  #        (1)     TRKMKCNT        NUMBER OF MARKS
000380:                                                                                                  #        (2)     TTOGO           TIME TO GO
000381:                                                                                                  #        (3)     +MGA            MIDDLE GIMBAL ANGLE
000382:                                                                                                  #        (4)     DVLOS           DELTA VELOCITY AT MID - LINE OF SIGHT
000383:                                                                                                  #        (5)     DELVLVC         DELTA VELOCITY AT MID - LOCAL VERTICAL COORDINATES
000384:
000385:                                                                                                  #  DOWNLINK
000386:
000387:                                                                                                  #        (1)     TIG             TIME OF THE TPM MANEUVER
000388:                                                                                                  #        (2)     DELVEET3        DELTA VELOCITY AT TPM - REFERENCE COORDINATES
000389:                                                                                                  #        (3)     TPASS4          TIME OF INTERCEPT
000390:                                                                                                  #  COMMUNICATION TO THRUSTING PROGRAMS
000391:
000392:                                                                                                  #        (1)     TIG             TIME OF THE TPM MANEUVER
000393:                                                                                                  #        (2)     RTARG           OFFSET TARGET POSITION
000394:                                                                                                  #        (3)     TPASS4          TIME OF INTERCEPT
000395:                                                                                                  #        (4)     XDELVFLG        RESET TO INDICATE LAMBERT (AIMPOINT) VG COMPUTATION
000396:
000397:                                                                                                  #  SUBROUTINES USED
000398:
000399:                                                                                                  #        AVFLAGA
000400:                                                                                                  #        AVFLAGP
000401:                                                                                                  #        LOADTIME
000402:                                                                                                  #        SELECTMU
000403:                                                                                                  #        PRECSET
000404:                                                                                                  #        S34/35.1
000405:                                                                                                  #        S34/35.2
000406:                                                                                                  #        S34/35.5
000407:                                                                                                  #        VN1645
000408:
000409: 35,2660                                           COUNT*   $$/P3575
000410: 35,2660  E7,1562                                  EBANK=   KT
000411:
000412: 35,2660           02405        P35                TC       AVFLAGA
000413: 35,2661           00006                           EXTEND
000414: 35,2662           31401                           DCA      ATIGINC
000415: 35,2663           02667                           TC       P35/P75A
000416: 35,2664           02412        P75                TC       AVFLAGP
000417: 35,2665           00006                           EXTEND
000418: 35,2666           31403                           DCA      PTIGINC
000419: 35,2667           53563        P35/P75A           DXCH     KT
000420: 35,2670           06014                           TC       INTPRET
000421: 35,2671           77624                           CALL
000422: 35,2672           20045                                    SELECTMU
000423: 35,2673           77634        P35/P75B           RTB
000424: 35,2674           21454                                    LOADTIME
000425: 35,2675           03565                           STORE    TSTRT
000426: 35,2676           77615                           DAD
000427: 35,2677           03563                                    KT
000428: 35,2700           03425                           STORE    TIG
000429: 35,2701           03577                           STORE    INTIME                                #  FOR INITVEL
000430: 35,2702           34041                           STCALL   TDEC1
000431: 35,2703           46150                                    PRECSET                               #  ADVANCE BOTH VEHICLES
000432: 35,2704           77624                           CALL
000433: 35,2705           73226                                    S34/35.1                              #  GET NORM AND LOS FOR TRANSFORM
000434: 35,2706           77624                           CALL
000435: 35,2707           73240                                    S34/35.2                              #  GET DELTA V(LV)
000436: 35,2710           77624                           CALL
000437: 35,2711           73437                                    S34/35.5
000438: 35,2712           77624                           CALL
000439: 35,2713           73502                                    VN1645
000440: 35,2714           77650                           GOTO
000441: 35,2715           72673                                    P35/P75B
000442:                                                                                                  #  ..... S33/34.1 .....
000443:
000444: 35,2716           66220        S33/34.1           STQ      SSP
000445: 35,2717           03450                                    NORMEX
000446: 35,2720           03601                                    TITER
000447: 35,2721           40000                           OCT      40000
000448: 35,2722           40345                           DLOAD    SETPD
000449: 35,2723           33633                                    MAX250
000450: 35,2724           00001                                    0D
000451: 35,2725           27561                           STOVL    SECMAX
000452: 35,2726           03523                                    RACT3
000453: 35,2727           27465                           STOVL    RAPREC
000454: 35,2730           03531                                    VACT3
000455: 35,2731           27473                           STOVL    VAPREC
000456: 35,2732           03537                                    RPASS3
000457: 35,2733           27507                           STOVL    RPPREC
000458: 35,2734           03545                                    VPASS3
000459: 35,2735           03515                           STORE    VPPREC
000460: 35,2736           77624        ELCALC             CALL
000461: 35,2737           73226                                    S34/35.1                              #  NORMAL AND LOS
000462: 35,2740           63235                           VXV      PDVL
000463: 35,2741           03523                                    RACT3                                 #  (RA*VA)*RA 0D
000464: 35,2742           53515                           PDVL     UNIT                                  #  ULOS AT 6D
000465: 35,2743           03523                                    RACT3
000466: 35,2744           46315                           PDVL     VPROJ                                 #  XCHNJ AND UP
000467: 35,2745           51352                           VSL2     BVSU
000468: 35,2746           02325                                    ULOS
000469: 35,2747           63256                           UNIT     PDVL                                  #  UP AT 0D
000470: 35,2750           63241                           DOT      PDVL                                  #  UP.UN*RA AT 0D
000471: 35,2751           00001                                    0D                                    #  UP IN MPAC
000472: 35,2752           75241                           DOT      SIGN
000473: 35,2753           02325                                    ULOS
000474: 35,2754           65552                           SL1      ACOS
000475: 35,2755           50315                           PDVL     DOT                                   #  EA AT 0D
000476: 35,2756           02325                                    ULOS
000477: 35,2757           03523                                    RACT3
000478: 35,2760           71244                           BPL      DLOAD
000479: 35,2761           72764                                    TESTY
000480: 35,2762           06241                                    DPPOSMAX
000481: 35,2763           41425                           DSU      PUSH
000482: 35,2764           71214        TESTY              BOFF     DLOAD
000483: 35,2765           03740                                    ITSWICH
000484: 35,2766           73213                                    ELEX
000485: 35,2767           03563                                    DELEL
000486: 35,2770           14033                           STODL    DELELO
000487: 35,2771           77625                           DSU
000488: 35,2772           02265                                    ELEV
000489: 35,2773           03563                           STORE    DELEL
000490: 35,2774           45246                           ABS      DSU
000491: 35,2775           33637                                    ELEPS
000492: 35,2776           77640                           BMN
000493: 35,2777           73223                                    TIMEX                                 #  COMMERCIALS EVERYWHERE
000494: 35,3000           70535        FIGTIME            SLOAD    SR1
000495: 35,3001           03601                                    TITER
000496: 35,3002           72030                           BHIZ     LXA,1
000497: 35,3003           03450                                    NORMEX                                #  TOO MANY ITERATIONS
000498: 35,3004           00154                                    MPAC
000499: 35,3005           77330                           SXA,1    VLOAD
000500: 35,3006           03600                                    TITER
000501: 35,3007           03537                                    RPASS3
000502: 35,3010           65256                           UNIT     PDDL
000503: 35,3011           00045                                    36D
000504: 35,3012           53515                           PDVL     UNIT
000505: 35,3013           03523                                    RACT3
000506: 35,3014           77725                           PDDL
000507: 35,3015           41525                           PDDL     PUSH
000508: 35,3016           00045                                    36D
000509: 35,3017           77621                           BDSU
000510: 35,3020           00015                                    12D
000511: 35,3021           14037                           STODL    30D                                   #  RP - RA MAGNITUDES
000512: 35,3022           06231                                    DPHALF
000513: 35,3023           41425                           DSU      PUSH
000514: 35,3024           02265                                    ELEV
000515: 35,3025           50165                           SIGN     BMN
000516: 35,3026           00037                                    30D
000517: 35,3027           03450                                    NORMEX
000518: 35,3030           71545                           DLOAD    COS
000519: 35,3031           56205                           DMP      DDV
000520: 35,3032           00017                                    14D
000521: 35,3033           00015                                    12D
000522: 35,3034           77676                           DCOMP                                          #  SINCE COS(180-A)=-COS A
000523: 35,3035           00035                           STORE    28D
000524: 35,3036           44246                           ABS      BDSU
000525: 35,3037           06231                                    DPHALF
000526: 35,3040           77240                           BMN      VLOAD
000527: 35,3041           03450                                    NORMEX
000528: 35,3042           02275                                    UNRM
000529: 35,3043           53435                           VXV      UNIT
000530: 35,3044           00007                                    6D                                    #  UN*RA
000531: 35,3045           41241                           DOT      DMP
000532: 35,3046           03531                                    VACT3
000533: 35,3047           00015                                    12D
000534: 35,3050           47315                           PDVL     VXV
000535: 35,3051           00001                                    0D
000536: 35,3052           03545                                    VPASS3
000537: 35,3053           53435                           VXV      UNIT
000538: 35,3054           00001                                    0D                                    #  (RP*VP)*RP
000539: 35,3055           41241                           DOT      DMP
000540: 35,3056           03545                                    VPASS3
000541: 35,3057           00017                                    14D
000542: 35,3060           77621                           BDSU
000543: 35,3061           63301                           NORM     PDVL                                  #  NORMALIZED WA - WP 12D
000544: 35,3062           00047                                    X1
000545: 35,3063           00007                                    6D
000546: 35,3064           50235                           VXV      DOT
000547: 35,3065           00001                                    0D
000548: 35,3066           02275                                    UNRM                                  #  RA*RP.UN 14D
000549: 35,3067           50315                           PDVL     DOT
000550: 35,3070           00001                                    0D
000551: 35,3071           00007                                    6D
000552: 35,3072           65552                           SL1      ACOS
000553: 35,3073           77765                           SIGN
000554: 35,3074           43225                           DSU      DAD                                   #  ALPHA PI
000555: 35,3075           06231                                    DPHALF
000556: 35,3076           02265                                    ELEV
000557: 35,3077           65525                           PDDL     ACOS
000558: 35,3100           00035                                    28D
000559: 35,3101           75221                           BDSU     SIGN
000560: 35,3102           06231                                    DPHALF
000561: 35,3103           00037                                    30D                                   #  CONTAINS RP-RA
000562: 35,3104           77615                           DAD
000563: 35,3105           56205                           DMP      DDV
000564: 35,3106           33631                                    TWOPI
000565: 35,3107           77605                           DMP
000566: 35,3110           41257                           SL*      DMP
000567: 35,3111           20176                                    0          -3,1
000568: 35,3112           51406                           PUSH     ABS
000569: 35,3113           50025                           DSU      BMN
000570: 35,3114           03561                                    SECMAX
000571: 35,3115           73121                                    OKMAX
000572: 35,3116           75345                           DLOAD    SIGN                                  #  REPLACE TIME WITH MAX TIME SIGNED
000573: 35,3117           03561                                    SECMAX
000574: 35,3120           77606                           PUSH
000575: 35,3121           51135        OKMAX              SLOAD    BPL                                   #  TEST FIRST ITERATION
000576: 35,3122           03601                                    TITER
000577: 35,3123           73131                                    REPETE
000578: 35,3124           71331                           SSP      DLOAD
000579: 35,3125           03601                                    TITER
000580: 35,3126           37777                           OCT      37777
000581: 35,3127           77650                           GOTO
000582: 35,3130           73167                                    STORDELT
000583: 35,3131           41345        REPETE             DLOAD    DMP
000584: 35,3132           03563                                    DELEL
000585: 35,3133           00033                                    DELELO
000586: 35,3134           71244                           BPL      DLOAD
000587: 35,3135           73145                                    NEXTES
000588: 35,3136           03561                                    SECMAX
000589: 35,3137           77605                           DMP
000590: 35,3140           33635                                    THIRD
000591: 35,3141           17561                           STODL    SECMAX
000592: 35,3142           70446                           ABS      SR1                                   #  CROSSED OVER SOLUTION
000593: 35,3143           52076                           DCOMP    GOTO                                  #  DT=(-SIGN(DTO)//DT//)/2
000594: 35,3144           73155                                    RESIGN
000595: 35,3145           51545        NEXTES             DLOAD    ABS
000596: 35,3146           03563                                    DELEL
000597: 35,3147           51525                           PDDL     ABS
000598: 35,3150           00033                                    DELELO
000599: 35,3151           77625                           DSU
000600: 35,3152           71240                           BMN      DLOAD
000601: 35,3153           73160                                    REVERS                                #  WRONG DIRECTION
000602: 35,3154           77646                           ABS
000603: 35,3155           52165        RESIGN             SIGN     GOTO
000604: 35,3156           03575                                    DELTEEO
000605: 35,3157           73167                                    STORDELT
000606: 35,3160           57545        REVERS             DLOAD    DCOMP
000607: 35,3161           03575                                    DELTEEO
000608: 35,3162           70406                           PUSH     SR1
000609: 35,3163           03575                           STORE    DELTEEO
000610: 35,3164           77615                           DAD
000611: 35,3165           77650                           GOTO
000612: 35,3166           73170                                    ADTIME
000613: 35,3167           03575        STORDELT           STORE    DELTEEO
000614: 35,3170           77615        ADTIME             DAD
000615: 35,3171           02335                                    NOMTPI                                #  SUM OF DELTA T:S
000616: 35,3172           02335                           STORE    NOMTPI
000617: 35,3173           63375                           VLOAD    PDVL
000618: 35,3174           03473                                    VAPREC
000619: 35,3175           03465                                    RAPREC
000620: 35,3176           77624                           CALL
000621: 35,3177           73377                                    GOINT
000622: 35,3200           77624                           CALL
000623: 35,3201           46172                                    ACTIVE                                #  STORE NEW RACT3 VACT3
000624: 35,3202           63375                           VLOAD    PDVL
000625: 35,3203           03515                                    VPPREC
000626: 35,3204           03507                                    RPPREC
000627: 35,3205           77624                           CALL
000628: 35,3206           73377                                    GOINT
000629: 35,3207           77624                           CALL
000630: 35,3210           46202                                    PASSIVE                               #  STORE NEW RPASS3 VPASS3
000631: 35,3211           77650                           GOTO
000632: 35,3212           72736                                    ELCALC
000633: 35,3213           43345        ELEX               DLOAD    DAD
000634: 35,3214           03623                                    TTPI
000635: 35,3215           02335                                    NOMTPI
000636: 35,3216           17623                           STODL    TTPI
000637: 35,3217           77614                           BON
000638: 35,3220           01310                                    ETPIFLAG
000639: 35,3221           73223                                    TIMEX
000640: 35,3222           02265                           STORE    ELEV
000641: 35,3223           52145        TIMEX              DLOAD    GOTO
000642: 35,3224           06233                                    ZEROVECS
000643: 35,3225           03450                                    NORMEX
000644:
000645:                                                                                                  #  ..... S34/35.1 .....
000646:
000647:                                                                                                  #  COMPUTE UNIT NORMAL AND LINE OF SIGHT VECTORS GIVEN THE ACTIVE AND
000648:                                                                                                  #  PASSIVE POS AND VEL AT TIME T3
000649:
000650: 35,3226           52375        S34/35.1           VLOAD    VSU
000651: 35,3227           03537                                    RPASS3
000652: 35,3230           03523                                    RACT3
000653: 35,3231           41456                           UNIT     PUSH
000654: 35,3232           26325                           STOVL    ULOS
000655: 35,3233           03523                                    RACT3
000656: 35,3234           53435                           VXV      UNIT
000657: 35,3235           03531                                    VACT3
000658: 35,3236           02275                           STORE    UNRM
000659: 35,3237           77616                           RVQ
000660:
000661:                                                                                                  #  ..... S34/35.2 .....
000662:
000663:                                                                                                  #  ADVANCE PASSIVE VEH TO RENDEZVOUS TIME AND GET REQ VEL FROM LAMBERT
000664:
000665: 35,3240           77220        S34/35.2           STQ      VLOAD
000666: 35,3241           03450                                    NORMEX
000667: 35,3242           03545                                    VPASS3
000668: 35,3243           65315                           PDVL     PDDL
000669: 35,3244           03537                                    RPASS3
000670: 35,3245           03577                                    INTIME
000671: 35,3246           65325                           PDDL     PDDL
000672: 35,3247           03616                                    TPASS4
000673: 35,3250           06233                                    ZEROVECS
000674: 35,3251           45006                           PUSH     CALL
000675: 35,3252           73403                                    INTINT                                #  GET TARGET VECTOR
000676: 35,3253           25772        S3435.25           STOVL    RTARG
000677: 35,3254           00007                                    VATT
000678: 35,3255           27473                           STOVL    VPASS4
000679: 35,3256           01772                                    RTARG
000680:                                                                                                  #  COMPUTE PHI = PI + (ACOS(UNIT RA.UNIT RP) - PI)SIGN(RA*RP.U)
000681: 35,3257           63256                           UNIT     PDVL                                  #  UNIT RP
000682: 35,3260           03523                                    RACT3
000683: 35,3261           41456                           UNIT     PUSH                                  #  UNIT RA
000684: 35,3262           50235                           VXV      DOT
000685: 35,3263           00001                                    0D
000686: 35,3264           02275                                    UNRM                                  #  RA*RP.U
000687: 35,3265           77715                           PDVL
000688: 35,3266           72441                           DOT      SL1                                   #  UNIT RA.UNIT RP
000689: 35,3267           00001                                    0D
000690: 35,3270           75326                           ACOS     SIGN
000691: 35,3271           43244                           BPL      DAD
000692: 35,3272           73274                                    NOPIE
000693: 35,3273           06241                                    DPPOSMAX                              #  REASONABLE TWO PI
000694: 35,3274           15770        NOPIE              STODL    ACTCENT
000695: 35,3275           03616                                    TPASS4
000696: 35,3276           77625                           DSU
000697: 35,3277           03577                                    INTIME
000698: 35,3300           02355                           STORE    DELLT4
000699: 35,3301           45135                           SLOAD    CALL
000700: 35,3302           33641                                    DECTWO
000701: 35,3303           22002                                    PREINITV
000702: 35,3304           77624                           CALL
000703: 35,3305           73364                                    LOMAT
000704: 35,3306           64375                           VLOAD    MXV
000705: 35,3307           03363                                    DELVEET3
000706: 35,3310           00001                                    0D
000707: 35,3311           77772                           VSL1
000708: 35,3312           36267                           STCALL   DELVLVC
000709: 35,3313           03450                                    NORMEX
000710:
000711:                                                                                                  #  ..... S34/35.3 .....
000712:
000713: 35,3314           45020        S34/35.3           STQ      CALL
000714: 35,3315           03450                                    NORMEX
000715: 35,3316           73364                                    LOMAT                                 #  GET MATRIX IN PUSH LIST
000716: 35,3317           61375                           VLOAD    VXM
000717: 35,3320           02267                                    DELVLVC                               #  NEW DEL V TPI
000718: 35,3321           00001                                    0D
000719: 35,3322           77772                           VSL1
000720: 35,3323           03363                           STORE    DELVEET3                              #  SAVE FOR TRANSFORM
000721: 35,3324           63255                           VAD      PDVL
000722: 35,3325           03531                                    VACT3                                 #  NEW V REQ
000723: 35,3326           03523                                    RACT3
000724: 35,3327           65325                           PDDL     PDDL
000725: 35,3330           03425                                    TIG
000726: 35,3331           03616                                    TPASS4
000727: 35,3332           41525                           PDDL     PUSH
000728: 35,3333           06241                                    DPPOSMAX
000729: 35,3334           77624                           CALL                                           #  INTEG. FOR NEW TARGET VEC
000730: 35,3335           73403                                    INTINT
000731: 35,3336           77775                           VLOAD
000732: 35,3337           00001                                    RATT
000733: 35,3340           01772                           STORE    RTARG
000734: 35,3341           41575        NOVRWRT            VLOAD    PUSH
000735: 35,3342           02325                                    ULOS
000736: 35,3343           57435                           VXV      VCOMP
000737: 35,3344           02275                                    UNRM
000738: 35,3345           41456                           UNIT     PUSH
000739: 35,3346           76435                           VXV      VSL1
000740: 35,3347           02325                                    ULOS
000741: 35,3350           77715                           PDVL
000742: 35,3351           64315                           PDVL     MXV
000743: 35,3352           03363                                    DELVEET3
000744: 35,3353           00001                                    0D
000745: 35,3354           77772                           VSL1
000746: 35,3355           36317                           STCALL   DVLOS
000747: 35,3356           03450                                    NORMEX
000748:
000749:                                                                                                  #  ..... S34/35.4 .....
000750:
000751: 35,3357           40220        S34/35.4           STQ      SETPD                                 #  NO ASTRONAUT OVERWRITE
000752: 35,3360           03450                                    NORMEX
000753: 35,3361           00001                                    0D
000754: 35,3362           77650                           GOTO
000755: 35,3363           73341                                    NOVRWRT
000756:
000757:                                                                                                  #  ..... LOMAT     .....
000758:
000759: 35,3364           57575        LOMAT              VLOAD    VCOMP
000760: 35,3365           02275                                    UNRM
000761: 35,3366           24007                           STOVL    6D                                    #  Y
000762: 35,3367           03523                                    RACT3
000763: 35,3370           57456                           UNIT     VCOMP
000764: 35,3371           00015                           STORE    12D
000765: 35,3372           76435                           VXV      VSL1
000766: 35,3373           02275                                    UNRM                                  #  Z*-Y
000767: 35,3374           00001                           STORE    0D
000768: 35,3375           43401                           SETPD    RVQ
000769: 35,3376           00023                                    18D
000770: 35,3377           65325        GOINT              PDDL     PDDL                                  #  DO
000771: 35,3400           06233                                    ZEROVECS                              #        NOT
000772: 35,3401           02335                                    NOMTPI
000773: 35,3402           41406                           PUSH     PUSH                                  #                ORDER OR INSERT BEFORE INTINT
000774: 35,3403           45020        INTINT             STQ      CALL
000775: 35,3404           03452                                    RTRN
000776: 35,3405           27362                                    INTSTALL
000777: 35,3406           71214                           CLEAR    DLOAD
000778: 35,3407           01673                                    INTYPFLG
000779: 35,3410           43054                           BZE      SET
000780: 35,3411           73413                                    +2
000781: 35,3412           01473                                    INTYPFLG
000782: 35,3413           45545                           DLOAD    STADR
000783: 35,3414           63736                           STODL    TDEC1
000784: 35,3415           73014                           SET      LXA,2
000785: 35,3416           00063                                    MOONFLAG
000786: 35,3417           02333                                    RTX2
000787: 35,3420           43014                           BON      CLEAR
000788: 35,3421           04303                                    CMOONFLG
000789: 35,3422           73424                                    ALLSET
000790: 35,3423           00263                                    MOONFLAG
000791: 35,3424           25517        ALLSET             STOVL    TET
000792: 35,3425           77657                           VSR*
000793: 35,3426           57176                                    0,2
000794: 35,3427           25535                           STOVL    RCV
000795: 35,3430           77657                           VSR*
000796: 35,3431           57176                                    0,2
000797: 35,3432           35543                           STCALL   VCV
000798: 35,3433           27060                                    INTEGRVS
000799: 35,3434           52175                           VLOAD    GOTO
000800: 35,3435           00001                                    RATT
000801: 35,3436           03452                                    RTRN
000802:
000803:                                                                                                  #  ..... S34/35.5 .....
000804:                                                                                                  #  SUBROUTINES USED
000805:                                                                                                  #        BANKCALL
000806:                                                                                                  #        GOFLASH
000807:                                                                                                  #        GOTOPOOH
000808:                                                                                                  #        S34/35.3
000809:                                                                                                  #        S34/35.4
000810:                                                                                                  #        VNPOOH
000811:
000812: 35,3437           43020        S34/35.5           STQ      BON
000813: 35,3440           03455                                    SUBEXIT
000814: 35,3441           01311                                    FINALFLG
000815: 35,3442           73446                                    FLAGON
000816: 35,3443           52014                           SET      GOTO
000817: 35,3444           00470                                    UPDATFLG
000818: 35,3445           73472                                    FLAGOFF
000819: 35,3446           77414        FLAGON             CLEAR    EXIT
000820: 35,3447           03274                                    NTARGFLG
000821: 35,3450           33626                 +2        CAF      V06N81
000822: 35,3451           04655                           TC       BANKCALL
000823: 35,3452           20406                           CADR     GOFLASH
000824: 35,3453           04106                           TC       GOTOPOOH
000825: 35,3454           03461                           TC       +5                                    #  PRO
000826: 35,3455           06014                           TC       INTPRET
000827: 35,3456           77414                           SET      EXIT
000828: 35,3457           03074                                    NTARGFLG
000829: 35,3460           03450                           TC       FLAGON     +2
000830:
000831: 35,3461           06014                           TC       INTPRET
000832: 35,3462           45014                           BOFF     CALL
000833: 35,3463           03354                                    NTARGFLG
000834: 35,3464           73466                                    NOCHG
000835: 35,3465           73314                                    S34/35.3
000836: 35,3466           77214        NOCHG              CLEAR    VLOAD
000837: 35,3467           01267                                    XDELVFLG
000838: 35,3470           03363                                    DELVEET3
000839: 35,3471           03643                           STORE    DELVSIN
000840: 35,3472           77624        FLAGOFF            CALL
000841: 35,3473           73357                                    S34/35.4
000842: 35,3474           77776                           EXIT
000843: 35,3475           33625                           CAF      V06N59
000844: 35,3476           03611                           TC       VNPOOH
000845: 35,3477           06014                           TC       INTPRET
000846: 35,3500           77650                           GOTO
000847: 35,3501           03455                                    SUBEXIT
000848:
000849:                                                                                                  #  ..... VN1645    .....
000850:
000851:                                                                                                  #  SUBROUTINES USED
000852:                                                                                                  #        P3XORP7X
000853:                                                                                                  #        GET+MGA
000854:                                                                                                  #        BANKCALL
000855:                                                                                                  #        DELAYJOB
000856:                                                                                                  #        COMPTGO
000857:                                                                                                  #        GOFLASHR
000858:                                                                                                  #        GOTOPOOH
000859:                                                                                                  #        FLAGUP
000860:
000861: 35,3502           71220        VN1645             STQ      DLOAD
000862: 35,3503           03455                                    SUBEXIT
000863: 35,3504           33642                                    DP-.01
000864: 35,3505           02261                           STORE    +MGA                                  #  MGA = -.01
000865: 35,3506           71214                           BOFF     DLOAD
000866: 35,3507           01351                                    FINALFLG
000867: 35,3510           73530                                    GET45
000868: 35,3511           33642                                    DP-.01
000869: 35,3512           77615                           DAD
000870: 35,3513           33642                                    DP-.01
000871: 35,3514           02261                           STORE    +MGA                                  #  MGA = -.02
000872: 35,3515           77414                           BOFF     EXIT
000873: 35,3516           01742                                    REFSMFLG
000874: 35,3517           73530                                    GET45
000875: 35,3520           03603                           TC       P3XORP7X
000876: 35,3521           03523                           TC       +2                                    #  P3X
000877: 35,3522           03531                           TC       GET45      +1                         #  P7X
000878: 35,3523           06014                           TC       INTPRET
000879: 35,3524           41575                           VLOAD    PUSH
000880: 35,3525           03643                                    DELVSIN
000881: 35,3526           77624                           CALL                                           #  COMPUTE MGA
000882: 35,3527           20007                                    GET+MGA
000883: 35,3530           77776        GET45              EXIT
000884: 35,3531           02465                           TC       COMPTGO                               #  INITIATE TASK TO UPDATE TTOGO
000885: 35,3532           31455                           CA       SUBEXIT
000886: 35,3533           55451                           TS       QSAVED
000887: 35,3534           35047                           CAF      1SEC
000888: 35,3535           04655                           TC       BANKCALL
000889: 35,3536           01732                           CADR     DELAYJOB
000890: 35,3537           33627                           CAF      V16N45                                #  TRKMKCNT, TTOGO, +MGA
000891: 35,3540           04655                           TC       BANKCALL
000892: 35,3541           20406                           CADR     GOFLASH
000893: 35,3542           03545                           TC       KILCLOCK                              #  TERMINATE
000894: 35,3543           03550                           TC       N45PROC                               #  PROCEED
000895: 35,3544           03560                           TC       CLUPDATE                              #  RECYCLE - RETURN FOR INITIAL COMPUTATION
000896: 35,3545           33630        KILCLOCK           CA       TWOPI
000897: 35,3546           55175                           TS       DISPDEX
000898: 35,3547           04106                           TC       GOTOPOOH
000899: 35,3550           40076        N45PROC            CS       FLAGWRD2
000900: 35,3551           75021                           MASK     BIT6
000901: 35,3552           00006                           EXTEND
000902: 35,3553           13545                           BZF      KILCLOCK                              #  FINALFLG IS SET-FLASH V37-AWAIT NEW PGM
000903: 35,3554           05423                           TC       PHASCHNG
000904: 35,3555           04024                           OCT      04024
000905: 35,3556           05566                           TC       UPFLAG                                #  SET
000906: 35,3557           00047                           ADRES    FINALFLG                              #  FINALFLG
000907: 35,3560           33630        CLUPDATE           CA       TWOPI
000908: 35,3561           55175                           TS       DISPDEX
000909: 35,3562           05423                           TC       PHASCHNG
000910: 35,3563           04024                           OCT      04024
000911: 35,3564           06014                           TC       INTPRET
000912: 35,3565           52014                           CLEAR    GOTO
000913: 35,3566           00670                                    UPDATFLG
000914: 35,3567           03451                                    QSAVED
000915:
000916:                                                                                                  #  ..... DISPLAYE  .....
000917:
000918:                                                                                                  #  SUBROUTINES USED
000919:                                                                                                  #        BANKCALL
000920:                                                                                                  #        GOFLASHR
000921:                                                                                                  #        GOTOPOOH
000922:                                                                                                  #        BLANKET
000923:                                                                                                  #        ENDOFJOB
000924:
000925: 35,3570           00006        DISPLAYE           EXTEND
000926: 35,3571           23450                           QXCH     NORMEX
000927: 35,3572           33623                           CAF      V06N55
000928: 35,3573           04655                           TCR      BANKCALL
000929: 35,3574           20544                           CADR     GOFLASHR
000930: 35,3575           14106                           TCF      GOTOPOOH
000931: 35,3576           01450                           TC       NORMEX
000932: 35,3577           13572                           TCF      -5
000933: 35,3600           35026                           CAF      BIT1                                  #  BLANK R1
000934: 35,3601           05556                           TCR      BLANKET
000935: 35,3602           15225                           TCF      ENDOFJOB
000936:
000937:                                                                                                  #  ..... P3XORP7X  .....
000938:
000939: 35,3603           37715        P3XORP7X           CAF      HIGH9
000940: 35,3604           71012                           MASK     MODREG
000941: 35,3605           00006                           EXTEND
000942: 35,3606           13610                           BZF      +2
000943: 35,3607           24002                           INCR     Q
000944: 35,3610           00002                           RETURN
000945:
000946:                                                                                                  #  ..... VNPOOH   .....
000947:
000948:                                                                                                  #  SUBROUTINES USED
000949:                                                                                                  #        BANKCALL
000950:                                                                                                  #        GOFLASH
000951:                                                                                                  #        GOTOPOOH
000952:
000953: 35,3611           00006        VNPOOH             EXTEND
000954: 35,3612           23452                           QXCH     RTRN
000955: 35,3613           55602                           TS       VERBNOUN
000956: 35,3614           31602                           CA       VERBNOUN
000957: 35,3615           04655                           TCR      BANKCALL
000958: 35,3616           20406                           CADR     GOFLASH
000959: 35,3617           14106                           TCF      GOTOPOOH
000960: 35,3620           01452                           TC       RTRN
000961: 35,3621           13614                           TCF      -5
000962:
000963:                                                                                                  #  ..... CONSTANTS .....
000964:
000965: 35,3622           01445        V06N37             VN       0637
000966: 35,3623           01467        V06N55             VN       0655
000967: 35,3624           01472        V06N58             VN       0658
000968: 35,3625           01473        V06N59             VN       0659
000969: 35,3626           01521        V06N81             VN       0681
000970: 35,3627           04055        V16N45             VN       1645
000971: 35,3630           14441 37325  TWOPI              2DEC     6.283185307 B-4
000972:
000973: 35,3632           00001 20650  MAX250             2DEC     25         E3
000974:
000975: 35,3634           12525 12525  THIRD              2DEC     .333333333
000976:
000977: 35,3636           00004 21505  ELEPS              2DEC     .27777777  E-3
000978: 35,3640           00002        DECTWO             OCT      2
000979: 35,3641           77777        DP-.01             OCT      77777                                 #  CONSTANTS
000980: 35,3642           61337                           OCT      61337                                 #  ADJACENT      -.01 FOR MGA DSP
000981:


000983: 35,3643           13434 16162  130DEG             2DEC     .3611111111
000984:
000985:
000986:                                                                                                  #  ..... INITVEL .....
000987:
000988:                                                                                                  #  MOD NO -1                     LOG SECTION - P34-P35, P74-P75
000989:                                                                                                  #  MOD BY WHITE.P                DATE  21NOV67
000990:
000991:                                                                                                  #  FUNCTIONAL DESCRIPTION
000992:
000993:                                                                                                  #        THIS SUBROUTINE COMPUTES THE REQUIRED INITIAL VELOCITY VECTOR FOR
000994:                                                                                                  #        A TRAJECTORY OF SPECIFIED TRANSFER TIME BETWEEN SPECIFIED INITIAL
000995:                                                                                                  #        AND TARGET POSITIONS.  THE TRAJECTORY MAY BE EITHER CONIC OR
000996:                                                                                                  #        PRECISION DEPENDING ON AN INPUT PARAMETER (NAMELY, NUMBER OF
000997:                                                                                                  #        OFFSETS).  IN ADDITION, IN THE PRECISION TRAJECTORY CASE, THE
000998:                                                                                                  #        SUBROUTINE ALSO COMPUTES AN OFFSET TARGET VECTOR, TO BE USED
000999:                                                                                                  #        DURING PURE-CONIC CROSS-PRODUCT STEERING.  THE OFFSET TARGET
001000:                                                                                                  #        VECTOR IS THE TERMINAL POSITION VECTOR OF A CONIC TRAJECTORY WHICH
001001:                                                                                                  #        HAS THE SAME INITIAL STATE AS A PRECISION TRAJECTORY WHOSE
001002:                                                                                                  #        TERMINAL POSITION VECTOR IS THE SPECIFIED TARGET VECTOR.
001003:
001004:                                                                                                  #        IN ORDER TO AVOID THE INHERENT SINGULARITIES IN THE 180 DEGREE
001005:                                                                                                  #        TRANSFER CASE WHEN THE (TRUE OR OFFSET) TARGET VECTOR MAY BE
001006:                                                                                                  #        SLIGHTLY OUT OF THE ORBITAL PLANE, THIS SUBROUTINE ROTATES THIS
001007:                                                                                                  #        VECTOR INTO A PLANE DEFINED BY THE INPUT INITIAL POSITION VECTOR
001008:                                                                                                  #        AND ANOTHER INPUT VECTOR (USUALLY THE INITIAL VELOCITY VECTOR),
001009:                                                                                                  #        WHENEVER THE INPUT TARGET VECTOR LIES INSIDE A CONE WHOSE VERTEX
001010:                                                                                                  #        IS THE ORIGIN OF COORDINATES, WHOSE AXIS IS THE 180 DEGREE
001011:                                                                                                  #        TRANSFER DIRECTION, AND WHOSE CONE ANGLE IS SPECIFIED BY THE USER.
001012:
001013:                                                                                                  #        THE LAMBERT SUBROUTINE IS UTILIZED FOR THE CONIC COMPUTATIONS AND
001014:                                                                                                  #        THE COASTING INTEGRATION SUBROUTINE IS UTILIZED FOR THE PRECISION
001015:                                                                                                  #        TRAJECTORY COMPUTATIONS.
001016:
001017:                                                                                                  #  CALLING SEQUENCE
001018:
001019:                                                                                                  #        L       CALL
001020:                                                                                                  #        L+1             INITVEL
001021:                                                                                                  #        L+2     (RETURN - ALWAYS)
001022:
001023:                                                                                                  #  INPUT
001024:
001025:                                                                                                  #        (1)     RINIT           INITIAL POSITION RADIUS VECTOR
001026:                                                                                                  #        (2)     VINIT           INITIAL POSITION VELOCITY VECTOR
001027:                                                                                                  #        (3)     RTARG           TARGET POSITION RADIUS VECTOR
001028:                                                                                                  #        (4)     DELLT4          DESIRED TIME OF FLIGHT FROM RINIT TO RTARG
001029:                                                                                                  #        (5)     INTIME          TIME OF RINIT
001030:                                                                                                  #        (6)     0D              NUMBER OF ITERATIONS OF LAMBERT/INTEGRVS
001031:                                                                                                  #        (7)     2D              ANGLE TO 180 DEGREES WHEN ROTATION STARTS
001032:                                                                                                  #        (8)     X1              -2 FOR EARTH, -10D FOR LUNAR
001033:                                                                                                  #        (9)     B29FLAG         CLEAR IF EARTH IS CENTRAL BODY
001034:                                                                                                  #        PUSHLOC SET AT 4D
001035:
001036:                                                                                                  #  OUTPUT
001037:
001038:                                                                                                  #        (1)     RTARG           OFFSET TARGET POSITION VECTOR
001039:                                                                                                  #        (2)     VIPRIME         MANEUVER VELOCITY REQUIRED
001040:                                                                                                  #        (3)     VTPRIME         VELOCITY AT TARGET AFTER MANEUVER
001041:                                                                                                  #        (4)     DELVEET3        DELTA VELOCITY REQUIRED FOR MANEUVER
001042:
001043:                                                                                                  #  SUBROUTINES USED
001044:
001045:                                                                                                  #        LAMBERT
001046:                                                                                                  #        INTSTALL
001047:                                                                                                  #        INTEGRVS
001048:
001049: 11,2000                                           SETLOC   INTVEL
001050: 11,2000                                           BANK
001051:
001052: 11,2000                                           COUNT*   $$/INITV
001053: 11,2000           01252 25253  EPSFOUR            2DEC     .0416666666
001054:
001055: 11,2002           43001        PREINITV           SETPD    CLEAR
001056: 11,2003           00001                                    0
001057: 11,2004           00275                                    B29FLAG
001058: 11,2005           63325                           PDDL     PDVL
001059: 11,2006           22001                                    EPSFOUR
001060: 11,2007           03523                                    RACT3
001061: 11,2010           26341                           STOVL    RINIT
001062: 11,2011           03531                                    VACT3
001063: 11,2012           02347                           STORE    VINIT
001064: 11,2013           43160                           AXC,1    BOFF
001065: 11,2014           00002                                    2D
001066: 11,2015           04343                                    CMOONFLG
001067: 11,2016           22022                                    INITVEL
001068: 11,2017           74014                           SET      AXC,1
001069: 11,2020           00075                                    B29FLAG
001070: 11,2021           00012                                    10D
001071:
001072: 11,2022           77614        INITVEL            SET                                            #  COGA GUESS NOT AVAILABLE
001073: 11,2023           00475                                    GUESSW
001074: 11,2024           77620        HAVEGUES           STQ
001075: 11,2025           03452                                    RTRN
001076: 11,2026           43130                           SXA,1    BOFF
001077: 11,2027           03564                                    X1INPUT
001078: 11,2030           00355                                    B29FLAG
001079: 11,2031           22043                                    INITVEL1
001080: 11,2032           72575                           VLOAD    VSL2
001081: 11,2033           02341                                    RINIT                                 #  B29
001082: 11,2034           26341                           STOVL    RINIT                                 #  B27
001083: 11,2035           02347                                    VINIT                                 #  B7
001084: 11,2036           77752                           VSL2
001085: 11,2037           26347                           STOVL    VINIT                                 #  B5
001086: 11,2040           01772                                    RTARG
001087: 11,2041           77752                           VSL2
001088: 11,2042           01772                           STORE    RTARG
001089:                                                                                                  #  INITIALIZATION
001090:
001091: 11,2043           71331        INITVEL1           SSP      DLOAD                                 #  SET ITCTR TO -1,LOAD MPAC WITH E4 (PL 2D)
001092: 11,2044           03604                                    ITCTR
001093: 11,2045           77776                                    0          -1
001094: 11,2046           70546                           COSINE   SR1                                   #  CALCULATE COSINE (E4)   (+2)
001095: 11,2047           17654                           STODL    COZY4                                 #  SET COZY4 TO COSINE (E4)          (PL 0D)
001096: 11,2050           67154                           LXA,2    SXA,2
001097: 11,2051           00154                                    MPAC
001098: 11,2052           02701                                    VTARGTAG                              #  SET VTARGTAG TO 0D (SP)
001099: 11,2053           77775                           VLOAD
001100: 11,2054           02341                                    RINIT
001101: 11,2055           26655                           STOVL    R1VEC                                 #  R1VEC EQ RINIT
001102: 11,2056           01772                                    RTARG
001103: 11,2057           16663                           STODL    R2VEC                                 #  R2VEC EQ RTARG
001104: 11,2060           02355                                    DELLT4
001105: 11,2061           02671                           STORE    TDESIRED                              #  TDESIRED EQ DELLT4
001106: 11,2062           77201                           SETPD    VLOAD
001107: 11,2063           00001                                    0D                                    #  INITIALIZE PL TO 0D
001108: 11,2064           02341                                    RINIT                                 #  MPAC EQ RINIT (+29)
001109: 11,2065           41456                           UNIT     PUSH                                  #  UNIT(RI) (+1)                     (PL 6D)
001110: 11,2066           53435                           VXV      UNIT
001111: 11,2067           02347                                    VINIT                                 #  MPAC EQ UNIT(RI) X VI   (+8)
001112: 11,2070           26674                           STOVL    UN
001113: 11,2071           01772                                    RTARG
001114: 11,2072           50256                           UNIT     DOT                                   #  TEMP=URT.URI (+2)                 (PL 0D)
001115: 11,2073           43015                           DAD      CLEAR
001116: 11,2074           03654                                    COZY4
001117: 11,2075           03665                                    NORMSW
001118: 11,2076           03654                           STORE    COZY4
001119: 11,2077           43044        INITVEL2           BPL      SET
001120: 11,2100           22122                                    INITVEL3                              #  UN CALCULATED IN LAMBERT
001121: 11,2101           03465                                    NORMSW
001122:
001123:                                                                                                  #  ROTATE RC INTO YC PLANE - SET UNIT NORMAL TO YC
001124:
001125: 11,2102           41575                           VLOAD    PUSH                                  #                                    (PL 6D)
001126: 11,2103           02663                                    R2VEC                                 #  RC TO 6D (+29)
001127: 11,2104           63246                           ABVAL    PDVL                                  #  RC TO MPAC, ABVAL(RC) (+29) TO OD (PL 2D)
001128: 11,2105           46206                           PUSH     VPROJ                                 #                                    (PL 8D)
001129: 11,2106           02674                                    UN
001130: 11,2107           51352                           VSL2     BVSU
001131: 11,2110           74256                           UNIT     VXSC                                  #                                    (PL 0D)
001132: 11,2111           77772                           VSL1
001133: 11,2112           02663                           STORE    R2VEC
001134: 11,2113           67351                           TLOAD    SLOAD
001135: 11,2114           22276                                    ZEROVEC
001136: 11,2115           03604                                    ITCTR
001137: 11,2116           77244                           BPL      VLOAD
001138: 11,2117           22122                                    INITVEL3
001139: 11,2120           02663                                    R2VEC
001140: 11,2121           01772                           STORE    RTARG
001141: 11,2122           63345        INITVEL3           DLOAD    PDVL                                  #                                    (PL 2D)
001142: 11,2123           22001                                    EPSFOUR                               #  POSITIVE VALUE
001143: 11,2124           02674                                    UN
001144: 11,2125           50235                           VXV      DOT                                   #                                    (PL 2D)
001145: 11,2126           02655                                    R1VEC
001146: 11,2127           02663                                    R2VEC
001147: 11,2130           71244                           BPL      DLOAD                                 #                                    (PL 0D)
001148: 11,2131           22133                                    INITVEL4
001149: 11,2132           41476                           DCOMP    PUSH                                  #                                    (PL 2D)
001150: 11,2133           67154        INITVEL4           LXA,2    SXA,2
001151: 11,2134           00000                                    0D
001152: 11,2135           02672                                    GEOMSGN
001153:                                                                                                  #  SET INPUTS UP FOR LAMBERT
001154:
001155: 11,2136           43131                           SSP      BOFF
001156: 11,2137           00027                                    ITERCTR
001157: 11,2140           00024                                    20D
001158: 11,2141           03752                                    AVEGFLAG
001159: 11,2142           22146                                    +4
001160: 11,2143           77731                           SSP
001161: 11,2144           00027                                    ITERCTR
001162: 11,2145           00005                                    5
001163: 11,2146           45150                           LXA,1    CALL
001164: 11,2147           03564                                    X1INPUT
001165:                                                                                                  #   OPERATE THE LAMBERT CONIC ROUTINE (COASTFLT SUBROUTINE)
001166:
001167: 11,2150           25254                                    LAMBERT
001168:
001169:                                                                                                  #        DELETE THRU 4521
001170:                                                                                                  #  ARRIVED AT SOLUTION IS GOOD ENOUGH ACCORDING TO SLIGHTLY WIDER BOUNDS.
001171:
001172: 11,2151           77214                           CLEAR    VLOAD
001173: 11,2152           00675                                    GUESSW
001174: 11,2153           02744                                    VVEC
001175:
001176:                                                                                                  #  STORE CALCULATED INITIAL VELOCITY REQUIRED IN VIPRIME
001177:
001178: 11,2154           16357                           STODL    VIPRIME                               #  INITIAL VELOCITY REQUIRED (+7)
001179:
001180:                                                                                                  #     IF NUMIT IS ZERO, CONTINUE AT INITVELB, OTHERWISE
001181:                                                                                                  #  SET UP INPUTS FOR ENCKE INTEGRATION (INTEGRVS).
001182:
001183: 11,2155           02702                                    VTARGTAG
001184: 11,2156           45030                           BHIZ     CALL
001185: 11,2157           22237                                    INITVEL7
001186: 11,2160           27362                                    INTSTALL
001187:
001188: 11,2161           63154                           LXA,2    INCR,2
001189: 11,2162           03564                                    X1INPUT
001190: 11,2163           00002                                    2D
001191: 11,2164           43135                           SLOAD    CLEAR
001192: 11,2165           00050                                    X2
001193: 11,2166           00263                                    MOONFLAG
001194: 11,2167           43030                           BHIZ     SET
001195: 11,2170           22172                                    INITVEL5
001196: 11,2171           00063                                    MOONFLAG
001197: 11,2172           77775        INITVEL5           VLOAD
001198: 11,2173           02341                                    RINIT
001199: 11,2174           02655                           STORE    R1VEC
001200: 11,2175           25535                           STOVL    RCV
001201: 11,2176           02357                                    VIPRIME
001202: 11,2177           15543                           STODL    VCV
001203: 11,2200           03577                                    INTIME
001204: 11,2201           01517                           STORE    TET
001205: 11,2202           43015                           DAD      CLEAR
001206: 11,2203           02355                                    DELLT4
001207: 11,2204           01673                                    INTYPFLG
001208: 11,2205           34041                           STCALL   TDEC1
001209: 11,2206           27060                                    INTEGRVS
001210: 11,2207           77775                           VLOAD
001211: 11,2210           00025                                    VATT1
001212: 11,2211           02703                           STORE    VTARGET
001213:                                                                                                  #  IF ITERATION COUNTER (ITCTR) EQ NO. ITERATIONS (NUMIT), CONTINUE AT
001214:                                                                                                  #  INITVELC, OTHERWISE REITERATE LAMBERT AND ENCKE
001215:
001216: 11,2212           63154                           LXA,2    INCR,2
001217: 11,2213           03603                                    ITCTR
001218: 11,2214           00001                                    1D                                    #  INCREMENT ITCTR
001219: 11,2215           55134                           SXA,2    XSU,2
001220: 11,2216           03603                                    ITCTR
001221: 11,2217           02701                                    VTARGTAG
001222: 11,2220           46135                           SLOAD    BHIZ                                  #  IF SP(MPAC) EQ 0, CONTINUE AT INITVELC
001223: 11,2221           00050                                    X2
001224: 11,2222           22234                                    INITVEL6
001225:
001226:                                                                                                  #  OFFSET CONIC TARGET VECTOR
001227:
001228: 11,2223           52375                           VLOAD    VSU
001229: 11,2224           01772                                    RTARG
001230: 11,2225           00017                                    RATT1
001231: 11,2226           77655                           VAD
001232: 11,2227           02663                                    R2VEC
001233: 11,2230           16663                           STODL    R2VEC
001234: 11,2231           03654                                    COZY4
001235: 11,2232           77650                           GOTO
001236: 11,2233           22077                                    INITVEL2                              #  CONTINUE ITERATING AT INITVEL2
001237:                                                                                                  #  COMPUTE THE DELTA VELOCITY
001238:
001239: 11,2234           77775        INITVEL6           VLOAD
001240: 11,2235           02663                                    R2VEC
001241: 11,2236           01772                           STORE    RTARG
001242: 11,2237           52375        INITVEL7           VLOAD    VSU
001243: 11,2240           02357                                    VIPRIME
001244: 11,2241           02347                                    VINIT
001245: 11,2242           27363                           STOVL    DELVEET3                              #  DELVEET3 = VIPRIME-VINIT (+7)
001246: 11,2243           02703                                    VTARGET
001247: 11,2244           03553                           STORE    VTPRIME
001248: 11,2245           70414                           BOFF     VSR2
001249: 11,2246           00355                                    B29FLAG
001250: 11,2247           22262                                    INITVELX
001251: 11,2250           27553                           STOVL    VTPRIME
001252: 11,2251           02357                                    VIPRIME
001253: 11,2252           77742                           VSR2
001254: 11,2253           26357                           STOVL    VIPRIME
001255: 11,2254           01772                                    RTARG
001256: 11,2255           77742                           VSR2
001257: 11,2256           25772                           STOVL    RTARG
001258: 11,2257           03363                                    DELVEET3
001259: 11,2260           77742                           VSR2
001260: 11,2261           03363                           STORE    DELVEET3
001261: 11,2262           72001        INITVELX           SETPD    LXA,1
001262: 11,2263           00001                                    0D
001263: 11,2264           03564                                    X1INPUT
001264: 11,2265           77650                           GOTO
001265: 11,2266           03452                                    RTRN
001266:
001267:                                                                                                  #  ..... END OF INITVEL ROUTINE .....
001268:
001269:                                                                                                  #  ..... MIDGIM .....
001270:
001271:                                                                                                  #  MOD NO. 0, BY WILLMAN, SUBROUTINE RENDGUID, LOG P34-P35, P74-P75
001272:                                                                                                  #   REVISION 03, 17 FEB 67
001273:
001274:                                                                                                  #  IF THE ACTIVE VEHICLE IS DOING THE COMPUTATION, MIDGIM COMPUTES
001275:                                                                                                  #  THE POSITIVE MIDDLE GIMBAL ANGLE OF THE ACTIVE VEHICLE TO THE INPUT
001276:                                                                                                  #  DELTA VELOCITY VECTOR (0D IN PUSH LIST), OTHERWISE
001277:                                                                                                  #  MIDGIM CONVERTS THE INPUT DELTA VELOCITY VECTOR FROM INERTIAL COORDIN-
001278:                                                                                                  #  ATES TO LOCAL VERTICAL COORDINATES OF THE ACTIVE VEHICLE.
001279:
001280:                                                                                                  #  .. INPUTS ..
001281:
001282:                                                                                                  #        NAME    MEANING                                         UNITS/SCALING/MODE
001283:
001284:                                                                                                  #        AVFLAG  INT FLAG - 0 IS CSM ACTIVE, 1 IS LEM ACTIVE                     BIT
001285:                                                                                                  #       COMPUTER INT FLAG - 0 IS LEM COMPUTER, 1 IS CSM COMPUTER                 BIT
001286:                                                                                                  #        RINIT   ACTIVE VEHICLE RADIUS VECTOR                    METERS/CSEC (+7) VT
001287:                                                                                                  #        VINIT   ACTIVE VEHICLE VELOCITY VECTOR                  METERS/CSEC (+7) VT
001288:                                                                                                  #        0D(PL)  ACTIVE VEHICLE DELTA VELOCITY VECTOR            METERS/CSEC (+7) VT
001289:
001290:                                                                                                  #  .. OUTPUTS ..
001291:
001292:                                                                                                  #     NAME       MEANING                                         UNITS/SCALING/MODE
001293:
001294:                                                                                                  #     +MGA       + MIDDLE GIMBAL ANGLE                           REVOLUTIONS (+0) DP
001295:                                                                                                  #     DELVLVC    DELTA VELOCITY VECTOR IN LV COORD.              METERS/CSEC (+7) VT
001296:                                                                                                  #     MGLVFLAG   INT FLAG - 0 IS +MGA COMPUTED, 1 IS DELVLVC COMP.       -       BIT
001297:
001298:                                                                                                  #  .. CALLING SEQUENCE ..
001299:
001300:                                                                                                  #        L       CALL
001301:                                                                                                  #        L+1             MIDGIM
001302:                                                                                                  #        L+2     (RETURN - ALWAYS)
001303:
001304:                                                                                                  #  .. NO SUBROUTINES CALLED ..
001305:
001306:                                                                                                  #  .. DEBRIS - ERASEABLE TEMPORARY USAGE
001307:
001308:                                                                                                  #        A,Q,L, PUSH LIST, MPAC.
001309:
001310:                                                                                                  #  .. ALARMS - NONE ..
001311:
001312:                                                                                                  #  MIDDLE GIMBAL ANGLE COMPUTATION.
001313:
001314: 10,2000                                           SETLOC   MIDDGIM
001315: 10,2000                                           BANK
001316:
001317: 10,2000                                           COUNT*   $$/MIDG
001318:
001319: 10,2000           20000 00000  HALFREV            2DEC     1          B-1
001320:
001321: 10,2002           43014        MIDGIM             BON      BOFF
001322: 10,2003           01312                                    AVFLAG
001323: 10,2004           20022                                    MIDGIM1
001324: 10,2005           02747                                    COMPUTER
001325: 10,2006           20025                                    GET.LVC
001326:                                                                                                  #  COMPUTE +MGA IF AVFLAG AND COMPUTER HAVE OPPOSITE VALUES.
001327: 10,2007           53575        GET+MGA            VLOAD    UNIT                                  #  (PL 0D) V (+7) TO MPAC, UNITIZE  UV (+1)
001328: 10,2010           72441                           DOT      SL1                                   #  DOT UV WITH Y(STABLE MEMBER) AND RESCALE
001329: 10,2011           01744                                    REFSMMAT   +6                         #   FROM +2 TO +1 FOR ASIN ROUTINE
001330: 10,2012           51136                           ARCSIN   BPL
001331: 10,2013           20017                                    SETMGA
001332: 10,2014           43215                           DAD      DAD                                   #  CONVERT -MGA TO +MGA BY
001333: 10,2015           20001                                    HALFREV                               #  ADDING ONE REVOLUTION
001334: 10,2016           20001                                    HALFREV
001335: 10,2017           02261        SETMGA             STORE    +MGA
001336: 10,2020           43414                           CLR      RVQ                                   #  CLEAR MGLVFLAG TO INDICATE +MGA CALC
001337: 10,2021           02675                                    MGLVFLAG                              #      AND EXIT
001338: 10,2022           77614        MIDGIM1            BOFF
001339: 10,2023           02747                                    COMPUTER
001340: 10,2024           20007                                    GET+MGA
001341:                                                                                                  #  COMPUTE DELVLVC IF AVFLAG AND COMPUTER HAVE SAME VALUES.
001342: 10,2025           53575        GET.LVC            VLOAD    UNIT                                  #  (PL 6D) R (+29) IN MPAC, UNITIZE UR
001343: 10,2026           02341                                    RINIT
001344: 10,2027           77676                           VCOMP                                          #  U(-R)
001345: 10,2030           00023                           STORE    18D                                   #  U(-R) TO 18D
001346: 10,2031           53435                           VXV      UNIT                                  #  U(-R)*V EQ V*U(R), U(V*R)
001347: 10,2032           02347                                    VINIT
001348: 10,2033           00015                           STORE    12D                                   #  U(V*R) TO 12D
001349: 10,2034           53435                           VXV      UNIT                                  #  U(V*R)*U(-R), U((V*R)*(-R))
001350: 10,2035           00023                                    18D
001351: 10,2036           24007                           STOVL    6D                                    #  TRANSFORMATION MATRIX IS IN 6D (+1)
001352: 10,2037           00001                                    0D                                    #  DELTA V (+7) IN 0D
001353: 10,2040           76521                           MXV      VSL1                                  #  CONVERT FROM INER COOR TO LV COOR (+8)
001354: 10,2041           00007                                    6D                                    #  AND SCALE +7 IN MPAC
001355: 10,2042           02267                           STORE    DELVLVC                               #  STORE IN DELVLVC (+7)
001356: 10,2043           43414                           SET      RVQ                                   #  SET MGLVFLAG TO INDICATE LVC CALC
001357: 10,2044           02475                                    MGLVFLAG                              #  AND EXIT
001358:
001359:                                                                                                  #  ..... END OF MIDGIM ROUTINE .....
001360:
001361:
001362: 10,2045           77160        SELECTMU           AXC,1    AXT,2
001363: 10,2046           00002                                    2D
001364: 10,2047           00000                                    0D
001365: 10,2050           77614                           BOFF
001366: 10,2051           04343                                    CMOONFLG
001367: 10,2052           20056                                    SETMUER
001368: 10,2053           77160                           AXC,1    AXT,2
001369: 10,2054           00012                                    10D
001370: 10,2055           00002                                    2D
001371: 10,2056           66143        SETMUER            DLOAD*   SXA,1
001372: 10,2057           10765                                    MUTABLE    +4,1
001373: 10,2060           02332                                    RTX1
001374: 10,2061           22335                           STODL*   RTSR1/MU
001375: 10,2062           10757                                    MUTABLE    -2,1
001376: 10,2063           54214                           BOFF     SR
001377: 10,2064           04343                                    CMOONFLG
001378: 10,2065           20067                                    RTRNMU
001379: 10,2066           20607                                    6D
001380: 10,2067           02337        RTRNMU             STORE    RTMU
001381: 10,2070           43134                           SXA,2    CLEAR
001382: 10,2071           02333                                    RTX2
001383: 10,2072           01271                                    FINALFLG
001384: 10,2073           43014                           SET      SET
001385: 10,2074           00470                                    UPDATFLG
001386: 10,2075           00472                                    TRACKFLG
001387: 10,2076           77650                           GOTO
001388: 10,2077           73502                                    VN1645
001389:
001390:                                                                                                  #  ..... PERIAPO .....
001391:
001392:                                                                                                  #  MOD NO -1                     LOG SECTION - P34-P35, P74-P75
001393:                                                                                                  #  MOD BY WHITE.P                DATE 18JAN68
001394:
001395:                                                                                                  #  FUNCTIONAL DESCRIPTION
001396:
001397:                                                                                                  #        THIS SUBROUTINE COMPUTES THE TWO BODY APOCENTER AND PERICENTER
001398:                                                                                                  #        ALTITUDES GIVEN THE POSITION AND VELOCITY VECTORS FOR A POINT ON
001399:                                                                                                  #        THE TRAJECTORY AND THE PRIMARY BODY.
001400:
001401:                                                                                                  #        SETRAD IS CALLED TO  DETERMINE THE RADIUS OF THE PRIMARY BODY.
001402:
001403:                                                                                                  #        APSIDES IS CALLED TO SOLVE FOR THE TWO BODY RADII OF APOCENTER AND
001404:                                                                                                  #        PERICENTER AND THE ECCENTRICITY OF THE TRAJECTORY.
001405:
001406:                                                                                                  #  CALLING SEQUENCE
001407:
001408:                                                                                                  #        L       CALL
001409:                                                                                                  #        L+1             PERIAPO
001410:                                                                                                  #        L+2     (RETURN - ALWAYS)
001411:
001412:                                                                                                  #  INPUT
001413:
001414:                                                                                                  #        (1)     RVEC    POSITION VECTOR IN METERS
001415:                                                                                                  #                        SCALE FACTOR - EARTH +29, MOON +27
001416:                                                                                                  #        (2)     VVEC    VELOCITY VECTOR IN METERS/CENTISECOND
001417:                                                                                                  #                        SCALE FACTOR - EARTH +7, MOON +5
001418:                                                                                                  #        (3)     X1      PRIMARY BODY INDICATOR
001419:                                                                                                  #                        EARTH -2, MOON -10
001420:
001421:                                                                                                  #  OUTPUT
001422:
001423:                                                                                                  #        (1)     2D      APOCENTER RADIUS IN METERS
001424:                                                                                                  #                        SCALE FACTOR - EARTH +29, MOON +27
001425:                                                                                                  #        (2)     4D      APOCENTER ALTITUDE IN METERS
001426:                                                                                                  #                        SCALE FACTOR - EARTH +29, MOON P27
001427:                                                                                                  #        (3)     6D      PERICENTER RADIUS IN METERS
001428:                                                                                                  #                        SCALE FACTOR - EARTH +29, MOON +27
001429:                                                                                                  #        (4)     8D      PERICENTER ALTITUDE IN METERS
001430:                                                                                                  #                        SCALE FACTOR - EARTH +29, MOON +27
001431:                                                                                                  #        (5)     ECC     ECCENTRICITY OF CONIC TRAJECTORY
001432:                                                                                                  #                        SCALE FACTOR - +3
001433:                                                                                                  #        (6)     XXXALT  RADIUS OF THE PRIMARY BODY IN METERS
001434:                                                                                                  #                        SCALE FACTOR - EARTH +29, MOON +27
001435:                                                                                                  #        (7)     PUSHLOC EQUALS 10D
001436:
001437:                                                                                                  #  SUBROUTINES USED
001438:
001439:                                                                                                  #        SETRAD
001440:                                                                                                  #        APSIDES
001441:
001442: 23,2000                                           SETLOC   APOPERI
001443: 23,2000                                           BANK
001444:
001445: 23,2104                                           COUNT*   $$/PERAP
001446:
001447: 23,2104           00302 17755  RPAD               2DEC     6373338    B-29                       #  STANDARD RADIUS OF PAD 37-B.
001448:                                                                                                  #  = 20 909 901.57 FT
001449:
001450: 23,2106           53754        PERIAPO1           LXA,2    VSR*
001451: 23,2107           02333                                    RTX2
001452: 23,2110           57176                                    0,2
001453: 23,2111           26744                           STOVL    VVEC
001454: 23,2112           53750                           LXA,1    VSR*
001455: 23,2113           02332                                    RTX1
001456: 23,2114           57176                                    0,2
001457: 23,2115           02655                           STORE    RVEC
001458: 23,2116           45020        PERIAPO            STQ      CALL
001459: 23,2117           03450                                    NORMEX
001460: 23,2120           46134                                    SETRAD
001461: 23,2121           37656                           STCALL   XXXALT
001462: 23,2122           25726                                    APSIDES
001463: 23,2123           41401                           SETPD    PUSH                                  #  2D = APOCENTER RADIUS         B29 OR B27
001464: 23,2124           00003                                    2D
001465: 23,2125           65225                           DSU      PDDL                                  #  4D = APOGEE ALTITUDE          B29 OR B27
001466: 23,2126           03656                                    XXXALT
001467: 23,2127           00001                                    0D
001468: 23,2130           45206                           PUSH     DSU                                   #  6D = PERICENTER RADIUS        B29 OR B27
001469: 23,2131           03656                                    XXXALT
001470: 23,2132           52006                           PUSH     GOTO                                  #  8D = PERIGEE ALTITUDE         B29 OR B27
001471: 23,2133           03450                                    NORMEX
001472:
001473:                                                                                                  #  SETRAD
001474:
001475: 23,2134           41545        SETRAD             DLOAD    PUSH
001476: 23,2135           06105                                    RPAD
001477: 23,2136           63130                           SXA,1    INCR,2
001478: 23,2137           00047                                    X2
001479: 23,2140           00002                                    2D
001480: 23,2141           46135                           SLOAD    BHIZ
001481: 23,2142           00050                                    X2
001482: 23,2143           46147                                    SETRADX
001483: 23,2144           51575                           VLOAD    ABVAL
001484: 23,2145           02025                                    RLS
001485: 23,2146           77725                           PDDL
001486: 23,2147           43545        SETRADX            DLOAD    RVQ
001487:
001488:                                                                                                  #  PRECSET
001489:
001490: 23,2150           77620        PRECSET            STQ
001491: 23,2151           03450                                    NORMEX
001492: 23,2152           37561                           STCALL   TDEC2
001493: 23,2153           27030                                    LEMPREC
001494: 23,2154           77624                           CALL
001495: 23,2155           46166                                    LEMSTORE
001496: 23,2156           77745                           DLOAD
001497: 23,2157           03561                                    TDEC2
001498: 23,2160           34041                           STCALL   TDEC1
001499: 23,2161           27014                                    CSMPREC
001500: 23,2162           77624                           CALL
001501: 23,2163           46176                                    CSMSTORE
001502: 23,2164           77650                           GOTO
001503: 23,2165           03450                                    NORMEX
001504: 23,2166           43175        LEMSTORE           VLOAD    BOFF
001505: 23,2167           00001                                    RATT
001506: 23,2170           01352                                    AVFLAG
001507: 23,2171           46202                                    PASSIVE
001508: 23,2172           27523        ACTIVE             STOVL    RACT3
001509: 23,2173           00007                                    VATT
001510: 23,2174           03531                           STORE    VACT3
001511: 23,2175           77616                           RVQ
001512: 23,2176           43175        CSMSTORE           VLOAD    BOFF
001513: 23,2177           00001                                    RATT
001514: 23,2200           01352                                    AVFLAG
001515: 23,2201           46172                                    ACTIVE
001516: 23,2202           27537        PASSIVE            STOVL    RPASS3
001517: 23,2203           00007                                    VATT
001518: 23,2204           03545                           STORE    VPASS3
001519: 23,2205           77616                           RVQ
001520:
001521:                                                                                                  #  VECSHIFT
001522: 23,2206           53754        VECSHIFT           LXA,2    VSR*
001523: 23,2207           02333                                    RTX2
001524: 23,2210           57176                                    0,2
001525: 23,2211           63350                           LXA,1    PDVL
001526: 23,2212           02332                                    RTX1
001527: 23,2213           63257                           VSR*     PDVL
001528: 23,2214           57176                                    0,2
001529: 23,2215           77616                           RVQ
001530:
001531:                                                                                                  #  SHIFTR1
001532:
001533: 23,2216           53754        SHIFTR1            LXA,2    SL*
001534: 23,2217           02333                                    RTX2
001535: 23,2220           57576                                    0,2
001536: 23,2221           77616                           RVQ
001537:
001538:
001539:                                                                                                  #  PROGRAM DESCRIPTION
001540:                                                                                                  #  SUBROUTINE NAME       R36     OUT-OF-PLANE RENDEZVOUS ROUTINE
001541:                                                                                                  #  MOD NO. 0             DATE    22 DECEMBER 67
001542:                                                                                                  #  MOD BY N.M.NEVILLE    LOG SECTION EXTENDED VERBS
001543:                                                                                                  #  FUNCTIONAL DESCRIPTION
001544:
001545:                                                                                                  #  TO DISPLAY AT ASTRONAUT REQUEST LGC CALCULATED RENDEZVOUS
001546:                                                                                                  #  OUT-OF-PLANE PARAMETERS (Y , YDOT , PSI). (REQUESTED BY DSKY).
001547:
001548:                                                                                                  #  CALLING SEQUENCE
001549:
001550:                                                                                                  #  ASTRONAUT REQUEST THROUGH DSKY V 90 E
001551:
001552:                                                                                                  #  SUBROUTINES CALLED
001553:
001554:                                                                                                  #  EXDSPRET
001555:                                                                                                  #  GOMARKF
001556:                                                                                                  #  CSMPREC
001557:                                                                                                  #  LEMPREC
001558:                                                                                                  #  SGNAGREE
001559:                                                                                                  #  LOADTIME
001560:
001561:                                                                                                  #  NORMAL EXIT MODES
001562:
001563:                                                                                                  #  ASTRONAUT REQUEST THROUGH DSKY TO TERMINATE PROGRAM V 34 E
001564:
001565:                                                                                                  #  ALARM OR ABORT EXIT MODES
001566:
001567:                                                                                                  #  NONE
001568:
001569:                                                                                                  #  OUTPUT
001570:
001571:                                                                                                  #  DECIMAL DISPLAY OF TIME , Y , YDOT AND PSI
001572:
001573:                                                                                                  #  DISPLAYED VALUES Y , YDOT , AND PSI , ARE STORED IN ERASABLE
001574:                                                                                                  #  REGISTERS RANGE , RRATE AND RTHETA RESPECTIVELY.
001575:
001576:                                                                                                  #  ERASABLE INITIALIZATION REQUIRED
001577:
001578:                                                                                                  #  CSM AND LEM STATE VECTORS
001579:
001580:                                                                                                  #  DEBRIS
001581:
001582:                                                                                                  #  CENTRALS A,Q,L
001583:                                                                                                  #  OTHER THOSE USED BY THE ABOVE LISTED SUBROUTINES
001584:
001585: 20,2204                                           BANK     20
001586: 04,2000                                           SETLOC   R36LM
001587: 04,2000                                           BANK
001588: 04,2530  E4,1614                                  EBANK=   RPASS36
001589:
001590: 04,2530                                           COUNT*   $$/R36
001591:


001595: 04,2530           07766        R36                TC       SETXDSP
001596: 04,2531           22007                           ZL
001597: 04,2532           35030                           CAF      ZERO                                  #  SET TIME OF EVENT TO ZERO FOR FIRST
001598: 04,2533           53053                           DXCH     DSPTEMX                               #  DISPLAY
001599: 04,2534           32664                           CAF      V06N16N
001600: 04,2535           04655                           TC       BANKCALL
001601: 04,2536           20226                           CADR     GOMARKF
001602: 04,2537           15564                           TCF      ENDEXT                                #  TERMINATE
001603: 04,2540           12542                           TCF      +2                                    #  PROCEED
001604: 04,2541           12534                           TCF      -5                                    #  RECYCLE FOR ASTRONAUT INPUT TIME
001605: 04,2542           53053                           DXCH     DSPTEMX
001606: 04,2543           00006                           EXTEND
001607: 04,2544           12653                           BZF      LREGCHK                               #  A-REG ZERO GOTO CHECK L-REG FOR ZERO
001608: 04,2545           52155        ASTROTIM           DXCH     MPAC                                  #  A-REG NON-ZERO, TIME = ASTRO INPUT TIME
001609: 04,2546           06014                           TC       INTPRET
001610: 04,2547           77634                           RTB
001611: 04,2550           21662                                    DPMODE
001612: 04,2551           34041        R36INT             STCALL   TDEC1
001613: 04,2552           27014                                    OTHPREC
001614: 04,2553           63375                           VLOAD    PDVL
001615: 04,2554           00007                                    VATT
001616: 04,2555           00001                                    RATT                                  #  -
001617: 04,2556           02215                           STORE    RPASS36                               #  R
001618: 04,2557           63256                           UNIT     PDVL                                  #   P
001619: 04,2560           53435                           VXV      UNIT                                  #  -
001620: 04,2561           77626                           STADR
001621: 04,2562           61554                           STODL    UNP36                                 #  U
001622: 04,2563           00015                                    TAT
001623: 04,2564           34041                           STCALL   TDEC1
001624: 04,2565           27030                                    THISPREC
001625: 04,2566           63375                           VLOAD    PDVL                                  #                  -
001626: 04,2567           00007                                    VATT                                  #  VELOCITY VECTOR V             00D
001627: 04,2570           00001                                    RATT                                  #                   A
001628: 04,2571           77725                           PDDL
001629: 04,2572           00015                                    TAT                                   #  SAVE TIME IN LOCATION 30D FOR REDISPLAY
001630: 04,2573           24037                           STOVL    30D                                   #                  -
001631: 04,2574           41406                           PUSH     PUSH                                  #  POSITION VECTOR R  IN 06D AND 12D
001632: 04,2575           63245                           BVSU     PDVL                                  #                   A   -   -
001633: 04,2576           02215                                    RPASS36                               #  LINE OF SIGHT VECTOR R - R    12D
001634: 04,2577           72441                           DOT      SL1                                   #                        P   A
001635: 04,2600           02223                                    UNP36                                 #      -   -
001636: 04,2601           26207                           STOVL    RANGE                                 #  Y = U . R
001637: 04,2602           00001                                    00D                                   #           A
001638: 04,2603           72441                           DOT      SL1
001639: 04,2604           02223                                    UNP36                                 #  .   -   -
001640: 04,2605           26211                           STOVL    RRATE                                 #  Y = U . V
001641: 04,2606           00007                                    06D                                   #  -        A  -
001642: 04,2607           41456                           UNIT     PUSH                                  #  U  = UNIT ( R  )              18D
001643: 04,2610           47235                           VXV      VXV                                   #   RA          A
001644: 04,2611           00001                                    00D                                   #   -    -     -     -
001645: 04,2612           00023                                    18D                                   #  (U  X V ) X U   = U
001646: 04,2613           53552                           VSL2     UNIT                                  #    RA   A     RA    A


001648: 04,2614           77656                           UNIT
001649: 04,2615           24001                           STOVL    00D                                   #  UNIT HORIZONTAL IN FORWARD DIR. 00D
001650: 04,2616           00023                                    18D
001651: 04,2617           74241                           DOT      VXSC                                  #  -
001652: 04,2620           00015                                    12D                                   #  U
001653: 04,2621           77752                           VSL2                                           #   L
001654: 04,2622           53445                           BVSU     UNIT


001656: 04,2623           77656                           UNIT
001657: 04,2624           50206                           PUSH     DOT                                   #  LOS PROJECTED INTO HORIZONTAL  12D
001658: 04,2625           00001                                    00D                                   #  PLANE
001659: 04,2626           65552                           SL1      ARCCOS                                #               -   -
001660: 04,2627           26213                           STOVL    RTHETA                                #  PSI = ARCCOS(U . U )
001661: 04,2630           50235                           VXV      DOT                                   #                A   L
001662: 04,2631           00001                                    00D
001663: 04,2632           71244                           BPL      DLOAD
001664: 04,2633           10640                                    R36TAG2
001665: 04,2634           22307                                    LODPMAX
001666: 04,2635           77625                           DSU
001667: 04,2636           02213                                    RTHETA
001668: 04,2637           02213                           STORE    RTHETA
001669: 04,2640           47145        R36TAG2            DLOAD    RTB
001670: 04,2641           00037                                    30D
001671: 04,2642           21510                                    SGNAGREE
001672: 04,2643           01053                           STORE    DSPTEMX
001673: 04,2644           77776                           EXIT
001674: 04,2645           32665                           CAF      V06N90N                               #   DISPLAY Y , YDOT , AND PSI
001675: 04,2646           04655                           TC       BANKCALL
001676: 04,2647           20226                           CADR     GOMARKF
001677: 04,2650           15564                           TCF      ENDEXT                                #  TERMINATE
001678: 04,2651           15564                           TCF      ENDEXT                                #  PROCEED , END OF PROGRAM
001679: 04,2652           12533                           TCF      R36        +3                         #  REDISPLAY OUTPUT
001680: 04,2653           56001        LREGCHK            XCH      L
001681: 04,2654           00006                           EXTEND
001682: 04,2655           12660                           BZF      ENTTIM2                               #  L-REG ZERO, SET TIME = PRESENT TIME
001683: 04,2656           56001                           XCH      L                                     #  L-REG NON ZERO, TIME = ASTRO INPUT TIME
001684: 04,2657           12545                           TCF      ASTROTIM
001685: 04,2660           06014        ENTTIM2            TC       INTPRET
001686: 04,2661           52034                           RTB      GOTO
001687: 04,2662           21454                                    LOADTIME
001688: 04,2663           10551                                    R36INT
001689: 04,2664           01420        V06N16N            VN       00616
001690: 04,2665           01532        V06N90N            VN       00690

End of include-file P34-P35,_P74-P75.agc.  Parent file is MAIN.agc


