
Source Code


000002:                                                                                                  ## Copyright:   Public domain.
000003:                                                                                                  ## Filename:    P40-P47.agc
000004:                                                                                                  ## Purpose:     A section of an attempt to reconstruct Sundance revision 306
000005:                                                                                                  ##              as closely as possible with available information. Sundance
000006:                                                                                                  ##              306 is the source code for the Lunar Module's (LM) Apollo
000007:                                                                                                  ##              Guidance Computer (AGC) for Apollo 9. This program was created
000008:                                                                                                  ##              using the mixed-revision SundanceXXX as a starting point, and
000009:                                                                                                  ##              pulling back features from Luminary 69 believed to have been
000010:                                                                                                  ##              added based on memos, checklists, observed address changes,
000011:                                                                                                  ##              or the Sundance GSOPs.
000012:                                                                                                  ## Assembler:   yaYUL
000013:                                                                                                  ## Contact:     Ron Burkey <info@sandroid.org>.
000014:                                                                                                  ## Website:     www.ibiblio.org/apollo/index.html
000015:                                                                                                  ## Mod history: 2020-07-24 MAS  Created from SundanceXXX.
000016:
000017:
000018:
000019:                                                                                                  #  PROGRAM DESCRIPTION  P40BOTH    DECEMBER 22, 1966
000020:                                                                                                  #  MOD 03 BY PETER ADLER           MARCH 3, 1967
000021:                                                                                                  #  CALLED VIA JOB FROM V37E
000022:
000023:                                                                                                  #  FUNCTIONAL DESCRIPTION
000024:
000025:                                                                                                  #           1)  TO COMPUTE A PREFERRED IMU ORIENTATION AND A PREFERRED VEHICLE ATTITUDE FOR A LM DPS
000026:                                                                                                  #               THRUSTING MANEUVER.
000027:


000029:
000030:                                                                                                  #           3)  TO DO THE VEHICLE MANEUVER TO THE THRUSTING ATTITUDE.
000031:
000032:                                                                                                  #           4)  TO CONTROL THE PGNCS DURING COUNTDOWN, IGNITION, THRUSTING, AND THRUST TERMINATION OF A
000033:                                                                                                  #               PGNCS CONTROLLED DPS MANEUVER.
000034:
000035:                                                                                                  #           5)  IN POSTBURN--ZERO RENDEZVOUS COUNTER, MAINTAIN VG CALCULATIONS FOR POSSIBLE RCS MANEUVER,
000036:                                                                                                  #                            SET MAXIMUM DEADBAND IN DAP, RESET STEERLAW CSTEER TO ZERO.
000037:
000038:                                                                                                  #           NOTE:  P42, WHICH IS IN THIS LOG SECTION, DOES THE SAME FOR AN APS BURN, AND P41 DOES 1-3 FOR
000039:                                                                                                  #                  RCS PLUS DISPLAYS PARAMETERS FOR MANUAL CONTROL.
000040:
000041:                                                                                                  #  SUBROUTINES USED
000042:
000043:                                                                                                  #           R02      IMU STATUS CHECK
000044:                                                                                                  #           S40.1    COMPUTATION OF THRUST DIRECTION
000045:                                                                                                  #           S40.13   LENGTH OF BURN
000046:                                                                                                  #           S40.2,3  PREFERRED IMU ORIENATTION
000047:                                                                                                  #           S40.8    X PRODUCT STEERING
000048:                                                                                                  #           S40.9    LAMBERT VTOGAIN
000049:                                                                                                  #           R60LEM   ATTITUDE MANEUVER
000050:                                                                                                  #           LEMPREC  EXTRAPOLATE STATE VECTOR
000051:                                                                                                  #           PREREAD  AVERAGE G, SERVICER
000052:                                                                                                  #           ALLCOAST DAP COASTING INITIALIZATION
000053:                                                                                                  #           CLOKTASK ERGO CLOCKJOB--COUNT DOWN
000054:                                                                                                  #           PHASCHNG, INTPRET, FLAGUP, FLAGDOWN, WAITLIST, LONGCALL, GOFLASH, GOFLASHR, GOPERF1, ALARM,
000055:                                                                                                  #           PRIOLARM, GOTOPOOH, ENDOFJOB, BANKCALL, SETMAXDB, SETMINDB, CHECKMM, FLATOUT, OUTFLAT,
000056:                                                                                                  #           KILLTASK, SGNAGREE, TPAGREE, ETC.
000057:
000058:                                                                                                  #  RESTARTS VIA GROUP 4
000059:
000060:                                                                                                  #  DISPLAYS
000061:
000062:                                                                                                  #           V50N25  203 A/P TO PGNCS, AUTO THROTTLE MODE, AUTO ATTITUDE CONTROL
000063:                                                                                                  #           V06N40  TTI, VG, DELTAVM (DISPLAYED ONCE/SECOND BY CLOKTASK)
000064:                                                                                                  #           V50N99  PLEASE PERFORM ENGINE ON ENABLE
000065:                                                                                                  #           V06N40  TG (TIME TO GO TO CUTOFF), VG, DELTAVM--ONCE/SECOND
000066:                                                                                                  #           V16N40  FINAL VALUES OF TG, VG, DELTAVM
000067:                                                                                                  #           V16N85  COMP OF VG (BODY AXES) FOR POSS. RCS MANUAL MANEUVER
000068:                                                                                                  #           V05N09  POSSIBLE ALARMS
000069:                                                                                                  #           V50N07  PLEASE SELECT P00
000070:
000071:                                                                                                  #           VIA R30
000072:
000073:                                                                                                  #           V06N44  HAPO, PERI, TFF
000074:                                                                                                  #           V06N35  TIME TO PERIGEE, HMS
000075:
000076:                                                                                                  #  ALARM OR ABORT EXIT MODES
000077:
000078:                                                                                                  #           PROGRAM ALARM, FLASHING DISPLAY OF ALARM CODE 1706 IF P40 SELECTED WITH DESCENT UNIT STAGED.
000079:                                                                                                  #           V34E (TERMINATE) IS THE ONLY RESPONSE ACCEPTED. TC GOTOPOOH.
000080:
000081:                                                                                                  #           PROGRAM ALARM, FLASH CODE 1703:  TIG LESS THAN 45 SECS AWAY.  V34E=  GOTOPOOH OR V33E=  SLIP
000082:                                                                                                  #           TIG BY 45 SECS.
000083:
000084:                                                                                                  #  ERASABLE INITIALIZATION
000085:                                                                                                  #  DEBRIS
000086:                                                                                                  #  OUTPUT
000087:
000088:                                                                                                  #           SEE SUBROUTINES E.G.:  S40.1, S40.2,3, S40.13, S40.8, S40.9, TRIMGIMB
000089:                                                                                                  #           XDELVFLG = 1 FOR EXT DELV COMPUTATION
000090:                                                                                                  #                    = 0 FOR AIMPT (LAMBERT) COMP
000091:
000092: 27,2253                                           COUNT*   $$/P40
000093: 27,2253  E7,1430                                  EBANK=   WHICH
000094:
000095: 36,3133                                           BANK     36
000096: 36,2000                                           SETLOC   P40S
000097: 36,2000                                           BANK
000098:
000099: 36,3133           33114        P40LM              CAF      P40ADRES                              #  INITIALIZATION FOR BURNBABY.
000100: 36,3134           55430                           TS       WHICH
000101:
000102: 36,3135           00006                           EXTEND
000103: 36,3136           00030                           READ     CHAN30
000104: 36,3137           40000                           COM
000105: 36,3140           75025                           MASK     BIT2
000106: 36,3141           00006                           EXTEND
000107: 36,3142           13714                           BZF      P40ALM
000108: 36,3143           04655                           TC       BANKCALL                              #  GO DO IMU STATUS CHECK ROUTINE.
000109: 36,3144           11067                           CADR     R02BOTH
000110:
000111: 36,3145           41102                           CS       DAPBOOLS                              #  INITIALIZE DVMON
000112: 36,3146           75012                           MASK     CSMDOCKD
000113: 36,3147           10000                           CCS      A
000114: 36,3150           33757                           CAF      THRESH1
000115: 36,3151           63761                           AD       THRESH3
000116: 36,3152           55201                           TS       DVTHRUSH
000117: 36,3153           35026                           CAF      ONE
000118: 36,3154           55202                           TS       AUXFLAG
000119: 36,3155           35024                           CAF      FOUR
000120: 36,3156           55472                           TS       DVCNTR
000121:
000122: 36,3157           06014                           TC       INTPRET                               #  LOAD CONSTANTS FOR DPS BURN
000123: 36,3160           43175                           VLOAD    CLEAR                                 #  LOAD F, MDOT, TDECAY
000124: 36,3161           35725                                    FDPS
000125: 36,3162           02663                                    NOTHROTL
000126: 36,3163           03723                           STORE    F
000127: 36,3164           77624        P40IN              CALL
000128: 36,3165           56253                                    S40.1                                 #  COMPUTES UT AND VGTIG
000129: 36,3166           77624                           CALL
000130: 36,3167           56416                                    S40.2,3                               #  COMPUTES PREFERRED IMU ORIENTATION
000131: 36,3170           77776                           EXIT
000132:
000133: 36,3171           00004                           INHINT
000134: 36,3172           04737                           TC       IBNKCALL
000135: 36,3173           40223                           CADR     PFLITEDB                              #  ZERO ATTITUDE ERRORS, SET DB TO ONE DEG.
000136:
000137: 36,3174           03176                           TC       P40SXT4
000138:
000139:
000140:                                                                                                  #                ***********************
000141: 36,3175           12133                           TCF      BURNBABY
000142:                                                                                                  #                ***********************
000143:
000144:
000145: 36,3176           00006        P40SXT4            EXTEND
000146: 36,3177           23153                           QXCH     P40/RET
000147: 36,3200           00003        P41MANU            RELINT
000148:
000149: 36,3201           05600                           TC       DOWNFLAG                              #  CLEAR 3AXISFLG -- R60 WILL USE VECPOINT.
000150: 36,3202           00124                           ADRES    3AXISFLG
000151:
000152: 36,3203           04655                           TC       BANKCALL
000153: 36,3204           54103                           CADR     R60LEM                                #  DO ATTITUDE MANEUVER ROUTINE
000154: 36,3205           01153                           TC       P40/RET
000155:
000156:
000157: 36,3206  E7,1447                                  EBANK=   TRKMKCNT
000158: 36,3206           35062        POSTBURN           CA       LOW10
000159: 36,3207           55175                           TS       DISPDEX
000160: 36,3210           00006                           EXTEND
000161: 36,3211           32040                           DCA      ACADN85
000162: 36,3212           53253                           DXCH     AVEGEXIT
000163: 36,3213           33763                           CAF      V16N40
000164: 36,3214           04655                           TC       BANKCALL
000165: 36,3215           20544                           CADR     GOFLASHR
000166: 36,3216           03241                           TC       TERM40
000167: 36,3217           13224                           TCF      TIGNOW
000168: 36,3220           03206                           TC       POSTBURN
000169:
000170: 36,3221           05423        P40PHS1            TC       PHASCHNG
000171: 36,3222           00014                           OCT      00014
000172: 36,3223           15225                           TCF      ENDOFJOB
000173:
000174: 36,3224           00004        TIGNOW             INHINT
000175: 36,3225           04737                           TC       IBNKCALL
000176: 36,3226           40232                           CADR     ZATTEROR
000177: 36,3227           04737                           TC       IBNKCALL
000178: 36,3230           40221                           CADR     SETMINDB
000179: 36,3231           00003                           RELINT
000180: 36,3232           33764                           CAF      V16N85B
000181: 36,3233           04655                           TC       BANKCALL
000182: 36,3234           20375                           CADR     REFLASHR
000183: 36,3235           03241                           TC       TERM40
000184: 36,3236           13241                           TCF      TERM40
000185: 36,3237           03232                           TC       -5
000186:
000187: 36,3240           13221                           TCF      P40PHS1
000188:
000189: 36,3241           00006        TERM40             EXTEND
000190: 36,3242           32071                           DCA      SERVCADR
000191: 36,3243           53253                           DXCH     AVEGEXIT
000192: 36,3244           35030                           CAF      ZERO
000193: 36,3245           55447                           TS       TRKMKCNT                              #       ZERO RENDZVS CNTERS
000194: 36,3246           35062                           CA       LOW10
000195: 36,3247           55175                           TS       DISPDEX
000196: 36,3250           00004                           INHINT
000197: 36,3251           04737                           TC       IBNKCALL
000198: 36,3252           40204                           CADR     RESTORDB
000199: 36,3253           00003                           RELINT
000200: 36,3254           04106                           TC       GOTOPOOH
000201:
000202: 36,3255  E7,1430                                  EBANK=   WHICH
000203: 36,3255                                           COUNT*   $$/P41
000204: 36,3255           33115        P41LM              CAF      P41ADRES                              #  INITIALIZATION FOR BURNBABY
000205: 36,3256           55430                           TS       WHICH
000206:
000207: 36,3257           04655                           TC       BANKCALL
000208: 36,3260           11067                           CADR     R02BOTH
000209:
000210: 36,3261           06014                           TC       INTPRET                               #  BOTH LM
000211: 36,3262           71214                           BON      DLOAD                                 #  IF NJETSFLAG IS SET, LOAD 2 JET F
000212: 36,3263           00700                                    NJETSFLG
000213: 36,3264           75270                                    P41FJET1
000214: 36,3265           35733                                    FRCS4                                 #  IF NJETSFLAG IS CLEAR, LOAD 4 JET F
000215:
000216: 36,3266           37723        P41FJET            STCALL   F
000217: 36,3267           75273                                    P41IN
000218: 36,3270           77745        P41FJET1           DLOAD
000219:
000220: 36,3271           35735                                    FRCS2
000221: 36,3272           03723                           STORE    F
000222:
000223: 36,3273           77624        P41IN              CALL
000224: 36,3274           56253                                    S40.1                                 #  BOTH
000225: 36,3275           77624        P41NORM            CALL
000226: 36,3276           56416                                    S40.2,3                               #  CALCULATE PREFERRED IMU ORIENTATION AND
000227: 36,3277           77776                           EXIT                                           #  SET PFRATFLG.
000228:
000229: 36,3300           00004                           INHINT
000230: 36,3301           04737                           TC       IBNKCALL
000231: 36,3302           40232                           CADR     ZATTEROR                              #  ZERO ATTITUDE ERRORS
000232: 36,3303           04737                           TC       IBNKCALL
000233: 36,3304           40221                           CADR     SETMINDB                              #  SET 0.3 DEGREE DEADBAND
000234: 36,3305           03176                           TC       P40SXT4
000235:
000236: 36,3306           06014                           TC       INTPRET
000237: 36,3307           45175                           VLOAD    CALL                                  #  TRANSFORM VELOCITY-TO-BE-GAINED AT TIG
000238: 36,3310           03674                                    VGTIG                                 #  FROM REFERENCE COORDINATES TO LM BODY-
000239: 36,3311           57307                                    S41.1                                 #  AXIS COORDINATES FOR V16N85 DISPLAY.
000240: 36,3312           03773                           STORE    VGBODY                                #  (SCALED AT 2 (+7) METERS/CENTISECOND)
000241: 36,3313           77776                           EXIT
000242:
000243: 36,3314           33764                           CAF      V16N85B
000244: 36,3315           04655                           TC       BANKCALL
000245: 36,3316           20361                           CADR     GODSPRET
000246:
000247:
000248: 36,3317           35067                           CAF      PRIO5
000249: 36,3320           55175                           TS       DISPDEX                               #  FOR SAFETY ONLY
000250: 36,3321           05155                           TC       FINDVAC
000251: 36,3322  E7,1673                                  EBANK=   VGPREV
000252: 36,3322           03344 74067                     2CADR    DYNMDISP
000253:
000254: 36,3324           05403                           TC       2PHSCHNG
000255: 36,3325           00076                           OCT      00076                                 #  GROUP 6 RESTARTS AT REDO6.7
000256: 36,3326           04024                           OCT      04024                                 #  GROUP 4 RESTARTS HERE
000257:
000258:                                                                                                  #                ***********************
000259: 36,3327           12142                           TCF      B*RNB*B*
000260:                                                                                                  #                ***********************
000261:
000262:
000263: 36,3330           35047        BLNKWAIT           CAF      1SEC
000264: 36,3331           04655                           TC       BANKCALL
000265: 36,3332           01732                           CADR     DELAYJOB
000266:
000267: 36,3333           31175        REDO6.7            CA       DISPDEX                               #  ON A RESTART, DO NOT PUT UP DISPLAY IF
000268: 36,3334           65025                           AD       TWO                                   #  BLANKING (BETWEEN TIG-35 AND TIG-30)
000269:
000270:                                                                                                  #                ***********************
000271:
000272:
000273: 36,3335           00006                           EXTEND
000274: 36,3336           13330                           BZF      BLNKWAIT
000275:
000276: 36,3337           33764                           CAF      V16N85B
000277: 36,3340           04655                           TC       BANKCALL
000278: 36,3341           20361                           CADR     GODSPRET
000279:
000280: 36,3342           35067                           CAF      PRIO5
000281: 36,3343           05216                           TC       PRIOCHNG
000282:
000283: 36,3344           31175        DYNMDISP           CA       DISPDEX                               #  A NON-POSITIVE DISPDEX INDICATES PAST
000284: 36,3345           00006                           EXTEND                                         #  TIG-35, SO SERVICER WILL BE DOING THE
000285: 36,3346           65225                           BZMF     ENDOFJOB                              #  UPDATING OF NOUN 85. STOP DYNMDISP.
000286: 36,3347           06014                           TC       INTPRET
000287: 36,3350           45175                           VLOAD    CALL
000288: 36,3351           03674                                    VGPREV
000289: 36,3352           57307                                    S41.1
000290: 36,3353           03773                           STORE    VGBODY
000291: 36,3354           77776                           EXIT
000292: 36,3355           35047                           CAF      1SEC
000293: 36,3356           04655                           TC       BANKCALL
000294: 36,3357           01732                           CADR     DELAYJOB
000295: 36,3360           13344                           TCF      DYNMDISP
000296:
000297: 36,3361           06014        CALCN85            TC       INTPRET
000298: 36,3362           77624                           CALL
000299: 36,3363           75607                                    UPDATEVG
000300: 36,3364           45175                           VLOAD    CALL
000301: 36,3365           03674                                    VGPREV
000302: 36,3366           57307                                    S41.1
000303: 36,3367           03773                           STORE    VGBODY
000304: 36,3370           77776                           EXIT
000305: 36,3371           04674                           TC       POSTJUMP
000306: 36,3372           66354                           CADR     SERVEXIT
000307:
000308: 36,3373                                           COUNT*   $$/P42
000309: 36,3373  E7,1430                                  EBANK=   WHICH
000310:
000311: 36,3373           33116        P42LM              CAF      P42ADRES                              #  INITIALIZATION FOR BURNBABY.
000312: 36,3374           55430                           TS       WHICH
000313:
000314: 36,3375           00006                           EXTEND
000315: 36,3376           00030                           READ     CHAN30
000316: 36,3377           40000                           COM
000317: 36,3400           75025                           MASK     BIT2
000318: 36,3401           10000                           CCS      A
000319: 36,3402           03714                           TC       P40ALM
000320: 36,3403           04655                           TC       BANKCALL
000321: 36,3404           11067                           CADR     R02BOTH
000322: 36,3405           33760                           CAF      THRESH2                               #  INITIALIZE DVMON
000323: 36,3406           55201                           TS       DVTHRUSH
000324: 36,3407           35026                           CAF      ONE
000325: 36,3410           55202                           TS       AUXFLAG
000326: 36,3411           35024                           CAF      FOUR
000327: 36,3412           55472                           TS       DVCNTR
000328:
000329: 36,3413           06014                           TC       INTPRET
000330: 36,3414           77214                           SET      VLOAD                                 #  LOAD FAPS, MDOTAPS, AND ATDECAY INTO
000331: 36,3415           01072                                    AVFLAG                                #  F, MDOT, AND TDECAY BY VECTOR LOAD.
000332: 36,3416           35737                                    FAPS
000333: 36,3417           37723                           STCALL   F
000334: 36,3420           75164                                    P40IN
000335:
000336: 36,3421  E7,1430                                  EBANK=   WHICH
000337:
000338: 36,3421                                           COUNT*   $$/P47
000339: 36,3421           04655        P47LM              TC       BANKCALL
000340: 36,3422           11067                           CADR     R02BOTH
000341: 36,3423           06014                           TC       INTPRET
000342: 36,3424           43234                           RTB      DAD
000343: 36,3425           21454                                    LOADTIME
000344: 36,3426           35745                                    SEC60DP
000345: 36,3427           03425                           STORE    TIG
000346: 36,3430           77776                           EXIT
000347:
000348: 36,3431           00006                           EXTEND
000349: 36,3432           33745                           DCA      SEC60DP
000350: 36,3433           05347                           TC       LONGCALL
000351: 36,3434  E7,1430                                  EBANK=   WHICH
000352: 36,3434           03445 74067                     2CADR    STARTP47
000353:
000354: 36,3436           00003                           RELINT
000355: 36,3437           06014                           TC       INTPRET
000356: 36,3440           45145                           DLOAD    CALL
000357: 36,3441           03425                                    TIG
000358: 36,3442           64671                                    TIGINT     -1
000359: 36,3443           77776                           EXIT
000360:
000361: 36,3444           15225                           TCF      ENDOFJOB
000362:
000363: 36,3445           05423        STARTP47           TC       PHASCHNG
000364: 36,3446           05014                           OCT      05014
000365: 36,3447           77777                           OCT      77777
000366:
000367: 36,3450           00006                           EXTEND
000368: 36,3451           33767                           DCA      ACADN83
000369: 36,3452           53253                           DXCH     AVEGEXIT
000370: 36,3453           35011                           CAF      PRIO20
000371: 36,3454           05155                           TC       FINDVAC
000372: 36,3455  E7,1607                                  EBANK=   DELVIMU
000373: 36,3455           03511 74067                     2CADR    P47BODY
000374: 36,3457           12372                           TCF      REDO4.2                               #  CHECKS PHASE 5 AND GOES TO PREREAD
000375:                                                                                                  #  SEE TIG-30 IN BURNBABY.
000376:
000377: 36,3460           06014        CALCN83            TC       INTPRET
000378: 36,3461           53375                           VLOAD    VAD
000379: 36,3462           03773                                    DELVCTL
000380: 36,3463           03504                                    DELVREF
000381: 36,3464           03643                           STORE    DELVSIN                               #  TEMP STORAGE FOR RESTARTS
000382:
000383: 36,3465           77624                           CALL
000384: 36,3466           57307                                    S41.1
000385: 36,3467           03610                           STORE    DELVIMU
000386: 36,3470           77776                           EXIT
000387: 36,3471           05423                           TC       PHASCHNG
000388: 36,3472           10035                           OCT      10035                                 #  REREADAC AND HERE
000389:
000390: 36,3473           06014                           TC       INTPRET
000391: 36,3474           77775                           VLOAD
000392: 36,3475           03643                                    DELVSIN
000393: 36,3476           03773                           STORE    DELVCTL
000394: 36,3477           77776                           EXIT
000395:
000396: 36,3500           04674                           TC       POSTJUMP
000397: 36,3501           66354                           CADR     SERVEXIT
000398:
000399: 36,3502           33765        P47BOD             CAF      V1683
000400: 36,3503           04655                           TC       BANKCALL
000401: 36,3504           20544                           CADR     GOFLASHR
000402: 36,3505           04106                           TC       GOTOPOOH
000403: 36,3506           04106                           TC       GOTOPOOH
000404:
000405: 36,3507           13511                           TCF      P47BODY
000406:
000407: 36,3510           13221                           TCF      P40PHS1
000408:
000409: 36,3511           06014        P47BODY            TC       INTPRET
000410: 36,3512           77775                           VLOAD
000411: 36,3513           06233                                    HI6ZEROS
000412: 36,3514           03610                           STORE    DELVIMU
000413: 36,3515           03773                           STORE    DELVCTL
000414: 36,3516           77776                           EXIT
000415: 36,3517           03502                           TC       P47BOD
000416:
000417: 36,3520                                           COUNT*   $$/P40
000418: 36,3520           31474        IMPLBURN           CA       TGO        +1
000419: 36,3521           05243                           TC       TWIDDLE
000420: 36,3522           03537                           ADRES    ENGOFTSK
000421: 36,3523           05600                           TC       DOWNFLAG                              #  TURN OFF IGNFLAG
000422: 36,3524           00153                           ADRES    IGNFLAG
000423: 36,3525           05600                           TC       DOWNFLAG                              #  TURN OFF ASTNFLG
000424: 36,3526           00154                           ADRES    ASTNFLAG
000425: 36,3527           05600                           TC       DOWNFLAG                              #  TURN OFF IMPULSW
000426: 36,3530           00044                           ADRES    IMPULSW
000427: 36,3531           05423                           TC       PHASCHNG                              #  RESTART PROTECT ENGOFTSK (ENGINOFF)
000428: 36,3532           40114                           OCT      40114
000429:
000430: 36,3533           05271                           TC       FIXDELAY                              #  WAIT HALF A SECOND
000431: 36,3534           00062                           DEC      50         B-14
000432:
000433: 36,3535           02643                           TC       NOULLAGE                              #  TURN OFF ULLAGE
000434:
000435: 36,3536           05331                           TC       TASKOVER
000436:
000437: 36,3537           04737        ENGOFTSK           TC       IBNKCALL                              #  THIS CODING ALLOWS ENGINOFF ET AL TO BE
000438: 36,3540           75542                           CADR     ENGINOFF                              #  USED BOTH BY WAITLIST AND BY TC IBNKCALL
000439: 36,3541           05331                           TC       TASKOVER
000440:
000441: 36,3542           34703        ENGINOFF           CAF      PRIO12                                #  MUST BE LOWER PRIO THAN CLOCKJOB
000442: 36,3543           05155                           TC       FINDVAC
000443: 36,3544  E7,1447                                  EBANK=   TRKMKCNT
000444: 36,3544           03206 74067                     2CADR    POSTBURN
000445:
000446: 36,3546           40103        ENGINOF1           CS       FLAGWRD7                              #  SET THE IDLE BIT.
000447: 36,3547           75020                           MASK     IDLEFBIT
000448: 36,3550           26103                           ADS      FLAGWRD7
000449:
000450: 36,3551           02643                           TC       NOULLAGE
000451:
000452: 36,3552           00006                           EXTEND
000453: 36,3553           30025                           DCA      TIME2
000454: 36,3554           53355                           DXCH     TEVENT
000455:
000456: 36,3555           35026        ENGINOF2           CAF      BIT1
000457: 36,3556           05252                           TC       WAITLIST
000458: 36,3557  E6,1420                                  EBANK=   OMEGAQ
000459: 36,3557           03604 74066                     2CADR    COASTSET
000460:
000461: 36,3561           44367        ENGINOF3           CS       PRIO30                                #  ENGINOF3 IS USED AS A PRE-ENGINE ARM
000462: 36,3562           00006                           EXTEND                                         #  SUBROUTINE.
000463: 36,3563           02011                           RAND     DSALMOUT
000464: 36,3564           65011                           AD       PRIO20                                #  TURN OFF THE ENGINE - DPS OR APS
000465: 36,3565           00006                           EXTEND
000466: 36,3566           01011                           WRITE    DSALMOUT
000467:
000468: 36,3567           45020                           CS       ENGONBIT                              #  INSURE ENGONFLG IS CLEAR.
000469: 36,3570           70101                           MASK     FLAGWRD5
000470: 36,3571           54101                           TS       FLAGWRD5
000471:
000472: 36,3572           41102                           CS       DAPBOOLS                              #  TURN OFF TRIM GIMBAL
000473: 36,3573           75011                           MASK     USEQRJTS
000474: 36,3574           27102                           ADS      DAPBOOLS
000475:
000476: 36,3575           45012                           CS       HIRTHROT                              #  ZERO AUTO-THROTTLE WHENEVER THE ENGINE
000477: 36,3576           55417                           TS       PIF
000478: 36,3577           54055                           TS       THRUST                                #  IS TURNED OFF.
000479: 36,3600           35023                           CAF      BIT4                                  #  THE HARDWARE DOES SO ONLY WHEN THE
000480: 36,3601           00006                           EXTEND                                         #  ENGINE IS DISARMED.
000481: 36,3602           05014                           WOR      CHAN14
000482:
000483: 36,3603           04752                           TC       ISWRETRN
000484:
000485: 36,3604           04737        COASTSET           TC       IBNKCALL                              #  DO DAP COASTING INITIALIZATION
000486: 36,3605           40263                           CADR     ALLCOAST
000487: 36,3606           05331                           TC       TASKOVER
000488:
000489: 36,3607  E6,1420                                  EBANK=   OMEGAQ
000490: 36,3607           45020        UPDATEVG           STQ      CALL
000491: 36,3610           03652                                    QTEMP1
000492: 36,3611           56440                                    S40.8                                 #  X-PRODUCT STEERING
000493: 36,3612           43014                           BON      BOFSET
000494: 36,3613           01307                                    XDELVFLG
000495: 36,3614           03652                                    QTEMP1
000496: 36,3615           01045                                    CYCLESW
000497: 36,3616           03652                                    QTEMP1
000498: 36,3617           77776                           EXIT
000499:
000500: 36,3620           10755                           CCS      PHASE2
000501: 36,3621           13634                           TCF      ENDSTEER                              #  GROUP 2 ACTIVE --> LAMBERT STILL GOING.
000502:
000503: 36,3622           35012                           CAF      PRIO10
000504: 36,3623           00004                           INHINT
000505: 36,3624           05155                           TC       FINDVAC
000506: 36,3625  E7,1702                                  EBANK=   VG
000507: 36,3625           03071 56067                     2CADR    S40.9                                 #  LAMBERT VTOGAIN
000508:
000509: 36,3627           05403                           TC       2PHSCHNG
000510: 36,3630           00172                           OCT      00172                                 #  2.17SPOT FOR S40.9
000511: 36,3631           10035                           OCT      10035                                 #  HERE AND REREADAC AFTER RESTART
000512:
000513: 36,3632           05600                           TC       DOWNFLAG
000514: 36,3633           00043                           ADRES    CYCLESW                               #  VG CALCULATION OMITTED
000515: 36,3634           06014        ENDSTEER           TC       INTPRET
000516: 36,3635           77650                           GOTO
000517: 36,3636           03652                                    QTEMP1
000518:
000519: 36,3637           06014        STEERING           TC       INTPRET
000520:
000521: 36,3640           77624                           CALL
000522: 36,3641           75607                                    UPDATEVG
000523: 36,3642           77776                           EXIT
000524:
000525: 36,3643  E7,1472                                  EBANK=   DVCNTR
000526: 36,3643           00004        NSTEER             INHINT
000527: 36,3644           35066                           CA       EBANK7
000528: 36,3645           54003                           TS       EBANK
000529:                                                                                                  #  PHASE CHANGE IN SERVERICER NEEDED HERE *********************************
000530: 36,3646           40076                           CS       FLAGWRD2                              #  CHECK IMPULSE SWITCH.  IT IS SET EITHER
000531: 36,3647           75016                           MASK     IMPULBIT                              #  BY S40.13 IF TBURN<6 SECS OR BY S40.8 IF
000532: 36,3650           10000                           CCS      A                                     #  STEERING IS ALMOST DONE.
000533:
000534: 36,3651           13656                           TCF      +5                                    #  IMPULSW = 0    EXIT
000535:
000536: 36,3652           40103                           CS       FLAGWRD7                              #  IMPULSW = 1    WHY?  CHECK IDLEFLAG
000537: 36,3653           75020                           MASK     IDLEFBIT                              #      (IDLEFLAG = 0 --> DVMON ON)
000538: 36,3654           10000                           CCS      A
000539: 36,3655           13660                           TCF      +3                                    #  DVMON ON-->THRUSTING-->IMPULSW VIA S40.8
000540: 36,3656           04674                           TC       POSTJUMP                              #  DVMON OFF-->IMPULSW ON VIA S40.13-->EXIT
000541: 36,3657           66354                           CADR     SERVEXIT
000542:
000543: 36,3660           05600                           TC       DOWNFLAG                              #  TURN OFF IMPULSW
000544: 36,3661           00044                           ADRES    IMPULSW
000545:
000546: 36,3662           05566                           TC       UPFLAG
000547: 36,3663           00161                           ADRES    IDLEFLAG                              #  TURN OFF DVMON
000548:
000549: 36,3664           00004                           INHINT
000550: 36,3665           00006                           EXTEND
000551: 36,3666           31425                           DCA      TIG
000552: 36,3667           52155                           DXCH     MPAC
000553: 36,3670           00006                           EXTEND
000554: 36,3671           40025                           DCS      TIME2
000555: 36,3672           20155                           DAS      MPAC
000556: 36,3673           07231                           TC       TPAGREE
000557: 36,3674           30155                           CAE      MPAC       +1
000558: 36,3675           10000                           CCS      A
000559: 36,3676           13701                           TCF      +3
000560: 36,3677           13701                           TCF      +2
000561: 36,3700           35030                           CAF      ZERO
000562: 36,3701           65026                           AD       ONE
000563: 36,3702           56001                           XCH      L
000564: 36,3703           35030                           CAF      ZERO
000565: 36,3704           53474                           DXCH     TGO
000566: 36,3705           31474                           CA       TGO        +1
000567: 36,3706           05243                           TC       TWIDDLE
000568: 36,3707           03537                           ADRES    ENGOFTSK
000569: 36,3710           05403                           TC       2PHSCHNG
000570: 36,3711           40114                           OCT      40114                                 #  ENGOFTSK (ENGINOFF)
000571: 36,3712           00035                           OCT      00035                                 #  SERVICER--REREADAC
000572:
000573: 36,3713           15225                           TCF      ENDOFJOB
000574:
000575: 36,3714           05651        P40ALM             TC       ALARM                                 #  ASTRONAUT DOESN'T AGREE WITH STAGE
000576: 36,3715           01706                           OCT      01706                                 #  VERIFY DISCRETE.  HE HAS SELECTED P40,
000577: 36,3716           35056                           CAF      V05N09                                #  BUT THE DAP THINKS THAT THE DESCENT UNIT
000578: 36,3717           04655                           TC       BANKCALL                              #  IS GONE--A SITUATION THAT WOULD MAKE A
000579: 36,3720           20406                           CADR     GOFLASH                               #  DPS BURN EXCEEDINGLY DIFFICULT.
000580:
000581: 36,3721           14106                           TCF      GOTOPOOH                              #  V34E  TERMINATE
000582: 36,3722           13716                           TCF      -4                                    #  V33E  PROCEED  (ILLEGAL)
000583: 36,3723           13716                           TCF      -5                                    #        RECYCLE  (ILLEGAL)
000584:
000585:                                                                                                  #  ************************************************************************
000586:
000587: 36,3724           01050 33423  FDPS               2DEC     4.319223   B-7                        #  9710.0 LBS FORCE IN NEWTONS
000588: 36,3726           00022 07742  MDOTDPS            2DEC     0.00891025 B-3                        #  32.62 LBS/SEC IN KGS/CS.
000589: 36,3730           77777 77731  DTDECAY            2DEC     -38        B-28
000590:
000591: 36,3732           00026 30630  FRCS4              2DEC     0.177929   B-7                        #  400 LBS FORCE IN NEWTONS
000592: 36,3734           00013 14314  FRCS2              2DEC     0.0889645  B-7                        #  200 LBS FORCE IN NEWTONS
000593:
000594: 36,3736           00307 10516  FAPS               2DEC     1.5568     B-7                        #  3500 LBS FORCE IN NEWTONS
000595: 36,3740           00151 07074  MDOTAPS            2DEC     0.05137812 B-3                        #  11.32 LBS/SEC IN KGS/CS
000596: 36,3742           77777 77765  ATDECAY            2DEC     -10        B-28
000597:
000598: 36,3744           00000        SEC60DP            OCT      00000                                 #  DON'T SEPARATE
000599: 36,3745           13560        SEC60              DEC      6000       B-14                       #  DON'T SEPARATE
000600: 36,3746           00000        SEC15DP            OCT      00000                                 #  DON'T SEPARATE
000601: 36,3747           02734        SEC15              DEC      1500       B-14                       #  DON'T SEPARATE
000602: 36,3750           00000 05670  SEC30DP            2DEC     3000       B-28
000603: 36,3752           00000        SEC45DP            OCT      00000                                 #  DON'T MOVE FROM JUST BEFORE SEC45
000604: 36,3753           10624        SEC45              DEC      4500       B-14
000605: 36,3754           00000        5SECDP             OCT      00000                                 #  DON'T MOVE FROM JUST BEFORE 5SEC
000606: 36,3755           00764        5SEC               DEC      500        B-14
000607: 36,3756           05050        26SECS             DEC      2600       B-14
000608: 36,3757           00030        THRESH1            DEC      24         B-14
000609: 36,3760           00464        THRESH2            DEC      308        B-14
000610: 36,3761           00014        THRESH3            DEC      12         B-14
000611: 36,3762     5012               HIRTHROT           =        BIT13
000612: 36,3762           00203        P40A/PMD           OCT      00203
000613: 36,3763           04050        V16N40             VN       1640
000614: 36,3764           04125        V16N85B            VN       1685
000615: 36,3765           04123        V1683              VN       1683
000616: 36,3766     5047               SEC01              =        1SEC
000617: 36,3766  36,2037               ACADN85            =        P41TABLE   +2
000618:
000619: 36,3766  E7,1607                                  EBANK=   DELVIMU
000620: 36,3766           03460 74067  ACADN83            2CADR    CALCN83
000621:
000622:
000623:                                                                                                  #  *************************************************
000624:
000625:                                                                                                  #  PROGRAM DESCRIPTION S40.1       DATE15NOV66
000626:                                                                                                  #  MOD N02         LOG SECTION  P40-P47
000627:                                                                                                  #  MOD BY ZELDIN AND ADAPTED BY TALAYCO
000628:                                                                                                  #  FUNCTIONAL DESCRIPTION
000629:                                                                                                  #           COMPUTE INITIAL THRUST DIRECTION(UT) AND INITIAL VALUE OF VG
000630:                                                                                                  #           VECTOR(VGTIG).
000631:                                                                                                  #  CALLING SEQUENCE
000632:                                                                                                  #         L CALL
000633:                                                                                                  #       L+1        S40.1
000634:                                                                                                  #  NORMAL EXIT MODE
000635:                                                                                                  #           AT L+2 OF CALLING SEQUENCE (GOTO L+2)  NORMAL RETURN OR
000636:                                                                                                  #           ERROR RETURN IF NOSOFLAG =1
000637:                                                                                                  #  SUBROUTINES CALLED
000638:                                                                                                  #           LEMPREC
000639:                                                                                                  #           INITVEL
000640:                                                                                                  #           CALCGRAV
000641:                                                                                                  #           MIDGIM
000642:                                                                                                  #  ALARM OR ABORT EXIT MODES
000643:                                                                                                  #       L+2 OF CALLING SEQUENCE,UNSOLVABLE CONIC IF NOSOFLAG=1
000644:                                                                                                  #  ERASABLE INITIALIZATION REQUIRED
000645:                                                                                                  #                  WEIGHT/G  ANTICIPATED VEHICLE MASS         DP  B16KGM
000646:                                                                                                  #           XDELVFLG       1=DELTA-V MANEUVER,0=AIMPT STEER
000647:                                                                                                  #            F         THRUST FOR ENGINE USED
000648:                                                                                                  #        IF DELTA-V MANEUVER
000649:                                                                                                  #           DELVSIN   SPECIFIED DELTA-V REQUIRED IN
000650:                                                                                                  #                     INERTIAL COORDS. OF ACTIVE VEHICLE
000651:                                                                                                  #                     AT TIME OF IGNITION                 VECTOR B7M/CS
000652:                                                                                                  #           DELVSAB   MAG. OF DELVSIN                     DP     B7M/CS
000653:                                                                                                  #           RTIG      POSITION AT TIME OF IGNITION       VECTOR B29M
000654:                                                                                                  #           VTIG      VELOCITY AT TIME OF IGNITION       VECTOR B7M/CS
000655:                                                                                                  #        IF AIMPT STEER
000656:                                                                                                  #           TIG       TIME OF IGNITION                    DP     B28CS
000657:                                                                                                  #           RTARG     POSITION TARGET TIME               VECTOR B29M
000658:                                                                                                  #           CSTEER    C FOR STEER LAW                     DP     B2
000659:                                                                                                  #           DLTARG    TARGET TIME-IGNITION TIME          DP     B28CS
000660:                                                                                                  #  OUTPUT
000661:                                                                                                  #        UT           DESIRED THRUST DIRECTION            VECT. B2M/(CS.CS)
000662:                                                                                                  #        VGTIG        INITIAL VALUE OF VELOCITY
000663:                                                                                                  #                     TO BE GAINED (INERT. COORD.)        VECTOR B7M/CS
000664:                                                                                                  #        DELVLVC      VGTIG IN LOC. VERT. COORDS.                B7M/CS
000665:                                                                                                  #           BDT   V REQUIRED AT TIG -V REQUIRED AT (TIG-2SEC)
000666:                                                                                                  #           -GDT  FOR S40.13                                   VECT  B7M/CS
000667:                                                                                                  #        RTIG         CALC IN S40.1B(AIMPT) FOR S40.2,3  VECTOR B29M
000668:                                                                                                  #                     POSITION AT TIME OF IGNITION
000669:                                                                                                  #  DEBRIS      QTEMP1
000670:                                                                                                  #        MPAC,QPRET
000671:                                                                                                  #        PUSHLIST
000672:
000673: 14,2000                                           BANK     14
000674: 27,2000                                           SETLOC   P40S1
000675: 27,2000                                           BANK
000676:
000677: 27,2253                                           COUNT*   $$/S40.1
000678: 27,2253           44014        S40.1              CLEAR    STQ
000679: 27,2254           03264                                    FIRSTFLG
000680: 27,2255           03617                                    QTEMP
000681: 27,2256           77614        DELVTEST           BOFF
000682: 27,2257           01347                                    XDELVFLG
000683: 27,2260           56345                                    S40.1B
000684: 27,2261           77201        CALCTHET           SETPD    VLOAD
000685: 27,2262           00001                                    0
000686: 27,2263           03635                                    VTIG
000687: 27,2264           02347                           STORE    VINIT
000688: 27,2265           53435                           VXV      UNIT
000689: 27,2266           03627                                    RTIG
000690: 27,2267           27666                           STOVL    UT                                    #  UP IN UT
000691: 27,2270           03627                                    RTIG
000692: 27,2271           02341                           STORE    RINIT
000693: 27,2272           65236                           VSQ      PDDL
000694: 27,2273           00045                                    36D
000695: 27,2274           56205                           DMP      DDV
000696: 27,2275           16415                                    THETACON
000697: 27,2276           41205                           DMP      DMP
000698: 27,2277           03651                                    DELVSAB
000699: 27,2300           01244                                    WEIGHT/G
000700: 27,2301           77671                           DDV
000701: 27,2302           03723                                    F
000702: 27,2303           24017                           STOVL    14D
000703: 27,2304           03643                                    DELVSIN
000704:
000705: 27,2305           74241                           DOT      VXSC
000706: 27,2306           03666                                    UT
000707: 27,2307           03666                                    UT
000708: 27,2310           41552                           VSL2     PUSH                                  #  (DELTAV.UP)UP SCALED AT 2(+7) P.D.L. 0
000709: 27,2311           65245                           BVSU     PDDL                                  #  DELTA VP SCALED AT 2(+7) P.D.L. 6
000710: 27,2312           03643                                    DELVSIN
000711: 27,2313           00017                                    14D
000712: 27,2314           63356                           SIN      PDVL
000713: 27,2315           00007                                    6D
000714: 27,2316           53435                           VXV      UNIT
000715: 27,2317           03666                                    UT
000716: 27,2320           45561                           VXSC     STADR
000717: 27,2321           50103                           STOVL    VGTIG                                 #  UNIT(VPXUP)SIN(THETAT/2) IN VGTIG.
000718: 27,2322           65256                           UNIT     PDDL                                  #  UNIT(DELTA VP) IN P.D.L. 6
000719: 27,2323           00017                                    14D
000720: 27,2324           74346                           COS      VXSC
000721: 27,2325           74255                           VAD      VXSC
000722: 27,2326           03674                                    VGTIG
000723: 27,2327           00045                                    36D
000724: 27,2330           53352                           VSL2     VAD
000725: 27,2331           77626                           STADR
000726: 27,2332           74103                           STORE    VGTIG                                 #  VG IGNITION SCALED AT 2(+7) M/CS
000727:
000728: 27,2333           77656                           UNIT
000729: 27,2334           27666                           STOVL    UT                                    #  THRUST DIRECTION SCALED AT 2(+1)
000730: 27,2335           03674                                    VGTIG
000731: 27,2336           45006                           PUSH     CALL
000732: 27,2337           20025                                    GET.LVC                               #  VGTIG IN LV COOR AT 2(+7) M/CS IN DELVLVC
000733: 27,2340           77775                           VLOAD
000734: 27,2341           06233                                    ZEROVECS
000735: 27,2342           03660                           STORE    BDT
000736: 27,2343           77650                           GOTO
000737: 27,2344           03617                                    QTEMP
000738: 27,2345           77745        S40.1B             DLOAD
000739: 27,2346           03425                                    TIG
000740: 27,2347           00041                           STORE    TDEC1
000741: 27,2350           77621                           BDSU
000742: 27,2351           03616                                    TPASS4
000743: 27,2352           36355                           STCALL   DELLT4                                #  INTERCEPT TIME - TIG.
000744: 27,2353           27030                                    LEMPREC
000745: 27,2354           40375                           VLOAD    SETPD                                 #  LOAD STATE VECTOR AT TIG FOR INITVEL.
000746: 27,2355           00001                                    RATT
000747: 27,2356           00001                                    0
000748: 27,2357           03627                           STORE    RTIG
000749: 27,2360           26341                           STOVL    RINIT
000750: 27,2361           00007                                    VATT
000751: 27,2362           02347                           STORE    VINIT
000752: 27,2363           65345                           DLOAD    PDDL                                  #  NUMIT = 0
000753: 27,2364           06233                                    ZEROVECS
000754: 27,2365           16411                                    EPS1
000755: 27,2366           43214                           BOFF     DAD
000756: 27,2367           03745                                    NORMSW
000757: 27,2370           56372                                    SMALLEPS
000758: 27,2371           16413                                    EPS2                                  #  EPSILON4 = 10 DEGREES OR 45 DEGREES.
000759: 27,2372           74006        SMALLEPS           PUSH     AXC,1
000760: 27,2373           00002                                    2
000761: 27,2374           77624                           CALL
000762: 27,2375           22022                                    INITVEL
000763: 27,2376           41575                           VLOAD    PUSH
000764: 27,2377           03363                                    DELVEET3                              #  VGTIG = VR - VN.
000765: 27,2400           03674                           STORE    VGTIG
000766: 27,2401           77656                           UNIT                                           #  UT = UNIT (VGTIG)
000767: 27,2402           17666                           STODL    UT
000768: 27,2403           00045                                    36D
000769: 27,2404           37651                           STCALL   VGDISP                                #  CONVERT VGTIG (IN PUSHLIST ) TO LOCAL
000770: 27,2405           20025                                    GET.LVC                               #  VERTICAL COORDINATES.
000771: 27,2406           77650                           GOTO
000772: 27,2407           03617                                    QTEMP
000773:
000774: 27,2410           00707 03434  EPS1               2DEC*    2.777777778 E-2*                       #  10 DEGREES AT 1 REVOLUTION.
000775:
000776: 27,2412           03070 34344  EPS2               2DEC*    9.722222222 E-2*                       #  35 DEGREES AT 1 REVOLUTION.
000777: 27,2414           00024 13714  THETACON           2DEC     .31830989  B-8
000778:
000779:                                                                                                  #  SUBROUTINE NAME: S40.2,3        MOD. NO. 3 DATE: APRIL 4, 1967
000780:
000781:                                                                                                  #  MODIFICATION BY: JONATHAN D. ADDELSTON (ADAMS ASSOCIATES)
000782:
000783:                                                                                                  #  MOD. NO. 4:  JULY 18, 1967:  PETER ADLER (MIT/IL)
000784:
000785:                                                                                                  #  MOD. NO. 5:  OCTOBER 18, 1967:  PETER ADLER (MIT/IL)
000786:
000787:                                                                                                  #  ORIGINALLY BY: SAYDEAN ZELDIN (MIT INSTRUMENTATION LAB) AND RICHARD TALAYCO (SYSTEM DEVELOPMENT CORP)
000788:
000789:                                                                                                  #  S40.2,3 COMPUTES "POINTVSM" WHICH IS THE HALF-UNIT DESIRED THRUST VECTOR IN STABLE-MEMBER COORDINATES FROM "UT"
000790:                                                                                                  #  WHICH IS THE SAME VECTOR IN REFERENCE COORDINATES.  IT DETERMINES THE CORRECT VALUES FOR "SCAXIS" USING THE +X
000791:                                                                                                  #  AXIS FOR DPS, APS, AND RCS BURNS.  THE "WINGS-LEVEL HEADS-UP" LM ORIENTATION IS THEN COMPUTED IN REFERENCE
000792:                                                                                                  #  COORDINATES.  THESE VECTORS ALSO DEFINE THE "PREFERRED IMU ORIENTATION".  UPON COMPLETION OF THIS CALCULATION,
000793:                                                                                                  #  THE "PREFERRED ATTITUDE COMPUTED" FLAG IS SET (PFRATFLG).
000794:
000795:
000796:                                                                                                  #  CALLING SEQUENCE:
000797:                                                                                                  #                                          L        CALL                   INTERPRETIVE CALL.
000798:                                                                                                  #                                          L +1            S40.2,3
000799:                                                                                                  #                                          L +2    (RETURN)                GIMBAL ANGLE VECTOR IN MPAC.
000800:
000801:                                                                                                  #  SUBROUTINES CALLED:  NONE.
000802:
000803:                                                                                                  #  NORMAL RETURN:  L +2 (SEE CALLING SEQUENCE ABOVE).
000804:
000805:                                                                                                  #  ALARM/ABORT MODES:  NONE.
000806:
000807:                                                                                                  #  INPUT:
000808:
000809:                                                                                                  #           1. REFSMMAT            MATRIX FROM REFERENCE TO STABLE-MEMBER COORDINATES SCALED AT 2.
000810:                                                                                                  #           2. UT                  HALF-UNIT DESIRED THRUST DIRECTION.
000811:                                                                                                  #           3. RTIG                POSITION AT TIG IN REFERENCE COORDINATES.
000812:
000813:                                                                                                  #  OUTPUT:
000814:
000815:                                                                                                  #           1. : XSCREF :          WINGS-LEVEL HEADS-UP LM ORIENTATION
000816:                                                                                                  #              : YSCREF :          IN REFERENCE COORDINATES
000817:                                                                                                  #              : ZSCREF :          (PREFERRED IMU ORIENTATION).
000818:                                                                                                  #           2. POINTVSM            DESIRED THRUST DIRECTION IN STABLE-MEMBER COORDINATES.
000819:                                                                                                  #           3. SCAXIS              HALF-UNIT OF AXIS TO ALIGN IN STABLE-MEMBER COORDINATES.
000820:                                                                                                  #           4. PFRATFLG            INTERPRETIVE FLAG.  ON:  PREFERRED ORIENTATION COMPUTED; OFF:  NOT COMPUTED.
000821:
000822:                                                                                                  #  DEBRIS:  NONE.
000823:
000824:
000825: 27,2416                                           COUNT*   $$/S40.2
000826: 27,2416           77775        S40.2,3            VLOAD                                          #  UT: DESIRED THRUST DIRECTION (HALF-UNIT)
000827: 27,2417           03666                                    UT                                    #  (PUT INTO TOP OF PUSH-DOWN-LIST.)
000828: 27,2420           76521                           MXV      VSL1                                  #  TRANSFORM THRUST DIRECTION TO STABLE-
000829: 27,2421           01736                                    REFSMMAT                              #  MEMBER FROM REFERENCE COORDS (RESCALE).
000830: 27,2422           25256                           STOVL    POINTVSM                              #  SAVE FOR "VECPOINT" ROUTINE (LEMMANU).
000831: 27,2423           06231                                    UNITX                                 #  SCAXIS SET TO +X, FOR P40 AND P42 AND
000832: 27,2424           25250                           STOVL    SCAXIS                                #  FOR P41 IF RCS NOT -X,+Y,-Y,+Z,-Z.
000833:
000834: 27,2425           03666                                    UT                                    #  ASSUME +X BURN ALWAYS, EVEN FOR RCS.
000835: 27,2426           03574        PLUSX              STORE    XSCREF                                #  XSCREF = UT (DESIRED THRUST DIRECTION.)
000836: 27,2427           53435                           VXV      UNIT                                  #  RTIG = POSITION AT TIME-OF-IGNITION.
000837: 27,2430           03627                                    RTIG                                  #  YSCREF = UNIT(UT X RTIG)
000838: 27,2431           03602                           STORE    YSCREF
000839: 27,2432           76435                           VXV      VSL1                                  #  COMPUTE (YSCREF X XSCREF),BUT FOR A
000840: 27,2433           03574                                    XSCREF                                #  RIGHT HANDED SYSTEM, NEED (X CROSS Y).
000841: 27,2434           77676                           VCOMP                                          #  ZSCREF = - (YSCREF X XSCREF)
000842: 27,2435           03610                           STORE    ZSCREF                                #         = + (XSCREF X YSCREF)
000843:
000844: 27,2436           43414                           SET      RVQ
000845: 27,2437           01073                                    PFRATFLG
000846:
000847:                                                                                                  #  SUBROUTINE S40.8
000848:
000849:                                                                                                  #  MODIFIED APRIL 3, 1968  BY  PETER ADLER    MIT/IL
000850:
000851:                                                                                                  #  DESCRIPTION
000852:
000853:                                                                                                  #       S40.8 UPDATES THE VELOCITY-TO-BE-GAINED VECTOR, VG, (AND FOR LAMBERT TARGETTED BURNS ALSO EXTRAPOLATES VG
000854:                                                                                                  #  USING THE BDT VECTOR)  COMPUTES THE TIME FOR ISSUING THE ENGINE OFF COMMAND, TGO, AND CALLS THE ROUTINE
000855:                                                                                                  #  "FINDCDUW", WHICH GENERATES STEERING COMMANDS FOR THE DAP.
000856:
000857:                                                                                                  #  CALLING SEQUENCE
000858:
000859:                                                                                                  #  L-1      CALL
000860:                                                                                                  #  L               S40.8
000861:                                                                                                  #  L+1                      INTERPRETIVE RETURN
000862:
000863:                                                                                                  #  ALARM
000864:
000865:                                                                                                  #       IF VG . DELVREF IS NEGATIVE (VG AND DELVREF OVER 90 DEGREES APART), BYPASS TGO AND STEERING COMPUTATIONS
000866:                                                                                                  #  AND SET ALARM 1407.  RETURN TO CALLER NORMALLY.
000867:
000868:                                                                                                  #  INPUT AND INITIALIZATION
000869:
000870:                                                                                                  #  VGPREV          REFERENCE       2(7) M/CS
000871:                                                                                                  #  DELVREF         REFERENCE       2(7) M/CS
000872:                                                                                                  #  BDT             REFERENCE       2(7) M/CS
000873:                                                                                                  #  TDECAY          TAIL-OFF TIME   2(28)  CS
000874:                                                                                                  #  XDELVFLG        1 = EXTERNAL DELTA-V;  0 = LAMBERT (AIMPOINT)
000875:                                                                                                  #  STEERSW         1 = DO STEERING AND TGO COMPUTATIONS; 0 = VG UPDATE ONLY
000876:                                                                                                  #  FIRSTFLG        1 = GONE TO LAMBERT AT LEAST ONCE;  0 = HAVEN'T GONE TO LAMBERT YET
000877:
000878:                                                                                                  #  NOTE:  VGTIG EQUALS VGPREV
000879:
000880:                                                                                                  #  OUTPUT
000881:
000882:                                                                                                  #  STEERSW         SEE INPUT
000883:                                                                                                  #  IMPULSW         1 = ENGINE OFF IN TGO CENTISECONDS;  0 = CONTINUE BURN
000884:                                                                                                  #  TGO             TIME TO CUT-OFF 2(28)   CS
000885:                                                                                                  #  SEE FINDCDUW FOR STEERING OUTPUTS.
000886:
000887:                                                                                                  #  SUBROUTINE CALLED
000888:
000889:                                                                                                  #       FINDCDUW
000890:
000891:                                                                                                  #  DEBRIS
000892:
000893:                                                                                                  #       MPACS, PUSHLIST
000894:
000895: 27,2440                                           COUNT*   $$/S40.8
000896:
000897: 27,2440  E6,1420                                  EBANK=   OMEGAQ
000898: 27,2440           43175        S40.8              VLOAD    BON
000899: 27,2441           03674                                    VGPREV
000900: 27,2442           01307                                    XDELVFLG
000901: 27,2443           56450                                    VGNEW
000902: 27,2444           53214                           BOFF     VAD
000903: 27,2445           03344                                    FIRSTFLG
000904: 27,2446           56450                                    VGNEW
000905: 27,2447           03660                                    BDT
000906: 27,2450           77651        VGNEW              VSU
000907: 27,2451           03504                                    DELVREF
000908: 27,2452           03703        VGAIN*             STORE    VG                                    #  VELOCITY TO BE GAINED SCALED AT (7)M/CS
000909: 27,2453           76521                           MXV      VSL1
000910: 27,2454           01736                                    REFSMMAT
000911: 27,2455           77656                           UNIT
000912: 27,2456           03764                           STORE    UDSTEER
000913: 27,2457           77214                           BON      VLOAD
000914: 27,2460           03304                                    FIRSTFLG
000915: 27,2461           56464                                    BDTOK
000916: 27,2462           06233                                    HI6ZEROS
000917: 27,2463           03660                           STORE    BDT
000918: 27,2464           77745        BDTOK              DLOAD
000919: 27,2465           00045                                    36D
000920: 27,2466           03651                           STORE    VGDISP
000921: 27,2467           44001        TGDCALC            SETPD    STQ
000922: 27,2470           00001                                    0
000923: 27,2471           03771                                    S40EXIT
000924: 27,2472           77775                           VLOAD
000925: 27,2473           03703                                    VG
000926: 27,2474           27674                           STOVL    VGPREV
000927: 27,2475           03504                                    DELVREF
000928: 27,2476           57414                           BOFF     VCOMP
000929: 27,2477           01344                                    STEERSW
000930: 27,2500           03771                                    S40EXIT
000931: 27,2501           77656                           UNIT
000932: 27,2502           41441                           DOT      PUSH
000933: 27,2503           03703                                    VG
000934: 27,2504           56244                           BPL      DDV
000935: 27,2505           56627                                    ALARMIT                               #  DELV IS MORE THAN 90 DEGREES FROM VG.
000936: 27,2506           16646                                    2VEXHUST
000937: 27,2507           41215                           DAD      DMP
000938: 27,2510           06231                                    DPHALF
000939: 27,2511           56261                           SR       DDV
000940: 27,2512           20613                                    10D
000941: 27,2513           00045                                    36D
000942: 27,2514           43205                           DMP      DAD
000943: 27,2515           16644                                    -FOURDT
000944: 27,2516           03727                                    TDECAY
000945: 27,2517           03474                           STORE    TGO
000946: 27,2520           77615                           DAD
000947: 27,2521           01234                                    PIPTIME
000948: 27,2522           17425                           STODL    TIG
000949: 27,2523           03474                                    TGO
000950:
000951: 27,2524           51025                           DSU      BPL
000952: 27,2525           16650                                    FOURSECS                              #  400 CS
000953: 27,2526           56533                                    FINDCDUD
000954: 27,2527           43014                           SET      CLRGO
000955: 27,2530           01066                                    IMPULSW
000956: 27,2531           01224                                    STEERSW
000957: 27,2532           03771                                    S40EXIT
000958:
000959: 27,2533           44001        FINDCDUD           SETPD    STQ
000960: 27,2534           00001                                    0
000961: 27,2535           03771                                    S40EXIT
000962: 27,2536           77634                           RTB
000963: 27,2537           66536                                    TMPTOSPT
000964: 27,2540           45175                           VLOAD    CALL
000965: 27,2541           03764                                    UDSTEER
000966: 27,2542           47457                                    TRG*SMNB
000967: 27,2543           03764                           STORE    UDSTEER
000968: 27,2544           77775                           VLOAD
000969: 27,2545           01212                                    DELV
000970: 27,2546           45056                           UNIT     CALL
000971: 27,2547           47477                                    *SMNB*
000972: 27,2550           64451                           VSU      VSR3
000973: 27,2551           03461                                    UASTEER
000974: 27,2552           53455                           VAD      UNIT
000975: 27,2553           03461                                    UASTEER
000976: 27,2554           03461                           STORE    UASTEER
000977: 27,2555           47375                           VLOAD    VXV
000978: 27,2556           03461                                    UASTEER
000979: 27,2557           03764                                    UDSTEER
000980: 27,2560           00013                           STORE    10D
000981: 27,2561           41446                           ABVAL    PUSH
000982: 27,2562           50025                           DSU      BMN
000983: 27,2563           16654                                    SIN20DEG
000984: 27,2564           56576                                    SCALPROD
000985: 27,2565           77745                           DLOAD
000986: 27,2566           51025                           DSU      BPL
000987: 27,2567           16652                                    SIN45DEG
000988: 27,2570           56627                                    ALARMIT
000989: 27,2571           53575                           VLOAD    UNIT
000990: 27,2572           00013                                    10D
000991: 27,2573           76561                           VXSC     VSL1
000992: 27,2574           16654                                    SIN20DEG
000993: 27,2575           00013                           STORE    10D
000994:
000995: 27,2576           74375        SCALPROD           VLOAD    VXSC
000996: 27,2577           00013                                    10D
000997: 27,2600           16640                                    1/PI
000998: 27,2601           00013                           STORE    10D
000999: 27,2602           45001                           SETPD    CALL
001000: 27,2603           00001                                    0
001001: 27,2604           56655                                    CALCCMD
001002: 27,2605           53375                           VLOAD    VAD
001003: 27,2606           00025                                    20D
001004: 27,2607           00767                                    CDUSPOT
001005: 27,2610           77434                           RTB      EXIT
001006: 27,2611           21516                                    V1STO2S
001007:
001008: 27,2612           52155                           DXCH     MPAC
001009: 27,2613           53210                           DXCH     CTHETA
001010: 27,2614           31632                           CA       CDUXD
001011: 27,2615           55206                           TS       CPHI
001012:
001013: 27,2616           35012                           CAF      BIT13
001014: 27,2617           00006                           EXTEND
001015: 27,2620           02031                           RAND     CHAN31
001016: 27,2621           00006                           EXTEND
001017: 27,2622           12632                           BZF      S40.8XIT
001018:
001019: 27,2623           00006                           EXTEND
001020: 27,2624           31210                           DCA      CTHETA
001021: 27,2625           53634                           DXCH     CDUYD
001022: 27,2626           12632                           TCF      S40.8XIT
001023:
001024: 27,2627           77776        ALARMIT            EXIT
001025: 27,2630           05651                           TC       ALARM
001026: 27,2631           01407                           OCT      01407
001027: 27,2632           31176        S40.8XIT           CAE      TEMPR60
001028: 27,2633           54003                           TS       EBANK
001029: 27,2634           06014                           TC       INTPRET
001030: 27,2635           77650                           GOTO
001031: 27,2636           03771                                    S40EXIT
001032:
001033: 27,2637           24276 14076  1/PI               2DEC     0.3183099  B1
001034: 27,2641           00002 00545  UNUSEDC1           2OCT     00002      00545
001035:
001036: 27,2643           77715 77777  -FOURDT            2DEC     -800       B-18                       #  -4 (200 CS.)  B(-18)
001037: 27,2645           17000 00000  2VEXHUST           2DEC     3000       E-2        B-6
001038: 27,2647           00000 00620  FOURSECS           2DEC     400        B-28                       #  400 CS SCALED AT 2(+28)CS
001039: 27,2651           05520 11006  SIN45DEG           2DEC     0.7071     B-2
001040: 27,2653           02572 00505  SIN20DEG           2DEC     0.34229    B-2
001041:
001042: 27,2655           41345        CALCCMD            DLOAD    DMP
001043: 27,2656           00015                                    12D
001044: 27,2657           00751                                    COSCDUX
001045: 27,2660           41325                           PDDL     DMP
001046: 27,2661           00017                                    14D
001047: 27,2662           00743                                    SINCDUX
001048: 27,2663           77621                           BDSU
001049: 27,2664           77671                           DDV
001050: 27,2665           00747                                    COSCDUZ
001051: 27,2666           00025                           STORE    20D
001052: 27,2667           57545                           DLOAD    DCOMP
001053: 27,2670           00773                                    CDUSPOTX
001054: 27,2671           14031                           STODL    24D
001055: 27,2672           00015                                    12D
001056: 27,2673           65205                           DMP      PDDL
001057: 27,2674           00743                                    SINCDUX
001058: 27,2675           00017                                    14D
001059: 27,2676           43205                           DMP      DAD
001060: 27,2677           00751                                    COSCDUX
001061: 27,2700           77752                           SL1
001062: 27,2701           00027                           STORE    22D
001063: 27,2702           77616                           RVQ
001064:
001065:                                                                                                  #  NAME     S40.13 - TIMEBURN
001066:                                                                                                  #  FUNCTION        (1) DETERMINE WHETHER A GIVEN COMBINATION OF VELOCITY TO
001067:                                                                                                  #                  BE GAINED AND ENGINE CHOICE RESULT IN A BURN TIME
001068:                                                                                                  #                  SUFFICIENT TO ALLOW STEERING AT THE VEHICLE DURING THE
001069:                                                                                                  #                  BURN
001070:                                                                                                  #                  (2) THE MAGNITUDE OF THE RESULTING BURN TIME -- IF IT
001071:                                                                                                  #                  IS SHORT --  AND THE ASSOCIATED TIME OF THE ENGINE OFF
001072:                                                                                                  #                  SIGNAL
001073:                                                                                                  #  CALLING SEQUENCE  VIA FINDVAC AS A NEW JOB
001074:                                                                                                  #  INPUT           VGTIG VELOCITY TO BE GAINED VECTOR (METERS/CS) AT +7
001075:                                                                                                  #                  WEIGHT/G MASS OF VEHICLE IN KGM AT +16
001076:                                                                                                  #                  F  APS ENGINE THRUST IN M.NEWTONS AT +7
001077:                                                                                                  #                  AND ALSO FOR RCS ENGINE
001078:                                                                                                  #                  MDOT RATE OF DECREASE OF VEHICLE MASS DURING ENGINE
001079:                                                                                                  #                  BURN IN KILOGRAMS/CS  AT +3 . THIS SCALING MAY
001080:                                                                                                  #                  REQUIRE MODIFICATION FOR SATURN BURNS.
001081:                                                                                                  #           ENG1FLAG     SWITCH TO DECIDE WHETHER APS OR DPS ENGINE IS USED
001082:                                                                                                  #                   =0   DPS
001083:                                                                                                  #                   =1   APS
001084:                                                                                                  #  OUTPUT          IMPULSW  ZERO FOR STEERING
001085:                                                                                                  #                           ONE FOR ATTITUDE HOLD
001086:                                                                                                  #                  NOTHROTL  ZERO FOR THROTTLING
001087:                                                                                                  #                            ONE  TO INHIBIT THROTTLING
001088:                                                                                                  #                  TGO  TIME TO BURN IN CS
001089:                                                                                                  #           THE QUANTITY M.NEWTON = 10000 NEWTONS WILL BE USED TO EXPRESS
001090:                                                                                                  #                  FORCE
001091:
001092:
001093: 27,2703  E7,1473                                  EBANK=   TGO
001094: 27,2703                                           COUNT*   $$/40.13
001095: 27,2703           06014        S40.13             TC       INTPRET
001096: 27,2704           43001                           SETPD    CLEAR
001097: 27,2705           00001                                    00D
001098: 27,2706           01266                                    IMPULSW                               #  ASSUME NO STEERING UNTIL FOUND OTHERWISE
001099: 27,2707           51575                           VLOAD    ABVAL
001100: 27,2710           03674                                    VGTIG                                 #  VELOCITY TO BE GAINED AT +7
001101: 27,2711           41325                           PDDL     DMP                                   #  00D = MAG OF VGTIG AT +7
001102: 27,2712           17056                                    7SEC                                  #  700 CS AT + 18
001103: 27,2713           17060                                    FRCS2B3
001104: 27,2714           62471                           DDV      SL2                                   #  SCALE
001105: 27,2715           01244                                    WEIGHT/G
001106: 27,2716           41421                           BDSU     PUSH
001107: 27,2717           43014                           BOFF     SET
001108: 27,2720           00743                                    APSFLAG
001109: 27,2721           56771                                    S40.13D                               #  FOR DPS ENGINE
001110: 27,2722           02463                                    NOTHROTL
001111: 27,2723           56345                           DLOAD    DDV                                   #  00D = MAG OF VGTIG CORRECTED
001112: 27,2724           17040                                    K1VAL                                 #  M.NEWTONS-CS AT +24
001113: 27,2725           01244                                    WEIGHT/G
001114: 27,2726           50021                           BDSU     BMN
001115:
001116: 27,2727           00001                                    00D
001117: 27,2730           56753                                    S40.131                               #  TGO LESS THAN 100 CS
001118: 27,2731           41325                           PDDL     DMP                                   #  02D = TEMP1 AT +7
001119: 27,2732           03725                                    MDOT
001120:
001121:                                                                                                  #  MDOT REPRESENTS THE RATE OF DECREASE OF VEHICLE MASS DURING ENGINE
001122:                                                                                                  #  BURN IN KILOGRAMS/CS .  WHEN  SATURN IS USED , THE SCALING MAY
001123:                                                                                                  #  REQUIRE ADJUSTMENT
001124:
001125: 27,2733           17050                                    3.5SEC                                #  350 CS AT +14
001126: 27,2734           65221                           BDSU     PDDL
001127: 27,2735           01244                                    WEIGHT/G
001128: 27,2736           03723                                    F
001129: 27,2737           60405                           DMP      SR2                                   #  SCALE
001130: 27,2740           17052                                    5SECS
001131: 27,2741           41471                           DDV      PUSH                                  #  04D = TEMP2
001132: 27,2742           51021                           BDSU     BPL
001133: 27,2743           00003                                    02D
001134: 27,2744           56771                                    S40.13D
001135: 27,2745           55345                           DLOAD    BDDV
001136: 27,2746           43205                           DMP      DAD
001137: 27,2747           17052                                    5SECS
001138: 27,2750           17046                                    1SEC2D                                #  100 CS AT +14
001139: 27,2751           77650                           GOTO
001140: 27,2752           56761                                    S40.132
001141: 27,2753           41345        S40.131            DLOAD    DMP
001142: 27,2754           01244                                    WEIGHT/G
001143: 27,2755           41542                           SR1      PUSH
001144: 27,2756           56215                           DAD      DDV
001145: 27,2757           17042                                    K2VAL                                 #  M.NEWTON CS AT +24
001146: 27,2760           17044                                    K3VAL                                 #  M.NEWTON CS AT +10
001147: 27,2761           77414        S40.132            SET      EXIT
001148: 27,2762           01066                                    IMPULSW
001149: 27,2763           07231        S40.132*           TC       TPAGREE
001150: 27,2764           30154                           CA       MPAC
001151: 27,2765           56001                           XCH      L
001152: 27,2766           35030                           CA       ZERO
001153: 27,2767           53474                           DXCH     TGO
001154: 27,2770           13013                           TCF      S40.134
001155:
001156: 27,2771           41345        S40.13D            DLOAD    DMP                                   #  FOR DPS ENGINE
001157: 27,2772           00001                                    00D
001158: 27,2773           01244                                    WEIGHT/G
001159: 27,2774           43006                           PUSH     BON
001160: 27,2775           00703                                    APSFLAG
001161: 27,2776           57034                                    APSTGO
001162: 27,2777           43071                           DDV      CLEAR
001163: 27,3000           17062                                    S40.136
001164: 27,3001           02663                                    NOTHROTL
001165: 27,3002           41400                           BOV      PUSH
001166:
001167: 27,3003           57016                                    S40.130V
001168: 27,3004           51025        S40.137            DSU      BPL
001169: 27,3005           17054                                    6SEC                                  #  600.0 CS AT +14
001170: 27,3006           57024                                    S40.138
001171: 27,3007           52015                           DAD      GOTO
001172: 27,3010           17054                                    6SEC
001173: 27,3011           56761                                    S40.132
001174: 27,3012           77776        S40.133            EXIT
001175: 27,3013           05423        S40.134            TC       PHASCHNG
001176: 27,3014           00003                           OCT      00003
001177: 27,3015           05225                           TC       ENDOFJOB
001178: 27,3016           40545        S40.130V           DLOAD    SR4                                   #  RECOMPUTE TGO IN TIME2 UNITS
001179: 27,3017           77671                           DDV
001180: 27,3020           17064                                    S40.136_                              #  S40.136 SHIFTED LEFT 10
001181: 27,3021           03474                           STORE    TGO
001182: 27,3022           77776                           EXIT
001183: 27,3023           13013                           TCF      S40.134                               #  REJOIN COMMON CODING FOR RESTART PROTECT
001184:
001185: 27,3024           51025        S40.138            DSU      BPL
001186: 27,3025           17066                                    89SECS
001187: 27,3026           57031                                    STORETGO
001188: 27,3027           77614                           SET
001189: 27,3030           02463                                    NOTHROTL
001190: 27,3031           77745        STORETGO           DLOAD                                          #  LOAD TGO AT 2(14)
001191: 27,3032           77776                           EXIT
001192: 27,3033           12763                           TCF      S40.132*
001193:
001194: 27,3034           52071        APSTGO             DDV      GOTO
001195: 27,3035           17070                                    FAPSB9
001196: 27,3036           57032                                    STORETGO   +1
001197: 27,3037           00000 07621  K1VAL              2DEC     124.54     B-23                       #  2800 LB-SEC
001198: 27,3041           00000 00762  K2VAL              2DEC     31.138     B-24                       #  700  LB-SEC
001199: 27,3043           00030 35052  K3VAL              2DEC     1.556802   B-10                       #  FAPS ( 3500 LBS THRUST)
001200: 27,3045           00144 00000  1SEC2D             2DEC     100.0      B-14                       #  100.0 CS AT +14
001201: 27,3047           01274 00000  3.5SEC             2DEC     350.0      B-13                       #  350 CS AT +13
001202: 27,3051           00764 00000  5SECS              2DEC     500.0      B-14                       #  500.0 CS AT +14
001203: 27,3053           01130 00000  6SEC               2DEC     600.0      B-14                       #  600.0 CS AT +14
001204: 27,3055           00000 01274  7SEC               2DEC     700.0                                 #  700.0 CS
001205: 27,3057           26614 05221  FRCS2B3            2DEC     0.08896    B3                         #  200 LBS FORCE IN NEWTONS
001206: 27,3061           00016 36237  S40.136            2DEC     .4671      B-9                        #  .4671 M NEWTONS (DPS)
001207: 27,3063           35711 35663  S40.136_           2DEC     .4671      B+1                        #  S40.136 SHIFTED LEFT 10.
001208: 27,3065           21304 00000  89SECS             2DEC     8900.0     B-14
001209: 27,3067           00061 32124  FAPSB9             2DEC     1.5568     B-9                        #  3500 LBS FORCE IN NEWTONS
001210:                                                                                                  #  FUNCTION    (1) GENERATES REQUIRED VELOCITY AND VELOCITY-TO-BE-GAINED
001211:                                                                                                  #              VECTORS FOR USE DURING AIMPOINT MANEUVERS EVERY TWO
001212:                                                                                                  #              COMPUTATION CYCLES (4 SECONDS).
001213:                                                                                                  #              (2) UPDATES THE B VECTOR WHICH IS USED IN THE FINAL
001214:                                                                                                  #              CALCULATION OF EXTRAPOLATING THE VELOCITY-TO-BE-GAINED
001215:                                                                                                  #              THROUGH ONE 2-SECOND INTERVAL INTO THE FUTURE.
001216:                                                                                                  #  CALLING SEQ VIA FINDVAC AS NEW JOB.
001217:
001218:                                                                                                  #  INPUT       RN       - ACTIVE VEHICLE RADIUS VECTOR IN METERS AT +29.
001219:                                                                                                  #              VN       - ACTIVE VEHICLE VELOCITY VECTOR IN METERS/CS AT +7
001220:                                                                                                  #              VRPREV   - LAST COMPUTED VELOCITY REQUIRED VECTOR IN
001221:                                                                                                  #                         METERS/CS AT +7.
001222:                                                                                                  #              TIG      - TIME OF IGNITION IN CS AT +28.
001223:                                                                                                  #              DLTARG   - COMPUTATION CYCLE INTERVAL = 200 CS AT +28.
001224:                                                                                                  #              PIPTIME  - TIME OF RN AND VN IN CS AT +28.
001225:                                                                                                  #              GDT/2    - HALF OF VELOCITY GAINED IN DELTA T TIME DUE TO
001226:                                                                                                  #                         ACCERERATION OF GRAVITY IN METERS/CS AT +7.
001227:                                                                                                  #              DELVREF  - CHANGE IN VELOCITY DURING LAST 2 SEC IN
001228:                                                                                                  #                         METERS/CS AT +7.
001229:                                                                                                  #  OUTPUT      VGPREV   - VELOCITY TO BE GAINED VECTOR IN METERS/CS AT +7.
001230:                                                                                                  #              VGDISP   - MAG OF VGPREV FOR DISPLAY PURPOSES.
001231:                                                                                                  #              VRPREV   - VELOCITY REQUIRED VECTOR IN METERS/CS AT +7.
001232:                                                                                                  #              BDT      - B VECTOR IN METERS/CS AT +7.
001233:                                                                                                  #  SUBROUTINES USED  -  INITVEL
001234:
001235: 27,3071  E7,1673                                  EBANK=   VGPREV
001236: 27,3071                                           COUNT*   $$/S40.9
001237: 27,3071           06014        S40.9              TC       INTPRET
001238: 27,3072           77201                           SETPD    VLOAD
001239: 27,3073           00001                                    00D
001240: 27,3074           01220                                    RN                                    #  ACTIVE VEHICLE RADIUS VECTOR AT T1
001241: 27,3075           26341                           STOVL    RINIT
001242: 27,3076           01226                                    VN                                    #  ACTIVE VEHICLE VELOCITY VECTOR AT T1
001243: 27,3077           16347                           STODL    VINIT
001244: 27,3100           01234                                    PIPTIME
001245: 27,3101           03717                           STORE    TNIT
001246: 27,3102           77621                           BDSU
001247: 27,3103           03616                                    TPASS4
001248: 27,3104           02355                           STORE    DELLT4                                #  T2 - T1
001249: 27,3105           71214                           SET      DLOAD
001250: 27,3106           01072                                    AVFLAG                                #  SET AVFLAG FOR LEM ACTIVE
001251: 27,3107           06233                                    HI6ZEROS
001252: 27,3110           77725                           PDDL
001253: 27,3111           16411                                    EPS1
001254: 27,3112           43214                           BOFF     DAD                                   #  EPSILON4 = 10 OR 45 DEGREES.
001255: 27,3113           03745                                    NORMSW
001256: 27,3114           57116                                    EPSSMALL
001257: 27,3115           16413                                    EPS2
001258: 27,3116           74006        EPSSMALL           PUSH     AXC,1
001259: 27,3117           00002                                    2
001260: 27,3120           45014        S40.92             BOFSET   CALL
001261: 27,3121           03044                                    FIRSTFLG
001262: 27,3122           57224                                    INITINIT
001263: 27,3123           22024                                    HAVEGUES
001264: 27,3124           52375                           VLOAD    VSU
001265: 27,3125           02357                                    VIPRIME
001266: 27,3126           03711                                    VRPREV
001267: 27,3127           45325                           PDDL     DSU
001268: 27,3130           03717                                    TNIT
001269: 27,3131           03721                                    TNITPREV
001270:
001271: 27,3132           55261                           SL       BDDV
001272: 27,3133           20223                                    18D
001273: 27,3134           17223                                    100B10
001274: 27,3135           77761                           VXSC
001275: 27,3136           76451                           VSU      VSL1
001276: 27,3137           01236                                    GDT/2
001277: 27,3140           03660                           STORE    BDT
001278:
001279: 27,3141           53575        GETGOBL            VLOAD    UNIT                                  #  CALCULATE OBLATENESS TERM.
001280: 27,3142           01220                                    RN
001281: 27,3143           45345                           DLOAD    DSU
001282: 27,3144           01234                                    PIPTIME                               #               2
001283: 27,3145           03574                                    GOBLTIME                              #  G    = -(MU/R )(UNITGOBL)(T - TIG)
001284: 27,3146           56205                           DMP      DDV                                   #   OBL
001285: 27,3147           17231                                    EARTHMU
001286: 27,3150           00043                                    34D                                   #  34D = /RN/ (2) FROM UNIT OPERATION.
001287: 27,3151           53361                           VXSC     VAD
001288: 27,3152           03476                                    UNITGOBL
001289: 27,3153           03363                                    DELVEET3                              #  OUTPUT FROM INITVEL VG = VR - VN
001290: 27,3154           03363                           STORE    DELVEET3                              #  VG = VR + GOBL - VN
001291: 27,3155           77646        NOGOBL             ABVAL
001292: 27,3156           17651                           STODL    VGDISP
001293: 27,3157           03717                                    TNIT
001294: 27,3160           03721                           STORE    TNITPREV
001295: 27,3161           77776                           EXIT
001296: 27,3162           05423                           TC       PHASCHNG
001297: 27,3163           05022                           OCT      05022
001298: 27,3164           14000                           OCT      14000
001299: 27,3165           06014                           TC       INTPRET
001300: 27,3166           77775                           VLOAD
001301: 27,3167           02357                                    VIPRIME                               #  VR(T)
001302: 27,3170           03711                           STORE    VRPREV
001303: 27,3171           77776                           EXIT
001304: 27,3172           05423                           TC       PHASCHNG
001305: 27,3173           05022                           OCT      05022
001306: 27,3174           14000                           OCT      14000
001307: 27,3175           06014                           TC       INTPRET
001308: 27,3176           77214                           BON      VLOAD
001309: 27,3177           01305                                    CYCLESW
001310: 27,3200           57206                                    S40.91
001311: 27,3201           03363                                    DELVEET3
001312: 27,3202           03674                           STORE    VGPREV
001313: 27,3203           52014                           SET      GOTO
001314: 27,3204           01065                                    CYCLESW
001315: 27,3205           57216                                    ENDS40.9
001316: 27,3206           53375        S40.91             VLOAD    VAD                                   #  EXTRAPOLATE FOR V TO GAIN
001317: 27,3207           03363                                    DELVEET3
001318: 27,3210           03660                                    BDT
001319:
001320: 27,3211           77651                           VSU
001321: 27,3212           03504                                    DELVREF
001322: 27,3213           03674                           STORE    VGPREV
001323: 27,3214           77646                           ABVAL
001324: 27,3215           03651                           STORE    VGDISP                                #  FOR DISPLAY PURPOSES
001325: 27,3216           77776        ENDS40.9           EXIT
001326: 27,3217           05423                           TC       PHASCHNG
001327: 27,3220           00002                           OCT      2
001328: 27,3221           05225                           TC       ENDOFJOB
001329: 27,3222           03100 00000  100B10             2DEC     100        B-10
001330: 27,3224           77624        INITINIT           CALL
001331: 27,3225           22024                                    HAVEGUES
001332: 27,3226           77650                           GOTO
001333: 27,3227           57141                                    GETGOBL
001334:
001335: 27,3230           55340 61710  EARTHMU            2DEC*    -3.986032  E10        B-36*           #  M(3)/CS(2)
001336:
001337:                                                                                                  #  MOD 0     24 FEB 67     PETER ADLER
001338:                                                                                                  #  FUNCTION:
001339:                                                                                                  #           TRIMS DPS ENGINE TO MINIMIZE THRUST/CG OFFSET. ENGINE IS GIMBALLED TO FULL + PITCH AND + ROLL (TO LOCK)
001340:                                                                                                  #           FOR REFERENCE AND IS THEN BROUGHT BACK TO TRIM POSITION BY RUNNING FOR THE PROPER TIMES (TO BE
001341:                                                                                                  #           SPECIFIED BY GAEC) IN - PITCH AND - ROLL.
001342:                                                                                                  #  CALLING SEQUENCE:
001343:                                                                                                  #           VIA WAITLIST FROM R03
001344:                                                                                                  #  INPUT:
001345:                                                                                                  #           PITTIME     TIME TO RUN FROM FULL + PITCH TO TRIM  (CS)
001346:                                                                                                  #           ROLLTIME    TIME TO RUN FROM FULL + ROLL  TO TRIM  (CS)
001347:                                                                                                  #  SUBROUTINES USED:
001348:                                                                                                  #           WAITLIST, FIXDELAY, VARDELAY, FLAGUP, FLAGDOWN, NOVAC
001349:
001350: 27,3232                                           COUNT*   $$/S40.6
001351: 27,3232  E6,1401                                  EBANK=   ROLLTIME                              #  OCTAL MASKS:  PRIO5=05000 EBANK5=02400
001352:
001353: 27,3232           05600        TRIMGIMB           TC       DOWNFLAG                              #  GMBDRVSW FLAG IS SET WHEN EITHER ROLL OR
001354: 27,3233           00137                           ADRES    GMBDRVSW                              #  PITCH IS COMPLETED, WHICHEVER IS FIRST.
001355:
001356: 27,3234           35065                           CAF      EBANK6
001357: 27,3235           56003                           XCH      EBANK
001358: 27,3236           54061                           TS       ITEMP1
001359:
001360: 27,3237           45067                           CS       PRIO5                                 #  TURN OFF - PITCH, - ROLL, IF ON.
001361: 27,3240           00006                           EXTEND
001362: 27,3241           03012                           WAND     CHAN12
001363: 27,3242           35064                           CAF      EBANK5                                #  TURN ON + PITCH, + ROLL.
001364: 27,3243           00006                           EXTEND
001365: 27,3244           05012                           WOR      CHAN12
001366: 27,3245           05271                           TC       FIXDELAY                              #  WAIT ONE MINUTE TO MAKE SURE ENGINE IS
001367: 27,3246           13560                           DEC      6000       B-14                       #  AT FULL + PITCH AND FULL + ROLL
001368: 27,3247           45064                           CS       EBANK5                                #  TURN OFF + PITCH, + ROLL.
001369: 27,3250           00006                           EXTEND
001370: 27,3251           03012                           WAND     CHAN12
001371: 27,3252           35067                           CAF      PRIO5                                 #  TURN ON - PITCH, - ROLL.
001372: 27,3253           00006                           EXTEND
001373: 27,3254           05012                           WOR      CHAN12
001374: 27,3255           31402                           CAE      PITTIME                               #  GET TIME TO SHUT OFF - PITCH AND SET UP
001375: 27,3256           05243                           TC       TWIDDLE                               #  TWIDDLE-TASK TO TURN IT OFF THEN
001376:
001377: 27,3257           03300                           ADRES    PITCHOFF
001378:
001379: 27,3260           31401                           CAE      ROLLTIME                              #  GET TIME TO SHUT OFF - ROLL AND GO AWAY
001380: 27,3261           05274                           TC       VARDELAY                              #  UNTIL THEN
001381: 27,3262           45013                           CS       BIT12
001382: 27,3263           00006                           EXTEND
001383: 27,3264           03012                           WAND     CHAN12                                #  SHUT OFF ROLL
001384: 27,3265           30102        ROLLOVER           CA       FLAGWRD6                              #  IF HERE INLINE (ROLL DONE) IS PITCH DONE
001385: 27,3266           75015                           MASK     GMBDRBIT                              #  IF HERE FROM PITCHOFF, IS ROLL DONE?
001386: 27,3267           00006                           EXTEND
001387: 27,3270           13304                           BZF      PITCHOFF   +4                         #  NO.  SET FLAG, ROLL OR PITCH DONE.
001388: 27,3271           30061                           CA       ITEMP1
001389: 27,3272           54003                           TS       EBANK
001390: 27,3273           35012                           CAF      PRIO10                                #  RETURN TO R03
001391: 27,3274           05142                           TC       NOVAC
001392: 27,3275  E7,1456                                  EBANK=   WHOCARES
001393: 27,3275           02171 40067                     2CADR    TRIMDONE
001394: 27,3277           05331                           TC       TASKOVER
001395: 27,3300           45015        PITCHOFF           CS       BIT10
001396: 27,3301           00006                           EXTEND
001397: 27,3302           03012                           WAND     CHAN12                                #  SHUT OFF PITCH
001398: 27,3303           13265                           TCF      ROLLOVER                              #  SEE IF ROLL HAS FINISHED ALSO.
001399: 27,3304           05566                           TC       UPFLAG                                #  ROLL DONE; OR PITCH DONE; BUT NOT BOTH.
001400: 27,3305           00137                           ADRES    GMBDRVSW
001401: 27,3306           05331                           TC       TASKOVER
001402:
001403:                                                                                                  #  SUBROUTINE NAME: S41.1          MOD. NO. 0  DATE: FEBRUARY 28, 1967
001404:
001405:                                                                                                  #                          MOD. NO. 1  DATE: JANUARY 23, 1968: BY PETER ADLER (MIT/IL)
001406:
001407:                                                                                                  #  AUTHOR: JONATHAN D. ADDELSTON (ADAMS ASSOCIATES)
001408:
001409:                                                                                                  #  S41.1 PERFORMS THE COORDINATE SYSTEM TRANFORMATION FROM THE REFERENCE FRAME TO THE BODY OF THE LM.
001410:                                                                                                  #  SPECIFICALLY, IT IS USED TO TRANSFORM A VELOCITY (SCALED AT 2(+7) METERS/CENTISECOND) FROM REFERENCE TO LM AXIS
001411:                                                                                                  #  COORDINATES.  FIRST THE VECTOR IS TRANSFORMED TO THE STABLE MEMBER COORDINATES BY THE MATRIX REFSMMAT.  THIS
001412:                                                                                                  #  LEAVES THE VECTOR IN MPAC, SCALED AT 2(+8) METERS/CENTISECOND.  THEN
001413:                                                                                                  #  THE SUBROUTINE CDUTRIG IS CALLED TO SET UP THE DOUBLE-PRECISION CDU VECTOR ALONG WITH ITS SINES AND COSINES.
001414:                                                                                                  #  THE VECTOR IS THEN TRANSFORMED FROM STABLE MEMBER COORDINATES TO SPACECRAFT (OR LM) COORDINATES BY THE
001415:                                                                                                  #  SUBROUTINE *SMNB*.  FINALLY( THE VECTOR IS RESCALED TO 2(+7) METERS/CENTISECOND, AND CONTROL IS RETURNED TO THE
001416:                                                                                                  #  CALLER WITH C(MPAC) = VELOCITY(LM).
001417:
001418:
001419:                                                                                                  #  CALLING SEQUENCE:
001420:                                                                                                  #                                          L        VLOAD  CALL
001421:                                                                                                  #                                          L +1            VELOCITY(REF)   SCALED AT 2(+7)M/CS IN REFERENCE COORDS.
001422:                                                                                                  #                                          L +2            S41.1
001423:                                                                                                  #                                          L +3     STORE  VELOCITY(LM)    SCALED AT 2(+7)M/CS IN LM BODY AXIS SYS.
001424:
001425:                                                                                                  #  SUBROUTINES CALLED:
001426:
001427:                                                                                                  #           1.  CDUTRIG,
001428:                                                                                                  #                  WHICH CALLS CDULOGIC.
001429:                                                                                                  #           2.  *SMNB*
001430:
001431:                                                                                                  #  NORMAL RETURN: L +3 (SEE CALLING SEQUENCE, ABOVE.)
001432:
001433:                                                                                                  #  ALARM/ABORT MODES: NONE.
001434:
001435:                                                                                                  #  RESTART PROTECTION: NONE.
001436:
001437:                                                                                                  #  INPUT:
001438:
001439:                                                                                                  #           1.  REFSMMAT.
001440:                                                                                                  #           2.  CDUX, CDUY, CDUZ.
001441:                                                                                                  #           3.  VELOCITY (REF) IN MPAC.
001442:
001443:                                                                                                  #  OUTPUT:
001444:
001445:                                                                                                  #           1.  CDUSPOT:  DOUBLE PRECISION CDU VECTOR, ORDERED Y,Z,X.
001446:                                                                                                  #           2.  SINCDU:   HALF SINES OF CDUSPOT COMPONENTS.
001447:                                                                                                  #           3.  COSCDU:   HALF COSINES OF CDUSPOT COMPONENTS.
001448:                                                                                                  #           4.  MPAC:     VELOCITY(LM) (SCALED AT 2(+7) METERS/CENTISECOND)
001449:
001450:                                                                                                  #  DEBRIS: NONE.
001451:
001452:                                                                                                  #  CHECKOUT STATUS:  CODED.
001453:
001454: 27,3307                                           COUNT*   $$/S41.1
001455: 27,3307           76521        S41.1              MXV      VSL1                                  #  CONVERT VECTOR IN MPAC FROM REF AT 2(+7)
001456: 27,3310           01736                                    REFSMMAT                              #  TO SM AND RESCALE DUE TO HALFUNIT MATRIX
001457: 27,3311           77650                           GOTO                                           #  CONVERT TO BODY AT 2(+7) USING PRESENT
001458: 27,3312           47454                                    CDU*SMNB                              #  CDU ANGLES.  CDU*SMNB WILL RETURN
001459:                                                                                                  #  VIA RVQ TO THE CALLER OF S41.1

End of include-file P40-P47.agc.  Parent file is MAIN.agc


