
Source Code


000002:                                                                                                  ## Copyright:   Public domain.
000003:                                                                                                  ## Filename:    P70-P71.agc
000004:                                                                                                  ## Purpose:     A section of an attempt to reconstruct Sundance revision 306
000005:                                                                                                  ##              as closely as possible with available information. Sundance
000006:                                                                                                  ##              306 is the source code for the Lunar Module's (LM) Apollo
000007:                                                                                                  ##              Guidance Computer (AGC) for Apollo 9. This program was created
000008:                                                                                                  ##              using the mixed-revision SundanceXXX as a starting point, and
000009:                                                                                                  ##              pulling back features from Luminary 69 believed to have been
000010:                                                                                                  ##              added based on memos, checklists, observed address changes,
000011:                                                                                                  ##              or the Sundance GSOPs.
000012:                                                                                                  ## Assembler:   yaYUL
000013:                                                                                                  ## Contact:     Ron Burkey <info@sandroid.org>.
000014:                                                                                                  ## Website:     www.ibiblio.org/apollo/index.html
000015:                                                                                                  ## Mod history: 2020-07-24 MAS  Created from SundanceXXX.
000016:
000017:
000018:
000019: 21,2102                                           BANK     21
000020: 32,2000                                           SETLOC   R11
000021: 32,2000                                           BANK
000022:
000023: 32,3157  E7,1472                                  EBANK=   DVCNTR
000024: 32,3157                                           COUNT*   $$/R11
000025:
000026: 32,3157           05271        ROSEN              TC       FIXDELAY
000027: 32,3160           00062                           DEC      50         B-14
000028:
000029: 32,3161           40102                           CS       FLAGWRD6
000030: 32,3162           75022                           MASK     KILLRBIT
000031: 32,3163           00006                           EXTEND
000032: 32,3164           15331                           BZF      TASKOVER
000033:
000034: 32,3165           41012        P71NOW?            CS       MODREG                                #  YES.  ARE WE IN P71 NOW?
000035: 32,3166           63200                           AD       MODE71
000036: 32,3167           00006                           EXTEND
000037: 32,3170           15331                           BZF      TASKOVER                              #  YES.  EXIT.
000038:
000039: 32,3171           00006                           EXTEND                                         #  NO.  IS AN ABORT STAGE COMMANDED?
000040: 32,3172           00030                           READ     CHAN30
000041: 32,3173           54001                           TS       L
000042: 32,3174           75023                           MASK     BIT4
000043: 32,3175           10000                           CCS      A
000044: 32,3176           13206                           TCF      P70NOW?                               #  NO.
000045:
000046: 32,3177           05361                           TC       NEWMODEX
000047: 32,3200           00107        MODE71             DEC      71         B-14
000048:
000049: 32,3201           37665        STRTABRT           CAF      PRIO25
000050: 32,3202           05155                           TC       FINDVAC
000051: 32,3203  E7,1430                                  EBANK=   WHICH
000052: 32,3203           03224 64067                     2CADR    ABORTJOB
000053:
000054: 32,3205           13157                           TCF      ROSEN
000055:
000056: 32,3206           41012        P70NOW?            CS       MODREG                                #  NO. ARE WE IN P70 NOW?
000057: 32,3207           63217                           AD       MODE70
000058: 32,3210           00006                           EXTEND
000059: 32,3211           13157                           BZF      ROSEN                                 #  YES.  CHECK AGAIN IN 50MS.
000060:
000061: 32,3212           40001                           CS       L                                     #  NO.  IS AN ABORT COMMANDED?
000062: 32,3213           75026                           MASK     BIT1
000063: 32,3214           00006                           EXTEND
000064: 32,3215           13157                           BZF      ROSEN                                 #  NO.
000065:
000066: 32,3216           05361                           TC       NEWMODEX                              #  YES.
000067: 32,3217           00106        MODE70             DEC      70         B-14
000068: 32,3220           13201                           TCF      STRTABRT
000069:
000070: 32,3221                                           BANK     32
000071: 32,2000                                           SETLOC   ABORTS
000072: 32,2000                                           BANK
000073:
000074: 32,3221                                           COUNT*   $$/P70
000075:
000076:
000077: 32,3221           03616        P70                TC       LEGAL?
000078: 32,3222           05361                           TC       NEWMODEX
000079: 32,3223           00106                           DEC      70         B-14
000080:
000081: 32,3224           00006        ABORTJOB           EXTEND                                         #  LOAD TEVENT FOR THE DOWNLINK.
000082: 32,3225           30025                           DCA      TIME2
000083: 32,3226           53355                           DXCH     TEVENT
000084:
000085: 32,3227           05403                           TC       2PHSCHNG
000086: 32,3230           00001                           OCT      00001
000087: 32,3231           00002                           OCT      00002
000088:
000089: 32,3232           05403                           TC       2PHSCHNG
000090: 32,3233           00003                           OCT      00003
000091: 32,3234           00006                           OCT      00006
000092:
000093: 32,3235           05423                           TC       PHASCHNG
000094: 32,3236           07024                           OCT      07024
000095: 32,3237           25000                           OCT      25000
000096: 32,3240  E7,1430                                  EBANK=   WHICH
000097: 32,3240           03245 64067                     2CADR    GOABORT
000098:
000099: 32,3242           00004                           INHINT
000100: 32,3243           04674                           TC       POSTJUMP
000101: 32,3244           12574                           CADR     GOPROG2
000102:
000103: 32,3245           05423        GOABORT            TC       PHASCHNG
000104: 32,3246           04024                           OCT      04024
000105:
000106: 32,3247           36216                           CAF      SIX                                   #  SET UP R60 FOR A 10 DEG/SEC MANUV. RATE.
000107: 32,3250           55331                           TS       RATEINDX
000108:
000109: 32,3251           35010                           CAF      LRBYBIT
000110: 32,3252           55263                           TS       LRSTAT
000111:
000112: 32,3253           00006                           EXTEND
000113: 32,3254           33711                           DCA      SVEXITAD
000114: 32,3255           53253                           DXCH     AVEGEXIT
000115:
000116: 32,3256           36221                           CAF      THREE                                 #  INITIALIZE FOR POWERED DOWNLIST.
000117: 32,3257           54332                           TS       DNLSTCOD
000118: 32,3260           55330                           TS       AGSWORD
000119:
000120: 32,3261           05600                           TC       DOWNFLAG
000121: 32,3262           00155                           ADRES    SWANDISP
000122: 32,3263           05566                           TC       UPFLAG
000123: 32,3264           00211                           ADRES    FLP70
000124: 32,3265           05600                           TC       DOWNFLAG
000125: 32,3266           17140                           CADR     XOVINFLG
000126:
000127: 32,3267           05375                           TC       CHECKMM
000128: 32,3270           00106                           DEC      70         B-14
000129: 32,3271           13530                           TCF      P71RET
000130:
000131: 32,3272           33702        P70INIT            CAF      P70ADR
000132: 32,3273           55430                           TS       WHICH
000133:
000134: 32,3274           06014                           TC       INTPRET
000135: 32,3275           77624                           CALL
000136: 32,3276           65631                                    TGOCOMP
000137: 32,3277           77745                           DLOAD
000138: 32,3300           01244                                    MASS
000139: 32,3301           56206                           PUSH     DDV
000140: 32,3302           25655                                    MDOTDPS*
000141: 32,3303           17642                           STODL    TBUP
000142: 32,3304           70471                           DDV      SR1
000143: 32,3305           25661                                    K(1/DV)
000144: 32,3306           03644                           STORE    1/DV1
000145: 32,3307           03646                           STORE    1/DV2
000146: 32,3310           03650                           STORE    1/DV3
000147: 32,3311           77665                           BDDV
000148: 32,3312           25665                                    K(AT)
000149: 32,3313           17634                           STODL    AT
000150: 32,3314           25675                                    DTDECAY*
000151: 32,3315           17640                           STODL    TTO
000152: 32,3316           25671                                    DPSVEX
000153: 32,3317           03636                           STORE    VE                                    #  INITIALIZE DPS EXHAUST VELOCITY
000154: 32,3320           45014                           SET      CALL
000155: 32,3321           04467                                    FLAP
000156: 32,3322           60046                                    COMMINIT
000157:
000158: 32,3323           45345        INJTARG            DLOAD    DSU
000159: 32,3324           03474                                    TGO
000160: 32,3325           25647                                    50SECS
000161: 32,3326           77444                           BPL      EXIT
000162: 32,3327           65416                                    UPTHROT
000163:
000164: 32,3330           00004                           INHINT
000165: 32,3331           04737                           TC       IBNKCALL
000166: 32,3332           75546                           CADR     ENGINOF1
000167: 32,3333           00003                           RELINT
000168:
000169: 32,3334           03433                           TC       ZONEZERO
000170:
000171: 32,3335           06014        ABRTGUID           TC       INTPRET
000172: 32,3336           45014                           SET      CALL
000173: 32,3337           04470                                    FLIC
000174: 32,3340           60266                                    ASCENT
000175:
000176: 32,3341           77775        ABORTIGN           VLOAD
000177: 32,3342           03250                                    UNFC/2
000178: 32,3343           25256                           STOVL    POINTVSM
000179: 32,3344           06231                                    UNITX
000180: 32,3345           01250                           STORE    SCAXIS
000181: 32,3346           77414                           CLEAR    EXIT
000182: 32,3347           02663                                    NOTHROTL
000183:
000184: 32,3350           05423                           TC       PHASCHNG
000185: 32,3351           04024                           OCT      04024
000186:
000187: 32,3352           05600                           TC       DOWNFLAG
000188: 32,3353           00124                           ADRES    3AXISFLG
000189:
000190: 32,3354           00004                           INHINT
000191: 32,3355           04737                           TC       IBNKCALL
000192: 32,3356           40221                           CADR     SETMINDB
000193:
000194: 32,3357           05600                           TC       DOWNFLAG
000195: 32,3360           00217                           ADRES    FLIC
000196:
000197: 32,3361           04655                           TC       BANKCALL
000198: 32,3362           54103                           CADR     R60LEM
000199:
000200: 32,3363           04655                           TC       BANKCALL
000201: 32,3364           75064                           CADR     P40AUTO
000202:
000203: 32,3365           35030                           CAF      ZERO
000204: 32,3366           55466                           TS       DVTOTAL
000205: 32,3367           55467                           TS       DVTOTAL    +1
000206:
000207: 32,3370           06014                           TC       INTPRET
000208: 32,3371           77624                           CALL
000209: 32,3372           61213                                    INITCDUW
000210: 32,3373           77776                           EXIT
000211:
000212: 32,3374           33641                           CAF      6.5SEC
000213: 32,3375           00004                           INHINT
000214: 32,3376           05252                           TC       WAITLIST
000215: 32,3377  E7,1472                                  EBANK=   DVCNTR
000216: 32,3377           02376 74067                     2CADR    ULLGTASK
000217:
000218: 32,3401           33640                           CAF      5.0SEC
000219: 32,3402           05252                           TC       WAITLIST
000220: 32,3403  E7,1426                                  EBANK=   TTOGO
000221: 32,3403           02402 74067                     2CADR    TIG-5
000222:
000223: 32,3405           00006                           EXTEND
000224: 32,3406           30025                           DCA      TIME2
000225: 32,3407           53425                           DXCH     TIG
000226: 32,3410           00006                           EXTEND
000227: 32,3411           33643                           DCA      10SECS
000228: 32,3412           21425                           DAS      TIG
000229: 32,3413           04655                           TC       BANKCALL
000230: 32,3414           74655                           CADR     STCLOK3
000231:
000232: 32,3415           13427                           TCF      UPTHROT1
000233:
000234: 32,3416           77414        UPTHROT            SET      EXIT
000235: 32,3417           04461                                    FLVR
000236:
000237: 32,3420           00004                           INHINT
000238: 32,3421           35026                           CAF      ONE
000239: 32,3422           05252                           TC       WAITLIST
000240: 32,3423  E7,1472                                  EBANK=   DVCNTR
000241: 32,3423           02566 74067                     2CADR    ZOOM
000242:
000243: 32,3425           04655                 -2        TC       BANKCALL                              #  VERIFY THAT THE PANEL SWITCHES
000244: 32,3426           75064                           CADR     P40AUTO                               #  ARE PROPERLY SET.
000245:
000246: 32,3427           00006        UPTHROT1           EXTEND                                         #  SET SERVICER TO CALL ASCENT GUIDANCE.
000247: 32,3430           33707                           DCA      ATMAGAD
000248: 32,3431           53253                           DXCH     AVGEXIT
000249:
000250: 32,3432           15225                           TCF      ENDOFJOB
000251:
000252:
000253: 32,3433           06014        ZONEZERO           TC       INTPRET
000254: 32,3434           77731                           SSP
000255: 32,3435           01263                                    OUTROUTE
000256: 32,3436           65444                           CADR     ZONE0RET
000257: 32,3437           77414                           CLEAR    EXIT
000258: 32,3440           03672                                    AVEGFLAG
000259:
000260: 32,3441           05423                           TC       PHASCHNG
000261: 32,3442           00004                           OCT      00004
000262:
000263: 32,3443           15225                           TCF      ENDOFJOB
000264:
000265: 32,3444           05423        ZONE0RET           TC       PHASCHNG
000266: 32,3445           05024                           OCT      05024
000267: 32,3446           20000                           OCT      20000
000268:
000269: 32,3447           06014                           TC       INTPRET
000270: 32,3450           43234                           RTB      DAD
000271: 32,3451           21454                                    LOADTIME
000272: 32,3452           25645                                    80SEC
000273: 32,3453           03546                           STORE    PIPTIME1                              #  STORE TEMPORARILY IN PIPTIME1.
000274: 32,3454           34041                           STCALL   TDEC1
000275: 32,3455           27030                                    LEMPREC
000276: 32,3456           77775                           VLOAD
000277: 32,3457           00007                                    VATT
000278: 32,3460           03540                           STORE    VN1                                   #  STORE VTIG TEMPORARILY IN VN1.
000279: 32,3461           76521                           MXV      VSL1
000280: 32,3462           01736                                    REFSMMAT
000281: 32,3463           27504                           STOVL    V
000282: 32,3464           00001                                    RATT
000283: 32,3465           03532                           STORE    RN1                                   #  STORE RTIG TEMPORARILY IN RN1.
000284: 32,3466           52521                           MXV      VSL6
000285: 32,3467           01736                                    REFSMMAT
000286: 32,3470           37476                           STCALL   R
000287: 32,3471           67203                                    MUNGRAV
000288: 32,3472           45014                           SET      CALL
000289: 32,3473           04471                                    FLZONE0
000290: 32,3474           60266                                    ASCENT
000291: 32,3475           77776        PREBRET1           EXIT
000292: 32,3476           05423                           TC       PHASCHNG
000293: 32,3477           04024                           OCT      04024
000294: 32,3500           06014                           TC       INTPRET
000295: 32,3501           76505                           VXM      VSL1
000296: 32,3502           01736                                    REFSMMAT
000297: 32,3503           03643                           STORE    DELVSIN
000298: 32,3504           77646                           ABVAL
000299: 32,3505           27651                           STOVL    DELVSAB
000300: 32,3506           03532                                    RN1
000301: 32,3507           27627                           STOVL    RTIG
000302: 32,3510           03540                                    VN1
000303: 32,3511           17635                           STODL    VTIG
000304: 32,3512           03546                                    PIPTIME1
000305: 32,3513           03425                           STORE    TIG
000306: 32,3514           43014                           SET      CLEAR
000307: 32,3515           01067                                    XDELVFLG
000308: 32,3516           03267                                    MUNFLAG
000309: 32,3517           77776                           EXIT
000310:
000311: 32,3520           05361                           TC       NEWMODEX
000312: 32,3521           00050                           DEC      40         B-14
000313: 32,3522           04674                           TC       POSTJUMP
000314: 32,3523           75133                           CADR     P40LM
000315:
000316: 32,3524           03616        P71                TC       LEGAL?
000317: 32,3525           05361                           TC       NEWMODEX
000318: 32,3526           00107                           DEC      71         B-14
000319: 32,3527           13224                           TCF      ABORTJOB
000320:
000321: 32,3530           33703        P71RET             CAF      P71ADR
000322: 32,3531           55430                           TS       WHICH
000323:
000324: 32,3532           05566                           TC       UPFLAG
000325: 32,3533           00144                           ADRES    KILLROSE
000326:
000327: 32,3534           06014                           TC       INTPRET
000328: 32,3535           77624                           CALL
000329: 32,3536           60031                                    P12INIT
000330: 32,3537           77776                           EXIT
000331:
000332: 32,3540           00006                           EXTEND
000333: 32,3541           00030                           READ     CHAN30
000334: 32,3542           40000                           COM
000335: 32,3543           75023                           MASK     BIT4
000336: 32,3544           10000                           CCS      A
000337: 32,3545           13601                           TCF      ABRTSTAG
000338:
000339: 32,3546           00004                           INHINT
000340: 32,3547           04737                           TC       IBNKCALL
000341: 32,3550           75546                           CADR     ENGINOF1
000342: 32,3551           00003                           RELINT
000343:
000344: 32,3552           35025                           CAF      BIT2
000345: 32,3553           00006                           EXTEND
000346: 32,3554           02030                           RAND     CHAN30
000347: 32,3555           10000                           CCS      A
000348: 32,3556           13565                           TCF      STAGED
000349:
000350: 32,3557           33704                           CAF      OCT206
000351: 32,3560           04655                           TC       BANKCALL
000352: 32,3561           20532                           CADR     GOPERF1
000353: 32,3562           14106                           TCF      GOTOPOOH
000354: 32,3563           13565                           TCF      STAGED
000355: 32,3564           13557                           TCF      -5
000356:
000357: 32,3565           33705        STAGED             CAF      OCT207
000358: 32,3566           04655                           TC       BANKCALL
000359: 32,3567           20532                           CADR     GOPERF1
000360: 32,3570           14106                           TCF      GOTOPOOH
000361: 32,3571           13573                           TCF      +2
000362: 32,3572           13335                           TCF      ABRTGUID
000363:
000364: 32,3573           00004                           INHINT
000365: 32,3574           35026                           CAF      ONE
000366: 32,3575           05252                           TC       WAITLIST
000367: 32,3576  E7,1472                                  EBANK=   DVCNTR
000368: 32,3576           02446 74067                     2CADR    IGNITION
000369:
000370: 32,3600           13427                           TCF      UPTHROT1
000371:
000372: 32,3601           06014        ABRTSTAG           TC       INTPRET
000373: 32,3602           77614                           BOFF
000374: 32,3603           04747                                    FLAP
000375: 32,3604           65612                                    NEWTIME
000376: 32,3605           72545                           DLOAD    SL1
000377: 32,3606           03474                                    TGO
000378: 32,3607           03474                           STORE    TGO
000379: 32,3610           77634                           RTB
000380: 32,3611           65425                                    UPTHROT1   -2
000381:
000382: 32,3612           77624        NEWTIME            CALL
000383: 32,3613           65631                                    TGOCOMP                               #  IF FLAP=0, TGO=T-TIG
000384: 32,3614           77650                           GOTO
000385: 32,3615           65323                                    INJTARG
000386:
000387:                                                                                                  #  ************************************************************************
000388:
000389: 32,3616           40105        LEGAL?             CS       FLAGWRD9                              #  ARE THE ABORTS ENABLED?
000390: 32,3617           75016                           MASK     LETABBIT
000391: 32,3620           10000                           CCS      A
000392: 32,3621           13627                           TCF      ABORTALM
000393:
000394: 32,3622           40103                           CS       FLAGWRD7                              #  IS SERVICER ON THE AIR?
000395: 32,3623           75022                           MASK     AVEGFBIT
000396: 32,3624           10000                           CCS      A
000397: 32,3625           13627                           TCF      ABORTALM
000398: 32,3626           00002                           TC       Q                                     #  YES. ALL IS WELL.
000399:
000400: 32,3627           04674        ABORTALM           TC       POSTJUMP
000401: 32,3630           75714                           CADR     P40ALM
000402:
000403:                                                                                                  #  ************************************************************************
000404:
000405: 32,3631           45234        TGOCOMP            RTB      DSU
000406: 32,3632           21454                                    LOADTIME
000407: 32,3633           03425                                    TIG
000408: 32,3634           77661                           SL
000409: 32,3635           20214                                    11D
000410: 32,3636           03474                           STORE    TGO
000411: 32,3637           77616                           RVQ
000412:
000413:                                                                                                  #  ************************************************************************
000414:
000415: 32,3640           00764        5.0SEC             DEC      500        B-14
000416:
000417: 32,3641           01212        6.5SEC             DEC      650        B-14
000418:
000419: 32,3642           00000 01750  10SECS             2DEC     1000       B-28
000420:
000421: 32,3644           00000 17500  80SEC              2DEC     8000       B-28
000422:
000423: 32,3646           01161 00000  50SECS             2DEC     5000       B-17
000424:
000425: 32,3650           00021 33400  HINJECT            2DEC     18288      B-24                       #  60,000 FEET EXPRESSED IN METERS.
000426:
000427: 32,3652           04143 27611  ABTVINJ2           2DEC     +16.77924013 B-7
000428:
000429: 32,3654           11075 16051  MDOTDPS*           2DEC     0.1425     B1
000430:
000431:
000432: 32,3656           04031 23146  (1/DV)A            2DEC     16.20      B-7                        #  2 SECONDS WORTH OF INITIAL ASCENT
000433:
000434:                                                                                                  #  STAGE ACCELERATION -- INVERTED (M/CS)
000435:                                                                                                  #  1) PREDICATED ON A LIFTOFF MASS OF
000436:                                                                                                  #     4869.9 KG (SNA-8-D-027  7/11/68)
000437:                                                                                                  #  2) PREDICATED ON A CONTRIBUTION TO VEH-
000438:                                                                                                  #     ICLE ACCELERATION FROM RCS THRUSTERS
000439:                                                                                                  #     EQUIV. TO 1 JET ON CONTINUOUSLY.
000440: 32,3660           33025 16051  K(1/DV)            2DEC     432.67     B-9                        #  DPS ENGINE THRUST IN NEWTONS / 100 CS.
000441:
000442: 32,3662           05034 27135  (AT)A              2DEC     3.086      E-4        B9              #  INITIAL ASC. STG. ACCELERATION ** M/CS.
000443:                                                                                                  #  ASSUMPTIONS SAME AS FOR (1/DV)A.
000444:
000445: 32,3664           00507 25605  K(AT)              2DEC     .02                                   #  SCALING CONSTANT
000446:
000447: 32,3666           27774 34000  (TBUP)A            2DEC     98279      B-17                       #  ESTIMATED BURN-UP TIME OF THE ASCENT STG
000448:                                                                                                  #  ASSUMPTIONS SAME AS FOR (1/DV)A WITH THE
000449:                                                                                                  #  ADDITIONAL ASSUMPTION THAT NET MASS-FLOW
000450:                                                                                                  #  RATE = 5.299 KG/SEC = 5.135 (APS) +
000451:                                                                                                  #  .164 (1 RCS JET).
000452:
000453:                                                                                                  #  *** THE ORDER OF THE FOLLOWING TWO CONSTANTS MUST NOT BE CHANGED *******
000454:
000455: 32,3670           07270 10464  DPSVEX             2DEC     2943.96    E-2        B-7             #  9942 FT/SEC IN M/CS.
000456:
000457: 32,3672           07404 32650  APSVEX             2DEC     3003.78    E-2        B-7             #  9684 FT/SEC IN M/CS.
000458:
000459: 32,3674           00004 22000  DTDECAY*           2DEC     36.5       B-17
000460:
000461: 32,3676           00001 21146  ATDECAY*           2DEC     12.3       B-17
000462:
000463: 32,3700           12771 00000  (TGO)A             2DEC     45000      B-17
000464:
000465: 32,3702           02077        P70ADR             REMADR   P70TABLE
000466: 32,3703           02115        P71ADR             REMADR   P71TABLE
000467:
000468: 32,3704           00206        OCT206             OCT      206
000469: 32,3705           00207        OCT207             OCT      207
000470:
000471:                                                                                                  #  ************************************************************************
000472: 32,3706  E7,1472                                  EBANK=   DVCNTR
000473: 32,3706           02213 60067  ATMAGAD            2CADR    ATMAG
000474:
000475: 32,3710  E7,1472                                  EBANK=   DVCNTR
000476: 32,3710           02354 66067  SVEXITAD           2CADR    SERVEXIT

End of include-file P70-P71.agc.  Parent file is MAIN.agc


