
Source Code


000002:                                                                                                  ## Copyright:   Public domain.
000003:                                                                                                  ## Filename:    PHASE_TABLE_MAINTENANCE.agc
000004:                                                                                                  ## Purpose:     A section of an attempt to reconstruct Sundance revision 306
000005:                                                                                                  ##              as closely as possible with available information. Sundance
000006:                                                                                                  ##              306 is the source code for the Lunar Module's (LM) Apollo
000007:                                                                                                  ##              Guidance Computer (AGC) for Apollo 9. This program was created
000008:                                                                                                  ##              using the mixed-revision SundanceXXX as a starting point, and
000009:                                                                                                  ##              pulling back features from Luminary 69 believed to have been
000010:                                                                                                  ##              added based on memos, checklists, observed address changes,
000011:                                                                                                  ##              or the Sundance GSOPs.
000012:                                                                                                  ## Assembler:   yaYUL
000013:                                                                                                  ## Contact:     Ron Burkey <info@sandroid.org>.
000014:                                                                                                  ## Website:     www.ibiblio.org/apollo/index.html
000015:                                                                                                  ## Mod history: 2020-07-24 MAS  Created from SundanceXXX.
000016:
000017:
000018:
000019:                                                                                                  #  SUBROUTINE TO UPDATE THE PROGRAM NUMBER DISPLAY ON THE DSKY.
000020:
000021: 43,3724                                           COUNT*   $$/PHASE
000022:    5361                                           BLOCK    02
000023:    4000                                           SETLOC   FFTAG1
000024:    4000                                           BANK
000025:
000026:    5361           50002        NEWMODEX           INDEX    Q                                     #  UPDATE MODREG. ENTRY FOR MODE IN FIXED.
000027:    5362           30000                           CAF      0
000028:    5363           24002                           INCR     Q
000029:
000030:    5364           57012        NEWMODEA           XCH      MODREG                                #  ENTRY FOR MODE IN A
000031:    5365           40000                           COM                                            #  IF NO CHANGE IN MODE, RETURN IMMEDIATELY
000032:    5366           61012                           AD       MODREG
000033:    5367           00006                           EXTEND
000034:    5370           16716                           BZF      TCQ
000035:
000036:    5371           35374        MMDSPLAY           CAF      +3                                    #  DISPLAY MAJOR MODE.
000037:    5372           22006        PREBJUMP           LXCH     BBANK                                 #  PUTS BBANK IN L
000038:    5373           14677                           TCF      BANKJUMP                              #  PUTS Q INTO A
000039:    5374           20100                           CADR     SETUPDSP
000040:
000041:                                                                                                  #  RETURN TO CALLER +3 IF MODE = THAT AT CALLER +1. OTHERWISE RETURN TO CALLER +2.
000042:
000043:    5375           50002        CHECKMM            INDEX    Q
000044:    5376           40000                           CS       0
000045:    5377           61012                           AD       MODREG
000046:    5400           00006                           EXTEND
000047:    5401           16715                           BZF      Q+2
000048:    5402           16713                           TCF      Q+1                                   #  NO MATCH
000049:
000050:    5403     6716               TCQ                =        Q+2        +1
000051:
000052:
000053: 14,3734                                           BANK     14
000054: 10,2000                                           SETLOC   PHASETAB
000055: 10,2000                                           BANK
000056:
000057: 10,2100                                           COUNT*   $$/PHASE
000058: 10,2100           00004        SETUPDSP           INHINT
000059: 10,2101           52071                           DXCH     RUPTREG1                              #  SAVE CALLER-S RETURN 2CADR
000060: 10,2102           34367                           CAF      PRIO30                                #    EITHER A TASK OR JOB CAN COME TO
000061: 10,2103           05142                           TC       NOVAC                                 #    NEWMODE X
000062: 10,2104     1012                                  EBANK=   MODREG
000063: 10,2104           03636 60102                     2CADR    DSPMMJOB
000064:
000065: 10,2106           52071                           DXCH     RUPTREG1
000066: 10,2107           00003                           RELINT
000067: 10,2110           52006                           DXCH     Z                                     #  RETURN
000068:
000069: 10,2111  40,3636               DSPMMJOB           EQUALS   DSPMMJB
000070:
000071:
000072:    5403                                           BLOCK    02
000073:    4000                                           SETLOC   FFTAG1
000074:    4000                                           BANK
000075:
000076:                                                                                                  #  PHASCHNG IS THE MAIN WAY OF MAKING PHASE CHANGES FOR RESTARTS.  THERE ARE THREE FORMS OF PHASCHNG, KNOWN AS TYPE
000077:                                                                                                  #  A, TYPE B, AND TYPE C. THEY ARE ALL CALLED AS FOLLOWS, WHERE OCT XXXXX CONTAINS THE PHASE INFORMATION,
000078:                                                                                                  #                TC      PHASCHNG
000079:                                                                                                  #                OCT     XXXXX
000080:                                                                                                  #  TYPE A IS CONCERNED WITH FIXED PHASE CHANGES, THAT IS, PHASE INFORMATION THAT IS STORED PERMANENTLY.  THESE
000081:                                                                                                  #  OPTIONS ARE, WHERE G STANDS FOR A GROUP AND .X FOR THE PHASE,
000082:                                                                                                  #        G.0             INACTIVE, WILLNOT PERMIT A GROUP G RESTART
000083:                                                                                                  #        G.1             WILL CAUSE THE LAST DISPLAY TO BE REACTIVATED, USED MAINLY IN MANNED FLIGHTS
000084:                                                                                                  #        G.EVEN          A DOUBLE TABLE RESTART, CAN CAUSE ANY COMBINATION OF TWO JOBS, TASKS, AND/OR
000085:                                                                                                  #                        LONGCALL TO BE RESTARTED.
000086:                                                                                                  #        G.ODD NOT .1    A SINGLE TABLE RESTART, CAN CAUSE EITHER A JOB, TASK, OR LONGCALL RESTART
000087:
000088:                                                                                                  #  THIS INFORMATION IS PUT INTO THE OCTAL WORD AFTER TC PHASCHNG AS FOLLOWS
000089:                                                                                                  #        TL0 00P PPP PPP GGG                                               ,
000090:                                                                                                  #  WHERE EACH LETTER OR NUMBER STANDS FOR A BIT.  THE G:S STAND FOR THE GROUP, OCTAL 1-7, THE P:S FOR THE PHASE,
000091:                                                                                                  #  OCTAL 0 - 127.  0:S MUST BE 0.              IF ONE WISHES TO HAVE THE TBASE OF GROUP G TO BE SET AT THIS TIME,
000092:                                                                                                  #  T IS SET TO 1, OTHERWISE IT IS SET TO 0.  SIMIARLY IF ONE WISHES TO SET LONGBASE, THEN L IS SET TO 1, OTHERWISE
000093:                                                                                                  #  IT IS SET TO 0.  SOME EXAMPLES,
000094:                                                                                                  #                TC      PHASCHNG        THIS WILL CAUSE GROUP 3 TO BE SET TO 0,
000095:                                                                                                  #                OCT     00003           MAKING GROUP 3 INACTIVE
000096:
000097:                                                                                                  #                TC      PHASCHNG        IF A RESTART OCCURS THIS WOULD CAUSE
000098:                                                                                                  #                OCT     00012           GROUP 2 TO RESTART THE LAST DISPLAY
000099:
000100:                                                                                                  #                TC      PHASCHNG        THIS SETS THE TBASE OF GROUP 4 AND IN
000101:                                                                                                  #                OCT     40064           CASE OF A RESTART WOULD START UP THE TWO
000102:                                                                                                  #                                        THINGS LOCATED IN THE DOUBLE 4.6 RESTART
000103:                                                                                                  #                                        LOCATION
000104:                                                                                                  #                TC      PHASCHNG        THIS SETS LONGBASE AND UPON A RESTART
000105:                                                                                                  #                OCT     20135           CAUSES 5.13 TO BE RESTARTED (SINCE
000106:                                                                                                  #                                        LONGBASE WAS SET THIS SINGLE ENTRY
000107:                                                                                                  #                                        SHOULD BE A LONGCALL)
000108:
000109:                                                                                                  #                TC      PHASCHNG        SINCE BOTH TBASE4 AND LONGBASE ARE SET,
000110:                                                                                                  #                OCT     60124           4.12 SHOULD CONTAIN BOTH A TASK AND A
000111:                                                                                                  #                                        LONGCALL TO BE RESTARTED
000112:
000113:                                                                                                  #  TYPE C PHASCHNG CONTAINS THE VARIABLE TYPE OF PHASCHNG INFORMATION. INSTEAD OF THE INFORMATION BEING IN A
000114:                                                                                                  #  PERMANENT FORM, ONE STORES THE DESIRED RESTART INFORMATION IN A VARIABKE LOCATION. THE BITS ARE AS FOLLOWS,
000115:                                                                                                  #        TL0 1AD XXX CJW GGG
000116:                                                                                                  #  WHERE EACH LETTER OR NUMBER STANDS FOR A BIT.  THE G:S STAND FOR THE GROUP, OCTAL 1 - 7.  IF THE RESTART IS TO
000117:                                                                                                  #  BE BY WAITLIST, W IS SET TO 1, IF IT IS A JOB, J IS SET TO 1, IF IT IS A LONGCALL, C IS SET TO 1.  ONLY ONE OF
000118:                                                                                                  #  THESE THREE BITS MAY BE SET.  X:S ARE IGNORED  1 MUST BE 1, AND 0 MUST BE 0.  AGAIN T STANDS FOR THE TBASE,
000119:                                                                                                  #  AND L FOR LONGBASE.  THE BITS A AND D ARE CONCERNED WITH THE VARIABLE INFORMATION. IF D IS SET TO 1, A PRIORITY
000120:                                                                                                  #  OR DELTA TIME WILL BE READ FROM THE NEXT LOCATION AFTER THE OCTAL INFORMATION, IF THIS IS TO BE INDIRECT, THAT
000121:                                                                                                  #  IS, THE NAME OF A LOCATION COMT+INING THE INFORMATION (DELTA TIME ONLY), THEN THIS IS GIVEN AS THE -GENADR OF
000122:                                                                                                  #  THAT LOCATION WHICH CONTAINS THE DELTA TIME.  IF THE OLD PRIORITY OR DELTA TIME IS TO BE USED, THAT WHICH IS
000123:                                                                                                  #  ALREADY IN THE VARIABLE STORAGE, THEN D IS SET TO 0. NEXT THE A BIT IS USED.  IF IT IS SET TO 0, THE ADDRESS
000124:                                                                                                  #  THAT WOULD BE RESTARTED DURING A RESTART IS THE NEXT LOCATION AFTER  THE PHASE INFORMATION, THAT IS, EITHER
000125:                                                                                                  #  (TC PHASCHNG) +2 OR +3, DEPENDING ON WHETHER D HAD BEEN SET OR NOT.  IF A IS SET TO 1, THEN THE ADDRESS THAT
000126:                                                                                                  #  WOULD BE RESTARTED IS THE 2CADR THAT IS READ FROM THE NEXT TWO LOCATIONS.  EXAMPLES,
000127:                                                                                                  #        AD      TC      PHASCHNG        THIS WOULD CAUSE LOCATION AD +3 TO BE
000128:                                                                                                  #        AD+1    OCT     05023           RESTARTED BY GROUP THREE WITH A PRIORITY
000129:                                                                                                  #        AD+2    OCT     23000           OF 23.  NOTE UPON RETURNING IT WOULD
000130:                                                                                                  #        AD+3                            ALSO GO TO AD+3
000131:
000132:                                                                                                  #        AD      TC      PHASCHNG        GROUP 1 WOULD CAUSE CAUSE CALLCALL TO
000133:                                                                                                  #        AD+1    OCT     27441           BE STARTED AS A LONGCALL FROM THE TIME
000134:                                                                                                  #        AD+2    -GENADR DELTIME         STORED IN LONGBASE (LONGBASE WAS SET) BY
000135:                                                                                                  #        AD+3    2CADR   CALLCALL        A DELTA TIME STORED IN DELTIME.  THE
000136:                                                                                                  #        AD+4                            BBCON OF THE 2CADR SHOULD CONTAIN THE E
000137:                                                                                                  #        AD+5                            BANK OF DELTIME.  PHASCHNG RETURNS TO
000138:                                                                                                  #                                        LOCATION AD+5
000139:
000140:                                                                                                  #  NOTE THAT IF A VARIABLE PRIORITY IS GIVEN FOR A JOB, THE JOB WILL BE RESTARTED AS A NOVAC IF THE PRIORITY IS
000141:                                                                                                  #  NEGATIVE, AS A FINDVAC IF THE PRIORITY IS POSITIVE.
000142:
000143:                                                                                                  #  TYPE B PHASCHNG IS A COMBINATION OF VARIABLE AND FIXED PHASE CHANGES. IT WILL START UP A JOB AS INDICATED
000144:                                                                                                  #  BELOW AND ALSO START UP ONE FIXED RESTART, THAT IS EITHER AN G.1 OR A G.ODD OR THE FIRST ENTRY OF G.EVEN
000145:                                                                                                  #  DOUBLE ENTRY.  THE BIT INFORMATION IS AS FOLLOWS,
000146:                                                                                                  #        TL1 DAP PPP PPP GGG
000147:                                                                                                  #  WHERE EACH LETTER OR NUMBER STANDS FOR A BIT.  THE G:S STAND FOR THE GROUP, OCTAL 1 - 7. THE P:S FOR THE FIXED
000148:                                                                                                  #  PHASE INFORMATION, OCTAL 0 - 127. 1 MUST BE 1.  AND AGAIN T STANDS FOR THE TBASE AND L FOR LONGBASE. D THIS
000149:                                                                                                  #  TIME STANDS ONLY FOR PRIORITY SINCE THIS WILL BE CONSIDERED A JOB, AND IT MUST BE GIVEN DIRECTLY IF GIVEN.
000150:                                                                                                  #  AGAIN A STANDS FOR THE ADDRESS OF THE LOCATION TO BE RESTARTED, 1 IF THE 2CADR IS GIVEN, OR 0 IF IT IS TO BE
000151:                                                                                                  #  THE NEXT LOCATION.  (THE RETURN LOCATION OF PHASCHNG) EXAMPLES,
000152:                                                                                                  #        AD      TC      PHASCHNG        TBASE IS SET AND A RESTART CAUSE GROUP 3
000153:                                                                                                  #        AD+1    OCT     56043           TO START THE JOB AJOBAJOB WITH PRIORITY
000154:                                                                                                  #        AD+2    OCT     31000           31 AND THE FIRST ENTRY OF 3.4SPOT (WE CAN
000155:                                                                                                  #        AD+3    2CADR   AJOBAJOB        ASSUME IT IS A TASK SINCE WE SET TBASE3)
000156:                                                                                                  #        AD+4                            UPON RETURN FROM PHASCHNG CONTROL WOULD
000157:                                                                                                  #        AD+5                            GO TO AD+5
000158:
000159:                                                                                                  #        AD      TC      PHASCHNG        UPON A RESTART THE LAST DISPLAY WOULD BE
000160:                                                                                                  #        AD+1    OCT     10015           RESTARTED AND A JOB WITH THE PREVIOUSLY
000161:                                                                                                  #        AD+2                            STORED PRIORITY WOULD BE BEGUN AT AD+2
000162:                                                                                                  #                                        BY MEANS OF GROUP 5
000163:                                                                                                  #  THE NOVAC-FINDVAC CHOICE FOR JOBS HOLDS HERE ALSO - NEGATIVE PRIORITY CAUSES A NOVAC CALL, POSITIVE A FINDVAC.
000164:
000165:                                                                                                  #  SUMMARY OF BITS
000166:                                                                                                  #        TYPE A          TL0 00P PPP PPP GGG
000167:                                                                                                  #        TYPE B          TL1 DAP PPP PPP GGG
000168:                                                                                                  #        TYPE C          TL0 1AD XXX CJW GGG
000169:
000170:                                                                                                  #  2PHSCHNG IS USED WHEN ONE WISHES TO START UP A GROUP OR CHANGE A GROUP WHILE UNDER THE CONTROL OF A DIFFERENT
000171:                                                                                                  #  GROUP. FOR EXAMPLE, CHANGE THE PHASE OF GROUP 3 WHILE THE PORTION OF THE PROGRAM IS UNDER GROUP 5. ALL 2PHSCHNG
000172:                                                                                                  #  CALLS ARE MADE IN THE FOLLOWING MANNER,
000173:                                                                                                  #                TC      2PHSCHNG
000174:                                                                                                  #                OCT     XXXXX
000175:                                                                                                  #                OCT     YYYYY
000176:                                                                                                  #  WHERE OCT XXXXX MUST BE OF TYPE A AND OCT YYYYY MAY BE OF EITHER TYPE A OR TYPE B OR TYPEC.  THERE IS ONE
000177:                                                                                                  #  DIFFERENCE --- NOTE- IF LONGBASE IS TO BE SET THIS INFORMATION IS GIVEN IN THE OCT YYYYY INFORMATION, IT WILL
000178:                                                                                                  #  BE DISREGARDED IF GIVEN WITH THE OCT XXXXX INFORMATION.  A COUPLE OF EXAMPLES MAY HELP,
000179:                                                                                                  #        AD      TC      2PHSCHNG        SET TBASE3 AND IF A RESTART OCCURS START
000180:                                                                                                  #        AD+1    OCT     40083           THE TWO ENTRIES IN 3.8 TABLE LOCATION
000181:                                                                                                  #        AD+2    OCT     05025           THIS IS OF TYPE C, SET THE JOB TO BE
000182:                                                                                                  #        AD+3    OCT     18000           TO BE LOCATION AD+4, WITH A PRIORITY 18,
000183:                                                                                                  #        AD+4                            FOR GROUP 5 PHASE INFORMATION
000184:
000185:    5403                                           COUNT*   $$/PHASE
000186:    5403           00004        2PHSCHNG           INHINT                                         #  THE ENTRY FOR A DOUBLE PHASE CHANGE
000187:    5404           50002                           NDX      Q
000188:    5405           30000                           CA       0
000189:    5406           24002                           INCR     Q
000190:    5407           54072                           TS       TEMPP2
000191:
000192:    5410           75032                           MASK     OCT7
000193:    5411           60000                           DOUBLE
000194:    5412           54071                           TS       TEMPG2
000195:
000196:    5413           30072                           CA       TEMPP2
000197:    5414           75100                           MASK     OCT17770                              #  NEED ONLY 1770, BUT WHY GET A NEW CONST.
000198:    5415           00006                           EXTEND
000199:    5416           75013                           MP       BIT12
000200:    5417           56072                           XCH      TEMPP2
000201:
000202:    5420           75010                           MASK     BIT15
000203:    5421           54066                           TS       TEMPSW2                               #  INDICATES WHETHER TO SET TBASE OR NOT
000204:
000205:    5422           15426                           TCF      PHASCHNG   +3
000206:
000207:    5423           00004        PHASCHNG           INHINT
000208:    5424           35026                           CA       ONE                                   #  INDICATESWE CAME FROM A PHASCHNG ENTRY
000209:    5425           54066                           TS       TEMPSW2
000210:
000211:    5426           50002                           NDX      Q
000212:    5427           30000                           CA       0
000213:    5430           24002                           INCR     Q
000214:    5431           54065                           TS       TEMPSW
000215:
000216:    5432           00006                           EXTEND
000217:    5433           35436                           DCA      ADRPCHN2                              #  OFF TO SWITCHED BANK
000218:    5434           52006                           DTCB
000219:
000220:    5435  E3,1400                                  EBANK=   LST1
000221:    5435           02111 20103  ADRPCHN2           2CADR    PHSCHNG2
000222:
000223:    5437           22073        ONEORTWO           LXCH     TEMPBBCN
000224:    5440           22006                           LXCH     BBANK
000225:    5441           22073                           LXCH     TEMPBBCN
000226:
000227:    5442           75074                           MASK     OCT14000                              #  SEE WHAT KIND OF PHASE CHANGE IT IS
000228:    5443           10000                           CCS      A
000229:    5444           15505                           TCF      CHECKB                                #  IT IS OF TYPE :B:
000230:
000231:    5445           30062                           CA       TEMPP
000232:    5446           75020                           MASK     BIT7
000233:    5447           10000                           CCS      A                                     #  SHALL WE USE THE OLD PRIORITY
000234:    5450           15472                           TCF      GETPRIO                               #  NO GET A NEW PRIORITY (OR DELTA T)
000235:
000236:    5451           50061        OLDPRIO            NDX      TEMPG                                 #  USE THE OLD PRIORITY (OR DELTA T)
000237:    5452           31053                           CA       PHSPRDT1   -2
000238:    5453           54070                           TS       TEMPPR
000239:
000240:    5454           30062        CON1               CA       TEMPP                                 #  SEE IF A 2CADR IS GIVEN
000241:    5455           75017                           MASK     BIT8
000242:    5456           10000                           CCS      A
000243:    5457           15476                           TCF      GETNEWNM
000244:
000245:    5460           30002                           CA       Q
000246:    5461           54063                           TS       TEMPNM
000247:    5462           30006                           CA       BB
000248:    5463           00006                           EXTEND                                         #  PICK UP USERS SUPERBANK
000249:    5464           04007                           ROR      SUPERBNK
000250:    5465           54064                           TS       TEMPBB
000251:
000252:    5466           35471        TOCON2             CA       CON2ADR                               #  BACK TO SWITCHED BANK
000253:    5467           22073                           LXCH     TEMPBBCN
000254:    5470           52006                           DTCB
000255:
000256:    5471           02177        CON2ADR            GENADR   CON2
000257:
000258:    5472           50002        GETPRIO            NDX      Q                                     #  DON:T CARE IF DIRECT OR INDIRECT
000259:    5473           30000                           CA       0                                     #  LEAVE THAT DECISION TO RESTARTS
000260:    5474           24002                           INCR     Q                                     #  OBTAIN RETURN ADDRESS
000261:    5475           15453                           TCF      CON1       -1
000262:
000263:    5476           00006        GETNEWNM           EXTEND
000264:    5477           50002                           INDEX    Q
000265:    5500           30001                           DCA      0
000266:    5501           52064                           DXCH     TEMPNM
000267:    5502           35025                           CA       TWO
000268:    5503           26002                           ADS      Q                                     #  OBTAIN RETURN ADDRESS
000269:
000270:    5504           15466                           TCF      TOCON2
000271:
000272:    5505     5074               OCT14000           EQUALS   PRIO14
000273:    5505     0061               TEMPG              EQUALS   ITEMP1
000274:    5505     0062               TEMPP              EQUALS   ITEMP2
000275:    5505     0063               TEMPNM             EQUALS   ITEMP3
000276:    5505     0064               TEMPBB             EQUALS   ITEMP4
000277:    5505     0065               TEMPSW             EQUALS   ITEMP5
000278:    5505     0066               TEMPSW2            EQUALS   ITEMP6
000279:    5505     0070               TEMPPR             EQUALS   RUPTREG1
000280:    5505     0071               TEMPG2             EQUALS   RUPTREG2
000281:    5505     0072               TEMPP2             EQUALS   RUPTREG3
000282:
000283:    5505     0073               TEMPBBCN           EQUALS   RUPTREG4
000284:    5505  0000006               BB                 EQUALS   BBANK
000285:
000286:
000287: 14,3734                                           BANK     14
000288: 10,2000                                           SETLOC   PHASETAB
000289: 10,2000                                           BANK
000290:
000291: 10,2111  E3,1436                                  EBANK=   PHSNAME1
000292: 10,2111                                           COUNT*   $$/PHASE
000293: 10,2111           22073        PHSCHNG2           LXCH     TEMPBBCN
000294: 10,2112           30065                           CA       TEMPSW
000295: 10,2113           75032                           MASK     OCT7
000296: 10,2114           60000                           DOUBLE
000297: 10,2115           54061                           TS       TEMPG
000298:
000299: 10,2116           30065                           CA       TEMPSW
000300: 10,2117           75100                           MASK     OCT17770
000301: 10,2120           00006                           EXTEND
000302: 10,2121           75013                           MP       BIT12
000303: 10,2122           54062                           TS       TEMPP
000304:
000305: 10,2123           30065                           CA       TEMPSW
000306: 10,2124           74105                           MASK     OCT60000
000307: 10,2125           56065                           XCH      TEMPSW
000308: 10,2126           75074                           MASK     OCT14000
000309: 10,2127           10000                           CCS      A
000310: 10,2130           15437                           TCF      ONEORTWO
000311:
000312: 10,2131           30062                           CA       TEMPP                                 #  START STORING THE PHASE INFORMATION
000313: 10,2132           50061                           NDX      TEMPG
000314: 10,2133           54751                           TS       PHASE1     -2
000315:
000316: 10,2134           10066        BELOW1             CCS      TEMPSW2                               #  IS IT A PHASCHNG OR A 2PHSCHNG
000317: 10,2135           12151                           TCF      BELOW2                                #  IT:S A PHASCHNG
000318:
000319: 10,2136           12137                           TCF      +1                                    #  IT:S A 2PHSCHNG
000320: 10,2137           40072                           CS       TEMPP2
000321: 10,2140           22072                           LXCH     TEMPP2
000322: 10,2141           50071                           NDX      TEMPG2
000323: 10,2142           52751                           DXCH     -PHASE1    -2
000324:
000325: 10,2143           10066                           CCS      TEMPSW2
000326: 10,2144           12145                           NOOP                                           #  CAN:T GET HERE
000327: 10,2145           12151                           TCF      BELOW2
000328:
000329: 10,2146           40025                           CS       TIME1
000330: 10,2147           50071                           NDX      TEMPG2
000331: 10,2150           55052                           TS       TBASE1     -2
000332:
000333: 10,2151           10065        BELOW2             CCS      TEMPSW                                #  SEE IF WE SHOULD SET TBASE OR LONGBASE
000334: 10,2152           12165                           TCF      BELOW3                                #  SET LONGBASE ONLY
000335: 10,2153           12170                           TCF      BELOW4                                #  SET NEITHER
000336:
000337: 10,2154           40025                           CS       TIME1                                 #  SET TBASE TO BEGIN WITH
000338: 10,2155           50061                           NDX      TEMPG
000339: 10,2156           55052                           TS       TBASE1     -2
000340:
000341: 10,2157           30065                           CA       TEMPSW                                #  SHALL WE NOW SET LONGBASE
000342: 10,2160           62163                           AD       BIT14COM
000343: 10,2161           10000                           CCS      A
000344: 10,2162           12163                           NOOP                                           #  ***** CANT GET HERE *****
000345: 10,2163           17777        BIT14COM           OCT      17777                                 #  ***** CANT GET HERE *****
000346: 10,2164           12170                           TCF      BELOW4                                #  NO WE NEED ONLY SET TBASE
000347:
000348: 10,2165           00006        BELOW3             EXTEND                                         #  SET LONGBASE
000349: 10,2166           30025                           DCA      TIME2
000350: 10,2167           53163                           DXCH     LONGBASE
000351:
000352: 10,2170           40062        BELOW4             CS       TEMPP                                 #  AND STORE THE FINAL PART OF THE PHASE
000353: 10,2171           50061                           NDX      TEMPG
000354: 10,2172           54750                           TS       -PHASE1    -2
000355:
000356: 10,2173           30002                           CA       Q
000357: 10,2174           22073                           LXCH     TEMPBBCN
000358: 10,2175           00003                           RELINT
000359: 10,2176           52006                           DTCB
000360: 10,2177           22073        CON2               LXCH     TEMPBBCN
000361:
000362: 10,2200           30062                           CA       TEMPP
000363: 10,2201           50061                           NDX      TEMPG
000364: 10,2202           54751                           TS       PHASE1     -2
000365:
000366: 10,2203           30070                           CA       TEMPPR
000367: 10,2204           50061                           NDX      TEMPG
000368: 10,2205           55053                           TS       PHSPRDT1   -2
000369:
000370: 10,2206           00006                           EXTEND
000371: 10,2207           30064                           DCA      TEMPNM
000372: 10,2210           50061                           NDX      TEMPG
000373: 10,2211           53435                           DXCH     PHSNAME1   -2
000374:
000375: 10,2212           12134                           TCF      BELOW1
000376:
000377:
000378:    5505                                           BLOCK    02
000379:    4000                                           SETLOC   FFTAG1
000380:    4000                                           BANK
000381:
000382:    5505                                           COUNT*   $$/PHASE
000383:    5505           75013        CHECKB             MASK     BIT12                                 #  SINCE THIS IS OF TYPE B, THIS BIT SHOULD
000384:    5506           10000                           CCS      A                                     #   BE HERE IF WE ARE TO GET A NEW PRIORITY
000385:    5507           15472                           TCF      GETPRIO                               #  IT IS, SO GET NEW PRIORITY
000386:
000387:    5510           15451                           TCF      OLDPRIO                               #  IT ISN:T, USE THE OLD PRIORITY
000388:
000389:                                                                                                  #  PROGRAM DESCRIPTION: NEWPHASE                                           DATE: 11 NOV 1966
000390:                                                                                                  #  MOD: 1                                                                  ASSEMBLY: SUNBURST REV
000391:                                                                                                  #  MOD BY: COPPS                                                           LOG SECTION: PHASE TABLE MAINTENANCE
000392:                                                                                                  #  FUNCTIONAL DESCRIPTION:
000393:                                                                                                  #                NEWPHASE IS THE QUICK WAY TO MAKE A NON VARIABLE PHASE CHANGE. IT INCLUDES THE OPTION OF SETTING
000394:                                                                                                  #           TBASE OF THE GROUP. IF TBASE IS TO BE SET, -C(TIME1) IS STORED IN THE TBASE TABLE AS FOLLOWS:
000395:
000396:                                                                                                  #                   (L-1) TBASE0
000397:                                                                                                  #                   (L)   TBASE1 (IF GROUP=1)
000398:                                                                                                  #                   (L+1)
000399:                                                                                                  #                   (L+2) TBASE2 (IF GROUP=2)
000400:                                                                                                  #                   -----
000401:                                                                                                  #                   (L+6) TBASE4 (IF GROUP=4)
000402:                                                                                                  #                   (L+7)
000403:                                                                                                  #                   (L+8) TBASE5 (IF GROUP=5)
000404:
000405:                                                                                                  #           IN ANY CASE, THE NEGATIVE OF THE PHASE, FOLLOWED (IN THE NEXT REGISTER)  BY THE PHASE, IF STORED IN THE
000406:                                                                                                  #           PHASE TABLE AS FOLLOWS:
000407:
000408:                                                                                                  #                   (L)   -PHASE1 (IF GROUP=1)
000409:                                                                                                  #                   (L+1) PHASE1
000410:                                                                                                  #                   (L+2) -PHASE2 (IF GROUP=2)
000411:                                                                                                  #                   (L+3) PHASE2
000412:                                                                                                  #                   -----
000413:                                                                                                  #                   (L+7) PHASE 4
000414:                                                                                                  #                   (L+8) -PHASE5 (IF GROUP=5)
000415:                                                                                                  #                   (L+9) PHASE5
000416:
000417:                                                                                                  #  CALLING SEQUENCE:
000418:                                                                                                  #                EXAMPLE IS FOR PLACING A PHASE OF FIVE INTO GROUP THREE:
000419:
000420:                                                                                                  #           1) IF TBASE IS NOT TO BE SET:
000421:                                                                                                  #                                          L-1      CA     FIVE
000422:                                                                                                  #                                          L        TC     NEWPHASE
000423:                                                                                                  #                                          L+1      OCT    00003
000424:
000425:                                                                                                  #           2) IF TBASE IS TO BE SET:
000426:                                                                                                  #                                          L-1      CS     FIVE
000427:                                                                                                  #                                          L        TC     NEWPHASE
000428:                                                                                                  #                                          L+1      OCT    00003
000429:
000430:                                                                                                  #  SUBROUTINES CALLED: NONE
000431:
000432:                                                                                                  #  NORMAL EXIT MODE: AT L+2 OF CALLING SEQUENCE
000433:
000434:                                                                                                  #  ALARM OR ABORT EXITS: NONE
000435:
000436:                                                                                                  #  OUTPUT: PHASE TABLE AND TBASE TABLE UPDATED
000437:
000438:                                                                                                  #  ERASABLE INITIALIZATION REQ,D: NONE
000439:
000440:                                                                                                  #  DEBRIS: A,L,TEMPG
000441:
000442:                                                                                                  #  ***WARNING*** THIS PROGRAM IS TO BE PLACED IN FIXED-FIXED AND UNSWITCHED ERASABLE.
000443:
000444:    4000                                           SETLOC   FFTAG1
000445:    4000                                           BANK
000446:
000447:    5511                                           COUNT*   $$/PHASE
000448:    5511           00004        NEWPHASE           INHINT
000449:
000450:    5512           54001                           TS       L                                     #  SAVE FOR FURTHER USE
000451:
000452:    5513           50002                           NDX      Q                                     #  OBTAIN THE GROUP NUMBER
000453:    5514           30000                           CA       0
000454:    5515           24002                           INCR     Q                                     #  OBTAIN THE RETURN ADDRESS
000455:    5516           60000                           DOUBLE                                         #  SAVE THE GROUP IN A FORM USED FOR
000456:    5517           54061                           TS       TEMPG                                 #  INDEXING
000457:
000458:    5520           10001                           CCS      L                                     #  SEE IF WE ARE TO SET TBASE
000459:    5521           15530                           TCF      +7                                    #  NO, THE DELTA T WAS POSITIVE
000460:    5522           15530                           TCF      +6
000461:
000462:    5523           24000        NUFAZ+10           INCR     A                                     #  SET TBASE AND STORE PHASE CORRECTLY
000463:    5524           54001                           TS       L
000464:
000465:    5525           40025                           CS       TIME1                                 #  SET TBASE
000466:    5526           50061                           NDX      TEMPG
000467:    5527           55052                           TS       TBASE1     -2
000468:
000469:    5530           40001                           CS       L                                     #  NOW PUT THE PHASE IN THE RIGHT TABLE LOC
000470:    5531           50061                           NDX      TEMPG
000471:    5532           52751                           DXCH     -PHASE1    -2
000472:
000473:    5533           00003                           RELINT
000474:    5534           00002                           TC       Q                                     #  NOW RETURN TO CALLER

End of include-file PHASE_TABLE_MAINTENANCE.agc.  Parent file is MAIN.agc


