
Source Code


000002:                                                                                                  ## Copyright:   Public domain.
000003:                                                                                                  ## Filename:    POWERED_FLIGHT_SUBROUTINES.agc
000004:                                                                                                  ## Purpose:     A section of an attempt to reconstruct Sundance revision 306
000005:                                                                                                  ##              as closely as possible with available information. Sundance
000006:                                                                                                  ##              306 is the source code for the Lunar Module's (LM) Apollo
000007:                                                                                                  ##              Guidance Computer (AGC) for Apollo 9. This program was created
000008:                                                                                                  ##              using the mixed-revision SundanceXXX as a starting point, and
000009:                                                                                                  ##              pulling back features from Luminary 69 believed to have been
000010:                                                                                                  ##              added based on memos, checklists, observed address changes,
000011:                                                                                                  ##              or the Sundance GSOPs.
000012:                                                                                                  ## Assembler:   yaYUL
000013:                                                                                                  ## Contact:     Ron Burkey <info@sandroid.org>.
000014:                                                                                                  ## Website:     www.ibiblio.org/apollo/index.html
000015:                                                                                                  ## Mod history: 2020-07-24 MAS  Created from SundanceXXX.
000016:
000017:
000018:
000019: 14,3375                                           BANK     14                                    #  SAME FBANK AS THE FINDCDUD SUB-PROGRAM
000020: 23,2000                                           SETLOC   POWFLITE
000021: 23,2000                                           BANK
000022:
000023: 23,3335     0142                                  EBANK=   DEXDEX
000024: 23,3335                                           COUNT*   $$/POWFL
000025:
000026:                                                                                                  #      CDUTRIG, CDUTRIG1, CDUTRIG2, AND CD*TR*GS ALL COMPUTE THE SINES AND
000027:                                                                                                  #  COSINES OF THREE 2'S COMPLEMENT ANGLES AND PLACE THE RESULT, DOUBLE
000028:                                                                                                  #  PRECISION, IN THE SAME ORDER AS THE INPUTS, AT SINCDU AND COSCDU.   AN
000029:                                                                                                  #  ADDITIONAL OUTPUT IS THE 1'S COMPLEMENT ANGLES AT CDUSPOT.   THESE
000030:                                                                                                  #  ROUTINES GO OUT OF THEIR WAY TO LEAVE THE MPAC AREA AS THEY FIND IT,
000031:                                                                                                  #  EXCEPT FOR THE GENERALLY UNIMPORTANT MPAC +2.  THEY DIFFER ONLY IN
000032:                                                                                                  #  WHERE THEY GET THE ANGLES, AND IN METHOD OF CALLING.
000033:
000034:                                                                                                  #      CDUTRIG (AND CDUTRIG1, WHICH CAN BE CALLED IN BASIC) COMPUTE THE
000035:                                                                                                  #  SINES AND COSINES FROM THE CURRENT CONTENTS OF THE CDU REGISTERS.
000036:                                                                                                  #  THE CONTENTS OF CDUTEMP, ETC., ARE NOT TOUCHED SO THAT THEY MAY
000037:                                                                                                  #  CONTINUE TO FORM A CONSISTENT SET WITH THE LATEST PIPA READINGS.
000038:
000039:                                                                                                  #      CDUTRIG1 IS LIKE CDUTRIG EXCEPT THAT IT CAN BE CALLED IN BASIC.
000040:
000041:                                                                                                  #      CD*TR*GS FINDS CDU VALUES IN CDUSPOT RATHER THAN IN CDUTEMP.   THIS
000042:                                                                                                  #  ALLOWS USERS TO MAKE TRANSFORMATIONS USING ARBITRARY ANGLES, OR REAL
000043:                                                                                                  #  ANGLES IN AN ORDER OTHER THAN X Y Z.   A CALL TO THIS ROUTINE IS
000044:                                                                                                  #  NECESSARY IN PREPARATION FOR A CALL TO AX*SR*T IN EITHER OF ITS TWO
000045:                                                                                                  #  MODES (SMNB OR NBSM).   SINCE AX*SR*T EXPECTS TO FIND THE SINES AND
000046:                                                                                                  #  COSINES IN THE ORDER Y Z X THE ANGLES MUST HAVE BEEN PLACED IN CDUSPOT
000047:                                                                                                  #  IN THIS ORDER.   CD*TR*GS NEED NOT BE REPEATED WHEN AX*SR*T IS CALLED
000048:                                                                                                  #  MORE THAN ONCE, PROVIDED THE ANGLES HAVE NOT CHANGED.   NOTE THAT SINCE
000049:                                                                                                  #  IT CLOBBERS BUF2 (IN THE SINE AND COSINE ROUTINES) CD*TR*GS CANNOT BE
000050:                                                                                                  #  CALLED USING BANKCALL.   SORRY.
000051:
000052:                                                                                                  #      CD*TR*G IS LIKE CD*TR*GS EXCEPT THAT IT CAN BE CALLED IN
000053:                                                                                                  #  INTERPRETIVE.
000054:
000055: 23,3335           77776        CDUTRIG            EXIT
000056: 23,3336           03345                           TC       CDUTRIGS
000057: 23,3337           06014                           TC       INTPRET
000058: 23,3340           77616                           RVQ
000059:
000060: 23,3341           77776        CD*TR*G            EXIT
000061: 23,3342           03353                           TC       CD*TR*GS
000062: 23,3343           06014                           TC       INTPRET
000063: 23,3344           77616                           RVQ
000064:
000065: 23,3345           30032        CDUTRIGS           CA       CDUX
000066: 23,3346           54772                           TS       CDUSPOT    +4
000067: 23,3347           30033                           CA       CDUY
000068: 23,3350           54766                           TS       CDUSPOT
000069: 23,3351           30034                           CA       CDUZ
000070: 23,3352           54770                           TS       CDUSPOT    +2
000071:
000072: 23,3353           00006        CD*TR*GS           EXTEND
000073: 23,3354           22142                           QXCH     TEM2
000074: 23,3355           35024                           CAF      FOUR
000075: 23,3356           76216        TR*GL**P           MASK     SIX                                   #  MAKE IT EVEN AND SMALLER
000076: 23,3357           54143                           TS       TEM3
000077: 23,3360           50143                           INDEX    TEM3
000078: 23,3361           30766                           CA       CDUSPOT
000079: 23,3362           52155                           DXCH     MPAC                                  #  STORING 2'S COMP ANGLE, LOADING MPAC
000080: 23,3363           52127                           DXCH     VBUF       +4                         #  STORING MPAC FOR LATER RESTORATION
000081: 23,3364           04766                           TC       USPRCADR
000082: 23,3365           21457                           CADR     CDULOGIC
000083: 23,3366           00006                           EXTEND
000084: 23,3367           30155                           DCA      MPAC
000085: 23,3370           50143                           INDEX    TEM3
000086: 23,3371           52767                           DXCH     CDUSPOT                               #  STORING 1'S COMPLEMENT ANGLE
000087: 23,3372           04766                           TC       USPRCADR
000088: 23,3373           01516                           CADR     COSINE
000089: 23,3374           52155                           DXCH     MPAC
000090: 23,3375           50143                           INDEX    TEM3
000091: 23,3376           52745                           DXCH     COSCDU                                #  STORING COSINE
000092: 23,3377           00006                           EXTEND
000093: 23,3400           50143                           INDEX    TEM3
000094: 23,3401           30767                           DCA      CDUSPOT                               #  LOADING 1'S COMPLEMENT ANGLE
000095: 23,3402           04766                           TC       USPRCADR
000096: 23,3403           01530                           CADR     SINE       +1                         #  SINE +1 EXPECTS ARGUMENT IN A AND L
000097: 23,3404           52127                           DXCH     VBUF       +4                         #  BRINGING UP PRIOR MPAC TO BE RESTORED
000098: 23,3405           52155                           DXCH     MPAC
000099: 23,3406           50143                           INDEX    TEM3
000100: 23,3407           52737                           DXCH     SINCDU
000101: 23,3410           10143                           CCS      TEM3
000102: 23,3411           13356                           TCF      TR*GL**P
000103: 23,3412           00142                           TC       TEM2
000104:                                                                                                  #  ****************************************************************************************************************
000105:                                                                                                  #      QUICTRIG, INTENDED FOR GUIDANCE CYCLE USE WHERE TIME IS CRITICAL, IS A MUCH FASTER VERSION OF CD*TR*GS.
000106:                                                                                                  #  QUICTRIG COMPUTES AND STORES THE SINES AND COSINES OF THE 2'S COMPLEMENT ANGLES AT CDUSPOT, CDUSPOT +2,
000107:                                                                                                  #  AND CDUSPOT +4.   UNLIKE CD*TR*GS, QUICTRIG DOES NOT LEAVE THE 1'S COMPLEMENT VERSIONS OF THE ANGLES IN
000108:                                                                                                  #  CDUSPOT.   QUICTRIG'S EXECUTION TIME IS 4.1 MS;  THIS IS 10 TIMES AS FAST AS CD*TR*GS.    QUICTRIG MAY BE
000109:                                                                                                  #  CALLED FROM INTERPRETIVE AS AN RTB OP-CODE, OR FROM BASIC VIA BANKCALL OR IBNKCALL.
000110:
000111: 23,3413           00006        QUICTRIG           EXTEND
000112: 23,3414           22142                           QXCH     TEM2
000113: 23,3415           35024                           CAF      FOUR
000114: 23,3416           76216                 +4        MASK     SIX
000115: 23,3417           54143                           TS       TEM3
000116: 23,3420           50143                           INDEX    TEM3
000117: 23,3421           30766                           CA       CDUSPOT
000118: 23,3422           05103                           TC       SPSIN
000119: 23,3423           00006                           EXTEND
000120: 23,3424           75011                           MP       BIT14                                 #  SCALE DOWN TO MATCH INTERPRETER OUTPUTS
000121: 23,3425           50143                           INDEX    TEM3
000122: 23,3426           52737                           DXCH     SINCDU
000123: 23,3427           50143                           INDEX    TEM3
000124: 23,3430           30766                           CA       CDUSPOT
000125: 23,3431           05102                           TC       SPCOS
000126: 23,3432           00006                           EXTEND
000127: 23,3433           75011                           MP       BIT14
000128: 23,3434           50143                           INDEX    TEM3
000129: 23,3435           52745                           DXCH     COSCDU
000130: 23,3436           10143                           CCS      TEM3
000131: 23,3437           13416                           TCF      QUICTRIG   +3
000132: 23,3440           00142                           TC       TEM2
000133:
000134:                                                                                                  #  ****************************************************************************************************************
000135:                                                                                                  #      THESE INTERFACE ROUTINES MAKE IT POSSIBLE TO CALL AX*SR*T, ETC., IN
000136:                                                                                                  #  INTERPRETIVE.  LATER, WHERE POSSIBLE, THEY WILL BE ELIMINATED.
000137:
000138:                                                                                                  #      NBSM WILL BE THE FIRST TO GO.   IT SHOULD NOT BE USED.
000139:
000140: 23,3441           77620        NBSM               STQ
000141: 23,3442           00047                                    X2
000142: 23,3443           76740                           LXC,1    VLOAD*
000143: 23,3444           00050                                    S1                                    #  BASE ADDRESS OF THE CDU ANGLES IS IN S1
000144: 23,3445           00001                                    0,1
000145: 23,3446           24767                           STOVL    CDUSPOT
000146: 23,3447           00041                                    32D                                   #  VECTOR TO BE TRANSFORMED IS IN 32D
000147: 23,3450           77624                           CALL
000148: 23,3451           47472                                    TRG*NBSM
000149: 23,3452           34041                           STCALL   32D                                   #  SINCE THERE'S NO STGOTO
000150: 23,3453           00047                                    X2
000151:
000152:                                                                                                  #      THESE INTERFACE ROUTINES ARE PERMANENT.   ALL RESTORE USER'S EBANK
000153:                                                                                                  #  SETTING.   ALL ARE STRICT INTERPRETIVE SUBROUTINES, CALLED USING "CALL",
000154:                                                                                                  #  RETURNING VIA QPRET.   ALL EXPECT AND RETURN THE VECTOR TO BE TRANSFOR-
000155:                                                                                                  #  MED INTERPRETER-STYLE IN MPAC; COMPONENTS AT MPAC, MPAC +3, AND MPAC +5.
000156:
000157:                                                                                                  #       TRG*SMNB AND TRG*NBSM BOTH EXPECT TO SEE THE 2'S COMPLEMENT ANGLES
000158:                                                                                                  #  AT CDUSPOT (ORDER Y Z X, AT CDUSPOT, CDUSPOT +2, AND CDUSPOT +4; ODD
000159:                                                                                                  #  LOCATIONS NEED NOT BE ZEROED).   TRG*NBSM DOES THE NB TO SM TRANSFOR-
000160:                                                                                                  #  MATION;  TRG*SMNB, VICE VERSA.
000161:
000162:                                                                                                  #      CDU*NBSM DOES ITS TRANSFORMATION USING THE PRESENT CONTENTS OF
000163:                                                                                                  #  THE CDU COUNTERS.   OTHERWISE IT IS LIKE TRG*NBSM.
000164:
000165:                                                                                                  #      CDU*SMNB IS THE COMPLEMENT OF CDU*NBSM.
000166:
000167: 23,3454           77776        CDU*SMNB           EXIT
000168: 23,3455           03345                           TC       CDUTRIGS
000169: 23,3456           13461                           TCF      C*MM*N1
000170:
000171: 23,3457           77776        TRG*SMNB           EXIT
000172: 23,3460           03353                           TC       CD*TR*GS
000173: 23,3461           07504        C*MM*N1            TC       MPACVBUF                              #  AX*SR*T EXPECTS VECTOR IN VBUF
000174: 23,3462           46221                           CS       THREE                                 #  SIGNAL FOR SM TO NB TRANSFORMATION
000175: 23,3463           03503        C*MM*N2            TC       AX*SR*T
000176: 23,3464           06014                           TC       INTPRET
000177: 23,3465           43575                           VLOAD    RVQ
000178: 23,3466           00123                                    VBUF
000179:
000180: 23,3467           77776        CDU*NBSM           EXIT
000181: 23,3470           03345                           TC       CDUTRIGS
000182: 23,3471           13474                           TCF      C*MM*N3
000183:
000184: 23,3472           77776        TRG*NBSM           EXIT
000185: 23,3473           03353                           TC       CD*TR*GS
000186: 23,3474           07504        C*MM*N3            TC       MPACVBUF                              #  FOR AX*SR*T
000187: 23,3475           36221                           CA       THREE                                 #  SIGNAL FOR NB TO SM TRANSFORMATION
000188: 23,3476           13463                           TCF      C*MM*N2
000189:
000190:                                                                                                  #      *NBSM* AND *SMNB* EXPECT TO SEE THE SINES AND COSINES (AT SINCDU
000191:                                                                                                  #  AND COSCDU) RATHER THAN THE ANGLES THEMSELVES.   OTHERWISE THEY ARE
000192:                                                                                                  #  LIKE TRG*NBSM AND TRG*SMNB.
000193:
000194:                                                                                                  #       NOTE THAT JUST AS CD*TR*GS NEED BE CALLED ONLY ONCE FOR EACH SERIES
000195:                                                                                                  #  OF TRANSFORMATIONS USING THE SAME ANGLES, SO TOO ONLY ONE OF TRG*NBSM
000196:                                                                                                  #  AND TRG*SMNB NEED BE CALLED FOR EACH SERIES.   FOR SUBSEQUENT TRANSFOR-
000197:                                                                                                  #  MATIONS USE *NBSM* AND *SMNB*.
000198:
000199: 23,3477           77776        *SMNB*             EXIT
000200: 23,3500           13461                           TCF      C*MM*N1
000201:
000202: 23,3501           77776        *NBSM*             EXIT
000203: 23,3502           13474                           TCF      C*MM*N3
000204:
000205:                                                                                                  #        AX*SR*T COMBINES THE OLD SMNB AND NBSM.   FOR THE NB TO SM
000206:                                                                                                  #  TRANSFORMATION, ENTER WITH +3 IN A.   FOR SM TO NB, ENTER WITH -3.
000207:                                                                                                  #  THE VECTOR TO BE TRANSFORMED ARRIVES, AND IS RETURNED, IN VBUF.
000208:                                                                                                  #  AX*SR*T EXPECTS TO FIND THE SINES AND COSINES OF THE ANGLES OF ROTATION
000209:                                                                                                  #  AT SINCDU AND COSCDU, IN THE ORDER Y Z X.  A CALL TO CD*TR*GS, WITH
000210:                                                                                                  #  THE 2'S COMPLEMENT ANGLES (ORDER Y Z X) AT CDUSPOT, WILL TAKE CARE OF
000211:                                                                                                  #  THIS.  HERE IS A SAMPLE CALLING SEQUENCE:-
000212:                                                                                                  #                TC      CDUTRIGS
000213:                                                                                                  #                CS      THREE           ("CA THREE" FOR NBSM)
000214:                                                                                                  #                TC      AX*SR*T
000215:                                                                                                  #  THE CALL TO CD*TR*GS NEED NOT BE REPEATED, WHEN AX*SR*T IS CALLED MORE
000216:                                                                                                  #  THAN ONCE, UNLESS THE ANGLES HAVE CHANGED.
000217:
000218:                                                                                                  #      AX*SR*T IS GUARANTEED SAFE ONLY FOR VECTORS OF MAGNITUDE LESS THAN
000219:                                                                                                  #  UNITY.   A LOOK AT THE CASE IN WHICH A VECTOR OF GREATER MAGNITUDE
000220:                                                                                                  #  HAPPENS TO LIE ALONG AN AXIS OF THE SYSTEM TO WHICH IT IS TO BE TRANS-
000221:                                                                                                  #  FORMED CONVINCES ONE THAT THIS IS A RESTRICTION WHICH MUST BE ACCEPTED.
000222:
000223: 23,3503           54142        AX*SR*T            TS       DEXDEX                                #  WHERE IT BECOMES THE INDEX OF INDEXES
000224: 23,3504           00006                           EXTEND
000225: 23,3505           22145                           QXCH     RTNSAVER
000226:
000227: 23,3506           10142        R*TL**P            CCS      DEXDEX                                #                +3 --> 0        -3 --> 2
000228: 23,3507           40142                           CS       DEXDEX                                #  THUS:         +2 --> 1        -2 --> 1
000229: 23,3510           66221                           AD       THREE                                 #                +1 --> 2        -1 --> 0
000230: 23,3511           00006                           EXTEND
000231: 23,3512           50000                           INDEX    A
000232: 23,3513           33572                           DCA      INDEXI
000233: 23,3514           52144                           DXCH     DEXI
000234:
000235: 23,3515           35026                           CA       ONE
000236: 23,3516           54130                           TS       BUF
000237: 23,3517           00006                           EXTEND
000238: 23,3520           50143                           INDEX    DEX1
000239: 23,3521           40123                           DCS      VBUF
000240: 23,3522           13524                           TCF      LOOP1                                 #  REALLY BE A SUBTRACT, AND VICE VERSA
000241:
000242: 23,3523           52131        LOOP2              DXCH     BUF                                   #  LOADING VECTOR COMPONENT, STORING INDEX
000243: 23,3524           52155        LOOP1              DXCH     MPAC
000244: 23,3525           33570                           CA       SINSLOC
000245: 23,3526           60143                           AD       DEX1
000246: 23,3527           54116                           TS       ADDRWD
000247:
000248: 23,3530           07063                           TC       DMPSUB                                #  MULTIPLY BY SIN(CDUANGLE)
000249: 23,3531           10142                           CCS      DEXDEX
000250: 23,3532           52155                           DXCH     MPAC                                  #  NBSM CASE
000251: 23,3533           13536                           TCF      +3
000252: 23,3534           00006                           EXTEND                                         #  SMNB CASE
000253: 23,3535           40155                           DCS      MPAC
000254: 23,3536           52134                           DXCH     TERM1TMP
000255:
000256: 23,3537           36216                           CA       SIX                                   #  SINCDU AND COSCDU (EACH 6 WORDS) MUST
000257: 23,3540           26116                           ADS      ADDRWD                                #    BE CONSECUTIVE AND IN THAT ORDER
000258:
000259: 23,3541           00006                           EXTEND
000260: 23,3542           50130                           INDEX    BUF
000261: 23,3543           50143                           INDEX    DEX1
000262: 23,3544           30123                           DCA      VBUF
000263: 23,3545           52155                           DXCH     MPAC
000264: 23,3546           07063                           TC       DMPSUB                                #  MULTIPLY BY COS(CDUANGLE)
000265: 23,3547           52155                           DXCH     MPAC
000266: 23,3550           20134                           DAS      TERM1TMP
000267: 23,3551           52134                           DXCH     TERM1TMP
000268: 23,3552           20001                           DDOUBL
000269: 23,3553           50130                           INDEX    BUF
000270: 23,3554           50143                           INDEX    DEX1
000271: 23,3555           52123                           DXCH     VBUF
000272: 23,3556           52131                           DXCH     BUF                                   #  LOADING INDEX, STORING VECTOR COMPONENT
000273:
000274: 23,3557           10000                           CCS      A                                     #  'CAUSE THAT'S WHERE THE INDEX NOW IS
000275: 23,3560           13523                           TCF      LOOP2
000276:
000277: 23,3561           00006                           EXTEND
000278: 23,3562           26142                           DIM      DEXDEX                                #  DECREMENT MAGNITUDE PRESERVING SIGN
000279:
000280: 23,3563           10142        TSTPOINT           CCS      DEXDEX                                #  ONLY THE BRANCHING FUNCTION IS USED
000281: 23,3564           13506                           TCF      R*TL**P
000282: 23,3565           00145                           TC       RTNSAVER
000283: 23,3566           13506                           TCF      R*TL**P
000284: 23,3567           00145                           TC       RTNSAVER
000285:
000286: 23,3570           00736        SINSLOC            ADRES    SINCDU                                #  FOR USE IN SETTING ADDRWD
000287:
000288: 23,3571           00004        INDEXI             DEC      4          B-14                       #  **********   DON'T   **********
000289: 23,3572           00002                           DEC      2          B-14                       #  **********   TOUCH   **********
000290: 23,3573           00000                           DEC      0          B-14                       #  **********   THESE   **********
000291: 23,3574           00004                           DEC      4          B-14                       #  ********** CONSTANTS **********
000292:
000293:                                                                                                  #  ****************************************************************************************************************
000294:                                                                                                  #  THIS SUBROUTINE COMPUTES INCREMENTAL CHANGES IN CDU(GIMBAL) ANGLES FROM INCREMENTAL CHANGES ABOUT SM AXES. IT
000295:                                                                                                  #  REQUIRES SM INCREMENTS AS A DP VECTOR SCALED AT ONE REVOLUTION(DTHETASM,+2,+4).  SIN,COS(CDUY,Z,X) ARE IN
000296:                                                                                                  #  SINCDU,+2,+4 AND COSCDU,+2,+4 RESPECTIVELY,SCALED TO ONE HALF. CDU INCREENTS ARE PLACED IN DCDU,+2,+4 SCALED TO
000297:                                                                                                  #  ONE REVOLUTION.
000298:
000299:                                                                                                  #         *  COS(IGA)SEC(MGA)          0           -SIN(IGA)SEC(MGA) *
000300:                                                                                                  #         *                                                          *
000301:                                                                                                  #         * -COS(IGA)TAN(MGA)          1            SIN(IGA)TAN(MGA) *
000302:                                                                                                  #         *                                                          *
000303:                                                                                                  #         *      SIN(IGA)              0                COS(IGA)     *
000304:
000305: 14,3375                                           BANK     14
000306: 23,2000                                           SETLOC   POWFLIT1
000307: 23,2000                                           BANK
000308: 23,3575           41345        SMCDURES           DLOAD    DMP
000309: 23,3576           01267                                    DTHETASM
000310: 23,3577           00745                                    COSCDUY
000311:
000312: 23,3600           41325                           PDDL     DMP
000313: 23,3601           01273                                    DTHETASM   +4
000314: 23,3602           00737                                    SINCDUY
000315:
000316: 23,3603           77621                           BDSU
000317: 23,3604           77671                           DDV
000318: 23,3605           00747                                    COSCDUZ
000319: 23,3606           03233                           STORE    DCDU
000320:
000321: 23,3607           72405                           DMP      SL1                                   #  SCALE
000322: 23,3610           00741                                    SINCDUZ
000323: 23,3611           77621                           BDSU
000324:
000325: 23,3612           01271                                    DTHETASM   +2
000326: 23,3613           17235                           STODL    DCDU       +2
000327: 23,3614           01267                                    DTHETASM
000328:
000329: 23,3615           65205                           DMP      PDDL
000330: 23,3616           00737                                    SINCDUY
000331: 23,3617           01273                                    DTHETASM   +4
000332:
000333: 23,3620           43205                           DMP      DAD
000334: 23,3621           00745                                    COSCDUY
000335: 23,3622           77752                           SL1
000336: 23,3623           03237                           STORE    DCDU       +4
000337: 23,3624           77616                           RVQ
000338:

End of include-file POWERED_FLIGHT_SUBROUTINES.agc.  Parent file is MAIN.agc


