
Source Code


000002:                                                                                                  ## Copyright:   Public domain.
000003:                                                                                                  ## Filename:    Q,R-AXES_RCS_AUTOPILOT.agc
000004:                                                                                                  ## Purpose:     A section of an attempt to reconstruct Sundance revision 306
000005:                                                                                                  ##              as closely as possible with available information. Sundance
000006:                                                                                                  ##              306 is the source code for the Lunar Module's (LM) Apollo
000007:                                                                                                  ##              Guidance Computer (AGC) for Apollo 9. This program was created
000008:                                                                                                  ##              using the mixed-revision SundanceXXX as a starting point, and
000009:                                                                                                  ##              pulling back features from Luminary 69 believed to have been
000010:                                                                                                  ##              added based on memos, checklists, observed address changes,
000011:                                                                                                  ##              or the Sundance GSOPs.
000012:                                                                                                  ## Assembler:   yaYUL
000013:                                                                                                  ## Contact:     Ron Burkey <info@sandroid.org>.
000014:                                                                                                  ## Website:     www.ibiblio.org/apollo/index.html
000015:                                                                                                  ## Mod history: 2020-07-24 MAS  Created from SundanceXXX.
000016:
000017:
000018:
000019: 17,2000                                           BANK     17
000020: 17,2000                                           SETLOC   DAPS2
000021: 17,2000                                           BANK
000022:
000023: 17,2000  E6,1632                                  EBANK=   CDUXD
000024:
000025: 17,2000                                           COUNT*   $$/DAPQR
000026:
000027: 17,2000           02426        CALLQERR           TC       QERRCALC
000028:
000029: 17,2001           11625        Q,RORGTS           CCS      COTROLER                              #  CHOOSE CONTROL SYSTEM FOR THIS DAP PASS:
000030: 17,2002           12407                           TCF      GOTOGTS                               #    GTS (ALTERNATES WITH RCS WHEN DOCKED)
000031: 17,2003           12374                           TCF      TRYGTS                                #    GTS IF ALLOWED, OTHERWISE RCS
000032: 17,2004           35030        RCS                CAF      ZERO                                  #    RCS (TRYGTS MAY BRANCH TO HERE)
000033: 17,2005           55625                           TS       COTROLER
000034:
000035: 17,2006           53435                           DXCH     EDOTQ
000036: 17,2007           02726                           TC       ROT45DEG
000037: 17,2010           53425                           DXCH     OMEGAU
000038:
000039:                                                                                                  #  X - TRANSLATION:
000040:
000041:                                                                                                  #  INPUT:        BITS 7,8 OF CH31 (TRANSLATION CONTROLLER)
000042:                                                                                                  #                ULLAGER
000043:                                                                                                  #                APSFLAG, DRIFTBIT
000044:                                                                                                  #                ACC40R2X, ACRBTRAN
000045:
000046:                                                                                                  #  OUTPUT:       NEXTU, NEXTV    CODES OF TRANSLATION FOR AFTER ROTATION
000047:                                                                                                  #                SENSETYP        TELL ROTATION DIRECTION AND DESIRE
000048:
000049:                                                                                                  #  X-TRANS POLICIES ARE EITHER 4 JETS OR A DIAGONAL PAIR.  IN 2-JET TRANSLATION THE SYSTEM IS SPECIFIED.  A FAILURE
000050:                                                                                                  #  WILL OVERRIDE THIS SPECIFICATION.  AN ALARM RESULTS WHEN NO POLICY IS AVAILABLE BECAUSE OF FAILURES.
000051:
000052: 17,2011           35020        SENSEGET           CA       BIT7                                  #  INPUT BITS OVERRIDE THE INTERNAL BITS
000053: 17,2012           00006                           EXTEND                                         #  SENSETYP WILL NOT OPPOSE ANYTRANS
000054: 17,2013           02031                           RAND     CHAN31
000055: 17,2014           00006                           EXTEND
000056: 17,2015           12204                           BZF      +XORULGE
000057: 17,2016           35017                           CA       BIT8
000058: 17,2017           00006                           EXTEND
000059: 17,2020           02031                           RAND     CHAN31
000060: 17,2021           00006                           EXTEND
000061: 17,2022           12205                           BZF      -XTRANS
000062:
000063: 17,2023           35021                           CA       ULLAGER
000064: 17,2024           71102                           MASK     DAPBOOLS
000065: 17,2025           10000                           CCS      A
000066: 17,2026           12204                           TCF      +XORULGE
000067:
000068: 17,2027           35030                           CAF      ZERO
000069: 17,2030           55734                           TS       ANYTRANS
000070: 17,2031           55472                           TS       SENSETYP
000071:
000072: 17,2032           35025                           CA       BIT2                                  #  DPS (INCLUDING DOCKED) OR APS?
000073: 17,2033           00006                           EXTEND
000074: 17,2034           02030                           RAND     CHAN30
000075: 17,2035           00006                           EXTEND
000076: 17,2036           12045                           BZF      TSENSE     +1
000077:
000078: 17,2037           35017                           CAF      DRIFTBIT                              #  BURNING OR DRIFTING?
000079: 17,2040           71102                           MASK     DAPBOOLS
000080: 17,2041           10000                           CCS      A
000081: 17,2042           12045                           TCF      TSENSE     +1
000082:
000083: 17,2043           65025                           AD       TWO                                   #  FAVOR +X JETS DURING AN APS BURN.
000084: 17,2044           55472        TSENSE             TS       SENSETYP
000085: 17,2045           11734                           CCS      ANYTRANS
000086: 17,2046           12051                           TCF      +3
000087: 17,2047           55736                           TS       POLYTEMP
000088: 17,2050           12073                           TCF      TSNEXTS
000089: 17,2051           55741                           TS       ROTINDEX
000090:
000091: 17,2052           31102                           CA       DAPBOOLS
000092: 17,2053           75014                           MASK     ACC4OR2X
000093: 17,2054           10000                           CCS      A
000094: 17,2055           12211                           TCF      TRANS4
000095:
000096: 17,2056           31102                           CA       DAPBOOLS
000097: 17,2057           75015                           MASK     AORBTRAN
000098: 17,2060           10000                           CCS      A
000099: 17,2061           35026                           CA       ONE                                   #  THREE FOR B
000100: 17,2062           65025                           AD       TWO                                   #  TWO FOR A SYSTEM 2 JET X TRANS
000101: 17,2063           55740        TSNUMBRT           TS       NUMBERT
000102:
000103: 17,2064           02756                           TC       SELCTSUB
000104:
000105: 17,2065           11736                           CCS      POLYTEMP
000106: 17,2066           12071                           TCF      +3
000107: 17,2067           05651                           TC       ALARM
000108: 17,2070           02002                           OCT      02002
000109: 17,2071           35775                           CA       00314OCT
000110: 17,2072           71736                           MASK     POLYTEMP
000111: 17,2073           55461        TSNEXTS            TS       NEXTU
000112: 17,2074           45775                           CS       00314OCT
000113: 17,2075           71736                           MASK     POLYTEMP
000114: 17,2076           55462                           TS       NEXTV
000115:
000116:                                                                                                  #  Q,R-AXES RCS CONTROL MODE SELECTION
000117:                                                                                                  #        SWITCHES        INDICATION WHEN SET
000118:                                                                                                  #        BIT13/CHAN31    AUTO, GO TO ATTSTEER
000119:                                                                                                  #        PULSES          MINIMUM IMPULSE MODE
000120:                                                                                                  #        (OTHERWISE)     RATE COMMAND/ATTITUDE HOLD MODE
000121:
000122: 17,2077           35012        QRCONTRL           CA       BIT13                                 #  CHECK MODE SELECT SWITCH.
000123: 17,2100           00006                           EXTEND
000124: 17,2101           02031                           RAND     CHAN31                                #  BITS INVERTED
000125: 17,2102           10000                           CCS      A
000126: 17,2103           12461                           TCF      ATTSTEER
000127: 17,2104           35010        NORMALQ            CAF      PULSES                                #  PULSES = 1 FOR MIN IMP USE OF RHC
000128: 17,2105           71102                           MASK     DAPBOOLS
000129: 17,2106           00006                           EXTEND
000130: 17,2107           12213                           BZF      CHEKSTIK                              #  IN ATT-HOLD/RATE-COMMAND IF BIT10=0
000131:
000132:                                                                                                  #  MINIMUM IMPULSE MODE
000133:
000134: 17,2110           00004                           INHINT
000135: 17,2111           04737                           TC       IBNKCALL
000136: 17,2112           40232                           CADR     ZATTEROR
000137: 17,2113           35030                           CA       ZERO
000138: 17,2114           55451                           TS       QERROR
000139: 17,2115           55452                           TS       RERROR                                #  FOR DISPLAYS
000140: 17,2116           00003                           RELINT
000141:
000142: 17,2117           00006                           EXTEND
000143: 17,2120           00031                           READ     CHAN31
000144: 17,2121           55734                           TS       TEMP31                                #  IS EQUAL TO DAPTEMP1
000145: 17,2122           11444                           CCS      OLDQRMIN
000146: 17,2123           12145                           TCF      CHECKIN
000147:
000148: 17,2124           31734        FIREQR             CA       TEMP31
000149: 17,2125           75026                           MASK     BIT1
000150: 17,2126           00006                           EXTEND
000151: 17,2127           12151                           BZF      +QMIN
000152:
000153: 17,2130           31734                           CA       TEMP31
000154: 17,2131           75025                           MASK     BIT2
000155: 17,2132           00006                           EXTEND
000156: 17,2133           12155                           BZF      -QMIN
000157:
000158: 17,2134           31734                           CA       TEMP31
000159: 17,2135           75022                           MASK     BIT5
000160: 17,2136           00006                           EXTEND
000161: 17,2137           12161                           BZF      +RMIN
000162:
000163: 17,2140           31734                           CA       TEMP31
000164: 17,2141           75021                           MASK     BIT6
000165: 17,2142           00006                           EXTEND
000166: 17,2143           12163                           BZF      -RMIN
000167:
000168: 17,2144           12644                           TCF      XTRANS
000169:
000170: 17,2145           41734        CHECKIN            CS       TEMP31
000171: 17,2146           72203                           MASK     OCT63
000172: 17,2147           55444                           TS       OLDQRMIN
000173: 17,2150           12644                           TCF      XTRANS
000174:
000175: 17,2151           32670        +QMIN              CA       14MS
000176: 17,2152           55517                           TS       TJU
000177: 17,2153           42670                           CS       14MS
000178: 17,2154           12165                           TCF      MINQR
000179: 17,2155           42670        -QMIN              CS       14MS
000180: 17,2156           55517                           TS       TJU
000181: 17,2157           32670                           CA       14MS
000182: 17,2160           12165                           TCF      MINQR
000183: 17,2161           32670        +RMIN              CA       14MS
000184: 17,2162           12164                           TCF      +2
000185: 17,2163           42670        -RMIN              CS       14MS
000186: 17,2164           55517                           TS       TJU
000187: 17,2165           55520        MINQR              TS       TJV
000188: 17,2166           32202                           CA       MINADR
000189: 17,2167           55470                           TS       RETJADR
000190: 17,2170           35026                           CA       ONE
000191: 17,2171           55444                           TS       OLDQRMIN
000192: 17,2172           55471        MINRTN             TS       AXISCTR
000193: 17,2173           31102                           CA       DAPBOOLS
000194: 17,2174           75015                           MASK     AORBTRAN
000195: 17,2175           10000                           CCS      A
000196: 17,2176           35026                           CA       ONE
000197: 17,2177           65025                           AD       TWO
000198: 17,2200           55740                           TS       NUMBERT
000199: 17,2201           12524                           TCF      AFTERTJ
000200:
000201: 17,2202           02172        MINADR             GENADR   MINRTN
000202: 17,2203           00063        OCT63              OCT      63
000203: 17,2204  17,2670               14MS               =        +TJMINT6
000204:
000205: 17,2204           35026        +XORULGE           CAF      ONE
000206: 17,2205           65031        -XTRANS            AD       FIVE
000207: 17,2206           55734                           TS       ANYTRANS
000208: 17,2207           66066                           AD       NEG4
000209: 17,2210           12044                           TCF      TSENSE
000210:
000211: 17,2211           35024        TRANS4             CA       FOUR
000212: 17,2212           12063                           TCF      TSNUMBRT
000213:
000214:                                                                                                  #  RATE COMMAND MODE:
000215:                                                                                                  #  DESCRIPTION (SAME AS P-AXIS)
000216:
000217: 17,2213           55627        CHEKSTIK           TS       INGTS                                 #  NOT IN GTS WHEN IN ATT HOLD
000218: 17,2214           45026                           CS       ONE                                   #  1/ACCS WILL DO THE NULLING DRIVES
000219: 17,2215           55625                           TS       COTROLER                              #  COME BACK TO RCS NEXT TIME
000220: 17,2216           35010                           CA       BIT15
000221: 17,2217           00006                           EXTEND
000222: 17,2220           02031                           RAND     CHAN31
000223: 17,2221           00006                           EXTEND
000224: 17,2222           12261                           BZF      RHCACTIV                              #  BRANCH IF OUT OF DETENT.
000225: 17,2223           35013                           CA       OURRCBIT                              #  ***********
000226: 17,2224           71102                           MASK     DAPBOOLS                              #  *IN DETENT*   CHECK FOR MANUAL CONTROL
000227: 17,2225           00006                           EXTEND                                         #  ***********   LAST TIME.
000228: 17,2226           62461                           BZMF     ATTSTEER
000229:
000230: 17,2227           31417        DBCHECK-           CA       OMEGAP                                #  STAY IN RATE DAMPING UNTIL P-AXIS
000231: 17,2230           02236                           TC       CHKRTDB                               #  AUTOPILOT HAS TAKEN CARE OF P-RATE
000232:
000233: 17,2231           31424                           CA       OMEGAU                                #  DAMP U AND V AXES
000234: 17,2232           02236                           TC       CHKRTDB
000235: 17,2233           31425                           CA       OMEGAV
000236: 17,2234           02236                           TC       CHKRTDB
000237: 17,2235           12251                           TCF      WITHINDB
000238:
000239: 17,2236           10000        CHKRTDB            CCS      A
000240: 17,2237           12241                           TCF      +2
000241: 17,2240           00002        RTDBGOOD           TC       Q
000242:
000243: 17,2241           61464                           AD       -RATEDB
000244: 17,2242           00006                           EXTEND
000245: 17,2243           62240                           BZMF     RTDBGOOD
000246:
000247: 17,2244           41424                           CS       OMEGAU
000248: 17,2245           55424                           TS       URATEDIF
000249: 17,2246           41425                           CS       OMEGAV
000250: 17,2247           55425                           TS       VRATEDIF
000251: 17,2250           12311                           TCF      ENTERUV
000252:
000253: 17,2251           45013        WITHINDB           CS       OURRCBIT                              #  ALL RATES ARE GOOD SO EXIT RATE CMD
000254: 17,2252           00004                           INHINT                                         #  MODE
000255: 17,2253           71102                           MASK     DAPBOOLS
000256: 17,2254           55102                           TS       DAPBOOLS
000257: 17,2255           04737                           TC       IBNKCALL
000258: 17,2256           40232                           CADR     ZATTEROR
000259: 17,2257           00003                           RELINT
000260: 17,2260           12461                           TCF      ATTSTEER
000261:
000262: 17,2261           35013        RHCACTIV           CA       OURRCBIT
000263: 17,2262           71102                           MASK     DAPBOOLS
000264: 17,2263           00006                           EXTEND
000265: 17,2264           12644                           BZF      XTRANS
000266:
000267: 17,2265           35020                           CA       RHCSCALE                              #  LINEAR CONTROLLER SCALING
000268: 17,2266           71102                           MASK     DAPBOOLS
000269: 17,2267           10000                           CCS      A
000270: 17,2270           35737                           CAF      143DEC                                #  SCALE FOR 20D/S MAX (177D)
000271: 17,2271           64254                           AD       34DEC                                 #  SCALE FOR 4D/S MAX (34D)
000272: 17,2272           55435                           TS       RRATEDIF
000273: 17,2273           00006                           EXTEND
000274: 17,2274           71445                           MP       SAVEHAND
000275: 17,2275           41420                           CS       OMEGAQ
000276: 17,2276           60001                           AD       L
000277: 17,2277           55434                           TS       QRATEDIF
000278: 17,2300           31435                           CA       RRATEDIF
000279: 17,2301           00006                           EXTEND
000280: 17,2302           71446                           MP       SAVEHAND   +1
000281: 17,2303           41421                           CS       OMEGAR
000282: 17,2304           60001                           AD       L
000283: 17,2305           55435                           TS       RRATEDIF
000284: 17,2306           53435                           DXCH     QRATEDIF
000285: 17,2307           02726                           TC       ROT45DEG
000286: 17,2310           53425                           DXCH     URATEDIF
000287:
000288: 17,2311           32373        ENTERUV            CA       HANDADR
000289: 17,2312           55470                           TS       RETJADR
000290:
000291: 17,2313           35030                           CA       ZERO
000292: 17,2314           55451                           TS       QERROR
000293: 17,2315           55452                           TS       RERROR
000294:
000295: 17,2316           00004                           INHINT                                         #  DIRECT RATE CONTROL.
000296: 17,2317           04737                           TC       IBNKCALL
000297: 17,2320           40232                           FCADR    ZATTEROR
000298: 17,2321           00003                           RELINT
000299:
000300: 17,2322           35026                           CA       ONE
000301: 17,2323           55471        BACKHAND           TS       AXISCTR
000302:
000303: 17,2324           35024                           CA       FOUR
000304: 17,2325           55740                           TS       NUMBERT
000305:
000306: 17,2326           51471                           INDEX    AXISCTR
000307: 17,2327           51530                           INDEX    SKIPU
000308: 17,2330           12331                           TCF      +1
000309: 17,2331           35024                           CA       FOUR
000310: 17,2332           51471                           INDEX    AXISCTR
000311: 17,2333           55530                           TS       SKIPU
000312: 17,2334           12566                           TCF      LOOPER
000313: 17,2335           51471                           INDEX    AXISCTR
000314: 17,2336           11424                           CCS      URATEDIF                              #        INDEX   AXIS    QUANITY
000315: 17,2337           12341                           TCF      +2                                    #        0       -U      1/JETACC-AOSU
000316: 17,2340           12366                           TCF      SETTIME                               #        1       +U      1/JETACC+AOSU
000317: 17,2341           61464                           AD       -RATEDB                               #        16      -V      1/JETACC-AOSV
000318: 17,2342           00006                           EXTEND                                         #        17      +V      1/JETACC+AOSV
000319: 17,2343           62371                           BZMF     ZEROTJ                                #  JETACC = 2 JET ACCELERATION (1 FOR FAIL)
000320:
000321: 17,2344           51471                           INDEX    AXISCTR
000322: 17,2345           11424                           CCS      URATEDIF
000323: 17,2346           35026                           CAF      ONE
000324: 17,2347           12351                           TCF      +2
000325: 17,2350           35030                           CAF      ZERO
000326: 17,2351           51471                           INDEX    AXISCTR
000327: 17,2352           63505                           AD       AXISDIFF
000328: 17,2353           50000                           INDEX    A
000329: 17,2354           31566                           CA       1/ANET2    +1
000330: 17,2355           00006                           EXTEND
000331: 17,2356           51471                           INDEX    AXISCTR                               #  URATEDIF IS SCALED AT PI/4 RAD/SEC
000332: 17,2357           71424                           MP       URATEDIF                              #   JET TIME IN A      SCALED 32 SEC
000333: 17,2360           54002                           TS       Q
000334: 17,2361           20001                           DAS      A
000335: 17,2362           60002                           AD       Q
000336: 17,2363           54000                           TS       A                                     #   OVERFLOW SKIP
000337: 17,2364           12366                           TCF      +2
000338: 17,2365           30002                           CA       Q                                     #  RIGHT SIGN AND BIGGER THAN 150MS
000339: 17,2366           51471        SETTIME            INDEX    AXISCTR
000340: 17,2367           55517                           TS       TJU                                   #  SCALED AT 10.67 WHICH IS CLOSE TO 10.24
000341: 17,2370           12524                           TCF      AFTERTJ
000342:
000343: 17,2371           35030        ZEROTJ             CA       ZERO
000344: 17,2372           12366                           TCF      SETTIME
000345:
000346: 17,2373           02323        HANDADR            GENADR   BACKHAND
000347:
000348:                                                                                                  #  GTS WILL BE TRIED IF
000349:                                                                                                  #        1. USEQRJTS= 0,
000350:                                                                                                  #        2. ALLOWGTS POS,
000351:                                                                                                  #        3. JETS ARE OFF (Q,R-AXES)
000352:
000353: 17,2374           35011        TRYGTS             CAF      USEQRJTS                              #  IS JET USE MANDATORY.         (AS LONG AS
000354: 17,2375           71102                           MASK     DAPBOOLS                              #  USEQRJTS BIT IS NOT BIT 15, CCS IS SAFE)
000355: 17,2376           10000                           CCS      A
000356: 17,2377           12004                           TCF      RCS
000357: 17,2400           11624                           CCS      ALLOWGTS                              #  NO.  DOES AOSTASK OK CONTROL FOR GTS?
000358: 17,2401           12403                           TCF      +2
000359: 17,2402           12004                           TCF      RCS
000360: 17,2403           00006                           EXTEND
000361: 17,2404           00005                           READ     CHAN5
000362: 17,2405           10000                           CCS      A
000363: 17,2406           12412                           TCF      CHKINGTS
000364: 17,2407           00006        GOTOGTS            EXTEND
000365: 17,2410           32425                           DCA      GTSCADR
000366: 17,2411           52006                           DTCB
000367:
000368: 17,2412           11627        CHKINGTS           CCS      INGTS                                 #  WAS THE TRIM GIMBAL CONTROLLING
000369: 17,2413           12415                           TCF      +2                                    #        YES.  SET UP A DAMPED NULLING DRIVE.
000370: 17,2414           12004                           TCF      RCS                                   #        NO.  NULLING WAS SET UP BEFORE.  DO RCS
000371: 17,2415           00004                           INHINT
000372: 17,2416           04737                           TC       IBNKCALL
000373: 17,2417           43304                           CADR     TIMEGMBL
000374: 17,2420           00003                           RELINT
000375: 17,2421           35030                           CAF      ZERO
000376: 17,2422           55627                           TS       INGTS
000377: 17,2423           12004                           TCF      RCS
000378:
000379: 17,2424  E6,1632                                  EBANK=   CDUXD
000380: 17,2424           03055 42106  GTSCADR            2CADR    GTS
000381:
000382:                                                                                                  #  SUBROUTINE TO COMPUTE Q,R-AXES ATTITUDE ERRORS FOR USE IN THE RCS AND GTS CONTROL LAWS AND THE DISPLAYS.
000383:
000384: 17,2426           30033        QERRCALC           CAE      CDUY                                  #  Q-ERROR CALCULATION
000385: 17,2427           00006                           EXTEND
000386: 17,2430           21633                           MSU      CDUYD                                 #  CDU ANGLE - ANGLE DESIRED (Y-AXIS)
000387: 17,2431           55734                           TS       DAPTEMP1                              #  SAVE FOR RERRCALC
000388: 17,2432           00006                           EXTEND
000389: 17,2433           71413                           MP       M21                                   #  (CDUY-CDUYD)*M21 SCALED AT PI RADIANS
000390: 17,2434           55542                           TS       E
000391: 17,2435           30034                           CAE      CDUZ                                  #  SECOND TERM CALCULATION:
000392: 17,2436           00006                           EXTEND
000393: 17,2437           21634                           MSU      CDUZD                                 #  CDU ANGLE -ANGLE DESIRED (Z-AXIS)
000394: 17,2440           55735                           TS       DAPTEMP2                              #  SAVE FOR RERRCALC
000395: 17,2441           00006                           EXTEND
000396: 17,2442           71415                           MP       M22                                   #  (CDUZ-CDUZD)*M22 SCALED AT PI RADIANS
000397: 17,2443           61302                           AD       DELQEROR                              #  KALCMANU INERFACE ERROR
000398: 17,2444           61542                           AD       E
000399: 17,2445           57451                           XCH      QERROR                                #  SAVE Q-ERROR FOR EIGHT-BALL DISPLAY.
000400:
000401: 17,2446           31734        RERRCALC           CAE      DAPTEMP1                              #  R-ERROR CALCULATION:
000402: 17,2447           00006                           EXTEND                                         #  CDU ANGLE -ANGLE DESIRED (Y-AXIS)
000403: 17,2450           71414                           MP       M31                                   #  (CDUY-CDUYD)*M31 SCALED AT PI RADIANS
000404: 17,2451           55542                           TS       E
000405: 17,2452           31735                           CAE      DAPTEMP2                              #  SECOND TERM CALCULATION:
000406: 17,2453           00006                           EXTEND                                         #  CDU ANGLE -ANGLE DESIRED (Z-AXIS)
000407: 17,2454           71416                           MP       M32                                   #  (CDUZ-CDUZD)*M32 SCALED AT PI RADIANS
000408: 17,2455           61303                           AD       DELREROR                              #  KALCMANU INERFACE ERROR
000409: 17,2456           61542                           AD       E
000410: 17,2457           57452                           XCH      RERROR                                #  SAVE R-ERROR FOR EIGHT-BALL DISPLAY.
000411: 17,2460           00002                           TC       Q
000412:
000413:                                                                                                  #  "ATTSTEER" IS THE ENTRY POINT FOR Q,R-AXES (U,V-AXES) ATTITUDE CONTROL USING THE REACTION CONTROL SYSTEM
000414:
000415: 17,2461  17,2461               ATTSTEER           EQUALS   STILLRCS                              #  "STILLRCS" IS THE RCS EXIT FROM TRYGTS.
000416:
000417: 17,2461           00006        STILLRCS           EXTEND
000418: 17,2462           31452                           DCA      QERROR
000419: 17,2463           02726                           TC       ROT45DEG
000420: 17,2464           53467                           DXCH     UERROR
000421:
000422:                                                                                                  #  PREPARES CALL TO TJETLAW (OR SPSRCS(DOCKED))
000423:                                                                                                  #  PREFORMS SKIP LOGIC ON U OR Y AXIS IF NEEDED.
000424:
000425: 17,2465           32521        TJLAW              CA       TJLAWADR
000426: 17,2466           55470                           TS       RETJADR
000427: 17,2467           35026                           CA       ONE
000428: 17,2470           55471                           TS       AXISCTR
000429: 17,2471           51471                           INDEX    AXISCTR
000430: 17,2472           51530                           INDEX    SKIPU
000431: 17,2473           12474                           TCF      +1
000432: 17,2474           35024                           CA       FOUR
000433: 17,2475           51471                           INDEX    AXISCTR
000434: 17,2476           55530                           TS       SKIPU
000435: 17,2477           12566                           TCF      LOOPER
000436: 17,2500           51471                           INDEX    AXISCTR
000437: 17,2501           31466                           CA       UERROR
000438: 17,2502           55542                           TS       E
000439: 17,2503           51471                           INDEX    AXISCTR
000440: 17,2504           31424                           CA       OMEGAU
000441: 17,2505           55543                           TS       EDOT
000442: 17,2506           31102                           CA       DAPBOOLS
000443: 17,2507           75012                           MASK     CSMDOCKD
000444: 17,2510           10000                           CCS      A
000445: 17,2511           12514                           TCF      +3
000446: 17,2512           03035                           TC       TJETLAW
000447: 17,2513           12524                           TCF      AFTERTJ
000448: 17,2514           41102                 +3        CS       DAPBOOLS                              #  DOCKED.  IF GIMBAL USABLE DO GTS CONTROL
000449: 17,2515           75011                           MASK     USEQRJTS                              #   ON THE NEXT PASS.
000450: 17,2516           10000                           CCS      A                                     #  USEQRJTS BIT MUST NOT BE BIT 15.
000451: 17,2517           55625                           TS       COTROLER                              #  GIMBAL USABLE.  STORE POSITIVE VALUE.
000452: 17,2520           13526                           TCF      SPSRCS                                #  DETERMINE RCS CONTROL.
000453:
000454: 17,2521           02470        TJLAWADR           GENADR   TJLAW      +3                         #  RETURN ADDRESS FOR RCS ATTITUDE CONTROL
000455:
000456: 17,2522           35024                           CAF      FOUR                                  #  ALWAYS CALL FOR 2-JET CONTROL ABOUT U,V.
000457: 17,2523           55740                           TS       NUMBERT                               #  FALL THROUGH TO JET SELECTION, ETC.
000458:
000459:                                                                                                  #  Q,R-JET-SELECTION-LOGIC
000460:
000461:                                                                                                  #  INPUT:        AXISCTR         0,1 FOR U,V
000462:                                                                                                  #                SNUFFBIT        ZERO TJETU,V AND TRANS. ONLY IF SET IN A DPS BURN
000463:                                                                                                  #                TJU,TJV         JET TIME SCALED 10.24 SEC.
000464:                                                                                                  #                NUMBERT         INDICATES NUMBER OF JETS AND TYPE OF POLICY
000465:                                                                                                  #                RETJADR         WHERE TO RETURN TO
000466:                                                                                                  #  OUTPUT:       NO.U(V)JETS     RATE DERIVATION FEEDBACK
000467:                                                                                                  #                CHANNEL 5
000468:                                                                                                  #                SKIPU,SKIRV     FOR LESS THAN 150MS FIRING
000469:
000470:                                                                                                  #  NOTES:        IN CASE OF FAILURE IN DESIRED ROTATION POLICY, "ALL" UNFAILED
000471:                                                                                                  #                JETS OF THE DESIRED POLICY ARE SELECTED. SINCE THERE ARE ONLY
000472:                                                                                                  #                TWO JETS, THIS MEANS THE OTHER ONE OR NONE. THE ALARM IS SENT
000473:                                                                                                  #                IF NONE CAN BE FOUND.
000474:
000475:                                                                                                  #                TIMES LESS THAN 14 MSEC ARE TAKEN TO CALL FOR A SINGLE-JET
000476:                                                                                                  #                MINIMUM IMPULSE, WITH THE JET CHOSEN SEMI-RANDOMLY.
000477:
000478: 17,2524           35025        AFTERTJ            CAF      TWO
000479: 17,2525           54001                           TS       L
000480: 17,2526           51471                           INDEX    AXISCTR
000481: 17,2527           11517                           CCS      TJU
000482: 17,2530           12535                           TCF      +5
000483: 17,2531           12560                           TCF      NOROTAT
000484: 17,2532           12534                           TCF      +2
000485: 17,2533           12560                           TCF      NOROTAT
000486: 17,2534           22007                           ZL
000487: 17,2535           65026                           AD       ONE
000488: 17,2536           55734                           TS       ABSTJ
000489:
000490: 17,2537           31471                           CA       AXISCTR
000491: 17,2540           60001                           AD       L
000492: 17,2541           55741                           TS       ROTINDEX                              #  0 1 2 3 = -U -V -+U +V
000493:
000494: 17,2542           31734                           CA       ABSTJ
000495: 17,2543           62671                           AD       -150MS
000496: 17,2544           00006                           EXTEND
000497: 17,2545           62571                           BZMF     DOSKIP
000498:
000499: 17,2546           02756                           TC       SELCTSUB
000500:
000501: 17,2547           51471                           INDEX    AXISCTR
000502: 17,2550           32666                           CA       INDEXES
000503: 17,2551           54001                           TS       L
000504:
000505: 17,2552           31736                           CA       POLYTEMP
000506: 17,2553           00004                           INHINT
000507: 17,2554           50001                           INDEX    L
000508: 17,2555           05755                           TC       WRITEP
000509:
000510: 17,2556           00003                           RELINT
000511: 17,2557           12632                           TCF      FEEDBACK
000512:
000513: 17,2560           51471        NOROTAT            INDEX    AXISCTR
000514: 17,2561           32666                           CA       INDEXES
000515: 17,2562           00004                           INHINT
000516: 17,2563           50000                           INDEX    A
000517: 17,2564           05754                           TC       WRITEP     -1
000518:
000519: 17,2565           00003                           RELINT
000520: 17,2566           11471        LOOPER             CCS      AXISCTR
000521: 17,2567           01470                           TC       RETJADR
000522: 17,2570           13021                           TCF      CLOSEOUT
000523: 17,2571           41734        DOSKIP             CS       ABSTJ
000524: 17,2572           62670                           AD       +TJMINT6                              #  14MS
000525: 17,2573           00006                           EXTEND
000526: 17,2574           62613                           BZMF     NOTMIN
000527:
000528: 17,2575           27734                           ADS      ABSTJ
000529: 17,2576           51471                           INDEX    AXISCTR
000530: 17,2577           11517                           CCS      TJU
000531: 17,2600           32670                           CA       +TJMINT6
000532: 17,2601           12603                           TCF      +2
000533: 17,2602           42670                           CS       +TJMINT6
000534: 17,2603           51471                           INDEX    AXISCTR
000535: 17,2604           55517                           TS       TJU
000536:
000537: 17,2605           11472                           CCS      SENSETYP                              #  ENSURE MIN-IMPULSE NOT AGAINST TRANS
000538: 17,2606           12612                           TCF      NOTMIN     -1
000539: 17,2607           00006                           EXTEND
000540: 17,2610           00004                           READ     LOSCALAR
000541: 17,2611           75026                           MASK     ONE
000542: 17,2612           55740                           TS       NUMBERT
000543:
000544: 17,2613           02756        NOTMIN             TC       SELCTSUB
000545:
000546: 17,2614           51471                           INDEX    AXISCTR
000547: 17,2615           32666                           CA       INDEXES
000548: 17,2616           00004                           INHINT
000549: 17,2617           55457                           TS       T6FURTHA   +1
000550: 17,2620           31736                           CA       POLYTEMP
000551: 17,2621           51457                           INDEX    T6FURTHA   +1
000552: 17,2622           05755                           TC       WRITEP
000553: 17,2623           31734                           CA       ABSTJ
000554: 17,2624           55456                           TS       T6FURTHA
000555: 17,2625           02674                           TC       JTLST                                 #  IN QR BANK BY NOW
000556:
000557: 17,2626           00003                           RELINT
000558:
000559: 17,2627           35030                           CA       ZERO
000560: 17,2630           51471                           INDEX    AXISCTR
000561: 17,2631           55530                           TS       SKIPU
000562:
000563: 17,2632           46221        FEEDBACK           CS       THREE
000564: 17,2633           61740                           AD       NUMBERT
000565: 17,2634           00006                           EXTEND
000566: 17,2635           62640                           BZMF     +3
000567:
000568: 17,2636           35025                           CA       TWO
000569: 17,2637           12641                           TCF      +2
000570: 17,2640           35026                           CA       ONE
000571: 17,2641           51471                           INDEX    AXISCTR
000572: 17,2642           55514                           TS       NO.UJETS
000573: 17,2643           12566                           TCF      LOOPER
000574:
000575: 17,2644           35030        XTRANS             CA       ZERO
000576: 17,2645           55517                           TS       TJU
000577: 17,2646           55520                           TS       TJV
000578: 17,2647           35024                           CA       FOUR
000579: 17,2650           00004                           INHINT
000580: 17,2651           57530                           XCH      SKIPU
000581: 17,2652           00006                           EXTEND
000582: 17,2653           12655                           BZF      +2
000583: 17,2654           05760                           TC       WRITEU     -1
000584: 17,2655           35024                           CA       FOUR
000585: 17,2656           57531                           XCH      SKIPV
000586: 17,2657           00003                           RELINT
000587:
000588: 17,2660           00006                           EXTEND
000589: 17,2661           13021                           BZF      CLOSEOUT
000590: 17,2662           00004                           INHINT
000591: 17,2663           05771                           TC       WRITEV     -1
000592: 17,2664           00003                           RELINT
000593:
000594: 17,2665           13021                           TCF      CLOSEOUT
000595: 17,2666           00004        INDEXES            DEC      4          B-14
000596: 17,2667           00015                           DEC      13         B-14
000597: 17,2670           00026        +TJMINT6           DEC      22         B-14
000598: 17,2671           77417        -150MS             DEC      -240       B-14
000599: 17,2672           00600        BIT8,9             OCT      00600
000600: 17,2673           00266        SCLNORM            OCT      266
000601:
000602:                                                                                                  #  THE JET LIST:
000603:                                                                                                  #  THIS IS A WAITLIST FOR T6RUPTS.
000604:
000605:                                                                                                  #  CALLED BY:
000606:                                                                                                  #                CA      TJ              TIME WHEN NEXT JETS WILL BE WRITTEN
000607:                                                                                                  #                TS      T6FURTHA
000608:                                                                                                  #                CA      INDEX           AXIS TO BE WIRTTEN AT TJ (FROM NOW)
000609:                                                                                                  #                TS      T6FURTHA +1
000610:                                                                                                  #                TC      JTLST
000611:
000612:                                                                                                  #  EXAMPLE - U-AXIS AUTOPILOT WILL WRITE ITS ROTATION CODE OF
000613:                                                                                                  #  JETS INTO CHANNEL 5.  IF IT DESIRES TO TURN OFF THIS POLICY WITHIN
000614:                                                                                                  #  150MS AND THEN FIRE NEXTU, A CALL TO JTLST IS MADE WITH T6FURTHA
000615:                                                                                                  #  CONTAINING THE TIME TO TURN OFF THE POLICY, T6FURTHA +1 THE INDEX
000616:                                                                                                  #  OF THE U-AXIS(4), AND NEXTU WILL CONTAIN THE "U-TRANS" POLICY OR ZERO.
000617:
000618:                                                                                                  #  THE LIST IS EXACTLY 3 LONG.  (THIS LEADS TO SKIP LOGIC AND 150MS LIMIT)
000619:                                                                                                  #  THE INPUT IS THE LAST MEMBER OF THE LIST
000620:
000621:                                                                                                  #  RETURNS BY:
000622:                                                                                                  #        +       TC      Q
000623:
000624:                                                                                                  #  DEFINITIONS:  (OUTPUT)
000625:                                                                                                  #        TIME6           TIME OF NEXT RUPT
000626:                                                                                                  #        T6NEXT          DELTA TIME TO NEXT RUPT
000627:                                                                                                  #        T6FURTHA        DELTA TIME FROM 2ND TO LAST RUPT
000628:                                                                                                  #        NXT6ADR         AXIS INDEX       Q - P-AXIS
000629:                                                                                                  #        T6NEXT +1       AXIS INDEX       4 - U-AXIS
000630:                                                                                                  #        T6FURTHA +1     AXIS INDEX      13 - V-AXIS
000631:
000632: 17,2674           41456        JTLST              CS       T6FURTHA
000633: 17,2675           60031                           AD       TIME6
000634: 17,2676           00006                           EXTEND
000635: 17,2677           62711                           BZMF     MIDORLST                              #  TIME6 - T IS IN A
000636:
000637: 17,2700           23453                           LXCH     NXT6ADR
000638: 17,2701           53455                           DXCH     T6NEXT
000639: 17,2702           53457                           DXCH     T6FURTHA
000640: 17,2703           54031                           TS       TIME6
000641: 17,2704           23453                           LXCH     NXT6ADR
000642:
000643: 17,2705           35010        TURNON             CA       BIT15
000644: 17,2706           00006                           EXTEND
000645: 17,2707           05013                           WOR      CHAN13
000646: 17,2710           00002                           TC       Q
000647:
000648: 17,2711           61454        MIDORLST           AD       T6NEXT
000649: 17,2712           00006                           EXTEND
000650: 17,2713           62722                           BZMF     LASTCHG                               #  TIME6 + T6NEXT - T IS IN A
000651:
000652: 17,2714           23455                           LXCH     T6NEXT     +1
000653: 17,2715           53457                           DXCH     T6FURTHA
000654: 17,2716           00006                           EXTEND
000655: 17,2717           60031                           SU       TIME6
000656: 17,2720           53455                           DXCH     T6NEXT
000657:
000658: 17,2721           00002                           TC       Q
000659:
000660: 17,2722           40000        LASTCHG            CS       A
000661: 17,2723           65027                           AD       NEG0
000662: 17,2724           55456                           TS       T6FURTHA
000663:
000664: 17,2725           00002                           TC       Q
000665:
000666: 17,2726           55734        ROT45DEG           TS       ROTEMP1
000667: 17,2727           60001                           AD       L
000668: 17,2730           55735                           TS       ROTEMP2
000669: 17,2731           12737                           TCF      +6
000670: 17,2732           10000                           CCS      A
000671: 17,2733           35006                           CA       POSMAX
000672: 17,2734           12736                           TCF      +2
000673: 17,2735           35010                           CA       NEGMAX
000674: 17,2736           55735                           TS       ROTEMP2                               #  Q+R
000675: 17,2737           41734                           CS       ROTEMP1
000676: 17,2740           60001                           AD       L
000677: 17,2741           55734                           TS       ROTEMP1                               #  R-Q
000678: 17,2742           12746                           TCF      +4
000679: 17,2743           00006                           EXTEND
000680: 17,2744           75006                           MP       POSMAX
000681: 17,2745           30001                           CA       L
000682: 17,2746           00006                           EXTEND
000683: 17,2747           72755                           MP       .707
000684: 17,2750           57735                           XCH      ROTEMP2
000685: 17,2751           00006                           EXTEND
000686: 17,2752           72755                           MP       .707
000687: 17,2753           23735                           LXCH     ROTEMP2
000688: 17,2754           00002                           TC       Q
000689:
000690: 17,2755           26501        .707               DEC      .70711
000691:
000692: 17,2756           51741        SELCTSUB           INDEX    ROTINDEX
000693: 17,2757           33010                           CA       ALLJETS
000694: 17,2760           51740                           INDEX    NUMBERT
000695: 17,2761           73014                           MASK     TYPEPOLY
000696: 17,2762           55736                           TS       POLYTEMP
000697:
000698: 17,2763           71264                           MASK     CH5MASK
000699: 17,2764           10000                           CCS      A
000700: 17,2765           12767                           TCF      +2
000701: 17,2766           00002                           TC       Q
000702:
000703: 17,2767           36221                           CA       THREE
000704: 17,2770           55740        FAILOOP            TS       NUMBERT
000705: 17,2771           51741                           INDEX    ROTINDEX
000706: 17,2772           33010                           CA       ALLJETS
000707: 17,2773           51740                           INDEX    NUMBERT
000708: 17,2774           73014                           MASK     TYPEPOLY
000709: 17,2775           55736                           TS       POLYTEMP
000710: 17,2776           71264                           MASK     CH5MASK
000711: 17,2777           00006                           EXTEND
000712: 17,3000           12766                           BZF      FAILOOP    -2
000713: 17,3001           11740                           CCS      NUMBERT
000714: 17,3002           12770                           TCF      FAILOOP
000715: 17,3003           51471                           INDEX    AXISCTR
000716: 17,3004           55517                           TS       TJU
000717: 17,3005           05651                           TC       ALARM
000718: 17,3006           02004                           OCT      02004
000719: 17,3007           12560                           TCF      NOROTAT
000720: 17,3010           00110        ALLJETS            OCT      00110                                 #        -U      6 13
000721: 17,3011           00022                           OCT      00022                                 #        -V      2 9
000722: 17,3012           00204                           OCT      00204                                 #        +U      5 14
000723: 17,3013           00041                           OCT      00041                                 #        +V      1 10
000724: 17,3014           00125        TYPEPOLY           OCT      00125                                 #        -X      1 5 9 13
000725: 17,3015           00252                           OCT      00252                                 #        +X      2 6 10 14
000726: 17,3016           00146                           OCT      00146                                 #        A       2 5 10 13
000727: 17,3017           00231                           OCT      00231                                 #        B       1 6 9 14
000728: 17,3020           00377                           OCT      00377                                 #        ALL     1 2 5 6 9 10 13 14
000729:
000730:                                                                                                  #  THE FOLLOWING SETS THE INTERRUPT FLIP-FLOP AS SOON AS POSSIBLE, WHICH PERMITS A RETURN TO THE INTERRUPTED JOB.
000731:
000732: 17,3021           33023        CLOSEOUT           CA       ADRRUPT
000733: 17,3022           07774                           TC       MAKERUPT
000734:
000735: 17,3023           03024        ADRRUPT            ADRES    ENDJASK
000736:
000737: 17,3024           53747        ENDJASK            DXCH     DAPARUPT
000738: 17,3025           52011                           DXCH     ARUPT
000739: 17,3026           53751                           DXCH     DAPBQRPT
000740: 17,3027           56017                           XCH      BRUPT
000741: 17,3030           22002                           LXCH     Q
000742: 17,3031           35010                           CAF      NEGMAX                                #  NEGATIVE DAPZRUPT SIGNALS JASK IS OVER.
000743: 17,3032           53753                           DXCH     DAPZRUPT
000744: 17,3033           52016                           DXCH     ZRUPT
000745: 17,3034           15342                           TCF      NOQRSM
000746:
000747:
000748:    7774                                           BLOCK    3
000749:    6000                                           SETLOC   FFTAG6
000750:    6000                                           BANK
000751:    7774                                           COUNT*   $$/DAP
000752:
000753:    7774           00006        MAKERUPT           EXTEND
000754:    7775           07774                           EDRUPT   MAKERUPT
000755:

End of include-file Q,R-AXES_RCS_AUTOPILOT.agc.  Parent file is MAIN.agc


