
Source Code


000002:                                                                                                  ## Copyright:   Public domain.
000003:                                                                                                  ## Filename:    R13.agc
000004:                                                                                                  ## Purpose:     A section of an attempt to reconstruct Sundance revision 306
000005:                                                                                                  ##              as closely as possible with available information. Sundance
000006:                                                                                                  ##              306 is the source code for the Lunar Module's (LM) Apollo
000007:                                                                                                  ##              Guidance Computer (AGC) for Apollo 9. This program was created
000008:                                                                                                  ##              using the mixed-revision SundanceXXX as a starting point, and
000009:                                                                                                  ##              pulling back features from Luminary 69 believed to have been
000010:                                                                                                  ##              added based on memos, checklists, observed address changes,
000011:                                                                                                  ##              or the Sundance GSOPs.
000012:                                                                                                  ## Assembler:   yaYUL
000013:                                                                                                  ## Contact:     Ron Burkey <info@sandroid.org>.
000014:                                                                                                  ## Website:     www.ibiblio.org/apollo/index.html
000015:                                                                                                  ## Mod history: 2020-07-24 MAS  Created from SundanceXXX.
000016:
000017:
000018:
000019: 31,2171  E7,1606                                  EBANK=   E2DPS
000020:
000021:                                                                                                  #  ****************************************************************************************************************
000022:                                                                                                  #  GUILDENSTERN:  AUTO-MODES MONITOR (R13)
000023:                                                                                                  #  ****************************************************************************************************************
000024:
000025: 31,2171                                           COUNT*   $$/R13
000026:
000027:                                                                                                  #     HERE IS THE PHILOSOPHY OF GUILDENSTERN:    ON EVERY APPEARANCE OR DISAPPEARANCE OF THE MANUAL THROTTLE
000028:                                                                                                  #  DISCRETE TO SELECT P67 OR P66 RESPECTIVELY;   ON EVERY APPEARANCE OF THE ATTITUDE-HOLD DISCRETE TO SELECT P66
000029:                                                                                                  #  UNLESS THE CURRENT PROGRAM IS P67 IN WHICH CASE THERE IS NO CHANGE.
000030:
000031: 31,2171           00006        GUILDEN            EXTEND                                         #  IS UN-AUTO-THROTTLE DISCRETE PRESENT?
000032: 31,2172           00030                           READ     CHAN30
000033: 31,2173           75022                           MASK     BIT5
000034: 31,2174           10000                           CCS      A
000035: 31,2175           12217                           TCF      STARTP67                              #  YES
000036: 31,2176           05375        P67NOW?            TC       CHECKMM                               #  NO:   ARE WE IN P67 NOW?
000037: 31,2177           00103                           DEC      67         B-14
000038: 31,2200           12223                           TCF      STABL?                                #  NO
000039: 31,2201           03562        STARTP66           TC       FASTCHNG                              #  YES
000040: 31,2202           05361                           TC       NEWMODEX
000041: 31,2203           00102        DEC66              DEC      66         B-14
000042: 31,2204           00006                           EXTEND                                         #  INITIALIZE VDGVERT USING
000043: 31,2205           31614                           DCA      VGU                                   #    PRESENT DOWNWARD VELOCITY
000044: 31,2206           53654                           DXCH     VDGVERT
000045: 31,2207           35030                           CAF      ZERO
000046: 31,2210           55655                           TS       RODCOUNT
000047: 31,2211           55656        VRTSTART           TS       WCHVERT
000048: 31,2212           32234                           CAF      VERTADR                               #  WCHPHASE = VERTICAL: P65,P66,P67
000049: 31,2213           55606                           TS       WCHPHASE
000050: 31,2214           05600                           TC       DOWNFLAG                              #  PERMIT X-AXIS OVERRIDE
000051: 31,2215           17140                           CADR     XOVINFLG
000052: 31,2216           12505                           TCF      GUILDRET
000053:
000054: 31,2217           05361        STARTP67           TC       NEWMODEX                              #  NO HARM IN "STARTING" P67 OVER AND OVER
000055: 31,2220           00103                           DEC      67         B-14                       #    SO NO NEED FOR A FASTCHNG AND NO NEED
000056:
000057: 31,2221           34375                           CAF      TEN                                   #    TO SEE IF ALREADY IN P67
000058: 31,2222           12211                           TCF      VRTSTART
000059:
000060: 31,2223           35011        STABL?             CAF      BIT14                                 #  IS AUTO MODE DISCRETE PRESENT?
000061: 31,2224           00006                           EXTEND
000062: 31,2225           02031                           RAND     CHAN31
000063: 31,2226           00006                           EXTEND
000064: 31,2227           12505                           BZF      GUILDRET                              #  YES: ALL'S WELL
000065: 31,2230           05375        P66NOW?            TC       CHECKMM                               #  NO:  ARE WE IN P66 NOW?
000066: 31,2231           00102                           DEC      66         B-14
000067: 31,2232           12201                           TCF      STARTP66                              #  NO
000068: 31,2233           12505                           TCF      GUILDRET                              #  YES
000069:
000070: 31,2234           02467        VERTADR            ADRES    VERTICAL

End of include-file R13.agc.  Parent file is MAIN.agc


