
Source Code


000002:                                                                                                  ## Copyright:   Public domain.
000003:                                                                                                  ## Filename:    R60,R62.agc
000004:                                                                                                  ## Purpose:     A section of an attempt to reconstruct Sundance revision 306
000005:                                                                                                  ##              as closely as possible with available information. Sundance
000006:                                                                                                  ##              306 is the source code for the Lunar Module's (LM) Apollo
000007:                                                                                                  ##              Guidance Computer (AGC) for Apollo 9. This program was created
000008:                                                                                                  ##              using the mixed-revision SundanceXXX as a starting point, and
000009:                                                                                                  ##              pulling back features from Luminary 69 believed to have been
000010:                                                                                                  ##              added based on memos, checklists, observed address changes,
000011:                                                                                                  ##              or the Sundance GSOPs.
000012:                                                                                                  ## Assembler:   yaYUL
000013:                                                                                                  ## Contact:     Ron Burkey <info@sandroid.org>.
000014:                                                                                                  ## Website:     www.ibiblio.org/apollo/index.html
000015:                                                                                                  ## Mod history: 2020-07-24 MAS  Created from SundanceXXX.
000016:
000017:
000018:
000019:                                                                                                  #  MOD NO: 0                             DATE: 1 MAY 1968
000020:                                                                                                  #  MOD BY: DIGITAL DEVEL GROUP           LOG SECTION R60,R62
000021:
000022:                                                                                                  #  FUNCTIONAL DESCRIPTION:
000023:
000024:                                                                                                  #  CALLED AS A GENERAL SUBROUTINE TO MANEUVER THE LM TO A SPECIFIED
000025:                                                                                                  #  ATTITUDE.
000026:
000027:                                                                                                  #  1. IF THE 3-AXIS FLAG IS NOT SET THE FINAL CDU ANGLES ARE
000028:                                                                                                  #  CALCULATED (VECPOINT).
000029:
000030:                                                                                                  #  2. THE FDAI BALL ANGLES (NOUN 18) ARE CALCULATED (BALLANGS).
000031:
000032:                                                                                                  #  3. REQUEST FLASHING DISPLAY V50 N18 PLEASE PERFORM AUTO MANEUVER.
000033:
000034:                                                                                                  #  4. IF PRIORITY DISPLAY FLAG IS SET DO A PHASECHANGE. THEN AWAIT
000035:                                                                                                  #  ASTRONAUT RESPONSE.
000036:
000037:                                                                                                  #  5. DISPLAY RESPONSE RETURNS:
000038:
000039:                                                                                                  #        A.      ENTER - RESET 3-AXIS FLAG AND RETURN TO CLIENT.
000040:
000041:                                                                                                  #        B.      TERMINATE - IF IN P00 GO TO STEP 5A. OTHERWISE CHECK IF R61 IS
000042:                                                                                                  #                THE CALLING PROGRAM. IF IN R61 AN EXIT IS MADE TO GOTOV56.  IF
000043:                                                                                                  #                NOT IN R61 AN EXIT IS DONE VIA GOTOP00H.
000044:
000045:                                                                                                  #        C.      PROCEED - CONTINUE WITH PROGRAM AT STEP 6.
000046:
000047:                                                                                                  #  6. IF THE 3-AXISFLAG IS NOT SET, THE FINAL CDU ANGLES ARE CALCULATED
000048:                                                                                                  #  (VECPOINT).
000049:
000050:                                                                                                  #  7. THE FDAI BALL ANGLES (NOUN 18) ARE CALCULATED (BALLANGS).
000051:
000052:                                                                                                  #  8. IF THE G+N SWITCH IS NOT SET GO BACK TO STEP 3.
000053:                                                                                                  #
000054:                                                                                                  #  9. IF THE AUTO SWITCH IS NOT SET GO BACK TO STEP 3.
000055:
000056:                                                                                                  #  10. NONFLASHING DISPLAY V06N18 (FDAI ANGLES).
000057:
000058:                                                                                                  #  11. DO A PHASECHANGE.
000059:
000060:                                                                                                  #  12. DO A MANEUVER CALCULATION AND ICDU DRIVE ROUTINE TO ACHIEVE FINAL
000061:
000062:                                                                                                  #  GIMBAL ANGLES (GOMANUR).
000063:                                                                                                  #  13. AT END OF MANEUVER GO TO STEP 3.
000064:
000065:                                                                                                  #        IF SATISFACTORY MANEUVER STEP 5A EXITS R60.
000066:                                                                                                  #        FOR FURTHER ADJUSTMENT OF THE VEHICLE ATTITUDE ABOUT THE
000067:                                                                                                  #        DESIRED VECTOR, THE ROUTINE MAY BE PERFORMED AGAIN STARTING AT
000068:                                                                                                  #        STEP 5C.
000069:
000070:                                                                                                  #  CALLING SEQUENCE:     TC      BANKCALL
000071:                                                                                                  #                        CADR    R60LEM
000072:
000073:                                                                                                  #  ERASABLE INITIALIZATION REQUIRED:     SCAXIS, POINTVSM (FOR VECPOINT)
000074:                                                                                                  #                                        3AXISFLG.
000075:
000076:                                                                                                  #  SUBROUTINES CALLED:   VECPOINT, BALLANGS, GOPERF2R, LINUS, GODSPER,
000077:                                                                                                  #                        GOMANUR, DOWNFLAG, PHASCHNG, UPFLAG
000078:
000079:                                                                                                  #  NORMAL EXIT MODES:    CAE     TEMPR60         (CALLERS RETURN ADDRESS)
000080:                                                                                                  #                        TC      BANKJUMP
000081:
000082:                                                                                                  #  ALARMS: NONE
000083:
000084:                                                                                                  #  OUTPUT: NONE
000085:
000086:                                                                                                  #  DEBRIS: CPHI, CTHETA, CPSI, 3AXISFLG, TBASE2
000087:
000088: 34,2000                                           BANK     34
000089: 26,2000                                           SETLOC   MANUVER
000090: 26,2000                                           BANK
000091:
000092: 26,2103     1176                                  EBANK=   TEMPR60
000093:
000094: 26,2103                                           COUNT*   $$/R06
000095: 26,2103           04704        R60LEM             TC       MAKECADR
000096: 26,2104           55176                           TS       TEMPR60
000097:
000098: 26,2105           05600                           TC       DOWNFLAG
000099: 26,2106           00055                           ADRES    AUTMANSW
000100:
000101: 26,2107           35021        REDOMANN           CAF      3AXISBIT
000102: 26,2110           70101                           MASK     FLAGWRD5                              #  IS 3-AXIS FLAG SET
000103: 26,2111           10000                           CCS      A
000104: 26,2112           12120                           TCF      TOBALL                                #  YES
000105: 26,2113           06014                           TC       INTPRET
000106: 26,2114           77624                           CALL
000107: 26,2115           56000                                    VECPOINT                              #  TO COMPUTE FINAL ANGLES
000108: 26,2116           01207                           STORE    CPHI                                  #  STORE FINAL ANGLES - CPHI, CTHETA, CPSI
000109: 26,2117           77776                           EXIT
000110:
000111: 26,2120           02302        TOBALL             TC       BALLANGS                              #  TO CONVERT ANGLES TO FDAI
000112: 26,2121           32267        TOBALLA            CAF      V06N18
000113: 26,2122           04655                           TC       BANKCALL
000114: 26,2123           20606                           CADR     GOPERF2R                              #  DISPLAY PLEASE PERFORM AUTO MANEUVER
000115: 26,2124           02255                           TC       R61TEST
000116: 26,2125           02133                           TC       REDOMANC                              #  PROCEED
000117: 26,2126           02131                           TC       GOMANMNV                              #  ENTER I.E. FINISHED WITH R60
000118: 26,2127           02214                           TC       CHKLINUS                              #  TO CHECK FOR PRIORITY DISPLAYS
000119: 26,2130           05225                           TC       ENDOFJOB
000120:
000121: 26,2131           05566        GOMANMNV           TC       UPFLAG
000122: 26,2132           00055                           ADRES    AUTMANSW
000123:
000124: 26,2133           35021        REDOMANC           CAF      3AXISBIT
000125: 26,2134           70101                           MASK     FLAGWRD5                              #  IS 3-AXIS FLAG SET
000126: 26,2135           10000                           CCS      A
000127: 26,2136           12144                           TCF      TOBALLC                               #  YES
000128: 26,2137           06014                           TC       INTPRET
000129: 26,2140           77624                           CALL
000130: 26,2141           56000                                    VECPOINT                              #  TO COMPUTE FINAL ANGLES
000131: 26,2142           01207                           STORE    CPHI                                  #  STORE ANGLES
000132: 26,2143           77776                           EXIT
000133:
000134: 26,2144           02302        TOBALLC            TC       BALLANGS                              #  TO CONVERT ANGLES TO FDAI
000135: 26,2145           02271                           TC       G+N,AUTO                              #  CHECK AUTO MODE
000136: 26,2146           10000                           CCS      A
000137: 26,2147           02175                           TC       MANMANUV                              #  NOT AUTO, GO PERFORM MANUAL MANEUVER.
000138:
000139: 26,2150           30077                           CA       FLAGWRD3
000140: 26,2151           75010                           MASK     AUTMNBIT
000141: 26,2152           00006                           EXTEND
000142: 26,2153           12155                           BZF      AUTOMANV
000143: 26,2154           02175                           TC       MANMANUV
000144:
000145: 26,2155           32267        AUTOMANV           CAF      V06N18                                #  STATIC DISPLAY DURING AUTO MANEUVER
000146: 26,2156           04655                           TC       BANKCALL                              #                                        -
000147: 26,2157           20364                           CADR     GODSPR                                #                                        -
000148: 26,2160           02214                           TC       CHKLINUS                              #  TO CHECK FOR PRIORITY DISPLAYS
000149: 26,2161           00004                           INHINT
000150: 26,2162           41102                           CS       DAPBOOLS
000151: 26,2163           75016                           MASK     XOVINHIB
000152: 26,2164           27102                           ADS      DAPBOOLS
000153: 26,2165           00003                           RELINT
000154:
000155: 26,2166           04655        STARTMNV           TC       BANKCALL                              #  PERFORM MANEUVER VIA KALCMANU
000156: 26,2167           17656                           CADR     GOMANUR
000157:
000158: 26,2170           00004                           INHINT
000159: 26,2171           45016                           CS       XOVINHIB
000160: 26,2172           71102                           MASK     DAPBOOLS
000161: 26,2173           55102                           TS       DAPBOOLS
000162: 26,2174           00003                           RELINT
000163:
000164: 26,2175           32270        MANMANUV           CAF      V06N19
000165: 26,2176           04655                           TC       BANKCALL
000166: 26,2177           20606                           CADR     GOPERF2R
000167: 26,2200           02255                           TC       R61TEST
000168: 26,2201           12210                           TCF      ENDMANU1
000169: 26,2202           02205                           TC       ENDMANUV
000170: 26,2203           02214                           TC       CHKLINUS
000171: 26,2204           05225                           TC       ENDOFJOB
000172:
000173: 26,2205           05600        ENDMANUV           TC       DOWNFLAG                              #  FINISHED MANEUVER.
000174: 26,2206           00055                           ADRES    AUTMANSW
000175: 26,2207           12133                           TCF      REDOMANC
000176:
000177: 26,2210           05600        ENDMANU1           TC       DOWNFLAG                              #  RESET 3-AXIS FLAG
000178: 26,2211           00124                           ADRES    3AXISFLG
000179: 26,2212           31176                           CAE      TEMPR60                               #                                        -
000180: 26,2213           04677                           TC       BANKJUMP                              #                                        -
000181:
000182: 26,2214           40100        CHKLINUS           CS       FLAGWRD4
000183: 26,2215           75013                           MASK     PDSPFBIT                              #  IS PRIORITY DISPLAY FLAG SET?
000184: 26,2216           10000                           CCS      A                                     #                                        -
000185: 26,2217           00002                           TC       Q                                     #  NO - EXIT
000186: 26,2220           30002                           CA       Q
000187: 26,2221           54156                           TS       MPAC       +2                         #  SAVE RETURN
000188: 26,2222           46221                           CS       THREE                                 #  OBTAIN LOCATION FOR RESTART
000189: 26,2223           60133                           AD       BUF2                                  #  HOLDS Q OF LAST DISPLAY
000190: 26,2224           55056                           TS       TBASE2
000191:
000192: 26,2225           05423                           TC       PHASCHNG
000193: 26,2226           00132                           OCT      00132
000194:
000195: 26,2227           32265                           CAF      BIT14+7
000196: 26,2230           05556                           TC       LINUS                                 #  GO SET BITS FOR PRIORITY DISPLAY      -
000197: 26,2231           00156                           TC       MPAC       +2
000198:
000199: 26,2232           37666        RELINUS            CAF      PRIO26                                #  RESTORE ORIGINAL PRIORITY
000200: 26,2233           05216                           TC       PRIOCHNG
000201:
000202: 26,2234           35022                           CAF      TRACKBIT                              #  DON'T CONTINUE R60 UNLESS TRACKFLAG ON.
000203: 26,2235           70075                           MASK     FLAGWRD1
000204: 26,2236           10000                           CCS      A
000205: 26,2237           12252                           TCF      RER60
000206:
000207: 26,2240           35020                           CAF      RNDVZBIT                              #  IS IT P20?
000208: 26,2241           70074                           MASK     FLAGWRD0
000209: 26,2242           10000                           CCS      A
000210: 26,2243           02247                           TC       +4                                    #  YES
000211: 26,2244           05423                           TC       PHASCHNG                              #  NO, MUST BE P25, SET 2.11 SPOT
000212: 26,2245           40112                           OCT      40112
000213:
000214: 26,2246           05225                           TC       ENDOFJOB
000215:
000216: 26,2247           05423                           TC       PHASCHNG                              #  SET 2.7 SPOT FOR P20
000217: 26,2250           40072                           OCT      40072
000218:
000219: 26,2251           05225                           TC       ENDOFJOB
000220:
000221: 26,2252           05566        RER60              TC       UPFLAG                                #  SET PRIO DISPLAY FLAG AFTER RESTART
000222: 26,2253           00077                           ADRES    PDSPFLAG
000223:
000224: 26,2254           01056                           TC       TBASE2
000225:
000226: 26,2255           31012        R61TEST            CA       MODREG                                #  IF WE ARE IN P00 IT MUST BE V49 OR V89
000227: 26,2256           00006                           EXTEND
000228: 26,2257           12210                           BZF      ENDMANU1                              #  THUS WE GO TO ENDEXT VIA USER
000229:
000230: 26,2260           30100                           CA       FLAGWRD4                              #  ARE WE IN R61 (P20 OR P25)
000231: 26,2261           75013                           MASK     PDSPFBIT
000232: 26,2262           00006                           EXTEND
000233: 26,2263           14106                           BZF      GOTOPOOH                              #  NO
000234: 26,2264           06000                           TC       GOTOV56                               #  YES
000235:
000236: 26,2265           20100        BIT14+7            OCT      20100                                 #                                        -
000237: 26,2266           00203        OCT203             OCT      203
000238: 26,2267           01422        V06N18             VN       0618
000239: 26,2270           01423        V06N19             VN       0619
000240:
000241:                                                                                                  #  SUBROUTINE TO CHECK FOR G+N CONTROL, AUTO STABILIZATION
000242:
000243:                                                                                                  #  RETURNS WITH C(A) = +         IF NOT SET FOR G+N, AUTO
000244:                                                                                                  #  RETURNS WITH C(A) = +0        IF SWITCHES ARE SET
000245:
000246: 26,2271           00006        G+N,AUTO           EXTEND
000247: 26,2272           00030                           READ     CHAN30
000248: 26,2273           75015                           MASK     BIT10
000249: 26,2274           10000                           CCS      A
000250: 26,2275           00002                           TC       Q                                     #  NOT IN G+N    C(A) = +
000251: 26,2276           00006        ISITAUTO           EXTEND                                         #  CHECK FOR AUTO MODE
000252: 26,2277           00031                           READ     CHAN31
000253: 26,2300           75011                           MASK     BIT14
000254: 26,2301           00002                           TC       Q                                     #  (+) = NOT IN AUTO, (+0) = AOK
000255:
000256:                                                                                                  #  PROGRAM DESCRIPTION BALLANGS
000257:                                                                                                  #  MOD NO.         LOG SECTION R60,R62
000258:
000259:                                                                                                  #  WRITTEN BY RAMA M. AIYAWAR
000260:                                                                                                  #  FUNCTIONAL DESCRIPTION
000261:
000262:                                                                                                  #  COMPUTES LM FDAI BALL DISPLAY ANGLES
000263:                                                                                                  #  CALLING SEQUENCE
000264:
000265:                                                                                                  #           TC     BALLANGS
000266:                                                                                                  #  NORMAL EXIT MODE
000267:
000268:                                                                                                  #           TC     BALLEXIT        (SAVED Q)
000269:
000270:                                                                                                  #  ALARM OR EXIT MODE  NIL
000271:                                                                                                  #  SUBROUTINES CALLED
000272:                                                                                                  #           CD*TR*G
000273:                                                                                                  #           ARCTAN
000274:
000275:                                                                                                  #  INPUT
000276:
000277:                                                                                                  #  CPHI,CTHETA,CPSI  ARE  THE ANGLES CORRESPONDING TO AOG,AIG,AMG. THEY ARE
000278:                                                                                                  #  SP,2S COMPLIMENT SCALED TO HALF REVOLUTION.
000279:                                                                                                  #  OUTPUT
000280:
000281:                                                                                                  #  FDAIX, FDAIY, FDAIZ ARE THE REQUIRED BALL ANGLES SCALED TO HALF REVOLUTION
000282:                                                                                                  #  SP,2S COMPLIMENT.
000283:                                                                                                  #  THESE ANGLES WILL BE DISPLAYED AS DEGREES AND HUNDREDTHS, IN THE ORDER ROLL, PITCH, YAW, USING NOUNS 18 & 19.
000284:
000285:                                                                                                  #  ERASABLE INITIALIZATION REQUIRED
000286:
000287:                                                                                                  #  CPHI,CTHETA,CPSI EACH A SP REGISTER
000288:                                                                                                  #  DEBRIS
000289:
000290:                                                                                                  #  A,L,Q,MPAC,SINCDU,COSCDU,PUSHLIST,BALLEXIT
000291:
000292:                                                                                                  #  NOMENCLATURE:  CPHI, CTHETA, & CPSI REPRESENT THE OUTER, INNER, & MIDDLE GIMBAL ANGLES, RESPECTIVELY; OR
000293:                                                                                                  #  EQUIVALENTLY, CDUX, CDUY, & CDUZ.
000294:
000295:                                                                                                  #  NOTE:  ARCTAN CHECKS FOR OVERFLOW AND SHOULD BE ABLE TO HANDLE ANY SINGULARITIES.
000296:
000297: 26,2000                                           SETLOC   BAWLANGS
000298: 26,2000                                           BANK
000299:
000300: 26,2302                                           COUNT*   $$/BALL
000301: 26,2302           00006        BALLANGS           EXTEND
000302: 26,2303           23346                           QXCH     BALLEXIT
000303: 26,2304           31206                           CA       CPHI
000304: 26,2305           54772                           TS       CDUSPOT    +4
000305: 26,2306           31207                           CA       CTHETA
000306: 26,2307           54766                           TS       CDUSPOT
000307: 26,2310           31210                           CA       CPSI
000308: 26,2311           54770                           TS       CDUSPOT    +2
000309:
000310: 26,2312           06014                           TC       INTPRET
000311: 26,2313           45001                           SETPD    CALL
000312: 26,2314           00001                                    0D
000313: 26,2315           47341                                    CD*TR*G
000314:
000315: 26,2316           41345                           DLOAD    DMP
000316: 26,2317           00743                                    SINCDUX                               #  SIN (OGA)
000317: 26,2320           00747                                    COSCDUZ                               #  COS (MGA)
000318:
000319: 26,2321           57552                           SL1      DCOMP                                 #  SCALE
000320: 26,2322           65336                           ARCSIN   PDDL                                  #  YAW = ARCSIN(-SXCZ) INTO 0 PD
000321: 26,2323           00741                                    SINCDUZ
000322: 26,2324           14023                           STODL    SINTH                                 #  (SINTH = 18D IN PD)
000323: 26,2325           00747                                    COSCDUZ
000324: 26,2326           72405                           DMP      SL1                                   #  RESCALE
000325: 26,2327           00751                                    COSCDUX
000326: 26,2330           34021                           STCALL   COSTH                                 #  (COSTH= 16D IN PD)
000327: 26,2331           26464                                    ARCTAN
000328: 26,2332           41325                           PDDL     DMP                                   #  ROLL = ARCTAN(SZ/CZCX) INTO 2 PD
000329: 26,2333           00741                                    SINCDUZ
000330: 26,2334           00743                                    SINCDUX
000331: 26,2335           41512                           SL2      PUSH                                  #  SXSZ INTO 4 PD
000332: 26,2336           65205                           DMP      PDDL                                  #  SXSZCY INTO 4 PD
000333: 26,2337           00745                                    COSCDUY
000334: 26,2340           65205                           DMP      PDDL                                  #  SXSZSY INTO 6 PD
000335: 26,2341           00737                                    SINCDUY
000336: 26,2342           00751                                    COSCDUX
000337: 26,2343           72405                           DMP      SL1                                   #  CXCY
000338: 26,2344           00745                                    COSCDUY
000339: 26,2345           45425                           DSU      STADR                                 #  PULL UP FROM 6 PD
000340: 26,2346           63756                           STODL    COSTH                                 #  COSTH = CXCY - SXSZSY
000341: 26,2347           00737                                    SINCDUY
000342: 26,2350           72405                           DMP      SL1
000343: 26,2351           00751                                    COSCDUX                               #  CXSY
000344: 26,2352           45415                           DAD      STADR                                 #  PULL UP FROM 4 PD
000345: 26,2353           43754                           STCALL   SINTH                                 #  SINTH = CXSY + SXSZCY
000346: 26,2354           26464                                    ARCTAN                                #  RETURNS WITH D(MPAC) = PITCH
000347: 26,2355           55525                           PDDL     VDEF                                  #  PITCH INTO 2 PD, ROLL INTO MPAC FROM 2 PD
000348: 26,2356           77634                           RTB                                            #  VDEF MAKES V(MPAC) = ROLL, PITCH, YAW
000349: 26,2357           21516                                    V1STO2S
000350: 26,2360           03776                           STORE    FDAIX                                 #  MODE IS TP
000351: 26,2361           77776                           EXIT
000352:
000353: 26,2362           01346        ENDBALL            TC       BALLEXIT
000354:
000355:                                                                                                  #  PROGRAM DESCRIPTION - VECPOINT
000356:
000357:                                                                                                  #           THIS INTERPRETIVE SUBROUTINE MAY BE USED TO POINT A SPACECRAFT AXIS IN A DESIRED DIRECTION.  THE AXIS
000358:                                                                                                  #  TO BE POINTED MUST APPEAR AS A HALF UNIT DOUBLE PRECISION VECTOR IN SUCCESSIVE LOCATIONS OF ERASABLE MEMORY
000359:                                                                                                  #  BEGINNING WITH THE LOCATION CALLED SCAXIS.  THE COMPONENTS OF THIS VECTOR ARE GIVEN IN SPACECRAFT COORDINATES.
000360:                                                                                                  #  THE DIRECTION IN WHICH THIS AXIS IS TO BE POINTED MUST APPEAR AS A HALF UNIT DOUBLE PRECISION VECTOR IN
000361:                                                                                                  #  SUCCESSIVE LOCATIONS OF ERASABLE MEMORY BEGINNING WITH THE ADDRESS CALLED POINTVSM.  THE COMPONENTS OF THIS
000362:                                                                                                  #  VECTOR ARE GIVEN IN STABLE MEMBER COORDINATES.  WITH THIS INFORMATION VECPOINT COMPUTES A SET OF THREE GIMBAL
000363:                                                                                                  #  ANGLES (2S COMPLEMENT) CORESPONDING TO THE CROSS-PRODUCT ROTATION BETWEEN SCAXIS AND POINTVSM AND STORES THEM
000364:                                                                                                  #  IN T(MPAC) BEFORE RETURNING TO THE CALLER.
000365:                                                                                                  #           THIS ROTATION, HOWEVER, MAY BRING THE S/C INTO GIMBAL LOCK.  WHEN POINTING A VECTOR IN THE Y-Z PLANE,
000366:                                                                                                  #  THE TRANSPONDER AXIS, OR THE AOT FOR THE LEM, THE PROGRAM WILL CORRECT THIS PROBLEM BY ROTATING THE CROSS-
000367:                                                                                                  #  PRODUCT ATTITUDE ABOUT POINTVSM BY A FIXED AMOUNT SUFFICIENT TO ROTATE THE DESIRED S/C ATTITUDE OUT OF GIMBAL
000368:                                                                                                  #  LOCK.  IF THE AXIS TO BE POINTED IS MORE THAN 40.6 DEGREES BUT LESS THAN 60.5 DEG FROM THE +X (OR -X) AXIS,
000369:                                                                                                  #  THE ADDITIONAL ROTATION TO AVOID GIMAL LOCK IS 35 DEGREES.  IF THE AXIS IS MORE THAN 60.5 DEGEES FROM +X (OR -X)
000370:                                                                                                  #  THE ADDITIONAL ROTATION IS 35 DEGREES.  THE GIMBAL ANGLES CORRESPONDING TO THIS ATTITUDE ARE THEN COMPUTED AND
000371:                                                                                                  #  STORED AS 2S COMPLIMENT ANGLES IN T(MPAC) BEFORE RETURNING TO THE CALLER.
000372:                                                                                                  #           WHEN POINTING THE X-AXIS, OR THE THRUST VECTOR, OR ANY VECTOR WITHIN 40.6 DEG OF THE X-AXIS, VECPOINT
000373:                                                                                                  #  CANNOT CORRECT FOR A CROSS-PRODUCT ROTATION INTO GIMBAL LOCK.  IN THIS CASE A PLATFORM REALIGNMENT WOULD BE
000374:                                                                                                  #  REQUIRED TO POINT THE VECTOR IN THE DESIRED DIRECTION.  AT PRESENT NO INDICATION IS GIVEN FOR THIS SITUATION
000375:                                                                                                  #  EXCEPT THAT THE FINAL MIDDLE GIMBAL ANGLE IN MPAC +2 IS GREATER THAN 59 DEGREES.
000376:
000377:                                                                                                  #           CALLING SEQUENCE -
000378:                                                                                                  #               1) LOAD SCAXIS, POINTVSM
000379:                                                                                                  #               2) CALL
000380:                                                                                                  #                       VECPOINT
000381:
000382:                                                                                                  #           RETURNS WITH
000383:
000384:                                                                                                  #               1) DESIRED OUTER GIMBAL ANGLE IN MPAC
000385:                                                                                                  #               2) DESIRED INNER GIMBAL ANGLE IN MPAC +1
000386:                                                                                                  #               3) DESIRED MIDDLE GIMBAL ANGLE IN MPAC +2
000387:
000388:                                                                                                  #  ERASABLES USED -
000389:
000390:                                                                                                  #      1) SCAXIS           6
000391:                                                                                                  #      2) POINTVSM         6
000392:                                                                                                  #      3) MIS             18
000393:                                                                                                  #      4) DEL             18
000394:                                                                                                  #      5) COF              6
000395:                                                                                                  #      6) VECQTEMP         1
000396:                                                                                                  #      7) ALL OF VAC AREA 43
000397:
000398:                                                                                                  #               TOTAL     99
000399:
000400: 27,2000                                           SETLOC   VECPT
000401: 27,2000                                           BANK
000402: 27,2000                                           COUNT*   $$/VECPT
000403:
000404: 27,2000  E6,1673                                  EBANK=   BCDU
000405:
000406: 27,2000           40020        VECPOINT           STQ      BOV                                   #  SAVE RETURN ADDRESS
000407: 27,2001           03322                                    VECQTEMP
000408: 27,2002           56003                                    VECLEAR                               #  AND CLEAR OVFIND
000409: 27,2003           47164        VECLEAR            AXC,2    RTB
000410: 27,2004           03243                                    MIS                                   #  READ THE PRESENT CDU ANGLES AND
000411: 27,2005           44377                                    READCDUK                              #  STORE THEM IN PD25, 26, 27
000412: 27,2006           34032                           STCALL   25D
000413: 27,2007           44404                                    CDUTODCM                              #  S/C AXES TO STABLE MEMBER AXES (MIS)
000414: 27,2010           61375                           VLOAD    VXM
000415: 27,2011           01256                                    POINTVSM                              #  RESOLVE THE POINTING DIRECTION VF INTO
000416: 27,2012           03244                                    MIS                                   #  INITIAL S/C AXES (VF = POINTVSM)
000417: 27,2013           77656                           UNIT
000418: 27,2014           00035                           STORE    28D
000419:                                                                                                  #  PD 28 29 30 31 32 33
000420: 27,2015           53435                           VXV      UNIT                                  #  TAKE THE CROSS PRODUCT VF X VI
000421: 27,2016           01250                                    SCAXIS                                #  WHERE VI = SCAXIS
000422: 27,2017           57400                           BOV      VCOMP
000423: 27,2020           56130                                    PICKAXIS
000424: 27,2021           17266                           STODL    COF                                   #  CHECK MAGNITUDE
000425: 27,2022           00045                                    36D                                   #  OF CROSS PRODUCT
000426: 27,2023           50025                           DSU      BMN                                   #  VECTOR, IF LESS
000427: 27,2024           14424                                    DPB-14                                #  THAN B-14 ASSUME
000428: 27,2025           56130                                    PICKAXIS                              #  UNIT OPERATION
000429: 27,2026           50375                           VLOAD    DOT                                   #           INVALID.
000430: 27,2027           01250                                    SCAXIS
000431: 27,2030           00035                                    28D
000432: 27,2031           65552                           SL1      ARCCOS
000433: 27,2032           77624        COMPMATX           CALL                                           #  NOW COMPUTE THE TRANSFORMATION FROM
000434: 27,2033           44523                                    DELCOMP                               #  FINAL S/C AXES TO INITIAL S/C AXES  MFI
000435: 27,2034           75160                           AXC,1    AXC,2
000436: 27,2035           03243                                    MIS                                   #  COMPUTE THE TRANSFORMATION FROM FINAL
000437: 27,2036           02236                                    KEL                                   #  S/C AXES TO STABLE MEMBER AXES
000438: 27,2037           77624                           CALL                                           #  MFS = MIS MFI
000439: 27,2040           44306                                    MXM3                                  #  (IN PD LIST)
000440:
000441: 27,2041           51545                           DLOAD    ABS
000442: 27,2042           00007                                    6                                     #  MFS6 = SIN(CPSI)                      $2
000443: 27,2043           50025                           DSU      BMN
000444: 27,2044           14411                                    SINGIMLC                              #  = SIN(59 DEGS)                        $2
000445: 27,2045           56120                                    FINDGIMB                              #  /CPSI/ LESS THAN 59 DEGS
000446:                                                                                                  #  I.E. DESIRED ATTITUDE NOT IN GIMBAL LOCK
000447:
000448: 27,2046           51545                           DLOAD    ABS                                   #  CHECK TO SEE IF WE ARE POINTING
000449: 27,2047           01250                                    SCAXIS                                #  THE THRUST AXIS
000450: 27,2050           51025                           DSU      BPL
000451: 27,2051           14413                                    SINVEC1                               #  SIN 49.4 DEGS                         $2
000452: 27,2052           56120                                    FINDGIMB                              #  IF SO, WE ARE TRYING TO POINT IT INTO
000453: 27,2053           77775                           VLOAD                                          #  GIMBAL LOCK, ABORT COULD GO HERE
000454: 27,2054           77626                           STADR
000455: 27,2055           50517                           STOVL    MIS        +12D
000456: 27,2056           77626                           STADR                                          #  STORE MFS (IN PD LIST) IN MIS
000457: 27,2057           50525                           STOVL    MIS        +6
000458: 27,2060           77626                           STADR
000459: 27,2061           50533                           STOVL    MIS
000460: 27,2062           03252                                    MIS        +6                         #  INNER GIMBAL AXIS IN FINAL S/C AXES
000461: 27,2063           57444                           BPL      VCOMP                                 #  LOCATE THE IG AXIS DIRECTION CLOSEST TO
000462: 27,2064           56065                                    IGSAMEX                               #  FINAL X S/C AXIS
000463:
000464: 27,2065           50035        IGSAMEX            VXV      BMN                                   #  FIND THE SHORTEST WAY OF ROTATING THE
000465: 27,2066           01250                                    SCAXIS                                #  S/C OUT OF GIMBAL LOCK BY A ROTATION
000466: 27,2067           56074                                    U=SCAXIS                              #  ABOUT +- SCAXIS, I.E. IF  (IG (SGN MFS3)
000467:                                                                                                  #  X SCAXIS . XF) LESS THAN 0, U = SCAXIS
000468:                                                                                                  #  OTHERWISE U = -SCAXIS
000469:
000470: 27,2070           57575                           VLOAD    VCOMP
000471: 27,2071           01250                                    SCAXIS
000472: 27,2072           37266                           STCALL   COF                                   #  ROTATE ABOUT -SCAXIS
000473: 27,2073           56077                                    CHEKAXIS
000474: 27,2074           77775        U=SCAXIS           VLOAD
000475: 27,2075           01250                                    SCAXIS
000476: 27,2076           03266                           STORE    COF                                   #  ROTATE ABOUT + SCAXIS
000477: 27,2077           51545        CHEKAXIS           DLOAD    ABS
000478: 27,2100           01250                                    SCAXIS                                #  SEE IF WE ARE POINTING THE AOT
000479: 27,2101           51025                           DSU      BPL
000480: 27,2102           14415                                    SINVEC2                               #  SIN 29.5 DEGS                         $2
000481: 27,2103           56107                                    PICKANG1                              #  IF SO, ROTATE 50 DEGS ABOUT +- SCAXIS
000482: 27,2104           52145                           DLOAD    GOTO                                  #  IF NOT, MUST BE POINTING THE TRANSPONDER
000483: 27,2105           14421                                    VECANG2                               #  OR SOME VECTOR IN THE Y, OR Z PLANE
000484: 27,2106           56111                                    COMPMFSN                              #  IN THIS CASE ROTATE 35 DEGS TO GET OUT
000485:                                                                                                  #  OF GIMBAL LOCK (VECANG2  $360)
000486: 27,2107           77745        PICKANG1           DLOAD
000487: 27,2110           14417                                    VECANG1                               #  = 50 DEGS                             $360
000488: 27,2111           77624        COMPMFSN           CALL
000489: 27,2112           44523                                    DELCOMP                               #  COMPUTE THE ROTATION ABOUT SCAXIS TO
000490: 27,2113           75160                           AXC,1    AXC,2                                 #  BRING MFS OUT OF GIMBAL LOCK
000491: 27,2114           03243                                    MIS
000492: 27,2115           02236                                    KEL
000493: 27,2116           77624                           CALL                                           #  COMPUTE THE NEW TRANSFORMATION FROM
000494: 27,2117           44306                                    MXM3                                  #  DESIRED S/C AXES TO STABLE MEMBER AXES
000495:                                                                                                  #  WHICH WILL ALIGN VI WITH VF AND AVOID
000496:                                                                                                  #  GIMBAL LOCK
000497: 27,2120           45160        FINDGIMB           AXC,1    CALL
000498: 27,2121           00000                                    0                                     #  EXTRACT THE COMMANDED CDU ANGLES FROM
000499: 27,2122           44650                                    DCMTOCDU                              #  THIS MATRIX
000500: 27,2123           40234                           RTB      SETPD
000501: 27,2124           21516                                    V1STO2S                               #  CONVERT TO 2:S COMPLEMENT
000502: 27,2125           00001                                    0
000503: 27,2126           77650                           GOTO
000504: 27,2127           03322                                    VECQTEMP                              #  RETURN TO CALLER
000505:
000506: 27,2130           50375        PICKAXIS           VLOAD    DOT                                   #  IF VF X VI = 0, FIND VF . VI
000507: 27,2131           00035                                    28D
000508: 27,2132           01250                                    SCAXIS
000509: 27,2133           72240                           BMN      TLOAD
000510: 27,2134           54363                                    ROT180
000511: 27,2135           00032                                    25D
000512: 27,2136           77650                           GOTO                                           #  IF VF = VI, CDU DESIRED = PRESENT CDU
000513: 27,2137           03322                                    VECQTEMP                              #  PRESENT CDU ANGLES
000514:
000515: 35,2000                                           BANK     35
000516: 26,2000                                           SETLOC   MANUVER1
000517: 26,2000                                           BANK
000518: 26,2363           47375        ROT180             VLOAD    VXV                                   #  IF VF, VI ANTIPARALLEL, 108 DEG ROTATION
000519: 26,2364           03252                                    MIS        +6                         #  IS REQUIRED. Y STABLE MEMBER AXIS IN
000520: 26,2365           06231                                    HIDPHALF                              #  INITIAL S/C AXES.
000521: 26,2366           47256                           UNIT     VXV                                   #  FIND Y(SM) X X(I)
000522: 26,2367           01250                                    SCAXIS                                #  FIND UNIT(VI X UNIT(Y(SM) X X(I)))
000523: 26,2370           40056                           UNIT     BOV                                   #  I.E. PICK A VECTOR IN THE PLANE OF X(I),
000524: 26,2371           54405                                    PICKX                                 #  Y(SM) PERPENDICULAR TO VI
000525: 26,2372           17266                           STODL    COF
000526: 26,2373           00045                                    36D                                   #  CHECK MAGNITUDE
000527: 26,2374           50025                           DSU      BMN                                   #  OF THIS VECTOR.
000528: 26,2375           14424                                    DPB-14                                #  IF LESS THAN B-14,
000529: 26,2376           54405                                    PICKX                                 #  PICK X-AXIS.
000530: 26,2377           77775                           VLOAD
000531: 26,2400           03266                                    COF
000532: 26,2401           17266        XROT               STODL    COF
000533: 26,2402           06231                                    HIDPHALF
000534: 26,2403           77650                           GOTO
000535: 26,2404           56032                                    COMPMATX
000536: 26,2405           52175        PICKX              VLOAD    GOTO                                  #  PICK THE XAXIS IN THIS CASE
000537: 26,2406           06231                                    HIDPHALF
000538: 26,2407           54401                                    XROT
000539: 26,2410           15555 35172  SINGIMLC           2DEC     .4285836003                            #  = SIN(59)                             $2
000540:
000541: 26,2412           14113 36326  SINVEC1            2DEC     .3796356537                            #  = SIN(49.4)                           $2
000542:
000543: 26,2414           07701 35703  SINVEC2            2DEC     .2462117800                            #  = SIN(29.5)                           $2
000544:
000545: 26,2416           04343 21616  VECANG1            2DEC     .1388888889                            #  = 50 DEGREES                          $360
000546:
000547: 26,2420           03070 34344  VECANG2            2DEC     .09722222222                            #  = 35 DEGREES                          $360
000548:
000549: 26,2422           00000        1BITDP             OCT      0                                     #  KEEP THIS BEFORE DPB(-14)        *********
000550: 26,2423           00001        DPB-14             OCT      00001
000551: 26,2424           00000                           OCT      00000
000552:
000553:                                                                                                  #  ROUTINE FOR INITIATING AUTOMATIC MANEUVER VIA KEYBOARD (V49)
000554:
000555: 34,2000                                           BANK     34
000556: 23,2000                                           SETLOC   R62
000557: 23,2000                                           BANK
000558: 23,2024  E6,1673                                  EBANK=   BCDU
000559:
000560: 23,2024                                           COUNT*   $$/R62
000561:
000562: 23,2024  23,2024               R62DISP            EQUALS   R62FLASH
000563:
000564: 23,2024           35060        R62FLASH           CAF      V06N22                                #  FLASH V06N22 AND
000565: 23,2025           04655                           TC       BANKCALL                              #  ICDU ANGLES
000566: 23,2026           20406                           CADR     GOFLASH
000567: 23,2027           15564                           TCF      ENDEXT                                #  TERMINATE
000568: 23,2030           12032                           TCF      GOMOVE                                #  PROCEED
000569: 23,2031           12024                           TCF      R62FLASH                              #  ENTER
000570:
000571:                                                                                                  #  ASTRONAUT MAY LOAD NEW ICDUS AT THIS
000572:                                                                                                  #  POINT
000573: 23,2032           05566        GOMOVE             TC       UPFLAG                                #  SET FOR 3-AXIS MANEUVER
000574: 23,2033           00124                           ADRES    3AXISFLG
000575:
000576: 23,2034           04655                           TC       BANKCALL
000577: 23,2035           54103                           CADR     R60LEM
000578: 23,2036           15564                           TCF      ENDEXT                                #  END R62
000579:

End of include-file R60,R62.agc.  Parent file is MAIN.agc


