
Source Code


000002:                                                                                                  ## Copyright:   Public domain.
000003:                                                                                                  ## Filename:    R63.agc
000004:                                                                                                  ## Purpose:     A section of an attempt to reconstruct Sundance revision 306
000005:                                                                                                  ##              as closely as possible with available information. Sundance
000006:                                                                                                  ##              306 is the source code for the Lunar Module's (LM) Apollo
000007:                                                                                                  ##              Guidance Computer (AGC) for Apollo 9. This program was created
000008:                                                                                                  ##              using the mixed-revision SundanceXXX as a starting point, and
000009:                                                                                                  ##              pulling back features from Luminary 69 believed to have been
000010:                                                                                                  ##              added based on memos, checklists, observed address changes,
000011:                                                                                                  ##              or the Sundance GSOPs.
000012:                                                                                                  ## Assembler:   yaYUL
000013:                                                                                                  ## Contact:     Ron Burkey <info@sandroid.org>.
000014:                                                                                                  ## Website:     www.ibiblio.org/apollo/index.html
000015:                                                                                                  ## Mod history: 2020-07-24 MAS  Created from SundanceXXX.
000016:
000017:
000018:
000019:                                                                                                  #  SUBROUTINE NAME:      V89CALL
000020:                                                                                                  #  MOD NO:       0                       DATE:           9 JAN 1968
000021:                                                                                                  #  MOD BY:       DIGITAL DEVEL GROUP     LOG SECTION:    R63
000022:
000023:                                                                                                  #  FUNCTIONAL DESCRIPTION:
000024:
000025:                                                                                                  #  CALLED BY VERB 89 ENTER DURING P00.  PRIO 10 USED.  CALCULATES AND
000026:                                                                                                  #  DISPLAYS FINAL FDAI BALL ANGLES TO POINT LM +X OR +Z AXIS AT CSM.
000027:
000028:                                                                                                  #  1. KEY IN V 89 E ONLY IF IN PROG 00.  IF NOT IN P00, OPERATOR ERROR AND
000029:                                                                                                  #  EXIT R63, OTHERWISE CONTINUE.
000030:
000031:                                                                                                  #  2. IF IN P00, DO IMU STATUS CHECK ROUTINE (R02BOTH).  IF IMU ON AND ITS
000032:                                                                                                  #  ORIENTATION KNOWN TO LGC, CONTINUE.
000033:
000034:                                                                                                  #  3. FLASH DISPLAY V 04 N 06.  R2 INDICATES WHICH SPACECRAFT AXIS IS TO
000035:                                                                                                  #  BE POINTED AT CSM.  INITIAL CHOICE IS PREFERRED (+Z) AXIS (R2=1).
000036:                                                                                                  #  ASTRONAUT CAN CHANGE TO (+X) AXIS (R2 NOT =1) BY V 22 E 2 E.  CONTINUE
000037:                                                                                                  #  AFTER KEYING IN PROCEED.
000038:
000039:                                                                                                  #  4. BOTH VEHICLE STATE VECTORS UPDATED BY CONIC EQS.
000040:
000041:                                                                                                  #  5. HALF MAGNITUDE UNIT LOS VECTOR (IN STABLE MEMBER COORDINATES) AND
000042:                                                                                                  #  HALF MAGNITUDE UNIT SPACECRAFT AXIS VECTOR (IN BODY COORDINATES)
000043:                                                                                                  #  PREPARED FOR VECPOINT.
000044:
000045:                                                                                                  #  6. GIMBAL ANGLES FROM VECPOINT TRANSFORMED INTO FDAI BALL ANGLES BY
000046:                                                                                                  #  BALLANGS.  FLASH DISPLAY V 06 N 18 AND AWAIT RESPONSE.
000047:
000048:                                                                                                  #  7.    RECYCLE - RETURN TO STEP 4.
000049:                                                                                                  #        TERMINATE - EXIT R63.
000050:                                                                                                  #        PROCEED - RESET 3AXISFLG AND CALL R60LEM FOR ATTITUDE MANEUVER.
000051:
000052:                                                                                                  #  CALLING SEQUENCE:     V 89 E.
000053:
000054:                                                                                                  #  SUBROUTINES CALLED:   CHKPOOH, R02BOTH, GOXDSPF, CSMCONIC, LEMCONIC,
000055:                                                                                                  #                        VECPOINT, BALLANGS, R60LEM.
000056:
000057:                                                                                                  #  NORMAL EXIT MODES:    TC ENDEXT
000058:
000059:                                                                                                  #  ALARMS:       1. OPERATOR ERROR IF NOT IN P00.
000060:                                                                                                  #                2. PROGRAM ALARM IF IMU IS OFF.
000061:                                                                                                  #                3. PROGRAM ALARM IF IMU ORIENTATION IS UNKNOWN.
000062:
000063:                                                                                                  #  OUTPUT:       NONE
000064:
000065:                                                                                                  #  ERASABLE INITIALIZATION REQUIRED:  NONE
000066:
000067:                                                                                                  #  DEBRIS:       OPTION1, +1, TDEC1, POINTVSM, SCAXIS, CPHI, CTHETA, CPSI,
000068:                                                                                                  #                3AXISFLG.
000069:
000070: 06,3712  E4,1614                                  EBANK=   RONE
000071: 32,2000                                           BANK     32
000072: 26,2000                                           SETLOC   BAWLANGS
000073: 26,2000                                           BANK
000074:
000075: 26,2000                                           COUNT*   $$/R63
000076: 26,2000           04655        V89CALL            TC       BANKCALL                              #  IMU STATUS CHECK.  RETURNS IF ORIENTATION
000077: 26,2001           11067                           CADR     R02BOTH                               #  KNOWN.  ALARMS IF NOT.
000078: 26,2002           36221                           CAF      THREE                                 #  ALLOW ASTRONAUT TO SELECT DESIRED
000079: 26,2003           55155                           TS       OPTION1                               #  TRACKING ATTITUDE AXIS.
000080: 26,2004           35026                           CAF      ONE
000081: 26,2005           55156                           TS       OPTION1    +1
000082: 26,2006           32101                           CAF      VB04N06*                              #  V 04 N 06
000083: 26,2007           04655                           TC       BANKCALL
000084: 26,2010           20406                           CADR     GOFLASH
000085: 26,2011           05564                           TC       ENDEXT                                #  TERMINATE
000086: 26,2012           02014                           TC       +2                                    #  PROCEED
000087: 26,2013           02006                           TC       -5                                    #  DATA IN. OPTION1+1 = 1 FOR Z AXIS
000088: 26,2014           06014        V89RECL            TC       INTPRET                               #                    = 2 FOR X AXIS
000089: 26,2015           77634                           RTB
000090: 26,2016           21454                                    LOADTIME                              #  READ PRESENT TIME
000091: 26,2017           02213                           STORE    TSTART82                              #  SAVE TIME FOR LEMCONIC CALL
000092: 26,2020           34041                           STCALL   TDEC1                                 #  STORE TIME FOR CSMCONIC CALL
000093: 26,2021           27037                                    CSMCONIC                              #  CSM STATE VECTOR UPDATE
000094: 26,2022           77775                           VLOAD                                          #  CSMCONIC LEFT R VECTOR IN RATT
000095: 26,2023           00001                                    RATT
000096: 26,2024           16215                           STODL    RONE                                  #  SAVE FOR LINE OF SIGHT (LOS) COMPUTATION
000097: 26,2025           02213                                    TSTART82
000098: 26,2026           34041                           STCALL   TDEC1                                 #  STORE TIME FOR LEMCONIC CALL
000099: 26,2027           27051                                    LEMCONIC                              #  LEM STATE VECTOR UPDATE
000100: 26,2030           52375                           VLOAD    VSU                                   #  CSM POSITION - LEM POSITION = LOS
000101: 26,2031           02215                                    RONE                                  #  LOS VECTOR LEFT IN MPAC
000102: 26,2032           00001                                    RATT
000103: 26,2033           40121                           MXV      BOV                                   #  (REFSMMAT X LOS).  TRANSFORMS LOS FROM
000104: 26,2034           01736                                    REFSMMAT                              #  REFERENCE COORD TO STAB MEMB COORD.
000105: 26,2035           54036                                    +1
000106: 26,2036           02223                           STORE    VONE
000107: 26,2037           40012                           VSL8     BOV
000108: 26,2040           54042                                    +2
000109: 26,2041           02223                           STORE    VONE
000110: 26,2042           53575                           VLOAD    UNIT
000111: 26,2043           02223                                    VONE
000112: 26,2044           01256                           STORE    POINTVSM                              #  STORE LOS FOR VECPOINT CALL
000113: 26,2045           77776                           EXIT
000114: 26,2046           41156                           CS       OPTION2                               #  1 FOR Z AXIS.  2 FOR X AXIS.
000115: 26,2047           65026                           AD       ONE
000116: 26,2050           00006                           EXTEND
000117: 26,2051           12075                           BZF      ALINEZ
000118: 26,2052           06014        ALINEX             TC       INTPRET                               #  X AXIS ALIGNMENT
000119: 26,2053           77775                           VLOAD
000120: 26,2054           06231                                    UNITX                                 #  READ (.5, 0, 0)
000121: 26,2055           35250        V89CALL1           STCALL   SCAXIS                                #  STORE SELECTED ALIGNMENT AXIS
000122: 26,2056           56000                                    VECPOINT                              #  PUTS DESIRED GIM ANG (OG,IG,MG) IN TMPAC
000123: 26,2057           01207                           STORE    CPHI                                  #  STORE GIMBAL ANGLES FOR BALLANGS CALL.
000124: 26,2060           77776                           EXIT
000125: 26,2061           02302                           TC       BALLANGS                              #  PUTS DESIRED BALL ANGLES IN FDAIX,Y,Z
000126: 26,2062           32102                           CAF      VB06N18                               #  V 06 N 18
000127: 26,2063           04655                           TC       BANKCALL                              #  NOUN 18 REFERS TO FDAIX,Y,Z
000128: 26,2064           20406                           CADR     GOFLASH
000129: 26,2065           05564                           TC       ENDEXT                                #  TERMINATE
000130: 26,2066           02070                           TC       +2                                    #  PROCEED
000131: 26,2067           02014                           TC       V89RECL                               #  RECYCLE
000132: 26,2070           05600                           TC       DOWNFLAG                              #  RESET 3 AXIS FLAG
000133: 26,2071           00124                           ADRES    3AXISFLG                              #  RESET BIT6 FLAG WORD 5
000134: 26,2072           04655                           TC       BANKCALL                              #  PERFORMS LEM MANEUVER TO ALIGN SELECTED
000135: 26,2073           54103                           CADR     R60LEM                                #  SPACECRAFT AXIS TO CSM.
000136: 26,2074           15564                           TCF      ENDEXT                                #  TERMINATE R63
000137:
000138: 26,2075           06014        ALINEZ             TC       INTPRET                               #  Z AXIS ALIGNMENT
000139: 26,2076           52175                           VLOAD    GOTO
000140: 26,2077           06225                                    UNITZ                                 #  READ (0, 0, .5)
000141: 26,2100           54055                                    V89CALL1
000142:
000143: 26,2101           01006        VB04N06*           VN       406
000144: 26,2102           01422        VB06N18            VN       0618
000145:

End of include-file R63.agc.  Parent file is MAIN.agc


