
Source Code


000002:                                                                                                  ## Copyright:   Public domain.
000003:                                                                                                  ## Filename:    RADAR_LEADIN_ROUTINES.agc
000004:                                                                                                  ## Purpose:     A section of an attempt to reconstruct Sundance revision 306
000005:                                                                                                  ##              as closely as possible with available information. Sundance
000006:                                                                                                  ##              306 is the source code for the Lunar Module's (LM) Apollo
000007:                                                                                                  ##              Guidance Computer (AGC) for Apollo 9. This program was created
000008:                                                                                                  ##              using the mixed-revision SundanceXXX as a starting point, and
000009:                                                                                                  ##              pulling back features from Luminary 69 believed to have been
000010:                                                                                                  ##              added based on memos, checklists, observed address changes,
000011:                                                                                                  ##              or the Sundance GSOPs.
000012:                                                                                                  ## Assembler:   yaYUL
000013:                                                                                                  ## Contact:     Ron Burkey <info@sandroid.org>.
000014:                                                                                                  ## Website:     www.ibiblio.org/apollo/index.html
000015:                                                                                                  ## Mod history: 2020-07-24 MAS  Created from SundanceXXX.
000016:
000017:
000018:
000019: 25,2000                                           BANK     25
000020: 25,2000                                           SETLOC   RRLEADIN
000021: 25,2000                                           BANK
000022:
000023: 25,2000  E4,1606                                  EBANK=   RSTACK
000024:
000025:                                                                                                  #  RADAR SAMPLING LOOP.
000026:
000027: 25,2000                                           COUNT*   $$/RLEAD
000028: 25,2000           11525        RADSAMP            CCS      RSAMPDT                               #  TIMES NORMAL ONCE-PER-SECOND SAMPLING.
000029: 25,2001           12003                           TCF      +2
000030: 25,2002           15331                           TCF      TASKOVER                              #  +0 INSERTED MANUALLY TERMINATES TEST.
000031:
000032: 25,2003           05252                           TC       WAITLIST
000033: 25,2004  E4,1606                                  EBANK=   RSTACK
000034: 25,2004           02000 52064                     2CADR    RADSAMP
000035:
000036: 25,2006           37665                           CAF      PRIO25
000037: 25,2007           05142                           TC       NOVAC
000038: 25,2010  E4,1606                                  EBANK=   RSTACK
000039: 25,2010           02020 52064                     2CADR    DORSAMP
000040:
000041: 25,2012           35011                           CAF      BIT14                                 #  FOR CYCLIC SAMPLING, RTSTDEX=
000042: 25,2013           00006                           EXTEND                                         #  RTSTLOC/2 + RTSTBASE
000043: 25,2014           71524                           MP       RTSTLOC
000044: 25,2015           61523                           AD       RTSTBASE                              #  0 FOR RR, 2 FOR LR.
000045: 25,2016           55521                           TS       RTSTDEX
000046: 25,2017           15331                           TCF      TASKOVER
000047:
000048:                                                                                                  #  DO THE ACTUAL RADAR SAMPLE.
000049:
000050: 25,2020           02040        DORSAMP            TC       VARADAR                               #  SELECTS VARIABLE RADAR CHANNEL.
000051: 25,2021           04655                           TC       BANKCALL
000052: 25,2022           17623                           CADR     RADSTALL
000053:
000054: 25,2023           25526                           INCR     RFAILCNT                              #  ADVANCE FAIL COUNTER BUT ACCEPT BAD DATA
000055:
000056: 25,2024           00004        DORSAMP2           INHINT
000057: 25,2025           53105                           DXCH     SAMPLSUM
000058: 25,2026           51524                           INDEX    RTSTLOC
000059: 25,2027           53607                           DXCH     RSTACK
000060:
000061: 25,2030           41524                           CS       RTSTLOC                               #  CYCLE RTSTLOC.
000062: 25,2031           61522                           AD       RTSTMAX
000063: 25,2032           00006                           EXTEND
000064:
000065: 25,2033           12036                           BZF      +3
000066: 25,2034           31524                           CA       RTSTLOC
000067: 25,2035           65025                           AD       TWO                                   #  STORAGE IS DP
000068: 25,2036           55524                           TS       RTSTLOC
000069: 25,2037           15225                           TCF      ENDOFJOB                              #  CONTINUOUS SAMPLING AND 2N TRIES - GONE.
000070:
000071:                                                                                                  #  VARIABLE RADAR DATA CALLER FOR ONE MEASUREMENT ONLY.
000072:
000073: 25,2040           35026        VARADAR            CAF      ONE                                   #  WILL BE SENT TO RADAR ROUTINE IN A BY
000074: 25,2041           54133                           TS       BUF2                                  #  SWCALL.
000075: 25,2042           51521                           INDEX    RTSTDEX
000076: 25,2043           32045                           CAF      RDRLOCS
000077: 25,2044           14661                           TCF      SWCALL                                #  NOT TOUCHING Q.
000078:
000079: 25,2045           53057        RDRLOCS            CADR     RRRANGE                               #  = 0
000080: 25,2046           53055                           CADR     RRRDOT                                #  = 1
000081: 25,2047           53053                           CADR     LRVELX                                #  = 2
000082: 25,2050           53051                           CADR     LRVELY                                #  = 3
000083: 25,2051           53047                           CADR     LRVELZ                                #  = 4
000084: 25,2052           53045                           CADR     LRALT                                 #  = 5
000085:
000086:

End of include-file RADAR_LEADIN_ROUTINES.agc.  Parent file is MAIN.agc


