
Source Code


000002:                                                                                                  ## Copyright:   Public domain.
000003:                                                                                                  ## Filename:    RESTARTS_ROUTINE.agc
000004:                                                                                                  ## Purpose:     A section of an attempt to reconstruct Sundance revision 306
000005:                                                                                                  ##              as closely as possible with available information. Sundance
000006:                                                                                                  ##              306 is the source code for the Lunar Module's (LM) Apollo
000007:                                                                                                  ##              Guidance Computer (AGC) for Apollo 9. This program was created
000008:                                                                                                  ##              using the mixed-revision SundanceXXX as a starting point, and
000009:                                                                                                  ##              pulling back features from Luminary 69 believed to have been
000010:                                                                                                  ##              added based on memos, checklists, observed address changes,
000011:                                                                                                  ##              or the Sundance GSOPs.
000012:                                                                                                  ## Assembler:   yaYUL
000013:                                                                                                  ## Contact:     Ron Burkey <info@sandroid.org>.
000014:                                                                                                  ## Website:     www.ibiblio.org/apollo/index.html
000015:                                                                                                  ## Mod history: 2020-07-24 MAS  Created from SundanceXXX.
000016:
000017:
000018:
000019: 01,3314                                           BANK     01
000020: 01,2000                                           SETLOC   RESTART
000021: 01,2000                                           BANK
000022:
000023: 01,3314  E3,1436                                  EBANK=   PHSNAME1                              #  GOPROG MUST SWITCH TO THIS EBANK
000024:
000025: 01,3314                                           COUNT*   $$/RSROU
000026: 01,3314           30161        RESTARTS           CA       MPAC       +5                         #  GET GROUP NUMBER -1
000027: 01,3315           60000                           DOUBLE                                         #  SAVE FOR INDEXING
000028: 01,3316           54155                           TS       TEMP2G
000029:
000030: 01,3317           33556                           CA       PHS2CADR                              #  SET UP EXIT IN CASE IT IS AN EVEN
000031: 01,3320           54157                           TS       TEMPSWCH                              #  TABLE PHASE
000032:
000033: 01,3321           33353                           CA       RTRNCADR                              #  TO SAVE TIME ASSUME IT WILL GET NEXT
000034: 01,3322           54707                           TS       GOLOC      +2                         #  GROUP AFTER THIS
000035:
000036: 01,3323           30154                           CA       TEMPPHS
000037: 01,3324           75057                           MASK     OCT1400
000038: 01,3325           10000                           CCS      A                                     #  IS IT A VARIABLE OR TABLE RESTART
000039: 01,3326           13337                           TCF      ITSAVAR                               #  IT:S A VARIABLE RESTART
000040:
000041: 01,3327           10154        GETPART2           CCS      TEMPPHS                               #  IS IT AN X.1 RESTART
000042: 01,3330           10000                           CCS      A
000043: 01,3331           13437                           TCF      ITSATBL                               #  NO, ITS A TABLE RESTART
000044:
000045: 01,3332           35074                           CA       PRIO14                                #  IT IS AN X.1 RESTART, THEREFORE START
000046: 01,3333           05155                           TC       FINDVAC                               #  THE DISPLAY RESTART JOB
000047: 01,3334  E3,1400                                  EBANK=   LST1
000048: 01,3334           02735 20103                     2CADR    INITDSP
000049:
000050: 01,3336           03353                           TC       RTRNCADR                              #  FINISHED WITH THIS GROUP, GET NEXT ONE
000051:
000052: 01,3337           75057        ITSAVAR            MASK     OCT1400                               #  IS IT TYPE B ?
000053: 01,3340           10000                           CCS      A
000054: 01,3341           13410                           TCF      ITSLIKEB                              #  YES, IT IS TYPE B
000055:
000056: 01,3342           00006                           EXTEND                                         #  STORE THE JOB (OR TASK) 2CADR FOR EXIT
000057: 01,3343           50155                           NDX      TEMP2G
000058: 01,3344           31437                           DCA      PHSNAME1
000059: 01,3345           52706                           DXCH     GOLOC
000060:
000061: 01,3346           30154                           CA       TEMPPHS                               #  SEE IF THIS IS A JOB, TASK, OR A LONGCAL
000062: 01,3347           75032                           MASK     OCT7
000063: 01,3350           67720                           AD       MINUS2
000064: 01,3351           10000                           CCS      A
000065: 01,3352           13522                           TCF      ITSLNGCL                              #  ITS A LONGCALL
000066:
000067: 01,3353           04670        RTRNCADR           TC       SWRETURN                              #  CANT GET HERE
000068: 01,3354           13356                           TCF      ITSAWAIT
000069:
000070: 01,3355           13423                           TCF      ITSAJOB                               #  ITS A JOB
000071:
000072: 01,3356           33562        ITSAWAIT           CA       WTLTCADR                              #  SET UP WAITLIST CALL
000073: 01,3357           54704                           TS       GOLOC      -1
000074:
000075: 01,3360           50155                           NDX      TEMP2G                                #  DIRECTLY STORED
000076: 01,3361           31055                           CA       PHSPRDT1
000077: 01,3362           10000        TIMETEST           CCS      A                                     #  IS IT AN IMMEDIATE RESTART
000078: 01,3363           24000                           INCR     A                                     #  NO,
000079: 01,3364           13367                           TCF      FINDTIME                              #  FIND OUT WHEN IT SHOULD BEGIN
000080:
000081: 01,3365           15535                           TCF      ITSINDIR                              #  STORED INDIRECTLY
000082:
000083: 01,3366           13406                           TCF      IMEDIATE                              #  IT WANTS AN IMMEDIATE RESTART
000084:
000085:                                                                                                  #  ***** THIS MUST BE IN FIXED FIXED *****
000086:
000087:    5535                                           BLOCK    02
000088:    4000                                           SETLOC   FFTAG2
000089:    4000                                           BANK
000090:
000091:    5535                                           COUNT*   $$/RSROU
000092:    5535           22706        ITSINDIR           LXCH     GOLOC      +1                         #  GET THE CORRECT E BANK IN CASE THIS IS
000093:    5536           22006                           LXCH     BB                                    #  SWITCHED ERRASIBLE
000094:
000095:    5537           50000                           NDX      A                                     #  GET THE TIME INDIRECTLY
000096:    5540           30001                           CA       1
000097:
000098:    5541           22006                           LXCH     BB                                    #  RESTORE THE BB AND GOLOC
000099:    5542           22706                           LXCH     GOLOC      +1
000100:
000101:    5543           13367                           TCF      FINDTIME                              #  FIND OUT WHEN IT SHOULD BEGIN
000102:
000103:                                                                                                  #  ***** YOU MAY RETURN TO SWITCHED FIXED *****
000104:
000105: 01,3367                                           BANK     01
000106: 01,2000                                           SETLOC   RESTART
000107: 01,2000                                           BANK
000108:
000109: 01,3367                                           COUNT*   $$/RSROU
000110: 01,3367           40000        FINDTIME           COM                                            #  MAKE NEGITIVE SINCE IT WILL BE SUBTRACTD
000111: 01,3370           54001                           TS       L                                     #  AND SAVE
000112: 01,3371           50155                           NDX      TEMP2G
000113: 01,3372           41054                           CS       TBASE1
000114: 01,3373           00006                           EXTEND
000115: 01,3374           60025                           SU       TIME1
000116: 01,3375           10000                           CCS      A
000117: 01,3376           40000                           COM
000118: 01,3377           67703                           AD       OCT37776
000119: 01,3400           65026                           AD       ONE
000120: 01,3401           60001                           AD       L
000121: 01,3402           10000                           CCS      A
000122: 01,3403           35030                           CA       ZERO
000123: 01,3404           13406                           TCF      +2
000124: 01,3405           13406                           TCF      +1
000125: 01,3406           65026        IMEDIATE           AD       ONE
000126: 01,3407           00704                           TC       GOLOC      -1
000127: 01,3410           33353        ITSLIKEB           CA       RTRNCADR                              #  TYPE B,             SO STORE RETURN IN
000128: 01,3411           54157                           TS       TEMPSWCH                              #  TEMPSWCH IN CASE OF AN EVEN PHASE
000129:
000130: 01,3412           33557                           CA       PRT2CADR                              #  SET UP EXIT TO GET TABLE PART OF THIS
000131: 01,3413           54707                           TS       GOLOC      +2                         #  VARIABLE TYPE OF PHASE
000132:
000133: 01,3414           30154                           CA       TEMPPHS                               #  MAKE THE PHASE LOOK RIGHT FOR THE TABLE
000134: 01,3415           76050                           MASK     OCT177                                #  PART OF THIS VARIABLE PHASE
000135: 01,3416           54154                           TS       TEMPPHS
000136:
000137: 01,3417           00006                           EXTEND
000138: 01,3420           50155                           NDX      TEMP2G                                #  OBTAIN THE JOB:S 2CADR
000139: 01,3421           31437                           DCA      PHSNAME1
000140: 01,3422           52706                           DXCH     GOLOC
000141:
000142: 01,3423           50155        ITSAJOB            NDX      TEMP2G                                #  NOW ADD THE PRIORITY AND LET:S GO
000143: 01,3424           31055                           CA       PHSPRDT1
000144: 01,3425           54704        CHKNOVAC           TS       GOLOC      -1                         #  SAVE PRIO UNTIL WE SEE IF ITS
000145: 01,3426           00006                           EXTEND                                         #  A FINDVAC OR A NOVAC
000146: 01,3427           63433                           BZMF     ITSNOVAC
000147:
000148: 01,3430           33561                           CAF      FVACCADR                              #  POSITIVE, SET UP FINDVAC CALL.
000149: 01,3431           56704                           XCH      GOLOC      -1                         #  PICK UP PRIO,
000150: 01,3432           00704                           TC       GOLOC      -1                         #  AND GO
000151:
000152: 01,3433           33563        ITSNOVAC           CAF      NOVACADR                              #  NEGATIVE,
000153: 01,3434           56704                           XCH      GOLOC      -1                         #  SET UP NOVAC CALL,
000154: 01,3435           40000                           COM                                            #  CORRECT PRIO,
000155: 01,3436           00704                           TC       GOLOC      -1                         #  AND GO
000156:
000157: 01,3437           54020        ITSATBL            TS       CYR                                   #  FIND OUT IF THE PHASE IS ODD OR EVEN
000158: 01,3440           10020                           CCS      CYR
000159: 01,3441           13442                           TCF      +1                                    #  IT:S EVEN
000160: 01,3442           13540                           TCF      ITSEVEN
000161:
000162: 01,3443           33353                           CA       RTRNCADR                              #  IN CASE THIS IS THE SECOND PART OF A
000163: 01,3444           54707                           TS       GOLOC      +2                         #  TYPE B RESTART, WE NEED PROPER EXIT
000164:
000165: 01,3445           30154                           CA       TEMPPHS                               #  SET UP POINTER FOR FINDING OUR PLACE IN
000166: 01,3446           54021                           TS       SR                                    #  THE RESTART TABLES
000167: 01,3447           60021                           AD       SR
000168: 01,3450           50155                           NDX      TEMP2G
000169: 01,3451           62001                           AD       SIZETAB    +1
000170: 01,3452           54156                           TS       POINTER
000171:
000172: 01,3453           00006        CONTBL2            EXTEND                                         #  FIND OUT WHAT:S IN THE TABLE
000173: 01,3454           50156                           NDX      POINTER
000174: 01,3455           32002                           DCA      CADRTAB                               #  GET THE 2CADR
000175:
000176: 01,3456           22706                           LXCH     GOLOC      +1                         #  STORE THE BB INFORMATION
000177:
000178: 01,3457           10000                           CCS      A                                     #  IS IT A JOB OR IS IT  TIMED
000179: 01,3460           24000                           INCR     A                                     #  POSITIVE, MUST BE A JOB
000180: 01,3461           13534                           TCF      ITSAJOB2
000181:
000182: 01,3462           24000                           INCR     A                                     #  MUST BE EITHER A WAITLIST OR LONGCALL
000183: 01,3463           54705                           TS       GOLOC                                 #  LET-S STORE THE CORRECT CADR
000184:
000185: 01,3464           33562                           CA       WTLTCADR                              #  SET UP OUR EXIT TO WAITLIST
000186: 01,3465           54704                           TS       GOLOC      -1
000187:
000188: 01,3466           30706                           CA       GOLOC      +1                         #  NOW FIND OUT IF IT IS A WAITLIST CALL
000189: 01,3467           75015                           MASK     BIT10                                 #  THIS SHOULD BE ONE IF WE HAVE -BB
000190: 01,3470           10000                           CCS      A                                     #  FOR THAT MATTER SO SHOULD BE BITS 9,8,7,
000191:                                                                                                  #  6,5, AND LAST BUT NOT LEAST (PERHAPS NOT
000192:                                                                                                  #  IN IMPORTANCE ANYWAY.  BIT 4
000193: 01,3471           13527                           TCF      ITSWTLST                              #  IT IS A WAITLIST CALL
000194:
000195: 01,3472           50156                           NDX      POINTER                               #  OBTAIN THE ORIGINAL DELTA T
000196: 01,3473           32000                           CA       PRDTTAB                               #  ADDRESS FOR THIS LONGCALL
000197:
000198: 01,3474           15544                           TCF      ITSLGCL1                              #  NOW GO GET THE DELTA TIME
000199:
000200:                                                                                                  #  ***** THIS MUST BE IN FIXED FIXED *****
000201:
000202:    5544                                           BLOCK    02
000203:    4000                                           SETLOC   FFTAG2
000204:    4000                                           BANK
000205:
000206:    5544                                           COUNT*   $$/RSROU
000207:    5544           22706        ITSLGCL1           LXCH     GOLOC      +1                         #  OBTAIN THE CORRECT E BANK
000208:    5545           22006                           LXCH     BB
000209:    5546           22706                           LXCH     GOLOC      +1                         #  AND PRESERVE OUR E AND F BANKS
000210:
000211:    5547           00006                           EXTEND                                         #  GET THE DELTA TIME
000212:    5550           50000                           NDX      A
000213:    5551           30001                           DCA      0
000214:
000215:    5552           22706                           LXCH     GOLOC      +1                         #  RESTORE OUR E AND F BANK
000216:    5553           22006                           LXCH     BB                                    #  RESTORE THE TASKS E AND F BANKS
000217:    5554           22706                           LXCH     GOLOC      +1                         #  AND PRESERVE OUR L
000218:    5555           13475                           TCF      ITSLGCL2                              #  NOW LET:S PROCESS THIS LONGCALL
000219:
000220:                                                                                                  #  ***** YOU MAY RETURN TO SWITCHED FIXED *****
000221:
000222: 01,3475                                           BANK     01
000223: 01,2000                                           SETLOC   RESTART
000224: 01,2000                                           BANK
000225:
000226: 01,3475                                           COUNT*   $$/RSROU
000227: 01,3475           53165        ITSLGCL2           DXCH     LONGTIME
000228:
000229: 01,3476           00006                           EXTEND                                         #  CALCULATE TIME LEFT
000230: 01,3477           40025                           DCS      TIME2
000231: 01,3500           21165                           DAS      LONGTIME
000232: 01,3501           00006                           EXTEND
000233: 01,3502           31163                           DCA      LONGBASE
000234: 01,3503           21165                           DAS      LONGTIME
000235:
000236: 01,3504           11164                           CCS      LONGTIME                              #  FIND OUT HOW THIS SHOULD BE RESTARTED
000237: 01,3505           13515                           TCF      LONGCLCL
000238: 01,3506           13510                           TCF      +2
000239: 01,3507           13403                           TCF      IMEDIATE   -3
000240: 01,3510           11165                           CCS      LONGTIME   +1
000241: 01,3511           13515                           TCF      LONGCLCL
000242: 01,3512           13513                           NOOP                                           #  CAN:T GET HERE *********
000243: 01,3513           13403                           TCF      IMEDIATE   -3
000244: 01,3514           13406                           TCF      IMEDIATE
000245:
000246: 01,3515           33560        LONGCLCL           CA       LGCLCADR                              #  WE WILL GO TO LONGCALL
000247: 01,3516           54704                           TS       GOLOC      -1
000248:
000249: 01,3517           00006                           EXTEND                                         #  PREPARE OUR ENTRY TO LONGCALL
000250: 01,3520           31165                           DCA      LONGTIME
000251: 01,3521           00704                           TC       GOLOC      -1
000252:
000253: 01,3522           33562        ITSLNGCL           CA       WTLTCADR                              #  ASSUME IT WILL GO TO WAITLIST
000254: 01,3523           54704                           TS       GOLOC      -1
000255:
000256: 01,3524           50155                           NDX      TEMP2G
000257: 01,3525           41055                           CS       PHSPRDT1                              #  GET THE DELTA T ADDRESS
000258:
000259: 01,3526           15544                           TCF      ITSLGCL1                              #  NOW GET THE DELTA TIME
000260:
000261: 01,3527           40706        ITSWTLST           CS       GOLOC      +1                         #  CORRECT THE BBCON INFORMATION
000262: 01,3530           54706                           TS       GOLOC      +1
000263:
000264: 01,3531           50156                           NDX      POINTER                               #  GET THE DT AND FIND OUT IF IT WAS STORED
000265: 01,3532           32000                           CA       PRDTTAB                               #  DIRECTLY OR INDIRECTLY
000266:
000267: 01,3533           13362                           TCF      TIMETEST                              #  FIND OUT HOW THE TIME IS STORED
000268:
000269: 01,3534           56705        ITSAJOB2           XCH      GOLOC                                 #  STORE THE CADR
000270:
000271: 01,3535           50156                           NDX      POINTER                               #  ADD THE PRIORITY AND LET:S GO
000272: 01,3536           32000                           CA       PRDTTAB
000273:
000274: 01,3537           13425                           TCF      CHKNOVAC
000275:
000276: 01,3540           30157        ITSEVEN            CA       TEMPSWCH                              #  SET UP FOR EITHER THE SECOND PART OF THE
000277: 01,3541           54707                           TS       GOLOC      +2                         #  TABLE, OR A RETURN FOR THE NEXT GROUP
000278:
000279: 01,3542           50155                           NDX      TEMP2G                                #  SET UP POINTER FOR OUR LOCATION WITHIN
000280: 01,3543           32000                           CA       SIZETAB                               #  THE TABLE
000281: 01,3544           60154                           AD       TEMPPHS                               #  THIS MAY LOOK BAD BUT LET:S SEE YOU DO
000282: 01,3545           60154                           AD       TEMPPHS                               #  BETTER IN TIME OR NUMBERR OF LOCATIONS
000283: 01,3546           60154                           AD       TEMPPHS
000284: 01,3547           54156                           TS       POINTER
000285:
000286: 01,3550           13453                           TCF      CONTBL2                               #  NOW PROCESS WHAT IS IN THE TABLE
000287:
000288: 01,3551           36221        PHSPART2           CA       THREE                                 #  SET THE POINTER FOR THE SECOND HALF OF
000289: 01,3552           26156                           ADS      POINTER                               #  THE TABLE
000290:
000291: 01,3553           33353                           CA       RTRNCADR                              #  THIS WILL BE OUR LAST TIME THROUGH THE
000292: 01,3554           54707                           TS       GOLOC      +2                         #  EVEN TABLE, SO AFTER IT GET THE NEXT
000293:                                                                                                  #  GROUP
000294: 01,3555           13453                           TCF      CONTBL2                               #  SO LET:S GET THE SECOND ENTRY IN THE TBL
000295:
000296: 01,3556     0154               TEMPPHS            EQUALS   MPAC
000297: 01,3556     0155               TEMP2G             EQUALS   MPAC       +1
000298: 01,3556     0156               POINTER            EQUALS   MPAC       +2
000299: 01,3556     0157               TEMPSWCH           EQUALS   MPAC       +3
000300: 01,3556     0705               GOLOC              EQUALS   VAC5       +20D
000301: 01,3556     7720               MINUS2             EQUALS   NEG2
000302: 01,3556     6050               OCT177             EQUALS   LOW7
000303:
000304: 01,3556           03551        PHS2CADR           GENADR   PHSPART2
000305: 01,3557           03327        PRT2CADR           GENADR   GETPART2
000306: 01,3560           05347        LGCLCADR           GENADR   LONGCALL
000307: 01,3561           05155        FVACCADR           GENADR   FINDVAC
000308: 01,3562           05252        WTLTCADR           GENADR   WAITLIST
000309: 01,3563           05142        NOVACADR           GENADR   NOVAC
000310:
000311:

End of include-file RESTARTS_ROUTINE.agc.  Parent file is MAIN.agc


