
Source Code


000002:                                                                                                  ## Copyright:   Public domain.
000003:                                                                                                  ## Filename:    RTB_OP_CODES.agc
000004:                                                                                                  ## Purpose:     A section of an attempt to reconstruct Sundance revision 306
000005:                                                                                                  ##              as closely as possible with available information. Sundance
000006:                                                                                                  ##              306 is the source code for the Lunar Module's (LM) Apollo
000007:                                                                                                  ##              Guidance Computer (AGC) for Apollo 9. This program was created
000008:                                                                                                  ##              using the mixed-revision SundanceXXX as a starting point, and
000009:                                                                                                  ##              pulling back features from Luminary 69 believed to have been
000010:                                                                                                  ##              added based on memos, checklists, observed address changes,
000011:                                                                                                  ##              or the Sundance GSOPs.
000012:                                                                                                  ## Assembler:   yaYUL
000013:                                                                                                  ## Contact:     Ron Burkey <info@sandroid.org>.
000014:                                                                                                  ## Website:     www.ibiblio.org/apollo/index.html
000015:                                                                                                  ## Mod history: 2020-07-24 MAS  Created from SundanceXXX.
000016:
000017:
000018:
000019: 22,3644                                           BANK     22
000020: 10,2000                                           SETLOC   RTBCODES
000021: 10,2000                                           BANK
000022:
000023: 10,3454  E5,1664                                  EBANK=   XNB
000024: 10,3454                                           COUNT*   $$/RTB
000025:
000026:                                                                                                  #  LOAD TIME2, TIME1 INTO MPAC:
000027:
000028: 10,3454           00006        LOADTIME           EXTEND
000029: 10,3455           30025                           DCA      TIME2
000030: 10,3456           16031                           TCF      SLOAD2
000031:
000032:                                                                                                  #  CONVERT THE SINGLE PRECISION 2'S COMPLEMENT NUMBER ARRIVING IN MPAC (SCALED IN HALF-REVOLUTIONS) TO A
000033:                                                                                                  #  DP 1'S COMPLEMENT NUMBER SCALED IN REVOLUTIONS.
000034:
000035: 10,3457           10154        CDULOGIC           CCS      MPAC
000036: 10,3460           35030                           CAF      ZERO
000037: 10,3461           13464                           TCF      +3
000038: 10,3462           13463                           NOOP
000039: 10,3463           45011                           CS       HALF
000040:
000041: 10,3464           54155                           TS       MPAC       +1
000042: 10,3465           35030                           CAF      ZERO
000043: 10,3466           56154                           XCH      MPAC
000044: 10,3467           00006                           EXTEND
000045: 10,3470           75011                           MP       HALF
000046: 10,3471           20155                           DAS      MPAC
000047: 10,3472           16035                           TCF      DANZIG                                #  MODE IS ALREADY AT DOUBLE-PRECISION
000048:
000049:                                                                                                  #  READ THE PIPS INTO MPAC WITHOUT CHANGING THEM:
000050:
000051: 10,3473           00004        READPIPS           INHINT
000052: 10,3474           30037                           CA       PIPAX
000053: 10,3475           54154                           TS       MPAC
000054: 10,3476           30040                           CA       PIPAY
000055: 10,3477           54157                           TS       MPAC       +3
000056: 10,3500           30041                           CA       PIPAZ
000057: 10,3501           00003                           RELINT
000058: 10,3502           54161                           TS       MPAC       +5
000059:
000060: 10,3503           35030                           CAF      ZERO
000061: 10,3504           54155                           TS       MPAC       +1
000062: 10,3505           54160                           TS       MPAC       +4
000063: 10,3506           54162                           TS       MPAC       +6
000064:
000065: 10,3507           16475        VECMODE            TCF      VMODE
000066:
000067:                                                                                                  #  FORCE TP SIGN AGREEMENT IN MPAC:
000068:
000069: 10,3510           07231        SGNAGREE           TC       TPAGREE
000070: 10,3511           16035                           TCF      DANZIG
000071:
000072:                                                                                                  #  CONVERT THE DP 1'S COMPLEMENT ANGLE SCALED IN REVOLUTIONS TO A SINGLE PRECISION 2'S COMPLEMENT ANGLE
000073:                                                                                                  #  SCALED IN HALF-REVOLUTIONS.
000074:
000075: 10,3512           03542        1STO2S             TC       1TO2SUB
000076: 10,3513           35030                           CAF      ZERO
000077: 10,3514           54155                           TS       MPAC       +1
000078: 10,3515           16034                           TCF      NEWMODE
000079:
000080:                                                                                                  #  DO 1STO2S ON A VECTOR OF ANGLES:
000081:
000082: 10,3516           03542        V1STO2S            TC       1TO2SUB                               #  ANSWER ARRIVES IN A AND MPAC.
000083:
000084: 10,3517           52162                           DXCH     MPAC       +5
000085: 10,3520           52155                           DXCH     MPAC
000086: 10,3521           03542                           TC       1TO2SUB
000087: 10,3522           54156                           TS       MPAC       +2
000088:
000089: 10,3523           52160                           DXCH     MPAC       +3
000090: 10,3524           52155                           DXCH     MPAC
000091: 10,3525           03542                           TC       1TO2SUB
000092: 10,3526           54155                           TS       MPAC       +1
000093:
000094: 10,3527           30161                           CA       MPAC       +5
000095: 10,3530           54154                           TS       MPAC
000096:
000097: 10,3531           35026        TPMODE             CAF      ONE                                   #  MODE IS TP.
000098: 10,3532           16034                           TCF      NEWMODE
000099:
000100:                                                                                                  #  V1STO2S FOR 2 COMPONENT VECTOR. USED BY RR.
000101:
000102: 10,3533           03542        2V1STO2S           TC       1TO2SUB
000103: 10,3534           52160                           DXCH     MPAC       +3
000104: 10,3535           52155                           DXCH     MPAC
000105: 10,3536           03542                           TC       1TO2SUB
000106: 10,3537           54001                           TS       L
000107: 10,3540           30157                           CA       MPAC       +3
000108: 10,3541           16031                           TCF      SLOAD2
000109:
000110:                                                                                                  #  SUBROUTINE TO DO DOUBLING AND 1'S TO 2'S CONVERSION:
000111:
000112: 10,3542           52155        1TO2SUB            DXCH     MPAC                                  #  FINAL MPAC +1 UNSPECIFIED.
000113: 10,3543           20001                           DDOUBL
000114: 10,3544           10000                           CCS      A
000115: 10,3545           65026                           AD       ONE
000116: 10,3546           13550                           TCF      +2
000117: 10,3547           40000                           COM                                            #  THIS WAS REVERSE OF MSU.
000118:
000119: 10,3550           54154                           TS       MPAC                                  #  AND SKIP ON OVERFLOW.
000120: 10,3551           00002                           TC       Q
000121:
000122: 10,3552           50000                           INDEX    A                                     #  OVERFLOW UNCORRECT AND IN MSU.
000123: 10,3553           35007                           CAF      LIMITS
000124: 10,3554           26154                           ADS      MPAC
000125: 10,3555           00002                           TC       Q
000126:                                                                                                  #  SUBROUTINE TO INCREMENT CDUS
000127: 10,3556           33571        INCRCDUS           CAF      LOCTHETA
000128: 10,3557           54130                           TS       BUF                                   #  PLACE ADRES(THETA) IN BUF.
000129: 10,3560           30154                           CAE      MPAC                                  #  INCREMENT IN 1S COMPL.
000130: 10,3561           03572                           TC       CDUINC
000131:
000132: 10,3562           24130                           INCR     BUF
000133: 10,3563           30157                           CAE      MPAC       +3
000134: 10,3564           03572                           TC       CDUINC
000135:
000136: 10,3565           24130                           INCR     BUF
000137: 10,3566           30161                           CAE      MPAC       +5
000138: 10,3567           03572                           TC       CDUINC
000139:
000140: 10,3570           13507                           TCF      VECMODE
000141:
000142: 10,3571           01206        LOCTHETA           ADRES    THETAD
000143:
000144:                                                                                                  #  THE FOLLOWING ROUTINE INCREMENTS IN 2S COMPLEMENT THE REGISTER WHOSE ADDRESS IS IN BUF BY THE 1S COMPL.
000145:                                                                                                  #  QUANTITY FOUND IN TEM2.  THIS MAY BE USED TO INCREMENT DESIRED IMU AND OPTICS CDU ANGLES OR ANY OTHER 2S COMPL.
000146:                                                                                                  #  (+0 UNEQUAL TO -0) QUANTITY.  MAY BE CALLED BY BANKCALL/SWCALL.
000147:
000148: 10,3572           54142        CDUINC             TS       TEM2                                  #  1S COMPL.QUANT. ARRIVES IN ACC.  STORE IT
000149: 10,3573           50130                           INDEX    BUF
000150: 10,3574           10000                           CCS      0                                     #  CHANGE 2S COMPL. ANGLE(IN BUF)INTO 1S
000151: 10,3575           65026                           AD       ONE
000152: 10,3576           13602                           TCF      +4
000153: 10,3577           65026                           AD       ONE
000154: 10,3600           65026                           AD       ONE                                   #  OVERFLOW HERE IF 2S COMPL. IS 180 DEG.
000155: 10,3601           40000                           COM
000156:
000157: 10,3602           60142                           AD       TEM2                                  #  SULT MOVES FROM 2ND TO 3D QUAD.(OR BACK)
000158: 10,3603           10000                           CCS      A                                     #  BACK TO 2S COMPL.
000159: 10,3604           65026                           AD       ONE
000160: 10,3605           13607                           TCF      +2
000161: 10,3606           40000                           COM
000162: 10,3607           54142                           TS       TEM2                                  #  STORE 14BIT QUANTITY WITH PRESENT SIGN
000163: 10,3610           13614                           TCF      +4
000164: 10,3611           50000                           INDEX    A                                     #   SIGN.
000165: 10,3612           35007                           CAF      LIMITS                                #  FIX IT, BY ADDING IN 37777 OR 40000
000166: 10,3613           60142                           AD       TEM2
000167:
000168: 10,3614           50130                           INDEX    BUF
000169: 10,3615           54000                           TS       0                                     #  STORE NEW ANGLE IN 2S COMPLEMENT.
000170: 10,3616           00002                           TC       Q
000171:
000172:                                                                                                  #  RTB TO TORQUE GYROS, EXCEPT FOR THE CALL TO IMUSTALL. ECADR OF COMMANDS ARRIVES IN X1.
000173:
000174: 10,3617           50120        PULSEIMU           INDEX    FIXLOC                                #  ADDRESS OF GYRO COMMANDS SHOULD BE IN X1
000175: 10,3620           30046                           CA       X1
000176: 10,3621           04655                           TC       BANKCALL
000177: 10,3622           17234                           CADR     IMUPULSE
000178: 10,3623           16035                           TCF      DANZIG
000179:
000180:                                                                                                  #  EACH ROUTINE TAKES A 3X3 MATRIX STORED IN DOUBLE PRECISION IN A FIXED AREA OF ERASABLE MEMORY AND REPLACES IT
000181:                                                                                                  #  WITH THE TRANSPOSE MATRIX. TRANSP1 USES LOCATIONS XNB+0,+1 THROUGH XNB+16D, 17D AND TRANSP2 USES LOCATIONS
000182:                                                                                                  #  XNB1+0,+1 THROUGH XNB1+16D, 17D. EACH MATRIX IS STORED BY ROWS.
000183:
000184: 10,3624           02664        XNBEB              ECADR    XNB
000185: 10,3625           03456        XNB1EB             ECADR    XNB1
000186:
000187: 10,3626  E5,1664                                  EBANK=   XNB
000188:
000189: 10,3626           33624        TRANSP1            CAF      XNBEB
000190: 10,3627           54003                           TS       EBANK
000191: 10,3630           53667                           DXCH     XNB        +2
000192: 10,3631           53673                           DXCH     XNB        +6
000193: 10,3632           53667                           DXCH     XNB        +2
000194:
000195: 10,3633           53671                           DXCH     XNB        +4
000196: 10,3634           53701                           DXCH     XNB        +12D
000197: 10,3635           53671                           DXCH     XNB        +4
000198:
000199: 10,3636           53677                           DXCH     XNB        +10D
000200: 10,3637           53703                           DXCH     XNB        +14D
000201: 10,3640           53677                           DXCH     XNB        +10D
000202: 10,3641           16035                           TCF      DANZIG
000203:
000204: 10,3642  E7,1456                                  EBANK=   XNB1
000205:
000206: 10,3642           33625        TRANSP2            CAF      XNB1EB
000207: 10,3643           54003                           TS       EBANK
000208: 10,3644           53461                           DXCH     XNB1       +2
000209: 10,3645           53465                           DXCH     XNB1       +6
000210: 10,3646           53461                           DXCH     XNB1       +2
000211:
000212: 10,3647           53463                           DXCH     XNB1       +4
000213: 10,3650           53473                           DXCH     XNB1       +12D
000214: 10,3651           53463                           DXCH     XNB1       +4
000215:
000216: 10,3652           53471                           DXCH     XNB1       +10D
000217: 10,3653           53475                           DXCH     XNB1       +14D
000218: 10,3654           53471                           DXCH     XNB1       +10D
000219: 10,3655           16035                           TCF      DANZIG
000220:
000221:                                                                                                  #  THE SUBROUTINE SIGNMPAC SETS C(MPAC, MPAC +1) TO SIGN(MPAC).
000222:                                                                                                  #  FOR THIS, ONLY THE CONTENTS OF MPAC ARE EXAMINED.  ALSO +0 YIELDS POSMAX AND -0 YIELDS NEGMAX.
000223:
000224:                                                                                                  #  ENTRY MAY BE BY EITHER OF THE FOLLOWING:
000225:                                                                                                  #        1.      LIMIT THE SIZE OF MPAC ON INTERPRETIVE OVERFLOW:
000226:                                                                                                  #                ENTRY:          BOVB
000227:                                                                                                  #                                        SIGNMPAC
000228:                                                                                                  #        2.      GENERATE IN MPAC THE SIGNUM FUNCTION OF MPAC:
000229:                                                                                                  #                ENTRY:          RTB
000230:                                                                                                  #                                        SIGNMPAC
000231:                                                                                                  #  IN EITHER CASE, RETURN IS TO THE NEXT INTERPRETIVE INSTRUCTION IN THE CALLING SEQUENCE.
000232:
000233: 10,3656           00006        SIGNMPAC           EXTEND
000234: 10,3657           35006                           DCA      DPOSMAX
000235: 10,3660           52155                           DXCH     MPAC
000236: 10,3661           10000                           CCS      A
000237: 10,3662           35030        DPMODE             CAF      ZERO                                  #  SETS MPAC +2 TO ZERO IN THE PROCESS
000238: 10,3663           16033                           TCF      SLOAD2     +2
000239: 10,3664           13665                           TCF      +1
000240: 10,3665           00006                           EXTEND
000241: 10,3666           45006                           DCS      DPOSMAX
000242: 10,3667           16031                           TCF      SLOAD2
000243:
000244:                                                                                                  #  RTB OP CODE NORMUNIT IS LIKE INTERPRETIVE INSTRUCTION UNIT, EXCEPT THAT IT CAN BE DEPENDED ON NOT TO BLOW
000245:                                                                                                  #  UP WHEN THE VECTOR BEING UNITIZED IS VERY SMALL -- IT WILL BLOW UP WHEN ALL COMPONENTS ARE ZERO.  IF NORMUNIT
000246:                                                                                                  #  IS USED AND THE UPPER ORDER HALVES OF ALL COMPONENTS ARE ZERO, THE MAGNITUDE RETURNED IN 36D WILL BE TOO LARGE
000247:                                                                                                  #  BY A FACTOR OF 2(13) AND THE SQUARED MAGNITUDE RETURNED AT 34D WILL BE TOO BIG BY A FACTOR OF 2(26).
000248:
000249: 10,3670           35026        NORMUNX1           CAF      ONE
000250: 10,3671           13673                           TCF      NORMUNIT   +1
000251: 10,3672           35030        NORMUNIT           CAF      ZERO
000252: 10,3673           60120                           AD       FIXLOC
000253: 10,3674           54156                           TS       MPAC       +2
000254: 10,3675           04655                           TC       BANKCALL                              #  GET SIGN AGREEMENT IN ALL COMPONENTS
000255: 10,3676           01010                           CADR     VECAGREE
000256: 10,3677           10154                           CCS      MPAC
000257: 10,3700           13734                           TCF      NOSHIFT
000258: 10,3701           13703                           TCF      +2
000259: 10,3702           13734                           TCF      NOSHIFT
000260: 10,3703           10157                           CCS      MPAC       +3
000261: 10,3704           13734                           TCF      NOSHIFT
000262: 10,3705           13707                           TCF      +2
000263: 10,3706           13734                           TCF      NOSHIFT
000264: 10,3707           10161                           CCS      MPAC       +5
000265: 10,3710           13734                           TCF      NOSHIFT
000266: 10,3711           13713                           TCF      +2
000267: 10,3712           13734                           TCF      NOSHIFT
000268: 10,3713           30155                           CA       MPAC       +1                         #  SHIFT ALL COMPONENTS LEFT 13
000269: 10,3714           00006                           EXTEND
000270: 10,3715           75011                           MP       BIT14
000271: 10,3716           20155                           DAS      MPAC                                  #  DAS GAINS A LITTLE ACCURACY
000272: 10,3717           30160                           CA       MPAC       +4
000273: 10,3720           00006                           EXTEND
000274: 10,3721           75011                           MP       BIT14
000275: 10,3722           20160                           DAS      MPAC       +3
000276: 10,3723           30162                           CA       MPAC       +6
000277: 10,3724           00006                           EXTEND
000278: 10,3725           75011                           MP       BIT14
000279: 10,3726           20162                           DAS      MPAC       +5
000280: 10,3727           35034                           CAF      THIRTEEN
000281: 10,3730           50156                           INDEX    MPAC       +2
000282: 10,3731           54045                           TS       37D
000283: 10,3732           04674        OFFTUNIT           TC       POSTJUMP
000284: 10,3733           01024                           CADR     UNIT       +1                         #  SKIP THE "TC VECAGREE" DONE AT UNIT
000285:
000286: 10,3734           35030        NOSHIFT            CAF      ZERO
000287: 10,3735           13730                           TCF      OFFTUNIT   -2
000288:
000289:                                                                                                  #  RTB VECSGNAG ... FORCES SIGN AGREEMENT OF VECTOR IN MPAC.
000290:
000291: 10,3736           04655        VECSGNAG           TC       BANKCALL
000292: 10,3737           01010                           CADR     VECAGREE
000293: 10,3740           06035                           TC       DANZIG

End of include-file RTB_OP_CODES.agc.  Parent file is MAIN.agc


