
Source Code


000002:                                                                                                  ## Copyright:   Public domain.
000003:                                                                                                  ## Filename:    SERVICE_ROUTINES.agc
000004:                                                                                                  ## Purpose:     A section of an attempt to reconstruct Sundance revision 306
000005:                                                                                                  ##              as closely as possible with available information. Sundance
000006:                                                                                                  ##              306 is the source code for the Lunar Module's (LM) Apollo
000007:                                                                                                  ##              Guidance Computer (AGC) for Apollo 9. This program was created
000008:                                                                                                  ##              using the mixed-revision SundanceXXX as a starting point, and
000009:                                                                                                  ##              pulling back features from Luminary 69 believed to have been
000010:                                                                                                  ##              added based on memos, checklists, observed address changes,
000011:                                                                                                  ##              or the Sundance GSOPs.
000012:                                                                                                  ## Assembler:   yaYUL
000013:                                                                                                  ## Contact:     Ron Burkey <info@sandroid.org>.
000014:                                                                                                  ## Website:     www.ibiblio.org/apollo/index.html
000015:                                                                                                  ## Mod history: 2020-07-24 MAS  Created from SundanceXXX.
000016:                                                                                                  ##              2020-07-29 MAS  Added a custom implementation of SETXDSP.
000017:
000018:
000019:    7727                                           BLOCK    3
000020:    6000                                           SETLOC   FFTAG6
000021:    6000                                           BANK
000022:    7727                                           COUNT*   $$/FLAG
000023:
000024:    7727           50002                 -2        INDEX    Q
000025:    7730           30000                           CA       0
000026:    7731           54001        UPENT2             TS       L                                     #  WHICH FLAGWORD IS IT
000027:    7732           75032                           MASK     OCT7
000028:    7733           56001                           XCH      L                                     #  SAVE IN L FOR INDEXING
000029:
000030:    7734           77716                           MASK     OCT77770                              #  OBTAIN THE BIT INFORMATION
000031:    7735           00004                           INHINT                                         #  PREVENT INTERUPTS
000032:    7736           54061                           TS       ITEMP1                                #  STORE THE BIT INFORMATION TEMPORARIALY
000033:
000034:    7737           50001                           NDX      L
000035:    7740           40074                           CS       FLAGWRD0
000036:    7741           70061                           MASK     ITEMP1
000037:    7742           50001                           NDX      L
000038:    7743           26074                           ADS      FLAGWRD0
000039:    7744           00003                           RELINT                                         #  RELEASE INTERUPT INHIBIT
000040:
000041:    7745           24002                           INCR     Q                                     #  OBTAIN THE CORRECT RETURN ADDRESS
000042:    7746           00002                           TC       Q                                     #  RETURN
000043:
000044:    7747           50002                 -2        INDEX    Q
000045:    7750           30000                           CA       0
000046:    7751           54001        DOWNENT2           TS       L                                     #  WHICH FLAGWORD IS IT
000047:    7752           75032                           MASK     OCT7
000048:    7753           56001                           XCH      L                                     #  SAVE IN L FOR INDEXING
000049:
000050:    7754           77716                           MASK     OCT77770                              #  OBTAIN THE BIT INFORMATION
000051:    7755           40000                           COM                                            #  START TO PROCESS THE INFORMATION
000052:
000053:    7756           00004                           INHINT                                         #  PREVENT INTERUPTS
000054:    7757           50001                           NDX      L
000055:    7760           70074                           MASK     FLAGWRD0
000056:    7761           50001                           NDX      L
000057:    7762           54074                           TS       FLAGWRD0
000058:    7763           00003                           RELINT                                         #  RELEASE INTERUPT INHIBIT
000059:
000060:    7764           24002                           INCR     Q                                     #  OBTAIN THE CORRECT RETURN ADDRESS
000061:    7765           00002                           TC       Q                                     #  RETURN
000062:
000063:    7766     5032               OCT7               EQUALS   SEVEN
000064:
000065:                                                                                                  #      UPFLAG AND DOWNFLAG ARE ENTIRELY GENERAL FLAG SETTING AND CLEARING SUBROUTINES.   USING THEM, WHETHER OR
000066:                                                                                                  #  NOT IN INTERRUPT, ONE MAY SET OR CLEAR ANY SINGLE, NAMED BIT IN ANY ERASABLE REGISTER, SUBJECT OF COURSE TO
000067:                                                                                                  #  EBANK SETTING.   A "NAMED" BIT, AS THE WORD IS USED HERE, IS ANY BIT WITH A NAME FORMALLY ASSIGNED BY THE YUL
000068:                                                                                                  #  ASSEMBLER.
000069:
000070:                                                                                                  #      AT PRESENT THE ONLY NAMED BITS ARE THOSE IN THE FLAGWORDS.   ASSEMBLER CHANGES WILL MAKE IT POSSIBLE TO
000071:                                                                                                  #  NAME ANY BIT IN ERASABLE MEMORY.
000072:
000073:                                                                                                  #      CALLING SEQUENCES ARE AS FOLLOWS :-
000074:                                                                                                  #                TC      UPFLAG                  TC      DOWNFLAG
000075:                                                                                                  #                ADRES   NAME OF FLAG            ADRES   NAME OF FLAG
000076:
000077:                                                                                                  #      RETURN IS TO THE LOCATION FOLLOWING THE "ADRES" ABOUT .58 MS AFTER THE "TC".
000078:
000079:                                                                                                  #      UPON RETURN A CONTAINS THE CURRENT FLAGWRD SETTING.
000080:
000081:    5566                                           BLOCK    02
000082:    4000                                           SETLOC   FFTAG1
000083:    4000                                           BANK
000084:    5566                                           COUNT*   $$/FLAG
000085:
000086:    5566           30002        UPFLAG             CA       Q
000087:    5567           05604                           TC       DEBIT
000088:    5570           40000                           COM                                            #  +(15 - BIT)
000089:    5571           00006                           EXTEND
000090:    5572           04001                           ROR      LCHAN                                 #  SET BIT
000091:    5573           50061        COMFLAG            INDEX    ITEMP1
000092:    5574           54074                           TS       FLAGWRD0
000093:    5575           22063                           LXCH     ITEMP3
000094:    5576           00003                           RELINT
000095:    5577           00001                           TC       L
000096:
000097:    5600           30002        DOWNFLAG           CA       Q
000098:    5601           05604                           TC       DEBIT
000099:    5602           70001                           MASK     L                                     #  RESET BIT
000100:    5603           15573                           TCF      COMFLAG
000101:
000102:    5604           65026        DEBIT              AD       ONE                                   #  GET DE BITS
000103:    5605           00004                           INHINT
000104:    5606           54063                           TS       ITEMP3
000105:    5607           35035                           CA       LOW4                                  #  DEC15
000106:    5610           54061                           TS       ITEMP1
000107:    5611           50063                           INDEX    ITEMP3
000108:    5612           27777                           CA       0          -1                         #  ADRES
000109:    5613           54001                           TS       L
000110:    5614           35030                           CA       ZERO
000111:    5615           00006                           EXTEND
000112:    5616           10061                           DV       ITEMP1                                #  A = FLAGWRD, L = (15 - BIT)
000113:    5617           52062                           DXCH     ITEMP1
000114:    5620           50061                           INDEX    ITEMP1
000115:    5621           30074                           CA       FLAGWRD0
000116:    5622           54001                           TS       L                                     #  CURRENT STATE
000117:    5623           50062                           INDEX    ITEMP2
000118:    5624           45010                           CS       BIT15                                 #  -(15 - BIT)
000119:    5625           00002                           TC       Q
000120:
000121:                                                                                                  #  DELAYJOB - A GENERAL ROUTINE TO DELAY A JOB A SPECIFIC AMOUNT OF TIME BEFORE PICKING UP AGAIN.
000122:
000123:                                                                                                  #  ENTRANCE REQUIREMENTS ...
000124:                                                                                                  #                CAF     DT              DELAY JOB FOR DT CENTISECS
000125:                                                                                                  #                TC      BANKCALL
000126:                                                                                                  #                CADR    DELAYJOB
000127:
000128: 06,3712                                           BANK     06
000129: 00,2000                                           SETLOC   DLAYJOB
000130: 00,2000                                           BANK
000131:
000132:                                                                                                  #  THIS MUST REMAIN IN BANK 0 *****************************************
000133:
000134: 00,3732                                           COUNT*   $$/DELAY
000135: 00,3732           00004        DELAYJOB           INHINT
000136: 00,3733           54002                           TS       Q                                     #  STORE DELAY DT IN Q FOR DLY -1 IN
000137:
000138: 00,3734           35025                           CAF      DELAYNUM                              #  WAITLIST
000139: 00,3735           54070        DELLOOP            TS       RUPTREG1
000140: 00,3736           50000                           INDEX    A
000141: 00,3737           31332                           CA       DELAYLOC                              #  IS THIS DELAYLOC AVAILABLE
000142: 00,3740           00006                           EXTEND
000143: 00,3741           13746                           BZF      OK2DELAY                              #  YES
000144:
000145: 00,3742           10070                           CCS      RUPTREG1                              #  NO, TRY NEXT DELAYLOC
000146: 00,3743           13735                           TCF      DELLOOP
000147:
000148: 00,3744           05716                           TC       ABORT                                 #  NO AVAILABLE LOCS.
000149: 00,3745           01104                           OCT      1104
000150:
000151: 00,3746           33766        OK2DELAY           CA       TCSLEEP                               #  SET WAITLIST IMMEDIATE RETURN
000152: 00,3747           54061                           TS       WAITEXIT
000153:
000154: 00,3750           30004                           CA       FBANK
000155: 00,3751           60070                           AD       RUPTREG1                              #  STORE BBANK FOR TASK CALL
000156: 00,3752           54001                           TS       L
000157:
000158: 00,3753           33767                           CAF      WAKECAD                               #  STORE CADR FOR TASK CALL
000159: 00,3754           15260                           TCF      DLY2       -1                         #  DLY IS IN WAITLIST ROUTINE
000160:
000161: 00,3755           04704        TCGETCAD           TC       MAKECADR                              #  GET CALLERS FCADR
000162:
000163: 00,3756           50070                           INDEX    RUPTREG1
000164: 00,3757           55332                           TS       DELAYLOC                              #  SAVE DELAY CADRS
000165:
000166: 00,3760           05203                           TC       JOBSLEEP
000167:
000168: 00,3761           35030        WAKER              CAF      ZERO
000169: 00,3762           50006                           INDEX    BBANK
000170: 00,3763           57332                           XCH      DELAYLOC                              #  MAKE DELAYLOC AVAILABLE
000171: 00,3764           05207                           TC       JOBWAKE
000172:
000173: 00,3765           05331                           TC       TASKOVER
000174:
000175: 00,3766           03753        TCSLEEP            GENADR   TCGETCAD   -2
000176: 00,3767           03761        WAKECAD            GENADR   WAKER
000177:
000178:                                                                                                  #  GENTRAN, A BLOCK TRANSFER ROUTINE.
000179:
000180:                                                                                                  #  WRITTEN BY D. EYLES
000181:                                                                                                  #  MOD 1 BY KERNAN                               UTILITYM REV 17 11/18/67
000182:
000183:                                                                                                  #  MOD 2 BY SCHULENBERG (REMOVE RELINT) SKIPPER REV 4 2/28/68
000184:
000185:                                                                                                  #           THIS ROUTINE IS USEFULL FOR TRANSFERING N CONSECUTIVE ERASABLE OR FIXED QUANTITIES TO SOME OTHER N
000186:                                                                                                  #  CONSECUTIVE ERASABLE LOCATIONS.  IF BOTH BLOCKS OF DATA ARE IN SWITCHABLE EBANKS, THEY MUST BE IN THE SAME ONE.
000187:
000188:                                                                                                  #           GENTRAN IS CALLABLE IN A JOB AS WELL AS A RUPT.  THE CALLING SEQUENCE IS:
000189:                                                                                                  #                                          I        CA    N-1              # OF QUANTITIES MINUS ONE.
000190:                                                                                                  #                                          I +1     TC    GENTRAN          IN FIXED-FIXED.
000191:                                                                                                  #                                          I +2     ADRES L                STARTING ADRES OF DATA TO BE MOVED.
000192:                                                                                                  #                                          I +3     ADRES M                STARTING ADRES OF DUPLICATION BLOCK.
000193:                                                                                                  #                                          I +4                            RETURNS HERE.
000194:
000195:                                                                                                  #           GENTRAN TAKES 25 MCT'S (300 MICROSECONDS) PER ITEM + 5 MCT'S (60 MICS) FOR ENTERING AND EXITING.
000196:                                                                                                  #           A, L AND ITEMP1 ARE NOT PRESERVED.
000197:
000198:    5626                                           BLOCK    02
000199:    4000                                           SETLOC   FFTAG4
000200:    4000                                           BANK
000201:
000202:    5626     0061                                  EBANK=   ITEMP1
000203:
000204:    5626                                           COUNT*   $$/TRAN
000205:
000206:    5626           00004        GENTRAN            INHINT
000207:    5627           54061                           TS       ITEMP1                                #  SAVE N-1.
000208:    5630           50002                           INDEX    Q                                     #  C(Q) = ADRES L.
000209:    5631           60000                           AD       0                                     #  ADRES (L + N - 1).
000210:    5632           50000                           INDEX    A
000211:    5633           30000                           CA       0                                     #  C(ABOVE).
000212:    5634           54001                           TS       L                                     #  SAVE DATA.
000213:    5635           30061                           CA       ITEMP1
000214:    5636           50002                           INDEX    Q
000215:    5637           60001                           AD       1                                     #  ADRES (M + N - 1).
000216:    5640           50000                           INDEX    A
000217:    5641           22000                           LXCH     0                                     #  STUFF IT.
000218:    5642           10061                           CCS      ITEMP1                                #  LOOP UNTIL N-1 = 0.
000219:    5643           15627                           TCF      GENTRAN    +1
000220:    5644           16715                           TCF      Q+2                                   #  RETURN TO CALLER.
000221:
000222:                                                                                                  #  B5OFF   ZERO BIT 5 OF EXTVBACT, WHICH IS SET BY TESTXACT.
000223:                                                                                                  #           MAY BE USED AS NEEDED BY ANY EXTENDED VERB WHICH HAS DONE TESTXACT
000224:
000225:    5645                                           COUNT*   $$/EXTVB
000226:
000227:    5645           45022        B5OFF              CS       BIT5
000228:    5646           71045                           MASK     EXTVBACT
000229:    5647           55045                           TS       EXTVBACT
000230:    5650           05225                           TC       ENDOFJOB
000231:


000236:                                                                                                  ##


000240:                                                                                                  ##


000246:
000247:    7766                                           BLOCK    03
000248:    6000                                           SETLOC   FFTAG5
000249:    6000                                           BANK
000250:
000251:    7766     0061                                  EBANK=   ITEMP1
000252:
000253:    7766                                           COUNT*   $$/EXTVB
000254:
000255:    7766           00004        SETXDSP            INHINT
000256:    7767           40100                           CS       FLAGWRD4
000257:    7770           75026                           MASK     XDSPBIT
000258:    7771           26100                           ADS      FLAGWRD4
000259:    7772           00003                           RELINT
000260:    7773           00002                           TC       Q

End of include-file SERVICE_ROUTINES.agc.  Parent file is MAIN.agc


