
Source Code


000002:                                                                                                  ## Copyright:   Public domain.
000003:                                                                                                  ## Filename:    SINGLE_PRECISION_SUBROUTINES.agc
000004:                                                                                                  ## Purpose:     A section of an attempt to reconstruct Sundance revision 306
000005:                                                                                                  ##              as closely as possible with available information. Sundance
000006:                                                                                                  ##              306 is the source code for the Lunar Module's (LM) Apollo
000007:                                                                                                  ##              Guidance Computer (AGC) for Apollo 9. This program was created
000008:                                                                                                  ##              using the mixed-revision SundanceXXX as a starting point, and
000009:                                                                                                  ##              pulling back features from Luminary 69 believed to have been
000010:                                                                                                  ##              added based on memos, checklists, observed address changes,
000011:                                                                                                  ##              or the Sundance GSOPs.
000012:                                                                                                  ## Assembler:   yaYUL
000013:                                                                                                  ## Contact:     Ron Burkey <info@sandroid.org>.
000014:                                                                                                  ## Website:     www.ibiblio.org/apollo/index.html
000015:                                                                                                  ## Mod history: 2020-07-24 MAS  Created from SundanceXXX.
000016:
000017:
000018:
000019:    5102                                           BLOCK    02
000020:
000021:                                                                                                  #  SINGLE PRECISION SINE AND COSINE
000022:
000023:    5102                                           COUNT*   $$/INTER
000024:    5102           65011        SPCOS              AD       HALF                                  #  ARGUMENTS SCALED AT PI
000025:    5103           55076        SPSIN              TS       TEMK
000026:    5104           15106                           TCF      SPT
000027:    5105           41076                           CS       TEMK
000028:    5106           60000        SPT                DOUBLE
000029:    5107           55076                           TS       TEMK
000030:    5110           15121                           TCF      POLLEY
000031:    5111           57076                           XCH      TEMK
000032:    5112           51076                           INDEX    TEMK
000033:    5113           65007                           AD       LIMITS
000034:    5114           40000                           COM
000035:    5115           61076                           AD       TEMK
000036:    5116           55076                           TS       TEMK
000037:    5117           15121                           TCF      POLLEY
000038:    5120           15137                           TCF      ARG90
000039:    5121           00006        POLLEY             EXTEND
000040:    5122           71076                           MP       TEMK
000041:    5123           55077                           TS       SQ
000042:    5124           00006                           EXTEND
000043:    5125           75055                           MP       C5/2
000044:    5126           67710                           AD       C3/2
000045:    5127           00006                           EXTEND
000046:    5130           71077                           MP       SQ
000047:    5131           67671                           AD       C1/2
000048:    5132           00006                           EXTEND
000049:    5133           71076                           MP       TEMK
000050:    5134           20001                           DDOUBL
000051:    5135           55076                           TS       TEMK
000052:    5136           00002                           TC       Q
000053:    5137           50000        ARG90              INDEX    A
000054:    5140           45007                           CS       LIMITS
000055:    5141           00002                           TC       Q                                     #  RESULT SCALED AT 1
000056:
000057:

End of include-file SINGLE_PRECISION_SUBROUTINES.agc.  Parent file is MAIN.agc


