
Source Code


000002:                                                                                                  ## Copyright:   Public domain.
000003:                                                                                                  ## Filename:    SPS_BACK-UP_RCS_CONTROL.agc
000004:                                                                                                  ## Purpose:     A section of an attempt to reconstruct Sundance revision 306
000005:                                                                                                  ##              as closely as possible with available information. Sundance
000006:                                                                                                  ##              306 is the source code for the Lunar Module's (LM) Apollo
000007:                                                                                                  ##              Guidance Computer (AGC) for Apollo 9. This program was created
000008:                                                                                                  ##              using the mixed-revision SundanceXXX as a starting point, and
000009:                                                                                                  ##              pulling back features from Luminary 69 believed to have been
000010:                                                                                                  ##              added based on memos, checklists, observed address changes,
000011:                                                                                                  ##              or the Sundance GSOPs.
000012:                                                                                                  ## Assembler:   yaYUL
000013:                                                                                                  ## Contact:     Ron Burkey <info@sandroid.org>.
000014:                                                                                                  ## Website:     www.ibiblio.org/apollo/index.html
000015:                                                                                                  ## Mod history: 2020-07-24 MAS  Created from SundanceXXX.
000016:
000017:
000018:
000019:                                                                                                  #  PROGRAM NAME:  SPSRCS
000020:
000021:                                                                                                  #  AUTHOR:  EDGAR M. OSHIKA (AC ELECTRONICS)
000022:
000023:                                                                                                  #  MODIFIED:  TO RETURN TO ALL AXES VIA Q BY P. S. WEISSMAN, OCT 7, 1968
000024:
000025:                                                                                                  #  FUNCTIONAL DESCRIPTION:
000026:
000027:                                                                                                  #  THIS PROGRAM CONTROLS THE FIRING OF ALL RCS JETS IN THE DOCKED CONFIGURATION ACCORDING TO THE FOLLOWING PHASE
000028:                                                                                                  #  PLANE LOGIC.
000029:
000030:                                                                                                  #  1.  OUTER RATE LIMIT (SPSRCS)
000031:
000032:                                                                                                  #  IF MAGNITUDE OF EDOT IS GREATER THAN 1.73 DEG/SEC SET JET FIRING TIME, TJ, TO REDUCE RATE AND THEN RETURN TO
000033:                                                                                                  #  CALLING PROGRAM (REQUESTING 4 JETS FOR P-AXIS).
000034:                                                                                                  #  OTHERWISE, CONTINUE.
000035:
000036:                                                                                                  #  2.  RATE DEAD BAND TEST ( JTONTEST)
000037:
000038:                                                                                                  #  IF JETS ARE FIRING NEGATIVE AND RATE IS GREATER THAN -0.101 DEG/SEC, LEAVE JETS ON AND RETURN,
000039:                                                                                                  #  IF JETS ARE FIRING POSITIVE AND RATE IS LESS THAN +0.101 DEG/SEC, LEAVE JETS ON AND RETURN, OTHERWISE CONTINUE.
000040:
000041:                                                                                                  #  3.  COASTING TEST (SPSSTART)
000042:
000043:                                                                                                  #  IF STATE (E,EDOT) IS BELOW LINE  E + 4 X EDOT > -1.4 DEG  AND EDOT IS LESS THAN 1.30 DEG/SEC SET JET TIME POSI-
000044:                                                                                                  #  TIVE AND RETURN,
000045:                                                                                                  #  IF STATE IS ABOVE LINE E + 4 X EDOT > +1.4 DEG AND EDOT IS GREATER THAN -1.30 DEG/SEC, SET JET TIME NEGATIVE
000046:                                                                                                  #  AND RETURN,
000047:                                                                                                  #  OTHERWISE, SET JET TIME ZERO AND RETURN.
000048:
000049:                                                                                                  #  THE MINIMUM PULSE WIDTH OF THIS CONTROLLER IS DETERMINED BY THE REPETITION  RATE AT WHICH THIS ROUTINE IS CALLED
000050:                                                                                                  #  AND IS NOMINALLY 100 MS FOR ALL AXES IN DRIFTING FLIGHT.   DURING POWERED FLIGHT THE MINIMUM IS 100 MS FOR THE
000051:                                                                                                  #  P AXIS AND 200 MS FOR THE CONTROL OF THE U AND V AXES.
000052:
000053:                                                                                                  #  CALLING SEQUENCE:
000054:
000055:                                                                                                  #           TC     SPSRCS          FROM Q,R AXES RCS AUTOPILOT
000056:                                                                                                  #                      INHINT                  FROM P-AXIS RCS AUTOPILOT
000057:                                                                                                  #                      TC      IBNKCALL
000058:                                                                                                  #                      CADR    SPSRCS
000059:
000060:
000061:                                                                                                  #  EXIT:
000062:
000063:                                                                                                  #           TC     Q
000064:                                                                                                  #  ALARM/ABORT MODE:    NONE
000065:
000066:                                                                                                  #  SUBROUTINES CALLED:    NONE
000067:
000068:                                                                                                  #  INPUT:      E, EDOT
000069:
000070:                                                                                                  #             TJP, TJV, TJU           TJ MUST NOT BE NEGATIVE ZERO
000071:
000072:                                                                                                  #  OUTPUT:    TJP, TJV, TJU
000073:                                                                                                  #             NUMBERT = 6,            WHEN RATE LIMITING P AXIS.
000074:
000075:
000076: 17,3526                                           BANK     17
000077: 17,2000                                           SETLOC   DAPS2
000078: 17,2000                                           BANK
000079:
000080: 17,3526                                           COUNT*   $$/DAPBU
000081:
000082: 17,3526  E6,1517                                  EBANK=   TJU
000083: 17,3526           31543        SPSRCS             CA       EDOT
000084: 17,3527           00006                           EXTEND
000085: 17,3530           75036                           MP       RATELIM1                              #  OUTER RATE LIMIT = 1.73 DEG/SEC
000086: 17,3531           00006                           EXTEND
000087: 17,3532           13563                           BZF      JTONTEST
000088:
000089: 17,3533           54001                           TS       L
000090: 17,3534           36216                           CA       SIX
000091: 17,3535           55740                           TS       NUMBERT
000092: 17,3536           10001                           CCS      L
000093: 17,3537           13617                           TCF      NEGTHRST
000094: 17,3540           05726                           TC       CCSHOLE                               #  **TEMP ** FILL WITH A CONSTANT
000095: 17,3541  17,3512               RATELIM2           =        .1AT4                                 #  = OCT 00632,  1.125 DEG/SEC
000096: 17,3541           35011        POSTHRST           CA       HALF
000097:
000098: 17,3542           51471                           NDX      AXISCTR
000099: 17,3543           55517                           TS       TJU
000100: 17,3544           11471                           CCS      AXISCTR
000101: 17,3545           13550                           TCF      +3
000102: 17,3546           13550                           TCF      +2
000103: 17,3547           00002                           TC       Q
000104:
000105: 17,3550           30101                           CA       FLAGWRD5
000106: 17,3551           75012                           MASK     SNUFFBIT
000107: 17,3552           00006                           EXTEND
000108: 17,3553           12522                           BZF      AFTERTJ    -2
000109: 17,3554           31102                           CA       DAPBOOLS
000110: 17,3555           75017                           MASK     DRIFTBIT
000111: 17,3556           10000                           CCS      A
000112: 17,3557           12522                           TCF      AFTERTJ    -2
000113:
000114: 17,3560           51471                           NDX      AXISCTR
000115: 17,3561           55517                           TS       TJU
000116: 17,3562           12522                           TCF      AFTERTJ    -2
000117:
000118: 17,3563           51471        JTONTEST           NDX      AXISCTR
000119: 17,3564           11517                           CCS      TJU
000120: 17,3565           13571                           TCF      +4
000121: 17,3566           13603                           TCF      SPSSTART
000122: 17,3567           31543                           CA       EDOT
000123: 17,3570           13572                           TCF      +2
000124:
000125: 17,3571           41543                 +4        CS       EDOT
000126: 17,3572           22000                           LXCH     A
000127: 17,3573           41102                           CS       DAPBOOLS                              #  IF DRIFTBIT = 1, USE ZERO TARGET RATE
000128: 17,3574           75017                           MASK     DRIFTBIT                              #  IF DRIFTBIT = 0, USE 0.10 RATE TARGET
000129: 17,3575           10000                           CCS      A
000130: 17,3576           35037                           CA       RATEDB1
000131: 17,3577           60001                           AD       L
000132: 17,3600           00006                           EXTEND
000133: 17,3601           63603                           BZMF     +2
000134: 17,3602           13544                           TCF      POSTHRST   +3
000135:
000136: 17,3603           31543        SPSSTART           CA       EDOT
000137: 17,3604           61542                           AD       E
000138: 17,3605           00006                           EXTEND
000139: 17,3606           71411                           MP       DKDB                                  #  PAD LOADED DEADBAND. FRESHSTART: 1.4 DEG
000140: 17,3607           00006                           EXTEND
000141: 17,3610           13625                           BZF      TJZERO
000142:
000143: 17,3611           00006                           EXTEND
000144: 17,3612           63621                           BZMF     +7
000145: 17,3613           31543                           CA       EDOT
000146: 17,3614           63512                           AD       RATELIM2
000147: 17,3615           00006                           EXTEND
000148: 17,3616           63625                           BZMF     TJZERO
000149: 17,3617           45011        NEGTHRST           CS       HALF
000150: 17,3620           13542                           TCF      POSTHRST   +1
000151: 17,3621           43512                 +7        CS       RATELIM2
000152: 17,3622           61543                           AD       EDOT
000153: 17,3623           00006                           EXTEND
000154: 17,3624           63541                           BZMF     POSTHRST
000155: 17,3625           35030        TJZERO             CA       ZERO
000156: 17,3626           13542                           TCF      POSTHRST   +1
000157:
000158:
000159: 17,3627     5036               RATELIM1           =        CALLCODE                              #  = 00032, CORRESPONDING TO 1.73 DEG/SEC
000160: 17,3627     5037               RATEDB1            =        TBUILDFX                              #   = 00045, CORRESPONDS TO 0.101 DEG/SEC

End of include-file SPS_BACK-UP_RCS_CONTROL.agc.  Parent file is MAIN.agc


