
Source Code


000002:                                                                                                  ## Copyright:   Public domain.
000003:                                                                                                  ## Filename:    STABLE_ORBIT_-_P38-P39.agc
000004:                                                                                                  ## Purpose:     A section of an attempt to reconstruct Sundance revision 306
000005:                                                                                                  ##              as closely as possible with available information. Sundance
000006:                                                                                                  ##              306 is the source code for the Lunar Module's (LM) Apollo
000007:                                                                                                  ##              Guidance Computer (AGC) for Apollo 9. This program was created
000008:                                                                                                  ##              using the mixed-revision SundanceXXX as a starting point, and
000009:                                                                                                  ##              pulling back features from Luminary 69 believed to have been
000010:                                                                                                  ##              added based on memos, checklists, observed address changes,
000011:                                                                                                  ##              or the Sundance GSOPs.
000012:                                                                                                  ## Assembler:   yaYUL
000013:                                                                                                  ## Contact:     Ron Burkey <info@sandroid.org>.
000014:                                                                                                  ## Website:     www.ibiblio.org/apollo/index.html
000015:                                                                                                  ## Mod history: 2020-07-24 MAS  Created from SundanceXXX.
000016:
000017:
000018:
000019:                                                                                                  #  STABLE ORBIT RENDEZVOUS PROGRAMS (P38 AND P78)
000020:
000021:                                                                                                  #  MOD NO -1             LOG SECTION - STABLE ORBIT - P38-P39
000022:                                                                                                  #  MOD BY RUDNICKI.S     DATE 25JAN68
000023:
000024:                                                                                                  #  FUNCTIONAL DESCRIPTION
000025:
000026:                                                                                                  #        P38 AND P78 CALCULATE THE REQUIRED DELTA V AND OTHER INITIAL
000027:                                                                                                  #        CONDITIONS REQUIRED BY THE AGC TO (1) PUT THE ACTIVE VEHICLE
000028:                                                                                                  #        ON A TRANSFER TRAJECTORY THAT INTERCEPTS THE PASSIVE VEHICLE
000029:                                                                                                  #        ORBIT A GIVEN DISTANCE, DELTA R, EITHER AHEAD OF OR BEHIND THE
000030:                                                                                                  #        PASSIVE VEHICLE AND (2) ACTUALLY PLACE THE ACTIVE VEHICLE IN THE
000031:                                                                                                  #        PASSIVE VEHICLE ORBIT WITH A DELTA R SEPARATION BETWEEN THE TWO
000032:                                                                                                  #        VEHICLES
000033:
000034:                                                                                                  #  CALLING SEQUENCE
000035:
000036:                                                                                                  #        ASTRONAUT REQUEST THRU DSKY
000037:
000038:                                                                                                  #        V37E38E         IF THIS VEHICLE IS ACTIVE VEHICLE
000039:                                                                                                  #        V37E78E         IF OTHER VEHICLE IS ACTIVE VEHICLE
000040:
000041:                                                                                                  #  INPUT
000042:
000043:                                                                                                  #        (1)     SOI MANEUVER
000044:
000045:                                                                                                  #                (A)  TIG        TIME OF SOI MANEUVER
000046:                                                                                                  #                (B)  CENTANG    ORBITAL CENTRAL ANGLE OF THE PASSIVE VEHICLE
000047:                                                                                                  #                                DURING TRANSFER FROM TIG TO TIME OF INTERCEPT
000048:                                                                                                  #                (C)  DELTAR     THE DESIRED SEPARATION OF THE TWO VEHICLES
000049:                                                                                                  #                                SPECIFIED AS A DISTANCE ALONG THE PASSIVE VEHICLE
000050:                                                                                                  #                                ORBIT
000051:                                                                                                  #                (D)  OPTION     EQUALS 1 FOR SOI
000052:
000053:                                                                                                  #        (2)     SOR MANEUVER
000054:
000055:                                                                                                  #                (A)  TIG        TIME OF SOR MANEUVER
000056:                                                                                                  #                (B)  CENTANG    AN OPTIONAL RESPECIFICATION OF 1 (B) ABOVE
000057:                                                                                                  #                (C)  OPTION     EQUALS 2 FOR SOR
000058:                                                                                                  #                (D)  DELTTIME   THE TIME REQUIRED TO TRAVERSE DELTA R WHEN
000059:                                                                                                  #                                TRAVELING AT A VELOCITY EQUAL TO THE HORIZONTAL
000060:                                                                                                  #                                VELOCITY OF THE PASSIVE VEHICLE - SAVED FROM
000061:                                                                                                  #                                SOI PHASE
000062:                                                                                                  #                (E)  TINT       TIME OF INTERCEPT (SOI) - SAVED FROM SOI PHASE
000063:
000064:                                                                                                  #  OUTPUT
000065:
000066:                                                                                                  #        (1)  TRKMKCNT   NUMBER OF MARKS
000067:                                                                                                  #        (2)  TTOGO      TIME TO GO
000068:                                                                                                  #        (3)  +MGA       MIDDLE GIMBAL ANGLE
000069:                                                                                                  #        (4)  DSPTEM1    TIME OF INTERCEPT OF PASSIVE VEHICLE ORBIT
000070:                                                                                                  #                        (FOR SOI ONLY)
000071:                                                                                                  #        (5)  POSTTPI    PERIGEE ALTITUDE OF ACTIVE VEHICLE ORBIT AFTER
000072:                                                                                                  #                        THE SOI (SOR) MANEUVER
000073:                                                                                                  #        (6)  DELVTPI    MAGNITUDE OF DELTA V AT SOI (SOR) TIME
000074:                                                                                                  #        (7)  DELVTPF    MAGNITUDE OF DELTA V AT INTERCEPT TIME
000075:                                                                                                  #        (8)  DELVLVC    DELTA VELOCITY AT SOI (AND SOR) - LOCAL VERTICAL
000076:                                                                                                  #                        COORDINATES
000077:
000078:                                                                                                  #  SUBROUTINES USED
000079:
000080:                                                                                                  #        AVFLAGA
000081:                                                                                                  #        AVFLAGP
000082:                                                                                                  #        VNDSPLY
000083:                                                                                                  #        BANKCALL
000084:                                                                                                  #        GOFLASHR
000085:                                                                                                  #        GOTOPOOH
000086:                                                                                                  #        BLANKET
000087:                                                                                                  #        ENDOFJOB
000088:                                                                                                  #        PREC/TT
000089:                                                                                                  #        SELECTMU
000090:                                                                                                  #        INTRPVP
000091:                                                                                                  #        MAINRTNE
000092:
000093: 04,2666                                           BANK     04
000094: 34,2000                                           SETLOC   STBLEORB
000095: 34,2000                                           BANK
000096:
000097: 34,3411  E7,1455                                  EBANK=   SUBEXIT
000098: 34,3411                                           COUNT*   $$/P3879
000099:
000100: 34,3411           04655        P38                TC       BANKCALL
000101: 34,3412           72405                           CADR     AVFLAGA                               #  THIS VEHICLE ACTIVE
000102: 34,3413           03416                           TC       +3
000103: 34,3414           04655        P78                TC       BANKCALL
000104: 34,3415           72412                           CADR     AVFLAGP                               #  OTHER VEHICLE ACTIVE
000105: 34,3416           33745                           CAF      V06N33SR                              #  DISPLAY TIG
000106: 34,3417           03734                           TC       VNDSPLY
000107: 34,3420           33746                           CAF      V06N55SR                              #  DISPLAY CENTANG
000108: 34,3421           04655                           TCR      BANKCALL
000109: 34,3422           20544                           CADR     GOFLASHR
000110: 34,3423           14106                           TCF      GOTOPOOH                              #  TERMINATE
000111: 34,3424           13431                           TCF      +5                                    #  PROCEED
000112: 34,3425           13420                           TCF      -5                                    #  RECYCLE
000113: 34,3426           36221                           CAF      THREE                                 #  IMMEDIATE RETURN - BLANK R1, R2
000114: 34,3427           05556                           TCR      BLANKET
000115: 34,3430           15225                           TCF      ENDOFJOB
000116: 34,3431           35031                           CAF      FIVE
000117: 34,3432           55155                           TS       OPTION1
000118: 34,3433           35026                           CAF      ONE
000119: 34,3434           55156                           TS       OPTION2                               #  OPTION CODE IS SET TO 1
000120: 34,3435           33747                           CAF      V04N06SR                              #  DISPLAY OPTION CODE - 1 = SOI, 2 = SOR
000121: 34,3436           04655                           TCR      BANKCALL
000122: 34,3437           20544                           CADR     GOFLASHR
000123: 34,3440           14106                           TCF      GOTOPOOH                              #  TERMINATE
000124: 34,3441           13446                           TCF      +5                                    #  PROCEED
000125: 34,3442           13435                           TCF      -5                                    #  RECYCLE
000126: 34,3443           35024                           CAF      BIT3                                  #  IMMEDIATE RETURN - BLANK R3
000127: 34,3444           05556                           TCR      BLANKET
000128: 34,3445           15225                           TCF      ENDOFJOB
000129: 34,3446           06014                           TC       INTPRET
000130: 34,3447           70535                           SLOAD    SR1
000131: 34,3450           01157                                    OPTION2
000132: 34,3451           71230                           BHIZ     DLOAD
000133: 34,3452           71460                                    OPTN1
000134: 34,3453           03616                                    TINT
000135: 34,3454           02317                           STORE    TINTSOI                               #  STORE FOR SOR PHASE
000136: 34,3455           77614                           CLRGO
000137: 34,3456           01230                                    OPTNSW                                #  OPTNSW; ON = SOI, OFF = SOR
000138: 34,3457           71504                                    JUNCTN1
000139: 34,3460           45014        OPTN1              SET      CALL                                  #  SOI
000140: 34,3461           01070                                    OPTNSW
000141: 34,3462           71667                                    PREC/TT
000142: 34,3463           77615                           DAD
000143: 34,3464           03425                                    TIG
000144: 34,3465           03616                           STORE    TINT                                  #  TI = TIG + TF
000145: 34,3466           01047                           STORE    DSPTEM1
000146: 34,3467           77776                           EXIT
000147: 34,3470           33750                           CAF      V06N57SR                              #  DISPLAY DELTA R
000148: 34,3471           04655                           TCR      BANKCALL
000149: 34,3472           20544                           CADR     GOFLASHR
000150: 34,3473           14106                           TCF      GOTOPOOH                              #  TERMINATE
000151: 34,3474           13501                           TCF      +5                                    #  PROCEED
000152: 34,3475           13470                           TCF      -5                                    #  RECYCLE
000153: 34,3476           36216                           CAF      SIX                                   #  IMMEDIATE RETURN - BLANK R2, R3
000154: 34,3477           05556                           TCR      BLANKET
000155: 34,3500           15225                           TCF      ENDOFJOB
000156: 34,3501           33751                 +5        CAF      V06N34SR                              #  DISPLAY TIME OF INTERCEPT
000157: 34,3502           03734                           TC       VNDSPLY
000158: 34,3503           06014                           TC       INTPRET
000159: 34,3504           45014        JUNCTN1            CLEAR    CALL
000160: 34,3505           04266                                    P39/79SW
000161: 34,3506           20045                                    SELECTMU                              #  SELECT MU, CLEAR FINALFLG, GO TO VN1645
000162: 34,3507           77624        RECYCLE            CALL
000163: 34,3510           71667                                    PREC/TT
000164: 34,3511           71214                           BOFF     DLOAD
000165: 34,3512           01350                                    OPTNSW
000166: 34,3513           71533                                    OPTN2
000167: 34,3514           03616                                    TINT
000168: 34,3515           34041                           STCALL   TDEC1                                 #  PRECISION UPDATE PASSIVE VEHICLE TO
000169: 34,3516           71720                                    INTRPVP                               #     INTERCEPT TIME
000170: 34,3517           53575                           VLOAD    UNIT
000171: 34,3520           00001                                    RATT                                  #  RP/(RP)
000172: 34,3521           47315                           PDVL     VXV
000173: 34,3522           00007                                    VATT
000174: 34,3523           60246                           ABVAL    NORM                                  #  (VP X RP/(RP))
000175: 34,3524           00047                                    X1
000176: 34,3525           56325                           PDDL     DDV
000177: 34,3526           02317                                    DELTAR
000178: 34,3527           77657                           SL*                                            #  DELTA R / (VP X RP/RP)
000179: 34,3530           20172                                    0          -7,1
000180: 34,3531           36321                           STCALL   DELTTIME                              #  DELTA T = (RP) DELTA R / (VP X RP)
000181: 34,3532           71537                                    JUNCTN2
000182: 34,3533           43345        OPTN2              DLOAD    DAD
000183: 34,3534           02317                                    TINTSOI
000184: 34,3535           00037                                    T
000185: 34,3536           03616                           STORE    TINT                                  #  TI = TI + TF
000186: 34,3537           45345        JUNCTN2            DLOAD    DSU
000187: 34,3540           03616                                    TINT
000188: 34,3541           02321                                    DELTTIME
000189: 34,3542           02323                           STORE    TARGTIME                              #  TT = TI - DELTA T
000190:
000191:                                                                                                  #  .... MAINRTNE ....
000192:
000193:                                                                                                  #  SUBROUTINES USED
000194:
000195:                                                                                                  #        S3435.25
000196:                                                                                                  #        PERIAPO1
000197:                                                                                                  #        SHIFTR1
000198:                                                                                                  #        VNDSPLY
000199:                                                                                                  #        BANKCALL
000200:                                                                                                  #        GOFLASH
000201:                                                                                                  #        GOTOPOOH
000202:                                                                                                  #        VN1645
000203:
000204: 34,3543           34041        MAINRTNE           STCALL   TDEC1                                 #  PRECISION UPDATE PASSIVE VEHICLE TO
000205: 34,3544           71720                                    INTRPVP                               #     TARGET TIME
000206: 34,3545           77745                           DLOAD
000207: 34,3546           03425                                    TIG
000208: 34,3547           03577                           STORE    INTIME
000209: 34,3550           77331                           SSP      VLOAD
000210: 34,3551           03451                                    NORMEX
000211: 34,3552           71556                                    TEST3979
000212: 34,3553           00001                                    RATT
000213: 34,3554           77624                           CALL
000214: 34,3555           73253                                    S3435.25
000215: 34,3556           43014        TEST3979           BOFF     BON
000216: 34,3557           04346                                    P39/79SW
000217: 34,3560           71567                                    MAINRTN1
000218: 34,3561           01311                                    FINALFLG
000219: 34,3562           71565                                    P39P79
000220: 34,3563           77614                           SET
000221: 34,3564           00470                                    UPDATFLG
000222: 34,3565           77776        P39P79             EXIT
000223: 34,3566           03614                           TC       DSPLY81                               #  FOR P39 AND P79
000224: 34,3567           51575        MAINRTN1           VLOAD    ABVAL
000225: 34,3570           03363                                    DELVEET3
000226: 34,3571           27563                           STOVL    DELVTPI                               #  DELTA V
000227: 34,3572           03473                                    VPASS4
000228: 34,3573           51451                           VSU      ABVAL
000229: 34,3574           03553                                    VTPRIME
000230: 34,3575           27565                           STOVL    DELVTPF                               #  DELTA V (FINAL) = V'T - VT
000231: 34,3576           03523                                    RACT3
000232: 34,3577           45115                           PDVL     CALL
000233: 34,3600           02357                                    VIPRIME
000234: 34,3601           46106                                    PERIAPO1                              #  GET PERIGEE ALTITUDE
000235: 34,3602           77624                           CALL
000236: 34,3603           46216                                    SHIFTR1
000237: 34,3604           03575                           STORE    POSTTPI
000238: 34,3605           43014                           BON      SET
000239: 34,3606           01311                                    FINALFLG
000240: 34,3607           71611                                    DSPLY58
000241: 34,3610           00470                                    UPDATFLG
000242: 34,3611           77776        DSPLY58            EXIT
000243: 34,3612           33752                           CAF      V06N58SR                              #  DISPLAY HP, DELTA V, DELTA V (FINAL)
000244: 34,3613           03734                           TC       VNDSPLY
000245: 34,3614           33753        DSPLY81            CAF      V06N81SR                              #  DISPLAY DELTA V (LV)
000246: 34,3615           03734                           TC       VNDSPLY
000247: 34,3616           06014                           TC       INTPRET
000248: 34,3617           77214                           CLEAR    VLOAD
000249: 34,3620           01267                                    XDELVFLG
000250: 34,3621           03363                                    DELVEET3
000251: 34,3622           37643                           STCALL   DELVSIN
000252: 34,3623           73502                                    VN1645                                #  DISPLAY TRKMKCNT, TTOGO, +MGA
000253: 34,3624           52014                           BON      GOTO
000254: 34,3625           04306                                    P39/79SW
000255: 34,3626           71662                                    P39/P79B
000256: 34,3627           71507                                    RECYCLE
000257:
000258:                                                                                                  #  STABLE ORBIT MIDCOURSE PROGRAM (P39 AND P79)
000259:
000260:                                                                                                  #  MOD NO -1             LOG SECTION - STABLE ORBIT - P38-P39
000261:                                                                                                  #  MOD BY RUDNICKI.S     DATE 25JAN68
000262:
000263:                                                                                                  #  FUNCTIONAL DESCRIPTION
000264:
000265:                                                                                                  #        P39 AND P79 CALCULATE THE REQUIRED DELTA V AND OTHER INITIAL
000266:                                                                                                  #        CONDITIONS REQUIRED BY THE AGC TO MAKE A MIDCOURSE CORRECTION
000267:                                                                                                  #        MANEUVER AFTER COMPLETING THE SOI MANEUVER BUT BEFORE MAKING
000268:                                                                                                  #        THE SOR MANEUVER
000269:
000270:                                                                                                  #  CALLING SEQUENCE
000271:
000272:                                                                                                  #        ASTRONAUT REQUEST THRU DSKY
000273:
000274:                                                                                                  #        V37E39E         IF THIS VEHICLE IS ACTIVE VEHICLE
000275:                                                                                                  #        V37E79E         IF OTHER VEHICLE IS ACTIVE VEHICLE
000276:
000277:                                                                                                  #  INPUT
000278:
000279:                                                                                                  #        (1)  TPASS4     TIME OF INTERCEPT - SAVED FROM P38/P78
000280:                                                                                                  #        (2)  TARGTIME   TIME THAT PASSIVE VEHICLE IS AT INTERCEPT POINT -
000281:                                                                                                  #                        SAVED FROM P38/P78
000282:
000283:                                                                                                  #  OUTPUT
000284:
000285:                                                                                                  #        (1)  TRKMKCNT   NUMBER OF MARKS
000286:                                                                                                  #        (2)  TTOGO      TIME TO GO
000287:                                                                                                  #        (3)  +MGA       MIDDLE GIMBAL ANGLE
000288:                                                                                                  #        (4)  DELVLVC    DELTA VELOCITY AT MID - LOCAL VERTICAL COORDINATES
000289:
000290:                                                                                                  #  SUBROUTINES USED
000291:
000292:                                                                                                  #        AVFLAGA
000293:                                                                                                  #        AVFLAGP
000294:                                                                                                  #        LOADTIME
000295:                                                                                                  #        SELECTMU
000296:                                                                                                  #        PRECSET
000297:                                                                                                  #        S34/35.1
000298:                                                                                                  #        MAINRTNE
000299:
000300: 34,3630           04655        P39                TC       BANKCALL
000301: 34,3631           72405                           CADR     AVFLAGA                               #  THIS VEHICLE ACTIVE
000302: 34,3632           00006                           EXTEND
000303: 34,3633           31401                           DCA      ATIGINC
000304: 34,3634           03641                           TC       P39/P79A
000305: 34,3635           04655        P79                TC       BANKCALL
000306: 34,3636           72412                           CADR     AVFLAGP                               #  OTHER VEHICLE ACTIVE
000307: 34,3637           00006                           EXTEND
000308: 34,3640           31403                           DCA      PTIGINC
000309: 34,3641           53563        P39/P79A           DXCH     KT                                    #  TIME TO PREPARE FOR BURN
000310: 34,3642           06014                           TC       INTPRET
000311: 34,3643           43234                           RTB      DAD
000312: 34,3644           21454                                    LOADTIME
000313: 34,3645           03563                                    KT
000314: 34,3646           37425                           STCALL   TIG
000315: 34,3647           20045                                    SELECTMU                              #  SELECT MU, CLEAR FINALFLG, GO TO VN1645
000316: 34,3650           43145        P39/P79C           DLOAD    SET
000317: 34,3651           03425                                    TIG
000318: 34,3652           04066                                    P39/79SW
000319: 34,3653           34041                           STCALL   TDEC1                                 #  PRECISION UPDATE ACTIVE AND PASSIVE
000320: 34,3654           46150                                    PRECSET                               #     VEHICLES TO TIG
000321: 34,3655           77624                           CALL
000322: 34,3656           73226                                    S34/35.1                              #  GET UNIT NORMAL
000323: 34,3657           52145                           DLOAD    GOTO
000324: 34,3660           02323                                    TARGTIME
000325: 34,3661           71543                                    MAINRTNE                              #  CALCULATE DELTA V AND DELTA V (LV)
000326:
000327: 34,3662           43234        P39/P79B           RTB      DAD
000328: 34,3663           21454                                    LOADTIME
000329: 34,3664           03563                                    KT
000330: 34,3665           37425                           STCALL   TIG                                   #  TIG = T (PRESENT) + PREPARATION TIME
000331: 34,3666           71650                                    P39/P79C
000332:
000333:                                                                                                  #  .... PREC/TT ....
000334:                                                                                                  #  SUBROUTINES USED
000335:
000336:                                                                                                  #        PRECSET
000337:                                                                                                  #        TIMETHET
000338:                                                                                                  #        S34/35.1
000339:
000340: 34,3667           71220        PREC/TT            STQ      DLOAD
000341: 34,3670           03452                                    RTRN
000342: 34,3671           03425                                    TIG
000343: 34,3672           34041                           STCALL   TDEC1                                 #  PRECISION UPDATE ACTIVE AND PASSIVE
000344: 34,3673           46150                                    PRECSET                               #     VEHICLES TO TIG
000345: 34,3674           53775                           VLOAD    VSR*
000346: 34,3675           03537                                    RPASS3
000347: 34,3676           57176                                    0,2
000348: 34,3677           16655                           STODL    RVEC
000349: 34,3700           03606                                    CENTANG
000350: 34,3701           71406                           PUSH     COS
000351: 34,3702           16732                           STODL    CSTH
000352: 34,3703           43156                           SIN      SET
000353: 34,3704           03466                                    RVSW
000354: 34,3705           26730                           STOVL    SNTH
000355: 34,3706           03545                                    VPASS3
000356: 34,3707           77657                           VSR*
000357: 34,3710           57176                                    0,2
000358: 34,3711           36744                           STCALL   VVEC                                  #  GET TRANSFER TIME BASED ON CENTANG OF
000359: 34,3712           24732                                    TIMETHET                              #     PASSIVE VEHICLE
000360: 34,3713           77624                           CALL
000361: 34,3714           73226                                    S34/35.1                              #  GET UNIT NORMAL
000362: 34,3715           52145                           DLOAD    GOTO
000363: 34,3716           00037                                    T
000364: 34,3717           03452                                    RTRN
000365:
000366:                                                                                                  #  .... INTRPVP ....
000367:                                                                                                  #  SUBROUTINES USED
000368:
000369:                                                                                                  #        CSMPREC
000370:                                                                                                  #        LEMPREC
000371: 34,3720           43020        INTRPVP            STQ      BOFF                                  #  PRECISION UPDATE PASSIVE VEHICLE TO
000372: 34,3721           03452                                    RTRN                                  #     TDEC1
000373: 34,3722           01352                                    AVFLAG
000374: 34,3723           71730                                    OTHERV
000375: 34,3724           77624                           CALL
000376: 34,3725           27014                                    CSMPREC
000377: 34,3726           77650                           GOTO
000378: 34,3727           03452                                    RTRN
000379: 34,3730           77624        OTHERV             CALL
000380: 34,3731           27030                                    LEMPREC
000381: 34,3732           77650                           GOTO
000382: 34,3733           03452                                    RTRN
000383:
000384:                                                                                                  #  .... VNDSPLY ....
000385:                                                                                                  #  SUBROUTINES USED
000386:
000387:                                                                                                  #        BANKCALL
000388:                                                                                                  #        GOFLASH
000389:                                                                                                  #        GOTOPOOH
000390:
000391: 34,3734           00006        VNDSPLY            EXTEND                                         #  FLASH DISPLAY
000392: 34,3735           23452                           QXCH     RTRN
000393: 34,3736           55602                           TS       VERBNOUN
000394: 34,3737           31602                           CA       VERBNOUN
000395: 34,3740           04655                           TCR      BANKCALL
000396: 34,3741           20406                           CADR     GOFLASH
000397: 34,3742           14106                           TCF      GOTOPOOH                              #  TERMINATE
000398: 34,3743           01452                           TC       RTRN                                  #  PROCEED
000399: 34,3744           13737                           TCF      -5                                    #  RECYCLE
000400: 34,3745           01441        V06N33SR           VN       0633
000401: 34,3746           01467        V06N55SR           VN       0655
000402: 34,3747           01006        V04N06SR           VN       0406
000403: 34,3750           01471        V06N57SR           VN       0657
000404: 34,3751           01442        V06N34SR           VN       0634
000405: 34,3752           01472        V06N58SR           VN       0658
000406: 34,3753           01521        V06N81SR           VN       0681
000407:
000408:
000409:

End of include-file STABLE_ORBIT_-_P38-P39.agc.  Parent file is MAIN.agc


