
Source Code


000002:                                                                                                  ## Copyright:   Public domain.
000003:                                                                                                  ## Filename:    SYSTEM_TEST_STANDARD_LEAD_INS.agc
000004:                                                                                                  ## Purpose:     A section of an attempt to reconstruct Sundance revision 306
000005:                                                                                                  ##              as closely as possible with available information. Sundance
000006:                                                                                                  ##              306 is the source code for the Lunar Module's (LM) Apollo
000007:                                                                                                  ##              Guidance Computer (AGC) for Apollo 9. This program was created
000008:                                                                                                  ##              using the mixed-revision SundanceXXX as a starting point, and
000009:                                                                                                  ##              pulling back features from Luminary 69 believed to have been
000010:                                                                                                  ##              added based on memos, checklists, observed address changes,
000011:                                                                                                  ##              or the Sundance GSOPs.
000012:                                                                                                  ## Assembler:   yaYUL
000013:                                                                                                  ## Contact:     Ron Burkey <info@sandroid.org>.
000014:                                                                                                  ## Website:     www.ibiblio.org/apollo/index.html
000015:                                                                                                  ## Mod history: 2020-07-24 MAS  Created from SundanceXXX.
000016:
000017:
000018: 22,3236  E5,1642                                  EBANK=   XSM
000019:
000020: 33,2000                                           BANK     33
000021: 04,2000                                           SETLOC   E/PROG
000022: 04,2000                                           BANK
000023:
000024: 04,2450                                           COUNT*   $$/P07
000025:
000026:                                                                                                  #  SPECIAL PROGRAMS TO EASE THE PANGS OF ERASABLE MEMORY PROGRAMS.
000027:
000028:                                                                                                  #  E/BKCALL      FOR DOING BANKCALLS FROM AND RETURNING TO ERASABLE.
000029:
000030:                                                                                                  #  THIS ROUTINE IS CALLABLE FROM ERASABLE OR FIXED.  LIKE BANKCALL, HOWEVER, SWITCHING BETWEEN S3 AND S4
000031:                                                                                                  #  IS NOT POSSIBLE.
000032:
000033:                                                                                                  #  THE CALLING SEQUENCE IS:
000034:
000035:                                                                                                  #        TC      BANKCALL
000036:                                                                                                  #        CADR    E/BKCALL
000037:                                                                                                  #        CADR    ROUTINE         WHERE YOU WANT TO GO IN FIXED.
000038:                                                                                                  #        RETURN HERE FROM DISPLAY TERMINATE, BAD STALL OR TC Q.
000039:                                                                                                  #        RETURN HERE FROM DISPLAY PROCEED OR GOOD RETURN FROM STALL.
000040:                                                                                                  #        RETURN HERE FROM DISPLAY ENTER OR RECYCLE.
000041:
000042:                                                                                                  #  THIS ROUTINE REQUIRES TWO ERASABLES (EBUF2, +1) IN UNSWITCHED WHICH ARE UNSHARED BY INTERRUPTS AND
000043:                                                                                                  #  OTHER EMEMORY PROGRAMS.
000044:
000045:                                                                                                  #  A + L ARE PRESERVED THROUGH BANKCALL AND E/BKCALL.
000046:
000047: 04,2450           52134        E/BKCALL           DXCH     BUF2                                  #  SAVE A,L AND GET DP RETURN.
000048: 04,2451           52302                           DXCH     EBUF2                                 #  SAVE DP RETURN.
000049: 04,2452           24301                           INCR     EBUF2                                 #  RETURN +1 BECAUSE DOUBLE CADR.
000050: 04,2453           30006                           CA       BBANK
000051: 04,2454           75062                           MASK     LOW10                                 #  GET CURRENT EBANK.  (SBANK SOMEDAY)
000052: 04,2455           26302                           ADS      EBUF2      +1                         #  FORM BBCON.  (WAS FBANK)
000053: 04,2456           50301                           NDX      EBUF2
000054: 04,2457           27777                           CA       0          -1                         #  GET CADR OF ROUTINE.
000055: 04,2460           04661                           TC       SWCALL                                #  GO TO ROUTINE, SETTING Q TO SWRETURN
000056:                                                                                                  #  AND RESTORING A + L.
000057: 04,2461           02465                           TC       +4                                    #  TX Q, V34, OR BAD STALL RETURN.
000058: 04,2462           02464                           TC       +2                                    #  PROCEED OR GOOD STALL RETURN.
000059: 04,2463           24301                           INCR     EBUF2                                 #  ENTER OR RECYCLE RETURN.
000060: 04,2464           24301                           INCR     EBUF2
000061: 04,2465           52302        E/SWITCH           DXCH     EBUF2
000062: 04,2466           52006                           DTCB
000063:
000064:                                                                                                  #  E/CALL        FOR CALLING A FIXED MEMORY INTERPRETIVE SUBROUTINE FROM ERASABLE AND RETURNING TO ERASABLE.
000065:
000066:                                                                                                  #  THE CALLING SEQUENCE IS...
000067:
000068:                                                                                                  #        RTB
000069:                                                                                                  #                E/CALL
000070:                                                                                                  #        CADR    ROUTINE                 THE INTERPRETIVE SUBROUTINE YOU WANT.
000071:                                                                                                  #                                        RETURNS HERE IN INTERPRETIVE.
000072:
000073: 04,2467           22164        E/CALL             LXCH     LOC                                   #  ADRES -1 OF CADR.
000074: 04,2470           50001                           INDEX    L
000075: 04,2471           30001                           CA       L                                     #  CADR IN A.
000076: 04,2472           24001                           INCR     L
000077: 04,2473           24001                           INCR     L                                     #  RETURN ADRES IN L.
000078: 04,2474           52302                           DXCH     EBUF2                                 #  STORE CADR AND RETURN.
000079: 04,2475           06014                           TC       INTPRET
000080: 04,2476           77624                           CALL
000081: 04,2477           00301                                    EBUF2                                 #  INDIRECTLY EXECUTE ROUTINE.  IT MUST
000082: 04,2500           77776                           EXIT                                           #  LEAVE VIA RVQ OR EQUIVALENT.
000083: 04,2501           22302                           LXCH     EBUF2      +1                         #  PICK UP RETURN.
000084: 04,2502           16015                           TCF      INTPRET    +1                         #  SET LOC AND RETURN TO CALLER.
000085:
000086:                                                                                                  #  E/JOBWAK      FOR WAKING UP ERASABLE MEMORY JOBS.
000087:
000088:                                                                                                  #  THIS ROUTINE MUST BE CALLED IN INTERRUPT OR WITH INTERRUPTS INHIBITED.
000089:
000090:                                                                                                  #  THE CALLING SEQUENCE IS:
000091:
000092:                                                                                                  #        INHINT
000093:                                                                                                  #          .
000094:                                                                                                  #          .
000095:                                                                                                  #        CA      WAKEADR         ADDRESS OF SLEEPING JOB
000096:                                                                                                  #        TC      IBNKCALL
000097:                                                                                                  #        CADR    E/JOBWAK
000098:                                                                                                  #          .                     RETURNS HERE
000099:                                                                                                  #          .
000100:                                                                                                  #          .
000101:                                                                                                  #        RELINT                  IF YOU DID AN INHINT.
000102:
000103: 33,2000                                           BANK     33
000104: 04,2000                                           SETLOC   E/PROG
000105: 04,2000                                           BANK
000106:
000107: 04,2503                                           COUNT*   $$/P07
000108:
000109: 04,2503           05207        E/JOBWAK           TC       JOBWAKE                               #  ARRIVE IWTH ADRES IN A.
000110: 04,2504           45014                           CS       BIT11
000111: 04,2505           50064                           NDX      LOCCTR
000112: 04,2506           26164                           ADS      LOC                                   #  KNOCK FIXED MEMORY BIT OUT OF ADRES.
000113: 04,2507           00072                           TC       RUPTREG3                              #  RETURN
000114:

End of include-file SYSTEM_TEST_STANDARD_LEAD_INS.agc.  Parent file is MAIN.agc


