
Source Code


000002:                                                                                                  ## Copyright:   Public domain.
000003:                                                                                                  ## Filename:    T4RUPT_PROGRAM.agc
000004:                                                                                                  ## Purpose:     A section of an attempt to reconstruct Sundance revision 306
000005:                                                                                                  ##              as closely as possible with available information. Sundance
000006:                                                                                                  ##              306 is the source code for the Lunar Module's (LM) Apollo
000007:                                                                                                  ##              Guidance Computer (AGC) for Apollo 9. This program was created
000008:                                                                                                  ##              using the mixed-revision SundanceXXX as a starting point, and
000009:                                                                                                  ##              pulling back features from Luminary 69 believed to have been
000010:                                                                                                  ##              added based on memos, checklists, observed address changes,
000011:                                                                                                  ##              or the Sundance GSOPs.
000012:                                                                                                  ## Assembler:   yaYUL
000013:                                                                                                  ## Contact:     Ron Burkey <info@sandroid.org>.
000014:                                                                                                  ## Website:     www.ibiblio.org/apollo/index.html
000015:                                                                                                  ## Mod history: 2020-07-24 MAS  Created from SundanceXXX.
000016:
000017:
000018:
000019: 12,2000                                           BANK     12
000020: 06,2000                                           SETLOC   T4RUP
000021: 06,2000                                           BANK
000022:
000023: 06,2000  E6,1412                                  EBANK=   M11
000024: 06,2000                                           COUNT*   $$/T4RPT
000025: 06,2000           54016        T4RUPT             TS       BANKRUPT
000026:
000027: 06,2001           00006                           EXTEND
000028: 06,2002           22012                           QXCH     QRUPT
000029:
000030: 06,2003           11315                           CCS      DSRUPTSW                              #  GOES 7(-1)0 AROUND AND AROUND
000031: 06,2004           12010                           TCF      NORMT4     +1
000032: 06,2005           12007                           TCF      NORMT4
000033:
000034: 06,2006           12134                           TCF      QUIKDSP
000035:
000036: 06,2007           35032        NORMT4             CAF      SEVEN
000037: 06,2010           54070                           TS       RUPTREG1
000038: 06,2011           55315                           TS       DSRUPTSW
000039:
000040:
000041:    4072                                           BLOCK    02
000042:    4000                                           SETLOC   FFTAG10
000043:    4000                                           BANK
000044:
000045:    4072                                           COUNT*   $$/T4RPT
000046:    4072     7701               100MRUPT           =        OCT37766                              #  (DEC 16374)
000047:                                                                                                  #  RELTAB IS A PACKED TABLE. RELAYWORD CODE IN UPPER 4 BITS, RELAY CODE
000048:                                                                                                  #  IN LOWER 5 BITS.
000049:
000050:    4072           04025        RELTAB             OCT      04025
000051:    4073           10003                           OCT      10003
000052:    4074           14031                           OCT      14031
000053:    4075           20033                           OCT      20033
000054:    4076           24017                           OCT      24017
000055:    4077           30036                           OCT      30036
000056:    4100           34034                           OCT      34034
000057:    4101           40023                           OCT      40023
000058:    4102           44035                           OCT      44035
000059:    4103           50037                           OCT      50037
000060:    4104           54000                           OCT      54000
000061:    4105           60000        RELTAB11           OCT      60000
000062:
000063:
000064:                                                                                                  #           SWITCHED-BANK PORTION.
000065:
000066: 12,2000                                           BANK     12
000067: 06,2000                                           SETLOC   T4RUP
000068: 06,2000                                           BANK
000069:
000070: 06,2012                                           COUNT*   $$/T4RPT
000071: 06,2012           11037        CDRVE              CCS      DSPTAB     +11D
000072: 06,2013           02063                           TC       DSPOUT
000073: 06,2014           02063                           TC       DSPOUT
000074:
000075: 06,2015           57037                           XCH      DSPTAB     +11D
000076: 06,2016           74370                           MASK     LOW11
000077: 06,2017           55037                           TS       DSPTAB     +11D
000078: 06,2020           64105                           AD       RELTAB11
000079: 06,2021           00006                           EXTEND
000080: 06,2022           01010                           WRITE    OUT0
000081: 06,2023           02071                           TC       HANG20
000082:
000083:                                                                                                  #  DSPOUT PROGRAM. PUTS OUT DISPLAYS.
000084:
000085: 06,2024           55017        DSPOUTSB           TS       NOUT
000086: 06,2025           45030                           CS       ZERO
000087: 06,2026           54073                           TS       DSRUPTEM                              #  SET TO -0 FOR 1ST PASS THRU DSPTAB
000088: 06,2027           56777                           XCH      DSPCNT
000089: 06,2030           65027                           AD       NEG0                                  #  TO PREVENT +0
000090: 06,2031           54777                           TS       DSPCNT
000091: 06,2032           50777        DSPSCAN            INDEX    DSPCNT
000092: 06,2033           11024                           CCS      DSPTAB
000093: 06,2034           10777                           CCS      DSPCNT                                #  IF DSPTAB ENTRY +, SKIP
000094: 06,2035           12030                           TCF      DSPSCAN    -2                         #  IF DSPCNT +, TRY AGAIN
000095: 06,2036           12047                           TCF      DSPLAY                                #  IF DSPTAB ENTRY -, DISPLAY
000096: 06,2037           00012        TABLNTH            OCT      12                                    #  DEC 10   LENGTH OF DSPTAB
000097: 06,2040           10073                           CCS      DSRUPTEM                              #  IF DSRUPTEM=+0,2ND PASS THRU DSPTAB
000098: 06,2041           37764        120MRUPT           DEC      16372      B-14                       #  (DSPCNT = 0). +0 INTO NOUT.
000099: 06,2042           55017                           TS       NOUT
000100: 06,2043           00002                           TC       Q
000101: 06,2044           54073                           TS       DSRUPTEM                              #  IF DSRUPTEM=-0,1ST PASS THRU DSPTAB
000102: 06,2045           32037                           CAF      TABLNTH                               #  (DSPCNT=0). +0 INTO DSRUPTEM. PASS AGAIN
000103: 06,2046           12031                           TCF      DSPSCAN    -1
000104:
000105: 06,2047           65026        DSPLAY             AD       ONE
000106: 06,2050           50777                           INDEX    DSPCNT
000107: 06,2051           55024                           TS       DSPTAB                                #  REPLACE POSITIVELY
000108: 06,2052           74370                           MASK     LOW11                                 #  REMOVE BITS 12 TO 15
000109: 06,2053           54073                           TS       DSRUPTEM
000110: 06,2054           34362                           CAF      HI5
000111: 06,2055           50777                           INDEX    DSPCNT
000112: 06,2056           74072                           MASK     RELTAB                                #  PICK UP BITS 12 TO 15 OF RELTAB ENTRY
000113: 06,2057           60073                           AD       DSRUPTEM
000114: 06,2060           00006                           EXTEND
000115: 06,2061           01010                           WRITE    OUT0
000116:
000117: 06,2062           16713                           TCF      Q+1
000118:
000119:
000120: 06,2063           10101        DSPOUT             CCS      FLAGWRD5                              #  IS DSKY FLAG ON
000121: 06,2064           35030                           CAF      ZERO                                  #  NO
000122: 06,2065           12130                           TCF      NODSPOUT                              #  NO
000123: 06,2066           11017                           CCS      NOUT                                  #  YES
000124: 06,2067           02024                           TC       DSPOUTSB
000125: 06,2070           12130                           TCF      NODSPOUT                              #  NO DISPLAY REQUESTS
000126:
000127: 06,2071           42171        HANG20             CS       14,11,9
000128: 06,2072           27315                           ADS      DSRUPTSW
000129:
000130: 06,2073           37703                           CAF      20MRUPT
000131:
000132: 06,2074           54027        SETTIME4           TS       TIME4
000133:
000134:                                                                                                  #  THE STATUS OF THE PROCEED PUSHBUTTON IS MONITORED EVERY 120 MILLISECONDS VIA THE CHANNEL 32 BIT 14 INBIT.
000135:                                                                                                  #  THE STATE OF THIS INBIT IS COMPARED WITH ITS STATE DURING THE PREVIOUS T4RUPT AND IS PROCESSED AS FOLLOWS.
000136:
000137:                                                                                                  #     IF PREV ON AND NOW ON    -   BYPASS
000138:                                                                                                  #     IF PREV ON AND NOW OFF   -   UPDATE IMODES33
000139:                                                                                                  #     IF PREV OFF AND NOW ON   -   UPDATE IMODES33 AND PROCESS VIA PINBALL
000140:                                                                                                  #     IF PREV OFF AND NOW OFF  -   BYPASS
000141:
000142:                                                                                                  #  THE LOGIC EMPLOYED REQUIRES ONLY 9 MCT (APPROX. 108 MICROSECONDS) OF COMPUTER TIME WHEN NO CHANGES OCCUR.
000143:
000144:
000145: 06,2075           31305        PROCEEDE           CA       IMODES33                              #  MONITIOR FOR PROCEED BUTTON
000146: 06,2076           00006                           EXTEND
000147: 06,2077           06032                           RXOR     CHAN32
000148: 06,2100           75011                           MASK     BIT14
000149: 06,2101           00006                           EXTEND
000150: 06,2102           12116                           BZF      T4JUMP                                #  NO CHANGE
000151:
000152: 06,2103           23305                           LXCH     IMODES33
000153: 06,2104           00006                           EXTEND
000154: 06,2105           06001                           RXOR     LCHAN
000155: 06,2106           55305                           TS       IMODES33                              #  UPDATE IMODES33
000156: 06,2107           75011                           MASK     BIT14
000157: 06,2110           10000                           CCS      A
000158: 06,2111           12116                           TCF      T4JUMP                                #  WAS ON - NOW OFF
000159:
000160: 06,2112           34367                           CAF      CHRPRIO                               #  WAS OFF - NOW ON
000161: 06,2113           05142                           TC       NOVAC
000162: 06,2114     1000                                  EBANK=   DSPCOUNT
000163: 06,2114           03554 60102                     2CADR    PROCKEY
000164:
000165:                                                                                                  #           JUMP TO APPROPRIATE ONCE-PER SECOND (.96 SEC ACTUALLY) ACTIVITY
000166:
000167: 06,2116           50070        T4JUMP             INDEX    RUPTREG1
000168: 06,2117           12120                           TCF      +1
000169:
000170: 06,2120           03153                           TC       RCSMONIT
000171: 06,2121           13011                           TCF      RRAUTCHK
000172: 06,2122           12172                           TCF      IMUMON
000173: 06,2123           13127                           TCF      DAPT4S
000174: 06,2124           03153                           TC       RCSMONIT
000175: 06,2125           13011                           TCF      RRAUTCHK
000176: 06,2126           12172                           TCF      IMUMON
000177: 06,2127           13127                           TCF      DAPT4S
000178:
000179: 06,2130     7703               20MRUPT            =        OCT37776                              #  (DEC 16382)
000180:
000181:                                                                                                  #           ADDITIONAL ROUTINES FOR 20MS. KEYBOARD ACTIVITY
000182:
000183: 06,2130           00006        NODSPOUT           EXTEND
000184: 06,2131           01010                           WRITE    OUT0
000185:
000186: 06,2132           32041                           CAF      120MRUPT                              # SET FOR NEXT CDRIVE
000187: 06,2133           12074                           TCF      SETTIME4
000188:
000189: 06,2134           35011        QUIKDSP            CAF      BIT14
000190: 06,2135           71315                           MASK     DSRUPTSW
000191: 06,2136           00006                           EXTEND
000192: 06,2137           12165                           BZF      QUIKOFF                               #  WROTE LAST TIME, NOW TURN OFF RELAYS.
000193:
000194: 06,2140           11017                           CCS      NOUT
000195: 06,2141           02024                           TC       DSPOUTSB
000196: 06,2142           12152                           TCF      NODSPY                                #  NOUT=0 OR BAD RETURN FROM DSPOUTSB
000197: 06,2143           45011                           CS       BIT14                                 #  GOOD RETURN (WE DISPLAYED SOMETHING)
000198: 06,2144           27315        QUIKRUPT           ADS      DSRUPTSW
000199:
000200: 06,2145           37703                           CAF      20MRUPT
000201: 06,2146           54027                           TS       TIME4
000202:
000203: 06,2147           35016                           CAF      BIT9
000204: 06,2150           27315                           ADS      DSRUPTSW
000205:
000206: 06,2151           05340                           TC       RESUME
000207:
000208: 06,2152           00006        NODSPY             EXTEND
000209: 06,2153           01010                           WRITE    OUT0
000210:
000211: 06,2154           37703        SYNCT4             CAF      20MRUPT
000212: 06,2155           26027                           ADS      TIME4
000213:
000214: 06,2156           35016                           CAF      BIT9
000215: 06,2157           27315                           ADS      DSRUPTSW
000216:
000217: 06,2160           11315                           CCS      DSRUPTSW
000218: 06,2161           05340                           TC       RESUME
000219: 06,2162           37737        OCT37737           OCT      37737
000220: 06,2163           02154                           TC       SYNCT4
000221: 06,2164           05340                           TC       RESUME
000222:
000223: 06,2165           00006        QUIKOFF            EXTEND
000224: 06,2166           01010                           WRITE    OUT0
000225: 06,2167           35011                           CAF      BIT14                                 #  RESET DSRUPTSW TO SEND DISPLAY NEXT PASS
000226: 06,2170           12144                           TCF      QUIKRUPT
000227:
000228: 06,2171           22400        14,11,9            OCT      22400
000229:
000230:                                                                                                  #  PROGRAM NAME:  IMUMON
000231:
000232:                                                                                                  #  FUNCTIONAL DESCRIPTION:  THIS PROGRAM IS ENTERED EVERY 480 MS.  IT DETECTS CHANGES OF THE IMU STATUS BITS IN
000233:                                                                                                  #  CHANNEL 30 AND CALLS THE APPROPRIATE SUBROUTINES.  THE BITS PROCESSED AND THEIR RELEVANT SUBROUTINES ARE:
000234:
000235:                                                                                                  #           FUNCTION               BIT    SUBROUTINE CALLED
000236:                                                                                                  #           --------               ---    -----------------
000237:                                                                                                  #           TEMP IN LIMITS          15    TLIM
000238:                                                                                                  #           ISS TURN-ON REQUEST     14    ITURNON
000239:                                                                                                  #           IMU FAIL                13    IMUFAIL (SETISSW)
000240:                                                                                                  #           IMU CDU FAIL            12    ICDUFAIL (SETISSW)
000241:                                                                                                  #           IMU CAGE                11    IMUCAGE
000242:                                                                                                  #           IMU OPERATE              9    IMUOP
000243:
000244:                                                                                                  #           THE LAST SAMPLED STATE OF THESE BITS IS LEFT IN IMODES30.  ALSO, EACH SUBROUTINE CALLED FINDS THE NEW
000245:                                                                                                  #  VALUE OF THE BIT IN A, WITH Q SET TO THE PROPER RETURN LOCATION, NXTIFAIL.
000246:
000247:                                                                                                  #  CALLING SEQUENCE:  T4RUPT EVERY 480 MILLISECONDS.
000248:
000249:                                                                                                  #  JOBS OR TASKS INITIATED:  NONE.
000250:
000251:                                                                                                  #  SUBROUTINES CALLED:  TLIM, ITURNON, SETISSW, IMUCAGE, IMUOP.
000252:
000253:                                                                                                  #  ERASABLE INITIALIZATION:
000254:                                                                                                  #           FRESH START OR RESTART WITH NO GROUPS ACTIVE: C(IMODES30) = OCT 37411.
000255:                                                                                                  #           RESTART WITH ACTIVE GROUPS: C(IMODES30) = (B(IMODES30)AND(OCT 00035)) PLUS OCT 37400.
000256:                                                                                                  #                                       THIS LEAVES IMU FAIL BITS INTACT.
000257:
000258:                                                                                                  #  ALARMS:  NONE.
000259:
000260:                                                                                                  #  EXIT:  TNONTEST.
000261:
000262:                                                                                                  #  OUTPUT:  UPDATED IMODES30 WITH CHANGES PROCESSED BY APPROPRIATE SUBROUTINE.
000263:
000264: 06,2172           31304        IMUMON             CA       IMODES30                              #  SEE IF THERE HAS BEEN A CHANGE IN THE
000265: 06,2173           00006                           EXTEND                                         #  RELEVANT BITS OF CHAN 30.
000266: 06,2174           06030                           RXOR     CHAN30
000267: 06,2175           72763                           MASK     30RDMSK
000268: 06,2176           00006                           EXTEND
000269: 06,2177           12227                           BZF      TNONTEST                              #  NO CHANGE IN STATUS.
000270:
000271: 06,2200           54070                           TS       RUPTREG1                              #  SAVE BITS WHICH HAVE CHANGED.
000272: 06,2201           23304                           LXCH     IMODES30                              #  UPDATE IMODES30.
000273: 06,2202           00006                           EXTEND
000274: 06,2203           06001                           RXOR     LCHAN
000275: 06,2204           55304                           TS       IMODES30
000276:
000277: 06,2205           45026                           CS       ONE
000278: 06,2206           56070                           XCH      RUPTREG1
000279: 06,2207           00006                           EXTEND
000280:
000281: 06,2210           62521                           BZMF     TLIM                                  #  CHANGE IN IMU TEMP.
000282: 06,2211           12213                           TCF      NXTIFBIT                              #  BEGIN BIT SCAN.
000283:
000284: 06,2212           65026                 -1        AD       ONE                                   #  (RE-ENTERS HERE FROM NXTIFAIL.)
000285: 06,2213           24070        NXTIFBIT           INCR     RUPTREG1                              #  ADVANCE BIT POSITION NUMBER.
000286: 06,2214           60000                 +1        DOUBLE
000287: 06,2215           54000                           TS       A                                     #  SKIP IF OVERFLOW.
000288: 06,2216           12213                           TCF      NXTIFBIT                              #  LOOK FOR BIT.
000289:
000290: 06,2217           56071                           XCH      RUPTREG2                              #  SAVE OVERFLOW-CORRECTED DATA.
000291: 06,2220           50070                           INDEX    RUPTREG1                              #  SELECT NEW VALUE OF THIS BIT.
000292: 06,2221           35011                           CAF      BIT14
000293: 06,2222           71304                           MASK     IMODES30
000294: 06,2223           50070                           INDEX    RUPTREG1
000295: 06,2224           02757                           TC       IFAILJMP
000296:
000297: 06,2225           10071        NXTIFAIL           CCS      RUPTREG2                              #  PROCESS ANY ADDITIONAL CHANGES.
000298: 06,2226           12212                           TCF      NXTIFBIT   -1
000299:
000300:                                                                                                  #  PROGRAM NAME:  TNONTEST.
000301:
000302:                                                                                                  #  FUNCTIONAL DESCRIPTION:  THIS PROGRAM HONORS REQUESTS FOR ISS INITIALIZATION.  ISS TURN-ON (CHANNEL 30 BIT 14)
000303:                                                                                                  #  AND ISS OPERATE (CHANNEL 30 BIT 9) REQUESTS ARE TREATED AS A PAIR AND PROCESSING TAKES PLACE .480 SECONDS
000304:                                                                                                  #  AFTER EITHER ONE APPEARS.  THIS INITIALIZATION TAKES ON ONE OF THE FOLLOWING THREE FORMS:
000305:
000306:                                                                                                  #           1)  ISS TURN-ON:  IN THIS SITUATION THE COMPUTER IS OPERATING WHEN THE ISS IS TURNED ON.  NOMINALLY,
000307:                                                                                                  #           BOTH ISS TURN-ON AND ISS OPERATE APPEAR.  THE PLATFORM IS CAGED FOR 90 SECONDS AND THE ICDU'S ZEROED
000308:                                                                                                  #           SO THAT AT THE END OF THE PROCESS THE GIMBAL LOCK MONITOR WILL FUNCTION PROPERLY.
000309:
000310:                                                                                                  #           2)  ICDU INITIALIZATION:  IN THIS CASE THE COMPUTER WAS PROBABLY TURNED ON WITH THE ISS IN OPERATE OR
000311:                                                                                                  #           A FRESH START WAS DONE WITH THE ISS IN OPERATE.  IN THIS CASE ONLY ISS OPERATE IS ON.  THE ICDU'S ARE
000312:                                                                                                  #           ZEROED SO THE GIMBAL LOCK MONITOR WILL FUNCTION.  AN EXCEPTION IS IF THE ISS IS IN GIMBAL LOCK AFTER
000313:                                                                                                  #           A RESTART, THE ICDU'S WILL NOT BE ZEROED.
000314:
000315:                                                                                                  #           3)  RESTART WITH RESTARTABLE PROGRAM USING THE IMU:  IN THIS CASE, NO INITIALIZATION TAKES PLACE SINCE
000316:                                                                                                  #           IT IS ASSUMED THAT THE USING PROGRAM DID THE INITIALIZATION AND THEREFORE T4RUPT SHOULD NOT INTERFERE.
000317:
000318:                                                                                                  #  IMODES30 BIT 7 IS SET = 1 BY THE FIRST BIT (CHANNEL 30 BIT 14 OR 9) WHICH ARRIVES.  FOLLOWING THIS. TNONTEST IS
000319:                                                                                                  #  ENTERED, FINDS BIT 7 = 1 BUT BIT 8 = 0, SO IT SETS BIT 8 = 1 AND EXITS.  THE NEXT TIME IT FINDS BIT 8 = 1 AND
000320:                                                                                                  #  PROCEEDS, SETTING BITS 8 AND 7 = 0.  AT PROCTNON, IF ISS TURN-ON REQUEST IS PRESENT, THE ISS IS CAGED (ZERO +
000321:                                                                                                  #  COARSE).  IF ISS OPERATE IS NOT PRESENT PROGRAM ALARM 00213 IS ISSUED.  AT THE END OF A 90 SECOND CAGE, BIT 2
000322:                                                                                                  #  OF IMODES30 IS TESTED.  IF IT IS = 1, ISS TURN-ON WAS NOT PRESENT FOR THE ENTIRE 90 SECONDS.  IN THAT CASE, IF
000323:                                                                                                  #  THE ISS TURN-ON REQUEST IS PRESENT THE 90 SECOND WAIT IS REPEATED, OTHERWISE NO ACTION OCCURS UNLESS A PROGRAM
000324:                                                                                                  #  WAS WAITING FOR THE INITIALIZATION IN WHICH CASE THE PROGRAM IS GIVEN AN IMUSTALL ERROR RETURN.  IF THE DELAY
000325:                                                                                                  #  WENT PROPERLY, THE ISS DELAY OUTBIT IS SENT AND THE ICDU'S ZEROED.  A TASK IS INITIATED TO REMOVE THE PIPA FAIL
000326:                                                                                                  #  INHIBIT BIT IN 10.24 SECONDS.  IF A MISSION PROGRAM WAS WAITING IT IS INFORMED VIA ENDIMU.
000327:
000328:                                                                                                  #  AT PROCTNON, IF ONLY ISS OPERATE IS PRESENT (OPONLY), THE CDU'S ARE ZEROED UNLESS THE PLATFORM IS IN COARSE
000329:                                                                                                  #  ALIGN (= GIMBAL LOCK HERE) OR A MISSION PROGRAM IS USING THE IMU (IMUSEFLG = 1).
000330:
000331:                                                                                                  #  CALLING SEQUENCE:  T4RUPT EVERY 480 MILLISECONDS AFTER IMUMON.
000332:
000333:                                                                                                  #  JOBS OR TASKS INITIATED:  1) ENDTNON, 90 SECONDS AFTER CAGING STARTED.  2) ISSUP, 4 SECONDS AFTER CAGING DONE.
000334:                                                                                                  #           3) PFAILOK, 10.24 SECONDS AFTER INITIALIZATION COMPLETED.  4) UNZ2, 320 MILLISECONDS AFTER ZEROING
000335:                                                                                                  #           STARTED.
000336:
000337:                                                                                                  #  SUBROUTINES CALLED:  CAGESUB, CAGESUB2, ZEROICDU, ENDIMU, IMUBAD, NOATTOFF, SETISSW, VARDELAY.
000338:
000339:                                                                                                  #  ERASABLE INITIALIZATION:  SEE IMUMON.
000340:
000341:                                                                                                  #  ALARMS:  PROGRAM ALARM 00213 IF ISS TURN-ON REQUESTED WITHOUT ISS OPERATE.
000342:
000343:                                                                                                  #  EXIT:  ENDTNON EXITS TO C33TEST.  TASKS HAVING TO DO WITH INITIALIZATION EXIT AS FOLLOWS:  MISSION PROGRAM
000344:                                                                                                  #  WAITING AND INITIALIZATION COMPLETE, EXIT TO ENDIMU, MISSION PROGRAM WAITING AND INITIALIZATION FAILED, EXIT TO
000345:                                                                                                  #  IMUBAD, IMU NOT IN USE, EXIT TO TASKOVER.
000346:
000347:                                                                                                  #  OUTPUT:  ISS INITIALIZED.
000348:
000349: 06,2227           41304        TNONTEST           CS       IMODES30                              #  AFTER PROCESSING ALL CHANGES, SEE IF IT
000350:
000351: 06,2230           75020                           MASK     BIT7                                  #  IS TIME TO ACT ON A TURN-ON SEQUENCE.
000352: 06,2231           10000                           CCS      A
000353: 06,2232           12401                           TCF      C33TEST                               #  NO - EXAMINE CHANNEL 33.
000354:
000355: 06,2233           35017                           CAF      BIT8                                  #  SEE IF FIRST SAMPLE OR SECOND.
000356: 06,2234           71304                           MASK     IMODES30
000357: 06,2235           10000                           CCS      A
000358: 06,2236           12242                           TCF      PROCTNON                              #  REACT AFTER SECOND SAMPLE.
000359:
000360: 06,2237           35017                           CAF      BIT8                                  #  IF FIRST SAMPLE, SET BIT TO REACT NEXT
000361: 06,2240           27304                           ADS      IMODES30                              #  TIME.
000362: 06,2241           12401                           TCF      C33TEST
000363:
000364:                                                                                                  #           PROCESS IMU TURN-ON REQUESTS AFTER WAITING 1 SAMPLE FOR ALL SIGNALS TO ARRIVE.
000365:
000366: 06,2242           43002        PROCTNON           CS       BITS7&8
000367: 06,2243           71304                           MASK     IMODES30
000368: 06,2244           55304                           TS       IMODES30
000369: 06,2245           75011                           MASK     BIT14                                 #  SEE IF TURN-ON REQUEST.
000370: 06,2246           10000                           CCS      A
000371: 06,2247           12354                           TCF      OPONLY                                #  OPERATE ON ONLY.
000372:
000373: 06,2250           41304                           CS       IMODES30                              #  IF TURN-ON REQUEST, WE SHOULD HAVE IMU
000374: 06,2251           75016                           MASK     BIT9                                  #  OPERATE.
000375: 06,2252           10000                           CCS      A
000376: 06,2253           12256                           TCF      +3
000377:
000378: 06,2254           05651                           TC       ALARM                                 #  ALARM IF NOT.
000379: 06,2255           00213                           OCT      213
000380:
000381: 06,2256           02737                 +3        TC       CAGESUB
000382: 06,2257           33010                           CAF      90SECS
000383: 06,2260           05252                           TC       WAITLIST
000384: 06,2261  E6,1412                                  EBANK=   M11
000385: 06,2261           02266 14006                     2CADR    ENDTNON
000386:
000387: 06,2263           12401                           TCF      C33TEST
000388:
000389: 06,2264           33010        RETNON             CAF      90SECS
000390: 06,2265           05274                           TC       VARDELAY
000391:
000392: 06,2266           45025        ENDTNON            CS       BIT2                                  #  RESET TURN-ON REQUEST FAIL BIT.
000393: 06,2267           71304                           MASK     IMODES30
000394: 06,2270           57304                           XCH      IMODES30
000395: 06,2271           75025                           MASK     BIT2                                  #  IF IT WAS OFF, SEND ISS DELAY COMPLETE.
000396: 06,2272           00006                           EXTEND
000397: 06,2273           12306                           BZF      ENDTNON2
000398:
000399: 06,2274           35011                           CAF      BIT14                                 #  IF IT WAS ON AND TURN-ON REQUEST NOW
000400:
000401: 06,2275           71304                           MASK     IMODES30                              #  PRESENT, RE-ENTER 90 SEC DELAY IN WL.
000402: 06,2276           00006                           EXTEND
000403: 06,2277           12264                           BZF      RETNON
000404:
000405: 06,2300           40074                           CS       FLAGWRD0                              #  IF IT IS NOT ON NOW, SEE IF A PROG WAS
000406: 06,2301           75017                           MASK     IMUSEBIT                              #  WAITING.
000407: 06,2302           10000                           CCS      A
000408: 06,2303           15331                           TCF      TASKOVER
000409: 06,2304           04674                           TC       POSTJUMP
000410: 06,2305           17550                           CADR     IMUBAD                                #  UNSUCCESSFUL TURN-ON.
000411:
000412: 06,2306           35010        ENDTNON2           CAF      BIT15                                 #  SEND ISS DELAY COMPLETE.
000413: 06,2307           00006                           EXTEND
000414: 06,2310           05012                           WOR      CHAN12
000415:
000416: 06,2311           04737                           TC       IBNKCALL                              #  TURN OFF NO ATT LAMP.
000417: 06,2312           17177                           CADR     NOATTOFF
000418:
000419: 06,2313           07722        UNZ2               TC       ZEROICDU
000420:
000421: 06,2314           42776                           CS       BITS4&5                               #  REMOVE ZERO AND COARSE.
000422: 06,2315           00006                           EXTEND
000423: 06,2316           03012                           WAND     CHAN12
000424:
000425: 06,2317           35014                           CAF      BIT11                                 #  WAIT 10 SECS FOR CTRS TO FIND GIMBALS
000426: 06,2320           05274                           TC       VARDELAY
000427:
000428: 06,2321           42777        ISSUP              CS       OCT54                                 #  REMOVE CAGING, IMU FAIL INHIBIT, AND
000429: 06,2322           71304                           MASK     IMODES30                              #  ICDUFAIL INHIBIT FLAGS.
000430: 06,2323           55304                           TS       IMODES30
000431:
000432: 06,2324           45021                           CS       BIT6                                  #  ENABLE DAP
000433: 06,2325           71305                           MASK     IMODES33
000434: 06,2326           55305                           TS       IMODES33
000435:
000436: 06,2327           40076                           CS       FLAGWRD2                              #  TEST DRIFTFLG: IF ON, DO NOTHING BECAUSE
000437: 06,2330           75010                           MASK     DRFTBIT                               #  IMUCOMP SHOULD BE ALL SET UP(RESTART
000438: 06,2331           00006                           EXTEND                                         #  WITH IMUSE DOWN).  IF OFF, SET DRIFTFLG
000439: 06,2332           12336                           BZF      +4                                    #  AND 1/PIPADT TO GET FREEFALL IMUCOMP
000440: 06,2333           26076                           ADS      FLAGWRD2                              #  GOING (FRESH START OR ISS TURN-ON).
000441: 06,2334           30025                           CA       TIME1
000442: 06,2335           57075                           XCH      1/PIPADT                              #  CANNOT GET HERE IF RESTART WITH IMUSE UP
000443:
000444: 06,2336           02705                           TC       SETISSW                               #  ISS WARNING MIGHT HAVE BEEN INHIBITED.
000445:
000446: 06,2337           45010                           CS       BIT15                                 #  REMOVE IMU DELAY COMPLETE DISCRETE.
000447: 06,2340           00006                           EXTEND
000448: 06,2341           03012                           WAND     CHAN12
000449:
000450: 06,2342           35053                           CAF      4SECS                                 #  DONT ENABLE PROG ALARM ON PIP FAIL FOR
000451:
000452: 06,2343           05252                           TC       WAITLIST                              #  ANOTHER 4 SECS.
000453: 06,2344  E3,1474                                  EBANK=   CDUIND
000454: 06,2344           03165 16003                     2CADR    PFAILOK
000455:
000456: 06,2346           40074                           CS       STATE                                 #  SEE IF ANYONE IS WAITING FOR THE IMU AT
000457: 06,2347           75017                           MASK     IMUSEFLG                              #  IMUZERO. IF SO, WAKE THEM UP.
000458: 06,2350           10000                           CCS      A
000459: 06,2351           15331                           TCF      TASKOVER
000460:
000461: 06,2352           04674                           TC       POSTJUMP
000462: 06,2353           17542                           CADR     ENDIMU
000463:
000464: 06,2354           35023        OPONLY             CAF      BIT4                                  #  IF OPERATE ON ONLY, AND WE ARE IN COARSE
000465: 06,2355           00006                           EXTEND                                         #  ALIGN, DONT ZERO THE CDUS BECAUSE WE
000466: 06,2356           02012                           RAND     CHAN12                                #  MIGHT BE IN GIMBAL LOCK
000467: 06,2357           10000                           CCS      A
000468: 06,2360           12401                           TCF      C33TEST
000469:
000470: 06,2361           35017                           CAF      IMUSEBIT                              #  OTHERWISE, ZERO THE COUNTERS.
000471: 06,2362           70074                           MASK     FLAGWRD0                              #  UNLESS SOMEONE IS USING THE IMU.
000472: 06,2363           10000                           CCS      A
000473: 06,2364           12401                           TCF      C33TEST
000474:
000475: 06,2365           02750                           TC       CAGESUB2                              #  SET TURNON FLAGS.
000476:
000477: 06,2366           04737        ISSZERO            TC       IBNKCALL                              #  TURN OFF NO ATT LAMP
000478: 06,2367           17177                           CADR     NOATTOFF                              #      IMU CAGE OFF ENTRY
000479:
000480: 06,2370           35022                           CAF      BIT5                                  #  ISS CDU ZERO
000481: 06,2371           00006                           EXTEND
000482: 06,2372           05012                           WOR      CHAN12
000483:
000484: 06,2373           07722                           TC       ZEROICDU
000485: 06,2374           35021                           CAF      BIT6                                  #  WAIT 300 MS FOR AGS TO RECEIVE SIGNAL.
000486: 06,2375           05252                           TC       WAITLIST
000487: 06,2376  E6,1412                                  EBANK=   M11
000488: 06,2376           02313 14006                     2CADR    UNZ2
000489:
000490: 06,2400           12401                           TCF      C33TEST
000491:
000492:                                                                                                  #  PROGRAM NAME:  C33TEST
000493:
000494:                                                                                                  #  FUNCTIONAL DESCRIPTION:  THIS PROGRAM MONITORS THREE FLIP-FLOP INBITS OF CHANNEL 33 AND CALLS THE APPROPRIATE
000495:                                                                                                  #  SUBROUTINE TO PROCESS A CHANGE.  IT IS ANALOGOUS TO IMUMON, WHICH MONITORS CHANNEL 30, EXCEPT THAT IT READS
000496:                                                                                                  #  CHANNEL 33 WITH A WAND INSTRUCTION BECAUSE A 'WRITE' PULSE IS REQUIRED TO RESET THE FLIP-FLOPS.  THE BITS
000497:                                                                                                  #  PROCESSED AND THE SUBROUTINES CALLED ARE:
000498:
000499:                                                                                                  #           BIT    FUNCTION                SUBROUTINE
000500:                                                                                                  #           ---    --------                ----------
000501:                                                                                                  #            13    PIPA FAIL               PIPFAIL
000502:                                                                                                  #            12    DOWNLINK TOO FAST       DNTMFAST
000503:                                                                                                  #            11    UPLINK TOO FAST         UPTMFAST
000504:
000505:                                                                                                  #  UPON ENTRY TO THE SUBROUTINE, THE NEW BIT STATE IS IN A.
000506:
000507:                                                                                                  #  CALLING SEQUENCE:  EVERY 480 MILLISECONDS AFTER TNONTEST.
000508:
000509:                                                                                                  #  JOBS OR TASKS INITIATED:  NONE.
000510:
000511:                                                                                                  #  SUBROUTINES CALLED:  PIPFAIL, DNTMFAST AND UPTMFAST ON BIT CHANGES.
000512:
000513:                                                                                                  #  ERASABLE INITIALIZATION:  C(IMODES33) = OCT 16000 ON A FRESH START OR RESTART, THEREFORE, THESE ALARMS WILL
000514:                                                                                                  #  REAPPEAR IF THE CONDITIONS PERSIST.
000515:
000516:                                                                                                  #  ALARMS:  NONE.
000517:
000518:                                                                                                  #  EXIT:  GLOCKMON.
000519:
000520:                                                                                                  #  OUTPUT:  UPDATED BITS 13, 12 AND 11 OF IMODES33 WITH CHANGES PROCESSED.
000521:
000522: 06,2401           31305        C33TEST            CA       IMODES33                              #  SEE IF RELEVANT CHAN33 BITS HAVE
000523: 06,2402           75076                           MASK     33RDMSK
000524: 06,2403           54001                           TS       L                                     #  CHANGED.
000525: 06,2404           35076                           CAF      33RDMSK
000526: 06,2405           00006                           EXTEND
000527: 06,2406           03033                           WAND     CHAN33                                #  RESETS FLIP-FLOP INPUTS
000528: 06,2407           00006                           EXTEND
000529: 06,2410           06001                           RXOR     LCHAN
000530: 06,2411           00006                           EXTEND
000531: 06,2412           12441                           BZF      GLOCKMON                              #  ON NO CHANGE.
000532:
000533: 06,2413           54070                           TS       RUPTREG1                              #  SAVE BITS WHICH HAVE CHANGED.
000534: 06,2414           23305                           LXCH     IMODES33
000535: 06,2415           00006                           EXTEND
000536: 06,2416           06001                           RXOR     LCHAN
000537: 06,2417           55305                           TS       IMODES33                              #  UPDATED IMODES33.
000538:
000539: 06,2420           35030                           CAF      ZERO
000540: 06,2421           56070                           XCH      RUPTREG1
000541: 06,2422           60000                           DOUBLE
000542:
000543: 06,2423           12426                           TCF      NXTIBT     +1                         #  SCAN FOR BIT CHANGES.
000544:
000545: 06,2424           65026                 -1        AD       ONE
000546: 06,2425           24070        NXTIBT             INCR     RUPTREG1
000547: 06,2426           60000                 +1        DOUBLE
000548: 06,2427           54000                           TS       A                                     #  (CODING IDENTICAL TO CHAN 30).
000549: 06,2430           12425                           TCF      NXTIBT
000550:
000551: 06,2431           56071                           XCH      RUPTREG2
000552: 06,2432           50070                           INDEX    RUPTREG1                              #  GET NEW VALUE OF BIT WHICH CHANGED.
000553: 06,2433           35012                           CAF      BIT13
000554: 06,2434           71305                           MASK     IMODES33
000555: 06,2435           50070                           INDEX    RUPTREG1
000556: 06,2436           02765                           TC       C33JMP
000557:
000558: 06,2437           10071        NXTFL33            CCS      RUPTREG2                              #  PROCESS POSSIBLE ADDITIONAL CHANGES.
000559: 06,2440           12424                           TCF      NXTIBT     -1
000560:
000561:                                                                                                  #  PROGRAM NAME:  GLOCKMON
000562:
000563:                                                                                                  #  FUNCTIONAL DESCRIPTION:  THIS PROGRAM MONITORS THE CDUZ COUNTER TO DETERMINE WHETHER THE ISS IS IN GIMBAL LOCK
000564:                                                                                                  #  AND TAKES ACTION IF IT IS.  THREE REGIONS OF MIDDLE GIMBAL ANGLE (MGA) ARE USED:
000565:
000566:                                                                                                  #           1) ABS(MGA) LESS THAN OR EQUAL TO 70 DEGREES - NORMAL MODE.
000567:                                                                                                  #           2) ABS(MGA) GREATER THAN 70 DEGREES AND LESS THAN OR EQUAL TO 85 DEGREES - GIMBAL LOCK LAMP TURNED ON.
000568:                                                                                                  #           3) ABS(MGA) GREATER THAN 85 DEGREES - ISS PUT IN COARSE ALIGN AND NO ATT LAMP TURNED ON.
000569:
000570:                                                                                                  #  CALLING SEQUENCE:  EVERY 480 MILLISECONDS AFTER C33TEST.
000571:
000572:                                                                                                  #  JOBS OR TASKS INITIATED:  NONE.
000573:
000574:                                                                                                  #  SUBROUTINES CALLED:  1) SETCOARS WHEN ABS(MGA) GREATER THAN 85 DEGREES AND ISS NOT IN COARSE ALIGN.
000575:                                                                                                  #                       2) LAMPTEST BEFORE TURNING OFF GIMBAL LOCK LAMP.
000576:
000577:                                                                                                  #  ERASABLE INITIALIZATION:
000578:                                                                                                  #           1) FRESH START OR RESTART WITH NO GROUPS ACTIVE:  C(CDUZ) = 0, IMODES30 BIT 6 = 0, IMODES33 BIT 1 =  0.
000579:                                                                                                  #           2) RESTART WITH GROUPS ACTIVE:  SAME AS FRESH START EXCEPT C(CDUZ) NOT CHANGED SO GIMBAL MONITOR
000580:                                                                                                  #                                           PROCEEDS AS BEFORE.
000581:
000582:                                                                                                  #  ALARMS:  1) MGA REGION (2) CAUSES GIMBAL LOCK LAMP TO BE LIT.
000583:                                                                                                  #           2) MGA REGION (3) CAUSES THE ISS TO BE PUT IN COARSE ALIGN AND THE NO ATT LAMP TO BE LIT IF EITHER NOT
000584:                                                                                                  #              SO ALREADY.
000585:
000586: 06,2441           10034        GLOCKMON           CCS      CDUZ
000587: 06,2442           12446                           TCF      GLOCKCHK                              #  SEE IF MAGNITUDE OF MGA IS GREATER THAN
000588: 06,2443           12472                           TCF      SETGLOCK                              #  70 DEGREES.
000589: 06,2444           12446                           TCF      GLOCKCHK
000590: 06,2445           12472                           TCF      SETGLOCK
000591:
000592: 06,2446           62517        GLOCKCHK           AD       -70DEGS
000593: 06,2447           00006                           EXTEND
000594: 06,2450           62471                           BZMF     SETGLOCK   -1                         #  NO LOCK.
000595:
000596: 06,2451           62520                           AD       -15DEGS                               #  SEE IF ABS(MGA) GREATER THAN 85 DEGREES.
000597: 06,2452           00006                           EXTEND
000598: 06,2453           62467                           BZMF     NOGIMRUN
000599:
000600: 06,2454           35023                           CAF      BIT4                                  #  IF SO, SYSTEM SHOULD BE IN COARSE ALIGN
000601: 06,2455           00006                           EXTEND                                         #  TO PREVENT GIMBAL RUNAWAY.
000602: 06,2456           02012                           RAND     CHAN12
000603: 06,2457           10000                           CCS      A
000604: 06,2460           12467                           TCF      NOGIMRUN
000605:
000606: 06,2461           04737                           TC       IBNKCALL
000607: 06,2462           17055                           CADR     SETCOARS
000608:
000609: 06,2463           36216                           CAF      SIX                                   #  ENABLE ISS ERROR COUNTERS IN 60 MS
000610: 06,2464           05252                           TC       WAITLIST
000611:
000612: 06,2465  E3,1474                                  EBANK=   CDUIND
000613: 06,2465           03051 16003                     2CADR    CA+ECE
000614:
000615: 06,2467           35021        NOGIMRUN           CAF      BIT6                                  #  TURN ON GIMBAL LOCK LAMP.
000616: 06,2470           12472                           TCF      SETGLOCK
000617:
000618: 06,2471           35030                 -1        CAF      ZERO
000619: 06,2472           61037        SETGLOCK           AD       DSPTAB     +11D                       #  SEE IF PRESENT STATE OF GIMBAL LOCK LAMP
000620: 06,2473           75021                           MASK     BIT6                                  #  AGREES WITH DESIRED STATE BY HALF ADDING
000621: 06,2474           00006                           EXTEND                                         #  THE TWO.
000622: 06,2475           15340                           BZF      GLOCKOK                               #  OK AS IS.
000623:
000624: 06,2476           71037                           MASK     DSPTAB     +11D                       #  IF OFF, DONT TURN ON IF IMU BEING CAGED.
000625: 06,2477           10000                           CCS      A
000626: 06,2500           12514                           TCF      GLAMPTST                              #  TURN OFF UNLESS LAMP TEST IN PROGRESS.
000627:
000628: 06,2501           35021                           CAF      BIT6
000629: 06,2502           71304                           MASK     IMODES30
000630: 06,2503           10000                           CCS      A
000631: 06,2504           15340                           TCF      GLOCKOK
000632:
000633: 06,2505           41037        GLINVERT           CS       DSPTAB     +11D                       #  INVERT GIMBAL LOCK LAMP.
000634: 06,2506           75021                           MASK     BIT6
000635: 06,2507           65010                           AD       BIT15                                 #  TO INDICATE CHANGE IN DSPTAB +11D.
000636: 06,2510           57037                           XCH      DSPTAB     +11D
000637: 06,2511           72162                           MASK     OCT37737
000638: 06,2512           27037                           ADS      DSPTAB     +11D
000639: 06,2513           15340                           TCF      GLOCKOK
000640:
000641: 06,2514           02770        GLAMPTST           TC       LAMPTEST                              #  TURN OFF UNLESS LAMP TEST IN PROGRESS.
000642: 06,2515           15340                           TCF      GLOCKOK
000643: 06,2516           12505                           TCF      GLINVERT
000644:
000645: 06,2517           63434        -70DEGS            DEC      -.38888                               #  -70 DEGREES SCALED IN HALF-REVOLUTIONS.
000646: 06,2520           75252        -15DEGS            DEC      -.08333
000647:
000648:                                                                                                  #  PROGRAM NAME:  TLIM.
000649:
000650:                                                                                                  #  FUNCTIONAL DESCRIPTION:  THIS PROGRAM MAINTAINS THE TEMP LAMP (BIT 4 OF CHANNEL 11) ON THE DSKY TO AGREE WITH
000651:                                                                                                  #  THE TEMP SIGNAL FROM THE ISS (BIT 15 OF CHANNEL 30).  HOWEVER, THE LIGHT WILL NOT BE TURNED OFF IF A LAMP TEST
000652:                                                                                                  #  IS IN PROGRESS.
000653:
000654:                                                                                                  #  CALLING SEQUENCE:  CALLED BY IMUMON ON A CHANGE OF BIT 15 OF CHANNEL 30.
000655:
000656:                                                                                                  #  JOBS OR TASKS INITIATED:  NONE.
000657:
000658:                                                                                                  #  SUBROUTINES CALLED:  LAMPTEST.
000659:
000660:                                                                                                  #  ERASABLE INITIALIZATION:  FRESH START AND RESTART TURN THE TEMP LAMP OFF.
000661:
000662:                                                                                                  #  ALARMS:  TEMP LAMP TURNED ON WHEN IMU TEMP GOES OUT OF LIMITS.
000663:
000664:                                                                                                  #  EXIT:  NXTIFAIL.
000665:
000666:                                                                                                  #  OUTPUT:  SERVICE OF TEMP LAMP.                        IN A, EXCEPT FOR TLIM.
000667:
000668: 06,2521           75006        TLIM               MASK     POSMAX                                #  REMOVE BIT FROM WORD OF CHANGES AND SET
000669: 06,2522           54071                           TS       RUPTREG2                              #  DSKY TEMP LAMP ACCORDINGLY.
000670:
000671: 06,2523           11304                           CCS      IMODES30
000672: 06,2524           12532                           TCF      TEMPOK
000673: 06,2525           12532                           TCF      TEMPOK
000674:
000675: 06,2526           35023                           CAF      BIT4                                  #  TURN ON LAMP.
000676: 06,2527           00006                           EXTEND
000677: 06,2530           05011                           WOR      DSALMOUT
000678: 06,2531           12225                           TCF      NXTIFAIL
000679:
000680: 06,2532           02770        TEMPOK             TC       LAMPTEST                              #  IF TEMP NOW OK, DONT TURN OFF LAMP IF
000681: 06,2533           12225                           TCF      NXTIFAIL                              #  LAMP TEST IN PROGRESS.
000682:
000683: 06,2534           45023                           CS       BIT4
000684: 06,2535           00006                           EXTEND
000685: 06,2536           03011                           WAND     DSALMOUT                              #  TURN OFF LAMP
000686: 06,2537           12225                           TCF      NXTIFAIL
000687:
000688:                                                                                                  #  PROGRAM NAME:  ITURNON.
000689:
000690:                                                                                                  #  FUNCTIONAL DESCRIPTION:  THIS PROGRAM IS CALLED BY IMUMON WHEN A CHANGE OF BIT 14 OF CHANNEL 30 (ISS TURN-ON
000691:                                                                                                  #  REQUEST) IS DETECTED.  UPON ENTRY, ITURNON CHECKS IF A TURN-ON DELAY SEQUENCE HAS FAILED, AND IF SO, IT EXITS.
000692:                                                                                                  #  IF NOT, IT CHECKS WHETHER THE TURN-ON REQUEST CHANGE IS TO ON OR OFF.  IF ON, IT SETS BIT7 OF IMODES30 TO 1 SO
000693:                                                                                                  #  THAT TNONTEST WILL INITIATE THE ISS INITIALIZATION SEQUENCE.  IF OFF, THE TURN-ON DELAY SIGNAL, CHANNEL 12 BIT
000694:                                                                                                  #  15, IS CHECKED AND IF IT IS ON, ITURNON EXITS.  IF THE DELAY SIGNAL IS OFF, PROGRAM ALARM 00207 IS ISSUED, BIT 2
000695:                                                                                                  #  OF IMODES30 IS SET TO 1 AND THE PROGRAM EXITS.
000696:                                                                                                  #           THE SETTING OF BIT 2 OF IMODES30 (ISS DELAY SEQUENCE FAIL) INHIBITS THIS ROUTINE AND IMUOP FROM
000697:                                                                                                  #  PROCESSING ANY CHANGES.  THIS BIT WILL BE RESET BY THE ENDTNON ROUTINE WHEN THE CURRENT 90 SECOND DELAY PERIOD
000698:                                                                                                  #  ENDS.
000699:
000700:                                                                                                  #  CALLING SEQUENCE:  FROM IMUMOM WHEN ISS TURN-ON REQUEST CHANGES STATE.
000701:
000702:                                                                                                  #  JOBS OR TASKS INITIATED:  NONE.
000703:
000704:                                                                                                  #  SUBROUTINES CALLED:  ALARM, IF THE ISS TURN-ON REQUEST IS NOT PRESENT FOR 90 SECONDS.
000705:
000706:                                                                                                  #  ERASABLE INITIALIZATION:  FRESH START AND RESTART SET BIT 15 OF CHANNEL 12 AND BITS 2 AND 7 OF IMODES30 TO 0,
000707:                                                                                                  #  AND BIT 14 OF IMODES30 TO 1.
000708:
000709:                                                                                                  #  ALARMS:  PROGRAM ALARM 00207 IS ISSUED IF THE ISS TURN-ON REQUEST SIGNAL IS NOT PRESENT FOR 90 SECONDS.
000710:
000711:                                                                                                  #  EXIT:  NXTIFAIL.
000712:
000713:                                                                                                  #  OUTPUT:  BIT 7 OF IMODES30 TO START ISS INITIALIZATION, OR BIT 2 OF IMODES30 AND PROGRAM ALARM 00207 TO INDICATE
000714:                                                                                                  #  A FAILED TURN-ON SEQUENCE.
000715:
000716: 06,2540           35025        ITURNON            CAF      BIT2                                  #  IF DELAY REQUEST HAS GONE OFF
000717: 06,2541           71304                           MASK     IMODES30                              #  PREMATURELY, DO NOT PROCESS ANY CHANGES
000718: 06,2542           10000                           CCS      A                                     #  UNTIL THE CURRENT 90 SEC WAIT EXPIRES.
000719: 06,2543           12225                           TCF      NXTIFAIL
000720:
000721: 06,2544           35011                           CAF      BIT14                                 #  SEE IF JUST ON OR OFF.
000722: 06,2545           71304                           MASK     IMODES30
000723: 06,2546           00006                           EXTEND
000724: 06,2547           12563                           BZF      ITURNON2                              #  IF JUST ON.
000725:
000726: 06,2550           35010                           CAF      BIT15
000727: 06,2551           00006                           EXTEND                                         #  SEE IF DELAY PRESENT DISCRETE HAS BEEN
000728: 06,2552           02012                           RAND     CHAN12                                #  SENT. IF SO, ACTION COMPLETE
000729: 06,2553           00006                           EXTEND
000730: 06,2554           12556                           BZF      +2
000731: 06,2555           12225                           TCF      NXTIFAIL
000732:
000733: 06,2556           35025                           CAF      BIT2                                  #  IF NOT, SET BIT TO INDICATE REQUEST NOT
000734: 06,2557           27304                           ADS      IMODES30                              #  PRESENT FOR FULL DURATION.
000735: 06,2560           05651                           TC       ALARM
000736: 06,2561           00207                           OCT      207
000737: 06,2562           12225                           TCF      NXTIFAIL
000738:
000739: 06,2563           41304        ITURNON2           CS       IMODES30                              #  SET BIT7 TO INDICATE WAIT OF 1 SAMPLE
000740: 06,2564           75020                           MASK     BIT7
000741: 06,2565           27304                           ADS      IMODES30
000742: 06,2566           32571                           CAF      RRINIT
000743: 06,2567           55101                           TS       RADMODES
000744: 06,2570           12225                           TCF      NXTIFAIL
000745:
000746: 06,2571           00102        RRINIT             OCT      00102
000747:
000748:                                                                                                  #  PROGRAM NAME:  IMUCAGE.
000749:
000750:                                                                                                  #  FUNCTIONAL DESCRIPTION:  THIS PROGRAM PROCESSES CHANGES OF THE IMUCAGE INBIT, CHANNEL 30 BIT 11.  IF THE BIT
000751:                                                                                                  #  CHANGES TO 0 (CAGE BUTTON PRESSED), THE ISS IS CAGED (ICDU ZERO + COARSE ALIGN + NO ATT LAMP) UNTIL THE
000752:                                                                                                  #  ASTRONAUT SELECTS ANOTHER PROGRAM TO ALIGN THE ISS.  ANY PULSE TRAINS TO THE ICDU'S AND GYRO'S ARE TERMINATED,
000753:                                                                                                  #  THE ASSOCIATED OUTCOUNTERS ARE ZEROED AND THE GYRO'S ARE DE-SELECTED.  NO ACTION OCCURS WHEN THE BUTTON IS
000754:                                                                                                  #  RELEASED (INBIT CHANGES TO 1).
000755:
000756:                                                                                                  #  CALLING SEQUENCE:  BY IMUMON WHEN IMU CAGE BIT CHANGES.
000757:
000758:                                                                                                  #  JOBS OR TASKS INITIATED:  NONE.
000759:
000760:                                                                                                  #  SUBROUTINES CALLED:  CAGESUB.
000761:
000762:                                                                                                  #  ERASABLE INITIALIZATION:  FRESH START AND RESTART SET BIT 11 OF IMODES30 TO 1.
000763:
000764:                                                                                                  #  ALARMS:  NONE.
000765:
000766:                                                                                                  #  EXIT:  NXTIFAIL.
000767:
000768:                                                                                                  #  OUTPUT:  ISS CAGED, COUNTERS ZEROED, PULSE TRAINS TERMINATED AND NO ATT LAMP LIT.
000769:
000770: 06,2572           10000        IMUCAGE            CCS      A                                     #  NO ACTION IF GOING OFF.
000771: 06,2573           12366                           TCF      ISSZERO
000772: 06,2574           43005                           CS       OCT77000                              #  TERMINATE ICDU,RCDU, GYRO PULSE TRAINS
000773: 06,2575           00006                           EXTEND
000774: 06,2576           03014                           WAND     CHAN14
000775:
000776: 06,2577           43001                           CS       OCT272                                #  KNOCK DOWN DISPLAY INERTIAL DATA, IMU
000777: 06,2600           00006                           EXTEND                                         #  ERROR COUNTER ENABLE, ZERO ICDU, COARSE
000778: 06,2601           03012                           WAND     CHAN12                                #  ALIGN ENABLE, RR ERROR COUNTER ENABLE.
000779:
000780: 06,2602           44367                           CS       PRIO30                                #  TURN ENGINE OFF.
000781: 06,2603           00006                           EXTEND
000782: 06,2604           02011                           RAND     DSALMOUT
000783: 06,2605           65011                           AD       BIT14
000784: 06,2606           00006                           EXTEND
000785: 06,2607           01011                           WRITE    DSALMOUT                              #  FORCE BIT14=1, BIT13=0.
000786:
000787: 06,2610           02745                           TC       CAGESUB1
000788:
000789: 06,2611           04737                           TC       IBNKCALL                              #  KNOCK DOWN TRACK, REFSMMAT, DRIFT FLAGS
000790: 06,2612           17106                           CADR     RNDREFDR
000791:
000792: 06,2613           45030                           CS       ZERO
000793: 06,2614           54050                           TS       CDUXCMD
000794: 06,2615           54051                           TS       CDUYCMD
000795:
000796: 06,2616           54052                           TS       CDUZCMD
000797: 06,2617           54047                           TS       GYROCMD
000798:
000799: 06,2620           43004                           CS       OCT740                                #  HAVING WAITED AT LEAST 27 MCT FROM
000800: 06,2621           00006                           EXTEND                                         #  GYRO PULSE TRAIN TERMINATION, WE CAN
000801: 06,2622           03014                           WAND     CHAN14                                #  DE-SELECT THE GYROS
000802: 06,2623           12225                           TCF      NXTIFAIL
000803:
000804:                                                                                                  #  PROGRAM NAME:  IMUOP.
000805:
000806:                                                                                                  #  FUNCTIONAL DESCRIPTION:  THIS PROGRAM PROCESSES CHANGES IN THE ISS OPERATE DISCRETE, BIT 9 OF CHANNEL 30.
000807:                                                                                                  #  IF THE INBIT CHANGES TO 0, INDICATING ISS ON, IMUOP GENERALLY SETS BIT 7 OF IMODES30 TO 1 TO REQUEST ISS
000808:                                                                                                  #  INITIALIZATION VIA TNONTEST.  AN EXCEPTION IS DURING A FAILED ISS DELAY DURING WHICH BIT 2 OF IMODES30 IS SET
000809:                                                                                                  #  TO 1 AND NO FURTHER INITIALIZATION IS REQUIRED.  WHEN THE INBIT CHANGES TO 1, INDICATING ISS OFF, IMUSEFLG IS
000810:                                                                                                  #  TESTED TO SEE IF ANY PROGRAM WAS USING THE ISS.  IF SO, PROGRAM ALARM 00214 IS ISSUED.
000811:
000812:                                                                                                  #  CALLING SEQUENCE:  BY IMUMON WHEN BIT 9 OF CHANNEL 30 CHANGES.
000813:
000814:                                                                                                  #  JOBS OR TASKS INITIATED:  NONE.
000815:
000816:                                                                                                  #  SUBROUTINES CALLED:  ALARM, IF ISS IS TURNED OFF WHILE IN USE.
000817:
000818:                                                                                                  #  ERASABLE INITIALIZATION:  ON FRESH START AND RESTART, BIT 9 OF IMODES30 IS SET TO 1 EXCEPT WHEN THE GIMBAL LOCK
000819:                                                                                                  #  LAMP IS ON, IN WHICH CASE IT IS SET TO 0.  THIS PREVENTS ICDU ZERO BY TNONTEST WITH THE ISS IN GIMBAL LOCK.
000820:
000821:                                                                                                  #  ALARMS:  PROGRAM ALARM 00214 IF THE ISS IS TURNED OFF WHILE IN USE.
000822:
000823:                                                                                                  #  EXIT:  NXTIFAIL.
000824:
000825:                                                                                                  #  OUTPUT:  ISS INITIALIZATION REQUEST (IMODES30 BIT 7) OR PROGRAM ALARM 00214.
000826:
000827: 06,2624           00006        IMUOP              EXTEND
000828: 06,2625           12645                           BZF      IMUOP2
000829:
000830: 06,2626           41305                           CS       IMODES33                              #  DISABLE DAP
000831: 06,2627           75021                           MASK     BIT6
000832: 06,2630           27305                           ADS      IMODES33
000833:
000834: 06,2631           04737                           TC       IBNKCALL                              #  KNOCK DOWN TRACK, REFSMMAT, DRIFT FLAGS
000835: 06,2632           17106                           CADR     RNDREFDR
000836:
000837: 06,2633           43002                           CS       BITS7&8                               #  KNOCK DOWN RENDEZVOUS, IMUUSE FLAGS
000838: 06,2634           70074                           MASK     FLAGWRD0
000839: 06,2635           56074                           XCH      FLAGWRD0                              #  IF GOING OFF, ALARM IF PROG USING IMU.
000840: 06,2636           40000                           COM
000841: 06,2637           75017                           MASK     IMUSEFLG
000842: 06,2640           10000                           CCS      A
000843: 06,2641           12225                           TCF      NXTIFAIL
000844:
000845: 06,2642           05651                           TC       ALARM
000846: 06,2643           00214                           OCT      214
000847: 06,2644           12225                           TCF      NXTIFAIL
000848:
000849: 06,2645           35025        IMUOP2             CAF      BIT2                                  #  SEE IF FAILED ISS TURN-ON SEQ IN PROG.
000850: 06,2646           71304                           MASK     IMODES30
000851: 06,2647           10000                           CCS      A
000852: 06,2650           12225                           TCF      NXTIFAIL                              #  IF SO, DONT PROCESS UNTIL PRESENT 90
000853: 06,2651           12563                           TCF      ITURNON2                              #  SECONDS EXPIRES.
000854:
000855:                                                                                                  #  PROGRAM NAME:  PIPFAIL
000856:
000857:                                                                                                  #  FUNCTIONAL DESCRIPTION:  THIS PROGRAM PROCESSES CHANGES OF BIT 13 OF CHANNEL 33, PIPA FAIL.  IT SETS BIT 10 OF
000858:                                                                                                  #  IMODES30 TO AGREE.  IT CALLS SETISSW IN CASE A PIPA FAIL NECESSITATES AN ISS WARNING.  IF NOT, I.E., IMODES30
000859:                                                                                                  #  BIT 1 = 1, AND A PIPA FAIL IS PRESENT AND THE ISS IS NOT BEING INITIALIZED, PROGRAM ALARM 00212 IS ISSUED.
000860:
000861:                                                                                                  #  CALLING SEQUENCE:  BY C33TEST ON CHANGES OF CHANNEL 33 BIT 13.
000862:
000863:                                                                                                  #  JOBS OR TASKS INITIATED:  NONE.
000864:
000865:                                                                                                  #  SUBROUTINES CALLED:  1) SETISSW, AND 2) ALARM (SEE FUNCTIONAL DESCRIPTION).
000866:
000867:                                                                                                  #  ERASABLE INITIALIZATION:  SEE IMUMON FOR INITIALIZATION OF IMODES30.  THE RELAVANT BITS ARE 5, 7, 8, 9, AND 10.
000868:
000869:                                                                                                  #  ALARMS:  PROGRAM ALARM 00212 IF PIPA FAIL IS PRESENT BUT NEITHER ISS WARNING IS TO BE ISSUED NOR THE ISS IS
000870:                                                                                                  #  BEING INITIALIZED.
000871:
000872:                                                                                                  #  EXIT:  NXTFL33.
000873:
000874:                                                                                                  #  OUTPUT:  PROGRAM ALARM 00212 AND ISS WARNING MAINTENANCE.
000875:
000876: 06,2652           10000        PIPFAIL            CCS      A                                     #  SET BIT10 IN IMODES30 SO ALL ISS WARNING
000877: 06,2653           35015                           CAF      BIT10                                 #  INFO IS IN ONE REGISTER.
000878: 06,2654           57304                           XCH      IMODES30
000879: 06,2655           73007                           MASK     -BIT10
000880: 06,2656           27304                           ADS      IMODES30
000881:
000882: 06,2657           02705                           TC       SETISSW
000883:
000884: 06,2660           41304                           CS       IMODES30                              #  IF PIP FAIL DOESNT LIGHT ISS WARNING, DO
000885: 06,2661           75026                           MASK     BIT1                                  #  A PROGRAM ALARM IF IMU OPERATING BUT NOT
000886: 06,2662           10000                           CCS      A                                     #  CAGED OR BEING TURNED ON.
000887: 06,2663           12437                           TCF      NXTFL33
000888:
000889: 06,2664           31304                           CA       IMODES30
000890: 06,2665           73003                           MASK     OCT1720
000891: 06,2666           10000                           CCS      A
000892: 06,2667           12437                           TCF      NXTFL33                               #  ABOVE CONDITION NOT MET.
000893:
000894: 06,2670           05651                           TC       ALARM
000895: 06,2671           00212                           OCT      212
000896: 06,2672           12437                           TCF      NXTFL33
000897:
000898:                                                                                                  #  PROGRAM NAMES:  DNTMFAST, UPTMFAST
000899:
000900:                                                                                                  #  FUNCTIONAL DESCRIPTION:  THESE PROGRAMS PROCESS CHANGES OF BITS 12 AND 11 OF CHANNEL 33.  IF A BIT CHANGES TO A
000901:                                                                                                  #  0, A PROGRAM ALARM IS ISSUED.  THE ALARMS ARE:
000902:
000903:                                                                                                  #           BIT    ALARM           CAUSE
000904:                                                                                                  #           ---    -----           -----
000905:                                                                                                  #            12    01105           DOWNLINK TOO FAST
000906:                                                                                                  #            11    01106           UPLINK TOO FAST
000907:
000908:                                                                                                  #  CALLING SEQUENCE:  BY C33TEST ON A BIT CHANGE.
000909:
000910:                                                                                                  #  SUBROUTINES CALLED:  ALARM, IF A BIT CHANGES TO A 0.
000911:
000912:                                                                                                  #  ERASABLE INITIALIZATION:  FRESH START OR RESTART, BITS 12 AND 11 OF IMODES33 ARE SET TO 1.
000913:
000914:                                                                                                  #  ALARMS:  SEE FUNCTIONAL DESCRIPTION.
000915:
000916:                                                                                                  #  EXIT:  NXTFL33.
000917:
000918:                                                                                                  #  OUTPUT:  PROGRAM ALARM ON A BIT CHANGE TO 0.
000919:
000920: 06,2673           10000        DNTMFAST           CCS      A                                     #  DO PROG ALARM IF TM TOO FAST.
000921: 06,2674           12437                           TCF      NXTFL33
000922:
000923: 06,2675           05651                           TC       ALARM
000924: 06,2676           01105                           OCT      1105
000925: 06,2677           12437                           TCF      NXTFL33
000926:
000927: 06,2700           10000        UPTMFAST           CCS      A                                     #  SAME AS DNLINK TOO FAST WITH DIFFERENT
000928: 06,2701           12437                           TCF      NXTFL33                               #  ALARM CODE.
000929:
000930: 06,2702           05651                           TC       ALARM
000931: 06,2703           01106                           OCT      1106
000932: 06,2704           12437                           TCF      NXTFL33
000933:                                                                                                  #  PROGRAM NAME:  SETISSW
000934:
000935:                                                                                                  #  FUNCTIONAL DESCRIPTION:  THIS PROGRAM TURNS THE ISS WARNING LAMP ON AND OFF (CHANNEL 11 BIT 1 = 1 FOR ON,
000936:                                                                                                  #  0 FOR OFF) DEPENDING ON THE STATUS OF IMODES30 BITS 13 (IMU FAIL) AND 4 (INHIBIT IMU FAIL), 12 (ICDU FAIL) AND
000937:                                                                                                  #  3 (INHIBIT ICDU FAIL), AND 10 (PIPA FAIL) AND 1 (INHIBIT PIPA FAIL).  THE LAMP IS LEFT ON IF A LAMP TEST IS IN
000938:                                                                                                  #  PROGRESS.
000939:
000940:                                                                                                  #  CALLING SEQUENCE:  CALLED BY IMUMON ON CHANGES TO IMU FAIL AND ICDU FAIL.  CALLED BY IFAILOK AND PFAILOK UPON
000941:                                                                                                  #  REMOVAL OF THE FAIL INHIBITS.  CALLED BY PIPFAIL WHEN THE PIPA FAIL DISCRETE CHANGES.  IT IS CALLED BY PIPUSE
000942:                                                                                                  #  SINCE THE PIPA FAIL PROGRAM ALARM MAY NECESSITATE AN ISS WARNING, AND LIKEWISE BY PIPFREE WHEN THE ALARM DEPARTS
000943:                                                                                                  #  AND IT IS CALLED BY IMUZERO3 AND ISSUP AFTER THE FAIL INHIBITS HAVE BEEN REMOVED.
000944:
000945:                                                                                                  #  JOBS OR TASKS INITIATED:  NONE.
000946:
000947:                                                                                                  #  SUBROUTINES CALLED:  NONE.
000948:
000949:                                                                                                  #  ERASABLE INITIALIZATION:
000950:
000951:                                                                                                  #           1) IMODES30 - SEE IMUMON.
000952:                                                                                                  #           2) IMODES33 BIT 1 = 0 (LAMP TEST NOT IN PROGRESS).
000953:
000954:                                                                                                  #  ALARMS:  ISS WARNING.
000955:
000956:                                                                                                  #  THE FOLLOWING PROGRAM ALARMS WILL SHOW WHICH FAILURE CAUSED THE ISS WARN
000957:                                                                                                  #  PROGRAM ALARM 00777  PIPA FAIL
000958:                                                                                                  #  PROGRAM ALARM 03777  ICDU FAIL
000959:                                                                                                  #  PROGRAM ALARM 04777  ICDU , PIPA FAILS
000960:                                                                                                  #  PROGRAM ALARM 07777  IMU FAIL
000961:                                                                                                  #  PROGRAM ALARM 10777  IMU , PIPA FAILS
000962:                                                                                                  #  PROGRAM ALARM 13777  IMU , ICDU FAILS
000963:                                                                                                  #  PROGRAM ALARM 14777  IMU , ICDU , PIPA FAILS
000964:
000965:                                                                                                  #  EXIT:  VIA Q.
000966:
000967:                                                                                                  #  OUTPUT:  ISS WARNING LAMP SET PROPERLY.
000968:
000969: 06,2705           35034        SETISSW            CAF      OCT15                                 #  SET ISS WARNING USING THE FAIL BITS IN
000970: 06,2706           71304                           MASK     IMODES30                              #  BITS 13, 12, AND 10 OF IMODES30 AND THE
000971: 06,2707           00006                           EXTEND                                         #  FAILURE INHIBIT BITS IN POSITIONS
000972: 06,2710           75015                           MP       BIT10                                 #  4, 3, AND 1.
000973: 06,2711           31304                           CA       IMODES30
000974: 06,2712           00006                           EXTEND
000975: 06,2713           04001                           ROR      LCHAN                                 #  0 INDICATES FAILURE
000976: 06,2714           40000                           COM
000977: 06,2715           75075                           MASK     OCT15000
000978: 06,2716           10000                           CCS      A
000979: 06,2717           12730                           TCF      ISSWON                                #  FAILURE.
000980:
000981: 06,2720           35026        ISSWOFF            CAF      BIT1                                  #  DONT TURN OFF ISS WARNING IF LAMP TEST
000982: 06,2721           71305                           MASK     IMODES33                              #  IN PROGRESS.
000983:
000984: 06,2722           10000                           CCS      A
000985: 06,2723           00002                           TC       Q
000986:
000987: 06,2724           45026                           CS       BIT1
000988: 06,2725           00006                           EXTEND
000989: 06,2726           03011                           WAND     DSALMOUT
000990: 06,2727           00002                           TC       Q
000991:
000992: 06,2730           00006        ISSWON             EXTEND
000993: 06,2731           22066                           QXCH     ITEMP6
000994: 06,2732           05741                           TC       VARALARM                              #  TELL EVERYONE WHAT CAUSED THE ISSWARNING
000995: 06,2733           35026                           CAF      BIT1
000996: 06,2734           00006                           EXTEND
000997: 06,2735           05011                           WOR      DSALMOUT
000998: 06,2736           00066                           TC       ITEMP6
000999:
001000: 06,2737           43006        CAGESUB            CS       BITS6&15                              #  SET OUTBITS AND INTERNAL FLAGS FOR
001001: 06,2740           00006                           EXTEND                                         #  SYSTEM TURN-ON OR CAGE. DISABLE THE
001002: 06,2741           03012                           WAND     CHAN12                                #  ERROR COUNTER AND REMOVE IMU DELAY COMP.
001003: 06,2742           32776                           CAF      BITS4&5                               #  SEND ZERO AND COARSE.
001004: 06,2743           00006                           EXTEND
001005: 06,2744           05012                           WOR      CHAN12
001006:
001007: 06,2745           41037        CAGESUB1           CS       DSPTAB     +11D                       #  TURN ON NO ATT LAMP
001008: 06,2746           72775                           MASK     OC40010
001009: 06,2747           27037                           ADS      DSPTAB     +11D
001010:
001011: 06,2750           41304        CAGESUB2           CS       IMODES30                              #  SET FLAGS TO INDICATE CAGING OR TURN-ON
001012: 06,2751           73000                           MASK     OCT75                                 #      AND INHIBIT ALL ISS WARNING INFO
001013: 06,2752           27304                           ADS      IMODES30
001014:
001015: 06,2753           41305                           CS       IMODES33                              #  DISABLE DAP AUTO AND HOLD MODES
001016: 06,2754           75021                           MASK     BIT6
001017: 06,2755           27305                           ADS      IMODES33
001018:
001019: 06,2756           00002                           TC       Q
001020:
001021: 06,2757  06,2705               IMUFAIL            EQUALS   SETISSW
001022: 06,2757  06,2705               ICDUFAIL           EQUALS   SETISSW
001023:
001024:                                                                                                  #           JUMP TABLES AND CONSTANTS.
001025:
001026: 06,2757           12540        IFAILJMP           TCF      ITURNON                               #  CHANNEL 30 DISPATCH.
001027: 06,2760           12705                           TCF      IMUFAIL
001028: 06,2761           12705                           TCF      ICDUFAIL
001029: 06,2762           12572                           TCF      IMUCAGE
001030: 06,2763           76400        30RDMSK            OCT      76400                                 #  (BIT 10 NOT SAMPLED HERE).
001031: 06,2764           12624                           TCF      IMUOP
001032:
001033: 06,2765           12652        C33JMP             TCF      PIPFAIL                               #  CHANNEL 33 DISPATCH.
001034: 06,2766           12673                           TCF      DNTMFAST
001035: 06,2767           12700                           TCF      UPTMFAST
001036:
001037:                                                                                                  #           SUBROUTINE TO SKIP IF LAMP TEST NOT IN PROGRESS.
001038: 06,2770           41305        LAMPTEST           CS       IMODES33                              #  BIT 1 OF IMODES33 = 1 IF LAMP TEST IN
001039: 06,2771           75026                           MASK     BIT1                                  #  PROGRESS.
001040: 06,2772           10000                           CCS      A
001041: 06,2773           24002                           INCR     Q
001042: 06,2774           00002                           TC       Q
001043:
001044: 06,2775     5076               33RDMSK            EQUALS   PRIO16
001045: 06,2775           40010        OC40010            OCT      40010
001046: 06,2776           00030        BITS4&5            OCT      30
001047: 06,2777           00054        OCT54              OCT      54
001048: 06,3000           00075        OCT75              OCT      75
001049: 06,3001           00272        OCT272             OCT      00272
001050: 06,3002           00300        BITS7&8            OCT      300
001051: 06,3003           01720        OCT1720            OCT      1720
001052: 06,3004           00740        OCT740             OCT      00740
001053: 06,3005     5075               OCT15000           EQUALS   PRIO15
001054: 06,3005           77000        OCT77000           OCT      77000
001055: 06,3006           40040        BITS6&15           OCT      40040
001056: 06,3007           76777        -BIT10             OCT      -1000
001057:
001058: 06,3010           21450        90SECS             DEC      9000       B-14
001059: 06,3011     5746               120MS              =        OCT14                                 #  (DEC12)
001060: 06,3011     5340               GLOCKOK            EQUALS   RESUME
001061:
001062:                                                                                                  #  PROGRAM NAME_  RRAUTCHK
001063:
001064:                                                                                                  #  FUNCTIONAL DESCRIPTION_
001065:                                                                                                  #  RRAUTCHK IS THE RENDEZVOUS RADAR INBIT MONITOR. INITIALLY THE RR
001066:                                                                                                  #  POWER ON AUTO (CHAN 33 BIT 2) INBIT IS CHECKED. IF NO CHANGE, THE
001067:                                                                                                  #  PROGRAM EXITS TO RRCDUCHK. IF A CHANGE, RADMODES IS UPDATED
001068:                                                                                                  #  AND A CHECK MADE IF RR POWER HAS JUST COME ON. IF JUST OFF, A CHECK
001069:                                                                                                  #  IS MADE TO SEE IF A PROGRAM WAS USING THE RR (STATE BIT 7). IF NO,
001070:                                                                                                  #  THE PROGRAM EXITS TO RRCDUCHK. IF YES, PROGRAM ALARM 00514
001071:                                                                                                  #  IS REQUESTED BEFORE EXITING TO RRCDUCHK. IF RR POWER HAS JUST COME
001072:                                                                                                  #  ON, A CHECK IS MADE TO SEE IF A PROGRAM WAS USING THE RR (STATE BIT 7).
001073:                                                                                                  #  IF YES, THE PROGRAM EXITS TO RRCDUCHK WITHOUT REQUESTING THE TURN-ON
001074:                                                                                                  #  SEQUENCE. IF NO, RADMODES IS UPDATED TO INDICATE RR CDU ZERO AND
001075:                                                                                                  #  RR TURN-ON SEQUENCE (BITS 13, 1). A 10 MILLISECOND WAITLIST CALL
001076:                                                                                                  #  IS THEN SET FOR RRTURNON BEFORE THE PROGRAM EXITS TO NORRGMON.
001077:
001078:                                                                                                  #  CALLING SEQUENCE_
001079:                                                                                                  #  T4RUPT EVERY 480 MILLISECONDS
001080:
001081:                                                                                                  #  ERASABLE INITIALIZATION REQUIRED_
001082:                                                                                                  #  RADMODES, STATE
001083:
001084:                                                                                                  #  SUBROUTINES CALLED_
001085:                                                                                                  #  WAITLIST
001086:
001087:                                                                                                  #  JOBS OR TASKS INITIATED_
001088:                                                                                                  #  RRTURNON
001089:
001090:                                                                                                  #  ALARMS_   PROGRAM ALARM 00514 - RADAR GOES OUT OF AUTO MODE WHILE BEING
001091:                                                                                                  #  USED
001092:
001093:                                                                                                  #  EXIT_  RRCDUCHK, NORRGMON
001094:
001095: 06,3011           31101        RRAUTCHK           CA       RADMODES                              #  SEE IF CHANGE IN RR AUTO MODE BIT.
001096: 06,3012           00006                           EXTEND
001097: 06,3013           06033                           RXOR     CHAN33
001098: 06,3014           75025                           MASK     BIT2
001099: 06,3015           00006                           EXTEND
001100: 06,3016           13044                           BZF      RRCDUCHK
001101:
001102: 06,3017           23101                           LXCH     RADMODES                              #  UPDATE RADMODES.
001103: 06,3020           00006                           EXTEND
001104: 06,3021           06001                           RXOR     LCHAN
001105: 06,3022           55101                           TS       RADMODES
001106: 06,3023           75025                           MASK     BIT2                                  #  SEE IF JUST ON.
001107: 06,3024           10000                           CCS      A
001108: 06,3025           13041                           TCF      RRCDUCHK   -3                         #  OFF.  GO DISABLE RR CDU ERROR COUNTERS.
001109: 06,3026           43040                           CS       OCT72001                              #  SET BITS TO INDICATE ZERO AND TURNON
001110: 06,3027           71101                           MASK     RADMODES                              #  IN PROGRESS.
001111: 06,3030           63037                           AD       OCT10001
001112: 06,3031           55101                           TS       RADMODES
001113:
001114: 06,3032           35026                           CAF      ONE
001115: 06,3033           05252                           TC       WAITLIST
001116: 06,3034  E7,1433                                  EBANK=   LOSCOUNT
001117: 06,3034           02053 52007                     2CADR    RRTURNON
001118:
001119: 06,3036           13127                           TCF      NORRGMON
001120:
001121: 06,3037           10001        OCT10001           OCT      10001
001122: 06,3040           72001        OCT72001           OCT      72001
001123:
001124:                                                                                                  #  PROGRAM NAME_ RRCDUCHK
001125:
001126:                                                                                                  #  FUNCTIONAL DESCRIPTION_
001127:                                                                                                  #  RRCDUCHK CHECKS FOR RR CDU FAIL (CHAN 30 BIT 7). INITIALLY THE
001128:                                                                                                  #  RR CDU FAIL BIT IS SAMPLED (CHAN 30 BIT 7). IF NO CHANGE, THE
001129:                                                                                                  #  PROGRAM EXITS TO RRGIMON. IF A CHANGE, THE RR AUTO MODE
001130:                                                                                                  #  (RADMODES BIT 2) BIT IS CHECKED. IF NOT IN RR AUTO MODE, THE
001131:                                                                                                  #  PROGRAM EXITS TO NORRGMON. IF IN AUTO MODE, RADMODES BIT 7
001132:                                                                                                  #  (RR CDU OK) IS UPDATED AND IF P-20 IS OPERATING PROGRAM ALARM 00515 IS
001133:                                                                                                  #  REQUESTED. CONTROL IS TRANSFERRED TO SETTRKF TO UPDATE
001134:                                                                                                  #  THE TRACKER FAIL LAMP (DSPTAB+11D BIT 8). CONTROL RETURNS TO
001135:                                                                                                  #  RRGIMON.
001136:
001137:                                                                                                  #  CALLING SEQUENCE_
001138:                                                                                                  #  EVERY 480 MILLISECONDS FROM RRAUTCHK (VIA T4RUPT) UNLESS A
001139:                                                                                                  #  TURN-ON SEQUENCE HAS JUST BEEN INITIATED.
001140:
001141:                                                                                                  #  ERASABLE INITIALIZATION REQUIRED_
001142:                                                                                                  #  RADMODES
001143:
001144:                                                                                                  #  SUBROUTINES CALLED_
001145:                                                                                                  #  SETTRKF
001146:
001147:                                                                                                  #  JOBS OR TASKS INITIATED_
001148:                                                                                                  #  NONE
001149:
001150:                                                                                                  #  ALARMS_
001151:                                                                                                  #  TRACKER FAIL
001152:                                                                                                  #  PROGRAM ALARM 00515 - RRCDU FAIL DURING P-20
001153:
001154:                                                                                                  #  EXIT_
001155:                                                                                                  #  RRGIMON, NORRGMON
001156:
001157: 06,3041           45025                 -3        CS       BIT2
001158: 06,3042           00006                           EXTEND
001159: 06,3043           03012                           WAND     CHAN12                                #  AT TURNON, DISABLE CDU ERROR COUNTERS.
001160:
001161: 06,3044           31101        RRCDUCHK           CA       RADMODES                              #  LAST SAMPLED BIT IN RADMODES.
001162: 06,3045           00006                           EXTEND
001163: 06,3046           06030                           RXOR     CHAN30
001164: 06,3047           75020                           MASK     BIT7
001165: 06,3050           00006                           EXTEND
001166: 06,3051           13076                           BZF      RRGIMON
001167:
001168: 06,3052           35025                           CAF      BIT2                                  #  IF RR NOT IN AUTO MODE, DONT CHANGE BIT
001169: 06,3053           71101                           MASK     RADMODES                              #  7 OF RADMODES. IF THIS WERE NOT DONE,
001170: 06,3054           10000                           CCS      A                                     #  THE TRACKER FAIL MIGHT COME ON WHEN
001171: 06,3055           13127                           TCF      NORRGMON                              #  JUST READING LR DATA.
001172:
001173: 06,3056           35020                           CAF      BIT7                                  #  SET BIT 7 OF RADMODES FOR SETTRKF.
001174:
001175: 06,3057           23101                           LXCH     RADMODES                              #  UPDATE RADMODES.
001176: 06,3060           00006                           EXTEND
001177: 06,3061           06001                           RXOR     L
001178: 06,3062           55101                           TS       RADMODES
001179:
001180: 06,3063           31101                           CA       RADMODES                              #  DID RR CDU FAIL
001181: 06,3064           75020                           MASK     BIT7
001182: 06,3065           10000                           CCS      A
001183: 06,3066           13075                           TCF      TRKFLCDU                              #  NO
001184: 06,3067           40074                           CS       FLAGWRD0                              #  RNDVFLG  P20 OR P22 OPERATING
001185: 06,3070           75020                           MASK     RNDVZBIT
001186: 06,3071           10000                           CCS      A
001187: 06,3072           13075                           TCF      TRKFLCDU                              #  NO
001188: 06,3073           05651                           TC       ALARM                                 #  YES
001189: 06,3074           00515                           OCT      00515
001190: 06,3075           04601        TRKFLCDU           TC       SETTRKF                               #  UPDATE TRACKER FAIL LAMP ON DSKY.
001191:
001192:                                                                                                  #  PROGRAM NAME_  RRGIMON                                                   E AUTO MODE EXCEPT WHEN THE RR CDUS ARE
001193:
001194:                                                                                                  #  FUNCTIONAL DESCRIPTION_                                                  TTER IS INITIATED BY THIS MONITOR WHEN
001195:                                                                                                  #  RRGIMON IS THE RR GIMBAL LIMIT MONITOR.  INITIALLY THE FOLLOWING IS      ED TO DRIVE THE GIMBALS TO T = 0 AND
001196:                                                                                                  #  CHECKED_  REMODE, RR CDU:S BEING ZEROED, REPOSITION, AND RR
001197:                                                                                                  #  NOT IN AUTO MODE (RADMODES BITS 14, 13, 11 2). IF ANY OF THESE
001198:                                                                                                  #  EXIST THE PROGRAM EXITS TO GPMATRIX. IF NONE ARE PRESENT RRLIMCHK
001199:                                                                                                  #  IS CALLED TO SEE IF THE PRESENT RR CDU ANGLES (OPTY, OPTX) ARE WITHIN
001200:                                                                                                  #  THE LIMITS OF THE CURRENT MODE. IF WITHIN LIMITS, THE PROGRAM EXITS
001201:                                                                                                  #  TO NORRGMON. IF NOT WITHIN LIMITS, THE REPOSITION FLAG (RADMODES
001202:                                                                                                  #  BIT 11) IS SET, THE RR AUTO TRACKER AND RR ERROR COUNTER
001203:                                                                                                  #  (CHAN 12 BITS 14, 2) ARE DISABLED, AND A 20 MILLISECOND WAITLIST
001204:                                                                                                  #  CALL IS SET FOR DORREPOS AFTER WHICH THE PROGRAM EXITS TO NORRGMON.
001205:
001206:                                                                                                  #  CALLING SEQUENCE_
001207:                                                                                                  #  EVERY 480 MILLISECONDS FROM RRCDUCHK (VIA T4RUPT) UNLESS TURN-ON
001208:                                                                                                  #  HAS JUST BEEN INITIATED VIA RRAUTCHK OR IF THERE HAS BEEN A CHANGE IN
001209:                                                                                                  #  THE RR CDU FAIL BIT (CHAN 30 BIT 7) AND THE RR IS NOT IN THE AUTO MODE
001210:                                                                                                  #  (RADMODES BIT 2).
001211:
001212:                                                                                                  #  ERASABLE INITIALIZATION_   RADMODES
001213:
001214:                                                                                                  #  SUBROUTINES CALLED_
001215:                                                                                                  #  RRLIMCHK, WAITLIST
001216:
001217:                                                                                                  #  JOBS OR TASKS INITIATED_
001218:                                                                                                  #  DORREPOS
001219:
001220:                                                                                                  #  ALARMS_
001221:                                                                                                  #  NONE
001222:
001223:                                                                                                  #  EXIT_
001224:                                                                                                  #  NORRGMON
001225:
001226: 06,3076           30101        RRGIMON            CAE      FLAGWRD5                              #  IS NO ANGLE MONITOR FLAG SET
001227: 06,3077           75023                           MASK     NORRMBIT
001228: 06,3100           10000                           CCS      A
001229: 06,3101           13127                           TCF      NORRGMON                              #  YES - SKIP LIMIT CHECK
001230: 06,3102           33124                           CAF      OCT32002                              #  INHIBIT BY REMODE,ZEROING,MONITOR.
001231: 06,3103           71101                           MASK     RADMODES                              #  OR RR NOT IN AUTO.
001232: 06,3104           10000                           CCS      A
001233: 06,3105           13127                           TCF      NORRGMON
001234:
001235: 06,3106           04540                           TC       RRLIMCHK                              #  SEE IF ANGLES IN LIMITS.
001236: 06,3107           00035                           ADRES    CDUT
001237:
001238: 06,3110           13112                           TCF      MONREPOS
001239:
001240: 06,3111           13127                           TCF      NORRGMON                              #  (ADDITIONAL CODING MAY GO HERE).
001241:
001242: 06,3112           35014        MONREPOS           CAF      BIT11                                 #  SET FLAG TO SHOW REPOSITION IN PROGRESS.
001243: 06,3113           27101                           ADS      RADMODES
001244:
001245: 06,3114           43125                           CS       OCT20002                              #  DISABLE TRACKER AND ERROR COUNTER.
001246: 06,3115           00006                           EXTEND
001247: 06,3116           03012                           WAND     CHAN12
001248:
001249: 06,3117           35025                           CAF      TWO
001250: 06,3120           05252                           TC       WAITLIST
001251: 06,3121  E7,1433                                  EBANK=   LOSCOUNT
001252: 06,3121           02120 52007                     2CADR    DORREPOS
001253:
001254: 06,3123           13127                           TCF      NORRGMON
001255:
001256: 06,3124           32002        OCT32002           OCT      32002
001257: 06,3125           20002        OCT20002           OCT      20002
001258: 06,3126           02100        OCT02100           OCT      02100                                 #  P20,P22 MASK BITS
001259:
001260:                                                                                                  #  PROGRAM NAME: GPMATRIX (DAPT4S) MOD. NO. 2  DATE: OCTOBER 27, 1966
001261:
001262:                                                                                                  #  AUTHOR: JONATHAN D. ADDELSTON (ADAMS ASSOCIATES)
001263:
001264:                                                                                                  #  MODIFIED:  7FEB. 1968 BY P. S. WEISSMAN TO DELETE COMPUTATION OF MR12 AND MR13, WHICH ARE NO LONGER REQIURED.
001265:
001266:                                                                                                  #  THIS PROGRAM CALCULATES ALL THE SINGLE-PRECISION MATRIX ELEMENTS WHICH ARE USED BY LEM DAP TO TRANSFORM VECTORS
001267:                                                                                                  #  FROM GIMBAL TO PILOT (BODY) AXES AND BACK AGAIN.  THESE ELEMENTS ARE USED EXCLUSIVELY BY BASIC LANGUAGE ROUTINES
001268:                                                                                                  #  AND THEREFORE ARE NOT ARRAYED FOR USE BY INTERPRETIVE PROGRAMS.
001269:
001270:                                                                                                  #  CALLING SEQUENCE: GPMATRIX IS TRANSFERRED TO FROM DAPT4S AND IS THUS EXECUTED 4 TIMES A SECOND BY T4RUPT.
001271:                                                                                                  #  DAPT4S IS LISTED IN T4JUMP TABLE TWICE EXPLICITLY AND ALSO OCCURS AFTER RRAUTCHK (WHICH IS ALSO LISTED TWICE).
001272:
001273:                                                                                                  #  SUBROUTINES CALLED: SPSIN, SPCOS.
001274:
001275:                                                                                                  #  NORMAL EXIT MODE:  TCF   RESUME
001276:
001277:                                                                                                  #  ALARM AND ABORT MODES:  NONE.
001278:
001279:                                                                                                  #  INPUT:  CDUX, CDUY, CDUZ.
001280:
001281:                                                                                                  #  OUTPUT:  M11, M21, M31, M22, M32.
001282:
001283:                                                                                                  #  AOG = CDUX, AIG = CDUY, AMG = CDUZ: MNEMONIC IS : OIM = XYZ
001284:
001285:                                                                                                  #     *       *    SIN(MG)        0         1       *
001286:                                                                                                  #     M   =   *    COS(MG)COS(OG) SIN(OG)   0       *
001287:                                                                                                  #      GP     *   -COS(MG)SIN(OG) COS(OG)   0       *
001288:
001289:                                                                                                  #     *       *  0    COS(OG)/COS(MG)         -SIN(OG)/COS(MG)         *
001290:                                                                                                  #     M   =   *  0    SIN(OG)                  COS(OG)                 *
001291:                                                                                                  #      PG     *  1   -SIN(MG)COS(OG)/COS(MG)   SIN(MG)SIN(OG)/COS(MG)  *
001292:
001293: 06,3127  E6,1412                                  EBANK=   M11
001294: 06,3127  06,3127               DAPT4S             EQUALS   GPMATRIX
001295:
001296:                                                                                                  #  T4RUPT DAP LOGIC:
001297:
001298: 06,3127           30034        GPMATRIX           CAE      CDUZ                                  #  SINGLE ENTRY POINT
001299: 06,3130           05103                           TC       SPSIN                                 #  SIN(CDUZ) = SIN(MG)
001300: 06,3131           55412                           TS       M11                                   #  SCALED AT 1
001301:
001302: 06,3132           30034                           CAE      CDUZ
001303: 06,3133           05102                           TC       SPCOS                                 #  COS(CDUZ) = COS(MG)
001304: 06,3134           54061                           TS       COSMG                                 #  SCALED AT 1 (ONLY A FACTOR)
001305:
001306: 06,3135           30032                           CAE      CDUX
001307: 06,3136           05103                           TC       SPSIN                                 #  SIN(CDUX) = SIN(OG)
001308: 06,3137           55415                           TS       M22                                   #  SCALED AT 1 (ALSO IS MR22)
001309:
001310: 06,3140           41415                           CS       M22
001311:
001312: 06,3141           00006                           EXTEND
001313: 06,3142           70061                           MP       COSMG                                 #  -SIN(OG)COS(MG)
001314: 06,3143           55414                           TS       M31                                   #  SCALED AT 1
001315:
001316: 06,3144           30032                           CAE      CDUX
001317: 06,3145           05102                           TC       SPCOS                                 #  COS(CDUX) = COS(OG)
001318: 06,3146           55416                           TS       M32                                   #  SCALED AT 1 (ALSO IS MR23)
001319:
001320: 06,3147           00006                           EXTEND
001321: 06,3150           70061                           MP       COSMG                                 #  COS(OG)COS(MG)
001322: 06,3151           55413                           TS       M21                                   #  SCALED AT 1
001323:
001324: 06,3152           05340                           TC       RESUME
001325:
001326: 06,3153  06,3127               NORRGMON           EQUALS   DAPT4S
001327: 06,3153     5340               ENDDAPT4           EQUALS   RESUME

End of include-file T4RUPT_PROGRAM.agc.  Parent file is MAIN.agc


