
Source Code


000002:                                                                                                  ## Copyright:   Public domain.
000003:                                                                                                  ## Filename:    T6-RUPT_PROGRAMS.agc
000004:                                                                                                  ## Purpose:     A section of an attempt to reconstruct Sundance revision 306
000005:                                                                                                  ##              as closely as possible with available information. Sundance
000006:                                                                                                  ##              306 is the source code for the Lunar Module's (LM) Apollo
000007:                                                                                                  ##              Guidance Computer (AGC) for Apollo 9. This program was created
000008:                                                                                                  ##              using the mixed-revision SundanceXXX as a starting point, and
000009:                                                                                                  ##              pulling back features from Luminary 69 believed to have been
000010:                                                                                                  ##              added based on memos, checklists, observed address changes,
000011:                                                                                                  ##              or the Sundance GSOPs.
000012:                                                                                                  ## Assembler:   yaYUL
000013:                                                                                                  ## Contact:     Ron Burkey <info@sandroid.org>.
000014:                                                                                                  ## Website:     www.ibiblio.org/apollo/index.html
000015:                                                                                                  ## Mod history: 2020-07-24 MAS  Created from SundanceXXX.
000016:
000017:
000018:
000019:                                                                                                  #  PROGRAM NAMES:        (1) T6JOBCHK    MOD. NO. 5      OCTOBER 2, 1967
000020:                                                                                                  #                        (2) DOT6RUPT
000021:                                                                                                  #  MODIFICATION BY:      LOWELL G HULL (A.C.ELECTRONICS)
000022:
000023:                                                                                                  #  THESE PROGRAMS ENABLE THE LM DAP TO CONTROL THE THRUST TIMES OF THE REACTION CONTROL SYSTEM JETS BY USING TIME6.
000024:                                                                                                  #  SINCE THE LM DAP MAINTAINS EXCLUSIVE CONTROL OVER TIME6 AND ITS INTERRUPTS, THE FOLLOWING CONVENTIONS HAVE BEEN
000025:                                                                                                  #  ESTABLISHED AND MUST NOT BE TAMPERED WITH:
000026:                                                                                                  #        1.      NO NUMBER IS EVER PLACED INTO TIME6 EXCEPT BY LM DAP.
000027:                                                                                                  #        2.      NO PROGRAM OTHER THAN LM DAP ENABLES THE TIME6 COUNTER.
000028:                                                                                                  #        3.      TO USE TIME6, THE FOLLOWING SEQUENCE IS ALWAYS EMPLOYED:
000029:                                                                                                  #                A.      A POSITIVE (NON-ZERO) NUMBER IS STORED IN TIME6.
000030:                                                                                                  #                B.      THE TIME6 CLOCK IS ENABLED.
000031:                                                                                                  #                C.      TIME6 IS INTERROGATED AND IS:
000032:                                                                                                  #                        I.      NEVER FOUND NEGATIVE (NON-ZERO) OR +0.
000033:                                                                                                  #                        II.     SOMETIMES FOUND POSITIVE (BETWEEN 1 AND 240D) INDICATING THAT IT IS ACTIVE.
000034:                                                                                                  #                        III.    SOMETIMES FOUND POSMAX INDICATING THAT IT IS INACTIVE AND NOT ENABLED.
000035:                                                                                                  #                        IV.     SOMETIMES FOUND NEGATIVE ZERO INDICATING THAT:
000036:                                                                                                  #                                A.      A T6RUPT IS ABOUT TO OCCUR AT THE NEXT DINC, OR
000037:                                                                                                  #                                B.      A T6RUPT IS WAITING IN THE PRIORITY CHAIN, OR
000038:                                                                                                  #                                C.      A T6RUPT IS IN PROCESS NOW.
000039:                                                                                                  #        4)      ALL PROGRAMS WHICH OPERATE IN EITHER INTERRUPT MODE OR WITH INTERRUPT INHIBITED MUST CALL T6JOBCHK
000040:                                                                                                  #                EVERY 5 MILLISECONDS TO PROCESS A POSSIBLE WAITING T6RUPT BEFORE IT CAN BE HONORED BY THE HARDWARE.
000041:                                                                                                  #       (5.      PROGRAM JTLST, IN Q,R-AXES, HANDLES THE INPUT LIST.)
000042:
000043:                                                                                                  #  T6JOBCHK CALLING SEQUENCE:
000044:                                                                                                  #                L       TC      T6JOBCHK
000045:                                                                                                  #                L+1     (RETURN)
000046:
000047:                                                                                                  #  DOT6RUPT CALLING SEQUENCE:
000048:                                                                                                  #                        DXCH    ARUPT           T6RUPT LEAD IN AT LOCATION 4004.
000049:                                                                                                  #                        EXTEND
000050:                                                                                                  #                        DCA     T6ADR
000051:                                                                                                  #                        DTCB
000052:
000053:                                                                                                  #  SUBROUTINES CALLED:   DOT6RUPT CALLS T6JOBCHK.
000054:
000055:                                                                                                  #  NORMAL EXIT MODES:    T6JOBCHK RETURNS TO L +1.
000056:                                                                                                  #                        DOT6RUPT TRANSFERS CONTROL TO RESUME.
000057:
000058:                                                                                                  #  ALARM/ABORT MODES:    NONE.
000059:
000060:                                                                                                  #  INPUT:        TIME6           NXT6ADR         OUTPUT:         TIME6           NXT6ADR         CHANNEL 5
000061:                                                                                                  #                T6NEXT          T6NEXT +1                       T6NEXT          T6NEXT +1       CHANNEL 6
000062:                                                                                                  #                T6FURTHA        T6FURTHA +1                     T6FURTHA        T6FURTHA +1     BIT15/CH13
000063:
000064:                                                                                                  #  DEBRIS:       T6JOBCHK CLOBBERS A.  DOT6RUPT CLOBBERS NOTHING.
000065:
000066:    5750                                           BLOCK    02
000067: 16,2000                                           BANK     16
000068: 16,2000                                           SETLOC   DAPS1
000069: 16,2000                                           BANK
000070: 16,2000  E6,1454                                  EBANK=   T6NEXT
000071: 16,2000                                           COUNT*   $$/DAPT6
000072:
000073: 16,2000           10031        T6JOBCHK           CCS      TIME6                                 #  CHECK TIME6 FOR WAITING T6RUPT:
000074: 16,2001           00002                           TC       Q                                     #  NONE: CLOCK COUTING DOWN.
000075: 16,2002           05726                           TC       CCSHOLE
000076: 16,2003           02003                           TC       T6JOBCHK   +3
000077:
000078:                                                                                                  #  CONTROL PASSES TO T6JOB ONLY WHEN C(TIME6) = -0 (I.E. WHEN A T6RUPT MUST BE PROCESSED).
000079:
000080: 16,2004           35006        T6JOB              CAF      POSMAX                                #  DISABLE CLOCK: NEEDED SINCE RUPT OCCURS
000081: 16,2005           00006                           EXTEND                                         #  1 DINC AFTER T6 = 77777. FOR 625 MUSECS
000082: 16,2006           03013                           WAND     CHAN13                                #  MUST NOT HAVE T6 = +0 WITH ENABLE SET
000083:
000084: 16,2007           35006                           CA       POSMAX
000085: 16,2010           22007                           ZL
000086: 16,2011           53457                           DXCH     T6FURTHA
000087: 16,2012           53455                           DXCH     T6NEXT
000088: 16,2013           23453                           LXCH     NXT6ADR
000089: 16,2014           54031                           TS       TIME6
000090:
000091: 16,2015           67677                           AD       PRIO37
000092: 16,2016           54000                           TS       A
000093: 16,2017           12023                           TCF      ENABLET6
000094: 16,2020           35006                           CA       POSMAX
000095: 16,2021           54031                           TS       TIME6
000096: 16,2022           12034                           TCF      GOCH56
000097: 16,2023           35010        ENABLET6           CA       BIT15
000098: 16,2024           00006                           EXTEND
000099: 16,2025           05013                           WOR      CHAN13
000100: 16,2026           31454                           CA       T6NEXT
000101: 16,2027           67677                           AD       PRIO37
000102: 16,2030           54000                           TS       A
000103: 16,2031           12034                           TCF      GOCH56
000104: 16,2032           35006                           CA       POSMAX
000105: 16,2033           55454                           TS       T6NEXT
000106: 16,2034           50001        GOCH56             INDEX    L
000107: 16,2035           15754                           TCF      WRITEP     -1
000108:
000109:
000110:    5750                                           BLOCK    02
000111:    4000                                           SETLOC   FFTAG9
000112:    4000                                           BANK
000113:    5750  E6,1632                                  EBANK=   CDUXD
000114:    5750                                           COUNT*   $$/DAPT6
000115:
000116:    5750           00155        NARROWDB           OCTAL    00155                                 #  0.3 DEGREE SCALED AT 45.
000117:    5751           03434        WIDEDB             OCTAL    03434                                 #  5.0 DEGREES SCALED AT 45.
000118:
000119:    5752  E6,1454                                  EBANK=   T6NEXT
000120:    5752           02036 34106  T6ADR              2CADR    DOT6RUPT                              #  2CADR OF INTERRUPT PROCESSOR.
000121:
000122:    5754           31460                           CA       NEXTP
000123:    5755           00006        WRITEP             EXTEND
000124:    5756           01006                           WRITE    CHAN6
000125:    5757           00002                           TC       Q
000126:
000127:    5760           31461                           CA       NEXTU
000128:    5761           54001        WRITEU             TS       L
000129:    5762           45775                           CS       00314OCT
000130:    5763           00006                           EXTEND
000131:    5764           02005                           RAND     CHAN5
000132:    5765           60001                           AD       L
000133:    5766           00006                           EXTEND
000134:    5767           01005                           WRITE    CHAN5
000135:    5770           00002                           TC       Q
000136:
000137:    5771           31462                           CA       NEXTV
000138:    5772           54001        WRITEV             TS       L
000139:    5773           35775                           CA       00314OCT
000140:    5774           15763                           TCF      -9D
000141:    5775           00314        00314OCT           OCT      00314
000142:
000143:
000144: 16,2036                                           BANK     16
000145: 16,2000                                           SETLOC   DAPS1
000146: 16,2000                                           BANK
000147:
000148: 16,2036  E6,1454                                  EBANK=   T6NEXT
000149: 16,2036                                           COUNT*   $$/DAPT6
000150:
000151: 16,2036           22016        DOT6RUPT           LXCH     BANKRUPT                              #  (INTERRUPT LEAD INS CONTINUED)
000152: 16,2037           00006                           EXTEND
000153: 16,2040           22012                           QXCH     QRUPT
000154:
000155: 16,2041           02000                           TC       T6JOBCHK                              #  CALL T6JOBCHK.
000156:
000157: 16,2042           15340                           TCF      RESUME                                #  END TIME6 INTERRUPT PROCESSOR.
000158:

End of include-file T6-RUPT_PROGRAMS.agc.  Parent file is MAIN.agc


