
Source Code


000002:                                                                                                  ## Copyright:   Public domain.
000003:                                                                                                  ## Filename:    THROTTLE_CONTROL_ROUTINES.agc
000004:                                                                                                  ## Purpose:     A section of an attempt to reconstruct Sundance revision 306
000005:                                                                                                  ##              as closely as possible with available information. Sundance
000006:                                                                                                  ##              306 is the source code for the Lunar Module's (LM) Apollo
000007:                                                                                                  ##              Guidance Computer (AGC) for Apollo 9. This program was created
000008:                                                                                                  ##              using the mixed-revision SundanceXXX as a starting point, and
000009:                                                                                                  ##              pulling back features from Luminary 69 believed to have been
000010:                                                                                                  ##              added based on memos, checklists, observed address changes,
000011:                                                                                                  ##              or the Sundance GSOPs.
000012:                                                                                                  ## Assembler:   yaYUL
000013:                                                                                                  ## Contact:     Ron Burkey <info@sandroid.org>.
000014:                                                                                                  ## Website:     www.ibiblio.org/apollo/index.html
000015:                                                                                                  ## Mod history: 2020-07-24 MAS  Created from SundanceXXX.
000016:
000017:
000018:
000019: 31,2235                                           BANK     31
000020: 31,2000                                           SETLOC   FTHROT
000021: 31,2000                                           BANK
000022: 31,2235  E7,1417                                  EBANK=   PIF
000023: 31,2235                                           COUNT*   $$/THROT
000024:
000025:                                                                                                  #  * * * * * * * * * * * * * * * * * * * * * * * * * * * * * * * * * * * * * * * * * * * * * * * * * * * * * * * *
000026:                                                                                                  #  HERE FC, DESIRED THRUST, AND FP, PRESENT THRUST, UNWEIGHTED, ARE COMPUTED.
000027:
000028: 31,2235           31245        THROTTLE           CA       ABDELV                                #  COMPUTE PRESENT ACCELERATION IN UNITS OF
000029: 31,2236           00006                           EXTEND                                         #  2(-4) M/CS/CS, SAVING SERVICER TROUBLE
000030: 31,2237           72414                           MP       /AF/CNST
000031: 31,2240           00006                 +3        EXTEND
000032: 31,2241           23600                           QXCH     RTNHOLD
000033: 31,2242           02373        AFDUMP             TC       MASSMULT
000034: 31,2243           53553                           DXCH     FP                                    #  FP = PRESENT THRUST
000035: 31,2244           00006                           EXTEND
000036: 31,2245           31570                           DCA      /AFC/
000037: 31,2246           02373                           TC       MASSMULT
000038: 31,2247           53551                           DXCH     FCODD                                 #  FCODD = WHAT IT IS GOING TO GET
000039:
000040:                                                                                                  #  IF IT HAS BEEN LESS THAN 3 SECONDS SINCE THE LAST THROTTLING, AUGMENT FP USING THE FWEIGHT CALCULATED THEN.
000041:
000042: 31,2250           41604                           CS       TTHROT                                #  THIS CODING ASSUMES A FLATOUT WITHIN
000043: 31,2251           60025                           AD       TIME1                                 #    80 SECONDS BEFORE FIRST THROTTLE CALL
000044: 31,2252           75006                           MASK     POSMAX
000045: 31,2253           40000                           COM
000046: 31,2254           65052                           AD       3SECS
000047: 31,2255           00006                           EXTEND
000048: 31,2256           62262                           BZMF     WHERETO                               #  BRANCH IF (TIME1-TTHROT +1) > 3 SECONDS
000049: 31,2257           00006                           EXTEND
000050: 31,2260           31602                           DCA      FWEIGHT
000051: 31,2261           21553                           DAS      FP
000052:
000053:                                                                                                  #      THIS LOGIC DETERMINES THE THROTTLING IN THE REGION 10% - 94%.  THE MANUAL THROTTLE, NOMINALLY SET AT
000054:                                                                                                  #  MINIMUM BY ASTRONAUT OR MISSION CONTROL PROGRAMS, PROVIDES THE LOWER BOUND.  A STOP IN THE THROTTLE HARDWARE
000055:                                                                                                  #  PROVIDES THE UPPER.
000056:
000057: 31,2262           45030        WHERETO            CS       ZERO                                  #  INITIALIZE PIFPSET
000058: 31,2263           55577                           TS       PIFPSET
000059: 31,2264           42407                           CS       HIGHCRIT
000060: 31,2265           61657                           AD       FCOLD
000061: 31,2266           00006                           EXTEND
000062: 31,2267           62301                           BZMF     LOWFCOLD                              #  BRANCH IF FCOLD < OR = HIGHCRIT
000063: 31,2270           42410                           CS       LOWCRIT
000064: 31,2271           61550                           AD       FCODD
000065: 31,2272           00006                           EXTEND
000066: 31,2273           62276                           BZMF     FCOMPSET                              #  BRANCH IF FC < OR = LOWCRIT
000067: 31,2274           31552                           CA       FP                                    #  SEE NOTE 1
000068: 31,2275           12306                           TCF      FLATOUT1
000069:
000070: 31,2276           42405        FCOMPSET           CS       FMAXODD                               #  SEE NOTE 2
000071: 31,2277           61552                           AD       FP
000072: 31,2300           12310                           TCF      FLATOUT2
000073:
000074: 31,2301           42407        LOWFCOLD           CS       HIGHCRIT
000075: 31,2302           61550                           AD       FCODD
000076: 31,2303           00006                           EXTEND
000077: 31,2304           62311                           BZMF     DOPIF                                 #  BRANCH IF FC < OR = HIGHCRIT
000078:
000079: 31,2305           32406                           CA       FMAXPOS                               #  NO:  THROTTLE-UP
000080: 31,2306           53551        FLATOUT1           DXCH     FCODD
000081: 31,2307           35020                           CA       FEXTRA
000082: 31,2310           55577        FLATOUT2           TS       PIFPSET
000083:
000084:                                                                                                  #  NOTE 1        FC IS SET EQUAL TO FP SO PIF WILL BE ZERO.  THIS IS DESIRABLE
000085:                                                                                                  #                AS THERE IS ACTUALLY NO THROTTLE CHANGE.
000086:
000087:                                                                                                  #  NOTE2         HERE, SINCE WE ARE ABOUT TO RETURN TO THE THROTTLEABLE REGION
000088:                                                                                                  #                (BELOW 55%) THE QUANTITY -(FMAXODD-FP) IS COMPUTED AND PUT
000089:                                                                                                  #                INTO PIFPSET TO COMPENSATE FOR THE DIFFERENCE BETWEEN THE
000090:                                                                                                  #                NUMBER OF BITS CORRESPONDING TO FULL THROTTLE (FMAXODD) AND THE
000091:                                                                                                  #                NUMBER CORRESPONDING TO ACTUAL THRUST (FP).  THUS THE TOTAL
000092:                                                                                                  #                THROTTLE COMMAND PIF = FC - FP - (FMAXODD - FP) = FC - FMAXODD.
000093:
000094: 31,2311           03562        DOPIF              TC       FASTCHNG                              #  RESTART PROTECTION
000095: 31,2312           00006                           EXTEND
000096: 31,2313           31551                           DCA      FCODD
000097: 31,2314           55657                           TS       FCOLD
000098: 31,2315           53420                           DXCH     PIF
000099: 31,2316           00006                           EXTEND
000100: 31,2317           41553                           DCS      FP
000101: 31,2320           21420                           DAS      PIF                                   #  PIF = FC - FP, NEVER EQUALS +0
000102:
000103: 31,2321           31417        DOIT               CA       PIF
000104: 31,2322           61577                           AD       PIFPSET                               #  ADD IN PIFPSET, WITHOUT CHANGING PIF
000105: 31,2323           55603                           TS       PSEUDO55
000106: 31,2324           54055                           TS       THRUST
000107: 31,2325           35023                           CAF      BIT4
000108: 31,2326           00006                           EXTEND
000109: 31,2327           05014                           WOR      CHAN14
000110: 31,2330           30025                           CA       TIME1
000111: 31,2331           55604                           TS       TTHROT
000112:
000113:                                                                                                  #  SINCE /AF/ IS NOT AN INSTANTANEOUS ACCELERATION, BUT RATHER AN "AVERAGE" OF THE ACCELERATION LEVELS DURING
000114:                                                                                                  #  THE PRECEEDING PIPA INTERVAL, AND SINCE FP IS COMPUTED DIRECTLY FROM /AF/, FP IN ORDER TO CORRESPOND TO THE
000115:                                                                                                  #  ACTUAL THRUST LEVEL AT THE END OF THE INTERVAL MUST BE WEIGHTED BY
000116:
000117:                                                                                                  #                  PIF(PPROCESS + TL)     PIF /PIF/
000118:                                                                                                  #        FWEIGHT = ------------------ + -------------
000119:                                                                                                  #                       PGUID           2 PGUID FRATE
000120:
000121:                                                                                                  #  WHERE PPROCESS IS THE TIME BETWEEN PIPA READING AND THE START OF THROTTLING, PGUID IS THE GUIDANCE PERIOD, AND
000122:                                                                                                  #  FRATE IS THE THROTTLING RATE (32 UNITS PER CENTISECOND).  PGUID IS ASSUMED TO BE 2 SECONDS.  THE "TL" IN THE
000123:                                                                                                  #  FIRST TERM REPRESENTS THE ENGINE'S RESPONSE LAG.  HERE FWEIGHT IS COMPUTED FOR USE NEXT PASS.
000124:
000125: 31,2332           35053                           CA       4SECS
000126: 31,2333           54002                           TS       Q
000127: 31,2334           41234                           CS       PIPTIME    +1                         #  TIME OF LAST PIPA READING
000128: 31,2335           60025                           AD       TIME1
000129: 31,2336           62412                           AD       THROTLAG                              #  COMPENSATE FOR ENGINE RESPONSE LAG
000130: 31,2337           74371                           MASK     LOW8                                  #  MAKE SURE SMALL AND POSITIVE
000131: 31,2340           22007                           ZL
000132: 31,2341           00006                           EXTEND
000133: 31,2342           10002                           DV       Q
000134: 31,2343           00006                           EXTEND
000135: 31,2344           71417                           MP       PIF
000136: 31,2345           60000                           DOUBLE
000137: 31,2346           53602                           DXCH     FWEIGHT
000138: 31,2347           32413                           CA       2.PG.FRT
000139: 31,2350           54002                           TS       Q
000140: 31,2351           11417                           CCS      PIF
000141: 31,2352           65026                           AD       ONE
000142: 31,2353           12355                           TCF      +2
000143: 31,2354           65026                           AD       ONE
000144: 31,2355           00006                           EXTEND
000145: 31,2356           71417                           MP       PIF
000146: 31,2357           00006                           EXTEND
000147: 31,2360           10002                           DV       Q
000148: 31,2361           22007                           ZL
000149: 31,2362           21602                           DAS      FWEIGHT
000150:
000151: 31,2363           01600        THDUMP             TC       RTNHOLD
000152:
000153:                                                                                                  #  FLATOUT THROTTLES UP THE DESCENT ENGINE, AND IS CALLED AS A BASIC SUBROUTINE.
000154:
000155: 31,2364           35012        FLATOUT            CAF      BIT13                                 #  4096 PULSES
000156: 31,2365           55577        WHATOUT            TS       PIFPSET                               #  USE PIFPSET SO FWEIGHT WILL BE ZERO
000157: 31,2366           45030                           CS       ZERO
000158: 31,2367           55417                           TS       PIF
000159: 31,2370           00006                           EXTEND
000160: 31,2371           23600                           QXCH     RTNHOLD
000161: 31,2372           12321                           TCF      DOIT
000162:
000163:                                                                                                  #  MASSMULT SCALES ACCELERATION, ARRIVING IN A AND L IN UNITS OF 2(-4) M/CS/CS, TO FORCE IN PULSE UNITS.
000164:
000165: 31,2373           00006        MASSMULT           EXTEND
000166: 31,2374           22130                           QXCH     BUF
000167: 31,2375           00006                           EXTEND
000168: 31,2376           71243                           MP       MASS                                  #  LEAVES ODDLY SCALED FORCE IN A AND L
000169: 31,2377           52155                           DXCH     MPAC
000170: 31,2400           07057                           TC       DMP                                   #  LEAVES PROPERLY SCALED FORCE IM MPAC
000171: 31,2401           02415                           ADRES    SCALEFAC
000172: 31,2402           52156                           DXCH     MPAC       +1
000173: 31,2403           00130                           TC       BUF
000174:
000175:                                                                                                  #  CONSTANTS:-
000176:
000177: 31,2404           07452        FMAXMAX            DEC      +3882      B-14
000178: 31,2405           07432        FMAXODD            DEC      +3866      B-14                       #  THROTTLE SATURATION THRESHOLD
000179: 31,2406           07100        FMAXPOS            DEC      +3648      B-14                       #  FMAX    43245 NEWTONS
000180: 31,2407           04616        HIGHCRIT           DEC      2446       B-14
000181: 31,2410           04127        LOWCRIT            DEC      2135       B-14
000182: 31,2411     5020               FEXTRA             =        BIT7
000183: 31,2411           00666        DEC438             DEC      438        B-14
000184: 31,2412           00024        THROTLAG           DEC      20         B-14                       #  EMPIRICALLY DETERMINED THROTTLE LAG TIME
000185: 31,2413           31000        2.PG.FRT           DEC      12800      B-14
000186: 31,2414           04143        /AF/CNST           DEC      .13107
000187: 31,2415           00317 31157  SCALEFAC           2DEC     51.947     B-12                       #  SCALES A (AT 2(-4) M/CS/CS) TIMES MASS
000188:                                                                                                  #  (AT 2(16) KGS. ) TO PULSE UNITS.
000189:
000190:                                                                                                  #  * * * * * * * * * * * * * * * * * * * * * * * * * * * * * * * * * * * * * * * * * * * * * * * * * * * * * * * *

End of include-file THROTTLE_CONTROL_ROUTINES.agc.  Parent file is MAIN.agc


