
Source Code


000002:                                                                                                  ## Copyright:   Public domain.
000003:                                                                                                  ## Filename:    TRIM_GIMBAL_CONTROL_SYSTEM.agc
000004:                                                                                                  ## Purpose:     A section of an attempt to reconstruct Sundance revision 306
000005:                                                                                                  ##              as closely as possible with available information. Sundance
000006:                                                                                                  ##              306 is the source code for the Lunar Module's (LM) Apollo
000007:                                                                                                  ##              Guidance Computer (AGC) for Apollo 9. This program was created
000008:                                                                                                  ##              using the mixed-revision SundanceXXX as a starting point, and
000009:                                                                                                  ##              pulling back features from Luminary 69 believed to have been
000010:                                                                                                  ##              added based on memos, checklists, observed address changes,
000011:                                                                                                  ##              or the Sundance GSOPs.
000012:                                                                                                  ## Assembler:   yaYUL
000013:                                                                                                  ## Contact:     Ron Burkey <info@sandroid.org>.
000014:                                                                                                  ## Website:     www.ibiblio.org/apollo/index.html
000015:                                                                                                  ## Mod history: 2020-07-24 MAS  Created from SundanceXXX.
000016:                                                                                                  ##              2021-05-30 ABS  GTSGO+DN -> GTSGO+ON
000017:                                                                                                  ##                              MAXISHIFT -> MAXISHFT
000018:                                                                                                  ##                              MINISHIFT -> MINISHFT
000019:
000020:
000021:
000022: 21,3055                                           BANK     21
000023: 21,3055  E6,1451                                  EBANK=   QDIFF
000024: 21,2000                                           SETLOC   DAPS4
000025: 21,2000                                           BANK
000026:
000027: 21,3055                                           COUNT*   $$/DAPGT
000028:
000029:                                                                                                  #  CONTROL REACHES THIS POINT UNDER EITHER OF THE FOLLOWING TWO CONDITIONS ONCE THE DESCENT ENGINE AND THE DIGITAL
000030:                                                                                                  #  AUTOPILOT ARE BOTH ON:
000031:                                                                                                  #        A) THE TRIM GIMBAL CONTROL LAW WAS ON DURING THE PREVIOUS Q,R-AXIS TIME5 INTERRUPT (OR THE DAPIDLER
000032:                                                                                                  #           INITIALIZATION WAS SET FOR TRIM GIMBAL CONTROL AND THIS IS THE FIRST PASS), OR
000033:                                                                                                  #        B) THE Q,R-AXES RCS AUTOPILOT DETERMINED THAT THE VEHICLE WAS ENTERING (OR HAD JUST ENTERED) A COAST
000034:                                                                                                  #           ZONE WITH A SMALL OFFSET ANGULAR ACCELERATION.
000035:                                                                                                  #  GTS IS THE ENTRY TO THE GIMBAL TRIM SYSTEM FOR CONTROLLING ATTITUDE ERRORS AND RATES AS WELL AS ACCELERATIONS.
000036:
000037: 21,3055           37721        GTS                CAF      NEGONE                                #  MAKE THE NEXT PASS THROUGH THE DAP BE
000038: 21,3056           55625                           TS       COTROLER                              #        THROUGH RCS CONTROL,
000039: 21,3057           35024                           CAF      FOUR                                  #        AND ENSURE THAT IT IS NOT A SKIP.
000040: 21,3060           55530                           TS       SKIPU
000041: 21,3061           55531                           TS       SKIPV
000042:
000043: 21,3062           35025                           CAF      TWO
000044: 21,3063           55627                           TS       INGTS                                 #  SET INDICATOR OF GTS CONTROL POSITIVE.
000045: 21,3064           55626                           TS       QGIMTIMR                              #  SET TIMERS TO 200 MSEC TO AVOID BOTH
000046: 21,3065           55630                           TS       RGIMTIMR                              #  RUNAWAY AND INTERFERENCE BY NULLING.
000047:
000048:                                                                                                  #  THE DRIVE SETTING ALGORITHM
000049:
000050:                                                                                                  #        DEL = SGN(OMEGA*K + ALPHA*ABS(ALPHA)/2).
000051:
000052:                                                                                                  #        NEGUSUM = ERROR.K(2) + DEL(OMEGA.K.DEL + ALPHA(2)/2)(3/2) + ALPHA(OMEGA.K.DEL + ALPHA(2)/3)
000053:
000054:                                                                                                  #        DRIVE = -SGN(NEGUSUM)
000055:
000056: 21,3066           30021                           CA       SR                                    #  SAVE THE SR.  SHIFT IT LEFT TO CORRECT
000057: 21,3067           60000                           AD       A                                     #  FOR THE RIGHT SHIFT DUE TO EDITING.
000058: 21,3070           55471                           TS       SAVESR
000059:
000060: 21,3071           35025        GTSGO+ON           CAF      TWO                                   #  SET INDEXER FOR R-AXIS CALCULATIONS.
000061: 21,3072           55745                           TS       QRCNTR
000062: 21,3073           31534                           CA       AOSR
000063: 21,3074           00006                           EXTEND
000064: 21,3075           75024                           MP       BIT3
000065: 21,3076           31435                           CA       EDOTR
000066: 21,3077           13106                           TCF      GTSQAXIS
000067:
000068: 21,3100           35030        GOQTRIMG           CAF      ZERO                                  #  SET INDEXER FOR Q-AXIS CALCULATIONS
000069: 21,3101           55745                           TS       QRCNTR
000070: 21,3102           31532                           CA       AOSQ
000071: 21,3103           00006                           EXTEND
000072: 21,3104           75024                           MP       BIT3
000073: 21,3105           31434                           CA       EDOTQ
000074: 21,3106           53743        GTSQAXIS           DXCH     WCENTRAL
000075: 21,3107           00006                           EXTEND
000076: 21,3110           51745                           INDEX    QRCNTR                                #  PICK UP K AND K(2) FOR THIS AXIS
000077: 21,3111           31504                           DCA      KQ
000078: 21,3112           53741                           DXCH     KCENTRAL
000079:
000080: 21,3113           11745                           CCS      QRCNTR
000081: 21,3114           50000                           INDEX    A                                     #  QDIFF, RDIFF ARE STORED IN D.P.
000082: 21,3115           31451                           CAE      QDIFF
000083:
000084: 21,3116           00006        ALGORTHM           EXTEND                                         #  Q(R)DIFF IS THETA (ERROR) SCALED AT PI.
000085: 21,3117           71741                           MP       K2CNTRAL                              #  FORM K(2)*THETA IN D.P.
000086: 21,3120           23734                           LXCH     K2THETA
000087: 21,3121           00006                           EXTEND                                         #  FORM K(2)*THETA*SF2 IN D.P.
000088: 21,3122           75016                           MP       BIT9
000089: 21,3123           53735                           DXCH     K2THETA
000090: 21,3124           00006                           EXTEND
000091: 21,3125           75016                           MP       BIT9
000092: 21,3126           27735                           ADS      K2THETA    +1
000093:
000094: 21,3127           31742                           CAE      WCENTRAL                              #  GET OMEGA
000095: 21,3130           00006                           EXTEND
000096: 21,3131           71740                           MP       KCENTRAL                              #  FORM K*OMEGA IN D.P.
000097: 21,3132           23740                           LXCH     OMEGA.K
000098: 21,3133           00006                           EXTEND                                         #  FORM OMEGA*K*SF1 IN D.P.
000099: 21,3134           75013                           MP       BIT12
000100: 21,3135           53741                           DXCH     OMEGA.K
000101: 21,3136           00006                           EXTEND
000102: 21,3137           75013                           MP       BIT12
000103: 21,3140           27741                           ADS      OMEGA.K    +1
000104:
000105: 21,3141           31743                           CAE      ACENTRAL                              #  FORM ALPHA(2)/2 IN D.P.
000106: 21,3142           00006                           EXTEND
000107: 21,3143           70000                           SQUARE
000108: 21,3144           53737                           DXCH     A2CNTRAL
000109:
000110: 21,3145           31743                           CAE      ACENTRAL                              #  GET ALPHA*ABS(ALPHA)/2, IF ALPHA GREATER
000111:                                                                                                  #  THAN 0. OTHERWISE TAKE NEGATIVE OF ABOVE
000112: 21,3146           00006                           EXTEND
000113: 21,3147           63153                           BZMF     +4
000114: 21,3150           00006                           EXTEND
000115: 21,3151           31737                           DCA      A2CNTRAL
000116: 21,3152           13155                           TCF      +3
000117: 21,3153           00006                           EXTEND
000118: 21,3154           41737                           DCS      A2CNTRAL
000119: 21,3155           53474                           DXCH     FUNCTION                              #  SAVE AS SGN(ALPHA)*ALPHA(2)/2
000120: 21,3156           00006                           EXTEND
000121: 21,3157           31741                           DCA      OMEGA.K
000122: 21,3160           21474                           DAS      FUNCTION                              #  FORM FUNCT1
000123:
000124: 21,3161           11473                           CCS      FUNCTION                              #  DEL = +1 FOR FUNCT1 GREATER THAN ZERO.
000125: 21,3162           13166                           TCF      POSFNCT1                              #  OTHERWISE DEL = -1
000126: 21,3163           13165                           TCF      +2
000127: 21,3164           13170                           TCF      NEGFNCT1
000128:
000129: 21,3165           11474                           CCS      FUNCTION   +1                         #  USE LOW ORDER WORD SINCE HIGH IS ZERO
000130: 21,3166           35026        POSFNCT1           CAF      BIT1
000131: 21,3167           13171                           TCF      +2
000132: 21,3170           45026        NEGFNCT1           CS       BIT1
000133: 21,3171           55744                           TS       DEL
000134:
000135: 21,3172           11744                           CCS      DEL                                   #  MAKE OMEGA*K REALLY DEL*OMEGA*K
000136: 21,3173           13200                           TCF      FUNCT2                                #  (NOTHING NEED BE DONE)
000137: 21,3174           13200                           TCF      FUNCT2
000138: 21,3175           00006                           EXTEND
000139: 21,3176           41741                           DCS      OMEGA.K
000140: 21,3177           53741                           DXCH     OMEGA.K                               #  CHANGE SIGN OF OMEGA*K
000141:
000142: 21,3200           00006        FUNCT2             EXTEND
000143: 21,3201           31741                           DCA      OMEGA.K
000144: 21,3202           53474                           DXCH     FUNCTION                              #  DEL*OMEGA*K
000145: 21,3203           00006                           EXTEND
000146: 21,3204           31737                           DCA      A2CNTRAL
000147: 21,3205           21474                           DAS      FUNCTION                              #  DEL*OMEGA*K + ALPHA(2)/2
000148: 21,3206           31736        FUNCT3             CAE      A2CNTRAL                              #  CALCULATE (2/3)*ALPHA(2)/2 = ALPHA(2)/3
000149: 21,3207           00006                           EXTEND
000150: 21,3210           73302                           MP       .66667
000151: 21,3211           53737                           DXCH     A2CNTRAL
000152: 21,3212           56001                           XCH      L
000153: 21,3213           00006                           EXTEND
000154: 21,3214           73302                           MP       .66667
000155: 21,3215           27737                           ADS      A2CNTRAL   +1
000156: 21,3216           54001                           TS       L
000157: 21,3217           13221                           TCF      +2
000158: 21,3220           27736                           ADS      A2CNTRAL
000159: 21,3221           53741                           DXCH     OMEGA.K                               #  DEL*OMEGA*K + ALPHA(2)/3 = G
000160: 21,3222           21737                           DAS      A2CNTRAL
000161: 21,3223           31736                           CAE      A2CNTRAL                              #  G*ALPHA IN D.P.
000162: 21,3224           00006                           EXTEND
000163: 21,3225           71743                           MP       ACENTRAL
000164: 21,3226           53737                           DXCH     A2CNTRAL
000165: 21,3227           56001                           XCH      L
000166: 21,3230           00006                           EXTEND
000167: 21,3231           71743                           MP       ACENTRAL
000168: 21,3232           27737                           ADS      A2CNTRAL   +1
000169: 21,3233           54001                           TS       L
000170: 21,3234           13236                           TCF      +2
000171: 21,3235           27736                           ADS      A2CNTRAL
000172:
000173: 21,3236           53737                           DXCH     A2CNTRAL                              #  FIRST AND THIRD TERMS
000174: 21,3237           21735                           DAS      K2THETA                               #  SUMMED IN D.P.
000175:
000176: 21,3240           13410                           TCF      RSTOFGTS
000177:
000178:                                                                                                  #  THE WRCHN12 SUBROUTINE SETS BITS 9,10,11,12 OF CHANNEL 12 ON THE BASIS OF THE CONTENTS OF NEGUQ,NEGUR WHICH ARE
000179:                                                                                                  #  THE NEGATIVES OF THE DESIRED ACCELERATION CHANGES.  ACDT+C12 SETS Q(R)ACCDOT TO REFLECT THE NEW DRIVES.
000180:
000181:                                                                                                  #  WARNING:  ACDT+C12 AND WRCHN12 MUST BE CALLED WITH INTERRUPT INHIBITED.
000182:
000183: 21,3241           07400        BGIM               OCTAL    07400
000184: 21,3242     0066               CHNL12             EQUALS   ITEMP6
000185: 21,3242           31102        ACDT+C12           CA       DAPBOOLS
000186: 21,3243           75011                           MASK     USEQRJTS
000187: 21,3244           00006                           EXTEND
000188: 21,3245           13251                           BZF      +4
000189: 21,3246           35030                           CAF      ZERO
000190: 21,3247           55500                           TS       NEGUQ
000191: 21,3250           55502                           TS       NEGUR
000192:
000193: 21,3251           41500                           CS       NEGUQ
000194: 21,3252           00006                           EXTEND                                         #  GIMBAL DRIVE REQUESTS.
000195: 21,3253           71507                           MP       ACCDOTQ
000196: 21,3254           23510                           LXCH     QACCDOT
000197: 21,3255           41502                           CS       NEGUR
000198: 21,3256           00006                           EXTEND
000199: 21,3257           71511                           MP       ACCDOTR
000200: 21,3260           23512                           LXCH     RACCDOT
000201:
000202: 21,3261           11500                           CCS      NEGUQ
000203: 21,3262           35015                           CAF      BIT10
000204: 21,3263           13265                           TCF      +2
000205: 21,3264           35016                           CAF      BIT9
000206: 21,3265           54066                           TS       CHNL12
000207:
000208: 21,3266           11502                           CCS      NEGUR
000209: 21,3267           35013                           CAF      BIT12
000210: 21,3270           13272                           TCF      +2
000211: 21,3271           35014                           CAF      BIT11
000212: 21,3272           26066                           ADS      CHNL12                                #  (STORED RESULT NOT USED AT PRESENT)
000213:
000214: 21,3273           43241                           CS       BGIM
000215: 21,3274           00006                           EXTEND
000216: 21,3275           03012                           WAND     CHAN12
000217: 21,3276           30066                           CA       CHNL12
000218: 21,3277           00006                           EXTEND
000219: 21,3300           05012                           WOR      CHAN12
000220:
000221: 21,3301           00002                           TC       Q                                     #  RETURN TO CALLER.
000222:
000223: 21,3302                                           BANK     21
000224: 21,3302  E6,1451                                  EBANK=   QDIFF
000225: 21,2000                                           SETLOC   DAPS4
000226: 21,2000                                           BANK
000227:
000228:                                                                                                  #  SUBROUTINE TIMEGMBL:  MOD 0, OCTOBER 1967, CRAIG WORK
000229:
000230:                                                                                                  #  TIMEGMBL COMPUTES THE DRIVE TIME NEEDED FOR THE TRIM GIMBAL TO POSITION THE DESCENT ENGINE NOZZLE SO AS TO NULL
000231:                                                                                                  #  THE OFFSET ANGULAR ACCELERATION ABOUT THE Q (OR R) AXIS.  INSTEAD OF USING AOSQ(R), TIMEGMBL USES .4*AOSQ(R),
000232:                                                                                                  #  SCALED AT PI/8.                         FOR EACH AXIS, THE DRIVE TIME IS COMPUTED AS ABS(ALPHA/ACCDOT).  A ZERO
000233:                                                                                                  #  ALPHA OR ACCDOT OR A ZERO QUOTIENT TURNS OFF THE GIMBAL DRIVE IMMEDIATELY.  OTHERWISE, THE GIMBAL IS TURNED ON
000234:                                                                                                  #  DRIVING IN THE CORRECT DIRECTION. THE Q(R)GIMTIMR IS SET TO TERMINATE THE DRIVE AND Q(R)ACCDOT
000235:                                                                                                  #  IS STORED TO REFLECT THE NEW ACCELERATION DERIVATIVE.  NEGUQ(R) WILL CONTAIN +1,+0,-1 FOR A Q(R)ACCDOT VALUE
000236:                                                                                                  #  WHICH IS NEGATIVE, ZERO, OR POSITIVE.
000237:
000238:                                                                                                  #  INPUTS:       AOSQ,AOSR, SCALED AT P1/2, AND ACCDOTQ, ACCDOTR AT PI/2(7).     PI/2(7).
000239:
000240:                                                                                                  #  OUTPUTS:      NEW GIMBAL DRIVE BITS IN CHANNEL 12,NEGUQ,NEGUR,QACCDOT AND RACCDOT, THE LAST SCALED AT PI/2(7).
000241:                                                                                                  #                Q(R)GIMTIMR WILL BE SET TO TIME AND TERMINATE GIMBAL DRIVE(S)
000242:
000243:                                                                                                  #  DEBRIS:       A,L,Q, ITEMPS 2,3,6, RUPTREG2 AND ACDT+C12 DEBRIS.
000244:
000245:                                                                                                  #  EXITS:        VIA TC Q.
000246:
000247:                                                                                                  #  ALARMS, ABORTS, :  NONE
000248:
000249:                                                                                                  #  SUBROUTINES:  ACDT+C12, IBNKCALL
000250:
000251:                                                                                                  #  WARNING:      THIS SUBROUTINE WRITES INTO CHANNEL 12 AND USES THE ITEMPS.  THEREFORE IT MAY ONLY BE CALLED WITH
000252:                                                                                                  #  INTERRUPT INHIBITED.
000253:
000254:                                                                                                  #  ERASABLE STORAGE CONFIGURATION (NEEDED BY THE INDEXING METHODS):
000255:                                                                                                  #        NEGUQ           ERASE   +2              NEGATIVE OF Q-AXIS GIMBAL DRIVE
000256:                                                                                                  #        (SPWORD)        EQUALS  NEGUQ +1        ANY S.P. ERASABLE NUMBER, NOW THRSTCMD
000257:                                                                                                  #        NEGUR           EQUALS  NEGUQ +2        NEGATIVE OF R-AXIS GIMBAL DRIVE
000258:
000259:                                                                                                  #        ACCDOTQ         ERASE   +2              Q-JERK TERM SCALED AT PI/2(7) RAD/SEC(3)
000260:                                                                                                  #        (SPWORD)        EQUALS  ACCDOTQ +1      ANY S.P. ERASABLE NUMBER NOW QACCDOT
000261:                                                                                                  #        ACCDOTR         EQUALS  ACCDOTQ +2      R-JERK TERM SCALED AT PI/2(7) RAD/SEC(3)
000262:                                                                                                  #                                                ACCDOTQ, ACCDOTR ARE MAGNITUDES.
000263:                                                                                                  #        AOSQ            ERASE   +4              Q-AXIS ACC., D.P. AT PI/2 R/SEC(2)
000264:                                                                                                  #        AOSR            EQUALS  AOSQ +2         R-AXIS ACCELERATION SCALED AT PI/2 R/S2
000265:
000266: 21,3302     0066               QRNDXER            EQUALS   ITEMP6
000267: 21,3302           25253        .66667             DEC      .66667
000268: 21,3303           23146        OCT23146           OCTAL    23146                                 #  DECIMAL .6
000269: 21,3304     0063               NZACCDOT           EQUALS   ITEMP3
000270:
000271: 21,3304           35026        TIMEGMBL           CAF      ONE                                   #  INITIALIZE ALLOWGTS.
000272: 21,3305           55624                           TS       ALLOWGTS
000273:
000274: 21,3306           35025                           CAF      TWO                                   #  SET UP LOOP FOR R AXIS.
000275: 21,3307           22002                           LXCH     Q                                     #  SAVE RETURN ADDRESS.
000276: 21,3310           22071                           LXCH     RUPTREG2
000277: 21,3311           13313                           TCF      +2
000278: 21,3312           35030        TIMQGMBL           CAF      ZERO                                  #  NOW DO THE Q-AXIS
000279: 21,3313           54066                           TS       QRNDXER
000280: 21,3314           50066                           INDEX    QRNDXER
000281: 21,3315           31507                           CA       ACCDOTQ                               #  ACCDOT IS PRESUMED TO BE AT PI/2(7).
000282: 21,3316           00006                           EXTEND
000283: 21,3317           63367                           BZMF     TGOFFNOW                              #  IS ACCDOT LESS THAN OR EQUAL TO 0?
000284: 21,3320           54063                           TS       NZACCDOT                              #  NO.  STORE NON-ZERO, POSITIVE ACCDOT.
000285:
000286: 21,3321           50066        ALPHATRY           INDEX    QRNDXER
000287: 21,3322           41532                           CS       AOSQ
000288: 21,3323           00006                           EXTEND
000289: 21,3324           13367                           BZF      TGOFFNOW                              #  IS ALPHA ZERO?
000290:
000291: 21,3325           54002                           TS       Q                                     #  SAVE A COPY OF -AOS.
000292: 21,3326           00006                           EXTEND                                         #  NO.  RESCALE FOR TIMEGMBL USE.
000293: 21,3327           73303                           MP       OCT23146                              #  OCTAL 23146 IS DECIMAL .6
000294: 21,3330           60002                           AD       Q                                     #  -1.6*AOS AT PI/2 = -.4*AOS AT PI/8.
000295: 21,3331           54001                           TS       L                                     #  WAS THERE OVERFLOW?
000296: 21,3332           13337                           TCF      SETNEGU                               #  NO.  COMPUTE DRIVE TIME.
000297:
000298: 21,3333           40000                           CS       A                                     #  RECOVER  -SGN(AOS) IN THE A REGISTER.
000299: 21,3334           50066                           INDEX    QRNDXER                               #  YES.  START DRIVE WITHOUT WAITLIST.
000300: 21,3335           57500                           XCH      NEGUQ
000301: 21,3336           13373                           TCF      NOTALLOW                              #  KNOCK DOWN THE ALLOWGTS FLAG.
000302:
000303: 21,3337           00006        SETNEGU            EXTEND
000304: 21,3340           63345                           BZMF     POSALPH
000305:
000306: 21,3341           40000                           COM
000307: 21,3342           54062                           TS       ITEMP2                                #  STORE -ABS(.4*AOS) SCALED AT PI/8.
000308: 21,3343           45026                           CS       BIT1
000309: 21,3344           13347                           TCF      POSALPH    +2
000310: 21,3345           54062        POSALPH            TS       ITEMP2                                #  STORE -ABS(.4*AOS) SCALED AT PI/8.
000311: 21,3346           35026                           CA       BIT1
000312: 21,3347           50066                 +2        INDEX    QRNDXER                               #  SGN(AOS) INTO NEGU
000313: 21,3350           55500                           TS       NEGUQ                                 #  STORE SGN(APLHA) AS NEGU
000314:
000315: 21,3351           30063                           CA       NZACCDOT
000316: 21,3352           00006                           EXTEND
000317: 21,3353           75013                           MP       BIT12                                 #  2*ACCDOT, SCALED AT PI/8.
000318: 21,3354           60062                           AD       ITEMP2                                #  -ABS(ALPHA) + 2*ACCDOT, AT PI/8.
000319: 21,3355           00006                           EXTEND
000320: 21,3356           63373                           BZMF     NOTALLOW                              #  IS DRIVE TIME MORE THAN TWO SECONDS?
000321: 21,3357           40062                           CS       ITEMP2                                #  NO.  COMPUTE DRIVE TIME.
000322: 21,3360           00006                           EXTEND                                         #  ABS(ALPHA) AT PI/8.
000323: 21,3361           73407                           MP       OCT00240                              #  DECIMAL 10/1024
000324: 21,3362           00006                           EXTEND                                         #  QUOTIENT IS DRIVE TIME AT WAITLIST.
000325: 21,3363           10063                           DV       NZACCDOT                              #  ABS(ALPHA)/ACCDOT AT 2(14)/100
000326: 21,3364           00006                           EXTEND
000327: 21,3365           13367                           BZF      TGOFFNOW                              #  DRIVE TIME MUST BE GREATER THAN ZERO.
000328:
000329: 21,3366           13401                           TCF      DRIVEON
000330:
000331: 21,3367           35030        TGOFFNOW           CAF      ZERO                                  #  TURN OFF GIMBAL NOW.
000332: 21,3370           50066                           INDEX    QRNDXER
000333: 21,3371           55500                           TS       NEGUQ
000334:
000335: 21,3372           13403                           TCF      DONEYET
000336:
000337: 21,3373           34113        NOTALLOW           CAF      OCT31
000338: 21,3374           50066                           INDEX    QRNDXER
000339: 21,3375           55626                           TS       QGIMTIMR
000340: 21,3376           35030                           CAF      ZERO                                  #  DRIVE TIME IS MORE THAN 2 SECONDS, SO
000341: 21,3377           55624                           TS       ALLOWGTS                              #  DO NOT PERMIT FURTHER GTS ATTITUDE-RATE
000342:                                                                                                  #  CONTROL UNTIL AOSTASK APPROVES.
000343: 21,3400           13403                           TCF      DONEYET                               #  NO WAITLIST CALL IS MADE.
000344:
000345: 21,3401           50066        DRIVEON            INDEX    QRNDXER
000346: 21,3402           55626                           TS       QGIMTIMR                              #  CHOOSE Q OR R AXIS.
000347:
000348: 21,3403           10066        DONEYET            CCS      QRNDXER
000349: 21,3404           13312                           TCF      TIMQGMBL
000350:
000351: 21,3405           03242                           TC       ACDT+C12                              #  TURN OF CHANNEL BITS, SET Q(R)ACCDOTS.
000352:
000353: 21,3406           00071                           TC       RUPTREG2                              #  RETURN TO CALLER.
000354:
000355: 21,3407           00240        OCT00240           OCTAL    00240                                 #  DECIMAL 10/1024
000356:
000357:                                                                                                  #  THE FOLLOWING SECTION IS A CONTINUATION OF THE TRIM GIMBAL CONTROL FROM THE LAST GTS ENTRY.  THE QUANTITY NEGUSUM
000358:                                                                                                  #  IS COMPUTED FOR EACH AXIS (Q,R), .707*DEL*FUNCTION(3/2) + K2THETA = NEGUSUM.  NEW DRIVES ARE ENTERED TO CH 12.
000359:
000360: 21,3410           11473        RSTOFGTS           CCS      FUNCTION
000361: 21,3411           13430                           TCF      GOODARG                               #  FUNCTION IS POSITIVE.  GET 3/2 POWER.
000362: 21,3412           13414                           TCF      +2                                    #  HIGH ORDER WORD IS ZERO.  TRY THE LOWER.
000363: 21,3413           13541                           TCF      NEGUSUM                               #  NEGATIVE.  USE ZERO FOR 3/2 POWER.
000364:
000365: 21,3414           41474                           CS       FUNCTION   +1                         #  IF ARG IS LESS THAN 2(-18), THEN THE 3/2
000366: 21,3415           65014                           AD       BIT11                                 #  POWER IS LESS THAN 2(-27).  USE ZERO.
000367: 21,3416           00006                           EXTEND
000368: 21,3417           63421                           BZMF     ZEROHIGH                              #  BRANCH IF ARG NOT LESS THAN 2(-18).
000369:
000370: 21,3420           13541                           TCF      NEGUSUM
000371:
000372: 21,3421           34331        ZEROHIGH           CA       FOURTEEN                              #  ARG LESS THAN 2(-14) MEANS 3/2 POWER
000373:                                                                                                  #  WILL BE LESS THAN 2(-21).
000374: 21,3422           55736                           TS       SHFTFLAG
000375:
000376: 21,3423           35025                           CA       TWO
000377: 21,3424           55737                           TS       ININDEX                               #  INITIALIZE THE SHIFT LOOP.
000378:
000379:                                                                                                  #  COLLECT THE 14 MOST SIGNIFICANT BITS OF
000380: 21,3425           57474                           XCH      FUNCTION   +1                         #  THE 28 INTO THE HIGH ORDER WORD.
000381: 21,3426           57473                           XCH      FUNCTION
000382: 21,3427           13443                           TCF      SCALLOOP
000383: 21,3430           35746        GOODARG            CA       TWELVE
000384: 21,3431           55737                           TS       ININDEX                               #  INITIALIZE THE SHIFT LOOP.
000385: 21,3432           35030                           CA       ZERO                                  #  THERE ARE SIGNIFICANT BITS IN THE HIGH
000386: 21,3433           55736                           TS       SHFTFLAG                              #  ORDER WORD, SO SET SHFTFLAG TO ZERO.
000387:
000388: 21,3434           13443                           TCF      SCALLOOP
000389:
000390: 21,3435           31473        SCALSTRT           CA       FUNCTION
000391: 21,3436           13460                           TCF      SCALDONE
000392:
000393: 21,3437           37720        MULBUSH            CA       NEG2                                  #  IF ARG IS NOT LESS THAN 1/4, INDEX IS
000394: 21,3440           27737                           ADS      ININDEX                               #  ZERO, INDICATING NO SHIFT NEEDED.
000395: 21,3441           00006                           EXTEND                                         #  BRANCH IF ARG IS NOT LESS THAN 1/4.
000396: 21,3442           63435                           BZMF     SCALSTRT                              #  OTHERWISE COMPARE ARG WITH A REFERENCE
000397:                                                                                                  #  WHICH IS 4 TIMES LARGER THAN THE LAST.
000398: 21,3443           41473        SCALLOOP           CS       FUNCTION
000399: 21,3444           51737                           INDEX    ININDEX
000400: 21,3445           65010                           AD       BIT15                                 #  REFERENCE MAGNITUDE LESS OR EQUAL TO 1/4
000401: 21,3446           00006                           EXTEND
000402: 21,3447           63437                           BZMF     MULBUSH                               #  IF ARG IS NOT LESS THAN REFERENCE, GO
000403:                                                                                                  #  AROUND THE MULBERRY BUSH ONCE MORE.
000404: 21,3450           51737                           INDEX    ININDEX
000405: 21,3451           35010                           CA       BIT15                                 #  THIS IS THE SCALE MAGNITUDE
000406: 21,3452           56002                           XCH      Q                                     #  2**(-ININDEX) IS THE SHIFT DIVISOR.
000407: 21,3453           00006                           EXTEND                                         #  RESCALE ARGUMENT.
000408: 21,3454           31474                           DCA      FUNCTION
000409: 21,3455           00006                           EXTEND
000410: 21,3456           10002                           DV       Q
000411: 21,3457           55473                           TS       FUNCTION                              #  ININDEX AND SHFTFLAG PRESERVE INFO FOR
000412:                                                                                                  #  RESCALING AFTER ROOT PROCESS.
000413: 21,3460           00006        SCALDONE           EXTEND                                         #  AFTER 3/2 POWER IS TAKEN, SCALE FACTOR
000414: 21,3461           75012                           MP       BIT13                                 #  OF SQRT(1/2) WILL BE NEEDED, SO FACTOR
000415: 21,3462           55742                           TS       HALFARG                               #  OF 1/2 IS INCLUDED NOW, BEFORE SQRT.
000416:
000417: 21,3463           33567                           CA       STARTER                               #  INITIAL GUESS FOR SQRT ALGORITHM.
000418: 21,3464           03570                           TC       ROOTCYCL
000419: 21,3465           03570                           TC       ROOTCYCL
000420: 21,3466           03570                           TC       ROOTCYCL
000421:
000422: 21,3467           00006                           EXTEND                                         #  SQRT(1/2)*SQRT(ARG) IN A.
000423: 21,3470           71473                           MP       FUNCTION                              #  SQRT(1/2)*ARG*SQRT(ARG) IN A,L.
000424: 21,3471           53474                           DXCH     FUNCTION
000425:
000426: 21,3472           31736        DOSHIFT            CA       SHFTFLAG                              #  HOW MANY SHIFT BITS ARE THERE?
000427: 21,3473           61737                           AD       ININDEX                               #  2**(-ININDEX) WAS SHIFT DIVISOR.
000428: 21,3474           54021                           TS       SR
000429: 21,3475           60021                           AD       SR                                    #  THIS MANY SHIFTS ARE REQUIRED.
000430: 21,3476           54002        SAVESHFT           TS       Q                                     #  Q BOUNDS ARE ZERO AND 24 (DECIMAL).
000431: 21,3477           00006                           EXTEND
000432: 21,3500           63526                           BZMF     SUMNEGU                               #  BRANCH IF SHIFTING IS UNNECESSARY.
000433:
000434: 21,3501           44331                           CS       FOURTEEN
000435: 21,3502           60002                           AD       Q
000436: 21,3503           00006                           EXTEND                                         #  Q = 0(MOD 3), SO A REG IS NON-ZERO.
000437: 21,3504           63511                           BZMF     MINISHFT                              #  BRANCH IF SMALL SHIFT SUFFICES.
000438:
000439: 21,3505           54002        MAXISHFT           TS       Q                                     #  14 BIT SHIFT RIGHT NOW.
000440: 21,3506           35030                           CA       ZERO
000441: 21,3507           57473                           XCH      FUNCTION
000442: 21,3510           55474                           TS       FUNCTION   +1
000443:
000444: 21,3511           50002        MINISHFT           INDEX    Q                                     #  C(Q) ARE GREATER THAN ZERO.
000445: 21,3512           35010                           CA       BIT15
000446: 21,3513           54002                           TS       Q                                     #  2**(-Q) WILL BE SHIFT MULTIPLIER.
000447: 21,3514           00006                           EXTEND
000448: 21,3515           71474                           MP       FUNCTION   +1
000449: 21,3516           56001                           XCH      L
000450: 21,3517           35030                           CA       ZERO
000451: 21,3520           53474                           DXCH     FUNCTION                              #  LOWER WORD SHIFTED NOW.
000452: 21,3521           00006                           EXTEND
000453: 21,3522           63526                           BZMF     SUMNEGU                               #  BRANCH IF UPPER WORD WAS ZERO.
000454: 21,3523           00006                           EXTEND                                         #  SHIFT UPPER WORD.
000455: 21,3524           70002                           MP       Q
000456: 21,3525           21474                           DAS      FUNCTION                              #  NO OVERFLOW POSSIBLE.
000457:
000458: 21,3526           41744        SUMNEGU            CS       DEL                                   #  INCLUDE DEL FACTOR IN PRODUCT TERM.
000459: 21,3527           00006                           EXTEND
000460: 21,3530           63534                           BZMF     SUMTERMS
000461:
000462: 21,3531           00006                           EXTEND                                         #  DEL FACTOR IS MINUS ONE.
000463: 21,3532           41474                           DCS      FUNCTION
000464: 21,3533           13540                           TCF      NEGUSUM    -1                         #  NOW ADD IN THE K2THETA TERM.
000465:
000466: 21,3534           00006        SUMTERMS           EXTEND
000467: 21,3535           13541                           BZF      NEGUSUM                               #  BRANCH IF DEL IS ZERO.
000468:
000469: 21,3536           00006                           EXTEND                                         #  DEL FACTOR IS +1.
000470: 21,3537           31474                           DCA      FUNCTION
000471: 21,3540           21735                           DAS      K2THETA                               #  NOW ADD IN THE K2THETA TERM.
000472: 21,3541           11734        NEGUSUM            CCS      K2THETA                               #  TEST SIGN OF HIGH ORDER PART.
000473: 21,3542           13546                           TCF      NEGDRIVE
000474: 21,3543           13545                           TCF      +2
000475: 21,3544           13550                           TCF      POSDRIVE
000476:
000477: 21,3545           11735                           CCS      K2THETA    +1                         #  SIGN TEST FOR LOW ORDER PART.
000478: 21,3546           35026        NEGDRIVE           CA       BIT1
000479: 21,3547           13551                           TCF      +2                                    #  STOP GIMBAL DRIVE FOR A ZERO NEGUSUM.
000480: 21,3550           45026        POSDRIVE           CS       BIT1
000481: 21,3551           51745                           INDEX    QRCNTR
000482: 21,3552           55500                           TS       NEGUQ
000483:
000484: 21,3553           11745                           CCS      QRCNTR                                #  HAVE BOTH AXES BEEN PROCESSED?
000485: 21,3554           13100                           TCF      GOQTRIMG                              #  NO.  DO Q AXIS NEXT.
000486:
000487: 21,3555           00004                           INHINT
000488: 21,3556           03242                           TC       ACDT+C12
000489: 21,3557           00003                           RELINT
000490:
000491: 21,3560           31471                           CA       SAVESR                                #  RESTORE THE SR
000492: 21,3561           54021                           TS       SR
000493:
000494: 21,3562           00006        GOCLOSE            EXTEND                                         #  TERMINATE THE JASK.
000495: 21,3563           33566                           DCA      CLOSEADR
000496: 21,3564           52006                           DTCB
000497:
000498: 21,3565  E6,1532                                  EBANK=   AOSQ
000499: 21,3565           03021 36106  CLOSEADR           2CADR    CLOSEOUT                              #  TERMINATE THE JASK.
000500:
000501: 21,3567     5746               TWELVE             EQUALS   OCT14
000502: 21,3567           20761        STARTER            DEC      .53033                                #  INITIAL VALUE FOR SQRT ALGORITHM.
000503:
000504:                                                                                                  #  SUBROUTINE ROOTCYCL:  BY CRAIG WORK,3 APRIL 68
000505:
000506:                                                                                                  #  ROOTCYCL IS A SUBROUTINE WHICH EXECUTES ONE NEWTON SQUARE ROOT ALGORITHM ITERATION.  THE INITIAL GUESS AT THE
000507:                                                                                                  #  SQUARE ROOT IS PRESUMED TO BE IN THE A REGISTER AND ONE-HALF THE SQUARE IS TAKEN FROM HALFARG.  THE NEW APPROXI-
000508:                                                                                                  #  MATION TO THE SQUARE ROOT IS RETURNED IN THE A REGISTER.  DEBRIS:  A,L,SR,SCRATCH.   ROOTCYCL IS CALLED FROM
000509:                                                                                                  #  LOCATION (LOC) BY A TC ROOTCYCL, AND RETURNS (TC Q) TO LOC +1.
000510:
000511:                                                                                                  #  WARNING:  IF THE INITIAL GUESS IS NOT GREATER THAN THE SQUARE, DIVIDE OR ADD OVERFLOW IS A REAL POSSIBILITY.
000512:
000513: 21,3570           55741        ROOTCYCL           TS       SCRATCH                               #  STORE X
000514: 21,3571           54021                           TS       SR                                    #  X/2 NOW IN SR
000515: 21,3572           31742                           CA       HALFARG                               #  ARG/2 IN THE A REG
000516: 21,3573           22007                           ZL                                             #  PREPARE FOR DIVISION
000517: 21,3574           00006                           EXTEND
000518: 21,3575           11741                           DV       SCRATCH                               #  (ARG/X)/2
000519: 21,3576           60021                           AD       SR                                    #  (X + ARG/X)/2 IN THE A REG
000520: 21,3577           00002                           TC       Q
000521:
000522:

End of include-file TRIM_GIMBAL_CONTROL_SYSTEM.agc.  Parent file is MAIN.agc


