
Source Code


000002:                                                                                                  ## Copyright:   Public domain.
000003:                                                                                                  ## Filename:    UPDATE_PROGRAM.agc
000004:                                                                                                  ## Purpose:     A section of an attempt to reconstruct Sundance revision 306
000005:                                                                                                  ##              as closely as possible with available information. Sundance
000006:                                                                                                  ##              306 is the source code for the Lunar Module's (LM) Apollo
000007:                                                                                                  ##              Guidance Computer (AGC) for Apollo 9. This program was created
000008:                                                                                                  ##              using the mixed-revision SundanceXXX as a starting point, and
000009:                                                                                                  ##              pulling back features from Luminary 69 believed to have been
000010:                                                                                                  ##              added based on memos, checklists, observed address changes,
000011:                                                                                                  ##              or the Sundance GSOPs.
000012:                                                                                                  ## Assembler:   yaYUL
000013:                                                                                                  ## Contact:     Ron Burkey <info@sandroid.org>.
000014:                                                                                                  ## Website:     www.ibiblio.org/apollo/index.html
000015:                                                                                                  ## Mod history: 2020-07-24 MAS  Created from SundanceXXX.
000016:
000017:
000018:
000019:                                                                                                  #  PROGRAM NAME:   P27
000020:                                                                                                  #  WRITTEN BY:     KILROY/ DE WOLF
000021:
000022:                                                                                                  #  MOD NO:         6
000023:                                                                                                  #  MOD BY:         KILROY
000024:                                                                                                  #  DATE:           01DEC67
000025:
000026:                                                                                                  #  LOG SECTION:    UPDATE PROGRAM.
000027:
000028:                                                                                                  #  FUNCT. DESCR:   P27 (THE UPDATE PROGRAM) PROCESSES COMMANDS AND DATA
000029:                                                                                                  #                      INSERTIONS REQUESTED BY THE GROUND VIA UPLINK.
000030:                                                                                                  #                      THE P27 PROGRAM WILL ACCEPT UPDATES
000031:                                                                                                  #                      ONLY DURING P00 FOR THE LM, AND ONLY DURING P00,
000032:                                                                                                  #                      P02, AND FRESH START FOR THE CSM
000033:
000034:                                                                                                  #  CALLING SEQ:    PROGRAM IS INITIATED BY UPLINK ENTRY OF VERBS 70, 71, 72 AND 73.
000035:
000036:                                                                                                  #  SUBROUTINES:    TESTXACT, NEWMODEX, NEWMODEX +3, GOXDSPF, BANKCALL, FINDVAC, INTPRET, INTSTALL, TPAGREE,
000037:                                                                                                  #                  INTWAKEU, ENDEXT, POSTJUMP, FALTON, NEWPHASE, PHASCHNG
000038:
000039:                                                                                                  #  NORMAL EXIT:    TC ENDEXT
000040:
000041:                                                                                                  #  ALARM/ABORT:    TC FALTON FOLLOWED BY TC ENDEXT
000042:
000043:                                                                                                  #  RESTARTS:       P27 IS RESTART PROTECTED IN TWO WAYS...
000044:                                                                                                  #                  1. PRIOR TO VERIFLAG INVERSION(WHICH IS CAUSED BY THE GROUND/ASTRONAUT'S VERIFICATION OF UPDATE
000045:                                                                                                  #                     DATA BY SENDING A V33E WHEN V21N02 IS FLASHING)---
000046:                                                                                                  #                     NO PROTECTION EXCEPT PRE-P27 MODE IS RESTORED, COAST + ALIGN DOWNLIST IS SELECTED AND UPLINK
000047:                                                                                                  #                     ACTIVITY LIGHT IS TURNED OFF.(JUST AS IF A V34E WAS SENT DURING P27 DATA LOADS).
000048:                                                                                                  #                     V70,V71,V72 OR V73 WILL HAVE TO BE COMPLETELY RESENT BY USER.
000049:                                                                                                  #                  2. AFTER VERIFLAG INVERSION(WHEN UPDATE OF THE SPECIFIED ERASABLES IS BEING PERFORMED)---
000050:                                                                                                  #                     PROTECTED AGAINST RESTARTS.
000051:
000052:                                                                                                  #  DEBRIS:         UPBUFF   (20D)  TEMP STORAGE FOR ADDRESSES AND CONTENTS.
000053:                                                                                                  #                  UPVERB   (1)    VERB NUMBER MINUS 70D (E.G. FOR V72, UPVERB = 72D - 70D = 2)
000054:                                                                                                  #                  UPOLDMOD (1)    FOR MAJOR MODE INTERRUPTED BY P27.
000055:                                                                                                  #                  COMPNUMB (1)    TOTAL NUMBER OF COMPONENTS TO BE TRANSMITTED.
000056:                                                                                                  #                  UPCOUNT  (1)    ACTUAL NUMBER OF COMPONENTS RECEIVED.
000057:                                                                                                  #                  UPTEMP   (1)    SCRATCH, BUT USUALLY CONTAINS COMPONENT NUMBER TO BE CHANGED DURING VERIFY CYCLE
000058:
000059:                                                                                                  #  INPUT:
000060:
000061:                                                                                                  #   ENTRY:           DESCRIPTION
000062:
000063:                                                                                                  #   V70EXXXXXEXXXXXE (LIFTOFF TIME INCREMENT) DOUBLE PRECISION OCTAL TIME INCREMENT, XXXXX XXXXX,
000064:                                                                                                  #                    IS ADDED TO TEPHEM, SUBTRACTED FROM AGC CLOCK(TIME2,TIME1), SUBTRACTED FROM CSM STATE
000065:                                                                                                  #                    VECTOR TIME(TETCSM) AND SUBTRACTED FROM LEM STATE VECTOR TIME(TETLEM).
000066:                                                                                                  #                    THE DP OCTAL TIME INCREMENT IS SCALED AT 2(28).
000067:                                                                                                  #   V71EIIEAAAAE     (CONTIGUOUS BLOCK UPDATE) II-2 OCTAL COMPONENTS,XXXXX,
000068:                                                                                                  #   XXXXXE           ARE LOADED INTO ERASABLE STARTING AT ECADR, AAAA.
000069:                                                                                                  #  XXXXXE            IT IS .GE. 3 .AND. .LE. 20D.,
000070:                                                                                                  #                    AND (AAAA + II -3) DOES NOT PRODUCE AN ADDRESS IN THE
000071:                                                                                                  #  9 NEXT BANK
000072:                                                                                                  #    .               SCALING IS SAME AS INTERNAL REGISTERS.
000073:
000074:                                                                                                  #   V72EIIE          (SCATTER UPDATE) (II-1)/2 OCTAL COMPONENTS,XXXXX, ARE
000075:                                                                                                  #   AAAAEXXXXXE      LOADED INTO ERASABLE LOCATIONS, AAAA.
000076:                                                                                                  #   AAAAEXXXXXE      II IS .GE. 3 .AND. .LE. 19D, AND MUST BE ODD.
000077:                                                                                                  #    .               SCALING IS SAME AS INTERNAL REGISTERS.
000078:
000079:                                                                                                  #   V73EXXXXXEXXXXXE (OCTAL CLOCK INCREMENT) DOUBLE PRECISION OCTAL TIME
000080:                                                                                                  #                    INCREMENT XXXXX XXXXX, IS ADDED TO THE AGC CLOCK, IN
000081:                                                                                                  #                    CENTISECONDS SCALED AT (2)28.
000082:                                                                                                  #                    THIS LOAD IS THE OCTAL EQUIVALENT OF V55.
000083:
000084:                                                                                                  #  OUTPUT:         IN ADDITION TO THE ABOVE REGISTER LOADS, ALL UPDATES
000085:                                                                                                  #                  COMPLEMENT BIT3 OF FLAGWORD7.
000086:
000087:                                                                                                  #  ADDITIONAL NOTES: VERB 71, JUST DEFINED ABOVE WILL BE USED TO PERFORM BUT NOT LIMITED TO THE FOLLOWING UPDATES--
000088:                                                                                                  #                  1. CSM/LM STATE VECTOR UPDATE
000089:                                                                                                  #                  2. REFSMMAT UPDATE
000090:
000091:                                                                                                  #           THE FOLLOWING COMMENTS DELINEATE EACH SPECIAL UPDATE----
000092:
000093:                                                                                                  #  1. CSM/LM STATE VECTOR UPDATE (ALL DATA ENTRIES IN OCTAL)
000094:
000095:                                                                                                  #  ENTRIES:        DATA DEFINITION:                                        SCALE FACTORS:
000096:                                                                                                  #  V71E            CONTIGUOUS BLOCK UPDATE VERB
000097:                                                                                                  #     21E          NUMBER OF COMPONENTS FOR STATE VECTOR UPDATE
000098:                                                                                                  #   AAAAE          ECADR OF 'UPSVFLAG'
000099:                                                                                                  #  XXXXXE          STATE VECTOR IDENTIFIER: 00001 FOR CSM, 77776 FOR LEM - EARTH SPHERE OF INFLUENCE SCALING
000100:                                                                                                  #                                           00002 FOR CSM, 77775 FOR LEM - LUNAR SPHERE OF INFLUENCE SCALING
000101:                                                                                                  #  XXXXXEXXXXXE    X POSITION
000102:                                                                                                  #  XXXXXEXXXXXE    Y POSITION
000103:                                                                                                  #  XXXXXEXXXXXE    Z POSITION
000104:                                                                                                  #  XXXXXEXXXXXE    X VELOCITY
000105:                                                                                                  #  XXXXXEXXXXXE    Y VELOCITY
000106:                                                                                                  #  XXXXXEXXXXXE    Z VELOCITY
000107:                                                                                                  #  XXXXXEXXXXXE    TIME FROM AGC CLOCK ZERO
000108:                                                                                                  #  V33E            VERB 33 TO SIGNAL THAT THE STATE VECTOR IS READY TO BE STORED.
000109:
000110:                                                                                                  #  2. REFSMMAT(ALL DATA ENTRIES IN OCTAL)
000111:                                                                                                  #  ENTRIES:        DATA DEFINITIONS:                                       SCALE FACTORS:
000112:                                                                                                  #  V71E            CONTIGUOUS BLOCK UPDATE VERB
000113:                                                                                                  #     24E          NUMBER OF COMPONENTS FOR REFSMMAT UPDATE
000114:                                                                                                  #   AAAAE          ECADR OF 'REFSMMAT'
000115:                                                                                                  #  XXXXXEXXXXXE    ROW 1 COLUMN 1                                          2(-1)
000116:                                                                                                  #  XXXXXEXXXXXE    ROW 1 COLUMN 2                                          2(-1)
000117:                                                                                                  #  XXXXXEXXXXXE    ROW 1 COLUMN 3                                          2(-1)
000118:                                                                                                  #  XXXXXEXXXXXE    ROW 2 COLUMN 1                                          2(-1)
000119:                                                                                                  #  XXXXXEXXXXXE    ROW 2 COLUMN 2                                          2(-1)
000120:                                                                                                  #  XXXXXEXXXXXE    ROW 2 COLUMN 3                                          2(-1)
000121:                                                                                                  #  XXXXXEXXXXXE    ROW 3 COLUMN 1                                          2(-1)
000122:                                                                                                  #  XXXXXEXXXXXE    ROW 3 COLUMN 2                                          2(-1)
000123:                                                                                                  #  XXXXXEXXXXXE    ROW 3 COLUMN 3                                          2(-1)
000124:                                                                                                  #  V33E            VERB 33 TO SIGNAL THAT REFSMMAT IS READY TO BE STORED.
000125:
000126:
000127: 07,3701                                           BANK     07
000128: 43,2000                                           SETLOC   EXTVERBS
000129: 43,2000                                           BANK
000130:
000131: 43,3724  E3,1706                                  EBANK=   TEPHEM
000132:
000133: 43,3724                                           COUNT*   $$/P27
000134: 43,3724           35030        V70UPDAT           CAF      UP70                                  #  COMES HERE ON V70E
000135: 43,3725           13733                           TCF      V73UPDAT   +1
000136:
000137: 43,3726           35026        V71UPDAT           CAF      UP71                                  #  COMES HERE ON V71E
000138: 43,3727           13733                           TCF      V73UPDAT   +1
000139:
000140: 43,3730           35025        V72UPDAT           CAF      UP72                                  #  COMES HERE ON V72E
000141: 43,3731           13733                           TCF      V73UPDAT   +1
000142:
000143: 43,3732           36221        V73UPDAT           CAF      UP73                                  #  COMES HERE ON V73E
000144:
000145: 43,3733           54300                 +1        TS       UPVERBSV                              #  SAVE UPVERB UNTIL IT'S OK TO ENTER P27
000146:
000147: 43,3734           02076                           TC       TESTXACT                              #  GRAB DISPLAY IF AVAILABLE, OTHERWISE
000148:                                                                                                  #  TURN*OPERATOR ERROR* ON AND TERMINATEJOB
000149:
000150: 43,3735           31012                           CA       MODREG                                #  CHECK IF UPDATE ALLOWED
000151: 43,3736           00006                           EXTEND                                         #  FIRST CHECK FOR MODREG = +0, -0
000152: 43,3737           13741                           BZF      +2                                    #  (+0 = P00, -0 = FRESHSTART)
000153: 43,3740           03751                           TC       CKMDMORE                              #  NOW CHECK FOR PROGRAM WHICH CAN BE
000154:                                                                                                  #                                          INTERRUPTED BY P27.
000155:
000156: 43,3741           31012                           CAE      MODREG                                #  UPDATE ALLOWED.
000157: 43,3742           54303                           TS       UPOLDMOD                              #  SAVE CURRENT MAJOR MODE
000158: 43,3743           30300                           CAE      UPVERBSV                              #  SET UPVERB TO INDICATE TO P27
000159:
000160: 43,3744           54304                           TS       UPVERB                                #  WHICH EXTENDED VERB CALLED IT.
000161:
000162: 43,3745           35026                           CAF      ONE
000163: 43,3746           54305                           TS       UPCOUNT                               #  INITIALIZE UPCOUNT TO 1
000164:
000165: 43,3747           04674                           TC       POSTJUMP                              #  LEAVE EXTENDED VERB BANK AND
000166: 43,3750           11213                           CADR     UPPART2                               #  GO TO UPDATE PROGRAM (P27) BANK.
000167:
000168: 43,3751           40101        CKMDMORE           CS       FLAGWRD5
000169: 43,3752           75017                           MASK     BIT8                                  #  CHECK IF COMPUTER IS LGC
000170: 43,3753           10000                           CCS      A                                     #  IS COMPUTER LGC OR AGC
000171: 43,3754           13762        UPERLEM            TCF      UPERROR                               #  ERROR- IT'S THE LEM + MODE IS NOT POO.
000172: 43,3755           46221                           CS       THREE
000173: 43,3756           71012                           MASK     MODREG
000174: 43,3757           10000                           CCS      A
000175: 43,3760           13762        UPERCMC            TCF      UPERROR                               #  ERROR- IT'S THE CMC AND MODE IS NOT
000176:                                                                                                  #                                          P00 OR P02.
000177: 43,3761           00002                           TC       Q                                     #  ALLOW UPDATE TO PROCEED
000178: 43,3762           04674        UPERROR            TC       POSTJUMP                              #  TURN ON 'OPERATOR ERROR' LIGHT
000179: 43,3763           11626                           CADR     UPERROUT   +2                         #  GO TO COMMON UPDATE PROGRAM EXIT
000180:
000181: 43,3764     5030               UP70               EQUALS   ZERO
000182: 43,3764     5026               UP71               EQUALS   ONE
000183: 43,3764     5025               UP72               EQUALS   TWO
000184: 43,3764     6221               UP73               EQUALS   THREE
000185:
000186:
000187: 04,3213                                           BANK     04
000188: 04,2000                                           SETLOC   UPDATE2
000189: 04,2000                                           BANK
000190:
000191: 04,3213                                           COUNT*   $$/P27
000192:
000193: 04,3213                        UPPART2            EQUALS                                         #  UPDATE PROGRAM - PART 2
000194:
000195: 04,3213           05423                           TC       PHASCHNG                              #  SET RESTART GROUP 6 TO RESTORE OLD MODE
000196: 04,3214           07026                           OCT      07026                                 #  AND DOWNLIST AND EXIT IF RESTART OCCURS.
000197: 04,3215           30000                           OCT      30000                                 #  PRIORITY SAME AS CHRPRIO
000198: 04,3216     0306                                  EBANK=   UPBUFF
000199: 04,3216           03556 10100                     2CADR    UPOUT      +1
000200:
000201: 04,3220           35026                           CAF      ONE
000202: 04,3221           54332                           TS       DNLSTCOD                              #  DOWNLIST
000203:
000204: 04,3222           05361                           TC       NEWMODEX                              #  SET MAJOR MODE = 27
000205: 04,3223           00033                           DEC      27         B-14
000206:
000207: 04,3224           50304                           INDEX    UPVERB                                #  BRANCH DEPENDING ON WHETHER THE UPDATE
000208: 04,3225           13226                           TCF      +1                                    #  VERB REQUIRES A FIXED OR VARIABLE NUMBER
000209: 04,3226           13231                           TCF      +3                                    #  V70 FIXED.               (OF COMPONENTS.
000210: 04,3227           13234                           TCF      OHWELL1                               #  V71 VARIABLE - GO GET NO. OF COMPONENTS
000211: 04,3230           13234                           TCF      OHWELL1                               #  V72 VARIABLE - GO GET NO. OF COMPONENTS
000212: 04,3231           35025                           CA       TWO                                   #  V73 (AND V70) FIXED
000213: 04,3232           54302                           TS       COMPNUMB                              #  SET NUMBER OF COMPONENTS TO 2.
000214: 04,3233           13257                           TCF      OHWELL2                               #  GO GET THE TWO UPDATE COMPONENTS
000215:
000216: 04,3234           33333        OHWELL1            CAF      ADUPBUFF                              #  * REQUEST USER TO SEND NUMBER *
000217: 04,3235           54156                           TS       MPAC       +2                         #  * OF COMPONENTS PARAMETER(II).*
000218: 04,3236           33334                 +2        CAF      UPLOADNV                              #  (CK4V32 RETURNS HERE IF V32 ENCOUNTERED)
000219: 04,3237           04655                           TC       BANKCALL                              #  DISPLAY A FLASHING V21N01
000220: 04,3240           20226                           CADR     GOXDSPF                               #  TO REQUEST II.
000221: 04,3241           13556                           TCF      UPOUT4                                #  V34 TERMINATE UPDATE (P27) RETURN
000222: 04,3242           13236                           TCF      OHWELL1    +2
000223: 04,3243           03322                           TC       CK4V32                                #  DATA OR V32 RETURN
000224: 04,3244           45025                           CS       BIT2
000225: 04,3245           60306                           AD       UPBUFF                                #  IS II (NUMBER OF COMPONENTS PARAMETER)
000226: 04,3246           00006                           EXTEND                                         #  .GE. 3 AND .LE. 20D.
000227: 04,3247           63234                           BZMF     OHWELL1
000228: 04,3250           40306                           CS       UPBUFF
000229: 04,3251           64374                           AD       UP21
000230: 04,3252           00006                           EXTEND
000231: 04,3253           63234                           BZMF     OHWELL1
000232: 04,3254           30306                           CAE      UPBUFF
000233: 04,3255           54302                           TS       COMPNUMB                              #  SAVE II IN COMPNUMB
000234:
000235:                                                                                                  #           UPBUFF LOADING SEQUENCE
000236:
000237: 04,3256           24305                           INCR     UPCOUNT                               #  INCREMENT COUNT OF COMPONENTS RECEIVED.
000238: 04,3257           33336        OHWELL2            CAF      ADUPBFM1                              #  CALCULATE LOCATION(ECADR) IN UPBUFF
000239: 04,3260           60305                           AD       UPCOUNT                               #  WHERE NEXT COMPONENT SHOULD BE STORED.
000240: 04,3261           54156                 +2        TS       MPAC       +2                         #  PLACE ECADR INTO R3.
000241: 04,3262           33334                 +3        CAF      UPLOADNV                              #  (CK4V32 RETURNS HERE IF V32 ENCOUNTERED)
000242: 04,3263           04655                           TC       BANKCALL                              #  DISPLAY A FLASHING V21N01
000243: 04,3264           20226                           CADR     GOXDSPF                               #  TO REQUEST DATA.
000244: 04,3265           13556                           TCF      UPOUT4                                #  V34 TERMINATE UPDATE (P27) RETURN.
000245: 04,3266           13262                           TCF      OHWELL2    +3                         #  V33 PROCEED RETURN
000246: 04,3267           03322                           TC       CK4V32                                #  DATA OR V32 RETURN
000247: 04,3270           40305                           CS       UPCOUNT                               #  HAVE WE FINISHED RECEIVING ALL
000248: 04,3271           60302                           AD       COMPNUMB                              #  THE DATA WE EXPECTED.
000249: 04,3272           00006                           EXTEND
000250: 04,3273           63275                           BZMF     UPVERIFY                              #  YES- GO TO VERIFICATION SEQUENCE
000251: 04,3274           13256                           TCF      OHWELL2    -1                         #  NO- REQUEST ADDITIONAL DATA.
000252:
000253:                                                                                                  #           VERIFY SEQUENCE
000254:
000255: 04,3275           33332        UPVERIFY           CAF      ADUPTEMP                              #  PLACE ECADR WHERE COMPONENT NO. INDEX
000256: 04,3276           54156                           TS       MPAC       +2                         #  IS TO BE STORED INTO R3.
000257: 04,3277           33335                           CAF      UPVRFYNV                              #  (CK4V32 RETURNS HERE IF V32 ENCOUNTERED)
000258: 04,3300           04655                           TC       BANKCALL                              #  DISPLAY A FLASHING V21N02 TO REQUEST
000259: 04,3301           20226                           CADR     GOXDSPF                               #  DATA CORRECTION OR VERIFICATION.
000260: 04,3302           13556                           TCF      UPOUT4                                #  V34 TERMINATE UPDATE (P27) RETURN
000261: 04,3303           13337                           TCF      UPSTORE                               #  V33 DATA SENT IS GOOD.  GO STORE IT.
000262: 04,3304           03322                           TC       CK4V32                                #  COMPONENT NO. INDEX OR V32 RETURN
000263: 04,3305           10301                           CCS      UPTEMP                                #  DOES THE COMPONENT NO. INDEX JUST SENT
000264: 04,3306           13312                           TCF      +4                                    #  SPECIFY A LEGAL COMPONENT NUMBER?
000265: 04,3307           13275                           TCF      UPVERIFY                              #  NO, IT IS NOT POSITIVE NONZERO
000266: 04,3310           13275                           TCF      UPVERIFY
000267: 04,3311           13275                           TCF      UPVERIFY
000268: 04,3312           40301                           CS       UPTEMP
000269: 04,3313           60302                           AD       COMPNUMB
000270: 04,3314           65026                           AD       BIT1
000271: 04,3315           00006                           EXTEND
000272: 04,3316           63275                           BZMF     UPVERIFY                              #  NO
000273: 04,3317           33336                           CAF      ADUPBFM1                              #  YES- BASED ON THE COMPONENT NO. INDEX
000274: 04,3320           60301                           AD       UPTEMP                                #  CALCULATE THE ECADR OF LOCATION IN
000275: 04,3321           13261                           TCF      OHWELL2    +2                         #  UPBUFF WHICH USER WANTS TO CHANGE.
000276:
000277: 04,3322  04,3556               UPOUT4             EQUALS   UPOUT      +1                         #  COMES HERE ON V34 TO TERMINATE UPDATE
000278:
000279:                                                                                                  #           CHECK FOR VERB 32 SEQUENCE
000280:
000281: 04,3322           40154        CK4V32             CS       MPAC                                  #  ON DATA RETURN FROM 'GOXDSPF'
000282: 04,3323           65021                           AD       BIT6                                  #  ON DATA RETURN FROM "GOXDSP"& THE CON-
000283: 04,3324           00006                           EXTEND                                         #  TENTS OF MPAC = VERB.  SO TEST FOR V32.
000284: 04,3325           13327                           BZF      +2
000285: 04,3326           00002                           TC       Q                                     #  IT'S NOT A V32, IT'S DATA.  PROCEED.
000286: 04,3327           46216                           CS       SIX
000287: 04,3330           60002                           AD       Q
000288: 04,3331           00000                           TC       A                                     #  V32 ENCOUNTERED - GO BACK AND GET DATA
000289:
000290: 04,3332           00301        ADUPTEMP           ADRES    UPTEMP                                #  ADDRESS OF TEMP STORAGE FOR CORRECTIONS
000291: 04,3333           00306        ADUPBUFF           ADRES    UPBUFF                                #  ADDRESS OF UPDATE DATA STORAGE BUFFER
000292: 04,3334           05201        UPLOADNV           VN       2101                                  #  VERB 21 NOUN 01
000293: 04,3335           05202        UPVRFYNV           VN       2102                                  #  VERB 21 NOUN 02
000294: 04,3336           00305        ADUPBFM1           ADRES    UPBUFF     -1                         #  SAME AS ADUPBUFF BUT LESS 1
000295: 04,3337     4374               UP21               =        MD1                                   #  DEC 21 = MAX NO OF COMPONENTS +1
000296: 04,3337     5031               UPDTPHAS           EQUALS   FIVE
000297:
000298:                                                                                                  #           PRE-STORE AND FAN TO APPROPRIATE BRANCH SEQUENCE
000299:
000300: 04,3337                        UPSTORE            EQUALS                                         #  GROUND HAS VERIFIED UPDATE. STORE DATA.
000301:
000302: 04,3337           00004                           INHINT
000303:
000304: 04,3340           30103                           CAE      FLAGWRD7                              #  INVERT VERIFLAG(BIT 3 OF FLAGWRD7) TO
000305: 04,3341           56001                           XCH      L                                     #  INDICATE TO THE GROUND(VIA DOWNLINK)
000306: 04,3342           35024                           CAF      VERIFBIT                              #  THAT THE V33 (WHICH THE GROUND SENT TO
000307: 04,3343           00006                           EXTEND                                         #  VERIFY THE UPDATE) HAS BEEN SUCCESSFULLY
000308: 04,3344           06001                           RXOR     LCHAN                                 #  RECEIVED BY THE UPDATE PROGRAM
000309: 04,3345           54103                           TS       FLAGWRD7
000310:
000311: 04,3346           05423                           TC       PHASCHNG                              #  SET RESTART GROUP 6 TO REDO THE UPDATE
000312: 04,3347           04026                           OCT      04026                                 #  DATA STORE IF A RESTART OCCURS.
000313: 04,3350           00004                           INHINT                                         #  (BECAUSE PHASCHNG DID A RELINT)
000314:
000315: 04,3351           50304                           INDEX    UPVERB                                #  GO TO UPFNDVAC IF INSTALL IS REQUIRED,
000316: 04,3352           13353                           TCF      +1                                    #  THAT IS, IF IT'S A V70 - V72.
000317: 04,3353           13364                           TCF      UPFNDVAC
000318: 04,3354           13364                           TCF      UPFNDVAC
000319: 04,3355           13364                           TCF      UPFNDVAC
000320:
000321:                                                                                                  #           VERB 73 BRANCH
000322: 04,3356           00006        UPEND73            EXTEND                                         #  V73-PERFORM DP OCTAL AGC CLOCK INCREMENT
000323:
000324: 04,3357           30307                           DCA      UPBUFF
000325: 04,3360           52317                           DXCH     UPBUFF     +8D
000326: 04,3361           03410                           TC       TIMEDIDL
000327: 04,3362           04376                           TC       FALTON                                #  ERROR- TURN ON *OPERATOR ERROR* LIGHT
000328: 04,3363           03556                           TC       UPOUT      +1                         #  GO TO COMMON UPDATE PROGRAM EXIT
000329:
000330: 04,3364           34367        UPFNDVAC           CAF      CHRPRIO                               #  (USE EXTENDED VERB PRIORITY)
000331: 04,3365           05155                           TC       FINDVAC                               #  GET VAC AREA FOR 'CALL INTSTALL'
000332: 04,3366  E3,1706                                  EBANK=   TEPHEM
000333: 04,3366           03371 10103                     2CADR    UPJOB                                 #  (NOTE: THIS WILL ALSO SET EBANK FOR
000334:
000335: 04,3370           05225                           TC       ENDOFJOB                              #  'TEPHEM' UPDATE BY V70)
000336:
000337: 04,3371           06014        UPJOB              TC       INTPRET                               #  THIS COULD BE A STATE VECTOR UPDATE--SO
000338: 04,3372           77624                           CALL                                           #  WAIT(PUT JOB TO SLEEP) IF ORBIT INT(OI)
000339: 04,3373           27362                                    INTSTALL                              #  IS IN PROGRESS--OR--GRAB OI AND RETURN
000340:                                                                                                  #  TO UPWAKE IF OI IS NOT IN PROGRESS.
000341:
000342: 04,3374           77776        UPWAKE             EXIT
000343:
000344: 04,3375           05423                           TC       PHASCHNG                              #  RESTART PROTECT(GROUP 6)
000345: 04,3376           04026                           OCT      04026
000346:
000347: 04,3377           00004                           INHINT
000348: 04,3400           40774                           CS       RASFLAG                               #  SET INTEGRATION RESTART BIT
000349: 04,3401           75020                           MASK     REINTBIT
000350: 04,3402           26774                           ADS      RASFLAG
000351: 04,3403                        UPPART3            EQUALS
000352:
000353: 04,3403           50304                           INDEX    UPVERB                                #  BRANCH TO THE APPROPRIATE UPDATE VERB
000354: 04,3404           13405                           TCF      +1                                    #  ROUTINE TO ACTUALLY PERFORM THE UPDATE
000355: 04,3405           13567                           TCF      UPEND70                               #  V70
000356: 04,3406           13453                           TCF      UPEND71                               #  V71
000357: 04,3407           13511                           TCF      UPEND72                               #  V72
000358:
000359:                                                                                                  #           ROUTINE TO INCREMENT CLOCK(TIME2,TIME1) WITH CONTENTS OF DP WORD AT UPBUFF.
000360:
000361: 04,3410           00006        TIMEDIDL           EXTEND
000362: 04,3411           22301                           QXCH     UPTEMP                                #  SAVE Q FOR RETURN
000363: 04,3412           35030                           CAF      ZERO                                  #  ZERO AND SAVE TIME2,TIME1
000364: 04,3413           22007                           ZL
000365: 04,3414           52025                           DXCH     TIME2
000366: 04,3415           52331                           DXCH     UPBUFF     +18D                       #  STORE IN CASE OF OVERFLOW
000367:
000368: 04,3416           35031                           CAF      UPDTPHAS                              #  DO
000369: 04,3417           54001                           TS       L                                     #  A
000370: 04,3420           40000                           COM                                            #  QUICK
000371: 04,3421           52765                           DXCH     -PHASE6                               #  PHASCHNG
000372: 04,3422           00004        TIMEDIDR           INHINT
000373:
000374: 04,3423           35030                           CAF      ZERO
000375: 04,3424           22007                           ZL                                             #  PICK UP INCREMENTER(AND ZERO
000376: 04,3425           54156                           TS       MPAC       +2                         #  IT IN CASE OF RESTARTS) AND
000377: 04,3426           52317                           DXCH     UPBUFF     +8D                        #  STORE IT
000378: 04,3427           52155                           DXCH     MPAC                                  #  INTO MPAC FOR TPAGREE.
000379:
000380: 04,3430           00006                           EXTEND
000381: 04,3431           30331                           DCA      UPBUFF     +18D
000382: 04,3432           20155                           DAS      MPAC                                  #  FORM SUM IN MPAC
000383: 04,3433           00006                           EXTEND
000384: 04,3434           13443                           BZF      DELTAOK                               #  TEST FOR OVERFLOW
000385: 04,3435           35030                           CAF      ZERO
000386: 04,3436           52331                           DXCH     UPBUFF     +18D                       #  OVERFLOW, RESTORE OLD VALUE OF CLOCK
000387: 04,3437           20025                           DAS      TIME2                                 #  AND TURN ON OPERATOR ERROR
000388:
000389: 04,3440           05423                           TC       PHASCHNG                              #  RESTART PROTECT(GROUP 6)
000390: 04,3441           04026                           OCT      04026
000391:
000392: 04,3442           00301                           TC       UPTEMP                                #  GO TO ERROR EXIT
000393:
000394: 04,3443           07231        DELTAOK            TC       TPAGREE                               #  FORCE SIGN AGREEMENT
000395: 04,3444           52155                           DXCH     MPAC
000396: 04,3445           20025                           DAS      TIME2                                 #  INCREMENT TIME2,TIME1
000397:
000398: 04,3446           05423                           TC       PHASCHNG                              #  RESTART PROTECT(GROUP 6)
000399: 04,3447           04026                           OCT      04026
000400:
000401: 04,3450           00004                           INHINT
000402: 04,3451           50301                           INDEX    UPTEMP                                #  (CODED THIS WAY FOR RESTART PROTECTION)
000403: 04,3452           00001                           TC       1                                     #  NORMAL RETURN
000404:
000405:                                                                                                  #           VERB 71 BRANCH
000406:
000407: 04,3453           43507        UPEND71            CS       ENDSAFE
000408: 04,3454           60307                           AD       UPBUFF     +1
000409: 04,3455           00006                           EXTEND
000410: 04,3456           63624                           BZMF     UPERROUT
000411:
000412: 04,3457           30307                           CAE      UPBUFF     +1                         #  SET EBANK
000413: 04,3460           54003                           TS       EBANK                                 #     AND
000414: 04,3461           74371                           MASK     LOW8                                  #  CALCULATE
000415: 04,3462           54301                           TS       UPTEMP                                #  S-REG VALUE OF RECEIVING AREA
000416:
000417: 04,3463           67717                           AD       NEG3                                  #  IN THE PROCESS OF
000418: 04,3464           60302                           AD       COMPNUMB                              #  PERFORMING
000419: 04,3465           00006                           EXTEND                                         #  THIS UPDATE
000420: 04,3466           13474                           BZF      STORLP71                              #  WILL WE
000421: 04,3467           75016                           MASK     BIT9                                  #  OVERFLOW
000422: 04,3470           10000                           CCS      A                                     #  INTO THE NEXT EBANK....
000423: 04,3471           13624                           TCF      UPERROUT                              #  YES
000424:
000425: 04,3472           37717                           CA       NEG3                                  #  NO- CALCULATE NUMBER OF
000426: 04,3473           60302                           AD       COMPNUMB                              #  WORDS TO BE STORED MINUS ONE
000427: 04,3474           54154        STORLP71           TS       MPAC                                  #  SAVE NO. OF WORDS REMAINING MINUS ONE
000428: 04,3475           50000                           INDEX    A                                     #  TAKE NEXT UPDATE WORD FROM
000429: 04,3476           30310                           CA       UPBUFF     +2                         #  UPBUFF AND
000430: 04,3477           22000                           LXCH     A                                     #  SAVE IT IN L
000431: 04,3500           30154                           CA       MPAC                                  #  CALCULATE NEXT
000432: 04,3501           60301                           AD       UPTEMP                                #  RECEIVING ADDRESS
000433: 04,3502           50000                           INDEX    A
000434: 04,3503  E3,1400                                  EBANK=   1400
000435: 04,3503           23400                           LXCH     1400                                  #  UPDATE THE REGISTER BY CONTENTS OF L
000436: 04,3504  E3,1706                                  EBANK=   TEPHEM
000437: 04,3504           10154                           CCS      MPAC                                  #  ARE THERE ANY WORDS LEFT TO BE STORED
000438: 04,3505           13474                           TCF      STORLP71                              #  YES
000439: 04,3506           13555                           TCF      UPOUT                                 #  NO- THEN EXIT UPDATE PROGRAM
000440: 04,3507           01074        ENDSAFE            ADRES    R1SAVE
000441: 04,3510           13555                           TCF      UPOUT                                 #  NO- EXIT UPDATE(HERE WHEN COMPNUMB = 3)
000442:
000443:                                                                                                  #           VERB 72 BRANCH
000444:
000445: 04,3511           35026        UPEND72            CAF      BIT1                                  #  HAVE AN ODD NO. OF COMPONENTS
000446: 04,3512           70302                           MASK     COMPNUMB                              #  BEEN SENT FOR A V72 UPDATE ...
000447: 04,3513           10000                           CCS      A
000448: 04,3514           13516                           TCF      +2                                    #  YES
000449: 04,3515           13624                           TCF      UPERROUT                              #  ERROR- SHOULD BE ODD NO. OF COMPONENTS
000450: 04,3516           00003                           RELINT
000451: 04,3517           45025                           CS       BIT2
000452: 04,3520           60302                           AD       COMPNUMB
000453: 04,3521           54154        LMLOOP72           TS       MPAC
000454: 04,3522           50000                           INDEX    A
000455: 04,3523           30306                           CAE      UPBUFF
000456: 04,3524           56001                           XCH      L
000457: 04,3525           43507                           CS       ENDSAFE
000458: 04,3526           60001                           AD       L
000459: 04,3527           00006                           EXTEND
000460: 04,3530           63624                           BZMF     UPERROUT
000461: 04,3531           10154                           CCS      MPAC
000462: 04,3532           10000                           CCS      A
000463: 04,3533           13521                           TCF      LMLOOP72
000464: 04,3534           00004                           INHINT
000465: 04,3535           45025                           CS       BIT2
000466: 04,3536           60302                           AD       COMPNUMB
000467: 04,3537           54154        LDLOOP72           TS       MPAC                                  #  NOW PERFORM THE UPDATE
000468: 04,3540           50000                           INDEX    A
000469: 04,3541           30307                           CAE      UPBUFF     +1                         #  PICK UP NEXT UPDATE WORD
000470: 04,3542           22000                           LXCH     A
000471: 04,3543           10154                           CCS      MPAC                                  #  SET POINTER TO ECADR (MUST BE CCS)
000472: 04,3544           54154                           TS       MPAC
000473: 04,3545           50000                           INDEX    A
000474: 04,3546           30307                           CAE      UPBUFF     +1                         #  PICK UP NEXT ECADR OF REG TO BE UPDATED
000475: 04,3547           54003                           TS       EBANK                                 #  SET EBANK
000476: 04,3550           74371                           MASK     LOW8                                  #  ISOLATE RELATIVE ADDRESS
000477: 04,3551           50000                           INDEX    A
000478: 04,3552  E3,1400                                  EBANK=   1400
000479: 04,3552           23400                           LXCH     1400                                  #  UPDATE THE REGISTER BY CONTENTS OF L
000480: 04,3553  E3,1706                                  EBANK=   TEPHEM
000481: 04,3553           10154                           CCS      MPAC                                  #  ARE WE THROUGH THE V72 UPDATE...
000482: 04,3554           13537                           TCF      LDLOOP72                              #  NO
000483:
000484:                                                                                                  #           NORMAL FINISH OF P27
000485:
000486: 04,3555                        UPOUT              EQUALS
000487: 04,3555           03000                           TC       INTWAKEU                              #  RELEASE GRAB OF ORBITAL INTEGRATION
000488: 04,3556           30303                 +1        CAE      UPOLDMOD                              #  RESTORE PRIOR P27 MODE
000489: 04,3557           05364                           TC       NEWMODEX   +3
000490: 04,3560           35030                           CAF      ZERO
000491: 04,3561           54332                           TS       DNLSTCOD
000492: 04,3562           03631                           TC       UPACTOFF                              #  TURN OFF 'UPLINK ACTIVITY' LIGHT
000493:
000494: 04,3563           35030                           CAF      ZERO                                  #  KILL GROUP 6.
000495: 04,3564           05511                           TC       NEWPHASE
000496: 04,3565           00006                           OCT      6
000497:
000498: 04,3566           05564                           TC       ENDEXT                                #  EXTENDED VERB EXIT
000499:
000500:                                                                                                  #           VERB 70 BRANCH
000501:
000502: 04,3567           00006        UPEND70            EXTEND                                         #  V70 DOES THE FOLLOWING WITH DP DELTA
000503: 04,3570           40307                           DCS      UPBUFF                                #  TIME IN UPBUFF
000504: 04,3571           52317                           DXCH     UPBUFF     +8D
000505: 04,3572           03410                           TC       TIMEDIDL                              #  DECREMENT AGC CLOCK
000506:
000507: 04,3573           03624                           TC       UPERROUT                              #  ERROR WHILE DECREMENTING CLOCK -- EXIT
000508:
000509: 04,3574  E3,1706                                  EBANK=   TEPHEM
000510: 04,3574           00006                           EXTEND
000511: 04,3575           40307                           DCS      UPBUFF                                #  COPY DECREMENTERS FOR
000512: 04,3576           52321                           DXCH     UPBUFF     +10D                       #  RESTART PROTECTION
000513: 04,3577           00006                           EXTEND
000514: 04,3600           40307                           DCS      UPBUFF
000515: 04,3601           52323                           DXCH     UPBUFF     +12D
000516:
000517: 04,3602           05423                           TC       PHASCHNG                              #  RESTART PROTECT(GROUP 6)
000518: 04,3603           04026                           OCT      04026
000519:
000520: 04,3604           35030                           CAF      ZERO
000521: 04,3605           22007                           ZL
000522: 04,3606           52321                           DXCH     UPBUFF     +10D                       #  DECREMENT CSM STATE VECTOR TIME
000523: 04,3607           21571                           DAS      TETCSM
000524:
000525: 04,3610           35030                           CAF      ZERO
000526: 04,3611           22007                           ZL
000527: 04,3612           52323                           DXCH     UPBUFF     +12D                       #  DECREMENT LEM STATE VECTOR TIME
000528: 04,3613           21643                           DAS      TETLEM
000529:
000530: 04,3614           35030                           CAF      ZERO
000531: 04,3615           22007                           ZL
000532: 04,3616           52307                           DXCH     UPBUFF
000533: 04,3617           21710                           DAS      TEPHEM     +1                         #  INCREMENT TP TEPHEM
000534: 04,3620           27706                           ADS      TEPHEM
000535:
000536: 04,3621           05423                           TC       PHASCHNG                              #  RESTART PROTECT(GROUP 6)
000537: 04,3622           04026                           OCT      04026
000538:
000539: 04,3623     0306                                  EBANK=   UPBUFF
000540: 04,3623           03555                           TC       UPOUT                                 #  GO TO STANDARD UPDATE PROGRAM EXIT
000541:
000542:
000543:                                                                                                  #           ERROR SEQUENCE
000544:
000545: 04,3624           04376        UPERROUT           TC       FALTON                                #  TURN ON *OPERATOR ERROR* LIGHT
000546: 04,3625           13555                           TCF      UPOUT                                 #  GO TO COMMON UPDATE PROGRAM EXIT
000547:
000548: 04,3626           04376                 +2        TC       FALTON                                #  TURN ON 'OPERATOR ERROR' LIGHT
000549: 04,3627           03631                           TC       UPACTOFF                              #  TURN OFF'UPLINK ACTIVITY'LIGHT
000550: 04,3630           05564                           TC       ENDEXT                                #  EXTENDED VERB EXIT
000551:                                                                                                  #  (THE PURPOSE OF UPERROUT +2 EXIT IS
000552:                                                                                                  #  TO PROVIDE AN ERROR EXIT WHICH DOES NOT
000553:                                                                                                  #  RESET ANY RESTART GROUPS)
000554:
000555:                                                                                                  #           :UPACTOFF: IS A ROUTINE TO TURN OFF UPLINK ACTIVITY LIGHT ON ALL EXITS FROM UPDATE PROGRAM (P27).
000556:
000557: 04,3631           45024        UPACTOFF           CS       BIT3
000558: 04,3632           00006                           EXTEND                                         #  TURN OFF UPLINK ACTIVITY LIGHT
000559: 04,3633           03011                           WAND     DSALMOUT                              #  (BIT 3 OF CHANNEL 11)
000560: 04,3634           00002                           TC       Q
000561:

End of include-file UPDATE_PROGRAM.agc.  Parent file is MAIN.agc


