
Source Code


000002:                                                                                                  ## Copyright:   Public domain.
000003:                                                                                                  ## Filename:    WAITLIST.agc
000004:                                                                                                  ## Purpose:     A section of an attempt to reconstruct Sundance revision 306
000005:                                                                                                  ##              as closely as possible with available information. Sundance
000006:                                                                                                  ##              306 is the source code for the Lunar Module's (LM) Apollo
000007:                                                                                                  ##              Guidance Computer (AGC) for Apollo 9. This program was created
000008:                                                                                                  ##              using the mixed-revision SundanceXXX as a starting point, and
000009:                                                                                                  ##              pulling back features from Luminary 69 believed to have been
000010:                                                                                                  ##              added based on memos, checklists, observed address changes,
000011:                                                                                                  ##              or the Sundance GSOPs.
000012:                                                                                                  ## Assembler:   yaYUL
000013:                                                                                                  ## Contact:     Ron Burkey <info@sandroid.org>.
000014:                                                                                                  ## Website:     www.ibiblio.org/apollo/index.html
000015:                                                                                                  ## Mod history: 2020-07-24 MAS  Created from SundanceXXX.
000016:                                                                                                  ##              2020-07-29 MAS  Added CKIMUSE and SVCT3X to SVCT3.
000017:
000018:
000019:                                                                                                  #  PROGRAM DESCRIPTION                                                           DATE - 10 OCTOBER 1966
000020:                                                                                                  #  MOD NO - 2                                                                    LOG SECTION - WAITLIST
000021:                                                                                                  #  MOD BY - MILLER       (DTMAX INCREASED TO 162.5 SEC)                          ASSEMBLY SUNBURST REV 5
000022:                                                                                                  #  MOD 3 BY KERNAN       (INHINT INSERTED AT WAITLIST) 2/28/68 SKIPPER REV 4
000023:                                                                                                  #  MOD 4 BY KERNAN       (TWIDDLE IN 54) 3/28/68 SKIPPER REV 13.
000024:
000025:                                                                                                  #  FUNCTIONAL DESCRIPTION -
000026:                                                                                                  #        PART OF A SECTION OF PROGRAMS,- WAITLIST, TASKOVER, T3RUPT, USED TO CALL A PROGRAM, (CALLED A TASK),
000027:                                                                                                  #        WHICH IS TO BEGIN IN C(A) CENTISECONDS.  WAITLIST UPDATES TIME3, LST1 AND LST2.  THE MEANING OF THESE LISTS
000028:                                                                                                  #        FOLLOW.
000029:
000030:                                                                                                  #                C(TIME3) = 16384 -(T1-T) CENTISECONDS, (T=PRESENT TIME, T1-TIME FOR TASK1)
000031:
000032:                                                                                                  #                        C(LST1)    = -(T2-T1)+1
000033:                                                                                                  #                        C(LST1 +1) = -(T3-T2)+1
000034:                                                                                                  #                        C(LST1 +2) = -(T4-T3)+1
000035:                                                                                                  #                                   .
000036:                                                                                                  #                                   .
000037:                                                                                                  #                        C(LST1 +6) = -(T8-T7)+1
000038:                                                                                                  #                        C(LST1 +7) = -(T9-T8)+1
000039:
000040:                                                                                                  #                        C(LST2)    = 2CADR OF TASK1
000041:                                                                                                  #                        C(LST2 +2) = 2CADR OF TASK2
000042:                                                                                                  #                                   .
000043:                                                                                                  #                                   .
000044:                                                                                                  #                        C(LST2 +14)= 2CADR OF TASK8
000045:                                                                                                  #                        C(LST2 +16)= 2CADR OF TASK9
000046:
000047:                                                                                                  #  WARNINGS -
000048:                                                                                                  #  --------
000049:                                                                                                  #        1)      1 <= C(A) <= 16250D (1 CENTISECOND TO 162.5 SEC)
000050:                                                                                                  #        2)      9 TASKS MAXIMUM
000051:                                                                                                  #        3)      TASKS CALLED UNDER INTERRUPT INHIBITED
000052:                                                                                                  #        4)      TASKS END BY TC TASKOVER
000053:
000054:                                                                                                  #  CALLING SEQUENCE -
000055:                                                                                                  #        L-1     CA      DELTAT  (TIME IN CENTISECONDS TO TASK START)
000056:                                                                                                  #        L       TC      WAITLIST
000057:                                                                                                  #        L+1     2CADR   DESIRED TASK
000058:                                                                                                  #        L+2     (MINOR OF 2CADR)
000059:                                                                                                  #        L+3     RELINT          (RETURNS HERE)
000060:
000061:                                                                                                  #  TWIDDLE -
000062:                                                                                                  #  -------
000063:                                                                                                  #        TWIDDLE IS FOR USE WHEN THE TASK BEING SET UP IS IN THE SAME EBANK AND FBANK AS THE USER.  IN
000064:                                                                                                  #        SUCH CASES, IT IMPROVES UPON WAITLIST BY ELIMINATING THE NEED FOR THE BBCON HALF OF THE 2CADR,
000065:                                                                                                  #        SAVING A WORD.  TWIDDLE IS LIKE WAITLIST IN EVERY RESPECT EXCEPT CALLING SEQUENCE, TO WIT-
000066:                                                                                                  #                L-1     CA      DELTAT
000067:                                                                                                  #                L       TC      TWIDDLE
000068:                                                                                                  #                L+1     ADRES   DESIRED TASK
000069:                                                                                                  #                L+2     RELINT          (RETURNS HERE)
000070:
000071:                                                                                                  #  NORMAL EXIT MODES -
000072:                                                                                                  #        AT L+3 OF CALLING SEQUENCE
000073:
000074:                                                                                                  #  ALARM OR ABORT EXIT MODES -
000075:                                                                                                  #        TC      ABORT
000076:                                                                                                  #        OCT     1203    (WAITLIST OVERFLOW - TOO MANY TASKS)
000077:
000078:                                                                                                  #  ERASABLE INITIALIZATION REQUIRED -
000079:                                                                                                  #        ACCOMPLISHED BY FRESH START,--LST2, ..., LST2 +16 = ENDTASK
000080:                                                                                                  #                                      LST1, ..., LST1 +7  = NEG1/2
000081:
000082:                                                                                                  #  OUTPUT --
000083:                                                                                                  #        LST1 AND LST2 UPDATED WITH NEW TASK AND ASSOCIATED TIME.
000084:
000085:                                                                                                  #  DEBRIS -
000086:                                                                                                  #        CENTRALS - A,Q,L
000087:                                                                                                  #        OTHER    - WAITEXIT, WAITADR, WAITTEMP, WAITBANK
000088:
000089:                                                                                                  #  DETAILED ANALYSIS OF TIMING -
000090:                                                                                                  #        CONTROL WILL NOT BE RETURNED TO THE SPECIFIED ADDRESS (2CADR) IN EXACTLY DELTA T CENTISECONDS.
000091:                                                                                                  #        THE APPROXIMATE TIME MAY BE CALCULATED AS FOLLOWS
000092:                                                                                                  #                LET TO = THE TIME OF THE TC WAITLIST
000093:                                                                                                  #                LET TS = TO +147U + COUNTER INCREMENTS (SET UP TIME)
000094:                                                                                                  #                LET X  = TS -(100TS)/100  (VARIANCE FROM COUNTERS)
000095:                                                                                                  #                LET Y  = LENGTH OF TIME OF INHIBIT INTERRUPT AFTER T3RUPT
000096:                                                                                                  #                LET Z  = LENGTH OF TIME TO PROCESS TASKS WHICH ARE DUE THIS T3RUPT BUT DISPATCHED EARLIER.
000097:                                                                                                  #                         (Z=0, USUALLY)
000098:                                                                                                  #                LET DELTD  = THE ACTUAL TIME TAKEN TO GIVE CONTROL TO 2CADR
000099:                                                                                                  #                THEN DELTD = TS+DELTA T -X +Y +Z +1.05MS* +COUNTERS*
000100:                                                                                                  #                *-THE TIME TAKEN BY WAITLIST ITSELF AND THE COUNTER TICKING DURING THIS WAITLIST TIME.
000101:                                                                                                  #        IN SHORT, THE ACTUAL TIME TO RETURN CONTROL TO A 2CADR IS AUGMENTED BY THE TIME TO SET UP THE TASK:S
000102:                                                                                                  #        INTERRUPT, ALL COUNTERS TICKING, THE T3RUPT PROCESSING TIME, THE WAITLIST PROCESSING TIME AND THE POSSIBILITY
000103:                                                                                                  #        OF OTHER TASKS INHIBITING THE INTERRUPT.
000104:
000105:    5243                                           BLOCK    02
000106:    5243  E3,1400                                  EBANK=   LST1                                  #  TASK LISTS IN SWITCHED E BANK.
000107:
000108:    5243                                           COUNT*   $$/WAIT
000109:    5243           54001        TWIDDLE            TS       L                                     #  SAVE DELAY TIME IN L
000110:    5244           35006                           CA       POSMAX
000111:    5245           26002                           ADS      Q                                     #  CREATING OVERFLOW AND Q-1 IN Q
000112:    5246           30006                           CA       BBANK
000113:    5247           00006                           EXTEND
000114:    5250           04007                           ROR      SUPERBNK
000115:    5251           56001                           XCH      L
000116:
000117:    5252           00004        WAITLIST           INHINT
000118:    5253           56002                           XCH      Q                                     #  SAVE DELTA T IN Q AND RETURN IN
000119:    5254           54061                           TS       WAITEXIT                              #  WAITEXIT.
000120:    5255           00006                           EXTEND
000121:    5256           50061                           INDEX    WAITEXIT                              #  IF TWIDDLING, THE TS SKIPS TO HERE
000122:    5257           30001                           DCA      0                                     #  PICK UP 2CADR OF TASK.
000123:    5260           54063                 -1        TS       WAITADR                               #  BBCON WILL REMAIN IN L
000124:    5261           35270        DLY2               CAF      WAITBB                                #  ENTRY FROM FIXDELAY AND VARDELAY.
000125:    5262           56006                           XCH      BBANK
000126:    5263           13042                           TCF      WAIT2
000127:
000128:                                                                                                  #  RETURN TO CALLER AFTER TASK INSERTION:
000129:
000130:    5264           30062        LVWTLIST           CA       WAITBANK
000131:    5265           54006                           TS       BBANK
000132:    5266           50061                           INDEX    WAITEXIT
000133:    5267           00002                           TC       2
000134:
000135:    5270  E3,1400                                  EBANK=   LST1
000136:    5270           02063        WAITBB             BBCON    WAIT2
000137:
000138:                                                                                                  #  RETURN TO CALLER +2 AFTER WAITING DT SPECIFIED AT CALLER +1.
000139:
000140:    5271           50002        FIXDELAY           INDEX    Q                                     #  BOTH ROUTINES MUST BE CALLED UNDER
000141:    5272           30000                           CAF      0                                     #  WAITLIST CONTROL AND TERMINATE THE TASK
000142:    5273           24002                           INCR     Q                                     #  IN WHICH THEY WERE CALLED.
000143:
000144:                                                                                                  #  RETURN TO CALLER +1 AFTER WAITING THE DT AS ARRIVING IN A.
000145:
000146:    5274           56002        VARDELAY           XCH      Q                                     #  DT TO Q.  TASK ADRES TO WAITADR.
000147:    5275           54063                           TS       WAITADR
000148:    5276           30006                           CA       BBANK                                 #  BBANK IS SAVED DURING DELAY.
000149:    5277           00006                           EXTEND
000150:    5300           04007                           ROR      SUPERBNK                              #  ADD SBANK TO BBCON.
000151:    5301           54001                           TS       L
000152:    5302           35305                           CAF      DELAYEX
000153:    5303           54061                           TS       WAITEXIT                              #  GO TO TASKOVER AFTER TASK ENTRY.
000154:    5304           15261                           TCF      DLY2
000155:
000156:    5305           15327        DELAYEX            TCF      TASKOVER   -2                         #  RETURNS TO TASKOVER
000157:
000158:                                                                                                  #  ENDTASK MUST BE ENTERED IN FIXED-FIXED SO IT IS DISTINGUISHABLE BY ITS ADRES ALONE.
000159:
000160:    5306  E3,1400                                  EBANK=   LST1
000161:    5306           72467 73714  ENDTASK            -2CADR   SVCT3
000162:
000163:    5310           10076        SVCT3              CCS      FLAGWRD2                              #  DRIFT FLAG
000164:    5311           15331                           TCF      TASKOVER
000165:    5312           15331                           TCF      TASKOVER
000166:    5313           15314                           TCF      +1
000167:


000170:    5314           11306        CKIMUSE            CCS      IMUCADR                               #  DON'T DO NBDONLY IF SOMEONE ELSE IS IN
000171:    5315           15326                           TCF      SVCT3X                                #  IMUSTALL.
000172:    5316           15321                           TCF      +3
000173:    5317           15326                           TCF      SVCT3X
000174:    5320           15326                           TCF      SVCT3X
000175:
000176:    5321           37675                 +3        CAF      PRIO35                                #  COMPENSATE FOR NBD COEFFICIENTS ONLY.
000177:    5322           05142                           TC       NOVAC                                 #        ENABLE EVERY 81.93 SECONDS
000178:    5323  E3,1460                                  EBANK=   NBDX
000179:    5323           03555 14063                     2CADR    NBDONLY
000180:
000181:    5325           15331                           TCF      TASKOVER
000182:
000183:    5326           05271        SVCT3X             TC       FIXDELAY                              #  DELAY MAX OF 2 TIMES FOR IMUZERO.
000184:    5327           00764                           DEC      500        B-14
000185:    5330           05310                           TC       SVCT3                                 #  CHECK DRIFT FLAG AGAIN.
000186:
000187:                                                                                                  #  BEGIN TASK INSERTION.
000188:
000189: 01,3042                                           BANK     01
000190: 01,3042                                           COUNT*   $$/WAIT
000191: 01,3042           54062        WAIT2              TS       WAITBANK                              #  BBANK OF CALLING PROGRAM.
000192:
000193: 01,3043           40026                           CS       TIME3
000194: 01,3044           65017                           AD       BIT8                                  #  BIT 8 = OCT 200
000195: 01,3045           10000                           CCS      A                                     #  TEST 200 - C(TIME3).  IF POSITIVE,
000196:                                                                                                  #  IT MEANS THAT TIME3 OVERFLOW HAS OCCURRED PRIOR TO CS TIME3 AND THAT
000197:                                                                                                  #  C(TIME3) = T - T1, INSTEAD OF 1.0 - (T1 - T).  THE FOLLOWING FOUR
000198:                                                                                                  #  ORDERS SET C(A) = TD - T1 + 1 IN EITHER CASE.
000199:
000200: 01,3046           66063                           AD       OCT40001                              #  OVERFLOW HAS OCCURRED.  SET C(A) =
000201: 01,3047           40000                           CS       A                                     #  T - T1 + 1.0 - 201
000202:
000203:                                                                                                  #  NORMAL CASE (C(A) NNZ) YIELDS SAME C(A):  -( -(1.0-(T1-T)) + 200) - 1
000204:
000205: 01,3050           63176                           AD       OCT40201
000206: 01,3051           60002                           AD       Q                                     #  RESULT = TD - T1 + 1.
000207:
000208: 01,3052           10000                           CCS      A                                     #  TEST TD - T1 + 1
000209:
000210: 01,3053           61400                           AD       LST1                                  #  IF TD - T1 POS, GO TO WTLST5 WITH
000211: 01,3054           13116                           TCF      WTLST5                                #  C(A) = (TD - T1) + C(LST1) = TD-T2+1
000212:
000213: 01,3055           13056                           NOOP
000214: 01,3056           40002                           CS       Q
000215:
000216:                                                                                                  #  NOTE THAT THIS PROGRAM SECTION IS NEVER ENTERED WHEN T-T1 G/E -1,
000217:                                                                                                  #  SINCE TD-T1+1 = (TD-T) + (T-T1+1), AND DELTA T = TD-T G/E +1.  (G/E
000218:                                                                                                  #  SYMBOL MEANS GREATER THAN OR EQUAL TO).  THUS THERE NEED BE NO CON-
000219:                                                                                                  #  CERN OVER A PREVIOUS OR IMMINENT OVERFLOW OF TIME3 HERE.
000220:
000221: 01,3057           65011                           AD       POS1/2                                #  WHEN TD IS NEXT, FORM QUANTITY
000222: 01,3060           65011                           AD       POS1/2                                #        1.0 - DELTA T = 1.0 - (TD - T)
000223: 01,3061           56026                           XCH      TIME3
000224: 01,3062           65010                           AD       NEGMAX
000225: 01,3063           60002                           AD       Q                                     #  1.0 - DELTAT T NOW COMPLETE.
000226: 01,3064           00006                           EXTEND                                         #  ZERO INDEX Q.
000227: 01,3065           22007                           QXCH     7                                     #  (ZQ)
000228:
000229: 01,3066           57400        WTLST4             XCH      LST1
000230: 01,3067           57401                           XCH      LST1       +1
000231: 01,3070           57402                           XCH      LST1       +2
000232: 01,3071           57403                           XCH      LST1       +3
000233: 01,3072           57404                           XCH      LST1       +4
000234: 01,3073           57405                           XCH      LST1       +5
000235: 01,3074           57406                           XCH      LST1       +6
000236: 01,3075           57407                           XCH      LST1       +7
000237:
000238: 01,3076           30063                           CA       WAITADR                               #  (MINOR PART OF TASK CADR HAS BEEN IN L.)
000239: 01,3077           50002                           INDEX    Q
000240: 01,3100           13101                           TCF      +1
000241:
000242: 01,3101           53411                           DXCH     LST2
000243: 01,3102           53413                           DXCH     LST2       +2
000244: 01,3103           53415                           DXCH     LST2       +4
000245: 01,3104           53417                           DXCH     LST2       +6
000246: 01,3105           53421                           DXCH     LST2       +8D
000247: 01,3106           53423                           DXCH     LST2       +10D                       #  AT END, CHECK THAT C(LST2 +10) IS STD
000248: 01,3107           53425                           DXCH     LST2       +12D
000249: 01,3110           53427                           DXCH     LST2       +14D
000250: 01,3111           53431                           DXCH     LST2       +16D
000251: 01,3112           65306                           AD       ENDTASK                               #  END ITEM, AS CHECK FOR EXCEEDING
000252:                                                                                                  #  THE LENGTH OF THE LIST.
000253: 01,3113           00006                           EXTEND                                         #  DUMMY TASK ADRES SHOULD BE IN FIXED-
000254: 01,3114           15264                           BZF      LVWTLIST                              #  FIXED SO ITS ADRES ALONE DISTINGUISHES
000255: 01,3115           13171                           TCF      WTABORT                               #  IT.
000256:
000257: 01,3116           10000        WTLST5             CCS      A                                     #  TEST TD - T2 + 1
000258: 01,3117           61401                           AD       LST1       +1
000259: 01,3120           13124                           TCF      +4
000260: 01,3121           65026                           AD       ONE
000261: 01,3122           03177                           TC       WTLST2
000262: 01,3123           00001                           OCT      1
000263:
000264: 01,3124           10000                 +4        CCS      A                                     #  TEST TD - T3 + 1
000265: 01,3125           61402                           AD       LST1       +2
000266: 01,3126           13132                           TCF      +4
000267: 01,3127           65026                           AD       ONE
000268: 01,3130           03177                           TC       WTLST2
000269: 01,3131           00002                           OCT      2
000270:
000271: 01,3132           10000                 +4        CCS      A                                     #  TEST TD - T4 + 1
000272: 01,3133           61403                           AD       LST1       +3
000273: 01,3134           13140                           TCF      +4
000274: 01,3135           65026                           AD       ONE
000275: 01,3136           03177                           TC       WTLST2
000276: 01,3137           00003                           OCT      3
000277:
000278: 01,3140           10000                 +4        CCS      A                                     #  TEST TD - T5 + 1
000279: 01,3141           61404                           AD       LST1       +4
000280: 01,3142           13146                           TCF      +4
000281: 01,3143           65026                           AD       ONE
000282: 01,3144           03177                           TC       WTLST2
000283: 01,3145           00004                           OCT      4
000284:
000285: 01,3146           10000                 +4        CCS      A                                     #  TEST TD - T6 + 1
000286: 01,3147           61405                           AD       LST1       +5
000287: 01,3150           13154                           TCF      +4
000288: 01,3151           65026                           AD       ONE
000289: 01,3152           03177                           TC       WTLST2
000290: 01,3153           00005                           OCT      5
000291:
000292: 01,3154           10000                 +4        CCS      A                                     #  TEST TD - T7 + 1
000293: 01,3155           61406                           AD       LST1       +6
000294: 01,3156           13162                           TCF      +4
000295: 01,3157           65026                           AD       ONE
000296: 01,3160           03177                           TC       WTLST2
000297: 01,3161           00006                           OCT      6
000298:
000299: 01,3162           10000                 +4        CCS      A
000300: 01,3163           61407                           AD       LST1       +7
000301: 01,3164           13170                           TCF      +4
000302: 01,3165           65026                           AD       ONE
000303: 01,3166           03177                           TC       WTLST2
000304: 01,3167           00007                           OCT      7
000305:
000306: 01,3170           10000                 +4        CCS      A
000307: 01,3171           05716        WTABORT            TC       ABORT                                 #  NO ROOM IN THE INN.
000308: 01,3172           01203                           OCT      1203
000309:
000310: 01,3173           65026                           AD       ONE
000311: 01,3174           03177                           TC       WTLST2
000312: 01,3175           00010                           OCT      10
000313:
000314: 01,3176           40201        OCT40201           OCT      40201
000315:
000316:                                                                                                  #  THE ENTRY TO WTLST2 JUST PRECEDING OCT N IS FOR T  LE TD LE T   -1.
000317:                                                                                                  #                                                   N           N+1
000318:                                                                                                  #  (LE MEANS LESS THAN OR EQUAL TO).  AT ENTRY, C(A) = -(TD - T   + 1)
000319:                                                                                                  #                                                              N+1
000320:                                                                                                  #  THE LST1 ENTRY -(T   -T +1) IS TO BE REPLACED BY -(TD - T  + 1), AND
000321:                                                                                                  #                    N+1  N                                 N
000322:                                                                                                  #  THE ENTRY -(T   - TD + 1) IS TO BE INSERTED IMMEDIATELY FOLLOWING.
000323:                                                                                                  #               N+1
000324:
000325: 01,3177           54064        WTLST2             TS       WAITTEMP                              #  C(A) = -(TD - T + 1)
000326: 01,3200           50002                           INDEX    Q
000327: 01,3201           30000                           CAF      0
000328: 01,3202           54002                           TS       Q                                     #  INDEX VALUE INTO Q.
000329:
000330: 01,3203           35026                           CAF      ONE
000331: 01,3204           60064                           AD       WAITTEMP
000332: 01,3205           50002                           INDEX    Q                                     #  C(A) = -(TD - T ) + 1.
000333: 01,3206           27377                           ADS      LST1       -1                         #                 N
000334:
000335: 01,3207           40064                           CS       WAITTEMP
000336: 01,3210           50002                           INDEX    Q
000337: 01,3211           13066                           TCF      WTLST4
000338:
000339:                                                                                                  #        C(TIME3)        =       1.0 - (T1 - T)
000340:
000341:                                                                                                  #        C(LST1  )       =       - (T2 - T1) + 1
000342:                                                                                                  #        C(LST1+1)       =       - (T3 - T2) + 1
000343:                                                                                                  #        C(LST1+2)       =       - (T4 - T3) + 1
000344:                                                                                                  #        C(LST1+3)       =       - (T5 - T4) + 1
000345:                                                                                                  #        C(LST1+4)       =       - (T6 - T5) + 1
000346:
000347:                                                                                                  #        C(LST2   )      =       2CADR TASK1
000348:                                                                                                  #        C(LST2+2 )      =       2CADR TASK2
000349:                                                                                                  #        C(LST2+4 )      =       2CADR TASK3
000350:                                                                                                  #        C(LST2+6 )      =       2CADR TASK4
000351:                                                                                                  #        C(LST2+8 )      =       2CADR TASK5
000352:                                                                                                  #        C(LST2+10)      =       2CADR TASK6
000353:
000354:                                                                                                  #  ENTERS HERE ON T3 RUPT TO DISPATCH WAITLISTED TASK.
000355:
000356: 01,3212           00006        T3RUPT             EXTEND
000357: 01,3213           04007                           ROR      SUPERBNK                              #  READ CURRENT SUPERBANK VALUE AND
000358: 01,3214           54016                           TS       BANKRUPT                              #  SAVE WITH E AND F BANK VALUES.
000359: 01,3215           00006                           EXTEND
000360: 01,3216           22012                           QXCH     QRUPT
000361:
000362: 01,3217           35007        T3RUPT2            CAF      NEG1/2                                #  DISPATCH WAITLIST TASK.
000363: 01,3220           57407                           XCH      LST1       +7
000364: 01,3221           57406                           XCH      LST1       +6
000365: 01,3222           57405                           XCH      LST1       +5
000366: 01,3223           57404                           XCH      LST1       +4                         #  1. MOVE UP LST1 CONTENTS, ENTERING
000367: 01,3224           57403                           XCH      LST1       +3                         #     A VALUE OF 1/2 +1 AT THE BOTTOM
000368: 01,3225           57402                           XCH      LST1       +2                         #     FOR T6-T5, CORRESPONDING TO THE
000369: 01,3226           57401                           XCH      LST1       +1                         #     INTERVAL 81.91 SEC FOR ENDTASK.
000370: 01,3227           57400                           XCH      LST1
000371: 01,3230           65006                           AD       POSMAX                                #  2. SET T3 = 1.0 - T2 - T USING LIST 1.
000372: 01,3231           26026                           ADS      TIME3                                 #  SO T3 WONT TICK DURING UPDATE.
000373: 01,3232           54734                           TS       RUPTAGN
000374: 01,3233           45030                           CS       ZERO
000375: 01,3234           54734                           TS       RUPTAGN                               #  SETS RUPTAGN TO +1 ON OVERFLOW.
000376:
000377: 01,3235           00006                           EXTEND                                         #  DISPATCH TASK.
000378: 01,3236           45307                           DCS      ENDTASK
000379: 01,3237           53431                           DXCH     LST2       +16D
000380: 01,3240           53427                           DXCH     LST2       +14D
000381: 01,3241           53425                           DXCH     LST2       +12D
000382: 01,3242           53423                           DXCH     LST2       +10D
000383: 01,3243           53421                           DXCH     LST2       +8D
000384: 01,3244           53417                           DXCH     LST2       +6
000385: 01,3245           53415                           DXCH     LST2       +4
000386: 01,3246           53413                           DXCH     LST2       +2
000387: 01,3247           53411                           DXCH     LST2
000388:
000389: 01,3250           56001                           XCH      L
000390: 01,3251           00006                           EXTEND
000391: 01,3252           01007                           WRITE    SUPERBNK                              #  SET SUPERBANK FROM BBCON OF 2CADR
000392: 01,3253           56001                           XCH      L                                     #  RESTORE TO L FOR DXCH Z.
000393: 01,3254           52006                           DTCB
000394:
000395:                                                                                                  #  RETURN, AFTER EXECUTION OF T3 OVERFLOW TASK:
000396:
000397:    5331                                           BLOCK    02
000398:    5331                                           COUNT*   $$/WAIT
000399:    5331           10734        TASKOVER           CCS      RUPTAGN                               #  IF +1 RETURN TO T3RUPT, IF -0 RESUME.
000400:    5332           35270                           CAF      WAITBB
000401:    5333           54006                           TS       BBANK
000402:    5334           13217                           TCF      T3RUPT2                               #  DISPATCH NEXT TASK IF IT WAS DUE.
000403:
000404:    5335           30016                           CA       BANKRUPT
000405:    5336           00006                           EXTEND
000406:    5337           01007                           WRITE    SUPERBNK                              #  RESTORE SUPERBANK BEFORE RESUME IS DONE
000407:
000408:    5340           00006        RESUME             EXTEND
000409:    5341           22012                           QXCH     QRUPT
000410:    5342           30016        NOQRSM             CA       BANKRUPT
000411:    5343           56006                           XCH      BBANK
000412:    5344           52011        NOQBRSM            DXCH     ARUPT
000413:    5345           00003                           RELINT
000414:    5346           50017                           RESUME
000415:
000416:                                                                                                  #  LONGCALL
000417:                                                                                                  #  PROGRAM DESCRIPTION                           DATE - 17 MARCH 1967
000418:                                                                                                  #  PROGRAM WRITTEN BY W.H.VANDEVER               LOG SECTION WAITLIST
000419:                                                                                                  #  MOD BY - R. MELANSON TO ADD DOCUMENTATION     ASSEMBLY SUNDISK REV. 100
000420:
000421:                                                                                                  #  FUNCTIONAL DESCRIPTION -
000422:                                                                                                  #        LONGCALL IS CALLED WITH THE DELTA TIME ARRIVING IN A,L SCALED AS TIME2,TIME1 WITH THE 2CADR OF THE TASK
000423:                                                                                                  #        IMMEDIATELY FOLLOWING THE TC LONGCALL.  FOR EXAMPLE, IT MIGHT BE DONE AS FOLLOWS WHERE TIMELOC IS THE NAME OF
000424:                                                                                                  #        A DP REGISTER CONTAINING A DELTA TIME AND WHERE TASKTODO IS THE NAME OF THE LOCATION AT WHICH LONGCALL IS TO
000425:                                                                                                  #        START
000426:                                                                                                  #  CALLING SEQUENCE -
000427:                                                                                                  #                EXTEND
000428:                                                                                                  #                DCA     TIMELOC
000429:                                                                                                  #                TC      LONGCALL
000430:                                                                                                  #                2CADR   TASKTODO
000431:                                                                                                  #  NORMAL EXIT MODE -
000432:                                                                                                  #        1).     TC      WAITLIST
000433:                                                                                                  #        2).     DTCB    (TO L+3 OF CALLING ROUTINE 1ST PASS THRU LONGCYCL)
000434:                                                                                                  #        3).     DTCB    (TO TASKOVER ON SUBSEQUENT PASSES THRU LONGCYCL)
000435:                                                                                                  #  ALARM OR ABORT EXIT MODE -
000436:                                                                                                  #        NONE
000437:                                                                                                  #  OUTPUT -
000438:                                                                                                  #        LONGTIME AND LONGTIME+1 = DELTA TIME
000439:                                                                                                  #        LONGEXIT AND LONGEXIT+1 = RETURN 2CADR
000440:                                                                                                  #        LONGCADR AND LONGCADR+1 = TASK 2CADR
000441:                                                                                                  #        A = SINGLE PRECISION TIME FOR WAITLIST
000442:                                                                                                  #  ERASABLE INITIALIZATION -
000443:                                                                                                  #        A = MOST SIGNIFICANT PART OF DELTA TIME
000444:                                                                                                  #        L = LEAST SIGNIFICANT PART OF DELTA TIME
000445:                                                                                                  #        Q = ADDRESS OF 2CADR TASK VALUE
000446:                                                                                                  #  DEBRIS -
000447:                                                                                                  #        A,Q,L
000448:                                                                                                  #        LONGCADR AND LONGCADR+1
000449:                                                                                                  #        LONGEXIT AND LONGEXIT+1
000450:                                                                                                  #        LONGTIME AND LONGTIME+1
000451:                                                                                                  #  *** THE FOLLOWING IS TO BE IN FIXED-FIXED AND UNSWITCHED ERRASIBLE ***
000452:
000453:    5347                                           BLOCK    02
000454:    5347  E3,1400                                  EBANK=   LST1
000455:    5347           53165        LONGCALL           DXCH     LONGTIME                              #  OBTAIN THE DELTA TIME
000456:
000457:    5350           00006                           EXTEND                                         #  OBTAIN THE 2CADR
000458:    5351           50002                           NDX      Q
000459:    5352           30001                           DCA      0
000460:    5353           53161                           DXCH     LONGCADR
000461:
000462:    5354           00006                           EXTEND                                         #  NOW GO TO THE APPROPRIATE SWITCHED BANK
000463:    5355           35360                           DCA      LGCL2CDR                              #  FOR THE REST OF LONGCALL
000464:    5356           52006                           DTCB
000465:
000466:    5357  E3,1400                                  EBANK=   LST1
000467:    5357           03255 02063  LGCL2CDR           2CADR    LNGCALL2
000468:
000469:                                                                                                  #  *** THE FOLLOWING MAY BE IN A SWITCHED BANK, INCLUDING ITS ERASABLE ***
000470:
000471: 01,3255                                           BANK     01
000472: 01,3255                                           COUNT*   $$/WAIT
000473: 01,3255           23435        LNGCALL2           LXCH     LONGEXIT   +1                         #  SAVE THE CORRECT BB FOR RETURN
000474: 01,3256           35025                           CA       TWO                                   #  OBTAIN THE RETURN ADDRESS
000475: 01,3257           26002                           ADS      Q
000476: 01,3260           55434                           TS       LONGEXIT
000477:
000478:                                                                                                  #  *** WAITLIST TASK LONGCYCL ***
000479:
000480: 01,3261           00006        LONGCYCL           EXTEND                                         #  CAN WE SUCCESFULLY TAKE ABOUT 1.25
000481: 01,3262           43273                           DCS      DPBIT14                               #  MINUTES OFF OF LONGTIME
000482: 01,3263           21165                           DAS      LONGTIME
000483:
000484: 01,3264           11165                           CCS      LONGTIME   +1                         #  THE REASONIBG BEHIND THIS PART IS
000485: 01,3265           13304                           TCF      MUCHTIME                              #  INVOLVED, TAKING INTO ACCOUNT THAT THE
000486:                                                                                                  #  WORDS MAY NOT BE SIGNED CORRECTED (DP
000487:                                                                                                  #  BASIC INSTRUCTIONS
000488:                                                                                                  #  DO NOT SIGN CORRECT) AND THAT WE SUBTRAC
000489:                                                                                                  #  TED BIT14 (1 OVER HALF THE POS. VALUE
000490:                                                                                                  #  REPRESENTIBLE IN SINGLE WORD)
000491: 01,3266           13267                           NOOP                                           #  CAN:T GET HERE **********
000492: 01,3267           13270                           TCF      +1
000493: 01,3270           11164                           CCS      LONGTIME
000494: 01,3271           13304                           TCF      MUCHTIME
000495: 01,3272           00000        DPBIT14            OCT      00000
000496: 01,3273           20000                           OCT      20000
000497:
000498:                                                                                                  #  LONGCALL
000499: 01,3274           35011        LASTTIME           CA       BIT14                                 #  GET BACK THE CORRECT DELTA TFOR WAITLIST
000500: 01,3275           27165                           ADS      LONGTIME   +1
000501: 01,3276           05252                           TC       WAITLIST
000502: 01,3277  E3,1400                                  EBANK=   LST1
000503: 01,3277           03311 02063                     2CADR    GETCADR                               #  THE ENTRY TO OUR LONGCADR
000504:
000505: 01,3301           33313        LONGRTRN           CA       TSKOVCDR                              #  SET IT UP SO THAT ONLY THE FIRST EXIT IS
000506: 01,3302           53435                           DXCH     LONGEXIT                              #  TO THE CALLER OF LONGCALL
000507: 01,3303           52006                           DTCB                                           #  THE REST ARE TO TASKOVER
000508:
000509: 01,3304           35011        MUCHTIME           CA       BIT14                                 #  WE HAVE OVER OUR ABOUT 1.25 MINUTES
000510: 01,3305           05252                           TC       WAITLIST                              #  SO SET UP FOR ANOTHER CYCLE THROUGH HERE
000511: 01,3306  E3,1400                                  EBANK=   LST1
000512: 01,3306           03261 02063                     2CADR    LONGCYCL
000513:
000514: 01,3310           13301                           TCF      LONGRTRN                              #  NOW EXIT PROPERLY
000515:
000516:                                                                                                  #  *** WAITLIST TASK GETCADR ***
000517:
000518: 01,3311           53161        GETCADR            DXCH     LONGCADR                              #  GET THE LONGCALL THAT WE WISHED TO START
000519: 01,3312           52006                           DTCB                                           #  AND TRANSFER CONTROL TO IT
000520:
000521: 01,3313           05331        TSKOVCDR           GENADR   TASKOVER

End of include-file WAITLIST.agc.  Parent file is MAIN.agc


