
Source Code


000002:                                                                                                  ## Copyright:   Public domain.
000003:                                                                                                  ## Filename:    ALARM_AND_ABORT.agc
000004:                                                                                                  ## Purpose:     A section of Luminary revision 116.
000005:                                                                                                  ##              It is part of the source code for the Lunar Module's (LM)
000006:                                                                                                  ##              Apollo Guidance Computer (AGC) for Apollo 12.
000007:                                                                                                  ##              This file is intended to be a faithful transcription, except
000008:                                                                                                  ##              that the code format has been changed to conform to the
000009:                                                                                                  ##              requirements of the yaYUL assembler rather than the
000010:                                                                                                  ##              original YUL assembler.
000011:                                                                                                  ## Reference:   pp. 1371-1375
000012:                                                                                                  ## Assembler:   yaYUL
000013:                                                                                                  ## Contact:     Ron Burkey <info@sandroid.org>.
000014:                                                                                                  ## Website:     www.ibiblio.org/apollo/index.html
000015:                                                                                                  ## Mod history: 2017-01-22 MAS  Created from Luminary 99.
000016:                                                                                                  ##              2017-02-03 RRB  Updated for Luminary 116.
000017:                                                                                                  ##              2017-03-01 HG   Fix Page number
000018:                                                                                                  ##                              Fix operand      : -> L
000019:                                                                                                  ##                                  operator  LXCH -> TS
000020:                                                                                                  ##              2017-03-10 RSB  Proofed comment text via 3-way diff vs
000021:                                                                                                  ##                              Luminary 99 and 132 ... no problems found.
000022:


000024:                                                                                                  #           THE FOLLOWING SUBROUTINE MAY BE CALLED TO DISPLAY A NON-ABORTIVE ALARM CONDITION. IT MAY BE CALLED
000025:                                                                                                  #  EITHER IN INTERRUPT OR UNDER EXECUTIVE CONTROL.
000026:
000027:                                                                                                  #  CALLING SEQUENCE IS AS FOLLOWS:
000028:                                                                                                  #                TC      ALARM
000029:                                                                                                  #                OCT     AAANN           ALARM NO. NN IN GENERAL AREA AAA.
000030:                                                                                                  #                                        (RETURNS HERE)
000031:
000032:    5567                                           BLOCK    02
000033:    4000                                           SETLOC   FFTAG7
000034:    4000                                           BANK
000035:
000036:    5567     0375                                  EBANK=   FAILREG
000037:
000038:    5567                                           COUNT*   $$/ALARM
000039:                                                                                                  #  ALARM TURNS ON THE PROGRAM ALARM LIGHT, BUT DOES NOT DISPLAY.
000040:
000041:    5567           00004        ALARM              INHINT
000042:
000043:    5570           30002                           CA       Q
000044:    5571           55363        ALARM2             TS       ALMCADR
000045:    5572           50002                           INDEX    Q
000046:    5573           30000                           CA       0
000047:    5574           54001        BORTENT            TS       L
000048:
000049:    5575           30006        PRIOENT            CA       BBANK
000050:    5576           00006                 +1        EXTEND
000051:    5577           04007                           ROR      SUPERBNK                              #  ADD SUPER BITS.
000052:    5600           55364                           TS       ALMCADR    +1
000053:
000054:    5601           30002        LARMENT            CA       Q                                     #  STORE RETURN FOR ALARM
000055:    5602           54061                           TS       ITEMP1
000056:
000057:    5603           10375        CHKFAIL1           CCS      FAILREG                               #  IS ANYTHING IN FAILREG
000058:    5604           15610                           TCF      CHKFAIL2                              #  YES TRY NEXT REG
000059:    5605           30001                           CA       L
000060:    5606           54375                           TS       FAILREG
000061:    5607           15614                           TCF      PROGLARM                              #  TURN ALARM LIGHT ON FOR FIRST ALARM
000062:
000063:    5610           10376        CHKFAIL2           CCS      FAILREG    +1
000064:    5611           15614                           TCF      PROGLARM
000065:    5612           30001                           CA       L
000066:    5613           54376                           TS       FAILREG    +1
000067:
000068:
000069:    5614           22377        PROGLARM           LXCH     FAILREG    +2                         #  STORE AS "MOST RECENT" ALARM CODE
000070:
000071:    5615           41035                           CS       DSPTAB     +11D                       #  TURN ON PROGRAM ALARM IF OFF
000072:    5616           75632                           MASK     OCT40400
000073:    5617           27035                           ADS      DSPTAB     +11D


000075:
000076:    5620           56061        MULTEXIT           XCH      ITEMP1                                #  OBTAIN RETURN ADDRESS IN A
000077:    5621           00003                           RELINT
000078:    5622           50000                           INDEX    A
000079:    5623           00001                           TC       1
000080:
000081:                                                                                                  #  PRIOLARM DISPLAYS V05N09 VIA PRIODSPR WITH 3 RETURNS TO THE USER FROM THE ASTRONAUT AT CALL LOC +1,+2,+3 AND
000082:                                                                                                  #  AN IMMEDIATE RETURN TO THE USER AT CALL LOC +4. EXAMPLE FOLLOWS,
000083:                                                                                                  #                CAF     OCTXX           ALARM CODE
000084:                                                                                                  #                TC      BANKCALL
000085:                                                                                                  #                CADR    PRIOLARM
000086:
000087:                                                                                                  #                ...     ...
000088:                                                                                                  #                ...     ...
000089:                                                                                                  #                ...     ...             ASTRONAUT RETURN
000090:                                                                                                  #                TC      PHASCHNG        IMMEDIATE RETURN TO USER.  RESTART
000091:                                                                                                  #                OCT     X.1             PHASE CHANGE FOR PRIO DISPLAY
000092:
000093: 10,3563                                           BANK     10
000094: 10,2000                                           SETLOC   DISPLAYS
000095: 10,2000                                           BANK
000096:
000097: 10,3563                                           COUNT*   $$/DSPLA
000098: 10,3563           00004        PRIOLARM           INHINT                                         #  * * * KEEP IN DISPLAY ROUTINES BANK
000099: 10,3564           54001                           TS       L                                     #  SAVE ALARM CODE
000100:
000101: 10,3565           30133                           CA       BUF2                                  #  2 CADR OF PRIOLARM USER
000102: 10,3566           55363                           TS       ALMCADR
000103: 10,3567           30134                           CA       BUF2       +1
000104: 10,3570           05576                           TC       PRIOENT    +1                         #  * LEAVE L ALONE
000105: 10,3571           77467        -2SEC              DEC      -200       B-14                       #  *** DONT MOVE
000106: 10,3572           35006                           CAF      V05N09
000107: 10,3573           12505                           TCF      PRIODSPR
000108:
000109:    5624                                           BLOCK    02
000110:    4000                                           SETLOC   FFTAG7
000111:    4000                                           BANK
000112:
000113:    5624                                           COUNT*   $$/ALARM
000114:    5624           00004        BAILOUT            INHINT
000115:    5625           30002                           CA       Q
000116:    5626           55363                           TS       ALMCADR
000117:
000118:    5627           50002                           INDEX    Q
000119:    5630           30000                           CAF      0
000120:    5631           05574                           TC       BORTENT
000121:    5632           40400        OCT40400           OCT      40400
000122:
000123:    5633           00004                           INHINT
000124:    5634           34752        WHIMPER            CA       TWO
000125:    5635           60005                           AD       Z


000127:    5636           54017                           TS       BRUPT
000128:    5637           50017                           RESUME


000130:    5640           04635                           TC       POSTJUMP                              #  RESUME SENDS CONTROL HERE
000131:    5641           12763                           CADR     ENEMA
000132:    5642           00004        POODOO             INHINT
000133:    5643           30002                           CA       Q
000134:    5644           55363        ABORT2             TS       ALMCADR
000135:    5645           50002                           INDEX    Q
000136:    5646           30000                           CAF      0
000137:    5647           05574                           TC       BORTENT
000138:    5650           77770        OCT77770           OCT      77770                                 #  DON'T MOVE
000139:
000140:    5651           34765                           CAF      OCT35                                 #  4.35SPOT FOR GOPOODOO
000141:    5652           54001                           TS       L
000142:    5653           40000                           COM
000143:    5654           52760                           DXCH     -PHASE4
000144:    5655           00004        GOPOODOO           INHINT
000145:    5656           04616                           TC       BANKCALL                              #  RESET STATEFLG, REINTFLG, AND NODOFLAG.
000146:    5657           27750                           CADR     FLAGS
000147:    5660           30103                           CA       FLAGWRD7                              #  IS SERVICER CURRENTLY IN OPERATION?
000148:    5661           74746                           MASK     V37FLBIT
000149:    5662           10000                           CCS      A
000150:    5663           15671                           TCF      STRTIDLE
000151:    5664           04616                           TC       BANKCALL                              #  TERMINATE GRPS 1, 3, 5, AND 6
000152:    5665           12650                           CADR     V37KLEAN
000153:    5666           04616                           TC       BANKCALL                              #  TERMINATE GRPS 2, 4, 1, 3, 5, AND 6
000154:    5667           12641                           CADR     MR.KLEAN                              #        (I.E., GRP 4 LAST)
000155:    5670           15634                           TCF      WHIMPER
000156:    5671           35733        STRTIDLE           CAF      BBSERVDL
000157:    5672           04727                           TC       SUPERSW
000158:    5673           04616                           TC       BANKCALL                              #  PUT SERVICER INTO ITS "GROUND" STATE
000159:    5674           57321                           CADR     SERVIDLE                              #  AND PROCEED TO GOTOPOOH.
000160:    5675           00004        CCSHOLE            INHINT
000161:    5676           30002                           CA       Q
000162:    5677           05644                           TC       ABORT2
000163:    5700           21103        OCT21103           OCT      21103
000164:    5701           00004        CURTAINS           INHINT
000165:    5702           30002                           CA       Q
000166:    5703           05571                           TC       ALARM2
000167:    5704           00217        OCT217             OCT      00217
000168:    5705           01363                           TC       ALMCADR                               #  RETURN TO USER
000169:
000170:    5706           00004        BAILOUT1           INHINT
000171:    5707           53364                           DXCH     ALMCADR
000172:    5710           35732                           CAF      ADR40400
000173:    5711           54061        BOTHABRT           TS       ITEMP1
000174:    5712           50002                           INDEX    Q
000175:    5713           30000                           CAF      0
000176:    5714           54001                           TS       L
000177:    5715           15603                           TCF      CHKFAIL1


000179:    5716           00004        POODOO1            INHINT
000180:    5717           53364                           DXCH     ALMCADR
000181:    5720           35731                           CAF      ADR77770
000182:    5721           15711                           TCF      BOTHABRT
000183:
000184:    5722           00004        ALARM1             INHINT
000185:    5723           53364                           DXCH     ALMCADR
000186:    5724           00004        ALMNCADR           INHINT
000187:    5725           50002                           INDEX    Q
000188:    5726           30000                           CA       0
000189:    5727           54001                           TS       L
000190:    5730           15601                           TCF      LARMENT
000191:
000192:    5731           15650        ADR77770           TCF      OCT77770
000193:    5732           15632        ADR40400           TCF      OCT40400
000194:    5733     5155               DOALARM            EQUALS   ENDOFJOB
000195:    5733  E7,1515                                  EBANK=   DVCNTR
000196:    5733           56067        BBSERVDL           BBCON    SERVIDLE
000197:                                                                                                  #  CALLING SEQUENCE FOR VARALARM
000198:
000199:                                                                                                  #                CAF     (ALARM)
000200:                                                                                                  #                TC      VARALARM
000201:
000202:                                                                                                  #  VARALARM TURNS ON PROGRAM ALARM LIGHT BUT DOES NOT DISPLAY
000203:
000204:    5734           00004        VARALARM           INHINT
000205:
000206:    5735           54001                           TS       L                                     #  SAVE USERS ALARM CODE
000207:
000208:    5736           30002                           CA       Q                                     #  SAVE USERS Q
000209:    5737           55363                           TS       ALMCADR
000210:
000211:    5740           05575                           TC       PRIOENT
000212:    5741           00014        OCT14              OCT      14                                    #  DONT MOVE
000213:
000214:    5742           01363                           TC       ALMCADR                               #  RETURN TO USER
000215:
000216:    5743     5634               ABORT              EQUALS   WHIMPER
000217: 13,3750                                           BANK     13
000218: 13,2000                                           SETLOC   ABTFLGS
000219: 13,2000                                           BANK
000220: 13,3750                                           COUNT*   $$/ALARM
000221:
000222: 13,3750           44747        FLAGS              CS       STATEBIT
000223: 13,3751           70077                           MASK     FLAGWRD3
000224: 13,3752           54077                           TS       FLAGWRD3
000225: 13,3753           44745                           CS       REINTBIT
000226: 13,3754           70106                           MASK     FLGWRD10
000227: 13,3755           54106                           TS       FLGWRD10
000228: 13,3756           44753                           CS       NODOBIT
000229: 13,3757           70076                           MASK     FLAGWRD2


000231: 13,3760           54076                           TS       FLAGWRD2
000232: 13,3761           00002                           TC       Q
000233:

End of include-file ALARM_AND_ABORT.agc.  Parent file is MAIN.agc


