
Source Code


000002:                                                                                                  ## Copyright:   Public domain.
000003:                                                                                                  ## Filename:    DAP_INTERFACE_SUBROUTINES.agc
000004:                                                                                                  ## Purpose:     A section of Luminary revision 116.
000005:                                                                                                  ##              It is part of the source code for the Lunar Module's (LM)
000006:                                                                                                  ##              Apollo Guidance Computer (AGC) for Apollo 12.
000007:                                                                                                  ##              This file is intended to be a faithful transcription, except
000008:                                                                                                  ##              that the code format has been changed to conform to the
000009:                                                                                                  ##              requirements of the yaYUL assembler rather than the
000010:                                                                                                  ##              original YUL assembler.
000011:                                                                                                  ## Reference:   pp. 1396-1399
000012:                                                                                                  ## Assembler:   yaYUL
000013:                                                                                                  ## Contact:     Ron Burkey <info@sandroid.org>.
000014:                                                                                                  ## Website:     www.ibiblio.org/apollo/index.html
000015:                                                                                                  ## Mod history: 2017-01-22 MAS  Created from Luminary 99.
000016:                                                                                                  ##              2017-02-08 NV   Updated for Luminary 116.
000017:                                                                                                  ##              2017-03-10 RSB  Proofed comment text via 3-way diff vs
000018:                                                                                                  ##                              Luminary 99 and 132 ... no problems found.
000019:


000021: 20,2115                                           BANK     20
000022: 20,2000                                           SETLOC   DAPS3
000023: 20,2000                                           BANK
000024:
000025: 20,2115  E6,1635                                  EBANK=   CDUXD
000026: 20,2115                                           COUNT*   $$/DAPIF
000027:
000028:                                                                                                  #  MOD 0         DATE    11/15/66        BY GEORGE W. CHERRY
000029:                                                                                                  #  MOD 1                  1/23/67        MODIFICATION BY PETER ADLER
000030:
000031:                                                                                                  #  FUNCTIONAL DESCRIPTION
000032:                                                                                                  #        HEREIN ARE A COLLECTION OF SUBROUTINES WHICH ALLOW MISSION CONTROL PROGRAMS TO CONTROL THE MODE
000033:                                                                                                  #        AND INTERFACE WITH THE DAP.
000034:
000035:                                                                                                  #  CALLING SEQUENCES
000036:                                                                                                  #        IN INTERRUPT OR WITH INTERRUPT INHIBITED
000037:                                                                                                  #                TC      IBNKCALL
000038:                                                                                                  #                FCADR   ROUTINE
000039:                                                                                                  #        IN A JOB WITHOUT INTERRUPT INHIBITED
000040:                                                                                                  #                INHINT
000041:                                                                                                  #                TC      IBNKCALL
000042:                                                                                                  #                FCADR   ROUTINE
000043:                                                                                                  #                RELINT
000044:
000045:                                                                                                  #  OUTPUT
000046:                                                                                                  #        SEE INDIVIDUAL ROUTINES BELOW
000047:
000048:                                                                                                  #  DEBRIS
000049:                                                                                                  #        A, L, AND SOMETIMES MDUETEMP                    ODE     NOT IN PULSES MODE
000050:


000052:                                                                                                  #  SUBROUTINE NAMES:
000053:                                                                                                  #        SETMAXDB, SETMINDB, RESTORDB, PFLITEDB
000054:                                                                                                  #  MODIFIED:     30 JANUARY 1968 BY P S WEISSMAN TO CREATE RESTORDB.
000055:                                                                                                  #  MODIFIED:     1 MARCH 1968 BY P S WEISSMAN TO SAVE EBANK AND CREATE PFLITEDB
000056:
000057:                                                                                                  #  FUNCTIONAL DESCRIPTION:
000058:                                                                                                  #        SETMAXDB - SET DEADBAND TO 5.0 DEGREES
000059:                                                                                                  #        SETMINDB - SET DEADBAND TO 0.3 DEGREE
000060:                                                                                                  #        RESTORDB - SET DEADBAND TO .3, 1, OR 5 ACCORDING TO BITS 4 AND 5 OF DAPBOOLS
000061:                                                                                                  #        PFLITEDB - SET DEADBAND TO 1.0 DEGREE AND ZERO THE COMMANDED ATTITUDE CHANGE AND COMMANDED RATE
000062:
000063:                                                                                                  #        ALL ENTRIES SET UP A NOVAC JOB TO DO 1/ACCS SO THAT THE TJETLAW SWITCH CURVES ARE POSITIONED TO
000064:                                                                                                  #        REFLECT THE NEW DEADBAND.  IT SHOULD BE NOTED THAT THE DEADBAND REFERS TO THE ATTITUDE IN THE P-, U-, AND V-AXES.
000065:
000066:                                                                                                  #  SUBROUTINE CALLED:    NOVAC
000067:
000068:                                                                                                  #  CALLING SEQUENCE:     SAME AS ABOVE
000069:                                                                                                  #                        OR      TC RESTORDB +1    FROM ALLCOAST
000070:
000071:                                                                                                  #  DEBRIS:               A, L, Q, RUPTREG1, (ITEMPS IN NOVAC)
000072:
000073: 20,2115           30111        RESTORDB           CAE      DAPBOOLS                              #  DETERMINE CREW-SELECTED DEADBAND.
000074: 20,2116           74747                           MASK     DBSLECT2                              #  CHECK FOR MAX DB (5 DEG)
000075: 20,2117           00006                           EXTEND
000076: 20,2120           12122                           BZF      +2
000077: 20,2121           12130                           TCF      SETMAXDB                              #  BIT5 DAPBOOLS IS SET - CREW WANTS 5 DEG
000078: 20,2122           30111                           CAE      DAPBOOLS
000079: 20,2123           74750                           MASK     DBSELECT                              #  CHECK FOR 1 DEG DEADBAND SELECTION
000080: 20,2124           00006                           EXTEND
000081: 20,2125           12141                           BZF      SETMINDB
000082:
000083: 20,2126           32153                           CAF      POWERDB                               #  BIT4 DAPBOOLS IS SET - CREW WANTS 1 DEG
000084: 20,2127           12131                           TCF      SETMAXDB   +1
000085: 20,2130           32152        SETMAXDB           CAF      WIDEDB                                #  SET 5 DEGREE DEADBAND.
000086: 20,2131           55343                 +1        TS       DB
000087:
000088: 20,2132           00006                           EXTEND                                         #  SET UP JOB TO RE-POSITION SWITCH CURVES.
000089: 20,2133           22070                           QXCH     RUPTREG1
000090: 20,2134           37720        CALLACCS           CAF      PRIO27
000091: 20,2135           05072                           TC       NOVAC
000092: 20,2136  E6,1537                                  EBANK=   AOSQ
000093: 20,2136           03644 42106                     2CADR    1/ACCJOB
000094:
000095: 20,2140           00070                           TC       RUPTREG1                              #  RETURN TO CALLER.
000096:
000097: 20,2141           32151        SETMINDB           CAF      NARROWDB                              #  SET 0.3 DEGREE DEADBAND.
000098: 20,2142           12131                           TCF      SETMAXDB   +1


000100: 20,2143           00006        PFLITEDB           EXTEND                                         #  THE RETURN FROM CALLACCS IS TO RUPTREG1.
000101: 20,2144           22070                           QXCH     RUPTREG1
000102: 20,2145           02154                           TC       ZATTEROR                              #  ZERO THE ERRORS AND COMMANDED RATES.
000103: 20,2146           32153                           CAF      POWERDB                               #  SET DB TO 1.0 DEG.
000104: 20,2147           55343                           TS       DB
000105: 20,2150           12134                           TCF      CALLACCS                              #  SET UP 1/ACCS AND RETURN TO CALLER.
000106: 20,2151           00155        NARROWDB           OCTAL    00155                                 #  0.3 DEGREE SCALED AT 45.
000107: 20,2152           03434        WIDEDB             OCTAL    03434                                 #  5.0 DEGREES SCALED AT 45.
000108: 20,2153           00554        POWERDB            DEC      .02222                                #  1.0 DEGREE SCALED AT 45.
000109:
000110: 20,2154           35015        ZATTEROR           CAF      EBANK6
000111: 20,2155           56003                           XCH      EBANK
000112: 20,2156           54001                           TS       L                                     #  SAVE CALLERS EBANK IN L.
000113: 20,2157           30032                           CAE      CDUX
000114: 20,2160           55635                           TS       CDUXD
000115: 20,2161           30033                           CAE      CDUY
000116: 20,2162           55636                           TS       CDUYD
000117: 20,2163           30034                           CAE      CDUZ
000118: 20,2164           55637                           TS       CDUZD
000119: 20,2165           12171                           TCF      STOPRATE   +3
000120:
000121: 20,2166           35015        STOPRATE           CAF      EBANK6
000122: 20,2167           56003                           XCH      EBANK
000123: 20,2170           54001                           TS       L                                     #  SAVE CALLERS EBANK IN L.
000124: 20,2171           34755                 +3        CAF      ZERO
000125: 20,2172           55643                           TS       OMEGAPD
000126: 20,2173           55644                           TS       OMEGAQD
000127: 20,2174           55645                           TS       OMEGARD
000128: 20,2175           55640                           TS       DELCDUX
000129: 20,2176           55641                           TS       DELCDUY
000130: 20,2177           55642                           TS       DELCDUZ
000131: 20,2200           55274                           TS       DELPEROR
000132: 20,2201           55275                           TS       DELQEROR
000133: 20,2202           55276                           TS       DELREROR
000134: 20,2203           22003                           LXCH     EBANK                                 #  RESTORE CALLERS EBANK.
000135: 20,2204           00002                           TC       Q
000136:
000137:                                                                                                  #  SUBROUTINE NAME:      ALLCOAST
000138:                                                                                                  #  WILL BE CALLED BY FRESH STARTS AND ENGINE OFF ROUTINES.               .
000139:
000140:                                                                                                  #  CALLING SEQUENCE:     (SAME AS ABOVE)
000141:
000142:                                                                                                  #  EXIT:                 RETURN TO Q.
000143:
000144:                                                                                                  #  SUBROUTINES CALLED:   STOPRATE, RESTORDB, NOVAC
000145:
000146:                                                                                                  #  ZERO:                 (FOR ALL AXES) AOS, ALPHA, AOSTERM, OMEGAD, DELCDU, DELEROR
000147:


000149:                                                                                                  #  OUTPUT:               DRIFTBIT/DAPBOOLS, DB, JOB TO DO 1/ACCS
000150:
000151:                                                                                                  #  DEBRIS:               A, L, Q, RUPTREG1, RUPTREG2, (ITEMPS IN NOVAC)
000152:
000153: 20,2205           00006        ALLCOAST           EXTEND                                         #  SAVE Q FOR RETURN
000154: 20,2206           22071                           QXCH     RUPTREG2
000155: 20,2207           02166                           TC       STOPRATE                              #  CLEAR RATE INTERFACE.  RETURN WITH A=0
000156: 20,2210           22003                           LXCH     EBANK                                 #  AND L=EBANK6.  SAVE CALLERS EBANK.
000157: 20,2211           55537                           TS       AOSQ
000158: 20,2212           55540                           TS       AOSQ       +1
000159: 20,2213           55541                           TS       AOSR
000160: 20,2214           55542                           TS       AOSR       +1
000161: 20,2215           55424                           TS       ALPHAQ                                #  FOR DOWNLIST.
000162: 20,2216           55425                           TS       ALPHAR
000163: 20,2217           55545                           TS       AOSQTERM
000164: 20,2220           55546                           TS       AOSRTERM
000165: 20,2221           22003                           LXCH     EBANK                                 #  RESTORE EBANK (EBANK6 NO LONGER NEEDED)
000166:
000167: 20,2222           40111                           CS       DAPBOOLS                              #  SET UP DRIFTBIT
000168: 20,2223           74744                           MASK     DRIFTBIT
000169: 20,2224           26111                           ADS      DAPBOOLS
000170: 20,2225           02116                           TC       RESTORDB   +1                         #  RESTORE DEADBANK TO CREW-SELECTED VALUE.
000171:
000172: 20,2226           00071                           TC       RUPTREG2                              #  RETURN.
000173:

End of include-file DAP_INTERFACE_SUBROUTINES.agc.  Parent file is MAIN.agc


