
Source Code


000002:                                                                                                  ## Copyright:   Public domain.
000003:                                                                                                  ## Filename:    ERASABLE_ASSIGNMENTS.agc
000004:                                                                                                  ## Purpose:     A section of Luminary revision 116.
000005:                                                                                                  ##              It is part of the source code for the Lunar Module's (LM)
000006:                                                                                                  ##              Apollo Guidance Computer (AGC) for Apollo 12.
000007:                                                                                                  ##              This file is intended to be a faithful transcription, except
000008:                                                                                                  ##              that the code format has been changed to conform to the
000009:                                                                                                  ##              requirements of the yaYUL assembler rather than the
000010:                                                                                                  ##              original YUL assembler.
000011:                                                                                                  ## Reference:   pp. 90-153
000012:                                                                                                  ## Assembler:   yaYUL
000013:                                                                                                  ## Contact:     Ron Burkey <info@sandroid.org>.
000014:                                                                                                  ## Website:     www.ibiblio.org/apollo/index.html
000015:                                                                                                  ## Mod history: 2017-01-22 MAS  Created from Luminary 99.
000016:                                                                                                  ##              2017-02-18 MAS  Began updating for Luminary 116.
000017:                                                                                                  ##              2017-03-11 MAS  Completed updating for Luminary 116.
000018:                                                                                                  ##              2017-03-13 RSB  Proofed comment text via 3-way diff vs
000019:                                                                                                  ##                              Luminary 99 and 132.
000020:                                                                                                  ##              2017-03-15 RSB  Comment-text fixes identified in 5-way
000021:                                                                                                  ##                              side-by-side diff of Luminary 69/99/116/131/210.
000022:                                                                                                  ##              2017-03-19 HG   Fix label BLINCR1  -> ELINCR1
000023:


000025:                                                                                                  #  CONVENTIONS AND NOTATIONS UTILIZED FOR ERASABLE ASSIGNMENTS.
000026:
000027:                                                                                                  #           EQUALS IS USED IN TWO WAYS.  IT IS OFTEN USED TO CHAIN A GROUP
000028:                                                                                                  #                  OF ASSIGNMENTS SO THAT THE GROUP MAY BE MOVED WITH THE
000029:                                                                                                  #                  CHANGING OF ONLY ONE CARD.  EXAMPLE.
000030:
000031:                                                                                                  #                                          X        EQUALS START
000032:                                                                                                  #                                          Y        EQUALS X        +SIZE.X
000033:                                                                                                  #                                          Z        EQUALS Y        +SIZE.Y
000034:
000035:                                                                                                  #                  (X, Y, AND Z ARE CONSECUTIVE AND BEGIN AT START.       )
000036:                                                                                                  #                  (SIZE.X AND SIZE.Y ARE THE RESPECTIVE SIZES OF X AND Y,
000037:                                                                                                  #                   USUALLY NUMERIC,  IE. 1, 2, 6, 18D ETC.               )
000038:
000039:
000040:                                                                                                  #           EQUALS OFTEN IMPLIES THE SHARING OF REGISTERS (DIFFERENT NAMES
000041:                                                                                                  #                  AND DIFFERENT DATA).  EXAMPLE.
000042:
000043:                                                                                                  #                                          X        EQUALS Y
000044:
000045:
000046:                                                                                                  #           = MEANS THAT MULTIPLE NAMES HAVE BEEN GIVEN TO THE SAME DATA.
000047:                                                                                                  #                  (THIS IS LOGICAL EQUIVALENCE, NOT SHARING)  EXAMPLE.
000048:
000049:                                                                                                  #                                          X        =      Y
000050:
000051:
000052:                                                                                                  #           THE SIZE AND UTILIZATION OF AN ERASABLE ARE OFTEN INCLUDED IN
000053:                                                                                                  #           THE COMMENTS IN THE FOLLOWING FORM.  M(SIZE)N.
000054:
000055:                                                                                                  #                  M REFERS TO THE MOBILITY OF THE ASSIGNMENT.
000056:                                                                                                  #                       B   MEANS THAT THE SYMBOL IS REFERENCED BY BASIC
000057:                                                                                                  #                           INSTRUCTIONS AND THUS IS E-BANK SENSITIVE.
000058:                                                                                                  #                       I   MEANS THAT THE SYMBOL IS REFERENCED ONLY BY
000059:                                                                                                  #                           INTERPRETIVE INSTRUCTIONS, AND IS THUS E-BANK
000060:                                                                                                  #                           INSENSITIVE AND MAY APPEAR IN ANY E-BANK.
000061:
000062:                                                                                                  #                  SIZE IS THE NUMBER OF REGISTERS INCLUDED BY THE SYMBOL.
000063:
000064:                                                                                                  #                  N INDICATES THE NATURE OR PERMANENCE OF THE CONTENTS.
000065:                                                                                                  #                       PL  MEANS THAT THE CONTENTS ARE PAD LOADED.
000066:                                                                                                  #                       DSP MEANS THAT THE REGISTER IS USED FOR A DISPLAY.
000067:                                                                                                  #                       PRM MEANS THAT THE REGISTER IS PERMANENT, IE. IT
000068:                                                                                                  #                           IS USED DURING THE ENTIRE MISSION FOR ONE
000069:                                                                                                  #                           PURPOSE AND CANNOT BE SHARED.
000070:                                                                                                  #                       TMP MEANS THAT THE REGISTER IS USED TEMPORARILY OR
000071:                                                                                                  #                           IS A SCRATCH REGISTER FOR THE ROUTINE TO WHICH
000072:                                                                                                  #                           IT IS ASSIGNED.  THAT IS, IT NEED NOT BE SET
000073:                                                                                                  #                           PRIOR TO INVOCATION OF THE ROUTINE NOR DOES IT
000074:                                                                                                  #                           CONTAIN USEFUL OUTPUT TO ANOTHER ROUTINE.  THUS


000076:                                                                                                  #                           IT MAY BE SHARED WITHANY OTHER ROUTINE WHICH
000077:                                                                                                  #                           IS NOT ACTIVE IN PARALLEL.
000078:                                                                                                  #                       IN  MEANS INPUT TO THE ROUTINE AND IT IS PROBABLY
000079:                                                                                                  #                           TEMPORARY FOR A HIGHER-LEVEL ROUTINE/PROGRAM.
000080:                                                                                                  #                       OUT MEANS OUTPUT FROM THE ROUTINE, PROBABLY
000081:                                                                                                  #                           TEMPORARY FOR A HIGHER-LEVEL ROUTINE/PROGRAM.
000082:


000084:                                                                                                  #           SPECIAL REGISTERS.
000085:
000086: 26,2022                        A                  EQUALS   0
000087: 26,2022                        L                  EQUALS   1                                     #  L AND Q ARE BOTH CHANNELS AND REGISTERS.
000088: 26,2022                        Q                  EQUALS   2
000089: 26,2022                        EBANK              EQUALS   3
000090: 26,2022                        FBANK              EQUALS   4
000091: 26,2022                        Z                  EQUALS   5                                     #  ADJACENT TO FBANK AND BBANK FOR DXCH Z
000092: 26,2022                        BBANK              EQUALS   6                                     #  (DTCB) AND DXCH FBANK (DTCF).
000093:                                                                                                  #  REGISTER 7 IS A ZERO-SOURCE, USED BY ZL.
000094:
000095: 26,2022                        ARUPT              EQUALS   10                                    #  INTERRUPT STORAGE.
000096: 26,2022                        LRUPT              EQUALS   11
000097: 26,2022                        QRUPT              EQUALS   12
000098: 26,2022                        SAMPTIME           EQUALS   13                                    #  SAMPLED TIME 1 & 2.
000099: 26,2022                        ZRUPT              EQUALS   15                                    #  (13 AND 14 ARE SPARES.)
000100: 26,2022                        BANKRUPT           EQUALS   16                                    #  USUALLY HOLDS FBANK OR BBANK.
000101: 26,2022                        BRUPT              EQUALS   17                                    #  RESUME ADDRESS AS WELL.
000102:
000103: 26,2022                        CYR                EQUALS   20
000104: 26,2022                        SR                 EQUALS   21
000105: 26,2022                        CYL                EQUALS   22
000106: 26,2022                        EDOP               EQUALS   23                                    #  EDITS INTERPRETIVE OPERATION CODE PAIRS.
000107:
000108: 26,2022                        TIME2              EQUALS   24
000109: 26,2022                        TIME1              EQUALS   25
000110: 26,2022                        TIME3              EQUALS   26
000111: 26,2022                        TIME4              EQUALS   27
000112: 26,2022                        TIME5              EQUALS   30
000113: 26,2022                        TIME6              EQUALS   31
000114: 26,2022                        CDUX               EQUALS   32
000115: 26,2022                        CDUY               EQUALS   33
000116: 26,2022                        CDUZ               EQUALS   34
000117: 26,2022                        CDUT               EQUALS   35                                    #  REND RADAR TRUNNION CDU
000118: 26,2022                        CDUS               EQUALS   36                                    #  REND RADAR SHAFT CDU
000119: 26,2022                        PIPAX              EQUALS   37
000120: 26,2022                        PIPAY              EQUALS   40
000121: 26,2022                        PIPAZ              EQUALS   41
000122: 26,2022                        Q-RHCCTR           EQUALS   42                                    #  RHC COUNTER REGISTERS
000123: 26,2022                        P-RHCCTR           EQUALS   43
000124: 26,2022                        R-RHCCTR           EQUALS   44
000125: 26,2022                        INLINK             EQUALS   45
000126: 26,2022                        RNRAD              EQUALS   46
000127: 26,2022                        GYROCMD            EQUALS   47
000128: 26,2022                        CDUXCMD            EQUALS   50
000129: 26,2022                        CDUYCMD            EQUALS   51
000130: 26,2022                        CDUZCMD            EQUALS   52
000131: 26,2022                        CDUTCMD            EQUALS   53                                    #  RADAR TRUNNION COMMAND
000132: 26,2022                        CDUSCMD            EQUALS   54                                    #  RADAR SHAFT COMMAND


000134: 26,2022                        THRUST             EQUALS   55
000135: 26,2022                        LEMONM             EQUALS   56
000136: 26,2022                        OUTLINK            EQUALS   57
000137: 26,2022                        ALTM               EQUALS   60
000138:
000139:
000140:                                                                                                  #           INTERPRETIVE REGISTERS ADDRESSED RELATIVE TO VAC AREA.
000141:
000142: 26,2022                        LVSQUARE           EQUALS   34D                                   #  SQUARE OF VECTOR INPUT TO ABVAL AND UNIT
000143: 26,2022                        LV                 EQUALS   36D                                   #  LENGTH OF VECTOR INPUT TO UNIT.
000144: 26,2022                        X1                 EQUALS   38D                                   #  INTERPRETIVE SPECIAL REGISTERS RELATIVE
000145: 26,2022                        X2                 EQUALS   39D                                   #  TO THE WORK AREA.
000146: 26,2022                        S1                 EQUALS   40D
000147: 26,2022                        S2                 EQUALS   41D
000148: 26,2022                        QPRET              EQUALS   42D
000149:
000150:
000151:                                                                                                  #  INPUT/OUTPUT CHANNELS
000152:
000153:                                                                                                  #                                    *** CHANNEL ZERO IS TO BE USED IN AN INDEXED OPERATION ONLY. ***
000154: 26,2022  0000001               LCHAN              EQUALS   L
000155: 26,2022  0000002               QCHAN              EQUALS   Q
000156: 26,2022                        HISCALAR           EQUALS   3
000157: 26,2022                        LOSCALAR           EQUALS   4
000158: 26,2022                        CHAN5              EQUALS   5
000159: 26,2022                        CHAN6              EQUALS   6
000160: 26,2022                        SUPERBNK           EQUALS   7                                     #  SUPER-BANK.
000161: 26,2022                        OUT0               EQUALS   10
000162: 26,2022                        DSALMOUT           EQUALS   11
000163: 26,2022                        CHAN12             EQUALS   12
000164: 26,2022                        CHAN13             EQUALS   13
000165: 26,2022                        CHAN14             EQUALS   14
000166: 26,2022                        MNKEYIN            EQUALS   15
000167: 26,2022                        NAVKEYIN           EQUALS   16
000168: 26,2022                        CHAN30             EQUALS   30
000169: 26,2022                        CHAN31             EQUALS   31
000170: 26,2022                        CHAN32             EQUALS   32
000171: 26,2022                        CHAN33             EQUALS   33
000172: 26,2022                        DNTM1              EQUALS   34
000173: 26,2022                        DNTM2              EQUALS   35
000174:                                                                                                  #  END OF CHANNEL ASSIGNMENTS
000175:


000177:                                                                                                  #  INTERPRETIVE SWITCH BIT ASSIGNMENTS
000178:
000179:
000180:
000181:                                                                                                  #              **  FLAGWORDS AND BITS NOW ASSIGNED AND DEFINED IN THEIR OWN LOG SECTION.  **
000182:


000184:                                                                                                  #  GENERAL ERASABLE ASSIGNMENTS.
000185:
000186:    0061                                           SETLOC   61
000187:                                                                                                  #           INTERRUPT TEMPORARY STORAGE POOL.                              (11D)
000188:
000189:                                                                                                  #             (ITEMP1 THROUGH RUPTREG4)
000190:
000191:                                                                                                  #           ANY OF THESE MAY BE USED AS TEMPORARIES DURING INTERRUPT OR WITH INTERRUPT INHIBITED. THE ITEMP SERIES
000192:                                                                                                  #  IS USED DURING CALLS TO THE EXECUTIVE AND WAITLIST - THE RUPTREGS ARE NOT.
000193:
000194:    0061                        ITEMP1             ERASE
000195:    0062     0061               WAITEXIT           EQUALS   ITEMP1
000196:    0062     0061               EXECTEM1           EQUALS   ITEMP1
000197:
000198:    0062                        ITEMP2             ERASE
000199:    0063     0062               WAITBANK           EQUALS   ITEMP2
000200:    0063     0062               EXECTEM2           EQUALS   ITEMP2
000201:
000202:    0063                        ITEMP3             ERASE
000203:    0064     0063               RUPTSTOR           EQUALS   ITEMP3
000204:    0064     0063               WAITADR            EQUALS   ITEMP3
000205:    0064     0063               NEWPRIO            EQUALS   ITEMP3
000206:
000207:    0064                        ITEMP4             ERASE
000208:    0065     0064               LOCCTR             EQUALS   ITEMP4
000209:    0065     0064               WAITTEMP           EQUALS   ITEMP4
000210:
000211:    0065                        ITEMP5             ERASE
000212:    0066     0065               NEWLOC             EQUALS   ITEMP5
000213:
000214:    0066                        ITEMP6             ERASE
000215:                                                                                                  #  NEWLOC+1      EQUALS  ITEMP6          DP ADDRESS.
000216:
000217:    0067                                           SETLOC   67
000218:    0067                        NEWJOB             ERASE                                          #  MUST BE AT LOC 67 DUE TO WIRING.
000219:
000220:
000221:    0070                        RUPTREG1           ERASE
000222:    0071                        RUPTREG2           ERASE
000223:    0072                        RUPTREG3           ERASE
000224:    0073                        RUPTREG4           ERASE
000225:    0074     0073               KEYTEMP1           EQUALS   RUPTREG4
000226:    0074     0073               DSRUPTEM           EQUALS   RUPTREG4
000227:
000228:                                                                                                  #           FLAGWORD RESERVATIONS.                                         (16D)
000229:
000230:    0074                        STATE              ERASE    +15D                                  #  FLAGWORD REGISTERS.
000231:
000232:
000233:                                                                                                  #           P25 RADAR STORAGE.  (MAY BE UNSHARED IN E7)  (TEMP OVERLAY)    (2D)     OVERLAYS FLGWRD 14 & 15


000235:    0114     0112               LASTYCMD           EQUALS   STATE      +14D                       #  B(1)PRM  THESE ARE CALLED BY T4RUPT
000236:    0114     0113               LASTXCMD           EQUALS   LASTYCMD   +1                         #  B(1)PRM  THEY MUST BE CONTIGUOUS,Y FIRST
000237:
000238:
000239:
000240:                                                                                                  #           EXEC TEMPORARIES WHICH MAY BE USED BETWEEN CCS NEWJOBS.  (32D) (INTB15+ THROUGH RUPTMXTM)
000241:    0114                        INTB15+            ERASE                                          #  REFLECTS 15TH BIT OF INDEXABLE ADDRESSES
000242:    0115     0114               DSEXIT             =        INTB15+                               #  RETURN FOR DSPIN
000243:    0115     0114               EXITEM             =        INTB15+                               #  RETURN FOR SCALE FACTOR ROUTINE SELECT
000244:    0115     0114               BLANKRET           =        INTB15+                               #  RETURN FOR 2BLANK
000245:
000246:    0115                        INTBIT15           ERASE                                          #  SIMILAR TO ABOVE.
000247:    0116     0115               WRDRET             =        INTBIT15                              #  RETURN FOR 5BLANK
000248:    0116     0115               WDRET              =        INTBIT15                              #  RETURN FOR DSPWD
000249:    0116     0115               DECRET             =        INTBIT15                              #  RETURN FOR PUTCOM(DEC LOAD)
000250:    0116     0115               21/22REG           =        INTBIT15                              #  TEMP FOR CHARIN
000251:
000252:                                                                                                  #           THE REGISTERS BETWEEN ADDRWD AND PRIORITY MUST STAY IN THE FOLLOWING ORDER FOR INTERPRETIVE TRACE.
000253:
000254:    0116                        ADDRWD             ERASE                                          #  12 BIT INTERPRETIVE OPERAND SUB-ADDRESS.
000255:    0117                        POLISH             ERASE                                          #  HOLDS CADR MADE FROM POLISH ADDRESS.
000256:    0120     0117               UPDATRET           =        POLISH                                #  RETURN FOR UPDATNN, UPDATVB
000257:    0120     0117               CHAR               =        POLISH                                #  TEMP FOR CHARIN
000258:    0120     0117               ERCNT              =        POLISH                                #  COUNTER FOR ERROR LIGHT RESET
000259:    0120     0117               DECOUNT            =        POLISH                                #  COUNTER FOR SCALING AND DISPLAY (DEC)
000260:
000261:    0120                        FIXLOC             ERASE                                          #  WORK AREA ADDRESS.
000262:    0121                        OVFIND             ERASE                                          #  SET NON-ZERO ON OVERFLOW.
000263:
000264:    0122                        VBUF               ERASE    +5                                    #  TEMPORARY STORAGE USED FOR VECTORS.
000265:    0130     0122               SGNON              =        VBUF                                  #  TEMP FOR +,- ON
000266:    0130     0122               NOUNTEM            =        VBUF                                  #  COUNTER FOR MIXNOUN FETCH
000267:    0130     0122               DISTEM             =        VBUF                                  #  COUNTER FOR OCTAL DISPLAY VERBS
000268:    0130     0122               DECTEM             =        VBUF                                  #  COUNTER FOR FETCH (DEC DISPLAY VERBS)
000269:
000270:    0130     0123               SGNOFF             =        VBUF       +1                         #  TEMP FOR +,- ON
000271:    0130     0123               NVTEMP             =        VBUF       +1                         #  TEMP FOR NVSUB
000272:    0130     0123               SFTEMP1            =        VBUF       +1                         #  STORAGE FOR SF CONST HI PART(=SFTEMP2-1)
000273:    0130     0123               HITEMIN            =        VBUF       +1                         #  TEMP FOR LOAD OF HRS, MIN, SEC
000274:                                                                                                  #           MUST = LOTEMIN-1.
000275:    0130     0124               CODE               =        VBUF       +2                         #  FOR DSPIN
000276:    0130     0124               SFTEMP2            =        VBUF       +2                         #  STORAGE FOR SF CONST LO PART(=SFTEMP1+1)
000277:    0130     0124               LOTEMIN            =        VBUF       +2                         #  TEMP FOR LOAD OF HRS, MIN, SEC
000278:                                                                                                  #           MUST = HITEMIN+1.
000279:    0130     0125               MIXTEMP            =        VBUF       +3                         #  FOR MIXNOUN DATA
000280:    0130     0125               SIGNRET            =        VBUF       +3                         #  RETURN FOR +,- ON
000281:
000282:                                                                                                  #  ALSO MIXTEMP+1 = VBUF+4, MIXTEMP+2 = VBUF+5.
000283:
000284:    0130                        BUF                ERASE    +2                                    #  TEMPORARY SCALAR STORAGE.


000286:    0133                        BUF2               ERASE    +1
000287:    0135     0130               INDEXLOC           EQUALS   BUF                                   #  CONTAINS ADDRESS OF SPECIFIED INDEX.
000288:    0135     0130               SWWORD             EQUALS   BUF                                   #  ADDRESS OF SWITCH WORD.
000289:    0135     0131               SWBIT              EQUALS   BUF        +1                         #  SWITCH BIT WITHIN SWITCH WORD.
000290:    0135                        MPTEMP             ERASE                                          #  TEMPORARY USED IN MULTIPLY AND SHIFT.
000291:    0136     0135               DMPNTEMP           =        MPTEMP                                #  DMPSUB TEMPORARY
000292:    0136                        DOTINC             ERASE                                          #  COMPONENT INCREMENT FOR DOT SUBROUTINE.
000293:    0137     0136               DVSIGN             EQUALS   DOTINC                                #  DETERMINES SIGN OF DDV RESULT.
000294:    0137     0136               ESCAPE             EQUALS   DOTINC                                #  USED IN ARCSIN/ARCCOS.
000295:    0137     0136               ENTRET             =        DOTINC                                #  EXIT FROM ENTER
000296:
000297:    0137                        DOTRET             ERASE                                          #  RETURN FROM DOT SUBROUTINE.
000298:    0140     0137               DVNORMCT           EQUALS   DOTRET                                #  DIVIDEND NORMALIZATION COUNT IN DDV.
000299:    0140     0137               ESCAPE2            EQUALS   DOTRET                                #  ALTERNATE ARCSIN/ARCCOS SWITCH.
000300:    0140     0137               WDCNT              =        DOTRET                                #  CHAR COUNTER FOR DSPWD
000301:    0140     0137               INREL              =        DOTRET                                #  INPUT BUFFER SELECTOR ( X,Y,Z, REG )
000302:
000303:    0140                        MATINC             ERASE                                          #  VECTOR INCREMENT IN MXV AND VXM.
000304:    0141     0140               MAXDVSW            EQUALS   MATINC                                #  +0 IF DP QUOTIENT IS NEAR ONE - ELSE -1.
000305:    0141     0140               POLYCNT            EQUALS   MATINC                                #  POLYNOMIAL LOOP COUNTER
000306:    0141     0140               DSPMMTEM           =        MATINC                                #  DSPCOUNT SAVE FOR DSPMM
000307:    0141     0140               MIXBR              =        MATINC                                #  INDICATOR FOR MIXED OR NORMAL NOUN
000308:
000309:    0141                        TEM1               ERASE                                          #  EXEC TEMP
000310:    0142     0141               POLYRET            =        TEM1
000311:    0142     0141               DSREL              =        TEM1                                  #  REL ADDRESS FOR DSPIN
000312:
000313:    0142                        TEM2               ERASE                                          #  EXEC TEMP
000314:    0143     0142               DSMAG              =        TEM2                                  #  MAGNITUDE STORE FOR DSPIN
000315:    0143     0142               IDADDTEM           =        TEM2                                  #  MIXNOUN INDIRECT ADDRESS STORAGE
000316:
000317:    0143                        TEM3               ERASE                                          #  EXEC TEMP
000318:    0144     0143               COUNT              =        TEM3                                  #  FOR DSPIN
000319:
000320:    0144                        TEM4               ERASE                                          #  EXEC TEMP
000321:    0145     0144               LSTPTR             =        TEM4                                  #  LIST POINTER FOR GRABUSY
000322:    0145     0144               RELRET             =        TEM4                                  #  RETURN FOR RELDSP
000323:    0145     0144               FREERET            =        TEM4                                  #  RETURN FOR FREEDSP
000324:    0145     0144               DSPWDRET           =        TEM4                                  #  RETURN FOR DSPSIGN
000325:    0145     0144               SEPSCRET           =        TEM4                                  #  RETURN FOR SEPSEC
000326:    0145     0144               SEPMNRET           =        TEM4                                  #  RETURN FOR SEPMIN
000327:
000328:    0145                        TEM5               ERASE                                          #  EXEC TEMP
000329:    0146     0145               NOUNADD            =        TEM5                                  #  TEMP STORAGE FOR NOUN ADDRESS
000330:
000331:    0146                        NNADTEM            ERASE                                          #  TEMP FOR NOUN ADDRESS TABLE ENTRY
000332:    0147                        NNTYPTEM           ERASE                                          #  TEMP FOR NOUN TYPE TABLE ENTRY
000333:    0150                        IDAD1TEM           ERASE                                          #  TEMP FOR INDIR ADRESS TABLE ENTRY(MIXNN)
000334:                                                                                                  #  MUST = IDAD2TEM-1, = IDAD3TEM-2.
000335:    0151                        IDAD2TEM           ERASE                                          #  TEMP FOR INDIR ADRESS TABLE ENTRY(MIXNN)


000337:                                                                                                  #  MUST = IDAD1TEM+1, = IDAD3TEM-1.
000338:    0152                        IDAD3TEM           ERASE                                          #  TEMP FOR INDIR ADRESS TABLE ENTRY(MIXNN)
000339:                                                                                                  #  MUST = IDAD1TEM+2, = IDAD2TEM+1.
000340:    0153                        RUTMXTEM           ERASE                                          #  TEMP FOR SF ROUT TABLE ENTRY(MIXNN ONLY)
000341:
000342:                                                                                                  #           AX*SR*T STORAGE.                                               (6D)
000343:
000344:    0154     0142               DEXDEX             EQUALS   TEM2                                  #  B(1)TMP
000345:    0154     0143               DEX1               EQUALS   TEM3                                  #  B(1)TMP
000346:    0154     0144               DEX2               EQUALS   TEM4                                  #  B(1)TMP
000347:    0154     0145               RTNSAVER           EQUALS   TEM5                                  #  B(1)TMP
000348:    0154     0157               TERM1TMP           EQUALS   MPAC       +3                         #  B(2)TMP
000349:
000350:    0154     0143               DEXI               =        DEX1
000351:
000352:
000353:                                                                                                  #           THE FOLLOWING 10 REGISTERS ARE USED FOR TEMPORARY STORAGE OF THE DERIVATIVE COEFFICIENT TABLE OF
000354:                                                                                                  #  SUBROUTINE ROOTPSRS.   THEY MUST REMAIN WITHOUT INTERFERENCE WITH ITS SUBROUTINES WHICH ARE POWRSERS (POLY),
000355:                                                                                                  #  DMPSUB, DMPNSUB, SHORTMP, DDV/BDDV, ABS, AND USPRCADR.
000356:
000357:    0154     0142               DERCOF-8           =        MPAC       -12                        #  ROOTPSRS DER COF N-4 HI ORDER
000358:    0154     0143               DERCOF-7           =        MPAC       -11                        #  ROOTPSRS DER COF N-4 LO ORDER
000359:    0154     0144               DERCOF-6           =        MPAC       -10                        #  ROOTPSRS DER COF N-3 HI ORDER
000360:    0154     0145               DERCOF-5           =        MPAC       -7                         #  ROOTPSRS DER COF N-3 LO ORDER
000361:    0154     0146               DERCOF-4           =        MPAC       -6                         #  ROOTPSRS DER COF N-2 HI ORDER
000362:    0154     0147               DERCOF-3           =        MPAC       -5                         #  ROOTPSRS DER COF N-2 LO ORDER
000363:    0154     0150               DERCOF-2           =        MPAC       -4                         #  ROOTPSRS DER COF N-1 HI ORDER
000364:    0154     0151               DERCOF-1           =        MPAC       -3                         #  ROOTPSRS DER COF N-1 LO ORDER
000365:    0154     0152               DERCOFN            =        MPAC       -2                         #  ROOTPSRS DER COF N HI ORDER
000366:    0154     0153               DERCOF+1           =        MPAC       -1                         #  ROOTPSRS DER COF N LO ORDER
000367:
000368:    0154     0117               PWRPTR             =        POLISH                                #  ROOTPSRS POWER TABLE POINTER
000369:    0154     0124               DXCRIT             =        VBUF       +2                         #  ROOTPSRS CRITERION FOR ENDING ITERS HI
000370:    0154     0125               DXCRIT+1           =        VBUF       +3                         #  ROOTPSRS CRITERION FOR ENDING ITERS LO
000371:    0154     0126               ROOTPS             =        VBUF       +4                         #  ROOTPSRS ROOT HI ORDER
000372:    0154     0127               ROOTPS+1           =        VBUF       +5                         #  ROOTPSRS ROOT LO ORDER
000373:    0154     0132               RETROOT            =        BUF        +2                         #  ROOTPSRS RETURN ADDRESS OF USER
000374:    0154     0140               PWRCNT             =        MATINC                                #  ROOTPSRS DER TABLE LOOP COUNTER
000375:    0154     0141               DERPTR             =        TEM1                                  #  ROOTPSRS DER TABLE POINTER
000376:
000377:


000379:                                                                                                  #           DYNAMICALLY ALLOCATED CORE SETS FOR JOBS.                      (84D)
000380:
000381:    0154                        MPAC               ERASE    +6                                    #  MULTI-PURPOSE ACCUMULATOR.
000382:    0163                        MODE               ERASE                                          #  +1 FOR TP, +0 FOR DP, OR -1 FOR VECTOR.
000383:    0164                        LOC                ERASE                                          #  LOCATION ASSOCIATED WITH JOB.
000384:    0165                        BANKSET            ERASE                                          #  USUALLY CONTAINS BBANK SETTING.
000385:    0166                        PUSHLOC            ERASE                                          #  WORD OF PACKED INTERPRETIVE PARAMETERS.
000386:    0167                        PRIORITY           ERASE                                          #  PRIORITY OF PRESENT JOB AND WORK AREA.
000387:
000388:    0170                                           ERASE    +83D                                  #  EIGHT SETS OF 12 REGISTERS EACH
000389:
000390:                                                                                                  #  INCORP STORAGE: R22 (N29)     (SHARES WITH FOLLOWING SECTION)           (4D)
000391:
000392:    0314     0314               R22DISP            EQUALS   TIME2SAV                              #  I(4) N49 DISPLAY OF DELTA R AND DELTA V
000393:
000394:
000395:                                                                                                  #  STANDBY VERB ERASABLES.  REDOCTR BEFORE THETADS.                        (14D)
000396:
000397:    0314                        TIME2SAV           ERASE    +1
000398:    0316                        SCALSAVE           ERASE    +1
000399:    0320                        REDOCTR            ERASE                                          #  CONTAINS NUMBER OF RESTARTS
000400:    0321                        THETAD             ERASE    +2
000401:    0324     0321               CPHI               =        THETAD                                #  O   DESIRED GIMBAL ANGLES
000402:    0324     0322               CTHETA             =        THETAD     +1                         #  I   FOR
000403:    0324     0323               CPSI               =        THETAD     +2                         #  M   MANEUVER.
000404:    0324                        DELV               ERASE    +5
000405:    0332     0324               DELVX              =        DELV
000406:    0332     0326               DELVY              =        DELV       +2
000407:    0332     0330               DELVZ              =        DELV       +4
000408:
000409:
000410:                                                                                                  #           WAITLIST REPEAT FLAG                                           (1D)
000411:
000412:    0332                        RUPTAGN            ERASE
000413:    0333     0332               KEYTEMP2           =        RUPTAGN                               #  TEMP FOR KEYRUPT, UPRUPT
000414:
000415:                                                                                                  #           DOWNLINK STORAGE.                                              (27D)
000416:
000417:    0333     0333               DNLSTADR           EQUALS   DNLSTCOD
000418:
000419:    0333                        DNLSTCOD           ERASE                                          #  B(1)PRM DOWNLIINK LIST CODE
000420:    0334                        LDATALST           ERASE    +25D                                  #  (26D)
000421:    0366     0335               DNTMGOTO           EQUALS   LDATALST   +1                         #  B(1)
000422:    0366     0336               TMINDEX            EQUALS   DNTMGOTO   +1                         #  B(1)
000423:    0366     0336               DUMPLOC            EQUALS   TMINDEX                               #  CONTAINS ECADR OF AGC DP WORD BEING DUMP
000424:                                                                                                  #  ED AND COUNT OF COMPLETE DUMPS ALREADY S
000425:                                                                                                  #  ENT.
000426:    0366     0337               DNQ                EQUALS   TMINDEX    +1                         #  B(1)


000428:    0366     0340               DNTMBUFF           EQUALS   DNQ        +1                         #  B(22)PRM DOWNLINK SNAPSHOT BUFFER
000429:
000430:
000431:                                                                                                  #           UNSWITCHED FOR DISPLAY INTERFACE ROUTINES.                     (10D) FIVE MORE IN EBANK 2
000432:
000433:    0366                        RESTREG            ERASE                                          #  B(1)PRM FOR DISPLAY RESTARTS
000434:    0367                        NVWORD             ERASE
000435:    0370                        MARKNV             ERASE
000436:    0371                        NVSAVE             ERASE
000437:                                                                                                  #                  (RETAIN THE ORDER OF CADRFLSH TO FAILREG +2 FOR DOWNLINK PURPOSES)
000438:    0372                        CADRFLSH           ERASE
000439:    0373                        CADRMARK           ERASE
000440:    0374                        TEMPFLSH           ERASE
000441:    0375                        FAILREG            ERASE    +2                                    #  B(3)PRM 3 ALARM CODE REGISTERS
000442:
000443:                                                                                                  #           VAC AREAS. -BE CAREFUL OF PLACEMENT-                           (220D)
000444:
000445:    0400                        VAC1USE            ERASE
000446:    0401                        VAC1               ERASE    +42D
000447:    0454                        VAC2USE            ERASE
000448:    0455                        VAC2               ERASE    +42D
000449:    0530                        VAC3USE            ERASE
000450:    0531                        VAC3               ERASE    +42D
000451:    0604                        VAC4USE            ERASE
000452:    0605                        VAC4               ERASE    +42D
000453:    0660                        VAC5USE            ERASE
000454:    0661                        VAC5               ERASE    +42D
000455:
000456:
000457:                                                                                                  #           STARALIGN ERASABLES.                                           (13D)
000458:
000459:    0734                        STARCODE           ERASE                                          #  (1)
000460:    0735     0734               AOTCODE            =        STARCODE
000461:    0735                        STARALGN           ERASE    +11D
000462:    0751     0735               SINCDU             =        STARALGN
000463:    0751     0743               COSCDU             =        STARALGN   +6
000464:
000465:    0751     0741               SINCDUX            =        SINCDU     +4
000466:    0751     0735               SINCDUY            =        SINCDU
000467:    0751     0737               SINCDUZ            =        SINCDU     +2
000468:    0751     0747               COSCDUX            =        COSCDU     +4
000469:    0751     0743               COSCDUY            =        COSCDU
000470:    0751     0745               COSCDUZ            =        COSCDU     +2
000471:
000472:
000473:                                                                                                  #           PHASE TABLE AND RESTART COUNTERS.                              (12D)
000474:
000475:    0751                        -PHASE1            ERASE
000476:    0752                        PHASE1             ERASE
000477:    0753                        -PHASE2            ERASE


000479:    0754                        PHASE2             ERASE
000480:    0755                        -PHASE3            ERASE
000481:    0756                        PHASE3             ERASE
000482:    0757                        -PHASE4            ERASE
000483:    0760                        PHASE4             ERASE
000484:    0761                        -PHASE5            ERASE
000485:    0762                        PHASE5             ERASE
000486:    0763                        -PHASE6            ERASE
000487:    0764                        PHASE6             ERASE
000488:
000489:
000490:                                                                                                  #           A**SR*T STORAGE.                                               (6D)
000491:
000492:    0765                        CDUSPOT            ERASE    +5                                    #  B(6)
000493:
000494:    0773     0765               CDUSPOTY           =        CDUSPOT
000495:    0773     0767               CDUSPOTZ           =        CDUSPOT    +2
000496:    0773     0771               CDUSPOTX           =        CDUSPOT    +4
000497:
000498:
000499:                                                                                                  #           VERB 37 STORAGE.                                               (2D)
000500:
000501:    0773                        MINDEX             ERASE                                          #  B(1) TMP INDEX FOR MAJOR MODE
000502:    0774                        MMNUMBER           ERASE                                          #  B(1) TMP MAJOR MODE REQUESTED BY V37
000503:
000504:
000505:                                                                                                  #           PINBALL INTERRUPT ACTION.                                      (1D)
000506:
000507:    0775                        DSPCNT             ERASE                                          #  B(1)PRM COUNTER FOR DSPOUT.
000508:
000509:
000510:                                                                                                  #           PINBALL EXECUTIVE ACTION                                       (44D)
000511:
000512:    0776                        DSPCOUNT           ERASE                                          #  DISPLAY POSITION INDICATOR.
000513:    0777                        DECBRNCH           ERASE                                          #  +DEC, - DEC, OCT INDICATOR
000514:    1000                        VERBREG            ERASE                                          #  VERB CODE
000515:    1001                        NOUNREG            ERASE                                          #  NOUN CODE
000516:    1002                        XREG               ERASE                                          #  R1 INPUT BUFFER
000517:    1003                        YREG               ERASE                                          #  R2 INPUT BUFFER
000518:    1004                        ZREG               ERASE                                          #  R3 INPUT BUFFER
000519:    1005                        XREGLP             ERASE                                          #  LO PART OF XREG (FOR DEC CONV ONLY)
000520:    1006                        YREGLP             ERASE                                          #  LO PART OF YREG (FOR DEC CONV ONLY)
000521:    1007     1006               HITEMOUT           =        YREGLP                                #  TEMP FOR DISPLAY OF HRS, MIN, SEC
000522:                                                                                                  #           MUST = LOTEMOUT-1.
000523:    1007                        ZREGLP             ERASE                                          #  LO PART OF ZREG (FOR DEC CONV ONLY)
000524:    1010     1007               LOTEMOUT           =        ZREGLP                                #  TEMP FOR DISPLAY OF HRS, MIN, SEC
000525:                                                                                                  #           MUST = HITEMOUT+1.
000526:    1010                        MODREG             ERASE                                          #  MODE CODE
000527:    1011                        DSPLOCK            ERASE                                          #  KEYBOARD/SUBROUTINE CALL INTERLOCK
000528:    1012                        REQRET             ERASE                                          #  RETURN REGISTER FOR LOAD


000530:    1013                        LOADSTAT           ERASE                                          #  STATUS INDICATOR FOR LOADTST
000531:    1014                        CLPASS             ERASE                                          #  PASS INDICATOR CLEAR
000532:    1015                        NOUT               ERASE                                          #  ACTIVITY COUNTER FOR DSPTAB
000533:    1016                        NOUNCADR           ERASE                                          #  MACHINE CADR FOR NOUN
000534:    1017                        MONSAVE            ERASE                                          #  N/V CODE FOR MONITOR. (= MONSAVE1-1)
000535:    1020                        MONSAVE1           ERASE                                          #  NOUNCADR FOR MONITOR(MATBS) =MONSAVE +1
000536:    1021                        MONSAVE2           ERASE                                          #  NVMONOPT OPTIONS
000537:    1022                        DSPTAB             ERASE    +11D                                  #  0-10D, DISPLAY PANEL BUFF. 11D, C/S LTS.
000538:    1036                        NVQTEM             ERASE                                          #  NVSUB STORAGE FOR CALLING ADDRESS
000539:                                                                                                  #  MUST = NVBNKTEM-1
000540:    1037                        NVBNKTEM           ERASE                                          #  NVSUB STORAGE FOR CALLING BANK
000541:                                                                                                  #  MUST = NVQTEM+1
000542:    1040                        VERBSAVE           ERASE                                          #  NEEDED FOR RECYCLE
000543:    1041                        CADRSTOR           ERASE                                          #  ENDIDLE STORAGE
000544:    1042                        DSPLIST            ERASE                                          #  WAITING REG FOR DSP SYST INTERNAL USE
000545:    1043                        EXTVBACT           ERASE                                          #  EXTENDED VERB ACTIVITY INTERLOCK
000546:    1044                        DSPTEM1            ERASE    +2                                    #  BUFFER STORAGE AREA 1 (MOSTLY FOR TIME)
000547:    1047                        DSPTEM2            ERASE    +2                                    #  BUFFER STORAGE AREA 2 (MOSTLY FOR DEG)
000548:
000549:
000550:    1052     1050               DSPTEMX            EQUALS   DSPTEM2    +1                         #  B(2) S-S DISPLAY BUFFER FOR EXT. VERBS
000551:    1052     1044               NORMTEM1           EQUALS   DSPTEM1                               #  B(3)DSP NORMAL DISPLAY REGISTERS.
000552:
000553:
000554:
000555:                                                                                                  #           DISPLAY FOR EXTENDED VERBS (V82, R04(V62), V41(N72) )          (2D)
000556:
000557:    1052     1050               OPTIONX            EQUALS   DSPTEMX                               #  (2) EXTENDED VERB OPTION CODE
000558:
000559:
000560:                                                                                                  #           TBASES AND PHSPRDT S.                                          (12D)
000561:
000562:    1052                        TBASE1             ERASE
000563:    1053                        PHSPRDT1           ERASE
000564:    1054                        TBASE2             ERASE
000565:    1055                        PHSPRDT2           ERASE
000566:    1056                        TBASE3             ERASE
000567:    1057                        PHSPRDT3           ERASE
000568:    1060                        TBASE4             ERASE
000569:    1061                        PHSPRDT4           ERASE
000570:    1062                        TBASE5             ERASE
000571:    1063                        PHSPRDT5           ERASE
000572:    1064                        TBASE6             ERASE
000573:    1065                        PHSPRDT6           ERASE
000574:
000575:
000576:                                                                                                  #           UNSWITCHED FOR DISPLAY INTERFACE ROUTINES.                     (6D)
000577:
000578:    1066                        NVWORD1            ERASE                                          #  B(1)PROBABLY FOR DISPLAY DURING SERVICER
000579:    1067                        EBANKSAV           ERASE


000581:    1070                        MARKEBAN           ERASE
000582:    1071                        EBANKTEM           ERASE
000583:    1072                        MARK2PAC           ERASE
000584:    1073                        R1SAVE             ERASE
000585:
000586:
000587:                                                                                                  #           IMU COMPENSATION UNSWITCHED ERASABLE.                          (1D)
000588:
000589:    1074                        1/PIPADT           ERASE
000590:
000591:
000592:                                                                                                  #           SINGLE PRECISION SUBROUTINE TEMPORARIES.                       (2D)
000593:
000594:    1075                        TEMK               ERASE                                          #  (1)
000595:    1076                        SQ                 ERASE                                          #  (1)
000596:
000597:
000598:                                                                                                  #           UNSWITCHED RADAR ERASABLE                                      (13D)
000599:
000600:    1077                        SAMPLIM            ERASE
000601:    1100                        SAMPLSUM           ERASE    +3
000602:    1104                        TIMEHOLD           ERASE    +1
000603:    1106     1100               RRTARGET           EQUALS   SAMPLSUM                              #  HALF U IT VECTOR IN SM OR NB AXES.
000604:    1106                        TANG               ERASE    +1                                    #  DESIRE  TRUNNION AND SHAFT ANGLES.
000605:    1110     1106               MODEA              EQUALS   TANG
000606:    1110                        MODEB              ERASE    +1                                    #  DODES  LOBBERS TANG +2.
000607:    1112     1110               NSAMP              EQUALS   MODEB
000608:    1112                        DESRET             ERASE
000609:    1113     1112               OLDATAGD           EQUALS   DESRET                                #  USED I  DATA READING ROUTINES.
000610:    1113                        DESCOUNT           ERASE
000611:
000612:
000613:                                                                                                  #           ******   P22   ******                                          (6D)
000614:
000615:    1114     1100               RSUBC              EQUALS   RRTARGET                              #  I(6)S-S  CSM POSITION VECTOR
000616:
000617:


000619:                                                                                                  #           UNSWITCHED FOR ORBIT INTEGRATION.                              (21D)
000620:
000621:    1114                        TDEC               ERASE    +20D                                  #  I(2)
000622:    1141     1116               COLREG             EQUALS   TDEC       +2                         #  I(1)
000623:    1141     1117               LAT                EQUALS   COLREG     +1                         #  I(2)
000624:    1141     1121               LONG               EQUALS   LAT        +2                         #  I(2)
000625:    1141     1123               ALT                EQUALS   LONG       +2                         #  I(2)
000626:    1141     1125               YV                 EQUALS   ALT        +2                         #  I(6)
000627:    1141     1133               ZV                 EQUALS   YV         +6                         #  I(6)
000628:
000629:
000630:                                                                                                  #           MISCELLANEOUS UNSWITCHED.                                      (20D)
000631:
000632:    1141                        P40/RET            ERASE                                          #  (WILL BE PUT IN E6 WHEN THERE IS ROOM)
000633:    1142                        GENRET             ERASE                                          #  B(1)  R61 RETURN CADR.
000634:    1143                        OPTION1            ERASE                                          #  B(1)   NOUN 06 USES THIS
000635:    1144                        OPTION2            ERASE                                          #  B(1)   NOUN 06 USES THIS
000636:    1145                        OPTION3            ERASE                                          #  B(1)  NOUN 06 USES THIS
000637:    1146                        LONGCADR           ERASE    +1                                    #  B(2)  LONGCALL REGISTER
000638:    1150                        LONGBASE           ERASE    +1
000639:    1152                        LONGTIME           ERASE    +1                                    #  B(2)    LONGCALL REGISTER
000640:    1154                        CDUTEMPX           ERASE                                          #  B(1)TMP
000641:    1155                        CDUTEMPY           ERASE                                          #  B(1)TMP
000642:    1156                        CDUTEMPZ           ERASE                                          #  B(1)TMP
000643:    1157                        PIPATMPX           ERASE                                          #  B(1)TMP
000644:    1160                        PIPATMPY           ERASE                                          #  B(1)TMP
000645:    1161                        PIPATMPZ           ERASE                                          #  B(1)TMP
000646:
000647:    1162                        DISPDEX            ERASE                                          #  B(1)
000648:    1163                        TEMPR60            ERASE                                          #  B(1)
000649:    1164                        PRIOTIME           ERASE                                          #  B(1)
000650:
000651:                                                                                                  #  P27  (UPDATE PROGRAM ) STORAGE.                                         (26D)
000652:
000653:    1165                        UPVERBSV           ERASE                                          #  B(1) UPDATE VERB ATTEMPTED.
000654:    1166                        UPTEMP             ERASE    +24D                                  #  B(1)TMP SCRATCH
000655:    1217     1166               INTWAK1Q           EQUALS   UPTEMP                                #      (BORROWS UPTEMP REGISTERS)
000656:                                                                                                  #  RETAIN THE ORDER OF COMPNUMB THRU UPBUFF +19D FOR DOWNLINK PURPOSES.
000657:    1217     1167               COMPNUMB           EQUALS   UPTEMP     +1                         #  B(1)TMP NUMBER OF ITEMS TO BE UPLINKED
000658:    1217     1170               UPOLDMOD           EQUALS   COMPNUMB   +1                         #  B(1)TMP INTERRUPTED PROGRAM MM
000659:    1217     1171               UPVERB             EQUALS   UPOLDMOD   +1                         #  B(1)TMP VERB NUMBER
000660:    1217     1172               UPCOUNT            EQUALS   UPVERB     +1                         #  B(1)TMP UPBUFF INDEX
000661:    1217     1173               UPBUFF             EQUALS   UPCOUNT    +1                         #  B(20D)
000662:
000663:
000664:                                                                                                  #           SPECIAL DEFINITION FOR SYSTEM TEST ERASABLE PGMS.              (2D)
000665:
000666:    1217     1166               EBUF2              EQUALS   UPTEMP                                #  B(2) FOR EXCLUSIVE USE OF SYSTEM TEST
000667:


000669:                                                                                                  #           PERM STATE VECTORS FOR BOOST AND DOWNLINK-WHOLE MISSION-       (14D)
000670:
000671:    1217                        RN                 ERASE    +5                                    #  B(6)PRM
000672:    1225                        VN                 ERASE    +5                                    #  B(6)PRM
000673:    1233                        PIPTIME            ERASE    +1                                    #  B(2)PRM  (MUST BE FOLLOWED BY GDT/2)
000674:
000675:
000676:                                                                                                  #           SERVICER   -MUST FOLLOW PIPTIME-                               (18D)
000677:
000678:    1235                        GDT/2              ERASE    +17D                                  #  B(6)TMP  ** MUST FOLLOW PIPTIME **
000679:    1257     1243               MASS               EQUALS   GDT/2      +6                         #  B(2)
000680:    1257     1243               WEIGHT/G           =        MASS
000681:    1257     1245               ABDELV             EQUALS   MASS       +2                         #  ALCMANU STORAGE)
000682:    1257     1246               PGUIDE             EQUALS   ABDELV     +1                         #  (2)
000683:    1257     1250               DVTHRUSH           EQUALS   PGUIDE     +2                         #  (1)
000684:    1257     1251               AVEGEXIT           EQUALS   DVTHRUSH   +1                         #   (2)
000685:    1257     1251               AVGEXIT            =        AVEGEXIT
000686:    1257     1253               TEMX               EQUALS   AVEGEXIT   +2                         #   (1)
000687:    1257     1254               TEMY               EQUALS   TEMX       +1                         #   (1)
000688:    1257     1255               TEMZ               EQUALS   TEMY       +1                         #   (1)
000689:    1257     1256               PIPAGE             EQUALS   TEMZ       +1                         #  B(1)
000690:
000691:
000692:
000693:                                                                                                  #           PERMANENT LEM DAP STORAGE.                                     (6D)
000694:
000695:    1257                        CH5MASK            ERASE                                          #  B(1)PRM
000696:    1260                        CH6MASK            ERASE                                          #  B(1)PRM JET FAILURE MASK.
000697:    1261                        SPNDX              ERASE                                          #  B(1)
000698:    1262                        RCSFLAGS           ERASE                                          #  AUTOPILOT FLAG WORD
000699:                                                                                                  #  BIT ASSIGNMENTS:
000700:                                                                                                  #   1) ALTERYZ SWITCH (ZEROOR1)
000701:                                                                                                  #   2) NEEDLER SWITCH
000702:                                                                                                  #   3) NEEDLER SWITCH
000703:                                                                                                  #   4) NEEDLER SWITCH
000704:                                                                                                  #   5) NEEDLER SWITCH
000705:                                                                                                  #   9) JUST-IN-DETENT SWITCH
000706:                                                                                                  #  10) PBIT - MANUAL CONTROL SWITCH
000707:                                                                                                  #  11) QRBIT - MANUAL CONTROL SWITCH
000708:                                                                                                  #  12) PSKIP CONTROL (PJUMPADR)
000709:                                                                                                  #  13) 1/ACCJOB CONTROL (ACCSET)
000710:    1263                        T5ADR              ERASE    +1                                    #  GENADR OF NEXT LM DAP T5RUPT. * 2CADR *
000711:                                                                                                  #  BBCON  OF NEXT LM DAP T5RUPT.   2CADR
000712:
000713:
000714:                                                                                                  #           ERASABLES FOR RADAR READ PROTECTION (C13STALL)                 (4D)
000715:
000716:    1265                        C13QSAV            ERASE                                          #  B(1) QSAVE FOR C13STALL USERS.
000717:    1266                        C13FSAV            ERASE                                          #  B(1) FBANK SAVE FOR C13STALL.
000718:    1267                        RADTIME            ERASE                                          #  B(1) NEG. TIME OF SCALAR READ.


000720:    1270                        RADDEL             ERASE                                          #  B(1) DELTA TIME FROM SCALAR READ TO T5.
000721:
000722:
000723:                                                                                                  #           RADAREAD STORAGE                                               (2D)
000724:
000725:    1271                        TTOTIG             ERASE    +1                                    #  B(2) LATEST ESTIMATE OF TIME TO IGNITION
000726:
000727:
000728:                                                                                                  #           RCS FAILURE MONITOR STORAGE                                    (1)
000729:    1273                        PVALVEST           ERASE                                          #  B(1) PRM
000730:
000731:                                                                                                  #           KALCMANU/DAP INTERFACE.                                        (3D)
000732:
000733:    1274                        DELPEROR           ERASE                                          #  B(1)PRM COMMAND LAGS.
000734:    1275                        DELQEROR           ERASE                                          #  B(1)PRM
000735:    1276                        DELREROR           ERASE                                          #  B(1)PRM
000736:
000737:
000738:                                                                                                  #           MODE SWITCHING ERASABLE.                                       (9D)
000739:
000740:                                                                                                  #     RETAIN THE ORDER OF IMODES30 AND IMODES33 FOR DOWNLINK PURPOSES.
000741:    1277                        IMODES30           ERASE                                          #  B(1)
000742:    1300                        IMODES33           ERASE
000743:    1301                        MODECADR           ERASE    +2                                    #  B(3)PRM
000744:    1304     1301               IMUCADR            EQUALS   MODECADR
000745:    1304     1302               OPTCADR            EQUALS   MODECADR   +1
000746:    1304     1303               RADCADR            EQUALS   MODECADR   +2
000747:    1304                        ATTCADR            ERASE    +2                                    #  B(3)PRM
000748:    1307     1306               ATTPRIO            =        ATTCADR    +2
000749:    1307                        MARKSTAT           ERASE
000750:
000751:                                                                                                  #           T4RUPT ERASABLE.                                               (2D)
000752:
000753:    1310                        DSRUPTSW           ERASE
000754:    1311                        LGYRO              ERASE                                          #  (1)
000755:
000756:                                                                                                  #           RENDEZVOUS RADAR TASK STORAGE                                  (3D)
000757:
000758:    1312                        RRRET              ERASE    +2D                                   #  B(1)TMP  P20'S, PERHAPS R29 & R12
000759:    1315     1313               RDES               EQUALS   RRRET      +1                         #  B(1)TMP
000760:    1315     1314               RRINDEX            EQUALS   RDES       +1                         #  B(1)TMP
000761:
000762:
000763:
000764:                                                                                                  #           MEASINC                                                        (4D)
000765:
000766:    1315                        WIXA               ERASE                                          #  B(1)
000767:    1316                        WIXB               ERASE                                          #  B(1)
000768:    1317                        ZIXA               ERASE                                          #  B(1)


000770:    1320                        ZIXB               ERASE                                          #  B(1)
000771:
000772:                                                                                                  #           AGS DUMMY ID WORD.                                             (1D)
000773:
000774:    1321                        AGSWORD            ERASE
000775:
000776:                                                                                                  #           SOME MISCELLANEOUS UNSWITCHED.                                 (6D)
000777:
000778:    1322                        RATEINDX           ERASE                                          #   (1)    USED BY KALCMANU
000779:    1323                        DELAYLOC           ERASE    +2
000780:    1326                        LEMMASS            ERASE                                          #  KEEP CONTIGUOUS W.  CSMMASS  (1)EACH
000781:    1327                        CSMMASS            ERASE
000782:                                                                                                  #  LESS IS MORE.
000783:
000784:                                                                                                  #           RENDEZVOUS AND LANDING RADAR DOWNLINK STORAGE.                 (7D)
000785:
000786:                                                                                                  #                  (NORMALLY USED DURING P20, BUT MAY ALSO)
000787:                                                                                                  #                  (BE REQUIRED FOR THE V62 SPURIOUS TEST.)
000788:
000789:                                                                                                  #                                  (PLEASE KEEP IN THIS ORDER)
000790:
000791:    1330                        DNRRANGE           ERASE    +6                                    #  B(1) TMP
000792:    1337     1331               DNRRDOT            EQUALS   DNRRANGE   +1                         #  B(1)TMP
000793:    1337     1332               DNINDEX            EQUALS   DNRRDOT    +1                         #  B(1)TMP
000794:    1337     1333               DNLRVELX           EQUALS   DNINDEX    +1                         #  B(1)TMP
000795:    1337     1334               DNLRVELY           EQUALS   DNLRVELX   +1                         #  B(1)TMP
000796:    1337     1335               DNLRVELZ           EQUALS   DNLRVELY   +1                         #  B(1)TMP
000797:    1337     1336               DNLRALT            EQUALS   DNLRVELZ   +1                         #  B(1) TMP
000798:
000799:                                                                                                  #           INCORPORATION UNSWITCHED.                                      (2D)
000800:
000801:    1337     1256               W.IND              EQUALS   PIPAGE                                #  B(1)
000802:    1337     1257               W.INDI             EQUALS   W.IND      +1                         #  I(1)
000803:
000804:
000805:                                                                                                  #           SUBROUTINE BALLANGS OF R60.                                    (1D)
000806:
000807:    1337                        BALLEXIT           ERASE                                          #  B(1)SAVE LOCATION FOR BALLINGS SUBR EXIT
000808:
000809:
000810:                                                                                                  #           SOME LEM DAP STORAGE.                                          (4D)
000811:
000812:    1340                        DAPDATR1           ERASE                                          #  B(1)DSP DAP CONFIG.
000813:    1341                        TEVENT             ERASE    +1                                    #  B(2)DSP
000814:    1343                        DB                 ERASE                                          #  B(1)TMP DEAD BAND.
000815:
000816:
000817:
000818:                                                                                                  #           NOUN 87                                                        (2D)


000820:    1344                        AZ                 ERASE    +1D                                   #  B(1)  AZ AND EL MUST BE CONTIGUOUS
000821:    1346     1345               EL                 EQUALS   AZ         +1D                        #  B(1)
000822:
000823:
000824:                                                                                                  #           P63, P64, P65, P66, AND P67.                                   (1D)
000825:    1346                        WCHPHASE           ERASE                                          #  B(1)
000826:
000827:
000828:                                                                                                  #           PADLOADS FOR R2 LUNAR POTENTIAL MODEL.                         (2D)
000829:
000830:    1347                        E3J22R2M           ERASE                                          #  I(1)
000831:    1350                        E32C31RM           ERASE                                          #  I(1)
000832:
000833:
000834:                                                                                                  #           PADLOADS FOR R12 DOPPLER COMPENSATION                          (3D)
000835:
000836:    1351                        RADSKAL            ERASE    +1                                    #  LR ALT DOPPLER BIAS : 2T/LAMBDA SCALED
000837:                                                                                                  #      AT 1/(2(7) M/CS)
000838:    1353                        SKALSKAL           ERASE                                          #  LR ALT SCALE FACTOR RATIO : .2 NOM
000839:
000840:
000841:
000842:                                                                                                  #           ERASABLES FOR TRUNNION AND SHAFT COMMANDS                      (2D)
000843:
000844:    1354                        TRUNNCMD           ERASE                                          #  *** THESE TWO ERASABLES ***
000845:    1355                        SHAFTCMD           ERASE                                          #  *** MUST BE IN ORDER ***
000846:
000847:
000848:                                                                                                  #           ERASABLE FOR REGISTER 3 OF NOUN 49                             (1D)
000849:
000850:    1356                        WHCHREAD           ERASE                                          #  B(1)TMP MEASUREMENT BEING PROCESSED.
000851:
000852:
000853:    1357                        END-UE             EQUALS   1377
000854:
000855:                                                                                                  #           SELF-CHECK ASSIGNMENTS.                                        (17D)
000856:
000857:                                                                                                  #                                  (DO NOT MOVE, S-C IS ADDRESS SENSITIVE)
000858:
000859:    1357                        SELFERAS           ERASE    1357       -          1377            #  *** MUST NOT BE MOVED ***
000860:    1357     1357               SFAIL              EQUALS   SELFERAS                              #  B(1)
000861:    1357     1360               ERESTORE           EQUALS   SFAIL      +1                         #  B(1)
000862:    1357     1361               SELFRET            EQUALS   ERESTORE   +1                         #  B(1)  RETURN
000863:    1357     1362               SMODE              EQUALS   SELFRET    +1                         #  B(1)
000864:    1357     1363               ALMCADR            EQUALS   SMODE      +1                         #  B(2) ALARM-ABORT USER'S 2CADR
000865:    1357     1365               ERCOUNT            EQUALS   ALMCADR    +2                         #  B(1)
000866:    1357     1366               SCOUNT             EQUALS   ERCOUNT    +1                         #  B(3)
000867:    1357     1371               SKEEP1             EQUALS   SCOUNT     +3                         #  B(1)
000868:    1357     1372               SKEEP2             EQUALS   SKEEP1     +1                         #  B(1)
000869:    1357     1373               SKEEP3             EQUALS   SKEEP2     +1                         #  B(1)


000871:    1357     1374               SKEEP4             EQUALS   SKEEP3     +1                         #  B(1)
000872:    1357     1375               SKEEP5             EQUALS   SKEEP4     +1                         #  B(1)
000873:    1357     1376               SKEEP6             EQUALS   SKEEP5     +1                         #  B(1)
000874:    1357     1377               SKEEP7             EQUALS   SKEEP6     +1                         #  B(1)
000875:


000877:                                                                                                  #                  EBANK-3 ASSIGNMENTS
000878:
000879: E3,1400                                           SETLOC   1400
000880:
000881:                                                                                                  #           WAITLIST TASK LISTS.                                           (26D)
000882:
000883: E3,1400                        LST1               ERASE    +7                                    #  B(8D)PRM  DELTA T S.
000884: E3,1410                        LST2               ERASE    +17D                                  #  B(18D)PRM TASK 2CADR ADDRESSES.
000885:
000886:
000887:                                                                                                  #           RESTART STORAGE.                                               (2D)
000888:
000889: E3,1432                        RSBBQ              ERASE    +1                                    #  B(2)PRM SAVE BB AND Q FOR RESTARTS.
000890:
000891:
000892:                                                                                                  #           MORE LONGCALL STORAGE.(MUST BE IN LST1 S BANK.                 (2D)
000893:
000894: E3,1434                        LONGEXIT           ERASE    +1                                    #  B(2)TMP MAY BE SELDOM OVERLAYED.
000895:
000896:
000897:                                                                                                  #           PHASE-CHANGE LISTS PART II.                                    (12D)
000898:
000899: E3,1436                        PHSNAME1           ERASE                                          #  B(1)PRM
000900: E3,1437                        PHSBB1             ERASE                                          #  B(1)PRM
000901: E3,1440                        PHSNAME2           ERASE                                          #  B(1)PRM
000902: E3,1441                        PHSBB2             ERASE                                          #  B(1)PRM
000903: E3,1442                        PHSNAME3           ERASE                                          #  B(1)PRM
000904: E3,1443                        PHSBB3             ERASE                                          #  B(1)PRM
000905: E3,1444                        PHSNAME4           ERASE                                          #  B(1)PRM
000906: E3,1445                        PHSBB4             ERASE                                          #  B(1)PRM
000907: E3,1446                        PHSNAME5           ERASE                                          #  B(1)PRM
000908: E3,1447                        PHSBB5             ERASE                                          #  B(1)PRM
000909: E3,1450                        PHSNAME6           ERASE                                          #  B(1)PRM
000910: E3,1451                        PHSBB6             ERASE                                          #  B(1)PRM
000911:
000912:
000913:                                                                                                  #           IMU COMPENSATION PARAMETERS.                                   (22D)
000914:
000915: E3,1452                        PBIASX             ERASE                                          #  B(1)   PIPA BIAS, PIPA SCALE FACTR TERMS
000916: E3,1453  E3,1452               PIPABIAS           =        PBIASX                                #      INTERMIXED.
000917: E3,1453                        PIPASCFX           ERASE
000918: E3,1454  E3,1453               PIPASCF            =        PIPASCFX
000919: E3,1454                        PBIASY             ERASE
000920: E3,1455                        PIPASCFY           ERASE
000921: E3,1456                        PBIASZ             ERASE
000922: E3,1457                        PIPASCFZ           ERASE
000923:
000924: E3,1460                        NBDX               ERASE                                          #  GYRO BIAS DRIFTS
000925: E3,1461                        NBDY               ERASE
000926: E3,1462                        NBDZ               ERASE


000928: E3,1463                        ADIAX              ERASE                                          #  ACCELERATION SENSITIVE DRIFT ALONG THE
000929: E3,1464                        ADIAY              ERASE                                          #      INPUT AXIS
000930: E3,1465                        ADIAZ              ERASE
000931:
000932: E3,1466                        ADSRAX             ERASE                                          #  ACCELERATION SENSITIVE DRIFT ALONG THE
000933: E3,1467                        ADSRAY             ERASE                                          #      SPIN REFERENCE AXIS
000934: E3,1470                        ADSRAZ             ERASE
000935:
000936: E3,1471                        GCOMP              ERASE    +5                                    #  CONTAINS COMPENSATING TORQUES
000937:
000938: E3,1477  E3,1471               COMMAND            EQUALS   GCOMP
000939: E3,1477  E3,1474               CDUIND             EQUALS   GCOMP      +3
000940:
000941:
000942: E3,1477                        GCOMPSW            ERASE
000943:
000944:
000945:
000946:                                                                                                  #           STATE VECTORS FOR ORBIT INTEGRATION.                           (44D)
000947:
000948:                                                                                                  #                                  (DIFEQCNT THRU XKEP MUST BE IN SAME
000949:                                                                                                  #                                    EBANK AS RRECTCSM, RRECTLEM ETC
000950:                                                                                                  #                                    BECAUSE THE COPY-CYCLES (ATOPCSM,
000951:                                                                                                  #                                    PTOACSM ETC) ARE EXECUTED IN BASIC.
000952:                                                                                                  #                                      ALL OTHER REFERENCES TO THIS GROUP
000953:                                                                                                  #                                    ARE BY INTERPRETIVE INSTRUCTIONS.)
000954:
000955: E3,1500                        DIFEQCNT           ERASE    +43D                                  #  B(1)
000956:                                                                                                  #                                  (UPSVFLAG...XKEP MUST BE KEPT IN ORDER)
000957:
000958: E3,1554  E3,1501               UPSVFLAG           EQUALS   DIFEQCNT   +1                         #  B(1)
000959: E3,1554  E3,1502               RRECT              EQUALS   UPSVFLAG   +1                         #  B(6)
000960: E3,1554  E3,1510               VRECT              EQUALS   RRECT      +6                         #  B(6)
000961: E3,1554  E3,1516               TET                EQUALS   VRECT      +6                         #  B(2)
000962: E3,1554  E3,1520               TDELTAV            EQUALS   TET        +2                         #  B(6)
000963: E3,1554  E3,1526               TNUV               EQUALS   TDELTAV    +6                         #  B(6)
000964: E3,1554  E3,1534               RCV                EQUALS   TNUV       +6                         #  B(6)
000965: E3,1554  E3,1542               VCV                EQUALS   RCV        +6                         #  B(6)
000966: E3,1554  E3,1550               TC                 EQUALS   VCV        +6                         #  B(2)
000967: E3,1554  E3,1552               XKEP               EQUALS   TC         +2                         #  B(2)
000968:
000969:                                                                                                  #           PERMANENT STATE VECTORS AND TIMES.                             (99D)
000970:
000971:                                                                                                  #           (DO NOT OVERLAY WITH ANYTHING AFTER BOOST)
000972:
000973:                                                                                                  #           (RRECTCSM ...XKEPCSM MUST BE KEPT IN THIS ORDER)
000974:
000975: E3,1554                        RRECTCSM           ERASE    +5                                    #  B(6)PRM CSM VARIABLES.
000976: E3,1562  E3,1554               RRECTOTH           =        RRECTCSM
000977: E3,1562                        VRECTCSM           ERASE    +5                                    #  B(6)PRM


000979: E3,1570                        TETCSM             ERASE    +1                                    #  B(2)PRM
000980: E3,1572  E3,1570               TETOTHER           =        TETCSM
000981: E3,1572                        DELTACSM           ERASE    +5                                    #  B(6)PRM
000982: E3,1600                        NUVCSM             ERASE    +5                                    #  B(6)PRM
000983: E3,1606                        RCVCSM             ERASE    +5                                    #  B(6)PRM
000984: E3,1614                        VCVCSM             ERASE    +5                                    #  B(6)PRM
000985: E3,1622                        TCCSM              ERASE    +1                                    #  B(2)PRM
000986: E3,1624                        XKEPCSM            ERASE    +1                                    #  B(2)PRM
000987:
000988:                                                                                                  #           (RRECTLEM ...XKEPLEM MUST BE KEPT IN THIS ORDER)
000989:
000990: E3,1626                        RRECTLEM           ERASE    +5                                    #  B(6)PRM LEM VARIABLES
000991: E3,1634  E3,1626               RRECTHIS           =        RRECTLEM
000992: E3,1634                        VRECTLEM           ERASE    +5                                    #  B(6)PRM
000993: E3,1642                        TETLEM             ERASE    +1                                    #  B(2)PRM
000994: E3,1644  E3,1642               TETTHIS            =        TETLEM
000995: E3,1644                        DELTALEM           ERASE    +5                                    #  B(6)PRM
000996: E3,1652                        NUVLEM             ERASE    +5                                    #  B(6)PRM
000997: E3,1660                        RCVLEM             ERASE    +5                                    #  B(6)PRM
000998: E3,1666                        VCVLEM             ERASE    +5                                    #  B(6)PRM
000999: E3,1674                        TCLEM              ERASE    +1                                    #  B(2)PRM
001000: E3,1676                        XKEPLEM            ERASE    +1                                    #  B(2)PRM
001001:
001002: E3,1700                        X789               ERASE    +5
001003: E3,1706                        TEPHEM             ERASE    +2
001004: E3,1711                        AZO                ERASE    +1
001005: E3,1713                        -AYO               ERASE    +1
001006: E3,1715                        AXO                ERASE    +1
001007:
001008:
001009:
001010:                                                                                                  #           STATE VECTORS FOR DOWNLINK.                                    (12D)
001011:
001012: E3,1717                        R-OTHER            ERASE    +5                                    #  B(6)PRM POS VECT (OTHER VECH) FOR DNLINK
001013: E3,1725                        V-OTHER            ERASE    +5                                    #  B(6)PRM VEL VECT (OTHER VECH) FOR DNLINK
001014:
001015: E3,1733  E3,1570               T-OTHER            =        TETCSM                                #              TIME (OTHER VECH) FOR DNLINK
001016:
001017:
001018:                                                                                                  #           REFSMMAT.                                                      (18D)
001019:
001020: E3,1733                        REFSMMAT           ERASE    +17D                                  #  I(18D)PRM
001021:
001022:                                                                                                  #           ACTIVE VEHICLE CENTANG.  MUST BE DISPLAYED ANYTIME (ALMOST.)   (2D)
001023:
001024: E3,1755                        ACTCENT            ERASE    +1                                    #  I(2) S-S CENTRAL ANGLE BETWEEN ACTIVE
001025:                                                                                                  #   VEHICLE AT TPI TIG AND TARGET VECTOR.
001026:
001027:                                                                                                  #        **** USED IN CONICSEX (PLAN INERT ORIENT) ****


001029: E3,1757  E3,1706               TIMSUBO            EQUALS   TEPHEM                                #  CSEC B-42 (TRIPLE PRECISION)
001030:
001031:
001032:                                                                                                  #           LPS20.1 STORAGE    -ALL ARE PRM -                              (9D)
001033:
001034: E3,1757                        LS21X              ERASE                                          #  I(1)
001035: E3,1760                        LOSVEL             ERASE    +5                                    #  I(6)
001036: E3,1766                        MLOSV              ERASE    +1                                    #  I(2) MAGNITUDE OF LOS, METERS B-29
001037:
001038:
001039:                                                                                                  #       ***** P22 ***** (OVERLAYS LPS 20.1 STORAGE)                        (6D)
001040: E3,1770  E3,1760               VSUBC              EQUALS   LOSVEL                                #  I(6) S-S  CSM VELOCITY VECTOR
001041:
001042:
001043:                                                                                                  #           PADLOADED ERASABLES FOR P20/P22                                (6D)
001044:
001045: E3,1770                        RANGEVAR           ERASE    +1                                    #  I(2) RR RANGE ERROR VARIANCE
001046: E3,1772                        RATEVAR            ERASE    +1                                    #  I(2) RR RANGE-RATE ERROR VARIANCE
001047: E3,1774                        RVARMIN            ERASE                                          #  I(1) MINIMUM RANGE ERROR VARIANCE
001048: E3,1775                        VVARMIN            ERASE                                          #  I(1) MINIMUM RANGE-RATE ERROR VARIANCE
001049:
001050:
001051:                                                                                                  #           P32-P33 STORAGE                                                (2D)
001052:
Warning:  May overflow memory bank.
001053: E3,1776                        TCDH               ERASE    +1                                    #  I(2) T2 CDH TIME IN CS. (ALSO DOWNLINKED
001054:
001055:
001056: E3,1777                        END-E3             EQUALS   1777                                  #  ** LAST LOCATION USED IN E3 **
001057:


001059:                                                                                                  #                  EBANK-4 ASSIGNMENTS
001060:
001061: E4,1400                                           SETLOC   2000
001062:
001063:
001064:                                                                                                  #  E4 IS, FOR THE MOST PART RESERVED FOR PAD LOADED AND UNSHARABLE ERASE.
001065:
001066: E4,1400                        AMEMORY            EQUALS
001067:
001068:
001069:                                                                                                  #           P20 STORAGE. -PAD LOADED-                                      (6D)
001070:
001071: E4,1400                        WRENDPOS           ERASE                                          #  B(1)PL                          KM*2(-7)
001072: E4,1401                        WRENDVEL           ERASE                                          #  B(1)PL                    KM(-1/2)*2(11)
001073: E4,1402                        WSHAFT             ERASE                                          #  B(1)PL                          KM*2(-7)
001074: E4,1403                        WTRUN              ERASE                                          #  B(1)PL                          KM*2(-7)
001075: E4,1404                        RMAX               ERASE                                          #  B(1)PL                     METERS*2(-19)
001076: E4,1405                        VMAX               ERASE                                          #  B(1)PL                      M/CSEC*2(-7)
001077:
001078:
001079:                                                                                                  #           LUNAR SURFACE NAVIGATION                                       (2D)
001080:
001081: E4,1406                        WSURFPOS           ERASE                                          #  B(1)PL
001082: E4,1407                        WSURFVEL           ERASE                                          #  B(1)PL
001083:
001084:                                                                                                  #           P22 STORAGE. -PAD LOADED-                                      (2D)
001085:
001086: E4,1410                        SHAFTVAR           ERASE                                          #  B(1)PL                      RAD SQ*2(12)
001087: E4,1411                        TRUNVAR            ERASE                                          #  B(1)PL                      RAD SQ*2(10)
001088:
001089:
001090:                                                                                                  #           CONISEX STORAGE.-PAD LOADED-                                   (6D)
001091:
001092: E4,1412                        504LM              ERASE    +5                                    #  I(6) MOONLIBRATION VECTOR
001093:
001094:
001095:                                                                                                  #           V47(R47) AGS INITIALIZATION STORAGE. -PAD LOADED-              (2D)
001096:
001097: E4,1420                        AGSK               ERASE    +1
001098:
001099:
001100:                                                                                                  #           LUNAR LANDING STORAGE. -PAD LOADED-                            (6D)
001101:
001102: E4,1422                        RLS                ERASE    +5                                    #  I(6) LANDING SITE VECTOR -MOON REF
001103:
001104:
001105:                                                                                                  #           INTEGRATION STORAGE.                                           (102D)
001106:
001107: E4,1430                        PBODY              ERASE    +101D                                 #  I(1)


001109: E4,1576  E4,1431               ALPHAV             EQUALS   PBODY      +1                         #  I(6)
001110: E4,1576  E4,1437               BETAV              EQUALS   ALPHAV     +6                         #  I(6)
001111: E4,1576  E4,1445               PHIV               EQUALS   BETAV      +6                         #  I(6)
001112: E4,1576  E4,1453               PSIV               EQUALS   PHIV       +6                         #  I(6)
001113: E4,1576  E4,1461               FV                 EQUALS   PSIV       +6                         #  I(6)    PERTURBING ACCELERATIONS
001114: E4,1576  E4,1467               ALPHAM             EQUALS   FV         +6                         #  I(2)
001115: E4,1576  E4,1471               BETAM              EQUALS   ALPHAM     +2                         #  I(2)
001116: E4,1576  E4,1473               TAU.               EQUALS   BETAM      +2                         #  I(2)
001117: E4,1576  E4,1475               DT/2               EQUALS   TAU.       +2                         #  I(2)
001118: E4,1576  E4,1477               H                  EQUALS   DT/2       +2                         #  I(2)
001119: E4,1576  E4,1501               GMODE              EQUALS   H          +2                         #  I(1)
001120: E4,1576  E4,1502               IRETURN            EQUALS   GMODE      +1                         #  I(1)
001121: E4,1576  E4,1503               NORMGAM            EQUALS   IRETURN    +1                         #  I(1)
001122: E4,1576  E4,1504               RPQV               EQUALS   NORMGAM    +1
001123: E4,1576  E4,1512               ORIGEX             EQUALS   RPQV       +6                         #  I(1)
001124: E4,1576  E4,1512               KEPRTN             EQUALS   ORIGEX                                #  I(1)
001125: E4,1576  E4,1513               RQVV               EQUALS   ORIGEX     +1                         #  I(6)
001126: E4,1576  E4,1521               RPSV               EQUALS   RQVV       +6                         #  I(6)
001127: E4,1576  E4,1527               XKEPNEW            EQUALS   RPSV       +6                         #  I(2)
001128: E4,1576  E4,1531               VECTAB             EQUALS   XKEPNEW    +2                         #  I(36D)
001129: E4,1576  E4,1574               VECTABND           EQUALS   VECTAB     +35D                       #  END MARK
001130:
001131:
001132:
001133:                                                                                                  #           THESE PROBABLY CAN SHARE MID-COURSE VARIABLES.                 (6D)
001134:
001135: E4,1576  E4,1537               VACX               EQUALS   VECTAB     +6                         #  I(2)
001136: E4,1576  E4,1541               VACY               EQUALS   VACX       +2                         #  I(2)
001137: E4,1576  E4,1543               VACZ               EQUALS   VACY       +2                         #  I(2)
001138:
001139:                                                                                                  #           SERVICER STORAGE   (USED BY ALL POWERED FLIGHT PROGS.)         (18D)
001140:
001141: E4,1576  E4,1545               XNBPIP             EQUALS   VECTAB     +12D                       #  I(6)
001142: E4,1576  E4,1553               YNBPIP             EQUALS   XNBPIP     +6                         #  I(6)
001143: E4,1576  E4,1561               ZNBPIP             EQUALS   YNBPIP     +6                         #  I(6)
001144:
001145:
001146:                                                                                                  #           SOME VERB 82 STORAGE                                           (4D)
001147:
001148: E4,1576  E4,1517               HAPOX              EQUALS   RQVV       +4                         #  I(2)
001149: E4,1576  E4,1521               HPERX              EQUALS   HAPOX      +2                         #  I(2)
001150:
001151:
001152:                                                                                                  #           V82 STORAGE                                                    (6D)
001153:
001154: E4,1576  E4,1567               VONE'              EQUALS   VECTAB     +30D                       #  I(6)TMP NORMAL VELOCITY VONE / SQRT. MU
001155:
001156:
001157:                                                                                                  #           R31(V83) STORAGE. -SHARES WITH INTEGRATION STORAGE-            (28D)
001158:


001160: E4,1576  E4,1504               BASETHV            EQUALS   RPQV                                  #  I(6)     BASE VEL VECTOR THIS VEH
001161:
001162: E4,1576  E4,1513               BASETIME           EQUALS   RQVV                                  #  I(2)     TIME ASSOC WITH BASE VECS
001163: E4,1576  E4,1515               ORIG               EQUALS   RQVV       +2                         #  I(1)     =0 FOR EARTH =2 FOR MOON
001164: E4,1576  E4,1516               STATEXIT           EQUALS   RQVV       +3                         #  I(1)     STQ ADDRESS FOR STATEXTP
001165: E4,1576  E4,1517               BASEOTV            EQUALS   RQVV       +4                         #  I(6)     BASE VEL VECTOR OTHER VEH
001166:
001167:
001168: E4,1576  E4,1537               BASEOTP            EQUALS   VECTAB     +6                         #  I(6)     BASE POS VECTOR OTHER VEH
001169:
001170:
001171: E4,1576  E4,1567               BASETHP            EQUALS   VECTAB     +30D                       #  I(6)     BASE POS VECTOR THIS VEH
001172:
001173:
001174:
001175:                                                                                                  #           KEPLER STORAGE. (KEPLER IS CALLED BY PRECISION INTEGRATION AND (2D)
001176:                                                                                                  #           CONICS)
001177:
001178: E4,1576                        EPSILONT           ERASE    +1                                    #  I(2)
001179:
001180:
001181:                                                                                                  #           VERB 83 STORAGE.                                               (18D)
001182:
001183: E4,1600                        RANGE              ERASE    +17D                                  #  I(2)DSP NOUN 54 DISTANCE TO OPTICAL SUBJ
001184: E4,1622  E4,1602               RRATE              EQUALS   RANGE      +2                         #  I(2)DSP NOUN 54 RATE OF APPROACH.
001185: E4,1622  E4,1604               RTHETA             EQUALS   RRATE      +2                         #  I(2)DSP NOUN 54.
001186: E4,1622  E4,1606               RONE               EQUALS   RTHETA     +2                         #  I(6)TMP VECTOR STORAGE.  (SCRATCH)
001187: E4,1622  E4,1614               VONE               EQUALS   RONE       +6                         #  I(6)TMP VECTOR STORAGE.  (SCRATCH)
001188:
001189:
001190:                                                                                                  #           VERB 67 STORAGE
001191:
001192: E4,1622  E4,1600               WWPOS              =        RANGE                                 #  NOUN 99 (V67)
001193: E4,1622  E4,1602               WWVEL              =        RRATE                                 #  NOUN 99 (V67)
001194: E4,1622  E4,1604               WWBIAS             =        RTHETA                                #  NOUN 99 (V67)
001195:                                                                                                  #           V82 STORAGE. (CANNOT OVERLAY RONE OR VONE)                     (11D) TWO SEPARATE LOCATIONS
001196:
001197: E4,1622  E4,1537               V82FLAGS           EQUALS   VECTAB     +6                         #   (1) FOR V82 BITS.
001198: E4,1622  E4,1540               TFF                EQUALS   V82FLAGS   +1                         #  I(2)
001199: E4,1622  E4,1542               -TPER              EQUALS   TFF        +2                         #  I(2)
001200:
001201:
001202: E4,1622  E4,1600               HPERMIN            EQUALS   RANGE                                 #  I(2) SET TO 300KFT OR 35KFT FOR SR30.1
001203: E4,1622  E4,1602               RPADTEM            EQUALS   HPERMIN    +2                         #  I(2) PAD OR LANDING RADIUS FOR SR30.1
001204: E4,1622  E4,1604               TSTART82           EQUALS   RPADTEM    +2                         #  I(2) TEMP TIME STORAGE FOR V82.
001205:
001206:
001207:
001208:                                                                                                  #           VARIOUS DISPLAY REGISTERS                                      (6D)      NOUN 84; P76


001210: E4,1622                        DELVOV             ERASE    +5D                                   #  (6)
001211:
001212:
001213:
001214:                                                                                                  #           ALIGNMENT PLANETARY-INERTIAL TRANSFORMATION STORAGE.           (18D)
001215:
001216:                                                                                                  #                  UNSHARED WHILE LM ON LUNAR SURFACE.
001217:
001218: E4,1630                        GSAV               ERASE    +17D                                  #   I(6)
001219: E4,1652  E4,1636               YNBSAV             EQUALS   GSAV       +6                         #   I(6)
001220: E4,1652  E4,1644               ZNBSAV             EQUALS   YNBSAV     +6                         #   I(6)
001221:
001222:
001223:
001224:                                                                                                  #           KALCMANU STORAGE. CAN OVERLAY GSAV.                            (18D)
001225:
001226: E4,1652  E4,1630               MFS                EQUALS   GSAV                                  #  I(18)
001227: E4,1652  E4,1630               MFI                EQUALS   MFS                                   #  I
001228: E4,1652  E4,1630               KEL                EQUALS   MFS                                   #  I(18)
001229: E4,1652  E4,1630               E01                EQUALS   MFS                                   #  I(6)
001230: E4,1652  E4,1636               E02                EQUALS   E01        +6                         #  I(6)
001231:
001232:
001233:                                                                                                  #           LR VEL BEAM VECTORS.                                           (26D)
001234:
001235:                                                                                                  #           CAN OVERLAY GSAV WITH CARE, USED DURING POWERED DESCENT ONLY.
001236:
001237: E4,1652  E4,1630               VZBEAMNB           EQUALS   GSAV                                  #  I(6) LR VELOCITY BEAMS IN NB COORDS.
001238: E4,1652  E4,1636               VYBEAMNB           EQUALS   VZBEAMNB   +6                         #  I(6)
001239: E4,1652  E4,1644               VXBEAMNB           EQUALS   VYBEAMNB   +6                         #  I(6) PRESERVE Z,Y,X ORDER.
001240:
001241:
001242: E4,1652  E4,1652               LRVTIME            =        VXBEAMNB   +6                         #  B(2)     LR
001243: E4,1652  E4,1654               LRXCDU             =        LRVTIME    +2                         #  B(1)     LR
001244: E4,1652  E4,1655               LRYCDU             =        LRXCDU     +1                         #  B(1)     LR
001245: E4,1652  E4,1656               LRZCDU             =        LRYCDU     +1                         #  B(1)     LR
001246: E4,1652  E4,1657               PIPTEM             =        LRZCDU     +1                         #  B(3)     LR
001247:
001248:
001249:
001250:                                                                                                  #           P32-P35, P72-P75 STORAGE.                                      (40D)
001251:
001252: E4,1652                        T1TOT2             ERASE    +1                                    #   (2)     TIME FROM CSI TO CDH
001253: E4,1654                        T2TOT3             ERASE    +1                                    #   (2)
001254: E4,1656                        ELEV               ERASE    +1                                    #   (2)
001255: E4,1660                        UP1                ERASE    +5                                    #   (6)
001256: E4,1666                        DELVEET1           ERASE    +5                                    #  I(6)     DV CSI IN REF
001257: E4,1674                        DELVEET2           ERASE    +5                                    #  I(6)     DV CSH IN REF
001258: E4,1702                        RACT1              ERASE    +5                                    #   (6)     POS VEC OF ACTIVE AT CSI TIME
001259: E4,1710                        RACT2              ERASE    +5                                    #   (6)     POS VEC OF ACTIVE AT CDH TIME


001261: E4,1716                        RTSR1/MU           ERASE    +1                                    #   (2)     SQ ROOT 1/MU STORAGE
001262: E4,1720                        RTMU               ERASE    +1                                    #   (2)     MU STORAGE
001263:
001264:
001265:
001266:                                                                                                  #           (THE FOLLOWING ERASABLES OVERLAY PORTIONS OF THE PREVIOUS SECTION)
001267:
001268: E4,1722  E4,1652               +MGA               EQUALS   T1TOT2                                #   (2) S-S + MID GIM ANGL TO DELVEET3
001269:
001270:
001271: E4,1722  E4,1660               UNRM               EQUALS   UP1                                   #  I(6) S-S
001272:
001273:
001274: E4,1722  E4,1702               DVLOS              EQUALS   RACT1                                 #  I(6) S-S DELTA VELOCITY,LOS COORD-DISPLA
001275: E4,1722  E4,1710               ULOS               EQUALS   RACT2                                 #  I(6) S-S UNIT LINE OF SIGHT VECTOR
001276:
001277:
001278: E4,1722  E4,1716               NOMTPI             EQUALS   RTSR1/MU                              #   (2) S-S NOMINAL TPI TIME FOR RECYCLE
001279:
001280:
001281:                                                                                                  #           SOME P30 STORAGE.                                              (4D)
001282:
001283: E4,1722  E4,1716               HAPO               EQUALS   RTSR1/MU                              #  I(2)
001284: E4,1722  E4,1720               HPER               EQUALS   HAPO       +2                         #  I(2)
001285:
001286:
001287:
001288:                                                                                                  #           THE FOLLOWING ARE ERASABLE LOADS DURING A PERFORMANCE TEST.
001289:
001290: E4,1722  E4,1400               TRANSM1            =        WRENDPOS                              #  E4,1400
001291: E4,1722  E4,1422               ALFDK              =        TRANSM1    +18D
001292:
001293:
001294:                                                                                                  #  ******* THE FOLLOWING SECTIONS OVERLAY V83 AND DISPLAY STORAGE *******
001295:
001296:
001297:                                                                                                  #           V47(R47)AGS INITIALIZATION PROGRAM STORAGE. (OVERLAYS V83)     (14D)
001298:
001299: E4,1722  E4,1600               AGSBUFF            EQUALS   RANGE                                 #  B(14D)
001300: E4,1722  E4,1615               AGSBUFFE           EQUALS   AGSBUFF    +13D                       #  ENDMARK
001301:
001302:
001303:                                                                                                  #           R36 OUT-OF-PLANE RENDEZVOUS DISPLAY STORAGE. (OVERLAYS V83)    (12D)
001304:
001305: E4,1722  E4,1606               RPASS36            EQUALS   RONE                                  #  I(6) S-S
001306: E4,1722  E4,1614               UNP36              EQUALS   RPASS36    +6                         #  I(6) S-S
001307:
001308:
001309:                                                                                                  #           S-BAND ANTENNA GIMBAL ANGLES. DISPLAYED BY R05(V64).(OVERLAYS V83)  (10D)
001310:                                                                                                  #                 (OPERATES DURING P00 ONLY)
001311:


001313: E4,1722  E4,1600               ALPHASB            EQUALS   RANGE                                 #  B(2) DSP NOUN 51. PITCH ANGLE.
001314: E4,1722  E4,1602               BETASB             EQUALS   ALPHASB    +2                         #  B(2) DSP NOUN 51. YAW ANGLE.
001315: E4,1722  E4,1604               RLM                EQUALS   BETASB     +2                         #  I(6) S    S/C POSITION VECTOR.
001316:
001317:                                                                                                  #           **** USED IN S-BAND ANTENNA FOR LM ****
001318:
001319: E4,1722  E4,1602               YAWANG             EQUALS   BETASB
001320: E4,1722  E4,1600               PITCHANG           EQUALS   ALPHASB
001321:
001322:
001323:                                                                                                  #  NOUN 56 DATA - COMPUTED AND DISPLAYED BY VERB 85.                       (4)
001324:
001325: E4,1722  E4,1600               RR-AZ              EQUALS   PITCHANG                              #  I(2) ANGLE BETWEEN LOS AND X-Z PLANE.
001326: E4,1722  E4,1602               RR-ELEV            EQUALS   RR-AZ      +2                         #  I(2) ANGLE BETWEEN LOS AND Y-Z PLANE.
001327:
001328:                                                                                                  #           R04(V62) RADAR TEST STORAGE.                                   (8D)
001329:                                                                                                  #           R04 IS RESTRICTED TO P00.
001330:
001331: E4,1722  E4,1600               RSTACK             EQUALS   RANGE                                 #  B(8)  BUFFER FOR R04 NOUNS.
001332:
001333:
001334:
001335:                                                                                                  #           INITVEL STORAGE.  ALSO USED BY P31,P34,P35,P74,P75,P10,P11,MIDGIM,S40.1 AND S40.9. (18D)
001336:
001337:                                                                                                  #                   (POSSIBLY RINIT & VINIT CAN OVERLAY DELVEET1 & 2 ABOVE)
001338: E4,1722                        RINIT              ERASE    +5                                    #  I(6) ACTIVE VEHICLE POSITION
001339: E4,1730                        VINIT              ERASE    +5                                    #  I(6) ACTIVE VEHICLE VELOCITY
001340: E4,1736                        VIPRIME            ERASE    +5                                    #  I(6) NEW VEL REQUIRED AT INITIAL RADIUS.
001341:
001342:                                                                                                  #           VARIOUS DISPLAY REGISTERS.  BALLANGS                           (3D)
001343:
001344: E4,1744                        FDAIX              ERASE                                          #  I(1)
001345: E4,1745                        FDAIY              ERASE                                          #  I(1)
001346: E4,1746                        FDAIZ              ERASE                                          #  I(1)
001347:
001348:
001349:                                                                                                  #           P34-P35 STORAGE.  DOWNLINKED.                                  (2D)
001350:
001351: E4,1747                        DELVTPF            ERASE    +1                                    #  I(2) DELTA V FOR TPF
001352:
001353:
001354:                                                                                                  #           LPS20.1 STORAGE.  CALLED BY R65.                               (12D)
001355:
001356: E4,1751                        LMPOS              ERASE    +5                                    #  I(6) TEMP. STORAGE FOR LM POS. VECTOR.
001357: E4,1757                        LMVEL              ERASE    +5                                    #  I(6) TEMP. STORAGE FOR LM VEL. VECTOR.
001358:
001359:                                                                                                  #  INITVEL STORAGE.  ALSO USED BY P31,34,35,74,75,S40.1 AND DOWNLINKED.    (6D)
001360:
001361: E4,1765                        DELVEET3           ERASE    +5                                    #  I(6) DELTA V IN INERTIAL COORDINATES.
001362:


001364:                                                                                                  #           SOME R04(V63)-R77 STORAGE.                                     (6D)
001365:
001366: E4,1773                        RTSTDEX            ERASE                                          #  B(1)
001367: E4,1774                        RTSTMAX            ERASE                                          #  B(1)
001368: E4,1775                        RTSTBASE           ERASE                                          #  B(1)
001369: E4,1776                        RTSTLOC            ERASE                                          #  B(1)
Warning:  Next code may overflow storage.
001370: E4,1777                        RSAMPDT            ERASE                                          #  B(1)
001371: E4,1777  E4,1575               RFAILCNT           EQUALS   PBODY      +101D                      #  B(1)
001372:
001373:
001374: E4,1777                        END-E4             EQUALS                                         #  FIRST UNUSED LOCATION IN E4
001375:
001376:                                                                                                  #           SECOND DPS GUIDANCE (LUNAR LANDING)  (OVERLAY P32-35,INITVEL)  (14D)
001377:
001378: E4,1777  E4,1662               VHORIZ             EQUALS   PIPTEM     +3                         #  I(2) DISPLAY
001379: E4,1777  E4,1664               ANGTERM            EQUALS   VHORIZ     +2                         #  I(6) GUIDANCE
001380: E4,1777  E4,1672               HBEAMNB            EQUALS   ANGTERM    +6                         #  I(6) LANDING RADAR
001381:
001382:
001383:                                                                                                  #           R12 DOWNLINK QUANTITIES                                        (5D)
001384:
001385: E4,1777  E4,1734               LRXCDUDL           EQUALS   /LAND/     +2                         #  B(1) LANDING RADAR DOWNLINK
001386: E4,1777  E4,1735               LRYCDUDL           EQUALS   LRXCDUDL   +1                         #  B(1) LANDING RADAR DOWNLINK
001387: E4,1777  E4,1736               LRZCDUDL           EQUALS   LRYCDUDL   +1                         #  B(1) LANDING RADAR DOWNLINK
001388: E4,1777  E4,1737               LRVTIMDL           EQUALS   LRZCDUDL   +1                         #  B(2) LANDING RADAR DOWNLINK
001389:
001390:
001391:
001392:
001393:                                                                                                  #           ASCENT GUIDANCE FOR LUNAR LANDING                              (54D)
001394:
001395: E4,1777  E4,1662               AT                 EQUALS   PIPTEM     +3                         #  I(2)TMP  ENGINE DATA -- THRUST ACC*2(9)
001396: E4,1777  E4,1664               VE                 EQUALS   AT         +2                         #  I(2)TMP  EXHAUST VELOCITY * 2(7)M/CS.
001397: E4,1777  E4,1666               TTO                EQUALS   VE         +2                         #  I(2)TMP  TAILOFF TIME * 2(17)CS.
001398: E4,1777  E4,1670               TBUP               EQUALS   TTO        +2                         #  I(2)TMP  (M/MDOT) * 2(17)CS.
001399: E4,1777  E4,1672               RDOTD              EQUALS   TBUP       +2                         #  I(2)TMP  TARGET VELOCITY COMPONENTS
001400: E4,1777  E4,1674               YDOTD              EQUALS   RDOTD      +2                         #  I(2)TMP SCALING IS 2(7)M/CS.
001401: E4,1777  E4,1676               ZDOTD              EQUALS   YDOTD      +2                         #  I(2)TMP
001402:
001403: E4,1777  E4,1700               /R/MAG             EQUALS   ZDOTD      +2                         #  I(2)TMP
001404: E4,1777  E4,1702               LAXIS              EQUALS   /R/MAG     +2                         #  I(6)TMP
001405: E4,1777  E7,1725               ZAXIS1             =        UHZP
001406: E4,1777  E7,1473               RDOT               =        HDOTDISP
001407: E4,1777  E4,1710               YDOT               =        LAXIS      +6                         #  I(2)TMP VEL. NORMAL TO REF. PLANE*2(-7)
001408: E4,1777  E4,1712               ZDOT               EQUALS   YDOT       +2                         #  I(2)TMP  DOWN RANGE VEL *2(-7).
001409: E4,1777  E4,1714               GEFF               EQUALS   ZDOT       +2                         #  I(2)TMP  EFFECTIVE GRAVITY
001410:
001411:                                                                                                  #     THESE TWO GROUPS OF ASCENT GUIDANCE ARE SPLIT BY THE ASCENT-DESCENT  SERVICER SECTION FOLLOWING THIS SECTION
001412:
001413: E4,1777  E4,1734               Y                  EQUALS   /LAND/     +2                         #  I(2)TMP  OUT-OF-PLANE DIST *2(24)M


001415: E4,1777  E4,1736               DRDOT              EQUALS   Y          +2                         #  I(2)TMP  RDOTD - RDOT
001416: E4,1777  E4,1740               DYDOT              EQUALS   DRDOT      +2                         #  I(2)TMP  YDOTD - YDOT
001417: E4,1777  E4,1742               DZDOT              EQUALS   DYDOT      +2                         #  I(2)TMP  ZDOTD - ZDOT
001418: E4,1777  E4,1744               PCONS              EQUALS   DZDOT      +2                         #  I(2)TMP  CONSTANT IN ATR EQUATION
001419: E4,1777  E4,1746               YCONS              EQUALS   PCONS      +2                         #  I(2)TMP  CONSTANT IN ATY EQUATION
001420: E4,1777  E4,1750               PRATE              EQUALS   YCONS      +2                         #  I(2)TMP  RATE COEFF. IN ATR EQUATION
001421: E4,1777  E4,1752               YRATE              EQUALS   PRATE      +2                         #  I(2)TMP  RATE COEFF. IN ATY EQUATION
001422: E4,1777  E4,1754               ATY                EQUALS   YRATE      +2                         #  I(2)TMP  OUT-OF-PLANE THRUST COMP.*2(9)
001423: E4,1777  E4,1756               ATR                EQUALS   ATY        +2                         #  I(2)TMP  RADIAL THRUST COMP.*2(9)
001424: E4,1777  E4,1760               ATP                EQUALS   ATR        +2                         #  I(2)TMP  DOWN-RANGE THRUST COMP
001425: E4,1777  E4,1762               YAW                EQUALS   ATP        +2                         #  I(2)TMP
001426: E4,1777  E4,1764               PITCH              EQUALS   YAW        +2                         #  I(2)RMP
001427:
001428:
001429:                                                                                                  #           SERVICER FOR LUNAR ASCENT AND DESCENT                          (14D)
001430:
001431: E4,1777  E4,1716               G(CSM)             EQUALS   GEFF       +2                         #  I(6) FOR UPDATE OF COMMAND MODULE STATE
001432: E4,1777  E3,1717               R(CSM)             EQUALS   R-OTHER                               #       VECTORS BY LEM; ANALOGS OF GDT/2,
001433: E4,1777  E3,1725               V(CSM)             EQUALS   V-OTHER                               #       R, AND V, RESPECTIVELY OF THE CSM
001434: E4,1777  E4,1724               WM                 EQUALS   G(CSM)     +6                         #  I(6) TMP - LUNAR ROTATION VECTOR (SM)
001435: E4,1777  E4,1732               /LAND/             EQUALS   WM         +6                         #  B(2) LUNAR RADIUS AT LANDING SITE
001436:
001437:


001439:                                                                                                  #           EBANK-5 ASSIGNMENTS
001440:
001441: E5,1400                                           SETLOC   2400
001442:
001443:                                                                                                  #           W-MATRIX. ESSENTIALLY UNSHARABLE.                              (162D)
001444:
001445: E5,1400                        W                  ERASE    +161D
001446: E5,1642  E5,1642               ENDW               EQUALS   W          +162D
001447:
001448:
001449:
001450:
001451:                                                                                                  #  *******  OVERLAY NUMBER 1 IN EBANK 5  *******
001452:
001453:
001454:                                                                                                  #           W-MATRIX PADLOADS                                              (124D)
001455:
001456:                                                                                                  #   PLEASE RETAIN THE ORDER OF TLAND THRU JAPFG
001457:
001458: E5,1642  E5,1400               TLAND              EQUALS   W                                     #  I(2)  NOMINAL TIME OF LANDING
001459: E5,1642  E5,1402               RBRFG              EQUALS   TLAND      +2                         #  I(6) BRAKING
001460: E5,1642  E5,1410               VBRFG              EQUALS   RBRFG      +6                         #  I(6)      PHASE
001461: E5,1642  E5,1416               ABRFG              EQUALS   VBRFG      +6                         #  I(6)         TARGET
001462: E5,1642  E5,1424               VBRFG*             EQUALS   ABRFG      +6                         #  I(2)            PARAMETERS:
001463: E5,1642  E5,1426               ABRFG*             EQUALS   VBRFG*     +2                         #  I(2)               HIGH
001464: E5,1642  E5,1430               JBRFG*             EQUALS   ABRFG*     +2                         #  I(2)                  GATE
001465: E5,1642  E5,1432               GAINBRAK           EQUALS   JBRFG*     +2                         #  B(2)
001466: E5,1642  E5,1434               TCGFBRAK           EQUALS   GAINBRAK   +2                         #  B(1)
001467: E5,1642  E5,1435               TCGIBRAK           EQUALS   TCGFBRAK   +1                         #  B(1)
001468: E5,1642  E5,1436               RAPFG              EQUALS   TCGIBRAK   +1                         #  I(6) APPROACH
001469: E5,1642  E5,1444               VAPFG              EQUALS   RAPFG      +6                         #  I(6)      PHASE
001470: E5,1642  E5,1452               AAPFG              EQUALS   VAPFG      +6                         #  I(6)         TARGET
001471: E5,1642  E5,1460               VAPFG*             EQUALS   AAPFG      +6                         #  I(2)            PARAMETERS:
001472: E5,1642  E5,1462               AAPFG*             EQUALS   VAPFG*     +2                         #  I(2)               LOW
001473: E5,1642  E5,1464               JAPFG*             EQUALS   AAPFG*     +2                         #  I(2)                  GATE
001474: E5,1642  E5,1466               GAINAPPR           EQUALS   JAPFG*     +2                         #  B(2)
001475: E5,1642  E5,1470               TCGFAPPR           EQUALS   GAINAPPR   +2                         #  B(1)
001476: E5,1642  E5,1471               TCGIAPPR           EQUALS   TCGFAPPR   +1                         #  B(1)
001477: E5,1642  E5,1472               VIGN               EQUALS   TCGIAPPR   +1                         #  I(2)  DESIRED SPEED FOR IGNITION
001478: E5,1642  E5,1474               RIGNX              EQUALS   VIGN       +2                         #  I(2)  DESIRED 'ALTITUDE' FOR IGNITION
001479: E5,1642  E5,1476               RIGNZ              EQUALS   RIGNX      +2                         #  I(2)  DESIRED GROUND RANGE FOR IGNITION
001480: E5,1642  E5,1500               KIGNX/B4           EQUALS   RIGNZ      +2                         #  I(2)
001481: E5,1642  E5,1502               KIGNY/B8           EQUALS   KIGNX/B4   +2                         #  I(2)
001482: E5,1642  E5,1504               KIGNV/B4           EQUALS   KIGNY/B8   +2                         #  I(2)
001483: E5,1642  E5,1506               LOWCRIT            EQUALS   KIGNV/B4   +2                         #  B(1) (HIGHCRIT MUST FOLLOW LOWCRIT)
001484: E5,1642  E5,1507               HIGHCRIT           EQUALS   LOWCRIT    +1                         #  B(1)
001485: E5,1642  E5,1510               V2FG               EQUALS   HIGHCRIT   +1                         #  I(6) DESIRED VELOCITY FOR P65.
001486: E5,1642  E5,1516               TAUVERT            EQUALS   V2FG       +6                         #  I(2) TIME CONSTANT FOR P65 VEL. NULLING.
001487: E5,1642  E5,1520               DELQFIX            EQUALS   TAUVERT    +2                         #  I(2) LR ALTITUDE DATA REASONABLE PARM.
001488: E5,1642  E5,1522               LRALPHA            EQUALS   DELQFIX    +2                         #  B(1)   POS1 X ROTATION     * MUST *


001490: E5,1642  E5,1523               LRBETA1            EQUALS   LRALPHA    +1                         #  B(1)   POS1 Y ROTATION     *  BE  *
001491: E5,1642  E5,1524               LRALPHA2           EQUALS   LRBETA1    +1                         #  B(1)   POS2 X ROTATION     *  IN  *
001492: E5,1642  E5,1525               LRBETA2            EQUALS   LRALPHA2   +1                         #  B(1)   POS2 Y ROTATION     *ORDER*
001493: E5,1642  E5,1526               LRVMAX             EQUALS   LRBETA2    +1                         #  B(1)   LR VEL WEIGHTING FUNCTIONS
001494: E5,1642  E5,1527               LRVF               EQUALS   LRVMAX     +1                         #  B(1)   LR VEL WEIGHTING FUNCTIONS
001495: E5,1642  E5,1530               LRWVZ              EQUALS   LRVF       +1                         #  B(1)   LR VEL WEIGH ING FUNCTIONS
001496: E5,1642  E5,1531               LRWVY              EQUALS   LRWVZ      +1                         #  B(1)   LR VEL WEIGH ING FUNCTIONS
001497: E5,1642  E5,1532               LRWVX              EQUALS   LRWVY      +1                         #  B(1)   LR VEL WEIGH ING FUNCTIONS
001498: E5,1642  E5,1533               LRWVFZ             EQUALS   LRWVX      +1                         #  B(1)   LR VEL WEIGH ING FUNCTIONS
001499: E5,1642  E5,1534               LRWVFY             EQUALS   LRWVFZ     +1                         #  B(1)   LR VEL WEIG  ING FUNC IONS
001500: E5,1642  E5,1535               LRWVFX             EQUALS   LRWVFY     +1                         #  B(1)   LR VEL WEIG  ING FUNC IONS
001501: E5,1642  E5,1536               LRWVFF             EQUALS   LRWVFX     +1                         #  B(1)   LR VEL WEIG  ING FUNC IONS
001502:
001503: E5,1642     0130               ABVEL*             EQUALS   BUF                                   #  B(1)   LR TEMP
001504: E5,1642     0131               VSELECT*           EQUALS   BUF        +1                         #  B(1)   LR TEMP
001505:
001506: E5,1642  E5,1537               RODSCALE           EQUALS   LRWVFF     +1                         #  I(1) CLICK SCALE FACTOR FOR ROD
001507: E5,1642  E5,1540               TAUROD             EQUALS   RODSCALE   +1                         #  I(2) TIME CONSTANT FOR R.O.D.
001508: E5,1642  E5,1542               LAG/TAU            EQUALS   TAUROD     +2                         #  I(2) LAG TIME DIVIDED BY TAUROD (P66)
001509: E5,1642  E5,1544               MINFORCE           EQUALS   LAG/TAU    +2                         #  I(2) MINIMUM FORCE P66 WILL COMMAND.
001510: E5,1642  E5,1546               MAXFORCE           EQUALS   MINFORCE   +2                         #  I(2) MAXIMUM FORCE P66 WILL COMMAND.
001511: E5,1642  E5,1550               J1PARM             EQUALS   MAXFORCE   +2                         #  I(2) PARAMETER SET # 1:
001512: E5,1642  E5,1552               K1PARM             EQUALS   J1PARM     +2                         #  I(2)    ABORT ORBIT SEMI-MAJOR AXIS COMP
001513: E5,1642  E5,1554               J2PARM             EQUALS   K1PARM     +2                         #  I(2) PARAMETER SET # 2:
001514: E5,1642  E5,1556               K2PARM             EQUALS   J2PARM     +2                         #  I(2)    ABORT ORBIT SEMI-MAJOR AXIS COMP
001515: E5,1642  E5,1560               THETCRIT           EQUALS   K2PARM     +2                         #  I(2) CENTRAL ANGLE SWITCHING CRITERION.
001516: E5,1642  E5,1562               RAMIN              EQUALS   THETCRIT   +2                         #  I(2) MINIMUM ALLOWABLE APOLUNE.
001517: E5,1642  E5,1564               YLIM               EQUALS   RAMIN      +2                         #  I(2) MAXIMUM CROSS-RANGE DIST. IN ABORTS
001518: E5,1642  E5,1566               ABTRDOT            EQUALS   YLIM       +2                         #  I(2) DESIRED RADIAL VEL. FOR ABORTS.
001519: E5,1642  E5,1570               COSTHET1           EQUALS   ABTRDOT    +2                         #  I(2) COS OF CONE 1 ANGLE FOR ABORTS
001520: E5,1642  E5,1572               COSTHET2           EQUALS   COSTHET1   +2                         #  I(2) COS OF CONE 2 ANGLE FOR ABORTS.
001521:
001522:
001523:                                                                                                  #           SOME VARIABLES FOR SECOND DPS GUIDANCE                         (38D)
001524:
001525: E5,1642  E5,1574               CG                 EQUALS   COSTHET2   +2                         #  I(18D) GUIDANCE
001526: E5,1642  E5,1616               RANGEDSP           EQUALS   CG         +18D                       #  B(2) DISPLAY
001527: E5,1642  E5,1616               OUTOFPLN           EQUALS   RANGEDSP                              #  *** OUTOFPLN CAN OVERLAY RANGEDSP ***
001528: E5,1642  E5,1620               R60VSAVE           EQUALS   OUTOFPLN   +2                         #  I(6)TMP SAVES VALUE OF POINTVSM THRU R51
001529: E5,1642  E5,1626               RGU                EQUALS   R60VSAVE   +6                         #  I(6) UNSHARED FOR DOWNLINK
001530: E5,1642  E5,1634               DLAND              EQUALS   RGU        +6                         #  I(6)    LANDING SITE CORRECTION SM FRAME
001531: E5,1642  E5,1634               DLANDX             EQUALS   DLAND
001532: E5,1642  E5,1636               DLANDY             EQUALS   DLAND      +2
001533: E5,1642  E5,1640               DLANDZ             EQUALS   DLAND      +4
001534: E5,1642  E5,1620               VBIAS              EQUALS   R60VSAVE                              #  I(6) PIPA BIAS EQUIV. VELOCITY VECTOR.
001535: E5,1642  E5,1620               JPARM              EQUALS   R60VSAVE                              #  I(2) JPARM WILL EQUAL J1PARM OR J2PARM.
001536: E5,1642  E5,1622               KPARM              EQUALS   JPARM      +2                         #  I(2) KPARM WILL EQUAL K1PARM OR K2PARM
001537: E5,1642  E5,1624               RP                 EQUALS   KPARM      +2                         #  I(2) PREDICTED BURNOUT RADIUS-M*2(-24)
001538: E5,1642     0130               L*WCR*T            =        BUF
001539: E5,1642     0131               H*GHCR*T           =        BUF        +1
001540:


001542:
001543:
001544:                                                                                                  #           ALIGNMENT/SYSTEST/CALCSMSC COMMON STORAGE.                     (36D)
001545:
001546: E5,1642  E5,1642               XSM                EQUALS   ENDW                                  #  B(6)
001547: E5,1642  E5,1650               YSM                EQUALS   XSM        +6                         #  B(6)
001548: E5,1642  E5,1656               ZSM                EQUALS   YSM        +6                         #  B(6)
001549:
001550: E5,1642  E5,1664               XDC                EQUALS   ZSM        +6                         #  B(6)
001551: E5,1642  E5,1672               YDC                EQUALS   XDC        +6                         #  B(6)
001552: E5,1642  E5,1700               ZDC                EQUALS   YDC        +6                         #  B(6)
001553:
001554: E5,1642  E5,1664               XNB                =        XDC
001555: E5,1642  E5,1672               YNB                =        YDC
001556: E5,1642  E5,1700               ZNB                =        ZDC
001557:
001558:
001559:                                                                                                  #           OVERLAYS WITHIN ALIGNMENT/SYSTEST/CALCSMSC COMMON STORAGE.     (4D)
001560:
001561: E5,1642  E5,1644               -COSB              EQUALS   XSM        +2                         #   (2)TMP
001562: E5,1642  E5,1646               SINB               EQUALS   -COSB      +2                         #   (2)TMP
001563:
001564:
001565:                                                                                                  #           MORE OVERLAYS TO ALIGNMENT/SYSTEST  (THESE ARE P52)            (6D)
001566:
001567: E5,1642  E5,1706               LANDLAT            EQUALS   STARAD                                #  (2) LATITUDE, LONGITUDE
001568: E5,1642  E5,1710               LANDLONG           EQUALS   LANDLAT    +2                         #  (2)     AND ALTITUDE
001569: E5,1642  E5,1712               LANDALT            EQUALS   LANDLONG   +2                         #  (2)     OF LANDING SITE
001570:
001571:
001572:                                                                                                  #           ALIGNMENT/SYSTEST COMMON STORAGE.                              (31D)
001573:
001574: E5,1642  E5,1706               STARAD             EQUALS   ZDC        +6                         #  I(18D)TMP
001575: E5,1642  E5,1730               STAR               EQUALS   STARAD     +18D                       #  I(6)
001576: E5,1642  E5,1736               GCTR               EQUALS   STAR       +6                         #  B(1)
001577: E5,1642  E5,1737               OGC                EQUALS   GCTR       +1                         #  I(2)
001578: E5,1642  E5,1741               IGC                EQUALS   OGC        +2                         #  I(2)
001579: E5,1642  E5,1743               MGC                EQUALS   IGC        +2                         #  I(2)
001580:
001581:                                                                                                  #           P57 ALIGNMENT (OVERLAY OF ALIGNMENT/SYSTEST COMMON STORAGE)    (12D)
001582:
001583: E5,1642  E5,1706               GACC               =        STARAD                                #  (6) SS
001584: E5,1642  E5,1714               GOUT               =        STARAD     +6                         #  (6) SS
001585:
001586:
001587:                                                                                                  #           OVERLAYS WITHIN ALIGNMENT/SYSTEST COMMON STORAGE               (24D)
001588:
001589: E5,1642  E5,1706               VEARTH             EQUALS   STARAD                                #   (6)TMP
001590: E5,1642  E5,1714               VSUN               EQUALS   VEARTH     +6                         #   (6)TMP
001591: E5,1642  E5,1722               VMOON              EQUALS   VSUN       +6                         #   (6)TMP


001593: E5,1642  E5,1730               SAX                EQUALS   VMOON      +6                         #   (6)TMP
001594:
001595:                                                                                                  #           P50'S,R50'S Q STORES.                                          (2D)
001596:
001597: E5,1642  E5,1745               QMIN               EQUALS   MGC        +2                         #  B(1)TMP
001598: E5,1642  E5,1746               QMAJ               EQUALS   QMIN       +1                         #  B(1)TMP
001599:
001600:
001601:                                                                                                  #         **** USED IN P50S ****    (SCATTERED OVERLAYS)
001602: E5,1642  E5,1706               XSCI               EQUALS   STARAD
001603: E5,1642  E5,1714               YSCI               EQUALS   XSCI       +6
001604: E5,1642  E5,1714               ZSCI               EQUALS   YSCI
001605: E5,1642  E5,1706               CULTRIX            EQUALS   VEARTH                                #  VEARTH, VSUN, VMOON
001606:
001607:
001608:
001609:                                                                                                  #           ALIGNMENT STORAGE.                                             (23D)
001610:
001611: E5,1642  E5,1747               OGCT               EQUALS   QMAJ       +1                         #  I(6)
001612: E5,1642  E5,1755               BESTI              EQUALS   OGCT       +6                         #  I(1)
001613: E5,1642  E5,1756               BESTJ              EQUALS   BESTI      +1
001614: E5,1642  E5,1757               STARIND            EQUALS   BESTJ      +1
001615:                                                                                                  #    RETAIN THE ORDER OF STARSAV1 TO STARSAV2 +5 FOR DOWNLINK PURPOSES.
001616: E5,1642  E5,1760               STARSAV1           EQUALS   STARIND    +1                         #  I(6)
001617: E5,1642  E5,1766               STARSAV2           EQUALS   STARSAV1   +6                         #  I(6)
001618: E5,1642  E5,1774               TALIGN             EQUALS   STARSAV2   +6                         #  B(2) TIME OF IMU ALIGNMENT  (DOWNLINKED)
001619:
001620:                                                                                                  #           P32-35 + SERVICER                                              (2D)
001621:
001622: E5,1642  E5,1776               RTX1               EQUALS   TALIGN     +2                         #  I(1) X1  -2 EARTH, -10 MOON
001623: E5,1642  E5,1777               RTX2               EQUALS   RTX1       +1                         #  I(1) X2  0 EARTH, 2 MOON
001624:
001625:
001626: E5,1642                        ZPRIME             =        22D
001627: E5,1642                        PDA                =        22D
001628: E5,1642                        COSTH              =        16D
001629: E5,1642                        SINTH              =        18D
001630: E5,1642                        THETA              =        20D
001631: E5,1642                        STARM              =        32D
001632:


001634:                                                                                                  #  *******  OVERLAY NUMBER 2 IN EBANK 5  *******
001635:
001636:                                                                                                  #           CONICS ROUTINE STORAGE.                                        (85D)
001637:
001638: E5,1642  E5,1642               DELX               EQUALS   ENDW                                  #  I(2)TMP
001639: E5,1642  E5,1644               DELT               EQUALS   DELX       +2                         #  I(2)TMP
001640: E5,1642  E5,1646               URRECT             EQUALS   DELT       +2                         #  I(6)TMP
001641: E5,1642                        RCNORM             EQUALS   34D                                   #  I(2) TMP
001642: E5,1642  E3,1552               XPREV              EQUALS   XKEP                                  #  I(2)TMP
001643: E5,1642  E5,1654               R1VEC              EQUALS   URRECT     +6                         #  I(6) TMP
001644: E5,1642  E5,1662               R2VEC              EQUALS   R1VEC      +6                         #  I(6)TMP
001645: E5,1642  E5,1670               TDESIRED           EQUALS   R2VEC      +6                         #  I(2)TMP
001646: E5,1642  E5,1672               GEOMSGN            EQUALS   TDESIRED   +2                         #  I(1)TMP
001647: E5,1642  E5,1673               UN                 EQUALS   GEOMSGN    +1                         #  I(6)TMP
001648: E5,1642  E5,1701               VTARGTAG           EQUALS   UN         +6                         #  I(1)TMP
001649: E5,1642  E5,1702               VTARGET            EQUALS   VTARGTAG   +1                         #  I(6)TMP
001650: E5,1642  E5,1710               RTNLAMB            EQUALS   VTARGET    +6                         #  I(1)TMP
001651: E5,1642  E5,1711               U2                 EQUALS   RTNLAMB    +1                         #  I(6)TMP
001652: E5,1642  E5,1717               MAGVEC2            EQUALS   U2         +6                         #  I(2)TMP
001653: E5,1642  E5,1721               UR1                EQUALS   MAGVEC2    +2                         #  I(6)TMP
001654: E5,1642  E5,1727               SNTH               EQUALS   UR1        +6                         #  I(2)TMP
001655: E5,1642  E5,1731               CSTH               EQUALS   SNTH       +2                         #  I(2)TMP
001656: E5,1642  E5,1733               1-CSTH             EQUALS   CSTH       +2                         #  I(2)TMP
001657: E5,1642  E5,1735               CSTH-RHO           EQUALS   1-CSTH     +2                         #  I(2)TMP
001658: E5,1642  E5,1737               P                  EQUALS   CSTH-RHO   +2                         #  I(2)TMP
001659: E5,1642  E5,1741               R1A                EQUALS   P          +2                         #  I(2)TMP
001660: E5,1642  E5,1654               RVEC               EQUALS   R1VEC                                 #  I(6)TMP
001661: E5,1642  E5,1743               VVEC               EQUALS   R1A        +2                         #  I(6)TMP
001662: E5,1642  E5,1710               RTNTT              EQUALS   RTNLAMB                               #  I(1)TMP
001663: E5,1642  E5,1751               ECC                EQUALS   VVEC       +6                         #  I(2)TMP
001664: E5,1642  E5,1710               RTNTR              EQUALS   RTNLAMB                               #  I(1)TMP
001665: E5,1642  E5,1710               RTNAPSE            EQUALS   RTNLAMB                               #  I(1)TMP
001666: E5,1642  E5,1717               R2                 EQUALS   MAGVEC2                               #  I(2)TMP
001667: E5,1642  E5,1753               RTNPRM             EQUALS   ECC        +2                         #  I(1)TMP
001668: E5,1642  E5,1754               SGNRDOT            EQUALS   RTNPRM     +1                         #  I(1)TMP
001669: E5,1642  E5,1755               RDESIRED           EQUALS   SGNRDOT    +1                         #  I(2)TMP
001670: E5,1642  E5,1757               DELDEP             EQUALS   RDESIRED   +2                         #  I(2)TMP
001671: E5,1642  E5,1761               DEPREV             EQUALS   DELDEP     +2                         #  I(2)TMP
001672: E5,1642  E5,1757               TERRLAMB           EQUALS   DELDEP                                #  I(2)TMP
001673: E5,1642  E5,1761               TPREV              EQUALS   DEPREV                                #  I(2)TMP
001674: E5,1642  E5,1763               EPSILONL           EQUALS   DEPREV     +2                         #  I(2)TMP
001675: E5,1642  E5,1765               COGA               EQUALS   EPSILONL   +2                         #  I(2) COTAN OF INITIAL FLIGHT PATH ANGLE.
001676: E5,1642  E5,1765               INDEP              EQUALS   COGA                                  #       USED BY SUBROUTINE'ITERATOR'.
001677:


001679:                                                                                                  #  *******  OVERLAY NUMBER 3 IN EBANK 5  *******
001680:
001681:
001682:                                                                                                  #           INCORP STORAGE.                                                (18D)
001683:
001684: E5,1642  E5,1642               ZI                 EQUALS   ENDW                                  #  I(18)TMP
001685:
001686:                                                                                                  #           INCORP/LSR22.3 STORAGE.                                        (21D)
001687:
001688: E5,1642  E5,1664               DELTAX             EQUALS   ZI         +18D                       #  I(18)
001689: E5,1642  E5,1706               VARIANCE           EQUALS   DELTAX     +18D                       #  I(3)
001690:
001691:                                                                                                  #           MEASUREMENT INCORPORATION -R22- STORAGE.                       (49D)
001692:
001693: E5,1642  E5,1711               GRP2SVQ            EQUALS   VARIANCE   +3                         #  I(1)TMP QSAVE FOR RESTARTS
001694: E5,1642  E5,1712               OMEGAM1            EQUALS   GRP2SVQ    +1                         #  I(6)
001695: E5,1642  E5,1720               OMEGAM2            EQUALS   OMEGAM1    +6                         #  I(6)
001696: E5,1642  E5,1726               OMEGAM3            EQUALS   OMEGAM2    +6                         #  I(6)
001697: E5,1642  E5,1734               HOLDW              EQUALS   OMEGAM3    +6                         #  I(18)
001698: E5,1642  E5,1756               TDPOS              EQUALS   HOLDW      +18D                       #  I(6)
001699: E5,1642  E5,1764               TDVEL              EQUALS   TDPOS      +6                         #  I(6)
001700:
001701:
001702: E5,1642  E5,1664               TRIPA              EQUALS   DELTAX                                #  I(3)TMP
001703: E5,1642  E5,1667               TEMPVAR            EQUALS   TRIPA      +3                         #  I(3)TMP
001704:
001705:
001706:
001707:
001708:                                                                                                  #           INCORPORATION/INTEGRATION Q STORAGE.                           (1D)
001709:
001710: E5,1642  E5,1772               EGRESS             EQUALS   TDVEL      +6                         #  I(1)
001711:
001712:
001713:
001714:                                                                                                  #           P30/P31 STORAGE.                                               (1D) AND ONE OVERLAY
001715:
001716: E5,1642  E5,1773               P30EXIT            EQUALS   EGRESS     +1                         #  B(1)TMP
001717:
001718:
001719: E5,1642  E5,1773               ORIGIN             EQUALS   P30EXIT                               #  I(1)TMP  INDEX DURING INITVEL
001720:
001721:


001723:                                                                                                  #           SYSTEM TEST ERASABLES.  CAN OVERLAY W MATRIX.                  (127D)
001724:
001725:                                                                                                  #  *******  OVERLAY NUMBER 0 IN EBANK 5  *******
001726:
001727:
001728: E5,1642  E5,1400               AZIMUTH            EQUALS   W                                     #  2
001729: E5,1642  E5,1402               LATITUDE           EQUALS   AZIMUTH    +2                         #  2
001730: E5,1642  E5,1404               ERVECTOR           EQUALS   LATITUDE   +2                         #  6
001731: E5,1642  E5,1412               LENGTHOT           EQUALS   ERVECTOR   +6                         #  1
001732: E5,1642  E5,1413               LOSVEC             EQUALS   LENGTHOT   +1                         #  6
001733: E5,1642  E5,1414               NDXCTR             EQUALS   LOSVEC     +1                         #  1
001734: E5,1642  E5,1415               PIPINDEX           EQUALS   NDXCTR     +1                         #  1
001735: E5,1642  E5,1416               POSITON            EQUALS   PIPINDEX   +1                         #  1
001736: E5,1642  E5,1417               QPLACE             EQUALS   POSITON    +1                         #  1
001737: E5,1642  E5,1420               QPLACES            EQUALS   QPLACE     +1                         #  1
001738: E5,1642  E5,1421               SOUTHDR            EQUALS   QPLACES    +1                         #  7
001739: E5,1642  E5,1430               TEMPTIME           EQUALS   SOUTHDR    +7                         #  2
001740: E5,1642  E5,1432               TMARK              EQUALS   TEMPTIME   +2                         #  2
001741: E5,1642  E5,1434               GENPL              EQUALS   TMARK      +2
001742: E5,1642  E5,1434               CDUTIMEI           =        GENPL
001743: E5,1642  E5,1436               CDUTIMEF           =        GENPL      +2
001744: E5,1642  E5,1440               CDUDANG            =        GENPL      +4
001745: E5,1642  E5,1441               CDUREADF           =        GENPL      +5
001746: E5,1642  E5,1442               CDUREADI           =        GENPL      +6
001747: E5,1642  E5,1443               CDULIMIT           =        GENPL      +7
001748:
001749: E5,1642  E5,1440               TEMPADD            =        GENPL      +4
001750: E5,1642  E5,1441               TEMP               =        GENPL      +5
001751: E5,1642  E5,1442               NOBITS             =        GENPL      +6
001752: E5,1642  E5,1443               CHAN               =        GENPL      +7
001753:
001754: E5,1642  E5,1444               LOS1               =        GENPL      +8D
001755: E5,1642  E5,1452               LOS2               =        GENPL      +14D
001756:
001757: E5,1642  E5,1460               CALCDIR            EQUALS   GENPL      +20D
001758: E5,1642  E5,1461               CDUFLAG            EQUALS   GENPL      +21D
001759: E5,1642  E5,1462               GYTOBETQ           EQUALS   GENPL      +22D
001760: E5,1642  E5,1463               OPTNREG            EQUALS   GENPL      +23D
001761: E5,1642  E5,1464               SAVE               EQUALS   GENPL      +24D                       #  THREE  ONSEC LOC
001762: E5,1642  E5,1467               SFCONST1           EQUALS   GENPL      +27D
001763: E5,1642  E5,1470               TIMER              EQUALS   GENPL      +28D
001764:
001765: E5,1642  E5,1472               DATAPL             EQUALS   GENPL      +30D
001766: E5,1642  E5,1434               RDSP               EQUALS   GENPL                                 #  FIX LA ER   POSSIBLY KEEP1
001767: E5,1642  E5,1534               MASKREG            EQUALS   GENPL      +64D
001768: E5,1642  E5,1536               CDUNDX             EQUALS   GENPL      +66D
001769: E5,1642  E5,1537               RESULTCT           EQUALS   GENPL      +67D
001770: E5,1642  E5,1542               COUNTPL            EQUALS   GENPL      +70D
001771:
001772: E5,1642  E5,1543               CDUANG             EQUALS   GENPL      +71D


001774: E5,1642  E5,1434               AINLA              =        GENPL                                 #  110 DE  OR 156 OCT LOCATIONS
001775:
001776: E5,1642  E5,1434               WANGO              EQUALS   AINLA                                 #  VERT E ATE
001777: E5,1642  E5,1436               WANGI              EQUALS   AINLA      +2D                        #  HORIZO TAL ERATE
001778: E5,1642  E5,1440               WANGT              EQUALS   AINLA      +4D                        #  T
001779: E5,1642  E5,1440               TORQNDX            =        WANGT
001780: E5,1642  E5,1442               DRIFTT             EQUALS   AINLA      +6D
001781: E5,1642  E5,1444               ALX1S              EQUALS   AINLA      +8D
001782: E5,1642  E5,1445               CMPX1              EQUALS   AINLA      +9D                        #  IND
001783: E5,1642  E5,1446               ALK                EQUALS   AINLA      +10D                       #  GAINS
001784: E5,1642  E5,1462               VLAUNS             EQUALS   AINLA      +22D
001785: E5,1642  E5,1464               WPLATO             EQUALS   AINLA      +24D
001786: E5,1642  E5,1470               INTY               EQUALS   AINLA      +28D                       #  SOUTH  IP INTE
001787: E5,1642  E5,1472               ANGZ               EQUALS   AINLA      +30D                       #  EAST A IS
001788: E5,1642  E5,1474               INTZ               EQUALS   AINLA      +32D                       #  EAST P P I
001789: E5,1642  E5,1476               ANGY               EQUALS   AINLA      +34D                       #  SOUTH
001790: E5,1642  E5,1500               ANGX               EQUALS   AINLA      +36D                       #  VE
001791: E5,1642  E5,1502               DRIFTO             EQUALS   AINLA      +38D                       #  VERT
001792: E5,1642  E5,1504               DRIFTI             EQUALS   AINLA      +40D                       #  SOU
001793: E5,1642  E5,1510               VLAUN              EQUALS   AINLA      +44D
001794: E5,1642  E5,1512               ACCWD              EQUALS   AINLA      +46D
001795: E5,1642  E5,1520               POSNV              EQUALS   AINLA      +52D
001796: E5,1642  E5,1522               DPIPAY             EQUALS   AINLA      +54D                       #  SOUTH
001797: E5,1642  E5,1526               DPIPAZ             EQUALS   AINLA      +58D                       #  NORTH  IP INCREMENT
001798: E5,1642  E5,1530               ALTIM              EQUALS   AINLA      +60D
001799: E5,1642  E5,1531               ALTIMS             EQUALS   AINLA      +61D                       #   INDEX
001800: E5,1642  E5,1532               ALDK               EQUALS   AINLA      +62D                       #   TIME  ONSTAN
001801: E5,1642  E5,1550               DELM               EQUALS   AINLA      +76D
001802: E5,1642  E5,1560               WPLATI             EQUALS   AINLA      +84D
001803: E5,1642  E5,1562               GEOCOMPS           EQUALS   AINLA      +86D
001804: E5,1642  E5,1563               ERCOMP             EQUALS   AINLA      +87D
001805: E5,1642  E5,1571               ZERONDX            EQUALS   AINLA      +93D
001806:
001807:
001808: E5,1642  E5,1452               THETAN             =        ALK        +4
001809: E5,1642  E5,1460               FILDELV            EQUALS   THETAN     +6                         #   AGS ALIGNMENT STORAGE
001810: E5,1642  E5,1462               INTVEC             EQUALS   FILDELV    +2
001811: E5,1642  E5,1572               1SECXT             =        AINLA      +94D
001812: E5,1642  E5,1573               ASECXT             =        AINLA      +95D
001813: E5,1642  E5,1574               PERFDLAY           EQUALS   AINLA      +96D                       #  B(2) DELAY TIME BEF. START DRIFT MEASURE
001814: E5,1642  E5,1576               OVFLOWCK           EQUALS   AINLA      +98D                       #  (1) SET MEANS OVERFLOW IN IMU PERF TEST
001815:                                                                                                  #      AND CAUSES TERMINATION
001816:
001817:
001818: E5,1642  E5,1774               END-E5             EQUALS   STARSAV2   +6                         #  *** FIRST FREE LOCATION IN E5***
001819:


001821:                                                                                                  #           EBANK-6 ASSIGNMENTS.
001822:
001823: E6,1400                                           SETLOC   3000
001824:
001825:                                                                                                  #           DAP PAD-LOADED DATA.                                           (10D)
001826:
001827:                                                                                                  #    ALL OF THE FOLLOWING EXCEPT PITTIME AND ROLLTIME ARE INITIALIZED IN FRESH START TO PERMIT IMMEDIATE USE OF DAP
001828:
001829: E6,1400                        HIASCENT           ERASE                                          #  (1) MASS AFTER STAGING, SCALE AT B16 KG.
001830: E6,1401                        ROLLTIME           ERASE                                          #  (1) TIME TO TRIM Z GIMBAL IN R03, CSEC.
001831: E6,1402                        PITTIME            ERASE                                          #  (1) TIME TO TRIM Y GIMBAL IN R03, CSEC.
001832: E6,1403                        DKTRAP             ERASE                                          #  (1) DAP STATE            (POSSIBLE 77001
001833: E6,1404                        DKOMEGAN           ERASE                                          #  (1)   ESTIMATOR PARA-      (VALUES 00012
001834: E6,1405                        DKKAOSN            ERASE                                          #  (1)      METERS FOR THE           00074
001835: E6,1406                        LMTRAP             ERASE                                          #  (1)         DOCKED AND            77001
001836: E6,1407                        LMOMEGAN           ERASE                                          #  (1)            LEM-ALONE CASES    00000
001837: E6,1410                        LMKAOSN            ERASE                                          #  (1)               RESPECTIVELY    00074
001838: E6,1411                        DKDB               ERASE                                          #  (1) WIDTH OF DEADBAND FOR DOCKED RCS
001839:                                                                                                  #      AUTOPILOT (DB=1.4DEG IN FRESH START)
001840:                                                                                                  #      DEADBAND = PI/DKDB RAD.
001841:
001842:                                                                                                  #  PADLOADS FOR INITIALIZATION OF DAP BIAS ACCELERATION (AT P12 IGNITION)  (2D)
001843:
001844: E6,1412                        IGNAOSQ            ERASE                                          #  B(1)PL
001845: E6,1413                        IGNAOSR            ERASE                                          #  B(1)PL
001846:
001847:                                                                                                  #  AXIS TRANSFORMATION MATRIX - GIMBAL TO PILOT AXES:                      (5D)
001848:
001849: E6,1414                        M11                ERASE                                          #  SCALED AT 1
001850: E6,1415                        M21                ERASE                                          #  SCALED AT 1
001851: E6,1416                        M31                ERASE
001852: E6,1417                        M22                ERASE                                          #  SCALED AT 1.
001853: E6,1420                        M32                ERASE                                          #  SCALED AT 1.
001854:
001855:                                                                                                  #  ANGLE MEASUREMENTS.                                                     (31D)
001856:
001857: E6,1421                        OMEGAP             ERASE    +4                                    #  BODY-AXIS ROT. RATES SCALED AT PI/4 AND
001858: E6,1426  E6,1422               OMEGAQ             EQUALS   OMEGAP     +1                         #  BODY-AXIS ACCELERATIONS SCALED AT PI/8
001859: E6,1426  E6,1423               OMEGAR             EQUALS   OMEGAP     +2
001860:                                                                                                  #     RETAIN THE ORDER OF ALPHAQ AND ALPHAR FOR DOWNLINK PURPOSES.
001861: E6,1426  E6,1424               ALPHAQ             EQUALS   OMEGAP     +3
001862: E6,1426  E6,1425               ALPHAR             EQUALS   OMEGAP     +4
001863: E6,1426                        OMEGAU             ERASE    +1
001864: E6,1430  E6,1427               OMEGAV             =        OMEGAU     +1
001865:
001866: E6,1430                        TRAPEDP            ERASE    +5
001867: E6,1436  E6,1431               TRAPEDQ            =        TRAPEDP    +1
001868: E6,1436  E6,1432               TRAPEDR            =        TRAPEDP    +2
001869: E6,1436  E6,1433               NPTRAPS            =        TRAPEDP    +3


001871: E6,1436  E6,1434               NQTRAPS            =        TRAPEDP    +4
001872: E6,1436  E6,1435               NRTRAPS            =        TRAPEDP    +5
001873: E6,1436  E6,1427               EDOTP              =        EDOT
001874: E6,1436                        EDOTQ              ERASE    +1
001875: E6,1440  E6,1437               EDOTR              =        EDOTQ      +1                         #   MANY SHARING NAMES
001876: E6,1440  E6,1436               QRATEDIF           EQUALS   EDOTQ                                 #  ALTERNATIVE NAMES:
001877: E6,1440  E6,1437               RRATEDIF           EQUALS   EDOTR                                 #  DELETE WHEN NO. OF REFERENCES = 0
001878:
001879: E6,1440  E6,1426               URATEDIF           EQUALS   OMEGAU
001880: E6,1440  E6,1427               VRATEDIF           EQUALS   OMEGAV
001881: E6,1440                        OLDXFORP           ERASE    +2                                    #  STORED CDU READINGS FOR STATE
001882: E6,1443  E6,1441               OLDYFORP           EQUALS   OLDXFORP   +1                         #  DERIVATIONS: SCALED AT PI RADIANS (2'S)
001883: E6,1443  E6,1442               OLDZFORQ           EQUALS   OLDXFORP   +2
001884:                                                                                                  #  RATE-COMMAND AND MINIMUM IMPULSE MODES
001885:
001886: E6,1443                        CH31TEMP           ERASE
001887: E6,1444                        STIKSENS           ERASE
001888: E6,1445                        TCP                ERASE
001889: E6,1446                        DXERROR            ERASE    +5
001890: E6,1454  E6,1450               DYERROR            EQUALS   DXERROR    +2
001891: E6,1454  E6,1452               DZERROR            EQUALS   DXERROR    +4
001892: E6,1454                        PLAST              ERASE
001893: E6,1455                        QLAST              ERASE
001894: E6,1456                        RLAST              ERASE
001895: E6,1457                        TCQR               ERASE
001896:
001897:                                                                                                  #  OTHER VARIABLES.                                                        (5D)
001898:
001899: E6,1460                        OLDPMIN            ERASE                                          #  THESE THREE USED IN MIN IMPULSE MODE.
001900: E6,1461                        OLDQRMIN           ERASE
001901: E6,1462  E6,1737               TEMP31             EQUALS   DAPTEMP1
001902:
001903: E6,1462                        SAVEHAND           ERASE    +1
001904: E6,1464                        PERROR             ERASE
001905: E6,1465  E6,1450               QERROR             EQUALS   DYERROR
001906: E6,1465  E6,1452               RERROR             EQUALS   DZERROR
001907:                                                                                                  #  JET STATE CHANGE VARIABLES- TIME (TOFJTCHG),JET BITS WRITTEN NOW        (10D)
001908:                                                                                                  #    (JTSONNOW), AND JET BITS WRITTEN AT T6 RUPT (JTSATCHG).
001909:
001910: E6,1465                        NXT6ADR            ERASE
001911: E6,1466                        T6NEXT             ERASE    +1
001912: E6,1470                        T6FURTHA           ERASE    +1
001913: E6,1472                        NEXTP              ERASE    +2
001914: E6,1475  E6,1473               NEXTU              =        NEXTP      +1
001915: E6,1475  E6,1474               NEXTV              =        NEXTP      +2
001916: E6,1475                        -2JETLIM           ERASE    +1                                    #  RATE COMMAND 4-JET RATE DIFFERENCE LIMIT
001917: E6,1477  E6,1476               -RATEDB            EQUALS   -2JETLIM   +1                         #  AND RATE DEADBAND FOR ASCENT OR DESCENT
001918:
001919: E6,1477  E6,1476               TARGETDB           EQUALS   -RATEDB                               #  MAN. CONTROL TARGET DB COMPLEMENT.
001920:
001921:                                                                                                  #       ***Q,R AXIS ERASABLES ***                                          (3)


001923: E6,1477     4742               PBIT               EQUALS   BIT10
001924: E6,1477     4741               QRBIT              EQUALS   BIT11
001925: E6,1477  E6,1751               UERROR             EQUALS   DAPTREG5                              #  U,V-AXES ATT ERROR FOR RCS CONTROL LAWS
001926: E6,1477  E6,1752               VERROR             =        UERROR     +1
001927: E6,1477                        RETJADR            ERASE
001928: E6,1500  E6,1742               TEMPNUM            EQUALS   DAPTEMP4
001929: E6,1500  E6,1743               NUMBERT            EQUALS   DAPTEMP5
001930: E6,1500  E6,1744               ROTINDEX           EQUALS   DAPTEMP6
001931: E6,1500  E6,1737               ROTEMP1            EQUALS   DAPTEMP1
001932: E6,1500  E6,1740               ROTEMP2            EQUALS   DAPTEMP2
001933: E6,1500  E6,1741               POLYTEMP           EQUALS   DAPTEMP3
001934: E6,1500                        SENSETYP           ERASE
001935: E6,1501  E6,1737               ABSTJ              EQUALS   DAPTEMP1                              #  ABS VALUE OF JET-FIRING TIME
001936: E6,1501  E6,1737               ABSEDOTP           EQUALS   DAPTEMP1
001937:
001938: E6,1501  E6,1750               DPSBURN            EQUALS   DAPTREG4                              #  USED WITH SNUFFBIT. VERY TEMPORARY.
001939:


001941:                                                                                                  #  TRIM GIMBAL CONTROL LAW ERASABLES:                                      (11D)
001942:
001943: E6,1501  E6,1737               GTSTEMPS           EQUALS   DAPTEMP1                              #  GTS IS PART OF THE JASK.
001944: E6,1501  E6,1741               SHFTFLAG           EQUALS   GTSTEMPS   +2                         #  COUNT BITS FOR GTSQRT SHIFTING.
001945: E6,1501  E6,1744               ININDEX            EQUALS   GTSTEMPS   +5                         #  INDEX FOR SHIFT LOOP IN GTSQRT.
001946:
001947: E6,1501  E6,1505               SAVESR             EQUALS   AXISCTR                               #  CANNOT BE A DAPTEMP - GTS USES THEM ALL.
001948:
001949: E6,1501  E6,1746               SCRATCH            EQUALS   GTSTEMPS   +7                         #  ROOTCYCL ERASABLE
001950: E6,1501  E6,1747               HALFARG            EQUALS   GTSTEMPS   +8D                        #  ROOTCYCL ERASABLE.
001951:
001952: E6,1501  E6,1737               K2THETA            EQUALS   GTSTEMPS                              #  D.P., K*ERROR, NEGUSUM
001953: E6,1501  E6,1741               KCENTRAL           EQUALS   GTSTEMPS   +2                         #  S.P., K FROM KQ OR KRDAP, AT PI/2(8)
001954: E6,1501  E6,1742               K2CNTRAL           EQUALS   GTSTEMPS   +3                         #  D.P., GTS SCRATCH CELLS.
001955: E6,1501  E6,1743               WCENTRAL           EQUALS   GTSTEMPS   +4                         #  S.P., OMEGA, AT PI/4 RAD/SEC
001956: E6,1501  E6,1744               ACENTRAL           EQUALS   GTSTEMPS   +5                         #  S.P., ALPHA, AT PI/4 RAD/SEC(2)
001957: E6,1501  E6,1745               DEL                EQUALS   GTSTEMPS   +6                         #  S.P., SGN FUNCTION VALUE.
001958: E6,1501  E6,1746               A2CNTRAL           EQUALS   GTSTEMPS   +7                         #  D.P., GTS SCRATCH CELLS.
001959: E6,1501  E6,1750               QRCNTR             EQUALS   GTSTEMPS   +9D                        #  S.P.,INDEX FOR GTS LOOP THROUGH Q,R AXES
001960: E6,1501  E6,1751               FUNCTION           EQUALS   GTSTEMPS   +10D                       #  D.P.,ARGUMENT FOR GRSQRT, SCRATCH FOR GTS
001961:
001962: E6,1501                        NEGUQ              ERASE    +2                                    #  NEGATIVE OF Q-AXIS GIMBAL DRIVE
001963:                                                                                                  #                                NEGUQ +1                            DEFINED AND USED ELSEWHERE
001964: E6,1504  E6,1503               NEGUR              EQUALS   NEGUQ      +2                         #  NEGATIVE OF R-AXIS GIMBAL DRIVE
001965:
001966: E6,1504                        KQ                 ERASE    +2                                    #  S.P.,JERK TERM FOR GTS, AT PI/2(8)
001967: E6,1507  E6,1505               AXISCTR            EQUALS   KQ         +1
001968: E6,1507  E6,1506               KRDAP              EQUALS   KQ         +2                         #  .3 ACCDOTR SCALED AT PI/2(8)
001969:
001970: E6,1507                        ACCDOTQ            ERASE    +3                                    #  Q-JERK SCALED AT PI/2(7) UNSIGNED
001971: E6,1513  E6,1510               QACCDOT            EQUALS   ACCDOTQ    +1                         #  Q-JERK SCALED AT PI/2(7) SIGNED
001972: E6,1513  E6,1511               ACCDOTR            EQUALS   ACCDOTQ    +2                         #  R-JERK SCALED AT PI/2(7) UNSIGNED
001973: E6,1513  E6,1512               RACCDOT            EQUALS   ACCDOTQ    +3                         #  R-JERK SCALED AT PI/2(7) SIGNED
001974:
001975: E6,1513  E6,1450               QDIFF              EQUALS   QERROR                                #  ATTITUDE ERRORS:
001976: E6,1513  E6,1452               RDIFF              EQUALS   RERROR                                #  SCALED AT PI RADIANS
001977:
001978:
001979:
001980:
001981:                                                                                                  #  TORQUE VECTOR RECONSTRUCTION VARIABLES:                                 (18D)
001982:
001983: E6,1513  E6,1745               JETRATE            EQUALS   DAPTREG1
001984: E6,1513  E6,1746               JETRATEQ           EQUALS   JETRATE    +1                         #  THE LAST CONTROL SAMPLE PERIOD OF 100 MS
001985: E6,1513  E6,1747               JETRATER           EQUALS   JETRATE    +2                         #  SCALED AT PI/4 RADIANS/SECOND
001986:
001987: E6,1513                        DOWNTORK           ERASE    +5                                    #  ACCUMULATED JET TORQUE COMMANDED ABOUT
001988: E6,1521  E6,1513               POSTORKP           EQUALS   DOWNTORK                              #    +,-P, +,-U, +,-V RESPECTIVELY.
001989: E6,1521  E6,1514               NETTOTKP           EQUALS   DOWNTORK   +1                         #    EMPLOYED EXCLUSIVELY FOR DOWNLIST.
001990: E6,1521  E6,1515               POSTORKU           EQUALS   DOWNTORK   +2                         #    NOT INITIALIZED: PERMITTED TO OVERFLOW


001992: E6,1521  E6,1516               NEGTORKU           EQUALS   DOWNTORK   +3                         #  SCALED AT 32 JET-SEC, OR ABOUT 2.0 JET-
001993: E6,1521  E6,1517               POSTORKV           EQUALS   DOWNTORK   +4                         #      MSEC PER BIT.
001994: E6,1521  E6,1520               NEGTORKV           EQUALS   DOWNTORK   +5
001995:
001996: E6,1521                        NO.PJETS           ERASE    +2
001997: E6,1524  E6,1522               NO.UJETS           =        NO.PJETS   +1
001998: E6,1524  E6,1523               NO.VJETS           =        NO.UJETS   +1
001999: E6,1524                        TJP                ERASE    +2
002000: E6,1527  E6,1525               TJU                =        TJP        +1
002001: E6,1527  E6,1526               TJV                =        TJP        +2
002002:
002003: E6,1527                        L,PVT-CG           ERASE
002004: E6,1530                        1JACC              ERASE    +4                                    #  ACCELERATIONS DUE TO 1 JET TORQUING
002005: E6,1535  E6,1531               1JACCQ             EQUALS   1JACC      +1                         #  SCALED AT PI/4 RADIANS/SECOND
002006: E6,1535  E6,1532               1JACCR             EQUALS   1JACC      +2
002007: E6,1535  E6,1533               1JACCU             EQUALS   1JACC      +3                         #  FOR U,V-AXES THE SCALE FACTOR IS  DIFF:
002008: E6,1535  E6,1534               1JACCV             EQUALS   1JACC      +4                         #  SCALED AT PI/2 RADIANS/SECOND (FOR ASC)
002009:
002010:                                                                                                  #  ASCENT VARIABLES:                                                       (10D)
002011:
002012: E6,1535                        SKIPU              ERASE    +1
002013: E6,1537  E6,1536               SKIPV              =        SKIPU      +1
002014:                                                                                                  #  THE FOLLOWING LM DAP ERASABLES ARE ZEROED IN THE STARTDAP SECTION OF THE DAPIDLER PROGRAM AND THE COASTASC
002015:                                                                                                  #  SECTION OF THE AOSTASK.  THE ORDER MUST BE PRESERVED FOR THE INDEXING METHODS WHICH ARE EMPLOYED IN THOSE
002016:                                                                                                  #  SECTIONS AND ELSEWHERE.
002017:
002018: E6,1537                        AOSQ               ERASE    +5                                    #  OFFSET ACC. ESTIMATES, UPDATED IN D.P.,
002019: E6,1545  E6,1541               AOSR               EQUALS   AOSQ       +2                         #  AND SCALED AT PI/2.
002020: E6,1545  E6,1543               AOSU               EQUALS   AOSQ       +4                         #  UV-AXES OFFSET ACC. FROMED BY VECTOR
002021: E6,1545  E6,1544               AOSV               EQUALS   AOSQ       +5                         #  ADDITION OF Q,R.  AT PI/2 RAD/SEC(2).
002022:
002023: E6,1545                        AOSQTERM           ERASE    +1                                    #  (.1-.05K)AOS
002024: E6,1547  E6,1546               AOSRTERM           EQUALS   AOSQTERM   +1                         #  SCALED AT PI/4 RADIANS/SECOND.
002025:
002026:                                                                                                  #  FOR TJET LAW SUBROUTINE:                                                (TEMPS ONLY)
002027:
002028:                                                                                                  # NUMBERT        EQUALS          DAPTEMP5                          DEFINED IN QRAXIS.
002029: E6,1547  E6,1737               EDOTSQ             EQUALS   DAPTEMP1
002030: E6,1547  E6,1740               ROTSENSE           EQUALS   DAPTEMP2
002031: E6,1547  E6,1741               FIREFCT            EQUALS   DAPTEMP3                              #  LOOKED AT BY PAXIS.
002032: E6,1547  E6,1742               TTOAXIS            EQUALS   DAPTEMP4
002033: E6,1547  E6,1744               ADRSDIF2           EQUALS   DAPTEMP6
002034: E6,1547  E6,1745               HOLDQ              EQUALS   DAPTREG1
002035: E6,1547  E6,1746               ADRSDIF1           EQUALS   DAPTREG2
002036: E6,1547  E6,1747               HH                 EQUALS   DAPTREG3                              #  DOUBLE PRECISION
002037:                                                                                                  # HH +1          EQUALS          DAPTREG4
002038: E6,1547  E6,1752               E                  EQUALS   DAPTREG6                              #  TIME SHARE WITH VERROR
002039: E6,1547  E6,1427               EDOT               EQUALS   OMEGAV
002040:


002042:                                                                                                  #  INPUT TO TJET LAW (PERMANENT ERASABLES).                                (48D)
002043:
002044: E6,1547  E6,1525               TJETU              =        TJU                                   #  EQUATE NAMES.  INDEXED BY -1, 0, +1.
002045: E6,1547                        BLOCKTOP           ERASE    +47D
002046: E6,1627  E6,1567               1/ANET1            =        BLOCKTOP   +16D                       #  THESE 8 PARAMETERS ARE SET UP BY 1/ACCS
002047: E6,1627  E6,1570               1/ANET2            =        1/ANET1    +1                         #  FOR MINIMUM JETS ABOUT THE U-AXIS WHEN
002048: E6,1627  E6,1573               1/ACOAST           =        1/ANET1    +4                         #  EDOT IS POSITIVE.  TJETLAW INDEXES BY
002049: E6,1627  E6,1575               ACCFCTZ1           =        1/ANET1    +6                         #  ADRSDIFF FROM THESE REGISTERS TO PICK UP
002050: E6,1627  E6,1576               ACCFCTZ5           =        1/ANET1    +7                         #  PARAMETERS FOR THE PROPER AXIS, NUMBER
002051: E6,1627  E6,1601               FIREDB             =        1/ANET1    +10D                       #  OF JETS AND SIGN OF EDOT.  THERE ARE 48
002052: E6,1627  E6,1603               COASTDB            =        1/ANET1    +12D                       #  REGISTERS IN ALL IN THIS BLOCK.
002053: E6,1627  E6,1605               AXISDIST           =        1/ANET1    +14D                       #  FOUR NOT REFERENCED (P-AXIS) ARE FILLED
002054:                                                                                                  #    IN BY THE FOLLOWING:
002055: E6,1627  E6,1547               ACCSWU             =        BLOCKTOP                              #  SET BY 1/ACCS TO SHOW WHETHER MAXIMUM
002056: E6,1627  E6,1550               ACCSWV             =        ACCSWU     +1                         #  JETS ARE REQUIRED BECAUSE OF AOS.
002057: E6,1627  E6,1555               FLAT               =        BLOCKTOP   +6                         #  WIDTH OF MINIMUM IMPULSE ZONE.
002058: E6,1627  E6,1556               ZONE3LIM           =        BLOCKTOP   +7                         #  HEIGHT OF MINIMUM IMPULSE ZONE(AT 4 SEC)
002059:
002060: E6,1627                        COEFFQ             ERASE    +1                                    #  COEFFQ AND COEFFR ARE USED IN ROT-TOUV
002061: E6,1631  E6,1630               COEFFR             EQUALS   COEFFQ     +1                         #  TO RESOLVE Q,R COMPONENTS INTO U,V COMP.
002062:
002063:                                                                                                  #  VARIABLES FOR GTS-QRAXIS CONTROL EXCHANGE.                               (4)
002064:
002065: E6,1631  E6,1502               ALLOWGTS           EQUALS   NEGUQ      +1                         #  INSERT INTO UNUSED LOCATION
002066: E6,1631                        COTROLER           ERASE                                          #  INDICATES WHICH CONTROL SYSTEM TO USE.
002067: E6,1632                        QGIMTIMR           ERASE    +2                                    #  Q-GIMBAL DRIVE ITMER, DECISECONDS.
002068: E6,1635  E6,1633               INGTS              EQUALS   QGIMTIMR   +1                         #  INDICATOR OF CURRENT GTS CONTROL.
002069: E6,1635  E6,1634               RGIMTIMR           EQUALS   QGIMTIMR   +2                         #  R-GIMBAL DRIVE TIMER, DECISECONDS.
002070:
002071:                                                                                                  #  PLEASE RETAIN THE ORDER OF CDUXD THRU CDUZD FOR DOWNLINK PURPOSES.
002072:
002073:                                                                                                  #           KALCMANU:DAP INTERFACE.                                        (9D)
002074:
002075: E6,1635                        CDUXD              ERASE    +2                                    #  CDU DESIRED REGISTERS:
002076: E6,1640  E6,1636               CDUYD              EQUALS   CDUXD      +1                         #  SCALED AT PI RADIANS (180 DEGREES)
002077: E6,1640  E6,1637               CDUZD              EQUALS   CDUXD      +2                         #  (STORE IN 2S COMPLEMENT)
002078:
002079: E6,1640                        DELCDUX            ERASE    +2                                    #  NEGATIVE OF DESIRED 100MS CDU INCREMENT:
002080: E6,1643  E6,1641               DELCDUY            EQUALS   DELCDUX    +1                         #  SCALED AT PI RADIANS (180 DEGREES)
002081: E6,1643  E6,1642               DELCDUZ            EQUALS   DELCDUX    +2                         #  (STORE IN 2S COMPLEMENT)
002082:
002083:                                                                                                  #     RETAIN THE ORDER OF OMEGAPD TO OMEGARD FOR DOWNLINK PURPOSES.
002084: E6,1643                        OMEGAPD            ERASE    +2                                    #  ATTITUDE MANEUVER DESIRED RATES:
002085: E6,1646  E6,1644               OMEGAQD            EQUALS   OMEGAPD    +1                         #  (NOT EXPLICITLY REFERENCED IN GTS CNTRL)
002086: E6,1646  E6,1645               OMEGARD            EQUALS   OMEGAPD    +2                         #  SCALED AT PI/4 RADIANS/SECOND
002087:
002088:                                                                                                  #           KALCMANU STORAGE.                                              (24D)
002089:
002090: E6,1646                        MIS                ERASE    +23D                                  #  I(18D)


002092: E6,1676  E6,1670               COF                EQUALS   MIS        +18D                       #  I(6)
002093:
002094:                                                                                                  #           KALCMANU STORAGE.                                              (33D)
002095:
002096: E6,1676                        BCDU               ERASE    +30D                                  #  B(3)
002097: E6,1735  E6,1701               KSPNDX             EQUALS   BCDU       +3                         #  B(1)
002098: E6,1735  E6,1702               KDPNDX             EQUALS   KSPNDX     +1                         #  B(1)
002099:
002100: E6,1735  E6,1703               TMIS               EQUALS   KDPNDX     +1                         #  I(18) MUST BE IN SAME BANK AS RCS DAP
002101: E6,1735  E6,1725               COFSKEW            EQUALS   TMIS       +18D                       #  I(6)  MUST BE IN SAME BANK AS RCS DAP
002102: E6,1735  E6,1733               CAM                EQUALS   COFSKEW    +6                         #  I(2)  MUST BE IN SAME BANK AS RCS DAP
002103:
002104: E6,1735                        AM                 ERASE    +1                                    #  I(2) THIS WAS ONCE IN E5 OVERLAYING OGC
002105:
002106:
002107:                                                                                                  #  FIRST-ORDER OVERLAYS IN KALCMANU                                        (25D)
002108:
002109: E6,1737  E6,1703               KV1                EQUALS   TMIS                                  #  I(6)
002110: E6,1737  E6,1703               MFISYM             EQUALS   TMIS                                  #  I
002111: E6,1737  E6,1703               TMFI               EQUALS   TMIS                                  #  I
002112: E6,1737  E6,1703               NCDU               EQUALS   TMIS                                  #  B
002113: E6,1737  E6,1706               NEXTIME            EQUALS   TMIS       +3                         #  B
002114: E6,1737  E6,1707               TTEMP              EQUALS   TMIS       +4                         #  B
002115: E6,1737  E6,1711               KV2                EQUALS   TMIS       +6                         #  I(6)
002116: E6,1737  E6,1711               BIASTEMP           EQUALS   TMIS       +6                         #  B
002117: E6,1737  E6,1717               KV3                EQUALS   TMIS       +12D                       #  I(6)
002118: E6,1737  E6,1717               OGF                EQUALS   TMIS       +12D                       #  I
002119:
002120: E6,1737  E6,1725               BRATE              EQUALS   COFSKEW                               #  B
002121: E6,1737  E6,1725               IG                 EQUALS   COFSKEW                               #  I
002122:
002123: E6,1737  E6,1733               TM                 EQUALS   CAM                                   #  B
002124:
002125:                                                                                                  #  SECOND-ORDER OVERLAYS IN KALCMANU                                       (24D)
002126:
002127: E6,1737  E6,1703               K1                 =        KV1
002128: E6,1737  E6,1711               K2                 =        KV2
002129: E6,1737  E6,1717               K3                 =        KV3
002130: E6,1737  E6,1703               P21                EQUALS   KV1                                   #  I(2)
002131: E6,1737  E6,1705               D21                EQUALS   KV1        +2                         #  I(2)
002132: E6,1737  E6,1707               G21                EQUALS   KV1        +4                         #  I(2)
002133: E6,1737  E6,1711               C2SQP              EQUALS   KV2                                   #  I(2)
002134: E6,1737  E6,1713               C2SQM              EQUALS   KV2        +2                         #  I(2)
002135: E6,1737  E6,1715               C2PP               EQUALS   KV2        +4                         #  I(2)
002136: E6,1737  E6,1717               C2MP               EQUALS   KV3                                   #  I(2)
002137: E6,1737  E6,1721               C1PP               EQUALS   KV3        +2                         #  I(2)
002138: E6,1737  E6,1723               C1MP               EQUALS   KV3        +4                         #  I(2)


002140: E6,1737  E6,1725               VECQTEMP           =        COFSKEW
002141:
002142: E6,1737  E6,1635               DCDU               =        CDUXD
002143: E6,1737  E6,1640               DELDCDU            =        DELCDUX
002144: E6,1737  E6,1641               DELDCDU1           =        DELCDUY
002145: E6,1737  E6,1642               DELDCDU2           =        DELCDUZ
002146:
002147:
002148:                                                                                                  #  *  *  *  *  *  *  *  *  *  *  *  *  *  *  *  *  *  *  *  *  *  *  *  *
002149:
002150:                                                                                                  #  STORAGE FOR FINDCDUW
002151:
002152:                                                                                                  #           OVERLAYING KALCMANU STORAGE:                                   (26D)
002153:
002154: E6,1737  E6,1646               ECDUW              EQUALS   MIS
002155: E6,1737  E6,1646               ECDUWUSR           EQUALS   ECDUW                                 #  B(1)TMP
002156: E6,1737  E6,1647               QCDUWUSR           EQUALS   ECDUWUSR   +1                         #  I(1)TMP
002157: E6,1737  E6,1650               NDXCDUW            EQUALS   QCDUWUSR   +1                         #  B(1)TMP
002158: E6,1737  E6,1651               FLAGOODW           EQUALS   NDXCDUW    +1                         #  B(1)TMP
002159: E6,1737  E6,1652               FLPAUTNO           EQUALS   FLAGOODW   +1                         #  B(1)TMP
002160: E6,1737  E6,1653               UNFC/2             EQUALS   FLPAUTNO   +1                         #  I(6)IN
002161: E6,1737  E6,1661               UNWC/2             EQUALS   UNFC/2     +6                         #  I(6)IN
002162: E6,1737  E6,1667               UNFV/2             EQUALS   UNWC/2     +6                         #  I(6)S-S
002163: E6,1737  E6,1667               UNFVX/2            =        UNFV/2
002164: E6,1737  E6,1671               UNFVY/2            =        UNFV/2     +2
002165: E6,1737  E6,1673               UNFVZ/2            =        UNFV/2     +4
002166: E6,1737  E6,1675               -DELGMB            EQUALS   UNFV/2     +6                         #  B(3)TMP
002167:
002168:                                                                                                  #           DEFINED IN THE WORK AREA:                                      (18D)
002169:
002170: E6,1737                        UNX/2              =        0
002171: E6,1737                        UNY/2              =        6
002172: E6,1737                        UNZ/2              =        14
002173:
002174:                                                                                                  #  END OF FINDCDUW ERASABLES
002175:
002176:                                                                                                  #  *  *  *  *  *  *  *  *  *  *  *  *  *  *  *  *  *  *  *  *  *  *  *  *
002177:
002178:                                                                                                  #  * * * * * * * * * * * * * * * * * * * * * * * * * * * * * * * * * * * *
002179:
002180:                                                                                                  #  STORAGE FOR P57
002181:
002182:                                                                                                  #           OVERLAYING KALCMANU AND FINDCDUW STORAGE:                      (12D)
002183:
002184: E6,1737  E6,1646               VEC1               EQUALS   MIS                                   #  I(6)TMP
002185: E6,1737  E6,1654               VEC2               EQUALS   VEC1       +6                         #  I(6)TMP
002186:
002187:                                                                                                  #  END OF P57 ERASABLES
002188:
002189:                                                                                                  #  * * * * * * * * * * * * * * * * * * * * * * * * * * * * * * * * * * * *


002191:                                                                                                  #  THE FOLLOWING ARE THE DAP REPLACEMENTS FOR THE ITEMPS AND RUPTREGS,NEEDED BECAUSE DAP IS NOW A TOB,JASK,JAB,TOSK
002192:                                                                                                  #  ...ANYWAY, THE DAP CAN NOW BE INTERRUPTED.                              (18D)
002193:
002194: E6,1737                        DAPTEMP1           ERASE    +17D
002195: E6,1761  E6,1740               DAPTEMP2           EQUALS   DAPTEMP1   +1
002196: E6,1761  E6,1741               DAPTEMP3           EQUALS   DAPTEMP1   +2
002197: E6,1761  E6,1742               DAPTEMP4           EQUALS   DAPTEMP1   +3
002198: E6,1761  E6,1743               DAPTEMP5           EQUALS   DAPTEMP1   +4
002199: E6,1761  E6,1744               DAPTEMP6           EQUALS   DAPTEMP1   +5
002200: E6,1761  E6,1745               DAPTREG1           EQUALS   DAPTEMP1   +6
002201: E6,1761  E6,1746               DAPTREG2           EQUALS   DAPTEMP1   +7
002202: E6,1761  E6,1747               DAPTREG3           EQUALS   DAPTEMP1   +8D
002203: E6,1761  E6,1750               DAPTREG4           EQUALS   DAPTEMP1   +9D
002204: E6,1761  E6,1751               DAPTREG5           EQUALS   DAPTEMP1   +10D
002205: E6,1761  E6,1752               DAPTREG6           EQUALS   DAPTEMP1   +11D
002206:
002207: E6,1761  E6,1753               DAPARUPT           EQUALS   DAPTEMP1   +12D
002208: E6,1761  E6,1754               DAPLRUPT           EQUALS   DAPARUPT   +1
002209: E6,1761  E6,1755               DAPBQRPT           EQUALS   DAPARUPT   +2
002210: E6,1761  E6,1757               DAPZRUPT           EQUALS   DAPARUPT   +4
002211:
002212:                                                                                                  #  (DAPZRUPT IS ALSO JASK-IN-PROGRESS FLAG)
002213:
002214:
002215:
002216:                                                                                                  #           NEEDLER(ATTITUDE ERROR EIGHT BALL DISPLAY) STORAGE.            (6D)
002217:
002218: E6,1761     0061               T5TEMP             EQUALS   ITEMP1
002219: E6,1761     0063               DINDX              EQUALS   ITEMP3
002220: E6,1761                        AK                 ERASE    +2                                    #  NEEDLER ATTITUDE INPUTS, SCALED AT 180
002221: E6,1764  E6,1762               AK1                EQUALS   AK         +1                         #  DEGREES.  P,Q,R AXES IN AK,AK1,AK2.
002222: E6,1764  E6,1763               AK2                EQUALS   AK         +2
002223:
002224: E6,1764                        EDRIVEX            ERASE    +2                                    #  NEEDLER DISPLAY REGS AT 1800 DEGREES.
002225: E6,1767  E6,1765               EDRIVEY            EQUALS   EDRIVEX    +1                         #  SO THAT 384 BITS REPRESENT 42 3/16 DEG.
002226: E6,1767  E6,1766               EDRIVEZ            EQUALS   EDRIVEX    +2
002227:
002228:
002229:                                                                                                  #           DOCKED JET INHIBITION COUNTERS                                 (3D)
002230:
002231: E6,1767                        PJETCTR            ERASE    +2
002232: E6,1772  E6,1770               UJETCTR            EQUALS   PJETCTR    +1
002233: E6,1772  E6,1771               VJETCTR            EQUALS   PJETCTR    +2
002234:
002235: E6,1772  E6,1771               END-E6             EQUALS   VJETCTR
002236:


002238:                                                                                                  #                  EBANK-7 ASSIGNMENTS
002239:
002240: E7,1400                                           SETLOC   3400
002241:
002242:                                                                                                  #           P35 CONSTANTS.         -PAD LOADED-                            (4D)
002243:
002244: E7,1400                        ATIGINC            ERASE    +1                                    #  B(2)PL  *MUST BE AT 1400 FOR SYSTEMSTEST
002245: E7,1402                        PTIGINC            ERASE    +1                                    #  B(2)PL
002246:
002247:
002248:                                                                                                  #           AOTMARK STORAGE.       -PAD LOADED-                            (12D)
002249:
002250: E7,1404                        AOTAZ              ERASE    +5                                    #  B(6)PL
002251: E7,1412                        AOTEL              ERASE    +5                                    #  B(6)PL
002252:
002253:                                                                                                  #           LANDING RADAR.         -PAD LOADED-                            (2D)
002254:
002255: E7,1420                        LRHMAX             ERASE                                          #  B(1)
002256: E7,1421                        LRWH               ERASE                                          #  B(1)
002257:
002258:
002259:
002260:                                                                                                  #           THROTTLE STORAGE.      -PAD LOADED-                            (1D)
002261:
002262: E7,1422                        ZOOMTIME           ERASE                                          #  B(1)PL TIME OF DPS THROTTLE-UP COMMAND
002263:
002264:                                                                                                  #           P63 AND P64 CONSTANTS.    -PAD LOADED-                         (4D)
002265:
002266: E7,1423                        TENDBRAK           ERASE                                          #  B(1) LANDING PHASE SWITCHING CRITERION
002267: E7,1424                        TENDAPPR           ERASE                                          #  B(1) LANDING PHASE SWITCHING CRITERION
002268: E7,1425                        DELTTFAP           ERASE                                          #  B(1) INCREMENT ADDED TO TTF/8 WHEN
002269:                                                                                                  #        SWITCHING FROM P63 TO P64
002270: E7,1426                        LEADTIME           ERASE                                          #  B(1)  TIME INCREMENT SPECIFYING HOW MUCH
002271:                                                                                                  #        GUIDANCE IS PROJECTED FORWARD.
002272:
002273:
002274:                                                                                                  #           LANDING RADAR          -PAD LOADED-                            (2D)
002275:
002276: E7,1427                        RPCRTIME           ERASE                                          #  B(1) REPOSITIONING CRITERION  (TIME)
002277: E7,1430                        RPCRTQSW           ERASE                                          #  B(1) REPOSITIONING CRITERION (ANGLE)
002278:
002279:
002280:                                                                                                  #           ASTEER    -PAD LOADED-                                         (2D)
002281:
002282: E7,1431                        TNEWA              ERASE    +1                                    #  I(2)PL  LAMBERT CYCLE PERIOD
002283:
002284:
002285:                                                                                                  #           P22 STORAGE  - OVERLAYS LANDING PADLOADS -                     (5D)


002287: E7,1433  E7,1423               REPOSCNT           EQUALS   TENDBRAK                              #  B(1)TMP  COUNTS NUMBER OF PASSES THROUGH
002288:                                                                                                  #           REPOSITION ROUTINE.
002289: E7,1433  E7,1424               REPOSTM            EQUALS   REPOSCNT   +1                         #  I(2)TMP  PRESENT TIME PLUS INCREMENTS OF
002290:                                                                                                  #           TEN SECONDS.
002291: E7,1433  E7,1426               DELTATM            EQUALS   REPOSTM    +2                         #  I(2)TMP  TIME INTERVAL FOR RUNNING
002292:                                                                                                  #           DESIGNATE TASK.
002293:
002294:
002295:                                                                                                  #  *** RETAIN THE ORDER OF DELVSLV, TIG, RTARG, DELLT4 FOR UPDATE. ***
002296:
002297:
002298:                                                                                                  #           P32-35  P72-75 STORAGE.                                        (6D)
002299:
002300: E7,1433                        DELVLVC            ERASE    +5                                    #  I(6) DELTA VELOCITY - LOCAL VERTICAL COO
002301: E7,1441  E7,1433               DELVSLV            =        DELVLVC                               #  (TEMP STORAGE OF SAME VECTOR)   -RDINATE
002302:
002303:
002304:
002305:                                                                                                  #           P30-P40 INTERFACE UNSHARED.                                    (2D)
002306:
002307: E7,1441                        TIG                ERASE    +1                                    #  B(2)
002308:
002309:                                                                                                  #           INITVEL STORAGE. ALSO USED BY P34,35,74,75,10,11 OTHERS        (8D)
002310:
002311: E7,1443                        RTARG              ERASE    +5                                    #  I(6) TARGET VECTOR
002312: E7,1451                        DELLT4             ERASE    +1                                    #  I(2) TIME DIFFERENCE
002313:
002314:
002315:                                                                                                  #           P30-P40 INTERFACE UNSHARED.                                    (3D)
002316:
002317: E7,1453                        TTOGO              ERASE    +1                                    #  B(2)
002318: E7,1455  E7,1453               TFI                EQUALS   TTOGO
002319: E7,1455                        WHICH              ERASE                                          #  B(1)
002320:
002321:
002322:                                                                                                  #           ***  R21  ***                                                  (1D)
002323:
002324: E7,1456                        LOSCOUNT           ERASE                                          #  B(1)
002325:
002326:
002327:                                                                                                  #           LSR22.3 (RENDEZVOUS NAVIGATION) STORAGE.                       (4D)
002328:
002329:                                                                                                  #     RETAIN THE ORDER OF AIG TO TRKMKCNT FOR DOWNLINK PURPOSES.
002330: E7,1457                        AIG                ERASE                                          #  B(1)OUT  GIMGAL ANGLES
002331: E7,1460                        AMG                ERASE                                          #  B(1)OUT  (MUST BE
002332: E7,1461                        AOG                ERASE                                          #  B(1)OUT   CONSECUTIVE)
002333:
002334: E7,1462                        TRKMKCNT           ERASE                                          #  B(1)TMP  TEMPORARY MARK STORAGE.
002335: E7,1463  E7,1462               MARKCTR            =        TRKMKCNT
002336:


002338:                                                                                                  #           P32-P35, P72-P75 STORAGE.  -PERMANENT-                         (6)
002339:
002340: E7,1463                        NORMEX             ERASE                                          #  B(1) PRM SAVE FOR Q
002341: E7,1464                        QSAVED             ERASE                                          #  B(1) PRM SAVE FOR Q
002342: E7,1465                        RTRN               ERASE                                          #  B(1) PRM SAVE FOR Q
002343: E7,1466                        NN                 ERASE    +1                                    #  B(2)
002344: E7,1470                        SUBEXIT            ERASE                                          #  B(1) PRM SAVE Q
002345:
002346:
002347: E7,1471                        E7OVERLA           EQUALS                                         #  START OF E7 OVERLAYS.
002348: E7,1471  E7,1471               WHOCARES           EQUALS   E7OVERLA                              #  DUMMY FOR EBANK INSENSITIVE 2CADRS
002349:
002350:                                                                                                  #           LUNAR LANDING OVERLAYS                                         (6D)
002351:
002352: E7,1471  E7,1463               /AFC/              EQUALS   NORMEX                                #  B(2)TMP    THROTTLE
002353: E7,1471  E7,1465               FCODD              EQUALS   /AFC/      +2                         #  B(2)TMP    THROTTLE
002354: E7,1471  E7,1467               FP                 EQUALS   FCODD      +2                         #  B(2)TMP    THROTTLE
002355:
002356:
002357:                                                                                                  #        ERASABLES FOR P64: OVERLAY OF RTARG                               (4D)
002358:
002359: E7,1471  E7,1443               ZERLINA            EQUALS   RTARG                                 #  B(1)  P64
002360: E7,1471  E7,1444               ELVIRA             EQUALS   ZERLINA    +1                         #  B(1)  P64
002361: E7,1471  E7,1445               AZINCR1            EQUALS   ELVIRA     +1                         #  B(1)  P64
002362: E7,1471  E7,1446               ELINCR1            EQUALS   AZINCR1    +1                         #  B(1)  P64
002363:
002364:


002366:                                                                                                  #  *******  OVERLAY NUMBER 0 IN EBANK 7  *******
002367:
002368:
002369:
002370:                                                                                                  #  RENDEZVOUS GUIDANCE STORAGE -P32....P35-                                (89D)
002371:
002372: E7,1471  E7,1611               TSTRT              EQUALS   DELDV                                 #  MIDCOURSE START TIME
002373: E7,1471  E7,1573               TDEC2              EQUALS   DELVCSI                               #  TEMP STORAGE FOR INTEGRATION TIME INPUT
002374: E7,1471  E7,1575               KT                 EQUALS   DELVTPI                               #  TEMP STORAGE FOR MIDCOURSE DELTA TIME
002375: E7,1471                        VACT1              ERASE    +5D                                   #  VELOCITY VECTOR OF ACTIVE  AT CSI TIME
002376: E7,1477                        RPASS1             ERASE    +5D                                   #  POSITION VECTOR OF PASSIVE AT CSI TIME
002377: E7,1505                        VPASS1             ERASE    +5D                                   #  VELOCITY VECTOR OF PASSIVE AT CSI TIME
002378: E7,1513                        VACT2              ERASE    +5D                                   #  VELOCITY VECTOR OF ACTIVE  AT CDH TIME
002379: E7,1521                        RPASS2             ERASE    +5D                                   #  POSITION VECTOR OF PASSIVE AT CDH TIME
002380: E7,1527                        VPASS2             ERASE    +5D                                   #  VELOCITY VECTOR OF PASSIVE AT CDH TIME
002381: E7,1535                        RACT3              ERASE    +5D                                   #  POSITION VECTOR OF ACTIVE  AT TPI TIME
002382: E7,1543                        VACT3              ERASE    +5D                                   #  VELOCITY VECTOR OF ACTIVE  AT TPI TIME
002383: E7,1551                        RPASS3             ERASE    +5D                                   #  POSITION VECTOR OF PASSIVE AT TPI TIME
002384: E7,1557                        VPASS3             ERASE    +5D                                   #  VELOCITY VECTOR OF PASSIVE AT TPI TIME
002385: E7,1565                        VACT4              ERASE    +5D                                   #  VELOCITY VECTOR OF ACTIVE  AT INTERCEPT
002386: E7,1573  E7,1543               UNVEC              EQUALS   VACT3                                 #  CDHMVR UNIT VECTOR TEMP STORAGE.
002387: E7,1573                        DELVCSI            ERASE    +1D                                   #  THRUST VALUE AT CSI
002388: E7,1575                        DELVTPI            ERASE    +1D                                   #  THRUST VALUE AT TPI OR MID
002389: E7,1577  E7,1575               DELVMID            EQUALS   DELVTPI
002390: E7,1577                        DIFFALT            ERASE    +1D                                   #  ALT DIFFERENCE AT CDH
002391: E7,1601                        POSTCSI            ERASE    +1                                    #  PERIGEE ALTITUDE AFTER CSI MANEUVER
002392: E7,1603                        POSTCDH            ERASE    +1                                    #  PERIGEE ALTITUDE AFTER CDH MANEUVER
002393: E7,1605                        POSTTPI            ERASE    +1                                    #  PERIGEE ALTITUDE AFTER TPI MANEUVER
002394: E7,1607  E7,1605               LOOPCT             EQUALS   POSTTPI                               #  CSI NEWTON ITERATION COUNTER
002395: E7,1607  E7,1603               HAFPA1             EQUALS   POSTCDH                               #  HALF PERIOD
002396: E7,1607                        GAMPREV            ERASE    +1                                    #  PREVIOUS GAMMA
002397: E7,1611  E7,1575               DVPREV             EQUALS   DELVTPI                               #  PREVIOUS DELVCSI
002398: E7,1611                        DELDV              ERASE    +1D
002399: E7,1613                        CSIALRM            ERASE    +1                                    #  FIRST SOLUTION ALARM
002400: E7,1615                        VERBNOUN           ERASE
002401: E7,1616  E7,1613               TITER              EQUALS   CSIALRM                               #  ITERATION COUNTER
002402: E7,1616                        RDOTV              ERASE    +1
002403: E7,1620  E7,1505               VAPREC             EQUALS   VPASS1                                #  I(6) S-S PREC VEC FOR NOM TPI TIME(ACT V
002404: E7,1620  E7,1477               RAPREC             EQUALS   RPASS1                                #  I(6) S-S PREC VEC FOR NOM TPI TIME(ACT V
002405: E7,1620  E7,1527               VPPREC             EQUALS   VPASS2                                #  I(6) S-S PREC VEC FOR NOM TPI TIME(PASS
002406: E7,1620  E7,1521               RPPREC             EQUALS   RPASS2                                #  I(6) S-S PREC VEC FOR NOM TPI TIME(PASS
002407: E7,1620  E7,1575               DELEL              EQUALS   DELVTPI                               #  I(2) S-S
002408: E7,1620  E7,1611               DELTEE             EQUALS   DELDV                                 #  I(2)S-S
002409: E7,1620  E7,1573               SECMAX             EQUALS   DELVCSI                               #  I(2) S-S MAX STOP SIZE FOR ROUTINE
002410: E7,1620  E7,1605               DELTEEO            EQUALS   POSTTPI                               #  I(2) S-S BACK VALUES OF DELTA TIME
002411: E7,1620                        CENTANG            ERASE    +1                                    #  I(2) S-S CENTRAL ANGLE COVERED(TPI-TPF)
002412:
002413:
002414:


002416:                                                                                                  #           SOME P47 STORAGE                                               (6D)
002417:
002418: E7,1622                        DELVIMU            ERASE    +5                                    #  I(6)DSP NOUN 83 FOR P47 DELTA V (IMU)
002419:
002420:                                                                                                  #           P30-P40 COMMON STORAGE.                                        ( 3D)
002421:
002422: E7,1630                        TPASS4             ERASE    +1                                    #  INTERCEPT TIME
002423: E7,1632                        QTEMP              ERASE                                          #  I(1)TMP COMMON RETURN SAVE REGISTER.
002424:
002425:                                                                                                  #           P32,33,34 STORAGE.                                             (6D)
002426:
002427: E7,1633                        TCSI               ERASE    +1                                    #  B(2)TMP CSI TIME IN CENTISECONDS
002428: E7,1635                        TTPI               ERASE    +1                                    #  B(2)TMP TPI TIME IN CENTISECONDS
002429: E7,1637                        TTPIO              ERASE    +1                                    #  B(2)TMP TTPI STORAGE FOR RECYCLE
002430:
002431:                                                                                                  #           P30,P40 INTERFACE.                                             (21D)
002432:
002433: E7,1641                        RTIG               ERASE    +19D                                  #  I(6)TMP
002434: E7,1665  E7,1647               VTIG               EQUALS   RTIG       +6                         #  I(6)TMP
002435: E7,1665  E7,1655               DELVSIN            EQUALS   VTIG       +6                         #  I(6)TMP
002436: E7,1665  E7,1663               DELVSAB            EQUALS   DELVSIN    +6                         #  I(2)TMP
002437: E7,1665  E7,1663               VGDISP             =        DELVSAB
002438:
002439:
002440: E7,1665                        QTEMP1             ERASE                                          #  I(1)TMP HOLDS RETURN.
002441: E7,1666  E7,1665               RGEXIT             EQUALS   QTEMP1                                #  SAVE Q
002442: E7,1666  E7,1665               SAVQR52            EQUALS   QTEMP1
002443:
002444:
002445:                                                                                                  #           INITVEL STORAGE.  (IN OVERLAY 0 AND OVERLAY 1.                 (2D)
002446:                                                                                                  #                  (CALLS LAMBERT, CONIC SUBROUTINES)
002447:
002448: E7,1666  E7,1565               VTPRIME            EQUALS   VACT4                                 #  TOTAL VELOCITY AT DESIRED RADIUS
002449: E7,1666  E7,1616               ITCTR              EQUALS   RDOTV                                 #  ITERATION COUNTER
002450: E7,1666                        COZY4              ERASE    +1                                    #  COS OF ANGLE WHEN ROTATION STARTS
002451: E7,1670  E7,1611               X1INPUT            EQUALS   DELDV                                 #  X1 TEMP STORAGE
002452: E7,1670  E7,1607               INTIME             EQUALS   GAMPREV                               #  TIME OF RINIT
002453:
002454:
002455:
002456:                                                                                                  #           PERIAPO STORAGE. (2D)                                          (2D)
002457:
002458: E7,1670                        XXXALT             ERASE    +1                                    #  RADIUS TO LAUNCH PAD OR LANDING SIGHT
002459:
002460: E7,1672  E7,1672               END-IN/M           EQUALS   XXXALT     +2                         #  NEXT AVAIL ERASABLE AFTER INITVEL/MIDGIM
002461:


002463:                                                                                                  #           S40.1 STORAGE.                                                 (12D)
002464:
002465: E7,1672                        UT                 ERASE    +11D                                  #  I(6)    THRUST DIRECTION
002466: E7,1706  E7,1700               VGTIG              EQUALS   UT         +6                         #  I(6)OUT
002467: E7,1706  E7,1700               VGPREV             =        VGTIG
002468:                                                                                                  #  ASTEER STORAGE.                                                         (22D)
002469:
002470: E7,1706                        VG                 ERASE    +21D                                  #  I(6)
002471: E7,1734  E7,1714               RMAG               EQUALS   VG         +6                         #  I(2)
002472: E7,1734  E7,1716               MUASTEER           EQUALS   RMAG       +2                         #  I(2)
002473: E7,1734  E7,1720               MU/A               EQUALS   MUASTEER   +2                         #  I(2)
002474: E7,1734  E7,1722               RTMAG              EQUALS   MU/A       +2                         #  I(2)
002475: E7,1734  E7,1724               R1C                EQUALS   RTMAG      +2                         #  I(6)
002476: E7,1734  E7,1732               SS                 EQUALS   R1C        +6                         #  I(2)
002477:
002478: E7,1734  E7,1655               IC                 =        DELVSIN
002479: E7,1734  E7,1762               TIGSAVE            =        P21TIME
002480: E7,1734  E7,1764               TIGSAVEP           =        SCAXIS
002481: E7,1734  E7,1766               MUSCALE            =        SCAXIS     +2
002482:
002483:
002484:                                                                                                  #           P40 STORAGE.                                                   (6D)
002485:
002486:                                                                                                  #                F,MDOT,AND TDECAY MUST BE CONTIGUOUS FOR VLOAD.
002487:
002488: E7,1734                        F                  ERASE    +5                                    #  I(2)TMP  S40.1 GENERATES THIS FOR S40.3
002489: E7,1742  E7,1736               MDOT               EQUALS   F          +2                         #  I(2)TMP MASS CHNG RATE, KG/CS AT 2**3.
002490: E7,1742  E7,1740               TDECAY             EQUALS   MDOT       +2                         #  I(2)IN  DELTA-T TAILOFF, (2**28)CS.
002491: E7,1742                        VEX                ERASE    +1                                    #  I(2) EXHAUST VELOCITY FOR TGO COMPUTAT'N
002492:
002493:                                                                                                  #           MIDTOAV1(2) STORAGE. (CALLED BY P40,P41,P42)                   (1D)
002494:
002495: E7,1744                        IRETURN1           ERASE                                          #  B(1)     RETURN FROM MIDTOAV1 AND 2
002496:
002497:


002499:                                                                                                  #  ******* OVERLAY  NUMBER 1 IN EBANK 7 *******
002500:
002501:
002502:
002503:                                                                                                  #           INITVEL  (CALLED BY P34,35,38,39,10,11,S40.9,S40.1)            (6D)
002504:
002505: E7,1745  E7,1471               RTARG1             EQUALS   VACT1                                 #  I(6)S TEMP STORAGE OF RTARG
002506:
002507:
002508:                                                                                                  #           P35-P40 INTERFACE.                                             (6D)
002509:
002510: E7,1745  E7,1505               VPASS4             EQUALS   VPASS1                                #  I(6)TMP VELOCITY OF PASSIVE AT INTERCEPT
002511:
002512:
002513:                                                                                                  #           LAT-LONG TEMPORARIES. CAN OVERLAY WITH S40.1                   (3D)
002514:
002515: E7,1745  E7,1672               ERADM              EQUALS   UT                                    #  I(2)
002516: E7,1745  E7,1674               INCORPEX           EQUALS   ERADM      +2                         #  I(1)
002517:
002518:
002519:                                                                                                  #           LRS24.1 STORAGE. (CAN SHARE WITH P30'S)                        (40D)
002520:
002521: E7,1745  E7,1675               RLMSRCH            EQUALS   INCORPEX   +1                         #  I(6) TMP LM POSITION VECTOR
002522: E7,1745  E7,1703               VXRCM              EQUALS   RLMSRCH    +6                         #  I(6)    CM V X R VECTOR
002523: E7,1745  E7,1711               LOSDESRD           EQUALS   VXRCM      +6                         #  I(6)    DESIRED LOS VECTOR
002524: E7,1745  E7,1717               UXVECT             EQUALS   LOSDESRD   +6                         #  I(6)    X-AXIS SRCH PATTERN COORDS
002525: E7,1745  E7,1725               UYVECT             EQUALS   UXVECT     +6                         #  I(6)    Y-AXIS SRCH PATTERN COORDS
002526: E7,1745  E7,1733               DATAGOOD           EQUALS   UYVECT     +6                         #  B(1)DSP FOR R1 - ALL 1-S WHEN LOCKON
002527: E7,1745  E7,1734               OMEGDISP           EQUALS   DATAGOOD   +1                         #  B(2)    ANGLE OMEGA DISPLAYED IN R2
002528: E7,1745  E7,1734               OMEGAD             =        OMEGDISP                              #          PINBALL DEFINITION.
002529: E7,1745  E7,1736               NSRCHPNT           EQUALS   OMEGDISP   +2                         #  B(1)TMP SEARCH PATTERN POINT COUNTER.
002530: E7,1745  E7,1737               SAVLEMV            EQUALS   NSRCHPNT   +1                         #  I(6) S-S SAVES LOSVEL
002531:
002532:
002533:
002534:


002536:                                                                                                  #  ******* OVERLAY NUMBER 2 IN EBANK 7  *******
002537:
002538:
002539:
002540:                                                                                                  #           INCORP STORAGE IN E7.                                          (47D)
002541:
002542: E7,1745  E7,1471               TX789              EQUALS   E7OVERLA                              #  I(6)
002543: E7,1745  E7,1477               GAMMA              EQUALS   TX789      +6                         #  I(3)
002544: E7,1745  E7,1502               OMEGA              EQUALS   GAMMA      +3                         #  I(18)
002545: E7,1745  E7,1524               BVECTOR            EQUALS   OMEGA      +18D                       #  I(18)
002546: E7,1745  E7,1546               DELTAQ             EQUALS   BVECTOR    +18D                       #  I(2)
002547:                                                                                                  #           AOTMARK STORAGE                                                (3D)
002548:
002549: E7,1745  E7,1550               MARKCNTR           EQUALS   DELTAQ     +2                         #  I(1)
002550: E7,1745  E7,1551               XYMARK             EQUALS   MARKCNTR   +1                         #  B(1)
002551: E7,1745  E7,1552               MKDEX              EQUALS   XYMARK     +1                         #  B(1)TMP INDEX FOR AOTMARK
002552:
002553:
002554:                                                                                                  #           PLANET STORAGE.                                                (8D)
002555:
002556: E7,1745  E7,1553               PLANVEC            EQUALS   MKDEX      +1                         #  (6) REFER VECTOR OF PLANET
002557: E7,1745  E7,1561               TSIGHT             EQUALS   PLANVEC    +6                         #  (2) TIME OF MARK OR EST TIME OF MARK
002558:
002559:
002560:
002561:                                                                                                  #           LRS22.3 STORAGE. (CAN SHARE WITH P30'S AND OVERLAY LRS24.1     (30D).
002562:
002563: E7,1745  E7,1675               LGRET              EQUALS   RLMSRCH                               #  I(1) TMP
002564: E7,1745  E7,1675               RDRET              EQUALS   LGRET                                 #  B(1)  TEMP RETURN.
002565: E7,1745  E7,1675               IGRET              EQUALS   LGRET                                 #  B(1)  TEMP RETURN.
002566: E7,1745  E7,1676               MX                 EQUALS   RDRET      +1                         #  I(6)
002567: E7,1745  E7,1704               MY                 EQUALS   MX         +6                         #  I(6)
002568: E7,1745  E7,1712               MZ                 EQUALS   MY         +6                         #  I(6)
002569: E7,1745  E7,1676               E0                 EQUALS   MX                                    #  I(2)
002570: E7,1745  E7,1700               E1                 EQUALS   MX         +2                         #  I(2)
002571: E7,1745  E7,1702               E2                 EQUALS   MX         +4                         #  I(2)
002572: E7,1745  E7,1704               E3                 EQUALS   E2         +2                         #  I(2)
002573: E7,1745  E7,1720               SCALSHFT           EQUALS   MZ         +6                         #  B(1) SCALE SHIFT FOR EARTH/MOON
002574: E7,1745  E7,1721               RXZ                EQUALS   SCALSHFT   +1                         #  I(2)
002575: E7,1745  E7,1723               ULC                EQUALS   RXZ        +2                         #  I(6)
002576: E7,1745  E7,1731               SINTHETA           EQUALS   ULC        +6                         #  I(2)
002577:
002578:                                                                                                  #       ***** IN OVERLAY ONE *****
002579:
002580: E7,1745  E7,1746               N49FLAG            EQUALS   RDOTMSAV                              #  B(1)S FLAG INDICATING V0649 RESPONSE
002581:
002582:                                                                                                  #           LRS22.1 STORAGE. (MUST NOT SHARE WITH P30'S)                   (13D)
002583:
002584:                                                                                                  #           (OUTPUTS ARE TO LRS22.3)
002585:


002587: E7,1745  E7,1733               RRTRUN             EQUALS   SINTHETA   +2                         #  B(2)OUT  RR TRUNION ANGLE
002588: E7,1745  E7,1735               RRSHAFT            EQUALS   RRTRUN     +2                         #  B(2)OUT RRSHAFT ANGLE
002589: E7,1745  E7,1737               LRS22.1X           EQUALS   RRSHAFT    +2                         #  B(1)TMP
002590: E7,1745  E7,1740               RRBORSIT           EQUALS   LRS22.1X   +1                         #  I(6) TMP RADAR BORESIGHT VECTOR.
002591: E7,1745  E7,1746               RDOTMSAV           EQUALS   RRBORSIT   +6                         #  B(2) S    RR RANGE-RATE(FPS)
002592:
002593:                                                                                                  #           LRS22.1  (SAME AS PREVIOUS SECTION) ALSO DOWNLINK FOR RR  (R29)(10D)   CANNOT SHARE WITH L.A.D.
002594:
002595: E7,1745  E7,1750               RDOTM              EQUALS   RDOTMSAV   +2                         #  B(2)OUT  RANGE-RATE READING
002596: E7,1745  E7,1752               TANGNB             EQUALS   RDOTM      +2                         #  B(2)TMP  RR GIMBAL ANGLES
002597:                                                                                                  #           RETAIN THE ORDER OF MKTIME TO RM FOR DOWNLINK PURPOSES
002598: E7,1745  E7,1754               MKTIME             EQUALS   TANGNB     +2                         #  B(2)OUT  TIME OF RR READING
002599: E7,1745  E7,1756               RM                 EQUALS   MKTIME     +2                         #  I(2)OUT  RANGE READING
002600: E7,1745  E7,1760               RANGRDOT           EQUALS   RM         +2                         #  B(2) DOWNLINKED RAW RANGE AND RRATE
002601:
002602:                                                                                                  #           R61LEM - PREFERRED TRACKING ATTITUDE ROUTINE  **IN OVERLAY ONE*
002603:                                                                                                  #                    (CALLED BY P20,R22LEM,LSR22.3)                        (1D)
002604:
002605: E7,1745  E7,1745               R65CNTR            EQUALS   RRBORSIT   +5                         #  B(1)SS  COUNT NUMBER OF TIMES PREFERRED
002606:                                                                                                  #          TRACKING ROUTINE IS TO CYCLE
002607:
002608:
002609:                                                                                                  #           P21 STORAGE                                                    (2D)
002610:
002611: E7,1745  E7,1762               P21TIME            EQUALS   RANGRDOT   +2                         #  I(2)TMP
002612:
002613:                                                                                                  #           KALCMANU, VECPOINT STORAGE.  CALLED BY R63, R61, R65.          (12D)
002614:
002615: E7,1745  E7,1764               SCAXIS             EQUALS   P21TIME    +2                         #  I(6)
002616: E7,1745  E7,1772               POINTVSM           EQUALS   SCAXIS     +6                         #  I(6)
002617:


002619:                                                                                                  #  *******  OVERLAY NUMBER 3 IN EBANK 7  *******
002620:
002621:
002622:
002623:                                                                                                  #           SERVICER STORAGE                                               (6D)
002624:
002625: E7,1745  E7,1471               ABVEL              EQUALS   E7OVERLA                              #  B(2)  DISPLAY
002626: E7,1745  E7,1473               HDOTDISP           EQUALS   ABVEL      +2                         #  B(2)  DISPLAY
002627: E7,1745  E7,1475               TTFDISP            EQUALS   HDOTDISP   +2                         #  B(2)  DISPLAY
002628:
002629:
002630:                                                                                                  #           BURN PROG STORAGE.                                             (2D)
002631:
002632: E7,1745  E7,1477               SAVET-30           EQUALS   TTFDISP    +2                         #  B(2)TMP TIG-30 RESTART
002633:
002634:
002635:                                                                                                  #           SERVICER STORAGE.                                              (69D)
002636:
002637: E7,1745  E7,1501               VGBODY             EQUALS   SAVET-30   +2                         #  B(6)OUT SET.BY S41.1 VG LEM, SC.COORDS
002638: E7,1745  E7,1501               DELVCTL            =        VGBODY
002639: E7,1745  E7,1507               DVTOTAL            EQUALS   VGBODY     +6                         #  B(2) DISPLAY NOUN
002640: E7,1745  E7,1511               GOBLTIME           EQUALS   DVTOTAL    +2                         #  B(2) NOMINAL TIG FOR CALC. OF GOBLATE.
002641: E7,1745  E7,1513               ABDVCONV           EQUALS   GOBLTIME   +2                         #  I(2)
002642: E7,1745  E7,1515               DVCNTR             EQUALS   ABDVCONV   +2                         #  B(1)
002643: E7,1745  E7,1516               TGO                EQUALS   DVCNTR     +1                         #  B(2)
002644: E7,1745  E7,1520               R                  EQUALS   TGO        +2                         #  I(6)
002645: E7,1745  E7,1520               UNITGOBL           EQUALS   R                                     #  I(6)
002646: E7,1745  E7,1526               V                  EQUALS   R          +6
002647: E7,1745  E7,1526               DELVREF            EQUALS   V                                     #  I(6)
002648: E7,1745  E7,1534               HCALC              EQUALS   DELVREF    +6                         #  B(2)     LR
002649: E7,1745  E7,1536               UNIT/R/            EQUALS   HCALC      +2                         #  I(6)
002650:                                                                                                  #                  (THE FOLLOWING SERVICER ERASABLES CAN BE SHARED WITH SECOND DPS GUIDANCE STORAGE)
002651:
002652: E7,1745  E7,1544               RN1                EQUALS   UNIT/R/    +6                         #  B(6)
002653: E7,1745  E7,1552               VN1                EQUALS   RN1        +6                         #  I(6)                      (IN ORDER  )
002654: E7,1745  E7,1560               PIPTIME1           EQUALS   VN1        +6                         #  B(2)                      (   FOR    )
002655: E7,1745  E7,1562               GDT1/2             EQUALS   PIPTIME1   +2                         #  I(6)                      (  COPY    )
002656: E7,1745  E7,1570               MASS1              EQUALS   GDT1/2     +6                         #  I(2)                      (  CYCLE   )
002657: E7,1745  E7,1572               R1S                EQUALS   MASS1      +2                         #  I(6)
002658: E7,1745  E7,1600               V1S                EQUALS   R1S        +6                         #  I(6)
002659:
002660:                                                                                                  #           ALIGNMENT/S40.2.3 COMMON STORAGE.                              (18D)
002661:
002662: E7,1745  E7,1606               XSMD               EQUALS   V1S        +6                         #  I(6)
002663: E7,1745  E7,1614               YSMD               EQUALS   XSMD       +6                         #  I(6)
002664: E7,1745  E7,1622               ZSMD               EQUALS   YSMD       +6                         #  I(6)
002665:
002666: E7,1745  E7,1606               XSCREF             =        XSMD
002667: E7,1745  E7,1614               YSCREF             =        YSMD


002669: E7,1745  E7,1622               ZSCREF             =        ZSMD
002670:
002671: E7,1745  E7,1630               END-ALIG           EQUALS   ZSMD       +6                         #  NEXT AVAIL ERASABLE AFTER ALIGN/S40.2,3
002672:
002673:
002674:                                                                                                  #           ******   P22   ******                                          (24D)
002675:
002676: E7,1745  E7,1630               RSUBL              EQUALS   END-ALIG                              #  I(6)S-S  LM POSITION VECTOR
002677: E7,1745  E7,1636               UCSM               EQUALS   RSUBL      +6                         #  I(6)S-S  VECTOR U
002678: E7,1745  E7,1644               NEWVEL             EQUALS   UCSM       +6                         #  I(6)S-S  TERMINAL VELOCITY VECTOR
002679: E7,1745  E7,1652               NEWPOS             EQUALS   NEWVEL     +6                         #  I(6)S-S  TERMINAL POSITION VECTOR
002680: E7,1745  E7,1660               LNCHTM             EQUALS   NEWPOS     +6                         #  I(2)S-S EST. LAUNCH TIME FOR LEM
002681: E7,1745  E7,1662               TRANSTM            EQUALS   LNCHTM     +2                         #  I(2)S-S TRANSFER TIME
002682: E7,1745  E7,1664               NCSMVEL            EQUALS   TRANSTM    +2                         #  I(6)S-S NEW CSM VELOCITY
002683:
002684:
002685:                                                                                                  #           *****  P21  *****                                              (18D)
002686:
002687: E7,1745     1162               P21ORIG            =        DISPDEX
002688: E7,1745  E7,1675               P21BASER           EQUALS   RLMSRCH                               #  I(6)TMP
002689: E7,1745  E7,1703               P21BASEV           EQUALS   P21BASER   +6                         #  I(6)TMP
002690: E7,1745  E7,1711               P21VEL             EQUALS   P21BASEV   +6                         #  I(2)TMP  *** NOUN 91 ***
002691: E7,1745  E7,1713               P21GAM             EQUALS   P21VEL     +2                         #  I(2)TMP  *** NOUN 91 ***
002692: E7,1745  E7,1715               P21ALT             EQUALS   P21GAM     +2                         #  I(2)TMP  *** NOUN 91 ***
002693:
002694:


002696:                                                                                                  #  *******  OVERLAY NUMBER 4 IN EBANK 7  *******
002697:
002698:
002699:                                                                                                  #  VARIABLES FOR SECOND DPS GUIDANCE (THE LUNAR LANDING)                   (80D)
002700:
002701:                                                                                                  #  THESE ERASABLES MAY BE SHARED WITH CARE
002702:
002703: E7,1745  E7,1544               OURTEMPS           =        RN1                                   #  OVERLAY LAST PART OF SERVICER
002704: E7,1745  E7,1544               LANDTEMP           =        OURTEMPS                              #  B(6)     GUIDANCE
002705: E7,1745  E7,1552               TTF/8TMP           =        LANDTEMP   +6                         #  B(2)    GUIDANCE
002706: E7,1745  E7,1554               ELINCR             =        TTF/8TMP   +2                         #  B(2)    GUIDANCE
002707: E7,1745  E7,1556               AZINCR             =        ELINCR     +2                         #  B(2)    GUIDANCE
002708: E7,1745  E7,1560               KEEP-2             =        AZINCR     +2                         #  B(2)    TO PREVENT PIPTIME1 OVERLAY
002709: E7,1745  E7,1562               TABLTTF            =        KEEP-2     +2                         #  B(2)    GUIDANCE
002710: E7,1745  E7,1573               TPIPOLD            =        TABLTTF    +9D                        #  B(2)    GUIDANCE
002711: E7,1745  E7,1621               E2DPS              EQUALS   OURPERMS
002712:
002713:
002714:
002715:                                                                                                  #  THESE ERASABLES MUST NOT OVERLAY GOBLTIME OR SERVICER
002716: E7,1745  E7,1606               PIFPSET            =        XSMD                                  #  B(1)    THROTTLE
002717: E7,1745  E7,1607               RTNHOLD            =        PIFPSET    +1                         #  B(1)    THROTTLE
002718: E7,1745  E7,1610               FWEIGHT            =        RTNHOLD    +1                         #  B(2)    THROTTLE
002719: E7,1745  E7,1612               PIF                =        FWEIGHT    +2                         #  B(2)   THROTTLE
002720: E7,1745  E7,1614               PSEUDO55           =        PIF        +2                         #  B(1)   THROTTLE DOWNLINK


002722: E7,1745  E7,1615               FC                 =        PSEUDO55   +1                         #  B(2)    THROTTLE
002723: E7,1745  E7,1617               TTHROT             =        FC         +2                         #  B(1)    THROTTLE
002724: E7,1745  E7,1620               FCOLD              =        TTHROT     +1                         #  B(1)    THROTTLE
002725:
002726:
002727:
002728:                                                                                                  #  THESE ERASABLES SHOULD NOT BE SHARED DURING P63, P64, P65, P66, P67
002729:
002730: E7,1745  E7,1621               OURPERMS           =        FCOLD      +1                         #  MUSTN'T OVERLAY OURTEMPS OR SERVICER
002731: E7,1745  E7,1621               WCHPHOLD           =        OURPERMS                              #  B(1)    GUIDANCE
002732: E7,1745  E7,1622               FILLER             =        WCHPHOLD   +1
002733: E7,1745  E7,1623               FLPASS0            =        FILLER     +1                         #  B(1) GUIDANCE
002734: E7,1745  E7,1624               TPIP               =        FLPASS0    +1                         #  B(2)
002735: E7,1745  E7,1626               VGU                =        TPIP       +2                         #  B(6)    GUIDANCE
002736: E7,1745  E7,1634               LAND               =        VGU        +6                         #  B(6)    GUIDANCE    CONTIGUOUS
002737: E7,1745  E7,1642               TTF/8              =        LAND       +6                         #  B(2)    GUIDANCE     CONTIGUOUS
002738: E7,1745  E7,1644               ELIDUMMY           =        TTF/8      +2                         #  (1)     DUMMY FOR ELINCR1
002739: E7,1745  E7,1645               AZIDUMMY           =        ELIDUMMY   +1                         #  (1)     DUMMY FOR AZINCR1
002740: E7,1745  E7,1646               ZERDUMMY           =        AZIDUMMY   +1                         #  (1)     DUMMY FOR ZERLINA
002741: E7,1745  E7,1647               ELVDUMMY           =        ZERDUMMY   +1                         #  (1)     DUMMY FOR ELVIRA
002742: E7,1745  E7,1650               LRADRET            =        ELVDUMMY   +1                         #  B(1)    LR
002743: E7,1745  E7,1651               VSELECT            =        LRADRET    +1                         #  B(1)    LR
002744: E7,1745  E7,1652               VMEAS              =        VSELECT    +1                         #  B(2)    LR
002745: E7,1745  E7,1654               HMEAS              =        VMEAS      +2                         #  B(2)    LR
002746: E7,1745  E7,1656               VN2                =        HMEAS      +2                         #  B(6)    LR


002748: E7,1745  E7,1656               GNUR               =        VN2                                   #  B(6)     LR
002749: E7,1745  E7,1656               GNUV               =        VN2                                   #  B(6)     LR
002750: E7,1745  E7,1656               LRADRET1           =        VN2                                   #  B(1)     LR
002751: E7,1745  E7,1664               DELTAH             =        VN2        +6                         #  B(2)    DISPLAY
002752: E7,1745  E7,1666               FUNNYDSP           =        DELTAH     +2                         #  B(2)    DISPLAY
002753: E7,1745  E7,1670               EOURPERM           EQUALS   FUNNYDSP   +2                         #  NEXT AVAILABLE ERASABLE AFTER OURPERMS
002754:
002755:
002756:                                                                                                  #  (ERASABLES WHICH OVERLAY THE ABOVE BLOCK)
002757:
002758: E7,1745  E7,1644               VDGVERT            =        ELIDUMMY                              #  B(2)    P65,P66
002759: E7,1745  E7,1646               NIGNLOOP           =        ZERDUMMY                              #  B(1)    IGNALG
002760: E7,1745  E7,1647               NGUIDSUB           =        ELVDUMMY                              #  B(1)    IGNALG
002761: E7,1745  E7,1647               WCHVERT            =        ELVDUMMY                              #  B(1)    P65,P66,P67
002762: E7,1745  E7,1666               FUELNEED           =        FUNNYDSP                              #  B(1)    DISPLAY
002763: E7,1745  E7,1666               TREDES             =        FUNNYDSP                              #  B(1)    DISPLAY
002764: E7,1745  E7,1667               LOOKANGL           =        FUNNYDSP   +1                         #  B(1)    DISPLAY
002765:
002766:
002767:                                                                                                  #  ERASABLES CONVENIENTLY DEFINABLE IN THE WORK AREA
002768:
002769: E7,1745                        PROJ               =        18D                                   #  I(2)    GUIDANCE
002770: E7,1745                        UNLRB/2            =        20D                                   #  I(6)    GUIDANCE (DURING P64 ONLY)
002771: E7,1745                        UNLR/2             =        20D                                   #  I(6)    GUIDANCE
002772:
002773:
002774:                                                                                                  #  THE END OF THE LUNAR LANDING ERASABLES
002775:
002776:
002777:                                                                                                  #           R12    (FOR LUNAR LANDING)                                     (6D)
002778:
002779: E7,1745  E7,1670               LRLCTR             EQUALS   EOURPERM                              #  B(1) LR DATA TEST
002780: E7,1745  E7,1671               LRRCTR             EQUALS   LRLCTR     +1                         #  B(1)
002781: E7,1745  E7,1672               LRMCTR             EQUALS   LRRCTR     +1                         #  B(1)
002782: E7,1745  E7,1673               LRSCTR             EQUALS   LRMCTR     +1                         #  B(1)
002783: E7,1745  E7,1674               STILBADH           EQUALS   LRSCTR     +1                         #  B(1)
002784: E7,1745  E7,1675               STILBADV           EQUALS   STILBADH   +1                         #  B(1)
002785:
002786:
002787:
002788:                                                                                                  #           LANDING ANALOGS DISPLAY STORAGE.                               (40D)
002789:
002790: E7,1745  E7,1676               LATVMETR           EQUALS   STILBADV   +1                         #  B(1)PRM LATVEL MONITOR METER  (AN ORDER)
002791: E7,1745  E7,1677               FORVMETR           EQUALS   LATVMETR   +1                         #  B(1)PRM FORVEL MONITOR METER  (-ED PAIR)
002792: E7,1745  E7,1700               LATVEL             EQUALS   FORVMETR   +1                         #  B(1)PRM LATERAL VELOCITY   (AN ORDER)
002793: E7,1745  E7,1701               FORVEL             EQUALS   LATVEL     +1                         #  B(1)PRM FORWARD VELOCITY   (-ED PAIR)
002794: E7,1745  E7,1702               TRAKLATV           EQUALS   FORVEL     +1                         #  B(1)PRM MONITOR FLG 4 LATVEL  (AN ORDER)
002795: E7,1745  E7,1703               TRAKFWDV           EQUALS   TRAKLATV   +1                         #  B(1)PRM MONIT. FLAG FOR FORVEL (ED PAIR)
002796: E7,1745  E7,1704               VHY                EQUALS   TRAKFWDV   +1                         #  B(1)PRM VHY=VMP.UHYP   (AN ORDER)


002798: E7,1745  E7,1705               VHZ                EQUALS   VHY        +1                         #  B(1)PRM VHZ=VMP.UHZP   (-ED PAIR)
002799: E7,1745  E7,1706               VVECT              EQUALS   VHZ        +1                         #  B(3)PRM UPDATED S.P. VELOCITY VECTOR
002800: E7,1745  E7,1711               ALTRATE            EQUALS   VVECT      +3                         #  B(1)PRM ALTITUDE RATE IN BIT UNITS
002801: E7,1745  E7,1712               ALTSAVE            EQUALS   ALTRATE    +1                         #  B(2)PRM ALTITUDE IN BIT UNITS
002802: E7,1745  E7,1714               LADQSAVE           EQUALS   ALTSAVE    +2                         #  B(1)PRM SAVE Q IN LANDISP
002803: E7,1745  E7,1715               DT                 EQUALS   LADQSAVE   +1                         #  B(1)PRM TIME 1 MINUS (PIPTIME +1)
002804: E7,1745  E7,1716               DALTRATE           EQUALS   DT         +1                         #  B(1)PRM ALTITUDE RATE ERROR CORRECTION
002805: E7,1745  E7,1717               UHYP               EQUALS   DALTRATE   +1                         #  B(6)PRM SM UNIT VECTOR
002806: E7,1745  E7,1717               QAXIS              =        UHYP
002807: E7,1745  E7,1725               UHZP               EQUALS   UHYP       +6                         #  B(6)PRM SM UNIT VECTOR
002808: E7,1745  E7,1733               DELVS              EQUALS   UHZP       +6                         #  B(6)PRM DELVS = WMXR
002809: E7,1745  E7,1741               ALTBITS            EQUALS   DELVS      +6                         #  B(2)PRM ALTITUDE IN BIT UNITS, 2.34FT/BT
002810: E7,1745  E7,1743               RUNIT              EQUALS   ALTBITS    +2                         #  B(3)PRM SM HALF-UNIT R VECTOR
002811: E7,1745  E7,1745               LASTLADW           EQUALS   RUNIT      +2                         #  ONLY A TAG TO SIGNIFY LAST L.A.D. WORD
002812:
002813:
002814:                                                                                                  #           P66 ERASABLES (R.O.D.)                                         (1D)
002815:
002816: E7,1745  E7,1746               RODCOUNT           EQUALS   RUNIT      +3
002817:
002818:
002819:                                                                                                  #           P66 ERASABLES (R.O.D.)                                         (14D)
002820:
002821: E7,1745  E7,1756               RODSCAL1           EQUALS   RM                                    #  B(1)
002822: E7,1745  E7,1757               LASTTPIP           EQUALS   RODSCAL1   +1                         #  I(2)
002823: E7,1745  E7,1761               THISTPIP           EQUALS   LASTTPIP   +2                         #  B(2)
002824: E7,1745  E7,1763               OLDPIPAX           EQUALS   THISTPIP   +2                         #  B(1)
002825: E7,1745  E7,1764               OLDPIPAY           EQUALS   OLDPIPAX   +1                         #  B(1)
002826: E7,1745  E7,1765               OLDPIPAZ           EQUALS   OLDPIPAY   +1                         #  B(1)
002827: E7,1745  E7,1766               DELVROD            EQUALS   OLDPIPAZ   +1                         #  B(6)
002828:
002829:
002830:                                                                                                  #           NOUN 63 COMPONENT                                              (2D)
002831: E7,1745  E7,1774               HCALC1             EQUALS   DELVROD    +6                         #  I(2)
002832:
002833:


002835:                                                                                                  #  *******  OVERLAY NUMBER 5 IN EBANK 7  *******
002836:
002837:
002838:                                                                                                  #           ASCENT GUIDANCE ERASABLES.                                     (21D)
002839:
002840: E7,1745  E7,1630               RCO                EQUALS   END-ALIG                              #  I(2)TMP  TARGET RADIUS AND OUT-OF-PLANE
002841: E7,1745  E7,1632               YCO                EQUALS   RCO        +2                         #  I(2)TMP  DISTANCE, SCALED AT 2(24).
002842: E7,1745  E7,1634               1/DV1              EQUALS   YCO        +2                         #  B(2)TMP  ATMAG
002843: E7,1745  E7,1636               1/DV2              EQUALS   1/DV1      +2                         #  B(2)TMP  ATMAG
002844: E7,1745  E7,1640               1/DV3              EQUALS   1/DV2      +2                         #  B(2)TMP  ATMAG
002845: E7,1745  E7,1642               XRANGE             EQUALS   1/DV3      +2                         #  B(2)TMP
002846: E7,1745  E7,1644               ENGOFFDT           EQUALS   XRANGE     +2                         #  B(1)TMP
002847: E7,1745  E7,1645               VGVECT             EQUALS   ENGOFFDT   +1                         #  I(6)OUT  VELOCITY-TO-BE-GAINED
002848: E7,1745  E7,1653               TXO                EQUALS   VGVECT     +6                         #  I(2)TMP  TIME AT WHICH X-AXIS OVERRIDE
002849:                                                                                                  #  IS ALLOWED.
002850:
002851:                                                                                                  #  END OF THE ASCENT GUIDANCE ERASABLES.
002852:
002853:                                                                                                  #  THE FOLLOWING CARDS KEEP THE ASSEMBLER HAPPY UNTIL THE SYMBOLS ARE DELETED FROM THE PINBALL NOUN TABLES.
002854:
002855: E7,1745  E7,1745               END-E7.0           EQUALS   IRETURN1   +1                         #  FIRST UNUSED LOCATION IN E7 OVERLAY 0
002856: E7,1745  E7,1747               END-E7.1           EQUALS   N49FLAG    +1                         #  FIRST UNUSED LOCATION IN E7 OVERLAY 1
002857: E7,1745     4000               END-E7.2           EQUALS   POINTVSM   +6                         #  FIRST UNUSED LOCATION IN E7 OVERLAY 2
002858: E7,1745  E7,1630               END-E7.3           EQUALS   END-ALIG                              #  FIRST UNUSED LOCATION IN E7 OVERLAY 3
002859: E7,1745                        END-E7.4           EQUALS   3777                                  #  ** LAST LOCATION USED IN E7 OVERLAY 4 **
002860: E7,1745  E7,1655               END-E7.5           EQUALS   TXO        +2                         #  FIRST UNUSED LOCATION IN E7 OVERLAY 5
002861: E7,1745                        END-E7             EQUALS   3777                                  #  **LAST LOCATION USED IN E7 **
002862:
002863:

End of include-file ERASABLE_ASSIGNMENTS.agc.  Parent file is MAIN.agc


