
Source Code


000002:                                                                                                  ## Copyright:   Public domain.
000003:                                                                                                  ## Filename:    EXTENDED_VERBS.agc
000004:                                                                                                  ## Purpose:     A section of Luminary revision 116.
000005:                                                                                                  ##              It is part of the source code for the Lunar Module's (LM)
000006:                                                                                                  ##              Apollo Guidance Computer (AGC) for Apollo 12.
000007:                                                                                                  ##              This file is intended to be a faithful transcription, except
000008:                                                                                                  ##              that the code format has been changed to conform to the
000009:                                                                                                  ##              requirements of the yaYUL assembler rather than the
000010:                                                                                                  ##              original YUL assembler.
000011:                                                                                                  ## Reference:   pp. 262-301
000012:                                                                                                  ## Assembler:   yaYUL
000013:                                                                                                  ## Contact:     Ron Burkey <info@sandroid.org>.
000014:                                                                                                  ## Website:     www.ibiblio.org/apollo/index.html
000015:                                                                                                  ## Mod history: 2017-01-22 MAS  Created from Luminary 99.
000016:                                                                                                  ##              2017-02-23 RSB  CHKP00H -> CHKPOOH
000017:                                                                                                  ##              2017-03-06 RSB  Transcribed, and then proofed comment-text using
000018:                                                                                                  ##                              3-way diff vs Luminary 99 and Luminary 131.
000019:                                                                                                  ##                              (Admittedly, the former is more for detecting errors
000020:                                                                                                  ##                              in Luminary 99 than the other way around.)
000021:                                                                                                  ##              2017-03-15 RSB  Comment-text fixes identified in 5-way
000022:                                                                                                  ##                              side-by-side diff of Luminary 69/99/116/131/210.
000023:                                                                                                  ##              2017-03-17 RSB  Comment-text fixes identified in diff'ing
000024:                                                                                                  ##                              Luminary 99 vs Comanche 55.
000025:                                                                                                  ##              2017-03-19 HG   Add missing statement adres NEED2FLG
000026:                                                                                                  ##                              Fix values OCT 33113 --> OCT 33133 (DSPLYMSK)
000027:                                                                                                  ##                                         OCT 13113 --> OCT 13133 (BOOLSMSK)
000028:                                                                                                  ##                              Fix operator TC --> TCF
000029:                                                                                                  ##              2017-06-17 MAS  Globally removed all SBANK= workarounds.
000030:


000032: 07,2667                                           BANK     7
000033: 43,2000                                           SETLOC   EXTVERBS
000034: 43,2000                                           BANK
000035:
000036: 43,2000  E5,1737                                  EBANK=   OGC
000037:
000038: 43,2000                                           COUNT*   $$/EXTVB
000039:
000040:                                                                                                  #  FAN-OUT
000041:
000042: 43,2000           50154        GOEXTVB            INDEX    MPAC                                  #  VERB-40 IS IN MPAC
000043: 43,2001           02002                           TC       LST2FAN                               #  FAN AS BEFORE.
000044:
000045: 43,2002           02124        LST2FAN            TC       VBZERO                                #  VB40 ZERO (USED WITH NOUN 20 OR 72 ONLY)
000046: 43,2003           02172                           TC       VBCOARK                               #  VB41 COARSE ALIGN (USED WITH NOUN 20 OR
000047:                                                                                                  #                                  72 ONLY)
000048: 43,2004           02363                           TC       IMUFINEK                              #  VB42 FINE ALIGN IMU
000049: 43,2005           02727                           TC       IMUATTCK                              #  VB43  LOAD IMU ATTITUDE ERROR METERS.
000050: 43,2006           02277                           TC       RRDESEND                              #  VB44 TERMINATE CONTINUOUS DESIGNATE
000051: 43,2007           02114                           TC       ALM/END                               #  VB45 SPARE
000052: 43,2010           02114                           TC       ALM/END                               #  VB46 SPARE
000053: 43,2011           02422                           TC       V47TXACT                              #  VB47 AGS INITIALIZATION
000054: 43,2012           03152                           TC       DAPDISP                               #  VB48  LOAD A/P DATA
000055: 43,2013           13032                           TCF      CREWMANU                              #  VB49 START AUTOMATIC ATTITUDE MANEUVER
000056: 43,2014           02414                           TC       GOLOADLV                              #  VB50 PLEASE PERFORM
000057: 43,2015           02114                           TC       ALM/END                               #  VB51 SPARE
000058: 43,2016           02414                           TC       GOLOADLV                              #  VB52 PLEASE MARK X - RETICLE.
000059: 43,2017           02414                           TC       GOLOADLV                              #  VB53 PLEASE MARK Y - RETICLE.
000060: 43,2020           02414                           TC       GOLOADLV                              #  VB54 PLEASE MARK X OR Y - RETICLE
000061: 43,2021           02434                           TC       ALINTIME                              #  VB55 ALIGN TIME
000062: 43,2022           03041                           TC       TRMTRACK                              #  VB56 TERMINATE TRACKING - P20 + P25
000063: 43,2023           02317                           TC       LRON                                  #  VB57 PERMIT  LANDING RADAR UPDATES
000064: 43,2024           02360                           TC       LROFF                                 #  VB58 INHIBIT LANDING RADAR UPDATES
000065: 43,2025           02145                           TC       LRPOS2K                               #  VB59 COMMAND LR TO POSITION 2.
000066: 43,2026           02167                           TC       RATEDISP                              #  VB60 DISPLAY DAP ESTIMATED RATES
000067: 43,2027           02157                           TC       DAPATTER                              #  VB61 DISPLAY DAP ATTITUDE ERROR
000068: 43,2030           02162                           TC       TOTATTER                              #  VB62 DISPLAY TOTAL ATTITUDE ERROR
000069: 43,2031           02447                           TC       R04                                   #  VB63 SAMPLE RADAR ONCE PER SECOND
000070: 43,2032           02721                           TC       VB64                                  #  VB64 CALCULATE,DISPLAY S-BAND ANT ANGLES
000071: 43,2033           03242                           TC       SNUFFOUT                              #  VB65 DISABLE U,V JETS DURING DPS BURNS.
000072: 43,2034           03157                           TC       ATTACHED                              #  VB66 ATTACHED   MOVE THIS TO OTHER STATE
000073: 43,2035           03234                           TC       V67                                   #  VB67 W MATRIX MONITOR
000074: 43,2036           02114                           TC       ALM/END                               #  VB68 SPARE
000075: 43,2037           02037        VERB69             TC       VERB69                                #  VB69 FORCE A HARDWARE RESTART
000076: 43,2040           03745                           TC       V70UPDAT                              #  VB70 UPDATE LIFTOFF TIME.
000077: 43,2041           03747                           TC       V71UPDAT                              #  VB71 UNIVERSAL UPDATE - BLOCK ADDRESS.
000078: 43,2042           03751                           TC       V72UPDAT                              #  VB72 UNIVERSAL UPDATE - SINGLE ADDRESS.
000079: 43,2043           03753                           TC       V73UPDAT                              #  VB73 UPDATE AGC TIME (OCTAL).
000080: 43,2044           03062                           TC       DNEDUMP                               #  VB74 INITIALIZE DOWN-TELEMETRY PROGRAM
000081:                                                                                                  #           FOR ERASABLE DUMP.
000082: 43,2045           03245                           TC       OUTSNUFF                              #  VB75 ENABLE U,V JETS DURING DPS BURNS.


000084: 43,2046           03021                           TC       MINIMP                                #  VB76 MINIMUM IMPULSE MODE
000085: 43,2047           03024                           TC       NOMINIMP                              #  VB77 RATE COMMAND MODE
000086: 43,2050           02437                           TC       R77                                   #  VB78 START LR SPURIOUS RETURN TEST
000087: 43,2051           02651                           TC       R77END                                #  VB79 TERMINATE LR SPURIOUS RETURN TEST
000088: 43,2052           03066                           TC       LEMVEC                                #  VB80 UPDATE LEM STATE VECTOR
000089: 43,2053           03071                           TC       CSMVEC                                #  VB81 UPDATE CSM STATE VECTOR
000090: 43,2054           02766                           TC       V82PERF                               #  VB82 REQUEST ORBIT PARAM DISPLAY (R30)
000091: 43,2055           02776                           TC       V83PERF                               #  VB83 REQUEST REND PARAM DISPLAY (R31)
000092: 43,2056           02114                           TC       ALM/END                               #  VB84 SPARE
000093: 43,2057           03250                           TC       VERB85                                #  VB85 DISPLAY RR LOS AZ AND ELEV
000094: 43,2060           02114                           TC       ALM/END                               #  VB86 SPARE
000095: 43,2061           02114                           TC       ALM/END                               #  VB87 SPARE
000096: 43,2062           02114                           TC       ALM/END                               #  VB88 SPARE
000097: 43,2063           03004                           TC       V89PERF                               #  VB89 ALIGN XORZ LEM AXIS ALONG LOS (R63)
000098: 43,2064           03013                           TC       V90PERF                               #  VB90 OUT OF PLANE RENDEZVOUS DISPLAY
000099: 43,2065           03115                           TC       GOSHOSUM                              #  VB91 DISPLAY BANK SUM.
000100: 43,2066           03101                           TC       SYSTEST                               #  VB92 OPERATE IMU PERFORMANCE TEST.
000101: 43,2067           03110                           TC       WMATRXNG                              #  VB93 CLEAR RENDWFLG
000102: 43,2070           02114                           TC       ALM/END                               #  VB94 SPARE
000103: 43,2071           03076                           TC       UPDATOFF                              #  VB95 NO STATE VECTOR UPDATE ALLOWED
000104: 43,2072           03227                           TC       VERB96                                #  VB96 INTERRUPT INTEGRATION AND GO TO POO
000105: 43,2073           02414                           TC       GOLOADLV                              #  VB97 PLEASE VERIFY ENGINE FAILURE
000106: 43,2074           02114                           TC       ALM/END                               #  VB98 SPARE
000107: 43,2075           02414                           TC       GOLOADLV                              #  VB99 PLEASE ENABLE ENGINE
000108:
000109:                                                                                                  #  END OF EXTENDED VERB FAN
000110:
000111: 43,2076           11043        TESTXACT           CCS      EXTVBACT                              #  ARE EXTENDED VERBS BUSY
000112: 43,2077           02114                           TC       ALM/END                               #  YES, TURN ON OPERATOR LIGHT
000113: 43,2100           30100                           CA       FLAGWRD4                              #  ARE PRIORITY DISPLAYS USING DSKY
000114: 43,2101           72123                           MASK     OC24100
000115: 43,2102           10000                           CCS      A
000116: 43,2103           02114                           TC       ALM/END                               #  YES
000117: 43,2104           34362                           CAF      OCT25                                 #  SET BITS 1, 3, AND 5
000118: 43,2105           55043        SETXTACT           TS       EXTVBACT                              #  NO. SET FLAG TO SHOW EXT VERB DISPLAY
000119:                                                                                                  #  SYSTEM BUSY
000120:
000121: 43,2106           30002                           CA       Q
000122: 43,2107           54155                           TS       MPAC       +1
000123:
000124: 43,2110           44752                           CS       TWO                                   #  BLANK EVERYTHING EXCEPT MM AND VERB
000125: 43,2111           04154                           TC       NVSUB
000126: 43,2112           02113                           TC       +1
000127: 43,2113           00155                           TC       MPAC       +1
000128:
000129: 43,2114     5472               TERMEXTV           EQUALS   ENDEXT
000130: 43,2114     5472               ENDEXTVB           EQUALS   ENDEXT
000131:
000132: 43,2114           04364        ALM/END            TC       FALTON                                #  TURN ON OPERATOR ERROR LIGHT


000134: 43,2115           04635        GOPIN              TC       POSTJUMP
000135: 43,2116           21051                           CADR     PINBRNCH
000136:
000137: 43,2117           31010        CHKPOOH            CA       MODREG                                #  CHECK FOR POO OR POO-.
000138: 43,2120           00006                           EXTEND
000139: 43,2121           16745                           BZF      TCQ
000140: 43,2122           02114                           TC       ALM/END
000141:
000142: 43,2123           24100        OC24100            OCT      24100
000143:


000145:                                                                                                  #  VBZERO       VERB 40            DESCRIPTION
000146:
000147:                                                                                                  #      1. REQUIRE NOUN 20 (ICDU ANGLES) OR NOUN 72 (RCDU ANGLES).
000148:                                                                                                  #     2. FOR N20, CHECK IMUCADR IN AN EFFORT TO AVOID A 1210 RESTART.
000149:                                                                                                  #        FOR N72, CHECK IF EITHER RADAR IS IN USE.
000150:                                                                                                  #      3. EXECUTE THE CDU ZERO.
000151:                                                                                                  #      4. STALL UNTILL THE ZERO IS DONE.
000152:                                                                                                  #      5. DON'T DIFFERENIATE BETWEEN A BAD OR GOOD RETURN.
000153:                                                                                                  #      6. EXIT, RE-ESTABLISHING THE INTERRUPTED DISPLAY (IF ANY).
000154:
000155: 43,2124           02175        VBZERO             TC       OP/INERT
000156: 43,2125           02127                           TC       IMUZEROK                              #  RETURN HERE IF NOUN = ICDU(20)
000157: 43,2126           02136                           TC       RRZEROK                               #  RETURN HERE IF NOUN = RCDU(72)
000158: 43,2127           02430        IMUZEROK           TC       CKMODCAD
000159: 43,2130           04616                           TC       BANKCALL                              #  KEYBOARD REQ FOR ISS CDUZERO
000160: 43,2131           16706                           CADR     IMUZERO
000161:
000162: 43,2132           04616                           TC       BANKCALL                              #  STALL
000163: 43,2133           17710                           CADR     IMUSTALL
000164: 43,2134           02135                           TC       +1
000165:
000166: 43,2135           02115                           TC       GOPIN                                 #  IMUZERO
000167:
000168: 43,2136           02674        RRZEROK            TC       RDRUSECK
000169: 43,2137           04616                           TC       BANKCALL
000170: 43,2140           52354                           CADR     RRZERO
000171:
000172: 43,2141           04616        RWAITK             TC       BANKCALL
000173: 43,2142           17706                           CADR     RADSTALL
000174: 43,2143           12144                           TCF      +1
000175: 43,2144           02115                           TC       GOPIN                                 #  RRZERO
000176:
000177:                                                                                                  #  LRPOS2K          VERB 59            DESCRIPTION
000178:                                                                                                  #      COMMAND LANDING RADAR TO POSITION 2
000179:                                                                                                  #     1. EXIT WITH OP ERROR IF SOMEONE IS USING EITHER RADAR.
000180:                                                                                                  #      2. ALARM WITH CODE 523 IF POS 2 IS NOT INDICATED WITHIN
000181:                                                                                                  #         THE PRESCRIBED TIME.
000182:                                                                                                  #      3. RE-ESTABLISH THE DISPLAYS.
000183:
000184: 43,2145           02674        LRPOS2K            TC       RDRUSECK
000185: 43,2146           04616                           TC       BANKCALL                              #  COMMAND LR TO POSITION 2
000186: 43,2147           53454                           CADR     LRPOS2
000187: 43,2150           04616                           TC       BANKCALL
000188: 43,2151           17706                           CADR     RADSTALL
000189: 43,2152           02154                           TC       LRP2ALM
000190: 43,2153           02115                           TC       GOPIN
000191:
000192: 43,2154           05567        LRP2ALM            TC       ALARM
000193: 43,2155           00523                           OCT      523
000194: 43,2156           02115                           TC       GOPIN


000196:
000197:                                                                                                  #  V61      VERB 61, DISPLAY DAP ATTITUDE ERRORS ON FDAI ATTITUDE ERROR NEEDLES.
000198:
000199: 43,2157           05516        DAPATTER           TC       DOWNFLAG
000200: 43,2160           00013                           ADRES    NEEDLFLG
000201: 43,2161           12164                           TCF      TOTATTER   +2
000202:
000203:                                                                                                  #  V62      VERB 62, DISPLAY TOTAL ATTITUDE ERRORS ON FDAI ATTITUDE ERROR NEEDLES.
000204:
000205: 43,2162           05504        TOTATTER           TC       UPFLAG
000206: 43,2163           00013                           ADRES    NEEDLFLG
000207: 43,2164           05516                 +2        TC       DOWNFLAG
000208: 43,2165           00000                           ADRES    NEED2FLG
000209: 43,2166           02115                           TC       GOPIN
000210:
000211:                                                                                                  #  V60      VERB 60, DISPLAY DAP ESTIMATED RATES ON FDAI ATTITUDE ERROR NEEDLES.
000212:
000213: 43,2167           05504        RATEDISP           TC       UPFLAG
000214: 43,2170           00000                           ADRES    NEED2FLG
000215: 43,2171           02115                           TC       GOPIN
000216:


000218:                                                                                                  #  VBCOARK      VERB 41            DESCRIPTION
000219:                                                                                                  #      COARSE ALIGN IMU OR RADAR
000220:                                                                                                  #     1. REQUIRE NOUN 20 OR NOUN 72 OR TURN ON OPERATOR ERROR.
000221:                                                                                                  #      2. REQUIRE EXT VERB DISPLAY SYS AVAILABLE OR TURN ON OPERATOR ERROR LIGHT AND GO TO PINBRNCH.
000222:                                                                                                  #      CASE 1     NOUN 20     (ICDU ANGLES)
000223:                                                                                                  #      3. SET EXT VERB DISPLAY ACTIVE FLAG.
000224:                                                                                                  #      4. DISPLAY FLASHING V25,N22 (LOAD NEW ICDU ANGLES).
000225:                                                                                                  #         RESPONSES
000226:                                                                                                  #           A. TERMINATE
000227:                                                                                                  #              1. RELEASE EXT VERB DISPLAY SYSTEM
000228:                                                                                                  #           B. PROCEED
000229:                                                                                                  #             1. COARSE ALIGN TO THE EXISTING THETAD'S (ICORK2).
000230:                                                                                                  #           C. ENTER
000231:                                                                                                  #             1. COARSE ALIGN TO THE LOADED THETAD'S (ICORK2).
000232:                                                                                                  #      ICORK2
000233:                                                                                                  #         1. RE-DISPLAY VERB 41.
000234:                                                                                                  #         2. EXECUTE IMUCOARS (IMU COARSE ALIGN).
000235:                                                                                                  #         3. EXECUTE IMUSTALL (ALLOW TIME FOR DATA TRANSFER).
000236:                                                                                                  #         4. RELEASE EXT VERB DISPLAY SYSTEM.
000237:                                                                                                  #      CASE 2     NOUN 72     (RCDU ANGLES)
000238:                                                                                                  #        EXIT WITH OP ERROR IF SOMEONE IS USING EITHER RADAD.
000239:                                                                                                  #      5. DISPLAY FLASHING V24,N73 (LOAD NEW RR TRUNION ANGLE AND NEW SHAFT ANGLE).
000240:                                                                                                  #         RESPONSES
000241:                                                                                                  #         A. TERMINATE
000242:                                                                                                  #            1. RELEASE EXT VERB DISPLAY SYS.
000243:                                                                                                  #         B. PROCEED OR ENTER
000244:                                                                                                  #            1. EXECUTE AURLOKON (ASK OPERATOR FOR LOCK-ON REQUIREMENTS).
000245:                                                                                                  #            2. RE-DISPLAY VERB 41.
000246:                                                                                                  #            3. SCHEDULE RRDESK2 WITH PRIORITY 20.
000247:                                                                                                  #            4. RELEASE EXT VERB DISPLAY SYS.
000248:
000249:                                                                                                  #         AURLOKON
000250:
000251:                                                                                                  #        1. FLASH V04 N12 R1 = 00006 R2 = 00002
000252:                                                                                                  #            RESPONSES
000253:                                                                                                  #            A. TERMINATE
000254:                                                                                                  #            B. PROCEED
000255:                                                                                                  #              1. RESET LOCK-ON SWITCH
000256:                                                                                                  #              2. SET CONTINUOUS DESIGNATE FLAG
000257:                                                                                                  #              3. DISABLE R25
000258:                                                                                                  #           C. V22 E 1 E, R1 = 00001, PROCEED
000259:                                                                                                  #              1. SET LOCK-ON SWITCH
000260: 43,2172           02175        VBCOARK            TC       OP/INERT
000261: 43,2173           02206                           TC       IMUCOARK                              #  RETURN HERE IF NOUN = ICDU (20)
000262: 43,2174           02230                           TC       RRDESNBK                              #  RETURN HERE IF NOUN = RCDU (72)
000263:                                                                                                  #  RETURNS TO L+1 IF IMU OR L+2 IF RR.
000264:
000265: 43,2175           46007        OP/INERT           CS       OCT24
000266: 43,2176           61001                           AD       NOUNREG
000267: 43,2177           00006                           EXTEND


000269: 43,2200           16745                           BZF      TCQ                                   #  IF = 20.
000270:
000271: 43,2201           62205                           AD       RRIMUDIF                              #  -52
000272: 43,2202           00006                           EXTEND
000273: 43,2203           16742                           BZF      Q+1
000274:
000275: 43,2204           02114                           TC       ALM/END                               #  ILLEGAL.
000276:
000277: 43,2205           77713        RRIMUDIF           DEC      -52        B-14                       #  THE IMU
000278: 43,2206           02430        IMUCOARK           TC       CKMODCAD
000279: 43,2207           02076                           TC       TESTXACT                              #  COARSE ALIGN FROM KEYBOARD.
000280: 43,2210           32226                           CAF      VNLODCDU                              #  CALL FOR THETAD LOAD
000281: 43,2211           04616                           TC       BANKCALL
000282: 43,2212           20334                           CADR     GOXDSPF
000283: 43,2213           05472                           TC       TERMEXTV
000284: 43,2214           12215                           TCF      +1
000285:
000286: 43,2215           32227        ICORK2             CAF      IMUCOARV                              #  RE-DISPLAY COARSE ALIGN VERB.
000287: 43,2216           04616                           TC       BANKCALL
000288: 43,2217           20621                           CADR     EXDSPRET
000289:
000290: 43,2220           04616                           TC       BANKCALL                              #  CALL MODE SWITCHING PROG
000291: 43,2221           16772                           CADR     IMUCOARS
000292:
000293: 43,2222           04616                           TC       BANKCALL                              #  STALL
000294: 43,2223           17710                           CADR     IMUSTALL
000295: 43,2224           05472                           TC       ENDEXTVB
000296: 43,2225           05472                           TC       ENDEXTVB
000297:
000298: 43,2226           06226        VNLODCDU           VN       2522
000299: 43,2227           12200        IMUCOARV           VN       4100
000300:


000302:                                                                                                  #  DESIGNATE TO DESIRED GIMBAL ANGLES.
000303:
000304: 43,2230           02674        RRDESNBK           TC       RDRUSECK
000305: 43,2231           02076                           TC       TESTXACT
000306: 43,2232           42316                           CS       OCT41000                              #  TERMINATE PRESENT DESIGNATION
000307: 43,2233           00004                           INHINT                                         #  RELINT DONE IN GOXDSPF
000308: 43,2234           70110                           MASK     RADMODES
000309: 43,2235           54110                           TS       RADMODES
000310:
000311: 43,2236           32255                           CAF      VNLDRCDU                              #  ASK FOR GIMBAL ANGLES.
000312: 43,2237           04616                           TC       BANKCALL
000313: 43,2240           20334                           CADR     GOXDSPF
000314: 43,2241           05472                           TC       TERMEXTV
000315: 43,2242           12236                           TCF      -4                                    #  V33
000316:
000317: 43,2243           04616                           TC       BANKCALL                              #  ASK OP FOR LOCK ON REQUIREMENTS.
000318: 43,2244           46000                           CADR     AURLOKON
000319:
000320: 43,2245           32227                           CAF      OPTCOARV                              #  RE-DISPLAY OUR OWN VERB
000321: 43,2246           04616                           TC       BANKCALL
000322: 43,2247           20621                           CADR     EXDSPRET
000323:
000324: 43,2250           34736                           CAF      PRIO20
000325: 43,2251           05105                           TC       FINDVAC
000326: 43,2252  E7,1456                                  EBANK=   LOSCOUNT
000327: 43,2252           02256 66107                     2CADR    RRDESK2
000328:
000329: 43,2254           15472                           TCF      TERMEXTV                              #  FREES DISPLAY.
000330:
000331: 43,2255           06111        VNLDRCDU           VN       2473
000332: 43,2256  43,2227               OPTCOARV           EQUALS   IMUCOARV                              #  DIFFERENT NOUNS.
000333:
000334: 43,2256           04616        RRDESK2            TC       BANKCALL
000335: 43,2257           52506                           CADR     RRDESNB
000336:
000337: 43,2260           02261                           TC       +1                                    #  DUMMY NEEDED SINCE DESRETRN DOES INCR
000338: 43,2261           30167                           CA       PRIORITY
000339: 43,2262           75004                           MASK     LOW9
000340: 43,2263           10000                           CCS      A
000341: 43,2264           50000                           INDEX    A
000342: 43,2265           54000                           TS       A                                     #  RELEASE THIS JOBS VAC AREA.
000343: 43,2266           40000                           COM                                            #  INSURE ENDOFJOB DOES A NOVAC END (BZMF).
000344: 43,2267           26167                           ADS      PRIORITY
000345: 43,2270           04616                           TC       BANKCALL                              #  WAIT FOR COMPLETION OF DESIGNATE
000346: 43,2271           17706                           CADR     RADSTALL
000347: 43,2272           02274                           TC       +2                                    #  BADEND-NO LOCKON OR OUT OF LIMITS
000348: 43,2273           05155                           TC       ENDOFJOB                              #  GOODEND-LOCKON ACHIEVED
000349: 43,2274           05567                           TC       ALARM
000350: 43,2275           00503                           OCT      503                                   #  TURN ON ALARM LIGHT-503 DESIGNATE FAIL


000352:
000353: 43,2276           05155                           TC       ENDOFJOB
000354:
000355: 43,2277           10110        RRDESEND           CCS      RADMODES                              #  TERMINATE CONTINUOUS DESIGNATE ONLY
000356: 43,2300           12115                           TCF      GOPIN
000357: 43,2301           12115                           TCF      GOPIN
000358: 43,2302           12303                           TCF      +1
000359: 43,2303           42316                           CS       OCT41000                              #  BEGDES GOES TO ENDRADAR
000360: 43,2304           00004                           INHINT                                         #  RELINT DONE IN DOWNFLAG
000361: 43,2305           70110                           MASK     RADMODES
000362: 43,2306           54110                           TS       RADMODES
000363: 43,2307           06011                           TC       CLRADMOD
000364: 43,2310           34777                           CAF      1SEC
000365: 43,2311           04616                           TC       BANKCALL
000366: 43,2312           01736                           CADR     DELAYJOB
000367: 43,2313           05516                           TC       DOWNFLAG                              #  ENABLE R25 GIMBAL MONITOR
000368: 43,2314           00126                           ADRES    NORRMON
000369: 43,2315           12115                           TCF      GOPIN
000370: 43,2316           41000        OCT41000           OCT      41000                                 #  CONTINUOUS DESIGNATE - DESIGNATE
000371:


000373: 23,2000                                           BANK     23
000374: 23,2000                                           SETLOC   EXTVB1
000375: 23,2000                                           BANK
000376: 23,2000                                           COUNT*   $$/EXTVB
000377:
000378: 23,2000           04645        AURLOKON           TC       MAKECADR
000379: 23,2001           55112                           TS       DESRET
000380: 23,2002           34752                           CAF      TWO
000381: 23,2003           55051                           TS       OPTIONX    +1
000382: 23,2004           36245                           CAF      SIX                                   #  OPTION CODE FOR V04N12
000383: 23,2005           55050                           TS       OPTIONX
000384:
000385: 23,2006           32037                 -5        CAF      V04N1272
000386: 23,2007           04616                           TC       BANKCALL                              #       R2   00001  LOCK-ON
000387: 23,2010           20353                           CADR     GOMARKFR
000388: 23,2011           15472                           TCF      ENDEXT                                #  V34
000389: 23,2012           12017                           TCF      +5                                    #  V33
000390: 23,2013           12006                           TCF      -5                                    #  V32
000391: 23,2014           34751                           CAF      BIT3
000392: 23,2015           05464                           TC       BLANKET
000393: 23,2016           05155                           TC       ENDOFJOB
000394:
000395: 23,2017           31051                 +5        CA       OPTIONX    +1
000396: 23,2020           74752                           MASK     BIT2
000397: 23,2021           10000                           CCS      A
000398: 23,2022           12026                           TCF      NOLOKON
000399: 23,2023           05504                           TC       UPFLAG
000400: 23,2024           00012                           ADRES    LOKONSW
000401: 23,2025           12034                           TCF      AURLKON1
000402:
000403: 23,2026           05516        NOLOKON            TC       DOWNFLAG                              #  IF NO LOCK-ON, SET BIT15 OF RADMODES TO
000404: 23,2027           00012                           ADRES    LOKONSW                               #  INDICATE THAT CONTINUOUS DESIGNATION IS
000405: 23,2030           05504                           TC       UPFLAG                                #  WANTED (TO BE TERMINATED BY V44.)
000406: 23,2031           00264                           ADRES    CDESFLAG
000407: 23,2032           05504                           TC       UPFLAG                                #  SET NO RR ANGLE MONITOR FLAG.
000408: 23,2033           00126                           ADRES    NORRMON                               #  (DISABLE R25 RR GIMBAL MONITOR IN T4RUPT
000409: 23,2034           00003        AURLKON1           RELINT
000410: 23,2035           31112                           CA       DESRET
000411: 23,2036           14640                           TCF      BANKJUMP
000412:
000413: 23,2037           01014        V04N1272           VN       412
000414: 23,2040           77757        -LOKONFG           OCT      -20
000415:
000416: 43,2317                                           BANK     43
000417: 43,2000                                           SETLOC   EXTVERBS
000418: 43,2000                                           BANK
000419: 43,2317                                           COUNT*   $$/EXTVB
000420:
000421: 43,2317           02076        LRON               TC       TESTXACT
000422:


000424: 43,2320           32357        DSP68              CAF      V06N68
000425: 43,2321           04616                           TC       BANKCALL
000426: 43,2322           20353                           CADR     GOMARKFR
000427: 43,2323           02355                           TC       B1+5OFF
000428: 43,2324           02346                           TC       SET57
000429: 43,2325           05155                           TC       ENDOFJOB
000430:
000431: 43,2326           04616        WAIT68             TC       BANKCALL
000432: 43,2327           01735                           CADR     2SECDELY
000433:
000434: 43,2330           34361                           CAF      OCT21
000435: 43,2331           71043                           MASK     EXTVBACT
000436: 43,2332           00006                           EXTEND
000437: 43,2333           15472                           BZF      ENDEXT
000438:
000439: 43,2334           74747                           MASK     BIT5
000440: 43,2335           10000                           CCS      A
000441: 43,2336           12320                           TCF      DSP68
000442:
000443: 43,2337           32357        DSP5068            CAF      V50N68
000444: 43,2340           04616                           TC       BANKCALL
000445: 43,2341           20361                           CADR     GOMARK3R   -1
000446: 43,2342           12355                           TCF      B1+5OFF
000447: 43,2343           12355                           TCF      B1+5OFF
000448: 43,2344           12351                           TCF      RESET57
000449:
000450: 43,2345           12326                           TCF      WAIT68
000451:
000452: 43,2346           05504        SET57              TC       UPFLAG
000453: 43,2347           00254                           ADRES    LRINH
000454:
000455: 43,2350           15563                           TCF      B5OFF
000456:
000457: 43,2351           05516        RESET57            TC       DOWNFLAG
000458: 43,2352           00254                           ADRES    LRINH
000459:
000460: 43,2353           34362                           CAF      OCT25
000461: 43,2354           05565                           TC       B5OFF      +2
000462:
000463: 43,2355           44361        B1+5OFF            CS       OCT21
000464: 43,2356           15564                           TCF      B5OFF      +1
000465:
000466: 43,2357     4361               OCT21              EQUALS   ND1
000467:
000468: 43,2357           01504        V06N68             VN       0668
000469: 43,2360  43,2357               V50N68             =        V06N68
000470:
000471: 43,2360           05516        LROFF              TC       DOWNFLAG                              #  INHIBIT INCORPORATION OF LR DATA      V58
000472: 43,2361           00254                           ADRES    LRINH
000473: 43,2362           12115                           TCF      GOPIN
000474:


000476:
000477: 43,2363  E5,1737                                  EBANK=   OGC
000478:


000480:                                                                                                  #  IMUFINEK      VERB 42         DESCRIPTION
000481:                                                                                                  #      FINE ALIGN IMU
000482:                                                                                                  #      1. REQUIRE EXT VERB DISPLAY AVAILABLE AND SET BUSY FLAG OR TURN ON OPER ERROR AND GO TO PINBRNCH.
000483:                                                                                                  #      2. DISPLAY FLASHING V25,N93....LOAD DELTA GYRO ANGLES....
000484:                                                                                                  #         RESPONSES
000485:                                                                                                  #         A. TERMINATE
000486:                                                                                                  #            1. RELEASE EXT VERB DISPLAY SYSTEM.
000487:                                                                                                  #         B. PROCEED OR ENTER
000488:                                                                                                  #            1. RE-DISPLAY VERB 42
000489:                                                                                                  #            2. EXECUTE IMUFINE (IMU FIVE ALIGN MODE SWITCHING).
000490:                                                                                                  #            3. EXECUTE IMUSTALL (ALLOW FOR DATA TRANSFER)
000491:                                                                                                  #               A. FAILED
000492:                                                                                                  #                  1. RELEASE EXT VERB DISPLAY SYSTEM.
000493:                                                                                                  #               B. GOOD
000494:                                                                                                  #                  1. EXECUTE IMUPULSE (TORQUE IRIGS).
000495:                                                                                                  #                  2. EXECUTE IMUSTALL AND RELEASE EXT VERB DISPLAY SYSTEM.
000496:
000497: 43,2363           02430        IMUFINEK           TC       CKMODCAD
000498: 43,2364           02076                           TC       TESTXACT                              #  FINE ALIGN WITH GYRO TORQUING.
000499: 43,2365           32412                           CAF      VNLODGYR                              #  CALL FOR LOAD OF GYRO COMMANDS
000500: 43,2366           04616                           TC       BANKCALL
000501: 43,2367           20334                           CADR     GOXDSPF
000502: 43,2370           05472                           TC       TERMEXTV
000503: 43,2371           02372                           TC       +1                                    #  PROCEED WITHOUT A LOAD
000504:
000505: 43,2372           32413                           CAF      IMUFINEV                              #  RE-DISPLAY OUR OWN VERB
000506: 43,2373           04616                           TC       BANKCALL
000507: 43,2374           20621                           CADR     EXDSPRET
000508:
000509: 43,2375           04616                           TC       BANKCALL                              #  CALL MODE SWITCH PROG
000510: 43,2376           17202                           CADR     IMUFINE
000511:
000512: 43,2377           04616                           TC       BANKCALL                              #  HIBERNATION
000513: 43,2400           17710                           CADR     IMUSTALL
000514: 43,2401           05472                           TC       ENDEXTVB
000515:
000516: 43,2402           32411        FINEK2             CAF      LGYROBIN                              #  PINBALL LEFT COMMANDS IN OGC REGIST5RS
000517: 43,2403           04616                           TC       BANKCALL
000518: 43,2404           17315                           CADR     IMUPULSE
000519:
000520: 43,2405           04616                           TC       BANKCALL                              #  WAIT FOR PULSES TO GET OUT.
000521: 43,2406           17710                           CADR     IMUSTALL
000522: 43,2407           05472                           TC       ENDEXTVB
000523: 43,2410           05472                           TC       ENDEXTVB
000524:
000525: 43,2411           02737        LGYROBIN           ECADR    OGC
000526: 43,2412           06335        VNLODGYR           VN       2593
000527: 43,2413           12400        IMUFINEV           VN       4200
000528:                                                                                                  #  GOLOADLV      VERB 50            DESCRIPTION
000529:                                                                                                  #                AND OTHER PLEASE


000531:                                                                                                  #                DO SOMETHING VERBS
000532:                                                                                                  #       PLEASE PERFORM, MARK, CALIBRATE, ETC.
000533:                                                                                                  #       1. PRESSING ENTER ON DSKY INDICATES REQUESTED ACTION HAS BEEN PERFORMED, AND THE PROGRAM DOES THE
000534:                                                                                                  #          SAME RECALL AS A COMPLETED LOAD.
000535:                                                                                                  #       2. THE EXECUTION OF A VERB 33 (PROCEED WITHOUT DATA) INDICATES THE REQUESTED ACTION IS NOT DESIRED.
000536:
000537: 43,2414  40,2000                                  SBANK=   PINSUPER                              #  FOR LOADLV1 AND SHOWSUM CADR'S.
000538:
000539: 43,2414           04433        GOLOADLV           TC       FLASHOFF
000540:
000541: 43,2415           34201                           CAF      PINSUPBT
000542: 43,2416           00006                           EXTEND
000543: 43,2417           01007                           WRITE    SUPERBNK
000544: 43,2420           04635                           TC       POSTJUMP
000545: 43,2421           62001                           CADR     LOADLV1
000546:
000547:                                                                                                  #  VERB 47 - AGS INITIALIZATION - R47.
000548:
000549:                                                                                                  #           SEE LOG SECTION AGS INITIALIZATION FOR OTHER PERTINENT REMARKS.
000550:
000551: 43,2422           02076        V47TXACT           TC       TESTXACT                              #  NO OTHER EXTVERB.
000552: 43,2423           34740                           CAF      PRIO4
000553: 43,2424           05105                           TC       FINDVAC
000554: 43,2425  E4,1600                                  EBANK=   AGSBUFF
000555: 43,2425           02005 64064                     2CADR    AGSINIT
000556:
000557: 43,2427           05155                           TC       ENDOFJOB
000558:
000559: 43,2430           31301        CKMODCAD           CA       MODECADR
000560: 43,2431           00006                           EXTEND
000561: 43,2432           16745                           BZF      TCQ
000562: 43,2433           02114                           TC       ALM/END                               #  SOMEBODY IS USING MODECADR SO EXIT
000563:


000565:                                                                                                  #  ALINTIME     VERB 55            DESCRIPTION
000566:                                                                                                  #         REQUIRE POO OR POO-.
000567:                                                                                                  #      1. SET EXT VERB DISPLAY BUSY FLAG.
000568:                                                                                                  #      2. DISPLAY FLASHING V25,N24 (LOAD DELTA TIME FOR AGC CLOCK.
000569:                                                                                                  #      3. REQUIRE EXECUTION OF VERB 23.
000570:                                                                                                  #      4. ADD DELTA TIME, RECEIVED FROM INPUT REGISTER, TO THE COMPUTER TIME.
000571:                                                                                                  #      5. RELEASE EXT VERB DISPLAY SYSTEM
000572:
000573: 43,2434           02076        ALINTIME           TC       TESTXACT
000574: 43,2435           04635                           TC       POSTJUMP                              #  NO ROOM IN 43
000575: 43,2436           64002                           CADR     R33
000576:
000577: 42,2002                                           BANK     42
000578: 42,2000                                           SETLOC   SBAND
000579: 42,2000                                           BANK
000580: 42,2002                                           COUNT*   $$/R33
000581:
000582: 42,2002           35021        R33                CAF      PRIO7
000583: 42,2003           05146                           TC       PRIOCHNG
000584: 42,2004           32034                           CAF      VNLODDT
000585: 42,2005           04616                           TC       BANKCALL
000586: 42,2006           20334                           CADR     GOXDSPF
000587: 42,2007           05472                           TC       ENDEXT                                #  TERMINATE
000588: 42,2010           05472                           TC       ENDEXT                                #  PROCEED
000589: 42,2011           42033                           CS       DEC23                                 #  DATA IN OR RESEQUENCE (UNLIKELY)
000590: 42,2012           60154                           AD       MPAC                                  #  RECALL LEFT VERB IN MPAC
000591: 42,2013           00006                           EXTEND
000592: 42,2014           12016                           BZF      UPDATIME                              #  GO AHEAD WITH UPDATE ONLY IF RECALL
000593: 42,2015           05472                           TC       ENDEXT                                #    WITH V23 (DATA IN).
000594:
000595: 42,2016           00004        UPDATIME           INHINT                                         #  DELTA TIME IS IN DSPTEM1, +1.
000596: 42,2017           34755                           CAF      ZERO
000597: 42,2020           54156                           TS       MPAC       +2                         #  NEEDED FOR TP AGREE
000598: 42,2021           54001                           TS       L                                     #  ZERO T1 + 2 WHILE ALIGNING.
000599: 42,2022           52025                           DXCH     TIME2
000600: 42,2023           52155                           DXCH     MPAC
000601: 42,2024           53051                           DXCH     DSPTEM2    +1                         #  INCREMENT
000602: 42,2025           20155                           DAS      MPAC
000603:
000604: 42,2026           07262                           TC       TPAGREE                               #  FORCE SIGN AGREEMENT.
000605: 42,2027           52155                           DXCH     MPAC                                  #  NEW CLOCK.
000606: 42,2030           20025                           DAS      TIME2
000607: 42,2031           00003                           RELINT
000608: 42,2032           05472        UPDTMEND           TC       ENDEXT
000609:
000610: 42,2033           00027        DEC23              DEC      23         B-14                       #  V 23
000611:
000612: 42,2034           06230        VNLODDT            VN       2524                                  #  V25N24 FOR LOAD DELTA TIME
000613:


000615:                                                                                                  #  SET UP FOR RADAR SAMPLING.
000616:
000617: 42,2035                                           BANK     42
000618: 43,2000                                           SETLOC   EXTVERBS
000619: 43,2000                                           BANK
000620:
000621: 43,2437  E4,1600                                  EBANK=   RSTACK
000622:
000623: 43,2437                                           COUNT*   $$/R0477
000624:
000625: 43,2437           02674        R77                TC       RDRUSECK                              #  TRY TO AVOID THE 1210.
000626: 43,2440           30077                           CA       FLAGWRD3                              #  IS R04 RUNNING?
000627: 43,2441           74743                           MASK     R04FLBIT
000628: 43,2442           10000                           CCS      A
000629: 43,2443           02114                           TC       ALM/END                               #  YES.
000630: 43,2444           05504                           TC       UPFLAG
000631: 43,2445           00117                           ADRES    R77FLAG
000632: 43,2446           12453                           TCF      R04Z
000633:
000634: 43,2447           02674        R04                TC       RDRUSECK                              #  TRY TO AVOID THE 1210.
000635: 43,2450           02076                           TC       TESTXACT
000636: 43,2451           05504                           TC       UPFLAG
000637: 43,2452           00063                           ADRES    R04FLAG                               #  SET R04FLAG FOR ALARMS
000638:
000639: 43,2453           34741        R04Z               CAF      EBANK4
000640: 43,2454           54003                           TS       EBANK
000641: 43,2455           32672                           CAF      1SEC+1                                #  SAMPLE ONCE PER SECOND
000642: 43,2456           55777                           TS       RSAMPDT
000643: 43,2457           34755                           CAF      ZERO
000644: 43,2460           55776                           TS       RTSTLOC
000645: 43,2461           55575                           TS       RFAILCNT                              #  ZERO BAD SAMPLE COUNTER
000646:
000647: 43,2462           00004                           INHINT
000648: 43,2463           42673                           CS       LRPOSCAL                              #  INITIALIZE
000649: 43,2464           70110                           MASK     RADMODES                              #      BIT 9  LR RANGE  LOW SCALE =0
000650: 43,2465           54110                           TS       RADMODES                              #      BIT 6  LR POS 1 =0
000651: 43,2466           32673                           CAF      LRPOSCAL                              #      BIT 3  RR RANGE  LOW SCALE =0
000652: 43,2467           00006                           EXTEND
000653: 43,2470           02033                           RAND     CHAN33
000654: 43,2471           26110                           ADS      RADMODES
000655: 43,2472           00003                           RELINT
000656:
000657: 43,2473           40077                           CS       FLAGWRD3                              #  CHECK R04FLAG      R04 =1    R77 =0
000658: 43,2474           74743                           MASK     R04FLBIT
000659: 43,2475           10000                           CCS      A
000660: 43,2476           12627                           TCF      R04K
000661:
000662: 43,2477           34753                           CAF      ONE                                   #  INDICATES RENDEZVOUS DESIRED
000663: 43,2500           55051                           TS       OPTIONX    +1
000664: 43,2501           34751        R04A               CAF      BIT3                                  #  OPTION CODE FOR V04N12
000665:


000667: 43,2502           55050                           TS       OPTIONX
000668: 43,2503           32667                           CAF      V04N12X
000669: 43,2504           04616                           TC       BANKCALL                              #       R2   00001   RENDEZVOUS RADAR
000670: 43,2505           20353                           CADR     GOMARKFR                              #            00002   LANDING RADAR
000671: 43,2506           12635                           TCF      R04END                                #  V34
000672: 43,2507           12514                           TCF      +5                                    #  V33
000673: 43,2510           12503                           TCF      R04A       +2                         #  R2
000674: 43,2511           34751                           CAF      BIT3
000675: 43,2512           05464                           TC       BLANKET
000676: 43,2513           05155                           TC       ENDOFJOB
000677:
000678: 43,2514           31051                           CA       OPTIONX    +1                         #  SAVE DESIRED OPTION     RR =1     LR =2
000679: 43,2515           55773                           TS       RTSTDEX
000680:
000681: 43,2516           36245        R04X               CAF      SIX                                   #  RR OR LR DESIRED
000682: 43,2517           71773                           MASK     RTSTDEX
000683: 43,2520           10000                           CCS      A
000684: 43,2521           12631                           TCF      R04L                                  #  LANDING RADAR
000685: 43,2522           55775                           TS       RTSTBASE                              #  FOR RR   BASE = 0, MAX = 1
000686:
000687: 43,2523           34752        R04B               CAF      BIT2                                  #  IS RR AUTO MODE DISCRETE PRESENT
000688: 43,2524           00006                           EXTEND
000689: 43,2525           02033                           RAND     CHAN33
000690: 43,2526           00006                           EXTEND
000691: 43,2527           12540                           BZF      R04C                                  #  YES
000692:
000693: 43,2530           32671                           CAF      201R04                                #  REQUEST SELECTION OF RR AUTO MODE
000694: 43,2531           55044                           TS       DSPTEM1
000695: 43,2532           32670                           CAF      V50N25X
000696: 43,2533           04616                           TC       BANKCALL
000697: 43,2534           20345                           CADR     GOMARK4
000698: 43,2535           12635                           TCF      R04END                                #  V34
000699: 43,2536           12523                           TCF      R04B                                  #  V33
000700: 43,2537           12530                           TCF      -7                                    #  E
000701:
000702: 43,2540           34736        R04C               CAF      BIT14                                 #  ENABLE RR AUTO TRACKER
000703: 43,2541           00006                           EXTEND
000704: 43,2542           05012                           WOR      CHAN12
000705:
000706: 43,2543           34752                           CAF      TWO
000707: 43,2544           55774                           TS       RTSTMAX                               #  FOR SEQUENTIAL STORAGE
000708:
000709: 43,2545           05203                           TC       WAITLIST
000710: 43,2546  E4,1600                                  EBANK=   RSTACK
000711: 43,2546           02003 52104                     2CADR    RADSAMP
000712:
000713: 43,2550           00003                           RELINT
000714:
000715: 43,2551           40077                           CS       FLAGWRD3                              #  CHECK R04FLAG       R04 =1    R77 =0
000716: 43,2552           74743                           MASK     R04FLBIT


000718: 43,2553           10000                           CCS      A
000719: 43,2554           12115                           TCF      GOPIN                                 #  R77
000720:
000721: 43,2555           36245                           CAF      SIX                                   #  RR OR LR
000722: 43,2556           71773                           MASK     RTSTDEX
000723: 43,2557           10000                           CCS      A
000724: 43,2560           12575                           TCF      R04LR                                 #  LR
000725:
000726: 43,2561           32663        R04RR              CAF      V16N72                                #  DISPLAY RR CDU ANGLES (1/SEC)
000727: 43,2562           04616                           TC       BANKCALL                              #           R1  +  XXX.XX DEG   TRUNNION
000728: 43,2563           20334                           CADR     GOMARKF                               #           R2  +  XXX.XX DEG   SHAFT
000729: 43,2564           12635                           TCF      R04END                                #  V34      R3     BLANK
000730: 43,2565           12567                           TCF      +2                                    #  V33
000731: 43,2566           12561                           TCF      R04RR                                 #  V32
000732:
000733: 43,2567           32664                           CAF      V16N78                                #  DISPLAY RR RANGE AND RANGE RATE (1/SEC)
000734: 43,2570           04616                           TC       BANKCALL                              #           R1  +- XXX.XX NM    RANGE
000735: 43,2571           20334                           CADR     GOMARKF                               #           R2  +- XXXXX. FPS   RANGE RATE
000736: 43,2572           12635                           TCF      R04END                                #  V34      R3     BLANK
000737: 43,2573           12611                           TCF      R04Y                                  #  V33
000738: 43,2574           12561                           TCF      R04RR                                 #  V32
000739:
000740: 43,2575           32665        R04LR              CAF      V16N66                                #  DISPLAY LR RANGE AND POSITION (1/SEC)
000741: 43,2576           04616                           TC       BANKCALL                              #           R1  +- XXXXX. FT    LR RANGE
000742: 43,2577           20334                           CADR     GOMARKF                               #           R2  +  0000X.       POS. NO.
000743: 43,2600           12635                           TCF      R04END                                #  V34      R3     BLANK
000744: 43,2601           12603                           TCF      +2                                    #  V33
000745: 43,2602           12575                           TCF      R04LR                                 #  V32
000746:
000747: 43,2603           32666                           CAF      V16N67                                #  DISPLAY LR VELX, VELY, VELZ (1/SEC)
000748: 43,2604           04616                           TC       BANKCALL                              #           R1  +- XXXXX. FPS   LR V(X)
000749: 43,2605           20334                           CADR     GOMARKF                               #           R2  +- XXXXX. FPS   LR V(Y)
000750: 43,2606           12635                           TCF      R04END                                #  V34      R3  +- XXXXX. FPS   LR V(Z)
000751: 43,2607           12611                           TCF      R04Y                                  #  V33
000752: 43,2610           12575                           TCF      R04LR                                 #  V32
000753:
000754: 43,2611           34755        R04Y               CAF      ZERO                                  #  TO TERMINATE SAMPLING
000755: 43,2612           55777                           TS       RSAMPDT
000756: 43,2613           04616                           TC       BANKCALL
000757: 43,2614           01735                           CADR     2SECDELY                              #  WAIT FOR LAST RADARUPT
000758: 43,2615           32672                           CAF      1SEC+1                                #  SAMPLE ONCE PER SECOND
000759: 43,2616           55777                           TS       RSAMPDT
000760: 43,2617           34755                           CAF      ZERO                                  #  FOR STORING RESULTS
000761: 43,2620           55776                           TS       RTSTLOC
000762: 43,2621           36245                           CAF      SIX
000763: 43,2622           71773                           MASK     RTSTDEX
000764: 43,2623           10000                           CCS      A
000765: 43,2624           44753                           CS       ONE                                   #  WAS LR
000766: 43,2625           64752                           AD       TWO                                   #  WAS RR
000767: 43,2626           12515                           TCF      R04X       -1
000768:


000770:
000771: 43,2627           34766        R04K               CAF      250MS+1                               #  SAMPLE 4 LR COMPONENTS PER SECOND.
000772: 43,2630           55777                           TS       RSAMPDT
000773:
000774: 43,2631           34752        R04L               CAF      TWO
000775: 43,2632           55775                           TS       RTSTBASE                              #  FOR LR   BASE =2, MAX =3
000776: 43,2633           36245                           CAF      SIX
000777: 43,2634           12544                           TCF      R04C       +4
000778: 43,2635           34755        R04END             CAF      ZERO                                  #  ZERO RSAMPDT
000779: 43,2636           55777                           TS       RSAMPDT                               #  TO TERMINATE SAMPLING
000780: 43,2637           34744                           CAF      BIT8                                  #  WAIT 1.28 SECONDS FOR POSSIBLE
000781: 43,2640           04616                           TC       BANKCALL                              #  PENDING RUPT.
000782: 43,2641           01736                           CADR     DELAYJOB
000783:
000784: 43,2642           00004                           INHINT
000785: 43,2643           44736                           CS       BIT14                                 #  DISABLE RR AUTO TRACKER
000786: 43,2644           00006                           EXTEND
000787: 43,2645           03012                           WAND     CHAN12
000788:
000789: 43,2646           05516                           TC       DOWNFLAG
000790: 43,2647           00063                           ADRES    R04FLAG                               #  SIGNAL END OF R04.
000791:
000792: 43,2650           05472                           TC       ENDEXT
000793:
000794: 43,2651           34741        R77END             CAF      EBANK4                                #  TO TERMINATE SAMPLING
000795: 43,2652           54003                           TS       EBANK
000796: 43,2653           34755                           CAF      ZERO
000797: 43,2654           55777                           TS       RSAMPDT
000798: 43,2655           34746                           CAF      BIT6                                  #  WAIT 320 MS FOR POSSIBLE
000799: 43,2656           04616                           TC       BANKCALL                              #  PENDING RUPT.
000800: 43,2657           01736                           CADR     DELAYJOB
000801:
000802: 43,2660           05516                           TC       DOWNFLAG
000803: 43,2661           00117                           ADRES    R77FLAG
000804: 43,2662           12115                           TCF      GOPIN
000805:
000806: 43,2663           04110        V16N72             VN       1672
000807: 43,2664           04116        V16N78             VN       1678
000808: 43,2665           04102        V16N66             VN       1666
000809: 43,2666           04103        V16N67             VN       1667
000810: 43,2667           01014        V04N12X            VN       412
000811: 43,2670           14431        V50N25X            VN       5025
000812: 43,2671           00201        201R04             OCT      00201
000813: 43,2672           00145        1SEC+1             DEC      101        B-14
000814: 43,2673     4766               250MS+1            EQUALS   CALLCODE
000815: 43,2673           00444        LRPOSCAL           OCT      444
000816:


000818: 43,2674           40077        RDRUSECK           CS       FLAGWRD3                              #  IS R29 ON?
000819: 43,2675           74741                           MASK     NR29FBIT
000820: 43,2676           10000                           CCS      A
000821: 43,2677           02114                           TC       ALM/END                               #  YES
000822: 43,2700           30101                           CA       FLAGWRD5                              #  IS R77 RUNNING?
000823: 43,2701           74741                           MASK     R77FLBIT
000824: 43,2702           10000                           CCS      A
000825: 43,2703           02114                           TC       ALM/END                               #  YES.
000826: 43,2704           40103                           CS       FLAGWRD7                              #  IS SERVICER RUNNING AND HENCE POSSIBLY
000827: 43,2705           74746                           MASK     V37FLBIT                              #  R12 USING THE LR?
000828: 43,2706           10000                           CCS      A
000829: 43,2707           12714                           TCF      CHECKRR                               #  NO
000830: 43,2710           30107                           CA       FLGWRD11                              #  YES, IS R12 ON?
000831: 43,2711           74735                           MASK     LRBYBIT                               #  BIT 15
000832: 43,2712           00006                           EXTEND
000833: 43,2713           12114                           BZF      ALM/END                               #  YES
000834: 43,2714           40075        CHECKRR            CS       FLAGWRD1                              #  IS THE TRACK FLAG SET AND HENCE POSSIBLY
000835: 43,2715           74747                           MASK     TRACKBIT                              #  P20 USING THE RR?
000836: 43,2716           10000                           CCS      A
000837: 43,2717           00002                           TC       Q                                     #  NOT ALLOWED DURING P20
000838: 43,2720           02114                           TC       ALM/END                               #  P22 OR P25,  (R65)
000839: 43,2721                                           COUNT*   $$/EXTVB
000840:
000841: 43,2721           02076        VB64               TC       TESTXACT                              #  IF DISPLAY SYS. NOT BUSY,MAKE IT BUSY.
000842: 43,2722           34740                           CAF      PRIO4
000843: 43,2723           05105                           TC       FINDVAC
000844: 43,2724  E4,1600                                  EBANK=   ALPHASB
000845: 43,2724           03606 64104                     2CADR    SBANDANT                              #  CALC.,DISPLAY S-BAND ANTENNA ANGLES.
000846:
000847: 43,2726           05155                           TC       ENDOFJOB
000848:


000850:                                                                                                  #  IMUATTCK     VERB 43            DESCRIPTION
000851:                                                                                                  #      LOAD IMU ATTITUDE ERROR METERS
000852:                                                                                                  #         1. REQUIRE POO OR FRESH START.
000853:                                                                                                  #         2. REQUIRE COARSE ALIGN ENABLE AND ZERO ICDU BITS OFF.
000854:                                                                                                  #         3. REQUIRE THAT NEEDLES BE OFF.
000855:                                                                                                  #         4. REQUEST LOAD OF N22 (VAUES TO BE DISPLAYED).
000856:                                                                                                  #         5. ON PROCEED OR ENTER RE-DISPLAY V43 AND SEND PULSES.
000857:
000858: 43,2727           02117        IMUATTCK           TC       CHKPOOH                               #  VB 76 - LOAD IMU ATT. ERROR METERS
000859:
000860: 43,2730           34763                           CAF      BITS4&5                               #  SEE IF COARSE ALIGN ENABLE AND ZERO IMU
000861: 43,2731           00006                           EXTEND                                         #  CDUS BITS ARE ON
000862: 43,2732           02012                           RAND     CHAN12
000863: 43,2733           10000                           CCS      A
000864: 43,2734           12114                           TCF      ALM/END                               #  NOT ALLOWED IF IMU COARSE OR IMU ZERO ON
000865:
000866: 43,2735           34355                           CAF      BIT13-14                              #  BOTH BITS 13 AND 14 MUST BE 1
000867: 43,2736           00006                           EXTEND                                         #  INDICATING THE MODE SELECTED IS OFF.
000868: 43,2737           06031                           RXOR     CHAN31
000869: 43,2740           74355                           MASK     BIT13-14
000870: 43,2741           00006                           EXTEND
000871: 43,2742           12744                           BZF      +2                                    #  NEEDLES IS OFF.
000872: 43,2743           12114                           TCF      ALM/END                               #  EXIT.  NEEDLES IS ON.
000873:
000874: 43,2744           02076                           TC       TESTXACT
000875:
000876: 43,2745           32226                           CAF      VNLODCDU
000877: 43,2746           04616                           TC       BANKCALL
000878: 43,2747           20334                           CADR     GOXDSPF
000879: 43,2750           05472                           TC       ENDEXT                                #  V34
000880: 43,2751           02752                           TC       +1
000881: 43,2752           32765                           CAF      V43K                                  #  REDISPLAY OUR VERB.
000882: 43,2753           04616                           TC       BANKCALL
000883: 43,2754           20621                           CADR     EXDSPRET
000884: 43,2755           34746                           CAF      BIT6
000885: 43,2756           00006                           EXTEND
000886: 43,2757           05012                           WOR      CHAN12                                #  ENABLE ERROR COUNTERS.
000887: 43,2760           34752                           CAF      TWO
000888: 43,2761           05203                           TC       WAITLIST                              #  PUT OUT COMMANDS IN .32 SECONDS.
000889: 43,2762     0321                                  EBANK=   THETAD
000890: 43,2762           02035 64100                     2CADR    ATTCK2
000891:
000892: 43,2764           15472                           TCF      ENDEXT
000893:
000894: 42,2035                                           BANK     42
000895: 42,2000                                           SETLOC   PINBALL3                              #  SOMETHING IN B42.
000896: 42,2000                                           BANK
000897:
000898: 42,2035                                           COUNT*   $$/EXTVB


000900: 42,2035           34752        ATTCK2             CAF      TWO                                   #  PUT OUT COMMANDS.
000901: 42,2036           54002                 +1        TS       Q                                     #  CDU WILL LIMIT EXCESS DATA.
000902: 42,2037           50000                           INDEX    A
000903: 42,2040           30321                           CA       THETAD
000904: 42,2041           00006                           EXTEND
000905: 42,2042           72053                           MP       ATTSCALE
000906: 42,2043           50002                           INDEX    Q
000907: 42,2044           56050                           XCH      CDUXCMD
000908: 42,2045           10002                           CCS      Q
000909: 42,2046           12036                           TCF      ATTCK2     +1
000910:
000911: 42,2047           37743                           CAF      13,14,15
000912: 42,2050           00006                           EXTEND
000913: 42,2051           05014                           WOR      CHAN14
000914: 42,2052           15261                           TCF      TASKOVER                              #  LEAVE ERROR COUNTERS ENABLED.
000915:
000916: 42,2053           03146        ATTSCALE           DEC      0.1
000917:
000918: 07,2667                                           BANK     7
000919: 43,2000                                           SETLOC   EXTVERBS
000920: 43,2000                                           BANK
000921:
000922: 43,2765                                           COUNT*   $$/EXTVB
000923:
000924: 43,2765           12600        V43K               VN       4300
000925:                                                                                                  #  V82PERF       VERB82          DESCRIPTION
000926:                                                                                                  #               REQUEST ORBIT PARAMETERS DISPLAY (R30)
000927:                                                                                                  #  1. IF AVERAGE G IS OFF:
000928:                                                                                                  #           FLASH DISPLAY V04N06. R2 INDICATES WHICH SHIP'S STATE VECTOR IS
000929:                                                                                                  #            TO BE UPDATED. INITIAL CHOICE IS THIS SHIP (R2=1). ASTRONAUT
000930:                                                                                                  #            CAN CHANGE TO OTHER SHIP BY V22EXE, WHERE X NOT EQ 1.
000931:                                                                                                  #           SELECTED STATE VECTOR UPDATED BY THISPREC (OTHPREC).
000932:                                                                                                  #           CALLS SR30.1 (WHICH CALLS TFFCONMU + TFFRP/RA) TO CALCULATE
000933:                                                                                                  #            RPER (PERIGEE RADIUS), RAPO (APOGEE RADIUS), HPER (PERIGEE
000934:                                                                                                  #            HEIGHT ABOVE LAUNCH PAD OR LUNAR LANDING SITE), HAPO (APOGEE
000935:                                                                                                  #            HEIGHT AS ABOVE), TPER (TIME TO PERIGEE), TFF (TIME TO
000936:                                                                                                  #            INTERSECT 300 KFT ABOVE PAD OR 35KFT ABOVE LANDING SITE).
000937:                                                                                                  #           FLASH MONITOR V16N44 (HAPO, HPER, TFF).TFF IS -59M59S IF IT WAS
000938:                                                                                                  #            NOT COMPUTABLE, OTHERWISE IT INCREMENTS ONCE PER SECOND.
000939:                                                                                                  #            ASTRONAUT HAS OPTION TO MONITOR TPER BY KEYING IN N 32 E.
000940:                                                                                                  #            DISPLAY IS IN HMS, IS NEGATIVE (AS WAS TFF), AND INCREMENTS
000941:                                                                                                  #            ONCE PER SECOND ONLY IF TFF DISPLAY WAS -59M59S.
000942:
000943:                                                                                                  #  2. IF AVERAGE G IS ON:
000944:                                                                                                  #           CALLS SR30.1 APPROX EVERY TWO SECS.  STATE VECTOR IS ALWAYS
000945:                                                                                                  #            FOR THIS VEHICLE. V82 DOES NOT DISTURB STATE VECTOR.  RESULTS
000946:                                                                                                  #            OF SR30.1 ARE RAPO, RPER, HAPO, HPER, TPER, TFF.
000947:                                                                                                  #           FLASH MONITOR V16N44 (HAPO, HPER, TFF).
000948:                                                                                                  #           IF MODE IS P11, THEN CALL DELRSPL SO ASTRONAUT CAN MONITOR
000949:                                                                                                  #            RESULTS BY N50E. SPLASH COMPUTATION DONE ONCE PER TWO SECS.
000950:


000952: 43,2766           02076        V82PERF            TC       TESTXACT
000953:
000954: 43,2767           35021                           CAF      PRIO7                                 #  LESS THAN LAMBERT.  R30,V82
000955: 43,2770           05146                           TC       PRIOCHNG
000956: 43,2771           00006                           EXTEND
000957: 43,2772           32775                           DCA      V82CON
000958: 43,2773           05165                           TC       SUPDXCHZ                              #  V82CALL IN DIFF SUPERBANK FROM V82PERF
000959:
000960: 43,2774  E4,1716                                  EBANK=   HAPO
000961: 43,2774           03242 44104  V82CON             2CADR    V82CALL
000962:
000963:                                                                                                  #  VB83PERF     VERB 83            DESCRIPTION
000964:                                                                                                  #      REQUEST RENDEZVOUS PARAMETER DISPLAY (R31)
000965:                                                                                                  #      1. SET EXT VERB DISPLAY BUSY FLAG.
000966:                                                                                                  #      2. SCHEDULE R31CALL WITH PRIORITY 5.
000967:                                                                                                  #         A. DISPLAY
000968:                                                                                                  #             R1  RANGE
000969:                                                                                                  #             R2  RANGE RATE
000970:                                                                                                  #             R3  THETA
000971:
000972: 43,2776           02076        V83PERF            TC       TESTXACT
000973:
000974: 43,2777           34752                           CAF      BIT2
000975: 43,3000           05203                           TC       WAITLIST
000976: 43,3001  E7,1611                                  EBANK=   TSTRT
000977: 43,3001           03737 60107                     2CADR    R31CALL
000978:
000979: 43,3003           05155                           TC       ENDOFJOB
000980:
000981:                                                                                                  #  VERB 89 DESCRIPTION     RENDEZVOUS FINAL ATTITUDE ROUTINE (R63)
000982:
000983:                                                                                                  #  CALLED BY VERB 89 ENTER DURING P00. PRIO 10 USED.  CALCULATES AND
000984:                                                                                                  #  DISPLAYS FINAL FDAI BALL ANGLES TO POINT LM +X OR +Z AXIS AT CSM.
000985:
000986:                                                                                                  #  1. KEY IN V 89 E ONLY IF IN PROG 00. IF NOT IN P00, OPERATOR ERROR AND
000987:                                                                                                  #  EXIT R63, OTHERWISE CONTINUE.
000988:
000989:                                                                                                  #  2. IF IN P00, DO IMU STATUS CHECK ROUTINE (R02BOTH). IF IMU ON AND ITS
000990:                                                                                                  #  ORIENTATION KNOWN TO LGC, CONTINUE.
000991:
000992:                                                                                                  #  3. FLASH DISPLAY V 04 N 06.  R2 INDICATES WHICH SPACECRAFT AXIS IS TO
000993:                                                                                                  #  BE POINTED AT CSM.  INITIAL CHOICE IS PREFERRED (+Z) AXIS (R2=1).
000994:                                                                                                  #  ASTRONAUT CAN CHANGE TO (+X) AXIS (R2 NOT = 1) BY V 22 E 2 E.  CONTINUE
000995:                                                                                                  #  AFTER KEYING IN PROCEED.
000996:
000997:                                                                                                  #  4. BOTH VEHICLE STATE VECTORS UPDATED BY CONIC EQS.
000998:
000999:                                                                                                  #  5. HALF MAGNITUDE UNIT LOS VECTOR (IN STABLE MEMBER COORDINATES) AND


001001:                                                                                                  #  HALF MAGNITUDE UNIT SPACECRAFT AXIS VECTOR (IN BODY COORDINATES)
001002:                                                                                                  #  PREPARED FOR VECPOINT.
001003:
001004:                                                                                                  #  6. GIMBAL ANGLES FROM VECPOINT TRANSFORMED INTO FDAI BALL ANGLES BY
001005:                                                                                                  #  BALLANGS. FLASH DISPLAY V 06 N 18 AND AWAIT RESPONSE.
001006:
001007:                                                                                                  #  7. RECYCLE - RETURN TO STEP 4.
001008:                                                                                                  #     TERMINATE - EXIT R63.
001009:                                                                                                  #     PROCEED - RESET 3AXISFLG AND CALL R60LEM FOR ATTITUDE MANEUVER.
001010:
001011: 43,3004           02117        V89PERF            TC       CHKPOOH
001012: 43,3005           02076                           TC       TESTXACT
001013: 43,3006           34737                           CAF      PRIO10
001014: 43,3007           05105                           TC       FINDVAC
001015: 43,3010  E4,1606                                  EBANK=   RONE
001016: 43,3010           02022 54104                     2CADR    V89CALL
001017:
001018: 43,3012           05155                           TC       ENDOFJOB
001019:
001020:                                                                                                  #  V90PERF     VERB 90             DESCRIPTION
001021:                                                                                                  #      REQUEST RENDEZVOUS OUT-OF-PLANE DISPLAY (R36)
001022:                                                                                                  #      1. SET EXT VERB DISPLAY BUSY FLAG.
001023:                                                                                                  #      2. SCHEDULE R36 CALL WITH PRIORITY 10
001024:                                                                                                  #         A. DISPLAY
001025:                                                                                                  #             TIME OF EVENT - HOURS , MINUTES , SECONDS
001026:                                                                                                  #             Y  OUT-OF-PLANE POSITION - NAUTICAL MILES
001027:                                                                                                  #             YDOT  OUT-OF-PLANE VELOCITY - FEET/SECOND
001028:                                                                                                  #             PSI  ANGLE BTW LINE OF SIGHT AND FORWARD
001029:                                                                                                  #                  DIRECTION VECTOR IN HORIZONTAL PLANE - DEGREES
001030:
001031: 43,3013           02076        V90PERF            TC       TESTXACT
001032: 43,3014           35021                           CAF      PRIO7                                 #  R36,V90
001033: 43,3015           05105                           TC       FINDVAC
001034: 43,3016  E4,1606                                  EBANK=   RPASS36
001035: 43,3016           02640 10104                     2CADR    R36
001036:
001037: 43,3020           15155                           TCF      ENDOFJOB
001038:                                                                                                  #  MINIMP     VERB 76              DESCRIPTION
001039:                                                                                                  #      MINIMUM IMPULSE MODE
001040:                                                                                                  #      1. SET MINIMUM IMPULSE RHC MODE FLAG TO 1.
001041:
001042: 43,3021           05504        MINIMP             TC       UPFLAG                                #  SET PULSES = 1 (MIN. IMPULSE MODE)
001043: 43,3022           00303                           ADRES    PULSEFLG
001044: 43,3023           12115                           TCF      GOPIN                                 #  RETURN VIA PINBRNCH
001045:
001046:                                                                                                  #  NOMINIMP     VERB 77            DESCRIPTION
001047:                                                                                                  #      RATE COMMAND MODE
001048:                                                                                                  #      1. SET MINIMUM IMPULSE RHC MODE FLAG TO 0. (ZERO INDICATES NOT MINIMUM IMPULSE MODE.).
001049:                                                                                                  #      2. MOVE CDUX,CDUY,CDUZ INTO CDUXD,CDUYD,CDUZD.


001051:
001052: 43,3024           05516        NOMINIMP           TC       DOWNFLAG                              #  SET PULSES = 0 (NOT MINIMUM IMPULSE MODE
001053: 43,3025           00303                           ADRES    PULSEFLG
001054: 43,3026           00004                           INHINT
001055: 43,3027           04674                           TC       IBNKCALL
001056: 43,3030           40154                           CADR     ZATTEROR
001057: 43,3031           02115                           TC       GOPIN
001058:


001060:                                                                                                  #  CREWMANU     VERB 49            DESCRIPTION
001061:                                                                                                  #      START AUTOMATIC ATTITUDE MANEUVER
001062:                                                                                                  #      1. REQUIRE PROGRAM 00 ACTIVE.
001063:                                                                                                  #      2. SET EXT VERB DISPLAY BUSY FLAG.
001064:                                                                                                  #      3. SCHEDULE R62DISP WITH PRIORITY 10.
001065:                                                                                                  #      4. RELEASE EXT VERB DISPLAY.
001066:
001067:                                                                                                  #    R62DISP
001068:                                                                                                  #      1. DISPLAY FLASHING V06,N22.
001069:                                                                                                  #         RESPONSES
001070:                                                                                                  #         A. TERMINATE
001071:                                                                                                  #            1. GO TO GOTOPOOH.
001072:                                                                                                  #         B. PROCEED
001073:                                                                                                  #            1. SET 3AXISFLG TO INDICATE MANEUVER IS SPECIFIED BY 3 AXIS.
001074:                                                                                                  #            2. EXECUTE R60LEM (ATTITUDE MANEUVER).
001075:                                                                                                  #         C. ENTER
001076:                                                                                                  #            1. REPEAT FLASHING V06,N22.
001077:
001078: 43,3032           02117        CREWMANU           TC       CHKPOOH                               #  DEMAND POO
001079:
001080: 43,3033           02076                           TC       TESTXACT
001081:
001082: 43,3034           34737                           CAF      PRIO10
001083: 43,3035           05105                           TC       FINDVAC
001084: 43,3036  E6,1676                                  EBANK=   BCDU
001085: 43,3036           02103 46106                     2CADR    R62DISP
001086:
001087: 43,3040           05155                           TC       ENDOFJOB
001088:


001090:                                                                                                  #  TRMTRACK     VERB 56              DESCRIPTION
001091:                                                                                                  #        TERMINATE TRACKING (P20 AND P25).
001092:                                                                                                  #        1. KNOCK DOWN RENDEZVOUS, TRACK, AND UPDATE FLAGS.
001093:                                                                                                  #        2. REQUIRE P20 OR P25 NOT RUNNING ALONE OR GO TO GOTOPOOH (REQUEST PROGRAM 00).
001094:                                                                                                  #        3. SCHEDULE V56TOVAC WITH PRIORITY 30.
001095:
001096:                                                                                                  #        V56TOVAC
001097:                                                                                                  #        1. EXECUTE INTSTALL (IF INTEGRATION IS RUNNING, STALL UNTIL IT IS FINISHED.).
001098:                                                                                                  #        2. ZERO GROUP 2 TO HALT P20.
001099:                                                                                                  #        3. TRANSFER CONTROL TO GOPROG2 (SOFTWARE RESTART).
001100:
001101: 43,3041           33061        TRMTRACK           CA       BITS9+7                               #  IS REND OR P25 FLAG ON
001102: 43,3042           70074                           MASK     FLAGWRD0
001103: 43,3043           00006                           EXTEND
001104: 43,3044           12115                           BZF      GOPIN                                 #  NO
001105:
001106: 43,3045           05516                           TC       DOWNFLAG
001107: 43,3046           00010                           ADRES    RNDVZFLG
001108:
001109: 43,3047           05516                           TC       DOWNFLAG
001110: 43,3050           00006                           ADRES    P25FLAG
001111:
001112: 43,3051           05516                           TC       DOWNFLAG                              #  ENSURE SEARCH FLAG IS OFF
001113: 43,3052           00037                           ADRES    SRCHOPTN
001114:
001115: 43,3053           34747                           CA       TRACKBIT                              #  IS TRACK FLAG ON?
001116: 43,3054           70075                           MASK     FLAGWRD1
001117: 43,3055           00006                           EXTEND
001118: 43,3056           12115                           BZF      GOPIN
001119:
001120: 43,3057           04635                           TC       POSTJUMP
001121: 43,3060           64054                           CADR     TRMTRAK1
001122:
001123: 43,3061           00500        BITS9+7            OCT      500
001124:
001125: 42,2000                                           SETLOC   SBAND                                 #  BANK 42
001126: 42,2000                                           BANK
001127:
001128: 42,2054                                           COUNT*   $$/EXTVB
001129:
001130: 42,2054           05516        TRMTRAK1           TC       DOWNFLAG
001131: 42,2055           00027                           ADRES    UPDATFLG                              #  UPDATE FLAG DOWN
001132: 42,2056           05516                           TC       DOWNFLAG
001133: 42,2057           00031                           ADRES    TRACKFLG                              #  TRACK FLAG DOWN
001134: 42,2060           05516                           TC       DOWNFLAG
001135: 42,2061           00007                           ADRES    IMUSE
001136:
001137: 42,2062           06042                           TC       INTPRET
001138: 42,2063           77624                           CALL
001139: 42,2064           27412                                    INTSTALL                              #  DONT INTERRUPT INTEGRATION


001141: 42,2065           77776                           EXIT
001142:
001143: 42,2066           05353                           TC       PHASCHNG
001144: 42,2067           00002                           OCT      2                                     #  KILL GROUP 2 TO HALT P20 ACTIVITY
001145:
001146: 42,2070           00004                           INHINT
001147: 42,2071           04674                           TC       IBNKCALL                              #  ZERO THE COMMANDED RATES TO STOP
001148: 42,2072           40166                           CADR     STOPRATE                              #  MANEUVER
001149:
001150: 42,2073           04674                           TC       IBNKCALL
001151: 42,2074           40115                           CADR     RESTORDB
001152:
001153: 42,2075           06011                           TC       CLRADMOD                              #  CLEAR BITS 10 + 15 OF RADMODES.
001154:
001155: 42,2076           44736                           CS       BIT14                                 #  DISABLE LOCKON
001156: 42,2077           00006                           EXTEND
001157: 42,2100           03012                           WAND     CHAN12
001158: 42,2101           04635                           TC       POSTJUMP
001159: 42,2102           12766                           CADR     GOPROG2                               #  CAUSE RESTART.
001160:
001161:                                                                                                  #  DNEDUMP     VERB 74             DESCRIPTION
001162:                                                                                                  #      INITIALIZE DOWN-TELEMETRY PROGRAM FOR ERASABLE MEMORY DUMP.
001163:                                                                                                  #      1. SET EXT VERB DISPLAY BUSY FLAG.
001164:                                                                                                  #      2. REPLACE CURRENT DOWNLIST WITH ERASABLE MEMORY.
001165:                                                                                                  #      3. RELEASE EXT VERB DISPLAY.
001166:
001167: 43,2000                                           SETLOC   EXTVERBS
001168: 43,2000                                           BANK
001169:
001170: 43,3062                                           COUNT*   $$/EXTVB
001171:
001172: 43,3062     0400                                  EBANK=   400
001173: 43,3062           33065        DNEDUMP            CAF      LDNDUMPI
001174: 43,3063           54335                           TS       DNTMGOTO
001175: 43,3064           02115                           TC       GOPIN
001176:
001177: 43,3065  43,3062               V74                EQUALS   DNEDUMP
001178: 43,3065           03706        LDNDUMPI           REMADR   DNDUMPI
001179:
001180:                                                                                                  #  LEMVEC     VERB 80             DESCRIPTION
001181:                                                                                                  #      UPDATE LEM STATE VECTOR
001182:                                                                                                  #         RESET VEHUPFLG TO 0
001183:
001184: 43,3066           05516        LEMVEC             TC       DOWNFLAG
001185: 43,3067           00026                           ADRES    VEHUPFLG                              #  VB 80 - VEHUPFLG DOWN INDICATES LEM
001186:
001187: 43,3070           03073                           TC       NOUPDOWN
001188:
001189:                                                                                                  #  CSMVEC     VERB 81             DESCRIPTION
001190:                                                                                                  #      UPDATE CSM STATE VECTOR


001192:                                                                                                  #                SET VEHUPFLG TO 1
001193:
001194: 43,3071           05504        CSMVEC             TC       UPFLAG
001195: 43,3072           00026                           ADRES    VEHUPFLG                              #  VB 81 - VEHUPFLG UP INDICATES CSM
001196:
001197: 43,3073           05516        NOUPDOWN           TC       DOWNFLAG
001198: 43,3074           00030                           ADRES    NOUPFLAG
001199:
001200: 43,3075           12115                           TCF      GOPIN
001201:
001202:                                                                                                  #  UPDATOFF   VERB 95              DESCRIPTION
001203:                                                                                                  #      INHIBIT STATE VECTOR UPDATES BY INCORP
001204:                                                                                                  #         SET NOUPFLAG TO 1
001205:
001206: 43,3076           05504        UPDATOFF           TC       UPFLAG                                #  VB 95 SET NOUPFLAG
001207: 43,3077           00030                           ADRES    NOUPFLAG
001208:
001209: 43,3100           02115                           TC       GOPIN


001211:                                                                                                  #  SYSTEST     VERB 92             DESCRIPTION
001212:                                                                                                  #    OPERATE IMU PERFORMANCE TEST.
001213:                                                                                                  #      1. REQUIRE PROGRAM 00 OR TURN ON OPERATOR ERROR.
001214:                                                                                                  #      2. SET EXT VERB BUSY FLAG.
001215:
001216: 43,3101  E5,1417                                  EBANK=   QPLACE
001217:
001218: 43,3101           02117        SYSTEST            TC       CHKPOOH                               #  DEMAND POO
001219:
001220: 43,3102           02076                           TC       TESTXACT
001221:
001222: 43,3103           37713                           CAF      PRIO22
001223: 43,3104           05105                           TC       FINDVAC
001224: 43,3105  E5,1417                                  EBANK=   QPLACE
001225: 43,3105  37,2000                                  SBANK=   IMUSUPER
001226: 43,3105           02002 76065                     2CADR    REDO
001227:
001228: 43,3107           05155                           TC       ENDOFJOB
001229:
001230:                                                                                                  #  VERB 93       CLEAR RENDWFLG, CAUSES W-MATRIX TO BE RE-INITIALIZED.
001231:
001232: 43,3110           00004        WMATRXNG           INHINT
001233: 43,3111           44753                           CS       RENDWBIT
001234: 43,3112           70101                           MASK     FLAGWRD5
001235: 43,3113           54101                           TS       FLAGWRD5
001236:
001237: 43,3114           02115                           TC       GOPIN
001238:
001239: 43,3115  43,3115               GOSHOSUM           EQUALS   SHOWSUM
001240:
001241: 43,3115           02117        SHOWSUM            TC       CHKPOOH                               #  *
001242: 43,3116           02076                           TC       TESTXACT                              #  *
001243: 43,3117           35021                           CAF      PRIO7                                 #  ALLOW OTHER CHARINS.
001244: 43,3120           05146                           TC       PRIOCHNG
001245: 43,3121           34753                           CAF      S+1                                   #  *
001246: 43,3122           55376                           TS       SKEEP6                                #  * SHOWSUM OPTION
001247: 43,3123           34755                           CAF      S+ZERO                                #  *
001248: 43,3124           55362                           TS       SMODE                                 #  * TURN OFF SELF-CHECK
001249: 43,3125           33266                           CA       SELFADRS                              #  *
001250: 43,3126           55361                           TS       SELFRET                               #  *
001251: 43,3127           03543                           TC       STSHOSUM                              #  * ENTER ROPECHK
001252:
001253: 43,3130           23372        SDISPLAY           LXCH     SKEEP2                                #  * BANK # FOR DISPLAY
001254: 43,3131           23373                           LXCH     SKEEP3                                #  * BUGGER WORD FOR DISPLAY
001255: 43,3132           33265        NOKILL             CA       ADRS1                                 #  *
001256: 43,3133           54156                           TS       MPAC       +2                         #  *
001257: 43,3134           33145                           CA       VNCON                                 #  * 0501
001258: 43,3135           04616                           TC       BANKCALL                              #  *
001259: 43,3136           20334                           CADR     GOXDSPF                               #  *
001260: 43,3137           03142                           TC       +3                                    #  *
001261: 43,3140           03654                           TC       NXTBNK                                #  *


001263: 43,3141           03132                           TC       NOKILL                                #  *
001264: 43,3142           33266                           CA       SELFADRS
001265: 43,3143           55371                           TS       SKEEP1
001266:
001267: 43,3144           05472                           TC       ENDEXT                                #  *
001268:
001269: 43,3145           01201        VNCON              VN       501                                   #  *
001270:
001271: 43,3146           31376        ENDSUMS            CA       SKEEP6                                #  *
001272: 43,3147           00006                           EXTEND                                         #  *
001273: 43,3150           13357                           BZF      SELFCHK                               #  * ROPECHK, START SELFCHK AGAIN.
001274: 43,3151           03543                           TC       STSHOSUM                              #  * START SHOWSUM AGAIN.
001275:


001277:                                                                                                  #  DAPDISP     VERB 48             DESCRIPTION
001278:                                                                                                  #      LOAD AUTO PILOT DATA
001279:                                                                                                  #      1. REQUIRE EXT VERB DISPLAY AVAILABLE AND SET BUSY FLAG.
001280:                                                                                                  #      2. EXECUTE DAPDATA1, DAPDATA2, AND DAPDATA3.
001281:                                                                                                  #      3. RELEASE EXT VERB DISPLAY SYSTEM.
001282:                                                                                                  #  KEY
001283:                                                                                                  #  THE FOLLOWING IS A KEY TO THE 5 DIGITS OF THE DAP DATA CODE (N46)
001284:
001285:                                                                                                  #  DIGIT A - VEHICLE CONFIGURATION
001286:                                                                                                  #           1 - LM ALONE, ASCENT
001287:                                                                                                  #           2 - LM ALONE, DESCENT
001288:                                                                                                  #           3 - CSM AND LM DOCKED
001289:
001290:                                                                                                  #  DIGIT B - ACCELERATION CODE
001291:                                                                                                  #           0 - 2 JET TRANSLATION, RCS SYSTEM A PREFERRED
001292:                                                                                                  #           1 - 2 JET TRANSLATION, RCS SYSTEM B PREFERRED
001293:                                                                                                  #           2 - 4 JET TRANSLATION, RCS SYSTEM A PREFERRED (NOT MEANINGFUL)
001294:                                                                                                  #           3 - 4 JET TRANSLATION, RCS SYSTEM B PREFERRED (NOT MEANINGFUL)
001295:
001296:                                                                                                  #  DIGIT C - ACA SCALING
001297:                                                                                                  #           0 - FINE
001298:                                                                                                  #           1 - NORMAL
001299:
001300:                                                                                                  #  DIGIT D - DEADBAND
001301:                                                                                                  #           0 - 0.3 DEG
001302:                                                                                                  #           1 - 1.0 DEG
001303:                                                                                                  #           2 - 5.0 DEG
001304:                                                                                                  #          (3 - 5.0 DEG BY DEFAULT)
001305:
001306:                                                                                                  #  DIGIT E - MANEUVER RATE
001307:                                                                                                  #           0 - 0.2 DEG/SEC
001308:                                                                                                  #           1 - 0.5 DEG/SEC
001309:                                                                                                  #           2 - 2.0 DEG/SEC
001310:                                                                                                  #           3 -10.0 DEG/SEC
001311:
001312: 43,3152           02076        DAPDISP            TC       TESTXACT
001313: 43,3153           35021                           CAF      PRIO7                                 #  R03
001314: 43,3154           05146                           TC       PRIOCHNG
001315: 43,3155           04635                           TC       POSTJUMP
001316: 43,3156           40004                           CADR     DAPDATA1
001317: 34,2000                                           BANK     34
001318: 20,2000                                           SETLOC   LOADDAP
001319: 20,2000                                           BANK
001320:
001321: 20,2004                                           COUNT*   $$/R03
001322:
001323: 20,2004  30,2000                                  SBANK=   LOWSUPER                              #  FOR SUBSEQUENT LOW 2CADR'S.
001324:
001325: 20,2004           32114        DAPDATA1           CAF      BOOLSMSK                              #  SET DISPLAY ACCORDING TO DAPBOOLS BITS.
001326: 20,2005           70111                           MASK     DAPBOOLS                              #  LM


001328: 20,2006           55340                           TS       DAPDATR1                              #  LM
001329: 20,2007           40106                           CS       FLGWRD10                              #  SET BIT 14 TO BE COMPLEMENT OF APSFLAG.
001330: 20,2010           74737                           MASK     APSFLBIT
001331: 20,2011           10000                           CCS      A
001332: 20,2012           34736                           CAF      BIT14
001333: 20,2013           27340                           ADS      DAPDATR1
001334: 20,2014           31340        CHKDATA1           CAE      DAPDATR1                              #  IF BITS 13 AND 14 ARE BOTH ZERO, FORCE
001335: 20,2015           74355                           MASK     BIT13-14                              #    A ONE INTO BIT 13.
001336: 20,2016           00006                           EXTEND
001337: 20,2017           12034                           BZF      FORCEONE
001338: 20,2020           31340                           CAE      DAPDATR1                              #  ENSURE THAT NO ILLEGAL BITS SET BY CREW.
001339: 20,2021           72113        MSKDATR1           MASK     DSPLYMSK
001340: 20,2022           55340                           TS       DAPDATR1
001341: 20,2023           32112                           CAF      V01N46                                #  LM
001342: 20,2024           04616                           TC       BANKCALL
001343: 20,2025           20353                           CADR     GOXDSPFR
001344: 20,2026           15472                           TCF      ENDEXT                                #  V34E  TERMINATE
001345: 20,2027           12037                           TCF      DPDAT1                                #  V33E  PROCEED
001346: 20,2030           12014                           TCF      CHKDATA1                              #  E     NEW DATA    CHECK AND REDISPLAY
001347: 20,2031           36245                           CAF      REVCNT                                #  BITS 2 & 3:  BLANKS R2 & R3.
001348: 20,2032           05464                           TC       BLANKET
001349: 20,2033           15155                           TCF      ENDOFJOB
001350: 20,2034           34737        FORCEONE           CAF      BIT13
001351: 20,2035           27340                           ADS      DAPDATR1
001352: 20,2036           12021                           TCF      MSKDATR1
001353:
001354: 20,2037           00004        DPDAT1             INHINT                                         #  INHINT FOR SETTING OF FLAG BITS AND MASS
001355: 20,2040           44737                           CS       APSFLBIT                              #    ON BASIS OF DISPLAYED DAPDATR1.
001356: 20,2041           70106                           MASK     FLGWRD10
001357: 20,2042           54001                           TS       L                                     #  SET APSFLAG TO BE COMPLEMENT OF BIT 14.
001358: 20,2043           41340                           CS       DAPDATR1
001359: 20,2044           74736                           MASK     BIT14
001360: 20,2045           10000                           CCS      A
001361: 20,2046           34737                           CAF      APSFLBIT
001362: 20,2047           60001                           AD       L
001363: 20,2050           54106                           TS       FLGWRD10
001364: 20,2051           41340                           CS       DAPDATR1                              #  SET BITS OF DAPBOOLS ON BASIS OF DISPLAY
001365: 20,2052           74355                           MASK     BIT13-14                              #    MASK OUT CSMDOCKD (BIT 13) UNLESS BOTH
001366: 20,2053           10000                           CCS      A                                     #    13 AND 14 ARE SET.
001367: 20,2054           44737                           CS       CSMDOCKD
001368: 20,2055           62114                           AD       BOOLSMSK
001369: 20,2056           71340                           MASK     DAPDATR1
001370: 20,2057           54001                           TS       L
001371: 20,2060           42114                           CS       BOOLSMSK
001372: 20,2061           70111                           MASK     DAPBOOLS
001373: 20,2062           60001                           AD       L
001374: 20,2063           54111                           TS       DAPBOOLS
001375: 20,2064           74737                           MASK     CSMDOCKD                              #  LOAD MASS IN ACCORDANCE WITH CSMDOCKD.
001376: 20,2065           10000                           CCS      A                                     #    MASS IS USUALLY ALREADY OKAY, SO DO
001377: 20,2066           31327                           CAE      CSMMASS                               #    NOT TOUCH ITS LOW-ORDER PART.


001379: 20,2067           61326                           AD       LEMMASS
001380: 20,2070           55243                           TS       MASS
001381: 20,2071           30111                           CAE      DAPBOOLS
001382: 20,2072           74741                           MASK     ACC4OR2X                              #  2 OR 4 JET X-TRANSLATION
001383: 20,2073           00006                           EXTEND                                         #  (BIT ACC4OR2X = 1 FOR 4 JETS)
001384: 20,2074           12101                           BZF      +5
001385: 20,2075           44735                           CS       BIT15
001386: 20,2076           70075                           MASK     FLAGWRD1                              #  CLEAR NJTSFLAG TO 0 FOR 4 JETS
001387: 20,2077           54075                           TS       FLAGWRD1
001388: 20,2100           12104                           TCF      +4
001389: 20,2101           40075                           CS       FLAGWRD1                              #  SET NJTSFLAG TO 1 FOR 2 JETS
001390: 20,2102           74735                           MASK     BIT15
001391: 20,2103           26075                           ADS      FLAGWRD1
001392: 20,2104           30111                           CA       DAPBOOLS                              #  SELECT DESIRED KALCMANU AUTOMATIC
001393: 20,2105           76250                           MASK     THREE                                 #  MANEUVER RATE
001394: 20,2106           60000                           DOUBLE                                         #  RATEINDX HAS TO BE 0,2,4,6 SINCE RATES
001395: 20,2107           55322                           TS       RATEINDX                              #  ARE DP
001396: 20,2110           04635                           TC       POSTJUMP
001397: 20,2111           02211                           CADR     STIKLOAD
001398:
001399: 20,2112           00256        V01N46             VN       0146
001400: 20,2113           33133        DSPLYMSK           OCT      33133
001401: 20,2114           13133        BOOLSMSK           OCT      13133
001402: 01,2211                                           BANK     01
001403: 01,2000                                           SETLOC   LOADDAP1
001404: 01,2000                                           BANK
001405:
001406: 01,2211                                           COUNT*   $$/R03
001407:
001408: 01,2211           35015        STIKLOAD           CAF      EBANK6
001409: 01,2212           54003                           TS       EBANK
001410: 01,2213  E6,1444                                  EBANK=   STIKSENS
001411: 01,2213           34745                           CA       RHCSCALE                              #  SET STICK SENSITIVITY TO CORRESPOND TO A
001412: 01,2214           70111                           MASK     DAPBOOLS                              #  MAXIMUM COMMANDED RATE (AT 42 COUNTS) OF
001413: 01,2215           10000                           CCS      A                                     #  20 D/S (NORMAL) OR 4 D/S (FINE), SCALED
001414: 01,2216           32340                           CA       NORMAL                                #  AT 45 D/S.
001415: 01,2217           62341                           AD       FINE
001416: 01,2220           55444                           TS       STIKSENS
001417: 01,2221           32343                           CA       -0.6D/S
001418: 01,2222           55476                           TS       -RATEDB                               #  LM-ONLY BREAKOUT LEVEL IS .6 D/S.
001419: 01,2223           34737                           CA       CSMDOCKD                              #  IF CSM-DOCKED, DIVIDE STICK SENSITIVITY
001420: 01,2224           70111                           MASK     DAPBOOLS                              #  BY 10. NORMAL SCALING IS THEN 2 D/S AND
001421: 01,2225           00006                           EXTEND                                         #  FINE SCALING IS 0.4 D/S
001422: 01,2226           12235                           BZF      +7                                    #  BRANCH IF CSM IS NOT DOCKED.
001423: 01,2227           31444                           CA       STIKSENS
001424: 01,2230           00006                           EXTEND
001425: 01,2231           72342                           MP       1/10
001426: 01,2232           55444                           TS       STIKSENS
001427: 01,2233           32344                           CA       -0.3D/S                               #  CSM-DOCKED BREAKOUT LEVEL IS .3 D/S.
001428: 01,2234           55476                           TS       -RATEDB


001430: 01,2235           00003                           RELINT                                         #  PROCEED TO NOUN 47, MASS LOAD,
001431:
001432: 01,2236           32336        DAPDATA2           CAF      V0647
001433: 01,2237           04616                           TC       BANKCALL
001434: 01,2240           20353                           CADR     GOXDSPFR
001435: 01,2241           12247                           TCF      ENDR03                                #  V34E  TERMINATE. FIRST SET DB, DO 1/ACCS
001436: 01,2242           12253                           TCF      DAPDAT2                               #  V33E  PROCEED
001437: 01,2243           12236                           TCF      DAPDATA2                              #        LOAD NEW DATA AND RECYCLE
001438: 01,2244           34751                           CAF      BIT3                                  #  BLANKS R3
001439: 01,2245           05464                           TC       BLANKET                               #             LM
001440: 01,2246           15155                           TCF      ENDOFJOB
001441: 01,2247           00004        ENDR03             INHINT
001442: 01,2250           04674                           TC       IBNKCALL
001443: 01,2251           40115                           CADR     RESTORDB
001444: 01,2252           15472                           TCF      ENDEXT                                #  DOES RELINT
001445:
001446: 01,2253           40106        DAPDAT2            CS       FLGWRD10                              #  DETERMINE STAGE FROM APSFLAG
001447: 01,2254           74737                           MASK     APSFLBIT
001448: 01,2255           10000                           CCS      A
001449: 01,2256           32000                           CA       MINLMD
001450: 01,2257           62001                           AD       MINMINLM
001451: 01,2260           61326                           AD       LEMMASS                               #  LEMMASS MUST BE GREATER THAN EMPTY LEM
001452: 01,2261           00006                           EXTEND
001453: 01,2262           62236                           BZMF     DAPDATA2                              #  ASK FOR NEW MASSES
001454: 01,2263           30111                           CAE      DAPBOOLS
001455: 01,2264           74737                           MASK     CSMDOCKD
001456: 01,2265           00006                           EXTEND
001457: 01,2266           12274                           BZF      LEMALONE                              #  SKIP TEST ON CSMMASS IF NOT DOCKED.
001458: 01,2267           44741                           CS       MINCSM                                #  TEST CSM MASS
001459: 01,2270           61327                           AD       CSMMASS                               #  CSMMASS MUST BE GREATER THAN EMPTY CSM
001460: 01,2271           00006                           EXTEND
001461: 01,2272           62236                           BZMF     DAPDATA2                              #  ASK FOR NEW MASSES
001462: 01,2273           31327                           CAE      CSMMASS                               #  DOCKED:  MASS = CSMMASS + LEMMASS
001463: 01,2274           61326        LEMALONE           AD       LEMMASS                               #  LEM ALONE:  MASS = LEMMASS
001464: 01,2275           22007                           ZL
001465: 01,2276           53244                           DXCH     MASS
001466: 01,2277           00004                           INHINT
001467: 01,2300           04674                           TC       IBNKCALL                              #  SET DEADBANK AND COMPUTE MOMENTS OF
001468: 01,2301           40115                           CADR     RESTORDB                              #    INERTIA.
001469: 01,2302           00003                           RELINT                                         #  PROCEED TO NOUN 48 (OR END).
001470:
001471: 01,2303           40106        DAPDATA3           CS       FLGWRD10
001472: 01,2304           74737                           MASK     APSFLBIT
001473: 01,2305           00006                           EXTEND                                         #  END ROUTINE IF LEM HAS STAGED,
001474: 01,2306           15472                           BZF      ENDEXT
001475: 01,2307           32337                           CAF      V06N48                                #  DISPLAY TRIM ANGLES AND REQUEST RESPONSE
001476: 01,2310           04616                           TC       BANKCALL
001477: 01,2311           20353                           CADR     GOXDSPFR
001478: 01,2312           05472                           TC       ENDEXT
001479: 01,2313           12320                           TCF      DPDAT3                                #  V33E GO DO TRIM (WAITLIST TO TRIMGIMB)


001481: 01,2314           12307                           TCF      -5                                    #       LOAD NEW DATA AND RECYCLE
001482: 01,2315           34751                           CAF      BIT3
001483: 01,2316           05464                           TC       BLANKET                               #  BLANK R3
001484: 01,2317           15155                           TCF      ENDOFJOB
001485: 01,2320           34753        DPDAT3             CAF      BIT1
001486: 01,2321           05203                           TC       WAITLIST
001487: 01,2322  E6,1401                                  EBANK=   ROLLTIME
001488: 01,2322           03217 56066                     2CADR    TRIMGIMB
001489:
001490: 01,2324           15155                           TCF      ENDOFJOB                              #  DOES A RELINT
001491: 01,2325           32337        TRIMDONE           CAF      V50N48
001492: 01,2326           04616                           TC       BANKCALL                              #  TRIM IS FINISHED; PLEASE TERMINATE R03
001493: 01,2327           20361                           CADR     GOMARK3R   -1
001494: 01,2330           05472                           TC       ENDEXT                                #  V34E TERMINATE
001495: 01,2331           05472                           TC       ENDEXT
001496: 01,2332           05472                           TC       ENDEXT
001497: 01,2333           36007                           CAF      OCT24                                 #  BIT5 TO CHANGE TO PERFORM, 3 TO BLANK R3
001498: 01,2334           05464                           TC       BLANKET
001499: 01,2335           15155                           TCF      ENDOFJOB
001500:
001501: 01,2336           01457        V0647              VN       0647
001502: 01,2337           01460        V06N48             VN       0648
001503:
001504: 01,2340  01,2337               V50N48             =        V06N48
001505:
001506: 01,2340           25101        NORMAL             DEC      .660214
001507:                                                                                                  #  NORMAL SCALING IS 20 D/S
001508: 01,2341           05220        FINE               DEC      .165054                               #  FINE STICK SCALING (4 D/S).
001509: 01,2342           03146        1/10               DEC      .1                                    #  FACTOR FOR CSM-DOCKED SCALING
001510: 01,2343           77445        -0.6D/S            DEC      -218       B-14
001511: 01,2344           77622        -0.3D/S            DEC      -109       B-14
001512:


001514:                                                                                                  #  VERB 66.  VEHICLES ARE ATTACHED.  MOVE THIS VEHICLE STATE VECTOR TO
001515:                                                                                                  #            OTHER VEHICLE STATE VECTOR.
001516:
001517:                                                                                                  #      USE SUBROUTINE GENTRAN.
001518:
001519: 07,2667                                           BANK     7
001520: 43,2000                                           SETLOC   EXTVERBS
001521: 43,2000                                           BANK
001522:
001523: 43,3157                                           COUNT*   $$/EXTVB
001524:
001525: 43,3157  E3,1626                                  EBANK=   RRECTHIS
001526:
001527: 43,3157           40104        ATTACHED           CS       FLAGWRD8
001528: 43,3160           74744                           MASK     SURFFBIT
001529: 43,3161           00006                           EXTEND
001530: 43,3162           12114                           BZF      ALM/END                               #  TURN ON OE AND EXIT IF SURFFLAG SET.
001531: 43,3163           34737                           CAF      PRIO10
001532: 43,3164           05105                           TC       FINDVAC
001533: 43,3165  E3,1626                                  EBANK=   RRECTHIS
001534:
001535: 43,3165           03170 66103                     2CADR    ATTACHIT
001536:
001537: 43,3167           05155                           TC       ENDOFJOB
001538:
001539: 43,3170           06042        ATTACHIT           TC       INTPRET
001540: 43,3171           77624                           CALL
001541: 43,3172           27412                                    INTSTALL
001542: 43,3173           43014                           SET      BON
001543: 43,3174           04063                                    MOONOTH
001544: 43,3175           04304                                    MOONTHIS
001545: 43,3176           67201                                    +3
001546: 43,3177           77614                           CLEAR
001547: 43,3200           04263                                    MOONOTH
001548: 43,3201           77776                           EXIT
001549: 43,3202           33225                           CAF      OCT51
001550: 43,3203           05544                           TC       GENTRAN
001551: 43,3204           01626                           ADRES    RRECTHIS                              #  OUR STATE VECTOR INTO OTHER VIA GENTRAN
001552: 43,3205           01554                           ADRES    RRECTOTH
001553:
001554: 43,3206           00003                           RELINT
001555: 43,3207           06042                           TC       INTPRET
001556: 43,3210           77624                           CALL                                           #  UPDATE R-OTHER, V-OTHER
001557: 43,3211           26761                                    PTOALEM
001558: 43,3212           45154                           LXA,2    CALL
001559: 43,3213           02030                                    PBODY
001560: 43,3214           26114                                    SVDWN1
001561: 43,3215           77776                           EXIT
001562:
001563: 43,3216           33226                           CAF      TCPINAD


001565: 43,3217           50120                           INDEX    FIXLOC
001566: 43,3220           54052                           TS       QPRET
001567: 43,3221           04635                           TC       POSTJUMP
001568: 43,3222           27423                           CADR     INTWAKE                               #  FREE INTEGRATION AND EXIT.
001569:
001570:
001571: 43,3223           77634        TCPIN              RTB
001572: 43,3224           21051                                    PINBRNCH
001573:
001574: 43,3225           00051        OCT51              OCT      51
001575: 43,3226           67223        TCPINAD            CADR     TCPIN
001576:
001577:                                                                                                  #  VERB 96  SET QUITFLAG TO STOP INTEGRATION.
001578:
001579:                                                                                                  #           GO TO V37 WITH ZERO TO CAUSE POO.
001580:                                                                                                  #           STATEINT WILL CHECK QUITFLAG AND SKIP 1ST PASS,
001581:                                                                                                  #                  THUS ALLOWING A 10 MINUTE PERIOD WITHOUT INTEGRATION.
001582:
001583: 43,3227           05504        VERB96             TC       UPFLAG                                #  QUITFLAG WILL CAUSE INTEGRATION TO EXIT
001584: 43,3230           00221                           ADRES    QUITFLAG                              #     AT NEXT TIMESTEP
001585:
001586: 43,3231           34755                           CAF      ZERO
001587: 43,3232           04635                           TC       POSTJUMP
001588: 43,3233           10040                           CADR     V37                                   #  GO TO POO
001589:
001590:                                                                                                  #  VERB 67 :   DISPLAY OF W MATRIX
001591:
001592: 43,3234           02076        V67                TC       TESTXACT
001593: 43,3235           35017                           CAF      PRIO5
001594: 43,3236           05105                           TC       FINDVAC
001595: 43,3237  E4,1600                                  EBANK=   WWPOS
001596: 43,3237           02007 62064                     2CADR    V67CALL
001597:
001598: 43,3241           05155                           TC       ENDOFJOB
001599:
001600:                                                                                                  #  VERB 65         DISABLE U,V JETS DURING DPS BURNS
001601:
001602: 43,3242           05504        SNUFFOUT           TC       UPFLAG
001603: 43,3243           00115                           ADRES    SNUFFER
001604: 43,3244           02115                           TC       GOPIN
001605:
001606:                                                                                                  #  VERB 75         ENABLE U,V JETS DURING DPS BURNS
001607:
001608: 43,3245           05516        OUTSNUFF           TC       DOWNFLAG
001609: 43,3246           00115                           ADRES    SNUFFER
001610: 43,3247           02115                           TC       GOPIN
001611:                                                                                                  #  VERB 85         DISPLAY RR LOS AZIMUTH AND ELEVATION.
001612:
001613:                                                                                                  #           AZIMUTH IS THE ANGLE BETWEEN THE LOS AND THE X-Z NB PLANE, 0 - 90 DEG IN THE +Y HEMISPHERE,
001614:                                                                                                  #  360 - 270 DEG IN THE -Y HEMISPHERE.


001616:
001617:                                                                                                  #           ELEVATION IS THE ANGLE BETWEEN +ZNB AND THE PROJECTION OF THE LOS INTO THE X-Z PLANE, 0 - 360 ABOUT +Y.
001618:
001619: 43,3250  E4,1600                                  EBANK=   RR-AZ
001620: 43,3250           02076        VERB85             TC       TESTXACT
001621: 43,3251           04635                           TC       POSTJUMP
001622: 43,3252           60000                           CADR     DSPRRLOS
001623:
001624: 40,2000                                           SETLOC   PINBALL1
001625: 40,2000                                           BANK
001626:
001627: 40,2000                                           COUNT*   $$/EXTVB
001628:
001629: 40,2000           35017        DSPRRLOS           CAF      PRIO5
001630: 40,2001           05105                           TC       FINDVAC
001631: 40,2002  E4,1600                                  EBANK=   RR-AZ
001632: 40,2002           02017 60104                     2CADR    RRLOSDSP
001633:
001634: 40,2004           34740                           CAF      PRIO4
001635: 40,2005           05146                           TC       PRIOCHNG
001636: 40,2006           32076                           CAF      V16N56
001637: 40,2007           04616                           TC       BANKCALL
001638: 40,2010           20353                           CADR     GOMARKFR
001639: 40,2011           05563                           TC       B5OFF
001640: 40,2012           05563                           TC       B5OFF
001641: 40,2013           05563                           TC       B5OFF
001642:
001643: 40,2014           34751                           CAF      BIT3
001644: 40,2015           05464                           TC       BLANKET
001645: 40,2016           05155                           TC       ENDOFJOB
001646:
001647: 40,2017           00006        RRLOSDSP           EXTEND
001648: 40,2020           30036                           DCA      CDUT
001649: 40,2021           52155                           DXCH     MPAC
001650: 40,2022           06042                           TC       INTPRET
001651: 40,2023           77624                           CALL
001652: 40,2024           46065                                    RRNBMPAC                              #  GET RR LOS IN BODY AXIS.
001653: 40,2025           00001                           STORE    0D                                    #  UNIT LOS
001654: 40,2026           14007                           STODL    6D
001655: 40,2027           06524                                    HI6ZEROS
001656: 40,2030           24011                           STOVL    8D
001657: 40,2031           00007                                    6D
001658: 40,2032           77656                           UNIT
001659: 40,2033           00007                           STORE    6D                                    #  UNIT OF LOS PROJ IN X-Z PLANE
001660: 40,2034           77641                           DOT
001661: 40,2035           06516                                    UNITZ
001662: 40,2036           24021                           STOVL    COSTH                                 #  16D
001663: 40,2037           06522                                    UNITX
001664: 40,2040           77641                           DOT
001665: 40,2041           00007                                    6D
001666: 40,2042           34023                           STCALL   SINTH                                 #  18D


001668: 40,2043           47322                                    ARCTRIG
001669: 40,2044           43244                           BPL      DAD                                   #  INSURE DISPLAY OF 0 - 360 DEG.
001670: 40,2045           60047                                    +2
001671: 40,2046           06532                                    DPPOSMAX                              #  INTRODUCES AN ERROR OF B-28 REVS.
001672: 40,2047           26203                           STOVL    RR-ELEV
001673: 40,2050           00001                                    0D
001674: 40,2051           77641                           DOT
001675: 40,2052           06520                                    UNITY
001676: 40,2053           24023                           STOVL    SINTH
001677: 40,2054           00001                                    0D
001678: 40,2055           77641                           DOT
001679: 40,2056           00007                                    6D
001680: 40,2057           34021                           STCALL   COSTH
001681: 40,2060           47322                                    ARCTRIG
001682: 40,2061           43244                           BPL      DAD                                   #  INSURE DISPLAY OF 0 - 360 DEG.
001683: 40,2062           60064                                    +2
001684: 40,2063           06532                                    DPPOSMAX                              #  INTRODUCES AN ERROR OF B-28 REVS.
001685: 40,2064           02201                           STORE    RR-AZ
001686: 40,2065           77776                           EXIT
001687: 40,2066           34777                           CA       1SEC
001688: 40,2067           04616                           TC       BANKCALL
001689: 40,2070           01736                           CADR     DELAYJOB
001690:
001691: 40,2071           34747                           CA       BIT5
001692: 40,2072           71043                           MASK     EXTVBACT
001693: 40,2073           10000                           CCS      A
001694: 40,2074           02017                           TC       RRLOSDSP
001695: 40,2075           05472                           TC       ENDEXT
001696:
001697: 40,2076           04070        V16N56             VN       1656
001698:

End of include-file EXTENDED_VERBS.agc.  Parent file is MAIN.agc


