
Source Code


000002:                                                                                                  ## Copyright:   Public domain.
000003:                                                                                                  ## Filename:    FLAGWORD_ASSIGNMENTS.agc
000004:                                                                                                  ## Purpose:     A section of Luminary revision 116.
000005:                                                                                                  ##              It is part of the source code for the Lunar Module's (LM)
000006:                                                                                                  ##              Apollo Guidance Computer (AGC) for Apollo 12.
000007:                                                                                                  ##              This file is intended to be a faithful transcription, except
000008:                                                                                                  ##              that the code format has been changed to conform to the
000009:                                                                                                  ##              requirements of the yaYUL assembler rather than the
000010:                                                                                                  ##              original YUL assembler.
000011:                                                                                                  ## Reference:   pp. 61-88
000012:                                                                                                  ## Assembler:   yaYUL
000013:                                                                                                  ## Contact:     Ron Burkey <info@sandroid.org>.
000014:                                                                                                  ## Website:     www.ibiblio.org/apollo/index.html
000015:                                                                                                  ## Mod history: 2017-01-22 MAS  Created from Luminary 99.
000016:                                                                                                  ##              2017-03-02 RSB  Completed transcription, and then proofed
000017:                                                                                                  ##                              comment text by diffing vs Luminary 131.
000018:                                                                                                  ##              2017-08-14 MAS  Fixed a typo found while transcribing Zerlina 56.
000019:


000021:                                                                                                  #  FLAGWORDS 0-11        ARE DOWNLINKED AND CAN BE SET AND CLEARED BY UP-FLAG AND DOWN-FLAG INSTRUCTIONS IN THE
000022:                                                                                                  #                        INTERPRETER. THESE WERE PREVIOUSLY LISTED UNDER "INTERPRETIVE SWITCH BIT ASSIGNMENTS" IN
000023:                                                                                                  #                        THE ERASABLE LOG SECTION. FLAGWORDS 12 & 13 WEREPREVIOUSLY RADMODES AND DAPBOOLS AND
000024:                                                                                                  #                        ARE STILL DOWNLINKED UNDER THOSE NAMES.
000025:
000026:                                                                                                  #                ALPHABETICAL LIST OF FLAGWORDS
000027:
000028:
000029:                                                                                                  #  9             25              41                      61       COLUMN NO.
000030:                                                                                                  #  FLAGWORD      DEC. NUMBER     BIT AND FLAG            BIT NAME
000031:
000032:                                                                                                  #  ACCOKFLG      207             BIT  3 FLAG 13          ACCSOKAY
000033:                                                                                                  #  ACC4-2FL      199             BIT 11 FLAG 13          ACC4OR2X
000034:                                                                                                  #  ACMODFLG      032             BIT 13 FLAG  2          ACMODBIT
000035:                                                                                                  #  ALTSCALE      186             BIT  9 FLAG 12          ALTSCBIT
000036:                                                                                                  #  ANTENFLG      183             BIT 12 FLAG 12          ANTENBIT
000037:                                                                                                  #  AORBSFLG      085             BIT  5 FLAG 5           AORBSYST
000038:                                                                                                  #  AORBTFLG      200             BIT 10 FLAG 13          AORBTRAN
000039:                                                                                                  #  APSESW        130             BIT  5 FLAG  8          APSESBIT
000040:                                                                                                  #  APSFLAG       152             BIT 13 FLAG 10          APSFLBIT
000041:                                                                                                  #  ASTNFLAG      108             BIT 12 FLAG  7          ASTNBIT
000042:                                                                                                  #  ATTFLAG       104             BIT  1 FLAG  6          ATTFLBIT
000043:                                                                                                  #  AUTOMODE      193             BIT  2 FLAG 12          AUTOMBIT
000044:                                                                                                  #  AUTR1FLG      209             BIT  1 FLAG 13          AUTRATE1
000045:                                                                                                  #  AUTR2FLG      208             BIT  2 FLAG 13          AUTRATE2
000046:                                                                                                  #  AUXFLAG       103             BIT  2 FLAG  6          AUXFLBIT
000047:                                                                                                  #  AVEGFLAG      115             BIT  5 FLAG  7          AVEGFBIT
000048:                                                                                                  #  AVEMIDSW      149             BIT  1 FLAG  9          AVEMDBIT
000049:                                                                                                  #  AVFLAG        040             BIT  5 FLAG  2          AVFLBIT
000050:                                                                                                  #  CALCMAN2      043             BIT  2 FLAG  2          CALC2BIT
000051:                                                                                                  #  CALCMAN3      042             BIT  3 FLAG  2          CALC3BIT
000052:                                                                                                  #  CDESFLAG      180             BIT 15 FLAG 12          CDESBIT
000053:                                                                                                  #  CMOONFLG      123             BIT 12 FLAG  8          CMOONBIT
000054:                                                                                                  #  COGAFLAG      131             BIT  4 FLAG  8          COGAFBIT
000055:                                                                                                  #  CSMDKFLG      197             BIT 13 FLAG 13          CSMDOCKD
000056:                                                                                                  #  CULTFLAG      053             BIT  7 FLAG  3          CULTBIT
000057:                                                                                                  #  DAPBOOLS                      FLGWRD13
000058:                                                                                                  #  DBSELFLG      206             BIT  4 FLAG 13          DBSELECT
000059:                                                                                                  #  DBSL2FLG      205             BIT 5 FLAG 13           DBSLECT2
000060:                                                                                                  #  DESIGFLG      185             BIT 10 FLAG 12          DESIGBIT
000061:                                                                                                  #  DIDFLAG       016             BIT 14 FLAG             DIDFLBIT
000062:                                                                                                  #  DIMOFLAG      059             BIT  1 FLAG  3          DIMOBIT
000063:                                                                                                  #  DMENFLG       081             BIT  9 FLAG  5          DMENFBIT
000064:                                                                                                  #  DRIFTDFL      202             BIT  8 FLAG 13          DRIFTBIT


000066:                                                                                                  #  DRIFTFLG      030             BIT 15 FLAG  2          DRFTBIT
000067:                                                                                                  #  DSKYFLAG      075             BIT 15 FLAG  5          DSKYFBIT
000068:                                                                                                  #  D6OR9FLG      058             BIT  2 FLAG  3          D6OR9BIT
000069:                                                                                                  #  ENGONFLG      083             BIT  7 FLAG  5          ENGONBIT
000070:                                                                                                  #  ERADFLAG      017             BIT 13 FLAG  1          ERADFBIT
000071:                                                                                                  #  ETPIFLAG      038             BIT  7 FLAG  2          ETPIBIT
000072:                                                                                                  #  FINALFLG      039             BIT  6 FLAG  2          FINALBIT
000073:                                                                                                  #  FLAGWRD0      (000-014)       (STATE +0)
000074:                                                                                                  #  FLAGWRD1      (015-029)       (STATE +1)
000075:                                                                                                  #  FLAGWRD2      (030-044)       (STATE +2)
000076:                                                                                                  #  FLAGWRD3      (045-059)       (STATE +3)
000077:                                                                                                  #  FLAGWRD4      (060-074)       (STATE +4)
000078:                                                                                                  #  FLAGWRD5      (075-089)       (STATE +5)
000079:                                                                                                  #  FLAGWRD6      (090-104)       (STATE +6)
000080:                                                                                                  #  FLAGWRD7      (105-119)       (STATE +7)
000081:                                                                                                  #  FLAGWRD8      (120-134)       (STATE +8D)
000082:                                                                                                  #  FLAGWRD9      (135-149)       (STATE +9D)
000083:                                                                                                  #  FLAP          142             BIT  8 FLAG  9          FLAPBIT
000084:                                                                                                  #  FLGWRD10      (150-164)       (STATE +10D)
000085:                                                                                                  #  FLGWRD11      (165-179)       (STATE +11D)
000086:                                                                                                  #  FLGWRD12      (180-194)       (STATE +12D)
000087:                                                                                                  #  FLGWRD13      (195-209)       (STATE +13D)
000088:                                                                                                  #  FLPC          138             BIT 12 FLAG  9          FLPCBIT
000089:                                                                                                  #  FLPI          139             BIT 11 FLAG  9          FLPIBIT
000090:                                                                                                  #  FLRCS         149             BIT 10 FLAG  9          FLRCSBIT
000091:                                                                                                  #  FLUNDISP      125             BIT 10 FLAG  8          FLUNDBIT
000092:                                                                                                  #  FLVR          136             BIT 14 FLAG  9          FLVRBIT
000093:                                                                                                  #  FREEFLAG      012             BIT  3 FLAG  0          FREEFBIT
000094:                                                                                                  #  FSPASFLG      005             BIT 10 FLAG  0          FSPASBIT
000095:                                                                                                  #  GLOKFAIL      046             BIT 14 FLAG  3          GLOKFBIT
000096:                                                                                                  #  GMBDRVSW      095             BIT 10 FLAG  6          GMBDRBIT
000097:                                                                                                  #  GUESSW        028             BIT  2 FLAG  1          GUESSBIT
000098:                                                                                                  #  HFLSHFLG      179             BIT  1 FLAG 11          HFLSHBIT
000099:                                                                                                  #  IDLEFLAG      113             BIT  7 FLAG  7          IDLEFBIT
000100:                                                                                                  #  IGNFLAG       107             BIT 13 FLAG  7          IGNFLBIT
000101:                                                                                                  #  IMPULSW       036             BIT  9 FLAG  2          IMPULBIT
000102:                                                                                                  #  IMUSE         007             BIT  8 FLAG  0          IMUSEBIT
000103:                                                                                                  #  INFINFLG      128             BIT  7 FLAG  8          INFINBIT
000104:                                                                                                  #  INITALGN      133             BIT  2 FLAG  8          INITABIT
000105:                                                                                                  #  INTFLAG       151             BIT 14 FLAG 10          INTFLBIT
000106:                                                                                                  #  INTYPFLG      056             BIT  4 FLAG  3          INTYPBIT
000107:                                                                                                  #  ITSWICH       105             BIT 15 FLAG  7          ITSWBIT
000108:                                                                                                  #  JSWITCH       001             BIT 14 FLAG  0          JSWCHBIT
000109:                                                                                                  #  LETABORT      141             BIT  9 FLAG  9          LETABBIT
000110:                                                                                                  #  LMOONFLG      124             BIT 11 FLAG  8          LMOONBIT
000111:                                                                                                  #  LOKONSW       010             BIT  5 FLAG  0          LOKONBIT
000112:                                                                                                  #  LOSCMFLG      033             BIT 12 FLAG  2          LOSCMBIT
000113:                                                                                                  #  LPOS2FLG      174             BIT 6 FLAG 11           LPOS2BIT
000114:                                                                                                  #  LRALTFLG      190             BIT  5 FLAG 12          LRALTBIT
000115:                                                                                                  #  LRBYPASS      165             BIT 15 FLAG 11          LRBYBIT


000117:                                                                                                  #  LRINH         172             BIT  8 FLAG 11          LRINHBIT
000118:                                                                                                  #  LRPOSFLG      189             BIT  6 FLAG 12          LRPOSBIT
000119:                                                                                                  #  LRVELFLG      187             BIT  8 FLAG 12          LRVELBIT
000120:                                                                                                  #  LUNAFLAG      048             BIT 12 FLAG  3          LUNABIT
000121:                                                                                                  #  MANUFLAG      106             BIT 14 FLAG  7          MANUFBIT
000122:                                                                                                  #  MGLVFLAG      088             BIT  2 FLAG  5          MGLVFBIT
000123:                                                                                                  #  MIDAVFLG      148             BIT  2 FLAG  9          MIDAVBIT
000124:                                                                                                  #  MIDFLAG       002             BIT 13 FLAG  0          MIDFLBIT
000125:                                                                                                  #  MID1FLAG      147             BIT  3 FLAG  9          MID1BIT
000126:                                                                                                  #  MKOVFLAG      072             BIT  3 FLAG  4          MKOVBIT
000127:                                                                                                  #  MOONFLAG      003             BIT 12 FLAG  0          MOONBIT
000128:                                                                                                  #  MRKIDFLG      060             BIT 15 FLAG  4          MRKIDBIT
000129:                                                                                                  #  MRKNVFLG      066             BIT  9 FLAG  4          MRKNVBIT
000130:                                                                                                  #  MRUPTFLG      070             BIT  5 FLAG  4          MRUPTBIT
000131:                                                                                                  #  MUNFLAG       097             BIT  8 FLAG  6          MUNFLBIT
000132:                                                                                                  #  MWAITFLG      064             BIT 11 FLAG  4          MWAITBIT
000133:                                                                                                  #  NEEDLFLG      011             BIT  4 FLAG  0          NEEDLBIT
000134:                                                                                                  #  NEED2FLG      000             BIT 15 FLAG 0           NEED2BIT
000135:                                                                                                  #  NEWIFLG       122             BIT 13 FLAG  8          NEWIBIT
000136:                                                                                                  #  NJETSFLG      015             BIT 15 FLAG             NJETSBIT
000137:                                                                                                  #  NODOFLAG      044             BIT  1 FLAG  2          NODOBIT
000138:                                                                                                  #  NOLRREAD      170             BIT 10 FLAG 11          NOLRRBIT
000139:                                                                                                  #  NORMSW        110             BIT 10 FLAG  7          NORMSBIT
000140:                                                                                                  #  NORRMON       086             BIT  4 FLAG  5          NORRMBIT
000141:                                                                                                  #  NOR29FLG      049             BIT 11 FLAG  3          NR29FBIT
000142:                                                                                                  #  NOTHROTL      078             BIT 12 FLAG  5          NOTHRBIT
000143:                                                                                                  #  NOUPFLAG      024             BIT  6 FLAG  1          NOUPFBIT
000144:                                                                                                  #  NO511FLG      177             BIT 3 FLAG 11           NO511BIT
000145:                                                                                                  #  NRMNVFLG      067             BIT  8 FLAG  4          NRMNVBIT
000146:                                                                                                  #  NRMIDFLG      062             BIT 13 FLAG  4          NRMIDBIT
000147:                                                                                                  #  NRUPTFLG      071             BIT  4 FLAG  4          NRUPTBIT
000148:                                                                                                  #  NTARGFLG      102             BIT  3 FLAG  6          NTARGBIT
000149:                                                                                                  #  NWAITFLG      065             BIT 10 FLAG  4          NWAITBIT
000150:                                                                                                  #  OLDESFLG      014             BIT  1 FLAG  0          OLDESBIT
000151:                                                                                                  #  ORBWFLAG      054             BIT  6 FLAG  3          ORBWFBIT
000152:                                                                                                  #  ORDERSW       129             BIT  6 FLAG  8          ORDERBIT
000153:                                                                                                  #  OURRCFLG      198             BIT 12 FLAG 13          OURRCBIT
000154:                                                                                                  #  PDSPFLAG      063             BIT 12 FLAG  4          PDSPFBIT
000155:                                                                                                  #  PFRATFLG      041             BIT  4 FLAG  2          PFRATBIT
000156:                                                                                                  #  PINBRFLG      069             BIT  6 FLAG  4          PINBRBIT
000157:                                                                                                  #  POOHFLAG      045             BIT 15 FLAG 3           POOHBIT
000158:                                                                                                  #  PRECIFLG      052             BIT  8 FLAG  3          PRECIBIT
000159:                                                                                                  #  PRIODFLG      061             BIT 14 FLAG  1          PRIODBIT
000160:                                                                                                  #  PRONVFLG      068             BIT  7 FLAG  4          PRONVBIT
000161:                                                                                                  #  PSTHIGAT      169             BIT 11 FLAG 11          PSTHIBIT
000162:                                                                                                  #  PULSEFLG      195             BIT 15 FLAG 13          PULSES
000163:                                                                                                  #  P21FLAG       004             BIT 11 FLAG  0          P21FLBIT
000164:                                                                                                  #  P25FLAG       006             BIT  9 FLAG  0          P25FLBIT
000165:                                                                                                  #  P7071FLG      137             BIT 13 FLAG 9           P7071BIT
000166:                                                                                                  #  QUITFLAG      145             BIT 5 FLAG 9            QUITBIT


000168:                                                                                                  #  RADMODES                      FLGWRD12
000169:                                                                                                  #  RASFLAG                       FLGWRD10
000170:                                                                                                  #  RCDUFAIL      188             BIT  7 FLAG 12          RCDUFBIT
000171:                                                                                                  #  RCDU0FLG      182             BIT 13 FLAG 12          RCDU0BIT
000172:                                                                                                  #  READRFLG      051             BIT  9 FLAG  3          READRBIT        EQUIVALENT FLAG NAME:  R04FLAG
000173:                                                                                                  #  READVEL       175             BIT  5 FLAG 11          READVBIT
000174:                                                                                                  #  REDFLAG       099             BIT  6 FLAG  6          REDFLBIT
000175:                                                                                                  #  REFSMFLG      047             BIT 13 FLAG  3          REFSMBIT
000176:                                                                                                  #  REINTFLG      158             BIT  7 FLAG 10          REINTBIT
000177:                                                                                                  #  REMODFLG      181             BIT 14 FLAG 12          REMODBIT
000178:                                                                                                  #  RENDWFLG      089             BIT  1 FLAG  5          RENDWBIT
000179:                                                                                                  #  REPOSMON      184             BIT 11 FLAG 12          REPOSBIT
000180:                                                                                                  #  RHCSCFLG      203             BIT  7 FLAG 13          RHCSCALE
000181:                                                                                                  #  RNDVZFLG      008             BIT  7 FLAG  0          RNDVZBIT
000182:                                                                                                  #  RNGEDATA      176             BIT  4 FLAG 11          RNGEDBIT
000183:                                                                                                  #  RNGSCFLG      080             BIT 10 FLAG  5          RNGSCBIT
000184:                                                                                                  #  RODFLAG       018             BIT 12 FLAG  1          RODFLBIT
000185:                                                                                                  #  ROTFLAG       144             BIT  6 FLAG  9          ROTFLBIT
000186:                                                                                                  #  RPQFLAG       120             BIT 15 FLAG  8          RPQFLBIT
000187:                                                                                                  #  RRDATAFL      191             BIT  4 FLAG 12          RRDATABT
000188:                                                                                                  #  RRNBSW        009             BIT  6 FLAG  0          RRNBBIT
000189:                                                                                                  #  RRRSFLAG      192             BIT  3 FLAG 12          RRRSBIT
000190:                                                                                                  #  RVSW          111             BIT  9 FLAG  7          RVSWBIT
000191:                                                                                                  #  R04FLAG       051             BIT  9 FLAG  3          R04FLBIT        EQUIVALENT FLAG NAME:  READRFLG
000192:                                                                                                  #  R10FLAG       013             BIT  2 FLAG  0          R10FLBIT
000193:                                                                                                  #  R61FLAG       020             BIT 10 FLAG  1          R61FLBIT
000194:                                                                                                  #  R77FLAG       079             BIT 11 FLAG  5          R77FLBIT
000195:                                                                                                  #  SLOPESW       027             BIT  3 FLAG  1          SLOPEBIT
000196:                                                                                                  #  SNUFFER       077             BIT 13 FLAG  5          SNUFFBIT
000197:                                                                                                  #  SOLNSW        087             BIT  3 FLAG  5          SOLNSBIT
000198:                                                                                                  #  SRCHOPTN      031             BIT 14 FLAG  2          SRCHOBIT
000199:                                                                                                  #  STATEFLG      055             BIT  5 FLAG  3          STATEBIT
000200:                                                                                                  #  STEERSW       034             BIT 11 FLAG  2          STEERBIT
000201:                                                                                                  #  SURFFLAG      127             BIT  8 FLAG  8          SURFFBIT
000202:                                                                                                  #  SWANDISP      109             BIT 11 FLAG  7          SWANDBIT
000203:                                                                                                  #  S32.1F1       090             BIT 15 FLAG  6          S32BIT1
000204:                                                                                                  #  S32.1F2       092             BIT 14 FLAG  6          S32BIT2
000205:                                                                                                  #  S32.1F3A      092             BIT 13 FLAG  6          S32BIT3A
000206:                                                                                                  #  S32.1S3B      093             BIT 12 FLAG  6          S32BIT3B
000207:                                                                                                  #  TFFSW         119             BIT  1 FLAG  7          TFFSWBIT
000208:                                                                                                  #  TRACKFLG      025             BIT  5 FLAG  1          TRACKBIT
000209:                                                                                                  #  TURNONFL      194             BIT  1 FLAG 12          TURNONBT
000210:                                                                                                  #  ULLAGFLG      204             BIT  6 FLAG 13          ULLAGER
000211:                                                                                                  #  UPDATFLG      023             BIT  7 FLAG  1          UPDATBIT
000212:                                                                                                  #  UPLOCKFL      116             BIT  4 FLAG 7           UPLOCBIT
000213:                                                                                                  #  USEQRFLG      196             BIT 14 FLAG 13          USEQRJTS
000214:                                                                                                  #  VEHUPFLG      022             BIT  8 FLAG  1          VEHUPBIT
000215:                                                                                                  #  VELDATA       173             BIT  7 FLAG 11          VELDABIT
000216:                                                                                                  #  VERIFLAG      117             BIT  3 FLAG  7          VERIFBIT
000217:                                                                                                  #  VFLAG         050             BIT 10 FLAG  3          VFLAGBIT


000219:                                                                                                  #  VFLSHFLG      178             BIT  2 FLAG 11          VFLSHBIT
000220:                                                                                                  #  VINTFLAG      057             BIT  3 FLAG  3          VINTFBIT
000221:                                                                                                  #  VXINH         168             BIT 12 FLAG 11          VXINHBIT
000222:                                                                                                  #  V37FLAG       114             BIT  6 FLAG  7          V37FLBIT
000223:                                                                                                  #  V67FLAG       112             BIT  8 FLAG  7          V67FLBIT
000224:                                                                                                  #  V82EMFLG      118             BIT  2 FLAG  7          V82EMBIT
000225:                                                                                                  #  XDELVFLG      037             BIT  8 FLAG  2          XDELVBIT
000226:                                                                                                  #  XDSPFLAG      074             BIT  1 FLAG  4          XDSPBIT
000227:                                                                                                  #  XORFLG        171             BIT  9 FLAG 11          XORFLBIT
000228:                                                                                                  #  XOVINFLG      201             BIT  9 FLAG 13          XOVINHIB
000229:                                                                                                  #  ZOOMFLAG      082             BIT 8 FLAG 5            ZOOMBIT
000230:                                                                                                  #  3AXISFLG      084             BIT  6 FLAG  5          3AXISBIT
000231:                                                                                                  #  360SW         134             BIT  1 FLAG  8          360SWBIT
000232:
000233:                                                                                                  #  ASSIGNMENT AND DESCRIPTION OF FLAGWORDS
000234:
000235: 26,2022     0074               FLAGWRD0           =        STATE      +0                         #  (000-014)
000236:
000237:                                                                                                  #        (SET)                   (RESET)
000238:
000239:                                                                                                  #  BIT 15 FLAG 0 (S)
000240: 26,2022                        NEED2FLG           =        000D                                  #        DISPLAY DAP RATES       CHECK BIT 4 OF THIS
000241: 26,2022     4735               NEED2BIT           =        BIT15                                 #        ON FDAI NEEDLES.        WORD FOR DISPLAY
000242:                                                                                                  #                                MODES (1 OR 2).
000243:
000244:                                                                                                  #  BIT 14 FLAG 0 (S)
000245: 26,2022                        JSWITCH            =        001D                                  #        INTEGRATION OF W        INTEGRATION OF STATE
000246: 26,2022     4736               JSWCHBIT           =        BIT14                                 #        MATRIX                  VECTOR
000247:
000248:                                                                                                  #  BIT 13 FLAG 0 (S)
000249: 26,2022                        MIDFLAG            =        002D                                  #        INTEGRATION WITH        INTEGRATION WITHOUT
000250:                                                                                                  #        SECONDARY BODY AND      SOLAR PERTURBATIONS
000251: 26,2022     4737               MIDFLBIT           =        BIT13                                 #        SOLAR PERTURBATIONS
000252:
000253:                                                                                                  #  BIT 12 FLAG 0 (L)
000254: 26,2022                        MOONFLAG           =        003D                                  #        MOON IS SPHERE OF       EARTH IS SPHERE OF
000255: 26,2022     4740               MOONBIT            =        BIT12                                 #        INFLUENCE               INFLUENCE
000256:
000257:                                                                                                  #  BIT 11 FLAG 0
000258: 26,2022                        P21FLAG            =        004D                                  #        USE BASE VECTORS        1ST PASS -- CALC-
000259: 26,2022     4741               P21FLBIT           =        BIT11                                 #        ALREADY CALCULATED      ULATE BASE VECTORS
000260:
000261:                                                                                                  #  BIT 10 FLAG 0


000263: 26,2022                        FSPASFLG           =        005D                                  #        FIRST PASS THROUGH      NOT FIRST PASS THRU
000264: 26,2022     4742               FSPASBIT           =        BIT10                                 #        REPOSITION ROUTINE      REPOSITION ROUTINE
000265:
000266:                                                                                                  #  BIT 9 FLAG 0  (S)
000267: 26,2022                        P25FLAG            =        006D                                  #        P25 OPERATING           P25 NOT OPERATING
000268: 26,2022     4743               P25FLBIT           =        BIT9
000269:
000270:                                                                                                  #  BIT 8 FLAG 0  (S)
000271: 26,2022                        IMUSE              =        007D                                  #        IMU IN USE              IMU NOT IN USE
000272: 26,2022     4744               IMUSEBIT           =        BIT8
000273:
000274:                                                                                                  #  BIT 7 FLAG 0  (S)
000275: 26,2022                        RNDVZFLG           =        008D                                  #        P20 RUNNING (RADAR      P20 NOT RUNNING
000276: 26,2022     4745               RNDVZBIT           =        BIT7                                  #        IN USE)
000277:
000278:                                                                                                  #  BIT 6 FLAG 0  (S)
000279: 26,2022                        RRNBSW             =        009D                                  #        RADAR TARGET IN         RADAR TARGET IN
000280: 26,2022     4746               RRNBBIT            =        BIT6                                  #        NB COORDINATES          SM COORDINATES
000281:
000282:                                                                                                  #  BIT 5 FLAG 0  (S)
000283: 26,2022                        LOKONSW            =        010D                                  #        RADAR LOCK-ON           RADAR LOCK-ON NOT
000284: 26,2022     4747               LOKONBIT           =        BIT5                                  #        DESIRED                 DESIRED
000285:
000286:                                                                                                  #  BIT 4 FLAG 0  (S)
000287: 26,2022                        NEEDLFLG           =        011D                                  #        TOTAL ATTITUDE          A/P FOLLOWING
000288: 26,2022     4750               NEEDLBIT           =        BIT4                                  #        ERROR DISPLAYED         ERROR DISPLAYED
000289:
000290:                                                                                                  #  BIT 3 FLAG 0
000291: 26,2022                        FREEFLAG           =        012D                                  #  (USED BY P51-53 TEMP IN MANY DIFFERENT
000292:                                                                                                  #  ROUTINES & BY LUNAR + SOLAR EPHEMERIDES)
000293: 26,2022     4751               FREEFBIT           =        BIT3
000294:
000295:                                                                                                  #  BIT 2 FLAG 0
000296: 26,2022                        R10FLAG            =        013D                                  #        R10 OUTPUTS DATA TO     BESIDES OUTPUT WHEN
000297: 26,2022     4752               R10FLBIT           =        BIT2                                  #        ALTITUDE & ALTITUDE     SET, R10 ALSO OUTPUT
000298:                                                                                                  #        RATE METERS ONLY        TO FORWARD & LATERAL
000299:                                                                                                  #                                VELOCITY CROSSPOINTR
000300:
000301:                                                                                                  #  BIT 1 FLAG 0  (L)
000302: 26,2022                        OLDESFLG           =        014D                                  #        R29 GYRO CMD LOOP       R29 GYRO CMD LOOP
000303: 26,2022     4753               OLDESBIT           =        BIT1                                  #        REQUESTED               NOT REQUESTED


000305:
000306:
000307: 26,2022     0075               FLAGWRD1           =        STATE      +1                         #  (015-029)
000308:                                                                                                  #        (SET)                   (RESET)
000309:
000310:                                                                                                  #  BIT 15 FLAG 1 (S)
000311: 26,2022                        NJETSFLG           =        015D                                  #        TWO JET RCS BURN        FOUR JET RCS BURN
000312: 26,2022     4735               NJETSBIT           =        BIT15
000313:
000314:                                                                                                  #  BIT 14 FLAG 1 (L)
000315: 26,2022                        DIDFLAG            =        016D                                  #        INERTIAL DATA IS        PERFORM DATA DISPLAY
000316: 26,2022     4736               DIDFLBIT           =        BIT14                                 #        AVAILABLE               INITIALIZATION FUNCS
000317:
000318:                                                                                                  #  BIT 13 FLAG 1 (S)
000319: 26,2022                        ERADFLAG           =        017D                                  #        COMPUTE REARTH          USE CONSTANT REARTH
000320: 26,2022     4737               ERADFBIT           =        BIT13                                 #        FISCHER ELLIPSOID       PAD RADIUS
000321:
000322:                                                                                                  #  BIT 12 FLAG 1
000323: 26,2022                        RODFLAG            =        018D                                  #        IF IN P66, NORMAL       IF IN P66, RE-INIT-
000324: 26,2022     4740               RODFLBIT           =        BIT12                                 #        OPERATION CONTINUES.    IALIZATION IS PER-
000325:                                                                                                  #        RESTART CLEARS FLAG     FORMED AND FLAG IS
000326:
000327:                                                                                                  #  BIT 11 FLAG 1
000328:                                                                                                  #                =               019D
000329:                                                                                                  #                =               BIT11
000330:
000331:                                                                                                  #  BIT 10 FLAG 1 (L)
000332: 26,2022                        R61FLAG            =        020D                                  #        RUN R61 LEM             RUN R65 LEM
000333: 26,2022     4742               R61FLBIT           =        BIT10
000334:
000335:                                                                                                  #  BIT 9 FLAG 1
000336:                                                                                                  #                =               021D
000337:                                                                                                  #                =               BIT9
000338:
000339:                                                                                                  #  BIT 8 FLAG 1  (S)
000340: 26,2022                        VEHUPFLG           =        022D                                  #        CSM STATE VECTOR        LEM STATE VECTOR
000341: 26,2022     4744               VEHUPBIT           =        BIT8                                  #        BEING UPDATED           BEING UPDATED
000342:
000343:                                                                                                  #  BIT 7 FLAG 1  (S)
000344: 26,2022                        UPDATFLG           =        023D                                  #        UPDATING BY MARKS       UPDATING BY MARKS
000345: 26,2022     4745               UPDATBIT           =        BIT7                                  #        ALLOWED                 NOT ALLOWED
000346:


000348:                                                                                                  #  BIT 6 FLAG 1  (S)
000349: 26,2022                        NOUPFLAG           =        024D                                  #        NEITHER CSM             EITHER STATE
000350:                                                                                                  #        NOR LM STATE VECTOR     VECTOR MAY BE
000351: 26,2022     4746               NOUPFBIT           =        BIT6                                  #        MAY BE UPDATED          UPDATED
000352:
000353:                                                                                                  #  BIT 5 FLAG 1  (S)
000354: 26,2022                        TRACKFLG           =        025D                                  #        TRACKING ALLOWED        TRACKING NOT ALLOWED
000355: 26,2022     4747               TRACKBIT           =        BIT5
000356:
000357:                                                                                                  #  BIT 4 FLAG 1
000358:                                                                                                  #                =               026D
000359:                                                                                                  #                =               BIT4
000360:
000361:                                                                                                  #  BIT 3 FLAG 1  (S)
000362: 26,2022                        SLOPESW            =        027D                                  #        ITERATE WITH BIAS       ITERATE WITH REGULAR
000363:                                                                                                  #        METHOD IN ITERATOR      FALSI METHOD IN
000364: 26,2022     4751               SLOPEBIT           =        BIT3                                  #                                ITERATOR
000365:
000366:                                                                                                  #  BIT 2 FLAG 1  (S)
000367: 26,2022                        GUESSW             =        028D                                  #        NO STARTING VALUE       STARTING VALUE FOR
000368: 26,2022     4752               GUESSBIT           =        BIT2                                  #        FOR ITERATION           ITERATION EXISTS
000369:
000370:                                                                                                  #  BIT 1 FLAG 1
000371:                                                                                                  #                =               029D
000372:
000373: 26,2022     0076               FLAGWRD2           =        STATE      +2                         #  (030-044)
000374:
000375:                                                                                                  #        (SET)                   (RESET)
000376:
000377:                                                                                                  #  BIT 15 FLAG 2 (S)
000378: 26,2022                        DRIFTFLG           =        030D                                  #        T3RUPT CALLS GYRO       T3RUPT DOES NO GYRO
000379: 26,2022     4735               DRFTBIT            =        BIT15                                 #        COMPENSATION            COMPENSATION
000380:
000381:                                                                                                  #  BIT 14 FLAG 2 (S)
000382: 26,2022                        SRCHOPTN           =        031D                                  #        RADAR IN AUTOMATIC      RADAR NOT IN AUTO-
000383: 26,2022     4736               SRCHOBIT           =        BIT14                                 #        SEARCH OPTION(R24)      MATIC SEARCH OPTION
000384:
000385:                                                                                                  #  BIT 13 FLAG 2 (S)
000386: 26,2022                        ACMODFLG           =        032D                                  #        MANUAL ACQUISITION      AUTO ACQUISITION
000387: 26,2022     4737               ACMODBIT           =        BIT13                                 #        BY RENDESVOUS RADAR     BY RENDESVOUS RADAR
000388:


000390:                                                                                                  #  BIT 12 FLAG 2 (S)
000391: 26,2022                        LOSCMFLG           =        033D                                  #        LINE OF SIGHT BEING     LINE OF SIGHT NOT
000392:                                                                                                  #        COMPUTED (R21)          BEING COMPUTED
000393: 26,2022     4740               LOSCMBIT           =        BIT12
000394:
000395:                                                                                                  #        IN R29 (L): RR GYRO     IN R29 (L): RR GYRO
000396:                                                                                                  #        CMD LOOP RUNNING        CMD LOOP OFF
000397:
000398:                                                                                                  #  BIT 11 FLAG 2 (S)
000399: 26,2022                        STEERSW            =        034D                                  #        SUFFICIENT THRUST       INSUFFICIENT THRUST
000400: 26,2022     4741               STEERBIT           =        BIT11                                 #        IS PRESENT              IS PRESENT
000401:
000402:                                                                                                  #  BIT 10 FLAG 2 (S)
000403:
000404:                                                                                                  #  BIT 9 FLAG 2 (S)
000405: 26,2022                        IMPULSW            =        036D                                  #        MINIMUM IMPULSE         STEERING BURN (NO
000406:                                                                                                  #        BURN (CUTOFF TIME       CUTOFF TIME YET
000407: 26,2022     4743               IMPULBIT           =        BIT9                                  #        SPECIFIED)              AVAILABLE)
000408:
000409:                                                                                                  #  BIT 8 FLAG 2 (S)
000410: 26,2022                        XDELVFLG           =        037D                                  #        EXTERNAL DELTAV VG      LAMBERT (AIMPOINT)
000411: 26,2022     4744               XDELVBIT           =        BIT8                                  #        COMPUTATION             VG COMPUTATION
000412:
000413:                                                                                                  #  BIT 7 FLAG 2 (S)
000414: 26,2022                        ETPIFLAG           =        038D                                  #        ELEVATION ANGLE         TPI TIME SUPPLIED
000415:                                                                                                  #        SUPPLIED FOR            FOR P34,74 TO COMPUT
000416: 26,2022     4745               ETPIBIT            =        BIT7                                  #        P34,74                  ELEVATION
000417:
000418:                                                                                                  #  BIT 6 FLAG 2 (S)
000419: 26,2022                        FINALFLG           =        039D                                  #        LAST PASS THROUGH       INTERIM PASS THROUGH
000420:                                                                                                  #        RENDEZVOUS PROGRAM      RENDEZVOUS PROGRAM
000421: 26,2022     4746               FINALBIT           =        BIT6                                  #        COMPUTATIONS            COMPUTATIONS
000422:
000423:                                                                                                  #  BIT 5 FLAG 2 (S)
000424: 26,2022                        AVFLAG             =        040D                                  #        LEM IS ACTIVE           CSM IS ACTIVE
000425: 26,2022     4747               AVFLBIT            =        BIT5                                  #        VEHICLE                 VEHICLE
000426:
000427:                                                                                                  #  BIT 4 FLAG 2 (S)
000428: 26,2022                        PFRATFLG           =        041D                                  #        PREFERRED ATTITUDE      PREFERRED ATTITUDE
000429: 26,2022     4750               PFRATBIT           =        BIT4                                  #        COMPUTED                NOT COMPUTED
000430:
000431:                                                                                                  #  BIT 3 FLAG 2 (S)
000432:
000433: 26,2022                        CALCMAN3           =        042D                                  #        NO FINAL ROLL           FINAL ROLL IS


000435: 26,2022     4751               CALC3BIT           =        BIT3                                  #                                NECESSARY
000436:
000437:                                                                                                  #  BIT 2 FLAG 2 (S)
000438: 26,2022                        CALCMAN2           =        043D                                  #        PERFORM MANEUVER        BYPASS STARTING
000439: 26,2022     4752               CALC2BIT           =        BIT2                                  #        STARTING PROCEDURE      PROCEDURE
000440:
000441:                                                                                                  #  BIT 1 FLAG 2 (S)
000442: 26,2022                        NODOFLAG           =        044D                                  #        V37 NOT PERMITTED       V37 PERMITTED
000443: 26,2022     4753               NODOBIT            =        BIT1
000444:
000445: 26,2022     0077               FLAGWRD3           =        STATE      +3                         #  (045-059)
000446:
000447:                                                                                                  #        (SET)                   (RESET)
000448:
000449:                                                                                                  #  BIT 15 FLAG 3
000450: 26,2022                        POOHFLAG           =        045D                                  #        INHIBIT BACKWARDS       ALLOW BACKWARDS
000451: 26,2022     4735               POOHBIT            =        BIT15                                 #        INTEGRATION             INTEGRATION
000452:
000453:                                                                                                  #  BIT 14 FLAG 3 (S)
000454: 26,2022                        GLOKFAIL           =        046D                                  #        GIMBAL LOCK HAS         NOT IN GIMBAL LOCK
000455: 26,2022     4736               GLOKFBIT           =        BIT14                                 #        OCCURRED
000456:
000457:                                                                                                  #  BIT 13 FLAG 3 *** PROTECTED FROM FRESH START ***
000458: 26,2022                        REFSMFLG           =        047D                                  #        REFSMMAT GOOD           REFSMMAT NO GOOD
000459: 26,2022     4737               REFSMBIT           =        BIT13
000460:
000461:                                                                                                  #  BIT 12 FLAG 3 (S)
000462: 26,2022                        LUNAFLAG           =        048D                                  #        LUNAR LAT-LONG          EARTH LAT-LONG
000463: 26,2022     4740               LUNABIT            =        BIT12
000464:
000465:                                                                                                  #  BIT 11 FLAG 3 (L)
000466: 26,2022                        NOR29FLG           =        049D                                  #        R29 NOT ALLOWED         R29 ALOWED (RR DES-
000467: 26,2022     4741               NR29FBIT           =        BIT11                                 #                                IGNATE, POWERED FLT)
000468:
000469:                                                                                                  #  BIT 10 FLAG 3 (S)
000470: 26,2022                        VFLAG              =        050D                                  #        LESS THAN TWO STARS     TWO STARS IN FIELD
000471: 26,2022     4742               VFLAGBIT           =        BIT10                                 #        IN FIELD OF VIEW        OF VIEW
000472:
000473:                                                                                                  #  BIT 9 FLAG 3  (S)
000474: 26,2022                        R04FLAG            =        051D                                  #        ALARM 521               ALARM 521 ALLOWED
000475:                                                                                                  #        SUPPRESSED


000477: 26,2022     4743               R04FLBIT           =        BIT9
000478:
000479:                                                                                                  #  BIT 9 FLAG 3  (L)
000480: 26,2022  0000063               READRFLG           =        R04FLAG                               #        READING RR DATA         NOT READING RR DATA
000481: 26,2022     4743               READRBIT           =        BIT9                                  #        PURSUANT TO R29         PURSUANT TO R29
000482:
000483:                                                                                                  #  BIT 8 FLAG 3  (S)
000484: 26,2022                        PRECIFLG           =        052D                                  #        NORMAL INTEGRATION      ENGAGES 4-TIME STEP
000485:                                                                                                  #        IN POO                  (POO) LOGIC IN INTE-
000486: 26,2022     4744               PRECIBIT           =        BIT8                                  #                                GRATION
000487:
000488:                                                                                                  #  BIT 7 FLAG 3  (S)
000489: 26,2022                        CULTFLAG           =        053D                                  #        STAR OCCULTED           STAR NOT OCCULTED
000490: 26,2022     4745               CULTBIT            =        BIT7
000491:
000492:                                                                                                  #  BIT 6 FLAG 3  (S)
000493: 26,2022                        ORBWFLAG           =        054D                                  #        W MATRIX VALID FOR      W MATRIX INVALID FOR
000494: 26,2022     4746               ORBWFBIT           =        BIT6                                  #        ORBITAL NAVIGATION      ORBITAL NAVIGATION
000495:
000496:                                                                                                  #  BIT 5 FLAG 3  (S)
000497: 26,2022                        STATEFLG           =        055D                                  #        PERMANENT STATE         PERMANENT STATE
000498: 26,2022     4747               STATEBIT           =        BIT5                                  #        VECTOR UPDATED          VECTOR NOT UPDATED
000499:
000500:                                                                                                  #  BIT 4 FLAG 3  (S)
000501: 26,2022                        INTYPFLG           =        056D                                  #        CONIC INTEGRATION       ENCKE INTEGRATION
000502: 26,2022     4750               INTYPBIT           =        BIT4
000503:
000504:                                                                                                  #  BIT 3 FLAG 3  (S)
000505: 26,2022                        VINTFLAG           =        057D                                  #        CSM STATE VECTOR        LEM STATE VECTOR
000506: 26,2022     4751               VINTFBIT           =        BIT3                                  #        BEING INTEGRATED        BEING INTEGRATED
000507:
000508:                                                                                                  #  BIT 2 FLAG 3 (S)
000509: 26,2022                        D6OR9FLG           =        058D                                  #        DIMENSION OF W IS 9     DIMENSION OF W IS 6
000510: 26,2022     4752               D6OR9BIT           =        BIT2                                  #        FOR INTEGRATION         FOR INTEGRATION
000511:
000512:                                                                                                  #  BIT 1 FLAG 3  (S)
000513: 26,2022                        DIM0FLAG           =        059D                                  #        W MATRIX IS TO BE       W MATRIX IS NOT TO
000514: 26,2022     4753               DIM0BIT            =        BIT1                                  #        USED                    BE USED
000515:
000516: 26,2022     0100               FLAGWRD4           =        STATE      +4                         #  (060-074)
000517:


000519:                                                                                                  #        (SET)                   (RESET)
000520:
000521:                                                                                                  #  BIT 15 FLAG 4 (S)
000522: 26,2022                        MRKIDFLG           =        060D                                  #        MARK DISPLAY IN         NO MARK DISPLAY IN
000523: 26,2022     4735               MRKIDBIT           =        BIT15                                 #        ENDIDLE                 ENDIDLE
000524:
000525:                                                                                                  #  BIT 14 FLAG 4 (S)
000526: 26,2022                        PRIODFLG           =        061D                                  #        PRIORITY DISPLAY IN     NO PRIORITY DISPLAY
000527: 26,2022     4736               PRIODBIT           =        BIT14                                 #        ENDIDLE                 IN ENDIDLE
000528:
000529:                                                                                                  #  BIT 13 FLAG 4 (S)
000530: 26,2022                        NRMIDFLG           =        062D                                  #        NORMAL DISPLAY IN       NO NORMAL DISPLAY
000531: 26,2022     4737               NRMIDBIT           =        BIT13                                 #        ENDIDLE                 IN ENDIDLE
000532:
000533:                                                                                                  #  BIT 12 FLAG 4 (S)
000534: 26,2022                        PDSPFLAG           =        063D                                  #        P20 SETS SO AS TO       LEAVE AS NORMAL DISP
000535:                                                                                                  #        TURN A NORMAL DIS-
000536: 26,2022     4740               PDSPFBIT           =        BIT12                                 #        PLAY INTO A PRIORITY
000537:                                                                                                  #        DISPLAY IN R60
000538:
000539:                                                                                                  #  BIT 11 FLAG 4 (S)
000540: 26,2022                        MWAITFLG           =        064D                                  #        HIGHER PRIORITY         NO HIGHER PRIORITY
000541:                                                                                                  #        DISPLAY OPERATING       DISPLAY OPERATING
000542: 26,2022     4741               MWAITBIT           =        BIT11                                 #        WHEN MARK DISPLAY       WHEN MARK DISPLAY
000543:                                                                                                  #        INITIATED               INITIATED
000544:
000545:                                                                                                  #  BIT 10 FLAG 4 (S)
000546: 26,2022                        NWAITFLG           =        065D                                  #        HIGHER PRIORITY         NO HIGHER PRIORITY
000547:                                                                                                  #        DISPLAY OPERATING       DISPLAY OPERATING
000548: 26,2022     4742               NWAITBIT           =        BIT10                                 #        WHEN NORMAL             WHEN NORMAL DISPLAY
000549:                                                                                                  #        DISPLAY INITIATED       INITIATED
000550:
000551:                                                                                                  #  BIT 9 FLAG 4  (S)
000552: 26,2022                        MRKNVFLG           =        066D                                  #        ASTRONAUT USING         ASTRONAUT NOT USING
000553:                                                                                                  #        KEYBOARD WHEN MARK      KEYBOARD WHEN MARK
000554: 26,2022     4743               MRKNVBIT           =        BIT9                                  #        DISPLAY INITIATED       DISPLAY INITIATED
000555:
000556:                                                                                                  #  BIT 8 FLAG 4  (S)
000557: 26,2022                        NRMNVFLG           =        067D                                  #        ASTRONAUT USING         ASTRONAUT NOT USING
000558:                                                                                                  #        KEYBOARD WHEN           KEYBOARD WHEN
000559: 26,2022     4744               NRMNVBIT           =        BIT8                                  #        NORMAL DISPLAY          NORMAL DISPLAY
000560:                                                                                                  #        INITIATED               INITIATED
000561:
000562:                                                                                                  #  BIT 7 FLAG 4  (S)
000563: 26,2022                        PRONVFLG           =        068D                                  #        ASTRONAUT USING         ASTRONAUT NOT USING


000565:                                                                                                  #        KEYBOARD WHEN           KEYBOARD WHEN
000566: 26,2022     4745               PRONVBIT           =        BIT7                                  #        PRIORITY DISPLAY        PRIORITY DISPLAY
000567:                                                                                                  #        INITIATED               INITIATED
000568:
000569:                                                                                                  #  BIT 6 FLAG 4  (S)
000570: 26,2022                        PINBRFLG           =        069D                                  #        ASTRONAUT HAS           ASTRONAUT HAS NOT
000571:                                                                                                  #        INTERFERED WITH         INTERFERED WITH
000572: 26,2022     4746               PINBRBIT           =        BIT6                                  #        EXISTING DISPLAY        EXISTING DISPLAY
000573:
000574:                                                                                                  #  BIT 5 FLAG 4  (S)
000575: 26,2022                        MRUPTFLG           =        070D                                  #        MARK DISPLAY            MARK DISPLAY NOT
000576:                                                                                                  #        INTERRUPTED BY          INTERRUPTED BY
000577: 26,2022     4747               MRUPTBIT           =        BIT5                                  #        PRIORITY DISPLAY        PRIORITY DISPLAY
000578:
000579:                                                                                                  #  BIT 4 FLAG 4  (S)
000580: 26,2022                        NRUPTFLG           =        071D                                  #        NORMAL DISPLAY          NORMAL DISPLAY NOT
000581:                                                                                                  #        INTERRUPTED BY          INTERRUPTED BY
000582: 26,2022     4750               NRUPTBIT           =        BIT4                                  #        PRIORITY OR MARK        PRIORITY OR MARK
000583:                                                                                                  #        DISPLAY                 DISPLAY
000584:
000585:                                                                                                  #  BIT 3 FLAG 4  (S)
000586: 26,2022                        MKOVFLAG           =        072D                                  #        MARK DISPLAY OVER       NO MARK DISPLAY OVER
000587: 26,2022     4751               MKOVBIT            =        BIT3                                  #        NORMAL                  NORMAL
000588:
000589:                                                                                                  #  BIT 2 FLAG 4
000590:                                                                                                  #                =               073D
000591:
000592:
000593:                                                                                                  #  BIT 1 FLAG 4  (S)
000594: 26,2022                        XDSPFLAG           =        074D                                  #        MARK DISPLAY NOT        NO SPECIAL MARK
000595: 26,2022     4753               XDSPBIT            =        BIT1                                  #        TO BE INTERRUPTED       INFORMATION
000596:
000597: 26,2022     0101               FLAGWRD5           =        STATE      +5                         #  (075-089)
000598:
000599:                                                                                                  #        (SET)                   (RESET)
000600:
000601:                                                                                                  #  BIT 15 FLAG 5 (S)
000602: 26,2022                        DSKYFLAG           =        075D                                  #        DISPLAYS SENT TO        NO DISPLAYS TO DSKY
000603: 26,2022     4735               DSKYFBIT           =        BIT15                                 #        DSKY
000604:
000605:                                                                                                  #  BIT 14 FLAG 5
000606:                                                                                                  #                =               076D
000607:                                                                                                  #                =               BIT14
000608:


000610:                                                                                                  #  BIT 13 FLAG 5 (S,L)
000611: 26,2022                        SNUFFER            =        077D                                  #        U,V JETS DISABLED       U,V JETS ENABLED
000612:                                                                                                  #        DURING DPS              DURING DPS
000613: 26,2022     4737               SNUFFBIT           =        BIT13                                 #        BURNS (V65)             BURNS (V75)
000614:
000615:                                                                                                  #  BIT 12 FLAG 5 (S)
000616: 26,2022                        NOTHROTL           =        078D                                  #        INHIBIT FULL            PERMIT FULL THROTTLE
000617: 26,2022     4740               NOTHRBIT           =        BIT12                                 #        THROTTLE
000618:
000619:                                                                                                  #  BIT 11 FLAG 5 (S,L)
000620: 26,2022                        R77FLAG            =        079D                                  #        R77 IS ON,              R77 IS NOT ON.
000621:                                                                                                  #        SUPPRESS ALL RADAR
000622:                                                                                                  #        ALARMS AND TRACKER
000623: 26,2022     4741               R77FLBIT           =        BIT11                                 #        FAILS
000624:
000625:                                                                                                  #  BIT 10 FLAG 5 (S)
000626: 26,2022                        RNGSCFLG           =        080D                                  #        SCALE CHANGE HAS        NO SCALE CHANGE HAS
000627:                                                                                                  #        OCCURRED DURING         OCCURRED DURING
000628: 26,2022     4742               RNGSCBIT           =        BIT10                                 #        RR READING              RR READING
000629:
000630:                                                                                                  #  BIT 9 FLAG 5  (S)
000631: 26,2022                        DMENFLG            =        081D                                  #        DIMENSION OF W IS 9     DIMENSION OF W IS 6
000632: 26,2022     4743               DMENFBIT           =        BIT9                                  #        FOR INCORPORATION       FOR INCORPORATION
000633:
000634:                                                                                                  #  BIT 8 FLAG 5  (S)
000635: 26,2022                        ZOOMFLAG           =        082D                                  #        THROTTLE-UP HAS         THROTTLE-UP HAS NOT
000636: 26,2022     4744               ZOOMBIT            =        BIT8                                  #        OCCURRED IN P63.        YET OCCURRED IN P63.
000637:
000638:                                                                                                  #  BIT 7 FLAG 5  (S)
000639: 26,2022                        ENGONFLG           =        083D                                  #        ENGINE TURNED ON        ENGINE TURNED OFF
000640: 26,2022     4745               ENGONBIT           =        BIT7                                  #
000641:
000642:                                                                                                  #  BIT 6 FLAG 5  (S)
000643: 26,2022                        3AXISFLG           =        084D                                  #        MANEUVER SPECIFIED      MANEUVER SPECIFIED
000644:                                                                                                  #        BY THREE AXES           BY ONE AXIS; R60
000645: 26,2022     4746               3AXISBIT           =        BIT6                                  #                                CALLS VECPOINT.
000646:
000647:                                                                                                  #  BIT 5 FLAG 5
000648: 26,2022                        AORBSFLG           =        085D                                  #        PREFER PAXIS JET        PREFER PAXIS JET
000649: 26,2022     4747               AORBSYST           =        BIT5                                  #        PAIRS 7,15 AND 8,16     PAIRS 4,12 AND 3,11
000650:


000652:                                                                                                  #  BIT 4 FLAG 5  (S)
000653:
000654: 26,2022                        NORRMON            =        086D                                  #        BYPASS RR GIMBAL        PERFORM
000655: 26,2022     4750               NORRMBIT           =        BIT4                                  #        MONITOR                 RR GIMBAL MONITOR
000656:
000657:                                                                                                  #  BIT 3 FLAG 5  (S)
000658: 26,2022                        SOLNSW             =        087D                                  #        LAMBERT DOES NOT        LAMBERT CONVERGES OR
000659:                                                                                                  #        CONVERGE,OR TIME-RAD    TIME-RADIUS NON
000660: 26,2022     4751               SOLNSBIT           =        BIT3                                  #        NEARLY CIRCULAR         CIRCULAR
000661:
000662:                                                                                                  #  BIT 2 FLAG 5  (S)
000663: 26,2022                        MGLVFLAG           =        088D                                  #        LOCAL VERTICAL          MIDDLE GIMBAL ANGLE
000664:                                                                                                  #        COORDINATES             COMPUTED
000665: 26,2022     4752               MGLVFBIT           =        BIT2                                  #        COMPUTED
000666:
000667:                                                                                                  #  BIT 1 FLAG 5  (S)
000668: 26,2022                        RENDWFLG           =        089D                                  #        W MATRIX VALID          W MATRIX INVALID
000669:                                                                                                  #        FOR RENDEZVOUS          FOR RENDEZVOUS
000670: 26,2022     4753               RENDWBIT           =        BIT1                                  #        NAVIGATION              NAVIGATION
000671:
000672:
000673: 26,2022     0102               FLAGWRD6           =        STATE      +6                         #  (090-104)
000674:
000675:                                                                                                  #        (SET)                   (RESET)
000676:
000677:                                                                                                  #  BIT 15 FLAG 6 (S)
000678: 26,2022                        S32.1F1            =        090D                                  #        DELTA V AT CSI TIME     DVT1 LESS THEN MAX
000679: 26,2022     4735               S32BIT1            =        BIT15                                 #        ONE EXCEEDS MAX
000680:
000681:                                                                                                  #  BIT 14 FLAG 6 (S)
000682: 26,2022                        S32.1F2            =        091D                                  #        FIRST PASS OF           REITERATION OF
000683: 26,2022     4736               S32BIT2            =        BIT14                                 #        NEWTON ITERATION        NEWTON
000684:
000685:                                                                                                  #  BIT 13 FLAG 6 (S)
000686: 26,2022                        S32.1F3A           =        092D                                  #  BIT 13 AND BIT 12 FUNCTION AS AN ORDERED
000687: 26,2022     4737               S32BIT3A           =        BIT13                                 #  PAIR (13,12) INDICATING THE POSSIBLE OC-
000688:                                                                                                  #  CURRANCE OF 2NEWTON ITERATIONS FOR S32.1
000689:                                                                                                  #  IN THE PROGRAM IN THE FOLLOWING ORDER:
000690:                                                                                                  #  BIT 12 FLAG 6                                                   (0,1) (I.E.BIT 13 RESET,BIT 12 SET)
000691: 26,2022                        S32.1F3B           =        093D                                  #       = FIRST NEWTON ITERATION BEING DONE
000692: 26,2022     4740               S32BIT3B           =        BIT12                                 #  (0,0)= FIRST PASS OF SECOND NEWT.ITERAT.
000693:                                                                                                  #  (1,1)= 50 FT/SEC STAGE OF SEC. NEWT.ITER
000694:                                                                                                  #  (1,0)= REMAINDER OF SECOND NEWTON ITERA.
000695:                                                                                                  #  BIT 11 FLAG 6 (S)
000696:


000698:                                                                                                  #  BIT 10 FLAG 6 (S)
000699: 26,2022                        GMBDRVSW           =        095D                                  #        TRIMGIMB OVER           TRIMGIMB NOT OVER
000700: 26,2022     4742               GMBDRBIT           =        BIT10                                 #
000701:
000702:                                                                                                  #  BIT 9 FLAG 6
000703:                                                                                                  #                =               096D
000704:                                                                                                  #                =               BIT9
000705:
000706:                                                                                                  #  BIT 8 FLAG 6  (S)
000707: 26,2022                        MUNFLAG            =        097D                                  #        SERVICER CALLS          SERVICER CALLS
000708: 26,2022     4744               MUNFLBIT           =        BIT8                                  #        MUNRVG                  CALCRVG
000709:
000710:                                                                                                  #  BIT 7 FLAG 6  (L)
000711: 26,2022                                           =        098D
000712: 26,2022                                           =        BIT7
000713:
000714:                                                                                                  #  BIT 6 FLAG 6  (L)
000715: 26,2022                        REDFLAG            =        099D                                  #        LANDING SITE            LANDING SITE
000716:                                                                                                  #        REDESIGNATION           REDESIGNATION NOT
000717: 26,2022     4746               REDFLBIT           =        BIT6                                  #        PERMITTED               PERMITTED
000718:
000719:                                                                                                  #  BIT 5 FLAG 6
000720:                                                                                                  #                =               100D
000721:
000722:                                                                                                  #  BIT 4 FLAG 6
000723:                                                                                                  #                =               101D
000724:
000725:                                                                                                  #  BIT 3 FLAG 6  (S)
000726: 26,2022                        NTARGFLG           =        102D                                  #        ASTRONAUT DID           ASTRONAUT DID NOT
000727:                                                                                                  #        OVERWRITE DELTA         OVERWRITE DELTA
000728: 26,2022     4751               NTARGBIT           =        BIT3                                  #        VELOCITY AT TPI         VELOCITY
000729:                                                                                                  #        OR TPM (P34,35)
000730:
000731:                                                                                                  #  BIT 2 FLAG 6
000732: 26,2022                        AUXFLAG            =        103D                                  #        PROVIDING IDLEFLAG      SERVICER WILL SKIP
000733: 26,2022     4752               AUXFLBIT           =        BIT2                                  #        IS NOT SET, SERV-       DVMON ON ITS NEXT
000734:                                                                                                  #        ICER WILL EXERCISE      PASS EVEN IF THE
000735:                                                                                                  #        DVMON ON ITS NEXT       IDLEFLAG IS NOT SET.
000736:                                                                                                  #        PASS.                   IT WILL THEN SET
000737:                                                                                                  #                                AUXFLAG.
000738:
000739:                                                                                                  #  BIT 1 FLAG 6  (L)


000741: 26,2022                        ATTFLAG            =        104D                                  #        LEM ATTITUDE EXISTS     NO LEM ATTITUDE
000742:                                                                                                  #        IN MOON-FIXED           AVAILABLE IN MOON-
000743: 26,2022     4753               ATTFLBIT           =        BIT1                                  #        COORDINATES             FIXED COORDINATES
000744:
000745: 26,2022     0103               FLAGWRD7           =        STATE      +7                         #  (105-119)
000746:
000747:                                                                                                  #        (SET)                   (RESET)
000748:
000749:                                                                                                  #  BIT 15 FLAG 7 (S)
000750: 26,2022                        ITSWICH            =        105D                                  #        P34;TPI TIME TO BE      TPI HAS BEEN
000751: 26,2022     4735               ITSWBIT            =        BIT15                                 #        COMPUTED                COMPUTED
000752:
000753:                                                                                                  #  BIT 14 FLAG 7 (S)
000754: 26,2022                        MANUFLAG           =        106D                                  #        ATTITUDE MANEUVER       NO ATTITUDE MANEUVER
000755:                                                                                                  #        GOING DURING RR         DURING RR SEARCH
000756: 26,2022     4736               MANUFBIT           =        BIT14                                 #        SEARCH
000757:
000758:                                                                                                  #  BIT 13 FLAG 7 (S)
000759: 26,2022                        IGNFLAG            =        107D                                  #        TIG HAS ARRIVED         TIG HAS NOT ARRIVED
000760: 26,2022     4737               IGNFLBIT           =        BIT13                                 #
000761:
000762:                                                                                                  #  BIT 12 FLAG 7 (S)
000763: 26,2022                        ASTNFLAG           =        108D                                  #        ASTRONAUT HAS           ASTRONAUT HAS NOT
000764: 26,2022     4740               ASTNBIT            =        BIT12                                 #        OKAYED IGNITION         OKAYED IGNITION
000765:
000766:                                                                                                  #  BIT 11 FLAG 7 (L)
000767: 26,2022                        SWANDISP           =        109D                                  #        LANDING ANALOG          LANDING ANALOG
000768: 26,2022     4741               SWANDBIT           =        BIT11                                 #        DISPLAYS ENABLED        DISPLAYS SUPPRESSED
000769:
000770:                                                                                                  #  BIT 10 FLAG 7 (S)
000771: 26,2022                        NORMSW             =        110D                                  #        UNIT NORMAL INPUT       LAMBERT COMPUTES ITS
000772: 26,2022     4742               NORMSBIT           =        BIT10                                 #        TO LAMBERT              OWN UNIT NORMAL
000773:
000774:                                                                                                  #  BIT 9 FLAG 7  (S)
000775: 26,2022                        RVSW               =        111D                                  #        DO NOT COMPUTE          COMPUTE FINAL STATE
000776:                                                                                                  #        FINAL STATE VECTOR      VECTOR IN TIME-THETA
000777: 26,2022     4743               RVSWBIT            =        BIT9                                  #        IN TIME-THETA
000778:
000779:                                                                                                  #  BIT 8 FLAG 7  (S)
000780: 26,2022                        V67FLAG            =        112D                                  #        ASTRONAUT OVERWRITE     ASTRONAUT DOES NOT
000781:                                                                                                  #        W-MATRIX INITIAL        OVERWRITE W-MATRIX
000782: 26,2022     4744               V67FLBIT           =        BIT8                                  #        VALUES                  INITIAL VALUES
000783:


000785:                                                                                                  #  BIT 7 FLAG 7  (S)
000786: 26,2022                        IDLEFLAG           =        113D                                  #        NO DV MONITOR           CONNECT DV MONITOR
000787: 26,2022     4745               IDLEFBIT           =        BIT7                                  #
000788:
000789:                                                                                                  #  BIT 6 FLAG 7  (S)
000790: 26,2022                        V37FLAG            =        114D                                  #        AVERAGEG (SERVICER)     AVERAGEG (SERVICER)
000791: 26,2022     4746               V37FLBIT           =        BIT6                                  #        RUNNING                 OFF
000792:
000793:                                                                                                  #  BIT 5 FLAG 7  (S)
000794: 26,2022                        AVEGFLAG           =        115D                                  #        AVERAGEG (SERVICER)     AVERAGEG (SERVICER)
000795: 26,2022     4747               AVEGFBIT           =        BIT5                                  #        DESIRED                 NOT DESIRED
000796:
000797:                                                                                                  #  BIT 4 FLAG 7  (S)
000798: 26,2022                        UPLOCKFL           =        116D                                  #        K-KBAR-K FAIL           NO K-KBAR-K FAIL
000799: 26,2022     4750               UPLOCBIT           =        BIT4                                  #
000800:
000801:                                                                                                  #  BIT 3 FLAG 7  (S)
000802: 26,2022                        VERIFLAG           =        117D                                  #  CHANGED WHEN V33E OCCURS AT END OF P27
000803: 26,2022     4751               VERIFBIT           =        BIT3                                  #
000804:
000805:                                                                                                  #  BIT 2 FLAG 7  (L,C)
000806: 26,2022                        V82EMFLG           =        118D                                  #        MOON VICINITY           EARTH VICINITY
000807: 26,2022     4752               V82EMBIT           =        BIT2                                  #
000808:
000809:                                                                                                  #  BIT 1 FLAG 7  (S)
000810: 26,2022                        TFFSW              =        119D                                  #        CALCULATE TPERIGEE      CALCULATE TFF
000811: 26,2022     4753               TFFSWBIT           =        BIT1                                  #
000812:
000813:
000814: 26,2022     0104               FLAGWRD8           =        STATE      +8D                        #  (120-134)
000815:
000816:                                                                                                  #        (SET)                   (RESET)
000817:
000818:                                                                                                  #  BIT 15 FLAG 8 (S)
000819: 26,2022                        RPQFLAG            =        120D                                  #        RPQ NOT COMPUTED        RPQ COMPUTED
000820:                                                                                                  #        (RPQ = VECTOR BE-
000821: 26,2022     4735               RPQFLBIT           =        BIT15                                 #        TWEEN SECONDARY BODY
000822:                                                                                                  #        AND PRIMARY BODY
000823:
000824:                                                                                                  #  BIT 14 FLAG 8
000825:                                                                                                  #                =               121D


000827:                                                                                                  #                =               BIT14
000828:
000829:                                                                                                  #  BIT 13 FLAG 8 (S)
000830: 26,2022                        NEWIFLG            =        122D                                  #        FIRST PASS THROUGH      SUCCEEDING ITERATION
000831: 26,2022     4737               NEWIBIT            =        BIT13                                 #        INTEGRATION             OF INTEGRATION
000832:
000833:                                                                                                  #  BIT 12 FLAG 8 *** PROTECTED FROM FRESH START ***
000834: 26,2022                        CMOONFLG           =        123D                                  #        PERMANENT CSM STATE     PERMANENT CSM STATE
000835: 26,2022     4740               CMOONBIT           =        BIT12                                 #        IN LUNAR SPHERE         IN EARTH SPHERE
000836:
000837:                                                                                                  #  BIT 11 FLAG 8 *** PROTECTED FROM FRESH START ***
000838: 26,2022                        LMOONFLG           =        124D                                  #        PERMANENT LM STATE      PERMANENT LM STATE
000839: 26,2022     4741               LMOONBIT           =        BIT11                                 #        IN LUNAR SPHERE         IN EARTH SPHERE
000840:
000841:                                                                                                  #  BIT 10 FLAG 8 (L)
000842: 26,2022                        FLUNDISP           =        125D                                  #        CURRENT GUIDANCE        CURRENT GUIDANCE
000843: 26,2022     4742               FLUNDBIT           =        BIT10                                 #        DISPLAYS INHIBITED      DISPLAYS PERMITTED
000844:
000845:                                                                                                  #  BIT 9 FLAG 8  (L)
000846:                                                                                                  #                =               126D
000847:                                                                                                  #                =               BIT9
000848:
000849:                                                                                                  #  BIT 8 FLAG 8  *** PROTECTED FROM FRESH START ***
000850: 26,2022                        SURFFLAG           =        127D                                  #        LM ON LUNAR SURFACE     LM NOT ON LUNAR
000851: 26,2022     4744               SURFFBIT           =        BIT8                                  #                                SURFACE
000852:
000853:                                                                                                  #  BIT 7 FLAG 8  (S)
000854: 26,2022                        INFINFLG           =        128D                                  #        NO CONIC SOLUTION       CONIC SOLUTION
000855:                                                                                                  #        (CLOSURE THROUGH        EXISTS
000856: 26,2022     4745               INFINBIT           =        BIT7                                  #        INFINITY REQUIRED)
000857:
000858:                                                                                                  #  BIT 6 FLAG 8  (S)
000859: 26,2022                        ORDERSW            =        129D                                  #        ITERATOR USES 2ND       ITERATOR USES 1ST
000860: 26,2022     4746               ORDERBIT           =        BIT6                                  #        ORDER MINIMUM MODE      ORDER STANDARD MODE
000861:
000862:                                                                                                  #  BIT 5 FLAG 8  (S)
000863: 26,2022                        APSESW             =        130D                                  #        RDESIRED OUTSIDE        RDESIRED INSIDE
000864:                                                                                                  #        PERICENTER-APOCENTER    PERICENTER-APOCENTER
000865: 26,2022     4747               APSESBIT           =        BIT5                                  #        RANGE IN TIME-RADI      RANGE IN TIME-RADIUS


000867:
000868:                                                                                                  #  BIT 4 FLAG 8  (S)
000869: 26,2022                        COGAFLAG           =        131D                                  #        NO CONIC SOLUTION -     CONIC SOLUTION
000870:                                                                                                  #        TOO CLOSE TO RECTI-     EXISTS(COGA DOES NOT
000871:
000872: 26,2022     4750               COGAFBIT           =        BIT4                                  #        LINEAR (COGA OVRFLWS)   OVERFLOW)
000873:
000874:                                                                                                  #  BIT 3 FLAG 8
000875:                                                                                                  #                =               132D
000876:
000877:                                                                                                  #  BIT 2 FLAG 8  (L)
000878: 26,2022                        INITALGN           =        133D                                  #        INITIAL PASS THRU       SECOND PASS THRU P57
000879: 26,2022     4752               INITABIT           =        BIT2                                  #        P57                     (CHECK RESET-MILLARD)
000880:
000881:                                                                                                  #  BIT 1 FLAG 8  (S)
000882: 26,2022                        360SW              =        134D                                  #        TRANSFER ANGLE NEAR     TRANSFER ANGLE NOT
000883: 26,2022     4753               360SWBIT           =        BIT1                                  #        360 DEGREES             NEAR 360 DEGREES
000884:
000885:
000886: 26,2022     0105               FLAGWRD9           =        STATE      +9D                        #  (135-149)
000887:
000888:                                                                                                  #        (SET)                   (RESET)
000889:
000890:                                                                                                  #  BIT 15 FLAG 9
000891:                                                                                                  #                =               135D
000892:                                                                                                  #                =               BIT15
000893:
000894:                                                                                                  #  BIT 14 FLAG 9 (L)
000895: 26,2022                        FLVR               =        136D                                  #        VERTICAL RISE           NON-VERTICAL RISE
000896: 26,2022     4736               FLVRBIT            =        BIT14                                 #        (ASCENT GUIDANCE)
000897:
000898:                                                                                                  #  BIT 13 FLAG 9
000899: 26,2022                        P7071FLG           =        137D                                  #        P70 OR P71 IS USING     P12 IS USING THE
000900: 26,2022     4737               P7071BIT           =        BIT13                                 #        ASCENT GUID. EQS.       ASCENT GUID. EQS.
000901:
000902:                                                                                                  #  BIT 12 FLAG 9 (L)
000903: 26,2022                        FLPC               =        138D                                  #        NO POSITION CONTROL     POSITION CONTROL
000904: 26,2022     4740               FLPCBIT            =        BIT12                                 #        (ASCENT GUIDANCE)
000905:
000906:                                                                                                  #  BIT 11 FLAG 9 (L)
000907: 26,2022                        FLPI               =        139D                                  #        PRE-IGNITION PHASE      REGULAR GUIDANCE
000908: 26,2022     4741               FLPIBIT            =        BIT11                                 #        (ASCENT GUIDANCE)
000909:
000910:                                                                                                  #  BIT 10 FLAG 9 (L)
000911: 26,2022                        FLRCS              =        140D                                  #        RCS INJECTION MODE      MAIN ENGINE MODE


000913: 26,2022     4742               FLRCSBIT           =        BIT10                                 #        (ASCENT GUIDANCE)
000914:
000915:                                                                                                  #  BIT 9 FLAG 9  (L)
000916:
000917: 26,2022                        LETABORT           =        141D                                  #        ABORT PROGRAMS          ABORT PROGRAMS
000918: 26,2022     4743               LETABBIT           =        BIT9                                  #        ARE ENABLED             ARE NOT ENABLED
000919:
000920:                                                                                                  #  BIT 8 FLAG 9  (L)
000921: 26,2022                        FLAP               =        142D                                  #        APS CONTINUED ABORT     APS ABORT IS NOT A
000922:                                                                                                  #        AFTER DPS STAGING       CONTINUATION
000923: 26,2022     4744               FLAPBIT            =        BIT8                                  #        (ASCENT GUIDANCE)
000924:
000925:                                                                                                  #  BIT 7 FLAG 9  (L)
000926:                                                                                                  #                =               143D
000927:
000928:
000929:                                                                                                  #  BIT 6 FLAG 9  (L)
000930: 26,2022                        ROTFLAG            =        144D                                  #        P70 AND P71 WILL        P70 AND P71 WILL NOT
000931: 26,2022     4746               ROTFLBIT           =        BIT6                                  #        FORCE VEHICLE           FORCE VEHICLE
000932:                                                                                                  #        ROTATION IN THE         ROTATION IN THE
000933:                                                                                                  #        PREFERRED DIRECTION.    PREFERRED DIRECTION
000934:
000935:                                                                                                  #  BIT 5 FLAG 9  (S)
000936: 26,2022                        QUITFLAG           =        145D                                  #        DISCONTINUE INTEGR.     CONTINUE INTEGRATION
000937: 26,2022     4747               QUITBIT            =        BIT5                                  #
000938:
000939:                                                                                                  #  BIT 4 FLAG 9
000940:                                                                                                  #                =               146D
000941:                                                                                                  #                =               BIT4
000942:
000943:                                                                                                  #  BIT 3 FLAG 9  (L)
000944: 26,2022                        MID1FLAG           =        147D                                  #        INTEGRATE TO TDEC       INTEGRATE TO THE
000945: 26,2022     4751               MID1FBIT           =        BIT3                                  #                                THEN-PRESENT TIME
000946:
000947:                                                                                                  #  BIT 2 FLAG 9  (L)
000948: 26,2022                        MIDAVFLG           =        148D                                  #        INTEGRATION ENTERED     INTEGRATION WAS
000949:                                                                                                  #        FROM ONE OF MIDTOAV     NOT ENTERED VIA
000950: 26,2022     4752               MIDAVBIT           =        BIT2                                  #        PORTALS                 MIDTOAV
000951:
000952:                                                                                                  #  BIT 1 FLAG 9  (S)
000953: 26,2022                        AVEMIDSW           =        149D                                  #        AVETOMID CALLING        NO AVETOMID W INTEGR
000954:                                                                                                  #        FOR W.MATRIX INTEGR     ALLOW SET UP RM,VN.
000955: 26,2022     4753               AVEMDBIT           =        BIT1                                  #        DONT WRITE OVER RN,     PIPTIME
000956:                                                                                                  #        VN,PIPTIME


000958:
000959: 26,2022     0106               RASFLAG            EQUALS   FLGWRD10                              #  WAS ONLY AN INSTALL-ERASTALL FLAG
000960:
000961: 26,2022     0106               FLGWRD10           =        STATE      +10D                       #  (150-164)
000962:                                                                                                  #        (SET)                   (RESET)
000963:
000964:                                                                                                  #  BIT 15 FLAG 10
000965:                                                                                                  #                =               150D
000966:
000967:                                                                                                  #  BIT 14 FLAG 10 (L,C)
000968: 26,2022                        INTFLAG            =        151D                                  #        INTEGRATION IN          INTEGRATION NOT IN
000969: 26,2022     4736               INTFLBIT           =        BIT14                                 #        PROGRESS                PROGRESS
000970:
000971:                                                                                                  #  BIT 13 FLAG 10 (S,L)
000972: 26,2022                        APSFLAG            =        152D                                  #        ASCENT STAGE            DESCENT STAGE
000973: 26,2022     4737               APSFLBIT           =        BIT13                                 #        ***PROTECTED FROM FRESH START ***
000974:
000975:                                                                                                  #  BIT 12 FLAG 10
000976:                                                                                                  #                =               153D
000977:
000978:                                                                                                  #  BIT 11 FLAG 10
000979:                                                                                                  #                =               154D
000980:
000981:                                                                                                  #  BIT 10 FLAG 10
000982:                                                                                                  #                =               155D
000983:
000984:                                                                                                  #  BIT 9 FLAG 10
000985:                                                                                                  #                =               156D
000986:
000987:                                                                                                  #  BIT 8 FLAG 10
000988:                                                                                                  #                =               157D
000989:
000990:                                                                                                  #  BIT 7 FLAG 10 (L,C)
000991: 26,2022                        REINTFLG           =        158D                                  #        INTEGRATION ROUTINE     INTEGRATION ROUTINE
000992: 26,2022     4745               REINTBIT           =        BIT7                                  #        TO BE RESTARTED         NOT TO BE RESTARTED
000993:
000994:                                                                                                  #  BIT 6 FLAG 10
000995:                                                                                                  #                =               159D


000997:
000998:                                                                                                  #  BIT 5 FLAG 10
000999:                                                                                                  #                =               160D
001000:
001001:                                                                                                  #  BIT 4 FLAG 10
001002:                                                                                                  #                =               161D
001003:
001004:                                                                                                  #  BIT 3 FLAG 10
001005:                                                                                                  #                =               162D
001006:
001007:                                                                                                  #  BIT 2 FLAG 10
001008:                                                                                                  #                =               163D
001009:
001010:                                                                                                  #  BIT 1 FLAG 10
001011:                                                                                                  #                =               164D
001012:
001013:
001014:
001015: 26,2022     0107               FLGWRD11           =        STATE      +11D                       #  (165-179)
001016:
001017:                                                                                                  #        (SET)                   (RESET)
001018:
001019:                                                                                                  #  BIT 15 FLAG 11 (L)(R12)
001020: 26,2022                        LRBYPASS           =        165D                                  #        BYPASS ALL LANDING      DO NOT BYPASS LR
001021: 26,2022     4735               LRBYBIT            =        BIT15                                 #        RADAR UPDATES           UPDATES
001022:
001023:                                                                                                  #  BIT 14 FLAG 11
001024:                                                                                                  #                =               166D
001025:                                                                                                  #                =               BIT14
001026:
001027:                                                                                                  #                =               BIT 13 FLAG 11
001028:                                                                                                  #                =               167D
001029:                                                                                                  #                =               BIT13
001030:
001031:                                                                                                  #  BIT 12 FLAG 11 (L)(R12)
001032: 26,2022                        VXINH              =        168D                                  #        IF Z VELOCITY DATA      UPDATE X AXIS
001033:                                                                                                  #        UNREASONABLE,           VELOCITY
001034: 26,2022     4740               VXINHBIT           =        BIT12                                 #        BYPASS X VELOCITY
001035:                                                                                                  #        UPDATE ON NEXT PASS
001036:
001037:                                                                                                  #  BIT 11 FLAG 11 (L)(R12)
001038: 26,2022                        PSTHIGAT           =        169D                                  #        PAST HIGATE             PREHIGATE


001040: 26,2022     4741               PSTHIBIT           =        BIT11                                 #
001041:
001042:                                                                                                  #  BIT 10 FLAG 11 (L)(R12)
001043:
001044: 26,2022                        NOLRREAD           =        170D                                  #        LANDING RADAR           LR NOT REPOSITIONING
001045:                                                                                                  #        REPOSITIONING;
001046: 26,2022     4742               NOLRRBIT           =        BIT10                                 #        BYPASS UPDATE
001047:
001048:                                                                                                  #  BIT 9 FLAG 11 (L)(R12)
001049: 26,2022                        XORFLG             =        171D                                  #        BELOW LIMIT             ABOVE LIMIT DO
001050:                                                                                                  #        INHIBIT X AXIS          NOT INHIBIT
001051: 26,2022     4743               XORFLBIT           =        BIT9                                  #        OVERRIDE
001052:
001053:                                                                                                  #  BIT 8 FLAG 11
001054: 26,2022                        LRINH              =        172D                                  #        LANDING RADAR UP-       LR UPDATES INHIBITED
001055: 26,2022     4744               LRINHBIT           =        BIT8                                  #        DATES PERMITTED         BY ASTRONAUT
001056:                                                                                                  #        BY ASTRONAUT
001057:
001058:                                                                                                  #  BIT 7 FLAG 11 (L)(R12)
001059: 26,2022                        VELDATA            =        173D                                  #        LR VELOCITY             LR VELOCITY MEASURE
001060: 26,2022     4745               VELDABIT           =        BIT7                                  #        MEASUREMENT MADE        NOT MADE
001061:
001062:                                                                                                  #  BIT 6 FLAG 11 (L)(R12)
001063: 26,2022                        LPOS2FLG           =        174D                                  #        USE LR POSITION 2       USE LR POSITION 1
001064: 26,2022     4746               LPOS2BIT           =        BIT6                                  #        TRANSFORMATION          TRANSFORMATION
001065:
001066:                                                                                                  #  BIT 5 FLAG 11 (L)(R12)
001067: 26,2022                        READVEL            =        175D                                  #        OK TO READ LR           DO NOT READ LR
001068: 26,2022     4747               READVBIT           =        BIT5                                  #        VELOCITY DATA           VELOCITY DATA
001069:
001070:                                                                                                  #  BIT 4 FLAG 11 (L)(R12)
001071: 26,2022                        RNGEDATA           =        176D                                  #        LR ALTITUDE             LR ALTITUDE MEASURE
001072: 26,2022     4750               RNGEDBIT           =        BIT4                                  #        MEASUREMENT MADE        NOT MADE
001073:
001074:                                                                                                  #  BIT 3 FLAG 11
001075: 26,2022                        NO511FLG           =        177D                                  #        DO NOT TEST LR          TEST LR ANTENNA
001076: 26,2022     4751               NO511BIT           =        BIT3                                  #        ANTENNA POS IN R12      POS IN R12
001077:
001078:                                                                                                  #  BIT 2 FLAG 11 (L)(R12)
001079: 26,2022                        VFLSHFLG           =        178D                                  #        LR VELOCITY FAIL        LR VEL FAIL LAMP
001080: 26,2022     4752               VFLSHBIT           =        BIT2                                  #        LAMP SHOULD BE          SHOULDN'T FLASH
001081:                                                                                                  #        FLASHING


001083:
001084:                                                                                                  #  BIT 1 FLAG 11 (L)(R12)
001085: 26,2022                        HFLSHFLG           =        179D                                  #        LR ALTITUDE FAIL        LR ALTITUDE FAIL
001086: 26,2022     4753               HFLSHBIT           =        BIT1                                  #        LAMP SHOULD BE          LAMP SHOULD NOT BE
001087:                                                                                                  #        FLASHING                FLASHING
001088:
001089: 26,2022     0110               RADMODES           EQUALS   FLGWRD12                              #  RADAR FLAG WORD
001090:
001091: 26,2022     0110               FLGWRD12           =        STATE      +12D                       #  (180-194)             WAS RADMODES
001092:
001093:                                                                                                  #        (SET)                   (RESET)
001094:
001095:                                                                                                  #  BIT 15 FLAG 12
001096: 26,2022                        CDESFLAG           =        180D                                  #        CONTINUOUS DESIG-       LGC CHECKS FOR LOCK-
001097: 26,2022     4735               CDESBIT            =        BIT15                                 #        NATE. LGC COMMANDS      ON WHEN ANTENNA
001098:                                                                                                  #        RR REGARDLESS OF        BEING DESIGNATED
001099:                                                                                                  #        LOCK-ON
001100:
001101:                                                                                                  #  BIT 14 FLAG 12
001102: 26,2022                        REMODFLG           =        181D                                  #        CHANGE IN ANTENNA       NO REMODE REQUESTED
001103: 26,2022     4736               REMODBIT           =        BIT14                                 #        MODE BEEN REQUESTED     OR OCCURRING
001104:                                                                                                  #        I.E., REMODE
001105:
001106:                                                                                                  #  BIT 13 FLAG 12
001107: 26,2022                        RCDU0FLG           =        182D                                  #        RR CDU'S BEING          RR CDU'S NOT BEING
001108: 26,2022     4737               RCDU0BIT           =        BIT13                                 #        ZEROED                  ZEROED
001109:
001110:                                                                                                  #  BIT 12 FLAG 12
001111: 26,2022                        ANTENFLG           =        183D                                  #        RR ANTENNA MODE IS      RR ANTENNA IN MODE 1
001112: 26,2022     4740               ANTENBIT           =        BIT12                                 #        MODE 2
001113:
001114:                                                                                                  #  BIT 11 FLAG 12
001115: 26,2022                        REPOSMON           =        184D                                  #        REPOSITION MONITOR.     NO REPOSITION TAKING
001116: 26,2022     4741               REPOSBIT           =        BIT11                                 #        RR REPOSITION IS        PLACE
001117:                                                                                                  #        TAKING PLACE
001118:
001119:                                                                                                  #  BIT 10 FLAG 12
001120: 26,2022                        DESIGFLG           =        185D                                  #        RR DESIGNATE            RR DESIGNATE NOT
001121: 26,2022     4742               DESIGBIT           =        BIT10                                 #        REQUESTED OR IN         REQUESTED OR IN
001122:                                                                                                  #        PROGRESS                PROGRESS


001124:
001125:                                                                                                  #  BIT 9 FLAG 12
001126: 26,2022                        ALTSCALE           =        186D                                  #        LR ALTITUDE READING     LR ALTITUDE READING
001127: 26,2022     4743               ALTSCBIT           =        BIT9                                  #        IS ON HIGH SCALE        IS ON LOW SCALE
001128:
001129:                                                                                                  #  BIT 8 FLAG 12
001130: 26,2022                        LRVELFLG           =        187D                                  #        LR VELOCITY DATA        NO LR VELOCITY DATA
001131: 26,2022     4744               LRVELBIT           =        BIT8                                  #        FAIL                    FAIL
001132:
001133:                                                                                                  #  BIT 7 FLAG 12
001134: 26,2022                        RCDUFAIL           =        188D                                  #        RR CDU FAIL HAS         RR CDU FAIL OCCURRED
001135: 26,2022     4745               RCDUFBIT           =        BIT7                                  #        NOT OCCURRED
001136:
001137:                                                                                                  #  BIT 6 FLAG 12
001138: 26,2022                        LRPOSFLG           =        189D                                  #        LANDING RADAR           LR POSITION 1
001139: 26,2022     4746               LRPOSBIT           =        BIT6                                  #        POSITION 2
001140:
001141:                                                                                                  #  BIT 5 FLAG 12
001142: 26,2022                        LRALTFLG           =        190D                                  #        LR ALTITUDE DATA        NO LR ALTITUDE DATA
001143: 26,2022     4747               LRALTBIT           =        BIT5                                  #        FAIL. COULD NOT BE      FAIL
001144:                                                                                                  #        READ SUCCESSFULLY.
001145:
001146:                                                                                                  #  BIT 4 FLAG 12
001147: 26,2022                        RRDATAFL           =        191D                                  #        RR DATA FAIL.           NO RR DATA FAIL.
001148: 26,2022     4750               RRDATABT           =        BIT4                                  #        DATA COULD NOT BE
001149:                                                                                                  #        READ SUCCESSFULLY
001150:
001151:                                                                                                  #  BIT 3 FLAG 12
001152: 26,2022                        RRRSFLAG           =        192D                                  #        RR RANGE READING        RR RANGE READING ON
001153: 26,2022     4751               RRRSBIT            =        BIT3                                  #        ON THE HIGH SCALE       THE LOW SCALE
001154:
001155:                                                                                                  #  BIT 2 FLAG 12
001156: 26,2022                        AUTOMODE           =        193D                                  #        RR NOT IN AUTO MODE.    RR IN AUTO MODE
001157: 26,2022     4752               AUTOMBIT           =        BIT2                                  #        AUTO MODE DISCRETE
001158:                                                                                                  #        IS NOT PRESENT
001159:
001160:                                                                                                  #  BIT 1 FLAG 12
001161: 26,2022                        TURNONFL           =        194D                                  #        RR TURN-ON SEQUENCE     NO RR TURN-ON
001162: 26,2022     4753               TURNONBT           =        BIT1                                  #        IN PROGRESS. (ZERO      SEQUENCE IN PROGRESS
001163:                                                                                                  #        CDU'S, FIX ANTENNA
001164:                                                                                                  #        MODE)


001166:
001167: 26,2022     0111               DAPBOOLS           EQUALS   FLGWRD13                              #  DIGITAL AUTOPILOT FLAGWORD
001168:
001169: 26,2022     0111               FLGWRD13           =        STATE      +13D                       #  (195-209)     WAS DAPBOOLS
001170:
001171:                                                                                                  #        (SET)                   (RESET)
001172:
001173:                                                                                                  #  BIT 15 FLAG 13
001174: 26,2022                        PULSEFLG           =        195D                                  #        MINIMUM IMPULSE         NOT IN MINIMUM
001175: 26,2022     4735               PULSES             =        BIT15                                 #        COMMAND MODE IN         IMPULSE COMMAND MODE
001176:                                                                                                  #        "ATT HOLD" (V76)        (V77)
001177:
001178:                                                                                                  #  BIT 14 FLAG 13
001179: 26,2022                        USEQRFLG           =        196D                                  #        GIMBAL UNUSABLE.        TRIM GIMBAL MAY BE
001180: 26,2022     4736               USEQRJTS           =        BIT14                                 #        USE JETS ONLY.          USED.
001181:
001182:                                                                                                  #  BIT 13 FLAG 13
001183: 26,2022                        CSMDKFLG           =        197D                                  #        CSM DOCKED. USE         CSM NOT DOCKED TO LM
001184: 26,2022     4737               CSMDOCKD           =        BIT13                                 #        BACKUP DAP
001185:
001186:                                                                                                  #  BIT 12 FLAG 13
001187: 26,2022                        OURRCFLG           =        198D                                  #        CURRENT DAP PASS        CURRENT DAP PASS IS
001188: 26,2022     4740               OURRCBIT           =        BIT12                                 #        IS RATE COMMAND         NOT RATE COMMAND
001189:
001190:                                                                                                  #  BIT 11 FLAG 13
001191: 26,2022                        ACC4-2FL           =        199D                                  #        4 JET X-AXIS TRANS-     2 JET X-AXIS TRANS-
001192: 26,2022     4741               ACC4OR2X           =        BIT11                                 #        LATION REQUESTED        LATION REQUESTED
001193:
001194:                                                                                                  #  BIT 10 FLAG 13
001195: 26,2022                        AORBTFLG           =        200D                                  #        B SYSTEM FOR X-         A SYSTEM FOR X-
001196: 26,2022     4742               AORBTRAN           =        BIT10                                 #        TRANSLATION             TRANSLATION PREFER'D
001197:
001198:                                                                                                  #  BIT 9 FLAG 13
001199: 26,2022                        XOVINFLG           =        201D                                  #        X-AXIS OVERRIDE         X-AXIS OVERRIDE OKAY
001200: 26,2022     4743               XOVINHIB           =        BIT9                                  #        LOCKED OUT
001201:
001202:                                                                                                  #  BIT 8 FLAG 13
001203: 26,2022                        DRIFTDFL           =        202D                                  #        ASSUME 0 OFFSET         USE OFFSET ACCELERA-
001204: 26,2022     4744               DRIFTBIT           =        BIT8                                  #        DRIFTING FLIGHT.        TION ESTIMATE
001205:
001206:                                                                                                  #  BIT 7 FLAG 13
001207: 26,2022                        RHCSCFLG           =        203D                                  #        NORMAL RHC SCALING      FINE RHC SCALING


001209: 26,2022     4745               RHCSCALE           =        BIT7                                  #        REQUESTED               REQUESTED
001210:
001211:                                                                                                  #  BIT 6 FLAG 13
001212: 26,2022                        ULLAGFLG           =        204D                                  #        ULLAGE REQUEST BY       NO INTERNAL ULLAGE
001213: 26,2022     4746               ULLAGER            =        BIT6                                  #        MISSION PROGRAM         REQUEST
001214:
001215:                                                                                                  #  BIT 5 FLAG 13
001216: 26,2022                        DBSL2FLG           =        205D                                  #        5 DEG DEADBAND          1 OR .3 DEG DEADBAND
001217: 26,2022     4747               DBSLECT2           =        BIT5                                  #        SELECTED BY CREW        SELECTED BY CREW
001218:                                                                                                  #                                (SEE BIT4 DAPBOOLS)
001219:
001220:                                                                                                  #  BIT 4 FLAG 13
001221: 26,2022                        DBSELFLG           =        206D                                  #        1 DEG DEADBAND          MIN DB SELECTED BY
001222: 26,2022     4750               DBSELECT           =        BIT4                                  #        SELECTED BY CREW        CREW (0.3 DEG)
001223:
001224:                                                                                                  #  BIT 3 FLAG 13
001225: 26,2022                        ACCOKFLG           =        207D                                  #        CONTROL AUTHORITY       RESTART OR FRESH ST.
001226: 26,2022     4751               ACCSOKAY           =        BIT3                                  #        VALUES FROM 1/ACCS      SINCE LAST 1/ACCS;
001227:                                                                                                  #        USABLE                  OUTPUTS SUSPECT.
001228:
001229:                                                                                                  #  BIT 2 FLAG 13
001230: 26,2022                        AUTR2FLG           =        208D                                  #  THESE FLAGS ARE USED TOGETHER TO INDICAT
001231: 26,2022     4752               AUTRATE2           =        BIT2                                  #  ASTRONAUT-CHOSEN KALCMANU MANEUVER RATES
001232:                                                                                                  #  (0,0)=(BIT2,BIT1)=    0.2 DEG/SEC
001233:                                                                                                  #  (0,1)=                0.5 DEG/SEC
001234:                                                                                                  #  BIT 1 FLAG 13
001235: 26,2022                        AUTR1FLG           =        209D                                  #  (1,0)=                2.0 DEG/SEC
001236: 26,2022     4753               AUTRATE1           =        BIT1                                  #  (1,1)=               10.0 DEG/SEC

End of include-file FLAGWORD_ASSIGNMENTS.agc.  Parent file is MAIN.agc


