
Source Code


000002:                                                                                                  ## Copyright:   Public domain.
000003:                                                                                                  ## Filename:    IMU_MODE_SWITCHING_ROUTINES.agc
000004:                                                                                                  ## Purpose:     A section of Luminary revision 116.
000005:                                                                                                  ##              It is part of the source code for the Lunar Module's (LM)
000006:                                                                                                  ##              Apollo Guidance Computer (AGC) for Apollo 12.
000007:                                                                                                  ##              This file is intended to be a faithful transcription, except
000008:                                                                                                  ##              that the code format has been changed to conform to the
000009:                                                                                                  ##              requirements of the yaYUL assembler rather than the
000010:                                                                                                  ##              original YUL assembler.
000011:                                                                                                  ## Reference:   pp. 1299-1327
000012:                                                                                                  ## Assembler:   yaYUL
000013:                                                                                                  ## Contact:     Ron Burkey <info@sandroid.org>.
000014:                                                                                                  ## Website:     www.ibiblio.org/apollo/index.html
000015:                                                                                                  ## Mod history: 2017-01-22 MAS  Created from Luminary 99.
000016:                                                                                                  ##              2017-01-28 RSB Comment-text fixes identified for Luminary 69.
000017:                                                                                                  ##              2017-02-07 RRB  Updated for Luminary 116.
000018:                                                                                                  ##              2017-03-13 RSB  Proofed comment text via 3-way diff vs
000019:                                                                                                  ##                              Luminary 99 and 131.
000020:                                                                                                  ##              2017-03-15 RSB  Comment-text fixes identified in 6-way
000021:                                                                                                  ##                              side-by-side diff of Sunburst 120 and Luminary
000022:                                                                                                  ##                              69/99/116/131/210.
000023:                                                                                                  ##              2017-03-19 HG   Fix value  OCT 1210 --> OCT 31210
000024:


000026:    5457                                           BLOCK    02
000027:    4000                                           SETLOC   FFTAG3
000028:    4000                                           BANK
000029:
000030:    5457  E3,1471                                  EBANK=   COMMAND
000031:
000032:                                                                                                  #  FIXED-FIXED ROUTINES.
000033:
000034:    5457                                           COUNT*   $$/IMODE
000035:    5457           34755        ZEROICDU           CAF      ZERO                                  #  ZERO ICDU COUNTERS.
000036:    5460           54032                           TS       CDUX
000037:    5461           54033                           TS       CDUY
000038:    5462           54034                           TS       CDUZ
000039:    5463           00002                           TC       Q
000040:
000041:    5464     4743               SPSCODE            =        BIT9
000042:


000044:                                                                                                  #  IMU ZEROING ROUTINE.
000045:
000046: 11,3774                                           BANK     11
000047: 07,2000                                           SETLOC   MODESW
000048: 07,2000                                           BANK
000049:
000050: 07,2706                                           COUNT*   $$/IMODE
000051: 07,2706           00004        IMUZERO            INHINT                                         #  ROUTINE TO ZERO ICDUS.
000052: 07,2707           41035                           CS       DSPTAB     +11D                       #  DONT ZERO CDUS IF IMU IN GIMBAL LOCK AND
000053: 07,2710           74771                           MASK     BITS4&6                               #  COARSE ALIGN (GIMBAL RUNAWAY PROTECTION)
000054: 07,2711           10000                           CCS      A
000055: 07,2712           12716                           TCF      IMUZEROA
000056:
000057: 07,2713           05567                           TC       ALARM                                 #  IF SO.
000058: 07,2714           00206                           OCT      00206
000059:
000060: 07,2715           13651                           TCF      CAGETSTJ   +4                         #  IMMEDIATE FAILURE.
000061:
000062: 07,2716           03645        IMUZEROA           TC       CAGETSTJ
000063:                                                                                                  #  DELETE
000064: 07,2717           41300                           CS       IMODES33                              #  DISABLE DAP AUTO AND HOLD MODES
000065: 07,2720           74773                           MASK     SUPER011                              #      BIT5 FOR GROUND
000066: 07,2721           27300                           ADS      IMODES33
000067:
000068: 07,2722           41277                           CS       IMODES30                              #  INHIBIT ICDUFAIL AND IMUFAIL (IN CASE WE
000069: 07,2723           75741                           MASK     BITS3&4                               #  JUST CAME OUT OF COARSE ALIGN).
000070: 07,2724           27277                           ADS      IMODES30
000071:
000072: 07,2725           44771                           CS       BITS4&6                               #  SEND ZERO ENCODE WITH COARSE AND ERROR
000073: 07,2726           00006                           EXTEND                                         #  COUNTER DISABLED.
000074: 07,2727           03012                           WAND     CHAN12
000075:
000076: 07,2730           03260                           TC       NOATTOFF                              #  TURN OFF NO ATT LAMP.
000077:
000078: 07,2731           34747                           CAF      BIT5
000079: 07,2732           00006                           EXTEND
000080: 07,2733           05012                           WOR      CHAN12
000081:
000082: 07,2734           05457                           TC       ZEROICDU
000083: 07,2735           34746                           CAF      BIT6                                  #  WAIT 320 MS TO GIVE AGS ADEQUATE TIME TO
000084: 07,2736           05203                           TC       WAITLIST                              #  RECEIVE ITS PULSE TRAIN.
000085: 07,2737  E3,1474                                  EBANK=   CDUIND
000086: 07,2737           02751 16103                     2CADR    IMUZERO2
000087:
000088: 07,2741           41277                           CS       IMODES30                              #  SEE IF IMU OPERATING AND ALARM IF NOT.
000089: 07,2742           74743                           MASK     BIT9
000090: 07,2743           10000                           CCS      A
000091: 07,2744           12747                           TCF      MODEEXIT


000093: 07,2745           05567                           TC       ALARM
000094: 07,2746           00210                           OCT      210
000095:
000096: 07,2747           00003        MODEEXIT           RELINT                                         #  GENERAL MODE-SWITCHING EXIT.
000097: 07,2750           14631                           TCF      SWRETURN
000098:
000099: 07,2751           03633        IMUZERO2           TC       CAGETEST
000100: 07,2752           05457                           TC       ZEROICDU                              #  ZERO CDUX, CDUY, CDUZ
000101:
000102: 07,2753           44747                           CS       BIT5                                  #  REMOVE ZERO DISCRETE.
000103: 07,2754           00006                           EXTEND
000104: 07,2755           03012                           WAND     CHAN12
000105:
000106: 07,2756           34741                           CAF      BIT11                                 #  WAIT 10 SECS FOR CTRS TO FIND GIMBALS
000107: 07,2757           05224                           TC       VARDELAY
000108:
000109: 07,2760           03633        IMUZERO3           TC       CAGETEST
000110: 07,2761           45741                           CS       BITS3&4                               #  REMOVE IMUFAIL AND ICDUFAIL INHIBIT.
000111: 07,2762           71277                           MASK     IMODES30
000112: 07,2763           55277                           TS       IMODES30
000113:
000114: 07,2764           44773                           CS       SUPER011                              #  ENABLE DAP AUTO AND HOLD MODES
000115: 07,2765           71300                           MASK     IMODES33                              #      BIT5 FOR GROUND
000116: 07,2766           55300                           TS       IMODES33
000117:
000118: 07,2767           04674                           TC       IBNKCALL                              #  SET ISS WARNING IF EITHER OF ABOVE ARE
000119: 07,2770           14703                           CADR     SETISSW                               #  PRESENT.
000120:
000121: 07,2771           13623                           TCF      ENDIMU
000122:


000124:                                                                                                  #  IMU COARSE ALIGN MODE.
000125:
000126: 07,2772           00004        IMUCOARS           INHINT
000127: 07,2773           03645                           TC       CAGETSTJ
000128: 07,2774           03136                           TC       SETCOARS
000129:
000130: 07,2775           36245                           CAF      SIX
000131: 07,2776           05203                           TC       WAITLIST
000132: 07,2777  E3,1474                                  EBANK=   CDUIND
000133: 07,2777           03002 16103                     2CADR    COARS
000134:
000135: 07,3001           12747                           TCF      MODEEXIT
000136:
000137: 07,3002           03633        COARS              TC       CAGETEST
000138: 07,3003           34746                           CAF      BIT6                                  #  ENABLE ALL THREE ISS CDU ERROR COUNTERS
000139: 07,3004           00006                           EXTEND
000140: 07,3005           05012                           WOR      CHAN12
000141:
000142: 07,3006           34752                           CAF      TWO                                   #  SET CDU INDICATOR
000143: 07,3007           55474        COARS1             TS       CDUIND
000144:
000145: 07,3010           51474                           INDEX    CDUIND                                #  COMPUTE THETAD - THETAA IN 1:S
000146: 07,3011           30321                           CA       THETAD                                #    COMPLEMENT FORM
000147: 07,3012           00006                           EXTEND
000148: 07,3013           51474                           INDEX    CDUIND
000149: 07,3014           20032                           MSU      CDUX
000150: 07,3015           00006                           EXTEND
000151: 07,3016           74737                           MP       BIT13                                 #  SHIFT RIGHT 2
000152: 07,3017           56001                           XCH      L                                     #  ROUND
000153: 07,3020           60000                           DOUBLE
000154: 07,3021           54061                           TS       ITEMP1
000155: 07,3022           13024                           TCF      +2
000156: 07,3023           26001                           ADS      L
000157:
000158: 07,3024           51474                           INDEX    CDUIND                                #  DIFFERENCE TO BE COMPUTED
000159: 07,3025           23471                           LXCH     COMMAND
000160: 07,3026           11474                           CCS      CDUIND
000161: 07,3027           03007                           TC       COARS1
000162:
000163: 07,3030           34752                           CAF      TWO                                   #  MINIMUM OF 4 MS WAIT
000164: 07,3031           05224                           TC       VARDELAY
000165:


000167: 07,3032           03633        COARS2             TC       CAGETEST                              #  DONT CONTINUE IF CAGED.
000168: 07,3033           54061                           TS       ITEMP1                                #  SETS TO +0.
000169: 07,3034           34752                           CAF      TWO                                   #  SET CDU INDICATOR
000170: 07,3035           55474                 +3        TS       CDUIND
000171:
000172: 07,3036           51474                           INDEX    CDUIND
000173: 07,3037           11471                           CCS      COMMAND                               #  NUMBER OF PULSES REQUIRED
000174: 07,3040           03044                           TC       COMPOS                                #  GREATER THAN MAX ALLOWED
000175: 07,3041           03053                           TC       NEXTCDU    +1
000176: 07,3042           03111                           TC       COMNEG
000177: 07,3043           03053                           TC       NEXTCDU    +1
000178:
000179: 07,3044           63737        COMPOS             AD       -COMMAX                               #  COMMAX = MAX NUMBER OF PULSES ALLOWED
000180: 07,3045           00006                           EXTEND                                         #    MINUS ONE
000181: 07,3046           63121                           BZMF     COMZERO
000182: 07,3047           51474                           INDEX    CDUIND
000183: 07,3050           55471                           TS       COMMAND                               #  REDUCE COMMAND BY MAX NUMBER OF PULSES
000184: 07,3051           43740                           CS       -COMMAX-                              #    ALLOWED
000185:
000186: 07,3052           24061        NEXTCDU            INCR     ITEMP1
000187: 07,3053           64754                           AD       NEG0
000188: 07,3054           51474                           INDEX    CDUIND
000189: 07,3055           54050                           TS       CDUXCMD                               #  SET UP COMMAND REGISTER.
000190:
000191: 07,3056           11474                           CCS      CDUIND
000192: 07,3057           03035                           TC       COARS2     +3
000193:
000194: 07,3060           10061                           CCS      ITEMP1                                #  SEE IF ANY PULSES TO GO OUT.
000195: 07,3061           13125                           TCF      SENDPULS
000196:
000197: 07,3062           05221                           TC       FIXDELAY                              #  WAIT FOR GIMBALS TO SETTLE.
000198: 07,3063           00226                           DEC      150        B-14
000199:
000200: 07,3064           34752                           CAF      TWO                                   #  AT END OF COMMAND, CHECK TO SEE THAT
000201: 07,3065           54061        CHKCORS            TS       ITEMP1                                #  GIMBALS ARE WITHIN 2 DEGREES OF THETAD.
000202: 07,3066           50000                           INDEX    A
000203: 07,3067           30032                           CA       CDUX
000204: 07,3070           00006                           EXTEND
000205: 07,3071           50061                           INDEX    ITEMP1
000206: 07,3072           20321                           MSU      THETAD
000207: 07,3073           10000                           CCS      A
000208: 07,3074           13102                           TCF      COARSERR
000209: 07,3075           13077                           TCF      CORSCHK2
000210: 07,3076           13102                           TCF      COARSERR
000211:


000213: 07,3077           10061        CORSCHK2           CCS      ITEMP1
000214: 07,3100           13065                           TCF      CHKCORS
000215: 07,3101           13623                           TCF      ENDIMU                                #  END OF COARSE ALIGNMENT.
000216:
000217: 07,3102           63110        COARSERR           AD       COARSTOL                              #  2 DEGREES.
000218: 07,3103           00006                           EXTEND
000219: 07,3104           63077                           BZMF     CORSCHK2
000220:
000221: 07,3105           05567                           TC       ALARM                                 #  COARSE ALIGN ERROR.
000222: 07,3106           00211                           OCT      211
000223:
000224: 07,3107           13631                           TCF      IMUBAD
000225:
000226: 07,3110           77511        COARSTOL           DEC      -.01111                               #  2 DEGREES SCALED AT HALF-REVOLUTIONS
000227:
000228: 07,3111           63737        COMNEG             AD       -COMMAX
000229: 07,3112           00006                           EXTEND
000230: 07,3113           63121                           BZMF     COMZERO
000231: 07,3114           40000                           COM
000232: 07,3115           51474                           INDEX    CDUIND
000233: 07,3116           55471                           TS       COMMAND
000234: 07,3117           33740                           CA       -COMMAX-
000235: 07,3120           03052                           TC       NEXTCDU
000236:
000237: 07,3121           34755        COMZERO            CAF      ZERO
000238: 07,3122           51474                           INDEX    CDUIND
000239: 07,3123           57471                           XCH      COMMAND
000240: 07,3124           03052                           TC       NEXTCDU
000241:
000242: 07,3125           37743        SENDPULS           CAF      13,14,15
000243: 07,3126           00006                           EXTEND
000244: 07,3127           05014                           WOR      CHAN14
000245: 07,3130           33741                           CAF      600MS
000246: 07,3131           13031                           TCF      COARS2     -1                         #  THEN TO VARDELAY
000247:
000248: 07,3132           34746        CA+ECE             CAF      BIT6                                  #  ENABLE ALL THREE ISS CDU ERROR COUNTERS
000249: 07,3133           00006                           EXTEND
000250: 07,3134           05012                           WOR      CHAN12
000251: 07,3135           05261                           TC       TASKOVER
000252:


000254: 07,3136           34750        SETCOARS           CAF      BIT4                                  #  BYPASS IF ALREADY IN COARSE ALIGN
000255: 07,3137           00006                           EXTEND
000256: 07,3140           02012                           RAND     CHAN12
000257: 07,3141           10000                           CCS      A
000258: 07,3142           00002                           TC       Q
000259:
000260: 07,3143           44746                           CS       BIT6                                  #  CLEAR ISS ERROR COUNTERS
000261: 07,3144           00006                           EXTEND
000262: 07,3145           03012                           WAND     CHAN12
000263:
000264: 07,3146           44742                           CS       BIT10                                 #  KNOCK DOWN GYRO ACTIVITY
000265: 07,3147           00006                           EXTEND
000266: 07,3150           03014                           WAND     CHAN14
000267: 07,3151           44755                           CS       ZERO
000268: 07,3152           54047                           TS       GYROCMD
000269:
000270: 07,3153           34750                           CAF      BIT4                                  #  PUT ISS IN COARSE ALIGN
000271: 07,3154           00006                           EXTEND
000272: 07,3155           05012                           WOR      CHAN12
000273:
000274: 07,3156           41035                           CS       DSPTAB     +11D                       #  TURN ON NO ATT LAMP
000275: 07,3157           73201                           MASK     OCT40010
000276: 07,3160           27035                           ADS      DSPTAB     +11D
000277:
000278: 07,3161           41300                           CS       IMODES33                              #  DISABLE DAP AUTO AND HOLD MODES
000279: 07,3162           74746                           MASK     BIT6
000280: 07,3163           27300                           ADS      IMODES33
000281:
000282: 07,3164           41277                           CS       IMODES30                              #  DISABLE IMUFAIL
000283: 07,3165           74750                           MASK     BIT4
000284: 07,3166           27277                           ADS      IMODES30
000285:
000286: 07,3167           44747        RNDREFDR           CS       TRACKBIT                              #  CLEAR TRACK FLAG
000287: 07,3170           70075                           MASK     FLAGWRD1
000288: 07,3171           54075                           TS       FLAGWRD1
000289:
000290: 07,3172           44735                           CS       DRFTBIT                               #  CLEAR DRIFT FLAG
000291: 07,3173           70076                           MASK     FLAGWRD2
000292: 07,3174           54076                           TS       FLAGWRD2
000293:
000294: 07,3175           44737                           CS       REFSMBIT                              #  CLEAR REFSMMAT FLAG
000295: 07,3176           70077                           MASK     FLAGWRD3
000296: 07,3177           54077                           TS       FLAGWRD3
000297:
000298: 07,3200           00002                           TC       Q
000299:
000300: 07,3201           40010        OCT40010           OCT      40010
000301:


000303:                                                                                                  #  IMU FINE ALIGN MODE SWITCH.
000304:
000305: 07,3202           00004        IMUFINE            INHINT
000306: 07,3203           03645                           TC       CAGETSTJ                              #  SEE IF IMU BEING CAGED.
000307:
000308: 07,3204           43736                           CS       BITS4-5                               #  RESET ZERO AND COARSE
000309: 07,3205           00006                           EXTEND
000310: 07,3206           03012                           WAND     CHAN12
000311:
000312: 07,3207           44746                           CS       BIT6                                  #  INSURE DAP AUTO AND HOLD MODES ENABLED
000313: 07,3210           71300                           MASK     IMODES33
000314: 07,3211           55300                           TS       IMODES33
000315:
000316: 07,3212           03260                           TC       NOATTOFF
000317:
000318: 07,3213           34742                           CAF      BIT10                                 #  IMU FAIL WAS INHIBITED DURING THE
000319: 07,3214           05203                           TC       WAITLIST                              #  PRESUMABLY PRECEDING COARSE ALIGN.  LEAVE
000320: 07,3215  E3,1474                                  EBANK=   CDUIND
000321: 07,3215           03226 16103                     2CADR    IFAILOK                               #  IT ON FOR THE FIRST 5 SECS OF FINE ALIGN
000322:
000323: 07,3217           35000                           CAF      2SECS
000324: 07,3220           05203                           TC       WAITLIST
000325: 07,3221  E3,1474                                  EBANK=   CDUIND
000326: 07,3221           03224 16103                     2CADR    IMUFINED
000327:
000328: 07,3223           12747                           TCF      MODEEXIT
000329:
000330: 07,3224           03633        IMUFINED           TC       CAGETEST                              #  SEE THAT NO ONE HAS CAGED THE IMU.
000331: 07,3225           13623                           TCF      ENDIMU
000332:


000334: 07,3226           03640        IFAILOK            TC       CAGETSTQ                              #  ENABLE IMU FIAL UNLESS IMU BEING CAGED.
000335: 07,3227           15261                           TCF      TASKOVER                              #  IT IS.
000336:
000337: 07,3230           34750                           CAF      BIT4                                  #  DONT RESET IMU FAIL INHIBIT IF SOMEONE
000338: 07,3231           00006                           EXTEND                                         #  HAS GONE INTO COARSE ALIGN.
000339: 07,3232           02012                           RAND     CHAN12
000340: 07,3233           10000                           CCS      A
000341: 07,3234           15261                           TCF      TASKOVER
000342:
000343: 07,3235           41277                           CS       IMODES30                              #  RESET IMUFAIL.
000344: 07,3236           74737                           MASK     BIT13
000345: 07,3237           27277                           ADS      IMODES30
000346: 07,3240           44750                           CS       BIT4
000347: 07,3241           71277        PFAILOK2           MASK     IMODES30
000348: 07,3242           55277                           TS       IMODES30
000349: 07,3243           04674                           TC       IBNKCALL                              #  THE ISS WARNING LIGHT MAY COME ON NOW
000350: 07,3244           14703                           CADR     SETISSW                               #  THAT THE INHIBIT HAS BEEN REMOVED.
000351: 07,3245           15261                           TCF      TASKOVER
000352:
000353: 07,3246           03640        PFAILOK            TC       CAGETSTQ                              #  ENABLE PIP FAIL PROG ALARM.
000354: 07,3247           15261                           TCF      TASKOVER
000355:
000356: 07,3250           41277                           CS       IMODES30                              #  RESET IMU AND PIPA FAIL BITS.
000357: 07,3251           74742                           MASK     BIT10
000358: 07,3252           27277                           ADS      IMODES30
000359:
000360: 07,3253           41300                           CS       IMODES33
000361: 07,3254           74737                           MASK     BIT13
000362: 07,3255           27300                           ADS      IMODES33
000363:
000364: 07,3256           44747                           CS       BIT5
000365: 07,3257           13241                           TCF      PFAILOK2
000366:
000367: 07,3260           43201        NOATTOFF           CS       OCT40010                              #  SUBROUTINE TO TURN OFF NO ATT LAMP.
000368: 07,3261           71035                           MASK     DSPTAB     +11D
000369: 07,3262           64735                           AD       BIT15
000370: 07,3263           55035                           TS       DSPTAB     +11D
000371: 07,3264           00002                           TC       Q
000372:


000374:                                                                                                  #  ROUITNES TO INITIATE AND TERMINATE PROGRAM USE OF THE PIPAS. NO IMUSTALL REQUIRED IN EITHER CASE.
000375:
000376: 07,3265           44755        PIPUSE             CS       ZERO
000377: 07,3266           54037                           TS       PIPAX
000378: 07,3267           54040                           TS       PIPAY
000379: 07,3270           54041                           TS       PIPAZ
000380:
000381: 07,3271           03640        PIPUSE1            TC       CAGETSTQ                              #  DO NOT ENABLE PIPA FAIL IF IMU IS CAGED
000382: 07,3272           14631                           TCF      SWRETURN
000383:
000384: 07,3273           00004                           INHINT
000385: 07,3274           44753                           CS       BIT1                                  #  IF PIPA FAILS FROM NOW ON (UNTIL
000386: 07,3275           71277                           MASK     IMODES30                              #  PIPFREE), LIGHT ISS WARNING.
000387: 07,3276           55277                           TS       IMODES30
000388:
000389: 07,3277           04674        PIPFREE2           TC       IBNKCALL                              #  ISS WARNING MIGHT COME ON NOW.
000390: 07,3300           14703                           CADR     SETISSW                               #  (OR GO OFF ON PIPFREE).
000391:
000392: 07,3301           12747                           TCF      MODEEXIT
000393:
000394: 07,3302           00004        PIPFREE            INHINT                                         #  PROGRAM DONE WITH PIPAS.  DONT LIGHT
000395: 07,3303           41277                           CS       IMODES30                              #  ISS WARNING.
000396: 07,3304           74753                           MASK     BIT1
000397: 07,3305           27277                           ADS      IMODES30
000398:
000399: 07,3306           74742                           MASK     BIT10                                 #  IF PIP FAIL ON, DO PROG ALSRM AND RESET
000400: 07,3307           10000                           CCS      A                                     #  ISS WARNING.
000401: 07,3310           12747                           TCF      MODEEXIT
000402:
000403: 07,3311           05567                           TC       ALARM
000404: 07,3312           00212                           OCT      212
000405:
000406: 07,3313           00004                           INHINT
000407:
000408: 07,3314           13277                           TCF      PIPFREE2
000409:


000411:                                                                                                  #           THE FOLLOWING ROUTINE TORQUES THE IRIGS ACCORDING TO DOUBLE PRECISION INPUTS IN THE SIX REGISTERS
000412:                                                                                                  #  BEGINNING AT THE ECADR ARRIVING IN A. THE MINIMUM SIZE OF ANY PULSE TRAIN IS 16 PULSES (.25 CDU COUNTS). THE
000413:                                                                                                  #  UNSENT PORTION OF THE COMMAND IS LEFT INTACT IN THE INPUT COMMAND REGISTERS.
000414:
000415: 07,3315  E3,1400                                  EBANK=   1400                                  #  VARIABLE, ACTUALLY.
000416:
000417: 07,3315           54161        IMUPULSE           TS       MPAC       +5                         #  SAVE ARRIVING ECADR.
000418: 07,3316           03645                           TC       CAGETSTJ                              #  DONT PROCEED IF IMU BEING CAGED.
000419:
000420: 07,3317           11311                           CCS      LGYRO                                 #  SEE IF GYROS BUSY.
000421: 07,3320           03361                           TC       GYROBUSY                              #  SLEEP.
000422:
000423: 07,3321           54156                           TS       MPAC       +2
000424: 07,3322           34746                           CAF      BIT6                                  #  ENABLE THE POWER SUPPLY.
000425: 07,3323           00006                           EXTEND
000426: 07,3324           05014                           WOR      CHAN14
000427:
000428: 07,3325           34751                           CAF      FOUR
000429: 07,3326           05203        GWAKE2             TC       WAITLIST                              #  (IF A JOB WAS PUT TO SLEEP, THE POWER
000430: 07,3327  E3,1474                                  EBANK=   CDUIND                                #  SUPPLY IS LEFT ON BY THE WAKING JOB).
000431: 07,3327           03377 16103                     2CADR    STRTGYRO
000432:
000433: 07,3331           30161                           CA       MPAC       +5                         #  SET UP EBANK, SAVING CALLER'S EBANK FOR
000434: 07,3332           56003                           XCH      EBANK                                 #  RESTORATION ON RETURN.
000435: 07,3333           56161                           XCH      MPAC       +5
000436: 07,3334           55311                           TS       LGYRO                                 #  RESERVES GYROS.
000437: 07,3335           74357                           MASK     LOW8
000438: 07,3336           54061                           TS       ITEMP1
000439:
000440: 07,3337           34752                           CAF      TWO                                   #  FORCE SIGN AGREEMENT ON INPUTS.
000441: 07,3340           54157        GYROAGRE           TS       MPAC       +3
000442: 07,3341           60000                           DOUBLE
000443: 07,3342           60061                           AD       ITEMP1
000444: 07,3343           54160                           TS       MPAC       +4
000445: 07,3344           00006                           EXTEND
000446: 07,3345           50000                           INDEX    A
000447: 07,3346           31401                           DCA      1400
000448: 07,3347           52155                           DXCH     MPAC
000449: 07,3350           07262                           TC       TPAGREE
000450: 07,3351           52155                           DXCH     MPAC
000451: 07,3352           50160                           INDEX    MPAC       +4
000452: 07,3353           53401                           DXCH     1400
000453:
000454: 07,3354           10157                           CCS      MPAC       +3
000455: 07,3355           13340                           TCF      GYROAGRE
000456:
000457: 07,3356           30161                           CA       MPAC       +5                         #  RESTORE CALLER'S EBANK.
000458: 07,3357           54003                           TS       EBANK
000459: 07,3360           12747                           TCF      MODEEXIT
000460:


000462:                                                                                                  #  ROUTINES TO ALLOW TORQUING BY ONLY ONE JOB AT A TIME.
000463:
000464: 07,3361           00006        GYROBUSY           EXTEND                                         #  SAVE RETURN 2FCADR.
000465: 07,3362           30134                           DCA      BUF2
000466: 07,3363           52155                           DXCH     MPAC
000467: 07,3364           33376        REGSLEEP           CAF      LGWAKE
000468: 07,3365           15133                           TCF      JOBSLEEP
000469:
000470: 07,3366           11311        GWAKE              CCS      LGYRO                                 #  WHEN AWAKENED, SEE IF GYROS STILL BUSY.
000471: 07,3367           13364                           TCF      REGSLEEP                              #  IF SO, SLEEP SOME MORE.
000472:
000473: 07,3370           54156                           TS       MPAC       +2
000474: 07,3371           00006                           EXTEND
000475: 07,3372           30155                           DCA      MPAC
000476: 07,3373           52134                           DXCH     BUF2                                  #  RESTORE SWRETURN INFO.
000477: 07,3374           34753                           CAF      ONE
000478: 07,3375           13326                           TCF      GWAKE2
000479:
000480: 07,3376           17366        LGWAKE             CADR     GWAKE
000481:


000483:                                                                                                  #  GYRO-TORQUING WAITLIST TASKS.
000484:
000485: 07,3377           43620        STRTGYRO           CS       GDESELCT                              #  DE-SELECT LAST GYRO.
000486: 07,3400           00006                           EXTEND
000487: 07,3401           03014                           WAND     CHAN14
000488:
000489: 07,3402           03633                           TC       CAGETEST
000490:
000491: 07,3403           31311        STRTGYR2           CA       LGYRO                                 #  JUMP ON PHASE COUNTER IN BITS 13-14.
000492: 07,3404           00006                           EXTEND
000493: 07,3405           74750                           MP       BIT4
000494: 07,3406           50000                           INDEX    A
000495: 07,3407           13410                           TCF      +1
000496: 07,3410           03425                           TC       GSELECT                               #  =0.  DO Y GYRO.
000497: 07,3411           00202                           OCT      00202
000498:
000499: 07,3412           03425                           TC       GSELECT                               #  =1.  DO Z GYRO.
000500: 07,3413           00302                           OCT      00302
000501:
000502: 07,3414           03423                           TC       GSELECT    -2                         #  =2.  DO X GYRO.
000503: 07,3415           00100                           OCT      00100
000504:
000505: 07,3416           34755                           CAF      ZERO                                  #  =3.  DONE
000506: 07,3417           55311                           TS       LGYRO
000507: 07,3420           33376                           CAF      LGWAKE                                #  WAKE A POSSIBLE SLEEPING JOB.
000508: 07,3421           05137                           TC       JOBWAKE
000509:
000510: 07,3422           13224        NORESET            TCF      IMUFINED                              #  DO NOT RESET POWER SUPPLY


000512: 07,3423           44751                 -2        CS       FOUR                                  #  SPECIAL ENTRY TO REGRESS LGYRO FOR X.
000513: 07,3424           27311                           ADS      LGYRO
000514:
000515: 07,3425           50002        GSELECT            INDEX    Q                                     #  SELECT GYRO.
000516: 07,3426           30000                           CAF      0                                     #  PACKED WORD CONTAINS GYRO SELECT BITS
000517: 07,3427           54064                           TS       ITEMP4                                #  AND INCREMENT TO LGYRO.
000518: 07,3430           74757                           MASK     SEVEN
000519: 07,3431           64737                           AD       BIT13
000520: 07,3432           27311                           ADS      LGYRO
000521: 07,3433           54003                           TS       EBANK
000522: 07,3434           74357                           MASK     LOW8
000523: 07,3435           54061                           TS       ITEMP1
000524:
000525: 07,3436           44757                           CS       SEVEN
000526: 07,3437           70064                           MASK     ITEMP4
000527: 07,3440           54064                           TS       ITEMP4
000528:
000529: 07,3441           00006                           EXTEND                                         #  MOVE DP COMMAND TO RUPTREGS FOR TESTING.
000530: 07,3442           50061                           INDEX    ITEMP1
000531: 07,3443           31401                           DCA      1400
000532: 07,3444           52071                           DXCH     RUPTREG1
000533:
000534: 07,3445           10070                           CCS      RUPTREG1
000535: 07,3446           13461                           TCF      MAJ+
000536: 07,3447           13451                           TCF      +2
000537: 07,3450           13601                           TCF      MAJ-
000538:
000539: 07,3451           10071                           CCS      RUPTREG2
000540: 07,3452           13456                           TCF      MIN+
000541: 07,3453           13403                           TCF      STRTGYR2
000542: 07,3454           13576                           TCF      MIN-
000543: 07,3455           13403                           TCF      STRTGYR2
000544:


000546: 07,3456           63512        MIN+               AD       -GYROMIN                              #  SMALL POSITIVE COMMAND.  SEE IF AT LEAST
000547: 07,3457           00006                           EXTEND                                         #  16 GYRO PULSES.
000548: 07,3460           63403                           BZMF     STRTGYR2
000549:
000550: 07,3461           00006        MAJ+               EXTEND                                         #  DEFINITE POSITIVE OUTPUT.
000551: 07,3462           33622                           DCA      GYROFRAC
000552: 07,3463           20071                           DAS      RUPTREG1
000553:
000554: 07,3464           30064                           CA       ITEMP4                                #  SELECT POSITIVE TORQUING FOR THIS GYRO.
000555: 07,3465           00006                           EXTEND
000556: 07,3466           05014                           WOR      CHAN14
000557:
000558: 07,3467           36077                           CAF      LOW7                                  #  LEAVE NUMBER OF POSSIBLE 8192 AUGMENTS
000559: 07,3470           70071                           MASK     RUPTREG2                              #  TO INITIAL COMMAND IN MAJOR PART OF LONG
000560: 07,3471           56071                           XCH      RUPTREG2                              #  TERM STORAGE AND TRUNCATED FRACTION
000561: 07,3472           00006        GMERGE             EXTEND                                         #  IN MINOR PART. THE MAJOR PART WILL BE
000562: 07,3473           74744                           MP       BIT8                                  #  COUNTED DOWN TO ZERO IN THE COURSE OF
000563: 07,3474           54062                           TS       ITEMP2                                #  PUTTING OUT THE ENTIRE COMMAND.
000564: 07,3475           30070                           CA       RUPTREG1
000565: 07,3476           00006                           EXTEND
000566: 07,3477           74743                           MP       BIT9
000567: 07,3500           54070                           TS       RUPTREG1
000568: 07,3501           30001                           CA       L
000569: 07,3502           00006                           EXTEND
000570: 07,3503           74736                           MP       BIT14
000571: 07,3504           26062                           ADS      ITEMP2                                #  INITIAL COMMAND.
000572:
000573: 07,3505           00006                           EXTEND                                         #  SEE IF MORE THAN ONE PULSE TRAIN NEEDED
000574: 07,3506           30071                           DCA      RUPTREG1                              #  (MORE THAN 16383 PULSES).
000575: 07,3507           67752                           AD       MINUS1
000576: 07,3510           10000                           CCS      A
000577: 07,3511           13535                           TCF      LONGGYRO
000578: 07,3512           77601        -GYROMIN           OCT      -176                                  #  MAY BE ADJUSTED TO SPECIFY MINIMUM CMD
000579: 07,3513           13517                           TCF      +4
000580:
000581: 07,3514           34736                           CAF      BIT14
000582: 07,3515           26062                           ADS      ITEMP2
000583: 07,3516           34755                           CAF      ZERO
000584:
000585: 07,3517           50061                 +4        INDEX    ITEMP1
000586: 07,3520           53401                           DXCH     1400


000588: 07,3521           30062                           CA       ITEMP2                                #  ENTIRE COMMAND.
000589: 07,3522           54047        LASTSEG            TS       GYROCMD
000590: 07,3523           00006                           EXTEND
000591: 07,3524           74742                           MP       BIT10                                 #  WAITLIST DT
000592: 07,3525           66250                           AD       THREE                                 #  TRUNCATION AND PHASE UNCERTAINTIES.
000593: 07,3526           05203                           TC       WAITLIST
000594: 07,3527  E3,1474                                  EBANK=   CDUIND
000595: 07,3527           03377 16103                     2CADR    STRTGYRO
000596:
000597: 07,3531           34742        GYROEXIT           CAF      BIT10
000598: 07,3532           00006                           EXTEND
000599: 07,3533           05014                           WOR      CHAN14
000600: 07,3534           15261                           TCF      TASKOVER
000601:
000602: 07,3535           50061        LONGGYRO           INDEX    ITEMP1
000603: 07,3536           53401                           DXCH     1400                                  #  INITIAL COMMAND OUT PLUS N AUGMENTS OF
000604: 07,3537           34736                           CAF      BIT14                                 #  8192. INITIAL COMMAND IS AT LEAST 8192.
000605: 07,3540           60062                           AD       ITEMP2
000606: 07,3541           54047                           TS       GYROCMD
000607:
000608: 07,3542           00006        AUG3               EXTEND                                         #  GET WAITLIST DT TO TIME WHEN TRAIN IS
000609: 07,3543           74742                           MP       BIT10                                 #  ALMOST OUT.
000610: 07,3544           67750                           AD       NEG3
000611: 07,3545           05203                           TC       WAITLIST
000612: 07,3546  E3,1474                                  EBANK=   CDUIND
000613: 07,3546           03551 16103                     2CADR    8192AUG
000614:
000615: 07,3550           13531                           TCF      GYROEXIT
000616:
000617: 07,3551           03633        8192AUG            TC       CAGETEST
000618:
000619: 07,3552           34750                           CAF      BIT4
000620: 07,3553           00006                           EXTEND
000621: 07,3554           02012                           RAND     CHAN12
000622: 07,3555           10000                           CCS      A
000623: 07,3556           13631                           TCF      IMUBAD
000624: 07,3557           31311                           CA       LGYRO                                 #  ADD 8192 PULSES TO GYROCMD
000625: 07,3560           54003                           TS       EBANK
000626: 07,3561           74357                           MASK     LOW8
000627: 07,3562           54061                           TS       ITEMP1
000628:
000629: 07,3563           50061                           INDEX    ITEMP1                                #  SEE IF THIS IS THE LAST AUG.
000630: 07,3564           11400                           CCS      1400
000631: 07,3565           13571                           TCF      AUG2                                  #  MORE TO COME.
000632:
000633: 07,3566           34736                           CAF      BIT14
000634: 07,3567           26047                           ADS      GYROCMD
000635: 07,3570           13523                           TCF      LASTSEG    +1
000636:


000638: 07,3571           50061        AUG2               INDEX    ITEMP1
000639: 07,3572           55400                           TS       1400
000640: 07,3573           34736                           CAF      BIT14
000641: 07,3574           26047                           ADS      GYROCMD
000642: 07,3575           13542                           TCF      AUG3                                  #  COMPUTE DT.
000643:


000645: 07,3576           63512        MIN-               AD       -GYROMIN                              #  POSSIBLE NEGATIVE OUTPUT.
000646: 07,3577           00006                           EXTEND
000647: 07,3600           63403                           BZMF     STRTGYR2
000648:
000649: 07,3601           00006        MAJ-               EXTEND                                         #  DEFINITE NEGATIVE OUTPUT.
000650: 07,3602           43622                           DCS      GYROFRAC
000651: 07,3603           20071                           DAS      RUPTREG1
000652:
000653: 07,3604           30064                           CA       ITEMP4                                #  SELECT NEGATIVE TORQUING FOR THIS GYRO.
000654: 07,3605           64743                           AD       BIT9
000655: 07,3606           00006                           EXTEND
000656: 07,3607           05014                           WOR      CHAN14
000657:
000658: 07,3610           40070                           CS       RUPTREG1                              #  SET UP RUPTREGS TO FALL INTO GMERGE.
000659: 07,3611           54070                           TS       RUPTREG1                              #  ALL NUMBERS PUT INTO GYROCMD ARE
000660: 07,3612           40071                           CS       RUPTREG2                              #  POSITIVE - BIT9 OF CHAN 14 DETERMINES
000661: 07,3613           76077                           MASK     LOW7                                  #  THE SIGN OF THE COMMAND.
000662: 07,3614           40000                           COM
000663: 07,3615           56071                           XCH      RUPTREG2
000664: 07,3616           40000                           COM
000665: 07,3617           13472                           TCF      GMERGE
000666:
000667: 07,3620           01700        GDESELCT           OCT      1700                                  #  TURN OFF SELECT AND ACTIVITY BITS.
000668:
000669: 07,3621           00000 00034  GYROFRAC           2DEC     .215       B-21
000670:


000672:                                                                                                  #  IMU MODE SWITCHING ROUTINES COME HERE WHEN ACTION COMPLETE.
000673:
000674: 07,3623           00006        ENDIMU             EXTEND                                         #  MODE IS BAD IF CAGE HAS OCCURED OR IF
000675: 07,3624           00011                           READ     DSALMOUT                              #  ISS WARNING IS ON.
000676: 07,3625           74753                           MASK     BIT1
000677: 07,3626           10000                           CCS      A
000678: 07,3627           13631                           TCF      IMUBAD
000679:
000680: 07,3630           13657        IMUGOOD            TCF      GOODEND                               #  WITH C(A) = 0.
000681:
000682: 07,3631           34755        IMUBAD             CAF      ZERO
000683: 07,3632           13654                           TCF      BADEND
000684:
000685: 07,3633           34746        CAGETEST           CAF      BIT6                                  #  SUBROUTINE TO TERMINATE IMU MODE
000686: 07,3634           71277                           MASK     IMODES30                              #  SWITCH IF IMU HAS BEEN CAGED.
000687: 07,3635           10000                           CCS      A
000688: 07,3636           13631                           TCF      IMUBAD                                #  DIRECTLY.
000689: 07,3637           00002                           TC       Q                                     #  WITH C(A) = +0.
000690:
000691: 07,3640           41277        CAGETSTQ           CS       IMODES30                              #  SKIP IF IMU NOT BEING CAGED.
000692: 07,3641           74746                           MASK     BIT6
000693: 07,3642           10000                           CCS      A
000694: 07,3643           24002                           INCR     Q
000695: 07,3644           00002                           TC       Q
000696:
000697: 07,3645           41277        CAGETSTJ           CS       IMODES30                              #  IF DURING MODE SWITCH INITIALIZATION
000698: 07,3646           74746                           MASK     BIT6                                  #  IT IS FOUND THAT THE IMU IS BEING CAGED,
000699: 07,3647           10000                           CCS      A                                     #  SET IMUCADR TO -0 TO INDICATE OPERATION
000700: 07,3650           00002                           TC       Q                                     #  COMPLETE BUT FAILED.  RETURN IMMEDIATELY
000701:
000702: 07,3651           44755                           CS       ZERO                                  #  TO SWRETURN.
000703: 07,3652           55301                           TS       IMUCADR
000704: 07,3653           12747                           TCF      MODEEXIT
000705:


000707:                                                                                                  #           GENERALIZED MODE SWITCHING TERMINATION. ENTER AT GOODEND FOR SUCCESSFUL COMPLETION OF AN I/O OPERATION
000708:                                                                                                  #  OR AT BADEND FOR AN UNSUCCESSFUL ONE. C(A) OR ARRIVAL =0 FOR IMU, 1 FOR OPTICS.
000709:
000710: 07,3654           54071        BADEND             TS       RUPTREG2                              #  DEVICE INDEX.
000711: 07,3655           44755                           CS       ZERO                                  #  FOR FAILURE.
000712: 07,3656           13661                           TCF      GOODEND    +2
000713:
000714: 07,3657           54071        GOODEND            TS       RUPTREG2
000715: 07,3660           44753                           CS       ONE                                   #  FOR SUCCESS.
000716:
000717: 07,3661           54072                           TS       RUPTREG3
000718: 07,3662           50071                           INDEX    RUPTREG2                              #  SEE IF USING PROGRAM ASLEEP.
000719: 07,3663           11301                           CCS      MODECADR
000720: 07,3664           13670                           TCF      +4                                    #  YES - WAKE IT UP.
000721: 07,3665           13700                           TCF      ENDMODE                               #  IF 0, PROGRAM NOT IN YET.
000722:
000723: 07,3666           00006                           EXTEND
000724: 07,3667           13701                           BZF      ENDMODE    +1                         #  BZF = TCF IF MODECADR = -0.
000725:
000726: 07,3670           34755                           CAF      ZERO                                  #  WAKE SLEEPING PROGRAM.
000727: 07,3671           50071                           INDEX    RUPTREG2
000728: 07,3672           57301                           XCH      MODECADR
000729: 07,3673           05137                           TC       JOBWAKE
000730:
000731: 07,3674           40072                           CS       RUPTREG3                              #  ADVANCE LOC IF SUCCESSFUL.
000732: 07,3675           50064                           INDEX    LOCCTR
000733: 07,3676           26164                           ADS      LOC
000734:
000735: 07,3677           15261                           TCF      TASKOVER
000736:
000737: 07,3700           30072        ENDMODE            CA       RUPTREG3                              #  -0 INDICATES OPERATION COMPLETE BUT
000738: 07,3701           50071                 +1        INDEX    RUPTREG2                              #  UNSUCCESSFUL: -1 INDICATES COMPLETE AND
000739: 07,3702           55301                           TS       MODECADR                              #  SUCCESSFUL.
000740: 07,3703           15261                           TCF      TASKOVER
000741:


000743:                                                                                                  #           GENERAL STALLING ROUTINE.  USING PROGRAMS COME HERE TO WAIT FOR I/O COMPLETION.
000744:
000745:                                                                                                  #  PROGRAM DESCRIPTION                                     DATE - 21 FEB 1967
000746:                                                                                                  #                                              LOG SECTION IMU MODE SWITCHING
000747:                                                                                                  #  MOD BY- R.MELANSON TO ADD DOCUMENTATION         ASSEMBLY SUNDISK  REV.  82
000748:
000749:                                                                                                  #  FUNCTIONAL DESCRIPTION-
000750:                                                                                                  #    TO DELAY FURTHER EXECUTION OF THE CALLING ROUTINE UNTIL ITS SELECTED
000751:                                                                                                  #    I/O FUNCTION IS COMPLETE.THE FOLLOWING CHECKS ON THE CALLING ROUTINE:S
000752:                                                                                                  #    MODECADR ARE MADE AND ACTED UPON.
000753:                                                                                                  #      1) +0 INDICATES INCOMPLETE I/O OPERATION.CALLING ROUTINE IS PUT TO
000754:                                                                                                  #         SLEEP.
000755:                                                                                                  #      2) -1 INDICATES COMPLETED I/O OPERATION. STALL BYPASSES JOBSLEEP
000756:                                                                                                  #         CALL AND RETURNS TO CALLING ROUTINE AT L+3
000757:                                                                                                  #      3) -0 INDICATES COMPLETED I/O WITH FAILURE. STALL CLEARS MODECADR
000758:                                                                                                  #         AND RETURNS TO CALLING ROUTINE AT L+2.
000759:                                                                                                  #      4) VALUE GREATER THAN 0 INDICATES TWO ROUTINES CALLING FOR USE OF
000760:                                                                                                  #         SAME DEVICE. STALL EXITS TO ABORT WHICH EXECUTES A PROGRAM
000761:                                                                                                  #         RESTART WHICH IN TURN CLEARS ALL MODECADR REGISTERS.
000762:
000763:                                                                                                  #   CALLING SEQUENCE-
000764:                                                                                                  #    L   TC   BANKCALL
000765:                                                                                                  #    L+1 CADR (ONE OF 5 STALL ADDRESSES I.E. IMUSTALL,OPTSTALL,RADSTALL,
000766:                                                                                                  #             AOTSTALL,OR ATTSTALL)
000767:
000768:                                                                                                  #   NORMAL-EXIT MODE-
000769:                                                                                                  #    TCF   JOBSLEEP OR TCF  MODEXIT
000770:
000771:                                                                                                  #  ALARM OR ABORT EXIT MODE-
000772:                                                                                                  #    TC    ABORT
000773:
000774:                                                                                                  #  OUTPUT-
000775:                                                                                                  #    MODECADR=CADR  IF JOBSLEEP
000776:                                                                                                  #    MODECADR=+0    IF I/O COMPLETE
000777:                                                                                                  #    BUF2=L+3       IF I/O COMPLETE AND GOOD.
000778:                                                                                                  #    BUF2=L+2 IF I/O COMPLETE BUT FAILED.
000779:
000780:                                                                                                  #  ERASABLE INITIALIZATION-
000781:                                                                                                  #    BUF2 CONTAINS RETURN ADDRESS PLUS 1,(L+2)
000782:                                                                                                  #    BUF2+1 CONTAINS FBANK VALUE OF CALLING ROUTINE.
000783:                                                                                                  #    MODECADR OF CALLING ROUTINE CONTAINS +0,-1,-0 OR CADR RETURN ADDRESS.
000784:
000785:                                                                                                  #  DEBRIS-
000786:                                                                                                  #    RUPTREG2 AND CALLING ROUTINE MODECADR.
000787:


000789: 07,3704  30,2000                                  SBANK=   LOWSUPER
000790:
000791: 07,3704           34753        AOTSTALL           CAF      ONE                                   #  AOT.
000792: 07,3705           03711                           TC       STALL
000793:
000794: 07,3706           34752        RADSTALL           CAF      TWO
000795: 07,3707           13711                           TCF      STALL
000796:


000798: 07,3710  07,3704               OPTSTALL           EQUALS   AOTSTALL
000799:
000800: 07,3710           34755        IMUSTALL           CAF      ZERO                                  #  IMU.
000801:
000802: 07,3711           00004        STALL              INHINT
000803: 07,3712           54071                           TS       RUPTREG2                              #  SAVE DEVICE INDEX.
000804: 07,3713           50000                           INDEX    A                                     #  SEE IF OPERATION COMPLETE.
000805: 07,3714           11301                           CCS      MODECADR
000806: 07,3715           13733                           TCF      MODABORT                              #  ALLOWABLE STATES ARE +0, -1, AND -0.
000807: 07,3716           13727                           TCF      MODESLP                               #  OPERATION INCOMPLETE.
000808: 07,3717           13723                           TCF      MODEGOOD                              #  COMPLETE AND GOOD IF = -1.
000809:
000810: 07,3720           50071        MG2                INDEX    RUPTREG2                              #  COMPLETE AND FAILED IF -0. RESET TO +0.
000811: 07,3721           55301                           TS       MODECADR                              #  RETURN TO CALLER.
000812: 07,3722           12747                           TCF      MODEEXIT
000813:
000814: 07,3723           10000        MODEGOOD           CCS      A                                     #  MAKE SURE INITIAL STATE -1.
000815: 07,3724           13733                           TCF      MODABORT
000816:
000817: 07,3725           24133                           INCR     BUF2                                  #  IF SO, INCREMENT RETURN ADDRESS AND
000818: 07,3726           13720                           TCF      MG2                                   #  RETURN IMMEDIATELY, SETTING CADR = +0.
000819:
000820: 07,3727           04645        MODESLP            TC       MAKECADR                              #  CALL FROM SWITCHABLE FIXED ONLY.
000821: 07,3730           50071                           INDEX    RUPTREG2
000822: 07,3731           55301                           TS       MODECADR
000823: 07,3732           15133                           TCF      JOBSLEEP
000824:
000825: 07,3733           52134        MODABORT           DXCH     BUF2
000826: 07,3734           05706                           TC       BAILOUT1                              #  TWO PROGRAMS USING THE SAME DEVICE.
000827: 07,3735           31210                           OCT      31210
000828:


000830:                                                                                                  #  CONSTANTS FOR MODE SWITCHING ROUTINES
000831:
000832: 07,3736     5741               BITS3&4            =        OCT14
000833: 07,3736     4771               BITS4&6            =        OCT50
000834: 07,3736           00030        BITS4-5            OCT      00030
000835: 07,3737     4744               IMUSEFLG           EQUALS   BIT8                                  #  INTERPRETER SWITCH 7.
000836: 07,3737           77500        -COMMAX            DEC      -191       B-14
000837: 07,3740           77477        -COMMAX-           DEC      -192       B-14
000838: 07,3741           00074        600MS              DEC      60         B-14
000839: 07,3742  07,3202               IMUFIN20           =        IMUFINE
000840: 07,3742           31304        GOMANUR            CA       ATTCADR                               #  IS KALCMANU FREE
000841: 07,3743           00006                           EXTEND
000842: 07,3744           13746                           BZF      +2
000843: 07,3745           03733                           TC       MODABORT
000844: 07,3746           00006                 +2        EXTEND
000845: 07,3747           30134                           DCA      BUF2
000846: 07,3750           53305                           DXCH     ATTCADR                               #  SAVE FINAL RETURN FOR KALCMAN3
000847:
000848: 07,3751           30006                           CA       BBANK
000849: 07,3752           74757                           MASK     SEVEN
000850: 07,3753           27305                           ADS      ATTCADR    +1
000851:
000852: 07,3754           30167                           CA       PRIORITY
000853: 07,3755           77730                           MASK     PRIO37
000854: 07,3756           55306                           TS       ATTPRIO                               #  SAVE USERS PRIO
000855:
000856: 07,3757           33763                           CAF      KALEBCON                              #  SET EBANK FOR KALCMAN3
000857: 07,3760           54003                           TS       EBANK
000858: 07,3761           04635                           TC       POSTJUMP
000859: 07,3762           44004                           CADR     KALCMAN3
000860: 07,3763           03276        KALEBCON           ECADR    BCDU
000861:


000863:                                                                                                  #  PROGRAM DESCRIPTION
000864:                                                                                                  #  IMU STATUS CHECK ROUTINE R02 (SUBROUTINE UTILITY)
000865:                                                                                                  #  MOD NO - 1
000866:                                                                                                  #  MOD BY - N.BRODEUR
000867:                                                                                                  #  FUNCTIONAL DESCRIPTION
000868:
000869:                                                                                                  #  TO CHECK WHETHER IMU IS ON AND IF ON WHETHER IT IS ALIGNED TO AN
000870:                                                                                                  #  ORIENTATION KNOWN BY THE CMC. TO REQUEST SELECTION OF THE APPROPRIATE
000871:                                                                                                  #  PROGRAM IF THE IMU IS OFF OR NOT ALIGNED TO AN ORIENTATION KNOWN BY THE
000872:                                                                                                  #  CMC. CALLED THROUGH BANKCALL
000873:                                                                                                  #  CALLING SEQUENCE-
000874:
000875:                                                                                                  #  L        TC     BANKCALL
000876:                                                                                                  #  L+1      CADR   R02BOTH
000877:                                                                                                  #  SUBROUTINES CALLED
000878:
000879:                                                                                                  #        VARALARM
000880:                                                                                                  #        FLAGUP
000881:                                                                                                  #  NORMAL EXIT MODES
000882:
000883:                                                                                                  #  AT L+2 OF CALLING SEQUENCE
000884:                                                                                                  #  ALARM OR ABORT EXIT MODES
000885:                                                                                                  #        GOTOPOOH, WITH ALARM
000886:                                                                                                  #  ERASABLE INITIALIZATION REQUIRED
000887:
000888:                                                                                                  #  NONE
000889:
000890:                                                                                                  #  DEBRIS
000891:                                                                                                  #  CENTRALS-A,Q,L
000892:
000893: 34,3650                                           BANK     34
000894: 04,2000                                           SETLOC   R02
000895: 04,2000                                           BANK
000896: 04,3235                                           COUNT*   $$/R02
000897: 04,3235           00063        DEC51              DEC      51         B-14
000898: 04,3236           34737        R02BOTH            CAF      REFSMBIT
000899: 04,3237           70077                           MASK     FLAGWRD3
000900: 04,3240           10000                           CCS      A
000901: 04,3241           03252                           TC       R02ZERO                               #  ZERO IMUS
000902:
000903: 04,3242           31277                           CA       IMODES30
000904: 04,3243           74743                           MASK     BIT9                                  #  IS ISS INITIALIZED
000905: 04,3244           00006                           EXTEND
000906: 04,3245           13247                           BZF      +2
000907: 04,3246           44750                           CS       BIT4                                  #  SEND IMU ALARM CODE 210
000908: 04,3247           63255                           AD       OCT220                                #  SEND REFSMM ALARM
000909: 04,3250           05734                           TC       VARALARM
000910:
000911: 04,3251           06001                           TC       GOTOPOOH
000912:
000913: 04,3252           05504        R02ZERO            TC       UPFLAG


000915: 04,3253           00007                           ADRES    IMUSE
000916: 04,3254           14631                           TCF      SWRETURN
000917: 04,3255           00220        OCT220             OCT      220
000918:


000920:                                                                                                  #  PROGRAM DESCRIPTION   P06   10 FEB 67
000921:
000922:                                                                                                  #  TRANSFER THE ISS/CMC FROM THE OPERATE TO THE STANDBY CONDITION.
000923:
000924:                                                                                                  #  THE NORMAL CONDITION OF READINESS OF THE GNCS WHEN NOT IN USE IS STANDBY. IN THIS CONDITION THE IMU
000925:                                                                                                  #  HEATER POWER IS ON. THE IMU OPERATE POWER IS OFF. THE COMPUTER POWER IS ON. THE OPTICS POWER IS OFF.  THE
000926:                                                                                                  #  CMC  STANDBY ON THE MAIN AND LEB DISKYS IS ON.
000927:
000928:                                                                                                  #  CALLING SEQUENCE:
000929:                                                                                                  #            ASTRONAUT REQUEST THROUGH DSKY  V37E 06E.
000930:
000931:                                                                                                  #  SUBROUTINES CALLED:
000932:                                                                                                  #           GOPERF1
000933:                                                                                                  #           BANKCALL
000934:                                                                                                  #           FLAGDOWN
000935:


000937:                                                                                                  #  PRESTAND PREPARES FOR STANDBY BY SNAPSHOTTING THE SCALER AND TIME1 TIME2
000938:                                                                                                  #  THE LOW 5 BITS OF THE SCALER ARE INSPECTED TO INSURE COMPATABILITY
000939:                                                                                                  #  BETWEEN THE SCALER READING AND THE TIME1 TIME2 READING.
000940:
000941: 37,2000                                           SETLOC   P05P06
000942: 37,2000                                           BANK
000943:
000944: 37,3652     0314                                  EBANK=   TIME2SAV
000945: 37,3652                                           COUNT*   $$/P06
000946:
000947: 37,3652           05504        P06                TC       UPFLAG                                #  SET NODOV37 BIT
000948: 37,3653           00054                           ADRES    NODOFLAG
000949:
000950: 37,3654           00004        PRESTAND           INHINT
000951: 37,3655           00006                           EXTEND
000952: 37,3656           30025                           DCA      TIME2                                 #  SNAPSHOT TIME1 TIME2
000953: 37,3657           52315                           DXCH     TIME2SAV
000954: 37,3660           03711                           TC       SCALPREP
000955: 37,3661           03654                           TC       PRESTAND                              #  T1,T2,SCALER NOT COMPATIBLE
000956: 37,3662           52155                           DXCH     MPAC                                  #  T1,T2 AND SCALER OK
000957: 37,3663           52317                           DXCH     SCALSAVE                              #  STORE SCALER
000958: 37,3664           00004                           INHINT
000959: 37,3665           04616                           TC       BANKCALL
000960: 37,3666           17167                           CADR     RNDREFDR                              #  REFSMM, DRIFT, TRACK FLAGS DOWN
000961:
000962: 37,3667           05516                           TC       DOWNFLAG
000963: 37,3670           00007                           ADRES    IMUSE                                 #  IMUSE DOWN
000964: 37,3671           05516                           TC       DOWNFLAG
000965: 37,3672           00010                           ADRES    RNDVZFLG                              #  RNDVZFLG DOWN
000966:
000967: 37,3673           34741                           CAF      BIT11
000968: 37,3674           00006                           EXTEND
000969: 37,3675           05013                           WOR      CHAN13                                #  SET STANDBY ENABLE BIT
000970:
000971: 37,3676           05353                           TC       PHASCHNG                              #  SET RESTART TO POSTAND WHEN STANDBY
000972: 37,3677           07024                           OCT      07024                                 #    RECOVERS
000973: 37,3700           20000                           OCT      20000
000974: 37,3701     0316                                  EBANK=   SCALSAVE
000975: 37,3701           03731 76060                     2CADR    POSTAND
000976:
000977: 37,3703           34774                           CAF      OCT62
000978: 37,3704           04616                           TC       BANKCALL
000979: 37,3705           20624                           CADR     GOPERF1
000980: 37,3706           13703                           TCF      -3
000981: 37,3707           13703                           TCF      -4
000982: 37,3710           13703                           TCF      -5
000983:
000984: 37,3711     4774               OCT62              EQUALS   .5SEC                                 #  DEC 50 = OCT 62
000985:
000986:                                                                                                  #  THE LOW 5 BITS OF THE SCALER READS 10000 FOR THE FIRST INTERVAL AFTER A


000988:                                                                                                  #  T1 INCREMENT. IF SCALPREP DETECTS THIS INTERVAL THE T1,T2 AND SCALER
000989:                                                                                                  #  DATA ARE NOT COMPATABLE AND RETURN IS TO L+1 FOR ANOTHER READING OF THE
000990:                                                                                                  #  DATA. OTHERWISE, THE RETURN IS TO L+2 TO PROCEED. ROUTINE ALSO PREPARES
000991:                                                                                                  #  THE SCALER READING FOR COMPUTATION OF THE INCREMENT TO UPDATE T1T2. (THE
000992:                                                                                                  #  10 MS BIT (BIT 6) OF THE SCALER IS INCREMENTED 5 MS OUT OF PHASE FROM
000993:                                                                                                  #  T1.) ADDITION OF 5 MS (BIT 5) TO THE SCALER READING HAS THE EFFECT OF
000994:                                                                                                  #  ADJUSTING BIT 6 IN THE SCALER TO BE IN PHASE WITH BIT 1 OF T1. THE LOW 5
000995:                                                                                                  #  BITS OF THE SCALER READING ARE THEN SET TO ZERO, TO TRUNCATE THE SCALER
000996:                                                                                                  #  DATA TO 10 MS. RESULTS ARE STORED IN MPAC, +1.
000997:
000998: 37,3711           00006        SCALPREP           EXTEND
000999: 37,3712           22156                           QXCH     MPAC       +2
001000: 37,3713           04103                           TC       FINETIME   +1
001001: 37,3714           00003                           RELINT
001002: 37,3715           52155                           DXCH     MPAC
001003: 37,3716           34747                           CA       BIT5                                  #  ADD 5 MS TO THE SCALER READING.
001004: 37,3717           54001                           TS       L
001005: 37,3720           34755                           CA       ZERO
001006: 37,3721           20155                           DAS      MPAC
001007: 37,3722           44346                           CS       LOW5                                  #  SET LOW 5 BITS OF (SCALER+5MS) TO ZERO
001008: 37,3723           70155                           MASK     MPAC       +1                         #  AND STORE RESULTS IN MPAC,+1.
001009: 37,3724           56155                           XCH      MPAC       +1
001010: 37,3725           74346                           MASK     LOW5                                  #  TEST LOW 5 BITS OF SCALER FOR THE FIRST
001011:                                                                                                  #  INTERVAL AFTER THE T1 INCREMENT
001012:                                                                                                  #  (NOW = 00000, SINCE BIT 5 ADDED).
001013: 37,3726           10000                           CCS      A                                     #  IS IT 1ST INTERVAL AFTER T1 INCREMENT
001014: 37,3727           24156                           INCR     MPAC       +2                         #  NO
001015: 37,3730           00156                           TC       MPAC       +2                         #  YES
001016:
001017:                                                                                                  #  POSTAND RECOVERS TIME AFTER STANDBY.THE SCALER IS SNAPSHOTTED AND THE
001018:                                                                                                  #  TIME1 TIME2 COUNTER IS SET TO ZERO. THE LOW 5 BITS OF THE SCALER ARE
001019:                                                                                                  #  INSPECTED TO INSURE COMPATABILITY BETWEEN THE SCALER READING AND THE
001020:                                                                                                  #  CLEARING OF THE TIME COUNTER. IT THEN COMPUTES THE DIFFERENCE IN SCALER
001021:                                                                                                  #  VALUES (IN DP) AND ADDS THIS TO THE PREVIOUSLY SNAPSHOTTED VALUES OF
001022:                                                                                                  #  TIME1 TIME2 AND PLACES THIS NEW TIME INTO THE TIME1 TIME2 COUNTER.
001023:
001024: 37,3731                                           COUNT*   $$/P05
001025:
001026: 37,3731           44741        POSTAND            CS       BIT11                                 #  RECOVER TIME AFTER STANDBY.
001027: 37,3732           00006                           EXTEND
001028: 37,3733           03013                           WAND     CHAN13                                #  CLEAR STANDBY ENABLE BIT
001029: 37,3734           00004                           INHINT
001030: 37,3735           34755                           CA       ZERO
001031: 37,3736           54001                           TS       L
001032: 37,3737           52025                           DXCH     TIME2                                 #  CLEAR TIME1TIME2
001033: 37,3740           03711                           TC       SCALPREP                              #  STORE SCALER IN MPAC, MPAC+1
001034: 37,3741           03734                           TC       POSTAND    +3                         #  T1,T2,SCALER NOT COMPATIBLE
001035: 37,3742           00006                           EXTEND                                         #  T1,T2 AND SCALER OK
001036: 37,3743           40317                           DCS      SCALSAVE
001037: 37,3744           20155                           DAS      MPAC                                  #  FORM DP DIFFERENCE OF POSTSTANDBY SCALER


001039: 37,3745           34742                           CAF      BIT10                                 #  MINUS PRESTANDBY SCALER AND SHIFT RIGHT
001040: 37,3746           07312                           TC       SHORTMP                               #  5 TO ALIGN BITS WITH TIME1 TIME2.
001041: 37,3747           34755                           CAF      ZERO
001042: 37,3750           54156                           TS       MPAC       +2                         #  NEEDED FOR TP AGREE
001043: 37,3751           07262                           TC       TPAGREE                               #  MAKE DP DIFF AGREE
001044: 37,3752           10154                           CCS      MPAC
001045: 37,3753           03760                           TC       POSTCOM                               #  IF DP DIFF NET +, NO SCALER OVERFLOW
001046: 37,3754           03760                           TC       POSTCOM                               #  BETWEEN PRE AND POST STANDBY.
001047: 37,3755           03756                           TC       +1                                    #  IF DP DIFF NET -, SCALER OVERFLOWED.  ADD
001048: 37,3756           34742                           CAF      BIT10                                 #  BIT 10 TO HIGH DIFF TO CORRECT.
001049: 37,3757           26154                           ADS      MPAC
001050: 37,3760           00006        POSTCOM            EXTEND                                         #  C(MPAC,+1) IS MAGNITUDE OF DELTA SCALER.
001051: 37,3761           30315                           DCA      TIME2SAV                              #  PRESTANDBY TIME1TIME2
001052: 37,3762           20155                           DAS      MPAC
001053: 37,3763           07262                           TC       TPAGREE                               #  FORCE SIGN AGREEMENT
001054: 37,3764           52155                           DXCH     MPAC                                  #  UPDATED VALUE FOR T1,T2.
001055: 37,3765           20025                           DAS      TIME2                                 #  LOAD UPDATED VALUE INTO T1,T2, WITH
001056: 37,3766           05516                           TC       DOWNFLAG                              #  CLEAR NODOFLAG
001057: 37,3767           00054                           ADRES    NODOFLAG
001058:
001059: 37,3770           06001                           TC       GOTOPOOH
001060:

End of include-file IMU_MODE_SWITCHING_ROUTINES.agc.  Parent file is MAIN.agc


