
Source Code


000002:                                                                                                  ## Copyright:   Public domain.
000003:                                                                                                  ## Filename:    INTER-BANK_COMMUNICATION.agc
000004:                                                                                                  ## Purpose:     A section of Luminary revision 116.
000005:                                                                                                  ##              It is part of the source code for the Lunar Module's (LM)
000006:                                                                                                  ##              Apollo Guidance Computer (AGC) for Apollo 12.
000007:                                                                                                  ##              This file is intended to be a faithful transcription, except
000008:                                                                                                  ##              that the code format has been changed to conform to the
000009:                                                                                                  ##              requirements of the yaYUL assembler rather than the
000010:                                                                                                  ##              original YUL assembler.
000011:                                                                                                  ## Reference:   pp. 990-993
000012:                                                                                                  ## Assembler:   yaYUL
000013:                                                                                                  ## Contact:     Ron Burkey <info@sandroid.org>.
000014:                                                                                                  ## Website:     www.ibiblio.org/apollo/index.html
000015:                                                                                                  ## Mod history: 2017-01-22 MAS  Created from Luminary 99.
000016:                                                                                                  ##              2017-01-30 RRB  Updated for Luminary 116.
000017:                                                                                                  ##              2017-03-13 RSB  Proofed comment text via 3-way diff vs
000018:                                                                                                  ##                              Luminary 99 and 131.
000019:                                                                                                  ##              2017-03-17 RSB  Comment-text fixes identified in diff'ing
000020:                                                                                                  ##                              Luminary 99 vs Comanche 55.
000021:                                                                                                  ##              2021-05-30 ABS  ISWCALLL -> ISWCALL
000022:


000024:                                                                                                  #           THE FOLLOWING ROUTINE CAN BE USED TO CALL A SUBROUTINE IN ANOTHER BANK. IN THE BANKCALL VERSION, THE
000025:                                                                                                  #  CADR OF THE SUBROUTINE IMMEDIATELY FOLLOWS THE TC BANKCALL INSTRUCTION, WITH C(A) AND C(L) PRESERVED.
000026:
000027:    4616                                           BLOCK    02
000028:    4616                                           COUNT*   $$/BANK
000029:    4616           52134        BANKCALL           DXCH     BUF2                                  #  SAVE INCOMING A,L.
000030:    4617           50002                           INDEX    Q                                     #  PICK UP CADR.
000031:    4620           30000                           CA       0
000032:    4621           24002                           INCR     Q                                     #  SO WE RETURN TO THE LOC. AFTER THE CADR.
000033:
000034:                                                                                                  #           SWCALL IS IDENTICAL TO BANKCALL, EXCEPT THAT THE CADR ARRIVES IN A.
000035:
000036:    4622           54001        SWCALL             TS       L
000037:    4623           22004                           LXCH     FBANK                                 #  SWITCH BANKS, SAVING RETURN.
000038:    4624           75012                           MASK     LOW10                                 #  GET SUB-ADDRESS OF CADR.
000039:    4625           56002                           XCH      Q                                     #  A,L NOW CONTAINS DP RETURN.
000040:    4626           52134                           DXCH     BUF2                                  #  RESTORING INPUTS IF THIS IS A BANKCALL.
000041:    4627           50002                           INDEX    Q
000042:    4630           02000                           TC       10000                                 #  SETTING Q TO SWRETURN.
000043:
000044:    4631           56134        SWRETURN           XCH      BUF2       +1                         #  COMES HERE TO RETURN TO CALLER. C(A,L)
000045:    4632           56004                           XCH      FBANK                                 #  ARE PRESERVED FOR RETURN.
000046:    4633           56134                           XCH      BUF2       +1
000047:    4634           00133                           TC       BUF2
000048:
000049:                                                                                                  #           THE FOLLOWING ROUTINE CAN BE USED AS A UNILATERAL JUMP WITH C(A,L) PRESERVED AND THE CADR IMMEDIATELY
000050:                                                                                                  #  FOLLOWING THE TC POSTJUMP INSTRUCTION.
000051:
000052:    4635           56002        POSTJUMP           XCH      Q                                     #  SAVE INCOMING C(A).
000053:    4636           50000                           INDEX    A                                     #  GET CADR.
000054:    4637           30000                           CA       0
000055:
000056:                                                                                                  #           BANKJUMP IS THE SAME AS POSTJUMP, EXCEPT THAT THE CADR ARRIVES IN A.
000057:
000058:    4640           54004        BANKJUMP           TS       FBANK
000059:    4641           75012                           MASK     LOW10
000060:    4642           56002                           XCH      Q                                     #  RESTORING INPUT C(A) IF THIS WAS A
000061:    4643           50002        Q+10000            INDEX    Q                                     #  POSTJUMP.
000062:    4644           12000        PRIO12             TCF      10000                                 #  PRIO12 = TCF   10000 = 12000
000063:


000065:                                                                                                  #           THE FOLLOWING ROUTINE GETS THE RETURN CADR SAVED BY SWCALL OR BANKCALL AND LEAVES IT IN A.
000066:
000067:    4645           35012        MAKECADR           CAF      LOW10
000068:    4646           70133                           MASK     BUF2
000069:    4647           60134                           AD       BUF2       +1
000070:    4650           00002                           TC       Q
000071:
000072:    4651           54135        SUPDACAL           TS       MPTEMP
000073:    4652           56004                           XCH      FBANK                                 #  SET FBANK FOR DATA.
000074:    4653           00006                           EXTEND
000075:    4654           04007                           ROR      SUPERBNK                              #  SAVE FBANK IN BITS 15-11, AND
000076:    4655           56135                           XCH      MPTEMP                                #  S UPERBANK IN BITS 7-5.
000077:    4656           75012                           MASK     LOW10
000078:    4657           56001                           XCH      L                                     #  SAVE REL. ADR. IN BANK, FETCH SUPERBITS.
000079:    4660           00004                           INHINT                                         #  BECAUSE RUPT DOES NOT SAVE SUPERBANK.
000080:    4661           00006                           EXTEND
000081:    4662           01007                           WRITE    SUPERBNK                              #  SET SUPERBANK FOR DATA.
000082:    4663           50001                           INDEX    L
000083:    4664           32000                           CA       10000                                 #  PINBALL (FIX MEM DISP) PREVENTS DCA HERE
000084:    4665           56135                           XCH      MPTEMP                                #  SAVE 1ST WD, FETCH OLD FBANK AND SBANK.
000085:    4666           00006                           EXTEND
000086:    4667           01007                           WRITE    SUPERBNK                              #  RESTORE SUPERBANK.
000087:    4670           00003                           RELINT
000088:    4671           54004                           TS       FBANK                                 #  RESTORE FBANK.
000089:    4672           30135                           CA       MPTEMP                                #  RECOVER FIRST WORD OF DATA.
000090:    4673           00002                           RETURN                                         #  24 WDS. DATACALL 516 MU, SUPDACAL 432 MU
000091:


000093:                                                                                                  #  THE FOLLOWING ROUTINES ARE IDENTICAL TO BANKCALL AND SWCALL EXCEPT THAT THEY ARE USED IN INTERRUPT.
000094:
000095:    4674           52073        IBNKCALL           DXCH     RUPTREG3                              #  USES RUPTREG3,4 FOR DP RETURN ADDRESS.
000096:    4675           50002                           INDEX    Q
000097:    4676           30000                           CAF      0
000098:    4677           24002                           INCR     Q
000099:
000100:    4700           54001        ISWCALL            TS       L
000101:    4701           22004                           LXCH     FBANK
000102:    4702           75012                           MASK     LOW10
000103:    4703           56002                           XCH      Q
000104:    4704           52073                           DXCH     RUPTREG3
000105:    4705           50002                           INDEX    Q
000106:    4706           02000                           TC       10000
000107:
000108:    4707           56073        ISWRETRN           XCH      RUPTREG4
000109:    4710           56004                           XCH      FBANK
000110:    4711           56073                           XCH      RUPTREG4
000111:    4712           00072                           TC       RUPTREG3
000112:
000113:                                                                                                  #  2. USPRCADR ACCESSES INTERPRETIVE CODING IN OTHER THAN THE USER'S FBANK.  THE CALLING SEQUENCE IS AS FOLLOWS:
000114:
000115:                                                                                                  #        L       TC      USPRCADR
000116:                                                                                                  #        L+1     CADR    INTPRETX        INTPRETX IS THE INTERPRETIVE CODING
000117:                                                                                                  #                                        RETURN IS TO L+2
000118:
000119:    4713           54164        USPRCADR           TS       LOC                                   #  SAVE A
000120:    4714           34744                           CA       BIT8
000121:    4715           54023                           TS       EDOP                                  #  EXIT INSTRUCTION TO EDOP
000122:    4716           30006                           CA       BBANK
000123:    4717           54165                           TS       BANKSET                               #  USER'S BBANK TO BANKSET
000124:    4720           50002                           INDEX    Q
000125:    4721           30000                           CA       0
000126:    4722           54004                           TS       FBANK                                 #  INTERPRETIVE BANK TO FBANK
000127:    4723           75012                           MASK     LOW10                                 #  YIELDS INTERPRETIVE RELATIVE ADDRESS
000128:    4724           56002                           XCH      Q                                     #  INTERPRETIVE ADDRESS TO Q, FETCHING L+1
000129:    4725           56164                           XCH      LOC                                   #  L+1 TO LOC, RETRIEVING ORIGINAL A
000130:    4726           14643                           TCF      Q+10000
000131:


000133:                                                                                                  #  THERE ARE FOUR POSSIBLE SETTINGS FOR CHANNEL 07. (CHANNEL 07 CONTAINS THE SUPERBANK SETTING.)
000134:
000135:                                                                                                  #                                        PSEUDO-FIXED      OCTAL PSEUDO
000136:                                                                                                  #  SUPERBANK     SETTING S-REG. VALUE    BANK NUMBERS      ADDRESSES
000137:                                                                                                  #  ----------    ------- ------------     ------------      ------------
000138:                                                                                                  #  SUPERBANK 3     0XX    2000 - 3777       30 - 37       70000 - 107777         (WHERE XX CAN BE ANYTHING AND
000139:                                                                                                  #                                                                                WILL USUALLY BE SEEN AS 11)
000140:                                                                                                  #  SUPERBANK 4     100    2000 - 3777       40 - 47      110000 - 127777         (AS FAR AS IT CAN BE SEEN,
000141:                                                                                                  #                                                                                ONLY BANKS 40-43 WILL EVER BE
000142:                                                                                                  #                                                                                AND ARE PRESENTLY AVAILABLE)
000143:                                                                                                  #  SUPERBANK 5     101    2000 - 3777       50 - 57      130000 - 147777         (PRESENTLY NOT AVAILABLE TO
000144:                                                                                                  #                                                                                THE USER)
000145:                                                                                                  #  SUPERBANK 6     110    2000 - 3777       60 - 67      150000 - 167777         (PRESENTLY NOT AVAILABLE TO
000146:                                                                                                  #                                                                                THE USER)
000147:                                                                                                  #  *** THIS ROUTINE MAY BE CALLED BY ANY PROGRAM LOCATED IN BANKS 00 - 27.  I.E., NO PROGRAM LIVING IN ANY
000148:                                                                                                  #  SUPERBANK SHOULD USE SUPERSW. ***
000149:
000150:                                                                                                  #  SUPERSW MAY BE CALLED IN THIS FASHION:
000151:                                                                                                  #        CAF     ABBCON          WHERE  --  ABBCON   BBCON  SOMETHIN  --
000152:                                                                                                  #        TCR     SUPERSW         (THE SUPERBNK BITS ARE IN THE BBCON)
000153:                                                                                                  #        ...       ...
000154:                                                                                                  #         .         .
000155:                                                                                                  #         .         .
000156:                                                                                                  #  OR IN THIS FASHION:
000157:                                                                                                  #        CAF     SUPERSET        WHERE SUPERSET IS ONE OF THE FOUR AVAILABLE
000158:                                                                                                  #        TCR     SUPERSW         SUPERBANK BIT CONSTANTS:
000159:                                                                                                  #        ...       ...                                   SUPER011 OCTAL  60
000160:                                                                                                  #         .         .                                    SUPER100 OCTAL 100
000161:                                                                                                  #         .         .                                    SUPER101 OCTAL 120
000162:                                                                                                  #                                                        SUPER110 OCTAL 140
000163:
000164:    4727           00006        SUPERSW            EXTEND
000165:    4730           01007                           WRITE    SUPERBNK                              #  WRITE BITS 7-6-5 OF THE ACCUMULATOR INTO
000166:                                                                                                  #  CHANNEL 07
000167:    4731           00002                           TC       Q                                     #  TC TO INSTRUCTION FOLLOWING
000168:                                                                                                  #    TC SUPERSW
000169:

End of include-file INTER-BANK_COMMUNICATION.agc.  Parent file is MAIN.agc


