
Source Code


000002:                                                                                                  ## Copyright:   Public domain.
000003:                                                                                                  ## Filename:    INTERPRETIVE_CONSTANTS.agc
000004:                                                                                                  ## Purpose:     A section of Luminary revision 116.
000005:                                                                                                  ##              It is part of the source code for the Lunar Module's (LM)
000006:                                                                                                  ##              Apollo Guidance Computer (AGC) for Apollo 12.
000007:                                                                                                  ##              This file is intended to be a faithful transcription, except
000008:                                                                                                  ##              that the code format has been changed to conform to the
000009:                                                                                                  ##              requirements of the yaYUL assembler rather than the
000010:                                                                                                  ##              original YUL assembler.
000011:                                                                                                  ## Reference:   pp. 1092-1093
000012:                                                                                                  ## Assembler:   yaYUL
000013:                                                                                                  ## Contact:     Ron Burkey <info@sandroid.org>.
000014:                                                                                                  ## Website:     www.ibiblio.org/apollo/index.html
000015:                                                                                                  ## Mod history: 2017-01-22 MAS  Created from Luminary 99.
000016:                                                                                                  ##              2017-01-30 RRB  Updated for Luminary 116.
000017:                                                                                                  ##              2017-03-13 RSB  Proofed comment text via 3-way diff vs
000018:                                                                                                  ##                              Luminary 99 and 131 ... no problems found.
000019:


000021: 23,2000                                           SETLOC   INTPRET1
000022: 23,2000                                           BANK
000023:
000024: 23,2513                                           COUNT*   $$/ICONS
000025: 23,2513           10000 00000  DP1/4TH            2DEC     .25
000026:
000027: 23,2515           00000 00000  UNITZ              2DEC     0          B-28
000028:
000029: 23,2517           00000 00000  UNITY              2DEC     0          B-28
000030:
000031: 23,2521           20000 00000  UNITX              2DEC     .5
000032:
000033: 23,2523           00000 00000  ZEROVECS           2DEC     0          B-28
000034:
000035: 23,2525           00000 00000                     2DEC     0          B-28
000036:
000037: 23,2527           00000 00000                     2DEC     0          B-28
000038:
000039: 23,2531  23,2521               DPHALF             =        UNITX
000040: 23,2531           37777        DPPOSMAX           OCT      37777
000041: 23,2532           37777                           OCT      37777
000042:


000044:                                                                                                  #  INTERPRETIVE CONSTANTS IN THE OTHER HALF-MEMORY
000045:
000046: 12,2000                                           SETLOC   INTPRET2
000047: 12,2000                                           BANK
000048:
000049: 12,2000                                           COUNT*   $$/ICONS
000050: 12,2000           00000 00000  ZUNIT              2DEC     0          B-28
000051:
000052: 12,2002           00000 00000  YUNIT              2DEC     0          B-28
000053:
000054: 12,2004           20000 00000  XUNIT              2DEC     .5
000055:
000056: 12,2006           00000 00000  ZEROVEC            2DEC     0          B-28
000057:
000058: 12,2010           00000 00000                     2DEC     0          B-28
000059:
000060: 12,2012           00000 00000                     2DEC     0          B-28
000061:
000062: 12,2014           77777                           OCT      77777                                 #  -0,-6,-12 MUST REMAIN IN THIS ORDER
000063: 12,2015           77771        DFC-6              DEC      -6         B-14
000064: 12,2016           77763        DFC-12             DEC      -12        B-14
000065: 12,2017           37777 37777  LODPMAX            2OCT     3777737777                            #  THESE TWO CONSTANTS MUST REMAIN
000066:
000067: 12,2021           37777 37777  LODPMAX1           2OCT     3777737777                            #  ADJACENT AND THE SAME FOR INTEGRATION
000068:
000069: 12,2023  12,2006               ZERODP             =        ZEROVEC
000070: 12,2023  12,2004               HALFDP             =        XUNIT
000071:
000072:

End of include-file INTERPRETIVE_CONSTANTS.agc.  Parent file is MAIN.agc


