
Source Code


000002:                                                                                                  ## Copyright:   Public domain.
000003:                                                                                                  ## Filename:    INTERPRETER.agc
000004:                                                                                                  ## Purpose:     A section of Luminary revision 116.
000005:                                                                                                  ##              It is part of the source code for the Lunar Module's (LM)
000006:                                                                                                  ##              Apollo Guidance Computer (AGC) for Apollo 12.
000007:                                                                                                  ##              This file is intended to be a faithful transcription, except
000008:                                                                                                  ##              that the code format has been changed to conform to the
000009:                                                                                                  ##              requirements of the yaYUL assembler rather than the
000010:                                                                                                  ##              original YUL assembler.
000011:                                                                                                  ## Reference:   pp. 994-1086
000012:                                                                                                  ## Assembler:   yaYUL
000013:                                                                                                  ## Contact:     Ron Burkey <info@sandroid.org>.
000014:                                                                                                  ## Website:     www.ibiblio.org/apollo/index.html
000015:                                                                                                  ## Mod history: 2017-01-22 MAS  Created from Luminary 99.
000016:                                                                                                  ##              2017-01-28 RSB  Back-ported some comment-text fixes made in Luminary 69.
000017:                                                                                                  ##              2017-02-05 RSB  Back-ported comment corrections
000018:                                                                                                  ##                              identified while proofing Artemis 072.
000019:                                                                                                  ##              2017-03-10 HG   Transcribed
000020:                                                                                                  ##              2017-03-13 RSB  Proofed comment text via 3-way diff vs
000021:                                                                                                  ##                              Luminary 99 and 131.
000022:                                                                                                  ##              2017-03-15 RSB  Comment-text fixes identified in 5-way
000023:                                                                                                  ##                              side-by-side diff of Luminary 69/99/116/131/210.
000024:                                                                                                  ##              2021-05-30 ABS  Added IRT0 location symbol to match scans.
000025:                                                                                                  ##                              B5TOBB -> B5TOB8
000026:


000028:                                                                                                  #  SECTION 1  DISPATCHER
000029:
000030:                                                                                                  #           ENTRY TO THE INTERPRETER. INTPRET SETS LOC TO THE FIRST  INSTRUCTION, BANKSET TO THE BBANK OF THE
000031:                                                                                                  #  OBJECT INTERPRETIVE PROGRAM, AND INTBIT15 TO THE BIT15 CONTENTS OF FBANK. INTERPRETIVE PROGRAMS MAY BE IN
000032:                                                                                                  #  VIRTUALLY ALL BANKS PRESENT UNDER ANY SUPER-BANK SETTING, WITH THE RESTRICTION THAT PROGRAMS IN HIGH BANKS
000033:                                                                                                  #  (BIT15 OF FBANK = 1) DO NOT REFER TO LOWBANKS, AND VICE-VERSA. THE INTERPRETER DOES NOT SWITCH SUPERBANKS.
000034:                                                                                                  #  E-BANK SWITCHING OCCURS WHENEVER GENERAL ERASABLE (100-3777) IS ADDRESSED.
000035:
000036:
000037:    6042                                           BLOCK    03
000038:
000039:    6042                                           COUNT*   $$/INTER
000040:    6042           00003        INTPRET            RELINT
000041:    6043           00006                           EXTEND                                         #  SET LOC TO THE WORD FOLLOWING THE TC.
000042:    6044           22164                           QXCH     LOC
000043:
000044:    6045           30006                 +2        CA       BBANK                                 #  INTERPRETIVE BRANCHES FINISH HERE.
000045:    6046           54165                           TS       BANKSET
000046:    6047           74735                           MASK     BIT15                                 #  GET 15TH BIT FOR INDEXABLE ADDRESSES.
000047:    6050           54115                           TS       INTBIT15
000048:
000049:    6051           54023                           TS       EDOP                                  #  MAKE SURE NO INSTRUCTIONS LEFT OVER
000050:
000051:    6052           16073                           TCF      NEWOPS                                #  PICK UP OP CODE PAIR AND BEGIN.
000052:
000053:
000054:    6053           22006        INTRSM             LXCH     BBANK                                 #  RESUME SUSPENDED INTERPRETIVE JOB
000055:    6054           16045                           TCF      INTPRET    +3
000056:                                                                                                  #           DLOAD LOADS MPAC, MPAC +1, LEAVING ZERO IN MPAC +2.
000057:
000058:    6055           00006        DLOAD              EXTEND
000059:    6056           50116                           INDEX    ADDRWD
000060:    6057           30001                           DCA      0                                     #  LOAD DP C(C(ADDRWD)) INTO MPAC,MPAX +1
000061:    6060           52155        SLOAD2             DXCH     MPAC
000062:    6061           34755                           CAF      ZERO                                  #  ZERO MPAC +2
000063:


000065:                                                                                                  #           AT THE END OF MOST INSTRUCTIONS, CONTROL IS GIVEN TO DANZIG TO DISPATCH THE NEXT OPERATION.
000066:
000067:    6062           54156                           TS       MPAC       +2                         #  AND DECLARE DP MODE
000068:
000069:    6063           54163        NEWMODE            TS       MODE                                  #  PROLOGUE FOR MODE-CHANGING INSTRUCTIONS.
000070:
000071:    6064           30165        DANZIG             CA       BANKSET                               #  SET BBANK BEFORE TESTING NEWJOB SO THAT
000072:    6065           54006                           TS       BBANK                                 #  IT MAY BE SAVED DIRECTLY BY CHANJOB.
000073:
000074:    6066           10023        NOIBNKSW           CCS      EDOP                                  #  SEE IF AN ORDER CODE IS LEFT OVER FROM
000075:    6067           16102                           TCF      OPJUMP                                #  THE LAST PAIR RETRIEVED. IF SO, EXECUTE.
000076:                                                                                                  #  EDOP IS SET TO ZERO ON ITS RE-EDITING.
000077:
000078:    6070           10067                           CCS      NEWJOB                                #  SEE IF A JOB OF HIGHER PRIORITY IS
000079:    6071           15126                           TCF      CHANG2                                #  PRESENT, AND IF SO, CHANGE JOBS.
000080:
000081:    6072           24164                           INCR     LOC                                   #  ADVANCE THE LOCATION COUNTER.
000082:
000083:                                                                                                  #           ITRACE (1) REFERS TO "NEWOPS".
000084:    6073           50164        NEWOPS             INDEX    LOC                                   #  ENTRY TO BEGIN BY PICKING OP CODE PAIR.
000085:    6074           30000                           CA       0                                     #  MAY BE AN OPCODE PAIR OR A STORE CODE.
000086:    6075           10000                           CCS      A                                     #  TEST SIGN AND GET DABS(A).
000087:    6076           16365                           TCF      DOSTORE                               #  PROCESS STORE CODE.
000088:
000089:    6077           00177        LOW7               OCT      177
000090:
000091:    6100           54023                           TS       EDOP                                  #  OP CODE PAIR. LEAVE THE OTHER IN EDOP
000092:    6101           76077                           MASK     LOW7                                  #  WHERE CCS EDOP WILL HONOR IT NEXT.
000093:
000094:    6102           54020        OPJUMP             TS       CYR                                   #  LOWWD ENTERS HERE IF A RIGHT-HAND OP
000095:    6103           10020                           CCS      CYR                                   #  CODE IS TO BE PROCESSED. TEST PREFICES.
000096:    6104           16252                           TCF      OPJUMP2                               #  TEST SECOND PREFIX BIT.
000097:
000098:    6105           16746                           TCF      EXIT                                  #  +0 OP CODE IS EXIT.
000099:


000101:                                                                                                  #           PROCESS ADDRESSES WHICH MAY BE DIRECT, INDEXED, OR REFERENCE THE PUSHDOWN LIST.
000102:
000103:    6106           74753        ADDRESS            MASK     BIT1                                  #  SEE IF ADDRESS IS INDEXED. CYR CONTAINED
000104:    6107           10000                           CCS      A                                     #  400XX, SO BIT 1 IS NOW AS IT WAS IN CYR.
000105:    6110           16151                           TCF      INDEX                                 #  FORM INDEXED ADDRESS.
000106:
000107:    6111           50164        DIRADRES           INDEX    LOC                                   #  LOOK AHEAD TO NEXT WORD TO SEE IF
000108:    6112           40001        OCT40001           CS       1                                     #  ADDRESS IS GIVEN.
000109:    6113           10000                           CCS      A
000110:    6114           16220                           TCF      PUSHUP                                #  IF NOT.
000111:
000112:    6115           77773        NEG4               DEC      -4         B-14
000113:
000114:    6116           24164                           INCR     LOC                                   #  IF SO, TO SHOW WE PICKED UP A WORD.
000115:    6117           54116                           TS       ADDRWD
000116:


000118:                                                                                                  #           FINAL DIGESTION OF DIRECT ADDRESSES OF OP CODES WITH 01 PREFIX IS DONE HERE. IN EACH CASE, THE
000119:                                                                                                  #  REQUIRED 12-BIT SUB-ADDRESS IS LEFT IN ADDRWD, WITH ANY REQUIRED E OR F BANK SWITCHING DONE. ADDRESSES LESS
000120:                                                                                                  #  THAN 45D ARE TAKEN TO BE RELATIVE TO THE WORK AREA. THE OP CODE IS NOW IN BITS 1-5 OF CYR WITH BIT 14 = 1.
000121:
000122:    6120           66254                           AD       -ENDVAC                               #  SEE IF ADDRESS RELATIVE TO WORK AREA.
000123:    6121           10000                           CCS      A
000124:    6122           67746                           AD       -ENDERAS                              #  IF NOT, SEE IF IN GENERAL ERASABLE.
000125:    6123           16130                           TCF      IERASTST
000126:
000127:    6124           30120        NETZERO            CA       FIXLOC                                #  IF SO, LEAVE THE MODIFIED ADDRESS IN
000128:    6125           26116                           ADS      ADDRWD                                #  ADDRWD AND DISPATCH.
000129:    6126           50020        ITR15              INDEX    CYR                                   #  THIS INDEX MAKES THE NEXT INSTRUCTION
000130:    6127           76276                           7        INDJUMP    -1                         #  TCF INDJUMP + OP, EDITING CYR.
000131:
000132:    6130           00006        IERASTST           EXTEND
000133:    6131           66141                           BZMF     GEADDR                                #  GO PROCESS GENERAL-ERASABLE ADDRESS.
000134:
000135:    6132           75012                           MASK     LOW10                                 #  FIXED BANK ADDRESS. RESTORE AND ADD B15.
000136:    6133           65012                           AD       LOW10                                 #  SWITCH BANKS AND LEAVE SUBADDRESS IN
000137:    6134           56116                           XCH      ADDRWD                                #  ADDRWD FOR OPERAND RETRIEVAL. (THIS
000138:    6135           60115                           AD       INTBIT15                              #  METHOD PRECLUDES USE OF THE LAST
000139:    6136           54004                           TS       FBANK                                 #  LOCATION IN EACH FBANK.)
000140:    6137           50020        ITR12              INDEX    CYR
000141:    6140           76276                           7        INDJUMP    -1
000142:
000143:    6141           74357        GEADDR             MASK     LOW8
000144:    6142           65007                           AD       OCT1400
000145:    6143           56116                           XCH      ADDRWD
000146:    6144           54003                           TS       EBANK
000147:    6145           50020        ITR10              INDEX    CYR
000148:    6146           76276                           7        INDJUMP    -1
000149:


000151:                                                                                                  #           THE FOLLOWING ROUTINE PROCESSES INTERPRETIVE INDEXED ADDRESSES. AN INTERPRETER INDEX REGISTER MAY
000152:                                                                                                  #  CONTAIN THE ADDRESS OF ANY ERASABLE REGISTER (0-42 BEING RELATIVE TO THE VAC AREA) OR ANY INTERPRETIVE PROGRAM
000153:                                                                                                  #  BANK, OR ANY INTEGER IN THAT RANGE.
000154:
000155:    6147           37736        DODLOAD*           CAF      DLOAD*                                #  STODL* COMES HERE TO PROCESS LOAD ADR.
000156:    6150           54020                           TS       CYR                                   #  (STOVL* ENTERS HERE).
000157:
000158:    6151           30120        INDEX              CA       FIXLOC                                #  SET UP INDEX LOCATION.
000159:    6152           54130                           TS       INDEXLOC
000160:    6153           24164                           INCR     LOC                                   #  (ADDRESS ALWAYS GIVEN).
000161:    6154           50164                           INDEX    LOC
000162:    6155           40000                           CS       0
000163:    6156           10000                           CCS      A                                     #  INDEX 2 IF ADDRESS STORED COMPLEMENTED.
000164:    6157           24130                           INCR     INDEXLOC
000165:    6160           16161                           NOOP
000166:
000167:    6161           54116                           TS       ADDRWD                                #  14 BIT ADDRESS TO ADDRWD.
000168:    6162           77745                           MASK     HIGH4                                 #  IF ADDRESS GREATER THAN 2K, ADD INTBIT15
000169:    6163           00006                           EXTEND
000170:    6164           16167                           BZF      INDEX2
000171:    6165           30115                           CA       INTBIT15
000172:    6166           26116                           ADS      ADDRWD
000173:
000174:    6167           50130        INDEX2             INDEX    INDEXLOC
000175:    6170           40046                           CS       X1
000176:    6171           26116                           ADS      ADDRWD                                #  DO AUGMENT, IGNORING AND CORRECTING OVF.
000177:
000178:    6172           77747                           MASK     HIGH9                                 #  SEE IF ADDRESS IS IN WORK AREA.
000179:    6173           00006                           EXTEND
000180:    6174           16207                           BZF      INDWORK
000181:    6175           77745                           MASK     HIGH4                                 #  SEE IF IN FIXED BANK.
000182:    6176           00006                           EXTEND
000183:    6177           16211                           BZF      INDERASE
000184:
000185:    6200           30116                           CA       ADDRWD                                #  IN FIXED - SWITCH BANKS AND CREATE
000186:    6201           54004                           TS       FBANK                                 #  SUB-ADDRESS.
000187:    6202           75012                           MASK     LOW10
000188:    6203           64741                           AD       2K
000189:    6204           54116                           TS       ADDRWD
000190:    6205           50020        ITR11              INDEX    CYR
000191:    6206           36276                           3        INDJUMP    -1
000192:
000193:    6207           30120        INDWORK            CA       FIXLOC                                #  MAKE ADDRWD RELATIVE TO WORK AREA.
000194:    6210           16215                           TCF      ITR13      -1
000195:
000196:    6211           35007        INDERASE           CA       OCT1400
000197:    6212           56116                           XCH      ADDRWD
000198:    6213           54003                           TS       EBANK
000199:    6214           74357                           MASK     LOW8
000200:    6215           26116                 -1        ADS      ADDRWD
000201:


000203:    6216           50020        ITR13              INDEX    CYR
000204:    6217           36276                           3        INDJUMP    -1
000205:


000207:                                                                                                  #           PUSH-UP ROUTINES. WHEN NO OPERAND ADDRESS IS GIVEN, THE APPROPRIATE OPERAND IS TAKEN FROM THE PUSH-DOWN
000208:                                                                                                  #  LIST. IN MOST CASES THE MODE OF THE RESULT (VECTOR OR SCALAR) OF THE LAST ARITHMETIC OPERATION PERFORMED
000209:                                                                                                  #  IS THE SAME AS THE TYPE OF OPERAND DESIRED (ALL ADD/SUBTRACT ETC.). EXCEPTIONS TO THIS GENERAL RULE ARE LISTED
000210:                                                                                                  #  BELOW (NOTE THAT IN EVERY CASE THE MODE REGISTER IS LEFT INTACT):
000211:
000212:                                                                                                  #           1.  VXSC AND V/SC WANT THE OPPOSITE TYPE OF OPERAND, E.G., IF THE LAST OPERATION YIELDED A VECTOR
000213:                                                                                                  #  RESULT, VXSC WANTS A SCALAR.
000214:
000215:                                                                                                  #           2.  THE LOAD CODES SHOULD LOAD THE ACCUMULATOR INDEPENDENT OF THE RESULT OF THE LAST OPERATION. THIS
000216:                                                                                                  #  INCLUDES VLOAD, DLOAD, TLOAD, PDDL, AND PDVL (NO PUSHUP WITH SLOAD).
000217:
000218:                                                                                                  #           3.  SOME ARITHMETIC OPERATIONS REQUIRE A STANDARD TYPE OF OPERAND REGARDLESS OF THE PREVIOUS OPERATION.
000219:                                                                                                  #  THIS INCLUDES SIGN WANTING DP AND TAD REQUIRING TP.
000220:
000221:    6220           34360        PUSHUP             CAF      OCT23                                 #  IF THE LOW 5 BITS OF CYR ARE LESS THAN
000222:    6221           70020                           MASK     CYR                                   #  20, THIS OP REQUIRES SPECIAL ATTENTION.
000223:    6222           66225                           AD       -OCT10                                #  (NO -0).
000224:    6223           10000                           CCS      A
000225:    6224           16236                           TCF      REGUP                                 #  FOR ALL CODES GREATER THAN OCT 7.
000226:
000227:    6225           77767        -OCT10             OCT      -10
000228:
000229:    6226           66115                           AD       NEG4                                  #  WE NOW HAVE 7 - OP CODE(MOD4). SEE IF
000230:    6227           10000                           CCS      A                                     #  THE OP CODE (MOD4) IS THREE (REVERSE).
000231:    6230           50000                           INDEX    A                                     #  NO - THE MODE IS DEFINITE. PICK UP THE
000232:    6231           46247                           CS       NO.WDS
000233:    6232           16240                           TCF      REGUP      +2
000234:
000235:    6233           50163                           INDEX    MODE                                  #  FOR VXSC AND V/SC WE WANT THE REQUIRED
000236:    6234           46245                           CS       REVCNT                                #  PUSHLOC DECREMENT WITHOUT CHANGING THE
000237:    6235           16240                           TCF      REGUP      +2                         #  MODE AT THIS TIME.
000238:
000239:    6236           50163        REGUP              INDEX    MODE                                  #  MOST ALL OP CODES PUSHUP HERE.
000240:    6237           46247                           CS       NO.WDS
000241:    6240           26166                 +2        ADS      PUSHLOC
000242:    6241           54116                           TS       ADDRWD
000243:    6242           50020        ITR14              INDEX    CYR
000244:    6243           76276                           7        INDJUMP    -1                         #  (THE INDEX MAKES THIS A TCF.)
000245:
000246:    6244           00002                           OCT      2                                     #  REVERSE PUSHUP DECREMENT. VECTOR TAKES 2
000247:    6245           00006        REVCNT             OCT      6                                     #  WORDS, SCALAR TAKES 6.
000248:    6246           00006                           OCT      6
000249:    6247           00002        NO.WDS             OCT      2                                     #  CONVENTIONAL DECREMENT IS 6 WORDS VECTOR
000250:    6250           00003        OCTAL3             OCT      3                                     #  2 IN DP, AND 3 IN TP.
000251:    6251           00006                           OCT      6
000252:


000254:                                                                                                  #           TEST THE SECOND PREFIX BIT TO SEE IF THIS IS A MISCELLANEOUS OR A UNARY/SHORT SHIFT OPERATION.
000255:
000256:    6252           10020        OPJUMP2            CCS      CYR                                   #  TEST SECOND PREFIX BIT.
000257:    6253           16266                           TCF      OPJUMP3                               #  TEST THIRD BIT TO SEE IF UNARY OR SHIFT.
000258:
000259:    6254           77722        -ENDVAC            DEC      -45        B-14
000260:
000261:                                                                                                  #           THE FOLLOWING ROUTINE PROCESSES ADDRESSES OF SUFFIX CLASS 10. THEY ARE BASICALLY WORK AREA ADDRESSES
000262:                                                                                                  #  IN THE RANGE 0 - 52, ERASABLE ECADR CONSTANTS FROM 100 - 3777, AND FCADRS ABOVE THAT. ALL 15 BITS ARE AVAILABLE
000263:                                                                                                  #  IN CONTRAST TO SUFFIX 1, IN WHICH ONLY THE LOW ORDER 14 ARE AVAILABLE.
000264:
000265:    6255           24164        15BITADR           INCR     LOC                                   #  (ENTRY HERE FROM STCALL).
000266:    6256           50164                           INDEX    LOC                                   #  PICK UP ADDRESS WORD.
000267:    6257           30000                           CA       0
000268:    6260           54117                           TS       POLISH                                #  WE MAY NEED A SUBADDRESS LATER.
000269:
000270:    6261           35013                           CAF      LOW7+2K                               #  THESE INSTRUCTIONS ARE IN BANK 1.
000271:    6262           54004                           TS       FBANK
000272:    6263           70020                           MASK     CYR
000273:    6264           50000        ITR7               INDEX    A
000274:    6265           16337                           TCF      MISCJUMP
000275:


000277:                                                                                                  #           COMPLETE THE DISPATCHING OF UNARY AND SHORT SHIFT OPERATIONS.
000278:
000279:    6266           54004        OPJUMP3            TS       FBANK                                 #  CALL IN BANK 0 (BITS 11-15 OF A ARE 0.)
000280:                                                                                                  #           ITRACE (6) REFERS TO "OPJUMP3".
000281:    6267           10020                           CCS      CYR                                   #  TEST THIRD PREFIX BIT.
000282:    6270           50000                           INDEX    A                                     #  THE DECREMENTED UNARY CODE IS IN BITS
000283:    6271           12000                           TCF      UNAJUMP                               #  1-4 OF A (ZERO, EXIT, HAS BEEN DETECTED)
000284:
000285:    6272           10163                           CCS      MODE                                  #  ITS A SHORT SHIFT CODE. SEE IF PRESENT
000286:    6273           12017                           TCF      SHORTT                                #  SCALAR OR VECTOR.
000287:    6274           12017                           TCF      SHORTT
000288:    6275           12121                           TCF      SHORTV                                #  CALLS THE APPROPRIATE ROUTINE.
000289:
000290:
000291:    6276     4350               FBANKMSK           EQUALS   BANKMASK
000292:    6276           00122        LVBUF              ADRES    VBUF
000293:


000295:                                                                                                  #           THE FOLLOWING IS THE JUMP TABLE FOR OP CODES WHICH MAY HAVE INDEXABLE ADDRESSES OR MAY PUSH UP.
000296:
000297:    6277           16510        INDJUMP            TCF      VLOAD                                 #  00 - LOAD MPAC WITH A VECTOR.
000298:    6300           17074                           TCF      TAD                                   #  01 - TRIPLE PRECISION ADD TO MPAC.
000299:    6301           17660                           TCF      SIGN                                  #  02 - COMPLEMENT MPAC (V OR SC) IF X NEG.
000300:    6302           17404                           TCF      VXSC                                  #  03 - VECTOR TIMES SCALAR.
000301:    6303           16706                           TCF      CGOTO                                 #  04 - COMPUTED GO TO.
000302:    6304           16473                           TCF      TLOAD                                 #  05 - LOAD MPAC WITH TRIPLE PRECISION.
000303:    6305           16055                           TCF      DLOAD                                 #  06 - LOAD MPAC WITH A DP SCALAR.
000304:    6306           17627                           TCF      V/SC                                  #  07 - VECTOR DIVIDED BY SCALAR.
000305:
000306:    6307           16504                           TCF      SLOAD                                 #  10 - LOAD MPACIN SINGLE PRECISION.
000307:    6310           16623                           TCF      SSP                                   #  11 - SET SINGLE PRECISION INTO X.
000308:    6311           16526                           TCF      PDDL                                  #  12 - PUSH DOWN MPAC AND RE-LOAD IN DP.
000309:    6312           17337                           TCF      MXV                                   #  13 - MATRIX POST-MULTIPLIED BY VECTOR.
000310:    6313           16562                           TCF      PDVL                                  #  14 - PUSH DOWN AND VECTOR LOAD.
000311:    6314           16631                           TCF      CCALL                                 #  15 - COMPUTED CALL.
000312:    6315           17342                           TCF      VXM                                   #  16 - MATRIX PRE-MULTIPLIED BY VECTOR.
000313:    6316           17621                           TCF      TSLC                                  #  17 - NORMALIZE MPAC (SCALAR ONLY).
000314:
000315:    6317           17577                           TCF      DMPR                                  #  20 - DP MULTIPLY AND ROUND.
000316:    6320           17602                           TCF      DDV                                   #  21 - DP DIVIDE BY.
000317:    6321           17606                           TCF      BDDV                                  #  22 - DP DIVIDE INTO.
000318:    6322           17624                           TCF      GSHIFT                                #  23 - GENERAL SHIFT INSTRUCTION.
000319:    6323           16754                           TCF      VAD                                   #  24 - VECTOR ADD.
000320:    6324           16752                           TCF      VSU                                   #  25 - VECTOR SUBTRACT.
000321:    6325           17041                           TCF      BVSU                                  #  26 - VECTOR SUBTRACT FROM.
000322:    6326           17334                           TCF      DOT                                   #  27 - VECTOR DOT PRODUCT.
000323:
000324:    6327           17463                           TCF      VXV                                   #  30 - VECTOR CROSS PRODUCT.
000325:    6330           17430                           TCF      VPROJ                                 #  31 - VECTOR PROJECTION.
000326:    6331           17010                           TCF      DSU                                   #  32 - DP SUBTRACT.
000327:    6332           17065                           TCF      BDSU                                  #  33 - DP SUBTRACT FROM.
000328:    6333           17000                           TCF      DAD                                   #  34 - DP ADD.
000329:    6334           16334                           TCF      +0                                    #  35 - AVAILABLE
000330:    6335           17575                           TCF      DMP1                                  #  36 - DP MULTIPLY.
000331:    6336           17616                           TCF      SETPD                                 #  37 - SET PUSH DOWN POINTER (DIRECT ONLY)
000332:
000333:                                                                                                  #  CODES 10 AND 14 MUST NOT PUSH UP. CODE 04 MAY BE USED FOR VECTOR DECLARE BEFORE PUSHUP IF DESIRED.
000334:


000336:                                                                                                  #           THE FOLLOWING JUMP TABLE APPLIES TO INDEX, BRANCH, AND MISCELLANEOUS INSTRUCTIONS.
000337:
000338:    6337           12345        MISCJUMP           TCF      AXT                                   #  00 - ADDRESS TO INDEX TRUE.
000339:    6340           12352                           TCF      AXC                                   #  01 - ADDRESS TO INDEX COMPLEMENTED.
000340:    6341           12355                           TCF      LXA                                   #  02 - LOAD INDEX FROM ERASABLE.
000341:    6342           12361                           TCF      LXC                                   #  03 - LOAD INDEX FROM COMPLEMENT OF ERAS.
000342:    6343           12365                           TCF      SXA                                   #  04 - STORE INDEX IN ERASABLE.
000343:    6344           12373                           TCF      XCHX                                  #  05 - EXCHANGE INDEX WITH ERASABLE.
000344:    6345           12407                           TCF      INCR                                  #  06 - INCREMENT INDEX REGISTER.
000345:    6346           12416                           TCF      TIX                                   #  07 - TRANSFER ON INDEX.
000346:
000347:    6347           12401                           TCF      XAD                                   #  10 - INDEX REGISTER ADD FROM ERASABLE.
000348:    6350           12412                           TCF      XSU                                   #  11 - INDEX SUBTRACT FROM ERASABLE.
000349:    6351           12470                           TCF      BZE/GOTO                              #  12 - BRANCH ZERO AND GOTO.
000350:    6352           12475                           TCF      BPL/BMN                               #  13 - BRANCH PLUS AND BRANCH MINUS.
000351:    6353           12450                           TCF      RTB/BHIZ                              #  14 - RETURN TO BASIC AND BRANCH HI ZERO.
000352:    6354           12510                           TCF      CALL/ITA                              #  15 - CALL AND STORE QPRET.
000353:    6355           12517                           TCF      SW/                                   #  16 - SWITCH INSTRUCTIONS AND AVAILABLE.
000354:    6356           12460                           TCF      BOV(B)                                #  17 - BRANCH ON OVERFLOW TO BASIC OR INT.
000355:


000357:                                                                                                  #           THE FOLLOWING JUMP TABLE APPIES TO UNARY INSTRUCTIONS.
000358:
000359:    6357                                           COUNT*   $$/INTER
000360: 00,2000                                           BANK     0                                     #  00 - EXIT - DETECTED EARLIER.
000361: 00,2000           13207        UNAJUMP            TCF      SQRT                                  #  01 - SQUARE ROOT.
000362: 00,2001           13530                           TCF      SINE                                  #  02 - SIN.
000363: 00,2002           13517                           TCF      COSINE                                #  03 - COS.
000364: 00,2003           13610                           TCF      ARCSIN                                #  04 - ARC SIN.
000365: 00,2004           13612                           TCF      ARCCOS                                #  05 - ARC COS.
000366: 00,2005           13174                           TCF      DSQ                                   #  06 - DP SQUARE.
000367: 00,2006           12116                           TCF      ROUND                                 #  07 - ROUND TO DP.
000368:
000369: 00,2007           17673                           TCF      COMP                                  #  10 - COMPLEMENT VECTOR OR SCALAR.
000370: 00,2010           13232                           TCF      VDEF                                  #  11 - VECTOR DEFINE.
000371: 00,2011           13023                           TCF      UNIT                                  #  12 - UNIT VECTOR.
000372: 00,2012           13176                           TCF      ABVALABS                              #  13 - LENGTH OF VECTOR OR MAG OF SCALAR.
000373: 00,2013           13245                           TCF      VSQ                                   #  14 - SQUARE OF LENGTH OF VECTOR.
000374: 00,2014           16357                           TCF      STADR                                 #  15 - PUSH UP ON STORE CODE.
000375: 00,2015           13274                           TCF      RVQ                                   #  16 - RETURN VIA QPRET.
000376: 00,2016           13247                           TCF      PUSH                                  #  17 - PUSH MPAC DOWN.
000377:


000379:                                                                                                  #  SECTION 2  LOAD AND STORE PACKAGE.
000380:
000381:                                                                                                  #           A SET OF EIGHT STORE CODES IS PROVIDED AS THE PRIMARY METHOD OF STORING THE MULTI-PURPOSE
000382:                                                                                                  #  ACCUMULATOR (MPAC). IF IN THE DANZIG SECTION LOC REFERS TO AN ALGEBRAICALLY POSITIVE WORD, IT IS TAKEN AS A
000383:                                                                                                  #  STORE CODE WITH A CORRESPONDING ERASABLE ADDRESS. MOST OF THESE CODES ARE TWO ADDRESS, SPECIFYING THAT THE WORD
000384:                                                                                                  #  FOLLOWING THE STORE CODE IS TO BE USED AS AN ADDRESS FROM WHICH TO RE-LOAD MPAC. FOUR OPTIONS ARE AVAILABLE:
000385:
000386:                                                                                                  #           1. STORE               STORE MPAC. THE E ADDRESS MAY BE INDEXED.
000387:                                                                                                  #           2. STODL               STORE MPAC AND RE-LOAD IT IN DP WITH THE NEXT ADDRESS (THE LOAD MAY BE INDEXED).
000388:                                                                                                  #           3. STOVL               STORE MPAC AND RE-LOAD A VECTOR (AS ABOVE).
000389:                                                                                                  #           4. STCALL              STORE AND DO A CALL (BOTH ADDRESSES MUST BE DIRECT HERE).
000390:
000391:                                                                                                  #           STODL AND STOVL WILL TAKE FROM THE PUSH-DOWN LIST IF NO LOAD ADDRESS IS GIVEN.
000392:
000393:
000394:    6357                                           BLOCK    3
000395:
000396:    6357                                           COUNT*   $$/INTER
000397:    6357           30165        STADR              CA       BANKSET                               #  THE STADR CODE (PUSHUP UP ON STORE
000398:    6360           54004                           TS       FBANK                                 #  ADDRESS) ENTERS HERE.
000399:    6361           24164                           INCR     LOC
000400:    6362           50164        ITR1               INDEX    LOC                                   #  THE STORECODE WAS STORED COMPLEMENTED TO
000401:    6363           40000                           CS       0                                     #  MAKE IT LOOK LIKE AN OPCODE PAIR.
000402:    6364           67752                           AD       NEGONE                                #  (YUL CANT REMOVE 1 BECAUSE OF EARLY CCS)
000403:
000404:    6365           54116        DOSTORE            TS       ADDRWD
000405:    6366           74356                           MASK     LOW11                                 #  ENTRY FROM DISPATCHER. SAVE THE ERASABLE
000406:    6367           56116                           XCH      ADDRWD                                #  ADDRESS AND JUMP ON THE STORE CODE NO.
000407:    6370           77725                           MASK     B12T14
000408:    6371           00006                           EXTEND
000409:    6372           74747                           MP       BIT5                                  #  EACH TRANSFER VECTOR ENTRY IS TWO WORDS.
000410:    6373           50000        ITR0               INDEX    A
000411:    6374           16375                           TCF      STORJUMP
000412:


000414:                                                                                                  #           STORE CODE JUMP TABLE. CALLS THE APPROPRIATE STORING ROUTINE AND EXITS TO DANZIG OR TO ADDRESS WITH
000415:                                                                                                  #  A SUPPLIED OPERATION CODE.
000416:
000417:                                                                                                  #           STORE STORE,1 AND STORE,2 RETURN TO DANZIG, THUS RESETTING THE EBANK TO ITS STATE AT INTPRET.
000418:
000419:    6375           06425        STORJUMP           TC       STORE                                 #  STORE.
000420:    6376           16064                           TCF      DANZIG                                #  PICK UP NEW OP CODE(S).
000421:    6377           06417                           TC       STORE,1
000422:    6400           16064                           TCF      DANZIG
000423:    6401           06422                           TC       STORE,2
000424:    6402           16064                           TCF      DANZIG
000425:
000426:    6403           06425                           TC       STORE                                 #  STODL.
000427:    6404           16463                           TCF      DODLOAD
000428:
000429:    6405           06425                           TC       STORE                                 #  STODL WITH INDEXED LOAD ADDRESS.
000430:    6406           16147                           TCF      DODLOAD*
000431:
000432:    6407           06425                           TC       STORE                                 #  STOVL.
000433:    6410           16466                           TCF      DOVLOAD
000434:
000435:    6411           06425                           TC       STORE                                 #  STOVL WITH INDEXED LOAD ADDRESS.
000436:    6412           16471                           TCF      DOVLOAD*
000437:    6413           06425                           TC       STORE                                 #  STOTC.
000438:    6414           34766                           CAF      CALLCODE
000439:    6415           54020                           TS       CYR
000440:    6416           16255                           TCF      15BITADR                              #  GET A 15 BIT ADDRESS.
000441:


000443:                                                                                                  #           STORE CODE ADDRESS PROCESSOR.
000444:
000445:    6417           50120        STORE,1            INDEX    FIXLOC
000446:    6420           40046                           CS       X1
000447:    6421           16424                           TCF      PRESTORE
000448:
000449:    6422           50120        STORE,2            INDEX    FIXLOC
000450:    6423           40047                           CS       X2
000451:    6424           26116        PRESTORE           ADS      ADDRWD                                #  RESULTANT ADDRESS IS IN ERASABLE.
000452:
000453:    6425           40116        STORE              CS       ADDRWD
000454:    6426           64772                           AD       DEC45
000455:    6427           10000                           CCS      A                                     #  DOES THE ADDRESS POINT TO THE WORK AREA?
000456:    6430           30120                           CA       FIXLOC                                #  YES.
000457:    6431           16436                           TCF      AHEAD5
000458:    6432           35007                           CA       OCT1400                               #  NO.  SET EBANK & MAKE UP SUBADDRESS.
000459:    6433           56116                           XCH      ADDRWD
000460:    6434           54003                           TS       EBANK
000461:    6435           74357                           MASK     LOW8
000462:    6436           26116        AHEAD5             ADS      ADDRWD
000463:


000465:                                                                                                  #           STORING ROUTINES. STORE DP, TP, OR VECTOR AS INDICATED BY MODE.
000466:
000467:    6437           00006        STARTSTO           EXTEND                                         #  MPAC,+1 MUST BE STORED IN ANY EVENT.
000468:                                                                                                  #           ITRACE (5) REFERS TO "STARTSTO".
000469:    6440           30155                           DCA      MPAC
000470:    6441           50116                           INDEX    ADDRWD
000471:    6442           52001                           DXCH     0
000472:
000473:    6443           10163                           CCS      MODE
000474:    6444           16457                           TCF      TSTORE
000475:    6445           00002                           TC       Q
000476:
000477:    6446           00006        VSTORE             EXTEND
000478:    6447           30160                           DCA      MPAC       +3
000479:    6450           50116                           INDEX    ADDRWD
000480:    6451           52003                           DXCH     2
000481:
000482:    6452           00006                           EXTEND
000483:    6453           30162                           DCA      MPAC       +5
000484:    6454           50116                           INDEX    ADDRWD
000485:    6455           52005                           DXCH     4
000486:    6456           00002                           TC       Q
000487:
000488:    6457           30156        TSTORE             CA       MPAC       +2
000489:    6460           50116                           INDEX    ADDRWD
000490:    6461           54002                           TS       2
000491:    6462           00002                           TC       Q
000492:


000494:                                                                                                  #           ROUTINES TO BEGIN PROCESSING OF THE SECOND ADDRESS ASSOCIATED WITH ALL STORE-TYPE CODES EXCEPT STORE
000495:                                                                                                  #  ITSELF.
000496:
000497:    6463           37735        DODLOAD            CAF      DLOADCOD
000498:    6464           54020                           TS       CYR
000499:    6465           16111                           TCF      DIRADRES                              #  GO GET A DIRECT ADDRESS.
000500:
000501:    6466           34735        DOVLOAD            CAF      VLOADCOD
000502:    6467           54020                           TS       CYR
000503:    6470           16111                           TCF      DIRADRES
000504:
000505:    6471           36112        DOVLOAD*           CAF      VLOAD*
000506:    6472           16150                           TCF      DODLOAD*   +1                         #  PROLOGUE TO INDEX ROUTINE.
000507:


000509:                                                                                                  #           THE FOLLOWING LOAD INSTRUCTIONS ARE PROVIDED FOR LOADING THE MULTI-PURPOSE ACCUMULATOR MPAC.
000510:
000511:    6473           50116        TLOAD              INDEX    ADDRWD
000512:    6474           30002                           CA       2                                     #  LOAD A TRIPLE PRECISION ARGUMENT INTO
000513:    6475           54156                           TS       MPAC       +2                         #  THE FIRST THREE MPAC REGISTERS, WITH THE
000514:    6476           00006                           EXTEND                                         #  CONTENTS OF THE OTHER FOUR IRRELEVANT.
000515:    6477           50116                           INDEX    ADDRWD
000516:    6500           30001                           DCA      0
000517:    6501           52155                           DXCH     MPAC
000518:    6502           34753        TMODE              CAF      ONE
000519:    6503           16063                           TCF      NEWMODE                               #  DECLARE TRIPLE PRECISION MODE.
000520:
000521:    6504           22007        SLOAD              ZL                                             #  LOAD A SINGLE PRECISION NUMBER INTO
000522:    6505           50116                           INDEX    ADDRWD                                #  MPAC, SETTING MPAC+1,2 TO ZERO. THE
000523:    6506           30000                           CA       0                                     #  CONTENTS OF THE REMAINING MPAC REGISTERS
000524:    6507           16060                           TCF      SLOAD2                                #  ARE IRRELEVANT.
000525:
000526:    6510           00006        VLOAD              EXTEND                                         #  LOAD A DOUBLE PRECISION VECTOR INTO
000527:    6511           50116                           INDEX    ADDRWD                                #  MPAC,+1, MPAC+3,4, AND MPAC+5,6. THE
000528:    6512           30001                           DCA      0                                     #  CONTENTS OF MPAC +2 ARE IRRELEVANT.
000529:    6513           52155                           DXCH     MPAC
000530:
000531:    6514           00006        ENDVLOAD           EXTEND                                         #  PDVL COMES HERE TO FINISH UP FOR DP, TP.
000532:    6515           50116                           INDEX    ADDRWD
000533:    6516           30003                           DCA      2
000534:    6517           52160                           DXCH     MPAC       +3
000535:
000536:    6520           00006                 +4        EXTEND                                         #  TPDVL FINISHES HERE.
000537:    6521           50116                           INDEX    ADDRWD
000538:    6522           30005                           DCA      4
000539:    6523           52162                           DXCH     MPAC       +5
000540:
000541:    6524           44753        VMODE              CS       ONE                                   #  DECLARE VECTOR MODE.
000542:    6525           16063                           TCF      NEWMODE
000543:


000545:                                                                                                  #           THE FOLLOWING INSTRUCTIONS ARE PROVIDED FOR STORING OPERANDS IN THE PUSHDOWN LIST:
000546:
000547:                                                                                                  #           1.  PUSH               PUSHDOWN AND NO LOAD.
000548:                                                                                                  #           2.  PDDL               PUSHDOWN AND DOUBLE PRECISION LOAD.
000549:                                                                                                  #           3.  PDVL               PUSHDOWN AND VECTOR LOAD.
000550:
000551:    6526           00006        PDDL               EXTEND
000552:    6527           50116                           INDEX    ADDRWD                                #  LOAD MPAC,+1, PUSHING THE FORMER
000553:    6530           30001                           DCA      0                                     #  CONTENTS DOWN.
000554:    6531           52155                           DXCH     MPAC
000555:    6532           50166                           INDEX    PUSHLOC
000556:    6533           52001                           DXCH     0
000557:
000558:    6534           50163                           INDEX    MODE                                  #  ADVANCE THE PUSHDOWN POINTER APPRO-
000559:    6535           36247                           CAF      NO.WDS                                #  PRIATELY.
000560:    6536           26166                           ADS      PUSHLOC
000561:
000562:    6537           10163                           CCS      MODE
000563:    6540           16555                           TCF      ENDTPUSH
000564:    6541           16553                           TCF      ENDDPUSH
000565:
000566:    6542           54163                           TS       MODE                                  #  NOW DP.
000567:    6543           54156        ENDVPUSH           TS       MPAC       +2
000568:    6544           52160                           DXCH     MPAC       +3                         #  PUSH DOWN THE REST OF THE VECTOR HERE.
000569:    6545           50166                           INDEX    PUSHLOC
000570:    6546           51775                           DXCH     0          -4
000571:
000572:    6547           52162                           DXCH     MPAC       +5
000573:    6550           50166                           INDEX    PUSHLOC
000574:    6551           51777                           DXCH     0          -2
000575:
000576:    6552           16064                           TCF      DANZIG
000577:
000578:    6553           54156        ENDDPUSH           TS       MPAC       +2                         #  SET MPAC +2 TO ZERO AND EXIT ON DP.
000579:    6554           16064                           TCF      DANZIG
000580:
000581:    6555           54163        ENDTPUSH           TS       MODE
000582:    6556           56156                           XCH      MPAC       +2                         #  ON TRIPLE, SET MPAC +2 TO ZERO, PUSHING
000583:    6557           50166                 +2        INDEX    PUSHLOC                               #  DOWN THE OLD CONTENTS
000584:    6560           53777                           TS       0          -1
000585:    6561           16064                           TCF      DANZIG
000586:


000588:                                                                                                  #           PDVL - PUSHDOWN AND VECTOR LOAD.
000589:
000590:    6562           00006        PDVL               EXTEND                                         #  RELOAD MPAC AND PUSH DOWN ITS CONTENTS.
000591:    6563           50116                           INDEX    ADDRWD
000592:    6564           30001                           DCA      0
000593:    6565           52155                           DXCH     MPAC
000594:    6566           50166                           INDEX    PUSHLOC
000595:    6567           52001                           DXCH     0
000596:
000597:    6570           50163                           INDEX    MODE                                  #  ADVANCE THE PUSHDOWN POINTER.
000598:    6571           36247                           CAF      NO.WDS
000599:    6572           26166                           ADS      PUSHLOC
000600:
000601:    6573           10163                           CCS      MODE                                  #  TEST PAST MODE.
000602:    6574           16613                           TCF      TPDVL
000603:    6575           16514                           TCF      ENDVLOAD                              #  JUST LOAD LAST FOUR REGISTERS ON DP.
000604:
000605:    6576           00006        VPDVL              EXTEND                                         #  PUSHDOWN AND RE-LOAD LAST TWO COMPONENTS
000606:    6577           50116                           INDEX    ADDRWD
000607:    6600           30003                           DCA      2
000608:    6601           52160                           DXCH     MPAC       +3
000609:    6602           50166                           INDEX    PUSHLOC
000610:    6603           51775                           DXCH     0          -4
000611:
000612:    6604           00006                           EXTEND
000613:    6605           50116                           INDEX    ADDRWD
000614:    6606           30005                           DCA      4
000615:    6607           52162                           DXCH     MPAC       +5
000616:    6610           50166                           INDEX    PUSHLOC
000617:    6611           51777                           DXCH     0          -2
000618:
000619:    6612           16064                           TCF      DANZIG
000620:
000621:    6613           00006        TPDVL              EXTEND                                         #  ON TP, WE MUST LOAD THE Y COMPONENT
000622:    6614           50116                           INDEX    ADDRWD                                #  BEFORE STORING MPAC +2 IN CASE THIS IS A
000623:    6615           30003                           DCA      2                                     #  PUSHUP.
000624:    6616           52160                           DXCH     MPAC       +3
000625:
000626:    6617           30156                           CA       MPAC       +2
000627:    6620           50166                           INDEX    PUSHLOC                               #  IN DP.
000628:    6621           53777                           TS       0          -1
000629:    6622           16520                           TCF      ENDVLOAD   +4
000630:
000631:                                                                                                  #           SSP (STORE SINGLE PRECISION) IS EXECUTED HERE.
000632:
000633:    6623           24164        SSP                INCR     LOC                                   #  PICK UP THE WORD FOLLOWING THE GIVEN
000634:    6624           50164                           INDEX    LOC                                   #  ADDRESS AND STORE IT AT X.
000635:    6625           30000                           CA       0
000636:    6626           50116        STORE1             INDEX    ADDRWD                                #  SOME INDEX AND MISCELLANEOUS OPS END
000637:    6627           54000                           TS       0                                     #  HERE.
000638:


000640:    6630           16064                           TCF      DANZIG
000641:


000643:                                                                                                  #  SEQUENCE CHANGING AND SUBROUTINE CALLING OPTIONS.
000644:
000645:                                                                                                  #           THE FOLLOWING OPERATIONS ARE AVAILABLE FOR SEQUENCING CHANGING, BRANCHING, AND CALLING SUBROUTINES:
000646:
000647:                                                                                                  #           1.  GOTO               GO TO.
000648:                                                                                                  #           2.  CALL               CALL SUBROUTINE SETTING QPRET.
000649:                                                                                                  #           3.  CGOTO              COMPUTED GO TO.
000650:                                                                                                  #           4.  CCALL              COMPUTED CALL.
000651:                                                                                                  #           7.  BPL                BRANCH IF MPAC POSITIVE OR ZERO.
000652:                                                                                                  #           8.  BZE                BRANCH IF MPAC ZERO.
000653:                                                                                                  #           9.  BMN                BRANCH IF MPAC NEGATIVE NON-ZERO.
000654:
000655:    6631           24164        CCALL              INCR     LOC                                   #  MAINTAIN LOC FOR QPRET COMPUTATION.
000656:    6632           50164                           INDEX    LOC
000657:    6633           30000                           CAF      0                                     #  GET BASE ADDRESS OF CADR LIST.
000658:    6634           50116                           INDEX    ADDRWD
000659:    6635           60000                           AD       0                                     #  ADD INCREMENT.
000660:    6636           54004                           TS       FBANK                                 #  SELECT DESIRED CADR.
000661:    6637           75012                           MASK     LOW10
000662:    6640           50000                           INDEX    A
000663:    6641           32000                           CAF      10000
000664:    6642           54117                           TS       POLISH
000665:
000666:    6643           30165        CALL               CA       BANKSET                               #  FOR ANY OF THE CALL OPTIONS, MAKE UP THE
000667:    6644           74350                           MASK     BANKMASK                              #  ADDRESS OF THE NEXT OP-CODE PAIR/STORE
000668:    6645           64350                           AD       BANKMASK                              #  CODE AND LEAVE IT IN QPRET.  NOTE THAT
000669:    6646           60164                           AD       LOC                                   #  BANKMASK = -(2000 - 1).
000670:    6647           50120                           INDEX    FIXLOC
000671:    6650           54052                           TS       QPRET
000672:
000673:    6651           30117        GOTO               CA       POLISH                                #  BASIC BRANCHING SEQUENCE.
000674:    6652           77745                 +1        MASK     HIGH4
000675:    6653           00006                           EXTEND
000676:    6654           16665                           BZF      GOTOERS                               #  SEE IF ADDRESS POINTS TO FIXED OR ERAS.
000677:    6655           30165                 +4        CA       BANKSET                               #  SET EBANK PART OF BBANK. NEXT, SET UP
000678:    6656           54006                           TS       BBANK                                 #  FBANK. THE COMBINATION IS PICKED UP &
000679:    6657           30117                           CA       POLISH                                #  PUT INTO BANKSET AT INTPRET +2.
000680:    6660           54004                           TS       FBANK
000681:    6661           75012                           MASK     LOW10
000682:    6662           64741                           AD       2K
000683:    6663           54164                           TS       LOC
000684:    6664           16045                           TCF      INTPRET    +3
000685:
000686:    6665  E3,1400                                  EBANK=   1400                                  #  SO YUL DOESN'T CUSS THE "CA 1400" BELOW.
000687:
000688:    6665           30117        GOTOERS            CA       POLISH                                #  THE GIVEN ADDRESS IS IN ERASABLE - SEE
000689:    6666           66254                           AD       -ENDVAC                               #  IF RELATIVE TO THE WORK AREA.
000690:    6667           10000                           CCS      A
000691:    6670           30117                           CA       POLISH                                #  GENERAL ERASABLE.
000692:    6671           16700                           TCF      GOTOGE
000693:


000695:    6672           30120                           CA       FIXLOC                                #  WORK AREA.
000696:    6673           60117                           AD       POLISH
000697:    6674           50000                           INDEX    A                                     #  USE THE GIVEN ADDRESS AS THE ADDRESS OF
000698:    6675           30000                           CA       0                                     #  THE BRANCH ADDRESS.
000699:    6676           54117                           TS       POLISH
000700:    6677           16652                           TCF      GOTO       +1                         #  ALLOWS ARBITRARY INDIRECTNESS LEVELS.
000701:
000702:    6700           54003        GOTOGE             TS       EBANK
000703:    6701           74357                           MASK     LOW8
000704:    6702           50000                           INDEX    A                                     #  USE THE GIVEN ADDRESS AS THE ADDRESS OF
000705:    6703           31400                           CA       1400                                  #  THE BRANCH ADDRESS.
000706:    6704           54117                           TS       POLISH
000707:    6705           16652                           TCF      GOTO       +1
000708:
000709:    6706           50164        CGOTO              INDEX    LOC                                   #  COMPUTED GO TO. PICK UP ADDRESS OF CADR
000710:    6707           30001                           CA       1                                     #  LIST.
000711:    6710           50116                           INDEX    ADDRWD                                #  ADD MODIFIER.
000712:    6711           60000                           AD       0
000713:    6712           54004                           TS       FBANK                                 #  SELECT GOTO ADDRESS.
000714:    6713           75012                           MASK     LOW10
000715:    6714           50000                           INDEX    A
000716:    6715           32000                           CA       10000
000717:    6716           54117                           TS       POLISH
000718:    6717           16652                           TCF      GOTO       +1                         #  WITH ADDRESS IN A.
000719:
000720:    6720           30165        SWBRANCH           CA       BANKSET                               #  SWITCH INSTRUCTIONS WHICH ELECT TO
000721:    6721           54004                           TS       FBANK                                 #  BRANCH COME HERE TO DO SO.
000722:    6722           50164                           INDEX    LOC
000723:    6723           30001                           CA       1
000724:    6724           54117                           TS       POLISH
000725:    6725           16652                           TCF      GOTO       +1
000726:


000728:                                                                                                  #           TRIPLE PRECISION BRANCHING ROUTINE. IF CALLING TC IS AT L, RETURN IS AS FOLLOWS:
000729:
000730:                                                                                                  #           L+1  IF MPAC IS GREATER THAN ZERO.
000731:                                                                                                  #           L+2  IF MPAC IS EQUAL TO +0 OR -0.
000732:                                                                                                  #           L+3  IF MPAC IS LESS THAN ZERO.
000733:
000734:    6726           10154        BRANCH             CCS      MPAC
000735:    6727           00002                           TC       Q
000736:    6730           16732                           TCF      +2                                    #  ON ZERO.
000737:    6731           16744                           TCF      NEG
000738:
000739:    6732           10155                           CCS      MPAC       +1
000740:    6733           00002                           TC       Q
000741:    6734           16736                           TCF      +2
000742:    6735           16744                           TCF      NEG
000743:
000744:    6736           10156                           CCS      MPAC       +2
000745:    6737           00002                           TC       Q
000746:    6740           16742                           TCF      +2
000747:    6741           16744                           TCF      NEG
000748:
000749:    6742           50002        Q+1                INDEX    Q
000750:    6743           00001                           TC       1
000751:
000752:    6744           50002        NEG                INDEX    Q                                     #  IF FIRST NON-ZERO REGISTER WAS NEGATIVE.
000753:    6745           00002                           TC       2
000754:
000755:    6746     6744               Q+2                =        NEG
000756:
000757:                                                                                                  #           ITRACE (3) REFERS TO "EXIT".
000758:
000759:    6746           30165        EXIT               CA       BANKSET                               #  RESTORE USER'S BANK SETTING, AND LEAVE
000760:    6747           54006                           TS       BBANK                                 #  INTERPRETIVE MODE.
000761:    6750           50164                           INDEX    LOC
000762:    6751           00001                           TC       1
000763:


000765:                                                                                                  #  SECTION 3 - ADD/SUBTRACT PACKAGE.
000766:
000767:                                                                                                  #           THE FOLLOWING OPERATIONS ARE PROVIDED FOR ADDING TO AND SUBTRACTING FROM THE MULTI-PURPOSE ACCUMULATOR
000768:                                                                                                  #  MPAC:
000769:
000770:                                                                                                  #           1.  DAD                DOUBLE PRECISION ADD.
000771:                                                                                                  #           2.  DSU                DOUBLE PRECISION SUBTRACT.
000772:                                                                                                  #           3.  BDSU               DOUBLE PRECISION SUBTRACT FROM.
000773:
000774:                                                                                                  #           4.  TAD                TRIPLE PRECISION ADD.
000775:
000776:                                                                                                  #           5.  VAD                VECTOR ADD.
000777:                                                                                                  #           6.  VSU                VECTOR SUBTRACT.
000778:                                                                                                  #           7.  BVSU               VECTOR SUBTRACT FROM.
000779:
000780:                                                                                                  #  THE INTERPRETIVE OVERFLOW INDICATOR OVFIND IS SET NON-ZERO IF OVERFLOW OCCURS IN ANY OF THE ABOVE.
000781:
000782:
000783:    6752           34735        VSU                CAF      BIT15                                 #  CHANGES 0 TO DCS.
000784:    6753           16755                           TCF      +2
000785:
000786:    6754           34355        VAD                CAF      PRIO30                                #  CHANGES 0 TO DCA.
000787:    6755           26116                           ADS      ADDRWD
000788:    6756           00006                           EXTEND
000789:    6757           50116                           INDEX    ADDRWD
000790:    6760           00003                           READ     HISCALAR                              #  DCA  2   OR   DCS  2
000791:    6761           20160                           DAS      MPAC       +3
000792:    6762           00006                           EXTEND                                         #  CHECK OVERFLOW.
000793:    6763           16765                           BZF      +2
000794:    6764           07017                           TC       OVERFLWY
000795:
000796:    6765           00006                           EXTEND
000797:    6766           50116                           INDEX    ADDRWD
000798:    6767           00005                           READ     CHAN5                                 #  DCA  4  OR  DCS  4
000799:    6770           20162                           DAS      MPAC       +5
000800:    6771           00006                           EXTEND
000801:    6772           16774                           BZF      +2
000802:    6773           07014                           TC       OVERFLWZ
000803:
000804:    6774           00006                           EXTEND
000805:    6775           50116                           INDEX    ADDRWD
000806:    6776           00001                           READ     LCHAN                                 #  DCA  0  OR  DCS  0
000807:    6777           17003                           TCF      ENDVXV
000808:
000809:    7000           00006        DAD                EXTEND
000810:    7001           50116                           INDEX    ADDRWD
000811:    7002           30001                           DCA      0
000812:    7003           20155        ENDVXV             DAS      MPAC                                  #  VXV FINISHES HERE.
000813:    7004           00006                           EXTEND
000814:    7005           16064                           BZF      DANZIG
000815:


000817:    7006           07022        SETOVF             TC       OVERFLOW
000818:    7007           16064                           TCF      DANZIG
000819:


000821:    7010           00006        DSU                EXTEND
000822:    7011           50116                           INDEX    ADDRWD
000823:    7012           40001                           DCS      0
000824:    7013           17003                           TCF      ENDVXV
000825:
000826:    7014           54001        OVERFLWZ           TS       L                                     #  ENTRY FOR THIRD COMPONENT.
000827:    7015           34756                           CAF      FIVE
000828:    7016           17021                           TCF      +3
000829:
000830:    7017           54001        OVERFLWY           TS       L                                     #  ENTRY FOR SECOND COMPONENT.
000831:    7020           36250                           CAF      THREE
000832:    7021           56001                           XCH      L
000833:
000834:    7022           50000        OVERFLOW           INDEX    A                                     #  ENTRY FOR 1ST COMP OR DP (L=0).
000835:    7023           44734                           CS       LIMITS                                #  PICK UP POSMAX OR NEGMAX.
000836:    7024           54130                           TS       BUF
000837:    7025           00006                           EXTEND
000838:    7026           24000                           AUG      A                                     #  FORCE OVERFLOW.
000839:    7027           50001                           INDEX    L
000840:    7030           26155                           ADS      MPAC       +1
000841:    7031           54007                           TS       7
000842:    7032           34755                           CAF      ZERO
000843:    7033           60130                           AD       BUF
000844:    7034           50001                           INDEX    L
000845:    7035           26154                           ADS      MPAC
000846:    7036           54007                           TS       7
000847:    7037           00002                           TC       Q                                     #  NO OVERFLOW EXIT.
000848:    7040           17155                           TCF      SETOVF2                               #  SET OVFIND AND EXIT.
000849:
000850:    7041           00006        BVSU               EXTEND
000851:    7042           50116                           INDEX    ADDRWD
000852:    7043           30003                           DCA      2
000853:    7044           52160                           DXCH     MPAC       +3
000854:    7045           00006                           EXTEND
000855:    7046           40001                           DCOM
000856:    7047           20160                           DAS      MPAC       +3
000857:    7050           00006                           EXTEND
000858:    7051           17053                           BZF      +2
000859:    7052           07017                           TC       OVERFLWY
000860:
000861:    7053           00006                           EXTEND
000862:    7054           50116                           INDEX    ADDRWD
000863:    7055           30005                           DCA      4
000864:    7056           52162                           DXCH     MPAC       +5
000865:    7057           00006                           EXTEND
000866:    7060           40001                           DCOM
000867:    7061           20162                           DAS      MPAC       +5
000868:    7062           00006                           EXTEND
000869:    7063           17065                           BZF      +2
000870:    7064           07014                           TC       OVERFLWZ
000871:


000873:    7065           00006        BDSU               EXTEND
000874:    7066           50116                           INDEX    ADDRWD
000875:    7067           30001                           DCA      0
000876:    7070           52155                           DXCH     MPAC
000877:    7071           00006                           EXTEND
000878:    7072           40001                           DCOM
000879:    7073           17003                           TCF      ENDVXV
000880:


000882:                                                                                                  #           TRIPLE PRECISION ADD ROUTINE.
000883:
000884:    7074           00006        TAD                EXTEND
000885:    7075           50116                           INDEX    ADDRWD
000886:    7076           30002                           DCA      1                                     #  ADD MINOR PARTS FIRST.
000887:    7077           20156                           DAS      MPAC       +1
000888:    7100           50116                           INDEX    ADDRWD
000889:    7101           60000                           AD       0
000890:    7102           60154                           AD       MPAC
000891:    7103           54154                           TS       MPAC
000892:    7104           16064                           TCF      DANZIG
000893:
000894:    7105           17006                           TCF      SETOVF                                #  SET OVFIND IF SUCH OCCURS.
000895:


000897:                                                                                                  #  ARITHMETIC SUBROUTINES REQUIRED IN FIXED-FIXED.
000898:
000899:                                                                                                  #           1.  DMPSUB     DOUBLE PRECISION MULTIPLY. MULTIPLY THE CONTENTS OF MPAC,+1 BY THE DP WORD WHOSE ADDRESS
000900:                                                                                                  #                          IS IN ADDRWD AND LEAVE A TRIPLE PRECISION RESULT IN MPAC.
000901:                                                                                                  #           2.  ROUNDSUB   ROUND THE TRIPLE PRECISON CONTENTS OF MPAC TO DOUBLE PRECISION.
000902:                                                                                                  #           3.  DOTSUB     TAKE THE DOT PRODUCT OF THE VECTOR IN MPAC AND THE VECTOR WHOSE ADDRESS IS IN ADDRWD
000903:                                                                                                  #                          AND LEAVE THE TRIPLE PRECISION RESULT IN MPAC.
000904:                                                                                                  #           4.  POLY       USING THE CONTENTS OF MPAC AS A DP ARGUMENT, EVALUATE THE POLYNOMIAL WHOSE DEGREE AND
000905:                                                                                                  #                          COEFFICIENTS IMMEDIATELY FOLLOW THE TC POLY INSTRUCTION (SEE ROUTINE FOR DETAILS.)
000906:
000907:    7106           50002        DMP                INDEX    Q                                     #  BASIC SUBROUTINE FOR USE BY PINBALL, ETC
000908:    7107           30000                           CAF      0                                     #  ADRES OF ARGUMENT FOLLOWS  TC DMP  .
000909:    7110           24002                           INCR     Q
000910:    7111           54116                 -1        TS       ADDRWD                                #  (PROLOGUE FOR SETTING ADDRWD.)
000911:
000912:    7112           50116        DMPSUB             INDEX    ADDRWD                                #  GET MINOR PART OF OPERAND AT C(ADDRWD).
000913:    7113           30001                           CA       1
000914:    7114           54156                           TS       MPAC       +2                         #  THIS WORKS FOR SQUARING MPAC AS WELL.
000915:    7115           34755                           CAF      ZERO                                  #  SET MPAC +1 TO ZERO SO WE CAN ACCUMULATE
000916:    7116           56155                           XCH      MPAC       +1                         #  THE PARTIAL PRODUCTS WITH DAS
000917:    7117           54135                           TS       MPTEMP                                #  INSTRUCTIONS.
000918:    7120           00006                           EXTEND
000919:    7121           70156                           MP       MPAC       +2                         #  MINOR OF MPAC X MINOR OF C(ADDRWD).
000920:
000921:    7122           56156                           XCH      MPAC       +2                         #  DISCARD MINOR PART OF ABOVE RESULT AND
000922:    7123           00006                           EXTEND                                         #  FORM MAJOR OF MPAC X MINOR OF C(ADDRWD).
000923:    7124           70154                           MP       MPAC
000924:    7125           20156                           DAS      MPAC       +1                         #  GUARANTEED NO OVERFLOW.
000925:
000926:    7126           50116                           INDEX    ADDRWD                                #  GET MAJOR PART OF ARGUMENT AT C(ADDRWD).
000927:    7127           30000                           CA       0
000928:    7130           56135                           XCH      MPTEMP                                #  SAVE AND BRING OUT MINOR OF MPAC.
000929:    7131           00006        DMPSUB2            EXTEND
000930:    7132           70135                           MP       MPTEMP                                #  MAJOR OF C(ADDRWD) X MINOR OF MPAC.
000931:    7133           20156                           DAS      MPAC       +1                         #  ACCUMULATE, SETTING A TO NET OVERFLOW.
000932:
000933:    7134           56154                           XCH      MPAC                                  #  SETTING MPAC TO 0 OR +-1.
000934:    7135           00006                           EXTEND
000935:    7136           70135                           MP       MPTEMP                                #  MAJOR OF MPAC X MAJOR OF C(ADDRWD).
000936:    7137           20155                           DAS      MPAC                                  #  GUARANTEED NO OVERFLOW.
000937:    7140           00002                           TC       Q                                     #  49 MCT = .573 MS. INCLUDING RETURN.
000938:


000940:                                                                                                  #           ROUND MPAC TO DOUBLE PRECISION, SETTING OVFIND ON THE RARE EVENT OF OVERFLOW.
000941:
000942:    7141           34755        ROUNDSUB           CAF      ZERO                                  #  SET MPAC +2 = 0 FOR SCALARS AND CHANGE
000943:    7142           54163                 +1        TS       MODE                                  #  MODE TO DP.
000944:
000945:    7143           56156        VROUND             XCH      MPAC       +2                         #  BUT WE NEEDNT TAKE THE TIME FOR VECTORS.
000946:    7144           60000                           DOUBLE
000947:    7145           54001                           TS       L
000948:    7146           00002                           TC       Q
000949:
000950:    7147           60155                           AD       MPAC       +1                         #  ADD ROUNDING BIT IF MPAC +2 WAS GREATER
000951:    7150           54155                           TS       MPAC       +1                         #  THAN .5 IN MAGNITUDE.
000952:    7151           00002                           TC       Q
000953:
000954:    7152           60154                           AD       MPAC                                  #  PROPAGATE INTERFLOW.
000955:    7153           54154                           TS       MPAC
000956:    7154           00002                           TC       Q
000957:
000958:    7155           54121        SETOVF2            TS       OVFIND                                #  (RARE).
000959:    7156           00002                           TC       Q
000960:


000962:                                                                                                  #           THE DOT PRODUCT SUBROUTINE USUALLY FORMS THE DOT PRODUCT OF THE VECTOR IN MPAC WITH A STANDARD SIX
000963:                                                                                                  #  REGISTER VECTOR WHOSE ADDRESS IS IN ADDRWD. IN THIS CASE C(DOTINC) ARE SET TO 2. VXM, HOWEVER, SETS C(DOTINC) TO
000964:                                                                                                  #  6 SO THAT DOTSUB DOTS MPAC WITH A COLUMN VECTOR OF THE MATRIX IN QUESTION IN THIS CASE.
000965:
000966:
000967:    7157           34752        PREDOT             CAF      TWO                                   #  PROLOGUE TO SET DOTINC TO 2.
000968:    7160           54136                           TS       DOTINC
000969:
000970:    7161           00006        DOTSUB             EXTEND
000971:    7162           22137                           QXCH     DOTRET                                #  SAVE RETURN.
000972:    7163           07112                           TC       DMPSUB                                #  DOT X COMPONENTS.
000973:    7164           52160                           DXCH     MPAC       +3                         #  POSITION Y COMPONENT OF MPAC FOR
000974:    7165           52155                           DXCH     MPAC                                  #  MULTIPLICATION WHILE SAVING RESULT IN
000975:    7166           52131                           DXCH     BUF                                   #  THREE WORD BUFFER, BUF.
000976:    7167           30156                           CA       MPAC       +2
000977:    7170           54132                           TS       BUF        +2
000978:
000979:    7171           30136                           CA       DOTINC                                #  ADVANCE ADDRWD TO Y COMPONENT OF
000980:    7172           26116                           ADS      ADDRWD                                #  OTHER ARGUMENT.
000981:    7173           07112                           TC       DMPSUB
000982:    7174           52156                           DXCH     MPAC       +1                         #  ACCUMULATE PARTIAL PRODUCTS.
000983:    7175           20132                           DAS      BUF        +1
000984:    7176           60154                           AD       MPAC
000985:    7177           60130                           AD       BUF
000986:    7200           54130                           TS       BUF
000987:    7201           17203                           TCF      +2
000988:    7202           54121                           TS       OVFIND                                #  IF OVERFLOW OCCURS.
000989:
000990:    7203           52162                           DXCH     MPAC       +5                         #  MULTIPLY Z COMPONENTS.
000991:    7204           52155                           DXCH     MPAC
000992:    7205           30136                           CA       DOTINC
000993:    7206           26116                           ADS      ADDRWD
000994:    7207           07112                           TC       DMPSUB
000995:    7210           52132        ENDDOT             DXCH     BUF        +1                         #  LEAVE FINAL ACCUMULATION IN MPAC.
000996:    7211           20156                           DAS      MPAC       +1
000997:    7212           60154                           AD       MPAC
000998:    7213           60130                           AD       BUF
000999:    7214           54154                           TS       MPAC
001000:    7215           00137                           TC       DOTRET
001001:
001002:    7216           07022                           TC       OVERFLOW                              #  ON OVERFLOW HERE.
001003:    7217           00137                           TC       DOTRET
001004:


001006:                                                                                                  #  DOUBLE PRECISION POLYNOMIAL EVALUATOR
001007:
001008:                                                                                                  #                                     N        N-1
001009:                                                                                                  #           THIS ROUTINE EVALUATES A X  + A   X    + ... + A  X + A  LEAVING THE DP RESULT IN MPAC ON EXIT.
001010:                                                                                                  #                                   N      N-1              1      0
001011:
001012:                                                                                                  #  THE ROUTINE HAS TWO ENTRIES
001013:
001014:                                                                                                  #           1. ENTRY THRU POWRSERS. THE COEFFICIENTS MAY BE EITHER IN FIXED OR ERASABLE, THE CALL IS BY
001015:                                                                                                  #              TC POWRSERS, AND THE RETURN IS TO LOC(TC POWRSERS)+1. THE ENTERING DATA MUST BE AS FOLLOWS
001016:
001017:                                                                                                  #                                          A        SP     LOC-3           ADDRESS FOR REFERENCING COEF TABLE
001018:                                                                                                  #                                          L        SP     N-1             N IS THE DEGREE OF THE POWER SERIES
001019:                                                                                                  #                                          MPAC     DP     X               ARGUMENT
001020:
001021:                                                                                                  #                                          LOC-2N   DP     A(0)
001022:                                                                                                  #                                                   ...
001023:                                                                                                  #                                          LOC      DP     A(N)
001024:
001025:                                                                                                  #           2. ENTRY THRU POLY. THE CALL TO POLY AND THE ENTERING DATA MUST BE AS FOLLOWS
001026:
001027:                                                                                                  #                                          MPAC     DP     X               ARGUMENT
001028:
001029:                                                                                                  #                                          LOC      TC     POLY
001030:                                                                                                  #                                          LOC+1    SP     N-1
001031:                                                                                                  #                                          LOC+2    DP     A(0)
001032:                                                                                                  #                                                   ...
001033:                                                                                                  #                                          LOC+2N+2 DP     A(N)            RETURN IS TO LOC+2N+4
001034:
001035:    7220           00006        POWRSERS           EXTEND
001036:    7221           22141                           QXCH     POLYRET                               #  RETURN ADDRESS
001037:    7222           54117                           TS       POLISH                                #  POWER SERIES ADDRESS
001038:    7223           22140                           LXCH     POLYCNT                               #  N-1 TO COUNTER
001039:    7224           17235                           TCF      POLYCOM                               #  SKIP SET UP BY POLY
001040:
001041:    7225           50002        POLY               INDEX    Q
001042:    7226           30000                           CAF      0
001043:    7227           54140                           TS       POLYCNT                               #  N-1 TO COUNTER
001044:    7230           60000                           DOUBLE
001045:    7231           60002                           AD       Q
001046:    7232           54117                           TS       POLISH                                #  L(A(N))-3 TO POLISH
001047:    7233           64756                           AD       FIVE
001048:    7234           54141                           TS       POLYRET                               #  STORE RETURN ADDRESS
001049:
001050:    7235           36276        POLYCOM            CAF      LVBUF                                 #  INCOMING X WILL BE MOVED TO VBUF, SO
001051:    7236           54116                           TS       ADDRWD                                #  SET ADDRWD SO DMPSUB WILL MPY BY VBUF.
001052:
001053:    7237           00006                           EXTEND
001054:    7240           50117                           INDEX    POLISH
001055:    7241           30004                           DCA      3
001056:


001058:    7242           52155                           DXCH     MPAC                                  #  LOAD A(N) INTO MPAC,
001059:    7243           52123                           DXCH     VBUF                                  #  SAVING X IN VBUF
001060:    7244           17250                           TCF      POLY2
001061:
001062:    7245           54140        POLYLOOP           TS       POLYCNT                               #  SAVE DECREMENTED LOOP COUNTER
001063:    7246           44752                           CS       TWO
001064:    7247           26117                           ADS      POLISH                                #  REGRESS COEFFICIENT POINTER
001065:
001066:    7250           07112        POLY2              TC       DMPSUB                                #  MULTIPLY BY X
001067:    7251           00006                           EXTEND
001068:    7252           50117                           INDEX    POLISH
001069:    7253           30002                           DCA      1                                     #  ADD IN NEXT COEFFICIENT
001070:    7254           20155                           DAS      MPAC                                  #  USERS RESPONSIBILITY TO ASSURE NO OVFLOW
001071:
001072:    7255           10140                           CCS      POLYCNT
001073:    7256           17245                           TCF      POLYLOOP
001074:    7257           00141                           TC       POLYRET                               #  RETURN CALLER
001075:


001077:                                                                                                  #           MISCELLANEOUS MULTI-PRECISION ROUTINES REQUIRED IN FIXED-FIXED BUT NOT USED BY THE INTERPRETER.
001078:
001079:    7260           34755        DPAGREE            CAF      ZERO                                  #  DOUBLE PRECISION ENTRY -
001080:    7261           54156                           TS       MPAC       +2                         #  ZERO LOW-ORDER WORD
001081:
001082:    7262           22002        TPAGREE            LXCH     Q                                     #  FORCE SIGN AGREEMENT AMONG THE TRIPLE
001083:    7263           06726                           TC       BRANCH                                #  PRECISION CONTENTS OF MPAC.  RETURNING
001084:    7264           17270                           TCF      ARG+                                  #  WITH SIGNUM OF THE INPUT IN A.
001085:    7265           17310                           TCF      ARGZERO
001086:
001087:    7266           44733                           CS       POSMAX                                #  IF NEGATIVE.
001088:    7267           17271                           TCF      +2
001089:
001090:    7270           34733        ARG+               CAF      POSMAX
001091:    7271           54002                           TS       Q
001092:    7272           00006                           EXTEND
001093:    7273           24000                           AUG      A                                     #  FORMS +-1.0.
001094:    7274           60156                           AD       MPAC       +2
001095:    7275           54156                           TS       MPAC       +2
001096:    7276           34755                           CAF      ZERO
001097:    7277           60002                           AD       Q
001098:    7300           60155                           AD       MPAC       +1
001099:    7301           54155                           TS       MPAC       +1
001100:    7302           34755                           CAF      ZERO
001101:    7303           60002                           AD       Q                                     #  Q STILL HAS POSMAX OR NEGMAX IN IT.
001102:    7304           60154                           AD       MPAC
001103:    7305           54154        ARGZERO2           TS       MPAC                                  #  ALWAYS SKIPPING UNLESS ARGZERO.
001104:    7306           54155                           TS       MPAC       +1
001105:    7307           00001                           TC       L                                     #  RETURN VIA L.
001106:
001107:    7310           54156        ARGZERO            TS       MPAC       +2                         #  SET ALL THREE MPAC REGISTERS TO ZERO.
001108:    7311           17305                           TCF      ARGZERO2
001109:
001110:                                                                                                  #           SHORTMP MULTIPLIES THE TP CONTENTS OF MPAC BY THE SINGLE PRECISION NUMBER ARRIVING IN A.
001111:
001112:    7312           54135        SHORTMP            TS       MPTEMP
001113:    7313           00006                           EXTEND
001114:    7314           70156                           MP       MPAC       +2
001115:    7315           54156                           TS       MPAC       +2
001116:    7316           34755        SHORTMP2           CAF      ZERO                                  #  SO SUBSEQUENT DAS WILL WORK.
001117:    7317           56155                           XCH      MPAC       +1
001118:    7320           17131                           TCF      DMPSUB2
001119:


001121:                                                                                                  #         DMPNSUB MULTIPLIES THE DP FRACTION ARRIVING IN MPAC BY THE SP
001122:                                                                                                  #  INTEGER ARRIVING IN A.  THE DP PRODUCT DEPARTS BOTH IN MPAC AND IN
001123:                                                                                                  #  A AND L.  NOTE THAT DMPNSUB NORMALLY INCREASES THE MAGNITUDE OF THE
001124:                                                                                                  #  CONTENTS OF MPAC.  THE CUSTOMER MUST INSURE THAT B(A) X B(MPAC,MPAC+1)
001125:                                                                                                  #  AND B(A) X B(MPAC) ARE LESS THAN 1 IN MAGNITUDE, WHERE B, AS IS OBVIOUS,
001126:                                                                                                  #  INDICATES THE ARRIVING CONTENTS.
001127:
001128:    7321           54135        DMPNSUB            TS       DMPNTEMP
001129:    7322           00006                           EXTEND
001130:    7323           70155                           MP       MPAC       +1
001131:    7324           52155                           DXCH     MPAC                                  #  LOW PRODUCT TO MPAC, HIGH FACTOR TO A
001132:    7325           00006                           EXTEND
001133:    7326           70135                           MP       DMPNTEMP
001134:    7327           30001                           CA       L
001135:    7330           26154                           ADS      MPAC                                  #  COMPLETING THE PRODUCT IN MPAC
001136:    7331           00006                           EXTEND
001137:    7332           30155                           DCA      MPAC                                  #  BRINGING THE PRODUCT INTO A AND L
001138:    7333           00002                           TC       Q
001139:


001141:                                                                                                  #  MISCELLANEOUS VECTOR OPERATIONS. INCLUDED HERE ARE THE FOLLOWING:
001142:
001143:                                                                                                  #           1. DOT                 DP VECTOR DOT PRODUCT.
001144:                                                                                                  #           2. VXV                 DP VECTOR CROSS PRODUCT.
001145:                                                                                                  #           3. VXSC                DP VECTOR TIMES SCALAR.
001146:                                                                                                  #           4. V/SC                DP VECTOR DIVIDED BY SCALAR.
001147:                                                                                                  #           5. VPROJ               DP VECTOR PROJECTION.  ( (MPAC.X)MPAC ).
001148:                                                                                                  #           6. VXM                 DP VECTOR POST-MULTIPLIED BY MATRIX.
001149:                                                                                                  #           7. MXV                 DP VECTOR PRE-MULTIPLIED BY MATRIX.
001150:
001151:
001152:    7334           07157        DOT                TC       PREDOT                                #  DO THE DOT PRODUCT AND EXIT, CHANGING
001153:    7335           34755        DMODE              CAF      ZERO                                  #  THE MODE TO DP SCALAR.
001154:    7336           16063                           TCF      NEWMODE
001155:
001156:
001157:    7337           34752        MXV                CAF      TWO                                   #  SET UP MATINC AND DOTINC FOR ROW
001158:    7340           54140                           TS       MATINC                                #  VECTORS.
001159:    7341           17345                           TCF      VXM/MXV                               #  GO TO COMMON PORTION.
001160:
001161:    7342           44363        VXM                CS       TEN                                   #  SET MATINC AND DOTINC TO REFER TO MATRIX
001162:    7343           54140                           TS       MATINC                                #  AS THREE COLUMN VECTORS.
001163:    7344           36245                           CAF      SIX
001164:


001166:                                                                                                  #           COMMON PORTION OF MXV AND VXM.
001167:
001168:    7345           54136        VXM/MXV            TS       DOTINC
001169:                                                                                                  #           ITRACE (2) REFERS TO "VXM/MXV".
001170:    7346           07535                           TC       MPACVBUF                              #  SAVE VECTOR IN MPAC FOR FURTHER USE.
001171:
001172:    7347           07161                           TC       DOTSUB                                #  GO DOT TO GET X COMPONENT OF ANSWER.
001173:    7350           00006                           EXTEND
001174:    7351           30123                           DCA      VBUF                                  #  MOVE MPAC VECTOR BACK INTO MPAC, SAVING
001175:    7352           52155                           DXCH     MPAC                                  #  NEW X COMPONENT IN BUF2.
001176:    7353           52134                           DXCH     BUF2
001177:    7354           00006                           EXTEND
001178:    7355           30125                           DCA      VBUF       +2
001179:    7356           52160                           DXCH     MPAC       +3
001180:    7357           00006                           EXTEND
001181:    7360           30127                           DCA      VBUF       +4
001182:    7361           52162                           DXCH     MPAC       +5
001183:    7362           30140                           CA       MATINC                                #  INITIALIZE ADDRWD FOR NEXT DOT PRODUCT.
001184:    7363           26116                           ADS      ADDRWD                                #  FORMS BASE ADDRESS OF NEXT COLUMN(ROW).
001185:
001186:    7364           07161                           TC       DOTSUB
001187:    7365           52123                           DXCH     VBUF                                  #  MOVE GIVEN VECTOR BACK TO MPAC, SAVING Y
001188:    7366           52155                           DXCH     MPAC                                  #  COMPONENT OF ANSWER IN VBUF +2.
001189:    7367           52125                           DXCH     VBUF       +2
001190:    7370           52160                           DXCH     MPAC       +3
001191:    7371           52127                           DXCH     VBUF       +4
001192:    7372           52162                           DXCH     MPAC       +5
001193:    7373           30140                           CA       MATINC                                #  FORM ADDRESS OF LAST COLUMN OR ROW.
001194:    7374           26116                           ADS      ADDRWD
001195:
001196:    7375           07161                           TC       DOTSUB
001197:    7376           52134                           DXCH     BUF2                                  #  ANSWER NOW COMPLETE. PUT COMPONENTS INTO
001198:    7377           52155                           DXCH     MPAC                                  #  PROPER MPAC REGISTERS.
001199:    7400           52162                           DXCH     MPAC       +5
001200:    7401           52125                           DXCH     VBUF       +2
001201:    7402           52160                           DXCH     MPAC       +3
001202:    7403           16064                           TCF      DANZIG                                #  EXIT.
001203:


001205:                                                                                                  #           VXSC - VECTOR TIMES SCALAR.
001206:
001207:    7404           10163        VXSC               CCS      MODE                                  #  TEST PRESENT MODE.
001208:    7405           17433                           TCF      DVXSC                                 #  SEPARATE ROUTINE WHEN SCALAR IS IN MPAC.
001209:    7406           17433                           TCF      DVXSC
001210:
001211:    7407           07112        VVXSC              TC       DMPSUB                                #  COMPUTE X COMPONENT
001212:    7410           07143                           TC       VROUND                                #  AND ROUND IT.
001213:    7411           52160                           DXCH     MPAC       +3                         #  PUT Y COMPONENT INTO MPAC SAVING MPAC IN
001214:    7412           52155                           DXCH     MPAC                                  #  MPAC +3.
001215:    7413           52160                           DXCH     MPAC       +3
001216:
001217:    7414           07112                           TC       DMPSUB                                #  DO SAME FOR Y AND Z COMPONENTS.
001218:    7415           07143                           TC       VROUND
001219:    7416           52162                           DXCH     MPAC       +5
001220:    7417           52155                           DXCH     MPAC
001221:    7420           52162                           DXCH     MPAC       +5
001222:
001223:    7421           07112                           TC       DMPSUB
001224:    7422           07143                           TC       VROUND
001225:    7423           52155        VROTATEX           DXCH     MPAC                                  #  EXIT USED TO RESTORE MPAC AFTER THIS
001226:    7424           52162                           DXCH     MPAC       +5                         #  TYPE OF ROTATION. CALLED BY VECTOR SHIFT
001227:    7425           52160                           DXCH     MPAC       +3                         #  RIGHT, V/SC, ETC.
001228:    7426           52155                           DXCH     MPAC
001229:    7427           16064                           TCF      DANZIG
001230:


001232:                                                                                                  #           DP VECTOR PROJECTION ROUTINE.
001233:
001234:    7430           07157        VPROJ              TC       PREDOT                                #  (MPAC.X)MPAC IS COMPUTED AND LEFT IN
001235:    7431           44751                           CS       FOUR                                  #  MPAC. DO DOT AND FALL INTO DVXSC.
001236:    7432           26116                           ADS      ADDRWD
001237:
001238:                                                                                                  #           VXSC WHEN SCALAR ARRIVES IN MPAC AND VECTOR IS AT X.
001239:
001240:    7433           00006        DVXSC              EXTEND                                         #  SAVE SCALAR IN MPAC +3 AND GET X
001241:    7434           30155                           DCA      MPAC                                  #  COMPONENT OF ANSWER.
001242:    7435           52160                           DXCH     MPAC       +3
001243:    7436           07112                           TC       DMPSUB
001244:    7437           07143                           TC       VROUND
001245:
001246:    7440           34752                           CAF      TWO                                   #  ADVANCE ADDRWD TO Y COMPONENT OF X.
001247:    7441           26116                           ADS      ADDRWD
001248:    7442           00006                           EXTEND
001249:    7443           30160                           DCA      MPAC       +3                         #  PUT SCALAR BACK INTO MPAC AND SAVE
001250:    7444           52155                           DXCH     MPAC                                  #  X RESULT IN MPAC +5.
001251:    7445           52162                           DXCH     MPAC       +5
001252:    7446           07112                           TC       DMPSUB
001253:    7447           07143                           TC       VROUND
001254:
001255:    7450           34752                           CAF      TWO
001256:    7451           26116                           ADS      ADDRWD                                #  TO Z COMPONENT.
001257:    7452           52160                           DXCH     MPAC       +3                         #  BRING SCALAR BACK, PUTTING Y RESULT IN
001258:    7453           52155                           DXCH     MPAC                                  #  THE PROPER PLACE.
001259:    7454           52160                           DXCH     MPAC       +3
001260:    7455           07112                           TC       DMPSUB
001261:    7456           07143                           TC       VROUND
001262:
001263:    7457           52155                           DXCH     MPAC                                  #  PUT Z COMPONENT IN PROPER PLACE, ALSO
001264:    7460           52162                           DXCH     MPAC       +5                         #  POSITIONING X.
001265:    7461           52155                           DXCH     MPAC
001266:
001267:    7462           16524                           TCF      VMODE                                 #  MODE HAS CHANGED TO VECTOR.
001268:


001270:                                                                                                  #           THE VECTOR CROSS PRODUCT ROUTINE CALCULATES (X M -X M ,X M -X M ,X M -X M ) WHERE M IS THE VECTOR IN
001271:                                                                                                  #                                                         3 2  2 3  1 3  3 1  2 1  1 2
001272:                                                                                                  #  MPAC AND X THE VECTOR AT THE GIVEN ADDRESS.
001273:
001274:    7463           00006        VXV                EXTEND
001275:    7464           30162                           DCA      MPAC       +5                         #  FORM UP M3X1, LEAVING M1 IN VBUF.
001276:    7465           52155                           DXCH     MPAC
001277:    7466           52123                           DXCH     VBUF
001278:    7467           07112                           TC       DMPSUB                                #  BY X1.
001279:
001280:    7470           00006                           EXTEND
001281:    7471           40160                           DCS      MPAC       +3                         #  CALCULATE -X1M2, SAVING X1M3 IN VBUF +2.
001282:    7472           52155                           DXCH     MPAC
001283:    7473           52125                           DXCH     VBUF       +2
001284:    7474           07112                           TC       DMPSUB
001285:
001286:    7475           34752                           CAF      TWO                                   #  ADVANCE ADDRWD TO X2.
001287:    7476           26116                           ADS      ADDRWD
001288:    7477           00006                           EXTEND
001289:    7500           40162                           DCS      MPAC       +5                         #  PREPARE TO GET -X2M3, SAVING -X1M2 IN
001290:    7501           52155                           DXCH     MPAC                                  #  MPAC +5.
001291:    7502           52162                           DXCH     MPAC       +5
001292:    7503           07112                           TC       DMPSUB
001293:
001294:    7504           00006                           EXTEND
001295:    7505           30123                           DCA      VBUF                                  #  GET X2M1, SAVING -X2M3 IN VBUF +4.
001296:    7506           52155                           DXCH     MPAC
001297:    7507           52127                           DXCH     VBUF       +4
001298:    7510           07112                           TC       DMPSUB
001299:
001300:    7511           34752                           CAF      TWO                                   #  ADVANCE ADDRWD TO X3.
001301:    7512           26116                           ADS      ADDRWD
001302:    7513           00006                           EXTEND
001303:    7514           40123                           DCS      VBUF                                  #  GET -X3M1, ADDING X2M1 TO MPAC +5 TO
001304:    7515           52155                           DXCH     MPAC                                  #  COMPLETE THE Z COMPONENT OF THE ANSWER.
001305:    7516           20162                           DAS      MPAC       +5
001306:
001307:    7517           00006                           EXTEND
001308:    7520           17522                           BZF      +2
001309:    7521           07014                           TC       OVERFLWZ
001310:
001311:    7522           07112                           TC       DMPSUB
001312:    7523           52125                           DXCH     VBUF       +2                         #  MOVE X1M3 TO MPAC +3 SETTING UP FOR X3M2
001313:    7524           52160                           DXCH     MPAC       +3                         #  AND ADD -X3M1 TO MPAC +3 TO COMPLETE THE
001314:    7525           52155                           DXCH     MPAC                                  #  Y COMPONENT OF THE RESULT.
001315:    7526           20160                           DAS      MPAC       +3
001316:
001317:    7527           00006                           EXTEND
001318:    7530           17532                           BZF      +2
001319:


001321:    7531           07017                           TC       OVERFLWY
001322:
001323:    7532           07112                           TC       DMPSUB
001324:    7533           52127                           DXCH     VBUF       +4                         #  GO ADD -X2M3 TO X3M2 TO COMPLETE THE X
001325:    7534           17003                           TCF      ENDVXV                                #  COMPONENT (TAIL END OF DAD).
001326:
001327:                                                                                                  #           THE MPACVBUF SUBROUTINE SAVES THE VECTOR IN MPAC IN VBUF WITHOUT CLOBBERING MPAC.
001328:
001329:    7535           00006        MPACVBUF           EXTEND                                         #  CALLED BY MXV, VXM, AND UNIT.
001330:    7536           30155                           DCA      MPAC
001331:    7537           52123                           DXCH     VBUF
001332:    7540           00006                           EXTEND
001333:    7541           30160                           DCA      MPAC       +3
001334:    7542           52125                           DXCH     VBUF       +2
001335:    7543           00006                           EXTEND
001336:    7544           30162                           DCA      MPAC       +5
001337:    7545           52127                           DXCH     VBUF       +4
001338:    7546           00002                           TC       Q                                     #  RETURN TO CALLER.
001339:
001340:                                                                                                  #           DOUBLE PRECISION SIGN AGREE ROUTINE. ARRIVE WITH INPUT IN A+L. OUTPUT IS IN A + L.
001341:
001342:    7547           10000        ALSIGNAG           CCS      A                                     #  TEST UPPER PART.
001343:    7550           17554                           TCF      UPPOS                                 #  IT IS POSITIVE
001344:    7551           00002                           TC       Q                                     #  ZERO
001345:    7552           17564                           TCF      UPNEG                                 #  NEGATIVE
001346:    7553           00002                           TC       Q                                     #  ZERO
001347:
001348:    7554           56001        UPPOS              XCH      L                                     #  SAVE DECREMENTED UPPER PART.
001349:    7555           64736                           AD       HALF
001350:    7556           64736                           AD       HALF
001351:    7557           54000                           TS       A                                     #  SKIPS ON OVERFLOW
001352:    7560           17562                           TCF      +2
001353:    7561           24001                           INCR     L                                     #  RESTORE UPPER TO ROIGINAL VALUE
001354:    7562           56001                           XCH      L                                     #  SWAP A + L BACK.
001355:    7563           00002                           TC       Q
001356:
001357:    7564           56001        UPNEG              XCH      L                                     #  SAVE COMPLEMENTED + DECREMENTED UPPER PT
001358:    7565           64735                           AD       NEGMAX
001359:    7566           67752                           AD       NEGONE
001360:    7567           54000                           TS       A
001361:    7570           17572                           TCF      +2                                    #  DONT INCREMENT IF NO OVERFLOW.
001362:    7571           24001                           INCR     L
001363:    7572           56001                           XCH      L
001364:    7573           40000                           COM                                            #  MAKE NEGATIVE AGAIN.
001365:    7574           00002                           TC       Q
001366:


001368:                                                                                                  #           INTERPRETIVE INSTRUCTIONS WHOSE EXECUTION CONSISTS OF PRINCIPALLY CALLING SUBROUTINES.
001369:
001370:    7575           07112        DMP1               TC       DMPSUB                                #  DMP INSTRUCTION.
001371:    7576           16064                           TCF      DANZIG
001372:
001373:    7577           07112        DMPR               TC       DMPSUB
001374:    7600           07142                           TC       ROUNDSUB   +1                         #  (C(A) = +0).
001375:    7601           16064                           TCF      DANZIG
001376:
001377:    7602           00006        DDV                EXTEND
001378:    7603           50116                           INDEX    ADDRWD                                #  MOVE DIVIDEND INTO BUF.
001379:    7604           30001                           DCA      0
001380:    7605           17612                           TCF      BDDV       +4
001381:
001382:    7606           00006        BDDV               EXTEND                                         #  MOVE DIVISOR INTO MPAC SAVING MPAC, THE
001383:    7607           50116                           INDEX    ADDRWD                                #  DIVIDEND, IN BUF.
001384:    7610           30001                           DCA      0
001385:    7611           52155                           DXCH     MPAC
001386:    7612           52131                 +4        DXCH     BUF
001387:    7613           34755                           CAF      ZERO                                  #  DIVIDE ROUTINES IN BANK 0.
001388:    7614           54004                           TS       FBANK
001389:    7615           12353                           TCF      DDV/BDDV
001390:
001391:    7616           30116        SETPD              CA       ADDRWD                                #  MUST SET TO WORK AREA, OR EBANK TROUBLE.
001392:    7617           54166                           TS       PUSHLOC
001393:    7620           16066                           TCF      NOIBNKSW                              #  NO FBANK SWITCH REQUIRED.
001394:
001395:    7621           34755        TSLC               CAF      ZERO                                  #  SHIFTING ROUTINES LOCATED IN BANK 00.
001396:    7622           54004                           TS       FBANK
001397:    7623           12172                           TCF      TSLC2
001398:
001399:    7624           36077        GSHIFT             CAF      LOW7                                  #  USED AS MASK AT GENSHIFT. THIS PROCESSES
001400:    7625           54004                           TS       FBANK                                 #  ANY SHIFT INSTRUCTION (EXCEPT TSLC) WITH
001401:    7626           12214                           TCF      GENSHIFT                              #  AN ADDRESS (ROUTINES IN BANK 0).
001402:


001404:                                                                                                  #           THE FOLLOWING IS THE PROLOGUE TO V/SC. IF THE PRESENT MODE IS VECTOR, IT SAVES THE SCALAR AT X IN BUF
001405:                                                                                                  #  AND CALLS THE V/SC ROUTINE IN BANK 0. IF THE PRESENT MODE IS SCALAR, IT MOVES THE VECTOR AT X INTO MPAC, SAVING
001406:                                                                                                  #  THE SCALAR IN MPAC IN BUF BEFORE CALLING THE V/SC ROUTINE IN BANK 0.
001407:
001408:    7627           10163        V/SC               CCS      MODE
001409:    7630           17641                           TCF      DV/SC                                 #  MOVE VECTOR INTO MPAC.
001410:    7631           17641                           TCF      DV/SC
001411:
001412:    7632           00006        VV/SC              EXTEND
001413:    7633           50116                           INDEX    ADDRWD
001414:    7634           30001                           DCA      0
001415:    7635           52131        V/SC1              DXCH     BUF                                   #  IN BOTH CASES, VECTOR IS NOW IN MPAC AND
001416:    7636           34755                           CAF      ZERO                                  #  SCALAR IN BUF.
001417:    7637           54004                           TS       FBANK
001418:    7640           12654                           TCF      V/SC2
001419:
001420:    7641           00006        DV/SC              EXTEND
001421:    7642           50116                           INDEX    ADDRWD
001422:    7643           30003                           DCA      2
001423:    7644           52160                           DXCH     MPAC       +3
001424:    7645           00006                           EXTEND
001425:    7646           50116                           INDEX    ADDRWD
001426:    7647           30005                           DCA      4
001427:    7650           52162                           DXCH     MPAC       +5
001428:
001429:    7651           44753                           CS       ONE                                   #  CHANGE MODE TO VECTOR.
001430:    7652           54163                           TS       MODE
001431:
001432:    7653           00006                           EXTEND
001433:    7654           50116                           INDEX    ADDRWD
001434:    7655           30001                           DCA      0
001435:    7656           52155                           DXCH     MPAC
001436:    7657           17635                           TCF      V/SC1                                 #  FINISH PROLOGUE AT COMMON SECTION.
001437:


001439:                                                                                                  #           SIGN AND COMPLEMENT INSTRUCTIONS.
001440:
001441:    7660           50116        SIGN               INDEX    ADDRWD                                #  CALL COMP INSTRUCTION IF WORD AT X IS
001442:    7661           10000                           CCS      0                                     #  NEGATIVE NON-ZERO.
001443:    7662           16064                           TCF      DANZIG
001444:    7663           17665                           TCF      +2
001445:    7664           17673                           TCF      COMP                                  #  DO THE COMPLEMENT.
001446:
001447:    7665           50116                           INDEX    ADDRWD
001448:    7666           10001        CCSL               CCS      1
001449:    7667           16064                           TCF      DANZIG
001450:    7670           16064                           TCF      DANZIG
001451:    7671           17673                           TCF      COMP
001452:    7672           16064                           TCF      DANZIG
001453:    7673           00006        COMP               EXTEND                                         #  COMPLEMENT DP MPAC IN EVERY CASE.
001454:    7674           40155                           DCS      MPAC
001455:    7675           52155                           DXCH     MPAC
001456:
001457:    7676           10163                           CCS      MODE                                  #  EITHER COMPLEMENT MPAC +3 OR THE REST OF
001458:    7677           17710                           TCF      DCOMP                                 #  THE VECTOR ACCUMULATOR.
001459:    7700           17710                           TCF      DCOMP
001460:
001461:    7701           00006                           EXTEND                                         #  VECTOR COMPLEMENT.
001462:    7702           40160                           DCS      MPAC       +3
001463:    7703           52160                           DXCH     MPAC       +3
001464:    7704           00006                           EXTEND
001465:    7705           40162                           DCS      MPAC       +5
001466:    7706           52162                           DXCH     MPAC       +5
001467:    7707           16064                           TCF      DANZIG
001468:
001469:    7710           40156        DCOMP              CS       MPAC       +2
001470:    7711           54156                           TS       MPAC       +2
001471:    7712           16064                           TCF      DANZIG
001472:


001474:                                                                                                  #           THE FOLLOWING SHORT SHIFT CODES REQUIRE NO ADDRESS WORD:
001475:
001476:                                                                                                  #           1.  SR1 TO SR4         SCALAR SHIFT RIGHT.
001477:                                                                                                  #           2.  SR1R TO SR4R       SCALAR SHIFT RIGHT AND ROUND.
001478:                                                                                                  #           3.  SL1 TO SL4         SCALAR SHIFT LEFT.
001479:                                                                                                  #           4.  SL1R TO SL4R       SCALAR SHIFT LEFT AND ROUND.
001480:                                                                                                  #           5.  VSR1 TO VSR8       VECTOR SHIFT RIGHT (ALWAYS ROUNDS).
001481:                                                                                                  #           6.  VSL1 TO VSL8       VECTOR SHIFT LEFT (NEVER ROUNDS).
001482:
001483:                                                                                                  #           THE FOLLOWING CODES REQUIRE AN ADDRESS WHICH MAY BE INDEXED:*
001484:
001485:                                                                                                  #           1.  SR                 SCALAR SHIFT RIGHT.
001486:                                                                                                  #           2.  SRR                SCALAR SHIFT RIGHT AND ROUND.
001487:                                                                                                  #           3.  SL                 SCALAR SHIFT LEFT.
001488:                                                                                                  #           4.  SLR                SCALAR SHIFT LEFT AND ROUND.
001489:                                                                                                  #           5.  VSR                VECTOR SHIFT RIGHT.
001490:                                                                                                  #           6.  VSL                VECTOR SHIFT LEFT.
001491:
001492:                                                                                                  #  *  IF THE ADDRESS IS INDEXED, AND THE INDEX MODIFICATION RESULTS IN A NEGATIVE SHIFT COUNT, A SHIFT OF THE
001493:                                                                                                  #  ABSOLUTE VALUE OF THE COUNT IS DONE IN THE OPPOSITE DIRECTION.
001494:
001495: 00,2017                                           BANK     00
001496:
001497: 00,2017                                           COUNT*   $$/INTER
001498: 00,2017           36245        SHORTT             CAF      SIX                                   #  SCALAR SHORT SHIFTS COME HERE. THE SHIFT
001499: 00,2020           70020                           MASK     CYR                                   #  COUNT-1 IS NOW IN BITS 2-3 OF CYR. THE
001500: 00,2021           54021                           TS       SR                                    #  ROUNDING BIT IS IN BIT1 AT THIS POINT.
001501:
001502: 00,2022           10020                           CCS      CYR                                   #  SEE IF RIGHT OR LEFT SHIFT DESIRED.
001503: 00,2023           12101                           TCF      TSSL                                  #  SHIFT LEFT.
001504:
001505: 00,2024           00024        SRDDV              DEC      20         B-14                       #  MPTEMP SETTING FOR SR BEFORE DDV.
001506:
001507: 00,2025           50021        TSSR               INDEX    SR                                    #  GET SHIFTING BIT.
001508: 00,2026           34736                           CAF      BIT14
001509: 00,2027           54135                           TS       MPTEMP
001510:
001511: 00,2030           10020                           CCS      CYR                                   #  SEE IF A ROUND IS DESIRED.
001512: 00,2031           02050        RIGHTR             TC       MPACSRND                              #  YES - SHIFT RIGHT AND ROUND.
001513: 00,2032           16063                           TCF      NEWMODE                               #  SET MODE TO DP (C(A) = 0).
001514: 00,2033           30135        MPACSHR            CA       MPTEMP                                #  DO A TRIPLE PRECISION SHIFT RIGHT.
001515: 00,2034           00006                           EXTEND
001516: 00,2035           70156                           MP       MPAC       +2
001517: 00,2036           54156                 +3        TS       MPAC       +2                         #  (EXIT FROM SQRT AND ABVAL).
001518: 00,2037           30135                           CA       MPTEMP
001519: 00,2040           00006                           EXTEND
001520: 00,2041           70154                           MP       MPAC                                  #  SHIFT MAJOR PART INTO A,L AND PLACE IN
001521:


001523: 00,2042           52155                           DXCH     MPAC                                  #  MPAC,+1.
001524: 00,2043           30135                           CA       MPTEMP
001525: 00,2044           00006                           EXTEND
001526: 00,2045           70001                           MP       L                                     #  ORIGINAL C(MPAC +1).
001527: 00,2046           20156                           DAS      MPAC       +1                         #  GUARANTEED NO OVERFLOW.
001528: 00,2047           16064                           TCF      DANZIG
001529:
001530:                                                                                                  #           MPAC SHIFT RIGHT AND ROUND SUBROUTINES.
001531:
001532: 00,2050           30156        MPACSRND           CA       MPAC       +2                         #  WE HAVE TO DO ALL THREE MULTIPLIES SINCE
001533: 00,2051           00006                           EXTEND                                         #  MPAC +1 AND MPAC +2 MIGHT HAVE SIGN
001534: 00,2052           70135                           MP       MPTEMP                                #  DISAGREEMENT WITH A SHIFT RIGHT OF 1.
001535: 00,2053           56155                           XCH      MPAC       +1
001536: 00,2054           00006                           EXTEND
001537: 00,2055           70135                           MP       MPTEMP
001538: 00,2056           56155                           XCH      MPAC       +1                         #  TRIAL MINOR PART.
001539: 00,2057           60001                           AD       L
001540:
001541: 00,2060           60000        VSHR2              DOUBLE                                         #  (FINISH VECTOR COMPONENT SHIFT RIGHT
001542: 00,2061           54156                           TS       MPAC       +2                         #  AND ROUND.
001543: 00,2062           12064                           TCF      +2
001544: 00,2063           26155                           ADS      MPAC       +1                         #  GUARANTEED NO OVERFLOW.
001545:
001546: 00,2064           34755                           CAF      ZERO
001547: 00,2065           54156                           TS       MPAC       +2
001548: 00,2066           56154                           XCH      MPAC                                  #  SETTING TO ZERO SO FOLLOWING DAS WORKS.
001549: 00,2067           00006                           EXTEND
001550: 00,2070           70135                           MP       MPTEMP
001551: 00,2071           20155                           DAS      MPAC                                  #  AGAIN NO OVERFLOW.
001552: 00,2072           00002                           TC       Q
001553:
001554: 00,2073           30135        VSHRRND            CA       MPTEMP                                #  ENTRY TO SHIFT RIGHT AND ROUND MPAC WHEN
001555: 00,2074           00006                           EXTEND                                         #  MPAC CONTAINS A VECTOR COMPONENT.
001556: 00,2075           70155                           MP       MPAC       +1
001557: 00,2076           54155                           TS       MPAC       +1
001558: 00,2077           56001                           XCH      L
001559: 00,2100           12060                           TCF      VSHR2                                 #  GO ADD ONE IF NECESSARY AND FINISH.
001560:


001562:                                                                                                  #           ROUTINE FOR SHORT SCALAR SHIFT LEFT (AND MAYBE ROUND).
001563:
001564: 00,2101           30021        TSSL               CA       SR                                    #  GET SHIFT COUNT FOR SR.
001565: 00,2102           54135                 +1        TS       MPTEMP
001566:
001567: 00,2103           00006                 +2        EXTEND                                         #  ENTRY HERE FROM SL FOR SCALARS.
001568: 00,2104           30156                           DCA      MPAC       +1                         #  SHIFTING LEFT ONE PLACE AT A TIME IS
001569: 00,2105           20156                           DAS      MPAC       +1                         #  FASTER THAN DOING THE WHOLE SHIFT WITH
001570: 00,2106           60154                           AD       MPAC                                  #  MULTIPLIES ASSUMING THAT FREQUENCY OF
001571: 00,2107           60154                           AD       MPAC                                  #  SHIFT COUNTS GOES DOWN RAPIDLY AS A
001572: 00,2110           54154                           TS       MPAC                                  #  FUNCTION OF THEIR MAGNITUDE.
001573: 00,2111           12113                           TCF      +2
001574: 00,2112           54121                           TS       OVFIND                                #  OVERFLOW. (LEAVES OVERFLOW-CORRECTED
001575:                                                                                                  #  RESULT ANYWAY).
001576: 00,2113           10135                           CCS      MPTEMP                                #  LOOP ON DECREMENTED SHIFT COUNT.
001577: 00,2114           12102                           TCF      TSSL       +1
001578:
001579: 00,2115           10020                           CCS      CYR                                   #  SEE IF ROUND WANTED.
001580: 00,2116           07141        ROUND              TC       ROUNDSUB                              #  YES - ROUND AND EXIT.
001581: 00,2117           16064                           TCF      DANZIG                                #  SL LEAVES A ZERO IN CYR FOR NO ROUND.
001582: 00,2120           16064                           TCF      DANZIG                                #  NO - EXIT IMMEDIATL
001583:


001585:                                                                                                  #  VECTOR SHIFTING ROUTINES.
001586:
001587: 00,2121           34757        SHORTV             CAF      LOW3                                  #  SAVE 3 BIT SHIFT COUNT - 1 WITHOUT
001588: 00,2122           70020                           MASK     CYR                                   #  EDITING CYR.
001589: 00,2123           54135                           TS       MPTEMP
001590: 00,2124           10020                           CCS      CYR                                   #  SEE IF LEFT OR RIGHT SHIFT.
001591: 00,2125           12145                           TCF      VSSL                                  #  VECTOR SHIFT LEFT.
001592: 00,2126           00176        OCT176             OCT      176                                   #  USED IN PROCESSED SHIFTS WITH - COUNT.
001593:
001594: 00,2127           50135        VSSR               INDEX    MPTEMP                                #  (ENTRY FROM SR).  PICK UP SHIFTING BIT.
001595: 00,2130           34736                           CAF      BIT14                                 #  MPTEMP CONTAINS THE SHIFT COUNT - 1.
001596: 00,2131           54135                           TS       MPTEMP
001597: 00,2132           02073                           TC       VSHRRND                               #  SHIFT X COMPONENT.
001598:
001599: 00,2133           52155                           DXCH     MPAC                                  #  SWAP X AND Y COMPONENTS.
001600: 00,2134           52160                           DXCH     MPAC       +3
001601: 00,2135           52155                           DXCH     MPAC
001602: 00,2136           02073                           TC       VSHRRND                               #  SHIFT Y COMPONENT.
001603:
001604: 00,2137           52155                           DXCH     MPAC                                  #  SWAP Y AND Z COMPONENTS.
001605: 00,2140           52162                           DXCH     MPAC       +5
001606: 00,2141           52155                           DXCH     MPAC
001607: 00,2142           02073                           TC       VSHRRND                               #  SHIFT Z COMPONENT.
001608:
001609: 00,2143           17423                           TCF      VROTATEX                              #  RESTORE COMPONENTS TO PROPER PLACES.
001610:


001612:                                                                                                  #  VECTOR SHIFT LEFT - DONE ONE PLACE AT A TIME.
001613:
001614: 00,2144           54135                 -1        TS       MPTEMP                                #  SHIFTING LOOP.
001615:
001616: 00,2145           00006        VSSL               EXTEND
001617: 00,2146           30155                           DCA      MPAC
001618: 00,2147           20155                           DAS      MPAC
001619: 00,2150           00006                           EXTEND
001620: 00,2151           12153                           BZF      +2
001621: 00,2152           07022                           TC       OVERFLOW
001622:
001623: 00,2153           00006                           EXTEND
001624: 00,2154           30160                           DCA      MPAC       +3
001625: 00,2155           20160                           DAS      MPAC       +3
001626: 00,2156           00006                           EXTEND
001627: 00,2157           12161                           BZF      +2
001628: 00,2160           07017                           TC       OVERFLWY
001629:
001630: 00,2161           00006                           EXTEND
001631: 00,2162           30162                           DCA      MPAC       +5
001632: 00,2163           20162                           DAS      MPAC       +5
001633: 00,2164           00006                           EXTEND
001634: 00,2165           12167                           BZF      +2
001635: 00,2166           07014                           TC       OVERFLWZ
001636:
001637: 00,2167           10135                           CCS      MPTEMP                                #  LOOP ON DECREMENTED SHIFT COUNTER.
001638: 00,2170           12144                           TCF      VSSL       -1
001639: 00,2171           16064                           TCF      DANZIG                                #  EXIT.
001640:


001642:                                                                                                  #           TSLC - TRIPLE SHIFT LEFT AND COUNT.  SHIFTS MPAC LEFT UNTIL GREATER THAN .5 IN MAGNITUDE, LEAVING
001643:                                                                                                  #  THE COMPLEMENT OF THE NUMBER OF SHIFTS REQUIRED IN X.
001644:
001645: 00,2172           54135        TSLC2              TS       MPTEMP                                #  START BY ZEROING SHIFT COUNT (IN A NOW).
001646: 00,2173           06726                           TC       BRANCH                                #  EXIT WITH NO SHIFTING IF ARGUMENT ZERO.
001647: 00,2174           12176                           TCF      +2
001648: 00,2175           12212                           TCF      ENDTSLC                               #  STORES ZERO SHIFT COUNT IN THIS CASE.
001649:
001650: 00,2176           07262                           TC       TPAGREE                               #  MAY CAUSE UPSHIFT OF ONE EXTRA PLACE.
001651:
001652: 00,2177           30154                           CA       MPAC                                  #  BEGIN NORMALIZATION LOOP.
001653: 00,2200           12207                           TCF      TSLCTEST
001654:
001655: 00,2201           24135        TSLCLOOP           INCR     MPTEMP                                #  INCREMENT SHIFT COUNTER.
001656: 00,2202           00006                           EXTEND
001657: 00,2203           30156                           DCA      MPAC       +1
001658: 00,2204           20156                           DAS      MPAC       +1
001659: 00,2205           60154                           AD       MPAC
001660: 00,2206           26154                           ADS      MPAC
001661: 00,2207           60000        TSLCTEST           DOUBLE                                         #  SEE IF (ANOTHER) SHIFT IS REQUIRED.
001662: 00,2210           54000                           OVSK
001663: 00,2211           12201                           TCF      TSLCLOOP                              #  YES - INCREMENT COUNT AND SHIFT AGAIN.
001664:
001665: 00,2212           40135        ENDTSLC            CS       MPTEMP
001666: 00,2213           16626                           TCF      STORE1                                #  STORE SHIFT COUNT AND RETURN TO DANZIG.
001667:


001669:                                                                                                  #           THE FOLLOWING ROUTINES PROCESSES THE GENERAL SHIFT INSTRUCTIONS SR, SRR, SL, AND SLR.
001670:                                                                                                  #  THE GIVEN ADDRESS IS DECODED AS FOLLOWS:
001671:
001672:                                                                                                  #           BITS 1-7    SHIFT COUNT (SUBADDRESS) LESS THAN 125 DECIMAL.
001673:                                                                                                  #           BIT 8       PSEUDO SIGN BIT (DETECTS CHANGE IN SIGN IN INDEXED SHIFTS).
001674:                                                                                                  #           BIT 9       0 FOR LEFT SHIFT, AND 1 FOR RIGHT SHIFT.
001675:                                                                                                  #           BIT 10      1 FOR TERMINAL ROUND ON SCALAR SHIFTS, 0 OTHERWISE.
001676:                                                                                                  #           BITS 11-13  0.
001677:                                                                                                  #           BIT 14      1.
001678:                                                                                                  #           BIT 15      0.
001679:
001680:                                                                                                  #  THE ABOVE ENCODING IS DONE BY THE YUL SYSTEM.
001681:
001682: 00,2214           70116        GENSHIFT           MASK     ADDRWD                                #  GET SHIFT COUNT, TESTING FOR ZERO.
001683: 00,2215           10000                           CCS      A                                     #  (ARRIVES WITH C(A) = LOW7).
001684: 00,2216           12224                           TCF      GENSHFT2                              #  IF NON-ZERO, PROCEED WITH DECREMENTED CT
001685:
001686: 00,2217           34742                           CAF      BIT10                                 #  ZERO SHIFT COUNT.  NO SHIFTS NEEDED BUT
001687: 00,2220           70116                           MASK     ADDRWD                                #  WE MIGHT HAVE TO ROUND MPAC ON SLR AND
001688: 00,2221           10000                           CCS      A                                     #  SRR (SCALAR ONLY).
001689: 00,2222           07141                           TC       ROUNDSUB
001690: 00,2223           16064                           TCF      DANZIG
001691:
001692: 00,2224           54135        GENSHFT2           TS       MPTEMP                                #  DECREMENTED SHIFT COUNT TO MPTEMP.
001693: 00,2225           34744                           CAF      BIT8                                  #  TEST MEANING OF LOW SEVEN BIT COUNT IN
001694: 00,2226           00006                           EXTEND                                         #  MPTEMP NOW.
001695: 00,2227           70116                           MP       ADDRWD
001696: 00,2230           76250                           MASK     LOW2                                  #  JUMPS ON SHIFT DIRECTION (BIT8) AND
001697: 00,2231           50000                           INDEX    A
001698: 00,2232           12233                           TCF      +1                                    #  ORIGINAL SHIFT DIRECTION (BIT 9).
001699: 00,2233           12332                           TCF      RIGHT-                                #  NEGATIVE SHIFT COUNT FOR SL OR SLR.
001700: 00,2234           12342                           TCF      LEFT                                  #  SL OR SLR.
001701: 00,2235           12336                           TCF      LEFT-                                 #  NEGATIVE SHIFT COUNT WITH SR OR SRR.
001702:


001704:                                                                                                  #           GENERAL SHIFT RIGHT.
001705:
001706: 00,2236           10163        RIGHT              CCS      MODE                                  #  SEE IF VECTOR OR SCALAR.
001707: 00,2237           12277                           TCF      GENSCR
001708: 00,2240           12277                           TCF      GENSCR
001709:
001710: 00,2241           30135                           CA       MPTEMP                                #  SEE IF SHIFT COUNT LESS THAN 14D.
001711: 00,2242           63733        VRIGHT2            AD       NEG12
001712: 00,2243           00006                           EXTEND
001713: 00,2244           62127                           BZMF     VSSR                                  #  IF SO, BRANCH AND SHIFT IMMEDIATELY.
001714:
001715: 00,2245           67752                           AD       NEGONE                                #  IF NOT, REDUCE MPTEMP BY A TOTAL OF 14,
001716: 00,2246           54135                           TS       MPTEMP                                #  AND DO A SHIFT RIGHT AND ROUND BY 14.
001717: 00,2247           34755                           CAF      ZERO                                  #  THE ROUND AT THIS STAGE MAY INTRODUCE A
001718: 00,2250           54001                           TS       L                                     #  ONE BIT ERROR IN A SHIFT RIGHT 15D.
001719: 00,2251           56154                           XCH      MPAC
001720: 00,2252           56155                           XCH      MPAC       +1
001721: 00,2253           02272                           TC       SETROUND                              #  X COMPONENT NOW SHIFTED, SO MAKE UP THE
001722: 00,2254           20155                           DAS      MPAC                                  #  ROUNDING QUANTITY (0 IN A AND 0 OR +-1
001723:                                                                                                  #  IN L).
001724: 00,2255           56157                           XCH      MPAC       +3                         #  REPEAT THE ABOVE PROCESS FOR Y AND Z.
001725: 00,2256           56160                           XCH      MPAC       +4
001726: 00,2257           02272                           TC       SETROUND
001727: 00,2260           20160                           DAS      MPAC       +3                         #  NO OVERFLOW ON THESE ADDS.
001728:
001729: 00,2261           56161                           XCH      MPAC       +5
001730: 00,2262           56162                           XCH      MPAC       +6
001731: 00,2263           02272                           TC       SETROUND
001732: 00,2264           20162                           DAS      MPAC       +5
001733:
001734: 00,2265           10135                           CCS      MPTEMP                                #  SEE IF DONE, DOING FINAL DECREMENT.
001735: 00,2266           54135                           TS       MPTEMP
001736: 00,2267           12242                           TCF      VRIGHT2
001737: 00,2270           04604        BIASLO             DEC      .2974      B-1                        #  SQRT CONSTANT
001738:
001739: 00,2271           16064                           TCF      DANZIG
001740:
001741: 00,2272           60000        SETROUND           DOUBLE                                         #  MAKES UP ROUNDING QUANTITY FROM ARRIVING
001742: 00,2273           54156                           TS       MPAC       +2                         #  C(A). L IS ZERO INITIALLY.
001743: 00,2274           34755                           CAF      ZERO
001744: 00,2275           56001                           XCH      L
001745: 00,2276           00002                           TC       Q                                     #  RETURN AND DO THE DAS, RESETTING L TO 0.
001746:


001748:                                                                                                  #           PROCESS SR AND SRR FOR SCALARS.
001749:
001750: 00,2277           30135        GENSCR             CA       MPTEMP                                #  SEE IF THE ORIGINAL SHIFT COUNT WAS LESS
001751: 00,2300           63733                 +1        AD       NEG12                                 #  THAN 14D.
001752: 00,2301           00006                           EXTEND
001753: 00,2302           62322                           BZMF     DOSSHFT                               #  DO THE SHIFT IMMEDIATELY IF SO.
001754:
001755: 00,2303           67752                 +4        AD       NEGONE                                #  IF NOT, DECREMENT SHIFT COUNT BY 14D AND
001756: 00,2304           54135                           TS       MPTEMP                                #  SHIFT MPAC RIGHT 14 PLACES.
001757: 00,2305           34755                           CAF      ZERO
001758: 00,2306           56154                           XCH      MPAC
001759: 00,2307           56155                           XCH      MPAC       +1
001760: 00,2310           54156                           TS       MPAC       +2
001761: 00,2311           10135                           CCS      MPTEMP                                #  SEE IF FINISHED, DO FINAL DECREMENT.
001762: 00,2312           54135                           TS       MPTEMP
001763: 00,2313           02300                           TC       GENSCR     +1
001764: 00,2314           22650        SLOPEHI            DEC      .5884                                 #  SQRT CONSTANT.
001765: 00,2315           34742                           CAF      BIT10                                 #  FINISHED WITH SHIFT. SEE IF ROUND
001766: 00,2316           70116                           MASK     ADDRWD                                #  WANTED.
001767: 00,2317           10000                           CCS      A
001768: 00,2320           07141                           TC       ROUNDSUB
001769: 00,2321           16064                           TCF      DANZIG                                #  DO SO AND/OR EXIT.
001770:
001771: 00,2322           50135        DOSSHFT            INDEX    MPTEMP                                #  PICK UP SHIFTING BIT.
001772: 00,2323           34736                           CAF      BIT14
001773: 00,2324           54135                           TS       MPTEMP
001774: 00,2325           34742                           CAF      BIT10                                 #  SEE IF TERMINAL ROUND DESIRED.
001775: 00,2326           70116                           MASK     ADDRWD
001776: 00,2327           10000                           CCS      A
001777: 00,2330           12031                           TCF      RIGHTR                                #  YES.
001778: 00,2331           12033                           TCF      MPACSHR                               #  JUST SHIFT RIGHT.
001779:


001781:                                                                                                  #           PROCESS THE RIGHT- (SL(R) WITH A NEGATIVE COUNT), LEFT-, AND LEFT OPTIONS.
001782:
001783: 00,2332           40135        RIGHT-             CS       MPTEMP                                #  GET ABSOLUTE VALUE - 1 OF SHIFT COUNT
001784: 00,2333           62126                           AD       OCT176                                #  UNDERSTANDING THAT BIT8 (PSEUDO-SIGN)
001785: 00,2334           54135                           TS       MPTEMP                                #  WAS 1 INITIALLY.
001786: 00,2335           12236                           TCF      RIGHT                                 #  DO NORMAL SHIFT RIGHT.
001787:
001788: 00,2336           42126        LEFT-              CS       OCT176                                #  SAME PROLOGUE TO LEFT FOR INDEXED RIGHT
001789: 00,2337           60135                           AD       MPTEMP                                #  SHIFTS WHOSE NET SHIFT COUNT IS NEGATIVE
001790: 00,2340           40000                           COM
001791: 00,2341           54135                           TS       MPTEMP
001792:
001793: 00,2342           10163        LEFT               CCS      MODE                                  #  SINCE LEFT SHIFTING IS SONE ONE PLACE AT
001794: 00,2343           12346                           TCF      GENSCL                                #  A TIME, NO COMPARISON WITH 14 NEED BE
001795: 00,2344           12346                           TCF      GENSCL                                #  DONE. FOR SCALARS, SEE IF TERMINAL ROUND
001796: 00,2345           12145                           TCF      VSSL                                  #  DESIRED. FOR VECTORS, SHIFT IMMEDIATELY.
001797:
001798: 00,2346           40116        GENSCL             CS       ADDRWD                                #  PUT ROUNDING BIT (BIT 10 OF ADDRWD) INTO
001799: 00,2347           00006                           EXTEND                                         #  BIT 15 OF CYR WHERE THE ROUNDING BIT OF
001800: 00,2350           74746                           MP       BIT6                                  #  A SHORT SHIFT LEFT WOULD BE
001801: 00,2351           54020                           TS       CYR
001802: 00,2352           12103                           TCF      TSSL       +2                         #  DO THE SHIFT.
001803:


001805:                                                                                                  #           SCALAR DIVISION INSTRUCTIONS, DDV AND BDDV, ARE EXECUTED HERE. AT THIS POINT, THE DIVIDEND IS IN MPAC
001806:                                                                                                  #  AND THE DIVISOR IN BUF.
001807:
001808: 00,2353           44753        DDV/BDDV           CS       ONE                                   #  INITIALIZATION.
001809: 00,2354           54136                           TS       DVSIGN                                #  +-1 FOR POSITIVE QUOTIENT - -0 FOR NEG.
001810: 00,2355           54137                           TS       DVNORMCT                              #  DIVIDEND NORMALIZATION COUNT.
001811: 00,2356           54140                           TS       MAXDVSW                               #  NEAR-ONE DIVIDE FLAG.
001812:
001813: 00,2357           10130                           CCS      BUF                                   #  FORCE BUF POSITIVE WITH THE MAJOR PART
001814: 00,2360           12516                           TCF      BUFPOS                                #  NON-ZERO.
001815: 00,2361           12363                           TCF      +2
001816: 00,2362           12531                           TCF      BUFNEG
001817:
001818: 00,2363           54156        BUFZERO            TS       MPAC       +2                         #  ZERO THIS.
001819: 00,2364           07262                           TC       TPAGREE                               #  FORCE SIGN AGREEMENT BEFORE OVERFLOW
001820:
001821: 00,2365           10154                           CCS      MPAC                                  #  TEST TO SEE IF MPAC NON-ZERO.  (TOO BIG)
001822: 00,2366           12414                           TCF      OVF+                                  #  MAJOR PART OF DIVIDEND IS POSITIVE NON-0
001823: 00,2367           12371                           TCF      +2
001824: 00,2370           12413                           TCF      OVF+       -1                         #  MAJOR PART OF DIVIDEND IS NEG. NON-ZERO
001825:
001826: 00,2371           56131                           XCH      BUF        +1                         #  SHIFT DIVIDEND AND DIVISOR LEFT 14.
001827: 00,2372           56130                           XCH      BUF
001828: 00,2373           56155                           XCH      MPAC       +1
001829: 00,2374           56154                           XCH      MPAC
001830: 00,2375           10130                           CCS      BUF                                   #  TRY AGAIN ON FORMER MINOR PART.
001831: 00,2376           12422                           TCF      BUF+
001832: 00,2377           12401                           TCF      +2                                    #  OVERFLOW ON ZERO DIVISOR.
001833: 00,2400           12416                           TCF      BUF-
001834:
001835: 00,2401           40154                           CS       MPAC                                  #  SIGN OF MPAC DETERMINES SIGN OF RESULT.
001836: 00,2402           00006        SGNDVOVF           EXTEND
001837: 00,2403           62405                           BZMF     +2
001838: 00,2404           24136                           INCR     DVSIGN                                #  NEGMAX IN MPAC PERHAPS.
001839: 00,2405           34733        DVOVF              CAF      POSMAX                                #  ON DIVISION OVERFLOW OF ANY SORT, SET
001840: 00,2406           54154                           TS       MPAC                                  #  SET DP MPAC TO +-POSMAX.
001841: 00,2407           02630                           TC       FINALDV    +3
001842: 00,2410           34753                           CAF      ONE                                   #  SET OVERFLOW INDICATOR AND EXIT.
001843: 00,2411           54121                           TS       OVFIND
001844: 00,2412           06064                           TC       DANZIG
001845:
001846: 00,2413           24136                 -1        INCR     DVSIGN
001847: 00,2414           40131        OVF+               CS       BUF        +1                         #  LOAD LOWER ORDER PART OF DIVISOR.
001848: 00,2415           12402                           TCF      SGNDVOVF                              #  GET SIGN OF RESULT.
001849:
001850: 00,2416           00006        BUF-               EXTEND                                         #  IF BUF IS NEGATIVE, COMPLEMENT IT AND
001851: 00,2417           40131                           DCS      BUF                                   #  MAINTAIN DVSIGN FOR FINAL QUOTIENT SIGN.
001852: 00,2420           52131                           DXCH     BUF
001853: 00,2421           24136                           INCR     DVSIGN                                #  NOW -0.
001854:


001856: 00,2422           10154        BUF+               CCS      MPAC                                  #  FORCE MPAC POSITIVE, CHECKING FOR ZERO
001857: 00,2423           12437                           TCF      MPAC+                                 #  DIVIDEND IN THE PROCESS.
001858: 00,2424           12426                           TCF      +2
001859: 00,2425           12433                           TCF      MPAC-
001860: 00,2426           10155                           CCS      MPAC       +1
001861: 00,2427           12437                           TCF      MPAC+
001862: 00,2430           16064                           TCF      DANZIG                                #  EXIT IMMEDIATELY ON ZERO DIVIDEND.
001863: 00,2431           12433                           TCF      MPAC-
001864: 00,2432           16064                           TCF      DANZIG
001865:
001866: 00,2433           00006        MPAC-              EXTEND                                         #  FORCE MPAC POSITIVE AS BUF IN BUF-.
001867: 00,2434           40155                           DCS      MPAC
001868: 00,2435           52155                           DXCH     MPAC
001869: 00,2436           24136                           INCR     DVSIGN                                #  NOW +1 OR -0.
001870:


001872: 00,2437           40154        MPAC+              CS       MPAC                                  #  CHECK FOR DIVISION OVERFLOW. IF THE
001873: 00,2440           67752                           AD       NEGONE                                #  MAJOR PART OF THE DIVIDEND IS LESS THAN
001874: 00,2441           60130                           AD       BUF                                   #  THE MAJOR PART OF THE DIVISOR BY AT
001875: 00,2442           10000                           CCS      A                                     #  LEAST TWO, WE CAN PROCEED IMMEDIATELY
001876: 00,2443           12505                           TCF      DVNORM                                #  WITHOUT NORMALIZATION PRODUCING A DVMAX.
001877: 00,2444           60001        -1/2+2             OCT      60001                                 #  USED IN SQRTSUB.
001878:
001879: 00,2445           12446                           TCF      +1                                    #  IF THE ABOVE DOES NOT HOLD, FORCE SIGN
001880: 00,2446           34736                           CAF      HALF                                  #  AGREEMENT IN NUMERATOR AND DENOMINATOR
001881: 00,2447           60000                           DOUBLE                                         #  TO FACILITATE OVERFLOW AND NEAR-ONE
001882: 00,2450           60155                           AD       MPAC       +1                         #  CHECKING.
001883: 00,2451           54155                           TS       MPAC       +1
001884: 00,2452           34755                           CAF      ZERO
001885: 00,2453           64733                           AD       POSMAX
001886: 00,2454           26154                           ADS      MPAC
001887:
001888: 00,2455           34736                           CAF      HALF                                  #  SAME FOR BUF.
001889: 00,2456           60000                           DOUBLE
001890: 00,2457           60131                           AD       BUF        +1
001891: 00,2460           54131                           TS       BUF        +1
001892: 00,2461           34755                           CAF      ZERO
001893: 00,2462           64733                           AD       POSMAX
001894: 00,2463           26130                           ADS      BUF
001895:
001896: 00,2464           40154                           CS       MPAC                                  #  CHECK MAGNITUDE OF SIGN-CORRECTED
001897: 00,2465           60130                           AD       BUF                                   #  OPERANDS.
001898: 00,2466           10000                           CCS      A
001899: 00,2467           12505                           TCF      DVNORM                                #  DIVIDE OK - WILL NOT BECOME MAXDV CASE.
001900: 00,2470           00133        LBUF2              ADRES    BUF2
001901: 00,2471           12405                           TCF      DVOVF                                 #  DIVISOR NOT LESS THAN DIVIDEND - OVF.
001902:
001903: 00,2472           54140                           TS       MAXDVSW                               #  IF THE MAJOR PARTS OF THE DIVIDEND AND
001904: 00,2473           40155                           CS       MPAC       +1                         #  DIVISOR ARE EQUAL, A SPECIAL APPROXIMA-
001905: 00,2474           60131                           AD       BUF        +1                         #  TION IS USED (PROVIDED THE DIVISION IS
001906: 00,2475           00006                           EXTEND                                         #  POSSIBLE, OF COURSE).
001907: 00,2476           62405                           BZMF     DVOVF
001908: 00,2477           12505                           TCF      DVNORM                                #  IF NO OVERFLOW.
001909:


001911: 00,2500           00006        BUFNORM            EXTEND                                         #  ADD -1 TO AUGMENT SHIFT COUNT AND SHIFT
001912: 00,2501           24137                           AUG      DVNORMCT                              #  LEFT ONE PLACE.
001913: 00,2502           00006                           EXTEND
001914: 00,2503           30131                           DCA      BUF
001915: 00,2504           20131                           DAS      BUF


001917:
001918: 00,2505           30130        DVNORM             CA       BUF                                   #  SEE IF DIVISOR NORMALIZED YET.
001919: 00,2506           60000                           DOUBLE
001920: 00,2507           54000                           OVSK
001921: 00,2510           12500                           TCF      BUFNORM                               #  NO - SHIFT LEFT ONE AND TRY AGAIN.
001922:
001923: 00,2511           52155                           DXCH     MPAC                                  #  CALL DIVIDEND NORMALIZATION SEQUENCE
001924: 00,2512           50137                           INDEX    DVNORMCT                              #  PRIOR TO DOING THE DIVIDE.
001925: 00,2513           02565                           TC       MAXTEST
001926:
001927: 00,2514           54156                           TS       MPAC       +2                         #  RETURNS WITH DIVISION DONE AND C(A) = 0.
001928: 00,2515           16064                           TCF      DANZIG
001929:
001930: 00,2516           10000        BUFPOS             CCS      A
001931: 00,2517           12422                           TCF      BUF+                                  #  TO BUF+ IF BUF IS GREATER THAN +1.
001932:
001933: 00,2520           40131                           CS       BUF        +1                         #  IF BUF IS +1, FORCING SIGN AGREEMENT
001934: 00,2521           00006                           EXTEND                                         #  MAY CAUSE BUF TO BECOME ZERO.
001935: 00,2522           62422                           BZMF     BUF+                                  #  BRANCH IF SIGNS AGREE.
001936:
001937: 00,2523           34736                           CA       HALF                                  #  SIGNS DISAGREE.  FORCE AGREEMENT.
001938: 00,2524           60000                 +6        DOUBLE
001939: 00,2525           26131                           ADS      BUF        +1
001940: 00,2526           34755                           CA       ZERO
001941: 00,2527           54130                           TS       BUF
001942: 00,2530           12363                           TCF      BUFZERO
001943:
001944: 00,2531           10000        BUFNEG             CCS      A
001945: 00,2532           12416                           TCF      BUF-                                  #  TO BUF- IF BUF IS LESS THAN -1.
001946:
001947: 00,2533           30131                           CA       BUF        +1                         #  IF BUF IS -1, FORCING SIGN AGREEMENT
001948: 00,2534           00006                           EXTEND                                         #  MAY CAUSE BUF TO BECOME ZERO.
001949: 00,2535           62416                           BZMF     BUF-                                  #  BRANCH IF SIGNS AGREE.
001950:
001951: 00,2536           44736                           CS       HALF                                  #  SIGNS DISAGREE.  FORCE AGREEMENT.
001952: 00,2537           12524                           TCF      BUFPOS     +6
001953:


001955:                                                                                                  #           THE FOLLOWING ARE PROLOGUES TO SHIFT THE DIVIDEND ARRIVING IN A AND L BEFORE THE DIVIDE.
001956:
001957: 00,2540           22021                 -21D      LXCH     SR                                    #  SPECIAL PROLOGUE FOR UNIT WHEN THE
001958: 00,2541           00006                           EXTEND                                         #  LENGTH OF THE ARGUMENT WAS NOT LESS THAN
001959: 00,2542           74736                           MP       HALF                                  #  .5. IN THIS CASE, EACH COMPONENT MUST BE
001960: 00,2543           56001                           XCH      L                                     #  SHIFTED RIGHT ONE TO PRODUCE A HALF-UNIT
001961: 00,2544           60021                           AD       SR                                    #  VECTOR.
001962: 00,2545           56001                           XCH      L
001963: 00,2546           12571                           TCF      GENDDV     +1                         #  WITH DP DIVIDEND IN A,L.
001964:
001965: 00,2547           20001                           DDOUBL                                         #  PROLOGUE WHICH NORMALIZES THE DIVIDEND
001966: 00,2550           20001                           DDOUBL                                         #  WHEN IT IS KNOWN THAT NO DIVISION
001967: 00,2551           20001                           DDOUBL                                         #  OVERFLOW WILL OCCUR.
001968: 00,2552           20001                           DDOUBL
001969: 00,2553           20001                           DDOUBL
001970: 00,2554           20001                           DDOUBL
001971: 00,2555           20001                           DDOUBL
001972: 00,2556           20001                           DDOUBL
001973: 00,2557           20001                           DDOUBL
001974: 00,2560           20001                           DDOUBL
001975: 00,2561           20001                           DDOUBL
001976: 00,2562           20001                           DDOUBL
001977: 00,2563           20001                           DDOUBL
001978: 00,2564           52155                           DXCH     MPAC
001979:
001980: 00,2565           10140        MAXTEST            CCS      MAXDVSW                               #  0 IF MAJORS MIGHT BE =, -1 OTHERWISE.
001981: 00,2566           06552        BIASHI             DEC      .4192      B-1                        #  SQRT CONSTANTS
001982:
001983: 00,2567           12642                           TCF      MAXDV                                 #  CHECK TO SEE IF THEY ARE NOW EQUAL.
001984:


001986:                                                                                                  #           THE FOLLOWING IS A GENERAL PURPOSE DOUBLE PRECISION DIVISION ROUTINE. IT DIVIDES MPAC BY BUF AND LEAVES
001987:                                                                                                  #  THE RESULT IN MPAC. THE FOLLOWING CONDITIONS MUST BE SATISFIED:
001988:
001989:                                                                                                  #           1.  THE DIVISOR (BUF) MUST BE POSITIVE AND NOT LESS THAN .5.
001990:
001991:                                                                                                  #           2.  THE DIVIDEND (MPAC) MUST BE POSITIVE WITH THE MAJOR PART OF MPAC STRICTLY LESS THAN THAT OF BUF
001992:                                                                                                  #  (A SPECIAL APPROXIMATION, MAXDV, IS USED WHEN THE MAJOR PARTS ARE EQUAL).
001993:
001994:                                                                                                  #           UNDERSTANDING THAT A/B = Q + S(R/B) WHERE S = 2(-14) AND Q AND R ARE QUOTIENT AND REMAINDER, RESPEC-
001995:                                                                                                  #  TIVELY, THE FOLLOWING APPROXIMATION IS OBTAINED BY MULTIPLYING ABOVE AND BELOW BY C - SD AND NEGLECTING TERMS OF
001996:                                                                                                  #  ORDER S-SQUARED (POSSIBLY INTRODUCING ERROR INTO THE LOW TWO BITS OF THE RESULT). SIGN AGREEMENT IS UNNECESSARY.
001997:
001998:                                                                                                  #           A + SB .      (R - QD)                                             A + SB
001999:                                                                                                  #           ------ = Q + S(------) WHERE Q AND R ARE QUOTIENT AND REMAINDER OF ------ RESPECTIVELY.
002000:                                                                                                  #           C + SD        (  C   )                                                C
002001:
002002: 00,2570           52155        GENDDV             DXCH     MPAC                                  #  WE NEED A AND B ONLY FOR FIRST DV.
002003: 00,2571           00006                 +1        EXTEND                                         #  (SPECIAL UNIT PROLOGUE ENTERS HERE).
002004: 00,2572           10130                           DV       BUF                                   #  A NOW CONTAINS Q AND L, R.
002005: 00,2573           52155                           DXCH     MPAC
002006:
002007: 00,2574           40154                           CS       MPAC                                  #  FORM DIVIDEND FOR MINOR PART OF RESULT.
002008: 00,2575           00006                           EXTEND
002009: 00,2576           70131                           MP       BUF        +1
002010: 00,2577           60155                           AD       MPAC       +1                         #  OVERFLOW AT THIS POINT IS POSITIVE SINCE
002011: 00,2600           54000                           OVSK                                           #  R IS POSITIVE IN EVERY CASE.
002012: 00,2601           12606                           TCF      +5
002013:
002014: 00,2602           00006                           EXTEND                                         #  OVERFLOW CAN BE REMOVED BY SUBTRACTING C
002015: 00,2603           60130                           SU       BUF                                   #  (BUF) ONCE SINCE R IS ALWAYS LESS THAN C
002016: 00,2604           24154                           INCR     MPAC                                  #  IN THIS CASE. INCR COMPENSATES SUBTRACT.
002017: 00,2605           12610                           TCF      +DOWN                                 #  (SINCE C(A) IS STILL POSITIVE).
002018:
002019: 00,2606           00006                 +5        EXTEND                                         #  C(A) CAN BE MADE LESS THAN C IN MAGNI-
002020: 00,2607           62620                           BZMF     -UP                                   #  TUDE BY DIMINISHING IT BY C (SINCE C IS
002021:                                                                                                  #  NOT LESS THAN .5) UNLESS C(A) = 0.
002022:


002024: 00,2610           00006        +DOWN              EXTEND
002025: 00,2611           60130                           SU       BUF                                   #  IF POSITIVE, REDUCE ONLY IF NECESSARY
002026: 00,2612           00006                           EXTEND                                         #  SINCE THE COMPENSATING INCR MIGHT CAUSE
002027: 00,2613           12616                           BZF      +3                                    #  OVERFLOW.
002028: 00,2614           00006                           EXTEND                                         #  DONT SUBTRACT UNLESS RESULT IS POSITIVE
002029: 00,2615           62624                           BZMF     ENDMAXDV                              #  OR ZERO.
002030:
002031: 00,2616           24154                 +3        INCR     MPAC                                  #  KEEP SUBTRACT HERE AND COMPENSATE.
002032: 00,2617           12625                           TCF      FINALDV
002033:
002034: 00,2620           00006        -UP                EXTEND                                         #  IF ZERO, SET MINOR PART OF RESULT TO
002035: 00,2621           12630                           BZF      FINALDV    +3                         #  ZERO.
002036:
002037: 00,2622           00006                           EXTEND                                         #  IF NEGATIVE, ADD C TO A, SUBTRACTING ONE
002038: 00,2623           26154                           DIM      MPAC                                  #  TO COMPENSATE.  DIM IS OK HERE SINCE THE
002039: 00,2624           60130        ENDMAXDV           AD       BUF                                   #  MAJOR PART NEVER GOES NEGATIVE.
002040:


002042: 00,2625           22007        FINALDV            ZL                                             #  DO DV TO OBTAIN MINOR PART OF RESULT.
002043: 00,2626           00006                           EXTEND
002044: 00,2627           10130                           DV       BUF
002045: 00,2630           54155                 +3        TS       MPAC       +1
002046:
002047: 00,2631           10136                           CCS      DVSIGN                                #  LEAVE RESULT POSITIVE UNLESS C(DVSIGN)=
002048: 00,2632           00002                           TC       Q                                     #  -0.
002049: 00,2633           00002                           TC       Q
002050: 00,2634           00002                           TC       Q
002051:
002052: 00,2635           00006                           EXTEND
002053: 00,2636           40155                           DCS      MPAC
002054: 00,2637           52155                           DXCH     MPAC
002055: 00,2640           34755                           CAF      ZERO                                  #  SO WE ALWAYS RETURN WITH C(A) = 0.
002056: 00,2641           00002                           TC       Q
002057:


002059:                                                                                                  #           IF THE MAJOR PARTS OF THE DIVISOR AND DIVIDEND ARE EQUAL, BUT THE MINOR PARTS ARE SUCH THAT THE
002060:                                                                                                  #  DIVIDEND IS STRICTLY LESS THAN THE DIVISOR IN MAGNITUDE, THE FOLLOWING APPROXIMATION IS USED. THE ASSUMPTIONS
002061:                                                                                                  #  ARE THE SAME AS THE GENERAL ROUTINE WITH THE ADDITION THAT SIGN AGREEMENT IS NECESSARY (B, C, & D POSITIVE).
002062:
002063:                                                                                                  #                  C + SB .          (C + B - D)
002064:                                                                                                  #                  ------ = 37777 + S(---------)
002065:                                                                                                  #                  C + SD            (    C    )
002066:
002067:                                                                                                  #           THE DIVISION MAY BE PERFORMED IMMEDIATELY SINCE B IS STRICTLY LESS THAN D AND C IS NOT LESS THAN .5.
002068:
002069:
002070: 00,2642           40154        MAXDV              CS       MPAC                                  #  SEE IF MAXDV CASE STILL HOLDS AFTER
002071: 00,2643           60130                           AD       BUF                                   #  NORMALIZATION.
002072: 00,2644           00006                           EXTEND
002073: 00,2645           12647                           BZF      +2
002074: 00,2646           12570                           TCF      GENDDV                                #  MPAC NOW LESS THAN BUF - DIVIDE AS USUAL
002075:
002076: 00,2647           34733                 +2        CAF      POSMAX                                #  SET MAJOR PART OF RESULT.
002077: 00,2650           54154                           TS       MPAC
002078:
002079: 00,2651           40131                           CS       BUF        +1                         #  FORM DIVIDEND OF MINOR PART OF RESULT.
002080: 00,2652           60155                           AD       MPAC       +1
002081: 00,2653           12624                           TCF      ENDMAXDV                              #  GO ADD C AND DO DIVIDE, ATTACHING SIGN
002082:                                                                                                  #  BEFORE EXITING.
002083:


002085:                                                                                                  #           VECTOR DIVIDED BY SCALAR, V/SC, IS EXECUTED HERE. THE VECTOR IS NOW IN MPAC WITH SCALAR IN BUF.
002086:
002087: 00,2654           44753        V/SC2              CS       ONE                                   #  INITIALIZE DIVIDEND NORMALIZATION COUNT
002088: 00,2655           54137                           TS       DVNORMCT                              #  AND DIVISION SIGN REGISTER.
002089: 00,2656           54127                           TS       VBUF       +5
002090:
002091: 00,2657           03010                           TC       VECAGREE                              #  FORCE SIGN AGREEMENT IN VECTOR
002092:
002093: 00,2660           52131                           DXCH     BUF
002094: 00,2661           07547                           TC       ALSIGNAG                              #  SIGN AGREE BUF
002095: 00,2662           52131                           DXCH     BUF
002096: 00,2663           10130                           CCS      BUF                                   #  FORCE DIVISOR POSITIVE WITH MAJOR PART
002097: 00,2664           12721                           TCF      /BUF+                                 #  NON-ZERO (IF POSSIBLE).
002098: 00,2665           12667                           TCF      +2
002099: 00,2666           12715                           TCF      /BUF-
002100:
002101: 00,2667           56131                           XCH      BUF        +1                         #  SHIFT VECTOR AND SCALAR LEFT 14.
002102: 00,2670           56130                           XCH      BUF
002103: 00,2671           56155                           XCH      MPAC       +1
002104: 00,2672           56154                           XCH      MPAC
002105: 00,2673           00006                           EXTEND                                         #  CHECK FOR OVERFLOW IN EACH CASE.
002106: 00,2674           12676                           BZF      +2
002107: 00,2675           12405                           TCF      DVOVF
002108:
002109: 00,2676           56160                           XCH      MPAC       +4
002110: 00,2677           56157                           XCH      MPAC       +3
002111: 00,2700           00006                           EXTEND
002112: 00,2701           12703                           BZF      +2
002113: 00,2702           12405                           TCF      DVOVF
002114:
002115: 00,2703           56162                           XCH      MPAC       +6
002116: 00,2704           56161                           XCH      MPAC       +5
002117: 00,2705           00006                           EXTEND
002118: 00,2706           12710                           BZF      +2
002119: 00,2707           12405                           TCF      DVOVF
002120:
002121: 00,2710           10130                           CCS      BUF
002122: 00,2711           12721                           TCF      /BUF+
002123: 00,2712           12405                           TCF      DVOVF                                 #  ZERO DIVISOR - OVERFLOW.
002124: 00,2713           12715                           TCF      /BUF-
002125: 00,2714           12405                           TCF      DVOVF
002126:
002127: 00,2715           00006        /BUF-              EXTEND                                         #  ON NEGATIVE, COMPLEMENT BUF AND MAINTAIN
002128: 00,2716           40131                           DCS      BUF                                   #  DVSIGN IN VBUF +5.
002129: 00,2717           52131                           DXCH     BUF
002130: 00,2720           24127                           INCR     VBUF       +5
002131:


002133: 00,2721           00006        /BUF+              EXTEND
002134: 00,2722           30131                           DCA      BUF                                   #  LEAVE ABS(ORIG DIVISOR) IN BUF2
002135: 00,2723           52134                           DXCH     BUF2                                  #  FOR OVERFLOW TESTING
002136: 00,2724           12732                           TCF      /NORM                                 #  NORMALIZE DIVISOR IN BUF.
002137:
002138: 00,2725           00006        /NORM2             EXTEND                                         #  IF LESS THAN .5, AUGMENT DVNORMCT AND
002139: 00,2726           24137                           AUG      DVNORMCT                              #  DOUBLE DIVISOR.
002140: 00,2727           00006                           EXTEND
002141: 00,2730           30131                           DCA      BUF
002142: 00,2731           20131                           DAS      BUF
002143:
002144: 00,2732           30130        /NORM              CA       BUF                                   #  SEE IF DIVISOR NORMALIZED.
002145: 00,2733           60000                           DOUBLE
002146: 00,2734           54000                           OVSK
002147: 00,2735           12725                           TCF      /NORM2                                #  DOUBLE AND TRY AGAIN IF NOT.
002148:
002149: 00,2736           02750                           TC       V/SCDV                                #  DO X COMPONENT DIVIDE.
002150: 00,2737           52160                           DXCH     MPAC       +3                         #  SUPPLY ARGUMENTS IN USUAL SEQUENCE.
002151: 00,2740           52155                           DXCH     MPAC
002152: 00,2741           52160                           DXCH     MPAC       +3
002153:
002154: 00,2742           02750                           TC       V/SCDV                                #  Y COMPONENT.
002155: 00,2743           52162                           DXCH     MPAC       +5
002156: 00,2744           52155                           DXCH     MPAC
002157: 00,2745           52162                           DXCH     MPAC       +5
002158:
002159: 00,2746           02750                           TC       V/SCDV                                #  Z COMPONENT.
002160: 00,2747           17423                           TCF      VROTATEX                              #  GO RE-ARRANGE COMPONENTS BEFORE EXIT.
002161:


002163:                                                                                                  #           SUBROUTINE USED BY V/SC TO DIVIDE VECTOR COMPONENT IN MPAC,+1 BY THE SCALAR GIVEN IN BUF.
002164:
002165: 00,2750           30127        V/SCDV             CA       VBUF       +5                         #  REFLECTS SIGN OF SCALAR.
002166: 00,2751           54136                           TS       DVSIGN
002167:
002168: 00,2752           10154                           CCS      MPAC                                  #  FORCE MPAC POSITIVE, EXITING ON ZERO.
002169: 00,2753           12767                           TCF      /MPAC+
002170: 00,2754           12756                           TCF      +2
002171: 00,2755           12763                           TCF      /MPAC-
002172:
002173: 00,2756           10155                           CCS      MPAC       +1
002174: 00,2757           12767                           TCF      /MPAC+
002175: 00,2760           00002                           TC       Q
002176: 00,2761           12763                           TCF      /MPAC-
002177: 00,2762           00002                           TC       Q
002178:
002179: 00,2763           00006        /MPAC-             EXTEND                                         #  USUAL COMPLEMENTING AND SETTING OF SIGN.
002180: 00,2764           40155                           DCS      MPAC
002181: 00,2765           52155                           DXCH     MPAC
002182: 00,2766           24136                           INCR     DVSIGN
002183:
002184: 00,2767           44753        /MPAC+             CS       ONE                                   #  INITIALIZE NEAR-ONE SWITCH.
002185: 00,2770           54140                           TS       MAXDVSW
002186:
002187: 00,2771           40154                           CS       MPAC                                  #  CHECK POSSIBLE OVERFLOW.
002188: 00,2772           60133                           AD       BUF2                                  #  UNNORMALIZED INPUT DIVISOR.
002189: 00,2773           10000                           CCS      A
002190: 00,2774           13004                           TCF      DDVCALL                               #  NOT NEAR-ONE
002191: 00,2775           12777                           TCF      +2                                    #  +0 IS JUST POSSIBLE
002192: 00,2776           12405                           TCF      DVOVF                                 #  NO HOPE
002193: 00,2777           54140                           TS       MAXDVSW                               #  SIGNAL POSSIBLE NEAR-ONE CASE
002194: 00,3000           40155                           CS       MPAC       +1                         #  SEE IF DIVISION CAN BE DONE
002195: 00,3001           60134                           AD       BUF2       +1
002196: 00,3002           00006                           EXTEND
002197: 00,3003           62405                           BZMF     DVOVF
002198:
002199: 00,3004           52155        DDVCALL            DXCH     MPAC                                  #  CALL PRE-DIVIDE NORMALIZATION.
002200: 00,3005           50137                           INDEX    DVNORMCT
002201: 00,3006           12565                           TCF      MAXTEST
002202:


002204: 00,3007           32506        SLOPELO            DEC      .8324
002205:
002206: 00,3010           56002        VECAGREE           XCH      Q                                     #  SAVE Q IN A
002207: 00,3011           52155                           DXCH     MPAC
002208: 00,3012           07547                           TC       ALSIGNAG                              #  SIGNAGREE MPAC
002209: 00,3013           52155                           DXCH     MPAC
002210: 00,3014           52160                           DXCH     MPAC       +3
002211: 00,3015           07547                           TC       ALSIGNAG                              #  SIGN AGREE MPAC +3
002212: 00,3016           52160                           DXCH     MPAC       +3
002213: 00,3017           52162                           DXCH     MPAC       +5
002214: 00,3020           07547                           TC       ALSIGNAG                              #  SIGNAGREE MPAC +5
002215: 00,3021           52162                           DXCH     MPAC       +5
002216: 00,3022           00000                           TC       A
002217:


002219:                                                                                                  #           THE FOLLOWING ROUTINE EXECUTES THE UNIT INSTRUCTION, WHICH TAKES THE UNIT OF THE VECTOR IN MPAC.
002220:
002221: 00,3023           03010        UNIT               TC       VECAGREE                              #  FORCE SIGN AGREEMENT IN VECTOR
002222: 00,3024           07535                           TC       MPACVBUF                              #  SAVE ARGUMENT IN VBUF
002223: 00,3025           34755                           CAF      ZERO                                  #  MUST SENSE OVERFLOW IN FOLLOWING DOT.
002224: 00,3026           56121                           XCH      OVFIND
002225: 00,3027           54141                           TS       TEM1
002226: 00,3030           03317                           TC       VSQSUB                                #  DOT MPAC WITH ITSELF.
002227: 00,3031           30141                           CA       TEM1
002228: 00,3032           56121                           XCH      OVFIND
002229: 00,3033           00006                           EXTEND
002230: 00,3034           13036                           BZF      +2
002231: 00,3035           12405                           TCF      DVOVF
002232: 00,3036           00006                           EXTEND
002233: 00,3037           30155                           DCA      MPAC                                  #  LEAVE THE SQUARE OF THE LENGTH OF THE
002234: 00,3040           50120                           INDEX    FIXLOC                                #  ARGUMENT IN LVSQUARE.
002235: 00,3041           52043                           DXCH     LVSQUARE
002236:
002237: 00,3042           03343                           TC       SQRTSUB                               #  GO TAKE THE NORMALIZED SQUARE ROOT.
002238:
002239: 00,3043           10154                           CCS      MPAC                                  #  CHECK FOR UNIT OVERFLOW.
002240: 00,3044           13051                           TCF      +5                                    #  MPAC IS NOT LESS THAN .5 UNLESS
002241: 00,3045           54001                           TS       L
002242: 00,3046           50120                           INDEX    FIXLOC
002243: 00,3047           52045                           DXCH     LV
002244: 00,3050           12405                           TCF      DVOVF                                 #  INPUT TO SQRTSUB WAS 0.
002245:
002246: 00,3051           44317                           CS       FOURTEEN                              #  SEE IF THE INPUT WAS SO SMALL THE THE
002247: 00,3052           60135                           AD       MPTEMP                                #  FIRST TWO REGISTERS OF THE SQUARE WERE 0
002248: 00,3053           10000                           CCS      A
002249: 00,3054           40000                           COM                                            #  IF SO, SAVE THE NEGATIVE OF THE SHIFT
002250: 00,3055           13133                           TCF      SMALL                                 #  COUNT -15D.
002251:
002252: 00,3056           13065                           TCF      LARGE                                 #  (THIS IS USUALLY THE CASE.)
002253:
002254: 00,3057           44761                           CS       THIRTEEN                              #  IF THE SHIFT COUNT WAS EXACTLY 14, SET
002255: 00,3060           54135                           TS       MPTEMP                                #  THE PRE-DIVIDE NORM COUNT TO -13D.
002256:
002257: 00,3061           30154                           CA       MPAC                                  #  SHIFT THE LENGTH RIGHT 14 BEFORE STORING
002258: 00,3062           54001        SMALL2             TS       L                                     #  (SMALL EXITS TO THIS POINT).
002259: 00,3063           34755                           CAF      ZERO
002260: 00,3064           13112                           TCF      LARGE2                                #  GO TO STORE LENGTH AND PROCEED.
002261:
002262: 00,3065           10135        LARGE              CCS      MPTEMP                                #  MOST ALL CASES COME HERE.
002263: 00,3066           13074                           TCF      LARGE3                                #  SEE IF NO NORMALIZATION WAS REQUIRED BY
002264:
002265: 00,3067           42024                           CS       SRDDV                                 #  SQRT, AND IF SO, SET UP FOR A SHIFT
002266: 00,3070           54135                           TS       MPTEMP                                #  RIGHT 1 BEFORE DIVIDING TO PRODUCE
002267: 00,3071           00006                           EXTEND                                         #  THE DESIRED HALF UNIT VECTOR.
002268: 00,3072           30155                           DCA      MPAC
002269:


002271: 00,3073           13112                           TCF      LARGE2
002272:


002274: 00,3074           40000        LARGE3             COM                                            #  LEAVE NEGATIVE OF SHIFT COUNT-1 FOR
002275: 00,3075           54135                           TS       MPTEMP                                #  PREDIVIDE LEFT SHIFT.
002276:
002277: 00,3076           40000                           COM                                            #  PICK UP REQUIRED SHIFTING BIT TO UNNORM-
002278: 00,3077           50000                           INDEX    A                                     #  ALIZE THE SQRT RESULT.
002279: 00,3100           34736                           CAF      BIT14
002280: 00,3101           54130                           TS       BUF
002281: 00,3102           00006                           EXTEND
002282: 00,3103           70155                           MP       MPAC       +1
002283: 00,3104           56130                           XCH      BUF
002284: 00,3105           00006                           EXTEND                                         #  (UNNORMALIZE THE SQRT FOR LV).
002285: 00,3106           70154                           MP       MPAC
002286: 00,3107           56001                           XCH      L
002287: 00,3110           60130                           AD       BUF
002288: 00,3111           56001                           XCH      L
002289:
002290: 00,3112           50120        LARGE2             INDEX    FIXLOC
002291: 00,3113           52045                           DXCH     LV                                    #  LENGTH NOW STORED IN WORK AREA.
002292:
002293: 00,3114           44753                           CS       ONE
002294: 00,3115           54140                           TS       MAXDVSW                               #  NO MAXDV CASES IN UNIT.
002295:
002296: 00,3116           52123                           DXCH     VBUF                                  #  PREPARE X COMPONENT FOR DIVIDE, SETTING
002297: 00,3117           52155                           DXCH     MPAC                                  #  LENGTH OF VECTOR AS DIVISOR IN BUF.
002298: 00,3120           52131                           DXCH     BUF
002299: 00,3121           03151                           TC       UNITDV
002300:
002301: 00,3122           52125                           DXCH     VBUF       +2                         #  DO Y AND Z IN USUAL FASHION SO WE CAN
002302: 00,3123           52155                           DXCH     MPAC                                  #  EXIT THROUGH VROTATEX.
002303: 00,3124           52160                           DXCH     MPAC       +3
002304: 00,3125           03151                           TC       UNITDV
002305:
002306: 00,3126           52127                           DXCH     VBUF       +4
002307: 00,3127           52155                           DXCH     MPAC
002308: 00,3130           52162                           DXCH     MPAC       +5
002309: 00,3131           03151                           TC       UNITDV
002310: 00,3132           17423                           TCF      VROTATEX                              #  AND EXIT.
002311:


002313:                                                                                                  #           IF THE LENGTH OF THE ARGUMENT VECTOR WAS LESS THAN 2(-28), EACH COMPONENT MUST BE SHIFTED LEFT AT LEAST
002314:                                                                                                  #  14 PLACES BEFORE THE DIVIDE. NOTE THAT IN THIS CASE, THE MAJOR PART OF EACH COMPONENT IS ZERO.
002315:
002316: 00,3133           54135        SMALL              TS       MPTEMP                                #  NEGATIVE OF PRE-DIVIDE SHIFT COUNT.
002317:
002318: 00,3134           34755                           CAF      ZERO                                  #  SHIFT EACH COMPONENT LEFT 14.
002319: 00,3135           56123                           XCH      VBUF       +1
002320: 00,3136           56122                           XCH      VBUF
002321: 00,3137           56125                           XCH      VBUF       +3
002322: 00,3140           56124                           XCH      VBUF       +2
002323: 00,3141           56127                           XCH      VBUF       +5
002324: 00,3142           56126                           XCH      VBUF       +4
002325:
002326: 00,3143           40135                           CS       MPTEMP
002327: 00,3144           50000                           INDEX    A
002328: 00,3145           34736                           CAF      BIT14
002329: 00,3146           00006                           EXTEND
002330: 00,3147           70154                           MP       MPAC
002331: 00,3150           13062                           TCF      SMALL2
002332:
002333: 00,3151     4761               THIRTEEN           =        OCT15
002334: 00,3151     4317               FOURTEEN           =        OCT16
002335: 00,3151     4317               OCT16              =        R1D1
002336:


002338:                                                                                                  #           THE FOLLOWING ROUTINE SETS UP THE CALL TO THE DIVIDE ROUTINES.
002339:
002340: 00,3151           10154        UNITDV             CCS      MPAC                                  #  FORCE MPAC POSITIVE IF POSSIBLE, SETTING
002341: 00,3152           13170                           TCF      UMPAC+                                #  DVSIGN ACCORDING TO THE SIGN OF MPAC
002342: 00,3153           13155                           TCF      +2                                    #  SINCE THE DIVISOR IS ALWAYS POSITIVE
002343: 00,3154           13162                           TCF      UMPAC-                                #  HERE.
002344:
002345: 00,3155           10155                           CCS      MPAC       +1
002346: 00,3156           13170                           TCF      UMPAC+
002347: 00,3157           00002                           TC       Q                                     #  EXIT IMMEDIATELY ON ZERO.
002348: 00,3160           13162                           TCF      UMPAC-
002349: 00,3161           00002                           TC       Q
002350:
002351: 00,3162           44755        UMPAC-             CS       ZERO                                  #  IF NEGATIVE, SET -0 IN DVSIGN FOR FINAL
002352: 00,3163           54136                           TS       DVSIGN                                #  COMPLEMENT.
002353: 00,3164           00006                           EXTEND
002354: 00,3165           40155                           DCS      MPAC                                  #  PICK UP ABSOLUTE VALUE OF ARG AND JUMP.
002355: 00,3166           50135                           INDEX    MPTEMP
002356: 00,3167           12564                           TCF      MAXTEST    -1
002357:
002358: 00,3170           54136        UMPAC+             TS       DVSIGN                                #  SET DVSIGN FOR POSITIVE QUOTIENT.
002359: 00,3171           52155                           DXCH     MPAC
002360: 00,3172           50135                           INDEX    MPTEMP
002361: 00,3173           12564                           TCF      MAXTEST    -1
002362:


002364:                                                                                                  #           MISCELLANEOUS UNARY OPERATIONS.
002365:
002366: 00,3174           03300        DSQ                TC       DSQSUB                                #  SQUARE THE DP CONTENTS OF MPAC.
002367: 00,3175           16064                           TCF      DANZIG
002368:
002369: 00,3176           10163        ABVALABS           CCS      MODE                                  #  ABVAL OR ABS INSTRUCTION.
002370: 00,3177           13226                           TCF      ABS                                   #  DO ABS ON SCALAR.
002371: 00,3200           13226                           TCF      ABS
002372:
002373: 00,3201           03317        ABVAL              TC       VSQSUB                                #  DOT MPAC WITH ITSELF.
002374: 00,3202           22163                           LXCH     MODE                                  #  MODE IS NOW DP (L ZERO AFTER DAS).
002375:
002376: 00,3203           00006                           EXTEND                                         #  STORE SQUARE OF LENGTH IN WORK AREA.
002377: 00,3204           30155                           DCA      MPAC
002378: 00,3205           50120                           INDEX    FIXLOC
002379: 00,3206           52043                           DXCH     LVSQUARE
002380:


002382:                                                                                                  #  PROGRAM DESCRIPTION- SUBROUTINE SQRT
002383:                                                                                                  #  FUNCTIONAL DESCRIPTION-DOUBLE PRECISION SQUARE ROOT ROUTINE
002384:                                                                                                  #      THIS PROGRAM TAKES THE SQUARE ROOT OF THE 27 OR 28 MOST SIGNIFICANT BITS IN THE TRIPLE PRECISION SET OF
002385:                                                                                                  #      NUMBERS-MPAC,MPAC+1,AND MPAC+2.  THE ROOT IS RETURNED DOUBLE        PRECISION IN MPAC AND MPAC+1.
002386:                                                                                                  #  WARNING- THIS SUBROUTINE USES A TRIPLE PRECISION INPUT. THE PROGRAMMER MUST ASSURE THE CONTENTS OF MPAC+2
002387:                                                                                                  #      ESPECIALLY IF THE CONTENTS OF MPAC IS SMALL OR ZERO.  FOR DETAILS SEE STG MEMO NO.949.
002388:                                                                                                  #  CALLING SEQUENCE- IN INTERPRETIVE MODE I.E., FOLLOWING TC  INTPRET,SQRT   NO ADDRESS IS ALLOWED
002389:                                                                                                  #  INPUT SCALING  THE BINARY POINT IS ASSUMED TO THE RIGHT OF BIT 15. THE  ANSWER IS RETURNED WITH THE SAME SCALING
002390:                                                                                                  #  SUBROUTINES- GENSCR,MPACSHR, SQRTSUB,ABORT
002391:                                                                                                  #  ABORT EXIT MODE- ABORTS ON NEGATIVE INPUT -1.2X10E-4 (77775  OCTAL)     OR LESS.
002392:                                                                                                  #      DISPLAYS ERROR CODE 1302
002393:                                                                                                  #                  TC   ABORT
002394:                                                                                                  #                  OCT  1302
002395:                                                                                                  #  DEBRIS -  LOCATIONS BUF,MPTEMP,ADDRWD ARE USED
002396: 00,3207           03343        SQRT               TC       SQRTSUB                               #  TAKE THE SQUARE ROOT OF MPAC.
002397: 00,3210           10135                           CCS      MPTEMP                                #  RETURNED NORMALIZED SQUARE ROOT. SEE IF
002398: 00,3211           13213                           TCF      +2                                    #  ANY UN-NORMALIZATION REQUIRED AND EXIT
002399: 00,3212           16064                           TCF      DANZIG                                #  IF NOT.
002400:
002401: 00,3213           63733                           AD       NEG12                                 #  A RIGHT SHIFT OF MORE THAN 13 COULD BE
002402: 00,3214           00006                           EXTEND                                         #  REQUIRED IF INPUT WAS ZERO IN MPAC,+1.
002403: 00,3215           63221                           BZMF     SQRTSHFT                              #  GOES HERE IN MOST CASES.
002404: 00,3216           22007                           ZL                                             #  IF A LONG SHIFT IS REQUIRED, GO TO
002405: 00,3217           22116                           LXCH     ADDRWD                                #  GENERAL RIGHT SHIFT ROUTINES.
002406: 00,3220           12303                           TCF      GENSCR     +4                         #  ADDRWD WAS ZERO TO PREVENT ROUND.
002407:
002408: 00,3221           50135        SQRTSHFT           INDEX    MPTEMP                                #  SELECT SHIFTING BIT AND EXIT THROUGH
002409: 00,3222           34735                           CAF      BIT15                                 #  SHIFT ROUTINES.
002410: 00,3223           54135                           TS       MPTEMP
002411: 00,3224           34755                           CAF      ZERO                                  #  TO ZERO MPAC +2 IN THE PROCESS.
002412: 00,3225           12036                           TCF      MPACSHR    +3
002413:
002414: 00,3226           06726        ABS                TC       BRANCH                                #  TEST SIGN OF MPAC AND COMPLEMENT IF
002415: 00,3227           16064                           TCF      DANZIG
002416: 00,3230           16064                           TCF      DANZIG
002417: 00,3231           17673                           TCF      COMP
002418:


002420: 00,3232           44751        VDEF               CS       FOUR                                  #  VECTOR DEFINE - ESSENTIALLY TREATS
002421: 00,3233           26166                           ADS      PUSHLOC                               #  SCALAR IN MPAC AS X COMPONENT, PUSHES UP
002422: 00,3234           00006                           EXTEND                                         #  FOR Y AND THEN AGAIN FOR Z.
002423: 00,3235           50000                           INDEX    A
002424: 00,3236           30003                           DCA      2
002425: 00,3237           52160                           DXCH     MPAC       +3
002426: 00,3240           00006                           EXTEND
002427: 00,3241           50166                           INDEX    PUSHLOC
002428: 00,3242           30001                           DCA      0
002429: 00,3243           52162                           DXCH     MPAC       +5
002430: 00,3244           16524                           TCF      VMODE                                 #  MODE IS NON VECTOR.
002431:
002432: 00,3245           03317        VSQ                TC       VSQSUB                                #  DOT MPAC WITH ITSELF.
002433: 00,3246           17335                           TCF      DMODE                                 #  MODE IS NOW DP.
002434:
002435: 00,3247           00006        PUSH               EXTEND                                         #  PUSH DOWN MPAC LEAVING IT LOADED.
002436: 00,3250           30155                           DCA      MPAC
002437: 00,3251           50166                           INDEX    PUSHLOC                               #  PUSH DOWN FIRST TWO REGISTERS IN EACH
002438: 00,3252           52001                           DXCH     0
002439:
002440: 00,3253           50163                           INDEX    MODE                                  #  INCREMENT PUSHDOWN POINTER.
002441: 00,3254           36247                           CAF      NO.WDS
002442: 00,3255           26166                           ADS      PUSHLOC
002443:
002444: 00,3256           10163                           CCS      MODE
002445: 00,3257           13272                           TCF      TPUSH                                 #  PUSH DOWN MPAC +2.
002446: 00,3260           16064                           TCF      DANZIG                                #  DONE FOR DP.
002447:
002448: 00,3261           00006                           EXTEND                                         #  ON VECTOR, PUSH DOWN Y AND Z COMPONENTS.
002449: 00,3262           30160                           DCA      MPAC       +3
002450: 00,3263           50166                           INDEX    PUSHLOC
002451: 00,3264           51775                           DXCH     0          -4
002452: 00,3265           00006                           EXTEND
002453: 00,3266           30162                           DCA      MPAC       +5
002454: 00,3267           50166                           INDEX    PUSHLOC
002455: 00,3270           51777                           DXCH     0          -2
002456: 00,3271           16064                           TCF      DANZIG
002457:
002458: 00,3272           30156        TPUSH              CA       MPAC       +2
002459: 00,3273           16557                           TCF      ENDTPUSH   +2
002460:
002461: 00,3274           50120        RVQ                INDEX    FIXLOC                                #  RVQ - RETURN IVA QPRET.
002462: 00,3275           30052                           CA       QPRET
002463: 00,3276           54117                           TS       POLISH
002464: 00,3277           16655                           TCF      GOTO       +4                         #  (ASSUME QPRET POINTS TO FIXED ONLY.)
002465:


002467:                                                                                                  #           THE FOLLOWING SUBROUTINES ARE USED IN SQUARING MPAC, IN BOTH THE SCALAR AND VECTOR SENSE. THEY ARE
002468:                                                                                                  #  SPECIAL CASES OF DMPSUB AND DOTSUB, PUT IN TO SAVE SOME TIME.
002469:
002470: 00,3300           30155        DSQSUB             CA       MPAC       +1                         #  SQUARES THE SCALAR CONTENTS OF MPAC.
002471: 00,3301           00006                           EXTEND
002472: 00,3302           70000                           SQUARE
002473: 00,3303           54156                           TS       MPAC       +2
002474: 00,3304           34755                           CAF      ZERO                                  #  FORM 2(CROSS TERM).
002475: 00,3305           56155                           XCH      MPAC       +1
002476: 00,3306           00006                           EXTEND
002477: 00,3307           70154                           MP       MPAC
002478: 00,3310           20001                           DDOUBL                                         #  AND MAYBE OVERFLOW.
002479: 00,3311           20156                           DAS      MPAC       +1                         #  AND SET A TO NET OVERFLOW.
002480: 00,3312           56154                           XCH      MPAC
002481: 00,3313           00006                           EXTEND
002482: 00,3314           70000                           SQUARE
002483: 00,3315           20155                           DAS      MPAC
002484: 00,3316           00002                           TC       Q
002485:
002486: 00,3317           00006        VSQSUB             EXTEND                                         #  DOTS THE VECTOR IN MPAC WITH ITSELF.
002487: 00,3320           22137                           QXCH     DOTRET
002488: 00,3321           03300                           TC       DSQSUB                                #  SQUARE THE X COMPONENT.
002489: 00,3322           52160                           DXCH     MPAC       +3
002490: 00,3323           52155                           DXCH     MPAC
002491: 00,3324           52131                           DXCH     BUF                                   #  SO WE CAN END IN DOTSUB.
002492: 00,3325           30156                           CA       MPAC       +2
002493: 00,3326           54132                           TS       BUF        +2
002494:
002495: 00,3327           03300                           TC       DSQSUB                                #  SQUARE Y COMPONENT.
002496: 00,3330           52156                           DXCH     MPAC       +1
002497: 00,3331           20132                           DAS      BUF        +1
002498: 00,3332           60154                           AD       MPAC
002499: 00,3333           60130                           AD       BUF
002500: 00,3334           54130                           TS       BUF
002501: 00,3335           13337                           TCF      +2
002502: 00,3336           54121                           TS       OVFIND                                #  IF OVERFLOW.
002503:
002504: 00,3337           52162                           DXCH     MPAC       +5
002505: 00,3340           52155                           DXCH     MPAC
002506: 00,3341           03300                           TC       DSQSUB                                #  SQUARE Z COMPONENT.
002507: 00,3342           17210                           TCF      ENDDOT                                #  END AS IN DOTSUB.
002508:


002510:                                                                                                  #           DOUBLE PRECISION SQUARE ROOT ROUTINE. TAKE THE SQUARE ROOT OF THE TRIPLE PRECISION (MPAC +2 USED ONLY
002511:                                                                                                  #  IN NORMALIZATION) CONTENTS OF MPAC AND LEAVE THE NORMALIZED RESULT IN MPAC (C(MPAC) GREATER THAN OR EQUAL TO
002512:                                                                                                  #  .5). THE RIGHT SHIFT COUNT (TO UNNORMALIZE) IS LEFT IN MPTEMP.
002513:
002514:
002515: 00,3343           34755        SQRTSUB            CAF      ZERO                                  #  START BY ZEROING RIGHT SHIFT COUNT.
002516: 00,3344           54135                           TS       MPTEMP
002517:
002518: 00,3345           10154                           CCS      MPAC                                  #  CHECK FOR POSITIVE ARGUMENT, SHIFTING
002519: 00,3346           13405                           TCF      SMPAC+                                #  FIRST SIGNIFICANT MPAC REGISTER INTO
002520: 00,3347           13351                           TCF      +2                                    #  MPAC ITSELF.
002521: 00,3350           13373                           TCF      SQRTNEG                               #  SEE IF MAG OF ARGUMENT LESS THAN 10(-4).
002522:
002523: 00,3351           56156                           XCH      MPAC       +2                         #  MPAC IS ZERO - SHIFT LEFT 14.
002524: 00,3352           56155                           XCH      MPAC       +1
002525: 00,3353           54154                           TS       MPAC
002526: 00,3354           34757                           CAF      SEVEN                                 #  AUGMENT RIGHT SHIFT COUNTER.
002527: 00,3355           54135                           TS       MPTEMP
002528:
002529: 00,3356           10154                           CCS      MPAC                                  #  SEE IF MPAC NOW PNZ.
002530: 00,3357           13405                           TCF      SMPAC+
002531: 00,3360           13362                           TCF      +2
002532: 00,3361           13376                           TCF      ZEROANS                               #  NEGATIVE BUT LESS THAN 10(-4) IN MAG.
002533:
002534: 00,3362           56155                           XCH      MPAC       +1                         #  ZERO - SHIFT LEFT 14 AGAIN.
002535: 00,3363           54154                           TS       MPAC
002536: 00,3364           34757                           CAF      SEVEN                                 #  AUGMENT RIGHT SHIFT COUNTER.
002537: 00,3365           26135                           ADS      MPTEMP
002538:
002539: 00,3366           10154                           CCS      MPAC
002540: 00,3367           13405                           TCF      SMPAC+
002541: 00,3370           00002                           TC       Q                                     #  SQRT(0) = 0.
002542: 00,3371           13376                           TCF      ZEROANS
002543: 00,3372           13453                           TCF      FIXROOT                               #  DO NOT LEAVE SQRTSUB WITH -0 IN MPAC.
002544:
002545:
002546: 00,3373           10000        SQRTNEG            CCS      A                                     #  ARGUMENT IS NEGATIVE, BUT SEE IF SIGN-
002547: 00,3374           13402                           TCF      SQRTABRT                              #  CORRECTED ARGUMENT IS LESS THAN 10(-4)
002548:
002549: 00,3375           10155                           CCS      MPAC       +1                         #  IN MAGNITUDE.  IF SO, CALL ANSWER ZERO.
002550: 00,3376           34755        ZEROANS            CAF      ZERO                                  #  FORCE ANSWER TO ZERO HERE.
002551: 00,3377           13453                           TCF      FIXROOT
002552: 00,3400           13402                           TCF      SQRTABRT
002553: 00,3401           13453                           TCF      FIXROOT
002554:
002555: 00,3402           52165        SQRTABRT           DXCH     LOC
002556: 00,3403           05716                           TC       POODOO1
002557: 00,3404           21302                           OCT      21302
002558:
002559: 00,3405           62444        SMPAC+             AD       -1/2+2                                #  SEE IF ARGUMENT GREATER THAN OR EQUAL TO
002560:


002562: 00,3406           00006                           EXTEND                                         #  .5.
002563: 00,3407           63456                           BZMF     SRTEST                                #  IF SO, SEE IF LESS THAN .25.
002564:
002565: 00,3410           52155                           DXCH     MPAC                                  #  WE WILL TAKE THE SQUARE ROOT OF MPAC/2.
002566: 00,3411           22021                           LXCH     SR                                    #  SHIFT RIGHT 1 AND GO TO THE SQRT ROUTINE
002567: 00,3412           00006                           EXTEND
002568: 00,3413           74736                           MP       HALF
002569: 00,3414           52155                           DXCH     MPAC
002570: 00,3415           56021                           XCH      SR
002571: 00,3416           26155                           ADS      MPAC       +1                         #  GUARANTEED NO OVERFLOW.
002572:
002573: 00,3417           32314        ARGHI              CAF      SLOPEHI                               #  ARGUMENT BETWEEN .25 AND .5. GET A
002574: 00,3420           00006                           EXTEND                                         #  LINEAR APPROXIMATION FOR THIS RANGE.
002575: 00,3421           70154                           MP       MPAC
002576: 00,3422           62566                           AD       BIASHI                                #  X0/2 = (MPAC/2)(SLOPEHI) + BIASHI/2.
002577:
002578: 00,3423           54130                 +4        TS       BUF                                   #  X0/2 (ARGLO ENTERS HERE).
002579: 00,3424           30154                           CA       MPAC                                  #  SINGLE-PRECISION THROUGHOUT.
002580: 00,3425           22007                           ZL
002581: 00,3426           00006                           EXTEND
002582: 00,3427           10130                           DV       BUF                                   #  (MPAC/2)/(X0/2)
002583: 00,3430           00006                           EXTEND
002584: 00,3431           74736                           MP       HALF
002585: 00,3432           26130                           ADS      BUF                                   #  X1 = X0/2 + .5(MPAC/2)/(X0/2).
002586:
002587: 00,3433           00006                           EXTEND
002588: 00,3434           74736                           MP       HALF                                  #  FORM UP X1/2.
002589: 00,3435           52155                           DXCH     MPAC                                  #  SAVE AND BRING OUT ARGUMENT.
002590: 00,3436           00006                           EXTEND                                         #  TAKE DP QUOTIENT WITH X1.
002591: 00,3437           10130                           DV       BUF
002592: 00,3440           54131                           TS       BUF        +1                         #  SAVE MAJOR PART OF QUOTIENT.
002593: 00,3441           34755                           CAF      ZERO                                  #  FORM MINOR PART OF QUOTIENT USING
002594: 00,3442           56001                           XCH      L                                     #  (REMAINDER,0).
002595: 00,3443           00006                           EXTEND
002596: 00,3444           10130                           DV       BUF
002597: 00,3445           54001                           TS       L                                     #  IN PREPARATION FOR DAS.
002598: 00,3446           30131                           CA       BUF        +1
002599: 00,3447           20155                           DAS      MPAC                                  #  X2 = X1/2 + (MPAC/2)X1
002600:
002601: 00,3450           00006                           EXTEND                                         #  OVERFLOWS IF ARG. NEAR POSMAX.
002602: 00,3451           13455                           BZF      TCQBNK00
002603: 00,3452           34733                           CAF      POSMAX
002604: 00,3453           54154        FIXROOT            TS       MPAC
002605: 00,3454           54155                           TS       MPAC       +1
002606: 00,3455           00002        TCQBNK00           TC       Q                                     #  RETURN TO CALLER TO UNNORMALIZE, ETC.
002607:


002609: 00,3456           64737        SRTEST             AD       QUARTER                               #  ARGUMENT WAS LESS THAN .5, SEE IF LESS
002610: 00,3457           00006                           EXTEND                                         #  THAN .25.
002611: 00,3460           63502                           BZMF     SQRTNORM                              #  IF SO, BEGIN NORMALIZATION.
002612:
002613: 00,3461           52155                           DXCH     MPAC                                  #  IF BETWEEN .5 AND .25, SHIFT RIGHT 1 AND
002614: 00,3462           22021                           LXCH     SR                                    #  START AT ARGLO.
002615: 00,3463           00006                           EXTEND
002616: 00,3464           74736                           MP       HALF
002617: 00,3465           52155                           DXCH     MPAC
002618: 00,3466           56021                           XCH      SR
002619: 00,3467           26155                           ADS      MPAC       +1                         #  NO OVERFLOW.
002620:
002621: 00,3470           33007        ARGLO              CAF      SLOPELO                               #  (NORMALIZED) ARGUMENT BETWEEN .125 AND
002622: 00,3471           00006                           EXTEND                                         #  .25
002623: 00,3472           70154                           MP       MPAC
002624: 00,3473           62270                           AD       BIASLO
002625: 00,3474           13423                           TCF      ARGHI      +4                         #  BEGIN SQUARE ROOT.
002626:
002627: 00,3475           00006        SQRTNM2            EXTEND                                         #  SHIFT LEFT 2 AND INCREMENT RIGHT SHIFT
002628: 00,3476           30156                           DCA      MPAC       +1                         #  COUNT (FOR TERMINAL UNNORMALIZATION).
002629: 00,3477           20156                           DAS      MPAC       +1
002630: 00,3500           60154                           AD       MPAC
002631: 00,3501           26154                           ADS      MPAC                                  #  (NO OVERFLOW).
002632:
002633: 00,3502           24135        SQRTNORM           INCR     MPTEMP                                #  FIRST TIME THROUGH, JUST SHIFT LEFT 1
002634: 00,3503           00006                           EXTEND                                         #  (PUTS IN EFFECTIVE RIGHT SHIFT SINCE
002635: 00,3504           30156                           DCA      MPAC       +1                         #  WE WANT MPAC/2).
002636: 00,3505           20156                           DAS      MPAC       +1
002637: 00,3506           60154                           AD       MPAC
002638: 00,3507           26154                           ADS      MPAC                                  #  (AGAIN NO OVERFLOW).
002639: 00,3510           60000                           DOUBLE
002640: 00,3511           54022                           TS       CYL
002641:
002642: 00,3512           10022        NORMTEST           CCS      CYL                                   #  SEE IF ARGUMENT NOW NORMALIZED AT
002643: 00,3513           10022                           CCS      CYL                                   #  GREATER THAN .125.
002644: 00,3514           13475                           TCF      SQRTNM2                               #  NO - SHIFT LEFT 2 MORE AND TRY AGAIN.
002645: 00,3515           13417                           TCF      ARGHI                                 #  YES - NOW BETWEEN .5 AND .25.
002646: 00,3516           13470                           TCF      ARGLO                                 #  ARGUMENT NOW BETWEEN .25 AND .125.
002647:


002649:                                                                                                  #  TRIGONOMETRIC FUNCTION PACKAGE.
002650:
002651:                                                                                                  #            THE FOLLOWING TRIGONOMETRIC FUNCTIONS ARE AVAILABLE AS INTERPRETIVE OPERATIONS:
002652:
002653:                                                                                                  #            1.      SIN            COMPUTES (1/2)SINE(2 PI MPAC).
002654:                                                                                                  #            2.      COS            COMPUTES (1/2)COSINE(2 PI MPAC).
002655:
002656:                                                                                                  #            3.      ASIN           COMPUTES (1/2PI)ARCSINE(2 MPAC).
002657:                                                                                                  #            4.      ACOS           COMPUTES (1/2PI)ARCCOSINE(2 MPAC).
002658:
002659:                                                                                                  #  SIN-ASIN AND COS-ACOS ARE MUTUALLY INVERSE, IE SIN(ASIN(X)) = X.
002660:
002661:
002662: 00,3517           06726        COSINE             TC       BRANCH                                #  FINDS COSINE USING THE IDENTITY
002663: 00,3520           13523                           TCF      +3                                    #  COS(X) = SIN(PI/2 - ABS(X)).
002664: 00,3521           13526                           TCF      PRESINE
002665: 00,3522           13526                           TCF      PRESINE
002666:
002667: 00,3523           00006                 +3        EXTEND
002668: 00,3524           40155                           DCS      MPAC
002669: 00,3525           52155                           DXCH     MPAC
002670:
002671: 00,3526           34737        PRESINE            CAF      QUARTER                               #  PI/2 SCALED.
002672: 00,3527           26154                           ADS      MPAC
002673:
002674:
002675: 00,3530           52155        SINE               DXCH     MPAC                                  #  DOUBLE ARGUMENT.
002676: 00,3531           20001                           DDOUBL
002677: 00,3532           54000                           OVSK                                           #  SEE IF OVERFLOW PRESENT.
002678: 00,3533           13536                           TCF      +3                                    #  IF NOT, ARGUMENT OK AS IS.
002679:
002680: 00,3534           00006                           EXTEND                                         #  IF SO, WE LOST (OR GAINED) PI, SO
002681: 00,3535           40001                           DCOM                                           #  COMPLEMENT MPAC USING THE IDENTITY
002682:                                                                                                  #  SIN(X-(+)PI) = SIN(-X).
002683: 00,3536           52155                 +3        DXCH     MPAC
002684: 00,3537           30154                           CA       MPAC                                  #  SEE IF ARGUMENT GREATER THAN .5 IN
002685: 00,3540           60000                           DOUBLE                                         #  MAGNITUDE. IF SO, REDUCE IT TO LESS THAN
002686: 00,3541           54001                           TS       L                                     #  .5 (+-PI/2 SCALED) AS FOLLOWS:
002687: 00,3542           13553                           TCF      SN1
002688:
002689: 00,3543           50000                           INDEX    A                                     #  IF POSITIVE, FORM PI - X, IF NEGATIVE
002690: 00,3544           34735                           CAF      NEG1/2     +1                         #  USE -PI -X.
002691: 00,3545           60000                           DOUBLE
002692: 00,3546           00006                           EXTEND
002693: 00,3547           60154                           SU       MPAC                                  #  GUARANTEED NO OVERFLOW.
002694: 00,3550           54154                           TS       MPAC
002695: 00,3551           40155                           CS       MPAC       +1
002696: 00,3552           54155                           TS       MPAC       +1
002697:


002699: 00,3553           00006        SN1                EXTEND                                         #  SET UP TO EVALUATE HASTINGS POLYNOMIAL
002700: 00,3554           30155                           DCA      MPAC
002701: 00,3555           52134                           DXCH     BUF2
002702: 00,3556           03300                           TC       DSQSUB                                #  SQUARE MPAC.
002703:
002704: 00,3557           07225                           TC       POLY                                  #  EVALUATE FOURTH ORDER POLYNOMIAL.
002705: 00,3560           00003                           DEC      3          B-14
002706: 00,3561           14441 37325                     2DEC     +.3926990796
002707:
002708: 00,3563           53250 60764                     2DEC     -.6459637111
002709:
002710: 00,3565           12146 21276                     2DEC     +.318758717
002711:
002712: 00,3567           75466 71471                     2DEC     -.074780249
002713:
002714: 00,3571           00236 32757                     2DEC     +.009694988
002715:
002716: 00,3573           32470                           CAF      LBUF2                                 #  MULTIPLY BY ARGUMENT AND SHIFT LEFT 2.
002717: 00,3574           07111                           TC       DMPSUB     -1
002718:
002719: 00,3575           00006                           EXTEND
002720: 00,3576           30156                           DCA      MPAC       +1
002721: 00,3577           20156                           DAS      MPAC       +1
002722: 00,3600           60154                           AD       MPAC
002723: 00,3601           26154                           ADS      MPAC                                  #  NEITHER SHIFT OVERFLOWS.
002724: 00,3602           00006                           EXTEND
002725: 00,3603           30156                           DCA      MPAC       +1
002726: 00,3604           20156                           DAS      MPAC       +1
002727: 00,3605           60154                           AD       MPAC
002728: 00,3606           26154                           ADS      MPAC
002729: 00,3607           16064                           TCF      DANZIG
002730:


002732:                                                                                                  #           ARCSIN/ARCCOS ROUTINE.
002733:
002734: 00,3610           33631        ARCSIN             CAF      LASINEX                               #  COMPUTE ARCSIN BY USING THE IDENTITY
002735: 00,3611           13613                           TCF      +2                                    #  ARCSIN(X) = PI/2 - ARCCOS(X).
002736:
002737: 00,3612           33713        ARCCOS             CAF      LDANZIG                               #  (EXITS IMMEDIATELY).
002738: 00,3613           54136                           TS       ESCAPE
002739: 00,3614           06726                           TC       BRANCH                                #  TEST SIGN OF INPUT.
002740: 00,3615           13625                           TCF      ACOSST                                #  START IMMEDIATELY IF POSITIVE.
002741: 00,3616           13731                           TCF      ACOSZERO                              #  ARCCOS(0) = PI/2 = .25.
002742: 00,3617           00006                           EXTEND                                         #  IF NEGATIVE, USE THE IDENTITY
002743: 00,3620           40155                           DCS      MPAC                                  #  ARCCOS(X) = PI - ARCCOS(-X), FORCING
002744: 00,3621           52155                           DXCH     MPAC                                  #  ARGUMENT POSITIVE.
002745: 00,3622           33734                           CAF      TCSUBTR                               #  SET EXIT  TO DO ABOVE BEFORE
002746: 00,3623           56136                           XCH      ESCAPE                                #  ARCSIN/ARCCOS CONSIDERATIONS.
002747: 00,3624           54137                           TS       ESCAPE2
002748:
002749: 00,3625           44736        ACOSST             CS       HALF                                  #  TEST MAGNITUDE OF INPUT.
002750: 00,3626           60154                           AD       MPAC
002751: 00,3627           10000                           CCS      A
002752: 00,3630           13721                           TCF      ACOSOVF                               #  THIS IS PROBABLY AN OVERFLOW CASE.
002753:
002754: 00,3631           13707        LASINEX            TCF      ASINEX
002755:
002756: 00,3632           13642                           TCF      ACOSST2                               #  NO OVERFLOW - PROCEED.
002757:
002758: 00,3633           10155                           CCS      MPAC       +1                         #  IF MAJOR PART IS .5, CALL ANSWER 0
002759: 00,3634           34755                           CAF      ZERO                                  #  UNLESS MINOR PART NEGATIVE.
002760: 00,3635           13637                           TCF      ACOS=0
002761:
002762: 00,3636           13642                           TCF      ACOSST2
002763:
002764: 00,3637           54155        ACOS=0             TS       MPAC       +1
002765: 00,3640           54154                           TS       MPAC
002766: 00,3641           00136                           TC       ESCAPE
002767:
002768: 00,3642           00006        ACOSST2            EXTEND                                         #  NOW THAT ARGUMENT IS IN PROPER RANGE,
002769: 00,3643           40155                           DCS      MPAC                                  #  BEGIN COMPUTATION. USE HASTINGS
002770: 00,3644           64736                           AD       HALF                                  #  APPROXIMATION ARCCOS(X) = SQRT(1-X)P(X)
002771: 00,3645           52155                           DXCH     MPAC                                  #  IN A SCALED VERSION WHERE P(X) IS A
002772: 00,3646           52134                           DXCH     BUF2                                  #  SEVENTH ORDER POLYNOMIAL.
002773:
002774: 00,3647           03343                           TC       SQRTSUB                               #  RETURNS WITH NORMALIZED SQUARE ROOT.
002775:
002776: 00,3650           10135                           CCS      MPTEMP                                #  SEE IF UN-NORMALIZATION REQUIRED.
002777: 00,3651           13714                           TCF      ACOSSHR                               #  IF SO.
002778:


002780: 00,3652           52155        ACOS3              DXCH     MPAC                                  #  SET UP FOR POLYNOMIAL EVALUATION.
002781: 00,3653           52134                           DXCH     BUF2
002782: 00,3654           52155                           DXCH     MPAC
002783:
002784: 00,3655           07225                           TC       POLY
002785: 00,3656           00006                           DEC      6          B-14
002786: 00,3657           13240 23630                     2DEC     +.353553385                            #  COEFFICIENTS ARE C 2(+I)/PISQRT(2) WHERE
002787:
002788: 00,3661           74721 47775                     2DEC*    -.0483017006 B+1*                       #  I
002789:
002790: 00,3663           02440 20237                     2DEC*    +.0200273085 B+2*                       #  WHERE C STANDS FOR ORIGINAL COEFFS.
002791:
002792: 00,3665           75067 70742                     2DEC*    -.0112931863 B+3*
002793:
002794: 00,3667           03436 26756                     2DEC*    +.00695311612 B+4*
002795:
002796: 00,3671           74037 57640                     2DEC*    -.00384617957 B+5*
002797:
002798: 00,3673           03046 07143                     2DEC*    +.001501297736 B+6*
002799:
002800: 00,3675           76654 42244                     2DEC*    -.000284160334 B+7*
002801:
002802:
002803: 00,3677           32470                           CAF      LBUF2                                 #  DO FINAL MULTIPLY AND GO TO ANY
002804: 00,3700           07111                           TC       DMPSUB     -1                         #  EPILOGUE SEQUENCES.
002805: 00,3701           00136                           TC       ESCAPE
002806:
002807: 00,3702           00006        SUBTR              EXTEND                                         #  EPILOGUE FOR NEGATIVE INPUTS TO ARCCOS.
002808: 00,3703           40155                           DCS      MPAC
002809: 00,3704           64736                           AD       HALF                                  #  FORMS PI - ARCCOS(-X) = ARCCOS(X).
002810: 00,3705           52155                           DXCH     MPAC
002811: 00,3706           00137                           TC       ESCAPE2                               #  GO TO POSSIBLE ARCSIN EPILOGUE.
002812:
002813: 00,3707           00006        ASINEX             EXTEND
002814: 00,3710           40155                           DCS      MPAC                                  #  ARCSIN EPILOGUE - GET ARCSIN(X)
002815: 00,3711           64737                           AD       QUARTER                               #  = PI/2 - ARCCOS(X).
002816: 00,3712           52155                           DXCH     MPAC
002817: 00,3713           16064        LDANZIG            TCF      DANZIG
002818:


002820: 00,3714           50000        ACOSSHR            INDEX    A                                     #  THE SHIFT RIGHT IS LESS THAN 14 SINCE
002821: 00,3715           34736                           CAF      BIT14                                 #  THE INPUT WAS NON-ZERO DP.
002822: 00,3716           54135                           TS       MPTEMP
002823: 00,3717           02073                           TC       VSHRRND                               #  DP SHIFT RIGHT AND ROUND.
002824: 00,3720           13652                           TCF      ACOS3                                 #  PROCEED.
002825:
002826: 00,3721           00006        ACOSOVF            EXTEND                                         #  IF MAJOR PART WAS ONLY 1 MORE THAN .5,
002827: 00,3722           13637                           BZF      ACOS=0                                #  CALL ANSWER ZERO.
002828:
002829: 00,3723           00006        ACOSABRT           EXTEND                                         #  IF OVERFLOW, CALL ANSWER ZERO BUT
002830: 00,3724           30165                           DCA      LOC                                   #  SOUND AN ALARM.
002831: 00,3725           05722                           TC       ALARM1
002832: 00,3726           01301                           OCT      1301
002833:
002834: 00,3727           34755                           CAF      ZERO
002835: 00,3730           13637                           TCF      ACOS=0
002836:
002837: 00,3731           34737        ACOSZERO           CAF      QUARTER                               #  ACOS(0) = PI/2.
002838: 00,3732           13640                           TCF      ACOS=0     +1                         #  SET MPAC AND EXIT VIA ESCAPE.
002839:
002840: 00,3733           77763        NEG12              DEC      -12        B-14
002841: 00,3734           13702        TCSUBTR            TCF      SUBTR
002842:


002844:                                                                                                  #           THE FOLLOWING INSTRUCTIONS ARE AVAILABLE FOR SETTING, MODIFYING, AND BRANCHING ON INDEX REGISTERS:
002845:
002846:                                                                                                  #           1. AXT                 ADDRESS TO INDEX TRUE.
002847:                                                                                                  #           1. AXC                 ADDRESS TO INDEX COMPLEMENTED.
002848:                                                                                                  #           3. LXA                 LOAD INDEX FROM ERASABLE.
002849:                                                                                                  #           4. LXC                 LOAD INDEX COMPLEMENTED FROM ERASABLE.
002850:                                                                                                  #           5. SXA                 STORE INDEX IN ERASABLE.
002851:                                                                                                  #           6. XCHX                EXCHANGE INDEX REIGSTER WITH ERASABLE.
002852:
002853:                                                                                                  #           7. INCR                INCREMENT INDEX REGISTER.
002854:                                                                                                  #           8. XAD                 ERASABLE ADD TO INDEX REGISTER.
002855:                                                                                                  #           9. XSU                 ERASABLE SUBTRACT FROM INDEX REGISTER.
002856:
002857:                                                                                                  #          10. TIX                 BRANCH ON INDEX REGISTER AND DECREMENT.
002858:
002859:
002860: 01,2345                                           BANK     01
002861:
002862: 01,2345                                           COUNT*   $$/INTER
002863: 01,2345           02442        AXT                TC       TAGSUB                                #  SELECT APPROPRIATE INDEX REGISTER.
002864: 01,2346           30117                           CA       POLISH
002865: 01,2347           50130        XSTORE             INDEX    INDEXLOC                              #  CONTAINS C(FIXLOC) OR C(FIXLOC)+1.
002866: 01,2350           54046                           TS       X1
002867: 01,2351           16064                           TCF      DANZIG
002868:
002869: 01,2352           02442        AXC                TC       TAGSUB
002870: 01,2353           40117                           CS       POLISH
002871: 01,2354           02347                           TC       XSTORE
002872:
002873: 01,2355           02430        LXA                TC       15ADRERS                              #  LOAD INDEX REGISTER FROM ERASABLE.
002874: 01,2356           50117                           INDEX    POLISH
002875: 01,2357           30000                           CA       0
002876: 01,2360           12347                           TCF      XSTORE
002877:
002878: 01,2361           02430        LXC                TC       15ADRERS                              #  LOAD NDX REG FROM ERASABLE COMPLEMENTED.
002879: 01,2362           50117                           INDEX    POLISH
002880: 01,2363           40000                           CS       0
002881: 01,2364           12347                           TCF      XSTORE
002882:
002883: 01,2365           02430        SXA                TC       15ADRERS                              #  STORE INDEX REGISTER IN ERASABLE.
002884: 01,2366           50130                           INDEX    INDEXLOC
002885: 01,2367           30046                           CA       X1
002886: 01,2370           50117        MSTORE1            INDEX    POLISH
002887: 01,2371           54000                           TS       0
002888: 01,2372           16064                           TCF      DANZIG
002889:


002891: 01,2373           02430        XCHX               TC       15ADRERS                              #  EXCHANGE INDEX REGISTER WITH ERASABLE.
002892: 01,2374           50117                           INDEX    POLISH
002893: 01,2375           30000                           CA       0
002894: 01,2376           50130                           INDEX    INDEXLOC
002895: 01,2377           56046                           XCH      X1
002896: 01,2400           12370                           TCF      MSTORE1
002897:
002898: 01,2401           02430        XAD                TC       15ADRERS                              #  ADD ERASABLE TO INDEX REGISTER.
002899: 01,2402           50117                           INDEX    POLISH
002900: 01,2403           30000                           CA       0
002901: 01,2404           50130        XAD2               INDEX    INDEXLOC
002902: 01,2405           26046                           ADS      X1                                    #  IGNORING OVERFLOWS.
002903: 01,2406           16064                           TCF      DANZIG
002904:
002905: 01,2407           02442        INCR               TC       TAGSUB                                #  INCREMENT INDEX REGISTER.
002906: 01,2410           30117                           CA       POLISH
002907: 01,2411           12404                           TCF      XAD2
002908:
002909: 01,2412           02430        XSU                TC       15ADRERS                              #  SUBTRACT ERASABLE FROM INDEX REGISTER.
002910: 01,2413           50117                           INDEX    POLISH
002911: 01,2414           40000                           CS       0
002912: 01,2415           12404                           TCF      XAD2
002913:
002914: 01,2416           02442        TIX                TC       TAGSUB                                #  BRANCH AND DECREMENT ON INDEX.
002915: 01,2417           50130                           INDEX    INDEXLOC
002916: 01,2420           40050                           CS       S1
002917: 01,2421           50130                           INDEX    INDEXLOC
002918: 01,2422           60046                           AD       X1
002919: 01,2423           00006                           EXTEND                                         #  NO OPERATION IF DECREMENTED INDEX IS
002920: 01,2424           66064                           BZMF     DANZIG                                #  NEGATIVE OR ZERO.
002921:
002922: 01,2425           50130        DOTIXBR            INDEX    INDEXLOC
002923: 01,2426           56046                           XCH      X1                                    #  IGNORING OVERFLOWS.
002924:
002925: 01,2427           16651                           TCF      GOTO                                  #  DO THE BRANCH USING THE CADR IN POLISH.
002926:


002928:                                                                                                  #           SUBROUTINE TO CONVERT AN ERASABLE ADDRESS (11 BITS) TO AN EBANK SETTING AND SUBADDRESS.
002929:
002930: 01,2430           40117        15ADRERS           CS       POLISH
002931: 01,2431           64772                           AD       DEC45
002932: 01,2432           10000                           CCS      A                                     #  DOES THE ADDRESS POINT TO THE WORK AREA?
002933: 01,2433           30120                           CA       FIXLOC                                #  YES.  ADD FIXLOC.  EBANK OK AS IS.
002934: 01,2434           12441                           TCF      +5
002935:
002936: 01,2435           35007                           CA       OCT1400                               #  NO.  SET EBANK & MAKE UP SUBADDRESS.
002937: 01,2436           56117                           XCH      POLISH
002938: 01,2437           54003                           TS       EBANK
002939: 01,2440           74357                           MASK     LOW8
002940: 01,2441           26117                 +5        ADS      POLISH                                #  FALL INTO TAGSUB, AND RETURN VIA Q.
002941:
002942:                                                                                                  #           SUBROUTINE WHICH SETS THE ADDRESS OF THE SPECIFIED INDEX IN INDEXLOC. (ACTUALLY, THE ADDRESS -38D.)
002943:
002944: 01,2442           30120        TAGSUB             CA       FIXLOC
002945: 01,2443           54130                           TS       INDEXLOC
002946:
002947: 01,2444           10020                           CCS      CYR                                   #  BIT 15 SPECIFIES INDEX.
002948: 01,2445           24130                           INCR     INDEXLOC                              #  0 MEANS USE X2.
002949: 01,2446           00002                           TC       Q
002950: 01,2447           00002                           TC       Q                                     #  1 FOR X1.
002951:


002953:                                                                                                  #           MISCELLANEOUS OPERATION CODES WITH DIRECT ADDRESSES. INCLUDED HERE ARE:
002954:
002955:                                                                                                  #           1.  ITA                STORE QPRET (RETURN ADDRESS) IN ERASABLE.
002956:                                                                                                  #           2.  CALL               CALL A SUBROUTINE, LEAVING RETURN IN QPRET.
002957:                                                                                                  #           3.  RTB                RETURN TO BASIC LANGUAGE AT THE GIVEN ADDRESS.
002958:                                                                                                  #           4.  BHIZ               BRANCH IF THE HIGH ORDER OF MPAC IS ZERO (SINGLE PRECISION).
002959:                                                                                                  #           5.  BOV                BRANCH ON OVERFLOW.
002960:                                                                                                  #           6.  GOTO               SIMPLE SEQUENCE CHANGE.
002961:
002962: 01,2450           10020        RTB/BHIZ           CCS      CYR
002963: 01,2451           30117        RTB                CA       POLISH
002964: 01,2452           04621                           TC       SWCALL     -1                         #  SO A "TC Q" FROM ROUTINE LEADS TO DANZIG
002965:
002966: 01,2453           10154        BHIZ               CCS      MPAC
002967: 01,2454           16064                           TCF      DANZIG
002968: 01,2455           16651                           TCF      GOTO
002969: 01,2456           16064                           TCF      DANZIG
002970: 01,2457           16651                           TCF      GOTO
002971:
002972: 01,2460           10121        BOV(B)             CCS      OVFIND                                #  BRANCH ON OVERFLOW TO BASIC OR INTERP.
002973: 01,2461           12463                           TCF      +2
002974: 01,2462           16064                           TCF      DANZIG
002975: 01,2463           54121                           TS       OVFIND
002976: 01,2464           10020                           CCS      CYR
002977: 01,2465           12451                           TCF      RTB                                   #  IF BASIC.
002978: 01,2466           00360        B5TOB8             OCT      360
002979: 01,2467           16651                           TCF      GOTO
002980:


002982: 01,2470           10020        BZE/GOTO           CCS      CYR                                   #  SEE WHICH OP-CODE IS DESIRED.
002983: 01,2471           06726                           TC       BRANCH                                #  DO BZE.
002984: 01,2472           16064                           TCF      DANZIG
002985: 01,2473           16651                           TCF      GOTO                                  #  DO GOTO.
002986: 01,2474           16064                           TCF      DANZIG
002987:
002988: 01,2475           10020        BPL/BMN            CCS      CYR
002989: 01,2476           12504                           TCF      BPL
002990: 01,2477           12000        5B10               DEC      5          B+10                       #  SHIFTS OP CODE IN SWITCH INSTRUCTION ADR
002991:
002992: 01,2500           06726                           TC       BRANCH                                #  DO BMN.
002993: 01,2501           16064                           TCF      DANZIG
002994: 01,2502           16064                           TCF      DANZIG
002995: 01,2503           16651                           TCF      GOTO                                  #  ONLY IF NNZ.


002997:
002998: 01,2504           06726        BPL                TC       BRANCH
002999: 01,2505           16651                           TCF      GOTO                                  #  IF POSITIVE OR ZERO.
003000: 01,2506           16651                           TCF      GOTO
003001: 01,2507           16064                           TCF      DANZIG
003002:
003003: 01,2510           10020        CALL/ITA           CCS      CYR
003004: 01,2511           16643                           TCF      CALL
003005:
003006: 01,2512           05675                           TC       CCSHOLE
003007: 01,2513           02430                           TC       15ADRERS                              #  STORE QPRET. (TAGSUB AFTER 15ADRERS IS
003008: 01,2514           50120                           INDEX    FIXLOC                                #  SLOW IN THIS CASE, BUT SAVES STORAGE.)
003009: 01,2515           30052                           CA       QPRET
003010: 01,2516           12370                           TCF      MSTORE1
003011:


003013:                                                                                                  #           THE FOLLOWING OPERATIONS ARE AVAILABLE FOR ALTERING AND TESTING INTERPRETIVE SWITCHES:
003014:
003015:                                                                                                  #   00      BONSET                 SET A SWITCH AND DO A GOTO IF IT WAS ON.
003016:                                                                                                  #   01      SETGO                  SET A SWITCH AND DO A GOTO.
003017:                                                                                                  #   02      BOFSET                 SET A SWITCH AND DOA GOTO IF IT WAS OFF
003018:                                                                                                  #   03      SET                    SET A SWITCH.
003019:
003020:                                                                                                  #   04      BONINV                 INVERT A SWITCH AND BRANCH IF IT WAS ON.
003021:                                                                                                  #   05      INVGO                  INVERT A SWITCH AND DO A GOTO.
003022:                                                                                                  #   06      BOFINV                 INVERT A SWITCH AND BRANCH IF IT WAS OFF
003023:                                                                                                  #   07      INVERT                 INVERT A SWITCH.
003024:
003025:                                                                                                  #   10      BONCLR                 CLEAR A SWITCH AND BRANCH IF IT WAS ON.
003026:                                                                                                  #   11      CLRGO                  CLEAR A SWITCH AND DO A GOTO.
003027:                                                                                                  #   12      BOFCLR                 CLEAR A SWITCH AND BRANCH IF IT WAS OFF.
003028:                                                                                                  #   13      CLEAR                  CLEAR A SWITCH.
003029:
003030:                                                                                                  #   14      BON                    BRANCH IF A SWITCH WAS ON.
003031:                                                                                                  #   16      BOFF                   BRANCH IF A SWITCH WAS OFF.
003032:
003033:
003034:                                                                                                  #           THE ADDRESS SUPPLIED WITH THE SWITCH INSTRUCTION IS INTERPRETED AS FOLLOWS:
003035:
003036:                                                                                                  #           BITS 1-4    SWITCH BIT NUMBER (1-15).
003037:                                                                                                  #           BITS 5-8    SWITCH OPERATION NUMBER.
003038:                                                                                                  #           BITS 9-     SWITCH WORD NUMBER (UP TO 64 SWITCH WORDS).
003039:
003040:                                                                                                  #           THE ADDRESS ITSELF IS MADE UP BY THE YUL SYSTEM ASSEMBLER. THE BRANCH INSTRUCTIONS REQUIRE TWO
003041:                                                                                                  #  ADDRESSES, THE SECOND TAKEN AS THE DIRECT (OR INDIRECT IF IN ERASABLE) ADDRESS OF THE BRANCH.
003042:
003043:
003044: 01,2517           34762        SWITCHES           CAF      LOW4                                  #  LEAVE THE SWITCH BIT IN  SWBIT.
003045: 01,2520           70117                           MASK     POLISH
003046: 01,2521           50000                           INDEX    A
003047: 01,2522           34735                           CAF      BIT15                                 #  (NUMBER FROM LEFT TO RIGHT.)
003048: 01,2523           54131                           TS       SWBIT
003049:
003050: 01,2524           34745                           CAF      BIT7                                  #  LEAVE THE SWITCH NUMBER IN SWWORD.
003051: 01,2525           00006                           EXTEND
003052: 01,2526           70117                           MP       POLISH
003053: 01,2527           54130                           TS       SWWORD
003054:
003055: 01,2530           00004                           INHINT                                         #  DURING SWITCH CHANGE SO RUPT CAN USE TOO
003056: 01,2531           50000                           INDEX    A                                     #  LEAVE THE SWITCH WORD ITSELF IN L.
003057: 01,2532           30074                           CA       STATE
003058: 01,2533           54002                           TS       Q                                     #  Q WILL BE USED AS A CHANNEL.
003059:


003061: 01,2534           34741                           CAF      BIT11
003062: 01,2535           00006                           EXTEND                                         #  DISPATCH SWITCH BIT OPERATION AS IN BITS
003063: 01,2536           70117                           MP       POLISH                                #  7-8 OF POLISH.
003064: 01,2537           72577                           MASK     B3TOB4                                #  GETS 4X2-BIT CODE.
003065: 01,2540           50000                           INDEX    A
003066: 01,2541           12542                           TCF      +1
003067:
003068: 01,2542           30131                 +1        CA       SWBIT                                 #  00 - SET SWITCH IN QUESTION.
003069: 01,2543           00006                           EXTEND
003070: 01,2544           04002                           ROR      QCHAN
003071: 01,2545           12554                           TCF      SWSTORE
003072:
003073: 01,2546           30131                 +5        CA       SWBIT                                 #  01 - INVERT SWITCH.
003074: 01,2547           00006                           EXTEND
003075: 01,2550           06002                           RXOR     QCHAN
003076: 01,2551           12554                           TCF      SWSTORE
003077:
003078: 01,2552           40131                 +9D       CS       SWBIT                                 #  10 - CLEAR.
003079: 01,2553           70002                           MASK     Q
003080: 01,2554           50130        SWSTORE            INDEX    SWWORD
003081: 01,2555           54074                           TS       STATE                                 #  NEW SWITCH WORD.
003082:


003084: 01,2556           00003                 +13D      RELINT                                         #  11 - NOOP.
003085: 01,2557           34737                           CAF      BIT13
003086: 01,2560           00006                           EXTEND                                         #  DISPATCH SEQUCE CHANGING OR BRANCHING
003087: 01,2561           70117                           MP       POLISH                                #  CODE.
003088: 01,2562           72577                           MASK     B3TOB4
003089: 01,2563           50000                           INDEX    A
003090: 01,2564           12565                           TCF      +1                                    #  ORIGINALLY STORED IN BITS 5-6.
003091:
003092: 01,2565           40002                 +1        CS       Q                                     #  00 - BRANCH IF ON.
003093: 01,2566           70131        TEST               MASK     SWBIT
003094: 01,2567           10000                           CCS      A
003095: 01,2570           12600                           TCF      SWSKIP
003096:
003097: 01,2571           16720                 +5        TCF      SWBRANCH                              #  01 - GO TO.
003098:
003099: 01,2572           12600                           TCF      SWSKIP                                #  HERE ONLY ON BIT 15.
003100:
003101: 01,2573           05675                           TC       CCSHOLE
003102: 01,2574           05675                           TC       CCSHOLE
003103:
003104: 01,2575           30002                 +9D       CA       Q                                     #  10 - BRANCH IF OFF.
003105: 01,2576           12566                           TCF      TEST
003106:
003107: 01,2577           00014        B3TOB4             OCT      0014
003108: 01,2600           24164        SWSKIP             INCR     LOC
003109:
003110: 01,2601  01,2517               SW/                EQUALS   SWITCHES
003111:
003112: 01,2601           16064                 +13D      TCF      DANZIG                                #  11 - NOOP.

End of include-file INTERPRETER.agc.  Parent file is MAIN.agc


