
Source Code


000002:                                                                                                  ## Copyright:   Public domain.
000003:                                                                                                  ## Filename:    INTEGRATION_INITIALIZATION.agc
000004:                                                                                                  ## Purpose:     A section of Luminary revision 116.
000005:                                                                                                  ##              It is part of the source code for the Lunar Module's (LM)
000006:                                                                                                  ##              Apollo Guidance Computer (AGC) for Apollo 12.
000007:                                                                                                  ##              This file is intended to be a faithful transcription, except
000008:                                                                                                  ##              that the code format has been changed to conform to the
000009:                                                                                                  ##              requirements of the yaYUL assembler rather than the
000010:                                                                                                  ##              original YUL assembler.
000011:                                                                                                  ## Reference:   pp. 1196-1217
000012:                                                                                                  ## Assembler:   yaYUL
000013:                                                                                                  ## Contact:     Ron Burkey <info@sandroid.org>.
000014:                                                                                                  ## Website:     www.ibiblio.org/apollo/index.html
000015:                                                                                                  ## Mod history: 2017-01-22 MAS  Created from Luminary 99.
000016:                                                                                                  ##              2017-03-01 RRB  Updated for Luminary 116.
000017:                                                                                                  ##              2017-03-09 HG   Fix interpretive opcode   BCN  --> BON
000018:                                                                                                  ##                                               operand POOFLAG  --> POOHFLAG
000019:                                                                                                  ##              2017-03-13 RSB  Proofed comment text via 3-way diff vs
000020:                                                                                                  ##                              Luminary 99 and 131.
000021:                                                                                                  ##              2017-03-15 RSB  Comment-text fixes identified in 5-way
000022:                                                                                                  ##                              side-by-side diff of Luminary 69/99/116/131/210.
000023:                                                                                                  ##              2017-03-19 HG   Fix missing operator and operand  SET POOHFLAG
000024:                                                                                                  ##              2017-08-19 MAS  Fixed comment errors found transcribing Zerlina 56.
000025:                                                                                                  ##              2021-05-30 ABS  Fix a couple of page numbers to match scans.
000026:


000028:                                                                                                  #  1.0 INTRODUCTION
000029:                                                                                                  #  ----------------
000030:
000031:                                                                                                  #  FROM A USERS POINT OF VIEW, ORBITAL INTEGRATION IS ESSENTIALLY THE SAME AS THE 278 INTEGRATION
000032:                                                                                                  #  PROGRAM. THE SAME ENTRANCES TO THE PROGRAM WILL BE MAINTAINED, THE SAME STALLING ROUTINE WILL BE USED AND
000033:                                                                                                  #  OUTPUT WILL STILL BE VIA THE PUSHLIST. THE PRIMARY DIFFERENCES TO A USER INVOLVE THE ADDED CAPABILITY OF
000034:                                                                                                  #  TERMINATING INTEGRATION AT A SPECIFIC FINAL RADIUS AND THE DIFFERENCE IN STATE VECTOR SCALING INSIDE AND OUT-
000035:                                                                                                  #  SIDE THE LUNAR SPHERE OF INFLUENCE.
000036:
000037:                                                                                                  #  IN ORDER TO MAKE THE CSM(LEM)PREC AND CSM(LEM)CONIC ENTRANCES SIMILAR TO FLIGHT 278, THE INTEGRATION PROGRAM
000038:                                                                                                  #  WILL ITSELF SET THE FINAL RADIUS (RFINAL) TO 0 SO THAT REACHING THE DESIRED TIME ONLY WILL TERMINATE
000039:                                                                                                  #  INTEGRATION. THE DP REGISTER RFINAL MUST BE SET BY USERS OF INTEGRVS AND INTEGRV, AND MUST BE DONE AFTER THE
000040:                                                                                                  #  CALL TC INTSTALL.
000041:
000042:                                                                                                  #  WHEN THE LM IS ON THE LUNAR SURFACE (INDICATED BY LUNAR SURFACE FLAG SET) CALLS TO LEMCONIC, LEMPREC, AND
000043:                                                                                                  #  INTEGRV WITH VINFLAG = 0 WILL RESULT IN THE USE OF THE PLANETARY INERTIAL ORIENTATION SUBROUTINES TO PROVIDE
000044:                                                                                                  #  BOTH THE LMS POSITION AND VELOCITY IN THE REFERENCE COORDINATE SYSTEM.
000045:                                                                                                  #  THE PROGRAM WILL PROVIDE OUTPUT AS IF INTEGRATION WAS USED. THAT IS, THE PUSHLIST WILL BE SET AS NOTED BELOW AND
000046:                                                                                                  #  THE PERMANENT STATE VECTOR UPDATED WHEN SPECIFIED BY AN INTEGRV CALL.
000047:
000048:                                                                                                  #  USERS OF INTEGRVS DESIRING INTEGRATION (INTYPFLG = 0) SHOULD NOTE THAT THE OBLATENESS PERTURBATION COMPUTATION
000049:                                                                                                  #  IN LUNAR ORBIT IS TIME DEPENDENT. THEREFORE, THE USER SHOULD SUPPLY AN INITIAL STATE VECTOR VALID AT SOME REAL
000050:                                                                                                  #  TIME AND THE DESIRED TIME (TDEC1) ALSO AT SOME REAL TIME. FOR CONIC ,,INTEGRATION,, THE USER MAY STILL USE ZERO
000051:                                                                                                  #  AS THE INITIAL TIME AND DELTA TIME AS THE DESIRED TIME.
000052:
000053:                                                                                                  #  2.0 GENERAL DESCRIPTION
000054:                                                                                                  #  -----------------------
000055:
000056:                                                                                                  #  THE INTEGRATION PROGRAM OPERATES AS A CLOSED INTERPRETIVE SUBROUTINE AND PERFORMS THESE FUNCTIONS---
000057:                                                                                                  #     1) INTEGRATES (PRECISION OR CONIC) EITHER CSM OR LM STATE VECTOR
000058:                                                                                                  #     2) INTEGRATES THE W-MATRIX
000059:                                                                                                  #     3) PERMANENT OR TEMPORARY UPDATE OF THE STATE VECTOR
000060:
000061:                                                                                                  #  THERE ARE SIX ENTRANCES TO THE INTEGRATION PROGRAM. FOUR OF THESE (CSMPREC, LEMPREC, CSMCONIC, LEMCONIC) SET
000062:                                                                                                  #  ALL THE FLAGS REQUIRED IN THE INTEGRATION PROGRAM ITSELF TO CAUSE THE PRECISION OR CONIC INTEGRATION (KEPLER) OF
000063:                                                                                                  #  THE LM OR CSM STATE VECTOR, AS THE NAMES SUGGEST. ONE ENTRANCE (INTEGRVS) PERMITS THE CALLING PROGRAM TO
000064:                                                                                                  #  PROVIDE A STATE VECTOR TO BE INTEGRATED. THE CALLING PROGRAM MUST SET THE FLAGS INDICATING (1) PRECISION OR
000065:                                                                                                  #  CONIC INTEGRATION, (2) IN OR OUT OF LUNAR SPHERE, (3) MIDCOURSE OR NOT, AND THE INTEGRATION PROGRAM COMPLETES
000066:                                                                                                  #  THE FLAG SETTING TO BYPASS W-MATRIX INTEGRATION. THE LAST ENTRANCE (INTEGRV, USED IN GENERAL BY THE
000067:                                                                                                  #  NAVIGATION PROGRAMS) PERMITS THE CALLER TO SET FIVE FLAGS (NOT MOONFLAG OR MIDFLAG) BUT NOT TO INPUT A STATE
000068:                                                                                                  #  VECTOR. ANY PROGRAM WHICH CALLS INTEGRVS OR INTEGRV MUST CALL INTSTALL BEFORE IT SETS THE INTEGRATION FLAGS
000069:                                                                                                  #  AND/OR STATE VECTOR.
000070:
000071:                                                                                                  #  THREE SETS OF 42 REGISTERS AND 2 FLAGS ARE USED FOR THE STATE VECTORS. TWO SETS, WHICH MAY NOT BE OVERLAYED, ARE
000072:                                                                                                  #  USED FOR THE PERMANENT STATE VECTORS FOR THE CSM AND LM. THE THIRD SET, WHICH MAY BE OVERLAYED WHEN INTEGRATION
000073:                                                                                                  #  IS NOT BEING DONE, IS USED IN THE COMPUTATIONS.
000074:
000075:                                                                                                  #  THE PERMANENT STATE VECTORS WILL BE PERIODICALLY UPDATED SO THAT THE VECTORS WILL NOT BE OLDER THAN 4 TIMESTEPS.
000076:                                                                                                  #  THE PERMANENT STATE VECTORS WILL ALSO BE UPDATED WHENEVER THE W-MATRIX IS INTEGRATED OR WHEN A CALLER OF INTEGRV
000077:                                                                                                  #  SETS STATEFLG (THE NAVIGATION PROGRAMS P20, P22.)
000078:


000080:                                                                                                  #  APPENDIX B OF THE USERS GUIDE LISTS THE STATE VECTOR QUANTITIES.
000081:
000082:                                                                                                  #  2.1 RESTARTS
000083:
000084:                                                                                                  #  PHASE CHANGES WILL BE MADE IN THE INTEGRATION PROGRAM ONLY FOR THE INTEGRV ENTRANCE (I.E., WHEN THE W-MATRIX IS
000085:                                                                                                  #  INTEGRATED OR PERMANENT STATE VECTOR IS UPDATED.) THE GROUP NUMBER USED WILL BE THAT FOR THE P20-25 PROGRAMS
000086:                                                                                                  #  (I.E., GROUP2) SINCE THE INTEGRV ENTRANCE WILL ONLY BE USED BY THESE PROGRAMS. IF A RESTART OCCURS DURING AN
000087:                                                                                                  #  INTEGRATION OF THE STATE VECTOR ONLY, THE RECOVERY WILL BE TO THE LAST PHASE IN THE CALLING PROGRAM. CALLING
000088:                                                                                                  #  PROGRAMS WHICH USE THE INTEGRV OR INTEGRVS ENTRANCE OF INTEGRATION SHOULD ENSURE THAT IF PHASE CHANGING IS DONE
000089:                                                                                                  #  THAT IT IS PRIOR TO SETTING THE INTEGRATION INPUTS IN THE PUSHLIST.
000090:                                                                                                  #  THIS IS BECAUSE THE PUSHLIST IS LOST DURING A RESTART.
000091:
000092:                                                                                                  #  2.2 SCALING
000093:
000094:                                                                                                  #  THE INTEGRATION ROUTINE WILL MAINTAIN THE PERMANENT MEMORY STATE VECTORS IN THE SCALING AND UNITS DEFINED IN
000095:                                                                                                  #  APPENDIX B OF THE USERS GUIDE. THE SCALING OF THE OUTPUT POSITION VECTOR DEPENDS ON THE ORIGIN OF THE COORDINATE
000096:                                                                                                  #  SYSTEM AT THE DESIRED INTEGRATION TIME. THE COORDINATE SYSTEM TRANSFORMATION WILL BE DONE AUTOMATICALLY ON
000097:                                                                                                  #  MULTIPLE TIMESTEP ENCKE INTEGRATION ONLY. THUS IT IS POSSIBLE TO HAVE OUTPUT FROM SUCCESSIVE INTEGRATIONS IN
000098:                                                                                                  #  DIFFERENT SCALING.
000099:                                                                                                  #  HOWEVER, RATT, VATT WILL ALWAYS BE SCALED THE SAME.
000100:
000101:                                                                                                  #  3.0 INPUT/OUTPUT
000102:                                                                                                  #  ----------------
000103:
000104:                                                                                                  #  PROGRAM INPUTS ARE THE FLAGS DESCRIBED IN APPENDIX A AND THE PERMANENT STATE VECTOR QUANTITIES DESCRIBED IN AP-
000105:                                                                                                  #  PENDIX B OF THE USERS GUIDE, PLUS THE DESIRED TIME TO INTEGRATE TO IN TDEC1 (A PUSH LIST LOCATION).
000106:                                                                                                  #  FOR INTEGRVS, THE RCV,VCV, TET OF THE TEMPORARY STATE VECTOR MUST BE SET, PLUS MOONFLAG AND MIDFLAG
000107:
000108:                                                                                                  #  FOR SIMULATION THE FOLLOWING QUANTITIES MUST BE PRESET ---
000109:                                                                                                  #                                                             EARTH   MOON
000110:                                                                                                  #                                                              29      27
000111:                                                                                                  #     RRECTCSM(LEM)  - RECTIFIED POSITION VECTOR      METERS  2       2
000112:
000113:                                                                                                  #                                                              7       5
000114:                                                                                                  #     VRECTCSM(LEM)  - RECTIFIED VELOCITY VECTOR      M/CSEC  2       2
000115:
000116:                                                                                                  #                                                              28      28
000117:                                                                                                  #     TETCSM(LEM)    - TIME STATE VECTOR IS VALID     CSEC    2       2
000118:                                                                                                  #                      CUSTOMARILY 0, BUT NOTE LUNAR
000119:                                                                                                  #                      ORBIT DEPENDENCE ON REAL TIME.
000120:
000121:                                                                                                  #                                                              22      18
000122:                                                                                                  #     DELTAVCSM(LEM) - POSITION DEVIATION             METERS  2       2
000123:                                                                                                  #                      0 IF TCCSM(LEM) = 0
000124:
000125:                                                                                                  #                                                              3       -1
000126:                                                                                                  #     NUVCSM(LEM)    - VELOCITY DEVIATION             M/CSEC  2       2
000127:                                                                                                  #                      0 IF TCCSM(LEM) = 0


000129:                                                                                                  #                                                              29      27
000130:                                                                                                  #     RCVCSM(LEM)    - CONIC POSITION                 METERS  2       2
000131:                                                                                                  #                      EQUALS RRECTCSM(LEM) IF
000132:                                                                                                  #                      TCCSM(LEM) = 0
000133:
000134:                                                                                                  #                                                              7       5
000135:                                                                                                  #     VCVCSM(LEM)    - CONIC VELOCITY                 M/CSEC  2       2
000136:                                                                                                  #                      EQUALS VRECTCSM(LEM) IF
000137:                                                                                                  #                      TCCSM(LEM) = 0
000138:
000139:                                                                                                  #                                                              28      28
000140:                                                                                                  #     TCCSM(LEM)     - TIME SINCE RECTIFICATION       CSECS   2       2
000141:                                                                                                  #                      CUSTOMARILY 0
000142:
000143:                                                                                                  #                                                       1/2    17      16
000144:                                                                                                  #     XKEPCSM(LEM)   - ROOT OF KEPLERS EQUATION       M       2       2
000145:                                                                                                  #                      0 IF TCCSM(LEM) = 0
000146:
000147:                                                                                                  #     CMOONFLG       - PERMANENT FLAGS CORRESPONDING          0       0
000148:                                                                                                  #     CMIDFLAG         TO MOONFLAG AND MIDFLAG                0,1     0,1
000149:                                                                                                  #     LMOONFLG         C = CSM, L = LM                        0       0
000150:                                                                                                  #     LMIDFLG                                                 0,1     0,1
000151:
000152:                                                                                                  #     SURFFLAG       - LUNAR SURFACE FLAG                     0,1     0,1
000153:
000154:                                                                                                  #  IN ADDITION, IF (L)CMIDFLAG IS SET, THE INITIAL INPUT VALUES FOR LUNAR
000155:                                                                                                  #  SOLAR EPHEMERIDES SUBROUTINE AND PLANETARY INERTIAL ORIENTATION SUB-
000156:                                                                                                  #  ROUTINE MUST BE PRESET.
000157:
000158:                                                                                                  #  OUTPUT
000159:                                                                                                  #  AFTER EVERY CALL TO INTEGRATION
000160:                                                                                                  #                                                             EARTH   MOON
000161:                                                                                                  #                                                              29      29
000162:                                                                                                  #      0D   RATT   POSITION                           METERS  2       2
000163:
000164:                                                                                                  #                                                              7       7
000165:                                                                                                  #      6D   VATT   VELOCITY                           M/CSEC  2       2
000166:
000167:                                                                                                  #                                                              28      28
000168:                                                                                                  #     12D   TAT    TIME                                       2       2
000169:
000170:                                                                                                  #                                                              29      27
000171:                                                                                                  #     14D   RATT1  POSITION                           METERS  2       2
000172:
000173:                                                                                                  #                                                              7       5
000174:                                                                                                  #     20D   VATT1  VELOCITY                           M/CSEC  2       2
000175:
000176:                                                                                                  #                                                      3   2   36      30
000177:                                                                                                  #     26D   MU(P)  MU                                 M /CS   2       2
000178:
000179:                                                                                                  #     X1           MUTABLE ENTRY                              -2      -10D
000180:
000181:                                                                                                  #     X2           COORDINT
000182:                                                                                                  #     X2           COORDINATE SYSTEM ORIGEN                   0       2
000183:                                                                                                  #                  (THIS, NOT MOONFLAG, SHOULD BE


000185:                                                                                                  #                  USED TO DETERMINE ORIGIN.)
000186:
000187:                                                                                                  #  IN ADDITION TO THE ABOVE, THE PERMANENT STATE VECTOR IS UPDATED WHENEVER
000188:                                                                                                  #  STATEFLG WAS SET AND WHENEVER A W-MATRIX IS TO BE INTEGRATED. THE PUSH
000189:                                                                                                  #  COUNTER IS SET TO 0 AND OVERFLOW IS CLEARED BEFORE RETURNING TO THE
000190:                                                                                                  #  CALLING PROGRAM.
000191:
000192:                                                                                                  #  4.0 CALLING SEQUENCES AND SAMPLE CODE
000193:                                                                                                  #  -------------------------------------
000194:
000195:                                                                                                  #      A) PRECISION ORBITAL INTEGRATION. CSMPREC, LEMPREC ENTRANCES
000196:                                                                                                  #            L-X    STORE TIME TO 95T5791T5 T  95 PUS   L9ST (T4531)
000197:                                                                                                  #            L      CALL
000198:                                                                                                  #            L+1           CSMPREC (OR LEMPREC)
000199:                                                                                                  #            L+2    RETURN
000200:                                                                                                  #         INPUT                                                         28
000201:                                                                                                  #            TDEC1 (PD 32D) TIME TO INTEGRATE TO...CENTISECONDS SCALED 2
000202:                                                                                                  #         OUTPUT
000203:                                                                                                  #            THE DATA LISTED IN SECTION 3.0 PLUS
000204:                                                                                                  #            RQVV   POSITION VECTOR OF VEHICLE WITH RESPECT TO SECONDARY
000205:                                                                                                  #            BODY... METERS B-29 ONLY IF MIDFLAG = DIMOFLAG = 1
000206:                                                                                                  #      B) CONIC INTEGRATION.  CSMCONIC, LEMCONIC ENTRANCES
000207:                                                                                                  #            L-X    STORE TIME IN PUSH LIST (TDEC1)
000208:                                                                                                  #            L      CALL
000209:                                                                                                  #            L+1           CSMCONIC (OR LEMCONIC)
000210:                                                                                                  #         INPUT/OUTPUT
000211:                                                                                                  #            SAME AS PRECISION INTEGRATION, EXCEPT RQVV NOT SET
000212:                                                                                                  #      C) INTEGRATE GIVEN STATE VECTOR. INTEGRVS ENTRANCE
000213:                                                                                                  #                   CALL
000214:                                                                                                  #                          INTSTALL
000215:                                                                                                  #                   VLOAD
000216:                                                                                                  #                          POSITION VECTOR
000217:                                                                                                  #                   STOVL  RCV
000218:                                                                                                  #                          VELOCITY VECTOR
000219:                                                                                                  #                   STODL  VCV
000220:                                                                                                  #                          TIME STATE VECTOR VALID
000221:                                                                                                  #                   STODL  TET
000222:                                                                                                  #                          FINAL RADIUS
000223:                                                                                                  #                   STORE  RFINAL
000224:                                                                                                  #                   SET(CLEAR)  SET(CLEAR)
000225:                                                                                                  #                               INTYPFLAG
000226:                                                                                                  #                               MOONFLAG
000227:                                                                                                  #                   SET(CLEAR)  DLOAD
000228:                                                                                                  #                               DESIRED TIME
000229:                                                                                                  #                   STCALL      TDEC1
000230:                                                                                                  #                               INTEGRVS
000231:                                                                                                  #         INPUT
000232:                                                                                                  #            RCV    POSITION VECTOR                   METERS
000233:                                                                                                  #            VCV    VELOCITY VECTOR                   M/CSEC
000234:                                                                                                  #            TET    TIME OF STATE VECTOR (MAY = 0)    CSEC B-28


000236:                                                                                                  #            TDEC1  TIME TO INTEGRATE TO             CSEC B-28 (PD 32D)
000237:                                                                                                  #                   (MAY BE INCREMENT IF TET=0)
000238:                                                                                                  #         OUTPUT
000239:                                                                                                  #            SAME AS FOR PRECISION OR CONIC INTEGRATION,
000240:                                                                                                  #            DEPENDING ON INTYPFLG.
000241:                                                                                                  #     D) INTEGRATE STATE VECTOR.  INTGRV ENTRANCE
000242:                                                                                                  #           L-X    STORE TIME IN PUSH LIST (TDEC1) (MAY BE DONE AFTER CALL TO INTSTALL)
000243:                                                                                                  #           L-8    CALL
000244:                                                                                                  #           L-7
000245:                                                                                                  #           L-6    SET(CLEAR) SET(CLEAR)
000246:                                                                                                  #           L-5               VINTFLAG   1=CSM, 0=LM
000247:                                                                                                  #           L-4               INTYPFLAG  1=CONIC, 0=PRECISION
000248:                                                                                                  #           L-3    SET(CLEAR) SET(CLEAR)
000249:                                                                                                  #           L-2               DIMOFLAG   1=W-MATRIX, 0=NO W-MATRIX
000250:                                                                                                  #           L-1               D6OR9FLG   1=9X9, 0=6X6
000251:                                                                                                  #           L      SET        DLOAD
000252:                                                                                                  #           L+1               STATEFLG   DESIRE PERMANENT UPDATE
000253:                                                                                                  #           L+2               FINAL RAD. OF STATE VECTOR
000254:                                                                                                  #           L+3    STCALL     RFINAL
000255:                                                                                                  #           L+4               INTEGRV
000256:                                                                                                  #           L      CALL                  NORMAL USE-- WILL UPDATE STATE
000257:                                                                                                  #           L+1               INTEGRV    VECTOR IF DIMOFLAG=1.(STATEFLG IS
000258:                                                                                                  #           L+2    RETURN                ALWAYS RESET IN INTEGRATION AFTER
000259:                                                                                                  #                                        IT IS USED.)
000260:                                                                                                  #        INPUT
000261:                                                                                                  #           TDEC1 (PD 32D) TIME TO INTEGRATE TO    CSEC B-28
000262:                                                                                                  #        OUTPUT
000263:                                                                                                  #           SAME AS FOR PRECISION OR CONIC INTEGRATION
000264:                                                                                                  #        THE PROGRAM WILL SET MOONFLAG, MIDFLAG DEPENDING ON
000265:                                                                                                  #        THE PERMANENT STATE VECTOR REPRESENTATION.
000266:
000267: 11,2404                                           BANK     11
000268: 13,2000                                           SETLOC   INTINIT
000269: 13,2000                                           BANK
000270: 13,2604  E3,1554                                  EBANK=   RRECTCSM
000271: 13,2604                                           COUNT*   $$/INTIN
000272: 13,2604           05353        STATEINT           TC       PHASCHNG
000273: 13,2605           00052                           OCT      00052
000274: 13,2606           35017                           CAF      PRIO5
000275: 13,2607           05105                           TC       FINDVAC
000276: 13,2610  E3,1554                                  EBANK=   RRECTCSM
000277: 13,2610           02613 26063                     2CADR    STATINT1
000278:
000279: 13,2612           05261                           TC       TASKOVER
000280: 13,2613           06042        STATINT1           TC       INTPRET
000281: 13,2614           47014                           BON      RTB
000282: 13,2615           04712                                    QUITFLAG                              #  KILL INTEGRATION UNTIL NEXT POO.
000283: 13,2616           26654                                    NOINT
000284: 13,2617           21574                                    LOADTIME
000285: 13,2620           00041                           STORE    TDEC1


000287: 13,2621           77624                           CALL
000288: 13,2622           27412                                    INTSTALL
000289: 13,2623           45014                           SET      CALL
000290: 13,2624           01076                                    NODOFLAG
000291: 13,2625           26645                                    SETIFLGS
000292: 13,2626           52014                           SET      GOTO
000293: 13,2627           01460                                    POOHFLAG
000294: 13,2630           26026                                    STATEUP
000295: 13,2631           00003 25140  600SECS            2DEC     60000      B-28
000296:
000297: 13,2633           77414        ENDINT             CLEAR    EXIT
000298: 13,2634           01672                                    STATEFLG
000299: 13,2635           05353                           TC       PHASCHNG
000300: 13,2636           20032                           OCT      20032
000301: 13,2637           00006                           EXTEND
000302: 13,2640           32632                           DCA      600SECS
000303: 13,2641           05277                           TC       LONGCALL
000304: 13,2642  E3,1626                                  EBANK=   RRECTHIS
000305: 13,2642           02604 26063                     2CADR    STATEINT
000306:
000307: 13,2644           05155                           TC       ENDOFJOB
000308: 13,2645           43014        SETIFLGS           SET      CLEAR
000309: 13,2646           01472                                    STATEFLG
000310: 13,2647           01673                                    INTYPFLG
000311: 13,2650           43014                           CLEAR    CLEAR
000312: 13,2651           01676                                    DIM0FLAG
000313: 13,2652           01675                                    D6OR9FLG
000314: 13,2653           77616                           RVQ
000315: 13,2654           77776        NOINT              EXIT
000316: 13,2655           05353                           TC       PHASCHNG
000317: 13,2656           00002                           OCT      00002
000318:
000319: 13,2657           05516                           TC       DOWNFLAG
000320: 13,2660           00221                           ADRES    QUITFLAG
000321: 13,2661           05155                           TC       ENDOFJOB
000322:
000323:                                                                                                  #  ATOPCSM TRANSFERS RRECT TO RRECT +41 TO RRECTCSM TO RRECTCSM +41
000324:
000325:                                                                                                  #  CALLING SEQUENCE
000326:                                                                                                  #     L   CALL
000327:                                                                                                  #     L+1       ATOPCSM
000328:
000329:                                                                                                  #  NORMAL EXIT AT L+2
000330:
000331: 13,2662           47020        ATOPCSM            STQ      RTB
000332: 13,2663           00051                                    S2
000333: 13,2664           26675                                    MOVEACSM
000334: 13,2665           45014                           SET      CALL
000335: 13,2666           04063                                    CMOONFLG
000336: 13,2667           26114                                    SVDWN1


000338: 13,2670           43014                           BON      CLRGO
000339: 13,2671           00303                                    MOONFLAG
000340: 13,2672           00051                                    S2
000341: 13,2673           04223                                    CMOONFLG
000342: 13,2674           00051                                    S2
000343: 13,2675           03037        MOVEACSM           TC       SETBANK
000344: 13,2676           55500                           TS       DIFEQCNT                              #  INITIALIZE INDEX
000345: 13,2677           51500                           INDEX    DIFEQCNT
000346: 13,2700           31502                           CA       RRECT
000347: 13,2701           51500                           INDEX    DIFEQCNT
000348: 13,2702           55554                           TS       RRECTCSM
000349: 13,2703           11500                           CCS      DIFEQCNT                              #  IS TRANSFER COMPLETE
000350: 13,2704           12676                           TCF      MOVEACSM   +1                         #  NO-LOOP
000351: 13,2705           06064                           TC       DANZIG                                #  COMPLETE - RETURN
000352:
000353:                                                                                                  #  PTOACSM TRANSFERS RRECTCSM TO RRECTCSM +41 TO RRECT TO RRECT +41
000354:
000355:                                                                                                  #  CALLING SEQUENCE
000356:                                                                                                  #     L   CALL
000357:                                                                                                  #              PTOACSM
000358:
000359:                                                                                                  #  NORMAL EXIT AT L+2
000360:
000361: 13,2706           43034        PTOACSM            RTB      BON
000362: 13,2707           26724                                    MOVEPCSM
000363: 13,2710           04303                                    CMOONFLG
000364: 13,2711           26717                                    SETMOON
000365: 13,2712           66214        CLRMOON            CLEAR    SSP
000366: 13,2713           00263                                    MOONFLAG
000367: 13,2714           02031                                    PBODY
000368: 13,2715           00000                                    0
000369: 13,2716           77616                           RVQ
000370: 13,2717           66214        SETMOON            SET      SSP
000371: 13,2720           00063                                    MOONFLAG
000372: 13,2721           02031                                    PBODY
000373: 13,2722           00002                                    2
000374: 13,2723           77616                           RVQ
000375: 13,2724           03037        MOVEPCSM           TC       SETBANK
000376: 13,2725           55500                           TS       DIFEQCNT
000377: 13,2726           51500                           INDEX    DIFEQCNT
000378: 13,2727           31554                           CA       RRECTCSM
000379: 13,2730           51500                           INDEX    DIFEQCNT
000380: 13,2731           55502                           TS       RRECT
000381: 13,2732           11500                           CCS      DIFEQCNT
000382: 13,2733           12725                           TCF      MOVEPCSM   +1
000383: 13,2734           06064                           TC       DANZIG
000384:
000385:                                                                                                  #  ATOPLEM TRANSFERS RRECT TO RRECT +41 TO RRECTLEM TO RRECTLEM +41


000387: 13,2735           47020        ATOPLEM            STQ      RTB
000388: 13,2736           00051                                    S2
000389: 13,2737           26750                                    MOVEALEM
000390: 13,2740           45014                           SET      CALL
000391: 13,2741           04064                                    LMOONFLG
000392: 13,2742           26070                                    SVDWN2
000393: 13,2743           43014                           BON      CLRGO
000394: 13,2744           00303                                    MOONFLAG
000395: 13,2745           00051                                    S2
000396: 13,2746           04224                                    LMOONFLG
000397: 13,2747           00051                                    S2
000398: 13,2750           03037        MOVEALEM           TC       SETBANK
000399: 13,2751           55500                           TS       DIFEQCNT
000400: 13,2752           51500                           INDEX    DIFEQCNT
000401: 13,2753           31502                           CA       RRECT
000402: 13,2754           51500                           INDEX    DIFEQCNT
000403: 13,2755           55626                           TS       RRECTLEM
000404: 13,2756           11500                           CCS      DIFEQCNT
000405: 13,2757           12751                           TCF      MOVEALEM   +1
000406: 13,2760           06064                           TC       DANZIG
000407:
000408:                                                                                                  #  PTOALEM TRANSFERS RRECTLEM TO RRECTLEM +41 TO RRECT TO RRECT +41
000409:
000410: 13,2761           47014        PTOALEM            BON      RTB
000411: 13,2762           04307                                    SURFFLAG
000412: 13,2763           27002                                    USEPIOS
000413: 13,2764           26771                                    MOVEPLEM
000414: 13,2765           52014                           BON      GOTO
000415: 13,2766           04304                                    LMOONFLG
000416: 13,2767           26717                                    SETMOON
000417: 13,2770           26712                                    CLRMOON
000418: 13,2771           03037        MOVEPLEM           TC       SETBANK
000419: 13,2772           55500                           TS       DIFEQCNT
000420: 13,2773           51500                           INDEX    DIFEQCNT
000421: 13,2774           31626                           CA       RRECTLEM
000422: 13,2775           51500                           INDEX    DIFEQCNT
000423: 13,2776           55502                           TS       RRECT
000424: 13,2777           11500                           CCS      DIFEQCNT
000425: 13,3000           12772                           TCF      MOVEPLEM   +1
000426: 13,3001           06064                           TC       DANZIG
000427:
000428: 13,3002           77201        USEPIOS            SETPD    VLOAD
000429: 13,3003           00001                                    0
000430: 13,3004           02023                                    RLS
000431: 13,3005           41525                           PDDL     PUSH
000432: 13,3006           00041                                    TDEC1
000433: 13,3007           15517                           STODL    TET
000434: 13,3010           27735                                    5/8


000436: 13,3011           77624                           CALL
000437: 13,3012           55716                                    RP-TO-R
000438: 13,3013           25535                           STOVL    RCV
000439: 13,3014           24001                                    ZUNIT
000440: 13,3015           14001                           STODL    0D
000441: 13,3016           01517                                    TET
000442: 13,3017           14007                           STODL    6D
000443: 13,3020           27735                                    5/8
000444: 13,3021           45014                           SET      CALL                                  #  NEEDED FOR SETTING X1 ON EXIT
000445: 13,3022           00063                                    MOONFLAG
000446: 13,3023           55716                                    RP-TO-R
000447: 13,3024           74235                           VXV      VXSC
000448: 13,3025           01535                                    RCV
000449: 13,3026           26001                                    OMEGMOON
000450: 13,3027           25543                           STOVL    VCV
000451: 13,3030           24007                                    ZEROVEC
000452: 13,3031           01521                           STORE    TDELTAV
000453: 13,3032           67174                           AXT,2    SXA,2
000454: 13,3033           00002                                    2
000455: 13,3034           02030                                    PBODY
000456: 13,3035           35527                           STCALL   TNUV
000457: 13,3036           27160                                    A-PCHK
000458: 13,3037           33043        SETBANK            CAF      INTBANK
000459: 13,3040           54006                           TS       BBANK
000460: 13,3041           33450                           CAF      FORTYONE
000461: 13,3042           00002                           TC       Q
000462: 13,3043  E3,1554                                  EBANK=   RRECTCSM
000463: 13,3043           26063        INTBANK            BBCON    INTEGRV
000464:
000465:                                                                                                  #  SPECIAL PURPOSE ENTRIES TO ORBITAL INTEGRATION. THESE ROUTINES PROVIDE ENTRANCES TO INTEGRATION WITH
000466:                                                                                                  #  APPROPRIATE SWITCHES SET OR CLEARED FOR THE DESIRED INTEGRATION.
000467:
000468:                                                                                                  #  CSMPREC AND LEMPREC PERFORM ORBIT INTEGRATION BY THE ENCKE METHOD TO THE TIME INDICATED IN TDEC1
000469:                                                                                                  #  ACCELERATIONS DUE TO OBLATENESS ARE INCLUDED. NO W-MATRIX INT. IS DONE.
000470:                                                                                                  #  THE PERMANENT STATE VECTOR IS NOT UPDATED.
000471:                                                                                                  #  CSMCONIC AND LEMCONIC PERFORM ORBIT INTEG. BY KEPLERS METHOD TO THE TIME INDICATED IN TDEC1
000472:                                                                                                  #  NO DISTURBING ACCELERATIONS ARE INCLUDED. IN THE PROGRAM FLOW THE GIVEN
000473:                                                                                                  #  STATE VECTOR IS RECTIFIED BEFORE SOLUTION OF KEPLERS EQUATION
000474:
000475:                                                                                                  #  THE ROUTINES ASSUME THAT THE CSM (LEM) STATE VECTOR IN P-MEM IS VALID.
000476:                                                                                                  #  SWITCHES SET PRIOR TO ENTRY TO THE MAIN INTEG. PROG ARE AS FOLLOWS
000477:                                                                                                  #              CSMPREC  CSMCONIC   LEMPREC  LEMCONIC
000478:                                                                                                  #  VINTFLAG     SET       SET       CLEAR    CLEAR
000479:                                                                                                  #  INTYPFLG     CLEAR     SET       CLEAR    SET
000480:                                                                                                  #  DIM0FLAG     CLEAR     CLEAR     CLEAR    CLEAR
000481:
000482:                                                                                                  #  CALLING SEQUENCE
000483:                                                                                                  #     L-X  STORE TDEC1


000485:                                                                                                  #     L    CALL        (STCALL TDEC1)
000486:                                                                                                  #     L+1          CSMPREC (CSMCONIC, LEMPREC, LEMCONIC)
000487:
000488:                                                                                                  #   NORMAL EXIT TO L+2
000489:
000490:                                                                                                  #  SUBROUTINES CALLED
000491:                                                                                                  #    INTEGRV1
000492:                                                                                                  #    PRECOUT FOR CSMPREC AND LEMPREC
000493:                                                                                                  #    CONICOUT FOR CSMCONIC AND LEMCONIC
000494:
000495:                                                                                                  #  OUTPUT - SEE PAGE 2 OF THIS LOG SECTION
000496:                                                                                                  #  INPUT
000497:                                                                                                  #   TDEC1   TIME TO INTEGRATE TO.  CSECS B-28
000498:
000499: 13,3044           45020        CSMPREC            STQ      CALL
000500: 13,3045           00046                                    X1
000501: 13,3046           27412                                    INTSTALL
000502: 13,3047           43130                           SXA,1    SET
000503: 13,3050           02102                                    IRETURN
000504: 13,3051           01474                                    VINTFLAG
000505:
000506: 13,3052           43014        IFLAGP             SET      CLEAR
000507: 13,3053           01467                                    PRECIFLG
000508: 13,3054           01676                                    DIM0FLAG
000509: 13,3055           77614                           CLRGO
000510: 13,3056           01633                                    INTYPFLG
000511: 13,3057           27137                                    INTEGRV1
000512: 13,3060           45020        LEMPREC            STQ      CALL
000513: 13,3061           00046                                    X1
000514: 13,3062           27412                                    INTSTALL
000515: 13,3063           43130                           SXA,1    CLRGO
000516: 13,3064           02102                                    IRETURN
000517: 13,3065           01634                                    VINTFLAG
000518: 13,3066           27052                                    IFLAGP
000519:
000520: 13,3067           45020        CSMCONIC           STQ      CALL
000521: 13,3070           00046                                    X1
000522: 13,3071           27412                                    INTSTALL
000523: 13,3072           43130                           SXA,1    SET
000524: 13,3073           02102                                    IRETURN
000525: 13,3074           01474                                    VINTFLAG
000526: 13,3075           43014        IFLAGC             CLEAR    SETGO
000527: 13,3076           01676                                    DIM0FLAG
000528: 13,3077           01433                                    INTYPFLG
000529: 13,3100           27137                                    INTEGRV1
000530: 13,3101           45020        LEMCONIC           STQ      CALL
000531: 13,3102           00046                                    X1
000532: 13,3103           27412                                    INTSTALL
000533: 13,3104           43130                           SXA,1    CLRGO


000535: 13,3105           02102                                    IRETURN
000536: 13,3106           01634                                    VINTFLAG
000537: 13,3107           27075                                    IFLAGC
000538:
000539: 13,3110           66214        INTEGRVS           SET      SSP
000540: 13,3111           01467                                    PRECIFLG
000541: 13,3112           02031                                    PBODY
000542: 13,3113           00000                                    0
000543: 13,3114           66214                           BOF      SSP
000544: 13,3115           00343                                    MOONFLAG
000545: 13,3116           27121                                    +3
000546: 13,3117           02031                                    PBODY
000547: 13,3120           00002                                    2
000548: 13,3121           77220                           STQ      VLOAD
000549: 13,3122           02102                                    IRETURN
000550: 13,3123           24007                                    ZEROVEC
000551: 13,3124           01521                           STORE    TDELTAV
000552: 13,3125           35527                           STCALL   TNUV
000553: 13,3126           27673                                    RECTIFY
000554: 13,3127           43014                           CLEAR    SET
000555: 13,3130           01676                                    DIM0FLAG
000556: 13,3131           04062                                    NEWIFLG
000557: 13,3132           77614                           SETGO
000558: 13,3133           04020                                    RPQFLAG
000559: 13,3134           27151                                    ALOADED
000560:
000561:                                                                                                  #  INTEGRV IS AN ENTRY TO ORBIT INTEGRATION WHICH PERMITS THE CALLER,
000562:                                                                                                  #  NORMALLY THE NAVIGATION PROGRAM, TO SET THE INTEG. FLAGS. THE ROUTINE
000563:                                                                                                  #  IS ENTERED AT INTEGRV1 BY CSMPREC ET.AL. AND AT ALOADED BY INTEGRVS.
000564:                                                                                                  #  THE ROUTINE SETS UP A-MEMORY IF ENTERED AT INTEGRV,1 AND SETS THE INTEG.
000565:                                                                                                  #  PROGRAM FOR PRECISION OR CONIC
000566:
000567:                                                                                                  #  THE CALLER MUST FIRST CALL INTSTALL TO CHECK IF INTEG. IS IN USE BEFORE
000568:                                                                                                  #  SETTING ANY FLAGS.
000569:                                                                                                  #  THE FLAGS WHICH SHOULD BE SET OR CLEARED ARE
000570:                                                                                                  #    VINTFLAG    (IGNORED WHEN ENTERED FROM INTEGRVS)
000571:                                                                                                  #    INTYPFLG
000572:                                                                                                  #    DIM0FLAG
000573:                                                                                                  #    D6OR9FLG
000574:
000575:                                                                                                  #  CALLING SEQUENCE
000576:                                                                                                  #    L-X    CALL
000577:                                                                                                  #    L-Y          INTSTALL
000578:                                                                                                  #    L-1    SET OR CLEAR ALL FOUR FLAGS. ALSO CAN SET STATEFLG IF DESIRED
000579:                                                                                                  #           AND DIM0FLAG IS CLEAR.
000580:                                                                                                  #    L      CALL
000581:                                                                                                  #    L+1           INTEGRV
000582:
000583:                                                                                                  #  INITIALIZATION
000584:                                                                                                  #    FLAGS AS ABOVE
000585:                                                                                                  #    STORE TIME TO INTEGRATE TO IN TDEC1
000586:
000587:                                                                                                  #  OUTPUT
000588:                                                                                                  #    RATT   AS


000590:                                                                                                  #    VATT   DEFINED
000591:                                                                                                  #    TAT            BEFORE
000592:
000593: 13,3135           77620        INTEGRV            STQ
000594: 13,3136           02102                                    IRETURN
000595: 13,3137           43014        INTEGRV1           SET      SET
000596: 13,3140           04060                                    RPQFLAG
000597: 13,3141           04062                                    NEWIFLG
000598: 13,3142           77731        INTEGRV2           SSP
000599: 13,3143           00053                                    QPRET
000600: 13,3144           27151                                    ALOADED
000601: 13,3145           52014                           BON      GOTO
000602: 13,3146           01714                                    VINTFLAG
000603: 13,3147           26706                                    PTOACSM
000604: 13,3150           26761                                    PTOALEM
000605: 13,3151           77745        ALOADED            DLOAD
000606: 13,3152           00041                                    TDEC1
000607: 13,3153           01115                           STORE    TDEC
000608: 13,3154           52014                           BOFF     GOTO
000609: 13,3155           01753                                    INTYPFLG
000610: 13,3156           27260                                    TESTLOOP
000611: 13,3157           27244                                    RVCON
000612: 13,3160           77414        A-PCHK             BOF      EXIT
000613: 13,3161           01752                                    STATEFLG
000614: 13,3162           27201                                    RECTOUT
000615: 13,3163           05353                           TC       PHASCHNG
000616: 13,3164           04022                           OCT      04022
000617: 13,3165           05504                           TC       UPFLAG                                #  PHASE CHANGE HAS OCCURRED BETWEEN
000618: 13,3166           00236                           ADRES    REINTFLG                              #  INTSTALL AND INTWAKE
000619: 13,3167           06042                           TC       INTPRET
000620: 13,3170           77731                           SSP
000621: 13,3171           00053                                    QPRET
000622: 13,3172           27177                                    PHEXIT
000623: 13,3173           52014                           BON      GOTO
000624: 13,3174           01714                                    VINTFLAG
000625: 13,3175           26662                                    ATOPCSM
000626: 13,3176           26735                                    ATOPLEM
000627: 13,3177           77624        PHEXIT             CALL
000628: 13,3200           11226                                    GRP2PC
000629: 13,3201           45001        RECTOUT            SETPD    CALL
000630: 13,3202           00001                                    0
000631: 13,3203           27673                                    RECTIFY
000632: 13,3204           53775                           VLOAD    VSL*
000633: 13,3205           01503                                    RRECT
000634: 13,3206           57576                                    0,2
000635: 13,3207           53715                           PDVL     VSL*                                  #  RATT TO PD0
000636: 13,3210           01511                                    VRECT
000637: 13,3211           57576                                    0,2
000638: 13,3212           63325                           PDDL     PDVL                                  #  VATT TO PD6   TAT TO PD12


000640: 13,3213           01517                                    TET
000641: 13,3214           01503                                    RRECT
000642: 13,3215           64715                           PDVL     PDDL*
000643: 13,3216           01511                                    VRECT
000644: 13,3217           51770                                    MUEARTH,2
000645: 13,3220           76006                           PUSH     AXT,1
000646: 13,3221           77765                           DEC      -10        B-14
000647: 13,3222           76014                           BON      AXT,1
000648: 13,3223           00303                                    MOONFLAG
000649: 13,3224           27226                                    +2
000650: 13,3225           77775                           DEC      -2         B-14
000651: 13,3226           40001        INTEXIT            SETPD    BOV
000652: 13,3227           00001                                    0
000653: 13,3230           27231                                    +1
000654: 13,3231           43014                           CLEAR    CLEAR
000655: 13,3232           04676                                    AVEMIDSW                              #  ALLOW UPDATE OF DOWNLINK STATE VECTOR
000656: 13,3233           01667                                    PRECIFLG
000657: 13,3234           77614                           CLEAR
000658: 13,3235           01672                                    STATEFLG
000659: 13,3236           77535                           SLOAD    EXIT
000660: 13,3237           02103                                    IRETURN
000661: 13,3240           30154                           CA       MPAC
000662: 13,3241           50120                           INDEX    FIXLOC
000663: 13,3242           54052                           TS       QPRET
000664: 13,3243           03423                           TC       INTWAKE
000665:
000666:                                                                                                  #  RVCON SETS UP ORBIT INTEGRATION TO DO A CONIC SOLUTION FOR POSITION AND
000667:                                                                                                  #  VELOCITY FOR THE INTERVAL (TET-TDEC)
000668:
000669: 13,3244           45345        RVCON              DLOAD    DSU
000670: 13,3245           01115                                    TDEC
000671: 13,3246           01517                                    TET
000672: 13,3247           36074                           STCALL   TAU.
000673: 13,3250           27673                                    RECTIFY
000674: 13,3251           77624                           CALL
000675: 13,3252           22404                                    KEPPREP
000676: 13,3253           43345                           DLOAD    DAD
000677: 13,3254           01551                                    TC
000678: 13,3255           01517                                    TET
000679: 13,3256           35517                           STCALL   TET
000680: 13,3257           27201                                    RECTOUT
000681:


000683:                                                                                                  #  TESTLOOP
000684:
000685: 13,3260           43014        TESTLOOP           BOF      CLRGO
000686: 13,3261           04752                                    QUITFLAG
000687: 13,3262           27265                                    +3
000688: 13,3263           01632                                    STATEFLG
000689: 13,3264           27226                                    INTEXIT                               #  STOP INTEGRATION
000690: 13,3265           73001                 +3        SETPD    LXA,2
000691: 13,3266           00013                                    10D
000692: 13,3267           02030                                    PBODY
000693: 13,3270           51575                           VLOAD    ABVAL
000694: 13,3271           01535                                    RCV
000695: 13,3272           43006                           PUSH     CLEAR                                 #  RC TO 10D
000696: 13,3273           00262                                    MIDFLAG
000697: 13,3274           50023                           DSU*     BMN                                   #  MIDFLAG=0 IF R G.T. RMP
000698: 13,3275           53755                                    RME,2
000699: 13,3276           27301                                    +3
000700: 13,3277           77614                           SET
000701: 13,3300           00062                                    MIDFLAG
000702: 13,3301           41345        NORFINAL           DLOAD    DMP
000703: 13,3302           00013                                    10D
000704: 13,3303           00043                                    34D
000705: 13,3304           55762                           SR1R     DDV*
000706: 13,3305           51770                                    MUEARTH,2
000707: 13,3306           41366                           SQRT     DMP
000708: 13,3307           25762                                    .3D
000709: 13,3310           40442                           SR3      SR4                                   #  DT   IS TRUNCATED TO A MULTIPLE
000710: 13,3311           54345                           DLOAD    SL
000711: 13,3312           00155                                    MPAC
000712: 13,3313           20220                                    15D                                   #       OF 128 CSECS.
000713: 13,3314           40006                           PUSH     BOV
000714: 13,3315           27342                                    MAXDT
000715: 13,3316           50021                           BDSU     BMN
000716: 13,3317           27411                                    DT/2MAX
000717: 13,3320           27342                                    MAXDT
000718: 13,3321           45345        DT/2COMP           DLOAD    DSU
000719: 13,3322           01115                                    TDEC
000720: 13,3323           01517                                    TET
000721: 13,3324           54234                           RTB      SL
000722: 13,3325           21613                                    SGNAGREE
000723: 13,3326           20211                                    8D
000724: 13,3327           02076                           STORE    DT/2                                  #  B-19
000725: 13,3330           51400                           BOV      ABS
000726: 13,3331           27346                                    GETMAXDT
000727: 13,3332           50025                           DSU      BMN                                   #  IS TIME TO INTEG. TO GR THAN MAXTIME
000728: 13,3333           00015                                    12D
000729: 13,3334           27352                                    P00HCHK
000730: 13,3335           75345        USEMAXDT           DLOAD    SIGN
000731: 13,3336           00015                                    12D
000732: 13,3337           02076                                    DT/2


000734: 13,3340           36076                           STCALL   DT/2
000735: 13,3341           27352                                    P00HCHK
000736: 13,3342           65345        MAXDT              DLOAD    PDDL                                  #  EXCHANGE DT/2MAX WITH COMPUTED MAX.
000737: 13,3343           27411                                    DT/2MAX
000738: 13,3344           77650                           GOTO
000739: 13,3345           27321                                    DT/2COMP
000740: 13,3346           77634        GETMAXDT           RTB
000741: 13,3347           21713                                    SIGNMPAC
000742: 13,3350           36076                           STCALL   DT/2
000743: 13,3351           27335                                    USEMAXDT
000744: 13,3352           51545        P00HCHK            DLOAD    ABS
000745: 13,3353           02076                                    DT/2
000746: 13,3354           50025                           DSU      BMN
000747: 13,3355           27407                                    DT/2MIN
000748: 13,3356           27160                                    A-PCHK
000749: 13,3357           43014                           BOFF     BON                                   #  NO BACKWARDS INTEGRATION
000750: 13,3360           01740                                    POOHFLAG                              #  WHEN IN POO
000751: 13,3361           23311                                    TIMESTEP
000752: 13,3362           01707                                    PRECIFLG
000753: 13,3363           23311                                    TIMESTEP
000754: 13,3364           45345                           DLOAD    DSU
000755: 13,3365           02076                                    DT/2
000756: 13,3366           00015                                    12D
000757: 13,3367           43040                           BMN      BOFCLR
000758: 13,3370           27160                                    A-PCHK
000759: 13,3371           04242                                    NEWIFLG
000760: 13,3372           23311                                    TIMESTEP
000761: 13,3373           45345                           DLOAD    DSU
000762: 13,3374           01115                                    TDEC
000763: 13,3375           01517                                    TET
000764: 13,3376           77640                           BMN                                            #  NO BACKWARD INTEGRATION
000765: 13,3377           27226                                    INTEXIT
000766: 13,3400           40525                           PDDL     SR4
000767: 13,3401           02076                                    DT/2                                  #  IS 4(DT) LS (TDEC - TET)
000768: 13,3402           44322                           SR2R     BDSU                                  #  NO
000769: 13,3403           52040                           BMN      GOTO
000770: 13,3404           27226                                    INTEXIT
000771: 13,3405           23311                                    TIMESTEP
000772: 13,3406           00000 01400  DT/2MIN            2DEC     3          B-20
000773:
000774: 13,3410           14152 00000  DT/2MAX            2DEC     4000       E2         B-20
000775:
000776: 13,3412           77776        INTSTALL           EXIT
000777: 13,3413           30106                           CA       RASFLAG
000778: 13,3414           73464                           MASK     INTBITAB                              #  IS THIS STALL AREA FREE
000779: 13,3415           00006                           EXTEND
000780: 13,3416           13456                           BZF      OKTOGRAB                              #  YES
000781: 13,3417           33463                           CAF      WAKESTAL
000782: 13,3420           05133                           TC       JOBSLEEP
000783: 13,3421           77776        INTWAKE0           EXIT


000785: 13,3422           13443                           TCF      INTWAKE1
000786:
000787: 13,3423           40106        INTWAKE            CS       RASFLAG                               #  IS THIS INTSTALLED ROUTINE TO BE
000788: 13,3424           74745                           MASK     REINTBIT                              #       RESTARTED
000789: 13,3425           10000                           CCS      A
000790: 13,3426           03443                           TC       INTWAKE1                              #  NO
000791:
000792: 13,3427           50120                           INDEX    FIXLOC
000793: 13,3430           30052                           CA       QPRET
000794: 13,3431           55054                           TS       TBASE2                                #  YES, DONT RESTART WITH SOMEONE ELSES Q
000795:
000796: 13,3432           05353                           TC       PHASCHNG
000797: 13,3433           04022                           OCT      04022
000798:
000799: 13,3434           31054                           CA       TBASE2
000800: 13,3435           50120                           INDEX    FIXLOC
000801: 13,3436           54052                           TS       QPRET
000802:
000803: 13,3437           34745                           CAF      REINTBIT
000804: 13,3440           70106                           MASK     RASFLAG
000805: 13,3441           00006                           EXTEND
000806: 13,3442           13461                           BZF      GOBAC                                 #  DONT INTWAKE IF WE CAME HERE VIA RESTART
000807:
000808: 13,3443           33463        INTWAKE1           CAF      WAKESTAL
000809: 13,3444           00004                           INHINT
000810: 13,3445           05137                           TC       JOBWAKE
000811: 13,3446           10064                           CCS      LOCCTR
000812: 13,3447           13443                           TCF      INTWAKE1
000813: 13,3450           00051        FORTYONE           DEC      41         B-14
000814: 13,3451           43464                           CS       INTBITAB
000815: 13,3452           70106                           MASK     RASFLAG
000816: 13,3453           54106                           TS       RASFLAG                               #  RELEASE STALL AREA
000817: 13,3454           00003                           RELINT
000818: 13,3455           13461                           TCF      GOBAC
000819: 13,3456           34736        OKTOGRAB           CAF      INTFLBIT
000820: 13,3457           00004                           INHINT
000821: 13,3460           26106                           ADS      RASFLAG
000822: 13,3461           06042        GOBAC              TC       INTPRET
000823: 13,3462           77616                           RVQ
000824: 13,3463           27413        WAKESTAL           CADR     INTSTALL   +1
000825: 13,3464           20100        INTBITAB           OCT      20100
000826:


000828:                                                                                                  #  AVETOMID
000829:
000830:                                                                                                  #  THIS ROUTINE PERFORMS THE TRANSITION FROM A THRUSTING PHASE TO THE COAST
000831:                                                                                                  #  PHASE BY INITIALIZING THIS VEHICLES PERMANENT STATE VECTOR WITH THE
000832:                                                                                                  #  VALUES LEFT BY THE AVERAGEG ROUTINE IN RN,VN,PIPTIME.
000833:
000834:                                                                                                  #  BEFORE THIS IS DONE THE W-MATRIX, IF ITS  VALID (OR WFLAG OR RENDWFLG IS
000835:                                                                                                  #  SET) IS INTEGRATED FORWARD TO PIPTIME WITH THE PRE-THRUST STATE VECTOR.
000836:
000837:                                                                                                  #  IN ADDITION, THE OTHER VEHICLE IS INTEGRATED (PERMANENT) TO PIPTIME.
000838:
000839:                                                                                                  #  FINALLY TRKMKCNT IS ZEROED
000840:
000841: 13,2000                                           SETLOC   INTINIT
000842: 13,2000                                           BANK
000843:
000844: 13,3465                                           COUNT*   $$/INTIN
000845: 13,3465           43020        AVETOMID           STQ      BON
000846: 13,3466           02772                                    EGRESS
000847: 13,3467           02716                                    RENDWFLG
000848: 13,3470           27534                                    INT/W                                 #  W-MATRIX VALID, GO INTEGRATE IT
000849: 13,3471           77614                           BON
000850: 13,3472           01711                                    ORBWFLAG
000851: 13,3473           27534                                    INT/W                                 #  W-MATRIX VALID, GO INTEGRATE IT
000852:
000853: 13,3474           45145        OTHERS             DLOAD    CALL                                  #  GET SET FOR OTHER VEHICLE INTEGRATION
000854: 13,3475           01234                                    PIPTIME                               #  DESIRED TIME
000855: 13,3476           27412                                    INTSTALL
000856: 13,3477           45014                           SET      CALL
000857: 13,3500           01474                                    VINTFLAG                              #  CM
000858: 13,3501           26645                                    SETIFLGS                              #  SETS UP NONE W-MAT. PERMANENT INTEG.
000859: 13,3502           34041                           STCALL   TDEC1
000860: 13,3503           27135                                    INTEGRV
000861:
000862: 13,3504           45174                           AXT,2    CALL                                  #  NOW MOVE PROPERLY SCALE RN,UN AS WELL AS
000863: 13,3505           00002                                    2                                     #  PIPTIME TO INTEGRATION ERASABLES.
000864: 13,3506           27412                                    INTSTALL
000865: 13,3507           77014                           BON      AXT,2
000866: 13,3510           04304                                    MOONTHIS
000867: 13,3511           27513                                    +2
000868: 13,3512           00000                                    0
000869: 13,3513           53775                           VLOAD    VSR*
000870: 13,3514           01220                                    RN
000871: 13,3515           57176                                    0,2
000872: 13,3516           01503                           STORE    RRECT
000873: 13,3517           15535                           STODL    RCV
000874: 13,3520           01234                                    PIPTIME
000875: 13,3521           25517                           STOVL    TET
000876: 13,3522           01226                                    VN


000878: 13,3523           45057                           VSR*     CALL
000879: 13,3524           57176                                    0,2
000880: 13,3525           27707                                    MINIRECT                              #  FINISH SETTING UP STATE VECTOR
000881: 13,3526           66234                           RTB      SSP
000882: 13,3527           26750                                    MOVATHIS                              #  PUT TEMP STATE VECTOR INTO PERMANENT
000883: 13,3530           03463                                    TRKMKCNT
000884: 13,3531           00000                                    0
000885: 13,3532           77650                           GOTO
000886: 13,3533           47230                                    FAZAB5
000887:
000888: 13,3534           45145        INT/W              DLOAD    CALL
000889: 13,3535           01234                                    PIPTIME                               #  INTEGRATE W THRU BURN
000890: 13,3536           27412                                    INTSTALL
000891: 13,3537           43014                           SET      SET
000892: 13,3540           01476                                    DIM0FLAG                              #  DO W-MATRIX
000893: 13,3541           04476                                    AVEMIDSW                              #  SO WONT CLOBBER RN,VN,PIPTIME
000894: 13,3542           43014                           SET      CLEAR
000895: 13,3543           01475                                    D6OR9FLG                              #  9X9 FOR LM
000896: 13,3544           01674                                    VINTFLAG                              #  LM
000897: 13,3545           34041                           STCALL   TDEC1
000898: 13,3546           27135                                    INTEGRV
000899: 13,3547           77650                           GOTO
000900: 13,3550           27474                                    OTHERS                                #  NOW GO DO THE OTHER VEHICLE
000901:


000903:                                                                                                  #  MIDTOAV1
000904:
000905:                                                                                                  #  THIS ROUTINE INTEGRATES (PRECISION) TO THE TIME SPECIFIED IN TDEC1.
000906:                                                                                                  #  IF, AT THE END OF AN INTEGRATION TIME STEP, CURRENT TIME PLUS A DELTA
000907:                                                                                                  #  TIME (SEE TIMEDELT.....BASED ON THE COMPUTATUON TIME FOR ONE TIME STEP)
000908:                                                                                                  #  IS GREATER THAN THE DESIRED TIME, ALARM 1703 IS SET AND THE INTEGRATION
000909:                                                                                                  #  IS DONE TO THE CURRENT TIME.
000910:                                                                                                  #  RETURN IS IN BASIC TO THE RETURN ADDRESS PLUS ONE.
000911:
000912:                                                                                                  #  IF THE INTEGRATION IS FINISHED TO THE DESIRED TIME, RETURN IS IN BASIC
000913:                                                                                                  #  TO THE RETURN ADDRESS
000914:
000915:                                                                                                  #  IN EITHER CASE , BEFORE RETURNING, THE EXTRAPOLATED STATE VECTOR IS TRAN
000916:                                                                                                  #  FERRED FROM R,VATT TO R,VN1-PIPTIME1 IS SET TO THE FINISHING INTEGRA-
000917:                                                                                                  #  TION TIME AND MPAC IS SET TO THE DELTA TIME---
000918:                                                                                                  #                                    TAT MINUS CURRENT TIME.
000919:
000920:                                                                                                  #  MIDTOAV2
000921:
000922:                                                                                                  #  THIS ROUTINE INTEGRATES THIS VEHICLES STATE VECTOR TO THE CURRENT TIME.
000923:                                                                                                  #  NO INPUTS ARE REQUIRED OF THE CALLER. RETURN IS IN BASIC TO THE RETURN
000924:                                                                                                  #  ADDRESS WITH THE ABOVE TRANSFERS TO R,VN1-PIPTIME1-AND MPAC DONE
000925:
000926: 13,3551  E7,1744                                  EBANK=   IRETURN1
000927: 13,3551           43020        MIDTOAV2           STQ      CLRGO                                 #  INTEGRATE TO PRESENT TIME PLUS TIMEDELT
000928: 13,3552           03744                                    IRETURN1
000929: 13,3553           04634                                    MID1FLAG
000930: 13,3554           27570                                    ENTMID2
000931:
000932: 13,3555           43020        MIDTOAV1           STQ      SET                                   #  INTEGRATE TO TDEC1
000933: 13,3556           03744                                    IRETURN1
000934: 13,3557           04474                                    MID1FLAG
000935: 13,3560           43234                           RTB      DAD                                   #  INITIAL CHECK, IS TDEC1 IN THE FUTURE
000936: 13,3561           21574                                    LOADTIME
000937: 13,3562           27672                                    TIMEDELT
000938: 13,3563           51021                           BDSU     BPL
000939: 13,3564           00041                                    TDEC1
000940: 13,3565           27574                                    ENTMID1                               #  Y5S
000941: 13,3566           77624                           CALL
000942: 13,3567           27660                                    NOTIME                                #  NO, SET ALARM, SWITCH TO MIDTOAV2
000943:
000944: 13,3570           43234        ENTMID2            RTB      DAD
000945: 13,3571           21574                                    LOADTIME
000946: 13,3572           27672                                    TIMEDELT
000947: 13,3573           00041                           STORE    TDEC1
000948:
000949: 13,3574           77624        ENTMID1            CALL
000950: 13,3575           27412                                    INTSTALL
000951: 13,3576           45014                           CLEAR    CALL


000953: 13,3577           01676                                    DIM0FLAG                              #  NO W-MATRIX
000954: 13,3600           26066                                    THISVINT
000955: 13,3601           43014                           CLEAR    SET
000956: 13,3602           01673                                    INTYPFLG
000957: 13,3603           04475                                    MIDAVFLG                              #  LET INTEG. KNOW THE CALL IS FOR MIDTOAV.
000958: 13,3604           77624                           CALL
000959: 13,3605           27135                                    INTEGRV                               #   GO INTEGRATE
000960: 13,3606           77214                           CLEAR    VLOAD
000961: 13,3607           04675                                    MIDAVFLG
000962: 13,3610           00001                                    RATT
000963: 13,3611           27545                           STOVL    RN1
000964: 13,3612           00007                                    VATT
000965: 13,3613           17553                           STODL    VN1
000966: 13,3614           00015                                    TAT
000967: 13,3615           03561                           STORE    PIPTIME1
000968: 13,3616           66134                           SXA,2    SXA,1
000969: 13,3617           02777                                    RTX2
000970: 13,3620           02776                                    RTX1
000971: 13,3621           77776                           EXIT
000972:
000973: 13,3622           00004                           INHINT
000974: 13,3623           00006                           EXTEND
000975: 13,3624           40025                           DCS      TIME2
000976: 13,3625           20155                           DAS      MPAC
000977: 13,3626           07262                           TC       TPAGREE
000978:
000979: 13,3627           31744                           CA       IRETURN1
000980: 13,3630           04640                           TC       BANKJUMP
000981: 13,3631           47014        CKMID2             BOF      RTB
000982: 13,3632           04754                                    MID1FLAG
000983: 13,3633           27650                                    MID2
000984: 13,3634           21574                                    LOADTIME
000985: 13,3635           44215                           DAD      BDSU
000986: 13,3636           27672                                    TIMEDELT
000987: 13,3637           01115                                    TDEC
000988: 13,3640           45044                           BPL      CALL
000989: 13,3641           27260                                    TESTLOOP                              #  YES
000990: 13,3642           27660                                    NOTIME
000991:
000992: 13,3643           43234        TIMEINC            RTB      DAD
000993: 13,3644           21574                                    LOADTIME
000994: 13,3645           27672                                    TIMEDELT
000995: 13,3646           35115                           STCALL   TDEC
000996: 13,3647           27260                                    TESTLOOP
000997:
000998: 13,3650           45345        MID2               DLOAD    DSU
000999: 13,3651           01115                                    TDEC
001000: 13,3652           01517                                    TET
001001: 13,3653           45246                           ABS      DSU
001002: 13,3654           27670                                    3CSECS
001003:


001005: 13,3655           52040                           BMN      GOTO
001006: 13,3656           27160                                    A-PCHK
001007: 13,3657           27643                                    TIMEINC
001008:
001009: 13,3660           77414        NOTIME             CLEAR    EXIT                                  #  TOO LATE
001010: 13,3661           04674                                    MID1FLAG
001011: 13,3662           25744                           INCR     IRETURN1                              #  SET ERROR EXIT (CALLOC +2)
001012: 13,3663           05567                           TC       ALARM                                 #  INSUFFICIENT TIME FOR INTEGRATION --
001013: 13,3664           01703                           OCT      1703                                  #     TIG WILL BE SLIPPED...
001014: 13,3665           06042                           TC       INTPRET
001015: 13,3666           77616                           RVQ
001016:
001017: 13,3667           00000 00003  3CSECS             2DEC     3          B-28
001018:
001019: 13,3671           00000 03720  TIMEDELT           2DEC     2000       B-28
001020:
001021: 27,3360                                           BANK     27
001022: 04,2000                                           SETLOC   UPDATE2
001023: 04,2000                                           BANK
001024: 04,3147     1166                                  EBANK=   INTWAKUQ
001025:
001026: 04,3147                                           COUNT*   $$/INTIN
001027:
001028: 04,3147     1166               INTWAKUQ           =        INTWAK1Q                              #  TEMPORARY UNTIL NAME OF INTWAK1Q IS CHNG
001029:
001030: 04,3147           00003        INTWAKEU           RELINT
001031: 04,3150           00006                           EXTEND
001032: 04,3151           23166                           QXCH     INTWAKUQ                              #  SAVE Q FOR RETURN
001033:
001034: 04,3152           06042                           TC       INTPRET
001035:
001036: 04,3153           53135                           SLOAD    BZE                                   #  IS THIS A CSM/LEM STATE VECTOR UPDATE
001037: 04,3154           01502                                    UPSVFLAG                              #  REQUEST. IF NOT GO TO INTWAKUP.
001038: 04,3155           11214                                    INTWAKUP
001039:
001040: 04,3156           77775                           VLOAD                                          #  MOVE RRECT(6) AND VRECT(6) INTO
001041: 04,3157           01503                                    RRECT                                 #       RCV(6)   AND VCV(6) RESPECTIVELY.
001042: 04,3160           25535                           STOVL    RCV
001043: 04,3161           01511                                    VRECT                                 #  NOW GO TO 'RECTIFY +13D' TO
001044: 04,3162           77624                           CALL                                           #  STORE VRECT INTO VCV  AND ZERO OUT
001045: 04,3163           27710                                    RECTIFY    +13D                       #  TDELTAV(6),TNUV(6),TC(2) AND XKEP(2)
001046: 04,3164           51535                           SLOAD    ABS                                   #  COMPARE ABSOLUTE VALUE OF 'UPSVFLAG'
001047: 04,3165           01502                                    UPSVFLAG                              #  TO 'UPDATE MOON STATE VECTOR CODE'
001048: 04,3166           53025                           DSU      BZE                                   #  TO DETERMINE WHETHER THE STATE VECTOR TO
001049: 04,3167           11225                                    UPMNSVCD                              #  BE UPDATED IS IN THE EARTH OR LUNAR
001050: 04,3170           11175                                    INTWAKEM                              #  SPHERE OF INFLUENCE.........
001051: 04,3171           43174                           AXT,2    CLRGO                                 #  EARTH SPHERE OF INFLUENCE.
001052: 04,3172           00000                           DEC      0          B-14
001053: 04,3173           00223                                    MOONFLAG


001055: 04,3174           11200                                    INTWAKEC
001056: 04,3175           43174        INTWAKEM           AXT,2    SET                                   #  LUNAR SPHERE OF INFLUENCE.
001057: 04,3176           00002                           DEC      2          B-14
001058: 04,3177           00063                                    MOONFLAG
001059: 04,3200           50135        INTWAKEC           SLOAD    BMN                                   #  COMMON CODING AFTER X2 INITIALIZED AND
001060:                                                                                                  #  MOONFLAG SET (OR CLEARED).
001061: 04,3201           01502                                    UPSVFLAG                              #  IS THIS A REQUEST FOR A LEM OR CSM
001062: 04,3202           11210                                    INTWAKLM                              #   STATE VECTOR UPDATE......
001063: 04,3203           77624                           CALL                                           #  UPDATE CSM STATE VECTOR
001064: 04,3204           26662                                    ATOPCSM
001065:
001066: 04,3205           52014                           CLEAR    GOTO
001067: 04,3206           01671                                    ORBWFLAG
001068: 04,3207           11212                                    INTWAKEX
001069:
001070: 04,3210           77624        INTWAKLM           CALL                                           #  UPDATE LM STATE VECTOR
001071: 04,3211           26735                                    ATOPLEM
001072:
001073: 04,3212           77614        INTWAKEX           CLEAR
001074: 04,3213           02676                                    RENDWFLG
001075:
001076: 04,3214           45131        INTWAKUP           SSP      CALL                                  #  REMOVE :UPDATE STATE VECTOR INDICATOR:
001077: 04,3215           01502                                    UPSVFLAG
001078: 04,3216           00000                                    0
001079: 04,3217           27421                                    INTWAKE0                              #  RELEASE :GRAB: OF ORBIT INTEG
001080: 04,3220           77776                           EXIT
001081:
001082: 04,3221           05353                           TC       PHASCHNG
001083: 04,3222           04026                           OCT      04026
001084: 04,3223           01166                           TC       INTWAKUQ
001085:
001086: 04,3224           00002        UPMNSVCD           OCT      2
001087: 04,3225           00000                           OCT      0
001088:
001089: 04,3226           77420        GRP2PC             STQ      EXIT
001090: 04,3227           02711                                    GRP2SVQ
001091: 04,3230           05353                           TC       PHASCHNG
001092: 04,3231           04022                           OCT      04022
001093: 04,3232           06042                           TC       INTPRET
001094: 04,3233           77650                           GOTO
001095: 04,3234           02711                                    GRP2SVQ
001096:

End of include-file INTEGRATION_INITIALIZATION.agc.  Parent file is MAIN.agc


