
Source Code


000002:                                                                                                  ## Copyright:   Public domain.
000003:                                                                                                  ## Filename:    INTERPRETIVE_CONSTANTS.agc
000004:                                                                                                  ## Purpose:     A section of Luminary revision 116.
000005:                                                                                                  ##              It is part of the source code for the Lunar Module's (LM)
000006:                                                                                                  ##              Apollo Guidance Computer (AGC) for Apollo 12.
000007:                                                                                                  ##              This file is intended to be a faithful transcription, except
000008:                                                                                                  ##              that the code format has been changed to conform to the
000009:                                                                                                  ##              requirements of the yaYUL assembler rather than the
000010:                                                                                                  ##              original YUL assembler.
000011:                                                                                                  ## Reference:   pp. 1092-1093
000012:                                                                                                  ## Assembler:   yaYUL
000013:                                                                                                  ## Contact:     Ron Burkey <info@sandroid.org>.
000014:                                                                                                  ## Website:     www.ibiblio.org/apollo/index.html
000015:                                                                                                  ## Mod history: 2017-01-22 MAS  Created from Luminary 99.
000016:                                                                                                  ##              2017-01-30 RRB  Updated for Luminary 116.
000017:                                                                                                  ##              2017-03-13 RSB  Proofed comment text via 3-way diff vs
000018:                                                                                                  ##                              Luminary 99 and 131 ... no problems found.
000019:                                                                                                  ##              2021-05-30 ABS  DFC-6 -> DEC-6, DFC-12 -> DEC-12
000020:


000022: 23,2000                                           SETLOC   INTPRET1
000023: 23,2000                                           BANK
000024:
000025: 23,2513                                           COUNT*   $$/ICONS
000026: 23,2513           10000 00000  DP1/4TH            2DEC     .25
000027:
000028: 23,2515           00000 00000  UNITZ              2DEC     0          B-28
000029:
000030: 23,2517           00000 00000  UNITY              2DEC     0          B-28
000031:
000032: 23,2521           20000 00000  UNITX              2DEC     .5
000033:
000034: 23,2523           00000 00000  ZEROVECS           2DEC     0          B-28
000035:
000036: 23,2525           00000 00000                     2DEC     0          B-28
000037:
000038: 23,2527           00000 00000                     2DEC     0          B-28
000039:
000040: 23,2531  23,2521               DPHALF             =        UNITX
000041: 23,2531           37777        DPPOSMAX           OCT      37777
000042: 23,2532           37777                           OCT      37777
000043:


000045:                                                                                                  #  INTERPRETIVE CONSTANTS IN THE OTHER HALF-MEMORY
000046:
000047: 12,2000                                           SETLOC   INTPRET2
000048: 12,2000                                           BANK
000049:
000050: 12,2000                                           COUNT*   $$/ICONS
000051: 12,2000           00000 00000  ZUNIT              2DEC     0          B-28
000052:
000053: 12,2002           00000 00000  YUNIT              2DEC     0          B-28
000054:
000055: 12,2004           20000 00000  XUNIT              2DEC     .5
000056:
000057: 12,2006           00000 00000  ZEROVEC            2DEC     0          B-28
000058:
000059: 12,2010           00000 00000                     2DEC     0          B-28
000060:
000061: 12,2012           00000 00000                     2DEC     0          B-28
000062:
000063: 12,2014           77777                           OCT      77777                                 #  -0,-6,-12 MUST REMAIN IN THIS ORDER
000064: 12,2015           77771        DEC-6              DEC      -6         B-14
000065: 12,2016           77763        DEC-12             DEC      -12        B-14
000066: 12,2017           37777 37777  LODPMAX            2OCT     3777737777                            #  THESE TWO CONSTANTS MUST REMAIN
000067:
000068: 12,2021           37777 37777  LODPMAX1           2OCT     3777737777                            #  ADJACENT AND THE SAME FOR INTEGRATION
000069:
000070: 12,2023  12,2006               ZERODP             =        ZEROVEC
000071: 12,2023  12,2004               HALFDP             =        XUNIT
000072:
000073:

End of include-file INTERPRETIVE_CONSTANTS.agc.  Parent file is MAIN.agc


