
Source Code


000002:                                                                                                  ## Copyright:   Public domain.
000003:                                                                                                  ## Filename:    INTERRUPT_LEAD_INS.agc
000004:                                                                                                  ## Purpose:     A section of Luminary revision 116.
000005:                                                                                                  ##              It is part of the source code for the Lunar Module's (LM)
000006:                                                                                                  ##              Apollo Guidance Computer (AGC) for Apollo 12.
000007:                                                                                                  ##              This file is intended to be a faithful transcription, except
000008:                                                                                                  ##              that the code format has been changed to conform to the
000009:                                                                                                  ##              requirements of the yaYUL assembler rather than the
000010:                                                                                                  ##              original YUL assembler.
000011:                                                                                                  ## Reference:   pp. 154-155
000012:                                                                                                  ## Assembler:   yaYUL
000013:                                                                                                  ## Contact:     Ron Burkey <info@sandroid.org>.
000014:                                                                                                  ## Website:     www.ibiblio.org/apollo/index.html
000015:                                                                                                  ## Mod history: 2017-01-22 MAS  Created from Luminary 99.
000016:                                                                                                  ##              2017-02-25 HG   Transcribed
000017:                                                                                                  ##              2017-03-01 RSB  Proofed comment text by diff vs Luminary 131
000018:                                                                                                  ##                              but no errors found.
000019:


000021:    4000                                           SETLOC   4000
000022:
000023:    4000                                           COUNT*   $$/RUPTS                              #  FIX-FIX LEAD INS
000024:    4000           00004                           INHINT                                         #  GO
000025:    4001           34054                           CAF      GOBB
000026:    4002           56006                           XCH      BBANK
000027:    4003           12665                           TCF      GOPROG
000028:
000029:    4004           52011                           DXCH     ARUPT                                 #  T6RUPT
000030:    4005           00006                           EXTEND
000031:    4006           34056                           DCA      T6ADR
000032:    4007           52006                           DTCB
000033:
000034:    4010           52011                           DXCH     ARUPT                                 #  T5RUPT - AUTOPILOT
000035:    4011           00006                           EXTEND
000036:    4012           31264                           DCA      T5ADR
000037:    4013           52006                           DTCB
000038:
000039:    4014           52011                           DXCH     ARUPT                                 #  T3RUPT
000040:    4015           34057                           CAF      T3RPTBB
000041:    4016           56006                           XCH      BBANK
000042:    4017           13410                           TCF      T3RUPT
000043:
000044:    4020           52011                           DXCH     ARUPT                                 #  T4RUPT
000045:    4021           34064                           CAF      T4RPTBB
000046:    4022           56006                           XCH      BBANK
000047:    4023           12000                           TCF      T4RUPT
000048:
000049:    4024           52011                           DXCH     ARUPT                                 #  KEYRUPT1
000050:    4025           34060                           CAF      KEYRPTBB
000051:    4026           56006                           XCH      BBANK
000052:    4027           13256                           TCF      KEYRUPT1
000053:
000054:    4030           52011                           DXCH     ARUPT                                 #  KEYRUPT2
000055:    4031           34061                           CAF      MKRUPTBB
000056:    4032           56006                           XCH      BBANK
000057:    4033           12332                           TCF      MARKRUPT
000058:
000059:    4034           52011                           DXCH     ARUPT                                 #  UPRUPT
000060:    4035           34060                           CAF      UPRPTBB
000061:    4036           56006                           XCH      BBANK
000062:    4037           13301                           TCF      UPRUPT
000063:
000064:    4040           52011                           DXCH     ARUPT                                 #  DOWNRUPT
000065:    4041           34062                           CAF      DWNRPTBB
000066:    4042           56006                           XCH      BBANK
000067:    4043           13472                           TCF      DODOWNTM
000068:
000069:    4044           52011                           DXCH     ARUPT                                 #  RADAR RUPT
000070:    4045           34063                           CAF      RDRPTBB
000071:


000073:    4046           56006                           XCH      BBANK
000074:    4047           13157                           TCF      RADAREAD
000075:
000076:    4050           52011                           DXCH     ARUPT                                 #  RUPT10 IS USED ONLY BY LANDING GUIDANCE
000077:    4051           34065                           CA       RUPT10BB
000078:    4052           56006                           XCH      BBANK
000079:    4053           12302                           TCF      PITFALL
000080:
000081:
000082:    4054  E3,1400                                  EBANK=   LST1                                  #  RESTART USES E0, E3
000083:    4054           12103        GOBB               BBCON    GOPROG
000084:
000085:    4055  E6,1464                                  EBANK=   PERROR
000086:    4055           02117 36106  T6ADR              2CADR    DOT6RUPT
000087:
000088:    4057  E3,1400                                  EBANK=   LST1
000089:    4057           02103        T3RPTBB            BBCON    T3RUPT
000090:
000091:    4060     0073                                  EBANK=   KEYTEMP1
000092:    4060           10100        KEYRPTBB           BBCON    KEYRUPT1
000093:
000094:    4061  E7,1404                                  EBANK=   AOTAZ
000095:    4061           16107        MKRUPTBB           BBCON    MARKRUPT
000096:
000097:    4062     4060               UPRPTBB            =        KEYRPTBB
000098:
000099:    4062     0340                                  EBANK=   DNTMBUFF
000100:    4062           12100        DWNRPTBB           BBCON    DODOWNTM
000101:
000102:    4063  E7,1453                                  EBANK=   TTOGO
000103:    4063           52107        RDRPTBB            BBCON    RADAREAD
000104:
000105:    4064  E6,1414                                  EBANK=   M11
000106:    4064           14106        T4RPTBB            BBCON    T4RUPT
000107:
000108:    4065  E7,1444                                  EBANK=   ELVIRA
000109:    4065           22107        RUPT10BB           BBCON    PITFALL

End of include-file INTERRUPT_LEAD_INS.agc.  Parent file is MAIN.agc


