
Source Code


000002:                                                                                                  ## Copyright:   Public domain.
000003:                                                                                                  ## Filename:    INTER-BANK_COMMUNICATION.agc
000004:                                                                                                  ## Purpose:     A section of Luminary revision 116.
000005:                                                                                                  ##              It is part of the source code for the Lunar Module's (LM)
000006:                                                                                                  ##              Apollo Guidance Computer (AGC) for Apollo 12.
000007:                                                                                                  ##              This file is intended to be a faithful transcription, except
000008:                                                                                                  ##              that the code format has been changed to conform to the
000009:                                                                                                  ##              requirements of the yaYUL assembler rather than the
000010:                                                                                                  ##              original YUL assembler.
000011:                                                                                                  ## Reference:   pp. 990-993
000012:                                                                                                  ## Assembler:   yaYUL
000013:                                                                                                  ## Contact:     Ron Burkey <info@sandroid.org>.
000014:                                                                                                  ## Website:     www.ibiblio.org/apollo/index.html
000015:                                                                                                  ## Mod history: 2017-01-22 MAS  Created from Luminary 99.
000016:                                                                                                  ##              2017-01-30 RRB  Updated for Luminary 116.
000017:                                                                                                  ##              2017-03-13 RSB  Proofed comment text via 3-way diff vs
000018:                                                                                                  ##                              Luminary 99 and 131.
000019:                                                                                                  ##              2017-03-17 RSB  Comment-text fixes identified in diff'ing
000020:                                                                                                  ##                              Luminary 99 vs Comanche 55.
000021:


000023:                                                                                                  #           THE FOLLOWING ROUTINE CAN BE USED TO CALL A SUBROUTINE IN ANOTHER BANK. IN THE BANKCALL VERSION, THE
000024:                                                                                                  #  CADR OF THE SUBROUTINE IMMEDIATELY FOLLOWS THE TC BANKCALL INSTRUCTION, WITH C(A) AND C(L) PRESERVED.
000025:
000026:    4616                                           BLOCK    02
000027:    4616                                           COUNT*   $$/BANK
000028:    4616           52134        BANKCALL           DXCH     BUF2                                  #  SAVE INCOMING A,L.
000029:    4617           50002                           INDEX    Q                                     #  PICK UP CADR.
000030:    4620           30000                           CA       0
000031:    4621           24002                           INCR     Q                                     #  SO WE RETURN TO THE LOC. AFTER THE CADR.
000032:
000033:                                                                                                  #           SWCALL IS IDENTICAL TO BANKCALL, EXCEPT THAT THE CADR ARRIVES IN A.
000034:
000035:    4622           54001        SWCALL             TS       L
000036:    4623           22004                           LXCH     FBANK                                 #  SWITCH BANKS, SAVING RETURN.
000037:    4624           75012                           MASK     LOW10                                 #  GET SUB-ADDRESS OF CADR.
000038:    4625           56002                           XCH      Q                                     #  A,L NOW CONTAINS DP RETURN.
000039:    4626           52134                           DXCH     BUF2                                  #  RESTORING INPUTS IF THIS IS A BANKCALL.
000040:    4627           50002                           INDEX    Q
000041:    4630           02000                           TC       10000                                 #  SETTING Q TO SWRETURN.
000042:
000043:    4631           56134        SWRETURN           XCH      BUF2       +1                         #  COMES HERE TO RETURN TO CALLER. C(A,L)
000044:    4632           56004                           XCH      FBANK                                 #  ARE PRESERVED FOR RETURN.
000045:    4633           56134                           XCH      BUF2       +1
000046:    4634           00133                           TC       BUF2
000047:
000048:                                                                                                  #           THE FOLLOWING ROUTINE CAN BE USED AS A UNILATERAL JUMP WITH C(A,L) PRESERVED AND THE CADR IMMEDIATELY
000049:                                                                                                  #  FOLLOWING THE TC POSTJUMP INSTRUCTION.
000050:
000051:    4635           56002        POSTJUMP           XCH      Q                                     #  SAVE INCOMING C(A).
000052:    4636           50000                           INDEX    A                                     #  GET CADR.
000053:    4637           30000                           CA       0
000054:
000055:                                                                                                  #           BANKJUMP IS THE SAME AS POSTJUMP, EXCEPT THAT THE CADR ARRIVES IN A.
000056:
000057:    4640           54004        BANKJUMP           TS       FBANK
000058:    4641           75012                           MASK     LOW10
000059:    4642           56002                           XCH      Q                                     #  RESTORING INPUT C(A) IF THIS WAS A
000060:    4643           50002        Q+10000            INDEX    Q                                     #  POSTJUMP.
000061:    4644           12000        PRIO12             TCF      10000                                 #  PRIO12 = TCF   10000 = 12000
000062:


000064:                                                                                                  #           THE FOLLOWING ROUTINE GETS THE RETURN CADR SAVED BY SWCALL OR BANKCALL AND LEAVES IT IN A.
000065:
000066:    4645           35012        MAKECADR           CAF      LOW10
000067:    4646           70133                           MASK     BUF2
000068:    4647           60134                           AD       BUF2       +1
000069:    4650           00002                           TC       Q
000070:
000071:    4651           54135        SUPDACAL           TS       MPTEMP
000072:    4652           56004                           XCH      FBANK                                 #  SET FBANK FOR DATA.
000073:    4653           00006                           EXTEND
000074:    4654           04007                           ROR      SUPERBNK                              #  SAVE FBANK IN BITS 15-11, AND
000075:    4655           56135                           XCH      MPTEMP                                #  S UPERBANK IN BITS 7-5.
000076:    4656           75012                           MASK     LOW10
000077:    4657           56001                           XCH      L                                     #  SAVE REL. ADR. IN BANK, FETCH SUPERBITS.
000078:    4660           00004                           INHINT                                         #  BECAUSE RUPT DOES NOT SAVE SUPERBANK.
000079:    4661           00006                           EXTEND
000080:    4662           01007                           WRITE    SUPERBNK                              #  SET SUPERBANK FOR DATA.
000081:    4663           50001                           INDEX    L
000082:    4664           32000                           CA       10000                                 #  PINBALL (FIX MEM DISP) PREVENTS DCA HERE
000083:    4665           56135                           XCH      MPTEMP                                #  SAVE 1ST WD, FETCH OLD FBANK AND SBANK.
000084:    4666           00006                           EXTEND
000085:    4667           01007                           WRITE    SUPERBNK                              #  RESTORE SUPERBANK.
000086:    4670           00003                           RELINT
000087:    4671           54004                           TS       FBANK                                 #  RESTORE FBANK.
000088:    4672           30135                           CA       MPTEMP                                #  RECOVER FIRST WORD OF DATA.
000089:    4673           00002                           RETURN                                         #  24 WDS. DATACALL 516 MU, SUPDACAL 432 MU
000090:


000092:                                                                                                  #  THE FOLLOWING ROUTINES ARE IDENTICAL TO BANKCALL AND SWCALL EXCEPT THAT THEY ARE USED IN INTERRUPT.
000093:
000094:    4674           52073        IBNKCALL           DXCH     RUPTREG3                              #  USES RUPTREG3,4 FOR DP RETURN ADDRESS.
000095:    4675           50002                           INDEX    Q
000096:    4676           30000                           CAF      0
000097:    4677           24002                           INCR     Q
000098:
000099:    4700           54001        ISWCALLL           TS       L
000100:    4701           22004                           LXCH     FBANK
000101:    4702           75012                           MASK     LOW10
000102:    4703           56002                           XCH      Q
000103:    4704           52073                           DXCH     RUPTREG3
000104:    4705           50002                           INDEX    Q
000105:    4706           02000                           TC       10000
000106:
000107:    4707           56073        ISWRETRN           XCH      RUPTREG4
000108:    4710           56004                           XCH      FBANK
000109:    4711           56073                           XCH      RUPTREG4
000110:    4712           00072                           TC       RUPTREG3
000111:
000112:                                                                                                  #  2. USPRCADR ACCESSES INTERPRETIVE CODING IN OTHER THAN THE USER'S FBANK.  THE CALLING SEQUENCE IS AS FOLLOWS:
000113:
000114:                                                                                                  #        L       TC      USPRCADR
000115:                                                                                                  #        L+1     CADR    INTPRETX        INTPRETX IS THE INTERPRETIVE CODING
000116:                                                                                                  #                                        RETURN IS TO L+2
000117:
000118:    4713           54164        USPRCADR           TS       LOC                                   #  SAVE A
000119:    4714           34744                           CA       BIT8
000120:    4715           54023                           TS       EDOP                                  #  EXIT INSTRUCTION TO EDOP
000121:    4716           30006                           CA       BBANK
000122:    4717           54165                           TS       BANKSET                               #  USER'S BBANK TO BANKSET
000123:    4720           50002                           INDEX    Q
000124:    4721           30000                           CA       0
000125:    4722           54004                           TS       FBANK                                 #  INTERPRETIVE BANK TO FBANK
000126:    4723           75012                           MASK     LOW10                                 #  YIELDS INTERPRETIVE RELATIVE ADDRESS
000127:    4724           56002                           XCH      Q                                     #  INTERPRETIVE ADDRESS TO Q, FETCHING L+1
000128:    4725           56164                           XCH      LOC                                   #  L+1 TO LOC, RETRIEVING ORIGINAL A
000129:    4726           14643                           TCF      Q+10000
000130:


000132:                                                                                                  #  THERE ARE FOUR POSSIBLE SETTINGS FOR CHANNEL 07. (CHANNEL 07 CONTAINS THE SUPERBANK SETTING.)
000133:
000134:                                                                                                  #                                        PSEUDO-FIXED      OCTAL PSEUDO
000135:                                                                                                  #  SUPERBANK     SETTING S-REG. VALUE    BANK NUMBERS      ADDRESSES
000136:                                                                                                  #  ----------    ------- ------------     ------------      ------------
000137:                                                                                                  #  SUPERBANK 3     0XX    2000 - 3777       30 - 37       70000 - 107777         (WHERE XX CAN BE ANYTHING AND
000138:                                                                                                  #                                                                                WILL USUALLY BE SEEN AS 11)
000139:                                                                                                  #  SUPERBANK 4     100    2000 - 3777       40 - 47      110000 - 127777         (AS FAR AS IT CAN BE SEEN,
000140:                                                                                                  #                                                                                ONLY BANKS 40-43 WILL EVER BE
000141:                                                                                                  #                                                                                AND ARE PRESENTLY AVAILABLE)
000142:                                                                                                  #  SUPERBANK 5     101    2000 - 3777       50 - 57      130000 - 147777         (PRESENTLY NOT AVAILABLE TO
000143:                                                                                                  #                                                                                THE USER)
000144:                                                                                                  #  SUPERBANK 6     110    2000 - 3777       60 - 67      150000 - 167777         (PRESENTLY NOT AVAILABLE TO
000145:                                                                                                  #                                                                                THE USER)
000146:                                                                                                  #  *** THIS ROUTINE MAY BE CALLED BY ANY PROGRAM LOCATED IN BANKS 00 - 27.  I.E., NO PROGRAM LIVING IN ANY
000147:                                                                                                  #  SUPERBANK SHOULD USE SUPERSW. ***
000148:
000149:                                                                                                  #  SUPERSW MAY BE CALLED IN THIS FASHION:
000150:                                                                                                  #        CAF     ABBCON          WHERE  --  ABBCON   BBCON  SOMETHIN  --
000151:                                                                                                  #        TCR     SUPERSW         (THE SUPERBNK BITS ARE IN THE BBCON)
000152:                                                                                                  #        ...       ...
000153:                                                                                                  #         .         .
000154:                                                                                                  #         .         .
000155:                                                                                                  #  OR IN THIS FASHION:
000156:                                                                                                  #        CAF     SUPERSET        WHERE SUPERSET IS ONE OF THE FOUR AVAILABLE
000157:                                                                                                  #        TCR     SUPERSW         SUPERBANK BIT CONSTANTS:
000158:                                                                                                  #        ...       ...                                   SUPER011 OCTAL  60
000159:                                                                                                  #         .         .                                    SUPER100 OCTAL 100
000160:                                                                                                  #         .         .                                    SUPER101 OCTAL 120
000161:                                                                                                  #                                                        SUPER110 OCTAL 140
000162:
000163:    4727           00006        SUPERSW            EXTEND
000164:    4730           01007                           WRITE    SUPERBNK                              #  WRITE BITS 7-6-5 OF THE ACCUMULATOR INTO
000165:                                                                                                  #  CHANNEL 07
000166:    4731           00002                           TC       Q                                     #  TC TO INSTRUCTION FOLLOWING
000167:                                                                                                  #    TC SUPERSW
000168:

End of include-file INTER-BANK_COMMUNICATION.agc.  Parent file is MAIN.agc


