
Source Code


000002:                                                                                                  ## Copyright:   Public domain.
000003:                                                                                                  ## Filename:    LUNAR_LANDING_GUIDANCE_EQUATIONS.agc
000004:                                                                                                  ## Purpose:     A section of Luminary revision 116.
000005:                                                                                                  ##              It is part of the source code for the Lunar Module's (LM)
000006:                                                                                                  ##              Apollo Guidance Computer (AGC) for Apollo 12.
000007:                                                                                                  ##              This file is intended to be a faithful transcription, except
000008:                                                                                                  ##              that the code format has been changed to conform to the
000009:                                                                                                  ##              requirements of the yaYUL assembler rather than the
000010:                                                                                                  ##              original YUL assembler.
000011:                                                                                                  ## Reference:   pp. 791-822
000012:                                                                                                  ## Assembler:   yaYUL
000013:                                                                                                  ## Contact:     Ron Burkey <info@sandroid.org>.
000014:                                                                                                  ## Website:     www.ibiblio.org/apollo/index.html
000015:                                                                                                  ## Mod history: 2017-01-22 MAS  Created from Luminary 99.
000016:                                                                                                  ##              2017-03-10 RSB  Transcribed, and then proofed comment-text using
000017:                                                                                                  ##                              3-way diff vs Luminary 99 and Luminary 131.
000018:                                                                                                  ##                              (Admittedly, the former is more for detecting errors
000019:                                                                                                  ##                              in Luminary 99 than the other way around.)
000020:                                                                                                  ##                              The label 1406P00 was replaced with 1406POO.
000021:                                                                                                  ##              2017-03-16 RSB  Comment-text fixes identified in 5-way
000022:                                                                                                  ##                              side-by-side diff of Luminary 69/99/116/131/210.
000023:                                                                                                  ##              2017-03-19 HG   Add missing statement TC C13STALL (and shift label RESETRPT to it)
000024:                                                                                                  ##                              Fix value for BIASFACT B-28 --> B-26
000025:                                                                                                  ##                              Fix operand CGCALC   --> EXTLOGIC
000026:                                                                                                  ##                                          ENDLLJOB --> ENDOFJOB
000027:                                                                                                  ##                                          REGODSPR --> REGDOSP
000028:                                                                                                  ##                                          REFLASHR --> REFLASH
000029:                                                                                                  ##              2021-05-30 ABS  Fixed a page number to match scans.
000030:


000032: 31,2346  E7,1621                                  EBANK=   E2DPS
000033: 31,2346                                           COUNT*   $$/F2DPS
000034:
000035:                                                                                                  #  ****************************************************************************************************************
000036:                                                                                                  #  LUNAR LANDING FLIGHT SEQUENCE TABLES
000037:                                                                                                  #  ****************************************************************************************************************
000038:
000039:                                                                                                  #  FLIGHT SEQUENCE TABLES ARE ARRANGED BY FUNCTION.   THEY ARE REFERENCED USING AS AN INDEX THE REGISTER WCHPHASE:
000040:                                                                                                  #        WCHPHASE = -1 ---> IGNALG
000041:                                                                                                  #        WCHPHASE =  0 ---> BRAKQUAD
000042:                                                                                                  #        WCHPHASE =  1 ---> APPRQUAD
000043:                                                                                                  #        WCHPHASE =  2 ---> VERTICAL
000044:
000045:                                                                                                  #  ***************************************************************************************************************
000046:
000047:                                                                                                  #  ROUTINES FOR STARTING NEW GUIDANCE PHASES:
000048:
000049: 31,2346           12603                           TCF      TTFINCR                               #  IGNALG
000050: 31,2347           12603        NEWPHASE           TCF      TTFINCR                               #  BRAKQUAD
000051: 31,2350           12566                           TCF      STARTP64                              #  APPRQUAD
000052: 31,2351           12557                           TCF      P65START                              #  VERTICAL
000053:
000054:                                                                                                  #  PRE-GUIDANCE COMPUTATIONS:
000055:
000056: 31,2352           12763                           TCF      CALCRGVG                              #  IGNALG
000057: 31,2353           12773        PREGUIDE           TCF      RGVGCALC                              #  BRAKQUAD
000058: 31,2354           12664                           TCF      REDESIG                               #  APPRQUAD
000059: 31,2355           12773                           TCF      RGVGCALC                              #  VERTICAL
000060:
000061:                                                                                                  #  GUIDANCE EQUATIONS:
000062:
000063: 31,2356           13041                           TCF      TTF/8CL                               #  IGNALG
000064: 31,2357           13041        WHATGUID           TCF      TTF/8CL                               #  BRAKQUAD
000065: 31,2360           13041                           TCF      TTF/8CL                               #  APPRQUAD
000066: 31,2361           13514                           TCF      VERTGUID                              #  VERTICAL
000067:
000068:                                                                                                  #  POST GUIDANCE EQUATION COMPUTATIONS:
000069:
000070: 31,2362           13240                           TCF      CGCALC                                #  IGNALG
000071: 31,2363           13225        AFTRGUID           TCF      EXTLOGIC                              #  BRAKQUAD
000072: 31,2364           13225                           TCF      EXTLOGIC                              #  APPRQUAD
000073: 31,2365           13411                           TCF      STEER?                                #  VERTICAL
000074:


000076:                                                                                                  #  WINDOW VECTOR COMPUTATIONS:
000077:
000078: 31,2366           13310                           TCF      EXGSUB                                #  IGNALG
000079: 31,2367           13331        WHATEXIT           TCF      EXBRAK                                #  BRAKQUAD
000080: 31,2370           13337                           TCF      EXNORM                                #  APPRQUAD
000081:
000082:                                                                                                  #  DISPLAY ROUTINES:
000083:
000084: 31,2371           13450        WHATDISP           TCF      P63DISPS                              #  BRAKQUAD
000085: 31,2372           13453                           TCF      P64DISPS                              #  APPRQUAD
000086: 31,2373           13502                           TCF      VERTDISP                              #  VERTICAL
000087:
000088:                                                                                                  #  ALARM ROUTINE FOR TTF COMPUTATION:
000089:
000090: 31,2374           13712                           TCF      1406POO                               #  IGNALG
000091: 31,2375           13714        WHATALM            TCF      1406ALM                               #  BRAKQUAD
000092: 31,2376           13714                           TCF      1406ALM                               #  APPRQUAD
000093:
000094:                                                                                                  #  INDICES FOR REFERENCING TARGET PARAMETERS:
000095:
000096: 31,2377           00000                           OCT      0                                     #  IGNALG
000097: 31,2400           00000        TARGTDEX           OCT      0                                     #  BRAKQUAD
000098: 31,2401           00034                           OCT      34                                    #  APPRQUAD
000099:
000100:                                                                                                  #  ****************************************************************************************************************
000101:                                                                                                  #  ENTRY POINTS:  ?GUIDSUB FOR THE IGNITION ALGORITHM, LUNLAND FOR SERVOUT
000102:                                                                                                  #  ****************************************************************************************************************
000103:
000104:                                                                                                  #  IGNITION ALGORITHM ENTRY:  DELIVERS N PASSES OF QUADRATIC QUIDANCE
000105:
000106: 31,2402           77776        ?GUIDSUB           EXIT
000107: 31,2403           34752                           CAF      TWO                                   #  N = 3
000108: 31,2404           55647                           TS       NGUIDSUB
000109: 31,2405           12541                           TCF      GUILDRET   +2
000110:
000111: 31,2406           55647        GUIDSUB            TS       NGUIDSUB                              #  ON SUCEEDING PASSES SKIP TTFINCR
000112: 31,2407           12763                           TCF      CALCRGVG
000113:
000114:                                                                                                  #  NORMAL ENTRY:  CONTROL COMES HERE FROM SERVOUT
000115:
000116: 31,2410           05353        LUNLAND            TC       PHASCHNG
000117: 31,2411           00035                           OCT      00035                                 #  GROUP 5:  RETAIN ONLY PIPA TASK
000118: 31,2412           30101                           CA       FLAGWRD5                              #  HAS THROTTLE-UP COME YET?
000119: 31,2413           74744                           MASK     ZOOMBIT
000120: 31,2414           00006                           EXTEND
000121: 31,2415           13442                           BZF      DISPEXIT   +3                         #  NO:   DO DISPLAYS ONLY


000123: 31,2416           05353                           TC       PHASCHNG                              #  YES:  DO GUIDANCE
000124: 31,2417           05023                           OCT      05023
000125: 31,2420           20000                           OCT      20000
000126:
000127:                                                                                                  # ****************************************************************************************************************
000128:                                                                                                  #  GUILDENSTERN:  AUTO-MODES MONITOR (R13)
000129:                                                                                                  # ****************************************************************************************************************
000130:
000131: 31,2421                                           COUNT*   $$/R13
000132:
000133:                                                                                                  #  HERE IS THE PHILOSOPHY OF GUILDENSTERN:       ON EVERY APPEARANCE OR DISAPPEARANCE OF THE MANUAL THROTTLE
000134:                                                                                                  #  DISCRETE TO SELECT P67 OR P66 RESPECTIVELY;   ON EVERY APPEARANCE OF THE ATTITUDE-HOLD DISCRETE TO SELECT P66
000135:                                                                                                  #  UNLESS THE CURRENT PROGRAM IS P67 IN WHICH CASE THERE IS NO CHANGE.
000136:
000137: 31,2421           00006        GUILDEN            EXTEND                                         #  IS UN-AUTO-THROTTLE DISCRETE PRESENT?
000138: 31,2422           00030                           READ     CHAN30
000139: 31,2423           74747                           MASK     BIT5
000140: 31,2424           10000                           CCS      A
000141: 31,2425           12503                           TCF      STARTP67                              #  YES
000142: 31,2426           05321        P67NOW?            TC       CHECKMM                               #  NO:  ARE WE IN P67 NOW?
000143: 31,2427           00103                           DEC      67         B-14
000144: 31,2430           12511                           TCF      STABL?                                #  NO


000147: 31,2431           03717        STARTP66           TC       FASTCHNG                              #  YES
000148: 31,2432           05311                           TC       NEWMODEX
000149: 31,2433           00102        DEC66              DEC      66         B-14
000150: 31,2434           00006                           EXTEND
000151: 31,2435           31474                           DCA      HDOTDISP                              #  SET DESIRED ALTITUDE RATE = CURRENT
000152: 31,2436           53645                           DXCH     VDGVERT                               #        ALTITUDE RATE.
000153: 31,2437           06042        STRTP66A           TC       INTPRET
000154: 31,2440           41535                           SLOAD    PUSH
000155: 31,2441           01457                                    PBIASZ
000156: 31,2442           41535                           SLOAD    PUSH
000157: 31,2443           01455                                    PBIASY
000158: 31,2444           55535                           SLOAD    VDEF
000159: 31,2445           01453                                    PBIASX
000160: 31,2446           43161                           VXSC     SET
000161: 31,2447           25546                                    BIASFACT
000162: 31,2450           00463                                    RODFLAG
000163: 31,2451           26621                           STOVL    VBIAS
000164: 31,2452           01254                                    TEMX
000165: 31,2453           77676                           VCOMP
000166: 31,2454           27764                           STOVL    OLDPIPAX
000167: 31,2455           06524                                    ZEROVECS
000168: 31,2456           17767                           STODL    DELVROD
000169: 31,2457           02540                                    RODSCALE
000170: 31,2460           17757                           STODL    RODSCAL1
000171: 31,2461           01234                                    PIPTIME
000172: 31,2462           03760                           STORE    LASTTPIP
000173: 31,2463           77776                           EXIT
000174: 31,2464           34755                           CAF      ZERO


000176: 31,2465           55620                           TS       FCOLD
000177: 31,2466           55610                           TS       FWEIGHT
000178: 31,2467           55611                           TS       FWEIGHT    +1
000179: 31,2470           55647        VRTSTART           TS       WCHVERT
000180: 31,2471           34752                           CAF      TWO                                   #  WCHPHASE = 2 ---> VERTICAL: P65,P66,P67
000181: 31,2472           55621                           TS       WCHPHOLD
000182: 31,2473           55346                           TS       WCHPHASE
000183: 31,2474           04616                           TC       BANKCALL                              #  TEMPORARY, I HOPE HOPE HOPE
000184: 31,2475           40166                           CADR     STOPRATE                              #  TEMPORARY, I HOPE HOPE HOPE
000185: 31,2476           05516                           TC       DOWNFLAG                              #  PERMIT X-AXIS OVERRIDE
000186: 31,2477           00311                           ADRES    XOVINFLG
000187: 31,2500           05516                           TC       DOWNFLAG
000188: 31,2501           00143                           ADRES    REDFLAG
000189: 31,2502           13514                           TCF      VERTGUID
000190:
000191: 31,2503           05311        STARTP67           TC       NEWMODEX                              #  NO HARM IN "STARTING" P67 OVER AND OVER
000192: 31,2504           00103                           DEC      67         B-14                       #  SO NO NEED FOR A FASTCHNG AND NO NEED
000193: 31,2505           34755                           CAF      ZERO                                  #  TO SEE IF ALREADY IN P67.
000194: 31,2506           55746                           TS       RODCOUNT
000195: 31,2507           34363                           CAF      TEN


000197: 31,2510           12470                           TCF      VRTSTART
000198:
000199: 31,2511           41010        STABL?             CS       MODREG                                #  ARE WE IN P66 EVEN THO WE MAY BE IN
000200: 31,2512           62433                           AD       DEC66                                 #  AUTO DAP?
000201: 31,2513           00006                           EXTEND
000202: 31,2514           12532                           BZF      RESTART?                              #  YES.  GO AND CHECK FOR A RESTART.
000203: 31,2515           34737                           CAF      BIT13                                 #  NO. UN-ATTITUDE-HOLD DISCRETE PRESENT?
000204: 31,2516           00006                           EXTEND
000205: 31,2517           02031                           RAND     CHAN31
000206: 31,2520           10000                           CCS      A
000207: 31,2521           12537                           TCF      GUILDRET                              #  YES: ALL'S WELL
000208:
000209: 31,2522           41010        P66NOW?            CS       MODREG
000210: 31,2523           62433                           AD       DEC66
000211: 31,2524           00006                           EXTEND
000212: 31,2525           12532                           BZF      RESTART?
000213:
000214: 31,2526           31746                           CA       RODCOUNT                              #  NO. HAS THE ROD SWITCH BEEN "CLICKED"?
000215: 31,2527           00006                           EXTEND
000216: 31,2530           12537                           BZF      GUILDRET                              #  NO. CONTINUE WITH AUTOMATIC LANDING.
000217: 31,2531           12431                           TCF      STARTP66                              #  YES. SWITCH INTO THE ROD MODE.
000218:
000219: 31,2532           30075        RESTART?           CA       FLAGWRD1                              #  HAS THERE BEEN A RESTART?
000220: 31,2533           74740                           MASK     RODFLBIT
000221: 31,2534           00006                           EXTEND
000222: 31,2535           12437                           BZF      STRTP66A                              #  YES.  REINITIALIZE BUT LEAVE VDGVERT AS
000223:                                                                                                  #        IS.
000224:
000225: 31,2536           13514                           TCF      VERTGUID                              #  NO: CONTINUE WITH R.O.D.


000227:
000228:                                                                                                  #  ****************************************************************************************************************
000229:                                                                                                  #  INITIALIZATION FOR THIS PASS
000230:                                                                                                  #  ****************************************************************************************************************
000231:
000232: 31,2537                                           COUNT*   $$/F2DPS
000233:
000234: 31,2537           34755        GUILDRET           CAF      ZERO
000235: 31,2540           55746                           TS       RODCOUNT
000236:
000237: 31,2541           00006                 +2        EXTEND
000238: 31,2542           31625                           DCA      TPIP
000239: 31,2543           53574                           DXCH     TPIPOLD
000240:
000241: 31,2544           03717                           TC       FASTCHNG
000242:
000243: 31,2545           00006                           EXTEND
000244: 31,2546           31561                           DCA      PIPTIME1
000245: 31,2547           53625                           DXCH     TPIP
000246:
000247: 31,2550           00006                           EXTEND
000248: 31,2551           31643                           DCA      TTF/8
000249: 31,2552           53553                           DXCH     TTF/8TMP
000250:
000251: 31,2553           11623                           CCS      FLPASS0
000252: 31,2554           12603                           TCF      TTFINCR
000253:
000254: 31,2555           51346        BRSPOT1            INDEX    WCHPHASE
000255: 31,2556           12347                           TCF      NEWPHASE
000256:
000257:                                                                                                  #  ****************************************************************************************************************
000258:                                                                                                  #  ROUTINES TO START NEW PHASES
000259:                                                                                                  #  ****************************************************************************************************************
000260:
000261: 31,2557           05311        P65START           TC       NEWMODEX
000262: 31,2560           00101                           DEC      65         B-14
000263: 31,2561           44752                           CS       TWO
000264: 31,2562           55647                           TS       WCHVERT
000265: 31,2563           05516                           TC       DOWNFLAG                              #  PERMIT X-AXIS OVERRIDE
000266: 31,2564           00311                           ADRES    XOVINFLG
000267: 31,2565           12603                           TCF      TTFINCR
000268:
000269: 31,2566           05311        STARTP64           TC       NEWMODEX
000270: 31,2567           00100                           DEC      64         B-14
000271: 31,2570           31425                           CA       DELTTFAP                              #  AUGMENT TTF/8
000272: 31,2571           27552                           ADS      TTF/8TMP
000273: 31,2572           00004                           INHINT
000274: 31,2573           06022                           TC       C13STALL
000275: 31,2574           34740                           CA       BIT12                                 #  ENABLE RUPT10
000276: 31,2575           00006                           EXTEND


000278: 31,2576           05013                           WOR      CHAN13
000279: 31,2577           33727                           CAF      P64DB
000280: 31,2600           55343                           TS       DB
000281: 31,2601           05516                           TC       DOWNFLAG                              #  INITIALIZE REDESIGNATION FLAG
000282: 31,2602           00143                           ADRES    REDFLAG
000283:
000284:
000285:                                                                                                  #                (CONTINUE TO TTFINCR)
000286:
000287:                                                                                                  #  ****************************************************************************************************************
000288:                                                                                                  #  INCREMENT TTF/8, UPDATE LAND FOR LUNAR ROTATION, DO OTHER USEFUL THINGS
000289:                                                                                                  #  ****************************************************************************************************************
000290:
000291:                                                                                                  #        TTFINCR COMPUTATIONS ARE AS FOLLOWS:-
000292:                                                                                                  #                TTF/8 UPDATED FOR TIME SINCE LAST PASS:
000293:
000294:                                                                                                  #                        TTF/8 = TTF/8 + (TPIP - TPIPOLD)/8
000295:
000296:                                                                                                  #                LANDING SITE VECTOR UPDATED FOR LUNAR ROTATION:
000297:
000298:                                                                                                  #                        -                  -      -                       -
000299:                                                                                                  #                        LAND = /LAND/ UNIT(LAND - LAND(TPIP - TPIPOLD) * WM)
000300:
000301:                                                                                                  #                SLANT RANGE TO LANDING SITE, FOR DISPLAY:
000302:
000303:                                                                                                  #                                         -      -
000304:                                                                                                  #                        RANGEDSP = ABVAL(LAND - R)
000305:
000306: 31,2603           06042        TTFINCR            TC       INTPRET
000307: 31,2604           45345                           DLOAD    DSU
000308: 31,2605           03625                                    TPIP
000309: 31,2606           03574                                    TPIPOLD
000310: 31,2607           41461                           SLR      PUSH                                  #  SHIFT SCALES DELTA TIME TO 2(17) CSECS
000311: 31,2610           21214                                    11D
000312: 31,2611           47361                           VXSC     VXV
000313: 31,2612           03635                                    LAND
000314: 31,2613           02325                                    WM
000315: 31,2614           47045                           BVSU     RTB
000316: 31,2615           03635                                    LAND
000317: 31,2616           21727                                    NORMUNIT
000318: 31,2617           76561                           VXSC     VSL1
000319: 31,2620           02333                                    /LAND/
000320: 31,2621           17545                           STODL    LANDTEMP
000321: 31,2622           77776                           EXIT
000322:
000323: 31,2623           52155                           DXCH     MPAC
000324: 31,2624           21553                           DAS      TTF/8TMP                              #  NOW HAVE INCREMENTED TTF/8 IN TTF/8TMP
000325:
000326: 31,2625           03717                           TC       FASTCHNG


000328:
000329: 31,2626           00006                           EXTEND
000330: 31,2627           31553                           DCA      TTF/8TMP
000331: 31,2630           53643                           DXCH     TTF/8
000332:
000333: 31,2631           03663                           TC       TDISPSET
000334:
000335: 31,2632           37721                           CAF      PRIO31                                #  TEMPORARILY OVER-PRIO CHARIN
000336: 31,2633           05146                           TC       PRIOCHNG
000337:
000338: 31,2634           06042                           TC       INTPRET
000339: 31,2635           53375                           VLOAD    VAD                                   #  ADD IN CORRECTION FROM NOUN 69
000340: 31,2636           03545                                    LANDTEMP
000341: 31,2637           02635                                    DLAND
000342: 31,2640           03635                           STORE    LAND
000343: 31,2641           77646                           ABVAL                                          #  RECOMPUTE /LAND/
000344: 31,2642           02333                           STORE    /LAND/
000345: 31,2643           77776                           EXIT
000346:
000347: 31,2644           03717                           TC       FASTCHNG                              #  SINCE REDESIG MAY CHANGE LANDTEMP
000348:
000349: 31,2645           35014                           CAF      EBANK5
000350: 31,2646  E5,1634                                  EBANK=   DLAND
000351: 31,2646           54003                           TS       EBANK
000352: 31,2647           34755                           CAF      ZERO                                  #  ZERO N 69 REGISTERS
000353: 31,2650           55634                           TS       DLAND
000354: 31,2651           55635                           TS       DLAND      +1
000355: 31,2652           55636                           TS       DLAND      +2
000356: 31,2653           55637                           TS       DLAND      +3
000357: 31,2654           55640                           TS       DLAND      +4
000358: 31,2655           55641                           TS       DLAND      +5
000359: 31,2656           35016                           CAF      EBANK7
000360: 31,2657  E7,1666                                  EBANK=   TREDES
000361: 31,2657           54003                           TS       EBANK
000362:
000363: 31,2660           34736                           CAF      PRIO20
000364: 31,2661           05146                           TC       PRIOCHNG
000365:
000366: 31,2662           51346        BRSPOT2            INDEX    WCHPHASE
000367: 31,2663           12353                           TCF      PREGUIDE
000368:
000369:                                                                                                  #  ****************************************************************************************************************
000370:                                                                                                  #  LANDING SITE PERTURBATION EQUATIONS
000371:                                                                                                  #  ****************************************************************************************************************
000372:
000373: 31,2664           30102        REDESIG            CA       FLAGWRD6                              #  IS REDFLAG SET?
000374: 31,2665           74746                           MASK     REDFLBIT
000375: 31,2666           00006                           EXTEND
000376: 31,2667           12773                           BZF      RGVGCALC                              #  NO:  SKIP REDESIGNATION LOGIC
000377:
000378: 31,2670           31666                           CA       TREDES                                #  YES:  HAS TREDES REACHED ZERO?


000380: 31,2671           00006                           EXTEND
000381: 31,2672           12773                           BZF      RGVGCALC                              #  YES:  SKIP REDESIGNATION LOGIC
000382:
000383: 31,2673           00004                           INHINT
000384: 31,2674           31446                           CA       ELINCR1
000385: 31,2675           55554                           TS       ELINCR
000386: 31,2676           31445                           CA       AZINCR1
000387: 31,2677           55556                           TS       AZINCR
000388: 31,2700           03717                           TC       FASTCHNG
000389:
000390: 31,2701           34755                           CA       ZERO
000391: 31,2702           55446                           TS       ELINCR1
000392: 31,2703           55445                           TS       AZINCR1
000393: 31,2704           55555                           TS       ELINCR     +1
000394: 31,2705           55557                           TS       AZINCR     +1
000395:
000396: 31,2706           30120                           CA       FIXLOC                                #  SET PD TO 0
000397: 31,2707           54166                           TS       PUSHLOC
000398:
000399: 31,2710           06042                           TC       INTPRET
000400: 31,2711           52375                           VLOAD    VSU
000401: 31,2712           03635                                    LAND
000402: 31,2713           03521                                    R                                     #                  -      -
000403: 31,2714           41434                           RTB      PUSH                                  #  PUSH DOWN UNIT (LAND - R)
000404: 31,2715           21727                                    NORMUNIT
000405: 31,2716           76435                           VXV      VSL1
000406: 31,2717           02154                                    YNBPIP                                #                     -          -      -
000407: 31,2720           65361                           VXSC     PDDL                                  #  PUSH DOWN - ELINCR(YNB * UNIT(LAND - R))
000408: 31,2721           03555                                    ELINCR
000409: 31,2722           03557                                    AZINCR
000410: 31,2723           52361                           VXSC     VSU
000411: 31,2724           02154                                    YNBPIP
000412: 31,2725           41455                           VAD      PUSH                                  #  RESULTING VECTOR IS 1/2 REAL SIZE
000413:
000414:
000415: 31,2726           45345                           DLOAD    DSU                                   #  MAKE SURE REDESIGNATION IS NOT
000416: 31,2727           00001                                    0                                     #        TOO CLOSE TO THE HORIZON
000417: 31,2730           05660                                    DEPRCRIT
000418: 31,2731           71240                           BMN      DLOAD
000419: 31,2732           62735                                    REDES1
000420: 31,2733           05660                                    DEPRCRIT
000421: 31,2734           00001                           STORE    0
000422: 31,2735           45345        REDES1             DLOAD    DSU
000423: 31,2736           03635                                    LAND
000424: 31,2737           03521                                    R
000425: 31,2740           74271                           DDV      VXSC
000426: 31,2741           00001                                    0
000427: 31,2742           53455                           VAD      UNIT
000428: 31,2743           03521                                    R
000429: 31,2744           76561                           VXSC     VSL1
000430: 31,2745           02333                                    /LAND/


000432: 31,2746           03545                           STORE    LANDTEMP
000433: 31,2747           77776                           EXIT                                           #  LOOKANGL WILL BE COMPUTED AT RGVGCALC
000434:
000435: 31,2750           03717                           TC       FASTCHNG
000436:
000437: 31,2751           00006                           EXTEND
000438: 31,2752           31545                           DCA      LANDTEMP
000439: 31,2753           53635                           DXCH     LAND
000440: 31,2754           00006                           EXTEND
000441: 31,2755           31547                           DCA      LANDTEMP   +2
000442: 31,2756           53637                           DXCH     LAND       +2
000443: 31,2757           00006                           EXTEND
000444: 31,2760           31551                           DCA      LANDTEMP   +4
000445: 31,2761           53641                           DXCH     LAND       +4
000446:
000447: 31,2762           12773                           TCF      RGVGCALC
000448:
000449:                                                                                                  #  ****************************************************************************************************************
000450:                                                                                                  #  COMPUTE STATE IN GUIDANCE COORDINATES
000451:                                                                                                  #  ****************************************************************************************************************
000452:
000453:                                                                                                  #        RGVGCALC COMPUTATIONS ARE AS FOLLOWS:-
000454:                                                                                                  #        VELOCITY RELATIVE TO THE SURFACE:
000455:
000456:                                                                                                  #                -         -   -   -
000457:                                                                                                  #                ANGTERM = V + R * WM
000458:
000459:                                                                                                  #        STATE IN GUIDANCE COORDINATES:
000460:
000461:                                                                                                  #                -     *   -   -
000462:                                                                                                  #                RGU = CG (R - LAND)
000463:
000464:                                                                                                  #                -     *   -   -    -
000465:                                                                                                  #                VGU = CG (V - WM * R)
000466:
000467:                                                                                                  #        HORIZONTAL VELOCITY FOR DISPLAY:
000468:
000469:                                                                                                  #                VHORIZ = 8 ABVAL (0, VG , VG )
000470:                                                                                                  #                                       2    1
000471:
000472:                                                                                                  #        DEPRESSION ANGLE FOR DISPLAY:
000473:
000474:                                                                                                  #                                       -   -     -
000475:                                                                                                  #                LOOKANGL = ARCSIN(UNIT(R - LAND).XMBPIP)
000476:
000477: 31,2763           06042        CALCRGVG           TC       INTPRET                               #  IN IGNALG, COMPUTE V FROM INTEGRATION
000478: 31,2764           64375                           VLOAD    MXV                                   #        OUTPUT AND TRIM CORRECTION TERM
000479: 31,2765           00025                                    VATT1                                 #        COMPUTED LAST PASS AND LEFT IN UNFC/2
000480: 31,2766           01734                                    REFSMMAT


000482: 31,2767           53362                           VSR1     VAD
000483: 31,2770           03254                                    UNFC/2
000484: 31,2771           03527                           STORE    V
000485: 31,2772           77776                           EXIT
000486:
000487: 31,2773           06042        RGVGCALC           TC       INTPRET                               #  ENTER HERE TO RECOMPUTE RG AND VG
000488: 31,2774           47375                           VLOAD    VXV
000489: 31,2775           03521                                    R
000490: 31,2776           02325                                    WM
000491: 31,2777           70455                           VAD      VSR2                                  #  RESCALE TO UNITS OF 2(9) M/CS
000492: 31,3000           03527                                    V
000493: 31,3001           02265                           STORE    ANGTERM
000494: 31,3002           77721                           MXV
000495: 31,3003           02575                                    CG                                    #  NO SHIFT SINCE ANGTERM IS DOUBLE SIZED
000496: 31,3004           03627                           STORE    VGU
000497: 31,3005           55525                           PDDL     VDEF                                  #  FORM (0,VG ,VG ) IN UNITS OF 2(10) M/CS
000498: 31,3006           06524                                    ZEROVECS                              #            2   1
000499: 31,3007           52446                           ABVAL    SL3
000500: 31,3010           26263                           STOVL    VHORIZ                                #  VHORIZ FOR DISPLAY DURING P65.
000501: 31,3011           03521                                    R                                     #            -   -
000502: 31,3012           41451                           VSU      PUSH                                  #  PUSH DOWN R - LAND
000503: 31,3013           03635                                    LAND
000504: 31,3014           76521                           MXV      VSL1
000505: 31,3015           02575                                    CG
000506: 31,3016           02627                           STORE    RGU
000507: 31,3017           77646                           ABVAL
000508: 31,3020           26617                           STOVL    RANGEDSP
000509: 31,3021           50234                           RTB      DOT                                   #  NOW IN MPAC IS SINE(LOOKANGL)/4
000510: 31,3022           21727                                    NORMUNIT
000511: 31,3023           02146                                    XNBPIP
000512: 31,3024           77776                           EXIT
000513:
000514: 31,3025           30120                           CA       FIXLOC                                #  RESET PUSH DOWN POINTER
000515: 31,3026           54166                           TS       PUSHLOC
000516:
000517: 31,3027           30154                           CA       MPAC                                  #  COMPUTE LOOKANGL ITSELF
000518: 31,3030           60000                           DOUBLE
000519: 31,3031           04616                           TC       BANKCALL
000520: 31,3032           61657                           CADR     SPARCSIN   -1
000521: 31,3033           63733                           AD       1/2DEG
000522: 31,3034           00006                           EXTEND
000523: 31,3035           73732                           MP       180DEGS
000524: 31,3036           55667                           TS       LOOKANGL                              #  LOOKANGL FOR DISPLAY DURING P64
000525:
000526: 31,3037           51346        BRSPOT3            INDEX    WCHPHASE
000527: 31,3040           12357                           TCF      WHATGUID
000528:
000529:                                                                                                  #  ****************************************************************************************************************
000530:                                                                                                  #  TTF/8 COMPUTATION
000531:                                                                                                  #  ****************************************************************************************************************
000532:


000534: 31,3041           03656        TTF/8CL            TC       INTPRETX
000535: 31,3042           77743                           DLOAD*
000536: 31,3043           02431                                    JDG2TTF,1
000537: 31,3044           23571                           STODL*   TABLTTF    +6                         #  A(3) = 8 JDG  TO TABLTTF
000538: 31,3045           02427                                    ADG2TTF,1                             #              2
000539: 31,3046           17567                           STODL    TABLTTF    +4                         #  A(2) = 6 ADG  TO TABLTTF
000540: 31,3047           03633                                    VGU        +4                         #              2
000541: 31,3050           42605                           DMP      DAD*
000542: 31,3051           05656                                    3/4DP
000543: 31,3052           02425                                    VDG2TTF,1
000544: 31,3053           23565                           STODL*   TABLTTF    +2                         #  A(1) = (6 VGU  + 18 VDG )/8 TO TABLTTF
000545: 31,3054           02407                                    RDG        +4,1                       #               2         2
000546: 31,3055           41225                           DSU      DMP
000547: 31,3056           02633                                    RGU        +4
000548: 31,3057           05654                                    3/8DP
000549: 31,3060           03563                           STORE    TABLTTF                               #  A(0) = -24 (RGU  - RDG )/64 TO TABLTTF
000550: 31,3061           77776                           EXIT                                           #                 2      2
000551:
000552: 31,3062           34744                           CA       BIT8
000553: 31,3063           55572                           TS       TABLTTF    +10                        #  FRACTIONAL PRECISION FOR TTF TO TABLE
000554:
000555: 31,3064           00006                           EXTEND
000556: 31,3065           31643                           DCA      TTF/8
000557: 31,3066           52155                           DXCH     MPAC                                  #  LOADS TTF/8 (INITIAL GUESS) INTO MPAC
000558: 31,3067           34752                           CAF      TWO                                   #  DEGREE - ONE
000559: 31,3070           54001                           TS       L
000560: 31,3071           33725                           CAF      TABLTTFL
000561: 31,3072           03532                           TC       ROOTPSRS                              #  YIELDS TTF/8 IN MPAC
000562: 31,3073           51346                           INDEX    WCHPHASE
000563: 31,3074           12375                           TCF      WHATALM
000564:
000565: 31,3075           00006                           EXTEND                                         #  GOOD RETURN
000566: 31,3076           30155                           DCA      MPAC                                  #  FETCH TTF/8 KEEPING IT IN MPAC
000567: 31,3077           53643                           DXCH     TTF/8                                 #  CORRECTED TTF/8
000568:
000569: 31,3100           03663                           TC       TDISPSET
000570:
000571:                                                                                                  #                (CONTINUE TO QUADGUID)
000572:
000573:                                                                                                  #  ****************************************************************************************************************
000574:                                                                                                  #  MAIN GUIDANCE EQUATION
000575:                                                                                                  #  ****************************************************************************************************************
000576:
000577:                                                                                                  #        AS PUBLISHED:-
000578:
000579:                                                                                                  #                              -     -        -     -
000580:                                                                                                  #                -     -     6(VDG + VG)   12(RDG - RG)
000581:                                                                                                  #                ACG = ADG + ----------- + ------------
000582:                                                                                                  #                                TTF        (TTF)(TTF)
000583:


000585:                                                                                                  #        AS HERE PROGRAMMED:-
000586:                                                                                                  #                             -     -
000587:                                                                                                  #                      3 (1/4(RDG - RG)   -     - )
000588:                                                                                                  #                      - (------------- + VDG + VG)
000589:                                                                                                  #                -     4 (    TTF/8               )   -
000590:                                                                                                  #                ACG = ---------------------------- + ADG
000591:                                                                                                  #                                  TTF/8
000592:
000593: 31,3101           41642        QUADGUID           CS       TTF/8
000594: 31,3102           61426                           AD       LEADTIME                              #  LEADTIME IS A NEGATIVE NUMBER
000595: 31,3103           64733                           AD       POSMAX                                #  SAFEGUARD THE COMPUTATIONS THAT FOLLOW
000596: 31,3104           54001                           TS       L                                     #        BY FORCING -TTF+LEADTIME > OR = ZERO
000597: 31,3105           40001                           CS       L
000598: 31,3106           60001                           AD       L
000599: 31,3107           22007                           ZL
000600: 31,3110           00006                           EXTEND
000601: 31,3111           11642                           DV       TTF/8
000602: 31,3112           54130                           TS       BUF                                   #  - RATIO OF LAG-DIMINISHED TTF TO TTF
000603: 31,3113           00006                           EXTEND
000604: 31,3114           70000                           SQUARE
000605: 31,3115           54131                           TS       BUF        +1
000606: 31,3116           60130                           AD       BUF
000607: 31,3117           56131                           XCH      BUF        +1                         #  RATIO SQUARED - RATIO
000608: 31,3120           60131                           AD       BUF        +1
000609: 31,3121           54154                           TS       MPAC                                  #  COEFFICIENT FOR VGU TERM
000610: 31,3122           60131                           AD       BUF        +1
000611: 31,3123           50120                           INDEX    FIXLOC
000612: 31,3124           54032                           TS       26D                                   #  COEFFICIENT FOR RDG-RGU TERM
000613: 31,3125           60131                           AD       BUF        +1
000614: 31,3126           50120                           INDEX    FIXLOC
000615: 31,3127           54034                           TS       28D                                   #  COEFFICIENT FOR VDG TERM
000616: 31,3130           60130                           AD       BUF
000617: 31,3131           64733                           AD       POSMAX
000618: 31,3132           60131                           AD       BUF        +1
000619: 31,3133           60131                           AD       BUF        +1
000620: 31,3134           50120                           INDEX    FIXLOC
000621: 31,3135           54036                           TS       30D                                   #  COEFFICIENT FOR ADG TERM
000622:
000623: 31,3136           34755                           CAF      ZERO
000624: 31,3137           54163                           TS       MODE
000625:
000626: 31,3140           03656                           TC       INTPRETX
000627: 31,3141           65361                           VXSC     PDDL
000628: 31,3142           03627                                    VGU
000629: 31,3143           00035                                    28D
000630: 31,3144           62757                           VXSC*    PDVL*
000631: 31,3145           02411                                    VDG,1
000632: 31,3146           02403                                    RDG,1
000633: 31,3147           70251                           VSU      V/SC


000635: 31,3150           02627                                    RGU
000636: 31,3151           03643                                    TTF/8
000637: 31,3152           74342                           VSR2     VXSC
000638: 31,3153           00033                                    26D
000639: 31,3154           53255                           VAD      VAD
000640: 31,3155           74341                           V/SC     VXSC
000641: 31,3156           03643                                    TTF/8
000642: 31,3157           05656                                    3/4DP
000643: 31,3160           73725                           PDDL     VXSC*
000644: 31,3161           00037                                    30D
000645: 31,3162           02417                                    ADG,1
000646: 31,3163           77655                           VAD
000647: 31,3164           76505        AFCCALC1           VXM      VSL1                                  #  VERTGUID COMES HERE
000648: 31,3165           02575                                    CG
000649: 31,3166           70315                           PDVL     V/SC
000650: 31,3167           01236                                    GDT/2
000651: 31,3170           05652                                    GSCALE
000652: 31,3171           45445                           BVSU     STADR
000653: 31,3172           74523                           STORE    UNFC/2                                #  UNFC/2 NEED NOT BE UNITIZED
000654: 31,3173           77646                           ABVAL
000655: 31,3174           17464        AFCCALC2           STODL    /AFC/                                 #  MAGNITUDE OF AFC FOR THROTTLE
000656: 31,3175           03254                                    UNFC/2                                #  VERTICAL COMPONENT
000657: 31,3176           65316                           DSQ      PDDL
000658: 31,3177           03256                                    UNFC/2     +2                         #  OUT-OF-PLANE
000659: 31,3200           65316                           DSQ      PDDL
000660: 31,3201           05650                                    HIGHESTF
000661: 31,3202           63471                           DDV      DSQ
000662: 31,3203           01244                                    MASS                                  #                         2    2    2
000663: 31,3204           45225                           DSU      DSU                                   #  AMAXHORIZ = SQRT(ATOTAL - A  - A  )
000664: 31,3205           71244                           BPL      DLOAD                                 #                             1    0
000665: 31,3206           63210                                    AFCCALC3
000666: 31,3207           06524                                    ZEROVECS
000667: 31,3210           43366        AFCCALC3           SQRT     DAD
000668: 31,3211           03260                                    UNFC/2     +4
000669: 31,3212           44244                           BPL      BDSU
000670: 31,3213           63216                                    AFCCLEND
000671: 31,3214           03260                                    UNFC/2     +4
000672: 31,3215           03260                           STORE    UNFC/2     +4
000673: 31,3216           77776        AFCCLEND           EXIT
000674: 31,3217           03717                           TC       FASTCHNG
000675:
000676: 31,3220           31346                           CA       WCHPHASE                              #  PREPARE FOR PHASE SWITCHING LOGIC
000677: 31,3221           55621                           TS       WCHPHOLD
000678: 31,3222           25623                           INCR     FLPASS0                               #  INCREMENT PASS COUNTER
000679:
000680: 31,3223           51346        BRSPOT4            INDEX    WCHPHASE
000681: 31,3224           12363                           TCF      AFTRGUID
000682:
000683:                                                                                                  #  ****************************************************************************************************************
000684:                                                                                                  #  NEW PHASE NOW?


000686:                                                                                                  #  ****************************************************************************************************************
000687:
000688: 31,3225           51346        EXTLOGIC           INDEX    WCHPHASE                              #  IS TTF NEARER ZERO THAN CRITERION?
000689: 31,3226           31423                           CA       TENDBRAK
000690: 31,3227           61642                           AD       TTF/8
000691: 31,3230           00006                           EXTEND
000692: 31,3231           63240                           BZMF     CGCALC                                #  NO
000693:
000694: 31,3232           03717                           TC       FASTCHNG                              #  YES:  INCREMENT WCHPHASE, ZERO FLPASS0
000695:
000696: 31,3233           31621                           CA       WCHPHOLD
000697: 31,3234           64753                           AD       ONE
000698: 31,3235           55346                           TS       WCHPHASE
000699: 31,3236           34755                           CAF      ZERO
000700: 31,3237           55623                           TS       FLPASS0
000701:
000702:                                                                                                  #                (CONTINUE TO CGCALC)
000703:
000704:                                                                                                  #  ***************************************************************************************************************
000705:                                                                                                  #  ERECT GUIDANCE-STABLE MEMBER TRANSFORMATION MATRIX
000706:                                                                                                  #  ***************************************************************************************************************
000707:
000708: 31,3240           35014        CGCALC             CAF      EBANK5
000709: 31,3241           54003                           TS       EBANK
000710: 31,3242  E5,1435                                  EBANK=   TCGIBRAK
000711: 31,3242           00006                           EXTEND
000712: 31,3243           51346                           INDEX    WCHPHASE
000713: 31,3244           52400                           INDEX    TARGTDEX
000714: 31,3245           31435                           DCA      TCGFBRAK
000715: 31,3246           24006                           INCR     BBANK
000716: 31,3247           24006                           INCR     BBANK
000717: 31,3250  E7,1642                                  EBANK=   TTF/8
000718: 31,3250           61642                           AD       TTF/8
000719: 31,3251           56001                           XCH      L
000720: 31,3252           61642                           AD       TTF/8
000721: 31,3253           10000                           CCS      A
000722: 31,3254           10001                           CCS      L
000723: 31,3255           13306                           TCF      EXITSPOT
000724: 31,3256           13306                           TCF      EXITSPOT
000725: 31,3257           13260                           NOOP
000726:
000727: 31,3260           03656                           TC       INTPRETX
000728: 31,3261           53575                           VLOAD    UNIT
000729: 31,3262           03635                                    LAND
000730: 31,3263           16575                           STODL    CG
000731: 31,3264           03643                                    TTF/8
000732: 31,3265           74203                           DMP*     VXSC
000733: 31,3266           02433                                    GAINBRAK,1                            #  NUMERO MYSTERIOSO
000734: 31,3267           02265                                    ANGTERM
000735: 31,3270           77655                           VAD


000737: 31,3271           03635                                    LAND
000738: 31,3272           47051                           VSU      RTB
000739: 31,3273           03521                                    R
000740: 31,3274           21727                                    NORMUNIT
000741: 31,3275           47035                           VXV      RTB
000742: 31,3276           03635                                    LAND
000743: 31,3277           21727                                    NORMUNIT
000744: 31,3300           26603                           STOVL    CG         +6                         #  SECOND ROW
000745: 31,3301           02575                                    CG
000746: 31,3302           76435                           VXV      VSL1
000747: 31,3303           02603                                    CG         +6
000748: 31,3304           02611                           STORE    CG         +14
000749: 31,3305           77776                           EXIT
000750:


000753: 31,3306           51621        EXITSPOT           INDEX    WCHPHOLD
000754: 31,3307           12367                           TCF      WHATEXIT
000755:
000756:                                                                                                  #  ****************************************************************************************************************
000757:                                                                                                  #  ROUTINES FOR EXITING FROM LANDING GUIDANCE
000758:                                                                                                  #  ****************************************************************************************************************
000759:
000760:                                                                                                  #  1.       EXGSUB IS THE RETURN WHEN GUIDSUB IS CALLED BY THE IGNITION ALGORITHM.
000761:
000762:                                                                                                  #  2.       EXBRAK IN THE EXIT USED DURING THE BRAKING PHASE.   IN THIS CASE UNIT(R) IS THE WINDOW POINTING VECTOR.
000763:
000764:                                                                                                  #  3.       EXNORM IS THE EXIT USED AT OTHER TIMES DURING THE BURN.
000765:
000766:                                                                                                  #           (EXOVFLOW IS A SUBROUTINE OF EXBRAK AND EXNORM CALLED WHEN OVERFLOW OCCURRED ANYWHERE IN GUIDANCE.)
000767:
000768: 31,3310           06042        EXGSUB             TC       INTPRET                               #  COMPUTE TRIM VELOCITY CORRECTION TERM
000769: 31,3311           47175                           VLOAD    RTB
000770: 31,3312           03254                                    UNFC/2
000771: 31,3313           21727                                    NORMUNIT
000772: 31,3314           74361                           VXSC     VXSC
000773: 31,3315           03423                                    ZOOMTIME
000774: 31,3316           22001                                    TRIMACCL
000775: 31,3317           03254                           STORE    UNFC/2
000776: 31,3320           77776                           EXIT
000777:
000778: 31,3321           11647                           CCS      NGUIDSUB
000779: 31,3322           12406                           TCF      GUIDSUB
000780: 31,3323           11646                           CCS      NIGNLOOP
000781: 31,3324           13327                           TCF      +3
000782: 31,3325           05567                           TC       ALARM
000783: 31,3326           01412                           OCT      01412
000784:
000785: 31,3327           04635                 +3        TC       POSTJUMP
000786: 31,3330           65103                           CADR     DDUMCALC
000787:
000788: 31,3331           06042        EXBRAK             TC       INTPRET


000790: 31,3332           77775                           VLOAD
000791: 31,3333           03537                                    UNIT/R/
000792: 31,3334           03262                           STORE    UNWC/2
000793: 31,3335           77776                           EXIT
000794: 31,3336           13411                           TCF      STEER?
000795:


000798: 31,3337           06042        EXNORM             TC       INTPRET
000799: 31,3340           52375                           VLOAD    VSU
000800: 31,3341           03635                                    LAND
000801: 31,3342           03521                                    R
000802: 31,3343           77634                           RTB
000803: 31,3344           21727                                    NORMUNIT
000804: 31,3345           03262                           STORE    UNWC/2                                #  UNIT(LAND - R) IS TENTATIVE CHOICE
000805: 31,3346           50235                           VXV      DOT
000806: 31,3347           02146                                    XNBPIP
000807: 31,3350           02603                                    CG         +6
000808: 31,3351           77776                           EXIT                                           #  WITH PROJ IN MPAC 1/8 REAL SIZE
000809:
000810: 31,3352           40154                           CS       MPAC                                  #  GET COEFFICIENT FOR CG +14
000811: 31,3353           63734                           AD       PROJMAX
000812: 31,3354           64733                           AD       POSMAX
000813: 31,3355           54130                           TS       BUF
000814: 31,3356           40130                           CS       BUF
000815: 31,3357           26130                           ADS      BUF                                   #  RESULT IS 0 IF PROJMAX - PROJ NEGATIVE
000816:
000817: 31,3360           43735                           CS       PROJMIN                               #  GET COEFFICIENT FOR UNIT(LAND - R)
000818: 31,3361           60154                           AD       MPAC
000819: 31,3362           64733                           AD       POSMAX
000820: 31,3363           54131                           TS       BUF        +1
000821: 31,3364           40131                           CS       BUF        +1
000822: 31,3365           26131                           ADS      BUF        +1                         #  RESULT IS 0 IF PROJ - PROJMIN NEGATIVE
000823:
000824: 31,3366           34751                           CAF      FOUR
000825: 31,3367           76245        UNWCLOOP           MASK     SIX
000826: 31,3370           54002                           TS       Q
000827: 31,3371           35014                           CA       EBANK5
000828: 31,3372           54003                           TS       EBANK
000829: 31,3373  E5,1574                                  EBANK=   CG
000830: 31,3373           30130                           CA       BUF
000831: 31,3374           00006                           EXTEND
000832: 31,3375           50002                           INDEX    Q
000833: 31,3376           71610                           MP       CG         +14
000834: 31,3377           24006                           INCR     BBANK
000835: 31,3400  E6,1661                                  EBANK=   UNWC/2
000836: 31,3400           50002                           INDEX    Q
000837: 31,3401           53662                           DXCH     UNWC/2
000838: 31,3402           00006                           EXTEND
000839: 31,3403           70131                           MP       BUF        +1
000840: 31,3404           50002                           INDEX    Q
000841: 31,3405           21662                           DAS      UNWC/2


000843: 31,3406           10002                           CCS      Q
000844: 31,3407           13367                           TCF      UNWCLOOP
000845:
000846: 31,3410           24006                           INCR     BBANK
000847: 31,3411  E7,1612                                  EBANK=   PIF
000848:
000849: 31,3411           30076        STEER?             CA       FLAGWRD2                              #  IF STEERSW DOWN NO OUTPUTS
000850: 31,3412           74741                           MASK     STEERBIT
000851: 31,3413           00006                           EXTEND
000852: 31,3414           13422                           BZF      RATESTOP
000853:
000854: 31,3415           30121        EXVERT             CA       OVFIND                                #  IF OVERFLOW ANYWHERE IN GUIDANCE
000855: 31,3416           00006                           EXTEND                                         #        DON'T CALL THROTTLE OR FINDCDUW
000856: 31,3417           13432                           BZF      +13
000857:
000858: 31,3420           05567        EXOVFLOW           TC       ALARM                                 #  SOUND THE ALARM NON-ABORTIVELY.
000859: 31,3421           01410                           OCT      01410
000860:
000861: 31,3422           34737        RATESTOP           CAF      BIT13                                 #  ARE WE IN ATTITUDE-HOLD?
000862: 31,3423           00006                           EXTEND
000863: 31,3424           02031                           RAND     CHAN31
000864: 31,3425           00006                           EXTEND
000865: 31,3426           13437                           BZF      DISPEXIT                              #  YES
000866:
000867: 31,3427           04616                           TC       BANKCALL                              #  NO:  DO A STOPRATE
000868: 31,3430           40166                           CADR     STOPRATE
000869:
000870: 31,3431           13437                           TCF      DISPEXIT
000871:
000872: 31,3432           02144        GDUMP1             TC       THROTTLE
000873: 31,3433           06042                           TC       INTPRET
000874: 31,3434           77624                           CALL
000875: 31,3435           61076                                    FINDCDUW   -2
000876: 31,3436           77776                           EXIT
000877:
000878:                                                                                                  #                (CONTINUE TO DISPEXIT)
000879:
000880:                                                                                                  #  ****************************************************************************************************************
000881:                                                                                                  #  GUIDANCE LOOP DISPLAYS
000882:                                                                                                  #  ****************************************************************************************************************
000883:
000884: 31,3437           00006        DISPEXIT           EXTEND                                         #  KILL GROUP 3:  DISPLAYS WILL BE
000885: 31,3440           34755                           DCA      NEG0                                  #        RESTORED BY NEXT GUIDANCE CYCLE
000886: 31,3441           52756                           DXCH     -PHASE3
000887:
000888: 31,3442  31,3442               ENDLLJOB           =        DISPEXIT   +3
000889:
000890: 31,3442           40104                 +3        CS       FLAGWRD8                              #  IF FLUNDISP IS SET, NO DISPLAY THIS PASS


000892: 31,3443           74742                           MASK     FLUNDBIT
000893: 31,3444           00006                           EXTEND
000894: 31,3445           15155                           BZF      ENDOFJOB
000895:
000896: 31,3446           51621                           INDEX    WCHPHOLD
000897: 31,3447           12371                           TCF      WHATDISP
000898:
000899: 31,3450           33736        P63DISPS           CAF      V06N63
000900: 31,3451           04616        DISPCOMN           TC       BANKCALL
000901: 31,3452           20466                           CADR     REGODSP
000902:
000903: 31,3453           31666        P64DISPS           CA       TREDES                                #  HAS TREDES REACHED ZERO?
000904: 31,3454           00006                           EXTEND
000905: 31,3455           13476                           BZF      RED-OVER                              #  YES: CLEAR REDESIGNATION FLAG
000906:
000907: 31,3456           40102                           CS       FLAGWRD6                              #  NO:  IS REDFLAG SET?
000908: 31,3457           74746                           MASK     REDFLBIT
000909: 31,3460           00006                           EXTEND
000910: 31,3461           13500                           BZF      REDES-OK                              #  YES:  DO STATIC DISPLAY
000911:
000912: 31,3462           33737                           CAF      V06N64                                #  OTHERWISE USE FLASHING DISPLAY
000913: 31,3463           04616                           TC       BANKCALL
000914: 31,3464           20460                           CADR     REFLASH
000915: 31,3465           16001                           TCF      GOTOPOOH                              #  TERMINATE
000916: 31,3466           13470                           TCF      P64CEED                               #  PROCEED       PERMIT REDESIGNATIONS
000917: 31,3467           13453                           TCF      P64DISPS                              #  RECYCLE
000918:


000921: 31,3470           34755        P64CEED            CAF      ZERO
000922: 31,3471           55446                           TS       ELINCR1
000923: 31,3472           55445                           TS       AZINCR1
000924:
000925: 31,3473           05504                           TC       UPFLAG                                #  ENABLE REDESIGNATION LOGIC
000926: 31,3474           00143                           ADRES    REDFLAG
000927:
000928: 31,3475           15155                           TCF      ENDOFJOB
000929:
000930: 31,3476           05516        RED-OVER           TC       DOWNFLAG
000931: 31,3477           00143                           ADRES    REDFLAG
000932: 31,3500           33737        REDES-OK           CAF      V06N64
000933: 31,3501           13451                           TCF      DISPCOMN
000934:
000935:
000936: 31,3502           33740        VERTDISP           CAF      V06N60
000937: 31,3503           04616                           TC       BANKCALL
000938: 31,3504           20460                           CADR     REFLASH
000939: 31,3505           16001                           TCF      GOTOPOOH                              #  TERMINATE
000940: 31,3506           13510                           TCF      STOPFIRE                              #  PROCEED
000941: 31,3507           13510                           TCF      STOPFIRE                              #  V32E
000942:
000943: 31,3510           00004        STOPFIRE           INHINT


000945: 31,3511           04616                           TC       BANKCALL
000946: 31,3512           40154                           CADR     ZATTEROR
000947: 31,3513           15155                           TCF      ENDOFJOB
000948:
000949:                                                                                                  #  ****************************************************************************************************************
000950:                                                                                                  #  GUIDANCE FOR P65
000951:                                                                                                  #  ****************************************************************************************************************
000952:
000953: 31,3514           11647        VERTGUID           CCS      WCHVERT


000956: 31,3515           13524                           TCF      P67VERT                               #  POSITIVE NON-ZERO ---> P67
000957: 31,3516           13522                           TCF      P66VERT                               #  +0
000958:
000959:                                                                                                  #        THE P65 GUIDANCE EQUATION IS AS FOLLOWS:-
000960:
000961:                                                                                                  #                      -      -
000962:                                                                                                  #                      V2FG - VGU
000963:                                                                                                  #                ACG = ----------
000964:                                                                                                  #                        TAUVERT
000965:
000966: 31,3517           06042        P65VERT            TC       INTPRET
000967: 31,3520           77650                           GOTO
000968: 31,3521           65271                                    P65VERTA
000969:


000971:                                                                                                  #  ****************************************************************************************************************
000972:                                                                                                  #  GUIDANCE FOR P66
000973:                                                                                                  #  ****************************************************************************************************************
000974:
000975: 31,3522           04635        P66VERT            TC       POSTJUMP
000976: 31,3523           65277                           CADR     P66VERTA
000977:
000978: 31,3524           05353        P67VERT            TC       PHASCHNG                              #  TERMINATE GROUP 3
000979: 31,3525           00003                           OCT      00003
000980:


000983: 31,3526           06042                           TC       INTPRET
000984: 31,3527           52175                           VLOAD    GOTO
000985: 31,3530           03527                                    V
000986: 31,3531           65526                                    VHORCOMP
000987:
000988: 32,2000                                           SETLOC   P66LOC
000989: 32,2000                                           BANK
000990: 32,3264                                           COUNT*   $$/F2DPS
000991:
000992: 32,3264           37713        RODTASK            CAF      PRIO22
000993: 32,3265           05105                           TC       FINDVAC
000994: 32,3266  E7,1515                                  EBANK=   DVCNTR
000995: 32,3266           03304 64067                     2CADR    RODCOMP
000996:
000997: 32,3270           15261                           TCF      TASKOVER
000998:
000999: 32,3271           52375        P65VERTA           VLOAD    VSU
001000: 32,3272           02511                                    V2FG
001001: 32,3273           03627                                    VGU
001002: 32,3274           52141                           V/SC     GOTO
001003: 32,3275           02517                                    TAUVERT
001004: 32,3276           63164                                    AFCCALC1
001005:
001006: 32,3277           05353        P66VERTA           TC       PHASCHNG                              #  TERMINATE GROUP 3.
001007: 32,3300           00003                           OCT      00003
001008:
001009: 32,3301           34777                           CAF      1SEC
001010: 32,3302           05173                           TC       TWIDDLE
001011: 32,3303           03264                           ADRES    RODTASK
001012:


001014: 32,3304           00004        RODCOMP            INHINT
001015: 32,3305           34755                           CAF      ZERO
001016: 32,3306           57746                           XCH      RODCOUNT
001017: 32,3307           00006                           EXTEND
001018: 32,3310           71756                           MP       RODSCAL1
001019: 32,3311           21645                           DAS      VDGVERT                               #  UPDATE DESIRED ALTITUDE RATE.
001020:
001021: 32,3312           00006                           EXTEND                                         #  SET OLDPIPAX,Y,Z = PIPAX,Y,Z
001022: 32,3313           30040                           DCA      PIPAX
001023: 32,3314           53764                           DXCH     OLDPIPAX


001025: 32,3315           52071                           DXCH     RUPTREG1                              #  SET RUPTREG1,2,3 = OLDPIPAX,Y,Z
001026: 32,3316           30041                           CA       PIPAZ
001027: 32,3317           57765                           XCH      OLDPIPAZ
001028: 32,3320           56072                           XCH      RUPTREG3
001029:
001030: 32,3321           00006                           EXTEND                                         #  SHAPSHOT TIME OF PIPA READING.
001031: 32,3322           30025                           DCA      TIME2
001032: 32,3323           53762                           DXCH     THISTPIP
001033:
001034: 32,3324           31763                           CA       OLDPIPAX
001035: 32,3325           61157                           AD       PIPATMPX
001036: 32,3326           54154                           TS       MPAC                                  #  MPAC(X) = PIPAX + PIPATMPX
001037: 32,3327           31764                           CA       OLDPIPAY
001038: 32,3330           61160                           AD       PIPATMPY
001039: 32,3331           54157                           TS       MPAC       +3                         #  MPAC(Y) = PIPAY + PIPATMPY
001040: 32,3332           31765                           CA       OLDPIPAZ
001041: 32,3333           61161                           AD       PIPATMPZ
001042: 32,3334           54161                           TS       MPAC       +5                         #  MPAC(Z) = PIPAZ + PIPATMPZ
001043:
001044: 32,3335           41763                           CS       OLDPIPAX
001045: 32,3336           61253                           AD       TEMX
001046: 32,3337           60070                           AD       RUPTREG1
001047: 32,3340           55766                           TS       DELVROD
001048: 32,3341           41764                           CS       OLDPIPAY
001049: 32,3342           61254                           AD       TEMY
001050: 32,3343           60071                           AD       RUPTREG2
001051: 32,3344           55770                           TS       DELVROD    +2
001052: 32,3345           41765                           CS       OLDPIPAZ
001053: 32,3346           61255                           AD       TEMZ
001054: 32,3347           60072                           AD       RUPTREG3
001055: 32,3350           55772                           TS       DELVROD    +4
001056:
001057: 32,3351           34755                           CAF      ZERO
001058: 32,3352           54155                           TS       MPAC       +1                         #  ZERO LO-ORDER MPAC COMPONENTS
001059: 32,3353           54160                           TS       MPAC       +4
001060: 32,3354           54162                           TS       MPAC       +6
001061: 32,3355           55253                           TS       TEMX                                  #  ZERO TEMX, TEMY, AND TEMZ SO WE WILL
001062: 32,3356           55254                           TS       TEMY                                  #        KNOW WHEN READACCS CHANGES THEM.
001063: 32,3357           55255                           TS       TEMZ
001064: 32,3360           44753                           CS       ONE


001069: 32,3361           54163                           TS       MODE
001070: 32,3362           06042                           TC       INTPRET
001071: 32,3363           65361        ITRPNT1            VXSC     PDDL                                  #  SCALE MPAC TO M/CS *2(-7) AND PUSH    (6)
001072: 32,3364           26022                                    KPIP1
001073: 32,3365           03762                                    THISTPIP
001074: 32,3366           77625                           DSU
001075: 32,3367           01234                                    PIPTIME
001076: 32,3370           00037                           STORE    30D                                   #  30-31D CONTAINS TIME IN CS SINCE PIPTIME
001077: 32,3371           63271                           DDV      PDVL                                  #                                        (8)
001078: 32,3372           27112                                    4SEC(28)


001080: 32,3373           01236                                    GDT/2
001081: 32,3374           74251                           VSU      VXSC                                  #                                        (6)
001082: 32,3375           02621                                    VBIAS
001083: 32,3376           53352                           VSL2     VAD
001084: 32,3377           03527                                    V
001085: 32,3400           45455                           VAD      STADR                                 #                                        (0)
001086: 32,3401           53746                           STOVL    24D                                   #  STORE UPDATED VELOCITY IN 24-29D
001087: 32,3402           03521                                    R
001088: 32,3403           77656                           UNIT
001089: 32,3404           00017                           STORE    14D
001090: 32,3405           72441                           DOT      SL1
001091: 32,3406           00031                                    24D
001092: 32,3407           17474                           STODL    HDOTDISP                              #  UPDATE ALTITUDE RATE FOR NOUN 60
001093: 32,3410           00037                                    30D
001094: 32,3411           41261                           SL       DMP
001095: 32,3412           20214                                    11D
001096: 32,3413           03474                                    HDOTDISP
001097: 32,3414           45215                           DAD      DSU
001098: 32,3415           00045                                    36D
001099: 32,3416           02333                                    /LAND/
001100: 32,3417           17775                           STODL    HCALC1                                #  UPDATE ALTITUDE FOR NOUN 60
001101: 32,3420           03474                                    HDOTDISP
001102: 32,3421           56221                           BDSU     DDV
001103: 32,3422           03645                                    VDGVERT
001104: 32,3423           02541                                    TAUROD
001105: 32,3424           51515                           PDVL     ABVAL                                 #                                (2)
001106: 32,3425           01236                                    GDT/2
001107: 32,3426           60471                           DDV      SR2
001108: 32,3427           05652                                    GSCALE
001109: 32,3430           00025                           STORE    20D
001110: 32,3431           77615                           DAD                                            #                                (0)
001111: 32,3432           45115                           PDVL     CALL                                  #                                (2)
001112: 32,3433           06522                                    UNITX
001113: 32,3434           47663                                    CDU*NBSM
001114: 32,3435           77641                           DOT
001115: 32,3436           00017                                    14D
001116: 32,3437           00027                           STORE    22D
001117: 32,3440           45465                           BDDV     STADR                                 #                                (0)
001118: 32,3441           50313                           STOVL    /AFC/
001119: 32,3442           03767                                    DELVROD
001120: 32,3443           53361                           VXSC     VAD
001121: 32,3444           26022                                    KPIP1
001122: 32,3445           02621                                    VBIAS
001123: 32,3446           65246                           ABVAL    PDDL                                  #                                (2)
001124: 32,3447           03762                                    THISTPIP
001125: 32,3450           65225                           DSU      PDDL                                  #                                (4)
001126: 32,3451           03760                                    LASTTPIP
001127: 32,3452           03762                                    THISTPIP
001128: 32,3453           17760                           STODL    LASTTPIP                              #                                (2)
001129: 32,3454           55271                           DDV      BDDV                                  #                                (0)


001131: 32,3455           25544                                    SHFTFACT
001132: 32,3456           41325                           PDDL     DMP                                   #                                (2)
001133: 32,3457           03611                                    FWEIGHT
001134: 32,3460           25543                                    BIT1H
001135: 32,3461           56271                           DDV      DDV
001136: 32,3462           01244                                    MASS
001137: 32,3463           22006                                    SCALEFAC
001138: 32,3464           65215                           DAD      PDDL                                  #                                (4)
001139: 32,3465           00001                                    0D
001140: 32,3466           00025                                    20D
001141: 32,3467           45271                           DDV      DSU                                   #                                (2)
001142: 32,3470           00027                                    22D
001143: 32,3471           43205                           DMP      DAD


001145: 32,3472           02543                                    LAG/TAU
001146: 32,3473           03464                                    /AFC/
001147: 32,3474           56325                           PDDL     DDV                                   #                                (4)
001148: 32,3475           02547                                    MAXFORCE
001149: 32,3476           01244                                    MASS
001150: 32,3477           56325                           PDDL     DDV                                   #                                (6)
001151: 32,3500           02545                                    MINFORCE
001152: 32,3501           01244                                    MASS
001153: 32,3502           44206                           PUSH     BDSU                                  #                                (8)
001154: 32,3503           00003                                    2D
001155: 32,3504           71240                           BMN      DLOAD                                 #                                (6)
001156: 32,3505           65513                                    AFCSPOT
001157: 32,3506           41545                           DLOAD    PUSH                                  #                                (6)
001158: 32,3507           51021                           BDSU     BPL
001159: 32,3510           00003                                    2D
001160: 32,3511           65513                                    AFCSPOT
001161: 32,3512           77745                           DLOAD                                          #                                (4)
001162: 32,3513           77745        AFCSPOT            DLOAD                                          #                     (2),(4),OR (6)
001163: 32,3514           77601                           SETPD                                          #                                (2)
001164: 32,3515           00003                                    2D
001165: 32,3516           17464                           STODL    /AFC/                                 #                                (0)
001166: 32,3517           77776        ITRPNT2            EXIT
001167: 32,3520           52155                           DXCH     MPAC                                  #  MPAC = MEASURED ACCELERATION.
001168: 32,3521           04616                           TC       BANKCALL
001169: 32,3522           62147                           CADR     THROTTLE   +3
001170: 32,3523           06042                           TC       INTPRET
001171: 32,3524           77775                           VLOAD                                          #  PICK UP UPDATED VELOCITY VECTOR.
001172: 32,3525           00031                                    24D
001173: 32,3526           53352        VHORCOMP           VSL2     VAD
001174: 32,3527           03734                                    DELVS
001175: 32,3530           63342                           VSR2     PDVL                                  #                                (6)
001176: 32,3531           03521                                    R
001177: 32,3532           74256                           UNIT     VXSC
001178: 32,3533           03474                                    HDOTDISP
001179: 32,3534           51372                           VSL1     BVSU                                  #                                (0)
001180: 32,3535           77646                           ABVAL
001181: 32,3536           02263                           STORE    VHORIZ                                #  UPDATE HORIZONTAL VELOCITY FOR NOUN 60


001183: 32,3537           77776                           EXIT
001184: 32,3540           04616                           TC       BANKCALL                              #  PUT UP V06N60 DISPLAY BUT AVOID PHASCHNG
001185: 32,3541           63442                           CADR     DISPEXIT   +3
001186:
001187: 32,3542           00001        BIT1H              OCT      00001
001188: 32,3543           00000 04000  SHFTFACT           2DEC     1          B-17
001189: 32,3545           00000 05075  BIASFACT           2DEC     655.36     B-26
001190:
001191:                                                                                                  #  ****************************************************************************************************************
001192:                                                                                                  #  REDESIGNATOR TRAP
001193:                                                                                                  #  ****************************************************************************************************************
001194:
001195: 11,2302                                           BANK     11
001196: 11,2000                                           SETLOC   F2DPS*11
001197: 11,2000                                           BANK
001198:
001199: 11,2302                                           COUNT*   $$/F2DPS
001200:
001201: 11,2302           56016        PITFALL            XCH      BANKRUPT
001202: 11,2303           00006                           EXTEND
001203: 11,2304           22012                           QXCH     QRUPT
001204:
001205: 11,2305           05321                           TC       CHECKMM                               #  IF NOT IN P64, NO REASON TO CONTINUE
001206: 11,2306           00100                           DEC      64         B-14
001207: 11,2307           15270                           TCF      RESUME
001208:
001209: 11,2310           00006                           EXTEND
001210: 11,2311           00031                           READ     CHAN31
001211: 11,2312           40000                           COM
001212: 11,2313           72401                           MASK     ALL4BITS
001213: 11,2314           55444                           TS       ELVIRA
001214: 11,2315           34752                           CAF      TWO
001215: 11,2316           55443                           TS       ZERLINA
001216: 11,2317           34756                           CAF      FIVE
001217: 11,2320           05173                           TC       TWIDDLE
001218: 11,2321           02326                           ADRES    REDESMON
001219: 11,2322           15270                           TCF      RESUME
001220:
001221:                                                                                                  #  REDESIGNATION MONITOR (INITIATED BY PITFALL)
001222:
001223: 11,2323           55443        PREMON1            TS       ZERLINA
001224: 11,2324           34757        PREMON2            CAF      SEVEN
001225: 11,2325           05224                           TC       VARDELAY
001226: 11,2326           00006        REDESMON           EXTEND
001227: 11,2327           00031                           READ     31
001228: 11,2330           40000                           COM
001229: 11,2331           72401                           MASK     ALL4BITS


001231: 11,2332           57444                           XCH      ELVIRA
001232: 11,2333           54001                           TS       L
001233: 11,2334           11444                           CCS      ELVIRA                                #  DO ANY BITS APPEAR THIS PASS?
001234: 11,2335           12324                           TCF      PREMON2                               #  Y:    CONTINUE MONITOR
001235:
001236: 11,2336           10001                           CCS      L                                     #  N:    ANY LAST PASS?
001237: 11,2337           12347                           TCF      COUNT'EM                              #        Y:      COUNT 'EM, RESET RUPT, TERMINATE
001238: 11,2340           11443                           CCS      ZERLINA                               #        N:      HAS ZERLINA REACHED ZERO YET?
001239: 11,2341           12323                           TCF      PREMON1                               #                N:      DIMINISH ZERLINA, CONTINUE
001240: 11,2342           06022        RESETRPT           TC       C13STALL                              #                Y:      RESET RUPT, TERMINATE
001241: 11,2343           34740                           CAF      BIT12
001242: 11,2344           00006                           EXTEND
001243: 11,2345           05013                           WOR      CHAN13
001244: 11,2346           15261                           TCF      TASKOVER
001245:
001246: 11,2347           34737        COUNT'EM           CAF      BIT13                                 #  ARE WE IN ATTITUDE-HOLD?
001247: 11,2350           00006                           EXTEND
001248: 11,2351           02031                           RAND     CHAN31
001249: 11,2352           00006                           EXTEND
001250: 11,2353           12342                           BZF      RESETRPT                              #  YES: SKIP REDESIGNATION LOGIC.
001251:
001252: 11,2354           30001                           CA       L                                     #  NO
001253: 11,2355           74746                           MASK     -AZBIT
001254: 11,2356           10000                           CCS      A
001255: 11,2357           42402        -AZ                CS       AZEACH
001256: 11,2360           27445                           ADS      AZINCR1
001257: 11,2361           30001                           CA       L
001258: 11,2362           74747                           MASK     +AZBIT
001259: 11,2363           10000                           CCS      A
001260: 11,2364           32402        +AZ                CA       AZEACH
001261: 11,2365           27445                           ADS      AZINCR1
001262: 11,2366           30001                           CA       L
001263: 11,2367           74753                           MASK     -ELBIT
001264: 11,2370           10000                           CCS      A
001265: 11,2371           42403        -EL                CS       ELEACH
001266: 11,2372           27446                           ADS      ELINCR1
001267: 11,2373           30001                           CA       L
001268: 11,2374           74752                           MASK     +ELBIT
001269: 11,2375           10000                           CCS      A
001270: 11,2376           32403        +EL                CA       ELEACH
001271: 11,2377           27446                           ADS      ELINCR1
001272: 11,2400           12342                           TCF      RESETRPT
001273:
001274:                                                                                                  #  THESE EQUIVALENCIES ARE BASED ON GSOP CHAPTER 4, REVISION 16 OF P64LM
001275:
001276: 11,2401     4752               +ELBIT             =        BIT2                                  #  -PITCH


001278: 11,2401     4753               -ELBIT             =        BIT1                                  #  +PITCH
001279: 11,2401     4747               +AZBIT             =        BIT5
001280: 11,2401     4746               -AZBIT             =        BIT6
001281:
001282: 11,2401           00063        ALL4BITS           OCT      00063
001283: 11,2402           01074        AZEACH             DEC      .03491                                #  2 DEGREES
001284: 11,2403           00217        ELEACH             DEC      .00873                                #  1/2 DEGREE
001285:
001286:                                                                                                  #  ****************************************************************************************************************
001287:                                                                                                  #  R.O.D. TRAP
001288:                                                                                                  #  ************************************************************************
001289:
001290: 23,2000                                           SETLOC   RODTRAP
001291: 23,2000                                           BANK
001292: 23,2455                                           COUNT*   $$/F2DPS                              #  ****************************************
001293:
001294: 23,2455           74745        DESCBITS           MASK     BIT7                                  #  COME HERE FROM MARKRUPT CODING WITH BIT
001295: 23,2456           10000                           CCS      A                                     #        7 OR 6 OF CHANNEL 16 IN A: BIT 7 MEANS
001296: 23,2457           44752                           CS       TWO                                   #        - RATE INCREMENT, BIT 6 + INCREMENT
001297: 23,2460           64753                           AD       ONE
001298: 23,2461           27746                           ADS      RODCOUNT
001299: 23,2462           15270                           TCF      RESUME                                #  TRAP IS RESET WHEN SWITCH IS RELEASED
001300:
001301: 31,3532                                           BANK     31
001302: 31,2000                                           SETLOC   F2DPS*31
001303: 31,2000                                           BANK
001304:
001305: 31,3532                                           COUNT*   $$/F2DPS
001306:
001307:                                                                                                  #  ****************************************************************************************************************
001308:                                                                                                  #  DOUBLE PRECISION ROOT FINDER SUBROUTINE (BY ALLAN KLUMPP)
001309:                                                                                                  #  ****************************************************************************************************************
001310:
001311:                                                                                                  #                                                       N        N-1
001312:                                                                                                  #        ROOTPSRS FINDS ONE ROOT OF THE POWER SERIES A X  + A   X    + ... + A X + A
001313:                                                                                                  #                                                     N      N-1              1     0
001314:
001315:                                                                                                  #  USING NEWTON'S METHOD STARTING WITH AN INITIAL GUESS FOR THE ROOT.  THE ENTERING DATA MUST BE AS FOLLOWS:


001317:                                                                                                  #        A       SP      LOC-3           ADRES FOR REFERENCING PWR COF TABL
001318:                                                                                                  #        L       SP      N-1             N IS THE DEGREE OF THE POWER SERIES
001319:                                                                                                  #        MPAC    DP      X               INITIAL GUESS FOR ROOT
001320:
001321:                                                                                                  #        LOC-2N  DP      A(0)
001322:                                                                                                  #                ...
001323:                                                                                                  #        LOC     DP      A(N)
001324:                                                                                                  #        LOC+2   SP      PRECROOT         PREC RQD OF ROOT (AS FRACT OF 1ST GUESS)
001325:
001326:                                                                                                  #  THE DP RESULT IS LEFT IN MPAC UPON EXIT, AND A SP COUNT OF THE ITERATIONS TO CONVERGENCE IS LEFT IN MPAC+2.
001327:                                                                                                  #  RETURN IS NORMALLY TO LOC(TC ROOTPSRS)+3.  IF ROOTPSRS FAILS TO CONVERGE IN 8 PASSES, RETURN IS TO LOC+1 AND
001328:                                                                                                  #  OUTPUTS ARE NOT TO BE TRUSTED.
001329:
001330:                                                                                                  #  PRECAUTION:  ROOTPSRS MAKES NO CHECKS FOR OVERFLOW OR FOR IMPROPER USAGE.  IMPROPER USAGE COULD
001331:                                                                                                  #  PRECLUDE CONVERGENCE OR REQUIRE EXCESSIVE ITERATIONS.  AS A SPECIFIC EXAMPLE, ROOTPSRS FORMS A DERIVATIVE
001332:                                                                                                  #  COEFFICIENT TABLE BY MULTIPLYING EACH A(I) BY I, WHERE I RANGES FROM 1 TO N.  IF AN ELEMENT OF THE DERIVATIVE
001333:                                                                                                  #  COEFFICIENT TABLE = 1 OR >1 IN MAGNITUDE, ONLY THE EXCESS IS RETAINED.  ROOTPSRS MAY CONVERGE ON THE CORRECT
001334:                                                                                                  #  ROOT NONETHELESS, BUT IT MAY TAKE AN EXCESSIVE NUMBER OF ITERATIONS.  THEREFORE THE USER SHOULD RECOGNIZE:
001335:                                                                                                  #        1.  USER'S RESPONSIBILITY TO ASSURE THAT I X A(I) < 1 IN MAGNITUDE FOR ALL I.
001336:                                                                                                  #        2.  USER'S RESPONSIBILITY TO ASSURE OVERFLOW WILL NOT OCCUR IN EVALUATING EITHER THE RESIDUAL OR THE DERIVATIVE
001337:                                                                                                  #            POWER SERIES.  THIS OVERFLOW WOULD BE PRODUCED BY SUBROUTINE POWRSERS, CALLED BY ROOTPSRS, AND MIGHT NOT
001338:                                                                                                  #            PRECLUDE EVENTUAL CONVERGENCE.
001339:                                                                                                  #        3.  AT PRESENT, ERASABLE LOCATIONS ARE RESERVED ONLY FOR N UP TO 5.  AN N IN EXCESS OF 5 WILL PRODUCE CHAOS.
001340:                                                                                                  #            ALL ERASABLES USED BY ROOTPSRS ARE UNSWITCHED LOCATED IN THE REGION FROM MPAC-33 OCT TO MPAC+7.
001341:                                                                                                  #        4.  THE ITERATION COUNT RETURNED IN MPAC+2 MAY BE USED TO DETECT ABNORMAL PERFORMANCE.
001342:
001343:                                                                                                  #  STORE ENTERING DATA, INITLIZE ERASABLES
001344: 31,3532           00006        ROOTPSRS           EXTEND


001346: 31,3533           22132                           QXCH     RETROOT                               #  RETURN ADRES
001347: 31,3534           54117                           TS       PWRPTR                                #  PWR TABL POINTER
001348: 31,3535           52160                           DXCH     MPAC       +3                         #  PWR TABL ADRES, N-1
001349: 31,3536           33655                           CA       DERTABLL
001350: 31,3537           54141                           TS       DERPTR                                #  DER TABL POINTER
001351: 31,3540           54161                           TS       MPAC       +5                         #  DER TABL ADRES
001352: 31,3541           10160                           CCS      MPAC       +4                         #  NO POWER SERIES OF DEGREE 1 OR LESS
001353: 31,3542           54162                           TS       MPAC       +6                         #  N-2
001354: 31,3543           34755                           CA       ZERO                                  #  MODE USED AS ITERATION COUNTER.  MODE
001355: 31,3544           54163                           TS       MODE                                  #  MUST BE POS SO ABS WON'T COMP MPAC+3 ETC
001356:
001357:                                                                                                  #  COMPUTE CRITERION TO STOP ITERATING
001358: 31,3545           00006                           EXTEND
001359: 31,3546           30155                           DCA      MPAC                                  #  FETCH ROOT GUESS, KEEPING IT IN MPAC
001360: 31,3547           52127                           DXCH     ROOTPS                                #  AND IN ROOTPS
001361: 31,3550           50157                           INDEX    MPAC       +3                         #  PWR TABL ADRES


001363: 31,3551           30005                           CA       5                                     #  PRECROOT TO A
001364: 31,3552           07312                           TC       SHORTMP                               #  YIELDS DP PRODUCT IN MPAC
001365: 31,3553           04713                           TC       USPRCADR
001366: 31,3554           01226                           CADR     ABS                                   #  YIELDS ABVAL OF CRITERION ON DX IN MPAC
001367: 31,3555           52155                           DXCH     MPAC
001368: 31,3556           52125                           DXCH     DXCRIT                                #  CRITERION
001369:
001370:                                                                                                  #  SET UP DER COF TABL
001371: 31,3557           00006                           EXTEND
001372: 31,3560           50117                           INDEX    PWRPTR
001373: 31,3561           30004                           DCA      3
001374: 31,3562           52155                           DXCH     MPAC                                  #  A(N) TO MPAC
001375:
001376: 31,3563           30160                           CA       MPAC       +4                         #  N-1 TO A
001377:
001378: 31,3564           54140        DERCLOOP           TS       PWRCNT                                #  LOOP COUNTER
001379: 31,3565           64753                           AD       ONE
001380: 31,3566           07321                           TC       DMPNSUB                               #  YIELDS DERCOF = I X A(I) IN MPAC
001381: 31,3567           00006                           EXTEND
001382: 31,3570           50117                           INDEX    PWRPTR
001383: 31,3571           30002                           DCA      1
001384: 31,3572           52155                           DXCH     MPAC                                  #  A(I-1) TO MPAC, FETCHING DERCOF
001385: 31,3573           50141                           INDEX    DERPTR
001386: 31,3574           52004                           DXCH     3                                     #  DERCOF TO DER TABL
001387: 31,3575           44752                           CS       TWO
001388: 31,3576           26117                           ADS      PWRPTR                                #  DECREMENT PWR POINTER
001389: 31,3577           44752                           CS       TWO
001390: 31,3600           26141                           ADS      DERPTR                                #  DECREMENT DER POINTER
001391: 31,3601           10140                           CCS      PWRCNT
001392: 31,3602           13564                           TCF      DERCLOOP
001393:
001394:                                                                                                  #  CONVERGE ON ROOT
001395: 31,3603           00006        ROOTLOOP           EXTEND
001396: 31,3604           30127                           DCA      ROOTPS                                #  FETCH CURRENT ROOT
001397: 31,3605           52155                           DXCH     MPAC                                  #  LEAVE IN MPAC
001398: 31,3606           00006                           EXTEND
001399: 31,3607           30162                           DCA      MPAC       +5                         #  LOAD A, L WITH DER TABL ADRES, N-2
001400: 31,3610           07220                           TC       POWRSERS                              #  YIELDS DERIVATIVE IN MPAC
001401:
001402: 31,3611           00006                           EXTEND
001403: 31,3612           30127                           DCA      ROOTPS
001404: 31,3613           52155                           DXCH     MPAC                                  #  CURRENT ROOT TO MPAC, FETCHING DERIVTIVE
001405: 31,3614           52131                           DXCH     BUF                                   #  LEAVE DERIVATIVE IN BUF AS DIVISOR
001406: 31,3615           00006                           EXTEND
001407: 31,3616           30160                           DCA      MPAC       +3                         #  LOAD A, L WITH PWR TABL ADRES, N-1
001408: 31,3617           07220                           TC       POWRSERS                              #  YIELDS RESIDUAL IN MPAC
001409:
001410: 31,3620           04713                           TC       USPRCADR


001412: 31,3621           00353                           CADR     DDV/BDDV                              #  YIELDS -DX IN MPAC
001413:
001414: 31,3622           00006                           EXTEND
001415: 31,3623           40155                           DCS      MPAC                                  #  FETCH DX, LEAVING -DX IN MPAC
001416: 31,3624           20127                           DAS      ROOTPS                                #  CORRECTED ROOT NOW IN ROOTPS
001417:
001418: 31,3625           04713                           TC       USPRCADR
001419: 31,3626           01226                           CADR     ABS                                   #  YIELDS ABS(DX) IN MPAC
001420: 31,3627           00006                           EXTEND
001421: 31,3630           40125                           DCS      DXCRIT
001422: 31,3631           20155                           DAS      MPAC                                  #  ABS(DX)-ABS(DXCRIT) IN MPAC
001423:
001424: 31,3632           30163                           CA       MODE
001425: 31,3633           74750                           MASK     BIT4                                  #  KLUMPP SAYS GIVE UP AFTER EIGHT PASSES
001426: 31,3634           10000                           CCS      A
001427: 31,3635           00132        BADROOT            TC       RETROOT
001428:
001429: 31,3636           24163                           INCR     MODE                                  #  INCREMENT ITERATION COUNTER
001430: 31,3637           10154                           CCS      MPAC                                  #  TEST HI ORDER DX
001431: 31,3640           13603                           TCF      ROOTLOOP
001432: 31,3641           13643                           TCF      TESTLODX
001433: 31,3642           13647                           TCF      ROOTSTOR
001434: 31,3643           10155        TESTLODX           CCS      MPAC       +1                         #  TEST LO ORDER DX
001435: 31,3644           13603                           TCF      ROOTLOOP
001436: 31,3645           13647                           TCF      ROOTSTOR
001437: 31,3646           13647                           TCF      ROOTSTOR
001438: 31,3647           52127        ROOTSTOR           DXCH     ROOTPS
001439: 31,3650           52155                           DXCH     MPAC
001440: 31,3651           30163                           CA       MODE
001441: 31,3652           54156                           TS       MPAC       +2                         #  STORE SP ITERATION COUNT IN MPAC+2
001442: 31,3653           50132                           INDEX    RETROOT
001443: 31,3654           10002                           TCF      2
001444:
001445: 31,3655           00147        DERTABLL           ADRES    DERCOFN    -3
001446:
001447:                                                                                                  #  ****************************************************************************************************************
001448:                                                                                                  #  TRASHY LITTLE SUBROUTINES
001449:                                                                                                  #  ****************************************************************************************************************
001450:
001451: 31,3656           51346        INTPRETX           INDEX    WCHPHASE                              #  SET X1 ON THE WAY TO THE INTERPRETER
001452: 31,3657           42400                           CS       TARGTDEX
001453: 31,3660           50120                           INDEX    FIXLOC
001454: 31,3661           54046                           TS       X1
001455: 31,3662           16042                           TCF      INTPRET
001456:
001457: 31,3663           31642        TDISPSET           CA       TTF/8
001458: 31,3664           00006                           EXTEND
001459: 31,3665           74750                           MP       TSCALINV


001461: 31,3666           53476                           DXCH     TTFDISP
001462:
001463: 31,3667           35014                           CA       EBANK5                                #  TREDES BECOMES ZERO TWO PASSES
001464: 31,3670           54003                           TS       EBANK                                 #        BEFORE TCGFAPPR IS REACHED
001465: 31,3671  E5,1470                                  EBANK=   TCGFAPPR
001466: 31,3671           31470                           CA       TCGFAPPR
001467: 31,3672           24006                           INCR     BBANK
001468: 31,3673           24006                           INCR     BBANK
001469: 31,3674  E7,1642                                  EBANK=   TTF/8
001470: 31,3674           61642                           AD       TTF/8
001471: 31,3675           00006                           EXTEND
001472: 31,3676           73731                           MP       TREDESCL
001473: 31,3677           63726                           AD       -DEC103
001474: 31,3700           64735                           AD       NEGMAX
001475: 31,3701           54001                           TS       L
001476: 31,3702           40001                           CS       L
001477: 31,3703           60001                           AD       L
001478: 31,3704           63730                           AD       +DEC99
001479: 31,3705           64733                           AD       POSMAX
001480: 31,3706           55666                           TS       TREDES
001481: 31,3707           41666                           CS       TREDES
001482: 31,3710           27666                           ADS      TREDES
001483: 31,3711           00002                           TC       Q
001484:
001485: 31,3712           05642        1406POO            TC       POODOO
001486: 31,3713           21406                           OCT      21406
001487: 31,3714           05567        1406ALM            TC       ALARM
001488: 31,3715           01406                           OCT      01406
001489: 31,3716           13422                           TCF      RATESTOP
001490:
001491:                                                                                                  #  ****************************************************************************************************************
001492:                                                                                                  #  SPECIALIZED "PHASCHNG" SUBROUTINE
001493:                                                                                                  #  ****************************************************************************************************************
001494:
001495: 31,3717  E3,1440                                  EBANK=   PHSNAME2
001496: 31,3717           35007        FASTCHNG           CA       EBANK3                                #  SPECIALIZED 'PHASCHNG' ROUTINE
001497: 31,3720           56003                           XCH      EBANK
001498: 31,3721           52002                           DXCH     L
001499: 31,3722           55442                           TS       PHSNAME3
001500: 31,3723           22003                           LXCH     EBANK
001501: 31,3724  E7,1621                                  EBANK=   E2DPS
001502: 31,3724           00000                           TC       A
001503:
001504:                                                                                                  #  ****************************************************************************************************************
001505:                                                                                                  #  PARAMETER TABLE INDIRECT ADDRESSES
001506:                                                                                                  #  ****************************************************************************************************************
001507:
001508: 31,3725  E5,1402               RDG                =        RBRFG
001509: 31,3725  E5,1410               VDG                =        VBRFG


001511: 31,3725  E5,1416               ADG                =        ABRFG
001512: 31,3725  E5,1424               VDG2TTF            =        VBRFG*
001513: 31,3725  E5,1426               ADG2TTF            =        ABRFG*
001514: 31,3725  E5,1430               JDG2TTF            =        JBRFG*
001515:
001516:                                                                                                  #  ****************************************************************************************************************
001517:                                                                                                  #  LUNAR LANDING CONSTANTS
001518:                                                                                                  #  ***************************************************************************************************************
001519:
001520: 31,3725           01565        TABLTTFL           ADRES    TABLTTF    +3                         #  ADDRESS FOR REFERENCING TTF TABLE
001521: 31,3726     4740               TTFSCALE           =        BIT12
001522: 31,3726     4750               TSCALINV           =        BIT4
001523: 31,3726           77630        -DEC103            DEC      -103       B-14
001524: 31,3727           00155        P64DB              OCT      00155                                 #  0.3 DEGREES SCALED AT CDU SCALING
001525: 31,3730           00143        +DEC99             DEC      +99        B-14
001526: 31,3731           75340        TREDESCL           DEC      -.08
001527: 31,3732           00264        180DEGS            DEC      +180       B-14
001528: 31,3733           00056        1/2DEG             DEC      +.00278
001529: 31,3734           01542        PROJMAX            DEC      .42262     B-3                        #  SIN(25')/8 TO COMPARE WITH PROJ
001530: 31,3735           01022        PROJMIN            DEC      .25882     B-3                        #  SIN(15')/8 TO COMPARE WITH PROJ
001531: 31,3736           01477        V06N63             VN       0663                                  #  P63
001532: 31,3737           01500        V06N64             VN       0664                                  #  P64
001533: 31,3740           01474        V06N60             VN       0660                                  #  P65, P66, P67
001534:
001535: 22,3647                                           BANK     22
001536: 22,2000                                           SETLOC   LANDCNST


001538: 22,2000                                           BANK
001539: 22,3647                                           COUNT*   $$/F2DPS
001540:
001541: 22,3647           00021 14161  HIGHESTF           2DEC     4.34546769 B-12
001542: 22,3651           01440 00000  GSCALE             2DEC     100        B-11
001543: 22,3653           14000 00000  3/8DP              2DEC     .375
001544: 22,3655           30000 00000  3/4DP              2DEC     .750
001545: 22,3657           77534 45074  DEPRCRIT           2DEC     -.02       B-1
001546:
001547:                                                                                                  #  ****************************************************************************************************************
001548:                                                                                                  #  ****************************************************************************************************************

End of include-file LUNAR_LANDING_GUIDANCE_EQUATIONS.agc.  Parent file is MAIN.agc


