
Source Code


000002:                                                                                                  ## Copyright:   Public domain.
000003:                                                                                                  ## Filename:    MEASUREMENT_INCORPORATION.agc
000004:                                                                                                  ## Purpose:     A section of Luminary revision 116.
000005:                                                                                                  ##              It is part of the source code for the Lunar Module's (LM)
000006:                                                                                                  ##              Apollo Guidance Computer (AGC) for Apollo 12.
000007:                                                                                                  ##              This file is intended to be a faithful transcription, except
000008:                                                                                                  ##              that the code format has been changed to conform to the
000009:                                                                                                  ##              requirements of the yaYUL assembler rather than the
000010:                                                                                                  ##              original YUL assembler.
000011:                                                                                                  ## Reference:   pp. 1141-1150
000012:                                                                                                  ## Assembler:   yaYUL
000013:                                                                                                  ## Contact:     Ron Burkey <info@sandroid.org>.
000014:                                                                                                  ## Website:     www.ibiblio.org/apollo/index.html
000015:                                                                                                  ## Mod history: 2017-01-22 MAS  Created from Luminary 99.
000016:                                                                                                  ##              2017-01-24 RRB  Updated for Luminary 116.
000017:                                                                                                  ##              2017-03-13 RSB  Proofed comment text via 3-way diff vs
000018:                                                                                                  ##                              Luminary 99 and 131.
000019:                                                                                                  ##              2021-05-30 ABS  ZEROD -> ZEROO
000020:


000022:                                                                                                  #   INCORP1--PERFORMS THE SIX DIMENSIONAL STATE VECTOR DEVIATION FOR POSITI
000023:                                                                                                  #  ON AND VELOCITY OR THE NINE DIMENSIONAL DEVIATION OF POSITION,VELOCITY,A
000024:                                                                                                  #  ND RADAR OR LANDMARK BIAS.THE OUTPUT OF THE BVECTOR ROUTINE ALONG WITH T
000025:                                                                                                  #  HE ERROR TRANSITION MATRIX(W) ARE USED AS INPUT TO THE ROUTINE.THE DEVIA
000026:                                                                                                  #  TION IS OBTAINED BY COMPUTING AN ESTIMATED TRACKING MEASUREMENT FROM THE
000027:                                                                                                  #  CURRENT STATE VECTOR AND COMPARING IT WITH AN ACTUAL TRACKING MEASUREMEN
000028:                                                                                                  #  T AND APPLYING A STATISTICAL WEIGHTING VECTOR.
000029:                                                                                                  #  INPUT
000030:                                                                                                  #     DMENFLG = 0 6DIMENSIONAL BVECTOR   1=9DIMENSIONAL
000031:                                                                                                  #            W = ERROR TRANSITION MATRIX 6X6 OR 9X9
000032:                                                                                                  #     VARIANCE = VARIANCE (SCALAR)
000033:                                                                                                  #       DELTAQ = MEASURED DEVIATION (SCALAR)
000034:                                                                                                  #      BVECTOR = 6 OR 9 DIMENSIONAL BVECTOR
000035:
000036:                                                                                                  #  OUTPUT
000037:                                                                                                  #       DELTAX = STATE VECTOR DEVIATIONS 6 OR 9 DIMENSIONAL
000038:                                                                                                  #           ZI = VECTOR USED FOR THE INCORPORATION 6 OR 9 DIMENSIONAL
000039:                                                                                                  #      GAMMA = SCALAR
000040:                                                                                                  #      OMEGA = OMEGA WEIGHTING VECTOR 6 OR 9 DIMENTIONAL
000041:                                                                                                  #  CALLING SEQUENCE
000042:                                                                                                  #     L  CALL INCORP1
000043:
000044:                                                                                                  #  NORMAL EXIT
000045:
000046:                                                                                                  #    L+1 OF CALLING SEQUENCE
000047:
000048: 37,3652                                           BANK     37
000049: 23,2000                                           SETLOC   MEASINC
000050: 23,2000                                           BANK
000051:
000052: 23,2533                                           COUNT*   $$/INCOR
000053:
000054: 23,2533  E5,1400                                  EBANK=   W
000055:
000056: 23,2533           77620        INCORP1            STQ
000057: 23,2534           02772                                    EGRESS
000058: 23,2535           66370                           AXT,1    SSP
000059: 23,2536           00066                                    54D
000060: 23,2537           00051                                    S1
000061: 23,2540           00022                                    18D                                   #  IX1 = 54  S1= 18
000062: 23,2541           66374                           AXT,2    SSP
000063: 23,2542           00022                                    18D
000064: 23,2543           00052                                    S2
000065: 23,2544           00006                                    6                                     #  IX2 = 18  S2=6
000066: 23,2545           63775        Z123               VLOAD    MXV*
000067: 23,2546           03525                                    BVECTOR                               #  BVECTOR (0)
000068: 23,2547           02467                                    W          +54D,1
000069: 23,2550           12665                           STORE    ZI         +18D,2
000070: 23,2551           77775                           VLOAD
000071: 23,2552           03533                                    BVECTOR    +6                         #  BVECTOR (1)


000073: 23,2553           52717                           MXV*     VAD*
000074: 23,2554           02555                                    W          +108D,1
000075: 23,2555           75112                                    ZI         +18D,2
000076: 23,2556           12665                           STORE    ZI         +18D,2
000077: 23,2557           77775                           VLOAD
000078: 23,2560           03541                                    BVECTOR    +12D                       #  BVECTOR (2)
000079: 23,2561           52717                           MXV*     VAD*
000080: 23,2562           02643                                    W          +162D,1
000081: 23,2563           75112                                    ZI         +18D,2                     #  B(0)*W+B(1)*(W+54)+B(2)*(W+108) FIRST PAS
000082: 23,2564           12665                           STORE    ZI         +18D,2                     #  ZI THEN Z2 THEN Z3
000083: 23,2565           77700                           TIX,1
000084: 23,2566           46567                                    INCOR1
000085: 23,2567           43104        INCOR1             TIX,2    BON
000086: 23,2570           46545                                    Z123                                  #  LOOP FOR Z1,Z2,Z3
000087: 23,2571           02706                                    DMENFLG
000088: 23,2572           46576                                    INCOR1A
000089: 23,2573           77775                           VLOAD
000090: 23,2574           06524                                    ZEROVECS
000091: 23,2575           02657                           STORE    ZI         +12D
000092: 23,2576           77201        INCOR1A            SETPD    VLOAD
000093: 23,2577           00001                                    0
000094: 23,2600           02643                                    ZI
000095: 23,2601           47036                           VSQ      RTB
000096: 23,2602           21634                                    TPMODE
000097: 23,2603           47515                           PDVL     VSQ
000098: 23,2604           02651                                    ZI         +6
000099: 23,2605           76234                           RTB      TAD
000100: 23,2606           21634                                    TPMODE
000101: 23,2607           47515                           PDVL     VSQ
000102: 23,2610           02657                                    ZI         +12D
000103: 23,2611           76234                           RTB      TAD
000104: 23,2612           21634                                    TPMODE
000105: 23,2613           77171                           TAD      AXT,2
000106: 23,2614           02707                                    VARIANCE
000107: 23,2615           00000                                    0
000108: 23,2616           02665                           STORE    TRIPA                                 #  ZI*2 + Z2*2 + Z3*2 + VARIANCE
000109: 23,2617           40151                           TLOAD    BOV
000110: 23,2620           02707                                    VARIANCE                              #  CLEAR OVFIND
000111: 23,2621           46622                                    +1
000112: 23,2622           02670                           STORE    TEMPVAR                               #  TEMP STORAGE FOR VARIANCE
000113: 23,2623           77654                           BZE
000114: 23,2624           46633                                    INCOR1C
000115: 23,2625           40112        INCOR1B            SL2      BOV
000116: 23,2626           46633                                    INCOR1C
000117: 23,2627           02670                           STORE    TEMPVAR
000118: 23,2630           52114                           INCR,2   GOTO
000119: 23,2631           00001                           DEC      1          B-14
000120: 23,2632           46625                                    INCOR1B
000121: 23,2633           61551        INCOR1C            TLOAD    ROUND
000122: 23,2634           02665                                    TRIPA


000124: 23,2635           75405                           DMP      SQRT
000125: 23,2636           02670                                    TEMPVAR
000126: 23,2637           76257                           SL*      TAD
000127: 23,2640           57576                                    0,2
000128: 23,2641           02665                                    TRIPA
000129: 23,2642           63101                           NORM     INCR,2
000130: 23,2643           00050                                    X2
000131: 23,2644           77775                           DEC      -2         B-14
000132: 23,2645           77134                           SXA,2    AXT,2
000133: 23,2646           02103                                    NORMGAM                               #  NORMALIZATION COUNT -2 FOR GAMMA
000134: 23,2647           00242                                    162D
000135: 23,2650           40265                           BDDV     SETPD
000136: 23,2651           06514                                    DP1/4TH
000137: 23,2652           00001                                    0
000138: 23,2653           03500                           STORE    GAMMA
000139: 23,2654           60351                           TLOAD    NORM
000140: 23,2655           02665                                    TRIPA
000141: 23,2656           00047                                    X1
000142: 23,2657           65345                           DLOAD    PDDL                                  #  PD 0-1 = NORM (A)
000143: 23,2660           00155                                    MPAC
000144: 23,2661           03547                                    DELTAQ
000145: 23,2662           77701                           NORM
000146: 23,2663           00051                                    S1
000147: 23,2664           70460                           XSU,1    SR1
000148: 23,2665           00050                                    S1
000149: 23,2666           41471                           DDV      PUSH                                  #  PD 0-1 = DELTAQ/A
000150: 23,2667           77650                           GOTO
000151: 23,2670           45711                                    NEWZCOMP
000152: 23,2671           77731                 -3        SSP
000153: 23,2672           00052                                    S2
000154: 23,2673           00066                                    54D
000155: 23,2674           60775        INCOR2             VLOAD    VXM*                                  #  COMPUTE OMEGA1,2,3
000156: 23,2675           02643                                    ZI
000157: 23,2676           75134                                    W          +162D,2
000158: 23,2677           77206                           PUSH     VLOAD
000159: 23,2700           02651                                    ZI         +6
000160: 23,2701           53303                           VXM*     VAD
000161: 23,2702           75112                                    W          +180D,2
000162: 23,2703           77206                           PUSH     VLOAD
000163: 23,2704           02657                                    ZI         +12D
000164: 23,2705           53303                           VXM*     VAD
000165: 23,2706           75070                                    W          +198D,2
000166: 23,2707           61006                           PUSH     TIX,2                                 #  PD 2-7=OMEGA1, 8-13=OMEGA2, 14-19=OMEGA3
000167: 23,2710           46674                                    INCOR2
000168: 23,2711           45575                           VLOAD    STADR
000169: 23,2712           74260                           STORE    OMEGA      +12D
000170: 23,2713           45575                           VLOAD    STADR
000171: 23,2714           74266                           STORE    OMEGA      +6
000172: 23,2715           45575                           VLOAD    STADR
000173: 23,2716           74274                           STORE    OMEGA


000175: 23,2717           77214                           BON      VLOAD
000176: 23,2720           02706                                    DMENFLG
000177: 23,2721           46724                                    INCOR2AB
000178: 23,2722           06524                                    ZEROVECS
000179: 23,2723           03517                           STORE    OMEGA      +12D
000180: 23,2724           66374        INCOR2AB           AXT,2    SSP
000181: 23,2725           00022                                    18D
000182: 23,2726           00052                                    S2
000183: 23,2727           00006                                    6
000184: 23,2730           77773        INCOR3             VLOAD*
000185: 23,2731           74252                                    OMEGA      +18D,2
000186: 23,2732           53761                           VXSC     VSL*
000187: 23,2733           00001                                    0                                     #  DELTAQ/A
000188: 23,2734           20201                                    0,1
000189: 23,2735           12707                           STORE    DELTAX     +18D,2
000190: 23,2736           77304                           TIX,2    VLOAD
000191: 23,2737           46730                                    INCOR3
000192: 23,2740           02673                                    DELTAX     +6
000193: 23,2741           77732                           VSL3
000194: 23,2742           02673                           STORE    DELTAX     +6
000195: 23,2743           77650                           GOTO
000196: 23,2744           02772                                    EGRESS
000197:


000199:                                                                                                  #   INCORP2 -INCORPORATES THE COMPUTED STATE VECTOR DEVIATIONS INTO THE
000200:                                                                                                  #  ESTIMATED STATE VECTOR. THE STATE VECTOR UPDATED MAY BE FOR EITHER THE
000201:                                                                                                  #  LEM OR THE CSM. DETERMINED BY FLAG VEHUPFLG. (ZERO = LEM) (1 = CSM)
000202:
000203:                                                                                                  #  INPUT
000204:                                                                                                  #     PERMANENT STATE VECTOR FOR EITHER THE LEM OR CSM
000205:                                                                                                  #     VEHUPFLG = UPDATE VEHICLE 0=LEM  1=CSM
000206:                                                                                                  #     W =        ERROR TRANSITION MATRIX
000207:                                                                                                  #     DELTAX  =  COMPUTED STATE VECTOR DEVIATIONS
000208:                                                                                                  #     DMENFLG =  SIZE OF W MATRIX (ZERO=6X6) (1=9X9)
000209:                                                                                                  #     GAMMA   =  SCALAR FOR INCORPORATION
000210:                                                                                                  #     ZI      =  VECTOR USED IN INCORPORATION
000211:                                                                                                  #     OMEGA   =  WEIGHTING VECTOR
000212:
000213:                                                                                                  #  OUTPUT
000214:                                                                                                  #     UPDATED PERMANENT STATE VECTOR
000215:
000216:                                                                                                  #  CALLING SEQUENCE
000217:                                                                                                  #     L  CALL INCORP2
000218:
000219:                                                                                                  #  NORMAL EXIT
000220:                                                                                                  #     L+1 OF CALLING SEQUENCE
000221:
000222:
000223: 23,2000                                           SETLOC   MEASINC1
000224: 23,2000                                           BANK
000225:
000226: 23,2745                                           COUNT*   $$/INCOR
000227:
000228: 23,2745           45020        INCORP2            STQ      CALL
000229: 23,2746           02772                                    EGRESS
000230: 23,2747           27412                                    INTSTALL
000231: 23,2750           74375                           VLOAD    VXSC                                  #  CALC. GAMMA * OMEGA1,2,3
000232: 23,2751           03503                                    OMEGA
000233: 23,2752           03500                                    GAMMA
000234: 23,2753           26713                           STOVL    OMEGAM1
000235: 23,2754           03511                                    OMEGA      +6
000236: 23,2755           77761                           VXSC
000237: 23,2756           03500                                    GAMMA
000238: 23,2757           26721                           STOVL    OMEGAM2
000239: 23,2760           03517                                    OMEGA      +12D
000240: 23,2761           77761                           VXSC
000241: 23,2762           03500                                    GAMMA
000242: 23,2763           02727                           STORE    OMEGAM3
000243: 23,2764           77776                           EXIT
000244: 23,2765           33246                           CAF      54DD                                  #  INITIAL IX 1 SETTING FOR W MATRIX
000245: 23,2766           55315                           TS       WIXA
000246: 23,2767           55316                           TS       WIXB
000247: 23,2770           34755                           CAF      ZERO
000248: 23,2771           55317                           TS       ZIXA                                  #  INITIAL IX 2 SETTING FOR Z COMPONENT
000249: 23,2772           55320                           TS       ZIXB
000250: 23,2773           05353        FAZA               TC       PHASCHNG


000252: 23,2774           04022                           OCT      04022
000253: 23,2775           05504                           TC       UPFLAG
000254: 23,2776           00236                           ADRES    REINTFLG
000255: 23,2777           31316        FAZA1              CA       WIXB                                  #  START FIRST PHASE OF INCORP2
000256: 23,3000           55315                           TS       WIXA                                  #   TO UPDATE 6 OR 9 DIM. W MATRIX IN TEMP
000257: 23,3001           31320                           CA       ZIXB
000258: 23,3002           55317                           TS       ZIXA
000259: 23,3003           06042                           TC       INTPRET
000260: 23,3004           73150                           LXA,1    LXA,2
000261: 23,3005           01315                                    WIXA
000262: 23,3006           01317                                    ZIXA
000263: 23,3007           70731                           SSP      DLOAD*
000264: 23,3010           00051                                    S1
000265: 23,3011           00006                                    6
000266: 23,3012           75134                                    ZI,2
000267: 23,3013           60276                           DCOMP    NORM                                  #  CALC UPPER 3X9 PARTITION OF W MATRIX
000268: 23,3014           00052                                    S2
000269: 23,3015           65161                           VXSC     XCHX,2
000270: 23,3016           02713                                    OMEGAM1
000271: 23,3017           00051                                    S2
000272: 23,3020           57144                           LXC,2    XAD,2
000273: 23,3021           00047                                    X2
000274: 23,3022           02103                                    NORMGAM
000275: 23,3023           65057                           VSL*     XCHX,2
000276: 23,3024           57576                                    0,2
000277: 23,3025           00051                                    S2
000278: 23,3026           77653                           VAD*
000279: 23,3027           02467                                    W          +54D,1
000280: 23,3030           02735                           STORE    HOLDW
000281: 23,3031           57543                           DLOAD*   DCOMP                                 #  CALC MIDDLE 3X9 PARTITION OF W MATRIX
000282: 23,3032           75134                                    ZI,2
000283: 23,3033           74301                           NORM     VXSC
000284: 23,3034           00052                                    S2
000285: 23,3035           02721                                    OMEGAM2
000286: 23,3036           71124                           XCHX,2   LXC,2
000287: 23,3037           00051                                    S2
000288: 23,3040           00047                                    X2
000289: 23,3041           53674                           XAD,2    VSL*
000290: 23,3042           02103                                    NORMGAM
000291: 23,3043           57576                                    0,2
000292: 23,3044           52724                           XCHX,2   VAD*
000293: 23,3045           00051                                    S2
000294: 23,3046           02555                                    W          +108D,1
000295: 23,3047           02743                           STORE    HOLDW      +6
000296: 23,3050           77614                           BOFF
000297: 23,3051           02746                                    DMENFLG                               #  BRANCH IF 6 DIMENSIONAL
000298: 23,3052           47072                                    FAZB
000299: 23,3053           57543                           DLOAD*   DCOMP                                 #  CALC LOWER 3X9 PARTITION OF W MATRIX
000300: 23,3054           75134                                    ZI,2
000301: 23,3055           74301                           NORM     VXSC


000303: 23,3056           00052                                    S2
000304: 23,3057           02727                                    OMEGAM3
000305: 23,3060           71124                           XCHX,2   LXC,2
000306: 23,3061           00051                                    S2
000307: 23,3062           00047                                    X2
000308: 23,3063           53674                           XAD,2    VSL*
000309: 23,3064           02103                                    NORMGAM
000310: 23,3065           57576                                    0,2
000311: 23,3066           52724                           XCHX,2   VAD*
000312: 23,3067           00051                                    S2
000313: 23,3070           02643                                    W          +162D,1
000314: 23,3071           02751                           STORE    HOLDW      +12D
000315: 23,3072           77624        FAZB               CALL
000316: 23,3073           11226                                    GRP2PC
000317: 23,3074           77776                           EXIT
000318: 23,3075           31315        FAZB1              CA       WIXA                                  #  START 2ND PHASE OF INCORP2 TO TRANSFER
000319: 23,3076           63247                           AD       6DD                                   #      TEMP REG TO PERM W MATRIX
000320: 23,3077           55316                           TS       WIXB
000321: 23,3100           31317                           CA       ZIXA
000322: 23,3101           67751                           AD       MINUS2
000323: 23,3102           55320                           TS       ZIXB
000324: 23,3103           06042                           TC       INTPRET
000325: 23,3104           66350                           LXA,1    SSP
000326: 23,3105           01315                                    WIXA
000327: 23,3106           00051                                    S1
000328: 23,3107           00006                                    6
000329: 23,3110           77775                           VLOAD
000330: 23,3111           02735                                    HOLDW
000331: 23,3112           06467                           STORE    W          +54D,1
000332: 23,3113           77775                           VLOAD
000333: 23,3114           02743                                    HOLDW      +6
000334: 23,3115           06555                           STORE    W          +108D,1
000335: 23,3116           77214                           BOFF     VLOAD
000336: 23,3117           02746                                    DMENFLG
000337: 23,3120           47130                                    FAZB5
000338: 23,3121           02751                                    HOLDW      +12D
000339: 23,3122           06643                           STORE    W          +162D,1
000340: 23,3123           52100        FAZB2              TIX,1    GOTO
000341: 23,3124           47126                                    +2
000342: 23,3125           47136                                    FAZC                                  #  DONE WITH W MATRIX. UPDATE STATE VECTOR
000343: 23,3126           77634                           RTB
000344: 23,3127           46773                                    FAZA
000345: 23,3130           43335        FAZB5              SLOAD    DAD
000346: 23,3131           01321                                    ZIXB
000347: 23,3132           07251                                    12DD
000348: 23,3133           52030                           BHIZ     GOTO
000349: 23,3134           47136                                    FAZC
000350: 23,3135           47123                                    FAZB2
000351: 23,3136           77624        FAZC               CALL
000352: 23,3137           11226                                    GRP2PC


000354: 23,3140           53375                           VLOAD    VAD                                   #  START 3RD PHASE OF INCORP2
000355: 23,3141           01701                                    X789                                  #  7TH,8TH,9TH,COMPONENT OF STATE VECTOR
000356: 23,3142           02701                                    DELTAX     +12D                       #  INCORPORATION FOR X789
000357: 23,3143           03472                           STORE    TX789
000358: 23,3144           47014                           BON      RTB
000359: 23,3145           00707                                    VEHUPFLG
000360: 23,3146           47236                                    DOCSM
000361: 23,3147           26771                                    MOVEPLEM
000362: 23,3150           77004        FAZAB              BOVB     AXT,2
000363: 23,3151           57753                                    TCDANZIG
000364: 23,3152           00000                                    0
000365: 23,3153           77014                           BOFF     AXT,2
000366: 23,3154           04344                                    MOONTHIS
000367: 23,3155           47157                                    +2
000368: 23,3156           00002                                    2
000369: 23,3157           53775                           VLOAD    VSR*
000370: 23,3160           02665                                    DELTAX                                #  B27 IF MOON ORBIT, B29 IF EARTH
000371: 23,3161           57205                                    0          -7,2
000372: 23,3162           40055                           VAD      BOV
000373: 23,3163           01521                                    TDELTAV
000374: 23,3164           47176                                    FAZAB1
000375: 23,3165           25521                           STOVL    TDELTAV
000376: 23,3166           02673                                    DELTAX     +6                         #  B5 IF MOON ORBIT, B7 IF EARTH
000377: 23,3167           53257                           VSR*     VAD
000378: 23,3170           57202                                    0          -4,2
000379: 23,3171           01527                                    TNUV
000380: 23,3172           77600                           BOV
000381: 23,3173           47202                                    FAZAB2
000382: 23,3174           35527                           STCALL   TNUV
000383: 23,3175           47211                                    FAZAB3
000384: 23,3176           53375        FAZAB1             VLOAD    VAD
000385: 23,3177           01535                                    RCV
000386: 23,3200           02665                                    DELTAX
000387: 23,3201           01535                           STORE    RCV
000388: 23,3202           53375        FAZAB2             VLOAD    VAD
000389: 23,3203           01543                                    VCV
000390: 23,3204           02673                                    DELTAX     +6
000391: 23,3205           01543                           STORE    VCV
000392: 23,3206           45134                           SXA,2    CALL
000393: 23,3207           02030                                    PBODY
000394: 23,3210           27673                                    RECTIFY
000395: 23,3211           77624        FAZAB3             CALL
000396: 23,3212           11226                                    GRP2PC
000397: 23,3213           47014                           BON      RTB
000398: 23,3214           00707                                    VEHUPFLG
000399: 23,3215           47241                                    DOCSM1
000400: 23,3216           26750                                    MOVEALEM
000401: 23,3217           77624                           CALL
000402: 23,3220           26070                                    SVDWN2                                #  STORE DOWNLINK STATE VECTOR
000403: 23,3221           77624        FAZAB4             CALL


000405: 23,3222           11226                                    GRP2PC                                #  PHASE CHANGE
000406: 23,3223           77214                           BOFF     VLOAD
000407: 23,3224           02746                                    DMENFLG
000408: 23,3225           47230                                    FAZAB5                                #  6 DIMENSIONAL
000409: 23,3226           03472                                    TX789                                 #  9 DIMENSIONAL
000410: 23,3227           01701                           STORE    X789
000411: 23,3230           66150        FAZAB5             LXA,1    SXA,1
000412: 23,3231           02772                                    EGRESS
000413: 23,3232           00052                                    QPRET
000414: 23,3233           77776                           EXIT
000415: 23,3234           04635                           TC       POSTJUMP                              #  EXIT
000416: 23,3235           27423                           CADR     INTWAKE
000417: 23,3236           52034        DOCSM              RTB      GOTO
000418: 23,3237           26724                                    MOVEPCSM
000419: 23,3240           47150                                    FAZAB
000420: 23,3241           45034        DOCSM1             RTB      CALL
000421: 23,3242           26675                                    MOVEACSM
000422: 23,3243           26114                                    SVDWN1                                #  STORE DOWNLINK STATE VECTOR
000423: 23,3244           77650                           GOTO
000424: 23,3245           47221                                    FAZAB4
000425: 23,3246  23,2523               ZEROO              =        ZEROVECS
000426: 23,3246           00066        54DD               DEC      54         B-14
000427: 23,3247           77771        6DD                DEC      -6         B-14
000428: 23,3250           00014        12DD               DEC      12         B-14
000429: 22,2000                                           SETLOC   RENDEZ
000430: 22,2000                                           BANK
000431: 22,3711                                           COUNT*   $$/INCOR
000432:
000433: 22,3711           51575        NEWZCOMP           VLOAD    ABVAL
000434: 22,3712           02643                                    ZI
000435: 22,3713           24045                           STOVL    NORMZI
000436: 22,3714           02651                                    ZI         +6
000437: 22,3715           41446                           ABVAL    PUSH
000438: 22,3716           50025                           DSU      BMN
000439: 22,3717           00045                                    NORMZI
000440: 22,3720           45723                                    +3
000441: 22,3721           45545                           DLOAD    STADR
000442: 22,3722           77732                           STORE    NORMZI
000443: 22,3723           51575                           VLOAD    ABVAL
000444: 22,3724           02657                                    ZI         +12D
000445: 22,3725           45206                           PUSH     DSU
000446: 22,3726           00045                                    NORMZI
000447: 22,3727           71240                           BMN      DLOAD
000448: 22,3730           45733                                    +3
000449: 22,3731           77626                           STADR
000450: 22,3732           77732                           STORE    NORMZI                                #  LARGEST ABVAL
000451: 22,3733           66145                           DLOAD    SXA,1
000452: 22,3734           00045                                    NORMZI
000453: 22,3735           00044                                    NORMZI                                #  SAVE X1
000454: 22,3736           62101                           NORM     INCR,1


000456: 22,3737           00047                                    X1
000457: 22,3740           00002                           DEC      2          B-14
000458: 22,3741           53775                           VLOAD    VSL*
000459: 22,3742           02643                                    ZI
000460: 22,3743           20201                                    0,1
000461: 22,3744           26643                           STOVL    ZI
000462: 22,3745           02651                                    ZI         +6
000463: 22,3746           77657                           VSL*
000464: 22,3747           20201                                    0,1
000465: 22,3750           26651                           STOVL    ZI         +6
000466: 22,3751           02657                                    ZI         +12D
000467: 22,3752           66057                           VSL*     SXA,1
000468: 22,3753           20201                                    0,1
000469: 22,3754           00045                                    NORMZI     +1                         #  SAVE SHIFT
000470: 22,3755           02657                           STORE    ZI         +12D
000471: 22,3756           54150                           LXA,1    XSU,1
000472: 22,3757           02103                                    NORMGAM
000473: 22,3760           00045                                    NORMZI     +1
000474: 22,3761           77660                           XSU,1
000475: 22,3762           00045                                    NORMZI     +1
000476: 22,3763           70130                           SXA,1    LXC,1
000477: 22,3764           02103                                    NORMGAM
000478: 22,3765           00045                                    NORMZI     +1
000479: 22,3766           40270                           XAD,1    SETPD
000480: 22,3767           00044                                    NORMZI
000481: 22,3770           00003                                    2D
000482: 22,3771           77650                           GOTO
000483: 22,3772           46671                                    INCOR2     -3
000484: 22,3773                        NORMZI             =        36D
000485:
000486:

End of include-file MEASUREMENT_INCORPORATION.agc.  Parent file is MAIN.agc


