
Source Code


000002:                                                                                                  ## Copyright:   Public domain.
000003:                                                                                                  ## Filename:    P-AXIS_RCS_AUTOPILOT.agc
000004:                                                                                                  ## Purpose:     A section of Luminary revision 116.
000005:                                                                                                  ##              It is part of the source code for the Lunar Module's (LM)
000006:                                                                                                  ##              Apollo Guidance Computer (AGC) for Apollo 12.
000007:                                                                                                  ##              This file is intended to be a faithful transcription, except
000008:                                                                                                  ##              that the code format has been changed to conform to the
000009:                                                                                                  ##              requirements of the yaYUL assembler rather than the
000010:                                                                                                  ##              original YUL assembler.
000011:                                                                                                  ## Reference:   pp. 1411-1431
000012:                                                                                                  ## Assembler:   yaYUL
000013:                                                                                                  ## Contact:     Ron Burkey <info@sandroid.org>.
000014:                                                                                                  ## Website:     www.ibiblio.org/apollo/index.html
000015:                                                                                                  ## Mod history: 2017-01-22 MAS  Created from Luminary 99.
000016:                                                                                                  ##              2017-02-01 RRB  Updated for Luminary 116.
000017:                                                                                                  ##              2017-02-09 HG   Fix operand O13QSAV  --> C13QSAV
000018:                                                                                                  ##                                          O13STALL --> C13STALL
000019:                                                                                                  ##                                          Q        --> C13QSAV
000020:                                                                                                  ##              2017-03-14 RSB  Proofed comment text via 3-way diff vs
000021:                                                                                                  ##                              Luminary 99 and 131.  Fixed an OCT also.
000022:                                                                                                  ##              2017-03-16 RSB  Comment-text fixes identified in 5-way
000023:                                                                                                  ##                              side-by-side diff of Luminary 69/99/116/131/210.
000024:                                                                                                  ##              2017-03-19 HG   Fix definition of 1/10SEC, 40CYC
000025:                                                                                                  ##                              i.e. no storage allocated
000026:                                                                                                  ##                              Add missing statements RELINT
000027:                                                                                                  ##                              Fix operand DAPBOOLS --> FLAGWRD5
000028:


000030: 16,2213                                           BANK     16
000031: 16,2000                                           SETLOC   DAPS1
000032: 16,2000                                           BANK
000033:
000034: 16,2213  E6,1464                                  EBANK=   PERROR
000035: 16,2213                                           COUNT*   $$/DAPP
000036:
000037:                                                                                                  #  THE FOLLOWING T5RUPT ENTRY BEGINS THE PROGRAM WHICH CONTROLS THE P-AXIS ACTION OF THE LEM USING THE RCS JETS.
000038:                                                                                                  #  THE NOMINAL TIME BETWEEN THE P-AXIS RUPTS IS 100 MS IN ALL NON-IDLING MODES OF THE DAP.
000039:
000040: 16,2213           37732        PAXIS              CA       MS100
000041: 16,2214           26030                           ADS      TIME5                                 #  *** NECESSARY IN ORDER TO ALLOW SYN-
000042:                                                                                                  #  CHRONIZATION WITH OTHER INTERRUPTS ***
000043:
000044: 16,2215           22016                           LXCH     BANKRUPT                              #  INTERRUPT LEAD IN (CONTINUED)
000045: 16,2216           00006                           EXTEND
000046: 16,2217           22012                           QXCH     QRUPT
000047:
000048:                                                                                                  #  CHECK IF DAP PASS IS PERMISSIBLE
000049:
000050: 16,2220           11757                           CCS      DAPZRUPT                              #  IF DAPZRUPT POSITIVE, DAP (JASK) IS
000051: 16,2221           05624                           TC       BAILOUT                               #     STILL IN PROGRESS AND A RESTART IS
000052: 16,2222           32000                           OCT      32000                                 #    CALLED FOR.  IT IS NEVER ZERO
000053:
000054: 16,2223           02000                           TC       CHEKBITS                              #  RETURN IS TO I+1 IF DAP SHOULD STAY ON.
000055:
000056: 16,2224           30032                           CA       CDUX                                  #  READ AND STORE CDU'S
000057: 16,2225           55750                           TS       DAPTREG4
000058: 16,2226           30033                           CA       CDUY
000059: 16,2227           55751                           TS       DAPTREG5
000060: 16,2230           30034                           CA       CDUZ
000061: 16,2231           55752                           TS       DAPTREG6
000062:
000063:                                                                                                  #  ***** KALCMANU-DAP AND "RATE-HOLD"-DAP INTERFACE *****
000064:
000065:                                                                                                  #  THE FOLLOWING SECTION IS EXECUTED EVERY 100 MS (10 TIMES A SECOND) WITHIN THE P-AXIS REACTION CONTROL SYSTEM
000066:                                                                                                  #  AUTOPILOT (WHENEVER THE DAP IS IN OPERATION).
000067:
000068: 16,2232           31635                           CA       CDUXD
000069: 16,2233           00006                           EXTEND
000070: 16,2234           21640                           MSU      DELCDUX
000071: 16,2235           02256                           TC       1STOTWOS
000072: 16,2236           55635                           TS       CDUXD
000073: 16,2237           31636                           CA       CDUYD
000074: 16,2240           00006                           EXTEND
000075: 16,2241           21641                           MSU      DELCDUY
000076: 16,2242           02256                           TC       1STOTWOS
000077: 16,2243           55636                           TS       CDUYD
000078: 16,2244           31637                           CA       CDUZD
000079: 16,2245           00006                           EXTEND
000080: 16,2246           21642                           MSU      DELCDUZ


000082: 16,2247           02256                           TC       1STOTWOS
000083: 16,2250           55637                           TS       CDUZD
000084: 16,2251           00006                           EXTEND                                         #  DIMINISH MANUAL CONTROL DIRECT RATE
000085: 16,2252           27445                           DIM      TCP                                   #  TIME COUNTERS.
000086: 16,2253           00006                           EXTEND
000087: 16,2254           27457                           DIM      TCQR
000088:
000089:                                                                                                  #  RATELOOP COMPUTES JETRATEQ, JETRATER, AND 1JACC*NO. PJETS IN ITEMP1.
000090:                                                                                                  #    RETURNS TO BACKP.
000091:
000092:                                                                                                  #    JETRATE = 1JACC*NO.PJETS*TJP   (NOTE TJ IS THE TIME FIRED DURING CSP)
000093:                                                                                                  #    JETRATEQ = 1JACCQ(TJU*NO.UJETS - TJV*NO.VJETS)
000094:                                                                                                  #    JETRATER = 1JACCR(TJU*NO.UJETS + TJV*NO.VJETS)
000095:
000096: 16,2255           12647                           TCF      PAXFILT                               #  PROCEEDS TO RATELOOP AFTER SUPERJOB
000097: 16,2256           10000        1STOTWOS           CCS      A
000098: 16,2257           64753                           AD       ONE
000099: 16,2260           00002                           TC       Q
000100: 16,2261           40000                           CS       A
000101: 16,2262           00002                           TC       Q
000102: 16,2263           00006        SUBDIVDE           EXTEND                                         #  OVERFLOW PROCTION ROUTINE TO GIVE
000103: 16,2264           71741                           MP       DAPTEMP3                              #    POSMAX OR NEGMAX IF THE DIVIDE WOULD
000104: 16,2265           21427                           DAS      OMEGAU                                #    OVERFLOW
000105:
000106: 16,2266           00006                 +3        EXTEND
000107: 16,2267           31427                           DCA      OMEGAU
000108: 16,2270           53744                           DXCH     DAPTEMP5
000109: 16,2271           11426                           CCS      OMEGAU
000110: 16,2272           12274                           TCF      +2
000111: 16,2273           12304                           TCF      DIVIDER
000112: 16,2274           62315                           AD       -OCT630
000113: 16,2275           00006                           EXTEND
000114: 16,2276           62304                           BZMF     DIVIDER
000115:
000116: 16,2277           11426                           CCS      OMEGAU
000117: 16,2300           34733                           CA       POSMAX                                #  45 DEG/SEC
000118: 16,2301           00002                           TC       Q
000119: 16,2302           44733                           CS       POSMAX
000120: 16,2303           00002                           TC       Q
000121:
000122: 16,2304           53427        DIVIDER            DXCH     OMEGAU
000123: 16,2305           00006                           EXTEND
000124: 16,2306           11750                           DV       DAPTREG4
000125: 16,2307           00002                           TC       Q
000126:
000127: 16,2310           54007        OVERSUB            TS       7                                     #  RETURNS A UNCHANGED OR LIMITED TO
000128: 16,2311           00002                           TC       Q                                     #    POSMAX OR NEGMAX IF A HAS OVERFLOW
000129: 16,2312           50000                           INDEX    A
000130: 16,2313           44734                           CS       BIT15      -1


000132: 16,2314           00002                           TC       Q
000133:
000134: 16,2315           77147        -OCT630            OCT      77147
000135:
000136: 16,2316           31737        BACKP              CA       DAPTEMP1
000137: 16,2317           00006                           EXTEND
000138: 16,2320           71530                           MP       1JACC
000139: 16,2321           55745                           TS       JETRATE
000140:
000141:                                                                                                  #  BEGINNING OF THE RATE DERIVATION
000142:                                                                                                  #  OMEGAP,Q,R      BODY RATES SCALED AT PI/4
000143:                                                                                                  #  TRAPER,Q,R      BODY ANGLE ERRORS FROM PREDICTED ANGLE (PI/40)
000144:                                                                                                  #  NP(QR)TRAPS     NUMBER OF TIMES ANGLE ERROR HAS BEEN ACCUMULATED
000145:                                                                                                  #  AOSQ(R)TERM     CHANGE IN RATE DUE TO OFFSET ACCELLERATION.  (PI/4)
000146:                                                                                                  #  JETRATE,Q,R     CHANGE IN RATE DUE TO  JET   ACCELLERATION.  (PI/4)
000147:                                                                                                  #  TRAPSIZE        NEGATIVE LIMIT OF MAGNITUDE OF TRAPEDP, ECT.
000148:                                                                                                  #  OMEGAU          DP-TEMPORARY STORAGE
000149:
000150:                                                                                                  #  OMEGA = OMEGA + JETRATE + AOSTERM (+TRAPED/NTRAPS IF TRAPED BIG)
000151:
000152: 16,2322           31750                           CAE      DAPTREG4                              #  CDUX IS STORED HERE
000153: 16,2323           54001                           TS       L
000154: 16,2324           00006                           EXTEND
000155: 16,2325           21440                           MSU      OLDXFORP                              #  SCALED AT PI
000156: 16,2326           23440                           LXCH     OLDXFORP
000157: 16,2327           55737                           TS       DAPTEMP1
000158: 16,2330           33624                           CA       1/40
000159: 16,2331           55750                           TS       DAPTREG4
000160: 16,2332           41745                           CS       JETRATE
000161: 16,2333           00006                           EXTEND
000162: 16,2334           74736                           MP       BIT14
000163: 16,2335           27430                           ADS      TRAPEDP
000164: 16,2336           31746                           CA       JETRATEQ
000165: 16,2337           61545                           AD       AOSQTERM
000166: 16,2340           00006                           EXTEND
000167: 16,2341           77741                           MP       -BIT14
000168: 16,2342           27431                           ADS      TRAPEDQ
000169: 16,2343           31747                           CA       JETRATER
000170: 16,2344           61546                           AD       AOSRTERM
000171: 16,2345           00006                           EXTEND
000172: 16,2346           77741                           MP       -BIT14
000173: 16,2347           27432                           ADS      TRAPEDR
000174:
000175: 16,2350           31751                           CA       DAPTREG5                              #  CDUY IS STORED HERE
000176: 16,2351           54001                           TS       L
000177: 16,2352           00006                           EXTEND
000178: 16,2353           21441                           MSU      OLDYFORP                              #  SCALED AT PI
000179: 16,2354           23441                           LXCH     OLDYFORP
000180: 16,2355           55740                           TS       DAPTEMP2
000181: 16,2356           00006                           EXTEND
000182: 16,2357           71414                           MP       M11                                   #  M11 SCALED AT 1


000184: 16,2360           61737                           AD       DAPTEMP1
000185: 16,2361           53427                           DXCH     OMEGAU
000186:
000187: 16,2362           02266                           TC       SUBDIVDE   +3                         #  RETURNS WITH CDU-RATE AT PI/4
000188:
000189: 16,2363           00006                           EXTEND
000190: 16,2364           61421                           SU       OMEGAP
000191: 16,2365           27430                           ADS      TRAPEDP
000192: 16,2366           02310                           TC       OVERSUB
000193: 16,2367           55430                           TS       TRAPEDP
000194: 16,2370           00006                           EXTEND
000195: 16,2371           31744                           DCA      DAPTEMP5
000196: 16,2372           21447                           DAS      DXERROR
000197: 16,2373           41454                           CS       PLAST
000198: 16,2374           00006                           EXTEND
000199: 16,2375           73624                           MP       1/40
000200: 16,2376           21447                           DAS      DXERROR                               #  MANUAL MODE X-ATTITUDE ERROR (DP)
000201: 16,2377           31752                           CA       DAPTREG6                              #  CDUZ IS STORED HERE
000202: 16,2400           54001                           TS       L
000203: 16,2401           00006                           EXTEND
000204: 16,2402           21442                           MSU      OLDZFORQ
000205: 16,2403           55741                           TS       DAPTEMP3
000206: 16,2404           23442                           LXCH     OLDZFORQ
000207: 16,2405           31415                           CA       M21
000208: 16,2406           00006                           EXTEND
000209: 16,2407           71740                           MP       DAPTEMP2
000210: 16,2410           53427                           DXCH     OMEGAU
000211: 16,2411           31417                           CA       M22
000212: 16,2412           02263                           TC       SUBDIVDE
000213:
000214: 16,2413           00006                           EXTEND
000215: 16,2414           61422                           SU       OMEGAQ
000216: 16,2415           27431                           ADS      TRAPEDQ
000217: 16,2416           02310                           TC       OVERSUB
000218: 16,2417           55431                           TS       TRAPEDQ
000219: 16,2420           00006                           EXTEND
000220: 16,2421           31744                           DCA      DAPTEMP5
000221: 16,2422           21451                           DAS      DYERROR
000222: 16,2423           41455                           CS       QLAST
000223: 16,2424           00006                           EXTEND
000224: 16,2425           73624                           MP       1/40
000225: 16,2426           21451                           DAS      DYERROR                               #  MANUAL MODE Y-ATTITUDE ERROR (DP)
000226: 16,2427           31416                           CA       M31
000227: 16,2430           00006                           EXTEND
000228: 16,2431           71740                           MP       DAPTEMP2
000229: 16,2432           53427                           DXCH     OMEGAU
000230: 16,2433           31420                           CA       M32
000231:
000232: 16,2434           02263                           TC       SUBDIVDE


000234: 16,2435           00006                           EXTEND
000235: 16,2436           61423                           SU       OMEGAR
000236: 16,2437           27432                           ADS      TRAPEDR
000237: 16,2440           02310                           TC       OVERSUB
000238: 16,2441           55432                           TS       TRAPEDR                               #  TRAPEDS HAVE ALL BEEN COMPUTED
000239:
000240: 16,2442           00006                           EXTEND
000241: 16,2443           31744                           DCA      DAPTEMP5
000242: 16,2444           21453                           DAS      DZERROR
000243: 16,2445           41456                           CS       RLAST
000244: 16,2446           00006                           EXTEND
000245: 16,2447           73624                           MP       1/40
000246: 16,2450           21453                           DAS      DZERROR                               #  MANUAL MODE Z-ATTITUDE ERROR (DP)
000247: 16,2451           30111                           CA       DAPBOOLS                              #  PICK UP PAD LOADED STATE ESTIMATOR GAINS
000248: 16,2452           74737                           MASK     CSMDOCKD
000249: 16,2453           00006                           EXTEND
000250: 16,2454           12462                           BZF      LMONLY
000251: 16,2455           00006                           EXTEND                                         #  DOCKED
000252: 16,2456           31405                           DCA      DKOMEGAN
000253: 16,2457           53751                           DXCH     DAPTREG4
000254: 16,2460           31403                           CA       DKTRAP
000255: 16,2461           12466                           TCF      +5
000256: 16,2462           00006        LMONLY             EXTEND                                         #  UNDOCKED
000257: 16,2463           31410                           DCA      LMOMEGAN
000258: 16,2464           53751                           DXCH     DAPTREG4
000259: 16,2465           31406                           CA       LMTRAP
000260: 16,2466           55752                 +5        TS       DAPTREG6
000261: 16,2467           11430                           CCS      TRAPEDP
000262: 16,2470           12472                           TCF      +2
000263: 16,2471           12507                           TCF      SMALPDIF
000264: 16,2472           61752                           AD       DAPTREG6                              #  TRAPSIZE > ABOUT 77001 %-1.4DEG/SEC"
000265: 16,2473           00006                           EXTEND
000266: 16,2474           62507                           BZMF     SMALPDIF
000267: 16,2475           22007                           ZL
000268: 16,2476           23430                           LXCH     TRAPEDP
000269: 16,2477           34755                           CA       ZERO
000270: 16,2500           00006                           EXTEND
000271: 16,2501           11433                           DV       NPTRAPS
000272: 16,2502           27421                           ADS      OMEGAP
000273: 16,2503           02310                           TC       OVERSUB
000274: 16,2504           55421                           TS       OMEGAP
000275: 16,2505           31750                           CA       DAPTREG4                              #  ABOUT 10 OR 0 FOR DOCKED OR UNDOCKED
000276: 16,2506           55433                           TS       NPTRAPS
000277: 16,2507           25433        SMALPDIF           INCR     NPTRAPS
000278: 16,2510           31745        P-RATE             CA       JETRATE
000279: 16,2511           27421                           ADS      OMEGAP
000280: 16,2512           02310                           TC       OVERSUB
000281: 16,2513           55421                           TS       OMEGAP
000282:
000283: 16,2514           11431                           CCS      TRAPEDQ


000285: 16,2515           12517                           TCF      +2
000286: 16,2516           12544                           TCF      Q-RATE
000287: 16,2517           61752                           AD       DAPTREG6                              #  TRAPSIZE > ABOUT 77001 %-1.4DEG/SEC"
000288: 16,2520           00006                           EXTEND
000289: 16,2521           62544                           BZMF     Q-RATE
000290: 16,2522           22007                           ZL
000291: 16,2523           23431                           LXCH     TRAPEDQ
000292: 16,2524           34755                           CA       ZERO
000293: 16,2525           00006                           EXTEND
000294: 16,2526           11434                           DV       NQTRAPS
000295: 16,2527           55737                           TS       DAPTEMP1                              #  SAVE FOR OFFSET ESTIMATE
000296: 16,2530           27422                           ADS      OMEGAQ
000297: 16,2531           02310                           TC       OVERSUB
000298: 16,2532           55422                           TS       OMEGAQ
000299: 16,2533           31750                           CA       DAPTREG4                              #  ABOUT 10 OR 0 FOR DOCKED OR UNDOCKED
000300: 16,2534           57434                           XCH      NQTRAPS
000301: 16,2535           61751                           AD       DAPTREG5                              #  KAOS > ABOUT 60D %N/N_60"
000302: 16,2536           57737                           XCH      DAPTEMP1
000303: 16,2537           00006                           EXTEND
000304: 16,2540           74756                           MP       FIVE
000305: 16,2541           00006                           EXTEND
000306: 16,2542           11737                           DV       DAPTEMP1
000307: 16,2543           27537                           ADS      AOSQ
000308: 16,2544           25434        Q-RATE             INCR     NQTRAPS
000309: 16,2545           31746                           CA       JETRATEQ
000310: 16,2546           61545                           AD       AOSQTERM
000311: 16,2547           27422                           ADS      OMEGAQ
000312: 16,2550           02310                           TC       OVERSUB
000313: 16,2551           55422                           TS       OMEGAQ
000314:
000315: 16,2552           11432                           CCS      TRAPEDR
000316: 16,2553           12555                           TCF      +2
000317: 16,2554           12602                           TCF      R-RATE
000318: 16,2555           61752                           AD       DAPTREG6                              #  TRAPSIZE > ABOUT 77001 %-1.4DEG/SEC"
000319: 16,2556           00006                           EXTEND
000320: 16,2557           62602                           BZMF     R-RATE
000321: 16,2560           22007                           ZL
000322: 16,2561           23432                           LXCH     TRAPEDR
000323: 16,2562           34755                           CA       ZERO
000324: 16,2563           00006                           EXTEND
000325: 16,2564           11435                           DV       NRTRAPS
000326: 16,2565           55740                           TS       DAPTEMP2                              #  SAVE FOR OFFSET ESTIMATE
000327: 16,2566           27423                           ADS      OMEGAR
000328: 16,2567           02310                           TC       OVERSUB
000329: 16,2570           55423                           TS       OMEGAR
000330: 16,2571           31750                           CA       DAPTREG4                              #  ABOUT 10 OR 0 FOR DOCKED OR UNDOCKED
000331: 16,2572           57435                           XCH      NRTRAPS
000332: 16,2573           61751                           AD       DAPTREG5                              #  KAOS > ABOUT 60D %N/N_60"
000333: 16,2574           57740                           XCH      DAPTEMP2
000334: 16,2575           00006                           EXTEND


000336: 16,2576           74756                           MP       FIVE
000337: 16,2577           00006                           EXTEND
000338: 16,2600           11740                           DV       DAPTEMP2
000339: 16,2601           27541                           ADS      AOSR
000340: 16,2602           25435        R-RATE             INCR     NRTRAPS
000341: 16,2603           31747                           CA       JETRATER
000342: 16,2604           61546                           AD       AOSRTERM
000343: 16,2605           27423                           ADS      OMEGAR
000344: 16,2606           02310                           TC       OVERSUB
000345: 16,2607           55423                           TS       OMEGAR
000346:
000347:                                                                                                  #  END OF RATE DERIVATION
000348:
000349:                                                                                                  #   BEGIN OFFSET ESTIMATER
000350:
000351:                                                                                                  #    IN POWERED FLIGHT, AOSTASK WILL BE CALLED EVERY 2 SECONDS.
000352:
000353:                                                                                                  #    AOS = AOS + K*SUMRATE
000354:
000355: 16,2610           40111                           CS       DAPBOOLS
000356: 16,2611           74744                           MASK     DRIFTBIT
000357: 16,2612           10000                           CCS      A
000358: 16,2613           12624                           TCF      WORKTIME
000359: 16,2614           55424                           TS       ALPHAQ                                #  ZERO THE OFFSET ACCELERATION VALUES.
000360: 16,2615           55425                           TS       ALPHAR
000361: 16,2616           55545                           TS       AOSQTERM
000362: 16,2617           55546                           TS       AOSRTERM
000363: 16,2620           55537                           TS       AOSQ
000364: 16,2621           55541                           TS       AOSR
000365: 16,2622           12667                           TCF      PRETIMCK
000366: 16,2623           00074        KAOS               DEC      60         B-14
000367: 16,2624           31510        WORKTIME           CA       QACCDOT
000368: 16,2625           00006                           EXTEND
000369: 16,2626           74766                           MP       CALLCODE                              #  OCTAL 00032 IS DECIMAL .1 AT 2(6).
000370: 16,2627           21540                           DAS      AOSQ
000371: 16,2630           31537                           CA       AOSQ
000372: 16,2631           55424                           TS       ALPHAQ
000373: 16,2632           00006                           EXTEND
000374: 16,2633           73622                           MP       200MS                                 #  .2 AT 1
000375: 16,2634           55545                           TS       AOSQTERM
000376: 16,2635           31512                           CA       RACCDOT
000377: 16,2636           00006                           EXTEND
000378: 16,2637           74766                           MP       CALLCODE                              #  OCTAL 00032 IS DECIMAL .1 AT 2(6).
000379: 16,2640           21542                           DAS      AOSR
000380: 16,2641           31541                           CA       AOSR
000381: 16,2642           55425                           TS       ALPHAR
000382: 16,2643           00006                           EXTEND
000383: 16,2644           73622                           MP       200MS                                 #  .2 AT 1
000384: 16,2645           55546                           TS       AOSRTERM
000385: 16,2646           12667                           TCF      PRETIMCK
000386:


000388: 16,2647           34747        PAXFILT            CA       CALLGMBL                              #  EXECUTE ACDT+C12, IF NEEDED.
000389: 16,2650           71262                           MASK     RCSFLAGS
000390: 16,2651           10000                           CCS      A                                     #  CALLGMBL IS NOT BIT15, SO THIS TEST IS
000391: 16,2652           03742                           TC       ACDT+C12                              #  VALID.
000392:
000393: 16,2653           52011                           DXCH     ARUPT
000394: 16,2654           53754                           DXCH     DAPARUPT
000395: 16,2655           32666                           CA       SUPERJOB                              #  SETTING UP THE SUPERJOB
000396: 16,2656           56017                           XCH      BRUPT
000397: 16,2657           22012                           LXCH     QRUPT
000398: 16,2660           53756                           DXCH     DAPBQRPT
000399: 16,2661           32665                           CA       SUPERADR
000400: 16,2662           52016                           DXCH     ZRUPT
000401: 16,2663           53760                           DXCH     DAPZRUPT
000402: 16,2664           15275                           TCF      NOQBRSM    +1                         #  RELINT (JUST IN CASE) AND RESUME, IN THE
000403:                                                                                                  #    FORM OF A JASK, AT SUPERJOB.
000404:
000405: 16,2665           02667        SUPERADR           GENADR   SUPERJOB   +1
000406:
000407:                                                                                                  #  COUNT DOWN GIMBAL DRIVE TIMERS AND TURN OFF DRIVES IF REQUIRED.
000408:
000409: 16,2666           13645        SUPERJOB           TCF      RATELOOP
000410: 16,2667           11632        PRETIMCK           CCS      QGIMTIMR
000411: 16,2670           12710                           TCF      DECQTIMR                              #  POSITIVE - COUNTING DOWN
000412: 16,2671           12714                           TCF      TURNOFFQ                              #  NEGATIVE - DRIVE SHOULD BE ENDED
000413: 16,2672           11634        CHKRTIMR           CCS      RGIMTIMR                              #  NEGATIVE - INACTIVE
000414: 16,2673           12712                           TCF      DECRTIMR                              #  (NEG ZERO - IMPOSSIBLE)
000415: 16,2674           12724                           TCF      TURNOFFR                              #  REPEATED (ABOVE) FOR R AXIS.
000416:
000417: 16,2675           00006                           EXTEND                                         #  DECREMENT DOCKED JET INHIBITION COUNTERS
000418: 16,2676           27767                           DIM      PJETCTR
000419: 16,2677           00006                           EXTEND
000420: 16,2700           27770                           DIM      UJETCTR
000421: 16,2701           00006                           EXTEND
000422: 16,2702           27771                           DIM      VJETCTR
000423: 16,2703           34740                           CA       BIT12
000424: 16,2704           71262                           MASK     RCSFLAGS
000425: 16,2705           00006                           EXTEND
000426: 16,2706           12734                           BZF      SKIPPAXS
000427: 16,2707           02740                           TC       CHKVISFZ
000428: 16,2710           55632        DECQTIMR           TS       QGIMTIMR                              #  COUNT TIMERS DOWN TO POS ZERO.
000429: 16,2711           12672                           TCF      CHKRTIMR
000430: 16,2712           55634        DECRTIMR           TS       RGIMTIMR
000431: 16,2713           12675                           TCF      CHKRTIMR   +3
000432:
000433: 16,2714           55501        TURNOFFQ           TS       NEGUQ                                 #  HALT DRIVES.
000434: 16,2715           55510                           TS       QACCDOT
000435: 16,2716           45007                           CS       QGIMBITS
000436: 16,2717           00006                           EXTEND


000438: 16,2720           03012                           WAND     CHAN12
000439: 16,2721           34735                           CAF      NEGMAX
000440: 16,2722           55632                           TS       QGIMTIMR
000441: 16,2723           12672                           TCF      CHKRTIMR
000442: 16,2724           55503        TURNOFFR           TS       NEGUR
000443: 16,2725           55512                           TS       RACCDOT
000444: 16,2726           45020                           CS       RGIMBITS
000445: 16,2727           00006                           EXTEND
000446: 16,2730           03012                           WAND     CHAN12
000447: 16,2731           34735                           CAF      NEGMAX
000448: 16,2732           55634                           TS       RGIMTIMR
000449: 16,2733           12675                           TCF      CHKRTIMR   +3
000450: 16,2734     5007               QGIMBITS           EQUALS   OCT1400                               #  BITS 9 AND 10 (OF CHANNEL 12).
000451: 16,2734     5020               RGIMBITS           EQUALS   PRIO6                                 #  BITS 11 AND 12 (OF CHANNEL 12).
000452:
000453: 16,2734           41262        SKIPPAXS           CS       RCSFLAGS
000454: 16,2735           74740                           MASK     BIT12
000455: 16,2736           27262                           ADS      RCSFLAGS                              #  BIT 12 SET TO 1.
000456: 16,2737           13630                           TCF      QRAXIS                                #  GO TO QRAXIS OR TO GTS.
000457:
000458:                                                                                                  #  Y-Z TRANSLATION
000459:
000460:                                                                                                  #  INPUT:  BITS 9-12 OF CH31 (FROM TRANSLATION CONTROLER)
000461:
000462:                                                                                                  #  OUTPUT: NEXTP
000463:
000464:                                                                                                  #    NEXTP IS THE CHANNEL 6 CODE OF JETS FOR THE DESIRED TRANSLATION.
000465:                                                                                                  #    IF THERE ARE FAILURES IN THE DESIRED POLICY, THEN
000466:
000467:                                                                                                  #       (1) FOR DIAGONAL TRANS:  UNFAILED PAIR
000468:                                                                                                  #                                ALARM (IF NO PAIR)
000469:
000470:                                                                                                  #       (2) FOR PRINCIPAL TRANS: TRY TO TACK WITH DIAGONAL PAIRS
000471:                                                                                                  #                                ALARM (IF DIAGONAL PAIRS ARE FAILED)
000472:
000473: 16,2740           00006        CHKVISFZ           EXTEND
000474: 16,2741           00031                           READ     CHAN31
000475: 16,2742           40000                           CS       A
000476: 16,2743           73617                           MASK     07400OCT
000477: 16,2744           00006                           EXTEND
000478: 16,2745           13014                           BZF      TSNEXTP
000479: 16,2746           00006                           EXTEND
000480: 16,2747           74745                           MP       BIT7
000481: 16,2750           50000                           INDEX    A
000482: 16,2751           33576                           CA       INDXYZ
000483: 16,2752           55744                           TS       ROTINDEX
000484: 16,2753           36245        TRYUORV            CA       SIX
000485: 16,2754           03555                           TC       SELECTYZ
000486: 16,2755           46245                           CS       SIX
000487: 16,2756           61743                           AD       NUMBERT
000488: 16,2757           00006                           EXTEND


000490: 16,2760           13013                           BZF      TSNEXTP    -1
000491: 16,2761           44756                           CS       FIVE
000492: 16,2762           61744                           AD       ROTINDEX
000493: 16,2763           00006                           EXTEND
000494: 16,2764           63002                           BZMF     ALTERYZ
000495: 16,2765           41743                           CS       NUMBERT
000496: 16,2766           64751                           AD       FOUR
000497: 16,2767           00006                           EXTEND
000498: 16,2770           63013                           BZMF     TSNEXTP    -1
000499: 16,2771           05567        ABORTYZ            TC       ALARM
000500: 16,2772           02001                           OCT      02001
000501: 16,2773           34753                           CA       BIT1                                  #  INVERT BIT 1 OF RCSFLAGS.
000502: 16,2774           23262                           LXCH     RCSFLAGS
000503: 16,2775           00006                           EXTEND
000504: 16,2776           06001                           RXOR     1
000505: 16,2777           55262                           TS       RCSFLAGS
000506: 16,3000           34755                           CA       ZERO
000507: 16,3001           13014                           TCF      TSNEXTP
000508: 16,3002           34753        ALTERYZ            CA       BIT1                                  #  INVERT BIT 1 OF RCSFLAGS.
000509: 16,3003           23262                           LXCH     RCSFLAGS
000510: 16,3004           00006                           EXTEND
000511: 16,3005           06001                           RXOR     1
000512: 16,3006           55262                           TS       RCSFLAGS
000513: 16,3007           74753                           MASK     BIT1
000514: 16,3010           64751                           AD       FOUR
000515: 16,3011           27744                           ADS      ROTINDEX
000516: 16,3012           12753                           TCF      TRYUORV
000517: 16,3013           31741                           CA       POLYTEMP
000518: 16,3014           55472        TSNEXTP            TS       NEXTP
000519:
000520:                                                                                                  #  STATE LOGIC
000521:                                                                                                  #   CHECK IN ORDER:           IF ON
000522:                                                                                                  #     LPDPHASE                GO TO PURGENCY
000523:                                                                                                  #     PULSES                  MINIMUM PULSE LOGIC
000524:                                                                                                  #     DETENT(BIT15 CH31)      RATE COMMAND
000525:                                                                                                  #     GO TO PURGENCY
000526:
000527: 16,3015           34737                           CA       BIT13                                 #  CHECK STICK IF IN ATT. HOLD.
000528: 16,3016           00006                           EXTEND
000529: 16,3017           02031                           RAND     CHAN31
000530: 16,3020           00006                           EXTEND
000531: 16,3021           13027                           BZF      MANMODE
000532:
000533: 16,3022           30111                           CA       DAPBOOLS
000534: 16,3023           74743                           MASK     XOVINHIB
000535: 16,3024           10000                           CCS      A
000536: 16,3025           13467                           TCF      PURGENCY                              #  ATTITUDE STEER DURING VISIBILITY PHASE
000537:
000538: 16,3026           13071                           TCF      DETENTCK
000539: 16,3027           34735        MANMODE            CA       PULSES                                #  PULSES IS ONE FOR PULSE MODE
000540: 16,3030           70111                           MASK     DAPBOOLS


000542: 16,3031           00006                           EXTEND
000543: 16,3032           13071                           BZF      DETENTCK                              #  BRANCH FOR RATE COMMAND
000544:
000545: 16,3033           34755                           CA       ZERO
000546: 16,3034           55464                           TS       PERROR
000547:
000548:                                                                                                  #  MINIMUM IMPULSE MODE
000549:
000550: 16,3035           30032                           CA       CDUX
000551: 16,3036           55635                           TS       CDUXD
000552:
000553: 16,3037           11460                           CCS      OLDPMIN
000554: 16,3040           13054                           TCF      CHECKP
000555:
000556: 16,3041           34751        FIREP              CA       BIT3
000557: 16,3042           00006                           EXTEND
000558: 16,3043           02031                           RAND     CHAN31
000559: 16,3044           00006                           EXTEND
000560: 16,3045           13064                           BZF      +XMIN
000561:
000562: 16,3046           34750                           CA       BIT4
000563: 16,3047           00006                           EXTEND
000564: 16,3050           02031                           RAND     CHAN31
000565: 16,3051           00006                           EXTEND
000566: 16,3052           13062                           BZF      -XMIN
000567:
000568: 16,3053           13446                           TCF      JETSOFF
000569:
000570: 16,3054           00006        CHECKP             EXTEND
000571: 16,3055           00031                           READ     CHAN31
000572: 16,3056           40000                           CS       A
000573: 16,3057           75741                           MASK     OCT14
000574: 16,3060           55460                           TS       OLDPMIN
000575: 16,3061           13446                           TCF      JETSOFF
000576:
000577: 16,3062           44363        -XMIN              CS       TEN                                   #  ANYTHING LESS THAN 14MS. CORRECTED
000578: 16,3063           13065                           TCF      +2                                    #    IN JET SELECTION ROUTINE
000579: 16,3064           34363        +XMIN              CA       TEN
000580: 16,3065           55524                           TS       TJP
000581: 16,3066           34753                           CA       ONE
000582: 16,3067           55460                           TS       OLDPMIN
000583: 16,3070           13354                           TCF      PJETSLEC   -6
000584:
000585:                                                                                                  #                   MANUAL RATE COMMAND MODE
000586:                                                                                                  #                   ========================
000587:                                                                                                  #                     BY ROBERT F. STENGEL
000588:
000589:                                                                                                  #  THIS MODE PROVIDES RCAH MANUAL CONTROL THRU 2 CONTROL LAWS:                    1) DIRECT RATE AND 2) PSEUDO-AUTO.
000590:                                                                                                  #  THE DIRECT RATE MODE AFFORDS IMMEDIATE CONTROL WITHOUT OVERSHOOT. THE PSEUDO-AUTO MODE PROVIDES PRECISE
000591:                                                                                                  #  RATE CONTROL AND ATTITUDE HOLD.
000592:


000594:                                                                                                  #  IN DIRECT RATE, JETS ARE FIRED WHEN STICK POSITION CHANGES BY A FIXED NUMBER OF INCREMENTS IN ONE DAP CYCLE.
000595:                                                                                                  #  THE 'BREAKOUT LEVEL' IS .6 D/S FOR LM-ONLY AND .3 D/S FOR CSM-DOCKED. THIS LAW NULLS THE RATE ERROR TO WITHIN
000596:                                                                                                  #  THE 'TARGET DEADBAND', WHICH EQUALS THE BREAKOUT LEVEL.
000597:                                                                                                  #  IN PSEUDO-AUTO, BODY-FIXED RATE AND ATTITUDE ERRORS ARE SUPPLIED TO TJETLAW, WHICH EXERCISES CONTROL.
000598:                                                                                                  #  CONTROL SWITCHES FROM DIRECT RATE TO PSEUDO-AUTO IF THE TARGET DB IS ACHIEVED OR IF TIME IN (1) EXCEEDS 4 SEC.
000599:                                                                                                  #  IF THE INITIAL COMMAND DOES NOT EXCEED THE BREAKOUT LEVEL, CONTROL GOES TO PSEUDO-AUTO IMMEDIATELY.
000600:
000601:                                                                                                  #  SINCE P-AXIS CONTROL IS SEPARATE FROM Q,R AXES CONTROL, IT IS POSSIBLE TO USE (1) IN P-AXIS AND (2) IN Q,R AXES,
000602:                                                                                                  #  OR VICE VERSA.  THIS ALLOWS A DEGREE OF ATTITUDE HOLD IN UNCONTROLLED AXES.  DUE TO U,V CONTROL, HOWEVER, Q AND
000603:                                                                                                  #  R AXES ARE COUPLED AND MUST USE THE SAME CONTROL LAW.
000604:
000605:                                                                                                  #  HAND CONTROLLER COMMANDS ARE SCALED BY A LINEAR/QUADRATIC LAW. FOR THE LM-ALONE, MAXIMUM COMMANDED RATES ARE 20
000606:                                                                                                  #  AND 4 D/S IN NORMAL AND FINE SCALING; HOWEVER, STICK SENSITIVITY AT ZERO COUNTS (OBTAINED AT A STICK DEFLECTION
000607:                                                                                                  #  OF 2 DEGREES FROM THE CENTERED POSITION) IS .5 OR .1 D/S PER DEGREE. NORMAL AND FINE SCALINGS FOR THE CSM-DOCKED
000608:                                                                                                  #  CASE IS AUTOMATICALLY SET TO 1/10 THE ABOVE VALUES.  SCALING IS DETERMINED IN ROUTINE 3.
000609:
000610:                                                                                                  #  ZEROENBL      ENABLES COUNTERS SO THEY CAN BE READ NEXT TIME
000611:                                                                                                  #  JUSTOUT       FIRST DETECTION OF OUT OF DETENT (BY OURRCBIT)
000612:
000613: 16,3071           00006        DETENTCK           EXTEND
000614: 16,3072           00031                           READ     CHAN31
000615: 16,3073           55443                           TS       CH31TEMP
000616: 16,3074           74735                           MASK     BIT15                                 #  CHECK OUT-OF-DETENT BIT.
000617: 16,3075           00006                           EXTEND
000618: 16,3076           13226                           BZF      RHCMOVED                              #  BRANCH IF OUT OF DETENT.
000619: 16,3077           34740                           CAF      OURRCBIT                              #  IN DETENT.  CHECK THE RATE COMMAND BIT.
000620: 16,3100           70111                           MASK     DAPBOOLS
000621: 16,3101           00006                           EXTEND
000622: 16,3102           13467                           BZF      PURGENCY                              #  BRANCH IF NOT IN RATE COMMAND LAST PASS.
000623:
000624:                                                                                                  #  ........................................................................
000625:
000626: 16,3103           34743                           CA       BIT9                                  #  JUST IN DETENT??
000627: 16,3104           71262                           MASK     RCSFLAGS
000628: 16,3105           00006                           EXTEND
000629: 16,3106           13120                           BZF      RUTH
000630: 16,3107           34737                           CAF      BIT13                                 #  CHECK FOR ATTITUDE HOLD.
000631: 16,3110           00006                           EXTEND
000632: 16,3111           02031                           RAND     CHAN31
000633: 16,3112           00006                           EXTEND
000634: 16,3113           13223                           BZF      RATEDAMP                              #  BRANCH IF IN ATTITUDE HOLD.
000635:
000636: 16,3114           45014                           CS       BITS9,11                              #  IN AUTO.
000637: 16,3115           71262                           MASK     RCSFLAGS                              #  (X-AXIS OVERRIDE)
000638: 16,3116           55262                           TS       RCSFLAGS                              #  ZERO ORBIT (BIT 11) AND JUST-IN BIT (9).
000639: 16,3117           13223                           TCF      RATEDAMP
000640:
000641: 16,3120           31262        RUTH               CA       RCSFLAGS
000642: 16,3121           74742                           MASK     PBIT                                  #  IN ATTITUDE HOLD.
000643: 16,3122           00006                           EXTEND
000644: 16,3123           13125                           BZF      +2                                    #  BRANCH IF P-RATE DAMPING IS FINISHED.
000645: 16,3124           13223                           TCF      RATEDAMP
000646:


000648: 16,3125           31262                           CA       RCSFLAGS
000649: 16,3126           74741                           MASK     QRBIT
000650: 16,3127           00006                           EXTEND
000651: 16,3130           13134                           BZF      RATEDONE                              #  BRANCH IF Q,R RATE DAMPING IS FINISHED.
000652: 16,3131           13223                           TCF      RATEDAMP
000653:
000654:                                                                                                  #  ============================================
000655:
000656: 16,3132     4753               1/10SEC            =        BIT1
000657: 16,3132     4771               40CYC              =        OCT50
000658: 16,3132           74777        PQRBIT             OCT      74777
000659: 16,3133     5014               BITS9,11           EQUALS   EBANK5
000660: 16,3133           00056        LINRATP            DEC      46         B-14
000661:
000662:                                                                                                  #  ============================================
000663:
000664: 16,3134           44740        RATEDONE           CS       OURRCBIT                              #  MANUAL COMMAND AND DAMPING COMPLETED IN
000665: 16,3135           00004                           INHINT                                         #  ALL AXES.
000666: 16,3136           70111                           MASK     DAPBOOLS
000667: 16,3137           54111                           TS       DAPBOOLS
000668:
000669:                                                                                                  #  READ CDUS INTO CDU DESIRED REGISTERS
000670:
000671: 16,3140           34737                           CAF      BIT13
000672: 16,3141           00006                           EXTEND
000673: 16,3142           02031                           RAND     CHAN31
000674: 16,3143           00006                           EXTEND
000675: 16,3144           13150                           BZF      +4
000676: 16,3145           30032                           CA       CDUX                                  #  (X-AXIS OVERRIDE)
000677: 16,3146           55635                           TS       CDUXD
000678: 16,3147           03152                           TC       +3
000679: 16,3150           04674                           TC       IBNKCALL
000680: 16,3151           40154                           FCADR    ZATTEROR
000681: 16,3152           00003                           RELINT
000682: 16,3153           13467                           TCF      PURGENCY
000683:
000684: 16,3154           55464                           TS       PERROR
000685: 16,3155           34740        JUSTOUT            CA       OURRCBIT                              #  INITIALIZATION - FIRST MANUAL PASS.
000686: 16,3156           26111                           ADS      DAPBOOLS
000687: 16,3157           34755                           CA       ZERO
000688: 16,3160           55446                           TS       DXERROR
000689: 16,3161           55447                           TS       DXERROR    +1
000690: 16,3162           55450                           TS       DYERROR
000691: 16,3163           55451                           TS       DYERROR    +1
000692: 16,3164           55452                           TS       DZERROR
000693: 16,3165           55453                           TS       DZERROR    +1
000694: 16,3166           55454                           TS       PLAST
000695: 16,3167           55455                           TS       QLAST
000696: 16,3170           55456                           TS       RLAST
000697: 16,3171           54042                           TS       Q-RHCCTR
000698: 16,3172           54044                           TS       R-RHCCTR
000699: 16,3173           33132                           CA       PQRBIT
000700: 16,3174           71262                           MASK     RCSFLAGS
000701: 16,3175           55262                           TS       RCSFLAGS                              #  BITS 10 AND 11 OF RCSFLAGS ARE 0.


000703: 16,3176           41262                           CS       RCSFLAGS                              #  SET 'JUST-IN' BIT TO 1.
000704: 16,3177           74743                           MASK     BIT9
000705: 16,3200           27262                           ADS      RCSFLAGS
000706: 16,3201           03204                           TC       ZEROENBL
000707: 16,3202           00003                           RELINT
000708: 16,3203           13446                           TCF      JETSOFF
000709: 16,3204           22044        ZEROENBL           LXCH     R-RHCCTR
000710: 16,3205           30042                           CA       Q-RHCCTR
000711: 16,3206           53463                           DXCH     SAVEHAND
000712: 16,3207           34755                           CA       ZERO
000713: 16,3210           54043                           TS       P-RHCCTR
000714: 16,3211           54042                           TS       Q-RHCCTR
000715: 16,3212           54044                           TS       R-RHCCTR
000716: 16,3213           00004                           INHINT
000717: 16,3214           00006                           EXTEND
000718: 16,3215           23265                           QXCH     C13QSAV
000719: 16,3216           06022                           TC       C13STALL
000720:
000721: 16,3217           33623                           CA       BITS8,9
000722: 16,3220           00006                           EXTEND
000723: 16,3221           05013                           WOR      CHAN13                                #  COUNTERS ZEROED AND ENABLED
000724: 16,3222           01265                           TC       C13QSAV
000725:
000726: 16,3223           34755        RATEDAMP           CA       ZERO
000727: 16,3224           54043                           TS       P-RHCCTR
000728: 16,3225           13232                           TCF      RATERROR
000729:
000730: 16,3226           34740        RHCMOVED           CA       OURRCBIT                              #  P CONTROL
000731: 16,3227           70111                           MASK     DAPBOOLS
000732: 16,3230           00006                           EXTEND
000733: 16,3231           13154                           BZF      JUSTOUT    -1
000734: 16,3232           30032        RATERROR           CA       CDUX                                  #  FINDCDUW REQUIRES THAT CDUXD=CDUX DURING
000735: 16,3233           55635                           TS       CDUXD                                 #  X-AXIS OVERRIDE
000736: 16,3234           10043                           CCS      P-RHCCTR
000737: 16,3235           13240                           TCF      +3
000738: 16,3236           13240                           TCF      +2
000739: 16,3237           13240                           TCF      +1
000740: 16,3240           60000                           DOUBLE                                         #  LINEAR/QUADRATIC CONTROLLER SCALING
000741: 16,3241           60000                           DOUBLE                                         #  (SEE EXPLANATION IN Q,R-AXES RCS
000742: 16,3242           63133                           AD       LINRATP                               #  AUTOPILOT)
000743: 16,3243           00006                           EXTEND
000744: 16,3244           70043                           MP       P-RHCCTR
000745: 16,3245           30001                           CA       L
000746: 16,3246           00006                           EXTEND
000747: 16,3247           71444                           MP       STIKSENS
000748: 16,3250           57454                           XCH      PLAST
000749: 16,3251           40000                           COM
000750: 16,3252           61454                           AD       PLAST
000751: 16,3253           55737                           TS       DAPTEMP1
000752: 16,3254           03204                           TC       ZEROENBL                              #  INTERVAL.  ZERO AND ENABLE ACA COUNTERS.


000754: 16,3255           00003                           RELINT
000755: 16,3256           41454                           CS       PLAST
000756: 16,3257           61421                           AD       OMEGAP
000757: 16,3260           55427                           TS       EDOTP
000758: 16,3261           11737                           CCS      DAPTEMP1                              #  IF P COMMAND CHANGE EXCEEDS BREAKOUT
000759: 16,3262           13265                           TCF      +3                                    #  LEVEL, GO TO DIRECT RATE CONTROL. IF NOT
000760: 16,3263           13273                           TCF      +8D                                   #  CHECK FOR DIRECT RATE CONTROL LAST TIME.
000761: 16,3264           13265                           TCF      +1
000762: 16,3265           61476                           AD       -RATEDB
000763: 16,3266           00006                           EXTEND
000764: 16,3267           63273                           BZMF     +4
000765: 16,3270           34771                           CA       40CYC
000766: 16,3271           55445                           TS       TCP
000767: 16,3272           03304                           TC       PEGI
000768: 16,3273           31262                           CA       RCSFLAGS                              #  CHECK FOR DIRECT RATE COMMAND LAST TIME.
000769: 16,3274           74742                           MASK     PBIT
000770: 16,3275           00006                           EXTEND
000771: 16,3276           13300                           BZF      +2
000772: 16,3277           03304                           TC       PEGI                                  #  TO PURE RATE COMMAND
000773: 16,3300           31446                           CA       DXERROR                               #  PSEUDO-AUTO CONTROL.
000774: 16,3301           55752                           TS       E                                     #  X-ATTITUDE ERROR (SP)
000775: 16,3302           55464                           TS       PERROR                                #  LOAD P-AXIS ERROR FOR MODE1 FDAI DISPLAY
000776: 16,3303           03473                           TC       PURGENCY   +4
000777: 16,3304           30032        PEGI               CA       CDUX                                  #  DIRECT RATE CONTROL.
000778: 16,3305           55635                           TS       CDUXD
000779: 16,3306           34755                           CA       ZERO
000780: 16,3307           55446                           TS       DXERROR
000781: 16,3310           55447                           TS       DXERROR    +1
000782: 16,3311           55464                           TS       PERROR                                #  ZERO P-AXIS ERROR FOR MODE1 FDAI DISPLAY
000783: 16,3312           11427                           CCS      EDOTP
000784: 16,3313           03316                           TC       +3
000785: 16,3314           03316                           TC       +2
000786: 16,3315           03316                           TC       +1
000787: 16,3316           55737                           TS       ABSEDOTP
000788: 16,3317           61476                           AD       TARGETDB
000789: 16,3320           00006                           EXTEND                                         #  IF RATE ERROR IS LESS THAN DEADBAND,
000790: 16,3321           63331                           BZMF     LAST                                  #  FIRE, AND SWITCH TO PSEUDO-AUTO.
000791: 16,3322           31445                           CA       TCP
000792: 16,3323           00006                           EXTEND                                         #  IF TIME IN RATE COMMAND EXCEEDS 4 SEC.,
000793: 16,3324           63331                           BZMF     LAST
000794: 16,3325           41262                           CS       RCSFLAGS
000795: 16,3326           74742                           MASK     PBIT
000796: 16,3327           27262                           ADS      RCSFLAGS                              #  BIT 10 IS 1.
000797: 16,3330           13334                           TCF      +4
000798: 16,3331           44742        LAST               CS       PBIT
000799: 16,3332           71262                           MASK     RCSFLAGS
000800: 16,3333           55262                           TS       RCSFLAGS                              #  BIT 10 IS 0.
000801: 16,3334           41427                           CS       EDOTP
000802: 16,3335           00006                           EXTEND
000803: 16,3336           71551                           MP       1/ANETP                               #  1/2JTACC SCALED AT 2EXP(7)/PI


000805: 16,3337           20001                           DAS      A
000806: 16,3340           02310                           TC       OVERSUB
000807: 16,3341           00006                           EXTEND
000808: 16,3342           77721                           MP       25/32                                 #  A CONTAINS TJET SCALED AT 2EXP(4)(16/25)
000809: 16,3343           55524                           TS       TJP                                   #  4.JET TIME
000810: 16,3344           31737                           CA       ABSEDOTP
000811: 16,3345           61475                           AD       -2JETLIM                              #  COMPARING DELTA RATE WITH 2 JET LIMIT
000812: 16,3346           00006                           EXTEND
000813: 16,3347           63352                           BZMF     +3
000814:
000815: 16,3350           36245                           CA       SIX
000816: 16,3351           13361                           TCF      +8D
000817: 16,3352           31524                           CA       TJP
000818: 16,3353           27524                           ADS      TJP
000819:
000820:                                                                                                  #  GOES TO PJETSLEC FOR TWO JETS
000821:                                                                                                  #  P-JET-SELECTION-ROUTINE (ROTATION)
000822:
000823:                                                                                                  #  INPUT:        NUMBERT         4,5,6 FOR WHICH PAIR OR 4 JETS
000824:                                                                                                  #                TJP             + FOR +P ROTATION
000825:
000826:                                                                                                  #  OUTPUT:       CHANNEL 6
000827:                                                                                                  #                PJUMPADR        FOR P-AXIS SKIP
000828:                                                                                                  #                (JTLST CALL)    (SMALL TJP)
000829:
000830:                                                                                                  #  ORDER OF POLICIES TRIED IN CASE OF FAILURE.
000831:                                                                                                  #        +P      -P
000832:                                                                                                  #        7,15    8,16
000833:                                                                                                  #        4,12    3,11
000834:                                                                                                  #        4,7     8,11
000835:                                                                                                  #        7,12    11,16
000836:                                                                                                  #        12,15   3,16
000837:                                                                                                  #        4,15    3,8
000838:                                                                                                  #        ALARM   ALARM
000839:
000840: 16,3354           34747                           CA       AORBSYST
000841: 16,3355           70101                           MASK     FLAGWRD5
000842: 16,3356           10000                           CCS      A
000843: 16,3357           34753                           CA       ONE
000844: 16,3360           64751                           AD       FOUR
000845: 16,3361           55743                           TS       NUMBERT
000846: 16,3362           34753        PJETSLEC           CA       ONE
000847: 16,3363           54001                           TS       L
000848: 16,3364           11524                           CCS      TJP
000849: 16,3365           13372                           TCF      +5
000850: 16,3366           13446                           TCF      JETSOFF
000851: 16,3367           13371                           TCF      +2
000852: 16,3370           13446                           TCF      JETSOFF
000853: 16,3371           22007                           ZL
000854: 16,3372           64753                           AD       ONE
000855: 16,3373           55737                           TS       ABSTJ


000857: 16,3374           23744                           LXCH     ROTINDEX
000858: 16,3375           03535                           TC       SELECTP
000859: 16,3376           46245                           CS       SIX
000860: 16,3377           61743                           AD       NUMBERT
000861: 16,3400           00006                           EXTEND
000862: 16,3401           13403                           BZF      +2
000863:
000864: 16,3402           44752                           CS       TWO
000865: 16,3403           64751                           AD       FOUR
000866: 16,3404           55521                           TS       NO.PJETS
000867: 16,3405           31741                           CA       POLYTEMP
000868: 16,3406           05744                           TC       WRITEP
000869: 16,3407           41737                           CS       ABSTJ
000870: 16,3410           63616                           AD       +150MST6
000871: 16,3411           00006                           EXTEND
000872: 16,3412           63630                           BZMF     QRAXIS                                #  GO TO QRAXIS OR TO GTS.
000873:
000874: 16,3413           63576                           AD       -136MST6
000875: 16,3414           00006                           EXTEND
000876: 16,3415           63422                           BZMF     +5
000877:
000878: 16,3416           27737                           ADS      ABSTJ
000879: 16,3417           51744                           INDEX    ROTINDEX
000880: 16,3420           33625                           CA       MINTIMES
000881: 16,3421           55524                           TS       TJP
000882:
000883: 16,3422           31737                           CA       ABSTJ
000884: 16,3423           22007                           ZL
000885: 16,3424           00004                           INHINT
000886: 16,3425           53471                           DXCH     T6FURTHA
000887: 16,3426           04674                           TC       IBNKCALL
000888: 16,3427           37143                           CADR     JTLST
000889: 16,3430           44740                           CS       BIT12
000890: 16,3431           71262                           MASK     RCSFLAGS
000891: 16,3432           55262                           TS       RCSFLAGS                              #  BIT 12 SET TO 0.
000892: 16,3433           03435                           TC       ALTSYST
000893: 16,3434           13630                           TCF      QRAXIS
000894:
000895: 16,3435           30101        ALTSYST            CA       FLAGWRD5                              #  ALTERNATE P-AXIS JETS
000896: 16,3436           54001                           TS       L
000897: 16,3437           34747                           CA       AORBSYST
000898: 16,3440           00006                           EXTEND
000899: 16,3441           06001                           RXOR     LCHAN
000900: 16,3442           54101                           TS       FLAGWRD5
000901: 16,3443           00003                           RELINT
000902: 16,3444           00002                           TC       Q
000903:
000904: 16,3445           03435        DKALT              TC       ALTSYST
000905:
000906: 16,3446           05743        JETSOFF            TC       WRITEP     -1


000908: 16,3447           34755                           CA       ZERO
000909: 16,3450           55524                           TS       TJP
000910: 16,3451           13630                           TCF      QRAXIS
000911:
000912:                                                                                                  #  (NOTE -- M13 = 1 IDENTICALLY IMPLIES NULL MULTIPLICATION.)
000913:
000914: 16,3452           30033        CALCPERR           CA       CDUY                                  #  P-ERROR CALCULATION.
000915: 16,3453           00006                           EXTEND
000916: 16,3454           21636                           MSU      CDUYD                                 #  CDU VALUE - ANGLE DESIRED (Y-AXIS)
000917: 16,3455           00006                           EXTEND
000918: 16,3456           71414                           MP       M11                                   #  (CDUY-CDUYD)M11 SCALED AT PI RADIANS
000919: 16,3457           57752                           XCH      E                                     #  SAVE FIRST TERM (OF TWO)
000920: 16,3460           30032                           CA       CDUX                                  #  THIRD COMPONENT
000921: 16,3461           00006                           EXTEND
000922: 16,3462           21635                           MSU      CDUXD                                 #  CDU VALUE - ANGLE DESIRED (X-AXIS)
000923:                                                                                                  #                EXTEND
000924:                                                                                                  #                MP      M13
000925: 16,3463           61274                           AD       DELPEROR                              #  KALCMANU INERFACE ERROR
000926: 16,3464           27752                           ADS      E                                     #  SAVE SUM OF TERMS.  COULD BE OVERFLOW.
000927: 16,3465           57464                           XCH      PERROR                                #  SAVE P-ERROR FOR EIGHT-BALL DISPLAY.
000928: 16,3466           00002                           TC       Q                                     #  RETURN TO CALLER
000929:
000930:                                                                                                  #  P-AXIS URGENCY FUNCTION CALCULATION.
000931:
000932: 16,3467           03452        PURGENCY           TC       CALCPERR                              #  CALCULATE P-AXIS ERRORS.
000933: 16,3470           41643                           CS       OMEGAPD                               #  THIS CODING IS COMMON TO BOTH LM DAP AND
000934: 16,3471           61421                           AD       OMEGAP                                #  SPS-BACKUP MODE.
000935: 16,3472           55427                           TS       EDOTP                                 #  EDOTP = OMEGAP - OMEGAPD AT PI/4 RAD/SEC
000936:
000937: 16,3473           44753                           CS       ONE
000938: 16,3474           55505                           TS       AXISCTR
000939: 16,3475           30111                           CA       DAPBOOLS
000940: 16,3476           74737                           MASK     CSMDOCKD
000941: 16,3477           00006                           EXTEND
000942: 16,3500           13511                           BZF      HEADTJET
000943: 16,3501           00004                           INHINT                                         #  IF CSMDOCKD = 1, GO TO DOCKED RCS LOGIC
000944: 16,3502           04674                           TC       IBNKCALL
000945: 16,3503           43730                           CADR     SPSRCS
000946:
000947: 16,3504           31524                           CA       TJP
000948: 16,3505           00006                           EXTEND
000949: 16,3506           13445                           BZF      DKALT                                 #  IF TJP = ZERO, CHANGE AORBSYST.
000950: 16,3507           00003                           RELINT
000951: 16,3510           13354                           TCF      PJETSLEC   -6                         #     SELECT AORBSYST AND USE TWO JETS
000952: 16,3511           34755        HEADTJET           CA       ZERO
000953: 16,3512           55500                           TS       SENSETYP
000954: 16,3513           00004                           INHINT
000955: 16,3514           04674                           TC       IBNKCALL
000956: 16,3515           37304                           CADR     TJETLAW
000957: 16,3516           00003                           RELINT
000958:


000960: 16,3517           41741                           CS       FIREFCT
000961: 16,3520           63534                           AD       -FOURDEG
000962: 16,3521           00006                           EXTEND
000963: 16,3522           63354                           BZMF     PJETSLEC   -6
000964: 16,3523           11524                           CCS      TJP
000965: 16,3524           13526                           TCF      +2
000966: 16,3525           13446                           TCF      JETSOFF
000967: 16,3526           63533                           AD       -160MST6
000968: 16,3527           00006                           EXTEND
000969: 16,3530           63354                           BZMF     PJETSLEC   -6
000970: 16,3531           36245                           CA       SIX
000971: 16,3532           13361                           TCF      PJETSLEC   -1
000972: 16,3533           77377        -160MST6           DEC      -256       B-14
000973: 16,3534           75117        -FOURDEG           DEC      -.08888
000974:


000976:                                                                                                  #  JET POLICY CONSTRUCTION SUBROUTINE
000977:
000978:                                                                                                  #  INPUT: ROTINDEX, NUMBERT
000979:
000980:                                                                                                  #  OUTPUT: POLYTEMP (JET POLICY)
000981:
000982:                                                                                                  #  THIS SUBROUTINE SELECT A SUBSET OF THE DESIRED JETS WHICH HAS NO FAILURE
000983:
000984: 16,3535           36245        SELECTP            CA       SIX
000985: 16,3536           55742                           TS       TEMPNUM
000986: 16,3537           51743                           INDEX    NUMBERT
000987: 16,3540           33567                           CA       TYPEP
000988: 16,3541           51744                           INDEX    ROTINDEX
000989: 16,3542           73560                           MASK     JETSALL
000990: 16,3543           55741                           TS       POLYTEMP
000991: 16,3544           71260                           MASK     CH6MASK
000992: 16,3545           10000                           CCS      A
000993: 16,3546           13550                           TCF      +2
000994: 16,3547           00002                           TC       Q
000995: 16,3550           11742                           CCS      TEMPNUM
000996: 16,3551           13555                           TCF      +4
000997: 16,3552           05567                           TC       ALARM
000998: 16,3553           02003                           OCT      02003
000999: 16,3554           13446                           TCF      JETSOFF                               #  *****TCF ALARMJET *********************
001000: 16,3555           55743        SELECTYZ           TS       NUMBERT
001001: 16,3556           13536                           TCF      SELECTP    +1
001002: 16,3557           12773                 -1        TCF      ABORTYZ    +2
001003: 16,3560           00252        JETSALL            OCT      00252
001004: 16,3561           00125                           OCT      00125                                 #  +P
001005: 16,3562           00140                           OCT      00140                                 #  -Y
001006: 16,3563           00006                           OCT      00006                                 #  -Z
001007: 16,3564           00220                           OCT      00220                                 #  +Y
001008: 16,3565           00011                           OCT      00011                                 #  +Z
001009: 16,3566           00151                           OCT      00151                                 #  +V
001010: 16,3567           00146        TYPEP              OCT      00146                                 #  -U
001011: 16,3570           00226                           OCT      00226                                 #  -V
001012: 16,3571           00231                           OCT      00231                                 #  +U
001013: 16,3572           00151                           OCT      00151                                 #  +V
001014: 16,3573           00132                           OCT      00132                                 #  1-3
001015: 16,3574           00245                           OCT      00245                                 #  2-4
001016: 16,3575           00377                           OCT      00377                                 #  ALL
001017: 16,3576  16,3576               INDXYZ             =        -136MST6
001018: 16,3576           77445        -136MST6           DEC      -218       B-14
001019: 16,3577           00004                           DEC      4          B-14
001020: 16,3600           00002                           DEC      2          B-14
001021: 16,3601           07776                           OCT      07776
001022: 16,3602           00005                           DEC      5          B-14
001023: 16,3603           00011                           DEC      9          B-14
001024: 16,3604           00012                           DEC      10         B-14
001025: 16,3605           07776                           OCT      07776
001026: 16,3606           00003                           DEC      3          B-14


001028: 16,3607           00010                           DEC      8          B-14
001029: 16,3610           00007                           DEC      7          B-14
001030: 16,3611           07776                           OCT      07776                                 #  THESE INDEXES OF  MASK JETSALL WILL
001031: 16,3612           07776                           OCT      07776                                 #  CHANGE THE INSTRUCTION AT SELECTP +4
001032: 16,3613           07776                           OCT      07776                                 #  TO BE    TC  JETSALL -1
001033: 16,3614           07776                           OCT      07776                                 #  ONLY USED FOR TRANSLATION FAILURE
001034: 16,3615           07776                           OCT      07776
001035: 16,3616           00360        +150MST6           DEC      240        B-14
001036: 16,3617           07400        07400OCT           OCT      07400
001037:
001038:                                                                                                  #  T-JET LAW FIXED CONSTANTS
001039:
001040: 16,3620           00266        NORMSCL            OCT      266
001041: 16,3621           74631        -100MS             DEC      -.1
001042: 16,3622           06315        200MS              DEC      .2
001043: 16,3623     7721               25/32              =        PRIO31                                #  (DEC .78125)
001044: 16,3623           00600        BITS8,9            OCTAL    00600
001045: 16,3624           00632        1/40               DEC      .02500
001046: 16,3625           77751        MINTIMES           DEC      -22        B-14
001047: 16,3626           00026                           DEC      22         B-14
001048: 16,3627           02734        PSKIPADR           GENADR   SKIPPAXS
001049:
001050:                                                                                                  #  GOES TO Q,R-AXES RCS AUTOPILOT
001051:
001052: 16,3630           41645        QRAXIS             CS       OMEGARD
001053: 16,3631           61423                           AD       OMEGAR
001054: 16,3632           02310                           TC       OVERSUB
001055: 16,3633           55437                           TS       EDOTR
001056: 16,3634           41644                           CS       OMEGAQD
001057: 16,3635           61422                           AD       OMEGAQ
001058: 16,3636           02310                           TC       OVERSUB
001059: 16,3637           55436                           TS       EDOTQ
001060: 16,3640           00006                           EXTEND
001061: 16,3641           33644                           DCA      QERRCALL
001062: 16,3642           52006                           DTCB
001063:
001064: 16,3643  E6,1537                                  EBANK=   AOSQ
001065: 16,3643           02124 36106  QERRCALL           2CADR    CALLQERR

End of include-file P-AXIS_RCS_AUTOPILOT.agc.  Parent file is MAIN.agc


