
Source Code


000002:                                                                                                  ## Copyright:   Public domain.
000003:                                                                                                  ## Filename:    P34-P35,_P74-P75.agc
000004:                                                                                                  ## Purpose:     A section of Luminary revision 116.
000005:                                                                                                  ##              It is part of the source code for the Lunar Module's (LM)
000006:                                                                                                  ##              Apollo Guidance Computer (AGC) for Apollo 12.
000007:                                                                                                  ##              This file is intended to be a faithful transcription, except
000008:                                                                                                  ##              that the code format has been changed to conform to the
000009:                                                                                                  ##              requirements of the yaYUL assembler rather than the
000010:                                                                                                  ##              original YUL assembler.
000011:                                                                                                  ## Reference:   pp. 658-702
000012:                                                                                                  ## Assembler:   yaYUL
000013:                                                                                                  ## Contact:     Ron Burkey <info@sandroid.org>.
000014:                                                                                                  ## Website:     www.ibiblio.org/apollo/index.html
000015:                                                                                                  ## Mod history: 2017-01-22 MAS  Created from Luminary 99.
000016:                                                                                                  ##              2017-01-28 RSB  Back-ported some comment fixes I noticed while
000017:                                                                                                  ##                              proofing Luminary 69.
000018:                                                                                                  ##              2017-03-09 RSB  Transcribed, and then proofed comment-text using
000019:                                                                                                  ##                              3-way diff vs Luminary 99 and Luminary 131.
000020:                                                                                                  ##                              (Admittedly, the former is more for detecting errors
000021:                                                                                                  ##                              in Luminary 99 than the other way around.)
000022:                                                                                                  ##              2017-03-16 RSB  Comment-text fixes identified in 5-way
000023:                                                                                                  ##                              side-by-side diff of Luminary 69/99/116/131/210.
000024:


000026:                                                                                                  #  TRANSFER PHASE INITIATION (TPI) PROGRAMS (P34 AND P74)
000027:
000028:                                                                                                  #  MOD NO -1                     LOG SECTION - P32-P35, P72-P75
000029:                                                                                                  #  MOD BY WHITE.P                DATE  1JUNE67
000030:
000031:                                                                                                  #  PURPOSE
000032:
000033:                                                                                                  #        (1)     TO CALCULATE THE REQUIRED DELTA V AND OTHER INITIAL CONDITIONS
000034:                                                                                                  #                REQUIRED BY THE ACTIVE VEHICLE FOR EXECUTION OF THE TRANSFER
000035:                                                                                                  #                PHASE INITIATION (TPI) MANEUVER, GIVEN -
000036:
000037:                                                                                                  #                (A)     TIME OF IGNITION TIG (TPI) OR THE ELEVATION ANGLE (E) OF
000038:                                                                                                  #                        THE ACTIVE/PASSIVE VEHICLE LOS AT TIG (TPI).
000039:
000040:                                                                                                  #                (B)     CENTRAL ANGLE OF TRANSFER (CENTANG) FROM TIG (TPI) TO
000041:                                                                                                  #                        INTERCEPT TIME (TIG (TPF)).
000042:
000043:                                                                                                  #        (2)     TO CALCULATE TIG (TPI) GIVEN E OR E GIVEN TIG (TPI).
000044:
000045:                                                                                                  #        (3)     TO CALCULATE THESE PARAMETERS BASED UPON MANEUVER DATA
000046:                                                                                                  #                APPROVED AND KEYED INTO THE DSKY BY THE ASTRONAUT.
000047:
000048:                                                                                                  #        (4)     TO DISPLAY TO THE ASTRONAUT AND THE GROUND CERTAIN DEPENDENT
000049:                                                                                                  #                VARIABLES ASSOCIATED WITH THE MANEUVER FOR APPROVAL BY THE
000050:                                                                                                  #                ASTRONAUT/GROUND.
000051:
000052:                                                                                                  #        (5)     TO STORE THE TPI TARGET PARAMETERS FOR USE BY THE DESIRED
000053:                                                                                                  #                THRUSTING PROGRAM.
000054:
000055:                                                                                                  #  ASSUMPTIONS
000056:
000057:                                                                                                  #        (1)     LM ONLY - THIS PROGRAM IS BASED UPON PREVIOUS COMPLETION OF
000058:                                                                                                  #                THE CONSTANT DELTA ALTITUDE (CDH) PROGRAM (P33/P73).
000059:                                                                                                  #                THEREFORE -
000060:
000061:                                                                                                  #                (A)     AT A SELECTED TPI TIME (NOW IN STORAGE) THE LINE OF SIGHT
000062:                                                                                                  #                        BETWEEN THE ACTIVE AND PASSIVE VEHICLES WAS SELECTED TO BE
000063:                                                                                                  #                        A PRESCRIBED ANGLE (E) (NOW IN STORAGE) FROM THE
000064:                                                                                                  #                        HORIZONTAL PLANE DEFINED BY THE ACTIVE VEHICLE POSITION.
000065:
000066:                                                                                                  #                (B)     THE TIME BETWEEN CDH IGNITION AND TPI IGNITION WAS
000067:                                                                                                  #                        COMPUTED TO BE GREATER THAN 10 MINUTES.
000068:
000069:                                                                                                  #                (C)     THE VARIATION OF THE ALTITUDE DIFFERENCE BETWEEN THE
000070:                                                                                                  #                        ORBITS WAS MINIMIZED.
000071:
000072:                                                                                                  #                (D)     THE PERICENTER ALTITUDES OF ORBITS FOLLOWING CSI AND
000073:                                                                                                  #                        CDH WERE COMPUTED TO BE GREATER THAN 35,000 FT FOR LUNAR


000075:                                                                                                  #                        ORBIT OR 85 NM FOR EARTH ORBIT.
000076:
000077:                                                                                                  #                (E)     THE CSI AND CDH MANEUVERS WERE ASSUMED TO BE PARALLEL TO
000078:                                                                                                  #                        THE PLANE OF THE PASSIVE VEHICLE ORBIT.  HOWEVER, CREW
000079:                                                                                                  #                        MODIFICATION OF DELTA V (LV) COMPONENTS MAY HAVE RESULTED
000080:                                                                                                  #                        IN AN OUT-OF-PLANE MANEUVER.
000081:
000082:                                                                                                  #        (2)     STATE VECTOR UPDATED BY P27 ARE DISALLOWED DURING AUTOMATIC
000083:                                                                                                  #                STATE VECTOR UPDATING INITIATED BY P20 (SEE ASSUMPTION (4)).
000084:
000085:                                                                                                  #        (3)     THIS PROGRAM MUST BE DONE OVER A TRACKING STATION FOR REAL
000086:                                                                                                  #                TIME GROUND PARTICIPATION IN DATA INPUT AND OUTPUT.  COMPUTED
000087:                                                                                                  #                VARIABLES MAY BE STORED FOR LATER VERIFICATION BY THE GROUND.
000088:                                                                                                  #                THESE STORAGE CAPABILITIES ARE LIMITED ONLY TO THE PARAMETERS
000089:                                                                                                  #                FOR ONE THRUSTING MANEUVER AT A TIME EXCEPT FOR CONCENTRIC
000090:                                                                                                  #                FLIGHT PLAN MANEUVER SEQUENCES.
000091:
000092:                                                                                                  #        (4)     THE RENDEZVOUS RADAR MAY OR MAY NOT BE USED TO UPDATE THE LM
000093:                                                                                                  #                OR CSM STATE VECTORS FOR THIS PROGRAM.  IF RADAR USE IS
000094:                                                                                                  #                DESIRED THE RADAR WAS TURNED ON AND LOCKED ON THE CSM BY
000095:                                                                                                  #                PREVIOUS SELECTION OF P20.  RADAR SIGHTING MARKS WILL BE MADE
000096:                                                                                                  #                AUTOMATICALLY APPROXIMATELY ONCE A MINUTE WHEN ENABLED BY THE
000097:                                                                                                  #                TRACK AND UPDATE FLAGS (SEE P20).  THE RENDEZVOUS TRACKING
000098:                                                                                                  #                MARK COUNTER IS ZEROED BY THE SELECTION OF P20 AND AFTER EACH
000099:                                                                                                  #                THRUSTING MANEUVER.
000100:
000101:                                                                                                  #        (5)     THE ISS NEED NOT BE ON TO COMPLETE THIS PROGRAM.
000102:
000103:                                                                                                  #        (6)     THE OPERATION OF THE PROGRAM UTILIZES THE FOLLOWING FLAGS -
000104:
000105:                                                                                                  #                        ACTIVE VEHICLE FLAG - DESIGNATES THE VEHICLE WHICH IS
000106:                                                                                                  #                        DOING RENDEZVOUS THRUSTING MANEUVERS TO THE PROGRAM WHICH
000107:                                                                                                  #                        CALCULATES THE MANEUVER PARAMETERS.  SET AT THE START OF
000108:                                                                                                  #                        EACH RENDEZVOUS PRE-THRUSTING PROGRAM.
000109:
000110:                                                                                                  #                        FINAL FLAG - SELECTS FINAL PROGRAM DISPLAYS AFTER CREW HAS
000111:                                                                                                  #                        SELECTED THE FINAL MANEUVER COMPUTATION CYCLE.
000112:
000113:                                                                                                  #                        EXTERNAL DELTA V FLAG - DESIGNATES THE TYPE OF STEERING
000114:                                                                                                  #                        REQUIRED FOR EXECUTION OF THIS MANEUVER BY THE THRUSTING
000115:                                                                                                  #                        PROGRAM SELECTED AFTER COMPLETION OF THIS PROGRAM.
000116:
000117:                                                                                                  #        (7)     ONCE THE PARAMETWRS REQUIRED FOR COMPUTION OF THE MANEUVER
000118:                                                                                                  #                HAVE BEEN COMPLETELY SPECIFIED, THE VALUE OF THE ACTIVE
000119:                                                                                                  #                VEHICLE CENTRAL ANGLE OF TRANSFER IS COMPUTED AND STORED.
000120:                                                                                                  #                THIS NUMBER WILL BE AVAILABLE FOR DISPLAY TO THE ASTRONAUT
000121:                                                                                                  #                THROUGH THE USE OF V06N52.
000122:
000123:                                                                                                  #                THE ASTRONAUT WILL CALL THIS DISPLAY TO VERIFY THAT THE
000124:                                                                                                  #                CENTRAL ANGLE OF TRANSFER OF THE ACTIVE VEHICLE IS NOT WITHIN


000126:                                                                                                  #                170 TO 190 DEGREES.  IF THE ANGLE IS WITHIN THIS ZONE THE
000127:                                                                                                  #                ASTRONAUT SHOULD REASSESS THE INPUT TARGETING PARAMETERS BASED
000128:                                                                                                  #                UPON DELTA V AND EXPECTED MANEUVER TIME.
000129:
000130:                                                                                                  #        (8)     THIS PROGRAM IS SELECTED BY THE ASTRONAUT BY DSKY ENTRY -
000131:
000132:                                                                                                  #                        P34 IF THIS VEHICLE IS ACTIVE VEHICLE.
000133:
000134:                                                                                                  #                        P74 IF THIS VEHICLE IS PASSIVE VEHICLE.
000135:
000136:                                                                                                  #  INPUT
000137:
000138:                                                                                                  #        (1)     TTPI    TIME OF THE TPI MANEUVER
000139:                                                                                                  #        (2)     ELEV    DESIRED LOS ANGLE AT TPI
000140:                                                                                                  #        (3)     CENTANG ORBITAL CENTRAL ANGLE OF THE PASSIVE VEHICLE DURING
000141:                                                                                                  #                        TRANSFER FROM TPI TO TIME OF INTERCEPT
000142:
000143:                                                                                                  #  OUTPUT
000144:
000145:                                                                                                  #        (1)     TRKMKCNT        NUMBER OF MARKS
000146:                                                                                                  #        (2)     TTOGO           TIME TO GO
000147:                                                                                                  #        (3)     +MGA            MIDDLE GIMBAL ANGLE
000148:                                                                                                  #        (4)     TTPI            COMPUTED TIME OF TPI MANEUVER
000149:                                                                                                  #                 OR
000150:                                                                                                  #                ELEV            COMPUTED LOS ANGLE AT TPI
000151:                                                                                                  #        (5)     POSTTPI         PERIGEE ALTITUDE AFTER THE TPI MANEUVER
000152:                                                                                                  #        (6)     DELVTPI         MAGNITUDE OF DELTA V AT TPI
000153:                                                                                                  #        (7)     DELVTPF         MAGNITUDE OF DELTA V AT INTERCEPT
000154:                                                                                                  #        (8)     DVLOS           DELTA VELOCITY AT TPI - LINE OF SIGHT
000155:                                                                                                  #        (9)     DELVLVC         DELTA VELOCITY AT TPI - LOCAL VERTICAL COORDINATES
000156:
000157:                                                                                                  #  DOWNLINK
000158:
000159:                                                                                                  #        (1)     TTPI            TIME OF THE TPI MANEUVER
000160:                                                                                                  #        (2)     TIG             TIME OF THE TPI MANEUVER
000161:                                                                                                  #        (3)     ELEV            DESIRED LOS ANGLE AT TPI
000162:                                                                                                  #        (4)     CENTANG         ORBITAL CENTRAL ANGLE OF THE PASSIVE VEHICLE DURING
000163:                                                                                                  #                                TRANSFER FROM TPI TO TIME OF INTERCEPT
000164:                                                                                                  #        (5)     DELVEET3        DELTA VELOCITY AT TPI - REFERENCE COORDINATES
000165:                                                                                                  #        (6)     TPASS4          TIME OF INTERCEPT
000166:
000167:                                                                                                  #  COMMUNICATION TO THRUSTING PROGRAMS
000168:
000169:                                                                                                  #        (1)     TIG             TIME OF THE TPI MANEUVER
000170:                                                                                                  #        (2)     RTARG           OFFSET TARGET POSITION
000171:                                                                                                  #        (3)     TPASS4          TIME OF INTERCEPT
000172:                                                                                                  #        (4)     XDELVFLG        RESET TO INDICATE LAMBERT (AIMPOINT) VG COMPUTATION
000173:
000174:                                                                                                  #  SUBROUTINES USED
000175:
000176:                                                                                                  #        AVFLAGA


000178:                                                                                                  #        AVFLAGP
000179:                                                                                                  #        VNPOOH
000180:                                                                                                  #        DISPLAYE
000181:                                                                                                  #        SELECTMU
000182:                                                                                                  #        PRECSET
000183:                                                                                                  #        S33/34.1
000184:                                                                                                  #        ALARM
000185:                                                                                                  #        BANKCALL
000186:                                                                                                  #        GOFLASH
000187:                                                                                                  #        GOTOPOOH
000188:                                                                                                  #        TIMETHET
000189:                                                                                                  #        S34/35.2
000190:                                                                                                  #        PERIAPO1
000191:                                                                                                  #        SHIFTR1
000192:                                                                                                  #        S34/35.5
000193:                                                                                                  #        VN1645
000194:
000195: 35,2000                                           SETLOC   CSI/CDH
000196: 35,2000                                           BANK
000197: 35,2455  E7,1470                                  EBANK=   SUBEXIT
000198: 35,2455                                           COUNT*   $$/P3474
000199: 35,2455           02354        P34                TC       AVFLAGA
000200: 35,2456           02460                           TC       P34/P74A
000201: 35,2457           02361        P74                TC       AVFLAGP
000202: 35,2460           02366        P34/P74A           TC       P20FLGON                              #  SET UPDATFLG, TRACKFLG
000203: 35,2461           33632                           CAF      V06N37                                #  TTPI
000204: 35,2462           03621                           TC       VNPOOH
000205: 35,2463           00006                           EXTEND
000206: 35,2464           33655                           DCA      130DEG
000207: 35,2465           53621                           DXCH     CENTANG
000208: 35,2466           32424                           CAF      P30ZERO
000209: 35,2467           55466                           TS       NN
000210: 35,2470           03603                           TC       DISPLAYE                              #  ELEV AND CENTANG
000211: 35,2471           06042                           TC       INTPRET
000212: 35,2472           71214                           CLEAR    DLOAD
000213: 35,2473           01270                                    ETPIFLAG
000214: 35,2474           03636                                    TTPI
000215: 35,2475           17442                           STODL    TIG
000216: 35,2476           02257                                    ELEV
000217: 35,2477           43054                           BZE      SET
000218: 35,2500           72502                                    P34/P74B
000219: 35,2501           01070                                    ETPIFLAG
000220: 35,2502           77624        P34/P74B           CALL
000221: 35,2503           20000                                    SELECTMU
000222: 35,2504                        DELELO             EQUALS   26D
000223: 35,2504           43145        P34/P74C           DLOAD    SET
000224: 35,2505           06524                                    ZEROVECS
000225: 35,2506           03460                                    ITSWICH
000226: 35,2507           43014                           BON      CLEAR
000227: 35,2510           01310                                    ETPIFLAG


000229: 35,2511           72513                                    SWCHSET
000230: 35,2512           03660                                    ITSWICH
000231: 35,2513           02317        SWCHSET            STORE    NOMTPI
000232: 35,2514           43345        INTLOOP            DLOAD    DAD
000233: 35,2515           03636                                    TTPI
000234: 35,2516           02317                                    NOMTPI
000235: 35,2517           34041                           STCALL   TDEC1
000236: 35,2520           46403                                    PRECSET
000237: 35,2521           77624                           CALL
000238: 35,2522           72674                                    S33/34.1
000239: 35,2523           77454                           BZE      EXIT
000240: 35,2524           72535                                    SWCHCLR
000241: 35,2525           05567                           TC       ALARM
000242: 35,2526           00611                           OCT      611
000243: 35,2527           35006                           CAF      V05N09
000244: 35,2530           04616                           TC       BANKCALL
000245: 35,2531           20477                           CADR     GOFLASH
000246: 35,2532           06001                           TC       GOTOPOOH
000247: 35,2533           02460                           TC       P34/P74A                              #  PROCEED
000248: 35,2534           02525                           TC       -7                                    #  V32
000249:
000250: 35,2535           43014        SWCHCLR            BONCLR   BON
000251: 35,2536           03600                                    ITSWICH
000252: 35,2537           72514                                    INTLOOP
000253: 35,2540           01310                                    ETPIFLAG
000254: 35,2541           72545                                    P34/P74D                              #  DISPLAY TTPI
000255: 35,2542           77776                           EXIT
000256: 35,2543           03603                           TC       DISPLAYE                              #  DISPLAY ELEV AND CENTANG
000257: 35,2544           02550                           TC       P34/P74E
000258: 35,2545           77776        P34/P74D           EXIT
000259: 35,2546           33632                           CAF      V06N37                                #  TTPI
000260: 35,2547           03621                           TC       VNPOOH
000261: 35,2550           06042        P34/P74E           TC       INTPRET
000262: 35,2551           71201                           SETPD    DLOAD
000263: 35,2552           00001                                    0D
000264: 35,2553           02777                                    RTX1
000265: 35,2554           14047                           STODL    X1
000266: 35,2555           03621                                    CENTANG
000267: 35,2556           71406                           PUSH     COS
000268: 35,2557           16732                           STODL    CSTH
000269: 35,2560           77756                           SIN
000270: 35,2561           26730                           STOVL    SNTH
000271: 35,2562           03552                                    RPASS3
000272: 35,2563           77657                           VSR*
000273: 35,2564           57176                                    0,2
000274: 35,2565           26655                           STOVL    RVEC
000275: 35,2566           03560                                    VPASS3
000276: 35,2567           43057                           VSR*     SET
000277: 35,2570           57176                                    0,2
000278: 35,2571           03466                                    RVSW


000280: 35,2572           36744                           STCALL   VVEC
000281: 35,2573           24732                                    TIMETHET
000282: 35,2574           77745                           DLOAD
000283: 35,2575           03636                                    TTPI
000284: 35,2576           03610                           STORE    INTIME                                #  FOR INITVEL
000285: 35,2577           77615                           DAD
000286: 35,2600           00037                                    T                                     #  RENDEZVOUS TIME
000287: 35,2601           37631                           STCALL   TPASS4                                #  FOR INITVEL
000288: 35,2602           73216                                    S34/35.2
000289: 35,2603           51575                           VLOAD    ABVAL
000290: 35,2604           02366                                    DELVEET3
000291: 35,2605           27576                           STOVL    DELVTPI
000292: 35,2606           03506                                    VPASS4
000293: 35,2607           51451                           VSU      ABVAL
000294: 35,2610           03566                                    VTPRIME
000295: 35,2611           26350                           STOVL    DELVTPF
000296: 35,2612           03536                                    RACT3
000297: 35,2613           45115                           PDVL     CALL
000298: 35,2614           02337                                    VIPRIME
000299: 35,2615           46341                                    PERIAPO1
000300: 35,2616           77624                           CALL
000301: 35,2617           46451                                    SHIFTR1
000302: 35,2620           17606                           STODL    POSTTPI
000303: 35,2621           03636                                    TTPI
000304: 35,2622           03442                           STORE    TIG
000305: 35,2623           77776                           EXIT
000306: 35,2624           33634                           CAF      V06N58
000307: 35,2625           03621                           TC       VNPOOH
000308: 35,2626           06042                           TC       INTPRET
000309: 35,2627           77624                           CALL
000310: 35,2630           73432                                    S34/35.5
000311: 35,2631           77624                           CALL
000312: 35,2632           73515                                    VN1645
000313: 35,2633           77650                           GOTO
000314: 35,2634           72504                                    P34/P74C


000316:                                                                                                  #  RENDEZVOUS MID-COURSE MANEUVER PROGRAMS (P35 AND P75)
000317:
000318:                                                                                                  #  MOD NO -1                     LOG SECTION - P32-P35, P72-P75
000319:                                                                                                  #  MOD BY WHITE.P                DATE  1JUNE67
000320:
000321:                                                                                                  #  PURPOSE
000322:
000323:                                                                                                  #        (1)     TO CALCULATE THE REQUIRED DELTA V AND OTHER INITIAL CONDITIONS
000324:                                                                                                  #                REQUIRED BY THE ACTIVE VEHICLE FOR EXECUTION OF THE NEXT
000325:                                                                                                  #                MIDCOURSE CORRECTION OF THE TRANSFER PHASE OF AN ACTIVE
000326:                                                                                                  #                VEHICLE RENDEZVOUS.
000327:
000328:                                                                                                  #        (2)     TO DISPLAY TO THE ASTRONAUT AND THE GROUND CERTAIN DEPENDENT
000329:                                                                                                  #                VARIABLES ASSOCIATED WITH THE MANEUVER FOR APPROVAL BY THE
000330:                                                                                                  #                ASTRONAUT/GROUND.
000331:
000332:                                                                                                  #        (3)     TO STORE THE TPM TARGET PARAMETERS FOR USE BY THE DESIRED
000333:                                                                                                  #                THRUSTING PROGRAM.
000334:
000335:                                                                                                  #  ASSUMPTIONS
000336:
000337:                                                                                                  #        (1)     THE ISS NEED NOT BE ON TO COMPLETE THIS PROGRAM.
000338:
000339:                                                                                                  #        (2)     STATE VECTOR UPDATES BY P27 ARE DISALLOWED DURING AUTOMATIC
000340:                                                                                                  #                STATE VECTOR UPDATING INITIATED BY P20 (SEE ASSUMPTION (3)).
000341:
000342:                                                                                                  #        (3)     THE RENDEZVOUS RADAR IS ON AND IS LOCKED ON THE CSM.  THIS WAS
000343:                                                                                                  #                DONE DURING PREVIOUS SELECTION OF P20.  RADAR SIGHTING MARKS
000344:                                                                                                  #                WILL BE MADE AUTOMATICALLY APPROXIMATELY ONCE A MINUTE WHEN
000345:                                                                                                  #                ENABLED BY THE TRACK AND UPDATE FLAGS (SEE P20).  THE
000346:                                                                                                  #                RENDEZVOUS TRACKING MARK COUNTER IS ZEROED BY THE SELECTION OF
000347:                                                                                                  #                P20 AND AFTER EACH THRUSTING MANEUVER.
000348:
000349:                                                                                                  #        (4)     THE OPERATION OF THE PROGRAM UTILIZES THE FOLLOWING FLAGS -
000350:
000351:                                                                                                  #                        ACTIVE VEHICLE FLAG - DESIGNATES THE VEHICLE WHICH IS
000352:                                                                                                  #                        DOING RENDEZVOUS THRUSTING MANEUVERS TO THE PROGRAM WHICH
000353:                                                                                                  #                        CALCULATES THE MANEUVER PARAMETERS.  SET AT THE START OF
000354:                                                                                                  #                        EACH RENDEZVOUS PRE-THRUSTING PROGRAM.
000355:
000356:                                                                                                  #                        FINAL FLAG - SELECTS FINAL PROGRAM DISPLAYS AFTER CREW HAS
000357:                                                                                                  #                        SELECTED THE FINAL MANEUVER COMPUTATION CYCLE.
000358:
000359:                                                                                                  #                        EXTERNAL DELTA V FLAG - DESIGNATES THE TYPE OF STEERING
000360:                                                                                                  #                        REQUIRED FOR EXECUTION OF THIS MANEUVER BY THE THRUSTING
000361:                                                                                                  #                        PROGRAM SELECTED AFTER COMPLETION OF THIS PROGRAM.
000362:
000363:                                                                                                  #        (5)     THE TIME OF INTERCEPT (T(INT)) WAS DEFINED BY PREVIOUS
000364:                                                                                                  #                COMPLETION OF THE TRANSFER PHASE INITIATION (TPI) PROGRAM
000365:                                                                                                  #                (P34/P74) AND IS PRESENTLY AVAILABLE IN STORAGE.
000366:


000368:                                                                                                  #        (6)     ONCE THE PARAMETERS REQUIRED FOR COMPUTION OF THE MANEUVER
000369:                                                                                                  #                HAVE BEEN COMPLETELY SPECIFIED, THE VALUE OF THE ACTIVE
000370:                                                                                                  #                VEHICLE CENTRAL ANGLE OF TRANSFER IS COMPUTED AND STORED.
000371:                                                                                                  #                THIS NUMBER WILL BE AVAILABLE FOR DISPLAY TO THE ASTRONAUT
000372:                                                                                                  #                THROUGH THE USE OF V06N52.
000373:
000374:                                                                                                  #                THE ASTRONAUT WILL CALL THIS DISPLAY TO VERIFY THAT THE
000375:                                                                                                  #                CENTRAL ANGLE OF TRANSFER OF THE ACTIVE VEHICLE IS NOT WITHIN
000376:                                                                                                  #                170 TO 190 DEGREES.  IF THE ANGLE IS WITHIN THIS ZONE THE
000377:                                                                                                  #                ASTRONAUT SHOULD REASSESS THE INPUT TARGETING PARAMETERS BASED
000378:                                                                                                  #                UPON DELTA V AND EXPECTED MANEUVER TIME.
000379:
000380:                                                                                                  #        (7)     THIS PROGRAM IS SELECTED BY THE ASTRONAUT BY DSKY ENTRY -
000381:
000382:                                                                                                  #                        P35 IF THIS VEHICLE IS ACTIVE VEHICLE.
000383:
000384:                                                                                                  #                        P75 IF THIS VEHICLE IS PASSIVE VEHICLE.
000385:
000386:                                                                                                  #  INPUT
000387:
000388:                                                                                                  #        (1)     TPASS4          TIME OF INTERCEPT - SAVED FROM P34/P74
000389:
000390:                                                                                                  #  OUTPUT
000391:
000392:                                                                                                  #        (1)     TRKMKCNT        NUMBER OF MARKS
000393:                                                                                                  #        (2)     TTOGO           TIME TO GO
000394:                                                                                                  #        (3)     +MGA            MIDDLE GIMBAL ANGLE
000395:                                                                                                  #        (4)     DVLOS           DELTA VELOCITY AT MID - LINE OF SIGHT
000396:                                                                                                  #        (5)     DELVLVC         DELTA VELOCITY AT MID - LOCAL VERTICAL COORDINATES
000397:
000398:                                                                                                  #  DOWNLINK
000399:
000400:                                                                                                  #        (1)     TIG             TIME OF THE TPM MANEUVER
000401:                                                                                                  #        (2)     DELVEET3        DELTA VELOCITY AT TPM - REFERENCE COORDINATES
000402:                                                                                                  #        (3)     TPASS4          TIME OF INTERCEPT
000403:
000404:                                                                                                  #  COMMUNICATION TO THRUSTING PROGRAMS
000405:
000406:                                                                                                  #        (1)     TIG             TIME OF THE TPM MANEUVER
000407:                                                                                                  #        (2)     RTARG           OFFSET TARGET POSITION
000408:                                                                                                  #        (3)     TPASS4          TIME OF INTERCEPT
000409:                                                                                                  #        (4)     XDELVFLG        RESET TO INDICATE LAMBERT (AIMPOINT) VG COMPUTATION
000410:
000411:                                                                                                  #  SUBROUTINES USED
000412:
000413:                                                                                                  #        AVFLAGA
000414:                                                                                                  #        AVFLAGP
000415:                                                                                                  #        LOADTIME
000416:                                                                                                  #        SELECTMU
000417:                                                                                                  #        PRECSET
000418:                                                                                                  #        S34/35.1
000419:                                                                                                  #        S34/35.2


000421:                                                                                                  #        S34/35.5
000422:                                                                                                  #        VN1645
000423:
000424: 35,2635                                           COUNT*   $$/P3575
000425: 35,2635  E7,1575                                  EBANK=   KT
000426:
000427: 35,2635           02354        P35                TC       AVFLAGA
000428: 35,2636           00006                           EXTEND
000429: 35,2637           31401                           DCA      ATIGINC
000430: 35,2640           02644                           TC       P35/P75A
000431: 35,2641           02361        P75                TC       AVFLAGP
000432: 35,2642           00006                           EXTEND
000433: 35,2643           31403                           DCA      PTIGINC
000434: 35,2644           53576        P35/P75A           DXCH     KT
000435: 35,2645           02366                           TC       P20FLGON                              #  SET UPDATFLG, TRACKFLG
000436: 35,2646           06042                           TC       INTPRET
000437: 35,2647           77624                           CALL
000438: 35,2650           20000                                    SELECTMU
000439: 35,2651           77634        P35/P75B           RTB
000440: 35,2652           21574                                    LOADTIME
000441: 35,2653           03612                           STORE    TSTRT
000442: 35,2654           77615                           DAD
000443: 35,2655           03576                                    KT
000444: 35,2656           03442                           STORE    TIG
000445: 35,2657           03610                           STORE    INTIME                                #  FOR INITVEL
000446: 35,2660           34041                           STCALL   TDEC1
000447: 35,2661           46403                                    PRECSET                               #  ADVANCE BOTH VEHICLES
000448: 35,2662           77624                           CALL
000449: 35,2663           73204                                    S34/35.1                              #  GET NORM AND LOS FOR TRANSFORM
000450: 35,2664           77624                           CALL
000451: 35,2665           73216                                    S34/35.2                              #  GET DELTA V(LV)
000452: 35,2666           77624                           CALL
000453: 35,2667           73432                                    S34/35.5
000454: 35,2670           77624                           CALL
000455: 35,2671           73515                                    VN1645
000456: 35,2672           77650                           GOTO
000457: 35,2673           72651                                    P35/P75B


000459:                                                                                                  #  ..... S33/34.1 .....
000460:
000461: 35,2674           66220        S33/34.1           STQ      SSP
000462: 35,2675           03463                                    NORMEX
000463: 35,2676           03614                                    TITER
000464: 35,2677           40000                           OCT      40000
000465: 35,2700           40345                           DLOAD    SETPD
000466: 35,2701           33643                                    MAX250
000467: 35,2702           00001                                    0D
000468: 35,2703           27574                           STOVL    SECMAX
000469: 35,2704           03536                                    RACT3
000470: 35,2705           27500                           STOVL    RAPREC
000471: 35,2706           03544                                    VACT3
000472: 35,2707           27506                           STOVL    VAPREC
000473: 35,2710           03552                                    RPASS3
000474: 35,2711           27522                           STOVL    RPPREC
000475: 35,2712           03560                                    VPASS3
000476: 35,2713           03530                           STORE    VPPREC
000477: 35,2714           77624        ELCALC             CALL
000478: 35,2715           73204                                    S34/35.1                              #  NORMAL AND LOS
000479: 35,2716           63235                           VXV      PDVL
000480: 35,2717           03536                                    RACT3                                 #  (RA*VA)*RA 0D
000481: 35,2720           53515                           PDVL     UNIT                                  #  ULOS AT 6D
000482: 35,2721           03536                                    RACT3
000483: 35,2722           46315                           PDVL     VPROJ                                 #  XCHNJ AND UP
000484: 35,2723           51352                           VSL2     BVSU
000485: 35,2724           02311                                    ULOS
000486: 35,2725           63256                           UNIT     PDVL                                  #  UP AT 0D
000487: 35,2726           63241                           DOT      PDVL                                  #  UP.UN*RA AT 0D
000488: 35,2727           00001                                    0D                                    #  UP IN MPAC
000489: 35,2730           75241                           DOT      SIGN
000490: 35,2731           02311                                    ULOS
000491: 35,2732           65552                           SL1      ACOS
000492: 35,2733           50315                           PDVL     DOT                                   #  EA AT 0D
000493: 35,2734           02311                                    ULOS
000494: 35,2735           03536                                    RACT3
000495: 35,2736           71244                           BPL      DLOAD
000496: 35,2737           72742                                    TESTY
000497: 35,2740           06532                                    DPPOSMAX
000498: 35,2741           41425                           DSU      PUSH
000499: 35,2742           71214        TESTY              BOFF     DLOAD
000500: 35,2743           03740                                    ITSWICH
000501: 35,2744           73171                                    ELEX
000502: 35,2745           03576                                    DELEL
000503: 35,2746           14033                           STODL    DELELO
000504: 35,2747           77625                           DSU
000505: 35,2750           02257                                    ELEV
000506: 35,2751           03576                           STORE    DELEL
000507: 35,2752           45246                           ABS      DSU
000508: 35,2753           33647                                    ELEPS


000510: 35,2754           77640                           BMN
000511: 35,2755           73201                                    TIMEX                                 #  COMMERCIALS EVERYWHERE
000512: 35,2756           70535        FIGTIME            SLOAD    SR1
000513: 35,2757           03614                                    TITER
000514: 35,2760           72030                           BHIZ     LXA,1
000515: 35,2761           03463                                    NORMEX                                #  TOO MANY ITERATIONS
000516: 35,2762           00154                                    MPAC
000517: 35,2763           77330                           SXA,1    VLOAD
000518: 35,2764           03613                                    TITER
000519: 35,2765           03552                                    RPASS3
000520: 35,2766           65256                           UNIT     PDDL
000521: 35,2767           00045                                    36D
000522: 35,2770           53515                           PDVL     UNIT
000523: 35,2771           03536                                    RACT3
000524: 35,2772           77725                           PDDL
000525: 35,2773           41525                           PDDL     PUSH
000526: 35,2774           00045                                    36D
000527: 35,2775           77621                           BDSU
000528: 35,2776           00015                                    12D
000529: 35,2777           14037                           STODL    30D                                   #  RP - RA MAGNITUDES
000530: 35,3000           06522                                    DPHALF
000531: 35,3001           41425                           DSU      PUSH
000532: 35,3002           02257                                    ELEV
000533: 35,3003           50165                           SIGN     BMN
000534: 35,3004           00037                                    30D
000535: 35,3005           03463                                    NORMEX
000536: 35,3006           71545                           DLOAD    COS
000537: 35,3007           56205                           DMP      DDV
000538: 35,3010           00017                                    14D
000539: 35,3011           00015                                    12D
000540: 35,3012           77676                           DCOMP                                          #  SINCE COS(180-A)=-COS A
000541: 35,3013           00035                           STORE    28D
000542: 35,3014           44246                           ABS      BDSU
000543: 35,3015           06522                                    DPHALF
000544: 35,3016           77240                           BMN      VLOAD
000545: 35,3017           03463                                    NORMEX
000546: 35,3020           02261                                    UNRM
000547: 35,3021           53435                           VXV      UNIT
000548: 35,3022           00007                                    6D                                    #  UN*RA
000549: 35,3023           41241                           DOT      DMP
000550: 35,3024           03544                                    VACT3
000551: 35,3025           00015                                    12D
000552: 35,3026           47315                           PDVL     VXV
000553: 35,3027           00001                                    0D
000554: 35,3030           03560                                    VPASS3
000555: 35,3031           53435                           VXV      UNIT
000556: 35,3032           00001                                    0D                                    #  (RP*VP)*RP
000557: 35,3033           41241                           DOT      DMP
000558: 35,3034           03560                                    VPASS3
000559: 35,3035           00017                                    14D


000561: 35,3036           77621                           BDSU
000562: 35,3037           63301                           NORM     PDVL                                  #  NORMALIZED WA - WP 12D
000563: 35,3040           00047                                    X1
000564: 35,3041           00007                                    6D
000565: 35,3042           50235                           VXV      DOT
000566: 35,3043           00001                                    0D
000567: 35,3044           02261                                    UNRM                                  #  RA*RP.UN 14D
000568: 35,3045           50315                           PDVL     DOT
000569: 35,3046           00001                                    0D
000570: 35,3047           00007                                    6D
000571: 35,3050           65552                           SL1      ACOS
000572: 35,3051           77765                           SIGN
000573: 35,3052           43225                           DSU      DAD                                   #  ALPHA PI
000574: 35,3053           06522                                    DPHALF
000575: 35,3054           02257                                    ELEV
000576: 35,3055           65525                           PDDL     ACOS
000577: 35,3056           00035                                    28D
000578: 35,3057           75221                           BDSU     SIGN
000579: 35,3060           06522                                    DPHALF
000580: 35,3061           00037                                    30D                                   #  CONTAINS RP-RA
000581: 35,3062           77615                           DAD
000582: 35,3063           56205                           DMP      DDV
000583: 35,3064           33641                                    TWOPI
000584: 35,3065           77605                           DMP
000585: 35,3066           41257                           SL*      DMP
000586: 35,3067           20176                                    0          -3,1
000587: 35,3070           51406                           PUSH     ABS
000588: 35,3071           50025                           DSU      BMN
000589: 35,3072           03574                                    SECMAX
000590: 35,3073           73077                                    OKMAX
000591: 35,3074           75345                           DLOAD    SIGN                                  #  REPLACE TIME WITH MAX TIME SIGNED
000592: 35,3075           03574                                    SECMAX
000593: 35,3076           77606                           PUSH
000594: 35,3077           51135        OKMAX              SLOAD    BPL                                   #  TEST FIRST ITERATION
000595: 35,3100           03614                                    TITER
000596: 35,3101           73107                                    REPETE
000597: 35,3102           71331                           SSP      DLOAD
000598: 35,3103           03614                                    TITER
000599: 35,3104           37777                           OCT      37777
000600: 35,3105           77650                           GOTO
000601: 35,3106           73145                                    STORDELT
000602: 35,3107           41345        REPETE             DLOAD    DMP
000603: 35,3110           03576                                    DELEL
000604: 35,3111           00033                                    DELELO
000605: 35,3112           71244                           BPL      DLOAD
000606: 35,3113           73123                                    NEXTES
000607: 35,3114           03574                                    SECMAX
000608: 35,3115           77605                           DMP
000609: 35,3116           33645                                    THIRD
000610: 35,3117           17574                           STODL    SECMAX


000612: 35,3120           70446                           ABS      SR1                                   #  CROSSED OVER SOLUTION
000613: 35,3121           52076                           DCOMP    GOTO                                  #  DT=(-SIGN(DTO)//DT//)/2
000614: 35,3122           73133                                    RESIGN
000615: 35,3123           51545        NEXTES             DLOAD    ABS
000616: 35,3124           03576                                    DELEL
000617: 35,3125           51525                           PDDL     ABS
000618: 35,3126           00033                                    DELELO
000619: 35,3127           77625                           DSU
000620: 35,3130           71240                           BMN      DLOAD
000621: 35,3131           73136                                    REVERS                                #  WRONG DIRECTION
000622: 35,3132           77646                           ABS
000623: 35,3133           52165        RESIGN             SIGN     GOTO
000624: 35,3134           03606                                    DELTEEO
000625: 35,3135           73145                                    STORDELT
000626: 35,3136           57545        REVERS             DLOAD    DCOMP
000627: 35,3137           03606                                    DELTEEO
000628: 35,3140           70406                           PUSH     SR1
000629: 35,3141           03606                           STORE    DELTEEO
000630: 35,3142           77615                           DAD
000631: 35,3143           77650                           GOTO
000632: 35,3144           73146                                    ADTIME
000633: 35,3145           03606        STORDELT           STORE    DELTEEO
000634: 35,3146           77615        ADTIME             DAD
000635: 35,3147           02317                                    NOMTPI                                #  SUM OF DELTA T:S
000636: 35,3150           02317                           STORE    NOMTPI
000637: 35,3151           63375                           VLOAD    PDVL
000638: 35,3152           03506                                    VAPREC
000639: 35,3153           03500                                    RAPREC
000640: 35,3154           77624                           CALL
000641: 35,3155           73372                                    GOINT
000642: 35,3156           77624                           CALL
000643: 35,3157           46425                                    ACTIVE                                #  STORE NEW RACT3 VACT3
000644: 35,3160           63375                           VLOAD    PDVL
000645: 35,3161           03530                                    VPPREC
000646: 35,3162           03522                                    RPPREC
000647: 35,3163           77624                           CALL
000648: 35,3164           73372                                    GOINT
000649: 35,3165           77624                           CALL
000650: 35,3166           46435                                    PASSIVE                               #  STORE NEW RPASS3 VPASS3
000651: 35,3167           77650                           GOTO
000652: 35,3170           72714                                    ELCALC
000653: 35,3171           43345        ELEX               DLOAD    DAD
000654: 35,3172           03636                                    TTPI
000655: 35,3173           02317                                    NOMTPI
000656: 35,3174           17636                           STODL    TTPI
000657: 35,3175           77614                           BON
000658: 35,3176           01310                                    ETPIFLAG
000659: 35,3177           73201                                    TIMEX
000660: 35,3200           02257                           STORE    ELEV
000661: 35,3201           52145        TIMEX              DLOAD    GOTO


000663: 35,3202           06524                                    ZEROVECS
000664: 35,3203           03463                                    NORMEX
000665:


000667:                                                                                                  #  ..... S34/35.1 .....
000668:
000669:                                                                                                  #  COMPUTE UNIT NORMAL AND LINE OF SIGHT VECTORS GIVEN THE ACTIVE AND
000670:                                                                                                  #  PASSIVE POS AND VEL AT TIME T3
000671:
000672: 35,3204           52375        S34/35.1           VLOAD    VSU
000673: 35,3205           03552                                    RPASS3
000674: 35,3206           03536                                    RACT3
000675: 35,3207           41456                           UNIT     PUSH
000676: 35,3210           26311                           STOVL    ULOS
000677: 35,3211           03536                                    RACT3
000678: 35,3212           53435                           VXV      UNIT
000679: 35,3213           03544                                    VACT3
000680: 35,3214           02261                           STORE    UNRM
000681: 35,3215           77616                           RVQ
000682:


000684:                                                                                                  #  ..... S34/35.2 .....
000685:
000686:                                                                                                  #  ADVANCE PASSIVE VEH TO RENDEZVOUS TIME AND GET REQ VEL FROM LAMBERT
000687:
000688: 35,3216           77220        S34/35.2           STQ      VLOAD
000689: 35,3217           03470                                    SUBEXIT
000690: 35,3220           03560                                    VPASS3
000691: 35,3221           65315                           PDVL     PDDL
000692: 35,3222           03552                                    RPASS3
000693: 35,3223           03610                                    INTIME
000694: 35,3224           65325                           PDDL     PDDL
000695: 35,3225           03631                                    TPASS4
000696: 35,3226           33641                                    TWOPI                                 #  CONIC
000697: 35,3227           46125                           PDDL     BHIZ
000698: 35,3230           03467                                    NN
000699: 35,3231           73235                                    S3435.23
000700: 35,3232           77745                           DLOAD
000701: 35,3233           41545                           DLOAD    PUSH
000702: 35,3234           06524                                    ZEROVECS                              #  PRECISION
000703: 35,3235           77624        S3435.23           CALL
000704: 35,3236           73376                                    INTINT                                #  GET TARGET VECTOR
000705: 35,3237           27444        S3435.25           STOVL    RTARG
000706: 35,3240           00007                                    VATT
000707: 35,3241           27506                           STOVL    VPASS4
000708: 35,3242           03444                                    RTARG
000709:                                                                                                  #  COMPUTE PHI = PI + (ACOS(UNIT RA.UNIT RP) - PI)SIGN(RA*RP.U)
000710: 35,3243           63256                           UNIT     PDVL                                  #  UNIT RP
000711: 35,3244           03536                                    RACT3
000712: 35,3245           41456                           UNIT     PUSH                                  #  UNIT RA
000713: 35,3246           50235                           VXV      DOT
000714: 35,3247           00001                                    0D
000715: 35,3250           02261                                    UNRM                                  #  RA*RP.U
000716: 35,3251           77715                           PDVL
000717: 35,3252           72441                           DOT      SL1                                   #  UNIT RA.UNIT RP
000718: 35,3253           00001                                    0D
000719: 35,3254           75326                           ACOS     SIGN
000720: 35,3255           43244                           BPL      DAD
000721: 35,3256           73260                                    NOPIE
000722: 35,3257           06532                                    DPPOSMAX                              #  REASONABLE TWO PI
000723: 35,3260           15756        NOPIE              STODL    ACTCENT
000724: 35,3261           03631                                    TPASS4
000725: 35,3262           77625                           DSU
000726: 35,3263           03610                                    INTIME
000727: 35,3264           03452                           STORE    DELLT4
000728: 35,3265           40335                           SLOAD    SETPD
000729: 35,3266           03467                                    NN                                    #  NUMBER OF OFFSETS
000730: 35,3267           00001                                    0D
000731: 35,3270           63325                           PDDL     PDVL
000732: 35,3271           33653                                    EPSFOUR
000733: 35,3272           03536                                    RACT3
000734: 35,3273           26323                           STOVL    RINIT


000736: 35,3274           03544                                    VACT3
000737: 35,3275           36331                           STCALL   VINIT
000738: 35,3276           22000                                    INITVEL
000739: 35,3277           77624                           CALL
000740: 35,3300           73357                                    LOMAT
000741: 35,3301           64375                           VLOAD    MXV
000742: 35,3302           02366                                    DELVEET3
000743: 35,3303           00001                                    0D
000744: 35,3304           77772                           VSL1
000745: 35,3305           37434                           STCALL   DELVLVC
000746: 35,3306           03470                                    SUBEXIT
000747:


000749:                                                                                                  #  ..... S34/35.3 .....
000750:
000751: 35,3307           45020        S34/35.3           STQ      CALL
000752: 35,3310           03463                                    NORMEX
000753: 35,3311           73357                                    LOMAT                                 #  GET MATRIX IN PUSH LIST
000754: 35,3312           61375                           VLOAD    VXM
000755: 35,3313           03434                                    DELVLVC                               #  NEW DEL V TPI
000756: 35,3314           00001                                    0D
000757: 35,3315           77772                           VSL1
000758: 35,3316           02366                           STORE    DELVEET3                              #  SAVE FOR TRANSFORM
000759: 35,3317           63255                           VAD      PDVL
000760: 35,3320           03544                                    VACT3                                 #  NEW V REQ
000761: 35,3321           03536                                    RACT3
000762: 35,3322           65325                           PDDL     PDDL
000763: 35,3323           03442                                    TIG
000764: 35,3324           03631                                    TPASS4
000765: 35,3325           41525                           PDDL     PUSH
000766: 35,3326           06532                                    DPPOSMAX
000767: 35,3327           77624                           CALL                                           #  INTEG. FOR NEW TARGET VEC
000768: 35,3330           73376                                    INTINT
000769: 35,3331           77775                           VLOAD
000770: 35,3332           00001                                    RATT
000771: 35,3333           03444                           STORE    RTARG
000772: 35,3334           41575        NOVRWRT            VLOAD    PUSH
000773: 35,3335           02311                                    ULOS
000774: 35,3336           57435                           VXV      VCOMP
000775: 35,3337           02261                                    UNRM
000776: 35,3340           41456                           UNIT     PUSH
000777: 35,3341           76435                           VXV      VSL1
000778: 35,3342           02311                                    ULOS
000779: 35,3343           77715                           PDVL
000780: 35,3344           64315                           PDVL     MXV
000781: 35,3345           02366                                    DELVEET3
000782: 35,3346           00001                                    0D
000783: 35,3347           77772                           VSL1
000784: 35,3350           36303                           STCALL   DVLOS
000785: 35,3351           03463                                    NORMEX
000786:


000788:                                                                                                  #  ..... S34/35.4 .....
000789:
000790: 35,3352           40220        S34/35.4           STQ      SETPD                                 #  NO ASTRONAUT OVERWRITE
000791: 35,3353           03463                                    NORMEX
000792: 35,3354           00001                                    0D
000793: 35,3355           77650                           GOTO
000794: 35,3356           73334                                    NOVRWRT
000795:


000797:                                                                                                  #  ..... LOMAT .....
000798:
000799: 35,3357           57575        LOMAT              VLOAD    VCOMP
000800: 35,3360           02261                                    UNRM
000801: 35,3361           24007                           STOVL    6D                                    #  Y
000802: 35,3362           03536                                    RACT3
000803: 35,3363           57456                           UNIT     VCOMP
000804: 35,3364           00015                           STORE    12D
000805: 35,3365           76435                           VXV      VSL1
000806: 35,3366           02261                                    UNRM                                  #  Z*-Y
000807: 35,3367           00001                           STORE    0D
000808: 35,3370           43401                           SETPD    RVQ
000809: 35,3371           00023                                    18D
000810: 35,3372           65325        GOINT              PDDL     PDDL                                  #  DO
000811: 35,3373           06524                                    ZEROVECS                              #        NOT
000812: 35,3374           02317                                    NOMTPI
000813: 35,3375           41406                           PUSH     PUSH                                  #                ORDER OR INSERT BEFORE INTINT
000814: 35,3376           45020        INTINT             STQ      CALL
000815: 35,3377           03465                                    RTRN
000816: 35,3400           27412                                    INTSTALL
000817: 35,3401           71214                           CLEAR    DLOAD
000818: 35,3402           01673                                    INTYPFLG
000819: 35,3403           43054                           BZE      SET
000820: 35,3404           73406                                    +2
000821: 35,3405           01473                                    INTYPFLG
000822: 35,3406           45545                           DLOAD    STADR
000823: 35,3407           63736                           STODL    TDEC1
000824: 35,3410           73014                           SET      LXA,2
000825: 35,3411           00063                                    MOONFLAG
000826: 35,3412           02777                                    RTX2
000827: 35,3413           43014                           BON      CLEAR
000828: 35,3414           04303                                    CMOONFLG
000829: 35,3415           73417                                    ALLSET
000830: 35,3416           00263                                    MOONFLAG
000831: 35,3417           25517        ALLSET             STOVL    TET
000832: 35,3420           77657                           VSR*
000833: 35,3421           57176                                    0,2
000834: 35,3422           25535                           STOVL    RCV
000835: 35,3423           77657                           VSR*
000836: 35,3424           57176                                    0,2
000837: 35,3425           35543                           STCALL   VCV
000838: 35,3426           27110                                    INTEGRVS
000839: 35,3427           52175                           VLOAD    GOTO
000840: 35,3430           00001                                    RATT
000841: 35,3431           03465                                    RTRN
000842:


000844:                                                                                                  #  ..... S34/35.5 .....
000845:                                                                                                  #  SUBROUTINES USED
000846:                                                                                                  #        BANKCALL
000847:                                                                                                  #        GOFLASH
000848:                                                                                                  #        GOTOPOOH
000849:                                                                                                  #        S34/35.3
000850:                                                                                                  #        S34/35.4
000851:                                                                                                  #        VNPOOH
000852:
000853: 35,3432           43020        S34/35.5           STQ      BON
000854: 35,3433           03470                                    SUBEXIT
000855: 35,3434           01311                                    FINALFLG
000856: 35,3435           73441                                    FLAGON
000857: 35,3436           52014                           SET      GOTO
000858: 35,3437           00470                                    UPDATFLG
000859: 35,3440           73505                                    FLAGOFF
000860: 35,3441           77214        FLAGON             CLEAR    VLOAD
000861: 35,3442           03274                                    NTARGFLG
000862: 35,3443           03434                                    DELVLVC
000863: 35,3444           01236                           STORE    GDT/2
000864: 35,3445           77776                           EXIT
000865: 35,3446           33636                 +5        CAF      V06N81
000866: 35,3447           04616                           TC       BANKCALL
000867: 35,3450           20477                           CADR     GOFLASH
000868: 35,3451           06001                           TC       GOTOPOOH
000869: 35,3452           03454                           TC       +2                                    #  PRO
000870: 35,3453           03446                           TC       FLAGON     +5                         #  LOAD
000871: 35,3454           35016                 +2        CA       EBANK7
000872: 35,3455           54003                           TS       EBANK                                 #  TO BE SURE
000873:
000874: 35,3456           22007                           ZL
000875: 35,3457           34756                           CA       FIVE
000876: 35,3460           54002        NTARGCHK           TS       Q
000877: 35,3461           50002                           INDEX    Q
000878: 35,3462           41433                           CS       DELVLVC
000879: 35,3463           50002                           INDEX    Q
000880: 35,3464           61235                           AD       GDT/2
000881: 35,3465           26001                           ADS      L
000882: 35,3466           10002                           CCS      Q
000883: 35,3467           13460                           TCF      NTARGCHK
000884: 35,3470           22000                           LXCH     A
000885: 35,3471           00006                           EXTEND
000886: 35,3472           13475                           BZF      +3
000887: 35,3473           05504                           TC       UPFLAG
000888: 35,3474           00146                           ADRES    NTARGFLG
000889:
000890: 35,3475           06042                           TC       INTPRET
000891: 35,3476           45014                           BOFF     CALL
000892: 35,3477           03354                                    NTARGFLG


000894: 35,3500           73502                                    NOCHG
000895: 35,3501           73307                                    S34/35.3
000896: 35,3502           77775        NOCHG              VLOAD
000897: 35,3503           02366                                    DELVEET3
000898: 35,3504           03656                           STORE    DELVSIN
000899: 35,3505           77624        FLAGOFF            CALL
000900: 35,3506           73352                                    S34/35.4
000901: 35,3507           77776                           EXIT
000902: 35,3510           33635                           CAF      V06N59
000903: 35,3511           03621                           TC       VNPOOH
000904: 35,3512           06042                           TC       INTPRET
000905: 35,3513           77650                           GOTO
000906: 35,3514           03470                                    SUBEXIT
000907:


000909:                                                                                                  #  ..... VN1645 .....
000910:
000911:                                                                                                  #  SUBROUTINES USED
000912:                                                                                                  #        P3XORP7X
000913:                                                                                                  #        GET+MGA
000914:                                                                                                  #        BANKCALL
000915:                                                                                                  #        DELAYJOB
000916:                                                                                                  #        COMPTGO
000917:                                                                                                  #        GOFLASHR
000918:                                                                                                  #        GOTOPOOH
000919:                                                                                                  #        FLAGUP
000920:
000921: 35,3515           71220        VN1645             STQ      DLOAD
000922: 35,3516           03470                                    SUBEXIT
000923: 35,3517           33651                                    DP-.01
000924: 35,3520           02253                           STORE    +MGA                                  #  MGA = -.01
000925: 35,3521           71214                           BOFF     DLOAD
000926: 35,3522           01351                                    FINALFLG
000927: 35,3523           73543                                    GET45
000928: 35,3524           33651                                    DP-.01
000929: 35,3525           77615                           DAD
000930: 35,3526           33651                                    DP-.01
000931: 35,3527           02253                           STORE    +MGA                                  #  MGA = -.02
000932: 35,3530           77414                           BOFF     EXIT
000933: 35,3531           01742                                    REFSMFLG
000934: 35,3532           73543                                    GET45
000935: 35,3533           03613                           TC       P3XORP7X
000936: 35,3534           03536                           TC       +2                                    #  P3X
000937: 35,3535           03544                           TC       GET45      +1                         #  P7X
000938: 35,3536           06042                           TC       INTPRET
000939: 35,3537           41575                           VLOAD    PUSH
000940: 35,3540           03656                                    DELVSIN
000941: 35,3541           77624                           CALL                                           #  COMPUTE MGA
000942: 35,3542           15725                                    GET+MGA
000943: 35,3543           77776        GET45              EXIT
000944: 35,3544           02437                           TC       COMPTGO                               #  INITIATE TASK TO UPDATE TTOGO
000945: 35,3545           31470                           CA       SUBEXIT
000946: 35,3546           55464                           TS       QSAVED
000947: 35,3547           34777                           CAF      1SEC
000948: 35,3550           04616                           TC       BANKCALL
000949: 35,3551           01736                           CADR     DELAYJOB
000950: 35,3552           33637                           CAF      V16N45                                #  TRKMKCNT, TTOGO, +MGA
000951: 35,3553           04616                           TC       BANKCALL
000952: 35,3554           20477                           CADR     GOFLASH
000953: 35,3555           03560                           TC       KILCLOCK                              #  TERMINATE
000954: 35,3556           03563                           TC       N45PROC                               #  PROCEED
000955: 35,3557           03573                           TC       CLUPDATE                              #  RECYCLE - RETURN FOR INITIAL COMPUTATION
000956: 35,3560           30005        KILCLOCK           CA       Z
000957: 35,3561           55162                           TS       DISPDEX


000959: 35,3562           06001                           TC       GOTOPOOH
000960: 35,3563           40076        N45PROC            CS       FLAGWRD2
000961: 35,3564           74746                           MASK     BIT6
000962: 35,3565           00006                           EXTEND
000963: 35,3566           13560                           BZF      KILCLOCK                              #  FINALFLG IS SET - FLASH V37 - AWAIT NEW PGM
000964: 35,3567           05353                           TC       PHASCHNG
000965: 35,3570           04024                           OCT      04024
000966: 35,3571           05504                           TC       UPFLAG                                #  SET
000967: 35,3572           00047                           ADRES    FINALFLG                              #  FINALFLG
000968: 35,3573           30005        CLUPDATE           CA       Z
000969: 35,3574           55162                           TS       DISPDEX
000970: 35,3575           05353                           TC       PHASCHNG
000971: 35,3576           04024                           OCT      04024
000972: 35,3577           06042                           TC       INTPRET
000973: 35,3600           52014                           CLEAR    GOTO
000974: 35,3601           00670                                    UPDATFLG
000975: 35,3602           03464                                    QSAVED
000976:


000978:                                                                                                  #  ..... DISPLAYE .....
000979:
000980:                                                                                                  #  SUBROUTINES USED
000981:                                                                                                  #        BANKCALL
000982:                                                                                                  #        GOFLASHR
000983:                                                                                                  #        GOTOPOOH
000984:                                                                                                  #        BLANKET
000985:                                                                                                  #        ENDOFJOB
000986:
000987: 35,3603           00006        DISPLAYE           EXTEND
000988: 35,3604           23463                           QXCH     NORMEX
000989: 35,3605           33633                           CAF      V06N55
000990: 35,3606           04616                           TCR      BANKCALL
000991: 35,3607           20477                           CADR     GOFLASH
000992: 35,3610           16001                           TCF      GOTOPOOH
000993: 35,3611           01463                           TC       NORMEX
000994: 35,3612           13605                           TCF      -5
000995:


000997:                                                                                                  #  ..... P3XORP7X .....
000998:
000999: 35,3613           37747        P3XORP7X           CAF      HIGH9
001000: 35,3614           71010                           MASK     MODREG
001001: 35,3615           00006                           EXTEND
001002: 35,3616           13620                           BZF      +2
001003: 35,3617           24002                           INCR     Q
001004: 35,3620           00002                           RETURN
001005:
001006:                                                                                                  #  ..... VNPOOH .....
001007:
001008:                                                                                                  #  SUBROUTINES USED
001009:                                                                                                  #        BANKCALL
001010:                                                                                                  #        GOFLASH
001011:                                                                                                  #        GOTOPOOH
001012:
001013: 35,3621           00006        VNPOOH             EXTEND
001014: 35,3622           23465                           QXCH     RTRN
001015: 35,3623           55615                           TS       VERBNOUN
001016: 35,3624           31615                           CA       VERBNOUN
001017: 35,3625           04616                           TCR      BANKCALL
001018: 35,3626           20477                           CADR     GOFLASH
001019: 35,3627           16001                           TCF      GOTOPOOH
001020: 35,3630           01465                           TC       RTRN
001021: 35,3631           13624                           TCF      -5
001022:


001024:                                                                                                  #  ..... CONSTANTS .....
001025:
001026: 35,3632           01445        V06N37             VN       0637
001027: 35,3633           01467        V06N55             VN       0655
001028: 35,3634           01472        V06N58             VN       0658
001029: 35,3635           01473        V06N59             VN       0659
001030: 35,3636           01521        V06N81             VN       0681
001031: 35,3637           04055        V16N45             VN       1645
001032: 35,3640           14441 37325  TWOPI              2DEC     6.283185307 B-4
001033:
001034: 35,3642           00001 20650  MAX250             2DEC     25         E3
001035:
001036: 35,3644           12525 12525  THIRD              2DEC     .333333333
001037:
001038: 35,3646           00004 21505  ELEPS              2DEC     .27777777  E-3
001039:
001040: 35,3650           77777        DP-.01             OCT      77777                                 #  CONSTANTS
001041: 35,3651           61337                           OCT      61337                                 #  ADJACENT      -.01 FOR MGA DSP
001042: 35,3652           01252 25253  EPSFOUR            2DEC     .0416666666
001043:
001044: 35,3654           13434 16162  130DEG             2DEC     .3611111111
001045:


001047:                                                                                                  #  ..... INITVEL .....
001048:
001049:                                                                                                  #  MOD NO -1                     LOG SECTION - P34-P35, P74-P75
001050:                                                                                                  #  MOD BY WHITE.P                DATE  21NOV67
001051:
001052:                                                                                                  #  FUNCTIONAL DESCRIPTION
001053:
001054:                                                                                                  #        THIS SUBROUTINE COMPUTES THE REQUIRED INITIAL VELOCITY VECTOR FOR
001055:                                                                                                  #        A TRAJECTORY OF SPECIFIED TRANSFER TIME BETWEEN SPECIFIED INITIAL
001056:                                                                                                  #        AND TARGET POSITIONS.  THE TRAJECTORY MAY BE EITHER CONIC OR
001057:                                                                                                  #        PRECISION DEPENDING ON AN INPUT PARAMETER (NAMELY, NUMBER OF
001058:                                                                                                  #        OFFSETS).  IN ADDITION, IN THE PRECISION TRAJECTORY CASE, THE
001059:                                                                                                  #        SUBROUTINE ALSO COMPUTES AN OFFSET TARGET VECTOR, TO BE USED
001060:                                                                                                  #        DURING PURE-CONIC CROSS-PRODUCT STEERING.  THE OFFSET TARGET
001061:                                                                                                  #        VECTOR IS THE TERMINAL POSITION VECTOR OF A CONIC TRAJECTORY WHICH
001062:                                                                                                  #        HAS THE SAME INITIAL STATE AS A PRECISION TRAJECTORY WHOSE
001063:                                                                                                  #        TERMINAL POSITION VECTOR IS THE SPECIFIED TARGET VECTOR.
001064:
001065:                                                                                                  #        IN ORDER TO AVOID THE INHERENT SINGULARITIES IN THE 180 DEGREE
001066:                                                                                                  #        TRANSFER CASE WHEN THE (TRUE OR OFFSET) TARGET VECTOR MAY BE
001067:                                                                                                  #        SLIGHTLY OUT OF THE ORBITAL PLANE, THIS SUBROUTINE ROTATES THIS
001068:                                                                                                  #        VECTOR INTO A PLANE DEFINED BY THE INPUT INITIAL POSITION VECTOR
001069:                                                                                                  #        AND ANOTHER INPUT VECTOR (USUALLY THE INITIAL VELOCITY VECTOR),
001070:                                                                                                  #        WHENEVER THE INPUT TARGET VECTOR LIES INSIDE A CONE WHOSE VERTEX
001071:                                                                                                  #        IS THE ORIGIN OF COORDINATES, WHOSE AXIS IS THE 180 DEGREE
001072:                                                                                                  #        TRANSFER DIRECTION, AND WHOSE CONE ANGLE IS SPECIFIED BY THE USER.
001073:
001074:                                                                                                  #        THE LAMBERT SUBROUTINE IS UTILIZED FOR THE CONIC COMPUTATIONS AND
001075:                                                                                                  #        THE COASTING INTEGRATION SUBROUTINE IS UTILIZED FOR THE PRECISION
001076:                                                                                                  #        TRAJECTORY COMPUTATIONS.
001077:
001078:                                                                                                  #  CALLING SEQUENCE
001079:
001080:                                                                                                  #        L       CALL
001081:                                                                                                  #        L+1             INITVEL
001082:                                                                                                  #        L+2     (RETURN - ALWAYS)
001083:
001084:                                                                                                  #  INPUT
001085:
001086:                                                                                                  #        (1)     RINIT           INITIAL POSITION RADIUS VECTOR
001087:                                                                                                  #        (2)     VINIT           INITIAL POSITION VELOCITY VECTOR
001088:                                                                                                  #        (3)     RTARG           TARGET POSITION RADIUS VECTOR
001089:                                                                                                  #        (4)     DELLT4          DESIRED TIME OF FLIGHT FROM RINIT TO RTARG
001090:                                                                                                  #        (5)     INTIME          TIME OF RINIT
001091:                                                                                                  #        (6)     0D              NUMBER OF ITERATIONS OF LAMBERT/INTEGRVS
001092:                                                                                                  #        (7)     2D              ANGLE TO 180 DEGREES WHEN ROTATION STARTS
001093:                                                                                                  #        (8)     RTX1            -2 FOR EARTH, -10D FOR LUNAR
001094:                                                                                                  #        (9)     RTX2            COORDINATE SYSTEM ORIGIN - 0 FOR EARTH, 2 FOR LUNAR
001095:                                                                                                  #        PUSHLOC SET AT 4D
001096:


001098:                                                                                                  #  OUTPUT
001099:
001100:                                                                                                  #        (1)     RTARG           OFFSET TARGET POSITION VECTOR
001101:                                                                                                  #        (2)     VIPRIME         MANEUVER VELOCITY REQUIRED
001102:                                                                                                  #        (3)     VTPRIME         VELOCITY AT TARGET AFTER MANEUVER
001103:                                                                                                  #        (4)     DELVEET3        DELTA VELOCITY REQUIRED FOR MANEUVER
001104:
001105:                                                                                                  #  SUBROUTINES USED
001106:
001107:                                                                                                  #        LAMBERT
001108:                                                                                                  #        INTSTALL
001109:                                                                                                  #        INTEGRVS
001110:
001111: 11,2000                                           SETLOC   INTVEL
001112: 11,2000                                           BANK
001113:
001114: 11,2000                                           COUNT*   $$/INITV
001115: 11,2000           77614        INITVEL            SET                                            #  COGA GUESS NOT AVAILABLE
001116: 11,2001           00475                                    GUESSW
001117: 11,2002           44175        HAVEGUES           VLOAD    STQ
001118: 11,2003           03444                                    RTARG
001119: 11,2004           03463                                    NORMEX
001120: 11,2005           03472                           STORE    RTARG1
001121: 11,2006           77646                           ABVAL
001122: 11,2007           03723                           STORE    RTMAG
001123: 11,2010           46135                           SLOAD    BHIZ
001124: 11,2011           03000                                    RTX2
001125: 11,2012           22026                                    INITVEL1
001126: 11,2013           72575                           VLOAD    VSL2
001127: 11,2014           02323                                    RINIT                                 #  B29
001128: 11,2015           26323                           STOVL    RINIT                                 #  B27
001129: 11,2016           02331                                    VINIT                                 #  B7
001130: 11,2017           77752                           VSL2
001131: 11,2020           26331                           STOVL    VINIT                                 #  B5
001132: 11,2021           03472                                    RTARG1
001133: 11,2022           77752                           VSL2
001134: 11,2023           03472                           STORE    RTARG1
001135: 11,2024           77646                           ABVAL
001136: 11,2025           03723                           STORE    RTMAG
001137:
001138:                                                                                                  #  INITIALIZATION
001139:
001140: 11,2026           71331        INITVEL1           SSP      DLOAD                                 #  SET ITCTR TO -1,LOAD MPAC WITH E4 (PL 2D)
001141: 11,2027           03617                                    ITCTR
001142: 11,2030           77776                                    0          -1
001143: 11,2031           70546                           COSINE   SR1                                   #  CALCULATE COSINE (E4) (+2)
001144: 11,2032           17667                           STODL    COZY4                                 #  SET COZY4 TO COSINE (E4)          (PL 0D)
001145: 11,2033           67154                           LXA,2    SXA,2
001146: 11,2034           00154                                    MPAC
001147: 11,2035           02701                                    VTARGTAG                              #  SET VTARGTAG TO 0D (SP)
001148: 11,2036           77775                           VLOAD


001150: 11,2037           02323                                    RINIT
001151: 11,2040           26655                           STOVL    R1VEC                                 #  R1VEC EQ RINIT
001152: 11,2041           03472                                    RTARG1
001153: 11,2042           16663                           STODL    R2VEC                                 #  R2VEC EQ RTARG
001154: 11,2043           03452                                    DELLT4
001155: 11,2044           02671                           STORE    TDESIRED                              #  TDESIRED EQ DELLT4
001156: 11,2045           77201                           SETPD    VLOAD
001157: 11,2046           00001                                    0D                                    #  INITIALIZE PL TO 0D
001158: 11,2047           02323                                    RINIT                                 #  MPAC EQ RINIT (+29)
001159: 11,2050           41456                           UNIT     PUSH                                  #  UNIT(RI) (+1)                     (PL 6D)
001160: 11,2051           53435                           VXV      UNIT
001161: 11,2052           02331                                    VINIT                                 #  MPAC EQ UNIT(RI) X VI (+8)
001162: 11,2053           26674                           STOVL    UN
001163: 11,2054           03472                                    RTARG1
001164: 11,2055           50256                           UNIT     DOT                                   #  TEMP=URT.URI (+2)                 (PL 0D)
001165: 11,2056           43015                           DAD      CLEAR
001166: 11,2057           03667                                    COZY4
001167: 11,2060           03665                                    NORMSW
001168: 11,2061           03667                           STORE    COZY4
001169: 11,2062           43044        INITVEL2           BPL      SET
001170: 11,2063           22105                                    INITVEL3                              #  UN CALCULATED IN LAMBERT
001171: 11,2064           03465                                    NORMSW
001172:
001173:                                                                                                  #  ROTATE RC INTO YC PLANE - SET UNIT NORMAL TO YC
001174:
001175: 11,2065           41575                           VLOAD    PUSH                                  #                                    (PL 6D)
001176: 11,2066           02663                                    R2VEC                                 #  RC TO 6D (+29)
001177: 11,2067           63246                           ABVAL    PDVL                                  #  RC TO MPAC, ABVAL(RC) (+29) TO OD (PL 2D)
001178: 11,2070           46206                           PUSH     VPROJ                                 #                                    (PL 8D)
001179: 11,2071           02674                                    UN
001180: 11,2072           51352                           VSL2     BVSU
001181: 11,2073           74256                           UNIT     VXSC                                  #                                    (PL 0D)
001182: 11,2074           77772                           VSL1
001183: 11,2075           02663                           STORE    R2VEC
001184: 11,2076           67351                           TLOAD    SLOAD
001185: 11,2077           24007                                    ZEROVEC
001186: 11,2100           03617                                    ITCTR
001187: 11,2101           77244                           BPL      VLOAD
001188: 11,2102           22105                                    INITVEL3
001189: 11,2103           02663                                    R2VEC
001190: 11,2104           03472                           STORE    RTARG1
001191: 11,2105           63345        INITVEL3           DLOAD    PDVL                                  #                                    (PL 2D)
001192: 11,2106           26007                                    MUEARTH                               #  POSITIVE VALUE
001193: 11,2107           02663                                    R2VEC
001194: 11,2110           63256                           UNIT     PDVL                                  #  2D = UNIT(R2VEC)                  (PL 8D)
001195: 11,2111           02655                                    R1VEC
001196: 11,2112           41456                           UNIT     PUSH                                  #  8D = UNIT(R1VEC)                 (PL 14D)
001197: 11,2113           57435                           VXV      VCOMP                                 #  -N = UNIT(R2VEC) X UNIT(R1VEC)
001198: 11,2114           00003                                    2D
001199: 11,2115           77606                           PUSH                                           #                                   (PL 20D)
001200: 11,2116           71350                           LXA,1    DLOAD


001202: 11,2117           02776                                    RTX1
001203: 11,2120           00023                                    18D
001204: 11,2121           62040                           BMN      INCR,1
001205: 11,2122           22124                                    +2
001206: 11,2123           77767                           DEC      -8         B-14
001207: 11,2124           67310                           INCR,1   SLOAD
001208: 11,2125           00012                                    10D
001209: 11,2126           00047                                    X1
001210: 11,2127           77230                           BHIZ     VLOAD                                 #                                   (PL 14D)
001211: 11,2130           22132                                    +2
001212: 11,2131           41476                           VCOMP    PUSH                                  #                                   (PL 20D)
001213: 11,2132           77775                           VLOAD                                          #                                   (PL 14D)
001214: 11,2133           50235                           VXV      DOT                                   #                                    (PL 2D)
001215: 11,2134           71244                           BPL      DLOAD                                 #                                    (PL 0D)
001216: 11,2135           22137                                    INITVEL4
001217: 11,2136           41476                           DCOMP    PUSH                                  #                                    (PL 2D)
001218: 11,2137           67154        INITVEL4           LXA,2    SXA,2
001219: 11,2140           00000                                    0D
001220: 11,2141           02672                                    GEOMSGN
001221:
001222:                                                                                                  #  SET INPUTS UP FOR LAMBERT
001223:
001224: 11,2142           66350                           LXA,1    SSP
001225: 11,2143           02776                                    RTX1
001226: 11,2144           00027                                    ITERCTR
001227: 11,2145           00024                                    20D
001228:
001229:                                                                                                  #   OPERATE THE LAMBERT CONIC ROUTINE (COASTFLT SUBROUTINE)
001230:
001231: 11,2146           77624                           CALL
001232: 11,2147           25212                                    LAMBERT
001233:
001234:                                                                                                  #  ARRIVED AT SOLUTION IS GOOD ENOUGH ACCORDING TO SLIGHTLY WIDER BOUNDS.
001235:
001236: 11,2150           77214                           CLEAR    VLOAD
001237: 11,2151           00675                                    GUESSW
001238: 11,2152           02744                                    VVEC
001239:
001240:                                                                                                  #  STORE CALCULATED INITIAL VELOCITY REQUIRED IN VIPRIME
001241:
001242: 11,2153           16337                           STODL    VIPRIME                               #  INITIAL VELOCITY REQUIRED (+7)
001243:
001244:                                                                                                  #  IF NUMIT IS ZERO, CONTINUE AT INITVELB, OTHERWISE
001245:                                                                                                  #  SET UP INPUTS FOR ENCKE INTEGRATION (INTEGRVS).
001246:
001247: 11,2154           02702                                    VTARGTAG
001248: 11,2155           45030                           BHIZ     CALL
001249: 11,2156           22233                                    INITVEL7
001250: 11,2157           27412                                    INTSTALL
001251: 11,2160           43135                           SLOAD    CLEAR
001252: 11,2161           03000                                    RTX2
001253: 11,2162           00263                                    MOONFLAG
001254: 11,2163           43030                           BHIZ     SET


001256: 11,2164           22166                                    INITVEL5
001257: 11,2165           00063                                    MOONFLAG
001258: 11,2166           77775        INITVEL5           VLOAD
001259: 11,2167           02323                                    RINIT
001260: 11,2170           02655                           STORE    R1VEC
001261: 11,2171           25535                           STOVL    RCV
001262: 11,2172           02337                                    VIPRIME
001263: 11,2173           15543                           STODL    VCV
001264: 11,2174           03610                                    INTIME
001265: 11,2175           01517                           STORE    TET
001266: 11,2176           43015                           DAD      CLEAR
001267: 11,2177           03452                                    DELLT4
001268: 11,2200           01673                                    INTYPFLG
001269: 11,2201           34041                           STCALL   TDEC1
001270: 11,2202           27110                                    INTEGRVS
001271: 11,2203           77775                           VLOAD
001272: 11,2204           00025                                    VATT1
001273: 11,2205           02703                           STORE    VTARGET
001274:
001275:                                                                                                  #  IF ITERATION COUNTER (ITCTR) EQ NO. ITERATIONS (NUMIT), CONTINUE AT
001276:                                                                                                  #  INITVELC, OTHERWISE REITERATE LAMBERT AND ENCKE
001277:
001278: 11,2206           63154                           LXA,2    INCR,2
001279: 11,2207           03616                                    ITCTR
001280: 11,2210           00001                                    1D                                    #  INCREMENT ITCTR
001281: 11,2211           55134                           SXA,2    XSU,2
001282: 11,2212           03616                                    ITCTR
001283: 11,2213           02701                                    VTARGTAG
001284: 11,2214           46135                           SLOAD    BHIZ                                  #  IF SP(MPAC) EQ 0, CONTINUE AT INITVELC
001285: 11,2215           00050                                    X2
001286: 11,2216           22230                                    INITVEL6
001287:
001288:                                                                                                  #  OFFSET CONIC TARGET VECTOR
001289:
001290: 11,2217           52375                           VLOAD    VSU
001291: 11,2220           03472                                    RTARG1
001292: 11,2221           00017                                    RATT1
001293: 11,2222           77655                           VAD
001294: 11,2223           02663                                    R2VEC
001295: 11,2224           16663                           STODL    R2VEC
001296: 11,2225           03667                                    COZY4
001297: 11,2226           77650                           GOTO
001298: 11,2227           22062                                    INITVEL2                              #  CONTINUE ITERATING AT INITVEL2
001299:
001300:                                                                                                  #  COMPUTE THE DELTA VELOCITY
001301:
001302: 11,2230           77775        INITVEL6           VLOAD
001303: 11,2231           02663                                    R2VEC
001304: 11,2232           03472                           STORE    RTARG1
001305: 11,2233           52375        INITVEL7           VLOAD    VSU
001306: 11,2234           02337                                    VIPRIME
001307: 11,2235           02331                                    VINIT


001309: 11,2236           26366                           STOVL    DELVEET3                              #  DELVEET3 = VIPRIME-VINIT (+7)
001310: 11,2237           02703                                    VTARGET
001311: 11,2240           03566                           STORE    VTPRIME
001312: 11,2241           46135                           SLOAD    BHIZ
001313: 11,2242           03000                                    RTX2
001314: 11,2243           22260                                    INITVELX
001315: 11,2244           70575                           VLOAD    VSR2
001316: 11,2245           03566                                    VTPRIME
001317: 11,2246           27566                           STOVL    VTPRIME
001318: 11,2247           02337                                    VIPRIME
001319: 11,2250           77742                           VSR2
001320: 11,2251           26337                           STOVL    VIPRIME
001321: 11,2252           03472                                    RTARG1
001322: 11,2253           77742                           VSR2
001323: 11,2254           27472                           STOVL    RTARG1
001324: 11,2255           02366                                    DELVEET3
001325: 11,2256           77742                           VSR2
001326: 11,2257           02366                           STORE    DELVEET3
001327: 11,2260           70750        INITVELX           LXA,1    DLOAD*
001328: 11,2261           02776                                    RTX1
001329: 11,2262           10003                                    MUTABLE    -2,1
001330: 11,2263           41206                           PUSH     DMP
001331: 11,2264           02742                                    R1A
001332: 11,2265           56342                           SR1      DDV
001333: 11,2266           00041                                    R1
001334: 11,2267           17721                           STODL    MU/A
001335: 11,2270           77661                           SR
001336: 11,2271           20607                                    6
001337: 11,2272           03717                           STORE    MUASTEER
001338: 11,2273           77201                           SETPD    VLOAD
001339: 11,2274           00001                                    0D
001340: 11,2275           03472                                    RTARG1
001341: 11,2276           03444                           STORE    RTARG
001342: 11,2277           52014                           CLEAR    GOTO
001343: 11,2300           01267                                    XDELVFLG
001344: 11,2301           03463                                    NORMEX
001345:
001346:                                                                                                  #  ..... END OF INITVEL ROUTINE .....
001347:


001349:                                                                                                  #  ..... MIDGIM .....
001350:
001351:                                                                                                  #  MOD NO. 0, BY WILLMAN, SUBROUTINE RENDGUID, LOG P34-P35, P74-P75
001352:                                                                                                  #  REVISION 03, 17 FEB 67
001353:
001354:                                                                                                  #  IF THE ACTIVE VEHICLE IS DOING THE COMPUTATION, MIDGIM COMPUTES
001355:                                                                                                  #  THE POSITIVE MIDDLE GIMBAL ANGLE OF THE ACTIVE VEHICLE TO THE INPUT
001356:                                                                                                  #  DELTA VELOCITY VECTOR (0D IN PUSH LIST), OTHERWISE
001357:                                                                                                  #  MIDGIM CONVERTS THE INPUT DELTA VELOCITY VECTOR FROM INERTIAL COORDIN-
001358:                                                                                                  #  ATES TO LOCAL VERTICAL COORDINATES OF THE ACTIVE VEHICLE.
001359:
001360:                                                                                                  #  .. INPUTS ..
001361:
001362:                                                                                                  #        NAME    MEANING                                         UNITS/SCALING/MODE
001363:
001364:                                                                                                  #        AVFLAG  INT FLAG - 0 IS CSM ACTIVE, 1 IS LEM ACTIVE                     BIT
001365:                                                                                                  #        RINIT   ACTIVE VEHICLE RADIUS VECTOR                    METERS/CSEC (+7) VT
001366:                                                                                                  #        VINIT   ACTIVE VEHICLE VELOCITY VECTOR                  METERS/CSEC (+7) VT
001367:                                                                                                  #        0D(PL)  ACTIVE VEHICLE DELTA VELOCITY VECTOR            METERS/CSEC (+7) VT
001368:
001369:                                                                                                  #  .. OUTPUTS ..
001370:
001371:                                                                                                  #     NAME       MEANING                                         UNITS/SCALING/MODE
001372:
001373:                                                                                                  #     +MGA       + MIDDLE GIMBAL ANGLE                           REVOLUTIONS (+0) DP
001374:                                                                                                  #     DELVLVC    DELTA VELOCITY VECTOR IN LV COORD.              METERS/CSEC (+7) VT
001375:                                                                                                  #     MGLVFLAG   INT FLAG - 0 IS +MGA COMPUTED, 1 IS DELVLVC COMP.       -       BIT
001376:
001377:                                                                                                  #  .. CALLING SEQUENCE ..
001378:
001379:                                                                                                  #        L       CALL
001380:                                                                                                  #        L+1             MIDGIM
001381:                                                                                                  #        L+2     (RETURN - ALWAYS)
001382:
001383:                                                                                                  #  .. NO SUBROUTINES CALLED ..
001384:
001385:                                                                                                  #  .. DEBRIS - ERASEABLE TEMPORARY USAGE
001386:
001387:                                                                                                  #        A,Q,L, PUSH LIST, MPAC.
001388:
001389:                                                                                                  #  .. ALARMS - NONE ..
001390:


001392:                                                                                                  #  MIDDLE GIMBAL ANGLE COMPUTATION.
001393:
001394: 06,2000                                           SETLOC   MIDDGIM
001395: 06,2000                                           BANK
001396:
001397: 06,3723                                           COUNT*   $$/MIDG
001398:
001399: 06,3723           20000 00000  HALFREV            2DEC     1          B-1
001400:
001401: 06,3725           53575        GET+MGA            VLOAD    UNIT                                  #  (PL 0D) V (+7) TO MPAC, UNITIZE UV (+1)
001402: 06,3726           77656                           UNIT
001403: 06,3727           72441                           DOT      SL1                                   #  DOT UV WITH Y(STABLE MEMBER) AND RESCALE
001404: 06,3730           01742                                    REFSMMAT   +6                         #  FROM +2 TO +1 FOR ASIN ROUTINE
001405: 06,3731           51136                           ARCSIN   BPL
001406: 06,3732           15736                                    SETMGA
001407: 06,3733           43215                           DAD      DAD                                   #  CONVERT -MGA TO +MGA BY
001408: 06,3734           15724                                    HALFREV                               #  ADDING ONE REVOLUTION
001409: 06,3735           15724                                    HALFREV
001410: 06,3736           02253        SETMGA             STORE    +MGA
001411: 06,3737           43414                           CLR      RVQ                                   #  CLEAR MGLVFLAG TO INDICATE +MGA CALC
001412: 06,3740           02675                                    MGLVFLAG                              #  AND EXIT
001413: 06,3741           53575        GET.LVC            VLOAD    UNIT                                  #  (PL 6D) R (+29) IN MPAC, UNITIZE UR
001414: 06,3742           02323                                    RINIT
001415: 06,3743           77676                           VCOMP                                          #  U(-R)
001416: 06,3744           00023                           STORE    18D                                   #  U(-R) TO 18D
001417: 06,3745           53435                           VXV      UNIT                                  #  U(-R)*V EQ V*U(R), U(V*R)
001418: 06,3746           02331                                    VINIT
001419: 06,3747           00015                           STORE    12D                                   #  U(V*R) TO 12D
001420: 06,3750           53435                           VXV      UNIT                                  #  U(V*R)*U(-R), U((V*R)*(-R))
001421: 06,3751           00023                                    18D
001422: 06,3752           24007                           STOVL    6D                                    #  TRANSFORMATION MATRIX IS IN 6D (+1)
001423: 06,3753           00001                                    0D                                    #  DELTA V (+7) IN 0D
001424: 06,3754           76521                           MXV      VSL1                                  #  CONVERT FROM INER COOR TO LV COOR (+8)
001425: 06,3755           00007                                    6D                                    #  AND SCALE +7 IN MPAC
001426: 06,3756           03434                           STORE    DELVLVC                               #  STORE IN DELVLVC (+7)
001427: 06,3757           43414                           SET      RVQ                                   #  SET MGLVFLAG TO INDICATE LVC CALC
001428: 06,3760           02475                                    MGLVFLAG                              #  AND EXIT
001429:
001430:                                                                                                  #  ..... END OF MIDGIM ROUTINE .....
001431:


001433: 10,2000                                           BANK     10
001434: 10,2000                                           SETLOC   SLCTMU
001435: 10,2000                                           BANK
001436: 10,2000                                           COUNT*   $$/MIDG
001437:
001438: 10,2000           77160        SELECTMU           AXC,1    AXT,2
001439: 10,2001           00002                                    2D
001440: 10,2002           00000                                    0D
001441: 10,2003           77614                           BOFF
001442: 10,2004           04343                                    CMOONFLG
001443: 10,2005           20011                                    SETMUER
001444: 10,2006           77160                           AXC,1    AXT,2
001445: 10,2007           00012                                    10D
001446: 10,2010           00002                                    2D
001447: 10,2011           66143        SETMUER            DLOAD*   SXA,1
001448: 10,2012           10011                                    MUTABLE    +4,1
001449: 10,2013           02776                                    RTX1
001450: 10,2014           22317                           STODL*   RTSR1/MU
001451: 10,2015           10003                                    MUTABLE    -2,1
001452: 10,2016           54214                           BOFF     SR
001453: 10,2017           04343                                    CMOONFLG
001454: 10,2020           20022                                    RTRNMU
001455: 10,2021           20607                                    6D
001456: 10,2022           02321        RTRNMU             STORE    RTMU
001457: 10,2023           43134                           SXA,2    CLEAR
001458: 10,2024           02777                                    RTX2
001459: 10,2025           01271                                    FINALFLG
001460: 10,2026           77650                           GOTO
001461: 10,2027           73515                                    VN1645
001462:


001464:                                                                                                  #  ..... PERIAPO .....
001465:
001466:                                                                                                  #  MOD NO -1                     LOG SECTION - P34-P35, P74-P75
001467:                                                                                                  #  MOD BY WHITE.P                DATE 18JAN68
001468:
001469:                                                                                                  #  FUNCTIONAL DESCRIPTION
001470:
001471:                                                                                                  #        THIS SUBROUTINE COMPUTES THE TWO BODY APOCENTER AND PERICENTER
001472:                                                                                                  #        ALTITUDES GIVEN THE POSITION AND VELOCITY VECTORS FOR A POINT ON
001473:                                                                                                  #        THE TRAJECTORY AND THE PRIMARY BODY.
001474:
001475:                                                                                                  #        SETRAD IS CALLED TO DETERMINE THE RADIUS OF THE PRIMARY BODY.
001476:
001477:                                                                                                  #        APSIDES IS CALLED TO SOLVE FOR THE TWO BODY RADII OF APOCENTER AND
001478:                                                                                                  #        PERICENTER AND THE ECCENTRICITY OF THE TRAJECTORY.
001479:
001480:                                                                                                  #  CALLING SEQUENCE
001481:
001482:                                                                                                  #        L       CALL
001483:                                                                                                  #        L+1             PERIAPO
001484:                                                                                                  #        L+2     (RETURN - ALWAYS)
001485:
001486:                                                                                                  #  INPUT
001487:
001488:                                                                                                  #        (1)     RVEC    POSITION VECTOR IN METERS
001489:                                                                                                  #                        SCALE FACTOR - EARTH +29, MOON +27
001490:                                                                                                  #        (2)     VVEC    VELOCITY VECTOR IN METERS/CENTISECOND
001491:                                                                                                  #                        SCALE FACTOR - EARTH +7, MOON +5
001492:                                                                                                  #        (3)     X1      PRIMARY BODY INDICATOR
001493:                                                                                                  #                        EARTH -2, MOON -10
001494:
001495:                                                                                                  #  OUTPUT
001496:
001497:                                                                                                  #        (1)     2D      APOCENTER RADIUS IN METERS
001498:                                                                                                  #                        SCALE FACTOR - EARTH +29, MOON +27
001499:                                                                                                  #        (2)     4D      APOCENTER ALTITUDE IN METERS
001500:                                                                                                  #                        SCALE FACTOR - EARTH +29, MOON P27
001501:                                                                                                  #        (3)     6D      PERICENTER RADIUS IN METERS
001502:                                                                                                  #                        SCALE FACTOR - EARTH +29, MOON +27
001503:                                                                                                  #        (4)     8D      PERICENTER ALTITUDE IN METERS
001504:                                                                                                  #                        SCALE FACTOR - EARTH +29, MOON +27
001505:                                                                                                  #        (5)     ECC     ECCENTRICITY OF CONIC TRAJECTORY
001506:                                                                                                  #                        SCALE FACTOR - +3
001507:                                                                                                  #        (6)     XXXALT  RADIUS OF THE PRIMARY BODY IN METERS
001508:                                                                                                  #                        SCALE FACTOR - EARTH +29, MOON +27
001509:                                                                                                  #        (7)     PUSHLOC EQUALS 10D
001510:
001511:                                                                                                  #  SUBROUTINES USED
001512:
001513:                                                                                                  #        SETRAD


001515:                                                                                                  #        APSIDES
001516:
001517: 23,2000                                           SETLOC   APOPERI
001518: 23,2000                                           BANK
001519:
001520: 23,2337                                           COUNT*   $$/PERAP
001521:
001522: 23,2337           00302 17755  RPAD               2DEC     6373338    B-29                       #  STANDARD RADIUS OF PAD 37-B.
001523:                                                                                                  #  = 20 909 901.57 FT
001524:
001525: 23,2341           53754        PERIAPO1           LXA,2    VSR*
001526: 23,2342           02777                                    RTX2
001527: 23,2343           57176                                    0,2
001528: 23,2344           26744                           STOVL    VVEC
001529: 23,2345           53750                           LXA,1    VSR*
001530: 23,2346           02776                                    RTX1
001531: 23,2347           57176                                    0,2
001532: 23,2350           02655                           STORE    RVEC
001533: 23,2351           45020        PERIAPO            STQ      CALL
001534: 23,2352           03463                                    NORMEX
001535: 23,2353           46367                                    SETRAD
001536: 23,2354           37671                           STCALL   XXXALT
001537: 23,2355           25704                                    APSIDES
001538: 23,2356           41401                           SETPD    PUSH                                  #  2D = APOCENTER RADIUS         B29 OR B27
001539: 23,2357           00003                                    2D
001540: 23,2360           65225                           DSU      PDDL                                  #  4D = APOGEE ALTITUDE          B29 OR B27
001541: 23,2361           03671                                    XXXALT
001542: 23,2362           00001                                    0D
001543: 23,2363           45206                           PUSH     DSU                                   #  6D = PERICENTER RADIUS        B29 OR B27
001544: 23,2364           03671                                    XXXALT
001545: 23,2365           52006                           PUSH     GOTO                                  #  8D = PERIGEE ALTITUDE         B29 OR B27
001546: 23,2366           03463                                    NORMEX
001547:


001549:                                                                                                  #  SETRAD
001550:
001551: 23,2367           41545        SETRAD             DLOAD    PUSH
001552: 23,2370           06340                                    RPAD
001553: 23,2371           63130                           SXA,1    INCR,2
001554: 23,2372           00047                                    X2
001555: 23,2373           00002                                    2D
001556: 23,2374           46135                           SLOAD    BHIZ
001557: 23,2375           00050                                    X2
001558: 23,2376           46402                                    SETRADX
001559: 23,2377           51575                           VLOAD    ABVAL
001560: 23,2400           02023                                    RLS
001561: 23,2401           77725                           PDDL
001562: 23,2402           43545        SETRADX            DLOAD    RVQ
001563:


001565:                                                                                                  #  PRECSET
001566:
001567: 23,2403           77620        PRECSET            STQ
001568: 23,2404           03463                                    NORMEX
001569: 23,2405           37574                           STCALL   TDEC2
001570: 23,2406           27060                                    LEMPREC
001571: 23,2407           77624                           CALL
001572: 23,2410           46421                                    LEMSTORE
001573: 23,2411           77745                           DLOAD
001574: 23,2412           03574                                    TDEC2
001575: 23,2413           34041                           STCALL   TDEC1
001576: 23,2414           27044                                    CSMPREC
001577: 23,2415           77624                           CALL
001578: 23,2416           46431                                    CSMSTORE
001579: 23,2417           77650                           GOTO
001580: 23,2420           03463                                    NORMEX
001581: 23,2421           43175        LEMSTORE           VLOAD    BOFF
001582: 23,2422           00001                                    RATT
001583: 23,2423           01352                                    AVFLAG
001584: 23,2424           46435                                    PASSIVE
001585: 23,2425           27536        ACTIVE             STOVL    RACT3
001586: 23,2426           00007                                    VATT
001587: 23,2427           03544                           STORE    VACT3
001588: 23,2430           77616                           RVQ
001589: 23,2431           43175        CSMSTORE           VLOAD    BOFF
001590: 23,2432           00001                                    RATT
001591: 23,2433           01352                                    AVFLAG
001592: 23,2434           46425                                    ACTIVE
001593: 23,2435           27552        PASSIVE            STOVL    RPASS3
001594: 23,2436           00007                                    VATT
001595: 23,2437           03560                           STORE    VPASS3
001596: 23,2440           77616                           RVQ
001597:


001599:                                                                                                  #  VECSHIFT
001600:
001601: 23,2441           53754        VECSHIFT           LXA,2    VSR*
001602: 23,2442           02777                                    RTX2
001603: 23,2443           57176                                    0,2
001604: 23,2444           63350                           LXA,1    PDVL
001605: 23,2445           02776                                    RTX1
001606: 23,2446           63257                           VSR*     PDVL
001607: 23,2447           57176                                    0,2
001608: 23,2450           77616                           RVQ
001609:


001611:                                                                                                  #  SHIFTR1
001612:
001613: 23,2451           53754        SHIFTR1            LXA,2    SL*
001614: 23,2452           02777                                    RTX2
001615: 23,2453           57576                                    0,2
001616: 23,2454           77616                           RVQ
001617:


001619:                                                                                                  #  PROGRAM DESCRIPTION
001620:                                                                                                  #  SUBROUTINE NAME       R36     OUT-OF-PLANE RENDEZVOUS ROUTINE
001621:                                                                                                  #  MOD NO. 0             DATE    22 DECEMBER 67
001622:                                                                                                  #  MOD BY N.M.NEVILLE    LOG SECTION EXTENDED VERBS
001623:                                                                                                  #  FUNCTIONAL DESCRIPTION
001624:
001625:                                                                                                  #  TO DISPLAY AT ASTRONAUT REQUEST LGC CALCULATED RENDEZVOUS
001626:                                                                                                  #  OUT-OF-PLANE PARAMETERS (Y, YDOT, PSI).  (REQUESTED BY DSKY).
001627:
001628:                                                                                                  #  CALLING SEQUENCE
001629:
001630:                                                                                                  #        ASTRONAUT REQUEST THROUGH DSKY V 90 E
001631:
001632:                                                                                                  #  SUBROUTINES CALLED
001633:
001634:                                                                                                  #        EXDSPRET
001635:                                                                                                  #        GOMARKF
001636:                                                                                                  #        CSMPREC
001637:                                                                                                  #        LEMPREC
001638:                                                                                                  #        SGNAGREE
001639:                                                                                                  #        LOADTIME
001640:
001641:                                                                                                  #  NORMAL EXIT MODES
001642:
001643:                                                                                                  #        ASTRONAUT REQUEST THROUGH DSKY TO TERMINATE PROGRAM V 34 E
001644:
001645:                                                                                                  #  ALARM OR ABORT EXIT MODES
001646:
001647:                                                                                                  #        NONE
001648:
001649:                                                                                                  #  OUTPUT
001650:
001651:                                                                                                  #        DECIMAL DISPLAY OF TIME, Y, YDOT AND PSI
001652:
001653:                                                                                                  #        DISPLAYED VALUES Y, YDOT, AND PSI, ARE STORED IN ERASABLE
001654:                                                                                                  #        REGISTERS RANGE, RRATE AND RTHETA RESPECTIVELY.
001655:
001656:                                                                                                  #  ERASABLE INITIALIZATION REQUIRED
001657:
001658:                                                                                                  #        CSM AND LEM STATE VECTORS
001659:
001660:                                                                                                  #  DEBRIS
001661:
001662:                                                                                                  #        CENTRALS A,Q,L
001663:                                                                                                  #        OTHER THOSE USED BY THE ABOVE LISTED SUBROUTINES
001664:
001665: 20,2115                                           BANK     20
001666: 04,2000                                           SETLOC   R36LM
001667: 04,2000                                           BANK


001669: 04,2640  E4,1606                                  EBANK=   RPASS36
001670:
001671: 04,2640                                           COUNT*   $$/R36
001672:
001673: 04,2640           22007        R36                ZL
001674: 04,2641           34755                           CAF      ZERO                                  #  SET TIME OF EVENT TO ZERO FOR FIRST
001675: 04,2642           53051                           DXCH     DSPTEMX                               #  DISPLAY
001676: 04,2643           32773                           CAF      V06N16N
001677: 04,2644           04616                           TC       BANKCALL
001678: 04,2645           20334                           CADR     GOMARKF
001679: 04,2646           15472                           TCF      ENDEXT                                #  TERMINATE
001680: 04,2647           12651                           TCF      +2                                    #  PROCEED
001681: 04,2650           12643                           TCF      -5                                    #  RECYCLE FOR ASTRONAUT INPUT TIME
001682: 04,2651           53051                           DXCH     DSPTEMX
001683: 04,2652           00006                           EXTEND
001684: 04,2653           12762                           BZF      LREGCHK                               #  A-REG ZERO GOTO CHECK L-REG FOR ZERO
001685: 04,2654           52155        ASTROTIM           DXCH     MPAC                                  #  A-REG NON-ZERO, TIME = ASTRO INPUT TIME
001686: 04,2655           06042                           TC       INTPRET
001687: 04,2656           77634                           RTB
001688: 04,2657           21717                                    DPMODE
001689: 04,2660           34041        R36INT             STCALL   TDEC1
001690: 04,2661           27044                                    OTHPREC
001691: 04,2662           63375                           VLOAD    PDVL
001692: 04,2663           00007                                    VATT
001693: 04,2664           00001                                    RATT                                  #  -
001694: 04,2665           02207                           STORE    RPASS36                               #  R
001695: 04,2666           63256                           UNIT     PDVL                                  #   P
001696: 04,2667           53435                           VXV      UNIT
001697: 04,2670           77626                           STADR                                          #  -
001698: 04,2671           61562                           STODL    UNP36                                 #  U
001699: 04,2672           00015                                    TAT
001700: 04,2673           34041                           STCALL   TDEC1
001701: 04,2674           27060                                    THISPREC
001702: 04,2675           63375                           VLOAD    PDVL                                  #                  -
001703: 04,2676           00007                                    VATT                                  #  VELOCITY VECTOR V             00D
001704: 04,2677           00001                                    RATT                                  #                   A
001705: 04,2700           77725                           PDDL
001706: 04,2701           00015                                    TAT                                   #  SAVE TIME IN LOCATION 30D FOR REDISPLAY
001707: 04,2702           24037                           STOVL    30D                                   #                  -
001708: 04,2703           41406                           PUSH     PUSH                                  #  POSITION VECTOR R  IN 06D AND 12D
001709: 04,2704           63245                           BVSU     PDVL                                  #                   A   -   -
001710: 04,2705           02207                                    RPASS36                               #  LINE OF SIGHT VECTOR R - R    12D
001711: 04,2706           72441                           DOT      SL1                                   #                        P   A
001712: 04,2707           02215                                    UNP36                                 #      -   -
001713: 04,2710           26201                           STOVL    RANGE                                 #  Y = U . R
001714: 04,2711           00001                                    00D                                   #           A
001715: 04,2712           72441                           DOT      SL1
001716: 04,2713           02215                                    UNP36                                 #  .   -   -
001717: 04,2714           26203                           STOVL    RRATE                                 #  Y = U . V
001718: 04,2715           00007                                    06D                                   #  -        A  -


001720: 04,2716           41456                           UNIT     PUSH                                  #  U  = UNIT ( R  )              18D
001721: 04,2717           47235                           VXV      VXV                                   #   RA          A
001722: 04,2720           00001                                    00D                                   #   -    -     -     -
001723: 04,2721           00023                                    18D                                   #  (U  X V ) X U   = U
001724: 04,2722           53552                           VSL2     UNIT                                  #    RA   A     RA    A
001725: 04,2723           77656                           UNIT
001726: 04,2724           24001                           STOVL    00D                                   #  UNIT HORIZONTAL IN FORWARD DIR. 00D
001727: 04,2725           00023                                    18D
001728: 04,2726           74241                           DOT      VXSC                                  #  -
001729: 04,2727           00015                                    12D                                   #  U
001730: 04,2730           77752                           VSL2                                           #   L
001731: 04,2731           53445                           BVSU     UNIT
001732: 04,2732           77656                           UNIT
001733: 04,2733           50206                           PUSH     DOT                                   #  LOS PROJECTED INTO HORIZONTAL  12D
001734: 04,2734           00001                                    00D                                   #  PLANE
001735: 04,2735           65552                           SL1      ARCCOS                                #               -   -
001736: 04,2736           26205                           STOVL    RTHETA                                #  PSI = ARCCOS(U . U )
001737: 04,2737           50235                           VXV      DOT                                   #                A   L
001738: 04,2740           00001                                    00D
001739: 04,2741           71244                           BPL      DLOAD
001740: 04,2742           10747                                    R36TAG2
001741: 04,2743           24020                                    LODPMAX
001742: 04,2744           77625                           DSU
001743: 04,2745           02205                                    RTHETA
001744: 04,2746           02205                           STORE    RTHETA
001745: 04,2747           47145        R36TAG2            DLOAD    RTB
001746: 04,2750           00037                                    30D
001747: 04,2751           21613                                    SGNAGREE
001748: 04,2752           01051                           STORE    DSPTEMX
001749: 04,2753           77776                           EXIT
001750: 04,2754           32774                           CAF      V06N90N                               #  DISPLAY Y, YDOT, AND PSI
001751: 04,2755           04616                           TC       BANKCALL
001752: 04,2756           20334                           CADR     GOMARKF
001753: 04,2757           15472                           TCF      ENDEXT                                #  TERMINATE
001754: 04,2760           15472                           TCF      ENDEXT                                #  PROCEED, END OF PROGRAM
001755: 04,2761           12643                           TCF      R36        +3                         #  REDISPLAY OUTPUT
001756: 04,2762           56001        LREGCHK            XCH      L
001757: 04,2763           00006                           EXTEND
001758: 04,2764           12767                           BZF      ENTTIM2                               #  L-REG ZERO, SET TIME = PRESENT TIME
001759: 04,2765           56001                           XCH      L                                     #  L-REG NON ZERO, TIME = ASTRO INPUT TIME
001760: 04,2766           12654                           TCF      ASTROTIM
001761: 04,2767           06042        ENTTIM2            TC       INTPRET
001762: 04,2770           52034                           RTB      GOTO
001763: 04,2771           21574                                    LOADTIME
001764: 04,2772           10660                                    R36INT
001765: 04,2773           01420        V06N16N            VN       00616
001766: 04,2774           01532        V06N90N            VN       00690

End of include-file P34-P35,_P74-P75.agc.  Parent file is MAIN.agc


