
Source Code


000002:                                                                                                  ## Copyright:   Public domain.
000003:                                                                                                  ## Filename:    P70-P71.agc
000004:                                                                                                  ## Purpose:     A section of Luminary revision 116.
000005:                                                                                                  ##              It is part of the source code for the Lunar Module's (LM)
000006:                                                                                                  ##              Apollo Guidance Computer (AGC) for Apollo 12.
000007:                                                                                                  ##              This file is intended to be a faithful transcription, except
000008:                                                                                                  ##              that the code format has been changed to conform to the
000009:                                                                                                  ##              requirements of the yaYUL assembler rather than the
000010:                                                                                                  ##              original YUL assembler.
000011:                                                                                                  ## Reference:   pp. 823-830
000012:                                                                                                  ## Assembler:   yaYUL
000013:                                                                                                  ## Contact:     Ron Burkey <info@sandroid.org>.
000014:                                                                                                  ## Website:     www.ibiblio.org/apollo/index.html
000015:                                                                                                  ## Mod history: 2017-01-22 MAS  Created from Luminary 99.
000016:                                                                                                  ##              2017-03-10 HG   Transcribed
000017:                                                                                                  ##              2017-03-14 RSB  Proofed comment text via 3-way diff vs
000018:                                                                                                  ##                              Luminary 99 and 131.
000019:                                                                                                  ##              2017-03-19 HG   Fix operand ROO --> RCO
000020:


000022: 21,2006                                           BANK     21
000023: 21,2000                                           SETLOC   R11
000024: 21,2000                                           BANK
000025:
000026: 21,2006  E7,1515                                  EBANK=   DVCNTR
000027: 21,2006                                           COUNT*   $$/R11
000028:
000029: 21,2006           40103        R10,R11            CS       FLAGWRD7                              #  IS SERVICER STILL RUNNING?
000030: 21,2007           74747                           MASK     AVEGFBIT
000031: 21,2010           10000                           CCS      A
000032: 21,2011           15261                           TCF      TASKOVER                              #  LET AVGEND TAKE CARE OF GROUP 2.
000033: 21,2012           11055                           CCS      PIPCTR
000034: 21,2013           12015                           TCF      +2
000035: 21,2014           12125                           TCF      LRHTASK                               #  LAST PASS. CALL LRHTASK.


000037: 21,2015           55714                 +2        TS       PIPCTR1
000038:
000039: 21,2016  E7,1714               PIPCTR1            =        LADQSAVE
000040: 21,2016     1055               PIPCTR             =        PHSPRDT2
000041: 21,2016           36010                           CAF      OCT31
000042: 21,2017           05173                           TC       TWIDDLE
000043: 21,2020           02006                           ADRES    R10,R11
000044: 21,2021           34753        R10,R11A           CAF      HFLSHBIT
000045: 21,2022           70107        FLASHH?            MASK     FLGWRD11
000046: 21,2023           00006                           EXTEND
000047: 21,2024           12030                           BZF      FLASHV?                               #  H FLASH OFF, SO LEAVE ALONE
000048:
000049: 21,2025           34747                           CA       HLITE
000050: 21,2026           54001                           TS       L
000051: 21,2027           04606                           TC       FLIP                                  #  FLIP H LITE
000052:
000053: 21,2030           34752        FLASHV?            CA       VFLSHBIT                              #  VFLASHBIT MUST BE BIT 2.
000054: 21,2031           70107                           MASK     FLGWRD11
000055: 21,2032           00006                           EXTEND
000056: 21,2033           12037                           BZF      10,11                                 #  V FLASH OFF
000057:
000058: 21,2034           34751                           CA       VLITE
000059: 21,2035           54001                           TS       L
000060: 21,2036           04606                           TC       FLIP                                  #  FLIP V LITE
000061:
000062:
000063: 21,2037           30105        10,11              CA       FLAGWRD9                              #  IS THE LETABORT FLAG SET ?
000064: 21,2040           74743                           MASK     LETABBIT
000065: 21,2041           00006                           EXTEND
000066: 21,2042           12145                           BZF      LANDISP                               #  NO.  PROCEED TO R10.
000067:
000068: 21,2043           41010        P71NOW?            CS       MODREG                                #  YES.  ARE WE IN P71 NOW?
000069: 21,2044           62104                           AD       1DEC71
000070: 21,2045           00006                           EXTEND
000071: 21,2046           12145                           BZF      LANDISP                               #  YES.  PROCEED TO R10.
000072:


000074: 21,2047           00006                           EXTEND                                         #  NO. IS AN ABORT STAGE COMMANDED?
000075: 21,2050           00030                           READ     CHAN30
000076: 21,2051           40000                           COM
000077: 21,2052           54001                           TS       L
000078: 21,2053           74750                           MASK     BIT4
000079: 21,2054           10000                           CCS      A
000080: 21,2055           12073                           TCF      P71A                                  #  YES.
000081:
000082: 21,2056           41010        P70NOW?            CS       MODREG                                #  NO.  ARE WE IN P70 NOW?
000083: 21,2057           62103                           AD       1DEC70
000084: 21,2060           00006                           EXTEND
000085: 21,2061           12145                           BZF      LANDISP                               #  YES.  PROCEED TO R10.
000086:
000087: 21,2062           30001                           CA       L                                     #  NO.  IS AN ABORT COMMANDED?
000088: 21,2063           74753                           MASK     BIT1
000089: 21,2064           10000                           CCS      A
000090: 21,2065           12070                           TCF      P70A                                  #  YES.
000091: 21,2066           12145                           TCF      LANDISP                               #  NO.  PROCEED TO R10.
000092:
000093: 21,2067                                           COUNT*   $$/P70
000094:
000095: 21,2067           02105        P70                TC       LEGAL?
000096: 21,2070           44755        P70A               CS       ZERO
000097: 21,2071           12074                           TCF      +3
000098: 21,2072           02105        P71                TC       LEGAL?
000099: 21,2073           34752        P71A               CAF      TWO
000100: 21,2074           54002                 +3        TS       Q
000101: 21,2075           00004                           INHINT
000102: 21,2076           00006                           EXTEND
000103: 21,2077           32102                           DCA      CNTABTAD
000104: 21,2100           52006                           DTCB
000105:
000106: 21,2101  E7,1515                                  EBANK=   DVCNTR
000107: 21,2101           03400 12067  CNTABTAD           2CADR    CONTABRT
000108: 21,2103           00106        1DEC70             DEC      70         B-14
000109: 21,2104           00107        1DEC71             DEC      71         B-14
000110:
000111: 05,3400                                           BANK     05
000112: 05,2000                                           SETLOC   ABORTS1
000113: 05,2000                                           BANK
000114: 05,3400                                           COUNT*   $$/P70
000115:
000116: 05,3400           33403        CONTABRT           CAF      ABRTJADR
000117: 05,3401           54017                           TS       BRUPT
000118: 05,3402           50017                           RESUME
000119:
000120: 05,3403           13404        ABRTJADR           TCF      ABRTJASK
000121:
000122: 05,3404           33464        ABRTJASK           CAF      OCTAL27
000123:


000125: 05,3405           60002                           AD       Q
000126: 05,3406           54001                           TS       L
000127: 05,3407           40000                           COM
000128: 05,3410           52760                           DXCH     -PHASE4
000129: 05,3411           50002                           INDEX    Q
000130: 05,3412           33463                           CAF      MODE70
000131: 05,3413           55010                           TS       MODREG
000132:
000133: 05,3414           55162                           TS       DISPDEX                               #  INSURE DISPDEX IS POSITIVE.
000134:
000135: 05,3415           10002                           CCS      Q                                     #  SET APSFLAG IF P71.
000136: 05,3416           40106                           CS       FLGWRD10                              #  SET APSFLAG PRIOR TO THE ENEMA.
000137: 05,3417           74737                           MASK     APSFLBIT
000138: 05,3420           26106                           ADS      FLGWRD10
000139: 05,3421           43466                           CS       DAPBITS                               #  DAPBITS = OCT 40640 = BITS 6,8,9,15
000140: 05,3422           70111                           MASK     DAPBOOLS                              #  RESET ULLAGE,DRIFT,XOVRIINH,AND PULSES
000141: 05,3423           54111                           TS       DAPBOOLS
000142:
000143: 05,3424           33467                           CAF      1DEGDB                                #  INSURE DAP DEADBAND IS SET TO 1 DEGREE
000144: 05,3425           55343                           TS       DB
000145:
000146: 05,3426           40101                           CS       FLAGWRD5                              #  SET ENGONFLG.
000147: 05,3427           74745                           MASK     ENGONBIT
000148: 05,3430           26101                           ADS      FLAGWRD5
000149:
000150: 05,3431           44355                           CS       PRIO30                                #  INSURE THAT THE ENGINE IS ON, IF ARMED.
000151: 05,3432           00006                           EXTEND
000152: 05,3433           02011                           RAND     DSALMOUT
000153: 05,3434           64737                           AD       BIT13
000154: 05,3435           00006                           EXTEND
000155: 05,3436           01011                           WRITE    DSALMOUT
000156:
000157: 05,3437           34735                           CAF      LRBYBIT                               #  TERMINATE R12.
000158: 05,3440           54107                           TS       FLGWRD11
000159:
000160: 05,3441           40074                           CS       FLAGWRD0                              #  SET R10FLAG TO SUPPRESS OUTPUTS TO THE
000161: 05,3442           74752                           MASK     R10FLBIT                              #  CROSS-POINTER DISPLAY.
000162: 05,3443           26074                           ADS      FLAGWRD0                              #  THE FOLLOWING ENEMA WILL REMOVE THE
000163:                                                                                                  #  DISPLAY INERTIAL DATA OUTBIT.
000164:
000165: 05,3444           00006                           EXTEND                                         #  LOAD TEVENT FOR THE DOWNLINK.
000166: 05,3445           30025                           DCA      TIME2
000167: 05,3446           53342                           DXCH     TEVENT
000168:
000169: 05,3447           00006                           EXTEND
000170: 05,3450           33462                           DCA      SVEXITAD
000171: 05,3451           53252                           DXCH     AVGEXIT
000172:
000173: 05,3452           02653                           TC       ABTKLEAN                              #  KILL GROUPS 1,3, AND 6.
000174:


000176: 05,3453           36250                           CAF      THREE                                 #  SET UP 4.3SPOT FOR GOABORT
000177: 05,3454           54001                           TS       L
000178: 05,3455           40000                           COM
000179: 05,3456           52760                           DXCH     -PHASE4
000180:
000181: 05,3457           04635                           TC       POSTJUMP
000182: 05,3460           12763                           CADR     ENEMA
000183:
000184: 05,3461  E7,1515                                  EBANK=   DVCNTR
000185: 05,3461           03761 64067  SVEXITAD           2CADR    SERVEXIT
000186: 05,3463           00106        MODE70             DEC      70         B-14
000187: 05,3464           00027        OCTAL27            OCT      27
000188: 05,3465           00107        MODE71             DEC      71         B-14
000189:
000190: 05,3466           40640        DAPBITS            OCT      40640
000191:
000192: 05,3467           00554        1DEGDB             OCT      00554
000193: 32,3547                                           BANK     32
000194: 32,2000                                           SETLOC   ABORTS
000195: 32,2000                                           BANK
000196:
000197: 32,3547                                           COUNT*   $$/P70
000198:
000199: 32,3547           34751        GOABORT            CAF      FOUR
000200: 32,3550           55515                           TS       DVCNTR
000201:
000202: 32,3551           33756                           CAF      WHICHADR
000203: 32,3552           55455                           TS       WHICH
000204:
000205: 32,3553           06042                           TC       INTPRET
000206: 32,3554           43014                           CLEAR    CLEAR
000207: 32,3555           04665                                    FLRCS
000208: 32,3556           04265                                    FLUNDISP
000209: 32,3557           43014                           CLEAR    SET
000210: 32,3560           03670                                    IDLEFLAG
000211: 32,3561           06464                                    ACC4-2FL
000212: 32,3562           45014                           SET      CALL
000213: 32,3563           04462                                    P7071FLG
000214: 32,3564           61071                                    INITCDUW


000216: 32,3565           77776                           EXIT
000217:
000218: 32,3566           05321                           TC       CHECKMM
000219: 32,3567           00106        70DEC              DEC      70         B-14
000220: 32,3570           13702                           TCF      P71RET
000221:
000222: 32,3571           06042        P70INIT            TC       INTPRET
000223: 32,3572           77624                           CALL
000224: 32,3573           65731                                    TGOCOMP
000225: 32,3574           54345                           DLOAD    SL
000226:


000228: 32,3575           34003                                    MDOTDPS
000229: 32,3576           20205                                    4D
000230: 32,3577           77665                           BDDV
000231: 32,3600           01244                                    MASS
000232: 32,3601           16271                           STODL    TBUP
000233: 32,3602           01244                                    MASS
000234: 32,3603           70471                           DDV      SR1
000235: 32,3604           16015                                    K(1/DV)
000236: 32,3605           03635                           STORE    1/DV1
000237: 32,3606           03637                           STORE    1/DV2
000238: 32,3607           03641                           STORE    1/DV3
000239: 32,3610           77665                           BDDV
000240: 32,3611           25755                                    K(AT)
000241: 32,3612           16263                           STODL    AT
000242: 32,3613           34015                                    100PCTTO
000243: 32,3614           02267                           STORE    TTO
000244: 32,3615           57535                           SLOAD    DCOMP
000245: 32,3616           26002                                    DPSVEX
000246: 32,3617           77702                           SR2
000247: 32,3620           36265                           STCALL   VE
000248: 32,3621           60275                                    COMMINIT
000249: 32,3622           77745        INJTARG            DLOAD
000250: 32,3623           02567                                    ABTRDOT
000251: 32,3624           36273                           STCALL   RDOTD                                 #  INITIALIZE RDOTD.
000252: 32,3625           57312                                    YCOMP                                 #  COMPUTE Y
000253: 32,3626           45246                           ABS      DSU
000254: 32,3627           02565                                    YLIM                                  #  /Y/-DYMAX
000255: 32,3630           75240                           BMN      SIGN                                  #  IF <0, XR<.5DEG, LEAVE YCO AT 0
000256: 32,3631           65634                                    YOK                                   #  IF >0, FIX SIGN OF DEFICIT, THIS IS YCO.
000257: 32,3632           02335                                    Y
000258: 32,3633           03633                           STORE    YCO
000259: 32,3634           45345        YOK                DLOAD    DSU
000260: 32,3635           03633                                    YCO
000261: 32,3636           02335                                    Y
000262: 32,3637           77661                           SR
000263: 32,3640           20606                                    5D
000264: 32,3641           03643                           STORE    XRANGE
000265: 32,3642           45014                           SET      CALL
000266: 32,3643           04461                                    FLVR
000267: 32,3644           71554                                    THETCOMP
000268: 32,3645           51025                           DSU      BPL
000269: 32,3646           02561                                    THETCRIT
000270: 32,3647           65653                                    +4
000271: 32,3650           52175                           VLOAD    GOTO
000272: 32,3651           02551                                    J1PARM
000273: 32,3652           65655                                    +3
000274: 32,3653           77775                 +4        VLOAD
000275: 32,3654           02555                                    J2PARM
000276: 32,3655           16621                 +3        STODL    JPARM
000277: 32,3656           03631                                    RCO
000278:


000280: 32,3657           02625                           STORE    RP
000281: 32,3660           77414                           SET      EXIT
000282: 32,3661           04471                                    ROTFLAG
000283:
000284: 32,3662           03740        UPTHROT            TC       THROTUP
000285:
000286: 32,3663           05353                           TC       PHASCHNG
000287: 32,3664           04024                           OCT      04024
000288:
000289: 32,3665           05504                           TC       UPFLAG
000290: 32,3666           00216                           ADRES    FLAP
000291:
000292: 32,3667           04616        UPTHROT1           TC       BANKCALL                              #  VERIFY THAT THE PANEL SWITCHES
000293: 32,3670           73707                           CADR     P40AUTO                               #  ARE PROPERLY SET.
000294:
000295: 32,3671           03740                           TC       THROTUP
000296:
000297: 32,3672           35027                           CAF      PRIO17                                #  LET SERVICER FINISH BEFORE CONNECTING
000298: 32,3673           05146                           TC       PRIOCHNG                              #      ASCENT GUIDANCE EQUATIONS.
000299:
000300: 32,3674           00006                           EXTEND
000301: 32,3675           33760                           DCA      ATMAGAD
000302: 32,3676           53252                           DXCH     AVGEXIT
000303:
000304: 32,3677           05353        GRP4OFF            TC       PHASCHNG                              #  TERMINATE USE OF GROUP 4.
000305: 32,3700           00004                           OCT      00004
000306:
000307: 32,3701           15155                           TCF      ENDOFJOB
000308:
000309: 32,3702           05516        P71RET             TC       DOWNFLAG
000310: 32,3703           00215                           ADRES    LETABORT
000311:
000312: 32,3704           36000                           CAF      THRESH2                               #  SET DVMON THRESHOLD TO THE ASCENT VALUE.
000313: 32,3705           55250                           TS       DVTHRUSH
000314:
000315: 32,3706           06042                           TC       INTPRET
000316: 32,3707           77624                           CALL
000317: 32,3710           60251                                    P12INIT
000318: 32,3711           45014                           BON      CALL
000319: 32,3712           04707                                    FLAP
000320: 32,3713           65717                                    OLDTIME
000321: 32,3714           65731                                    TGOCOMP                               #  IF FLAP=0, TGO=T-TIG
000322: 32,3715           77650                           GOTO
000323: 32,3716           65622                                    INJTARG
000324: 32,3717           72545        OLDTIME            DLOAD    SL1                                   #  IF FLAP=1,TGO=2 TGO
000325: 32,3720           03517                                    TGO
000326: 32,3721           03502                           STORE    TGO1
000327: 32,3722           77776                           EXIT
000328:
000329: 32,3723           05353                           TC       PHASCHNG
000330:


000332: 32,3724           04024                           OCT      04024
000333:
000334: 32,3725           00006                           EXTEND
000335: 32,3726           31502                           DCA      TGO1
000336: 32,3727           53517                           DXCH     TGO
000337: 32,3730           13667                           TCF      UPTHROT1
000338:
000339: 32,3731  E7,1501               TGO1               =        VGBODY
000340:                                                                                                  #  ************************************************************************
000341:
000342: 21,2105                                           BANK     21
000343: 21,2000                                           SETLOC   R11
000344: 21,2000                                           BANK
000345:
000346: 21,2105                                           COUNT*   $$/P70
000347:
000348: 21,2105           40774        LEGAL?             CS       MMNUMBER                              #  IS THE DESIRED PGM ALREADY IN PROGRESS?
000349: 21,2106           61010                           AD       MODREG
000350: 21,2107           00006                           EXTEND
000351: 21,2110           12121                           BZF      ABORTALM
000352:
000353: 21,2111           40105                           CS       FLAGWRD9                              #  ARE THE ABORTS ENABLED?
000354: 21,2112           74743                           MASK     LETABBIT
000355: 21,2113           10000                           CCS      A
000356: 21,2114           12121                           TCF      ABORTALM
000357:
000358: 21,2115           30103                           CA       FLAGWRD7                              #  IS SERVICER ON THE AIR?
000359: 21,2116           74747                           MASK     AVEGFBIT
000360: 21,2117           10000                           CCS      A
000361: 21,2120           00002                           TC       Q                                     #  YES.  ALL IS WELL.
000362: 21,2121           04364        ABORTALM           TC       FALTON
000363: 21,2122           04457                           TC       RELDSP
000364: 21,2123           04635                           TC       POSTJUMP
000365: 21,2124           21051                           CADR     PINBRNCH
000366:
000367: 32,3731                                           BANK     32
000368: 32,2000                                           SETLOC   ABORTS
000369: 32,2000                                           BANK
000370:
000371: 32,3731                                           COUNT*   $$/P70
000372:
000373:                                                                                                  #  ************************************************************************
000374:
000375: 32,3731           45234        TGOCOMP            RTB      DSU
000376: 32,3732           21574                                    LOADTIME
000377: 32,3733           03442                                    TIG
000378: 32,3734           77661                           SL
000379: 32,3735           20214                                    11D
000380: 32,3736           03517                           STORE    TGO
000381: 32,3737           77616                           RVQ
000382:


000384:                                                                                                  #  ************************************************************************
000385:
000386: 32,3740           34737        THROTUP            CAF      BIT13
000387: 32,3741           54055                           TS       THRUST
000388: 32,3742           34750                           CAF      BIT4
000389: 32,3743           00006                           EXTEND
000390: 32,3744           05014                           WOR      CHAN14
000391: 32,3745           00002                           TC       Q
000392:
000393:                                                                                                  #  ************************************************************************
000394:
000395: 32,3746           00000 01750  10SECS             2DEC     1000       B-28
000396: 32,3750           00021 33400  HINJECT            2DEC     18288      B-24                       #  60,000 FEET EXPRESSED IN METERS.
000397: 32,3752           11021 00000  (TGO)A             2DEC     37000      B-17
000398: 32,3754           00507 25605  K(AT)              2DEC     .02                                   #  SCALING CONSTANT
000399: 32,3756           02114        WHICHADR           REMADR   ABRTABLE
000400:
000401:                                                                                                  #  ************************************************************************
000402:
000403: 32,3757  E7,1515                                  EBANK=   DVCNTR
000404: 32,3757           03372 70067  ATMAGAD            2CADR    ATMAG

End of include-file P70-P71.agc.  Parent file is MAIN.agc


