
Source Code


000002:                                                                                                  ## Copyright:   Public domain.
000003:                                                                                                  ## Filename:    PHASE_TABLE_MAINTENANCE.agc
000004:                                                                                                  ## Purpose:     A section of Luminary revision 116.
000005:                                                                                                  ##              It is part of the source code for the Lunar Module's (LM)
000006:                                                                                                  ##              Apollo Guidance Computer (AGC) for Apollo 12.
000007:                                                                                                  ##              This file is intended to be a faithful transcription, except
000008:                                                                                                  ##              that the code format has been changed to conform to the
000009:                                                                                                  ##              requirements of the yaYUL assembler rather than the
000010:                                                                                                  ##              original YUL assembler.
000011:                                                                                                  ## Reference:   pp. 1284-1292
000012:                                                                                                  ## Assembler:   yaYUL
000013:                                                                                                  ## Contact:     Ron Burkey <info@sandroid.org>.
000014:                                                                                                  ## Website:     www.ibiblio.org/apollo/index.html
000015:                                                                                                  ## Mod history: 2017-01-22 MAS  Created from Luminary 99.
000016:                                                                                                  ##              2017-01-26 RRB  Updated for Luminary 116.
000017:                                                                                                  ##              2017-02-19 HG remove stray ".", add missing comma instead
000018:                                                                                                  ##              2017-03-14 RSB  Proofed comment text via 3-way diff vs
000019:                                                                                                  ##                              Luminary 99 and 131.
000020:                                                                                                  ##              2017-03-16 RSB  Comment-text fixes identified in 5-way
000021:                                                                                                  ##                              side-by-side diff of Luminary 69/99/116/131/210.
000022:                                                                                                  ##              2017-06-17 MAS  Globally removed all SBANK= workarounds.
000023:


000025:                                                                                                  #  SUBROUTINE TO UPDATE THE PROGRAM NUMBER DISPLAY ON THE DSKY.
000026:
000027: 43,3745                                           COUNT*   $$/PHASE
000028:    5311                                           BLOCK    02
000029:    4000                                           SETLOC   FFTAG1
000030:    4000                                           BANK
000031:
000032:    5311           50002        NEWMODEX           INDEX    Q                                     #  UPDATE MODREG. ENTRY FOR MODE IN FIXED.
000033:    5312           30000                           CAF      0
000034:    5313           24002                           INCR     Q
000035:
000036:    5314           55010        NEWMODEA           TS       MODREG                                #  ENTRY FOR MODE IN A.
000037:    5315           35320        MMDSPLAY           CAF      +3                                    #  DISPLAY MAJOR MODE.
000038:    5316           22006        PREBJUMP           LXCH     BBANK                                 #  PUTS BBANK IN L
000039:    5317           14640                           TCF      BANKJUMP                              #  PUTS Q INTO A
000040:    5320           20213                           CADR     SETUPDSP
000041:
000042:                                                                                                  #  RETURN TO CALLER +3 IF MODE = THAT AT CALLER +1. OTHERWISE RETURN TO CALLER +2.
000043:
000044:    5321           50002        CHECKMM            INDEX    Q
000045:    5322           40000                           CS       0
000046:    5323           61010                           AD       MODREG
000047:    5324           00006                           EXTEND
000048:    5325           16744                           BZF      Q+2
000049:    5326           16742                           TCF      Q+1                                   #  NO MATCH
000050:
000051:    5327     6745               TCQ                =        Q+2        +1
000052:
000053: 14,3775                                           BANK     14
000054: 10,2000                                           SETLOC   PHASETAB
000055: 10,2000                                           BANK
000056:
000057: 10,2213                                           COUNT*   $$/PHASE
000058: 10,2213           00004        SETUPDSP           INHINT
000059: 10,2214           52071                           DXCH     RUPTREG1                              #  SAVE CALLER-S RETURN 2CADR
000060: 10,2215           34355                           CAF      PRIO30                                #    EITHER A TASK OR JOB CAN COME TO
000061: 10,2216           05072                           TC       NOVAC                                 #    NEWMODE X
000062: 10,2217     1010                                  EBANK=   MODREG
000063: 10,2217           03577 60102                     2CADR    DSPMMJOB
000064:
000065: 10,2221           52071                           DXCH     RUPTREG1
000066: 10,2222           00003                           RELINT
000067: 10,2223           52006                           DXCH     Z                                     #  RETURN
000068:
000069: 10,2224  40,3577               DSPMMJOB           EQUALS   DSPMMJB
000070:
000071:    5327                                           BLOCK    02
000072:    4000                                           SETLOC   FFTAG1
000073:    4000                                           BANK
000074:


000076:                                                                                                  #  PHASCHNG IS THE MAIN WAY OF MAKING PHASE CHANGES FOR RESTARTS.  THERE ARE THREE FORMS OF PHASCHNG, KNOWN AS TYPE
000077:                                                                                                  #  A, TYPE B, AND TYPE C. THEY ARE ALL CALLED AS FOLLOWS, WHERE OCT XXXXX    CONTAINS THE PHASE INFORMATION,
000078:
000079:                                                                                                  #                                                  TC      PHASCHNG
000080:                                                                                                  #                                                  OCT     XXXXX
000081:
000082:                                                                                                  #  TYPE A IS CONCERNED WITH FIXED PHASE CHANGES, THAT IS, PHASE INFORMATION THAT IS STORED PERMANENTLY.   THESE
000083:                                                                                                  #  OPTIONS ARE, WHERE G STANDS FOR A GROUP AND .X FOR THE PHASE,
000084:
000085:                                                                                                  #                 G.0              INACTIVE, WILL NOT PERMIT A GROUP G RESTART
000086:                                                                                                  #                 G.1              WILL CAUSE THE LAST DISPLAY TO BE REACTIVATED, USED MAINLY IN MANNED FLIGHTS
000087:                                                                                                  #                 G.EVEN           A DOUBLE TABLE RESTART, CAN CAUSE ANY COMBINATION OF TWO JOBS, TASKS, AND/OR
000088:                                                                                                  #                                  LONGCALL TO BE RESTARTED.
000089:                                                                                                  #                 G.ODD NOT .1     A SINGLE TABLE RESTART, CAN CAUSE EITHER A JOB, TASK, OR LONGCALL RESTART
000090:
000091:                                                                                                  #  THIS INFORMATION IS PUT INTO THE OCTAL WORD AFTER TC PHASCHNG AS FOLLOWS
000092:
000093:                                                                                                  #                  TL0 00P PPP PPP GGG                                      ,
000094:
000095:                                                                                                  #  WHERE EACH LETTER OR NUMBER STANDS FOR A BIT.  THE G:S STAND FOR THE GROUP, OCTAL 1-7, THE P:S FOR THE PHASE,
000096:                                                                                                  #  OCTAL 0 - 127.  0:S MUST BE 0.              IF ONE WISHES TO HAVE THE TBASE OF GROUP G TO BE SET AT THIS TIME,
000097:                                                                                                  #  T IS SET TO 1, OTHERWISE IT IS SET TO 0.  SIMIARLY IF ONE WISHES TO SET LONGBASE, THEN L IS SET TO 1, OTHERWISE
000098:                                                                                                  #  IT IS SET TO 0.  SOME EXAMPLES,
000099:
000100:                                                                                                  #                                                    TC    PHASCHNG        THIS WILL CAUSE GROUP 3 TOBE SET TO 0,
000101:                                                                                                  #                                                    OCT   00003           MAKING GROUP 3 INACTIVE
000102:
000103:                                                                                                  #                                                    TC    PHASCHNG        IF A RESTART OCCURS THIS WOULD CAUSE
000104:                                                                                                  #                                                    OCT   00012           GROUP 2 TO RESTART THE LAST DISPLAY
000105:
000106:                                                                                                  #                                                    TC    PHASCHNG        THIS SETS THE TBASE OF GROUP 4 AND IN
000107:                                                                                                  #                                                    OCT   40064           CASE OF A RESTART WOULD START UP THE TWO
000108:                                                                                                  #                                                                          THINGS LOCATED IN THE DOUBLE 4.6 RESTART
000109:                                                                                                  #                                                                          LOCATION
000110:
000111:                                                                                                  #                                                    TC    PHASCHNG        THIS SETS LONGBASE AND UPON A RESTART
000112:                                                                                                  #                                                    OCT   20135           CAUSES 5.13 TO BE RESTARTED (SINCE
000113:                                                                                                  #                                                                          LONGBASE WAS SET THIS SINGLE ENTRY
000114:                                                                                                  #                                                                          SHOULD BE A LONGCALL)
000115:
000116:                                                                                                  #                                                    TC    PHASCHNG        SINCE BOTH TBASE4 AND LONGBASE ARE SET,
000117:                                                                                                  #                                                    OCT   60124           4.12 SHOULD CONTAIN BOTH A TASK AND A
000118:                                                                                                  #                                                                          LONGCALL TO BE RESTARTED
000119:
000120:                                                                                                  #  TYPE C PHASCHNG CONTAINS THE VARIABLE TYPE OF PHASCHNG INFORMATION.  INSTEAD OF THE INFORMATION BEING IN A
000121:                                                                                                  #  PERMANENT FORM, ONE STORES THE DESIRED RESTART INFORMATION IN A VARIABKE LOCATION. THE BITS ARE AS FOLLOWS,
000122:
000123:                                                                                                  #                  TL0 1AD XXX CJW GGG
000124:
000125:                                                                                                  #  WHERE EACH LETTER OR NUMBER STANDS FOR A BIT.  THE G:S STAND FOR THE GROUP, OCTAL 1 - 7.  IF THE RESTART IS TO
000126:                                                                                                  #  BE BY WAITLIST, W IS SET TO 1, IF IT IS A JOB, J IS SET TO 1, IF IT IS A LONGCALL, C IS SET TO 1. ONLY ONE OF
000127:                                                                                                  #  THESE THREE BITS MAY BE SET.  X:S ARE IGNORED   1 MUST BE 1, AND 0 MUST BE 0.  AGAIN T STANDS FOR THE TBASE,


000129:                                                                                                  #  AND L FOR LONGBASE.  THE BITS A AND D ARE CONCERNED WITH THE VARIABLE INFORMATION. IF D IS SET TO 1, A PRIORITY
000130:                                                                                                  #  OR DELTA TIME WILL BE READ FROM THE NEXT LOCATION AFTER THE OCTAL INFORMATION, IF THIS IS TO BE INDIRECT, THAT
000131:                                                                                                  #  IS, THE NAME OF A LOCATION COMT+INING THE INFORMATION (DELTA TIME ONLY), THEN THIS IS GIVEN AS THE -GENADR OF
000132:                                                                                                  #  THAT LOCATION WHICH CONTAINS THE DELTA TIME.  IF THE OLD PRIORITY OR DELTA TIME IS TO BE USED, THAT WHICH IS
000133:                                                                                                  #  ALREADY IN THE VARIABLE STORAGE, THEN D IS SET TO 0. NEXT THE A BIT IS USED.  IF IT IS SET TO 0, THE ADDRESS
000134:                                                                                                  #  THAT WOULD BE RESTARTED DURING A RESTART IS THE NEXT LOCATION AFTER THE PHASE INFORMATION, THAT IS, EITHER
000135:                                                                                                  #  (TC PHASCHNG) +2 OR +3, DEPENDING ON WHETHER D HAD BEEN SET OR NOT.  IF A IS SET TO 1, THEN THE ADDRESS THAT
000136:                                                                                                  #  WOULD BE RESTARTED IS THE 2CADR THAT IS READ FROM THE NEXT TWO LOCATIONS.  EXAMPLES,
000137:                                                                                                  #                                          AD       TC     PHASCHNG        THIS WOULD CAUSE LOCATION AD +3 TO BE
000138:                                                                                                  #                                          AD+1     OCT    05023           RESTARTED BY GROUP THREE WITH A PRIORITY
000139:                                                                                                  #                                          AD+2     OCT    23000           OF 23.  NOTE UPON RETURNING IT WOULD
000140:                                                                                                  #                                          AD+3                            ALSO GO TO AD+3
000141:
000142:                                                                                                  #                                          AD       TC     PHASCHNG        GROUP 1 WOULD CAUSE CAUSE CALLCALL TO
000143:                                                                                                  #                                          AD+1     OCT    27441           BE STARTED AS A LONGCALL FROM THE TIME
000144:                                                                                                  #                                          AD+2    -GENADR DELTIME         STORED IN LONGBASE (LONGBASE WAS SET) BY
000145:                                                                                                  #                                          AD+3     2CADR  CALLCALL        A DELTA TIME STORED IN DELTIME.  THE
000146:                                                                                                  #                                          AD+4                            BBCON OF THE 2CADR SHOULD CONTAIN THE E
000147:                                                                                                  #                                          AD+5                            BANK OF DELTIME.  PHASCHNG RETURNS TO
000148:                                                                                                  #                                                                          LOCATION AD+5
000149:
000150:                                                                                                  #  NOTE THAT IF A VARIABLE PRIORITY IS GIVEN FOR A JOB, THE JOB WILL BE RESTARTED AS A NOVAC IF THE PRIORITY IS
000151:                                                                                                  #  NEGATIVE, AS A FINDVAC IF THE PRIORITY IS POSITIVE.
000152:
000153:                                                                                                  #  TYPE B PHASCHNG IS A COMBINATION OF VARIABLE AND FIXED PHASE CHANGES. IT WILL START UP A JOB AS INDICATED
000154:                                                                                                  #  BELOW AND ALSO START UP ONE FIXED RESTART, THAT IS EITHER AN G.1 OR A G.ODD OR THE FIRST ENTRY OF G.EVEN
000155:                                                                                                  #  DOUBLE ENTRY.  THE BIT INFORMATION IS AS FOLLOWS,
000156:
000157:                                                                                                  #                  TL1 DAP PPP PPP GGG
000158:
000159:                                                                                                  #  WHERE EACH LETTER OR NUMBER STANDS FOR A BIT.  THE G:S STAND FOR THE GROUP, OCTAL 1 - 7. THE P:S FOR THE FIXED
000160:                                                                                                  #  PHASE INFORMATION, OCTAL 0 - 127. 1 MUST BE 1.  AND AGAIN T STANDS FOR THE TBASE AND L FOR LONGBASE. D THIS
000161:                                                                                                  #  TIME STANDS ONLY FOR PRIORITY SINCE THIS WILL BE CONSIDERED A JOB, AND IT MUST BE GIVEN DIRECTLY IF GIVEN.
000162:                                                                                                  #  AGAIN A STANDS FOR THE ADDRESS OF THE LOCATION TO BE RESTARTED, 1 IF THE 2CADR IS GIVEN, OR 0 IF IT IS TO BE
000163:                                                                                                  #  THE NEXT LOCATION.  (THE RETURN LOCATION OF PHASCHNG) EXAMPLES,
000164:
000165:                                                                                                  #                                            AD       TC     PHASCHNG       TBASE IS SET AND A RESTART CAUSE GROUP 3
000166:                                                                                                  #                                            AD+1     OCT    56043          TO START THE JOB AJOBAJOB WITH PRIORITY
000167:                                                                                                  #                                            AD+2     OCT    31000           31 AND THE FIRST ENTRY OF 3.4SPOT (WE CAN
000168:                                                                                                  #                                            AD+3     2CADR  AJOBAJOB        ASSUME IT IS A TASK SINCE WE SET TBASE3)
000169:                                                                                                  #                                            AD+4                            UPON RETURN FROM PHASCHNG CONTROL WOULD
000170:                                                                                                  #                                            AD+5                            GO TO AD+5
000171:
000172:                                                                                                  #                                            AD       TC     PHASCHNG        UPON A RESTART THE LAST DISPLAY WOULD BE
000173:                                                                                                  #                                            AD+1     OCT    10015           RESTARTED AND A JOB WITH THE PREVIOUSLY
000174:                                                                                                  #                                            AD+2                            STORED PRIORITY WOULD BE BEGUN AT AD+2
000175:                                                                                                  #                                                                            BY MEANS OF GROUP 5


000177:                                                                                                  #  THE NOVAC-FINDVAC CHOICE FOR JOBS HOLDS HERE ALSO - NEGATIVE PRIORITY CAUSES A NOVAC CALL, POSITIVE A FINDVAC.
000178:
000179:                                                                                                  #  SUMMARY OF BITS
000180:
000181:                                                                                                  #  TYPE A          TL0 00P PPP PPP GGG
000182:
000183:                                                                                                  #  TYPE B          TL1 DAP PPP PPP GGG
000184:
000185:                                                                                                  #  TYPE C          TL0 1AD XXX CJW GGG
000186:


000188:                                                                                                  #  2PHSCHNG IS USED WHEN ONE WISHES TO START UP A GROUP OR CHANGE A GROUP WHILE UNDER THE CONTROL OF A DIFFERENT
000189:                                                                                                  #  GROUP. FOR EXAMPLE, CHANGE THE PHASE OF GROUP 3 WHILE THE PORTION OF THE PROGRAM IS UNDER GROUP 5. ALL 2PHSCHNG
000190:                                                                                                  #  CALLS ARE MADE IN THE FOLLOWING MANNER,
000191:
000192:                                                                                                  #                                                   TC     2PHSCHNG
000193:                                                                                                  #                                                   OCT    XXXXX
000194:                                                                                                  #                                                   OCT    YYYYY
000195:
000196:                                                                                                  #  WHERE OCT XXXXX MUST BE OF TYPE A AND OCT YYYYY MAY BE OF EITHER TYPE A OR TYPE B OR TYPE C.  THERE IS ONE
000197:                                                                                                  #  DIFFERENCE --- NOTE- IF LONGBASE IS TO BE SET THIS INFORMATION IS GIVEN IN THE OCT YYYYY INFORMATION, IT WILL
000198:                                                                                                  #  BE DISREGARDED IF GIVEN WITH THE OCT XXXXX INFORMATION. A COUPLE OF EXAMPLES MAY HELP,
000199:                                                                                                  #                                          AD       TC     2PHSCHNG        SET TBASE3 AND IF A RESTART OCCURS START
000200:                                                                                                  #                                          AD+1     OCT    40083           THE TWO ENTRIES IN 3.8 TABLE LOCATION
000201:                                                                                                  #                                          AD+2     OCT    05025           THIS IS OF TYPE C, SET THE JOB TO BE
000202:                                                                                                  #                                          AD+3     OCT    18000           TO BE LOCATION AD+4, WITH A PRIORITY 18,
000203:                                                                                                  #                                          AD+4                            FOR GROUP 5 PHASE INFORMATION
000204:
000205:    5327                                           COUNT*   $$/PHASE
000206:    5327           00004        2PHSCHNG           INHINT                                         #  THE ENTRY FOR A DOUBLE PHASE CHANGE
000207:    5330           50002                           NDX      Q
000208:    5331           30000                           CA       0
000209:    5332           24002                           INCR     Q
000210:    5333           54072                           TS       TEMPP2
000211:
000212:    5334           74757                           MASK     OCT7
000213:    5335           60000                           DOUBLE
000214:    5336           54071                           TS       TEMPG2
000215:
000216:    5337           30072                           CA       TEMPP2
000217:    5340           75030                           MASK     OCT17770                              #  NEED ONLY 1770, BUT WHY GET A NEW CONST.
000218:    5341           00006                           EXTEND
000219:    5342           74740                           MP       BIT12
000220:    5343           56072                           XCH      TEMPP2
000221:
000222:    5344           74735                           MASK     BIT15
000223:    5345           54066                           TS       TEMPSW2                               #  INDICATES WHETHER TO SET TBASE OR NOT
000224:
000225:    5346           50002                           INDEX    Q
000226:    5347           30000                           CA       0
000227:    5350           24002                           INCR     Q
000228:    5351           54065                           TS       TEMPSW
000229:
000230:    5352           15363                           TCF      PHASJUMP
000231:
000232:    5353           00004        PHASCHNG           INHINT                                         #  NORMAL PHASCHNG ENTRY POINT.
000233:    5354           50002                           INDEX    Q
000234:    5355           30000                           CA       0
000235:    5356           24002                           INCR     Q
000236:    5357           00004        PHSCHNGA           INHINT                                         #  FIRST OCTAL PARAMETER IN A.


000238:    5360           54065                           TS       TEMPSW
000239:    5361           34753                           CA       ONE
000240:    5362           54066                           TS       TEMPSW2
000241:    5363           00006        PHASJUMP           EXTEND
000242:    5364           35367                           DCA      ADRPCHN2                              #  OFF TO SWITCHED BANK
000243:    5365           52006                           DTCB
000244:
000245:    5366  E3,1400                                  EBANK=   LST1
000246:    5366           02224 20103  ADRPCHN2           2CADR    PHSCHNG2
000247:
000248:    5370           22073        ONEORTWO           LXCH     TEMPBBCN
000249:    5371           22006                           LXCH     BBANK
000250:    5372           22073                           LXCH     TEMPBBCN
000251:
000252:    5373           75024                           MASK     OCT14000                              #  SEE WHAT KIND OF PHASE CHANGE IT IS
000253:    5374           10000                           CCS      A
000254:    5375           17753                           TCF      CHECKB                                #   IT IS OF TYPE :B:
000255:
000256:    5376           30062                           CA       TEMPP
000257:    5377           74745                           MASK     BIT7
000258:    5400           10000                           CCS      A                                     #   SHALL WE USE THE OLD PRIORITY
000259:    5401           15423                           TCF      GETPRIO                               #   NO GET A NEW PRIORITY (OR DELTA T)
000260:
000261:    5402           50061        OLDPRIO            NDX      TEMPG                                 #   USE THE OLD PRIORITY (OR DELTA T)
000262:    5403           31051                           CA       PHSPRDT1   -2
000263:    5404           54070                           TS       TEMPPR
000264:
000265:    5405           30062        CON1               CA       TEMPP                                 #  SEE IF A 2CADR IS GIVEN
000266:    5406           74744                           MASK     BIT8
000267:    5407           10000                           CCS      A
000268:    5410           15427                           TCF      GETNEWNM
000269:
000270:    5411           30002                           CA       Q
000271:    5412           54063                           TS       TEMPNM
000272:    5413           30006                           CA       BB
000273:    5414           00006                           EXTEND                                         #  PICK UP USERS SUPERBANK
000274:    5415           04007                           ROR      SUPERBNK
000275:    5416           54064                           TS       TEMPBB
000276:
000277:    5417           35422        TOCON2             CA       CON2ADR                               #  BACK TO SWITCHED BANK
000278:    5420           22073                           LXCH     TEMPBBCN
000279:    5421           52006                           DTCB
000280:
000281:    5422           02312        CON2ADR            GENADR   CON2
000282:
000283:    5423           50002        GETPRIO            NDX      Q                                     #  DON:T CARE IF DIRECT OR INDIRECT
000284:    5424           30000                           CA       0                                     #  LEAVE THAT DECISION TO RESTARTS
000285:    5425           24002                           INCR     Q                                     #  OBTAIN RETURN ADDRESS


000287:    5426           15404                           TCF      CON1       -1
000288:
000289:    5427           00006        GETNEWNM           EXTEND
000290:    5430           50002                           INDEX    Q
000291:    5431           30001                           DCA      0
000292:    5432           52064                           DXCH     TEMPNM
000293:    5433           34752                           CA       TWO
000294:    5434           26002                           ADS      Q                                     #  OBTAIN RETURN ADDRESS
000295:
000296:    5435           15417                           TCF      TOCON2
000297:
000298:    5436     5024               OCT14000           EQUALS   PRIO14
000299:    5436     0061               TEMPG              EQUALS   ITEMP1
000300:    5436     0062               TEMPP              EQUALS   ITEMP2
000301:    5436     0063               TEMPNM             EQUALS   ITEMP3
000302:    5436     0064               TEMPBB             EQUALS   ITEMP4
000303:    5436     0065               TEMPSW             EQUALS   ITEMP5
000304:    5436     0066               TEMPSW2            EQUALS   ITEMP6
000305:    5436     0070               TEMPPR             EQUALS   RUPTREG1
000306:    5436     0071               TEMPG2             EQUALS   RUPTREG2
000307:    5436     0072               TEMPP2             EQUALS   RUPTREG3
000308:
000309:    5436     0073               TEMPBBCN           EQUALS   RUPTREG4
000310:    5436  0000006               BB                 EQUALS   BBANK
000311:
000312: 14,3775                                           BANK     14
000313: 10,2000                                           SETLOC   PHASETAB
000314: 10,2000                                           BANK
000315:
000316: 10,2224  E3,1436                                  EBANK=   PHSNAME1
000317: 10,2224                                           COUNT*   $$/PHASE
000318: 10,2224           22073        PHSCHNG2           LXCH     TEMPBBCN
000319: 10,2225           30065                           CA       TEMPSW
000320: 10,2226           74757                           MASK     OCT7
000321: 10,2227           60000                           DOUBLE
000322: 10,2230           54061                           TS       TEMPG
000323:
000324: 10,2231           30065                           CA       TEMPSW
000325: 10,2232           75030                           MASK     OCT17770
000326: 10,2233           00006                           EXTEND
000327: 10,2234           74740                           MP       BIT12
000328: 10,2235           54062                           TS       TEMPP
000329:
000330: 10,2236           30065                           CA       TEMPSW
000331: 10,2237           74101                           MASK     OCT60000
000332: 10,2240           56065                           XCH      TEMPSW
000333: 10,2241           75024                           MASK     OCT14000
000334: 10,2242           10000                           CCS      A


000336: 10,2243           15370                           TCF      ONEORTWO
000337:
000338: 10,2244           30062                           CA       TEMPP                                 #  START STORING THE PHASE INFORMATION
000339: 10,2245           50061                           NDX      TEMPG
000340: 10,2246           54750                           TS       PHASE1     -2
000341:
000342: 10,2247           10066        BELOW1             CCS      TEMPSW2                               #  IS IT A PHASCHNG OR A 2PHSCHNG
000343: 10,2250           12264                           TCF      BELOW2                                #  IT:S A PHASCHNG
000344:
000345: 10,2251           12252                           TCF      +1                                    #  IT:S A 2PHSCHNG
000346: 10,2252           40072                           CS       TEMPP2
000347: 10,2253           22072                           LXCH     TEMPP2
000348: 10,2254           50071                           NDX      TEMPG2
000349: 10,2255           52750                           DXCH     -PHASE1    -2
000350:
000351: 10,2256           10066                           CCS      TEMPSW2
000352: 10,2257           12260                           NOOP                                           #  CAN:T GET HERE
000353: 10,2260           12264                           TCF      BELOW2
000354:
000355: 10,2261           40025                           CS       TIME1
000356: 10,2262           50071                           NDX      TEMPG2
000357: 10,2263           55050                           TS       TBASE1     -2
000358:
000359: 10,2264           10065        BELOW2             CCS      TEMPSW                                #  SEE IF WE SHOULD SET TBASE OR LONGBASE
000360: 10,2265           12300                           TCF      BELOW3                                #  SET LONGBASE ONLY
000361: 10,2266           12303                           TCF      BELOW4                                #  SET NEITHER
000362:
000363: 10,2267           40025                           CS       TIME1                                 #  SET TBASE TO BEGIN WITH
000364: 10,2270           50061                           NDX      TEMPG
000365: 10,2271           55050                           TS       TBASE1     -2
000366:
000367: 10,2272           30065                           CA       TEMPSW                                #  SHALL WE NOW SET LONGBASE
000368: 10,2273           62276                           AD       BIT14COM
000369: 10,2274           10000                           CCS      A
000370: 10,2275           12276                           NOOP                                           #  ***** CANT GET HERE *****
000371: 10,2276           17777        BIT14COM           OCT      17777                                 #  ***** CANT GET HERE *****
000372: 10,2277           12303                           TCF      BELOW4                                #  NO WE NEED ONLY SET TBASE
000373:
000374: 10,2300           00006        BELOW3             EXTEND                                         #  SET LONGBASE
000375: 10,2301           30025                           DCA      TIME2
000376: 10,2302           53151                           DXCH     LONGBASE
000377:
000378: 10,2303           40062        BELOW4             CS       TEMPP                                 #  AND STORE THE FINAL PART OF THE PHASE
000379: 10,2304           50061                           NDX      TEMPG
000380: 10,2305           54747                           TS       -PHASE1    -2
000381:
000382: 10,2306           30002                           CA       Q
000383: 10,2307           22073                           LXCH     TEMPBBCN
000384: 10,2310           00003                           RELINT
000385: 10,2311           52006                           DTCB


000387: 10,2312           22073        CON2               LXCH     TEMPBBCN
000388:
000389: 10,2313           30062                           CA       TEMPP
000390: 10,2314           50061                           NDX      TEMPG
000391: 10,2315           54750                           TS       PHASE1     -2
000392:
000393: 10,2316           30070                           CA       TEMPPR
000394: 10,2317           50061                           NDX      TEMPG
000395: 10,2320           55051                           TS       PHSPRDT1   -2
000396:
000397: 10,2321           00006                           EXTEND
000398: 10,2322           30064                           DCA      TEMPNM
000399: 10,2323           50061                           NDX      TEMPG
000400: 10,2324           53435                           DXCH     PHSNAME1   -2
000401:
000402: 10,2325           12247                           TCF      BELOW1
000403:
000404:    7753                                           BLOCK    03
000405:    6000                                           SETLOC   FFTAG6
000406:    6000                                           BANK
000407:
000408:    7753                                           COUNT*   $$/PHASE
000409:    7753           74740        CHECKB             MASK     BIT12                                 #  SINCE THIS IS OF TYPE B, THIS BIT SHOULD
000410:    7754           10000                           CCS      A                                     #  BE HERE IF WE ARE TO GET A NEW PRIORITY
000411:    7755           15423                           TCF      GETPRIO                               #  IT IS, SO GET NEW PRIORITY
000412:
000413:    7756           15402                           TCF      OLDPRIO                               #  IT ISN:T, USE THE OLD PRIORITY
000414:
000415:

End of include-file PHASE_TABLE_MAINTENANCE.agc.  Parent file is MAIN.agc


