
Source Code


000002:                                                                                                  ## Copyright:   Public domain.
000003:                                                                                                  ## Filename:    RESTARTS_ROUTINE.agc
000004:                                                                                                  ## Purpose:     A section of Luminary revision 116.
000005:                                                                                                  ##              It is part of the source code for the Lunar Module's (LM)
000006:                                                                                                  ##              Apollo Guidance Computer (AGC) for Apollo 12.
000007:                                                                                                  ##              This file is intended to be a faithful transcription, except
000008:                                                                                                  ##              that the code format has been changed to conform to the
000009:                                                                                                  ##              requirements of the yaYUL assembler rather than the
000010:                                                                                                  ##              original YUL assembler.
000011:                                                                                                  ## Reference:   pp. 1293-1298
000012:                                                                                                  ## Assembler:   yaYUL
000013:                                                                                                  ## Contact:     Ron Burkey <info@sandroid.org>.
000014:                                                                                                  ## Website:     www.ibiblio.org/apollo/index.html
000015:                                                                                                  ## Mod history: 2017-01-22 MAS  Created from Luminary 99.
000016:                                                                                                  ##              2017-03-06 RRB  Updated for Luminary 116.
000017:                                                                                                  ##              2017-03-14 RSB  Proofed comment text via 3-way diff vs
000018:                                                                                                  ##                              Luminary 99 and 131.
000019:                                                                                                  ##              2017-03-16 RSB  Comment-text fixes identified in 5-way
000020:                                                                                                  ##                              side-by-side diff of Luminary 69/99/116/131/210.
000021:


000023: 01,3527                                           BANK     01
000024: 01,2000                                           SETLOC   RESTART
000025: 01,2000                                           BANK
000026:
000027: 01,3527  E3,1436                                  EBANK=   PHSNAME1                              #  GOPROG MUST SWITCH TO THIS EBANK
000028:
000029: 01,3527                                           COUNT*   $$/RSROU
000030: 01,3527           30161        RESTARTS           CA       MPAC       +5                         #  GET GROUP NUMBER -1
000031: 01,3530           60000                           DOUBLE                                         #  SAVE FOR INDEXING
000032: 01,3531           54155                           TS       TEMP2G
000033:
000034: 01,3532           33771                           CA       PHS2CADR                              #  SET UP EXIT IN CASE IT IS AN EVEN
000035: 01,3533           54157                           TS       TEMPSWCH                              #  TABLE PHASE
000036:
000037: 01,3534           33566                           CA       RTRNCADR                              #  TO SAVE TIME ASSUME IT WILL GET NEXT
000038: 01,3535           54707                           TS       GOLOC      +2                         #  GROUP AFTER THIS
000039:
000040: 01,3536           30154                           CA       TEMPPHS
000041: 01,3537           75007                           MASK     OCT1400
000042: 01,3540           10000                           CCS      A                                     #  IS IT A VARIABLE OR TABLE RESTART
000043: 01,3541           13552                           TCF      ITSAVAR                               #  IT:S A VARIABLE RESTART
000044:
000045: 01,3542           10154        GETPART2           CCS      TEMPPHS                               #  IS IT AN X.1 RESTART
000046: 01,3543           10000                           CCS      A
000047: 01,3544           13652                           TCF      ITSATBL                               #  NO, ITS A TABLE RESTART
000048:
000049: 01,3545           35024                           CA       PRIO14                                #  IT IS AN X.1 RESTART, THEREFORE START
000050: 01,3546           05105                           TC       FINDVAC                               #  THE DISPLAY RESTART JOB
000051: 01,3547  E3,1400                                  EBANK=   LST1
000052: 01,3547           03040 20103                     2CADR    INITDSP
000053:
000054: 01,3551           03566                           TC       RTRNCADR                              #  FINISHED WITH THIS GROUP, GET NEXT ONE
000055:
000056: 01,3552           75007        ITSAVAR            MASK     OCT1400                               #  IS IT TYPE B ?
000057: 01,3553           10000                           CCS      A
000058: 01,3554           13623                           TCF      ITSLIKEB                              #  YES,IT IS TYPE B
000059:
000060: 01,3555           00006                           EXTEND                                         #  STORE THE JOB (OR TASK) 2CADR FOR EXIT
000061: 01,3556           50155                           NDX      TEMP2G
000062: 01,3557           31437                           DCA      PHSNAME1
000063: 01,3560           52706                           DXCH     GOLOC
000064:
000065: 01,3561           30154                           CA       TEMPPHS                               #  SEE IF THIS IS A JOB, TASK, OR A LONGCAL
000066: 01,3562           74757                           MASK     OCT7
000067: 01,3563           67751                           AD       MINUS2
000068: 01,3564           10000                           CCS      A
000069: 01,3565           13735                           TCF      ITSLNGCL                              #  ITS A LONGCALL
000070:
000071: 01,3566           04631        RTRNCADR           TC       SWRETURN                              #  CANT GET HERE


000073: 01,3567           13571                           TCF      ITSAWAIT
000074:
000075: 01,3570           13636                           TCF      ITSAJOB                               #  ITS A JOB
000076:
000077: 01,3571           33775        ITSAWAIT           CA       WTLTCADR                              #  SET UP WAITLIST CALL
000078: 01,3572           54704                           TS       GOLOC      -1
000079:
000080: 01,3573           50155                           NDX      TEMP2G                                #  DIRECTLY STORED
000081: 01,3574           31053                           CA       PHSPRDT1
000082: 01,3575           10000        TIMETEST           CCS      A                                     #  IS IT AN IMMEDIATE RESTART
000083: 01,3576           24000                           INCR     A                                     #  NO,
000084: 01,3577           13602                           TCF      FINDTIME                              #  FIND OUT WHEN IT SHOULD BEGIN
000085:
000086: 01,3600           15436                           TCF      ITSINDIR                              #  STORED INDIRECTLY
000087:
000088: 01,3601           13621                           TCF      IMEDIATE                              #  IT WANTS AN IMMEDIATE RESTART
000089:
000090:                                                                                                  #  ***** THIS MUST BE IN FIXED FIXED *****
000091:
000092:    5436                                           BLOCK    02
000093:    4000                                           SETLOC   FFTAG2
000094:    4000                                           BANK
000095:
000096:    5436                                           COUNT*   $$/RSROU
000097:    5436           22706        ITSINDIR           LXCH     GOLOC      +1                         #  GET THE CORRECT E BANK IN CASE THIS IS
000098:    5437           22006                           LXCH     BB                                    #  SWITCHED ERRASIBLE
000099:
000100:    5440           50000                           NDX      A                                     #  GET THE TIME INDIRECTLY
000101:    5441           30001                           CA       1
000102:
000103:    5442           22006                           LXCH     BB                                    #  RESTORE THE BB AND GOLOC
000104:    5443           22706                           LXCH     GOLOC      +1
000105:
000106:    5444           13602                           TCF      FINDTIME                              #  FIND OUT WHEN IT SHOULD BEGIN
000107:
000108:                                                                                                  #  ***** YOU MAY RETURN TO SWITCHED FIXED *****
000109:
000110: 01,3602                                           BANK     01
000111: 01,2000                                           SETLOC   RESTART
000112: 01,2000                                           BANK
000113:
000114: 01,3602                                           COUNT*   $$/RSROU
000115: 01,3602           40000        FINDTIME           COM                                            #  MAKE NEGITIVE SINCE IT WILL BE SUBTRACTD
000116: 01,3603           54001                           TS       L                                     #  AND SAVE
000117: 01,3604           50155                           NDX      TEMP2G
000118: 01,3605           41052                           CS       TBASE1
000119: 01,3606           00006                           EXTEND
000120: 01,3607           60025                           SU       TIME1
000121: 01,3610           10000                           CCS      A
000122: 01,3611           40000                           COM


000124: 01,3612           67734                           AD       OCT37776
000125: 01,3613           64753                           AD       ONE
000126: 01,3614           60001                           AD       L
000127: 01,3615           10000                           CCS      A
000128: 01,3616           34755                           CA       ZERO
000129: 01,3617           13621                           TCF      +2
000130: 01,3620           13621                           TCF      +1
000131: 01,3621           64753        IMEDIATE           AD       ONE
000132: 01,3622           00704                           TC       GOLOC      -1
000133: 01,3623           33566        ITSLIKEB           CA       RTRNCADR                              #  TYPE B,             SO STORE RETURN IN
000134: 01,3624           54157                           TS       TEMPSWCH                              #  TEMPSWCH IN CASE OF AN EVEN PHASE
000135:
000136: 01,3625           33772                           CA       PRT2CADR                              #  SET UP EXIT TO GET TABLE PART OF THIS
000137: 01,3626           54707                           TS       GOLOC      +2                         #  VARIABLE TYPE OF PHASE
000138:
000139: 01,3627           30154                           CA       TEMPPHS                               #  MAKE THE PHASE LOOK RIGHT FOR THE TABLE
000140: 01,3630           76077                           MASK     OCT177                                #  PART OF THIS VARIABLE PHASE
000141: 01,3631           54154                           TS       TEMPPHS
000142:
000143: 01,3632           00006                           EXTEND
000144: 01,3633           50155                           NDX      TEMP2G                                #  OBTAIN THE JOB:S 2CADR
000145: 01,3634           31437                           DCA      PHSNAME1
000146: 01,3635           52706                           DXCH     GOLOC
000147:
000148: 01,3636           50155        ITSAJOB            NDX      TEMP2G                                #  NOW ADD THE PRIORITY AND LET:S GO
000149: 01,3637           31053                           CA       PHSPRDT1
000150: 01,3640           54704        CHKNOVAC           TS       GOLOC      -1                         #  SAVE PRIO UNTIL WE SEE IF ITS
000151: 01,3641           00006                           EXTEND                                         #  A FINDVAC OR A NOVAC
000152: 01,3642           63646                           BZMF     ITSNOVAC
000153:
000154: 01,3643           33774                           CAF      FVACCADR                              #  POSITIVE, SET UP FINDVAC CALL.
000155: 01,3644           56704                           XCH      GOLOC      -1                         #  PICK UP PRIO,
000156: 01,3645           00704                           TC       GOLOC      -1                         #  AND GO
000157:
000158: 01,3646           33776        ITSNOVAC           CAF      NOVACADR                              #  NEGATIVE,
000159: 01,3647           56704                           XCH      GOLOC      -1                         #  SET UP NOVAC CALL,
000160: 01,3650           40000                           COM                                            #  CORRECT PRIO,
000161: 01,3651           00704                           TC       GOLOC      -1                         #  AND GO
000162:
000163: 01,3652           54020        ITSATBL            TS       CYR                                   #  FIND OUT IF THE PHASE IS ODD OR EVEN
000164: 01,3653           10020                           CCS      CYR
000165: 01,3654           13655                           TCF      +1                                    #  IT:S EVEN
000166: 01,3655           13753                           TCF      ITSEVEN
000167:
000168: 01,3656           33566                           CA       RTRNCADR                              #  IN CASE THIS IS THE SECOND PART OF A
000169: 01,3657           54707                           TS       GOLOC      +2                         #  TYPE B RESTART, WE NEED PROPER EXIT
000170:
000171: 01,3660           30154                           CA       TEMPPHS                               #  SET UP POINTER FOR FINDING OUR PLACE IN
000172: 01,3661           54021                           TS       SR                                    #  THE RESTART TABLES
000173: 01,3662           60021                           AD       SR


000175: 01,3663           50155                           NDX      TEMP2G
000176: 01,3664           62003                           AD       SIZETAB    +1
000177: 01,3665           54156                           TS       POINTER
000178:
000179: 01,3666           00006        CONTBL2            EXTEND                                         #  FIND OUT WHAT:S IN THE TABLE
000180: 01,3667           50156                           NDX      POINTER
000181: 01,3670           32002                           DCA      CADRTAB                               #  GET THE 2CADR
000182:
000183: 01,3671           22706                           LXCH     GOLOC      +1                         #  STORE THE BB INFORMATION
000184:
000185: 01,3672           10000                           CCS      A                                     #  IS IT A JOB OR IS IT TIMED
000186: 01,3673           24000                           INCR     A                                     #  POSITIVE, MUST BE A JOB
000187: 01,3674           13747                           TCF      ITSAJOB2
000188:
000189: 01,3675           24000                           INCR     A                                     #  MUST BE EITHER A WAITLIST OR LONGCALL
000190: 01,3676           54705                           TS       GOLOC                                 #  LET-S STORE THE CORRECT CADR
000191:
000192: 01,3677           33775                           CA       WTLTCADR                              #  SET UP OUR EXIT TO WAITLIST
000193: 01,3700           54704                           TS       GOLOC      -1
000194:
000195: 01,3701           30706                           CA       GOLOC      +1                         #  NOW FIND OUT IF IT IS A WAITLIST CALL
000196: 01,3702           74742                           MASK     BIT10                                 #  THIS SHOULD BE ONE IF WE HAVE -BB
000197: 01,3703           10000                           CCS      A                                     #  FOR THAT MATTER SO SHOULD BE BITS 9,8,7,
000198:                                                                                                  #  6,5, AND LAST BUT NOT LEAST (PERHAPS NOT
000199:                                                                                                  #  IN IMPORTANCE ANYWAY. BIT 4
000200: 01,3704           13742                           TCF      ITSWTLST                              #  IT IS A WAITLIST CALL
000201:
000202: 01,3705           50156                           NDX      POINTER                               #  OBTAIN THE ORIGINAL DELTA T
000203: 01,3706           32000                           CA       PRDTTAB                               #  ADDRESS FOR THIS LONGCALL
000204:
000205: 01,3707           15445                           TCF      ITSLGCL1                              #  NOW GO GET THE DELTA TIME
000206:
000207:                                                                                                  #  ***** THIS MUST BE IN FIXED FIXED *****
000208:
000209:    5445                                           BLOCK    02
000210:    4000                                           SETLOC   FFTAG2
000211:    4000                                           BANK
000212:
000213:    5445                                           COUNT*   $$/RSROU
000214:    5445           22706        ITSLGCL1           LXCH     GOLOC      +1                         #  OBTAIN THE CORRECT E BANK
000215:    5446           22006                           LXCH     BB
000216:    5447           22706                           LXCH     GOLOC      +1                         #  AND PRESERVE OUR E AND F BANKS
000217:
000218:    5450           00006                           EXTEND                                         #  GET THE DELTA TIME
000219:    5451           50000                           NDX      A
000220:    5452           30001                           DCA      0
000221:
000222:    5453           22706                           LXCH     GOLOC      +1                         #  RESTORE OUR E AND F BANK
000223:    5454           22006                           LXCH     BB                                    #  RESTORE THE TASKS E AND F BANKS
000224:    5455           22706                           LXCH     GOLOC      +1                         #  AND PRESERVE OUR L


000226:    5456           13710                           TCF      ITSLGCL2                              #  NOW LET:S PROCESS THIS LONGCALL
000227:
000228:                                                                                                  #  ***** YOU MAY RETURN TO SWITCHED FIXED *****
000229:
000230: 01,3710                                           BANK     01
000231: 01,2000                                           SETLOC   RESTART
000232: 01,2000                                           BANK
000233:
000234: 01,3710                                           COUNT*   $$/RSROU
000235: 01,3710           53153        ITSLGCL2           DXCH     LONGTIME
000236:
000237: 01,3711           00006                           EXTEND                                         #  CALCULATE TIME LEFT
000238: 01,3712           40025                           DCS      TIME2
000239: 01,3713           21153                           DAS      LONGTIME
000240: 01,3714           00006                           EXTEND
000241: 01,3715           31151                           DCA      LONGBASE
000242: 01,3716           21153                           DAS      LONGTIME
000243:
000244: 01,3717           11152                           CCS      LONGTIME                              #  FIND OUT HOW THIS SHOULD BE RESTARTED
000245: 01,3720           13730                           TCF      LONGCLCL
000246: 01,3721           13723                           TCF      +2
000247: 01,3722           13616                           TCF      IMEDIATE   -3
000248: 01,3723           11153                           CCS      LONGTIME   +1
000249: 01,3724           13730                           TCF      LONGCLCL
000250: 01,3725           13726                           NOOP                                           #  CAN:T GET HERE    *********
000251: 01,3726           13616                           TCF      IMEDIATE   -3
000252: 01,3727           13621                           TCF      IMEDIATE
000253:
000254: 01,3730           33773        LONGCLCL           CA       LGCLCADR                              #  WE WILL GO TO LONGCALL
000255: 01,3731           54704                           TS       GOLOC      -1
000256:
000257: 01,3732           00006                           EXTEND                                         #  PREPARE OUR ENTRY TO LONGCALL
000258: 01,3733           31153                           DCA      LONGTIME
000259: 01,3734           00704                           TC       GOLOC      -1
000260:
000261: 01,3735           33775        ITSLNGCL           CA       WTLTCADR                              #  ASSUME IT WILL GO TO WAITLIST
000262: 01,3736           54704                           TS       GOLOC      -1
000263:
000264: 01,3737           50155                           NDX      TEMP2G
000265: 01,3740           41053                           CS       PHSPRDT1                              #  GET THE DELTA T ADDRESS
000266:
000267: 01,3741           15445                           TCF      ITSLGCL1                              #  NOW GET THE DELTA TIME
000268:
000269: 01,3742           40706        ITSWTLST           CS       GOLOC      +1                         #  CORRECT THE BBCON INFORMATION
000270: 01,3743           54706                           TS       GOLOC      +1
000271:
000272: 01,3744           50156                           NDX      POINTER                               #  GET THE DT AND FIND OUT IF IT WAS STORED
000273: 01,3745           32000                           CA       PRDTTAB                               #  DIRECTLY OR INDIRECTLY
000274:
000275: 01,3746           13575                           TCF      TIMETEST                              #  FIND OUT HOW THE TIME IS STORED
000276:


000278: 01,3747           56705        ITSAJOB2           XCH      GOLOC                                 #  STORE THE CADR
000279:
000280: 01,3750           50156                           NDX      POINTER                               #  ADD THE PRIORITY AND LET:S GO
000281: 01,3751           32000                           CA       PRDTTAB
000282:
000283: 01,3752           13640                           TCF      CHKNOVAC
000284:
000285: 01,3753           30157        ITSEVEN            CA       TEMPSWCH                              #  SET UP FOR EITHER THE SECOND PART OF THE
000286: 01,3754           54707                           TS       GOLOC      +2                         #  TABLE, OR A RETURN FOR THE NEXT GROUP
000287:
000288: 01,3755           50155                           NDX      TEMP2G                                #  SET UP POINTER FOR OUR LOCATION WITHIN
000289: 01,3756           32002                           CA       SIZETAB                               #  THE TABLE
000290: 01,3757           60154                           AD       TEMPPHS                               #  THIS MAY LOOK BAD BUT LET:S SEE YOU DO
000291: 01,3760           60154                           AD       TEMPPHS                               #  BETTER IN TIME OR NUMBERR OF LOCATIONS
000292: 01,3761           60154                           AD       TEMPPHS
000293: 01,3762           54156                           TS       POINTER
000294:
000295: 01,3763           13666                           TCF      CONTBL2                               #  NOW PROCESS WHAT IS IN THE TABLE
000296:
000297: 01,3764           36250        PHSPART2           CA       THREE                                 #  SET THE POINTER FOR THE SECOND HALF OF
000298: 01,3765           26156                           ADS      POINTER                               #  THE TABLE
000299:
000300: 01,3766           33566                           CA       RTRNCADR                              #  THIS WILL BE OUR LAST TIME THROUGH THE
000301: 01,3767           54707                           TS       GOLOC      +2                         #  EVEN TABLE, SO AFTER IT GET THE NEXT
000302:                                                                                                  #  GROUP
000303: 01,3770           13666                           TCF      CONTBL2                               #  SO LET:S GET THE SECOND ENTRY IN THE TBL
000304:
000305: 01,3771     0154               TEMPPHS            EQUALS   MPAC
000306: 01,3771     0155               TEMP2G             EQUALS   MPAC       +1
000307: 01,3771     0156               POINTER            EQUALS   MPAC       +2
000308: 01,3771     0157               TEMPSWCH           EQUALS   MPAC       +3
000309: 01,3771     0705               GOLOC              EQUALS   VAC5       +20D
000310: 01,3771     7751               MINUS2             EQUALS   NEG2
000311: 01,3771     6077               OCT177             EQUALS   LOW7
000312:
000313: 01,3771           03764        PHS2CADR           GENADR   PHSPART2
000314: 01,3772           03542        PRT2CADR           GENADR   GETPART2
000315: 01,3773           05277        LGCLCADR           GENADR   LONGCALL
000316: 01,3774           05105        FVACCADR           GENADR   FINDVAC
000317: 01,3775           05203        WTLTCADR           GENADR   WAITLIST
000318: 01,3776           05072        NOVACADR           GENADR   NOVAC
000319:
000320:

End of include-file RESTARTS_ROUTINE.agc.  Parent file is MAIN.agc


