
Source Code


000002:                                                                                                  ## Copyright:   Public domain.
000003:                                                                                                  ## Filename:    SINGLE_PRECISION_SUBROUTINES.agc
000004:                                                                                                  ## Purpose:     A section of Luminary revision 116.
000005:                                                                                                  ##              It is part of the source code for the Lunar Module's (LM)
000006:                                                                                                  ##              Apollo Guidance Computer (AGC) for Apollo 12.
000007:                                                                                                  ##              This file is intended to be a faithful transcription, except
000008:                                                                                                  ##              that the code format has been changed to conform to the
000009:                                                                                                  ##              requirements of the yaYUL assembler rather than the
000010:                                                                                                  ##              original YUL assembler.
000011:                                                                                                  ## Reference:   p.  1094
000012:                                                                                                  ## Assembler:   yaYUL
000013:                                                                                                  ## Contact:     Ron Burkey <info@sandroid.org>.
000014:                                                                                                  ## Website:     www.ibiblio.org/apollo/index.html
000015:                                                                                                  ## Mod history: 2017-01-22 MAS  Created from Luminary 99.
000016:                                                                                                  ##              2017-01-27 RRB  Updated for Luminary 116.
000017:                                                                                                  ##              2017-03-14 RSB  Proofed comment text via 3-way diff vs
000018:                                                                                                  ##                              Luminary 99 and 131 ... no problems found.
000019:


000021:    5032                                           BLOCK    02
000022:
000023:                                                                                                  #  SINGLE PRECISION SINE AND COSINE
000024:
000025:    5032                                           COUNT*   $$/INTER
000026:    5032           64736        SPCOS              AD       HALF                                  #  ARGUMENTS SCALED AT PI
000027:    5033           55075        SPSIN              TS       TEMK
000028:    5034           15036                           TCF      SPT
000029:    5035           41075                           CS       TEMK
000030:    5036           60000        SPT                DOUBLE
000031:    5037           55075                           TS       TEMK
000032:    5040           15051                           TCF      POLLEY
000033:    5041           57075                           XCH      TEMK
000034:    5042           51075                           INDEX    TEMK
000035:    5043           64734                           AD       LIMITS
000036:    5044           40000                           COM
000037:    5045           61075                           AD       TEMK
000038:    5046           55075                           TS       TEMK
000039:    5047           15051                           TCF      POLLEY
000040:    5050           15067                           TCF      ARG90
000041:    5051           00006        POLLEY             EXTEND
000042:    5052           71075                           MP       TEMK
000043:    5053           55076                           TS       SQ
000044:    5054           00006                           EXTEND
000045:    5055           75005                           MP       C5/2
000046:    5056           67742                           AD       C3/2
000047:    5057           00006                           EXTEND
000048:    5060           71076                           MP       SQ
000049:    5061           67722                           AD       C1/2
000050:    5062           00006                           EXTEND
000051:    5063           71075                           MP       TEMK
000052:    5064           20001                           DDOUBL
000053:    5065           55075                           TS       TEMK
000054:    5066           00002                           TC       Q
000055:    5067           50000        ARG90              INDEX    A
000056:    5070           44734                           CS       LIMITS
000057:    5071           00002                           TC       Q                                     #  RESULT SCALED AT 1
000058:
000059:

End of include-file SINGLE_PRECISION_SUBROUTINES.agc.  Parent file is MAIN.agc


