
Source Code


000002:                                                                                                  ## Copyright:   Public domain.
000003:                                                                                                  ## Filename:    SPS_BACK-UP_RCS_CONTROL.agc
000004:                                                                                                  ## Purpose:     A section of Luminary revision 116.
000005:                                                                                                  ##              It is part of the source code for the Lunar Module's (LM)
000006:                                                                                                  ##              Apollo Guidance Computer (AGC) for Apollo 12.
000007:                                                                                                  ##              This file is intended to be a faithful transcription, except
000008:                                                                                                  ##              that the code format has been changed to conform to the
000009:                                                                                                  ##              requirements of the yaYUL assembler rather than the
000010:                                                                                                  ##              original YUL assembler.
000011:                                                                                                  ## Reference:   pp. 1497-1500
000012:                                                                                                  ## Assembler:   yaYUL
000013:                                                                                                  ## Contact:     Ron Burkey <info@sandroid.org>.
000014:                                                                                                  ## Website:     www.ibiblio.org/apollo/index.html
000015:                                                                                                  ## Mod history: 2017-01-22 MAS  Created from Luminary 99.
000016:                                                                                                  ##              2017-01-23 RRB  Updated for Luminary 116.
000017:                                                                                                  ##              2017-03-14 RSB  Proofed comment text via 3-way diff vs
000018:                                                                                                  ##                              Luminary 99 and 131.
000019:


000021:                                                                                                  #  PROGRAM NAME:  SPSRCS
000022:
000023:                                                                                                  #  AUTHOR:  EDGAR M. OSHIKA (AC ELECTRONICS)
000024:
000025:                                                                                                  #  MODIFIED:  TO RETURN TO ALL AXES VIA Q BY P.S.WEISSMAN, OCT 7, 1968
000026:
000027:                                                                                                  #  MODIFIED TO IMPROVE BENDING STABILITY BY G. KALAN,FEB.14, 1969
000028:                                                                                                  #  FUNCTIONAL DESCRIPTION:
000029:
000030:                                                                                                  #  THIS PROGRAM CONTROLS THE FIRING OF ALL RCS JETS IN THE DOCKED CONFIGURATION ACCORDING TO THE FOLLOWING PHASE
000031:                                                                                                  #  PLANE LOGIC.
000032:
000033:                                                                                                  #  1. JET SENSE TEST (SPSRCS)
000034:
000035:                                                                                                  #  IF JETS ARE FIRING NEGATIVELY,SET OLDSENSE NEGATIVE AND CONTINUE
000036:                                                                                                  #  IF JETS ARE FIRING POSITIVELY,SET OLDSENSE POSITIVE AND CONTINUE
000037:                                                                                                  #  IF JETS ARE NOT FIRING,SET OLDSENSE TO ZERO AND GO TO OUTER RATE LIMIT TEST
000038:
000039:                                                                                                  #  2. RATE DEAD BAND TEST
000040:
000041:                                                                                                  #  IF JETS ARE FIRING NEGATIVELY AND RATE IS GREATER THAN TARGET RATE, LEAVE
000042:                                                                                                  #  JETS ON AND GO TO INHIBITION LOGIC. OTHERWISE, CONTINUE.
000043:                                                                                                  #  IF JETS ARE FIRING POSITIVELY AND RATE IS   LESS  THAN TARGET RATE, LEAVE
000044:                                                                                                  #  JETS ON AND GO TO INHIBITION LOGIC. OTHERWISE, CONTINUE.
000045:
000046:                                                                                                  #  3. OUTER RATE LIMIT TEST (SPSSTART)
000047:
000048:                                                                                                  #  IF MAGNITUDE OF EDOT IS GREATER THAN 1.73 DEG/SEC SET JET FIRING TIME
000049:                                                                                                  #   TO REDUCE RATE AND GO TO INHIBITION LOGIC. OTHERWISE, CONTINUE.
000050:
000051:                                                                                                  #  4. COAST ZONE TEST
000052:
000053:                                                                                                  #  IF STATE (E,EDOT) IS BELOW LINE   E + 4 X EDOT > -1.4 DEG AND EDOT IS LESS THAN 1.30 DEG/SEC SET JET TIME POSI-
000054:                                                                                                  #  TIVE AND CONTINUE. OTHERWISE,SET JET FIRING TIME TO ZERO AND CONTINUE.
000055:                                                                                                  #  IF STATE IS ABOVE LINE  E + 4 X EDOT > +1.4 DEG AND EDOT IS GREATER THAN -1.30 DEG/SEC, SET JET TIME NEGATIVE
000056:                                                                                                  #  AND CONTINUE. OTHERWISE,SET JET FIRING TIME TO ZERO AND CONTINUE.
000057:
000058:                                                                                                  #  5. INHIBITION LOGIC
000059:
000060:                                                                                                  #  IF OLDSENSE IS NON-ZERO:
000061:
000062:                                                                                                  #        A) RETURN IF JET TIME HAS SAME SIGN AS OLDSENSE
000063:                                                                                                  #        B) SET INHIBITION COUNTER*AND RETURN IF JET TIME IS ZERO
000064:                                                                                                  #        C) SET INHIBITION COUNTER,*SET JET TIME TO ZERO AND RETURN IF SIGN
000065:                                                                                                  #           OF JET TIME IS OPPOSITE TO THAT OF OLDSENSE
000066:
000067:                                                                                                  #  IF OLDSENSE IS ZERO:
000068:                                                                                                  #        A) RETURN IF INHIBITION COUNTER IS NOT POSITIVE
000069:                                                                                                  #        B) SET JET TIME TO ZERO AND RETURN IF INHIBITION COUNTER IS POSITIVE
000070:                                                                                                  #  *NOTE: INHIBITION COUNTERS CAN BE SET TO 4 OR 10 FOR THE P, AND UV AXES,
000071:                                                                                                  #  RESPECTIVELY, IN SPSRCS. THEY ARE DECREMENTED BY ONE AT THE BEGINNING OF


000073:                                                                                                  #  EACH DAP PASS.
000074:
000075:                                                                                                  #  THE MINIMUM PULSE WIDTH OF THIS CONTROLLER IS DETERMINED BY THE REPETITION  RATE AT WHICH THIS ROUTINE IS CALLED
000076:                                                                                                  #  AND IS NOMINALLY 100 MS FOR ALL AXES IN DRIFTING FLIGHT.   DURING POWERED FLIGHT THE MINIMUM IS 100 MS FOR THE
000077:                                                                                                  #  P AXIS AND 200 MS FOR THE CONTROL OF THE U AND V AXES.
000078:
000079:                                                                                                  #  CALLING SEQUENCE:
000080:
000081:                                                                                                  #                INHINT
000082:                                                                                                  #                TC      IBNKCALL
000083:                                                                                                  #                CADR    SPSRCS
000084:
000085:                                                                                                  #  EXIT:
000086:
000087:                                                                                                  #                TC      Q
000088:                                                                                                  #  ALARM/ABORT MODE:     NONE
000089:
000090:                                                                                                  #  SUBROUTINES CALLED:   NONE
000091:
000092:                                                                                                  #  INPUT:                E,EDOT
000093:                                                                                                  #                        TJP, TJV, TJU           TJ MUST NOT BE NEGATIVE ZERO
000094:
000095:                                                                                                  #  OUTPUT:               TJP, TJV, TJU
000096:
000097: 21,3647                                           BANK     21
000098: 21,2000                                           SETLOC   DAPS4
000099: 21,2000                                           BANK
000100:
000101: 21,3647                                           COUNT*   $$/DAPBU
000102:
000103: 21,3647  E6,1525                                  EBANK=   TJU
000104: 21,3647           00632        RATELIM2           OCT      00632                                 #  1.125 DEG/SEC
000105: 21,3650           34736        POSTHRST           CA       HALF
000106:
000107: 21,3651           51505                           NDX      AXISCTR
000108: 21,3652           55525                           TS       TJU
000109: 21,3653           11745                           CCS      OLDSENSE
000110: 21,3654           13674                           TCF      POSCHECK                              #  JETS FIRING POSITIVELY
000111: 21,3655           13677                           TCF      CTRCHECK                              #  JETS OFF. CHECK INHIBITION CTR
000112: 21,3656           51505        NEGCHECK           INDEX    AXISCTR                               #  JETS FIRING NEGATIVELY
000113: 21,3657           41525                           CS       TJU
000114: 21,3660           10000                           CCS      A
000115: 21,3661           00002                           TC       Q                                     #  RETURN
000116: 21,3662           13664                           TCF      +2
000117: 21,3663           13664                           TCF      +1                                    #  JETS COMMANDED OFF.SET CTR AND RETURN
000118: 21,3664           51505        SETCTR             INDEX    AXISCTR                               #  JET FIRING REVERSAL COMMANDED.  SET CTR,
000119: 21,3665           33706                           CA       UTIME                                 #  SET JET TIME TO ZERO, AND RETURN


000121: 21,3666           51505                           INDEX    AXISCTR
000122: 21,3667           55770                           TS       UJETCTR
000123: 21,3670           34755        ZAPTJ              CA       ZERO
000124: 21,3671           51505                           INDEX    AXISCTR
000125: 21,3672           55525                           TS       TJU
000126: 21,3673           00002                           TC       Q
000127: 21,3674           51505        POSCHECK           INDEX    AXISCTR
000128: 21,3675           31525                           CA       TJU
000129: 21,3676           13660                           TCF      NEGCHECK   +2
000130: 21,3677           51505        CTRCHECK           INDEX    AXISCTR                               #  CHECK JET INHIBITION COUNTER
000131: 21,3700           11770                           CCS      UJETCTR
000132: 21,3701           13703                           TCF      +2
000133: 21,3702           00002                           TC       Q                                     #  CTR IS NOT POSITIVE. RETURN
000134: 21,3703           13670                           TCF      ZAPTJ                                 #  CTR IS POSITIVE.INHIBIT FIRINGS
000135: 21,3704           00002                           TC       Q                                     #  CTR IS NOT POSITIVE.RETURN
000136: 21,3705           00004                           OCT      00004
000137: 21,3706           00012        UTIME              OCT      00012
000138: 21,3707           00012                           OCT      00012
000139: 21,3710  E6,1745               OLDSENSE           EQUALS   DAPTREG1
000140: 21,3710           44753        NEGFIRE            CS       ONE                                   #  JETS FIRING NEGATIVELY
000141: 21,3711           55745                           TS       OLDSENSE
000142: 21,3712           31427                           CA       EDOT
000143: 21,3713           13717                           TCF      +4
000144: 21,3714           34753        PLUSFIRE           CA       ONE
000145: 21,3715           55745                           TS       OLDSENSE
000146: 21,3716           41427                           CS       EDOT                                  #  RATE DEAD BAND TEST
000147: 21,3717           22000                           LXCH     A
000148: 21,3720           40111                           CS       DAPBOOLS                              #  IF DRIFTBIT = 1, USE ZERO TARGET RATE
000149: 21,3721           74744                           MASK     DRIFTBIT                              #  IF DRIFTBIT = 0, USE 0.10 RATE TARGET
000150: 21,3722           10000                           CCS      A
000151: 21,3723           34767                           CA       RATEDB1
000152: 21,3724           60001                           AD       L
000153: 21,3725           00006                           EXTEND
000154: 21,3726           63736                           BZMF     SPSSTART
000155: 21,3727           13653                           TCF      POSTHRST   +3
000156:
000157: 21,3730           51505        SPSRCS             INDEX    AXISCTR                               #  JET SENSE TEST
000158: 21,3731           11525                           CCS      TJU
000159: 21,3732           13714                           TCF      PLUSFIRE                              #  JETS FIRING POSITIVELY
000160: 21,3733           13735                           TCF      +2
000161: 21,3734           13710                           TCF      NEGFIRE                               #  JETS FIRING NEGATIVELY
000162: 21,3735           55745                           TS       OLDSENSE                              #  JETS OFF
000163: 21,3736           31427        SPSSTART           CA       EDOT                                  #  OUTER RATE LIMIT TEST
000164: 21,3737           00006                           EXTEND
000165: 21,3740           74766                           MP       RATELIM1
000166: 21,3741           10000                           CCS      A
000167: 21,3742           13761                           TCF      NEGTHRST                              #  OUTER RATE LIMIT EXCEEDED
000168: 21,3743           13745                           TCF      +2
000169: 21,3744           13650                           TCF      POSTHRST                              #  OUTER RATE LIMIT EXCEEDED
000170: 21,3745           31427                           CA       EDOT                                  #  COAST ZONE TEST


000172: 21,3746           61752                           AD       E
000173: 21,3747           00006                           EXTEND
000174: 21,3750           71411                           MP       DKDB                                  #  PAD LOADED DEADBAND. FRESHSTART: 1.4 DEG
000175: 21,3751           00006                           EXTEND
000176: 21,3752           13767                           BZF      TJZERO
000177:
000178: 21,3753           00006                           EXTEND
000179: 21,3754           63763                           BZMF     +7
000180: 21,3755           31427                           CA       EDOT
000181: 21,3756           63647                           AD       RATELIM2
000182: 21,3757           00006                           EXTEND
000183: 21,3760           63767                           BZMF     TJZERO
000184: 21,3761           44736        NEGTHRST           CS       HALF
000185: 21,3762           13651                           TCF      POSTHRST   +1
000186: 21,3763           43647                 +7        CS       RATELIM2
000187: 21,3764           61427                           AD       EDOT
000188: 21,3765           00006                           EXTEND
000189: 21,3766           63650                           BZMF     POSTHRST
000190: 21,3767           34755        TJZERO             CA       ZERO
000191: 21,3770           13651                           TCF      POSTHRST   +1
000192:
000193: 21,3771     4766               RATELIM1           =        CALLCODE                              #  = 00032, CORRESPONDING TO 1.73 DEG/SEC
000194: 21,3771     4767               RATEDB1            =        TBUILDFX                              #   = 00045, CORRESPONDS TO 0.101 DEG/SEC
000195:

End of include-file SPS_BACK-UP_RCS_CONTROL.agc.  Parent file is MAIN.agc


