
Source Code


000002:                                                                                                  ## Copyright:   Public domain.
000003:                                                                                                  ## Filename:    T6-RUPT_PROGRAMS.agc
000004:                                                                                                  ## Purpose:     A section of Luminary revision 116.
000005:                                                                                                  ##              It is part of the source code for the Lunar Module's (LM)
000006:                                                                                                  ##              Apollo Guidance Computer (AGC) for Apollo 12.
000007:                                                                                                  ##              This file is intended to be a faithful transcription, except
000008:                                                                                                  ##              that the code format has been changed to conform to the
000009:                                                                                                  ##              requirements of the yaYUL assembler rather than the
000010:                                                                                                  ##              original YUL assembler.
000011:                                                                                                  ## Reference:   pp. 1393-1395
000012:                                                                                                  ## Assembler:   yaYUL
000013:                                                                                                  ## Contact:     Ron Burkey <info@sandroid.org>.
000014:                                                                                                  ## Website:     www.ibiblio.org/apollo/index.html
000015:                                                                                                  ## Mod history: 2017-01-22 MAS  Created from Luminary 99.
000016:                                                                                                  ##              2017-02-07 NV   Updated for Luminary 116.
000017:                                                                                                  ##              2017-03-14 RSB  Proofed comment text via 3-way diff vs
000018:                                                                                                  ##                              Luminary 99 and 131 ... no problems found.
000019:                                                                                                  ##              2017-08-29 MAS  Fixed a comment-text error found while transcribing
000020:                                                                                                  ##                              Zerlina 56.
000021:


000023:                                                                                                  #  PROGRAM NAMES:        (1) T6JOBCHK    MOD. NO. 5      OCTOBER 2, 1967
000024:                                                                                                  #                        (2) DOT6RUPT
000025:                                                                                                  #  MODIFICATION BY:      LOWELL G HULL (A.C.ELECTRONICS)
000026:
000027:                                                                                                  #  THESE PROGRAMS ENABLE THE LM DAP TO CONTROL THE THRUST TIMES OF THE REACTION CONTROL SYSTEM JETS BY USING TIME6.
000028:                                                                                                  #  SINCE THE LM DAP MAINTAINS EXCLUSIVE CONTROL OVER TIME6 AND ITS INTERRUPTS, THE FOLLOWING CONVENTIONS HAVE BEEN
000029:                                                                                                  #  ESTABLISHED AND MUST NOT BE TAMPERED WITH:
000030:                                                                                                  #        1.      NO NUMBER IS EVER PLACED INTO TIME6 EXCEPT BY LM DAP.
000031:                                                                                                  #        2.      NO PROGRAM OTHER THAN LM DAP ENABLES THE TIME6 COUNTER.
000032:                                                                                                  #        3.      TO USE TIME6, THE FOLLOWING SEQUENCE IS ALWAYS EMPLOYED:
000033:                                                                                                  #                A.      A POSITIVE (NON-ZERO) NUMBER IS STORED IN TIME6.
000034:                                                                                                  #                B.      THE TIME6 CLOCK IS ENABLED.
000035:                                                                                                  #                C.      TIME6 IS INTERROGATED AND IS:
000036:                                                                                                  #                        I.      NEVER FOUND NEGATIVE (NON-ZERO) OR +0.
000037:                                                                                                  #                        II.     SOMETIMES FOUND POSITIVE (BETWEEN 1 AND 240D) INDICATING THAT IT IS ACTIVE.
000038:                                                                                                  #                        III.    SOMETIMES FOUND POSMAX INDICATING THAT IT IS INACTIVE AND NOT ENABLED.
000039:                                                                                                  #                        IV.     SOMETIMES FOUND NEGATIVE ZERO INDICATING THAT:
000040:                                                                                                  #                                A.      A T6RUPT IS ABOUT TO OCCUR AT THE NEXT DINC, OR
000041:                                                                                                  #                                B.      A T6RUPT IS WAITING IN THE PRIORITY CHAIN, OR
000042:                                                                                                  #                                C.      A T6RUPT IS IN PROCESS NOW.
000043:                                                                                                  #        4)      ALL PROGRAMS WHICH OPERATE IN EITHER INTERRUPT MODE OR WITH INTERRUPT INHIBITED MUST CALL T6JOBCHK
000044:                                                                                                  #                EVERY 5 MILLISECONDS TO PROCESS A POSSIBLE WAITING T6RUPT BEFORE IT CAN BE HONORED BY THE HARDWARE.
000045:                                                                                                  #       (5.      PROGRAM JTLST, IN Q,R-AXES, HANDLES THE INPUT LIST.)
000046:
000047:                                                                                                  #  T6JOBCHK CALLING SEQUENCE:
000048:                                                                                                  #                L       TC      T6JOBCHK
000049:                                                                                                  #                L+1     (RETURN)
000050:
000051:                                                                                                  #  DOT6RUPT CALLING SEQUENCE:
000052:                                                                                                  #                        DXCH    ARUPT           T6RUPT LEAD IN AT LOCATION 4004.
000053:                                                                                                  #                        EXTEND
000054:                                                                                                  #                        DCA     T6ADR
000055:                                                                                                  #                        DTCB
000056:
000057:                                                                                                  #  SUBROUTINES CALLED:   DOT6RUPT CALLS T6JOBCHK.
000058:
000059:                                                                                                  #  NORMAL EXIT MODES:    T6JOBCHK RETURNS TO L +1.
000060:                                                                                                  #                        DOT6RUPT TRANSFERS CONTROL TO RESUME.
000061:
000062:                                                                                                  #  ALARM/ABORT MODES:    NONE.
000063:
000064:                                                                                                  #  INPUT:        TIME6           NXT6ADR         OUTPUT:         TIME6           NXT6ADR         CHANNEL 5
000065:                                                                                                  #                T6NEXT          T6NEXT +1                       T6NEXT          T6NEXT +1       CHANNEL 6
000066:                                                                                                  #                T6FURTHA        T6FURTHA +1                     T6FURTHA        T6FURTHA +1     BIT15/CH13
000067:
000068:                                                                                                  #  DEBRIS:       T6JOBCHK CLOBBERS A.  DOT6RUPT CLOBBERS NOTHING.
000069:
000070:    5743                                           BLOCK    02


000072: 17,2055                                           BANK     17
000073: 17,2000                                           SETLOC   DAPS2
000074: 17,2000                                           BANK
000075: 17,2055  E6,1466                                  EBANK=   T6NEXT
000076: 17,2055                                           COUNT*   $$/DAPT6
000077:
000078: 17,2055           10031        T6JOBCHK           CCS      TIME6                                 #  CHECK TIME6 FOR WAITING T6RUPT:
000079: 17,2056           00002                           TC       Q                                     #  NONE: CLOCK COUTING DOWN.
000080: 17,2057           05675                           TC       CCSHOLE
000081: 17,2060           05675                           TC       CCSHOLE
000082:
000083:                                                                                                  #  CONTROL PASSES TO T6JOB ONLY WHEN C(TIME6) = -0 (I.E. WHEN A T6RUPT MUST BE PROCESSED).
000084:
000085: 17,2061           34733        T6JOB              CA       POSMAX
000086: 17,2062           22007                           ZL
000087: 17,2063           53471                           DXCH     T6FURTHA
000088: 17,2064           53467                           DXCH     T6NEXT
000089: 17,2065           23465                           LXCH     NXT6ADR
000090: 17,2066           54031                           TS       TIME6
000091:
000092: 17,2067           67730                           AD       PRIO37
000093: 17,2070           54000                           TS       A
000094: 17,2071           12075                           TCF      ENABLET6
000095: 17,2072           34733                           CA       POSMAX
000096: 17,2073           54031                           TS       TIME6
000097: 17,2074           12115                           TCF      GOCH56
000098: 17,2075           00006        ENABLET6           EXTEND
000099: 17,2076           23265                           QXCH     C13QSAV
000100: 17,2077           22070                           LXCH     RUPTREG1
000101: 17,2100           06022                           TC       C13STALL
000102: 17,2101           00006                           EXTEND
000103: 17,2102           23265                           QXCH     C13QSAV
000104: 17,2103           22070                           LXCH     RUPTREG1
000105: 17,2104           34735                           CAF      BIT15
000106: 17,2105           00006                           EXTEND
000107: 17,2106           05013                           WOR      CHAN13
000108: 17,2107           31466                           CA       T6NEXT
000109: 17,2110           67730                           AD       PRIO37
000110: 17,2111           54000                           TS       A
000111: 17,2112           12115                           TCF      GOCH56
000112: 17,2113           34733                           CA       POSMAX
000113: 17,2114           55466                           TS       T6NEXT
000114: 17,2115           50001        GOCH56             INDEX    L
000115: 17,2116           15743                           TCF      WRITEP     -1
000116:
000117:    5743                                           BLOCK    02
000118:    4000                                           SETLOC   FFTAG9
000119:    4000                                           BANK
000120:    5743  E6,1635                                  EBANK=   CDUXD
000121:    5743                                           COUNT*   $$/DAPT6
000122:


000124:    5743           31472                           CA       NEXTP
000125:    5744           00006        WRITEP             EXTEND
000126:    5745           01006                           WRITE    CHAN6
000127:    5746           00002                           TC       Q
000128:
000129:    5747           31473                           CA       NEXTU
000130:    5750           54001        WRITEU             TS       L
000131:    5751           45764                           CS       00314OCT
000132:    5752           00006                           EXTEND
000133:    5753           02005                           RAND     CHAN5
000134:    5754           60001                           AD       L
000135:    5755           00006                           EXTEND
000136:    5756           01005                           WRITE    CHAN5
000137:    5757           00002                           TC       Q
000138:
000139:    5760           31474                           CA       NEXTV
000140:    5761           54001        WRITEV             TS       L
000141:    5762           35764                           CA       00314OCT
000142:    5763           15752                           TCF      -9D
000143:    5764           00314        00314OCT           OCT      00314
000144:
000145: 17,2117                                           BANK     17
000146: 17,2000                                           SETLOC   DAPS2
000147: 17,2000                                           BANK
000148:
000149: 17,2117  E6,1466                                  EBANK=   T6NEXT
000150: 17,2117                                           COUNT*   $$/DAPT6
000151:
000152: 17,2117           22016        DOT6RUPT           LXCH     BANKRUPT                              #  (INTERRUPT LEAD INS CONTINUED)
000153: 17,2120           00006                           EXTEND
000154: 17,2121           22012                           QXCH     QRUPT
000155:
000156: 17,2122           02055                           TC       T6JOBCHK                              #  CALL T6JOBCHK.
000157:
000158: 17,2123           15270                           TCF      RESUME                                #  END TIME6 INTERRUPT PROCESSOR.
000159:

End of include-file T6-RUPT_PROGRAMS.agc.  Parent file is MAIN.agc


