
Source Code


000002:                                                                                                  ## Copyright:   Public domain.
000003:                                                                                                  ## Filename:    TAGS_FOR_RELATIVE_SETLOC_AND_BLANK_BANK_CARDS.agc
000004:                                                                                                  ## Purpose:     A section of Luminary revision 116.
000005:                                                                                                  ##              It is part of the source code for the Lunar Module's (LM)
000006:                                                                                                  ##              Apollo Guidance Computer (AGC) for Apollo 12.
000007:                                                                                                  ##              This file is intended to be a faithful transcription, except
000008:                                                                                                  ##              that the code format has been changed to conform to the
000009:                                                                                                  ##              requirements of the yaYUL assembler rather than the
000010:                                                                                                  ##              original YUL assembler.
000011:                                                                                                  ## Reference:   pp. 28-37
000012:                                                                                                  ## Assembler:   yaYUL
000013:                                                                                                  ## Contact:     Ron Burkey <info@sandroid.org>.
000014:                                                                                                  ## Website:     www.ibiblio.org/apollo/index.html
000015:                                                                                                  ## Mod history: 2017-01-22 MAS  Created from Luminary 99.
000016:                                                                                                  ##              2017-02-25 HG   Transcribed
000017:                                                                                                  ##              2017-03-01 RSB  Proofed comment text by diff vs Luminary 131
000018:                                                                                                  ##                              but no errors found.
000019:


000021: ???????                                           COUNT    BANKSUM
000022:
000023:                                                                                                  #                   MODULE 1 CONTAINS BANKS 0 THROUGH 5
000024:
000025:    4000                                           BLOCK    02
000026:    4000                        RADARFF            EQUALS
000027:    4000                        FFTAG1             EQUALS
000028:    4000                        FFTAG2             EQUALS
000029:    4000                        FFTAG3             EQUALS
000030:    4000                        FFTAG4             EQUALS
000031:    4000                        FFTAG7             EQUALS
000032:    4000                        FFTAG8             EQUALS
000033:    4000                        FFTAG9             EQUALS
000034:    4000                        FFTAG10            EQUALS
000035:    4000                        FFTAG11            EQUALS
000036:    4000                        FFTAG12            EQUALS
000037:    4000                        FFTAG13            EQUALS
000038:    4000                                           BNKSUM   02
000039:
000040:
000041:    6000                                           BLOCK    03
000042:    6000                        FFTAG5             EQUALS
000043:    6000                        FFTAG6             EQUALS
000044:    6000                                           BNKSUM   03
000045:
000046:
000047: 00,2000                                           BANK     00
000048: 00,2000                        DLAYJOB            EQUALS
000049: 00,2000                                           BNKSUM   00
000050:
000051:
000052: 01,2000                                           BANK     01
000053: 01,2000                        RESTART            EQUALS
000054: 01,2000                        LOADDAP1           EQUALS
000055: 01,2000                                           BNKSUM   01
000056:
000057:
000058: 04,2000                                           BANK     04
000059: 04,2000                        R02                EQUALS
000060: 04,2000                        VERB37             EQUALS
000061: 04,2000                        PINBALL4           EQUALS
000062: 04,2000                        CONICS1            EQUALS
000063: 04,2000                        KEYRUPT            EQUALS
000064: 04,2000                        R36LM              EQUALS
000065: 04,2000                        UPDATE2            EQUALS
000066: 04,2000                        E/PROG             EQUALS
000067: 04,2000                        AOTMARK2           EQUALS
000068: 04,2000                                           BNKSUM   04
000069:
000070:


000072: 05,2000                                           BANK     05
000073: 05,2000                        FRANDRES           EQUALS
000074: 05,2000                        DOWNTELM           EQUALS
000075: 05,2000                        ABORTS1            EQUALS
000076: 05,2000                        EPHEM1             EQUALS
000077: 05,2000                        ASENT3             EQUALS
000078: 05,2000                        ORBITAL3           EQUALS
000079: 05,2000                                           BNKSUM   05
000080:
000081:
000082:                                                                                                  #           MODULE 2 CONTAINS BANKS 6 THROUGH 13
000083:
000084: 06,2000                                           BANK     06
000085: 06,2000                        IMUCOMP            EQUALS
000086: 06,2000                        T4RUP              EQUALS
000087: 06,2000                        RCSMONT            EQUALS
000088: 06,2000                        MIDDGIM            EQUALS
000089: 06,2000                        EARTHLOC           EQUALS
000090: 06,2000                                           BNKSUM   06
000091:
000092:
000093: 07,2000                                           BANK     07
000094: 07,2000                        AOTMARK1           EQUALS
000095: 07,2000                        MODESW             EQUALS
000096: 07,2000                        ASENT2             EQUALS
000097: 07,2000                                           BNKSUM   07
000098:
000099:
000100: 10,2000                                           BANK     10
000101: 10,2000                        RTBCODES           EQUALS
000102: 10,2000                        DISPLAYS           EQUALS
000103: 10,2000                        PHASETAB           EQUALS
000104: 10,2000                        FLESHLOC           EQUALS
000105: 10,2000                        SLCTMU             EQUALS
000106: 10,2000                                           BNKSUM   10
000107:
000108:
000109: 11,2000                                           BANK     11
000110: 11,2000                        ORBITAL            EQUALS
000111: 11,2000                        F2DPS*11           EQUALS
000112: 11,2000                        INTVEL             EQUALS
000113: 11,2000                                           BNKSUM   11
000114:
000115:
000116: 12,2000                                           BANK     12
000117: 12,2000                        CONICS             EQUALS
000118:


000120: 12,2000                        ORBITAL1           EQUALS
000121: 12,2000                        INTPRET2           EQUALS
000122: 12,2000                                           BNKSUM   12
000123:
000124:
000125: 13,2000                                           BANK     13
000126: 13,2000                        LATLONG            EQUALS
000127: 13,2000                        INTINIT            EQUALS
000128: 13,2000                        LEMGEOM            EQUALS
000129: 13,2000                        P76LOC             EQUALS
000130: 13,2000                        ORBITAL2           EQUALS
000131: 13,2000                        ABTFLGS            EQUALS
000132: 13,2000                                           BNKSUM   13
000133:
000134:


000136:                                                                                                  #           MODULE 3 CONTAINS BANKS 14 THROUGH 21
000137:
000138: 14,2000                                           BANK     14
000139: 14,2000                        P50S1              EQUALS
000140: 14,2000                        STARTAB            EQUALS
000141: 14,2000                        ASENT4             EQUALS
000142: 14,2000                                           BNKSUM   14
000143:
000144:
000145: 15,2000                                           BANK     15
000146: 15,2000                        P50S               EQUALS
000147: 15,2000                        EPHEM              EQUALS
000148: 15,2000                                           BNKSUM   15
000149:
000150:
000151: 16,2000                                           BANK     16
000152: 16,2000                        DAPS1              EQUALS
000153: 16,2000                                           BNKSUM   16
000154:
000155:
000156: 17,2000                                           BANK     17
000157: 17,2000                        DAPS2              EQUALS
000158: 17,2000                        C13BANK            EQUALS
000159: 17,2000                                           BNKSUM   17
000160:
000161:
000162: 20,2000                                           BANK     20
000163: 20,2000                        DAPS3              EQUALS
000164: 20,2000                        LOADDAP            EQUALS
000165: 20,2000                                           BNKSUM   20
000166:
000167:
000168: 21,2000                                           BANK     21
000169: 21,2000                        DAPS4              EQUALS
000170: 21,2000                        R10                EQUALS
000171: 21,2000                        R11                EQUALS
000172: 21,2000                                           BNKSUM   21


000174:
000175:                                                                                                  #           MODULE 4 CONTAINS BANKS 22 THROUGH 27
000176:
000177: 22,2000                                           BANK     22
000178: 22,2000                        KALCMON1           EQUALS
000179: 22,2000                        KALCMON2           EQUALS
000180: 22,2000                        R30LOC             EQUALS
000181: 22,2000                        RENDEZ             EQUALS
000182: 22,2000                        SERV2              EQUALS
000183: 22,2000                        LANDCNST           EQUALS
000184: 22,2000                                           BNKSUM   22
000185:
000186:
000187: 23,2000                                           BANK     23
000188: 23,2000                        POWFLITE           EQUALS
000189: 23,2000                        POWFLIT1           EQUALS
000190: 23,2000                        INFLIGHT           EQUALS
000191: 23,2000                        APOPERI            EQUALS
000192: 23,2000                        R61                EQUALS
000193: 23,2000                        R62                EQUALS
000194: 23,2000                        INTPRET1           EQUALS
000195: 23,2000                        MEASINC            EQUALS
000196: 23,2000                        MEASINC1           EQUALS
000197: 23,2000                        EXTVB1             EQUALS
000198: 23,2000                        P12A               EQUALS
000199: 23,2000                        NORMLIZ            EQUALS
000200: 23,2000                        ASENT7             EQUALS
000201: 23,2000                        RODTRAP            EQUALS
000202: 23,2000                                           BNKSUM   23
000203:
000204:
000205: 24,2000                                           BANK     24
000206: 24,2000                        PLANTIN            EQUALS
000207: 24,2000                        P20S               EQUALS
000208: 24,2000                                           BNKSUM   24
000209:
000210:
000211: 25,2000                                           BANK     25
000212: 25,2000                        P20S1              EQUALS
000213: 25,2000                        P20S2              EQUALS
000214: 25,2000                        RADARUPT           EQUALS
000215: 25,2000                        RRLEADIN           EQUALS
000216: 25,2000                        R29S1              EQUALS
000217: 25,2000                        PLANTIN3           EQUALS
000218: 25,2000                                           BNKSUM   25
000219:
000220:
000221: 26,2000                                           BANK     26
000222:


000224: 26,2000                        P20S3              EQUALS
000225: 26,2000                        BAWLANGS           EQUALS
000226: 26,2000                        MANUVER            EQUALS
000227: 26,2000                        MANUVER1           EQUALS
000228: 26,2000                        PLANTIN1           EQUALS
000229: 26,2000                        PLANTIN2           EQUALS
000230: 26,2000                                           BNKSUM   26
000231:
000232:
000233: 27,2000                                           BANK     27
000234: 27,2000                        TOF-FF             EQUALS
000235: 27,2000                        TOF-FF1            EQUALS
000236: 27,2000                        P40S1              EQUALS
000237: 27,2000                        VECPT              EQUALS
000238: 27,2000                        ASENT1             EQUALS
000239: 27,2000                        SERV3              EQUALS
000240: 27,2000                                           BNKSUM   27
000241:
000242:


000244:                                                                                                  #           MODULE 5 CONTAINS BANKS 30 THROUGH 35
000245:
000246: 30,2000                                           BANK     30
000247: 30,2000                        LOWSUPER           EQUALS
000248: 30,2000                        P12                EQUALS
000249: 30,2000                        ASENT              EQUALS
000250: 30,2000                        FCDUW              EQUALS
000251: 30,2000                        FLOGSUB            EQUALS
000252: 30,2000                        VB67A              EQUALS
000253: 30,2000                        ASENT5             EQUALS
000254: 30,2000                                           BNKSUM   30
000255:
000256:
000257: 31,2000                                           BANK     31
000258: 31,2000                        FTHROT             EQUALS
000259: 31,2000                        F2DPS*31           EQUALS
000260: 31,2000                        VB67               EQUALS
000261: 31,2000                                           BNKSUM   31
000262:
000263:
000264: 32,2000                                           BANK     32
000265: 32,2000                        P20S4              EQUALS
000266: 32,2000                        F2DPS*32           EQUALS
000267: 32,2000                        ABORTS             EQUALS
000268: 32,2000                        LRS22              EQUALS
000269: 32,2000                        P66LOC             EQUALS
000270: 32,2000                        R47                EQUALS
000271: 32,2000                        SERV               EQUALS
000272: 32,2000                                           BNKSUM   32
000273:
000274:
000275: 33,2000                                           BANK     33
000276: 33,2000                        SERVICES           EQUALS
000277: 33,2000                        R29/SERV           EQUALS
000278: 33,2000                        ASENT6             EQUALS
000279: 33,2000                                           BNKSUM   33
000280:
000281:
000282: 34,2000                                           BANK     34
000283: 34,2000                        ASENT8             EQUALS
000284: 34,2000                        P30S1              EQUALS
000285: 34,2000                        CSI/CDH1           EQUALS
000286: 34,2000                        ASCFILT            EQUALS
000287: 34,2000                        R12STUFF           EQUALS
000288: 34,2000                        SERV4              EQUALS
000289: 34,2000                        F2DPS*34           EQUALS
000290:


000292: 34,2000                                           BNKSUM   34
000293:
000294:
000295: 35,2000                                           BANK     35
000296: 35,2000                        CSI/CDH            EQUALS
000297: 35,2000                        P30S               EQUALS
000298: 35,2000                        P40S3              EQUALS
000299: 35,2000                        P40S2              EQUALS
000300: 35,2000                                           BNKSUM   35
000301:


000303:                                                                                                  #           MODULE 6 CONTAINS BANKS 36 THROUGH 43
000304:
000305: 36,2000                                           BANK     36
000306: 36,2000                        P40S               EQUALS
000307: 36,2000                                           BNKSUM   36
000308:
000309:
000310: 37,2000                                           BANK     37
000311: 37,2000                        P05P06             EQUALS
000312: 37,2000                        IMU2               EQUALS
000313: 37,2000                        IMU4               EQUALS
000314: 37,2000                        R31                EQUALS
000315: 37,2000                        IMUSUPER           EQUALS
000316: 37,2000                        SERV1              EQUALS
000317: 37,2000                                           BNKSUM   37
000318:
000319:
000320: 40,2000                                           BANK     40
000321: 40,2000                        PINBALL1           EQUALS
000322: 40,2000                        SELFSUPR           EQUALS
000323: 40,2000                        PINSUPER           EQUALS
000324: 40,2000                        R31LOC             EQUALS
000325: 40,2000                                           BNKSUM   40
000326:
000327:
000328: 41,2000                                           BANK     41
000329: 41,2000                        PINBALL2           EQUALS
000330: 41,2000                                           BNKSUM   41
000331:
000332:
000333: 42,2000                                           BANK     42
000334: 42,2000                        SBAND              EQUALS
000335: 42,2000                        PINBALL3           EQUALS
000336: 42,2000                                           BNKSUM   42
000337:
000338:
000339: 43,2000                                           BANK     43
000340: 43,2000                        EXTVERBS           EQUALS
000341: 43,2000                        SELFCHEC           EQUALS
000342:
000343: 43,2000                                           BNKSUM   43
000344:


000346: 43,2000  23,2523               HI6ZEROS           EQUALS   ZEROVECS                              #  ZERO VECTOR ALWAYS IN HIGH MEMORY
000347: 43,2000  12,2006               LO6ZEROS           EQUALS   ZEROVEC                               #  ZERO VECTOR ALWAYS IN LOW MEMORY
000348: 43,2000  23,2521               HIDPHALF           EQUALS   UNITX
000349: 43,2000  12,2004               LODPHALF           EQUALS   XUNIT
000350: 43,2000  23,2513               HIDP1/4            EQUALS   DP1/4TH
000351: 43,2000  04,3020               LODP1/4            EQUALS   D1/4                                  #  2DEC .25
000352: 43,2000  23,2521               HIUNITX            EQUALS   UNITX
000353: 43,2000  23,2517               HIUNITY            EQUALS   UNITY
000354: 43,2000  23,2515               HIUNITZ            EQUALS   UNITZ
000355: 43,2000  12,2004               LOUNITX            EQUALS   XUNIT                                 #  2DEC  .5
000356: 43,2000  12,2002               LOUNITY            EQUALS   YUNIT                                 #  2DEC  0
000357: 43,2000  12,2000               LOUNITZ            EQUALS   ZUNIT                                 #  2DEC  0
000358:
000359:
000360:
000361: 43,2000  22,3541               DELRSPL            EQUALS   SPLRET                                #  COL PGM, ALSO CALLED BY R30 IN LUMINARY
000362:                                                                                                  #  ROPE-SPECIFIC ASSIGNS OBVIATING NEED TO CHECK COMPUTER FLAG IN DETERMINING INTEGRATION AREA ENTRIES.
000363:
000364: 43,2000  13,2735               ATOPTHIS           EQUALS   ATOPLEM
000365: 43,2000  13,2662               ATOPOTH            EQUALS   ATOPCSM
000366: 43,2000  13,3044               OTHPREC            EQUALS   CSMPREC
000367: 43,2000  0000174               MOONTHIS           EQUALS   LMOONFLG
000368: 43,2000  0000173               MOONOTH            EQUALS   CMOONFLG
000369: 43,2000  13,2750               MOVATHIS           EQUALS   MOVEALEM
000370: 43,2000  12,2017               RMM                =        LODPMAX
000371: 43,2000  12,2021               RME                =        LODPMAX1
000372: 43,2000  13,3060               THISPREC           EQUALS   LEMPREC
000373: 43,2000  23,2515               THISAXIS           =        UNITZ
000374: 43,2000  23,2515               NB1NB2             EQUALS   THISAXIS                              #  FOR R31
000375: 43,2000     5011               ERASID             EQUALS   BITS2-10                              #  DOWNLINK ERASABLE DUMP ID
000376: 43,2000     4752               DELAYNUM           EQUALS   TWO

End of include-file TAGS_FOR_RELATIVE_SETLOC_AND_BLANK_BANK_CARDS.agc.  Parent file is MAIN.agc


