
Source Code


000002:                                                                                                  ## Copyright:   Public domain.
000003:                                                                                                  ## Filename:    THE_LUNAR_LANDING.agc
000004:                                                                                                  ## Purpose:     A section of Luminary revision 116.
000005:                                                                                                  ##              It is part of the source code for the Lunar Module's (LM)
000006:                                                                                                  ##              Apollo Guidance Computer (AGC) for Apollo 12.
000007:                                                                                                  ##              This file is intended to be a faithful transcription, except
000008:                                                                                                  ##              that the code format has been changed to conform to the
000009:                                                                                                  ##              requirements of the yaYUL assembler rather than the
000010:                                                                                                  ##              original YUL assembler.
000011:                                                                                                  ## Reference:   pp. 778-785
000012:                                                                                                  ## Assembler:   yaYUL
000013:                                                                                                  ## Contact:     Ron Burkey <info@sandroid.org>.
000014:                                                                                                  ## Website:     www.ibiblio.org/apollo/index.html
000015:                                                                                                  ## Mod history: 2017-01-22 MAS  Created from Luminary 99.
000016:                                                                                                  ##              2017-03-10 HG   Transcribed
000017:                                                                                                  ##              2017-03-14 RSB  Proofed comment text via 3-way diff vs
000018:                                                                                                  ##                              Luminary 99 and 131.
000019:                                                                                                  ##              2017-03-16 RSB  Comment-text fixes identified in 5-way
000020:                                                                                                  ##                              side-by-side diff of Luminary 69/99/116/131/210.
000021:                                                                                                  ##              2017-03-19 HG   Fix SELOC operand  F2DPS*31 --> F2DPS*34
000022:


000024: 32,2777                                           BANK     32
000025: 32,2000                                           SETLOC   F2DPS*32
000026: 32,2000                                           BANK
000027:
000028: 32,2777  E7,1621                                  EBANK=   E2DPS
000029:
000030:                                                                                                  #           ****************************************
000031:                                                                                                  #           P63: THE LUNAR LANDING, BRAKING PHASE
000032:                                                                                                  #           ****************************************
000033:
000034: 32,2777                                           COUNT*   $$/P63
000035:
000036: 32,2777           05353        P63LM              TC       PHASCHNG
000037: 32,3000           04024                           OCT      04024


000040:
000041: 32,3001           04616                           TC       BANKCALL                              #  DO IMU STATUS CHECK ROUTINE R02
000042: 32,3002           11236                           CADR     R02BOTH
000043:
000044: 32,3003           33254                           CAF      P63ADRES                              #  INITIALIZE WHICH FOR BURNBABY
000045: 32,3004           55455                           TS       WHICH
000046:
000047: 32,3005           32000                           CAF      DPSTHRSH                              #  INITIALIZE DVMON
000048: 32,3006           55250                           TS       DVTHRUSH
000049: 32,3007           34751                           CAF      FOUR
000050: 32,3010           55515                           TS       DVCNTR
000051:
000052: 32,3011           44753                           CS       ONE                                   #  INITIALIZE WCHPHASE AND FLPASSO
000053: 32,3012           55346                           TS       WCHPHASE
000054:
000055: 32,3013           34755                           CA       ZERO
000056: 32,3014           55623                           TS       FLPASS0
000057:
000058: 32,3015           44736                           CS       BIT14
000059: 32,3016           00006                           EXTEND
000060: 32,3017           03012                           WAND     CHAN12                                #  REMOVE TRACK-ENABLE DISCRETE.
000061:
000062: 32,3020           06042        FLAGORGY           TC       INTPRET                               #  DIONYSIAN FLAG WAVING
000063: 32,3021           43014                           CLEAR    CLEAR
000064: 32,3022           02663                                    NOTHROTL
000065: 32,3023           03271                                    REDFLAG
000066: 32,3024           43014                           CLEAR    SET
000067: 32,3025           05660                                    LRBYPASS
000068: 32,3026           03067                                    MUNFLAG
000069: 32,3027           43014                           CLEAR    CLEAR
000070: 32,3030           00266                                    P25FLAG                               #  TERMINATE P25 IF IT IS RUNNING.
000071: 32,3031           00270                                    RNDVZFLG                              #  TERMINATE P20 IF IT IS RUNNING
000072:
000073:                                                                                                  #  ****************************************
000074:
000075: 32,3032           77201        IGNALG             SETPD    VLOAD                                 #  FIRST SET UP INPUTS FOR RP-TO-R:-
000076:


000078: 32,3033           00001                                    0                                     #    AT 0D LANDING SITE IN MOON FIXED FRAME
000079: 32,3034           02023                                    RLS                                   #    AT 6D ESTIMATED TIME OF LANDING
000080: 32,3035           41525                           PDDL     PUSH                                  #    MPAC NON-ZERO TO INDICATE LUNAR CASE
000081: 32,3036           02401                                    TLAND
000082: 32,3037           37625                           STCALL   TPIP                                  #  ALSO SET TPIP FOR FIRST GUIDANCE PASS
000083: 32,3040           55716                                    RP-TO-R
000084: 32,3041           64312                           VSL4     MXV
000085: 32,3042           01734                                    REFSMMAT
000086: 32,3043           37635                           STCALL   LAND
000087: 32,3044           71343                                    GUIDINIT                              #  GUIDINIT INITIALIZES WM AND /LAND/
000088: 32,3045           45345                           DLOAD    DSU
000089: 32,3046           02401                                    TLAND
000090: 32,3047           25261                                    GUIDDURN
000091: 32,3050           34041                           STCALL   TDEC1                                 #  INTEGRATE STATE FORWARD TO THAT TIME
000092: 32,3051           27060                                    LEMPREC
000093: 32,3052           77331                           SSP      VLOAD
000094: 32,3053           03647                                    NIGNLOOP
000095: 32,3054           00050                                    40D
000096: 32,3055           06522                                    UNITX
000097: 32,3056           26575                           STOVL    CG
000098: 32,3057           06520                                    UNITY
000099: 32,3060           26603                           STOVL    CG         +6
000100: 32,3061           06516                                    UNITZ
000101: 32,3062           16611                           STODL    CG         +14
000102: 32,3063           25257                                    99999CON
000103: 32,3064           27665                           STOVL    DELTAH                                #  INITIALIZE DELTAH FOR V16N68 DISPLAY
000104: 32,3065           06524                                    ZEROVECS
000105: 32,3066           17254                           STODL    UNFC/2                                #  INITIALIZE TRIM VELOCITY CORRECTION TERM
000106: 32,3067           06524                                    HI6ZEROS
000107: 32,3070           03643                           STORE    TTF/8
000108:
000109: 32,3071           77745        IGNALOOP           DLOAD
000110: 32,3072           00015                                    TAT
000111: 32,3073           27561                           STOVL    PIPTIME1
000112: 32,3074           00017                                    RATT1
000113: 32,3075           64312                           VSL4     MXV
000114: 32,3076           01734                                    REFSMMAT
000115: 32,3077           37521                           STCALL   R
000116: 32,3100           67067                                    MUNGRAV
000117: 32,3101           35236                           STCALL   GDT/2
000118: 32,3102           62402                                    ?GUIDSUB                              #  WHICH DELIVERS N PASSES OF GUIDANCE
000119:
000120:                                                                                                  #  DDUMCALC IS PROGRAMMED AS FOLLOWS:-
000121:
000122:                                                                                                  #                                        2                                           -
000123:                                                                                                  #             (RIGNZ - RGU )/16 + 16(RGU  )KIGNY/B8 + (RGU - RIGNX)KIGNX/B4 + (ABVAL(VGU) - VIGN)KIGNV/B4
000124:                                                                                                  #                         2             1                 0
000125:                                                                                                  #      DDUM = -------------------------------------------------------------------------------------------
000126:                                                                                                  #                                             10
000127:                                                                                                  #                                            2   (VGU - 16 VGU KIGNX/B4)
000128:


000130:                                                                                                  #                                                    2        0
000131:
000132:                                                                                                  #  THE NUMERATOR IS SCALED IN METERS AT 2(28).   THE DENOMINATOR IS A VELOCITY IN UNITS OF 2(10)M/CS.
000133:                                                                                                  #  THE QUOTIENT IS THUS A TIME IN UNITS OF 2(18) CENTISECONDS.   THE FINAL SHIFT RESCALES TO UNITS OF 2(28) CS.
000134:                                                                                                  #  THERE IS NO DAMPING FACTOR.   THE CONSTANTS KIGNX/B4, KIGNY/B8 AND KIGNV/B4 ARE ALL NEGATIVE IN SIGN.
000135:
000136: 32,3103           55646        DDUMCALC           TS       NIGNLOOP
000137: 32,3104           06042                           TC       INTPRET
000138: 32,3105           57345                           DLOAD    DMPR                                  #  FORM DENOMINATOR FIRST


000141: 32,3106           03627                                    VGU
000142: 32,3107           02501                                    KIGNX/B4
000143: 32,3110           44232                           SL4R     BDSU
000144: 32,3111           03633                                    VGU        +4
000145: 32,3112           45325                           PDDL     DSU
000146: 32,3113           02477                                    RIGNZ
000147: 32,3114           02633                                    RGU        +4
000148: 32,3115           65222                           SR4R     PDDL
000149: 32,3116           02631                                    RGU        +2
000150: 32,3117           57316                           DSQ      DMPR
000151: 32,3120           02503                                    KIGNY/B8
000152: 32,3121           65232                           SL4R     PDDL
000153: 32,3122           02627                                    RGU
000154: 32,3123           57225                           DSU      DMPR
000155: 32,3124           02475                                    RIGNX
000156: 32,3125           02501                                    KIGNX/B4
000157: 32,3126           51515                           PDVL     ABVAL
000158: 32,3127           03627                                    VGU
000159: 32,3130           57225                           DSU      DMPR
000160: 32,3131           02473                                    VIGN
000161: 32,3132           02505                                    KIGNV/B4
000162: 32,3133           43215                           DAD      DAD
000163: 32,3134           56215                           DAD      DDV
000164: 32,3135           77661                           SRR
000165: 32,3136           21613                                    10D
000166:
000167: 32,3137           43206                           PUSH     DAD
000168: 32,3140           03561                                    PIPTIME1
000169: 32,3141           14041                           STODL    TDEC1                                 #  STORE NEW GUESS FOR NEXT INTEGRATION
000170: 32,3142           45246                           ABS      DSU
000171: 32,3143           25263                                    DDUMCRIT
000172: 32,3144           45040                           BMN      CALL
000173: 32,3145           65164                                    DDUMGOOD
000174: 32,3146           27412                                    INTSTALL
000175: 32,3147           43014                           SET      SET
000176: 32,3150           01473                                    INTYPFLG
000177: 32,3151           00063                                    MOONFLAG
000178: 32,3152           77745                           DLOAD
000179: 32,3153           03561                                    PIPTIME1
000180: 32,3154           25517                           STOVL    TET                                   #  HOPEFULLY ?GUIDSUB DID NOT
000181: 32,3155           00017                                    RATT1                                 #    CLOBBER RATT1 AND VATT1
000182:


000184: 32,3156           25535                           STOVL    RCV
000185: 32,3157           00025                                    VATT1
000186: 32,3160           35543                           STCALL   VCV
000187: 32,3161           27110                                    INTEGRVS
000188: 32,3162           77650                           GOTO
000189: 32,3163           65071                                    IGNALOOP
000190:
000191: 32,3164           54335        DDUMGOOD           SLOAD    SR
000192: 32,3165           03423                                    ZOOMTIME
000193: 32,3166           20617                                    14D
000194: 32,3167           77621                           BDSU
000195: 32,3170           00041                                    TDEC1
000196: 32,3171           27442                           STOVL    TIG                                   #  COMPUTE DISTANCE LANDING SITE WILL BE
000197: 32,3172           03527                                    V                                     #    OUT OF LM'S ORBITAL PLANE AT IGNITION:
000198: 32,3173           53435                           VXV      UNIT                                  #    SIGN IS + IF LANDING SITE IS TO THE
000199: 32,3174           03521                                    R                                     #    RIGHT, NORTH; - IF TO THE LEFT, SOUTH.
000200: 32,3175           72441                           DOT      SL1
000201: 32,3176           03635                                    LAND
000202: 32,3177           26617        R60INIT            STOVL    OUTOFPLN                              #  INITIALIZATION FOR CALCMANU
000203: 32,3200           03254                                    UNFC/2
000204: 32,3201           02621                           STORE    R60VSAVE                              #  STORE UNFC/2 TEMPORARILY IN R60SAVE
000205: 32,3202           77776                           EXIT
000206:                                                                                                  #  ****************************************
000207:
000208: 32,3203           05353        IGNALGRT           TC       PHASCHNG                              #  PREVENT REPEATING IGNALG
000209: 32,3204           04024                           OCT      04024
000210:
000211: 32,3205           44362        ASTNCLOK           CS       ASTNDEX
000212: 32,3206           04616                           TC       BANKCALL
000213: 32,3207           74670                           CADR     STCLOK2
000214: 32,3210           15155                           TCF      ENDOFJOB                              #  RETURN IN NEW JOB AND IN EBANK FIVE
000215:
000216: 32,3211           06042        ASTNRET            TC       INTPRET
000217: 32,3212           47131                           SSP      RTB                                   #  GO PICK UP DISPLAY AT END OF R51:
000218: 32,3213           02747                                    QMAJ                                  #    "PROCEED" WILL DO A FINE ALIGNMENT
000219: 32,3214           65216                           FCADR    P63SPOT2                              #    "ENTER" WILL RETURN TO P63SPOT2
000220: 32,3215           31127                                    R51P63
000221: 32,3216           53575        P63SPOT2           VLOAD    UNIT                                  #  INITIALIZE KALCMANU FOR BURN ATTITUDE
000222: 32,3217           02621                                    R60VSAVE
000223: 32,3220           27773                           STOVL    POINTVSM
000224: 32,3221           06522                                    UNITX
000225: 32,3222           03765                           STORE    SCAXIS
000226: 32,3223           77776                           EXIT
000227:
000228: 32,3224           35016                           CAF      EBANK7
000229: 32,3225           54003                           TS       EBANK
000230:
000231: 32,3226           00004                           INHINT
000232: 32,3227           04674                           TC       IBNKCALL
000233: 32,3230           40143                           CADR     PFLITEDB
000234:


000236: 32,3231           00003                           RELINT
000237:
000238: 32,3232           04616                           TC       BANKCALL
000239: 32,3233           54123                           CADR     R60LEM
000240:
000241: 32,3234           05353                           TC       PHASCHNG                              #  PREVENT RECALLING R60
000242: 32,3235           04024                           OCT      04024
000243:
000244: 32,3236           34746        P63SPOT3           CA       BIT6                                  #  IS THE LR ANTENNA IN POSITION 1 YET
000245: 32,3237           00006                           EXTEND
000246: 32,3240           02033                           RAND     CHAN33
000247: 32,3241           00006                           EXTEND
000248: 32,3242           13250                           BZF      P63SPOT4                              #  BRANCH IF ANTENNA ALREADY IN POSITION 1
000249:
000250: 32,3243           33255                           CAF      CODE500                               #  ASTRONAUT: PLEASE CRANK THE
000251: 32,3244           04616                           TC       BANKCALL                              #             SILLY THING AROUND
000252: 32,3245           20624                           CADR     GOPERF1
000253: 32,3246           16001                           TCF      GOTOPOOH                              #  TERMINATE
000254: 32,3247           13236                           TCF      P63SPOT3                              #  PROCEED    SEE IF HE'S LYING
000255:
000256: 32,3250           04616        P63SPOT4           TC       BANKCALL                              #  ENTER      INITIALIZE LANDING RADAR
000257: 32,3251           67703                           CADR     SETPOS1
000258:
000259: 32,3252           04635                           TC       POSTJUMP                              #  OFF TO SEE THE WIZARD...
000260: 32,3253           74130                           CADR     BURNBABY
000261:
000262:
000263:                                                                                                  #                ---------------------------------------
000264:
000265:                                                                                                  #                       CONSTANTS FOR P63LM AND IGNALG
000266:
000267:
000268: 32,3254           02100        P63ADRES           GENADR   P63TABLE
000269:
000270:
000271: 32,3255     4362               ASTNDEX            =        MD1                                   #  OCT 25;  INDEX FOR CLOKTASK
000272:
000273: 32,3255           00500        CODE500            OCT      00500
000274:
000275:
000276: 32,3256           00035 30373  99999CON           2DEC     30479.7    B-24
000277: 32,3260           00004 01610  GUIDDURN           2DEC     +66440     B-28                       #          GUIDDURN +6.64400314 E+2
000278: 32,3262           00000 00010  DDUMCRIT           2DEC     +8         B-28                       #  CRITERION FOR IGNALG CONVERGENCE
000279:


000281:                                                                                                  #                ----------------------------------------
000282:


000284:                                                                                                  #                ****************************************
000285:                                                                                                  #                P68: LANDING CONFIRMATION
000286:                                                                                                  #                ****************************************
000287:
000288: 34,3271                                           BANK     34
000289: 34,2000                                           SETLOC   F2DPS*34
000290: 34,2000                                           BANK
000291:
000292: 34,3271                                           COUNT*   $$/P6567
000293:
000294: 34,3271           05353        LANDJUNK           TC       PHASCHNG
000295: 34,3272           04024                           OCT      04024
000296:
000297: 34,3273           00004                           INHINT
000298: 34,3274           04616                           TC       BANKCALL                              #  ZERO ATTITUDE ERROR
000299: 34,3275           40154                           CADR     ZATTEROR
000300:
000301: 34,3276           06042                           TC       INTPRET                               #  TO INTERPRETIVE AS TIME IS NOT CRITICAL
000302: 34,3277           77614                           SET                                            #  PREVENT RCS JET FIRINGS IF MODE CONT IS
000303: 34,3300           06460                                    PULSEFLG                              #  IN ATT HOLD
000304: 34,3301           43014                           SET      CLEAR
000305: 34,3302           04067                                    SURFFLAG
000306: 34,3303           04666                                    LETABORT
000307: 34,3304           77214                           SET      VLOAD
000308: 34,3305           05062                                    APSFLAG
000309: 34,3306           01220                                    RN
000310: 34,3307           16032                           STODL    ALPHAV
000311: 34,3310           01234                                    PIPTIME
000312: 34,3311           45014                           SET      CALL
000313: 34,3312           01463                                    LUNAFLAG
000314: 34,3313           26351                                    LAT-LONG
000315: 34,3314           77201                           SETPD    VLOAD                                 #  COMPUTE RLS AND STORE IT AWAY
000316: 34,3315           00001                                    0
000317: 34,3316           01220                                    RN
000318: 34,3317           65352                           VSL2     PDDL
000319: 34,3320           01234                                    PIPTIME
000320: 34,3321           45006                           PUSH     CALL
000321: 34,3322           51677                                    R-TO-RP
000322: 34,3323           02023                           STORE    RLS
000323: 34,3324           77776                           EXIT
000324: 34,3325           33342                           CAF      V06N43*                               #  ASTRONAUT: NOW LOOK WHERE YOU ENDED UP
000325: 34,3326           04616                           TC       BANKCALL
000326: 34,3327           20477                           CADR     GOFLASH
000327: 34,3330           16001                           TCF      GOTOPOOH                              #  TERMINATE
000328: 34,3331           13333                           TCF      +2                                    #  PROCEED
000329: 34,3332           13325                           TCF      -5                                    #  RECYCLE
000330:
000331:
000332: 34,3333           06042                           TC       INTPRET
000333: 34,3334           77775                           VLOAD                                          #  INITIALIZE GSAV AND (USING REFMF)
000334:


000336: 34,3335           06522                                    UNITX                                 #  YNBSAV, ZNBSAV AND ATTFLAG FOR P57
000337: 34,3336           36231                           STCALL   GSAV
000338: 34,3337           33471                                    REFMF
000339: 34,3340           77776                           EXIT
000340:
000341: 34,3341           16001                           TCF      GOTOPOOH                              #  ASTRONAUT: PLEASE SELECT P57
000342:
000343:
000344: 34,3342           01453        V06N43*            VN       0643

End of include-file THE_LUNAR_LANDING.agc.  Parent file is MAIN.agc


