
Source Code


000002:                                                                                                  ## Copyright:   Public domain.
000003:                                                                                                  ## Filename:    THROTTLE_CONTROL_ROUTINES.agc
000004:                                                                                                  ## Purpose:     A section of Luminary revision 116.
000005:                                                                                                  ##              It is part of the source code for the Lunar Module's (LM)
000006:                                                                                                  ##              Apollo Guidance Computer (AGC) for Apollo 12.
000007:                                                                                                  ##              This file is intended to be a faithful transcription, except
000008:                                                                                                  ##              that the code format has been changed to conform to the
000009:                                                                                                  ##              requirements of the yaYUL assembler rather than the
000010:                                                                                                  ##              original YUL assembler.
000011:                                                                                                  ## Reference:   pp. 786-790
000012:                                                                                                  ## Assembler:   yaYUL
000013:                                                                                                  ## Contact:     Ron Burkey <info@sandroid.org>.
000014:                                                                                                  ## Website:     www.ibiblio.org/apollo/index.html
000015:                                                                                                  ## Mod history: 2017-01-22 MAS  Created from Luminary 99.
000016:                                                                                                  ##              2017-03-01 HG   Transcribed
000017:                                                                                                  ##              2017-03-14 RSB  Proofed comment text via 3-way diff vs
000018:                                                                                                  ##                              Luminary 99 and 131. No problems were found,
000019:                                                                                                  ##                              but a ##-comment that wouldn't have been
000020:                                                                                                  ##                              displayed properly was fixed.
000021:                                                                                                  ##              2017-03-16 RSB  Comment-text fixes identified in 5-way
000022:                                                                                                  ##                              side-by-side diff of Luminary 69/99/116/131/210.
000023:


000025: 31,2144                                           BANK     31
000026:
000027: 31,2000                                           SETLOC   FTHROT
000028:
000029: 31,2000                                           BANK
000030:
000031: 31,2144  E7,1612                                  EBANK=   PIF
000032:
000033: 31,2144                                           COUNT*   $$/THROT
000034:                                                                                                  #  * * * * * * * * * * * * * * * * * * * * * * * * * * * * * * * * * * * * * * * * * * * * * * * * * * * * * * * *
000035:
000036:                                                                                                  #      HERE FC, DESIRED THRUST, AND FP, PRESENT THRUST, UNWEIGHTED, ARE COMPUTED.
000037:
000038:
000039: 31,2144           31245        THROTTLE           CA       ABDELV                                #  COMPUTE PRESENT ACCELERATION IN UNITS OF
000040: 31,2145           00006                           EXTEND                                         #    2(-4) M/CS/CS, SAVING SERVICER TROUBLE
000041: 31,2146           72345                           MP       /AF/CNST
000042: 31,2147           00006                 +3        EXTEND
000043: 31,2150           23607                           QXCH     RTNHOLD
000044: 31,2151           02326        AFDUMP             TC       MASSMULT
000045: 31,2152           53470                           DXCH     FP                                    #  FP = PRESENT THRUST
000046: 31,2153           00006                           EXTEND
000047: 31,2154           31464                           DCA      /AFC/
000048: 31,2155           02326                           TC       MASSMULT
000049: 31,2156           55615                           TS       FC                                    #  FC = THRUST DESIRED BY GUIDANCE
000050: 31,2157           53466                           DXCH     FCODD                                 #  FCODD = WHAT IT IS GOING TO GET
000051:
000052:
000053:                                                                                                  #      IF IT HAS BEEN LESS THAN 3 SECONDS SINCE THE LAST THROTTLING, AUGMENT FP USING THE FWEIGHT CALCULATED THEN.
000054:
000055:
000056: 31,2160           41617                           CS       TTHROT                                #  THIS CODING ASSUMES A FLATOUT WITHIN
000057: 31,2161           60025                           AD       TIME1                                 #    80 SECONDS BEFORE FIRST THROTTLE CALL
000058: 31,2162           74733                           MASK     POSMAX
000059: 31,2163           40000                           COM
000060: 31,2164           65002                           AD       3SECS
000061: 31,2165           00006                           EXTEND
000062: 31,2166           62172                           BZMF     WHERETO                               #  BRANCH IF (TIME1-TTHROT +1) > 3 SECONDS
000063: 31,2167           00006                           EXTEND
000064: 31,2170           31611                           DCA      FWEIGHT
000065: 31,2171           21470                           DAS      FP
000066:
000067:
000068:                                                                                                  #      THIS LOGIC DETERMINES THE THROTTLING IN THE REGION 10% - 94%.   THE MANUAL THROTTLE, NOMINALLY SET AT
000069:                                                                                                  #  MINIMUM BY ASTRONAUT OR MISSION CONTROL PROGRAMS, PROVIDES THE LOWER BOUND.   A STOP IN THE THROTTLE HARDWARE
000070:                                                                                                  #  PROVIDES THE UPPER.
000071:
000072:
000073: 31,2172           35014        WHERETO            CA       EBANK5                                #  INITIALIZE L*WCR*T AND H*GHCR*T FROM
000074: 31,2173           54003                           TS       EBANK                                 #    PAD LOADED ERASABLES IN W-MATRIX
000075:


000077: 31,2174  E5,1506                                  EBANK=   LOWCRIT
000078: 31,2174           00006                           EXTEND
000079: 31,2175           31507                           DCA      LOWCRIT
000080: 31,2176           52131                           DXCH     L*WCR*T
000081: 31,2177           35016                           CA       EBANK7
000082: 31,2200           54003                           TS       EBANK
000083: 31,2201  E7,1612                                  EBANK=   PIF
000084: 31,2201           44755                           CS       ZERO                                  #  INITIALIZE PIFPSET
000085: 31,2202           55606                           TS       PIFPSET
000086: 31,2203           40131                           CS       H*GHCR*T
000087: 31,2204           61620                           AD       FCOLD
000088: 31,2205           00006                           EXTEND
000089: 31,2206           62220                           BZMF     LOWFCOLD                              #  BRANCH IF FCOLD < OR = HIGHCRIT
000090: 31,2207           40130                           CS       L*WCR*T
000091: 31,2210           61465                           AD       FCODD
000092: 31,2211           00006                           EXTEND
000093: 31,2212           62215                           BZMF     FCOMPSET                              #  BRANCH IF FC < OR = LOWCRIT
000094: 31,2213           31467                           CA       FP                                    #  SEE NOTE 1
000095: 31,2214           12225                           TCF      FLATOUT1
000096:
000097: 31,2215           42002        FCOMPSET           CS       FMAXODD                               #  SEE NOTE 2
000098: 31,2216           61467                           AD       FP
000099: 31,2217           12227                           TCF      FLATOUT2
000100:
000101: 31,2220           40131        LOWFCOLD           CS       H*GHCR*T
000102: 31,2221           61465                           AD       FCODD
000103: 31,2222           00006                           EXTEND
000104: 31,2223           62230                           BZMF     DOPIF                                 #  BRANCH IF FC < OR = HIGHCRIT
000105:
000106: 31,2224           32003                           CA       FMAXPOS                               #  NO:   THROTTLE-UP
000107: 31,2225           53466        FLATOUT1           DXCH     FCODD
000108: 31,2226           34737                           CA       FEXTRA
000109: 31,2227           55606        FLATOUT2           TS       PIFPSET
000110:
000111:                                                                                                  #  NOTE 1   FC IS SET EQUAL TO FP SO PIF WILL BE ZERO.   THIS IS DESIRABLE
000112:                                                                                                  #           AS THERE IS ACTUALLY NO THROTTLE CHANGE.
000113:
000114:                                                                                                  #  NOTE2    HERE, SINCE WE ARE ABOUT TO RETURN TO THE THROTTLEABLE REGION
000115:                                                                                                  #           (BELOW 55%) THE QUANTITY -(FMAXODD - FP) IS COMPUTED AND PUT
000116:                                                                                                  #           INTO PIFPSET TO COMPENSATE FOR THE DIFFERENCE BETWEEN THE
000117:                                                                                                  #           NUMBER OF BITS CORRESPONDING TO FULL THROTTLE (FMAXODD) AND THE
000118:                                                                                                  #           NUMBER CORRESPONDING TO ACTUAL THRUST (FP).   THUS THE TOTAL
000119:                                                                                                  #           THROTTLE COMMAND PIF = FC - FP - (FMAXODD - FP) = FC - FMAXODD.
000120:
000121: 31,2230           03717        DOPIF              TC       FASTCHNG
000122: 31,2231           00006                           EXTEND
000123: 31,2232           31466                           DCA      FCODD
000124: 31,2233           55620                           TS       FCOLD
000125: 31,2234           53613                           DXCH     PIF
000126: 31,2235           00006                           EXTEND
000127:


000129: 31,2236           41470                           DCS      FP
000130: 31,2237           21613                           DAS      PIF                                   #  PIF = FC - FP, NEVER EQUALS +0
000131:
000132:
000133: 31,2240           31612        DOIT               CA       PIF
000134: 31,2241           61606                           AD       PIFPSET                               #  ADD IN PIFPSET, WITHOUT CHANGING PIF
000135: 31,2242           55614                           TS       PSEUDO55


000137: 31,2243           54055                           TS       THRUST
000138: 31,2244           34750                           CAF      BIT4
000139: 31,2245           00006                           EXTEND
000140: 31,2246           05014                           WOR      CHAN14
000141: 31,2247           30025                           CA       TIME1
000142: 31,2250           55617                           TS       TTHROT


000144:
000145:                                                                                                  #      SINCE /AF/ IS NOT AN INSTANTANEOUS ACCELERATION, BUT RATHER AN "AVERAGE" OF THE ACCELERATION LEVELS DURING
000146:                                                                                                  #  THE PRECEEDING PIPA INTERVAL, AND SINCE FP IS COMPUTED DIRECTLY FROM /AF/, FP IN ORDER TO CORRESPOND TO THE
000147:                                                                                                  #  ACTUAL THRUST LEVEL AT THE END OF THE INTERVAL MUST BE WEIGHTED BY
000148:
000149:                                                                                                  #                                    PIF(PPROCESS + TL)     PIF /PIF/
000150:                                                                                                  #                          FWEIGHT = ------------------ + -------------
000151:                                                                                                  #                                          PGUID          2 PGUID FRATE
000152:
000153:                                                                                                  #  WHERE PPROCESS IS THE TIME BETWEEN PIPA READING AND THE START OF THROTTLING, PGUID IS THE GUIDANCE PERIOD, AND
000154:                                                                                                  #  FRATE IS THE THROTTLING RATE (32 UNITS PER CENTISECOND).  PGUID IS EITHER 1 OR 2 SECONDS. THE "TL" IN THE
000155:                                                                                                  #  FIRST TERM REPRESENTS THE ENGINE'S RESPONSE LAG.   HERE FWEIGHT IS COMPUTED FOR USE NEXT PASS.
000156:
000157: 31,2251           31762                           CA       THISTPIP   +1                         #  INITIALIZE FWEIGHT COMP AS IF FOR P66


000159: 31,2252           54130                           TS       BUF
000160:
000161: 31,2253           41010                           CS       MODREG                                #  ARE WE IN FACT IN P66?
000162: 31,2254           62433                           AD       DEC66
000163: 31,2255           00006                           EXTEND
000164: 31,2256           12263                           BZF      FWCOMP                                #  YES
000165:
000166: 31,2257           31234                           CA       PIPTIME    +1                         #  NO:   INITIALIZE FOR TWO SECOND PERIOD
000167: 31,2260           54130                           TS       BUF
000168: 31,2261           35003                           CAF      4SECS
000169: 31,2262           12264                           TCF      FWCOMP     +1
000170:
000171: 31,2263           35000        FWCOMP             CAF      2SECS
000172: 31,2264           54002                 +1        TS       Q
000173: 31,2265           00006                           EXTEND
000174: 31,2266           74746                           MP       BIT6
000175: 31,2267           22131                           LXCH     BUF        +1
000176: 31,2270           40130                           CS       BUF                                   #  TIME OF LAST PIPA READING.
000177: 31,2271           60025                           AD       TIME1
000178: 31,2272           62004                           AD       THROTLAG                              #  COMPENSATE FOR ENGINE RESPONSE LAG
000179: 31,2273           74357                           MASK     LOW8                                  #  MAKE SURE SMALL AND POSITIVE
000180: 31,2274           22007                           ZL
000181: 31,2275           00006                           EXTEND
000182:


000184: 31,2276           10002                           DV       Q
000185: 31,2277           00006                           EXTEND
000186: 31,2300           71612                           MP       PIF
000187: 31,2301           60000                           DOUBLE
000188: 31,2302           53611                           DXCH     FWEIGHT
000189: 31,2303           11612                           CCS      PIF
000190: 31,2304           64753                           AD       ONE
000191: 31,2305           12307                           TCF      +2
000192: 31,2306           64753                           AD       ONE
000193: 31,2307           00006                           EXTEND
000194: 31,2310           71612                           MP       PIF
000195: 31,2311           00006                           EXTEND
000196: 31,2312           10131                           DV       BUF        +1
000197: 31,2313           22007                           ZL
000198: 31,2314           21611                           DAS      FWEIGHT
000199:
000200:
000201: 31,2315           01607        THDUMP             TC       RTNHOLD
000202:
000203:
000204:                                                                                                  #      FLATOUT THROTTLES UP THE DESCENT ENGINE, AND IS CALLED AS A BASIC SUBROUTINE.
000205:
000206: 31,2316           34737        FLATOUT            CAF      BIT13                                 #  4096 PULSES
000207: 31,2317           55606        WHATOUT            TS       PIFPSET                               #  USE PIFPSET SO FWEIGHT WILL BE ZERO
000208: 31,2320           44755                           CS       ZERO
000209: 31,2321           55620                           TS       FCOLD
000210: 31,2322           55612                           TS       PIF
000211: 31,2323           00006                           EXTEND
000212: 31,2324           23607                           QXCH     RTNHOLD
000213: 31,2325           12240                           TCF      DOIT
000214:
000215:
000216:                                                                                                  #      MASSMULT SCALES ACCELERATION, ARRIVING IN A AND L IN UNITS OF 2(-4) M/CS/CS, TO FORCE IN PULSE UNITS.
000217:
000218: 31,2326           00006        MASSMULT           EXTEND
000219: 31,2327           22130                           QXCH     BUF
000220: 31,2330           52155                           DXCH     MPAC
000221: 31,2331           07106                           TC       DMP
000222: 31,2332           01243                           ADRES    MASS
000223: 31,2333           07106                           TC       DMP                                   #  LEAVES PROPERLY SCALED FORCE IM MPAC
000224: 31,2334           02005                           ADRES    SCALEFAC
000225: 31,2335           07262                           TC       TPAGREE
000226: 31,2336           30154                           CA       MPAC
000227: 31,2337           00006                           EXTEND
000228: 31,2340           12343                           BZF      +3
000229: 31,2341           34733                           CAF      POSMAX
000230: 31,2342           00130                           TC       BUF
000231: 31,2343           52156                           DXCH     MPAC       +1
000232: 31,2344           00130                           TC       BUF


000236:                                                                                                  ##


000245:


000247:                                                                                                  #      CONSTANTS:-
000248:
000249: 31,2345     4737               FEXTRA             =        BIT13                                 #  FEXT       +5.13309020E+4
000250:
000251: 31,2345           04143        /AF/CNST           DEC      .13107
000252:
000253:                                                                                                  #  * * * * * * * * * * * * * * * * * * * * * * * * * * * * * * * * * * * * * * * * * * * * * * * * * * * * * * * *

End of include-file THROTTLE_CONTROL_ROUTINES.agc.  Parent file is MAIN.agc


