
Source Code


000002:                                                                                                  ## Copyright:   Public domain.
000003:                                                                                                  ## Filename:    TJET_LAW.agc
000004:                                                                                                  ## Purpose:     A section of Luminary revision 116.
000005:                                                                                                  ##              It is part of the source code for the Lunar Module's (LM)
000006:                                                                                                  ##              Apollo Guidance Computer (AGC) for Apollo 12.
000007:                                                                                                  ##              This file is intended to be a faithful transcription, except
000008:                                                                                                  ##              that the code format has been changed to conform to the
000009:                                                                                                  ##              requirements of the yaYUL assembler rather than the
000010:                                                                                                  ##              original YUL assembler.
000011:                                                                                                  ## Reference:   pp. 1450-1459
000012:                                                                                                  ## Assembler:   yaYUL
000013:                                                                                                  ## Contact:     Ron Burkey <info@sandroid.org>.
000014:                                                                                                  ## Website:     www.ibiblio.org/apollo/index.html
000015:                                                                                                  ## Mod history: 2017-01-22 MAS  Created from Luminary 99.
000016:                                                                                                  ##              2017-01-26 RRB  Updated for Luminary 116.
000017:                                                                                                  ##              2017-03-14 RSB  Proofed comment text via 3-way diff vs
000018:                                                                                                  ##                              Luminary 99 and 131.
000019:                                                                                                  ##              2017-03-16 RSB  Comment-text fixes identified in 5-way
000020:                                                                                                  ##                              side-by-side diff of Luminary 69/99/116/131/210.
000021:                                                                                                  ##              2017-03-19 HG   Fix statement AD -3DEG --> TCF +3
000022:                                                                                                  ##                              Add missing statement TCF +1
000023:


000025:                                                                                                  #  PROGRAM DESCRIPTION
000026:
000027:                                                                                                  #  DESIGNED BY:  R. D. GOSS AND P. S. WEISSMAN
000028:
000029:                                                                                                  #  CODED BY:  P. S. WEISSMAN 28 FEBRUARY 1968
000030:
000031:                                                                                                  #      TJETLAW IS CALLED AS A SUBROUTINE WHEN THE LEM IS NOT DOCKED AND THE AUTOPILOT IS IN THE AUTOMATIC OR
000032:                                                                                                  #  ATTITUDE-HOLD MODE TO CALCULATE THE JET-FIRING-TIME (TJET) REQUIRED FOR THE AXIS INDICATED BY AXISCTR:
000033:                                                                                                  #                    -1      INDICATES THE P-AXIS
000034:                                                                                                  #                    +0      INDICATES THE U-AXIS
000035:                                                                                                  #                    +1      INDICATES THE V-AXIS.
000036:                                                                                                  #  THE REGISTERS E AND EDOT CONTAIN THE APPROPRIATE ATTITUDE ERROR AND ERROR RATE AND SENSETYP SHOWS WHETHER
000037:                                                                                                  #  UNBALANCED COUPLES ARE PREFERRED.  TJETLAW ALSO USES VARIOUS FUNCTIONS OF ACCELERATION AND DEADBAND WHICH ARE
000038:                                                                                                  #  COMPUTED IN THE 1/ACCONT SECTION OF 1/ACCS AND ARE STORED IN SUCH AN ORDER THAT THEY CAN BE CONVENIENTLY
000039:                                                                                                  #  ACCESSED BY INDEXING.
000040:                                                                                                  #       THE SIGN OF THE REQUIRED ROTATION IS CARRIED THROUGH TJETLAW AS ROTSENSE AND IS FINALLY APPLIED TO TJET JUST
000041:                                                                                                  #  PREVIOUS TO ITS STORAGE IN THE LOCATION CORRESPONDING TO THE AXIS (TJP, TJU OR TJV).  THE NUMBER OF JETS THAT
000042:                                                                                                  #  TJETLAW ASSUMES WILL BE USED IS INDICATED BY THE SETTING OF NUMBERT FOR THE U- OR V-AXIS.  TWO JETS ARE ALWAYS
000043:                                                                                                  #  ASSUMED FOR THE P-AXIS ALTHOUGH FOUR JETS WILL BE FIRED WHEN FIREFCT IS MORE NEGATIVE THAN -4.0 DEGREES
000044:                                                                                                  #  (FIREFCT IS THE DISTANCE TO A SWITCH CURVE IN THE PHASE PLANE) AND A LONG FIRING IS CALLED FOR.
000045:                                                                                                  #      IN ORDER TO AVOID SCALING DIFFICULTIES, SIMPLE ALGORITHMS TAGGED RUFLAW1, -2 AND -3 ARE RESORTED TO WHEN THE
000046:                                                                                                  #  ERROR AND/OR ERROR RATE ARE LARGE.
000047:
000048:                                                                                                  #  CALLING SEQUENCE:
000049:                                                                                                  #              TC      TJETLAW        (MUST BE IN JASK)
000050:                                                                                                  #    OR
000051:                                                                                                  #              INHINT                 (MUST BE IN JASK)
000052:                                                                                                  #              TC      IBNKCALL
000053:                                                                                                  #              CADR    TJETLAW
000054:                                                                                                  #              RELINT
000055:
000056:                                                                                                  #  EXIT:         RETURN TO Q.
000057:
000058:                                                                                                  #  INPUT:
000059:                                                                                                  #     FROM THE CALLER: E, EDOT, AXISCTR, SENSETYP, TJP, -U, -V.
000060:                                                                                                  #     FROM 1/ACCONT: 48 ERASABLES BEGINNING AT BLOCKTOP (INCLUDING FLAT, ZONE3LIM AND ACCSWU, -V).
000061:
000062:                                                                                                  #  OUTPUT:
000063:                                                                                                  #     TJP,-U OR -V, NUMBERT (DAPTEMP5), FIREFCT (DAPTEMP3).
000064:
000065:                                                                                                  #  DEBRIS:
000066:                                                                                                  #        A, L, Q, E, EDOT, DAPTEMP1-6, DAPTREG1-4.
000067:
000068:                                                                                                  #  ALARM:  NONE
000069:
000070: 17,3304                                           BANK     17
000071: 17,2000                                           SETLOC   DAPS2
000072: 17,2000                                           BANK
000073: 17,3304  E6,1524                                  EBANK=   TJP


000075: 17,3304                                           COUNT*   $$/DAPTJ
000076:
000077: 17,3304           00006        TJETLAW            EXTEND                                         #  SAVE Q FOR RETURN.
000078: 17,3305           23745                           QXCH     HOLDQ
000079:
000080:                                                                                                  #  SET INDEXERS TO CORRESPOND TO THE AXIS AND TO THE SIGN OF EDOT
000081:
000082: 17,3306           51505                           INDEX    AXISCTR                               #  AXISDIFF(-1)=NO OF LOCATIONS BER P AND U
000083: 17,3307           33755                           CAF      AXISDIFF                              #  AXISDIFF(0) = 0
000084: 17,3310           55746                           TS       ADRSDIF1                              #  AXISDIFF(+1)=NO OF LOCATIONS BET V AND U
000085:
000086: 17,3311           31427                           CAE      EDOT                                  #  IF EDOT NEGATIVE, PICK UP SET OF VALUES
000087: 17,3312           00006                           EXTEND                                         #    THAT ALLOW USE OF SAME CODING AS FOR
000088: 17,3313           63320                           BZMF     NEGEDOT                               #    POSITIVE EDOT.
000089: 17,3314           31746                           CAE      ADRSDIF1                              #  SET A SECOND INDEXER WHICH MAY BE
000090: 17,3315           55744                           TS       ADRSDIF2                              #    MODIFIED BY A DECISION FOR MAX JETS.
000091: 17,3316           33757                           CAF      SENSOR                                #  FOR POSITIVE EDOT, ROTSENSE IS
000092: 17,3317           13330                           TCF      SETSENSE                              #    INITIALIZED POSITIVE.
000093:
000094: 17,3320           41752        NEGEDOT            CS       E                                     #  IN ORDER FOR NEG EDOT CASE TO USE CODING
000095: 17,3321           55752                           TS       E                                     #     OF POS EDOT, MUST MODIFY AS FOLLOWS:
000096: 17,3322           41427                           CS       EDOT                                  #     1.COMPLEMENT E AND EDOT.
000097: 17,3323           55427                           TS       EDOT                                  #     2.SET SENSE OF ROTATION TO NEGATIVE
000098: 17,3324           34753                           CAF      BIT1                                  #       (REVERSED LATER IF NECESSARY).
000099: 17,3325           27746                           ADS      ADRSDIF1                              #     3.INCREMENT INDEXERS BY ONE SO THAT
000100: 17,3326           55744                           TS       ADRSDIF2                              #       THE PROPER PARAMETERS ARE ACCESSED.
000101: 17,3327           43757                           CS       SENSOR
000102: 17,3330           55740        SETSENSE           TS       ROTSENSE
000103:
000104:                                                                                                  #  TEST MAGNITUDE OF E (ATTITUDE ERROR, SINGLE-PRECISION, SCALED AT PI RADIANS):
000105:                                                                                                  #           IF GREATER THAN (OR EQUAL TO) PI/16 RADIANS, GO TO THE SIMPLIFIED TJET ROUTINE.
000106:                                                                                                  #           IF LESS THAN PI/16 RADIANS, RESCALE TO PI/4.
000107:
000108: 17,3331           31752                           CAE      E                                     #  PICK UP ATTITUDE ERROR FOR THIS AXIS
000109: 17,3332           00006                           EXTEND
000110: 17,3333           74747                           MP       BIT5                                  #  SHIFT RIGHT TEN BITS:  IF A-REGISTER IS
000111: 17,3334           10000                           CCS      A                                     #    ZERO, RESCALE AND TEST EDOT.
000112: 17,3335           13717                           TCF      RUFLAW2
000113: 17,3336           13340                           TCF      SCALEE
000114: 17,3337           13663                           TCF      RUFLAW1
000115: 17,3340           34737        SCALEE             CAF      BIT13                                 #  ERROR IS IN L SCALED AT PI/16.  RESCALE
000116: 17,3341           00006                           EXTEND                                         #    IT TO PI/4 AND SAVE IT.
000117: 17,3342           70001                           MP       L
000118: 17,3343           55752                           TS       E
000119:
000120:                                                                                                  #  TEST MAGNITUDE OF EDOT (ERROR RATE SCALED AT PI/4 RADIANS/SECOND)
000121:                                                                                                  #           IF GREATER THAN (OR EQUAL TO) PI/32 RADIANS/SECOND, GO TO THE SIMPLIFIED TJET ROUTINE.
000122:                                                                                                  #           IF LESS THAN PI/32 RADIANS/SECOND, THEN RESCALE TO PI/32 RADIANS/SECOND.
000123:
000124: 17,3344           31427                           CAE      EDOT                                  #  PICK UP SINGLE-PRECISION ERROR-RATE


000126: 17,3345           00006                           EXTEND                                         #  FOR THIS AXIS=
000127: 17,3346           74750                           MP       BIT4                                  #  SHIFT RIGHT ELEVEN BITS, IF THE A-REG IS
000128: 17,3347           00006                           EXTEND                                         #  ZERO, THEN RESCALE AND USE FINELAW.
000129: 17,3350           13352                           BZF      SCALEDOT
000130: 17,3351           13725                           TCF      RUFLAW3
000131:
000132:                                                                                                  #  *** FINELAW STARTS HERE ***
000133:
000134: 17,3352           23427        SCALEDOT           LXCH     EDOT                                  #  EDOT IS SCALED AT PI/32 RADIANS/SECOND.
000135:
000136: 17,3353           31427                           CAE      EDOT                                  #  COMPUTE (EDOT)(EDOT)
000137: 17,3354           00006                           EXTEND
000138: 17,3355           70000                           SQUARE                                         #  PRODUCT SCALED AT PI(2)/2(10) RAD/SEC.
000139: 17,3356           00006                           EXTEND
000140: 17,3357           74737                           MP       BIT13                                 #  SHIFT RIGHT TWO BITS TO RESCALE EDOTSQ
000141: 17,3360           55737                           TS       EDOTSQ                                #    TO PI(2)/2(8) RAD(2)/SEC(2).
000142:
000143: 17,3361           11752        ERRTEST            CCS      E                                     #  DOES BIG ERROR (THREE DEG BEYOND THE
000144: 17,3362           13365                           TCF      +3                                    #  DEADBAND) REQUIRE MAXIMUM JETS?
000145: 17,3363           13365                           TCF      +2
000146: 17,3364           13365                           TCF      +1
000147: 17,3365           63760                           AD       -3DEG
000148: 17,3366           00006                           EXTEND
000149: 17,3367           51746                           INDEX    ADRSDIF1
000150: 17,3370           61601                           SU       FIREDB
000151: 17,3371           00006                           EXTEND
000152: 17,3372           63377                           BZMF     SENSTEST                              #  IF NOT: ARE UNBALANCED JETS PREFERRED|
000153: 17,3373           34752        MAXJETS            CAF      TWO                                   #  IF YES : INCREMENT ADDRESS LOCATOR AND
000154: 17,3374           27744                           ADS      ADRSDIF2                              #    SET SWITCH FOR JET SELECT LOGIC TO 4.
000155: 17,3375           34751                           CAF      FOUR                                  #    (ALWAYS DO THIS FOR P-AXIS)
000156: 17,3376           13402                           TCF      TJCALC
000157: 17,3377           11500        SENSTEST           CCS      SENSETYP                              #  DOES TRANSLATION PREFER MIN JETS.
000158: 17,3400           13402                           TCF      TJCALC                                #  YES.  USE MIN-JET PARAMETERS.
000159: 17,3401           13373                           TCF      MAXJETS                               #  NO.  GET MAX-JET PARAMETERS.
000160: 17,3402           55743        TJCALC             TS       NUMBERT                               #  SET TO +0,1,4 FOR (U,V-AXES) JET SELECT.
000161:
000162:                                                                                                  #  BEGINNING OF TJET CALCULATIONS:
000163:
000164: 17,3403           41737                           CS       EDOTSQ                                #  SCALED AT PI(2)/2(8).
000165: 17,3404           00006                           EXTEND
000166: 17,3405           51744                           INDEX    ADRSDIF2
000167: 17,3406           71567                           MP       1/ANET1                               #  .5/ACC SCALED AT 2(6)/PI SEC(2)/RADIAN.
000168: 17,3407           51746                           INDEX    ADRSDIF1
000169: 17,3410           61601                           AD       FIREDB                                #  DEADBAND SCALED AT PI/4 RADIAN.
000170: 17,3411           00006                           EXTEND
000171: 17,3412           61752                           SU       E                                     #  ATTITUDE ERROR SCALED AT PI/4 RADIAN.
000172: 17,3413           55741                           TS       FIREFCT                               #  -E-.5(EDOTSQ)/ACC-DB AT PI/4 RADIAN.
000173: 17,3414           00006                           EXTEND
000174: 17,3415           63575                           BZMF     ZON1,2,3
000175:
000176: 17,3416           51746        ZONE4,5            INDEX    ADRSDIF1


000178: 17,3417           31573                           CAE      1/ACOAST                              #  .5/ACC SCALED AT 2(6)/PI WHERE
000179: 17,3420           00006                           EXTEND                                         #     ACC = MAX(AMIN, AOS-).
000180: 17,3421           71737                           MP       EDOTSQ                                #  SCALED AT PI/2(8).
000181: 17,3422           61752                           AD       E                                     #  SCALED AT PI/4
000182: 17,3423           51746                           INDEX    ADRSDIF1
000183: 17,3424           61603                           AD       COASTDB                               #  SCALED AT PI/4 POS. FOR NEG. INTERCEPT.
000184: 17,3425           00006                           EXTEND                                         #  TEST E+.5(EDOTSQ)/ACC+DB AT PI/4 RADIAN.
000185: 17,3426           63461                           BZMF     ZONE5                                 #  IF FUNCTION NEGATIVE, FIND TJET.
000186:                                                                                                  #  IF FUNCTION POSITIVE, IN ZONE 4.
000187:
000188:                                                                                                  #    ZONE 4 IS THE COAST REGION.  HOWEVER, IF THE JETS ARE ON AND DRIVING TOWARD
000189:                                                                                                  #      A. THE AXIS WITHIN + OR - (DB + FLAT) FOR DRIFTING FLIGHT, OR
000190:                                                                                                  #      B. THE USUAL TARGET PARABOLA FOR POWERED FLIGHT
000191:                                                                                                  #  THEN THE THRUSTERS ARE KEPT ON.
000192:
000193: 17,3427           51505        ZONE4              INDEX    AXISCTR                               #  IS THE CURRENT VALUE IN TJET NON-ZERO
000194: 17,3430           41525                           CS       TJETU                                 #    WITH SENSE OPPOSITE TO EDOT,
000195: 17,3431           00006                           EXTEND                                         #    (I.E., ARE JETS ON AND FIRING TOWARD
000196: 17,3432           71740                           MP       ROTSENSE                              #    THE DESIRABLE STATE).
000197: 17,3433           00006                           EXTEND
000198: 17,3434           63455                           BZMF     COASTTJ                               #  NO.  COAST.
000199:
000200: 17,3435           11555        JETSON             CCS      FLAT                                  #  YES.  IS THIS DRIFTING OR POWERED FLIGHT|
000201: 17,3436           13447                           TCF      DRIFT/ON                              #  DRIFTING. GO MAKE FURTHER TEST.
000202:
000203: 17,3437           41741                           CS       FIREFCT                               #  POWERED (OR ULLAGE). CAN TARGET PARABOLA
000204: 17,3440           51746                           INDEX    ADRSDIF1                              #    BE REACHED FROM THIS POINT IN THE
000205: 17,3441           61605                           AD       AXISDIST                              #    PHASE PLANE|
000206: 17,3442           00006                           EXTEND
000207: 17,3443           63455                           BZMF     COASTTJ                               #  NO. SET TJET = 0.
000208: 17,3444           03561                           TC       Z123COMP                              #  YES. CALCULATE TJET AS THOUGH IN ZONE 1
000209: 17,3445           31741                           CAE      FIREFCT                               #    AFTER COMPUTING THE REQUIRED
000210: 17,3446           13615                           TCF      ZONE1                                 #    PARAMETERS.
000211:
000212: 17,3447           51746        DRIFT/ON           INDEX    ADRSDIF1                              #  CAN TARGET STRIP OF AXIS BE REACHED FROM
000213: 17,3450           41601                           CS       FIREDB                                #    THIS POINT IN THE PHASE PLANE|
000214: 17,3451           60000                           DOUBLE
000215: 17,3452           61741                           AD       FIREFCT
000216: 17,3453           00006                           EXTEND
000217: 17,3454           63457                           BZMF     +3
000218: 17,3455           34755        COASTTJ            CAF      ZERO                                  #  NO.  SET TJET = 0.
000219: 17,3456           13521                           TCF      RETURNTJ
000220:
000221: 17,3457           03561                           TC       Z123COMP                              #  YES. CALCULATE TJET AS THOUGH IN ZONE 2
000222: 17,3460           13602                           TCF      ZONE2,3                               #    OR 3 AFTER COMPUTING REQUIRED VALUES.
000223:
000224: 17,3461           54001        ZONE5              TS       L                                     #  TEMPORARILY STORE FUNCTION IN L.
000225: 17,3462           11740                           CCS      ROTSENSE                              #  MODIFY ADRSDIF2 FOR ACCESSING 1/ANET2
000226: 17,3463           13467                           TCF      +4                                    #  AND ACCFCTZ5, WHICH MUST BE PICKED UP
000227: 17,3464           05675                           TC       CCSHOLE                               #  FROM THE NEXT LOWER REGISTER IF THE


000229: 17,3465           44752                           CS       TWO                                   #  (ACTUAL) ERROR RATE IS NEGATIVE.
000230: 17,3466           27744                           ADS      ADRSDIF2
000231:
000232: 17,3467           30001                 +4        CAE      L
000233: 17,3470           00006                           EXTEND
000234: 17,3471           51744                           INDEX    ADRSDIF2                              #  TTOAXIS AND HH ARE THE PARAMETERS UPON
000235: 17,3472           71576                           MP       ACCFCTZ5                              #    WHICH THE APPROXIMATIONS TO TJET ARE
000236: 17,3473           20001                           DDOUBL                                         #    BASED.
000237: 17,3474           20001                           DDOUBL
000238: 17,3475           53750                           DXCH     HH                                    #  DOUBLE PRECISION H SCALED AT 8 SEC(2).
000239: 17,3476           51744                           INDEX    ADRSDIF2
000240: 17,3477           31570                           CAE      1/ANET2                               #  SCALED AT 2(7)/PI SEC(2)/RAD.
000241: 17,3500           00006                           EXTEND
000242: 17,3501           71427                           MP       EDOT                                  #  SCALED AT PI/2(5)
000243: 17,3502           55742                           TS       TTOAXIS                               #  SCALED AT 4 SEC.
000244:
000245:                                                                                                  #  TEST WHETHER TJET GREATER THAN 50 MSEC.
000246:
000247: 17,3503           00006                           EXTEND
000248: 17,3504           73767                           MP       -.05AT2                               #  H - .05 TTOAXIS - .00125 G.T. ZERO
000249: 17,3505           61747                           AD       HH                                    #    (SCALED AT 8 SEC(2) ).
000250: 17,3506           67751                           AD       NEG2
000251: 17,3507           00006                           EXTEND
000252: 17,3510           63536                           BZMF     FORMULA1
000253:
000254:                                                                                                  #  TEST WHETHER TJET GREATER THAN 150 MSEC.
000255:
000256: 17,3511           31742                           CAE      TTOAXIS
000257: 17,3512           00006                           EXTEND
000258: 17,3513           73770                           MP       -.15AT2                               #  H - .15 TTOAXIS - .01125 G.T. ZERO
000259: 17,3514           61747                           AD       HH                                    #    (SCALED AT 8 SEC(2) )
000260: 17,3515           63761                           AD       -.0112A8
000261: 17,3516           00006                           EXTEND
000262: 17,3517           63546                           BZMF     FORMULA2
000263:
000264:                                                                                                  #  IF TJET GREATER THAN 150 MSEC, ASSIGN IT VALUE OF 250 MSEC, SINCE THIS
000265:                                                                                                  #  IS ENOUGH TO ASSURE NO SKIP NEXT CSP (100 MSEC).
000266:
000267: 17,3520           34741        FULLTIME           CAF      BIT11                                 #  250 MSEC SCALED AT 4 SEC.
000268:
000269:                                                                                                  #  RETURN TO CALLING PROGRAM WITH JET TIME SCALED AS TIME6 AND SIGNED.
000270:
000271: 17,3521           00006        RETURNTJ           EXTEND                                         #  ALL BRANCHES TERMINATE HERE WITH TJET
000272: 17,3522           71740                           MP       ROTSENSE                              #    (SCALED AT 4 SEC) IN THE ACCUMULATOR.
000273: 17,3523           51505                           INDEX    AXISCTR                               #  ROTSENSE APPLIES SIGN AND CHANGES SCALE.
000274: 17,3524           55525                           TS       TJETU
000275: 17,3525           00006                           EXTEND
000276: 17,3526           51505                           INDEX    AXISCTR
000277: 17,3527           71547                           MP       ACCSWU                                #  SET SWITCH FOR JET SELECT IF ROTATION IS
000278: 17,3530           30001                           CAE      L
000279: 17,3531           00006                           EXTEND                                         #    IN A SENSE FOR WHICH 1/ACCS HAS FORCED
000280: 17,3532           63535                           BZMF     +3                                    #    A MAX-JET CALCULATION.


000282: 17,3533           34751                           CAF      FOUR
000283: 17,3534           55743                           TS       NUMBERT
000284: 17,3535           01745                           TC       HOLDQ                                 #  RETURN VIA SAVED Q.
000285:
000286:                                                                                                  #  TJET = H/(.025 + TTOAXIS)     FOR TJET LESS THAN 50 MSEC.
000287:
000288: 17,3536           43766        FORMULA1           CS       -.025AT4                              #  .025 SEC SCALED AT 4.
000289: 17,3537           61742                           AD       TTOAXIS                               #  SCALED AT 4 SECONDS.
000290: 17,3540           53750                           DXCH     HH                                    #  STORE DENOMINATOR IN FIRST WORD OF H,
000291: 17,3541           00006                           EXTEND                                         #    WHICH NEED NOT BE PRESERVED.  PICK UP
000292: 17,3542           11747                           DV       HH                                    #    DP H AND DIVIDE BY DENOMINATOR.
000293: 17,3543           00006                           EXTEND
000294: 17,3544           74736                           MP       BIT14                                 #  RESCALE TJET FROM 2 TO USUAL 4 SEC.
000295: 17,3545           13656                           TCF      CHKMINTJ                              #  CHECK THAT TJET IS NOT LESS THAN MINIMUM
000296:
000297:                                                                                                  #  TJET = (H + .00375)/(0.1 + TTOAXIS)   FOR TJET GREATER THAN 50 MSEC.
000298:
000299: 17,3546           00006        FORMULA2           EXTEND
000300: 17,3547           33772                           DCA      .00375A8                              #  .00375 SEC(2) SCALED AT 8.
000301: 17,3550           21750                           DAS      HH                                    #  STORE NUMERATOR IN DP H, WHICH NEED NOT
000302:                                                                                                  #    BE PRESERVED.
000303: 17,3551           31742                           CAE      TTOAXIS                               #  SCALED AT 4 SEC.
000304: 17,3552           63762                           AD       .1AT4                                 #  0.1 SEC SCALED AT 4.
000305: 17,3553           53750                           DXCH     HH                                    #  STORE DENOMINATOR IN FIRST WORD OF H,
000306: 17,3554           00006                           EXTEND                                         #    WHICH NEED NOT BE PRESERVED.  PICK UP
000307: 17,3555           11747                           DV       HH                                    #    DP NUMERATOR AND DIVIDE BY DENOMINATOR
000308: 17,3556           00006                           EXTEND
000309: 17,3557           74736                           MP       BIT14                                 #  RESCALE TJET FROM 2 TO USUAL 4 SEC.
000310: 17,3560           13521                           TCF      RETURNTJ                              #  END SUBROUTINE.
000311:
000312:                                                                                                  #  SUBROUTINIZED COMPUTATIONS REQUIRED FOR ALL ENTRIES INTO CODING FOR ZONES 1, 2, AND 3.
000313:
000314:                                                                                                  #  REACHED BY TC FROM 3 POINTS IN TJETLAW.
000315:
000316: 17,3561           41740        Z123COMP           CS       ROTSENSE                              #  USED IN RETURNTJ SECTION TO RESCALE TJET
000317: 17,3562           55740                           TS       ROTSENSE                              #    AS TIME6 AND GIVE IT PROPER SIGN.
000318: 17,3563           31427                           CAE      EDOT                                  #  SCALED AT PI/2(5) RAD/SEC.
000319: 17,3564           00006                           EXTEND
000320: 17,3565           51744                           INDEX    ADRSDIF2
000321: 17,3566           71567                           MP       1/ANET1                               #  SCALED AT 2(7)/PI SEC(2)/RAD.
000322: 17,3567           55742                           TS       TTOAXIS                               #  STORE TIME-TO-AXIS SCALED AT 4 SECONDS.
000323: 17,3570           63773                           AD       -TJMAX
000324: 17,3571           00006                           EXTEND                                         #  IS TIME TO AXIS LESS THAN 150 MSEC.
000325: 17,3572           63574                           BZMF     +2
000326: 17,3573           13520                           TCF      FULLTIME                              #  NO.  FIRE JETS, DO NOT CALCULATE TJET.
000327: 17,3574           00002                           RETURN                                         #  YES.  GO ON TO FIND TJET
000328:
000329: 17,3575           03561        ZON1,2,3           TC       Z123COMP                              #  SUBROUTINIZED PREPARATION FOR ZONE1,2,3.
000330:
000331:                                                                                                  #  IF THE (NEG) DISTANCE BEYOND PARABOLA IS LESS THAN FLAT, USE SPECIAL


000333:                                                                                                  #  LOGIC TO ACQUIRE MINIMUM IMPULSE LIMIT CYCLE.  DURING POWERED FLIGHT
000334:                                                                                                  #  OR ULLAGE, FLAT = 0
000335:
000336: 17,3576           31741                           CAE      FIREFCT                               #  SCALED AT PI/4 RAD.
000337: 17,3577           61555                           AD       FLAT
000338: 17,3600           00006                           EXTEND
000339: 17,3601           63615                           BZMF     ZONE1                                 #  NOT IN SPECIAL ZONES.
000340:
000341:                                                                                                  #  FIRE FOR AXIS OR, IF CLOSE, FIRE MINIMUM IMPULSE.  IF ON AXIS, COAST.
000342:
000343: 17,3602           41556        ZONE2,3            CS       ZONE3LIM                              #  HEIGHT OF MIN-IMPULSE ZONE SET BY 1/ACCS
000344: 17,3603           61742                           AD       TTOAXIS                               #    35 MSEC IN DRIFTING FLIGHT
000345: 17,3604           00006                           EXTEND                                         #    ZERO WHEN TRYING TO ENTER GTS CONTROL.
000346: 17,3605           63610                           BZMF     ZONE3
000347: 17,3606           31742        ZONE2              CAE      TTOAXIS                               #  FIRE TO AXIS.
000348: 17,3607           13521                           TCF      RETURNTJ
000349: 17,3610           11427        ZONE3              CCS      EDOT                                  #  CHECK IF EDOT IS ZERO.
000350: 17,3611           34746                           CAF      BIT6                                  #  FIRE A ONE-JET MINIMUM IMPULSE.
000351: 17,3612           13521                           TCF      RETURNTJ                              #  TJET = +0.
000352: 17,3613           05675                           TC       CCSHOLE                               #  CANNOT BE BECAUSE NEG EDOT COMPLEMENTED.
000353: 17,3614           13521                           TCF      RETURNTJ                              #  TJET = +0.
000354:
000355: 17,3615           00006        ZONE1              EXTEND
000356: 17,3616           51746                           INDEX    ADRSDIF1
000357: 17,3617           61605                           SU       AXISDIST                              #  SCALED AT PI/4 RAD.
000358: 17,3620           00006                           EXTEND
000359: 17,3621           51744                           INDEX    ADRSDIF2
000360: 17,3622           71575                           MP       ACCFCTZ1                              #  SCALED AT 2(7)/PI SEC(2)/RAD.
000361: 17,3623           20001                           DDOUBL
000362: 17,3624           20001                           DDOUBL
000363: 17,3625           53750                           DXCH     HH                                    #  DOUBLE PRECISION H SCALED AT 8 SEC(2).
000364:
000365:                                                                                                  #  TEST WHETHER TOTAL TIME REQUIRED GREATER THAN 150 MSEC:
000366:                                                                                                  #                         2                                   2
000367:                                                                                                  #    IS .5(.150 - TTOAXIS)  - H  NEGATIVE (SCALED AT 8 SECONDS )
000368:
000369: 17,3626           31742                           CAE      TTOAXIS                               #  TTOAXIS SCALED AT 4 SECONDS.
000370: 17,3627           63773                           AD       -TJMAX                                #  -.150 SECOND SCALED AT 4.
000371: 17,3630           00006                           EXTEND
000372: 17,3631           70000                           SQUARE
000373: 17,3632           00006                           EXTEND
000374: 17,3633           61747                           SU       HH                                    #  HIGH WORD OF H SCALED AT 8 SEC(2).
000375: 17,3634           00006                           EXTEND
000376: 17,3635           63520                           BZMF     FULLTIME                              #  YES.  NEED NOT CALCULATE TJET.
000377:
000378:                                                                                                  #  TEST WHETHER TIME BEYOND AXIS GREATER THAN 50 MSEC TO DETERMINE WHICH APPROXIMATION TO USE.
000379:
000380: 17,3636           31747                           CAE      HH
000381: 17,3637           67751                           AD       NEG2
000382: 17,3640           00006                           EXTEND


000384: 17,3641           63651                           BZMF     FORMULA3
000385:
000386:
000387:                                                                                                  #  TJET = H/0.1 + TTOAXIS + .0375        FOR APPROXIMATION OVER MORE THAN 50 MSEC.
000388:
000389: 17,3642           33763                           CAF      .1AT2                                 #  STORE .1 SEC SCALED AT 2 FOR DIVISION.
000390: 17,3643           53750                           DXCH     HH                                    #  DP H SCALED AT 8 SEC(2) NEED NOT BE
000391: 17,3644           00006                           EXTEND                                         #    PRESERVED.
000392: 17,3645           11747                           DV       HH                                    #  QUOTIENT SCALED AT 4 SECONDS.
000393: 17,3646           61742                           AD       TTOAXIS                               #  SCALED AT 4 SEC.
000394: 17,3647           63764                           AD       .0375AT4                              #  .0375 SEC SCALED AT 4.
000395: 17,3650           13521                           TCF      RETURNTJ                              #  END COMPUTATION.
000396:
000397:                                                                                                  #  TJET = H/.O25 + TTOAXIS       FOR APPROXIMATION OVER LESS THAN 50 MSEC.
000398:
000399: 17,3651           43765        FORMULA3           CS       -.025AT2                              #  STORE +.025 SEC SCALED AT 2 FOR DIVISION
000400: 17,3652           53750                           DXCH     HH                                    #  PICK UP DP H AT 8, WHICH NEED NOT BE
000401: 17,3653           00006                           EXTEND                                         #    PRESERVED.
000402: 17,3654           11747                           DV       HH                                    #  QUOTIENT SCALED AT 4 SECONDS.
000403: 17,3655           61742                           AD       TTOAXIS                               #  SCALED AT 4 SEC.
000404:
000405:                                                                                                  #  IF COMPUTED JET TIME IS LESS THAN TJMIN, TJET IS SET TO ZERO.
000406:                                                                                                  #  MINIMUM IMPULSES REQUIRED IN ZONE 3 ARE NOT SUBJECT TO THIS CONSTRAINT, NATURALLY.
000407:
000408: 17,3656           63775        CHKMINTJ           AD       -TJMIN                                #  IS COMPUTED TIME LESS THAN THE MINIMUM.
000409: 17,3657           00006                           EXTEND
000410: 17,3660           63455                           BZMF     COASTTJ                               #  YES, SET TIME TO ZERO.
000411: 17,3661           63774                           AD       TJMIN                                 #  NO, RESTORE COMPUTED TIME.
000412: 17,3662           13521                           TCF      RETURNTJ                              #  END COMPUTATION.
000413:


000415:                                                                                                  #  *** ROUGHLAW ***
000416:
000417:                                                                                                  #    BEFORE ENTRY TO RUFLAW:
000418:                                                                                                  #      1. INDEXERS ADRSDIF1 AND ADRSDIF2 ARE SET ON BASIS OF AXIS, AND SIGN OF EDOT.
000419:                                                                                                  #      2. IF EDOT WAS NEGATIVE, E AND EDOT ARE ROTATED INTO UPPER HALF-PLANE AND ROTSENSE IS MADE NEGATIVE.
000420:                                                                                                  #      3. E IS SCALED AT PI RADIANS AND EDOT AT PI/4 RAD/SEC.
000421:                                                                                                  #           (EXCEPT THE RUFLAW3 ENTRY WHEN E IS AT PI/4)
000422:
000423:                                                                                                  #    RUFLAW1: ERROR MORE NEGATIVE THAN PI/16 RAD.  FIRE TO A RATE OF 6.5 DEG/SEC (IF JET TIME EXCEEDS 20 MSEC.).
000424:                                                                                                  #    RUFLAW2: ERROR MORE POSITIVE THAN PI/16 RAD.  FIRE TO AN OPPOSING RATE OF 6.5 DEG/SEC.
000425:                                                                                                  #    RUFLAW3: ERROR RATE GREATER THAN PI/32 RAD/SEC AND ERROR WITHIN BOUNDS.  COAST IF BELOW FIREFCT, FIRE IF ABOVE
000426:
000427: 17,3663           43776        RUFLAW1            CS       RUFRATE                               #  DECREMENT EDOT BY .1444 RAD/SEC AT PI/4
000428: 17,3664           27427                           ADS      EDOT                                  #    WHICH IS THE TARGET RATE
000429: 17,3665           00006                           EXTEND
000430: 17,3666           63707                           BZMF     SMALRATE                              #  BRANCH IF RATE LESS THAN TARGET.
000431: 17,3667           03745                           TC       RUFSETUP                              #  REVERSE ROTSENSE AND INDICATE MAX JETS.
000432: 17,3670           31427                           CAE      EDOT                                  #  PICK UP DESIRED RATE CHANGE.
000433:
000434: 17,3671           00006        RUFLAW12           EXTEND                                         #  COMPUTE TJET
000435: 17,3672           51744                           INDEX    ADRSDIF2                              #    = (DESIRED RATE CHANGE)/(2-JET ACCEL.)
000436: 17,3673           71571                           MP       1/ANET1    +2
000437: 17,3674           67744                           AD       -1/8                                  #  IF TJET, SCALED AT 32 SEC, EXCEEDS
000438: 17,3675           00006                           EXTEND                                         #    4 SECONDS, SET TJET TO TJMAX.
000439: 17,3676           63700                           BZMF     +2
000440: 17,3677           13520                           TCF      FULLTIME
000441: 17,3700           00006                           EXTEND
000442: 17,3701           13520                           BZF      FULLTIME
000443: 17,3702           64740                           AD       BIT12                                 #  RESTORE COMPUTED TJET TO ACCUMULATOR.
000444: 17,3703           20001                           DAS      A
000445: 17,3704           20001                           DAS      A
000446: 17,3705           20001                           DAS      A                                     #  RESCALED TJET AT 4 SECONDS.
000447: 17,3706           13656                           TCF      CHKMINTJ                              #  RETURN AS FROM FINELAW.
000448:
000449: 17,3707           03747        SMALRATE           TC       RUFSETUP   +2                         #  SET NUMBERT AND FIREFCT FOR MAXIMUM JETS
000450: 17,3710           11740                           CCS      ROTSENSE
000451: 17,3711           34753                           CAF      ONE                                   #  MODIFY INDEXER TO POINT TO 1/ANET
000452: 17,3712           13714                           TCF      +2                                    #    CORRESPONDING TO THE PROPER SENSE.
000453: 17,3713           37752                           CAF      NEGONE
000454: 17,3714           27744                           ADS      ADRSDIF2
000455:
000456: 17,3715           41427                           CS       EDOT                                  #  (.144 AT PI/4 - EDOT) = DESIRED RATE CHNG.
000457: 17,3716           13671                           TCF      RUFLAW12
000458:
000459: 17,3717           03745        RUFLAW2            TC       RUFSETUP                              #  REVERSE ROTSENSE AND INDICATE MAX JETS.
000460: 17,3720           33776                           CAF      RUFRATE
000461: 17,3721           61427                           AD       EDOT                                  #  (.144 AT PI/4 + EDOT) = DESIRED RATE CHNG.
000462: 17,3722           54000                           TS       A                                     #  IF OVERFLOW SKIP, FIRE FOR FULL TIME.
000463: 17,3723           13671                           TCF      RUFLAW12                              #    OTHERWISE, COMPUTE JET TIME.
000464: 17,3724           13520                           TCF      FULLTIME
000465:


000467: 17,3725           03745        RUFLAW3            TC       RUFSETUP                              #  EXECUTE COMMON RUFLAW SUBROUTINE.
000468: 17,3726           51746                           INDEX    ADRSDIF1
000469: 17,3727           41601                           CS       FIREDB                                #  CALCULATE DISTANCE FROM SWITCH CURVE
000470: 17,3730           61752                           AD       E                                     #       1/ANET1*EDOT*EDOT +E - FIREDB = 0
000471: 17,3731           00006                           EXTEND                                         #            SCALED AT 4 PI RADIANS
000472: 17,3732           74741                           MP       BIT11
000473: 17,3733           57427                           XCH      EDOT
000474: 17,3734           00006                           EXTEND
000475: 17,3735           70000                           SQUARE
000476: 17,3736           00006                           EXTEND
000477: 17,3737           51746                           INDEX    ADRSDIF1
000478: 17,3740           71571                           MP       1/ANET1    +2
000479: 17,3741           61427                           AD       EDOT
000480: 17,3742           00006                           EXTEND
000481: 17,3743           63455                           BZMF     COASTTJ                               #  COAST IF BELOW IT.
000482: 17,3744           13520                           TCF      FULLTIME                              #  FIRE FOR FULL PERIOD IF ABOVE IT.
000483:
000484:                                                                                                  #  SUBROUTINE USED IN ALL ENTRIES TO ROUGHLAW.
000485:
000486: 17,3745           41740        RUFSETUP           CS       ROTSENSE                              #  REVERSE ROTSENSE WHEN ENTER HERE.
000487: 17,3746           55740                           TS       ROTSENSE
000488: 17,3747           34751                 +2        CAF      FOUR                                  #  REQUIRE MAXIMUM (2) JETS IN U,V-AXES.
000489: 17,3750           55743                           TS       NUMBERT
000490: 17,3751           34735                           CAF      NEGMAX                                #  SUGGEST MAXIMUM (4) JETS IN P-AXIS.
000491: 17,3752           55741                           TS       FIREFCT
000492: 17,3753           00002                           TC       Q
000493:
000494:                                                                                                  #  CONSTANTS FOR TJETLAW
000495:
000496: 17,3754           77757                           DEC      -16        B-14                       #  AXISDIFF(INDEX) = NUMBER OF REGISTERS
000497: 17,3755           00000        AXISDIFF           DEC      +0         B-14                       #    BETWEEN STORED 1/ACCS PARAMETERS FOR
000498: 17,3756           00020                           DEC      16         B-14                       #    THE INDEXED AXIS AND THE U-AXIS.
000499: 17,3757           14400        SENSOR             OCT      14400                                 #  RATIO OF TJET SCALING WITHIN TJETLAW
000500:                                                                                                  #    (4 SEC) TO SCALING FOR T6 (10.24 SEC).
000501: 17,3760           75673        -3DEG              DEC      -.06667                               #  -3.0 DEGREES SCALED AT 45.
000502: 17,3761           77750        -.0112A8           DEC      -.00141                               #  -.01125 SEC(2) SCALED AT 8.
000503: 17,3762           00632        .1AT4              DEC      .025                                  #  0.1 SECOND SCALED AT 4.
000504: 17,3763           01463        .1AT2              DEC      .05                                   #  0.1 SEC SCALED AT 2.
000505: 17,3764           00232        .0375AT4           DEC      .00938                                #  .0375 SEC SCALED AT 4.
000506: 17,3765           77462        -.025AT2           DEC      -.0125                                #  -.025 SEC SCALED AT 2.
000507: 17,3766           77631        -.025AT4           DEC      -.00625
000508: 17,3767           77145        -.05AT2            DEC      -.025
000509: 17,3770           75462        -.15AT2            DEC      -.075
000510: 17,3771           00007 25605  .00375A8           2DEC     .00375     B-3
000511:
000512: 17,3773           76631        -TJMAX             DEC      -.0375                                #  LARGEST CALCULATED TIME.  .150 SEC AT 4.
000513: 17,3774           00122        TJMIN              DEC      .005                                  #  SMALLEST ALLOWABLE TIME.  .020 SEC AT 4.
000514: 17,3775           77655        -TJMIN             DEC      -.005
000515: 17,3776           04476        RUFRATE            DEC      .1444                                 #  CORRESPONDS TO TARGET RATE OF 6.5 DEG/S.

End of include-file TJET_LAW.agc.  Parent file is MAIN.agc


