
Source Code


000002:                                                                                                  ## Copyright:   Public domain.
000003:                                                                                                  ## Filename:    TRIM_GIMBAL_CONTROL_SYSTEM.agc
000004:                                                                                                  ## Purpose:     A section of Luminary revision 116.
000005:                                                                                                  ##              It is part of the source code for the Lunar Module's (LM)
000006:                                                                                                  ##              Apollo Guidance Computer (AGC) for Apollo 12.
000007:                                                                                                  ##              This file is intended to be a faithful transcription, except
000008:                                                                                                  ##              that the code format has been changed to conform to the
000009:                                                                                                  ##              requirements of the yaYUL assembler rather than the
000010:                                                                                                  ##              original YUL assembler.
000011:                                                                                                  ## Reference:   pp. 1462-1474
000012:                                                                                                  ## Assembler:   yaYUL
000013:                                                                                                  ## Contact:     Ron Burkey <info@sandroid.org>.
000014:                                                                                                  ## Website:     www.ibiblio.org/apollo/index.html
000015:                                                                                                  ## Mod history: 2017-01-22 MAS  Created from Luminary 99.
000016:                                                                                                  ##              2017-01-30 RRB  Updated for Luminary 116.
000017:                                                                                                  ##              2017-03-14 RSB  Proofed comment text via 3-way diff vs
000018:                                                                                                  ##                              Luminary 99 and 131.
000019:                                                                                                  ##              2021-05-30 ABS  GTSGO+DN -> GTSGO+ON
000020:


000022: 21,3070                                           BANK     21
000023: 21,3070  E6,1450                                  EBANK=   QDIFF
000024: 21,2000                                           SETLOC   DAPS4
000025: 21,2000                                           BANK
000026:
000027: 21,3070                                           COUNT*   $$/DAPGT
000028:
000029:                                                                                                  #  CONTROL REACHES THIS POINT UNDER EITHER OF THE FOLLOWING TWO CONDITIONS ONCE THE DESCENT ENGINE AND THE DIGITAL
000030:                                                                                                  #  AUTOPILOT ARE BOTH ON:
000031:                                                                                                  #           A) THE TRIM GIMBAL CONTROL LAW WAS ON DURING THE PREVIOUS Q,R-AXIS TIME5 INTERRUPT (OR THE DAPIDLER
000032:                                                                                                  #              INITIALIZATION WAS SET FOR TRIM GIMBAL CONTROL AND THIS IS THE FIRST PASS), OR
000033:                                                                                                  #           B) THE Q,R-AXES RCS AUTOPILOT DETERMINED THAT THE VEHICLE WAS ENTERING (OR HAD JUST ENTERED) A COAST
000034:                                                                                                  #              ZONE WITH A SMALL OFFSET ANGULAR ACCELERATION.
000035:
000036:                                                                                                  #  GTS IS THE ENTRY TO THE GIMBAL TRIM SYSTEM FOR CONTROLLING ATTITUDE ERRORS AND RATES AS WELL AS ACCELERATIONS.
000037:
000038: 21,3070           37752        GTS                CAF      NEGONE                                #  MAKE THE NEXT PASS THROUGH THE DAP BE
000039: 21,3071           55631                           TS       COTROLER                              #    THROUGH RCS CONTROL,
000040: 21,3072           34751                           CAF      FOUR                                  #    AND ENSURE THAT IT IS NOT A SKIP.
000041: 21,3073           55535                           TS       SKIPU
000042: 21,3074           55536                           TS       SKIPV
000043:
000044: 21,3075           34752                           CAF      TWO
000045: 21,3076           55633                           TS       INGTS                                 #  SET INDICATOR OF GTS CONTROL POSITIVE.
000046: 21,3077           55632                           TS       QGIMTIMR                              #  SET TIMERS TO 200 MSEC TO AVOID BOTH
000047: 21,3100           55634                           TS       RGIMTIMR                              #  RUNAWAY AND INTERFERENCE BY NULLING.
000048:
000049:                                                                                                  #  THE DRIVE SETTING ALGORITHM
000050:
000051:                                                                                                  #  DEL = SGN(OMEGA + ALPHA*ABS(ALPHA)/(2*K))
000052:                                                                                                  #                                              2               1/2                  2       3/2
000053:                                                                                                  #  NEGUSUM = ERROR*K + ALPHA*(DEL*OMEGA + ALPHA /(3*K)) + DEL*K   (DEL*OMEGA + ALPHA /(2*K))
000054:
000055:                                                                                                  #  DRIVE = -SGN(NEGUSUM)
000056:
000057: 21,3101           30021                           CA       SR                                    #  SAVE THE SR.  SHIFT IT LEFT TO CORRECT
000058: 21,3102           60000                           AD       A                                     #  FOR THE RIGHT SHIFT DUE TO EDITING.
000059: 21,3103           55505                           TS       SAVESR
000060:
000061: 21,3104           34752        GTSGO+ON           CAF      TWO                                   #  SET INDEXER FOR R-AXIS CALCULATIONS.
000062: 21,3105           13107                           TCF      GOQTRIMG   +1
000063:
000064: 21,3106           34755        GOQTRIMG           CAF      ZERO                                  #  SET INDEXER FOR Q-AXIS CALCULATIONS
000065: 21,3107           55750                           TS       QRCNTR
000066:
000067: 21,3110           51750                           INDEX    QRCNTR                                #  AOS SCALED AT PI/2
000068: 21,3111           31537                           CA       AOSQ
000069: 21,3112           00006                           EXTEND
000070: 21,3113           74752                           MP       BIT2                                  #  RESCALE AOS TO PI/4


000072: 21,3114           00006                           EXTEND
000073: 21,3115           13121                           BZF      GTSQAXIS   -3                         #  USE FULL SCALE FOR LARGER AOS ESTIMATES.
000074:
000075: 21,3116           50000                           INDEX    A
000076: 21,3117           44734                           CS       LIMITS                                #  LIMITS +1 CONTAINS NEGMAX.
000077: 21,3120           56001                           XCH      L                                     #  LIMITS -1 CONTAINS POSMAX.
000078:
000079: 21,3121           11750                           CCS      QRCNTR                                #  PICK UP RATE FOR THIS AXIS.  RATE CELLS
000080: 21,3122           50000                           INDEX    A                                     #  ARE ADJACENT, NOT SEPARATED.  AT PI/4
000081: 21,3123           31436                           CA       EDOTQ
000082: 21,3124           53744        GTSQAXIS           DXCH     WCENTRAL
000083:
000084: 21,3125           51750                           INDEX    QRCNTR                                #  COLLECT K FOR THIS AXIS
000085: 21,3126           31504                           CA       KQ
000086: 21,3127           55741                           TS       KCENTRAL
000087:
000088: 21,3130           00006                           EXTEND                                         #  CONTROL AUTHORITY ZERO.  AVOID DRIVING
000089: 21,3131           13567                           BZF      POSDRIVE   +1                         #  ENGINE BELL TO THE STOPS.
000090:
000091: 21,3132           51750                           INDEX    QRCNTR                                #  QDIFF, RDIFF ARE STORED IN D.P.
000092: 21,3133           31450                           CAE      QDIFF
000093:
000094: 21,3134           00006        ALGORTHM           EXTEND                                         #  Q(R)DIFF IS THETA (ERROR) SCALED AT PI.
000095: 21,3135           71741                           MP       KCENTRAL                              #  FORM K*ERROR AT PI(2)/2(8), IN D.P.
000096: 21,3136           23737                           LXCH     K2THETA
000097: 21,3137           00006                           EXTEND
000098: 21,3140           74747                           MP       BIT5                                  #  RESCALE TO 4*PI(2)
000099: 21,3141           53740                           DXCH     K2THETA
000100: 21,3142           00006                           EXTEND
000101: 21,3143           74747                           MP       BIT5                                  #  FIRST TERM OF NEGUSUM IN K2THETA.
000102: 21,3144           27740                           ADS      K2THETA    +1                         #  NO CARRY NEEDED    D.P. AT 4*PI(2)
000103:
000104: 21,3145           41744                           CS       ACENTRAL                              #  FORM ALPHA(2)/(2*K) AT 16*PI, IN D.P.,
000105: 21,3146           00006                           EXTEND                                         #  LIMITING QUOTIENT TO AVOID OVERFLOW.
000106: 21,3147           74736                           MP       BIT14                                 #  -ALPHA/2 IN A, SCALED AT PI/4
000107: 21,3150           00006                           EXTEND
000108: 21,3151           71744                           MP       ACENTRAL                              #  -ALPHA(2)/2 IN A,L, SCALED AT PI(2)/16
000109: 21,3152           61741                           AD       KCENTRAL
000110: 21,3153           00006                           EXTEND
000111: 21,3154           63171                           BZMF     HUGEQUOT                              #  K-ALPHA(2)/2 SHOULD BE PNZ FO DIVISION
000112:
000113: 21,3155           00006                           EXTEND
000114: 21,3156           40001                           DCS      A                                     #  ALPHA(2)/2 - K
000115: 21,3157           61741                           AD       KCENTRAL
000116: 21,3160           00006                           EXTEND
000117: 21,3161           11741                           DV       KCENTRAL                              #  HIGH ORDER OF QUOTIENT.
000118: 21,3162           57746                           XCH      A2CNTRAL
000119: 21,3163           30001                           CA       L                                     #  SHIFT UP THE REMAINDER.
000120: 21,3164           22007                           LXCH     7                                     #  ZERO LOW-ORDER DIVIDEND.
000121: 21,3165           00006                           EXTEND


000123: 21,3166           11741                           DV       KCENTRAL
000124: 21,3167           57747                           XCH      A2CNTRAL   +1                         #  QUOTIENT STORED AT 16*PI, D.P.
000125: 21,3170           13174                           TCF      HAVEQUOT
000126:
000127: 21,3171           34733        HUGEQUOT           CA       POSMAX
000128: 21,3172           54001                           TS       L
000129: 21,3173           53747                           DXCH     A2CNTRAL                              #  LIMITED QUOTIENT STORED AT 16*PI, D.P.
000130:
000131: 21,3174           31743        HAVEQUOT           CA       WCENTRAL
000132: 21,3175           00006                           EXTEND
000133: 21,3176           74743                           MP       BIT9                                  #  RESCALE OMEGA AT 16*PI IN D.P.
000134: 21,3177           53743                           DXCH     K2CNTRAL                              #  LOWER WORD OVERLAYS OMEGA IN WCENTRAL
000135:
000136: 21,3200           00006                           EXTEND
000137: 21,3201           31743                           DCA      K2CNTRAL
000138: 21,3202           53752                           DXCH     FUNCTION
000139:
000140: 21,3203           31744                           CA       ACENTRAL                              #  GET ALPHA*ABS(ALPHA)/(2*K)
000141: 21,3204           00006                           EXTEND
000142: 21,3205           63211                           BZMF     +4
000143:
000144: 21,3206           00006                           EXTEND
000145: 21,3207           31747                           DCA      A2CNTRAL
000146: 21,3210           13213                           TCF      +3
000147:
000148: 21,3211           00006                           EXTEND
000149: 21,3212           41747                           DCS      A2CNTRAL
000150:
000151: 21,3213           21752                           DAS      FUNCTION                              #  OMEGA + ALPHA*ABS(ALPHA)/2*K) AT 16*PI
000152:
000153: 21,3214           11751                           CCS      FUNCTION                              #  DEL = +1 FOR FUNCT1 GREATER THAN ZERO.
000154: 21,3215           13221                           TCF      POSFNCT1                              #  OTHERWISE DEL = -1
000155: 21,3216           13220                           TCF      +2
000156: 21,3217           13223                           TCF      NEGFNCT1
000157:
000158: 21,3220           11752                           CCS      FUNCTION   +1                         #  USE LOW ORDER WORD SINCE HIGH IS ZERO
000159: 21,3221           34753        POSFNCT1           CAF      BIT1
000160: 21,3222           13224                           TCF      +2
000161: 21,3223           44753        NEGFNCT1           CS       BIT1
000162: 21,3224           55745                           TS       DEL
000163:
000164: 21,3225           11745                           CCS      DEL                                   #  REPLACE OMEGA BY DEL*OMEGA
000165: 21,3226           13240                           TCF      FUNCT2                                #  POSITIVE DEL VALUE.  PROCEED.
000166: 21,3227           13231                           TCF      DEFUNCT
000167: 21,3230           13235                           TCF      NEGFNCT2
000168:
000169: 21,3231           55742        DEFUNCT            TS       K2CNTRAL
000170: 21,3232           55743                           TS       K2CNTRAL   +1
000171: 21,3233           13240                           TCF      FUNCT2
000172:


000174: 21,3234           65252        NEG1/3             DEC      -.33333
000175:
000176: 21,3235           00006        NEGFNCT2           EXTEND
000177: 21,3236           41743                           DCS      K2CNTRAL
000178: 21,3237           53743                           DXCH     K2CNTRAL
000179:
000180: 21,3240           00006        FUNCT2             EXTEND
000181: 21,3241           31747                           DCA      A2CNTRAL
000182: 21,3242           21743                           DAS      K2CNTRAL                              #  DEL*OMEGA + ALPHA(2)/(2*K) AT 16*PI, D.P.
000183:
000184: 21,3243           31746        FUNCT3             CA       A2CNTRAL
000185: 21,3244           00006                           EXTEND
000186: 21,3245           73234                           MP       NEG1/3
000187: 21,3246           53747                           DXCH     A2CNTRAL
000188: 21,3247           30001                           CA       L
000189: 21,3250           00006                           EXTEND
000190: 21,3251           73234                           MP       NEG1/3
000191: 21,3252           27747                           ADS      A2CNTRAL   +1
000192: 21,3253           54001                           TS       L
000193: 21,3254           13256                           TCF      +2                                    #  A2CNTRAL NOW CONTAINS -ALPHA(2)/(6*K),
000194: 21,3255           27746                           ADS      A2CNTRAL                              #  SCALED AT 16*PI, IN D.P.
000195:
000196: 21,3256           00006                           EXTEND
000197: 21,3257           31743                           DCA      K2CNTRAL                              #  DEL*OMEGA + ALPHA(2)/(3*K) IN A2CNTRAL,
000198: 21,3260           21747                           DAS      A2CNTRAL                              #  SCALED AT 16*PI, D.P.
000199:
000200: 21,3261           31746                           CA       A2CNTRAL
000201: 21,3262           00006                           EXTEND
000202: 21,3263           71744                           MP       ACENTRAL
000203: 21,3264           21740                           DAS      K2THETA
000204: 21,3265           31747                           CA       A2CNTRAL   +1
000205: 21,3266           00006                           EXTEND
000206: 21,3267           71744                           MP       ACENTRAL                              #  ACENTRAL MAY NOW BE OVERLAID.
000207: 21,3270           27740                           ADS      K2THETA    +1
000208: 21,3271           54001                           TS       L
000209: 21,3272           13274                           TCF      +2                                    #  TWO TERMS OF NEGUSUM ACCUMULATED, SO FAR
000210: 21,3273           27737                           ADS      K2THETA                               #  SCALED AT 4*PI(2), IN D.P.
000211:
000212: 21,3274           31742        GETROOT            CA       K2CNTRAL                              #  K*(DEL*OMEGA + ALPHA(2)/(2*K)) IS THE
000213: 21,3275           00006                           EXTEND                                         #  TERM FOR WHICH A SQUARE ROOT IS NEEDED.
000214: 21,3276           71741                           MP       KCENTRAL                              #  K AT PI/2(8)
000215: 21,3277           53752                           DXCH     FUNCTION
000216: 21,3300           31743                           CA       K2CNTRAL   +1
000217: 21,3301           00006                           EXTEND
000218: 21,3302           71741                           MP       KCENTRAL
000219: 21,3303           27752                           ADS      FUNCTION   +1
000220: 21,3304           54001                           TS       L
000221: 21,3305           13307                           TCF      +2
000222: 21,3306           27751                           ADS      FUNCTION                              #  DESIRED TERM IN FUNCTION, AT PI(2)/16


000224: 21,3307           11745                           CCS      DEL
000225: 21,3310           13515                           TCF      RSTOFGTS
000226: 21,3311           13557                           TCF      NEGUSUM
000227: 21,3312           13314                           TCF      NEGATE
000228: 21,3313           13557                           TCF      NEGUSUM
000229:
000230: 21,3314           00006        NEGATE             EXTEND
000231: 21,3315           41743                           DCS      K2CNTRAL
000232: 21,3316           53743                           DXCH     K2CNTRAL
000233: 21,3317           13515                           TCF      RSTOFGTS
000234:
000235: 16,3741                                           BANK     16
000236: 16,3741  E6,1501                                  EBANK=   NEGUQ
000237: 16,2000                                           SETLOC   DAPS1
000238: 16,2000                                           BANK
000239:
000240:                                                                                                  #  THE WRCHN12 SUBROUTINE SETS BITS 9,10,11,12 OF CHANNEL 12 ON THE BASIS OF THE CONTENTS OF NEGUQ,NEGUR WHICH ARE
000241:                                                                                                  #  THE NEGATIVES OF THE DESIRED ACCELERATION CHANGES.  ACDT+C12 SETS Q(R)ACCDOT TO REFLECT THE NEW DRIVES.
000242:
000243:                                                                                                  #  WARNING:  ACDT+C12 AND WRCHN12 MUST BE CALLED WITH INTERRUPT INHIBITED.
000244:
000245: 16,3741           07400        BGIM               OCTAL    07400
000246: 16,3742     0066               CHNL12             EQUALS   ITEMP6
000247: 16,3742           41501        ACDT+C12           CS       NEGUQ
000248: 16,3743           00006                           EXTEND                                         #  GIMBAL DRIVE REQUESTS.
000249: 16,3744           71507                           MP       ACCDOTQ
000250: 16,3745           23510                           LXCH     QACCDOT
000251: 16,3746           41503                           CS       NEGUR
000252: 16,3747           00006                           EXTEND
000253: 16,3750           71511                           MP       ACCDOTR
000254: 16,3751           23512                           LXCH     RACCDOT
000255:
000256: 16,3752           11501                           CCS      NEGUQ
000257: 16,3753           34742                           CAF      BIT10
000258: 16,3754           13756                           TCF      +2
000259: 16,3755           34743                           CAF      BIT9
000260: 16,3756           54066                           TS       CHNL12
000261:
000262: 16,3757           11503                           CCS      NEGUR
000263: 16,3760           34740                           CAF      BIT12
000264: 16,3761           13763                           TCF      +2
000265: 16,3762           34741                           CAF      BIT11
000266: 16,3763           26066                           ADS      CHNL12                                #  (STORED RESULT NOT USED AT PRESENT)
000267:
000268: 16,3764           43741                           CS       BGIM
000269: 16,3765           00006                           EXTEND
000270: 16,3766           02012                           RAND     CHAN12
000271: 16,3767           60066                           AD       CHNL12
000272: 16,3770           00006                           EXTEND
000273: 16,3771           01012                           WRITE    CHAN12


000275: 16,3772           44747                           CS       CALLGMBL                              #  TURN OFF REQUEST FOR ACDT+C12 EXECUTION.
000276: 16,3773           71262                           MASK     RCSFLAGS
000277: 16,3774           55262                           TS       RCSFLAGS
000278:
000279: 16,3775           00002                           TC       Q                                     #  RETURN TO CALLER.
000280:
000281: 21,3320                                           BANK     21
000282: 21,3320  E6,1450                                  EBANK=   QDIFF
000283: 21,2000                                           SETLOC   DAPS4
000284: 21,2000                                           BANK
000285:


000287:                                                                                                  #  SUBROUTINE TIMEGMBL:  MOD 0, OCTOBER 1967, CRAIG WORK
000288:
000289:                                                                                                  #  TIMEGMBL COMPUTES THE DRIVE TIME NEEDED FOR THE TRIM GIMBAL TO POSITION THE DESCENT ENGINE NOZZLE SO AS TO NULL
000290:                                                                                                  #  THE OFFSET ANGULAR ACCELERATION ABOUT THE Q (OR R) AXIS.  INSTEAD OF USING AOSQ(R), TIMEGMBL USES .4*AOSQ(R),
000291:                                                                                                  #  SCALED AT PI/8.                         FOR EACH AXIS, THE DRIVE TIME IS COMPUTED AS ABS(ALPHA/ACCDOT).  A ZERO
000292:                                                                                                  #  ALPHA OR ACCDOT OR A ZERO QUOTIENT TURNS OFF THE GIMBAL DRIVE IMMEDIATELY.  OTHERWISE, THE GIMBAL IS TURNED ON
000293:                                                                                                  #  DRIVING IN THE CORRECT DIRECTION.  THE Q(R)GIMTIMR IS SET TO TERMINATE THE DRIVE AND Q(R)ACCDOT
000294:                                                                                                  #  IS STORED TO REFLECT THE NEW ACCELERATION DERIVATIVE.  NEGUQ(R) WILL CONTAIN +1,+0,-1 FOR A Q(R)ACCDOT VALUE
000295:                                                                                                  #  WHICH IS NEGATIVE, ZERO, OR POSITIVE.
000296:
000297:                                                                                                  #  INPUTS:  AOSQ,AOSR, SCALED AT P1/2, AND ACCDOTQ, ACCDOTR AT PI/2(7).       PI/2(7).
000298:
000299:                                                                                                  #  OUTPUTS:   NEW GIMBAL DRIVE BITS IN CHANNEL 12, NEGUQ, NEGUR, QACCDOT AND RACCDOT, THE LAST SCALED AT PI/2(7).
000300:                                                                                                  #             Q(R)GIMTIMR WILL BE SET TO TIME AND TERMINATE GIMBAL DRIVE(S)
000301:
000302:                                                                                                  #  DEBRIS:   A, L, Q, ITEMPS 2, 3, 6, RUPTREG2 AND ACDT+C12 DEBRIS.
000303:
000304:                                                                                                  #  EXITS:   VIA TC Q.
000305:
000306:                                                                                                  #  ALARMS, ABORTS, :  NONE
000307:
000308:                                                                                                  #  SUBROUTINES:  ACDT+C12, IBNKCALL
000309:
000310:                                                                                                  #  WARNING:  THIS SUBROUTINE WRITES INTO CHANNEL 12 AND USES THE ITEMPS.  THEREFORE IT MAY ONLY BE CALLED WITH
000311:                                                                                                  #  INTERRUPT INHIBITED.
000312:
000313:                                                                                                  #  ERASABLE STORAGE CONFIGURATION (NEEDED BY THE INDEXING METHODS):
000314:                                                                                                  #        NEGUQ           ERASE   +2              NEGATIVE OF Q-AXIS GIMBAL DRIVE
000315:                                                                                                  #        (SPWORD)        EQUALS  NEGUQ +1        ANY S.P. ERASABLE NUMBER, NOW THRSTCMD
000316:                                                                                                  #        NEGUR           EQUALS  NEGUQ +2        NEGATIVE OF R-AXIS GIMBAL DRIVE
000317:                                                                                                  #        ACCDOTQ         ERASE   +2              Q-JERK TERM SCALED AT PI/2(7) RAD/SEC(3)
000318:                                                                                                  #        (SPWORD)        EQUALS  ACCDOTQ +1      ANY S.P. ERASABLE NUMBER NOW QACCDOT
000319:                                                                                                  #        ACCDOTR         EQUALS  ACCDOTQ +2      R-JERK TERM SCALED AT PI/2(7) RAD/SEC(3)
000320:                                                                                                  #                                                ACCDOTQ, ACCDOTR ARE MAGNITUDES.
000321:                                                                                                  #        AOSQ            ERASE   +4              Q-AXIS ACC., D.P. AT PI/2 R/SEC(2)
000322:                                                                                                  #        AOSR            EQUALS  AOSQ +2         R-AXIS ACCELERATION SCALED AT PI/2 R/S2
000323:
000324: 21,3320     0066               QRNDXER            EQUALS   ITEMP6
000325: 21,3320           23146        OCT23146           OCTAL    23146                                 #  DECIMAL .6
000326: 21,3321     0063               NZACCDOT           EQUALS   ITEMP3
000327:
000328: 21,3321           34753        TIMEGMBL           CAF      ONE                                   #  INITIALIZE ALLOWGTS.
000329: 21,3322           55502                           TS       ALLOWGTS
000330:
000331: 21,3323           34752                           CAF      TWO                                   #  SET UP LOOP FOR R AXIS.
000332: 21,3324           22002                           LXCH     Q                                     #  SAVE RETURN ADDRESS.
000333: 21,3325           22071                           LXCH     RUPTREG2


000335: 21,3326           13330                           TCF      +2
000336: 21,3327           34755        TIMQGMBL           CAF      ZERO                                  #  NOW DO THE Q-AXIS
000337: 21,3330           54066                           TS       QRNDXER
000338: 21,3331           50066                           INDEX    QRNDXER
000339: 21,3332           31507                           CA       ACCDOTQ                               #  ACCDOT IS PRESUMED TO BE AT PI/2(7).
000340: 21,3333           00006                           EXTEND
000341: 21,3334           63404                           BZMF     TGOFFNOW                              #  IS ACCDOT LESS THAN OR EQUAL TO 0?
000342: 21,3335           54063                           TS       NZACCDOT                              #  NO.  STORE NON-ZERO, POSITIVE ACCDOT.
000343:
000344: 21,3336           50066        ALPHATRY           INDEX    QRNDXER
000345: 21,3337           41537                           CS       AOSQ
000346: 21,3340           00006                           EXTEND
000347: 21,3341           13404                           BZF      TGOFFNOW                              #  IS ALPHA ZERO?
000348:
000349: 21,3342           54002                           TS       Q                                     #  SAVE A COPY OF -AOS.
000350: 21,3343           00006                           EXTEND                                         #  NO.  RESCALE FOR TIMEGMBL USE.
000351: 21,3344           73320                           MP       OCT23146                              #  OCTAL 23146 IS DECIMAL .6
000352: 21,3345           60002                           AD       Q                                     #  -1.6*AOS AT PI/2 = -.4*AOS AT PI/8.
000353: 21,3346           54001                           TS       L                                     #  WAS THERE OVERFLOW?
000354: 21,3347           13354                           TCF      SETNEGU                               #  NO.  COMPUTE DRIVE TIME.
000355:
000356: 21,3350           40000                           CS       A                                     #  RECOVER  -SGN(AOS) IN THE A REGISTER.
000357: 21,3351           50066                           INDEX    QRNDXER                               #  YES.  START DRIVE WITHOUT WAITLIST.
000358: 21,3352           57501                           XCH      NEGUQ
000359: 21,3353           13410                           TCF      NOTALLOW                              #  KNOCK DOWN THE ALLOWGTS FLAG.
000360:
000361: 21,3354           00006        SETNEGU            EXTEND
000362: 21,3355           63362                           BZMF     POSALPH
000363:
000364: 21,3356           40000                           COM
000365: 21,3357           54062                           TS       ITEMP2                                #  STORE  -ABS(.4*AOS) SCALED AT PI/8.
000366: 21,3360           44753                           CS       BIT1
000367: 21,3361           13364                           TCF      POSALPH    +2
000368: 21,3362           54062        POSALPH            TS       ITEMP2                                #  STORE  -ABS(.4*AOS) SCALED AT PI/8.
000369: 21,3363           34753                           CA       BIT1
000370: 21,3364           50066                 +2        INDEX    QRNDXER                               #  SGN(AOS) INTO NEGU
000371: 21,3365           55501                           TS       NEGUQ                                 #  STORE SGN(APLHA) AS NEGU
000372:
000373: 21,3366           30063                           CA       NZACCDOT
000374: 21,3367           00006                           EXTEND
000375: 21,3370           74740                           MP       BIT12                                 #  2*ACCDOT, SCALED AT PI/8.
000376: 21,3371           60062                           AD       ITEMP2                                #  -ABS(ALPHA) + 2*ACCDOT, AT PI/8.
000377: 21,3372           00006                           EXTEND
000378: 21,3373           63410                           BZMF     NOTALLOW                              #  IS DRIVE TIME MORE THAN TWO SECONDS?
000379: 21,3374           40062                           CS       ITEMP2                                #  NO.  COMPUTE DRIVE TIME.
000380: 21,3375           00006                           EXTEND                                         #  ABS(ALPHA) AT PI/8.
000381: 21,3376           73431                           MP       OCT00240                              #  DECIMAL 10/1024
000382: 21,3377           00006                           EXTEND                                         #  QUOTIENT IS DRIVE TIME AT WAITLIST.
000383: 21,3400           10063                           DV       NZACCDOT                              #  ABS(ALPHA)/ACCDOT AT 2(14)/100


000385: 21,3401           00006                           EXTEND
000386: 21,3402           13404                           BZF      TGOFFNOW                              #  DRIVE TIME MUST BE GREATER THAN ZERO.
000387:
000388: 21,3403           13416                           TCF      DRIVEON
000389:
000390: 21,3404           34755        TGOFFNOW           CAF      ZERO                                  #  TURN OFF GIMBAL NOW.
000391: 21,3405           50066                           INDEX    QRNDXER
000392: 21,3406           55501                           TS       NEGUQ
000393:
000394: 21,3407           13420                           TCF      DONEYET
000395:
000396: 21,3410           36010        NOTALLOW           CAF      OCT31
000397: 21,3411           50066                           INDEX    QRNDXER
000398: 21,3412           55632                           TS       QGIMTIMR
000399: 21,3413           34755                           CAF      ZERO                                  #  DRIVE TIME IS MORE THAN 2 SECONDS, SO
000400: 21,3414           55502                           TS       ALLOWGTS                              #  DO NOT PERMIT FURTHER GTS ATTITUDE-RATE
000401:                                                                                                  #  CONTROL UNTIL AOSTASK APPROVES.
000402: 21,3415           13420                           TCF      DONEYET                               #  NO WAITLIST CALL IS MADE.
000403:
000404: 21,3416           50066        DRIVEON            INDEX    QRNDXER
000405: 21,3417           55632                           TS       QGIMTIMR                              #  CHOOSE Q OR R AXIS.
000406:
000407: 21,3420           10066        DONEYET            CCS      QRNDXER
000408: 21,3421           13327                           TCF      TIMQGMBL
000409:
000410: 21,3422           52073                           DXCH     RUPTREG3                              #  PROTECT IBNKCALL ERASABLES.  ACDT+C12
000411: 21,3423           52063                           DXCH     ITEMP2                                #  LEAVES ITEMPS2,3 ALONE.
000412:
000413: 21,3424           04674                           TC       IBNKCALL                              #  TURN OF CHANNEL BITS, SET Q(R)ACCDOTS.
000414: 21,3425           35742                           CADR     ACDT+C12
000415:
000416: 21,3426           52063                           DXCH     ITEMP2                                #  RESTORE ERASABLES FOR IBNKCALL.
000417: 21,3427           52073                           DXCH     RUPTREG3
000418:
000419: 21,3430           00071                           TC       RUPTREG2                              #  RETURN TO CALLER.
000420:
000421: 21,3431           00240        OCT00240           OCTAL    00240                                 #  DECIMAL 10/1024
000422:


000424:                                                                                                  #  THE FOLLOWING SECTION IS A CONTINUATION OF THE TRIM GIMBAL CONTROL FROM THE LAST GTS ENTRY. THE QUANTITY NEGUSUM
000425:                                                                                                  #  IS COMPUTED FOR EACH AXIS (Q,R), .707*DEL*FUNCTION(3/2) + K2THETA = NEGUSUM.  NEW DRIVES ARE ENTERED TO CH 12.
000426:
000427:                                                                                                  #  THE SUBROUTINE GTSQRT ACCEPTS A DOUBLE PRECISION VALUE IN FUNCTION, FUNCTION +1 AND RETURNS A SINGLE-PRECISION
000428:                                                                                                  #  SQUARE ROOT OF THE FOURTEEN MOST SIGNIFICANT BITS OF THE ARGUMENT.  ALSO, THE CELL SHFTFLAG CONTAINS A BINARY
000429:                                                                                                  #  EXPONENT S, SUCH THAT THE SQUARE ROOT (RETURNED IN THE A REGISTER) MUST BE SHIFTED RIGHT (MULTIPLIED BY 2 TO THE
000430:                                                                                                  #  POWER (-S)) IN ORDER TO BE THE TRUE SQUARE ROOT OF THE FOURTEEN MOST SIGNIFICANT BITS OF FUNCTION, FUNCTION +1.
000431:                                                                                                  #  SQUARE ROOT ERROR IS NOT MORE THAN 2 IN THE 14TH SIGNIFICANT BIT.  CELLS CLOBBERED ARE A, L, SHFTFLAG, ININDEX,
000432:                                                                                                  #  HALFARG, SCRATCH, SR, FUNCTION, FUNCTION +1.  GTSQRT IS CALLED BY TC GTSQRT AND RETURNS VIA TC Q OR TC FUNCTION +1.
000433:                                                                                                  #  ZERO OR NEGATIVE ARGUMENTS YIELD ZERO FOR SQUARE ROOTS.
000434:
000435: 21,3432           11751        GTSQRT             CCS      FUNCTION
000436: 21,3433           13451                           TCF      GOODARG                               #  FUNCTION IS POSITIVE.  TAKE SQUARE ROOT.
000437: 21,3434           13436                           TCF      +2                                    #  HIGH ORDER WORD IS ZERO.  TRY THE LOWER.
000438: 21,3435           13442                           TCF      ZEROOT                                #  NEGATIVE.  USE ZERO FOR 1/2 POWER.
000439:
000440: 21,3436           31752                           CA       FUNCTION   +1
000441: 21,3437           00006                           EXTEND
000442: 21,3440           63442                           BZMF     ZEROOT
000443:
000444: 21,3441           13445                           TCF      ZEROHIGH                              #  PROCEED.
000445: 21,3442           34755        ZEROOT             CA       ZERO
000446: 21,3443           55741                           TS       SHFTFLAG
000447: 21,3444           00002                           TC       Q
000448:
000449: 21,3445           57751        ZEROHIGH           XCH      FUNCTION                              #  14 MOST SIGNIFICANT BITS ARE IN THE
000450: 21,3446           57752                           XCH      FUNCTION   +1                         #  LOWER WORD.  EXCHANGE THEM.
000451: 21,3447           34757                           CA       SEVEN
000452: 21,3450           13452                           TCF      GOODARG    +1
000453:
000454: 21,3451           34755        GOODARG            CA       ZERO
000455: 21,3452           55741                           TS       SHFTFLAG
000456: 21,3453           35741                           CA       TWELVE                                #  INITIALIZE THE SCALING LOOP.
000457: 21,3454           55744                           TS       ININDEX
000458: 21,3455           13464                           TCF      SCALLOOP
000459:
000460: 21,3456           31751        SCALSTRT           CA       FUNCTION
000461: 21,3457           13500                           TCF      SCALDONE
000462:
000463: 21,3460           37751        MULBUSH            CA       NEG2                                  #  IF ARG IS NOT LESS THAN 1/4, INDEX IS
000464: 21,3461           27744                           ADS      ININDEX                               #  ZERO, INDICATING NO SHIFT NEEDED.
000465: 21,3462           00006                           EXTEND                                         #  BRANCH IF ARG IS NOT LESS THAN 1/4.
000466: 21,3463           63456                           BZMF     SCALSTRT                              #  OTHERWISE COMPARE ARG WITH A REFERENCE
000467:                                                                                                  #  WHICH IS 4 TIMES LARGER THAN THE LAST.
000468: 21,3464           41751        SCALLOOP           CS       FUNCTION
000469: 21,3465           51744                           INDEX    ININDEX
000470: 21,3466           64735                           AD       BIT15                                 #  REFERENCE MAGNITUDE LESS OR EQUAL TO 1/4
000471: 21,3467           00006                           EXTEND
000472: 21,3470           63460                           BZMF     MULBUSH                               #  IF ARG IS NOT LESS THAN REFERENCE, GO
000473:                                                                                                  #  AROUND THE MULBERRY BUSH ONCE MORE.


000475: 21,3471           51744                           INDEX    ININDEX
000476: 21,3472           34735                           CA       BIT15                                 #  THIS IS THE SCALE MAGNITUDE
000477: 21,3473           57747                           XCH      HALFARG                               #  2**(-ININDEX) IS THE SHIFT DIVISOR.
000478: 21,3474           00006                           EXTEND                                         #  RESCALE ARGUMENT.
000479: 21,3475           31752                           DCA      FUNCTION
000480: 21,3476           00006                           EXTEND
000481: 21,3477           11747                           DV       HALFARG
000482:                                                                                                  #  ININDEX AND SHFTFLAG PRESERVE INFO FOR
000483:
000484:                                                                                                  #  RESCALING AFTER ROOT PROCESS.
000485: 21,3500           00006        SCALDONE           EXTEND
000486: 21,3501           23752                           QXCH     FUNCTION   +1                         #  SAVE Q FOR RETURN
000487: 21,3502           00006                           EXTEND
000488: 21,3503           74736                           MP       BIT14
000489: 21,3504           55747                           TS       HALFARG
000490: 21,3505           74737                           MASK     BIT13
000491: 21,3506           10000                           CCS      A
000492: 21,3507           33625                           CA       OCT11276
000493: 21,3510           63623                           AD       ROOTHALF                              #  INITIAL GUESS IS ROOT 1/2 OR POSMAX
000494: 21,3511           03627                           TC       ROOTCYCL
000495: 21,3512           03627                           TC       ROOTCYCL
000496: 21,3513           03627                           TC       ROOTCYCL
000497: 21,3514           01752                           TC       FUNCTION   +1
000498:
000499:                                                                                                  #  ****************************************************************************************************************
000500:
000501: 21,3515           03432        RSTOFGTS           TC       GTSQRT
000502: 21,3516           57742        PRODUCT            XCH      K2CNTRAL
000503: 21,3517           00006                           EXTEND
000504: 21,3520           71742                           MP       K2CNTRAL
000505: 21,3521           53743                           DXCH     K2CNTRAL
000506: 21,3522           00006                           EXTEND                                         #               THE PRODUCT OF
000507: 21,3523           70001                           MP       L                                     #   1/2                   2       1/2
000508: 21,3524           27743                           ADS      K2CNTRAL   +1                         #  K   *(DEL*OMEGA + ALPHA /(2*K))
000509: 21,3525           54001                           TS       L                                     #                      AND
000510: 21,3526           13530                           TCF      +2                                    #                         2
000511: 21,3527           27742                           ADS      K2CNTRAL                              #   DEL*(DEL*OMEGA + ALPHA /(2*K)) NOW IN
000512:                                                                                                  #  K2CNTRAL
000513:
000514: 21,3530           31744        DOSHIFT            CA       ININDEX
000515: 21,3531           00006                           EXTEND                                         #  MULTIPLY IN THE FACTOR 2(-S), RETURNED
000516: 21,3532           74736                           MP       BIT14                                 #  BY THE GTSQRT SUBROUTINE
000517: 21,3533           27741                           ADS      SHFTFLAG
000518: 21,3534           00006                           EXTEND
000519: 21,3535           13554                           BZF      ADDITIN
000520: 21,3536           51741                           INDEX    SHFTFLAG
000521: 21,3537           34735                           CA       BIT15


000523: 21,3540           57742                           XCH      K2CNTRAL
000524: 21,3541           00006                           EXTEND
000525: 21,3542           71742                           MP       K2CNTRAL
000526: 21,3543           21740                           DAS      K2THETA
000527: 21,3544           57742                           XCH      K2CNTRAL
000528: 21,3545           00006                           EXTEND
000529: 21,3546           71743                           MP       K2CNTRAL   +1
000530: 21,3547           27740                           ADS      K2THETA    +1
000531: 21,3550           54001                           TS       L
000532: 21,3551           13553                           TCF      +2
000533: 21,3552           27737                           ADS      K2THETA
000534:
000535: 21,3553           13557                           TCF      NEGUSUM
000536:
000537: 21,3554           00006        ADDITIN            EXTEND
000538: 21,3555           31743                           DCA      K2CNTRAL
000539: 21,3556           21740                           DAS      K2THETA                               #  NOW ADD IN THE K2THETA TERM.
000540: 21,3557           11737        NEGUSUM            CCS      K2THETA                               #  TEST SIGN OF HIGH ORDER PART.
000541: 21,3560           13564                           TCF      NEGDRIVE
000542: 21,3561           13563                           TCF      +2
000543: 21,3562           13566                           TCF      POSDRIVE
000544:
000545: 21,3563           11740                           CCS      K2THETA    +1                         #  SIGN TEST FOR LOW ORDER PART.
000546: 21,3564           34753        NEGDRIVE           CA       BIT1
000547: 21,3565           13567                           TCF      +2                                    #  STOP GIMBAL DRIVE FOR A ZERO NEGUSUM.
000548: 21,3566           44753        POSDRIVE           CS       BIT1
000549: 21,3567           54001                           TS       L                                     #  SAVE FOR DRIVE REVERSAL TEST.
000550: 21,3570           51750                           INDEX    QRCNTR
000551: 21,3571           57501                           XCH      NEGUQ
000552:
000553: 21,3572           00006                           EXTEND
000554: 21,3573           70001                           MP       L                                     #  MULTIPLY OLD NEGU AND NEW NEGU.
000555: 21,3574           10001                           CCS      L
000556: 21,3575           13612                           TCF      LOUPE                                 #  NON-ZERO GIMBAL DRIVE BEING CONTINUED.
000557:
000558: 21,3576           13607                           TCF      ZEROLOUP                              #  NO REVERSAL PROBLEM HERE.
000559:
000560: 21,3577           13601                           TCF      REVERSAL                              #  NON-ZERO GIMBAL DRIVE BEING REVERSED.
000561: 21,3600           13607                           TCF      ZEROLOUP                              #  NO REVERSAL PROBLEM HERE.
000562:
000563: 21,3601           51750        REVERSAL           INDEX    QRCNTR                                #  A ZERO-DRIVE PAUSE IS NEEDED HERE.  ZERO
000564: 21,3602           55510                           TS       QACCDOT                               #  IS IN A REGISTER FROM CCS ON (-1).
000565: 21,3603           51750                           INDEX    QRCNTR
000566: 21,3604           43624                           CS       GMBLBITA
000567: 21,3605           00006                           EXTEND
000568: 21,3606           03012                           WAND     CHAN12
000569:
000570: 21,3607           41262        ZEROLOUP           CS       RCSFLAGS                              #  SET UP REQUEST FOR ACDT+C12 CALL.
000571: 21,3610           74747                           MASK     CALLGMBL
000572: 21,3611           27262                           ADS      RCSFLAGS


000574: 21,3612           11750        LOUPE              CCS      QRCNTR                                #  HAVE BOTH AXES BEEN PROCESSED?
000575: 21,3613           13106                           TCF      GOQTRIMG                              #  NO.  DO Q AXIS NEXT.
000576:
000577: 21,3614           31505                           CA       SAVESR                                #  RESTORE THE SR
000578: 21,3615           54021                           TS       SR
000579:
000580: 21,3616           00006        GOCLOSE            EXTEND                                         #  TERMINATE THE JASK.
000581: 21,3617           33622                           DCA      CLOSEADR
000582: 21,3620           52006                           DTCB
000583:
000584: 21,3621  E6,1537                                  EBANK=   AOSQ
000585: 21,3621           03270 36106  CLOSEADR           2CADR    CLOSEOUT                              #  TERMINATE THE JASK.
000586:
000587: 21,3623     5741               TWELVE             EQUALS   OCT14
000588: 21,3623           26501        ROOTHALF           OCTAL    26501                                 #  SQUARE ROOT OF 1/2
000589: 21,3624           01400        GMBLBITA           OCTAL    01400                                 #  INDEXED WRT GMBLBITB  DO NOT MOVE ******
000590: 21,3625           11276        OCT11276           OCTAL    11276                                 #  POSMAX - ROOTHALF
000591: 21,3626           06000        GMBLBITB           OCTAL    06000                                 #  INDEXED WRT GMBLBITA  DO NOT MOVE ******
000592:
000593:                                                                                                  #  SUBROUTINE ROOTCYCL:  BY CRAIG WORK, 3 APRIL 68
000594:                                                                                                  #  ROOTCYCL IS A SUBROUTINE WHICH EXECUTES ONE NEWTON SQUARE ROOT ALGORITHM ITERATION.  THE INITIAL GUESS AT THE
000595:                                                                                                  #  SQUARE ROOT IS PRESUMED TO BE IN THE A REGISTER AND ONE-HALF THE SQUARE IS TAKEN FROM HALFARG.  THE NEW APPROXI-
000596:                                                                                                  #  MATION TO THE SQUARE ROOT IS RETURNED IN THE A REGISTER.  DEBRIS:  A, L, SR, SCRATCH.  ROOTCYCL IS CALLED FROM
000597:                                                                                                  #  LOCATION (LOC) BY A TC ROOTCYCL, AND RETURNS (TC Q) TO LOC +1.
000598:
000599:                                                                                                  #  WARNING:  IF THE INITIAL GUESS IS NOT GREATER THAN THE SQUARE, DIVIDE OR ADD OVERFLOW IS A REAL POSSIBILITY.
000600:
000601: 21,3627           55746        ROOTCYCL           TS       SCRATCH                               #  STORE X
000602: 21,3630           54021                           TS       SR                                    #  X/2 NOW IN SR
000603: 21,3631           31747                           CA       HALFARG                               #  ARG/2 IN THE A REG
000604: 21,3632           22007                           ZL                                             #  PREPARE FOR DIVISION
000605: 21,3633           00006                           EXTEND
000606: 21,3634           11746                           DV       SCRATCH                               #  (ARG/X)/2
000607: 21,3635           60021                           AD       SR                                    #  (X + ARG/X)/2 IN THE A REG
000608: 21,3636           00002                           TC       Q
000609:
000610:

End of include-file TRIM_GIMBAL_CONTROL_SYSTEM.agc.  Parent file is MAIN.agc


