
Source Code


000002:                                                                                                  ## Copyright:   Public domain.
000003:                                                                                                  ## Filename:    UPDATE_PROGRAM.agc
000004:                                                                                                  ## Purpose:     A section of Luminary revision 116.
000005:                                                                                                  ##              It is part of the source code for the Lunar Module's (LM)
000006:                                                                                                  ##              Apollo Guidance Computer (AGC) for Apollo 12.
000007:                                                                                                  ##              This file is intended to be a faithful transcription, except
000008:                                                                                                  ##              that the code format has been changed to conform to the
000009:                                                                                                  ##              requirements of the yaYUL assembler rather than the
000010:                                                                                                  ##              original YUL assembler.
000011:                                                                                                  ## Reference:   pp. 1376-1386
000012:                                                                                                  ## Assembler:   yaYUL
000013:                                                                                                  ## Contact:     Ron Burkey <info@sandroid.org>.
000014:                                                                                                  ## Website:     www.ibiblio.org/apollo/index.html
000015:                                                                                                  ## Mod history: 2017-01-22 MAS  Created from Luminary 99.
000016:                                                                                                  ##              2017-01-28 RSB  Comment-text fixes identified for Luminary 69.
000017:                                                                                                  ##              2017-02-09 RSB  Comment-text fixes identified for Artemis 72.
000018:                                                                                                  ##              2017-02-10 RRB  Updated for Luminary 116.
000019:                                                                                                  ##              2017-03-14 RSB  Proofed comment text via 3-way diff vs
000020:                                                                                                  ##                              Luminary 99 and 131.
000021:                                                                                                  ##              2017-03-16 RSB  Comment-text fixes identified in 5-way
000022:                                                                                                  ##                              side-by-side diff of Luminary 69/99/116/131/210.
000023:                                                                                                  ##              2017-03-19 HG   Remove statement CAE MODREG
000024:                                                                                                  ##              2017-06-17 MAS  Globally removed all SBANK= workarounds.
000025:


000027:                                                                                                  #  PROGRAM NAME:         P27
000028:                                                                                                  #  WRITTEN BY:           KILROY/ DE WOLF
000029:
000030:                                                                                                  #  MOD NO:               6
000031:                                                                                                  #  MOD BY:               KILROY
000032:                                                                                                  #  DATE:                 01DEC67
000033:
000034:                                                                                                  #  LOG SECTION:          UPDATE PROGRAM.
000035:
000036:                                                                                                  #  FUNCT. DESCR:         P27 (THE UPDATE PROGRAM) PROCESSES COMMANDS AND DATA
000037:                                                                                                  #                            INSERTIONS REQUESTED BY THE GROUND VIA UPLINK.
000038:                                                                                                  #                            THE P27 PROGRAM WILL ACCEPT UPDATES
000039:                                                                                                  #                            ONLY DURING P00 FOR THE LM, AND ONLY DURING P00,
000040:                                                                                                  #                        P02, AND FRESH START FOR THE CSM
000041:
000042:                                                                                                  #  CALLING SEQ:          PROGRAM IS INITIATED BY UPLINK ENTRY OF VERBS 70, 71, 72 AND 73.
000043:
000044:                                                                                                  #  SUBROUTINES:          TESTXACT, NEWMODEX, NEWMODEX +3, GOXDSPF, BANKCALL, FINDVAC, INTPRET, INTSTALL, TPAGREE,
000045:                                                                                                  #                        INTWAKEU, ENDEXT, POSTJUMP, FALTON, NEWPHASE, PHASCHNG
000046:
000047:                                                                                                  #  NORMAL EXIT:          TC ENDEXT
000048:
000049:                                                                                                  #  ALARM/ABORT:          TC FALTON FOLLOWED BY TC ENDEXT
000050:
000051:                                                                                                  #  RESTARTS:             P27 IS RESTART PROTECTED IN TWO WAYS ...
000052:                                                                                                  #                        1. PRIOR TO VERIFLAG INVERSION (WHICH IS CAUSED BY THE GROUND/ASTRONAUT'S VERIFICATION OF UPDATE
000053:                                                                                                  #                           DATA BY SENDING A V33E WHEN V21N02 IS FLASHING)---
000054:                                                                                                  #                           NO PROTECTION EXCEPT PRE-P27 MODE IS RESTORED, COAST + ALIGN DOWNLIST IS SELECTED AND UPLINK
000055:                                                                                                  #                           ACTIVITY LIGHT IS TURNED OFF.(JUST AS IF A V34E WAS SENT DURING P27 DATA LOADS).
000056:                                                                                                  #                           V70,V71,V72 OR V73 WILL HAVE TO BE COMPLETELY RESENT BY USER.
000057:                                                                                                  #                        2. AFTER VERIFLAG INVERSION (WHEN UPDATE OF THE SPECIFIED ERASABLES IS BEING PERFORMED)---
000058:                                                                                                  #                           PROTECTED AGAINST RESTARTS.
000059:
000060:                                                                                                  #  DEBRIS:               UPBUFF  (20D)   TEMP STORAGE FOR ADDRESSES AND CONTENTS.
000061:                                                                                                  #                        UPVERB  (1)     VERB NUMBER MINUS 70D (E.G. FOR V72, UPVERB = 72D - 70D = 2)
000062:                                                                                                  #                        UPOLDMOD(1)     FOR MAJOR MODE INTERRUPTED BY P27.
000063:                                                                                                  #                        COMPNUMB(1)     TOTAL NUMBER OF COMPONENTS TO BE TRANSMITTED.
000064:                                                                                                  #                        UPCOUNT (1)     ACTUAL NUMBER OF COMPONENTS RECEIVED.
000065:                                                                                                  #                        UPTEMP  (1)     SCRATCH, BUT USUALLY CONTAINS COMPONENT NUMBER TO BE CHANGED DURING VERIFY CYCLE
000066:
000067:                                                                                                  #  INPUT:
000068:
000069:                                                                                                  #        ENTRY:                  DESCRIPTION
000070:                                                                                                  #        V70EXXXXXEXXXXXE        (LIFTOFF TIME INCREMENT) DOUBLE PRECISION OCTAL TIME INCREMENT, XXXXX XXXXX,
000071:                                                                                                  #                                IS ADDED TO TEPHEM, SUBTRACTED FROM AGC CLOCK(TIME2,TIME1), SUBTRACTED FROM CSM STATE
000072:                                                                                                  #                                VECTOR TIME(TETCSM) AND SUBTRACTED FROM LEM STATE VECTOR TIME(TETLEM).
000073:                                                                                                  #                                THE DP OCTAL TIME INCREMENT IS SCALED AT 2(28).


000075:                                                                                                  #        V71EIIEAAAAE            (CONTIGUOUS BLOCK UPDATE) II-2 OCTAL COMPONENTS, XXXXX,
000076:                                                                                                  #        XXXXXE                  ARE LOADED INTO ERASABLE STARTING AT ECADR, AAAA.
000077:                                                                                                  #        XXXXXE                  IT IS .GE. 3 .AND. .LE. 20D.,
000078:                                                                                                  #                                AND (AAAA + II -3) DOES NOT PRODUCE AN ADDRESS IN THE
000079:                                                                                                  #        9 NEXT BANK
000080:                                                                                                  #          .                     SCALING IS SAME AS INTERNAL REGISTERS.
000081:
000082:                                                                                                  #        V72EIIE                 (SCATTER UPDATE) (II-1)/2 OCTAL COMPONENTS, XXXXX, ARE
000083:                                                                                                  #        AAAAEXXXXXE             LOADED INTO ERASABLE LOCATIONS, AAAA.
000084:                                                                                                  #        AAAAEXXXXXE             II IS .GE. 3 .AND. .LE. 19D, AND MUST BE ODD.
000085:                                                                                                  #          .                     SCALING IS SAME AS INTERNAL REGISTERS.
000086:
000087:                                                                                                  #        V73EXXXXXEXXXXXE        (OCTAL CLOCK INCREMENT) DOUBLE PRECISION OCTAL TIME
000088:                                                                                                  #                                INCREMENT XXXXX XXXXX, IS ADDED TO THE AGC CLOCK, IN
000089:                                                                                                  #                                CENTISECONDS SCALED AT (2)28.
000090:                                                                                                  #                                THIS LOAD IS THE OCTAL EQUIVALENT OF V55.
000091:
000092:                                                                                                  #  OUTPUT:               IN ADDITION TO THE ABOVE REGISTER LOADS, ALL UPDATES
000093:                                                                                                  #                        COMPLEMENT BIT3 OF FLAGWORD7.
000094:
000095:                                                                                                  #  ADDITIONAL NOTES:     VERB 71, JUST DEFINED ABOVE WILL BE USED TO PERFORM BUT NOT LIMITED TO THE FOLLOWING UPDATES --
000096:                                                                                                  #                        1.  CSM/LM STATE VECTOR UPDATE
000097:                                                                                                  #                        2.  REFSMMAT UPDATE
000098:
000099:                                                                                                  #        THE FOLLOWING COMMENTS DELINEATE EACH SPECIAL UPDATE ----
000100:
000101:                                                                                                  #        1.  CSM/LM STATE VECTOR UPDATE (ALL DATA ENTRIES IN OCTAL)
000102:                                                                                                  #                ENTRIES:        DATA DEFINITION:                                SCALE FACTORS:
000103:                                                                                                  #                V71E            CONTIGUOUS BLOCK UPDATE VERB
000104:                                                                                                  #                   21E          NUMBER OF COMPONENTS FOR STATE VECTOR UPDATE
000105:                                                                                                  #                 AAAAE          ECADR OF 'UPSVFLAG'
000106:                                                                                                  #                XXXXXE          STATE VECTOR IDENTIFIER: 00001 FOR CSM, 77776 FOR LEM - EARTH SPHERE OF INFLUENCE SCALING
000107:                                                                                                  #                                                         00002 FOR CSM, 77775 FOR LEM - LUNAR SPHERE OF INFLUENCE SCALING
000108:                                                                                                  #                XXXXXEXXXXXE    X POSITION
000109:                                                                                                  #                XXXXXEXXXXXE    Y POSITION
000110:                                                                                                  #                XXXXXEXXXXXE    Z POSITION
000111:                                                                                                  #                XXXXXEXXXXXE    X VELOCITY
000112:                                                                                                  #                XXXXXEXXXXXE    Y VELOCITY
000113:                                                                                                  #                XXXXXEXXXXXE    Z VELOCITY
000114:                                                                                                  #                XXXXXEXXXXXE    TIME FROM AGC CLOCK ZERO
000115:                                                                                                  #                V33E            VERB 33 TO SIGNAL THAT THE STATE VECTOR IS READY TO BE STORED.
000116:
000117:                                                                                                  #        2.  REFSMMAT (ALL DATA ENTRIES IN OCTAL)
000118:                                                                                                  #                ENTRIES:        DATA DEFINITIONS:                               SCALE FACTORS:


000120:                                                                                                  #                V71E            CONTIGUOUS BLOCK UPDATE VERB
000121:                                                                                                  #                   24E          NUMBER OF COMPONENTS FOR REFSMMAT UPDATE
000122:                                                                                                  #                 AAAAE          ECADR OF 'REFSMMAT'
000123:                                                                                                  #                XXXXXEXXXXXE    ROW 1 COLUMN 1                                  2(-1)
000124:                                                                                                  #                XXXXXEXXXXXE    ROW 1 COLUMN 2                                  2(-1)
000125:                                                                                                  #                XXXXXEXXXXXE    ROW 1 COLUMN 3                                  2(-1)
000126:                                                                                                  #                XXXXXEXXXXXE    ROW 2 COLUMN 1                                  2(-1)
000127:                                                                                                  #                XXXXXEXXXXXE    ROW 2 COLUMN 2                                  2(-1)
000128:                                                                                                  #                XXXXXEXXXXXE    ROW 2 COLUMN 3                                  2(-1)
000129:                                                                                                  #                XXXXXEXXXXXE    ROW 3 COLUMN 1                                  2(-1)
000130:                                                                                                  #                XXXXXEXXXXXE    ROW 3 COLUMN 2                                  2(-1)
000131:                                                                                                  #                XXXXXEXXXXXE    ROW 3 COLUMN 3                                  2(-1)
000132:                                                                                                  #                V33E            VERB 33 TO SIGNAL THAT REFSMMAT IS READY TO BE STORED.
000133:
000134:
000135:
000136: 07,3764                                           BANK     07
000137: 43,2000                                           SETLOC   EXTVERBS
000138: 43,2000                                           BANK
000139:
000140: 43,3745  E3,1706                                  EBANK=   TEPHEM
000141:
000142: 43,3745                                           COUNT*   $$/P27
000143: 43,3745           34755        V70UPDAT           CAF      UP70                                  #  COMES HERE ON V70E
000144: 43,3746           13754                           TCF      V73UPDAT   +1
000145:
000146: 43,3747           34753        V71UPDAT           CAF      UP71                                  #  COMES HERE ON V71E
000147: 43,3750           13754                           TCF      V73UPDAT   +1
000148:
000149: 43,3751           34752        V72UPDAT           CAF      UP72                                  #  COMES HERE ON V72E
000150: 43,3752           13754                           TCF      V73UPDAT   +1
000151:
000152: 43,3753           36250        V73UPDAT           CAF      UP73                                  #  COMES HERE ON V73E
000153:
000154: 43,3754           55165                 +1        TS       UPVERBSV                              #  SAVE UPVERB UNTIL IT'S OK TO ENTER P27
000155:
000156: 43,3755           02076                           TC       TESTXACT                              #  GRAB DISPLAY IF AVAILABLE, OTHERWISE
000157:                                                                                                  #  TURN*OPERATOR ERROR* ON AND TERMINATEJOB
000158:
000159: 43,3756           31010                           CA       MODREG                                #  CHECK IF UPDATE ALLOWED
000160: 43,3757           00006                           EXTEND                                         #  FIRST CHECK FOR MODREG = +0, -0
000161: 43,3760           13763                           BZF      +3                                    #  (+0 = P00, -0 = FRESHSTART)
000162: 43,3761           04635        UPERROR            TC       POSTJUMP                              #  TURN ON 'OPERATOR ERROR' LIGHT
000163: 43,3762           11743                           CADR     UPERROUT   +2                         #  GO TO COMMON UPDATE PROGRAM EXIT
000164:
000165: 43,3763  43,3761               CKMDMORE           =        UPERROR
000166: 43,3763           55170                           TS       UPOLDMOD                              #  SAVE CURRENT MAJOR MODE


000168: 43,3764           31165                           CAE      UPVERBSV                              #  SET UPVERB TO INDICATE TO P27
000169:
000170: 43,3765           55171                           TS       UPVERB                                #  WHICH EXTENDED VERB CALLED IT.
000171:
000172: 43,3766           34753                           CAF      ONE
000173: 43,3767           55172                           TS       UPCOUNT                               #  INITIALIZE UPCOUNT TO 1
000174:
000175: 43,3770           04635                           TC       POSTJUMP                              #  LEAVE EXTENDED VERB BANK AND
000176: 43,3771           11362                           CADR     UPPART2                               #  GO TO UPDATE PROGRAM (P27) BANK.
000177:
000178: 43,3772     4755               UP70               EQUALS   ZERO
000179: 43,3772     4753               UP71               EQUALS   ONE
000180: 43,3772     4752               UP72               EQUALS   TWO
000181: 43,3772     6250               UP73               EQUALS   THREE
000182:
000183: 04,3362                                           BANK     04
000184: 04,2000                                           SETLOC   UPDATE2
000185: 04,2000                                           BANK
000186:
000187: 04,3362                                           COUNT*   $$/P27
000188:
000189: 04,3362                        UPPART2            EQUALS                                         #  UPDATE PROGRAM - PART 2
000190:
000191: 04,3362           05353                           TC       PHASCHNG                              #  SET RESTART GROUP 6 TO RESTORE OLD MODE
000192: 04,3363           07026                           OCT      07026                                 #  AND DOWNLIST AND EXIT IF RESTART OCCURS.
000193: 04,3364           30000                           OCT      30000                                 #  PRIORITY SAME AS CHRPRIO
000194: 04,3365     1173                                  EBANK=   UPBUFF
000195: 04,3365           03673 10102                     2CADR    UPOUT      +1
000196:
000197: 04,3367           34753                           CAF      ONE
000198: 04,3370           54333                           TS       DNLSTCOD                              #  DOWNLIST
000199:
000200: 04,3371           05311                           TC       NEWMODEX                              #  SET MAJOR MODE = 27
000201: 04,3372           00033                           DEC      27         B-14
000202:
000203: 04,3373           51171                           INDEX    UPVERB                                #  BRANCH DEPENDING ON WHETHER THE UPDATE
000204: 04,3374           13375                           TCF      +1                                    #  VERB REQUIRES A FIXED OR VARIABLE NUMBER
000205: 04,3375           13400                           TCF      +3                                    #  V70 FIXED.               (OF COMPONENTS.
000206: 04,3376           13403                           TCF      OHWELL1                               #  V71 VARIABLE - GO GET NO. OF COMPONENTS
000207: 04,3377           13403                           TCF      OHWELL1                               #  V72 VARIABLE - GO GET NO. OF COMPONENTS
000208: 04,3400           34752                           CA       TWO                                   #  V73 (AND V70) FIXED
000209: 04,3401           55167                           TS       COMPNUMB                              #  SET NUMBER OF COMPONENTS TO 2.
000210: 04,3402           13426                           TCF      OHWELL2                               #  GO GET THE TWO UPDATE COMPONENTS
000211:
000212: 04,3403           33476        OHWELL1            CAF      ADUPBUFF                              #  * REQUEST USER TO SEND NUMBER *
000213: 04,3404           54156                           TS       MPAC       +2                         #  * OF COMPONENTS PARAMETER(II).*
000214: 04,3405           33477                 +2        CAF      UPLOADNV                              #  (CK4V32 RETURNS HERE IF V32 ENCOUNTERED)
000215: 04,3406           04616                           TC       BANKCALL                              #  DISPLAY A FLASHING V21N01
000216: 04,3407           20334                           CADR     GOXDSPF                               #  TO REQUEST II.
000217:


000219: 04,3410           13673                           TCF      UPOUT4                                #  V34 TERMINATE UPDATE (P27) RETURN
000220: 04,3411           13405                           TCF      OHWELL1    +2
000221: 04,3412           03467                           TC       CK4V32                                #  DATA OR V32 RETURN
000222: 04,3413           44752                           CS       BIT2
000223: 04,3414           61173                           AD       UPBUFF                                #  IS II (NUMBER OF COMPONENTS PARAMETER)
000224: 04,3415           00006                           EXTEND                                         #  .GE. 3 AND .LE. 20D.
000225: 04,3416           63405                           BZMF     OHWELL1    +2
000226: 04,3417           41173                           CS       UPBUFF
000227: 04,3420           64362                           AD       UP21
000228: 04,3421           00006                           EXTEND
000229: 04,3422           63405                           BZMF     OHWELL1    +2
000230: 04,3423           31173                           CAE      UPBUFF
000231: 04,3424           55167                           TS       COMPNUMB                              #  SAVE II IN COMPNUMB
000232:
000233:                                                                                                  #  UPBUFF LOADING SEQUENCE
000234:
000235: 04,3425           25172                           INCR     UPCOUNT                               #  INCREMENT COUNT OF COMPONENTS RECEIVED.
000236: 04,3426           33643        OHWELL2            CAF      ADUPBFM1                              #  CALCULATE LOCATION (ECADR) IN UPBUFF
000237: 04,3427           61172                           AD       UPCOUNT                               #  WHERE NEXT COMPONENT SHOULD BE STORED.
000238: 04,3430           54156                 +2        TS       MPAC       +2                         #  PLACE ECADR INTO R3.
000239: 04,3431           33477                 +3        CAF      UPLOADNV                              #  (CK4V32 RETURNS HERE IF V32 ENCOUNTERED)
000240: 04,3432           04616                           TC       BANKCALL                              #  DISPLAY A FLASHING V21N01
000241: 04,3433           20334                           CADR     GOXDSPF                               #  TO REQUEST DATA.
000242: 04,3434           13673                           TCF      UPOUT4                                #  V34 TERMINATE UPDATE (P27) RETURN.
000243: 04,3435           13431                           TCF      OHWELL2    +3                         #  V33 PROCEED RETURN
000244: 04,3436           03467                           TC       CK4V32                                #  DATA OR V32 RETURN
000245: 04,3437           41172                           CS       UPCOUNT                               #  HAVE WE FINISHED RECEIVING ALL
000246: 04,3440           61167                           AD       COMPNUMB                              #  THE DATA WE EXPECTED.
000247: 04,3441           00006                           EXTEND
000248: 04,3442           63444                           BZMF     UPVERIFY                              #  YES - GO TO VERIFICATION SEQUENCE
000249: 04,3443           13425                           TCF      OHWELL2    -1                         #  NO - REQUEST ADDITIONAL DATA.
000250:
000251:                                                                                                  #  VERIFY SEQUENCE
000252:
000253: 04,3444           33475        UPVERIFY           CAF      ADUPTEMP                              #  PLACE ECADR WHERE COMPONENT NO. INDEX
000254: 04,3445           54156                           TS       MPAC       +2                         #  IS TO BE STORED INTO R3.
000255: 04,3446           33500                           CAF      UPVRFYNV                              #  (CK4V32 RETURNS HERE IF V32 ENCOUNTERED)
000256: 04,3447           04616                           TC       BANKCALL                              #  DISPLAY A FLASHING V21N02 TO REQUEST
000257: 04,3450           20334                           CADR     GOXDSPF                               #  DATA CORRECTION OR VERIFICATION.
000258: 04,3451           13673                           TCF      UPOUT4                                #  V34 TERMINATE UPDATE (P27) RETURN
000259: 04,3452           13501                           TCF      UPSTORE                               #  V33 DATA SENT IS GOOD.  GO STORE IT.
000260: 04,3453           03467                           TC       CK4V32                                #  COMPONENT NO. INDEX OR V32 RETURN
000261: 04,3454           31166                           CA       UPTEMP                                #  DOES THE COMPONENT NO. INDEX JUST SENT
000262: 04,3455           00006                           EXTEND                                         #  SPECIFY A LEGAL COMPONENT NUMBER?
000263: 04,3456           63444                           BZMF     UPVERIFY                              #  NO, IT IS NOT POSITIVE NONZERO
000264: 04,3457           41166                           CS       UPTEMP
000265: 04,3460           61167                           AD       COMPNUMB
000266: 04,3461           64753                           AD       BIT1


000268: 04,3462           00006                           EXTEND
000269: 04,3463           63444                           BZMF     UPVERIFY                              #  NO
000270: 04,3464           33643                           CAF      ADUPBFM1                              #  YES- BASED ON THE COMPONENT NO. INDEX
000271: 04,3465           61166                           AD       UPTEMP                                #  CALCULATE THE ECADR OF LOCATION IN
000272: 04,3466           13430                           TCF      OHWELL2    +2                         #  UPBUFF WHICH USER WANTS TO CHANGE.
000273:
000274: 04,3467  04,3673               UPOUT4             EQUALS   UPOUT      +1                         #  COMES HERE ON V34 TO TERMINATE UPDATE
000275:
000276:                                                                                                  #  CHECK FOR VERB 32 SEQUENCE
000277:
000278: 04,3467           40154        CK4V32             CS       MPAC                                  #  ON DATA RETURN FROM 'GOXDSPF'
000279: 04,3470           74746                           MASK     BIT6                                  #  ON DATA RETURN FROM "GOXDSP" & THE CON-
000280: 04,3471           10000                           CCS      A                                     #  TENTS OF MPAC = VERB.  SO TEST FOR V32.
000281: 04,3472           00002                           TC       Q                                     #  IT'S NOT A V32, IT'S DATA.  PROCEED.
000282: 04,3473           50002                           INDEX    Q
000283: 04,3474           77771                           TC       0          -6                         #  V32 ENCOUNTERED - GO BACK AND GET DATA
000284:
000285: 04,3475           01166        ADUPTEMP           ADRES    UPTEMP                                #  ADDRESS OF TEMP STORAGE FOR CORRECTIONS
000286: 04,3476           01173        ADUPBUFF           ADRES    UPBUFF                                #  ADDRESS OF UPDATE DATA STORAGE BUFFER
000287: 04,3477           05201        UPLOADNV           VN       2101                                  #  VERB 21 NOUN 01
000288: 04,3500           05202        UPVRFYNV           VN       2102                                  #  VERB 21 NOUN 02
000289: 04,3501     4362               UP21               =        MD1                                   #  DEC 21 = MAX NO OF COMPONENTS +1
000290: 04,3501     4756               UPDTPHAS           EQUALS   FIVE
000291:
000292:                                                                                                  #  PRE-STORE AND FAN TO APPROPRIATE BRANCH SEQUENCE
000293:
000294: 04,3501                        UPSTORE            EQUALS                                         #  GROUND HAS VERIFIED UPDATE.  STORE DATA.
000295:
000296: 04,3501           00004                           INHINT
000297:
000298: 04,3502           30103                           CAE      FLAGWRD7                              #  INVERT VERIFLAG (BIT 3 OF FLAGWRD7) TO
000299: 04,3503           56001                           XCH      L                                     #  INDICATE TO THE GROUND (VIA DOWNLINK)
000300: 04,3504           34751                           CAF      VERIFBIT                              #  THAT THE V33 (WHICH THE GROUND SENT TO
000301: 04,3505           00006                           EXTEND                                         #  VERIFY THE UPDATE) HAS BEEN SUCCESSFULLY
000302: 04,3506           06001                           RXOR     LCHAN                                 #  RECEIVED BY THE UPDATE PROGRAM
000303: 04,3507           54103                           TS       FLAGWRD7
000304:
000305: 04,3510           05353                           TC       PHASCHNG                              #  SET RESTART GROUP 6 TO REDO THE UPDATE
000306: 04,3511           04026                           OCT      04026                                 #  DATA STORE IF A RESTART OCCURS.
000307: 04,3512           00004                           INHINT                                         #  (BECAUSE PHASCHNG DID A RELINT)
000308:
000309: 04,3513           44752                           CS       TWO                                   #  GO TO UPFNDVAC IF INSTALL IS REQUIRED,
000310: 04,3514           61171                           AD       UPVERB                                #  THAT IS, IF IT'S A V70 - V72.
000311: 04,3515           00006                           EXTEND                                         #  GO TO UPEND73 IF IT'S A V73.
000312: 04,3516           63525                           BZMF     UPFNDVAC
000313:
000314:                                                                                                  #  VERB 73 BRANCH
000315:
000316: 04,3517           00006        UPEND73            EXTEND                                         #  V73 - PERFORM DP OCTAL AGC CLOCK INCREMENT


000318: 04,3520           31174                           DCA      UPBUFF
000319: 04,3521           53204                           DXCH     UPBUFF     +8D
000320: 04,3522           03550                           TC       TIMEDIDL
000321: 04,3523           04364                           TC       FALTON                                #  ERROR- TURN ON *OPERATOR ERROR* LIGHT
000322: 04,3524           03673                           TC       UPOUT      +1                         #  GO TO COMMON UPDATE PROGRAM EXIT
000323:
000324: 04,3525           34355        UPFNDVAC           CAF      CHRPRIO                               #  (USE EXTENDED VERB PRIORITY)
000325: 04,3526           05105                           TC       FINDVAC                               #  GET VAC AREA FOR 'CALL INTSTALL'
000326: 04,3527  E3,1706                                  EBANK=   TEPHEM
000327: 04,3527           03532 10103                     2CADR    UPJOB                                 #  (NOTE: THIS WILL ALSO SET EBANK FOR
000328: 04,3531           05155                           TC       ENDOFJOB                              #  'TEPHEM' UPDATE BY V70)
000329:
000330: 04,3532           06042        UPJOB              TC       INTPRET                               #  THIS COULD BE A STATE VECTOR UPDATE--SO
000331: 04,3533           77624                           CALL                                           #  WAIT(PUT JOB TO SLEEP) IF ORBIT INT(OI)
000332: 04,3534           27412                                    INTSTALL                              #  IS IN PROGRESS--OR--GRAB OI AND RETURN
000333:                                                                                                  #  TO UPWAKE IF OI IS NOT IN PROGRESS.
000334:
000335: 04,3535           77776        UPWAKE             EXIT
000336:
000337: 04,3536           05353                           TC       PHASCHNG                              #  RESTART PROTECT (GROUP 6)
000338: 04,3537           04026                           OCT      04026
000339:
000340: 04,3540           05504                           TC       UPFLAG                                #  SET INTEGRATION RESTART BIT
000341: 04,3541           00236                           ADRES    REINTFLG
000342: 04,3542           00004                           INHINT
000343: 04,3543                        UPPART3            EQUALS
000344:
000345: 04,3543           51171                           INDEX    UPVERB                                #  BRANCH TO THE APPROPRIATE UPDATE VERB
000346: 04,3544           13545                           TCF      +1                                    #  ROUTINE TO ACTUALLY PERFORM THE UPDATE
000347: 04,3545           13704                           TCF      UPEND70                               #  V70
000348: 04,3546           13613                           TCF      UPEND71                               #  V71
000349: 04,3547           13645                           TCF      UPEND72                               #  V72
000350:
000351:                                                                                                  #  ROUTINE TO INCREMENT CLOCK (TIME2,TIME1) WITH CONTENTS OF DP WORD AT UPBUFF.
000352:
000353: 04,3550           00006        TIMEDIDL           EXTEND
000354: 04,3551           23166                           QXCH     UPTEMP                                #  SAVE Q FOR RETURN
000355: 04,3552           34755                           CAF      ZERO                                  #  ZERO AND SAVE TIME2,TIME1
000356: 04,3553           22007                           ZL
000357: 04,3554           52025                           DXCH     TIME2
000358: 04,3555           53216                           DXCH     UPBUFF     +18D                       #  STORE IN CASE OF OVERFLOW
000359:
000360: 04,3556           34756                           CAF      UPDTPHAS                              #  DO
000361: 04,3557           54001                           TS       L                                     #  A
000362: 04,3560           40000                           COM                                            #  QUICK
000363: 04,3561           52764                           DXCH     -PHASE6                               #  PHASCHNG
000364:
000365: 04,3562           00004        TIMEDIDR           INHINT


000367: 04,3563           34755                           CAF      ZERO
000368: 04,3564           22007                           ZL                                             #  PICK UP INCREMENTER(AND ZERO
000369: 04,3565           54156                           TS       MPAC       +2                         #  IT IN CASE OF RESTARTS) AND
000370: 04,3566           53204                           DXCH     UPBUFF     +8D                        #  STORE IT
000371: 04,3567           52155                           DXCH     MPAC                                  #  INTO MPAC FOR TPAGREE.
000372:
000373: 04,3570           00006                           EXTEND
000374: 04,3571           31216                           DCA      UPBUFF     +18D
000375: 04,3572           20155                           DAS      MPAC                                  #  FORM SUM IN MPAC
000376: 04,3573           00006                           EXTEND
000377: 04,3574           13603                           BZF      DELTAOK                               #  TEST FOR OVERFLOW
000378: 04,3575           34755                           CAF      ZERO
000379: 04,3576           53216                           DXCH     UPBUFF     +18D                       #  OVERFLOW, RESTORE OLD VALUE OF CLOCK
000380: 04,3577           20025                           DAS      TIME2                                 #  AND TURN ON OPERATOR ERROR
000381:
000382: 04,3600           05353                           TC       PHASCHNG                              #  RESTART PROTECT (GROUP 6)
000383: 04,3601           04026                           OCT      04026
000384:
000385: 04,3602           01166                           TC       UPTEMP                                #  GO TO ERROR EXIT
000386:
000387: 04,3603           07262        DELTAOK            TC       TPAGREE                               #  FORCE SIGN AGREEMENT
000388: 04,3604           52155                           DXCH     MPAC
000389: 04,3605           20025                           DAS      TIME2                                 #  INCREMENT TIME2,TIME1
000390:
000391: 04,3606           05353                           TC       PHASCHNG                              #  RESTART PROTECT (GROUP 6)
000392: 04,3607           04026                           OCT      04026
000393:
000394: 04,3610           00004                           INHINT
000395: 04,3611           51166                           INDEX    UPTEMP                                #  (CODED THIS WAY FOR RESTART PROTECTION)
000396: 04,3612           00001                           TC       1                                     #  NORMAL RETURN
000397:
000398:                                                                                                  #  VERB 71 BRANCH
000399:
000400: 04,3613           31174        UPEND71            CAE      UPBUFF     +1                         #  SET EBANK
000401: 04,3614           54003                           TS       EBANK                                 #    AND
000402: 04,3615           74357                           MASK     LOW8                                  #  CALCULATE
000403: 04,3616           55166                           TS       UPTEMP                                #  S-REG VALUE OF RECEIVING AREA
000404:
000405: 04,3617           67750                           AD       NEG3                                  #  IN THE PROCESS OF
000406: 04,3620           61167                           AD       COMPNUMB                              #  PERFORMING
000407: 04,3621           00006                           EXTEND                                         #  THIS UPDATE
000408: 04,3622           13630                           BZF      STORLP71                              #  WILL WE
000409: 04,3623           74743                           MASK     BIT9                                  #  OVERFLOW
000410: 04,3624           10000                           CCS      A                                     #  INTO THE NEXT EBANK....
000411: 04,3625           13741                           TCF      UPERROUT                              #  YES
000412:
000413: 04,3626           37750                           CA       NEG3                                  #  NO - CALCULATE NUMBER OF
000414: 04,3627           61167                           AD       COMPNUMB                              #  WORDS TO BE STORED MINUS ONE
000415: 04,3630           54154        STORLP71           TS       MPAC                                  #  SAVE NO. OF WORDS REMAINING MINUS ONE
000416: 04,3631           50000                           INDEX    A                                     #  TAKE NEXT UPDATE WORD FROM
000417: 04,3632           31175                           CA       UPBUFF     +2                         #  UPBUFF AND


000419: 04,3633           54001                           TS       L                                     #  SAVE IT IN L
000420: 04,3634           30154                           CA       MPAC                                  #  CALCULATE NEXT
000421: 04,3635           61166                           AD       UPTEMP                                #  RECEIVING ADDRESS
000422: 04,3636           50000                           INDEX    A
000423: 04,3637  E3,1400                                  EBANK=   1400
000424: 04,3637           23400                           LXCH     1400                                  #  UPDATE THE REGISTER BY CONTENTS OF L
000425: 04,3640  E3,1706                                  EBANK=   TEPHEM
000426: 04,3640           10154                           CCS      MPAC                                  #  ARE THERE ANY WORDS LEFT TO BE STORED
000427: 04,3641           13630                           TCF      STORLP71                              #  YES
000428: 04,3642           13672                           TCF      UPOUT                                 #  NO- THEN EXIT UPDATE PROGRAM
000429: 04,3643           01172        ADUPBFM1           ADRES    UPBUFF     -1                         #  SAME AS ADUPBUFF BUT LESS 1 (DON'T MOVE)
000430: 04,3644           13672                           TCF      UPOUT                                 #  NO- EXIT UPDATE (HERE WHEN COMPNUMB = 3)
000431:
000432:                                                                                                  #  VERB 72 BRANCH
000433:
000434: 04,3645           34753        UPEND72            CAF      BIT1                                  #  HAVE AN ODD NO. OF COMPONENTS
000435: 04,3646           71167                           MASK     COMPNUMB                              #  BEEN SENT FOR A V72 UPDATE ...
000436: 04,3647           10000                           CCS      A
000437: 04,3650           13652                           TCF      +2                                    #  YES
000438: 04,3651           13741                           TCF      UPERROUT                              #  ERROR- SHOULD BE ODD NO. OF COMPONENTS
000439: 04,3652           44752                           CS       BIT2
000440: 04,3653           61167                           AD       COMPNUMB
000441: 04,3654           54154        LDLOOP72           TS       MPAC                                  #  NOW PERFORM THE UPDATE
000442: 04,3655           50000                           INDEX    A
000443: 04,3656           31174                           CAE      UPBUFF     +1                         #  PICK UP NEXT UPDATE WORD
000444: 04,3657           22000                           LXCH     A
000445: 04,3660           10154                           CCS      MPAC                                  #  SET POINTER TO ECADR (MUST BE CCS)
000446: 04,3661           54154                           TS       MPAC
000447: 04,3662           50000                           INDEX    A
000448: 04,3663           31174                           CAE      UPBUFF     +1                         #  PICK UP NEXT ECADR OF REG TO BE UPDATED
000449: 04,3664           54003                           TS       EBANK                                 #  SET EBANK
000450: 04,3665           74357                           MASK     LOW8                                  #  ISOLATE RELATIVE ADDRESS
000451: 04,3666           50000                           INDEX    A
000452: 04,3667  E3,1400                                  EBANK=   1400
000453: 04,3667           23400                           LXCH     1400                                  #  UPDATE THE REGISTER BY CONTENTS OF L
000454: 04,3670  E3,1706                                  EBANK=   TEPHEM
000455: 04,3670           10154                           CCS      MPAC                                  #  ARE WE THROUGH THE V72 UPDATE...
000456: 04,3671           13654                           TCF      LDLOOP72                              #  NO
000457:
000458:                                                                                                  #  NORMAL FINISH OF P27
000459:
000460: 04,3672                        UPOUT              EQUALS
000461: 04,3672           03147                           TC       INTWAKEU                              #  RELEASE GRAB OF ORBITAL INTEGRATION
000462: 04,3673           31170                 +1        CAE      UPOLDMOD                              #  RESTORE PRIOR P27 MODE
000463: 04,3674           05314                           TC       NEWMODEX   +3
000464: 04,3675           34755                           CAF      ZERO
000465: 04,3676           54333                           TS       DNLSTCOD
000466: 04,3677           03746                           TC       UPACTOFF                              #  TURN OFF 'UPLINK ACTIVITY' LIGHT


000468: 04,3700           00006                           EXTEND                                         #  KILL GROUP 6.
000469: 04,3701           34755                           DCA      NEG0
000470: 04,3702           52764                           DXCH     -PHASE6
000471:
000472: 04,3703           05472                           TC       ENDEXT                                #  EXTENDED VERB EXIT
000473:
000474:                                                                                                  #  VERB 70 BRANCH
000475:
000476: 04,3704           00006        UPEND70            EXTEND                                         #  V70 DOES THE FOLLOWING WITH DP DELTA
000477: 04,3705           41174                           DCS      UPBUFF                                #  TIME IN UPBUFF
000478: 04,3706           53204                           DXCH     UPBUFF     +8D
000479: 04,3707           03550                           TC       TIMEDIDL                              #  DECREMENT AGC CLOCK
000480:
000481: 04,3710           03741                           TC       UPERROUT                              #  ERROR WHILE DECREMENTING CLOCK -- EXIT
000482:
000483: 04,3711  E3,1706                                  EBANK=   TEPHEM
000484: 04,3711           00006                           EXTEND
000485: 04,3712           41174                           DCS      UPBUFF                                #  COPY DECREMENTERS FOR
000486: 04,3713           53206                           DXCH     UPBUFF     +10D                       #  RESTART PROTECTION
000487: 04,3714           00006                           EXTEND
000488: 04,3715           41174                           DCS      UPBUFF
000489: 04,3716           53210                           DXCH     UPBUFF     +12D
000490:
000491: 04,3717           05353                           TC       PHASCHNG                              #  RESTART PROTECT (GROUP 6)
000492: 04,3720           04026                           OCT      04026
000493:
000494: 04,3721           34755                           CAF      ZERO
000495: 04,3722           22007                           ZL
000496: 04,3723           53206                           DXCH     UPBUFF     +10D                       #  DECREMENT CSM STATE VECTOR TIME
000497: 04,3724           21571                           DAS      TETCSM
000498:
000499: 04,3725           34755                           CAF      ZERO
000500: 04,3726           22007                           ZL
000501: 04,3727           53210                           DXCH     UPBUFF     +12D                       #  DECREMENT LEM STATE VECTOR TIME
000502: 04,3730           21643                           DAS      TETLEM
000503:
000504: 04,3731           34755                           CAF      ZERO
000505: 04,3732           22007                           ZL
000506: 04,3733           53174                           DXCH     UPBUFF
000507: 04,3734           21710                           DAS      TEPHEM     +1                         #  INCREMENT TP TEPHEM
000508: 04,3735           27706                           ADS      TEPHEM
000509:
000510: 04,3736           05353                           TC       PHASCHNG                              #  RESTART PROTECT (GROUP 6)
000511: 04,3737           04026                           OCT      04026
000512:
000513: 04,3740     1173                                  EBANK=   UPBUFF
000514:
000515: 04,3740           03672                           TC       UPOUT                                 #  GO TO STANDARD UPDATE PROGRAM EXIT


000517:
000518:                                                                                                  #  ERROR SEQUENCE
000519:
000520: 04,3741           04364        UPERROUT           TC       FALTON                                #  TURN ON *OPERATOR ERROR* LIGHT
000521: 04,3742           13672                           TCF      UPOUT                                 #  GO TO COMMON UPDATE PROGRAM EXIT
000522:
000523: 04,3743           04364                 +2        TC       FALTON                                #  TURN ON 'OPERATOR ERROR' LIGHT
000524: 04,3744           03746                           TC       UPACTOFF                              #  TURN OFF 'UPLINK ACTIVITY' LIGHT
000525: 04,3745           05472                           TC       ENDEXT                                #  EXTENDED VERB EXIT
000526:                                                                                                  #  (THE PURPOSE OF UPERROUT +2 EXIT IS
000527:                                                                                                  #  TO PROVIDE AN ERROR EXIT WHICH DOES NOT
000528:                                                                                                  #  RESET ANY RESTART GROUPS)
000529:
000530:                                                                                                  #  :UPACTOFF: IS A ROUTINE TO TURN OFF UPLINK ACTIVITY LIGHT ON ALL EXITS FROM UPDATE PROGRAM (P27).
000531:
000532: 04,3746           44751        UPACTOFF           CS       BIT3
000533: 04,3747           00006                           EXTEND                                         #  TURN OFF UPLINK ACTIVITY LIGHT
000534: 04,3750           03011                           WAND     DSALMOUT                              #  (BIT 3 OF CHANNEL 11)
000535: 04,3751           00002                           TC       Q
000536:

End of include-file UPDATE_PROGRAM.agc.  Parent file is MAIN.agc


