
Source Code


000002:                                                                                                  ## Copyright:   Public domain.
000003:                                                                                                  ## Filename:    WAITLIST.agc
000004:                                                                                                  ## Purpose:     A section of Luminary revision 116.
000005:                                                                                                  ##              It is part of the source code for the Lunar Module's (LM)
000006:                                                                                                  ##              Apollo Guidance Computer (AGC) for Apollo 12.
000007:                                                                                                  ##              This file is intended to be a faithful transcription, except
000008:                                                                                                  ##              that the code format has been changed to conform to the
000009:                                                                                                  ##              requirements of the yaYUL assembler rather than the
000010:                                                                                                  ##              original YUL assembler.
000011:                                                                                                  ## Reference:   pp. 1109-1124
000012:                                                                                                  ## Assembler:   yaYUL
000013:                                                                                                  ## Contact:     Ron Burkey <info@sandroid.org>.
000014:                                                                                                  ## Website:     www.ibiblio.org/apollo/index.html
000015:                                                                                                  ## Mod history: 2017-01-22 MAS  Created from Luminary 99.
000016:                                                                                                  ##              2017-01-28 RSB  WTIH -> WITH.
000017:                                                                                                  ##              2017-02-09 RSB  Comment-text fixes identified in proofing Artemis 72
000018:                                                                                                  ##              2017-02-27 RSB  Corrected WAITP00H and LONGP00H to similar POOH names.
000019:                                                                                                  ##              2017-03-10 HG   Transcribed
000020:                                                                                                  ##              2017-03-14 RSB  Proofed comment text via 3-way diff vs
000021:                                                                                                  ##                              Luminary 99 and 131.
000022:                                                                                                  ##              2017-03-16 RSB  Comment-text fixes identified in 5-way
000023:                                                                                                  ##                              side-by-side diff of Luminary 69/99/116/131/210.
000024:                                                                                                  ##              2017-03-19 HG   Fix value OCT 01204 -> OCT 21204
000025:


000027:                                                                                                  #  PROGRAM DESCRIPTION                                                                     DATE - 10 OCTOBER 1966
000028:                                                                                                  #  MOD NO - 2                                                                              LOG SECTION - WAITLIST
000029:                                                                                                  #  MOD BY - MILLER   (DTMAX INCREASED TO 162.5 SEC)                                        ASSEMBLY SUNBURST REV 5
000030:                                                                                                  #  MOD 3 BY KERNAN  (INHINT INSERTED AT WAITLIST) 2/28/68 SKIPPER REV 4
000031:
000032:                                                                                                  #  MOD 4BY KERNAN (TWIDDLE IN 54)  3/28/68 SKIPPER REV 13.
000033:
000034:
000035:                                                                                                  #  FUNCTIONAL DESCRIPTION -
000036:                                                                                                  #          PART OF A SECTION OF PROGRAMS,-WAITLIST, TASKOVER, T3RUPT, USED  TO CALL A PROGRAM, (CALLED A TASK),
000037:                                                                                                  #     WHICH IS TO BEGIN IN C(A) CENTISECONDS.  WAITLIST UPDATES TIME3, LST1 AND LST2. THE MEANING OF THESE LISTS
000038:                                                                                                  #     FOLLOW.
000039:
000040:                                                                                                  #                  C(TIME3)  = 16384 -(T1-T) CENTISECONDS, (T=PRESENT TIME, T1-TIME FOR TASK1)
000041:
000042:
000043:                                                                                                  #                               C(LST1)    = -(T2-T1)+1
000044:                                                                                                  #                               C(LST1 +1) = -(T3-T2)+1
000045:                                                                                                  #                               C(LST1 +2) = -(T4-T3)+1
000046:                                                                                                  #                                          .
000047:                                                                                                  #                                          .
000048:                                                                                                  #                               C(LST1 +6) = -(T8-T7)+1
000049:                                                                                                  #                               C(LST1 +7) = -(T9-T8)+1
000050:
000051:                                                                                                  #                               C(LST2)    = 2CADR OF TASK1
000052:                                                                                                  #                               C(LST2 +2) = 2CADR OF TASK2
000053:                                                                                                  #                                          .
000054:                                                                                                  #                                          .
000055:                                                                                                  #                               C(LST2 +14)= 2CADR OF TASK8
000056:                                                                                                  #                               C(LST2 +16)= 2CADR OF TASK9
000057:
000058:                                                                                                  #  WARNINGS -
000059:                                                                                                  #  --------
000060:                                                                                                  #               1) 1 <= C(A) <= 16250D (1 CENTISECOND TO 162.5 SEC)
000061:                                                                                                  #               2) 9 TASKS MAXIMUM
000062:                                                                                                  #               3) TASKS CALLED UNDER INTERRUPT INHIBITED
000063:                                                                                                  #               4) TASKS END BY TC TASKOVER
000064:
000065:                                                                                                  #  CALLING SEQUENCE -
000066:
000067:                                                                                                  #               L-1    CA     DELTAT   (TIME IN CENTISECONDS TO TASK START)
000068:                                                                                                  #               L      TC     WAITLIST
000069:                                                                                                  #               L+1    2CADR  DESIRED TASK
000070:                                                                                                  #               L+2    (MINOR OF 2CADR)
000071:                                                                                                  #               L+3    RELINT          (RETURNS HERE)
000072:
000073:                                                                                                  #  TWIDDLE -
000074:                                                                                                  #  -------
000075:                                                                                                  #               TWIDDLE IS FOR USE WHEN THE TASK BEING SET UP IS IN THE SAME EBANK AND FBANK AS THE USER.  IN
000076:                                                                                                  #               SUCH CASES, IT IMPROVES UPON WAITLIST BY ELIMINATING THE NEED FOR THE BBCON HALF OF THE 2CADR,
000077:


000079:                                                                                                  #               SAVING A WORD.   TWIDDLE IS LIKE WAITLIST IN EVERY RESPECT EXCEPT CALLING SEQUENCE, TO WIT-
000080:                                                                                                  #               L-1    CA     DELTAT
000081:                                                                                                  #               L      TC     TWIDDLE
000082:                                                                                                  #               L+1    ADRES  DESIRED TASK
000083:                                                                                                  #               L+2    RELINT               (RETURNS HERE)
000084:
000085:                                                                                                  #  NORMAL EXIT MODES -
000086:
000087:                                                                                                  #               AT L+3 OF CALLING SEQUENCE
000088:
000089:                                                                                                  #  ALARM OR ABORT EXIT MODES -
000090:
000091:                                                                                                  #               TC      ABORT
000092:                                                                                                  #               OCT     1203  (WAITLIST OVERFLOW - TOO MANY TASKS)
000093:
000094:                                                                                                  #  ERASABLE INITIALIZATION REQUIRED-
000095:
000096:                                                                                                  #               ACCOMPLISHED BY FRESH START,--LST2,..., LST2 +16 =ENDTASK
000097:                                                                                                  #                                             LST1,..., LST1 +7  =NEG1/2
000098:
000099:                                                                                                  #  OUTPUT--
000100:
000101:                                                                                                  #               LST1 AND LST2 UPDATED WITH NEW TASK AND ASSOCIATED TIME.
000102:
000103:                                                                                                  #  DEBRIS-
000104:
000105:                                                                                                  #               CENTRALS- A,Q,L
000106:                                                                                                  #               OTHER   - WAITEXIT, WAITADR, WAITTEMP, WAITBANK
000107:                                                                                                  #  DETAILED ANALYSIS OF TIMING-
000108:
000109:                                                                                                  #          CONTROL WILL NOT BE RETURNED TO THE SPECIFIED ADDRESS (2CADR)   IN EXACTLY DELTA T CENTISECONDS.
000110:                                                                                                  #     THE APPROXIMATE TIME MAY BE CALCULATED AS FOLLOWS
000111:
000112:                                                                                                  #               LET TO = THE TIME OF THE TC WAITLIST
000113:                                                                                                  #               LET TS = TO +147U + COUNTER INCREMENTS (SET UP TIME)
000114:                                                                                                  #               LET X  = TS -(100TS)/100  (VARIANCE FROM COUNTERS)
000115:                                                                                                  #               LET Y  = LENGTH OF TIME OF INHIBIT INTERRUPT AFTER T3RUPT
000116:                                                                                                  #               LET Z  = LENGTH OF TIME TO PROCESS TASKS WHICH ARE DUE THIS T3RUPT BUT DISPATCHED EARLIER.
000117:                                                                                                  #     (Z=0, USUALLY)
000118:                                                                                                  #               LET DELTD = THE ACTUAL TIME TAKEN TO GIVE CONTROL TO 2CADR
000119:                                                                                                  #            THEN   DELTD = TS+DELTA T -X +Y +Z +1.05MS* +COUNTERS*
000120:                                                                                                  #     *-THE TIME TAKEN BY WAITLIST ITSELF AND THE COUNTER TICKING DURING THIS WAITLIST TIME.
000121:
000122:
000123:                                                                                                  #          IN SHORT, THE ACTUAL TIME TO RETURN CONTROL TO A 2CADR IS AUGMENTED BY THE TIME TO SET UP THE TASK:S
000124:                                                                                                  #     INTERRUPT, ALL COUNTERS TICKING, THE T3RUPT PROCESSING TIME, THE WAITLIST PROCESSING TIME AND THE POSSIBILITY
000125:                                                                                                  #     OF OTHER TASKS INHIBITING THE INTERRUPT.
000126:
000127:    5173                                           BLOCK    02
000128:


000130:    5173  E3,1400                                  EBANK=   LST1                                  #  TASK LISTS IN SWITCHED E BANK.
000131:
000132:    5173                                           COUNT*   $$/WAIT
000133:    5173           00004        TWIDDLE            INHINT
000134:    5174           54001                           TS       L                                     #  SAVE DELAY TIME IN L
000135:    5175           34733                           CA       POSMAX
000136:    5176           26002                           ADS      Q                                     #  CREATING OVERFLOW AND Q-1 IN Q
000137:    5177           30006                           CA       BBANK
000138:    5200           00006                           EXTEND
000139:    5201           04007                           ROR      SUPERBNK
000140:    5202           56001                           XCH      L


000142:
000143:    5203           00004        WAITLIST           INHINT
000144:    5204           56002                           XCH      Q                                     #  SAVE DELTA T IN Q AND RETURN IN
000145:    5205           54061                           TS       WAITEXIT                              #  WAITEXIT.
000146:    5206           00006                           EXTEND
000147:    5207           50061                           INDEX    WAITEXIT                              #  IF TWIDDLING, THE TS SKIPS TO HERE
000148:    5210           30001                           DCA      0                                     #  PICK UP 2CADR OF TASK.
000149:    5211           54063                 -1        TS       WAITADR                               #  BBCON WILL REMAIN IN L
000150:    5212           35220        DLY2               CAF      WAITBB                                #  ENTRY FROM FIXDELAY AND VARDELAY.
000151:    5213           56006                           XCH      BBANK
000152:    5214           13232                           TCF      WAIT2
000153:
000154:                                                                                                  #           RETURN TO CALLER AFTER TASK INSERTION:
000155:
000156:    5215           52062        LVWTLIST           DXCH     WAITEXIT
000157:    5216           64752                           AD       TWO
000158:    5217           52006                           DTCB


000169:    5220  E3,1400                                  EBANK=   LST1
000170:    5220           02063        WAITBB             BBCON    WAIT2
000171:
000172:                                                                                                  #           RETURN TO CALLER +2 AFTER WAITING DT SPECIFIED AT CALLER +1.
000173:
000174:    5221           50002        FIXDELAY           INDEX    Q                                     #  BOTH ROUTINES MUST BE CALLED UNDER
000175:    5222           30000                           CAF      0                                     #  WAITLIST CONTROL AND TERMINATE THE TASK
000176:    5223           24002                           INCR     Q                                     #  IN WHICH THEY WERE CALLED.
000177:
000178:                                                                                                  #           RETURN TO CALLER +1 AFTER WAITING THE DT AS ARRIVING IN A.
000179:
000180:    5224           56002        VARDELAY           XCH      Q                                     #  DT TO Q. TASK ADRES TO WAITADR.
000181:    5225           54063                           TS       WAITADR
000182:    5226           30006                           CA       BBANK                                 #  BBANK IS SAVED DURING DELAY.
000183:    5227           00006                           EXTEND
000184:    5230           04007                           ROR      SUPERBNK                              #  ADD SBANK TO BBCON.
000185:    5231           54001                           TS       L
000186:    5232           35235                           CAF      DELAYEX
000187:    5233           54061                           TS       WAITEXIT                              #  GO TO TASKOVER AFTER TASK ENTRY.
000188:    5234           15212                           TCF      DLY2
000189:


000191:    5235           15257        DELAYEX            TCF      TASKOVER   -2                         #  RETURNS TO TASKOVER
000192:


000194:                                                                                                  #  ENDTASK MUST BE ENTERED IN FIXED-FIXED SO IT IS DISTINGUISHABLE BY ITS ADRES ALONE.
000195:
000196:    5236  E3,1400                                  EBANK=   LST1
000197:    5236           72537 73714  ENDTASK            -2CADR   SVCT3
000198:
000199:    5240           10076        SVCT3              CCS      FLAGWRD2                              #  DRIFT FLAG
000200:    5241           15261                           TCF      TASKOVER
000201:    5242           15261                           TCF      TASKOVER
000202:    5243           15244                           TCF      +1
000203:
000204:    5244           11301        CKIMUSE            CCS      IMUCADR                               #  DON'T DO NBDONLY IF SOMEONE ELSE IS IN
000205:    5245           15256                           TCF      SVCT3X                                #  IMUSTALL.
000206:    5246           15251                           TCF      +3
000207:    5247           15256                           TCF      SVCT3X
000208:    5250           15256                           TCF      SVCT3X
000209:
000210:    5251           37726                 +3        CAF      PRIO35                                #  COMPENSATE FOR NBD COEFFICIENTS ONLY.
000211:    5252           05072                           TC       NOVAC                                 #      ENABLE EVERY 81.93 SECONDS
000212:    5253  E3,1460                                  EBANK=   NBDX
000213:    5253           03563 14063                     2CADR    NBDONLY
000214:    5255           15261                           TCF      TASKOVER
000215:
000216:    5256           05221        SVCT3X             TC       FIXDELAY                              #  DELAY MAX OF 2 TIMES FOR IMUZERO.
000217:    5257           00764                           DEC      500        B-14
000218:    5260           05240                           TC       SVCT3                                 #  CHECK DRIFT FLAG AGAIN.
000219:


000221:                                                                                                  #           BEGIN TASK INSERTION.
000222:
000223: 01,3232                                           BANK     01
000224: 01,3232                                           COUNT*   $$/WAIT
000225: 01,3232           54062        WAIT2              TS       WAITBANK                              #  BBANK OF CALLING PROGRAM.
000226: 01,3233           30002                           CA       Q
000227: 01,3234           00006                           EXTEND
000228: 01,3235           63524                           BZMF     WAITPOOH
000229:
000230: 01,3236           40026                           CS       TIME3
000231: 01,3237           64744                           AD       BIT8                                  #  BIT 8 = OCT 200
000232: 01,3240           10000                           CCS      A                                     #  TEST 200 - C(TIME3).  IF POSITIVE,
000233:                                                                                                  #  IT MEANS THAT TIME3 OVERFLOW HAS OCCURRED PRIOR TO CS TIME3 AND THAT
000234:                                                                                                  #  C(TIME3) = T - T1, INSTEAD OF 1.0 - (T1 - T).  THE FOLLOWING FOUR
000235:                                                                                                  #  ORDERS SET C(A) = TD - T1 + 1 IN EITHER CASE.
000236:
000237: 01,3241           66112                           AD       OCT40001                              #  OVERFLOW HAS OCCURRED.  SET C(A) =
000238: 01,3242           40000                           CS       A                                     #  T - T1 + 1.0 - 201
000239:
000240:                                                                                                  #  NORMAL CASE (C(A) NNZ) YIELDS SAME C(A):  -( -(1.0-(T1-T)) + 200) - 1
000241:
000242: 01,3243           63371                           AD       OCT40201
000243: 01,3244           60002                           AD       Q                                     #  RESULT = TD - T1 + 1.
000244:
000245: 01,3245           10000                           CCS      A                                     #  TEST TD - T1 + 1
000246:
000247: 01,3246           61400                           AD       LST1                                  #  IF TD - T1 POS, GO TO WTLST5 WITH
000248: 01,3247           13311                           TCF      WTLST5                                #  C(A) = (TD - T1) + C(LST1) = TD-T2+1
000249:
000250: 01,3250           13251                           NOOP
000251: 01,3251           40002                           CS       Q
000252:
000253:                                                                                                  #  NOTE THAT THIS PROGRAM SECTION IS NEVER ENTERED WHEN T-T1 G/E -1,
000254:                                                                                                  #  SINCE TD-T1+1 = (TD-T) + (T-T1+1), AND DELTA T = TD-T G/E +1 .  (G/E
000255:                                                                                                  #  SYMBOL MEANS GREATER THAN OR EQUAL TO).  THUS THERE NEED BE NO CON-
000256:                                                                                                  #  CERN OVER A PREVIOUS OR IMMINENT OVERFLOW OF TIME3 HERE.
000257:
000258: 01,3252           64736                           AD       POS1/2                                #  WHEN TD IS NEXT, FORM QUANTITY
000259: 01,3253           64736                           AD       POS1/2                                #    1.0 - DELTA T = 1.0 - (TD - T)
000260: 01,3254           56026                           XCH      TIME3
000261: 01,3255           64735                           AD       NEGMAX
000262: 01,3256           60002                           AD       Q                                     #  1.0 - DELTAT T NOW COMPLETE.
000263: 01,3257           00006                           EXTEND                                         #  ZERO INDEX Q.
000264: 01,3260           22007                           QXCH     7                                     #  (ZQ)
000265:


000267: 01,3261           57400        WTLST4             XCH      LST1
000268: 01,3262           57401                           XCH      LST1       +1
000269: 01,3263           57402                           XCH      LST1       +2
000270: 01,3264           57403                           XCH      LST1       +3
000271: 01,3265           57404                           XCH      LST1       +4
000272: 01,3266           57405                           XCH      LST1       +5
000273: 01,3267           57406                           XCH      LST1       +6
000274: 01,3270           57407                           XCH      LST1       +7
000275:
000276: 01,3271           30063                           CA       WAITADR                               #  (MINOR PART OF TASK CADR HAS BEEN IN L.)
000277: 01,3272           50002                           INDEX    Q
000278: 01,3273           13274                           TCF      +1
000279:
000280: 01,3274           53411                           DXCH     LST2
000281: 01,3275           53413                           DXCH     LST2       +2
000282: 01,3276           53415                           DXCH     LST2       +4
000283: 01,3277           53417                           DXCH     LST2       +6
000284: 01,3300           53421                           DXCH     LST2       +8D
000285: 01,3301           53423                           DXCH     LST2       +10D                       #  AT END, CHECK THAT C(LST2+10) IS STD
000286: 01,3302           53425                           DXCH     LST2       +12D
000287: 01,3303           53427                           DXCH     LST2       +14D
000288: 01,3304           53431                           DXCH     LST2       +16D
000289: 01,3305           65236                           AD       ENDTASK                               #    END ITEM, AS CHECK FOR EXCEEDING
000290:                                                                                                  #    THE LENGTH OF THE LIST.
000291: 01,3306           00006                           EXTEND                                         #  DUMMY TASK ADRES SHOULD BE IN FIXED-
000292: 01,3307           15215                           BZF      LVWTLIST                              #  FIXED SO ITS ADRES ALONE DISTINGUISHES
000293: 01,3310           13364                           TCF      WTABORT                               #  IT.
000294:


000296: 01,3311           10000        WTLST5             CCS      A                                     #  TEST   TD - T2 + 1
000297: 01,3312           61401                           AD       LST1       +1
000298: 01,3313           13317                           TCF      +4
000299: 01,3314           64753                           AD       ONE
000300: 01,3315           03375                           TC       WTLST2
000301: 01,3316           00001                           OCT      1
000302:
000303: 01,3317           10000                 +4        CCS      A                                     #  TEST   TD - T3 + 1
000304: 01,3320           61402                           AD       LST1       +2
000305: 01,3321           13325                           TCF      +4
000306: 01,3322           64753                           AD       ONE
000307: 01,3323           03375                           TC       WTLST2
000308: 01,3324           00002                           OCT      2
000309:
000310: 01,3325           10000                 +4        CCS      A                                     #  TEST   TD - T4 + 1
000311: 01,3326           61403                           AD       LST1       +3
000312: 01,3327           13333                           TCF      +4
000313: 01,3330           64753                           AD       ONE
000314: 01,3331           03375                           TC       WTLST2
000315: 01,3332           00003                           OCT      3
000316:
000317: 01,3333           10000                 +4        CCS      A                                     #  TEST   TD - T5 + 1
000318: 01,3334           61404                           AD       LST1       +4
000319: 01,3335           13341                           TCF      +4
000320: 01,3336           64753                           AD       ONE
000321: 01,3337           03375                           TC       WTLST2
000322: 01,3340           00004                           OCT      4
000323:
000324: 01,3341           10000                 +4        CCS      A                                     #  TEST   TD - T6 + 1
000325: 01,3342           61405                           AD       LST1       +5
000326: 01,3343           13347                           TCF      +4
000327: 01,3344           64753                           AD       ONE
000328: 01,3345           03375                           TC       WTLST2
000329: 01,3346           00005                           OCT      5
000330:
000331: 01,3347           10000                 +4        CCS      A                                     #  TEST   TD - T7 + 1
000332: 01,3350           61406                           AD       LST1       +6
000333: 01,3351           13355                           TCF      +4
000334: 01,3352           64753                           AD       ONE
000335: 01,3353           03375                           TC       WTLST2
000336: 01,3354           00006                           OCT      6
000337:


000339: 01,3355           10000                 +4        CCS      A
000340: 01,3356           61407                           AD       LST1       +7
000341: 01,3357           13363                           TCF      +4
000342: 01,3360           64753                           AD       ONE
000343: 01,3361           03375                           TC       WTLST2
000344: 01,3362           00007                           OCT      7
000345:
000346: 01,3363           10000                 +4        CCS      A
000347: 01,3364           03372        WTABORT            TC       FILLED
000348: 01,3365           13366                           NOOP                                           #  CAN'T GET HERE
000349: 01,3366           64753                           AD       ONE
000350: 01,3367           03375                           TC       WTLST2
000351: 01,3370           00010                           OCT      10
000352:
000353: 01,3371           40201        OCT40201           OCT      40201
000354:


000356: 01,3372           52062        FILLED             DXCH     WAITEXIT
000357: 01,3373           05706                           TC       BAILOUT1                              #  NO ROOM IN THE INN
000358: 01,3374           31203                           OCT      31203
000359:


000361:                                                                                                  #  THE ENTRY TO WTLST2 JUST PRECEDING OCT  N  IS FOR T  LE TD LE T   -1.
000362:                                                                                                  #                                                     N           N+1
000363:
000364:                                                                                                  #  (LE MEANS LESS THAN OR EQUAL TO).  AT ENTRY, C(A) = -(TD - T   + 1)
000365:                                                                                                  #                                                              N+1
000366:
000367:                                                                                                  #  THE LST1 ENTRY -(T   - T +1) IS TO BE REPLACED BY -(TD - T  + 1), AND
000368:                                                                                                  #                    N+1   N                                 N
000369:
000370:                                                                                                  #  THE ENTRY -(T   - TD + 1) IS TO BE INSERTED IMMEDIATELY FOLLOWING.
000371:                                                                                                  #               N+1
000372:
000373: 01,3375           54064        WTLST2             TS       WAITTEMP                              #      C(A) = -(TD - T   + 1)
000374: 01,3376           50002                           INDEX    Q
000375: 01,3377           30000                           CAF      0
000376: 01,3400           54002                           TS       Q                                     #  INDEX VALUE INTO Q.
000377:
000378: 01,3401           34753                           CAF      ONE
000379: 01,3402           60064                           AD       WAITTEMP
000380: 01,3403           50002                           INDEX    Q                                     #  C(A) = -(TD - T ) + 1.
000381: 01,3404           27377                           ADS      LST1       -1                         #                 N
000382:
000383: 01,3405           40064                           CS       WAITTEMP
000384: 01,3406           50002                           INDEX    Q
000385: 01,3407           13261                           TCF      WTLST4
000386:
000387:                                                                                                  #  C(TIME3) = 1.0 - (T1 - T)
000388:
000389:                                                                                                  #  C(LST1  ) = - (T2 - T1) + 1
000390:                                                                                                  #  C(LST1+1) = - (T3 - T2) + 1
000391:                                                                                                  #  C(LST1+2) = - (T4 - T3) + 1
000392:                                                                                                  #  C(LST1+3) = - (T5 - T4) + 1
000393:                                                                                                  #  C(LST1+4) = - (T6 - T5) + 1
000394:
000395:                                                                                                  #  C(LST2   ) = 2CADR TASK1
000396:                                                                                                  #  C(LST2+2 ) = 2CADR TASK2
000397:                                                                                                  #  C(LST2+4 ) = 2CADR TASK3
000398:                                                                                                  #  C(LST2+6 ) = 2CADR TASK4
000399:                                                                                                  #  C(LST2+8 ) = 2CADR TASK5
000400:                                                                                                  #  C(LST2+10) = 2CADR TASK6
000401:


000403:                                                                                                  #           ENTERS HERE ON T3 RUPT TO DISPATCH WAITLISTED TASK.
000404:
000405: 01,3410           00006        T3RUPT             EXTEND
000406: 01,3411           04007                           ROR      SUPERBNK                              #  READ CURRENT SUPERBANK VALUE AND
000407: 01,3412           54016                           TS       BANKRUPT                              #  SAVE WITH E AND F BANK VALUES.
000408: 01,3413           00006                           EXTEND
000409: 01,3414           22012                           QXCH     QRUPT
000410:
000411: 01,3415           34734        T3RUPT2            CAF      NEG1/2                                #  DISPATCH WAITLIST TASK.
000412: 01,3416           57407                           XCH      LST1       +7
000413: 01,3417           57406                           XCH      LST1       +6
000414: 01,3420           57405                           XCH      LST1       +5
000415: 01,3421           57404                           XCH      LST1       +4                         #  1.  MOVE UP LST1 CONTENTS, ENTERING
000416: 01,3422           57403                           XCH      LST1       +3                         #      A VALUE OF 1/2 +1 AT THE BOTTOM
000417: 01,3423           57402                           XCH      LST1       +2                         #      FOR T6-T5, CORRESPONDING TO THE
000418: 01,3424           57401                           XCH      LST1       +1                         #      INTERVAL 81.91 SEC FOR ENDTASK.
000419: 01,3425           57400                           XCH      LST1
000420: 01,3426           64733                           AD       POSMAX                                #  2. SET T3 = 1.0 - T2 -T USING LIST 1.
000421: 01,3427           26026                           ADS      TIME3                                 #  SO T3 WONT TICK DURING UPDATE.
000422: 01,3430           54332                           TS       RUPTAGN
000423: 01,3431           44755                           CS       ZERO
000424: 01,3432           54332                           TS       RUPTAGN                               #  SETS RUPTAGN TO +1 ON OVERFLOW.
000425:
000426: 01,3433           00006                           EXTEND                                         #  DISPATCH TASK.
000427: 01,3434           45237                           DCS      ENDTASK
000428: 01,3435           53431                           DXCH     LST2       +16D
000429: 01,3436           53427                           DXCH     LST2       +14D
000430: 01,3437           53425                           DXCH     LST2       +12D
000431: 01,3440           53423                           DXCH     LST2       +10D
000432: 01,3441           53421                           DXCH     LST2       +8D
000433: 01,3442           53417                           DXCH     LST2       +6
000434: 01,3443           53415                           DXCH     LST2       +4
000435: 01,3444           53413                           DXCH     LST2       +2
000436: 01,3445           53411                           DXCH     LST2
000437:
000438: 01,3446           56001                           XCH      L
000439: 01,3447           00006                           EXTEND
000440: 01,3450           01007                           WRITE    SUPERBNK                              #  SET SUPERBANK FROM BBCON OF 2CADR
000441: 01,3451           56001                           XCH      L                                     #  RESTORE TO L FOR DXCH Z.
000442: 01,3452           52006                           DTCB
000443:


000445:                                                                                                  #           RETURN, AFTER EXECUTION OF T3 OVERFLOW TASK:
000446:
000447:    5261                                           BLOCK    02
000448:    5261                                           COUNT*   $$/WAIT
000449:    5261           10332        TASKOVER           CCS      RUPTAGN                               #  IF +1 RETURN TO T3RUPT, IF -0 RESUME.
000450:    5262           35220                           CAF      WAITBB
000451:    5263           54006                           TS       BBANK
000452:    5264           13415                           TCF      T3RUPT2                               #  DISPATCH NEXT TASK IF IT WAS DUE.
000453:
000454:    5265           30016                           CA       BANKRUPT
000455:    5266           00006                           EXTEND
000456:    5267           01007                           WRITE    SUPERBNK                              #  RESTORE SUPERBANK BEFORE RESUME IS DONE
000457:
000458:    5270           00006        RESUME             EXTEND
000459:    5271           22012                           QXCH     QRUPT
000460:    5272           30016        NOQRSM             CA       BANKRUPT
000461:    5273           56006                           XCH      BBANK
000462:    5274           52011        NOQBRSM            DXCH     ARUPT
000463:    5275           00003                           RELINT
000464:    5276           50017                           RESUME
000465:


000467:                                                                                                  #  LONGCALL
000468:
000469:                                                                                                  #  PROGRAM DESCRIPTION                                  DATE- 17 MARCH 1967
000470:                                                                                                  #  PROGRAM WRITTEN BY W.H. VANDEVER                    LOG SECTION WAITLIST
000471:                                                                                                  #  MOD BY- R. MELANSON TO ADD DOCUMENTATION       ASSEMBLY SUNDISK REV. 100
000472:
000473:                                                                                                  #  FUNCTIONAL DESCRIPTION-
000474:                                                                                                  #  LONGCALL IS CALLED WITH THE DELTA TIME ARRIVING IN A,L SCALED AS TIME2,TIME1 WITH THE 2CADR OF THE TASK
000475:                                                                                                  #  IMMEDIATELY FOLLOWING THE TC LONGCALL.  FOR EXAMPLE, IT MIGHT BE DONE AS FOLLOWS WHERE TIMELOC IS THE NAME OF
000476:                                                                                                  #  A DP REGISTER CONTAINING A DELTA TIME AND WHERE TASKTODO IS THE NAME OF THE LOCATION AT WHICH LONGCALL IS TO
000477:                                                                                                  #  START
000478:
000479:                                                                                                  #  CALLING SEQUENCE-
000480:                                                                                                  #                                                   EXTEND
000481:                                                                                                  #                                                   DCA    TIMELOC
000482:                                                                                                  #                                                   TC     LONGCALL
000483:                                                                                                  #                                                   2CADR  TASKTODO
000484:
000485:                                                                                                  #  NORMAL EXIT MODE-
000486:                                                                                                  #     1). TC    WAITLIST
000487:                                                                                                  #     2). DTCB  (TO L+3 OF CALLING ROUTINE 1ST PASS THRU LONGCYCL)
000488:                                                                                                  #     3). DTCB  (TO TASKOVER ON SUBSEQUENT PASSES THRU LONGCYCL)
000489:
000490:                                                                                                  #  ALARM OR ABORT EXIT MODE-
000491:                                                                                                  #     NONE
000492:
000493:                                                                                                  #  OUTPUT-
000494:                                                                                                  #     LONGTIME AND LONGTIME+1 = DELTA TIME
000495:                                                                                                  #     LONGEXIT AND LONGEXIT+1 = RETURN 2CADR
000496:                                                                                                  #     LONGCADR AND LONGCADR+1 = TASK 2CADR
000497:                                                                                                  #     A = SINGLE PRECISION TIME FOR WAITLIST
000498:
000499:                                                                                                  #  ERASABLE INITIALIZATION-
000500:                                                                                                  #     A = MOST SIGNIFICANT PART OF DELTA TIME
000501:                                                                                                  #     L = LEAST SIGNIFICANT PART OF DELTA TIME
000502:                                                                                                  #     Q = ADDRESS OF 2CADR TASK VALUE
000503:
000504:                                                                                                  #  DEBRIS-
000505:                                                                                                  #     A,Q,L
000506:                                                                                                  #     LONGCADR AND LONGCADR+1
000507:                                                                                                  #     LONGEXIT AND LONGEXIT+1
000508:                                                                                                  #     LONGTIME AND LONGTIME+1
000509:
000510:                                                                                                  #  *** THE FOLLOWING IS TO BE IN FIXED-FIXED AND UNSWITCHED ERRASIBLE ***
000511:
000512:    5277                                           BLOCK    02
000513:    5277  E3,1400                                  EBANK=   LST1
000514:    5277           53153        LONGCALL           DXCH     LONGTIME                              #  OBTAIN THE DELTA TIME
000515:
000516:    5300           00006                           EXTEND                                         #  OBTAIN THE 2CADR
000517:


000519:    5301           50002                           NDX      Q
000520:    5302           30001                           DCA      0
000521:    5303           53147                           DXCH     LONGCADR
000522:
000523:    5304           00006                           EXTEND                                         #  NOW GO TO THE APPROPRIATE SWITCHED BANK
000524:    5305           35310                           DCA      LGCL2CDR                              #  FOR THE REST OF LONGCALL
000525:    5306           52006                           DTCB
000526:
000527:    5307  E3,1400                                  EBANK=   LST1
000528:    5307           03453 02063  LGCL2CDR           2CADR    LNGCALL2
000529:
000530:                                                                                                  #  *** THE FOLLOWING MAY BE IN A SWITCHED BANK, INCLUDING ITS ERASABLE ***
000531:
000532: 01,3453                                           BANK     01
000533: 01,3453                                           COUNT*   $$/WAIT
000534: 01,3453           23435        LNGCALL2           LXCH     LONGEXIT   +1                         #  SAVE THE CORRECT BB FOR RETURN
000535: 01,3454           34752                           CA       TWO                                   #  OBTAIN THE RETURN ADDRESS
000536: 01,3455           26002                           ADS      Q
000537: 01,3456           55434                           TS       LONGEXIT
000538:
000539: 01,3457           31152                           CA       LONGTIME                              #  CHECK FOR LEGITIMATE DELTA-TIME
000540: 01,3460           10000                           CCS      A
000541: 01,3461           13467                           TCF      LONGCYCL                              #  HI-ORDER OK --> ALL IS OK.
000542: 01,3462           13464                           TCF      +2                                    #  HI-ORDER ZERO --> CHECK LO-ORDER.
000543: 01,3463           13522                           TCF      LONGPOOH                              #  HI-ORDER NEG. --> NEG. DT
000544: 01,3464           31153                 +2        CA       LONGTIME   +1                         #  CHECK LO-ORDER FOR ZERO OR NEGATIVE.
000545: 01,3465           00006                           EXTEND
000546: 01,3466           63522                           BZMF     LONGPOOH                              #  BAD DELTA-TIME.  ABORT


000549:
000550:                                                                                                  #           *** WAITLIST TASK LONGCYCL ***
000551: 01,3467           00006        LONGCYCL           EXTEND                                         #  CAN WE SUCCESFULLY TAKE ABOUT 1.25
000552: 01,3470           43501                           DCS      DPBIT14                               #  MINUTES OFF OF LONGTIME
000553: 01,3471           21153                           DAS      LONGTIME
000554:
000555: 01,3472           11153                           CCS      LONGTIME   +1                         #  THE REASONIBG BEHIND THIS PART IS
000556: 01,3473           13512                           TCF      MUCHTIME                              #  INVOLVED, TAKING INTO ACCOUNT THAT THE
000557:                                                                                                  #  WORDS MAY NOT BE SIGNED CORRECTED (DP
000558:                                                                                                  #  BASIC INSTRUCTIONS
000559:                                                                                                  #  DO NOT SIGN CORRECT) AND THAT WE SUBTRAC
000560:                                                                                                  #  TED BIT14 (1 OVER HALF THE POS. VALUE
000561:                                                                                                  #  REPRESENTIBLE IN SINGLE WORD)
000562: 01,3474           13475                           NOOP                                           #  CAN:T GET HERE    **********
000563: 01,3475           13476                           TCF      +1
000564: 01,3476           11152                           CCS      LONGTIME
000565: 01,3477           13512                           TCF      MUCHTIME
000566: 01,3500           00000        DPBIT14            OCT      00000
000567: 01,3501           20000                           OCT      20000
000568:
000569:                                                                                                  #  LONGCALL
000570:


000572: 01,3502           34736        LASTTIME           CA       BIT14                                 #  GET BACK THE CORRECT DELTA TFOR WAITLIST
000573: 01,3503           27153                           ADS      LONGTIME   +1
000574: 01,3504           05203                           TC       WAITLIST
000575: 01,3505  E3,1400                                  EBANK=   LST1
000576: 01,3505           03517 02063                     2CADR    GETCADR                               #  THE ENTRY TO OUR LONGCADR
000577:
000578: 01,3507           33521        LONGRTRN           CA       TSKOVCDR                              #  SET IT UP SO THAT ONLY THE FIRST EXIT IS
000579: 01,3510           53435                           DXCH     LONGEXIT                              #  TO THE CALLER OF LONGCALL
000580: 01,3511           52006                           DTCB                                           #  THE REST ARE TO TASKOVER
000581:
000582: 01,3512           34736        MUCHTIME           CA       BIT14                                 #  WE HAVE OVER OUR ABOUT 1.25 MINUTES
000583: 01,3513           05203                           TC       WAITLIST                              #  SO SET UP FOR ANOTHER CYCLE THROUGH HERE
000584: 01,3514  E3,1400                                  EBANK=   LST1
000585: 01,3514           03467 02063                     2CADR    LONGCYCL
000586:
000587: 01,3516           13507                           TCF      LONGRTRN                              #  NOW EXIT PROPERLY
000588:
000589:                                                                                                  #           *** WAITLIST TASK  GETCADR ***
000590: 01,3517           53147        GETCADR            DXCH     LONGCADR                              #  GET THE LONGCALL THAT WE WISHED TO START
000591: 01,3520           52006                           DTCB                                           #  AND TRANSFER CONTROL TO IT
000592:
000593: 01,3521           05261        TSKOVCDR           GENADR   TASKOVER
000594: 01,3522           53435        LONGPOOH           DXCH     LONGEXIT
000595: 01,3523           13525                           TCF      +2
000596: 01,3524           52062        WAITPOOH           DXCH     WAITEXIT
000597: 01,3525           05716                 +2        TC       POODOO1
000598: 01,3526           21204                           OCT      21204

End of include-file WAITLIST.agc.  Parent file is MAIN.agc


