
Source Code


000002:                                                                                                  ## Copyright:   Public domain.
000003:                                                                                                  ## Filename:    ERASABLE_ASSIGNMENTS.agc
000004:                                                                                                  ## Purpose:     Part of the source code for AGC program Retread 50.
000005:                                                                                                  ## Assembler:   yaYUL
000006:                                                                                                  ## Contact:     Ron Burkey <info@sandroid.org>.
000007:                                                                                                  ## Website:     www.ibiblio.org/apollo/Restoration.html
000008:                                                                                                  ## Mod history: 2019-06-12 MAS  Recreated from Computer History Museum's
000009:                                                                                                  ##                              physical core-rope modules.
000010:


000012:
000013: ???????                        A                  EQUALS   0
000014: ???????                        L                  EQUALS   1                                     #  L AND Q ARE BOTH CHANNELS AND REGISTERS.
000015: ???????                        Q                  EQUALS   2
000016: ???????                        EBANK              EQUALS   3
000017: ???????                        FBANK              EQUALS   4
000018: ???????                        Z                  EQUALS   5                                     #  ADJACENT TO FBANK AND BBANK FOR DXCH Z
000019: ???????                        BBANK              EQUALS   6                                     #  (DTCB) AND DXCH FBANK (DTCF).
000020:                                                                                                  #  REGISTER 7 IS A ZERO-SOURCE, USED BY ZL.
000021:
000022: ???????                        ARUPT              EQUALS   10                                    #  INTERRUPT STORAGE.
000023: ???????                        LRUPT              EQUALS   11
000024: ???????                        QRUPT              EQUALS   12
000025: ???????                        ZRUPT              EQUALS   15                                    #  (13 AND 14 ARE SPARES.)
000026: ???????                        BANKRUPT           EQUALS   16                                    #  USUALLY HOLDS FBANK OR BBANK.
000027: ???????                        BRUPT              EQUALS   17                                    #  RESUME ADDRESS AS WELL.
000028:
000029: ???????                        CYR                EQUALS   20
000030: ???????                        SR                 EQUALS   21
000031: ???????                        CYL                EQUALS   22
000032: ???????                        EDOP               EQUALS   23                                    #  EDITS INTERPRETIVE OPERATION CODE PAIRS.
000033:
000034:
000035:
000036: ???????                        TIME2              EQUALS   24
000037: ???????                        TIME1              EQUALS   25
000038: ???????                        TIME3              EQUALS   26
000039: ???????                        TIME4              EQUALS   27
000040: ???????                        TIME5              EQUALS   30
000041: ???????                        TIME6              EQUALS   31
000042: ???????                        CDUX               EQUALS   32
000043: ???????                        CDUY               EQUALS   33
000044: ???????                        CDUZ               EQUALS   34
000045: ???????                        OPTY               EQUALS   35
000046: ???????                        OPTX               EQUALS   36
000047: ???????                        PIPAX              EQUALS   37
000048: ???????                        PIPAY              EQUALS   40
000049: ???????                        PIPAZ              EQUALS   41
000050: ???????                        BMAGX              EQUALS   42
000051: ???????                        BMAGY              EQUALS   43
000052: ???????                        BMAGZ              EQUALS   44
000053: ???????                        INLINK             EQUALS   45
000054: ???????                        RNRAD              EQUALS   46
000055: ???????                        GYROCTR            EQUALS   47
000056: ???????                        CDUXCMD            EQUALS   50
000057: ???????                        CDUYCMD            EQUALS   51
000058: ???????                        CDUZCMD            EQUALS   52
000059: ???????                        OPTYCMD            EQUALS   53
000060: ???????                        OPTXCMD            EQUALS   54
000061: ???????                        EMSD               EQUALS   55
000062: ???????                        LEMONM             EQUALS   56


000064: ???????                        OUTLINK            EQUALS   57
000065: ???????                        ALTM               EQUALS   60
000066:
000067:    0067                                           SETLOC   67                                    #  DECODED REGISTER FOR NIGHT-WATCHMAN ALM.
000068:    0067                        NEWJOB             ERASE
000069:
000070:    0070                        LVSQUARE           EQUALS   34D                                   #  SQUARE OF VECTOR INPUT TO ABVAL AND UNIT
000071:    0070                        LV                 EQUALS   36D                                   #  LENGTH OF VECTOR INPUT TO UNIT.
000072:    0070                        X1                 EQUALS   38D                                   #  INTERPRETIVE SPECIAL REGISTERS RELATIVE
000073:    0070                        X2                 EQUALS   39D                                   #  TO THE WORK AREA.
000074:    0070                        S1                 EQUALS   40D
000075:    0070                        S2                 EQUALS   41D
000076:    0070                        QPRET              EQUALS   42D
000077:


000079:                                                                                                  #  GENERAL ERASABLE ASSIGNMENTS.
000080:
000081:                                                                                                  #           THE FOLLOWING ARE EXECUTIVE TEMPORARIES WHICH MAY BE USED BETWEEN CCS NEWJOB INQUIRIES.
000082:
000083:    0100                                           SETLOC   100
000084:
000085:    0100                        INTB15+            ERASE                                          #  REFLECTS 15TH BIT OF INDEXABLE ADDRESSES
000086:    0101     0100               DSEXIT             =        INTB15+                               #  RETURN FOR DSPIN
000087:    0101     0100               EXITEM             =        INTB15+                               #  RETURN FOR SCALE FACTOR ROUTINE SELECT
000088:    0101     0100               BLANKRET           =        INTB15+                               #  RETURN FOR 2BLANK
000089:
000090:    0101                        INTBIT15           ERASE                                          #  SIMILAR TO ABOVE.
000091:    0102     0101               WRDRET             =        INTBIT15                              #  RETURN FOR 5BLANK
000092:    0102     0101               WDRET              =        INTBIT15                              #  RETURN FOR DSPWD
000093:    0102     0101               DECRET             =        INTBIT15                              #  RETURN FOR PUTCOM(DEC LOAD)
000094:    0102     0101               21/22REG           =        INTBIT15                              #  TEMP FOR CHARIN
000095:
000096:    0102                        ADDRWD             ERASE                                          #  12 BIT INTERPRETIVE OPERAND SUB-ADDRESS.
000097:    0103                        POLISH             ERASE                                          #  HOLDS CADR MADE FROM POLISH ADDRESS.
000098:    0104     0103               UPDATRET           =        POLISH                                #  RETURN FOR UPDATNN, UPDATVB
000099:    0104     0103               CHAR               =        POLISH                                #  TEMP FOR CHARIN
000100:    0104     0103               ERCNT              =        POLISH                                #  COUNTER FOR ERROR LIGHT RESET
000101:    0104     0103               DECOUNT            =        POLISH                                #  COUNTER FOR SCALING AND DISPLAY (DEC)
000102:
000103:    0104                        FIXLOC             ERASE                                          #  WORK AREA ADDRESS.
000104:
000105:    0105                        OVFIND             ERASE                                          #  SET NON-ZERO ON OVERFLOW.
000106:
000107:    0106                        VBUF               ERASE    +5                                    #  TEMPORARY STORAGE USED FOR VECTORS.
000108:    0114     0106               SGNON              =        VBUF                                  #  TEMP FOR +,- ON
000109:    0114     0106               NOUNTEM            =        VBUF                                  #  COUNTER FOR MIXNOUN FETCH
000110:    0114     0106               DISTEM             =        VBUF                                  #  COUNTER FOR OCTAL DISPLAY VERBS
000111:    0114     0106               DECTEM             =        VBUF                                  #  COUNTER FOR FETCH (DEC DISPLAY VERBS)
000112:
000113:    0114     0107               SGNOFF             =        VBUF       +1                         #  TEMP FOR +,- ON
000114:    0114     0107               NVTEMP             =        VBUF       +1                         #  TEMP FOR NVSUB
000115:    0114     0107               SFTEMP1            =        VBUF       +1                         #  STORAGE FOR SF CONST HI PART(=SFTEMP2-1)
000116:
000117:    0114     0110               CODE               =        VBUF       +2                         #  FOR DSPIN
000118:    0114     0110               SFTEMP2            =        VBUF       +2                         #  STORAGE FOR SF CONST LO PART(=SFTEMP1+1)
000119:
000120:    0114     0111               MIXTEMP            =        VBUF       +3                         #  FOR MIXNOUN DATA
000121:    0114     0111               SIGNRET            =        VBUF       +3                         #  RETURN FOR +,- ON
000122:
000123:                                                                                                  #  ALSO MIXTEMP+1 = VBUF+4, MIXTEMP+2 = VBUF+5.
000124:
000125:    0114                        BUF                ERASE    +2                                    #  TEMPORARY SCALAR STORAGE.
000126:    0117                        BUF2               ERASE    +1
000127:    0121     0114               INDEXLOC           EQUALS   BUF                                   #  CONTAINS ADDRESS OF SPECIFIED INDEX.
000128:    0121     0114               SWWORD             EQUALS   BUF                                   #  ADDRESS OF SWITCH WORD.


000130:    0121     0115               SWBIT              EQUALS   BUF        +1                         #  SWITCH BIT WITHIN SWITCH WORD.
000131:    0121                        MPTEMP             ERASE                                          #  TEMPORARY USED IN MULTIPLY AND SHIFT.
000132:    0122                        DOTINC             ERASE                                          #  COMPONENT INCREMENT FOR DOT SUBROUTINE.
000133:    0123     0122               DVSIGN             EQUALS   DOTINC                                #  DETERMINES SIGN OF DDV RESULT.
000134:    0123     0122               ESCAPE             EQUALS   DOTINC                                #  USED IN ARCSIN/ARCCOS.
000135:    0123     0122               ENTRET             =        DOTINC                                #  EXIT FROM ENTER
000136:
000137:    0123                        DOTRET             ERASE                                          #  RETURN FROM DOT SUBROUTINE.
000138:    0124     0123               DVNORMCT           EQUALS   DOTRET                                #  DIVIDEND NORMALIZATION COUNT IN DDV.
000139:    0124     0123               ESCAPE2            EQUALS   DOTRET                                #  ALTERNATE ARCSIN/ARCCOS SWITCH.
000140:    0124     0123               WDCNT              =        DOTRET                                #  CHAR COUNTER FOR DSPWD
000141:    0124     0123               INREL              =        DOTRET                                #  INPUT BUFFER SELECTOR ( X,Y,Z, REG )
000142:
000143:    0124                        MATINC             ERASE                                          #  VECTOR INCREMENT IN MXV AND VXM.
000144:    0125     0124               MAXDVSW            EQUALS   MATINC                                #  +0 IF DP QUOTIENT IS NEAR ONE - ELSE -1.
000145:    0125     0124               POLYCNT            EQUALS   MATINC                                #  POLYNOMIAL LOOP COUNTER
000146:    0125     0124               DSPMMTEM           =        MATINC                                #  DSPCOUNT SAVE FOR DSPMM
000147:    0125     0124               MIXBR              =        MATINC                                #  INDICATOR FOR MIXED OR NORMAL NOUN
000148:
000149:    0125                        TEM1               ERASE                                          #  EXEC TEMP
000150:    0126     0125               POLYRET            =        TEM1
000151:    0126     0125               DSREL              =        TEM1                                  #  REL ADDRESS FOR DSPIN
000152:
000153:    0126                        TEM2               ERASE                                          #  EXEC TEMP
000154:    0127     0126               DSMAG              =        TEM2                                  #  MAGNITUDE STORE FOR DSPIN
000155:    0127     0126               IDADDTEM           =        TEM2                                  #  MIXNOUN INDIRECT ADDRESS STORAGE
000156:
000157:    0127                        TEM3               ERASE                                          #  EXEC TEMP
000158:    0130     0127               COUNT              =        TEM3                                  #  FOR DSPIN
000159:
000160:    0130                        TEM4               ERASE                                          #  EXEC TEMP
000161:    0131     0130               LSTPTR             =        TEM4                                  #  LIST POINTER FOR GRABUSY
000162:    0131     0130               RELRET             =        TEM4                                  #  RETURN FOR RELDSP
000163:    0131     0130               FREERET            =        TEM4                                  #  RETURN FOR FREEDSP
000164:
000165:    0131                        TEM5               ERASE                                          #  EXEC TEMP
000166:    0132     0131               NOUNADD            =        TEM5                                  #  TEMP STORAGE FOR NOUN ADDRESS
000167:
000168:    0132                        NNADTEM            ERASE                                          #  TEMP FOR NOUN ADDRESS TABLE ENTRY
000169:    0133                        NNTYPTEM           ERASE                                          #  TEMP FOR NOUN TYPE TABLE ENTRY
000170:    0134                        IDAD1TEM           ERASE                                          #  TEMP FOR INDIR ADRESS TABLE ENTRY(MIXNN)
000171:                                                                                                  #  MUST = IDAD2TEM-1, = IDAD3TEM-2.
000172:    0135                        IDAD2TEM           ERASE                                          #  TEMP FOR INDIR ADRESS TABLE ENTRY(MIXNN)
000173:                                                                                                  #  MUST = IDAD1TEM+1, = IDAD3TEM-1.
000174:    0136                        IDAD3TEM           ERASE                                          #  TEMP FOR INDIR ADRESS TABLE ENTRY(MIXNN)
000175:                                                                                                  #  MUST = IDAD1TEM+2, = IDAD2TEM+1.
000176:    0137                        RUTMXTEM           ERASE                                          #  TEMP FOR SF ROUT TABLE ENTRY(MIXNN ONLY)
000177:
000178:
000179:
000180:                                                                                                  #           STORAGE USED BY THE EXECUTIVE.
000181:


000183:    0140                        MPAC               ERASE    +6                                    #  MULTI-PURPOSE ACCUMULATOR.
000184:    0147                        MODE               ERASE                                          #  +1 FOR TP, +0 FOR DP, OR -1 FOR VECTOR.
000185:    0150                        LOC                ERASE                                          #  LOCATION ASSOCIATED WITH JOB.
000186:    0151                        BANKSET            ERASE                                          #  USUALLY CONTAINS BBANK SETTING.
000187:    0152                        PUSHLOC            ERASE                                          #  WORD OF PACKED INTERPRETIVE PARAMETERS.
000188:    0153                        PRIORITY           ERASE                                          #  PRIORITY OF PRESENT JOB AND WORK AREA.
000189:
000190:    0154                                           ERASE    +71D                                  #  SEVEN SETS OF 12 REGISTERS EACH.
000191:
000192:    0264                        VAC1USE            ERASE
000193:    0265                        VAC1               ERASE    +42D
000194:    0340                        VAC2USE            ERASE
000195:    0341                        VAC2               ERASE    +42D
000196:    0414                        VAC3USE            ERASE
000197:    0415                        VAC3               ERASE    +42D
000198:    0470                        VAC4USE            ERASE
000199:    0471                        VAC4               ERASE    +42D
000200:    0544                        VAC5USE            ERASE
000201:    0545                        VAC5               ERASE    +42D
000202:
000203:                                                                                                  #           INTERPRETIVE SWITCH RESERVATIONS.
000204:
000205:    0620                        STATE              ERASE    +3                                    #  60 SWITCHES PRESENTLY.
000206:
000207:                                                                                                  #           THE FOLLOWING SET COMPRISES THE INTERRUPT TEMPORARY STORAGE POOL.
000208:
000209:    0624                        WAITEXIT           ERASE
000210:    0625     0624               KEYTEMP1           =        WAITEXIT                              #  TEMP FOR KEYRUPT, UPRUPT
000211:    0625     0624               DSRUPTEM           =        WAITEXIT                              #  TEMP FOR DSPOUT
000212:
000213:    0625                        WAITBANK           ERASE
000214:    0626                        EXECTEM1           ERASE
000215:    0627                        EXECTEM2           ERASE
000216:    0630                        WAITADR            ERASE
000217:    0631                        WAITTEMP           ERASE
000218:
000219:    0632                        NEWPRIO            ERASE                                          #  EXECUTIVE RESERVATIONS (TEMP ONLY).
000220:    0633                        NEWLOC             ERASE    +1
000221:    0635                        LOCCTR             ERASE
000222:
000223:                                                                                                  #           WAITLIST REPEAT FLAG:
000224:
000225:    0636                        RUPTAGN            ERASE
000226:    0637     0636               KEYTEMP2           =        RUPTAGN                               #  TEMP FOR KEYRUPT, UPRUPT
000227:


000229:                                                                                                  #  THE FOLLOWING REGISTERS ARE RESERVED FOR PINBALL
000230:
000231:
000232:
000233:                                                                                                  #  RESERVED FOR PINBALL EXECUTIVE ACTION
000234:
000235:    0637                        DSPCOUNT           ERASE                                          #  DISPLAY POSITION INDICATOR
000236:    0640                        DECBRNCH           ERASE                                          #  +DEC, - DEC, OCT INDICATOR
000237:    0641                        VERBREG            ERASE                                          #  VERB CODE
000238:    0642                        NOUNREG            ERASE                                          #  NOUN CODE
000239:    0643                        XREG               ERASE                                          #  R1 INPUT BUFFER
000240:    0644                        YREG               ERASE                                          #  R2 INPUT BUFFER
000241:    0645                        ZREG               ERASE                                          #  R3 INPUT BUFFER
000242:    0646                        XREGLP             ERASE                                          #  LO PART OF XREG (FOR DEC CONV ONLY)
000243:    0647                        YREGLP             ERASE                                          #  LO PART OF YREG (FOR DEC CONV ONLY)
000244:    0650                        ZREGLP             ERASE                                          #  LO PART OF ZREG (FOR DEC CONV ONLY)
000245:    0651                        MODREG             ERASE                                          #  MODE CODE
000246:    0652                        DSPLOCK            ERASE                                          #  KEYBOARD/SUBROUTINE CALL INTERLOCK
000247:    0653                        REQRET             ERASE                                          #  RETURN REGISTER FOR LOAD
000248:    0654                        LOADSTAT           ERASE                                          #  STATUS INDICATOR FOR LOADTST
000249:    0655                        CLPASS             ERASE                                          #  PASS INDICATOR CLEAR
000250:    0656                        NOUT               ERASE                                          #  ACTIVITY COUNTER FOR DSPTAB
000251:    0657                        NOUNCADR           ERASE                                          #  MACHINE CADR FOR NOUN
000252:    0660                        MONSAVE            ERASE                                          #  N/V CODE FOR MONITOR. (= MONSAVE1-1)
000253:    0661                        MONSAVE1           ERASE                                          #  NOUNCADR FOR MONITOR(MATBS) =MONSAVE+1
000254:    0662                        DSPTAB             ERASE    +11D                                  #  0-10D, DISPLAY PANEL BUFF. 11D, C/S LTS.
000255:    0676                        CADRSTOR           ERASE                                          #  ENDIDLE STORAGE
000256:    0677                        GRABLOCK           ERASE                                          #  INTERNAL INTERLOCK FOR DISPLAY SYSTEM
000257:    0700                        NVQTEM             ERASE                                          #  NVSUB STORAGE FOR CALLING ADDRESS
000258:                                                                                                  #  MUST = NVBNKTEM-1
000259:    0701                        NVBNKTEM           ERASE                                          #  NVSUB STORAGE FOR CALLING BANK
000260:                                                                                                  #  MUST = NVQTEM+1
000261:    0702                        DSPLIST            ERASE    +2                                    #  WAITING LIST FOR DSP SYST INTERNAL USE
000262:    0705                        EXTVBACT           ERASE                                          #  EXTENDED VERB ACTIVITY INTERLOCK
000263:    0706                        DSPTEM1            ERASE    +2                                    #  BUFFER STORAGE AREA 1 (MOSTLY FOR TIME)
000264:    0711                        DSPTEM2            ERASE    +2                                    #  BUFFER STORAGE AREA 2 (MOSTLY FOR DEG)
000265:                                                                                                  #  END OF ERASABLES RESERVED FOR PINBALL EXECUTIVE ACTION
000266:
000267:
000268:
000269:                                                                                                  #  RESERVED FOR PINBALL INTERRUPT ACTION
000270:
000271:    0714                        DSPCNT             ERASE                                          #  COUNTER FOR DSPOUT
000272:    0715                        UPLOCK             ERASE                                          #  BIT1 = UPLINK INTERLOCK (ACTIVATED BY
000273:                                                                                                  #  RECEPTION OF A BAD MESSAGE IN UPLINK)
000274:                                                                                                  #  END OF ERASABLES RESERVED FOR PINBALL INTERRUPT ACTION
000275:


000277:                                                                                                  #  TEMPORARY PHONY ASSIGNMENTS TO KEEP PINBALL FROM HAVING BAD ASSEMBLIES
000278:
000279:    0716                        THETAD             ERASE    +2
000280:    0721                        FAILREG            ERASE
000281:    0722                        TDEC               ERASE    +1
000282:    0724                        TET                ERASE    +1
000283:    0726                        MEASQ              ERASE    +1
000284:    0730                        ROLL               ERASE    +2
000285:    0733                        LANDMARK           ERASE    +5
000286:    0741                        GBIASX             ERASE    +2
000287:    0744                        ADIAX              ERASE    +2
000288:    0747                        ADSRAX             ERASE    +2
000289:    0752                        DESOPTX            ERASE    +1
000290:    0754                        SAMPTIME           ERASE    +1
000291:    0756                        DELVX              ERASE    +5
000292:    0764                        PBIASX             ERASE
000293:    0765                        PIPASCFX           ERASE
000294:    0766                        PBIASY             ERASE
000295:    0767                        PIPASCFY           ERASE
000296:    0770                        PBIASZ             ERASE
000297:    0771                        PIPASCFZ           ERASE
000298:    1000                                           SETLOC   1000
000299:    1000                        DELR               ERASE    +5
000300:    1006                        DELVEL             ERASE    +5
000301:    1014                        MEASMODE           ERASE
000302:    1015                        DELTAQ             ERASE    +1
000303:    1017                        WASKSET            ERASE
000304:                                                                                                  #  END OF PHONY ASSIGNMENTS
000305:


000307:
000308:                                                                                                  #  ASSIGNMENTS FOR T4RUPT PROGRAM
000309:    1020                        DSRUPTSW           ERASE
000310:    1021                        OLDERR             ERASE
000311:    1022                        WASOPSET           ERASE
000312:                                                                                                  #  END OF T4RUPT ASSIGNMENTS
000313:
000314:
000315:
000316:                                                                                                  #  ASSIGNMENTS FOR DOWNRUPT
000317:
000318:    1023                        DISPBUF            ERASE
000319:    1024                        TMKEYBUF           ERASE
000320:                                                                                                  #  END OF DOWNRUPT ASSIGNMENTS
000321:
000322:
000323:
000324:                                                                                                  #  ASSIGNMENTS FOR SELF CHECK
000325:
000326:                                                                                                  #  ADDRESSES TO BE USED FOR INDEX INSTRUCTION WITHOUT EXTRACODES
000327:    1025                        NDX+0              ERASE
000328:    1026                        NDX+MAX            ERASE
000329:    1027                        NDXKEEP1           ERASE
000330:    1030                        NDXKEEP2           ERASE
000331:    1031                        NDXKEEP3           ERASE
000332:    1032                        NDXSELF1           ERASE
000333:    1033                        NDXSELF2           ERASE
000334:
000335:    1034                        KEEP1              ERASE
000336:    1035                        KEEP2              ERASE
000337:    1036                        KEEP3              ERASE
000338:    1037                        KEEP4              ERASE
000339:    1040                        KEEP5              ERASE
000340:    1041                        KEEP6              ERASE
000341:    1042                        KEEP7              ERASE
000342:
000343:    1043                        SELFRET            ERASE


000345:    1044                        SFAIL              ERASE    +1


000347:    1046                        ERCOUNT            ERASE
000348:    1047                        SCOUNT             ERASE
000349:    1050                        SMODE              ERASE
000350:
000351:                                                                                                  #  END OF SELF CHECK ASSIGNMENTS
000352:


000355:    1200                                           SETLOC   1200
000356:    1200                        CDUIND             ERASE
000357:    1201                        ITEMP1             ERASE
000358:    1202                        COMMAND            ERASE
000359:    1205                                           SETLOC   1205
000360:    1205                        UNK1205            ERASE
000361:    1206                        UNK1206            ERASE
000362:    1207                        UNK1207            ERASE
000363:    1210                        UNK1210            ERASE


000365:
000366:
000367:                                                                                                  #  WAITLIST TASK LISTS:
000368:
000369: E3,1400                                           SETLOC   1400
000370:


000372: E3,1400                        LST1               ERASE    +4                                    #  DELTA TS.
000373: E3,1405                        LST2               ERASE    +11D                                  #  2CADR TASK ADDRESSES.

End of include-file ERASABLE_ASSIGNMENTS.agc.  Parent file is MAIN.agc


