
Source Code


000002:                                                                                                  ## Copyright:   Public domain.
000003:                                                                                                  ## Filename:    EXECUTIVE.agc
000004:                                                                                                  ## Purpose:     Part of the source code for AGC program Retread 50.
000005:                                                                                                  ## Assembler:   yaYUL
000006:                                                                                                  ## Contact:     Ron Burkey <info@sandroid.org>.
000007:                                                                                                  ## Website:     www.ibiblio.org/apollo/Restoration.html
000008:                                                                                                  ## Mod history: 2019-06-12 MAS  Recreated from Computer History Museum's
000009:                                                                                                  ##                              physical core-rope modules.
000010:


000012:
000013:    4131                                           SETLOC   ENDIBNKF
000014:
000015:                                                                                                  #           TO ENTER A JOB REQUEST REQUIRING NO VAC AREA:
000016:
000017:    4131           54632        NOVAC              TS       NEWPRIO                               #  SAVE PRIORITY OF NEW JOB.
000018:    4132           00006                           EXTEND
000019:    4133           50002                           INDEX    Q                                     #  Q WILL BE UNDISTURBED THROUGHOUT.
000020:    4134           30001                           DCA      0                                     #  2CADR OF JOB ENTERED.
000021:    4135           52634                           DXCH     NEWLOC
000022:    4136           34214                           CAF      EXECBANK
000023:    4137           56004                           XCH      FBANK
000024:    4140           54626                           TS       EXECTEM1
000025:    4141           12241                           TCF      NOVAC2                                #  ENTER EXECUTIVE BANK.
000026:
000027:                                                                                                  #           TO ENTER A JOB REQUEST REQUIRING A VAC AREA - E.G., ALL (PARTIALLY) INTERPRETIVE JOBS.
000028:
000029:    4142           54632        FINDVAC            TS       NEWPRIO
000030:    4143           00006                           EXTEND
000031:    4144           50002                           INDEX    Q
000032:    4145           30001                           DCA      0
000033:    4146           52634                           DXCH     NEWLOC
000034:    4147           34214                           CAF      EXECBANK
000035:    4150           56004                           XCH      FBANK
000036:    4151           12220                           TCF      FINDVAC2                              #  OFF TO EXECUTIVE SWITCHED-BANK.
000037:
000038:                                                                                                  #           TO SUSPEND A BASIC JOB SO A HIGHER PRIORITY JOB MAY BE SERVICED:
000039:
000040:    4152           34214        CHANG1             CAF      EXECBANK
000041:    4153           54001                           TS       L
000042:    4154           30002                           CA       Q
000043:    4155           22006                 +3        LXCH     BBANK
000044:    4156           00004                           INHINT
000045:    4157           12316                           TCF      CHANJOB
000046:
000047:                                                                                                  #           TO SUSPEND AN INTERPRETIVE JOB:
000048:
000049:    4160           34214        CHANG2             CAF      EXECBANK
000050:    4161           54001                           TS       L
000051:    4162           40150                           CS       LOC                                   #  NEGATIVE LOC SHOWS JOB INTERPRETIVE.
000052:    4163           14155                           TCF      CHANG1     +3
000053:


000055:                                                                                                  #           TO VOLUNTARILY SUSPEND A JOB UNTIL THE COMPLETION OF SOME ANTICIPATED EVENT (I/O EVENT ETC.):
000056:
000057:    4164           54150        JOBSLEEP           TS       LOC
000058:    4165           34214                           CAF      EXECBANK
000059:    4166           54004                           TS       FBANK
000060:    4167           12375                           TCF      JOBSLP1
000061:
000062:                                                                                                  #           TO AWAKEN A JOB PUT TO SLEEP IN THE ABOVE FASHION:
000063:
000064:    4170           54633        JOBWAKE            TS       NEWLOC
000065:    4171           47645                           CS       TWO                                   #  EXIT IS VIA FINDVAC/NOVAC PROCEDURES.
000066:    4172           26002                           ADS      Q
000067:    4173           34214                           CAF      EXECBANK
000068:    4174           56004                           XCH      FBANK
000069:    4175           12406                           TCF      JOBWAKE2
000070:
000071:                                                                                                  #           TO CHANGE THE PRIORITY OF A JOB CURRENTLY UNDER EXECUTION:
000072:
000073:    4176           00004        PRIOCHNG           INHINT                                         #  NEW PRIORITY ARRIVES IN A. RETURNS TO
000074:    4177           54632                           TS       NEWPRIO                               #  CALLER AS SOON AS NEW JOB PRIORITY IS
000075:    4200           34214                           CAF      EXECBANK                              #  HIGHEST. PREPARE FOR POSSIBLE BASIC-
000076:    4201           56006                           XCH      BBANK                                 #  STYLE CHANGE-JOB.
000077:    4202           54151                           TS       BANKSET
000078:    4203           30002                           CA       Q
000079:    4204           12454                           TCF      PRIOCH2
000080:
000081:                                                                                                  #           TO REMOVE A JOB FROM EXECUTIVE CONSIDERATIONS:
000082:
000083:    4205           34214        ENDOFJOB           CAF      EXECBANK
000084:    4206           54004                           TS       FBANK
000085:    4207           12465                           TCF      ENDJOB1
000086:
000087:    4210           30626        ENDFIND            CA       EXECTEM1                              #  RETURN TO CALLER AFTER JOB ENTRY
000088:    4211           54004                           TS       FBANK                                 #  COMPLETE.
000089:    4212           50002                           INDEX    Q
000090:    4213           00002                           TC       2
000091:
000092:    4214           02220        EXECBANK           CADR     FINDVAC2
000093:


000095:                                                                                                  #           LOCATE AN AVAILABLE VAC AREA.
000096:
000097: 01,2220                                           SETLOC   ENDINTS1
000098:
000099: 01,2220           54626        FINDVAC2           TS       EXECTEM1                              #  (SAVE CALLER'S BANK FIRST.)
000100: 01,2221           10264                           CCS      VAC1USE
000101: 01,2222           12234                           TCF      VACFOUND
000102: 01,2223           10340                           CCS      VAC2USE
000103: 01,2224           12234                           TCF      VACFOUND
000104: 01,2225           10414                           CCS      VAC3USE
000105: 01,2226           12234                           TCF      VACFOUND
000106: 01,2227           10470                           CCS      VAC4USE
000107: 01,2230           12234                           TCF      VACFOUND
000108: 01,2231           10544                           CCS      VAC5USE
000109: 01,2232           12234                           TCF      VACFOUND
000110: 01,2233           02233                           TC       -0                                    #  ABORT IF NO VAC AREAS AVAILABLE.
000111:
000112: 01,2234           67645        VACFOUND           AD       TWO                                   #  RESERVE THIS VAC AREA BY STORING A ZERO
000113: 01,2235           22007                           ZL                                             #  IN ITS VAC USE REGISTER AND STORE THE
000114: 01,2236           50000                           INDEX    A                                     #  ADDRESS OF THE FIRST WORD OF IT IN THE
000115: 01,2237           21777                           LXCH     0          -1                         #  LOW NINE BITS OF THE PRIORITY WORD.
000116: 01,2240           26632                           ADS      NEWPRIO
000117:
000118: 01,2241           37653        NOVAC2             CAF      ZERO                                  #  NOVAC ENTERS HERE. FIND A CORE SET.
000119: 01,2242           54635                           TS       LOCCTR
000120: 01,2243           32250                           CAF      NO.CORES                              #  SEVEN SETS OF ELEVEN REGISTERS EACH.
000121: 01,2244           54627        NOVAC3             TS       EXECTEM2
000122: 01,2245           50635                           INDEX    LOCCTR
000123: 01,2246           10153                           CCS      PRIORITY                              #  EACH PRIORITY REGISTER CONTAINS -0 IF
000124: 01,2247           12310                           TCF      NEXTCORE                              #  THE CORRESPONDING CORE SET IS AVAILABLE.
000125: 01,2250           00006        NO.CORES           DEC      6          B-14
000126: 01,2251           12310                           TCF      NEXTCORE                              #  AN ACTIVE JOB HAS A POSITIVE PRIORITY
000127:                                                                                                  #  BUT A DORMANT JOB'S PRIORITY IS NEGATIVE
000128:


000130: 01,2252           30632        CORFOUND           CA       NEWPRIO                               #  SET THE PRIORITY OF THIS JOB IN THE CORE
000131: 01,2253           50635                           INDEX    LOCCTR                                #  SET'S PRIORITY REGISTER AND SET THE
000132: 01,2254           54153                           TS       PRIORITY                              #  JOB'S PUSH-DOWN POINTER AT THE BEGINNING
000133: 01,2255           72503                           MASK     LOW9                                  #  OF THE WORK AREA AND OVERFLOW INDICATOR
000134: 01,2256           50635                           INDEX    LOCCTR
000135: 01,2257           54152                           TS       PUSHLOC                               #  OFF TO PREPARE FOR INTERPRETIVE PROGRAMS
000136:
000137: 01,2260           10635                           CCS      LOCCTR                                #  IF CORE SET ZERO IS BEING LOADED, SET UP
000138: 01,2261           12275                           TCF      SETLOC                                #  OVFIND AND FIXLOC IMMEDIATELY .
000139: 01,2262           54105                           TS       OVFIND
000140: 01,2263           30152                           CA       PUSHLOC
000141: 01,2264           54104                           TS       FIXLOC
000142:
000143: 01,2265           10067        SPECTEST           CCS      NEWJOB                                #  SEE IF ANY ACTIVE JOBS WAITING (RARE).
000144: 01,2266           12275                           TCF      SETLOC                                #  MUST BE AWAKENED BUT UNCHANGED JOB.
000145: 01,2271                                           SETLOC   +2
000146: 01,2271           54067                           TS       NEWJOB                                #  +0 SHOWS ACTIVE JOB ALREADY SET.
000147: 01,2272           52634                           DXCH     NEWLOC
000148: 01,2273           52151                           DXCH     LOC
000149: 01,2274           14210                           TCF      ENDFIND
000150:
000151: 01,2275           52634        SETLOC             DXCH     NEWLOC                                #  SET UP THE LOCATION REGISTERS FOR THIS
000152: 01,2276           50635                           INDEX    LOCCTR
000153: 01,2277           52151                           DXCH     LOC
000154: 01,2300           50067                           INDEX    NEWJOB                                #  THIS INDEX INSTRUCTION INSURES THAT THE
000155: 01,2301           40153                           CS       PRIORITY                              #  HIGHEST ACTIVE PRIORITY WILL BE COMPARED
000156: 01,2302           60632                           AD       NEWPRIO                               #  WITH THE NEW PRIORITY TO SEE IF NEWJOB
000157: 01,2303           00006                           EXTEND                                         #  SHOULD BE SET TO SIGNAL A SWITCH.
000158: 01,2304           64210                           BZMF     ENDFIND
000159: 01,2305           30635                           CA       LOCCTR                                #  LOCCTR IS LEFT SET AT THIS CORE SET IF
000160: 01,2306           54067                           TS       NEWJOB                                #  THE CALLER WANTS TO LOAD ANY MPAC
000161: 01,2307           14210                           TCF      ENDFIND                               #  REGISTERS, ETC.
000162:
000163: 01,2310           32416        NEXTCORE           CAF      COREINC
000164: 01,2311           26635                           ADS      LOCCTR
000165: 01,2312           10627                           CCS      EXECTEM2
000166: 01,2313           12244                           TCF      NOVAC3
000167: 01,2314           02314                           TC       -0                                    #  ABORT IF NO MORE CORE SETS.
000168:


000170:                                                                                                  #           THE FOLLOWING ROUTINE SWAPS CORE SET 0 WITH THAT WHOSE RELATIVE ADDRESS IS IN NEWJOB.
000171:
000172: 01,2315           52151                 -1        DXCH     LOC
000173: 01,2316           50067        CHANJOB            INDEX    NEWJOB                                #  LOC ARRIVES IN A AND BBANK IN L.
000174: 01,2317           52151                           DXCH     LOC
000175: 01,2320           52151                           DXCH     LOC
000176:
000177: 01,2321           52141                           DXCH     MPAC                                  #  SWAP MULTI-PURPOSE ACCUMULATOR AREAS.
000178: 01,2322           50067                           INDEX    NEWJOB
000179: 01,2323           52141                           DXCH     MPAC
000180: 01,2324           52141                           DXCH     MPAC
000181: 01,2325           52143                           DXCH     MPAC       +2
000182: 01,2326           50067                           INDEX    NEWJOB
000183: 01,2327           52143                           DXCH     MPAC       +2
000184: 01,2330           52143                           DXCH     MPAC       +2
000185: 01,2331           52145                           DXCH     MPAC       +4
000186: 01,2332           50067                           INDEX    NEWJOB
000187: 01,2333           52145                           DXCH     MPAC       +4
000188: 01,2334           52145                           DXCH     MPAC       +4
000189: 01,2335           52147                           DXCH     MPAC       +6
000190: 01,2336           50067                           INDEX    NEWJOB
000191: 01,2337           52147                           DXCH     MPAC       +6
000192: 01,2340           52147                           DXCH     MPAC       +6
000193:
000194: 01,2341           37653                           CAF      ZERO
000195: 01,2342           56105                           XCH      OVFIND                                #  MAKE PUSHLOC NEGATIVE IF OVFIND NZ.
000196: 01,2343           00006                           EXTEND
000197: 01,2344           12347                           BZF      +3
000198: 01,2345           40152                           CS       PUSHLOC
000199: 01,2346           54152                           TS       PUSHLOC
000200:
000201: 01,2347           52153                           DXCH     PUSHLOC
000202: 01,2350           50067                           INDEX    NEWJOB
000203: 01,2351           52153                           DXCH     PUSHLOC
000204: 01,2352           52153                           DXCH     PUSHLOC                               #  SWAPS PUSHLOC AND PRIORITY.
000205: 01,2353           10152                           CCS      PUSHLOC                               #  SET OVERFLOW INDICATOR ACCORDING TO
000206: 01,2354           37653                           CAF      ZERO
000207: 01,2355           12362                           TCF      ENDPRCHG   -1
000208: 01,2356           40152                           CS       PUSHLOC
000209: 01,2357           54152                           TS       PUSHLOC
000210: 01,2360           37646                           CAF      ONE
000211: 01,2361           56105                           XCH      OVFIND
000212: 01,2362           54067                           TS       NEWJOB
000213:
000214: 01,2363           00003        ENDPRCHG           RELINT
000215: 01,2364           52151                           DXCH     LOC                                   #  BASIC JOBS HAVE POSITIVE ADDRESSES, SO
000216: 01,2365           00006                           EXTEND                                         #  DISPATCH WITH A DTCB.
000217: 01,2366           62370                           BZMF     +2                                    #  IF INTERPRETIVE, SET UP EBANK, ETC.
000218: 01,2367           52006                           DTCB
000219:


000221: 01,2370           40000                           COM                                            #  EPILOGUE TO JOB CHANGE FOR INTERPRETIVE
000222: 01,2371           54150                           TS       LOC                                   #  RESUME.
000223: 01,2372           36232                           CAF      FBANKMSK
000224: 01,2373           70001                           MASK     L
000225: 01,2374           16011                           TCF      INTRSM
000226:
000227:                                                                                                  #           COMPLETE JOBSLEEP PREPARATIONS.
000228:
000229: 01,2375           00004        JOBSLP1            INHINT
000230: 01,2376           40153                           CS       PRIORITY                              #  NNZ PRIORITY SHOWS JOB ASLEEP.
000231: 01,2377           54153                           TS       PRIORITY
000232: 01,2400           36027                           CAF      LOW7
000233: 01,2401           70006                           MASK     BBANK
000234: 01,2402           54151                           TS       BANKSET
000235: 01,2403           47653                           CS       ZERO
000236: 01,2404           54115        JOBSLP2            TS       BUF        +1                         #  HOLDS - HIGHEST PRIORITY.
000237: 01,2405           12475                           TCF      EJSCAN                                #  SCAN FOR HIGHEST PRIORITY ALA ENDOFJOB.
000238:


000240:                                                                                                  #           TO WAKE UP A JOB, EACH CORE SET IS FOUND TO LOCATE ALL JOBS WHICH ARE ASLEEP. IF THE FCADR IN THE
000241:                                                                                                  #  LOC REGISTER OF ANY SUCH JOB MATCHES THAT SUPPLIED BY THE CALLER, THAT JOB IS AWAKENED. IF NO JOB IS FOUND,
000242:                                                                                                  #  LOCCTR IS SET TO -1 AND NO FURTHER ACTION TAKES PLACE.
000243:
000244: 01,2406           54626        JOBWAKE2           TS       EXECTEM1
000245: 01,2407           37653                           CAF      ZERO                                  #  BEGIN CORE SET SCAN.
000246: 01,2410           54635                           TS       LOCCTR
000247: 01,2411           32250                           CAF      NO.CORES
000248: 01,2412           54627        JOBWAKE4           TS       EXECTEM2
000249: 01,2413           50635                           INDEX    LOCCTR
000250: 01,2414           10153                           CCS      PRIORITY
000251: 01,2415           12420                           TCF      JOBWAKE3                              #  ACTIVE JOB - CHECK NEXT CORE SET.
000252: 01,2416           00014        COREINC            DEC      12         B-14                       #  12 REGISTERS PER CORE SET.
000253: 01,2417           12427                           TCF      WAKETEST                              #  SLEEPING JOB - SEE IF CADR MATCHES.
000254:
000255: 01,2420           32416        JOBWAKE3           CAF      COREINC
000256: 01,2421           26635                           ADS      LOCCTR
000257: 01,2422           10627                           CCS      EXECTEM2
000258: 01,2423           12412                           TCF      JOBWAKE4
000259: 01,2424           47646                           CS       ONE                                   #  EXIT IF SLEEPING JOB NOT FOUND.
000260: 01,2425           54635                           TS       LOCCTR
000261: 01,2426           14210                           TCF      ENDFIND
000262:
000263: 01,2427           40633        WAKETEST           CS       NEWLOC
000264: 01,2430           50635                           INDEX    LOCCTR
000265: 01,2431           60150                           AD       LOC
000266: 01,2432           00006                           EXTEND
000267: 01,2433           12435                           BZF      +2                                    #  IF MATCH.
000268: 01,2434           12420                           TCF      JOBWAKE3                              #  EXAMINE NEXT CORE SET IF NO MATCH.
000269:
000270: 01,2435           50635                           INDEX    LOCCTR                                #  RE-COMPLEMENT PRIORITY TO SHOW JOB AWAKE
000271: 01,2436           40153                           CS       PRIORITY
000272: 01,2437           50635                           INDEX    LOCCTR
000273: 01,2440           54153                           TS       PRIORITY
000274:
000275: 01,2441           46232                           CS       FBANKMSK                              #  MAKE UP THE 2CADR OF THE WAKE ADDRESS
000276: 01,2442           70633                           MASK     NEWLOC                                #  USING THE CADR IN NEWLOC AND THE EBANK
000277: 01,2443           67634                           AD       2K                                    #  HALF OF BBANK SAVED IN BANKSET.
000278: 01,2444           56633                           XCH      NEWLOC
000279: 01,2445           76232                           MASK     FBANKMSK
000280: 01,2446           50635                           INDEX    LOCCTR
000281: 01,2447           60151                           AD       BANKSET
000282: 01,2450           54634                           TS       NEWLOC     +1
000283:
000284: 01,2451           10635                           CCS      LOCCTR                                #  SPECIAL TREATMENT IF THIS JOB WAS
000285: 01,2452           12275                           TCF      SETLOC                                #  ALREADY IN THE RUN (0) POSITION.
000286: 01,2453           12265                           TCF      SPECTEST
000287:


000289:                                                                                                  #           PRIORITY CHANGE. CHANGE THE CONTENTS OF PRIORITY AND SCAN FOR THE JOB OF HIGHEST PRIORITY.
000290:
000291: 01,2454           54150        PRIOCH2            TS       LOC
000292: 01,2455           37653                           CAF      ZERO                                  #  SET FLAG TO TELL ENDJOB SCANNER IF THIS
000293: 01,2456           54114                           TS       BUF                                   #  JOB IS STILL HIGHEST PRIORITY.
000294: 01,2457           32503                           CAF      LOW9
000295: 01,2460           70153                           MASK     PRIORITY
000296: 01,2461           60632                           AD       NEWPRIO
000297: 01,2462           54153                           TS       PRIORITY
000298: 01,2463           40000                           COM
000299: 01,2464           12404                           TCF      JOBSLP2                               #  AND TO EJSCAN.
000300:


000302:                                                                                                  #           RELEASE THIS CORE SET AND VAC AREA AND SCAN FOR THE JOB OF HIGHEST ACTIVE PRIORITY.
000303:
000304: 01,2465           00004        ENDJOB1            INHINT
000305: 01,2466           47653                           CS       ZERO
000306: 01,2467           54115                           TS       BUF        +1
000307: 01,2470           56153                           XCH      PRIORITY
000308: 01,2471           72503                           MASK     LOW9
000309: 01,2472           10000                           CCS      A
000310: 01,2473           50000                           INDEX    A
000311: 01,2474           54000                           TS       0
000312:
000313: 01,2475           10167        EJSCAN             CCS      PRIORITY   +12D
000314: 01,2476           02542                           TC       EJ1
000315: 01,2500                                           SETLOC   +1
000316: 01,2500           12501                           TCF      +1
000317:
000318: 01,2501           10203                           CCS      PRIORITY   +24D                       #  EXAMINE EACH PRIORITY REGISTER TO FIND
000319: 01,2502           02542                           TC       EJ1                                   #  THE JOB OF HIGHEST ACTIVE PRIORITY.
000320: 01,2503           00777        LOW9               OCT      00777
000321: 01,2504           12505                           TCF      +1
000322:
000323: 01,2505           10217                           CCS      PRIORITY   +36D
000324: 01,2506           02542                           TC       EJ1
000325: 01,2507           67624        -CCSPR             -CCS     PRIORITY
000326: 01,2510           12511                           TCF      +1
000327:
000328: 01,2511           10233                           CCS      PRIORITY   +48D
000329: 01,2512           02542                           TC       EJ1
000330: 01,2514                                           SETLOC   +1
000331: 01,2514           12515                           TCF      +1
000332:
000333: 01,2515           10247                           CCS      PRIORITY   +60D
000334: 01,2516           02542                           TC       EJ1
000335: 01,2520                                           SETLOC   +1
000336: 01,2520           12521                           TCF      +1
000337:
000338: 01,2521           10263                           CCS      PRIORITY   +72D
000339: 01,2522           02542                           TC       EJ1
000340: 01,2524                                           SETLOC   +1
000341: 01,2524           12525                           TCF      +1
000342:


000344:                                                                                                  #           EVALUATE THE RESULTS OF THE SCAN.
000345:
000346: 01,2525           10115                           CCS      BUF        +1                         #  SEE IF THERE ARE ANY ACTIVE JOBS WAITING
000347: 01,2530                                           SETLOC   +2
000348: 01,2530           12532                           TCF      +2
000349: 01,2531           14215                           TCF      DUMMYJOB
000350: 01,2532           10114                           CCS      BUF                                   #  BUF IS ZERO IF THIS IS A PRIOCHNG AND
000351: 01,2533           12535                           TCF      +2                                    #  CHANGED PRIORITY IS STILL HIGHEST.
000352: 01,2534           12363                           TCF      ENDPRCHG
000353:
000354: 01,2535           50000                           INDEX    A                                     #  OTHERWISE, SET NEWJOB TO THE RELATIVE
000355: 01,2536           27777                           CAF      0          -1                         #  ADDRESS OF THE NEW JOB'S CORE SET.
000356: 01,2537           62507                           AD       -CCSPR
000357: 01,2540           54067                           TS       NEWJOB
000358: 01,2541           12315                           TCF      CHANJOB    -1
000359:
000360: 01,2542           54116        EJ1                TS       BUF        +2
000361: 01,2543           60115                           AD       BUF        +1                         #  - OLD HIGH PRIORITY.
000362: 01,2544           10000                           CCS      A
000363: 01,2545           40116                           CS       BUF        +2
000364: 01,2546           12552                           TCF      EJ2                                   #  NEW HIGH PRIORITY.
000365: 01,2547           12550                           NOOP
000366: 01,2550           50002                           INDEX    Q
000367: 01,2551           00002                           TC       2                                     #  PROCEED WITH SEARCH.
000368:
000369: 01,2552           54115        EJ2                TS       BUF        +1
000370: 01,2553           00006                           EXTEND
000371: 01,2554           22114                           QXCH     BUF                                   #  FOR LOCATING CCS PRIORITY + X INSTR.
000372: 01,2555           50114                           INDEX    BUF
000373: 01,2556           00002                           TC       2
000374:
000375: 01,2557                        ENDEXECS           EQUALS
000376:


000378:                                                                                                  #           IDLING AND COMPUTER ACTIVITY (GREEN) LIGHT MAINTENANCE. THE IDLING ROUTINE IS NOT A JOB IN ITSELF,
000379:                                                                                                  #  BUT RATHER A SUBROUTINE OF THE EXECUTIVE.
000380:
000381:    4215                                           SETLOC   EXECBANK   +1
000382:
000383:    4215           47653        DUMMYJOB           CS       ZERO                                  #  SET NEWJOB TO -0 FOR IDLING.
000384:    4216           54067                           TS       NEWJOB
000385:    4217           00003                           RELINT
000386:    4220           47645                           CS       TWO                                   #  TURN OFF THE ACTIVITY LIGHT.
000387:    4221           00006                           EXTEND
000388:    4222           03011                           WAND     DSALMOUT
000389:    4223           14226                           TCF      CHECKNJ    +2
000390:
000391:    4224           00006        CHECKNJ            EXTEND                                         #  SPECIAL NEWJOB TEST FOR SELF-CHECK,
000392:    4225           23043                           QXCH     SELFRET                               #  WHICH RUNS UNDER EXECUTIVE CONTROL,
000393:    4226           10067                 +2        CCS      NEWJOB                                #  BUT DOES NOT HAVE A JOBS CORE REGISTERS.
000394:    4227           14241                           TCF      NUCHANGE                              #  NEW JOB REQUIRING A CHANGE JOB.
000395:    4230           37645                           CAF      TWO                                   #  NEW JOB ALREADY IN POSITION FOR
000396:    4231           14235                           TCF      NUDIRECT                              #  EXECUTION.
000397:
000398:    4232           34250                           CAF      SELFBANK                              #  RETURN TO SELF-CHECK.
000399:    4233           54004                           TS       FBANK
000400:    4234           01043                           TC       SELFRET
000401:
000402:    4235           00006        NUDIRECT           EXTEND                                         #  TURN THE GREEN LIGHT BACK ON.
000403:    4236           05011                           WOR      DSALMOUT
000404:    4237           52151                           DXCH     LOC                                   #  JOBS STARTED IN THIS FASHION MUST BE
000405:    4240           52006                           DTCB                                           #  BASIC.
000406:
000407:    4241           37645        NUCHANGE           CAF      TWO
000408:    4242           00006                           EXTEND
000409:    4243           05011                           WOR      DSALMOUT
000410:    4244           34214                           CAF      EXECBANK                              #  SWAP CORE SETS.
000411:    4245           54004                           TS       FBANK
000412:    4246           00004                           INHINT                                         #  CHANGE JOBS
000413:    4247           12315                           TCF      CHANJOB    -1
000414:
000415:    4250           21273        SELFBANK           CADR     ENDEDOP
000416:    4251                        ENDEXECF           EQUALS

End of include-file EXECUTIVE.agc.  Parent file is MAIN.agc


