
Source Code


000002:                                                                                                  ## Copyright:   Public domain.
000003:                                                                                                  ## Filename:    BANK11.agc
000004:                                                                                                  ## Purpose:     Part of the source code for AGC program Retread 50.
000005:                                                                                                  ## Assembler:   yaYUL
000006:                                                                                                  ## Contact:     Ron Burkey <info@sandroid.org>.
000007:                                                                                                  ## Website:     www.ibiblio.org/apollo/Restoration.html
000008:                                                                                                  ## Mod history: 2019-06-12 MAS  Recreated from Computer History Museum's
000009:                                                                                                  ##                              physical core-rope modules.
000010:                                                                                                  ##              2019-10-01 MAS  Completed disassembly.
000011:
000012:                                                                                                  ## This entire section was added between Retread 44 and Retread 50. As such, all labels, variable names,
000013:                                                                                                  ## and comments (and even the name of the section itself!) are not original and have been added as part
000014:                                                                                                  ## of the disassembly process. Labels and comments were taken from similar code in later programs where
000015:                                                                                                  ## possible, and created anew by VirtualAGC where not.
000016:
000017: 11,2000                                           SETLOC   32000
000018: 11,2000     1202                                  EBANK=   COMMAND
000019:
000020: 11,2000           37642        VBZERO             CA       BIT5                                  #  ROUTINE TO ZERO ICDUS.
000021: 11,2001           00006                           EXTEND
000022: 11,2002           05012                           WOR      12
000023:
000024: 11,2003           32342                           CA       20MSEC                                #  WAIT 20 MS.
000025: 11,2004           00004                           INHINT
000026: 11,2005           04251                           TC       WAITLIST
000027: 11,2006           02011 22002                     2CADR    ZEROICDU
000028:
000029: 11,2010           04205                           TC       ENDOFJOB
000030:
000031: 11,2011           37653        ZEROICDU           CAF      ZERO                                  #  ZERO ICDU COUNTERS.
000032: 11,2012           54032                           TS       CDUX
000033: 11,2013           54033                           TS       CDUY
000034: 11,2014           54034                           TS       CDUZ
000035:
000036: 11,2015           47642                           CS       BIT5                                  #  REMOVE ZERO DISCRETE.
000037: 11,2016           00006                           EXTEND
000038: 11,2017           03012                           WAND     12
000039:
000040: 11,2020           04321                           TC       TASKOVER
000041:
000042:                                                                                                  #  IMU COARSE ALIGN MODE.
000043:
000044: 11,2021           37643        IMUCOARS           CAF      BIT4                                  #  SEND COARSE ALIGN ENABLE DISCRETE
000045: 11,2022           00006                           EXTEND
000046: 11,2023           05012                           WOR      12
000047:
000048: 11,2024           32344                           CAF      50MSEC
000049: 11,2025           00004                           INHINT
000050: 11,2026           04251                           TC       WAITLIST
000051: 11,2027           02032 22002                     2CADR    COARS
000052:
000053: 11,2031           04205                           TC       ENDOFJOB
000054:
000055: 11,2032           37641        COARS              CAF      BIT6                                  #  ENABLE ALL THREE ISS CDU ERROR COUNTERS
000056: 11,2033           00006                           EXTEND
000057: 11,2034           05012                           WOR      12
000058:
000059: 11,2035           37645                           CAF      TWO                                   #  SET CDU INDICATOR
000060: 11,2036           55200        COARS1             TS       CDUIND
000061:
000062: 11,2037           51200                           INDEX    CDUIND                                #  COMPUTE THETAD - THETAA IN 1:S
000063: 11,2040           30716                           CA       THETAD                                #    COMPLEMENT FORM
000064: 11,2041           00006                           EXTEND
000065: 11,2042           51200                           INDEX    CDUIND
000066: 11,2043           20032                           MSU      CDUX
000067: 11,2044           00006                           EXTEND
000068: 11,2045           77632                           MP       BIT13                                 #  SHIFT RIGHT 2
000069: 11,2046           56001                           XCH      L                                     #  ROUND
000070: 11,2047           60000                           DOUBLE
000071: 11,2050           55201                           TS       ITEMP1
000072: 11,2051           12053                           TCF      +2
000073: 11,2052           26001                           ADS      L
000074:
000075: 11,2053           51200                           INDEX    CDUIND                                #  DIFFERENCE TO BE COMPUTED
000076: 11,2054           23202                           LXCH     COMMAND
000077: 11,2055           11200                           CCS      CDUIND
000078: 11,2056           02036                           TC       COARS1
000079:
000080: 11,2057           32342                           CA       20MSEC
000081: 11,2060           04251                           TC       WAITLIST
000082: 11,2061           02064 22002                     2CADR    COARS2
000083:
000084: 11,2063           04321                           TC       TASKOVER
000085:
000086: 11,2064           37653        COARS2             CAF      ZERO
000087: 11,2065           55201                           TS       ITEMP1                                #  SETS TO +0.
000088: 11,2066           37645                           CAF      TWO                                   #  SET CDU INDICATOR
000089: 11,2067           55200                 +3        TS       CDUIND
000090:
000091: 11,2070           51200                           INDEX    CDUIND
000092: 11,2071           11202                           CCS      COMMAND                               #  NUMBER OF PULSES REQUIRED
000093: 11,2072           02076                           TC       COMPOS                                #  GREATER THAN MAX ALLOWED
000094: 11,2073           02105                           TC       NEXTCDU    +1
000095: 11,2074           02117                           TC       COMNEG
000096: 11,2075           02105                           TC       NEXTCDU    +1
000097:
000098: 11,2076           62350        COMPOS             AD       -COMMAX                               #  COMMAX = MAX NUMBER OF PULSES ALLOWED
000099: 11,2077           00006                           EXTEND                                         #    MINUS ONE
000100: 11,2100           62127                           BZMF     COMZERO
000101: 11,2101           51200                           INDEX    CDUIND
000102: 11,2102           55202                           TS       COMMAND                               #  REDUCE COMMAND BY MAX NUMBER OF PULSES
000103: 11,2103           42351                           CS       -COMMAX-                              #    ALLOWED
000104:
000105: 11,2104           25201        NEXTCDU            INCR     ITEMP1
000106: 11,2105           51200                           INDEX    CDUIND
000107: 11,2106           54050                           TS       CDUXCMD                               #  SET UP COMMAND REGISTER.
000108:
000109: 11,2107           11200                           CCS      CDUIND
000110: 11,2110           02067                           TC       COARS2     +3
000111:
000112: 11,2111           11201                           CCS      ITEMP1                                #  SEE IF ANY PULSES TO GO OUT.
000113: 11,2112           02133                           TC       SENDPULS
000114: 11,2113           02035                           TC       COARS1     -1
000115: 11,2114           00006                           EXTEND
000116: 11,2115           03012                           WAND     12
000117:
000118: 11,2116           04321                           TC       TASKOVER
000119:
000120: 11,2117           62350        COMNEG             AD       -COMMAX
000121: 11,2120           00006                           EXTEND
000122: 11,2121           62127                           BZMF     COMZERO
000123: 11,2122           40000                           COM
000124: 11,2123           51200                           INDEX    CDUIND
000125: 11,2124           55202                           TS       COMMAND
000126: 11,2125           32351                           CA       -COMMAX-
000127: 11,2126           02104                           TC       NEXTCDU
000128:
000129: 11,2127           37653        COMZERO            CAF      ZERO
000130: 11,2130           51200                           INDEX    CDUIND
000131: 11,2131           57202                           XCH      COMMAND
000132: 11,2132           02104                           TC       NEXTCDU
000133:
000134: 11,2133           32360        SENDPULS           CAF      13,14,15
000135: 11,2134           00006                           EXTEND
000136: 11,2135           05014                           WOR      14
000137: 11,2136           32345                           CAF      600MS
000138: 11,2137           04251                           TC       WAITLIST
000139: 11,2140           02064 22002                     2CADR    COARS2
000140: 11,2142           04321                           TC       TASKOVER
000141:
000142:                                                                                                  #  KEYBOARD REQUEST TO PULSE TORQUE IRIGA
000143:
000144: 11,2143           42355        TORQGYRS           CS       BITS4-6                               #  RESET ZERO, COARSE, AND ECTR ENABLE.
000145: 11,2144           00006                           EXTEND
000146: 11,2145           03012                           WAND     12
000147:
000148: 11,2146           37645                           CAF      TWO                                   #  INITIALIZE THE GYRO INDEX ERASABLES.
000149: 11,2147           55205                           TS       GYRONUM
000150: 11,2150           60000                           DOUBLE
000151: 11,2151           55206                           TS       GYCMDIDX
000152: 11,2152           67646                           AD       ONE
000153: 11,2153           55207                           TS       GYCMDIDX   +1
000154:
000155: 11,2154           37641                           CAF      BIT6                                  #  ENABLE THE POWER SUPPLY.
000156: 11,2155           00006                           EXTEND
000157: 11,2156           05014                           WOR      14
000158:
000159: 11,2157           32343                           CAF      30MSEC
000160: 11,2160           00004                           INHINT
000161: 11,2161           04251                           TC       WAITLIST
000162: 11,2162           02165 22002                     2CADR    IMUPULSE
000163:
000164: 11,2164           04205                           TC       ENDOFJOB
000165:
000166:                                                                                                  #           THE FOLLOWING ROUTINE TORQUES THE IRIGS ACCORDING TO DOUBLE PRECISION INPUTS IN THE SIX REGISTERS
000167:                                                                                                  #  BEGINNING AT LOCATION OGC. THE MINIMUM SIZE OF ANY PULSE TRAIN IS 16 PULSES (.25 CDU COUNTS). THE
000168:                                                                                                  #  UNSENT PORTION OF THE COMMAND IS LEFT INTACT IN THE INPUT COMMAND REGISTERS.
000169:
000170: 11,2165           51206        IMUPULSE           INDEX    GYCMDIDX
000171: 11,2166           11210                           CCS      OGC                                   #  SEE IF MORE THAN ONE PULSE TRAIN NEEDED
000172: 11,2167           02173                           TC       LONGGYRO                              #  (MORE THAN 16383 PULSES).
000173: 11,2170           02220                           TC       LASTSEG
000174: 11,2171           02173                           TC       LONGGYRO
000175: 11,2172           02220                           TC       LASTSEG
000176:
000177: 11,2173           51206        LONGGYRO           INDEX    GYCMDIDX                              #  SEND MAXIMUM 16383 PULSES.
000178: 11,2174           55210                           TS       OGC
000179:
000180: 11,2175           51207                           INDEX    GYCMDIDX   +1
000181: 11,2176           25210                           INCR     OGC
000182:
000183: 11,2177           37626                           CAF      POSMAX
000184: 11,2200           54047                           TS       GYROCTR
000185:
000186: 11,2201           32352                           CA       5.13SEC                               #  WAIT FOR FULL PULSE TRAIN TO GO OUT.
000187: 11,2202           02203                           TC       +1
000188: 11,2203           04251                           TC       WAITLIST
000189: 11,2204           02165 22002                     2CADR    IMUPULSE
000190:
000191: 11,2206           51207        STRTGYRO           INDEX    GYCMDIDX   +1                         #  DETERMINE POLARITY OF COMMAND.
000192: 11,2207           11210                           CCS      OGC
000193: 11,2210           37653                           CAF      ZERO
000194: 11,2211           12213                           TCF      +2
000195: 11,2212           37636                           CAF      BIT9
000196:
000197: 11,2213           51205                           INDEX    GYRONUM                               #  SEND PULSE COMMAND TO GYRO.
000198: 11,2214           62361                           AD       GYBITTAB
000199: 11,2215           00006                           EXTEND
000200: 11,2216           01014                           WRITE    14
000201:
000202: 11,2217           04321                           TC       TASKOVER
000203:
000204: 11,2220           51207        LASTSEG            INDEX    GYCMDIDX   +1                         #  ENTIRE COMMAND.
000205: 11,2221           11210                           CCS      OGC
000206: 11,2222           02226                           TC       +4
000207: 11,2223           02244                           TC       GYROEXIT
000208: 11,2224           02226                           TC       +2
000209: 11,2225           02244                           TC       GYROEXIT
000210:
000211: 11,2226           67646                           AD       ONE
000212: 11,2227           54047                           TS       GYROCTR
000213:
000214: 11,2230           62353                           AD       -GYROMIN                              #  SMALL GYRO COMMAND. SEE IF AT LEAST
000215: 11,2231           00006                           EXTEND                                         #  16 GYRO PULSES.
000216: 11,2232           62244                           BZMF     GYROEXIT
000217:
000218: 11,2233           37635                           CAF      BIT10                                 #  GET WAITLIST DT TO TIME WHEN TRAIN IS
000219: 11,2234           00006                           EXTEND                                         #  ALMOST OUT.
000220: 11,2235           70047                           MP       GYROCTR
000221: 11,2236           67645                           AD       TWO
000222: 11,2237           02240                           TC       +1
000223: 11,2240           04251                           TC       WAITLIST
000224: 11,2241           02244 22002                     2CADR    GYROEXIT
000225:
000226: 11,2243           02206                           TC       STRTGYRO
000227:
000228: 11,2244           11205        GYROEXIT           CCS      GYRONUM
000229: 11,2245           12252                           TCF      NEXTGYRO
000230:
000231: 11,2246           47641                           CS       BIT6                                  #  RESET GYRO ENABLE.
000232: 11,2247           00006                           EXTEND
000233: 11,2250           03014                           WAND     14
000234:
000235: 11,2251           04321                           TC       TASKOVER
000236:
000237: 11,2252           55205        NEXTGYRO           TS       GYRONUM
000238: 11,2253           60000                           DOUBLE
000239: 11,2254           55206                           TS       GYCMDIDX
000240: 11,2255           67646                           AD       ONE
000241: 11,2256           55207                           TS       GYCMDIDX   +1
000242: 11,2257           02165                           TC       IMUPULSE
000243:
000244:                                                                                                  #  KEYBOARD REQUEST TO TURN ON INERTIAL SUBSYSTEM
000245:
000246: 11,2260           47630        ISSUP              CS       BIT15                                 #  REMOVE IMU DELAY COMPLETE DISCRETE.
000247: 11,2261           00006                           EXTEND
000248: 11,2262           03012                           WAND     12
000249:
000250: 11,2263           37631                           CAF      BIT14                                 #  SEE IF ISS HAS TURNED ON.
000251: 11,2264           00006                           EXTEND
000252: 11,2265           02030                           RAND     30
000253:
000254: 11,2266           10000                           CCS      A
000255: 11,2267           02271                           TC       +2
000256: 11,2270           02276                           TC       CAGESUB
000257:
000258: 11,2271           32346                           CAF      1SEC                                  #  CHECK AGAIN IN ONE SECOND.
000259: 11,2272           04251                           TC       WAITLIST
000260: 11,2273           02260 22002                     2CADR    ISSUP
000261:
000262: 11,2275           04321                           TC       TASKOVER
000263:
000264: 11,2276           32356        CAGESUB            CA       BITS4&5                               #  SEND ZERO AND COARSE.
000265: 11,2277           00006                           EXTEND
000266: 11,2300           05012                           WOR      12
000267:
000268: 11,2301           32347                           CA       90SECS
000269: 11,2302           02303                           TC       +1
000270: 11,2303           04251                           TC       WAITLIST
000271: 11,2304           02307 22002                     2CADR    ENDTNON
000272:
000273: 11,2306           04321                           TC       TASKOVER
000274:
000275: 11,2307           37630        ENDTNON            CAF      BIT15                                 #  SEND ISS DELAY COMPLETE.
000276: 11,2310           00006                           EXTEND
000277: 11,2311           05012                           WOR      12
000278:
000279: 11,2312           37631        ENDTNON2           CAF      BIT14
000280: 11,2313           00006                           EXTEND
000281: 11,2314           02030                           RAND     30
000282:
000283: 11,2315           10000                           CCS      A                                     #  IS TURN-ON COMPLETE?
000284: 11,2316           02320                           TC       +2                                    #  YES.
000285: 11,2317           02327                           TC       ENDTNON3                              #  NO. TRY AGAIN IN 10 MS.
000286:
000287: 11,2320           42357                           CS       BITS5&15                              #  REMOVE IMU ZERO AND DELAY COMPLETE.
000288: 11,2321           00006                           EXTEND
000289: 11,2322           03012                           WAND     12
000290:
000291: 11,2323           37641                           CAF      BIT6                                  #  ENABLE ERROR COUNTERS.
000292: 11,2324           00006                           EXTEND
000293: 11,2325           05012                           WOR      12
000294:
000295: 11,2326           04321                           TC       TASKOVER
000296:
000297: 11,2327           32341        ENDTNON3           CAF      10MSEC
000298: 11,2330           02331                           TC       +1
000299: 11,2331           04251                           TC       WAITLIST
000300: 11,2332           02312 22002                     2CADR    ENDTNON2
000301:
000302: 11,2334           04321                           TC       TASKOVER
000303:
000304:                                                                                                  #  IMU FINE ALIGN MODE SWITCH.
000305:
000306: 11,2335           42355        IMUFINE            CS       BITS4-6                               #  RESET ZERO, COARSE, AND ECTR ENABLE.
000307: 11,2336           00006                           EXTEND
000308: 11,2337           03012                           WAND     12
000309: 11,2340           04205                           TC       ENDOFJOB
000310:
000311:
000312:                                                                                                  #  WAITLIST DELAY TIME CONSTANTS
000313:
000314: 11,2341           00001        10MSEC             DEC      1          B-14
000315: 11,2342           00002        20MSEC             DEC      2          B-14
000316: 11,2343           00003        30MSEC             DEC      3          B-14
000317: 11,2344           00005        50MSEC             DEC      5          B-14
000318: 11,2345           00074        600MS              DEC      60         B-14
000319: 11,2346           00144        1SEC               DEC      100        B-14
000320: 11,2347           21450        90SECS             DEC      9000       B-14
000321:
000322:                                                                                                  #  CONSTANTS FOR MODE SWITCHING ROUTINES
000323:
000324: 11,2350           77500        -COMMAX            DEC      -191       B-14
000325: 11,2351           77477        -COMMAX-           DEC      -192       B-14
000326:
000327: 11,2352           01001        5.13SEC            DEC      513        B-14
000328: 11,2353           77757        -GYROMIN           DEC      -16        B-14                       #  MAY BE ADJUSTED TO SPECIFY MINIMUM CMD.
000329:
000330: 11,2354           00050        BITS4&6            OCT      00050
000331: 11,2355           00070        BITS4-6            OCT      00070
000332: 11,2356           00030        BITS4&5            OCT      00030
000333: 11,2357           40020        BITS5&15           OCT      40020
000334: 11,2360           70000        13,14,15           OCT      70000
000335:
000336: 11,2361           01140        GYBITTAB           OCT      1140                                  #  POWER SUPPLY ENABLE, GYRO SELECT,
000337: 11,2362           01340                           OCT      1340                                  #  GYRO COMMAND OUT.
000338: 11,2363           01240                           OCT      1240
000339:
000340:                                                                                                  #  FAN-OUT
000341:
000342: 11,2364           02000        LST2FAN            TC       VBZERO                                #  VB40 ZERO ISS CDU
000343: 11,2365           02021                           TC       IMUCOARS                              #  VB41 COARSE ALIGN IMU
000344: 11,2366           02335                           TC       IMUFINE                               #  VB42 FINE ALIGN IMU
000345: 11,2367           02143                           TC       TORQGYRS                              #  VB43 PULSE TORQUE GYROS
000346: 11,2370           00004        ITURNON            INHINT                                         #  VB44 ISS TURN ON
000347: 11,2371           37646                           CAF      ONE
000348: 11,2372           04251                           TC       WAITLIST
000349: 11,2373           02260 22002                     2CADR    ISSUP
000350: 11,2375           04205                           TC       ENDOFJOB

End of include-file EXTENDED_VERBS_FOR_MODING.agc.  Parent file is MAIN.agc


