
Source Code


000002:                                                                                                  ## Copyright:   Public domain.
000003:                                                                                                  ## Filename:    INTERRUPT_LEAD_INS.agc
000004:                                                                                                  ## Purpose:     Part of the source code for AGC program Retread 50.
000005:                                                                                                  ## Assembler:   yaYUL
000006:                                                                                                  ## Contact:     Ron Burkey <info@sandroid.org>.
000007:                                                                                                  ## Website:     www.ibiblio.org/apollo/Restoration.html
000008:                                                                                                  ## Mod history: 2019-06-12 MAS  Recreated from Computer History Museum's
000009:                                                                                                  ##                              physical core-rope modules.
000010:


000012:
000013:    4000                                           SETLOC   4000
000014:
000015:    4000           00004                           INHINT                                         #  GO
000016:    4001           34054                           CAF      GOBB
000017:    4002           56006                           XCH      BBANK
000018:    4003           12721                           TCF      GOPROG
000019:
000020:    4004           52011                           DXCH     ARUPT                                 #  T6RUPT
000021:    4005           34055                           CAF      T6RPTBB
000022:    4006           56006                           XCH      BBANK
000023:    4007           14330                           TCF      RESUME     +3                         #  ***FIX LATER***
000024:
000025:    4010           52011                           DXCH     ARUPT                                 #  T5RUPT
000026:    4011           34056                           CAF      T5RPTBB
000027:    4012           56006                           XCH      BBANK
000028:    4013           14330                           TCF      RESUME     +3                         #  ***FIX LATER***
000029:
000030:    4014           52011                           DXCH     ARUPT                                 #  T3RUPT
000031:    4015           34057                           CAF      T3RPTBB
000032:    4016           56006                           XCH      BBANK
000033:    4017           14272                           TCF      T3RUPT
000034:
000035:    4020           52011                           DXCH     ARUPT                                 #  T4RUPT
000036:    4021           34060                           CAF      T4RPTBB
000037:    4022           56006                           XCH      BBANK
000038:    4023           13052                           TCF      T4RUPT
000039:
000040:    4024           52011                           DXCH     ARUPT                                 #  KEYRUPT1
000041:    4025           34061                           CAF      KEYRPTBB
000042:    4026           56006                           XCH      BBANK
000043:    4027           13153                           TCF      KEYRUPT1
000044:
000045:    4030           52011                           DXCH     ARUPT                                 #  KEYRUPT2
000046:    4031           34061                           CAF      KEYRPTBB
000047:    4032           56006                           XCH      BBANK
000048:    4033           13175                           TCF      KEYRUPT2
000049:
000050:    4034           52011                           DXCH     ARUPT                                 #  UPRUPT
000051:    4035           34061                           CAF      UPRPTBB
000052:    4036           56006                           XCH      BBANK
000053:    4037           13205                           TCF      UPRUPT
000054:
000055:    4040           52011                           DXCH     ARUPT                                 #  DOWNRUPT
000056:    4041           34062                           CAF      DWNRPTBB
000057:    4042           56006                           XCH      BBANK
000058:    4043           14330                           TCF      RESUME     +3                         #  ***FIX LATER***
000059:
000060:    4044           50017                           RESUME                                         #  RADAR RUPT    ****FIX LATER******
000061:
000062:    4050                                           SETLOC   4050


000064:    4050           50017                           RESUME                                         #  HAND CONTROL RUPT   ***FIX LATER****
000065:
000066:
000067:
000068:    4054                                           SETLOC   4054
000069:
000070:
000071:    4054  E3,1400                                  EBANK=   LST1                                  #  RESTART USES E0, E3
000072:    4054           02003        GOBB               BBCON    GOPROG
000073:
000074:    4055     0025                                  EBANK=   TIME1
000075:    4055           04000        T6RPTBB            BBCON    RESUME                                #  ***FIX LATER***
000076:
000077:    4056     0025                                  EBANK=   TIME1
000078:    4056           04000        T5RPTBB            BBCON    RESUME                                #  ***FIX LATER***
000079:
000080:    4057  E3,1400                                  EBANK=   LST1
000081:    4057           04003        T3RPTBB            BBCON    T3RUPT
000082:
000083:    4060     1020                                  EBANK=   DSRUPTSW
000084:    4060           02002        T4RPTBB            BBCON    T4RUPT
000085:
000086:    4061     0624                                  EBANK=   KEYTEMP1
000087:    4061           02001        KEYRPTBB           BBCON    KEYRUPT1
000088:
000089:    4062     4061               UPRPTBB            =        KEYRPTBB
000090:
000091:    4062     0025                                  EBANK=   TIME1
000092:    4062           04000        DWNRPTBB           BBCON    RESUME                                #  ***FIX LATER ***
000093:
000094:    4063                        ENDINTFF           EQUALS

End of include-file INTERRUPT_LEAD_INS.agc.  Parent file is MAIN.agc


