
Source Code


000002:                                                                                                  ## Copyright:   Public domain.
000003:                                                                                                  ## Filename:    INTER-BANK_COMMUNICATION.agc
000004:                                                                                                  ## Purpose:     Part of the source code for AGC program Retread 50.
000005:                                                                                                  ## Assembler:   yaYUL
000006:                                                                                                  ## Contact:     Ron Burkey <info@sandroid.org>.
000007:                                                                                                  ## Website:     www.ibiblio.org/apollo/Restoration.html
000008:                                                                                                  ## Mod history: 2019-06-12 MAS  Recreated from Computer History Museum's
000009:                                                                                                  ##                              physical core-rope modules.
000010:


000012:
000013:                                                                                                  #           THE FOLLOWING ROUTINE CAN BE USED TO CALL A SUBROUTINE IN ANOTHER BANK. IN THE BANKCALL VERSION, THE
000014:                                                                                                  #  CADR OF THE SUBROUTINE IMMEDIATELY FOLLOWS THE  TC BANKCALL  INSTRUCTION, WITH C(A) AND C(L) PRESERVED.
000015:
000016:    4063                                           SETLOC   ENDINTFF
000017:
000018:    4063           52120        BANKCALL           DXCH     BUF2                                  #  SAVE INCOMING A,L.
000019:    4064           50002                           INDEX    Q                                     #  PICK UP CADR.
000020:    4065           30000                           CA       0
000021:    4066           24002                           INCR     Q                                     #  SO WE RETURN TO THE LOC. AFTER THE CADR.
000022:
000023:                                                                                                  #           SWCALL IS IDENTICAL TO BANKCALL, EXCEPT THAT THE CADR ARRIVES IN A.
000024:
000025:    4067           54001        SWCALL             TS       L
000026:    4070           22004                           LXCH     FBANK                                 #  SWITCH BANKS, SAVING RETURN.
000027:    4071           76425                           MASK     LOW10                                 #  GET SUB-ADDRESS OF CADR.
000028:    4072           56002                           XCH      Q                                     #  A,L NOW CONTAINS DP RETURN.
000029:    4073           52120                           DXCH     BUF2                                  #  RESTORING INPUTS IF THIS IS A BANKCALL.
000030:    4074           50002                           INDEX    Q
000031:    4075           02000                           TC       10000                                 #  SETTING Q TO SWRETURN.
000032:
000033:    4076           56120        SWRETURN           XCH      BUF2       +1                         #  COMES HERE TO RETURN TO CALLER. C(A,L)
000034:    4077           56004                           XCH      FBANK                                 #  ARE PRESERVED FOR RETURN.
000035:    4100           56120                           XCH      BUF2       +1
000036:    4101           00117                           TC       BUF2
000037:
000038:
000039:
000040:                                                                                                  #           THE FOLLOWING ROUTINE CAN BE USED AS A UNILATERAL JUMP WITH C(A,L) PRESERVED AND THE CADR IMMEDIATELY
000041:                                                                                                  #  FOLLOWING THE TC POSTJUMP INSTRUCTION.
000042:
000043:    4102           56002        POSTJUMP           XCH      Q                                     #  SAVE INCOMING C(A).
000044:    4103           50000                           INDEX    A                                     #  GET CADR.
000045:    4104           30000                           CA       0
000046:
000047:                                                                                                  #           BANKJUMP IS THE SAME AS POSTJUMP, EXCEPT THAT THE CADR ARRIVES IN A.
000048:
000049:    4105           54004        BANKJUMP           TS       FBANK
000050:    4106           76425                           MASK     LOW10
000051:    4107           56002                           XCH      Q                                     #  RESTORING INPUT C(A) IF THIS WAS A
000052:    4110           50002                           INDEX    Q                                     #  POSTJUMP.
000053:    4111           12000                           TCF      10000
000054:


000056:                                                                                                  #           THE FOLLOWING ROUTINE GETS THE RETURN CADR SAVED BY SWCALL OR BANKCALL AND LEAVES IT IN A.
000057:
000058:    4112           36425        MAKECADR           CAF      LOW10
000059:    4113           70117                           MASK     BUF2
000060:    4114           60120                           AD       BUF2       +1
000061:    4115           00002                           TC       Q
000062:
000063:                                                                                                  #           THE FOLLOWING ROUTINE OBTAINS THE TWO WORDS BEGINNING AT THE ADDRESS ARRIVING IN A, AND LEAVES THEM IN
000064:                                                                                                  #  A,L.
000065:
000066:    4116           54001        DATACALL           TS       L
000067:    4117           22004                           LXCH     FBANK
000068:    4120           22121                           LXCH     MPTEMP                                #  SAVE FORMER BANK.
000069:    4121           76425                           MASK     LOW10
000070:    4122           00006                           EXTEND
000071:    4123           50000                           INDEX    A
000072:    4124           32001                           DCA      10000
000073:
000074:    4125           56121                           XCH      MPTEMP
000075:    4126           54004                           TS       FBANK                                 #  RESTORE FBANK.
000076:    4127           30121                           CA       MPTEMP
000077:    4130           00002                           TC       Q
000078:
000079:    4131                        ENDIBNKF           EQUALS

End of include-file INTER-BANK_COMMUNICATION.agc.  Parent file is MAIN.agc


