
Source Code


000002:                                                                                                  ## Copyright:   Public domain.
000003:                                                                                                  ## Filename:    PINBALL_GAME__BUTTONS_AND_LIGHTS.agc
000004:                                                                                                  ## Purpose:     Part of the source code for AGC program Retread 50.
000005:                                                                                                  ## Assembler:   yaYUL
000006:                                                                                                  ## Contact:     Ron Burkey <info@sandroid.org>.
000007:                                                                                                  ## Website:     www.ibiblio.org/apollo/Restoration.html
000008:                                                                                                  ## Mod history: 2019-06-12 MAS  Recreated from Computer History Museum's
000009:                                                                                                  ##                              physical core-rope modules.
000010:


000012:                                                                                                  #  KEYBOARD AND DISPLAY PROGRAM
000013:
000014:
000015:
000016:                                                                                                  #  THE FOLLOWING QUOTATION IS PROVIDED THROUGH THE COUTESY OF THE AUTHORS.
000017:
000018:                                                                                                  #        ::IT WILL BE PROVED TO THY FACE THAT THOU HAST MEN ABOUT THEE THAT
000019:                                                                                                  #  USUALLY TALK OF A NOUN AND A VERB, AND SUCH ABOMINABLE WORDS AS NO
000020:                                                                                                  #  CHRISTIAN EAR CAN ENDURE TO HEAR.::
000021:
000022:                                                                                                  #                       HENRY 6, ACT 2, SCENE 4


000025:
000026:
000027:
000028:                                                                                                  #  THE FOLLOWING ASSIGNMENTS FOR PINBALL ARE MADE ELSEWHERE
000029:
000030:
000031:
000032:                                                                                                  #  RESERVED FOR PINBALL EXECUTIVE ACTION
000033:
000034:                                                                                                  #  DSPCOUNT ERASE                  DISPLAY POSITION INDICATOR
000035:                                                                                                  #  DECBRNCH ERASE                  +DEC, - DEC, OCT INDICATOR
000036:                                                                                                  #  VERBREG  ERASE                  VERB CODE
000037:                                                                                                  #  NOUNREG  ERASE                  NOUN CODE
000038:                                                                                                  #  XREG     ERASE                  R1 INPUT BUFFER
000039:                                                                                                  #  YREG     ERASE                  R2 INPUT BUFFER
000040:                                                                                                  #  ZREG     ERASE                  R3 INPUT BUFFER
000041:                                                                                                  #  XREGLP   ERASE                  LO PART OF XREG (FOR DEC CONV ONLY)
000042:                                                                                                  #  YREGLP   ERASE                  LO PART OF YREG (FOR DEC CONV ONLY)
000043:                                                                                                  #  ZREGLP   ERASE                  LO PART OF ZREG (FOR DEC CONV ONLY)
000044:                                                                                                  #  MODREG   ERASE                  MODE CODE
000045:                                                                                                  #  DSPLOCK  ERASE                  KEYBOARD/SUBROUTINE CALL INTERLOCK
000046:                                                                                                  #  REQRET   ERASE                  RETURN REGISTER FOR LOAD
000047:                                                                                                  #  LOADSTAT ERASE                  STATUS INDICATOR FOR LOADTST
000048:                                                                                                  #  CLPASS   ERASE                  PASS INDICATOR CLEAR
000049:                                                                                                  #  NOUT     ERASE                  ACTIVITY COUNTER FOR DSPTAB
000050:                                                                                                  #  NOUNCADR ERASE                  MACHINE CADR FOR NOUN
000051:                                                                                                  #  MONSAVE  ERASE                  N/V CODE FOR MONITOR. (= MONSAVE1-1)
000052:                                                                                                  #  MONSAVE1 ERASE                  NOUNCADR FOR MONITOR(MATBS) =MONSAVE +1
000053:                                                                                                  #  DSPTAB   ERASE          +13D    0-10,DISPLAY PANEL BUFFER.11-13,C RELAYS
000054:                                                                                                  #  CADRSTOR ERASE                  ENDIDLE STORAGE
000055:                                                                                                  #  GRABLOCK ERASE                  INTERNAL INTERLOCK FOR DISPLAY SYSTEM
000056:                                                                                                  #  NVQTEM   ERASE                  NVSUB STORAGE FOR CALLING ADDRESS
000057:                                                                                                  #                                  MUST = NVBNKTEM-1
000058:                                                                                                  #  NVBNKTEM ERASE                  NVSUB STORAGE FOR CALLING BANK
000059:                                                                                                  #                                  MUST = NVQTEM+1
000060:                                                                                                  #  DSPLIST  ERASE          +2      WAITING LIST FOR DSP SYST INTERNAL USE
000061:                                                                                                  #  EXTVBACT REASE                  EXTENDED VERB ACTIVITY INTERLOCK
000062:                                                                                                  #  DSPTEM1  ERASE          +2      BUFFER STORAGE AREA 1 (MOSTLY FOR TIME)
000063:                                                                                                  #  DSPTEM2  ERASE          +2      BUFFER STORAGE AREA 2 (MOSTLY FOR DEG)
000064:


000066:                                                                                                  #  END OF ERASABLES RESERVED FOR PINBALL EXECUTIVE ACTION
000067:
000068:
000069:
000070:                                                                                                  #  TEMPORARIES FOR PINBALL EXECUTIVE ACTION
000071:
000072:                                                                                                  #  DSEXIT   =      INTB15+         RETURN FOR DSPIN
000073:                                                                                                  #  EXITEM   =      INTB15+         RETURN FOR SCALE FACTOR ROUTINE SELECT
000074:                                                                                                  #  BLANKRET =      INTB15+         RETURN FOR 2BLANK
000075:
000076:                                                                                                  #  WRDRET   =      INTBIT15        RETURN FOR 5BLANK
000077:                                                                                                  #  WDRET    =      INTBIT15        RETURN FOR DSPWD
000078:                                                                                                  #  DECRET   =      INTBIT15        RETURN FOR PUTCOM(DEC LOAD)
000079:                                                                                                  #  21/22REG =      INTBIT15        TEMP FOR CHARIN
000080:
000081:                                                                                                  #  UPDATRET =      POLISH          RETURN FOR UPDATNN, UPDATVB
000082:                                                                                                  #  CHAR     =      POLISH          TEMP FOR CHARIN
000083:                                                                                                  #  ERCNT    =      POLISH          COUNTER FOR ERROR LIGHT RESET
000084:                                                                                                  #  DECOUNT  =      POLISH          COUNTER FOR SCALING AND DISPLAY (DEC)
000085:
000086:                                                                                                  #  SGNON    =      VBUF            TEMP FOR +,- ON
000087:                                                                                                  #  NOUNTEM  =      VBUF            COUNTER FOR MIXNOUN FETCH
000088:                                                                                                  #  DISTEM   =      VBUF            COUNTER FOR OCTAL DISPLAY VERBS
000089:                                                                                                  #  DECTEM   =      VBUF            COUNTER FOR FETCH (DEC DISPLAY VERBS)
000090:
000091:                                                                                                  #  SGNOFF   =       VBUF   +1      TEMP FOR +,- ON
000092:                                                                                                  #  NVTEMP   =       VBUF   +1      TEMP FOR NVSUB
000093:                                                                                                  #  SFTEMP1  =       VBUF   +1      STORAGE FOR SF CONST HI PART (=SFTEMP2-1)
000094:
000095:                                                                                                  #  CODE     =       VBUF   +2      FOR DSPIN
000096:                                                                                                  #  SFTEMP2  =       VBUF   +2      STORAGE FOR SF CONST LO PART (=SFTEMP1+1)
000097:
000098:                                                                                                  #  MIXTEMP  =       VBUF   +3      FOR MIXNOUN DATA
000099:                                                                                                  #  SIGNRET  =       VBUF   +3      RETURN FOR +,- ON
000100:
000101:                                                                                                  #  ALSO MIXTEMP+1 = VBUF+4, MIXTEMP+2 = VBUF+5.
000102:
000103:                                                                                                  #  ENTRET   =       DOTINC          EXIT FROM ENTER
000104:
000105:                                                                                                  #  WDCNT    =       DOTRET          CHAR COUNTER FOR DSPWD
000106:                                                                                                  #  INREL    =       DOTRET          INPUT BUFFER SELECTOR ( X,Y,Z, REG )
000107:
000108:                                                                                                  #  DSPMMTEM =       MATINC          DSPCOUNT SAVE FOR DSPMM
000109:                                                                                                  #  MIXBR    =       MATINC          INDICATOR FOR MIXED OR NORMAL NOUN
000110:
000111:                                                                                                  #  TEM1     ERASE                   EXEC TEMP
000112:                                                                                                  #  DSREL    =       TEM1            REL ADDRESS FOR DSPIN
000113:
000114:                                                                                                  #  TEM2     ERASE                   EXEC TEMP
000115:                                                                                                  #  DSMAG    =       TEM2            MAGNITUDE STORE FOR DSPIN
000116:


000118:                                                                                                  #  IDADDTEM =       TEM2            MIXNOUN INDIRECT ADDRESS STORAGE
000119:
000120:                                                                                                  #  TEM3     ERASE                   EXEC TEMP
000121:                                                                                                  #  COUNT    =       TEM3            FOR DSPIN
000122:
000123:                                                                                                  #  TEM4     ERASE                   EXEC TEMP
000124:                                                                                                  #  LSTPTR   =       TEM4            LIST POINTER FOR GRABUSY
000125:                                                                                                  #  RELRET   =       TEM4            RETURN FOR RELDSP
000126:                                                                                                  #  FREERET  =       TEM4            RETURN FOR FREEDSP
000127:
000128:                                                                                                  #  TEM5     ERASE                   EXEC TEMP
000129:                                                                                                  #  NOUNADD  =       TEM5            TEMP STORAGE FOR NOUN ADDRESS
000130:
000131:                                                                                                  #  NNADTEM  ERASE                   TEMP FOR NOUN ADDRESS TABLE ENTRY
000132:                                                                                                  #  NNTYPTEM ERASE                   TEMP FOR NOUN TYPE TABLE ENTRY
000133:                                                                                                  #  IDAD1TEM ERASE                   TEMP FOR INDIR ADRESS TABLE ENTRY(MIXNN)
000134:                                                                                                  #                                   MUST = IDAD2TEM-1, = IDAD3TEM-2.
000135:                                                                                                  #  IDAD2TEM ERASE                   TEMP FOR INDIR ADRESS TABLE ENTRY(MIXNN)
000136:                                                                                                  #                                   MUST = IDAD1TEM+1, = IDAD3TEM-1.
000137:                                                                                                  #  IDAD3TEM ERASE                   TEMP FOR INDIR ADRESS TABLE ENTRY(MIXNN)
000138:                                                                                                  #                                   MUST = IDAD1TEM+2, = IDAD2TEM+1.
000139:                                                                                                  #  RUTMXTEM ERASE                   TEMP FOR SF ROUT TABLE ENTRY(MIXNN ONLY)
000140:                                                                                                  #  END OF TEMPORARIES FOR PINBALL EXECUTIVE ACTION
000141:
000142:
000143:
000144:                                                                                                  #  RESERVED FOR PINBALL INTERRUPT ACTION
000145:
000146:                                                                                                  #  DSPCNT   ERASE                  COUNTER FOR DSPOUT
000147:                                                                                                  #  UPLOCK   ERASE                  BIT1 = UPLINK INTERLOCK (ACTIVATED BY
000148:                                                                                                  #                                                                           RECEPTION OF A BAD MESSAGE IN UPLINK)
000149:                                                                                                  #  END OF ERASABLES RESERVED FOR PINBALL INTERRUPT ACTION
000150:
000151:
000152:
000153:                                                                                                  #  TEMPORARIES FOR PINBALL INTERRUPT ACTION
000154:
000155:                                                                                                  #  KEYTEMP1 =      WAITEXIT        TEMP FOR KEYRUPT, UPRUPT
000156:                                                                                                  #  DSRUPTEM =      WAITEXIT        TEMP FOR DSPOUT
000157:                                                                                                  #  KEYTEMP2 =      RUPTAGN         TEMP FOR KEYRUPT, UPRUPT
000158:                                                                                                  #  END OF TEMPORARIES FOR PINBALL INTERRUPT ACTION
000159:
000160:


000162:                                                                                                  #  THE INPUT CODES ASSUMED FOR THE KEYBOARD ARE,
000163:                                                                                                  #  0        10000
000164:                                                                                                  #  1        00001
000165:                                                                                                  #  9        01001
000166:                                                                                                  #  VERB     10001
000167:                                                                                                  #  ERROR RES10010
000168:                                                                                                  #  KEY RLSE 11001
000169:                                                                                                  #  +        11010
000170:                                                                                                  #  -        11011
000171:                                                                                                  #  ENTER    11100
000172:                                                                                                  #  CLEAR    11110
000173:                                                                                                  #  NOUN     11111
000174:
000175:
000176:
000177:                                                                                                  #  OUTPUT FORMAT FOR DISPLAY PANEL. SET OUT0 TO  AAAABCCCCCDDDDD.
000178:                                                                                                  #  A-S SELECT A RELAYWORD. THIS DETERMINES WHICH PAIR OF CHARACTERS ARE
000179:                                                                                                  #  ENERGIZED.
000180:                                                                                                  #  B FOR SPECIAL RELAYS SUCH AS SIGNS ETC.
000181:                                                                                                  #  C-S  5 BIT RELAY CODE FOR LEFT CHAR OF PAIR SELECTED BY RELAYWORD
000182:                                                                                                  #  D-S  5 BIT RELAY CODE FOR RIGHTCHAR OF PAIR SELECTED BY RELAYWORD.
000183:
000184:                                                                                                  #  THE PANEL APPEARS AS FOLLOWS,
000185:                                                                                                  #  MD1    MD2                         (MAJOR MODE)
000186:                                                                                                  #  VD1    VD2 (VERB)    ND1    ND2    (NOUN)
000187:                                                                                                  #  R1D1   R1D2   R1D3   R1D4   R1D5   (R1)
000188:                                                                                                  #  R2D1   R2D2   R2D3   R2D4   R2D5   (R2)
000189:                                                                                                  #  R3D1   R3D2   R3D3   R3D4   R3D5   (R3)
000190:
000191:                                                                                                  #  EACH OF THESE IS GIVEN A DSPCOUNT NUMBER FOR USE WITHIN COMPUTATION ONLY
000192:                                                                                                  #  MD1   25     R2D1  11         ALL ARE OCTAL
000193:                                                                                                  #  MD2   24     R2D2  10
000194:                                                                                                  #  VD1   23     R2D3   7
000195:                                                                                                  #  VD2   22     R2D4   6
000196:                                                                                                  #  ND1   21     R2D5   5
000197:                                                                                                  #  ND2   20     R3D1   4
000198:                                                                                                  #  R1D1  16     R3D2   3
000199:                                                                                                  #  R1D2  15     R3D3   2
000200:                                                                                                  #  R1D3  14     R3D4   1
000201:                                                                                                  #  R1D4  13     R3D5   0
000202:                                                                                                  #  R1D5  12
000203:
000204:
000205:
000206:                                                                                                  #  THERE IS AN 11 REGISTER TABLE (DSPTAB) FOR THE DISPLAY PANEL.
000207:
000208:                                                                                                  #  DSPTAB RELAYWD       BIT11     BITS 10-6     BITS 5-1
000209:                                                                                                  #  RELADD
000210:                                                                                                  #  10     1011                    MD1  (25)     MD2  (24)
000211:                                                                                                  #  9      1010                    VD1  (23)     VD2  (22)


000213:                                                                                                  #  8      1001                    ND1  (21)     ND2  (20)
000214:                                                                                                  #  7      1000                                  R1D1 (16)
000215:                                                                                                  #  6      0111          +R1       R1D2 (15)     R1D3 (14)
000216:                                                                                                  #  5      0110          -R1       R1D4 (13)     R1D5 (12)
000217:                                                                                                  #  4      0101          +R2       R2D1 (11)     R2D2 (10)
000218:                                                                                                  #  3      0100          -R2       R2D3 (7)      R2D4 (6)
000219:                                                                                                  #  2      0011                    R2D5 (5)      R3D1 (4)
000220:                                                                                                  #  1      0010          +R3       R3D2 (3)      R3D3 (2)
000221:                                                                                                  #  0      0001          -R3       R3D4 (1)      R3D5 (0)
000222:                                                                                                  #         0000   NO RELAYWORD
000223:
000224:
000225:
000226:                                                                                                  #  THE 5 BIT RELAY CODES ARE,
000227:                                                                                                  #  BLANK      00000
000228:                                                                                                  #  0          10101
000229:                                                                                                  #  1          00011
000230:                                                                                                  #  2          11001
000231:                                                                                                  #  3          11011
000232:                                                                                                  #  4          01111
000233:                                                                                                  #  5          11110
000234:                                                                                                  #  6          11100
000235:                                                                                                  #  7          10011
000236:                                                                                                  #  8          11101
000237:                                                                                                  #  9          11111
000238:


000240:                                                                                                  #  START OF EXECUTIVE SECTION OF PINBALL
000241:
000242:
000243:
000244: 04,2000                                           SETLOC   20000
000245:
000246: 04,2000           03432        GRABUSYB           TC       GRABUSY1                              #  STANDARD LEAD INS. DONT MOVE.
000247: 04,2001           03454        NVSUBSYB           TC       NVSUBSY1
000248:
000249: 04,2002           37646        CHARIN             CAF      ONE                                   #  BLOCK DISPLAY SYST
000250: 04,2003           56652                           XCH      DSPLOCK                               #  MAKE DSP SYST BUSY, BUT SAVE OLD
000251: 04,2004           54101                           TS       21/22REG                              #  C(DSPLOCK) FOR ERROR LIGHT RESET.
000252: 04,2005           56140                           XCH      MPAC
000253: 04,2006           54103                           TS       CHAR
000254: 04,2007           50000                           INDEX    A
000255: 04,2010           02011                           TC       +1                                    #  INPUT CODE     FUNCTION
000256: 04,2011           03253                           TC       CHARALRM                              #  0
000257: 04,2012           02062                           TC       NUM                                   #  1
000258: 04,2013           02062                           TC       NUM                                   #  2
000259: 04,2014           02062                           TC       NUM                                   #  3
000260: 04,2015           02062                           TC       NUM                                   #  4
000261: 04,2016           02062                           TC       NUM                                   #  5
000262: 04,2017           02062                           TC       NUM                                   #  6
000263: 04,2020           02062                           TC       NUM                                   #  7
000264: 04,2021           02053                           TC       89TEST                                #  10                 8
000265: 04,2022           02053                           TC       89TEST                                #  11                 9
000266: 04,2023           03253                           TC       CHARALRM                              #  12
000267: 04,2024           03253                           TC       CHARALRM                              #  13
000268: 04,2025           03253                           TC       CHARALRM                              #  14
000269: 04,2026           03253                           TC       CHARALRM                              #  15
000270: 04,2027           03253                           TC       CHARALRM                              #  16
000271: 04,2030           03253                           TC       CHARALRM                              #  17
000272: 04,2031           02060                           TC       NUM        -2                         #  20                 0
000273: 04,2032           02235                           TC       VERB                                  #  21                 VERB
000274: 04,2033           02343                           TC       ERROR                                 #  22                 ERROR LIGHT RESET
000275: 04,2034           03253                           TC       CHARALRM                              #  23
000276: 04,2035           03253                           TC       CHARALRM                              #  24
000277: 04,2036           03253                           TC       CHARALRM                              #  25
000278: 04,2037           03253                           TC       CHARALRM                              #  26
000279: 04,2040           03253                           TC       CHARALRM                              #  27
000280: 04,2041           03253                           TC       CHARALRM                              #  30
000281: 04,2042           03276                           TC       VBRELDSP                              #  31                 KEY RELEASE
000282: 04,2043           02267                           TC       POSGN                                 #  32                 +
000283: 04,2044           02254                           TC       NEGSGN                                #  33                 -
000284: 04,2045           02051                           TC       ENTERJMP                              #  34                 ENTER
000285: 04,2046           03253                           TC       CHARALRM                              #  35
000286: 04,2047           02407                           TC       CLEAR                                 #  36                 CLEAR
000287: 04,2050           02250                           TC       NOUN                                  #  37                 NOUN
000288:


000290: 04,2051           04102        ENTERJMP           TC       POSTJUMP
000291: 04,2052           12003                           CADR     ENTER
000292:
000293: 04,2053           36165        89TEST             CAF      THREE
000294: 04,2054           70640                           MASK     DECBRNCH
000295: 04,2055           10000                           CCS      A
000296: 04,2056           02062                           TC       NUM                                   #  IF DECBRNCH IS +, 8 OR 9 OK
000297: 04,2057           03253                           TC       CHARALRM                              #  IF DECBRNCH IS +0, REJECT 8 OR 9
000298:
000299:
000300:
000301:                                                                                                  #  NUM ASSEMBLES OCTAL 3 BITS AT A TIME. FOR DECIMAL IT CONVERTS INCOMING
000302:                                                                                                  #  WORD AS A FRACTION, KEEPING RESULTS TO DP.
000303:                                                                                                  #  OCTAL RESULTS ARE LEFT IN XREG, YREG, OR ZREG. HI PART OF DEC IN XREG,
000304:                                                                                                  #  YREG, ZREG. THE LOW PARTS IN XREGLP, YREGLP, OR ZREGLP)
000305:                                                                                                  #  DECBRNCH IS LEFT AT +0 FOR OCT, +1 FOR + DEC, +2 FOR - DEC.
000306:                                                                                                  #  IF DSPCOUNT WAS LEFT -, NO MORE DATA IS ACCEPTED.
000307:
000308: 04,2060           37653                           CAF      ZERO
000309: 04,2061           54103                           TS       CHAR
000310: 04,2062           10637        NUM                CCS      DSPCOUNT
000311: 04,2063           02067                           TC       +4                                    #  +
000312: 04,2064           02067                           TC       +3                                    #  +0
000313: 04,2065           02066                           TC       +1                                    #  -BLOCK DATA IN IF DSPCOUNT IS -
000314: 04,2066           04205                           TC       ENDOFJOB                              #  -0
000315: 04,2067           02205                           TC       GETINREL
000316: 04,2070           10655                           CCS      CLPASS                                #  IF CLPASS IS + OR +0, MAKE IT +0.
000317: 04,2071           37653                           CAF      ZERO
000318: 04,2072           54655                           TS       CLPASS
000319: 04,2073           02074                           TC       +1
000320: 04,2074           50103                           INDEX    CHAR
000321: 04,2075           34333                           CAF      RELTAB
000322: 04,2076           74473                           MASK     LOW5
000323: 04,2077           54110                           TS       CODE
000324: 04,2100           30637                           CA       DSPCOUNT
000325: 04,2101           54127                           TS       COUNT
000326: 04,2102           03157                           TC       DSPIN
000327: 04,2103           36165                           CAF      THREE
000328: 04,2104           70640                           MASK     DECBRNCH
000329: 04,2105           10000                           CCS      A                                     #  +0, OCTAL.  +1, + DEC.  +2, - DEC.
000330: 04,2106           02117                           TC       DECTOBIN                              #  +
000331: 04,2107           50123                           INDEX    INREL                                 #  +0 OCTAL
000332: 04,2110           56641                           XCH      VERBREG
000333: 04,2111           54022                           TS       CYL
000334: 04,2112           40022                           CS       CYL
000335: 04,2113           40022                           CS       CYL
000336: 04,2114           56022                           XCH      CYL
000337: 04,2115           60103                           AD       CHAR
000338: 04,2116           02134                           TC       ENDNMTST
000339: 04,2117           50123        DECTOBIN           INDEX    INREL
000340:


000342: 04,2120           56641                           XCH      VERBREG
000343: 04,2121           54140                           TS       MPAC                                  #  SUM X 2EXP-14 IN MPAC
000344: 04,2122           37653                           CAF      ZERO
000345: 04,2123           54141                           TS       MPAC       +1
000346: 04,2124           37650                           CAF      TEN                                   #  10 X 2EXP-14
000347: 04,2125           07257                           TC       SHORTMP                               #  10SUM X 2EXP-28 IN MPAC, MPAC+1
000348: 04,2126           56141                           XCH      MPAC       +1
000349: 04,2127           60103                           AD       CHAR
000350: 04,2130           54141                           TS       MPAC       +1
000351: 04,2131           02134                           TC       ENDNMTST                              #  NO OF
000352: 04,2132           26140                           ADS      MPAC                                  #  OF MUST BE 5TH CHAR
000353: 04,2133           02152                           TC       DECEND
000354: 04,2134           50123        ENDNMTST           INDEX    INREL
000355: 04,2135           54641                           TS       VERBREG
000356: 04,2136           40637                           CS       DSPCOUNT
000357: 04,2137           50123                           INDEX    INREL
000358: 04,2140           62176                           AD       CRITCON
000359: 04,2141           00006                           EXTEND
000360: 04,2142           12144                           BZF      ENDNUM                                #  -0, DSPCOUNT = CRITCON
000361: 04,2143           02173                           TC       MORNUM                                #  - , DSPCOUNT G/ CRITCON
000362: 04,2144           36165        ENDNUM             CAF      THREE
000363: 04,2145           70640                           MASK     DECBRNCH
000364: 04,2146           10000                           CCS      A
000365: 04,2147           02152                           TC       DECEND
000366: 04,2150           40637        ENDALL             CS       DSPCOUNT                              #  BLOCK NUMIN BY PLACING DSPCOUNT
000367: 04,2151           02174                           TC       MORNUM     +1                         #  NEGATIVELY
000368: 04,2152           07062        DECEND             TC       DMP                                   #  MULT SUM X 2EXP-28 IN MPAC, MPAC+1 BY
000369: 04,2153           02203                           ADRES    DECON                                 #  2EXP14/10EXP5. GIVES(SUM/10EXP5)X2EXP-14
000370: 04,2154           36165                           CAF      THREE                                 #  IN MPAC, +1, +2.
000371: 04,2155           70640                           MASK     DECBRNCH
000372: 04,2156           50000                           INDEX    A
000373: 04,2157           02157                           TC       +0
000374: 04,2160           02164                           TC       +DECSGN
000375: 04,2161           00006                           EXTEND                                         #  - CASE
000376: 04,2162           40142                           DCS      MPAC       +1
000377: 04,2163           52142                           DXCH     MPAC       +1
000378: 04,2164           56142        +DECSGN            XCH      MPAC       +2
000379: 04,2165           50123                           INDEX    INREL
000380: 04,2166           54644                           TS       XREGLP     -2
000381: 04,2167           56141                           XCH      MPAC       +1
000382: 04,2170           50123                           INDEX    INREL
000383: 04,2171           54641                           TS       VERBREG
000384: 04,2172           02150                           TC       ENDALL
000385: 04,2173           10637        MORNUM             CCS      DSPCOUNT                              #  DECREMENT DSPCOUNT
000386: 04,2174           54637                           TS       DSPCOUNT
000387: 04,2175           04205                           TC       ENDOFJOB
000388:
000389: 04,2176           00022        CRITCON            OCT      22                                    #  (DEC 18)
000390: 04,2177           00020                           OCT      20                                    #  (DEC 16)
000391: 04,2200           00012                           OCT      12                                    #  (DEC 10)


000393: 04,2201           00005                           OCT      5
000394: 04,2202           00000                           OCT      0
000395:
000396: 04,2203           05174 13261  DECON              2DEC     E-5        B14                        #  2EXP14/10EXP5 = .16384 DEC
000397:
000398:
000399:                                                                                                  #  GETINREL GETS PROPER DATA REG REL ADDRESS FOR CURRENT C(DSPCOUNT) AND
000400:                                                                                                  #  PUTS IN INTO INREL. +0 VERBREG, 1 NOUNREG, 2 XREG, 3 YREG, 4 ZREG.
000401:
000402: 04,2205           50637        GETINREL           INDEX    DSPCOUNT
000403: 04,2206           32211                           CAF      INRELTAB
000404: 04,2207           54123                           TS       INREL                                 #  (A TEMP, REG)
000405: 04,2210           00002                           TC       Q
000406:
000407: 04,2211           00004        INRELTAB           OCT      4                                     #  R3D5 (DSPCOUNT = 0)
000408: 04,2212           00004                           OCT      4                                     #  R3D4           =(1)
000409: 04,2213           00004                           OCT      4                                     #  R3D3           =(2)
000410: 04,2214           00004                           OCT      4                                     #  R3D2           =(3)
000411: 04,2215           00004                           OCT      4                                     #  R3D1           =(4)
000412: 04,2216           00003                           OCT      3                                     #  R2D5           =(5)
000413: 04,2217           00003                           OCT      3                                     #  R2D4           =(6)
000414: 04,2220           00003                           OCT      3                                     #  R2D3           =(7)
000415: 04,2221           00003                           OCT      3                                     #  R2D2           =(8D)
000416: 04,2222           00003                           OCT      3                                     #  R2D1           =(9D)
000417: 04,2223           00002                           OCT      2                                     #  R1D5           =(10D)
000418: 04,2224           00002                           OCT      2                                     #  R1D4           =(11D)
000419: 04,2225           00002                           OCT      2                                     #  R1D3           =(12D)
000420: 04,2226           00002                           OCT      2                                     #  R1D2           =(13D)
000421: 04,2227           00002                           OCT      2                                     #  R1D1           =(14D)
000422: 04,2231                                           LOC      +1                                    #  NO DSPCOUNT NUMBER = 15D
000423: 04,2231           00001                           OCT      1                                     #  ND2            =(16D)
000424: 04,2232           00001                           OCT      1                                     #  ND1            =(17D)
000425: 04,2233           00000                           OCT      0                                     #  VD2            =(18D)
000426: 04,2234           00000                           OCT      0                                     #  VD1            =(19D)
000427:
000428:
000429: 04,2235           37653        VERB               CAF      ZERO
000430: 04,2236           54641                           TS       VERBREG
000431: 04,2237           34506                           CAF      VD1
000432: 04,2240           54637        NVCOM              TS       DSPCOUNT
000433: 04,2241           02517                           TC       2BLANK
000434: 04,2242           37653                           CAF      ZERO
000435: 04,2243           54640                           TS       DECBRNCH
000436: 04,2244           54653                           TS       REQRET                                #  SET FOR ENTPAS0
000437: 04,2245           34417                           CAF      ENDINST                               #  IF DSPALARM OCCURS BEFORE FIRST ENTPAS0
000438: 04,2246           54122                           TS       ENTRET                                #  OR NVSUB, ENTRET MUST ALREADY BE SET
000439:                                                                                                  #  TO TC ENDOFJOB
000440: 04,2247           04205                           TC       ENDOFJOB
000441:


000443: 04,2250           37653        NOUN               CAF      ZERO
000444: 04,2251           54642                           TS       NOUNREG
000445: 04,2252           34507                           CAF      ND1                                   #  ND1, OCT 21 (DEC 17)
000446: 04,2253           02240                           TC       NVCOM
000447:
000448:
000449:
000450: 04,2254           02326        NEGSGN             TC       SIGNTEST
000451: 04,2255           02313                           TC       -ON
000452: 04,2256           37645                           CAF      TWO
000453: 04,2257           50123        BOTHSGN            INDEX    INREL                                 #  SET DEC COMP BIT TO 1 (IN DECBRNCH)
000454: 04,2260           67640                           AD       BIT7                                  #  BIT 5 FOR R1,  BIT 4 FOR R2,
000455: 04,2261           26640                           ADS      DECBRNCH                              #  BIT 3 FOR R3.
000456: 04,2262           10655        FIXCLPAS           CCS      CLPASS                                #  IF CLPASS IS + OR +0, MAKE IT +0.
000457: 04,2263           37653                           CAF      ZERO
000458: 04,2264           54655                           TS       CLPASS
000459: 04,2265           02266                           TC       +1
000460: 04,2266           04205                           TC       ENDOFJOB
000461:
000462: 04,2267           02326        POSGN              TC       SIGNTEST
000463: 04,2270           02273                           TC       +ON
000464: 04,2271           37646                           CAF      ONE
000465: 04,2272           02257                           TC       BOTHSGN
000466:
000467: 04,2273           22002        +ON                LXCH     Q
000468: 04,2274           02205                           TC       GETINREL
000469: 04,2275           50123                           INDEX    INREL
000470: 04,2276           32321                           CAF      SGNTAB     -2
000471: 04,2277           54107                           TS       SGNOFF
000472: 04,2300           67646                           AD       ONE
000473: 04,2301           54106                           TS       SGNON
000474: 04,2302           37653        SGNCOM             CAF      ZERO
000475: 04,2303           54110                           TS       CODE
000476: 04,2304           56107                           XCH      SGNOFF
000477: 04,2305           03241                           TC       11DSPIN
000478: 04,2306           37634                           CAF      BIT11
000479: 04,2307           54110                           TS       CODE
000480: 04,2310           56106                           XCH      SGNON
000481: 04,2311           03241                           TC       11DSPIN
000482: 04,2312           00001                           TC       L
000483: 04,2313           22002        -ON                LXCH     Q
000484: 04,2314           02205                           TC       GETINREL
000485: 04,2315           50123                           INDEX    INREL
000486: 04,2316           32321                           CAF      SGNTAB     -2
000487: 04,2317           54106                           TS       SGNON
000488: 04,2320           67646                           AD       ONE
000489: 04,2321           54107                           TS       SGNOFF
000490: 04,2322           02302                           TC       SGNCOM
000491:
000492: 04,2323           00005        SGNTAB             OCT      5                                     #  -R1


000494: 04,2324           00003                           OCT      3                                     #  -R2
000495: 04,2325           00000                           OCT      0                                     #  -R3
000496:
000497:
000498:
000499: 04,2326           22002        SIGNTEST           LXCH     Q                                     #  ALLOWS +,- ONLY WHEN DSPCOUNT=R1D1,
000500: 04,2327           44444                           CS       R1D1                                  #  R2D1, OR R3D1.
000501: 04,2330           02336                           TC       SGNTST1
000502: 04,2331           44445                           CS       R2D1
000503: 04,2332           02336                           TC       SGNTST1
000504: 04,2333           44446                           CS       R3D1
000505: 04,2334           02336                           TC       SGNTST1
000506: 04,2335           04205                           TC       ENDOFJOB                              #  NO MATCH FOUND. SIGN ILLEGAL
000507: 04,2336           60637        SGNTST1            AD       DSPCOUNT
000508: 04,2337           00006                           EXTEND
000509: 04,2340           12342                           BZF      +2                                    #  MATCH FOUND
000510: 04,2341           00002                           TC       Q
000511: 04,2342           00001                           TC       L                                     #  SIGN LEGAL
000512:
000513:
000514:
000515:                                                                                                  #  ERROR LIGHT RESET (RSET) TURNS OFF,
000516:                                                                                                  #  UPLINK ACTIVITY, AUTO, HOLD, FREE, NO ATT, OPERATOR ERROR, TEMP, GIMBAL
000517:                                                                                                  #  LOCK, PROG ALM, TRACKER.
000518:                                                                                                  #  IT ALSO ZEROES THE :TEST ALARM: OUT BIT, WHICH TURNS OFF STBY,RESTART.
000519:                                                                                                  #  IT ALSO FORCES BIT 12 OF ALL DSPTAB ENTRIES TO 1.
000520:
000521: 04,2343           56101        ERROR              XCH      21/22REG                              #  RESTORE ORIGINAL C(DSPLOCK). THUS ERROR
000522: 04,2344           54652                           TS       DSPLOCK                               #  LIGHT RESET LEAVES DSPLOCK UNCHANGED.
000523: 04,2345           37630                           CAF      BIT15                                 #  TURNS OFF  AUTO, HOLD, FREE, NO ATT,
000524: 04,2346           54675                           TS       DSPTAB     +11D                       #  GIMBAL LOCK, TRACKER, PROG ALM.
000525: 04,2347           47635                           CS       BIT10                                 #  TURN OFF :TEST ALARM: OUTBIT.
000526: 04,2350           00006                           EXTEND
000527: 04,2351           03013                           WAND     CHAN13
000528: 04,2352           42405                           CS       ERCON                                 #  TURNS OFF  UPLINK ACTIVITY, TEMP,
000529: 04,2353           00006                           EXTEND                                         #  OPERATOR ERROR.
000530: 04,2354           03011                           WAND     DSALMOUT
000531: 04,2355           34511        TSTAB              CAF      BINCON                                #  (DEC 10)
000532: 04,2356           54103                           TS       ERCNT                                 #  ERCNT = COUNT
000533: 04,2357           00004                           INHINT
000534: 04,2360           50103                           INDEX    ERCNT
000535: 04,2361           10662                           CCS      DSPTAB
000536: 04,2362           67646                           AD       ONE
000537: 04,2363           02370                           TC       ERPLUS
000538: 04,2364           67646                           AD       ONE
000539: 04,2365           40000        ERMINUS            CS       A
000540: 04,2366           72406                           MASK     NOTBIT12
000541: 04,2367           02373                           TC       ERCOM
000542: 04,2370           40000        ERPLUS             CS       A
000543: 04,2371           72406                           MASK     NOTBIT12


000545: 04,2372           40000                           CS       A                                     #  MIGHT WANT TO RESET CLPASS, DECBRNCH,
000546: 04,2373           50103        ERCOM              INDEX    ERCNT                                 #  ETC.
000547: 04,2374           54662                           TS       DSPTAB
000548: 04,2375           00003                           RELINT
000549: 04,2376           10103                           CCS      ERCNT
000550: 04,2377           02356                           TC       TSTAB      +1
000551: 04,2400           37653                           CAF      ZERO
000552: 04,2401           54721                           TS       FAILREG
000553: 04,2402           55021                           TS       OLDERR
000554: 04,2403           55044                           TS       SFAIL
000555: 04,2404           04205                           TC       ENDOFJOB
000556:
000557: 04,2405           00114        ERCON              OCT      00114                                 #  CHAN 11 BIT 3,4,7.
000558:                                                                                                  #  UPLINK ACTIVITY, TEMP, OPERATOR
000559:                                                                                                  #  ERROR.
000560: 04,2406           73777        NOTBIT12           OCT      73777
000561:
000562:
000563:
000564:                                                                                                  #  CLEAR BLANKS WHICH R1, R2, R3 IS CURRENT OR LAST TO BE DISPLAYED(PERTINE
000565:                                                                                                  #  NT XREG,YREG,ZREG IS CLEARED). SUCCESSIVE CLEARS TAKE CARE OF EACH RX
000566:                                                                                                  #  L/ RC UNTIL R1 IS DONE. THEN NO FURTHER ACTION
000567:
000568:                                                                                                  #  THE SINGLE COMPONENT LOAD VERBS ALLOW ONLY THE SINGLE RC THAT IS
000569:                                                                                                  #  APPROPRIATE TO BE CLEARED.
000570:
000571:                                                                                                  #  CLPASS   +0 PASS0, CAN BE BACKED UP
000572:                                                                                                  #           +NZ HIPASS, CAN BE BACKED UP
000573:                                                                                                  #           -NZ PASS0, CANNOT BE BACKED UP
000574:
000575: 04,2407           10637        CLEAR              CCS      DSPCOUNT
000576: 04,2410           67646                           AD       ONE
000577: 04,2411           02413                           TC       +2
000578: 04,2412           67646                           AD       ONE
000579: 04,2413           54637                           TS       DSPCOUNT                              #  MAG OF DSPCOUNT
000580: 04,2414           02205                           TC       GETINREL                              #  MUST SET INREL, EVEN FOR HIPASS
000581: 04,2415           10655                           CCS      CLPASS
000582: 04,2416           02424                           TC       CLPASHI                               #  +
000583: 04,2417           02421                           TC       +2                                    #  +0    IF CLPASS IS +0 OR -, IT IS PASS0
000584: 04,2420           02421                           TC       +1                                    #  -
000585: 04,2421           30123                           CA       INREL
000586: 04,2422           02446                           TC       LEGALTST
000587: 04,2423           02441                           TC       CLEAR1
000588: 04,2424           10123        CLPASHI            CCS      INREL
000589: 04,2425           54123                           TS       INREL
000590: 04,2426           02446                           TC       LEGALTST
000591: 04,2427           32515                           CAF      DOUBLK     +2                         #  +3 TO - NUMBER. BACKS DATA REQUESTS.
000592: 04,2430           26653                           ADS      REQRET
000593: 04,2431           30123                           CA       INREL
000594: 04,2432           54111                           TS       MIXTEMP                               #  TEMP STORAGE FOR INREL


000596: 04,2433           00006                           EXTEND
000597: 04,2434           26641                           DIM      VERBREG                               #  DECREMENT VERB AND RE-DISPLAY
000598: 04,2435           04063                           TC       BANKCALL
000599: 04,2436           12315                           CADR     UPDATVB
000600: 04,2437           30111                           CA       MIXTEMP
000601: 04,2440           54123                           TS       INREL                                 #  RESTORE INREL
000602: 04,2441           02444        CLEAR1             TC       CLR5
000603: 04,2442           24655                           INCR     CLPASS                                #  ONLY IF CLPASS IS + OR +0,
000604: 04,2443           04205                           TC       ENDOFJOB                              #  SET FOR HIGHER PASS.
000605: 04,2444           22002        CLR5               LXCH     Q                                     #  USES 5BLANK BUT AVOIDS ITS TC GETINREL
000606: 04,2445           02456                           TC       5BLANK     +2
000607: 04,2446           67656        LEGALTST           AD       NEG2
000608: 04,2447           10000                           CCS      A
000609: 04,2450           00002                           TC       Q                                     #  LEGAL  INREL G/ 2
000610: 04,2452                                           LOC      +1
000611: 04,2452           04205                           TC       ENDOFJOB                              #  ILLEGAL   INREL= 0,1
000612: 04,2453           00002                           TC       Q                                     #  LEGAL    INREL = 2
000613:
000614:
000615:
000616:                                                                                                  #  5BLANK BLANKS 5 CHAR DISPLAY WORD IN R1, R2, OR R3. IT ALSO ZEROES XREG,
000617:                                                                                                  #  YREG, OR ZREG.PLACE ANY + DSPCOUNT NUMBER FOR PERTINENT RC INTO DSPCOUNT
000618:                                                                                                  #  DSPCOUNT IS LEFT SET TO LEFT MOST DSP NUMB FOR RC JUST BLANKED.
000619:
000620: 04,2454           22002        5BLANK             LXCH     Q
000621: 04,2455           02205                           TC       GETINREL
000622: 04,2456           37653                           CAF      ZERO
000623: 04,2457           50123                           INDEX    INREL
000624: 04,2460           54641                           TS       VERBREG                               #  ZERO X, Y, Z REG.
000625: 04,2461           50123                           INDEX    INREL
000626: 04,2462           54644                           TS       XREGLP     -2
000627: 04,2463           54110                           TS       CODE
000628: 04,2464           50123                           INDEX    INREL                                 #  ZERO PERTINENT DEC COMP BIT.
000629: 04,2465           47640                           CS       BIT7                                  #  PROTECT OTHERS
000630: 04,2466           70640                           MASK     DECBRNCH
000631: 04,2467           72516                           MASK     BRNCHCON                              #  ZERO LOW 2 BITS.
000632: 04,2470           54640                           TS       DECBRNCH
000633: 04,2471           50123                           INDEX    INREL
000634: 04,2472           32506                           CAF      SINBLANK   -2                         #  BLANK ISOLATED CHAR SEPARATELY
000635: 04,2473           54127                           TS       COUNT
000636: 04,2474           03157                           TC       DSPIN
000637: 04,2475           50123        5BLANK1            INDEX    INREL
000638: 04,2476           32511                           CAF      DOUBLK     -2
000639: 04,2477           54637                           TS       DSPCOUNT
000640: 04,2500           02517                           TC       2BLANK
000641: 04,2501           47645                           CS       TWO
000642: 04,2502           26637                           ADS      DSPCOUNT
000643: 04,2503           02517                           TC       2BLANK
000644: 04,2504           50123                           INDEX    INREL
000645: 04,2505           34442                           CAF      R1D1       -2


000647: 04,2506           54637                           TS       DSPCOUNT                              #  SET DSPCOUNT TO LEFT MOST DSP NUMBER
000648: 04,2507           00001                           TC       L                                     #  OF REG. JUST BLANKED
000649:
000650: 04,2510           00016        SINBLANK           OCT      16                                    #  DEC 14
000651: 04,2511           00005                           OCT      5
000652: 04,2512           00004                           OCT      4
000653: 04,2513           00015        DOUBLK             OCT      15                                    #  DEC 13
000654: 04,2514           00011                           OCT      11                                    #  DEC 9
000655: 04,2515           00003                           OCT      3
000656:
000657: 04,2516           77774        BRNCHCON           OCT      77774
000658:
000659:                                                                                                  #  2BLANK BLANKS TWO CHAR. PLACE DSP NUMBER OF LEFT CHAR  OF THE PAIR INTO
000660:                                                                                                  #  DSPCOUNT. THIS NUMBER IS LEFT IN DSPCOUNT
000661:
000662: 04,2517           30637        2BLANK             CA       DSPCOUNT
000663: 04,2520           54021                           TS       SR
000664: 04,2521           42532                           CS       BLANKCON
000665: 04,2522           00004                           INHINT
000666: 04,2523           50021                           INDEX    SR
000667: 04,2524           56662                           XCH      DSPTAB
000668: 04,2525           00006                           EXTEND
000669: 04,2526           62530                           BZMF     +2                                    #  IF OLD CONTENTS -, NOUT OK
000670: 04,2527           24656                           INCR     NOUT                                  #  IF OLD CONTENTS +, +1 TO NOUT
000671: 04,2530           00003                           RELINT                                         #  IF -,NOUT OK
000672: 04,2531           00002                           TC       Q
000673: 04,2532           04000        BLANKCON           OCT      4000
000674:


000676:                                                                                                  #  ENTER PASS 0 IS THE EXECUTE FUNCTION. HIGHER ORDER ENTERS ARE TO LOAD
000677:                                                                                                  #  DATA. THE SIGN OF REQRET DETERMINES THE PASS, + FOR PASS 0,- FOR HIGHER
000678:                                                                                                  #  PASSES.
000679:
000680:
000681:
000682:                                                                                                  #  MACHINE CADR TO BE SPECIFIED (MCTBS) NOUNS DESIRE AN ECADR TO BE LOADED
000683:                                                                                                  #  WHEN USED WITH LOAD VERBS, MONITOR VERBS, OR DISPLAY VERBS (EXCEPT
000684:                                                                                                  #  VERB = FIXED MEMORY DISPLAY, WHICH REQUIRES AN FCADR).
000685:
000686:
000687:
000688: 05,2000                                           SETLOC   22000
000689:
000690: 05,2000           03344        NVSUBB             TC       NVSUB1                                #  STANDARD LEAD INS. DONT MOVE.
000691: 05,2001           13403        DSPMM              TCF      DSPMM1
000692: 05,2002           02663        LOADLV1            TC       LOADLV
000693:                                                                                                  #  END OF STANDARD LEAD INS.
000694:
000695:
000696:
000697: 05,2003           37653        ENTER              CAF      ZERO
000698: 05,2004           54655                           TS       CLPASS
000699: 05,2005           34417                           CAF      ENDINST
000700: 05,2006           54122                           TS       ENTRET
000701: 05,2007           10653                           CCS      REQRET
000702: 05,2010           02031                           TC       ENTPAS0                               #  IF +, PASS 0
000703: 05,2011           02031                           TC       ENTPAS0                               #  IF +, PASS 0
000704: 05,2012           02013                           TC       +1                                    #  IF -, NOT PASS 0
000705: 05,2013           36165                           CAF      THREE                                 #  IF DEC, ALARM IF LESS THAN 5 CHAR IN,
000706: 05,2014           70640                           MASK     DECBRNCH                              #  BUT LEAVE REQRET - AND FLASH ON, SO
000707: 05,2015           10000                           CCS      A                                     #  OPERATOR CAN SUPPLY MISSING NUMERICAL
000708: 05,2016           02020                           TC       +2                                    #  CHARACTERS AND CONTINUE.
000709: 05,2017           02024                           TC       ACCEPTWD                              #  OCTAL. ANY NUMBER OF CHAR OK.
000710: 05,2020           10637                           CCS      DSPCOUNT
000711: 05,2021           02324                           TC       GODSPALM                              #  LESS THAN 5 CHAR DEC(DSPCOUNT IS +)
000712: 05,2022           02324                           TC       GODSPALM                              #  LESS THAN 5 CHAR DEC(DSPCOUNT IS +)
000713: 05,2023           02024                           TC       +1                                    #  5 CHAR IN (DSPCOUNT IS -)
000714: 05,2024           40653        ACCEPTWD           CS       REQRET                                #  5 CHAR IN (DSPCOUNT IS -)
000715: 05,2025           54653                           TS       REQRET                                #  SET REQRET +.
000716: 05,2026           04547                           TC       FLASHOFF
000717: 05,2027           00653                           TC       REQRET
000718:
000719: 05,2030     0122               ENTEXIT            =        ENTRET
000720:
000721: 05,2030           00030        LOWVERB            OCT      30                                    #  LOWER VERB THAT AVOIDS NOUN TEST
000722:
000723: 05,2031           37653        ENTPAS0            CAF      ZERO                                  #   NOUN VERB SUB ENTERS HERE
000724: 05,2032           54640                           TS       DECBRNCH
000725: 05,2033           40641        TESTVB             CS       VERBREG                               #  IF VERB IS 30-77, SKIP NOUN TEST


000727: 05,2034           62030                           AD       LOWVERB                               #  30-VB
000728: 05,2035           00006                           EXTEND
000729: 05,2036           62116                           BZMF     VERBFAN                               #  VERB G/E 30
000730: 05,2037           00006        TESTNN             EXTEND                                         #  VERB L/ 30
000731: 05,2040           32076                           DCA      LODNNLOC                              #  SWITCH BANKS TO NOUN TABLE READING
000732: 05,2041           52006                           DXCH     Z                                     #  ROUTINE.
000733: 05,2042           50124                           INDEX    MIXBR
000734: 05,2043           02043                           TC       +0
000735: 05,2044           02046                           TC       +2                                    #  NORMAL
000736: 05,2045           02176                           TC       MIXNOUN                               #  MIXED
000737: 05,2046           10132                           CCS      NNADTEM                               #  NORMAL
000738: 05,2047           02114                           TC       VERBFAN    -2                         #       NORMAL  IF +
000739: 05,2050           02324                           TC       GODSPALM                              #  NOT IN USE    IF +0
000740: 05,2051           02055                           TC       REQADD                                #  SPECIFY MACHINE CADR IF -
000741: 05,2052           24657                           INCR     NOUNCADR                              #  AUGMENT MACHINE CADR IF -0
000742: 05,2053           04436                           TC       SETNADD                               #  ECADR FROM NOUNCADR. SETS EB, NOUNADD.
000743: 05,2054           02102                           TC       INTMCTBS   +2
000744: 05,2055           37630        REQADD             CAF      BIT15                                 #  SET CLPASS FOR PASS0 ONLY
000745: 05,2056           54655                           TS       CLPASS
000746: 05,2057           44417                           CS       ENDINST                               #  TEST IF REACHED HERE FROM INTERNAL OR
000747: 05,2060           60122                           AD       ENTEXIT                               #              FROM EXTERNAL
000748: 05,2061           00006                           EXTEND
000749: 05,2062           12064                           BZF      +2                                    #  EXTERNAL MACH CADR TO BE SPECIFIED
000750: 05,2063           02100                           TC       INTMCTBS
000751: 05,2064           02256                           TC       REQDATZ                               #  EXTERNAL MACH CADR TO BE SPECIFIED
000752: 05,2065           10640                           CCS      DECBRNCH
000753: 05,2066           02324                           TC       GODSPALM                              #  ALARM IF DECIMAL USED FOR MCTBS
000754: 05,2067           56645                           XCH      ZREG                                  #  OCTAL USED    OK
000755: 05,2070           04430                           TC       SETNCADR                              #  ECADR INTO NOUNCADR. SET EB, NOUNADD.
000756: 05,2071           00006                           EXTEND
000757: 05,2072           32076                           DCA      LODNNLOC                              #  SWITCH BANKS TO NOUN TABLE READING
000758: 05,2073           52006                           DXCH     Z                                     #  ROUTINE.
000759: 05,2074           02116                           TC       VERBFAN
000760:
000761: 05,2075     0637                                  EBANK=   DSPCOUNT
000762: 05,2075           02000 14001  LODNNLOC           2CADR    LODNNTAB
000763:
000764: 05,2077           77772        NEG5               OCT      77772
000765:
000766: 05,2100           30142        INTMCTBS           CA       MPAC       +2                         #  INTERNAL MACH CADR TO BE SPECIFIED.
000767: 05,2101           04430                           TC       SETNCADR                              #  ECADR INTO NOUNCADR. SET EB, NOUNADD.
000768: 05,2102           47643                           CS       BIT4                                  #  NVSUB CALL LEFT CADR IN MPAC+2 FOR MACH
000769: 05,2103           70641                           MASK     VERBREG                               #  CADR TO BE SPECIFIED.
000770: 05,2104           62077                           AD       NEG5                                  #  MASKING MAKES VB15 LOOK LIKE VB05.
000771: 05,2105           00006                           EXTEND
000772: 05,2106           12116                           BZF      VERBFAN                               #  VB = 05 OR 15, DO NOT DISPLAY CADR.
000773: 05,2107           34446                           CAF      R3D1                                  #  VB NOT = 05 OR 15, DISPLAY CADR.
000774: 05,2110           54637                           TS       DSPCOUNT
000775: 05,2111           30657                           CA       NOUNCADR
000776: 05,2112           03222                           TC       DSPOCTWD


000778: 05,2113           02116                           TC       VERBFAN
000779:
000780: 05,2114           67646                           AD       ONE
000781: 05,2115           04430                           TC       SETNCADR                              #  ECADR INTO NOUNCADR. SETS EB, NOUNADD.
000782: 05,2116           42131        VERBFAN            CS       LST2CON
000783: 05,2117           60641                           AD       VERBREG                               #  VERB-LST2CON
000784: 05,2120           10000                           CCS      A
000785: 05,2121           67646                           AD       ONE                                   #  VERB G/ LST2CON
000786: 05,2122           02124                           TC       +2
000787: 05,2123           02133                           TC       VBFANDIR                              #  VERB L/ LST2CON
000788: 05,2124           54140                           TS       MPAC
000789: 05,2125           04610                           TC       RELDSP                                #  RELEASE DISPLAY SYST
000790: 05,2126           56140                           XCH      MPAC                                  #  ALSO TURN OFF RELEASE DISPLAY SYST LIGHT
000791: 05,2127           62132                           AD       LST2CADR
000792: 05,2130           04105                           TC       BANKJUMP
000793: 05,2131           00040        LST2CON            OCT      40                                    #  FIRST LST2 VERB


000795: 05,2132           22364        LST2CADR           CADR     LST2FAN


000797:
000798: 05,2133           50641        VBFANDIR           INDEX    VERBREG
000799: 05,2134           32136                           CAF      VERBTAB
000800: 05,2135           04105                           TC       BANKJUMP
000801:
000802: 05,2136           12324        VERBTAB            CADR     GODSPALM                              #  VB00 ILLEGAL
000803: 05,2137           12340                           CADR     DSPA                                  #  VB01 DISPLAY OCT COMP 1 (R1)
000804: 05,2140           12345                           CADR     DSPB                                  #  VB02 DISPLAY OCT COMP 2 (R1)
000805: 05,2141           12352                           CADR     DSPC                                  #  VB03 DISPLAY OCT COMP 3 (R1)
000806: 05,2142           12333                           CADR     DSPAB                                 #  VB04 DISPLAY OCT COMP 1,2 (R1,R2)
000807: 05,2143           12326                           CADR     DSPABC                                #  VB05 DISPLAY OCT COMP 1,2,3 (R1,R2,R3)
000808: 05,2144           12445                           CADR     DECDSP                                #  VB06 DECIMAL DISPLAY
000809: 05,2145           10662                           CADR     DSPDPDEC                              #  VB07 DP DECIMAL DISPLAY (R1,R2)
000810: 05,2146           11255                           CADR     DSPALARM                              #  VB10 SPARE
000811: 05,2147           13077                           CADR     MONITOR                               #  VB11 MONITOR OCT COMP 1 (R1)
000812: 05,2150           13077                           CADR     MONITOR                               #  VB12 MONITOR OCT COMP 2 (R1)
000813: 05,2151           13077                           CADR     MONITOR                               #  VB13 MONITOR OCT COMP 3 (R1)
000814: 05,2152           13077                           CADR     MONITOR                               #  VB14 MONITOR OCT COMP 1,2 (R1,R2)
000815: 05,2153           13077                           CADR     MONITOR                               #  VB15 MONITOR OCT COMP 1,2,3 (R1,R2,R3)
000816: 05,2154           13077                           CADR     MONITOR                               #  VB16 MONITOR DECIMAL
000817: 05,2155           13077                           CADR     MONITOR                               #  VB17 MONITOR DP DEC (R1,R2)
000818: 05,2156           12324                           CADR     GODSPALM                              #  VB20 SPARE
000819: 05,2157           12620                           CADR     ALOAD                                 #  VB21 LOAD COMP 1 (R1)
000820: 05,2160           12631                           CADR     BLOAD                                 #  VB22 LOAD COMP 2 (R2)
000821: 05,2161           12646                           CADR     CLOAD                                 #  VB23 LOAD COMP 3 (R3)
000822: 05,2162           12572                           CADR     ABLOAD                                #  VB24 LOAD COMP 1,2 (R1,R2)
000823: 05,2163           12535                           CADR     ABCLOAD                               #  VB25 LOAD COMP 1,2,3 (R1,R2,R3)
000824: 05,2164           12324                           CADR     GODSPALM                              #  VB26 SPARE
000825: 05,2165           13214                           CADR     DSPFMEM                               #  VB27 FIXED MEMORY DISPLAY
000826:                                                                                                  #  THE FOLLOWING VERBS MAKE NO NOUN TEST
000827: 05,2166           13314        REQEXLOC           CADR     VBRQEXEC                              #  VB30 REQUEST EXECUTIVE
000828: 05,2167           13340                           CADR     VBRQWAIT                              #  VB31 REQUEST WAITLIST
000829: 05,2170           11303                           CADR     BUMP                                  #  VB32 C(R2) INTO R3, C(R1) INTO R2


000831: 05,2171           11266                           CADR     VBPROC                                #  VB33 PROCEED WITHOUT DATA
000832: 05,2172           11273                           CADR     VBTERM                                #  VB34 TERMINATE CURRENT TEST OR LOAD REQ
000833: 05,2173           13414                           CADR     VBTSTLTS                              #  VB35 TEST LIGHTS
000834: 05,2174           02677                           CADR     SLAP1                                 #  VB36 FRESH START
000835: 05,2175           13267        ENDVBFAN           CADR     MMCHANG                               #  VB37 CHANGE MAJOR MODE
000836:
000837:
000838:
000839:                                                                                                  #  THE LIST2 VERBFAN IS LOCATED IN THE EXTENDED VERB BANK.
000840:


000842:                                                                                                  #  NNADTAB CONTAINS A RELATIVE ADDRESS, IDADDREL(IN LOW 10 BITS), REFERRING
000843:                                                                                                  #  TO WHERE 3 CONSECUTIVE ADDRESSES ARE STORED (IN IDADDTAB).
000844:                                                                                                  #  MIXNOUN GETS DATA AND STORES IN MIXTEMP,+1,+2. IT SETS NOUNADD FOR
000845:                                                                                                  #   MIXTEMP.
000846:
000847: 05,2176           10132        MIXNOUN            CCS      NNADTEM
000848: 05,2177           02203                           TC       +4                                    #  +  IN USE
000849: 05,2200           02324                           TC       GODSPALM                              #  +0  NOT IN USE
000850: 05,2201           02203                           TC       +2                                    #  -  IN USE
000851: 05,2202           02203                           TC       +1                                    #  -0  IN USE
000852: 05,2203           46162                           CS       SIX
000853: 05,2204           60641                           AD       VERBREG
000854: 05,2205           00006                           EXTEND
000855: 05,2206           62210                           BZMF     +2                                    #  VERB L/E 6
000856: 05,2207           02116                           TC       VERBFAN                               #  AVOID MIXNOUN SWAP IF VB NOT = DISPLAY
000857: 05,2210           37645                           CAF      TWO
000858: 05,2211           54103        MIXNN1             TS       DECOUNT
000859: 05,2212           62235                           AD       MIXAD
000860: 05,2213           54131                           TS       NOUNADD                               #  SET NOUNADD TO MIXTEMP + K
000861: 05,2214           50103                           INDEX    DECOUNT                               #  GET IDADDTAB ENTRY FOR COMPONENT K
000862: 05,2215           30134                           CA       IDAD1TEM                              #  OF NOUN.
000863: 05,2216           54106                           TS       NOUNTEM
000864:                                                                                                  #  TEST FOR DP(FOR OCT DISPLAY). IF SO, GET
000865:                                                                                                  #    MINOR PART ONLY.
000866: 05,2217           02721                           TC       SFRUTMIX                              #  GET SF ROUT NUMBER IN A
000867: 05,2220           02236                           TC       DPTEST
000868: 05,2221           02223                           TC       MIXNN2                                #  NO DP
000869: 05,2222           24106                           INCR     NOUNTEM                               #  DP GET MINOR PART
000870: 05,2223           30106        MIXNN2             CA       NOUNTEM
000871: 05,2224           74503                           MASK     LOW11                                 #  ESUBK (NO DP) OR (ESUBK)+1     FOR DP
000872: 05,2225           04440                           TC       SETEBANK                              #  SET EBANK, LEAVE EADRES IN A.
000873: 05,2226           50000                           INDEX    A                                     #  PICK UP C(ESUBK)  NOT DP
000874: 05,2227           30000                           CA       0                                     #  OR C((ESUBK)+1)  FOR DP MINOR PART
000875: 05,2230           50131                           INDEX    NOUNADD
000876: 05,2231           56000                           XCH      0                                     #  STORE IN MIXTEM + K
000877: 05,2232           10103                           CCS      DECOUNT
000878: 05,2233           02211                           TC       MIXNN1
000879: 05,2234           02116                           TC       VERBFAN
000880:
000881: 05,2235           00111        MIXAD              TC       MIXTEMP
000882:
000883:
000884:
000885:                                                                                                  #  DPTEST   ENTER WITH SF ROUT NUMBER IN A.
000886:                                                                                                  #           RETURNS TO L+1 IF NO DP.
000887:                                                                                                  #           RETURNS TO L+2 IF DP.
000888:
000889: 05,2236           50000        DPTEST             INDEX    A
000890: 05,2237           12240                           TCF      +1
000891: 05,2240           00002                           TC       Q                                     #  OCTAL ONLY NO DP


000893: 05,2241           00002                           TC       Q                                     #  FRACT NO DP
000894: 05,2242           00002                           TC       Q                                     #  DEG  NO DP
000895: 05,2243           00002                           TC       Q                                     #  ARITH  NO DP
000896: 05,2244           12250                           TCF      DPTEST1                               #  DP1OUT
000897: 05,2245           12250                           TCF      DPTEST1                               #  DP2OUT
000898: 05,2246           00002                           TC       Q                                     #  OPDEG  NO DP
000899: 05,2247           12250                           TCF      DPTEST1                               #  DP3OUT
000900: 05,2250           50002        DPTEST1            INDEX    Q
000901: 05,2251           00001                           TC       1                                     #  RETURN TO L+2
000902:
000903:
000904:
000905: 05,2252           34444        REQDATX            CAF      R1D1
000906: 05,2253           12257                           TCF      REQCOM
000907: 05,2254           34445        REQDATY            CAF      R2D1
000908: 05,2255           12257                           TCF      REQCOM
000909: 05,2256           34446        REQDATZ            CAF      R3D1
000910: 05,2257           54637        REQCOM             TS       DSPCOUNT
000911: 05,2260           40002                           CS       Q
000912: 05,2261           54653                           TS       REQRET
000913: 05,2262           04063                           TC       BANKCALL
000914: 05,2263           10454                           CADR     5BLANK
000915: 05,2264           04543                           TC       FLASHON
000916: 05,2265           44417                           CS       ENDINST
000917: 05,2266           60122                           AD       ENTEXIT
000918: 05,2267           00006                           EXTEND
000919: 05,2270           12273                           BZF      ENDRQDAT                              #  ENTEXIT = ENDOFJOB. EXTERNALLY INITIATED
000920: 05,2271           47653                           CS       ZERO                                  #  ENTEXIT NOT ENDOFJOB. NVSUB INITIATED
000921: 05,2272           54676                           TS       CADRSTOR                              #  NVSUB INITIATED LOAD. SET CADRSTOR TO -0
000922: 05,2273           00122        ENDRQDAT           TC       ENTEXIT
000923:
000924:                                                                                                  #  IF NVSUB INITIATED LOAD, SET CADRSTOR TO -0 TO TELL RECALTST TO RELEASE
000925:                                                                                                  #  DISPLAY IF ENDIDLE WAS NOT USED. (NECESSARY FOR DATAWAIT)
000926:
000927:
000928:
000929: 05,2274           54642                           TS       NOUNREG
000930: 05,2275           56002        UPDATNN            XCH      Q
000931: 05,2276           54103                           TS       UPDATRET
000932: 05,2277           00006                           EXTEND
000933: 05,2300           32076                           DCA      LODNNLOC                              #  SWITCH BANKS TO NOUN TABLE READING
000934: 05,2301           52006                           DXCH     Z                                     #  ROUTINE.
000935: 05,2302           10132                           CCS      NNADTEM
000936: 05,2303           67646                           AD       ONE                                   #  NORMAL
000937: 05,2304           12307                           TCF      PUTADD
000938: 05,2305           12310                           TCF      PUTADD     +1                         #  MCTBS  DONT CHANGE NOUNADD
000939: 05,2306           12310                           TCF      PUTADD     +1                         #  MCTBI  DONT CHANGE NOUNADD
000940: 05,2307           04430        PUTADD             TC       SETNCADR                              #  ECADR INTO NOUNCADR. SETS EB, NOUNADD.
000941: 05,2310           34507                           CAF      ND1
000942: 05,2311           54637                           TS       DSPCOUNT


000944: 05,2312           30642                           CA       NOUNREG
000945: 05,2313           12322                           TCF      UPDAT1
000946:
000947: 05,2314           54641                           TS       VERBREG
000948: 05,2315           56002        UPDATVB            XCH      Q
000949: 05,2316           54103                           TS       UPDATRET
000950: 05,2317           34506                           CAF      VD1
000951: 05,2320           54637                           TS       DSPCOUNT
000952: 05,2321           30641                           CA       VERBREG
000953: 05,2322           03255        UPDAT1             TC       DSP2BIT
000954: 05,2323           00103                           TC       UPDATRET
000955:
000956:
000957:
000958: 05,2324           04102        GODSPALM           TC       POSTJUMP
000959: 05,2325           11255                           CADR     DSPALARM
000960:


000962:                                                                                                  #           NOUN   TABLES
000963:                                                                                                  #  NOUN CODE L/ 55, NORMAL CASE.  NOUN CODE G/E 55, MIXED NOUN CASE.
000964:                                                                                                  #  FOR NORMAL CASE, NNADTAB CONTAINS ONE       ECADR     FOR EACH NOUN.
000965:                                                                                                  #  +0 INDICATES NOUN NOT USED.   - ENTRY INDICATES MACHINE CADR(E OR F) TO
000966:                                                                                                  #  BE SPECIFIED. -1 INDICATES CHANNEL TO BE SPECIFIED. -0 INDICATES AUGMENT
000967:                                                                                                  #  OF LAST MACHINE CADR SUPPLIED.
000968:
000969:                                                                                                  #  FOR MIXED CASE, NNADTAB CONTAINS ONE INDIRECT ADDRESS(IDADDREL) IN LOW
000970:                                                                                                  #  10 BITS, AND THE COMPONENT CODE NUMBER IN THE HIGH 5 BITS.
000971:
000972:                                                                                                  #  NNTYPTAB IS A PACKED TABLE OF THE FORM MMMMMNNNNNPPPPP.
000973:
000974:                                                                                                  #  FOR THE NORMAL CASE, M-S ARE THE COMPONENT CODE NUMBER.
000975:                                                                                                  #                       N-S ARE THE SF ROUTINE CODE NUMBER.
000976:                                                                                                  #                       P-S ARE THE SF CONSTANT CODE NUMBER.
000977:
000978:                                                                                                  #  MIXED CASE,M-S ARE THE SF CONSTANT3 CODE NUMBER     3 COMPONENT CASE
000979:                                                                                                  #             N-S ARE THE SF CONSTANT2 CODE NUMBER
000980:                                                                                                  #             P-S ARE THE SF CONSTANT1 CODE NUMBER
000981:                                                                                                  #             N-S ARE THE SF CONSTANT2 CODE NUMBER     2 COMPONENT CASE
000982:                                                                                                  #             P-S ARE THE SF CONSTANT1 CODE NUMBER
000983:                                                                                                  #             P-S ARE THE SF CONSTANT1 CODE NUMBER      1 COMPONENT CASE
000984:
000985:                                                                                                  #  THERE IS ALSO AN INDIRECT ADDRESS TABLE(IDADDTAB) FOR MIXED CASE ONLY.
000986:                                                                                                  #  EACH ENTRY CONTAINS ONE ECADR.    IDADDREL IS THE RELATIVE ADDRESS OF
000987:                                                                                                  #  THE FIRST OF THESE ENTRIES.
000988:                                                                                                  #  THERE IS ONE ENTRY IN THIS TABLE FOR EACH COMPONENT OF A MIXED NOUN
000989:                                                                                                  #  THEY ARE LISTED IN ORDER OF ASCENDING K.
000990:
000991:                                                                                                  #  THERE IS ALSO A SCALE FACTOR ROUTINE NUMBER TABLE( RUTMXTAB ) FOR MIXED
000992:                                                                                                  #  CASE ONLY. THERE IS ONE ENTRY PER MIXED NOUN. THE FORM IS,
000993:                                                                                                  #        QQQQQRRRRRSSSSS
000994:                                                                                                  #  Q-S ARE THE SF ROUTINE 3 CODE NUMBER     3 COMPONENT CASE
000995:                                                                                                  #  R-S ARE THE SF ROUTINE 2 CODE NUMBER
000996:                                                                                                  #  S-S ARE THE SF ROUTINE 1 CODE NUMBER
000997:                                                                                                  #  R-S ARE THE SF ROUTINE 2 CODE NUMBER     2 COMPONENT CASE
000998:                                                                                                  #  S-S ARE THE SF ROUTINE 1 CODE NUMBER
000999:
001000:
001001:
001002:                                                                                                  #  IN OCTAL DISPLAY AND LOAD (OCT OR DEC) VERBS, EXCLUDE USE OF VERBS WHOSE
001003:                                                                                                  #  COMPONENT NUMBER IS GREATER THAN THE NUMBER OF COMPONENTS IN NOUN.
001004:                                                                                                  #  ALL MACHINE ADDRESS TO BE SPECIFIED NOUNS ARE 1 COMPONENT.
001005:                                                                                                  #  ONLY EXCEPTION IS NOUN 01 TO ALLOW OCTAL DISPLAYS AND LOADS OF
001006:                                                                                                  #  AN UNCONTOLLED NUMBER OF COMPONENTS.
001007:
001008:
001009:
001010:                                                                                                  #  IN MULTI-COMPONENT LOAD VERBS, NO MIXING OF OCTAL AND DECIMAL DATA
001011:                                                                                                  #  COMPONENT WORDS IS ALLOWED. ALARM IF VIOLATION.
001012:


001014:                                                                                                  #  IN DECIMAL LOADS OF DATA, 5 NUMERICAL CHARACTERS MUST BE KEYED IN
001015:                                                                                                  #  BEFORE EACH ENTER. IF NOT, ALARM.
001016:


001018:                                                                                                  #           DISPLAY VERBS
001019: 05,2326           47645        DSPABC             CS       TWO
001020: 05,2327           02376                           TC       COMPTEST
001021: 05,2330           50131                           INDEX    NOUNADD
001022: 05,2331           40002                           CS       2
001023: 05,2332           56116                           XCH      BUF        +2
001024: 05,2333           47646        DSPAB              CS       ONE
001025: 05,2334           02376                           TC       COMPTEST
001026: 05,2335           50131                           INDEX    NOUNADD
001027: 05,2336           40001                           CS       1
001028: 05,2337           56115                           XCH      BUF        +1
001029: 05,2340           02420        DSPA               TC       TSTFORDP
001030: 05,2341           50131                           INDEX    NOUNADD
001031: 05,2342           40000                           CS       0
001032: 05,2343           56114        DSPCOM1            XCH      BUF
001033: 05,2344           02357                           TC       DSPCOM2
001034: 05,2345           47646        DSPB               CS       ONE
001035: 05,2346           02376                           TC       COMPTEST
001036: 05,2347           50131                           INDEX    NOUNADD
001037: 05,2350           40001                           CS       1
001038: 05,2351           02343                           TC       DSPCOM1
001039: 05,2352           47645        DSPC               CS       TWO
001040: 05,2353           02376                           TC       COMPTEST
001041: 05,2354           50131                           INDEX    NOUNADD
001042: 05,2355           40002                           CS       2
001043: 05,2356           02343                           TC       DSPCOM1
001044: 05,2357           47645        DSPCOM2            CS       TWO                                   #  A  B  C  AB ABC
001045: 05,2360           60641                           AD       VERBREG                               #  -1 -0 +1 +2 +3   IN A
001046: 05,2361           10000                           CCS      A                                     #  +0 +0 +0 +1 +2    IN A AFTER CCS
001047: 05,2362           02365                           TC       DSPCOM3
001048: 05,2363           00122                           TC       ENTEXIT
001049: 05,2364           02365                           TC       +1
001050: 05,2365           54106        DSPCOM3            TS       DISTEM                                #  +0,+1,+2 INTO DISTEM
001051: 05,2366           50000                           INDEX    A
001052: 05,2367           34444                           CAF      R1D1
001053: 05,2370           54637                           TS       DSPCOUNT
001054: 05,2371           50106                           INDEX    DISTEM
001055: 05,2372           40114                           CS       BUF
001056: 05,2373           03222                           TC       DSPOCTWD
001057: 05,2374           56106                           XCH      DISTEM
001058: 05,2375           02361                           TC       DSPCOM2    +2
001059:
001060:                                                                                                  #  COMPTEST ALARMS IF COMPONENT NUMBER OF VERB(LOAD OR OCT DISPLAY) IS
001061:                                                                                                  #  GREATER THAN THE HIGHEST COMPONENT NUMBER OF NOUN.
001062:                                                                                                  #  NOUN 01 IS EXCLUDED FROM TEST.
001063: 05,2376           54107        COMPTEST           TS       SFTEMP1                               #  - VERB COMP
001064: 05,2377           22002                           LXCH     Q
001065: 05,2400           47646        COMPTST1           CS       ONE
001066: 05,2401           60642                           AD       NOUNREG
001067: 05,2402           00006                           EXTEND


001069: 05,2403           12417                           BZF      NDCMPTST                              #  NOUN = 01, ANY COMP OK
001070: 05,2404           50124                           INDEX    MIXBR                                 #  NOUN NOT = 01.
001071: 05,2405           32442                           CAF      COMPICK    -1
001072: 05,2406           50000                           INDEX    A
001073: 05,2407           30000                           CA       0
001074: 05,2410           74475                           MASK     HI5
001075: 05,2411           04456                           TC       LEFT5                                 #  NOUN COMP
001076: 05,2412           60107                           AD       SFTEMP1                               #  NOUN COMP - VERB COMP
001077: 05,2413           10000                           CCS      A
001078: 05,2414           00001                           TC       L                                     #  NOUN COMP G/ VERB COMP
001079: 05,2416                                           LOC      +1
001080: 05,2416           02324                           TC       GODSPALM                              #  NOUN COMP L/ VERB COMP
001081: 05,2417           00001        NDCMPTST           TC       L                                     #  NOUN COMP = VERB COMP
001082:
001083:
001084:
001085: 05,2420           22002        TSTFORDP           LXCH     Q                                     #  TEST FOR DP. IF SO, GET MINOR PART ONLY.
001086: 05,2421           30132                           CA       NNADTEM
001087: 05,2422           67646                           AD       ONE                                   #  IF NNADTEM = -1, CHANNEL TO BE SPECIFIED
001088: 05,2423           00006                           EXTEND
001089: 05,2424           12436                           BZF      CHANDSP
001090: 05,2425           50124                           INDEX    MIXBR
001091: 05,2426           02426                           TC       +0
001092: 05,2427           02431                           TC       +2                                    #  NORMAL
001093: 05,2430           00001                           TC       L                                     #  MIXED CASE ALREADY HANDLED IN MIXNOUN
001094: 05,2431           02713                           TC       SFRUTNOR
001095: 05,2432           02236                           TC       DPTEST
001096: 05,2433           00001                           TC       L                                     #  NO DP
001097: 05,2434           24131                           INCR     NOUNADD                               #  DP    E+1 INTO NOUNADD FOR MINOR PART.
001098: 05,2435           00001                           TC       L
001099:
001100:
001101:
001102: 05,2436           00006        CHANDSP            EXTEND
001103: 05,2437           50657                           INDEX    NOUNCADR
001104: 05,2440           00000                           READ     0
001105: 05,2441           40000                           CS       A
001106: 05,2442           12343                           TCF      DSPCOM1
001107:
001108:
001109:
001110: 05,2443           00133        COMPICK            ADRES    NNTYPTEM
001111: 05,2444           00132                           ADRES    NNADTEM
001112:
001113: 05,2445           50124        DECDSP             INDEX    MIXBR                                 #  NORMAL                MIXED
001114: 05,2446           32442                           CAF      COMPICK    -1                         #  ADRES NNTYPTEM        ADRES NNADTEM
001115: 05,2447           50000                           INDEX    A
001116: 05,2450           30000                           CA       0                                     #  C(NNTYPTEM)           C(NNADTEM)
001117: 05,2451           74475                           MASK     HI5                                   #  GET HI5 OF NNTYPTAB(NORM)OF NNADTAB(MIX)
001118: 05,2452           04456                           TC       LEFT5


001120: 05,2453           54103                           TS       DECOUNT                               #  COMP NUMBER INTO DECOUNT
001121: 05,2454           54106        DSPDCGET           TS       DECTEM                                #  PICKS UP DATA
001122: 05,2455           60131                           AD       NOUNADD                               #  DECTEM 1COMP +0, 2COMP +1, 3COMP +2
001123: 05,2456           50000                           INDEX    A
001124: 05,2457           40000                           CS       0
001125: 05,2460           50106                           INDEX    DECTEM
001126: 05,2461           56643                           XCH      XREG                                  #  CANT USE BUF SINCE DMP USES IT.
001127: 05,2462           10106                           CCS      DECTEM
001128: 05,2463           02454                           TC       DSPDCGET                              #  MORE TO GET
001129: 05,2464           37653        DSPDCPUT           CAF      ZERO                                  #  DISPLAYS DATA
001130: 05,2465           54141                           TS       MPAC       +1                         #  DECOUNT 1COMP +0, 2COMP +1, 3COMP +2
001131: 05,2466           54142                           TS       MPAC       +2
001132: 05,2467           50103                           INDEX    DECOUNT
001133: 05,2470           34444                           CAF      R1D1
001134: 05,2471           54637                           TS       DSPCOUNT
001135: 05,2472           50103                           INDEX    DECOUNT
001136: 05,2473           40643                           CS       XREG
001137: 05,2474           54140                           TS       MPAC
001138: 05,2475           02734                           TC       SFCONUM                               #  2X ( SF CON NUMB ) IN A
001139: 05,2476           54107                           TS       SFTEMP1
001140: 05,2477           00006                           EXTEND                                         #  SWITCH BANKS TO SF CONSTANT TABLE
001141: 05,2500           32512                           DCA      GTSFOUTL                              #     READING ROUTINE.
001142: 05,2501           52006                           DXCH     Z                                     #  LOADS SFTEMP1, SFTEMP2.
001143: 05,2502           50124                           INDEX    MIXBR
001144: 05,2503           02503                           TC       +0
001145: 05,2504           02507                           TC       DSPSFNOR
001146: 05,2505           02721                           TC       SFRUTMIX
001147: 05,2506           02522                           TC       DECDSP3
001148:
001149: 05,2507           02713        DSPSFNOR           TC       SFRUTNOR
001150: 05,2510           02522                           TC       DECDSP3
001151:
001152: 05,2511     0637                                  EBANK=   DSPCOUNT
001153: 05,2511           02037 14001  GTSFOUTL           2CADR    GTSFOUT
001154:
001155:
001156:
001157: 05,2513           04063        DSPDCEND           TC       BANKCALL                              #  ALL SFOUT ROUTINES END HERE
001158: 05,2514           11057                           CADR     DSPDECWD
001159: 05,2515           10103                           CCS      DECOUNT
001160: 05,2516           02520                           TC       +2
001161: 05,2517           00122                           TC       ENTEXIT
001162: 05,2520           54103                           TS       DECOUNT
001163: 05,2521           02464                           TC       DSPDCPUT                              #  MORE TO DISPLAY
001164:
001165:
001166:
001167: 05,2522           50000        DECDSP3            INDEX    A
001168: 05,2523           32525                           CAF      SFOUTABR
001169: 05,2524           04105                           TC       BANKJUMP
001170:


001172: 05,2525           11255        SFOUTABR           CADR     DSPALARM                              #  ALARM IF DEC DISP WITH OCTAL ONLY NOUN
001173: 05,2526           12513                           CADR     DSPDCEND
001174: 05,2527           10533                           CADR     DEGOUTSF
001175: 05,2530           10620                           CADR     ARTOUTSF
001176: 05,2531           10625                           CADR     DP1OUTSF
001177: 05,2532           10632                           CADR     DP2OUTSF
001178: 05,2533           10541                           CADR     OPDEGOUT
001179: 05,2534           10634                           CADR     DP3OUTSF
001180: 05,2535                        ENDRTOUT           EQUALS
001181:
001182:
001183:
001184:                                                                                                  #          THE FOLLOWING IS ATYPICAL SF ROUTINE . IT USES MPAC. LEAVES RESU
001185:                                                                                                  #  LTS IN MPAC, MPAC+1. ENDS WITH TC DSPDCEND
001186:
001187:
001188:
001189: 04,2533                                           SETLOC   BLANKCON   +1
001190:
001191:                                                                                                  #     DEGOUTSF SCALES BY .18 THE LOW 14 BITS OF ANGLE , ADDING .18 FOR
001192:                                                                                                  #  NUMBERS IN THE NEGATIVE (AGC) RANGE.
001193:
001194: 04,2533           37653        DEGOUTSF           CAF      ZERO
001195: 04,2534           54142                           TS       MPAC       +2                         #  SET INDEX FOR FULL SCALE
001196: 04,2535           02572                           TC       FIXRANGE
001197: 04,2536           02540                           TC       +2                                    #  NO AUGMENT NEEDED (SFTEMP1 AND 2 ARE 0)
001198: 04,2537           02565                           TC       SETAUG                                #  SET AUGMENTER ACCORDING TO C(MPAC +2)
001199: 04,2540           02603                           TC       DEGCOM
001200:
001201:                                                                                                  #  OPDEGOUT SCALES BY .45 (THE RANGE IS 90 DEGREES) AND ADDS A 20 DEG BIAS.
001202:
001203: 04,2541           10140        OPDEGOUT           CCS      MPAC                                  #  RANGE IS 90 DEG
001204: 04,2542           56140                           XCH      MPAC                                  #  IF POS OR POS 0 THEN ADD BIAS AND
001205: 04,2543           02546                           TC       +3                                    #  CORRECT FOR POSSIBLE OVERFLOW
001206: 04,2544           02555                           TC       NEGOPT                                #  IF NEG NON ZERO
001207: 04,2545           67655                           AD       NEG1                                  #  IF NEG ZERO SUBTRACT 1
001208: 04,2546           62617                           AD       20BIAS
001209: 04,2547           54140        BIASCOM            TS       MPAC                                  #  TEST FOR OVERFLOW
001210: 04,2550           02553                           TC       +3                                    #  NO OVFLOW
001211: 04,2551           37630                           CAF      BIT15                                 #  IF OVFLOW
001212: 04,2552           26140                           ADS      MPAC
001213: 04,2553           37645                           CAF      TWO                                   #  SET MULTIPLIER TO .45
001214: 04,2554           02534                           TC       DEGOUTSF   +1
001215:
001216: 04,2555           56140        NEGOPT             XCH      MPAC                                  #  NEGATIVE CASE
001217: 04,2556           62617                           AD       20BIAS
001218: 04,2557           10000                           CCS      A
001219: 04,2560           02547                           TC       BIASCOM                               #  IF POS THEN SUBTRACT 1 BECAUSE OF 2SCOM
001220: 04,2562                                           LOC      +1
001221: 04,2562           67646                           AD       ONE                                   #  IF NEG RESTORE SUM
001222:


001224: 04,2563           40000                           COM                                            #  IF NEG 0 LEAVE NEG 0
001225: 04,2564           02547                           TC       BIASCOM
001226:
001227: 04,2565           00006        SETAUG             EXTEND                                         #  LOADS SFTEMP1 AND SFTEMP2 WITH THE
001228: 04,2566           50142                           INDEX    MPAC       +2                         #  DP AUGMENTER CONSTANT
001229: 04,2567           32614                           DCA      DEGTAB
001230: 04,2570           52110                           DXCH     SFTEMP1
001231: 04,2571           00002                           TC       Q
001232:
001233: 04,2572           10140        FIXRANGE           CCS      MPAC                                  #  IF MPAC IS + RETURN TO L+1
001234: 04,2573           00002                           TC       Q                                     #  IF MPAC IS - RETURN TO L+2 AFTER
001235: 04,2574           00002                           TC       Q                                     #  MASKING OUT THE SIGN BIT
001236: 04,2575           12576                           TCF      +1
001237: 04,2576           47630                           CS       BIT15
001238: 04,2577           70140                           MASK     MPAC
001239: 04,2600           54140                           TS       MPAC
001240: 04,2601           50002                           INDEX    Q
001241: 04,2602           00001                           TC       1
001242:
001243: 04,2603           00006        DEGCOM             EXTEND                                         #  LOADS MULTIPLIER, DOES SHORTMP, AND
001244: 04,2604           50142                           INDEX    MPAC       +2                         #  ADDS AUGMENTER.
001245: 04,2605           32614                           DCA      DEGTAB
001246: 04,2606           52141                           DXCH     MPAC                                  #  ADJUSTED ANGLE IN A
001247: 04,2607           07257                           TC       SHORTMP
001248: 04,2610           52110                           DXCH     SFTEMP1
001249: 04,2611           20141                           DAS      MPAC
001250: 04,2612           02623                           TC       SCOUTEND
001251:
001252:
001253:
001254: 04,2613           05605        DEGTAB             OCT      05605                                 #  HI PART OF     .18
001255: 04,2614           03656                           OCT      03656                                 #  LOW PART OF    .18
001256: 04,2615           16314                           OCT      16314                                 #  HI PART OF     .45
001257: 04,2616           31463                           OCT      31463                                 #  LO PART OF     .45
001258:
001259: 04,2617           16040        20BIAS             OCT      16040                                 #  20 DEG BIAS FOR OPTICS
001260:
001261: 04,2620           52110        ARTOUTSF           DXCH     SFTEMP1                               #  ASSUMES POINT AT LEFT OF DP SFCON
001262: 04,2621           52141                           DXCH     MPAC
001263: 04,2622           07257                           TC       SHORTMP
001264: 04,2623           04102        SCOUTEND           TC       POSTJUMP
001265: 04,2624           12513                           CADR     DSPDCEND
001266:
001267: 04,2625           02637        DP1OUTSF           TC       DPOUT                                 #  SCALES MPAC, MPAC +1 BY DP SCALE FACTOR
001268: 04,2626           56142                           XCH      MPAC       +2                         #  IN SFTEMP1, SFTEMP2.  THEN SCALE RESULT
001269: 04,2627           56141                           XCH      MPAC       +1                         #  BY B14.
001270: 04,2630           54140                           TS       MPAC
001271: 04,2631           02623                           TC       SCOUTEND
001272:


001274: 04,2632           02637        DP2OUTSF           TC       DPOUT                                 #  SCALES MPAC, MPAC +1 BY DP SCALE FACTOR
001275: 04,2633           02623                           TC       SCOUTEND
001276:
001277:
001278:
001279: 04,2634           02637        DP3OUTSF           TC       DPOUT                                 #  ASSUMES POINT BETWEEN BITS 7-8 OF HIGH
001280: 04,2635           03032                           TC       TPLEFT7                               #  PART OF SFCON. SHIFTS RESULTS LEFT 7.
001281: 04,2636           02623                           TC       SCOUTEND
001282:
001283:
001284:
001285:                                                                                                  #  DPOUT PICKS UP FRESH DATA FOR BOTH HI AND LO COMPONENTS.
001286:                                                                                                  #  THIS IS NEEDED FOR TIME DISPLAY.
001287:
001288: 04,2637           56002        DPOUT              XCH      Q
001289: 04,2640           54105                           TS       OVFIND
001290: 04,2641           50124                           INDEX    MIXBR
001291: 04,2642           02642                           TC       +0
001292: 04,2643           02660                           TC       DPOUTNOR
001293: 04,2644           50103                           INDEX    DECOUNT                               #  GET IDADDTAB ENTRY FOR COMPONENT K
001294: 04,2645           30134                           CA       IDAD1TEM                              #      OF NOUN.
001295: 04,2646           74503                           MASK     LOW11                                 #  E SUBK
001296: 04,2647           04440                           TC       SETEBANK                              #  SET EB, LEAVE EADRES IN A.
001297: 04,2650           00006        DPOUTCOM           EXTEND
001298: 04,2651           50000                           INDEX    A                                     #  MIXED         NORMAL
001299: 04,2652           30001                           DCA      0                                     #  C(ESUBK)      C(E)
001300: 04,2653           52141                           DXCH     MPAC                                  #  C((E SUBK)+1)      C(E+1)
001301: 04,2654           07062                           TC       DMP
001302: 04,2655           00107                           ADRES    SFTEMP1
001303: 04,2656           07226                           TC       TPAGREE
001304: 04,2657           00105                           TC       OVFIND
001305:
001306: 04,2660           30131        DPOUTNOR           CA       NOUNADD                               #  E
001307: 04,2661           02650                           TC       DPOUTCOM
001308:
001309:
001310:
001311:                                                                                                  #  THIS IS A SPECIAL PURPOSE VERB FOR DISPLAYING A DOUBLE PRECISION AGC
001312:                                                                                                  #  WORD AS 10 DECIMAL DIGITS ON THE AGC DISPLAY PANEL.  IT CAN BE USED WITH
001313:                                                                                                  #  ANY NOUN, EXCEPT MIXED NOUNS. IT DISPLAYS THE CONTENTS
001314:                                                                                                  #  OF THE REGISTER NOUNADD IS POINTING TO .  IF USED WITH NOUNS WHICH ARE
001315:                                                                                                  #  INHERENTLY NOT DP SUCH AS THE CDU COUNTERS THE DISPLAY WILL BE GARBAGE.
001316:                                                                                                  #  DISPLAY IS IN R1 AND R2 ONLY WITH THE SIGN IN R1.
001317:
001318:
001319:
001320: 04,2662           50124        DSPDPDEC           INDEX    MIXBR
001321: 04,2663           02663                           TC       +0
001322: 04,2664           02666                           TC       +2                                    #  NORMAL NOUN
001323: 04,2665           03255                           TC       DSPALARM
001324:


001326: 04,2666           00006                           EXTEND
001327: 04,2667           50131                           INDEX    NOUNADD
001328: 04,2670           30001                           DCA      0
001329: 04,2671           52141                           DXCH     MPAC
001330: 04,2672           34444                           CAF      R1D1
001331: 04,2673           54637                           TS       DSPCOUNT
001332: 04,2674           37653                           CAF      ZERO
001333: 04,2675           54142                           TS       MPAC       +2
001334: 04,2676           07226                           TC       TPAGREE
001335: 04,2677           03133                           TC       DSP2DEC
001336: 04,2700           00122        ENDDPDEC           TC       ENTEXIT
001337:


001339:                                                                                                  #           LOAD   VERBS
001340:
001341:
001342:
001343: 05,2535                                           SETLOC   ENDRTOUT
001344:
001345: 05,2535           47645        ABCLOAD            CS       TWO
001346: 05,2536           02376                           TC       COMPTEST
001347: 05,2537           32673                           CAF      VBSP1LD
001348: 05,2540           02314                           TC       UPDATVB    -1
001349: 05,2541           02252                           TC       REQDATX
001350: 05,2542           32674                           CAF      VBSP2LD
001351: 05,2543           02314                           TC       UPDATVB    -1
001352: 05,2544           02254                           TC       REQDATY
001353: 05,2545           32675                           CAF      VBSP3LD
001354: 05,2546           02314                           TC       UPDATVB    -1
001355: 05,2547           02256                           TC       REQDATZ
001356:
001357:
001358:
001359: 05,2550           46162        PUTXYZ             CS       SIX                                   #  TEST THAT THE 3 DATA WORDS LOADED ARE
001360: 05,2551           02676                           TC       ALLDC/OC                              #  ALL DEC OR ALL OCT.
001361: 05,2552           00006                           EXTEND
001362: 05,2553           32076                           DCA      LODNNLOC                              #  SWITCH BANKS TO NOUN TABLE READING
001363: 05,2554           52006                           DXCH     Z                                     #  ROUTINE.
001364: 05,2555           37653                           CAF      ZERO                                  #  X COMP
001365: 05,2556           02762                           TC       PUTCOM
001366: 05,2557           50131                           INDEX    NOUNADD
001367: 05,2560           54000                           TS       0
001368: 05,2561           37646                           CAF      ONE                                   #  Y COMP
001369: 05,2562           02762                           TC       PUTCOM
001370: 05,2563           50131                           INDEX    NOUNADD
001371: 05,2564           54001                           TS       1
001372: 05,2565           37645                           CAF      TWO                                   #  Z COMP
001373: 05,2566           02762                           TC       PUTCOM
001374: 05,2567           50131                           INDEX    NOUNADD
001375: 05,2570           54002                           TS       2
001376: 05,2571           02663                           TC       LOADLV
001377:
001378: 05,2572           47646        ABLOAD             CS       ONE
001379: 05,2573           02376                           TC       COMPTEST
001380: 05,2574           32673                           CAF      VBSP1LD
001381: 05,2575           02314                           TC       UPDATVB    -1
001382: 05,2576           02252                           TC       REQDATX
001383: 05,2577           32674                           CAF      VBSP2LD
001384: 05,2600           02314                           TC       UPDATVB    -1
001385: 05,2601           02254                           TC       REQDATY
001386: 05,2602           47225        PUTXY              CS       FIVE                                  #  TEST THAT THE 2 DATA WORDS LOADED ARE
001387: 05,2603           02676                           TC       ALLDC/OC                              #  ALL DEC OR ALL OCT.
001388: 05,2604           00006                           EXTEND


001390: 05,2605           32076                           DCA      LODNNLOC                              #  SWITCH BANKS TO NOUN TABLE READING
001391: 05,2606           52006                           DXCH     Z                                     #  ROUTINE.
001392: 05,2607           37653                           CAF      ZERO                                  #  X COMP
001393: 05,2610           02762                           TC       PUTCOM
001394: 05,2611           50131                           INDEX    NOUNADD
001395: 05,2612           54000                           TS       0
001396: 05,2613           37646                           CAF      ONE                                   #  Y COMP
001397: 05,2614           02762                           TC       PUTCOM
001398: 05,2615           50131                           INDEX    NOUNADD
001399: 05,2616           54001                           TS       1
001400: 05,2617           02663                           TC       LOADLV
001401:
001402: 05,2620           02252        ALOAD              TC       REQDATX
001403: 05,2621           00006                           EXTEND
001404: 05,2622           32076                           DCA      LODNNLOC                              #  SWITCH BANKS TO NOUN TABLE READING
001405: 05,2623           52006                           DXCH     Z                                     #  ROUTINE.
001406: 05,2624           37653                           CAF      ZERO                                  #  X COMP
001407: 05,2625           02762                           TC       PUTCOM
001408: 05,2626           50131                           INDEX    NOUNADD
001409: 05,2627           54000                           TS       0
001410: 05,2630           02663                           TC       LOADLV
001411:
001412: 05,2631           47646        BLOAD              CS       ONE
001413: 05,2632           02376                           TC       COMPTEST
001414: 05,2633           37630                           CAF      BIT15                                 #  SET CLPASS FOR PASS0 ONLY
001415: 05,2634           54655                           TS       CLPASS
001416: 05,2635           02254                           TC       REQDATY
001417: 05,2636           00006                           EXTEND
001418: 05,2637           32076                           DCA      LODNNLOC                              #  SWITCH BANKS TO NOUN TABLE READING
001419: 05,2640           52006                           DXCH     Z                                     #  ROUTINE.
001420: 05,2641           37646                           CAF      ONE
001421: 05,2642           02762                           TC       PUTCOM
001422: 05,2643           50131                           INDEX    NOUNADD
001423: 05,2644           54001                           TS       1
001424: 05,2645           02663                           TC       LOADLV
001425:
001426: 05,2646           47645        CLOAD              CS       TWO
001427: 05,2647           02376                           TC       COMPTEST
001428: 05,2650           37630                           CAF      BIT15                                 #  SET CLPASS FOR PASS0 ONLY
001429: 05,2651           54655                           TS       CLPASS
001430: 05,2652           02256                           TC       REQDATZ
001431: 05,2653           00006                           EXTEND
001432: 05,2654           32076                           DCA      LODNNLOC                              #  SWITCH BANKS TO NOUN TABLE READING
001433: 05,2655           52006                           DXCH     Z                                     #  ROUTINE.
001434: 05,2656           37645                           CAF      TWO
001435: 05,2657           02762                           TC       PUTCOM
001436: 05,2660           50131                           INDEX    NOUNADD
001437: 05,2661           54002                           TS       2
001438: 05,2662           02663                           TC       LOADLV
001439:


001441: 05,2663           37653        LOADLV             CAF      ZERO
001442: 05,2664           54640                           TS       DECBRNCH
001443: 05,2665           47653                           CS       ZERO
001444: 05,2666           54654                           TS       LOADSTAT
001445: 05,2667           44506                           CS       VD1                                   #  TO BLOCK NUMERICAL CHARACTERS AND
001446: 05,2670           54637                           TS       DSPCOUNT                              #  CLEARS AFTER A COMPLETED LOAD
001447: 05,2671           04102                           TC       POSTJUMP                              #  AFTER COMPLETED LOAD, GO TO RECALTST
001448: 05,2672           11400                           CADR     RECALTST                              #  TO SEE IF THERE IS RECALL FROM ENDIDLE.
001449:
001450: 05,2673           00021        VBSP1LD            OCT      21                                    #  VB21 = ALOAD
001451: 05,2674           00022        VBSP2LD            OCT      22                                    #  VB22 = BLOAD
001452: 05,2675           00023        VBSP3LD            OCT      23                                    #  VB23 = CLOAD
001453:
001454:
001455:
001456: 05,2676           54103        ALLDC/OC           TS       DECOUNT                               #  TESTS THAT DATA WORDS LOADED ARE EITHER
001457: 05,2677           40640                           CS       DECBRNCH                              #  ALL DEC OR ALL OCT. ALARMS IF NOT.
001458: 05,2700           54021                           TS       SR
001459: 05,2701           40021                           CS       SR
001460: 05,2702           40021                           CS       SR                                    #  SHIFTED RIGHT 2
001461: 05,2703           10000                           CCS      A                                     #  DEC COMP BITS IN LOW 3
001462: 05,2704           12706                           TCF      +2                                    #  SOME ONES IN LOW 3
001463: 05,2705           00002                           TC       Q                                     #  ALL ZEROS. ALL OCTAL.  OK
001464: 05,2706           60103                           AD       DECOUNT                               #  DEC COMP = 7 FOR 3COMP, =6 FOR 2COMP
001465: 05,2707           00006                           EXTEND                                         #  (BUT IT HAS BEEN DECREMENTED BY CCS)
001466: 05,2710           12712                           BZF      +2                                    #  MUST MATCH 6 FOR 3COMP, 5 FOR 2COMP.
001467: 05,2711           02324                           TC       GODSPALM
001468: 05,2712           00002        GOQ                TC       Q                                     #  ALL REQUIRED ARE DEC. OK
001469:
001470:
001471:
001472: 05,2713           56002        SFRUTNOR           XCH      Q                                     #  GETS SF ROUTINE NUMBER FOR NORMAL CASE
001473: 05,2714           54100                           TS       EXITEM                                #  CANT USE L FOR RETURN. TSTFORDP USES L.
001474: 05,2715           34474                           CAF      MID5
001475: 05,2716           70133                           MASK     NNTYPTEM
001476: 05,2717           04447                           TC       RIGHT5
001477: 05,2720           00100                           TC       EXITEM                                #  SF ROUTINE NUMBER IN A
001478:
001479: 05,2721           56002        SFRUTMIX           XCH      Q                                     #  GETS SF ROUTINE NUMBER FOR MIXED CASE
001480: 05,2722           54100                           TS       EXITEM
001481: 05,2723           50103                           INDEX    DECOUNT
001482: 05,2724           32753                           CAF      DISPLACE                              #  PUT TC GOQ, TC RIGHT5, OR TC LEFT5 IN L
001483: 05,2725           54001                           TS       L
001484: 05,2726           50103                           INDEX    DECOUNT
001485: 05,2727           34473                           CAF      LOW5                                  #  LOW5, MID5, OR HI5 IN A
001486: 05,2730           70137                           MASK     RUTMXTEM                              #  GET HI5, MID5, OR LOW5 OF RUTMXTAB ENTRY
001487: 05,2731           50001                           INDEX    L
001488: 05,2732           00000                           TC       0
001489:                                                                                                  #  DO TC GOQ(DECOUNT=0), DO TC RIGHT5(DECOUNT=1), DO TC LEFT5(DECOUNT=2).
001490: 05,2733           00100        SFRET1             TC       EXITEM                                #  SF ROUTINE NUMBER IN A
001491:


001493: 05,2734           56002        SFCONUM            XCH      Q                                     #  GETS 2X( SF CONSTANT NUMBER)
001494: 05,2735           54100                           TS       EXITEM
001495: 05,2736           50124                           INDEX    MIXBR
001496: 05,2737           02737                           TC       +0
001497: 05,2740           02756                           TC       CONUMNOR                              #  NORMAL NOUN
001498: 05,2741           50103                           INDEX    DECOUNT                               #  MIXED NOUN
001499: 05,2742           32753                           CAF      DISPLACE
001500: 05,2743           54001                           TS       L                                     #  PUT TC GOQ, TC RIGHT5, OR TC LEFT5 IN L
001501: 05,2744           50103                           INDEX    DECOUNT
001502: 05,2745           34473                           CAF      LOW5
001503: 05,2746           70133                           MASK     NNTYPTEM
001504: 05,2747           50001                           INDEX    L
001505: 05,2750           00000                           TC       0
001506:                                                                                                  #  DO TC GOQ(DECOUNT=0), DO TC RIGHT5(DECOUNT=1), DO TC LEFT5(DECOUNT=2).
001507: 05,2751           60000        SFRET              DOUBLE                                         #  2X(SF CONSTANT NUMBER ) IN A
001508: 05,2752           00100                           TC       EXITEM
001509:
001510: 05,2753           02712        DISPLACE           TC       GOQ
001511: 05,2754           04447                           TC       RIGHT5
001512: 05,2755           04456                           TC       LEFT5
001513:
001514: 05,2756           34473        CONUMNOR           CAF      LOW5                                  #  NORMAL NOUN ALWAYS GETS LOW 5 OF
001515: 05,2757           70133                           MASK     NNTYPTEM                              #  NNTYPTAB FOR SF CONUM.
001516: 05,2760           60000                           DOUBLE
001517: 05,2761           00100                           TC       EXITEM                                #  2X( SF CONSTANT NUMBER) IN A
001518:
001519:
001520:
001521: 05,2762           54103        PUTCOM             TS       DECOUNT
001522: 05,2763           56002                           XCH      Q
001523: 05,2764           54101                           TS       DECRET
001524: 05,2765           37653                           CAF      ZERO
001525: 05,2766           54105                           TS       OVFIND
001526: 05,2767           50103                           INDEX    DECOUNT
001527: 05,2770           56646                           XCH      XREGLP
001528: 05,2771           54141                           TS       MPAC       +1
001529: 05,2772           50103                           INDEX    DECOUNT
001530: 05,2773           56643                           XCH      XREG
001531: 05,2774           54140                           TS       MPAC
001532: 05,2775           50124                           INDEX    MIXBR
001533: 05,2776           02776                           TC       +0
001534: 05,2777           03023                           TC       PUTNORM                               #  NORMAL NOUN
001535:                                                                                                  #  IF MIXNOUN, PLACE ADDRESS FOR COMPONENT K INTO NOUNADD, SET EBANK BITS.
001536: 05,3000           50103                           INDEX    DECOUNT                               #  GET IDADDTAB ENTRY FOR COMPONENT K
001537: 05,3001           30134                           CA       IDAD1TEM                              #          OF NOUN.
001538: 05,3002           74503                           MASK     LOW11                                 #  (ECADR)SUBK FOR CURRENT COMP OF NOUN
001539: 05,3003           04430                           TC       SETNCADR                              #  ECADR INTO NOUNCADR. SETS EB, NOUNADD.
001540: 05,3004           00006                           EXTEND                                         #  C(NOUNADD) IN A UPON RETURN
001541: 05,3005           60103                           SU       DECOUNT                               #  PLACE (ESUBK)-K INTO NOUNADD
001542: 05,3006           54131                           TS       NOUNADD
001543:


001545: 05,3007           10640                           CCS      DECBRNCH
001546: 05,3010           03051                           TC       PUTDECSF                              #  +  DEC
001547: 05,3011           02721                           TC       SFRUTMIX                              #  +0  OCTAL
001548: 05,3012           02236                           TC       DPTEST
001549: 05,3013           03040                           TC       PUTCOM2                               #  NO DP
001550:                                                                                                  #  TEST FOR DP SCALE FOR OCT LOAD. IF SO,
001551:                                                                                                  #  +0 INTO MAJOR PART. SET NOUNADD FOR
001552:                                                                                                  #  LOADING OCTAL WORD INTO MINOR PART.
001553: 05,3014           24131        PUTDPCOM           INCR     NOUNADD                               #  DP  (ESUBK)-K+1  OR  E+1
001554: 05,3015           30131                           CA       NOUNADD                               #  NOUNADD NOW SET FOR MINOR PART
001555: 05,3016           26103                           ADS      DECOUNT                               #  (ESUBK)+1  OR  E+1  INTO DECOUNT
001556: 05,3017           37653                           CAF      ZERO                                  #  NOUNADD SET FOR MINOR PART
001557: 05,3020           50103                           INDEX    DECOUNT
001558: 05,3021           53777                           TS       0          -1                         #  ZERO MAJOR PART(ESUBK OR E)
001559: 05,3022           03040                           TC       PUTCOM2
001560:
001561: 05,3023           04436        PUTNORM            TC       SETNADD                               #  ECADR FROM NOUNCADR. SETS EB, NOUNADD.
001562: 05,3024           10640                           CCS      DECBRNCH
001563: 05,3025           03051                           TC       PUTDECSF                              #  +  DEC
001564: 05,3026           02713                           TC       SFRUTNOR                              #  +0  OCTAL
001565: 05,3027           02236                           TC       DPTEST
001566: 05,3030           03034                           TC       PUTCOM2    -4                         #  NO DP
001567: 05,3031           37653                           CAF      ZERO                                  #  DP
001568: 05,3032           54103                           TS       DECOUNT
001569: 05,3033           03014                           TC       PUTDPCOM
001570:
001571: 05,3034           30132                           CA       NNADTEM
001572: 05,3035           67646                           AD       ONE                                   #  IF NNADTEM = -1, CHANNEL TO BE SPECIFIED
001573: 05,3036           00006                           EXTEND
001574: 05,3037           13044                           BZF      CHANLOAD
001575: 05,3040           56140        PUTCOM2            XCH      MPAC
001576: 05,3041           00101                           TC       DECRET
001577:
001578: 05,3042     0637                                  EBANK=   DSPCOUNT
001579: 05,3042           02045 14001  GTSFINLC           2CADR    GTSFIN
001580:
001581:
001582: 05,3044           56140        CHANLOAD           XCH      MPAC
001583: 05,3045           00006                           EXTEND
001584: 05,3046           50657                           INDEX    NOUNCADR
001585: 05,3047           01000                           WRITE    0
001586: 05,3050           02663                           TC       LOADLV
001587:
001588:
001589:
001590:                                                                                                  #  PUTDECSF FINDS MIXBR AND DECOUNT STILL SET FROM PUTCOM
001591:
001592: 05,3051           02734        PUTDECSF           TC       SFCONUM                               #  2X(SF CON NUMB) IN A
001593: 05,3052           54107                           TS       SFTEMP1
001594:


001596: 05,3053           00006                           EXTEND                                         #  SWITCH BANKS TO SF CONSTANT TABLE
001597: 05,3054           33043                           DCA      GTSFINLC                              #  READING ROUTINE.
001598: 05,3055           52006                           DXCH     Z                                     #  LOADS SFTEMP1, SFTEMP2.
001599: 05,3056           50124                           INDEX    MIXBR
001600: 05,3057           03057                           TC       +0
001601: 05,3060           03063                           TC       PUTSFNOR
001602: 05,3061           02721                           TC       SFRUTMIX
001603: 05,3062           03064                           TC       PUTDCSF2
001604: 05,3063           02713        PUTSFNOR           TC       SFRUTNOR
001605:
001606: 05,3064           50000        PUTDCSF2           INDEX    A
001607: 05,3065           33067                           CAF      SFINTABR
001608: 05,3066           04105                           TC       BANKJUMP                              #  SWITCH BANKS FOR EXPANSHION ROOM
001609: 05,3067           11255        SFINTABR           CADR     DSPALARM                              #  ALARM IF DEC LOAD WITH OCTAL ONLY NOUN
001610: 05,3070           10761                           CADR     BINROUND
001611: 05,3071           10701                           CADR     DEGINSF
001612: 05,3072           10751                           CADR     ARTHINSF
001613: 05,3073           11001                           CADR     DPINSF
001614: 05,3074           11026                           CADR     DPINSF2
001615: 05,3075           10764                           CADR     OPTDEGIN
001616: 05,3076           11001                           CADR     DPINSF                                #  SAME AS ARITHDP1
001617: 05,3077                        ENDRUTIN           EQUALS
001618:
001619:
001620:
001621:                                                                                                  #  SCALE FACTORS FOR THOSE ROUTINES NEEDING THEM ARE AVAILABLE IN SFTEMP1.
001622:                                                                                                  #  ALL SFIN ROUTINES USE MPAC MPAC+1. LEAVE RESULT IN A. END WITH TC DECRET
001623:
001624:
001625:
001626: 04,2701                                           SETLOC   ENDDPDEC   +1
001627:
001628:                                                                                                  #  DEGINSF APPLIES 1000/180 =5.55555(10) = 5.43434(8)
001629:
001630: 04,2701           07062        DEGINSF            TC       DMP                                   #  SF ROUTINE FOR DEC DEGREES
001631: 04,2702           02744                           ADRES    DEGCON1                               #  MULT BY 5.5 5(10)X2EXP-3
001632: 04,2703           10141                           CCS      MPAC       +1                         #  THIS ROUNDS OFF MPAC+1 BEFORE SHIFT
001633: 04,2704           37634                           CAF      BIT11                                 #  LEFT 3, AND CAUSES 360.00 TO OF/UF
001634: 04,2705           02707                           TC       +2                                    #  WHEN SHIFTED LEFT AND ALARM.
001635: 04,2706           47634                           CS       BIT11
001636: 04,2707           60141                           AD       MPAC       +1
001637: 04,2710           03044                           TC       2ROUND     +2
001638: 04,2711           04532                           TC       TPSL1                                 #  LEFT 1
001639: 04,2712           04532        DEGINSF2           TC       TPSL1                                 #  LEFT 2
001640: 04,2713           03053                           TC       TESTOFUF
001641: 04,2714           04532                           TC       TPSL1                                 #  RETURNS IF NO OF/UF (LEFT3)
001642: 04,2715           10140                           CCS      MPAC
001643: 04,2716           02722                           TC       SIGNFIX                               #  IF+, GO TO SIGNFIX
001644: 04,2717           02722                           TC       SIGNFIX                               #  IF +0, GO TO SIGNFIX
001645: 04,2720           40000                           COM                                            #  IF - , USE -MAGNITUDE +1


001647: 04,2721           54140                           TS       MPAC                                  #  IF -0, USE +0
001648: 04,2722           10105        SIGNFIX            CCS      OVFIND
001649: 04,2723           02740                           TC       SGNTO1                                #  IF OVERFLOW
001650: 04,2724           02734                           TC       ENDSCALE                              #  NO OVERFLOW/UNDERFLOW
001651: 04,2725           10140                           CCS      MPAC                                  #  IF UF FORCE SIGN TO 0 EXCEPT -180
001652: 04,2727                                           LOC      +1
001653: 04,2727           02736                           TC       NEG180
001654: 04,2730           02731                           TC       +1
001655: 04,2731           56140                           XCH      MPAC
001656: 04,2732           77626                           MASK     POSMAX
001657: 04,2733           54140                           TS       MPAC
001658: 04,2734           04102        ENDSCALE           TC       POSTJUMP
001659: 04,2735           13040                           CADR     PUTCOM2
001660:
001661: 04,2736           47626        NEG180             CS       POSMAX
001662: 04,2737           02733                           TC       ENDSCALE   -1
001663:
001664: 04,2740           40140        SGNTO1             CS       MPAC                                  #  IF OF FORCE SIGN TO 1
001665: 04,2741           77626                           MASK     POSMAX
001666: 04,2742           40000                           CS       A
001667: 04,2743           02733                           TC       ENDSCALE   -1
001668:
001669: 04,2744           26161 30707  DEGCON1            2DEC     5.555555555 B-3
001670:
001671: 04,2746           21616 07071  DEGCON2            2DEC     2.222222222 B-2
001672:
001673: 04,2750           71527        NEG.2              OCT      -06250                                #  = .197753906  I.E. THE BIAS SCALED
001674:
001675: 04,2751           07062        ARTHINSF           TC       DMP                                   #  SCALES MPAC, +1 BY SFTEMP1, SFTEMP2.
001676: 04,2752           00107                           ADRES    SFTEMP1                               #  ASSUMES POINT BETWEEN HI AND LO PARTS
001677: 04,2753           56142                           XCH      MPAC       +2                         #  OF SFCON. SHIFTS RESULTS LEFT BY 14.
001678: 04,2754           56141                           XCH      MPAC       +1                         #  (BY TAKING RESULTS FROM MPAC+1, MPAC+2)
001679: 04,2755           56140                           XCH      MPAC
001680: 04,2756           00006                           EXTEND
001681: 04,2757           12761                           BZF      BINROUND
001682: 04,2760           03255                           TC       DSPALARM                              #  TOO LARGE A LOAD
001683: 04,2761           03042        BINROUND           TC       2ROUND
001684: 04,2762           03053                           TC       TESTOFUF
001685: 04,2763           02734                           TC       ENDSCALE                              #  RETURNS IF NO OF/UF
001686:
001687:
001688:
001689: 04,2764           10140        OPTDEGIN           CCS      MPAC                                  #  OPTICS SCALING ROUTINE
001690: 04,2765           02771                           TC       +4
001691: 04,2766           02771                           TC       +3
001692: 04,2767           03255                           TC       DSPALARM                              #  REJECT NEGATIVE INPUT
001693: 04,2770           03255                           TC       DSPALARM                              #          DITTO
001694: 04,2771           32750        OPDEGIN2           CAF      NEG.2                                 #  RANGE IS 90 DEG
001695: 04,2772           26140                           ADS      MPAC                                  #  SUBTRACT BIAS
001696: 04,2773           07062                           TC       DMP                                   #  MULT BY 100 / 45  B-2


001698: 04,2774           02746                           ADRES    DEGCON2
001699: 04,2775           37633                           CAF      BIT12                                 #  ROUND AS IN DEGINSF
001700: 04,2776           60141                           AD       MPAC       +1
001701: 04,2777           03044                           TC       2ROUND     +2
001702: 04,3000           02712                           TC       DEGINSF2
001703:
001704: 04,3001           07062        DPINSF             TC       DMP                                   #  SCALES MPAC, MPAC +1 BY SFTEMP1,
001705: 04,3002           00107                           ADRES    SFTEMP1                               #  SFTEMP2.  STORES LOW PART OF RESULT
001706: 04,3003           56142                           XCH      MPAC       +2                         #  IN (E SUBK) +1 OR E+1
001707: 04,3004           60000                           DOUBLE
001708: 04,3005           54142                           TS       MPAC       +2
001709: 04,3006           37653                           CAF      ZERO
001710: 04,3007           60141                           AD       MPAC       +1
001711: 04,3010           03044                           TC       2ROUND     +2
001712: 04,3011           03053                           TC       TESTOFUF
001713: 04,3012           50124                           INDEX    MIXBR                                 #  RETURNS IF NO OF/UF
001714: 04,3013           03013                           TC       +0
001715: 04,3014           03024                           TC       DPINORM
001716: 04,3015           30103                           CA       DECOUNT                               #  MIXEDNOUN
001717: 04,3016           60131        DPINCOM            AD       NOUNADD                               #      MIXED                NORMAL
001718: 04,3017           54002                           TS       Q                                     #    E SUBK             E
001719: 04,3020           56141                           XCH      MPAC       +1
001720: 04,3021           50002                           INDEX    Q
001721: 04,3022           54001                           TS       1                                     #  PLACE LOW PART IN
001722: 04,3023           02734                           TC       ENDSCALE                              #  (E SUBK) +1    MIXED
001723: 04,3024           37653        DPINORM            CAF      ZERO                                  #  E +1         NORMAL
001724: 04,3025           03016                           TC       DPINCOM
001725:
001726:
001727:
001728: 04,3026           07062        DPINSF2            TC       DMP                                   #  ASSUMES POINT BETWEEN BITS 7-8 OF HIGH
001729: 04,3027           00107                           ADRES    SFTEMP1                               #  PART OF SF CONST. DPINSF2 SHIFTS RESULTS
001730: 04,3030           03032                           TC       TPLEFT7                               #  LEFT BY 7, ROUNDS MPAC+2 INTO MPAC+1.
001731: 04,3031           03003                           TC       DPINSF     +2
001732:
001733:
001734:
001735: 04,3032           56002        TPLEFT7            XCH      Q                                     #  OPERATES ON MPAC, MPAC+1, MPAC+2
001736: 04,3033           54110                           TS       SFTEMP2                               #  CANT USE L FOR RETURN. TPSL1 USES L.
001737: 04,3034           36162                           CAF      SIX                                   #  LEFT BY 7
001738: 04,3035           54107        LEFT7COM           TS       SFTEMP1
001739: 04,3036           04532                           TC       TPSL1
001740: 04,3037           10107                           CCS      SFTEMP1
001741: 04,3040           03035                           TC       LEFT7COM
001742: 04,3041           00110                           TC       SFTEMP2
001743:
001744:
001745:
001746: 04,3042           56141        2ROUND             XCH      MPAC       +1
001747: 04,3043           60000                           DOUBLE


001749: 04,3044           54141                           TS       MPAC       +1
001750: 04,3045           00002                           TC       Q                                     #  IF MPAC+1 DOES NOT OF/UF
001751: 04,3046           60140                           AD       MPAC
001752: 04,3047           54140                           TS       MPAC
001753: 04,3050           00002                           TC       Q                                     #  IF MPAC DOES NOT OF/UF
001754: 04,3051           54105                           TS       OVFIND
001755: 04,3052           00002        2RNDEND            TC       Q
001756:
001757:
001758:
001759: 04,3053           10105        TESTOFUF           CCS      OVFIND                                #  RETURNS IF NO OF/UF
001760: 04,3054           03255                           TC       DSPALARM                              #  OF
001761: 04,3055           00002                           TC       Q
001762: 04,3056           03255                           TC       DSPALARM                              #  UF
001763:


001765:                                                                                                  #  MONITOR ALLOWS OTHER KEYBOARD ACTIVITY. IT IS ENDED BY VERB TERMINATE,
001766:                                                                                                  #  ANY NVSUB CALL THAT PASSES THE DSPLOCK, OR ANOTHER MONITOR.
001767:
001768:                                                                                                  #  MONITOR ACTION IS SUSPENDED, BUT NOT ENDED, BY ANY KEYBOARD ACTION,
001769:                                                                                                  #  EXCEPT ERROR LIGHT RESET. IT BEGINS AGAIN WHEN KEY RELEASE IS PERFORMED.
001770:                                                                                                  #  MONITOR SAVES THE NOUN AND APPROPRIATE DISPLAY VERB IN MONSAVE. IT SAVES
001771:                                                                                                  #  NOUNCADR IN MONSAVE1, IF NOUN = MACHINE CADR TO BE SPECIFIED. BIT 15 OF
001772:                                                                                                  #  MONSAVE1 IS THE KILL MONITOR SIGNAL (KILLER BIT).
001773:
001774:                                                                                                  #  MONSAVE INDICATES IF MONITOR IS ON (+=ON, +0=OFF)
001775:                                                                                                  #  IF MONSAVE IS +, MONITOR ENTERS NO REQUEST, BUT TURNS KILLER BIT OFF.
001776:                                                                                                  #  IF MONSAVE IS +0, MONITOR ENTERS REQUEST AND TURNS KILLER BIT OFF.
001777:
001778:                                                                                                  #  NVSUB AND VB=TERMINATE TURN KILL MONITOR BIT ON.
001779:
001780:                                                                                                  #  IF KILLER BIT IS ON, MONREQ ENTERS NO FURTHER REQUESTS, ZEROS MONSAVE
001781:                                                                                                  #  AND MONSAVE1 (TURNING OFF KILLER BIT).
001782:
001783:
001784:
001785:                                                                                                  #  MONITOR DOSENT TEST FOR MATBS SINCE NVSUB CAN HANDLE INTERNAL MATBS NOW
001786: 05,3077                                           SETLOC   ENDRUTIN
001787:
001788: 05,3077           47630        MONITOR            CS       BIT15
001789: 05,3100           70657                           MASK     NOUNCADR
001790: 05,3101           54141        MONIT1             TS       MPAC       +1                         #  TEMP STORAGE
001791: 05,3102           33401                           CAF      LOW6
001792: 05,3103           70641                           MASK     VERBREG
001793: 05,3104           04456                           TC       LEFT5
001794: 05,3105           54022                           TS       CYL
001795: 05,3106           56022                           XCH      CYL
001796: 05,3107           60642                           AD       NOUNREG
001797: 05,3110           54140                           TS       MPAC                                  #  TEMP STORAGE
001798: 05,3111           40677                           CS       GRABLOCK                              #  NEITHER CASE SEARCHES LIST.
001799: 05,3112           67645                           AD       TWO
001800: 05,3113           10000                           CCS      A
001801: 05,3114           04633                           TC       RELDSP1                               #  GRABLOCK=0,1, +0 INTO DSPLOCK AND
001802: 05,3115           03121                           TC       +4                                    #  TURN OFF KEY RLSE LIGHT.
001803: 05,3117                                           LOC      +1
001804: 05,3117           37653                           CAF      ZERO                                  #  GRABLOCK=2, +0 INTO DSPLOCK AND
001805: 05,3120           54652                           TS       DSPLOCK                               #  LEAVE KEY RLSE LIGHT ALONE
001806: 05,3121           00004                           INHINT
001807: 05,3122           10660                           CCS      MONSAVE
001808: 05,3123           03130                           TC       +5                                    #  IF MONSAVE WAS +, NO REQUEST
001809: 05,3124           37646                           CAF      ONE                                   #  IF MONSAVE WAS 0, REQUEST MONREQ
001810: 05,3125           04251                           TC       WAITLIST
001811: 05,3126     0637                                  EBANK=   DSPCOUNT
001812: 05,3126           03134 12001                     2CADR    MONREQ
001813:
001814: 05,3130           52141                           DXCH     MPAC                                  #  PLACE MONITOR VERB AND NOUN INTO MONSAVE


001816: 05,3131           52661                           DXCH     MONSAVE                               #  ZERO THE KILL MONITOR BIT
001817: 05,3132           00003                           RELINT
001818: 05,3133           00122                           TC       ENTRET
001819:
001820:
001821:
001822: 05,3134           04526        MONREQ             TC       LODSAMPT                              #  CALLED BY WAITLIST
001823: 05,3135           10661                           CCS      MONSAVE1                              #  TIME IS SNATCHED IN RUPT FOR NOUN 65
001824: 05,3136           03142                           TC       +4                                    #  IF KILLER BIT = 0, ENTER REQUESTS
001825: 05,3137           03142                           TC       +3                                    #  IF KILLER BIT = 0, ENTER REQUESTS
001826: 05,3140           03153                           TC       KILLMON                               #  IF KILLER BIT = 1, NO REQUESTS
001827: 05,3141           03153                           TC       KILLMON                               #  IF KILLER BIT = 1, NO REQUESTS
001828: 05,3142           33157                           CAF      MONDEL
001829: 05,3143           04251                           TC       WAITLIST                              #  ENTER WAITLIST REQUEST FOR MONREQ
001830: 05,3144     0637                                  EBANK=   DSPCOUNT
001831: 05,3144           03134 12001                     2CADR    MONREQ
001832:
001833: 05,3146           34502                           CAF      CHRPRIO
001834: 05,3147           04131                           TC       NOVAC                                 #  ENTER EXEC REQUEST FOR MONDO
001835: 05,3150     0637                                  EBANK=   DSPCOUNT
001836: 05,3150           03160 12001                     2CADR    MONDO
001837:
001838: 05,3152           04321                           TC       TASKOVER
001839:
001840: 05,3153           37653        KILLMON            CAF      ZERO                                  #  ZERO MONSAVE AND TURN KILLER BIT OFF
001841: 05,3154           54660                           TS       MONSAVE
001842: 05,3155           54661                           TS       MONSAVE1                              #  TURN OFF KILL MONITOR BIT.
001843: 05,3156           04321                           TC       TASKOVER
001844:
001845:
001846:
001847: 05,3157           00144        MONDEL             OCT      144                                   #  FOR 1 SEC MONITOR INTERVALS
001848:
001849:
001850:
001851: 05,3160           10661        MONDO              CCS      MONSAVE1                              #  CALLED BY EXEC
001852: 05,3161           03165                           TC       +4                                    #  IF KILLER BIT = 0, CONTINUE
001853: 05,3162           03165                           TC       +3                                    #  IF KILLER BIT = 0, CONTINUE
001854: 05,3163           04205                           TC       ENDOFJOB                              #  IN CASE TERMINATE CAME SINCE LAST MONREQ
001855: 05,3164           04205                           TC       ENDOFJOB                              #  IN CASE TERMINATE CAME SINCE LAST MONREQ
001856: 05,3165           10652                           CCS      DSPLOCK
001857: 05,3166           03212                           TC       MONBUSY                               #  NVSUB IS BUSY
001858: 05,3167           33401                           CAF      LOW6                                  #  NVSUB IS AVAILABLE
001859: 05,3170           70660                           MASK     MONSAVE
001860: 05,3171           54107                           TS       NVTEMP
001861: 05,3172           04372                           TC       NVSUBMON                              #  PLACE NOUN INTO NOUNREG AND DISPLAY IT
001862: 05,3173           04205                           TC       ENDOFJOB                              #  IN CASE OF ALARM DURING DISPLAY
001863: 05,3174           33210                           CAF      MONMASK
001864: 05,3175           70660                           MASK     MONSAVE                               #  CHANGE MONITOR VERB TO DISPLAY VERB
001865: 05,3176           04447                           TC       RIGHT5


001867: 05,3177           54020                           TS       CYR
001868: 05,3200           56020                           XCH      CYR
001869: 05,3201           54641                           TS       VERBREG
001870: 05,3202           33211                           CAF      MONBACK                               #  SET RETURN TO PASTEVB AFTER DATA DISPLAY
001871: 05,3203           54122                           TS       ENTRET
001872: 05,3204           47630                           CS       BIT15
001873: 05,3205           70661                           MASK     MONSAVE1                              #  PUT ECADR INTO MPAC +2. INTMCTBS WILL
001874: 05,3206           54142                           TS       MPAC       +2                         #  DISPLAY IT AND SET NOUNCADR, NOUNADD,
001875: 05,3207           02037        ENDMONDO           TC       TESTNN                                #  EBANK.
001876:
001877:    4347                                           SETLOC   ENDT4FF
001878:
001879:    4347           34355        PASTEVB            CAF      MIDSIX
001880:    4350           70660                           MASK     MONSAVE
001881:    4351           54107                           TS       NVTEMP                                #  PLACE MONITOR VERB INTO VERBREG AND
001882:    4352           04372                           TC       NVSUBMON                              #       DISPLAY IT.
001883:    4353           04354                           TC       +1                                    #  IN CASE OF ALARM DURING DISPLAY
001884:    4354           04205        ENDPASTE           TC       ENDOFJOB
001885:
001886:    4355           07700        MIDSIX             OCT      07700
001887:
001888:
001889:
001890: 05,3210                                           SETLOC   ENDMONDO   +1
001891: 05,3210           00700        MONMASK            OCT      700
001892: 05,3211           04347        MONBACK            ADRES    PASTEVB
001893:
001894: 05,3212           04522        MONBUSY            TC       RELDSPON                              #  TURN KEY RELEASE LIGHT
001895: 05,3213           04205                           TC       ENDOFJOB
001896:
001897:
001898:
001899:                                                                                                  #  DSPFMEM IS USED TO DISPLAY (IN OCTAL) ANY FIXED REGISTER.
001900:                                                                                                  #  IT IS USED WITH NOUN = MACHINE CADR TO BE SPECIFIED. THE FCADR OF THE
001901:                                                                                                  #  DESIRED LOCATION IS THEN PUNCHED IN. IT HANDLES F/F ( FCADR 4000-7777)
001902:
001903: 05,3214           34444        DSPFMEM            CAF      R1D1                                  #  IF F/F, DATACALL USES BANK 02 OR 03.
001904: 05,3215           54637                           TS       DSPCOUNT
001905: 05,3216           30657                           CA       NOUNCADR                              #  ORIGINAL FCADR LOADED STILL IN NOUNCADR.
001906: 05,3217           04116                           TC       DATACALL
001907: 05,3220           03222                           TC       DSPOCTWD
001908: 05,3221           04205        ENDSPF             TC       ENDOFJOB
001909:


001911:                                                                                                  #   DSPDECWD CONVERTS C(MPAC) AND C(MPAC+1)TO A SIGN AND 5 CHAR DECIMAL
001912:                                                                                                  #  STARTING IN LOC SPECIFIED IN DSPCOUNT
001913:
001914: 04,3057                                           SETLOC   TESTOFUF   +4
001915:
001916: 04,3057           56002        DSPDECWD           XCH      Q                                     #  USES SHORTMP THROUGHOUT
001917: 04,3060           54101                           TS       WDRET                                 #  CANT USE L FOR RETURN.+ON USES L.
001918: 04,3061           10140                           CCS      MPAC
001919: 04,3062           03071                           TC       +7
001920: 04,3063           03071                           TC       +6
001921: 04,3064           67646                           AD       ONE
001922: 04,3065           54140                           TS       MPAC
001923: 04,3066           02313                           TC       -ON
001924: 04,3067           40141                           CS       MPAC       +1
001925: 04,3070           03073                           TC       +3
001926: 04,3071           02273                           TC       +ON
001927: 04,3072           56141                           XCH      MPAC       +1
001928: 04,3073           63132                           AD       DECROUND
001929: 04,3074           54141                           TS       MPAC       +1
001930: 04,3075           37653                           CAF      ZERO
001931: 04,3076           60140                           AD       MPAC
001932: 04,3077           54140                           TS       MPAC
001933: 04,3100           03104                           TC       +4
001934: 04,3101           37626                           CAF      POSMAX
001935: 04,3102           54140                           TS       MPAC
001936: 04,3103           54141                           TS       MPAC       +1
001937: 04,3104           37644                           CAF      FOUR
001938: 04,3105           54123        DSPDCWD1           TS       WDCNT
001939: 04,3106           34511                           CAF      BINCON
001940: 04,3107           07257                           TC       SHORTMP
001941: 04,3110           50140        TRACE1             INDEX    MPAC
001942: 04,3111           34333                           CAF      RELTAB
001943: 04,3112           74473                           MASK     LOW5
001944: 04,3113           54110                           TS       CODE
001945: 04,3114           37653                           CAF      ZERO
001946: 04,3115           56142                           XCH      MPAC       +2
001947: 04,3116           56141                           XCH      MPAC       +1
001948: 04,3117           54140                           TS       MPAC
001949: 04,3120           56637                           XCH      DSPCOUNT
001950: 04,3121           54127        TRACE1S            TS       COUNT
001951: 04,3122           10000                           CCS      A                                     #  DECREMENT DSPCOUNT EXCEPT AT +0
001952: 04,3123           54637                           TS       DSPCOUNT
001953: 04,3124           03157                           TC       DSPIN
001954: 04,3125           10123                           CCS      WDCNT
001955: 04,3126           03105                           TC       DSPDCWD1
001956: 04,3127           44506                           CS       VD1
001957: 04,3130           54637                           TS       DSPCOUNT
001958: 04,3131           00101                           TC       WDRET
001959:
001960: 04,3132           02476        DECROUND           OCT      02476
001961:


001963:                                                                                                  #  DSP2DEC CONVERTS C(MPAC) AND C(MPAC+1) INTO A SIGN AND 10 CHAR DECIMAL
001964:                                                                                                  #  STARTING IN THE LOC SPECIFIED IN DSPCOUNT.
001965:
001966: 04,3133           56002        DSP2DEC            XCH      Q
001967: 04,3134           54101                           TS       WDRET                                 #  MUST USE SAME RETURN AS DSPDECWD
001968: 04,3135           37653                           CAF      ZERO
001969: 04,3136           54110                           TS       CODE
001970: 04,3137           36165                           CAF      THREE
001971: 04,3140           03241                           TC       11DSPIN                               #  -R2 OFF
001972: 04,3141           37644                           CAF      FOUR
001973: 04,3142           03241                           TC       11DSPIN                               #  +R2 OFF
001974: 04,3143           10140                           CCS      MPAC
001975: 04,3144           03154                           TC       +8D
001976: 04,3145           03154                           TC       +7
001977: 04,3146           67646                           AD       ONE
001978: 04,3147           54140                           TS       MPAC
001979: 04,3150           02313                           TC       -ON
001980: 04,3151           40141                           CS       MPAC       +1
001981: 04,3152           54141                           TS       MPAC       +1
001982: 04,3153           03155                           TC       +2
001983: 04,3154           02273                           TC       +ON
001984: 04,3155           34445                           CAF      R2D1
001985: 04,3156           03105        END2DEC            TC       DSPDCWD1
001986:
001987:
001988:
001989: 05,3222                                           SETLOC   DSPFMEM    +6
001990:                                                                                                  #  DSPOCTWD DISPLAYS C(A) UPON ENTRY AS A 5 CHAR OCT STARTING IN THE DSP
001991:                                                                                                  #  CHAR SPECIFIED IN DSPCOUNT. IT STOPS AFTER 5 CHAR HAVE BEEN DISPLAYED.
001992:
001993: 05,3222           54022        DSPOCTWD           TS       CYL
001994: 05,3223           56002                           XCH      Q
001995: 05,3224           54101                           TS       WDRET                                 #  MUST USE SAME RETURN AS DSP2BIT.
001996: 05,3225           37631                           CAF      BIT14                                 #  TO BLANK SIGNS
001997: 05,3226           26637                           ADS      DSPCOUNT
001998: 05,3227           37644                           CAF      FOUR
001999: 05,3230           54123        WDAGAIN            TS       WDCNT
002000: 05,3231           40022                           CS       CYL
002001: 05,3232           40022                           CS       CYL
002002: 05,3233           40022                           CS       CYL
002003: 05,3234           40000                           CS       A
002004: 05,3235           77652                           MASK     DSPMSK
002005: 05,3236           50000                           INDEX    A
002006: 05,3237           34333                           CAF      RELTAB
002007: 05,3240           74473                           MASK     LOW5
002008: 05,3241           54110                           TS       CODE
002009: 05,3242           56637                           XCH      DSPCOUNT
002010: 05,3243           54127                           TS       COUNT
002011: 05,3244           10000                           CCS      A                                     #  DECREMENT DSPCOUNT EXCEPT AT +0
002012: 05,3245           54637                           TS       DSPCOUNT


002014: 05,3246           04102                           TC       POSTJUMP
002015: 05,3247           11247                           CADR     DSPOCTIN
002016: 05,3250           10123        OCTBACK            CCS      WDCNT
002017: 05,3251           03230                           TC       WDAGAIN                               #  +
002018: 05,3252           44506        DSPLV              CS       VD1                                   #  TO BLOCK NUMERICAL CHARACTERS, CLEARS,
002019: 05,3253           54637                           TS       DSPCOUNT                              #  AND SIGNS AFTER A COMPLETED DISPLAY.
002020: 05,3254           00101                           TC       WDRET
002021:
002022: 05,3255     7652               DSPMSK             =        SEVEN
002023:
002024:
002025:
002026:                                                                                                  #  DSP2BIT DISPLAYS C(A) UPON ENTRY AS A 2 CHAR OCT BEGINNING IN THE DSP
002027:                                                                                                  #  LOC SPECIFIED IN DSPCOUNT BY PRE CYCLING RIGHT C(A) AND USING THE LOGIC
002028:                                                                                                  #  OF THE 5 CHAR OCTAL DISPLAY
002029:
002030: 05,3255           54020        DSP2BIT            TS       CYR
002031: 05,3256           56002                           XCH      Q
002032: 05,3257           54101                           TS       WDRET                                 #  CANT USE L AS RETURN. UPDATNN USES L.
002033: 05,3260           37646                           CAF      ONE
002034: 05,3261           54123                           TS       WDCNT
002035: 05,3262           40020                           CS       CYR
002036: 05,3263           40020                           CS       CYR
002037: 05,3264           56020                           XCH      CYR
002038: 05,3265           54022                           TS       CYL
002039: 05,3266           03235                           TC       WDAGAIN    +5
002040:
002041:
002042:
002043:                                                                                                  #  FOR DSPIN PLACE 0/25 OCT INTO COUNT, 5 BIT RELAY CODE INTO CODE. BOTH
002044:                                                                                                  #  ARE DESTROYED. IF BIT14 OF COUNT IS 1, SIGN IS BLANKED WITH LEFT CHAR.
002045:                                                                                                  #  FOR DSPIN1 PLACE 0,1 INTO BIT11 OF CODE, 2 INTO COUNT, REL ADDRESS OF
002046:                                                                                                  #  DSPTAB ENTRY INTO DSREL.
002047:
002048: 04,3157                                           SETLOC   END2DEC    +1
002049:
002050: 04,3157           56002        DSPIN              XCH      Q                                     #  CANT USE L FOR RETURN, SINCE MANY OF THE
002051: 04,3160           54100                           TS       DSEXIT                                #  ROUTINES CALLING DSPIN USE L AS RETURN.
002052: 04,3161           34473                           CAF      LOW5
002053: 04,3162           70127                           MASK     COUNT
002054: 04,3163           54021                           TS       SR
002055: 04,3164           56021                           XCH      SR
002056: 04,3165           54125                           TS       DSREL
002057: 04,3166           37646                           CAF      BIT1
002058: 04,3167           70127                           MASK     COUNT
002059: 04,3170           10000                           CCS      A
002060: 04,3171           03173                           TC       +2                                    #  LEFT IF COUNT IS ODD
002061: 04,3172           03203                           TC       DSPIN1     -1                         #  RIGHT IF COUNT IS EVEN
002062: 04,3173           56110                           XCH      CODE
002063: 04,3174           04465                           TC       SLEFT5                                #  DOES NOT USE CYL


002065: 04,3175           54110                           TS       CODE
002066: 04,3176           37631                           CAF      BIT14
002067: 04,3177           70127                           MASK     COUNT
002068: 04,3200           10000                           CCS      A
002069: 04,3201           37645                           CAF      TWO                                   #  BIT14 = 1, BLANK SIGN
002070: 04,3202           67646                           AD       ONE                                   #  BIT14 = 0, LEAVE SIGN ALONE
002071: 04,3203           54127                           TS       COUNT                                 #  +0 INTO COUNT FOR RIGHT
002072:                                                                                                  #  +1 INTO COUNT FOR LEFT(SIGN LEFT ALONE)
002073:                                                                                                  #  +3 INTO COUNT FOR LEFT(TO BLANK SIGN)
002074: 04,3204           00004        DSPIN1             INHINT
002075: 04,3205           50125                           INDEX    DSREL
002076: 04,3206           10662                           CCS      DSPTAB
002077: 04,3207           03211                           TC       +2                                    #  IF +
002078: 04,3211                                           LOC      +1
002079: 04,3211           67646                           AD       ONE                                   #  IF -
002080: 04,3212           54126                           TS       DSMAG
002081: 04,3213           50127                           INDEX    COUNT
002082: 04,3214           73235                           MASK     DSMSK
002083: 04,3215           00006                           EXTEND
002084: 04,3216           60110                           SU       CODE
002085: 04,3217           00006                           EXTEND
002086: 04,3220           13233                           BZF      DSLV                                  #  SAME
002087: 04,3221           50127        DFRNT              INDEX    COUNT
002088: 04,3222           43235                           CS       DSMSK                                 #  MASK WITH 77740,76037, OR 75777
002089: 04,3223           70126                           MASK     DSMAG
002090: 04,3224           60110                           AD       CODE
002091: 04,3225           40000                           CS       A
002092: 04,3226           50125                           INDEX    DSREL
002093: 04,3227           56662                           XCH      DSPTAB
002094: 04,3230           00006                           EXTEND
002095: 04,3231           63233                           BZMF     DSLV                                  #  DSPTAB ENTRY WAS -
002096: 04,3232           24656                           INCR     NOUT                                  #  DSPTAB ENTRY WAS +
002097: 04,3233           00003        DSLV               RELINT
002098: 04,3234           00100                           TC       DSEXIT
002099:
002100: 04,3235           00037        DSMSK              OCT      37
002101: 04,3236           01740                           OCT      1740
002102: 04,3237           02000                           OCT      2000
002103: 04,3240           03740                           OCT      3740
002104:
002105:
002106:
002107:                                                                                                  #  FOR 11DSPIN, PUT REL ADDRESSS OF DSPTAB ENTRY INTO A, 1 IN BIT11 OR 0 IN
002108:                                                                                                  #  BIT11 OF CODE.
002109:
002110: 04,3241           54125        11DSPIN            TS       DSREL
002111: 04,3242           37645                           CAF      TWO
002112: 04,3243           54127                           TS       COUNT
002113: 04,3244           56002                           XCH      Q                                     #  MUST USE SAME RETURN AS DSPIN
002114: 04,3245           54100                           TS       DSEXIT


002116: 04,3246           03204                           TC       DSPIN1
002117:
002118:
002119:
002120: 04,3247           03157        DSPOCTIN           TC       DSPIN                                 #  SO DSPOCTWD DOESNT USE SWCALL
002121: 04,3250           33252                           CAF      +2
002122: 04,3251           04105                           TC       BANKJUMP
002123: 04,3252           13250        ENDSPOCT           CADR     OCTBACK
002124:
002125:
002126:
002127:                                                                                                  #  DSPALARM FINDS TC NVSUBEND IN ENTRET FOR NVSUB INITIATED ROUTINES.
002128:                                                                                                  #  ABORT WITH 01501.
002129:                                                                                                  #  DSPALARM FINDS TC ENDOFJOB IN ENTRET FOR KEYBOARD INITIATED ROUTINES.
002130:                                                                                                  #  DO TC ENTRET.
002131:
002132: 04,3253           34417        CHARALRM           CAF      ENDINST                               #  ALARMS WHICH MUST DO ENDOFJOBS COME
002133: 04,3254           54122                           TS       ENTRET                                #  HERE. ALLOWS ENTRET TO BE TEMP ERASABLE
002134:
002135: 04,3255           04512        DSPALARM           TC       FALTON                                #  TURN ON OPERATOR ERROR LIGHT
002136: 04,3256           43265                           CS       NVSBENDL
002137: 04,3257           60122                           AD       ENTEXIT
002138: 04,3260           00006                           EXTEND
002139: 04,3261           13263                           BZF      +2                                    #  NVSUB INITIATED. ABORT
002140: 04,3262           00122                           TC       ENTEXIT                               #  NOT NVSUB INITIATED.
002141: 04,3263           04662                           TC       ABORT
002142: 04,3264           01501                           OCT      01501
002143: 04,3265           04376        NVSBENDL           TC       NVSUBEND
002144:
002145:
002146:
002147:                                                                                                  #  MMCHANG USES NOUN DISPLAY UNTIL ENTER. THEN IT USES MODE DISP.
002148:                                                                                                  #  IT GOES TO MODROUT WITH THE NEW M M CODE IN A, BUT NOT DISPLAYED IN
002149:                                                                                                  #  M M LIGHTS.
002150:
002151: 05,3267                                           SETLOC   DSP2BIT    +10D
002152:
002153: 05,3267           03302        MMCHANG            TC       REQMM
002154: 05,3270           37653                           CAF      ZERO
002155: 05,3271           56642                           XCH      NOUNREG
002156: 05,3272           54140                           TS       MPAC
002157: 05,3273           34507                           CAF      ND1
002158: 05,3274           54637                           TS       DSPCOUNT
002159: 05,3275           04063                           TC       BANKCALL
002160: 05,3276           10517                           CADR     2BLANK
002161: 05,3277           30140                           CA       MPAC
002162: 05,3300           04102                           TC       POSTJUMP
002163: 05,3301           11255                           CADR     MODROUTB                              #  GO THRU STANDARD LOC.
002164:


002166: 05,3302  04,3255               MODROUTB           =        DSPALARM                              #  **FIX LATER**
002167: 05,3302           40002        REQMM              CS       Q
002168: 05,3303           54653                           TS       REQRET
002169: 05,3304           34507                           CAF      ND1
002170: 05,3305           54637                           TS       DSPCOUNT
002171: 05,3306           37653                           CAF      ZERO
002172: 05,3307           54642                           TS       NOUNREG
002173: 05,3310           04063                           TC       BANKCALL
002174: 05,3311           10517                           CADR     2BLANK
002175: 05,3312           04543                           TC       FLASHON
002176: 05,3313           00122                           TC       ENTEXIT
002177:
002178:
002179:
002180:                                                                                                  #  VBRQEXEC ENTERS REQUEST TO EXEC     FOR ANY ADDRESS WITH ANY PRIORITY.
002181:                                                                                                  #  IT DOES ENDOFJOB AFTER ENTERING REQUEST. DISPLAY SYST IS RELEASED.
002182:                                                                                                  #  IT ASSUMES NOUN 26 HAS BEEN PRELOADED WITH
002183:                                                                                                  #  COMPONENT 1  PRIORITY(BITS 10-14) BIT1=0 FOR NOVAC, BIT1=1 FOR FINDVAC.
002184:                                                                                                  #  COMPONENT 2  JOB ADRES (12 BIT )
002185:                                                                                                  #  COMPONENT 3  BBCON
002186:
002187: 05,3314           37646        VBRQEXEC           CAF      BIT1
002188: 05,3315           70706                           MASK     DSPTEM1
002189: 05,3316           10000                           CCS      A
002190: 05,3317           03336                           TC       SETVAC                                #  IF BIT1 = 1, FINDVAC
002191: 05,3320           34476                           CAF      TCNOVAC                               #  IF BIT1 = 0, NOVAC
002192: 05,3321           54140        REQEX1             TS       MPAC                                  #  TC NOVAC  OR  TC FINDVAC INTO MPAC
002193: 05,3322           47646                           CS       BIT1
002194: 05,3323           70706                           MASK     DSPTEM1
002195: 05,3324           54144                           TS       MPAC       +4                         #  PRIO INTO MPAC+4 AS A TEMP
002196: 05,3325           04610        REQUESTC           TC       RELDSP
002197: 05,3326           34417                           CA       ENDINST
002198: 05,3327           54143                           TS       MPAC       +3                         #  TC ENDOFJOB INTO MPAC+3
002199: 05,3330           00006                           EXTEND
002200: 05,3331           30710                           DCA      DSPTEM1    +1                         #  JOB ADRES INTO MPAC+1
002201: 05,3332           52142                           DXCH     MPAC       +1                         #  BBCON INTO MPAC+2
002202: 05,3333           30144                           CA       MPAC       +4                         #  PRIO IN A
002203: 05,3334           00004                           INHINT
002204: 05,3335           00140                           TC       MPAC
002205:
002206: 05,3336           34501        SETVAC             CAF      TCFINDVC
002207: 05,3337           03321                           TC       REQEX1
002208:
002209:                                                                                                  #  VBRQWAIT ENTERS REQUEST TO WAITLIST FOR ANY ADDRESS WITH ANY DELAY.
002210:                                                                                                  #  IT DOES ENDOFJOB AFTER ENTERING REQUEST.DISPLAY SYST IS RELEASED.
002211:                                                                                                  #  IT ASSUMES NOUN 26 HAS BEEN PRELOADED WITH
002212:                                                                                                  #  COMPONENT 1  DELAY (LOW BITS)
002213:                                                                                                  #  COMPONENT 2  TASK ADRES (12 BIT)
002214:                                                                                                  #  COMPONENT 3  BBCON
002215:


002217: 05,3340           34477        VBRQWAIT           CAF      TCWAIT
002218: 05,3341           54140                           TS       MPAC                                  #  TC WAITLIST INTO MPAC
002219: 05,3342           30706                           CA       DSPTEM1                               #  TIME DELAY
002220: 05,3343           03324        ENDRQWT            TC       REQUESTC   -1
002221:
002222:                                                                                                  #  REQUESTC WILL PUT TASK ADRES INTO MPAC+1, BBCON INTO MPAC+2,
002223:                                                                                                  #  TC ENDOFJOB INTO MPAC+3. IT WILL TAKE TIME DELAY OUT OF MPAC+4 AND
002224:                                                                                                  #  LEAVE IT IN A, INHINT AND TC MPAC.
002225:
002226:
002227:
002228: 04,3266                                           SETLOC   NVSBENDL   +1
002229: 04,3266           37646        VBPROC             CAF      ONE                                   #  PROCEED WITHOUT DATA
002230: 04,3267           54654                           TS       LOADSTAT
002231: 04,3270           04610                           TC       RELDSP
002232: 04,3271           04547                           TC       FLASHOFF
002233: 04,3272           03400                           TC       RECALTST                              #  SEE IF THERE IS ANY RECALL FROM ENDIDLE
002234:
002235:
002236:
002237: 04,3273           04400        VBTERM             TC       KILMONON                              #  TURN ON KILL MONITOR BIT
002238: 04,3274           47646                           CS       ONE
002239: 04,3275           03267                           TC       VBPROC     +1                         #  TERM VERB SETS LOADSTAT NEG
002240:
002241:
002242:
002243:                                                                                                  #  FLASH IS TURNED OFF ONLY BY PROCEED WITHOUT DATA, TERMINATE, END OF LOAD
002244:
002245:
002246:
002247:                                                                                                  #  VBRELDSP TURNS OFF RELEASE DISPLAY SYSTEM LIGHT(AND SEARCHES LIST ONLY
002248:                                                                                                  #  IF THIS LIGHT WAS TURNED ON BY NVSUBUSY), AND TURNS OFF UPACT LIGHT.
002249:
002250: 04,3276           47644        VBRELDSP           CS       BIT3
002251: 04,3277           00006                           EXTEND
002252: 04,3300           03011                           WAND     DSALMOUT                              #  TURN OFF UPACT LIGHT
002253: 04,3301           04610                           TC       RELDSP                                #  SEARCHES LIST
002254: 04,3302           04205                           TC       ENDOFJOB
002255:
002256:
002257:
002258:                                                                                                  #  BUMP SHIFTS WORD DISPLAYED IN R2 TO R3, R1 TO R2. IT BLANKS R1.
002259:
002260: 04,3303           37225        BUMP               CAF      FIVE                                  #  R2D5
002261: 04,3304           54637                           TS       DSPCOUNT
002262: 04,3305           54127                           TS       COUNT
002263: 04,3306           37646                           CAF      ONE                                   #  SHIFT DATA OF R2 TO R3, R1 TO R2
002264: 04,3307           70127                           MASK     COUNT
002265: 04,3310           56127                           XCH      COUNT                                 #  +0 INTO COUNT IF EVEN (RIGHT)
002266: 04,3311           54021                           TS       SR                                    #  +1 INTO COUNT IF ODD (LEFT)


002268: 04,3312           56021                           XCH      SR                                    #  DSREL IN A
002269: 04,3313           50000                           INDEX    A
002270: 04,3314           10662                           CCS      DSPTAB
002271: 04,3315           03317                           TC       +2
002272: 04,3317                                           LOC      +1
002273: 04,3317           67646                           AD       ONE                                   #  DSMAG IN A
002274: 04,3320           50127                           INDEX    COUNT
002275: 04,3321           73235                           MASK     DSMSK
002276: 04,3322           50127                           INDEX    COUNT
002277: 04,3323           03324                           TC       +1
002278: 04,3324           03326                           TC       +2                                    #  EVEN(RIGHT)  OK
002279: 04,3325           04447                           TC       RIGHT5                                #  ODD(LEFT)  SHIFT RIGHT
002280: 04,3326           54110                           TS       CODE
002281: 04,3327           47225                           CS       FIVE
002282: 04,3330           60637                           AD       DSPCOUNT                              #  DSPCOUNT-5
002283: 04,3331           10000                           CCS      A                                     #  TO PREVENT -0
002284: 04,3332           67646                           AD       ONE
002285: 04,3333           03335                           TC       +2
002286: 04,3335                                           LOC      +1
002287: 04,3335           54127                           TS       COUNT
002288: 04,3336           03157                           TC       DSPIN                                 #  CODE ALREADY IN CODE
002289: 04,3337           40637                           CS       DSPCOUNT
002290: 04,3340           64444                           AD       R1D1                                  #  OCT 16
002291: 04,3341           10000                           CCS      A
002292: 04,3342           56637                           XCH      DSPCOUNT                              #  +, DSPCOUNT L/ OCT 16
002293: 04,3343           67646                           AD       ONE                                   #  INCREMENT DSPCOUNT
002294: 04,3344           03304                           TC       BUMP       +1
002295:
002296: 04,3345           37653        SWSGN              CAF      ZERO                                  #  -0, DSPCOUNT= OCT 16. DO SIGN SHIFT
002297: 04,3346           54637                           TS       DSPCOUNT
002298: 04,3347           63376                           AD       SWTAB      +2                         #  OCT 3
002299: 04,3350           50000                           INDEX    A                                     #  PICKUP ORDER , DSREL=3,4,5,6.
002300: 04,3351           10662                           CCS      DSPTAB                                #                   (-R2,+R2,-R1,+R1)
002301: 04,3352           03354                           TC       +2
002302: 04,3354                                           LOC      +1
002303: 04,3354           67646                           AD       ONE
002304: 04,3355           77634                           MASK     BIT11
002305: 04,3356           54110                           TS       CODE
002306: 04,3357           50637                           INDEX    DSPCOUNT
002307: 04,3360           33374                           CAF      SWTAB                                 #  PUT AWAY ORDER, DSREL= 0,1,3,4.
002308: 04,3361           03241                           TC       11DSPIN                               #                   (-R3,+R3,-R2,+R2.)
002309: 04,3362           40637                           CS       DSPCOUNT
002310: 04,3363           63376                           AD       SWTAB      +2                         #  OCT 3
002311: 04,3364           10000                           CCS      A
002312: 04,3365           56637                           XCH      DSPCOUNT                              #  +, DSPCOUNT L/ 3
002313: 04,3366           67646                           AD       ONE                                   #  INCREMENT DSPCOUNT
002314: 04,3367           03346                           TC       SWSGN      +1
002315: 04,3370           34444                           CAF      R1D1                                  #  -0,       DSPCOUNT = 3
002316: 04,3371           54637                           TS       DSPCOUNT
002317: 04,3372           02454                           TC       5BLANK                                #  BLANKS R1


002319: 04,3373           00122                           TC       ENTEXIT
002320:
002321: 04,3374           00000        SWTAB              OCT      0                                     #  -R3
002322: 04,3375           00001                           OCT      1                                     #  +R3
002323: 04,3376           00003                           OCT      3                                     #  -R2
002324: 04,3377           00004                           OCT      4                                     #  +R2
002325:


002327:                                                                                                  #  NVSUB IS USED FOR SUB ROUTINE CALLS FROM WITHIN COMPUTER. IT CAN BE
002328:                                                                                                  #  USED TO DO ANY THING THE KEYBOARD CAN CALL. PLACE  ...VVVVVVNNNNNN
002329:                                                                                                  #  INTO A.      V-S ARE 6 BIT VERB CODE. N-S , 6 BIT NOUN CODE.
002330:
002331:                                                                                                  #  NVSUB CAN BE USED WITH MACH CADR TO BE SPEC BY PLACING THE CADR INTO
002332:                                                                                                  #  MPAC+2 BEFORE THE STANDARD NVSUB CALL.
002333:
002334:                                                                                                  #   NVSUB RETURNS TO 2+ CALLING LOC AFTER PERFORMING TASK, IF DISPLAY
002335:                                                                                                  #  SYSTEM IS AVAILABLE. THE NEW NOUN AND VERB CODES ARE DISPLAYED.
002336:                                                                                                  #  IF V:S =0, THE NEW NOUN CODE IS DISPLAYED ONLY(RETURN WITH NO FURTHER
002337:                                                                                                  #  ACTION). IF N-S =0, THE NEW VERB CODE IS DISPLAYED ONLY(RETURN WITH NO
002338:                                                                                                  #  FURTHER ACTION).
002339:
002340:                                                                                                  #  IT RETURNS TO 1+ CALLING LOC WITHOUT PERFORMING TASK, IF DISPLAY
002341:                                                                                                  #  SYSTEM IS BLOCKED (NOTHING IS DISPLAYED IN THIS CASE).
002342:                                                                                                  #  IT DOES TC ABORT (WITH OCT 01501) IF IT ENCOUNTERS A DISPLAY PROGRAM
002343:                                                                                                  #  ALARM CONDITION BEFORE RETURN TO CALLER.
002344:
002345:                                                                                                  #  THE DISPLAY SYSTEM IS BLOCKED BY THE DEPRESSION OF ANY
002346:                                                                                                  #  KEY, EXCEPT ERROR LIGHT RESET. ALSO BY ENDIDLE.
002347:                                                                                                  #       IT IS RELEASED BY SPECIAL VERB = RELEASE DISPLAY, ALL GO TO VERBS.
002348:                                                                                                  #  PROCEED WITHOUT DATA, TERMINATE, INITIALIZE EXECUTIVE,
002349:                                                                                                  #  RECALL PART OF RECALTST IF ENDIDLE WAS USED,
002350:                                                                                                  #  IN RECALTST IF NVSUB INITIATED LOAD AND ENDIDLE WAS NOT USED,
002351:                                                                                                  #  VB = REQUEST EXECUTIVE, VB = REQUEST WAITLIST,
002352:                                                                                                  #  MONITOR SET UP.
002353:
002354:                                                                                                  #  A NVSUB CALL THAT PASSES DSPLOCK ENDS OLD MONITOR.
002355:
002356:                                                                                                  #  DSPLOCK IS THE INTERLOCK FOR USE OF KEYBOARD AND DISPLAY SYSTEM WHICH
002357:                                                                                                  #  LOCKS OUT INTERNAL USE WHENEVER THERE IS EXTERNAL KEYBOARD ACTION.
002358:
002359:                                                                                                  #  NVSUB IN FIXED-FIXED PLACES 2+CALLING LOC INTO NVQTEM, TC NVSUBEND INTO
002360:                                                                                                  #  ENTRET. (THIS WILL RESTORE OLD CALLING BANK BITS)
002361:
002362:    4356                                           SETLOC   MIDSIX     +1
002363:    4356           54107        NVSUB              TS       NVTEMP                                #  IN FIXED FIXED
002364:    4357           10652                           CCS      DSPLOCK
002365:    4360           00002                           TC       Q                                     #  DSP SYST BLOCKED. RET TO 1+ CALLING LOC
002366:    4361           30002                           CA       Q                                     #  DSP SYST AVAILABLE
002367:    4362           67646                           AD       ONE
002368:    4363           54700                           TS       NVQTEM                                #  2+ CALLING LOC INTO NVQTEM
002369:    4364           04400                           TC       KILMONON                              #  TURN ON KILL MONITOR BIT
002370:    4365           34371        NVSUBCOM           CAF      NVSBBBNK
002371:
002372:    4366           56006                           XCH      BBANK
002373:    4367           54701                           TS       NVBNKTEM
002374:    4370           02000                           TC       NVSUBB                                #  GO TO NVSUB1 THRU STANDARD LOC
002375:    4371     0637                                  EBANK=   DSPCOUNT
002376:    4371           12001        NVSBBBNK           BBCON    NVSUB1
002377:


002379:    4372           30002        NVSUBMON           CA       Q                                     #  MONDO COMES HERE
002380:    4373           67646                           AD       ONE
002381:    4374           54700                           TS       NVQTEM                                #  2 + CALLING LOC INTO NVQTEM
002382:    4375           04365                           TC       NVSUBCOM
002383:
002384:
002385:
002386:    4376           52701        NVSUBEND           DXCH     NVQTEM                                #  NVBNKTEM MUST = NVQTEM+1
002387:    4377           52006                           DXCH     Z                                     #  DTCB
002388:
002389: 05,3344                                           SETLOC   ENDRQWT    +1
002390:
002391: 05,3344           33363        NVSUB1             CAF      ENTSET                                #  IN BANK
002392: 05,3345           54122                           TS       ENTRET                                #  SET RETURN TO NVSUBEND
002393: 05,3346           33401                           CAF      LOW6
002394: 05,3347           70107                           MASK     NVTEMP
002395: 05,3350           54140                           TS       MPAC                                  #  TEMP STORAGE
002396: 05,3351           33402                           CAF      MID6
002397: 05,3352           70107                           MASK     NVTEMP
002398: 05,3353           04447                           TC       RIGHT5
002399: 05,3354           54020                           TS       CYR
002400: 05,3355           56020                           XCH      CYR
002401: 05,3356           54141                           TS       MPAC       +1                         #  TEMP STORAGE
002402: 05,3357           10140                           CCS      MPAC                                  #  TEST NOUN
002403: 05,3360           03364                           TC       +4                                    #  IF NOUN NOT +0, GO ON
002404: 05,3361           56141                           XCH      MPAC       +1
002405: 05,3362           02314                           TC       UPDATVB    -1                         #  IF NOUN = +0, DISPLAY VERB, THEN RETURN
002406: 05,3363           04376        ENTSET             TC       NVSUBEND
002407: 05,3364           10141                           CCS      MPAC       +1                         #  TEST VERB
002408: 05,3365           03371                           TC       +4                                    #  IF VERB NOT +0, GO ON
002409: 05,3366           56140                           XCH      MPAC
002410: 05,3367           02274                           TC       UPDATNN    -1                         #  IF VERB = +0, DISPLAY NOUN. THEN RETURN
002411: 05,3370           04376                           TC       NVSUBEND
002412: 05,3371           56141                           XCH      MPAC       +1
002413: 05,3372           02314                           TC       UPDATVB    -1                         #  IF BOTH NOUN AND VERB NOT +0, DISPLAY
002414: 05,3373           56140                           XCH      MPAC                                  #  BOTH AND GO TO ENTPAS0
002415: 05,3374           02274                           TC       UPDATNN    -1
002416: 05,3375           37653                           CAF      ZERO
002417: 05,3376           54654                           TS       LOADSTAT                              #  SET FOR WAITING FOR DATA CONDITION
002418: 05,3377           54655                           TS       CLPASS
002419: 05,3400           02031                           TC       ENTPAS0
002420:
002421:                                                                                                  #  IF INTERNAL MACH CADR TO BE SPECIFIED, MPAC+2 WILL BE PLACED INTO
002422:                                                                                                  #  NOUNCADR IN ENTPAS0 (INTMCTBS ).
002423:
002424:
002425:
002426: 05,3401           00077        LOW6               OCT      77
002427: 05,3402           07700        MID6               OCT      7700
002428:


002430:    4400                                           SETLOC   NVSUBEND   +2
002431:    4400           47630        KILMONON           CS       BIT15                                 #  FORCE BIT 15 OF MONSAVE1 TO 1.
002432:    4401           00004                           INHINT                                         #          THIS IS THE KILL MONITOR BIT.
002433:    4402           70661                           MASK     MONSAVE1
002434:    4403           67630                           AD       BIT15
002435:    4404           54661                           TS       MONSAVE1
002436:    4405           00003                           RELINT
002437:    4406           00002                           TC       Q
002438:
002439:
002440:
002441:                                                                                                  #  LOADSTAT  +0 INACTIVE(WAITING FOR DATA). SET BY NVSUB
002442:                                                                                                  #            +1  PROCEED NO DATA. SET BY SPECIAL VERB
002443:                                                                                                  #           -1 TERMINATE   SET BY SPECIAL VERB
002444:                                                                                                  #           -0 DATA IN   SET BY END OF LOAD ROUTINE
002445:
002446:
002447:
002448:                                                                                                  #  L  TC ENDIDLE  (FIXED FIXED)
002449:                                                                                                  #  ROUTINES THAT REQUEST LOADS THROUGH NVSUB SHOULD USE ENDIDLE WHILE
002450:                                                                                                  #  WAITING FOR THE DATA TO BE LOADED. ENDIDLE PUTS CURRENT JOB TO SLEEP.
002451:                                                                                                  #  ENDIDLE CANNOT BE CALLED FROM ERASABLE MEMORY, SINCE JOBSLEEP AND
002452:                                                                                                  #  JOBWAKE CAN HANDLE ONLY FIXED MEMORY.
002453:                                                                                                  #  RECALTST TESTS LOADSTAT AND WAKES JOB UP TO,
002454:                                                                                                  #  L+1      FOR TERMINATE
002455:                                                                                                  #  L+2      FOR PROCEED WITHOUT DATA
002456:                                                                                                  #  L+3      FOR DATA IN
002457:                                                                                                  #  IT DOES NOTHING     IF LOADSTAT INDICATES WAITING FOR DATA.
002458:
002459:    4407           37646        ENDIDLE            CAF      ONE
002460:    4410           54652                           TS       DSPLOCK
002461:    4411           22004                           LXCH     FBANK
002462:    4412           56002                           XCH      Q
002463:    4413           52120                           DXCH     BUF2
002464:    4414           04112                           TC       MAKECADR
002465:    4415           54676                           TS       CADRSTOR
002466:    4416           04164                           TC       JOBSLEEP
002467:
002468:
002469:
002470:    4417           04205        ENDINST            TC       ENDOFJOB
002471:
002472:                                                                                                  #  DATAWAIT IS AN ALTERNATIVE TO ENDIDLE, IT RETURNS IMMEDIATELY IF
002473:                                                                                                  #  LOADSTAT INDICATES THAT DATA IS ALREADY IN, OR PROCEED OR TERMINATE HAS
002474:                                                                                                  #  BEEN EXECUTED. RETURN FORMAT IS SAME AS FOR ENDIDLE.
002475:                                                                                                  #  DATAWAIT CANNOT BE CALLED FROM ERASABLE MEMORY, SINCE JOBSLEEP
002476:                                                                                                  #  AND JOBWAKE CAN HANDLE ONLY FIXED MEMORY.
002477:                                                                                                  #  DATAWAIT SHOULD BE USED ONLY AFTER REQUESTING A LOAD VERB.
002478:
002479:    4420           10654        DATAWAIT           CCS      LOADSTAT


002481:    4421           14426                           TCF      DATWAIT1                              #  PROCEED. RETURN TO L+2.
002482:    4422           14407                           TCF      ENDIDLE                               #  STILL WAITING. GO TO SLEEP.
002483:    4423           00002                           TC       Q                                     #  TERMINATE. RETURN TO L+1.
002484:    4424           50002                           INDEX    Q                                     #  DATA IN. RETURN TO L+3.
002485:    4425           00002                           TC       2
002486:    4426           50002        DATWAIT1           INDEX    Q                                     #  RETURN TO L+2.
002487:    4427           00001                           TC       1
002488:
002489:                                                                                                  #  DATAWAIT DOES NOT RELEASE DISPLAY SYST. IT IS RELEASED AT END OF NVSUB
002490:                                                                                                  #  INITIATED LOAD, IF ENDIDLE WAS NOT USED.
002491:
002492:
002493:
002494: 05,3403                                           SETLOC   MID6       +1
002495:                                                                                                  #  DSPMM PLACE MAJOR MODE CODE INTO MODREG
002496:
002497: 05,3403           34510        DSPMM1             CAF      MD1                                   #  GETS HERE THRU DSPMM (STANDARD LEAD IN)
002498: 05,3404           56637                           XCH      DSPCOUNT
002499: 05,3405           54124                           TS       DSPMMTEM                              #  SAVE DSPCOUNT
002500: 05,3406           30651                           CA       MODREG
002501: 05,3407           22002                           LXCH     Q
002502: 05,3410           03255                           TC       DSP2BIT
002503: 05,3411           56124                           XCH      DSPMMTEM                              #  RESTORE DSPCOUNT
002504: 05,3412           54637                           TS       DSPCOUNT
002505: 05,3413           00001        DSPMMEND           TC       L
002506:
002507:
002508:
002509:                                                                                                  #  RECALTST IS ENTERED DIRECTLY AFTER DATA IS
002510:                                                                                                  #  LOADED, TERMINATE VERB IS EXECUTED, OR THE PROCEED WITHOUT DATA VERB IS
002511:                                                                                                  #  EXECUTED. IT WAKES UP JOB THAT DID TC ENDIDLE.
002512:
002513:                                                                                                  #  IF NVSUB INITIATED LOAD, AND ENDIDLE WAS NOT USED, THEN IT RELEASES
002514:                                                                                                  #  DISPLAY SYST. (NEEDED FOR DATAWAIT)
002515:
002516: 04,3400                                           SETLOC   SWTAB      +4
002517:
002518: 04,3400           10676        RECALTST           CCS      CADRSTOR
002519: 04,3401           03406                           TC       RECAL1
002520: 04,3402           04205                           TC       ENDOFJOB                              #  NORMAL EXIT IF KEYBOARD INITIATED
002521: 04,3403           03406                           TC       RECAL1
002522: 04,3404           54676                           TS       CADRSTOR                              #  -0. CONCLUSION OF NVSUB INITIATED LOAD.
002523: 04,3405           03424                           TC       RECAL3                                #  +0 INTO CADRSTOR. RELEASE DISPLAY,
002524:                                                                                                  #     AND ENDOFJOB. NEEDED FOR DATAWAIT.
002525: 04,3406           37653        RECAL1             CAF      ZERO
002526: 04,3407           56676                           XCH      CADRSTOR
002527: 04,3410           00004                           INHINT
002528: 04,3411           04170                           TC       JOBWAKE
002529: 04,3412           10654                           CCS      LOADSTAT
002530: 04,3413           03430                           TC       DOPROC                                #  + PROCEED WITHOUT DATA


002532: 04,3414           04205                           TC       ENDOFJOB                              #  PATHALOGICAL CASE EXIT
002533: 04,3415           03426                           TC       DOTERM                                #  -   TERMINATE
002534: 04,3416           37645                           CAF      TWO
002535: 04,3417           50635        RECAL2             INDEX    LOCCTR
002536: 04,3420           60150                           AD       LOC                                   #  LOC IS + FOR BASIC JOBS
002537: 04,3421           50635                           INDEX    LOCCTR
002538: 04,3422           54150                           TS       LOC
002539: 04,3423           00003                           RELINT
002540: 04,3424           04633        RECAL3             TC       RELDSP1                               #  DOES NOT SEARCH LIST
002541: 04,3425           04205                           TC       ENDOFJOB
002542:
002543: 04,3426           37653        DOTERM             CAF      ZERO
002544: 04,3427           03417                           TC       RECAL2
002545:
002546: 04,3430           37646        DOPROC             CAF      ONE
002547: 04,3431           03417                           TC       RECAL2
002548:


002550:                                                                                                  #  THE FOLLOWING REFERS TO THE NOUN TABLES
002551:
002552:
002553:
002554:                                                                                                  #  COMPONENT CODE NUMBER           INTERPRETATION
002555:
002556:                                                                                                  #  00000                           1 COMPONENT
002557:                                                                                                  #  00001                           2 COMPONENT (EACH S P)
002558:                                                                                                  #  00010                           3 COMPONENT (EACH SP)
002559:
002560:
002561:
002562:                                                                                                  #  SF ROUTINE CODE NUMBER          INTERPRETATION
002563:
002564:                                                                                                  #  00000    OCTAL ONLY
002565:                                                                                                  #  00001    STRAIGHT FRACTIONAL
002566:                                                                                                  #  00010    DEGREES (XXX.XX)
002567:                                                                                                  #  00011    ARITHMETIC SF
002568:                                                                                                  #  00100    ARITH DP1   OUT(MULT BY 2/14 AT END)      IN(STRAIGHT)
002569:                                                                                                  #  00101    ARITH DP2   OUT(STRAIGHT)                 IN(SL 7 AT END)
002570:                                                                                                  #  00110    OPTICS DEGREES(XX.XXX MAX 89.999) OR (XXX.XX MAX 179.99)
002571:                                                                                                  #  00111    ARITH DP3   OUT ( SL 7 AT END)       IN ( STRAIGHT)
002572:                                                                                                  #  END OF SF ROUTINE CODE NUMBERS
002573:
002574:
002575:
002576:                                                                                                  #  SF CONSTANT CODE NUMBER         INTERPRETATION
002577:
002578:                                                                                                  #  00000                           WHOLE
002579:                                                                                                  #  00000                           TIME SEC(XXX.XX)SAME AS WHOLE(ARITH DP1)
002580:                                                                                                  #  00001                           TIME HOURS(XXX.XX) USE ARITH DP2
002581:                                                                                                  #  00010                           DEGREES
002582:                                                                                                  #  00010                           OPTICS DEGREES
002583:                                                                                                  #  00011                           GYRO DEGREES(XX.XXX) USE ARITH DP1
002584:                                                                                                  #  00100                           GYRO BIAS DRIFT .BBXXXXX MILLIRAD/SEC
002585:                                                                                                  #  00101                           GYRO AXIS ACCEL. DRIFT
002586:                                                                                                  #                                  .BBXXXXX (MILLIRAD/SEC) / (CM/SEC SEC)
002587:                                                                                                  #  00110                           PIPA BIAS X.XXXX CM/SEC SEC
002588:                                                                                                  #  00111                           PIPA SCALE FACTOR ERROR
002589:                                                                                                  #                                      XXXXX. PARTS/MILLION
002590:                                                                                                  #  01000                           POSITION(XXXX.X KILOMETERS) USE ARITHDP3
002591:                                                                                                  #  01001                           VELOCITY(XXXX.X METERS/SEC) USE ARITHDP2
002592:                                                                                                  #  01010                           TIME HOURS(XXX.XX)WEEKS INSIDE(ARITHDP2)
002593:                                                                                                  #  01011                           ELEVATION DEGREES(89.999MAX) USE ARITH
002594:                                                                                                  #  END OF SF CONSTANT CODE NUMBERS
002595:
002596:
002597:
002598:                                                                                                  #  FOR GREATER THAN SINGLE PRECISION SCALES, PUT ADDRESS OF MAJOR PART INTO
002599:                                                                                                  #  NOUN TABLES.


002601:                                                                                                  #  OCTAL LOADS PLACE +0 INTO MAJOR PART, DATA INTO MINOR PART.
002602:                                                                                                  #  OCTAL DISPLAYS SHOW MINOR PART ONLY.
002603:                                                                                                  #  TO GET AT BOTH MAJOR AND MINOR PARTS (IN OCTAL), USE NOUN 01.
002604:


002606:                                                                                                  #  THE FOLLOWING ROUTINES ARE FOR READING THE NOUN TABLES AND THE SF TABLES
002607:                                                                                                  #  (WHICH ARE IN A SEPARATE BANK FROM THE REST OF PINBALL). THESE READING
002608:                                                                                                  #  ROUTINES ARE IN THE SAME BANK AS THE TABLES. THEY ARE CALLED BY DXCH Z.
002609:
002610:
002611:
002612:                                                                                                  #  LODNNTAB LOADS NNADTEM WITH THE NNADTAB ENTRY, NNTYPTEM WITH THE
002613:                                                                                                  #  NNTYPTAB ENTRY. IF THE NOUN IS MIXED, IDAD1TEM IS LOADED WITH THE FIRST
002614:                                                                                                  #  IDADDTAB ENTRY, IDAD2TEM THE SECOND IDADDTAB ENTRY, IDAD3TEM THE THIRD
002615:                                                                                                  #  IDADDTAB ENTRY, RUTMXTEM WITH THE RUTMXTAB ENTRY. MIXBR IS SET FOR
002616:                                                                                                  #  MIXED OR NORMAL NOUN.
002617:
002618: 06,2000                                           SETLOC   24000
002619:
002620: 06,2000           52136        LODNNTAB           DXCH     IDAD2TEM                              #  SAVE RETURN INFO IN IDAD2TEM, IDAD3TEM.
002621: 06,2001           50642                           INDEX    NOUNREG
002622: 06,2002           32052                           CAF      NNADTAB
002623: 06,2003           54132                           TS       NNADTEM
002624: 06,2004           50642                           INDEX    NOUNREG
002625: 06,2005           32152                           CAF      NNTYPTAB
002626: 06,2006           54133                           TS       NNTYPTEM
002627: 06,2007           40642                           CS       NOUNREG
002628: 06,2010           62036                           AD       MIXCON
002629: 06,2011           00006                           EXTEND
002630: 06,2012           62016                           BZMF     LODMIXNN                              #  NOUN NUMBER G/E FIRST MIXED NOUN
002631: 06,2013           37646                           CAF      ONE                                   #  NOUN NUMBER L/ FIRST MIXED NOUN
002632: 06,2014           54124                           TS       MIXBR                                 #  NORMAL.  +1 INTO MIXBR.
002633: 06,2015           02034                           TC       LODNLV
002634: 06,2016           37645        LODMIXNN           CAF      TWO                                   #  MIXED.  +2 INTO MIXBR.
002635: 06,2017           54124                           TS       MIXBR
002636: 06,2020           50642                           INDEX    NOUNREG
002637: 06,2021           32345                           CAF      RUTMXTAB   -55
002638: 06,2022           54137                           TS       RUTMXTEM
002639: 06,2023           36425                           CAF      LOW10
002640: 06,2024           70132                           MASK     NNADTEM
002641: 06,2025           54002                           TS       Q                                     #  TEMP
002642: 06,2026           50000                           INDEX    A
002643: 06,2027           32332                           CAF      IDADDTAB
002644: 06,2030           54134                           TS       IDAD1TEM                              #  LOAD IDAD1TEM WITH FIRST IDADDTAB ENTRY
002645: 06,2031           00006                           EXTEND
002646: 06,2032           50002                           INDEX    Q                                     #  LOAD IDAD2TEM WITH 2ND IDADDTAB ENTRY
002647: 06,2033           32334                           DCA      IDADDTAB   +1                         #  LOAD IDAD3TEM WITH 3RD IDADDTAB ENTRY.
002648: 06,2034           52136        LODNLV             DXCH     IDAD2TEM                              #  PUT RETURN INFO INTO A, L.
002649: 06,2035           52006                           DXCH     Z
002650:
002651: 06,2036           00055        MIXCON             OCT      55                                    #  FIRST MIXED NOUN = 55.
002652:
002653:
002654:
002655:                                                                                                  #  GTSFOUT LOADS SFTEMP1, SFTEMP2 WITH THE DP SFOUTAB ENTRIES.
002656:


002658: 06,2037           52110        GTSFOUT            DXCH     SFTEMP1                               #  2X(SFCONUM) ARRIVES IN SFTEMP1.
002659: 06,2040           00006                           EXTEND
002660: 06,2041           50000                           INDEX    A
002661: 06,2042           32303                           DCA      SFOUTAB
002662: 06,2043           52110        SFCOM              DXCH     SFTEMP1
002663: 06,2044           52006                           DXCH     Z
002664:
002665:
002666:
002667:                                                                                                  #  GTSFIN LOADS SFTEMP1, SFTEMP2 WITH THE DP SFINTAB ENTRIES.
002668:
002669: 06,2045           52110        GTSFIN             DXCH     SFTEMP1                               #  2X(SFCONUM) ARRIVES IN SFTEMP1.
002670: 06,2046           00006                           EXTEND
002671: 06,2047           50000                           INDEX    A
002672: 06,2050           32253                           DCA      SFINTAB
002673: 06,2051           12043                           TCF      SFCOM
002674:
002675:
002676:                                                                                                  #  NN  NORMAL NOUNS
002677: 06,2052           00000        NNADTAB            OCT      00000                                 #  00 NOT IN USE
002678: 06,2053           40000                           OCT      40000                                 #  01 SPECIFY MACHINE ADDRESS (FRACTIONAL)
002679: 06,2054           40000                           OCT      40000                                 #  02 SPECIFY MACHINE ADDRESS (WHOLE)
002680: 06,2055           40000                           OCT      40000                                 #  03 SPECIFY MACHINE ADDRESS (DEGREES)
002681: 06,2056           40000                           OCT      40000                                 #  04 SPECIFY MACHINE ADDRESS (HOURS)
002682: 06,2057           40000                           OCT      40000                                 #  05 SPECIFY MACHINE ADDRESS (SECONDS)
002683: 06,2060           40000                           OCT      40000                                 #  06 SPECIFY MACHINE ADDRESS (GYRO DEG)
002684: 06,2061           40000                           OCT      40000                                 #  07 SPECIFY MACHINE ADDRESS (Y OPT DEG.)
002685: 06,2062           77776                           OCT      77776                                 #  10 CHANNEL TO BE SPECIFIED
002686: 06,2063           00000                           OCT      00000                                 #  11 SPARE
002687: 06,2064           00000                           OCT      00000                                 #  12 SPARE
002688: 06,2065           00000                           OCT      00000                                 #  13 SPARE
002689: 06,2066           00000                           OCT      00000                                 #  14 SPARE
002690: 06,2067           77777                           OCT      77777                                 #  15 INCREMENT MACHINE ADDRESS
002691: 06,2070           00024                           ECADR    TIME2                                 #  16 TIME SECONDS
002692: 06,2071           00024                           ECADR    TIME2                                 #  17 TIME HOURS
002693: 06,2072           00032                           ECADR    CDUX                                  #  20 ICDU
002694: 06,2073           00037                           ECADR    PIPAX                                 #  21 PIPAS
002695: 06,2074           00716                           ECADR    THETAD                                #  22 NEW ANGLES I
002696: 06,2075           00711                           ECADR    DSPTEM2                               #  23 DELTA ANGLES I
002697: 06,2076           00706                           ECADR    DSPTEM1                               #  24 DELTA TIME (SEC)
002698: 06,2077           00706                           ECADR    DSPTEM1                               #  25 CHECKLIST
002699: 06,2100           00706                           ECADR    DSPTEM1                               #  26 PRIO/DELAY, ADRES, BBCON
002700: 06,2101           01050                           ECADR    SMODE                                 #  27 SELF TEST ON/OFF SWITCH
002701: 06,2102           00706                           ECADR    DSPTEM1                               #  30 STAR NUMBERS
002702: 06,2103           00721                           ECADR    FAILREG                               #  31 FAILREG
002703: 06,2104           00722                           ECADR    TDEC                                  #  32 DECISION TIME (MIDCOURSE)
002704: 06,2105           00724                           ECADR    TET                                   #  33 EPHEMERIS TIME (MIDCOURSE)
002705: 06,2106           00726                           ECADR    MEASQ                                 #  34 MEASURED QUANTITY (MIDCOURSE)
002706: 06,2107           00730                           ECADR    ROLL                                  #  35 ROLL, PITCH, YAW


002708: 06,2110           00733                           ECADR    LANDMARK                              #  36 LANDMARK DATA 1
002709: 06,2111           00736                           ECADR    LANDMARK   +3                         #  37 LANDMARK DATA 2
002710: 06,2112           00000                           OCT      00000                                 #  40 SPARE
002711: 06,2113           00000                           OCT      00000                                 #  41 SPARE
002712: 06,2114           00000                           OCT      00000                                 #  42 SPARE
002713: 06,2115           00000                           OCT      00000                                 #  43 SPARE
002714: 06,2116           00000                           OCT      00000                                 #  44 SPARE
002715: 06,2117           00000                           OCT      00000                                 #  45 SPARE
002716: 06,2120           00000                           OCT      00000                                 #  46 SPARE
002717: 06,2121           00000                           OCT      00000                                 #  47 SPARE
002718: 06,2122           00000                           OCT      00000                                 #  50 SPARE
002719: 06,2123           00000                           OCT      00000                                 #  51 SPARE
002720: 06,2124           00741                           ECADR    GBIASX                                #  52 GYRO BIAS DRIFT
002721: 06,2125           00744                           ECADR    ADIAX                                 #  53 GYRO INPUT AXIS ACCELERATION DRIFT
002722: 06,2126           00747                           ECADR    ADSRAX                                #  54 GYRO SPIN AXIS ACCELERATION DRIFT
002723:
002724:                                                                                                  #  NN  MIXED NOUNS
002725: 06,2127           02000                           OCT      02000                                 #  55 OCDU
002726: 06,2130           04002                           OCT      04002                                 #  56 UNCALLED MARK DATA (OCDU & TIME(SEC))
002727: 06,2131           02005                           OCT      02005                                 #  57 NEW ANGLES OCDU
002728: 06,2132           04007                           OCT      04007                                 #  60 IMU MODE STATUS
002729: 06,2133           02012                           OCT      02012                                 #  61 TARGET AZIMUTH AND ELEVATION
002730: 06,2134           02014                           OCT      02014                                 #  62 ICDUZ AND TIME(SEC)
002731: 06,2135           02016                           OCT      02016                                 #  63 OCDUX AND TIME(SEC)
002732: 06,2136           02020                           OCT      02020                                 #  64 OCDUY AND TIME(SEC)
002733: 06,2137           02022                           OCT      02022                                 #  65 SAMPLED TIME (HOURS AND SECONDS)
002734:                                                                                                  #       (FETCHED IN INTERRUPT)
002735: 06,2140           04024                           OCT      04024                                 #  66 SYSTEM TEST RESULTS
002736: 06,2141           04027                           OCT      04027                                 #  67 DELTA GYRO ANGLES
002737: 06,2142           04032                           OCT      04032                                 #  70 PIPA BIAS
002738: 06,2143           04035                           OCT      04035                                 #  71 PIPA SCALE FACTOR ERROR
002739: 06,2144           04040                           OCT      04040                                 #  72 DELTA POSITION
002740: 06,2145           04043                           OCT      04043                                 #  73 DELTA VELOCITY
002741: 06,2146           04046                           OCT      04046                                 #  74 MEASUREMENT DATA (MIDCOURSE)
002742: 06,2147           04051                           OCT      04051                                 #  75 MEASUREMENT DEVIATIONS (MIDCOURSE)
002743: 06,2150           04054                           OCT      04054                                 #  76 POSITION VECTOR
002744: 06,2151           04057                           OCT      04057                                 #  77 VELOCITY VECTOR
002745:
002746:
002747:
002748:                                                                                                  #  NN        NORMAL NOUNS
002749: 06,2152           00000        NNTYPTAB           OCT      00000                                 #  00 NOT IN USE
002750: 06,2153           00040                           OCT      00040                                 #  01 1COMP  FRACTIONAL
002751: 06,2154           00140                           OCT      00140                                 #  02 1COMP  WHOLE
002752: 06,2155           00102                           OCT      00102                                 #  03 1COMP  DEGREES
002753: 06,2156           00241                           OCT      00241                                 #  04 1COMP  HOURS
002754: 06,2157           00200                           OCT      00200                                 #  05 1COMP  SECONDS
002755: 06,2160           00203                           OCT      00203                                 #  06 1COMP  GYRO DEGREES
002756: 06,2161           00302                           OCT      00302                                 #  07 1COMP  Y OPT DEGREES
002757: 06,2162           00000                           OCT      00000                                 #  10 1COMP  OCTAL ONLY


002759: 06,2163           00000                           OCT      00000                                 #  11        SPARE
002760: 06,2164           00000                           OCT      00000                                 #  12        SPARE
002761: 06,2165           00000                           OCT      00000                                 #  13        SPARE
002762: 06,2166           00000                           OCT      00000                                 #  14        SPARE
002763: 06,2167           00000                           OCT      00000                                 #  15 1COMP  OCTAL ONLY
002764: 06,2170           00200                           OCT      00200                                 #  16 1COMP  SECONDS
002765: 06,2171           00241                           OCT      00241                                 #  17 1COMP  HOURS
002766: 06,2172           04102                           OCT      04102                                 #  20 3COMP  DEGREES
002767: 06,2173           04140                           OCT      04140                                 #  21 3COMP  WHOLE
002768: 06,2174           04102                           OCT      04102                                 #  22 3COMP  DEGREES
002769: 06,2175           04102                           OCT      04102                                 #  23 3COMP  DEGREES
002770: 06,2176           00200                           OCT      00200                                 #  24 1COMP  SECONDS
002771: 06,2177           00140                           OCT      00140                                 #  25 1COMP  WHOLE
002772: 06,2200           04000                           OCT      04000                                 #  26 3COMP  OCTAL ONLY
002773: 06,2201           00140                           OCT      00140                                 #  27 1COMP  WHOLE
002774: 06,2202           04140                           OCT      04140                                 #  30 3COMP  WHOLE
002775: 06,2203           02000                           OCT      02000                                 #  31 3COMP  OCTAL ONLY
002776: 06,2204           00252                           OCT      00252                                 #  32 1COMP  TIME WEEKS
002777: 06,2205           00252                           OCT      00252                                 #  33 1COMP  TIME WEEKS
002778: 06,2206           00350                           OCT      00350                                 #  34 1COMP  POSITION
002779: 06,2207           04102                           OCT      04102                                 #  35 3COMP  DEGREES
002780: 06,2210           04000                           OCT      04000                                 #  36 3COMP  OCTAL ONLY
002781: 06,2211           04000                           OCT      04000                                 #  37 3COMP  OCTAL ONLY
002782: 06,2212           00000                           OCT      00000                                 #  40        SPARE
002783: 06,2213           00000                           OCT      00000                                 #  41        SPARE
002784: 06,2214           00000                           OCT      00000                                 #  42        SPARE
002785: 06,2215           00000                           OCT      00000                                 #  43        SPARE
002786: 06,2216           00000                           OCT      00000                                 #  44        SPARE
002787: 06,2217           00000                           OCT      00000                                 #  45        SPARE
002788: 06,2220           00000                           OCT      00000                                 #  46        SPARE
002789: 06,2221           00000                           OCT      00000                                 #  47        SPARE
002790: 06,2222           00000                           OCT      00000                                 #  50        SPARE
002791: 06,2223           00000                           OCT      00000                                 #  51        SPARE
002792: 06,2224           04144                           OCT      04144                                 #  52 3COMP  GYRO BIAS DRIFT
002793: 06,2225           04145                           OCT      04145                                 #  53 3COMP  GYRO AXIS ACCEL. DRIFT
002794: 06,2226           04145                           OCT      04145                                 #  54 3COMP  GYRO AXIS ACCEL. DRIFT
002795:
002796:                                                                                                  #  NN        MIXED NOUNS
002797: 06,2227           00102                           OCT      00102                                 #  55 2COMP  DEGREES, Y OPT DEGREES
002798: 06,2230           00102                           OCT      00102                                 #  56 3COMP  DEGREES, Y OPT DEGREES, SECS
002799: 06,2231           00102                           OCT      00102                                 #  57 2COMP  DEGREES, Y OPT DEGREES
002800: 06,2232           00000                           OCT      00000                                 #  60 3COMP  OCTAL ONLY
002801: 06,2233           00542                           OCT      00542                                 #  61 2COMP  DEGREES, ELEVATION DEGREES
002802: 06,2234           00002                           OCT      00002                                 #  62 2COMP  DEGREES, SECS
002803: 06,2235           00002                           OCT      00002                                 #  63 2COMP  DEGREES, SECS
002804: 06,2236           00002                           OCT      00002                                 #  64 2COMP  Y OPT DEGREES, SECS
002805: 06,2237           00001                           OCT      00001                                 #  65 2COMP  HOURS, SECONDS
002806: 06,2240           00000                           OCT      00000                                 #  66 3COMP  WHOLE, FRACTIONAL, WHOLE
002807: 06,2241           06143                           OCT      06143                                 #  67 3COMP  GYRO DEGREES FOR EACH
002808: 06,2242           14306                           OCT      14306                                 #  70 3COMP  PIPA BIAS FOR EACH


002810: 06,2243           16347                           OCT      16347                                 #  71 3COMP  PIPA SCALE FACTOR ERR.FOR EACH
002811: 06,2244           20410                           OCT      20410                                 #  72 3COMP  POSITION FOR EACH
002812: 06,2245           22451                           OCT      22451                                 #  73 3COMP  VELOCITY FOR EACH
002813: 06,2246           00412                           OCT      00412                                 #  74 3COMP  TIME WEEKS, POSITION, WHOLE
002814: 06,2247           20450                           OCT      20450                                 #  75 3COMP  POSITION, VELOCITY, POSITION
002815: 06,2250           20410                           OCT      20410                                 #  76 3COMP  POSITION FOR EACH
002816: 06,2251           22451                           OCT      22451                                 #  77 3COMP  VELOCITY FOR EACH
002817:
002818:
002819:
002820: 06,2252           00006        SFINTAB            OCT      00006                                 #  WHOLE,TIME(SEC)
002821: 06,2253           03240                           OCT      03240
002822: 06,2254           00253                           OCT      00253                                 #  TIME HOURS ( = 1.3..... )
002823: 06,2255           25124                           OCT      25124                                 #    (POINT BETWEEN BITS 7-8 )
002824: 06,2256           00000                           OCT      0                                     #  DEGREES (SFCON IN DEGINSF)
002825: 06,2257           00000                           OCT      0
002826: 06,2260           00021                           OCT      00021                                 #  GYRO DEGREES
002827: 06,2261           30707                           OCT      30707
002828: 06,2262           00001                           OCT      00001                                 #  GYRO BIAS DRIFT
002829: 06,2263           02133                           OCT      02133
002830: 06,2264           00011                           OCT      00011                                 #  GYRO AXIS ACCEL. DRIFT
002831: 06,2265           30322                           OCT      30322
002832: 06,2266           00004                           OCT      00004                                 #  PIPA BIAS
002833: 06,2267           14021                           OCT      14021
002834: 06,2270           00314                           OCT      00314                                 #  PIPA SCALE ERROR.
002835: 06,2271           31463                           OCT      31463
002836: 06,2272           23420                           OCT      23420                                 #  POSITION
002837: 06,2273           00000                           OCT      00000
002838: 06,2274           00201                           OCT      00201                                 #  VELOCITY
002839: 06,2275           30327                           OCT      30327                                 #  ( POINT BETWEEN BITS 7-8 )
002840: 06,2276           01371                           OCT      01371                                 #  TIME WEEKS
002841: 06,2277           34750                           OCT      34750                                 #  ( POINT BETWEEN BITS 7-8 )
002842: 06,2300           00001                           OCT      00001                                 #  ELEVATION DEGREES
002843: 06,2301           03434                           OCT      03434
002844:                                                                                                  #  END OF SFINTAB
002845:
002846:
002847:
002848: 06,2302           05174        SFOUTAB            OCT      05174                                 #  WHOLE, TIME(SEC)
002849: 06,2303           13261                           OCT      13261
002850: 06,2304           27670                           OCT      27670                                 #  TIME HOURS
002851: 06,2305           31357                           OCT      31357
002852: 06,2306           00000                           OCT      0                                     #  DEGREES
002853: 06,2307           00000                           OCT      0
002854: 06,2310           01631                           OCT      01631                                 #  GYRO DEGREES
002855: 06,2311           23146                           OCT      23146
002856: 06,2312           35753                           OCT      35753                                 #  GYRO BIAS DRIFT
002857: 06,2313           32323                           OCT      32323
002858: 06,2314           03216                           OCT      03216                                 #  GYRO AXIS ACCEL. DRIFT
002859: 06,2315           06400                           OCT      06400


002861: 06,2316           07237                           OCT      07237                                 #  PIPA BIAS
002862: 06,2317           37776                           OCT      37776
002863: 06,2320           00120                           OCT      00120                                 #  PIPA SCALE ERROR
002864: 06,2321           00000                           OCT      00000
002865: 06,2322           00321                           OCT      00321                                 #  POSITION
002866: 06,2323           26706                           OCT      26706                                 #  ( POINT BETWEEN BITS 7-8 )
002867: 06,2324           37441                           OCT      37441                                 #  VELOCITY
002868: 06,2325           14247                           OCT      14247
002869: 06,2326           05300                           OCT      05300                                 #  TIME WEEKS
002870: 06,2327           20305                           OCT      20305
002871: 06,2330           34631                           OCT      34631                                 #  ELEVATION DEGREES
002872: 06,2331           23146                           OCT      23146
002873:                                                                                                  #  END OF SFOUTAB
002874:
002875:
002876:
002877:                                                                                                  #  MIXNOUN  SF ROUT
002878: 06,2332           00036        IDADDTAB           ECADR    OPTX                                  #  01       DEGREES
002879: 06,2333           00035                           ECADR    OPTY                                  #  01       Y OPT DEGREES
002880: 06,2334           00706                           ECADR    DSPTEM1                               #  02       DEGREES
002881: 06,2335           00707                           ECADR    DSPTEM1    +1                         #  02       Y OPT DEGREES
002882: 06,2336           00710                           ECADR    DSPTEM1    +2                         #  02       SEC
002883: 06,2337           00752                           ECADR    DESOPTX                               #  03       DEGREES
002884: 06,2340           00753                           ECADR    DESOPTX    +1                         #  03       Y OPT DEGREES
002885: 06,2341           01017                           ECADR    WASKSET                               #  04       OCTAL ONLY****CHANGE TO IN3****
002886: 06,2342           01017                           ECADR    WASKSET                               #  04       OCTAL ONLY
002887: 06,2343           01021                           ECADR    OLDERR                                #  04       OCTAL ONLY
002888: 06,2344           00706                           ECADR    DSPTEM1                               #  05       DEGREES
002889: 06,2345           00707                           ECADR    DSPTEM1    +1                         #  05       ELEVATION DEGREES
002890: 06,2346           00034                           ECADR    CDUZ                                  #  06       DEGREES
002891: 06,2347           00024                           ECADR    TIME2                                 #  06       SEC
002892: 06,2350           00036                           ECADR    OPTX                                  #  07       DEGREES
002893: 06,2351           00024                           ECADR    TIME2                                 #  07       SEC
002894: 06,2352           00035                           ECADR    OPTY                                  #  10       Y OPT DEGREES
002895: 06,2353           00024                           ECADR    TIME2                                 #  10       SEC
002896: 06,2354           00754                           ECADR    SAMPTIME                              #  11       HOURS
002897: 06,2355           00754                           ECADR    SAMPTIME                              #  11       SECONDS
002898: 06,2356           00711                           ECADR    DSPTEM2                               #  12       WHOLE
002899: 06,2357           00712                           ECADR    DSPTEM2    +1                         #  12       FRACTIONAL
002900: 06,2360           00713                           ECADR    DSPTEM2    +2                         #  12       WHOLE
002901: 06,2361           00756                           ECADR    DELVX                                 #  13       GYRO DEGREES
002902: 06,2362           00760                           ECADR    DELVX      +2                         #  13       GYRO DEGREES
002903: 06,2363           00762                           ECADR    DELVX      +4                         #  13       GYRO DEGREES
002904: 06,2364           00764                           ECADR    PBIASX                                #  14       PIPA BIAS
002905: 06,2365           00766                           ECADR    PBIASY                                #  14       PIPA BIAS
002906: 06,2366           00770                           ECADR    PBIASZ                                #  14       PIPA BIAS
002907: 06,2367           00765                           ECADR    PIPASCFX                              #  15       PIPA SCALE FACTOR ERROR
002908: 06,2370           00767                           ECADR    PIPASCFY                              #  15       PIPA SCALE FACTOR ERROR
002909: 06,2371           00771                           ECADR    PIPASCFZ                              #  15       PIPA SCALE FACTOR ERROR
002910: 06,2372           01000                           ECADR    DELR                                  #  16       POSITION


002912: 06,2373           01002                           ECADR    DELR       +2                         #  16       POSITION
002913: 06,2374           01004                           ECADR    DELR       +4                         #  16       POSITION
002914: 06,2375           01006                           ECADR    DELVEL                                #  17       VELOCITY
002915: 06,2376           01010                           ECADR    DELVEL     +2                         #  17       VELOCITY
002916: 06,2377           01012                           ECADR    DELVEL     +4                         #  17       VELOCITY
002917: 06,2400           00722                           ECADR    TDEC                                  #  20       TIME WEEKS
002918: 06,2401           00726                           ECADR    MEASQ                                 #  20       POSITION
002919: 06,2402           01014                           ECADR    MEASMODE                              #  20       WHOLE
002920: 06,2403           00706                           ECADR    DSPTEM1                               #  21       POSITION
002921: 06,2404           00710                           ECADR    DSPTEM1    +2                         #  21       VELOCITY
002922: 06,2405           01015                           ECADR    DELTAQ                                #  21       POSITION
002923: 06,2406           00706                           ECADR    DSPTEM1                               #  22       POSITION
002924: 06,2407           00710                           ECADR    DSPTEM1    +2                         #  22       POSITION
002925: 06,2410           00712                           ECADR    DSPTEM1    +4                         #  22       POSITION
002926: 06,2411           00706                           ECADR    DSPTEM1                               #  23       VELOCITY
002927: 06,2412           00710                           ECADR    DSPTEM1    +2                         #  23       VELOCITY
002928: 06,2413           00712                           ECADR    DSPTEM1    +4                         #  23       VELOCITY
002929: 06,2414           00000                           OCT      00000                                 #           SPARE
002930: 06,2415           00000                           OCT      00000                                 #           SPARE
002931: 06,2416           00000                           OCT      00000                                 #           SPARE
002932: 06,2417           00000                           OCT      00000                                 #           SPARE
002933: 06,2420           00000                           OCT      00000                                 #           SPARE
002934: 06,2421           00000                           OCT      00000                                 #           SPARE
002935:                                                                                                  #  END OF IDADDTAB
002936:
002937:
002938:
002939:                                                                                                  #  MIXNOUN  SF ROUT
002940: 06,2422           00302        RUTMXTAB           OCT      00302                                 #  01  DEGREES, Y OPT DEGREES
002941: 06,2423           10302                           OCT      10302                                 #  02  DEGREES, Y OPT DEGREES, SECONDS
002942: 06,2424           00302                           OCT      00302                                 #  03  DEGREES, Y OPT DEGREES
002943: 06,2425           00000                           OCT      00000                                 #  04  OCTAL ONLY
002944: 06,2426           00142                           OCT      00142                                 #  05  DEGREES, ELEVATION DEGREES
002945: 06,2427           00202                           OCT      00202                                 #  06  DEGREES, SECONDS
002946: 06,2430           00202                           OCT      00202                                 #  07  DEGREES, SECONDS
002947: 06,2431           00206                           OCT      00206                                 #  10  Y OPT DEGREES, SECONDS
002948: 06,2432           00205                           OCT      00205                                 #  11  HOURS, SECONDS
002949: 06,2433           06043                           OCT      06043                                 #  12  WHOLE, FRACTIONAL, WHOLE
002950: 06,2434           10204                           OCT      10204                                 #  13  GYRO DEGREES (FOR EACH)
002951: 06,2435           06143                           OCT      06143                                 #  14  PIPA BIAS (FOR EACH)
002952: 06,2436           06143                           OCT      06143                                 #  15  PIPA SCALE FACTOR ERROR (FOR EACH)
002953: 06,2437           16347                           OCT      16347                                 #  16  POSITION (FOR EACH)
002954: 06,2440           12245                           OCT      12245                                 #  17  VELOCITY (FOR EACH)
002955: 06,2441           06345                           OCT      06345                                 #  20  TIME WEEKS, POSITION, WHOLE
002956: 06,2442           16247                           OCT      16247                                 #  21  POSITION, VELOCITY, POSITION
002957: 06,2443           16347                           OCT      16347                                 #  22  POSITION (FOR EACH)
002958: 06,2444           12245                           OCT      12245                                 #  23  VELOCITY (FOR EACH)
002959:                                                                                                  #  END OF RUTMXTAB
002960:


002962:                                                                                                  #  MISCELLANEOUS SERVICE ROUTINES IN FIXED/FIXED
002963:
002964:
002965:
002966:    4430                                           SETLOC   DATWAIT1   +2
002967:
002968:                                                                                                  #  SETNCADR      E CADR ARRIVES IN A. IT IS STORED IN NOUNCADR. EBANK BITS
002969:                                                                                                  #                ARE SET. E ADRES IS DERIVED AND PUT INTO NOUNADD.
002970:
002971:    4430           54657        SETNCADR           TS       NOUNCADR                              #  STORE ECADR
002972:    4431           54003                           TS       EBANK                                 #  SET EBANK BITS
002973:    4432           74504                           MASK     LOW8
002974:    4433           64505                           AD       OCT1400
002975:    4434           54131                           TS       NOUNADD                               #  PUT E ADRES INTO NOUNADD
002976:    4435           00002                           TC       Q
002977:
002978:
002979:
002980:                                                                                                  #  SETNADD       GETS E CADR FROM NOUNCADR, SETS EBANK BITS, DERIVES
002981:                                                                                                  #                E ADRES AND PUTS IT INTO NOUNADD.
002982:
002983:    4436           30657        SETNADD            CA       NOUNCADR
002984:    4437           14431                           TCF      SETNCADR   +1
002985:
002986:
002987:
002988:                                                                                                  #  SETEBANK      E CADR ARRIVES IN A. EBANK BITS ARE SET. E ADRES IS
002989:                                                                                                  #                DERIVED AND LEFT IN A.
002990:
002991:    4440           54003        SETEBANK           TS       EBANK                                 #  SET EBANK BITS
002992:    4441           74504                           MASK     LOW8
002993:    4442           64505                           AD       OCT1400                               #  E ADRES LEFT IN A
002994:    4443           00002                           TC       Q
002995:
002996:
002997:
002998:    4444           00016        R1D1               OCT      16
002999:    4445           00011        R2D1               OCT      11
003000:    4446           00004        R3D1               OCT      4
003001:
003002:    4447           54020        RIGHT5             TS       CYR
003003:    4450           40020                           CS       CYR
003004:    4451           40020                           CS       CYR
003005:    4452           40020                           CS       CYR
003006:    4453           40020                           CS       CYR
003007:    4454           56020                           XCH      CYR
003008:    4455           00002                           TC       Q
003009:
003010:    4456           54022        LEFT5              TS       CYL
003011:    4457           40022                           CS       CYL


003013:    4460           40022                           CS       CYL
003014:    4461           40022                           CS       CYL
003015:    4462           40022                           CS       CYL
003016:    4463           56022                           XCH      CYL
003017:    4464           00002                           TC       Q
003018:
003019:    4465           60000        SLEFT5             DOUBLE
003020:    4466           60000                           DOUBLE
003021:    4467           60000                           DOUBLE
003022:    4470           60000                           DOUBLE
003023:    4471           60000                           DOUBLE
003024:    4472           00002                           TC       Q
003025:
003026:
003027:
003028:    4473           00037        LOW5               OCT      37
003029:    4474           01740        MID5               OCT      1740
003030:    4475           76000        HI5                OCT      76000                                 #  MUST STAY HERE
003031:
003032:    4476           04131        TCNOVAC            TC       NOVAC
003033:    4477           04251        TCWAIT             TC       WAITLIST
003034:    4500           04321        TCTSKOVR           TC       TASKOVER
003035:    4501           04142        TCFINDVC           TC       FINDVAC
003036:
003037:
003038:
003039:    4502           30000        CHRPRIO            OCT      30000                                 #  EXEC PRIORITY OF CHARIN
003040:
003041:
003042:
003043:    4503           03777        LOW11              OCT      3777
003044:    4504           00377        LOW8               OCT      377
003045:    4505           01400        OCT1400            OCT      1400
003046:
003047:
003048:
003049:    4506           00023        VD1                OCT      23
003050:    4507           00021        ND1                OCT      21
003051:    4510           00025        MD1                OCT      25
003052:
003053:    4511           00012        BINCON             DEC      10         B-14
003054:
003055:    4512           37640        FALTON             CA       BIT7                                  #  TURN ON OPERATOR ERROR LIGHT
003056:    4513           00006                           EXTEND
003057:    4514           05011                           WOR      DSALMOUT                              #  BIT 7 OF CHANNEL 11
003058:    4515           00002                           TC       Q
003059:
003060:    4516           47640        FALTOF             CS       BIT7                                  #  TURN OFF OPERATOR ERROR LIGHT
003061:    4517           00006                           EXTEND
003062:    4520           03011                           WAND     DSALMOUT                              #  BIT 7 OF CHANNEL 11


003064:    4521           00002                           TC       Q
003065:
003066:    4522           37642        RELDSPON           CAF      BIT5                                  #  TURN ON KEY RELEASE LIGHT
003067:    4523           00006                           EXTEND
003068:    4524           05011                           WOR      DSALMOUT                              #  BIT 5 OF CHANNEL 11
003069:    4525           00002                           TC       Q
003070:
003071:    4526           00006        LODSAMPT           EXTEND
003072:    4527           30025                           DCA      TIME2
003073:    4530           52755                           DXCH     SAMPTIME
003074:    4531           00002                           TC       Q
003075:
003076:
003077:
003078:    4532           00006        TPSL1              EXTEND                                         #  SHIFTS MPAC, +1, +2 LEFT 1
003079:    4533           30142                           DCA      MPAC       +1                         #  LEAVES OVFIND SET TO +/- 1 FOR OF/UF
003080:    4534           20142                           DAS      MPAC       +1
003081:    4535           60140                           AD       MPAC
003082:    4536           26140                           ADS      MPAC
003083:    4537           54007                           TS       7                                     #  TS A DOES NOT CHANGE A ON OF/UF.
003084:    4540           00002                           TC       Q                                     #  NO NET OF/UF
003085:    4541           54105                           TS       OVFIND                                #  OVFIND SET TO +/- 1 FOR OF/UF
003086:    4542           00002                           TC       Q
003087:
003088:
003089:
003090:    4543           37641        FLASHON            CAF      BIT6                                  #  TURN ON V/N FLASH
003091:    4544           00006                           EXTEND                                         #  BIT 6 OF CHANNEL 11
003092:    4545           05011                           WOR      DSALMOUT
003093:    4546           00002                           TC       Q
003094:
003095:
003096:
003097:    4547           47641        FLASHOFF           CS       BIT6                                  #  TURN OFF V/N FLASH
003098:    4550           00006                           EXTEND
003099:    4551           03011                           WAND     DSALMOUT                              #  BIT 6 OF CHANNEL 11
003100:    4552           00002                           TC       Q
003101:


003103:                                                                                                  #  INTERNAL ROUTINES THAT USE THE KEYBOARD AND DISPLAY SYSTEM(THRU
003104:                                                                                                  #  NVSUB) MUST  TC GRABDSP  BEFOREHAND , TO GRAB THE DISPLAY SYSTEM AND
003105:                                                                                                  #  MAKE IT BUSY TO OTHER INTERNAL USERS.
003106:
003107:                                                                                                  #        WHEN FINISHED , THERE MUST BE A TC FREEDSP , TO RELEASE THE
003108:                                                                                                  #  SYSTEM FOR OTHER INTERNAL USERS.
003109:
003110:                                                                                                  #        THE CALLING SEQUENCES ARE
003111:                                                                                                  #  L        TC     GRABDSP
003112:                                                                                                  #  L+1      RETURN HERE WHEN SYSTEM IS ALREADY GRABBED
003113:                                                                                                  #  L+2      RETURN HERE MEANS YOU HAVE IT
003114:
003115:                                                                                                  #  L        TC     NVSUB
003116:                                                                                                  #  L+1      RETURN HERE IF OPERATOR HAS INTERVENED
003117:                                                                                                  #  L+2      RETURN HERE AFTER EXECUTION
003118:
003119:
003120:
003121:                                                                                                  #        A ROUTINE CALLED GRABUSY IS PROVIDED (USE IS OPTIONAL) TO PUT YOUR
003122:                                                                                                  #  JOB TO SLEEP UNTIL  THE SYSTEM IS FREED BY THE JOB HOLDING IT.
003123:                                                                                                  #  GRABUSY CANNOT BE CALLED FROM E MEMORY, SINCE JOBSLEEP AND JOBWAKE
003124:                                                                                                  #  HANDLE ONLY FIXED MEMORY.
003125:                                                                                                  #  YOUR CADR IS PUT AT FIRST AVAILABLE SLOT IN A WAITING LIST (FIFO).
003126:
003127:                                                                                                  #        THE CALLING SEQUENCE IS
003128:                                                                                                  #           CAF    WAKEFCADR
003129:                                                                                                  #           TC     GRABUSY
003130:
003131:                                                                                                  #        A ROUTINE CALLED  NVSUBUSY IS PROVIDED (USE IS OPTIONAL)  TO PUT
003132:                                                                                                  #  YOUR JOB TO SLEEP UNTIL THE OPERATOR RELEASES IT.
003133:                                                                                                  #  NVSUBUSY CANNOT BE CALLED FROM E MEMORY, SINCE JOBSLEEP AND JOBWAKE
003134:                                                                                                  #  HANDLE ONLY FIXED MEMORY.
003135:                                                                                                  #                                              YOUR CADR IS PUT
003136:                                                                                                  #  ON TOP OF A WAITING LIST (FIFO). IT ALSO TURNS ON KEY RELEASE LIGHT.
003137:
003138:                                                                                                  #         THE CALLING SEQUENCE IS
003139:                                                                                                  #           CAF    WAKEFCADR
003140:                                                                                                  #           TC     NVSUBUSY
003141:
003142:
003143:                                                                                                  #  AFTER A TC FREEDSP, THE INTERNAL INTERLOCK IS KEPT BUSY FOR 10 SECONDS,
003144:                                                                                                  #  AFTER WHICH A CADR IS CALLED FROM THE LIST. THIS INSURES THAT ALL
003145:                                                                                                  #  DISPLAYS WAITING WILL BE VISIBLE.
003146:
003147:
003148:
003149:                                                                                                  #  GRABLOCK IS THE INTERNAL INTERLOCK FOR THE USE OF THE KEYBOARD
003150:                                                                                                  #  AND DISPLAY SYSTEM.
003151:                                                                                                  #  +0  FREE


003153:                                                                                                  #  +1  SOME INTERNAL ROUTINE HAS GRABBED DSP SYST
003154:                                                                                                  #  +2  SOME INTERNAL ROUTINE HAS GONE TO NVSUBUSY
003155:
003156:
003157:
003158:    4553           10677        GRABDSP            CCS      GRABLOCK
003159:    4554           00002                           TC       Q                                     #  ALREADY GRABBED, RETURN TO L+1
003160:    4555           37646                           CAF      ONE                                   #  NOT GRABBED, SET TO +1
003161:    4556           54677                           TS       GRABLOCK                              #  AND RETURN TO L+2
003162:    4557           50002                           INDEX    Q
003163:    4560           00001                           TC       1
003164:
003165:
003166:
003167:    4561           36425        PREGBSY            CAF      LOW10                                 #  SPECIAL ENTRANCE FOR ROUTINES IN FIXED
003168:    4562           70002                           MASK     Q                                     #  BANKS ONLY DESIRING THE FCADR OF
003169:    4563           60004                           AD       FBANK                                 #  1 + (LOC FROM WHICH TC PREGBSY WAS DONE)
003170:    4564           04102        GRABUSY            TC       POSTJUMP                              #  TO BE ENTERED.
003171:    4565           10000                           CADR     GRABUSYB
003172: 04,3432                                           SETLOC   DOPROC     +2
003173: 04,3432           54001        GRABUSY1           TS       L
003174: 04,3433           10677                           CCS      GRABLOCK
003175: 04,3434           03437                           TC       +3                                    #  STILL GRABBED
003176: 04,3435           30001                           CA       L                                     #  NOT GRABBED SO DO DIRECT CALL
003177: 04,3436           04105                           TC       BANKJUMP
003178: 04,3437           37645                           CAF      TWO
003179: 04,3440           54130                           TS       LSTPTR
003180: 04,3441           50130                           INDEX    LSTPTR                                #  SEARCH LIST FOR FIRST AVAILABLE SPACE
003181: 04,3442           10702                           CCS      DSPLIST                               #  FROM BOTTOM.
003182: 04,3443           03445                           TC       +2
003183: 04,3444           03450                           TC       PUTINLST                              #  SPACE FOUND
003184: 04,3445           10130                           CCS      LSTPTR                                #  DECREMENT POINTER
003185: 04,3446           03440                           TC       -6
003186: 04,3447           03514                           TC       LSTFULL
003187: 04,3450           30001        PUTINLST           CA       L
003188: 04,3451           50130                           INDEX    LSTPTR
003189: 04,3452           54702                           TS       DSPLIST
003190: 04,3453           04164                           TC       JOBSLEEP
003191:
003192:
003193:
003194:                                                                                                  #  GRABWAIT IS A SPECIAL ENTRANCE FOR ROUTINES IN FIXED BANKS ONLY. IF
003195:                                                                                                  #  SYSTEM IS NOT GRABBED, IT GRABS IT AND RETURNS TO L+1 ( L = LOC FROM
003196:                                                                                                  #  WHICH THE TC GRABWAIT WAS DONE). IF SYSTEM IS GRABBED, IT PUTS CALLING
003197:                                                                                                  #  JOB TO SLEEP WITH L+1 GOING INTO LIST FOR EVENTUAL WAKING UP WHEN
003198:                                                                                                  #  SYSTEM IS FREED.
003199:
003200:    4566                                           SETLOC   GRABUSY    +2
003201:    4566           10677        GRABWAIT           CCS      GRABLOCK
003202:    4567           14561                           TCF      PREGBSY                               #  GRABBED. PUT L+1 INTO LIST. GO TO SLEEP.


003204:    4570           37646                           CAF      ONE                                   #  NOT GRABBED. GRAB AND RETURN TO L+1.
003205:    4571           54677                           TS       GRABLOCK
003206:    4572           00002                           TC       Q
003207:
003208:
003209:
003210:    4573           44600        PRENVBSY           CS       2K+3                                  #  SPECIAL ENTRANCE FOR ROUTINES IN FIXED
003211:    4574           60002                           AD       Q                                     #  BANKS ONLY DESIRING THE FCADR OF(LOC
003212:    4575           60004                           AD       FBANK                                 #  FROM WHICH THE TC PRENVBSY WAS DONE) -2
003213:    4576           04102        NVSUBUSY           TC       POSTJUMP                              #  TO BE ENTERED.
003214:    4577           10001                           CADR     NVSUBSYB
003215:    4600           02003        2K+3               OCT      2003
003216:
003217: 04,3454                                           SETLOC   PUTINLST   +4
003218: 04,3454           54001        NVSUBSY1           TS       L
003219: 04,3455           10652                           CCS      DSPLOCK                               #  TEST IF REALLY LOCKED OUT
003220: 04,3456           03461                           TC       +3                                    #  STILL BUSY
003221: 04,3457           30001                           CA       L                                     #  DSPLOCK = +0 SO RETURN DIRECTLY
003222: 04,3460           04105                           TC       BANKJUMP
003223: 04,3461           37645                           CAF      TWO                                   #  SET FOR GRABBED STATE AND NVSUBUSY USE
003224: 04,3462           54677                           TS       GRABLOCK
003225: 04,3463           30001                           CA       L
003226: 04,3464           56704                           XCH      DSPLIST    +2                         #  ENTER CADR INTO FIRST POSITION OF LIST
003227: 04,3465           56703                           XCH      DSPLIST    +1                         #          (BOTTOM)
003228: 04,3466           56702                           XCH      DSPLIST
003229: 04,3467           10000                           CCS      A
003230: 04,3470           03514                           TC       LSTFULL
003231: 04,3471           03473                           TC       +2
003232: 04,3472           03514                           TC       LSTFULL
003233: 04,3473           04522                           TC       RELDSPON
003234: 04,3474           30001                           CA       L
003235: 04,3475           04164        ENDNVBSY           TC       JOBSLEEP
003236:
003237:
003238:
003239:                                                                                                  #  NVSBWAIT IS A SPECIAL ENTRANCE FOR ROUTINES IN FIXED BANKS ONLY. IF
003240:                                                                                                  #  SYSTEM IS NOT BUSY, IT EXECUTES V/N AND RETURNS TO L+1 (L= LOC FROM
003241:                                                                                                  #  WHICH THE TC NVSBWAIT WAS DONE). IF SYSTEM IS BUSY, IT PUTS CALLING JOB
003242:                                                                                                  #  TO SLEEP WITH L-1 GOING INTO LIST FOR EVENTUAL WAKING UP WHEN SYSTEM
003243:                                                                                                  #  IS NOT BUSY.
003244:
003245:    4601                                           SETLOC   NVSUBUSY   +3
003246:    4601           54107        NVSBWAIT           TS       NVTEMP
003247:    4602           10652                           CCS      DSPLOCK
003248:    4603           14606                           TCF      NVSBWT1                               #  BUSY
003249:    4604           30002                           CA       Q                                     #  FREE. NVSUB WILL SAVE L+1 FOR RETURN
003250:    4605           14363                           TCF      NVSUB      +5                         #  AFTER EXECUTION.
003251:    4606           24002        NVSBWT1            INCR     Q                                     #  L+2. PRENVBSY WILL PUT L-1 INTO LIST AND
003252:    4607           14573                           TCF      PRENVBSY                              #  GO TO SLEEP.
003253:


003255:    4610           56002        RELDSP             XCH      Q                                     #  SET DSPLOCK TO +0, TURN RELDSP LIGHT
003256:    4611           54130                           TS       RELRET                                #  OFF, SEARCH DSPLIST
003257:    4612           37655                           CAF      NEG1
003258:    4613           60677                           AD       GRABLOCK
003259:    4614           00006                           EXTEND                                         #  SEARCH LIST ONLY IF GRABLOCK = +2
003260:    4615           64623                           BZMF     RELDSP2                               #    (SOMEONE USED NVSUBUSY)
003261:    4616           04636                           TC       WKSEARCH
003262:    4617           04623                           TC       RELDSP2                               #  LIST EMPTY
003263:    4620           04170                           TC       JOBWAKE                               #  LIST NOT EMPTY
003264:    4621           37646                           CAF      ONE
003265:    4622           54677                           TS       GRABLOCK
003266:    4623           00004        RELDSP2            INHINT
003267:    4624           47642                           CS       BIT5                                  #  TURN OFF KEY RELEASE LIGHT
003268:    4625           00006                           EXTEND                                         #  (BIT 5 OF CHANNEL 11)
003269:    4626           03011                           WAND     DSALMOUT
003270:    4627           37653                           CAF      ZERO
003271:    4630           54652                           TS       DSPLOCK
003272:    4631           00003                           RELINT
003273:    4632           00130                           TC       RELRET
003274:    4633           56002        RELDSP1            XCH      Q                                     #  SET DSPLOCK TO +0, RELDSP LIGHT OFF.
003275:    4634           54130                           TS       RELRET                                #  NO LIST SEARCH
003276:    4635           04623                           TC       RELDSP2
003277:
003278:
003279:
003280:    4636           37653        WKSEARCH           CAF      ZERO                                  #  SEARCHES LIST. LEAVES RESULT IN A.
003281:    4637           56702                           XCH      DSPLIST                               #  IF EMPTY, RETURN TO L+1.
003282:    4640           56703                           XCH      DSPLIST    +1                         #  IF NOT EMPTY, INHINT AND RETURN TO L+2.
003283:    4641           56704                           XCH      DSPLIST    +2
003284:    4642           00006                           EXTEND
003285:    4643           14647                           BZF      +4                                    #  EMPTY
003286:    4644           00004                           INHINT                                         #  NOT EMPTY
003287:    4645           50002                           INDEX    Q                                     #  RETURN TO L+2
003288:    4646           00001                           TC       1
003289:    4647           00002                           TC       Q                                     #  RETURN TO L+1
003290:
003291:
003292:
003293:    4650           56002        FREEDSP            XCH      Q
003294:    4651           54130                           TS       FREERET
003295:    4652           00004                           INHINT
003296:    4653           34661                           CAF      SHOTIME
003297:    4654           04251                           TC       WAITLIST
003298:    4655     0637                                  EBANK=   DSPCOUNT
003299:    4655           03476 10001                     2CADR    FREEWAIT
003300:
003301:    4657           00003                           RELINT
003302:    4660           00130                           TC       FREERET
003303:
003304:    4661           01750        SHOTIME            OCT      1750
003305:


003307: 04,3476                                           SETLOC   ENDNVBSY   +1
003308:
003309: 04,3476           34502        FREEWAIT           CAF      CHRPRIO                               #  CALLED BY T3RUPT
003310: 04,3477           04131                           TC       NOVAC
003311: 04,3500     0637                                  EBANK=   DSPCOUNT
003312: 04,3500           03503 10001                     2CADR    FREDSPD0
003313:
003314: 04,3502           04321                           TC       TASKOVER
003315:
003316:
003317:
003318: 04,3503           04636        FREDSPD0           TC       WKSEARCH                              #  CALLED BY EXECUTIVE
003319: 04,3504           03512                           TC       LSTEMPTY                              #  LIST EMPTY
003320: 04,3505           04170                           TC       JOBWAKE                               #  LIST NOT EMPTY
003321: 04,3506           00003                           RELINT
003322: 04,3507           37646                           CAF      ONE                                   #  SET FOR GRABBED CONDITION
003323: 04,3510           54677                           TS       GRABLOCK
003324: 04,3511           04205                           TC       ENDOFJOB
003325: 04,3512           37653        LSTEMPTY           CAF      ZERO                                  #  SET FOR FREE CONDITION
003326: 04,3513           03510                           TC       -3
003327:
003328:
003329:
003330: 04,3514           04662        LSTFULL            TC       ABORT
003331: 04,3515           01206                           OCT      01206                                 #  PINBALL WAITING LINE FULL.
003332:
003333:    4662                                           SETLOC   SHOTIME    +1
003334:    4662           04662        ABORT              TC       ABORT                                 #  ****FIX LATER*****
003335:


003337:                                                                                                  #  VBTSTLTS TURNS ON ALL DISPLAY PANEL LIGHTS. AFTER 5 SEC, IT TURNS
003338:                                                                                                  #  OFF THE CAUTION AND STATUS LIGHTS.
003339:
003340: 05,3414                                           SETLOC   DSPMMEND   +1
003341:
003342: 05,3414           33453        VBTSTLTS           CAF      TSTCON1                               #  TURN ON UPLINK ACTIVITY, TEMP, KEY RLSE,
003343: 05,3415           00006                           EXTEND                                         #  V/N FLASH, OPERATOR ERROR.
003344: 05,3416           05011                           WOR      DSALMOUT
003345: 05,3417           33454                           CAF      TSTCON2                               #  TURN ON AUTO, HOLD, NO ATT, SPARE,
003346: 05,3420           54675                           TS       DSPTAB     +11D                       #  GIMBAL LOCK, SPARE, TRACKER, PROG ALM.
003347: 05,3421           37635                           CAF      BIT10                                 #  TURN ON TEST ALARM OUTBIT
003348: 05,3422           00006                           EXTEND
003349: 05,3423           05013                           WOR      CHAN13
003350: 05,3424           00004                           INHINT
003351: 05,3425           37650                           CAF      TEN
003352: 05,3426           54103        TSTLTS1            TS       ERCNT
003353: 05,3427           43451                           CS       FULLDSP
003354: 05,3430           50103                           INDEX    ERCNT
003355: 05,3431           54662                           TS       DSPTAB
003356: 05,3432           10103                           CCS      ERCNT
003357: 05,3433           03426                           TC       TSTLTS1
003358: 05,3434           43452                           CS       FULLDSP1
003359: 05,3435           54663                           TS       DSPTAB     +1                         #  TURN ON 3 PLUS SIGNS
003360: 05,3436           54666                           TS       DSPTAB     +4
003361: 05,3437           54670                           TS       DSPTAB     +6
003362: 05,3440           37647                           CAF      ELEVEN
003363: 05,3441           54656                           TS       NOUT
003364: 05,3442           00003                           RELINT
003365: 05,3443           33456                           CAF      SHOLTS
003366: 05,3444           00004                           INHINT
003367: 05,3445           04251                           TC       WAITLIST
003368: 05,3446     0662                                  EBANK=   DSPTAB
003369: 05,3446           03457 12001                     2CADR    TSTLTS2
003370:
003371: 05,3450           04205                           TC       ENDOFJOB                              #  DSPLOCK IS LEFT BUSY (FROM KEYBOARD
003372:                                                                                                  #  ACTION) UNTIL TSTLTS3 TO INSURE THAT
003373:                                                                                                  #  LIGHTS TEST WILL BE SEEN.
003374:
003375:
003376:
003377: 05,3451           05675        FULLDSP            OCT      05675                                 #  DISPLAY ALL 8:S
003378: 05,3452           07675        FULLDSP1           OCT      07675                                 #  DISPLAY ALL 8:S AND +
003379: 05,3453           00174        TSTCON1            OCT      00174                                 #  CHAN 11 BITS 3-7
003380:                                                                                                  #  UPLINK ACTIVITY, TEMP, KEY RLSE,
003381:                                                                                                  #  V/N FLASH, OPERATOR ERROR.
003382: 05,3454           40777        TSTCON2            OCT      40777                                 #  DSPTAB+11D BITS 1-9
003383:                                                                                                  #  AUTO, HOLD, FREE, NO ATT, SPARE,
003384:                                                                                                  #  GIMBAL LOCK, SPARE, TRACKER, PROG ALM.
003385: 05,3455           00114        TSTCON3            OCT      00114                                 #  CHAN 11  BITS 3,4,7
003386:                                                                                                  #  UPLINK ACTIVITY, TEMP, OPERATOR ERROR.


003388: 05,3456           00764        SHOLTS             OCT      764                                   #  5 SEC
003389:
003390:
003391:
003392: 05,3457           34502        TSTLTS2            CAF      CHRPRIO                               #  CALLED BY WAITLIST
003393: 05,3460           04131                           TC       NOVAC
003394: 05,3461     0662                                  EBANK=   DSPTAB
003395: 05,3461           03464 12001                     2CADR    TSTLTS3
003396:
003397: 05,3463           04321                           TC       TASKOVER
003398:
003399:
003400:
003401: 05,3464           43455        TSTLTS3            CS       TSTCON3                               #  CALLED BY EXECUTIVE
003402: 05,3465           00006                           EXTEND                                         #  TURN OFF  UPLINK ACTIVITY, TEMP,
003403: 05,3466           03011                           WAND     DSALMOUT                              #  OPERATOR ERROR.
003404: 05,3467           47635                           CS       BIT10                                 #  TURN OFF TEST ALARM OUTBIT
003405: 05,3470           00006                           EXTEND
003406: 05,3471           03013                           WAND     CHAN13
003407: 05,3472           37630                           CAF      BIT15                                 #  TURN OFF AUTO, HOLD, FREE, NO ATT, SPARE
003408: 05,3473           54675                           TS       DSPTAB     +11D                       #  GIMBAL LOCK, SPARE, TRACKER, PROG ALM
003409: 05,3474           02001                           TC       DSPMM                                 #  REDISPLAY C(MODREG)
003410: 05,3475           04102                           TC       POSTJUMP                              #  TURN OFF KEY RLSE LIGHT ( AND SEARCH LIST
003411: 05,3476           11273                           CADR     VBTERM                                #  IF APPROPRIATE).
003412:                                                                                                  #  TURN OFF V/N FLASH, SET LOADSTAT FOR
003413:                                                                                                  #  FOR TERMINATE CONDITION, AND GO TO
003414:                                                                                                  #  RECALTST. FINALLY DO TC ENDOFJOB.

End of include-file PINBALL_GAME__BUTTONS_AND_LIGHTS.agc.  Parent file is MAIN.agc


