
Source Code


000002:                                                                                                  ## Copyright:   Public domain.
000003:                                                                                                  ## Filename:    T4RUPT_PROGRAM.agc
000004:                                                                                                  ## Purpose:     Part of the source code for AGC program Retread 50.
000005:                                                                                                  ## Assembler:   yaYUL
000006:                                                                                                  ## Contact:     Ron Burkey <info@sandroid.org>.
000007:                                                                                                  ## Website:     www.ibiblio.org/apollo/Restoration.html
000008:                                                                                                  ## Mod history: 2019-06-12 MAS  Recreated from Computer History Museum's
000009:                                                                                                  ##                              physical core-rope modules.
000010:


000012: 01,3052           54016        T4RUPT             TS       BANKRUPT
000013: 01,3053           56002                           XCH      Q
000014: 01,3054           54012                           TS       QRUPT
000015: 01,3055           37653                           CAF      ZERO
000016: 01,3056           00006                           EXTEND
000017: 01,3057           01010                           WRITE    OUT0
000018: 01,3060           11020                           CCS      DSRUPTSW
000019: 01,3061           03063                           TC       SPECRUPT                              #  ZERO OUT0 10 MS AFTER REGULAR T4RUPT.
000020: 01,3062           03072                           TC       T4RUPTA
000021:
000022: 01,3063           37653        SPECRUPT           CAF      ZERO
000023: 01,3064           55020                           TS       DSRUPTSW


000025: 01,3065           33071                           CAF      50MRUPT                               #  RE ESTABLISH 40 MS PERIOD


000027: 01,3066           54027                           TS       TIME4
000028: 01,3067           04325                           TC       RESUME


000030: 01,3070           37772        60MRUPT            OCT      37772
000031: 01,3071           37773        50MRUPT            OCT      37773


000033:
000034:
000035:
000036:                                                                                                  #  RELTAB IS A PACKED TABLE. RELAYWORD CODE IN UPPER 4 BITS, RELAY CODE
000037:                                                                                                  #  IN LOWER 5 BITS.
000038:
000039:    4333                                           SETLOC   ENDWAITF                              #  IN F/F
000040:
000041:    4333           04025        RELTAB             OCT      04025
000042:    4334           10003                           OCT      10003
000043:    4335           14031                           OCT      14031
000044:    4336           20033                           OCT      20033
000045:    4337           24017                           OCT      24017
000046:    4340           30036                           OCT      30036
000047:    4341           34034                           OCT      34034
000048:    4342           40023                           OCT      40023
000049:    4343           44035                           OCT      44035
000050:    4344           50037                           OCT      50037
000051:    4345           54000                           OCT      54000
000052:    4346           60000        RELTAB11           OCT      60000
000053:
000054:
000055:
000056:    4347                        ENDT4FF            EQUALS
000057:
000058:
000059:


000061: 01,3072                                           SETLOC   50MRUPT    +1                         #  IN BANK
000062:
000063: 01,3072           33070        T4RUPTA            CAF      60MRUPT


000065: 01,3073           54027                           TS       TIME4
000066: 01,3074           10675        CDRVE              CCS      DSPTAB     +11D
000067: 01,3075           03104                           TC       DSPOUT


000069: 01,3076           03104                           TC       DSPOUT
000070: 01,3077           56675                           XCH      DSPTAB     +11D
000071: 01,3100           74503                           MASK     LOW11
000072: 01,3101           54675                           TS       DSPTAB     +11D
000073: 01,3102           64346                           AD       RELTAB11
000074: 01,3103           03143                           TC       DSPLAYC
000075:


000077:                                                                                                  #  DSPOUT PROGRAM. PUTS OUT DISPLAYS.
000078:
000079: 01,3104           10656        DSPOUT             CCS      NOUT                                  #  ENTERED IN INTERRUPTED STATE AT END OF
000080: 01,3105           03107                           TC       +2                                    #                          DSRUPT
000081: 01,3106           04325                           TC       LVDSRUPT
000082: 01,3107           54656                           TS       NOUT
000083: 01,3110           47653                           CS       ZERO
000084: 01,3111           54624                           TS       DSRUPTEM                              #  SET TO -0 FOR 1ST PASS THRU DSPTAB
000085: 01,3112           56714                           XCH      DSPCNT
000086: 01,3113           67654                           AD       NEG0                                  #  TO PREVENT +0
000087: 01,3114           54714                           TS       DSPCNT
000088: 01,3115           50714        DSPSCAN            INDEX    DSPCNT
000089: 01,3116           10662                           CCS      DSPTAB
000090: 01,3117           10714                           CCS      DSPCNT                                #  IF DSPTAB ENTRY +, SKIP
000091: 01,3120           03113                           TC       DSPSCAN    -2                         #  IF DSPCNT +, AGAIN
000092: 01,3121           03132                           TC       DSPLAY                                #  IF DSPTAB ENTRY -, DISPLAY
000093: 01,3122           00012        TABLNTH            OCT      12                                    #  DEC 10   LENGTH OF DSPTAB
000094: 01,3123           10624                           CCS      DSRUPTEM                              #  IF DSRUPTEM=+0,2ND PASS THRU DSPTAB
000095: 01,3125                                           LOC      +1                                    #  (DSPCNT=0). +0 INTO NOUT, RESUME
000096: 01,3125           54656                           TS       NOUT
000097: 01,3126           04325                           TC       LVDSRUPT
000098: 01,3127           54624                           TS       DSRUPTEM                              #  IF DSRUPTEM=-0,1ST PASS THRU DSPTAB
000099: 01,3130           33122                           CAF      TABLNTH                               #  (DSPCNT=0). +0 INTO DSRUPTEM. PASS AGAIN
000100: 01,3131           03114                           TC       DSPSCAN    -1
000101:
000102: 01,3132           67646        DSPLAY             AD       ONE
000103: 01,3133           50714                           INDEX    DSPCNT
000104: 01,3134           54662                           TS       DSPTAB                                #  REPLACE POSITIVELY
000105: 01,3135           74503                           MASK     LOW11                                 #  REMOVE BITS 12 TO 15
000106: 01,3136           54624                           TS       DSRUPTEM
000107: 01,3137           34475                           CAF      HI5
000108: 01,3140           50714                           INDEX    DSPCNT
000109: 01,3141           74333                           MASK     RELTAB                                #  PICK UP BITS 12 TO 15 OF RELTAB ENTRY
000110: 01,3142           60624                           AD       DSRUPTEM
000111: 01,3143           00006        DSPLAYC            EXTEND
000112: 01,3144           01010                           WRITE    OUT0
000113: 01,3145           55023                           TS       DISPBUF                               #  THIS WILL BE SENT DOWN NEXT TM CYCLE.
000114:
000115: 01,3146           37626                           CAF      10MSRUPT                              #  SET T4 TO INTERRUPT IN 10 MS.
000116: 01,3147           54027                           TS       TIME4
000117: 01,3150           37646                           CAF      ONE
000118: 01,3151           55020                           TS       DSRUPTSW                              #  SET FOR SPECRUPT
000119:
000120: 01,3152           04325                           TC       LVDSRUPT
000121:
000122: 01,3153     4325               LVDSRUPT           EQUALS   RESUME
000123: 01,3153     7626               10MSRUPT           =        POSMAX

End of include-file T4RUPT_PROGRAM.agc.  Parent file is MAIN.agc


