
Source Code


000002:                                                                                                  ## Copyright:   Public domain.
000003:                                                                                                  ## Filename:    WAITLIST.agc
000004:                                                                                                  ## Purpose:     Part of the source code for AGC program Retread 50.
000005:                                                                                                  ## Assembler:   yaYUL
000006:                                                                                                  ## Contact:     Ron Burkey <info@sandroid.org>.
000007:                                                                                                  ## Website:     www.ibiblio.org/apollo/Restoration.html
000008:                                                                                                  ## Mod history: 2019-06-12 MAS  Recreated from Computer History Museum's
000009:                                                                                                  ##                              physical core-rope modules.
000010:                                                                                                  ##              2021-05-30 ABS  Removed DLY2 symbol not present in
000011:                                                                                                  ##                              Retread 44 or Aurora 12.
000012:


000014:
000015:                                                                                                  #  GROUNDRULE....DELTA T SHOULD NOT EXCEED 12000 (= 2 MINUTES)
000016:
000017:    4251                                           SETLOC   ENDEXECF
000018:
000019:    4251  E3,1400                                  EBANK=   LST1                                  #  TASK LISTS IN SWITCHED E BANK.
000020:
000021:    4251           56002        WAITLIST           XCH      Q                                     #   SAVE DELTA T IN Q AND RETURN IN
000022:    4252           54624                           TS       WAITEXIT                              #  WAITEXIT.
000023:    4253           00006                           EXTEND
000024:    4254           50000                           INDEX    A
000025:    4255           30001                           DCA      0                                     #  PICK UP 2CADR OF TASK.
000026:    4256           54630                           TS       WAITADR                               #  BBCON WILL REMAIN IN L.
000027:    4257           34266                           CAF      WAITBB
000028:    4260           56006                           XCH      BBANK
000029:    4261           12557                           TCF      WAIT2
000030:
000031:                                                                                                  #           RETURN TO CALLER AFTER TASK INSERTION:
000032:
000033:    4262           30625        LVWTLIST           CA       WAITBANK
000034:    4263           54006                           TS       BBANK
000035:    4264           50624                           INDEX    WAITEXIT
000036:    4265           00002                           TC       2
000037:
000038:    4266           02003        WAITBB             BBCON    WAIT2
000039:
000040:                                                                                                  #  ENDTASK MUST BE ENTERED IN FIXED-FIXED SO IT IS DISTINGUISHABLE BY ITS ADRES ALONE.
000041:
000042:    4267           73506 73774  ENDTASK            -2CADR   SVCT3
000043:
000044:    4271           14321        SVCT3              TCF      TASKOVER
000045:


000047:                                                                                                  #           BEGIN TASK INSERTION.
000048:
000049: 01,2557                                           SETLOC   ENDEXECS
000050:
000051: 01,2557           54625        WAIT2              TS       WAITBANK                              #  BBANK OF CALLING PROGRAM.
000052: 01,2560           40026                           CS       TIME3
000053: 01,2561           62562                           AD       +1                                    #  CCS  A  = + 1/4
000054: 01,2562           10000                           CCS      A                                     #  TEST  1/4 - C(TIME3).  IF POSITIVE,
000055:                                                                                                  #          IT MEANS THAT TIME3 OVERFLOW HAS OCCURRED PRIOR TO CS  TIME3 AND THAT
000056:                                                                                                  #          C(TIME3) = T - T1, INSTEAD OF 1.0 - (T1 - T).  THE FOLLOWING FOUR
000057:                                                                                                  #          ORDERS SET C(A) = TD - T1 + 1 IN EITHER CASE.
000058:
000059: 01,2563           66042                           AD       OCT40001                              #  OVERFLOW HAS OCCURRED.  SET C(A) =
000060: 01,2564           40000                           CS       A                                     #  T - T1 + 3/4 - 1
000061:
000062:                                                                                                  #  NORMAL CASE (C(A) MINUS) YIELDS SAME C(A)  -(-(1.0-(T1-T))+1/4)-1
000063:
000064: 01,2565           62657                           AD       OCT50001
000065: 01,2566           60002                           AD       Q                                     #  RESULT = TD - T1 + 1.
000066:
000067: 01,2567           10000                           CCS      A                                     #  TEST TD - T1 + 1
000068:
000069: 01,2570           61400                           AD       LST1                                  #  IF TD - T1 POS, GO TO WTLST5 WITH
000070: 01,2571           12625                           TCF      WTLST5                                #  C(A) = (TD - T1) + C(LST1) = TD-T2+1
000071:
000072: 01,2572           12573                           NOOP
000073: 01,2573           40002                           CS       Q
000074:
000075:                                                                                                  #  NOTE THAT THIS PROGRAM SECTION IS NEVER ENTERED WHEN T-T1 G/E -1,
000076:                                                                                                  #  SINCE TD-T1+1 = (TD-T) + (T-T1+1), AND DELTA T = TD-T G/E +1 .  (G/E
000077:                                                                                                  #  SYMBOL MEANS GREATER THAN OR EQUAL TO).  THUS THERE NEED BE NO CON-
000078:                                                                                                  #  CERN OVER A PREVIOUS OR IMMINENT OVERFLOW OF TIME3 HERE.
000079:
000080: 01,2574           67631                           AD       POS1/2                                #  WHEN TD IS NEXT, FORM QUANTITY
000081: 01,2575           67631                           AD       POS1/2                                #    1.0 - DELTA T = 1.0 - (TD - T)
000082: 01,2576           56026                           XCH      TIME3
000083: 01,2577           67630                           AD       NEGMAX
000084: 01,2600           60002                           AD       Q                                     #  1.0 - DELTAT T NOW COMPLETE.
000085: 01,2601           00006                           EXTEND                                         #  ZERO INDEX Q.
000086: 01,2602           22007                           QXCH     7                                     #  (ZQ)
000087:


000089: 01,2603           57400        WTLST4             XCH      LST1
000090: 01,2604           57401                           XCH      LST1       +1
000091: 01,2605           57402                           XCH      LST1       +2
000092: 01,2606           57403                           XCH      LST1       +3
000093: 01,2607           57404                           XCH      LST1       +4
000094:
000095: 01,2610           30630                           CA       WAITADR                               #  (MINOR PART OF TASK CADR HAS BEEN IN L.)
000096: 01,2611           50002                           INDEX    Q
000097: 01,2612           12613                           TCF      +1
000098:
000099: 01,2613           53406                           DXCH     LST2
000100: 01,2614           53410                           DXCH     LST2       +2
000101: 01,2615           53412                           DXCH     LST2       +4
000102: 01,2616           53414                           DXCH     LST2       +6
000103: 01,2617           53416                           DXCH     LST2       +8D
000104: 01,2620           53420                           DXCH     LST2       +10D                       #  AT END, CHECK THAT C(LST2 +10) IS STD
000105: 01,2621           64267                           AD       ENDTASK                               #    END ITEM, AS CHECK FOR EXCEEDING
000106:                                                                                                  #    THE LENGTH OF THE LIST.
000107: 01,2622           00006                           EXTEND                                         #  DUMMY TASK ADRES SHOULD BE IN FIXED-
000108: 01,2623           14262                           BZF      LVWTLIST                              #  FIXED SO ITS ADRES ALONE DISTINGUISHES
000109: 01,2624           12663                           TCF      WTABORT                               #  IT.
000110:


000112:
000113: 01,2625           10000        WTLST5             CCS      A                                     #  TEST TD - T2 + 1
000114: 01,2626           61401                           AD       LST1       +1
000115: 01,2627           12633                           TCF      +4
000116: 01,2630           67646                           AD       ONE
000117: 01,2631           02664                           TC       WTLST2
000118: 01,2632           00001                           OCT      1
000119:
000120: 01,2633           10000                 +4        CCS      A                                     #  TEST TD - T3 + 1
000121: 01,2634           61402                           AD       LST1       +2
000122: 01,2635           12641                           TCF      +4
000123: 01,2636           67646                           AD       ONE
000124: 01,2637           02664                           TC       WTLST2
000125: 01,2640           00002                           OCT      2
000126:
000127: 01,2641           10000                 +4        CCS      A                                     #  TEST TD - T4 + 1
000128: 01,2642           61403                           AD       LST1       +3
000129: 01,2643           12647                           TCF      +4
000130: 01,2644           67646                           AD       ONE
000131: 01,2645           02664                           TC       WTLST2
000132: 01,2646           00003                           OCT      3
000133:
000134: 01,2647           10000                 +4        CCS      A                                     #  TEST TD - T5 + 1
000135: 01,2650           61404                           AD       LST1       +4
000136: 01,2651           12655                           TCF      +4
000137: 01,2652           67646                           AD       ONE
000138: 01,2653           02664                           TC       WTLST2
000139: 01,2654           00004                           OCT      4
000140:
000141: 01,2655           10000                 +4        CCS      A                                     #  TEST TD - T6 + 1
000142: 01,2656           12663                           TCF      WTABORT
000143: 01,2657           50001        OCT50001           OCT      50001
000144: 01,2660           67646                           AD       ONE
000145: 01,2661           02664                           TC       WTLST2
000146: 01,2662           00005                           OCT      5
000147:
000148: 01,2663           02663        WTABORT            TC       -0                                    #  LIST OVERFLOW.
000149:
000150:


000152:                                                                                                  #  THE ENTRY TO WTLST2 JUST PRECEDING OCT  N  IS FOR T  LE TD LE T   -1.
000153:                                                                                                  #                                                     N           N+1
000154:
000155:                                                                                                  #  (LE MEANS LESS THAN OR EQUAL TO).  AT ENTRY, C(A) = -(TD - T   + 1)
000156:                                                                                                  #                                                              N+1
000157:
000158:                                                                                                  #  THE LST1 ENTRY -(T   - T +1) IS TO BE REPLACED BY -(TD - T  + 1), AND
000159:                                                                                                  #                    N+1   N                                 N
000160:
000161:                                                                                                  #  THE ENTRY -(T   - TD + 1) IS TO BE INSERTED IMMEDIATELY FOLLOWING.
000162:                                                                                                  #               N+1
000163:
000164: 01,2664           54631        WTLST2             TS       WAITTEMP                              #      C(A) = -(TD - T   + 1)
000165: 01,2665           50002                           INDEX    Q
000166: 01,2666           30000                           CAF      0
000167: 01,2667           54002                           TS       Q                                     #  INDEX VALUE INTO Q.
000168:
000169: 01,2670           37646                           CAF      ONE
000170: 01,2671           60631                           AD       WAITTEMP
000171: 01,2672           50002                           INDEX    Q                                     #  C(A) = -(TD - T ) + 1.
000172: 01,2673           27377                           ADS      LST1       -1                         #                 N
000173:
000174: 01,2674           40631                           CS       WAITTEMP
000175: 01,2675           50002                           INDEX    Q
000176: 01,2676           12603                           TCF      WTLST4
000177:
000178: 01,2677                        ENDWAITS           EQUALS                                         #  LAST SWITCHABLE LOCATION.
000179:
000180:                                                                                                  #  C(TIME3)  = 1.0 - (T1 - T)
000181:
000182:                                                                                                  #  C(LST1  ) = - (T2 - T1) + 1
000183:                                                                                                  #  C(LST1+1) = - (T3 - T2) + 1
000184:                                                                                                  #  C(LST1+2) = - (T4 - T3) + 1
000185:                                                                                                  #  C(LST1+3) = - (T5 - T4) + 1
000186:                                                                                                  #  C(LST1+4) = - (T6 - T5) + 1
000187:
000188:                                                                                                  #  C(LST2   ) = 2CADR  TASK1
000189:                                                                                                  #  C(LST2+2 ) = 2CADR  TASK2
000190:                                                                                                  #  C(LST2+4 ) = 2CADR  TASK3
000191:                                                                                                  #  C(LST2+6 ) = 2CADR  TASK4
000192:                                                                                                  #  C(LST2+8 ) = 2CADR  TASK5
000193:                                                                                                  #  C(LST2+10) = 2CADR  TASK6
000194:


000196:                                                                                                  #           ENTERS HERE ON T3 RUPT TO DISPATCH WAITLISTED TASK.
000197:
000198:    4272                                           SETLOC   SVCT3      +1
000199:
000200:    4272           54016        T3RUPT             TS       BANKRUPT
000201:    4273           00006                           EXTEND
000202:    4274           22012                           QXCH     QRUPT
000203:
000204:    4275           37627        T3RUPT2            CAF      NEG1/2                                #  DISPATCH WAITLIST TASK.
000205:    4276           57404                           XCH      LST1       +4                         #  1.  MOVE UP LST1 CONTENTS, ENTERING
000206:    4277           57403                           XCH      LST1       +3                         #      A VALUE OF 1/2 +1 AT THE BOTTOM
000207:    4300           57402                           XCH      LST1       +2                         #      FOR T6-T5, CORRESPONDING TO THE
000208:    4301           57401                           XCH      LST1       +1                         #      INTERVAL 81.91 SEC FOR ENDTASK.
000209:    4302           57400                           XCH      LST1
000210:    4303           67626                           AD       POSMAX                                #  2. SET T3 = 1.0 - T2 -T USING LIST 1.
000211:    4304           26026                           ADS      TIME3                                 #  SO T3 WONT TICK DURING UPDATE.
000212:    4305           54636                           TS       RUPTAGN
000213:    4306           47653                           CS       ZERO
000214:    4307           54636                           TS       RUPTAGN                               #  SETS RUPTAGN TO +1 ON OVERFLOW.
000215:
000216:    4310           00006                           EXTEND                                         #  DISPATCH TASK.
000217:    4311           44270                           DCS      ENDTASK
000218:    4312           53420                           DXCH     LST2       +10D
000219:    4313           53416                           DXCH     LST2       +8D
000220:    4314           53414                           DXCH     LST2       +6
000221:    4315           53412                           DXCH     LST2       +4
000222:    4316           53410                           DXCH     LST2       +2
000223:    4317           53406                           DXCH     LST2
000224:
000225:    4320           52006                           DTCB
000226:
000227:
000228:
000229:                                                                                                  #  RETURN, AFTER EXECUTION OF TIME3 OVERFLOW TASK.
000230:
000231:    4321           10636        TASKOVER           CCS      RUPTAGN                               #  IF +1 RETURN TO T3RUPT, IF -0 RESUME.
000232:    4322           34266                           CAF      WAITBB
000233:    4323           54006                           TS       BBANK
000234:    4324           14275                           TCF      T3RUPT2                               #  DISPATCH NEXT TASK IF IT WAS DUE.
000235:
000236:    4325           00006        RESUME             EXTEND
000237:    4326           22012                           QXCH     QRUPT
000238:    4327           30016                           CA       BANKRUPT
000239:    4330           54006                           TS       BBANK
000240:    4331           52011                           DXCH     ARUPT
000241:    4332           50017                           RESUME
000242:
000243:    4333                        ENDWAITF           EQUALS                                         #  LAST FIXED-FIXED LOCATION OF T3RUPT.

End of include-file WAITLIST.agc.  Parent file is MAIN.agc


