
Source Code


000002:                                                                                                  ## Copyright:   Public domain.
000003:                                                                                                  ## Filename:    CM_BODY_ATTITUDE.agc
000004:                                                                                                  ## Purpose:     A section of Manche45 revision 2.
000005:                                                                                                  ##              It is part of the reconstructed source code for the
000006:                                                                                                  ##              final, flown release of the flight software for the Command
000007:                                                                                                  ##              Module's (CM) Apollo Guidance Computer (AGC) for Apollo 10.
000008:                                                                                                  ##              The code has been recreated from a copy of Comanche 055. It
000009:                                                                                                  ##              has been adapted such that the resulting bugger words
000010:                                                                                                  ##              exactly match those specified for Manche 45/2 in NASA drawing
000011:                                                                                                  ##              2021153D, which gives relatively high confidence that the
000012:                                                                                                  ##              reconstruction is correct.
000013:                                                                                                  ## Assembler:   yaYUL
000014:                                                                                                  ## Contact:     Ron Burkey <info@sandroid.org>.
000015:                                                                                                  ## Website:     www.ibiblio.org/apollo/index.html
000016:                                                                                                  ## Mod history: 2020-12-24 MAS  Created from Comanche 45.
000017:


000019: 35,3504                                           BANK     35
000020:
000021: 37,2000                                           SETLOC   BODYATT
000022: 37,2000                                           BANK
000023:
000024: 37,3467                                           COUNT    37/CMBAT
000025:
000026:                                                                                                  #  PDL 12D - 15D SAFE.
000027:
000028:                                                                                                  #  VALUES OF GIMBAL AND BODY ANGLES VALID AT PIP TIME ARE SAVED DURING  READACCS.
000029:
000030: 37,3467  E7,1451                                  EBANK=   RTINIT                                #  LET INTERPRETER SET EB
000031:
000032: 37,3467           06006        CM/POSE            TC       INTPRET                               #  COME HERE VIA AVEGEXIT.
000033:
000034: 37,3470           77201                           SETPD    VLOAD
000035: 37,3471           00001                                    0
000036: 37,3472           01177                                    VN                                    #  KVSCALE = (12800/ .3048) /2VS
000037: 37,3473           63361                           VXSC     PDVL
000038: 37,3474           37766                                    -KVSCALE                              #  KVSCALE = .81491944
000039: 37,3475           01714                                    UNITW                                 #  FULL UNIT VECTOR
000040: 37,3476           74235                           VXV      VXSC                                  #  VREL = V - WE*R
000041: 37,3477           01760                                    UNITR
000042: 37,3500           15245                                    KWE
000043: 37,3501           45455                           VAD      STADR
000044: 37,3502           74251                           STORE    -VREL                                 #  SAVE FOR ENTRY GUIDANCE.      REF COORDS
000045:
000046: 37,3503           72056                           UNIT     LXA,1
000047: 37,3504           00044                                    36D                                   #  ABVAL( -VREL) TO X1
000048: 37,3505           03542                           STORE    UXA/2                                 #  -UVREL                        REF COORDS
000049:
000050: 37,3506           57435                           VXV      VCOMP
000051: 37,3507           01760                                    UNITR                                 #  .5 UNIT                       REF COORDS
000052: 37,3510           66256                           UNIT     SSP                                   #  THE FOLLOWING IS TO PROVIDE A STABLE
000053: 37,3511           00051                                    S1                                    #  UN FOR THE END OF THE TERMINAL PHASE.
000054: 37,3512           00476        SPVQUIT            DEC      .019405                               #  1000/ 2 VS
000055: 37,3513           77300                           TIX,1    VLOAD                                 #  IF V-VQUIT POS, BRANCH.
000056: 37,3514           77516                                    CM/POSE2                              #  SAVE UYA IN OLDUYA
000057: 37,3515           03534                                    OLDUYA                                #  OTHERWISE CONTINUE TO USE OLDUYA.
000058: 37,3516           03550        CM/POSE2           STORE    UYA/2                                 #                                REF COORDS
000059:
000060: 37,3517           03534                           STORE    OLDUYA                                #  RESTORE, OR SAVE AS CASE MAY BE.
000061:
000062: 37,3520           57435                           VXV      VCOMP
000063: 37,3521           03542                                    UXA/2                                 #  FINISH OBTAINING TRAJECTORY TRIAD.
000064: 37,3522           77772                           VSL1
000065: 37,3523           03556                           STORE    UZA/2                                 #                                REF COORDS


000067: 37,3524           77751                           TLOAD                                          #  PICK UP CDUX, CDUY, CDUZ CORRESPONDING
000068: 37,3525           03270                                    AOG/PIP                               #  TO PIPUP TIME IN 2S,C AND SAVE.
000069: 37,3526           14031        CM/TRIO            STODL    24D
000070: 37,3527           00032                                    25D                                   #  AIG/PIP
000071:
000072: 37,3530           41434                           RTB      PUSH                                  #  TO PDL0
000073: 37,3531           45513                                    CDULOGIC
000074: 37,3532           77746                           COS
000075: 37,3533           17564                           STODL    UBX/2                                 #  CI /2
000076:                                                                                                  #  AIG/PIP FROM PDL 0
000077: 37,3534           57556                           SIN      DCOMP
000078: 37,3535           17570                           STODL    UBX/2      +4                         #  -SI /2
000079: 37,3536           00033                                    26D                                   #  AMG/PIP
000080: 37,3537           41434                           RTB      PUSH                                  #  TO PDL 0
000081: 37,3540           45513                                    CDULOGIC
000082: 37,3541           65356                           SIN      PDDL                                  #  XCH PDL 0.  SAVE SM /2
000083: 37,3542           65346                           COS      PDDL                                  #  CM /2 TO PDL 2
000084: 37,3543           00001                                    0                                     #  SM /2
000085: 37,3544           74276                           DCOMP    VXSC
000086: 37,3545           03564                                    UBX/2
000087: 37,3546           77772                           VSL1                                           #  NOISE WONT OVFL.
000088: 37,3547           17572                           STODL    UBY/2                                 #  =(-SMCI, NOISE, SMSI)/2
000089: 37,3550           00003                                    2                                     #  CM /2 REPLACES NOISE
000090: 37,3551           17574                           STODL    UBY/2      +2                         #  UBY/2=(-SMCI, CM, SMSI)/2
000091: 37,3552           00031                                    24D                                   #  AOG/PIP
000092: 37,3553           41434                           RTB      PUSH                                  #  TO PDL 4
000093: 37,3554           45513                                    CDULOGIC
000094: 37,3555           65356                           SIN      PDDL                                  #  XCH PDL 4.  SAVE SO /2
000095: 37,3556           74346                           COS      VXSC                                  #  CO /2
000096: 37,3557           03572                                    UBY/2
000097: 37,3560           17572                           STODL    UBY/2                                 #  UBY/2=(-COSMCI, COCM, COSMSI)/4
000098: 37,3561           00005                                    4D                                    #  SO /2
000099: 37,3562           57405                           DMP      DCOMP
000100: 37,3563           03570                                    UBX/2      +4                         #  -SI /2
000101: 37,3564           77615                           DAD
000102: 37,3565           03572                                    UBY/2                                 #  INCREMENT BY (SOSI /4)
000103: 37,3566           17572                           STODL    UBY/2
000104:                                                                                                  #  SO /2 FROM PDL 4
000105: 37,3567           43205                           DMP      DAD
000106: 37,3570           03564                                    UBX/2                                 #  CI /2
000107: 37,3571           03576                                    UBY/2      +4
000108: 37,3572           27576                           STOVL    UBY/2      +4                         #  YB/4                          PLATFORM COORDS
000109:
000110:                                                                                                  #  YB = (-COSMCI + SOSI , COCM , COSMSI + SOCI )
000111:
000112: 37,3573           03572                                    UBY/2
000113: 37,3574           72505                           VXM      VSL2
000114: 37,3575           01736                                    REFSMMAT                              #  .5 UNIT
000115: 37,3576           17572                           STODL    UBY/2                                 #  YB/2 DONE                     REF COORDS


000117:                                                                                                  #  CM /2 FROM PDL 2
000118: 37,3577           76561                           VXSC     VSL1
000119: 37,3600           03564                                    UBX/2
000120: 37,3601           17564                           STODL    UBX/2                                 #  =( CMCI, NOISE, -CMSI)/2
000121: 37,3602           77626                           STADR                                          #  SM /2 FROM PDL 0
000122: 37,3603           50211                           STOVL    UBX/2      +2                         #  SM /2 REPLACES NOISE
000123: 37,3604           03564                                    UBX/2                                 #  XB/2                          PLATFORM COORDS
000124:
000125:                                                                                                  #  XB = ( CMCI , SM , -CMSI )
000126:
000127: 37,3605           76505                           VXM      VSL1
000128: 37,3606           01736                                    REFSMMAT                              #  .5 UNIT
000129: 37,3607           03564                           STORE    UBX/2                                 #  XB/2 DONE                     REF COORDS
000130:
000131: 37,3610           76435                           VXV      VSL1
000132: 37,3611           03572                                    UBY/2
000133: 37,3612           27600                           STOVL    UBZ/2                                 #  ZB/2 DONE                     REF COORDS
000134:
000135:                                                                                                  #  EQUIVALENT TO
000136:                                                                                                  #  ZB = ( SOSMCI + COSI , -SOCM , -SOSMSI + COCI )
000137:
000138: 37,3613           03542                                    UXA/2                                 #  -UVREL/2 = -UVA/2
000139: 37,3614           53435                           VXV      UNIT                                  #  GET UNIT(-UVREL*UBY)/2 = UL/2
000140: 37,3615           03572                                    UBY/2                                 #  YB/2
000141: 37,3616           50206                           PUSH     DOT                                   #  UL/2 TO PDL 0,5
000142: 37,3617           03556                                    UZA/2                                 #  UNA/2
000143: 37,3620           24021                           STOVL    COSTH                                 #  COS(ROLL)/4
000144: 37,3621           00001                                    0                                     #  UL/2
000145:
000146: 37,3622           77641                           DOT
000147: 37,3623           03550                                    UYA/2
000148: 37,3624           34023                           STCALL   SINTH                                 #  -SIN(ROLL)/4
000149: 37,3625           47256                                    ARCTRIG
000150: 37,3626           24007                           STOVL    6D                                    #  -(ROLL/180) /2
000151: 37,3627           03572                                    UBY/2
000152: 37,3630           72441                           DOT      SL1                                   #  -UVA.UBY = -SIN(BETA)
000153: 37,3631           03542                                    UXA/2                                 #  -UVREL/2
000154: 37,3632           77736                           ARCSIN
000155: 37,3633           24010                           STOVL    7D                                    #  -(BETA/180) /2
000156: 37,3634           03564                                    UBX/2                                 #  XB/2
000157: 37,3635           77641                           DOT                                            #  UL.UBX = -SIN(ALFA)
000158: 37,3636           00001                                    0                                     #  UL/2
000159: 37,3637           24023                           STOVL    SINTH                                 #  -SIN(ALFA)/4
000160: 37,3640           77641                           DOT                                            #  UL/2 FROM PDL 0
000161: 37,3641           03600                                    UBZ/2
000162: 37,3642           34021                           STCALL   COSTH                                 #  COS(ALFA)/4
000163: 37,3643           47256                                    ARCTRIG
000164: 37,3644           24011                           STOVL    8D                                    #  -(ALFA/180) /2
000165: 37,3645           01760                                    UNITR                                 #  UR/2                          REF COORDS
000166: 37,3646           72441                           DOT      SL1


000168: 37,3647           03556                                    UZA/2                                 #  MORE ACCURATE AT LARGE ARG.
000169: 37,3650           77726                           ARCCOS
000170: 37,3651           00013                           STORE    10D                                   #  (-GAMA/180)/2
000171:
000172: 37,3652           77551                           TLOAD    EXIT                                  #  ANGLES IN MPAC IN THE ORDER
000173:                                                                                                  #  -( (ROLL, BETA, ALFA) /180)/2
000174: 37,3653           00007                                    6D                                    #  THESE VALUES CORRECT AT PIPUP TIME.
000175:
000176:                                                                                                  #  SPACER


000178:                                                                                                  #  BASIC SUBROUTINE TO UPDATE ATTITUDE ANGLES
000179:
000180: 37,3654  E6,1661                                  EBANK=   AOG
000181:
000182: 37,3654           35057        CM/ATUP            CA       EBAOG
000183: 37,3655           54003                           TS       EBANK
000184: 37,3656           50120        CMTR1              INDEX    FIXLOC
000185: 37,3657           40012                           CS       10D                                   #  (GAMA/180)/2
000186: 37,3660           57722                           XCH      GAMA
000187: 37,3661           54001                           TS       L
000188:
000189: 37,3662           00004                           INHINT
000190:                                                                                                  #  MUST REMAIN INHINTED UNTIL UPDATE OF BODY
000191:                                                                                                  #  ANGLES, SO THAT GAMDIFSW IS VALID FIRST PASS
000192:                                                                                                  #  INDICATOR.
000193:
000194: 37,3663           40102                           CS       CM/FLAGS
000195: 37,3664           75005                           MASK     BIT11                                 #  GAMDIFSW=94D BIT11    INITLY=0
000196: 37,3665           00006                           EXTEND                                         #  DONT CALC GAMA DOT UNTIL HAVE FORMD
000197:                                                                                                  #  ONE DIFFERENCE.
000198: 37,3666           13671                           BZF      DOGAMDOT                              #  IS OK, GO ON.
000199: 37,3667           26102                           ADS      CM/FLAGS                              #  KNOW BIT IS 0
000200: 37,3670           03704                           TC       NOGAMDOT                              #  SET GAMDOT = 0
000201:
000202: 37,3671           40001        DOGAMDOT           CS       L
000203: 37,3672           61722                           AD       GAMA                                  #  DEL GAMA/360= T GAMDOT/360
000204: 37,3673           00006                           EXTEND
000205: 37,3674           73767                           MP       TCDU                                  #  TCDU = .1 SEC, T = 2 SEC.
000206: 37,3675           55723                           TS       GAMDOT                                #  GAMA DOT TCDU / 180
000207:
000208: 37,3676           00006                           EXTEND                                         #  IGNORE GAMDOT IF LEQ .5 DEG/SEC
000209: 37,3677           63701                           BZMF     +2
000210: 37,3700           40000                           COM
000211: 37,3701           65022                           AD       FIVE
000212: 37,3702           00006                           EXTEND
000213: 37,3703           63706                           BZMF     +3                                    #  SET GAMDOT=+0 AS TAG IF TOO SMALL.
000214:
000215: 37,3704           35021        NOGAMDOT           CA       ZERO                                  #  COME HERE INHINTED.
000216: 37,3705           55723                           TS       GAMDOT
000217:                                                                                                  #  FOR NOW LEAVE IN 2S,C
000218:                                                                                                  #  UPDATE ANGLES BY CORRECTING EUILER ANG
000219:                                                                                                  #  FOR ACCRUED INCREMENT SINCE PIPUP
000220:                                                                                                  #  R = R EUIL + R(NOW) - R(PIPUP)
000221: 37,3706           40154                           CS       MPAC                                  #  GET (R EUL/180) /2
000222: 37,3707           60000                           DOUBLE                                         #  POSSIBLE OVERFLOW
000223: 37,3710           03757                           TC       CORANGOV                              #  CORRECT FOR OVFL IF ANY
000224: 37,3711           00006                           EXTEND
000225: 37,3712           61672                           SU       ROLL/PIP                              #  GET INCR SINCE PIPUP
000226: 37,3713           61664                           AD       ROLL/180                              #  ONLY SINGLE OVFL POSSIBLE.
000227: 37,3714           03757                           TC       CORANGOV                              #  CORRECT FOR OVFL IF ANY


000229: 37,3715           55770                           TS       TEMPROLL
000230:
000231: 37,3716           40156                           CS       MPAC       +2                         #  GET (ALFA EUL/180) /2
000232: 37,3717           60000                           DOUBLE                                         #  SAME AS FOR ROLL.  NEEDED FOR EXT ATM DAP
000233: 37,3720           03757                           TC       CORANGOV                              #  CORRECT FOR OVFL IF ANY
000234: 37,3721           00006                           EXTEND
000235: 37,3722           61673                           SU       ALFA/PIP
000236: 37,3723           61665                           AD       ALFA/180
000237: 37,3724           03757                           TC       CORANGOV                              #  CORRECT FOR OVFL IF ANY
000238: 37,3725           55771                           TS       TEMPALFA
000239:
000240: 37,3726           40155                           CS       MPAC       +1                         #  GET (BETA EUL/180) /2
000241: 37,3727           60000        CMTR2              DOUBLE
000242: 37,3730           00006                           EXTEND
000243: 37,3731           61674                           SU       BETA/PIP
000244: 37,3732           61666                           AD       BETA/180
000245: 37,3733           57772                           XCH      TEMPBETA                              #  OVFL NOT EXPECTED.
000246:
000247: 37,3734           35051                           CA       EBANK3
000248: 37,3735           54003                           TS       EBANK
000249:
000250: 37,3736  E3,1446                                  EBANK=   PHSNAME5
000251: 37,3736           00006                           EXTEND
000252: 37,3737           33771                           DCA      REPOSADR                              #  THIS ASSUMES THAT THE         TC  PHASCHNG
000253: 37,3740           53447                           DXCH     PHSNAME5                              #  IS NOT CHANGED IN             OCT 10035
000254:                                                                                                  #  SERVICER.
000255:
000256: 37,3741           35057                           CA       EBAOG
000257: 37,3742           54003                           TS       EBANK
000258:
000259: 37,3743  E6,1661                                  EBANK=   AOG
000260: 37,3743           00006        REDOPOSE           EXTEND                                         #  RE-STARTS COME HERE
000261: 37,3744           31771                           DCA      TEMPROLL
000262: 37,3745           53665                           DXCH     ROLL/180
000263: 37,3746           31772                           CA       TEMPBETA
000264: 37,3747           55666                           TS       BETA/180
000265:
000266: 37,3750           00003                           RELINT
000267:
000268: 37,3751           06006                           TC       INTPRET                               #  CANT TC DANZIG AFTER PHASCHNG.
000269: 37,3752           51575        CM/POSE3           VLOAD    ABVAL                                 #  RETURN FROM CM/ATUP.  (RESTART)
000270: 37,3753           01177                                    VN                                    #  2(-7) M/CS
000271: 37,3754           03723                           STORE    VMAGI                                 #  FOR DISPLAY ON CALL.
000272:
000273: 37,3755           77650                           GOTO
000274: 37,3756           03324                                    POSEXIT                               #  ENDEXIT, STARTENT, OR SCALEPOP.
000275:
000276: 37,3757           54001        CORANGOV           TS       L
000277: 37,3760           00002                           TC       Q
000278: 37,3761           50000                           INDEX    A


000280: 37,3762           35000                           CA       LIMITS
000281: 37,3763           26001                           ADS      L
000282: 37,3764           00002                           TC       Q                                     #  COSTS 2 MCT TO USE.  SEE ANGOVCOR.
000283:
000284: 37,3765           45730 53410  -KVSCALE           2DEC     -.81491944                            #  -12800/(2 VS .3048)
000285:
000286: 37,3767           03146        TCDU               DEC      .1                                    #  TCDU = .1 SEC.
000287:
000288: 37,3770  E6,1661                                  EBANK=   AOG
000289: 37,3770           03743 76066  REPOSADR           2CADR    REDOPOSE
000290:

End of include-file CM_BODY_ATTITUDE.agc.  Parent file is MAIN.agc


