
Source Code


000002:                                                                                                  ## Copyright:   Public domain.
000003:                                                                                                  ## Filename:    IMU_MODE_SWITCHING_ROUTINES.agc
000004:                                                                                                  ## Purpose:     A section of Manche45 revision 2.
000005:                                                                                                  ##              It is part of the reconstructed source code for the
000006:                                                                                                  ##              final, flown release of the flight software for the Command
000007:                                                                                                  ##              Module's (CM) Apollo Guidance Computer (AGC) for Apollo 10.
000008:                                                                                                  ##              The code has been recreated from a copy of Comanche 055. It
000009:                                                                                                  ##              has been adapted such that the resulting bugger words
000010:                                                                                                  ##              exactly match those specified for Manche 45/2 in NASA drawing
000011:                                                                                                  ##              2021153D, which gives relatively high confidence that the
000012:                                                                                                  ##              reconstruction is correct.
000013:                                                                                                  ## Assembler:   yaYUL
000014:                                                                                                  ## Contact:     Ron Burkey <info@sandroid.org>.
000015:                                                                                                  ## Website:     www.ibiblio.org/apollo/index.html
000016:                                                                                                  ## Mod history: 2020-12-24 MAS  Created from Comanche 45.
000017:


000019:    5521                                           BLOCK    02
000020:    4000                                           SETLOC   FFTAG3
000021:    4000                                           BANK
000022:
000023:    5521  E3,1471                                  EBANK=   COMMAND
000024:
000025:                                                                                                  #  FIXED-FIXED ROUTINES.
000026:
000027:    5521                                           COUNT    02/IMODE
000028:
000029:    5521           35021        ZEROICDU           CAF      ZERO                                  #  ZERO ICDU COUNTERS.
000030:    5522           54032                           TS       CDUX
000031:    5523           54033                           TS       CDUY
000032:    5524           54034                           TS       CDUZ
000033:    5525           00002                           TC       Q
000034:
000035:    5526     5007               SPSCODE            =        BIT9
000036:


000038:                                                                                                  #  IMU ZEROING ROUTINE.
000039:
000040: 11,3776                                           BANK     11
000041: 07,2000                                           SETLOC   MODESW
000042: 07,2000                                           BANK
000043:
000044: 07,2577                                           COUNT    07/IMODE
000045:
000046: 07,2577           00004        IMUZERO            INHINT                                         #  ROUTINE TO ZERO ICDUS.
000047: 07,2600           41036                           CS       DSPTAB     +11D                       #  DONT ZERO CDUS IF IMU IN GIMBAL LOCK AND
000048: 07,2601           75033                           MASK     BITS4&6                               #  COARSE ALIGN (GIMBAL RUNAWAY PROTECTION)
000049: 07,2602           10000                           CCS      A
000050: 07,2603           12607                           TCF      IMUZEROA
000051:
000052: 07,2604           05650                           TC       ALARM                                 #  IF SO.
000053: 07,2605           00206                           OCT      00206
000054:
000055: 07,2606           13542                           TCF      CAGETSTJ   +4                         #  IMMEDIATE FAILURE.
000056:
000057: 07,2607           03536        IMUZEROA           TC       CAGETSTJ
000058:
000059:                                                                                                  #  DO ALL THE WORK.
000060:
000061: 07,2610           41321                           CS       IMODES33                              #  DISABLE DAP AUTO AND HOLD MODES
000062: 07,2611           75035                           MASK     SUPER011                              #        BIT5 FOR GROUND
000063: 07,2612           27321                           ADS      IMODES33
000064:
000065: 07,2613           41320                           CS       IMODES30                              #  INHIBIT ICDUFAIL AND IMUFAIL (IN CASE WE
000066: 07,2614           75763                           MASK     BITS3&4                               #  JUST CAME OUT OF COARSE ALIGN).
000067: 07,2615           27320                           ADS      IMODES30
000068:
000069: 07,2616           45033                           CS       BITS4&6                               #  SEND ZERO ENCODE WITH COARSE AND ERROR
000070: 07,2617           00006                           EXTEND                                         #  COUNTER DISABLED.
000071: 07,2620           03012                           WAND     CHAN12
000072:
000073: 07,2621           03151                           TC       NOATTOFF                              #  TURN OFF NO ATT LAMP.
000074:
000075: 07,2622           35013                           CAF      BIT5
000076: 07,2623           00006                           EXTEND
000077: 07,2624           05012                           WOR      CHAN12
000078:
000079: 07,2625           05521                           TC       ZEROICDU
000080: 07,2626           35012                           CAF      BIT6                                  #  WAIT 320 MS TO GIVE AGS ADEQUATE TIME TO
000081: 07,2627           05245                           TC       WAITLIST                              #  RECEIVE ITS PULSE TRAIN.
000082: 07,2630  E3,1474                                  EBANK=   CDUIND
000083: 07,2630           02642 16063                     2CADR    IMUZERO2
000084:
000085: 07,2632           41320                           CS       IMODES30                              #  SEE IF IMU OPERATING AND ALARM IF NOT.
000086: 07,2633           75007                           MASK     BIT9
000087: 07,2634           10000                           CCS      A
000088: 07,2635           12640                           TCF      MODEEXIT


000090: 07,2636           05650                           TC       ALARM
000091: 07,2637           00210                           OCT      210
000092:
000093: 07,2640           00003        MODEEXIT           RELINT                                         #  GENERAL MODE-SWITCHING EXIT.
000094: 07,2641           14675                           TCF      SWRETURN
000095:
000096: 07,2642           03524        IMUZERO2           TC       CAGETEST
000097: 07,2643           05521                           TC       ZEROICDU                              #  ZERO CDUX, CDUY, CDUZ
000098:
000099: 07,2644           45013                           CS       BIT5                                  #  REMOVE ZERO DISCRETE.
000100: 07,2645           00006                           EXTEND
000101: 07,2646           03012                           WAND     CHAN12
000102:
000103: 07,2647           35005                           CAF      BIT11                                 #  WAIT 10 SECS FOR CTRS TO FIND GIMBALS
000104: 07,2650           05272                           TC       VARDELAY
000105:
000106: 07,2651           03524        IMUZERO3           TC       CAGETEST
000107: 07,2652           45763                           CS       BITS3&4                               #  REMOVE IMUFAIL AND ICDUFAIL INHIBIT.
000108: 07,2653           71320                           MASK     IMODES30
000109: 07,2654           55320                           TS       IMODES30
000110:
000111: 07,2655           45035                           CS       SUPER011                              #  ENABLE DAP AUTO AND HOLD MODES
000112: 07,2656           71321                           MASK     IMODES33                              #        BIT5 FOR GROUND
000113: 07,2657           55321                           TS       IMODES33
000114:
000115: 07,2660           04740                           TC       IBNKCALL                              #  SET ISS WARNING IF EITHER OF ABOVE ARE
000116: 07,2661           14665                           CADR     SETISSW                               #  PRESENT.
000117:
000118: 07,2662           13514                           TCF      ENDIMU
000119:


000121:                                                                                                  #  IMU COARSE ALIGN MODE.
000122:
000123: 07,2663           00004        IMUCOARS           INHINT
000124: 07,2664           03536                           TC       CAGETSTJ
000125: 07,2665           03027                           TC       SETCOARS
000126:
000127: 07,2666           36211                           CAF      SIX
000128: 07,2667           05245                           TC       WAITLIST
000129: 07,2670  E3,1474                                  EBANK=   CDUIND
000130: 07,2670           02673 16063                     2CADR    COARS
000131:
000132: 07,2672           12640                           TCF      MODEEXIT
000133:
000134: 07,2673           03524        COARS              TC       CAGETEST
000135: 07,2674           35012                           CAF      BIT6                                  #  ENABLE ALL THREE ISS CDU ERROR COUNTERS
000136: 07,2675           00006                           EXTEND
000137: 07,2676           05012                           WOR      CHAN12
000138:
000139: 07,2677           35016                           CAF      TWO                                   #  SET CDU INDICATOR
000140: 07,2700           55474        COARS1             TS       CDUIND
000141:
000142: 07,2701           51474                           INDEX    CDUIND                                #  COMPUTE THETAD - THETAA IN 1:S
000143: 07,2702           31155                           CA       THETAD                                #        COMPLEMENT FORM
000144: 07,2703           00006                           EXTEND
000145: 07,2704           51474                           INDEX    CDUIND
000146: 07,2705           20032                           MSU      CDUX
000147: 07,2706           00006                           EXTEND
000148: 07,2707           75003                           MP       BIT13                                 #  SHIFT RIGHT 2
000149: 07,2710           56001                           XCH      L                                     #  ROUND
000150: 07,2711           60000                           DOUBLE
000151: 07,2712           54061                           TS       ITEMP1
000152: 07,2713           12715                           TCF      +2
000153: 07,2714           26001                           ADS      L
000154:
000155: 07,2715           51474                           INDEX    CDUIND                                #  DIFFERENCE TO BE COMPUTED
000156: 07,2716           23471                           LXCH     COMMAND
000157: 07,2717           11474                           CCS      CDUIND
000158: 07,2720           02700                           TC       COARS1
000159:
000160: 07,2721           35016                           CAF      TWO                                   #  MINIMUM OF 4 MS WAIT
000161: 07,2722           05272                           TC       VARDELAY
000162:


000164: 07,2723           03524        COARS2             TC       CAGETEST                              #  DONT CONTINUE IF CAGED.
000165: 07,2724           54061                           TS       ITEMP1                                #  SETS TO +0.
000166: 07,2725           35016                           CAF      TWO                                   #  SET CDU INDICATOR
000167: 07,2726           55474                 +3        TS       CDUIND
000168:
000169: 07,2727           51474                           INDEX    CDUIND
000170: 07,2730           11471                           CCS      COMMAND                               #  NUMBER OF PULSES REQUIRED
000171: 07,2731           02735                           TC       COMPOS                                #  GREATER THAN MAX ALLOWED
000172: 07,2732           02744                           TC       NEXTCDU    +1
000173: 07,2733           03002                           TC       COMNEG
000174: 07,2734           02744                           TC       NEXTCDU    +1
000175:
000176: 07,2735           63624        COMPOS             AD       -COMMAX                               #  COMMAX = MAX NUMBER OF PULSES ALLOWED
000177: 07,2736           00006                           EXTEND                                         #        MINUS ONE
000178: 07,2737           63012                           BZMF     COMZERO
000179: 07,2740           51474                           INDEX    CDUIND
000180: 07,2741           55471                           TS       COMMAND                               #  REDUCE COMMAND BY MAX NUMBER OF PULSES
000181: 07,2742           43625                           CS       -COMMAX-                              #        ALLOWED
000182:
000183: 07,2743           24061        NEXTCDU            INCR     ITEMP1
000184: 07,2744           65020                           AD       NEG0
000185: 07,2745           51474                           INDEX    CDUIND
000186: 07,2746           54050                           TS       CDUXCMD                               #  SET UP COMMAND REGISTER.
000187:
000188: 07,2747           11474                           CCS      CDUIND
000189: 07,2750           02726                           TC       COARS2     +3
000190:
000191: 07,2751           10061                           CCS      ITEMP1                                #  SEE IF ANY PULSES TO GO OUT.
000192: 07,2752           13016                           TCF      SENDPULS
000193:
000194: 07,2753           05267                           TC       FIXDELAY                              #  WAIT FOR GIMBALS TO SETTLE.
000195: 07,2754           00226                           DEC      150        B-14
000196:
000197: 07,2755           35016                           CAF      TWO                                   #  AT END OF COMMAND, CHECK TO SEE THAT
000198: 07,2756           54061        CHKCORS            TS       ITEMP1                                #  GIMBALS ARE WITHIN 2 DEGREES OF THETAD.
000199: 07,2757           50000                           INDEX    A
000200: 07,2760           30032                           CA       CDUX
000201: 07,2761           00006                           EXTEND
000202: 07,2762           50061                           INDEX    ITEMP1
000203: 07,2763           21155                           MSU      THETAD
000204: 07,2764           10000                           CCS      A
000205: 07,2765           12773                           TCF      COARSERR
000206: 07,2766           12770                           TCF      CORSCHK2
000207: 07,2767           12773                           TCF      COARSERR
000208:


000210: 07,2770           10061        CORSCHK2           CCS      ITEMP1
000211: 07,2771           12756                           TCF      CHKCORS
000212: 07,2772           13514                           TCF      ENDIMU                                #  END OF COARSE ALIGNMENT.
000213:
000214: 07,2773           63001        COARSERR           AD       COARSTOL                              #  2 DEGREES.
000215: 07,2774           00006                           EXTEND
000216: 07,2775           62770                           BZMF     CORSCHK2
000217:
000218: 07,2776           05650                           TC       ALARM                                 #  COARSE ALIGN ERROR.
000219: 07,2777           00211                           OCT      211
000220:
000221: 07,3000           13522                           TCF      IMUBAD
000222:
000223: 07,3001           77511        COARSTOL           DEC      -.01111                               #  2 DEGREES SCALED AT HALF-REVOLUTIONS
000224:
000225: 07,3002           63624        COMNEG             AD       -COMMAX
000226: 07,3003           00006                           EXTEND
000227: 07,3004           63012                           BZMF     COMZERO
000228: 07,3005           40000                           COM
000229: 07,3006           51474                           INDEX    CDUIND
000230: 07,3007           55471                           TS       COMMAND
000231: 07,3010           33625                           CA       -COMMAX-
000232: 07,3011           02743                           TC       NEXTCDU
000233:
000234: 07,3012           35021        COMZERO            CAF      ZERO
000235: 07,3013           51474                           INDEX    CDUIND
000236: 07,3014           57471                           XCH      COMMAND
000237: 07,3015           02743                           TC       NEXTCDU
000238:
000239: 07,3016           37707        SENDPULS           CAF      13,14,15
000240: 07,3017           00006                           EXTEND
000241: 07,3020           05014                           WOR      CHAN14
000242: 07,3021           33626                           CAF      600MS
000243: 07,3022           12722                           TCF      COARS2     -1                         #  THEN TO VARDELAY
000244:
000245: 07,3023           35012        CA+ECE             CAF      BIT6                                  #  ENABLE ALL THREE ISS CDU ERROR COUNTERS
000246: 07,3024           00006                           EXTEND
000247: 07,3025           05012                           WOR      CHAN12
000248: 07,3026           05324                           TC       TASKOVER
000249:


000251: 07,3027           35014        SETCOARS           CAF      BIT4                                  #  BYPASS IF ALREADY IN COARSE ALIGN
000252: 07,3030           00006                           EXTEND
000253: 07,3031           02012                           RAND     CHAN12
000254: 07,3032           10000                           CCS      A
000255: 07,3033           00002                           TC       Q
000256:
000257: 07,3034           45012                           CS       BIT6                                  #  CLEAR ISS ERROR COUNTERS
000258: 07,3035           00006                           EXTEND
000259: 07,3036           03012                           WAND     CHAN12
000260:
000261: 07,3037           45006                           CS       BIT10                                 #  KNOCK DOWN GYRO ACTIVITY
000262: 07,3040           00006                           EXTEND
000263: 07,3041           03014                           WAND     CHAN14
000264: 07,3042           45021                           CS       ZERO
000265: 07,3043           54047                           TS       GYROCMD
000266:
000267: 07,3044           35014                           CAF      BIT4                                  #  PUT ISS IN COARSE ALIGN
000268: 07,3045           00006                           EXTEND
000269: 07,3046           05012                           WOR      CHAN12
000270:
000271: 07,3047           41036                           CS       DSPTAB     +11D                       #  TURN ON NO ATT LAMP
000272: 07,3050           73072                           MASK     OCT40010
000273: 07,3051           27036                           ADS      DSPTAB     +11D
000274:
000275: 07,3052           41321                           CS       IMODES33                              #  DISABLE DAP AUTO AND HOLD MODES
000276: 07,3053           75012                           MASK     BIT6
000277: 07,3054           27321                           ADS      IMODES33
000278:
000279: 07,3055           41320                           CS       IMODES30                              #  DISABLE IMUFAIL
000280: 07,3056           75014                           MASK     BIT4
000281: 07,3057           27320                           ADS      IMODES30
000282:
000283: 07,3060           45013        RNDREFDR           CS       BIT5                                  #  KNOCK DOWN TRACK FLAG
000284: 07,3061           70075                           MASK     FLAGWRD1
000285: 07,3062           54075                           TS       FLAGWRD1
000286:
000287: 07,3063           45001                           CS       BIT15                                 #  KNOCK DOWN DRIFT FLAG
000288: 07,3064           70076                           MASK     FLAGWRD2
000289: 07,3065           54076                           TS       FLAGWRD2
000290:
000291: 07,3066           45003                           CS       BIT13                                 #  KNOCK DOWN REFSMMAT FLAG
000292: 07,3067           70077                           MASK     FLAGWRD3
000293: 07,3070           54077                           TS       FLAGWRD3
000294:
000295: 07,3071           00002                           TC       Q
000296:
000297: 07,3072           40010        OCT40010           OCT      40010
000298:


000300:                                                                                                  #  IMU FINE ALIGN MODE SWITCH.
000301:
000302: 07,3073           00004        IMUFINE            INHINT
000303: 07,3074           03536                           TC       CAGETSTJ                              #  SEE IF IMU BEING CAGED.
000304:
000305: 07,3075           45027                           CS       BITS4-5                               #  RESET ZERO AND COARSE
000306: 07,3076           00006                           EXTEND
000307: 07,3077           03012                           WAND     CHAN12
000308:
000309: 07,3100           45012                           CS       BIT6                                  #  INSURE DAP AUTO AND HOLD MODES ENABLED
000310: 07,3101           71321                           MASK     IMODES33
000311: 07,3102           55321                           TS       IMODES33
000312:
000313: 07,3103           03151                           TC       NOATTOFF
000314:
000315: 07,3104           35006                           CAF      BIT10                                 #  IMU FAIL WAS INHIBITED DURING THE
000316: 07,3105           05245                           TC       WAITLIST                              #  PRESUMABLY PRECEDING COARSE ALIGN.  LEAVE
000317: 07,3106  E3,1474                                  EBANK=   CDUIND
000318: 07,3106           03117 16063                     2CADR    IFAILOK                               #  IT ON FOR THE FIRST 5 SECS OF FINE ALIGN
000319:
000320: 07,3110           35042                           CAF      2SECS
000321: 07,3111           05245                           TC       WAITLIST
000322: 07,3112  E3,1474                                  EBANK=   CDUIND
000323: 07,3112           03115 16063                     2CADR    IMUFINED
000324:
000325: 07,3114           12640                           TCF      MODEEXIT
000326:
000327: 07,3115           03524        IMUFINED           TC       CAGETEST                              #  SEE THAT NO ONE HAS CAGED THE IMU.
000328: 07,3116           13514                           TCF      ENDIMU
000329:


000331: 07,3117           03531        IFAILOK            TC       CAGETSTQ                              #  ENABLE IMU FIAL UNLESS IMU BEING CAGED.
000332: 07,3120           15324                           TCF      TASKOVER                              #  IT IS.
000333:
000334: 07,3121           35014                           CAF      BIT4                                  #  DONT RESET IMU FAIL INHIBIT IF SOMEONE
000335: 07,3122           00006                           EXTEND                                         #  HAS GONE INTO COARSE ALIGN.
000336: 07,3123           02012                           RAND     CHAN12
000337: 07,3124           10000                           CCS      A
000338: 07,3125           15324                           TCF      TASKOVER
000339:
000340: 07,3126           41320                           CS       IMODES30                              #  RESET IMUFAIL.
000341: 07,3127           75003                           MASK     BIT13
000342: 07,3130           27320                           ADS      IMODES30
000343: 07,3131           45014                           CS       BIT4
000344: 07,3132           71320        PFAILOK2           MASK     IMODES30
000345: 07,3133           55320                           TS       IMODES30
000346: 07,3134           04740                           TC       IBNKCALL                              #  THE ISS WARNING LIGHT MAY COME ON NOW
000347: 07,3135           14665                           CADR     SETISSW                               #  THAT THE INHIBIT HAS BEEN REMOVED.
000348: 07,3136           15324                           TCF      TASKOVER
000349:
000350: 07,3137           03531        PFAILOK            TC       CAGETSTQ                              #  ENABLE PIP FAIL PROG ALARM.
000351: 07,3140           15324                           TCF      TASKOVER
000352:
000353: 07,3141           41320                           CS       IMODES30                              #  RESET IMU AND PIPA FAIL BITS.
000354: 07,3142           75006                           MASK     BIT10
000355: 07,3143           27320                           ADS      IMODES30
000356:
000357: 07,3144           41321                           CS       IMODES33
000358: 07,3145           75003                           MASK     BIT13
000359: 07,3146           27321                           ADS      IMODES33
000360:
000361: 07,3147           45013                           CS       BIT5
000362: 07,3150           13132                           TCF      PFAILOK2
000363:
000364: 07,3151           43072        NOATTOFF           CS       OCT40010                              #  SUBROUTINE TO TURN OFF NO ATT LAMP.
000365: 07,3152           71036                           MASK     DSPTAB     +11D
000366: 07,3153           65001                           AD       BIT15
000367: 07,3154           55036                           TS       DSPTAB     +11D
000368: 07,3155           00002                           TC       Q
000369:


000371:                                                                                                  #  ROUITNES TO INITIATE AND TERMINATE PROGRAM USE OF THE PIPAS.  NO IMUSTALL REQUIRED IN EITHER CASE.
000372:
000373: 07,3156           45021        PIPUSE             CS       ZERO
000374: 07,3157           54037                           TS       PIPAX
000375: 07,3160           54040                           TS       PIPAY
000376: 07,3161           54041                           TS       PIPAZ
000377:
000378: 07,3162           03531        PIPUSE1            TC       CAGETSTQ                              #  DO NOT ENABLE PIPA FAIL IF IMU IS CAGED
000379: 07,3163           14675                           TCF      SWRETURN
000380:
000381: 07,3164           00004                           INHINT
000382: 07,3165           45017                           CS       BIT1                                  #  IF PIPA FAILS FROM NOW ON (UNTIL
000383: 07,3166           71320                           MASK     IMODES30                              #  PIPFREE), LIGHT ISS WARNING.
000384: 07,3167           55320                           TS       IMODES30
000385:
000386: 07,3170           04740        PIPFREE2           TC       IBNKCALL                              #  ISS WARNING MIGHT COME ON NOW.
000387: 07,3171           14665                           CADR     SETISSW                               #  (OR GO OFF ON PIPFREE).
000388:
000389: 07,3172           12640                           TCF      MODEEXIT
000390:
000391: 07,3173           00004        PIPFREE            INHINT                                         #  PROGRAM DONE WITH PIPAS.  DONT LIGHT
000392: 07,3174           41320                           CS       IMODES30                              #  ISS WARNING.
000393: 07,3175           75017                           MASK     BIT1
000394: 07,3176           27320                           ADS      IMODES30
000395:
000396: 07,3177           75006                           MASK     BIT10                                 #  IF PIP FAIL ON, DO PROG ALSRM AND RESET
000397: 07,3200           10000                           CCS      A                                     #  ISS WARNING.
000398: 07,3201           12640                           TCF      MODEEXIT
000399:
000400: 07,3202           05650                           TC       ALARM
000401: 07,3203           00212                           OCT      212
000402:
000403: 07,3204           00004                           INHINT
000404:
000405: 07,3205           13170                           TCF      PIPFREE2
000406:


000408:                                                                                                  #  THE FOLLOWING ROUTINE TORQUES THE IRIGS ACCORDING TO DOUBLE PRECISION INPUTS IN THE SIX REGISTERS
000409:                                                                                                  #  BEGINNING AT THE ECADR ARRIVING IN A.  THE MINIMUM SIZE OF ANY PULSE TRAIN IS 16 PULSES (.25 CDU COUNTS).  THE
000410:                                                                                                  #  UNSENT PORTION OF THE COMMAND IS LEFT INTACT IN THE INPUT COMMAND REGISTERS.
000411:
000412: 07,3206  E3,1400                                  EBANK=   1400                                  #  VARIABLE, ACTUALLY.
000413:
000414: 07,3206           54161        IMUPULSE           TS       MPAC       +5                         #  SAVE ARRIVING ECADR.
000415: 07,3207           03536                           TC       CAGETSTJ                              #  DONT PROCEED IF IMU BEING CAGED.
000416:
000417: 07,3210           11304                           CCS      LGYRO                                 #  SEE IF GYROS BUSY.
000418: 07,3211           03252                           TC       GYROBUSY                              #  SLEEP.
000419:
000420: 07,3212           54156                           TS       MPAC       +2
000421: 07,3213           35012                           CAF      BIT6                                  #  ENABLE THE POWER SUPPLY.
000422: 07,3214           00006                           EXTEND
000423: 07,3215           05014                           WOR      CHAN14
000424:
000425: 07,3216           35015                           CAF      FOUR
000426: 07,3217           05245        GWAKE2             TC       WAITLIST                              #  (IF A JOB WAS PUT TO SLEEP, THE POWER
000427: 07,3220  E3,1474                                  EBANK=   CDUIND                                #  SUPPLY IS LEFT ON BY THE WAKING JOB).
000428: 07,3220           03270 16063                     2CADR    STRTGYRO
000429:
000430: 07,3222           30161                           CA       MPAC       +5                         #  SET UP EBANK, SAVING CALLER'S EBANK FOR
000431: 07,3223           56003                           XCH      EBANK                                 #  RESTORATION ON RETURN.
000432: 07,3224           56161                           XCH      MPAC       +5
000433: 07,3225           55304                           TS       LGYRO                                 #  RESERVES GYROS.
000434: 07,3226           74373                           MASK     LOW8
000435: 07,3227           54061                           TS       ITEMP1
000436:
000437: 07,3230           35016                           CAF      TWO                                   #  FORCE SIGN AGREEMENT ON INPUTS.
000438: 07,3231           54157        GYROAGRE           TS       MPAC       +3
000439: 07,3232           60000                           DOUBLE
000440: 07,3233           60061                           AD       ITEMP1
000441: 07,3234           54160                           TS       MPAC       +4
000442: 07,3235           00006                           EXTEND
000443: 07,3236           50000                           INDEX    A
000444: 07,3237           31401                           DCA      1400
000445: 07,3240           52155                           DXCH     MPAC
000446: 07,3241           07226                           TC       TPAGREE
000447: 07,3242           52155                           DXCH     MPAC
000448: 07,3243           50160                           INDEX    MPAC       +4
000449: 07,3244           53401                           DXCH     1400
000450:
000451: 07,3245           10157                           CCS      MPAC       +3
000452: 07,3246           13231                           TCF      GYROAGRE
000453:
000454: 07,3247           30161                           CA       MPAC       +5                         #  RESTORE CALLER'S EBANK.
000455: 07,3250           54003                           TS       EBANK
000456: 07,3251           12640                           TCF      MODEEXIT
000457:


000459:                                                                                                  #  ROUTINES TO ALLOW TORQUING BY ONLY ONE JOB AT A TIME.
000460:
000461: 07,3252           00006        GYROBUSY           EXTEND                                         #  SAVE RETURN 2FCADR.
000462: 07,3253           30134                           DCA      BUF2
000463: 07,3254           52155                           DXCH     MPAC
000464: 07,3255           33267        REGSLEEP           CAF      LGWAKE
000465: 07,3256           15175                           TCF      JOBSLEEP
000466:
000467: 07,3257           11304        GWAKE              CCS      LGYRO                                 #  WHEN AWAKENED, SEE IF GYROS STILL BUSY.
000468: 07,3260           13255                           TCF      REGSLEEP                              #  IF SO, SLEEP SOME MORE.
000469:
000470: 07,3261           54156                           TS       MPAC       +2
000471: 07,3262           00006                           EXTEND
000472: 07,3263           30155                           DCA      MPAC
000473: 07,3264           52134                           DXCH     BUF2                                  #  RESTORE SWRETURN INFO.
000474: 07,3265           35017                           CAF      ONE
000475: 07,3266           13217                           TCF      GWAKE2
000476:
000477: 07,3267           17257        LGWAKE             CADR     GWAKE
000478:


000480:                                                                                                  #  GYRO-TORQUING WAITLIST TASKS.
000481:
000482: 07,3270           43511        STRTGYRO           CS       GDESELCT                              #  DE-SELECT LAST GYRO.
000483: 07,3271           00006                           EXTEND
000484: 07,3272           03014                           WAND     CHAN14
000485:
000486: 07,3273           03524                           TC       CAGETEST
000487:
000488: 07,3274           31304        STRTGYR2           CA       LGYRO                                 #  JUMP ON PHASE COUNTER IN BITS 13-14.
000489: 07,3275           00006                           EXTEND
000490: 07,3276           75014                           MP       BIT4
000491: 07,3277           50000                           INDEX    A
000492: 07,3300           13301                           TCF      +1
000493: 07,3301           03316                           TC       GSELECT                               #  =0.  DO Y GYRO.
000494: 07,3302           00202                           OCT      00202
000495:
000496: 07,3303           03316                           TC       GSELECT                               #  =1.  DO Z GYRO.
000497: 07,3304           00302                           OCT      00302
000498:
000499: 07,3305           03314                           TC       GSELECT    -2                         #  =2.  DO X GYRO.
000500: 07,3306           00100                           OCT      00100
000501:
000502: 07,3307           35021                           CAF      ZERO                                  #  =3.  DONE
000503: 07,3310           55304                           TS       LGYRO
000504: 07,3311           33267                           CAF      LGWAKE                                #  WAKE A POSSIBLE SLEEPING JOB.
000505: 07,3312           05201                           TC       JOBWAKE
000506:
000507: 07,3313           13115        NORESET            TCF      IMUFINED                              #  DO NOT RESET POWER SUPPLY


000509: 07,3314           45015                 -2        CS       FOUR                                  #  SPECIAL ENTRY TO REGRESS LGYRO FOR X.
000510: 07,3315           27304                           ADS      LGYRO
000511:
000512: 07,3316           50002        GSELECT            INDEX    Q                                     #  SELECT GYRO.
000513: 07,3317           30000                           CAF      0                                     #  PACKED WORD CONTAINS GYRO SELECT BITS
000514: 07,3320           54064                           TS       ITEMP4                                #  AND INCREMENT TO LGYRO.
000515: 07,3321           75023                           MASK     SEVEN
000516: 07,3322           65003                           AD       BIT13
000517: 07,3323           27304                           ADS      LGYRO
000518: 07,3324           54003                           TS       EBANK
000519: 07,3325           74373                           MASK     LOW8
000520: 07,3326           54061                           TS       ITEMP1
000521:
000522: 07,3327           45023                           CS       SEVEN
000523: 07,3330           70064                           MASK     ITEMP4
000524: 07,3331           54064                           TS       ITEMP4
000525:
000526: 07,3332           00006                           EXTEND                                         #  MOVE DP COMMAND TO RUPTREGS FOR TESTING.
000527: 07,3333           50061                           INDEX    ITEMP1
000528: 07,3334           31401                           DCA      1400
000529: 07,3335           52071                           DXCH     RUPTREG1
000530:
000531: 07,3336           10070                           CCS      RUPTREG1
000532: 07,3337           13352                           TCF      MAJ+
000533: 07,3340           13342                           TCF      +2
000534: 07,3341           13472                           TCF      MAJ-
000535:
000536: 07,3342           10071                           CCS      RUPTREG2
000537: 07,3343           13347                           TCF      MIN+
000538: 07,3344           13274                           TCF      STRTGYR2
000539: 07,3345           13467                           TCF      MIN-
000540: 07,3346           13274                           TCF      STRTGYR2
000541:


000543: 07,3347           63403        MIN+               AD       -GYROMIN                              #  SMALL POSITIVE COMMAND.  SEE IF AT LEAST
000544: 07,3350           00006                           EXTEND                                         #  16 GYRO PULSES.
000545: 07,3351           63274                           BZMF     STRTGYR2
000546:
000547: 07,3352           00006        MAJ+               EXTEND                                         #  DEFINITE POSITIVE OUTPUT.
000548: 07,3353           33513                           DCA      GYROFRAC
000549: 07,3354           20071                           DAS      RUPTREG1
000550:
000551: 07,3355           30064                           CA       ITEMP4                                #  SELECT POSITIVE TORQUING FOR THIS GYRO.
000552: 07,3356           00006                           EXTEND
000553: 07,3357           05014                           WOR      CHAN14
000554:
000555: 07,3360           36043                           CAF      LOW7                                  #  LEAVE NUMBER OF POSSIBLE 8192 AUGMENTS
000556: 07,3361           70071                           MASK     RUPTREG2                              #  TO INITIAL COMMAND IN MAJOR PART OF LONG
000557: 07,3362           56071                           XCH      RUPTREG2                              #  TERM STORAGE AND TRUNCATED FRACTION
000558: 07,3363           00006        GMERGE             EXTEND                                         #  IN MINOR PART.  THE MAJOR PART WILL BE
000559: 07,3364           75010                           MP       BIT8                                  #  COUNTED DOWN TO ZERO IN THE COURSE OF
000560: 07,3365           54062                           TS       ITEMP2                                #  PUTTING OUT THE ENTIRE COMMAND.
000561: 07,3366           30070                           CA       RUPTREG1
000562: 07,3367           00006                           EXTEND
000563: 07,3370           75007                           MP       BIT9
000564: 07,3371           54070                           TS       RUPTREG1
000565: 07,3372           30001                           CA       L
000566: 07,3373           00006                           EXTEND
000567: 07,3374           75002                           MP       BIT14
000568: 07,3375           26062                           ADS      ITEMP2                                #  INITIAL COMMAND.
000569:
000570: 07,3376           00006                           EXTEND                                         #  SEE IF MORE THAN ONE PULSE TRAIN NEEDED
000571: 07,3377           30071                           DCA      RUPTREG1                              #  (MORE THAN 16383 PULSES).
000572: 07,3400           67716                           AD       MINUS1
000573: 07,3401           10000                           CCS      A
000574: 07,3402           13426                           TCF      LONGGYRO
000575: 07,3403           77601        -GYROMIN           OCT      -176                                  #  MAY BE ADJUSTED TO SPECIFY MINIMUM CMD
000576: 07,3404           13410                           TCF      +4
000577:
000578: 07,3405           35002                           CAF      BIT14
000579: 07,3406           26062                           ADS      ITEMP2
000580: 07,3407           35021                           CAF      ZERO
000581:
000582: 07,3410           50061                 +4        INDEX    ITEMP1
000583: 07,3411           53401                           DXCH     1400


000585: 07,3412           30062                           CA       ITEMP2                                #  ENTIRE COMMAND.
000586: 07,3413           54047        LASTSEG            TS       GYROCMD
000587: 07,3414           00006                           EXTEND
000588: 07,3415           75006                           MP       BIT10                                 #  WAITLIST DT
000589: 07,3416           66214                           AD       THREE                                 #  TRUNCATION AND PHASE UNCERTAINTIES.
000590: 07,3417           05245                           TC       WAITLIST
000591: 07,3420  E3,1474                                  EBANK=   CDUIND
000592: 07,3420           03270 16063                     2CADR    STRTGYRO
000593:
000594: 07,3422           35006        GYROEXIT           CAF      BIT10
000595: 07,3423           00006                           EXTEND
000596: 07,3424           05014                           WOR      CHAN14
000597: 07,3425           15324                           TCF      TASKOVER
000598:
000599: 07,3426           50061        LONGGYRO           INDEX    ITEMP1
000600: 07,3427           53401                           DXCH     1400                                  #  INITIAL COMMAND OUT PLUS N AUGMENTS OF
000601: 07,3430           35002                           CAF      BIT14                                 #  8192.  INITIAL COMMAND IS AT LEAST 8192.
000602: 07,3431           60062                           AD       ITEMP2
000603: 07,3432           54047                           TS       GYROCMD
000604:
000605: 07,3433           00006        AUG3               EXTEND                                         #  GET WAITLIST DT TO TIME WHEN TRAIN IS
000606: 07,3434           75006                           MP       BIT10                                 #  ALMOST OUT.
000607: 07,3435           67714                           AD       NEG3
000608: 07,3436           05245                           TC       WAITLIST
000609: 07,3437  E3,1474                                  EBANK=   CDUIND
000610: 07,3437           03442 16063                     2CADR    8192AUG
000611:
000612: 07,3441           13422                           TCF      GYROEXIT
000613:
000614: 07,3442           03524        8192AUG            TC       CAGETEST
000615:
000616: 07,3443           35014                           CAF      BIT4
000617: 07,3444           00006                           EXTEND
000618: 07,3445           02012                           RAND     CHAN12
000619: 07,3446           10000                           CCS      A
000620: 07,3447           13522                           TCF      IMUBAD
000621: 07,3450           31304                           CA       LGYRO                                 #  ADD 8192 PULSES TO GYROCMD
000622: 07,3451           54003                           TS       EBANK
000623: 07,3452           74373                           MASK     LOW8
000624: 07,3453           54061                           TS       ITEMP1
000625:
000626: 07,3454           50061                           INDEX    ITEMP1                                #  SEE IF THIS IS THE LAST AUG.
000627: 07,3455           11400                           CCS      1400
000628: 07,3456           13462                           TCF      AUG2                                  #  MORE TO COME.
000629:
000630: 07,3457           35002                           CAF      BIT14
000631: 07,3460           26047                           ADS      GYROCMD
000632: 07,3461           13414                           TCF      LASTSEG    +1
000633:


000635: 07,3462           50061        AUG2               INDEX    ITEMP1
000636: 07,3463           55400                           TS       1400
000637: 07,3464           35002                           CAF      BIT14
000638: 07,3465           26047                           ADS      GYROCMD
000639: 07,3466           13433                           TCF      AUG3                                  #  COMPUTE DT.
000640:


000642: 07,3467           63403        MIN-               AD       -GYROMIN                              #  POSSIBLE NEGATIVE OUTPUT.
000643: 07,3470           00006                           EXTEND
000644: 07,3471           63274                           BZMF     STRTGYR2
000645:
000646: 07,3472           00006        MAJ-               EXTEND                                         #  DEFINITE NEGATIVE OUTPUT.
000647: 07,3473           43513                           DCS      GYROFRAC
000648: 07,3474           20071                           DAS      RUPTREG1
000649:
000650: 07,3475           30064                           CA       ITEMP4                                #  SELECT NEGATIVE TORQUING FOR THIS GYRO.
000651: 07,3476           65007                           AD       BIT9
000652: 07,3477           00006                           EXTEND
000653: 07,3500           05014                           WOR      CHAN14
000654:
000655: 07,3501           40070                           CS       RUPTREG1                              #  SET UP RUPTREGS TO FALL INTO GMERGE.
000656: 07,3502           54070                           TS       RUPTREG1                              #  ALL NUMBERS PUT INTO GYROCMD ARE
000657: 07,3503           40071                           CS       RUPTREG2                              #  POSITIVE - BIT9 OF CHAN 14 DETERMINES
000658: 07,3504           76043                           MASK     LOW7                                  #  THE SIGN OF THE COMMAND.
000659: 07,3505           40000                           COM
000660: 07,3506           56071                           XCH      RUPTREG2
000661: 07,3507           40000                           COM
000662: 07,3510           13363                           TCF      GMERGE
000663:
000664: 07,3511           01700        GDESELCT           OCT      1700                                  #  TURN OFF SELECT AND ACTIVITY BITS.
000665:
000666: 07,3512           00000 00034  GYROFRAC           2DEC     .215       B-21
000667:


000669:                                                                                                  #  IMU MODE SWITCHING ROUTINES COME HERE WHEN ACTION COMPLETE.
000670:
000671: 07,3514           00006        ENDIMU             EXTEND                                         #  MODE IS BAD IF CAGE HAS OCCURED OR IF
000672: 07,3515           00011                           READ     DSALMOUT                              #  ISS WARNING IS ON.
000673: 07,3516           75017                           MASK     BIT1
000674: 07,3517           10000                           CCS      A
000675: 07,3520           13522                           TCF      IMUBAD
000676:
000677: 07,3521           13550        IMUGOOD            TCF      GOODEND                               #  WITH C(A) = 0.
000678:
000679: 07,3522           35021        IMUBAD             CAF      ZERO
000680: 07,3523           13545                           TCF      BADEND
000681:
000682: 07,3524           35012        CAGETEST           CAF      BIT6                                  #  SUBROUTINE TO TERMINATE IMU MODE
000683: 07,3525           71320                           MASK     IMODES30                              #  SWITCH IF IMU HAS BEEN CAGED.
000684: 07,3526           10000                           CCS      A
000685: 07,3527           13522                           TCF      IMUBAD                                #  DIRECTLY.
000686: 07,3530           00002                           TC       Q                                     #  WITH C(A) = +0.
000687:
000688: 07,3531           41320        CAGETSTQ           CS       IMODES30                              #  SKIP IF IMU NOT BEING CAGED.
000689: 07,3532           75012                           MASK     BIT6
000690: 07,3533           10000                           CCS      A
000691: 07,3534           24002                           INCR     Q
000692: 07,3535           00002                           TC       Q
000693:
000694: 07,3536           41320        CAGETSTJ           CS       IMODES30                              #  IF DURING MODE SWITCH INITIALIZATION
000695: 07,3537           75012                           MASK     BIT6                                  #  IT IS FOUND THAT THE IMU IS BEING CAGED,
000696: 07,3540           10000                           CCS      A                                     #  SET IMUCADR TO -0 TO INDICATE OPERATION
000697: 07,3541           00002                           TC       Q                                     #  COMPLETE BUT FAILED.  RETURN IMMEDIATELY
000698: 07,3542           45021                           CS       ZERO                                  #  TO SWRETURN.
000699: 07,3543           55322                           TS       IMUCADR
000700: 07,3544           12640                           TCF      MODEEXIT
000701:


000703:                                                                                                  #  GENERALIZED MODE SWITCHING TERMINATION.  ENTER AT GOODEND FOR SUCCESSFUL COMPLETION OF AN I/O OPERATION
000704:                                                                                                  #  OR AT BADEND FOR AN UNSUCCESSFUL ONE.  C(A) OR ARRIVAL =0 FOR IMU, 1 FOR OPTICS.
000705:
000706: 07,3545           54071        BADEND             TS       RUPTREG2                              #  DEVICE INDEX.
000707: 07,3546           45021                           CS       ZERO                                  #  FOR FAILURE.
000708: 07,3547           13552                           TCF      GOODEND    +2
000709:
000710: 07,3550           54071        GOODEND            TS       RUPTREG2
000711: 07,3551           45017                           CS       ONE                                   #  FOR SUCCESS.
000712:
000713: 07,3552           54072                           TS       RUPTREG3
000714: 07,3553           50071                           INDEX    RUPTREG2                              #  SEE IF USING PROGRAM ASLEEP.
000715: 07,3554           11322                           CCS      MODECADR
000716: 07,3555           13557                           TCF      +2                                    #  YES - WAKE IT UP.
000717: 07,3556           13567                           TCF      ENDMODE                               #  IF 0, PROGRAM NOT IN YET.
000718:
000719: 07,3557           35021                           CAF      ZERO                                  #  WAKE SLEEPING PROGRAM.
000720: 07,3560           50071                           INDEX    RUPTREG2
000721: 07,3561           57322                           XCH      MODECADR
000722: 07,3562           05201                           TC       JOBWAKE
000723:
000724: 07,3563           40072                           CS       RUPTREG3                              #  ADVANCE LOC IF SUCCESSFUL.
000725: 07,3564           50064                           INDEX    LOCCTR
000726: 07,3565           26164                           ADS      LOC
000727:
000728: 07,3566           15324                           TCF      TASKOVER
000729:
000730: 07,3567           30072        ENDMODE            CA       RUPTREG3                              #  -0 INDICATES OPERATION COMPLETE BUT
000731: 07,3570           50071                           INDEX    RUPTREG2                              #  UNSUCCESSFUL - -1 INDICATES COMPLETE AND
000732: 07,3571           55322                           TS       MODECADR                              #  SUCCESSFUL.
000733: 07,3572           15324                           TCF      TASKOVER
000734:


000736:                                                                                                  #  GENERAL STALLING ROUTINE.  USING PROGRAMS COME HERE TO WAIT FOR I/O COMPLETION.
000737:
000738:                                                                                                  #  PROGRAM DESCRIPTION                           DATE - 21 FEB 1967
000739:                                                                                                  #                                                LOG SECTION IMU MODE SWITCHING
000740:                                                                                                  #  MOD BY - R. MELANSON TO ADD DOCUMENTATION     ASSEMBLY SUNDISK REV. 82
000741:
000742:                                                                                                  #  FUNCTIONAL DESCRIPTION -
000743:                                                                                                  #        TO DELAY FURTHER EXECUTION OF THE CALLING ROUTINE UNTIL ITS SELECTED
000744:                                                                                                  #        I/O FUNCTION IS COMPLETE.  THE FOLLOWING CHECKS ON THE CALLING ROUTINE:S
000745:                                                                                                  #        MODECADR ARE MADE AND ACTED UPON.
000746:                                                                                                  #        1) +0 INDICATES INCOMPLETE I/O OPERATION.  CALLING ROUTINE IS PUT TO
000747:                                                                                                  #           SLEEP.
000748:                                                                                                  #        2) -1 INDICATES COMPLETED I/O OPERATION.  STALL BYPASSES JOBSLEEP
000749:                                                                                                  #           CALL AND RETURNS TO CALLING ROUTINE AT L+3
000750:                                                                                                  #        3) -0 INDICATES COMPLETED I/O WITH FAILURE.  STALL CLEARS MODECADR
000751:                                                                                                  #           AND RETURNS TO CALLING ROUTINE AT L+2.
000752:                                                                                                  #        4) VALUE GREATER THAN 0 INDICATES TWO ROUTINES CALLING FOR USE OF
000753:                                                                                                  #           SAME DEVICE.  STALL EXITS TO ABORT WHICH EXECUTES A PROGRAM
000754:                                                                                                  #           RESTART WHICH IN TURN CLEARS ALL MODECADR REGISTERS.
000755:
000756:                                                                                                  #  CALLING SEQUENCE -
000757:                                                                                                  #        L       TC      BANKCALL
000758:                                                                                                  #        L+1     CADR    (ONE OF 5 STALL ADDRESSES  I.E. IMUSTALL, OPTSTALL, RADSTALL,
000759:                                                                                                  #                        AOTSTALL, OR ATTSTALL)
000760:
000761:                                                                                                  #  NORMAL-EXIT MODE -
000762:                                                                                                  #        TCF JOBSLEEP    OR      TCF MODEXIT
000763:
000764:                                                                                                  #  ALARM OR ABORT EXIT MODE -
000765:                                                                                                  #        TC      ABORT
000766:
000767:                                                                                                  #  OUTPUT -
000768:                                                                                                  #        MODECADR=CADR   IF JOBSLEEP
000769:                                                                                                  #        MODECADR=+0     IF I/O COMPLETE
000770:                                                                                                  #        BUF2=L+3        IF I/O COMPLETE AND GOOD.
000771:                                                                                                  #        BUF2=L+2        IF I/O COMPLETE BUT FAILED.
000772:
000773:                                                                                                  #  ERASABLE INITIALIZATION -
000774:                                                                                                  #        BUF2 CONTAINS RETURN ADDRESS PLUS 1,(L+2)
000775:                                                                                                  #        BUF2+1 CONTAINS FBANK VALUE OF CALLING ROUTINE.
000776:                                                                                                  #        MODECADR OF CALLING ROUTINE CONTAINS +0,-1,-0 OR CADR RETURN ADDRESS.
000777:
000778:                                                                                                  #  DEBRIS -
000779:                                                                                                  #        RUPTREG2 AND CALLING ROUTINE MODECADR.
000780:
000781: 07,3573           35017        AOTSTALL           CAF      ONE                                   #  AOT.
000782: 07,3574           03600                           TC       STALL
000783:
000784: 07,3575           35016        RADSTALL           CAF      TWO
000785: 07,3576           13600                           TCF      STALL
000786:


000788: 07,3577  07,3573               OPTSTALL           EQUALS   AOTSTALL
000789:
000790: 07,3577           35021        IMUSTALL           CAF      ZERO                                  #  IMU.
000791:
000792: 07,3600           00004        STALL              INHINT
000793: 07,3601           54071                           TS       RUPTREG2                              #  SAVE DEVICE INDEX.
000794: 07,3602           50000                           INDEX    A                                     #  SEE IF OPERATION COMPLETE.
000795: 07,3603           11322                           CCS      MODECADR
000796: 07,3604           13622                           TCF      MODABORT                              #  ALLOWABLE STATES ARE +0, -1, AND -0.
000797: 07,3605           13616                           TCF      MODESLP                               #  OPERATION INCOMPLETE.
000798: 07,3606           13612                           TCF      MODEGOOD                              #  COMPLETE AND GOOD IF = -1.
000799:
000800: 07,3607           50071        MG2                INDEX    RUPTREG2                              #  COMPLETE AND FAILED IF -0.  RESET TO +0.
000801: 07,3610           55322                           TS       MODECADR                              #  RETURN TO CALLER.
000802: 07,3611           12640                           TCF      MODEEXIT
000803:
000804: 07,3612           10000        MODEGOOD           CCS      A                                     #  MAKE SURE INITIAL STATE -1.
000805: 07,3613           13622                           TCF      MODABORT
000806:
000807: 07,3614           24133                           INCR     BUF2                                  #  IF SO, INCREMENT RETURN ADDRESS AND
000808: 07,3615           13607                           TCF      MG2                                   #  RETURN IMMEDIATELY, SETTING CADR = +0.
000809:
000810: 07,3616           04711        MODESLP            TC       MAKECADR                              #  CALL FROM SWITCHABLE FIXED ONLY.
000811: 07,3617           50071                           INDEX    RUPTREG2
000812: 07,3620           55322                           TS       MODECADR
000813: 07,3621           15175                           TCF      JOBSLEEP
000814:
000815: 07,3622           05721        MODABORT           TC       POODOO                                #  TWO PROGRAMS USING SAME DEVICE.
000816: 07,3623           01210                           OCT      1210
000817:


000819:                                                                                                  #  CONSTANTS FOR MODE SWITCHING ROUTINES
000820:
000821: 07,3624     5763               BITS3&4            =        OCT14
000822: 07,3624     5033               BITS4&6            =        OCT50
000823: 07,3624     5027               BITS4-5            EQUALS   BITS4&5
000824: 07,3624     5010               IMUSEFLG           EQUALS   BIT8                                  #  INTERPRETER SWITCH 7.
000825: 07,3624           77500        -COMMAX            DEC      -191       B-14
000826: 07,3625           77477        -COMMAX-           DEC      -192       B-14
000827: 07,3626           00074        600MS              DEC      60         B-14
000828: 07,3627  07,3073               IMUFIN20           =        IMUFINE
000829: 07,3627           31325        GOMANUR            CA       ATTCADR                               #  IS KALCMANU FREE
000830: 07,3630           00006                           EXTEND
000831: 07,3631           13634                           BZF      +3
000832: 07,3632           05721                           TC       POODOO                                #  NO
000833: 07,3633           01210                           OCT      1210                                  #  2 TRYING TO USE SAME DEVICE
000834:
000835: 07,3634           00006                 +3        EXTEND
000836: 07,3635           30134                           DCA      BUF2
000837: 07,3636           53326                           DXCH     ATTCADR                               #  SAVE FINAL RETURN FOR KALCMAN3
000838:
000839: 07,3637           30006                           CA       BBANK
000840: 07,3640           75023                           MASK     SEVEN
000841: 07,3641           27326                           ADS      ATTCADR    +1
000842:
000843: 07,3642           30167                           CA       PRIORITY
000844: 07,3643           77674                           MASK     PRIO37
000845: 07,3644           55327                           TS       ATTPRIO                               #  SAVE USERS PRIO
000846:
000847: 07,3645           33651                           CAF      KALEBCON                              #  SET EBANK FOR KALCMAN3
000848: 07,3646           54003                           TS       EBANK
000849: 07,3647           04701                           TC       POSTJUMP
000850: 07,3650           44000                           CADR     KALCMAN3
000851: 07,3651           03261        KALEBCON           ECADR    BCDU
000852:


000854:                                                                                                  #  PROGRAM DESCRIPTION
000855:                                                                                                  #  IMU STATUS CHECK ROUTINE R02 (SUBROUTINE UTILITY)
000856:                                                                                                  #  MOD NO - 1
000857:                                                                                                  #  MOD BY - N.BRODEUR
000858:
000859:                                                                                                  #  FUNCTIONAL DESCRIPTION
000860:                                                                                                  #        TO CHECK WHETHER IMU IS ON AND IF ON WHETHER IT IS ALIGNED TO AN
000861:                                                                                                  #        ORIENTATION KNOWN BY THE CMC.  TO REQUEST SELECTION OF THE APPROPRIATE
000862:                                                                                                  #        PROGRAM IF THE IMU IS OFF OR NOT ALIGNED TO AN ORIENTATION KNOWN BY THE
000863:                                                                                                  #        CMC.  CALLED THROUGH BANKCALL
000864:
000865:                                                                                                  #  CALLING SEQUENCE -
000866:                                                                                                  #        L       TC      BANKCALL
000867:                                                                                                  #        L+1     CADR    R02BOTH
000868:
000869:                                                                                                  #  SUBROUTINES CALLED
000870:                                                                                                  #        VARALARM
000871:                                                                                                  #        FLAGUP
000872:
000873:                                                                                                  #  NORMAL EXIT MODES
000874:                                                                                                  #        AT L+2 OF CALLING SEQUENCE
000875:
000876:                                                                                                  #  ALARM OR ABORT EXIT MODES
000877:                                                                                                  #        GOTOPOOH, WITH ALARM
000878:
000879:                                                                                                  #  ERASABLE INITIALIZATION REQUIRED
000880:                                                                                                  #        NONE
000881:
000882:                                                                                                  #  DEBRIS
000883:                                                                                                  #        CENTRALS - A,Q,L
000884:
000885: 34,3763                                           BANK     34
000886: 07,2000                                           SETLOC   R02
000887: 07,2000                                           BANK
000888: 07,3652                                           COUNT    04/R02                                #  COUNT*
000889:
000890: 07,3652           00063        DEC51              DEC      51         B-14
000891: 07,3653           35003        R02BOTH            CAF      BIT13
000892: 07,3654           70077                           MASK     STATE      +3                         #  REFSMFLG
000893: 07,3655           10000                           CCS      A
000894: 07,3656           03667                           TC       R02ZERO                               #  ZERO IMUS
000895:
000896: 07,3657           31320                           CA       IMODES30
000897: 07,3660           75007                           MASK     BIT9                                  #  IS ISS INITIALIZED
000898: 07,3661           00006                           EXTEND
000899: 07,3662           13664                           BZF      +2
000900: 07,3663           45014                           CS       BIT4                                  #  SEND IMU ALARM CODE 210
000901: 07,3664           63672                           AD       OCT220                                #  SEND REFSMM ALARM
000902: 07,3665           05756                           TC       VARALARM
000903:
000904: 07,3666           04106                           TC       GOTOPOOH
000905:


000907: 07,3667           05546        R02ZERO            TC       UPFLAG
000908: 07,3670           00007                           ADRES    IMUSE
000909: 07,3671           14675                           TCF      SWRETURN
000910: 07,3672           00220        OCT220             OCT      220
000911:


000913:                                                                                                  #  PROGRAM DESCRIPTION   P06             10FEB67
000914:
000915:                                                                                                  #  TRANSFER THE ISS/CMC FROM THE OPERATE TO THE STANDBY CONDITION.
000916:
000917:                                                                                                  #  THE NORMAL CONDITION OF READINESS OF THE GNCS WHEN NOT IN USE IS STANDBY.  IN THIS CONDITION THE IMU
000918:                                                                                                  #  HEATER POWER IS ON.  THE IMU OPERATE POWER IS OFF.  THE COMPUTER POWER IS ON.  THE OPTICS POWER IS OFF.  THE
000919:                                                                                                  #  CMC STANDBY ON THE MAIN AND LEB DISKYS IS ON.
000920:
000921:                                                                                                  #  CALLING SEQUENCE:
000922:                                                                                                  #        ASTRONAUT REQUEST THROUGH DSKY  V37E 06E.
000923:
000924:                                                                                                  #  SUBROUTINES CALLED:
000925:                                                                                                  #        GOPERF1
000926:                                                                                                  #        BANKCALL
000927:                                                                                                  #        FLAGDOWN
000928:


000930:                                                                                                  #  PRESTAND PREPARES FOR STANDBY BY SNAPSHOTTING THE SCALER AND TIME1 TIME2
000931:                                                                                                  #  THE LOW 5 BITS OF THE SCALER ARE INSPECTED TO INSURE COMPATABILITY
000932:                                                                                                  #  BETWEEN THE SCALER READING AND THE TIME1 TIME2 READING.
000933:
000934: 26,2000                                           SETLOC   P05P06
000935: 26,2000                                           BANK
000936:
000937: 26,3660     1150                                  EBANK=   TIME2SAV
000938: 26,3660                                           COUNT*   $$/P06
000939:
000940: 26,3660           05546        P06                TC       UPFLAG                                #  SET NODOV37 BIT
000941: 26,3661           00054                           ADRES    NODOFLAG
000942:
000943: 26,3662           00004        PRESTAND           INHINT
000944: 26,3663           00006                           EXTEND
000945: 26,3664           30025                           DCA      TIME2                                 #  SNAPSHOT TIME1 TIME2
000946: 26,3665           53151                           DXCH     TIME2SAV
000947: 26,3666           03717                           TC       SCALPREP
000948: 26,3667           03662                           TC       PRESTAND                              #  T1,T2,SCALER NOT COMPATIBLE
000949: 26,3670           52155                           DXCH     MPAC                                  #  T1,T2 AND SCALER OK
000950: 26,3671           53153                           DXCH     SCALSAVE                              #  STORE SCALER
000951: 26,3672           00004                           INHINT
000952: 26,3673           04662                           TC       BANKCALL
000953: 26,3674           17060                           CADR     RNDREFDR                              #  REFSMM, DRIFT, TRACK FLAGS DOWN
000954:
000955: 26,3675           05560                           TC       DOWNFLAG
000956: 26,3676           00007                           ADRES    IMUSE                                 #  IMUSE DOWN
000957: 26,3677           05560                           TC       DOWNFLAG
000958: 26,3700           00010                           ADRES    RNDVZFLG                              #  RNDVZFLG DOWN
000959:
000960: 26,3701           35005                           CAF      BIT11
000961: 26,3702           00006                           EXTEND
000962: 26,3703           05013                           WOR      CHAN13                                #  SET STANDBY ENABLE BIT
000963:
000964: 26,3704           05412                           TC       PHASCHNG                              #  SET RESTART TO POSTAND WHEN STANDBY
000965: 26,3705           07024                           OCT      07024                                 #        RECOVERS
000966: 26,3706           20000                           OCT      20000
000967: 26,3707     1152                                  EBANK=   SCALSAVE
000968: 26,3707           03737 54062                     2CADR    POSTAND
000969:
000970: 26,3711           35036                           CAF      OCT62
000971: 26,3712           04662                           TC       BANKCALL
000972: 26,3713           21045                           CADR     GOPERF1
000973: 26,3714           13711                           TCF      -3
000974: 26,3715           13711                           TCF      -4
000975: 26,3716           13711                           TCF      -5
000976:
000977: 26,3717     5036               OCT62              EQUALS   .5SEC                                 #  DEC 50 = OCT 62
000978:
000979:                                                                                                  #  THE LOW 5 BITS OF THE SCALER READS 10000 FOR THE FIRST INTERVAL AFTER A


000981:                                                                                                  #  T1 INCREMENT.  IF SCALPREP DETECTS THIS INTERVAL THE T1,T2 AND SCALER
000982:                                                                                                  #  DATA ARE NOT COMPATABLE AND RETURN IS TO L+1 FOR ANOTHER READING OF THE
000983:                                                                                                  #  DATA.  OTHERWISE, THE RETURN IS TO L+2 TO PROCEED.  ROUTINE ALSO PREPARES
000984:                                                                                                  #  THE SCALER READING FOR COMPUTATION OF THE INCREMENT TO UPDATE T1T2.  (THE
000985:                                                                                                  #  10 MS BIT (BIT 6) OF THE SCALER IS INCREMENTED 5 MS OUT OF PHASE FROM
000986:                                                                                                  #  T1.) ADDITION OF 5 MS (BIT 5) TO THE SCALER READING HAS THE EFFECT OF
000987:                                                                                                  #  ADJUSTING BIT 6 IN THE SCALER TO BE IN PHASE WITH BIT 1 OF T1.  THE LOW 5
000988:                                                                                                  #  BITS OF THE SCALER READING ARE THEN SET TO ZERO, TO TRUNCATE THE SCALER
000989:                                                                                                  #  DATA TO 10 MS.  RESULTS ARE STORED IN MPAC, +1.
000990:
000991: 26,3717           00006        SCALPREP           EXTEND
000992: 26,3720           22156                           QXCH     MPAC       +2
000993: 26,3721           04554                           TC       FINETIME   +1
000994: 26,3722           00003                           RELINT
000995: 26,3723           52155                           DXCH     MPAC
000996: 26,3724           35013                           CA       BIT5                                  #  ADD 5 MS TO THE SCALER READING.
000997: 26,3725           54001                           TS       L
000998: 26,3726           35021                           CA       ZERO
000999: 26,3727           20155                           DAS      MPAC
001000: 26,3730           44362                           CS       LOW5                                  #  SET LOW 5 BITS OF (SCALER+5MS) TO ZERO
001001: 26,3731           70155                           MASK     MPAC       +1                         #  AND STORE RESULTS IN MPAC,+1.
001002: 26,3732           56155                           XCH      MPAC       +1
001003: 26,3733           74362                           MASK     LOW5                                  #  TEST LOW 5 BITS OF SCALER FOR THE FIRST
001004:                                                                                                  #  INTERVAL AFTER THE T1 INCREMENT
001005:                                                                                                  #  (NOW = 00000, SINCE BIT 5 ADDED).
001006: 26,3734           10000                           CCS      A                                     #  IS IT 1ST INTERVAL AFTER T1 INCREMENT
001007: 26,3735           24156                           INCR     MPAC       +2                         #  NO
001008: 26,3736           00156                           TC       MPAC       +2                         #  YES
001009:
001010:                                                                                                  #  POSTAND RECOVERS TIME AFTER STANDBY.  THE SCALER IS SNAPSHOTTED AND THE
001011:                                                                                                  #  TIME1 TIME2 COUNTER IS SET TO ZERO.  THE LOW 5 BITS OF THE SCALER ARE
001012:                                                                                                  #  INSPECTED TO INSURE COMPATABILITY BETWEEN THE SCALER READING AND THE
001013:                                                                                                  #  CLEARING OF THE TIME COUNTER.  IT THEN COMPUTES THE DIFFERENCE IN SCALER
001014:                                                                                                  #  VALUES (IN DP) AND ADDS THIS TO THE PREVIOUSLY SNAPSHOTTED VALUES OF
001015:                                                                                                  #  TIME1 TIME2 AND PLACES THIS NEW TIME INTO THE TIME1 TIME2 COUNTER.
001016:
001017: 26,3737                                           COUNT*   $$/P05
001018:
001019: 26,3737           45005        POSTAND            CS       BIT11                                 #  RECOVER TIME AFTER STANDBY.
001020: 26,3740           00006                           EXTEND
001021: 26,3741           03013                           WAND     CHAN13                                #  CLEAR STANDBY ENABLE BIT
001022: 26,3742           00004                           INHINT
001023: 26,3743           35021                           CA       ZERO
001024: 26,3744           54001                           TS       L
001025: 26,3745           52025                           DXCH     TIME2                                 #  CLEAR TIME1 TIME2
001026: 26,3746           03717                           TC       SCALPREP                              #  STORE SCALER IN MPAC, MPAC+1
001027: 26,3747           03742                           TC       POSTAND    +3                         #  T1,T2,SCALER NOT COMPATIBLE
001028: 26,3750           00006                           EXTEND                                         #  T1,T2 AND SCALER OK
001029: 26,3751           41153                           DCS      SCALSAVE
001030: 26,3752           20155                           DAS      MPAC                                  #  FORM DP DIFFERENCE OF POSTSTANDBY SCALER


001032: 26,3753           35006                           CAF      BIT10                                 #  MINUS PRESTANDBY SCALER AND SHIFT RIGHT
001033: 26,3754           07256                           TC       SHORTMP                               #  5 TO ALIGN BITS WITH TIME1 TIME2.
001034: 26,3755           35021                           CAF      ZERO
001035: 26,3756           54156                           TS       MPAC       +2                         #  NEEDED FOR TP AGREE
001036: 26,3757           07226                           TC       TPAGREE                               #  MAKE DP DIFF AGREE
001037: 26,3760           10154                           CCS      MPAC
001038: 26,3761           03766                           TC       POSTCOM                               #  IF DP DIFF NET +, NO SCALER OVERFLOW
001039: 26,3762           03766                           TC       POSTCOM                               #  BETWEEN PRE AND POST STANDBY.
001040: 26,3763           03764                           TC       +1                                    #  IF DP DIFF NET -, SCALER OVERFLOWED.  ADD
001041: 26,3764           35006                           CAF      BIT10                                 #  BIT 10 TO HIGH DIFF TO CORRECT.
001042: 26,3765           26154                           ADS      MPAC
001043: 26,3766           00006        POSTCOM            EXTEND                                         #  C(MPAC,+1) IS MAGNITUDE OF DELTA SCALER.
001044: 26,3767           31151                           DCA      TIME2SAV                              #  PRESTANDBY TIME1 TIME2
001045: 26,3770           20155                           DAS      MPAC
001046: 26,3771           07226                           TC       TPAGREE                               #  FORCE SIGN AGREEMENT
001047: 26,3772           52155                           DXCH     MPAC                                  #  UPDATED VALUE FOR T1,T2.
001048: 26,3773           20025                           DAS      TIME2                                 #  LOAD UPDATED VALUE INTO T1,T2, WITH
001049: 26,3774           05560                           TC       DOWNFLAG                              #  CLEAR NODOFLAG
001050: 26,3775           00054                           ADRES    NODOFLAG
001051:
001052: 26,3776           04106                           TC       GOTOPOOH
001053:
001054:
001055:

End of include-file IMU_MODE_SWITCHING_ROUTINES.agc.  Parent file is MAIN.agc


