
Source Code


000002:                                                                                                  ## Copyright:   Public domain.
000003:                                                                                                  ## Filename:    JET_SELECTION_LOGIC.agc
000004:                                                                                                  ## Purpose:     A section of Manche45 revision 2.
000005:                                                                                                  ##              It is part of the reconstructed source code for the
000006:                                                                                                  ##              final, flown release of the flight software for the Command
000007:                                                                                                  ##              Module's (CM) Apollo Guidance Computer (AGC) for Apollo 10.
000008:                                                                                                  ##              The code has been recreated from a copy of Comanche 055. It
000009:                                                                                                  ##              has been adapted such that the resulting bugger words
000010:                                                                                                  ##              exactly match those specified for Manche 45/2 in NASA drawing
000011:                                                                                                  ##              2021153D, which gives relatively high confidence that the
000012:                                                                                                  ##              reconstruction is correct.
000013:                                                                                                  ## Assembler:   yaYUL
000014:                                                                                                  ## Contact:     Ron Burkey <info@sandroid.org>.
000015:                                                                                                  ## Website:     www.ibiblio.org/apollo/index.html
000016:                                                                                                  ## Mod history: 2020-12-24 MAS  Created from Comanche 45.
000017:


000019: 21,3765                                           BANK     21
000020: 17,2000                                           SETLOC   DAPS4
000021: 17,2000                                           BANK
000022:
000023: 17,2552                                           COUNT    17/DAPJS
000024:
000025: 17,2552  E6,1510                                  EBANK=   KMPAC
000026:
000027:                                                                                                  #  EXAMINE CHANNEL 31 FOR TRANSLATION COMMANDS
000028:
000029: 17,2552           22016        JETSLECT           LXCH     BANKRUPT
000030: 17,2553           32634                           CAF      DELTATT3                              #  = 60 MS  RESET TO EXECUTE PHASE1
000031: 17,2554           61634                           AD       T5TIME
000032: 17,2555           54030                           TS       TIME5
000033: 17,2556           12561                           TCF      +3
000034: 17,2557           32635                           CAF      DELATT20                              #  = 20 MS  TO ASSURE A T5RUPT
000035: 17,2560           54030                           TS       TIME5
000036: 17,2561           33313                           CAF      =14MS                                 #  RESET T6 TO INITIALIZE THE JET CHANNELS
000037: 17,2562           54031                           TS       TIME6                                 #  IN 14 MS
000038: 17,2563           35001                           CAF      NEGMAX
000039: 17,2564           00006                           EXTEND
000040: 17,2565           05013                           WOR      CHAN13
000041: 17,2566           00006                           EXTEND
000042: 17,2567           22012                           QXCH     QRUPT
000043: 17,2570           32633                           CAF      XLNMASK                               #  = 7700 OCT
000044: 17,2571           00006                           EXTEND                                         #  EXAMINE THE TRANSLATION
000045: 17,2572           06031                           RXOR     CHAN31                                #  HAND CONTROLLER
000046: 17,2573           72633                           MASK     XLNMASK
000047: 17,2574           00006                           EXTEND
000048: 17,2575           12636                           BZF      NOXLNCMD
000049: 17,2576           55502                           TS       T5TEMP
000050: 17,2577           00006                           EXTEND
000051: 17,2600           75007                           MP       BIT9
000052: 17,2601           76214                           MASK     THREE
000053: 17,2602           55513                           TS       XNDX1                                 #  AC QUAD  X-TRANSLATION INDEX
000054: 17,2603           55514                           TS       XNDX2                                 #  BD QUAD  X-TRANSLATION INDEX
000055: 17,2604           31502                           CA       T5TEMP
000056: 17,2605           00006                           EXTEND                                         #  1 = + XLN
000057: 17,2606           75011                           MP       BIT7                                  #  2 = - XLN
000058: 17,2607           76214                           MASK     THREE                                 #  3 = NO XLN
000059: 17,2610           55515                           TS       YNDX                                  #  Y-TRANSLATION INDEX
000060:
000061: 17,2611           31502                           CA       T5TEMP
000062: 17,2612           00006                           EXTEND
000063: 17,2613           75013                           MP       BIT5
000064: 17,2614           76214                           MASK     THREE
000065: 17,2615           55516                           TS       ZNDX                                  #  Z-TRANSLATION INDEX
000066:
000067: 17,2616           31466                           CA       DAPDATR1                              #  SET ATTKALMN TO PICK UP FILTER GAINS FOR
000068: 17,2617           75002                           MASK     BIT14                                 #  TRANSLATIONS.
000069: 17,2620           00006                           EXTEND                                         #  CHECK DAPDATR1 BIT 14 FOR LEM ATTACHED.


000071: 17,2621           12624                           BZF      NOLEM
000072: 17,2622           46214                           CS       THREE                                 #  IF LEM IS ON, SET ATTKALMN = -3
000073: 17,2623           12625                           TCF      +2
000074: 17,2624           45016        NOLEM              CS       TWO                                   #  IF LEM IS OFF, SET ATTKALMN = -2.
000075: 17,2625           55617                           TS       ATTKALMN
000076: 17,2626           11631                           CCS      XTRANS                                #  (+, -1, 0)
000077: 17,2627           55513                           TS       XNDX1                                 #  USING BD-X  ZERO XNDX1
000078: 17,2630           12642                           TCF      PWORD
000079: 17,2631           55514                           TS       XNDX2                                 #  USING AC-X  ZERO XNDX2
000080: 17,2632           12642                           TCF      PWORD
000081: 17,2633           07700        XLNMASK            OCT      7700
000082:
000083: 17,2634           37772        DELTATT3           DEC      16378      B-14                       #  = 60 MS
000084: 17,2635           37776        DELATT20           DEC      16382      B-14                       #  = 20 MS
000085:
000086: 17,2636           55513        NOXLNCMD           TS       XNDX1                                 #  ZERO ALL REQUESTS FOR TRANSLATION
000087: 17,2637           55514                           TS       XNDX2
000088: 17,2640           55515                           TS       YNDX
000089: 17,2641           55516                           TS       ZNDX
000090:
000091:                                                                                                  #  PITCH COMMANDS  TIMING(NO X-TRANS, NO QUAD FAILS) 32MCT
000092:
000093: 17,2642           11562        PWORD              CCS      TAU1                                  #  CHECK FOR PITCH COMMANDS
000094: 17,2643           35017                           CAF      ONE
000095: 17,2644           12646                           TCF      +2                                    #   0 = NO PITCH
000096: 17,2645           35016                           CAF      TWO                                   #  +1 =  + PITCH
000097: 17,2646           55520                           TS       PINDEX                                #  +2 =  - PITCH
000098:
000099: 17,2647           11626                           CCS      RACFAIL                               #  FLAG FOR REAL AC QUAD FAILURES
000100: 17,2650           12654                           TCF      AFAILP
000101: 17,2651           12664                           TCF      TABPCOM                               #  0 = NO REAL AC FAILURES
000102: 17,2652           12656                           TCF      CFAILP                                #  + = A QUAD FAILED
000103: 17,2653           12664                           TCF      TABPCOM                               #  - = C QUAD FAILED
000104:                                                                                                  #  IF FAILURES ARE PRESENT IGNORE
000105:                                                                                                  #  X-TRANSLATIONS ON THIS AXIS
000106:
000107: 17,2654           34334        AFAILP             CAF      NINE                                  #  IF FAILURE IS PRESENT 1JET OPERATION
000108: 17,2655           12666                           TCF      TABPCOM    +2                         #  IS ASSUMED.  IGNORE X-TRANSLATION
000109: 17,2656           35763        CFAILP             CAF      TWELVE
000110: 17,2657           12666                           TCF      TABPCOM    +2
000111:
000112: 17,2660           00000        XLNNDX             DEC      0          B-14                       #  INDECES FOR TRANSLATION COMMANDS
000113: 17,2661           00003                           DEC      3          B-14                       #  FOR USE IN TABLE LOOK UP
000114: 17,2662           00006                           DEC      6          B-14
000115: 17,2663           00000                           DEC      0          B-14
000116:
000117: 17,2664     5763               TWELVE             =        OCT14
000118:
000119:                                                                                                  #  TABLE LOOK UP FOR PITCH COMMANDS WITH AND WITHOUT X-TRANSLATION AND AC QUAD FAILURES PRESENT.
000120:                                                                                                  #  BITS 9, 10 CONTAIN THE NUMBER OF PITCH JETS USED TO PERFORM THE PITCH ROTATION


000122:
000123: 17,2664           51513        TABPCOM            INDEX    XNDX1
000124: 17,2665           32660                           CA       XLNNDX
000125: 17,2666           61520                           AD       PINDEX
000126: 17,2667           50000                           INDEX    A
000127: 17,2670           32714                           CA       PYTABLE
000128: 17,2671           72733                           MASK     PJETS                                 #  =1417 OCT
000129: 17,2672           55453                           TS       PWORD1
000130: 17,2673           00006                           EXTEND
000131: 17,2674           75011                           MP       BIT7
000132: 17,2675           55523                           TS       NPJETS                                #  = NO. OF PITCH JETS
000133:
000134:                                                                                                  #  YAW JET COMMANDS  TIMING(NO X-TRANS, NO QUAD FAILURES)  32MCT
000135:
000136: 17,2676           11563        YWORD              CCS      TAU2                                  #  CHECK FOR YAW COMMANDS
000137: 17,2677           35017                           CAF      ONE
000138: 17,2700           12702                           TCF      +2
000139: 17,2701           35016                           CAF      TWO
000140: 17,2702           55521                           TS       YINDEX                                #  YAW ROTATION INDEX
000141:
000142: 17,2703           11627                           CCS      RBDFAIL                               #  FLAG FOR B OR D QUAD FAILURES
000143: 17,2704           12710                           TCF      BFAILY                                #  0 = NO BD FAILURE
000144: 17,2705           12735                           TCF      TABYCOM                               #  + = B QUAD FAILED
000145: 17,2706           12712                           TCF      DFAILY                                #  - = D QUAD FAILED
000146: 17,2707           12735                           TCF      TABYCOM
000147:
000148: 17,2710           34334        BFAILY             CAF      NINE
000149: 17,2711           12737                           TCF      TABYCOM    +2
000150: 17,2712           35763        DFAILY             CAF      TWELVE
000151: 17,2713           12737                           TCF      TABYCOM    +2
000152:


000154:                                                                                                  #  TABLE FOR PITCH(YAW) COMMANDS
000155:                                                                                                  #  BITS 4,3,2,1 = PITCH, X-TRANSLATION JETS SELECTED
000156:                                                                                                  #  BITS    10,9 = NO. PITCH JETS USED TO PERFORM ROTATION
000157:                                                                                                  #  BITS 8,7,6,5 = YAW, X-TRANSLATION JETS SELECTED
000158:                                                                                                  #  BITS 12,11:  NO. YAW JETS USED TO PERFORM ROTATION
000159:
000160:                                                                                                  #  ROT   TRANS   QUAD    BIAS
000161: 17,2714           00000        PYTABLE            OCT      0                                     #  0     0               0
000162: 17,2715           05125                           OCT      5125                                  #  +     0               0
000163: 17,2716           05252                           OCT      5252                                  #  -     0               0
000164: 17,2717           00231                           OCT      0231                                  #  0     +               3
000165: 17,2720           02421                           OCT      2421                                  #  +     +               3
000166: 17,2721           02610                           OCT      2610                                  #  -     +               3
000167: 17,2722           00146                           OCT      0146                                  #  0     -               6
000168: 17,2723           02504                           OCT      2504                                  #  +     -               6
000169: 17,2724           02442                           OCT      2442                                  #  -     -               6
000170: 17,2725           00000                           OCT      0                                     #  0             A(B)    9
000171: 17,2726           02421                           OCT      2421                                  #  +             A(B)    9
000172: 17,2727           02442                           OCT      2442                                  #  -             A(B)    9
000173: 17,2730           00000                           OCT      0                                     #  0             C(D)    12
000174: 17,2731           02504                           OCT      2504                                  #  +             C(D)    12
000175: 17,2732           02610                           OCT      2610                                  #  -             C(D)    12
000176:
000177:                                                                                                  #  MASKS FOR PITCH AND YAW COMMANDS
000178:
000179: 17,2733           01417        PJETS              OCT      1417
000180: 17,2734           06360        YJETS              OCT      6360
000181:
000182:                                                                                                  #  TABLE LOOK UP FOR YAW COMMANDS WITH AND WITHOUT X-TRANSLATION AND AC QUAD FAILURES PRESENT
000183:                                                                                                  #  BITS 11, 12 CONTAIN THE NUMBER OF YAW JETS USED TO PERFORM THE YAW ROTATION
000184:
000185: 17,2735           51514        TABYCOM            INDEX    XNDX2
000186: 17,2736           32660                           CA       XLNNDX
000187: 17,2737           61521                           AD       YINDEX
000188: 17,2740           50000                           INDEX    A
000189: 17,2741           32714                           CA       PYTABLE
000190: 17,2742           72734                           MASK     YJETS                                 #  = 6360 OCT
000191: 17,2743           55455                           TS       YWORD1
000192: 17,2744           00006                           EXTEND
000193: 17,2745           75013                           MP       BIT5
000194: 17,2746           55524                           TS       NYJETS                                #  NO. OF YAW JETS USED TO PERFORM ROTATION
000195:


000197:                                                                                                  #  ROLL COMMANDS  TIMING(NO Y,Z TRANS, NO QUAD FAILS)  45MCT
000198:
000199: 17,2747           11561        RWORD              CCS      TAU                                   #  CHECK FOR ROLL COMMANDS
000200: 17,2750           35017                           CAF      ONE
000201: 17,2751           12753                           TCF      +2
000202: 17,2752           35016                           CAF      TWO
000203: 17,2753           55517                           TS       RINDEX
000204:
000205: 17,2754           11630                           CCS      ACORBD                                #  FLAG FOR AC OR BD QUAD SELECTION FOR
000206: 17,2755           13046                           TCF      BDROLL                                #  ROLL COMMANDS
000207: 17,2756           13046                           TCF      BDROLL                                #  +, +0 = BD ROLL
000208: 17,2757           12760                           TCF      +1                                    #  -, -0 = AC ROLL
000209:
000210: 17,2760           11626        ACROLL             CCS      RACFAIL                               #  CHECK FOR REAL FAILURES
000211: 17,2761           12765                           TCF      RAFAIL                                #  ON AC QUADS
000212: 17,2762           12775                           TCF      RXLNS
000213: 17,2763           12767                           TCF      RCFAIL
000214: 17,2764           12775                           TCF      RXLNS
000215:
000216: 17,2765           34334        RAFAIL             CAF      NINE                                  #  QUAD FAILURE WILL GET
000217: 17,2766           12777                           TCF      TABRCOM                               #  1-JET OPERATION
000218: 17,2767           35763        RCFAIL             CAF      TWELVE
000219: 17,2770           12777                           TCF      TABRCOM
000220:
000221: 17,2771           00000        XLN1NDX            DEC      0          B-14
000222: 17,2772           00001                           DEC      1          B-14                       #  INDECES FOR TRANSLATION
000223: 17,2773           00002                           DEC      2          B-14
000224: 17,2774           00000                           DEC      0          B-14
000225:
000226:                                                                                                  #  TABLE LOOK UP FOR AC-ROLL COMMANDS WITH AND WITHOUT Y-TRANSLATION AND ACQUAD FAILURES PRESENT
000227:                                                                                                  #  BITS 9,10,11 CONTAIN THE MAGNITUDE AND DIRECTION OF THE ROLL
000228:
000229: 17,2775           51515        RXLNS              INDEX    YNDX                                  #  NO AC QUAD FAILURES
000230: 17,2776           32660                           CA       XLNNDX                                #  INCLUDE +,-,0, Y-TRANSLATION
000231: 17,2777           61517        TABRCOM            AD       RINDEX
000232: 17,3000           50000                           INDEX    A
000233: 17,3001           33130                           CA       RTABLE
000234: 17,3002           73147                           MASK     ACRJETS                               #  = 3760 OCT
000235: 17,3003           55451                           TS       RWORD1
000236:
000237:                                                                                                  #  CHECK FOR Z-TRANSLATIONS ON BD
000238:
000239: 17,3004           31516        BDZCHECK           CA       ZNDX
000240: 17,3005           00006                           EXTEND
000241: 17,3006           63040                           BZMF     NOBDZ                                 #  NO Z-TRANSLATION
000242:


000244:                                                                                                  #  TABLE LOOK UP FOR BD Z-TRANSLATION WITH AND WITHOUT REAL BD QUAD FAILURES.  Z-TRANSLATION WILL BE POSS-
000245:                                                                                                  #  IBLE AS LONG AS ROLL COMMANDS CAN BE SATISFIED WITH THE AC ROLL JETS.  CRITERION.. IF THE RESULTANT NET ROLL
000246:                                                                                                  #  COMMANDS = 0 (WITH Z-TRANSLATION) AND IF TAU = 0, THEN INCLUDE THE BD Z-TRANSLATION COMMANDS.  IF THE RESULTANT
000247:                                                                                                  #  ROLL COMMAND = 0, AND IF TAU NZ, THEN IGNORE THE BD Z-TRANSLATION
000248:
000249: 17,3007           11627                           CCS      RBDFAIL
000250: 17,3010           36214                           CAF      THREE
000251: 17,3011           13013                           TCF      +2
000252: 17,3012           36211                           CAF      SIX
000253: 17,3013           51516                           INDEX    ZNDX
000254: 17,3014           62771                           AD       XLN1NDX
000255: 17,3015           50000                           INDEX    A
000256: 17,3016           33151                           CA       YZTABLE
000257: 17,3017           73162                           MASK     BDZJETS                               #  = 3417 OCT
000258: 17,3020           61451                           AD       RWORD1                                #  ADD TO ROLL COMMANDS
000259: 17,3021           55502                           TS       T5TEMP                                #  IF POSSIBLE.  MUST CHECK TAU FIRST
000260:
000261: 17,3022           00006                           EXTEND
000262: 17,3023           75011                           MP       BIT7                                  #  DETERMINE THE NET ROLL COMMAND WITH
000263: 17,3024           66061                           AD       =-4                                   #  Z-TRANSLATION ADDED ON
000264: 17,3025           55522                           TS       NRJETS                                #  NET NO. OF +,- ROLL JETS ON
000265: 17,3026           00006                           EXTEND
000266: 17,3027           13033                           BZF      TAUCHECK
000267:
000268: 17,3030           31502        ACRBDZ             CA       T5TEMP                                #  Z-TRANSLATION ACCEPTED EVEN THO WE MAY
000269: 17,3031           55451                           TS       RWORD1                                #  HAVE INTRODUCED AN UNDESIREABLE ROLL
000270: 17,3032           13274                           TCF      ROLLTIME                              #  BRANCH TO JET ON-TIME CALCULATIONS
000271:
000272: 17,3033           11561        TAUCHECK           CCS      TAU
000273: 17,3034           13040                           TCF      NOBDZ
000274: 17,3035           13030                           TCF      ACRBDZ
000275: 17,3036           13040                           TCF      NOBDZ
000276: 17,3037           13030                           TCF      ACRBDZ
000277:
000278: 17,3040           31451        NOBDZ              CA       RWORD1                                #  Z-TRANSLATION NOT ACCEPTED
000279: 17,3041           00006                           EXTEND
000280: 17,3042           75011                           MP       BIT7
000281: 17,3043           67715                           AD       =-2
000282: 17,3044           55522                           TS       NRJETS
000283: 17,3045           13274                           TCF      ROLLTIME                              #  BRANCH TO JET ON-TIME CALCULATION
000284:


000286:                                                                                                  #  BD QUAD SELECTION FOR ROLL COMMANDS
000287:
000288: 17,3046           11627        BDROLL             CCS      RBDFAIL
000289: 17,3047           13053                           TCF      RBFAIL
000290: 17,3050           13057                           TCF      RZXLNS
000291: 17,3051           13055                           TCF      RDFAIL
000292: 17,3052           13057                           TCF      RZXLNS
000293: 17,3053           34334        RBFAIL             CAF      NINE
000294: 17,3054           13061                           TCF      TABRZCMD
000295: 17,3055           35763        RDFAIL             CAF      TWELVE
000296: 17,3056           13061                           TCF      TABRZCMD
000297:
000298: 17,3057           51516        RZXLNS             INDEX    ZNDX                                  #  NO BD FAILURES
000299: 17,3060           32660                           CA       XLNNDX                                #  +,-,0 Z-TRANSLATION PRESENT
000300: 17,3061           61517        TABRZCMD           AD       RINDEX
000301: 17,3062           50000                           INDEX    A
000302: 17,3063           33130                           CA       RTABLE
000303: 17,3064           73150                           MASK     BDRJETS                               #  = 34017 OCT
000304: 17,3065           55451                           TS       RWORD1
000305:
000306: 17,3066           31515        ACYCHECK           CA       YNDX                                  #  ANY Y-TRANSLATION
000307: 17,3067           00006                           EXTEND
000308: 17,3070           13122                           BZF      NOACY                                 #  NO Y-TRANSLATION
000309: 17,3071           11626                           CCS      RACFAIL
000310: 17,3072           36214                           CAF      THREE
000311: 17,3073           13075                           TCF      +2
000312: 17,3074           36211                           CAF      SIX
000313: 17,3075           51515                           INDEX    YNDX
000314: 17,3076           62771                           AD       XLN1NDX
000315: 17,3077           50000                           INDEX    A
000316: 17,3100           33151                           CA       YZTABLE
000317: 17,3101           73163                           MASK     ACYJETS                               #  = 34360 OCT
000318: 17,3102           61451                           AD       RWORD1
000319: 17,3103           55502                           TS       T5TEMP
000320: 17,3104           00006                           EXTEND                                         #  FOR EXPLANATION SEE CODING ON RTABLE
000321: 17,3105           75014                           MP       BIT4
000322: 17,3106           66061                           AD       =-4
000323: 17,3107           55522                           TS       NRJETS                                #  NO. OF NET ROLL JETS
000324: 17,3110           00006                           EXTEND
000325: 17,3111           13115                           BZF      TAUCHCK                               #  IF NRJETS = 0
000326:
000327: 17,3112           31502        BDRACZ             CA       T5TEMP                                #  Y-TRANSLATION ACCEPTED
000328: 17,3113           55451                           TS       RWORD1
000329: 17,3114           13274                           TCF      ROLLTIME                              #  BRANCH TO JET ON-TIME CALCULATIONS
000330:
000331: 17,3115           11561        TAUCHCK            CCS      TAU
000332: 17,3116           13122                           TCF      NOACY
000333: 17,3117           13112                           TCF      BDRACZ
000334: 17,3120           13122                           TCF      NOACY
000335: 17,3121           13112                           TCF      BDRACZ
000336:


000338: 17,3122           31451        NOACY              CA       RWORD1                                #  Y-TRANSLATION NOT ACCEPTED
000339: 17,3123           00006                           EXTEND
000340: 17,3124           75014                           MP       BIT4
000341: 17,3125           67715                           AD       =-2
000342: 17,3126           55522                           TS       NRJETS
000343: 17,3127           13274                           TCF      ROLLTIME
000344:


000346:                                                                                                  #                                TABLE FOR ROLL, Y AND Z-TRANSLATION COMMANDS
000347:
000348:                                                                                                  #  EITHER AC OR BD ROLL MAY BE SELECTED.  IF AC ROLL IS SELECTED, Y-TRANSLATIONS MAY BE SATISFIED SIMULTANEOUSLY
000349:                                                                                                  #  PROVIDED THAT THERE ARE NO AC QUAD FAILURES.  IF THERE ARE AC FAILURES, Y-TRANSLATION COMMANDS WILL BE IGNORED,
000350:                                                                                                  #  IN WHICH CASE THE ASTRONAUT SHOULD SWITCH TO BD ROLL.
000351:
000352:                                                                                                  #  IF BDROLL IS SELECTED, Z-TRANSLATIONS MAY BE SATISFIED SIMULTANEOUSLY PROVIDED THAT THERE ARE NO BD QUAD
000353:                                                                                                  #  FAILURES.  IF THERE ARE BD FAILURES, Z-TRANSLATION COMMANDS WILL BE IGNORED, IN WHICH CASE THE ASTRONAUT SHOULD
000354:                                                                                                  #  SWITCH TO AC ROLL.
000355:
000356:                                                                                                  #  NOTE THAT IF ONE QUAD FAILS (E.G. B FAILED), Z-TRANSLATION IS STILL POSSIBLE AND THAT THE UNDESIREABLE ROLL
000357:                                                                                                  #  INTRODUCED BY THIS TRANSLATION WILL BE COMPENSATED BY THE TWO AC ROLL JETS ACTUATED BY THE AUTOPILOT LOGIC.
000358:
000359:                                                                                                  #                                           WORD MAKE UP....RTABLE
000360:
000361:                                                                                                  #  TWO WORDS, CORRESPONDING TO AC OR BD ROLL SELECTION, HAVE BEEN COMBINED INTO ONE TABLE.  THE WORD CORRESPOND-
000362:                                                                                                  #  ING TO AC ROLL HAS THE FOLLOWING INTERPRETATION..
000363:
000364:                                                                                                  #        BITS 9,10,11 ARE CODED TO GIVE THE NET ROLL TORQUE FOR THE WORD SELECTED.  THE CODING IS..
000365:
000366:                                                                                                  #                BIT NO. 11  10   9              NO. OF ROLL JETS
000367:
000368:                                                                                                  #                         0   0   0                      -2
000369:                                                                                                  #                         0   0   1                      -1
000370:                                                                                                  #                         0   1   0                       0
000371:                                                                                                  #                         0   1   1                      +1
000372:                                                                                                  #                         1   0   0                      +2
000373:
000374:                                                                                                  #  THIS WORD MAY THEN BE ADDED TO THE WORD SELECTED FROM THE YZ-TRANSLATION TABLE, WHICH HAS THE SAME TYPE OF
000375:                                                                                                  #  CODING AS ABOVE, AND THE NET ROLL DETERMINED BY SHIFTING THE RESULTANT WORD RIGHT 8 PLACES AND SUBTRACTING FOUR.
000376:
000377:                                                                                                  #  THE WORD CORRESPONDING TO BD ROLL HAS A SIMILIAR INTERPRETATION, EXCEPT THAT BITS 12, 13, 14 ARE CODED
000378:                                                                                                  #  (AS ABOVE) TO GIVE THE NET ROLL TORQUE.
000379:
000380:                                                                                                  #  ROLL          TRANS           QUADFAIL        BIAS
000381:
000382: 17,3130           11000        RTABLE             OCT      11000                                 #    0                                             0
000383: 17,3131           22125                           OCT      22125                                 #    +                                             0
000384: 17,3132           00252                           OCT      00252                                 #    -                                             0
000385: 17,3133           11231                           OCT      11231                                 #    0           +Y(+Z)                            3
000386: 17,3134           15421                           OCT      15421                                 #    +           +Y(+Z)                            3
000387: 17,3135           04610                           OCT      04610                                 #    -           +Y(+Z)                            3
000388: 17,3136           11146                           OCT      11146                                 #    0           -Y(-Z)                            6
000389: 17,3137           15504                           OCT      15504                                 #    +           -Y(-Z)                            6
000390: 17,3140           04442                           OCT      04442                                 #    -           -Y(-Z)                            6
000391: 17,3141           11000                           OCT      11000                                 #    0                             A(B)            9
000392: 17,3142           15504                           OCT      15504                                 #    +                             A(B)            9
000393: 17,3143           04610                           OCT      04610                                 #    -                             A(B)            9
000394: 17,3144           11000                           OCT      11000                                 #    0                             C(D)           12
000395: 17,3145           15421                           OCT      15421                                 #    +                             C(D)           12
000396: 17,3146           04442                           OCT      04442                                 #    -                             C(D)           12
000397:


000399:                                                                                                  #  RTABLE MASKS-
000400:
000401: 17,3147           03760        ACRJETS            OCT      03760
000402: 17,3150           34017        BDRJETS            OCT      34017
000403:


000405:                                                                                                  #                                         Y, Z TRANSLATION TABLE
000406:
000407:                                                                                                  #     ONCE AC OR BD ROLL IS SELECTED THE QUAD PAIR WHICH IS NOT BEING USED TO SATISFY THE ROLL COMMANDS MAY BE
000408:                                                                                                  #  USED TO SATISFY THE REMAINING TRANSLATION COMMANDS.  HOWEVER, WE MUST MAKE SURE THAT ROLL COMMANDS ARE SATISFIED
000409:                                                                                                  #  WHEN THEY OCCUR.  THEREFORE, THE Y-Z TRANSLATIONS FROM THIS TABLE WILL BE IGNORED IF THE NET ROLL TORQUE OF THE
000410:                                                                                                  #  COMBINED WORD IS ZERO AND THE ROLL COMMANDS ARE NON-ZERO.  THIS SITUATION WOULD OCCUR, FOR EXAMPLE, IF WE EN-
000411:                                                                                                  #  COUNTER SIMULTANEOUS +R +Y -Z COMMANDS AND A QUAD D FAILURE WHILE USING AC FOR ROLL.
000412:                                                                                                  #     TO FACILITATE THE LOGIC, THE Y-Z TRANSLATION TABLE HAS BEEN CODED IN A MANNER SIMILIAR TO THE ROLL TABLE
000413:                                                                                                  #  ABOVE.
000414:                                                                                                  #     BITS 9,10,11 ARE CODED TO GIVE THE NET ROLL TORQUE INCURRED BY Z-TRANSLATIONS.  THE WORD SELECTED CAN THEN BE
000415:                                                                                                  #  ADDED TO THE AC-ROLL WORD AND THE RESULTANT ROLL TORQUE DETERMINED FROM THE COMBINED WORD.  SIMILIARLY BITS
000416:                                                                                                  #  12,13,14 ARE CODED TO GIVE THE NET ROLL TORQUE INCURRED BY Y-TRANSLATIONS WHEN BD-ROLL IS SELECTED.
000417:
000418:                                                                                                  #  TRANSLATION   QUADFAIL        BIAS
000419:
000420: 17,3151           11000        YZTABLE            OCT      11000                                 #        0                       0
000421: 17,3152           11231                           OCT      11231                                 #     +Z(+Y)                     0
000422: 17,3153           11146                           OCT      11146                                 #     -Z(-Y)                     0
000423: 17,3154           11000                           OCT      11000                                 #        0         B(A)          3
000424: 17,3155           04610                           OCT      04610                                 #     +Z(+Y)       B(A)          3
000425: 17,3156           15504                           OCT      15504                                 #     -Z(-Y)       B(A)          3
000426: 17,3157           11000                           OCT      11000                                 #        0         D(C)          6
000427: 17,3160           15421                           OCT      15421                                 #     +Z(+Y)       D(C)          6
000428: 17,3161           04442                           OCT      04442                                 #     -Z(-Y)       D(C)          6
000429:
000430:                                                                                                  #  YZ-TABLE MASKS-
000431:
000432: 17,3162           03417        BDZJETS            OCT      03417
000433: 17,3163           34360        ACYJETS            OCT      34360
000434:
000435:                                                                                                  #  ADDITIONAL CONSTANTS
000436:
000437: 17,3164     7715               =-2                =        NEG2
000438: 17,3164     6061               =-4                =        NEG4
000439:


000441:                                                                                                  #                                        CALCULATION OF JET ON-TIMES
000442:
000443:                                                                                                  #     THE ROTATION COMMANDS (TAU:S), WHICH WERE DETERMINED FROM THE JET SWITCHING LOGIC ON THE BASIS OF SINGLE JET
000444:                                                                                                  #  OPERATION, MUST NOW BE UPDATED BY THE ACTUAL NUMBER OF JETS TO BE USED IN SATISFYING THESE COMMANDS.  TAU MUST
000445:                                                                                                  #  ALSO BE DECREMENTED ACCORDING TO THE EXPECTED TORQUE GENERATED BY THE NEW COMMANDS ACTING OVER THE NEXT T5 INT-
000446:                                                                                                  #  ERVAL.
000447:                                                                                                  #     IN ORDER TO MAINTAIN ACCURATE KNOWLEDGE OF VEHICLE ANGULAR RATES, WE MUST ALSO PROVIDE EXPECTED FIRING TIMES
000448:                                                                                                  #  (DFT:S, ALSO IN TERMS OF 1-JET OPERATION) FOR THE RATE FILTER.
000449:                                                                                                  #     NOTE THAT TRANSLATIONS CAN PRODUCE ROTATIONS EVEN THOUGH NO ROTATIONS WERE CALLED FOR.  NEVERTHELESS, WE MUST
000450:                                                                                                  #  UPDATE DFT.
000451:                                                                                                  #     WHEN THE ROTATIONS HAVE FINISHED, WE MUST PROVIDE CHANNEL INFORMATION TO THE T6 PROGRAM TO CONTINUE ON WITH
000452:                                                                                                  #  THE TRANSLATIONS.  THIS WILL BE DONE IN THE NEXT SECTION.  HOWEVER, TO INSURE THAT JETS ARE NOT FIRED FOR LESS
000453:                                                                                                  #  THAN A MINIMUM IMPULSE (14MS), ALL JET CHANNEL COMMANDS WILL BE HELD FIXED FROM THE START OF THE T5 PROGRAM FOR
000454:                                                                                                  #  AT LEAST 14MS UNTIL THE INITIALIZATION OF NEW COMMANDS.  MOREOVER, A 14MS ON-TIME WILL BE ADDED TO ANY ROTATIONAL
000455:                                                                                                  #  COMMANDS GENERATED BY THE MANUAL CONTROLS OR THE JET SWITCHING LOGIC, AND ALL TRANSLATION COMMANDS WILL BE
000456:                                                                                                  #  ACTIVE FOR AT LEAST ONE CYCLE OF THE T5 PROGRAM (.1SEC)
000457:
000458:                                                                                                  #           PITCH JET ON-TIME CALCULATION
000459:
000460: 17,3164           11562        PITCHTIM           CCS      TAU1
000461: 17,3165           13174                           TCF      PTAUPOS
000462: 17,3166           13170                           TCF      +2
000463: 17,3167           13172                           TCF      PTAUNEG
000464: 17,3170           55550                           TS       DFT1                                  #  NO PITCH ROTATION
000465: 17,3171           13372                           TCF      PBYPASS                               #  COMMANDS
000466:
000467: 17,3172           41523        PTAUNEG            CS       NPJETS
000468: 17,3173           55523                           TS       NPJETS
000469: 17,3174           31562        PTAUPOS            CA       TAU1
000470: 17,3175           00006                           EXTEND
000471: 17,3176           51523                           INDEX    NPJETS
000472: 17,3177           73353                           MP       NJET
000473: 17,3200           55461                           TS       BLAST1
000474: 17,3201           63306                           AD       =-.1SEC
000475: 17,3202           00006                           EXTEND
000476: 17,3203           63214                           BZMF     AD14MSP
000477: 17,3204           51523                           INDEX    NPJETS
000478: 17,3205           33307                           CA       DFTMAX                                #  THE PITCH ON-TIME IS GREATER THAN .1 SEC
000479: 17,3206           55550                           TS       DFT1
000480: 17,3207           40000                           COM
000481: 17,3210           27562                           ADS      TAU1                                  #  UPDATE TAU1
000482: 17,3211           33310                           CAF      =+.1SEC                               #  LIMIT THE LENGTH OF PITCH ROTATION
000483: 17,3212           55461                           TS       BLAST1                                #  COMMANDS TO 0.1 SEC SO THAT ONLY
000484: 17,3213           13357                           TCF      ASMBLWP                               #  X-TRANSLATIONS WILL CONTINUE ON SWITCH
000485:                                                                                                  #  OVER TO TVC
000486: 17,3214           41461        AD14MSP            CS       BLAST1                                #  SEE IF JET ON TIME LESS THAN
000487: 17,3215           63313                           AD       =14MS                                 #  MINIMUM IMPULSE TIME
000488: 17,3216           00006                           EXTEND
000489: 17,3217           63222                           BZMF     PBLASTOK                              #  IF SO LIMIT MINIMUM ON TIME TO 14 MS
000490: 17,3220           33313                           CAF      =14MS


000492: 17,3221           55461                           TS       BLAST1
000493: 17,3222           31461        PBLASTOK           CA       BLAST1
000494: 17,3223           00006                           EXTEND                                         #  THE PITCH COMMANDS WILL BE COMPLETED
000495: 17,3224           71523                           MP       NPJETS                                #  WITHIN THE TS-CYCLE TIME
000496: 17,3225           23550                           LXCH     DFT1                                  #  FOR USE IN UPDATING RATE FILTER
000497: 17,3226           55562                           TS       TAU1                                  #  ZERO TAU1 (ACC CONTAINS ZERO)
000498: 17,3227           13357                           TCF      ASMBLWP
000499:


000501:                                                                                                  #  YAW JET ON-TIME CALCULATION
000502:
000503: 17,3230           11563        YAWTIME            CCS      TAU2
000504: 17,3231           13240                           TCF      YTAUPOS
000505: 17,3232           13234                           TCF      +2
000506: 17,3233           13236                           TCF      YTAUNEG
000507: 17,3234           55551                           TS       DFT2                                  #  NO YAW ROTATION COMMANDS
000508: 17,3235           13536                           TCF      YBYPASS
000509:
000510: 17,3236           41524        YTAUNEG            CS       NYJETS
000511: 17,3237           55524                           TS       NYJETS
000512: 17,3240           31563        YTAUPOS            CA       TAU2
000513: 17,3241           00006                           EXTEND
000514: 17,3242           51524                           INDEX    NYJETS
000515: 17,3243           73353                           MP       NJET
000516: 17,3244           55463                           TS       BLAST2
000517: 17,3245           63306                           AD       =-.1SEC
000518: 17,3246           00006                           EXTEND
000519: 17,3247           63260                           BZMF     AD14MSY
000520: 17,3250           51524                           INDEX    NYJETS
000521: 17,3251           33307                           CA       DFTMAX                                #  YAW COMMANDS WILL LAST LONGER THAN .1SEC
000522: 17,3252           55551                           TS       DFT2
000523: 17,3253           40000                           COM
000524: 17,3254           27563                           ADS      TAU2                                  #  DECREMENT TAU2
000525: 17,3255           33310                           CAF      =+.1SEC                               #  LIMIT THE LENGTH OF YAW ROTATION COMMAND
000526: 17,3256           55463                           TS       BLAST2                                #  TO 0.1 SEC SO THAT ONLY X-TRANSLATION
000527: 17,3257           13523                           TCF      ASMBLWY                               #  WILL CONTINUE ON SWITCH OVER TO TVC
000528:
000529: 17,3260           41463        AD14MSY            CS       BLAST2                                #  SEE IF JET ON-TIME LESS THAN
000530: 17,3261           63313                           AD       =14MS                                 #  MINIMUM IMPULSE TIME
000531: 17,3262           00006                           EXTEND
000532: 17,3263           63266                           BZMF     YBLASTOK                              #  IF SO, LIMIT MINIMUM ON-TIME TO 14 MS
000533: 17,3264           33313                           CAF      =14MS
000534: 17,3265           55463                           TS       BLAST2
000535: 17,3266           31463        YBLASTOK           CA       BLAST2                                #  YAW COMMANDS WILL BE COMPLETED WITHIN
000536: 17,3267           00006                           EXTEND                                         #  THE T5CYCLE TIME
000537: 17,3270           71524                           MP       NYJETS
000538: 17,3271           23551                           LXCH     DFT2
000539: 17,3272           55563                           TS       TAU2                                  #  ZERO TAU2
000540: 17,3273           13523                           TCF      ASMBLWY
000541:


000543:                                                                                                  #  ROLL ON-TIME CALCULATION-
000544:
000545: 17,3274           11561        ROLLTIME           CCS      TAU
000546: 17,3275           13314                           TCF      RBLAST
000547: 17,3276           13300                           TCF      +2
000548: 17,3277           13314                           TCF      RBLAST
000549: 17,3300           51522                           INDEX    NRJETS
000550: 17,3301           33307                           CA       DFTMAX                                #  UPDATE DFT EVEN THO NO ROLL COMMANDS ARE
000551: 17,3302           55547                           TS       DFT                                   #  PRESENT
000552: 17,3303           13516                           TCF      RBYPASS
000553:
000554: 17,3304           77037                           DEC      -480       B-14                       #  =-.3SEC
000555: 17,3305           77277                           DEC      -320       B-14                       #  =-.2SEC
000556: 17,3306           77537        =-.1SEC            DEC      -160       B-14                       #  =-.1SEC
000557: 17,3307           00000        DFTMAX             DEC      0          B-14                       #  0
000558: 17,3310           00240        =+.1SEC            DEC      160        B-14                       #  =+.1SEC
000559: 17,3311           00500                           DEC      320        B-14                       #  =+.2SEC
000560: 17,3312           00740                           DEC      480        B-14                       #  =+.3SEC
000561: 17,3313           00027        =14MS              DEC      23         B-14                       #  =14MS
000562:
000563: 17,3314           31561        RBLAST             CA       TAU
000564: 17,3315           00006                           EXTEND
000565: 17,3316           51522                           INDEX    NRJETS
000566: 17,3317           73353                           MP       NJET
000567: 17,3320           55457                           TS       BLAST                                 #  BLAST IS AN INTERMEDIATE VARIABLE
000568:                                                                                                  #  USED IN DETERMINING THE JET ON-TIMES
000569: 17,3321           63306                           AD       =-.1SEC
000570: 17,3322           00006                           EXTEND
000571: 17,3323           63334                           BZMF     AD14MSR
000572: 17,3324           51522                           INDEX    NRJETS                                #  THE ROLL ROTATION WILL LAST LONGER
000573: 17,3325           33307                           CA       DFTMAX                                #  THAN THE T5 CYCLE TIME
000574: 17,3326           55547                           TS       DFT
000575: 17,3327           40000                           COM
000576: 17,3330           27561                           ADS      TAU
000577: 17,3331           33310                           CAF      =+.1SEC                               #  LIMIT THE LENGTH OF ROLL ROTATION
000578: 17,3332           55457                           TS       BLAST                                 #  COMMANDS TO 0.1 SEC SO THAT ONLY Y-Z
000579: 17,3333           13377                           TCF      ASMBLWR                               #  TRANSLATION COMMANDS CONTINUE
000580:
000581: 17,3334           41457        AD14MSR            CS       BLAST                                 #  SEE IF THE JET ON-TIME LESS THAN
000582: 17,3335           63313                           AD       =14MS                                 #  MINIMUM IMPULSE TIME
000583: 17,3336           00006                           EXTEND
000584: 17,3337           63342                           BZMF     RBLASTOK
000585: 17,3340           33313                           CAF      =14MS                                 #  IF SO, LIMIT MINIMUM ON-TIME TO 14 MS
000586: 17,3341           55457                           TS       BLAST
000587: 17,3342           31457        RBLASTOK           CA       BLAST
000588: 17,3343           00006                           EXTEND
000589: 17,3344           71522                           MP       NRJETS
000590: 17,3345           23547                           LXCH     DFT
000591: 17,3346           55561                           TS       TAU                                   #  ZERO TAU
000592: 17,3347           13377                           TCF      ASMBLWR
000593:


000595: 17,3350           65252                           DEC      -.333333                              #  = -1/3
000596: 17,3351           57777                           DEC      -.500000                              #  = -1/2
000597: 17,3352           40000                           DEC      -.999999                              #  = -1 (NEGMAX)
000598: 17,3353           00000        NJET               DEC      0          B-14
000599: 17,3354           37777                           DEC      .999999                               #  = +1 (POSMAX)
000600: 17,3355           20000                           DEC      .500000                               #  = +1/2
000601: 17,3356           12525                           DEC      .333333                               #  = +1/3
000602:


000604:                                                                                                  #  WHEN THE ROTATION COMMANDS ARE COMPLETED, IT IS NECESSARY TO REPLACE THESE COMMANDS BY NEW COMMANDS WHICH
000605:                                                                                                  #  CONTINUE ON WITH THE TRANSLATIONS IF ANY ARE PRESENT.
000606:
000607:                                                                                                  #  IN THIS SECTION THESE NEW COMMANDS ARE GENERATED AND STORED FOR REPLACEMENT OF THE CHANNEL COMMANDS WHEN THE
000608:                                                                                                  #  CORRESPONDING ROTATIONS ARE COMPLETED.
000609:
000610:                                                                                                  #  GENERATION OF THE SECOND PITCH(X-TRANS) WORD...PWORD2
000611:
000612: 17,3357           11626        ASMBLWP            CCS      RACFAIL
000613: 17,3360           13366                           TCF      FPX2                                  #  IF FAILURE ON AC IGNORE X-TRANSLATION
000614: 17,3361           13363                           TCF      +2
000615: 17,3362           13366                           TCF      FPX2
000616: 17,3363           51513                           INDEX    XNDX1
000617: 17,3364           32660                           CA       XLNNDX
000618: 17,3365           50000                           INDEX    A
000619: 17,3366           32714        FPX2               CA       PYTABLE
000620: 17,3367           72733                           MASK     PJETS
000621: 17,3370           55454                           TS       PWORD2
000622: 17,3371           13230                           TCF      YAWTIME
000623:
000624: 17,3372           31453        PBYPASS            CA       PWORD1                                #  THE T6 PROGRAM WILL LOAD PWORD2
000625: 17,3373           55454                           TS       PWORD2                                #  UPON ENTRY
000626: 17,3374           35021                           CAF      ZERO
000627: 17,3375           55461                           TS       BLAST1                                #  THERE IS NO PWORD2
000628: 17,3376           13230                           TCF      YAWTIME
000629:


000631:                                                                                                  #  GENERATION OF THE SECOND ROLL (Y,Z) WORD (RWORD2)
000632:
000633: 17,3377           11515        ASMBLWR            CCS      YNDX                                  #  CHECK FOR Y-TRANS
000634: 17,3400           13410                           TCF      ACBD2Y
000635: 17,3401           35021        NO2Y               CAF      ZERO
000636: 17,3402           55452                           TS       RWORD2
000637: 17,3403           11516                           CCS      ZNDX                                  #  CHECK FOR Z-TRANS
000638: 17,3404           13453                           TCF      ACBD2Z
000639: 17,3405           35021        NO2Z               CAF      ZERO
000640: 17,3406           27452                           ADS      RWORD2
000641: 17,3407           13164                           TCF      PITCHTIM                              #  RWORD2 ASSEMBLED
000642:
000643: 17,3410           11630        ACBD2Y             CCS      ACORBD
000644: 17,3411           13426                           TCF      AC2Y                                  #  CAN DO Y-TRANS
000645: 17,3412           13426                           TCF      AC2Y
000646: 17,3413           13414                           TCF      +1                                    #  USING AC FOR ROLL
000647: 17,3414           11626                           CCS      RACFAIL
000648: 17,3415           13401                           TCF      NO2Y                                  #  USING AC AND AC HAS FAILED
000649: 17,3416           13420                           TCF      +2
000650: 17,3417           13401                           TCF      NO2Y                                  #  DITTO
000651:
000652: 17,3420           51515                           INDEX    YNDX                                  #  NO FAILURES, CAN DO Y
000653: 17,3421           32660                           CA       XLNNDX
000654: 17,3422           50000                           INDEX    A
000655: 17,3423           33130                           CA       RTABLE
000656: 17,3424           73147                           MASK     ACRJETS
000657: 17,3425           13402                           TCF      NO2Y       +1
000658:
000659: 17,3426           11626        AC2Y               CCS      RACFAIL
000660: 17,3427           36214                           CAF      THREE
000661: 17,3430           13432                           TCF      +2
000662: 17,3431           36211                           CAF      SIX
000663: 17,3432           51515                           INDEX    YNDX
000664: 17,3433           62771                           AD       XLN1NDX
000665: 17,3434           50000                           INDEX    A
000666: 17,3435           33151                           CA       YZTABLE
000667: 17,3436           73163                           MASK     ACYJETS
000668: 17,3437           55452                           TS       RWORD2
000669: 17,3440           00006                           EXTEND
000670: 17,3441           75014                           MP       BIT4
000671: 17,3442           67715                           AD       =-2
000672: 17,3443           55522                           TS       NRJETS
000673: 17,3444           41457                           CS       BLAST
000674: 17,3445           63310                           AD       =+.1SEC
000675: 17,3446           00006                           EXTEND
000676: 17,3447           71522                           MP       NRJETS
000677: 17,3450           30001                           CA       L
000678: 17,3451           27547                           ADS      DFT
000679: 17,3452           13403                           TCF      NO2Y       +2


000681: 17,3453           11630        ACBD2Z             CCS      ACORBD
000682: 17,3454           13504                           TCF      BDF2Z                                 #  USING BD-ROLL
000683: 17,3455           13504                           TCF      BDF2Z                                 #  MUST CHECK FOR BD FAILURES
000684: 17,3456           13457                           TCF      +1
000685: 17,3457           11627                           CCS      RBDFAIL                               #  USING AC FOR ROLL, CAN DO Z-TRANS
000686: 17,3460           36214                           CAF      THREE
000687: 17,3461           13463                           TCF      +2
000688: 17,3462           36211                           CAF      SIX
000689: 17,3463           51516                           INDEX    ZNDX
000690: 17,3464           62771                           AD       XLN1NDX
000691: 17,3465           50000                           INDEX    A
000692: 17,3466           33151                           CA       YZTABLE
000693: 17,3467           73162                           MASK     BDZJETS
000694: 17,3470           27452                           ADS      RWORD2
000695: 17,3471           00006                           EXTEND
000696: 17,3472           75011                           MP       BIT7
000697: 17,3473           67715                           AD       =-2
000698: 17,3474           55522                           TS       NRJETS
000699: 17,3475           41457                           CS       BLAST
000700: 17,3476           63310                           AD       =+.1SEC
000701: 17,3477           00006                           EXTEND
000702: 17,3500           71522                           MP       NRJETS
000703: 17,3501           30001                           CA       L
000704: 17,3502           27547                           ADS      DFT
000705: 17,3503           13164                           TCF      PITCHTIM
000706:
000707: 17,3504           11627        BDF2Z              CCS      RBDFAIL
000708: 17,3505           13405                           TCF      NO2Z                                  #  USING BD-ROLL AND BD HAS FAILED
000709: 17,3506           13510                           TCF      +2
000710: 17,3507           13405                           TCF      NO2Z                                  #  DITTO
000711: 17,3510           51516                           INDEX    ZNDX
000712: 17,3511           32660                           CA       XLNNDX
000713: 17,3512           50000                           INDEX    A
000714: 17,3513           33130                           CA       RTABLE
000715: 17,3514           73150                           MASK     BDRJETS
000716: 17,3515           13406                           TCF      NO2Z       +1
000717:
000718: 17,3516           31451        RBYPASS            CA       RWORD1
000719: 17,3517           55452                           TS       RWORD2
000720: 17,3520           35021                           CAF      ZERO
000721: 17,3521           55457                           TS       BLAST
000722: 17,3522           13164                           TCF      PITCHTIM
000723:


000725:                                                                                                  #  GENERATION OF THE SECOND YAW (X-TRANS) WORD...YWORD2
000726:
000727: 17,3523           11627        ASMBLWY            CCS      RBDFAIL
000728: 17,3524           13532                           TCF      FYX2                                  #  IF FAILURE ON BD IGNORE X-TRANSLATION
000729: 17,3525           13527                           TCF      +2
000730: 17,3526           13532                           TCF      FYX2
000731: 17,3527           51514                           INDEX    XNDX2
000732: 17,3530           32660                           CA       XLNNDX
000733: 17,3531           50000                           INDEX    A
000734: 17,3532           32714        FYX2               CA       PYTABLE
000735: 17,3533           72734                           MASK     YJETS
000736: 17,3534           55456                           TS       YWORD2
000737: 17,3535           13542                           TCF      T6SETUP
000738:
000739: 17,3536           31455        YBYPASS            CA       YWORD1
000740: 17,3537           55456                           TS       YWORD2
000741: 17,3540           35021                           CAF      ZERO
000742: 17,3541           55463                           TS       BLAST2
000743:


000745:                                                                                                  #                                        SORT THE JET ON-TIMES
000746:
000747:                                                                                                  #  AT THIS POINT ALL THE CHANNEL COMMANDS AND JET ON-TIMES HAVE BEEN DETERMINED.  IN SUMMARY THESE ARE-
000748:
000749:                                                                                                  #        RWORD1
000750:                                                                                                  #        RWORD2          BLAST
000751:
000752:                                                                                                  #        PWORD1
000753:                                                                                                  #        PWORD2          BLAST1
000754:
000755:                                                                                                  #        YWORD1
000756:                                                                                                  #        YWORD2          BLAST2
000757:
000758:                                                                                                  #  IN THIS SECTION THE JET ON-TIMES ARE SORTED AND THE SEQUENCE OF T6 INTERRUPTS IS DETERMINED.  TO FACILITATE
000759:                                                                                                  #  THE SORTING PROCESS AND THE T6 PROGRAM, THE VARIABLES BLAST, BLAST1, BLAST2, ARE RESERVED AS DOUBLE PRECISION
000760:                                                                                                  #  WORDS.  THE LOWER PART OF THESE WORDS CONTAIN A BRANCH INDEX ASSOCIATED WITH THE ROTATION AXIS OF THE HIGHER
000761:                                                                                                  #  ORDER WORD.
000762:
000763: 17,3542           35021        T6SETUP            CAF      ZERO                                  #  BRANCH INDEX FOR ROLL
000764: 17,3543           55460                           TS       BLAST      +1
000765: 17,3544           35015                           CAF      FOUR                                  #  BRANCH INDEX FOR PITCH
000766: 17,3545           55462                           TS       BLAST1     +1
000767: 17,3546           35024                           CAF      ELEVEN                                #  BRANCH INDEX FOR YAW
000768: 17,3547           55464                           TS       BLAST2     +1
000769:
000770: 17,3550           41457                           CS       BLAST
000771: 17,3551           61461                           AD       BLAST1
000772: 17,3552           00006                           EXTEND
000773: 17,3553           63577                           BZMF     DXCHT12                               #  T1 GR T2
000774: 17,3554           41461        CHECKT23           CS       BLAST1
000775: 17,3555           61463                           AD       BLAST2
000776: 17,3556           00006                           EXTEND
000777: 17,3557           63603                           BZMF     DXCHT23
000778: 17,3560           41461        CALCDT6            CS       BLAST1
000779: 17,3561           27463                           ADS      BLAST2
000780: 17,3562           41457                           CS       BLAST
000781: 17,3563           27461                           ADS      BLAST1                                #  END OF SORTING PROCEDURE
000782: 17,3564           00006                           EXTEND                                         #  RESET T5LOC TO BEGIN PHASE1
000783: 17,3565           33576                           DCA      RCS2CADR
000784: 17,3566           53313                           DXCH     T5LOC
000785: 17,3567           45017        ENDJETS            CS       BIT1                                  #  RESET BIT1 FOR INITIALIZATION OF
000786: 17,3570           71501                           MASK     RCSFLAGS                              #  T6 PROGRAM
000787: 17,3571           55501                           TS       RCSFLAGS
000788: 17,3572           45021                           CS       ZERO                                  #  RESET T5PHASE FOR PHASE1
000789: 17,3573           55465                           TS       T5PHASE
000790: 17,3574           15333                           TCF      RESUME                                #  RESUME INTERRUPTED PROGRAM
000791:
000792: 17,3575  E6,1510                                  EBANK=   KMPAC
000793: 17,3575           02122 42066  RCS2CADR           2CADR    RCSATT
000794:


000796: 17,3577           53460        DXCHT12            DXCH     BLAST
000797: 17,3600           53462                           DXCH     BLAST1
000798: 17,3601           53460                           DXCH     BLAST
000799: 17,3602           13554                           TCF      CHECKT23
000800:
000801: 17,3603           53462        DXCHT23            DXCH     BLAST1
000802: 17,3604           53464                           DXCH     BLAST2
000803: 17,3605           53462                           DXCH     BLAST1
000804: 17,3606           41457                           CS       BLAST
000805: 17,3607           61461                           AD       BLAST1
000806: 17,3610           00006                           EXTEND
000807: 17,3611           63613                           BZMF     +2
000808: 17,3612           13560                           TCF      CALCDT6
000809: 17,3613           53460                           DXCH     BLAST
000810: 17,3614           53462                           DXCH     BLAST1
000811: 17,3615           53460                           DXCH     BLAST
000812: 17,3616           13560                           TCF      CALCDT6
000813:


000815:                                                                                                  #  T6 PROGRAM AND CHANNEL SETUP
000816:
000817: 21,3765                                           BANK     21
000818: 17,2000                                           SETLOC   DAPS5
000819: 17,2000                                           BANK
000820:
000821: 17,3617           22016        T6START            LXCH     BANKRUPT
000822: 17,3620           00006                           EXTEND
000823: 17,3621           22012                           QXCH     QRUPT
000824: 17,3622           10031                           CCS      TIME6                                 #  CHECK TO SEE IF TIME6 WAS RESET
000825: 17,3623           15333                           TCF      RESUME                                #  AFTER T6RUPT OCCURED (IN T5RUPT)
000826: 17,3624           13626                           TCF      +2                                    #  IF SO WAIT FOR NEXT T6RUPT BEFORE
000827: 17,3625           15333                           TCF      RESUME                                #  TAKING ACTION
000828:
000829: 17,3626           41501                           CS       RCSFLAGS
000830: 17,3627           75017                           MASK     BIT1                                  #  IF BIT1 IS 0 RESET TO 1
000831: 17,3630           00006                           EXTEND                                         #  AND INITIALIZE CHANNEL
000832: 17,3631           13642                           BZF      T6RUPTOR
000833: 17,3632           27501                           ADS      RCSFLAGS
000834: 17,3633           31451                           CA       RWORD1
000835: 17,3634           00006                           EXTEND                                         #  INITIALIZE CHANNELS 5,6 WITH WORD1
000836: 17,3635           01006                           WRITE    CHAN6
000837: 17,3636           31453                           CA       PWORD1
000838: 17,3637           61455                           AD       YWORD1
000839: 17,3640           00006                           EXTEND
000840: 17,3641           01005                           WRITE    CHAN5
000841:
000842: 17,3642           11457        T6RUPTOR           CCS      BLAST
000843: 17,3643           13722                           TCF      ZBLAST                                #  ZERO BLAST1
000844: 17,3644           13661                           TCF      REPLACE                               #  REPLACE WORD1
000845: 17,3645           13647                           TCF      +2
000846: 17,3646           13661                           TCF      REPLACE
000847: 17,3647           11461        T6L1               CCS      BLAST1
000848: 17,3650           13725                           TCF      ZBLAST1
000849: 17,3651           13666                           TCF      REPLACE1
000850: 17,3652           13654                           TCF      +2
000851: 17,3653           13666                           TCF      REPLACE1
000852: 17,3654           11463        T6L2               CCS      BLAST2
000853: 17,3655           13730                           TCF      ZBLAST2
000854: 17,3656           13673                           TCF      REPLACE2
000855: 17,3657           15333                           TCF      RESUME
000856: 17,3660           13673                           TCF      REPLACE2
000857:
000858: 17,3661           51460        REPLACE            INDEX    BLAST      +1
000859: 17,3662           03700                           TC       REPLACER
000860: 17,3663           45017                           CS       ONE
000861: 17,3664           55457                           TS       BLAST
000862: 17,3665           13647                           TCF      T6L1
000863:
000864: 17,3666           51462        REPLACE1           INDEX    BLAST1     +1


000866: 17,3667           03700                           TC       REPLACER
000867: 17,3670           45017                           CS       ONE
000868: 17,3671           55461                           TS       BLAST1
000869: 17,3672           13654                           TCF      T6L2
000870:
000871: 17,3673           51464        REPLACE2           INDEX    BLAST2     +1
000872: 17,3674           03700                           TC       REPLACER
000873: 17,3675           45017                           CS       ONE
000874: 17,3676           55463                           TS       BLAST2
000875: 17,3677           15333                           TCF      RESUME
000876:
000877: 17,3700           31452        REPLACER           CA       RWORD2                                #  INITIALIZE CHANNELS 5,6 WITH WORD2
000878: 17,3701           00006                           EXTEND
000879: 17,3702           01006                           WRITE    CHAN6
000880: 17,3703           00002                           TC       Q
000881:
000882: 17,3704           32734        REPLACEP           CA       YJETS
000883: 17,3705           00006                           EXTEND
000884: 17,3706           02005                           RAND     CHAN5
000885: 17,3707           61454                           AD       PWORD2
000886: 17,3710           00006                           EXTEND
000887: 17,3711           01005                           WRITE    CHAN5
000888: 17,3712           00002                           TC       Q
000889:
000890: 17,3713           32733        REPLACEY           CA       PJETS
000891: 17,3714           00006                           EXTEND
000892: 17,3715           02005                           RAND     CHAN5
000893: 17,3716           61456                           AD       YWORD2
000894: 17,3717           00006                           EXTEND
000895: 17,3720           01005                           WRITE    CHAN5
000896: 17,3721           00002                           TC       Q
000897:
000898: 17,3722           35021        ZBLAST             CAF      ZERO
000899: 17,3723           57457                           XCH      BLAST
000900: 17,3724           13732                           TCF      ENABT6
000901: 17,3725           35021        ZBLAST1            CAF      ZERO
000902: 17,3726           57461                           XCH      BLAST1
000903: 17,3727           13732                           TCF      ENABT6
000904: 17,3730           35021        ZBLAST2            CAF      ZERO
000905: 17,3731           57463                           XCH      BLAST2
000906: 17,3732           54031        ENABT6             TS       TIME6
000907: 17,3733           35001                           CAF      NEGMAX
000908: 17,3734           00006                           EXTEND
000909: 17,3735           05013                           WOR      CHAN13                                #  ENABLE T6RUPT
000910: 17,3736           15333                           TCF      RESUME
000911:
000912:                                                                                                  #  END OF T6 INTERRUPT
000913:
000914: 17,3737                        ENDSLECT           EQUALS
000915:

End of include-file JET_SELECTION_LOGIC.agc.  Parent file is MAIN.agc


