
Source Code


000002:                                                                                                  ## Copyright:   Public domain.
000003:                                                                                                  ## Filename:    PHASE_TABLE_MAINTENANCE.agc
000004:                                                                                                  ## Purpose:     A section of Manche45 revision 2.
000005:                                                                                                  ##              It is part of the reconstructed source code for the
000006:                                                                                                  ##              final, flown release of the flight software for the Command
000007:                                                                                                  ##              Module's (CM) Apollo Guidance Computer (AGC) for Apollo 10.
000008:                                                                                                  ##              The code has been recreated from a copy of Comanche 055. It
000009:                                                                                                  ##              has been adapted such that the resulting bugger words
000010:                                                                                                  ##              exactly match those specified for Manche 45/2 in NASA drawing
000011:                                                                                                  ##              2021153D, which gives relatively high confidence that the
000012:                                                                                                  ##              reconstruction is correct.
000013:                                                                                                  ## Assembler:   yaYUL
000014:                                                                                                  ## Contact:     Ron Burkey <info@sandroid.org>.
000015:                                                                                                  ## Website:     www.ibiblio.org/apollo/index.html
000016:                                                                                                  ## Mod history: 2020-12-24 MAS  Created from Comanche 45.
000017:


000019:                                                                                                  #  SUBROUTINE TO UPDATE THE PROGRAM NUMBER DISPLAY ON THE DSKY.
000020:
000021: 43,3726                                           COUNT    02/PHASE
000022:    5354                                           BLOCK    02
000023:    4000                                           SETLOC   FFTAG1
000024:    4000                                           BANK
000025:
000026:    5354           50002        NEWMODEX           INDEX    Q                                     #  UPDATE MODREG.  ENTRY FOR MODE IN FIXED.
000027:    5355           30000                           CAF      0
000028:    5356           24002                           INCR     Q
000029:
000030:    5357           55011        NEWMODEA           TS       MODREG                                #  ENTRY FOR MODE IN A.
000031:    5360           35363        MMDSPLAY           CAF      +3                                    #  DISPLAY MAJOR MODE.
000032:    5361           22006        PREBJUMP           LXCH     BBANK                                 #  PUTS BBANK IN L
000033:    5362           14704                           TCF      BANKJUMP                              #  PUTS Q INTO A
000034:    5363           20440                           CADR     SETUPDSP
000035:
000036:                                                                                                  #  RETURN TO CALLER +3 IF MODE = THAT AT CALLER +1.  OTHERWISE RETURN TO CALLER +2.
000037:
000038:    5364           50002        CHECKMM            INDEX    Q
000039:    5365           40000                           CS       0
000040:    5366           61011                           AD       MODREG
000041:    5367           00006                           EXTEND
000042:    5370           16710                           BZF      Q+2
000043:    5371           16706                           TCF      Q+1                                   #  NO MATCH
000044:
000045:    5372     6711               TCQ                =        Q+2        +1
000046:
000047: 14,3762                                           BANK     14
000048: 10,2000                                           SETLOC   PHASETAB
000049: 10,2000                                           BANK
000050:
000051: 10,2440                                           COUNT    10/PHASE
000052:
000053: 10,2440           00004        SETUPDSP           INHINT
000054: 10,2441           52071                           DXCH     RUPTREG1                              #  SAVE CALLER-S RETURN 2CADR
000055: 10,2442           34371                           CAF      PRIO30                                #        EITHER A TASK OR JOB CAN COME TO
000056: 10,2443           05134                           TC       NOVAC                                 #        NEWMODEX
000057: 10,2444     1011                                  EBANK=   MODREG
000058: 10,2444           03441 60102                     2CADR    DSPMMJOB
000059:
000060: 10,2446           52071                           DXCH     RUPTREG1
000061: 10,2447           00003                           RELINT
000062: 10,2450           52006                           DXCH     Z                                     #  RETURN
000063:
000064: 10,2451  40,3441               DSPMMJOB           EQUALS   DSPMMJB
000065:
000066:    5372                                           BLOCK    02


000068:    4000                                           SETLOC   FFTAG1
000069:    4000                                           BANK
000070:


000072:                                                                                                  #  PHASCHNG IS THE MAIN WAY OF MAKING PHASE CHANGES FOR RESTARTS.  THERE ARE THREE FORMS OF PHASCHNG, KNOWN AS TYPE
000073:                                                                                                  #  A, TYPE B, AND TYPE C.  THEY ARE ALL CALLED AS FOLLOWS, WHERE OCT XXXXX CONTAINS THE PHASE INFORMATION,
000074:                                                                                                  #                TC      PHASCHNG
000075:                                                                                                  #                OCT     XXXXX
000076:                                                                                                  #  TYPE A IS CONCERNED WITH FIXED PHASE CHANGES, THAT IS, PHASE INFORMATION THAT IS STORED PERMANENTLY.  THESE
000077:                                                                                                  #  OPTIONS ARE, WHERE G STANDS FOR A GROUP AND .X FOR THE PHASE,
000078:                                                                                                  #        G.0             INACTIVE, WILL NOT PERMIT A GROUP G RESTART
000079:                                                                                                  #        G.1             WILL CAUSE THE LAST DISPLAY TO BE REACTIVATED, USED MAINLY IN MANNED FLIGHTS
000080:                                                                                                  #        G.EVEN          A DOUBLE TABLE RESTART, CAN CAUSE ANY COMBINATION OF TWO JOBS, TASKS, AND/OR
000081:                                                                                                  #                        LONGCALL TO BE RESTARTED.
000082:                                                                                                  #        G.ODD NOT .1    A SINGLE TABLE RESTART, CAN CAUSE EITHER A JOB, TASK, OR LONGCALL RESTART
000083:
000084:                                                                                                  #  THIS INFORMATION IS PUT INTO THE OCTAL WORD AFTER TC PHASCHNG AS FOLLOWS
000085:                                                                                                  #                  TL0 00P PPP PPP GGG                                     ,
000086:                                                                                                  #  WHERE EACH LETTER OR NUMBER STANDS FOR A BIT.  THE G:S STAND FOR THE GROUP, OCTAL 1-7, THE P:S FOR THE PHASE,
000087:                                                                                                  #  OCTAL 0 - 127.  0:S MUST BE 0.  IF ONE WISHES TO HAVE THE TBASE OF GROUP G TO BE SET AT THIS TIME,
000088:                                                                                                  #  T IS SET TO 1, OTHERWISE IT IS SET TO 0.  SIMIARLY IF ONE WISHES TO SET LONGBASE, THEN L IS SET TO 1, OTHERWISE
000089:                                                                                                  #  IT IS SET TO 0.  SOME EXAMPLES,
000090:                                                                                                  #                TC      PHASCHNG        THIS WILL CAUSE GROUP 3 TO BE SET TO 0,
000091:                                                                                                  #                OCT     00003           MAKING GROUP 3 INACTIVE
000092:
000093:                                                                                                  #                TC      PHASCHNG        IF A RESTART OCCURS THIS WOULD CAUSE
000094:                                                                                                  #                OCT     00012           GROUP 2 TO RESTART THE LAST DISPLAY
000095:
000096:                                                                                                  #                TC      PHASCHNG        THIS SETS THE TBASE OF GROUP 4 AND IN
000097:                                                                                                  #                OCT     40064           CASE OF A RESTART WOULD START UP THE TWO
000098:                                                                                                  #                                        THINGS LOCATED IN THE DOUBLE 4.6 RESTART
000099:                                                                                                  #                                        LOCATION
000100:
000101:                                                                                                  #                TC      PHASCHNG        THIS SETS LONGBASE AND UPON A RESTART
000102:                                                                                                  #                OCT     20135           CAUSES 5.13 TO BE RESTARTED (SINCE
000103:                                                                                                  #                                        LONGBASE WAS SET THIS SINGLE ENTRY
000104:                                                                                                  #                                        SHOULD BE A LONGCALL)
000105:
000106:                                                                                                  #                TC      PHASCHNG        SINCE BOTH TBASE4 AND LONGBASE ARE SET,
000107:                                                                                                  #                OCT     60124           4.12 SHOULD CONTAIN BOTH A TASK AND A
000108:                                                                                                  #                                        LONGCALL TO BE RESTARTED
000109:
000110:                                                                                                  #  TYPE C PHASCHNG CONTAINS THE VARIABLE TYPE OF PHASCHNG INFORMATION.  INSTEAD OF THE INFORMATION BEING IN A
000111:                                                                                                  #  PERMANENT FORM, ONE STORES THE DESIRED RESTART INFORMATION IN A VARIABKE LOCATION.  THE BITS ARE AS FOLLOWS,
000112:                                                                                                  #        TL0 1AD XXX CJW GGG
000113:                                                                                                  #  WHERE EACH LETTER OR NUMBER STANDS FOR A BIT.  THE G:S STAND FOR THE GROUP, OCTAL 1 - 7.  IF THE RESTART IS TO
000114:                                                                                                  #  BE BY WAITLIST, W IS SET TO 1, IF IT IS A JOB, J IS SET TO 1, IF IT IS A LONGCALL, C IS SET TO 1.  ONLY ONE OF
000115:                                                                                                  #  THESE THREE BITS MAY BE SET.  X:S ARE IGNORED  1 MUST BE 1, AND 0 MUST BE 0.  AGAIN T STANDS FOR THE TBASE,


000117:                                                                                                  #  AND L FOR LONGBASE.  THE BITS A AND D ARE CONCERNED WITH THE VARIABLE INFORMATION.  IF D IS SET TO 1, A PRIORITY
000118:                                                                                                  #  OR DELTA TIME WILL BE READ FROM THE NEXT LOCATION AFTER THE OCTAL INFORMATION, IF THIS IS TO BE INDIRECT, THAT
000119:                                                                                                  #  IS, THE NAME OF A LOCATION COMT+INING THE INFORMATION (DELTA TIME ONLY), THEN THIS IS GIVEN AS THE -GENADR OF
000120:                                                                                                  #  THAT LOCATION WHICH CONTAINS THE DELTA TIME.  IF THE OLD PRIORITY OR DELTA TIME IS TO BE USED, THAT WHICH IS
000121:                                                                                                  #  ALREADY IN THE VARIABLE STORAGE, THEN D IS SET TO 0.  NEXT THE A BIT IS USED.  IF IT IS SET TO 0, THE ADDRESS
000122:                                                                                                  #  THAT WOULD BE RESTARTED DURING A RESTART IS THE NEXT LOCATION AFTER THE PHASE INFORMATION, THAT IS, EITHER
000123:                                                                                                  #  (TC PHASCHNG) +2 OR +3, DEPENDING ON WHETHER D HAD BEEN SET OR NOT.  IF A IS SET TO 1, THEN THE ADDRESS THAT
000124:                                                                                                  #  WOULD BE RESTARTED IS THE 2CADR THAT IS READ FROM THE NEXT TWO LOCATIONS.  EXAMPLES,
000125:                                                                                                  #        AD      TC      PHASCHNG        THIS WOULD CAUSE LOCATION AD +3 TO BE
000126:                                                                                                  #        AD+1    OCT     05023           RESTARTED BY GROUP THREE WITH A PRIORITY
000127:                                                                                                  #        AD+2    OCT     23000           OF 23.  NOTE UPON RETURNING IT WOULD
000128:                                                                                                  #        AD+3                            ALSO GO TO AD+3
000129:
000130:                                                                                                  #        AD      TC      PHASCHNG        GROUP  1 WOULD CAUSE CAUSE CALLCALL TO
000131:                                                                                                  #        AD+1    OCT     27441           BE STARTED AS A LONGCALL FROM THE TIME
000132:                                                                                                  #        AD+2    -GENADR DELTIME         STORED IN LONGBASE (LONGBASE WAS SET) BY
000133:                                                                                                  #        AD+3    2CADR   CALLCALL        A DELTATIME STORED IN DELTIME.  THE
000134:                                                                                                  #        AD+4                            BBCON OF THE 2CADR SHOULD CONTAIN THE E
000135:                                                                                                  #        AD+5                            BANK OF DELTIME.  PHASCHNG RETURNS TO
000136:                                                                                                  #                                        LOCATION AD+5
000137:
000138:                                                                                                  #  NOTE THAT IF A VARIABLE PRIORITY IS GIVEN FOR A JOB, THE JOB WILL BE RESTARTED AS A NOVAC IF THE PRIORITY IS
000139:                                                                                                  #  NEGATIVE, AS A FINDVAC IF THE PRIORITY IS POSITIVE.
000140:
000141:                                                                                                  #  TYPE B PHASCHNG IS A COMBINATION OF VARIABLE AND FIXED PHASE CHANGES.  IT WILL START UP A JOB AS INDICATED
000142:                                                                                                  #  BELOW AND ALSO START UP ONE FIXED RESTART, THAT IS EITHER AN G.1 OR A G.ODD OR THE FIRST ENTRY OF G.EVEN
000143:                                                                                                  #  DOUBLE ENTRY.  THE BIT INFORMATION IS AS FOLLOWS,
000144:                                                                                                  #        TL1 DAP PPP PPP GGG
000145:                                                                                                  #  WHERE EACH LETTER OR NUMBER STANDS FOR A BIT.  THE G:S STAND FOR THE GROUP, OCTAL 1 - 7. THE P:S FOR THE FIXED
000146:                                                                                                  #  PHASE INFORMATION, OCTAL 0 - 127.  1 MUST BE 1.  AND AGAIN T STANDS FOR THE TBASE AND L FOR LONGBASE.  D THIS
000147:                                                                                                  #  TIME STANDS ONLY FOR PRIORITY SINCE THIS WILL BE CONSIDERED A JOB, AND IT MUST BE GIVEN DIRECTLY IF GIVEN.
000148:                                                                                                  #  AGAIN A STANDS FOR THE ADDRESS OF THE LOCATION TO BE RESTARTED, 1 IF THE 2CADR IS GIVEN, OR 0 IF IT IS TO BE
000149:                                                                                                  #  THE NEXT LOCATION.  (THE RETURN LOCATION OF PHASCHNG) EXAMPLES,
000150:                                                                                                  #        AD      TC      PHASCHNG        TBASE IS SET AND A RESTART CAUSE GROUP 3
000151:                                                                                                  #        AD+1    OCT     56043           TO START THE JOB AJOBAJOB WITH PRIORITY
000152:                                                                                                  #        AD+2    OCT     31000           31 AND THE FIRST ENTRY OF 3.4SPOT (WE CAN
000153:                                                                                                  #        AD+3    2CADR   AJOBAJOB        ASSUME IT IS A TASK SINCE WE SET TBASE3)
000154:                                                                                                  #        AD+4                            UPON RETURN FROM PHASCHNG CONTROL WOULD
000155:                                                                                                  #        AD+5                            GO TO AD+5
000156:
000157:                                                                                                  #        AD      TC      PHASCHNG        UPON A RESTART THE LAST DISPLAY WOULD BE
000158:                                                                                                  #        AD+1    OCT     10015           RESTARTED AND A JOB WITH THE PREVIOUSLY
000159:                                                                                                  #        AD+2                            STORED PRIORITY WOULD BE BEGUN AT AD+2
000160:                                                                                                  #                                        BY MEANS OF GROUP 5


000162:                                                                                                  #  THE NOVAC-FINDVAC CHOICE FOR JOBS HOLDS HERE ALSO - NEGATIVE PRIORITY CAUSES A NOVAC CALL, POSITIVE A FINDVAC.
000163:
000164:                                                                                                  #  SUMMARY OF BITS
000165:                                                                                                  #        TYPE A          TL0 00P PPP PPP GGG
000166:                                                                                                  #        TYPE B          TL1 DAP PPP PPP GGG
000167:                                                                                                  #        TYPE C          TL0 1AD XXX CJW GGG
000168:


000170:                                                                                                  #  2PHSCHNG IS USED WHEN ONE WISHES TO START UP A GROUP OR CHANGE A GROUP WHILE UNDER THE CONTROL OF A DIFFERENT
000171:                                                                                                  #  GROUP.  FOR EXAMPLE, CHANGE THE PHASE OF GROUP 3 WHILE THE PORTION OF THE PROGRAM IS UNDER GROUP 5.  ALL 2PHSCHNG
000172:                                                                                                  #  CALLS ARE MADE IN THE FOLLOWING MANNER,
000173:                                                                                                  #                TC      2PHSCHNG
000174:                                                                                                  #                OCT     XXXXX
000175:                                                                                                  #                OCT     YYYYY
000176:                                                                                                  #  WHERE OCT XXXXX MUST BE OF TYPE A AND OCT YYYYY MAY BE OF EITHER TYPE A OR TYPE B OR TYPE C.  THERE IS ONE
000177:                                                                                                  #  DIFFERENCE --- NOTE- IF LONGBASE IS TO BE SET THIS INFORMATION IS GIVEN IN THE OCT YYYYY INFORMATION, IT WILL
000178:                                                                                                  #  BE DISREGARDED IF GIVEN WITH THE OCT XXXXX INFORMATION.  A COUPLE OF EXAMPLES MAY HELP,
000179:                                                                                                  #        AD      TC      2PHSCHNG        SET TBASE3 AND IF A RESTART OCCURS START
000180:                                                                                                  #        AD+1    OCT     40083           THE TWO ENTRIES IN 3.8 TABLE LOCATION
000181:                                                                                                  #        AD+2    OCT     05025           THIS IS OF TYPE C, SET THE JOB TO BE
000182:                                                                                                  #        AD+3    OCT     18000           TO BE LOCATION AD+4, WITH A PRIORITY 18,
000183:                                                                                                  #        AD+4                            FOR GROUP 5 PHASE INFORMATION
000184:
000185:    5372                                           COUNT    02/PHASE
000186:
000187:    5372           00004        2PHSCHNG           INHINT                                         #  THE ENTRY FOR A DOUBLE PHASE CHANGE
000188:    5373           50002                           NDX      Q
000189:    5374           30000                           CA       0
000190:    5375           24002                           INCR     Q
000191:    5376           54072                           TS       TEMPP2
000192:
000193:    5377           75023                           MASK     OCT7
000194:    5400           60000                           DOUBLE
000195:    5401           54071                           TS       TEMPG2
000196:
000197:    5402           30072                           CA       TEMPP2
000198:    5403           75072                           MASK     OCT17770                              #  NEED ONLY 1770, BUT WHY GET A NEW CONST.
000199:    5404           00006                           EXTEND
000200:    5405           75004                           MP       BIT12
000201:    5406           56072                           XCH      TEMPP2
000202:
000203:    5407           75001                           MASK     BIT15
000204:    5410           54066                           TS       TEMPSW2                               #  INDICATES WHETHER TO SET TBASE OR NOT
000205:
000206:    5411           15415                           TCF      PHASCHNG   +3
000207:
000208:    5412           00004        PHASCHNG           INHINT
000209:    5413           35017                           CA       ONE                                   #  INDICATESWE CAME FROM A PHASCHNG ENTRY
000210:    5414           54066                           TS       TEMPSW2
000211:
000212:    5415           50002                           NDX      Q
000213:    5416           30000                           CA       0
000214:    5417           24002                           INCR     Q
000215:    5420           54065                           TS       TEMPSW


000217:    5421           00006                           EXTEND
000218:    5422           35425                           DCA      ADRPCHN2                              #  OFF TO SWITCHED BANK
000219:    5423           52006                           DTCB
000220:
000221:    5424  E3,1400                                  EBANK=   LST1
000222:    5424           02451 20063  ADRPCHN2           2CADR    PHSCHNG2
000223:
000224:    5426           22073        ONEORTWO           LXCH     TEMPBBCN
000225:    5427           22006                           LXCH     BBANK
000226:    5430           22073                           LXCH     TEMPBBCN
000227:
000228:    5431           75066                           MASK     OCT14000                              #  SEE WHAT KIND OF PHASE CHANGE IT IS
000229:    5432           10000                           CCS      A
000230:    5433           15474                           TCF      CHECKB                                #  IT IS OF TYPE :B:
000231:
000232:    5434           30062                           CA       TEMPP
000233:    5435           75011                           MASK     BIT7
000234:    5436           10000                           CCS      A                                     #  SHALL WE USE THE OLD PRIORITY
000235:    5437           15461                           TCF      GETPRIO                               #  NO GET A NEW PRIORITY (OR DELTA T)
000236:
000237:    5440           50061        OLDPRIO            NDX      TEMPG                                 #  USE THE OLD PRIORITY (OR DELTA T)
000238:    5441           31052                           CA       PHSPRDT1   -2
000239:    5442           54070                           TS       TEMPPR
000240:
000241:    5443           30062        CON1               CA       TEMPP                                 #  SEE IF A 2CADR IS GIVEN
000242:    5444           75010                           MASK     BIT8
000243:    5445           10000                           CCS      A
000244:    5446           15465                           TCF      GETNEWNM
000245:
000246:    5447           30002                           CA       Q
000247:    5450           54063                           TS       TEMPNM
000248:    5451           30006                           CA       BB
000249:    5452           00006                           EXTEND                                         #  PICK UP USERS SUPERBANK
000250:    5453           04007                           ROR      SUPERBNK
000251:    5454           54064                           TS       TEMPBB
000252:
000253:    5455           35460        TOCON2             CA       CON2ADR                               #  BACK TO SWITCHED BANK
000254:    5456           22073                           LXCH     TEMPBBCN
000255:    5457           52006                           DTCB
000256:
000257:    5460           02537        CON2ADR            GENADR   CON2
000258:
000259:    5461           50002        GETPRIO            NDX      Q                                     #  DON:T CARE IF DIRECT OR INDIRECT
000260:    5462           30000                           CA       0                                     #  LEAVE THAT DECISION TO RESTARTS
000261:    5463           24002                           INCR     Q                                     #  OBTAIN RETURN ADDRESS
000262:    5464           15442                           TCF      CON1       -1
000263:
000264:    5465           00006        GETNEWNM           EXTEND


000266:    5466           50002                           INDEX    Q
000267:    5467           30001                           DCA      0
000268:    5470           52064                           DXCH     TEMPNM
000269:    5471           35016                           CA       TWO
000270:    5472           26002                           ADS      Q                                     #  OBTAIN RETURN ADDRESS
000271:
000272:    5473           15455                           TCF      TOCON2
000273:
000274:    5474     5066               OCT14000           EQUALS   PRIO14
000275:    5474     0061               TEMPG              EQUALS   ITEMP1
000276:    5474     0062               TEMPP              EQUALS   ITEMP2
000277:    5474     0063               TEMPNM             EQUALS   ITEMP3
000278:    5474     0064               TEMPBB             EQUALS   ITEMP4
000279:    5474     0065               TEMPSW             EQUALS   ITEMP5
000280:    5474     0066               TEMPSW2            EQUALS   ITEMP6
000281:    5474     0070               TEMPPR             EQUALS   RUPTREG1
000282:    5474     0071               TEMPG2             EQUALS   RUPTREG2
000283:    5474     0072               TEMPP2             EQUALS   RUPTREG3
000284:
000285:    5474     0073               TEMPBBCN           EQUALS   RUPTREG4
000286:    5474  0000006               BB                 EQUALS   BBANK
000287:
000288: 14,3762                                           BANK     14
000289: 10,2000                                           SETLOC   PHASETAB
000290: 10,2000                                           BANK
000291:
000292: 10,2451  E3,1436                                  EBANK=   PHSNAME1
000293: 10,2451                                           COUNT    10/PHASE
000294:
000295: 10,2451           22073        PHSCHNG2           LXCH     TEMPBBCN
000296: 10,2452           30065                           CA       TEMPSW
000297: 10,2453           75023                           MASK     OCT7
000298: 10,2454           60000                           DOUBLE
000299: 10,2455           54061                           TS       TEMPG
000300:
000301: 10,2456           30065                           CA       TEMPSW
000302: 10,2457           75072                           MASK     OCT17770
000303: 10,2460           00006                           EXTEND
000304: 10,2461           75004                           MP       BIT12
000305: 10,2462           54062                           TS       TEMPP
000306:
000307: 10,2463           30065                           CA       TEMPSW
000308: 10,2464           74105                           MASK     OCT60000
000309: 10,2465           56065                           XCH      TEMPSW
000310: 10,2466           75066                           MASK     OCT14000
000311: 10,2467           10000                           CCS      A
000312: 10,2470           15426                           TCF      ONEORTWO
000313:


000315: 10,2471           30062                           CA       TEMPP                                 #  START STORING THE PHASE INFORMATION
000316: 10,2472           50061                           NDX      TEMPG
000317: 10,2473           54751                           TS       PHASE1     -2
000318:
000319: 10,2474           10066        BELOW1             CCS      TEMPSW2                               #  IS IT A PHASCHNG OR A 2PHSCHNG
000320: 10,2475           12511                           TCF      BELOW2                                #  IT:S A PHASCHNG
000321:
000322: 10,2476           12477                           TCF      +1                                    #  IT:S A 2PHSCHNG
000323: 10,2477           40072                           CS       TEMPP2
000324: 10,2500           22072                           LXCH     TEMPP2
000325: 10,2501           50071                           NDX      TEMPG2
000326: 10,2502           52751                           DXCH     -PHASE1    -2
000327:
000328: 10,2503           10066                           CCS      TEMPSW2
000329: 10,2504           12505                           NOOP                                           #  CAN:T GET HERE
000330: 10,2505           12511                           TCF      BELOW2
000331:
000332: 10,2506           40025                           CS       TIME1
000333: 10,2507           50071                           NDX      TEMPG2
000334: 10,2510           55051                           TS       TBASE1     -2
000335:
000336: 10,2511           10065        BELOW2             CCS      TEMPSW                                #  SEE IF WE SHOULD SET TBASE OR LONGBASE
000337: 10,2512           12525                           TCF      BELOW3                                #  SET LONGBASE ONLY
000338: 10,2513           12530                           TCF      BELOW4                                #  SET NEITHER
000339:
000340: 10,2514           40025                           CS       TIME1                                 #  SET TBASE TO BEGIN WITH
000341: 10,2515           50061                           NDX      TEMPG
000342: 10,2516           55051                           TS       TBASE1     -2
000343:
000344: 10,2517           30065                           CA       TEMPSW                                #  SHALL WE NOW SET LONGBASE
000345: 10,2520           62523                           AD       BIT14COM
000346: 10,2521           10000                           CCS      A
000347: 10,2522           12523                           NOOP                                           #  ***** CANT GET HERE *****
000348: 10,2523           17777        BIT14COM           OCT      17777                                 #  ***** CANT GET HERE *****
000349: 10,2524           12530                           TCF      BELOW4                                #  NO WE NEED ONLY SET TBASE
000350:
000351: 10,2525           00006        BELOW3             EXTEND                                         #  SET LONGBASE
000352: 10,2526           30025                           DCA      TIME2
000353: 10,2527           53136                           DXCH     LONGBASE
000354:
000355: 10,2530           40062        BELOW4             CS       TEMPP                                 #  AND STORE THE FINAL PART OF THE PHASE
000356: 10,2531           50061                           NDX      TEMPG
000357: 10,2532           54750                           TS       -PHASE1    -2
000358:
000359: 10,2533           30002                           CA       Q
000360: 10,2534           22073                           LXCH     TEMPBBCN
000361: 10,2535           00003                           RELINT
000362: 10,2536           52006                           DTCB
000363: 10,2537           22073        CON2               LXCH     TEMPBBCN


000365: 10,2540           30062                           CA       TEMPP
000366: 10,2541           50061                           NDX      TEMPG
000367: 10,2542           54751                           TS       PHASE1     -2
000368:
000369: 10,2543           30070                           CA       TEMPPR
000370: 10,2544           50061                           NDX      TEMPG
000371: 10,2545           55052                           TS       PHSPRDT1   -2
000372:
000373: 10,2546           00006                           EXTEND
000374: 10,2547           30064                           DCA      TEMPNM
000375: 10,2550           50061                           NDX      TEMPG
000376: 10,2551           53435                           DXCH     PHSNAME1   -2
000377:
000378: 10,2552           12474                           TCF      BELOW1
000379:
000380:    5474                                           BLOCK    02
000381:    4000                                           SETLOC   FFTAG1
000382:    4000                                           BANK
000383:
000384:    5474                                           COUNT    02/PHASE
000385:
000386:    5474           75004        CHECKB             MASK     BIT12                                 #  SINCE THIS IS OF TYPE B, THIS BIT SHOULD
000387:    5475           10000                           CCS      A                                     #  BE HERE IF WE ARE TO GET A NEW PRIORITY
000388:    5476           15461                           TCF      GETPRIO                               #  IT IS, SO GET NEW PRIORITY
000389:
000390:    5477           15440                           TCF      OLDPRIO                               #  IT ISN:T, USE THE OLD PRIORITY
000391:
000392:
000393:

End of include-file PHASE_TABLE_MAINTENANCE.agc.  Parent file is MAIN.agc


