
Source Code


000002:                                                                                                  ## Copyright:   Public domain.
000003:                                                                                                  ## Filename:    RTB_OP_CODES.agc
000004:                                                                                                  ## Purpose:     A section of Manche45 revision 2.
000005:                                                                                                  ##              It is part of the reconstructed source code for the
000006:                                                                                                  ##              final, flown release of the flight software for the Command
000007:                                                                                                  ##              Module's (CM) Apollo Guidance Computer (AGC) for Apollo 10.
000008:                                                                                                  ##              The code has been recreated from a copy of Comanche 055. It
000009:                                                                                                  ##              has been adapted such that the resulting bugger words
000010:                                                                                                  ##              exactly match those specified for Manche 45/2 in NASA drawing
000011:                                                                                                  ##              2021153D, which gives relatively high confidence that the
000012:                                                                                                  ##              reconstruction is correct.
000013:                                                                                                  ## Assembler:   yaYUL
000014:                                                                                                  ## Contact:     Ron Burkey <info@sandroid.org>.
000015:                                                                                                  ## Website:     www.ibiblio.org/apollo/index.html
000016:                                                                                                  ## Mod history: 2020-12-24 MAS  Created from Comanche 45 and added in the
000017:                                                                                                  ##                              QUALITY1 and QUALITY2 functions for the R-2
000018:                                                                                                  ##                              potential model.
000019:                                                                                                  ##              2020-12-24 RSB  Beefed up reconstruction-justification annotation.
000020:


000022: 22,3510                                           BANK     22
000023: 22,2000                                           SETLOC   RTBCODES
000024: 22,2000                                           BANK
000025:
000026: 22,3510  E5,1713                                  EBANK=   XNB
000027: 22,3510                                           COUNT*   $$/RTB
000028:
000029:                                                                                                  #  LOAD TIME2, TIME1 INTO MPAC:
000030:
000031: 22,3510           00006        LOADTIME           EXTEND
000032: 22,3511           30025                           DCA      TIME2
000033: 22,3512           16024                           TCF      SLOAD2
000034:
000035:                                                                                                  #  CONVERT THE SINGLE PRECISION 2'S COMPLEMENT NUMBER ARRIVING IN MPAC (SCALED IN HALF-REVOLUTIONS) TO A
000036:                                                                                                  #  DP 1'S COMPLEMENT NUMBER SCALED IN REVOLUTIONS.
000037:
000038: 22,3513           10154        CDULOGIC           CCS      MPAC
000039: 22,3514           35021                           CAF      ZERO
000040: 22,3515           13520                           TCF      +3
000041: 22,3516           13517                           NOOP
000042: 22,3517           45002                           CS       HALF
000043:
000044: 22,3520           54155                           TS       MPAC       +1
000045: 22,3521           35021                           CAF      ZERO
000046: 22,3522           56154                           XCH      MPAC
000047: 22,3523           00006                           EXTEND
000048: 22,3524           75002                           MP       HALF
000049: 22,3525           20155                           DAS      MPAC
000050: 22,3526           16030                           TCF      DANZIG                                #  MODE IS ALREADY AT DOUBLE-PRECISION
000051:
000052:                                                                                                  #  READ THE PIPS INTO MPAC WITHOUT CHANGING THEM:
000053:
000054: 22,3527           00004        READPIPS           INHINT
000055: 22,3530           30037                           CA       PIPAX
000056: 22,3531           54154                           TS       MPAC
000057: 22,3532           30040                           CA       PIPAY
000058: 22,3533           54157                           TS       MPAC       +3
000059: 22,3534           30041                           CA       PIPAZ
000060: 22,3535           00003                           RELINT
000061: 22,3536           54161                           TS       MPAC       +5
000062:
000063: 22,3537           35021                           CAF      ZERO
000064: 22,3540           54155                           TS       MPAC       +1
000065: 22,3541           54160                           TS       MPAC       +4
000066: 22,3542           54162                           TS       MPAC       +6
000067: 22,3543           16470        VECMODE            TCF      VMODE
000068:
000069:                                                                                                  #  FORCE TP SIGN AGREEMENT IN MPAC:
000070:
000071: 22,3544           07226        SGNAGREE           TC       TPAGREE
000072:


000074:
000075: 22,3545           16030                           TCF      DANZIG
000076:
000077:                                                                                                  #  CONVERT THE DP 1'S COMPLEMENT ANGLE SCALED IN REVOLUTIONS TO A SINGLE PRECISION 2'S COMPLEMENT ANGLE
000078:                                                                                                  #  SCALED IN HALF-REVOLUTIONS.
000079:
000080: 22,3546           03576        1STO2S             TC       1TO2SUB
000081: 22,3547           35021                           CAF      ZERO
000082: 22,3550           54155                           TS       MPAC       +1
000083: 22,3551           16027                           TCF      NEWMODE
000084:
000085:                                                                                                  #  DO 1STO2S ON A VECTOR OF ANGLES:
000086:
000087: 22,3552           03576        V1STO2S            TC       1TO2SUB                               #  ANSWER ARRIVES IN A AND MPAC.
000088:
000089: 22,3553           52162                           DXCH     MPAC       +5
000090: 22,3554           52155                           DXCH     MPAC
000091: 22,3555           03576                           TC       1TO2SUB
000092: 22,3556           54156                           TS       MPAC       +2
000093:
000094: 22,3557           52160                           DXCH     MPAC       +3
000095: 22,3560           52155                           DXCH     MPAC
000096: 22,3561           03576                           TC       1TO2SUB
000097: 22,3562           54155                           TS       MPAC       +1
000098:
000099: 22,3563           30161                           CA       MPAC       +5
000100: 22,3564           54154                           TS       MPAC
000101:
000102: 22,3565           35017        TPMODE             CAF      ONE                                   #  MODE IS TP.
000103: 22,3566           16027                           TCF      NEWMODE
000104:
000105:                                                                                                  #  V1STO2S FOR 2 COMPONENT VECTOR. USED BY RR.
000106:
000107: 22,3567           03576        2V1STO2S           TC       1TO2SUB
000108: 22,3570           52160                           DXCH     MPAC       +3
000109: 22,3571           52155                           DXCH     MPAC
000110: 22,3572           03576                           TC       1TO2SUB
000111: 22,3573           54001                           TS       L
000112: 22,3574           30157                           CA       MPAC       +3
000113: 22,3575           16024                           TCF      SLOAD2
000114:
000115:                                                                                                  #  SUBROUTINE TO DO DOUBLING AND 1'S TO 2'S CONVERSION:
000116:
000117: 22,3576           52155        1TO2SUB            DXCH     MPAC                                  #  FINAL MPAC +1 UNSPECIFIED.
000118: 22,3577           20001                           DDOUBL
000119: 22,3600           10000                           CCS      A
000120: 22,3601           65017                           AD       ONE
000121: 22,3602           13604                           TCF      +2
000122: 22,3603           40000                           COM                                            #  THIS WAS REVERSE OF MSU.
000123:
000124: 22,3604           54154                           TS       MPAC                                  #  AND SKIP ON OVERFLOW.


000126: 22,3605           00002                           TC       Q
000127:
000128: 22,3606           50000                           INDEX    A                                     #  OVERFLOW UNCORRECT AND IN MSU.
000129: 22,3607           35000                           CAF      LIMITS
000130: 22,3610           26154                           ADS      MPAC
000131: 22,3611           00002                           TC       Q
000132:


000134:                                                                                                  #  SUBROUTINE TO INCREMENT CDUS
000135:
000136: 22,3612           33625        INCRCDUS           CAF      LOCTHETA
000137: 22,3613           54130                           TS       BUF                                   #  PLACE ADRES(THETA) IN BUF.
000138: 22,3614           30154                           CAE      MPAC                                  #  INCREMENT IN 1S COMPL.
000139: 22,3615           03626                           TC       CDUINC
000140:
000141: 22,3616           24130                           INCR     BUF
000142: 22,3617           30157                           CAE      MPAC       +3
000143: 22,3620           03626                           TC       CDUINC
000144:
000145: 22,3621           24130                           INCR     BUF
000146: 22,3622           30161                           CAE      MPAC       +5
000147: 22,3623           03626                           TC       CDUINC
000148:
000149: 22,3624           13543                           TCF      VECMODE
000150:
000151: 22,3625           01155        LOCTHETA           ADRES    THETAD
000152:
000153:                                                                                                  #  THE FOLLOWING ROUTINE INCREMENTS IN 2S COMPLEMENT THE REGISTER WHOSE ADDRESS IS IN BUF BY THE 1S COMPL.
000154:                                                                                                  #  QUANTITY FOUND IN TEM2.  THIS MAY BE USED TO INCREMENT DESIRED IMU AND OPTICS CDU ANGLES OR ANY OTHER 2S COMPL.
000155:                                                                                                  #  (+0 UNEQUAL TO -0) QUANTITY.  MAY BE CALLED BY BANKCALL/SWCALL.
000156:
000157: 22,3626           54142        CDUINC             TS       TEM2                                  #  1S COMPL. QUANT. ARRIVES IN ACC.  STORE IT
000158: 22,3627           50130                           INDEX    BUF
000159: 22,3630           10000                           CCS      0                                     #  CHANGE 2S COMPL. ANGLE (IN BUF) INTO 1S
000160: 22,3631           65017                           AD       ONE
000161: 22,3632           13636                           TCF      +4
000162: 22,3633           65017                           AD       ONE
000163: 22,3634           65017                           AD       ONE                                   #  OVERFLOW HERE IF 2S COMPL. IS 180 DEG.
000164: 22,3635           40000                           COM
000165:
000166: 22,3636           60142                           AD       TEM2                                  #  SULT MOVES FROM 2ND TO 3D QUAD. (OR BACK)
000167: 22,3637           10000                           CCS      A                                     #  BACK TO 2S COMPL.
000168: 22,3640           65017                           AD       ONE
000169: 22,3641           13643                           TCF      +2
000170: 22,3642           40000                           COM
000171: 22,3643           54142                           TS       TEM2                                  #  STORE 14BIT QUANTITY WITH PRESENT SIGN
000172: 22,3644           13650                           TCF      +4
000173: 22,3645           50000                           INDEX    A                                     #  SIGN.
000174: 22,3646           35000                           CAF      LIMITS                                #  FIX IT, BY ADDING IN 37777 OR 40000
000175: 22,3647           60142                           AD       TEM2
000176:
000177: 22,3650           50130                           INDEX    BUF
000178: 22,3651           54000                           TS       0                                     #  STORE NEW ANGLE IN 2S COMPLEMENT.
000179: 22,3652           00002                           TC       Q
000180:


000182:                                                                                                  #  RTB TO TORQUE GYROS, EXCEPT FOR THE CALL TO IMUSTALL.  ECADR OF COMMANDS ARRIVES IN X1.
000183:
000184: 22,3653           50120        PULSEIMU           INDEX    FIXLOC                                #  ADDRESS OF GYRO COMMANDS SHOULD BE IN X1
000185: 22,3654           30046                           CA       X1
000186: 22,3655           04662                           TC       BANKCALL
000187: 22,3656           17206                           CADR     IMUPULSE
000188: 22,3657           16030                           TCF      DANZIG
000189:


000191:                                                                                                  #  EACH ROUTINE TAKES A 3X3 MATRIX STORED IN DOUBLE PRECISION IN A FIXED AREA OF ERASABLE MEMORY AND REPLACES IT
000192:                                                                                                  #  WITH THE TRANSPOSE MATRIX.  TRANSP1 USES LOCATIONS XNB+0,+1 THROUGH XNB+16D, 17D AND TRANSP2 USES LOCATIONS
000193:                                                                                                  #  XNB1+0,+1 THROUGH XNB1+16D, 17D.  EACH MATRIX IS STORED BY ROWS.
000194:
000195: 22,3660           02713        XNBEB              ECADR    XNB
000196: 22,3661           02554        XNB1EB             ECADR    XNB1
000197:
000198: 22,3662  E5,1713                                  EBANK=   XNB
000199:
000200: 22,3662           33660        TRANSP1            CAF      XNBEB
000201: 22,3663           54003                           TS       EBANK
000202: 22,3664           53716                           DXCH     XNB        +2
000203: 22,3665           53722                           DXCH     XNB        +6
000204: 22,3666           53716                           DXCH     XNB        +2
000205:
000206: 22,3667           53720                           DXCH     XNB        +4
000207: 22,3670           53730                           DXCH     XNB        +12D
000208: 22,3671           53720                           DXCH     XNB        +4
000209:
000210: 22,3672           53726                           DXCH     XNB        +10D
000211: 22,3673           53732                           DXCH     XNB        +14D
000212: 22,3674           53726                           DXCH     XNB        +10D
000213: 22,3675           16030                           TCF      DANZIG
000214: 22,3676  E5,1554                                  EBANK=   XNB1
000215:
000216: 22,3676           33661        TRANSP2            CAF      XNB1EB
000217: 22,3677           54003                           TS       EBANK
000218: 22,3700           53557                           DXCH     XNB1       +2
000219: 22,3701           53563                           DXCH     XNB1       +6
000220: 22,3702           53557                           DXCH     XNB1       +2
000221:
000222: 22,3703           53561                           DXCH     XNB1       +4
000223: 22,3704           53571                           DXCH     XNB1       +12D
000224: 22,3705           53561                           DXCH     XNB1       +4
000225:
000226: 22,3706           53567                           DXCH     XNB1       +10D
000227: 22,3707           53573                           DXCH     XNB1       +14D
000228: 22,3710           53567                           DXCH     XNB1       +10D
000229: 22,3711           16030                           TCF      DANZIG
000230:


000232:                                                                                                  #  THE SUBROUTINE SIGNMPAC SETS C(MPAC, MPAC +1) TO SIGN(MPAC).
000233:                                                                                                  #  FOR THIS, ONLY THE CONTENTS OF MPAC ARE EXAMINED.  ALSO +0 YIELDS POSMAX AND -0 YIELDS NEGMAX.
000234:
000235:                                                                                                  #  ENTRY MAY BE BY EITHER OF THE FOLLOWING:
000236:                                                                                                  #        1.      LIMIT THE SIZE OF MPAC ON INTERPRETIVE OVERFLOW:
000237:                                                                                                  #                ENTRY:          BOVB
000238:                                                                                                  #                                        SIGNMPAC
000239:                                                                                                  #        2.      GENERATE IN MPAC THE SIGNUM FUNCTION OF MPAC:
000240:                                                                                                  #                ENTRY:          RTB
000241:                                                                                                  #                                        SIGNMPAC
000242:                                                                                                  #  IN EITHER CASE, RETURN IS TO THE NEXT INTERPRETIVE INSTRUCTION IN THE CALLING SEQUENCE.
000243:
000244: 22,3712           00006        SIGNMPAC           EXTEND
000245: 22,3713           34777                           DCA      DPOSMAX
000246: 22,3714           52155                           DXCH     MPAC
000247: 22,3715           10000                           CCS      A
000248: 22,3716           35021        DPMODE             CAF      ZERO                                  #  SETS MPAC +2 TO ZERO IN THE PROCESS
000249: 22,3717           16026                           TCF      SLOAD2     +2
000250: 22,3720           13721                           TCF      +1
000251: 22,3721           00006                           EXTEND
000252: 22,3722           44777                           DCS      DPOSMAX
000253: 22,3723           16024                           TCF      SLOAD2
000254:
000255:                                                                                                  #  RTB OP CODE NORMUNIT IS LIKE INTERPRETIVE INSTRUCTION UNIT, EXCEPT THAT IT CAN BE DEPENDED ON NOT TO BLOW
000256:                                                                                                  #  UP WHEN THE VECTOR BEING UNITIZED IS VERY SMALL -- IT WILL BLOW UP WHEN ALL COMPONENTS ARE ZERO.  IF NORMUNIT
000257:                                                                                                  #  IS USED AND THE UPPER ORDER HALVES OF ALL COMPONENTS ARE ZERO, THE MAGNITUDE RETURNED IN 36D WILL BE TOO LARGE
000258:                                                                                                  #  BY A FACTOR OF 2(13) AND THE SQUARED MAGNITUDE RETURNED AT 34D WILL BE TOO BIG BY A FACTOR OF 2(26).
000259:
000260: 22,3724           35017        NORMUNX1           CAF      ONE
000261: 22,3725           13727                           TCF      NORMUNIT   +1
000262: 22,3726           35021        NORMUNIT           CAF      ZERO
000263: 22,3727           60120                           AD       FIXLOC
000264: 22,3730           54156                           TS       MPAC       +2
000265: 22,3731           04662                           TC       BANKCALL                              #  GET SIGN AGREEMENT IN ALL COMPONENTS
000266: 22,3732           01010                           CADR     VECAGREE
000267: 22,3733           10154                           CCS      MPAC
000268: 22,3734           13770                           TCF      NOSHIFT
000269: 22,3735           13737                           TCF      +2
000270: 22,3736           13770                           TCF      NOSHIFT
000271: 22,3737           10157                           CCS      MPAC       +3
000272: 22,3740           13770                           TCF      NOSHIFT
000273: 22,3741           13743                           TCF      +2
000274: 22,3742           13770                           TCF      NOSHIFT
000275: 22,3743           10161                           CCS      MPAC       +5
000276: 22,3744           13770                           TCF      NOSHIFT
000277: 22,3745           13747                           TCF      +2
000278: 22,3746           13770                           TCF      NOSHIFT


000280: 22,3747           30155                           CA       MPAC       +1                         #  SHIFT ALL COMPONENTS LEFT 13
000281: 22,3750           00006                           EXTEND
000282: 22,3751           75002                           MP       BIT14
000283: 22,3752           20155                           DAS      MPAC                                  #  DAS GAINS A LITTLE ACCURACY
000284: 22,3753           30160                           CA       MPAC       +4
000285: 22,3754           00006                           EXTEND
000286: 22,3755           75002                           MP       BIT14
000287: 22,3756           20160                           DAS      MPAC       +3
000288: 22,3757           30162                           CA       MPAC       +6
000289: 22,3760           00006                           EXTEND
000290: 22,3761           75002                           MP       BIT14
000291: 22,3762           20162                           DAS      MPAC       +5
000292: 22,3763           35025                           CAF      THIRTEEN
000293: 22,3764           50156                           INDEX    MPAC       +2
000294: 22,3765           54045                           TS       37D
000295: 22,3766           04701        OFFTUNIT           TC       POSTJUMP
000296: 22,3767           01024                           CADR     UNIT       +1                         #  SKIP THE "TC VECAGREE" DONE AT UNIT
000297:
000298: 22,3770           35021        NOSHIFT            CAF      ZERO
000299: 22,3771           13764                           TCF      OFFTUNIT   -2
000300:
000301:                                                                                                  #  RTB VECSGNAG ... FORCES SIGN AGREEMENT OF VECTOR IN MPAC.
000302:
000303: 22,3772           04662        VECSGNAG           TC       BANKCALL
000304: 22,3773           01010                           CADR     VECAGREE
000305: 22,3774           06030                           TC       DANZIG
000306:


000308: 16,2000                                           SETLOC   MODCHG1
000309: 16,2000                                           BANK
000310: 16,3715           51575        S40.1A             VLOAD    ABVAL
000311: 16,3716           03646                                    DELVSIN
000312: 16,3717           27654                           STOVL    DELVSAB                               #  COMPUTE FOR P30/P40 INTERFACE
000313: 16,3720           03640                                    VTIG
000314: 16,3721           77616                           RVQ
000315:


000320:                                                                                                  #  MODULE CHANGE FOR NEW LUNAR GRAVITY MODEL
000321: 13,2000                                           SETLOC   MODCHG3
000322: 13,2000                                           BANK
000323: 13,3770           71214        QUALITY1           BOF      DLOAD
000324: 13,3771           00343                                    MOONFLAG
000325: 13,3772           23220                                    NBRANCH
000326: 13,3773           00017                                    URPV
000327: 13,3774           52116                           DSQ      GOTO
000328: 13,3775           25754                                    QUALITY2
000329: 12,2000                                           SETLOC   MODCHG2
000330: 12,2000                                           BANK
000331: 12,3754           63525        QUALITY2           PDDL     DSQ                                   #  SQUARE INTO 2D, B2
000332: 12,3755           00021                                    URPV       +2                         #  Y COMPONENT, B1
000333: 12,3756           77625                           DSU
000334: 12,3757           74205                           DMP      VXSC                                  #  5(Y**2-X**2)UR
000335: 12,3760           27755                                    5/8                                   #  CONSTANT, 5B3
000336: 12,3761           00017                                    URPV                                  #  VECTOR, RESULT MAXIMUM IS 5, SCALING
000337:                                                                                                  #  HERE B6
000338: 12,3762           65332                           VSL3     PDDL                                  #  STORE SCALED B3 IN 2D, 4D, 6D FOR XYZ
000339: 12,3763           00017                                    URPV                                  #  X COMPONENT, B1
000340: 12,3764           43342                           SR1      DAD                                   #  2 X X COMPONENT FOR B3 SCALING
000341: 12,3765           00003                                    2D                                    #  ADD TO VECTOR X COMPONENT OF ANSWER.
000342:                                                                                                  #  SAME AS MULTIPLYING BY UNITX.  MAX IS 7.
000343: 12,3766           14003                           STODL    2D
000344: 12,3767           00021                                    URPV       +2                         #  Y COMPONENT, B1
000345: 12,3770           44342                           SR1      BDSU                                  #  2 X Y COMPONENT FOR B3 SCALING
000346: 12,3771           00005                                    4D                                    #  SUBTRACT FROM VECTOR Y COMPONENT OF
000347:                                                                                                  #  ANSWER, SAME AS MULTIPLYING BY UNITY.
000348:                                                                                                  #  MAX IS 7.
000349: 12,3772           00005                           STORE    4D                                    #  2D HAS VECTOR, B3.
000350: 12,3773           74335                           SLOAD    VXSC                                  #  MULTIPLY COEFFIECIENT TIMES VECTOR IN 2D
000351: 12,3774           01774                                    E3J22R2M
000352: 12,3775           43525                           PDDL     RVQ                                   #  J22 TERM X R**4 IN 2D, SCALED B61
000353: 12,3776           00023                                    COSPHI/2                              #  SAME AS URPV +4, Z COMPONENT

End of include-file RTB_OP_CODES.agc.  Parent file is MAIN.agc


