
Source Code


000002:                                                                                                  ## Copyright:   Public domain.
000003:                                                                                                  ## Filename:    STABLE_ORBIT_-_P38-P39.agc
000004:                                                                                                  ## Purpose:     A section of Manche45 revision 2.
000005:                                                                                                  ##              It is part of the reconstructed source code for the
000006:                                                                                                  ##              final, flown release of the flight software for the Command
000007:                                                                                                  ##              Module's (CM) Apollo Guidance Computer (AGC) for Apollo 10.
000008:                                                                                                  ##              The code has been recreated from a copy of Comanche 055. It
000009:                                                                                                  ##              has been adapted such that the resulting bugger words
000010:                                                                                                  ##              exactly match those specified for Manche 45/2 in NASA drawing
000011:                                                                                                  ##              2021153D, which gives relatively high confidence that the
000012:                                                                                                  ##              reconstruction is correct.
000013:                                                                                                  ## Assembler:   yaYUL
000014:                                                                                                  ## Contact:     Ron Burkey <info@sandroid.org>.
000015:                                                                                                  ## Website:     www.ibiblio.org/apollo/index.html
000016:                                                                                                  ## Mod history: 2020-12-24 MAS  Created from Comanche 45.
000017:


000019:                                                                                                  #  STABLE ORBIT RENDEZVOUS PROGRAMS (P38 AND P78)
000020:
000021:                                                                                                  #  MOD NO -1             LOG SECTION - STABLE ORBIT - P38-P39
000022:                                                                                                  #  MOD BY RUDNICKI.S     DATE 25JAN68
000023:
000024:                                                                                                  #  FUNCTIONAL DESCRIPTION
000025:
000026:                                                                                                  #        P38 AND P78 CALCULATE THE REQUIRED DELTA V AND OTHER INITIAL
000027:                                                                                                  #        CONDITIONS REQUIRED BY THE AGC TO (1) PUT THE ACTIVE VEHICLE
000028:                                                                                                  #        ON A TRANSFER TRAJECTORY THAT INTERCEPTS THE PASSIVE VEHICLE
000029:                                                                                                  #        ORBIT A GIVEN DISTANCE, DELTA R, EITHER AHEAD OF OR BEHIND THE
000030:                                                                                                  #        PASSIVE VEHICLE AND (2) ACTUALLY PLACE THE ACTIVE VEHICLE IN THE
000031:                                                                                                  #        PASSIVE VEHICLE ORBIT WITH A DELTA R SEPARATION BETWEEN THE TWO
000032:                                                                                                  #        VEHICLES
000033:
000034:                                                                                                  #  CALLING SEQUENCE
000035:
000036:                                                                                                  #        ASTRONAUT REQUEST THRU DSKY
000037:
000038:                                                                                                  #        V37E38E         IF THIS VEHICLE IS ACTIVE VEHICLE
000039:                                                                                                  #        V37E78E         IF OTHER VEHICLE IS ACTIVE VEHICLE
000040:
000041:                                                                                                  #  INPUT
000042:
000043:                                                                                                  #        (1)     SOI MANEUVER
000044:
000045:                                                                                                  #                (A)  TIG        TIME OF SOI MANEUVER
000046:                                                                                                  #                (B)  CENTANG    ORBITAL CENTRAL ANGLE OF THE PASSIVE VEHICLE
000047:                                                                                                  #                                DURING TRANSFER FROM TIG TO TIME OF INTERCEPT
000048:                                                                                                  #                (C)  DELTAR     THE DESIRED SEPARATION OF THE TWO VEHICLES
000049:                                                                                                  #                                SPECIFIED AS A DISTANCE ALONG THE PASSIVE VEHICLE
000050:                                                                                                  #                                ORBIT
000051:                                                                                                  #                (D)  OPTION     EQUALS 1 FOR SOI
000052:
000053:                                                                                                  #        (2)     SOR MANEUVER
000054:
000055:                                                                                                  #                (A)  TIG        TIME OF SOR MANEUVER
000056:                                                                                                  #                (B)  CENTANG    AN OPTIONAL RESPECIFICATION OF 1 (B) ABOVE
000057:                                                                                                  #                (C)  OPTION     EQUALS 2 FOR SOR
000058:                                                                                                  #                (D)  DELTTIME   THE TIME REQUIRED TO TRAVERSE DELTA R WHEN
000059:                                                                                                  #                                TRAVELING AT A VELOCITY EQUAL TO THE HORIZONTAL
000060:                                                                                                  #                                VELOCITY OF THE PASSIVE VEHICLE - SAVED FROM
000061:                                                                                                  #                                SOI PHASE
000062:                                                                                                  #                (E)  TINT       TIME OF INTERCEPT (SOI) - SAVED FROM SOI PHASE
000063:
000064:                                                                                                  #  OUTPUT
000065:
000066:                                                                                                  #        (1)  TRKMKCNT   NUMBER OF MARKS
000067:                                                                                                  #        (2)  TTOGO      TIME TO GO
000068:                                                                                                  #        (3)  +MGA       MIDDLE GIMBAL ANGLE


000070:                                                                                                  #        (4)  DSPTEM1    TIME OF INTERCEPT OF PASSIVE VEHICLE ORBIT
000071:                                                                                                  #                        (FOR SOI ONLY)
000072:                                                                                                  #        (5)  POSTTPI    PERIGEE ALTITUDE OF ACTIVE VEHICLE ORBIT AFTER
000073:                                                                                                  #                        THE SOI (SOR) MANEUVER
000074:                                                                                                  #        (6)  DELVTPI    MAGNITUDE OF DELTA V AT SOI (SOR) TIME
000075:                                                                                                  #        (7)  DELVTPF    MAGNITUDE OF DELTA V AT INTERCEPT TIME
000076:                                                                                                  #        (8)  DELVLVC    DELTA VELOCITY AT SOI (AND SOR) - LOCAL VERTICAL
000077:                                                                                                  #                        COORDINATES
000078:
000079:                                                                                                  #  SUBROUTINES USED
000080:
000081:                                                                                                  #        AVFLAGA
000082:                                                                                                  #        AVFLAGP
000083:                                                                                                  #        VNDSPLY
000084:                                                                                                  #        BANKCALL
000085:                                                                                                  #        GOFLASHR
000086:                                                                                                  #        GOTOPOOH
000087:                                                                                                  #        BLANKET
000088:                                                                                                  #        ENDOFJOB
000089:                                                                                                  #        PREC/TT
000090:                                                                                                  #        SELECTMU
000091:                                                                                                  #        INTRPVP
000092:                                                                                                  #        MAINRTNE
000093:
000094: 04,2742                                           BANK     04
000095: 04,2000                                           SETLOC   STBLEORB
000096: 04,2000                                           BANK
000097:
000098: 04,2742  E4,1770                                  EBANK=   SUBEXIT
000099: 04,2742                                           COUNT*   $$/P3879
000100:
000101: 04,2742           04627        P38                TC       AVFLAGA                               #  THIS VEHICLE ACTIVE
000102: 04,2743           02745                           TC       +2
000103: 04,2744           04642        P78                TC       AVFLAGP                               #  OTHER VEHICLE ACTIVE
000104: 04,2745           04647                           TC       P20FLGON                              #  SET UPDATFLG, TRACKFLG
000105: 04,2746           33271                           CAF      V06N33SR                              #  DISPLAY TIG
000106: 04,2747           03260                           TC       VNDSPLY
000107: 04,2750           33272                           CAF      V06N55SR                              #  DISPLAY CENTANG
000108: 04,2751           04662                           TCR      BANKCALL
000109: 04,2752           21057                           CADR     GOFLASHR
000110: 04,2753           14106                           TCF      GOTOPOOH                              #  TERMINATE
000111: 04,2754           12761                           TCF      +5                                    #  PROCEED
000112: 04,2755           12750                           TCF      -5                                    #  RECYCLE
000113: 04,2756           36214                           CAF      THREE                                 #  IMMEDIATE RETURN - BLANK R1, R2
000114: 04,2757           05526                           TCR      BLANKET
000115: 04,2760           15217                           TCF      ENDOFJOB
000116: 04,2761           35022                           CAF      FIVE
000117: 04,2762           55131                           TS       OPTION1
000118: 04,2763           35017                           CAF      ONE
000119: 04,2764           55132                           TS       OPTION2                               #  OPTION CODE IS SET TO 1


000121: 04,2765           33273                           CAF      V04N06SR                              #  DISPLAY OPTION CODE -1 = SOI, 2 = SOR
000122: 04,2766           04662                           TCR      BANKCALL
000123: 04,2767           21057                           CADR     GOFLASHR
000124: 04,2770           14106                           TCF      GOTOPOOH                              #  TERMINATE
000125: 04,2771           12776                           TCF      +5                                    #  PROCEED
000126: 04,2772           12765                           TCF      -5                                    #  RECYCLE
000127: 04,2773           35015                           CAF      BIT3                                  #  IMMEDIATE RETURN - BLANK R3
000128: 04,2774           05526                           TCR      BLANKET
000129: 04,2775           15217                           TCF      ENDOFJOB
000130: 04,2776           06006                           TC       INTPRET
000131: 04,2777           70535                           SLOAD    SR1
000132: 04,3000           01133                                    OPTION2
000133: 04,3001           71230                           BHIZ     DLOAD
000134: 04,3002           11010                                    OPTN1
000135: 04,3003           03656                                    TINT
000136: 04,3004           02611                           STORE    TINTSOI                               #  STORE FOR SOR PHASE
000137: 04,3005           77614                           CLRGO
000138: 04,3006           01230                                    OPTNSW                                #  OPTNSW; ON = SOI, OFF = SOR
000139: 04,3007           11037                                    JUNCTN1
000140: 04,3010           43014        OPTN1              SET      CLEAR                                 #  SOI
000141: 04,3011           01070                                    OPTNSW
000142: 04,3012           00670                                    UPDATFLG
000143: 04,3013           77624                           CALL
000144: 04,3014           11213                                    PREC/TT
000145: 04,3015           43214                           SET      DAD
000146: 04,3016           00470                                    UPDATFLG
000147: 04,3017           03413                                    TIG
000148: 04,3020           03656                           STORE    TINT                                  #  TI = TIG + TF
000149: 04,3021           01046                           STORE    DSPTEM1                               #  FOR DISPLAY
000150: 04,3022           77776                           EXIT
000151: 04,3023           33274                           CAF      V06N57SR                              #  DISPLAY DELTA R
000152: 04,3024           04662                           TCR      BANKCALL
000153: 04,3025           21057                           CADR     GOFLASHR
000154: 04,3026           14106                           TCF      GOTOPOOH                              #  TERMINATE
000155: 04,3027           13034                           TCF      +5                                    #  PROCEED
000156: 04,3030           13023                           TCF      -5                                    #  RECYCLE
000157: 04,3031           36211                           CAF      SIX                                   #  IMMEDIATE RETURN - BLANK R2, R3
000158: 04,3032           05526                           TCR      BLANKET
000159: 04,3033           15217                           TCF      ENDOFJOB
000160: 04,3034           33275                           CAF      V06N34SR                              #  DISPLAY TIME OF INTERCEPT
000161: 04,3035           03260                           TC       VNDSPLY
000162: 04,3036           06006                           TC       INTPRET
000163: 04,3037           45014        JUNCTN1            CLEAR    CALL
000164: 04,3040           04266                                    P39/79SW
000165: 04,3041           10712                                    SELECTMU                              #  SELECT MU, CLEAR FINALFLG, GO TO VN1645
000166: 04,3042           77624        RECYCLE            CALL
000167: 04,3043           11213                                    PREC/TT


000169: 04,3044           71214                           BOFF     DLOAD
000170: 04,3045           01350                                    OPTNSW
000171: 04,3046           11066                                    OPTN2
000172: 04,3047           03656                                    TINT
000173: 04,3050           34041                           STCALL   TDEC1                                 #  PRECISION UPDATE PASSIVE VEHICLE TO
000174: 04,3051           11244                                    INTRPVP                               #  INTERCEPT TIME
000175: 04,3052           53575                           VLOAD    UNIT
000176: 04,3053           00001                                    RATT                                  #  RP/(RP)
000177: 04,3054           47315                           PDVL     VXV
000178: 04,3055           00007                                    VATT
000179: 04,3056           60246                           ABVAL    NORM                                  #  (VP X RP/(RP))
000180: 04,3057           00047                                    X1
000181: 04,3060           56325                           PDDL     DDV
000182: 04,3061           02611                                    DELTAR
000183: 04,3062           77657                           SL*                                            #  DELTA R / (VP X RP/RP)
000184: 04,3063           20172                                    0          -7,1
000185: 04,3064           36613                           STCALL   DELTTIME                              #  DELTA T = (RP) DELTA R / (VP X RP)
000186: 04,3065           11072                                    JUNCTN2
000187: 04,3066           43345        OPTN2              DLOAD    DAD
000188: 04,3067           02611                                    TINTSOI
000189: 04,3070           00037                                    T
000190: 04,3071           03656                           STORE    TINT                                  #  TI = TI + TF
000191: 04,3072           45345        JUNCTN2            DLOAD    DSU
000192: 04,3073           03656                                    TINT
000193: 04,3074           02613                                    DELTTIME
000194: 04,3075           02615                           STORE    TARGTIME                              #  TT = TI - DELTA T
000195:
000196:                                                                                                  #  .... MAINRTNE ....
000197:
000198:                                                                                                  #  SUBROUTINES USED
000199:
000200:                                                                                                  #        S3435.25
000201:                                                                                                  #        PERIAPO1
000202:                                                                                                  #        SHIFTR1
000203:                                                                                                  #        VNDSPLY
000204:                                                                                                  #        BANKCALL
000205:                                                                                                  #        GOFLASH
000206:                                                                                                  #        GOTOPOOH
000207:                                                                                                  #        VN1645
000208:
000209: 04,3076           34041        MAINRTNE           STCALL   TDEC1                                 #  PRECISION UPDATE PASSIVE VEHICLE TO
000210: 04,3077           11244                                    INTRPVP                               #        TARGET TIME
000211: 04,3100           77745                           DLOAD
000212: 04,3101           03413                                    TIG
000213: 04,3102           03503                           STORE    INTIME
000214: 04,3103           77331                           SSP      VLOAD
000215: 04,3104           02371                                    SUBEXIT
000216: 04,3105           11111                                    TEST3979
000217: 04,3106           00001                                    RATT
000218: 04,3107           77624                           CALL
000219: 04,3110           72547                                    S3435.25
000220: 04,3111           43014        TEST3979           BOFF     BON


000222: 04,3112           04346                                    P39/79SW
000223: 04,3113           11122                                    MAINRTN1
000224: 04,3114           01311                                    FINALFLG
000225: 04,3115           11120                                    P39P79
000226: 04,3116           77614                           SET
000227: 04,3117           00470                                    UPDATFLG
000228: 04,3120           77776        P39P79             EXIT
000229: 04,3121           03147                           TC       DSPLY81                               #  FOR P39 AND P79
000230: 04,3122           51575        MAINRTN1           VLOAD    ABVAL
000231: 04,3123           03646                                    DELVEET3
000232: 04,3124           26635                           STOVL    DELVTPI                               #  DELTA V
000233: 04,3125           03640                                    VPASS4
000234: 04,3126           51451                           VSU      ABVAL
000235: 04,3127           03620                                    VTPRIME
000236: 04,3130           26637                           STOVL    DELVTPF                               #  DELTA V (FINAL) = V'T - VT
000237: 04,3131           03540                                    RACT3
000238: 04,3132           45115                           PDVL     CALL
000239: 04,3133           03612                                    VIPRIME
000240: 04,3134           45153                                    PERIAPO1                              #  GET PERIGEE ALTITUDE
000241: 04,3135           77624                           CALL
000242: 04,3136           45263                                    SHIFTR1
000243: 04,3137           02641                           STORE    POSTTPI
000244: 04,3140           43014                           BON      SET
000245: 04,3141           01311                                    FINALFLG
000246: 04,3142           11144                                    DSPLY58
000247: 04,3143           00470                                    UPDATFLG
000248: 04,3144           77776        DSPLY58            EXIT
000249: 04,3145           33276                           CAF      V06N58SR                              #  DISPLAY HP, DELTA V, DELTA V (FINAL)
000250: 04,3146           03260                           TC       VNDSPLY
000251: 04,3147           33277        DSPLY81            CAF      V06N81SR                              #  DISPLAY DELTA V (LV)
000252: 04,3150           03260                           TC       VNDSPLY
000253: 04,3151           06006                           TC       INTPRET
000254: 04,3152           77214                           CLEAR    VLOAD
000255: 04,3153           01267                                    XDELVFLG
000256: 04,3154           03646                                    DELVEET3
000257: 04,3155           37646                           STCALL   DELVSIN
000258: 04,3156           73003                                    VN1645                                #  DISPLAY TRKMKCNT, TTOGO, +MGA
000259: 04,3157           52014                           BON      GOTO
000260: 04,3160           04306                                    P39/79SW
000261: 04,3161           11200                                    P39/P79B
000262: 04,3162           11042                                    RECYCLE
000263:
000264:                                                                                                  #  STABLE ORBIT MIDCOURSE PROGRAM (P39 AND P79)
000265:
000266:                                                                                                  #  MOD NO -1             LOG SECTION - STABLE ORBIT - P38-P39
000267:                                                                                                  #  MOD BY RUDNICKI.S     DATE 25JAN68
000268:
000269:                                                                                                  #  FUNCTIONAL DESCRIPTION
000270:
000271:                                                                                                  #        P39 AND P79 CALCULATE THE REQUIRED DELTA V AND OTHER INITIAL
000272:                                                                                                  #        CONDITIONS REQUIRED BY THE AGC TO MAKE A MIDCOURSE CORRECTION


000274:                                                                                                  #        MANEUVER AFTER COMPLETING THE SOI MANEUVER BUT BEFORE MAKING
000275:                                                                                                  #        THE SOR MANEUVER
000276:
000277:                                                                                                  #  CALLING SEQUENCE
000278:
000279:                                                                                                  #        ASTRONAUT REQUEST THRU DSKY
000280:
000281:                                                                                                  #        V37E39E         IF THIS VEHICLE IS ACTIVE VEHICLE
000282:                                                                                                  #        V37E79E         IF OTHER VEHICLE IS ACTIVE VEHICLE
000283:
000284:                                                                                                  #  INPUT
000285:
000286:                                                                                                  #        (1)  TPASS4     TIME OF INTERCEPT - SAVED FROM P38/P78
000287:                                                                                                  #        (2)  TARGTIME   TIME THAT PASSIVE VEHICLE IS AT INTERCEPT POINT -
000288:                                                                                                  #                        SAVED FROM P38/P78
000289:
000290:                                                                                                  #  OUTPUT
000291:
000292:                                                                                                  #        (1)  TRKMKCNT   NUMBER OF MARKS
000293:                                                                                                  #        (2)  TTOGO      TIME TO GO
000294:                                                                                                  #        (3)  +MGA       MIDDLE GIMBAL ANGLE
000295:                                                                                                  #        (4)  DELVLVC    DELTA VELOCITY AT MID - LOCAL VERTICAL COORDINATES
000296:
000297:                                                                                                  #  SUBROUTINES USED
000298:
000299:                                                                                                  #        AVFLAGA
000300:                                                                                                  #        AVFLAGP
000301:                                                                                                  #        LOADTIME
000302:                                                                                                  #        SELECTMU
000303:                                                                                                  #        PRECSET
000304:                                                                                                  #        S34/35.1
000305:                                                                                                  #        MAINRTNE
000306:
000307: 04,3163           04627        P39                TC       AVFLAGA                               #  THIS VEHICLE ACTIVE
000308: 04,3164           00006                           EXTEND
000309: 04,3165           31422                           DCA      ATIGINC
000310: 04,3166           03172                           TC       P39/P79A
000311: 04,3167           04642        P79                TC       AVFLAGP                               #  OTHER VEHICLE ACTIVE
000312: 04,3170           00006                           EXTEND
000313: 04,3171           31424                           DCA      PTIGINC
000314: 04,3172           53764        P39/P79A           DXCH     KT                                    #  TIME TO PREPARE FOR BURN
000315: 04,3173           04647                           TC       P20FLGON                              #  SET UPDATFLG, TRACKFLG
000316: 04,3174           06006                           TC       INTPRET
000317: 04,3175           45014                           SET      CALL
000318: 04,3176           04066                                    P39/79SW
000319: 04,3177           10712                                    SELECTMU                              #  SELECT MU, CLEAR FINALFLG, GO TO VN1645
000320: 04,3200           43234        P39/P79B           RTB      DAD
000321: 04,3201           45510                                    LOADTIME
000322: 04,3202           02364                                    KT
000323: 04,3203           03413                           STORE    TIG                                   #  TIG = T (PRESENT) + PREPARATION TIME


000325: 04,3204           34041                           STCALL   TDEC1                                 #  PRECISION UPDATE ACTIVE AND PASSIVE
000326: 04,3205           45215                                    PRECSET                               #        VEHICLES TO TIG
000327: 04,3206           77624                           CALL
000328: 04,3207           72522                                    S34/35.1                              #  GET UNIT NORMAL
000329: 04,3210           52145                           DLOAD    GOTO
000330: 04,3211           02615                                    TARGTIME
000331: 04,3212           11076                                    MAINRTNE                              #  CALCULATE DELTA V AND DELTA V (LV)
000332:
000333:                                                                                                  #  .... PREC/TT ....
000334:
000335:                                                                                                  #  SUBROUTINES USED
000336:
000337:                                                                                                  #        PRECSET
000338:                                                                                                  #        TIMETHET
000339:                                                                                                  #        S34/35.1
000340:
000341: 04,3213           71220        PREC/TT            STQ      DLOAD
000342: 04,3214           02367                                    RTRN
000343: 04,3215           03413                                    TIG
000344: 04,3216           34041                           STCALL   TDEC1                                 #  PRECISION UPDATE ACTIVE AND PASSIVE
000345: 04,3217           45215                                    PRECSET                               #        VEHICLES TO TIG
000346: 04,3220           53775                           VLOAD    VSR*
000347: 04,3221           03554                                    RPASS3
000348: 04,3222           57176                                    0,2
000349: 04,3223           16657                           STODL    RVEC
000350: 04,3224           03754                                    CENTANG
000351: 04,3225           71406                           PUSH     COS
000352: 04,3226           16734                           STODL    CSTH
000353: 04,3227           43156                           SIN      SET
000354: 04,3230           03466                                    RVSW
000355: 04,3231           26732                           STOVL    SNTH
000356: 04,3232           03562                                    VPASS3
000357: 04,3233           77657                           VSR*
000358: 04,3234           57176                                    0,2
000359: 04,3235           36746                           STCALL   VVEC                                  #  GET TRANSFER TIME BASED ON CENTANG OF
000360: 04,3236           24744                                    TIMETHET                              #        PASSIVE VEHICLE
000361: 04,3237           77624                           CALL
000362: 04,3240           72522                                    S34/35.1                              #  GET UNIT NORMAL
000363: 04,3241           52145                           DLOAD    GOTO
000364: 04,3242           00037                                    T
000365: 04,3243           02367                                    RTRN
000366:
000367:                                                                                                  #  .... INTRPVP ....
000368:
000369:                                                                                                  #  SUBROUTINES USED
000370:
000371:                                                                                                  #        CSMPREC
000372:                                                                                                  #        LEMPREC
000373:
000374: 04,3244           43020        INTRPVP            STQ      BOFF                                  #  PRECISION UPDATE PASSIVE VEHICLE TO
000375: 04,3245           02367                                    RTRN                                  #        TDEC1
000376: 04,3246           01352                                    AVFLAG
000377: 04,3247           11254                                    OTHERV
000378: 04,3250           77624                           CALL


000380: 04,3251           27071                                    CSMPREC
000381: 04,3252           77650                           GOTO
000382: 04,3253           02367                                    RTRN
000383: 04,3254           77624        OTHERV             CALL
000384: 04,3255           27105                                    LEMPREC
000385: 04,3256           77650                           GOTO
000386: 04,3257           02367                                    RTRN
000387:
000388:                                                                                                  #  .... VNDSPLY ....
000389:
000390:                                                                                                  #  SUBROUTINES USED
000391:
000392:                                                                                                  #        BANKCALL
000393:                                                                                                  #        GOFLASH
000394:                                                                                                  #        GOTOPOOH
000395:
000396: 04,3260           00006        VNDSPLY            EXTEND                                         #  FLASH DISPLAY
000397: 04,3261           23767                           QXCH     RTRN
000398: 04,3262           55765                           TS       VERBNOUN
000399: 04,3263           31765                           CA       VERBNOUN
000400: 04,3264           04662                           TCR      BANKCALL
000401: 04,3265           20720                           CADR     GOFLASH
000402: 04,3266           14106                           TCF      GOTOPOOH                              #  TERMINATE
000403: 04,3267           01767                           TC       RTRN                                  #  PROCEED
000404: 04,3270           13263                           TCF      -5                                    #  RECYCLE
000405: 04,3271           01441        V06N33SR           VN       0633
000406: 04,3272           01467        V06N55SR           VN       0655
000407: 04,3273           01006        V04N06SR           VN       0406
000408: 04,3274           01471        V06N57SR           VN       0657
000409: 04,3275           01442        V06N34SR           VN       0634
000410: 04,3276           01472        V06N58SR           VN       0658
000411: 04,3277           01521        V06N81SR           VN       0681
000412:

End of include-file STABLE_ORBIT_-_P38-P39.agc.  Parent file is MAIN.agc


