
Source Code


000002:                                                                                                  ## Copyright:   Public domain.
000003:                                                                                                  ## Filename:    SYSTEM_TEST_STANDARD_LEAD_INS.agc
000004:                                                                                                  ## Purpose:     A section of Manche45 revision 2.
000005:                                                                                                  ##              It is part of the reconstructed source code for the
000006:                                                                                                  ##              final, flown release of the flight software for the Command
000007:                                                                                                  ##              Module's (CM) Apollo Guidance Computer (AGC) for Apollo 10.
000008:                                                                                                  ##              The code has been recreated from a copy of Comanche 055. It
000009:                                                                                                  ##              has been adapted such that the resulting bugger words
000010:                                                                                                  ##              exactly match those specified for Manche 45/2 in NASA drawing
000011:                                                                                                  ##              2021153D, which gives relatively high confidence that the
000012:                                                                                                  ##              reconstruction is correct.
000013:                                                                                                  ## Assembler:   yaYUL
000014:                                                                                                  ## Contact:     Ron Burkey <info@sandroid.org>.
000015:                                                                                                  ## Website:     www.ibiblio.org/apollo/index.html
000016:                                                                                                  ## Mod history: 2020-12-24 MAS  Created from Comanche 45.
000017:


000019: 22,3151  E5,1671                                  EBANK=   XSM
000020:
000021: 33,2000                                           BANK     33
000022: 13,2000                                           SETLOC   E/PROG1
000023: 13,2000                                           BANK
000024:
000025: 13,2036                                           COUNT*   $$/P07
000026:
000027:                                                                                                  #  SPECIAL PROGRAMS TO EASE THE PANGS OF ERASABLE MEMORY PROGRAMS.
000028:
000029:                                                                                                  #  E/BKCALL      FOR DOING BANKCALLS FROM AND RETURNING TO ERASABLE.
000030:
000031:                                                                                                  #  THIS ROUTINE IS CALLABLE FROM ERASABLE OR FIXED.  LIKE BANKCALL, HOWEVER, SWITCHING BETWEEN S3 AND S4
000032:                                                                                                  #  IS NOT POSSIBLE.
000033:
000034:                                                                                                  #  THE CALLING SEQUENCE IS:
000035:
000036:                                                                                                  #        TC      BANKCALL
000037:                                                                                                  #        CADR    E/BKCALL
000038:                                                                                                  #        CADR    ROUTINE         WHERE YOU WANT TO GO IN FIXED.
000039:                                                                                                  #        RETURN HERE FROM DISPLAY TERMINATE, BAD STALL OR TC Q.
000040:                                                                                                  #        RETURN HERE FROM DISPLAY PROCEED OR GOOD RETURN FROM STALL.
000041:                                                                                                  #        RETURN HERE FROM DISPLAY ENTER OR RECYCLE.
000042:
000043:                                                                                                  #  THIS ROUTINE REQUIRES TWO ERASABLES (EBUF2, +1) IN UNSWITCHED WHICH ARE UNSHARED BY INTERRUPTS AND
000044:                                                                                                  #  OTHER EMEMORY PROGRAMS.
000045:
000046:                                                                                                  #  A + L ARE PRESERVED THROUGH BANKCALL AND E/BKCALL.
000047:
000048: 13,2036           52134        E/BKCALL           DXCH     BUF2                                  #  SAVE A,L AND GET DP RETURN.
000049: 13,2037           52365                           DXCH     EBUF2                                 #  SAVE DP RETURN.
000050: 13,2040           24364                           INCR     EBUF2                                 #  RETURN +1 BECAUSE DOUBLE CADR.
000051: 13,2041           30006                           CA       BBANK
000052: 13,2042           75054                           MASK     LOW10                                 #  GET CURRENT EBANK.  (SBANK SOMEDAY)
000053: 13,2043           26365                           ADS      EBUF2      +1                         #  FORM BBCON.  (WAS FBANK)
000054: 13,2044           50364                           NDX      EBUF2
000055: 13,2045           27777                           CA       0          -1                         #  GET CADR OF ROUTINE.
000056: 13,2046           04666                           TC       SWCALL                                #  GO TO ROUTINE, SETTING Q TO SWRETURN
000057:                                                                                                  #  AND RESTORING A + L.
000058: 13,2047           02053                           TC       +4                                    #  TX Q, V34, OR BAD STALL RETURN.
000059: 13,2050           02052                           TC       +2                                    #  PROCEED OR GOOD STALL RETURN.
000060: 13,2051           24364                           INCR     EBUF2                                 #  ENTER OR RECYCLE RETURN.
000061: 13,2052           24364                           INCR     EBUF2
000062: 13,2053           52365        E/SWITCH           DXCH     EBUF2
000063: 13,2054           52006                           DTCB
000064:


000066:                                                                                                  #  E/CALL        FOR CALLING A FIXED MEMORY INTERPRETIVE SUBROUTINE FROM ERASABLE AND RETURNING TO ERASABLE.
000067:
000068:                                                                                                  #  THE CALLING SEQUENCE IS...
000069:
000070:                                                                                                  #        RTB
000071:                                                                                                  #                E/CALL
000072:                                                                                                  #        CADR    ROUTINE                 THE INTERPRETIVE SUBROUTINE YOU WANT.
000073:                                                                                                  #                                        RETURNS HERE IN INTERPRETIVE.
000074:
000075: 13,2055           22164        E/CALL             LXCH     LOC                                   #  ADRES -1 OF CADR.
000076: 13,2056           50001                           INDEX    L
000077: 13,2057           30001                           CA       L                                     #  CADR IN A.
000078: 13,2060           24001                           INCR     L
000079: 13,2061           24001                           INCR     L                                     #  RETURN ADRES IN L.
000080: 13,2062           52365                           DXCH     EBUF2                                 #  STORE CADR AND RETURN.
000081: 13,2063           06006                           TC       INTPRET
000082: 13,2064           77624                           CALL
000083: 13,2065           00364                                    EBUF2                                 #  INDIRECTLY EXECUTE ROUTINE.  IT MUST
000084: 13,2066           77776                           EXIT                                           #  LEAVE VIA RVQ OR EQUIVALENT.
000085: 13,2067           22365                           LXCH     EBUF2      +1                         #  PICK UP RETURN.
000086: 13,2070           16010                           TCF      INTPRET    +2                         #  SET LOC AND RETURB TO CALLER
000087:


000089:                                                                                                  #  E/JOBWAK      FOR WAKING UP ERASABLE MEMORY JOBS.
000090:
000091:                                                                                                  #  THIS ROUTINE MUST BE CALLED IN INTERRUPT OR WITH INTERRUPTS INHIBITED.
000092:
000093:                                                                                                  #  THE CALLING SEQUENCE IS:
000094:
000095:                                                                                                  #        INHINT
000096:                                                                                                  #          .
000097:                                                                                                  #          .
000098:                                                                                                  #        CA      WAKEADR         ADDRESS OF SLEEPING JOB
000099:                                                                                                  #        TC      IBNKCALL
000100:                                                                                                  #        CADR    E/JOBWAK
000101:                                                                                                  #          .                     RETURNS HERE
000102:                                                                                                  #          .
000103:                                                                                                  #          .
000104:                                                                                                  #        RELINT                  IF YOU DID AN INHINT.
000105:
000106: 33,2000                                           BANK     33
000107: 04,2000                                           SETLOC   E/PROG
000108: 04,2000                                           BANK
000109:
000110: 04,2606                                           COUNT*   $$/P07
000111:
000112: 04,2606           05201        E/JOBWAK           TC       JOBWAKE                               #  ARRIVE IWTH ADRES IN A.
000113: 04,2607           45005                           CS       BIT11
000114: 04,2610           50064                           NDX      LOCCTR
000115: 04,2611           26164                           ADS      LOC                                   #  KNOCK FIXED MEMORY BIT OUT OF ADRES.
000116: 04,2612           00072                           TC       RUPTREG3                              #  RETURN
000117:
000118:
000119:                                                                                                  #  THESE PROGRAMS ARE PROVIDED TO ALLOW OVERLAY OF BANKS 30 THRU 33 OF THE 205 VERSIONS OF SYSTEM TESTS AND
000120:                                                                                                  #  PRELAUNCH ALIGN.  THE INTENT IS TO ALLOW THE STG AND HYBRID LABS TO RUN ALL THE TESTS WITH COLOSSUS.
000121:
000122:
000123: 33,2000                                           BANK     33
000124: 33,2000                                           SETLOC   TESTLEAD
000125: 33,2000                                           BANK
000126:
000127: 33,2000                                           COUNT    33/COMST
000128:
000129: 33,2000  E5,1425                                  EBANK=   QPLACE
000130:
000131: 33,2000           03436        COMPVER            TC       GCOMPVER                              #  MUST BE 33,2000.
000132:
000133: 33,2001           03131        GTSCPSS1           TC       GTSCPSS                               #  MUST BE AT 33,2001
000134:
000135: 33,2002           05354        REDO               TC       NEWMODEX                              #  DISPLAY MM 07.
000136: 33,2003           00007                           MM       07         B-14                       #  FALL INTO IMUTEST
000137:

End of include-file SYSTEM_TEST_STANDARD_LEAD_INS.agc.  Parent file is MAIN.agc


