
Source Code


000002:                                                                                                  ## Copyright:   Public domain.
000003:                                                                                                  ## Filename:    TAGS_FOR_RELATIVE_SETLOC_AND_BLANK_BANK_CARDS.agc
000004:                                                                                                  ## Purpose:     A section of Manche45 revision 2.
000005:                                                                                                  ##              It is part of the reconstructed source code for the
000006:                                                                                                  ##              final, flown release of the flight software for the Command
000007:                                                                                                  ##              Module's (CM) Apollo Guidance Computer (AGC) for Apollo 10.
000008:                                                                                                  ##              The code has been recreated from a copy of Comanche 055. It
000009:                                                                                                  ##              has been adapted such that the resulting bugger words
000010:                                                                                                  ##              exactly match those specified for Manche 45/2 in NASA drawing
000011:                                                                                                  ##              2021153D, which gives relatively high confidence that the
000012:                                                                                                  ##              reconstruction is correct.
000013:                                                                                                  ## Assembler:   yaYUL
000014:                                                                                                  ## Contact:     Ron Burkey <info@sandroid.org>.
000015:                                                                                                  ## Website:     www.ibiblio.org/apollo/index.html
000016:                                                                                                  ## Mod history: 2020-12-24 MAS  Created from Comanche 45 and added the MODCHG2
000017:                                                                                                  ##                              and MODCHG3 tags for the R-2 model.
000018:                                                                                                  ##              2020-12-24 RSB  Beefed up reconstruction-justifying annotations.
000019:


000021: ???????                        FIXED              MEMORY   120000     -          167777
000022: ???????                                           COUNT    BANKSUM
000023:
000024:                                                                                                  #  MODULE 1 CONTAINS BANKS 0 THROUGH 5
000025:
000026:    4000                                           BLOCK    02
000027:    4000                        FFTAG1             EQUALS
000028:    4000                        FFTAG2             EQUALS
000029:    4000                        FFTAG3             EQUALS
000030:    4000                        FFTAG4             EQUALS
000031:    4000                        FFTAG7             EQUALS
000032:    4000                        FFTAG8             EQUALS
000033:    4000                        FFTAG9             EQUALS
000034:    4000                        FFTAG10            EQUALS
000035:    4000                        FFTAG12            EQUALS
000036:    4000                        P30SUBS            EQUALS
000037:    4000                        STOPRAT            EQUALS
000038:    4000                        P23S               EQUALS
000039:    4000                                           BNKSUM   02
000040:
000041:    6000                                           BLOCK    03
000042:    6000                        FFTAG5             EQUALS
000043:    6000                        FFTAG6             EQUALS
000044:    6000                        DAPS9              EQUALS
000045:    6000                        FFTAG13            EQUALS
000046:    6000                                           BNKSUM   03
000047:
000048: 00,2000                                           BANK     00
000049: 00,2000                        DLAYJOB            EQUALS
000050: 00,2000                                           BNKSUM   00
000051:
000052: 01,2000                                           BANK     01
000053: 01,2000                        RESTART            EQUALS
000054: 01,2000                                           BNKSUM   01
000055:
000056: 04,2000                                           BANK     4
000057: 04,2000                        VERB37             EQUALS
000058: 04,2000                        CONICS1            EQUALS
000059: 04,2000                        PINBALL4           EQUALS
000060: 04,2000                        CSI/CDH1           EQUALS
000061: 04,2000                        INTPRET2           EQUALS
000062: 04,2000                        IMUCAL1            EQUALS
000063:


000065:
000066: 04,2000                        STBLEORB           EQUALS
000067: 04,2000                        E/PROG             EQUALS
000068: 04,2000                        MIDDGIM            EQUALS
000069:
000070: 04,2000                                           BNKSUM   04
000071:
000072: 05,2000                                           BANK     5
000073: 05,2000                        FRANDRES           EQUALS
000074: 05,2000                        DOWNTELM           EQUALS
000075: 05,2000                        DAPMASS            EQUALS
000076: 05,2000                        CDHTAG             EQUALS
000077: 05,2000                                           BNKSUM   05
000078:
000079:                                                                                                  #  MODULE 2 CONTAINS BANKS 6 THROUGH 13
000080:
000081: 06,2000                                           BANK     6
000082: 06,2000                        IMUCOMP            EQUALS
000083: 06,2000                        T4RUP              EQUALS
000084: 06,2000                        IMUCAL2            EQUALS
000085: 06,2000                        CSIPROG            EQUALS
000086: 06,2000                                           BNKSUM   06
000087:
000088: 07,2000                                           BANK     7
000089: 07,2000                        SXTMARKE           EQUALS
000090: 07,2000                        R02                EQUALS
000091: 07,2000                        MODESW             EQUALS
000092: 07,2000                        XANG               EQUALS
000093: 07,2000                        KEYRUPT            EQUALS
000094: 07,2000                        CSIPROG6           EQUALS
000095: 07,2000                                           BNKSUM   07
000096:
000097: 10,2000                                           BANK     10
000098: 10,2000                        DISPLAYS           EQUALS
000099: 10,2000                        PHASETAB           EQUALS
000100: 10,2000                        COMGEOM2           EQUALS
000101: 10,2000                        SXTMARK1           EQUALS
000102: 10,2000                        P60S4              EQUALS
000103: 10,2000                        OPTDRV             EQUALS
000104: 10,2000                        CSIPROG8           EQUALS
000105: 10,2000                                           BNKSUM   10
000106:
000107: 11,2000                                           BANK     11
000108: 11,2000                        ORBITAL            EQUALS
000109: 11,2000                        ORBITAL1           EQUALS                                         #  CONSTANTS
000110:


000112:
000113: 11,2000                        INTVEL             EQUALS
000114: 11,2000                        S52/2              EQUALS
000115: 11,2000                        CSIPROG5           EQUALS
000116: 11,2000                        INTINIT1           EQUALS
000117: 11,2000                                           BNKSUM   11
000118:
000119: 12,2000                                           BANK     12
000120: 12,2000                        CONICS             EQUALS
000121: 12,2000                        CSIPROG2           EQUALS
000122: 12,2000                        CSI/CDH2           EQUALS


000126: 12,2000                        MODCHG2            EQUALS
000127: 12,2000                                           BNKSUM   12
000128:
000129: 13,2000                                           BANK     13
000130: 13,2000                        P76LOC             EQUALS
000131: 13,2000                        LATLONG            EQUALS
000132: 13,2000                        INTINIT            EQUALS
000133: 13,2000                        SR52/1             EQUALS
000134: 13,2000                        ORBITAL2           EQUALS
000135: 13,2000                        CDHTAGS            EQUALS
000136: 13,2000                        E/PROG1            EQUALS


000140: 13,2000                        MODCHG3            EQUALS
000141: 13,2000                                           BNKSUM   13
000142:
000143:                                                                                                  #  SPACER
000144:
000145:                                                                                                  #           MODULE 3 CONTAINS BANKS 14 THROUGH 21
000146:
000147: 14,2000                                           BANK     14
000148: 14,2000                        STARTAB            EQUALS
000149: 14,2000                        RT53               EQUALS
000150: 14,2000                        P50S1              EQUALS
000151: 14,2000                        MEASINC2           EQUALS
000152: 14,2000                        CSI/CDH3           EQUALS
000153: 14,2000                                           BNKSUM   14
000154:
000155: 15,2000                                           BANK     15
000156: 15,2000                        P50S               EQUALS
000157: 15,2000                        ETRYDAP            EQUALS
000158: 15,2000                        S52/3              EQUALS
000159: 15,2000                                           BNKSUM   15
000160:
000161: 16,2000                                           BANK     16
000162: 16,2000                        P40S1              EQUALS
000163:


000165:
000166: 16,2000                        DAPROLL            EQUALS
000167: 16,2000                        P50S2              EQUALS
000168: 16,2000                        P23S1              EQUALS
000169: 16,2000                        RTE2               EQUALS
000170: 16,2000                        MODCHG1            EQUALS
000171: 16,2000                                           BNKSUM   16
000172:
000173: 17,2000                                           BANK     17
000174: 17,2000                        DAPS4              EQUALS
000175: 17,2000                        DAPS5              EQUALS
000176: 17,2000                        DAPS7              EQUALS
000177: 17,2000                        P50S3              EQUALS
000178: 17,2000                                           BNKSUM   17
000179:
000180: 20,2000                                           BANK     20
000181: 20,2000                        DAPS6              EQUALS
000182: 20,2000                        DAPS1              EQUALS
000183: 20,2000                        DAPS2              EQUALS
000184: 20,2000                        MANUSTUF           EQUALS
000185: 20,2000                        R36CM              EQUALS
000186: 20,2000                        VAC5LOC            EQUALS
000187: 20,2000                                           BNKSUM   20
000188:
000189: 21,2000                                           BANK     21
000190: 21,2000                        DAPS3              EQUALS
000191: 21,2000                        MYSUBS             EQUALS
000192: 21,2000                        KALCMON3           EQUALS
000193: 21,2000                                           BNKSUM   21
000194:
000195:                                                                                                  #  MODULE 4 CONTAINS BANKS 22 THROUGH 27
000196:
000197: 22,2000                                           BANK     22
000198: 22,2000                        RTBCODES           EQUALS
000199: 22,2000                        RTBCODE1           EQUALS
000200: 22,2000                        DAPS8              EQUALS
000201: 22,2000                        APOPERI            EQUALS
000202: 22,2000                        P40S5              EQUALS
000203: 22,2000                        KALCMON2           EQUALS
000204: 22,2000                        KALCMON1           EQUALS
000205: 22,2000                        CSIPROG3           EQUALS
000206: 22,2000                                           BNKSUM   22
000207:


000209:
000210: 23,2000                                           BANK     23
000211: 23,2000                        P20S2              EQUALS
000212: 23,2000                        INFLIGHT           EQUALS
000213: 23,2000                        COMGEOM1           EQUALS
000214: 23,2000                        POWFLITE           EQUALS
000215: 23,2000                        POWFLIT1           EQUALS
000216: 23,2000                        RENDGUID           EQUALS
000217: 23,2000                        POWFLIT2           EQUALS
000218: 23,2000                        R30LOC             EQUALS
000219: 23,2000                        P11FOUR            EQUALS
000220: 23,2000                        CSIPROG4           EQUALS
000221: 23,2000                                           BNKSUM   23
000222:
000223: 24,2000                                           BANK     24
000224: 24,2000                        LOADDAP            EQUALS
000225: 24,2000                        P40S               EQUALS
000226: 24,2000                        CSIPROG7           EQUALS
000227: 24,2000                                           BNKSUM   24
000228:
000229: 25,2000                                           BANK     25
000230: 25,2000                        REENTRY            EQUALS
000231: 25,2000                        CDHTAG1            EQUALS
000232: 25,2000                                           BNKSUM   25
000233:
000234: 26,2000                                           BANK     26
000235: 26,2000                        INTPRET1           EQUALS
000236: 26,2000                        REENTRY1           EQUALS
000237: 26,2000                        P60S               EQUALS
000238: 26,2000                        P60S1              EQUALS
000239: 26,2000                        P60S2              EQUALS
000240: 26,2000                        P60S3              EQUALS
000241: 26,2000                        PLANTIN            EQUALS                                         #  LUNAR ROT
000242: 26,2000                        EPHEM              EQUALS
000243: 26,2000                        P05P06             EQUALS
000244: 26,2000                        26P50S             EQUALS
000245: 26,2000                                           BNKSUM   26
000246:
000247: 27,2000                                           BANK     27
000248: 27,2000                        TOF-FF             EQUALS
000249: 27,2000                        TOF-FF1            EQUALS
000250: 27,2000                        MANUVER            EQUALS
000251: 27,2000                        MANUVER1           EQUALS
000252:


000254:
000255: 27,2000                        VECPT              EQUALS
000256: 27,2000                        UPDATE1            EQUALS
000257: 27,2000                        UPDATE2            EQUALS
000258: 27,2000                        R22S1              EQUALS
000259: 27,2000                        P60S5              EQUALS
000260: 27,2000                        P40S2              EQUALS
000261: 27,2000                                           BNKSUM   27
000262:
000263:                                                                                                  #  MODULE 5 CONTAINS BANKS 30 THROUGH 35
000264:
000265: 30,2000                                           BANK     30
000266: 30,2000                        IMUSUPER           EQUALS
000267: 30,2000                        LOWSUPER           EQUALS
000268: 30,2000                        FCSTART            EQUALS                                         #  STANDARD LOCATION FOR THIS. (FOR EXTVB)
000269: 30,2000                        LOPC               EQUALS
000270: 30,2000                        P20S1              EQUALS
000271: 30,2000                        P20S6              EQUALS
000272: 30,2000                        P40S3              EQUALS
000273: 30,2000                        R35A               EQUALS
000274: 30,2000                                           BNKSUM   30
000275:
000276: 31,2000                                           BANK     31
000277: 31,2000                        R35                EQUALS
000278: 31,2000                        RT23               EQUALS
000279: 31,2000                        P30S1A             EQUALS
000280: 31,2000                        R34                EQUALS
000281: 31,2000                        CDHTAG2            EQUALS
000282: 31,2000                        CSIPROG9           EQUALS
000283: 31,2000                        R31                EQUALS
000284: 31,2000                        P22S               EQUALS
000285: 31,2000                        RTE3               EQUALS
000286: 31,2000                                           BNKSUM   31
000287:
000288: 32,2000                                           BANK     32
000289: 32,2000                        MSGSCAN1           EQUALS
000290: 32,2000                        RTE                EQUALS
000291: 32,2000                        DELRSPL1           EQUALS
000292: 32,2000                        IMUCAL3            EQUALS
000293: 32,2000                                           BNKSUM   32
000294:
000295: 33,2000                                           BANK     33
000296: 33,2000                        TESTLEAD           EQUALS
000297:


000299:
000300: 33,2000                        IMUCAL             EQUALS
000301: 33,2000                                           BNKSUM   33
000302:
000303: 34,2000                                           BANK     34
000304: 34,2000                        P11ONE             EQUALS
000305: 34,2000                        P20S3              EQUALS
000306: 34,2000                        P20S4              EQUALS
000307: 34,2000                        RTECON             EQUALS
000308: 34,2000                                           BNKSUM   34
000309:
000310: 35,2000                                           BANK     35
000311: 35,2000                        RTECON1            EQUALS
000312: 35,2000                        CSI/CDH            EQUALS
000313: 35,2000                        P30S1              EQUALS
000314: 35,2000                        P30S               EQUALS
000315: 35,2000                        P17S1              EQUALS
000316: 35,2000                        MEASINC3           EQUALS
000317: 35,2000                        INTINIT2           EQUALS
000318: 35,2000                                           BNKSUM   35
000319:
000320:                                                                                                  #  MODULE 6 CONTAINS BANKS 36 THROUGH 43
000321:
000322: 36,2000                                           BANK     36
000323: 36,2000                        MEASINC            EQUALS
000324: 36,2000                        MEASINC1           EQUALS
000325: 36,2000                        P17S               EQUALS
000326: 36,2000                        RTE1               EQUALS
000327: 36,2000                                           BNKSUM   36
000328:
000329: 37,2000                                           BANK     37
000330: 37,2000                        P20S               EQUALS
000331: 37,2000                        BODYATT            EQUALS
000332: 37,2000                        RENDEZ             EQUALS
000333: 37,2000                        SERVICES           EQUALS
000334: 37,2000                        P11TWO             EQUALS
000335: 37,2000                        CDHTAG3            EQUALS
000336: 37,2000                                           BNKSUM   37
000337:
000338: 40,2000                                           BANK     40
000339: 40,2000                        PINSUPER           EQUALS
000340:


000342:
000343: 40,2000                        SELFSUPR           EQUALS
000344: 40,2000                        PINBALL1           EQUALS
000345: 40,2000                        R36CM1             EQUALS
000346: 40,2000                                           BNKSUM   40
000347:
000348: 41,2000                                           BANK     41
000349: 41,2000                        PINBALL2           EQUALS
000350: 41,2000                        R36LM              EQUALS
000351: 41,2000                                           BNKSUM   41
000352:
000353: 42,2000                                           BANK     42
000354: 42,2000                        SBAND              EQUALS
000355: 42,2000                        PINBALL3           EQUALS
000356: 42,2000                        EXTVBS             EQUALS
000357: 42,2000                        R36LM1             EQUALS
000358: 42,2000                                           BNKSUM   42
000359:
000360: 43,2000                                           BANK     43
000361: 43,2000                        SELFCHEC           EQUALS
000362: 43,2000                        EXTVERBS           EQUALS
000363: 43,2000                                           BNKSUM   43
000364:
000365: 43,2000  26,3334               HI6ZEROS           EQUALS   ZEROVECS                              #  ZERO VECTOR ALWAYS IN HIGH MEMORY
000366: 43,2000  04,3562               LO6ZEROS           EQUALS   ZEROVEC                               #  ZERO VECTOR ALWAYS IN LOW MEMORY
000367: 43,2000  26,3332               HIDPHALF           EQUALS   UNITX
000368: 43,2000  04,3560               LODPHALF           EQUALS   XUNIT
000369: 43,2000  26,3324               HIDP1/4            EQUALS   DP1/4TH
000370: 43,2000  04,3606               LODP1/4            EQUALS   D1/4                                  #  2DEC .25
000371: 43,2000  26,3332               HIUNITX            EQUALS   UNITX
000372: 43,2000  26,3330               HIUNITY            EQUALS   UNITY
000373: 43,2000  26,3326               HIUNITZ            EQUALS   UNITZ
000374: 43,2000  04,3560               LOUNITX            EQUALS   XUNIT                                 #  2DEC .5
000375: 43,2000  04,3556               LOUNITY            EQUALS   YUNIT                                 #  2DEC 0
000376: 43,2000  04,3554               LOUNITZ            EQUALS   ZUNIT                                 #  2DEC 0
000377: 43,2000  11,3763               3/4LOWDP           EQUALS   3/4                                   #  2DEC 3.0 B-2
000378:
000379: 43,2000  30,2000                                  SBANK=   LOWSUPER
000380:
000381:                                                                                                  #  ROPE SPECIFIC ASSIGNS OBVIATING NEED TO CHECK COMPUTER FLAG IN DETVRUZVING INTEGRATION AREA ENTRIES
000382:
000383: 43,2000  13,3105               OTHPREC            EQUALS   LEMPREC
000384: 43,2000  13,2760               ATOPOTH            EQUALS   ATOPLEM
000385: 43,2000  13,2705               ATOPTHIS           EQUALS   ATOPCSM
000386: 43,2000  0000173               MOONTHIS           EQUALS   CMOONFLG
000387:


000389:
000390: 43,2000  0000174               MOONOTH            EQUALS   LMOONFLG
000391: 43,2000  13,2720               MOVATHIS           EQUALS   MOVEACSM
000392: 43,2000  31,2032               STATEST            EQUALS   V83CALL                               #  * TEMPORARY
000393: 43,2000  13,3071               THISPREC           EQUALS   CSMPREC
000394: 43,2000  26,3332               THISAXIS           =        UNITX
000395: 43,2000     5054               ERASID             EQUALS   LOW10                                 #  DOWNLINK ERASABLE DUMP ID
000396: 43,2000     6214               DELAYNUM           EQUALS   THREE
000397:
000398:                                                                                                  # ****************************************************************************************************************
000399:
000400:                                                                                                  #  THE FOLLOWING ECADRS ARE DEFINED TO FACILITATE EBANK SWITCHING.  THEY ALSO MAKE IT EASIER FOR
000401:                                                                                                  #  ERASABLE CONTROL TO REARRANGE ERASABLE MEMORY WITHOUT DISRUPTING THE PROGRAMS WHICH SET EBANKS.
000402:                                                                                                  #  PRIOR TO ROPE RELEASE FIXED MEMORY CAN BE SAVED BY SETTING EACH EBXXXX =EBANKX (X=4,5,6,7).  EBANKX OF COURSE
000403:                                                                                                  #  WILL BE THE BANK WHERE THE ERASABLES REFERENCED IN EBXXXX WILL BE STORED.
000404:
000405: 07,2000                                           BANK     7
000406: 07,2000  E7,1674                                  EBANK=   MARKDOWN
000407: 07,2000           03674        EBMARKDO           ECADR    MARKDOWN
000408: 07,2001  E7,1725                                  EBANK=   MRKBUF1
000409: 07,2001           03725        EBMRKBUF           ECADR    MRKBUF1
000410:
000411: 24,2000                                           BANK     24
000412: 24,2000  E7,1431                                  EBANK=   DVCNTR
000413: 24,2000           03431        EBDVCNTR           ECADR    DVCNTR
000414: 24,2001  E7,1672                                  EBANK=   P40TMP
000415: 24,2001           03672        EBP40TMP           ECADR    P40TMP
000416:
000417: 34,2000                                           BANK     34
000418: 34,2000  E7,1431                                  EBANK=   DVCNTR
000419: 34,2000           03431        EBDVCNT            ECADR    DVCNTR
000420: 34,2001  E5,1426                                  EBANK=   QPLACES
000421: 34,2001           02426        EBQPLACE           ECADR    QPLACES
000422:
000423: 37,2000                                           BANK     37
000424: 37,2000     1231                                  EBANK=   RN1
000425: 37,2000           01231        EBRN1              ECADR    RN1
000426:
000427:                                                                                                  # ****************************************************************************************************************
000428:


End of include-file TAGS_FOR_RELATIVE_SETLOC_AND_BLANK_BANK_CARDS.agc.  Parent file is MAIN.agc


